{
	"w10_KYC.sol": {
		"KYCRegistry": {
			"abi": [
				{
					"inputs": [],
					"stateMutability": "nonpayable",
					"type": "constructor"
				},
				{
					"anonymous": false,
					"inputs": [
						{
							"indexed": true,
							"internalType": "address",
							"name": "customer",
							"type": "address"
						},
						{
							"indexed": false,
							"internalType": "string",
							"name": "documentHash",
							"type": "string"
						}
					],
					"name": "DocumentVerified",
					"type": "event"
				},
				{
					"anonymous": false,
					"inputs": [
						{
							"indexed": true,
							"internalType": "address",
							"name": "Customer",
							"type": "address"
						},
						{
							"indexed": false,
							"internalType": "uint256",
							"name": "riskScore",
							"type": "uint256"
						}
					],
					"name": "KYCCreated",
					"type": "event"
				},
				{
					"anonymous": false,
					"inputs": [
						{
							"indexed": true,
							"internalType": "address",
							"name": "customer",
							"type": "address"
						},
						{
							"indexed": false,
							"internalType": "bool",
							"name": "status",
							"type": "bool"
						},
						{
							"indexed": false,
							"internalType": "enum KYCRegistry.RiskLevel",
							"name": "level",
							"type": "uint8"
						},
						{
							"indexed": false,
							"internalType": "uint256",
							"name": "riskScore",
							"type": "uint256"
						},
						{
							"indexed": false,
							"internalType": "bool",
							"name": "isActive",
							"type": "bool"
						}
					],
					"name": "KYCUpdated",
					"type": "event"
				},
				{
					"anonymous": false,
					"inputs": [
						{
							"indexed": true,
							"internalType": "address",
							"name": "customer",
							"type": "address"
						},
						{
							"indexed": false,
							"internalType": "bool",
							"name": "boolean",
							"type": "bool"
						}
					],
					"name": "ProfileStatusChanged",
					"type": "event"
				},
				{
					"anonymous": false,
					"inputs": [
						{
							"indexed": true,
							"internalType": "address",
							"name": "customer",
							"type": "address"
						},
						{
							"indexed": false,
							"internalType": "enum KYCRegistry.RiskLevel",
							"name": "r",
							"type": "uint8"
						}
					],
					"name": "ReviewsRequired",
					"type": "event"
				},
				{
					"anonymous": false,
					"inputs": [
						{
							"indexed": true,
							"internalType": "address",
							"name": "customer",
							"type": "address"
						},
						{
							"indexed": false,
							"internalType": "uint256",
							"name": "newRiskScore",
							"type": "uint256"
						},
						{
							"indexed": false,
							"internalType": "uint256",
							"name": "updateTime",
							"type": "uint256"
						}
					],
					"name": "RiskScoreUpdated",
					"type": "event"
				},
				{
					"anonymous": false,
					"inputs": [
						{
							"indexed": true,
							"internalType": "address",
							"name": "verifier",
							"type": "address"
						}
					],
					"name": "VerifierAdded",
					"type": "event"
				},
				{
					"anonymous": false,
					"inputs": [
						{
							"indexed": true,
							"internalType": "address",
							"name": "verifier",
							"type": "address"
						}
					],
					"name": "VerifierRemoved",
					"type": "event"
				},
				{
					"inputs": [
						{
							"internalType": "address",
							"name": "_officer",
							"type": "address"
						}
					],
					"name": "addComplianceOfficer",
					"outputs": [],
					"stateMutability": "nonpayable",
					"type": "function"
				},
				{
					"inputs": [
						{
							"internalType": "address",
							"name": "_customer",
							"type": "address"
						},
						{
							"internalType": "uint256",
							"name": "_riskScore",
							"type": "uint256"
						}
					],
					"name": "createKYC",
					"outputs": [],
					"stateMutability": "nonpayable",
					"type": "function"
				},
				{
					"inputs": [
						{
							"internalType": "address",
							"name": "a",
							"type": "address"
						}
					],
					"name": "customerExists",
					"outputs": [
						{
							"internalType": "bool",
							"name": "",
							"type": "bool"
						}
					],
					"stateMutability": "view",
					"type": "function"
				},
				{
					"inputs": [
						{
							"internalType": "address",
							"name": "",
							"type": "address"
						}
					],
					"name": "customers",
					"outputs": [
						{
							"internalType": "bool",
							"name": "kycStatus",
							"type": "bool"
						},
						{
							"internalType": "enum KYCRegistry.RiskLevel",
							"name": "kycLevel",
							"type": "uint8"
						},
						{
							"internalType": "uint256",
							"name": "lastUpdated",
							"type": "uint256"
						},
						{
							"internalType": "address",
							"name": "verifier",
							"type": "address"
						},
						{
							"internalType": "uint256",
							"name": "riskScore",
							"type": "uint256"
						},
						{
							"internalType": "uint256",
							"name": "lastReviewDate",
							"type": "uint256"
						},
						{
							"internalType": "bool",
							"name": "isActive",
							"type": "bool"
						}
					],
					"stateMutability": "view",
					"type": "function"
				},
				{
					"inputs": [
						{
							"internalType": "address",
							"name": "_customer",
							"type": "address"
						}
					],
					"name": "getCustomerKYC",
					"outputs": [
						{
							"internalType": "bool",
							"name": "",
							"type": "bool"
						},
						{
							"internalType": "enum KYCRegistry.RiskLevel",
							"name": "",
							"type": "uint8"
						},
						{
							"internalType": "uint256",
							"name": "",
							"type": "uint256"
						},
						{
							"internalType": "address",
							"name": "",
							"type": "address"
						},
						{
							"internalType": "uint256",
							"name": "",
							"type": "uint256"
						},
						{
							"internalType": "bool",
							"name": "",
							"type": "bool"
						},
						{
							"internalType": "uint256",
							"name": "",
							"type": "uint256"
						}
					],
					"stateMutability": "view",
					"type": "function"
				},
				{
					"inputs": [
						{
							"internalType": "address",
							"name": "_customer",
							"type": "address"
						}
					],
					"name": "getRiskLevel",
					"outputs": [
						{
							"internalType": "enum KYCRegistry.RiskLevel",
							"name": "",
							"type": "uint8"
						}
					],
					"stateMutability": "view",
					"type": "function"
				},
				{
					"inputs": [
						{
							"internalType": "address",
							"name": "_customer",
							"type": "address"
						},
						{
							"internalType": "string",
							"name": "_documentType",
							"type": "string"
						}
					],
					"name": "isDocumentVerified",
					"outputs": [
						{
							"internalType": "bool",
							"name": "",
							"type": "bool"
						}
					],
					"stateMutability": "view",
					"type": "function"
				},
				{
					"inputs": [],
					"name": "owner",
					"outputs": [
						{
							"internalType": "address",
							"name": "",
							"type": "address"
						}
					],
					"stateMutability": "view",
					"type": "function"
				},
				{
					"inputs": [
						{
							"internalType": "address",
							"name": "_officer",
							"type": "address"
						}
					],
					"name": "removeComplianceOfficer",
					"outputs": [],
					"stateMutability": "nonpayable",
					"type": "function"
				},
				{
					"inputs": [
						{
							"internalType": "address",
							"name": "a",
							"type": "address"
						}
					],
					"name": "requiresReview",
					"outputs": [
						{
							"internalType": "bool",
							"name": "",
							"type": "bool"
						}
					],
					"stateMutability": "nonpayable",
					"type": "function"
				},
				{
					"inputs": [
						{
							"internalType": "address",
							"name": "_address",
							"type": "address"
						},
						{
							"internalType": "bool",
							"name": "_bool",
							"type": "bool"
						}
					],
					"name": "setProfileStatus",
					"outputs": [],
					"stateMutability": "nonpayable",
					"type": "function"
				},
				{
					"inputs": [
						{
							"internalType": "uint256",
							"name": "_riskScore",
							"type": "uint256"
						}
					],
					"name": "setRiskLevel",
					"outputs": [
						{
							"internalType": "enum KYCRegistry.RiskLevel",
							"name": "",
							"type": "uint8"
						}
					],
					"stateMutability": "pure",
					"type": "function"
				},
				{
					"inputs": [
						{
							"internalType": "address",
							"name": "_customer",
							"type": "address"
						},
						{
							"internalType": "bool",
							"name": "_status",
							"type": "bool"
						},
						{
							"internalType": "bool",
							"name": "_isActive",
							"type": "bool"
						}
					],
					"name": "updateKYC",
					"outputs": [],
					"stateMutability": "nonpayable",
					"type": "function"
				},
				{
					"inputs": [
						{
							"internalType": "address",
							"name": "a",
							"type": "address"
						},
						{
							"internalType": "uint256",
							"name": "_riskScore",
							"type": "uint256"
						}
					],
					"name": "updateRiskScore",
					"outputs": [],
					"stateMutability": "nonpayable",
					"type": "function"
				},
				{
					"inputs": [
						{
							"internalType": "address",
							"name": "",
							"type": "address"
						},
						{
							"internalType": "string",
							"name": "",
							"type": "string"
						}
					],
					"name": "verifiedDocuments",
					"outputs": [
						{
							"internalType": "bool",
							"name": "",
							"type": "bool"
						}
					],
					"stateMutability": "view",
					"type": "function"
				},
				{
					"inputs": [
						{
							"internalType": "address",
							"name": "",
							"type": "address"
						}
					],
					"name": "verifiers",
					"outputs": [
						{
							"internalType": "bool",
							"name": "",
							"type": "bool"
						}
					],
					"stateMutability": "view",
					"type": "function"
				},
				{
					"inputs": [
						{
							"internalType": "address",
							"name": "_customer",
							"type": "address"
						},
						{
							"internalType": "string",
							"name": "_documentType",
							"type": "string"
						}
					],
					"name": "verifyDocument",
					"outputs": [],
					"stateMutability": "nonpayable",
					"type": "function"
				}
			],
			"devdoc": {
				"details": "A simple KYC (Know Your Customer) registry system on blockchain Allows authorized verifiers to update customer KYC status and details",
				"kind": "dev",
				"methods": {
					"addComplianceOfficer(address)": {
						"details": "Adds a new authorized verifier",
						"params": {
							"_officer": "Address of the verifier to be added"
						}
					},
					"constructor": {
						"details": "Constructor sets the contract deployer as owner"
					},
					"createKYC(address,uint256)": {
						"details": "Updates KYC status and details for a customer",
						"params": {
							"_customer": "Address of the customer"
						}
					},
					"getCustomerKYC(address)": {
						"details": "Retrieves KYC information for a customer",
						"params": {
							"_customer": "Address of the customer"
						},
						"returns": {
							"_0": "Customer's KYC status, level, last update timestamp, and verifier address"
						}
					},
					"removeComplianceOfficer(address)": {
						"details": "Removes an authorized verifier",
						"params": {
							"_officer": "Address of the verifier to be removed"
						}
					},
					"updateKYC(address,bool,bool)": {
						"details": "Updates KYC status and details for a customer",
						"params": {
							"_customer": "Address of the customer"
						}
					}
				},
				"title": "KYC Registry Contract",
				"version": 1
			},
			"evm": {
				"assembly": "    /* \"w10_KYC.sol\":244:7177  contract KYCRegistry {... */\n  mstore(0x40, 0x80)\n    /* \"w10_KYC.sol\":2412:2507  constructor() {... */\n  callvalue\n  dup1\n  iszero\n  tag_1\n  jumpi\n  0x00\n  dup1\n  revert\ntag_1:\n  pop\n    /* \"w10_KYC.sol\":2444:2454  msg.sender */\n  caller\n    /* \"w10_KYC.sol\":2436:2441  owner */\n  0x03\n  0x00\n    /* \"w10_KYC.sol\":2436:2454  owner = msg.sender */\n  0x0100\n  exp\n  dup2\n  sload\n  dup2\n  0xffffffffffffffffffffffffffffffffffffffff\n  mul\n  not\n  and\n  swap1\n  dup4\n  0xffffffffffffffffffffffffffffffffffffffff\n  and\n  mul\n  or\n  swap1\n  sstore\n  pop\n    /* \"w10_KYC.sol\":244:7177  contract KYCRegistry {... */\n  dataSize(sub_0)\n  dup1\n  dataOffset(sub_0)\n  0x00\n  codecopy\n  0x00\n  return\nstop\n\nsub_0: assembly {\n        /* \"w10_KYC.sol\":244:7177  contract KYCRegistry {... */\n      mstore(0x40, 0x80)\n      callvalue\n      dup1\n      iszero\n      tag_1\n      jumpi\n      0x00\n      dup1\n      revert\n    tag_1:\n      pop\n      jumpi(tag_2, lt(calldatasize, 0x04))\n      shr(0xe0, calldataload(0x00))\n      dup1\n      0x8da5cb5b\n      gt\n      tag_20\n      jumpi\n      dup1\n      0xaa788176\n      gt\n      tag_21\n      jumpi\n      dup1\n      0xaa788176\n      eq\n      tag_15\n      jumpi\n      dup1\n      0xb10261b2\n      eq\n      tag_16\n      jumpi\n      dup1\n      0xc9882913\n      eq\n      tag_17\n      jumpi\n      dup1\n      0xccf2258b\n      eq\n      tag_18\n      jumpi\n      dup1\n      0xe527654b\n      eq\n      tag_19\n      jumpi\n      jump(tag_2)\n    tag_21:\n      dup1\n      0x8da5cb5b\n      eq\n      tag_11\n      jumpi\n      dup1\n      0x9ff1192d\n      eq\n      tag_12\n      jumpi\n      dup1\n      0xa3d4621e\n      eq\n      tag_13\n      jumpi\n      dup1\n      0xaa7804cd\n      eq\n      tag_14\n      jumpi\n      jump(tag_2)\n    tag_20:\n      dup1\n      0x641ee9d5\n      gt\n      tag_22\n      jumpi\n      dup1\n      0x641ee9d5\n      eq\n      tag_7\n      jumpi\n      dup1\n      0x689b0098\n      eq\n      tag_8\n      jumpi\n      dup1\n      0x6c824487\n      eq\n      tag_9\n      jumpi\n      dup1\n      0x6e287d98\n      eq\n      tag_10\n      jumpi\n      jump(tag_2)\n    tag_22:\n      dup1\n      0x1615f2d4\n      eq\n      tag_3\n      jumpi\n      dup1\n      0x29511271\n      eq\n      tag_4\n      jumpi\n      dup1\n      0x336989ae\n      eq\n      tag_5\n      jumpi\n      dup1\n      0x3e8450ce\n      eq\n      tag_6\n      jumpi\n    tag_2:\n      0x00\n      dup1\n      revert\n        /* \"w10_KYC.sol\":5996:6136  function getRiskLevel(address _customer) public view returns (RiskLevel) { //Risk level ... */\n    tag_3:\n      tag_23\n      0x04\n      dup1\n      calldatasize\n      sub\n      dup2\n      add\n      swap1\n      tag_24\n      swap2\n      swap1\n      tag_25\n      jump\t// in\n    tag_24:\n      tag_26\n      jump\t// in\n    tag_23:\n      mload(0x40)\n      tag_27\n      swap2\n      swap1\n      tag_28\n      jump\t// in\n    tag_27:\n      mload(0x40)\n      dup1\n      swap2\n      sub\n      swap1\n      return\n        /* \"w10_KYC.sol\":2911:3063  function removeComplianceOfficer(address _officer) public onlyOwner {... */\n    tag_4:\n      tag_29\n      0x04\n      dup1\n      calldatasize\n      sub\n      dup2\n      add\n      swap1\n      tag_30\n      swap2\n      swap1\n      tag_25\n      jump\t// in\n    tag_30:\n      tag_31\n      jump\t// in\n    tag_29:\n      stop\n        /* \"w10_KYC.sol\":960:1005  mapping(address => Customer) public customers */\n    tag_5:\n      tag_32\n      0x04\n      dup1\n      calldatasize\n      sub\n      dup2\n      add\n      swap1\n      tag_33\n      swap2\n      swap1\n      tag_25\n      jump\t// in\n    tag_33:\n      tag_34\n      jump\t// in\n    tag_32:\n      mload(0x40)\n      tag_35\n      swap8\n      swap7\n      swap6\n      swap5\n      swap4\n      swap3\n      swap2\n      swap1\n      tag_36\n      jump\t// in\n    tag_35:\n      mload(0x40)\n      dup1\n      swap2\n      sub\n      swap1\n      return\n        /* \"w10_KYC.sol\":6581:6762  function setProfileStatus(address _address, bool _bool) public onlyVerifier {... */\n    tag_6:\n      tag_37\n      0x04\n      dup1\n      calldatasize\n      sub\n      dup2\n      add\n      swap1\n      tag_38\n      swap2\n      swap1\n      tag_39\n      jump\t// in\n    tag_38:\n      tag_40\n      jump\t// in\n    tag_37:\n      stop\n        /* \"w10_KYC.sol\":5186:5402  function verifyDocument(address _customer, string memory _documentType) public onlyVerifier {... */\n    tag_7:\n      tag_41\n      0x04\n      dup1\n      calldatasize\n      sub\n      dup2\n      add\n      swap1\n      tag_42\n      swap2\n      swap1\n      tag_43\n      jump\t// in\n    tag_42:\n      tag_44\n      jump\t// in\n    tag_41:\n      stop\n        /* \"w10_KYC.sol\":6446:6575  function customerExists(address a) public onlyVerifier view returns (bool)  {... */\n    tag_8:\n      tag_45\n      0x04\n      dup1\n      calldatasize\n      sub\n      dup2\n      add\n      swap1\n      tag_46\n      swap2\n      swap1\n      tag_25\n      jump\t// in\n    tag_46:\n      tag_47\n      jump\t// in\n    tag_45:\n      mload(0x40)\n      tag_48\n      swap2\n      swap1\n      tag_49\n      jump\t// in\n    tag_48:\n      mload(0x40)\n      dup1\n      swap2\n      sub\n      swap1\n      return\n        /* \"w10_KYC.sol\":1056:1097  mapping(address => bool) public verifiers */\n    tag_9:\n      tag_50\n      0x04\n      dup1\n      calldatasize\n      sub\n      dup2\n      add\n      swap1\n      tag_51\n      swap2\n      swap1\n      tag_25\n      jump\t// in\n    tag_51:\n      tag_52\n      jump\t// in\n    tag_50:\n      mload(0x40)\n      tag_53\n      swap2\n      swap1\n      tag_49\n      jump\t// in\n    tag_53:\n      mload(0x40)\n      dup1\n      swap2\n      sub\n      swap1\n      return\n        /* \"w10_KYC.sol\":5010:5180  function isDocumentVerified(address _customer, string memory _documentType) public view returns (bool) {... */\n    tag_10:\n      tag_54\n      0x04\n      dup1\n      calldatasize\n      sub\n      dup2\n      add\n      swap1\n      tag_55\n      swap2\n      swap1\n      tag_43\n      jump\t// in\n    tag_55:\n      tag_56\n      jump\t// in\n    tag_54:\n      mload(0x40)\n      tag_57\n      swap2\n      swap1\n      tag_49\n      jump\t// in\n    tag_57:\n      mload(0x40)\n      dup1\n      swap2\n      sub\n      swap1\n      return\n        /* \"w10_KYC.sol\":1261:1281  address public owner */\n    tag_11:\n      tag_58\n      tag_59\n      jump\t// in\n    tag_58:\n      mload(0x40)\n      tag_60\n      swap2\n      swap1\n      tag_61\n      jump\t// in\n    tag_60:\n      mload(0x40)\n      dup1\n      swap2\n      sub\n      swap1\n      return\n        /* \"w10_KYC.sol\":5408:5990  function updateRiskScore(address a, uint256 _riskScore) public onlyVerifier { //Risk score implementation... */\n    tag_12:\n      tag_62\n      0x04\n      dup1\n      calldatasize\n      sub\n      dup2\n      add\n      swap1\n      tag_63\n      swap2\n      swap1\n      tag_64\n      jump\t// in\n    tag_63:\n      tag_65\n      jump\t// in\n    tag_62:\n      stop\n        /* \"w10_KYC.sol\":1156:1224  mapping(address => mapping(string => bool)) public verifiedDocuments */\n    tag_13:\n      tag_66\n      0x04\n      dup1\n      calldatasize\n      sub\n      dup2\n      add\n      swap1\n      tag_67\n      swap2\n      swap1\n      tag_43\n      jump\t// in\n    tag_67:\n      tag_68\n      jump\t// in\n    tag_66:\n      mload(0x40)\n      tag_69\n      swap2\n      swap1\n      tag_49\n      jump\t// in\n    tag_69:\n      mload(0x40)\n      dup1\n      swap2\n      sub\n      swap1\n      return\n        /* \"w10_KYC.sol\":3195:3654  function createKYC(address _customer, uint256 _riskScore) public onlyVerifier {... */\n    tag_14:\n      tag_70\n      0x04\n      dup1\n      calldatasize\n      sub\n      dup2\n      add\n      swap1\n      tag_71\n      swap2\n      swap1\n      tag_64\n      jump\t// in\n    tag_71:\n      tag_72\n      jump\t// in\n    tag_70:\n      stop\n        /* \"w10_KYC.sol\":6768:7175  function requiresReview(address a) public onlyVerifier returns (bool){... */\n    tag_15:\n      tag_73\n      0x04\n      dup1\n      calldatasize\n      sub\n      dup2\n      add\n      swap1\n      tag_74\n      swap2\n      swap1\n      tag_25\n      jump\t// in\n    tag_74:\n      tag_75\n      jump\t// in\n    tag_73:\n      mload(0x40)\n      tag_76\n      swap2\n      swap1\n      tag_49\n      jump\t// in\n    tag_76:\n      mload(0x40)\n      dup1\n      swap2\n      sub\n      swap1\n      return\n        /* \"w10_KYC.sol\":3782:4341  function updateKYC(address _customer, bool _status, bool _isActive) public onlyVerifier {... */\n    tag_16:\n      tag_77\n      0x04\n      dup1\n      calldatasize\n      sub\n      dup2\n      add\n      swap1\n      tag_78\n      swap2\n      swap1\n      tag_79\n      jump\t// in\n    tag_78:\n      tag_80\n      jump\t// in\n    tag_77:\n      stop\n        /* \"w10_KYC.sol\":6142:6440  function setRiskLevel(uint256 _riskScore) public pure returns (RiskLevel) { //Risk level ... */\n    tag_17:\n      tag_81\n      0x04\n      dup1\n      calldatasize\n      sub\n      dup2\n      add\n      swap1\n      tag_82\n      swap2\n      swap1\n      tag_83\n      jump\t// in\n    tag_82:\n      tag_84\n      jump\t// in\n    tag_81:\n      mload(0x40)\n      tag_85\n      swap2\n      swap1\n      tag_28\n      jump\t// in\n    tag_85:\n      mload(0x40)\n      dup1\n      swap2\n      sub\n      swap1\n      return\n        /* \"w10_KYC.sol\":2635:2781  function addComplianceOfficer(address _officer) public onlyOwner {... */\n    tag_18:\n      tag_86\n      0x04\n      dup1\n      calldatasize\n      sub\n      dup2\n      add\n      swap1\n      tag_87\n      swap2\n      swap1\n      tag_25\n      jump\t// in\n    tag_87:\n      tag_88\n      jump\t// in\n    tag_86:\n      stop\n        /* \"w10_KYC.sol\":4557:4999  function getCustomerKYC(address _customer) public view returns (bool, RiskLevel, uint256, address, uint256, bool, uint256) {... */\n    tag_19:\n      tag_89\n      0x04\n      dup1\n      calldatasize\n      sub\n      dup2\n      add\n      swap1\n      tag_90\n      swap2\n      swap1\n      tag_25\n      jump\t// in\n    tag_90:\n      tag_91\n      jump\t// in\n    tag_89:\n      mload(0x40)\n      tag_92\n      swap8\n      swap7\n      swap6\n      swap5\n      swap4\n      swap3\n      swap2\n      swap1\n      tag_93\n      jump\t// in\n    tag_92:\n      mload(0x40)\n      dup1\n      swap2\n      sub\n      swap1\n      return\n        /* \"w10_KYC.sol\":5996:6136  function getRiskLevel(address _customer) public view returns (RiskLevel) { //Risk level ... */\n    tag_26:\n        /* \"w10_KYC.sol\":6058:6067  RiskLevel */\n      0x00\n        /* \"w10_KYC.sol\":6100:6109  customers */\n      dup1\n        /* \"w10_KYC.sol\":6100:6120  customers[_customer] */\n      0x00\n        /* \"w10_KYC.sol\":6110:6119  _customer */\n      dup4\n        /* \"w10_KYC.sol\":6100:6120  customers[_customer] */\n      0xffffffffffffffffffffffffffffffffffffffff\n      and\n      0xffffffffffffffffffffffffffffffffffffffff\n      and\n      dup2\n      mstore\n      0x20\n      add\n      swap1\n      dup2\n      mstore\n      0x20\n      add\n      0x00\n      keccak256\n        /* \"w10_KYC.sol\":6100:6129  customers[_customer].kycLevel */\n      0x00\n      add\n      0x01\n      swap1\n      sload\n      swap1\n      0x0100\n      exp\n      swap1\n      div\n      0xff\n      and\n        /* \"w10_KYC.sol\":6093:6129  return customers[_customer].kycLevel */\n      swap1\n      pop\n        /* \"w10_KYC.sol\":5996:6136  function getRiskLevel(address _customer) public view returns (RiskLevel) { //Risk level ... */\n      swap2\n      swap1\n      pop\n      jump\t// out\n        /* \"w10_KYC.sol\":2911:3063  function removeComplianceOfficer(address _officer) public onlyOwner {... */\n    tag_31:\n        /* \"w10_KYC.sol\":2052:2057  owner */\n      0x03\n      0x00\n      swap1\n      sload\n      swap1\n      0x0100\n      exp\n      swap1\n      div\n      0xffffffffffffffffffffffffffffffffffffffff\n      and\n        /* \"w10_KYC.sol\":2038:2057  msg.sender == owner */\n      0xffffffffffffffffffffffffffffffffffffffff\n      and\n        /* \"w10_KYC.sol\":2038:2048  msg.sender */\n      caller\n        /* \"w10_KYC.sol\":2038:2057  msg.sender == owner */\n      0xffffffffffffffffffffffffffffffffffffffff\n      and\n      eq\n        /* \"w10_KYC.sol\":2030:2096  require(msg.sender == owner, \"Only owner can perform this action\") */\n      tag_96\n      jumpi\n      mload(0x40)\n      0x08c379a000000000000000000000000000000000000000000000000000000000\n      dup2\n      mstore\n      0x04\n      add\n      tag_97\n      swap1\n      tag_98\n      jump\t// in\n    tag_97:\n      mload(0x40)\n      dup1\n      swap2\n      sub\n      swap1\n      revert\n    tag_96:\n        /* \"w10_KYC.sol\":3011:3016  false */\n      0x00\n        /* \"w10_KYC.sol\":2989:2998  verifiers */\n      0x01\n        /* \"w10_KYC.sol\":2989:3008  verifiers[_officer] */\n      0x00\n        /* \"w10_KYC.sol\":2999:3007  _officer */\n      dup4\n        /* \"w10_KYC.sol\":2989:3008  verifiers[_officer] */\n      0xffffffffffffffffffffffffffffffffffffffff\n      and\n      0xffffffffffffffffffffffffffffffffffffffff\n      and\n      dup2\n      mstore\n      0x20\n      add\n      swap1\n      dup2\n      mstore\n      0x20\n      add\n      0x00\n      keccak256\n      0x00\n        /* \"w10_KYC.sol\":2989:3016  verifiers[_officer] = false */\n      0x0100\n      exp\n      dup2\n      sload\n      dup2\n      0xff\n      mul\n      not\n      and\n      swap1\n      dup4\n      iszero\n      iszero\n      mul\n      or\n      swap1\n      sstore\n      pop\n        /* \"w10_KYC.sol\":3047:3055  _officer */\n      dup1\n        /* \"w10_KYC.sol\":3031:3056  VerifierRemoved(_officer) */\n      0xffffffffffffffffffffffffffffffffffffffff\n      and\n      0x44a3cd4eb5cc5748f6169df057b1cb2ae4c383e87cd94663c430e095d4cba424\n      mload(0x40)\n      mload(0x40)\n      dup1\n      swap2\n      sub\n      swap1\n      log2\n        /* \"w10_KYC.sol\":2911:3063  function removeComplianceOfficer(address _officer) public onlyOwner {... */\n      pop\n      jump\t// out\n        /* \"w10_KYC.sol\":960:1005  mapping(address => Customer) public customers */\n    tag_34:\n      mstore(0x20, 0x00)\n      dup1\n      0x00\n      mstore\n      keccak256(0x00, 0x40)\n      0x00\n      swap2\n      pop\n      swap1\n      pop\n      dup1\n      0x00\n      add\n      0x00\n      swap1\n      sload\n      swap1\n      0x0100\n      exp\n      swap1\n      div\n      0xff\n      and\n      swap1\n      dup1\n      0x00\n      add\n      0x01\n      swap1\n      sload\n      swap1\n      0x0100\n      exp\n      swap1\n      div\n      0xff\n      and\n      swap1\n      dup1\n      0x01\n      add\n      sload\n      swap1\n      dup1\n      0x02\n      add\n      0x00\n      swap1\n      sload\n      swap1\n      0x0100\n      exp\n      swap1\n      div\n      0xffffffffffffffffffffffffffffffffffffffff\n      and\n      swap1\n      dup1\n      0x03\n      add\n      sload\n      swap1\n      dup1\n      0x04\n      add\n      sload\n      swap1\n      dup1\n      0x05\n      add\n      0x00\n      swap1\n      sload\n      swap1\n      0x0100\n      exp\n      swap1\n      div\n      0xff\n      and\n      swap1\n      pop\n      dup8\n      jump\t// out\n        /* \"w10_KYC.sol\":6581:6762  function setProfileStatus(address _address, bool _bool) public onlyVerifier {... */\n    tag_40:\n        /* \"w10_KYC.sol\":2233:2242  verifiers */\n      0x01\n        /* \"w10_KYC.sol\":2233:2254  verifiers[msg.sender] */\n      0x00\n        /* \"w10_KYC.sol\":2243:2253  msg.sender */\n      caller\n        /* \"w10_KYC.sol\":2233:2254  verifiers[msg.sender] */\n      0xffffffffffffffffffffffffffffffffffffffff\n      and\n      0xffffffffffffffffffffffffffffffffffffffff\n      and\n      dup2\n      mstore\n      0x20\n      add\n      swap1\n      dup2\n      mstore\n      0x20\n      add\n      0x00\n      keccak256\n      0x00\n      swap1\n      sload\n      swap1\n      0x0100\n      exp\n      swap1\n      div\n      0xff\n      and\n        /* \"w10_KYC.sol\":2225:2308  require(verifiers[msg.sender], \"Only authorized verifiers can perform this action\") */\n      tag_101\n      jumpi\n      mload(0x40)\n      0x08c379a000000000000000000000000000000000000000000000000000000000\n      dup2\n      mstore\n      0x04\n      add\n      tag_102\n      swap1\n      tag_103\n      jump\t// in\n    tag_102:\n      mload(0x40)\n      dup1\n      swap2\n      sub\n      swap1\n      revert\n    tag_101:\n        /* \"w10_KYC.sol\":6698:6703  _bool */\n      dup1\n        /* \"w10_KYC.sol\":6667:6676  customers */\n      0x00\n        /* \"w10_KYC.sol\":6667:6686  customers[_address] */\n      dup1\n        /* \"w10_KYC.sol\":6677:6685  _address */\n      dup5\n        /* \"w10_KYC.sol\":6667:6686  customers[_address] */\n      0xffffffffffffffffffffffffffffffffffffffff\n      and\n      0xffffffffffffffffffffffffffffffffffffffff\n      and\n      dup2\n      mstore\n      0x20\n      add\n      swap1\n      dup2\n      mstore\n      0x20\n      add\n      0x00\n      keccak256\n        /* \"w10_KYC.sol\":6667:6695  customers[_address].isActive */\n      0x05\n      add\n      0x00\n        /* \"w10_KYC.sol\":6667:6703  customers[_address].isActive = _bool */\n      0x0100\n      exp\n      dup2\n      sload\n      dup2\n      0xff\n      mul\n      not\n      and\n      swap1\n      dup4\n      iszero\n      iszero\n      mul\n      or\n      swap1\n      sstore\n      pop\n        /* \"w10_KYC.sol\":6739:6747  _address */\n      dup2\n        /* \"w10_KYC.sol\":6718:6755  ProfileStatusChanged(_address, _bool) */\n      0xffffffffffffffffffffffffffffffffffffffff\n      and\n      0x1cb955f6f6159d0596b871a84f2bebda3cb78d6afd36a017263c7649283eb283\n        /* \"w10_KYC.sol\":6749:6754  _bool */\n      dup3\n        /* \"w10_KYC.sol\":6718:6755  ProfileStatusChanged(_address, _bool) */\n      mload(0x40)\n      tag_105\n      swap2\n      swap1\n      tag_49\n      jump\t// in\n    tag_105:\n      mload(0x40)\n      dup1\n      swap2\n      sub\n      swap1\n      log2\n        /* \"w10_KYC.sol\":6581:6762  function setProfileStatus(address _address, bool _bool) public onlyVerifier {... */\n      pop\n      pop\n      jump\t// out\n        /* \"w10_KYC.sol\":5186:5402  function verifyDocument(address _customer, string memory _documentType) public onlyVerifier {... */\n    tag_44:\n        /* \"w10_KYC.sol\":2233:2242  verifiers */\n      0x01\n        /* \"w10_KYC.sol\":2233:2254  verifiers[msg.sender] */\n      0x00\n        /* \"w10_KYC.sol\":2243:2253  msg.sender */\n      caller\n        /* \"w10_KYC.sol\":2233:2254  verifiers[msg.sender] */\n      0xffffffffffffffffffffffffffffffffffffffff\n      and\n      0xffffffffffffffffffffffffffffffffffffffff\n      and\n      dup2\n      mstore\n      0x20\n      add\n      swap1\n      dup2\n      mstore\n      0x20\n      add\n      0x00\n      keccak256\n      0x00\n      swap1\n      sload\n      swap1\n      0x0100\n      exp\n      swap1\n      div\n      0xff\n      and\n        /* \"w10_KYC.sol\":2225:2308  require(verifiers[msg.sender], \"Only authorized verifiers can perform this action\") */\n      tag_107\n      jumpi\n      mload(0x40)\n      0x08c379a000000000000000000000000000000000000000000000000000000000\n      dup2\n      mstore\n      0x04\n      add\n      tag_108\n      swap1\n      tag_103\n      jump\t// in\n    tag_108:\n      mload(0x40)\n      dup1\n      swap2\n      sub\n      swap1\n      revert\n    tag_107:\n        /* \"w10_KYC.sol\":5334:5338  true */\n      0x01\n        /* \"w10_KYC.sol\":5288:5305  verifiedDocuments */\n      0x02\n        /* \"w10_KYC.sol\":5288:5316  verifiedDocuments[_customer] */\n      0x00\n        /* \"w10_KYC.sol\":5306:5315  _customer */\n      dup5\n        /* \"w10_KYC.sol\":5288:5316  verifiedDocuments[_customer] */\n      0xffffffffffffffffffffffffffffffffffffffff\n      and\n      0xffffffffffffffffffffffffffffffffffffffff\n      and\n      dup2\n      mstore\n      0x20\n      add\n      swap1\n      dup2\n      mstore\n      0x20\n      add\n      0x00\n      keccak256\n        /* \"w10_KYC.sol\":5317:5330  _documentType */\n      dup3\n        /* \"w10_KYC.sol\":5288:5331  verifiedDocuments[_customer][_documentType] */\n      mload(0x40)\n      tag_110\n      swap2\n      swap1\n      tag_111\n      jump\t// in\n    tag_110:\n      swap1\n      dup2\n      mstore\n      0x20\n      add\n      mload(0x40)\n      dup1\n      swap2\n      sub\n      swap1\n      keccak256\n      0x00\n        /* \"w10_KYC.sol\":5288:5338  verifiedDocuments[_customer][_documentType] = true */\n      0x0100\n      exp\n      dup2\n      sload\n      dup2\n      0xff\n      mul\n      not\n      and\n      swap1\n      dup4\n      iszero\n      iszero\n      mul\n      or\n      swap1\n      sstore\n      pop\n        /* \"w10_KYC.sol\":5370:5379  _customer */\n      dup2\n        /* \"w10_KYC.sol\":5353:5395  DocumentVerified(_customer, _documentType) */\n      0xffffffffffffffffffffffffffffffffffffffff\n      and\n      0x91d578c890fbab9b4c0093ce2eb6e7bfee0d83c18211da21952176f4e383921c\n        /* \"w10_KYC.sol\":5381:5394  _documentType */\n      dup3\n        /* \"w10_KYC.sol\":5353:5395  DocumentVerified(_customer, _documentType) */\n      mload(0x40)\n      tag_112\n      swap2\n      swap1\n      tag_113\n      jump\t// in\n    tag_112:\n      mload(0x40)\n      dup1\n      swap2\n      sub\n      swap1\n      log2\n        /* \"w10_KYC.sol\":5186:5402  function verifyDocument(address _customer, string memory _documentType) public onlyVerifier {... */\n      pop\n      pop\n      jump\t// out\n        /* \"w10_KYC.sol\":6446:6575  function customerExists(address a) public onlyVerifier view returns (bool)  {... */\n    tag_47:\n        /* \"w10_KYC.sol\":6515:6519  bool */\n      0x00\n        /* \"w10_KYC.sol\":2233:2242  verifiers */\n      0x01\n        /* \"w10_KYC.sol\":2233:2254  verifiers[msg.sender] */\n      0x00\n        /* \"w10_KYC.sol\":2243:2253  msg.sender */\n      caller\n        /* \"w10_KYC.sol\":2233:2254  verifiers[msg.sender] */\n      0xffffffffffffffffffffffffffffffffffffffff\n      and\n      0xffffffffffffffffffffffffffffffffffffffff\n      and\n      dup2\n      mstore\n      0x20\n      add\n      swap1\n      dup2\n      mstore\n      0x20\n      add\n      0x00\n      keccak256\n      0x00\n      swap1\n      sload\n      swap1\n      0x0100\n      exp\n      swap1\n      div\n      0xff\n      and\n        /* \"w10_KYC.sol\":2225:2308  require(verifiers[msg.sender], \"Only authorized verifiers can perform this action\") */\n      tag_115\n      jumpi\n      mload(0x40)\n      0x08c379a000000000000000000000000000000000000000000000000000000000\n      dup2\n      mstore\n      0x04\n      add\n      tag_116\n      swap1\n      tag_103\n      jump\t// in\n    tag_116:\n      mload(0x40)\n      dup1\n      swap2\n      sub\n      swap1\n      revert\n    tag_115:\n        /* \"w10_KYC.sol\":6567:6568  0 */\n      0x00\n        /* \"w10_KYC.sol\":6539:6548  customers */\n      dup1\n        /* \"w10_KYC.sol\":6539:6551  customers[a] */\n      0x00\n        /* \"w10_KYC.sol\":6549:6550  a */\n      dup5\n        /* \"w10_KYC.sol\":6539:6551  customers[a] */\n      0xffffffffffffffffffffffffffffffffffffffff\n      and\n      0xffffffffffffffffffffffffffffffffffffffff\n      and\n      dup2\n      mstore\n      0x20\n      add\n      swap1\n      dup2\n      mstore\n      0x20\n      add\n      0x00\n      keccak256\n        /* \"w10_KYC.sol\":6539:6563  customers[a].lastUpdated */\n      0x01\n      add\n      sload\n        /* \"w10_KYC.sol\":6539:6568  customers[a].lastUpdated != 0 */\n      eq\n      iszero\n        /* \"w10_KYC.sol\":6532:6568  return customers[a].lastUpdated != 0 */\n      swap1\n      pop\n        /* \"w10_KYC.sol\":6446:6575  function customerExists(address a) public onlyVerifier view returns (bool)  {... */\n      swap2\n      swap1\n      pop\n      jump\t// out\n        /* \"w10_KYC.sol\":1056:1097  mapping(address => bool) public verifiers */\n    tag_52:\n      mstore(0x20, 0x01)\n      dup1\n      0x00\n      mstore\n      keccak256(0x00, 0x40)\n      0x00\n      swap2\n      pop\n      sload\n      swap1\n      0x0100\n      exp\n      swap1\n      div\n      0xff\n      and\n      dup2\n      jump\t// out\n        /* \"w10_KYC.sol\":5010:5180  function isDocumentVerified(address _customer, string memory _documentType) public view returns (bool) {... */\n    tag_56:\n        /* \"w10_KYC.sol\":5107:5111  bool */\n      0x00\n        /* \"w10_KYC.sol\":5130:5147  verifiedDocuments */\n      0x02\n        /* \"w10_KYC.sol\":5130:5158  verifiedDocuments[_customer] */\n      0x00\n        /* \"w10_KYC.sol\":5148:5157  _customer */\n      dup5\n        /* \"w10_KYC.sol\":5130:5158  verifiedDocuments[_customer] */\n      0xffffffffffffffffffffffffffffffffffffffff\n      and\n      0xffffffffffffffffffffffffffffffffffffffff\n      and\n      dup2\n      mstore\n      0x20\n      add\n      swap1\n      dup2\n      mstore\n      0x20\n      add\n      0x00\n      keccak256\n        /* \"w10_KYC.sol\":5159:5172  _documentType */\n      dup3\n        /* \"w10_KYC.sol\":5130:5173  verifiedDocuments[_customer][_documentType] */\n      mload(0x40)\n      tag_119\n      swap2\n      swap1\n      tag_111\n      jump\t// in\n    tag_119:\n      swap1\n      dup2\n      mstore\n      0x20\n      add\n      mload(0x40)\n      dup1\n      swap2\n      sub\n      swap1\n      keccak256\n      0x00\n      swap1\n      sload\n      swap1\n      0x0100\n      exp\n      swap1\n      div\n      0xff\n      and\n        /* \"w10_KYC.sol\":5123:5173  return verifiedDocuments[_customer][_documentType] */\n      swap1\n      pop\n        /* \"w10_KYC.sol\":5010:5180  function isDocumentVerified(address _customer, string memory _documentType) public view returns (bool) {... */\n      swap3\n      swap2\n      pop\n      pop\n      jump\t// out\n        /* \"w10_KYC.sol\":1261:1281  address public owner */\n    tag_59:\n      0x03\n      0x00\n      swap1\n      sload\n      swap1\n      0x0100\n      exp\n      swap1\n      div\n      0xffffffffffffffffffffffffffffffffffffffff\n      and\n      dup2\n      jump\t// out\n        /* \"w10_KYC.sol\":5408:5990  function updateRiskScore(address a, uint256 _riskScore) public onlyVerifier { //Risk score implementation... */\n    tag_65:\n        /* \"w10_KYC.sol\":2233:2242  verifiers */\n      0x01\n        /* \"w10_KYC.sol\":2233:2254  verifiers[msg.sender] */\n      0x00\n        /* \"w10_KYC.sol\":2243:2253  msg.sender */\n      caller\n        /* \"w10_KYC.sol\":2233:2254  verifiers[msg.sender] */\n      0xffffffffffffffffffffffffffffffffffffffff\n      and\n      0xffffffffffffffffffffffffffffffffffffffff\n      and\n      dup2\n      mstore\n      0x20\n      add\n      swap1\n      dup2\n      mstore\n      0x20\n      add\n      0x00\n      keccak256\n      0x00\n      swap1\n      sload\n      swap1\n      0x0100\n      exp\n      swap1\n      div\n      0xff\n      and\n        /* \"w10_KYC.sol\":2225:2308  require(verifiers[msg.sender], \"Only authorized verifiers can perform this action\") */\n      tag_121\n      jumpi\n      mload(0x40)\n      0x08c379a000000000000000000000000000000000000000000000000000000000\n      dup2\n      mstore\n      0x04\n      add\n      tag_122\n      swap1\n      tag_103\n      jump\t// in\n    tag_122:\n      mload(0x40)\n      dup1\n      swap2\n      sub\n      swap1\n      revert\n    tag_121:\n        /* \"w10_KYC.sol\":5530:5547  customerExists(a) */\n      tag_124\n        /* \"w10_KYC.sol\":5545:5546  a */\n      dup3\n        /* \"w10_KYC.sol\":5530:5544  customerExists */\n      tag_47\n        /* \"w10_KYC.sol\":5530:5547  customerExists(a) */\n      jump\t// in\n    tag_124:\n        /* \"w10_KYC.sol\":5522:5575  require(customerExists(a), \"Customer doesnt exists.\") */\n      tag_125\n      jumpi\n      mload(0x40)\n      0x08c379a000000000000000000000000000000000000000000000000000000000\n      dup2\n      mstore\n      0x04\n      add\n      tag_126\n      swap1\n      tag_127\n      jump\t// in\n    tag_126:\n      mload(0x40)\n      dup1\n      swap2\n      sub\n      swap1\n      revert\n    tag_125:\n        /* \"w10_KYC.sol\":5607:5610  100 */\n      0x64\n        /* \"w10_KYC.sol\":5593:5603  _riskScore */\n      dup2\n        /* \"w10_KYC.sol\":5593:5610  _riskScore <= 100 */\n      gt\n      iszero\n        /* \"w10_KYC.sol\":5585:5651  require(_riskScore <= 100, \"Risk score must be between 0 and 100\") */\n      tag_128\n      jumpi\n      mload(0x40)\n      0x08c379a000000000000000000000000000000000000000000000000000000000\n      dup2\n      mstore\n      0x04\n      add\n      tag_129\n      swap1\n      tag_130\n      jump\t// in\n    tag_129:\n      mload(0x40)\n      dup1\n      swap2\n      sub\n      swap1\n      revert\n    tag_128:\n        /* \"w10_KYC.sol\":5682:5683  0 */\n      0x00\n        /* \"w10_KYC.sol\":5669:5679  _riskScore */\n      dup2\n        /* \"w10_KYC.sol\":5669:5683  _riskScore > 0 */\n      gt\n        /* \"w10_KYC.sol\":5661:5724  require(_riskScore > 0, \"Risk score must be between 0 and 100\") */\n      tag_131\n      jumpi\n      mload(0x40)\n      0x08c379a000000000000000000000000000000000000000000000000000000000\n      dup2\n      mstore\n      0x04\n      add\n      tag_132\n      swap1\n      tag_130\n      jump\t// in\n    tag_132:\n      mload(0x40)\n      dup1\n      swap2\n      sub\n      swap1\n      revert\n    tag_131:\n        /* \"w10_KYC.sol\":5734:5759  Customer storage customer */\n      0x00\n        /* \"w10_KYC.sol\":5762:5771  customers */\n      dup1\n        /* \"w10_KYC.sol\":5762:5774  customers[a] */\n      0x00\n        /* \"w10_KYC.sol\":5772:5773  a */\n      dup5\n        /* \"w10_KYC.sol\":5762:5774  customers[a] */\n      0xffffffffffffffffffffffffffffffffffffffff\n      and\n      0xffffffffffffffffffffffffffffffffffffffff\n      and\n      dup2\n      mstore\n      0x20\n      add\n      swap1\n      dup2\n      mstore\n      0x20\n      add\n      0x00\n      keccak256\n        /* \"w10_KYC.sol\":5734:5774  Customer storage customer = customers[a] */\n      swap1\n      pop\n        /* \"w10_KYC.sol\":5805:5815  _riskScore */\n      dup2\n        /* \"w10_KYC.sol\":5784:5792  customer */\n      dup2\n        /* \"w10_KYC.sol\":5784:5802  customer.riskScore */\n      0x03\n      add\n        /* \"w10_KYC.sol\":5784:5815  customer.riskScore = _riskScore */\n      dup2\n      swap1\n      sstore\n      pop\n        /* \"w10_KYC.sol\":5851:5866  block.timestamp */\n      timestamp\n        /* \"w10_KYC.sol\":5825:5833  customer */\n      dup2\n        /* \"w10_KYC.sol\":5825:5848  customer.lastReviewDate */\n      0x04\n      add\n        /* \"w10_KYC.sol\":5825:5866  customer.lastReviewDate = block.timestamp */\n      dup2\n      swap1\n      sstore\n      pop\n        /* \"w10_KYC.sol\":5896:5920  setRiskLevel(_riskScore) */\n      tag_133\n        /* \"w10_KYC.sol\":5909:5919  _riskScore */\n      dup3\n        /* \"w10_KYC.sol\":5896:5908  setRiskLevel */\n      tag_84\n        /* \"w10_KYC.sol\":5896:5920  setRiskLevel(_riskScore) */\n      jump\t// in\n    tag_133:\n        /* \"w10_KYC.sol\":5876:5884  customer */\n      dup2\n        /* \"w10_KYC.sol\":5876:5893  customer.kycLevel */\n      0x00\n      add\n      0x01\n        /* \"w10_KYC.sol\":5876:5920  customer.kycLevel = setRiskLevel(_riskScore) */\n      0x0100\n      exp\n      dup2\n      sload\n      dup2\n      0xff\n      mul\n      not\n      and\n      swap1\n      dup4\n      0x02\n      dup2\n      gt\n      iszero\n      tag_134\n      jumpi\n      tag_135\n      tag_136\n      jump\t// in\n    tag_135:\n    tag_134:\n      mul\n      or\n      swap1\n      sstore\n      pop\n        /* \"w10_KYC.sol\":5952:5953  a */\n      dup3\n        /* \"w10_KYC.sol\":5935:5983  RiskScoreUpdated(a, _riskScore, block.timestamp) */\n      0xffffffffffffffffffffffffffffffffffffffff\n      and\n      0xc474203c9bd971af57d9ec643f33cebaa494c998ad440ab70e919e66905f534b\n        /* \"w10_KYC.sol\":5955:5965  _riskScore */\n      dup4\n        /* \"w10_KYC.sol\":5967:5982  block.timestamp */\n      timestamp\n        /* \"w10_KYC.sol\":5935:5983  RiskScoreUpdated(a, _riskScore, block.timestamp) */\n      mload(0x40)\n      tag_137\n      swap3\n      swap2\n      swap1\n      tag_138\n      jump\t// in\n    tag_137:\n      mload(0x40)\n      dup1\n      swap2\n      sub\n      swap1\n      log2\n        /* \"w10_KYC.sol\":5484:5990  { //Risk score implementation... */\n      pop\n        /* \"w10_KYC.sol\":5408:5990  function updateRiskScore(address a, uint256 _riskScore) public onlyVerifier { //Risk score implementation... */\n      pop\n      pop\n      jump\t// out\n        /* \"w10_KYC.sol\":1156:1224  mapping(address => mapping(string => bool)) public verifiedDocuments */\n    tag_68:\n      mstore(0x20, 0x02)\n      dup2\n      0x00\n      mstore\n      keccak256(0x00, 0x40)\n      dup2\n      dup1\n      mload\n      0x20\n      dup2\n      add\n      dup3\n      add\n      dup1\n      mload\n      dup5\n      dup3\n      mstore\n      0x20\n      dup4\n      add\n      0x20\n      dup6\n      add\n      keccak256\n      dup2\n      dup4\n      mstore\n      dup1\n      swap6\n      pop\n      pop\n      pop\n      pop\n      pop\n      pop\n      0x00\n      swap2\n      pop\n      swap2\n      pop\n      swap1\n      sload\n      swap1\n      0x0100\n      exp\n      swap1\n      div\n      0xff\n      and\n      dup2\n      jump\t// out\n        /* \"w10_KYC.sol\":3195:3654  function createKYC(address _customer, uint256 _riskScore) public onlyVerifier {... */\n    tag_72:\n        /* \"w10_KYC.sol\":2233:2242  verifiers */\n      0x01\n        /* \"w10_KYC.sol\":2233:2254  verifiers[msg.sender] */\n      0x00\n        /* \"w10_KYC.sol\":2243:2253  msg.sender */\n      caller\n        /* \"w10_KYC.sol\":2233:2254  verifiers[msg.sender] */\n      0xffffffffffffffffffffffffffffffffffffffff\n      and\n      0xffffffffffffffffffffffffffffffffffffffff\n      and\n      dup2\n      mstore\n      0x20\n      add\n      swap1\n      dup2\n      mstore\n      0x20\n      add\n      0x00\n      keccak256\n      0x00\n      swap1\n      sload\n      swap1\n      0x0100\n      exp\n      swap1\n      div\n      0xff\n      and\n        /* \"w10_KYC.sol\":2225:2308  require(verifiers[msg.sender], \"Only authorized verifiers can perform this action\") */\n      tag_140\n      jumpi\n      mload(0x40)\n      0x08c379a000000000000000000000000000000000000000000000000000000000\n      dup2\n      mstore\n      0x04\n      add\n      tag_141\n      swap1\n      tag_103\n      jump\t// in\n    tag_141:\n      mload(0x40)\n      dup1\n      swap2\n      sub\n      swap1\n      revert\n    tag_140:\n        /* \"w10_KYC.sol\":3315:3598  Customer({... */\n      mload(0x40)\n      dup1\n      0xe0\n      add\n      0x40\n      mstore\n      dup1\n        /* \"w10_KYC.sol\":3349:3354  false */\n      0x00\n        /* \"w10_KYC.sol\":3315:3598  Customer({... */\n      iszero\n      iszero\n      dup2\n      mstore\n      0x20\n      add\n        /* \"w10_KYC.sol\":3379:3403  setRiskLevel(_riskScore) */\n      tag_143\n        /* \"w10_KYC.sol\":3392:3402  _riskScore */\n      dup4\n        /* \"w10_KYC.sol\":3379:3391  setRiskLevel */\n      tag_84\n        /* \"w10_KYC.sol\":3379:3403  setRiskLevel(_riskScore) */\n      jump\t// in\n    tag_143:\n        /* \"w10_KYC.sol\":3315:3598  Customer({... */\n      0x02\n      dup2\n      gt\n      iszero\n      tag_144\n      jumpi\n      tag_145\n      tag_136\n      jump\t// in\n    tag_145:\n    tag_144:\n      dup2\n      mstore\n      0x20\n      add\n        /* \"w10_KYC.sol\":3430:3445  block.timestamp */\n      timestamp\n        /* \"w10_KYC.sol\":3315:3598  Customer({... */\n      dup2\n      mstore\n      0x20\n      add\n        /* \"w10_KYC.sol\":3469:3479  msg.sender */\n      caller\n        /* \"w10_KYC.sol\":3315:3598  Customer({... */\n      0xffffffffffffffffffffffffffffffffffffffff\n      and\n      dup2\n      mstore\n      0x20\n      add\n        /* \"w10_KYC.sol\":3503:3513  _riskScore */\n      dup3\n        /* \"w10_KYC.sol\":3315:3598  Customer({... */\n      dup2\n      mstore\n      0x20\n      add\n        /* \"w10_KYC.sol\":3572:3587  block.timestamp */\n      timestamp\n        /* \"w10_KYC.sol\":3315:3598  Customer({... */\n      dup2\n      mstore\n      0x20\n      add\n        /* \"w10_KYC.sol\":3537:3542  false */\n      0x00\n        /* \"w10_KYC.sol\":3315:3598  Customer({... */\n      iszero\n      iszero\n      dup2\n      mstore\n      pop\n        /* \"w10_KYC.sol\":3292:3301  customers */\n      0x00\n        /* \"w10_KYC.sol\":3292:3312  customers[_customer] */\n      dup1\n        /* \"w10_KYC.sol\":3302:3311  _customer */\n      dup5\n        /* \"w10_KYC.sol\":3292:3312  customers[_customer] */\n      0xffffffffffffffffffffffffffffffffffffffff\n      and\n      0xffffffffffffffffffffffffffffffffffffffff\n      and\n      dup2\n      mstore\n      0x20\n      add\n      swap1\n      dup2\n      mstore\n      0x20\n      add\n      0x00\n      keccak256\n        /* \"w10_KYC.sol\":3292:3598  customers[_customer] = Customer({... */\n      0x00\n      dup3\n      add\n      mload\n      dup2\n      0x00\n      add\n      exp(0x0100, 0x00)\n      dup2\n      sload\n      dup2\n      0xff\n      mul\n      not\n      and\n      swap1\n      dup4\n      iszero\n      iszero\n      mul\n      or\n      swap1\n      sstore\n      pop\n      0x20\n      dup3\n      add\n      mload\n      dup2\n      0x00\n      add\n      exp(0x0100, 0x01)\n      dup2\n      sload\n      dup2\n      0xff\n      mul\n      not\n      and\n      swap1\n      dup4\n      0x02\n      dup2\n      gt\n      iszero\n      tag_146\n      jumpi\n      tag_147\n      tag_136\n      jump\t// in\n    tag_147:\n    tag_146:\n      mul\n      or\n      swap1\n      sstore\n      pop\n      0x40\n      dup3\n      add\n      mload\n      dup2\n      0x01\n      add\n      sstore\n      0x60\n      dup3\n      add\n      mload\n      dup2\n      0x02\n      add\n      exp(0x0100, 0x00)\n      dup2\n      sload\n      dup2\n      0xffffffffffffffffffffffffffffffffffffffff\n      mul\n      not\n      and\n      swap1\n      dup4\n      0xffffffffffffffffffffffffffffffffffffffff\n      and\n      mul\n      or\n      swap1\n      sstore\n      pop\n      0x80\n      dup3\n      add\n      mload\n      dup2\n      0x03\n      add\n      sstore\n      0xa0\n      dup3\n      add\n      mload\n      dup2\n      0x04\n      add\n      sstore\n      0xc0\n      dup3\n      add\n      mload\n      dup2\n      0x05\n      add\n      exp(0x0100, 0x00)\n      dup2\n      sload\n      dup2\n      0xff\n      mul\n      not\n      and\n      swap1\n      dup4\n      iszero\n      iszero\n      mul\n      or\n      swap1\n      sstore\n      pop\n      swap1\n      pop\n      pop\n        /* \"w10_KYC.sol\":3625:3634  _customer */\n      dup2\n        /* \"w10_KYC.sol\":3614:3647  KYCCreated(_customer, _riskScore) */\n      0xffffffffffffffffffffffffffffffffffffffff\n      and\n      0x32320a8b5aa92c85c34a15ace73853ab542c9e8a367d1757820878b4d2d01af5\n        /* \"w10_KYC.sol\":3636:3646  _riskScore */\n      dup3\n        /* \"w10_KYC.sol\":3614:3647  KYCCreated(_customer, _riskScore) */\n      mload(0x40)\n      tag_148\n      swap2\n      swap1\n      tag_149\n      jump\t// in\n    tag_148:\n      mload(0x40)\n      dup1\n      swap2\n      sub\n      swap1\n      log2\n        /* \"w10_KYC.sol\":3195:3654  function createKYC(address _customer, uint256 _riskScore) public onlyVerifier {... */\n      pop\n      pop\n      jump\t// out\n        /* \"w10_KYC.sol\":6768:7175  function requiresReview(address a) public onlyVerifier returns (bool){... */\n    tag_75:\n        /* \"w10_KYC.sol\":6832:6836  bool */\n      0x00\n        /* \"w10_KYC.sol\":2233:2242  verifiers */\n      0x01\n        /* \"w10_KYC.sol\":2233:2254  verifiers[msg.sender] */\n      0x00\n        /* \"w10_KYC.sol\":2243:2253  msg.sender */\n      caller\n        /* \"w10_KYC.sol\":2233:2254  verifiers[msg.sender] */\n      0xffffffffffffffffffffffffffffffffffffffff\n      and\n      0xffffffffffffffffffffffffffffffffffffffff\n      and\n      dup2\n      mstore\n      0x20\n      add\n      swap1\n      dup2\n      mstore\n      0x20\n      add\n      0x00\n      keccak256\n      0x00\n      swap1\n      sload\n      swap1\n      0x0100\n      exp\n      swap1\n      div\n      0xff\n      and\n        /* \"w10_KYC.sol\":2225:2308  require(verifiers[msg.sender], \"Only authorized verifiers can perform this action\") */\n      tag_151\n      jumpi\n      mload(0x40)\n      0x08c379a000000000000000000000000000000000000000000000000000000000\n      dup2\n      mstore\n      0x04\n      add\n      tag_152\n      swap1\n      tag_103\n      jump\t// in\n    tag_152:\n      mload(0x40)\n      dup1\n      swap2\n      sub\n      swap1\n      revert\n    tag_151:\n        /* \"w10_KYC.sol\":6870:6883  RiskLevel.LOW */\n      0x00\n        /* \"w10_KYC.sol\":6851:6883  getRiskLevel(a) == RiskLevel.LOW */\n      0x02\n      dup2\n      gt\n      iszero\n      tag_154\n      jumpi\n      tag_155\n      tag_136\n      jump\t// in\n    tag_155:\n    tag_154:\n        /* \"w10_KYC.sol\":6851:6866  getRiskLevel(a) */\n      tag_156\n        /* \"w10_KYC.sol\":6864:6865  a */\n      dup4\n        /* \"w10_KYC.sol\":6851:6863  getRiskLevel */\n      tag_26\n        /* \"w10_KYC.sol\":6851:6866  getRiskLevel(a) */\n      jump\t// in\n    tag_156:\n        /* \"w10_KYC.sol\":6851:6883  getRiskLevel(a) == RiskLevel.LOW */\n      0x02\n      dup2\n      gt\n      iszero\n      tag_157\n      jumpi\n      tag_158\n      tag_136\n      jump\t// in\n    tag_158:\n    tag_157:\n      sub\n        /* \"w10_KYC.sol\":6847:7169  if (getRiskLevel(a) == RiskLevel.LOW){... */\n      tag_159\n      jumpi\n        /* \"w10_KYC.sol\":6905:6910  false */\n      0x00\n        /* \"w10_KYC.sol\":6898:6910  return false */\n      swap1\n      pop\n      jump(tag_153)\n        /* \"w10_KYC.sol\":6847:7169  if (getRiskLevel(a) == RiskLevel.LOW){... */\n    tag_159:\n        /* \"w10_KYC.sol\":6958:6974  RiskLevel.MEDIUM */\n      0x01\n        /* \"w10_KYC.sol\":6939:6974  getRiskLevel(a) == RiskLevel.MEDIUM */\n      0x02\n      dup2\n      gt\n      iszero\n      tag_161\n      jumpi\n      tag_162\n      tag_136\n      jump\t// in\n    tag_162:\n    tag_161:\n        /* \"w10_KYC.sol\":6939:6954  getRiskLevel(a) */\n      tag_163\n        /* \"w10_KYC.sol\":6952:6953  a */\n      dup4\n        /* \"w10_KYC.sol\":6939:6951  getRiskLevel */\n      tag_26\n        /* \"w10_KYC.sol\":6939:6954  getRiskLevel(a) */\n      jump\t// in\n    tag_163:\n        /* \"w10_KYC.sol\":6939:6974  getRiskLevel(a) == RiskLevel.MEDIUM */\n      0x02\n      dup2\n      gt\n      iszero\n      tag_164\n      jumpi\n      tag_165\n      tag_136\n      jump\t// in\n    tag_165:\n    tag_164:\n      sub\n        /* \"w10_KYC.sol\":6935:7169  if (getRiskLevel(a) == RiskLevel.MEDIUM){... */\n      tag_166\n      jumpi\n        /* \"w10_KYC.sol\":7010:7011  a */\n      dup2\n        /* \"w10_KYC.sol\":6994:7029  ReviewsRequired(a, getRiskLevel(a)) */\n      0xffffffffffffffffffffffffffffffffffffffff\n      and\n      0xb65b77a7fe4a188850b6664c64d88f23842ff4597a92a5f9a01d6c029abe9f6c\n        /* \"w10_KYC.sol\":7013:7028  getRiskLevel(a) */\n      tag_167\n        /* \"w10_KYC.sol\":7026:7027  a */\n      dup5\n        /* \"w10_KYC.sol\":7013:7025  getRiskLevel */\n      tag_26\n        /* \"w10_KYC.sol\":7013:7028  getRiskLevel(a) */\n      jump\t// in\n    tag_167:\n        /* \"w10_KYC.sol\":6994:7029  ReviewsRequired(a, getRiskLevel(a)) */\n      mload(0x40)\n      tag_168\n      swap2\n      swap1\n      tag_28\n      jump\t// in\n    tag_168:\n      mload(0x40)\n      dup1\n      swap2\n      sub\n      swap1\n      log2\n        /* \"w10_KYC.sol\":7050:7054  true */\n      0x01\n        /* \"w10_KYC.sol\":7043:7054  return true */\n      swap1\n      pop\n      jump(tag_153)\n        /* \"w10_KYC.sol\":6935:7169  if (getRiskLevel(a) == RiskLevel.MEDIUM){... */\n    tag_166:\n        /* \"w10_KYC.sol\":7114:7115  a */\n      dup2\n        /* \"w10_KYC.sol\":7098:7133  ReviewsRequired(a, getRiskLevel(a)) */\n      0xffffffffffffffffffffffffffffffffffffffff\n      and\n      0xb65b77a7fe4a188850b6664c64d88f23842ff4597a92a5f9a01d6c029abe9f6c\n        /* \"w10_KYC.sol\":7117:7132  getRiskLevel(a) */\n      tag_170\n        /* \"w10_KYC.sol\":7130:7131  a */\n      dup5\n        /* \"w10_KYC.sol\":7117:7129  getRiskLevel */\n      tag_26\n        /* \"w10_KYC.sol\":7117:7132  getRiskLevel(a) */\n      jump\t// in\n    tag_170:\n        /* \"w10_KYC.sol\":7098:7133  ReviewsRequired(a, getRiskLevel(a)) */\n      mload(0x40)\n      tag_171\n      swap2\n      swap1\n      tag_28\n      jump\t// in\n    tag_171:\n      mload(0x40)\n      dup1\n      swap2\n      sub\n      swap1\n      log2\n        /* \"w10_KYC.sol\":7154:7158  true */\n      0x01\n        /* \"w10_KYC.sol\":7147:7158  return true */\n      swap1\n      pop\n        /* \"w10_KYC.sol\":2318:2319  _ */\n    tag_153:\n        /* \"w10_KYC.sol\":6768:7175  function requiresReview(address a) public onlyVerifier returns (bool){... */\n      swap2\n      swap1\n      pop\n      jump\t// out\n        /* \"w10_KYC.sol\":3782:4341  function updateKYC(address _customer, bool _status, bool _isActive) public onlyVerifier {... */\n    tag_80:\n        /* \"w10_KYC.sol\":2233:2242  verifiers */\n      0x01\n        /* \"w10_KYC.sol\":2233:2254  verifiers[msg.sender] */\n      0x00\n        /* \"w10_KYC.sol\":2243:2253  msg.sender */\n      caller\n        /* \"w10_KYC.sol\":2233:2254  verifiers[msg.sender] */\n      0xffffffffffffffffffffffffffffffffffffffff\n      and\n      0xffffffffffffffffffffffffffffffffffffffff\n      and\n      dup2\n      mstore\n      0x20\n      add\n      swap1\n      dup2\n      mstore\n      0x20\n      add\n      0x00\n      keccak256\n      0x00\n      swap1\n      sload\n      swap1\n      0x0100\n      exp\n      swap1\n      div\n      0xff\n      and\n        /* \"w10_KYC.sol\":2225:2308  require(verifiers[msg.sender], \"Only authorized verifiers can perform this action\") */\n      tag_173\n      jumpi\n      mload(0x40)\n      0x08c379a000000000000000000000000000000000000000000000000000000000\n      dup2\n      mstore\n      0x04\n      add\n      tag_174\n      swap1\n      tag_103\n      jump\t// in\n    tag_174:\n      mload(0x40)\n      dup1\n      swap2\n      sub\n      swap1\n      revert\n    tag_173:\n        /* \"w10_KYC.sol\":3912:4220  Customer({... */\n      mload(0x40)\n      dup1\n      0xe0\n      add\n      0x40\n      mstore\n      dup1\n        /* \"w10_KYC.sol\":3946:3953  _status */\n      dup4\n        /* \"w10_KYC.sol\":3912:4220  Customer({... */\n      iszero\n      iszero\n      dup2\n      mstore\n      0x20\n      add\n        /* \"w10_KYC.sol\":3977:4000  getRiskLevel(_customer) */\n      tag_176\n        /* \"w10_KYC.sol\":3990:3999  _customer */\n      dup6\n        /* \"w10_KYC.sol\":3977:3989  getRiskLevel */\n      tag_26\n        /* \"w10_KYC.sol\":3977:4000  getRiskLevel(_customer) */\n      jump\t// in\n    tag_176:\n        /* \"w10_KYC.sol\":3912:4220  Customer({... */\n      0x02\n      dup2\n      gt\n      iszero\n      tag_177\n      jumpi\n      tag_178\n      tag_136\n      jump\t// in\n    tag_178:\n    tag_177:\n      dup2\n      mstore\n      0x20\n      add\n        /* \"w10_KYC.sol\":4027:4042  block.timestamp */\n      timestamp\n        /* \"w10_KYC.sol\":3912:4220  Customer({... */\n      dup2\n      mstore\n      0x20\n      add\n        /* \"w10_KYC.sol\":4066:4076  msg.sender */\n      caller\n        /* \"w10_KYC.sol\":3912:4220  Customer({... */\n      0xffffffffffffffffffffffffffffffffffffffff\n      and\n      dup2\n      mstore\n      0x20\n      add\n        /* \"w10_KYC.sol\":4101:4110  customers */\n      0x00\n        /* \"w10_KYC.sol\":4101:4121  customers[_customer] */\n      dup1\n        /* \"w10_KYC.sol\":4111:4120  _customer */\n      dup7\n        /* \"w10_KYC.sol\":4101:4121  customers[_customer] */\n      0xffffffffffffffffffffffffffffffffffffffff\n      and\n      0xffffffffffffffffffffffffffffffffffffffff\n      and\n      dup2\n      mstore\n      0x20\n      add\n      swap1\n      dup2\n      mstore\n      0x20\n      add\n      0x00\n      keccak256\n        /* \"w10_KYC.sol\":4101:4131  customers[_customer].riskScore */\n      0x03\n      add\n      sload\n        /* \"w10_KYC.sol\":3912:4220  Customer({... */\n      dup2\n      mstore\n      0x20\n      add\n        /* \"w10_KYC.sol\":4194:4209  block.timestamp */\n      timestamp\n        /* \"w10_KYC.sol\":3912:4220  Customer({... */\n      dup2\n      mstore\n      0x20\n      add\n        /* \"w10_KYC.sol\":4155:4164  _isActive */\n      dup3\n        /* \"w10_KYC.sol\":3912:4220  Customer({... */\n      iszero\n      iszero\n      dup2\n      mstore\n      pop\n        /* \"w10_KYC.sol\":3889:3898  customers */\n      0x00\n        /* \"w10_KYC.sol\":3889:3909  customers[_customer] */\n      dup1\n        /* \"w10_KYC.sol\":3899:3908  _customer */\n      dup6\n        /* \"w10_KYC.sol\":3889:3909  customers[_customer] */\n      0xffffffffffffffffffffffffffffffffffffffff\n      and\n      0xffffffffffffffffffffffffffffffffffffffff\n      and\n      dup2\n      mstore\n      0x20\n      add\n      swap1\n      dup2\n      mstore\n      0x20\n      add\n      0x00\n      keccak256\n        /* \"w10_KYC.sol\":3889:4220  customers[_customer] = Customer({... */\n      0x00\n      dup3\n      add\n      mload\n      dup2\n      0x00\n      add\n      exp(0x0100, 0x00)\n      dup2\n      sload\n      dup2\n      0xff\n      mul\n      not\n      and\n      swap1\n      dup4\n      iszero\n      iszero\n      mul\n      or\n      swap1\n      sstore\n      pop\n      0x20\n      dup3\n      add\n      mload\n      dup2\n      0x00\n      add\n      exp(0x0100, 0x01)\n      dup2\n      sload\n      dup2\n      0xff\n      mul\n      not\n      and\n      swap1\n      dup4\n      0x02\n      dup2\n      gt\n      iszero\n      tag_179\n      jumpi\n      tag_180\n      tag_136\n      jump\t// in\n    tag_180:\n    tag_179:\n      mul\n      or\n      swap1\n      sstore\n      pop\n      0x40\n      dup3\n      add\n      mload\n      dup2\n      0x01\n      add\n      sstore\n      0x60\n      dup3\n      add\n      mload\n      dup2\n      0x02\n      add\n      exp(0x0100, 0x00)\n      dup2\n      sload\n      dup2\n      0xffffffffffffffffffffffffffffffffffffffff\n      mul\n      not\n      and\n      swap1\n      dup4\n      0xffffffffffffffffffffffffffffffffffffffff\n      and\n      mul\n      or\n      swap1\n      sstore\n      pop\n      0x80\n      dup3\n      add\n      mload\n      dup2\n      0x03\n      add\n      sstore\n      0xa0\n      dup3\n      add\n      mload\n      dup2\n      0x04\n      add\n      sstore\n      0xc0\n      dup3\n      add\n      mload\n      dup2\n      0x05\n      add\n      exp(0x0100, 0x00)\n      dup2\n      sload\n      dup2\n      0xff\n      mul\n      not\n      and\n      swap1\n      dup4\n      iszero\n      iszero\n      mul\n      or\n      swap1\n      sstore\n      pop\n      swap1\n      pop\n      pop\n        /* \"w10_KYC.sol\":4247:4256  _customer */\n      dup3\n        /* \"w10_KYC.sol\":4236:4334  KYCUpdated(_customer, _status, getRiskLevel(_customer), customers[_customer].riskScore, _isActive) */\n      0xffffffffffffffffffffffffffffffffffffffff\n      and\n      0xf2097e6b3c73b8bdeb108282178983128a8f5d1b70bf2dc985ad46d5cbcff0cf\n        /* \"w10_KYC.sol\":4258:4265  _status */\n      dup4\n        /* \"w10_KYC.sol\":4267:4290  getRiskLevel(_customer) */\n      tag_181\n        /* \"w10_KYC.sol\":4280:4289  _customer */\n      dup7\n        /* \"w10_KYC.sol\":4267:4279  getRiskLevel */\n      tag_26\n        /* \"w10_KYC.sol\":4267:4290  getRiskLevel(_customer) */\n      jump\t// in\n    tag_181:\n        /* \"w10_KYC.sol\":4292:4301  customers */\n      0x00\n        /* \"w10_KYC.sol\":4292:4312  customers[_customer] */\n      dup1\n        /* \"w10_KYC.sol\":4302:4311  _customer */\n      dup9\n        /* \"w10_KYC.sol\":4292:4312  customers[_customer] */\n      0xffffffffffffffffffffffffffffffffffffffff\n      and\n      0xffffffffffffffffffffffffffffffffffffffff\n      and\n      dup2\n      mstore\n      0x20\n      add\n      swap1\n      dup2\n      mstore\n      0x20\n      add\n      0x00\n      keccak256\n        /* \"w10_KYC.sol\":4292:4322  customers[_customer].riskScore */\n      0x03\n      add\n      sload\n        /* \"w10_KYC.sol\":4324:4333  _isActive */\n      dup6\n        /* \"w10_KYC.sol\":4236:4334  KYCUpdated(_customer, _status, getRiskLevel(_customer), customers[_customer].riskScore, _isActive) */\n      mload(0x40)\n      tag_182\n      swap5\n      swap4\n      swap3\n      swap2\n      swap1\n      tag_183\n      jump\t// in\n    tag_182:\n      mload(0x40)\n      dup1\n      swap2\n      sub\n      swap1\n      log2\n        /* \"w10_KYC.sol\":3782:4341  function updateKYC(address _customer, bool _status, bool _isActive) public onlyVerifier {... */\n      pop\n      pop\n      pop\n      jump\t// out\n        /* \"w10_KYC.sol\":6142:6440  function setRiskLevel(uint256 _riskScore) public pure returns (RiskLevel) { //Risk level ... */\n    tag_84:\n        /* \"w10_KYC.sol\":6205:6214  RiskLevel */\n      0x00\n        /* \"w10_KYC.sol\":6257:6259  30 */\n      0x1e\n        /* \"w10_KYC.sol\":6244:6254  _riskScore */\n      dup3\n        /* \"w10_KYC.sol\":6244:6259  _riskScore < 30 */\n      lt\n        /* \"w10_KYC.sol\":6240:6434  if (_riskScore < 30) {... */\n      iszero\n      tag_185\n      jumpi\n        /* \"w10_KYC.sol\":6282:6295  RiskLevel.LOW */\n      0x00\n        /* \"w10_KYC.sol\":6275:6295  return RiskLevel.LOW */\n      swap1\n      pop\n      jump(tag_184)\n        /* \"w10_KYC.sol\":6240:6434  if (_riskScore < 30) {... */\n    tag_185:\n        /* \"w10_KYC.sol\":6330:6332  70 */\n      0x46\n        /* \"w10_KYC.sol\":6316:6326  _riskScore */\n      dup3\n        /* \"w10_KYC.sol\":6316:6332  _riskScore <= 70 */\n      gt\n        /* \"w10_KYC.sol\":6312:6434  if (_riskScore <= 70) {... */\n      tag_187\n      jumpi\n        /* \"w10_KYC.sol\":6355:6371  RiskLevel.MEDIUM */\n      0x01\n        /* \"w10_KYC.sol\":6348:6371  return RiskLevel.MEDIUM */\n      swap1\n      pop\n      jump(tag_184)\n        /* \"w10_KYC.sol\":6312:6434  if (_riskScore <= 70) {... */\n    tag_187:\n        /* \"w10_KYC.sol\":6409:6423  RiskLevel.HIGH */\n      0x02\n        /* \"w10_KYC.sol\":6402:6423  return RiskLevel.HIGH */\n      swap1\n      pop\n        /* \"w10_KYC.sol\":6142:6440  function setRiskLevel(uint256 _riskScore) public pure returns (RiskLevel) { //Risk level ... */\n    tag_184:\n      swap2\n      swap1\n      pop\n      jump\t// out\n        /* \"w10_KYC.sol\":2635:2781  function addComplianceOfficer(address _officer) public onlyOwner {... */\n    tag_88:\n        /* \"w10_KYC.sol\":2052:2057  owner */\n      0x03\n      0x00\n      swap1\n      sload\n      swap1\n      0x0100\n      exp\n      swap1\n      div\n      0xffffffffffffffffffffffffffffffffffffffff\n      and\n        /* \"w10_KYC.sol\":2038:2057  msg.sender == owner */\n      0xffffffffffffffffffffffffffffffffffffffff\n      and\n        /* \"w10_KYC.sol\":2038:2048  msg.sender */\n      caller\n        /* \"w10_KYC.sol\":2038:2057  msg.sender == owner */\n      0xffffffffffffffffffffffffffffffffffffffff\n      and\n      eq\n        /* \"w10_KYC.sol\":2030:2096  require(msg.sender == owner, \"Only owner can perform this action\") */\n      tag_190\n      jumpi\n      mload(0x40)\n      0x08c379a000000000000000000000000000000000000000000000000000000000\n      dup2\n      mstore\n      0x04\n      add\n      tag_191\n      swap1\n      tag_98\n      jump\t// in\n    tag_191:\n      mload(0x40)\n      dup1\n      swap2\n      sub\n      swap1\n      revert\n    tag_190:\n        /* \"w10_KYC.sol\":2732:2736  true */\n      0x01\n        /* \"w10_KYC.sol\":2710:2719  verifiers */\n      dup1\n        /* \"w10_KYC.sol\":2710:2729  verifiers[_officer] */\n      0x00\n        /* \"w10_KYC.sol\":2720:2728  _officer */\n      dup4\n        /* \"w10_KYC.sol\":2710:2729  verifiers[_officer] */\n      0xffffffffffffffffffffffffffffffffffffffff\n      and\n      0xffffffffffffffffffffffffffffffffffffffff\n      and\n      dup2\n      mstore\n      0x20\n      add\n      swap1\n      dup2\n      mstore\n      0x20\n      add\n      0x00\n      keccak256\n      0x00\n        /* \"w10_KYC.sol\":2710:2736  verifiers[_officer] = true */\n      0x0100\n      exp\n      dup2\n      sload\n      dup2\n      0xff\n      mul\n      not\n      and\n      swap1\n      dup4\n      iszero\n      iszero\n      mul\n      or\n      swap1\n      sstore\n      pop\n        /* \"w10_KYC.sol\":2765:2773  _officer */\n      dup1\n        /* \"w10_KYC.sol\":2751:2774  VerifierAdded(_officer) */\n      0xffffffffffffffffffffffffffffffffffffffff\n      and\n      0x6d05492139c5ea989514a5d2150c028041e5c087e2a39967f67dc7d2655adb81\n      mload(0x40)\n      mload(0x40)\n      dup1\n      swap2\n      sub\n      swap1\n      log2\n        /* \"w10_KYC.sol\":2635:2781  function addComplianceOfficer(address _officer) public onlyOwner {... */\n      pop\n      jump\t// out\n        /* \"w10_KYC.sol\":4557:4999  function getCustomerKYC(address _customer) public view returns (bool, RiskLevel, uint256, address, uint256, bool, uint256) {... */\n    tag_91:\n        /* \"w10_KYC.sol\":4621:4625  bool */\n      0x00\n        /* \"w10_KYC.sol\":4627:4636  RiskLevel */\n      dup1\n        /* \"w10_KYC.sol\":4638:4645  uint256 */\n      0x00\n        /* \"w10_KYC.sol\":4647:4654  address */\n      dup1\n        /* \"w10_KYC.sol\":4656:4663  uint256 */\n      0x00\n        /* \"w10_KYC.sol\":4665:4669  bool */\n      dup1\n        /* \"w10_KYC.sol\":4671:4678  uint256 */\n      0x00\n        /* \"w10_KYC.sol\":4690:4714  Customer memory customer */\n      dup1\n        /* \"w10_KYC.sol\":4717:4726  customers */\n      0x00\n        /* \"w10_KYC.sol\":4717:4737  customers[_customer] */\n      dup1\n        /* \"w10_KYC.sol\":4727:4736  _customer */\n      dup11\n        /* \"w10_KYC.sol\":4717:4737  customers[_customer] */\n      0xffffffffffffffffffffffffffffffffffffffff\n      and\n      0xffffffffffffffffffffffffffffffffffffffff\n      and\n      dup2\n      mstore\n      0x20\n      add\n      swap1\n      dup2\n      mstore\n      0x20\n      add\n      0x00\n      keccak256\n        /* \"w10_KYC.sol\":4690:4737  Customer memory customer = customers[_customer] */\n      mload(0x40)\n      dup1\n      0xe0\n      add\n      0x40\n      mstore\n      swap1\n      dup2\n      0x00\n      dup3\n      add\n      0x00\n      swap1\n      sload\n      swap1\n      0x0100\n      exp\n      swap1\n      div\n      0xff\n      and\n      iszero\n      iszero\n      iszero\n      iszero\n      dup2\n      mstore\n      0x20\n      add\n      0x00\n      dup3\n      add\n      0x01\n      swap1\n      sload\n      swap1\n      0x0100\n      exp\n      swap1\n      div\n      0xff\n      and\n      0x02\n      dup2\n      gt\n      iszero\n      tag_194\n      jumpi\n      tag_195\n      tag_136\n      jump\t// in\n    tag_195:\n    tag_194:\n      0x02\n      dup2\n      gt\n      iszero\n      tag_196\n      jumpi\n      tag_197\n      tag_136\n      jump\t// in\n    tag_197:\n    tag_196:\n      dup2\n      mstore\n      0x20\n      add\n      0x01\n      dup3\n      add\n      sload\n      dup2\n      mstore\n      0x20\n      add\n      0x02\n      dup3\n      add\n      0x00\n      swap1\n      sload\n      swap1\n      0x0100\n      exp\n      swap1\n      div\n      0xffffffffffffffffffffffffffffffffffffffff\n      and\n      0xffffffffffffffffffffffffffffffffffffffff\n      and\n      0xffffffffffffffffffffffffffffffffffffffff\n      and\n      dup2\n      mstore\n      0x20\n      add\n      0x03\n      dup3\n      add\n      sload\n      dup2\n      mstore\n      0x20\n      add\n      0x04\n      dup3\n      add\n      sload\n      dup2\n      mstore\n      0x20\n      add\n      0x05\n      dup3\n      add\n      0x00\n      swap1\n      sload\n      swap1\n      0x0100\n      exp\n      swap1\n      div\n      0xff\n      and\n      iszero\n      iszero\n      iszero\n      iszero\n      dup2\n      mstore\n      pop\n      pop\n      swap1\n      pop\n        /* \"w10_KYC.sol\":4768:4776  customer */\n      dup1\n        /* \"w10_KYC.sol\":4768:4786  customer.kycStatus */\n      0x00\n      add\n      mload\n        /* \"w10_KYC.sol\":4800:4808  customer */\n      dup2\n        /* \"w10_KYC.sol\":4800:4817  customer.kycLevel */\n      0x20\n      add\n      mload\n        /* \"w10_KYC.sol\":4831:4839  customer */\n      dup3\n        /* \"w10_KYC.sol\":4831:4851  customer.lastUpdated */\n      0x40\n      add\n      mload\n        /* \"w10_KYC.sol\":4865:4873  customer */\n      dup4\n        /* \"w10_KYC.sol\":4865:4882  customer.verifier */\n      0x60\n      add\n      mload\n        /* \"w10_KYC.sol\":4896:4904  customer */\n      dup5\n        /* \"w10_KYC.sol\":4896:4914  customer.riskScore */\n      0x80\n      add\n      mload\n        /* \"w10_KYC.sol\":4928:4936  customer */\n      dup6\n        /* \"w10_KYC.sol\":4928:4945  customer.isActive */\n      0xc0\n      add\n      mload\n        /* \"w10_KYC.sol\":4959:4967  customer */\n      dup7\n        /* \"w10_KYC.sol\":4959:4982  customer.lastReviewDate */\n      0xa0\n      add\n      mload\n        /* \"w10_KYC.sol\":4747:4992  return (... */\n      swap8\n      pop\n      swap8\n      pop\n      swap8\n      pop\n      swap8\n      pop\n      swap8\n      pop\n      swap8\n      pop\n      swap8\n      pop\n      pop\n        /* \"w10_KYC.sol\":4557:4999  function getCustomerKYC(address _customer) public view returns (bool, RiskLevel, uint256, address, uint256, bool, uint256) {... */\n      swap2\n      swap4\n      swap6\n      swap8\n      swap1\n      swap3\n      swap5\n      swap7\n      pop\n      jump\t// out\n        /* \"#utility.yul\":7:82   */\n    tag_198:\n        /* \"#utility.yul\":40:46   */\n      0x00\n        /* \"#utility.yul\":73:75   */\n      0x40\n        /* \"#utility.yul\":67:76   */\n      mload\n        /* \"#utility.yul\":57:76   */\n      swap1\n      pop\n        /* \"#utility.yul\":7:82   */\n      swap1\n      jump\t// out\n        /* \"#utility.yul\":88:205   */\n    tag_199:\n        /* \"#utility.yul\":197:198   */\n      0x00\n        /* \"#utility.yul\":194:195   */\n      dup1\n        /* \"#utility.yul\":187:199   */\n      revert\n        /* \"#utility.yul\":211:328   */\n    tag_200:\n        /* \"#utility.yul\":320:321   */\n      0x00\n        /* \"#utility.yul\":317:318   */\n      dup1\n        /* \"#utility.yul\":310:322   */\n      revert\n        /* \"#utility.yul\":334:460   */\n    tag_201:\n        /* \"#utility.yul\":371:378   */\n      0x00\n        /* \"#utility.yul\":411:453   */\n      0xffffffffffffffffffffffffffffffffffffffff\n        /* \"#utility.yul\":404:409   */\n      dup3\n        /* \"#utility.yul\":400:454   */\n      and\n        /* \"#utility.yul\":389:454   */\n      swap1\n      pop\n        /* \"#utility.yul\":334:460   */\n      swap2\n      swap1\n      pop\n      jump\t// out\n        /* \"#utility.yul\":466:562   */\n    tag_202:\n        /* \"#utility.yul\":503:510   */\n      0x00\n        /* \"#utility.yul\":532:556   */\n      tag_248\n        /* \"#utility.yul\":550:555   */\n      dup3\n        /* \"#utility.yul\":532:556   */\n      tag_201\n      jump\t// in\n    tag_248:\n        /* \"#utility.yul\":521:556   */\n      swap1\n      pop\n        /* \"#utility.yul\":466:562   */\n      swap2\n      swap1\n      pop\n      jump\t// out\n        /* \"#utility.yul\":568:690   */\n    tag_203:\n        /* \"#utility.yul\":641:665   */\n      tag_250\n        /* \"#utility.yul\":659:664   */\n      dup2\n        /* \"#utility.yul\":641:665   */\n      tag_202\n      jump\t// in\n    tag_250:\n        /* \"#utility.yul\":634:639   */\n      dup2\n        /* \"#utility.yul\":631:666   */\n      eq\n        /* \"#utility.yul\":621:684   */\n      tag_251\n      jumpi\n        /* \"#utility.yul\":680:681   */\n      0x00\n        /* \"#utility.yul\":677:678   */\n      dup1\n        /* \"#utility.yul\":670:682   */\n      revert\n        /* \"#utility.yul\":621:684   */\n    tag_251:\n        /* \"#utility.yul\":568:690   */\n      pop\n      jump\t// out\n        /* \"#utility.yul\":696:835   */\n    tag_204:\n        /* \"#utility.yul\":742:747   */\n      0x00\n        /* \"#utility.yul\":780:786   */\n      dup2\n        /* \"#utility.yul\":767:787   */\n      calldataload\n        /* \"#utility.yul\":758:787   */\n      swap1\n      pop\n        /* \"#utility.yul\":796:829   */\n      tag_253\n        /* \"#utility.yul\":823:828   */\n      dup2\n        /* \"#utility.yul\":796:829   */\n      tag_203\n      jump\t// in\n    tag_253:\n        /* \"#utility.yul\":696:835   */\n      swap3\n      swap2\n      pop\n      pop\n      jump\t// out\n        /* \"#utility.yul\":841:1170   */\n    tag_25:\n        /* \"#utility.yul\":900:906   */\n      0x00\n        /* \"#utility.yul\":949:951   */\n      0x20\n        /* \"#utility.yul\":937:946   */\n      dup3\n        /* \"#utility.yul\":928:935   */\n      dup5\n        /* \"#utility.yul\":924:947   */\n      sub\n        /* \"#utility.yul\":920:952   */\n      slt\n        /* \"#utility.yul\":917:1036   */\n      iszero\n      tag_255\n      jumpi\n        /* \"#utility.yul\":955:1034   */\n      tag_256\n      tag_199\n      jump\t// in\n    tag_256:\n        /* \"#utility.yul\":917:1036   */\n    tag_255:\n        /* \"#utility.yul\":1075:1076   */\n      0x00\n        /* \"#utility.yul\":1100:1153   */\n      tag_257\n        /* \"#utility.yul\":1145:1152   */\n      dup5\n        /* \"#utility.yul\":1136:1142   */\n      dup3\n        /* \"#utility.yul\":1125:1134   */\n      dup6\n        /* \"#utility.yul\":1121:1143   */\n      add\n        /* \"#utility.yul\":1100:1153   */\n      tag_204\n      jump\t// in\n    tag_257:\n        /* \"#utility.yul\":1090:1153   */\n      swap2\n      pop\n        /* \"#utility.yul\":1046:1163   */\n      pop\n        /* \"#utility.yul\":841:1170   */\n      swap3\n      swap2\n      pop\n      pop\n      jump\t// out\n        /* \"#utility.yul\":1176:1356   */\n    tag_136:\n        /* \"#utility.yul\":1224:1301   */\n      0x4e487b7100000000000000000000000000000000000000000000000000000000\n        /* \"#utility.yul\":1221:1222   */\n      0x00\n        /* \"#utility.yul\":1214:1302   */\n      mstore\n        /* \"#utility.yul\":1321:1325   */\n      0x21\n        /* \"#utility.yul\":1318:1319   */\n      0x04\n        /* \"#utility.yul\":1311:1326   */\n      mstore\n        /* \"#utility.yul\":1345:1349   */\n      0x24\n        /* \"#utility.yul\":1342:1343   */\n      0x00\n        /* \"#utility.yul\":1335:1350   */\n      revert\n        /* \"#utility.yul\":1362:1479   */\n    tag_205:\n        /* \"#utility.yul\":1447:1448   */\n      0x03\n        /* \"#utility.yul\":1440:1445   */\n      dup2\n        /* \"#utility.yul\":1437:1449   */\n      lt\n        /* \"#utility.yul\":1427:1473   */\n      tag_260\n      jumpi\n        /* \"#utility.yul\":1453:1471   */\n      tag_261\n      tag_136\n      jump\t// in\n    tag_261:\n        /* \"#utility.yul\":1427:1473   */\n    tag_260:\n        /* \"#utility.yul\":1362:1479   */\n      pop\n      jump\t// out\n        /* \"#utility.yul\":1485:1620   */\n    tag_206:\n        /* \"#utility.yul\":1534:1541   */\n      0x00\n        /* \"#utility.yul\":1563:1568   */\n      dup2\n        /* \"#utility.yul\":1552:1568   */\n      swap1\n      pop\n        /* \"#utility.yul\":1569:1614   */\n      tag_263\n        /* \"#utility.yul\":1608:1613   */\n      dup3\n        /* \"#utility.yul\":1569:1614   */\n      tag_205\n      jump\t// in\n    tag_263:\n        /* \"#utility.yul\":1485:1620   */\n      swap2\n      swap1\n      pop\n      jump\t// out\n        /* \"#utility.yul\":1626:1761   */\n    tag_207:\n        /* \"#utility.yul\":1686:1695   */\n      0x00\n        /* \"#utility.yul\":1719:1755   */\n      tag_265\n        /* \"#utility.yul\":1749:1754   */\n      dup3\n        /* \"#utility.yul\":1719:1755   */\n      tag_206\n      jump\t// in\n    tag_265:\n        /* \"#utility.yul\":1706:1755   */\n      swap1\n      pop\n        /* \"#utility.yul\":1626:1761   */\n      swap2\n      swap1\n      pop\n      jump\t// out\n        /* \"#utility.yul\":1767:1918   */\n    tag_208:\n        /* \"#utility.yul\":1864:1911   */\n      tag_267\n        /* \"#utility.yul\":1905:1910   */\n      dup2\n        /* \"#utility.yul\":1864:1911   */\n      tag_207\n      jump\t// in\n    tag_267:\n        /* \"#utility.yul\":1859:1862   */\n      dup3\n        /* \"#utility.yul\":1852:1912   */\n      mstore\n        /* \"#utility.yul\":1767:1918   */\n      pop\n      pop\n      jump\t// out\n        /* \"#utility.yul\":1924:2166   */\n    tag_28:\n        /* \"#utility.yul\":2027:2031   */\n      0x00\n        /* \"#utility.yul\":2065:2067   */\n      0x20\n        /* \"#utility.yul\":2054:2063   */\n      dup3\n        /* \"#utility.yul\":2050:2068   */\n      add\n        /* \"#utility.yul\":2042:2068   */\n      swap1\n      pop\n        /* \"#utility.yul\":2078:2159   */\n      tag_269\n        /* \"#utility.yul\":2156:2157   */\n      0x00\n        /* \"#utility.yul\":2145:2154   */\n      dup4\n        /* \"#utility.yul\":2141:2158   */\n      add\n        /* \"#utility.yul\":2132:2138   */\n      dup5\n        /* \"#utility.yul\":2078:2159   */\n      tag_208\n      jump\t// in\n    tag_269:\n        /* \"#utility.yul\":1924:2166   */\n      swap3\n      swap2\n      pop\n      pop\n      jump\t// out\n        /* \"#utility.yul\":2172:2262   */\n    tag_209:\n        /* \"#utility.yul\":2206:2213   */\n      0x00\n        /* \"#utility.yul\":2249:2254   */\n      dup2\n        /* \"#utility.yul\":2242:2255   */\n      iszero\n        /* \"#utility.yul\":2235:2256   */\n      iszero\n        /* \"#utility.yul\":2224:2256   */\n      swap1\n      pop\n        /* \"#utility.yul\":2172:2262   */\n      swap2\n      swap1\n      pop\n      jump\t// out\n        /* \"#utility.yul\":2268:2377   */\n    tag_210:\n        /* \"#utility.yul\":2349:2370   */\n      tag_272\n        /* \"#utility.yul\":2364:2369   */\n      dup2\n        /* \"#utility.yul\":2349:2370   */\n      tag_209\n      jump\t// in\n    tag_272:\n        /* \"#utility.yul\":2344:2347   */\n      dup3\n        /* \"#utility.yul\":2337:2371   */\n      mstore\n        /* \"#utility.yul\":2268:2377   */\n      pop\n      pop\n      jump\t// out\n        /* \"#utility.yul\":2383:2460   */\n    tag_211:\n        /* \"#utility.yul\":2420:2427   */\n      0x00\n        /* \"#utility.yul\":2449:2454   */\n      dup2\n        /* \"#utility.yul\":2438:2454   */\n      swap1\n      pop\n        /* \"#utility.yul\":2383:2460   */\n      swap2\n      swap1\n      pop\n      jump\t// out\n        /* \"#utility.yul\":2466:2584   */\n    tag_212:\n        /* \"#utility.yul\":2553:2577   */\n      tag_275\n        /* \"#utility.yul\":2571:2576   */\n      dup2\n        /* \"#utility.yul\":2553:2577   */\n      tag_211\n      jump\t// in\n    tag_275:\n        /* \"#utility.yul\":2548:2551   */\n      dup3\n        /* \"#utility.yul\":2541:2578   */\n      mstore\n        /* \"#utility.yul\":2466:2584   */\n      pop\n      pop\n      jump\t// out\n        /* \"#utility.yul\":2590:2708   */\n    tag_213:\n        /* \"#utility.yul\":2677:2701   */\n      tag_277\n        /* \"#utility.yul\":2695:2700   */\n      dup2\n        /* \"#utility.yul\":2677:2701   */\n      tag_202\n      jump\t// in\n    tag_277:\n        /* \"#utility.yul\":2672:2675   */\n      dup3\n        /* \"#utility.yul\":2665:2702   */\n      mstore\n        /* \"#utility.yul\":2590:2708   */\n      pop\n      pop\n      jump\t// out\n        /* \"#utility.yul\":2714:3596   */\n    tag_36:\n        /* \"#utility.yul\":2973:2977   */\n      0x00\n        /* \"#utility.yul\":3011:3014   */\n      0xe0\n        /* \"#utility.yul\":3000:3009   */\n      dup3\n        /* \"#utility.yul\":2996:3015   */\n      add\n        /* \"#utility.yul\":2988:3015   */\n      swap1\n      pop\n        /* \"#utility.yul\":3025:3090   */\n      tag_279\n        /* \"#utility.yul\":3087:3088   */\n      0x00\n        /* \"#utility.yul\":3076:3085   */\n      dup4\n        /* \"#utility.yul\":3072:3089   */\n      add\n        /* \"#utility.yul\":3063:3069   */\n      dup11\n        /* \"#utility.yul\":3025:3090   */\n      tag_210\n      jump\t// in\n    tag_279:\n        /* \"#utility.yul\":3100:3182   */\n      tag_280\n        /* \"#utility.yul\":3178:3180   */\n      0x20\n        /* \"#utility.yul\":3167:3176   */\n      dup4\n        /* \"#utility.yul\":3163:3181   */\n      add\n        /* \"#utility.yul\":3154:3160   */\n      dup10\n        /* \"#utility.yul\":3100:3182   */\n      tag_208\n      jump\t// in\n    tag_280:\n        /* \"#utility.yul\":3192:3264   */\n      tag_281\n        /* \"#utility.yul\":3260:3262   */\n      0x40\n        /* \"#utility.yul\":3249:3258   */\n      dup4\n        /* \"#utility.yul\":3245:3263   */\n      add\n        /* \"#utility.yul\":3236:3242   */\n      dup9\n        /* \"#utility.yul\":3192:3264   */\n      tag_212\n      jump\t// in\n    tag_281:\n        /* \"#utility.yul\":3274:3346   */\n      tag_282\n        /* \"#utility.yul\":3342:3344   */\n      0x60\n        /* \"#utility.yul\":3331:3340   */\n      dup4\n        /* \"#utility.yul\":3327:3345   */\n      add\n        /* \"#utility.yul\":3318:3324   */\n      dup8\n        /* \"#utility.yul\":3274:3346   */\n      tag_213\n      jump\t// in\n    tag_282:\n        /* \"#utility.yul\":3356:3429   */\n      tag_283\n        /* \"#utility.yul\":3424:3427   */\n      0x80\n        /* \"#utility.yul\":3413:3422   */\n      dup4\n        /* \"#utility.yul\":3409:3428   */\n      add\n        /* \"#utility.yul\":3400:3406   */\n      dup7\n        /* \"#utility.yul\":3356:3429   */\n      tag_212\n      jump\t// in\n    tag_283:\n        /* \"#utility.yul\":3439:3512   */\n      tag_284\n        /* \"#utility.yul\":3507:3510   */\n      0xa0\n        /* \"#utility.yul\":3496:3505   */\n      dup4\n        /* \"#utility.yul\":3492:3511   */\n      add\n        /* \"#utility.yul\":3483:3489   */\n      dup6\n        /* \"#utility.yul\":3439:3512   */\n      tag_212\n      jump\t// in\n    tag_284:\n        /* \"#utility.yul\":3522:3589   */\n      tag_285\n        /* \"#utility.yul\":3584:3587   */\n      0xc0\n        /* \"#utility.yul\":3573:3582   */\n      dup4\n        /* \"#utility.yul\":3569:3588   */\n      add\n        /* \"#utility.yul\":3560:3566   */\n      dup5\n        /* \"#utility.yul\":3522:3589   */\n      tag_210\n      jump\t// in\n    tag_285:\n        /* \"#utility.yul\":2714:3596   */\n      swap9\n      swap8\n      pop\n      pop\n      pop\n      pop\n      pop\n      pop\n      pop\n      pop\n      jump\t// out\n        /* \"#utility.yul\":3602:3718   */\n    tag_214:\n        /* \"#utility.yul\":3672:3693   */\n      tag_287\n        /* \"#utility.yul\":3687:3692   */\n      dup2\n        /* \"#utility.yul\":3672:3693   */\n      tag_209\n      jump\t// in\n    tag_287:\n        /* \"#utility.yul\":3665:3670   */\n      dup2\n        /* \"#utility.yul\":3662:3694   */\n      eq\n        /* \"#utility.yul\":3652:3712   */\n      tag_288\n      jumpi\n        /* \"#utility.yul\":3708:3709   */\n      0x00\n        /* \"#utility.yul\":3705:3706   */\n      dup1\n        /* \"#utility.yul\":3698:3710   */\n      revert\n        /* \"#utility.yul\":3652:3712   */\n    tag_288:\n        /* \"#utility.yul\":3602:3718   */\n      pop\n      jump\t// out\n        /* \"#utility.yul\":3724:3857   */\n    tag_215:\n        /* \"#utility.yul\":3767:3772   */\n      0x00\n        /* \"#utility.yul\":3805:3811   */\n      dup2\n        /* \"#utility.yul\":3792:3812   */\n      calldataload\n        /* \"#utility.yul\":3783:3812   */\n      swap1\n      pop\n        /* \"#utility.yul\":3821:3851   */\n      tag_290\n        /* \"#utility.yul\":3845:3850   */\n      dup2\n        /* \"#utility.yul\":3821:3851   */\n      tag_214\n      jump\t// in\n    tag_290:\n        /* \"#utility.yul\":3724:3857   */\n      swap3\n      swap2\n      pop\n      pop\n      jump\t// out\n        /* \"#utility.yul\":3863:4331   */\n    tag_39:\n        /* \"#utility.yul\":3928:3934   */\n      0x00\n        /* \"#utility.yul\":3936:3942   */\n      dup1\n        /* \"#utility.yul\":3985:3987   */\n      0x40\n        /* \"#utility.yul\":3973:3982   */\n      dup4\n        /* \"#utility.yul\":3964:3971   */\n      dup6\n        /* \"#utility.yul\":3960:3983   */\n      sub\n        /* \"#utility.yul\":3956:3988   */\n      slt\n        /* \"#utility.yul\":3953:4072   */\n      iszero\n      tag_292\n      jumpi\n        /* \"#utility.yul\":3991:4070   */\n      tag_293\n      tag_199\n      jump\t// in\n    tag_293:\n        /* \"#utility.yul\":3953:4072   */\n    tag_292:\n        /* \"#utility.yul\":4111:4112   */\n      0x00\n        /* \"#utility.yul\":4136:4189   */\n      tag_294\n        /* \"#utility.yul\":4181:4188   */\n      dup6\n        /* \"#utility.yul\":4172:4178   */\n      dup3\n        /* \"#utility.yul\":4161:4170   */\n      dup7\n        /* \"#utility.yul\":4157:4179   */\n      add\n        /* \"#utility.yul\":4136:4189   */\n      tag_204\n      jump\t// in\n    tag_294:\n        /* \"#utility.yul\":4126:4189   */\n      swap3\n      pop\n        /* \"#utility.yul\":4082:4199   */\n      pop\n        /* \"#utility.yul\":4238:4240   */\n      0x20\n        /* \"#utility.yul\":4264:4314   */\n      tag_295\n        /* \"#utility.yul\":4306:4313   */\n      dup6\n        /* \"#utility.yul\":4297:4303   */\n      dup3\n        /* \"#utility.yul\":4286:4295   */\n      dup7\n        /* \"#utility.yul\":4282:4304   */\n      add\n        /* \"#utility.yul\":4264:4314   */\n      tag_215\n      jump\t// in\n    tag_295:\n        /* \"#utility.yul\":4254:4314   */\n      swap2\n      pop\n        /* \"#utility.yul\":4209:4324   */\n      pop\n        /* \"#utility.yul\":3863:4331   */\n      swap3\n      pop\n      swap3\n      swap1\n      pop\n      jump\t// out\n        /* \"#utility.yul\":4337:4454   */\n    tag_216:\n        /* \"#utility.yul\":4446:4447   */\n      0x00\n        /* \"#utility.yul\":4443:4444   */\n      dup1\n        /* \"#utility.yul\":4436:4448   */\n      revert\n        /* \"#utility.yul\":4460:4577   */\n    tag_217:\n        /* \"#utility.yul\":4569:4570   */\n      0x00\n        /* \"#utility.yul\":4566:4567   */\n      dup1\n        /* \"#utility.yul\":4559:4571   */\n      revert\n        /* \"#utility.yul\":4583:4685   */\n    tag_218:\n        /* \"#utility.yul\":4624:4630   */\n      0x00\n        /* \"#utility.yul\":4675:4677   */\n      0x1f\n        /* \"#utility.yul\":4671:4678   */\n      not\n        /* \"#utility.yul\":4666:4668   */\n      0x1f\n        /* \"#utility.yul\":4659:4664   */\n      dup4\n        /* \"#utility.yul\":4655:4669   */\n      add\n        /* \"#utility.yul\":4651:4679   */\n      and\n        /* \"#utility.yul\":4641:4679   */\n      swap1\n      pop\n        /* \"#utility.yul\":4583:4685   */\n      swap2\n      swap1\n      pop\n      jump\t// out\n        /* \"#utility.yul\":4691:4871   */\n    tag_219:\n        /* \"#utility.yul\":4739:4816   */\n      0x4e487b7100000000000000000000000000000000000000000000000000000000\n        /* \"#utility.yul\":4736:4737   */\n      0x00\n        /* \"#utility.yul\":4729:4817   */\n      mstore\n        /* \"#utility.yul\":4836:4840   */\n      0x41\n        /* \"#utility.yul\":4833:4834   */\n      0x04\n        /* \"#utility.yul\":4826:4841   */\n      mstore\n        /* \"#utility.yul\":4860:4864   */\n      0x24\n        /* \"#utility.yul\":4857:4858   */\n      0x00\n        /* \"#utility.yul\":4850:4865   */\n      revert\n        /* \"#utility.yul\":4877:5158   */\n    tag_220:\n        /* \"#utility.yul\":4960:4987   */\n      tag_301\n        /* \"#utility.yul\":4982:4986   */\n      dup3\n        /* \"#utility.yul\":4960:4987   */\n      tag_218\n      jump\t// in\n    tag_301:\n        /* \"#utility.yul\":4952:4958   */\n      dup2\n        /* \"#utility.yul\":4948:4988   */\n      add\n        /* \"#utility.yul\":5090:5096   */\n      dup2\n        /* \"#utility.yul\":5078:5088   */\n      dup2\n        /* \"#utility.yul\":5075:5097   */\n      lt\n        /* \"#utility.yul\":5054:5072   */\n      0xffffffffffffffff\n        /* \"#utility.yul\":5042:5052   */\n      dup3\n        /* \"#utility.yul\":5039:5073   */\n      gt\n        /* \"#utility.yul\":5036:5098   */\n      or\n        /* \"#utility.yul\":5033:5121   */\n      iszero\n      tag_302\n      jumpi\n        /* \"#utility.yul\":5101:5119   */\n      tag_303\n      tag_219\n      jump\t// in\n    tag_303:\n        /* \"#utility.yul\":5033:5121   */\n    tag_302:\n        /* \"#utility.yul\":5141:5151   */\n      dup1\n        /* \"#utility.yul\":5137:5139   */\n      0x40\n        /* \"#utility.yul\":5130:5152   */\n      mstore\n        /* \"#utility.yul\":4920:5158   */\n      pop\n        /* \"#utility.yul\":4877:5158   */\n      pop\n      pop\n      jump\t// out\n        /* \"#utility.yul\":5164:5293   */\n    tag_221:\n        /* \"#utility.yul\":5198:5204   */\n      0x00\n        /* \"#utility.yul\":5225:5245   */\n      tag_305\n      tag_198\n      jump\t// in\n    tag_305:\n        /* \"#utility.yul\":5215:5245   */\n      swap1\n      pop\n        /* \"#utility.yul\":5254:5287   */\n      tag_306\n        /* \"#utility.yul\":5282:5286   */\n      dup3\n        /* \"#utility.yul\":5274:5280   */\n      dup3\n        /* \"#utility.yul\":5254:5287   */\n      tag_220\n      jump\t// in\n    tag_306:\n        /* \"#utility.yul\":5164:5293   */\n      swap2\n      swap1\n      pop\n      jump\t// out\n        /* \"#utility.yul\":5299:5607   */\n    tag_222:\n        /* \"#utility.yul\":5361:5365   */\n      0x00\n        /* \"#utility.yul\":5451:5469   */\n      0xffffffffffffffff\n        /* \"#utility.yul\":5443:5449   */\n      dup3\n        /* \"#utility.yul\":5440:5470   */\n      gt\n        /* \"#utility.yul\":5437:5493   */\n      iszero\n      tag_308\n      jumpi\n        /* \"#utility.yul\":5473:5491   */\n      tag_309\n      tag_219\n      jump\t// in\n    tag_309:\n        /* \"#utility.yul\":5437:5493   */\n    tag_308:\n        /* \"#utility.yul\":5511:5540   */\n      tag_310\n        /* \"#utility.yul\":5533:5539   */\n      dup3\n        /* \"#utility.yul\":5511:5540   */\n      tag_218\n      jump\t// in\n    tag_310:\n        /* \"#utility.yul\":5503:5540   */\n      swap1\n      pop\n        /* \"#utility.yul\":5595:5599   */\n      0x20\n        /* \"#utility.yul\":5589:5593   */\n      dup2\n        /* \"#utility.yul\":5585:5600   */\n      add\n        /* \"#utility.yul\":5577:5600   */\n      swap1\n      pop\n        /* \"#utility.yul\":5299:5607   */\n      swap2\n      swap1\n      pop\n      jump\t// out\n        /* \"#utility.yul\":5613:5761   */\n    tag_223:\n        /* \"#utility.yul\":5711:5717   */\n      dup3\n        /* \"#utility.yul\":5706:5709   */\n      dup2\n        /* \"#utility.yul\":5701:5704   */\n      dup4\n        /* \"#utility.yul\":5688:5718   */\n      calldatacopy\n        /* \"#utility.yul\":5752:5753   */\n      0x00\n        /* \"#utility.yul\":5743:5749   */\n      dup4\n        /* \"#utility.yul\":5738:5741   */\n      dup4\n        /* \"#utility.yul\":5734:5750   */\n      add\n        /* \"#utility.yul\":5727:5754   */\n      mstore\n        /* \"#utility.yul\":5613:5761   */\n      pop\n      pop\n      pop\n      jump\t// out\n        /* \"#utility.yul\":5767:6192   */\n    tag_224:\n        /* \"#utility.yul\":5845:5850   */\n      0x00\n        /* \"#utility.yul\":5870:5936   */\n      tag_313\n        /* \"#utility.yul\":5886:5935   */\n      tag_314\n        /* \"#utility.yul\":5928:5934   */\n      dup5\n        /* \"#utility.yul\":5886:5935   */\n      tag_222\n      jump\t// in\n    tag_314:\n        /* \"#utility.yul\":5870:5936   */\n      tag_221\n      jump\t// in\n    tag_313:\n        /* \"#utility.yul\":5861:5936   */\n      swap1\n      pop\n        /* \"#utility.yul\":5959:5965   */\n      dup3\n        /* \"#utility.yul\":5952:5957   */\n      dup2\n        /* \"#utility.yul\":5945:5966   */\n      mstore\n        /* \"#utility.yul\":5997:6001   */\n      0x20\n        /* \"#utility.yul\":5990:5995   */\n      dup2\n        /* \"#utility.yul\":5986:6002   */\n      add\n        /* \"#utility.yul\":6035:6038   */\n      dup5\n        /* \"#utility.yul\":6026:6032   */\n      dup5\n        /* \"#utility.yul\":6021:6024   */\n      dup5\n        /* \"#utility.yul\":6017:6033   */\n      add\n        /* \"#utility.yul\":6014:6039   */\n      gt\n        /* \"#utility.yul\":6011:6123   */\n      iszero\n      tag_315\n      jumpi\n        /* \"#utility.yul\":6042:6121   */\n      tag_316\n      tag_217\n      jump\t// in\n    tag_316:\n        /* \"#utility.yul\":6011:6123   */\n    tag_315:\n        /* \"#utility.yul\":6132:6186   */\n      tag_317\n        /* \"#utility.yul\":6179:6185   */\n      dup5\n        /* \"#utility.yul\":6174:6177   */\n      dup3\n        /* \"#utility.yul\":6169:6172   */\n      dup6\n        /* \"#utility.yul\":6132:6186   */\n      tag_223\n      jump\t// in\n    tag_317:\n        /* \"#utility.yul\":5851:6192   */\n      pop\n        /* \"#utility.yul\":5767:6192   */\n      swap4\n      swap3\n      pop\n      pop\n      pop\n      jump\t// out\n        /* \"#utility.yul\":6212:6552   */\n    tag_225:\n        /* \"#utility.yul\":6268:6273   */\n      0x00\n        /* \"#utility.yul\":6317:6320   */\n      dup3\n        /* \"#utility.yul\":6310:6314   */\n      0x1f\n        /* \"#utility.yul\":6302:6308   */\n      dup4\n        /* \"#utility.yul\":6298:6315   */\n      add\n        /* \"#utility.yul\":6294:6321   */\n      slt\n        /* \"#utility.yul\":6284:6406   */\n      tag_319\n      jumpi\n        /* \"#utility.yul\":6325:6404   */\n      tag_320\n      tag_216\n      jump\t// in\n    tag_320:\n        /* \"#utility.yul\":6284:6406   */\n    tag_319:\n        /* \"#utility.yul\":6442:6448   */\n      dup2\n        /* \"#utility.yul\":6429:6449   */\n      calldataload\n        /* \"#utility.yul\":6467:6546   */\n      tag_321\n        /* \"#utility.yul\":6542:6545   */\n      dup5\n        /* \"#utility.yul\":6534:6540   */\n      dup3\n        /* \"#utility.yul\":6527:6531   */\n      0x20\n        /* \"#utility.yul\":6519:6525   */\n      dup7\n        /* \"#utility.yul\":6515:6532   */\n      add\n        /* \"#utility.yul\":6467:6546   */\n      tag_224\n      jump\t// in\n    tag_321:\n        /* \"#utility.yul\":6458:6546   */\n      swap2\n      pop\n        /* \"#utility.yul\":6274:6552   */\n      pop\n        /* \"#utility.yul\":6212:6552   */\n      swap3\n      swap2\n      pop\n      pop\n      jump\t// out\n        /* \"#utility.yul\":6558:7212   */\n    tag_43:\n        /* \"#utility.yul\":6636:6642   */\n      0x00\n        /* \"#utility.yul\":6644:6650   */\n      dup1\n        /* \"#utility.yul\":6693:6695   */\n      0x40\n        /* \"#utility.yul\":6681:6690   */\n      dup4\n        /* \"#utility.yul\":6672:6679   */\n      dup6\n        /* \"#utility.yul\":6668:6691   */\n      sub\n        /* \"#utility.yul\":6664:6696   */\n      slt\n        /* \"#utility.yul\":6661:6780   */\n      iszero\n      tag_323\n      jumpi\n        /* \"#utility.yul\":6699:6778   */\n      tag_324\n      tag_199\n      jump\t// in\n    tag_324:\n        /* \"#utility.yul\":6661:6780   */\n    tag_323:\n        /* \"#utility.yul\":6819:6820   */\n      0x00\n        /* \"#utility.yul\":6844:6897   */\n      tag_325\n        /* \"#utility.yul\":6889:6896   */\n      dup6\n        /* \"#utility.yul\":6880:6886   */\n      dup3\n        /* \"#utility.yul\":6869:6878   */\n      dup7\n        /* \"#utility.yul\":6865:6887   */\n      add\n        /* \"#utility.yul\":6844:6897   */\n      tag_204\n      jump\t// in\n    tag_325:\n        /* \"#utility.yul\":6834:6897   */\n      swap3\n      pop\n        /* \"#utility.yul\":6790:6907   */\n      pop\n        /* \"#utility.yul\":6974:6976   */\n      0x20\n        /* \"#utility.yul\":6963:6972   */\n      dup4\n        /* \"#utility.yul\":6959:6977   */\n      add\n        /* \"#utility.yul\":6946:6978   */\n      calldataload\n        /* \"#utility.yul\":7005:7023   */\n      0xffffffffffffffff\n        /* \"#utility.yul\":6997:7003   */\n      dup2\n        /* \"#utility.yul\":6994:7024   */\n      gt\n        /* \"#utility.yul\":6991:7108   */\n      iszero\n      tag_326\n      jumpi\n        /* \"#utility.yul\":7027:7106   */\n      tag_327\n      tag_200\n      jump\t// in\n    tag_327:\n        /* \"#utility.yul\":6991:7108   */\n    tag_326:\n        /* \"#utility.yul\":7132:7195   */\n      tag_328\n        /* \"#utility.yul\":7187:7194   */\n      dup6\n        /* \"#utility.yul\":7178:7184   */\n      dup3\n        /* \"#utility.yul\":7167:7176   */\n      dup7\n        /* \"#utility.yul\":7163:7185   */\n      add\n        /* \"#utility.yul\":7132:7195   */\n      tag_225\n      jump\t// in\n    tag_328:\n        /* \"#utility.yul\":7122:7195   */\n      swap2\n      pop\n        /* \"#utility.yul\":6917:7205   */\n      pop\n        /* \"#utility.yul\":6558:7212   */\n      swap3\n      pop\n      swap3\n      swap1\n      pop\n      jump\t// out\n        /* \"#utility.yul\":7218:7428   */\n    tag_49:\n        /* \"#utility.yul\":7305:7309   */\n      0x00\n        /* \"#utility.yul\":7343:7345   */\n      0x20\n        /* \"#utility.yul\":7332:7341   */\n      dup3\n        /* \"#utility.yul\":7328:7346   */\n      add\n        /* \"#utility.yul\":7320:7346   */\n      swap1\n      pop\n        /* \"#utility.yul\":7356:7421   */\n      tag_330\n        /* \"#utility.yul\":7418:7419   */\n      0x00\n        /* \"#utility.yul\":7407:7416   */\n      dup4\n        /* \"#utility.yul\":7403:7420   */\n      add\n        /* \"#utility.yul\":7394:7400   */\n      dup5\n        /* \"#utility.yul\":7356:7421   */\n      tag_210\n      jump\t// in\n    tag_330:\n        /* \"#utility.yul\":7218:7428   */\n      swap3\n      swap2\n      pop\n      pop\n      jump\t// out\n        /* \"#utility.yul\":7434:7656   */\n    tag_61:\n        /* \"#utility.yul\":7527:7531   */\n      0x00\n        /* \"#utility.yul\":7565:7567   */\n      0x20\n        /* \"#utility.yul\":7554:7563   */\n      dup3\n        /* \"#utility.yul\":7550:7568   */\n      add\n        /* \"#utility.yul\":7542:7568   */\n      swap1\n      pop\n        /* \"#utility.yul\":7578:7649   */\n      tag_332\n        /* \"#utility.yul\":7646:7647   */\n      0x00\n        /* \"#utility.yul\":7635:7644   */\n      dup4\n        /* \"#utility.yul\":7631:7648   */\n      add\n        /* \"#utility.yul\":7622:7628   */\n      dup5\n        /* \"#utility.yul\":7578:7649   */\n      tag_213\n      jump\t// in\n    tag_332:\n        /* \"#utility.yul\":7434:7656   */\n      swap3\n      swap2\n      pop\n      pop\n      jump\t// out\n        /* \"#utility.yul\":7662:7784   */\n    tag_226:\n        /* \"#utility.yul\":7735:7759   */\n      tag_334\n        /* \"#utility.yul\":7753:7758   */\n      dup2\n        /* \"#utility.yul\":7735:7759   */\n      tag_211\n      jump\t// in\n    tag_334:\n        /* \"#utility.yul\":7728:7733   */\n      dup2\n        /* \"#utility.yul\":7725:7760   */\n      eq\n        /* \"#utility.yul\":7715:7778   */\n      tag_335\n      jumpi\n        /* \"#utility.yul\":7774:7775   */\n      0x00\n        /* \"#utility.yul\":7771:7772   */\n      dup1\n        /* \"#utility.yul\":7764:7776   */\n      revert\n        /* \"#utility.yul\":7715:7778   */\n    tag_335:\n        /* \"#utility.yul\":7662:7784   */\n      pop\n      jump\t// out\n        /* \"#utility.yul\":7790:7929   */\n    tag_227:\n        /* \"#utility.yul\":7836:7841   */\n      0x00\n        /* \"#utility.yul\":7874:7880   */\n      dup2\n        /* \"#utility.yul\":7861:7881   */\n      calldataload\n        /* \"#utility.yul\":7852:7881   */\n      swap1\n      pop\n        /* \"#utility.yul\":7890:7923   */\n      tag_337\n        /* \"#utility.yul\":7917:7922   */\n      dup2\n        /* \"#utility.yul\":7890:7923   */\n      tag_226\n      jump\t// in\n    tag_337:\n        /* \"#utility.yul\":7790:7929   */\n      swap3\n      swap2\n      pop\n      pop\n      jump\t// out\n        /* \"#utility.yul\":7935:8409   */\n    tag_64:\n        /* \"#utility.yul\":8003:8009   */\n      0x00\n        /* \"#utility.yul\":8011:8017   */\n      dup1\n        /* \"#utility.yul\":8060:8062   */\n      0x40\n        /* \"#utility.yul\":8048:8057   */\n      dup4\n        /* \"#utility.yul\":8039:8046   */\n      dup6\n        /* \"#utility.yul\":8035:8058   */\n      sub\n        /* \"#utility.yul\":8031:8063   */\n      slt\n        /* \"#utility.yul\":8028:8147   */\n      iszero\n      tag_339\n      jumpi\n        /* \"#utility.yul\":8066:8145   */\n      tag_340\n      tag_199\n      jump\t// in\n    tag_340:\n        /* \"#utility.yul\":8028:8147   */\n    tag_339:\n        /* \"#utility.yul\":8186:8187   */\n      0x00\n        /* \"#utility.yul\":8211:8264   */\n      tag_341\n        /* \"#utility.yul\":8256:8263   */\n      dup6\n        /* \"#utility.yul\":8247:8253   */\n      dup3\n        /* \"#utility.yul\":8236:8245   */\n      dup7\n        /* \"#utility.yul\":8232:8254   */\n      add\n        /* \"#utility.yul\":8211:8264   */\n      tag_204\n      jump\t// in\n    tag_341:\n        /* \"#utility.yul\":8201:8264   */\n      swap3\n      pop\n        /* \"#utility.yul\":8157:8274   */\n      pop\n        /* \"#utility.yul\":8313:8315   */\n      0x20\n        /* \"#utility.yul\":8339:8392   */\n      tag_342\n        /* \"#utility.yul\":8384:8391   */\n      dup6\n        /* \"#utility.yul\":8375:8381   */\n      dup3\n        /* \"#utility.yul\":8364:8373   */\n      dup7\n        /* \"#utility.yul\":8360:8382   */\n      add\n        /* \"#utility.yul\":8339:8392   */\n      tag_227\n      jump\t// in\n    tag_342:\n        /* \"#utility.yul\":8329:8392   */\n      swap2\n      pop\n        /* \"#utility.yul\":8284:8402   */\n      pop\n        /* \"#utility.yul\":7935:8409   */\n      swap3\n      pop\n      swap3\n      swap1\n      pop\n      jump\t// out\n        /* \"#utility.yul\":8415:9022   */\n    tag_79:\n        /* \"#utility.yul\":8486:8492   */\n      0x00\n        /* \"#utility.yul\":8494:8500   */\n      dup1\n        /* \"#utility.yul\":8502:8508   */\n      0x00\n        /* \"#utility.yul\":8551:8553   */\n      0x60\n        /* \"#utility.yul\":8539:8548   */\n      dup5\n        /* \"#utility.yul\":8530:8537   */\n      dup7\n        /* \"#utility.yul\":8526:8549   */\n      sub\n        /* \"#utility.yul\":8522:8554   */\n      slt\n        /* \"#utility.yul\":8519:8638   */\n      iszero\n      tag_344\n      jumpi\n        /* \"#utility.yul\":8557:8636   */\n      tag_345\n      tag_199\n      jump\t// in\n    tag_345:\n        /* \"#utility.yul\":8519:8638   */\n    tag_344:\n        /* \"#utility.yul\":8677:8678   */\n      0x00\n        /* \"#utility.yul\":8702:8755   */\n      tag_346\n        /* \"#utility.yul\":8747:8754   */\n      dup7\n        /* \"#utility.yul\":8738:8744   */\n      dup3\n        /* \"#utility.yul\":8727:8736   */\n      dup8\n        /* \"#utility.yul\":8723:8745   */\n      add\n        /* \"#utility.yul\":8702:8755   */\n      tag_204\n      jump\t// in\n    tag_346:\n        /* \"#utility.yul\":8692:8755   */\n      swap4\n      pop\n        /* \"#utility.yul\":8648:8765   */\n      pop\n        /* \"#utility.yul\":8804:8806   */\n      0x20\n        /* \"#utility.yul\":8830:8880   */\n      tag_347\n        /* \"#utility.yul\":8872:8879   */\n      dup7\n        /* \"#utility.yul\":8863:8869   */\n      dup3\n        /* \"#utility.yul\":8852:8861   */\n      dup8\n        /* \"#utility.yul\":8848:8870   */\n      add\n        /* \"#utility.yul\":8830:8880   */\n      tag_215\n      jump\t// in\n    tag_347:\n        /* \"#utility.yul\":8820:8880   */\n      swap3\n      pop\n        /* \"#utility.yul\":8775:8890   */\n      pop\n        /* \"#utility.yul\":8929:8931   */\n      0x40\n        /* \"#utility.yul\":8955:9005   */\n      tag_348\n        /* \"#utility.yul\":8997:9004   */\n      dup7\n        /* \"#utility.yul\":8988:8994   */\n      dup3\n        /* \"#utility.yul\":8977:8986   */\n      dup8\n        /* \"#utility.yul\":8973:8995   */\n      add\n        /* \"#utility.yul\":8955:9005   */\n      tag_215\n      jump\t// in\n    tag_348:\n        /* \"#utility.yul\":8945:9005   */\n      swap2\n      pop\n        /* \"#utility.yul\":8900:9015   */\n      pop\n        /* \"#utility.yul\":8415:9022   */\n      swap3\n      pop\n      swap3\n      pop\n      swap3\n      jump\t// out\n        /* \"#utility.yul\":9028:9357   */\n    tag_83:\n        /* \"#utility.yul\":9087:9093   */\n      0x00\n        /* \"#utility.yul\":9136:9138   */\n      0x20\n        /* \"#utility.yul\":9124:9133   */\n      dup3\n        /* \"#utility.yul\":9115:9122   */\n      dup5\n        /* \"#utility.yul\":9111:9134   */\n      sub\n        /* \"#utility.yul\":9107:9139   */\n      slt\n        /* \"#utility.yul\":9104:9223   */\n      iszero\n      tag_350\n      jumpi\n        /* \"#utility.yul\":9142:9221   */\n      tag_351\n      tag_199\n      jump\t// in\n    tag_351:\n        /* \"#utility.yul\":9104:9223   */\n    tag_350:\n        /* \"#utility.yul\":9262:9263   */\n      0x00\n        /* \"#utility.yul\":9287:9340   */\n      tag_352\n        /* \"#utility.yul\":9332:9339   */\n      dup5\n        /* \"#utility.yul\":9323:9329   */\n      dup3\n        /* \"#utility.yul\":9312:9321   */\n      dup6\n        /* \"#utility.yul\":9308:9330   */\n      add\n        /* \"#utility.yul\":9287:9340   */\n      tag_227\n      jump\t// in\n    tag_352:\n        /* \"#utility.yul\":9277:9340   */\n      swap2\n      pop\n        /* \"#utility.yul\":9233:9350   */\n      pop\n        /* \"#utility.yul\":9028:9357   */\n      swap3\n      swap2\n      pop\n      pop\n      jump\t// out\n        /* \"#utility.yul\":9363:10245   */\n    tag_93:\n        /* \"#utility.yul\":9622:9626   */\n      0x00\n        /* \"#utility.yul\":9660:9663   */\n      0xe0\n        /* \"#utility.yul\":9649:9658   */\n      dup3\n        /* \"#utility.yul\":9645:9664   */\n      add\n        /* \"#utility.yul\":9637:9664   */\n      swap1\n      pop\n        /* \"#utility.yul\":9674:9739   */\n      tag_354\n        /* \"#utility.yul\":9736:9737   */\n      0x00\n        /* \"#utility.yul\":9725:9734   */\n      dup4\n        /* \"#utility.yul\":9721:9738   */\n      add\n        /* \"#utility.yul\":9712:9718   */\n      dup11\n        /* \"#utility.yul\":9674:9739   */\n      tag_210\n      jump\t// in\n    tag_354:\n        /* \"#utility.yul\":9749:9831   */\n      tag_355\n        /* \"#utility.yul\":9827:9829   */\n      0x20\n        /* \"#utility.yul\":9816:9825   */\n      dup4\n        /* \"#utility.yul\":9812:9830   */\n      add\n        /* \"#utility.yul\":9803:9809   */\n      dup10\n        /* \"#utility.yul\":9749:9831   */\n      tag_208\n      jump\t// in\n    tag_355:\n        /* \"#utility.yul\":9841:9913   */\n      tag_356\n        /* \"#utility.yul\":9909:9911   */\n      0x40\n        /* \"#utility.yul\":9898:9907   */\n      dup4\n        /* \"#utility.yul\":9894:9912   */\n      add\n        /* \"#utility.yul\":9885:9891   */\n      dup9\n        /* \"#utility.yul\":9841:9913   */\n      tag_212\n      jump\t// in\n    tag_356:\n        /* \"#utility.yul\":9923:9995   */\n      tag_357\n        /* \"#utility.yul\":9991:9993   */\n      0x60\n        /* \"#utility.yul\":9980:9989   */\n      dup4\n        /* \"#utility.yul\":9976:9994   */\n      add\n        /* \"#utility.yul\":9967:9973   */\n      dup8\n        /* \"#utility.yul\":9923:9995   */\n      tag_213\n      jump\t// in\n    tag_357:\n        /* \"#utility.yul\":10005:10078   */\n      tag_358\n        /* \"#utility.yul\":10073:10076   */\n      0x80\n        /* \"#utility.yul\":10062:10071   */\n      dup4\n        /* \"#utility.yul\":10058:10077   */\n      add\n        /* \"#utility.yul\":10049:10055   */\n      dup7\n        /* \"#utility.yul\":10005:10078   */\n      tag_212\n      jump\t// in\n    tag_358:\n        /* \"#utility.yul\":10088:10155   */\n      tag_359\n        /* \"#utility.yul\":10150:10153   */\n      0xa0\n        /* \"#utility.yul\":10139:10148   */\n      dup4\n        /* \"#utility.yul\":10135:10154   */\n      add\n        /* \"#utility.yul\":10126:10132   */\n      dup6\n        /* \"#utility.yul\":10088:10155   */\n      tag_210\n      jump\t// in\n    tag_359:\n        /* \"#utility.yul\":10165:10238   */\n      tag_360\n        /* \"#utility.yul\":10233:10236   */\n      0xc0\n        /* \"#utility.yul\":10222:10231   */\n      dup4\n        /* \"#utility.yul\":10218:10237   */\n      add\n        /* \"#utility.yul\":10209:10215   */\n      dup5\n        /* \"#utility.yul\":10165:10238   */\n      tag_212\n      jump\t// in\n    tag_360:\n        /* \"#utility.yul\":9363:10245   */\n      swap9\n      swap8\n      pop\n      pop\n      pop\n      pop\n      pop\n      pop\n      pop\n      pop\n      jump\t// out\n        /* \"#utility.yul\":10251:10420   */\n    tag_228:\n        /* \"#utility.yul\":10335:10346   */\n      0x00\n        /* \"#utility.yul\":10369:10375   */\n      dup3\n        /* \"#utility.yul\":10364:10367   */\n      dup3\n        /* \"#utility.yul\":10357:10376   */\n      mstore\n        /* \"#utility.yul\":10409:10413   */\n      0x20\n        /* \"#utility.yul\":10404:10407   */\n      dup3\n        /* \"#utility.yul\":10400:10414   */\n      add\n        /* \"#utility.yul\":10385:10414   */\n      swap1\n      pop\n        /* \"#utility.yul\":10251:10420   */\n      swap3\n      swap2\n      pop\n      pop\n      jump\t// out\n        /* \"#utility.yul\":10426:10647   */\n    tag_229:\n        /* \"#utility.yul\":10566:10600   */\n      0x4f6e6c79206f776e65722063616e20706572666f726d20746869732061637469\n        /* \"#utility.yul\":10562:10563   */\n      0x00\n        /* \"#utility.yul\":10554:10560   */\n      dup3\n        /* \"#utility.yul\":10550:10564   */\n      add\n        /* \"#utility.yul\":10543:10601   */\n      mstore\n        /* \"#utility.yul\":10635:10639   */\n      0x6f6e000000000000000000000000000000000000000000000000000000000000\n        /* \"#utility.yul\":10630:10632   */\n      0x20\n        /* \"#utility.yul\":10622:10628   */\n      dup3\n        /* \"#utility.yul\":10618:10633   */\n      add\n        /* \"#utility.yul\":10611:10640   */\n      mstore\n        /* \"#utility.yul\":10426:10647   */\n      pop\n      jump\t// out\n        /* \"#utility.yul\":10653:11019   */\n    tag_230:\n        /* \"#utility.yul\":10795:10798   */\n      0x00\n        /* \"#utility.yul\":10816:10883   */\n      tag_364\n        /* \"#utility.yul\":10880:10882   */\n      0x22\n        /* \"#utility.yul\":10875:10878   */\n      dup4\n        /* \"#utility.yul\":10816:10883   */\n      tag_228\n      jump\t// in\n    tag_364:\n        /* \"#utility.yul\":10809:10883   */\n      swap2\n      pop\n        /* \"#utility.yul\":10892:10985   */\n      tag_365\n        /* \"#utility.yul\":10981:10984   */\n      dup3\n        /* \"#utility.yul\":10892:10985   */\n      tag_229\n      jump\t// in\n    tag_365:\n        /* \"#utility.yul\":11010:11012   */\n      0x40\n        /* \"#utility.yul\":11005:11008   */\n      dup3\n        /* \"#utility.yul\":11001:11013   */\n      add\n        /* \"#utility.yul\":10994:11013   */\n      swap1\n      pop\n        /* \"#utility.yul\":10653:11019   */\n      swap2\n      swap1\n      pop\n      jump\t// out\n        /* \"#utility.yul\":11025:11444   */\n    tag_98:\n        /* \"#utility.yul\":11191:11195   */\n      0x00\n        /* \"#utility.yul\":11229:11231   */\n      0x20\n        /* \"#utility.yul\":11218:11227   */\n      dup3\n        /* \"#utility.yul\":11214:11232   */\n      add\n        /* \"#utility.yul\":11206:11232   */\n      swap1\n      pop\n        /* \"#utility.yul\":11278:11287   */\n      dup2\n        /* \"#utility.yul\":11272:11276   */\n      dup2\n        /* \"#utility.yul\":11268:11288   */\n      sub\n        /* \"#utility.yul\":11264:11265   */\n      0x00\n        /* \"#utility.yul\":11253:11262   */\n      dup4\n        /* \"#utility.yul\":11249:11266   */\n      add\n        /* \"#utility.yul\":11242:11289   */\n      mstore\n        /* \"#utility.yul\":11306:11437   */\n      tag_367\n        /* \"#utility.yul\":11432:11436   */\n      dup2\n        /* \"#utility.yul\":11306:11437   */\n      tag_230\n      jump\t// in\n    tag_367:\n        /* \"#utility.yul\":11298:11437   */\n      swap1\n      pop\n        /* \"#utility.yul\":11025:11444   */\n      swap2\n      swap1\n      pop\n      jump\t// out\n        /* \"#utility.yul\":11450:11686   */\n    tag_231:\n        /* \"#utility.yul\":11590:11624   */\n      0x4f6e6c7920617574686f72697a6564207665726966696572732063616e207065\n        /* \"#utility.yul\":11586:11587   */\n      0x00\n        /* \"#utility.yul\":11578:11584   */\n      dup3\n        /* \"#utility.yul\":11574:11588   */\n      add\n        /* \"#utility.yul\":11567:11625   */\n      mstore\n        /* \"#utility.yul\":11659:11678   */\n      0x72666f726d207468697320616374696f6e000000000000000000000000000000\n        /* \"#utility.yul\":11654:11656   */\n      0x20\n        /* \"#utility.yul\":11646:11652   */\n      dup3\n        /* \"#utility.yul\":11642:11657   */\n      add\n        /* \"#utility.yul\":11635:11679   */\n      mstore\n        /* \"#utility.yul\":11450:11686   */\n      pop\n      jump\t// out\n        /* \"#utility.yul\":11692:12058   */\n    tag_232:\n        /* \"#utility.yul\":11834:11837   */\n      0x00\n        /* \"#utility.yul\":11855:11922   */\n      tag_370\n        /* \"#utility.yul\":11919:11921   */\n      0x31\n        /* \"#utility.yul\":11914:11917   */\n      dup4\n        /* \"#utility.yul\":11855:11922   */\n      tag_228\n      jump\t// in\n    tag_370:\n        /* \"#utility.yul\":11848:11922   */\n      swap2\n      pop\n        /* \"#utility.yul\":11931:12024   */\n      tag_371\n        /* \"#utility.yul\":12020:12023   */\n      dup3\n        /* \"#utility.yul\":11931:12024   */\n      tag_231\n      jump\t// in\n    tag_371:\n        /* \"#utility.yul\":12049:12051   */\n      0x40\n        /* \"#utility.yul\":12044:12047   */\n      dup3\n        /* \"#utility.yul\":12040:12052   */\n      add\n        /* \"#utility.yul\":12033:12052   */\n      swap1\n      pop\n        /* \"#utility.yul\":11692:12058   */\n      swap2\n      swap1\n      pop\n      jump\t// out\n        /* \"#utility.yul\":12064:12483   */\n    tag_103:\n        /* \"#utility.yul\":12230:12234   */\n      0x00\n        /* \"#utility.yul\":12268:12270   */\n      0x20\n        /* \"#utility.yul\":12257:12266   */\n      dup3\n        /* \"#utility.yul\":12253:12271   */\n      add\n        /* \"#utility.yul\":12245:12271   */\n      swap1\n      pop\n        /* \"#utility.yul\":12317:12326   */\n      dup2\n        /* \"#utility.yul\":12311:12315   */\n      dup2\n        /* \"#utility.yul\":12307:12327   */\n      sub\n        /* \"#utility.yul\":12303:12304   */\n      0x00\n        /* \"#utility.yul\":12292:12301   */\n      dup4\n        /* \"#utility.yul\":12288:12305   */\n      add\n        /* \"#utility.yul\":12281:12328   */\n      mstore\n        /* \"#utility.yul\":12345:12476   */\n      tag_373\n        /* \"#utility.yul\":12471:12475   */\n      dup2\n        /* \"#utility.yul\":12345:12476   */\n      tag_232\n      jump\t// in\n    tag_373:\n        /* \"#utility.yul\":12337:12476   */\n      swap1\n      pop\n        /* \"#utility.yul\":12064:12483   */\n      swap2\n      swap1\n      pop\n      jump\t// out\n        /* \"#utility.yul\":12489:12588   */\n    tag_233:\n        /* \"#utility.yul\":12541:12547   */\n      0x00\n        /* \"#utility.yul\":12575:12580   */\n      dup2\n        /* \"#utility.yul\":12569:12581   */\n      mload\n        /* \"#utility.yul\":12559:12581   */\n      swap1\n      pop\n        /* \"#utility.yul\":12489:12588   */\n      swap2\n      swap1\n      pop\n      jump\t// out\n        /* \"#utility.yul\":12594:12742   */\n    tag_234:\n        /* \"#utility.yul\":12696:12707   */\n      0x00\n        /* \"#utility.yul\":12733:12736   */\n      dup2\n        /* \"#utility.yul\":12718:12736   */\n      swap1\n      pop\n        /* \"#utility.yul\":12594:12742   */\n      swap3\n      swap2\n      pop\n      pop\n      jump\t// out\n        /* \"#utility.yul\":12748:12887   */\n    tag_235:\n        /* \"#utility.yul\":12837:12843   */\n      dup3\n        /* \"#utility.yul\":12832:12835   */\n      dup2\n        /* \"#utility.yul\":12827:12830   */\n      dup4\n        /* \"#utility.yul\":12821:12844   */\n      mcopy\n        /* \"#utility.yul\":12878:12879   */\n      0x00\n        /* \"#utility.yul\":12869:12875   */\n      dup4\n        /* \"#utility.yul\":12864:12867   */\n      dup4\n        /* \"#utility.yul\":12860:12876   */\n      add\n        /* \"#utility.yul\":12853:12880   */\n      mstore\n        /* \"#utility.yul\":12748:12887   */\n      pop\n      pop\n      pop\n      jump\t// out\n        /* \"#utility.yul\":12893:13283   */\n    tag_236:\n        /* \"#utility.yul\":12999:13002   */\n      0x00\n        /* \"#utility.yul\":13027:13066   */\n      tag_378\n        /* \"#utility.yul\":13060:13065   */\n      dup3\n        /* \"#utility.yul\":13027:13066   */\n      tag_233\n      jump\t// in\n    tag_378:\n        /* \"#utility.yul\":13082:13171   */\n      tag_379\n        /* \"#utility.yul\":13164:13170   */\n      dup2\n        /* \"#utility.yul\":13159:13162   */\n      dup6\n        /* \"#utility.yul\":13082:13171   */\n      tag_234\n      jump\t// in\n    tag_379:\n        /* \"#utility.yul\":13075:13171   */\n      swap4\n      pop\n        /* \"#utility.yul\":13180:13245   */\n      tag_380\n        /* \"#utility.yul\":13238:13244   */\n      dup2\n        /* \"#utility.yul\":13233:13236   */\n      dup6\n        /* \"#utility.yul\":13226:13230   */\n      0x20\n        /* \"#utility.yul\":13219:13224   */\n      dup7\n        /* \"#utility.yul\":13215:13231   */\n      add\n        /* \"#utility.yul\":13180:13245   */\n      tag_235\n      jump\t// in\n    tag_380:\n        /* \"#utility.yul\":13270:13276   */\n      dup1\n        /* \"#utility.yul\":13265:13268   */\n      dup5\n        /* \"#utility.yul\":13261:13277   */\n      add\n        /* \"#utility.yul\":13254:13277   */\n      swap2\n      pop\n        /* \"#utility.yul\":13003:13283   */\n      pop\n        /* \"#utility.yul\":12893:13283   */\n      swap3\n      swap2\n      pop\n      pop\n      jump\t// out\n        /* \"#utility.yul\":13289:13564   */\n    tag_111:\n        /* \"#utility.yul\":13421:13424   */\n      0x00\n        /* \"#utility.yul\":13443:13538   */\n      tag_382\n        /* \"#utility.yul\":13534:13537   */\n      dup3\n        /* \"#utility.yul\":13525:13531   */\n      dup5\n        /* \"#utility.yul\":13443:13538   */\n      tag_236\n      jump\t// in\n    tag_382:\n        /* \"#utility.yul\":13436:13538   */\n      swap2\n      pop\n        /* \"#utility.yul\":13555:13558   */\n      dup2\n        /* \"#utility.yul\":13548:13558   */\n      swap1\n      pop\n        /* \"#utility.yul\":13289:13564   */\n      swap3\n      swap2\n      pop\n      pop\n      jump\t// out\n        /* \"#utility.yul\":13570:13947   */\n    tag_237:\n        /* \"#utility.yul\":13658:13661   */\n      0x00\n        /* \"#utility.yul\":13686:13725   */\n      tag_384\n        /* \"#utility.yul\":13719:13724   */\n      dup3\n        /* \"#utility.yul\":13686:13725   */\n      tag_233\n      jump\t// in\n    tag_384:\n        /* \"#utility.yul\":13741:13812   */\n      tag_385\n        /* \"#utility.yul\":13805:13811   */\n      dup2\n        /* \"#utility.yul\":13800:13803   */\n      dup6\n        /* \"#utility.yul\":13741:13812   */\n      tag_228\n      jump\t// in\n    tag_385:\n        /* \"#utility.yul\":13734:13812   */\n      swap4\n      pop\n        /* \"#utility.yul\":13821:13886   */\n      tag_386\n        /* \"#utility.yul\":13879:13885   */\n      dup2\n        /* \"#utility.yul\":13874:13877   */\n      dup6\n        /* \"#utility.yul\":13867:13871   */\n      0x20\n        /* \"#utility.yul\":13860:13865   */\n      dup7\n        /* \"#utility.yul\":13856:13872   */\n      add\n        /* \"#utility.yul\":13821:13886   */\n      tag_235\n      jump\t// in\n    tag_386:\n        /* \"#utility.yul\":13911:13940   */\n      tag_387\n        /* \"#utility.yul\":13933:13939   */\n      dup2\n        /* \"#utility.yul\":13911:13940   */\n      tag_218\n      jump\t// in\n    tag_387:\n        /* \"#utility.yul\":13906:13909   */\n      dup5\n        /* \"#utility.yul\":13902:13941   */\n      add\n        /* \"#utility.yul\":13895:13941   */\n      swap2\n      pop\n        /* \"#utility.yul\":13662:13947   */\n      pop\n        /* \"#utility.yul\":13570:13947   */\n      swap3\n      swap2\n      pop\n      pop\n      jump\t// out\n        /* \"#utility.yul\":13953:14266   */\n    tag_113:\n        /* \"#utility.yul\":14066:14070   */\n      0x00\n        /* \"#utility.yul\":14104:14106   */\n      0x20\n        /* \"#utility.yul\":14093:14102   */\n      dup3\n        /* \"#utility.yul\":14089:14107   */\n      add\n        /* \"#utility.yul\":14081:14107   */\n      swap1\n      pop\n        /* \"#utility.yul\":14153:14162   */\n      dup2\n        /* \"#utility.yul\":14147:14151   */\n      dup2\n        /* \"#utility.yul\":14143:14163   */\n      sub\n        /* \"#utility.yul\":14139:14140   */\n      0x00\n        /* \"#utility.yul\":14128:14137   */\n      dup4\n        /* \"#utility.yul\":14124:14141   */\n      add\n        /* \"#utility.yul\":14117:14164   */\n      mstore\n        /* \"#utility.yul\":14181:14259   */\n      tag_389\n        /* \"#utility.yul\":14254:14258   */\n      dup2\n        /* \"#utility.yul\":14245:14251   */\n      dup5\n        /* \"#utility.yul\":14181:14259   */\n      tag_237\n      jump\t// in\n    tag_389:\n        /* \"#utility.yul\":14173:14259   */\n      swap1\n      pop\n        /* \"#utility.yul\":13953:14266   */\n      swap3\n      swap2\n      pop\n      pop\n      jump\t// out\n        /* \"#utility.yul\":14272:14445   */\n    tag_238:\n        /* \"#utility.yul\":14412:14437   */\n      0x437573746f6d657220646f65736e74206578697374732e000000000000000000\n        /* \"#utility.yul\":14408:14409   */\n      0x00\n        /* \"#utility.yul\":14400:14406   */\n      dup3\n        /* \"#utility.yul\":14396:14410   */\n      add\n        /* \"#utility.yul\":14389:14438   */\n      mstore\n        /* \"#utility.yul\":14272:14445   */\n      pop\n      jump\t// out\n        /* \"#utility.yul\":14451:14817   */\n    tag_239:\n        /* \"#utility.yul\":14593:14596   */\n      0x00\n        /* \"#utility.yul\":14614:14681   */\n      tag_392\n        /* \"#utility.yul\":14678:14680   */\n      0x17\n        /* \"#utility.yul\":14673:14676   */\n      dup4\n        /* \"#utility.yul\":14614:14681   */\n      tag_228\n      jump\t// in\n    tag_392:\n        /* \"#utility.yul\":14607:14681   */\n      swap2\n      pop\n        /* \"#utility.yul\":14690:14783   */\n      tag_393\n        /* \"#utility.yul\":14779:14782   */\n      dup3\n        /* \"#utility.yul\":14690:14783   */\n      tag_238\n      jump\t// in\n    tag_393:\n        /* \"#utility.yul\":14808:14810   */\n      0x20\n        /* \"#utility.yul\":14803:14806   */\n      dup3\n        /* \"#utility.yul\":14799:14811   */\n      add\n        /* \"#utility.yul\":14792:14811   */\n      swap1\n      pop\n        /* \"#utility.yul\":14451:14817   */\n      swap2\n      swap1\n      pop\n      jump\t// out\n        /* \"#utility.yul\":14823:15242   */\n    tag_127:\n        /* \"#utility.yul\":14989:14993   */\n      0x00\n        /* \"#utility.yul\":15027:15029   */\n      0x20\n        /* \"#utility.yul\":15016:15025   */\n      dup3\n        /* \"#utility.yul\":15012:15030   */\n      add\n        /* \"#utility.yul\":15004:15030   */\n      swap1\n      pop\n        /* \"#utility.yul\":15076:15085   */\n      dup2\n        /* \"#utility.yul\":15070:15074   */\n      dup2\n        /* \"#utility.yul\":15066:15086   */\n      sub\n        /* \"#utility.yul\":15062:15063   */\n      0x00\n        /* \"#utility.yul\":15051:15060   */\n      dup4\n        /* \"#utility.yul\":15047:15064   */\n      add\n        /* \"#utility.yul\":15040:15087   */\n      mstore\n        /* \"#utility.yul\":15104:15235   */\n      tag_395\n        /* \"#utility.yul\":15230:15234   */\n      dup2\n        /* \"#utility.yul\":15104:15235   */\n      tag_239\n      jump\t// in\n    tag_395:\n        /* \"#utility.yul\":15096:15235   */\n      swap1\n      pop\n        /* \"#utility.yul\":14823:15242   */\n      swap2\n      swap1\n      pop\n      jump\t// out\n        /* \"#utility.yul\":15248:15471   */\n    tag_240:\n        /* \"#utility.yul\":15388:15422   */\n      0x5269736b2073636f7265206d757374206265206265747765656e203020616e64\n        /* \"#utility.yul\":15384:15385   */\n      0x00\n        /* \"#utility.yul\":15376:15382   */\n      dup3\n        /* \"#utility.yul\":15372:15386   */\n      add\n        /* \"#utility.yul\":15365:15423   */\n      mstore\n        /* \"#utility.yul\":15457:15463   */\n      0x2031303000000000000000000000000000000000000000000000000000000000\n        /* \"#utility.yul\":15452:15454   */\n      0x20\n        /* \"#utility.yul\":15444:15450   */\n      dup3\n        /* \"#utility.yul\":15440:15455   */\n      add\n        /* \"#utility.yul\":15433:15464   */\n      mstore\n        /* \"#utility.yul\":15248:15471   */\n      pop\n      jump\t// out\n        /* \"#utility.yul\":15477:15843   */\n    tag_241:\n        /* \"#utility.yul\":15619:15622   */\n      0x00\n        /* \"#utility.yul\":15640:15707   */\n      tag_398\n        /* \"#utility.yul\":15704:15706   */\n      0x24\n        /* \"#utility.yul\":15699:15702   */\n      dup4\n        /* \"#utility.yul\":15640:15707   */\n      tag_228\n      jump\t// in\n    tag_398:\n        /* \"#utility.yul\":15633:15707   */\n      swap2\n      pop\n        /* \"#utility.yul\":15716:15809   */\n      tag_399\n        /* \"#utility.yul\":15805:15808   */\n      dup3\n        /* \"#utility.yul\":15716:15809   */\n      tag_240\n      jump\t// in\n    tag_399:\n        /* \"#utility.yul\":15834:15836   */\n      0x40\n        /* \"#utility.yul\":15829:15832   */\n      dup3\n        /* \"#utility.yul\":15825:15837   */\n      add\n        /* \"#utility.yul\":15818:15837   */\n      swap1\n      pop\n        /* \"#utility.yul\":15477:15843   */\n      swap2\n      swap1\n      pop\n      jump\t// out\n        /* \"#utility.yul\":15849:16268   */\n    tag_130:\n        /* \"#utility.yul\":16015:16019   */\n      0x00\n        /* \"#utility.yul\":16053:16055   */\n      0x20\n        /* \"#utility.yul\":16042:16051   */\n      dup3\n        /* \"#utility.yul\":16038:16056   */\n      add\n        /* \"#utility.yul\":16030:16056   */\n      swap1\n      pop\n        /* \"#utility.yul\":16102:16111   */\n      dup2\n        /* \"#utility.yul\":16096:16100   */\n      dup2\n        /* \"#utility.yul\":16092:16112   */\n      sub\n        /* \"#utility.yul\":16088:16089   */\n      0x00\n        /* \"#utility.yul\":16077:16086   */\n      dup4\n        /* \"#utility.yul\":16073:16090   */\n      add\n        /* \"#utility.yul\":16066:16113   */\n      mstore\n        /* \"#utility.yul\":16130:16261   */\n      tag_401\n        /* \"#utility.yul\":16256:16260   */\n      dup2\n        /* \"#utility.yul\":16130:16261   */\n      tag_241\n      jump\t// in\n    tag_401:\n        /* \"#utility.yul\":16122:16261   */\n      swap1\n      pop\n        /* \"#utility.yul\":15849:16268   */\n      swap2\n      swap1\n      pop\n      jump\t// out\n        /* \"#utility.yul\":16274:16606   */\n    tag_138:\n        /* \"#utility.yul\":16395:16399   */\n      0x00\n        /* \"#utility.yul\":16433:16435   */\n      0x40\n        /* \"#utility.yul\":16422:16431   */\n      dup3\n        /* \"#utility.yul\":16418:16436   */\n      add\n        /* \"#utility.yul\":16410:16436   */\n      swap1\n      pop\n        /* \"#utility.yul\":16446:16517   */\n      tag_403\n        /* \"#utility.yul\":16514:16515   */\n      0x00\n        /* \"#utility.yul\":16503:16512   */\n      dup4\n        /* \"#utility.yul\":16499:16516   */\n      add\n        /* \"#utility.yul\":16490:16496   */\n      dup6\n        /* \"#utility.yul\":16446:16517   */\n      tag_212\n      jump\t// in\n    tag_403:\n        /* \"#utility.yul\":16527:16599   */\n      tag_404\n        /* \"#utility.yul\":16595:16597   */\n      0x20\n        /* \"#utility.yul\":16584:16593   */\n      dup4\n        /* \"#utility.yul\":16580:16598   */\n      add\n        /* \"#utility.yul\":16571:16577   */\n      dup5\n        /* \"#utility.yul\":16527:16599   */\n      tag_212\n      jump\t// in\n    tag_404:\n        /* \"#utility.yul\":16274:16606   */\n      swap4\n      swap3\n      pop\n      pop\n      pop\n      jump\t// out\n        /* \"#utility.yul\":16612:16834   */\n    tag_149:\n        /* \"#utility.yul\":16705:16709   */\n      0x00\n        /* \"#utility.yul\":16743:16745   */\n      0x20\n        /* \"#utility.yul\":16732:16741   */\n      dup3\n        /* \"#utility.yul\":16728:16746   */\n      add\n        /* \"#utility.yul\":16720:16746   */\n      swap1\n      pop\n        /* \"#utility.yul\":16756:16827   */\n      tag_406\n        /* \"#utility.yul\":16824:16825   */\n      0x00\n        /* \"#utility.yul\":16813:16822   */\n      dup4\n        /* \"#utility.yul\":16809:16826   */\n      add\n        /* \"#utility.yul\":16800:16806   */\n      dup5\n        /* \"#utility.yul\":16756:16827   */\n      tag_212\n      jump\t// in\n    tag_406:\n        /* \"#utility.yul\":16612:16834   */\n      swap3\n      swap2\n      pop\n      pop\n      jump\t// out\n        /* \"#utility.yul\":16840:17389   */\n    tag_183:\n        /* \"#utility.yul\":17015:17019   */\n      0x00\n        /* \"#utility.yul\":17053:17056   */\n      0x80\n        /* \"#utility.yul\":17042:17051   */\n      dup3\n        /* \"#utility.yul\":17038:17057   */\n      add\n        /* \"#utility.yul\":17030:17057   */\n      swap1\n      pop\n        /* \"#utility.yul\":17067:17132   */\n      tag_408\n        /* \"#utility.yul\":17129:17130   */\n      0x00\n        /* \"#utility.yul\":17118:17127   */\n      dup4\n        /* \"#utility.yul\":17114:17131   */\n      add\n        /* \"#utility.yul\":17105:17111   */\n      dup8\n        /* \"#utility.yul\":17067:17132   */\n      tag_210\n      jump\t// in\n    tag_408:\n        /* \"#utility.yul\":17142:17224   */\n      tag_409\n        /* \"#utility.yul\":17220:17222   */\n      0x20\n        /* \"#utility.yul\":17209:17218   */\n      dup4\n        /* \"#utility.yul\":17205:17223   */\n      add\n        /* \"#utility.yul\":17196:17202   */\n      dup7\n        /* \"#utility.yul\":17142:17224   */\n      tag_208\n      jump\t// in\n    tag_409:\n        /* \"#utility.yul\":17234:17306   */\n      tag_410\n        /* \"#utility.yul\":17302:17304   */\n      0x40\n        /* \"#utility.yul\":17291:17300   */\n      dup4\n        /* \"#utility.yul\":17287:17305   */\n      add\n        /* \"#utility.yul\":17278:17284   */\n      dup6\n        /* \"#utility.yul\":17234:17306   */\n      tag_212\n      jump\t// in\n    tag_410:\n        /* \"#utility.yul\":17316:17382   */\n      tag_411\n        /* \"#utility.yul\":17378:17380   */\n      0x60\n        /* \"#utility.yul\":17367:17376   */\n      dup4\n        /* \"#utility.yul\":17363:17381   */\n      add\n        /* \"#utility.yul\":17354:17360   */\n      dup5\n        /* \"#utility.yul\":17316:17382   */\n      tag_210\n      jump\t// in\n    tag_411:\n        /* \"#utility.yul\":16840:17389   */\n      swap6\n      swap5\n      pop\n      pop\n      pop\n      pop\n      pop\n      jump\t// out\n\n    auxdata: 0xa2646970667358221220599419ba5c475100af012bef51433a82e067ae5bb921c7488f899630d3e0fc3a64736f6c634300081a0033\n}\n",
				"bytecode": {
					"linkReferences": {},
					"object": "6080604052348015600e575f80fd5b503360035f6101000a81548173ffffffffffffffffffffffffffffffffffffffff021916908373ffffffffffffffffffffffffffffffffffffffff160217905550611eaf8061005c5f395ff3fe608060405234801561000f575f80fd5b5060043610610109575f3560e01c80638da5cb5b116100a0578063aa7881761161006f578063aa788176146102dd578063b10261b21461030d578063c988291314610329578063ccf2258b14610359578063e527654b1461037557610109565b80638da5cb5b146102575780639ff1192d14610275578063a3d4621e14610291578063aa7804cd146102c157610109565b8063641ee9d5116100dc578063641ee9d5146101ab578063689b0098146101c75780636c824487146101f75780636e287d981461022757610109565b80631615f2d41461010d578063295112711461013d578063336989ae146101595780633e8450ce1461018f575b5f80fd5b6101276004803603810190610122919061162f565b6103ab565b60405161013491906116cd565b60405180910390f35b6101576004803603810190610152919061162f565b6103ff565b005b610173600480360381019061016e919061162f565b610528565b6040516101869796959493929190611727565b60405180910390f35b6101a960048036038101906101a491906117be565b6105a8565b005b6101c560048036038101906101c09190611938565b6106d9565b005b6101e160048036038101906101dc919061162f565b610825565b6040516101ee9190611992565b60405180910390f35b610211600480360381019061020c919061162f565b6108f9565b60405161021e9190611992565b60405180910390f35b610241600480360381019061023c9190611938565b610916565b60405161024e9190611992565b60405180910390f35b61025f610985565b60405161026c91906119ab565b60405180910390f35b61028f600480360381019061028a91906119ee565b6109aa565b005b6102ab60048036038101906102a69190611938565b610bda565b6040516102b89190611992565b60405180910390f35b6102db60048036038101906102d691906119ee565b610c1c565b005b6102f760048036038101906102f2919061162f565b610e6c565b6040516103049190611992565b60405180910390f35b61032760048036038101906103229190611a2c565b611024565b005b610343600480360381019061033e9190611a7c565b611301565b60405161035091906116cd565b60405180910390f35b610373600480360381019061036e919061162f565b61132e565b005b61038f600480360381019061038a919061162f565b611457565b6040516103a29796959493929190611aa7565b60405180910390f35b5f805f8373ffffffffffffffffffffffffffffffffffffffff1673ffffffffffffffffffffffffffffffffffffffff1681526020019081526020015f205f0160019054906101000a900460ff169050919050565b60035f9054906101000a900473ffffffffffffffffffffffffffffffffffffffff1673ffffffffffffffffffffffffffffffffffffffff163373ffffffffffffffffffffffffffffffffffffffff161461048e576040517f08c379a000000000000000000000000000000000000000000000000000000000815260040161048590611b94565b60405180910390fd5b5f60015f8373ffffffffffffffffffffffffffffffffffffffff1673ffffffffffffffffffffffffffffffffffffffff1681526020019081526020015f205f6101000a81548160ff0219169083151502179055508073ffffffffffffffffffffffffffffffffffffffff167f44a3cd4eb5cc5748f6169df057b1cb2ae4c383e87cd94663c430e095d4cba42460405160405180910390a250565b5f602052805f5260405f205f91509050805f015f9054906101000a900460ff1690805f0160019054906101000a900460ff1690806001015490806002015f9054906101000a900473ffffffffffffffffffffffffffffffffffffffff1690806003015490806004015490806005015f9054906101000a900460ff16905087565b60015f3373ffffffffffffffffffffffffffffffffffffffff1673ffffffffffffffffffffffffffffffffffffffff1681526020019081526020015f205f9054906101000a900460ff16610631576040517f08c379a000000000000000000000000000000000000000000000000000000000815260040161062890611c22565b60405180910390fd5b805f808473ffffffffffffffffffffffffffffffffffffffff1673ffffffffffffffffffffffffffffffffffffffff1681526020019081526020015f206005015f6101000a81548160ff0219169083151502179055508173ffffffffffffffffffffffffffffffffffffffff167f1cb955f6f6159d0596b871a84f2bebda3cb78d6afd36a017263c7649283eb283826040516106cd9190611992565b60405180910390a25050565b60015f3373ffffffffffffffffffffffffffffffffffffffff1673ffffffffffffffffffffffffffffffffffffffff1681526020019081526020015f205f9054906101000a900460ff16610762576040517f08c379a000000000000000000000000000000000000000000000000000000000815260040161075990611c22565b60405180910390fd5b600160025f8473ffffffffffffffffffffffffffffffffffffffff1673ffffffffffffffffffffffffffffffffffffffff1681526020019081526020015f20826040516107af9190611c92565b90815260200160405180910390205f6101000a81548160ff0219169083151502179055508173ffffffffffffffffffffffffffffffffffffffff167f91d578c890fbab9b4c0093ce2eb6e7bfee0d83c18211da21952176f4e383921c826040516108199190611ce0565b60405180910390a25050565b5f60015f3373ffffffffffffffffffffffffffffffffffffffff1673ffffffffffffffffffffffffffffffffffffffff1681526020019081526020015f205f9054906101000a900460ff166108af576040517f08c379a00000000000000000000000000000000000000000000000000000000081526004016108a690611c22565b60405180910390fd5b5f805f8473ffffffffffffffffffffffffffffffffffffffff1673ffffffffffffffffffffffffffffffffffffffff1681526020019081526020015f206001015414159050919050565b6001602052805f5260405f205f915054906101000a900460ff1681565b5f60025f8473ffffffffffffffffffffffffffffffffffffffff1673ffffffffffffffffffffffffffffffffffffffff1681526020019081526020015f20826040516109629190611c92565b90815260200160405180910390205f9054906101000a900460ff16905092915050565b60035f9054906101000a900473ffffffffffffffffffffffffffffffffffffffff1681565b60015f3373ffffffffffffffffffffffffffffffffffffffff1673ffffffffffffffffffffffffffffffffffffffff1681526020019081526020015f205f9054906101000a900460ff16610a33576040517f08c379a0000000000000000000000000000000000000000000000000000000008152600401610a2a90611c22565b60405180910390fd5b610a3c82610825565b610a7b576040517f08c379a0000000000000000000000000000000000000000000000000000000008152600401610a7290611d4a565b60405180910390fd5b6064811115610abf576040517f08c379a0000000000000000000000000000000000000000000000000000000008152600401610ab690611dd8565b60405180910390fd5b5f8111610b01576040517f08c379a0000000000000000000000000000000000000000000000000000000008152600401610af890611dd8565b60405180910390fd5b5f805f8473ffffffffffffffffffffffffffffffffffffffff1673ffffffffffffffffffffffffffffffffffffffff1681526020019081526020015f209050818160030181905550428160040181905550610b5b82611301565b815f0160016101000a81548160ff02191690836002811115610b8057610b7f61165a565b5b02179055508273ffffffffffffffffffffffffffffffffffffffff167fc474203c9bd971af57d9ec643f33cebaa494c998ad440ab70e919e66905f534b8342604051610bcd929190611df6565b60405180910390a2505050565b6002602052815f5260405f20818051602081018201805184825260208301602085012081835280955050505050505f915091509054906101000a900460ff1681565b60015f3373ffffffffffffffffffffffffffffffffffffffff1673ffffffffffffffffffffffffffffffffffffffff1681526020019081526020015f205f9054906101000a900460ff16610ca5576040517f08c379a0000000000000000000000000000000000000000000000000000000008152600401610c9c90611c22565b60405180910390fd5b6040518060e001604052805f15158152602001610cc183611301565b6002811115610cd357610cd261165a565b5b81526020014281526020013373ffffffffffffffffffffffffffffffffffffffff1681526020018281526020014281526020015f15158152505f808473ffffffffffffffffffffffffffffffffffffffff1673ffffffffffffffffffffffffffffffffffffffff1681526020019081526020015f205f820151815f015f6101000a81548160ff0219169083151502179055506020820151815f0160016101000a81548160ff02191690836002811115610d8f57610d8e61165a565b5b0217905550604082015181600101556060820151816002015f6101000a81548173ffffffffffffffffffffffffffffffffffffffff021916908373ffffffffffffffffffffffffffffffffffffffff1602179055506080820151816003015560a0820151816004015560c0820151816005015f6101000a81548160ff0219169083151502179055509050508173ffffffffffffffffffffffffffffffffffffffff167f32320a8b5aa92c85c34a15ace73853ab542c9e8a367d1757820878b4d2d01af582604051610e609190611e1d565b60405180910390a25050565b5f60015f3373ffffffffffffffffffffffffffffffffffffffff1673ffffffffffffffffffffffffffffffffffffffff1681526020019081526020015f205f9054906101000a900460ff16610ef6576040517f08c379a0000000000000000000000000000000000000000000000000000000008152600401610eed90611c22565b60405180910390fd5b5f6002811115610f0957610f0861165a565b5b610f12836103ab565b6002811115610f2457610f2361165a565b5b03610f31575f905061101f565b60016002811115610f4557610f4461165a565b5b610f4e836103ab565b6002811115610f6057610f5f61165a565b5b03610fc4578173ffffffffffffffffffffffffffffffffffffffff167fb65b77a7fe4a188850b6664c64d88f23842ff4597a92a5f9a01d6c029abe9f6c610fa6846103ab565b604051610fb391906116cd565b60405180910390a26001905061101f565b8173ffffffffffffffffffffffffffffffffffffffff167fb65b77a7fe4a188850b6664c64d88f23842ff4597a92a5f9a01d6c029abe9f6c611005846103ab565b60405161101291906116cd565b60405180910390a2600190505b919050565b60015f3373ffffffffffffffffffffffffffffffffffffffff1673ffffffffffffffffffffffffffffffffffffffff1681526020019081526020015f205f9054906101000a900460ff166110ad576040517f08c379a00000000000000000000000000000000000000000000000000000000081526004016110a490611c22565b60405180910390fd5b6040518060e0016040528083151581526020016110c9856103ab565b60028111156110db576110da61165a565b5b81526020014281526020013373ffffffffffffffffffffffffffffffffffffffff1681526020015f808673ffffffffffffffffffffffffffffffffffffffff1673ffffffffffffffffffffffffffffffffffffffff1681526020019081526020015f206003015481526020014281526020018215158152505f808573ffffffffffffffffffffffffffffffffffffffff1673ffffffffffffffffffffffffffffffffffffffff1681526020019081526020015f205f820151815f015f6101000a81548160ff0219169083151502179055506020820151815f0160016101000a81548160ff021916908360028111156111d6576111d561165a565b5b0217905550604082015181600101556060820151816002015f6101000a81548173ffffffffffffffffffffffffffffffffffffffff021916908373ffffffffffffffffffffffffffffffffffffffff1602179055506080820151816003015560a0820151816004015560c0820151816005015f6101000a81548160ff0219169083151502179055509050508273ffffffffffffffffffffffffffffffffffffffff167ff2097e6b3c73b8bdeb108282178983128a8f5d1b70bf2dc985ad46d5cbcff0cf836112a3866103ab565b5f808873ffffffffffffffffffffffffffffffffffffffff1673ffffffffffffffffffffffffffffffffffffffff1681526020019081526020015f2060030154856040516112f49493929190611e36565b60405180910390a2505050565b5f601e821015611313575f9050611329565b604682116113245760019050611329565b600290505b919050565b60035f9054906101000a900473ffffffffffffffffffffffffffffffffffffffff1673ffffffffffffffffffffffffffffffffffffffff163373ffffffffffffffffffffffffffffffffffffffff16146113bd576040517f08c379a00000000000000000000000000000000000000000000000000000000081526004016113b490611b94565b60405180910390fd5b6001805f8373ffffffffffffffffffffffffffffffffffffffff1673ffffffffffffffffffffffffffffffffffffffff1681526020019081526020015f205f6101000a81548160ff0219169083151502179055508073ffffffffffffffffffffffffffffffffffffffff167f6d05492139c5ea989514a5d2150c028041e5c087e2a39967f67dc7d2655adb8160405160405180910390a250565b5f805f805f805f805f808a73ffffffffffffffffffffffffffffffffffffffff1673ffffffffffffffffffffffffffffffffffffffff1681526020019081526020015f206040518060e00160405290815f82015f9054906101000a900460ff161515151581526020015f820160019054906101000a900460ff1660028111156114e3576114e261165a565b5b60028111156114f5576114f461165a565b5b815260200160018201548152602001600282015f9054906101000a900473ffffffffffffffffffffffffffffffffffffffff1673ffffffffffffffffffffffffffffffffffffffff1673ffffffffffffffffffffffffffffffffffffffff1681526020016003820154815260200160048201548152602001600582015f9054906101000a900460ff1615151515815250509050805f015181602001518260400151836060015184608001518560c001518660a00151975097509750975097509750975050919395979092949650565b5f604051905090565b5f80fd5b5f80fd5b5f73ffffffffffffffffffffffffffffffffffffffff82169050919050565b5f6115fe826115d5565b9050919050565b61160e816115f4565b8114611618575f80fd5b50565b5f8135905061162981611605565b92915050565b5f60208284031215611644576116436115cd565b5b5f6116518482850161161b565b91505092915050565b7f4e487b71000000000000000000000000000000000000000000000000000000005f52602160045260245ffd5b600381106116985761169761165a565b5b50565b5f8190506116a882611687565b919050565b5f6116b78261169b565b9050919050565b6116c7816116ad565b82525050565b5f6020820190506116e05f8301846116be565b92915050565b5f8115159050919050565b6116fa816116e6565b82525050565b5f819050919050565b61171281611700565b82525050565b611721816115f4565b82525050565b5f60e08201905061173a5f83018a6116f1565b61174760208301896116be565b6117546040830188611709565b6117616060830187611718565b61176e6080830186611709565b61177b60a0830185611709565b61178860c08301846116f1565b98975050505050505050565b61179d816116e6565b81146117a7575f80fd5b50565b5f813590506117b881611794565b92915050565b5f80604083850312156117d4576117d36115cd565b5b5f6117e18582860161161b565b92505060206117f2858286016117aa565b9150509250929050565b5f80fd5b5f80fd5b5f601f19601f8301169050919050565b7f4e487b71000000000000000000000000000000000000000000000000000000005f52604160045260245ffd5b61184a82611804565b810181811067ffffffffffffffff8211171561186957611868611814565b5b80604052505050565b5f61187b6115c4565b90506118878282611841565b919050565b5f67ffffffffffffffff8211156118a6576118a5611814565b5b6118af82611804565b9050602081019050919050565b828183375f83830152505050565b5f6118dc6118d78461188c565b611872565b9050828152602081018484840111156118f8576118f7611800565b5b6119038482856118bc565b509392505050565b5f82601f83011261191f5761191e6117fc565b5b813561192f8482602086016118ca565b91505092915050565b5f806040838503121561194e5761194d6115cd565b5b5f61195b8582860161161b565b925050602083013567ffffffffffffffff81111561197c5761197b6115d1565b5b6119888582860161190b565b9150509250929050565b5f6020820190506119a55f8301846116f1565b92915050565b5f6020820190506119be5f830184611718565b92915050565b6119cd81611700565b81146119d7575f80fd5b50565b5f813590506119e8816119c4565b92915050565b5f8060408385031215611a0457611a036115cd565b5b5f611a118582860161161b565b9250506020611a22858286016119da565b9150509250929050565b5f805f60608486031215611a4357611a426115cd565b5b5f611a508682870161161b565b9350506020611a61868287016117aa565b9250506040611a72868287016117aa565b9150509250925092565b5f60208284031215611a9157611a906115cd565b5b5f611a9e848285016119da565b91505092915050565b5f60e082019050611aba5f83018a6116f1565b611ac760208301896116be565b611ad46040830188611709565b611ae16060830187611718565b611aee6080830186611709565b611afb60a08301856116f1565b611b0860c0830184611709565b98975050505050505050565b5f82825260208201905092915050565b7f4f6e6c79206f776e65722063616e20706572666f726d207468697320616374695f8201527f6f6e000000000000000000000000000000000000000000000000000000000000602082015250565b5f611b7e602283611b14565b9150611b8982611b24565b604082019050919050565b5f6020820190508181035f830152611bab81611b72565b9050919050565b7f4f6e6c7920617574686f72697a6564207665726966696572732063616e2070655f8201527f72666f726d207468697320616374696f6e000000000000000000000000000000602082015250565b5f611c0c603183611b14565b9150611c1782611bb2565b604082019050919050565b5f6020820190508181035f830152611c3981611c00565b9050919050565b5f81519050919050565b5f81905092915050565b8281835e5f83830152505050565b5f611c6c82611c40565b611c768185611c4a565b9350611c86818560208601611c54565b80840191505092915050565b5f611c9d8284611c62565b915081905092915050565b5f611cb282611c40565b611cbc8185611b14565b9350611ccc818560208601611c54565b611cd581611804565b840191505092915050565b5f6020820190508181035f830152611cf88184611ca8565b905092915050565b7f437573746f6d657220646f65736e74206578697374732e0000000000000000005f82015250565b5f611d34601783611b14565b9150611d3f82611d00565b602082019050919050565b5f6020820190508181035f830152611d6181611d28565b9050919050565b7f5269736b2073636f7265206d757374206265206265747765656e203020616e645f8201527f2031303000000000000000000000000000000000000000000000000000000000602082015250565b5f611dc2602483611b14565b9150611dcd82611d68565b604082019050919050565b5f6020820190508181035f830152611def81611db6565b9050919050565b5f604082019050611e095f830185611709565b611e166020830184611709565b9392505050565b5f602082019050611e305f830184611709565b92915050565b5f608082019050611e495f8301876116f1565b611e5660208301866116be565b611e636040830185611709565b611e7060608301846116f1565b9594505050505056fea2646970667358221220599419ba5c475100af012bef51433a82e067ae5bb921c7488f899630d3e0fc3a64736f6c634300081a0033",
					"opcodes": "PUSH1 0x80 PUSH1 0x40 MSTORE CALLVALUE DUP1 ISZERO PUSH1 0xE JUMPI PUSH0 DUP1 REVERT JUMPDEST POP CALLER PUSH1 0x3 PUSH0 PUSH2 0x100 EXP DUP2 SLOAD DUP2 PUSH20 0xFFFFFFFFFFFFFFFFFFFFFFFFFFFFFFFFFFFFFFFF MUL NOT AND SWAP1 DUP4 PUSH20 0xFFFFFFFFFFFFFFFFFFFFFFFFFFFFFFFFFFFFFFFF AND MUL OR SWAP1 SSTORE POP PUSH2 0x1EAF DUP1 PUSH2 0x5C PUSH0 CODECOPY PUSH0 RETURN INVALID PUSH1 0x80 PUSH1 0x40 MSTORE CALLVALUE DUP1 ISZERO PUSH2 0xF JUMPI PUSH0 DUP1 REVERT JUMPDEST POP PUSH1 0x4 CALLDATASIZE LT PUSH2 0x109 JUMPI PUSH0 CALLDATALOAD PUSH1 0xE0 SHR DUP1 PUSH4 0x8DA5CB5B GT PUSH2 0xA0 JUMPI DUP1 PUSH4 0xAA788176 GT PUSH2 0x6F JUMPI DUP1 PUSH4 0xAA788176 EQ PUSH2 0x2DD JUMPI DUP1 PUSH4 0xB10261B2 EQ PUSH2 0x30D JUMPI DUP1 PUSH4 0xC9882913 EQ PUSH2 0x329 JUMPI DUP1 PUSH4 0xCCF2258B EQ PUSH2 0x359 JUMPI DUP1 PUSH4 0xE527654B EQ PUSH2 0x375 JUMPI PUSH2 0x109 JUMP JUMPDEST DUP1 PUSH4 0x8DA5CB5B EQ PUSH2 0x257 JUMPI DUP1 PUSH4 0x9FF1192D EQ PUSH2 0x275 JUMPI DUP1 PUSH4 0xA3D4621E EQ PUSH2 0x291 JUMPI DUP1 PUSH4 0xAA7804CD EQ PUSH2 0x2C1 JUMPI PUSH2 0x109 JUMP JUMPDEST DUP1 PUSH4 0x641EE9D5 GT PUSH2 0xDC JUMPI DUP1 PUSH4 0x641EE9D5 EQ PUSH2 0x1AB JUMPI DUP1 PUSH4 0x689B0098 EQ PUSH2 0x1C7 JUMPI DUP1 PUSH4 0x6C824487 EQ PUSH2 0x1F7 JUMPI DUP1 PUSH4 0x6E287D98 EQ PUSH2 0x227 JUMPI PUSH2 0x109 JUMP JUMPDEST DUP1 PUSH4 0x1615F2D4 EQ PUSH2 0x10D JUMPI DUP1 PUSH4 0x29511271 EQ PUSH2 0x13D JUMPI DUP1 PUSH4 0x336989AE EQ PUSH2 0x159 JUMPI DUP1 PUSH4 0x3E8450CE EQ PUSH2 0x18F JUMPI JUMPDEST PUSH0 DUP1 REVERT JUMPDEST PUSH2 0x127 PUSH1 0x4 DUP1 CALLDATASIZE SUB DUP2 ADD SWAP1 PUSH2 0x122 SWAP2 SWAP1 PUSH2 0x162F JUMP JUMPDEST PUSH2 0x3AB JUMP JUMPDEST PUSH1 0x40 MLOAD PUSH2 0x134 SWAP2 SWAP1 PUSH2 0x16CD JUMP JUMPDEST PUSH1 0x40 MLOAD DUP1 SWAP2 SUB SWAP1 RETURN JUMPDEST PUSH2 0x157 PUSH1 0x4 DUP1 CALLDATASIZE SUB DUP2 ADD SWAP1 PUSH2 0x152 SWAP2 SWAP1 PUSH2 0x162F JUMP JUMPDEST PUSH2 0x3FF JUMP JUMPDEST STOP JUMPDEST PUSH2 0x173 PUSH1 0x4 DUP1 CALLDATASIZE SUB DUP2 ADD SWAP1 PUSH2 0x16E SWAP2 SWAP1 PUSH2 0x162F JUMP JUMPDEST PUSH2 0x528 JUMP JUMPDEST PUSH1 0x40 MLOAD PUSH2 0x186 SWAP8 SWAP7 SWAP6 SWAP5 SWAP4 SWAP3 SWAP2 SWAP1 PUSH2 0x1727 JUMP JUMPDEST PUSH1 0x40 MLOAD DUP1 SWAP2 SUB SWAP1 RETURN JUMPDEST PUSH2 0x1A9 PUSH1 0x4 DUP1 CALLDATASIZE SUB DUP2 ADD SWAP1 PUSH2 0x1A4 SWAP2 SWAP1 PUSH2 0x17BE JUMP JUMPDEST PUSH2 0x5A8 JUMP JUMPDEST STOP JUMPDEST PUSH2 0x1C5 PUSH1 0x4 DUP1 CALLDATASIZE SUB DUP2 ADD SWAP1 PUSH2 0x1C0 SWAP2 SWAP1 PUSH2 0x1938 JUMP JUMPDEST PUSH2 0x6D9 JUMP JUMPDEST STOP JUMPDEST PUSH2 0x1E1 PUSH1 0x4 DUP1 CALLDATASIZE SUB DUP2 ADD SWAP1 PUSH2 0x1DC SWAP2 SWAP1 PUSH2 0x162F JUMP JUMPDEST PUSH2 0x825 JUMP JUMPDEST PUSH1 0x40 MLOAD PUSH2 0x1EE SWAP2 SWAP1 PUSH2 0x1992 JUMP JUMPDEST PUSH1 0x40 MLOAD DUP1 SWAP2 SUB SWAP1 RETURN JUMPDEST PUSH2 0x211 PUSH1 0x4 DUP1 CALLDATASIZE SUB DUP2 ADD SWAP1 PUSH2 0x20C SWAP2 SWAP1 PUSH2 0x162F JUMP JUMPDEST PUSH2 0x8F9 JUMP JUMPDEST PUSH1 0x40 MLOAD PUSH2 0x21E SWAP2 SWAP1 PUSH2 0x1992 JUMP JUMPDEST PUSH1 0x40 MLOAD DUP1 SWAP2 SUB SWAP1 RETURN JUMPDEST PUSH2 0x241 PUSH1 0x4 DUP1 CALLDATASIZE SUB DUP2 ADD SWAP1 PUSH2 0x23C SWAP2 SWAP1 PUSH2 0x1938 JUMP JUMPDEST PUSH2 0x916 JUMP JUMPDEST PUSH1 0x40 MLOAD PUSH2 0x24E SWAP2 SWAP1 PUSH2 0x1992 JUMP JUMPDEST PUSH1 0x40 MLOAD DUP1 SWAP2 SUB SWAP1 RETURN JUMPDEST PUSH2 0x25F PUSH2 0x985 JUMP JUMPDEST PUSH1 0x40 MLOAD PUSH2 0x26C SWAP2 SWAP1 PUSH2 0x19AB JUMP JUMPDEST PUSH1 0x40 MLOAD DUP1 SWAP2 SUB SWAP1 RETURN JUMPDEST PUSH2 0x28F PUSH1 0x4 DUP1 CALLDATASIZE SUB DUP2 ADD SWAP1 PUSH2 0x28A SWAP2 SWAP1 PUSH2 0x19EE JUMP JUMPDEST PUSH2 0x9AA JUMP JUMPDEST STOP JUMPDEST PUSH2 0x2AB PUSH1 0x4 DUP1 CALLDATASIZE SUB DUP2 ADD SWAP1 PUSH2 0x2A6 SWAP2 SWAP1 PUSH2 0x1938 JUMP JUMPDEST PUSH2 0xBDA JUMP JUMPDEST PUSH1 0x40 MLOAD PUSH2 0x2B8 SWAP2 SWAP1 PUSH2 0x1992 JUMP JUMPDEST PUSH1 0x40 MLOAD DUP1 SWAP2 SUB SWAP1 RETURN JUMPDEST PUSH2 0x2DB PUSH1 0x4 DUP1 CALLDATASIZE SUB DUP2 ADD SWAP1 PUSH2 0x2D6 SWAP2 SWAP1 PUSH2 0x19EE JUMP JUMPDEST PUSH2 0xC1C JUMP JUMPDEST STOP JUMPDEST PUSH2 0x2F7 PUSH1 0x4 DUP1 CALLDATASIZE SUB DUP2 ADD SWAP1 PUSH2 0x2F2 SWAP2 SWAP1 PUSH2 0x162F JUMP JUMPDEST PUSH2 0xE6C JUMP JUMPDEST PUSH1 0x40 MLOAD PUSH2 0x304 SWAP2 SWAP1 PUSH2 0x1992 JUMP JUMPDEST PUSH1 0x40 MLOAD DUP1 SWAP2 SUB SWAP1 RETURN JUMPDEST PUSH2 0x327 PUSH1 0x4 DUP1 CALLDATASIZE SUB DUP2 ADD SWAP1 PUSH2 0x322 SWAP2 SWAP1 PUSH2 0x1A2C JUMP JUMPDEST PUSH2 0x1024 JUMP JUMPDEST STOP JUMPDEST PUSH2 0x343 PUSH1 0x4 DUP1 CALLDATASIZE SUB DUP2 ADD SWAP1 PUSH2 0x33E SWAP2 SWAP1 PUSH2 0x1A7C JUMP JUMPDEST PUSH2 0x1301 JUMP JUMPDEST PUSH1 0x40 MLOAD PUSH2 0x350 SWAP2 SWAP1 PUSH2 0x16CD JUMP JUMPDEST PUSH1 0x40 MLOAD DUP1 SWAP2 SUB SWAP1 RETURN JUMPDEST PUSH2 0x373 PUSH1 0x4 DUP1 CALLDATASIZE SUB DUP2 ADD SWAP1 PUSH2 0x36E SWAP2 SWAP1 PUSH2 0x162F JUMP JUMPDEST PUSH2 0x132E JUMP JUMPDEST STOP JUMPDEST PUSH2 0x38F PUSH1 0x4 DUP1 CALLDATASIZE SUB DUP2 ADD SWAP1 PUSH2 0x38A SWAP2 SWAP1 PUSH2 0x162F JUMP JUMPDEST PUSH2 0x1457 JUMP JUMPDEST PUSH1 0x40 MLOAD PUSH2 0x3A2 SWAP8 SWAP7 SWAP6 SWAP5 SWAP4 SWAP3 SWAP2 SWAP1 PUSH2 0x1AA7 JUMP JUMPDEST PUSH1 0x40 MLOAD DUP1 SWAP2 SUB SWAP1 RETURN JUMPDEST PUSH0 DUP1 PUSH0 DUP4 PUSH20 0xFFFFFFFFFFFFFFFFFFFFFFFFFFFFFFFFFFFFFFFF AND PUSH20 0xFFFFFFFFFFFFFFFFFFFFFFFFFFFFFFFFFFFFFFFF AND DUP2 MSTORE PUSH1 0x20 ADD SWAP1 DUP2 MSTORE PUSH1 0x20 ADD PUSH0 KECCAK256 PUSH0 ADD PUSH1 0x1 SWAP1 SLOAD SWAP1 PUSH2 0x100 EXP SWAP1 DIV PUSH1 0xFF AND SWAP1 POP SWAP2 SWAP1 POP JUMP JUMPDEST PUSH1 0x3 PUSH0 SWAP1 SLOAD SWAP1 PUSH2 0x100 EXP SWAP1 DIV PUSH20 0xFFFFFFFFFFFFFFFFFFFFFFFFFFFFFFFFFFFFFFFF AND PUSH20 0xFFFFFFFFFFFFFFFFFFFFFFFFFFFFFFFFFFFFFFFF AND CALLER PUSH20 0xFFFFFFFFFFFFFFFFFFFFFFFFFFFFFFFFFFFFFFFF AND EQ PUSH2 0x48E JUMPI PUSH1 0x40 MLOAD PUSH32 0x8C379A000000000000000000000000000000000000000000000000000000000 DUP2 MSTORE PUSH1 0x4 ADD PUSH2 0x485 SWAP1 PUSH2 0x1B94 JUMP JUMPDEST PUSH1 0x40 MLOAD DUP1 SWAP2 SUB SWAP1 REVERT JUMPDEST PUSH0 PUSH1 0x1 PUSH0 DUP4 PUSH20 0xFFFFFFFFFFFFFFFFFFFFFFFFFFFFFFFFFFFFFFFF AND PUSH20 0xFFFFFFFFFFFFFFFFFFFFFFFFFFFFFFFFFFFFFFFF AND DUP2 MSTORE PUSH1 0x20 ADD SWAP1 DUP2 MSTORE PUSH1 0x20 ADD PUSH0 KECCAK256 PUSH0 PUSH2 0x100 EXP DUP2 SLOAD DUP2 PUSH1 0xFF MUL NOT AND SWAP1 DUP4 ISZERO ISZERO MUL OR SWAP1 SSTORE POP DUP1 PUSH20 0xFFFFFFFFFFFFFFFFFFFFFFFFFFFFFFFFFFFFFFFF AND PUSH32 0x44A3CD4EB5CC5748F6169DF057B1CB2AE4C383E87CD94663C430E095D4CBA424 PUSH1 0x40 MLOAD PUSH1 0x40 MLOAD DUP1 SWAP2 SUB SWAP1 LOG2 POP JUMP JUMPDEST PUSH0 PUSH1 0x20 MSTORE DUP1 PUSH0 MSTORE PUSH1 0x40 PUSH0 KECCAK256 PUSH0 SWAP2 POP SWAP1 POP DUP1 PUSH0 ADD PUSH0 SWAP1 SLOAD SWAP1 PUSH2 0x100 EXP SWAP1 DIV PUSH1 0xFF AND SWAP1 DUP1 PUSH0 ADD PUSH1 0x1 SWAP1 SLOAD SWAP1 PUSH2 0x100 EXP SWAP1 DIV PUSH1 0xFF AND SWAP1 DUP1 PUSH1 0x1 ADD SLOAD SWAP1 DUP1 PUSH1 0x2 ADD PUSH0 SWAP1 SLOAD SWAP1 PUSH2 0x100 EXP SWAP1 DIV PUSH20 0xFFFFFFFFFFFFFFFFFFFFFFFFFFFFFFFFFFFFFFFF AND SWAP1 DUP1 PUSH1 0x3 ADD SLOAD SWAP1 DUP1 PUSH1 0x4 ADD SLOAD SWAP1 DUP1 PUSH1 0x5 ADD PUSH0 SWAP1 SLOAD SWAP1 PUSH2 0x100 EXP SWAP1 DIV PUSH1 0xFF AND SWAP1 POP DUP8 JUMP JUMPDEST PUSH1 0x1 PUSH0 CALLER PUSH20 0xFFFFFFFFFFFFFFFFFFFFFFFFFFFFFFFFFFFFFFFF AND PUSH20 0xFFFFFFFFFFFFFFFFFFFFFFFFFFFFFFFFFFFFFFFF AND DUP2 MSTORE PUSH1 0x20 ADD SWAP1 DUP2 MSTORE PUSH1 0x20 ADD PUSH0 KECCAK256 PUSH0 SWAP1 SLOAD SWAP1 PUSH2 0x100 EXP SWAP1 DIV PUSH1 0xFF AND PUSH2 0x631 JUMPI PUSH1 0x40 MLOAD PUSH32 0x8C379A000000000000000000000000000000000000000000000000000000000 DUP2 MSTORE PUSH1 0x4 ADD PUSH2 0x628 SWAP1 PUSH2 0x1C22 JUMP JUMPDEST PUSH1 0x40 MLOAD DUP1 SWAP2 SUB SWAP1 REVERT JUMPDEST DUP1 PUSH0 DUP1 DUP5 PUSH20 0xFFFFFFFFFFFFFFFFFFFFFFFFFFFFFFFFFFFFFFFF AND PUSH20 0xFFFFFFFFFFFFFFFFFFFFFFFFFFFFFFFFFFFFFFFF AND DUP2 MSTORE PUSH1 0x20 ADD SWAP1 DUP2 MSTORE PUSH1 0x20 ADD PUSH0 KECCAK256 PUSH1 0x5 ADD PUSH0 PUSH2 0x100 EXP DUP2 SLOAD DUP2 PUSH1 0xFF MUL NOT AND SWAP1 DUP4 ISZERO ISZERO MUL OR SWAP1 SSTORE POP DUP2 PUSH20 0xFFFFFFFFFFFFFFFFFFFFFFFFFFFFFFFFFFFFFFFF AND PUSH32 0x1CB955F6F6159D0596B871A84F2BEBDA3CB78D6AFD36A017263C7649283EB283 DUP3 PUSH1 0x40 MLOAD PUSH2 0x6CD SWAP2 SWAP1 PUSH2 0x1992 JUMP JUMPDEST PUSH1 0x40 MLOAD DUP1 SWAP2 SUB SWAP1 LOG2 POP POP JUMP JUMPDEST PUSH1 0x1 PUSH0 CALLER PUSH20 0xFFFFFFFFFFFFFFFFFFFFFFFFFFFFFFFFFFFFFFFF AND PUSH20 0xFFFFFFFFFFFFFFFFFFFFFFFFFFFFFFFFFFFFFFFF AND DUP2 MSTORE PUSH1 0x20 ADD SWAP1 DUP2 MSTORE PUSH1 0x20 ADD PUSH0 KECCAK256 PUSH0 SWAP1 SLOAD SWAP1 PUSH2 0x100 EXP SWAP1 DIV PUSH1 0xFF AND PUSH2 0x762 JUMPI PUSH1 0x40 MLOAD PUSH32 0x8C379A000000000000000000000000000000000000000000000000000000000 DUP2 MSTORE PUSH1 0x4 ADD PUSH2 0x759 SWAP1 PUSH2 0x1C22 JUMP JUMPDEST PUSH1 0x40 MLOAD DUP1 SWAP2 SUB SWAP1 REVERT JUMPDEST PUSH1 0x1 PUSH1 0x2 PUSH0 DUP5 PUSH20 0xFFFFFFFFFFFFFFFFFFFFFFFFFFFFFFFFFFFFFFFF AND PUSH20 0xFFFFFFFFFFFFFFFFFFFFFFFFFFFFFFFFFFFFFFFF AND DUP2 MSTORE PUSH1 0x20 ADD SWAP1 DUP2 MSTORE PUSH1 0x20 ADD PUSH0 KECCAK256 DUP3 PUSH1 0x40 MLOAD PUSH2 0x7AF SWAP2 SWAP1 PUSH2 0x1C92 JUMP JUMPDEST SWAP1 DUP2 MSTORE PUSH1 0x20 ADD PUSH1 0x40 MLOAD DUP1 SWAP2 SUB SWAP1 KECCAK256 PUSH0 PUSH2 0x100 EXP DUP2 SLOAD DUP2 PUSH1 0xFF MUL NOT AND SWAP1 DUP4 ISZERO ISZERO MUL OR SWAP1 SSTORE POP DUP2 PUSH20 0xFFFFFFFFFFFFFFFFFFFFFFFFFFFFFFFFFFFFFFFF AND PUSH32 0x91D578C890FBAB9B4C0093CE2EB6E7BFEE0D83C18211DA21952176F4E383921C DUP3 PUSH1 0x40 MLOAD PUSH2 0x819 SWAP2 SWAP1 PUSH2 0x1CE0 JUMP JUMPDEST PUSH1 0x40 MLOAD DUP1 SWAP2 SUB SWAP1 LOG2 POP POP JUMP JUMPDEST PUSH0 PUSH1 0x1 PUSH0 CALLER PUSH20 0xFFFFFFFFFFFFFFFFFFFFFFFFFFFFFFFFFFFFFFFF AND PUSH20 0xFFFFFFFFFFFFFFFFFFFFFFFFFFFFFFFFFFFFFFFF AND DUP2 MSTORE PUSH1 0x20 ADD SWAP1 DUP2 MSTORE PUSH1 0x20 ADD PUSH0 KECCAK256 PUSH0 SWAP1 SLOAD SWAP1 PUSH2 0x100 EXP SWAP1 DIV PUSH1 0xFF AND PUSH2 0x8AF JUMPI PUSH1 0x40 MLOAD PUSH32 0x8C379A000000000000000000000000000000000000000000000000000000000 DUP2 MSTORE PUSH1 0x4 ADD PUSH2 0x8A6 SWAP1 PUSH2 0x1C22 JUMP JUMPDEST PUSH1 0x40 MLOAD DUP1 SWAP2 SUB SWAP1 REVERT JUMPDEST PUSH0 DUP1 PUSH0 DUP5 PUSH20 0xFFFFFFFFFFFFFFFFFFFFFFFFFFFFFFFFFFFFFFFF AND PUSH20 0xFFFFFFFFFFFFFFFFFFFFFFFFFFFFFFFFFFFFFFFF AND DUP2 MSTORE PUSH1 0x20 ADD SWAP1 DUP2 MSTORE PUSH1 0x20 ADD PUSH0 KECCAK256 PUSH1 0x1 ADD SLOAD EQ ISZERO SWAP1 POP SWAP2 SWAP1 POP JUMP JUMPDEST PUSH1 0x1 PUSH1 0x20 MSTORE DUP1 PUSH0 MSTORE PUSH1 0x40 PUSH0 KECCAK256 PUSH0 SWAP2 POP SLOAD SWAP1 PUSH2 0x100 EXP SWAP1 DIV PUSH1 0xFF AND DUP2 JUMP JUMPDEST PUSH0 PUSH1 0x2 PUSH0 DUP5 PUSH20 0xFFFFFFFFFFFFFFFFFFFFFFFFFFFFFFFFFFFFFFFF AND PUSH20 0xFFFFFFFFFFFFFFFFFFFFFFFFFFFFFFFFFFFFFFFF AND DUP2 MSTORE PUSH1 0x20 ADD SWAP1 DUP2 MSTORE PUSH1 0x20 ADD PUSH0 KECCAK256 DUP3 PUSH1 0x40 MLOAD PUSH2 0x962 SWAP2 SWAP1 PUSH2 0x1C92 JUMP JUMPDEST SWAP1 DUP2 MSTORE PUSH1 0x20 ADD PUSH1 0x40 MLOAD DUP1 SWAP2 SUB SWAP1 KECCAK256 PUSH0 SWAP1 SLOAD SWAP1 PUSH2 0x100 EXP SWAP1 DIV PUSH1 0xFF AND SWAP1 POP SWAP3 SWAP2 POP POP JUMP JUMPDEST PUSH1 0x3 PUSH0 SWAP1 SLOAD SWAP1 PUSH2 0x100 EXP SWAP1 DIV PUSH20 0xFFFFFFFFFFFFFFFFFFFFFFFFFFFFFFFFFFFFFFFF AND DUP2 JUMP JUMPDEST PUSH1 0x1 PUSH0 CALLER PUSH20 0xFFFFFFFFFFFFFFFFFFFFFFFFFFFFFFFFFFFFFFFF AND PUSH20 0xFFFFFFFFFFFFFFFFFFFFFFFFFFFFFFFFFFFFFFFF AND DUP2 MSTORE PUSH1 0x20 ADD SWAP1 DUP2 MSTORE PUSH1 0x20 ADD PUSH0 KECCAK256 PUSH0 SWAP1 SLOAD SWAP1 PUSH2 0x100 EXP SWAP1 DIV PUSH1 0xFF AND PUSH2 0xA33 JUMPI PUSH1 0x40 MLOAD PUSH32 0x8C379A000000000000000000000000000000000000000000000000000000000 DUP2 MSTORE PUSH1 0x4 ADD PUSH2 0xA2A SWAP1 PUSH2 0x1C22 JUMP JUMPDEST PUSH1 0x40 MLOAD DUP1 SWAP2 SUB SWAP1 REVERT JUMPDEST PUSH2 0xA3C DUP3 PUSH2 0x825 JUMP JUMPDEST PUSH2 0xA7B JUMPI PUSH1 0x40 MLOAD PUSH32 0x8C379A000000000000000000000000000000000000000000000000000000000 DUP2 MSTORE PUSH1 0x4 ADD PUSH2 0xA72 SWAP1 PUSH2 0x1D4A JUMP JUMPDEST PUSH1 0x40 MLOAD DUP1 SWAP2 SUB SWAP1 REVERT JUMPDEST PUSH1 0x64 DUP2 GT ISZERO PUSH2 0xABF JUMPI PUSH1 0x40 MLOAD PUSH32 0x8C379A000000000000000000000000000000000000000000000000000000000 DUP2 MSTORE PUSH1 0x4 ADD PUSH2 0xAB6 SWAP1 PUSH2 0x1DD8 JUMP JUMPDEST PUSH1 0x40 MLOAD DUP1 SWAP2 SUB SWAP1 REVERT JUMPDEST PUSH0 DUP2 GT PUSH2 0xB01 JUMPI PUSH1 0x40 MLOAD PUSH32 0x8C379A000000000000000000000000000000000000000000000000000000000 DUP2 MSTORE PUSH1 0x4 ADD PUSH2 0xAF8 SWAP1 PUSH2 0x1DD8 JUMP JUMPDEST PUSH1 0x40 MLOAD DUP1 SWAP2 SUB SWAP1 REVERT JUMPDEST PUSH0 DUP1 PUSH0 DUP5 PUSH20 0xFFFFFFFFFFFFFFFFFFFFFFFFFFFFFFFFFFFFFFFF AND PUSH20 0xFFFFFFFFFFFFFFFFFFFFFFFFFFFFFFFFFFFFFFFF AND DUP2 MSTORE PUSH1 0x20 ADD SWAP1 DUP2 MSTORE PUSH1 0x20 ADD PUSH0 KECCAK256 SWAP1 POP DUP2 DUP2 PUSH1 0x3 ADD DUP2 SWAP1 SSTORE POP TIMESTAMP DUP2 PUSH1 0x4 ADD DUP2 SWAP1 SSTORE POP PUSH2 0xB5B DUP3 PUSH2 0x1301 JUMP JUMPDEST DUP2 PUSH0 ADD PUSH1 0x1 PUSH2 0x100 EXP DUP2 SLOAD DUP2 PUSH1 0xFF MUL NOT AND SWAP1 DUP4 PUSH1 0x2 DUP2 GT ISZERO PUSH2 0xB80 JUMPI PUSH2 0xB7F PUSH2 0x165A JUMP JUMPDEST JUMPDEST MUL OR SWAP1 SSTORE POP DUP3 PUSH20 0xFFFFFFFFFFFFFFFFFFFFFFFFFFFFFFFFFFFFFFFF AND PUSH32 0xC474203C9BD971AF57D9EC643F33CEBAA494C998AD440AB70E919E66905F534B DUP4 TIMESTAMP PUSH1 0x40 MLOAD PUSH2 0xBCD SWAP3 SWAP2 SWAP1 PUSH2 0x1DF6 JUMP JUMPDEST PUSH1 0x40 MLOAD DUP1 SWAP2 SUB SWAP1 LOG2 POP POP POP JUMP JUMPDEST PUSH1 0x2 PUSH1 0x20 MSTORE DUP2 PUSH0 MSTORE PUSH1 0x40 PUSH0 KECCAK256 DUP2 DUP1 MLOAD PUSH1 0x20 DUP2 ADD DUP3 ADD DUP1 MLOAD DUP5 DUP3 MSTORE PUSH1 0x20 DUP4 ADD PUSH1 0x20 DUP6 ADD KECCAK256 DUP2 DUP4 MSTORE DUP1 SWAP6 POP POP POP POP POP POP PUSH0 SWAP2 POP SWAP2 POP SWAP1 SLOAD SWAP1 PUSH2 0x100 EXP SWAP1 DIV PUSH1 0xFF AND DUP2 JUMP JUMPDEST PUSH1 0x1 PUSH0 CALLER PUSH20 0xFFFFFFFFFFFFFFFFFFFFFFFFFFFFFFFFFFFFFFFF AND PUSH20 0xFFFFFFFFFFFFFFFFFFFFFFFFFFFFFFFFFFFFFFFF AND DUP2 MSTORE PUSH1 0x20 ADD SWAP1 DUP2 MSTORE PUSH1 0x20 ADD PUSH0 KECCAK256 PUSH0 SWAP1 SLOAD SWAP1 PUSH2 0x100 EXP SWAP1 DIV PUSH1 0xFF AND PUSH2 0xCA5 JUMPI PUSH1 0x40 MLOAD PUSH32 0x8C379A000000000000000000000000000000000000000000000000000000000 DUP2 MSTORE PUSH1 0x4 ADD PUSH2 0xC9C SWAP1 PUSH2 0x1C22 JUMP JUMPDEST PUSH1 0x40 MLOAD DUP1 SWAP2 SUB SWAP1 REVERT JUMPDEST PUSH1 0x40 MLOAD DUP1 PUSH1 0xE0 ADD PUSH1 0x40 MSTORE DUP1 PUSH0 ISZERO ISZERO DUP2 MSTORE PUSH1 0x20 ADD PUSH2 0xCC1 DUP4 PUSH2 0x1301 JUMP JUMPDEST PUSH1 0x2 DUP2 GT ISZERO PUSH2 0xCD3 JUMPI PUSH2 0xCD2 PUSH2 0x165A JUMP JUMPDEST JUMPDEST DUP2 MSTORE PUSH1 0x20 ADD TIMESTAMP DUP2 MSTORE PUSH1 0x20 ADD CALLER PUSH20 0xFFFFFFFFFFFFFFFFFFFFFFFFFFFFFFFFFFFFFFFF AND DUP2 MSTORE PUSH1 0x20 ADD DUP3 DUP2 MSTORE PUSH1 0x20 ADD TIMESTAMP DUP2 MSTORE PUSH1 0x20 ADD PUSH0 ISZERO ISZERO DUP2 MSTORE POP PUSH0 DUP1 DUP5 PUSH20 0xFFFFFFFFFFFFFFFFFFFFFFFFFFFFFFFFFFFFFFFF AND PUSH20 0xFFFFFFFFFFFFFFFFFFFFFFFFFFFFFFFFFFFFFFFF AND DUP2 MSTORE PUSH1 0x20 ADD SWAP1 DUP2 MSTORE PUSH1 0x20 ADD PUSH0 KECCAK256 PUSH0 DUP3 ADD MLOAD DUP2 PUSH0 ADD PUSH0 PUSH2 0x100 EXP DUP2 SLOAD DUP2 PUSH1 0xFF MUL NOT AND SWAP1 DUP4 ISZERO ISZERO MUL OR SWAP1 SSTORE POP PUSH1 0x20 DUP3 ADD MLOAD DUP2 PUSH0 ADD PUSH1 0x1 PUSH2 0x100 EXP DUP2 SLOAD DUP2 PUSH1 0xFF MUL NOT AND SWAP1 DUP4 PUSH1 0x2 DUP2 GT ISZERO PUSH2 0xD8F JUMPI PUSH2 0xD8E PUSH2 0x165A JUMP JUMPDEST JUMPDEST MUL OR SWAP1 SSTORE POP PUSH1 0x40 DUP3 ADD MLOAD DUP2 PUSH1 0x1 ADD SSTORE PUSH1 0x60 DUP3 ADD MLOAD DUP2 PUSH1 0x2 ADD PUSH0 PUSH2 0x100 EXP DUP2 SLOAD DUP2 PUSH20 0xFFFFFFFFFFFFFFFFFFFFFFFFFFFFFFFFFFFFFFFF MUL NOT AND SWAP1 DUP4 PUSH20 0xFFFFFFFFFFFFFFFFFFFFFFFFFFFFFFFFFFFFFFFF AND MUL OR SWAP1 SSTORE POP PUSH1 0x80 DUP3 ADD MLOAD DUP2 PUSH1 0x3 ADD SSTORE PUSH1 0xA0 DUP3 ADD MLOAD DUP2 PUSH1 0x4 ADD SSTORE PUSH1 0xC0 DUP3 ADD MLOAD DUP2 PUSH1 0x5 ADD PUSH0 PUSH2 0x100 EXP DUP2 SLOAD DUP2 PUSH1 0xFF MUL NOT AND SWAP1 DUP4 ISZERO ISZERO MUL OR SWAP1 SSTORE POP SWAP1 POP POP DUP2 PUSH20 0xFFFFFFFFFFFFFFFFFFFFFFFFFFFFFFFFFFFFFFFF AND PUSH32 0x32320A8B5AA92C85C34A15ACE73853AB542C9E8A367D1757820878B4D2D01AF5 DUP3 PUSH1 0x40 MLOAD PUSH2 0xE60 SWAP2 SWAP1 PUSH2 0x1E1D JUMP JUMPDEST PUSH1 0x40 MLOAD DUP1 SWAP2 SUB SWAP1 LOG2 POP POP JUMP JUMPDEST PUSH0 PUSH1 0x1 PUSH0 CALLER PUSH20 0xFFFFFFFFFFFFFFFFFFFFFFFFFFFFFFFFFFFFFFFF AND PUSH20 0xFFFFFFFFFFFFFFFFFFFFFFFFFFFFFFFFFFFFFFFF AND DUP2 MSTORE PUSH1 0x20 ADD SWAP1 DUP2 MSTORE PUSH1 0x20 ADD PUSH0 KECCAK256 PUSH0 SWAP1 SLOAD SWAP1 PUSH2 0x100 EXP SWAP1 DIV PUSH1 0xFF AND PUSH2 0xEF6 JUMPI PUSH1 0x40 MLOAD PUSH32 0x8C379A000000000000000000000000000000000000000000000000000000000 DUP2 MSTORE PUSH1 0x4 ADD PUSH2 0xEED SWAP1 PUSH2 0x1C22 JUMP JUMPDEST PUSH1 0x40 MLOAD DUP1 SWAP2 SUB SWAP1 REVERT JUMPDEST PUSH0 PUSH1 0x2 DUP2 GT ISZERO PUSH2 0xF09 JUMPI PUSH2 0xF08 PUSH2 0x165A JUMP JUMPDEST JUMPDEST PUSH2 0xF12 DUP4 PUSH2 0x3AB JUMP JUMPDEST PUSH1 0x2 DUP2 GT ISZERO PUSH2 0xF24 JUMPI PUSH2 0xF23 PUSH2 0x165A JUMP JUMPDEST JUMPDEST SUB PUSH2 0xF31 JUMPI PUSH0 SWAP1 POP PUSH2 0x101F JUMP JUMPDEST PUSH1 0x1 PUSH1 0x2 DUP2 GT ISZERO PUSH2 0xF45 JUMPI PUSH2 0xF44 PUSH2 0x165A JUMP JUMPDEST JUMPDEST PUSH2 0xF4E DUP4 PUSH2 0x3AB JUMP JUMPDEST PUSH1 0x2 DUP2 GT ISZERO PUSH2 0xF60 JUMPI PUSH2 0xF5F PUSH2 0x165A JUMP JUMPDEST JUMPDEST SUB PUSH2 0xFC4 JUMPI DUP2 PUSH20 0xFFFFFFFFFFFFFFFFFFFFFFFFFFFFFFFFFFFFFFFF AND PUSH32 0xB65B77A7FE4A188850B6664C64D88F23842FF4597A92A5F9A01D6C029ABE9F6C PUSH2 0xFA6 DUP5 PUSH2 0x3AB JUMP JUMPDEST PUSH1 0x40 MLOAD PUSH2 0xFB3 SWAP2 SWAP1 PUSH2 0x16CD JUMP JUMPDEST PUSH1 0x40 MLOAD DUP1 SWAP2 SUB SWAP1 LOG2 PUSH1 0x1 SWAP1 POP PUSH2 0x101F JUMP JUMPDEST DUP2 PUSH20 0xFFFFFFFFFFFFFFFFFFFFFFFFFFFFFFFFFFFFFFFF AND PUSH32 0xB65B77A7FE4A188850B6664C64D88F23842FF4597A92A5F9A01D6C029ABE9F6C PUSH2 0x1005 DUP5 PUSH2 0x3AB JUMP JUMPDEST PUSH1 0x40 MLOAD PUSH2 0x1012 SWAP2 SWAP1 PUSH2 0x16CD JUMP JUMPDEST PUSH1 0x40 MLOAD DUP1 SWAP2 SUB SWAP1 LOG2 PUSH1 0x1 SWAP1 POP JUMPDEST SWAP2 SWAP1 POP JUMP JUMPDEST PUSH1 0x1 PUSH0 CALLER PUSH20 0xFFFFFFFFFFFFFFFFFFFFFFFFFFFFFFFFFFFFFFFF AND PUSH20 0xFFFFFFFFFFFFFFFFFFFFFFFFFFFFFFFFFFFFFFFF AND DUP2 MSTORE PUSH1 0x20 ADD SWAP1 DUP2 MSTORE PUSH1 0x20 ADD PUSH0 KECCAK256 PUSH0 SWAP1 SLOAD SWAP1 PUSH2 0x100 EXP SWAP1 DIV PUSH1 0xFF AND PUSH2 0x10AD JUMPI PUSH1 0x40 MLOAD PUSH32 0x8C379A000000000000000000000000000000000000000000000000000000000 DUP2 MSTORE PUSH1 0x4 ADD PUSH2 0x10A4 SWAP1 PUSH2 0x1C22 JUMP JUMPDEST PUSH1 0x40 MLOAD DUP1 SWAP2 SUB SWAP1 REVERT JUMPDEST PUSH1 0x40 MLOAD DUP1 PUSH1 0xE0 ADD PUSH1 0x40 MSTORE DUP1 DUP4 ISZERO ISZERO DUP2 MSTORE PUSH1 0x20 ADD PUSH2 0x10C9 DUP6 PUSH2 0x3AB JUMP JUMPDEST PUSH1 0x2 DUP2 GT ISZERO PUSH2 0x10DB JUMPI PUSH2 0x10DA PUSH2 0x165A JUMP JUMPDEST JUMPDEST DUP2 MSTORE PUSH1 0x20 ADD TIMESTAMP DUP2 MSTORE PUSH1 0x20 ADD CALLER PUSH20 0xFFFFFFFFFFFFFFFFFFFFFFFFFFFFFFFFFFFFFFFF AND DUP2 MSTORE PUSH1 0x20 ADD PUSH0 DUP1 DUP7 PUSH20 0xFFFFFFFFFFFFFFFFFFFFFFFFFFFFFFFFFFFFFFFF AND PUSH20 0xFFFFFFFFFFFFFFFFFFFFFFFFFFFFFFFFFFFFFFFF AND DUP2 MSTORE PUSH1 0x20 ADD SWAP1 DUP2 MSTORE PUSH1 0x20 ADD PUSH0 KECCAK256 PUSH1 0x3 ADD SLOAD DUP2 MSTORE PUSH1 0x20 ADD TIMESTAMP DUP2 MSTORE PUSH1 0x20 ADD DUP3 ISZERO ISZERO DUP2 MSTORE POP PUSH0 DUP1 DUP6 PUSH20 0xFFFFFFFFFFFFFFFFFFFFFFFFFFFFFFFFFFFFFFFF AND PUSH20 0xFFFFFFFFFFFFFFFFFFFFFFFFFFFFFFFFFFFFFFFF AND DUP2 MSTORE PUSH1 0x20 ADD SWAP1 DUP2 MSTORE PUSH1 0x20 ADD PUSH0 KECCAK256 PUSH0 DUP3 ADD MLOAD DUP2 PUSH0 ADD PUSH0 PUSH2 0x100 EXP DUP2 SLOAD DUP2 PUSH1 0xFF MUL NOT AND SWAP1 DUP4 ISZERO ISZERO MUL OR SWAP1 SSTORE POP PUSH1 0x20 DUP3 ADD MLOAD DUP2 PUSH0 ADD PUSH1 0x1 PUSH2 0x100 EXP DUP2 SLOAD DUP2 PUSH1 0xFF MUL NOT AND SWAP1 DUP4 PUSH1 0x2 DUP2 GT ISZERO PUSH2 0x11D6 JUMPI PUSH2 0x11D5 PUSH2 0x165A JUMP JUMPDEST JUMPDEST MUL OR SWAP1 SSTORE POP PUSH1 0x40 DUP3 ADD MLOAD DUP2 PUSH1 0x1 ADD SSTORE PUSH1 0x60 DUP3 ADD MLOAD DUP2 PUSH1 0x2 ADD PUSH0 PUSH2 0x100 EXP DUP2 SLOAD DUP2 PUSH20 0xFFFFFFFFFFFFFFFFFFFFFFFFFFFFFFFFFFFFFFFF MUL NOT AND SWAP1 DUP4 PUSH20 0xFFFFFFFFFFFFFFFFFFFFFFFFFFFFFFFFFFFFFFFF AND MUL OR SWAP1 SSTORE POP PUSH1 0x80 DUP3 ADD MLOAD DUP2 PUSH1 0x3 ADD SSTORE PUSH1 0xA0 DUP3 ADD MLOAD DUP2 PUSH1 0x4 ADD SSTORE PUSH1 0xC0 DUP3 ADD MLOAD DUP2 PUSH1 0x5 ADD PUSH0 PUSH2 0x100 EXP DUP2 SLOAD DUP2 PUSH1 0xFF MUL NOT AND SWAP1 DUP4 ISZERO ISZERO MUL OR SWAP1 SSTORE POP SWAP1 POP POP DUP3 PUSH20 0xFFFFFFFFFFFFFFFFFFFFFFFFFFFFFFFFFFFFFFFF AND PUSH32 0xF2097E6B3C73B8BDEB108282178983128A8F5D1B70BF2DC985AD46D5CBCFF0CF DUP4 PUSH2 0x12A3 DUP7 PUSH2 0x3AB JUMP JUMPDEST PUSH0 DUP1 DUP9 PUSH20 0xFFFFFFFFFFFFFFFFFFFFFFFFFFFFFFFFFFFFFFFF AND PUSH20 0xFFFFFFFFFFFFFFFFFFFFFFFFFFFFFFFFFFFFFFFF AND DUP2 MSTORE PUSH1 0x20 ADD SWAP1 DUP2 MSTORE PUSH1 0x20 ADD PUSH0 KECCAK256 PUSH1 0x3 ADD SLOAD DUP6 PUSH1 0x40 MLOAD PUSH2 0x12F4 SWAP5 SWAP4 SWAP3 SWAP2 SWAP1 PUSH2 0x1E36 JUMP JUMPDEST PUSH1 0x40 MLOAD DUP1 SWAP2 SUB SWAP1 LOG2 POP POP POP JUMP JUMPDEST PUSH0 PUSH1 0x1E DUP3 LT ISZERO PUSH2 0x1313 JUMPI PUSH0 SWAP1 POP PUSH2 0x1329 JUMP JUMPDEST PUSH1 0x46 DUP3 GT PUSH2 0x1324 JUMPI PUSH1 0x1 SWAP1 POP PUSH2 0x1329 JUMP JUMPDEST PUSH1 0x2 SWAP1 POP JUMPDEST SWAP2 SWAP1 POP JUMP JUMPDEST PUSH1 0x3 PUSH0 SWAP1 SLOAD SWAP1 PUSH2 0x100 EXP SWAP1 DIV PUSH20 0xFFFFFFFFFFFFFFFFFFFFFFFFFFFFFFFFFFFFFFFF AND PUSH20 0xFFFFFFFFFFFFFFFFFFFFFFFFFFFFFFFFFFFFFFFF AND CALLER PUSH20 0xFFFFFFFFFFFFFFFFFFFFFFFFFFFFFFFFFFFFFFFF AND EQ PUSH2 0x13BD JUMPI PUSH1 0x40 MLOAD PUSH32 0x8C379A000000000000000000000000000000000000000000000000000000000 DUP2 MSTORE PUSH1 0x4 ADD PUSH2 0x13B4 SWAP1 PUSH2 0x1B94 JUMP JUMPDEST PUSH1 0x40 MLOAD DUP1 SWAP2 SUB SWAP1 REVERT JUMPDEST PUSH1 0x1 DUP1 PUSH0 DUP4 PUSH20 0xFFFFFFFFFFFFFFFFFFFFFFFFFFFFFFFFFFFFFFFF AND PUSH20 0xFFFFFFFFFFFFFFFFFFFFFFFFFFFFFFFFFFFFFFFF AND DUP2 MSTORE PUSH1 0x20 ADD SWAP1 DUP2 MSTORE PUSH1 0x20 ADD PUSH0 KECCAK256 PUSH0 PUSH2 0x100 EXP DUP2 SLOAD DUP2 PUSH1 0xFF MUL NOT AND SWAP1 DUP4 ISZERO ISZERO MUL OR SWAP1 SSTORE POP DUP1 PUSH20 0xFFFFFFFFFFFFFFFFFFFFFFFFFFFFFFFFFFFFFFFF AND PUSH32 0x6D05492139C5EA989514A5D2150C028041E5C087E2A39967F67DC7D2655ADB81 PUSH1 0x40 MLOAD PUSH1 0x40 MLOAD DUP1 SWAP2 SUB SWAP1 LOG2 POP JUMP JUMPDEST PUSH0 DUP1 PUSH0 DUP1 PUSH0 DUP1 PUSH0 DUP1 PUSH0 DUP1 DUP11 PUSH20 0xFFFFFFFFFFFFFFFFFFFFFFFFFFFFFFFFFFFFFFFF AND PUSH20 0xFFFFFFFFFFFFFFFFFFFFFFFFFFFFFFFFFFFFFFFF AND DUP2 MSTORE PUSH1 0x20 ADD SWAP1 DUP2 MSTORE PUSH1 0x20 ADD PUSH0 KECCAK256 PUSH1 0x40 MLOAD DUP1 PUSH1 0xE0 ADD PUSH1 0x40 MSTORE SWAP1 DUP2 PUSH0 DUP3 ADD PUSH0 SWAP1 SLOAD SWAP1 PUSH2 0x100 EXP SWAP1 DIV PUSH1 0xFF AND ISZERO ISZERO ISZERO ISZERO DUP2 MSTORE PUSH1 0x20 ADD PUSH0 DUP3 ADD PUSH1 0x1 SWAP1 SLOAD SWAP1 PUSH2 0x100 EXP SWAP1 DIV PUSH1 0xFF AND PUSH1 0x2 DUP2 GT ISZERO PUSH2 0x14E3 JUMPI PUSH2 0x14E2 PUSH2 0x165A JUMP JUMPDEST JUMPDEST PUSH1 0x2 DUP2 GT ISZERO PUSH2 0x14F5 JUMPI PUSH2 0x14F4 PUSH2 0x165A JUMP JUMPDEST JUMPDEST DUP2 MSTORE PUSH1 0x20 ADD PUSH1 0x1 DUP3 ADD SLOAD DUP2 MSTORE PUSH1 0x20 ADD PUSH1 0x2 DUP3 ADD PUSH0 SWAP1 SLOAD SWAP1 PUSH2 0x100 EXP SWAP1 DIV PUSH20 0xFFFFFFFFFFFFFFFFFFFFFFFFFFFFFFFFFFFFFFFF AND PUSH20 0xFFFFFFFFFFFFFFFFFFFFFFFFFFFFFFFFFFFFFFFF AND PUSH20 0xFFFFFFFFFFFFFFFFFFFFFFFFFFFFFFFFFFFFFFFF AND DUP2 MSTORE PUSH1 0x20 ADD PUSH1 0x3 DUP3 ADD SLOAD DUP2 MSTORE PUSH1 0x20 ADD PUSH1 0x4 DUP3 ADD SLOAD DUP2 MSTORE PUSH1 0x20 ADD PUSH1 0x5 DUP3 ADD PUSH0 SWAP1 SLOAD SWAP1 PUSH2 0x100 EXP SWAP1 DIV PUSH1 0xFF AND ISZERO ISZERO ISZERO ISZERO DUP2 MSTORE POP POP SWAP1 POP DUP1 PUSH0 ADD MLOAD DUP2 PUSH1 0x20 ADD MLOAD DUP3 PUSH1 0x40 ADD MLOAD DUP4 PUSH1 0x60 ADD MLOAD DUP5 PUSH1 0x80 ADD MLOAD DUP6 PUSH1 0xC0 ADD MLOAD DUP7 PUSH1 0xA0 ADD MLOAD SWAP8 POP SWAP8 POP SWAP8 POP SWAP8 POP SWAP8 POP SWAP8 POP SWAP8 POP POP SWAP2 SWAP4 SWAP6 SWAP8 SWAP1 SWAP3 SWAP5 SWAP7 POP JUMP JUMPDEST PUSH0 PUSH1 0x40 MLOAD SWAP1 POP SWAP1 JUMP JUMPDEST PUSH0 DUP1 REVERT JUMPDEST PUSH0 DUP1 REVERT JUMPDEST PUSH0 PUSH20 0xFFFFFFFFFFFFFFFFFFFFFFFFFFFFFFFFFFFFFFFF DUP3 AND SWAP1 POP SWAP2 SWAP1 POP JUMP JUMPDEST PUSH0 PUSH2 0x15FE DUP3 PUSH2 0x15D5 JUMP JUMPDEST SWAP1 POP SWAP2 SWAP1 POP JUMP JUMPDEST PUSH2 0x160E DUP2 PUSH2 0x15F4 JUMP JUMPDEST DUP2 EQ PUSH2 0x1618 JUMPI PUSH0 DUP1 REVERT JUMPDEST POP JUMP JUMPDEST PUSH0 DUP2 CALLDATALOAD SWAP1 POP PUSH2 0x1629 DUP2 PUSH2 0x1605 JUMP JUMPDEST SWAP3 SWAP2 POP POP JUMP JUMPDEST PUSH0 PUSH1 0x20 DUP3 DUP5 SUB SLT ISZERO PUSH2 0x1644 JUMPI PUSH2 0x1643 PUSH2 0x15CD JUMP JUMPDEST JUMPDEST PUSH0 PUSH2 0x1651 DUP5 DUP3 DUP6 ADD PUSH2 0x161B JUMP JUMPDEST SWAP2 POP POP SWAP3 SWAP2 POP POP JUMP JUMPDEST PUSH32 0x4E487B7100000000000000000000000000000000000000000000000000000000 PUSH0 MSTORE PUSH1 0x21 PUSH1 0x4 MSTORE PUSH1 0x24 PUSH0 REVERT JUMPDEST PUSH1 0x3 DUP2 LT PUSH2 0x1698 JUMPI PUSH2 0x1697 PUSH2 0x165A JUMP JUMPDEST JUMPDEST POP JUMP JUMPDEST PUSH0 DUP2 SWAP1 POP PUSH2 0x16A8 DUP3 PUSH2 0x1687 JUMP JUMPDEST SWAP2 SWAP1 POP JUMP JUMPDEST PUSH0 PUSH2 0x16B7 DUP3 PUSH2 0x169B JUMP JUMPDEST SWAP1 POP SWAP2 SWAP1 POP JUMP JUMPDEST PUSH2 0x16C7 DUP2 PUSH2 0x16AD JUMP JUMPDEST DUP3 MSTORE POP POP JUMP JUMPDEST PUSH0 PUSH1 0x20 DUP3 ADD SWAP1 POP PUSH2 0x16E0 PUSH0 DUP4 ADD DUP5 PUSH2 0x16BE JUMP JUMPDEST SWAP3 SWAP2 POP POP JUMP JUMPDEST PUSH0 DUP2 ISZERO ISZERO SWAP1 POP SWAP2 SWAP1 POP JUMP JUMPDEST PUSH2 0x16FA DUP2 PUSH2 0x16E6 JUMP JUMPDEST DUP3 MSTORE POP POP JUMP JUMPDEST PUSH0 DUP2 SWAP1 POP SWAP2 SWAP1 POP JUMP JUMPDEST PUSH2 0x1712 DUP2 PUSH2 0x1700 JUMP JUMPDEST DUP3 MSTORE POP POP JUMP JUMPDEST PUSH2 0x1721 DUP2 PUSH2 0x15F4 JUMP JUMPDEST DUP3 MSTORE POP POP JUMP JUMPDEST PUSH0 PUSH1 0xE0 DUP3 ADD SWAP1 POP PUSH2 0x173A PUSH0 DUP4 ADD DUP11 PUSH2 0x16F1 JUMP JUMPDEST PUSH2 0x1747 PUSH1 0x20 DUP4 ADD DUP10 PUSH2 0x16BE JUMP JUMPDEST PUSH2 0x1754 PUSH1 0x40 DUP4 ADD DUP9 PUSH2 0x1709 JUMP JUMPDEST PUSH2 0x1761 PUSH1 0x60 DUP4 ADD DUP8 PUSH2 0x1718 JUMP JUMPDEST PUSH2 0x176E PUSH1 0x80 DUP4 ADD DUP7 PUSH2 0x1709 JUMP JUMPDEST PUSH2 0x177B PUSH1 0xA0 DUP4 ADD DUP6 PUSH2 0x1709 JUMP JUMPDEST PUSH2 0x1788 PUSH1 0xC0 DUP4 ADD DUP5 PUSH2 0x16F1 JUMP JUMPDEST SWAP9 SWAP8 POP POP POP POP POP POP POP POP JUMP JUMPDEST PUSH2 0x179D DUP2 PUSH2 0x16E6 JUMP JUMPDEST DUP2 EQ PUSH2 0x17A7 JUMPI PUSH0 DUP1 REVERT JUMPDEST POP JUMP JUMPDEST PUSH0 DUP2 CALLDATALOAD SWAP1 POP PUSH2 0x17B8 DUP2 PUSH2 0x1794 JUMP JUMPDEST SWAP3 SWAP2 POP POP JUMP JUMPDEST PUSH0 DUP1 PUSH1 0x40 DUP4 DUP6 SUB SLT ISZERO PUSH2 0x17D4 JUMPI PUSH2 0x17D3 PUSH2 0x15CD JUMP JUMPDEST JUMPDEST PUSH0 PUSH2 0x17E1 DUP6 DUP3 DUP7 ADD PUSH2 0x161B JUMP JUMPDEST SWAP3 POP POP PUSH1 0x20 PUSH2 0x17F2 DUP6 DUP3 DUP7 ADD PUSH2 0x17AA JUMP JUMPDEST SWAP2 POP POP SWAP3 POP SWAP3 SWAP1 POP JUMP JUMPDEST PUSH0 DUP1 REVERT JUMPDEST PUSH0 DUP1 REVERT JUMPDEST PUSH0 PUSH1 0x1F NOT PUSH1 0x1F DUP4 ADD AND SWAP1 POP SWAP2 SWAP1 POP JUMP JUMPDEST PUSH32 0x4E487B7100000000000000000000000000000000000000000000000000000000 PUSH0 MSTORE PUSH1 0x41 PUSH1 0x4 MSTORE PUSH1 0x24 PUSH0 REVERT JUMPDEST PUSH2 0x184A DUP3 PUSH2 0x1804 JUMP JUMPDEST DUP2 ADD DUP2 DUP2 LT PUSH8 0xFFFFFFFFFFFFFFFF DUP3 GT OR ISZERO PUSH2 0x1869 JUMPI PUSH2 0x1868 PUSH2 0x1814 JUMP JUMPDEST JUMPDEST DUP1 PUSH1 0x40 MSTORE POP POP POP JUMP JUMPDEST PUSH0 PUSH2 0x187B PUSH2 0x15C4 JUMP JUMPDEST SWAP1 POP PUSH2 0x1887 DUP3 DUP3 PUSH2 0x1841 JUMP JUMPDEST SWAP2 SWAP1 POP JUMP JUMPDEST PUSH0 PUSH8 0xFFFFFFFFFFFFFFFF DUP3 GT ISZERO PUSH2 0x18A6 JUMPI PUSH2 0x18A5 PUSH2 0x1814 JUMP JUMPDEST JUMPDEST PUSH2 0x18AF DUP3 PUSH2 0x1804 JUMP JUMPDEST SWAP1 POP PUSH1 0x20 DUP2 ADD SWAP1 POP SWAP2 SWAP1 POP JUMP JUMPDEST DUP3 DUP2 DUP4 CALLDATACOPY PUSH0 DUP4 DUP4 ADD MSTORE POP POP POP JUMP JUMPDEST PUSH0 PUSH2 0x18DC PUSH2 0x18D7 DUP5 PUSH2 0x188C JUMP JUMPDEST PUSH2 0x1872 JUMP JUMPDEST SWAP1 POP DUP3 DUP2 MSTORE PUSH1 0x20 DUP2 ADD DUP5 DUP5 DUP5 ADD GT ISZERO PUSH2 0x18F8 JUMPI PUSH2 0x18F7 PUSH2 0x1800 JUMP JUMPDEST JUMPDEST PUSH2 0x1903 DUP5 DUP3 DUP6 PUSH2 0x18BC JUMP JUMPDEST POP SWAP4 SWAP3 POP POP POP JUMP JUMPDEST PUSH0 DUP3 PUSH1 0x1F DUP4 ADD SLT PUSH2 0x191F JUMPI PUSH2 0x191E PUSH2 0x17FC JUMP JUMPDEST JUMPDEST DUP2 CALLDATALOAD PUSH2 0x192F DUP5 DUP3 PUSH1 0x20 DUP7 ADD PUSH2 0x18CA JUMP JUMPDEST SWAP2 POP POP SWAP3 SWAP2 POP POP JUMP JUMPDEST PUSH0 DUP1 PUSH1 0x40 DUP4 DUP6 SUB SLT ISZERO PUSH2 0x194E JUMPI PUSH2 0x194D PUSH2 0x15CD JUMP JUMPDEST JUMPDEST PUSH0 PUSH2 0x195B DUP6 DUP3 DUP7 ADD PUSH2 0x161B JUMP JUMPDEST SWAP3 POP POP PUSH1 0x20 DUP4 ADD CALLDATALOAD PUSH8 0xFFFFFFFFFFFFFFFF DUP2 GT ISZERO PUSH2 0x197C JUMPI PUSH2 0x197B PUSH2 0x15D1 JUMP JUMPDEST JUMPDEST PUSH2 0x1988 DUP6 DUP3 DUP7 ADD PUSH2 0x190B JUMP JUMPDEST SWAP2 POP POP SWAP3 POP SWAP3 SWAP1 POP JUMP JUMPDEST PUSH0 PUSH1 0x20 DUP3 ADD SWAP1 POP PUSH2 0x19A5 PUSH0 DUP4 ADD DUP5 PUSH2 0x16F1 JUMP JUMPDEST SWAP3 SWAP2 POP POP JUMP JUMPDEST PUSH0 PUSH1 0x20 DUP3 ADD SWAP1 POP PUSH2 0x19BE PUSH0 DUP4 ADD DUP5 PUSH2 0x1718 JUMP JUMPDEST SWAP3 SWAP2 POP POP JUMP JUMPDEST PUSH2 0x19CD DUP2 PUSH2 0x1700 JUMP JUMPDEST DUP2 EQ PUSH2 0x19D7 JUMPI PUSH0 DUP1 REVERT JUMPDEST POP JUMP JUMPDEST PUSH0 DUP2 CALLDATALOAD SWAP1 POP PUSH2 0x19E8 DUP2 PUSH2 0x19C4 JUMP JUMPDEST SWAP3 SWAP2 POP POP JUMP JUMPDEST PUSH0 DUP1 PUSH1 0x40 DUP4 DUP6 SUB SLT ISZERO PUSH2 0x1A04 JUMPI PUSH2 0x1A03 PUSH2 0x15CD JUMP JUMPDEST JUMPDEST PUSH0 PUSH2 0x1A11 DUP6 DUP3 DUP7 ADD PUSH2 0x161B JUMP JUMPDEST SWAP3 POP POP PUSH1 0x20 PUSH2 0x1A22 DUP6 DUP3 DUP7 ADD PUSH2 0x19DA JUMP JUMPDEST SWAP2 POP POP SWAP3 POP SWAP3 SWAP1 POP JUMP JUMPDEST PUSH0 DUP1 PUSH0 PUSH1 0x60 DUP5 DUP7 SUB SLT ISZERO PUSH2 0x1A43 JUMPI PUSH2 0x1A42 PUSH2 0x15CD JUMP JUMPDEST JUMPDEST PUSH0 PUSH2 0x1A50 DUP7 DUP3 DUP8 ADD PUSH2 0x161B JUMP JUMPDEST SWAP4 POP POP PUSH1 0x20 PUSH2 0x1A61 DUP7 DUP3 DUP8 ADD PUSH2 0x17AA JUMP JUMPDEST SWAP3 POP POP PUSH1 0x40 PUSH2 0x1A72 DUP7 DUP3 DUP8 ADD PUSH2 0x17AA JUMP JUMPDEST SWAP2 POP POP SWAP3 POP SWAP3 POP SWAP3 JUMP JUMPDEST PUSH0 PUSH1 0x20 DUP3 DUP5 SUB SLT ISZERO PUSH2 0x1A91 JUMPI PUSH2 0x1A90 PUSH2 0x15CD JUMP JUMPDEST JUMPDEST PUSH0 PUSH2 0x1A9E DUP5 DUP3 DUP6 ADD PUSH2 0x19DA JUMP JUMPDEST SWAP2 POP POP SWAP3 SWAP2 POP POP JUMP JUMPDEST PUSH0 PUSH1 0xE0 DUP3 ADD SWAP1 POP PUSH2 0x1ABA PUSH0 DUP4 ADD DUP11 PUSH2 0x16F1 JUMP JUMPDEST PUSH2 0x1AC7 PUSH1 0x20 DUP4 ADD DUP10 PUSH2 0x16BE JUMP JUMPDEST PUSH2 0x1AD4 PUSH1 0x40 DUP4 ADD DUP9 PUSH2 0x1709 JUMP JUMPDEST PUSH2 0x1AE1 PUSH1 0x60 DUP4 ADD DUP8 PUSH2 0x1718 JUMP JUMPDEST PUSH2 0x1AEE PUSH1 0x80 DUP4 ADD DUP7 PUSH2 0x1709 JUMP JUMPDEST PUSH2 0x1AFB PUSH1 0xA0 DUP4 ADD DUP6 PUSH2 0x16F1 JUMP JUMPDEST PUSH2 0x1B08 PUSH1 0xC0 DUP4 ADD DUP5 PUSH2 0x1709 JUMP JUMPDEST SWAP9 SWAP8 POP POP POP POP POP POP POP POP JUMP JUMPDEST PUSH0 DUP3 DUP3 MSTORE PUSH1 0x20 DUP3 ADD SWAP1 POP SWAP3 SWAP2 POP POP JUMP JUMPDEST PUSH32 0x4F6E6C79206F776E65722063616E20706572666F726D20746869732061637469 PUSH0 DUP3 ADD MSTORE PUSH32 0x6F6E000000000000000000000000000000000000000000000000000000000000 PUSH1 0x20 DUP3 ADD MSTORE POP JUMP JUMPDEST PUSH0 PUSH2 0x1B7E PUSH1 0x22 DUP4 PUSH2 0x1B14 JUMP JUMPDEST SWAP2 POP PUSH2 0x1B89 DUP3 PUSH2 0x1B24 JUMP JUMPDEST PUSH1 0x40 DUP3 ADD SWAP1 POP SWAP2 SWAP1 POP JUMP JUMPDEST PUSH0 PUSH1 0x20 DUP3 ADD SWAP1 POP DUP2 DUP2 SUB PUSH0 DUP4 ADD MSTORE PUSH2 0x1BAB DUP2 PUSH2 0x1B72 JUMP JUMPDEST SWAP1 POP SWAP2 SWAP1 POP JUMP JUMPDEST PUSH32 0x4F6E6C7920617574686F72697A6564207665726966696572732063616E207065 PUSH0 DUP3 ADD MSTORE PUSH32 0x72666F726D207468697320616374696F6E000000000000000000000000000000 PUSH1 0x20 DUP3 ADD MSTORE POP JUMP JUMPDEST PUSH0 PUSH2 0x1C0C PUSH1 0x31 DUP4 PUSH2 0x1B14 JUMP JUMPDEST SWAP2 POP PUSH2 0x1C17 DUP3 PUSH2 0x1BB2 JUMP JUMPDEST PUSH1 0x40 DUP3 ADD SWAP1 POP SWAP2 SWAP1 POP JUMP JUMPDEST PUSH0 PUSH1 0x20 DUP3 ADD SWAP1 POP DUP2 DUP2 SUB PUSH0 DUP4 ADD MSTORE PUSH2 0x1C39 DUP2 PUSH2 0x1C00 JUMP JUMPDEST SWAP1 POP SWAP2 SWAP1 POP JUMP JUMPDEST PUSH0 DUP2 MLOAD SWAP1 POP SWAP2 SWAP1 POP JUMP JUMPDEST PUSH0 DUP2 SWAP1 POP SWAP3 SWAP2 POP POP JUMP JUMPDEST DUP3 DUP2 DUP4 MCOPY PUSH0 DUP4 DUP4 ADD MSTORE POP POP POP JUMP JUMPDEST PUSH0 PUSH2 0x1C6C DUP3 PUSH2 0x1C40 JUMP JUMPDEST PUSH2 0x1C76 DUP2 DUP6 PUSH2 0x1C4A JUMP JUMPDEST SWAP4 POP PUSH2 0x1C86 DUP2 DUP6 PUSH1 0x20 DUP7 ADD PUSH2 0x1C54 JUMP JUMPDEST DUP1 DUP5 ADD SWAP2 POP POP SWAP3 SWAP2 POP POP JUMP JUMPDEST PUSH0 PUSH2 0x1C9D DUP3 DUP5 PUSH2 0x1C62 JUMP JUMPDEST SWAP2 POP DUP2 SWAP1 POP SWAP3 SWAP2 POP POP JUMP JUMPDEST PUSH0 PUSH2 0x1CB2 DUP3 PUSH2 0x1C40 JUMP JUMPDEST PUSH2 0x1CBC DUP2 DUP6 PUSH2 0x1B14 JUMP JUMPDEST SWAP4 POP PUSH2 0x1CCC DUP2 DUP6 PUSH1 0x20 DUP7 ADD PUSH2 0x1C54 JUMP JUMPDEST PUSH2 0x1CD5 DUP2 PUSH2 0x1804 JUMP JUMPDEST DUP5 ADD SWAP2 POP POP SWAP3 SWAP2 POP POP JUMP JUMPDEST PUSH0 PUSH1 0x20 DUP3 ADD SWAP1 POP DUP2 DUP2 SUB PUSH0 DUP4 ADD MSTORE PUSH2 0x1CF8 DUP2 DUP5 PUSH2 0x1CA8 JUMP JUMPDEST SWAP1 POP SWAP3 SWAP2 POP POP JUMP JUMPDEST PUSH32 0x437573746F6D657220646F65736E74206578697374732E000000000000000000 PUSH0 DUP3 ADD MSTORE POP JUMP JUMPDEST PUSH0 PUSH2 0x1D34 PUSH1 0x17 DUP4 PUSH2 0x1B14 JUMP JUMPDEST SWAP2 POP PUSH2 0x1D3F DUP3 PUSH2 0x1D00 JUMP JUMPDEST PUSH1 0x20 DUP3 ADD SWAP1 POP SWAP2 SWAP1 POP JUMP JUMPDEST PUSH0 PUSH1 0x20 DUP3 ADD SWAP1 POP DUP2 DUP2 SUB PUSH0 DUP4 ADD MSTORE PUSH2 0x1D61 DUP2 PUSH2 0x1D28 JUMP JUMPDEST SWAP1 POP SWAP2 SWAP1 POP JUMP JUMPDEST PUSH32 0x5269736B2073636F7265206D757374206265206265747765656E203020616E64 PUSH0 DUP3 ADD MSTORE PUSH32 0x2031303000000000000000000000000000000000000000000000000000000000 PUSH1 0x20 DUP3 ADD MSTORE POP JUMP JUMPDEST PUSH0 PUSH2 0x1DC2 PUSH1 0x24 DUP4 PUSH2 0x1B14 JUMP JUMPDEST SWAP2 POP PUSH2 0x1DCD DUP3 PUSH2 0x1D68 JUMP JUMPDEST PUSH1 0x40 DUP3 ADD SWAP1 POP SWAP2 SWAP1 POP JUMP JUMPDEST PUSH0 PUSH1 0x20 DUP3 ADD SWAP1 POP DUP2 DUP2 SUB PUSH0 DUP4 ADD MSTORE PUSH2 0x1DEF DUP2 PUSH2 0x1DB6 JUMP JUMPDEST SWAP1 POP SWAP2 SWAP1 POP JUMP JUMPDEST PUSH0 PUSH1 0x40 DUP3 ADD SWAP1 POP PUSH2 0x1E09 PUSH0 DUP4 ADD DUP6 PUSH2 0x1709 JUMP JUMPDEST PUSH2 0x1E16 PUSH1 0x20 DUP4 ADD DUP5 PUSH2 0x1709 JUMP JUMPDEST SWAP4 SWAP3 POP POP POP JUMP JUMPDEST PUSH0 PUSH1 0x20 DUP3 ADD SWAP1 POP PUSH2 0x1E30 PUSH0 DUP4 ADD DUP5 PUSH2 0x1709 JUMP JUMPDEST SWAP3 SWAP2 POP POP JUMP JUMPDEST PUSH0 PUSH1 0x80 DUP3 ADD SWAP1 POP PUSH2 0x1E49 PUSH0 DUP4 ADD DUP8 PUSH2 0x16F1 JUMP JUMPDEST PUSH2 0x1E56 PUSH1 0x20 DUP4 ADD DUP7 PUSH2 0x16BE JUMP JUMPDEST PUSH2 0x1E63 PUSH1 0x40 DUP4 ADD DUP6 PUSH2 0x1709 JUMP JUMPDEST PUSH2 0x1E70 PUSH1 0x60 DUP4 ADD DUP5 PUSH2 0x16F1 JUMP JUMPDEST SWAP6 SWAP5 POP POP POP POP POP JUMP INVALID LOG2 PUSH5 0x6970667358 0x22 SLT KECCAK256 MSIZE SWAP5 NOT 0xBA TLOAD SELFBALANCE MLOAD STOP 0xAF ADD 0x2B 0xEF MLOAD NUMBER GASPRICE DUP3 0xE0 PUSH8 0xAE5BB921C7488F89 SWAP7 ADDRESS 0xD3 0xE0 0xFC GASPRICE PUSH5 0x736F6C6343 STOP ADDMOD BYTE STOP CALLER "
				},
				"gasEstimates": {
					"creation": {
						"codeDepositCost": "1571000",
						"executionCost": "25908",
						"totalCost": "1596908"
					},
					"external": {
						"addComplianceOfficer(address)": "28221",
						"createKYC(address,uint256)": "infinite",
						"customerExists(address)": "5133",
						"customers(address)": "infinite",
						"getCustomerKYC(address)": "infinite",
						"getRiskLevel(address)": "3038",
						"isDocumentVerified(address,string)": "infinite",
						"owner()": "2531",
						"removeComplianceOfficer(address)": "28178",
						"requiresReview(address)": "infinite",
						"setProfileStatus(address,bool)": "infinite",
						"setRiskLevel(uint256)": "813",
						"updateKYC(address,bool,bool)": "infinite",
						"updateRiskScore(address,uint256)": "infinite",
						"verifiedDocuments(address,string)": "infinite",
						"verifiers(address)": "2900",
						"verifyDocument(address,string)": "infinite"
					}
				},
				"methodIdentifiers": {
					"addComplianceOfficer(address)": "ccf2258b",
					"createKYC(address,uint256)": "aa7804cd",
					"customerExists(address)": "689b0098",
					"customers(address)": "336989ae",
					"getCustomerKYC(address)": "e527654b",
					"getRiskLevel(address)": "1615f2d4",
					"isDocumentVerified(address,string)": "6e287d98",
					"owner()": "8da5cb5b",
					"removeComplianceOfficer(address)": "29511271",
					"requiresReview(address)": "aa788176",
					"setProfileStatus(address,bool)": "3e8450ce",
					"setRiskLevel(uint256)": "c9882913",
					"updateKYC(address,bool,bool)": "b10261b2",
					"updateRiskScore(address,uint256)": "9ff1192d",
					"verifiedDocuments(address,string)": "a3d4621e",
					"verifiers(address)": "6c824487",
					"verifyDocument(address,string)": "641ee9d5"
				}
			},
			"storageLayout": {
				"storage": [
					{
						"astId": 27,
						"contract": "w10_KYC.sol:KYCRegistry",
						"label": "customers",
						"offset": 0,
						"slot": "0",
						"type": "t_mapping(t_address,t_struct(Customer)18_storage)"
					},
					{
						"astId": 31,
						"contract": "w10_KYC.sol:KYCRegistry",
						"label": "verifiers",
						"offset": 0,
						"slot": "1",
						"type": "t_mapping(t_address,t_bool)"
					},
					{
						"astId": 37,
						"contract": "w10_KYC.sol:KYCRegistry",
						"label": "verifiedDocuments",
						"offset": 0,
						"slot": "2",
						"type": "t_mapping(t_address,t_mapping(t_string_memory_ptr,t_bool))"
					},
					{
						"astId": 39,
						"contract": "w10_KYC.sol:KYCRegistry",
						"label": "owner",
						"offset": 0,
						"slot": "3",
						"type": "t_address"
					}
				],
				"types": {
					"t_address": {
						"encoding": "inplace",
						"label": "address",
						"numberOfBytes": "20"
					},
					"t_bool": {
						"encoding": "inplace",
						"label": "bool",
						"numberOfBytes": "1"
					},
					"t_enum(RiskLevel)22": {
						"encoding": "inplace",
						"label": "enum KYCRegistry.RiskLevel",
						"numberOfBytes": "1"
					},
					"t_mapping(t_address,t_bool)": {
						"encoding": "mapping",
						"key": "t_address",
						"label": "mapping(address => bool)",
						"numberOfBytes": "32",
						"value": "t_bool"
					},
					"t_mapping(t_address,t_mapping(t_string_memory_ptr,t_bool))": {
						"encoding": "mapping",
						"key": "t_address",
						"label": "mapping(address => mapping(string => bool))",
						"numberOfBytes": "32",
						"value": "t_mapping(t_string_memory_ptr,t_bool)"
					},
					"t_mapping(t_address,t_struct(Customer)18_storage)": {
						"encoding": "mapping",
						"key": "t_address",
						"label": "mapping(address => struct KYCRegistry.Customer)",
						"numberOfBytes": "32",
						"value": "t_struct(Customer)18_storage"
					},
					"t_mapping(t_string_memory_ptr,t_bool)": {
						"encoding": "mapping",
						"key": "t_string_memory_ptr",
						"label": "mapping(string => bool)",
						"numberOfBytes": "32",
						"value": "t_bool"
					},
					"t_string_memory_ptr": {
						"encoding": "bytes",
						"label": "string",
						"numberOfBytes": "32"
					},
					"t_struct(Customer)18_storage": {
						"encoding": "inplace",
						"label": "struct KYCRegistry.Customer",
						"members": [
							{
								"astId": 4,
								"contract": "w10_KYC.sol:KYCRegistry",
								"label": "kycStatus",
								"offset": 0,
								"slot": "0",
								"type": "t_bool"
							},
							{
								"astId": 7,
								"contract": "w10_KYC.sol:KYCRegistry",
								"label": "kycLevel",
								"offset": 1,
								"slot": "0",
								"type": "t_enum(RiskLevel)22"
							},
							{
								"astId": 9,
								"contract": "w10_KYC.sol:KYCRegistry",
								"label": "lastUpdated",
								"offset": 0,
								"slot": "1",
								"type": "t_uint256"
							},
							{
								"astId": 11,
								"contract": "w10_KYC.sol:KYCRegistry",
								"label": "verifier",
								"offset": 0,
								"slot": "2",
								"type": "t_address"
							},
							{
								"astId": 13,
								"contract": "w10_KYC.sol:KYCRegistry",
								"label": "riskScore",
								"offset": 0,
								"slot": "3",
								"type": "t_uint256"
							},
							{
								"astId": 15,
								"contract": "w10_KYC.sol:KYCRegistry",
								"label": "lastReviewDate",
								"offset": 0,
								"slot": "4",
								"type": "t_uint256"
							},
							{
								"astId": 17,
								"contract": "w10_KYC.sol:KYCRegistry",
								"label": "isActive",
								"offset": 0,
								"slot": "5",
								"type": "t_bool"
							}
						],
						"numberOfBytes": "192"
					},
					"t_uint256": {
						"encoding": "inplace",
						"label": "uint256",
						"numberOfBytes": "32"
					}
				}
			},
			"userdoc": {
				"kind": "user",
				"methods": {},
				"version": 1
			}
		}
	}
}