{
	"w9_liquidity_lending_pool_hw.sol": {
		"cw9_3_MockLendingPool": {
			"abi": [
				{
					"inputs": [],
					"stateMutability": "nonpayable",
					"type": "constructor"
				},
				{
					"anonymous": false,
					"inputs": [
						{
							"indexed": true,
							"internalType": "address",
							"name": "borrower",
							"type": "address"
						},
						{
							"indexed": false,
							"internalType": "uint256",
							"name": "amount",
							"type": "uint256"
						},
						{
							"indexed": false,
							"internalType": "uint256",
							"name": "collateral",
							"type": "uint256"
						}
					],
					"name": "Borrow",
					"type": "event"
				},
				{
					"anonymous": false,
					"inputs": [
						{
							"indexed": true,
							"internalType": "address",
							"name": "lender",
							"type": "address"
						},
						{
							"indexed": false,
							"internalType": "uint256",
							"name": "amount",
							"type": "uint256"
						}
					],
					"name": "Deposit",
					"type": "event"
				},
				{
					"anonymous": false,
					"inputs": [
						{
							"indexed": true,
							"internalType": "address",
							"name": "distributedTo",
							"type": "address"
						},
						{
							"indexed": false,
							"internalType": "uint256",
							"name": "amount",
							"type": "uint256"
						}
					],
					"name": "FeeDistributed",
					"type": "event"
				},
				{
					"anonymous": false,
					"inputs": [
						{
							"indexed": false,
							"internalType": "uint256",
							"name": "interestAmount",
							"type": "uint256"
						},
						{
							"indexed": false,
							"internalType": "uint256",
							"name": "newTotalLiquidity",
							"type": "uint256"
						},
						{
							"indexed": false,
							"internalType": "uint256",
							"name": "timestamp",
							"type": "uint256"
						}
					],
					"name": "InterestAccrued",
					"type": "event"
				},
				{
					"anonymous": false,
					"inputs": [
						{
							"indexed": true,
							"internalType": "address",
							"name": "borrower",
							"type": "address"
						},
						{
							"indexed": false,
							"internalType": "uint256",
							"name": "collateralSeized",
							"type": "uint256"
						},
						{
							"indexed": false,
							"internalType": "uint256",
							"name": "debtCleared",
							"type": "uint256"
						}
					],
					"name": "Liquidate",
					"type": "event"
				},
				{
					"anonymous": false,
					"inputs": [
						{
							"indexed": true,
							"internalType": "address",
							"name": "borrower",
							"type": "address"
						},
						{
							"indexed": false,
							"internalType": "uint256",
							"name": "loanId",
							"type": "uint256"
						},
						{
							"indexed": false,
							"internalType": "uint256",
							"name": "amount",
							"type": "uint256"
						}
					],
					"name": "LoanRepaid",
					"type": "event"
				},
				{
					"anonymous": false,
					"inputs": [
						{
							"indexed": true,
							"internalType": "address",
							"name": "borrower",
							"type": "address"
						},
						{
							"indexed": false,
							"internalType": "uint256",
							"name": "loanCounter",
							"type": "uint256"
						},
						{
							"indexed": false,
							"internalType": "uint256",
							"name": "amount",
							"type": "uint256"
						}
					],
					"name": "LoanTaken",
					"type": "event"
				},
				{
					"anonymous": false,
					"inputs": [
						{
							"indexed": true,
							"internalType": "address",
							"name": "borrower",
							"type": "address"
						},
						{
							"indexed": false,
							"internalType": "uint256",
							"name": "amount",
							"type": "uint256"
						},
						{
							"indexed": false,
							"internalType": "uint256",
							"name": "collateralReturned",
							"type": "uint256"
						}
					],
					"name": "Repay",
					"type": "event"
				},
				{
					"anonymous": false,
					"inputs": [
						{
							"indexed": true,
							"internalType": "address",
							"name": "withdrawer",
							"type": "address"
						},
						{
							"indexed": false,
							"internalType": "uint256",
							"name": "withdrawAmount",
							"type": "uint256"
						}
					],
					"name": "Withdrawal",
					"type": "event"
				},
				{
					"inputs": [],
					"name": "accrueInterest",
					"outputs": [],
					"stateMutability": "nonpayable",
					"type": "function"
				},
				{
					"inputs": [],
					"name": "accruedReward",
					"outputs": [
						{
							"internalType": "uint256",
							"name": "",
							"type": "uint256"
						}
					],
					"stateMutability": "view",
					"type": "function"
				},
				{
					"inputs": [
						{
							"internalType": "address",
							"name": "",
							"type": "address"
						}
					],
					"name": "borrowings",
					"outputs": [
						{
							"internalType": "uint256",
							"name": "",
							"type": "uint256"
						}
					],
					"stateMutability": "view",
					"type": "function"
				},
				{
					"inputs": [
						{
							"internalType": "address",
							"name": "user",
							"type": "address"
						}
					],
					"name": "calculateFeeShare",
					"outputs": [
						{
							"internalType": "uint256",
							"name": "",
							"type": "uint256"
						}
					],
					"stateMutability": "view",
					"type": "function"
				},
				{
					"inputs": [
						{
							"internalType": "uint256",
							"name": "loanId",
							"type": "uint256"
						}
					],
					"name": "calculateRepaymentAmount",
					"outputs": [
						{
							"internalType": "uint256",
							"name": "",
							"type": "uint256"
						}
					],
					"stateMutability": "view",
					"type": "function"
				},
				{
					"inputs": [
						{
							"internalType": "address",
							"name": "",
							"type": "address"
						}
					],
					"name": "collaterals",
					"outputs": [
						{
							"internalType": "uint256",
							"name": "",
							"type": "uint256"
						}
					],
					"stateMutability": "view",
					"type": "function"
				},
				{
					"inputs": [],
					"name": "contractFeeFromRepayment",
					"outputs": [
						{
							"internalType": "uint256",
							"name": "",
							"type": "uint256"
						}
					],
					"stateMutability": "view",
					"type": "function"
				},
				{
					"inputs": [],
					"name": "deposit",
					"outputs": [],
					"stateMutability": "payable",
					"type": "function"
				},
				{
					"inputs": [
						{
							"internalType": "uint256",
							"name": "",
							"type": "uint256"
						}
					],
					"name": "depositors",
					"outputs": [
						{
							"internalType": "address",
							"name": "",
							"type": "address"
						}
					],
					"stateMutability": "view",
					"type": "function"
				},
				{
					"inputs": [
						{
							"internalType": "address",
							"name": "",
							"type": "address"
						}
					],
					"name": "deposits",
					"outputs": [
						{
							"internalType": "uint256",
							"name": "",
							"type": "uint256"
						}
					],
					"stateMutability": "view",
					"type": "function"
				},
				{
					"inputs": [],
					"name": "distributeFees",
					"outputs": [],
					"stateMutability": "payable",
					"type": "function"
				},
				{
					"inputs": [
						{
							"internalType": "address",
							"name": "account",
							"type": "address"
						}
					],
					"name": "getBalances",
					"outputs": [
						{
							"internalType": "uint256",
							"name": "depositBalance",
							"type": "uint256"
						},
						{
							"internalType": "uint256",
							"name": "borrowBalance",
							"type": "uint256"
						},
						{
							"internalType": "uint256",
							"name": "collateralBalance",
							"type": "uint256"
						}
					],
					"stateMutability": "view",
					"type": "function"
				},
				{
					"inputs": [
						{
							"internalType": "address",
							"name": "borrower",
							"type": "address"
						}
					],
					"name": "getCollateral",
					"outputs": [
						{
							"internalType": "uint256",
							"name": "",
							"type": "uint256"
						}
					],
					"stateMutability": "view",
					"type": "function"
				},
				{
					"inputs": [],
					"name": "getContractBalance",
					"outputs": [
						{
							"internalType": "uint256",
							"name": "",
							"type": "uint256"
						}
					],
					"stateMutability": "view",
					"type": "function"
				},
				{
					"inputs": [],
					"name": "getLiquidityPool",
					"outputs": [
						{
							"internalType": "uint256",
							"name": "",
							"type": "uint256"
						}
					],
					"stateMutability": "view",
					"type": "function"
				},
				{
					"inputs": [],
					"name": "getLiquidityPoolWithLoan",
					"outputs": [
						{
							"internalType": "uint256",
							"name": "",
							"type": "uint256"
						}
					],
					"stateMutability": "view",
					"type": "function"
				},
				{
					"inputs": [
						{
							"internalType": "address",
							"name": "user",
							"type": "address"
						}
					],
					"name": "getUserAccruedFees",
					"outputs": [
						{
							"internalType": "uint256",
							"name": "",
							"type": "uint256"
						}
					],
					"stateMutability": "view",
					"type": "function"
				},
				{
					"inputs": [
						{
							"internalType": "address",
							"name": "a",
							"type": "address"
						}
					],
					"name": "getUserBalance",
					"outputs": [
						{
							"internalType": "uint256",
							"name": "",
							"type": "uint256"
						}
					],
					"stateMutability": "view",
					"type": "function"
				},
				{
					"inputs": [],
					"name": "interestRate",
					"outputs": [
						{
							"internalType": "uint256",
							"name": "",
							"type": "uint256"
						}
					],
					"stateMutability": "view",
					"type": "function"
				},
				{
					"inputs": [],
					"name": "interest_rate",
					"outputs": [
						{
							"internalType": "uint256",
							"name": "",
							"type": "uint256"
						}
					],
					"stateMutability": "view",
					"type": "function"
				},
				{
					"inputs": [
						{
							"internalType": "address",
							"name": "a",
							"type": "address"
						}
					],
					"name": "isDepositor",
					"outputs": [
						{
							"internalType": "bool",
							"name": "",
							"type": "bool"
						}
					],
					"stateMutability": "view",
					"type": "function"
				},
				{
					"inputs": [],
					"name": "lastAccrualTimestamp",
					"outputs": [
						{
							"internalType": "uint256",
							"name": "",
							"type": "uint256"
						}
					],
					"stateMutability": "view",
					"type": "function"
				},
				{
					"inputs": [
						{
							"internalType": "address",
							"name": "borrower",
							"type": "address"
						}
					],
					"name": "liquidate",
					"outputs": [],
					"stateMutability": "nonpayable",
					"type": "function"
				},
				{
					"inputs": [],
					"name": "loanCounter",
					"outputs": [
						{
							"internalType": "uint256",
							"name": "",
							"type": "uint256"
						}
					],
					"stateMutability": "view",
					"type": "function"
				},
				{
					"inputs": [
						{
							"internalType": "uint256",
							"name": "",
							"type": "uint256"
						}
					],
					"name": "loans",
					"outputs": [
						{
							"internalType": "address",
							"name": "borrower",
							"type": "address"
						},
						{
							"internalType": "uint256",
							"name": "loanAmount",
							"type": "uint256"
						},
						{
							"internalType": "uint256",
							"name": "interestRate",
							"type": "uint256"
						},
						{
							"internalType": "uint256",
							"name": "repaymentAmount",
							"type": "uint256"
						},
						{
							"internalType": "uint256",
							"name": "repaymentTimestamp",
							"type": "uint256"
						},
						{
							"internalType": "bool",
							"name": "isRepaid",
							"type": "bool"
						},
						{
							"internalType": "bool",
							"name": "isActive",
							"type": "bool"
						}
					],
					"stateMutability": "view",
					"type": "function"
				},
				{
					"inputs": [],
					"name": "owner",
					"outputs": [
						{
							"internalType": "address",
							"name": "",
							"type": "address"
						}
					],
					"stateMutability": "view",
					"type": "function"
				},
				{
					"inputs": [
						{
							"internalType": "uint256",
							"name": "loanId",
							"type": "uint256"
						}
					],
					"name": "repayLoan",
					"outputs": [],
					"stateMutability": "payable",
					"type": "function"
				},
				{
					"inputs": [
						{
							"internalType": "uint256",
							"name": "loan",
							"type": "uint256"
						}
					],
					"name": "requiredCollateral",
					"outputs": [
						{
							"internalType": "uint256",
							"name": "",
							"type": "uint256"
						}
					],
					"stateMutability": "pure",
					"type": "function"
				},
				{
					"inputs": [
						{
							"internalType": "uint256",
							"name": "loan",
							"type": "uint256"
						}
					],
					"name": "requiredRepaymentAmount",
					"outputs": [
						{
							"internalType": "uint256",
							"name": "",
							"type": "uint256"
						}
					],
					"stateMutability": "view",
					"type": "function"
				},
				{
					"inputs": [
						{
							"internalType": "uint256",
							"name": "amount",
							"type": "uint256"
						},
						{
							"internalType": "uint256",
							"name": "loan_duration",
							"type": "uint256"
						}
					],
					"name": "takeLoan",
					"outputs": [],
					"stateMutability": "payable",
					"type": "function"
				},
				{
					"inputs": [],
					"name": "totalLiquidity",
					"outputs": [
						{
							"internalType": "uint256",
							"name": "",
							"type": "uint256"
						}
					],
					"stateMutability": "view",
					"type": "function"
				},
				{
					"inputs": [
						{
							"internalType": "address",
							"name": "",
							"type": "address"
						},
						{
							"internalType": "uint256",
							"name": "",
							"type": "uint256"
						}
					],
					"name": "userLoans",
					"outputs": [
						{
							"internalType": "uint256",
							"name": "",
							"type": "uint256"
						}
					],
					"stateMutability": "view",
					"type": "function"
				},
				{
					"inputs": [
						{
							"internalType": "uint256",
							"name": "withdrawAmount",
							"type": "uint256"
						}
					],
					"name": "withdraw",
					"outputs": [],
					"stateMutability": "payable",
					"type": "function"
				},
				{
					"stateMutability": "payable",
					"type": "receive"
				}
			],
			"devdoc": {
				"kind": "dev",
				"methods": {},
				"version": 1
			},
			"evm": {
				"assembly": "    /* \"w9_liquidity_lending_pool_hw.sol\":58:13039  contract cw9_3_MockLendingPool {... */\n  mstore(0x40, 0x80)\n    /* \"w9_liquidity_lending_pool_hw.sol\":500:501  5 */\n  0x05\n    /* \"w9_liquidity_lending_pool_hw.sol\":470:501  uint256 public interestRate = 5 */\n  dup1\n  sstore\n    /* \"w9_liquidity_lending_pool_hw.sol\":569:570  5 */\n  0x05\n    /* \"w9_liquidity_lending_pool_hw.sol\":538:570  uint256 public interest_rate = 5 */\n  0x06\n  sstore\n    /* \"w9_liquidity_lending_pool_hw.sol\":1217:1314  constructor() {... */\n  callvalue\n  dup1\n  iszero\n  tag_1\n  jumpi\n  0x00\n  dup1\n  revert\ntag_1:\n  pop\n    /* \"w9_liquidity_lending_pool_hw.sol\":1249:1259  msg.sender */\n  caller\n    /* \"w9_liquidity_lending_pool_hw.sol\":1241:1246  owner */\n  0x01\n  0x00\n    /* \"w9_liquidity_lending_pool_hw.sol\":1241:1259  owner = msg.sender */\n  0x0100\n  exp\n  dup2\n  sload\n  dup2\n  0xffffffffffffffffffffffffffffffffffffffff\n  mul\n  not\n  and\n  swap1\n  dup4\n  0xffffffffffffffffffffffffffffffffffffffff\n  and\n  mul\n  or\n  swap1\n  sstore\n  pop\n    /* \"w9_liquidity_lending_pool_hw.sol\":1292:1307  block.timestamp */\n  timestamp\n    /* \"w9_liquidity_lending_pool_hw.sol\":1269:1289  lastAccrualTimestamp */\n  0x0b\n    /* \"w9_liquidity_lending_pool_hw.sol\":1269:1307  lastAccrualTimestamp = block.timestamp */\n  dup2\n  swap1\n  sstore\n  pop\n    /* \"w9_liquidity_lending_pool_hw.sol\":58:13039  contract cw9_3_MockLendingPool {... */\n  dataSize(sub_0)\n  dup1\n  dataOffset(sub_0)\n  0x00\n  codecopy\n  0x00\n  return\nstop\n\nsub_0: assembly {\n        /* \"w9_liquidity_lending_pool_hw.sol\":58:13039  contract cw9_3_MockLendingPool {... */\n      mstore(0x40, 0x80)\n      jumpi(tag_1, lt(calldatasize, 0x04))\n      shr(0xe0, calldataload(0x00))\n      dup1\n      0xa3183125\n      gt\n      tag_36\n      jumpi\n      dup1\n      0xc84aae17\n      gt\n      tag_37\n      jumpi\n      dup1\n      0xe1ec3c68\n      gt\n      tag_38\n      jumpi\n      dup1\n      0xe1ec3c68\n      eq\n      tag_31\n      jumpi\n      dup1\n      0xe4b2fb79\n      eq\n      tag_32\n      jumpi\n      dup1\n      0xe59c20d0\n      eq\n      tag_33\n      jumpi\n      dup1\n      0xeeb97d3b\n      eq\n      tag_34\n      jumpi\n      dup1\n      0xfc7e286d\n      eq\n      tag_35\n      jumpi\n      jump(tag_2)\n    tag_38:\n      dup1\n      0xc84aae17\n      eq\n      tag_27\n      jumpi\n      dup1\n      0xcbb3d808\n      eq\n      tag_28\n      jumpi\n      dup1\n      0xd0e30db0\n      eq\n      tag_29\n      jumpi\n      dup1\n      0xd8bad5bd\n      eq\n      tag_30\n      jumpi\n      jump(tag_2)\n    tag_37:\n      dup1\n      0xb1197239\n      gt\n      tag_39\n      jumpi\n      dup1\n      0xb1197239\n      eq\n      tag_23\n      jumpi\n      dup1\n      0xb3f54444\n      eq\n      tag_24\n      jumpi\n      dup1\n      0xbb57ad20\n      eq\n      tag_25\n      jumpi\n      dup1\n      0xc0789dcb\n      eq\n      tag_26\n      jumpi\n      jump(tag_2)\n    tag_39:\n      dup1\n      0xa3183125\n      eq\n      tag_19\n      jumpi\n      dup1\n      0xa6afed95\n      eq\n      tag_20\n      jumpi\n      dup1\n      0xab7b1c89\n      eq\n      tag_21\n      jumpi\n      dup1\n      0xabb7bc4a\n      eq\n      tag_22\n      jumpi\n      jump(tag_2)\n    tag_36:\n      dup1\n      0x560c88ed\n      gt\n      tag_40\n      jumpi\n      dup1\n      0x8da5cb5b\n      gt\n      tag_41\n      jumpi\n      dup1\n      0x8da5cb5b\n      eq\n      tag_15\n      jumpi\n      dup1\n      0x95ddbe89\n      eq\n      tag_16\n      jumpi\n      dup1\n      0x96f159ba\n      eq\n      tag_17\n      jumpi\n      dup1\n      0x9b56d6c9\n      eq\n      tag_18\n      jumpi\n      jump(tag_2)\n    tag_41:\n      dup1\n      0x560c88ed\n      eq\n      tag_11\n      jumpi\n      dup1\n      0x6f9fb98a\n      eq\n      tag_12\n      jumpi\n      dup1\n      0x7c3a00fd\n      eq\n      tag_13\n      jumpi\n      dup1\n      0x8393ea5f\n      eq\n      tag_14\n      jumpi\n      jump(tag_2)\n    tag_40:\n      dup1\n      0x34d9289e\n      gt\n      tag_42\n      jumpi\n      dup1\n      0x34d9289e\n      eq\n      tag_7\n      jumpi\n      dup1\n      0x34f93778\n      eq\n      tag_8\n      jumpi\n      dup1\n      0x47734892\n      eq\n      tag_9\n      jumpi\n      dup1\n      0x4ba5e2ce\n      eq\n      tag_10\n      jumpi\n      jump(tag_2)\n    tag_42:\n      dup1\n      0x15770f92\n      eq\n      tag_3\n      jumpi\n      dup1\n      0x2e1a7d4d\n      eq\n      tag_4\n      jumpi\n      dup1\n      0x2f70d1ba\n      eq\n      tag_5\n      jumpi\n      dup1\n      0x2f865568\n      eq\n      tag_6\n      jumpi\n      jump(tag_2)\n    tag_1:\n      jumpi(tag_2, calldatasize)\n      stop\n    tag_2:\n      0x00\n      dup1\n      revert\n        /* \"w9_liquidity_lending_pool_hw.sol\":403:432  uint256 public totalLiquidity */\n    tag_3:\n      callvalue\n      dup1\n      iszero\n      tag_45\n      jumpi\n      0x00\n      dup1\n      revert\n    tag_45:\n      pop\n      tag_46\n      tag_47\n      jump\t// in\n    tag_46:\n      mload(0x40)\n      tag_48\n      swap2\n      swap1\n      tag_49\n      jump\t// in\n    tag_48:\n      mload(0x40)\n      dup1\n      swap2\n      sub\n      swap1\n      return\n        /* \"w9_liquidity_lending_pool_hw.sol\":3009:4006  function withdraw(uint256 withdrawAmount) external payable{... */\n    tag_4:\n      tag_50\n      0x04\n      dup1\n      calldatasize\n      sub\n      dup2\n      add\n      swap1\n      tag_51\n      swap2\n      swap1\n      tag_52\n      jump\t// in\n    tag_51:\n      tag_53\n      jump\t// in\n    tag_50:\n      stop\n        /* \"w9_liquidity_lending_pool_hw.sol\":2458:2732  function isDepositor(address a) public view returns (bool){... */\n    tag_5:\n      callvalue\n      dup1\n      iszero\n      tag_54\n      jumpi\n      0x00\n      dup1\n      revert\n    tag_54:\n      pop\n      tag_55\n      0x04\n      dup1\n      calldatasize\n      sub\n      dup2\n      add\n      swap1\n      tag_56\n      swap2\n      swap1\n      tag_57\n      jump\t// in\n    tag_56:\n      tag_58\n      jump\t// in\n    tag_55:\n      mload(0x40)\n      tag_59\n      swap2\n      swap1\n      tag_60\n      jump\t// in\n    tag_59:\n      mload(0x40)\n      dup1\n      swap2\n      sub\n      swap1\n      return\n        /* \"w9_liquidity_lending_pool_hw.sol\":5673:6464  function liquidate(address borrower) external onlyOwner {... */\n    tag_6:\n      callvalue\n      dup1\n      iszero\n      tag_61\n      jumpi\n      0x00\n      dup1\n      revert\n    tag_61:\n      pop\n      tag_62\n      0x04\n      dup1\n      calldatasize\n      sub\n      dup2\n      add\n      swap1\n      tag_63\n      swap2\n      swap1\n      tag_57\n      jump\t// in\n    tag_63:\n      tag_64\n      jump\t// in\n    tag_62:\n      stop\n        /* \"w9_liquidity_lending_pool_hw.sol\":577:603  uint256 public loanCounter */\n    tag_7:\n      callvalue\n      dup1\n      iszero\n      tag_65\n      jumpi\n      0x00\n      dup1\n      revert\n    tag_65:\n      pop\n      tag_66\n      tag_67\n      jump\t// in\n    tag_66:\n      mload(0x40)\n      tag_68\n      swap2\n      swap1\n      tag_49\n      jump\t// in\n    tag_68:\n      mload(0x40)\n      dup1\n      swap2\n      sub\n      swap1\n      return\n        /* \"w9_liquidity_lending_pool_hw.sol\":10916:11051  function getUserAccruedFees(address user) public view returns (uint256) {... */\n    tag_8:\n      callvalue\n      dup1\n      iszero\n      tag_69\n      jumpi\n      0x00\n      dup1\n      revert\n    tag_69:\n      pop\n      tag_70\n      0x04\n      dup1\n      calldatasize\n      sub\n      dup2\n      add\n      swap1\n      tag_71\n      swap2\n      swap1\n      tag_57\n      jump\t// in\n    tag_71:\n      tag_72\n      jump\t// in\n    tag_70:\n      mload(0x40)\n      tag_73\n      swap2\n      swap1\n      tag_49\n      jump\t// in\n    tag_73:\n      mload(0x40)\n      dup1\n      swap2\n      sub\n      swap1\n      return\n        /* \"w9_liquidity_lending_pool_hw.sol\":12070:12222  function getUserBalance(address a) public view returns (uint256){... */\n    tag_9:\n      callvalue\n      dup1\n      iszero\n      tag_74\n      jumpi\n      0x00\n      dup1\n      revert\n    tag_74:\n      pop\n      tag_75\n      0x04\n      dup1\n      calldatasize\n      sub\n      dup2\n      add\n      swap1\n      tag_76\n      swap2\n      swap1\n      tag_57\n      jump\t// in\n    tag_76:\n      tag_77\n      jump\t// in\n    tag_75:\n      mload(0x40)\n      tag_78\n      swap2\n      swap1\n      tag_49\n      jump\t// in\n    tag_78:\n      mload(0x40)\n      dup1\n      swap2\n      sub\n      swap1\n      return\n        /* \"w9_liquidity_lending_pool_hw.sol\":880:932  uint256 public constant contractFeeFromRepayment = 1 */\n    tag_10:\n      callvalue\n      dup1\n      iszero\n      tag_79\n      jumpi\n      0x00\n      dup1\n      revert\n    tag_79:\n      pop\n      tag_80\n      tag_81\n      jump\t// in\n    tag_80:\n      mload(0x40)\n      tag_82\n      swap2\n      swap1\n      tag_49\n      jump\t// in\n    tag_82:\n      mload(0x40)\n      dup1\n      swap2\n      sub\n      swap1\n      return\n        /* \"w9_liquidity_lending_pool_hw.sol\":12228:12610  function getLiquidityPoolWithLoan() public view returns (uint256) { //Liquidity pool that includes outstanding loan too... */\n    tag_11:\n      callvalue\n      dup1\n      iszero\n      tag_83\n      jumpi\n      0x00\n      dup1\n      revert\n    tag_83:\n      pop\n      tag_84\n      tag_85\n      jump\t// in\n    tag_84:\n      mload(0x40)\n      tag_86\n      swap2\n      swap1\n      tag_49\n      jump\t// in\n    tag_86:\n      mload(0x40)\n      dup1\n      swap2\n      sub\n      swap1\n      return\n        /* \"w9_liquidity_lending_pool_hw.sol\":6594:6701  function getContractBalance() external view returns (uint256) {... */\n    tag_12:\n      callvalue\n      dup1\n      iszero\n      tag_87\n      jumpi\n      0x00\n      dup1\n      revert\n    tag_87:\n      pop\n      tag_88\n      tag_89\n      jump\t// in\n    tag_88:\n      mload(0x40)\n      tag_90\n      swap2\n      swap1\n      tag_49\n      jump\t// in\n    tag_90:\n      mload(0x40)\n      dup1\n      swap2\n      sub\n      swap1\n      return\n        /* \"w9_liquidity_lending_pool_hw.sol\":470:501  uint256 public interestRate = 5 */\n    tag_13:\n      callvalue\n      dup1\n      iszero\n      tag_91\n      jumpi\n      0x00\n      dup1\n      revert\n    tag_91:\n      pop\n      tag_92\n      tag_93\n      jump\t// in\n    tag_92:\n      mload(0x40)\n      tag_94\n      swap2\n      swap1\n      tag_49\n      jump\t// in\n    tag_94:\n      mload(0x40)\n      dup1\n      swap2\n      sub\n      swap1\n      return\n        /* \"w9_liquidity_lending_pool_hw.sol\":846:874  uint256 public accruedReward */\n    tag_14:\n      callvalue\n      dup1\n      iszero\n      tag_95\n      jumpi\n      0x00\n      dup1\n      revert\n    tag_95:\n      pop\n      tag_96\n      tag_97\n      jump\t// in\n    tag_96:\n      mload(0x40)\n      tag_98\n      swap2\n      swap1\n      tag_49\n      jump\t// in\n    tag_98:\n      mload(0x40)\n      dup1\n      swap2\n      sub\n      swap1\n      return\n        /* \"w9_liquidity_lending_pool_hw.sol\":215:235  address public owner */\n    tag_15:\n      callvalue\n      dup1\n      iszero\n      tag_99\n      jumpi\n      0x00\n      dup1\n      revert\n    tag_99:\n      pop\n      tag_100\n      tag_101\n      jump\t// in\n    tag_100:\n      mload(0x40)\n      tag_102\n      swap2\n      swap1\n      tag_103\n      jump\t// in\n    tag_102:\n      mload(0x40)\n      dup1\n      swap2\n      sub\n      swap1\n      return\n        /* \"w9_liquidity_lending_pool_hw.sol\":11969:12064  function getLiquidityPool() public view returns (uint256){... */\n    tag_16:\n      callvalue\n      dup1\n      iszero\n      tag_104\n      jumpi\n      0x00\n      dup1\n      revert\n    tag_104:\n      pop\n      tag_105\n      tag_106\n      jump\t// in\n    tag_105:\n      mload(0x40)\n      tag_107\n      swap2\n      swap1\n      tag_49\n      jump\t// in\n    tag_107:\n      mload(0x40)\n      dup1\n      swap2\n      sub\n      swap1\n      return\n        /* \"w9_liquidity_lending_pool_hw.sol\":320:365  mapping(address => uint256) public borrowings */\n    tag_17:\n      callvalue\n      dup1\n      iszero\n      tag_108\n      jumpi\n      0x00\n      dup1\n      revert\n    tag_108:\n      pop\n      tag_109\n      0x04\n      dup1\n      calldatasize\n      sub\n      dup2\n      add\n      swap1\n      tag_110\n      swap2\n      swap1\n      tag_57\n      jump\t// in\n    tag_110:\n      tag_111\n      jump\t// in\n    tag_109:\n      mload(0x40)\n      tag_112\n      swap2\n      swap1\n      tag_49\n      jump\t// in\n    tag_112:\n      mload(0x40)\n      dup1\n      swap2\n      sub\n      swap1\n      return\n        /* \"w9_liquidity_lending_pool_hw.sol\":6470:6588  function getCollateral(address borrower) external view returns (uint256) {... */\n    tag_18:\n      callvalue\n      dup1\n      iszero\n      tag_113\n      jumpi\n      0x00\n      dup1\n      revert\n    tag_113:\n      pop\n      tag_114\n      0x04\n      dup1\n      calldatasize\n      sub\n      dup2\n      add\n      swap1\n      tag_115\n      swap2\n      swap1\n      tag_57\n      jump\t// in\n    tag_115:\n      tag_116\n      jump\t// in\n    tag_114:\n      mload(0x40)\n      tag_117\n      swap2\n      swap1\n      tag_49\n      jump\t// in\n    tag_117:\n      mload(0x40)\n      dup1\n      swap2\n      sub\n      swap1\n      return\n        /* \"w9_liquidity_lending_pool_hw.sol\":7052:8392  function takeLoan(uint256 amount, uint256 loan_duration) external payable {... */\n    tag_19:\n      tag_118\n      0x04\n      dup1\n      calldatasize\n      sub\n      dup2\n      add\n      swap1\n      tag_119\n      swap2\n      swap1\n      tag_120\n      jump\t// in\n    tag_119:\n      tag_121\n      jump\t// in\n    tag_118:\n      stop\n        /* \"w9_liquidity_lending_pool_hw.sol\":9701:10629  function accrueInterest() external {... */\n    tag_20:\n      callvalue\n      dup1\n      iszero\n      tag_122\n      jumpi\n      0x00\n      dup1\n      revert\n    tag_122:\n      pop\n      tag_123\n      tag_124\n      jump\t// in\n    tag_123:\n      stop\n        /* \"w9_liquidity_lending_pool_hw.sol\":8398:9695  function repayLoan(uint256 loanId) external payable {... */\n    tag_21:\n      tag_125\n      0x04\n      dup1\n      calldatasize\n      sub\n      dup2\n      add\n      swap1\n      tag_126\n      swap2\n      swap1\n      tag_52\n      jump\t// in\n    tag_126:\n      tag_127\n      jump\t// in\n    tag_125:\n      stop\n        /* \"w9_liquidity_lending_pool_hw.sol\":12616:12784  function requiredCollateral(uint256 loan) public pure returns (uint256) {... */\n    tag_22:\n      callvalue\n      dup1\n      iszero\n      tag_128\n      jumpi\n      0x00\n      dup1\n      revert\n    tag_128:\n      pop\n      tag_129\n      0x04\n      dup1\n      calldatasize\n      sub\n      dup2\n      add\n      swap1\n      tag_130\n      swap2\n      swap1\n      tag_52\n      jump\t// in\n    tag_130:\n      tag_131\n      jump\t// in\n    tag_129:\n      mload(0x40)\n      tag_132\n      swap2\n      swap1\n      tag_49\n      jump\t// in\n    tag_132:\n      mload(0x40)\n      dup1\n      swap2\n      sub\n      swap1\n      return\n        /* \"w9_liquidity_lending_pool_hw.sol\":11719:11963  function calculateRepaymentAmount(uint256 loanId) public view returns (uint256) {... */\n    tag_23:\n      callvalue\n      dup1\n      iszero\n      tag_133\n      jumpi\n      0x00\n      dup1\n      revert\n    tag_133:\n      pop\n      tag_134\n      0x04\n      dup1\n      calldatasize\n      sub\n      dup2\n      add\n      swap1\n      tag_135\n      swap2\n      swap1\n      tag_52\n      jump\t// in\n    tag_135:\n      tag_136\n      jump\t// in\n    tag_134:\n      mload(0x40)\n      tag_137\n      swap2\n      swap1\n      tag_49\n      jump\t// in\n    tag_137:\n      mload(0x40)\n      dup1\n      swap2\n      sub\n      swap1\n      return\n        /* \"w9_liquidity_lending_pool_hw.sol\":10698:10885  function calculateFeeShare(address user) public view returns (uint256) {... */\n    tag_24:\n      callvalue\n      dup1\n      iszero\n      tag_138\n      jumpi\n      0x00\n      dup1\n      revert\n    tag_138:\n      pop\n      tag_139\n      0x04\n      dup1\n      calldatasize\n      sub\n      dup2\n      add\n      swap1\n      tag_140\n      swap2\n      swap1\n      tag_57\n      jump\t// in\n    tag_140:\n      tag_141\n      jump\t// in\n    tag_139:\n      mload(0x40)\n      tag_142\n      swap2\n      swap1\n      tag_49\n      jump\t// in\n    tag_142:\n      mload(0x40)\n      dup1\n      swap2\n      sub\n      swap1\n      return\n        /* \"w9_liquidity_lending_pool_hw.sol\":11057:11713  function distributeFees() external payable onlyOwner{... */\n    tag_25:\n      tag_143\n      tag_144\n      jump\t// in\n    tag_143:\n      stop\n        /* \"w9_liquidity_lending_pool_hw.sol\":805:840  uint256 public lastAccrualTimestamp */\n    tag_26:\n      callvalue\n      dup1\n      iszero\n      tag_145\n      jumpi\n      0x00\n      dup1\n      revert\n    tag_145:\n      pop\n      tag_146\n      tag_147\n      jump\t// in\n    tag_146:\n      mload(0x40)\n      tag_148\n      swap2\n      swap1\n      tag_49\n      jump\t// in\n    tag_148:\n      mload(0x40)\n      dup1\n      swap2\n      sub\n      swap1\n      return\n        /* \"w9_liquidity_lending_pool_hw.sol\":6749:7046  function getBalances(address account) external view returns (... */\n    tag_27:\n      callvalue\n      dup1\n      iszero\n      tag_149\n      jumpi\n      0x00\n      dup1\n      revert\n    tag_149:\n      pop\n      tag_150\n      0x04\n      dup1\n      calldatasize\n      sub\n      dup2\n      add\n      swap1\n      tag_151\n      swap2\n      swap1\n      tag_57\n      jump\t// in\n    tag_151:\n      tag_152\n      jump\t// in\n    tag_150:\n      mload(0x40)\n      tag_153\n      swap4\n      swap3\n      swap2\n      swap1\n      tag_154\n      jump\t// in\n    tag_153:\n      mload(0x40)\n      dup1\n      swap2\n      sub\n      swap1\n      return\n        /* \"w9_liquidity_lending_pool_hw.sol\":538:570  uint256 public interest_rate = 5 */\n    tag_28:\n      callvalue\n      dup1\n      iszero\n      tag_155\n      jumpi\n      0x00\n      dup1\n      revert\n    tag_155:\n      pop\n      tag_156\n      tag_157\n      jump\t// in\n    tag_156:\n      mload(0x40)\n      tag_158\n      swap2\n      swap1\n      tag_49\n      jump\t// in\n    tag_158:\n      mload(0x40)\n      dup1\n      swap2\n      sub\n      swap1\n      return\n        /* \"w9_liquidity_lending_pool_hw.sol\":2174:2452  function deposit() external payable {... */\n    tag_29:\n      tag_159\n      tag_160\n      jump\t// in\n    tag_159:\n      stop\n        /* \"w9_liquidity_lending_pool_hw.sol\":696:742  mapping(address => uint256[]) public userLoans */\n    tag_30:\n      callvalue\n      dup1\n      iszero\n      tag_161\n      jumpi\n      0x00\n      dup1\n      revert\n    tag_161:\n      pop\n      tag_162\n      0x04\n      dup1\n      calldatasize\n      sub\n      dup2\n      add\n      swap1\n      tag_163\n      swap2\n      swap1\n      tag_164\n      jump\t// in\n    tag_163:\n      tag_165\n      jump\t// in\n    tag_162:\n      mload(0x40)\n      tag_166\n      swap2\n      swap1\n      tag_49\n      jump\t// in\n    tag_166:\n      mload(0x40)\n      dup1\n      swap2\n      sub\n      swap1\n      return\n        /* \"w9_liquidity_lending_pool_hw.sol\":633:670  mapping(uint256 => Loan) public loans */\n    tag_31:\n      callvalue\n      dup1\n      iszero\n      tag_167\n      jumpi\n      0x00\n      dup1\n      revert\n    tag_167:\n      pop\n      tag_168\n      0x04\n      dup1\n      calldatasize\n      sub\n      dup2\n      add\n      swap1\n      tag_169\n      swap2\n      swap1\n      tag_52\n      jump\t// in\n    tag_169:\n      tag_170\n      jump\t// in\n    tag_168:\n      mload(0x40)\n      tag_171\n      swap8\n      swap7\n      swap6\n      swap5\n      swap4\n      swap3\n      swap2\n      swap1\n      tag_172\n      jump\t// in\n    tag_171:\n      mload(0x40)\n      dup1\n      swap2\n      sub\n      swap1\n      return\n        /* \"w9_liquidity_lending_pool_hw.sol\":772:799  address[] public depositors */\n    tag_32:\n      callvalue\n      dup1\n      iszero\n      tag_173\n      jumpi\n      0x00\n      dup1\n      revert\n    tag_173:\n      pop\n      tag_174\n      0x04\n      dup1\n      calldatasize\n      sub\n      dup2\n      add\n      swap1\n      tag_175\n      swap2\n      swap1\n      tag_52\n      jump\t// in\n    tag_175:\n      tag_176\n      jump\t// in\n    tag_174:\n      mload(0x40)\n      tag_177\n      swap2\n      swap1\n      tag_103\n      jump\t// in\n    tag_177:\n      mload(0x40)\n      dup1\n      swap2\n      sub\n      swap1\n      return\n        /* \"w9_liquidity_lending_pool_hw.sol\":12790:13001  function requiredRepaymentAmount(uint256 loan) public view returns (uint256) {... */\n    tag_33:\n      callvalue\n      dup1\n      iszero\n      tag_178\n      jumpi\n      0x00\n      dup1\n      revert\n    tag_178:\n      pop\n      tag_179\n      0x04\n      dup1\n      calldatasize\n      sub\n      dup2\n      add\n      swap1\n      tag_180\n      swap2\n      swap1\n      tag_52\n      jump\t// in\n    tag_180:\n      tag_181\n      jump\t// in\n    tag_179:\n      mload(0x40)\n      tag_182\n      swap2\n      swap1\n      tag_49\n      jump\t// in\n    tag_182:\n      mload(0x40)\n      dup1\n      swap2\n      sub\n      swap1\n      return\n        /* \"w9_liquidity_lending_pool_hw.sol\":126:172  mapping(address => uint256) public collaterals */\n    tag_34:\n      callvalue\n      dup1\n      iszero\n      tag_183\n      jumpi\n      0x00\n      dup1\n      revert\n    tag_183:\n      pop\n      tag_184\n      0x04\n      dup1\n      calldatasize\n      sub\n      dup2\n      add\n      swap1\n      tag_185\n      swap2\n      swap1\n      tag_57\n      jump\t// in\n    tag_185:\n      tag_186\n      jump\t// in\n    tag_184:\n      mload(0x40)\n      tag_187\n      swap2\n      swap1\n      tag_49\n      jump\t// in\n    tag_187:\n      mload(0x40)\n      dup1\n      swap2\n      sub\n      swap1\n      return\n        /* \"w9_liquidity_lending_pool_hw.sol\":241:284  mapping(address => uint256) public deposits */\n    tag_35:\n      callvalue\n      dup1\n      iszero\n      tag_188\n      jumpi\n      0x00\n      dup1\n      revert\n    tag_188:\n      pop\n      tag_189\n      0x04\n      dup1\n      calldatasize\n      sub\n      dup2\n      add\n      swap1\n      tag_190\n      swap2\n      swap1\n      tag_57\n      jump\t// in\n    tag_190:\n      tag_191\n      jump\t// in\n    tag_189:\n      mload(0x40)\n      tag_192\n      swap2\n      swap1\n      tag_49\n      jump\t// in\n    tag_192:\n      mload(0x40)\n      dup1\n      swap2\n      sub\n      swap1\n      return\n        /* \"w9_liquidity_lending_pool_hw.sol\":403:432  uint256 public totalLiquidity */\n    tag_47:\n      sload(0x04)\n      dup2\n      jump\t// out\n        /* \"w9_liquidity_lending_pool_hw.sol\":3009:4006  function withdraw(uint256 withdrawAmount) external payable{... */\n    tag_53:\n        /* \"w9_liquidity_lending_pool_hw.sol\":3101:3124  isDepositor(msg.sender) */\n      tag_194\n        /* \"w9_liquidity_lending_pool_hw.sol\":3113:3123  msg.sender */\n      caller\n        /* \"w9_liquidity_lending_pool_hw.sol\":3101:3112  isDepositor */\n      tag_58\n        /* \"w9_liquidity_lending_pool_hw.sol\":3101:3124  isDepositor(msg.sender) */\n      jump\t// in\n    tag_194:\n        /* \"w9_liquidity_lending_pool_hw.sol\":3093:3153  require(isDepositor(msg.sender), \"You are not a depositor.\") */\n      tag_195\n      jumpi\n      mload(0x40)\n      0x08c379a000000000000000000000000000000000000000000000000000000000\n      dup2\n      mstore\n      0x04\n      add\n      tag_196\n      swap1\n      tag_197\n      jump\t// in\n    tag_196:\n      mload(0x40)\n      dup1\n      swap2\n      sub\n      swap1\n      revert\n    tag_195:\n        /* \"w9_liquidity_lending_pool_hw.sol\":3189:3197  deposits */\n      0x02\n        /* \"w9_liquidity_lending_pool_hw.sol\":3189:3209  deposits[msg.sender] */\n      0x00\n        /* \"w9_liquidity_lending_pool_hw.sol\":3198:3208  msg.sender */\n      caller\n        /* \"w9_liquidity_lending_pool_hw.sol\":3189:3209  deposits[msg.sender] */\n      0xffffffffffffffffffffffffffffffffffffffff\n      and\n      0xffffffffffffffffffffffffffffffffffffffff\n      and\n      dup2\n      mstore\n      0x20\n      add\n      swap1\n      dup2\n      mstore\n      0x20\n      add\n      0x00\n      keccak256\n      sload\n        /* \"w9_liquidity_lending_pool_hw.sol\":3171:3185  withdrawAmount */\n      dup2\n        /* \"w9_liquidity_lending_pool_hw.sol\":3171:3209  withdrawAmount <= deposits[msg.sender] */\n      gt\n      iszero\n        /* \"w9_liquidity_lending_pool_hw.sol\":3163:3268  require(withdrawAmount <= deposits[msg.sender], \"You don't have this much amount of deposit to withdraw\") */\n      tag_198\n      jumpi\n      mload(0x40)\n      0x08c379a000000000000000000000000000000000000000000000000000000000\n      dup2\n      mstore\n      0x04\n      add\n      tag_199\n      swap1\n      tag_200\n      jump\t// in\n    tag_199:\n      mload(0x40)\n      dup1\n      swap2\n      sub\n      swap1\n      revert\n    tag_198:\n        /* \"w9_liquidity_lending_pool_hw.sol\":3304:3318  totalLiquidity */\n      sload(0x04)\n        /* \"w9_liquidity_lending_pool_hw.sol\":3286:3300  withdrawAmount */\n      dup2\n        /* \"w9_liquidity_lending_pool_hw.sol\":3286:3318  withdrawAmount <= totalLiquidity */\n      gt\n      iszero\n        /* \"w9_liquidity_lending_pool_hw.sol\":3278:3351  require(withdrawAmount <= totalLiquidity, \"Not enough liquidity in pool\") */\n      tag_201\n      jumpi\n      mload(0x40)\n      0x08c379a000000000000000000000000000000000000000000000000000000000\n      dup2\n      mstore\n      0x04\n      add\n      tag_202\n      swap1\n      tag_203\n      jump\t// in\n    tag_202:\n      mload(0x40)\n      dup1\n      swap2\n      sub\n      swap1\n      revert\n    tag_201:\n        /* \"w9_liquidity_lending_pool_hw.sol\":3403:3417  withdrawAmount */\n      dup1\n        /* \"w9_liquidity_lending_pool_hw.sol\":3379:3387  deposits */\n      0x02\n        /* \"w9_liquidity_lending_pool_hw.sol\":3379:3399  deposits[msg.sender] */\n      0x00\n        /* \"w9_liquidity_lending_pool_hw.sol\":3388:3398  msg.sender */\n      caller\n        /* \"w9_liquidity_lending_pool_hw.sol\":3379:3399  deposits[msg.sender] */\n      0xffffffffffffffffffffffffffffffffffffffff\n      and\n      0xffffffffffffffffffffffffffffffffffffffff\n      and\n      dup2\n      mstore\n      0x20\n      add\n      swap1\n      dup2\n      mstore\n      0x20\n      add\n      0x00\n      keccak256\n      0x00\n        /* \"w9_liquidity_lending_pool_hw.sol\":3379:3417  deposits[msg.sender] -= withdrawAmount */\n      dup3\n      dup3\n      sload\n      tag_204\n      swap2\n      swap1\n      tag_205\n      jump\t// in\n    tag_204:\n      swap3\n      pop\n      pop\n      dup2\n      swap1\n      sstore\n      pop\n        /* \"w9_liquidity_lending_pool_hw.sol\":3445:3459  withdrawAmount */\n      dup1\n        /* \"w9_liquidity_lending_pool_hw.sol\":3427:3441  totalLiquidity */\n      0x04\n      0x00\n        /* \"w9_liquidity_lending_pool_hw.sol\":3427:3459  totalLiquidity -= withdrawAmount */\n      dup3\n      dup3\n      sload\n      tag_206\n      swap2\n      swap1\n      tag_205\n      jump\t// in\n    tag_206:\n      swap3\n      pop\n      pop\n      dup2\n      swap1\n      sstore\n      pop\n        /* \"w9_liquidity_lending_pool_hw.sol\":3490:3502  bool success */\n      0x00\n        /* \"w9_liquidity_lending_pool_hw.sol\":3516:3526  msg.sender */\n      caller\n        /* \"w9_liquidity_lending_pool_hw.sol\":3508:3532  payable(msg.sender).call */\n      0xffffffffffffffffffffffffffffffffffffffff\n      and\n        /* \"w9_liquidity_lending_pool_hw.sol\":3540:3554  withdrawAmount */\n      dup3\n        /* \"w9_liquidity_lending_pool_hw.sol\":3508:3559  payable(msg.sender).call{value: withdrawAmount}(\"\") */\n      mload(0x40)\n      tag_207\n      swap1\n      tag_208\n      jump\t// in\n    tag_207:\n      0x00\n      mload(0x40)\n      dup1\n      dup4\n      sub\n      dup2\n      dup6\n      dup8\n      gas\n      call\n      swap3\n      pop\n      pop\n      pop\n      returndatasize\n      dup1\n      0x00\n      dup2\n      eq\n      tag_211\n      jumpi\n      mload(0x40)\n      swap2\n      pop\n      and(add(returndatasize, 0x3f), not(0x1f))\n      dup3\n      add\n      0x40\n      mstore\n      returndatasize\n      dup3\n      mstore\n      returndatasize\n      0x00\n      0x20\n      dup5\n      add\n      returndatacopy\n      jump(tag_210)\n    tag_211:\n      0x60\n      swap2\n      pop\n    tag_210:\n      pop\n        /* \"w9_liquidity_lending_pool_hw.sol\":3489:3559  (bool success, ) = payable(msg.sender).call{value: withdrawAmount}(\"\") */\n      pop\n      swap1\n      pop\n        /* \"w9_liquidity_lending_pool_hw.sol\":3577:3584  success */\n      dup1\n        /* \"w9_liquidity_lending_pool_hw.sol\":3569:3615  require(success, \"Withdrawal transfer failed\") */\n      tag_212\n      jumpi\n      mload(0x40)\n      0x08c379a000000000000000000000000000000000000000000000000000000000\n      dup2\n      mstore\n      0x04\n      add\n      tag_213\n      swap1\n      tag_214\n      jump\t// in\n    tag_213:\n      mload(0x40)\n      dup1\n      swap2\n      sub\n      swap1\n      revert\n    tag_212:\n        /* \"w9_liquidity_lending_pool_hw.sol\":3662:3663  0 */\n      0x00\n        /* \"w9_liquidity_lending_pool_hw.sol\":3638:3646  deposits */\n      0x02\n        /* \"w9_liquidity_lending_pool_hw.sol\":3638:3658  deposits[msg.sender] */\n      0x00\n        /* \"w9_liquidity_lending_pool_hw.sol\":3647:3657  msg.sender */\n      caller\n        /* \"w9_liquidity_lending_pool_hw.sol\":3638:3658  deposits[msg.sender] */\n      0xffffffffffffffffffffffffffffffffffffffff\n      and\n      0xffffffffffffffffffffffffffffffffffffffff\n      and\n      dup2\n      mstore\n      0x20\n      add\n      swap1\n      dup2\n      mstore\n      0x20\n      add\n      0x00\n      keccak256\n      sload\n        /* \"w9_liquidity_lending_pool_hw.sol\":3638:3663  deposits[msg.sender] == 0 */\n      sub\n        /* \"w9_liquidity_lending_pool_hw.sol\":3634:3946  if (deposits[msg.sender] == 0) { //removeProvider when their balance becomes zero.... */\n      tag_215\n      jumpi\n        /* \"w9_liquidity_lending_pool_hw.sol\":3730:3741  bool exists */\n      0x00\n        /* \"w9_liquidity_lending_pool_hw.sol\":3743:3756  uint256 index */\n      dup1\n        /* \"w9_liquidity_lending_pool_hw.sol\":3760:3790  findDepositorIndex(msg.sender) */\n      tag_216\n        /* \"w9_liquidity_lending_pool_hw.sol\":3779:3789  msg.sender */\n      caller\n        /* \"w9_liquidity_lending_pool_hw.sol\":3760:3778  findDepositorIndex */\n      tag_217\n        /* \"w9_liquidity_lending_pool_hw.sol\":3760:3790  findDepositorIndex(msg.sender) */\n      jump\t// in\n    tag_216:\n        /* \"w9_liquidity_lending_pool_hw.sol\":3729:3790  (bool exists, uint256 index) = findDepositorIndex(msg.sender) */\n      swap2\n      pop\n      swap2\n      pop\n        /* \"w9_liquidity_lending_pool_hw.sol\":3808:3814  exists */\n      dup2\n        /* \"w9_liquidity_lending_pool_hw.sol\":3804:3936  if (exists) {... */\n      iszero\n      tag_218\n      jumpi\n        /* \"w9_liquidity_lending_pool_hw.sol\":3854:3864  depositors */\n      0x0a\n        /* \"w9_liquidity_lending_pool_hw.sol\":3885:3886  1 */\n      0x01\n        /* \"w9_liquidity_lending_pool_hw.sol\":3865:3875  depositors */\n      0x0a\n        /* \"w9_liquidity_lending_pool_hw.sol\":3865:3882  depositors.length */\n      dup1\n      sload\n      swap1\n      pop\n        /* \"w9_liquidity_lending_pool_hw.sol\":3865:3886  depositors.length - 1 */\n      tag_219\n      swap2\n      swap1\n      tag_205\n      jump\t// in\n    tag_219:\n        /* \"w9_liquidity_lending_pool_hw.sol\":3854:3887  depositors[depositors.length - 1] */\n      dup2\n      sload\n      dup2\n      lt\n      tag_220\n      jumpi\n      tag_221\n      tag_222\n      jump\t// in\n    tag_221:\n    tag_220:\n      swap1\n      0x00\n      mstore\n      keccak256(0x00, 0x20)\n      add\n      0x00\n      swap1\n      sload\n      swap1\n      0x0100\n      exp\n      swap1\n      div\n      0xffffffffffffffffffffffffffffffffffffffff\n      and\n        /* \"w9_liquidity_lending_pool_hw.sol\":3834:3844  depositors */\n      0x0a\n        /* \"w9_liquidity_lending_pool_hw.sol\":3845:3850  index */\n      dup3\n        /* \"w9_liquidity_lending_pool_hw.sol\":3834:3851  depositors[index] */\n      dup2\n      sload\n      dup2\n      lt\n      tag_224\n      jumpi\n      tag_225\n      tag_222\n      jump\t// in\n    tag_225:\n    tag_224:\n      swap1\n      0x00\n      mstore\n      keccak256(0x00, 0x20)\n      add\n      0x00\n        /* \"w9_liquidity_lending_pool_hw.sol\":3834:3887  depositors[index] = depositors[depositors.length - 1] */\n      0x0100\n      exp\n      dup2\n      sload\n      dup2\n      0xffffffffffffffffffffffffffffffffffffffff\n      mul\n      not\n      and\n      swap1\n      dup4\n      0xffffffffffffffffffffffffffffffffffffffff\n      and\n      mul\n      or\n      swap1\n      sstore\n      pop\n        /* \"w9_liquidity_lending_pool_hw.sol\":3905:3915  depositors */\n      0x0a\n        /* \"w9_liquidity_lending_pool_hw.sol\":3905:3921  depositors.pop() */\n      dup1\n      sload\n      dup1\n      tag_227\n      jumpi\n      tag_228\n      tag_229\n      jump\t// in\n    tag_228:\n    tag_227:\n      0x01\n      swap1\n      sub\n      dup2\n      dup2\n      swap1\n      0x00\n      mstore\n      keccak256(0x00, 0x20)\n      add\n      exp(0x0100, 0x00)\n      dup2\n      sload\n      swap1\n      0xffffffffffffffffffffffffffffffffffffffff\n      mul\n      not\n      and\n      swap1\n      sstore\n      swap1\n      sstore\n        /* \"w9_liquidity_lending_pool_hw.sol\":3804:3936  if (exists) {... */\n    tag_218:\n        /* \"w9_liquidity_lending_pool_hw.sol\":3665:3946  { //removeProvider when their balance becomes zero.... */\n      pop\n      pop\n        /* \"w9_liquidity_lending_pool_hw.sol\":3634:3946  if (deposits[msg.sender] == 0) { //removeProvider when their balance becomes zero.... */\n    tag_215:\n        /* \"w9_liquidity_lending_pool_hw.sol\":3972:3982  msg.sender */\n      caller\n        /* \"w9_liquidity_lending_pool_hw.sol\":3961:3999  Withdrawal(msg.sender, withdrawAmount) */\n      0xffffffffffffffffffffffffffffffffffffffff\n      and\n      0x7fcf532c15f0a6db0bd6d0e038bea71d30d808c7d98cb3bf7268a95bf5081b65\n        /* \"w9_liquidity_lending_pool_hw.sol\":3984:3998  withdrawAmount */\n      dup4\n        /* \"w9_liquidity_lending_pool_hw.sol\":3961:3999  Withdrawal(msg.sender, withdrawAmount) */\n      mload(0x40)\n      tag_231\n      swap2\n      swap1\n      tag_49\n      jump\t// in\n    tag_231:\n      mload(0x40)\n      dup1\n      swap2\n      sub\n      swap1\n      log2\n        /* \"w9_liquidity_lending_pool_hw.sol\":3067:4006  {... */\n      pop\n        /* \"w9_liquidity_lending_pool_hw.sol\":3009:4006  function withdraw(uint256 withdrawAmount) external payable{... */\n      pop\n      jump\t// out\n        /* \"w9_liquidity_lending_pool_hw.sol\":2458:2732  function isDepositor(address a) public view returns (bool){... */\n    tag_58:\n        /* \"w9_liquidity_lending_pool_hw.sol\":2511:2515  bool */\n      0x00\n        /* \"w9_liquidity_lending_pool_hw.sol\":2531:2540  uint256 i */\n      dup1\n        /* \"w9_liquidity_lending_pool_hw.sol\":2543:2544  0 */\n      0x00\n        /* \"w9_liquidity_lending_pool_hw.sol\":2531:2544  uint256 i = 0 */\n      swap1\n      pop\n        /* \"w9_liquidity_lending_pool_hw.sol\":2526:2704  for (uint256 i = 0; i < depositors.length ; ++i) { //iterates through array depositor... */\n    tag_233:\n        /* \"w9_liquidity_lending_pool_hw.sol\":2550:2560  depositors */\n      0x0a\n        /* \"w9_liquidity_lending_pool_hw.sol\":2550:2567  depositors.length */\n      dup1\n      sload\n      swap1\n      pop\n        /* \"w9_liquidity_lending_pool_hw.sol\":2546:2547  i */\n      dup2\n        /* \"w9_liquidity_lending_pool_hw.sol\":2546:2567  i < depositors.length */\n      lt\n        /* \"w9_liquidity_lending_pool_hw.sol\":2526:2704  for (uint256 i = 0; i < depositors.length ; ++i) { //iterates through array depositor... */\n      iszero\n      tag_234\n      jumpi\n        /* \"w9_liquidity_lending_pool_hw.sol\":2645:2646  a */\n      dup3\n        /* \"w9_liquidity_lending_pool_hw.sol\":2628:2646  depositors[i] == a */\n      0xffffffffffffffffffffffffffffffffffffffff\n      and\n        /* \"w9_liquidity_lending_pool_hw.sol\":2628:2638  depositors */\n      0x0a\n        /* \"w9_liquidity_lending_pool_hw.sol\":2639:2640  i */\n      dup3\n        /* \"w9_liquidity_lending_pool_hw.sol\":2628:2641  depositors[i] */\n      dup2\n      sload\n      dup2\n      lt\n      tag_236\n      jumpi\n      tag_237\n      tag_222\n      jump\t// in\n    tag_237:\n    tag_236:\n      swap1\n      0x00\n      mstore\n      keccak256(0x00, 0x20)\n      add\n      0x00\n      swap1\n      sload\n      swap1\n      0x0100\n      exp\n      swap1\n      div\n      0xffffffffffffffffffffffffffffffffffffffff\n      and\n        /* \"w9_liquidity_lending_pool_hw.sol\":2628:2646  depositors[i] == a */\n      0xffffffffffffffffffffffffffffffffffffffff\n      and\n      sub\n        /* \"w9_liquidity_lending_pool_hw.sol\":2624:2694  if (depositors[i] == a){ ... */\n      tag_239\n      jumpi\n        /* \"w9_liquidity_lending_pool_hw.sol\":2673:2677  true */\n      0x01\n        /* \"w9_liquidity_lending_pool_hw.sol\":2666:2677  return true */\n      swap2\n      pop\n      pop\n      jump(tag_232)\n        /* \"w9_liquidity_lending_pool_hw.sol\":2624:2694  if (depositors[i] == a){ ... */\n    tag_239:\n        /* \"w9_liquidity_lending_pool_hw.sol\":2570:2573  ++i */\n      dup1\n      0x01\n      add\n      swap1\n      pop\n        /* \"w9_liquidity_lending_pool_hw.sol\":2526:2704  for (uint256 i = 0; i < depositors.length ; ++i) { //iterates through array depositor... */\n      jump(tag_233)\n    tag_234:\n      pop\n        /* \"w9_liquidity_lending_pool_hw.sol\":2720:2725  false */\n      0x00\n        /* \"w9_liquidity_lending_pool_hw.sol\":2713:2725  return false */\n      swap1\n      pop\n        /* \"w9_liquidity_lending_pool_hw.sol\":2458:2732  function isDepositor(address a) public view returns (bool){... */\n    tag_232:\n      swap2\n      swap1\n      pop\n      jump\t// out\n        /* \"w9_liquidity_lending_pool_hw.sol\":5673:6464  function liquidate(address borrower) external onlyOwner {... */\n    tag_64:\n        /* \"w9_liquidity_lending_pool_hw.sol\":2102:2107  owner */\n      0x01\n      0x00\n      swap1\n      sload\n      swap1\n      0x0100\n      exp\n      swap1\n      div\n      0xffffffffffffffffffffffffffffffffffffffff\n      and\n        /* \"w9_liquidity_lending_pool_hw.sol\":2088:2107  msg.sender == owner */\n      0xffffffffffffffffffffffffffffffffffffffff\n      and\n        /* \"w9_liquidity_lending_pool_hw.sol\":2088:2098  msg.sender */\n      caller\n        /* \"w9_liquidity_lending_pool_hw.sol\":2088:2107  msg.sender == owner */\n      0xffffffffffffffffffffffffffffffffffffffff\n      and\n      eq\n        /* \"w9_liquidity_lending_pool_hw.sol\":2080:2150  require(msg.sender == owner, \"Only the owner can perform this action\") */\n      tag_241\n      jumpi\n      mload(0x40)\n      0x08c379a000000000000000000000000000000000000000000000000000000000\n      dup2\n      mstore\n      0x04\n      add\n      tag_242\n      swap1\n      tag_243\n      jump\t// in\n    tag_242:\n      mload(0x40)\n      dup1\n      swap2\n      sub\n      swap1\n      revert\n    tag_241:\n        /* \"w9_liquidity_lending_pool_hw.sol\":5770:5771  0 */\n      0x00\n        /* \"w9_liquidity_lending_pool_hw.sol\":5747:5757  borrowings */\n      0x03\n        /* \"w9_liquidity_lending_pool_hw.sol\":5747:5767  borrowings[borrower] */\n      0x00\n        /* \"w9_liquidity_lending_pool_hw.sol\":5758:5766  borrower */\n      dup4\n        /* \"w9_liquidity_lending_pool_hw.sol\":5747:5767  borrowings[borrower] */\n      0xffffffffffffffffffffffffffffffffffffffff\n      and\n      0xffffffffffffffffffffffffffffffffffffffff\n      and\n      dup2\n      mstore\n      0x20\n      add\n      swap1\n      dup2\n      mstore\n      0x20\n      add\n      0x00\n      keccak256\n      sload\n        /* \"w9_liquidity_lending_pool_hw.sol\":5747:5771  borrowings[borrower] > 0 */\n      gt\n        /* \"w9_liquidity_lending_pool_hw.sol\":5739:5809  require(borrowings[borrower] > 0, \"No active loans for this borrower\") */\n      tag_245\n      jumpi\n      mload(0x40)\n      0x08c379a000000000000000000000000000000000000000000000000000000000\n      dup2\n      mstore\n      0x04\n      add\n      tag_246\n      swap1\n      tag_247\n      jump\t// in\n    tag_246:\n      mload(0x40)\n      dup1\n      swap2\n      sub\n      swap1\n      revert\n    tag_245:\n        /* \"w9_liquidity_lending_pool_hw.sol\":5828:5846  uint256 debtAmount */\n      0x00\n        /* \"w9_liquidity_lending_pool_hw.sol\":5849:5859  borrowings */\n      0x03\n        /* \"w9_liquidity_lending_pool_hw.sol\":5849:5869  borrowings[borrower] */\n      0x00\n        /* \"w9_liquidity_lending_pool_hw.sol\":5860:5868  borrower */\n      dup4\n        /* \"w9_liquidity_lending_pool_hw.sol\":5849:5869  borrowings[borrower] */\n      0xffffffffffffffffffffffffffffffffffffffff\n      and\n      0xffffffffffffffffffffffffffffffffffffffff\n      and\n      dup2\n      mstore\n      0x20\n      add\n      swap1\n      dup2\n      mstore\n      0x20\n      add\n      0x00\n      keccak256\n      sload\n        /* \"w9_liquidity_lending_pool_hw.sol\":5828:5869  uint256 debtAmount = borrowings[borrower] */\n      swap1\n      pop\n        /* \"w9_liquidity_lending_pool_hw.sol\":5879:5903  uint256 collateralAmount */\n      0x00\n        /* \"w9_liquidity_lending_pool_hw.sol\":5906:5917  collaterals */\n      dup1\n        /* \"w9_liquidity_lending_pool_hw.sol\":5906:5927  collaterals[borrower] */\n      0x00\n        /* \"w9_liquidity_lending_pool_hw.sol\":5918:5926  borrower */\n      dup5\n        /* \"w9_liquidity_lending_pool_hw.sol\":5906:5927  collaterals[borrower] */\n      0xffffffffffffffffffffffffffffffffffffffff\n      and\n      0xffffffffffffffffffffffffffffffffffffffff\n      and\n      dup2\n      mstore\n      0x20\n      add\n      swap1\n      dup2\n      mstore\n      0x20\n      add\n      0x00\n      keccak256\n      sload\n        /* \"w9_liquidity_lending_pool_hw.sol\":5879:5927  uint256 collateralAmount = collaterals[borrower] */\n      swap1\n      pop\n        /* \"w9_liquidity_lending_pool_hw.sol\":5964:5965  0 */\n      0x00\n        /* \"w9_liquidity_lending_pool_hw.sol\":5945:5961  collateralAmount */\n      dup2\n        /* \"w9_liquidity_lending_pool_hw.sol\":5945:5965  collateralAmount > 0 */\n      gt\n        /* \"w9_liquidity_lending_pool_hw.sol\":5937:5992  require(collateralAmount > 0, \"No collateral to seize\") */\n      tag_248\n      jumpi\n      mload(0x40)\n      0x08c379a000000000000000000000000000000000000000000000000000000000\n      dup2\n      mstore\n      0x04\n      add\n      tag_249\n      swap1\n      tag_250\n      jump\t// in\n    tag_249:\n      mload(0x40)\n      dup1\n      swap2\n      sub\n      swap1\n      revert\n    tag_248:\n        /* \"w9_liquidity_lending_pool_hw.sol\":6076:6077  0 */\n      0x00\n        /* \"w9_liquidity_lending_pool_hw.sol\":6053:6063  borrowings */\n      0x03\n        /* \"w9_liquidity_lending_pool_hw.sol\":6053:6073  borrowings[borrower] */\n      0x00\n        /* \"w9_liquidity_lending_pool_hw.sol\":6064:6072  borrower */\n      dup6\n        /* \"w9_liquidity_lending_pool_hw.sol\":6053:6073  borrowings[borrower] */\n      0xffffffffffffffffffffffffffffffffffffffff\n      and\n      0xffffffffffffffffffffffffffffffffffffffff\n      and\n      dup2\n      mstore\n      0x20\n      add\n      swap1\n      dup2\n      mstore\n      0x20\n      add\n      0x00\n      keccak256\n        /* \"w9_liquidity_lending_pool_hw.sol\":6053:6077  borrowings[borrower] = 0 */\n      dup2\n      swap1\n      sstore\n      pop\n        /* \"w9_liquidity_lending_pool_hw.sol\":6111:6112  0 */\n      0x00\n        /* \"w9_liquidity_lending_pool_hw.sol\":6087:6098  collaterals */\n      dup1\n        /* \"w9_liquidity_lending_pool_hw.sol\":6087:6108  collaterals[borrower] */\n      0x00\n        /* \"w9_liquidity_lending_pool_hw.sol\":6099:6107  borrower */\n      dup6\n        /* \"w9_liquidity_lending_pool_hw.sol\":6087:6108  collaterals[borrower] */\n      0xffffffffffffffffffffffffffffffffffffffff\n      and\n      0xffffffffffffffffffffffffffffffffffffffff\n      and\n      dup2\n      mstore\n      0x20\n      add\n      swap1\n      dup2\n      mstore\n      0x20\n      add\n      0x00\n      keccak256\n        /* \"w9_liquidity_lending_pool_hw.sol\":6087:6112  collaterals[borrower] = 0 */\n      dup2\n      swap1\n      sstore\n      pop\n        /* \"w9_liquidity_lending_pool_hw.sol\":6171:6183  bool success */\n      0x00\n        /* \"w9_liquidity_lending_pool_hw.sol\":6197:6202  owner */\n      0x01\n      0x00\n      swap1\n      sload\n      swap1\n      0x0100\n      exp\n      swap1\n      div\n      0xffffffffffffffffffffffffffffffffffffffff\n      and\n        /* \"w9_liquidity_lending_pool_hw.sol\":6189:6208  payable(owner).call */\n      0xffffffffffffffffffffffffffffffffffffffff\n      and\n        /* \"w9_liquidity_lending_pool_hw.sol\":6216:6232  collateralAmount */\n      dup3\n        /* \"w9_liquidity_lending_pool_hw.sol\":6189:6237  payable(owner).call{value: collateralAmount}(\"\") */\n      mload(0x40)\n      tag_251\n      swap1\n      tag_208\n      jump\t// in\n    tag_251:\n      0x00\n      mload(0x40)\n      dup1\n      dup4\n      sub\n      dup2\n      dup6\n      dup8\n      gas\n      call\n      swap3\n      pop\n      pop\n      pop\n      returndatasize\n      dup1\n      0x00\n      dup2\n      eq\n      tag_254\n      jumpi\n      mload(0x40)\n      swap2\n      pop\n      and(add(returndatasize, 0x3f), not(0x1f))\n      dup3\n      add\n      0x40\n      mstore\n      returndatasize\n      dup3\n      mstore\n      returndatasize\n      0x00\n      0x20\n      dup5\n      add\n      returndatacopy\n      jump(tag_253)\n    tag_254:\n      0x60\n      swap2\n      pop\n    tag_253:\n      pop\n        /* \"w9_liquidity_lending_pool_hw.sol\":6170:6237  (bool success, ) = payable(owner).call{value: collateralAmount}(\"\") */\n      pop\n      swap1\n      pop\n        /* \"w9_liquidity_lending_pool_hw.sol\":6255:6262  success */\n      dup1\n        /* \"w9_liquidity_lending_pool_hw.sol\":6247:6305  require(success, \"Failed to transfer collateral to owner\") */\n      tag_255\n      jumpi\n      mload(0x40)\n      0x08c379a000000000000000000000000000000000000000000000000000000000\n      dup2\n      mstore\n      0x04\n      add\n      tag_256\n      swap1\n      tag_257\n      jump\t// in\n    tag_256:\n      mload(0x40)\n      dup1\n      swap2\n      sub\n      swap1\n      revert\n    tag_255:\n        /* \"w9_liquidity_lending_pool_hw.sol\":6382:6392  debtAmount */\n      dup3\n        /* \"w9_liquidity_lending_pool_hw.sol\":6364:6378  totalLiquidity */\n      0x04\n      0x00\n        /* \"w9_liquidity_lending_pool_hw.sol\":6364:6392  totalLiquidity += debtAmount */\n      dup3\n      dup3\n      sload\n      tag_258\n      swap2\n      swap1\n      tag_259\n      jump\t// in\n    tag_258:\n      swap3\n      pop\n      pop\n      dup2\n      swap1\n      sstore\n      pop\n        /* \"w9_liquidity_lending_pool_hw.sol\":6418:6426  borrower */\n      dup4\n        /* \"w9_liquidity_lending_pool_hw.sol\":6408:6457  Liquidate(borrower, collateralAmount, debtAmount) */\n      0xffffffffffffffffffffffffffffffffffffffff\n      and\n      0x3c4b1d42b9c7fa283f6fe657533f6a5a8a7ad1d36f9ef1d9d89ad04485e10d2c\n        /* \"w9_liquidity_lending_pool_hw.sol\":6428:6444  collateralAmount */\n      dup4\n        /* \"w9_liquidity_lending_pool_hw.sol\":6446:6456  debtAmount */\n      dup6\n        /* \"w9_liquidity_lending_pool_hw.sol\":6408:6457  Liquidate(borrower, collateralAmount, debtAmount) */\n      mload(0x40)\n      tag_260\n      swap3\n      swap2\n      swap1\n      tag_261\n      jump\t// in\n    tag_260:\n      mload(0x40)\n      dup1\n      swap2\n      sub\n      swap1\n      log2\n        /* \"w9_liquidity_lending_pool_hw.sol\":5729:6464  {... */\n      pop\n      pop\n      pop\n        /* \"w9_liquidity_lending_pool_hw.sol\":5673:6464  function liquidate(address borrower) external onlyOwner {... */\n      pop\n      jump\t// out\n        /* \"w9_liquidity_lending_pool_hw.sol\":577:603  uint256 public loanCounter */\n    tag_67:\n      sload(0x07)\n      dup2\n      jump\t// out\n        /* \"w9_liquidity_lending_pool_hw.sol\":10916:11051  function getUserAccruedFees(address user) public view returns (uint256) {... */\n    tag_72:\n        /* \"w9_liquidity_lending_pool_hw.sol\":10979:10986  uint256 */\n      0x00\n        /* \"w9_liquidity_lending_pool_hw.sol\":11021:11044  calculateFeeShare(user) */\n      tag_263\n        /* \"w9_liquidity_lending_pool_hw.sol\":11039:11043  user */\n      dup3\n        /* \"w9_liquidity_lending_pool_hw.sol\":11021:11038  calculateFeeShare */\n      tag_141\n        /* \"w9_liquidity_lending_pool_hw.sol\":11021:11044  calculateFeeShare(user) */\n      jump\t// in\n    tag_263:\n        /* \"w9_liquidity_lending_pool_hw.sol\":11005:11018  accruedReward */\n      sload(0x0c)\n        /* \"w9_liquidity_lending_pool_hw.sol\":11005:11044  accruedReward * calculateFeeShare(user) */\n      tag_264\n      swap2\n      swap1\n      tag_265\n      jump\t// in\n    tag_264:\n        /* \"w9_liquidity_lending_pool_hw.sol\":10998:11044  return accruedReward * calculateFeeShare(user) */\n      swap1\n      pop\n        /* \"w9_liquidity_lending_pool_hw.sol\":10916:11051  function getUserAccruedFees(address user) public view returns (uint256) {... */\n      swap2\n      swap1\n      pop\n      jump\t// out\n        /* \"w9_liquidity_lending_pool_hw.sol\":12070:12222  function getUserBalance(address a) public view returns (uint256){... */\n    tag_77:\n        /* \"w9_liquidity_lending_pool_hw.sol\":12126:12133  uint256 */\n      0x00\n        /* \"w9_liquidity_lending_pool_hw.sol\":12152:12166  isDepositor(a) */\n      tag_267\n        /* \"w9_liquidity_lending_pool_hw.sol\":12164:12165  a */\n      dup3\n        /* \"w9_liquidity_lending_pool_hw.sol\":12152:12163  isDepositor */\n      tag_58\n        /* \"w9_liquidity_lending_pool_hw.sol\":12152:12166  isDepositor(a) */\n      jump\t// in\n    tag_267:\n        /* \"w9_liquidity_lending_pool_hw.sol\":12144:12187  require(isDepositor(a), \"Not a depositor.\") */\n      tag_268\n      jumpi\n      mload(0x40)\n      0x08c379a000000000000000000000000000000000000000000000000000000000\n      dup2\n      mstore\n      0x04\n      add\n      tag_269\n      swap1\n      tag_270\n      jump\t// in\n    tag_269:\n      mload(0x40)\n      dup1\n      swap2\n      sub\n      swap1\n      revert\n    tag_268:\n        /* \"w9_liquidity_lending_pool_hw.sol\":12204:12212  deposits */\n      0x02\n        /* \"w9_liquidity_lending_pool_hw.sol\":12204:12215  deposits[a] */\n      0x00\n        /* \"w9_liquidity_lending_pool_hw.sol\":12213:12214  a */\n      dup4\n        /* \"w9_liquidity_lending_pool_hw.sol\":12204:12215  deposits[a] */\n      0xffffffffffffffffffffffffffffffffffffffff\n      and\n      0xffffffffffffffffffffffffffffffffffffffff\n      and\n      dup2\n      mstore\n      0x20\n      add\n      swap1\n      dup2\n      mstore\n      0x20\n      add\n      0x00\n      keccak256\n      sload\n        /* \"w9_liquidity_lending_pool_hw.sol\":12197:12215  return deposits[a] */\n      swap1\n      pop\n        /* \"w9_liquidity_lending_pool_hw.sol\":12070:12222  function getUserBalance(address a) public view returns (uint256){... */\n      swap2\n      swap1\n      pop\n      jump\t// out\n        /* \"w9_liquidity_lending_pool_hw.sol\":880:932  uint256 public constant contractFeeFromRepayment = 1 */\n    tag_81:\n        /* \"w9_liquidity_lending_pool_hw.sol\":931:932  1 */\n      0x01\n        /* \"w9_liquidity_lending_pool_hw.sol\":880:932  uint256 public constant contractFeeFromRepayment = 1 */\n      dup2\n      jump\t// out\n        /* \"w9_liquidity_lending_pool_hw.sol\":12228:12610  function getLiquidityPoolWithLoan() public view returns (uint256) { //Liquidity pool that includes outstanding loan too... */\n    tag_85:\n        /* \"w9_liquidity_lending_pool_hw.sol\":12285:12292  uint256 */\n      0x00\n        /* \"w9_liquidity_lending_pool_hw.sol\":12356:12372  uint256 borrowed */\n      dup1\n        /* \"w9_liquidity_lending_pool_hw.sol\":12375:12376  0 */\n      0x00\n        /* \"w9_liquidity_lending_pool_hw.sol\":12356:12376  uint256 borrowed = 0 */\n      swap1\n      pop\n        /* \"w9_liquidity_lending_pool_hw.sol\":12391:12400  uint256 i */\n      0x00\n        /* \"w9_liquidity_lending_pool_hw.sol\":12403:12404  1 */\n      0x01\n        /* \"w9_liquidity_lending_pool_hw.sol\":12391:12404  uint256 i = 1 */\n      swap1\n      pop\n        /* \"w9_liquidity_lending_pool_hw.sol\":12386:12562  for (uint256 i = 1; i <= loanCounter; i++) {... */\n    tag_272:\n        /* \"w9_liquidity_lending_pool_hw.sol\":12411:12422  loanCounter */\n      sload(0x07)\n        /* \"w9_liquidity_lending_pool_hw.sol\":12406:12407  i */\n      dup2\n        /* \"w9_liquidity_lending_pool_hw.sol\":12406:12422  i <= loanCounter */\n      gt\n        /* \"w9_liquidity_lending_pool_hw.sol\":12386:12562  for (uint256 i = 1; i <= loanCounter; i++) {... */\n      tag_273\n      jumpi\n        /* \"w9_liquidity_lending_pool_hw.sol\":12447:12452  loans */\n      0x08\n        /* \"w9_liquidity_lending_pool_hw.sol\":12447:12455  loans[i] */\n      0x00\n        /* \"w9_liquidity_lending_pool_hw.sol\":12453:12454  i */\n      dup3\n        /* \"w9_liquidity_lending_pool_hw.sol\":12447:12455  loans[i] */\n      dup2\n      mstore\n      0x20\n      add\n      swap1\n      dup2\n      mstore\n      0x20\n      add\n      0x00\n      keccak256\n        /* \"w9_liquidity_lending_pool_hw.sol\":12447:12464  loans[i].isActive */\n      0x05\n      add\n      0x01\n      swap1\n      sload\n      swap1\n      0x0100\n      exp\n      swap1\n      div\n      0xff\n      and\n        /* \"w9_liquidity_lending_pool_hw.sol\":12447:12486  loans[i].isActive && !loans[i].isRepaid */\n      dup1\n      iszero\n      tag_275\n      jumpi\n      pop\n        /* \"w9_liquidity_lending_pool_hw.sol\":12469:12474  loans */\n      0x08\n        /* \"w9_liquidity_lending_pool_hw.sol\":12469:12477  loans[i] */\n      0x00\n        /* \"w9_liquidity_lending_pool_hw.sol\":12475:12476  i */\n      dup3\n        /* \"w9_liquidity_lending_pool_hw.sol\":12469:12477  loans[i] */\n      dup2\n      mstore\n      0x20\n      add\n      swap1\n      dup2\n      mstore\n      0x20\n      add\n      0x00\n      keccak256\n        /* \"w9_liquidity_lending_pool_hw.sol\":12469:12486  loans[i].isRepaid */\n      0x05\n      add\n      0x00\n      swap1\n      sload\n      swap1\n      0x0100\n      exp\n      swap1\n      div\n      0xff\n      and\n        /* \"w9_liquidity_lending_pool_hw.sol\":12468:12486  !loans[i].isRepaid */\n      iszero\n        /* \"w9_liquidity_lending_pool_hw.sol\":12447:12486  loans[i].isActive && !loans[i].isRepaid */\n    tag_275:\n        /* \"w9_liquidity_lending_pool_hw.sol\":12443:12552  if (loans[i].isActive && !loans[i].isRepaid) {... */\n      iszero\n      tag_276\n      jumpi\n        /* \"w9_liquidity_lending_pool_hw.sol\":12518:12523  loans */\n      0x08\n        /* \"w9_liquidity_lending_pool_hw.sol\":12518:12526  loans[i] */\n      0x00\n        /* \"w9_liquidity_lending_pool_hw.sol\":12524:12525  i */\n      dup3\n        /* \"w9_liquidity_lending_pool_hw.sol\":12518:12526  loans[i] */\n      dup2\n      mstore\n      0x20\n      add\n      swap1\n      dup2\n      mstore\n      0x20\n      add\n      0x00\n      keccak256\n        /* \"w9_liquidity_lending_pool_hw.sol\":12518:12537  loans[i].loanAmount */\n      0x01\n      add\n      sload\n        /* \"w9_liquidity_lending_pool_hw.sol\":12506:12537  borrowed += loans[i].loanAmount */\n      dup3\n      tag_277\n      swap2\n      swap1\n      tag_259\n      jump\t// in\n    tag_277:\n      swap2\n      pop\n        /* \"w9_liquidity_lending_pool_hw.sol\":12443:12552  if (loans[i].isActive && !loans[i].isRepaid) {... */\n    tag_276:\n        /* \"w9_liquidity_lending_pool_hw.sol\":12424:12427  i++ */\n      dup1\n      dup1\n      tag_278\n      swap1\n      tag_279\n      jump\t// in\n    tag_278:\n      swap2\n      pop\n      pop\n        /* \"w9_liquidity_lending_pool_hw.sol\":12386:12562  for (uint256 i = 1; i <= loanCounter; i++) {... */\n      jump(tag_272)\n    tag_273:\n      pop\n        /* \"w9_liquidity_lending_pool_hw.sol\":12595:12603  borrowed */\n      dup1\n        /* \"w9_liquidity_lending_pool_hw.sol\":12578:12592  totalLiquidity */\n      sload(0x04)\n        /* \"w9_liquidity_lending_pool_hw.sol\":12578:12603  totalLiquidity + borrowed */\n      tag_280\n      swap2\n      swap1\n      tag_259\n      jump\t// in\n    tag_280:\n        /* \"w9_liquidity_lending_pool_hw.sol\":12571:12603  return totalLiquidity + borrowed */\n      swap2\n      pop\n      pop\n        /* \"w9_liquidity_lending_pool_hw.sol\":12228:12610  function getLiquidityPoolWithLoan() public view returns (uint256) { //Liquidity pool that includes outstanding loan too... */\n      swap1\n      jump\t// out\n        /* \"w9_liquidity_lending_pool_hw.sol\":6594:6701  function getContractBalance() external view returns (uint256) {... */\n    tag_89:\n        /* \"w9_liquidity_lending_pool_hw.sol\":6647:6654  uint256 */\n      0x00\n        /* \"w9_liquidity_lending_pool_hw.sol\":6673:6694  address(this).balance */\n      selfbalance\n        /* \"w9_liquidity_lending_pool_hw.sol\":6666:6694  return address(this).balance */\n      swap1\n      pop\n        /* \"w9_liquidity_lending_pool_hw.sol\":6594:6701  function getContractBalance() external view returns (uint256) {... */\n      swap1\n      jump\t// out\n        /* \"w9_liquidity_lending_pool_hw.sol\":470:501  uint256 public interestRate = 5 */\n    tag_93:\n      sload(0x05)\n      dup2\n      jump\t// out\n        /* \"w9_liquidity_lending_pool_hw.sol\":846:874  uint256 public accruedReward */\n    tag_97:\n      sload(0x0c)\n      dup2\n      jump\t// out\n        /* \"w9_liquidity_lending_pool_hw.sol\":215:235  address public owner */\n    tag_101:\n      0x01\n      0x00\n      swap1\n      sload\n      swap1\n      0x0100\n      exp\n      swap1\n      div\n      0xffffffffffffffffffffffffffffffffffffffff\n      and\n      dup2\n      jump\t// out\n        /* \"w9_liquidity_lending_pool_hw.sol\":11969:12064  function getLiquidityPool() public view returns (uint256){... */\n    tag_106:\n        /* \"w9_liquidity_lending_pool_hw.sol\":12018:12025  uint256 */\n      0x00\n        /* \"w9_liquidity_lending_pool_hw.sol\":12043:12057  totalLiquidity */\n      sload(0x04)\n        /* \"w9_liquidity_lending_pool_hw.sol\":12036:12057  return totalLiquidity */\n      swap1\n      pop\n        /* \"w9_liquidity_lending_pool_hw.sol\":11969:12064  function getLiquidityPool() public view returns (uint256){... */\n      swap1\n      jump\t// out\n        /* \"w9_liquidity_lending_pool_hw.sol\":320:365  mapping(address => uint256) public borrowings */\n    tag_111:\n      mstore(0x20, 0x03)\n      dup1\n      0x00\n      mstore\n      keccak256(0x00, 0x40)\n      0x00\n      swap2\n      pop\n      swap1\n      pop\n      sload\n      dup2\n      jump\t// out\n        /* \"w9_liquidity_lending_pool_hw.sol\":6470:6588  function getCollateral(address borrower) external view returns (uint256) {... */\n    tag_116:\n        /* \"w9_liquidity_lending_pool_hw.sol\":6534:6541  uint256 */\n      0x00\n        /* \"w9_liquidity_lending_pool_hw.sol\":6560:6571  collaterals */\n      dup1\n        /* \"w9_liquidity_lending_pool_hw.sol\":6560:6581  collaterals[borrower] */\n      0x00\n        /* \"w9_liquidity_lending_pool_hw.sol\":6572:6580  borrower */\n      dup4\n        /* \"w9_liquidity_lending_pool_hw.sol\":6560:6581  collaterals[borrower] */\n      0xffffffffffffffffffffffffffffffffffffffff\n      and\n      0xffffffffffffffffffffffffffffffffffffffff\n      and\n      dup2\n      mstore\n      0x20\n      add\n      swap1\n      dup2\n      mstore\n      0x20\n      add\n      0x00\n      keccak256\n      sload\n        /* \"w9_liquidity_lending_pool_hw.sol\":6553:6581  return collaterals[borrower] */\n      swap1\n      pop\n        /* \"w9_liquidity_lending_pool_hw.sol\":6470:6588  function getCollateral(address borrower) external view returns (uint256) {... */\n      swap2\n      swap1\n      pop\n      jump\t// out\n        /* \"w9_liquidity_lending_pool_hw.sol\":7052:8392  function takeLoan(uint256 amount, uint256 loan_duration) external payable {... */\n    tag_121:\n        /* \"w9_liquidity_lending_pool_hw.sol\":7153:7154  0 */\n      0x00\n        /* \"w9_liquidity_lending_pool_hw.sol\":7144:7150  amount */\n      dup3\n        /* \"w9_liquidity_lending_pool_hw.sol\":7144:7154  amount > 0 */\n      gt\n        /* \"w9_liquidity_lending_pool_hw.sol\":7136:7193  require(amount > 0, \"Loan amount must be greater than 0\") */\n      tag_285\n      jumpi\n      mload(0x40)\n      0x08c379a000000000000000000000000000000000000000000000000000000000\n      dup2\n      mstore\n      0x04\n      add\n      tag_286\n      swap1\n      tag_287\n      jump\t// in\n    tag_286:\n      mload(0x40)\n      dup1\n      swap2\n      sub\n      swap1\n      revert\n    tag_285:\n        /* \"w9_liquidity_lending_pool_hw.sol\":7221:7235  totalLiquidity */\n      sload(0x04)\n        /* \"w9_liquidity_lending_pool_hw.sol\":7211:7217  amount */\n      dup3\n        /* \"w9_liquidity_lending_pool_hw.sol\":7211:7235  amount <= totalLiquidity */\n      gt\n      iszero\n        /* \"w9_liquidity_lending_pool_hw.sol\":7203:7268  require(amount <= totalLiquidity, \"Not enough liquidity in pool\") */\n      tag_288\n      jumpi\n      mload(0x40)\n      0x08c379a000000000000000000000000000000000000000000000000000000000\n      dup2\n      mstore\n      0x04\n      add\n      tag_289\n      swap1\n      tag_203\n      jump\t// in\n    tag_289:\n      mload(0x40)\n      dup1\n      swap2\n      sub\n      swap1\n      revert\n    tag_288:\n        /* \"w9_liquidity_lending_pool_hw.sol\":7316:7319  100 */\n      0x64\n        /* \"w9_liquidity_lending_pool_hw.sol\":7309:7312  150 */\n      0x96\n        /* \"w9_liquidity_lending_pool_hw.sol\":7300:7306  amount */\n      dup4\n        /* \"w9_liquidity_lending_pool_hw.sol\":7300:7312  amount * 150 */\n      tag_290\n      swap2\n      swap1\n      tag_265\n      jump\t// in\n    tag_290:\n        /* \"w9_liquidity_lending_pool_hw.sol\":7299:7319  (amount * 150) / 100 */\n      tag_291\n      swap2\n      swap1\n      tag_292\n      jump\t// in\n    tag_291:\n        /* \"w9_liquidity_lending_pool_hw.sol\":7286:7295  msg.value */\n      callvalue\n        /* \"w9_liquidity_lending_pool_hw.sol\":7286:7319  msg.value >= (amount * 150) / 100 */\n      lt\n      iszero\n        /* \"w9_liquidity_lending_pool_hw.sol\":7278:7362  require(msg.value >= (amount * 150) / 100, \"Collateral must be 150% of loan amount\") */\n      tag_293\n      jumpi\n      mload(0x40)\n      0x08c379a000000000000000000000000000000000000000000000000000000000\n      dup2\n      mstore\n      0x04\n      add\n      tag_294\n      swap1\n      tag_295\n      jump\t// in\n    tag_294:\n      mload(0x40)\n      dup1\n      swap2\n      sub\n      swap1\n      revert\n    tag_293:\n        /* \"w9_liquidity_lending_pool_hw.sol\":7473:7496  uint256 repaymentAmount */\n      0x00\n        /* \"w9_liquidity_lending_pool_hw.sol\":7499:7530  requiredRepaymentAmount(amount) */\n      tag_296\n        /* \"w9_liquidity_lending_pool_hw.sol\":7523:7529  amount */\n      dup4\n        /* \"w9_liquidity_lending_pool_hw.sol\":7499:7522  requiredRepaymentAmount */\n      tag_181\n        /* \"w9_liquidity_lending_pool_hw.sol\":7499:7530  requiredRepaymentAmount(amount) */\n      jump\t// in\n    tag_296:\n        /* \"w9_liquidity_lending_pool_hw.sol\":7473:7530  uint256 repaymentAmount = requiredRepaymentAmount(amount) */\n      swap1\n      pop\n        /* \"w9_liquidity_lending_pool_hw.sol\":7540:7561  uint256 repaymentTime */\n      0x00\n        /* \"w9_liquidity_lending_pool_hw.sol\":7598:7603  86400 */\n      0x015180\n        /* \"w9_liquidity_lending_pool_hw.sol\":7582:7595  loan_duration */\n      dup4\n        /* \"w9_liquidity_lending_pool_hw.sol\":7582:7603  loan_duration * 86400 */\n      tag_297\n      swap2\n      swap1\n      tag_265\n      jump\t// in\n    tag_297:\n        /* \"w9_liquidity_lending_pool_hw.sol\":7564:7579  block.timestamp */\n      timestamp\n        /* \"w9_liquidity_lending_pool_hw.sol\":7564:7603  block.timestamp + loan_duration * 86400 */\n      tag_298\n      swap2\n      swap1\n      tag_259\n      jump\t// in\n    tag_298:\n        /* \"w9_liquidity_lending_pool_hw.sol\":7540:7603  uint256 repaymentTime = block.timestamp + loan_duration * 86400 */\n      swap1\n      pop\n        /* \"w9_liquidity_lending_pool_hw.sol\":7670:7681  loanCounter */\n      0x07\n      0x00\n        /* \"w9_liquidity_lending_pool_hw.sol\":7670:7683  loanCounter++ */\n      dup2\n      sload\n      dup1\n      swap3\n      swap2\n      swap1\n      tag_299\n      swap1\n      tag_279\n      jump\t// in\n    tag_299:\n      swap2\n      swap1\n      pop\n      sstore\n      pop\n        /* \"w9_liquidity_lending_pool_hw.sol\":7730:8003  Loan({... */\n      mload(0x40)\n      dup1\n      0xe0\n      add\n      0x40\n      mstore\n      dup1\n        /* \"w9_liquidity_lending_pool_hw.sol\":7759:7769  msg.sender */\n      caller\n        /* \"w9_liquidity_lending_pool_hw.sol\":7730:8003  Loan({... */\n      0xffffffffffffffffffffffffffffffffffffffff\n      and\n      dup2\n      mstore\n      0x20\n      add\n        /* \"w9_liquidity_lending_pool_hw.sol\":7795:7801  amount */\n      dup6\n        /* \"w9_liquidity_lending_pool_hw.sol\":7730:8003  Loan({... */\n      dup2\n      mstore\n      0x20\n      add\n        /* \"w9_liquidity_lending_pool_hw.sol\":7829:7842  interest_rate */\n      sload(0x06)\n        /* \"w9_liquidity_lending_pool_hw.sol\":7730:8003  Loan({... */\n      dup2\n      mstore\n      0x20\n      add\n        /* \"w9_liquidity_lending_pool_hw.sol\":7873:7888  repaymentAmount */\n      dup4\n        /* \"w9_liquidity_lending_pool_hw.sol\":7730:8003  Loan({... */\n      dup2\n      mstore\n      0x20\n      add\n        /* \"w9_liquidity_lending_pool_hw.sol\":7922:7935  repaymentTime */\n      dup3\n        /* \"w9_liquidity_lending_pool_hw.sol\":7730:8003  Loan({... */\n      dup2\n      mstore\n      0x20\n      add\n        /* \"w9_liquidity_lending_pool_hw.sol\":7959:7964  false */\n      0x00\n        /* \"w9_liquidity_lending_pool_hw.sol\":7730:8003  Loan({... */\n      iszero\n      iszero\n      dup2\n      mstore\n      0x20\n      add\n        /* \"w9_liquidity_lending_pool_hw.sol\":7988:7992  true */\n      0x01\n        /* \"w9_liquidity_lending_pool_hw.sol\":7730:8003  Loan({... */\n      iszero\n      iszero\n      dup2\n      mstore\n      pop\n        /* \"w9_liquidity_lending_pool_hw.sol\":7709:7714  loans */\n      0x08\n        /* \"w9_liquidity_lending_pool_hw.sol\":7709:7727  loans[loanCounter] */\n      0x00\n        /* \"w9_liquidity_lending_pool_hw.sol\":7715:7726  loanCounter */\n      sload(0x07)\n        /* \"w9_liquidity_lending_pool_hw.sol\":7709:7727  loans[loanCounter] */\n      dup2\n      mstore\n      0x20\n      add\n      swap1\n      dup2\n      mstore\n      0x20\n      add\n      0x00\n      keccak256\n        /* \"w9_liquidity_lending_pool_hw.sol\":7709:8003  loans[loanCounter] = Loan({... */\n      0x00\n      dup3\n      add\n      mload\n      dup2\n      0x00\n      add\n      exp(0x0100, 0x00)\n      dup2\n      sload\n      dup2\n      0xffffffffffffffffffffffffffffffffffffffff\n      mul\n      not\n      and\n      swap1\n      dup4\n      0xffffffffffffffffffffffffffffffffffffffff\n      and\n      mul\n      or\n      swap1\n      sstore\n      pop\n      0x20\n      dup3\n      add\n      mload\n      dup2\n      0x01\n      add\n      sstore\n      0x40\n      dup3\n      add\n      mload\n      dup2\n      0x02\n      add\n      sstore\n      0x60\n      dup3\n      add\n      mload\n      dup2\n      0x03\n      add\n      sstore\n      0x80\n      dup3\n      add\n      mload\n      dup2\n      0x04\n      add\n      sstore\n      0xa0\n      dup3\n      add\n      mload\n      dup2\n      0x05\n      add\n      exp(0x0100, 0x00)\n      dup2\n      sload\n      dup2\n      0xff\n      mul\n      not\n      and\n      swap1\n      dup4\n      iszero\n      iszero\n      mul\n      or\n      swap1\n      sstore\n      pop\n      0xc0\n      dup3\n      add\n      mload\n      dup2\n      0x05\n      add\n      exp(0x0100, 0x01)\n      dup2\n      sload\n      dup2\n      0xff\n      mul\n      not\n      and\n      swap1\n      dup4\n      iszero\n      iszero\n      mul\n      or\n      swap1\n      sstore\n      pop\n      swap1\n      pop\n      pop\n        /* \"w9_liquidity_lending_pool_hw.sol\":8041:8050  userLoans */\n      0x09\n        /* \"w9_liquidity_lending_pool_hw.sol\":8041:8062  userLoans[msg.sender] */\n      0x00\n        /* \"w9_liquidity_lending_pool_hw.sol\":8051:8061  msg.sender */\n      caller\n        /* \"w9_liquidity_lending_pool_hw.sol\":8041:8062  userLoans[msg.sender] */\n      0xffffffffffffffffffffffffffffffffffffffff\n      and\n      0xffffffffffffffffffffffffffffffffffffffff\n      and\n      dup2\n      mstore\n      0x20\n      add\n      swap1\n      dup2\n      mstore\n      0x20\n      add\n      0x00\n      keccak256\n        /* \"w9_liquidity_lending_pool_hw.sol\":8068:8079  loanCounter */\n      sload(0x07)\n        /* \"w9_liquidity_lending_pool_hw.sol\":8041:8080  userLoans[msg.sender].push(loanCounter) */\n      swap1\n      dup1\n      0x01\n      dup2\n      sload\n      add\n      dup1\n      dup3\n      sstore\n      dup1\n      swap2\n      pop\n      pop\n      0x01\n      swap1\n      sub\n      swap1\n      0x00\n      mstore\n      keccak256(0x00, 0x20)\n      add\n      0x00\n      swap1\n      swap2\n      swap1\n      swap2\n      swap1\n      swap2\n      pop\n      sstore\n        /* \"w9_liquidity_lending_pool_hw.sol\":8117:8126  msg.value */\n      callvalue\n        /* \"w9_liquidity_lending_pool_hw.sol\":8090:8101  collaterals */\n      0x00\n        /* \"w9_liquidity_lending_pool_hw.sol\":8090:8113  collaterals[msg.sender] */\n      dup1\n        /* \"w9_liquidity_lending_pool_hw.sol\":8102:8112  msg.sender */\n      caller\n        /* \"w9_liquidity_lending_pool_hw.sol\":8090:8113  collaterals[msg.sender] */\n      0xffffffffffffffffffffffffffffffffffffffff\n      and\n      0xffffffffffffffffffffffffffffffffffffffff\n      and\n      dup2\n      mstore\n      0x20\n      add\n      swap1\n      dup2\n      mstore\n      0x20\n      add\n      0x00\n      keccak256\n      0x00\n        /* \"w9_liquidity_lending_pool_hw.sol\":8090:8126  collaterals[msg.sender] += msg.value */\n      dup3\n      dup3\n      sload\n      tag_301\n      swap2\n      swap1\n      tag_259\n      jump\t// in\n    tag_301:\n      swap3\n      pop\n      pop\n      dup2\n      swap1\n      sstore\n      pop\n        /* \"w9_liquidity_lending_pool_hw.sol\":8154:8160  amount */\n      dup4\n        /* \"w9_liquidity_lending_pool_hw.sol\":8136:8150  totalLiquidity */\n      0x04\n      0x00\n        /* \"w9_liquidity_lending_pool_hw.sol\":8136:8160  totalLiquidity -= amount */\n      dup3\n      dup3\n      sload\n      tag_302\n      swap2\n      swap1\n      tag_205\n      jump\t// in\n    tag_302:\n      swap3\n      pop\n      pop\n      dup2\n      swap1\n      sstore\n      pop\n        /* \"w9_liquidity_lending_pool_hw.sol\":8216:8228  bool success */\n      0x00\n        /* \"w9_liquidity_lending_pool_hw.sol\":8242:8252  msg.sender */\n      caller\n        /* \"w9_liquidity_lending_pool_hw.sol\":8234:8258  payable(msg.sender).call */\n      0xffffffffffffffffffffffffffffffffffffffff\n      and\n        /* \"w9_liquidity_lending_pool_hw.sol\":8266:8272  amount */\n      dup6\n        /* \"w9_liquidity_lending_pool_hw.sol\":8234:8277  payable(msg.sender).call{value: amount}(\"\") */\n      mload(0x40)\n      tag_303\n      swap1\n      tag_208\n      jump\t// in\n    tag_303:\n      0x00\n      mload(0x40)\n      dup1\n      dup4\n      sub\n      dup2\n      dup6\n      dup8\n      gas\n      call\n      swap3\n      pop\n      pop\n      pop\n      returndatasize\n      dup1\n      0x00\n      dup2\n      eq\n      tag_306\n      jumpi\n      mload(0x40)\n      swap2\n      pop\n      and(add(returndatasize, 0x3f), not(0x1f))\n      dup3\n      add\n      0x40\n      mstore\n      returndatasize\n      dup3\n      mstore\n      returndatasize\n      0x00\n      0x20\n      dup5\n      add\n      returndatacopy\n      jump(tag_305)\n    tag_306:\n      0x60\n      swap2\n      pop\n    tag_305:\n      pop\n        /* \"w9_liquidity_lending_pool_hw.sol\":8215:8277  (bool success, ) = payable(msg.sender).call{value: amount}(\"\") */\n      pop\n      swap1\n      pop\n        /* \"w9_liquidity_lending_pool_hw.sol\":8295:8302  success */\n      dup1\n        /* \"w9_liquidity_lending_pool_hw.sol\":8287:8327  require(success, \"Loan transfer failed\") */\n      tag_307\n      jumpi\n      mload(0x40)\n      0x08c379a000000000000000000000000000000000000000000000000000000000\n      dup2\n      mstore\n      0x04\n      add\n      tag_308\n      swap1\n      tag_309\n      jump\t// in\n    tag_308:\n      mload(0x40)\n      dup1\n      swap2\n      sub\n      swap1\n      revert\n    tag_307:\n        /* \"w9_liquidity_lending_pool_hw.sol\":8353:8363  msg.sender */\n      caller\n        /* \"w9_liquidity_lending_pool_hw.sol\":8343:8385  LoanTaken(msg.sender, loanCounter, amount) */\n      0xffffffffffffffffffffffffffffffffffffffff\n      and\n      0x6b9bb4766cf5ab74b890df959e4fad0e54b1c3885e49c9541d36253a6e39e6\n        /* \"w9_liquidity_lending_pool_hw.sol\":8365:8376  loanCounter */\n      sload(0x07)\n        /* \"w9_liquidity_lending_pool_hw.sol\":8378:8384  amount */\n      dup8\n        /* \"w9_liquidity_lending_pool_hw.sol\":8343:8385  LoanTaken(msg.sender, loanCounter, amount) */\n      mload(0x40)\n      tag_310\n      swap3\n      swap2\n      swap1\n      tag_261\n      jump\t// in\n    tag_310:\n      mload(0x40)\n      dup1\n      swap2\n      sub\n      swap1\n      log2\n        /* \"w9_liquidity_lending_pool_hw.sol\":7126:8392  {... */\n      pop\n      pop\n      pop\n        /* \"w9_liquidity_lending_pool_hw.sol\":7052:8392  function takeLoan(uint256 amount, uint256 loan_duration) external payable {... */\n      pop\n      pop\n      jump\t// out\n        /* \"w9_liquidity_lending_pool_hw.sol\":9701:10629  function accrueInterest() external {... */\n    tag_124:\n        /* \"w9_liquidity_lending_pool_hw.sol\":9771:9772  0 */\n      0x00\n        /* \"w9_liquidity_lending_pool_hw.sol\":9754:9768  totalLiquidity */\n      sload(0x04)\n        /* \"w9_liquidity_lending_pool_hw.sol\":9754:9772  totalLiquidity > 0 */\n      gt\n        /* \"w9_liquidity_lending_pool_hw.sol\":9746:9811  require(totalLiquidity > 0, \"No liquidity to accrue interest on\") */\n      tag_312\n      jumpi\n      mload(0x40)\n      0x08c379a000000000000000000000000000000000000000000000000000000000\n      dup2\n      mstore\n      0x04\n      add\n      tag_313\n      swap1\n      tag_314\n      jump\t// in\n    tag_313:\n      mload(0x40)\n      dup1\n      swap2\n      sub\n      swap1\n      revert\n    tag_312:\n        /* \"w9_liquidity_lending_pool_hw.sol\":9886:9905  uint256 timeElapsed */\n      0x00\n        /* \"w9_liquidity_lending_pool_hw.sol\":9926:9946  lastAccrualTimestamp */\n      sload(0x0b)\n        /* \"w9_liquidity_lending_pool_hw.sol\":9908:9923  block.timestamp */\n      timestamp\n        /* \"w9_liquidity_lending_pool_hw.sol\":9908:9946  block.timestamp - lastAccrualTimestamp */\n      tag_315\n      swap2\n      swap1\n      tag_205\n      jump\t// in\n    tag_315:\n        /* \"w9_liquidity_lending_pool_hw.sol\":9886:9946  uint256 timeElapsed = block.timestamp - lastAccrualTimestamp */\n      swap1\n      pop\n        /* \"w9_liquidity_lending_pool_hw.sol\":9975:9983  31536000 */\n      0x01e13380\n        /* \"w9_liquidity_lending_pool_hw.sol\":9960:9971  timeElapsed */\n      dup2\n        /* \"w9_liquidity_lending_pool_hw.sol\":9960:9983  timeElapsed <= 31536000 */\n      gt\n        /* \"w9_liquidity_lending_pool_hw.sol\":9956:9992  if (timeElapsed <= 31536000) return; */\n      tag_316\n      jumpi\n        /* \"w9_liquidity_lending_pool_hw.sol\":9985:9992  return; */\n      pop\n      jump(tag_311)\n        /* \"w9_liquidity_lending_pool_hw.sol\":9956:9992  if (timeElapsed <= 31536000) return; */\n    tag_316:\n        /* \"w9_liquidity_lending_pool_hw.sol\":10051:10073  uint256 secondsPerYear */\n      0x00\n        /* \"w9_liquidity_lending_pool_hw.sol\":10076:10094  365 * 24 * 60 * 60 */\n      0x01e13380\n        /* \"w9_liquidity_lending_pool_hw.sol\":10051:10094  uint256 secondsPerYear = 365 * 24 * 60 * 60 */\n      swap1\n      pop\n        /* \"w9_liquidity_lending_pool_hw.sol\":10242:10258  uint256 interest */\n      0x00\n        /* \"w9_liquidity_lending_pool_hw.sol\":10317:10331  secondsPerYear */\n      dup2\n        /* \"w9_liquidity_lending_pool_hw.sol\":10311:10314  100 */\n      0x64\n        /* \"w9_liquidity_lending_pool_hw.sol\":10311:10331  100 * secondsPerYear */\n      tag_317\n      swap2\n      swap1\n      tag_265\n      jump\t// in\n    tag_317:\n        /* \"w9_liquidity_lending_pool_hw.sol\":10295:10306  timeElapsed */\n      dup4\n        /* \"w9_liquidity_lending_pool_hw.sol\":10279:10292  interest_rate */\n      sload(0x06)\n        /* \"w9_liquidity_lending_pool_hw.sol\":10262:10276  totalLiquidity */\n      sload(0x04)\n        /* \"w9_liquidity_lending_pool_hw.sol\":10262:10292  totalLiquidity * interest_rate */\n      tag_318\n      swap2\n      swap1\n      tag_265\n      jump\t// in\n    tag_318:\n        /* \"w9_liquidity_lending_pool_hw.sol\":10262:10306  totalLiquidity * interest_rate * timeElapsed */\n      tag_319\n      swap2\n      swap1\n      tag_265\n      jump\t// in\n    tag_319:\n        /* \"w9_liquidity_lending_pool_hw.sol\":10261:10332  (totalLiquidity * interest_rate * timeElapsed) / (100 * secondsPerYear) */\n      tag_320\n      swap2\n      swap1\n      tag_292\n      jump\t// in\n    tag_320:\n        /* \"w9_liquidity_lending_pool_hw.sol\":10242:10332  uint256 interest = (totalLiquidity * interest_rate * timeElapsed) / (100 * secondsPerYear) */\n      swap1\n      pop\n        /* \"w9_liquidity_lending_pool_hw.sol\":10359:10360  0 */\n      0x00\n        /* \"w9_liquidity_lending_pool_hw.sol\":10348:10356  interest */\n      dup2\n        /* \"w9_liquidity_lending_pool_hw.sol\":10348:10360  interest > 0 */\n      gt\n        /* \"w9_liquidity_lending_pool_hw.sol\":10344:10623  if (interest > 0) {... */\n      iszero\n      tag_321\n      jumpi\n        /* \"w9_liquidity_lending_pool_hw.sol\":10393:10401  interest */\n      dup1\n        /* \"w9_liquidity_lending_pool_hw.sol\":10376:10389  accruedReward */\n      0x0c\n      0x00\n        /* \"w9_liquidity_lending_pool_hw.sol\":10376:10401  accruedReward += interest */\n      dup3\n      dup3\n      sload\n      tag_322\n      swap2\n      swap1\n      tag_259\n      jump\t// in\n    tag_322:\n      swap3\n      pop\n      pop\n      dup2\n      swap1\n      sstore\n      pop\n        /* \"w9_liquidity_lending_pool_hw.sol\":10490:10505  block.timestamp */\n      timestamp\n        /* \"w9_liquidity_lending_pool_hw.sol\":10467:10487  lastAccrualTimestamp */\n      0x0b\n        /* \"w9_liquidity_lending_pool_hw.sol\":10467:10505  lastAccrualTimestamp = block.timestamp */\n      dup2\n      swap1\n      sstore\n      pop\n        /* \"w9_liquidity_lending_pool_hw.sol\":10554:10612  InterestAccrued(interest, totalLiquidity, block.timestamp) */\n      0xe9d95e658b0c714da9de2e12fbed253a24a632058a074dc7c90b8b6618675c7c\n        /* \"w9_liquidity_lending_pool_hw.sol\":10570:10578  interest */\n      dup2\n        /* \"w9_liquidity_lending_pool_hw.sol\":10580:10594  totalLiquidity */\n      sload(0x04)\n        /* \"w9_liquidity_lending_pool_hw.sol\":10596:10611  block.timestamp */\n      timestamp\n        /* \"w9_liquidity_lending_pool_hw.sol\":10554:10612  InterestAccrued(interest, totalLiquidity, block.timestamp) */\n      mload(0x40)\n      tag_323\n      swap4\n      swap3\n      swap2\n      swap1\n      tag_154\n      jump\t// in\n    tag_323:\n      mload(0x40)\n      dup1\n      swap2\n      sub\n      swap1\n      log1\n        /* \"w9_liquidity_lending_pool_hw.sol\":10344:10623  if (interest > 0) {... */\n    tag_321:\n        /* \"w9_liquidity_lending_pool_hw.sol\":9736:10629  {... */\n      pop\n      pop\n      pop\n        /* \"w9_liquidity_lending_pool_hw.sol\":9701:10629  function accrueInterest() external {... */\n    tag_311:\n      jump\t// out\n        /* \"w9_liquidity_lending_pool_hw.sol\":8398:9695  function repayLoan(uint256 loanId) external payable {... */\n    tag_127:\n        /* \"w9_liquidity_lending_pool_hw.sol\":8460:8477  Loan storage loan */\n      0x00\n        /* \"w9_liquidity_lending_pool_hw.sol\":8480:8485  loans */\n      0x08\n        /* \"w9_liquidity_lending_pool_hw.sol\":8480:8493  loans[loanId] */\n      0x00\n        /* \"w9_liquidity_lending_pool_hw.sol\":8486:8492  loanId */\n      dup4\n        /* \"w9_liquidity_lending_pool_hw.sol\":8480:8493  loans[loanId] */\n      dup2\n      mstore\n      0x20\n      add\n      swap1\n      dup2\n      mstore\n      0x20\n      add\n      0x00\n      keccak256\n        /* \"w9_liquidity_lending_pool_hw.sol\":8460:8493  Loan storage loan = loans[loanId] */\n      swap1\n      pop\n        /* \"w9_liquidity_lending_pool_hw.sol\":8544:8554  msg.sender */\n      caller\n        /* \"w9_liquidity_lending_pool_hw.sol\":8527:8554  loan.borrower == msg.sender */\n      0xffffffffffffffffffffffffffffffffffffffff\n      and\n        /* \"w9_liquidity_lending_pool_hw.sol\":8527:8531  loan */\n      dup2\n        /* \"w9_liquidity_lending_pool_hw.sol\":8527:8540  loan.borrower */\n      0x00\n      add\n      0x00\n      swap1\n      sload\n      swap1\n      0x0100\n      exp\n      swap1\n      div\n      0xffffffffffffffffffffffffffffffffffffffff\n      and\n        /* \"w9_liquidity_lending_pool_hw.sol\":8527:8554  loan.borrower == msg.sender */\n      0xffffffffffffffffffffffffffffffffffffffff\n      and\n      eq\n        /* \"w9_liquidity_lending_pool_hw.sol\":8519:8572  require(loan.borrower == msg.sender, \"Not your loan\") */\n      tag_325\n      jumpi\n      mload(0x40)\n      0x08c379a000000000000000000000000000000000000000000000000000000000\n      dup2\n      mstore\n      0x04\n      add\n      tag_326\n      swap1\n      tag_327\n      jump\t// in\n    tag_326:\n      mload(0x40)\n      dup1\n      swap2\n      sub\n      swap1\n      revert\n    tag_325:\n        /* \"w9_liquidity_lending_pool_hw.sol\":8590:8594  loan */\n      dup1\n        /* \"w9_liquidity_lending_pool_hw.sol\":8590:8603  loan.isActive */\n      0x05\n      add\n      0x01\n      swap1\n      sload\n      swap1\n      0x0100\n      exp\n      swap1\n      div\n      0xff\n      and\n        /* \"w9_liquidity_lending_pool_hw.sol\":8582:8626  require(loan.isActive, \"Loan is not active\") */\n      tag_328\n      jumpi\n      mload(0x40)\n      0x08c379a000000000000000000000000000000000000000000000000000000000\n      dup2\n      mstore\n      0x04\n      add\n      tag_329\n      swap1\n      tag_330\n      jump\t// in\n    tag_329:\n      mload(0x40)\n      dup1\n      swap2\n      sub\n      swap1\n      revert\n    tag_328:\n        /* \"w9_liquidity_lending_pool_hw.sol\":8645:8649  loan */\n      dup1\n        /* \"w9_liquidity_lending_pool_hw.sol\":8645:8658  loan.isRepaid */\n      0x05\n      add\n      0x00\n      swap1\n      sload\n      swap1\n      0x0100\n      exp\n      swap1\n      div\n      0xff\n      and\n        /* \"w9_liquidity_lending_pool_hw.sol\":8644:8658  !loan.isRepaid */\n      iszero\n        /* \"w9_liquidity_lending_pool_hw.sol\":8636:8682  require(!loan.isRepaid, \"Loan already repaid\") */\n      tag_331\n      jumpi\n      mload(0x40)\n      0x08c379a000000000000000000000000000000000000000000000000000000000\n      dup2\n      mstore\n      0x04\n      add\n      tag_332\n      swap1\n      tag_333\n      jump\t// in\n    tag_332:\n      mload(0x40)\n      dup1\n      swap2\n      sub\n      swap1\n      revert\n    tag_331:\n        /* \"w9_liquidity_lending_pool_hw.sol\":8713:8717  loan */\n      dup1\n        /* \"w9_liquidity_lending_pool_hw.sol\":8713:8733  loan.repaymentAmount */\n      0x03\n      add\n      sload\n        /* \"w9_liquidity_lending_pool_hw.sol\":8700:8709  msg.value */\n      callvalue\n        /* \"w9_liquidity_lending_pool_hw.sol\":8700:8733  msg.value >= loan.repaymentAmount */\n      lt\n      iszero\n        /* \"w9_liquidity_lending_pool_hw.sol\":8692:8767  require(msg.value >= loan.repaymentAmount, \"Insufficient repayment amount\") */\n      tag_334\n      jumpi\n      mload(0x40)\n      0x08c379a000000000000000000000000000000000000000000000000000000000\n      dup2\n      mstore\n      0x04\n      add\n      tag_335\n      swap1\n      tag_336\n      jump\t// in\n    tag_335:\n      mload(0x40)\n      dup1\n      swap2\n      sub\n      swap1\n      revert\n    tag_334:\n        /* \"w9_liquidity_lending_pool_hw.sol\":8778:8789  uint256 fee */\n      0x00\n        /* \"w9_liquidity_lending_pool_hw.sol\":8844:8847  100 */\n      0x64\n        /* \"w9_liquidity_lending_pool_hw.sol\":931:932  1 */\n      0x01\n        /* \"w9_liquidity_lending_pool_hw.sol\":8793:8797  loan */\n      dup4\n        /* \"w9_liquidity_lending_pool_hw.sol\":8793:8813  loan.repaymentAmount */\n      0x03\n      add\n      sload\n        /* \"w9_liquidity_lending_pool_hw.sol\":8793:8840  loan.repaymentAmount * contractFeeFromRepayment */\n      tag_337\n      swap2\n      swap1\n      tag_265\n      jump\t// in\n    tag_337:\n        /* \"w9_liquidity_lending_pool_hw.sol\":8792:8847  (loan.repaymentAmount * contractFeeFromRepayment) / 100 */\n      tag_338\n      swap2\n      swap1\n      tag_292\n      jump\t// in\n    tag_338:\n        /* \"w9_liquidity_lending_pool_hw.sol\":8778:8847  uint256 fee = (loan.repaymentAmount * contractFeeFromRepayment) / 100 */\n      swap1\n      pop\n        /* \"w9_liquidity_lending_pool_hw.sol\":8895:8915  uint256 amountToPool */\n      0x00\n        /* \"w9_liquidity_lending_pool_hw.sol\":8941:8944  fee */\n      dup2\n        /* \"w9_liquidity_lending_pool_hw.sol\":8918:8922  loan */\n      dup4\n        /* \"w9_liquidity_lending_pool_hw.sol\":8918:8938  loan.repaymentAmount */\n      0x03\n      add\n      sload\n        /* \"w9_liquidity_lending_pool_hw.sol\":8918:8944  loan.repaymentAmount - fee */\n      tag_339\n      swap2\n      swap1\n      tag_205\n      jump\t// in\n    tag_339:\n        /* \"w9_liquidity_lending_pool_hw.sol\":8895:8944  uint256 amountToPool = loan.repaymentAmount - fee */\n      swap1\n      pop\n        /* \"w9_liquidity_lending_pool_hw.sol\":8998:9001  fee */\n      dup2\n        /* \"w9_liquidity_lending_pool_hw.sol\":8981:8994  accruedReward */\n      0x0c\n      0x00\n        /* \"w9_liquidity_lending_pool_hw.sol\":8981:9001  accruedReward += fee */\n      dup3\n      dup3\n      sload\n      tag_340\n      swap2\n      swap1\n      tag_259\n      jump\t// in\n    tag_340:\n      swap3\n      pop\n      pop\n      dup2\n      swap1\n      sstore\n      pop\n        /* \"w9_liquidity_lending_pool_hw.sol\":9092:9096  true */\n      0x01\n        /* \"w9_liquidity_lending_pool_hw.sol\":9076:9080  loan */\n      dup4\n        /* \"w9_liquidity_lending_pool_hw.sol\":9076:9089  loan.isRepaid */\n      0x05\n      add\n      0x00\n        /* \"w9_liquidity_lending_pool_hw.sol\":9076:9096  loan.isRepaid = true */\n      0x0100\n      exp\n      dup2\n      sload\n      dup2\n      0xff\n      mul\n      not\n      and\n      swap1\n      dup4\n      iszero\n      iszero\n      mul\n      or\n      swap1\n      sstore\n      pop\n        /* \"w9_liquidity_lending_pool_hw.sol\":9122:9127  false */\n      0x00\n        /* \"w9_liquidity_lending_pool_hw.sol\":9106:9110  loan */\n      dup4\n        /* \"w9_liquidity_lending_pool_hw.sol\":9106:9119  loan.isActive */\n      0x05\n      add\n      0x01\n        /* \"w9_liquidity_lending_pool_hw.sol\":9106:9127  loan.isActive = false */\n      0x0100\n      exp\n      dup2\n      sload\n      dup2\n      0xff\n      mul\n      not\n      and\n      swap1\n      dup4\n      iszero\n      iszero\n      mul\n      or\n      swap1\n      sstore\n      pop\n        /* \"w9_liquidity_lending_pool_hw.sol\":9137:9163  uint256 collateralToReturn */\n      0x00\n        /* \"w9_liquidity_lending_pool_hw.sol\":9166:9177  collaterals */\n      dup1\n        /* \"w9_liquidity_lending_pool_hw.sol\":9166:9189  collaterals[msg.sender] */\n      0x00\n        /* \"w9_liquidity_lending_pool_hw.sol\":9178:9188  msg.sender */\n      caller\n        /* \"w9_liquidity_lending_pool_hw.sol\":9166:9189  collaterals[msg.sender] */\n      0xffffffffffffffffffffffffffffffffffffffff\n      and\n      0xffffffffffffffffffffffffffffffffffffffff\n      and\n      dup2\n      mstore\n      0x20\n      add\n      swap1\n      dup2\n      mstore\n      0x20\n      add\n      0x00\n      keccak256\n      sload\n        /* \"w9_liquidity_lending_pool_hw.sol\":9137:9189  uint256 collateralToReturn = collaterals[msg.sender] */\n      swap1\n      pop\n        /* \"w9_liquidity_lending_pool_hw.sol\":9228:9229  0 */\n      0x00\n        /* \"w9_liquidity_lending_pool_hw.sol\":9207:9225  collateralToReturn */\n      dup2\n        /* \"w9_liquidity_lending_pool_hw.sol\":9207:9229  collateralToReturn > 0 */\n      gt\n        /* \"w9_liquidity_lending_pool_hw.sol\":9199:9257  require(collateralToReturn > 0, \"No collateral to return\") */\n      tag_341\n      jumpi\n      mload(0x40)\n      0x08c379a000000000000000000000000000000000000000000000000000000000\n      dup2\n      mstore\n      0x04\n      add\n      tag_342\n      swap1\n      tag_343\n      jump\t// in\n    tag_342:\n      mload(0x40)\n      dup1\n      swap2\n      sub\n      swap1\n      revert\n    tag_341:\n        /* \"w9_liquidity_lending_pool_hw.sol\":9293:9294  0 */\n      0x00\n        /* \"w9_liquidity_lending_pool_hw.sol\":9267:9278  collaterals */\n      dup1\n        /* \"w9_liquidity_lending_pool_hw.sol\":9267:9290  collaterals[msg.sender] */\n      0x00\n        /* \"w9_liquidity_lending_pool_hw.sol\":9279:9289  msg.sender */\n      caller\n        /* \"w9_liquidity_lending_pool_hw.sol\":9267:9290  collaterals[msg.sender] */\n      0xffffffffffffffffffffffffffffffffffffffff\n      and\n      0xffffffffffffffffffffffffffffffffffffffff\n      and\n      dup2\n      mstore\n      0x20\n      add\n      swap1\n      dup2\n      mstore\n      0x20\n      add\n      0x00\n      keccak256\n        /* \"w9_liquidity_lending_pool_hw.sol\":9267:9294  collaterals[msg.sender] = 0 */\n      dup2\n      swap1\n      sstore\n      pop\n        /* \"w9_liquidity_lending_pool_hw.sol\":9322:9334  amountToPool */\n      dup2\n        /* \"w9_liquidity_lending_pool_hw.sol\":9304:9318  totalLiquidity */\n      0x04\n      0x00\n        /* \"w9_liquidity_lending_pool_hw.sol\":9304:9334  totalLiquidity += amountToPool */\n      dup3\n      dup3\n      sload\n      tag_344\n      swap2\n      swap1\n      tag_259\n      jump\t// in\n    tag_344:\n      swap3\n      pop\n      pop\n      dup2\n      swap1\n      sstore\n      pop\n        /* \"w9_liquidity_lending_pool_hw.sol\":9403:9407  true */\n      0x01\n        /* \"w9_liquidity_lending_pool_hw.sol\":9387:9391  loan */\n      dup5\n        /* \"w9_liquidity_lending_pool_hw.sol\":9387:9400  loan.isRepaid */\n      0x05\n      add\n      0x00\n        /* \"w9_liquidity_lending_pool_hw.sol\":9387:9407  loan.isRepaid = true */\n      0x0100\n      exp\n      dup2\n      sload\n      dup2\n      0xff\n      mul\n      not\n      and\n      swap1\n      dup4\n      iszero\n      iszero\n      mul\n      or\n      swap1\n      sstore\n      pop\n        /* \"w9_liquidity_lending_pool_hw.sol\":9433:9438  false */\n      0x00\n        /* \"w9_liquidity_lending_pool_hw.sol\":9417:9421  loan */\n      dup5\n        /* \"w9_liquidity_lending_pool_hw.sol\":9417:9430  loan.isActive */\n      0x05\n      add\n      0x01\n        /* \"w9_liquidity_lending_pool_hw.sol\":9417:9438  loan.isActive = false */\n      0x0100\n      exp\n      dup2\n      sload\n      dup2\n      0xff\n      mul\n      not\n      and\n      swap1\n      dup4\n      iszero\n      iszero\n      mul\n      or\n      swap1\n      sstore\n      pop\n        /* \"w9_liquidity_lending_pool_hw.sol\":9501:9513  bool success */\n      0x00\n        /* \"w9_liquidity_lending_pool_hw.sol\":9527:9537  msg.sender */\n      caller\n        /* \"w9_liquidity_lending_pool_hw.sol\":9519:9543  payable(msg.sender).call */\n      0xffffffffffffffffffffffffffffffffffffffff\n      and\n        /* \"w9_liquidity_lending_pool_hw.sol\":9551:9569  collateralToReturn */\n      dup3\n        /* \"w9_liquidity_lending_pool_hw.sol\":9519:9574  payable(msg.sender).call{value: collateralToReturn}(\"\") */\n      mload(0x40)\n      tag_345\n      swap1\n      tag_208\n      jump\t// in\n    tag_345:\n      0x00\n      mload(0x40)\n      dup1\n      dup4\n      sub\n      dup2\n      dup6\n      dup8\n      gas\n      call\n      swap3\n      pop\n      pop\n      pop\n      returndatasize\n      dup1\n      0x00\n      dup2\n      eq\n      tag_348\n      jumpi\n      mload(0x40)\n      swap2\n      pop\n      and(add(returndatasize, 0x3f), not(0x1f))\n      dup3\n      add\n      0x40\n      mstore\n      returndatasize\n      dup3\n      mstore\n      returndatasize\n      0x00\n      0x20\n      dup5\n      add\n      returndatacopy\n      jump(tag_347)\n    tag_348:\n      0x60\n      swap2\n      pop\n    tag_347:\n      pop\n        /* \"w9_liquidity_lending_pool_hw.sol\":9500:9574  (bool success, ) = payable(msg.sender).call{value: collateralToReturn}(\"\") */\n      pop\n      swap1\n      pop\n        /* \"w9_liquidity_lending_pool_hw.sol\":9592:9599  success */\n      dup1\n        /* \"w9_liquidity_lending_pool_hw.sol\":9584:9631  require(success, \"Failed to return collateral\") */\n      tag_349\n      jumpi\n      mload(0x40)\n      0x08c379a000000000000000000000000000000000000000000000000000000000\n      dup2\n      mstore\n      0x04\n      add\n      tag_350\n      swap1\n      tag_351\n      jump\t// in\n    tag_350:\n      mload(0x40)\n      dup1\n      swap2\n      sub\n      swap1\n      revert\n    tag_349:\n        /* \"w9_liquidity_lending_pool_hw.sol\":9658:9668  msg.sender */\n      caller\n        /* \"w9_liquidity_lending_pool_hw.sol\":9647:9688  LoanRepaid(msg.sender, loanId, msg.value) */\n      0xffffffffffffffffffffffffffffffffffffffff\n      and\n      0xc7ce0a35f17b490de2a317e7fecb2cae86b1abffb03800b2f492823521382698\n        /* \"w9_liquidity_lending_pool_hw.sol\":9670:9676  loanId */\n      dup8\n        /* \"w9_liquidity_lending_pool_hw.sol\":9678:9687  msg.value */\n      callvalue\n        /* \"w9_liquidity_lending_pool_hw.sol\":9647:9688  LoanRepaid(msg.sender, loanId, msg.value) */\n      mload(0x40)\n      tag_352\n      swap3\n      swap2\n      swap1\n      tag_261\n      jump\t// in\n    tag_352:\n      mload(0x40)\n      dup1\n      swap2\n      sub\n      swap1\n      log2\n        /* \"w9_liquidity_lending_pool_hw.sol\":8450:9695  {... */\n      pop\n      pop\n      pop\n      pop\n      pop\n        /* \"w9_liquidity_lending_pool_hw.sol\":8398:9695  function repayLoan(uint256 loanId) external payable {... */\n      pop\n      jump\t// out\n        /* \"w9_liquidity_lending_pool_hw.sol\":12616:12784  function requiredCollateral(uint256 loan) public pure returns (uint256) {... */\n    tag_131:\n        /* \"w9_liquidity_lending_pool_hw.sol\":12679:12686  uint256 */\n      0x00\n        /* \"w9_liquidity_lending_pool_hw.sol\":12713:12714  0 */\n      dup1\n        /* \"w9_liquidity_lending_pool_hw.sol\":12706:12710  loan */\n      dup3\n        /* \"w9_liquidity_lending_pool_hw.sol\":12706:12714  loan > 0 */\n      gt\n        /* \"w9_liquidity_lending_pool_hw.sol\":12698:12742  require(loan > 0, \"Loan amount must be > 0\") */\n      tag_354\n      jumpi\n      mload(0x40)\n      0x08c379a000000000000000000000000000000000000000000000000000000000\n      dup2\n      mstore\n      0x04\n      add\n      tag_355\n      swap1\n      tag_356\n      jump\t// in\n    tag_355:\n      mload(0x40)\n      dup1\n      swap2\n      sub\n      swap1\n      revert\n    tag_354:\n        /* \"w9_liquidity_lending_pool_hw.sol\":12774:12777  100 */\n      0x64\n        /* \"w9_liquidity_lending_pool_hw.sol\":12767:12770  150 */\n      0x96\n        /* \"w9_liquidity_lending_pool_hw.sol\":12760:12764  loan */\n      dup4\n        /* \"w9_liquidity_lending_pool_hw.sol\":12760:12770  loan * 150 */\n      tag_357\n      swap2\n      swap1\n      tag_265\n      jump\t// in\n    tag_357:\n        /* \"w9_liquidity_lending_pool_hw.sol\":12759:12777  (loan * 150) / 100 */\n      tag_358\n      swap2\n      swap1\n      tag_292\n      jump\t// in\n    tag_358:\n        /* \"w9_liquidity_lending_pool_hw.sol\":12752:12777  return (loan * 150) / 100 */\n      swap1\n      pop\n        /* \"w9_liquidity_lending_pool_hw.sol\":12616:12784  function requiredCollateral(uint256 loan) public pure returns (uint256) {... */\n      swap2\n      swap1\n      pop\n      jump\t// out\n        /* \"w9_liquidity_lending_pool_hw.sol\":11719:11963  function calculateRepaymentAmount(uint256 loanId) public view returns (uint256) {... */\n    tag_136:\n        /* \"w9_liquidity_lending_pool_hw.sol\":11790:11797  uint256 */\n      0x00\n        /* \"w9_liquidity_lending_pool_hw.sol\":11809:11825  Loan memory loan */\n      dup1\n        /* \"w9_liquidity_lending_pool_hw.sol\":11828:11833  loans */\n      0x08\n        /* \"w9_liquidity_lending_pool_hw.sol\":11828:11841  loans[loanId] */\n      0x00\n        /* \"w9_liquidity_lending_pool_hw.sol\":11834:11840  loanId */\n      dup5\n        /* \"w9_liquidity_lending_pool_hw.sol\":11828:11841  loans[loanId] */\n      dup2\n      mstore\n      0x20\n      add\n      swap1\n      dup2\n      mstore\n      0x20\n      add\n      0x00\n      keccak256\n        /* \"w9_liquidity_lending_pool_hw.sol\":11809:11841  Loan memory loan = loans[loanId] */\n      mload(0x40)\n      dup1\n      0xe0\n      add\n      0x40\n      mstore\n      swap1\n      dup2\n      0x00\n      dup3\n      add\n      0x00\n      swap1\n      sload\n      swap1\n      0x0100\n      exp\n      swap1\n      div\n      0xffffffffffffffffffffffffffffffffffffffff\n      and\n      0xffffffffffffffffffffffffffffffffffffffff\n      and\n      0xffffffffffffffffffffffffffffffffffffffff\n      and\n      dup2\n      mstore\n      0x20\n      add\n      0x01\n      dup3\n      add\n      sload\n      dup2\n      mstore\n      0x20\n      add\n      0x02\n      dup3\n      add\n      sload\n      dup2\n      mstore\n      0x20\n      add\n      0x03\n      dup3\n      add\n      sload\n      dup2\n      mstore\n      0x20\n      add\n      0x04\n      dup3\n      add\n      sload\n      dup2\n      mstore\n      0x20\n      add\n      0x05\n      dup3\n      add\n      0x00\n      swap1\n      sload\n      swap1\n      0x0100\n      exp\n      swap1\n      div\n      0xff\n      and\n      iszero\n      iszero\n      iszero\n      iszero\n      dup2\n      mstore\n      0x20\n      add\n      0x05\n      dup3\n      add\n      0x01\n      swap1\n      sload\n      swap1\n      0x0100\n      exp\n      swap1\n      div\n      0xff\n      and\n      iszero\n      iszero\n      iszero\n      iszero\n      dup2\n      mstore\n      pop\n      pop\n      swap1\n      pop\n        /* \"w9_liquidity_lending_pool_hw.sol\":11877:11878  0 */\n      0x00\n        /* \"w9_liquidity_lending_pool_hw.sol\":11859:11863  loan */\n      dup2\n        /* \"w9_liquidity_lending_pool_hw.sol\":11859:11874  loan.loanAmount */\n      0x20\n      add\n      mload\n        /* \"w9_liquidity_lending_pool_hw.sol\":11859:11878  loan.loanAmount > 0 */\n      gt\n        /* \"w9_liquidity_lending_pool_hw.sol\":11851:11919  require(loan.loanAmount > 0, \"Loan does not exist or has no amount\") */\n      tag_360\n      jumpi\n      mload(0x40)\n      0x08c379a000000000000000000000000000000000000000000000000000000000\n      dup2\n      mstore\n      0x04\n      add\n      tag_361\n      swap1\n      tag_362\n      jump\t// in\n    tag_361:\n      mload(0x40)\n      dup1\n      swap2\n      sub\n      swap1\n      revert\n    tag_360:\n        /* \"w9_liquidity_lending_pool_hw.sol\":11936:11940  loan */\n      dup1\n        /* \"w9_liquidity_lending_pool_hw.sol\":11936:11956  loan.repaymentAmount */\n      0x60\n      add\n      mload\n        /* \"w9_liquidity_lending_pool_hw.sol\":11929:11956  return loan.repaymentAmount */\n      swap2\n      pop\n      pop\n        /* \"w9_liquidity_lending_pool_hw.sol\":11719:11963  function calculateRepaymentAmount(uint256 loanId) public view returns (uint256) {... */\n      swap2\n      swap1\n      pop\n      jump\t// out\n        /* \"w9_liquidity_lending_pool_hw.sol\":10698:10885  function calculateFeeShare(address user) public view returns (uint256) {... */\n    tag_141:\n        /* \"w9_liquidity_lending_pool_hw.sol\":10760:10767  uint256 */\n      0x00\n        /* \"w9_liquidity_lending_pool_hw.sol\":10801:10802  0 */\n      dup1\n        /* \"w9_liquidity_lending_pool_hw.sol\":10783:10797  totalLiquidity */\n      sload(0x04)\n        /* \"w9_liquidity_lending_pool_hw.sol\":10783:10802  totalLiquidity == 0 */\n      sub\n        /* \"w9_liquidity_lending_pool_hw.sol\":10779:10812  if (totalLiquidity == 0) return 0 */\n      tag_364\n      jumpi\n        /* \"w9_liquidity_lending_pool_hw.sol\":10811:10812  0 */\n      0x00\n        /* \"w9_liquidity_lending_pool_hw.sol\":10804:10812  return 0 */\n      swap1\n      pop\n      jump(tag_363)\n        /* \"w9_liquidity_lending_pool_hw.sol\":10779:10812  if (totalLiquidity == 0) return 0 */\n    tag_364:\n        /* \"w9_liquidity_lending_pool_hw.sol\":10864:10878  totalLiquidity */\n      sload(0x04)\n        /* \"w9_liquidity_lending_pool_hw.sol\":10847:10860  accruedReward */\n      sload(0x0c)\n        /* \"w9_liquidity_lending_pool_hw.sol\":10830:10838  deposits */\n      0x02\n        /* \"w9_liquidity_lending_pool_hw.sol\":10830:10844  deposits[user] */\n      0x00\n        /* \"w9_liquidity_lending_pool_hw.sol\":10839:10843  user */\n      dup6\n        /* \"w9_liquidity_lending_pool_hw.sol\":10830:10844  deposits[user] */\n      0xffffffffffffffffffffffffffffffffffffffff\n      and\n      0xffffffffffffffffffffffffffffffffffffffff\n      and\n      dup2\n      mstore\n      0x20\n      add\n      swap1\n      dup2\n      mstore\n      0x20\n      add\n      0x00\n      keccak256\n      sload\n        /* \"w9_liquidity_lending_pool_hw.sol\":10830:10860  deposits[user] * accruedReward */\n      tag_365\n      swap2\n      swap1\n      tag_265\n      jump\t// in\n    tag_365:\n        /* \"w9_liquidity_lending_pool_hw.sol\":10829:10878  (deposits[user] * accruedReward) / totalLiquidity */\n      tag_366\n      swap2\n      swap1\n      tag_292\n      jump\t// in\n    tag_366:\n        /* \"w9_liquidity_lending_pool_hw.sol\":10822:10878  return (deposits[user] * accruedReward) / totalLiquidity */\n      swap1\n      pop\n        /* \"w9_liquidity_lending_pool_hw.sol\":10698:10885  function calculateFeeShare(address user) public view returns (uint256) {... */\n    tag_363:\n      swap2\n      swap1\n      pop\n      jump\t// out\n        /* \"w9_liquidity_lending_pool_hw.sol\":11057:11713  function distributeFees() external payable onlyOwner{... */\n    tag_144:\n        /* \"w9_liquidity_lending_pool_hw.sol\":2102:2107  owner */\n      0x01\n      0x00\n      swap1\n      sload\n      swap1\n      0x0100\n      exp\n      swap1\n      div\n      0xffffffffffffffffffffffffffffffffffffffff\n      and\n        /* \"w9_liquidity_lending_pool_hw.sol\":2088:2107  msg.sender == owner */\n      0xffffffffffffffffffffffffffffffffffffffff\n      and\n        /* \"w9_liquidity_lending_pool_hw.sol\":2088:2098  msg.sender */\n      caller\n        /* \"w9_liquidity_lending_pool_hw.sol\":2088:2107  msg.sender == owner */\n      0xffffffffffffffffffffffffffffffffffffffff\n      and\n      eq\n        /* \"w9_liquidity_lending_pool_hw.sol\":2080:2150  require(msg.sender == owner, \"Only the owner can perform this action\") */\n      tag_368\n      jumpi\n      mload(0x40)\n      0x08c379a000000000000000000000000000000000000000000000000000000000\n      dup2\n      mstore\n      0x04\n      add\n      tag_369\n      swap1\n      tag_243\n      jump\t// in\n    tag_369:\n      mload(0x40)\n      dup1\n      swap2\n      sub\n      swap1\n      revert\n    tag_368:\n        /* \"w9_liquidity_lending_pool_hw.sol\":11143:11144  0 */\n      0x00\n        /* \"w9_liquidity_lending_pool_hw.sol\":11127:11140  accruedReward */\n      sload(0x0c)\n        /* \"w9_liquidity_lending_pool_hw.sol\":11127:11144  accruedReward > 0 */\n      gt\n        /* \"w9_liquidity_lending_pool_hw.sol\":11119:11170  require(accruedReward > 0, \"No fees to distribute\") */\n      tag_371\n      jumpi\n      mload(0x40)\n      0x08c379a000000000000000000000000000000000000000000000000000000000\n      dup2\n      mstore\n      0x04\n      add\n      tag_372\n      swap1\n      tag_373\n      jump\t// in\n    tag_372:\n      mload(0x40)\n      dup1\n      swap2\n      sub\n      swap1\n      revert\n    tag_371:\n        /* \"w9_liquidity_lending_pool_hw.sol\":11180:11204  uint256 totalDistributed */\n      0x00\n        /* \"w9_liquidity_lending_pool_hw.sol\":11223:11232  uint256 i */\n      dup1\n        /* \"w9_liquidity_lending_pool_hw.sol\":11218:11663  for (uint256 i = 0; i < depositors.length; i++) {... */\n    tag_374:\n        /* \"w9_liquidity_lending_pool_hw.sol\":11242:11252  depositors */\n      0x0a\n        /* \"w9_liquidity_lending_pool_hw.sol\":11242:11259  depositors.length */\n      dup1\n      sload\n      swap1\n      pop\n        /* \"w9_liquidity_lending_pool_hw.sol\":11238:11239  i */\n      dup2\n        /* \"w9_liquidity_lending_pool_hw.sol\":11238:11259  i < depositors.length */\n      lt\n        /* \"w9_liquidity_lending_pool_hw.sol\":11218:11663  for (uint256 i = 0; i < depositors.length; i++) {... */\n      iszero\n      tag_375\n      jumpi\n        /* \"w9_liquidity_lending_pool_hw.sol\":11280:11297  address depositor */\n      0x00\n        /* \"w9_liquidity_lending_pool_hw.sol\":11300:11310  depositors */\n      0x0a\n        /* \"w9_liquidity_lending_pool_hw.sol\":11311:11312  i */\n      dup3\n        /* \"w9_liquidity_lending_pool_hw.sol\":11300:11313  depositors[i] */\n      dup2\n      sload\n      dup2\n      lt\n      tag_377\n      jumpi\n      tag_378\n      tag_222\n      jump\t// in\n    tag_378:\n    tag_377:\n      swap1\n      0x00\n      mstore\n      keccak256(0x00, 0x20)\n      add\n      0x00\n      swap1\n      sload\n      swap1\n      0x0100\n      exp\n      swap1\n      div\n      0xffffffffffffffffffffffffffffffffffffffff\n      and\n        /* \"w9_liquidity_lending_pool_hw.sol\":11280:11313  address depositor = depositors[i] */\n      swap1\n      pop\n        /* \"w9_liquidity_lending_pool_hw.sol\":11327:11340  uint256 share */\n      0x00\n        /* \"w9_liquidity_lending_pool_hw.sol\":11343:11371  calculateFeeShare(depositor) */\n      tag_380\n        /* \"w9_liquidity_lending_pool_hw.sol\":11361:11370  depositor */\n      dup3\n        /* \"w9_liquidity_lending_pool_hw.sol\":11343:11360  calculateFeeShare */\n      tag_141\n        /* \"w9_liquidity_lending_pool_hw.sol\":11343:11371  calculateFeeShare(depositor) */\n      jump\t// in\n    tag_380:\n        /* \"w9_liquidity_lending_pool_hw.sol\":11327:11371  uint256 share = calculateFeeShare(depositor) */\n      swap1\n      pop\n        /* \"w9_liquidity_lending_pool_hw.sol\":11398:11399  0 */\n      0x00\n        /* \"w9_liquidity_lending_pool_hw.sol\":11390:11395  share */\n      dup2\n        /* \"w9_liquidity_lending_pool_hw.sol\":11390:11399  share > 0 */\n      gt\n        /* \"w9_liquidity_lending_pool_hw.sol\":11386:11653  if (share > 0) {... */\n      iszero\n      tag_381\n      jumpi\n        /* \"w9_liquidity_lending_pool_hw.sol\":11439:11444  share */\n      dup1\n        /* \"w9_liquidity_lending_pool_hw.sol\":11419:11444  totalDistributed += share */\n      dup5\n      tag_382\n      swap2\n      swap1\n      tag_259\n      jump\t// in\n    tag_382:\n      swap4\n      pop\n        /* \"w9_liquidity_lending_pool_hw.sol\":11463:11475  bool success */\n      0x00\n        /* \"w9_liquidity_lending_pool_hw.sol\":11489:11498  depositor */\n      dup3\n        /* \"w9_liquidity_lending_pool_hw.sol\":11481:11504  payable(depositor).call */\n      0xffffffffffffffffffffffffffffffffffffffff\n      and\n        /* \"w9_liquidity_lending_pool_hw.sol\":11512:11517  share */\n      dup3\n        /* \"w9_liquidity_lending_pool_hw.sol\":11481:11522  payable(depositor).call{value: share}(\"\") */\n      mload(0x40)\n      tag_383\n      swap1\n      tag_208\n      jump\t// in\n    tag_383:\n      0x00\n      mload(0x40)\n      dup1\n      dup4\n      sub\n      dup2\n      dup6\n      dup8\n      gas\n      call\n      swap3\n      pop\n      pop\n      pop\n      returndatasize\n      dup1\n      0x00\n      dup2\n      eq\n      tag_386\n      jumpi\n      mload(0x40)\n      swap2\n      pop\n      and(add(returndatasize, 0x3f), not(0x1f))\n      dup3\n      add\n      0x40\n      mstore\n      returndatasize\n      dup3\n      mstore\n      returndatasize\n      0x00\n      0x20\n      dup5\n      add\n      returndatacopy\n      jump(tag_385)\n    tag_386:\n      0x60\n      swap2\n      pop\n    tag_385:\n      pop\n        /* \"w9_liquidity_lending_pool_hw.sol\":11462:11522  (bool success, ) = payable(depositor).call{value: share}(\"\") */\n      pop\n      swap1\n      pop\n        /* \"w9_liquidity_lending_pool_hw.sol\":11548:11555  success */\n      dup1\n        /* \"w9_liquidity_lending_pool_hw.sol\":11540:11583  require(success, \"Fee distribution failed\") */\n      tag_387\n      jumpi\n      mload(0x40)\n      0x08c379a000000000000000000000000000000000000000000000000000000000\n      dup2\n      mstore\n      0x04\n      add\n      tag_388\n      swap1\n      tag_389\n      jump\t// in\n    tag_388:\n      mload(0x40)\n      dup1\n      swap2\n      sub\n      swap1\n      revert\n    tag_387:\n        /* \"w9_liquidity_lending_pool_hw.sol\":11621:11630  depositor */\n      dup3\n        /* \"w9_liquidity_lending_pool_hw.sol\":11606:11638  FeeDistributed(depositor, share) */\n      0xffffffffffffffffffffffffffffffffffffffff\n      and\n      0x6c461460f28af1386f23dc4c0c7f4e2e54f0db320a8edc08803e4b787f6db325\n        /* \"w9_liquidity_lending_pool_hw.sol\":11632:11637  share */\n      dup4\n        /* \"w9_liquidity_lending_pool_hw.sol\":11606:11638  FeeDistributed(depositor, share) */\n      mload(0x40)\n      tag_390\n      swap2\n      swap1\n      tag_49\n      jump\t// in\n    tag_390:\n      mload(0x40)\n      dup1\n      swap2\n      sub\n      swap1\n      log2\n        /* \"w9_liquidity_lending_pool_hw.sol\":11401:11653  {... */\n      pop\n        /* \"w9_liquidity_lending_pool_hw.sol\":11386:11653  if (share > 0) {... */\n    tag_381:\n        /* \"w9_liquidity_lending_pool_hw.sol\":11266:11663  {... */\n      pop\n      pop\n        /* \"w9_liquidity_lending_pool_hw.sol\":11261:11264  i++ */\n      dup1\n      dup1\n      0x01\n      add\n      swap2\n      pop\n      pop\n        /* \"w9_liquidity_lending_pool_hw.sol\":11218:11663  for (uint256 i = 0; i < depositors.length; i++) {... */\n      jump(tag_374)\n    tag_375:\n      pop\n        /* \"w9_liquidity_lending_pool_hw.sol\":11690:11706  totalDistributed */\n      dup1\n        /* \"w9_liquidity_lending_pool_hw.sol\":11673:11686  accruedReward */\n      0x0c\n      0x00\n        /* \"w9_liquidity_lending_pool_hw.sol\":11673:11706  accruedReward -= totalDistributed */\n      dup3\n      dup3\n      sload\n      tag_391\n      swap2\n      swap1\n      tag_205\n      jump\t// in\n    tag_391:\n      swap3\n      pop\n      pop\n      dup2\n      swap1\n      sstore\n      pop\n        /* \"w9_liquidity_lending_pool_hw.sol\":11109:11713  {... */\n      pop\n        /* \"w9_liquidity_lending_pool_hw.sol\":11057:11713  function distributeFees() external payable onlyOwner{... */\n      jump\t// out\n        /* \"w9_liquidity_lending_pool_hw.sol\":805:840  uint256 public lastAccrualTimestamp */\n    tag_147:\n      sload(0x0b)\n      dup2\n      jump\t// out\n        /* \"w9_liquidity_lending_pool_hw.sol\":6749:7046  function getBalances(address account) external view returns (... */\n    tag_152:\n        /* \"w9_liquidity_lending_pool_hw.sol\":6819:6841  uint256 depositBalance */\n      0x00\n        /* \"w9_liquidity_lending_pool_hw.sol\":6851:6872  uint256 borrowBalance */\n      dup1\n        /* \"w9_liquidity_lending_pool_hw.sol\":6882:6907  uint256 collateralBalance */\n      0x00\n        /* \"w9_liquidity_lending_pool_hw.sol\":6945:6953  deposits */\n      0x02\n        /* \"w9_liquidity_lending_pool_hw.sol\":6945:6962  deposits[account] */\n      0x00\n        /* \"w9_liquidity_lending_pool_hw.sol\":6954:6961  account */\n      dup6\n        /* \"w9_liquidity_lending_pool_hw.sol\":6945:6962  deposits[account] */\n      0xffffffffffffffffffffffffffffffffffffffff\n      and\n      0xffffffffffffffffffffffffffffffffffffffff\n      and\n      dup2\n      mstore\n      0x20\n      add\n      swap1\n      dup2\n      mstore\n      0x20\n      add\n      0x00\n      keccak256\n      sload\n        /* \"w9_liquidity_lending_pool_hw.sol\":6976:6986  borrowings */\n      0x03\n        /* \"w9_liquidity_lending_pool_hw.sol\":6976:6995  borrowings[account] */\n      0x00\n        /* \"w9_liquidity_lending_pool_hw.sol\":6987:6994  account */\n      dup7\n        /* \"w9_liquidity_lending_pool_hw.sol\":6976:6995  borrowings[account] */\n      0xffffffffffffffffffffffffffffffffffffffff\n      and\n      0xffffffffffffffffffffffffffffffffffffffff\n      and\n      dup2\n      mstore\n      0x20\n      add\n      swap1\n      dup2\n      mstore\n      0x20\n      add\n      0x00\n      keccak256\n      sload\n        /* \"w9_liquidity_lending_pool_hw.sol\":7009:7020  collaterals */\n      0x00\n        /* \"w9_liquidity_lending_pool_hw.sol\":7009:7029  collaterals[account] */\n      dup1\n        /* \"w9_liquidity_lending_pool_hw.sol\":7021:7028  account */\n      dup8\n        /* \"w9_liquidity_lending_pool_hw.sol\":7009:7029  collaterals[account] */\n      0xffffffffffffffffffffffffffffffffffffffff\n      and\n      0xffffffffffffffffffffffffffffffffffffffff\n      and\n      dup2\n      mstore\n      0x20\n      add\n      swap1\n      dup2\n      mstore\n      0x20\n      add\n      0x00\n      keccak256\n      sload\n        /* \"w9_liquidity_lending_pool_hw.sol\":6924:7039  return (... */\n      swap3\n      pop\n      swap3\n      pop\n      swap3\n      pop\n        /* \"w9_liquidity_lending_pool_hw.sol\":6749:7046  function getBalances(address account) external view returns (... */\n      swap2\n      swap4\n      swap1\n      swap3\n      pop\n      jump\t// out\n        /* \"w9_liquidity_lending_pool_hw.sol\":538:570  uint256 public interest_rate = 5 */\n    tag_157:\n      sload(0x06)\n      dup2\n      jump\t// out\n        /* \"w9_liquidity_lending_pool_hw.sol\":2174:2452  function deposit() external payable {... */\n    tag_160:\n        /* \"w9_liquidity_lending_pool_hw.sol\":2240:2241  0 */\n      0x00\n        /* \"w9_liquidity_lending_pool_hw.sol\":2228:2237  msg.value */\n      callvalue\n        /* \"w9_liquidity_lending_pool_hw.sol\":2228:2241  msg.value > 0 */\n      gt\n        /* \"w9_liquidity_lending_pool_hw.sol\":2220:2283  require(msg.value > 0, \"Deposit amount must be greater than 0\") */\n      tag_394\n      jumpi\n      mload(0x40)\n      0x08c379a000000000000000000000000000000000000000000000000000000000\n      dup2\n      mstore\n      0x04\n      add\n      tag_395\n      swap1\n      tag_396\n      jump\t// in\n    tag_395:\n      mload(0x40)\n      dup1\n      swap2\n      sub\n      swap1\n      revert\n    tag_394:\n        /* \"w9_liquidity_lending_pool_hw.sol\":2317:2326  msg.value */\n      callvalue\n        /* \"w9_liquidity_lending_pool_hw.sol\":2293:2301  deposits */\n      0x02\n        /* \"w9_liquidity_lending_pool_hw.sol\":2293:2313  deposits[msg.sender] */\n      0x00\n        /* \"w9_liquidity_lending_pool_hw.sol\":2302:2312  msg.sender */\n      caller\n        /* \"w9_liquidity_lending_pool_hw.sol\":2293:2313  deposits[msg.sender] */\n      0xffffffffffffffffffffffffffffffffffffffff\n      and\n      0xffffffffffffffffffffffffffffffffffffffff\n      and\n      dup2\n      mstore\n      0x20\n      add\n      swap1\n      dup2\n      mstore\n      0x20\n      add\n      0x00\n      keccak256\n      0x00\n        /* \"w9_liquidity_lending_pool_hw.sol\":2293:2326  deposits[msg.sender] += msg.value */\n      dup3\n      dup3\n      sload\n      tag_397\n      swap2\n      swap1\n      tag_259\n      jump\t// in\n    tag_397:\n      swap3\n      pop\n      pop\n      dup2\n      swap1\n      sstore\n      pop\n        /* \"w9_liquidity_lending_pool_hw.sol\":2354:2363  msg.value */\n      callvalue\n        /* \"w9_liquidity_lending_pool_hw.sol\":2336:2350  totalLiquidity */\n      0x04\n      0x00\n        /* \"w9_liquidity_lending_pool_hw.sol\":2336:2363  totalLiquidity += msg.value */\n      dup3\n      dup3\n      sload\n      tag_398\n      swap2\n      swap1\n      tag_259\n      jump\t// in\n    tag_398:\n      swap3\n      pop\n      pop\n      dup2\n      swap1\n      sstore\n      pop\n        /* \"w9_liquidity_lending_pool_hw.sol\":2386:2396  msg.sender */\n      caller\n        /* \"w9_liquidity_lending_pool_hw.sol\":2378:2408  Deposit(msg.sender, msg.value) */\n      0xffffffffffffffffffffffffffffffffffffffff\n      and\n      0xe1fffcc4923d04b559f4d29a8bfc6cda04eb5b0d3c460751c2402c5c5cc9109c\n        /* \"w9_liquidity_lending_pool_hw.sol\":2398:2407  msg.value */\n      callvalue\n        /* \"w9_liquidity_lending_pool_hw.sol\":2378:2408  Deposit(msg.sender, msg.value) */\n      mload(0x40)\n      tag_399\n      swap2\n      swap1\n      tag_49\n      jump\t// in\n    tag_399:\n      mload(0x40)\n      dup1\n      swap2\n      sub\n      swap1\n      log2\n        /* \"w9_liquidity_lending_pool_hw.sol\":2418:2428  depositors */\n      0x0a\n        /* \"w9_liquidity_lending_pool_hw.sol\":2434:2444  msg.sender */\n      caller\n        /* \"w9_liquidity_lending_pool_hw.sol\":2418:2445  depositors.push(msg.sender) */\n      swap1\n      dup1\n      0x01\n      dup2\n      sload\n      add\n      dup1\n      dup3\n      sstore\n      dup1\n      swap2\n      pop\n      pop\n      0x01\n      swap1\n      sub\n      swap1\n      0x00\n      mstore\n      keccak256(0x00, 0x20)\n      add\n      0x00\n      swap1\n      swap2\n      swap1\n      swap2\n      swap1\n      swap2\n      0x0100\n      exp\n      dup2\n      sload\n      dup2\n      0xffffffffffffffffffffffffffffffffffffffff\n      mul\n      not\n      and\n      swap1\n      dup4\n      0xffffffffffffffffffffffffffffffffffffffff\n      and\n      mul\n      or\n      swap1\n      sstore\n      pop\n        /* \"w9_liquidity_lending_pool_hw.sol\":2174:2452  function deposit() external payable {... */\n      jump\t// out\n        /* \"w9_liquidity_lending_pool_hw.sol\":696:742  mapping(address => uint256[]) public userLoans */\n    tag_165:\n      mstore(0x20, 0x09)\n      dup2\n      0x00\n      mstore\n      keccak256(0x00, 0x40)\n      dup2\n      dup2\n      sload\n      dup2\n      lt\n      tag_401\n      jumpi\n      0x00\n      dup1\n      revert\n    tag_401:\n      swap1\n      0x00\n      mstore\n      keccak256(0x00, 0x20)\n      add\n      0x00\n      swap2\n      pop\n      swap2\n      pop\n      pop\n      sload\n      dup2\n      jump\t// out\n        /* \"w9_liquidity_lending_pool_hw.sol\":633:670  mapping(uint256 => Loan) public loans */\n    tag_170:\n      mstore(0x20, 0x08)\n      dup1\n      0x00\n      mstore\n      keccak256(0x00, 0x40)\n      0x00\n      swap2\n      pop\n      swap1\n      pop\n      dup1\n      0x00\n      add\n      0x00\n      swap1\n      sload\n      swap1\n      0x0100\n      exp\n      swap1\n      div\n      0xffffffffffffffffffffffffffffffffffffffff\n      and\n      swap1\n      dup1\n      0x01\n      add\n      sload\n      swap1\n      dup1\n      0x02\n      add\n      sload\n      swap1\n      dup1\n      0x03\n      add\n      sload\n      swap1\n      dup1\n      0x04\n      add\n      sload\n      swap1\n      dup1\n      0x05\n      add\n      0x00\n      swap1\n      sload\n      swap1\n      0x0100\n      exp\n      swap1\n      div\n      0xff\n      and\n      swap1\n      dup1\n      0x05\n      add\n      0x01\n      swap1\n      sload\n      swap1\n      0x0100\n      exp\n      swap1\n      div\n      0xff\n      and\n      swap1\n      pop\n      dup8\n      jump\t// out\n        /* \"w9_liquidity_lending_pool_hw.sol\":772:799  address[] public depositors */\n    tag_176:\n      0x0a\n      dup2\n      dup2\n      sload\n      dup2\n      lt\n      tag_403\n      jumpi\n      0x00\n      dup1\n      revert\n    tag_403:\n      swap1\n      0x00\n      mstore\n      keccak256(0x00, 0x20)\n      add\n      0x00\n      swap2\n      pop\n      sload\n      swap1\n      0x0100\n      exp\n      swap1\n      div\n      0xffffffffffffffffffffffffffffffffffffffff\n      and\n      dup2\n      jump\t// out\n        /* \"w9_liquidity_lending_pool_hw.sol\":12790:13001  function requiredRepaymentAmount(uint256 loan) public view returns (uint256) {... */\n    tag_181:\n        /* \"w9_liquidity_lending_pool_hw.sol\":12858:12865  uint256 */\n      0x00\n        /* \"w9_liquidity_lending_pool_hw.sol\":12888:12889  0 */\n      dup1\n        /* \"w9_liquidity_lending_pool_hw.sol\":12881:12885  loan */\n      dup3\n        /* \"w9_liquidity_lending_pool_hw.sol\":12881:12889  loan > 0 */\n      gt\n        /* \"w9_liquidity_lending_pool_hw.sol\":12873:12917  require(loan > 0, \"Loan amount must be > 0\") */\n      tag_406\n      jumpi\n      mload(0x40)\n      0x08c379a000000000000000000000000000000000000000000000000000000000\n      dup2\n      mstore\n      0x04\n      add\n      tag_407\n      swap1\n      tag_356\n      jump\t// in\n    tag_407:\n      mload(0x40)\n      dup1\n      swap2\n      sub\n      swap1\n      revert\n    tag_406:\n        /* \"w9_liquidity_lending_pool_hw.sol\":12923:12939  uint256 interest */\n      0x00\n        /* \"w9_liquidity_lending_pool_hw.sol\":12967:12970  100 */\n      0x64\n        /* \"w9_liquidity_lending_pool_hw.sol\":12950:12963  interest_rate */\n      sload(0x06)\n        /* \"w9_liquidity_lending_pool_hw.sol\":12943:12947  loan */\n      dup5\n        /* \"w9_liquidity_lending_pool_hw.sol\":12943:12963  loan * interest_rate */\n      tag_408\n      swap2\n      swap1\n      tag_265\n      jump\t// in\n    tag_408:\n        /* \"w9_liquidity_lending_pool_hw.sol\":12942:12970  (loan * interest_rate) / 100 */\n      tag_409\n      swap2\n      swap1\n      tag_292\n      jump\t// in\n    tag_409:\n        /* \"w9_liquidity_lending_pool_hw.sol\":12923:12970  uint256 interest = (loan * interest_rate) / 100 */\n      swap1\n      pop\n        /* \"w9_liquidity_lending_pool_hw.sol\":12990:12998  interest */\n      dup1\n        /* \"w9_liquidity_lending_pool_hw.sol\":12983:12987  loan */\n      dup4\n        /* \"w9_liquidity_lending_pool_hw.sol\":12983:12998  loan + interest */\n      tag_410\n      swap2\n      swap1\n      tag_259\n      jump\t// in\n    tag_410:\n        /* \"w9_liquidity_lending_pool_hw.sol\":12976:12998  return loan + interest */\n      swap2\n      pop\n      pop\n        /* \"w9_liquidity_lending_pool_hw.sol\":12790:13001  function requiredRepaymentAmount(uint256 loan) public view returns (uint256) {... */\n      swap2\n      swap1\n      pop\n      jump\t// out\n        /* \"w9_liquidity_lending_pool_hw.sol\":126:172  mapping(address => uint256) public collaterals */\n    tag_186:\n      mstore(0x20, 0x00)\n      dup1\n      0x00\n      mstore\n      keccak256(0x00, 0x40)\n      0x00\n      swap2\n      pop\n      swap1\n      pop\n      sload\n      dup2\n      jump\t// out\n        /* \"w9_liquidity_lending_pool_hw.sol\":241:284  mapping(address => uint256) public deposits */\n    tag_191:\n      mstore(0x20, 0x02)\n      dup1\n      0x00\n      mstore\n      keccak256(0x00, 0x40)\n      0x00\n      swap2\n      pop\n      swap1\n      pop\n      sload\n      dup2\n      jump\t// out\n        /* \"w9_liquidity_lending_pool_hw.sol\":2738:3003  function findDepositorIndex(address a) internal view returns (bool, uint256) {... */\n    tag_217:\n        /* \"w9_liquidity_lending_pool_hw.sol\":2800:2804  bool */\n      0x00\n        /* \"w9_liquidity_lending_pool_hw.sol\":2806:2813  uint256 */\n      dup1\n        /* \"w9_liquidity_lending_pool_hw.sol\":2830:2839  uint256 i */\n      0x00\n        /* \"w9_liquidity_lending_pool_hw.sol\":2825:2970  for (uint256 i = 0; i < depositors.length; i++) {... */\n    tag_412:\n        /* \"w9_liquidity_lending_pool_hw.sol\":2849:2859  depositors */\n      0x0a\n        /* \"w9_liquidity_lending_pool_hw.sol\":2849:2866  depositors.length */\n      dup1\n      sload\n      swap1\n      pop\n        /* \"w9_liquidity_lending_pool_hw.sol\":2845:2846  i */\n      dup2\n        /* \"w9_liquidity_lending_pool_hw.sol\":2845:2866  i < depositors.length */\n      lt\n        /* \"w9_liquidity_lending_pool_hw.sol\":2825:2970  for (uint256 i = 0; i < depositors.length; i++) {... */\n      iszero\n      tag_413\n      jumpi\n        /* \"w9_liquidity_lending_pool_hw.sol\":2908:2909  a */\n      dup4\n        /* \"w9_liquidity_lending_pool_hw.sol\":2891:2909  depositors[i] == a */\n      0xffffffffffffffffffffffffffffffffffffffff\n      and\n        /* \"w9_liquidity_lending_pool_hw.sol\":2891:2901  depositors */\n      0x0a\n        /* \"w9_liquidity_lending_pool_hw.sol\":2902:2903  i */\n      dup3\n        /* \"w9_liquidity_lending_pool_hw.sol\":2891:2904  depositors[i] */\n      dup2\n      sload\n      dup2\n      lt\n      tag_415\n      jumpi\n      tag_416\n      tag_222\n      jump\t// in\n    tag_416:\n    tag_415:\n      swap1\n      0x00\n      mstore\n      keccak256(0x00, 0x20)\n      add\n      0x00\n      swap1\n      sload\n      swap1\n      0x0100\n      exp\n      swap1\n      div\n      0xffffffffffffffffffffffffffffffffffffffff\n      and\n        /* \"w9_liquidity_lending_pool_hw.sol\":2891:2909  depositors[i] == a */\n      0xffffffffffffffffffffffffffffffffffffffff\n      and\n      sub\n        /* \"w9_liquidity_lending_pool_hw.sol\":2887:2960  if (depositors[i] == a) {... */\n      tag_418\n      jumpi\n        /* \"w9_liquidity_lending_pool_hw.sol\":2937:2941  true */\n      0x01\n        /* \"w9_liquidity_lending_pool_hw.sol\":2943:2944  i */\n      dup2\n        /* \"w9_liquidity_lending_pool_hw.sol\":2929:2945  return (true, i) */\n      swap3\n      pop\n      swap3\n      pop\n      pop\n      jump(tag_411)\n        /* \"w9_liquidity_lending_pool_hw.sol\":2887:2960  if (depositors[i] == a) {... */\n    tag_418:\n        /* \"w9_liquidity_lending_pool_hw.sol\":2868:2871  i++ */\n      dup1\n      dup1\n      0x01\n      add\n      swap2\n      pop\n      pop\n        /* \"w9_liquidity_lending_pool_hw.sol\":2825:2970  for (uint256 i = 0; i < depositors.length; i++) {... */\n      jump(tag_412)\n    tag_413:\n      pop\n        /* \"w9_liquidity_lending_pool_hw.sol\":2987:2992  false */\n      0x00\n        /* \"w9_liquidity_lending_pool_hw.sol\":2994:2995  0 */\n      dup1\n        /* \"w9_liquidity_lending_pool_hw.sol\":2979:2996  return (false, 0) */\n      swap2\n      pop\n      swap2\n      pop\n        /* \"w9_liquidity_lending_pool_hw.sol\":2738:3003  function findDepositorIndex(address a) internal view returns (bool, uint256) {... */\n    tag_411:\n      swap2\n      pop\n      swap2\n      jump\t// out\n        /* \"#utility.yul\":7:84   */\n    tag_419:\n        /* \"#utility.yul\":44:51   */\n      0x00\n        /* \"#utility.yul\":73:78   */\n      dup2\n        /* \"#utility.yul\":62:78   */\n      swap1\n      pop\n        /* \"#utility.yul\":7:84   */\n      swap2\n      swap1\n      pop\n      jump\t// out\n        /* \"#utility.yul\":90:208   */\n    tag_420:\n        /* \"#utility.yul\":177:201   */\n      tag_490\n        /* \"#utility.yul\":195:200   */\n      dup2\n        /* \"#utility.yul\":177:201   */\n      tag_419\n      jump\t// in\n    tag_490:\n        /* \"#utility.yul\":172:175   */\n      dup3\n        /* \"#utility.yul\":165:202   */\n      mstore\n        /* \"#utility.yul\":90:208   */\n      pop\n      pop\n      jump\t// out\n        /* \"#utility.yul\":214:436   */\n    tag_49:\n        /* \"#utility.yul\":307:311   */\n      0x00\n        /* \"#utility.yul\":345:347   */\n      0x20\n        /* \"#utility.yul\":334:343   */\n      dup3\n        /* \"#utility.yul\":330:348   */\n      add\n        /* \"#utility.yul\":322:348   */\n      swap1\n      pop\n        /* \"#utility.yul\":358:429   */\n      tag_492\n        /* \"#utility.yul\":426:427   */\n      0x00\n        /* \"#utility.yul\":415:424   */\n      dup4\n        /* \"#utility.yul\":411:428   */\n      add\n        /* \"#utility.yul\":402:408   */\n      dup5\n        /* \"#utility.yul\":358:429   */\n      tag_420\n      jump\t// in\n    tag_492:\n        /* \"#utility.yul\":214:436   */\n      swap3\n      swap2\n      pop\n      pop\n      jump\t// out\n        /* \"#utility.yul\":523:640   */\n    tag_422:\n        /* \"#utility.yul\":632:633   */\n      0x00\n        /* \"#utility.yul\":629:630   */\n      dup1\n        /* \"#utility.yul\":622:634   */\n      revert\n        /* \"#utility.yul\":769:891   */\n    tag_424:\n        /* \"#utility.yul\":842:866   */\n      tag_497\n        /* \"#utility.yul\":860:865   */\n      dup2\n        /* \"#utility.yul\":842:866   */\n      tag_419\n      jump\t// in\n    tag_497:\n        /* \"#utility.yul\":835:840   */\n      dup2\n        /* \"#utility.yul\":832:867   */\n      eq\n        /* \"#utility.yul\":822:885   */\n      tag_498\n      jumpi\n        /* \"#utility.yul\":881:882   */\n      0x00\n        /* \"#utility.yul\":878:879   */\n      dup1\n        /* \"#utility.yul\":871:883   */\n      revert\n        /* \"#utility.yul\":822:885   */\n    tag_498:\n        /* \"#utility.yul\":769:891   */\n      pop\n      jump\t// out\n        /* \"#utility.yul\":897:1036   */\n    tag_425:\n        /* \"#utility.yul\":943:948   */\n      0x00\n        /* \"#utility.yul\":981:987   */\n      dup2\n        /* \"#utility.yul\":968:988   */\n      calldataload\n        /* \"#utility.yul\":959:988   */\n      swap1\n      pop\n        /* \"#utility.yul\":997:1030   */\n      tag_500\n        /* \"#utility.yul\":1024:1029   */\n      dup2\n        /* \"#utility.yul\":997:1030   */\n      tag_424\n      jump\t// in\n    tag_500:\n        /* \"#utility.yul\":897:1036   */\n      swap3\n      swap2\n      pop\n      pop\n      jump\t// out\n        /* \"#utility.yul\":1042:1371   */\n    tag_52:\n        /* \"#utility.yul\":1101:1107   */\n      0x00\n        /* \"#utility.yul\":1150:1152   */\n      0x20\n        /* \"#utility.yul\":1138:1147   */\n      dup3\n        /* \"#utility.yul\":1129:1136   */\n      dup5\n        /* \"#utility.yul\":1125:1148   */\n      sub\n        /* \"#utility.yul\":1121:1153   */\n      slt\n        /* \"#utility.yul\":1118:1237   */\n      iszero\n      tag_502\n      jumpi\n        /* \"#utility.yul\":1156:1235   */\n      tag_503\n      tag_422\n      jump\t// in\n    tag_503:\n        /* \"#utility.yul\":1118:1237   */\n    tag_502:\n        /* \"#utility.yul\":1276:1277   */\n      0x00\n        /* \"#utility.yul\":1301:1354   */\n      tag_504\n        /* \"#utility.yul\":1346:1353   */\n      dup5\n        /* \"#utility.yul\":1337:1343   */\n      dup3\n        /* \"#utility.yul\":1326:1335   */\n      dup6\n        /* \"#utility.yul\":1322:1344   */\n      add\n        /* \"#utility.yul\":1301:1354   */\n      tag_425\n      jump\t// in\n    tag_504:\n        /* \"#utility.yul\":1291:1354   */\n      swap2\n      pop\n        /* \"#utility.yul\":1247:1364   */\n      pop\n        /* \"#utility.yul\":1042:1371   */\n      swap3\n      swap2\n      pop\n      pop\n      jump\t// out\n        /* \"#utility.yul\":1377:1503   */\n    tag_426:\n        /* \"#utility.yul\":1414:1421   */\n      0x00\n        /* \"#utility.yul\":1454:1496   */\n      0xffffffffffffffffffffffffffffffffffffffff\n        /* \"#utility.yul\":1447:1452   */\n      dup3\n        /* \"#utility.yul\":1443:1497   */\n      and\n        /* \"#utility.yul\":1432:1497   */\n      swap1\n      pop\n        /* \"#utility.yul\":1377:1503   */\n      swap2\n      swap1\n      pop\n      jump\t// out\n        /* \"#utility.yul\":1509:1605   */\n    tag_427:\n        /* \"#utility.yul\":1546:1553   */\n      0x00\n        /* \"#utility.yul\":1575:1599   */\n      tag_507\n        /* \"#utility.yul\":1593:1598   */\n      dup3\n        /* \"#utility.yul\":1575:1599   */\n      tag_426\n      jump\t// in\n    tag_507:\n        /* \"#utility.yul\":1564:1599   */\n      swap1\n      pop\n        /* \"#utility.yul\":1509:1605   */\n      swap2\n      swap1\n      pop\n      jump\t// out\n        /* \"#utility.yul\":1611:1733   */\n    tag_428:\n        /* \"#utility.yul\":1684:1708   */\n      tag_509\n        /* \"#utility.yul\":1702:1707   */\n      dup2\n        /* \"#utility.yul\":1684:1708   */\n      tag_427\n      jump\t// in\n    tag_509:\n        /* \"#utility.yul\":1677:1682   */\n      dup2\n        /* \"#utility.yul\":1674:1709   */\n      eq\n        /* \"#utility.yul\":1664:1727   */\n      tag_510\n      jumpi\n        /* \"#utility.yul\":1723:1724   */\n      0x00\n        /* \"#utility.yul\":1720:1721   */\n      dup1\n        /* \"#utility.yul\":1713:1725   */\n      revert\n        /* \"#utility.yul\":1664:1727   */\n    tag_510:\n        /* \"#utility.yul\":1611:1733   */\n      pop\n      jump\t// out\n        /* \"#utility.yul\":1739:1878   */\n    tag_429:\n        /* \"#utility.yul\":1785:1790   */\n      0x00\n        /* \"#utility.yul\":1823:1829   */\n      dup2\n        /* \"#utility.yul\":1810:1830   */\n      calldataload\n        /* \"#utility.yul\":1801:1830   */\n      swap1\n      pop\n        /* \"#utility.yul\":1839:1872   */\n      tag_512\n        /* \"#utility.yul\":1866:1871   */\n      dup2\n        /* \"#utility.yul\":1839:1872   */\n      tag_428\n      jump\t// in\n    tag_512:\n        /* \"#utility.yul\":1739:1878   */\n      swap3\n      swap2\n      pop\n      pop\n      jump\t// out\n        /* \"#utility.yul\":1884:2213   */\n    tag_57:\n        /* \"#utility.yul\":1943:1949   */\n      0x00\n        /* \"#utility.yul\":1992:1994   */\n      0x20\n        /* \"#utility.yul\":1980:1989   */\n      dup3\n        /* \"#utility.yul\":1971:1978   */\n      dup5\n        /* \"#utility.yul\":1967:1990   */\n      sub\n        /* \"#utility.yul\":1963:1995   */\n      slt\n        /* \"#utility.yul\":1960:2079   */\n      iszero\n      tag_514\n      jumpi\n        /* \"#utility.yul\":1998:2077   */\n      tag_515\n      tag_422\n      jump\t// in\n    tag_515:\n        /* \"#utility.yul\":1960:2079   */\n    tag_514:\n        /* \"#utility.yul\":2118:2119   */\n      0x00\n        /* \"#utility.yul\":2143:2196   */\n      tag_516\n        /* \"#utility.yul\":2188:2195   */\n      dup5\n        /* \"#utility.yul\":2179:2185   */\n      dup3\n        /* \"#utility.yul\":2168:2177   */\n      dup6\n        /* \"#utility.yul\":2164:2186   */\n      add\n        /* \"#utility.yul\":2143:2196   */\n      tag_429\n      jump\t// in\n    tag_516:\n        /* \"#utility.yul\":2133:2196   */\n      swap2\n      pop\n        /* \"#utility.yul\":2089:2206   */\n      pop\n        /* \"#utility.yul\":1884:2213   */\n      swap3\n      swap2\n      pop\n      pop\n      jump\t// out\n        /* \"#utility.yul\":2219:2309   */\n    tag_430:\n        /* \"#utility.yul\":2253:2260   */\n      0x00\n        /* \"#utility.yul\":2296:2301   */\n      dup2\n        /* \"#utility.yul\":2289:2302   */\n      iszero\n        /* \"#utility.yul\":2282:2303   */\n      iszero\n        /* \"#utility.yul\":2271:2303   */\n      swap1\n      pop\n        /* \"#utility.yul\":2219:2309   */\n      swap2\n      swap1\n      pop\n      jump\t// out\n        /* \"#utility.yul\":2315:2424   */\n    tag_431:\n        /* \"#utility.yul\":2396:2417   */\n      tag_519\n        /* \"#utility.yul\":2411:2416   */\n      dup2\n        /* \"#utility.yul\":2396:2417   */\n      tag_430\n      jump\t// in\n    tag_519:\n        /* \"#utility.yul\":2391:2394   */\n      dup3\n        /* \"#utility.yul\":2384:2418   */\n      mstore\n        /* \"#utility.yul\":2315:2424   */\n      pop\n      pop\n      jump\t// out\n        /* \"#utility.yul\":2430:2640   */\n    tag_60:\n        /* \"#utility.yul\":2517:2521   */\n      0x00\n        /* \"#utility.yul\":2555:2557   */\n      0x20\n        /* \"#utility.yul\":2544:2553   */\n      dup3\n        /* \"#utility.yul\":2540:2558   */\n      add\n        /* \"#utility.yul\":2532:2558   */\n      swap1\n      pop\n        /* \"#utility.yul\":2568:2633   */\n      tag_521\n        /* \"#utility.yul\":2630:2631   */\n      0x00\n        /* \"#utility.yul\":2619:2628   */\n      dup4\n        /* \"#utility.yul\":2615:2632   */\n      add\n        /* \"#utility.yul\":2606:2612   */\n      dup5\n        /* \"#utility.yul\":2568:2633   */\n      tag_431\n      jump\t// in\n    tag_521:\n        /* \"#utility.yul\":2430:2640   */\n      swap3\n      swap2\n      pop\n      pop\n      jump\t// out\n        /* \"#utility.yul\":2646:2764   */\n    tag_432:\n        /* \"#utility.yul\":2733:2757   */\n      tag_523\n        /* \"#utility.yul\":2751:2756   */\n      dup2\n        /* \"#utility.yul\":2733:2757   */\n      tag_427\n      jump\t// in\n    tag_523:\n        /* \"#utility.yul\":2728:2731   */\n      dup3\n        /* \"#utility.yul\":2721:2758   */\n      mstore\n        /* \"#utility.yul\":2646:2764   */\n      pop\n      pop\n      jump\t// out\n        /* \"#utility.yul\":2770:2992   */\n    tag_103:\n        /* \"#utility.yul\":2863:2867   */\n      0x00\n        /* \"#utility.yul\":2901:2903   */\n      0x20\n        /* \"#utility.yul\":2890:2899   */\n      dup3\n        /* \"#utility.yul\":2886:2904   */\n      add\n        /* \"#utility.yul\":2878:2904   */\n      swap1\n      pop\n        /* \"#utility.yul\":2914:2985   */\n      tag_525\n        /* \"#utility.yul\":2982:2983   */\n      0x00\n        /* \"#utility.yul\":2971:2980   */\n      dup4\n        /* \"#utility.yul\":2967:2984   */\n      add\n        /* \"#utility.yul\":2958:2964   */\n      dup5\n        /* \"#utility.yul\":2914:2985   */\n      tag_432\n      jump\t// in\n    tag_525:\n        /* \"#utility.yul\":2770:2992   */\n      swap3\n      swap2\n      pop\n      pop\n      jump\t// out\n        /* \"#utility.yul\":2998:3472   */\n    tag_120:\n        /* \"#utility.yul\":3066:3072   */\n      0x00\n        /* \"#utility.yul\":3074:3080   */\n      dup1\n        /* \"#utility.yul\":3123:3125   */\n      0x40\n        /* \"#utility.yul\":3111:3120   */\n      dup4\n        /* \"#utility.yul\":3102:3109   */\n      dup6\n        /* \"#utility.yul\":3098:3121   */\n      sub\n        /* \"#utility.yul\":3094:3126   */\n      slt\n        /* \"#utility.yul\":3091:3210   */\n      iszero\n      tag_527\n      jumpi\n        /* \"#utility.yul\":3129:3208   */\n      tag_528\n      tag_422\n      jump\t// in\n    tag_528:\n        /* \"#utility.yul\":3091:3210   */\n    tag_527:\n        /* \"#utility.yul\":3249:3250   */\n      0x00\n        /* \"#utility.yul\":3274:3327   */\n      tag_529\n        /* \"#utility.yul\":3319:3326   */\n      dup6\n        /* \"#utility.yul\":3310:3316   */\n      dup3\n        /* \"#utility.yul\":3299:3308   */\n      dup7\n        /* \"#utility.yul\":3295:3317   */\n      add\n        /* \"#utility.yul\":3274:3327   */\n      tag_425\n      jump\t// in\n    tag_529:\n        /* \"#utility.yul\":3264:3327   */\n      swap3\n      pop\n        /* \"#utility.yul\":3220:3337   */\n      pop\n        /* \"#utility.yul\":3376:3378   */\n      0x20\n        /* \"#utility.yul\":3402:3455   */\n      tag_530\n        /* \"#utility.yul\":3447:3454   */\n      dup6\n        /* \"#utility.yul\":3438:3444   */\n      dup3\n        /* \"#utility.yul\":3427:3436   */\n      dup7\n        /* \"#utility.yul\":3423:3445   */\n      add\n        /* \"#utility.yul\":3402:3455   */\n      tag_425\n      jump\t// in\n    tag_530:\n        /* \"#utility.yul\":3392:3455   */\n      swap2\n      pop\n        /* \"#utility.yul\":3347:3465   */\n      pop\n        /* \"#utility.yul\":2998:3472   */\n      swap3\n      pop\n      swap3\n      swap1\n      pop\n      jump\t// out\n        /* \"#utility.yul\":3478:3920   */\n    tag_154:\n        /* \"#utility.yul\":3627:3631   */\n      0x00\n        /* \"#utility.yul\":3665:3667   */\n      0x60\n        /* \"#utility.yul\":3654:3663   */\n      dup3\n        /* \"#utility.yul\":3650:3668   */\n      add\n        /* \"#utility.yul\":3642:3668   */\n      swap1\n      pop\n        /* \"#utility.yul\":3678:3749   */\n      tag_532\n        /* \"#utility.yul\":3746:3747   */\n      0x00\n        /* \"#utility.yul\":3735:3744   */\n      dup4\n        /* \"#utility.yul\":3731:3748   */\n      add\n        /* \"#utility.yul\":3722:3728   */\n      dup7\n        /* \"#utility.yul\":3678:3749   */\n      tag_420\n      jump\t// in\n    tag_532:\n        /* \"#utility.yul\":3759:3831   */\n      tag_533\n        /* \"#utility.yul\":3827:3829   */\n      0x20\n        /* \"#utility.yul\":3816:3825   */\n      dup4\n        /* \"#utility.yul\":3812:3830   */\n      add\n        /* \"#utility.yul\":3803:3809   */\n      dup6\n        /* \"#utility.yul\":3759:3831   */\n      tag_420\n      jump\t// in\n    tag_533:\n        /* \"#utility.yul\":3841:3913   */\n      tag_534\n        /* \"#utility.yul\":3909:3911   */\n      0x40\n        /* \"#utility.yul\":3898:3907   */\n      dup4\n        /* \"#utility.yul\":3894:3912   */\n      add\n        /* \"#utility.yul\":3885:3891   */\n      dup5\n        /* \"#utility.yul\":3841:3913   */\n      tag_420\n      jump\t// in\n    tag_534:\n        /* \"#utility.yul\":3478:3920   */\n      swap5\n      swap4\n      pop\n      pop\n      pop\n      pop\n      jump\t// out\n        /* \"#utility.yul\":3926:4400   */\n    tag_164:\n        /* \"#utility.yul\":3994:4000   */\n      0x00\n        /* \"#utility.yul\":4002:4008   */\n      dup1\n        /* \"#utility.yul\":4051:4053   */\n      0x40\n        /* \"#utility.yul\":4039:4048   */\n      dup4\n        /* \"#utility.yul\":4030:4037   */\n      dup6\n        /* \"#utility.yul\":4026:4049   */\n      sub\n        /* \"#utility.yul\":4022:4054   */\n      slt\n        /* \"#utility.yul\":4019:4138   */\n      iszero\n      tag_536\n      jumpi\n        /* \"#utility.yul\":4057:4136   */\n      tag_537\n      tag_422\n      jump\t// in\n    tag_537:\n        /* \"#utility.yul\":4019:4138   */\n    tag_536:\n        /* \"#utility.yul\":4177:4178   */\n      0x00\n        /* \"#utility.yul\":4202:4255   */\n      tag_538\n        /* \"#utility.yul\":4247:4254   */\n      dup6\n        /* \"#utility.yul\":4238:4244   */\n      dup3\n        /* \"#utility.yul\":4227:4236   */\n      dup7\n        /* \"#utility.yul\":4223:4245   */\n      add\n        /* \"#utility.yul\":4202:4255   */\n      tag_429\n      jump\t// in\n    tag_538:\n        /* \"#utility.yul\":4192:4255   */\n      swap3\n      pop\n        /* \"#utility.yul\":4148:4265   */\n      pop\n        /* \"#utility.yul\":4304:4306   */\n      0x20\n        /* \"#utility.yul\":4330:4383   */\n      tag_539\n        /* \"#utility.yul\":4375:4382   */\n      dup6\n        /* \"#utility.yul\":4366:4372   */\n      dup3\n        /* \"#utility.yul\":4355:4364   */\n      dup7\n        /* \"#utility.yul\":4351:4373   */\n      add\n        /* \"#utility.yul\":4330:4383   */\n      tag_425\n      jump\t// in\n    tag_539:\n        /* \"#utility.yul\":4320:4383   */\n      swap2\n      pop\n        /* \"#utility.yul\":4275:4393   */\n      pop\n        /* \"#utility.yul\":3926:4400   */\n      swap3\n      pop\n      swap3\n      swap1\n      pop\n      jump\t// out\n        /* \"#utility.yul\":4406:5268   */\n    tag_172:\n        /* \"#utility.yul\":4655:4659   */\n      0x00\n        /* \"#utility.yul\":4693:4696   */\n      0xe0\n        /* \"#utility.yul\":4682:4691   */\n      dup3\n        /* \"#utility.yul\":4678:4697   */\n      add\n        /* \"#utility.yul\":4670:4697   */\n      swap1\n      pop\n        /* \"#utility.yul\":4707:4778   */\n      tag_541\n        /* \"#utility.yul\":4775:4776   */\n      0x00\n        /* \"#utility.yul\":4764:4773   */\n      dup4\n        /* \"#utility.yul\":4760:4777   */\n      add\n        /* \"#utility.yul\":4751:4757   */\n      dup11\n        /* \"#utility.yul\":4707:4778   */\n      tag_432\n      jump\t// in\n    tag_541:\n        /* \"#utility.yul\":4788:4860   */\n      tag_542\n        /* \"#utility.yul\":4856:4858   */\n      0x20\n        /* \"#utility.yul\":4845:4854   */\n      dup4\n        /* \"#utility.yul\":4841:4859   */\n      add\n        /* \"#utility.yul\":4832:4838   */\n      dup10\n        /* \"#utility.yul\":4788:4860   */\n      tag_420\n      jump\t// in\n    tag_542:\n        /* \"#utility.yul\":4870:4942   */\n      tag_543\n        /* \"#utility.yul\":4938:4940   */\n      0x40\n        /* \"#utility.yul\":4927:4936   */\n      dup4\n        /* \"#utility.yul\":4923:4941   */\n      add\n        /* \"#utility.yul\":4914:4920   */\n      dup9\n        /* \"#utility.yul\":4870:4942   */\n      tag_420\n      jump\t// in\n    tag_543:\n        /* \"#utility.yul\":4952:5024   */\n      tag_544\n        /* \"#utility.yul\":5020:5022   */\n      0x60\n        /* \"#utility.yul\":5009:5018   */\n      dup4\n        /* \"#utility.yul\":5005:5023   */\n      add\n        /* \"#utility.yul\":4996:5002   */\n      dup8\n        /* \"#utility.yul\":4952:5024   */\n      tag_420\n      jump\t// in\n    tag_544:\n        /* \"#utility.yul\":5034:5107   */\n      tag_545\n        /* \"#utility.yul\":5102:5105   */\n      0x80\n        /* \"#utility.yul\":5091:5100   */\n      dup4\n        /* \"#utility.yul\":5087:5106   */\n      add\n        /* \"#utility.yul\":5078:5084   */\n      dup7\n        /* \"#utility.yul\":5034:5107   */\n      tag_420\n      jump\t// in\n    tag_545:\n        /* \"#utility.yul\":5117:5184   */\n      tag_546\n        /* \"#utility.yul\":5179:5182   */\n      0xa0\n        /* \"#utility.yul\":5168:5177   */\n      dup4\n        /* \"#utility.yul\":5164:5183   */\n      add\n        /* \"#utility.yul\":5155:5161   */\n      dup6\n        /* \"#utility.yul\":5117:5184   */\n      tag_431\n      jump\t// in\n    tag_546:\n        /* \"#utility.yul\":5194:5261   */\n      tag_547\n        /* \"#utility.yul\":5256:5259   */\n      0xc0\n        /* \"#utility.yul\":5245:5254   */\n      dup4\n        /* \"#utility.yul\":5241:5260   */\n      add\n        /* \"#utility.yul\":5232:5238   */\n      dup5\n        /* \"#utility.yul\":5194:5261   */\n      tag_431\n      jump\t// in\n    tag_547:\n        /* \"#utility.yul\":4406:5268   */\n      swap9\n      swap8\n      pop\n      pop\n      pop\n      pop\n      pop\n      pop\n      pop\n      pop\n      jump\t// out\n        /* \"#utility.yul\":5274:5443   */\n    tag_433:\n        /* \"#utility.yul\":5358:5369   */\n      0x00\n        /* \"#utility.yul\":5392:5398   */\n      dup3\n        /* \"#utility.yul\":5387:5390   */\n      dup3\n        /* \"#utility.yul\":5380:5399   */\n      mstore\n        /* \"#utility.yul\":5432:5436   */\n      0x20\n        /* \"#utility.yul\":5427:5430   */\n      dup3\n        /* \"#utility.yul\":5423:5437   */\n      add\n        /* \"#utility.yul\":5408:5437   */\n      swap1\n      pop\n        /* \"#utility.yul\":5274:5443   */\n      swap3\n      swap2\n      pop\n      pop\n      jump\t// out\n        /* \"#utility.yul\":5449:5623   */\n    tag_434:\n        /* \"#utility.yul\":5589:5615   */\n      0x596f7520617265206e6f742061206465706f7369746f722e0000000000000000\n        /* \"#utility.yul\":5585:5586   */\n      0x00\n        /* \"#utility.yul\":5577:5583   */\n      dup3\n        /* \"#utility.yul\":5573:5587   */\n      add\n        /* \"#utility.yul\":5566:5616   */\n      mstore\n        /* \"#utility.yul\":5449:5623   */\n      pop\n      jump\t// out\n        /* \"#utility.yul\":5629:5995   */\n    tag_435:\n        /* \"#utility.yul\":5771:5774   */\n      0x00\n        /* \"#utility.yul\":5792:5859   */\n      tag_551\n        /* \"#utility.yul\":5856:5858   */\n      0x18\n        /* \"#utility.yul\":5851:5854   */\n      dup4\n        /* \"#utility.yul\":5792:5859   */\n      tag_433\n      jump\t// in\n    tag_551:\n        /* \"#utility.yul\":5785:5859   */\n      swap2\n      pop\n        /* \"#utility.yul\":5868:5961   */\n      tag_552\n        /* \"#utility.yul\":5957:5960   */\n      dup3\n        /* \"#utility.yul\":5868:5961   */\n      tag_434\n      jump\t// in\n    tag_552:\n        /* \"#utility.yul\":5986:5988   */\n      0x20\n        /* \"#utility.yul\":5981:5984   */\n      dup3\n        /* \"#utility.yul\":5977:5989   */\n      add\n        /* \"#utility.yul\":5970:5989   */\n      swap1\n      pop\n        /* \"#utility.yul\":5629:5995   */\n      swap2\n      swap1\n      pop\n      jump\t// out\n        /* \"#utility.yul\":6001:6420   */\n    tag_197:\n        /* \"#utility.yul\":6167:6171   */\n      0x00\n        /* \"#utility.yul\":6205:6207   */\n      0x20\n        /* \"#utility.yul\":6194:6203   */\n      dup3\n        /* \"#utility.yul\":6190:6208   */\n      add\n        /* \"#utility.yul\":6182:6208   */\n      swap1\n      pop\n        /* \"#utility.yul\":6254:6263   */\n      dup2\n        /* \"#utility.yul\":6248:6252   */\n      dup2\n        /* \"#utility.yul\":6244:6264   */\n      sub\n        /* \"#utility.yul\":6240:6241   */\n      0x00\n        /* \"#utility.yul\":6229:6238   */\n      dup4\n        /* \"#utility.yul\":6225:6242   */\n      add\n        /* \"#utility.yul\":6218:6265   */\n      mstore\n        /* \"#utility.yul\":6282:6413   */\n      tag_554\n        /* \"#utility.yul\":6408:6412   */\n      dup2\n        /* \"#utility.yul\":6282:6413   */\n      tag_435\n      jump\t// in\n    tag_554:\n        /* \"#utility.yul\":6274:6413   */\n      swap1\n      pop\n        /* \"#utility.yul\":6001:6420   */\n      swap2\n      swap1\n      pop\n      jump\t// out\n        /* \"#utility.yul\":6426:6667   */\n    tag_436:\n        /* \"#utility.yul\":6566:6600   */\n      0x596f7520646f6e277420686176652074686973206d75636820616d6f756e7420\n        /* \"#utility.yul\":6562:6563   */\n      0x00\n        /* \"#utility.yul\":6554:6560   */\n      dup3\n        /* \"#utility.yul\":6550:6564   */\n      add\n        /* \"#utility.yul\":6543:6601   */\n      mstore\n        /* \"#utility.yul\":6635:6659   */\n      0x6f66206465706f73697420746f20776974686472617700000000000000000000\n        /* \"#utility.yul\":6630:6632   */\n      0x20\n        /* \"#utility.yul\":6622:6628   */\n      dup3\n        /* \"#utility.yul\":6618:6633   */\n      add\n        /* \"#utility.yul\":6611:6660   */\n      mstore\n        /* \"#utility.yul\":6426:6667   */\n      pop\n      jump\t// out\n        /* \"#utility.yul\":6673:7039   */\n    tag_437:\n        /* \"#utility.yul\":6815:6818   */\n      0x00\n        /* \"#utility.yul\":6836:6903   */\n      tag_557\n        /* \"#utility.yul\":6900:6902   */\n      0x36\n        /* \"#utility.yul\":6895:6898   */\n      dup4\n        /* \"#utility.yul\":6836:6903   */\n      tag_433\n      jump\t// in\n    tag_557:\n        /* \"#utility.yul\":6829:6903   */\n      swap2\n      pop\n        /* \"#utility.yul\":6912:7005   */\n      tag_558\n        /* \"#utility.yul\":7001:7004   */\n      dup3\n        /* \"#utility.yul\":6912:7005   */\n      tag_436\n      jump\t// in\n    tag_558:\n        /* \"#utility.yul\":7030:7032   */\n      0x40\n        /* \"#utility.yul\":7025:7028   */\n      dup3\n        /* \"#utility.yul\":7021:7033   */\n      add\n        /* \"#utility.yul\":7014:7033   */\n      swap1\n      pop\n        /* \"#utility.yul\":6673:7039   */\n      swap2\n      swap1\n      pop\n      jump\t// out\n        /* \"#utility.yul\":7045:7464   */\n    tag_200:\n        /* \"#utility.yul\":7211:7215   */\n      0x00\n        /* \"#utility.yul\":7249:7251   */\n      0x20\n        /* \"#utility.yul\":7238:7247   */\n      dup3\n        /* \"#utility.yul\":7234:7252   */\n      add\n        /* \"#utility.yul\":7226:7252   */\n      swap1\n      pop\n        /* \"#utility.yul\":7298:7307   */\n      dup2\n        /* \"#utility.yul\":7292:7296   */\n      dup2\n        /* \"#utility.yul\":7288:7308   */\n      sub\n        /* \"#utility.yul\":7284:7285   */\n      0x00\n        /* \"#utility.yul\":7273:7282   */\n      dup4\n        /* \"#utility.yul\":7269:7286   */\n      add\n        /* \"#utility.yul\":7262:7309   */\n      mstore\n        /* \"#utility.yul\":7326:7457   */\n      tag_560\n        /* \"#utility.yul\":7452:7456   */\n      dup2\n        /* \"#utility.yul\":7326:7457   */\n      tag_437\n      jump\t// in\n    tag_560:\n        /* \"#utility.yul\":7318:7457   */\n      swap1\n      pop\n        /* \"#utility.yul\":7045:7464   */\n      swap2\n      swap1\n      pop\n      jump\t// out\n        /* \"#utility.yul\":7470:7648   */\n    tag_438:\n        /* \"#utility.yul\":7610:7640   */\n      0x4e6f7420656e6f756768206c697175696469747920696e20706f6f6c00000000\n        /* \"#utility.yul\":7606:7607   */\n      0x00\n        /* \"#utility.yul\":7598:7604   */\n      dup3\n        /* \"#utility.yul\":7594:7608   */\n      add\n        /* \"#utility.yul\":7587:7641   */\n      mstore\n        /* \"#utility.yul\":7470:7648   */\n      pop\n      jump\t// out\n        /* \"#utility.yul\":7654:8020   */\n    tag_439:\n        /* \"#utility.yul\":7796:7799   */\n      0x00\n        /* \"#utility.yul\":7817:7884   */\n      tag_563\n        /* \"#utility.yul\":7881:7883   */\n      0x1c\n        /* \"#utility.yul\":7876:7879   */\n      dup4\n        /* \"#utility.yul\":7817:7884   */\n      tag_433\n      jump\t// in\n    tag_563:\n        /* \"#utility.yul\":7810:7884   */\n      swap2\n      pop\n        /* \"#utility.yul\":7893:7986   */\n      tag_564\n        /* \"#utility.yul\":7982:7985   */\n      dup3\n        /* \"#utility.yul\":7893:7986   */\n      tag_438\n      jump\t// in\n    tag_564:\n        /* \"#utility.yul\":8011:8013   */\n      0x20\n        /* \"#utility.yul\":8006:8009   */\n      dup3\n        /* \"#utility.yul\":8002:8014   */\n      add\n        /* \"#utility.yul\":7995:8014   */\n      swap1\n      pop\n        /* \"#utility.yul\":7654:8020   */\n      swap2\n      swap1\n      pop\n      jump\t// out\n        /* \"#utility.yul\":8026:8445   */\n    tag_203:\n        /* \"#utility.yul\":8192:8196   */\n      0x00\n        /* \"#utility.yul\":8230:8232   */\n      0x20\n        /* \"#utility.yul\":8219:8228   */\n      dup3\n        /* \"#utility.yul\":8215:8233   */\n      add\n        /* \"#utility.yul\":8207:8233   */\n      swap1\n      pop\n        /* \"#utility.yul\":8279:8288   */\n      dup2\n        /* \"#utility.yul\":8273:8277   */\n      dup2\n        /* \"#utility.yul\":8269:8289   */\n      sub\n        /* \"#utility.yul\":8265:8266   */\n      0x00\n        /* \"#utility.yul\":8254:8263   */\n      dup4\n        /* \"#utility.yul\":8250:8267   */\n      add\n        /* \"#utility.yul\":8243:8290   */\n      mstore\n        /* \"#utility.yul\":8307:8438   */\n      tag_566\n        /* \"#utility.yul\":8433:8437   */\n      dup2\n        /* \"#utility.yul\":8307:8438   */\n      tag_439\n      jump\t// in\n    tag_566:\n        /* \"#utility.yul\":8299:8438   */\n      swap1\n      pop\n        /* \"#utility.yul\":8026:8445   */\n      swap2\n      swap1\n      pop\n      jump\t// out\n        /* \"#utility.yul\":8451:8631   */\n    tag_440:\n        /* \"#utility.yul\":8499:8576   */\n      0x4e487b7100000000000000000000000000000000000000000000000000000000\n        /* \"#utility.yul\":8496:8497   */\n      0x00\n        /* \"#utility.yul\":8489:8577   */\n      mstore\n        /* \"#utility.yul\":8596:8600   */\n      0x11\n        /* \"#utility.yul\":8593:8594   */\n      0x04\n        /* \"#utility.yul\":8586:8601   */\n      mstore\n        /* \"#utility.yul\":8620:8624   */\n      0x24\n        /* \"#utility.yul\":8617:8618   */\n      0x00\n        /* \"#utility.yul\":8610:8625   */\n      revert\n        /* \"#utility.yul\":8637:8831   */\n    tag_205:\n        /* \"#utility.yul\":8677:8681   */\n      0x00\n        /* \"#utility.yul\":8697:8717   */\n      tag_569\n        /* \"#utility.yul\":8715:8716   */\n      dup3\n        /* \"#utility.yul\":8697:8717   */\n      tag_419\n      jump\t// in\n    tag_569:\n        /* \"#utility.yul\":8692:8717   */\n      swap2\n      pop\n        /* \"#utility.yul\":8731:8751   */\n      tag_570\n        /* \"#utility.yul\":8749:8750   */\n      dup4\n        /* \"#utility.yul\":8731:8751   */\n      tag_419\n      jump\t// in\n    tag_570:\n        /* \"#utility.yul\":8726:8751   */\n      swap3\n      pop\n        /* \"#utility.yul\":8775:8776   */\n      dup3\n        /* \"#utility.yul\":8772:8773   */\n      dup3\n        /* \"#utility.yul\":8768:8777   */\n      sub\n        /* \"#utility.yul\":8760:8777   */\n      swap1\n      pop\n        /* \"#utility.yul\":8799:8800   */\n      dup2\n        /* \"#utility.yul\":8793:8797   */\n      dup2\n        /* \"#utility.yul\":8790:8801   */\n      gt\n        /* \"#utility.yul\":8787:8824   */\n      iszero\n      tag_571\n      jumpi\n        /* \"#utility.yul\":8804:8822   */\n      tag_572\n      tag_440\n      jump\t// in\n    tag_572:\n        /* \"#utility.yul\":8787:8824   */\n    tag_571:\n        /* \"#utility.yul\":8637:8831   */\n      swap3\n      swap2\n      pop\n      pop\n      jump\t// out\n        /* \"#utility.yul\":8837:8984   */\n    tag_441:\n        /* \"#utility.yul\":8938:8949   */\n      0x00\n        /* \"#utility.yul\":8975:8978   */\n      dup2\n        /* \"#utility.yul\":8960:8978   */\n      swap1\n      pop\n        /* \"#utility.yul\":8837:8984   */\n      swap3\n      swap2\n      pop\n      pop\n      jump\t// out\n        /* \"#utility.yul\":8990:9104   */\n    tag_442:\n      pop\n      jump\t// out\n        /* \"#utility.yul\":9110:9508   */\n    tag_443:\n        /* \"#utility.yul\":9269:9272   */\n      0x00\n        /* \"#utility.yul\":9290:9373   */\n      tag_576\n        /* \"#utility.yul\":9371:9372   */\n      0x00\n        /* \"#utility.yul\":9366:9369   */\n      dup4\n        /* \"#utility.yul\":9290:9373   */\n      tag_441\n      jump\t// in\n    tag_576:\n        /* \"#utility.yul\":9283:9373   */\n      swap2\n      pop\n        /* \"#utility.yul\":9382:9475   */\n      tag_577\n        /* \"#utility.yul\":9471:9474   */\n      dup3\n        /* \"#utility.yul\":9382:9475   */\n      tag_442\n      jump\t// in\n    tag_577:\n        /* \"#utility.yul\":9500:9501   */\n      0x00\n        /* \"#utility.yul\":9495:9498   */\n      dup3\n        /* \"#utility.yul\":9491:9502   */\n      add\n        /* \"#utility.yul\":9484:9502   */\n      swap1\n      pop\n        /* \"#utility.yul\":9110:9508   */\n      swap2\n      swap1\n      pop\n      jump\t// out\n        /* \"#utility.yul\":9514:9893   */\n    tag_208:\n        /* \"#utility.yul\":9698:9701   */\n      0x00\n        /* \"#utility.yul\":9720:9867   */\n      tag_579\n        /* \"#utility.yul\":9863:9866   */\n      dup3\n        /* \"#utility.yul\":9720:9867   */\n      tag_443\n      jump\t// in\n    tag_579:\n        /* \"#utility.yul\":9713:9867   */\n      swap2\n      pop\n        /* \"#utility.yul\":9884:9887   */\n      dup2\n        /* \"#utility.yul\":9877:9887   */\n      swap1\n      pop\n        /* \"#utility.yul\":9514:9893   */\n      swap2\n      swap1\n      pop\n      jump\t// out\n        /* \"#utility.yul\":9899:10075   */\n    tag_444:\n        /* \"#utility.yul\":10039:10067   */\n      0x5769746864726177616c207472616e73666572206661696c6564000000000000\n        /* \"#utility.yul\":10035:10036   */\n      0x00\n        /* \"#utility.yul\":10027:10033   */\n      dup3\n        /* \"#utility.yul\":10023:10037   */\n      add\n        /* \"#utility.yul\":10016:10068   */\n      mstore\n        /* \"#utility.yul\":9899:10075   */\n      pop\n      jump\t// out\n        /* \"#utility.yul\":10081:10447   */\n    tag_445:\n        /* \"#utility.yul\":10223:10226   */\n      0x00\n        /* \"#utility.yul\":10244:10311   */\n      tag_582\n        /* \"#utility.yul\":10308:10310   */\n      0x1a\n        /* \"#utility.yul\":10303:10306   */\n      dup4\n        /* \"#utility.yul\":10244:10311   */\n      tag_433\n      jump\t// in\n    tag_582:\n        /* \"#utility.yul\":10237:10311   */\n      swap2\n      pop\n        /* \"#utility.yul\":10320:10413   */\n      tag_583\n        /* \"#utility.yul\":10409:10412   */\n      dup3\n        /* \"#utility.yul\":10320:10413   */\n      tag_444\n      jump\t// in\n    tag_583:\n        /* \"#utility.yul\":10438:10440   */\n      0x20\n        /* \"#utility.yul\":10433:10436   */\n      dup3\n        /* \"#utility.yul\":10429:10441   */\n      add\n        /* \"#utility.yul\":10422:10441   */\n      swap1\n      pop\n        /* \"#utility.yul\":10081:10447   */\n      swap2\n      swap1\n      pop\n      jump\t// out\n        /* \"#utility.yul\":10453:10872   */\n    tag_214:\n        /* \"#utility.yul\":10619:10623   */\n      0x00\n        /* \"#utility.yul\":10657:10659   */\n      0x20\n        /* \"#utility.yul\":10646:10655   */\n      dup3\n        /* \"#utility.yul\":10642:10660   */\n      add\n        /* \"#utility.yul\":10634:10660   */\n      swap1\n      pop\n        /* \"#utility.yul\":10706:10715   */\n      dup2\n        /* \"#utility.yul\":10700:10704   */\n      dup2\n        /* \"#utility.yul\":10696:10716   */\n      sub\n        /* \"#utility.yul\":10692:10693   */\n      0x00\n        /* \"#utility.yul\":10681:10690   */\n      dup4\n        /* \"#utility.yul\":10677:10694   */\n      add\n        /* \"#utility.yul\":10670:10717   */\n      mstore\n        /* \"#utility.yul\":10734:10865   */\n      tag_585\n        /* \"#utility.yul\":10860:10864   */\n      dup2\n        /* \"#utility.yul\":10734:10865   */\n      tag_445\n      jump\t// in\n    tag_585:\n        /* \"#utility.yul\":10726:10865   */\n      swap1\n      pop\n        /* \"#utility.yul\":10453:10872   */\n      swap2\n      swap1\n      pop\n      jump\t// out\n        /* \"#utility.yul\":10878:11058   */\n    tag_222:\n        /* \"#utility.yul\":10926:11003   */\n      0x4e487b7100000000000000000000000000000000000000000000000000000000\n        /* \"#utility.yul\":10923:10924   */\n      0x00\n        /* \"#utility.yul\":10916:11004   */\n      mstore\n        /* \"#utility.yul\":11023:11027   */\n      0x32\n        /* \"#utility.yul\":11020:11021   */\n      0x04\n        /* \"#utility.yul\":11013:11028   */\n      mstore\n        /* \"#utility.yul\":11047:11051   */\n      0x24\n        /* \"#utility.yul\":11044:11045   */\n      0x00\n        /* \"#utility.yul\":11037:11052   */\n      revert\n        /* \"#utility.yul\":11064:11244   */\n    tag_229:\n        /* \"#utility.yul\":11112:11189   */\n      0x4e487b7100000000000000000000000000000000000000000000000000000000\n        /* \"#utility.yul\":11109:11110   */\n      0x00\n        /* \"#utility.yul\":11102:11190   */\n      mstore\n        /* \"#utility.yul\":11209:11213   */\n      0x31\n        /* \"#utility.yul\":11206:11207   */\n      0x04\n        /* \"#utility.yul\":11199:11214   */\n      mstore\n        /* \"#utility.yul\":11233:11237   */\n      0x24\n        /* \"#utility.yul\":11230:11231   */\n      0x00\n        /* \"#utility.yul\":11223:11238   */\n      revert\n        /* \"#utility.yul\":11250:11475   */\n    tag_446:\n        /* \"#utility.yul\":11390:11424   */\n      0x4f6e6c7920746865206f776e65722063616e20706572666f726d207468697320\n        /* \"#utility.yul\":11386:11387   */\n      0x00\n        /* \"#utility.yul\":11378:11384   */\n      dup3\n        /* \"#utility.yul\":11374:11388   */\n      add\n        /* \"#utility.yul\":11367:11425   */\n      mstore\n        /* \"#utility.yul\":11459:11467   */\n      0x616374696f6e0000000000000000000000000000000000000000000000000000\n        /* \"#utility.yul\":11454:11456   */\n      0x20\n        /* \"#utility.yul\":11446:11452   */\n      dup3\n        /* \"#utility.yul\":11442:11457   */\n      add\n        /* \"#utility.yul\":11435:11468   */\n      mstore\n        /* \"#utility.yul\":11250:11475   */\n      pop\n      jump\t// out\n        /* \"#utility.yul\":11481:11847   */\n    tag_447:\n        /* \"#utility.yul\":11623:11626   */\n      0x00\n        /* \"#utility.yul\":11644:11711   */\n      tag_590\n        /* \"#utility.yul\":11708:11710   */\n      0x26\n        /* \"#utility.yul\":11703:11706   */\n      dup4\n        /* \"#utility.yul\":11644:11711   */\n      tag_433\n      jump\t// in\n    tag_590:\n        /* \"#utility.yul\":11637:11711   */\n      swap2\n      pop\n        /* \"#utility.yul\":11720:11813   */\n      tag_591\n        /* \"#utility.yul\":11809:11812   */\n      dup3\n        /* \"#utility.yul\":11720:11813   */\n      tag_446\n      jump\t// in\n    tag_591:\n        /* \"#utility.yul\":11838:11840   */\n      0x40\n        /* \"#utility.yul\":11833:11836   */\n      dup3\n        /* \"#utility.yul\":11829:11841   */\n      add\n        /* \"#utility.yul\":11822:11841   */\n      swap1\n      pop\n        /* \"#utility.yul\":11481:11847   */\n      swap2\n      swap1\n      pop\n      jump\t// out\n        /* \"#utility.yul\":11853:12272   */\n    tag_243:\n        /* \"#utility.yul\":12019:12023   */\n      0x00\n        /* \"#utility.yul\":12057:12059   */\n      0x20\n        /* \"#utility.yul\":12046:12055   */\n      dup3\n        /* \"#utility.yul\":12042:12060   */\n      add\n        /* \"#utility.yul\":12034:12060   */\n      swap1\n      pop\n        /* \"#utility.yul\":12106:12115   */\n      dup2\n        /* \"#utility.yul\":12100:12104   */\n      dup2\n        /* \"#utility.yul\":12096:12116   */\n      sub\n        /* \"#utility.yul\":12092:12093   */\n      0x00\n        /* \"#utility.yul\":12081:12090   */\n      dup4\n        /* \"#utility.yul\":12077:12094   */\n      add\n        /* \"#utility.yul\":12070:12117   */\n      mstore\n        /* \"#utility.yul\":12134:12265   */\n      tag_593\n        /* \"#utility.yul\":12260:12264   */\n      dup2\n        /* \"#utility.yul\":12134:12265   */\n      tag_447\n      jump\t// in\n    tag_593:\n        /* \"#utility.yul\":12126:12265   */\n      swap1\n      pop\n        /* \"#utility.yul\":11853:12272   */\n      swap2\n      swap1\n      pop\n      jump\t// out\n        /* \"#utility.yul\":12278:12498   */\n    tag_448:\n        /* \"#utility.yul\":12418:12452   */\n      0x4e6f20616374697665206c6f616e7320666f72207468697320626f72726f7765\n        /* \"#utility.yul\":12414:12415   */\n      0x00\n        /* \"#utility.yul\":12406:12412   */\n      dup3\n        /* \"#utility.yul\":12402:12416   */\n      add\n        /* \"#utility.yul\":12395:12453   */\n      mstore\n        /* \"#utility.yul\":12487:12490   */\n      0x7200000000000000000000000000000000000000000000000000000000000000\n        /* \"#utility.yul\":12482:12484   */\n      0x20\n        /* \"#utility.yul\":12474:12480   */\n      dup3\n        /* \"#utility.yul\":12470:12485   */\n      add\n        /* \"#utility.yul\":12463:12491   */\n      mstore\n        /* \"#utility.yul\":12278:12498   */\n      pop\n      jump\t// out\n        /* \"#utility.yul\":12504:12870   */\n    tag_449:\n        /* \"#utility.yul\":12646:12649   */\n      0x00\n        /* \"#utility.yul\":12667:12734   */\n      tag_596\n        /* \"#utility.yul\":12731:12733   */\n      0x21\n        /* \"#utility.yul\":12726:12729   */\n      dup4\n        /* \"#utility.yul\":12667:12734   */\n      tag_433\n      jump\t// in\n    tag_596:\n        /* \"#utility.yul\":12660:12734   */\n      swap2\n      pop\n        /* \"#utility.yul\":12743:12836   */\n      tag_597\n        /* \"#utility.yul\":12832:12835   */\n      dup3\n        /* \"#utility.yul\":12743:12836   */\n      tag_448\n      jump\t// in\n    tag_597:\n        /* \"#utility.yul\":12861:12863   */\n      0x40\n        /* \"#utility.yul\":12856:12859   */\n      dup3\n        /* \"#utility.yul\":12852:12864   */\n      add\n        /* \"#utility.yul\":12845:12864   */\n      swap1\n      pop\n        /* \"#utility.yul\":12504:12870   */\n      swap2\n      swap1\n      pop\n      jump\t// out\n        /* \"#utility.yul\":12876:13295   */\n    tag_247:\n        /* \"#utility.yul\":13042:13046   */\n      0x00\n        /* \"#utility.yul\":13080:13082   */\n      0x20\n        /* \"#utility.yul\":13069:13078   */\n      dup3\n        /* \"#utility.yul\":13065:13083   */\n      add\n        /* \"#utility.yul\":13057:13083   */\n      swap1\n      pop\n        /* \"#utility.yul\":13129:13138   */\n      dup2\n        /* \"#utility.yul\":13123:13127   */\n      dup2\n        /* \"#utility.yul\":13119:13139   */\n      sub\n        /* \"#utility.yul\":13115:13116   */\n      0x00\n        /* \"#utility.yul\":13104:13113   */\n      dup4\n        /* \"#utility.yul\":13100:13117   */\n      add\n        /* \"#utility.yul\":13093:13140   */\n      mstore\n        /* \"#utility.yul\":13157:13288   */\n      tag_599\n        /* \"#utility.yul\":13283:13287   */\n      dup2\n        /* \"#utility.yul\":13157:13288   */\n      tag_449\n      jump\t// in\n    tag_599:\n        /* \"#utility.yul\":13149:13288   */\n      swap1\n      pop\n        /* \"#utility.yul\":12876:13295   */\n      swap2\n      swap1\n      pop\n      jump\t// out\n        /* \"#utility.yul\":13301:13473   */\n    tag_450:\n        /* \"#utility.yul\":13441:13465   */\n      0x4e6f20636f6c6c61746572616c20746f207365697a6500000000000000000000\n        /* \"#utility.yul\":13437:13438   */\n      0x00\n        /* \"#utility.yul\":13429:13435   */\n      dup3\n        /* \"#utility.yul\":13425:13439   */\n      add\n        /* \"#utility.yul\":13418:13466   */\n      mstore\n        /* \"#utility.yul\":13301:13473   */\n      pop\n      jump\t// out\n        /* \"#utility.yul\":13479:13845   */\n    tag_451:\n        /* \"#utility.yul\":13621:13624   */\n      0x00\n        /* \"#utility.yul\":13642:13709   */\n      tag_602\n        /* \"#utility.yul\":13706:13708   */\n      0x16\n        /* \"#utility.yul\":13701:13704   */\n      dup4\n        /* \"#utility.yul\":13642:13709   */\n      tag_433\n      jump\t// in\n    tag_602:\n        /* \"#utility.yul\":13635:13709   */\n      swap2\n      pop\n        /* \"#utility.yul\":13718:13811   */\n      tag_603\n        /* \"#utility.yul\":13807:13810   */\n      dup3\n        /* \"#utility.yul\":13718:13811   */\n      tag_450\n      jump\t// in\n    tag_603:\n        /* \"#utility.yul\":13836:13838   */\n      0x20\n        /* \"#utility.yul\":13831:13834   */\n      dup3\n        /* \"#utility.yul\":13827:13839   */\n      add\n        /* \"#utility.yul\":13820:13839   */\n      swap1\n      pop\n        /* \"#utility.yul\":13479:13845   */\n      swap2\n      swap1\n      pop\n      jump\t// out\n        /* \"#utility.yul\":13851:14270   */\n    tag_250:\n        /* \"#utility.yul\":14017:14021   */\n      0x00\n        /* \"#utility.yul\":14055:14057   */\n      0x20\n        /* \"#utility.yul\":14044:14053   */\n      dup3\n        /* \"#utility.yul\":14040:14058   */\n      add\n        /* \"#utility.yul\":14032:14058   */\n      swap1\n      pop\n        /* \"#utility.yul\":14104:14113   */\n      dup2\n        /* \"#utility.yul\":14098:14102   */\n      dup2\n        /* \"#utility.yul\":14094:14114   */\n      sub\n        /* \"#utility.yul\":14090:14091   */\n      0x00\n        /* \"#utility.yul\":14079:14088   */\n      dup4\n        /* \"#utility.yul\":14075:14092   */\n      add\n        /* \"#utility.yul\":14068:14115   */\n      mstore\n        /* \"#utility.yul\":14132:14263   */\n      tag_605\n        /* \"#utility.yul\":14258:14262   */\n      dup2\n        /* \"#utility.yul\":14132:14263   */\n      tag_451\n      jump\t// in\n    tag_605:\n        /* \"#utility.yul\":14124:14263   */\n      swap1\n      pop\n        /* \"#utility.yul\":13851:14270   */\n      swap2\n      swap1\n      pop\n      jump\t// out\n        /* \"#utility.yul\":14276:14501   */\n    tag_452:\n        /* \"#utility.yul\":14416:14450   */\n      0x4661696c656420746f207472616e7366657220636f6c6c61746572616c20746f\n        /* \"#utility.yul\":14412:14413   */\n      0x00\n        /* \"#utility.yul\":14404:14410   */\n      dup3\n        /* \"#utility.yul\":14400:14414   */\n      add\n        /* \"#utility.yul\":14393:14451   */\n      mstore\n        /* \"#utility.yul\":14485:14493   */\n      0x206f776e65720000000000000000000000000000000000000000000000000000\n        /* \"#utility.yul\":14480:14482   */\n      0x20\n        /* \"#utility.yul\":14472:14478   */\n      dup3\n        /* \"#utility.yul\":14468:14483   */\n      add\n        /* \"#utility.yul\":14461:14494   */\n      mstore\n        /* \"#utility.yul\":14276:14501   */\n      pop\n      jump\t// out\n        /* \"#utility.yul\":14507:14873   */\n    tag_453:\n        /* \"#utility.yul\":14649:14652   */\n      0x00\n        /* \"#utility.yul\":14670:14737   */\n      tag_608\n        /* \"#utility.yul\":14734:14736   */\n      0x26\n        /* \"#utility.yul\":14729:14732   */\n      dup4\n        /* \"#utility.yul\":14670:14737   */\n      tag_433\n      jump\t// in\n    tag_608:\n        /* \"#utility.yul\":14663:14737   */\n      swap2\n      pop\n        /* \"#utility.yul\":14746:14839   */\n      tag_609\n        /* \"#utility.yul\":14835:14838   */\n      dup3\n        /* \"#utility.yul\":14746:14839   */\n      tag_452\n      jump\t// in\n    tag_609:\n        /* \"#utility.yul\":14864:14866   */\n      0x40\n        /* \"#utility.yul\":14859:14862   */\n      dup3\n        /* \"#utility.yul\":14855:14867   */\n      add\n        /* \"#utility.yul\":14848:14867   */\n      swap1\n      pop\n        /* \"#utility.yul\":14507:14873   */\n      swap2\n      swap1\n      pop\n      jump\t// out\n        /* \"#utility.yul\":14879:15298   */\n    tag_257:\n        /* \"#utility.yul\":15045:15049   */\n      0x00\n        /* \"#utility.yul\":15083:15085   */\n      0x20\n        /* \"#utility.yul\":15072:15081   */\n      dup3\n        /* \"#utility.yul\":15068:15086   */\n      add\n        /* \"#utility.yul\":15060:15086   */\n      swap1\n      pop\n        /* \"#utility.yul\":15132:15141   */\n      dup2\n        /* \"#utility.yul\":15126:15130   */\n      dup2\n        /* \"#utility.yul\":15122:15142   */\n      sub\n        /* \"#utility.yul\":15118:15119   */\n      0x00\n        /* \"#utility.yul\":15107:15116   */\n      dup4\n        /* \"#utility.yul\":15103:15120   */\n      add\n        /* \"#utility.yul\":15096:15143   */\n      mstore\n        /* \"#utility.yul\":15160:15291   */\n      tag_611\n        /* \"#utility.yul\":15286:15290   */\n      dup2\n        /* \"#utility.yul\":15160:15291   */\n      tag_453\n      jump\t// in\n    tag_611:\n        /* \"#utility.yul\":15152:15291   */\n      swap1\n      pop\n        /* \"#utility.yul\":14879:15298   */\n      swap2\n      swap1\n      pop\n      jump\t// out\n        /* \"#utility.yul\":15304:15495   */\n    tag_259:\n        /* \"#utility.yul\":15344:15347   */\n      0x00\n        /* \"#utility.yul\":15363:15383   */\n      tag_613\n        /* \"#utility.yul\":15381:15382   */\n      dup3\n        /* \"#utility.yul\":15363:15383   */\n      tag_419\n      jump\t// in\n    tag_613:\n        /* \"#utility.yul\":15358:15383   */\n      swap2\n      pop\n        /* \"#utility.yul\":15397:15417   */\n      tag_614\n        /* \"#utility.yul\":15415:15416   */\n      dup4\n        /* \"#utility.yul\":15397:15417   */\n      tag_419\n      jump\t// in\n    tag_614:\n        /* \"#utility.yul\":15392:15417   */\n      swap3\n      pop\n        /* \"#utility.yul\":15440:15441   */\n      dup3\n        /* \"#utility.yul\":15437:15438   */\n      dup3\n        /* \"#utility.yul\":15433:15442   */\n      add\n        /* \"#utility.yul\":15426:15442   */\n      swap1\n      pop\n        /* \"#utility.yul\":15461:15464   */\n      dup1\n        /* \"#utility.yul\":15458:15459   */\n      dup3\n        /* \"#utility.yul\":15455:15465   */\n      gt\n        /* \"#utility.yul\":15452:15488   */\n      iszero\n      tag_615\n      jumpi\n        /* \"#utility.yul\":15468:15486   */\n      tag_616\n      tag_440\n      jump\t// in\n    tag_616:\n        /* \"#utility.yul\":15452:15488   */\n    tag_615:\n        /* \"#utility.yul\":15304:15495   */\n      swap3\n      swap2\n      pop\n      pop\n      jump\t// out\n        /* \"#utility.yul\":15501:15833   */\n    tag_261:\n        /* \"#utility.yul\":15622:15626   */\n      0x00\n        /* \"#utility.yul\":15660:15662   */\n      0x40\n        /* \"#utility.yul\":15649:15658   */\n      dup3\n        /* \"#utility.yul\":15645:15663   */\n      add\n        /* \"#utility.yul\":15637:15663   */\n      swap1\n      pop\n        /* \"#utility.yul\":15673:15744   */\n      tag_618\n        /* \"#utility.yul\":15741:15742   */\n      0x00\n        /* \"#utility.yul\":15730:15739   */\n      dup4\n        /* \"#utility.yul\":15726:15743   */\n      add\n        /* \"#utility.yul\":15717:15723   */\n      dup6\n        /* \"#utility.yul\":15673:15744   */\n      tag_420\n      jump\t// in\n    tag_618:\n        /* \"#utility.yul\":15754:15826   */\n      tag_619\n        /* \"#utility.yul\":15822:15824   */\n      0x20\n        /* \"#utility.yul\":15811:15820   */\n      dup4\n        /* \"#utility.yul\":15807:15825   */\n      add\n        /* \"#utility.yul\":15798:15804   */\n      dup5\n        /* \"#utility.yul\":15754:15826   */\n      tag_420\n      jump\t// in\n    tag_619:\n        /* \"#utility.yul\":15501:15833   */\n      swap4\n      swap3\n      pop\n      pop\n      pop\n      jump\t// out\n        /* \"#utility.yul\":15839:16249   */\n    tag_265:\n        /* \"#utility.yul\":15879:15886   */\n      0x00\n        /* \"#utility.yul\":15902:15922   */\n      tag_621\n        /* \"#utility.yul\":15920:15921   */\n      dup3\n        /* \"#utility.yul\":15902:15922   */\n      tag_419\n      jump\t// in\n    tag_621:\n        /* \"#utility.yul\":15897:15922   */\n      swap2\n      pop\n        /* \"#utility.yul\":15936:15956   */\n      tag_622\n        /* \"#utility.yul\":15954:15955   */\n      dup4\n        /* \"#utility.yul\":15936:15956   */\n      tag_419\n      jump\t// in\n    tag_622:\n        /* \"#utility.yul\":15931:15956   */\n      swap3\n      pop\n        /* \"#utility.yul\":15991:15992   */\n      dup3\n        /* \"#utility.yul\":15988:15989   */\n      dup3\n        /* \"#utility.yul\":15984:15993   */\n      mul\n        /* \"#utility.yul\":16013:16043   */\n      tag_623\n        /* \"#utility.yul\":16031:16042   */\n      dup2\n        /* \"#utility.yul\":16013:16043   */\n      tag_419\n      jump\t// in\n    tag_623:\n        /* \"#utility.yul\":16002:16043   */\n      swap2\n      pop\n        /* \"#utility.yul\":16192:16193   */\n      dup3\n        /* \"#utility.yul\":16183:16190   */\n      dup3\n        /* \"#utility.yul\":16179:16194   */\n      div\n        /* \"#utility.yul\":16176:16177   */\n      dup5\n        /* \"#utility.yul\":16173:16195   */\n      eq\n        /* \"#utility.yul\":16153:16154   */\n      dup4\n        /* \"#utility.yul\":16146:16155   */\n      iszero\n        /* \"#utility.yul\":16126:16209   */\n      or\n        /* \"#utility.yul\":16103:16242   */\n      tag_624\n      jumpi\n        /* \"#utility.yul\":16222:16240   */\n      tag_625\n      tag_440\n      jump\t// in\n    tag_625:\n        /* \"#utility.yul\":16103:16242   */\n    tag_624:\n        /* \"#utility.yul\":15887:16249   */\n      pop\n        /* \"#utility.yul\":15839:16249   */\n      swap3\n      swap2\n      pop\n      pop\n      jump\t// out\n        /* \"#utility.yul\":16255:16421   */\n    tag_454:\n        /* \"#utility.yul\":16395:16413   */\n      0x4e6f742061206465706f7369746f722e00000000000000000000000000000000\n        /* \"#utility.yul\":16391:16392   */\n      0x00\n        /* \"#utility.yul\":16383:16389   */\n      dup3\n        /* \"#utility.yul\":16379:16393   */\n      add\n        /* \"#utility.yul\":16372:16414   */\n      mstore\n        /* \"#utility.yul\":16255:16421   */\n      pop\n      jump\t// out\n        /* \"#utility.yul\":16427:16793   */\n    tag_455:\n        /* \"#utility.yul\":16569:16572   */\n      0x00\n        /* \"#utility.yul\":16590:16657   */\n      tag_628\n        /* \"#utility.yul\":16654:16656   */\n      0x10\n        /* \"#utility.yul\":16649:16652   */\n      dup4\n        /* \"#utility.yul\":16590:16657   */\n      tag_433\n      jump\t// in\n    tag_628:\n        /* \"#utility.yul\":16583:16657   */\n      swap2\n      pop\n        /* \"#utility.yul\":16666:16759   */\n      tag_629\n        /* \"#utility.yul\":16755:16758   */\n      dup3\n        /* \"#utility.yul\":16666:16759   */\n      tag_454\n      jump\t// in\n    tag_629:\n        /* \"#utility.yul\":16784:16786   */\n      0x20\n        /* \"#utility.yul\":16779:16782   */\n      dup3\n        /* \"#utility.yul\":16775:16787   */\n      add\n        /* \"#utility.yul\":16768:16787   */\n      swap1\n      pop\n        /* \"#utility.yul\":16427:16793   */\n      swap2\n      swap1\n      pop\n      jump\t// out\n        /* \"#utility.yul\":16799:17218   */\n    tag_270:\n        /* \"#utility.yul\":16965:16969   */\n      0x00\n        /* \"#utility.yul\":17003:17005   */\n      0x20\n        /* \"#utility.yul\":16992:17001   */\n      dup3\n        /* \"#utility.yul\":16988:17006   */\n      add\n        /* \"#utility.yul\":16980:17006   */\n      swap1\n      pop\n        /* \"#utility.yul\":17052:17061   */\n      dup2\n        /* \"#utility.yul\":17046:17050   */\n      dup2\n        /* \"#utility.yul\":17042:17062   */\n      sub\n        /* \"#utility.yul\":17038:17039   */\n      0x00\n        /* \"#utility.yul\":17027:17036   */\n      dup4\n        /* \"#utility.yul\":17023:17040   */\n      add\n        /* \"#utility.yul\":17016:17063   */\n      mstore\n        /* \"#utility.yul\":17080:17211   */\n      tag_631\n        /* \"#utility.yul\":17206:17210   */\n      dup2\n        /* \"#utility.yul\":17080:17211   */\n      tag_455\n      jump\t// in\n    tag_631:\n        /* \"#utility.yul\":17072:17211   */\n      swap1\n      pop\n        /* \"#utility.yul\":16799:17218   */\n      swap2\n      swap1\n      pop\n      jump\t// out\n        /* \"#utility.yul\":17224:17457   */\n    tag_279:\n        /* \"#utility.yul\":17263:17266   */\n      0x00\n        /* \"#utility.yul\":17286:17310   */\n      tag_633\n        /* \"#utility.yul\":17304:17309   */\n      dup3\n        /* \"#utility.yul\":17286:17310   */\n      tag_419\n      jump\t// in\n    tag_633:\n        /* \"#utility.yul\":17277:17310   */\n      swap2\n      pop\n        /* \"#utility.yul\":17332:17398   */\n      0xffffffffffffffffffffffffffffffffffffffffffffffffffffffffffffffff\n        /* \"#utility.yul\":17325:17330   */\n      dup3\n        /* \"#utility.yul\":17322:17399   */\n      sub\n        /* \"#utility.yul\":17319:17422   */\n      tag_634\n      jumpi\n        /* \"#utility.yul\":17402:17420   */\n      tag_635\n      tag_440\n      jump\t// in\n    tag_635:\n        /* \"#utility.yul\":17319:17422   */\n    tag_634:\n        /* \"#utility.yul\":17449:17450   */\n      0x01\n        /* \"#utility.yul\":17442:17447   */\n      dup3\n        /* \"#utility.yul\":17438:17451   */\n      add\n        /* \"#utility.yul\":17431:17451   */\n      swap1\n      pop\n        /* \"#utility.yul\":17224:17457   */\n      swap2\n      swap1\n      pop\n      jump\t// out\n        /* \"#utility.yul\":17463:17684   */\n    tag_456:\n        /* \"#utility.yul\":17603:17637   */\n      0x4c6f616e20616d6f756e74206d7573742062652067726561746572207468616e\n        /* \"#utility.yul\":17599:17600   */\n      0x00\n        /* \"#utility.yul\":17591:17597   */\n      dup3\n        /* \"#utility.yul\":17587:17601   */\n      add\n        /* \"#utility.yul\":17580:17638   */\n      mstore\n        /* \"#utility.yul\":17672:17676   */\n      0x2030000000000000000000000000000000000000000000000000000000000000\n        /* \"#utility.yul\":17667:17669   */\n      0x20\n        /* \"#utility.yul\":17659:17665   */\n      dup3\n        /* \"#utility.yul\":17655:17670   */\n      add\n        /* \"#utility.yul\":17648:17677   */\n      mstore\n        /* \"#utility.yul\":17463:17684   */\n      pop\n      jump\t// out\n        /* \"#utility.yul\":17690:18056   */\n    tag_457:\n        /* \"#utility.yul\":17832:17835   */\n      0x00\n        /* \"#utility.yul\":17853:17920   */\n      tag_638\n        /* \"#utility.yul\":17917:17919   */\n      0x22\n        /* \"#utility.yul\":17912:17915   */\n      dup4\n        /* \"#utility.yul\":17853:17920   */\n      tag_433\n      jump\t// in\n    tag_638:\n        /* \"#utility.yul\":17846:17920   */\n      swap2\n      pop\n        /* \"#utility.yul\":17929:18022   */\n      tag_639\n        /* \"#utility.yul\":18018:18021   */\n      dup3\n        /* \"#utility.yul\":17929:18022   */\n      tag_456\n      jump\t// in\n    tag_639:\n        /* \"#utility.yul\":18047:18049   */\n      0x40\n        /* \"#utility.yul\":18042:18045   */\n      dup3\n        /* \"#utility.yul\":18038:18050   */\n      add\n        /* \"#utility.yul\":18031:18050   */\n      swap1\n      pop\n        /* \"#utility.yul\":17690:18056   */\n      swap2\n      swap1\n      pop\n      jump\t// out\n        /* \"#utility.yul\":18062:18481   */\n    tag_287:\n        /* \"#utility.yul\":18228:18232   */\n      0x00\n        /* \"#utility.yul\":18266:18268   */\n      0x20\n        /* \"#utility.yul\":18255:18264   */\n      dup3\n        /* \"#utility.yul\":18251:18269   */\n      add\n        /* \"#utility.yul\":18243:18269   */\n      swap1\n      pop\n        /* \"#utility.yul\":18315:18324   */\n      dup2\n        /* \"#utility.yul\":18309:18313   */\n      dup2\n        /* \"#utility.yul\":18305:18325   */\n      sub\n        /* \"#utility.yul\":18301:18302   */\n      0x00\n        /* \"#utility.yul\":18290:18299   */\n      dup4\n        /* \"#utility.yul\":18286:18303   */\n      add\n        /* \"#utility.yul\":18279:18326   */\n      mstore\n        /* \"#utility.yul\":18343:18474   */\n      tag_641\n        /* \"#utility.yul\":18469:18473   */\n      dup2\n        /* \"#utility.yul\":18343:18474   */\n      tag_457\n      jump\t// in\n    tag_641:\n        /* \"#utility.yul\":18335:18474   */\n      swap1\n      pop\n        /* \"#utility.yul\":18062:18481   */\n      swap2\n      swap1\n      pop\n      jump\t// out\n        /* \"#utility.yul\":18487:18667   */\n    tag_458:\n        /* \"#utility.yul\":18535:18612   */\n      0x4e487b7100000000000000000000000000000000000000000000000000000000\n        /* \"#utility.yul\":18532:18533   */\n      0x00\n        /* \"#utility.yul\":18525:18613   */\n      mstore\n        /* \"#utility.yul\":18632:18636   */\n      0x12\n        /* \"#utility.yul\":18629:18630   */\n      0x04\n        /* \"#utility.yul\":18622:18637   */\n      mstore\n        /* \"#utility.yul\":18656:18660   */\n      0x24\n        /* \"#utility.yul\":18653:18654   */\n      0x00\n        /* \"#utility.yul\":18646:18661   */\n      revert\n        /* \"#utility.yul\":18673:18858   */\n    tag_292:\n        /* \"#utility.yul\":18713:18714   */\n      0x00\n        /* \"#utility.yul\":18730:18750   */\n      tag_644\n        /* \"#utility.yul\":18748:18749   */\n      dup3\n        /* \"#utility.yul\":18730:18750   */\n      tag_419\n      jump\t// in\n    tag_644:\n        /* \"#utility.yul\":18725:18750   */\n      swap2\n      pop\n        /* \"#utility.yul\":18764:18784   */\n      tag_645\n        /* \"#utility.yul\":18782:18783   */\n      dup4\n        /* \"#utility.yul\":18764:18784   */\n      tag_419\n      jump\t// in\n    tag_645:\n        /* \"#utility.yul\":18759:18784   */\n      swap3\n      pop\n        /* \"#utility.yul\":18803:18804   */\n      dup3\n        /* \"#utility.yul\":18793:18828   */\n      tag_646\n      jumpi\n        /* \"#utility.yul\":18808:18826   */\n      tag_647\n      tag_458\n      jump\t// in\n    tag_647:\n        /* \"#utility.yul\":18793:18828   */\n    tag_646:\n        /* \"#utility.yul\":18850:18851   */\n      dup3\n        /* \"#utility.yul\":18847:18848   */\n      dup3\n        /* \"#utility.yul\":18843:18852   */\n      div\n        /* \"#utility.yul\":18838:18852   */\n      swap1\n      pop\n        /* \"#utility.yul\":18673:18858   */\n      swap3\n      swap2\n      pop\n      pop\n      jump\t// out\n        /* \"#utility.yul\":18864:19089   */\n    tag_459:\n        /* \"#utility.yul\":19004:19038   */\n      0x436f6c6c61746572616c206d7573742062652031353025206f66206c6f616e20\n        /* \"#utility.yul\":19000:19001   */\n      0x00\n        /* \"#utility.yul\":18992:18998   */\n      dup3\n        /* \"#utility.yul\":18988:19002   */\n      add\n        /* \"#utility.yul\":18981:19039   */\n      mstore\n        /* \"#utility.yul\":19073:19081   */\n      0x616d6f756e740000000000000000000000000000000000000000000000000000\n        /* \"#utility.yul\":19068:19070   */\n      0x20\n        /* \"#utility.yul\":19060:19066   */\n      dup3\n        /* \"#utility.yul\":19056:19071   */\n      add\n        /* \"#utility.yul\":19049:19082   */\n      mstore\n        /* \"#utility.yul\":18864:19089   */\n      pop\n      jump\t// out\n        /* \"#utility.yul\":19095:19461   */\n    tag_460:\n        /* \"#utility.yul\":19237:19240   */\n      0x00\n        /* \"#utility.yul\":19258:19325   */\n      tag_650\n        /* \"#utility.yul\":19322:19324   */\n      0x26\n        /* \"#utility.yul\":19317:19320   */\n      dup4\n        /* \"#utility.yul\":19258:19325   */\n      tag_433\n      jump\t// in\n    tag_650:\n        /* \"#utility.yul\":19251:19325   */\n      swap2\n      pop\n        /* \"#utility.yul\":19334:19427   */\n      tag_651\n        /* \"#utility.yul\":19423:19426   */\n      dup3\n        /* \"#utility.yul\":19334:19427   */\n      tag_459\n      jump\t// in\n    tag_651:\n        /* \"#utility.yul\":19452:19454   */\n      0x40\n        /* \"#utility.yul\":19447:19450   */\n      dup3\n        /* \"#utility.yul\":19443:19455   */\n      add\n        /* \"#utility.yul\":19436:19455   */\n      swap1\n      pop\n        /* \"#utility.yul\":19095:19461   */\n      swap2\n      swap1\n      pop\n      jump\t// out\n        /* \"#utility.yul\":19467:19886   */\n    tag_295:\n        /* \"#utility.yul\":19633:19637   */\n      0x00\n        /* \"#utility.yul\":19671:19673   */\n      0x20\n        /* \"#utility.yul\":19660:19669   */\n      dup3\n        /* \"#utility.yul\":19656:19674   */\n      add\n        /* \"#utility.yul\":19648:19674   */\n      swap1\n      pop\n        /* \"#utility.yul\":19720:19729   */\n      dup2\n        /* \"#utility.yul\":19714:19718   */\n      dup2\n        /* \"#utility.yul\":19710:19730   */\n      sub\n        /* \"#utility.yul\":19706:19707   */\n      0x00\n        /* \"#utility.yul\":19695:19704   */\n      dup4\n        /* \"#utility.yul\":19691:19708   */\n      add\n        /* \"#utility.yul\":19684:19731   */\n      mstore\n        /* \"#utility.yul\":19748:19879   */\n      tag_653\n        /* \"#utility.yul\":19874:19878   */\n      dup2\n        /* \"#utility.yul\":19748:19879   */\n      tag_460\n      jump\t// in\n    tag_653:\n        /* \"#utility.yul\":19740:19879   */\n      swap1\n      pop\n        /* \"#utility.yul\":19467:19886   */\n      swap2\n      swap1\n      pop\n      jump\t// out\n        /* \"#utility.yul\":19892:20062   */\n    tag_461:\n        /* \"#utility.yul\":20032:20054   */\n      0x4c6f616e207472616e73666572206661696c6564000000000000000000000000\n        /* \"#utility.yul\":20028:20029   */\n      0x00\n        /* \"#utility.yul\":20020:20026   */\n      dup3\n        /* \"#utility.yul\":20016:20030   */\n      add\n        /* \"#utility.yul\":20009:20055   */\n      mstore\n        /* \"#utility.yul\":19892:20062   */\n      pop\n      jump\t// out\n        /* \"#utility.yul\":20068:20434   */\n    tag_462:\n        /* \"#utility.yul\":20210:20213   */\n      0x00\n        /* \"#utility.yul\":20231:20298   */\n      tag_656\n        /* \"#utility.yul\":20295:20297   */\n      0x14\n        /* \"#utility.yul\":20290:20293   */\n      dup4\n        /* \"#utility.yul\":20231:20298   */\n      tag_433\n      jump\t// in\n    tag_656:\n        /* \"#utility.yul\":20224:20298   */\n      swap2\n      pop\n        /* \"#utility.yul\":20307:20400   */\n      tag_657\n        /* \"#utility.yul\":20396:20399   */\n      dup3\n        /* \"#utility.yul\":20307:20400   */\n      tag_461\n      jump\t// in\n    tag_657:\n        /* \"#utility.yul\":20425:20427   */\n      0x20\n        /* \"#utility.yul\":20420:20423   */\n      dup3\n        /* \"#utility.yul\":20416:20428   */\n      add\n        /* \"#utility.yul\":20409:20428   */\n      swap1\n      pop\n        /* \"#utility.yul\":20068:20434   */\n      swap2\n      swap1\n      pop\n      jump\t// out\n        /* \"#utility.yul\":20440:20859   */\n    tag_309:\n        /* \"#utility.yul\":20606:20610   */\n      0x00\n        /* \"#utility.yul\":20644:20646   */\n      0x20\n        /* \"#utility.yul\":20633:20642   */\n      dup3\n        /* \"#utility.yul\":20629:20647   */\n      add\n        /* \"#utility.yul\":20621:20647   */\n      swap1\n      pop\n        /* \"#utility.yul\":20693:20702   */\n      dup2\n        /* \"#utility.yul\":20687:20691   */\n      dup2\n        /* \"#utility.yul\":20683:20703   */\n      sub\n        /* \"#utility.yul\":20679:20680   */\n      0x00\n        /* \"#utility.yul\":20668:20677   */\n      dup4\n        /* \"#utility.yul\":20664:20681   */\n      add\n        /* \"#utility.yul\":20657:20704   */\n      mstore\n        /* \"#utility.yul\":20721:20852   */\n      tag_659\n        /* \"#utility.yul\":20847:20851   */\n      dup2\n        /* \"#utility.yul\":20721:20852   */\n      tag_462\n      jump\t// in\n    tag_659:\n        /* \"#utility.yul\":20713:20852   */\n      swap1\n      pop\n        /* \"#utility.yul\":20440:20859   */\n      swap2\n      swap1\n      pop\n      jump\t// out\n        /* \"#utility.yul\":20865:21086   */\n    tag_463:\n        /* \"#utility.yul\":21005:21039   */\n      0x4e6f206c697175696469747920746f2061636372756520696e74657265737420\n        /* \"#utility.yul\":21001:21002   */\n      0x00\n        /* \"#utility.yul\":20993:20999   */\n      dup3\n        /* \"#utility.yul\":20989:21003   */\n      add\n        /* \"#utility.yul\":20982:21040   */\n      mstore\n        /* \"#utility.yul\":21074:21078   */\n      0x6f6e000000000000000000000000000000000000000000000000000000000000\n        /* \"#utility.yul\":21069:21071   */\n      0x20\n        /* \"#utility.yul\":21061:21067   */\n      dup3\n        /* \"#utility.yul\":21057:21072   */\n      add\n        /* \"#utility.yul\":21050:21079   */\n      mstore\n        /* \"#utility.yul\":20865:21086   */\n      pop\n      jump\t// out\n        /* \"#utility.yul\":21092:21458   */\n    tag_464:\n        /* \"#utility.yul\":21234:21237   */\n      0x00\n        /* \"#utility.yul\":21255:21322   */\n      tag_662\n        /* \"#utility.yul\":21319:21321   */\n      0x22\n        /* \"#utility.yul\":21314:21317   */\n      dup4\n        /* \"#utility.yul\":21255:21322   */\n      tag_433\n      jump\t// in\n    tag_662:\n        /* \"#utility.yul\":21248:21322   */\n      swap2\n      pop\n        /* \"#utility.yul\":21331:21424   */\n      tag_663\n        /* \"#utility.yul\":21420:21423   */\n      dup3\n        /* \"#utility.yul\":21331:21424   */\n      tag_463\n      jump\t// in\n    tag_663:\n        /* \"#utility.yul\":21449:21451   */\n      0x40\n        /* \"#utility.yul\":21444:21447   */\n      dup3\n        /* \"#utility.yul\":21440:21452   */\n      add\n        /* \"#utility.yul\":21433:21452   */\n      swap1\n      pop\n        /* \"#utility.yul\":21092:21458   */\n      swap2\n      swap1\n      pop\n      jump\t// out\n        /* \"#utility.yul\":21464:21883   */\n    tag_314:\n        /* \"#utility.yul\":21630:21634   */\n      0x00\n        /* \"#utility.yul\":21668:21670   */\n      0x20\n        /* \"#utility.yul\":21657:21666   */\n      dup3\n        /* \"#utility.yul\":21653:21671   */\n      add\n        /* \"#utility.yul\":21645:21671   */\n      swap1\n      pop\n        /* \"#utility.yul\":21717:21726   */\n      dup2\n        /* \"#utility.yul\":21711:21715   */\n      dup2\n        /* \"#utility.yul\":21707:21727   */\n      sub\n        /* \"#utility.yul\":21703:21704   */\n      0x00\n        /* \"#utility.yul\":21692:21701   */\n      dup4\n        /* \"#utility.yul\":21688:21705   */\n      add\n        /* \"#utility.yul\":21681:21728   */\n      mstore\n        /* \"#utility.yul\":21745:21876   */\n      tag_665\n        /* \"#utility.yul\":21871:21875   */\n      dup2\n        /* \"#utility.yul\":21745:21876   */\n      tag_464\n      jump\t// in\n    tag_665:\n        /* \"#utility.yul\":21737:21876   */\n      swap1\n      pop\n        /* \"#utility.yul\":21464:21883   */\n      swap2\n      swap1\n      pop\n      jump\t// out\n        /* \"#utility.yul\":21889:22052   */\n    tag_465:\n        /* \"#utility.yul\":22029:22044   */\n      0x4e6f7420796f7572206c6f616e00000000000000000000000000000000000000\n        /* \"#utility.yul\":22025:22026   */\n      0x00\n        /* \"#utility.yul\":22017:22023   */\n      dup3\n        /* \"#utility.yul\":22013:22027   */\n      add\n        /* \"#utility.yul\":22006:22045   */\n      mstore\n        /* \"#utility.yul\":21889:22052   */\n      pop\n      jump\t// out\n        /* \"#utility.yul\":22058:22424   */\n    tag_466:\n        /* \"#utility.yul\":22200:22203   */\n      0x00\n        /* \"#utility.yul\":22221:22288   */\n      tag_668\n        /* \"#utility.yul\":22285:22287   */\n      0x0d\n        /* \"#utility.yul\":22280:22283   */\n      dup4\n        /* \"#utility.yul\":22221:22288   */\n      tag_433\n      jump\t// in\n    tag_668:\n        /* \"#utility.yul\":22214:22288   */\n      swap2\n      pop\n        /* \"#utility.yul\":22297:22390   */\n      tag_669\n        /* \"#utility.yul\":22386:22389   */\n      dup3\n        /* \"#utility.yul\":22297:22390   */\n      tag_465\n      jump\t// in\n    tag_669:\n        /* \"#utility.yul\":22415:22417   */\n      0x20\n        /* \"#utility.yul\":22410:22413   */\n      dup3\n        /* \"#utility.yul\":22406:22418   */\n      add\n        /* \"#utility.yul\":22399:22418   */\n      swap1\n      pop\n        /* \"#utility.yul\":22058:22424   */\n      swap2\n      swap1\n      pop\n      jump\t// out\n        /* \"#utility.yul\":22430:22849   */\n    tag_327:\n        /* \"#utility.yul\":22596:22600   */\n      0x00\n        /* \"#utility.yul\":22634:22636   */\n      0x20\n        /* \"#utility.yul\":22623:22632   */\n      dup3\n        /* \"#utility.yul\":22619:22637   */\n      add\n        /* \"#utility.yul\":22611:22637   */\n      swap1\n      pop\n        /* \"#utility.yul\":22683:22692   */\n      dup2\n        /* \"#utility.yul\":22677:22681   */\n      dup2\n        /* \"#utility.yul\":22673:22693   */\n      sub\n        /* \"#utility.yul\":22669:22670   */\n      0x00\n        /* \"#utility.yul\":22658:22667   */\n      dup4\n        /* \"#utility.yul\":22654:22671   */\n      add\n        /* \"#utility.yul\":22647:22694   */\n      mstore\n        /* \"#utility.yul\":22711:22842   */\n      tag_671\n        /* \"#utility.yul\":22837:22841   */\n      dup2\n        /* \"#utility.yul\":22711:22842   */\n      tag_466\n      jump\t// in\n    tag_671:\n        /* \"#utility.yul\":22703:22842   */\n      swap1\n      pop\n        /* \"#utility.yul\":22430:22849   */\n      swap2\n      swap1\n      pop\n      jump\t// out\n        /* \"#utility.yul\":22855:23023   */\n    tag_467:\n        /* \"#utility.yul\":22995:23015   */\n      0x4c6f616e206973206e6f74206163746976650000000000000000000000000000\n        /* \"#utility.yul\":22991:22992   */\n      0x00\n        /* \"#utility.yul\":22983:22989   */\n      dup3\n        /* \"#utility.yul\":22979:22993   */\n      add\n        /* \"#utility.yul\":22972:23016   */\n      mstore\n        /* \"#utility.yul\":22855:23023   */\n      pop\n      jump\t// out\n        /* \"#utility.yul\":23029:23395   */\n    tag_468:\n        /* \"#utility.yul\":23171:23174   */\n      0x00\n        /* \"#utility.yul\":23192:23259   */\n      tag_674\n        /* \"#utility.yul\":23256:23258   */\n      0x12\n        /* \"#utility.yul\":23251:23254   */\n      dup4\n        /* \"#utility.yul\":23192:23259   */\n      tag_433\n      jump\t// in\n    tag_674:\n        /* \"#utility.yul\":23185:23259   */\n      swap2\n      pop\n        /* \"#utility.yul\":23268:23361   */\n      tag_675\n        /* \"#utility.yul\":23357:23360   */\n      dup3\n        /* \"#utility.yul\":23268:23361   */\n      tag_467\n      jump\t// in\n    tag_675:\n        /* \"#utility.yul\":23386:23388   */\n      0x20\n        /* \"#utility.yul\":23381:23384   */\n      dup3\n        /* \"#utility.yul\":23377:23389   */\n      add\n        /* \"#utility.yul\":23370:23389   */\n      swap1\n      pop\n        /* \"#utility.yul\":23029:23395   */\n      swap2\n      swap1\n      pop\n      jump\t// out\n        /* \"#utility.yul\":23401:23820   */\n    tag_330:\n        /* \"#utility.yul\":23567:23571   */\n      0x00\n        /* \"#utility.yul\":23605:23607   */\n      0x20\n        /* \"#utility.yul\":23594:23603   */\n      dup3\n        /* \"#utility.yul\":23590:23608   */\n      add\n        /* \"#utility.yul\":23582:23608   */\n      swap1\n      pop\n        /* \"#utility.yul\":23654:23663   */\n      dup2\n        /* \"#utility.yul\":23648:23652   */\n      dup2\n        /* \"#utility.yul\":23644:23664   */\n      sub\n        /* \"#utility.yul\":23640:23641   */\n      0x00\n        /* \"#utility.yul\":23629:23638   */\n      dup4\n        /* \"#utility.yul\":23625:23642   */\n      add\n        /* \"#utility.yul\":23618:23665   */\n      mstore\n        /* \"#utility.yul\":23682:23813   */\n      tag_677\n        /* \"#utility.yul\":23808:23812   */\n      dup2\n        /* \"#utility.yul\":23682:23813   */\n      tag_468\n      jump\t// in\n    tag_677:\n        /* \"#utility.yul\":23674:23813   */\n      swap1\n      pop\n        /* \"#utility.yul\":23401:23820   */\n      swap2\n      swap1\n      pop\n      jump\t// out\n        /* \"#utility.yul\":23826:23995   */\n    tag_469:\n        /* \"#utility.yul\":23966:23987   */\n      0x4c6f616e20616c72656164792072657061696400000000000000000000000000\n        /* \"#utility.yul\":23962:23963   */\n      0x00\n        /* \"#utility.yul\":23954:23960   */\n      dup3\n        /* \"#utility.yul\":23950:23964   */\n      add\n        /* \"#utility.yul\":23943:23988   */\n      mstore\n        /* \"#utility.yul\":23826:23995   */\n      pop\n      jump\t// out\n        /* \"#utility.yul\":24001:24367   */\n    tag_470:\n        /* \"#utility.yul\":24143:24146   */\n      0x00\n        /* \"#utility.yul\":24164:24231   */\n      tag_680\n        /* \"#utility.yul\":24228:24230   */\n      0x13\n        /* \"#utility.yul\":24223:24226   */\n      dup4\n        /* \"#utility.yul\":24164:24231   */\n      tag_433\n      jump\t// in\n    tag_680:\n        /* \"#utility.yul\":24157:24231   */\n      swap2\n      pop\n        /* \"#utility.yul\":24240:24333   */\n      tag_681\n        /* \"#utility.yul\":24329:24332   */\n      dup3\n        /* \"#utility.yul\":24240:24333   */\n      tag_469\n      jump\t// in\n    tag_681:\n        /* \"#utility.yul\":24358:24360   */\n      0x20\n        /* \"#utility.yul\":24353:24356   */\n      dup3\n        /* \"#utility.yul\":24349:24361   */\n      add\n        /* \"#utility.yul\":24342:24361   */\n      swap1\n      pop\n        /* \"#utility.yul\":24001:24367   */\n      swap2\n      swap1\n      pop\n      jump\t// out\n        /* \"#utility.yul\":24373:24792   */\n    tag_333:\n        /* \"#utility.yul\":24539:24543   */\n      0x00\n        /* \"#utility.yul\":24577:24579   */\n      0x20\n        /* \"#utility.yul\":24566:24575   */\n      dup3\n        /* \"#utility.yul\":24562:24580   */\n      add\n        /* \"#utility.yul\":24554:24580   */\n      swap1\n      pop\n        /* \"#utility.yul\":24626:24635   */\n      dup2\n        /* \"#utility.yul\":24620:24624   */\n      dup2\n        /* \"#utility.yul\":24616:24636   */\n      sub\n        /* \"#utility.yul\":24612:24613   */\n      0x00\n        /* \"#utility.yul\":24601:24610   */\n      dup4\n        /* \"#utility.yul\":24597:24614   */\n      add\n        /* \"#utility.yul\":24590:24637   */\n      mstore\n        /* \"#utility.yul\":24654:24785   */\n      tag_683\n        /* \"#utility.yul\":24780:24784   */\n      dup2\n        /* \"#utility.yul\":24654:24785   */\n      tag_470\n      jump\t// in\n    tag_683:\n        /* \"#utility.yul\":24646:24785   */\n      swap1\n      pop\n        /* \"#utility.yul\":24373:24792   */\n      swap2\n      swap1\n      pop\n      jump\t// out\n        /* \"#utility.yul\":24798:24977   */\n    tag_471:\n        /* \"#utility.yul\":24938:24969   */\n      0x496e73756666696369656e742072657061796d656e7420616d6f756e74000000\n        /* \"#utility.yul\":24934:24935   */\n      0x00\n        /* \"#utility.yul\":24926:24932   */\n      dup3\n        /* \"#utility.yul\":24922:24936   */\n      add\n        /* \"#utility.yul\":24915:24970   */\n      mstore\n        /* \"#utility.yul\":24798:24977   */\n      pop\n      jump\t// out\n        /* \"#utility.yul\":24983:25349   */\n    tag_472:\n        /* \"#utility.yul\":25125:25128   */\n      0x00\n        /* \"#utility.yul\":25146:25213   */\n      tag_686\n        /* \"#utility.yul\":25210:25212   */\n      0x1d\n        /* \"#utility.yul\":25205:25208   */\n      dup4\n        /* \"#utility.yul\":25146:25213   */\n      tag_433\n      jump\t// in\n    tag_686:\n        /* \"#utility.yul\":25139:25213   */\n      swap2\n      pop\n        /* \"#utility.yul\":25222:25315   */\n      tag_687\n        /* \"#utility.yul\":25311:25314   */\n      dup3\n        /* \"#utility.yul\":25222:25315   */\n      tag_471\n      jump\t// in\n    tag_687:\n        /* \"#utility.yul\":25340:25342   */\n      0x20\n        /* \"#utility.yul\":25335:25338   */\n      dup3\n        /* \"#utility.yul\":25331:25343   */\n      add\n        /* \"#utility.yul\":25324:25343   */\n      swap1\n      pop\n        /* \"#utility.yul\":24983:25349   */\n      swap2\n      swap1\n      pop\n      jump\t// out\n        /* \"#utility.yul\":25355:25774   */\n    tag_336:\n        /* \"#utility.yul\":25521:25525   */\n      0x00\n        /* \"#utility.yul\":25559:25561   */\n      0x20\n        /* \"#utility.yul\":25548:25557   */\n      dup3\n        /* \"#utility.yul\":25544:25562   */\n      add\n        /* \"#utility.yul\":25536:25562   */\n      swap1\n      pop\n        /* \"#utility.yul\":25608:25617   */\n      dup2\n        /* \"#utility.yul\":25602:25606   */\n      dup2\n        /* \"#utility.yul\":25598:25618   */\n      sub\n        /* \"#utility.yul\":25594:25595   */\n      0x00\n        /* \"#utility.yul\":25583:25592   */\n      dup4\n        /* \"#utility.yul\":25579:25596   */\n      add\n        /* \"#utility.yul\":25572:25619   */\n      mstore\n        /* \"#utility.yul\":25636:25767   */\n      tag_689\n        /* \"#utility.yul\":25762:25766   */\n      dup2\n        /* \"#utility.yul\":25636:25767   */\n      tag_472\n      jump\t// in\n    tag_689:\n        /* \"#utility.yul\":25628:25767   */\n      swap1\n      pop\n        /* \"#utility.yul\":25355:25774   */\n      swap2\n      swap1\n      pop\n      jump\t// out\n        /* \"#utility.yul\":25780:25953   */\n    tag_473:\n        /* \"#utility.yul\":25920:25945   */\n      0x4e6f20636f6c6c61746572616c20746f2072657475726e000000000000000000\n        /* \"#utility.yul\":25916:25917   */\n      0x00\n        /* \"#utility.yul\":25908:25914   */\n      dup3\n        /* \"#utility.yul\":25904:25918   */\n      add\n        /* \"#utility.yul\":25897:25946   */\n      mstore\n        /* \"#utility.yul\":25780:25953   */\n      pop\n      jump\t// out\n        /* \"#utility.yul\":25959:26325   */\n    tag_474:\n        /* \"#utility.yul\":26101:26104   */\n      0x00\n        /* \"#utility.yul\":26122:26189   */\n      tag_692\n        /* \"#utility.yul\":26186:26188   */\n      0x17\n        /* \"#utility.yul\":26181:26184   */\n      dup4\n        /* \"#utility.yul\":26122:26189   */\n      tag_433\n      jump\t// in\n    tag_692:\n        /* \"#utility.yul\":26115:26189   */\n      swap2\n      pop\n        /* \"#utility.yul\":26198:26291   */\n      tag_693\n        /* \"#utility.yul\":26287:26290   */\n      dup3\n        /* \"#utility.yul\":26198:26291   */\n      tag_473\n      jump\t// in\n    tag_693:\n        /* \"#utility.yul\":26316:26318   */\n      0x20\n        /* \"#utility.yul\":26311:26314   */\n      dup3\n        /* \"#utility.yul\":26307:26319   */\n      add\n        /* \"#utility.yul\":26300:26319   */\n      swap1\n      pop\n        /* \"#utility.yul\":25959:26325   */\n      swap2\n      swap1\n      pop\n      jump\t// out\n        /* \"#utility.yul\":26331:26750   */\n    tag_343:\n        /* \"#utility.yul\":26497:26501   */\n      0x00\n        /* \"#utility.yul\":26535:26537   */\n      0x20\n        /* \"#utility.yul\":26524:26533   */\n      dup3\n        /* \"#utility.yul\":26520:26538   */\n      add\n        /* \"#utility.yul\":26512:26538   */\n      swap1\n      pop\n        /* \"#utility.yul\":26584:26593   */\n      dup2\n        /* \"#utility.yul\":26578:26582   */\n      dup2\n        /* \"#utility.yul\":26574:26594   */\n      sub\n        /* \"#utility.yul\":26570:26571   */\n      0x00\n        /* \"#utility.yul\":26559:26568   */\n      dup4\n        /* \"#utility.yul\":26555:26572   */\n      add\n        /* \"#utility.yul\":26548:26595   */\n      mstore\n        /* \"#utility.yul\":26612:26743   */\n      tag_695\n        /* \"#utility.yul\":26738:26742   */\n      dup2\n        /* \"#utility.yul\":26612:26743   */\n      tag_474\n      jump\t// in\n    tag_695:\n        /* \"#utility.yul\":26604:26743   */\n      swap1\n      pop\n        /* \"#utility.yul\":26331:26750   */\n      swap2\n      swap1\n      pop\n      jump\t// out\n        /* \"#utility.yul\":26756:26933   */\n    tag_475:\n        /* \"#utility.yul\":26896:26925   */\n      0x4661696c656420746f2072657475726e20636f6c6c61746572616c0000000000\n        /* \"#utility.yul\":26892:26893   */\n      0x00\n        /* \"#utility.yul\":26884:26890   */\n      dup3\n        /* \"#utility.yul\":26880:26894   */\n      add\n        /* \"#utility.yul\":26873:26926   */\n      mstore\n        /* \"#utility.yul\":26756:26933   */\n      pop\n      jump\t// out\n        /* \"#utility.yul\":26939:27305   */\n    tag_476:\n        /* \"#utility.yul\":27081:27084   */\n      0x00\n        /* \"#utility.yul\":27102:27169   */\n      tag_698\n        /* \"#utility.yul\":27166:27168   */\n      0x1b\n        /* \"#utility.yul\":27161:27164   */\n      dup4\n        /* \"#utility.yul\":27102:27169   */\n      tag_433\n      jump\t// in\n    tag_698:\n        /* \"#utility.yul\":27095:27169   */\n      swap2\n      pop\n        /* \"#utility.yul\":27178:27271   */\n      tag_699\n        /* \"#utility.yul\":27267:27270   */\n      dup3\n        /* \"#utility.yul\":27178:27271   */\n      tag_475\n      jump\t// in\n    tag_699:\n        /* \"#utility.yul\":27296:27298   */\n      0x20\n        /* \"#utility.yul\":27291:27294   */\n      dup3\n        /* \"#utility.yul\":27287:27299   */\n      add\n        /* \"#utility.yul\":27280:27299   */\n      swap1\n      pop\n        /* \"#utility.yul\":26939:27305   */\n      swap2\n      swap1\n      pop\n      jump\t// out\n        /* \"#utility.yul\":27311:27730   */\n    tag_351:\n        /* \"#utility.yul\":27477:27481   */\n      0x00\n        /* \"#utility.yul\":27515:27517   */\n      0x20\n        /* \"#utility.yul\":27504:27513   */\n      dup3\n        /* \"#utility.yul\":27500:27518   */\n      add\n        /* \"#utility.yul\":27492:27518   */\n      swap1\n      pop\n        /* \"#utility.yul\":27564:27573   */\n      dup2\n        /* \"#utility.yul\":27558:27562   */\n      dup2\n        /* \"#utility.yul\":27554:27574   */\n      sub\n        /* \"#utility.yul\":27550:27551   */\n      0x00\n        /* \"#utility.yul\":27539:27548   */\n      dup4\n        /* \"#utility.yul\":27535:27552   */\n      add\n        /* \"#utility.yul\":27528:27575   */\n      mstore\n        /* \"#utility.yul\":27592:27723   */\n      tag_701\n        /* \"#utility.yul\":27718:27722   */\n      dup2\n        /* \"#utility.yul\":27592:27723   */\n      tag_476\n      jump\t// in\n    tag_701:\n        /* \"#utility.yul\":27584:27723   */\n      swap1\n      pop\n        /* \"#utility.yul\":27311:27730   */\n      swap2\n      swap1\n      pop\n      jump\t// out\n        /* \"#utility.yul\":27736:27909   */\n    tag_477:\n        /* \"#utility.yul\":27876:27901   */\n      0x4c6f616e20616d6f756e74206d757374206265203e2030000000000000000000\n        /* \"#utility.yul\":27872:27873   */\n      0x00\n        /* \"#utility.yul\":27864:27870   */\n      dup3\n        /* \"#utility.yul\":27860:27874   */\n      add\n        /* \"#utility.yul\":27853:27902   */\n      mstore\n        /* \"#utility.yul\":27736:27909   */\n      pop\n      jump\t// out\n        /* \"#utility.yul\":27915:28281   */\n    tag_478:\n        /* \"#utility.yul\":28057:28060   */\n      0x00\n        /* \"#utility.yul\":28078:28145   */\n      tag_704\n        /* \"#utility.yul\":28142:28144   */\n      0x17\n        /* \"#utility.yul\":28137:28140   */\n      dup4\n        /* \"#utility.yul\":28078:28145   */\n      tag_433\n      jump\t// in\n    tag_704:\n        /* \"#utility.yul\":28071:28145   */\n      swap2\n      pop\n        /* \"#utility.yul\":28154:28247   */\n      tag_705\n        /* \"#utility.yul\":28243:28246   */\n      dup3\n        /* \"#utility.yul\":28154:28247   */\n      tag_477\n      jump\t// in\n    tag_705:\n        /* \"#utility.yul\":28272:28274   */\n      0x20\n        /* \"#utility.yul\":28267:28270   */\n      dup3\n        /* \"#utility.yul\":28263:28275   */\n      add\n        /* \"#utility.yul\":28256:28275   */\n      swap1\n      pop\n        /* \"#utility.yul\":27915:28281   */\n      swap2\n      swap1\n      pop\n      jump\t// out\n        /* \"#utility.yul\":28287:28706   */\n    tag_356:\n        /* \"#utility.yul\":28453:28457   */\n      0x00\n        /* \"#utility.yul\":28491:28493   */\n      0x20\n        /* \"#utility.yul\":28480:28489   */\n      dup3\n        /* \"#utility.yul\":28476:28494   */\n      add\n        /* \"#utility.yul\":28468:28494   */\n      swap1\n      pop\n        /* \"#utility.yul\":28540:28549   */\n      dup2\n        /* \"#utility.yul\":28534:28538   */\n      dup2\n        /* \"#utility.yul\":28530:28550   */\n      sub\n        /* \"#utility.yul\":28526:28527   */\n      0x00\n        /* \"#utility.yul\":28515:28524   */\n      dup4\n        /* \"#utility.yul\":28511:28528   */\n      add\n        /* \"#utility.yul\":28504:28551   */\n      mstore\n        /* \"#utility.yul\":28568:28699   */\n      tag_707\n        /* \"#utility.yul\":28694:28698   */\n      dup2\n        /* \"#utility.yul\":28568:28699   */\n      tag_478\n      jump\t// in\n    tag_707:\n        /* \"#utility.yul\":28560:28699   */\n      swap1\n      pop\n        /* \"#utility.yul\":28287:28706   */\n      swap2\n      swap1\n      pop\n      jump\t// out\n        /* \"#utility.yul\":28712:28935   */\n    tag_479:\n        /* \"#utility.yul\":28852:28886   */\n      0x4c6f616e20646f6573206e6f74206578697374206f7220686173206e6f20616d\n        /* \"#utility.yul\":28848:28849   */\n      0x00\n        /* \"#utility.yul\":28840:28846   */\n      dup3\n        /* \"#utility.yul\":28836:28850   */\n      add\n        /* \"#utility.yul\":28829:28887   */\n      mstore\n        /* \"#utility.yul\":28921:28927   */\n      0x6f756e7400000000000000000000000000000000000000000000000000000000\n        /* \"#utility.yul\":28916:28918   */\n      0x20\n        /* \"#utility.yul\":28908:28914   */\n      dup3\n        /* \"#utility.yul\":28904:28919   */\n      add\n        /* \"#utility.yul\":28897:28928   */\n      mstore\n        /* \"#utility.yul\":28712:28935   */\n      pop\n      jump\t// out\n        /* \"#utility.yul\":28941:29307   */\n    tag_480:\n        /* \"#utility.yul\":29083:29086   */\n      0x00\n        /* \"#utility.yul\":29104:29171   */\n      tag_710\n        /* \"#utility.yul\":29168:29170   */\n      0x24\n        /* \"#utility.yul\":29163:29166   */\n      dup4\n        /* \"#utility.yul\":29104:29171   */\n      tag_433\n      jump\t// in\n    tag_710:\n        /* \"#utility.yul\":29097:29171   */\n      swap2\n      pop\n        /* \"#utility.yul\":29180:29273   */\n      tag_711\n        /* \"#utility.yul\":29269:29272   */\n      dup3\n        /* \"#utility.yul\":29180:29273   */\n      tag_479\n      jump\t// in\n    tag_711:\n        /* \"#utility.yul\":29298:29300   */\n      0x40\n        /* \"#utility.yul\":29293:29296   */\n      dup3\n        /* \"#utility.yul\":29289:29301   */\n      add\n        /* \"#utility.yul\":29282:29301   */\n      swap1\n      pop\n        /* \"#utility.yul\":28941:29307   */\n      swap2\n      swap1\n      pop\n      jump\t// out\n        /* \"#utility.yul\":29313:29732   */\n    tag_362:\n        /* \"#utility.yul\":29479:29483   */\n      0x00\n        /* \"#utility.yul\":29517:29519   */\n      0x20\n        /* \"#utility.yul\":29506:29515   */\n      dup3\n        /* \"#utility.yul\":29502:29520   */\n      add\n        /* \"#utility.yul\":29494:29520   */\n      swap1\n      pop\n        /* \"#utility.yul\":29566:29575   */\n      dup2\n        /* \"#utility.yul\":29560:29564   */\n      dup2\n        /* \"#utility.yul\":29556:29576   */\n      sub\n        /* \"#utility.yul\":29552:29553   */\n      0x00\n        /* \"#utility.yul\":29541:29550   */\n      dup4\n        /* \"#utility.yul\":29537:29554   */\n      add\n        /* \"#utility.yul\":29530:29577   */\n      mstore\n        /* \"#utility.yul\":29594:29725   */\n      tag_713\n        /* \"#utility.yul\":29720:29724   */\n      dup2\n        /* \"#utility.yul\":29594:29725   */\n      tag_480\n      jump\t// in\n    tag_713:\n        /* \"#utility.yul\":29586:29725   */\n      swap1\n      pop\n        /* \"#utility.yul\":29313:29732   */\n      swap2\n      swap1\n      pop\n      jump\t// out\n        /* \"#utility.yul\":29738:29909   */\n    tag_481:\n        /* \"#utility.yul\":29878:29901   */\n      0x4e6f206665657320746f20646973747269627574650000000000000000000000\n        /* \"#utility.yul\":29874:29875   */\n      0x00\n        /* \"#utility.yul\":29866:29872   */\n      dup3\n        /* \"#utility.yul\":29862:29876   */\n      add\n        /* \"#utility.yul\":29855:29902   */\n      mstore\n        /* \"#utility.yul\":29738:29909   */\n      pop\n      jump\t// out\n        /* \"#utility.yul\":29915:30281   */\n    tag_482:\n        /* \"#utility.yul\":30057:30060   */\n      0x00\n        /* \"#utility.yul\":30078:30145   */\n      tag_716\n        /* \"#utility.yul\":30142:30144   */\n      0x15\n        /* \"#utility.yul\":30137:30140   */\n      dup4\n        /* \"#utility.yul\":30078:30145   */\n      tag_433\n      jump\t// in\n    tag_716:\n        /* \"#utility.yul\":30071:30145   */\n      swap2\n      pop\n        /* \"#utility.yul\":30154:30247   */\n      tag_717\n        /* \"#utility.yul\":30243:30246   */\n      dup3\n        /* \"#utility.yul\":30154:30247   */\n      tag_481\n      jump\t// in\n    tag_717:\n        /* \"#utility.yul\":30272:30274   */\n      0x20\n        /* \"#utility.yul\":30267:30270   */\n      dup3\n        /* \"#utility.yul\":30263:30275   */\n      add\n        /* \"#utility.yul\":30256:30275   */\n      swap1\n      pop\n        /* \"#utility.yul\":29915:30281   */\n      swap2\n      swap1\n      pop\n      jump\t// out\n        /* \"#utility.yul\":30287:30706   */\n    tag_373:\n        /* \"#utility.yul\":30453:30457   */\n      0x00\n        /* \"#utility.yul\":30491:30493   */\n      0x20\n        /* \"#utility.yul\":30480:30489   */\n      dup3\n        /* \"#utility.yul\":30476:30494   */\n      add\n        /* \"#utility.yul\":30468:30494   */\n      swap1\n      pop\n        /* \"#utility.yul\":30540:30549   */\n      dup2\n        /* \"#utility.yul\":30534:30538   */\n      dup2\n        /* \"#utility.yul\":30530:30550   */\n      sub\n        /* \"#utility.yul\":30526:30527   */\n      0x00\n        /* \"#utility.yul\":30515:30524   */\n      dup4\n        /* \"#utility.yul\":30511:30528   */\n      add\n        /* \"#utility.yul\":30504:30551   */\n      mstore\n        /* \"#utility.yul\":30568:30699   */\n      tag_719\n        /* \"#utility.yul\":30694:30698   */\n      dup2\n        /* \"#utility.yul\":30568:30699   */\n      tag_482\n      jump\t// in\n    tag_719:\n        /* \"#utility.yul\":30560:30699   */\n      swap1\n      pop\n        /* \"#utility.yul\":30287:30706   */\n      swap2\n      swap1\n      pop\n      jump\t// out\n        /* \"#utility.yul\":30712:30885   */\n    tag_483:\n        /* \"#utility.yul\":30852:30877   */\n      0x46656520646973747269627574696f6e206661696c6564000000000000000000\n        /* \"#utility.yul\":30848:30849   */\n      0x00\n        /* \"#utility.yul\":30840:30846   */\n      dup3\n        /* \"#utility.yul\":30836:30850   */\n      add\n        /* \"#utility.yul\":30829:30878   */\n      mstore\n        /* \"#utility.yul\":30712:30885   */\n      pop\n      jump\t// out\n        /* \"#utility.yul\":30891:31257   */\n    tag_484:\n        /* \"#utility.yul\":31033:31036   */\n      0x00\n        /* \"#utility.yul\":31054:31121   */\n      tag_722\n        /* \"#utility.yul\":31118:31120   */\n      0x17\n        /* \"#utility.yul\":31113:31116   */\n      dup4\n        /* \"#utility.yul\":31054:31121   */\n      tag_433\n      jump\t// in\n    tag_722:\n        /* \"#utility.yul\":31047:31121   */\n      swap2\n      pop\n        /* \"#utility.yul\":31130:31223   */\n      tag_723\n        /* \"#utility.yul\":31219:31222   */\n      dup3\n        /* \"#utility.yul\":31130:31223   */\n      tag_483\n      jump\t// in\n    tag_723:\n        /* \"#utility.yul\":31248:31250   */\n      0x20\n        /* \"#utility.yul\":31243:31246   */\n      dup3\n        /* \"#utility.yul\":31239:31251   */\n      add\n        /* \"#utility.yul\":31232:31251   */\n      swap1\n      pop\n        /* \"#utility.yul\":30891:31257   */\n      swap2\n      swap1\n      pop\n      jump\t// out\n        /* \"#utility.yul\":31263:31682   */\n    tag_389:\n        /* \"#utility.yul\":31429:31433   */\n      0x00\n        /* \"#utility.yul\":31467:31469   */\n      0x20\n        /* \"#utility.yul\":31456:31465   */\n      dup3\n        /* \"#utility.yul\":31452:31470   */\n      add\n        /* \"#utility.yul\":31444:31470   */\n      swap1\n      pop\n        /* \"#utility.yul\":31516:31525   */\n      dup2\n        /* \"#utility.yul\":31510:31514   */\n      dup2\n        /* \"#utility.yul\":31506:31526   */\n      sub\n        /* \"#utility.yul\":31502:31503   */\n      0x00\n        /* \"#utility.yul\":31491:31500   */\n      dup4\n        /* \"#utility.yul\":31487:31504   */\n      add\n        /* \"#utility.yul\":31480:31527   */\n      mstore\n        /* \"#utility.yul\":31544:31675   */\n      tag_725\n        /* \"#utility.yul\":31670:31674   */\n      dup2\n        /* \"#utility.yul\":31544:31675   */\n      tag_484\n      jump\t// in\n    tag_725:\n        /* \"#utility.yul\":31536:31675   */\n      swap1\n      pop\n        /* \"#utility.yul\":31263:31682   */\n      swap2\n      swap1\n      pop\n      jump\t// out\n        /* \"#utility.yul\":31688:31912   */\n    tag_485:\n        /* \"#utility.yul\":31828:31862   */\n      0x4465706f73697420616d6f756e74206d75737420626520677265617465722074\n        /* \"#utility.yul\":31824:31825   */\n      0x00\n        /* \"#utility.yul\":31816:31822   */\n      dup3\n        /* \"#utility.yul\":31812:31826   */\n      add\n        /* \"#utility.yul\":31805:31863   */\n      mstore\n        /* \"#utility.yul\":31897:31904   */\n      0x68616e2030000000000000000000000000000000000000000000000000000000\n        /* \"#utility.yul\":31892:31894   */\n      0x20\n        /* \"#utility.yul\":31884:31890   */\n      dup3\n        /* \"#utility.yul\":31880:31895   */\n      add\n        /* \"#utility.yul\":31873:31905   */\n      mstore\n        /* \"#utility.yul\":31688:31912   */\n      pop\n      jump\t// out\n        /* \"#utility.yul\":31918:32284   */\n    tag_486:\n        /* \"#utility.yul\":32060:32063   */\n      0x00\n        /* \"#utility.yul\":32081:32148   */\n      tag_728\n        /* \"#utility.yul\":32145:32147   */\n      0x25\n        /* \"#utility.yul\":32140:32143   */\n      dup4\n        /* \"#utility.yul\":32081:32148   */\n      tag_433\n      jump\t// in\n    tag_728:\n        /* \"#utility.yul\":32074:32148   */\n      swap2\n      pop\n        /* \"#utility.yul\":32157:32250   */\n      tag_729\n        /* \"#utility.yul\":32246:32249   */\n      dup3\n        /* \"#utility.yul\":32157:32250   */\n      tag_485\n      jump\t// in\n    tag_729:\n        /* \"#utility.yul\":32275:32277   */\n      0x40\n        /* \"#utility.yul\":32270:32273   */\n      dup3\n        /* \"#utility.yul\":32266:32278   */\n      add\n        /* \"#utility.yul\":32259:32278   */\n      swap1\n      pop\n        /* \"#utility.yul\":31918:32284   */\n      swap2\n      swap1\n      pop\n      jump\t// out\n        /* \"#utility.yul\":32290:32709   */\n    tag_396:\n        /* \"#utility.yul\":32456:32460   */\n      0x00\n        /* \"#utility.yul\":32494:32496   */\n      0x20\n        /* \"#utility.yul\":32483:32492   */\n      dup3\n        /* \"#utility.yul\":32479:32497   */\n      add\n        /* \"#utility.yul\":32471:32497   */\n      swap1\n      pop\n        /* \"#utility.yul\":32543:32552   */\n      dup2\n        /* \"#utility.yul\":32537:32541   */\n      dup2\n        /* \"#utility.yul\":32533:32553   */\n      sub\n        /* \"#utility.yul\":32529:32530   */\n      0x00\n        /* \"#utility.yul\":32518:32527   */\n      dup4\n        /* \"#utility.yul\":32514:32531   */\n      add\n        /* \"#utility.yul\":32507:32554   */\n      mstore\n        /* \"#utility.yul\":32571:32702   */\n      tag_731\n        /* \"#utility.yul\":32697:32701   */\n      dup2\n        /* \"#utility.yul\":32571:32702   */\n      tag_486\n      jump\t// in\n    tag_731:\n        /* \"#utility.yul\":32563:32702   */\n      swap1\n      pop\n        /* \"#utility.yul\":32290:32709   */\n      swap2\n      swap1\n      pop\n      jump\t// out\n\n    auxdata: 0xa2646970667358221220f975f328fe62d5c14ee1c3826d85a537d33e4b08eb357d94c65c8efcc978b1ed64736f6c634300081a0033\n}\n",
				"bytecode": {
					"linkReferences": {},
					"object": "60806040526005805560056006553480156017575f80fd5b503360015f6101000a81548173ffffffffffffffffffffffffffffffffffffffff021916908373ffffffffffffffffffffffffffffffffffffffff16021790555042600b819055506133e88061006c5f395ff3fe6080604052600436106101f1575f3560e01c8063a31831251161010c578063c84aae171161009f578063e1ec3c681161006e578063e1ec3c68146106ca578063e4b2fb791461070c578063e59c20d014610748578063eeb97d3b14610784578063fc7e286d146107c0576101f8565b8063c84aae171461061c578063cbb3d8081461065a578063d0e30db014610684578063d8bad5bd1461068e576101f8565b8063b1197239116100db578063b119723914610570578063b3f54444146105ac578063bb57ad20146105e8578063c0789dcb146105f2576101f8565b8063a3183125146104e6578063a6afed9514610502578063ab7b1c8914610518578063abb7bc4a14610534576101f8565b8063560c88ed116101845780638da5cb5b116101535780638da5cb5b1461041a57806395ddbe891461044457806396f159ba1461046e5780639b56d6c9146104aa576101f8565b8063560c88ed146103725780636f9fb98a1461039c5780637c3a00fd146103c65780638393ea5f146103f0576101f8565b806334d9289e116101c057806334d9289e146102a657806334f93778146102d0578063477348921461030c5780634ba5e2ce14610348576101f8565b806315770f92146101fc5780632e1a7d4d146102265780632f70d1ba146102425780632f8655681461027e576101f8565b366101f857005b5f80fd5b348015610207575f80fd5b506102106107fc565b60405161021d91906123e2565b60405180910390f35b610240600480360381019061023b9190612429565b610802565b005b34801561024d575f80fd5b50610268600480360381019061026391906124ae565b610bbb565b60405161027591906124f3565b60405180910390f35b348015610289575f80fd5b506102a4600480360381019061029f91906124ae565b610c5b565b005b3480156102b1575f80fd5b506102ba610fe6565b6040516102c791906123e2565b60405180910390f35b3480156102db575f80fd5b506102f660048036038101906102f191906124ae565b610fec565b60405161030391906123e2565b60405180910390f35b348015610317575f80fd5b50610332600480360381019061032d91906124ae565b61100a565b60405161033f91906123e2565b60405180910390f35b348015610353575f80fd5b5061035c611098565b60405161036991906123e2565b60405180910390f35b34801561037d575f80fd5b5061038661109d565b60405161039391906123e2565b60405180910390f35b3480156103a7575f80fd5b506103b061114d565b6040516103bd91906123e2565b60405180910390f35b3480156103d1575f80fd5b506103da611154565b6040516103e791906123e2565b60405180910390f35b3480156103fb575f80fd5b5061040461115a565b60405161041191906123e2565b60405180910390f35b348015610425575f80fd5b5061042e611160565b60405161043b919061251b565b60405180910390f35b34801561044f575f80fd5b50610458611185565b60405161046591906123e2565b60405180910390f35b348015610479575f80fd5b50610494600480360381019061048f91906124ae565b61118e565b6040516104a191906123e2565b60405180910390f35b3480156104b5575f80fd5b506104d060048036038101906104cb91906124ae565b6111a3565b6040516104dd91906123e2565b60405180910390f35b61050060048036038101906104fb9190612534565b6111e8565b005b34801561050d575f80fd5b506105166115e8565b005b610532600480360381019061052d9190612429565b6116f6565b005b34801561053f575f80fd5b5061055a60048036038101906105559190612429565b611b19565b60405161056791906123e2565b60405180910390f35b34801561057b575f80fd5b5061059660048036038101906105919190612429565b611b7c565b6040516105a391906123e2565b60405180910390f35b3480156105b7575f80fd5b506105d260048036038101906105cd91906124ae565b611ca0565b6040516105df91906123e2565b60405180910390f35b6105f0611d12565b005b3480156105fd575f80fd5b50610606611f79565b60405161061391906123e2565b60405180910390f35b348015610627575f80fd5b50610642600480360381019061063d91906124ae565b611f7f565b60405161065193929190612572565b60405180910390f35b348015610665575f80fd5b5061066e612048565b60405161067b91906123e2565b60405180910390f35b61068c61204e565b005b348015610699575f80fd5b506106b460048036038101906106af91906125a7565b6121ab565b6040516106c191906123e2565b60405180910390f35b3480156106d5575f80fd5b506106f060048036038101906106eb9190612429565b6121d6565b60405161070397969594939291906125e5565b60405180910390f35b348015610717575f80fd5b50610732600480360381019061072d9190612429565b61224c565b60405161073f919061251b565b60405180910390f35b348015610753575f80fd5b5061076e60048036038101906107699190612429565b612287565b60405161077b91906123e2565b60405180910390f35b34801561078f575f80fd5b506107aa60048036038101906107a591906124ae565b6122fb565b6040516107b791906123e2565b60405180910390f35b3480156107cb575f80fd5b506107e660048036038101906107e191906124ae565b61230f565b6040516107f391906123e2565b60405180910390f35b60045481565b61080b33610bbb565b61084a576040517f08c379a0000000000000000000000000000000000000000000000000000000008152600401610841906126ac565b60405180910390fd5b60025f3373ffffffffffffffffffffffffffffffffffffffff1673ffffffffffffffffffffffffffffffffffffffff1681526020019081526020015f20548111156108ca576040517f08c379a00000000000000000000000000000000000000000000000000000000081526004016108c19061273a565b60405180910390fd5b60045481111561090f576040517f08c379a0000000000000000000000000000000000000000000000000000000008152600401610906906127a2565b60405180910390fd5b8060025f3373ffffffffffffffffffffffffffffffffffffffff1673ffffffffffffffffffffffffffffffffffffffff1681526020019081526020015f205f82825461095b91906127ed565b925050819055508060045f82825461097391906127ed565b925050819055505f3373ffffffffffffffffffffffffffffffffffffffff168260405161099f9061284d565b5f6040518083038185875af1925050503d805f81146109d9576040519150601f19603f3d011682016040523d82523d5f602084013e6109de565b606091505b5050905080610a22576040517f08c379a0000000000000000000000000000000000000000000000000000000008152600401610a19906128ab565b60405180910390fd5b5f60025f3373ffffffffffffffffffffffffffffffffffffffff1673ffffffffffffffffffffffffffffffffffffffff1681526020019081526020015f205403610b69575f80610a7133612324565b915091508115610b6657600a6001600a80549050610a8f91906127ed565b81548110610aa057610a9f6128c9565b5b905f5260205f20015f9054906101000a900473ffffffffffffffffffffffffffffffffffffffff16600a8281548110610adc57610adb6128c9565b5b905f5260205f20015f6101000a81548173ffffffffffffffffffffffffffffffffffffffff021916908373ffffffffffffffffffffffffffffffffffffffff160217905550600a805480610b3357610b326128f6565b5b600190038181905f5260205f20015f6101000a81549073ffffffffffffffffffffffffffffffffffffffff021916905590555b50505b3373ffffffffffffffffffffffffffffffffffffffff167f7fcf532c15f0a6db0bd6d0e038bea71d30d808c7d98cb3bf7268a95bf5081b6583604051610baf91906123e2565b60405180910390a25050565b5f805f90505b600a80549050811015610c51578273ffffffffffffffffffffffffffffffffffffffff16600a8281548110610bf957610bf86128c9565b5b905f5260205f20015f9054906101000a900473ffffffffffffffffffffffffffffffffffffffff1673ffffffffffffffffffffffffffffffffffffffff1603610c46576001915050610c56565b806001019050610bc1565b505f90505b919050565b60015f9054906101000a900473ffffffffffffffffffffffffffffffffffffffff1673ffffffffffffffffffffffffffffffffffffffff163373ffffffffffffffffffffffffffffffffffffffff1614610cea576040517f08c379a0000000000000000000000000000000000000000000000000000000008152600401610ce190612993565b60405180910390fd5b5f60035f8373ffffffffffffffffffffffffffffffffffffffff1673ffffffffffffffffffffffffffffffffffffffff1681526020019081526020015f205411610d69576040517f08c379a0000000000000000000000000000000000000000000000000000000008152600401610d6090612a21565b60405180910390fd5b5f60035f8373ffffffffffffffffffffffffffffffffffffffff1673ffffffffffffffffffffffffffffffffffffffff1681526020019081526020015f205490505f805f8473ffffffffffffffffffffffffffffffffffffffff1673ffffffffffffffffffffffffffffffffffffffff1681526020019081526020015f205490505f8111610e2c576040517f08c379a0000000000000000000000000000000000000000000000000000000008152600401610e2390612a89565b60405180910390fd5b5f60035f8573ffffffffffffffffffffffffffffffffffffffff1673ffffffffffffffffffffffffffffffffffffffff1681526020019081526020015f20819055505f805f8573ffffffffffffffffffffffffffffffffffffffff1673ffffffffffffffffffffffffffffffffffffffff1681526020019081526020015f20819055505f60015f9054906101000a900473ffffffffffffffffffffffffffffffffffffffff1673ffffffffffffffffffffffffffffffffffffffff1682604051610ef59061284d565b5f6040518083038185875af1925050503d805f8114610f2f576040519150601f19603f3d011682016040523d82523d5f602084013e610f34565b606091505b5050905080610f78576040517f08c379a0000000000000000000000000000000000000000000000000000000008152600401610f6f90612b17565b60405180910390fd5b8260045f828254610f899190612b35565b925050819055508373ffffffffffffffffffffffffffffffffffffffff167f3c4b1d42b9c7fa283f6fe657533f6a5a8a7ad1d36f9ef1d9d89ad04485e10d2c8385604051610fd8929190612b68565b60405180910390a250505050565b60075481565b5f610ff682611ca0565b600c546110039190612b8f565b9050919050565b5f61101482610bbb565b611053576040517f08c379a000000000000000000000000000000000000000000000000000000000815260040161104a90612c1a565b60405180910390fd5b60025f8373ffffffffffffffffffffffffffffffffffffffff1673ffffffffffffffffffffffffffffffffffffffff1681526020019081526020015f20549050919050565b600181565b5f805f90505f600190505b60075481116111385760085f8281526020019081526020015f2060050160019054906101000a900460ff1680156110fd575060085f8281526020019081526020015f206005015f9054906101000a900460ff16155b156111255760085f8281526020019081526020015f2060010154826111229190612b35565b91505b808061113090612c38565b9150506110a8565b50806004546111479190612b35565b91505090565b5f47905090565b60055481565b600c5481565b60015f9054906101000a900473ffffffffffffffffffffffffffffffffffffffff1681565b5f600454905090565b6003602052805f5260405f205f915090505481565b5f805f8373ffffffffffffffffffffffffffffffffffffffff1673ffffffffffffffffffffffffffffffffffffffff1681526020019081526020015f20549050919050565b5f821161122a576040517f08c379a000000000000000000000000000000000000000000000000000000000815260040161122190612cef565b60405180910390fd5b60045482111561126f576040517f08c379a0000000000000000000000000000000000000000000000000000000008152600401611266906127a2565b60405180910390fd5b606460968361127e9190612b8f565b6112889190612d3a565b3410156112ca576040517f08c379a00000000000000000000000000000000000000000000000000000000081526004016112c190612dda565b60405180910390fd5b5f6112d483612287565b90505f62015180836112e69190612b8f565b426112f19190612b35565b905060075f81548092919061130590612c38565b91905055506040518060e001604052803373ffffffffffffffffffffffffffffffffffffffff16815260200185815260200160065481526020018381526020018281526020015f151581526020016001151581525060085f60075481526020019081526020015f205f820151815f015f6101000a81548173ffffffffffffffffffffffffffffffffffffffff021916908373ffffffffffffffffffffffffffffffffffffffff1602179055506020820151816001015560408201518160020155606082015181600301556080820151816004015560a0820151816005015f6101000a81548160ff02191690831515021790555060c08201518160050160016101000a81548160ff02191690831515021790555090505060095f3373ffffffffffffffffffffffffffffffffffffffff1673ffffffffffffffffffffffffffffffffffffffff1681526020019081526020015f20600754908060018154018082558091505060019003905f5260205f20015f9091909190915055345f803373ffffffffffffffffffffffffffffffffffffffff1673ffffffffffffffffffffffffffffffffffffffff1681526020019081526020015f205f8282546114c99190612b35565b925050819055508360045f8282546114e191906127ed565b925050819055505f3373ffffffffffffffffffffffffffffffffffffffff168560405161150d9061284d565b5f6040518083038185875af1925050503d805f8114611547576040519150601f19603f3d011682016040523d82523d5f602084013e61154c565b606091505b5050905080611590576040517f08c379a000000000000000000000000000000000000000000000000000000000815260040161158790612e42565b60405180910390fd5b3373ffffffffffffffffffffffffffffffffffffffff167e6b9bb4766cf5ab74b890df959e4fad0e54b1c3885e49c9541d36253a6e39e6600754876040516115d9929190612b68565b60405180910390a25050505050565b5f6004541161162c576040517f08c379a000000000000000000000000000000000000000000000000000000000815260040161162390612ed0565b60405180910390fd5b5f600b544261163b91906127ed565b90506301e13380811161164e57506116f4565b5f6301e1338090505f8160646116649190612b8f565b836006546004546116759190612b8f565b61167f9190612b8f565b6116899190612d3a565b90505f8111156116f05780600c5f8282546116a49190612b35565b9250508190555042600b819055507fe9d95e658b0c714da9de2e12fbed253a24a632058a074dc7c90b8b6618675c7c81600454426040516116e793929190612572565b60405180910390a15b5050505b565b5f60085f8381526020019081526020015f2090503373ffffffffffffffffffffffffffffffffffffffff16815f015f9054906101000a900473ffffffffffffffffffffffffffffffffffffffff1673ffffffffffffffffffffffffffffffffffffffff161461179a576040517f08c379a000000000000000000000000000000000000000000000000000000000815260040161179190612f38565b60405180910390fd5b8060050160019054906101000a900460ff166117eb576040517f08c379a00000000000000000000000000000000000000000000000000000000081526004016117e290612fa0565b60405180910390fd5b806005015f9054906101000a900460ff161561183c576040517f08c379a000000000000000000000000000000000000000000000000000000000815260040161183390613008565b60405180910390fd5b8060030154341015611883576040517f08c379a000000000000000000000000000000000000000000000000000000000815260040161187a90613070565b60405180910390fd5b5f6064600183600301546118979190612b8f565b6118a19190612d3a565b90505f8183600301546118b491906127ed565b905081600c5f8282546118c79190612b35565b925050819055506001836005015f6101000a81548160ff0219169083151502179055505f8360050160016101000a81548160ff0219169083151502179055505f805f3373ffffffffffffffffffffffffffffffffffffffff1673ffffffffffffffffffffffffffffffffffffffff1681526020019081526020015f205490505f8111611988576040517f08c379a000000000000000000000000000000000000000000000000000000000815260040161197f906130d8565b60405180910390fd5b5f805f3373ffffffffffffffffffffffffffffffffffffffff1673ffffffffffffffffffffffffffffffffffffffff1681526020019081526020015f20819055508160045f8282546119da9190612b35565b925050819055506001846005015f6101000a81548160ff0219169083151502179055505f8460050160016101000a81548160ff0219169083151502179055505f3373ffffffffffffffffffffffffffffffffffffffff1682604051611a3e9061284d565b5f6040518083038185875af1925050503d805f8114611a78576040519150601f19603f3d011682016040523d82523d5f602084013e611a7d565b606091505b5050905080611ac1576040517f08c379a0000000000000000000000000000000000000000000000000000000008152600401611ab890613140565b60405180910390fd5b3373ffffffffffffffffffffffffffffffffffffffff167fc7ce0a35f17b490de2a317e7fecb2cae86b1abffb03800b2f4928235213826988734604051611b09929190612b68565b60405180910390a2505050505050565b5f808211611b5c576040517f08c379a0000000000000000000000000000000000000000000000000000000008152600401611b53906131a8565b60405180910390fd5b6064609683611b6b9190612b8f565b611b759190612d3a565b9050919050565b5f8060085f8481526020019081526020015f206040518060e00160405290815f82015f9054906101000a900473ffffffffffffffffffffffffffffffffffffffff1673ffffffffffffffffffffffffffffffffffffffff1673ffffffffffffffffffffffffffffffffffffffff16815260200160018201548152602001600282015481526020016003820154815260200160048201548152602001600582015f9054906101000a900460ff161515151581526020016005820160019054906101000a900460ff16151515158152505090505f816020015111611c93576040517f08c379a0000000000000000000000000000000000000000000000000000000008152600401611c8a90613236565b60405180910390fd5b8060600151915050919050565b5f8060045403611cb2575f9050611d0d565b600454600c5460025f8573ffffffffffffffffffffffffffffffffffffffff1673ffffffffffffffffffffffffffffffffffffffff1681526020019081526020015f2054611d009190612b8f565b611d0a9190612d3a565b90505b919050565b60015f9054906101000a900473ffffffffffffffffffffffffffffffffffffffff1673ffffffffffffffffffffffffffffffffffffffff163373ffffffffffffffffffffffffffffffffffffffff1614611da1576040517f08c379a0000000000000000000000000000000000000000000000000000000008152600401611d9890612993565b60405180910390fd5b5f600c5411611de5576040517f08c379a0000000000000000000000000000000000000000000000000000000008152600401611ddc9061329e565b60405180910390fd5b5f805b600a80549050811015611f5d575f600a8281548110611e0a57611e096128c9565b5b905f5260205f20015f9054906101000a900473ffffffffffffffffffffffffffffffffffffffff1690505f611e3e82611ca0565b90505f811115611f4e578084611e549190612b35565b93505f8273ffffffffffffffffffffffffffffffffffffffff1682604051611e7b9061284d565b5f6040518083038185875af1925050503d805f8114611eb5576040519150601f19603f3d011682016040523d82523d5f602084013e611eba565b606091505b5050905080611efe576040517f08c379a0000000000000000000000000000000000000000000000000000000008152600401611ef590613306565b60405180910390fd5b8273ffffffffffffffffffffffffffffffffffffffff167f6c461460f28af1386f23dc4c0c7f4e2e54f0db320a8edc08803e4b787f6db32583604051611f4491906123e2565b60405180910390a2505b50508080600101915050611de8565b5080600c5f828254611f6f91906127ed565b9250508190555050565b600b5481565b5f805f60025f8573ffffffffffffffffffffffffffffffffffffffff1673ffffffffffffffffffffffffffffffffffffffff1681526020019081526020015f205460035f8673ffffffffffffffffffffffffffffffffffffffff1673ffffffffffffffffffffffffffffffffffffffff1681526020019081526020015f20545f808773ffffffffffffffffffffffffffffffffffffffff1673ffffffffffffffffffffffffffffffffffffffff1681526020019081526020015f20549250925092509193909250565b60065481565b5f3411612090576040517f08c379a000000000000000000000000000000000000000000000000000000000815260040161208790613394565b60405180910390fd5b3460025f3373ffffffffffffffffffffffffffffffffffffffff1673ffffffffffffffffffffffffffffffffffffffff1681526020019081526020015f205f8282546120dc9190612b35565b925050819055503460045f8282546120f49190612b35565b925050819055503373ffffffffffffffffffffffffffffffffffffffff167fe1fffcc4923d04b559f4d29a8bfc6cda04eb5b0d3c460751c2402c5c5cc9109c3460405161214191906123e2565b60405180910390a2600a33908060018154018082558091505060019003905f5260205f20015f9091909190916101000a81548173ffffffffffffffffffffffffffffffffffffffff021916908373ffffffffffffffffffffffffffffffffffffffff160217905550565b6009602052815f5260405f2081815481106121c4575f80fd5b905f5260205f20015f91509150505481565b6008602052805f5260405f205f91509050805f015f9054906101000a900473ffffffffffffffffffffffffffffffffffffffff1690806001015490806002015490806003015490806004015490806005015f9054906101000a900460ff16908060050160019054906101000a900460ff16905087565b600a818154811061225b575f80fd5b905f5260205f20015f915054906101000a900473ffffffffffffffffffffffffffffffffffffffff1681565b5f8082116122ca576040517f08c379a00000000000000000000000000000000000000000000000000000000081526004016122c1906131a8565b60405180910390fd5b5f6064600654846122db9190612b8f565b6122e59190612d3a565b905080836122f39190612b35565b915050919050565b5f602052805f5260405f205f915090505481565b6002602052805f5260405f205f915090505481565b5f805f5b600a805490508110156123bd578373ffffffffffffffffffffffffffffffffffffffff16600a82815481106123605761235f6128c9565b5b905f5260205f20015f9054906101000a900473ffffffffffffffffffffffffffffffffffffffff1673ffffffffffffffffffffffffffffffffffffffff16036123b05760018192509250506123c5565b8080600101915050612328565b505f80915091505b915091565b5f819050919050565b6123dc816123ca565b82525050565b5f6020820190506123f55f8301846123d3565b92915050565b5f80fd5b612408816123ca565b8114612412575f80fd5b50565b5f81359050612423816123ff565b92915050565b5f6020828403121561243e5761243d6123fb565b5b5f61244b84828501612415565b91505092915050565b5f73ffffffffffffffffffffffffffffffffffffffff82169050919050565b5f61247d82612454565b9050919050565b61248d81612473565b8114612497575f80fd5b50565b5f813590506124a881612484565b92915050565b5f602082840312156124c3576124c26123fb565b5b5f6124d08482850161249a565b91505092915050565b5f8115159050919050565b6124ed816124d9565b82525050565b5f6020820190506125065f8301846124e4565b92915050565b61251581612473565b82525050565b5f60208201905061252e5f83018461250c565b92915050565b5f806040838503121561254a576125496123fb565b5b5f61255785828601612415565b925050602061256885828601612415565b9150509250929050565b5f6060820190506125855f8301866123d3565b61259260208301856123d3565b61259f60408301846123d3565b949350505050565b5f80604083850312156125bd576125bc6123fb565b5b5f6125ca8582860161249a565b92505060206125db85828601612415565b9150509250929050565b5f60e0820190506125f85f83018a61250c565b61260560208301896123d3565b61261260408301886123d3565b61261f60608301876123d3565b61262c60808301866123d3565b61263960a08301856124e4565b61264660c08301846124e4565b98975050505050505050565b5f82825260208201905092915050565b7f596f7520617265206e6f742061206465706f7369746f722e00000000000000005f82015250565b5f612696601883612652565b91506126a182612662565b602082019050919050565b5f6020820190508181035f8301526126c38161268a565b9050919050565b7f596f7520646f6e277420686176652074686973206d75636820616d6f756e74205f8201527f6f66206465706f73697420746f20776974686472617700000000000000000000602082015250565b5f612724603683612652565b915061272f826126ca565b604082019050919050565b5f6020820190508181035f83015261275181612718565b9050919050565b7f4e6f7420656e6f756768206c697175696469747920696e20706f6f6c000000005f82015250565b5f61278c601c83612652565b915061279782612758565b602082019050919050565b5f6020820190508181035f8301526127b981612780565b9050919050565b7f4e487b71000000000000000000000000000000000000000000000000000000005f52601160045260245ffd5b5f6127f7826123ca565b9150612802836123ca565b925082820390508181111561281a576128196127c0565b5b92915050565b5f81905092915050565b50565b5f6128385f83612820565b91506128438261282a565b5f82019050919050565b5f6128578261282d565b9150819050919050565b7f5769746864726177616c207472616e73666572206661696c65640000000000005f82015250565b5f612895601a83612652565b91506128a082612861565b602082019050919050565b5f6020820190508181035f8301526128c281612889565b9050919050565b7f4e487b71000000000000000000000000000000000000000000000000000000005f52603260045260245ffd5b7f4e487b71000000000000000000000000000000000000000000000000000000005f52603160045260245ffd5b7f4f6e6c7920746865206f776e65722063616e20706572666f726d2074686973205f8201527f616374696f6e0000000000000000000000000000000000000000000000000000602082015250565b5f61297d602683612652565b915061298882612923565b604082019050919050565b5f6020820190508181035f8301526129aa81612971565b9050919050565b7f4e6f20616374697665206c6f616e7320666f72207468697320626f72726f77655f8201527f7200000000000000000000000000000000000000000000000000000000000000602082015250565b5f612a0b602183612652565b9150612a16826129b1565b604082019050919050565b5f6020820190508181035f830152612a38816129ff565b9050919050565b7f4e6f20636f6c6c61746572616c20746f207365697a65000000000000000000005f82015250565b5f612a73601683612652565b9150612a7e82612a3f565b602082019050919050565b5f6020820190508181035f830152612aa081612a67565b9050919050565b7f4661696c656420746f207472616e7366657220636f6c6c61746572616c20746f5f8201527f206f776e65720000000000000000000000000000000000000000000000000000602082015250565b5f612b01602683612652565b9150612b0c82612aa7565b604082019050919050565b5f6020820190508181035f830152612b2e81612af5565b9050919050565b5f612b3f826123ca565b9150612b4a836123ca565b9250828201905080821115612b6257612b616127c0565b5b92915050565b5f604082019050612b7b5f8301856123d3565b612b8860208301846123d3565b9392505050565b5f612b99826123ca565b9150612ba4836123ca565b9250828202612bb2816123ca565b91508282048414831517612bc957612bc86127c0565b5b5092915050565b7f4e6f742061206465706f7369746f722e000000000000000000000000000000005f82015250565b5f612c04601083612652565b9150612c0f82612bd0565b602082019050919050565b5f6020820190508181035f830152612c3181612bf8565b9050919050565b5f612c42826123ca565b91507fffffffffffffffffffffffffffffffffffffffffffffffffffffffffffffffff8203612c7457612c736127c0565b5b600182019050919050565b7f4c6f616e20616d6f756e74206d7573742062652067726561746572207468616e5f8201527f2030000000000000000000000000000000000000000000000000000000000000602082015250565b5f612cd9602283612652565b9150612ce482612c7f565b604082019050919050565b5f6020820190508181035f830152612d0681612ccd565b9050919050565b7f4e487b71000000000000000000000000000000000000000000000000000000005f52601260045260245ffd5b5f612d44826123ca565b9150612d4f836123ca565b925082612d5f57612d5e612d0d565b5b828204905092915050565b7f436f6c6c61746572616c206d7573742062652031353025206f66206c6f616e205f8201527f616d6f756e740000000000000000000000000000000000000000000000000000602082015250565b5f612dc4602683612652565b9150612dcf82612d6a565b604082019050919050565b5f6020820190508181035f830152612df181612db8565b9050919050565b7f4c6f616e207472616e73666572206661696c65640000000000000000000000005f82015250565b5f612e2c601483612652565b9150612e3782612df8565b602082019050919050565b5f6020820190508181035f830152612e5981612e20565b9050919050565b7f4e6f206c697175696469747920746f2061636372756520696e746572657374205f8201527f6f6e000000000000000000000000000000000000000000000000000000000000602082015250565b5f612eba602283612652565b9150612ec582612e60565b604082019050919050565b5f6020820190508181035f830152612ee781612eae565b9050919050565b7f4e6f7420796f7572206c6f616e000000000000000000000000000000000000005f82015250565b5f612f22600d83612652565b9150612f2d82612eee565b602082019050919050565b5f6020820190508181035f830152612f4f81612f16565b9050919050565b7f4c6f616e206973206e6f742061637469766500000000000000000000000000005f82015250565b5f612f8a601283612652565b9150612f9582612f56565b602082019050919050565b5f6020820190508181035f830152612fb781612f7e565b9050919050565b7f4c6f616e20616c726561647920726570616964000000000000000000000000005f82015250565b5f612ff2601383612652565b9150612ffd82612fbe565b602082019050919050565b5f6020820190508181035f83015261301f81612fe6565b9050919050565b7f496e73756666696369656e742072657061796d656e7420616d6f756e740000005f82015250565b5f61305a601d83612652565b915061306582613026565b602082019050919050565b5f6020820190508181035f8301526130878161304e565b9050919050565b7f4e6f20636f6c6c61746572616c20746f2072657475726e0000000000000000005f82015250565b5f6130c2601783612652565b91506130cd8261308e565b602082019050919050565b5f6020820190508181035f8301526130ef816130b6565b9050919050565b7f4661696c656420746f2072657475726e20636f6c6c61746572616c00000000005f82015250565b5f61312a601b83612652565b9150613135826130f6565b602082019050919050565b5f6020820190508181035f8301526131578161311e565b9050919050565b7f4c6f616e20616d6f756e74206d757374206265203e20300000000000000000005f82015250565b5f613192601783612652565b915061319d8261315e565b602082019050919050565b5f6020820190508181035f8301526131bf81613186565b9050919050565b7f4c6f616e20646f6573206e6f74206578697374206f7220686173206e6f20616d5f8201527f6f756e7400000000000000000000000000000000000000000000000000000000602082015250565b5f613220602483612652565b915061322b826131c6565b604082019050919050565b5f6020820190508181035f83015261324d81613214565b9050919050565b7f4e6f206665657320746f206469737472696275746500000000000000000000005f82015250565b5f613288601583612652565b915061329382613254565b602082019050919050565b5f6020820190508181035f8301526132b58161327c565b9050919050565b7f46656520646973747269627574696f6e206661696c65640000000000000000005f82015250565b5f6132f0601783612652565b91506132fb826132bc565b602082019050919050565b5f6020820190508181035f83015261331d816132e4565b9050919050565b7f4465706f73697420616d6f756e74206d757374206265206772656174657220745f8201527f68616e2030000000000000000000000000000000000000000000000000000000602082015250565b5f61337e602583612652565b915061338982613324565b604082019050919050565b5f6020820190508181035f8301526133ab81613372565b905091905056fea2646970667358221220f975f328fe62d5c14ee1c3826d85a537d33e4b08eb357d94c65c8efcc978b1ed64736f6c634300081a0033",
					"opcodes": "PUSH1 0x80 PUSH1 0x40 MSTORE PUSH1 0x5 DUP1 SSTORE PUSH1 0x5 PUSH1 0x6 SSTORE CALLVALUE DUP1 ISZERO PUSH1 0x17 JUMPI PUSH0 DUP1 REVERT JUMPDEST POP CALLER PUSH1 0x1 PUSH0 PUSH2 0x100 EXP DUP2 SLOAD DUP2 PUSH20 0xFFFFFFFFFFFFFFFFFFFFFFFFFFFFFFFFFFFFFFFF MUL NOT AND SWAP1 DUP4 PUSH20 0xFFFFFFFFFFFFFFFFFFFFFFFFFFFFFFFFFFFFFFFF AND MUL OR SWAP1 SSTORE POP TIMESTAMP PUSH1 0xB DUP2 SWAP1 SSTORE POP PUSH2 0x33E8 DUP1 PUSH2 0x6C PUSH0 CODECOPY PUSH0 RETURN INVALID PUSH1 0x80 PUSH1 0x40 MSTORE PUSH1 0x4 CALLDATASIZE LT PUSH2 0x1F1 JUMPI PUSH0 CALLDATALOAD PUSH1 0xE0 SHR DUP1 PUSH4 0xA3183125 GT PUSH2 0x10C JUMPI DUP1 PUSH4 0xC84AAE17 GT PUSH2 0x9F JUMPI DUP1 PUSH4 0xE1EC3C68 GT PUSH2 0x6E JUMPI DUP1 PUSH4 0xE1EC3C68 EQ PUSH2 0x6CA JUMPI DUP1 PUSH4 0xE4B2FB79 EQ PUSH2 0x70C JUMPI DUP1 PUSH4 0xE59C20D0 EQ PUSH2 0x748 JUMPI DUP1 PUSH4 0xEEB97D3B EQ PUSH2 0x784 JUMPI DUP1 PUSH4 0xFC7E286D EQ PUSH2 0x7C0 JUMPI PUSH2 0x1F8 JUMP JUMPDEST DUP1 PUSH4 0xC84AAE17 EQ PUSH2 0x61C JUMPI DUP1 PUSH4 0xCBB3D808 EQ PUSH2 0x65A JUMPI DUP1 PUSH4 0xD0E30DB0 EQ PUSH2 0x684 JUMPI DUP1 PUSH4 0xD8BAD5BD EQ PUSH2 0x68E JUMPI PUSH2 0x1F8 JUMP JUMPDEST DUP1 PUSH4 0xB1197239 GT PUSH2 0xDB JUMPI DUP1 PUSH4 0xB1197239 EQ PUSH2 0x570 JUMPI DUP1 PUSH4 0xB3F54444 EQ PUSH2 0x5AC JUMPI DUP1 PUSH4 0xBB57AD20 EQ PUSH2 0x5E8 JUMPI DUP1 PUSH4 0xC0789DCB EQ PUSH2 0x5F2 JUMPI PUSH2 0x1F8 JUMP JUMPDEST DUP1 PUSH4 0xA3183125 EQ PUSH2 0x4E6 JUMPI DUP1 PUSH4 0xA6AFED95 EQ PUSH2 0x502 JUMPI DUP1 PUSH4 0xAB7B1C89 EQ PUSH2 0x518 JUMPI DUP1 PUSH4 0xABB7BC4A EQ PUSH2 0x534 JUMPI PUSH2 0x1F8 JUMP JUMPDEST DUP1 PUSH4 0x560C88ED GT PUSH2 0x184 JUMPI DUP1 PUSH4 0x8DA5CB5B GT PUSH2 0x153 JUMPI DUP1 PUSH4 0x8DA5CB5B EQ PUSH2 0x41A JUMPI DUP1 PUSH4 0x95DDBE89 EQ PUSH2 0x444 JUMPI DUP1 PUSH4 0x96F159BA EQ PUSH2 0x46E JUMPI DUP1 PUSH4 0x9B56D6C9 EQ PUSH2 0x4AA JUMPI PUSH2 0x1F8 JUMP JUMPDEST DUP1 PUSH4 0x560C88ED EQ PUSH2 0x372 JUMPI DUP1 PUSH4 0x6F9FB98A EQ PUSH2 0x39C JUMPI DUP1 PUSH4 0x7C3A00FD EQ PUSH2 0x3C6 JUMPI DUP1 PUSH4 0x8393EA5F EQ PUSH2 0x3F0 JUMPI PUSH2 0x1F8 JUMP JUMPDEST DUP1 PUSH4 0x34D9289E GT PUSH2 0x1C0 JUMPI DUP1 PUSH4 0x34D9289E EQ PUSH2 0x2A6 JUMPI DUP1 PUSH4 0x34F93778 EQ PUSH2 0x2D0 JUMPI DUP1 PUSH4 0x47734892 EQ PUSH2 0x30C JUMPI DUP1 PUSH4 0x4BA5E2CE EQ PUSH2 0x348 JUMPI PUSH2 0x1F8 JUMP JUMPDEST DUP1 PUSH4 0x15770F92 EQ PUSH2 0x1FC JUMPI DUP1 PUSH4 0x2E1A7D4D EQ PUSH2 0x226 JUMPI DUP1 PUSH4 0x2F70D1BA EQ PUSH2 0x242 JUMPI DUP1 PUSH4 0x2F865568 EQ PUSH2 0x27E JUMPI PUSH2 0x1F8 JUMP JUMPDEST CALLDATASIZE PUSH2 0x1F8 JUMPI STOP JUMPDEST PUSH0 DUP1 REVERT JUMPDEST CALLVALUE DUP1 ISZERO PUSH2 0x207 JUMPI PUSH0 DUP1 REVERT JUMPDEST POP PUSH2 0x210 PUSH2 0x7FC JUMP JUMPDEST PUSH1 0x40 MLOAD PUSH2 0x21D SWAP2 SWAP1 PUSH2 0x23E2 JUMP JUMPDEST PUSH1 0x40 MLOAD DUP1 SWAP2 SUB SWAP1 RETURN JUMPDEST PUSH2 0x240 PUSH1 0x4 DUP1 CALLDATASIZE SUB DUP2 ADD SWAP1 PUSH2 0x23B SWAP2 SWAP1 PUSH2 0x2429 JUMP JUMPDEST PUSH2 0x802 JUMP JUMPDEST STOP JUMPDEST CALLVALUE DUP1 ISZERO PUSH2 0x24D JUMPI PUSH0 DUP1 REVERT JUMPDEST POP PUSH2 0x268 PUSH1 0x4 DUP1 CALLDATASIZE SUB DUP2 ADD SWAP1 PUSH2 0x263 SWAP2 SWAP1 PUSH2 0x24AE JUMP JUMPDEST PUSH2 0xBBB JUMP JUMPDEST PUSH1 0x40 MLOAD PUSH2 0x275 SWAP2 SWAP1 PUSH2 0x24F3 JUMP JUMPDEST PUSH1 0x40 MLOAD DUP1 SWAP2 SUB SWAP1 RETURN JUMPDEST CALLVALUE DUP1 ISZERO PUSH2 0x289 JUMPI PUSH0 DUP1 REVERT JUMPDEST POP PUSH2 0x2A4 PUSH1 0x4 DUP1 CALLDATASIZE SUB DUP2 ADD SWAP1 PUSH2 0x29F SWAP2 SWAP1 PUSH2 0x24AE JUMP JUMPDEST PUSH2 0xC5B JUMP JUMPDEST STOP JUMPDEST CALLVALUE DUP1 ISZERO PUSH2 0x2B1 JUMPI PUSH0 DUP1 REVERT JUMPDEST POP PUSH2 0x2BA PUSH2 0xFE6 JUMP JUMPDEST PUSH1 0x40 MLOAD PUSH2 0x2C7 SWAP2 SWAP1 PUSH2 0x23E2 JUMP JUMPDEST PUSH1 0x40 MLOAD DUP1 SWAP2 SUB SWAP1 RETURN JUMPDEST CALLVALUE DUP1 ISZERO PUSH2 0x2DB JUMPI PUSH0 DUP1 REVERT JUMPDEST POP PUSH2 0x2F6 PUSH1 0x4 DUP1 CALLDATASIZE SUB DUP2 ADD SWAP1 PUSH2 0x2F1 SWAP2 SWAP1 PUSH2 0x24AE JUMP JUMPDEST PUSH2 0xFEC JUMP JUMPDEST PUSH1 0x40 MLOAD PUSH2 0x303 SWAP2 SWAP1 PUSH2 0x23E2 JUMP JUMPDEST PUSH1 0x40 MLOAD DUP1 SWAP2 SUB SWAP1 RETURN JUMPDEST CALLVALUE DUP1 ISZERO PUSH2 0x317 JUMPI PUSH0 DUP1 REVERT JUMPDEST POP PUSH2 0x332 PUSH1 0x4 DUP1 CALLDATASIZE SUB DUP2 ADD SWAP1 PUSH2 0x32D SWAP2 SWAP1 PUSH2 0x24AE JUMP JUMPDEST PUSH2 0x100A JUMP JUMPDEST PUSH1 0x40 MLOAD PUSH2 0x33F SWAP2 SWAP1 PUSH2 0x23E2 JUMP JUMPDEST PUSH1 0x40 MLOAD DUP1 SWAP2 SUB SWAP1 RETURN JUMPDEST CALLVALUE DUP1 ISZERO PUSH2 0x353 JUMPI PUSH0 DUP1 REVERT JUMPDEST POP PUSH2 0x35C PUSH2 0x1098 JUMP JUMPDEST PUSH1 0x40 MLOAD PUSH2 0x369 SWAP2 SWAP1 PUSH2 0x23E2 JUMP JUMPDEST PUSH1 0x40 MLOAD DUP1 SWAP2 SUB SWAP1 RETURN JUMPDEST CALLVALUE DUP1 ISZERO PUSH2 0x37D JUMPI PUSH0 DUP1 REVERT JUMPDEST POP PUSH2 0x386 PUSH2 0x109D JUMP JUMPDEST PUSH1 0x40 MLOAD PUSH2 0x393 SWAP2 SWAP1 PUSH2 0x23E2 JUMP JUMPDEST PUSH1 0x40 MLOAD DUP1 SWAP2 SUB SWAP1 RETURN JUMPDEST CALLVALUE DUP1 ISZERO PUSH2 0x3A7 JUMPI PUSH0 DUP1 REVERT JUMPDEST POP PUSH2 0x3B0 PUSH2 0x114D JUMP JUMPDEST PUSH1 0x40 MLOAD PUSH2 0x3BD SWAP2 SWAP1 PUSH2 0x23E2 JUMP JUMPDEST PUSH1 0x40 MLOAD DUP1 SWAP2 SUB SWAP1 RETURN JUMPDEST CALLVALUE DUP1 ISZERO PUSH2 0x3D1 JUMPI PUSH0 DUP1 REVERT JUMPDEST POP PUSH2 0x3DA PUSH2 0x1154 JUMP JUMPDEST PUSH1 0x40 MLOAD PUSH2 0x3E7 SWAP2 SWAP1 PUSH2 0x23E2 JUMP JUMPDEST PUSH1 0x40 MLOAD DUP1 SWAP2 SUB SWAP1 RETURN JUMPDEST CALLVALUE DUP1 ISZERO PUSH2 0x3FB JUMPI PUSH0 DUP1 REVERT JUMPDEST POP PUSH2 0x404 PUSH2 0x115A JUMP JUMPDEST PUSH1 0x40 MLOAD PUSH2 0x411 SWAP2 SWAP1 PUSH2 0x23E2 JUMP JUMPDEST PUSH1 0x40 MLOAD DUP1 SWAP2 SUB SWAP1 RETURN JUMPDEST CALLVALUE DUP1 ISZERO PUSH2 0x425 JUMPI PUSH0 DUP1 REVERT JUMPDEST POP PUSH2 0x42E PUSH2 0x1160 JUMP JUMPDEST PUSH1 0x40 MLOAD PUSH2 0x43B SWAP2 SWAP1 PUSH2 0x251B JUMP JUMPDEST PUSH1 0x40 MLOAD DUP1 SWAP2 SUB SWAP1 RETURN JUMPDEST CALLVALUE DUP1 ISZERO PUSH2 0x44F JUMPI PUSH0 DUP1 REVERT JUMPDEST POP PUSH2 0x458 PUSH2 0x1185 JUMP JUMPDEST PUSH1 0x40 MLOAD PUSH2 0x465 SWAP2 SWAP1 PUSH2 0x23E2 JUMP JUMPDEST PUSH1 0x40 MLOAD DUP1 SWAP2 SUB SWAP1 RETURN JUMPDEST CALLVALUE DUP1 ISZERO PUSH2 0x479 JUMPI PUSH0 DUP1 REVERT JUMPDEST POP PUSH2 0x494 PUSH1 0x4 DUP1 CALLDATASIZE SUB DUP2 ADD SWAP1 PUSH2 0x48F SWAP2 SWAP1 PUSH2 0x24AE JUMP JUMPDEST PUSH2 0x118E JUMP JUMPDEST PUSH1 0x40 MLOAD PUSH2 0x4A1 SWAP2 SWAP1 PUSH2 0x23E2 JUMP JUMPDEST PUSH1 0x40 MLOAD DUP1 SWAP2 SUB SWAP1 RETURN JUMPDEST CALLVALUE DUP1 ISZERO PUSH2 0x4B5 JUMPI PUSH0 DUP1 REVERT JUMPDEST POP PUSH2 0x4D0 PUSH1 0x4 DUP1 CALLDATASIZE SUB DUP2 ADD SWAP1 PUSH2 0x4CB SWAP2 SWAP1 PUSH2 0x24AE JUMP JUMPDEST PUSH2 0x11A3 JUMP JUMPDEST PUSH1 0x40 MLOAD PUSH2 0x4DD SWAP2 SWAP1 PUSH2 0x23E2 JUMP JUMPDEST PUSH1 0x40 MLOAD DUP1 SWAP2 SUB SWAP1 RETURN JUMPDEST PUSH2 0x500 PUSH1 0x4 DUP1 CALLDATASIZE SUB DUP2 ADD SWAP1 PUSH2 0x4FB SWAP2 SWAP1 PUSH2 0x2534 JUMP JUMPDEST PUSH2 0x11E8 JUMP JUMPDEST STOP JUMPDEST CALLVALUE DUP1 ISZERO PUSH2 0x50D JUMPI PUSH0 DUP1 REVERT JUMPDEST POP PUSH2 0x516 PUSH2 0x15E8 JUMP JUMPDEST STOP JUMPDEST PUSH2 0x532 PUSH1 0x4 DUP1 CALLDATASIZE SUB DUP2 ADD SWAP1 PUSH2 0x52D SWAP2 SWAP1 PUSH2 0x2429 JUMP JUMPDEST PUSH2 0x16F6 JUMP JUMPDEST STOP JUMPDEST CALLVALUE DUP1 ISZERO PUSH2 0x53F JUMPI PUSH0 DUP1 REVERT JUMPDEST POP PUSH2 0x55A PUSH1 0x4 DUP1 CALLDATASIZE SUB DUP2 ADD SWAP1 PUSH2 0x555 SWAP2 SWAP1 PUSH2 0x2429 JUMP JUMPDEST PUSH2 0x1B19 JUMP JUMPDEST PUSH1 0x40 MLOAD PUSH2 0x567 SWAP2 SWAP1 PUSH2 0x23E2 JUMP JUMPDEST PUSH1 0x40 MLOAD DUP1 SWAP2 SUB SWAP1 RETURN JUMPDEST CALLVALUE DUP1 ISZERO PUSH2 0x57B JUMPI PUSH0 DUP1 REVERT JUMPDEST POP PUSH2 0x596 PUSH1 0x4 DUP1 CALLDATASIZE SUB DUP2 ADD SWAP1 PUSH2 0x591 SWAP2 SWAP1 PUSH2 0x2429 JUMP JUMPDEST PUSH2 0x1B7C JUMP JUMPDEST PUSH1 0x40 MLOAD PUSH2 0x5A3 SWAP2 SWAP1 PUSH2 0x23E2 JUMP JUMPDEST PUSH1 0x40 MLOAD DUP1 SWAP2 SUB SWAP1 RETURN JUMPDEST CALLVALUE DUP1 ISZERO PUSH2 0x5B7 JUMPI PUSH0 DUP1 REVERT JUMPDEST POP PUSH2 0x5D2 PUSH1 0x4 DUP1 CALLDATASIZE SUB DUP2 ADD SWAP1 PUSH2 0x5CD SWAP2 SWAP1 PUSH2 0x24AE JUMP JUMPDEST PUSH2 0x1CA0 JUMP JUMPDEST PUSH1 0x40 MLOAD PUSH2 0x5DF SWAP2 SWAP1 PUSH2 0x23E2 JUMP JUMPDEST PUSH1 0x40 MLOAD DUP1 SWAP2 SUB SWAP1 RETURN JUMPDEST PUSH2 0x5F0 PUSH2 0x1D12 JUMP JUMPDEST STOP JUMPDEST CALLVALUE DUP1 ISZERO PUSH2 0x5FD JUMPI PUSH0 DUP1 REVERT JUMPDEST POP PUSH2 0x606 PUSH2 0x1F79 JUMP JUMPDEST PUSH1 0x40 MLOAD PUSH2 0x613 SWAP2 SWAP1 PUSH2 0x23E2 JUMP JUMPDEST PUSH1 0x40 MLOAD DUP1 SWAP2 SUB SWAP1 RETURN JUMPDEST CALLVALUE DUP1 ISZERO PUSH2 0x627 JUMPI PUSH0 DUP1 REVERT JUMPDEST POP PUSH2 0x642 PUSH1 0x4 DUP1 CALLDATASIZE SUB DUP2 ADD SWAP1 PUSH2 0x63D SWAP2 SWAP1 PUSH2 0x24AE JUMP JUMPDEST PUSH2 0x1F7F JUMP JUMPDEST PUSH1 0x40 MLOAD PUSH2 0x651 SWAP4 SWAP3 SWAP2 SWAP1 PUSH2 0x2572 JUMP JUMPDEST PUSH1 0x40 MLOAD DUP1 SWAP2 SUB SWAP1 RETURN JUMPDEST CALLVALUE DUP1 ISZERO PUSH2 0x665 JUMPI PUSH0 DUP1 REVERT JUMPDEST POP PUSH2 0x66E PUSH2 0x2048 JUMP JUMPDEST PUSH1 0x40 MLOAD PUSH2 0x67B SWAP2 SWAP1 PUSH2 0x23E2 JUMP JUMPDEST PUSH1 0x40 MLOAD DUP1 SWAP2 SUB SWAP1 RETURN JUMPDEST PUSH2 0x68C PUSH2 0x204E JUMP JUMPDEST STOP JUMPDEST CALLVALUE DUP1 ISZERO PUSH2 0x699 JUMPI PUSH0 DUP1 REVERT JUMPDEST POP PUSH2 0x6B4 PUSH1 0x4 DUP1 CALLDATASIZE SUB DUP2 ADD SWAP1 PUSH2 0x6AF SWAP2 SWAP1 PUSH2 0x25A7 JUMP JUMPDEST PUSH2 0x21AB JUMP JUMPDEST PUSH1 0x40 MLOAD PUSH2 0x6C1 SWAP2 SWAP1 PUSH2 0x23E2 JUMP JUMPDEST PUSH1 0x40 MLOAD DUP1 SWAP2 SUB SWAP1 RETURN JUMPDEST CALLVALUE DUP1 ISZERO PUSH2 0x6D5 JUMPI PUSH0 DUP1 REVERT JUMPDEST POP PUSH2 0x6F0 PUSH1 0x4 DUP1 CALLDATASIZE SUB DUP2 ADD SWAP1 PUSH2 0x6EB SWAP2 SWAP1 PUSH2 0x2429 JUMP JUMPDEST PUSH2 0x21D6 JUMP JUMPDEST PUSH1 0x40 MLOAD PUSH2 0x703 SWAP8 SWAP7 SWAP6 SWAP5 SWAP4 SWAP3 SWAP2 SWAP1 PUSH2 0x25E5 JUMP JUMPDEST PUSH1 0x40 MLOAD DUP1 SWAP2 SUB SWAP1 RETURN JUMPDEST CALLVALUE DUP1 ISZERO PUSH2 0x717 JUMPI PUSH0 DUP1 REVERT JUMPDEST POP PUSH2 0x732 PUSH1 0x4 DUP1 CALLDATASIZE SUB DUP2 ADD SWAP1 PUSH2 0x72D SWAP2 SWAP1 PUSH2 0x2429 JUMP JUMPDEST PUSH2 0x224C JUMP JUMPDEST PUSH1 0x40 MLOAD PUSH2 0x73F SWAP2 SWAP1 PUSH2 0x251B JUMP JUMPDEST PUSH1 0x40 MLOAD DUP1 SWAP2 SUB SWAP1 RETURN JUMPDEST CALLVALUE DUP1 ISZERO PUSH2 0x753 JUMPI PUSH0 DUP1 REVERT JUMPDEST POP PUSH2 0x76E PUSH1 0x4 DUP1 CALLDATASIZE SUB DUP2 ADD SWAP1 PUSH2 0x769 SWAP2 SWAP1 PUSH2 0x2429 JUMP JUMPDEST PUSH2 0x2287 JUMP JUMPDEST PUSH1 0x40 MLOAD PUSH2 0x77B SWAP2 SWAP1 PUSH2 0x23E2 JUMP JUMPDEST PUSH1 0x40 MLOAD DUP1 SWAP2 SUB SWAP1 RETURN JUMPDEST CALLVALUE DUP1 ISZERO PUSH2 0x78F JUMPI PUSH0 DUP1 REVERT JUMPDEST POP PUSH2 0x7AA PUSH1 0x4 DUP1 CALLDATASIZE SUB DUP2 ADD SWAP1 PUSH2 0x7A5 SWAP2 SWAP1 PUSH2 0x24AE JUMP JUMPDEST PUSH2 0x22FB JUMP JUMPDEST PUSH1 0x40 MLOAD PUSH2 0x7B7 SWAP2 SWAP1 PUSH2 0x23E2 JUMP JUMPDEST PUSH1 0x40 MLOAD DUP1 SWAP2 SUB SWAP1 RETURN JUMPDEST CALLVALUE DUP1 ISZERO PUSH2 0x7CB JUMPI PUSH0 DUP1 REVERT JUMPDEST POP PUSH2 0x7E6 PUSH1 0x4 DUP1 CALLDATASIZE SUB DUP2 ADD SWAP1 PUSH2 0x7E1 SWAP2 SWAP1 PUSH2 0x24AE JUMP JUMPDEST PUSH2 0x230F JUMP JUMPDEST PUSH1 0x40 MLOAD PUSH2 0x7F3 SWAP2 SWAP1 PUSH2 0x23E2 JUMP JUMPDEST PUSH1 0x40 MLOAD DUP1 SWAP2 SUB SWAP1 RETURN JUMPDEST PUSH1 0x4 SLOAD DUP2 JUMP JUMPDEST PUSH2 0x80B CALLER PUSH2 0xBBB JUMP JUMPDEST PUSH2 0x84A JUMPI PUSH1 0x40 MLOAD PUSH32 0x8C379A000000000000000000000000000000000000000000000000000000000 DUP2 MSTORE PUSH1 0x4 ADD PUSH2 0x841 SWAP1 PUSH2 0x26AC JUMP JUMPDEST PUSH1 0x40 MLOAD DUP1 SWAP2 SUB SWAP1 REVERT JUMPDEST PUSH1 0x2 PUSH0 CALLER PUSH20 0xFFFFFFFFFFFFFFFFFFFFFFFFFFFFFFFFFFFFFFFF AND PUSH20 0xFFFFFFFFFFFFFFFFFFFFFFFFFFFFFFFFFFFFFFFF AND DUP2 MSTORE PUSH1 0x20 ADD SWAP1 DUP2 MSTORE PUSH1 0x20 ADD PUSH0 KECCAK256 SLOAD DUP2 GT ISZERO PUSH2 0x8CA JUMPI PUSH1 0x40 MLOAD PUSH32 0x8C379A000000000000000000000000000000000000000000000000000000000 DUP2 MSTORE PUSH1 0x4 ADD PUSH2 0x8C1 SWAP1 PUSH2 0x273A JUMP JUMPDEST PUSH1 0x40 MLOAD DUP1 SWAP2 SUB SWAP1 REVERT JUMPDEST PUSH1 0x4 SLOAD DUP2 GT ISZERO PUSH2 0x90F JUMPI PUSH1 0x40 MLOAD PUSH32 0x8C379A000000000000000000000000000000000000000000000000000000000 DUP2 MSTORE PUSH1 0x4 ADD PUSH2 0x906 SWAP1 PUSH2 0x27A2 JUMP JUMPDEST PUSH1 0x40 MLOAD DUP1 SWAP2 SUB SWAP1 REVERT JUMPDEST DUP1 PUSH1 0x2 PUSH0 CALLER PUSH20 0xFFFFFFFFFFFFFFFFFFFFFFFFFFFFFFFFFFFFFFFF AND PUSH20 0xFFFFFFFFFFFFFFFFFFFFFFFFFFFFFFFFFFFFFFFF AND DUP2 MSTORE PUSH1 0x20 ADD SWAP1 DUP2 MSTORE PUSH1 0x20 ADD PUSH0 KECCAK256 PUSH0 DUP3 DUP3 SLOAD PUSH2 0x95B SWAP2 SWAP1 PUSH2 0x27ED JUMP JUMPDEST SWAP3 POP POP DUP2 SWAP1 SSTORE POP DUP1 PUSH1 0x4 PUSH0 DUP3 DUP3 SLOAD PUSH2 0x973 SWAP2 SWAP1 PUSH2 0x27ED JUMP JUMPDEST SWAP3 POP POP DUP2 SWAP1 SSTORE POP PUSH0 CALLER PUSH20 0xFFFFFFFFFFFFFFFFFFFFFFFFFFFFFFFFFFFFFFFF AND DUP3 PUSH1 0x40 MLOAD PUSH2 0x99F SWAP1 PUSH2 0x284D JUMP JUMPDEST PUSH0 PUSH1 0x40 MLOAD DUP1 DUP4 SUB DUP2 DUP6 DUP8 GAS CALL SWAP3 POP POP POP RETURNDATASIZE DUP1 PUSH0 DUP2 EQ PUSH2 0x9D9 JUMPI PUSH1 0x40 MLOAD SWAP2 POP PUSH1 0x1F NOT PUSH1 0x3F RETURNDATASIZE ADD AND DUP3 ADD PUSH1 0x40 MSTORE RETURNDATASIZE DUP3 MSTORE RETURNDATASIZE PUSH0 PUSH1 0x20 DUP5 ADD RETURNDATACOPY PUSH2 0x9DE JUMP JUMPDEST PUSH1 0x60 SWAP2 POP JUMPDEST POP POP SWAP1 POP DUP1 PUSH2 0xA22 JUMPI PUSH1 0x40 MLOAD PUSH32 0x8C379A000000000000000000000000000000000000000000000000000000000 DUP2 MSTORE PUSH1 0x4 ADD PUSH2 0xA19 SWAP1 PUSH2 0x28AB JUMP JUMPDEST PUSH1 0x40 MLOAD DUP1 SWAP2 SUB SWAP1 REVERT JUMPDEST PUSH0 PUSH1 0x2 PUSH0 CALLER PUSH20 0xFFFFFFFFFFFFFFFFFFFFFFFFFFFFFFFFFFFFFFFF AND PUSH20 0xFFFFFFFFFFFFFFFFFFFFFFFFFFFFFFFFFFFFFFFF AND DUP2 MSTORE PUSH1 0x20 ADD SWAP1 DUP2 MSTORE PUSH1 0x20 ADD PUSH0 KECCAK256 SLOAD SUB PUSH2 0xB69 JUMPI PUSH0 DUP1 PUSH2 0xA71 CALLER PUSH2 0x2324 JUMP JUMPDEST SWAP2 POP SWAP2 POP DUP2 ISZERO PUSH2 0xB66 JUMPI PUSH1 0xA PUSH1 0x1 PUSH1 0xA DUP1 SLOAD SWAP1 POP PUSH2 0xA8F SWAP2 SWAP1 PUSH2 0x27ED JUMP JUMPDEST DUP2 SLOAD DUP2 LT PUSH2 0xAA0 JUMPI PUSH2 0xA9F PUSH2 0x28C9 JUMP JUMPDEST JUMPDEST SWAP1 PUSH0 MSTORE PUSH1 0x20 PUSH0 KECCAK256 ADD PUSH0 SWAP1 SLOAD SWAP1 PUSH2 0x100 EXP SWAP1 DIV PUSH20 0xFFFFFFFFFFFFFFFFFFFFFFFFFFFFFFFFFFFFFFFF AND PUSH1 0xA DUP3 DUP2 SLOAD DUP2 LT PUSH2 0xADC JUMPI PUSH2 0xADB PUSH2 0x28C9 JUMP JUMPDEST JUMPDEST SWAP1 PUSH0 MSTORE PUSH1 0x20 PUSH0 KECCAK256 ADD PUSH0 PUSH2 0x100 EXP DUP2 SLOAD DUP2 PUSH20 0xFFFFFFFFFFFFFFFFFFFFFFFFFFFFFFFFFFFFFFFF MUL NOT AND SWAP1 DUP4 PUSH20 0xFFFFFFFFFFFFFFFFFFFFFFFFFFFFFFFFFFFFFFFF AND MUL OR SWAP1 SSTORE POP PUSH1 0xA DUP1 SLOAD DUP1 PUSH2 0xB33 JUMPI PUSH2 0xB32 PUSH2 0x28F6 JUMP JUMPDEST JUMPDEST PUSH1 0x1 SWAP1 SUB DUP2 DUP2 SWAP1 PUSH0 MSTORE PUSH1 0x20 PUSH0 KECCAK256 ADD PUSH0 PUSH2 0x100 EXP DUP2 SLOAD SWAP1 PUSH20 0xFFFFFFFFFFFFFFFFFFFFFFFFFFFFFFFFFFFFFFFF MUL NOT AND SWAP1 SSTORE SWAP1 SSTORE JUMPDEST POP POP JUMPDEST CALLER PUSH20 0xFFFFFFFFFFFFFFFFFFFFFFFFFFFFFFFFFFFFFFFF AND PUSH32 0x7FCF532C15F0A6DB0BD6D0E038BEA71D30D808C7D98CB3BF7268A95BF5081B65 DUP4 PUSH1 0x40 MLOAD PUSH2 0xBAF SWAP2 SWAP1 PUSH2 0x23E2 JUMP JUMPDEST PUSH1 0x40 MLOAD DUP1 SWAP2 SUB SWAP1 LOG2 POP POP JUMP JUMPDEST PUSH0 DUP1 PUSH0 SWAP1 POP JUMPDEST PUSH1 0xA DUP1 SLOAD SWAP1 POP DUP2 LT ISZERO PUSH2 0xC51 JUMPI DUP3 PUSH20 0xFFFFFFFFFFFFFFFFFFFFFFFFFFFFFFFFFFFFFFFF AND PUSH1 0xA DUP3 DUP2 SLOAD DUP2 LT PUSH2 0xBF9 JUMPI PUSH2 0xBF8 PUSH2 0x28C9 JUMP JUMPDEST JUMPDEST SWAP1 PUSH0 MSTORE PUSH1 0x20 PUSH0 KECCAK256 ADD PUSH0 SWAP1 SLOAD SWAP1 PUSH2 0x100 EXP SWAP1 DIV PUSH20 0xFFFFFFFFFFFFFFFFFFFFFFFFFFFFFFFFFFFFFFFF AND PUSH20 0xFFFFFFFFFFFFFFFFFFFFFFFFFFFFFFFFFFFFFFFF AND SUB PUSH2 0xC46 JUMPI PUSH1 0x1 SWAP2 POP POP PUSH2 0xC56 JUMP JUMPDEST DUP1 PUSH1 0x1 ADD SWAP1 POP PUSH2 0xBC1 JUMP JUMPDEST POP PUSH0 SWAP1 POP JUMPDEST SWAP2 SWAP1 POP JUMP JUMPDEST PUSH1 0x1 PUSH0 SWAP1 SLOAD SWAP1 PUSH2 0x100 EXP SWAP1 DIV PUSH20 0xFFFFFFFFFFFFFFFFFFFFFFFFFFFFFFFFFFFFFFFF AND PUSH20 0xFFFFFFFFFFFFFFFFFFFFFFFFFFFFFFFFFFFFFFFF AND CALLER PUSH20 0xFFFFFFFFFFFFFFFFFFFFFFFFFFFFFFFFFFFFFFFF AND EQ PUSH2 0xCEA JUMPI PUSH1 0x40 MLOAD PUSH32 0x8C379A000000000000000000000000000000000000000000000000000000000 DUP2 MSTORE PUSH1 0x4 ADD PUSH2 0xCE1 SWAP1 PUSH2 0x2993 JUMP JUMPDEST PUSH1 0x40 MLOAD DUP1 SWAP2 SUB SWAP1 REVERT JUMPDEST PUSH0 PUSH1 0x3 PUSH0 DUP4 PUSH20 0xFFFFFFFFFFFFFFFFFFFFFFFFFFFFFFFFFFFFFFFF AND PUSH20 0xFFFFFFFFFFFFFFFFFFFFFFFFFFFFFFFFFFFFFFFF AND DUP2 MSTORE PUSH1 0x20 ADD SWAP1 DUP2 MSTORE PUSH1 0x20 ADD PUSH0 KECCAK256 SLOAD GT PUSH2 0xD69 JUMPI PUSH1 0x40 MLOAD PUSH32 0x8C379A000000000000000000000000000000000000000000000000000000000 DUP2 MSTORE PUSH1 0x4 ADD PUSH2 0xD60 SWAP1 PUSH2 0x2A21 JUMP JUMPDEST PUSH1 0x40 MLOAD DUP1 SWAP2 SUB SWAP1 REVERT JUMPDEST PUSH0 PUSH1 0x3 PUSH0 DUP4 PUSH20 0xFFFFFFFFFFFFFFFFFFFFFFFFFFFFFFFFFFFFFFFF AND PUSH20 0xFFFFFFFFFFFFFFFFFFFFFFFFFFFFFFFFFFFFFFFF AND DUP2 MSTORE PUSH1 0x20 ADD SWAP1 DUP2 MSTORE PUSH1 0x20 ADD PUSH0 KECCAK256 SLOAD SWAP1 POP PUSH0 DUP1 PUSH0 DUP5 PUSH20 0xFFFFFFFFFFFFFFFFFFFFFFFFFFFFFFFFFFFFFFFF AND PUSH20 0xFFFFFFFFFFFFFFFFFFFFFFFFFFFFFFFFFFFFFFFF AND DUP2 MSTORE PUSH1 0x20 ADD SWAP1 DUP2 MSTORE PUSH1 0x20 ADD PUSH0 KECCAK256 SLOAD SWAP1 POP PUSH0 DUP2 GT PUSH2 0xE2C JUMPI PUSH1 0x40 MLOAD PUSH32 0x8C379A000000000000000000000000000000000000000000000000000000000 DUP2 MSTORE PUSH1 0x4 ADD PUSH2 0xE23 SWAP1 PUSH2 0x2A89 JUMP JUMPDEST PUSH1 0x40 MLOAD DUP1 SWAP2 SUB SWAP1 REVERT JUMPDEST PUSH0 PUSH1 0x3 PUSH0 DUP6 PUSH20 0xFFFFFFFFFFFFFFFFFFFFFFFFFFFFFFFFFFFFFFFF AND PUSH20 0xFFFFFFFFFFFFFFFFFFFFFFFFFFFFFFFFFFFFFFFF AND DUP2 MSTORE PUSH1 0x20 ADD SWAP1 DUP2 MSTORE PUSH1 0x20 ADD PUSH0 KECCAK256 DUP2 SWAP1 SSTORE POP PUSH0 DUP1 PUSH0 DUP6 PUSH20 0xFFFFFFFFFFFFFFFFFFFFFFFFFFFFFFFFFFFFFFFF AND PUSH20 0xFFFFFFFFFFFFFFFFFFFFFFFFFFFFFFFFFFFFFFFF AND DUP2 MSTORE PUSH1 0x20 ADD SWAP1 DUP2 MSTORE PUSH1 0x20 ADD PUSH0 KECCAK256 DUP2 SWAP1 SSTORE POP PUSH0 PUSH1 0x1 PUSH0 SWAP1 SLOAD SWAP1 PUSH2 0x100 EXP SWAP1 DIV PUSH20 0xFFFFFFFFFFFFFFFFFFFFFFFFFFFFFFFFFFFFFFFF AND PUSH20 0xFFFFFFFFFFFFFFFFFFFFFFFFFFFFFFFFFFFFFFFF AND DUP3 PUSH1 0x40 MLOAD PUSH2 0xEF5 SWAP1 PUSH2 0x284D JUMP JUMPDEST PUSH0 PUSH1 0x40 MLOAD DUP1 DUP4 SUB DUP2 DUP6 DUP8 GAS CALL SWAP3 POP POP POP RETURNDATASIZE DUP1 PUSH0 DUP2 EQ PUSH2 0xF2F JUMPI PUSH1 0x40 MLOAD SWAP2 POP PUSH1 0x1F NOT PUSH1 0x3F RETURNDATASIZE ADD AND DUP3 ADD PUSH1 0x40 MSTORE RETURNDATASIZE DUP3 MSTORE RETURNDATASIZE PUSH0 PUSH1 0x20 DUP5 ADD RETURNDATACOPY PUSH2 0xF34 JUMP JUMPDEST PUSH1 0x60 SWAP2 POP JUMPDEST POP POP SWAP1 POP DUP1 PUSH2 0xF78 JUMPI PUSH1 0x40 MLOAD PUSH32 0x8C379A000000000000000000000000000000000000000000000000000000000 DUP2 MSTORE PUSH1 0x4 ADD PUSH2 0xF6F SWAP1 PUSH2 0x2B17 JUMP JUMPDEST PUSH1 0x40 MLOAD DUP1 SWAP2 SUB SWAP1 REVERT JUMPDEST DUP3 PUSH1 0x4 PUSH0 DUP3 DUP3 SLOAD PUSH2 0xF89 SWAP2 SWAP1 PUSH2 0x2B35 JUMP JUMPDEST SWAP3 POP POP DUP2 SWAP1 SSTORE POP DUP4 PUSH20 0xFFFFFFFFFFFFFFFFFFFFFFFFFFFFFFFFFFFFFFFF AND PUSH32 0x3C4B1D42B9C7FA283F6FE657533F6A5A8A7AD1D36F9EF1D9D89AD04485E10D2C DUP4 DUP6 PUSH1 0x40 MLOAD PUSH2 0xFD8 SWAP3 SWAP2 SWAP1 PUSH2 0x2B68 JUMP JUMPDEST PUSH1 0x40 MLOAD DUP1 SWAP2 SUB SWAP1 LOG2 POP POP POP POP JUMP JUMPDEST PUSH1 0x7 SLOAD DUP2 JUMP JUMPDEST PUSH0 PUSH2 0xFF6 DUP3 PUSH2 0x1CA0 JUMP JUMPDEST PUSH1 0xC SLOAD PUSH2 0x1003 SWAP2 SWAP1 PUSH2 0x2B8F JUMP JUMPDEST SWAP1 POP SWAP2 SWAP1 POP JUMP JUMPDEST PUSH0 PUSH2 0x1014 DUP3 PUSH2 0xBBB JUMP JUMPDEST PUSH2 0x1053 JUMPI PUSH1 0x40 MLOAD PUSH32 0x8C379A000000000000000000000000000000000000000000000000000000000 DUP2 MSTORE PUSH1 0x4 ADD PUSH2 0x104A SWAP1 PUSH2 0x2C1A JUMP JUMPDEST PUSH1 0x40 MLOAD DUP1 SWAP2 SUB SWAP1 REVERT JUMPDEST PUSH1 0x2 PUSH0 DUP4 PUSH20 0xFFFFFFFFFFFFFFFFFFFFFFFFFFFFFFFFFFFFFFFF AND PUSH20 0xFFFFFFFFFFFFFFFFFFFFFFFFFFFFFFFFFFFFFFFF AND DUP2 MSTORE PUSH1 0x20 ADD SWAP1 DUP2 MSTORE PUSH1 0x20 ADD PUSH0 KECCAK256 SLOAD SWAP1 POP SWAP2 SWAP1 POP JUMP JUMPDEST PUSH1 0x1 DUP2 JUMP JUMPDEST PUSH0 DUP1 PUSH0 SWAP1 POP PUSH0 PUSH1 0x1 SWAP1 POP JUMPDEST PUSH1 0x7 SLOAD DUP2 GT PUSH2 0x1138 JUMPI PUSH1 0x8 PUSH0 DUP3 DUP2 MSTORE PUSH1 0x20 ADD SWAP1 DUP2 MSTORE PUSH1 0x20 ADD PUSH0 KECCAK256 PUSH1 0x5 ADD PUSH1 0x1 SWAP1 SLOAD SWAP1 PUSH2 0x100 EXP SWAP1 DIV PUSH1 0xFF AND DUP1 ISZERO PUSH2 0x10FD JUMPI POP PUSH1 0x8 PUSH0 DUP3 DUP2 MSTORE PUSH1 0x20 ADD SWAP1 DUP2 MSTORE PUSH1 0x20 ADD PUSH0 KECCAK256 PUSH1 0x5 ADD PUSH0 SWAP1 SLOAD SWAP1 PUSH2 0x100 EXP SWAP1 DIV PUSH1 0xFF AND ISZERO JUMPDEST ISZERO PUSH2 0x1125 JUMPI PUSH1 0x8 PUSH0 DUP3 DUP2 MSTORE PUSH1 0x20 ADD SWAP1 DUP2 MSTORE PUSH1 0x20 ADD PUSH0 KECCAK256 PUSH1 0x1 ADD SLOAD DUP3 PUSH2 0x1122 SWAP2 SWAP1 PUSH2 0x2B35 JUMP JUMPDEST SWAP2 POP JUMPDEST DUP1 DUP1 PUSH2 0x1130 SWAP1 PUSH2 0x2C38 JUMP JUMPDEST SWAP2 POP POP PUSH2 0x10A8 JUMP JUMPDEST POP DUP1 PUSH1 0x4 SLOAD PUSH2 0x1147 SWAP2 SWAP1 PUSH2 0x2B35 JUMP JUMPDEST SWAP2 POP POP SWAP1 JUMP JUMPDEST PUSH0 SELFBALANCE SWAP1 POP SWAP1 JUMP JUMPDEST PUSH1 0x5 SLOAD DUP2 JUMP JUMPDEST PUSH1 0xC SLOAD DUP2 JUMP JUMPDEST PUSH1 0x1 PUSH0 SWAP1 SLOAD SWAP1 PUSH2 0x100 EXP SWAP1 DIV PUSH20 0xFFFFFFFFFFFFFFFFFFFFFFFFFFFFFFFFFFFFFFFF AND DUP2 JUMP JUMPDEST PUSH0 PUSH1 0x4 SLOAD SWAP1 POP SWAP1 JUMP JUMPDEST PUSH1 0x3 PUSH1 0x20 MSTORE DUP1 PUSH0 MSTORE PUSH1 0x40 PUSH0 KECCAK256 PUSH0 SWAP2 POP SWAP1 POP SLOAD DUP2 JUMP JUMPDEST PUSH0 DUP1 PUSH0 DUP4 PUSH20 0xFFFFFFFFFFFFFFFFFFFFFFFFFFFFFFFFFFFFFFFF AND PUSH20 0xFFFFFFFFFFFFFFFFFFFFFFFFFFFFFFFFFFFFFFFF AND DUP2 MSTORE PUSH1 0x20 ADD SWAP1 DUP2 MSTORE PUSH1 0x20 ADD PUSH0 KECCAK256 SLOAD SWAP1 POP SWAP2 SWAP1 POP JUMP JUMPDEST PUSH0 DUP3 GT PUSH2 0x122A JUMPI PUSH1 0x40 MLOAD PUSH32 0x8C379A000000000000000000000000000000000000000000000000000000000 DUP2 MSTORE PUSH1 0x4 ADD PUSH2 0x1221 SWAP1 PUSH2 0x2CEF JUMP JUMPDEST PUSH1 0x40 MLOAD DUP1 SWAP2 SUB SWAP1 REVERT JUMPDEST PUSH1 0x4 SLOAD DUP3 GT ISZERO PUSH2 0x126F JUMPI PUSH1 0x40 MLOAD PUSH32 0x8C379A000000000000000000000000000000000000000000000000000000000 DUP2 MSTORE PUSH1 0x4 ADD PUSH2 0x1266 SWAP1 PUSH2 0x27A2 JUMP JUMPDEST PUSH1 0x40 MLOAD DUP1 SWAP2 SUB SWAP1 REVERT JUMPDEST PUSH1 0x64 PUSH1 0x96 DUP4 PUSH2 0x127E SWAP2 SWAP1 PUSH2 0x2B8F JUMP JUMPDEST PUSH2 0x1288 SWAP2 SWAP1 PUSH2 0x2D3A JUMP JUMPDEST CALLVALUE LT ISZERO PUSH2 0x12CA JUMPI PUSH1 0x40 MLOAD PUSH32 0x8C379A000000000000000000000000000000000000000000000000000000000 DUP2 MSTORE PUSH1 0x4 ADD PUSH2 0x12C1 SWAP1 PUSH2 0x2DDA JUMP JUMPDEST PUSH1 0x40 MLOAD DUP1 SWAP2 SUB SWAP1 REVERT JUMPDEST PUSH0 PUSH2 0x12D4 DUP4 PUSH2 0x2287 JUMP JUMPDEST SWAP1 POP PUSH0 PUSH3 0x15180 DUP4 PUSH2 0x12E6 SWAP2 SWAP1 PUSH2 0x2B8F JUMP JUMPDEST TIMESTAMP PUSH2 0x12F1 SWAP2 SWAP1 PUSH2 0x2B35 JUMP JUMPDEST SWAP1 POP PUSH1 0x7 PUSH0 DUP2 SLOAD DUP1 SWAP3 SWAP2 SWAP1 PUSH2 0x1305 SWAP1 PUSH2 0x2C38 JUMP JUMPDEST SWAP2 SWAP1 POP SSTORE POP PUSH1 0x40 MLOAD DUP1 PUSH1 0xE0 ADD PUSH1 0x40 MSTORE DUP1 CALLER PUSH20 0xFFFFFFFFFFFFFFFFFFFFFFFFFFFFFFFFFFFFFFFF AND DUP2 MSTORE PUSH1 0x20 ADD DUP6 DUP2 MSTORE PUSH1 0x20 ADD PUSH1 0x6 SLOAD DUP2 MSTORE PUSH1 0x20 ADD DUP4 DUP2 MSTORE PUSH1 0x20 ADD DUP3 DUP2 MSTORE PUSH1 0x20 ADD PUSH0 ISZERO ISZERO DUP2 MSTORE PUSH1 0x20 ADD PUSH1 0x1 ISZERO ISZERO DUP2 MSTORE POP PUSH1 0x8 PUSH0 PUSH1 0x7 SLOAD DUP2 MSTORE PUSH1 0x20 ADD SWAP1 DUP2 MSTORE PUSH1 0x20 ADD PUSH0 KECCAK256 PUSH0 DUP3 ADD MLOAD DUP2 PUSH0 ADD PUSH0 PUSH2 0x100 EXP DUP2 SLOAD DUP2 PUSH20 0xFFFFFFFFFFFFFFFFFFFFFFFFFFFFFFFFFFFFFFFF MUL NOT AND SWAP1 DUP4 PUSH20 0xFFFFFFFFFFFFFFFFFFFFFFFFFFFFFFFFFFFFFFFF AND MUL OR SWAP1 SSTORE POP PUSH1 0x20 DUP3 ADD MLOAD DUP2 PUSH1 0x1 ADD SSTORE PUSH1 0x40 DUP3 ADD MLOAD DUP2 PUSH1 0x2 ADD SSTORE PUSH1 0x60 DUP3 ADD MLOAD DUP2 PUSH1 0x3 ADD SSTORE PUSH1 0x80 DUP3 ADD MLOAD DUP2 PUSH1 0x4 ADD SSTORE PUSH1 0xA0 DUP3 ADD MLOAD DUP2 PUSH1 0x5 ADD PUSH0 PUSH2 0x100 EXP DUP2 SLOAD DUP2 PUSH1 0xFF MUL NOT AND SWAP1 DUP4 ISZERO ISZERO MUL OR SWAP1 SSTORE POP PUSH1 0xC0 DUP3 ADD MLOAD DUP2 PUSH1 0x5 ADD PUSH1 0x1 PUSH2 0x100 EXP DUP2 SLOAD DUP2 PUSH1 0xFF MUL NOT AND SWAP1 DUP4 ISZERO ISZERO MUL OR SWAP1 SSTORE POP SWAP1 POP POP PUSH1 0x9 PUSH0 CALLER PUSH20 0xFFFFFFFFFFFFFFFFFFFFFFFFFFFFFFFFFFFFFFFF AND PUSH20 0xFFFFFFFFFFFFFFFFFFFFFFFFFFFFFFFFFFFFFFFF AND DUP2 MSTORE PUSH1 0x20 ADD SWAP1 DUP2 MSTORE PUSH1 0x20 ADD PUSH0 KECCAK256 PUSH1 0x7 SLOAD SWAP1 DUP1 PUSH1 0x1 DUP2 SLOAD ADD DUP1 DUP3 SSTORE DUP1 SWAP2 POP POP PUSH1 0x1 SWAP1 SUB SWAP1 PUSH0 MSTORE PUSH1 0x20 PUSH0 KECCAK256 ADD PUSH0 SWAP1 SWAP2 SWAP1 SWAP2 SWAP1 SWAP2 POP SSTORE CALLVALUE PUSH0 DUP1 CALLER PUSH20 0xFFFFFFFFFFFFFFFFFFFFFFFFFFFFFFFFFFFFFFFF AND PUSH20 0xFFFFFFFFFFFFFFFFFFFFFFFFFFFFFFFFFFFFFFFF AND DUP2 MSTORE PUSH1 0x20 ADD SWAP1 DUP2 MSTORE PUSH1 0x20 ADD PUSH0 KECCAK256 PUSH0 DUP3 DUP3 SLOAD PUSH2 0x14C9 SWAP2 SWAP1 PUSH2 0x2B35 JUMP JUMPDEST SWAP3 POP POP DUP2 SWAP1 SSTORE POP DUP4 PUSH1 0x4 PUSH0 DUP3 DUP3 SLOAD PUSH2 0x14E1 SWAP2 SWAP1 PUSH2 0x27ED JUMP JUMPDEST SWAP3 POP POP DUP2 SWAP1 SSTORE POP PUSH0 CALLER PUSH20 0xFFFFFFFFFFFFFFFFFFFFFFFFFFFFFFFFFFFFFFFF AND DUP6 PUSH1 0x40 MLOAD PUSH2 0x150D SWAP1 PUSH2 0x284D JUMP JUMPDEST PUSH0 PUSH1 0x40 MLOAD DUP1 DUP4 SUB DUP2 DUP6 DUP8 GAS CALL SWAP3 POP POP POP RETURNDATASIZE DUP1 PUSH0 DUP2 EQ PUSH2 0x1547 JUMPI PUSH1 0x40 MLOAD SWAP2 POP PUSH1 0x1F NOT PUSH1 0x3F RETURNDATASIZE ADD AND DUP3 ADD PUSH1 0x40 MSTORE RETURNDATASIZE DUP3 MSTORE RETURNDATASIZE PUSH0 PUSH1 0x20 DUP5 ADD RETURNDATACOPY PUSH2 0x154C JUMP JUMPDEST PUSH1 0x60 SWAP2 POP JUMPDEST POP POP SWAP1 POP DUP1 PUSH2 0x1590 JUMPI PUSH1 0x40 MLOAD PUSH32 0x8C379A000000000000000000000000000000000000000000000000000000000 DUP2 MSTORE PUSH1 0x4 ADD PUSH2 0x1587 SWAP1 PUSH2 0x2E42 JUMP JUMPDEST PUSH1 0x40 MLOAD DUP1 SWAP2 SUB SWAP1 REVERT JUMPDEST CALLER PUSH20 0xFFFFFFFFFFFFFFFFFFFFFFFFFFFFFFFFFFFFFFFF AND PUSH31 0x6B9BB4766CF5AB74B890DF959E4FAD0E54B1C3885E49C9541D36253A6E39E6 PUSH1 0x7 SLOAD DUP8 PUSH1 0x40 MLOAD PUSH2 0x15D9 SWAP3 SWAP2 SWAP1 PUSH2 0x2B68 JUMP JUMPDEST PUSH1 0x40 MLOAD DUP1 SWAP2 SUB SWAP1 LOG2 POP POP POP POP POP JUMP JUMPDEST PUSH0 PUSH1 0x4 SLOAD GT PUSH2 0x162C JUMPI PUSH1 0x40 MLOAD PUSH32 0x8C379A000000000000000000000000000000000000000000000000000000000 DUP2 MSTORE PUSH1 0x4 ADD PUSH2 0x1623 SWAP1 PUSH2 0x2ED0 JUMP JUMPDEST PUSH1 0x40 MLOAD DUP1 SWAP2 SUB SWAP1 REVERT JUMPDEST PUSH0 PUSH1 0xB SLOAD TIMESTAMP PUSH2 0x163B SWAP2 SWAP1 PUSH2 0x27ED JUMP JUMPDEST SWAP1 POP PUSH4 0x1E13380 DUP2 GT PUSH2 0x164E JUMPI POP PUSH2 0x16F4 JUMP JUMPDEST PUSH0 PUSH4 0x1E13380 SWAP1 POP PUSH0 DUP2 PUSH1 0x64 PUSH2 0x1664 SWAP2 SWAP1 PUSH2 0x2B8F JUMP JUMPDEST DUP4 PUSH1 0x6 SLOAD PUSH1 0x4 SLOAD PUSH2 0x1675 SWAP2 SWAP1 PUSH2 0x2B8F JUMP JUMPDEST PUSH2 0x167F SWAP2 SWAP1 PUSH2 0x2B8F JUMP JUMPDEST PUSH2 0x1689 SWAP2 SWAP1 PUSH2 0x2D3A JUMP JUMPDEST SWAP1 POP PUSH0 DUP2 GT ISZERO PUSH2 0x16F0 JUMPI DUP1 PUSH1 0xC PUSH0 DUP3 DUP3 SLOAD PUSH2 0x16A4 SWAP2 SWAP1 PUSH2 0x2B35 JUMP JUMPDEST SWAP3 POP POP DUP2 SWAP1 SSTORE POP TIMESTAMP PUSH1 0xB DUP2 SWAP1 SSTORE POP PUSH32 0xE9D95E658B0C714DA9DE2E12FBED253A24A632058A074DC7C90B8B6618675C7C DUP2 PUSH1 0x4 SLOAD TIMESTAMP PUSH1 0x40 MLOAD PUSH2 0x16E7 SWAP4 SWAP3 SWAP2 SWAP1 PUSH2 0x2572 JUMP JUMPDEST PUSH1 0x40 MLOAD DUP1 SWAP2 SUB SWAP1 LOG1 JUMPDEST POP POP POP JUMPDEST JUMP JUMPDEST PUSH0 PUSH1 0x8 PUSH0 DUP4 DUP2 MSTORE PUSH1 0x20 ADD SWAP1 DUP2 MSTORE PUSH1 0x20 ADD PUSH0 KECCAK256 SWAP1 POP CALLER PUSH20 0xFFFFFFFFFFFFFFFFFFFFFFFFFFFFFFFFFFFFFFFF AND DUP2 PUSH0 ADD PUSH0 SWAP1 SLOAD SWAP1 PUSH2 0x100 EXP SWAP1 DIV PUSH20 0xFFFFFFFFFFFFFFFFFFFFFFFFFFFFFFFFFFFFFFFF AND PUSH20 0xFFFFFFFFFFFFFFFFFFFFFFFFFFFFFFFFFFFFFFFF AND EQ PUSH2 0x179A JUMPI PUSH1 0x40 MLOAD PUSH32 0x8C379A000000000000000000000000000000000000000000000000000000000 DUP2 MSTORE PUSH1 0x4 ADD PUSH2 0x1791 SWAP1 PUSH2 0x2F38 JUMP JUMPDEST PUSH1 0x40 MLOAD DUP1 SWAP2 SUB SWAP1 REVERT JUMPDEST DUP1 PUSH1 0x5 ADD PUSH1 0x1 SWAP1 SLOAD SWAP1 PUSH2 0x100 EXP SWAP1 DIV PUSH1 0xFF AND PUSH2 0x17EB JUMPI PUSH1 0x40 MLOAD PUSH32 0x8C379A000000000000000000000000000000000000000000000000000000000 DUP2 MSTORE PUSH1 0x4 ADD PUSH2 0x17E2 SWAP1 PUSH2 0x2FA0 JUMP JUMPDEST PUSH1 0x40 MLOAD DUP1 SWAP2 SUB SWAP1 REVERT JUMPDEST DUP1 PUSH1 0x5 ADD PUSH0 SWAP1 SLOAD SWAP1 PUSH2 0x100 EXP SWAP1 DIV PUSH1 0xFF AND ISZERO PUSH2 0x183C JUMPI PUSH1 0x40 MLOAD PUSH32 0x8C379A000000000000000000000000000000000000000000000000000000000 DUP2 MSTORE PUSH1 0x4 ADD PUSH2 0x1833 SWAP1 PUSH2 0x3008 JUMP JUMPDEST PUSH1 0x40 MLOAD DUP1 SWAP2 SUB SWAP1 REVERT JUMPDEST DUP1 PUSH1 0x3 ADD SLOAD CALLVALUE LT ISZERO PUSH2 0x1883 JUMPI PUSH1 0x40 MLOAD PUSH32 0x8C379A000000000000000000000000000000000000000000000000000000000 DUP2 MSTORE PUSH1 0x4 ADD PUSH2 0x187A SWAP1 PUSH2 0x3070 JUMP JUMPDEST PUSH1 0x40 MLOAD DUP1 SWAP2 SUB SWAP1 REVERT JUMPDEST PUSH0 PUSH1 0x64 PUSH1 0x1 DUP4 PUSH1 0x3 ADD SLOAD PUSH2 0x1897 SWAP2 SWAP1 PUSH2 0x2B8F JUMP JUMPDEST PUSH2 0x18A1 SWAP2 SWAP1 PUSH2 0x2D3A JUMP JUMPDEST SWAP1 POP PUSH0 DUP2 DUP4 PUSH1 0x3 ADD SLOAD PUSH2 0x18B4 SWAP2 SWAP1 PUSH2 0x27ED JUMP JUMPDEST SWAP1 POP DUP2 PUSH1 0xC PUSH0 DUP3 DUP3 SLOAD PUSH2 0x18C7 SWAP2 SWAP1 PUSH2 0x2B35 JUMP JUMPDEST SWAP3 POP POP DUP2 SWAP1 SSTORE POP PUSH1 0x1 DUP4 PUSH1 0x5 ADD PUSH0 PUSH2 0x100 EXP DUP2 SLOAD DUP2 PUSH1 0xFF MUL NOT AND SWAP1 DUP4 ISZERO ISZERO MUL OR SWAP1 SSTORE POP PUSH0 DUP4 PUSH1 0x5 ADD PUSH1 0x1 PUSH2 0x100 EXP DUP2 SLOAD DUP2 PUSH1 0xFF MUL NOT AND SWAP1 DUP4 ISZERO ISZERO MUL OR SWAP1 SSTORE POP PUSH0 DUP1 PUSH0 CALLER PUSH20 0xFFFFFFFFFFFFFFFFFFFFFFFFFFFFFFFFFFFFFFFF AND PUSH20 0xFFFFFFFFFFFFFFFFFFFFFFFFFFFFFFFFFFFFFFFF AND DUP2 MSTORE PUSH1 0x20 ADD SWAP1 DUP2 MSTORE PUSH1 0x20 ADD PUSH0 KECCAK256 SLOAD SWAP1 POP PUSH0 DUP2 GT PUSH2 0x1988 JUMPI PUSH1 0x40 MLOAD PUSH32 0x8C379A000000000000000000000000000000000000000000000000000000000 DUP2 MSTORE PUSH1 0x4 ADD PUSH2 0x197F SWAP1 PUSH2 0x30D8 JUMP JUMPDEST PUSH1 0x40 MLOAD DUP1 SWAP2 SUB SWAP1 REVERT JUMPDEST PUSH0 DUP1 PUSH0 CALLER PUSH20 0xFFFFFFFFFFFFFFFFFFFFFFFFFFFFFFFFFFFFFFFF AND PUSH20 0xFFFFFFFFFFFFFFFFFFFFFFFFFFFFFFFFFFFFFFFF AND DUP2 MSTORE PUSH1 0x20 ADD SWAP1 DUP2 MSTORE PUSH1 0x20 ADD PUSH0 KECCAK256 DUP2 SWAP1 SSTORE POP DUP2 PUSH1 0x4 PUSH0 DUP3 DUP3 SLOAD PUSH2 0x19DA SWAP2 SWAP1 PUSH2 0x2B35 JUMP JUMPDEST SWAP3 POP POP DUP2 SWAP1 SSTORE POP PUSH1 0x1 DUP5 PUSH1 0x5 ADD PUSH0 PUSH2 0x100 EXP DUP2 SLOAD DUP2 PUSH1 0xFF MUL NOT AND SWAP1 DUP4 ISZERO ISZERO MUL OR SWAP1 SSTORE POP PUSH0 DUP5 PUSH1 0x5 ADD PUSH1 0x1 PUSH2 0x100 EXP DUP2 SLOAD DUP2 PUSH1 0xFF MUL NOT AND SWAP1 DUP4 ISZERO ISZERO MUL OR SWAP1 SSTORE POP PUSH0 CALLER PUSH20 0xFFFFFFFFFFFFFFFFFFFFFFFFFFFFFFFFFFFFFFFF AND DUP3 PUSH1 0x40 MLOAD PUSH2 0x1A3E SWAP1 PUSH2 0x284D JUMP JUMPDEST PUSH0 PUSH1 0x40 MLOAD DUP1 DUP4 SUB DUP2 DUP6 DUP8 GAS CALL SWAP3 POP POP POP RETURNDATASIZE DUP1 PUSH0 DUP2 EQ PUSH2 0x1A78 JUMPI PUSH1 0x40 MLOAD SWAP2 POP PUSH1 0x1F NOT PUSH1 0x3F RETURNDATASIZE ADD AND DUP3 ADD PUSH1 0x40 MSTORE RETURNDATASIZE DUP3 MSTORE RETURNDATASIZE PUSH0 PUSH1 0x20 DUP5 ADD RETURNDATACOPY PUSH2 0x1A7D JUMP JUMPDEST PUSH1 0x60 SWAP2 POP JUMPDEST POP POP SWAP1 POP DUP1 PUSH2 0x1AC1 JUMPI PUSH1 0x40 MLOAD PUSH32 0x8C379A000000000000000000000000000000000000000000000000000000000 DUP2 MSTORE PUSH1 0x4 ADD PUSH2 0x1AB8 SWAP1 PUSH2 0x3140 JUMP JUMPDEST PUSH1 0x40 MLOAD DUP1 SWAP2 SUB SWAP1 REVERT JUMPDEST CALLER PUSH20 0xFFFFFFFFFFFFFFFFFFFFFFFFFFFFFFFFFFFFFFFF AND PUSH32 0xC7CE0A35F17B490DE2A317E7FECB2CAE86B1ABFFB03800B2F492823521382698 DUP8 CALLVALUE PUSH1 0x40 MLOAD PUSH2 0x1B09 SWAP3 SWAP2 SWAP1 PUSH2 0x2B68 JUMP JUMPDEST PUSH1 0x40 MLOAD DUP1 SWAP2 SUB SWAP1 LOG2 POP POP POP POP POP POP JUMP JUMPDEST PUSH0 DUP1 DUP3 GT PUSH2 0x1B5C JUMPI PUSH1 0x40 MLOAD PUSH32 0x8C379A000000000000000000000000000000000000000000000000000000000 DUP2 MSTORE PUSH1 0x4 ADD PUSH2 0x1B53 SWAP1 PUSH2 0x31A8 JUMP JUMPDEST PUSH1 0x40 MLOAD DUP1 SWAP2 SUB SWAP1 REVERT JUMPDEST PUSH1 0x64 PUSH1 0x96 DUP4 PUSH2 0x1B6B SWAP2 SWAP1 PUSH2 0x2B8F JUMP JUMPDEST PUSH2 0x1B75 SWAP2 SWAP1 PUSH2 0x2D3A JUMP JUMPDEST SWAP1 POP SWAP2 SWAP1 POP JUMP JUMPDEST PUSH0 DUP1 PUSH1 0x8 PUSH0 DUP5 DUP2 MSTORE PUSH1 0x20 ADD SWAP1 DUP2 MSTORE PUSH1 0x20 ADD PUSH0 KECCAK256 PUSH1 0x40 MLOAD DUP1 PUSH1 0xE0 ADD PUSH1 0x40 MSTORE SWAP1 DUP2 PUSH0 DUP3 ADD PUSH0 SWAP1 SLOAD SWAP1 PUSH2 0x100 EXP SWAP1 DIV PUSH20 0xFFFFFFFFFFFFFFFFFFFFFFFFFFFFFFFFFFFFFFFF AND PUSH20 0xFFFFFFFFFFFFFFFFFFFFFFFFFFFFFFFFFFFFFFFF AND PUSH20 0xFFFFFFFFFFFFFFFFFFFFFFFFFFFFFFFFFFFFFFFF AND DUP2 MSTORE PUSH1 0x20 ADD PUSH1 0x1 DUP3 ADD SLOAD DUP2 MSTORE PUSH1 0x20 ADD PUSH1 0x2 DUP3 ADD SLOAD DUP2 MSTORE PUSH1 0x20 ADD PUSH1 0x3 DUP3 ADD SLOAD DUP2 MSTORE PUSH1 0x20 ADD PUSH1 0x4 DUP3 ADD SLOAD DUP2 MSTORE PUSH1 0x20 ADD PUSH1 0x5 DUP3 ADD PUSH0 SWAP1 SLOAD SWAP1 PUSH2 0x100 EXP SWAP1 DIV PUSH1 0xFF AND ISZERO ISZERO ISZERO ISZERO DUP2 MSTORE PUSH1 0x20 ADD PUSH1 0x5 DUP3 ADD PUSH1 0x1 SWAP1 SLOAD SWAP1 PUSH2 0x100 EXP SWAP1 DIV PUSH1 0xFF AND ISZERO ISZERO ISZERO ISZERO DUP2 MSTORE POP POP SWAP1 POP PUSH0 DUP2 PUSH1 0x20 ADD MLOAD GT PUSH2 0x1C93 JUMPI PUSH1 0x40 MLOAD PUSH32 0x8C379A000000000000000000000000000000000000000000000000000000000 DUP2 MSTORE PUSH1 0x4 ADD PUSH2 0x1C8A SWAP1 PUSH2 0x3236 JUMP JUMPDEST PUSH1 0x40 MLOAD DUP1 SWAP2 SUB SWAP1 REVERT JUMPDEST DUP1 PUSH1 0x60 ADD MLOAD SWAP2 POP POP SWAP2 SWAP1 POP JUMP JUMPDEST PUSH0 DUP1 PUSH1 0x4 SLOAD SUB PUSH2 0x1CB2 JUMPI PUSH0 SWAP1 POP PUSH2 0x1D0D JUMP JUMPDEST PUSH1 0x4 SLOAD PUSH1 0xC SLOAD PUSH1 0x2 PUSH0 DUP6 PUSH20 0xFFFFFFFFFFFFFFFFFFFFFFFFFFFFFFFFFFFFFFFF AND PUSH20 0xFFFFFFFFFFFFFFFFFFFFFFFFFFFFFFFFFFFFFFFF AND DUP2 MSTORE PUSH1 0x20 ADD SWAP1 DUP2 MSTORE PUSH1 0x20 ADD PUSH0 KECCAK256 SLOAD PUSH2 0x1D00 SWAP2 SWAP1 PUSH2 0x2B8F JUMP JUMPDEST PUSH2 0x1D0A SWAP2 SWAP1 PUSH2 0x2D3A JUMP JUMPDEST SWAP1 POP JUMPDEST SWAP2 SWAP1 POP JUMP JUMPDEST PUSH1 0x1 PUSH0 SWAP1 SLOAD SWAP1 PUSH2 0x100 EXP SWAP1 DIV PUSH20 0xFFFFFFFFFFFFFFFFFFFFFFFFFFFFFFFFFFFFFFFF AND PUSH20 0xFFFFFFFFFFFFFFFFFFFFFFFFFFFFFFFFFFFFFFFF AND CALLER PUSH20 0xFFFFFFFFFFFFFFFFFFFFFFFFFFFFFFFFFFFFFFFF AND EQ PUSH2 0x1DA1 JUMPI PUSH1 0x40 MLOAD PUSH32 0x8C379A000000000000000000000000000000000000000000000000000000000 DUP2 MSTORE PUSH1 0x4 ADD PUSH2 0x1D98 SWAP1 PUSH2 0x2993 JUMP JUMPDEST PUSH1 0x40 MLOAD DUP1 SWAP2 SUB SWAP1 REVERT JUMPDEST PUSH0 PUSH1 0xC SLOAD GT PUSH2 0x1DE5 JUMPI PUSH1 0x40 MLOAD PUSH32 0x8C379A000000000000000000000000000000000000000000000000000000000 DUP2 MSTORE PUSH1 0x4 ADD PUSH2 0x1DDC SWAP1 PUSH2 0x329E JUMP JUMPDEST PUSH1 0x40 MLOAD DUP1 SWAP2 SUB SWAP1 REVERT JUMPDEST PUSH0 DUP1 JUMPDEST PUSH1 0xA DUP1 SLOAD SWAP1 POP DUP2 LT ISZERO PUSH2 0x1F5D JUMPI PUSH0 PUSH1 0xA DUP3 DUP2 SLOAD DUP2 LT PUSH2 0x1E0A JUMPI PUSH2 0x1E09 PUSH2 0x28C9 JUMP JUMPDEST JUMPDEST SWAP1 PUSH0 MSTORE PUSH1 0x20 PUSH0 KECCAK256 ADD PUSH0 SWAP1 SLOAD SWAP1 PUSH2 0x100 EXP SWAP1 DIV PUSH20 0xFFFFFFFFFFFFFFFFFFFFFFFFFFFFFFFFFFFFFFFF AND SWAP1 POP PUSH0 PUSH2 0x1E3E DUP3 PUSH2 0x1CA0 JUMP JUMPDEST SWAP1 POP PUSH0 DUP2 GT ISZERO PUSH2 0x1F4E JUMPI DUP1 DUP5 PUSH2 0x1E54 SWAP2 SWAP1 PUSH2 0x2B35 JUMP JUMPDEST SWAP4 POP PUSH0 DUP3 PUSH20 0xFFFFFFFFFFFFFFFFFFFFFFFFFFFFFFFFFFFFFFFF AND DUP3 PUSH1 0x40 MLOAD PUSH2 0x1E7B SWAP1 PUSH2 0x284D JUMP JUMPDEST PUSH0 PUSH1 0x40 MLOAD DUP1 DUP4 SUB DUP2 DUP6 DUP8 GAS CALL SWAP3 POP POP POP RETURNDATASIZE DUP1 PUSH0 DUP2 EQ PUSH2 0x1EB5 JUMPI PUSH1 0x40 MLOAD SWAP2 POP PUSH1 0x1F NOT PUSH1 0x3F RETURNDATASIZE ADD AND DUP3 ADD PUSH1 0x40 MSTORE RETURNDATASIZE DUP3 MSTORE RETURNDATASIZE PUSH0 PUSH1 0x20 DUP5 ADD RETURNDATACOPY PUSH2 0x1EBA JUMP JUMPDEST PUSH1 0x60 SWAP2 POP JUMPDEST POP POP SWAP1 POP DUP1 PUSH2 0x1EFE JUMPI PUSH1 0x40 MLOAD PUSH32 0x8C379A000000000000000000000000000000000000000000000000000000000 DUP2 MSTORE PUSH1 0x4 ADD PUSH2 0x1EF5 SWAP1 PUSH2 0x3306 JUMP JUMPDEST PUSH1 0x40 MLOAD DUP1 SWAP2 SUB SWAP1 REVERT JUMPDEST DUP3 PUSH20 0xFFFFFFFFFFFFFFFFFFFFFFFFFFFFFFFFFFFFFFFF AND PUSH32 0x6C461460F28AF1386F23DC4C0C7F4E2E54F0DB320A8EDC08803E4B787F6DB325 DUP4 PUSH1 0x40 MLOAD PUSH2 0x1F44 SWAP2 SWAP1 PUSH2 0x23E2 JUMP JUMPDEST PUSH1 0x40 MLOAD DUP1 SWAP2 SUB SWAP1 LOG2 POP JUMPDEST POP POP DUP1 DUP1 PUSH1 0x1 ADD SWAP2 POP POP PUSH2 0x1DE8 JUMP JUMPDEST POP DUP1 PUSH1 0xC PUSH0 DUP3 DUP3 SLOAD PUSH2 0x1F6F SWAP2 SWAP1 PUSH2 0x27ED JUMP JUMPDEST SWAP3 POP POP DUP2 SWAP1 SSTORE POP POP JUMP JUMPDEST PUSH1 0xB SLOAD DUP2 JUMP JUMPDEST PUSH0 DUP1 PUSH0 PUSH1 0x2 PUSH0 DUP6 PUSH20 0xFFFFFFFFFFFFFFFFFFFFFFFFFFFFFFFFFFFFFFFF AND PUSH20 0xFFFFFFFFFFFFFFFFFFFFFFFFFFFFFFFFFFFFFFFF AND DUP2 MSTORE PUSH1 0x20 ADD SWAP1 DUP2 MSTORE PUSH1 0x20 ADD PUSH0 KECCAK256 SLOAD PUSH1 0x3 PUSH0 DUP7 PUSH20 0xFFFFFFFFFFFFFFFFFFFFFFFFFFFFFFFFFFFFFFFF AND PUSH20 0xFFFFFFFFFFFFFFFFFFFFFFFFFFFFFFFFFFFFFFFF AND DUP2 MSTORE PUSH1 0x20 ADD SWAP1 DUP2 MSTORE PUSH1 0x20 ADD PUSH0 KECCAK256 SLOAD PUSH0 DUP1 DUP8 PUSH20 0xFFFFFFFFFFFFFFFFFFFFFFFFFFFFFFFFFFFFFFFF AND PUSH20 0xFFFFFFFFFFFFFFFFFFFFFFFFFFFFFFFFFFFFFFFF AND DUP2 MSTORE PUSH1 0x20 ADD SWAP1 DUP2 MSTORE PUSH1 0x20 ADD PUSH0 KECCAK256 SLOAD SWAP3 POP SWAP3 POP SWAP3 POP SWAP2 SWAP4 SWAP1 SWAP3 POP JUMP JUMPDEST PUSH1 0x6 SLOAD DUP2 JUMP JUMPDEST PUSH0 CALLVALUE GT PUSH2 0x2090 JUMPI PUSH1 0x40 MLOAD PUSH32 0x8C379A000000000000000000000000000000000000000000000000000000000 DUP2 MSTORE PUSH1 0x4 ADD PUSH2 0x2087 SWAP1 PUSH2 0x3394 JUMP JUMPDEST PUSH1 0x40 MLOAD DUP1 SWAP2 SUB SWAP1 REVERT JUMPDEST CALLVALUE PUSH1 0x2 PUSH0 CALLER PUSH20 0xFFFFFFFFFFFFFFFFFFFFFFFFFFFFFFFFFFFFFFFF AND PUSH20 0xFFFFFFFFFFFFFFFFFFFFFFFFFFFFFFFFFFFFFFFF AND DUP2 MSTORE PUSH1 0x20 ADD SWAP1 DUP2 MSTORE PUSH1 0x20 ADD PUSH0 KECCAK256 PUSH0 DUP3 DUP3 SLOAD PUSH2 0x20DC SWAP2 SWAP1 PUSH2 0x2B35 JUMP JUMPDEST SWAP3 POP POP DUP2 SWAP1 SSTORE POP CALLVALUE PUSH1 0x4 PUSH0 DUP3 DUP3 SLOAD PUSH2 0x20F4 SWAP2 SWAP1 PUSH2 0x2B35 JUMP JUMPDEST SWAP3 POP POP DUP2 SWAP1 SSTORE POP CALLER PUSH20 0xFFFFFFFFFFFFFFFFFFFFFFFFFFFFFFFFFFFFFFFF AND PUSH32 0xE1FFFCC4923D04B559F4D29A8BFC6CDA04EB5B0D3C460751C2402C5C5CC9109C CALLVALUE PUSH1 0x40 MLOAD PUSH2 0x2141 SWAP2 SWAP1 PUSH2 0x23E2 JUMP JUMPDEST PUSH1 0x40 MLOAD DUP1 SWAP2 SUB SWAP1 LOG2 PUSH1 0xA CALLER SWAP1 DUP1 PUSH1 0x1 DUP2 SLOAD ADD DUP1 DUP3 SSTORE DUP1 SWAP2 POP POP PUSH1 0x1 SWAP1 SUB SWAP1 PUSH0 MSTORE PUSH1 0x20 PUSH0 KECCAK256 ADD PUSH0 SWAP1 SWAP2 SWAP1 SWAP2 SWAP1 SWAP2 PUSH2 0x100 EXP DUP2 SLOAD DUP2 PUSH20 0xFFFFFFFFFFFFFFFFFFFFFFFFFFFFFFFFFFFFFFFF MUL NOT AND SWAP1 DUP4 PUSH20 0xFFFFFFFFFFFFFFFFFFFFFFFFFFFFFFFFFFFFFFFF AND MUL OR SWAP1 SSTORE POP JUMP JUMPDEST PUSH1 0x9 PUSH1 0x20 MSTORE DUP2 PUSH0 MSTORE PUSH1 0x40 PUSH0 KECCAK256 DUP2 DUP2 SLOAD DUP2 LT PUSH2 0x21C4 JUMPI PUSH0 DUP1 REVERT JUMPDEST SWAP1 PUSH0 MSTORE PUSH1 0x20 PUSH0 KECCAK256 ADD PUSH0 SWAP2 POP SWAP2 POP POP SLOAD DUP2 JUMP JUMPDEST PUSH1 0x8 PUSH1 0x20 MSTORE DUP1 PUSH0 MSTORE PUSH1 0x40 PUSH0 KECCAK256 PUSH0 SWAP2 POP SWAP1 POP DUP1 PUSH0 ADD PUSH0 SWAP1 SLOAD SWAP1 PUSH2 0x100 EXP SWAP1 DIV PUSH20 0xFFFFFFFFFFFFFFFFFFFFFFFFFFFFFFFFFFFFFFFF AND SWAP1 DUP1 PUSH1 0x1 ADD SLOAD SWAP1 DUP1 PUSH1 0x2 ADD SLOAD SWAP1 DUP1 PUSH1 0x3 ADD SLOAD SWAP1 DUP1 PUSH1 0x4 ADD SLOAD SWAP1 DUP1 PUSH1 0x5 ADD PUSH0 SWAP1 SLOAD SWAP1 PUSH2 0x100 EXP SWAP1 DIV PUSH1 0xFF AND SWAP1 DUP1 PUSH1 0x5 ADD PUSH1 0x1 SWAP1 SLOAD SWAP1 PUSH2 0x100 EXP SWAP1 DIV PUSH1 0xFF AND SWAP1 POP DUP8 JUMP JUMPDEST PUSH1 0xA DUP2 DUP2 SLOAD DUP2 LT PUSH2 0x225B JUMPI PUSH0 DUP1 REVERT JUMPDEST SWAP1 PUSH0 MSTORE PUSH1 0x20 PUSH0 KECCAK256 ADD PUSH0 SWAP2 POP SLOAD SWAP1 PUSH2 0x100 EXP SWAP1 DIV PUSH20 0xFFFFFFFFFFFFFFFFFFFFFFFFFFFFFFFFFFFFFFFF AND DUP2 JUMP JUMPDEST PUSH0 DUP1 DUP3 GT PUSH2 0x22CA JUMPI PUSH1 0x40 MLOAD PUSH32 0x8C379A000000000000000000000000000000000000000000000000000000000 DUP2 MSTORE PUSH1 0x4 ADD PUSH2 0x22C1 SWAP1 PUSH2 0x31A8 JUMP JUMPDEST PUSH1 0x40 MLOAD DUP1 SWAP2 SUB SWAP1 REVERT JUMPDEST PUSH0 PUSH1 0x64 PUSH1 0x6 SLOAD DUP5 PUSH2 0x22DB SWAP2 SWAP1 PUSH2 0x2B8F JUMP JUMPDEST PUSH2 0x22E5 SWAP2 SWAP1 PUSH2 0x2D3A JUMP JUMPDEST SWAP1 POP DUP1 DUP4 PUSH2 0x22F3 SWAP2 SWAP1 PUSH2 0x2B35 JUMP JUMPDEST SWAP2 POP POP SWAP2 SWAP1 POP JUMP JUMPDEST PUSH0 PUSH1 0x20 MSTORE DUP1 PUSH0 MSTORE PUSH1 0x40 PUSH0 KECCAK256 PUSH0 SWAP2 POP SWAP1 POP SLOAD DUP2 JUMP JUMPDEST PUSH1 0x2 PUSH1 0x20 MSTORE DUP1 PUSH0 MSTORE PUSH1 0x40 PUSH0 KECCAK256 PUSH0 SWAP2 POP SWAP1 POP SLOAD DUP2 JUMP JUMPDEST PUSH0 DUP1 PUSH0 JUMPDEST PUSH1 0xA DUP1 SLOAD SWAP1 POP DUP2 LT ISZERO PUSH2 0x23BD JUMPI DUP4 PUSH20 0xFFFFFFFFFFFFFFFFFFFFFFFFFFFFFFFFFFFFFFFF AND PUSH1 0xA DUP3 DUP2 SLOAD DUP2 LT PUSH2 0x2360 JUMPI PUSH2 0x235F PUSH2 0x28C9 JUMP JUMPDEST JUMPDEST SWAP1 PUSH0 MSTORE PUSH1 0x20 PUSH0 KECCAK256 ADD PUSH0 SWAP1 SLOAD SWAP1 PUSH2 0x100 EXP SWAP1 DIV PUSH20 0xFFFFFFFFFFFFFFFFFFFFFFFFFFFFFFFFFFFFFFFF AND PUSH20 0xFFFFFFFFFFFFFFFFFFFFFFFFFFFFFFFFFFFFFFFF AND SUB PUSH2 0x23B0 JUMPI PUSH1 0x1 DUP2 SWAP3 POP SWAP3 POP POP PUSH2 0x23C5 JUMP JUMPDEST DUP1 DUP1 PUSH1 0x1 ADD SWAP2 POP POP PUSH2 0x2328 JUMP JUMPDEST POP PUSH0 DUP1 SWAP2 POP SWAP2 POP JUMPDEST SWAP2 POP SWAP2 JUMP JUMPDEST PUSH0 DUP2 SWAP1 POP SWAP2 SWAP1 POP JUMP JUMPDEST PUSH2 0x23DC DUP2 PUSH2 0x23CA JUMP JUMPDEST DUP3 MSTORE POP POP JUMP JUMPDEST PUSH0 PUSH1 0x20 DUP3 ADD SWAP1 POP PUSH2 0x23F5 PUSH0 DUP4 ADD DUP5 PUSH2 0x23D3 JUMP JUMPDEST SWAP3 SWAP2 POP POP JUMP JUMPDEST PUSH0 DUP1 REVERT JUMPDEST PUSH2 0x2408 DUP2 PUSH2 0x23CA JUMP JUMPDEST DUP2 EQ PUSH2 0x2412 JUMPI PUSH0 DUP1 REVERT JUMPDEST POP JUMP JUMPDEST PUSH0 DUP2 CALLDATALOAD SWAP1 POP PUSH2 0x2423 DUP2 PUSH2 0x23FF JUMP JUMPDEST SWAP3 SWAP2 POP POP JUMP JUMPDEST PUSH0 PUSH1 0x20 DUP3 DUP5 SUB SLT ISZERO PUSH2 0x243E JUMPI PUSH2 0x243D PUSH2 0x23FB JUMP JUMPDEST JUMPDEST PUSH0 PUSH2 0x244B DUP5 DUP3 DUP6 ADD PUSH2 0x2415 JUMP JUMPDEST SWAP2 POP POP SWAP3 SWAP2 POP POP JUMP JUMPDEST PUSH0 PUSH20 0xFFFFFFFFFFFFFFFFFFFFFFFFFFFFFFFFFFFFFFFF DUP3 AND SWAP1 POP SWAP2 SWAP1 POP JUMP JUMPDEST PUSH0 PUSH2 0x247D DUP3 PUSH2 0x2454 JUMP JUMPDEST SWAP1 POP SWAP2 SWAP1 POP JUMP JUMPDEST PUSH2 0x248D DUP2 PUSH2 0x2473 JUMP JUMPDEST DUP2 EQ PUSH2 0x2497 JUMPI PUSH0 DUP1 REVERT JUMPDEST POP JUMP JUMPDEST PUSH0 DUP2 CALLDATALOAD SWAP1 POP PUSH2 0x24A8 DUP2 PUSH2 0x2484 JUMP JUMPDEST SWAP3 SWAP2 POP POP JUMP JUMPDEST PUSH0 PUSH1 0x20 DUP3 DUP5 SUB SLT ISZERO PUSH2 0x24C3 JUMPI PUSH2 0x24C2 PUSH2 0x23FB JUMP JUMPDEST JUMPDEST PUSH0 PUSH2 0x24D0 DUP5 DUP3 DUP6 ADD PUSH2 0x249A JUMP JUMPDEST SWAP2 POP POP SWAP3 SWAP2 POP POP JUMP JUMPDEST PUSH0 DUP2 ISZERO ISZERO SWAP1 POP SWAP2 SWAP1 POP JUMP JUMPDEST PUSH2 0x24ED DUP2 PUSH2 0x24D9 JUMP JUMPDEST DUP3 MSTORE POP POP JUMP JUMPDEST PUSH0 PUSH1 0x20 DUP3 ADD SWAP1 POP PUSH2 0x2506 PUSH0 DUP4 ADD DUP5 PUSH2 0x24E4 JUMP JUMPDEST SWAP3 SWAP2 POP POP JUMP JUMPDEST PUSH2 0x2515 DUP2 PUSH2 0x2473 JUMP JUMPDEST DUP3 MSTORE POP POP JUMP JUMPDEST PUSH0 PUSH1 0x20 DUP3 ADD SWAP1 POP PUSH2 0x252E PUSH0 DUP4 ADD DUP5 PUSH2 0x250C JUMP JUMPDEST SWAP3 SWAP2 POP POP JUMP JUMPDEST PUSH0 DUP1 PUSH1 0x40 DUP4 DUP6 SUB SLT ISZERO PUSH2 0x254A JUMPI PUSH2 0x2549 PUSH2 0x23FB JUMP JUMPDEST JUMPDEST PUSH0 PUSH2 0x2557 DUP6 DUP3 DUP7 ADD PUSH2 0x2415 JUMP JUMPDEST SWAP3 POP POP PUSH1 0x20 PUSH2 0x2568 DUP6 DUP3 DUP7 ADD PUSH2 0x2415 JUMP JUMPDEST SWAP2 POP POP SWAP3 POP SWAP3 SWAP1 POP JUMP JUMPDEST PUSH0 PUSH1 0x60 DUP3 ADD SWAP1 POP PUSH2 0x2585 PUSH0 DUP4 ADD DUP7 PUSH2 0x23D3 JUMP JUMPDEST PUSH2 0x2592 PUSH1 0x20 DUP4 ADD DUP6 PUSH2 0x23D3 JUMP JUMPDEST PUSH2 0x259F PUSH1 0x40 DUP4 ADD DUP5 PUSH2 0x23D3 JUMP JUMPDEST SWAP5 SWAP4 POP POP POP POP JUMP JUMPDEST PUSH0 DUP1 PUSH1 0x40 DUP4 DUP6 SUB SLT ISZERO PUSH2 0x25BD JUMPI PUSH2 0x25BC PUSH2 0x23FB JUMP JUMPDEST JUMPDEST PUSH0 PUSH2 0x25CA DUP6 DUP3 DUP7 ADD PUSH2 0x249A JUMP JUMPDEST SWAP3 POP POP PUSH1 0x20 PUSH2 0x25DB DUP6 DUP3 DUP7 ADD PUSH2 0x2415 JUMP JUMPDEST SWAP2 POP POP SWAP3 POP SWAP3 SWAP1 POP JUMP JUMPDEST PUSH0 PUSH1 0xE0 DUP3 ADD SWAP1 POP PUSH2 0x25F8 PUSH0 DUP4 ADD DUP11 PUSH2 0x250C JUMP JUMPDEST PUSH2 0x2605 PUSH1 0x20 DUP4 ADD DUP10 PUSH2 0x23D3 JUMP JUMPDEST PUSH2 0x2612 PUSH1 0x40 DUP4 ADD DUP9 PUSH2 0x23D3 JUMP JUMPDEST PUSH2 0x261F PUSH1 0x60 DUP4 ADD DUP8 PUSH2 0x23D3 JUMP JUMPDEST PUSH2 0x262C PUSH1 0x80 DUP4 ADD DUP7 PUSH2 0x23D3 JUMP JUMPDEST PUSH2 0x2639 PUSH1 0xA0 DUP4 ADD DUP6 PUSH2 0x24E4 JUMP JUMPDEST PUSH2 0x2646 PUSH1 0xC0 DUP4 ADD DUP5 PUSH2 0x24E4 JUMP JUMPDEST SWAP9 SWAP8 POP POP POP POP POP POP POP POP JUMP JUMPDEST PUSH0 DUP3 DUP3 MSTORE PUSH1 0x20 DUP3 ADD SWAP1 POP SWAP3 SWAP2 POP POP JUMP JUMPDEST PUSH32 0x596F7520617265206E6F742061206465706F7369746F722E0000000000000000 PUSH0 DUP3 ADD MSTORE POP JUMP JUMPDEST PUSH0 PUSH2 0x2696 PUSH1 0x18 DUP4 PUSH2 0x2652 JUMP JUMPDEST SWAP2 POP PUSH2 0x26A1 DUP3 PUSH2 0x2662 JUMP JUMPDEST PUSH1 0x20 DUP3 ADD SWAP1 POP SWAP2 SWAP1 POP JUMP JUMPDEST PUSH0 PUSH1 0x20 DUP3 ADD SWAP1 POP DUP2 DUP2 SUB PUSH0 DUP4 ADD MSTORE PUSH2 0x26C3 DUP2 PUSH2 0x268A JUMP JUMPDEST SWAP1 POP SWAP2 SWAP1 POP JUMP JUMPDEST PUSH32 0x596F7520646F6E277420686176652074686973206D75636820616D6F756E7420 PUSH0 DUP3 ADD MSTORE PUSH32 0x6F66206465706F73697420746F20776974686472617700000000000000000000 PUSH1 0x20 DUP3 ADD MSTORE POP JUMP JUMPDEST PUSH0 PUSH2 0x2724 PUSH1 0x36 DUP4 PUSH2 0x2652 JUMP JUMPDEST SWAP2 POP PUSH2 0x272F DUP3 PUSH2 0x26CA JUMP JUMPDEST PUSH1 0x40 DUP3 ADD SWAP1 POP SWAP2 SWAP1 POP JUMP JUMPDEST PUSH0 PUSH1 0x20 DUP3 ADD SWAP1 POP DUP2 DUP2 SUB PUSH0 DUP4 ADD MSTORE PUSH2 0x2751 DUP2 PUSH2 0x2718 JUMP JUMPDEST SWAP1 POP SWAP2 SWAP1 POP JUMP JUMPDEST PUSH32 0x4E6F7420656E6F756768206C697175696469747920696E20706F6F6C00000000 PUSH0 DUP3 ADD MSTORE POP JUMP JUMPDEST PUSH0 PUSH2 0x278C PUSH1 0x1C DUP4 PUSH2 0x2652 JUMP JUMPDEST SWAP2 POP PUSH2 0x2797 DUP3 PUSH2 0x2758 JUMP JUMPDEST PUSH1 0x20 DUP3 ADD SWAP1 POP SWAP2 SWAP1 POP JUMP JUMPDEST PUSH0 PUSH1 0x20 DUP3 ADD SWAP1 POP DUP2 DUP2 SUB PUSH0 DUP4 ADD MSTORE PUSH2 0x27B9 DUP2 PUSH2 0x2780 JUMP JUMPDEST SWAP1 POP SWAP2 SWAP1 POP JUMP JUMPDEST PUSH32 0x4E487B7100000000000000000000000000000000000000000000000000000000 PUSH0 MSTORE PUSH1 0x11 PUSH1 0x4 MSTORE PUSH1 0x24 PUSH0 REVERT JUMPDEST PUSH0 PUSH2 0x27F7 DUP3 PUSH2 0x23CA JUMP JUMPDEST SWAP2 POP PUSH2 0x2802 DUP4 PUSH2 0x23CA JUMP JUMPDEST SWAP3 POP DUP3 DUP3 SUB SWAP1 POP DUP2 DUP2 GT ISZERO PUSH2 0x281A JUMPI PUSH2 0x2819 PUSH2 0x27C0 JUMP JUMPDEST JUMPDEST SWAP3 SWAP2 POP POP JUMP JUMPDEST PUSH0 DUP2 SWAP1 POP SWAP3 SWAP2 POP POP JUMP JUMPDEST POP JUMP JUMPDEST PUSH0 PUSH2 0x2838 PUSH0 DUP4 PUSH2 0x2820 JUMP JUMPDEST SWAP2 POP PUSH2 0x2843 DUP3 PUSH2 0x282A JUMP JUMPDEST PUSH0 DUP3 ADD SWAP1 POP SWAP2 SWAP1 POP JUMP JUMPDEST PUSH0 PUSH2 0x2857 DUP3 PUSH2 0x282D JUMP JUMPDEST SWAP2 POP DUP2 SWAP1 POP SWAP2 SWAP1 POP JUMP JUMPDEST PUSH32 0x5769746864726177616C207472616E73666572206661696C6564000000000000 PUSH0 DUP3 ADD MSTORE POP JUMP JUMPDEST PUSH0 PUSH2 0x2895 PUSH1 0x1A DUP4 PUSH2 0x2652 JUMP JUMPDEST SWAP2 POP PUSH2 0x28A0 DUP3 PUSH2 0x2861 JUMP JUMPDEST PUSH1 0x20 DUP3 ADD SWAP1 POP SWAP2 SWAP1 POP JUMP JUMPDEST PUSH0 PUSH1 0x20 DUP3 ADD SWAP1 POP DUP2 DUP2 SUB PUSH0 DUP4 ADD MSTORE PUSH2 0x28C2 DUP2 PUSH2 0x2889 JUMP JUMPDEST SWAP1 POP SWAP2 SWAP1 POP JUMP JUMPDEST PUSH32 0x4E487B7100000000000000000000000000000000000000000000000000000000 PUSH0 MSTORE PUSH1 0x32 PUSH1 0x4 MSTORE PUSH1 0x24 PUSH0 REVERT JUMPDEST PUSH32 0x4E487B7100000000000000000000000000000000000000000000000000000000 PUSH0 MSTORE PUSH1 0x31 PUSH1 0x4 MSTORE PUSH1 0x24 PUSH0 REVERT JUMPDEST PUSH32 0x4F6E6C7920746865206F776E65722063616E20706572666F726D207468697320 PUSH0 DUP3 ADD MSTORE PUSH32 0x616374696F6E0000000000000000000000000000000000000000000000000000 PUSH1 0x20 DUP3 ADD MSTORE POP JUMP JUMPDEST PUSH0 PUSH2 0x297D PUSH1 0x26 DUP4 PUSH2 0x2652 JUMP JUMPDEST SWAP2 POP PUSH2 0x2988 DUP3 PUSH2 0x2923 JUMP JUMPDEST PUSH1 0x40 DUP3 ADD SWAP1 POP SWAP2 SWAP1 POP JUMP JUMPDEST PUSH0 PUSH1 0x20 DUP3 ADD SWAP1 POP DUP2 DUP2 SUB PUSH0 DUP4 ADD MSTORE PUSH2 0x29AA DUP2 PUSH2 0x2971 JUMP JUMPDEST SWAP1 POP SWAP2 SWAP1 POP JUMP JUMPDEST PUSH32 0x4E6F20616374697665206C6F616E7320666F72207468697320626F72726F7765 PUSH0 DUP3 ADD MSTORE PUSH32 0x7200000000000000000000000000000000000000000000000000000000000000 PUSH1 0x20 DUP3 ADD MSTORE POP JUMP JUMPDEST PUSH0 PUSH2 0x2A0B PUSH1 0x21 DUP4 PUSH2 0x2652 JUMP JUMPDEST SWAP2 POP PUSH2 0x2A16 DUP3 PUSH2 0x29B1 JUMP JUMPDEST PUSH1 0x40 DUP3 ADD SWAP1 POP SWAP2 SWAP1 POP JUMP JUMPDEST PUSH0 PUSH1 0x20 DUP3 ADD SWAP1 POP DUP2 DUP2 SUB PUSH0 DUP4 ADD MSTORE PUSH2 0x2A38 DUP2 PUSH2 0x29FF JUMP JUMPDEST SWAP1 POP SWAP2 SWAP1 POP JUMP JUMPDEST PUSH32 0x4E6F20636F6C6C61746572616C20746F207365697A6500000000000000000000 PUSH0 DUP3 ADD MSTORE POP JUMP JUMPDEST PUSH0 PUSH2 0x2A73 PUSH1 0x16 DUP4 PUSH2 0x2652 JUMP JUMPDEST SWAP2 POP PUSH2 0x2A7E DUP3 PUSH2 0x2A3F JUMP JUMPDEST PUSH1 0x20 DUP3 ADD SWAP1 POP SWAP2 SWAP1 POP JUMP JUMPDEST PUSH0 PUSH1 0x20 DUP3 ADD SWAP1 POP DUP2 DUP2 SUB PUSH0 DUP4 ADD MSTORE PUSH2 0x2AA0 DUP2 PUSH2 0x2A67 JUMP JUMPDEST SWAP1 POP SWAP2 SWAP1 POP JUMP JUMPDEST PUSH32 0x4661696C656420746F207472616E7366657220636F6C6C61746572616C20746F PUSH0 DUP3 ADD MSTORE PUSH32 0x206F776E65720000000000000000000000000000000000000000000000000000 PUSH1 0x20 DUP3 ADD MSTORE POP JUMP JUMPDEST PUSH0 PUSH2 0x2B01 PUSH1 0x26 DUP4 PUSH2 0x2652 JUMP JUMPDEST SWAP2 POP PUSH2 0x2B0C DUP3 PUSH2 0x2AA7 JUMP JUMPDEST PUSH1 0x40 DUP3 ADD SWAP1 POP SWAP2 SWAP1 POP JUMP JUMPDEST PUSH0 PUSH1 0x20 DUP3 ADD SWAP1 POP DUP2 DUP2 SUB PUSH0 DUP4 ADD MSTORE PUSH2 0x2B2E DUP2 PUSH2 0x2AF5 JUMP JUMPDEST SWAP1 POP SWAP2 SWAP1 POP JUMP JUMPDEST PUSH0 PUSH2 0x2B3F DUP3 PUSH2 0x23CA JUMP JUMPDEST SWAP2 POP PUSH2 0x2B4A DUP4 PUSH2 0x23CA JUMP JUMPDEST SWAP3 POP DUP3 DUP3 ADD SWAP1 POP DUP1 DUP3 GT ISZERO PUSH2 0x2B62 JUMPI PUSH2 0x2B61 PUSH2 0x27C0 JUMP JUMPDEST JUMPDEST SWAP3 SWAP2 POP POP JUMP JUMPDEST PUSH0 PUSH1 0x40 DUP3 ADD SWAP1 POP PUSH2 0x2B7B PUSH0 DUP4 ADD DUP6 PUSH2 0x23D3 JUMP JUMPDEST PUSH2 0x2B88 PUSH1 0x20 DUP4 ADD DUP5 PUSH2 0x23D3 JUMP JUMPDEST SWAP4 SWAP3 POP POP POP JUMP JUMPDEST PUSH0 PUSH2 0x2B99 DUP3 PUSH2 0x23CA JUMP JUMPDEST SWAP2 POP PUSH2 0x2BA4 DUP4 PUSH2 0x23CA JUMP JUMPDEST SWAP3 POP DUP3 DUP3 MUL PUSH2 0x2BB2 DUP2 PUSH2 0x23CA JUMP JUMPDEST SWAP2 POP DUP3 DUP3 DIV DUP5 EQ DUP4 ISZERO OR PUSH2 0x2BC9 JUMPI PUSH2 0x2BC8 PUSH2 0x27C0 JUMP JUMPDEST JUMPDEST POP SWAP3 SWAP2 POP POP JUMP JUMPDEST PUSH32 0x4E6F742061206465706F7369746F722E00000000000000000000000000000000 PUSH0 DUP3 ADD MSTORE POP JUMP JUMPDEST PUSH0 PUSH2 0x2C04 PUSH1 0x10 DUP4 PUSH2 0x2652 JUMP JUMPDEST SWAP2 POP PUSH2 0x2C0F DUP3 PUSH2 0x2BD0 JUMP JUMPDEST PUSH1 0x20 DUP3 ADD SWAP1 POP SWAP2 SWAP1 POP JUMP JUMPDEST PUSH0 PUSH1 0x20 DUP3 ADD SWAP1 POP DUP2 DUP2 SUB PUSH0 DUP4 ADD MSTORE PUSH2 0x2C31 DUP2 PUSH2 0x2BF8 JUMP JUMPDEST SWAP1 POP SWAP2 SWAP1 POP JUMP JUMPDEST PUSH0 PUSH2 0x2C42 DUP3 PUSH2 0x23CA JUMP JUMPDEST SWAP2 POP PUSH32 0xFFFFFFFFFFFFFFFFFFFFFFFFFFFFFFFFFFFFFFFFFFFFFFFFFFFFFFFFFFFFFFFF DUP3 SUB PUSH2 0x2C74 JUMPI PUSH2 0x2C73 PUSH2 0x27C0 JUMP JUMPDEST JUMPDEST PUSH1 0x1 DUP3 ADD SWAP1 POP SWAP2 SWAP1 POP JUMP JUMPDEST PUSH32 0x4C6F616E20616D6F756E74206D7573742062652067726561746572207468616E PUSH0 DUP3 ADD MSTORE PUSH32 0x2030000000000000000000000000000000000000000000000000000000000000 PUSH1 0x20 DUP3 ADD MSTORE POP JUMP JUMPDEST PUSH0 PUSH2 0x2CD9 PUSH1 0x22 DUP4 PUSH2 0x2652 JUMP JUMPDEST SWAP2 POP PUSH2 0x2CE4 DUP3 PUSH2 0x2C7F JUMP JUMPDEST PUSH1 0x40 DUP3 ADD SWAP1 POP SWAP2 SWAP1 POP JUMP JUMPDEST PUSH0 PUSH1 0x20 DUP3 ADD SWAP1 POP DUP2 DUP2 SUB PUSH0 DUP4 ADD MSTORE PUSH2 0x2D06 DUP2 PUSH2 0x2CCD JUMP JUMPDEST SWAP1 POP SWAP2 SWAP1 POP JUMP JUMPDEST PUSH32 0x4E487B7100000000000000000000000000000000000000000000000000000000 PUSH0 MSTORE PUSH1 0x12 PUSH1 0x4 MSTORE PUSH1 0x24 PUSH0 REVERT JUMPDEST PUSH0 PUSH2 0x2D44 DUP3 PUSH2 0x23CA JUMP JUMPDEST SWAP2 POP PUSH2 0x2D4F DUP4 PUSH2 0x23CA JUMP JUMPDEST SWAP3 POP DUP3 PUSH2 0x2D5F JUMPI PUSH2 0x2D5E PUSH2 0x2D0D JUMP JUMPDEST JUMPDEST DUP3 DUP3 DIV SWAP1 POP SWAP3 SWAP2 POP POP JUMP JUMPDEST PUSH32 0x436F6C6C61746572616C206D7573742062652031353025206F66206C6F616E20 PUSH0 DUP3 ADD MSTORE PUSH32 0x616D6F756E740000000000000000000000000000000000000000000000000000 PUSH1 0x20 DUP3 ADD MSTORE POP JUMP JUMPDEST PUSH0 PUSH2 0x2DC4 PUSH1 0x26 DUP4 PUSH2 0x2652 JUMP JUMPDEST SWAP2 POP PUSH2 0x2DCF DUP3 PUSH2 0x2D6A JUMP JUMPDEST PUSH1 0x40 DUP3 ADD SWAP1 POP SWAP2 SWAP1 POP JUMP JUMPDEST PUSH0 PUSH1 0x20 DUP3 ADD SWAP1 POP DUP2 DUP2 SUB PUSH0 DUP4 ADD MSTORE PUSH2 0x2DF1 DUP2 PUSH2 0x2DB8 JUMP JUMPDEST SWAP1 POP SWAP2 SWAP1 POP JUMP JUMPDEST PUSH32 0x4C6F616E207472616E73666572206661696C6564000000000000000000000000 PUSH0 DUP3 ADD MSTORE POP JUMP JUMPDEST PUSH0 PUSH2 0x2E2C PUSH1 0x14 DUP4 PUSH2 0x2652 JUMP JUMPDEST SWAP2 POP PUSH2 0x2E37 DUP3 PUSH2 0x2DF8 JUMP JUMPDEST PUSH1 0x20 DUP3 ADD SWAP1 POP SWAP2 SWAP1 POP JUMP JUMPDEST PUSH0 PUSH1 0x20 DUP3 ADD SWAP1 POP DUP2 DUP2 SUB PUSH0 DUP4 ADD MSTORE PUSH2 0x2E59 DUP2 PUSH2 0x2E20 JUMP JUMPDEST SWAP1 POP SWAP2 SWAP1 POP JUMP JUMPDEST PUSH32 0x4E6F206C697175696469747920746F2061636372756520696E74657265737420 PUSH0 DUP3 ADD MSTORE PUSH32 0x6F6E000000000000000000000000000000000000000000000000000000000000 PUSH1 0x20 DUP3 ADD MSTORE POP JUMP JUMPDEST PUSH0 PUSH2 0x2EBA PUSH1 0x22 DUP4 PUSH2 0x2652 JUMP JUMPDEST SWAP2 POP PUSH2 0x2EC5 DUP3 PUSH2 0x2E60 JUMP JUMPDEST PUSH1 0x40 DUP3 ADD SWAP1 POP SWAP2 SWAP1 POP JUMP JUMPDEST PUSH0 PUSH1 0x20 DUP3 ADD SWAP1 POP DUP2 DUP2 SUB PUSH0 DUP4 ADD MSTORE PUSH2 0x2EE7 DUP2 PUSH2 0x2EAE JUMP JUMPDEST SWAP1 POP SWAP2 SWAP1 POP JUMP JUMPDEST PUSH32 0x4E6F7420796F7572206C6F616E00000000000000000000000000000000000000 PUSH0 DUP3 ADD MSTORE POP JUMP JUMPDEST PUSH0 PUSH2 0x2F22 PUSH1 0xD DUP4 PUSH2 0x2652 JUMP JUMPDEST SWAP2 POP PUSH2 0x2F2D DUP3 PUSH2 0x2EEE JUMP JUMPDEST PUSH1 0x20 DUP3 ADD SWAP1 POP SWAP2 SWAP1 POP JUMP JUMPDEST PUSH0 PUSH1 0x20 DUP3 ADD SWAP1 POP DUP2 DUP2 SUB PUSH0 DUP4 ADD MSTORE PUSH2 0x2F4F DUP2 PUSH2 0x2F16 JUMP JUMPDEST SWAP1 POP SWAP2 SWAP1 POP JUMP JUMPDEST PUSH32 0x4C6F616E206973206E6F74206163746976650000000000000000000000000000 PUSH0 DUP3 ADD MSTORE POP JUMP JUMPDEST PUSH0 PUSH2 0x2F8A PUSH1 0x12 DUP4 PUSH2 0x2652 JUMP JUMPDEST SWAP2 POP PUSH2 0x2F95 DUP3 PUSH2 0x2F56 JUMP JUMPDEST PUSH1 0x20 DUP3 ADD SWAP1 POP SWAP2 SWAP1 POP JUMP JUMPDEST PUSH0 PUSH1 0x20 DUP3 ADD SWAP1 POP DUP2 DUP2 SUB PUSH0 DUP4 ADD MSTORE PUSH2 0x2FB7 DUP2 PUSH2 0x2F7E JUMP JUMPDEST SWAP1 POP SWAP2 SWAP1 POP JUMP JUMPDEST PUSH32 0x4C6F616E20616C72656164792072657061696400000000000000000000000000 PUSH0 DUP3 ADD MSTORE POP JUMP JUMPDEST PUSH0 PUSH2 0x2FF2 PUSH1 0x13 DUP4 PUSH2 0x2652 JUMP JUMPDEST SWAP2 POP PUSH2 0x2FFD DUP3 PUSH2 0x2FBE JUMP JUMPDEST PUSH1 0x20 DUP3 ADD SWAP1 POP SWAP2 SWAP1 POP JUMP JUMPDEST PUSH0 PUSH1 0x20 DUP3 ADD SWAP1 POP DUP2 DUP2 SUB PUSH0 DUP4 ADD MSTORE PUSH2 0x301F DUP2 PUSH2 0x2FE6 JUMP JUMPDEST SWAP1 POP SWAP2 SWAP1 POP JUMP JUMPDEST PUSH32 0x496E73756666696369656E742072657061796D656E7420616D6F756E74000000 PUSH0 DUP3 ADD MSTORE POP JUMP JUMPDEST PUSH0 PUSH2 0x305A PUSH1 0x1D DUP4 PUSH2 0x2652 JUMP JUMPDEST SWAP2 POP PUSH2 0x3065 DUP3 PUSH2 0x3026 JUMP JUMPDEST PUSH1 0x20 DUP3 ADD SWAP1 POP SWAP2 SWAP1 POP JUMP JUMPDEST PUSH0 PUSH1 0x20 DUP3 ADD SWAP1 POP DUP2 DUP2 SUB PUSH0 DUP4 ADD MSTORE PUSH2 0x3087 DUP2 PUSH2 0x304E JUMP JUMPDEST SWAP1 POP SWAP2 SWAP1 POP JUMP JUMPDEST PUSH32 0x4E6F20636F6C6C61746572616C20746F2072657475726E000000000000000000 PUSH0 DUP3 ADD MSTORE POP JUMP JUMPDEST PUSH0 PUSH2 0x30C2 PUSH1 0x17 DUP4 PUSH2 0x2652 JUMP JUMPDEST SWAP2 POP PUSH2 0x30CD DUP3 PUSH2 0x308E JUMP JUMPDEST PUSH1 0x20 DUP3 ADD SWAP1 POP SWAP2 SWAP1 POP JUMP JUMPDEST PUSH0 PUSH1 0x20 DUP3 ADD SWAP1 POP DUP2 DUP2 SUB PUSH0 DUP4 ADD MSTORE PUSH2 0x30EF DUP2 PUSH2 0x30B6 JUMP JUMPDEST SWAP1 POP SWAP2 SWAP1 POP JUMP JUMPDEST PUSH32 0x4661696C656420746F2072657475726E20636F6C6C61746572616C0000000000 PUSH0 DUP3 ADD MSTORE POP JUMP JUMPDEST PUSH0 PUSH2 0x312A PUSH1 0x1B DUP4 PUSH2 0x2652 JUMP JUMPDEST SWAP2 POP PUSH2 0x3135 DUP3 PUSH2 0x30F6 JUMP JUMPDEST PUSH1 0x20 DUP3 ADD SWAP1 POP SWAP2 SWAP1 POP JUMP JUMPDEST PUSH0 PUSH1 0x20 DUP3 ADD SWAP1 POP DUP2 DUP2 SUB PUSH0 DUP4 ADD MSTORE PUSH2 0x3157 DUP2 PUSH2 0x311E JUMP JUMPDEST SWAP1 POP SWAP2 SWAP1 POP JUMP JUMPDEST PUSH32 0x4C6F616E20616D6F756E74206D757374206265203E2030000000000000000000 PUSH0 DUP3 ADD MSTORE POP JUMP JUMPDEST PUSH0 PUSH2 0x3192 PUSH1 0x17 DUP4 PUSH2 0x2652 JUMP JUMPDEST SWAP2 POP PUSH2 0x319D DUP3 PUSH2 0x315E JUMP JUMPDEST PUSH1 0x20 DUP3 ADD SWAP1 POP SWAP2 SWAP1 POP JUMP JUMPDEST PUSH0 PUSH1 0x20 DUP3 ADD SWAP1 POP DUP2 DUP2 SUB PUSH0 DUP4 ADD MSTORE PUSH2 0x31BF DUP2 PUSH2 0x3186 JUMP JUMPDEST SWAP1 POP SWAP2 SWAP1 POP JUMP JUMPDEST PUSH32 0x4C6F616E20646F6573206E6F74206578697374206F7220686173206E6F20616D PUSH0 DUP3 ADD MSTORE PUSH32 0x6F756E7400000000000000000000000000000000000000000000000000000000 PUSH1 0x20 DUP3 ADD MSTORE POP JUMP JUMPDEST PUSH0 PUSH2 0x3220 PUSH1 0x24 DUP4 PUSH2 0x2652 JUMP JUMPDEST SWAP2 POP PUSH2 0x322B DUP3 PUSH2 0x31C6 JUMP JUMPDEST PUSH1 0x40 DUP3 ADD SWAP1 POP SWAP2 SWAP1 POP JUMP JUMPDEST PUSH0 PUSH1 0x20 DUP3 ADD SWAP1 POP DUP2 DUP2 SUB PUSH0 DUP4 ADD MSTORE PUSH2 0x324D DUP2 PUSH2 0x3214 JUMP JUMPDEST SWAP1 POP SWAP2 SWAP1 POP JUMP JUMPDEST PUSH32 0x4E6F206665657320746F20646973747269627574650000000000000000000000 PUSH0 DUP3 ADD MSTORE POP JUMP JUMPDEST PUSH0 PUSH2 0x3288 PUSH1 0x15 DUP4 PUSH2 0x2652 JUMP JUMPDEST SWAP2 POP PUSH2 0x3293 DUP3 PUSH2 0x3254 JUMP JUMPDEST PUSH1 0x20 DUP3 ADD SWAP1 POP SWAP2 SWAP1 POP JUMP JUMPDEST PUSH0 PUSH1 0x20 DUP3 ADD SWAP1 POP DUP2 DUP2 SUB PUSH0 DUP4 ADD MSTORE PUSH2 0x32B5 DUP2 PUSH2 0x327C JUMP JUMPDEST SWAP1 POP SWAP2 SWAP1 POP JUMP JUMPDEST PUSH32 0x46656520646973747269627574696F6E206661696C6564000000000000000000 PUSH0 DUP3 ADD MSTORE POP JUMP JUMPDEST PUSH0 PUSH2 0x32F0 PUSH1 0x17 DUP4 PUSH2 0x2652 JUMP JUMPDEST SWAP2 POP PUSH2 0x32FB DUP3 PUSH2 0x32BC JUMP JUMPDEST PUSH1 0x20 DUP3 ADD SWAP1 POP SWAP2 SWAP1 POP JUMP JUMPDEST PUSH0 PUSH1 0x20 DUP3 ADD SWAP1 POP DUP2 DUP2 SUB PUSH0 DUP4 ADD MSTORE PUSH2 0x331D DUP2 PUSH2 0x32E4 JUMP JUMPDEST SWAP1 POP SWAP2 SWAP1 POP JUMP JUMPDEST PUSH32 0x4465706F73697420616D6F756E74206D75737420626520677265617465722074 PUSH0 DUP3 ADD MSTORE PUSH32 0x68616E2030000000000000000000000000000000000000000000000000000000 PUSH1 0x20 DUP3 ADD MSTORE POP JUMP JUMPDEST PUSH0 PUSH2 0x337E PUSH1 0x25 DUP4 PUSH2 0x2652 JUMP JUMPDEST SWAP2 POP PUSH2 0x3389 DUP3 PUSH2 0x3324 JUMP JUMPDEST PUSH1 0x40 DUP3 ADD SWAP1 POP SWAP2 SWAP1 POP JUMP JUMPDEST PUSH0 PUSH1 0x20 DUP3 ADD SWAP1 POP DUP2 DUP2 SUB PUSH0 DUP4 ADD MSTORE PUSH2 0x33AB DUP2 PUSH2 0x3372 JUMP JUMPDEST SWAP1 POP SWAP2 SWAP1 POP JUMP INVALID LOG2 PUSH5 0x6970667358 0x22 SLT KECCAK256 0xF9 PUSH22 0xF328FE62D5C14EE1C3826D85A537D33E4B08EB357D94 0xC6 TLOAD DUP15 0xFC 0xC9 PUSH25 0xB1ED64736F6C634300081A0033000000000000000000000000 "
				},
				"gasEstimates": {
					"creation": {
						"codeDepositCost": "2657600",
						"executionCost": "93473",
						"totalCost": "2751073"
					},
					"external": {
						"accrueInterest()": "infinite",
						"accruedReward()": "2537",
						"borrowings(address)": "2891",
						"calculateFeeShare(address)": "infinite",
						"calculateRepaymentAmount(uint256)": "infinite",
						"collaterals(address)": "2911",
						"contractFeeFromRepayment()": "437",
						"deposit()": "infinite",
						"depositors(uint256)": "5010",
						"deposits(address)": "2934",
						"distributeFees()": "infinite",
						"getBalances(address)": "infinite",
						"getCollateral(address)": "2940",
						"getContractBalance()": "402",
						"getLiquidityPool()": "2499",
						"getLiquidityPoolWithLoan()": "infinite",
						"getUserAccruedFees(address)": "infinite",
						"getUserBalance(address)": "infinite",
						"interestRate()": "2515",
						"interest_rate()": "2492",
						"isDepositor(address)": "infinite",
						"lastAccrualTimestamp()": "2536",
						"liquidate(address)": "infinite",
						"loanCounter()": "2471",
						"loans(uint256)": "infinite",
						"owner()": "2553",
						"repayLoan(uint256)": "infinite",
						"requiredCollateral(uint256)": "infinite",
						"requiredRepaymentAmount(uint256)": "infinite",
						"takeLoan(uint256,uint256)": "infinite",
						"totalLiquidity()": "2472",
						"userLoans(address,uint256)": "infinite",
						"withdraw(uint256)": "infinite"
					},
					"internal": {
						"findDepositorIndex(address)": "infinite"
					}
				},
				"methodIdentifiers": {
					"accrueInterest()": "a6afed95",
					"accruedReward()": "8393ea5f",
					"borrowings(address)": "96f159ba",
					"calculateFeeShare(address)": "b3f54444",
					"calculateRepaymentAmount(uint256)": "b1197239",
					"collaterals(address)": "eeb97d3b",
					"contractFeeFromRepayment()": "4ba5e2ce",
					"deposit()": "d0e30db0",
					"depositors(uint256)": "e4b2fb79",
					"deposits(address)": "fc7e286d",
					"distributeFees()": "bb57ad20",
					"getBalances(address)": "c84aae17",
					"getCollateral(address)": "9b56d6c9",
					"getContractBalance()": "6f9fb98a",
					"getLiquidityPool()": "95ddbe89",
					"getLiquidityPoolWithLoan()": "560c88ed",
					"getUserAccruedFees(address)": "34f93778",
					"getUserBalance(address)": "47734892",
					"interestRate()": "7c3a00fd",
					"interest_rate()": "cbb3d808",
					"isDepositor(address)": "2f70d1ba",
					"lastAccrualTimestamp()": "c0789dcb",
					"liquidate(address)": "2f865568",
					"loanCounter()": "34d9289e",
					"loans(uint256)": "e1ec3c68",
					"owner()": "8da5cb5b",
					"repayLoan(uint256)": "ab7b1c89",
					"requiredCollateral(uint256)": "abb7bc4a",
					"requiredRepaymentAmount(uint256)": "e59c20d0",
					"takeLoan(uint256,uint256)": "a3183125",
					"totalLiquidity()": "15770f92",
					"userLoans(address,uint256)": "d8bad5bd",
					"withdraw(uint256)": "2e1a7d4d"
				}
			},
			"storageLayout": {
				"storage": [
					{
						"astId": 5,
						"contract": "w9_liquidity_lending_pool_hw.sol:cw9_3_MockLendingPool",
						"label": "collaterals",
						"offset": 0,
						"slot": "0",
						"type": "t_mapping(t_address,t_uint256)"
					},
					{
						"astId": 7,
						"contract": "w9_liquidity_lending_pool_hw.sol:cw9_3_MockLendingPool",
						"label": "owner",
						"offset": 0,
						"slot": "1",
						"type": "t_address"
					},
					{
						"astId": 11,
						"contract": "w9_liquidity_lending_pool_hw.sol:cw9_3_MockLendingPool",
						"label": "deposits",
						"offset": 0,
						"slot": "2",
						"type": "t_mapping(t_address,t_uint256)"
					},
					{
						"astId": 15,
						"contract": "w9_liquidity_lending_pool_hw.sol:cw9_3_MockLendingPool",
						"label": "borrowings",
						"offset": 0,
						"slot": "3",
						"type": "t_mapping(t_address,t_uint256)"
					},
					{
						"astId": 17,
						"contract": "w9_liquidity_lending_pool_hw.sol:cw9_3_MockLendingPool",
						"label": "totalLiquidity",
						"offset": 0,
						"slot": "4",
						"type": "t_uint256"
					},
					{
						"astId": 20,
						"contract": "w9_liquidity_lending_pool_hw.sol:cw9_3_MockLendingPool",
						"label": "interestRate",
						"offset": 0,
						"slot": "5",
						"type": "t_uint256"
					},
					{
						"astId": 23,
						"contract": "w9_liquidity_lending_pool_hw.sol:cw9_3_MockLendingPool",
						"label": "interest_rate",
						"offset": 0,
						"slot": "6",
						"type": "t_uint256"
					},
					{
						"astId": 25,
						"contract": "w9_liquidity_lending_pool_hw.sol:cw9_3_MockLendingPool",
						"label": "loanCounter",
						"offset": 0,
						"slot": "7",
						"type": "t_uint256"
					},
					{
						"astId": 30,
						"contract": "w9_liquidity_lending_pool_hw.sol:cw9_3_MockLendingPool",
						"label": "loans",
						"offset": 0,
						"slot": "8",
						"type": "t_mapping(t_uint256,t_struct(Loan)60_storage)"
					},
					{
						"astId": 35,
						"contract": "w9_liquidity_lending_pool_hw.sol:cw9_3_MockLendingPool",
						"label": "userLoans",
						"offset": 0,
						"slot": "9",
						"type": "t_mapping(t_address,t_array(t_uint256)dyn_storage)"
					},
					{
						"astId": 38,
						"contract": "w9_liquidity_lending_pool_hw.sol:cw9_3_MockLendingPool",
						"label": "depositors",
						"offset": 0,
						"slot": "10",
						"type": "t_array(t_address)dyn_storage"
					},
					{
						"astId": 40,
						"contract": "w9_liquidity_lending_pool_hw.sol:cw9_3_MockLendingPool",
						"label": "lastAccrualTimestamp",
						"offset": 0,
						"slot": "11",
						"type": "t_uint256"
					},
					{
						"astId": 42,
						"contract": "w9_liquidity_lending_pool_hw.sol:cw9_3_MockLendingPool",
						"label": "accruedReward",
						"offset": 0,
						"slot": "12",
						"type": "t_uint256"
					}
				],
				"types": {
					"t_address": {
						"encoding": "inplace",
						"label": "address",
						"numberOfBytes": "20"
					},
					"t_array(t_address)dyn_storage": {
						"base": "t_address",
						"encoding": "dynamic_array",
						"label": "address[]",
						"numberOfBytes": "32"
					},
					"t_array(t_uint256)dyn_storage": {
						"base": "t_uint256",
						"encoding": "dynamic_array",
						"label": "uint256[]",
						"numberOfBytes": "32"
					},
					"t_bool": {
						"encoding": "inplace",
						"label": "bool",
						"numberOfBytes": "1"
					},
					"t_mapping(t_address,t_array(t_uint256)dyn_storage)": {
						"encoding": "mapping",
						"key": "t_address",
						"label": "mapping(address => uint256[])",
						"numberOfBytes": "32",
						"value": "t_array(t_uint256)dyn_storage"
					},
					"t_mapping(t_address,t_uint256)": {
						"encoding": "mapping",
						"key": "t_address",
						"label": "mapping(address => uint256)",
						"numberOfBytes": "32",
						"value": "t_uint256"
					},
					"t_mapping(t_uint256,t_struct(Loan)60_storage)": {
						"encoding": "mapping",
						"key": "t_uint256",
						"label": "mapping(uint256 => struct cw9_3_MockLendingPool.Loan)",
						"numberOfBytes": "32",
						"value": "t_struct(Loan)60_storage"
					},
					"t_struct(Loan)60_storage": {
						"encoding": "inplace",
						"label": "struct cw9_3_MockLendingPool.Loan",
						"members": [
							{
								"astId": 47,
								"contract": "w9_liquidity_lending_pool_hw.sol:cw9_3_MockLendingPool",
								"label": "borrower",
								"offset": 0,
								"slot": "0",
								"type": "t_address"
							},
							{
								"astId": 49,
								"contract": "w9_liquidity_lending_pool_hw.sol:cw9_3_MockLendingPool",
								"label": "loanAmount",
								"offset": 0,
								"slot": "1",
								"type": "t_uint256"
							},
							{
								"astId": 51,
								"contract": "w9_liquidity_lending_pool_hw.sol:cw9_3_MockLendingPool",
								"label": "interestRate",
								"offset": 0,
								"slot": "2",
								"type": "t_uint256"
							},
							{
								"astId": 53,
								"contract": "w9_liquidity_lending_pool_hw.sol:cw9_3_MockLendingPool",
								"label": "repaymentAmount",
								"offset": 0,
								"slot": "3",
								"type": "t_uint256"
							},
							{
								"astId": 55,
								"contract": "w9_liquidity_lending_pool_hw.sol:cw9_3_MockLendingPool",
								"label": "repaymentTimestamp",
								"offset": 0,
								"slot": "4",
								"type": "t_uint256"
							},
							{
								"astId": 57,
								"contract": "w9_liquidity_lending_pool_hw.sol:cw9_3_MockLendingPool",
								"label": "isRepaid",
								"offset": 0,
								"slot": "5",
								"type": "t_bool"
							},
							{
								"astId": 59,
								"contract": "w9_liquidity_lending_pool_hw.sol:cw9_3_MockLendingPool",
								"label": "isActive",
								"offset": 1,
								"slot": "5",
								"type": "t_bool"
							}
						],
						"numberOfBytes": "192"
					},
					"t_uint256": {
						"encoding": "inplace",
						"label": "uint256",
						"numberOfBytes": "32"
					}
				}
			},
			"userdoc": {
				"kind": "user",
				"methods": {},
				"version": 1
			}
		}
	}
}