{
	"w9_liquidity_lending_pool_hw.sol": {
		"cw9_3_MockLendingPool": {
			"abi": [
				{
					"inputs": [
						{
							"internalType": "uint256",
							"name": "_interest_rate",
							"type": "uint256"
						}
					],
					"stateMutability": "nonpayable",
					"type": "constructor"
				},
				{
					"anonymous": false,
					"inputs": [
						{
							"indexed": true,
							"internalType": "address",
							"name": "borrower",
							"type": "address"
						},
						{
							"indexed": false,
							"internalType": "uint256",
							"name": "amount",
							"type": "uint256"
						},
						{
							"indexed": false,
							"internalType": "uint256",
							"name": "collateral",
							"type": "uint256"
						}
					],
					"name": "Borrow",
					"type": "event"
				},
				{
					"anonymous": false,
					"inputs": [
						{
							"indexed": true,
							"internalType": "address",
							"name": "lender",
							"type": "address"
						},
						{
							"indexed": false,
							"internalType": "uint256",
							"name": "amount",
							"type": "uint256"
						}
					],
					"name": "Deposit",
					"type": "event"
				},
				{
					"anonymous": false,
					"inputs": [
						{
							"indexed": true,
							"internalType": "address",
							"name": "distributedTo",
							"type": "address"
						},
						{
							"indexed": false,
							"internalType": "uint256",
							"name": "amount",
							"type": "uint256"
						}
					],
					"name": "FeeDistributed",
					"type": "event"
				},
				{
					"anonymous": false,
					"inputs": [
						{
							"indexed": false,
							"internalType": "uint256",
							"name": "interestAmount",
							"type": "uint256"
						},
						{
							"indexed": false,
							"internalType": "uint256",
							"name": "newTotalLiquidity",
							"type": "uint256"
						},
						{
							"indexed": false,
							"internalType": "uint256",
							"name": "timestamp",
							"type": "uint256"
						}
					],
					"name": "InterestAccrued",
					"type": "event"
				},
				{
					"anonymous": false,
					"inputs": [
						{
							"indexed": true,
							"internalType": "address",
							"name": "borrower",
							"type": "address"
						},
						{
							"indexed": false,
							"internalType": "uint256",
							"name": "collateralSeized",
							"type": "uint256"
						},
						{
							"indexed": false,
							"internalType": "uint256",
							"name": "debtCleared",
							"type": "uint256"
						}
					],
					"name": "Liquidate",
					"type": "event"
				},
				{
					"anonymous": false,
					"inputs": [
						{
							"indexed": true,
							"internalType": "address",
							"name": "borrower",
							"type": "address"
						},
						{
							"indexed": false,
							"internalType": "uint256",
							"name": "loanId",
							"type": "uint256"
						},
						{
							"indexed": false,
							"internalType": "uint256",
							"name": "amount",
							"type": "uint256"
						}
					],
					"name": "LoanRepaid",
					"type": "event"
				},
				{
					"anonymous": false,
					"inputs": [
						{
							"indexed": true,
							"internalType": "address",
							"name": "borrower",
							"type": "address"
						},
						{
							"indexed": false,
							"internalType": "uint256",
							"name": "loanCounter",
							"type": "uint256"
						},
						{
							"indexed": false,
							"internalType": "uint256",
							"name": "amount",
							"type": "uint256"
						}
					],
					"name": "LoanTaken",
					"type": "event"
				},
				{
					"anonymous": false,
					"inputs": [
						{
							"indexed": true,
							"internalType": "address",
							"name": "borrower",
							"type": "address"
						},
						{
							"indexed": false,
							"internalType": "uint256",
							"name": "amount",
							"type": "uint256"
						},
						{
							"indexed": false,
							"internalType": "uint256",
							"name": "collateralReturned",
							"type": "uint256"
						}
					],
					"name": "Repay",
					"type": "event"
				},
				{
					"anonymous": false,
					"inputs": [
						{
							"indexed": true,
							"internalType": "address",
							"name": "withdrawer",
							"type": "address"
						},
						{
							"indexed": false,
							"internalType": "uint256",
							"name": "withdrawAmount",
							"type": "uint256"
						}
					],
					"name": "Withdrawal",
					"type": "event"
				},
				{
					"inputs": [],
					"name": "accrueInterest",
					"outputs": [],
					"stateMutability": "nonpayable",
					"type": "function"
				},
				{
					"inputs": [],
					"name": "accruedReward",
					"outputs": [
						{
							"internalType": "uint256",
							"name": "",
							"type": "uint256"
						}
					],
					"stateMutability": "view",
					"type": "function"
				},
				{
					"inputs": [
						{
							"internalType": "uint256",
							"name": "amount",
							"type": "uint256"
						}
					],
					"name": "borrow",
					"outputs": [],
					"stateMutability": "payable",
					"type": "function"
				},
				{
					"inputs": [
						{
							"internalType": "address",
							"name": "",
							"type": "address"
						}
					],
					"name": "borrowings",
					"outputs": [
						{
							"internalType": "uint256",
							"name": "",
							"type": "uint256"
						}
					],
					"stateMutability": "view",
					"type": "function"
				},
				{
					"inputs": [
						{
							"internalType": "address",
							"name": "user",
							"type": "address"
						}
					],
					"name": "calculateFeeShare",
					"outputs": [
						{
							"internalType": "uint256",
							"name": "",
							"type": "uint256"
						}
					],
					"stateMutability": "view",
					"type": "function"
				},
				{
					"inputs": [
						{
							"internalType": "uint256",
							"name": "loanId",
							"type": "uint256"
						}
					],
					"name": "calculateRepaymentAmount",
					"outputs": [
						{
							"internalType": "uint256",
							"name": "",
							"type": "uint256"
						}
					],
					"stateMutability": "view",
					"type": "function"
				},
				{
					"inputs": [
						{
							"internalType": "address",
							"name": "",
							"type": "address"
						}
					],
					"name": "collaterals",
					"outputs": [
						{
							"internalType": "uint256",
							"name": "",
							"type": "uint256"
						}
					],
					"stateMutability": "view",
					"type": "function"
				},
				{
					"inputs": [],
					"name": "contractFeeFromRepayment",
					"outputs": [
						{
							"internalType": "uint256",
							"name": "",
							"type": "uint256"
						}
					],
					"stateMutability": "view",
					"type": "function"
				},
				{
					"inputs": [],
					"name": "deposit",
					"outputs": [],
					"stateMutability": "payable",
					"type": "function"
				},
				{
					"inputs": [
						{
							"internalType": "uint256",
							"name": "",
							"type": "uint256"
						}
					],
					"name": "depositors",
					"outputs": [
						{
							"internalType": "address",
							"name": "",
							"type": "address"
						}
					],
					"stateMutability": "view",
					"type": "function"
				},
				{
					"inputs": [
						{
							"internalType": "address",
							"name": "",
							"type": "address"
						}
					],
					"name": "deposits",
					"outputs": [
						{
							"internalType": "uint256",
							"name": "",
							"type": "uint256"
						}
					],
					"stateMutability": "view",
					"type": "function"
				},
				{
					"inputs": [],
					"name": "distributeFees",
					"outputs": [],
					"stateMutability": "payable",
					"type": "function"
				},
				{
					"inputs": [
						{
							"internalType": "address",
							"name": "account",
							"type": "address"
						}
					],
					"name": "getBalances",
					"outputs": [
						{
							"internalType": "uint256",
							"name": "depositBalance",
							"type": "uint256"
						},
						{
							"internalType": "uint256",
							"name": "borrowBalance",
							"type": "uint256"
						},
						{
							"internalType": "uint256",
							"name": "collateralBalance",
							"type": "uint256"
						}
					],
					"stateMutability": "view",
					"type": "function"
				},
				{
					"inputs": [
						{
							"internalType": "address",
							"name": "borrower",
							"type": "address"
						}
					],
					"name": "getCollateral",
					"outputs": [
						{
							"internalType": "uint256",
							"name": "",
							"type": "uint256"
						}
					],
					"stateMutability": "view",
					"type": "function"
				},
				{
					"inputs": [],
					"name": "getContractBalance",
					"outputs": [
						{
							"internalType": "uint256",
							"name": "",
							"type": "uint256"
						}
					],
					"stateMutability": "view",
					"type": "function"
				},
				{
					"inputs": [],
					"name": "getLiquidityPool",
					"outputs": [
						{
							"internalType": "uint256",
							"name": "",
							"type": "uint256"
						}
					],
					"stateMutability": "view",
					"type": "function"
				},
				{
					"inputs": [],
					"name": "getLiquidityPoolWithLoan",
					"outputs": [
						{
							"internalType": "uint256",
							"name": "",
							"type": "uint256"
						}
					],
					"stateMutability": "view",
					"type": "function"
				},
				{
					"inputs": [
						{
							"internalType": "address",
							"name": "user",
							"type": "address"
						}
					],
					"name": "getUserAccruedFees",
					"outputs": [
						{
							"internalType": "uint256",
							"name": "",
							"type": "uint256"
						}
					],
					"stateMutability": "view",
					"type": "function"
				},
				{
					"inputs": [
						{
							"internalType": "address",
							"name": "a",
							"type": "address"
						}
					],
					"name": "getUserBalance",
					"outputs": [
						{
							"internalType": "uint256",
							"name": "",
							"type": "uint256"
						}
					],
					"stateMutability": "view",
					"type": "function"
				},
				{
					"inputs": [],
					"name": "interestRate",
					"outputs": [
						{
							"internalType": "uint256",
							"name": "",
							"type": "uint256"
						}
					],
					"stateMutability": "view",
					"type": "function"
				},
				{
					"inputs": [
						{
							"internalType": "address",
							"name": "a",
							"type": "address"
						}
					],
					"name": "isDepositor",
					"outputs": [
						{
							"internalType": "bool",
							"name": "",
							"type": "bool"
						}
					],
					"stateMutability": "view",
					"type": "function"
				},
				{
					"inputs": [],
					"name": "lastAccrualTimestamp",
					"outputs": [
						{
							"internalType": "uint256",
							"name": "",
							"type": "uint256"
						}
					],
					"stateMutability": "view",
					"type": "function"
				},
				{
					"inputs": [
						{
							"internalType": "address",
							"name": "borrower",
							"type": "address"
						}
					],
					"name": "liquidate",
					"outputs": [],
					"stateMutability": "nonpayable",
					"type": "function"
				},
				{
					"inputs": [],
					"name": "loanCounter",
					"outputs": [
						{
							"internalType": "uint256",
							"name": "",
							"type": "uint256"
						}
					],
					"stateMutability": "view",
					"type": "function"
				},
				{
					"inputs": [
						{
							"internalType": "uint256",
							"name": "",
							"type": "uint256"
						}
					],
					"name": "loans",
					"outputs": [
						{
							"internalType": "address",
							"name": "borrower",
							"type": "address"
						},
						{
							"internalType": "uint256",
							"name": "loanAmount",
							"type": "uint256"
						},
						{
							"internalType": "uint256",
							"name": "interestRate",
							"type": "uint256"
						},
						{
							"internalType": "uint256",
							"name": "repaymentAmount",
							"type": "uint256"
						},
						{
							"internalType": "uint256",
							"name": "repaymentTimestamp",
							"type": "uint256"
						},
						{
							"internalType": "bool",
							"name": "isRepaid",
							"type": "bool"
						},
						{
							"internalType": "bool",
							"name": "isActive",
							"type": "bool"
						}
					],
					"stateMutability": "view",
					"type": "function"
				},
				{
					"inputs": [],
					"name": "owner",
					"outputs": [
						{
							"internalType": "address",
							"name": "",
							"type": "address"
						}
					],
					"stateMutability": "view",
					"type": "function"
				},
				{
					"inputs": [],
					"name": "repay",
					"outputs": [],
					"stateMutability": "payable",
					"type": "function"
				},
				{
					"inputs": [
						{
							"internalType": "uint256",
							"name": "loanId",
							"type": "uint256"
						}
					],
					"name": "repayLoan",
					"outputs": [],
					"stateMutability": "payable",
					"type": "function"
				},
				{
					"inputs": [
						{
							"internalType": "uint256",
							"name": "loan",
							"type": "uint256"
						}
					],
					"name": "requiredCollateral",
					"outputs": [
						{
							"internalType": "uint256",
							"name": "",
							"type": "uint256"
						}
					],
					"stateMutability": "pure",
					"type": "function"
				},
				{
					"inputs": [
						{
							"internalType": "uint256",
							"name": "loan",
							"type": "uint256"
						}
					],
					"name": "requiredRepaymentAmount",
					"outputs": [
						{
							"internalType": "uint256",
							"name": "",
							"type": "uint256"
						}
					],
					"stateMutability": "view",
					"type": "function"
				},
				{
					"inputs": [
						{
							"internalType": "uint256",
							"name": "amount",
							"type": "uint256"
						},
						{
							"internalType": "uint256",
							"name": "loan_duration",
							"type": "uint256"
						}
					],
					"name": "takeLoan",
					"outputs": [],
					"stateMutability": "payable",
					"type": "function"
				},
				{
					"inputs": [],
					"name": "totalLiquidity",
					"outputs": [
						{
							"internalType": "uint256",
							"name": "",
							"type": "uint256"
						}
					],
					"stateMutability": "view",
					"type": "function"
				},
				{
					"inputs": [
						{
							"internalType": "address",
							"name": "",
							"type": "address"
						},
						{
							"internalType": "uint256",
							"name": "",
							"type": "uint256"
						}
					],
					"name": "userLoans",
					"outputs": [
						{
							"internalType": "uint256",
							"name": "",
							"type": "uint256"
						}
					],
					"stateMutability": "view",
					"type": "function"
				},
				{
					"inputs": [
						{
							"internalType": "uint256",
							"name": "withdrawAmount",
							"type": "uint256"
						}
					],
					"name": "withdraw",
					"outputs": [],
					"stateMutability": "payable",
					"type": "function"
				},
				{
					"stateMutability": "payable",
					"type": "receive"
				}
			],
			"devdoc": {
				"kind": "dev",
				"methods": {},
				"version": 1
			},
			"evm": {
				"assembly": "    /* \"w9_liquidity_lending_pool_hw.sol\":58:12980  contract cw9_3_MockLendingPool {... */\n  mstore(0x40, 0x80)\n    /* \"w9_liquidity_lending_pool_hw.sol\":527:528  5 */\n  0x05\n    /* \"w9_liquidity_lending_pool_hw.sol\":497:528  uint256 public interestRate = 5 */\n  0x06\n  sstore\n    /* \"w9_liquidity_lending_pool_hw.sol\":1206:1365  constructor(uint256 _interest_rate) {... */\n  callvalue\n  dup1\n  iszero\n  tag_1\n  jumpi\n  0x00\n  dup1\n  revert\ntag_1:\n  pop\n  mload(0x40)\n  sub(codesize, bytecodeSize)\n  dup1\n  bytecodeSize\n  dup4\n  codecopy\n  dup2\n  dup2\n  add\n  0x40\n  mstore\n  dup2\n  add\n  swap1\n  tag_2\n  swap2\n  swap1\n  tag_3\n  jump\t// in\ntag_2:\n    /* \"w9_liquidity_lending_pool_hw.sol\":1260:1270  msg.sender */\n  caller\n    /* \"w9_liquidity_lending_pool_hw.sol\":1252:1257  owner */\n  0x01\n  0x00\n    /* \"w9_liquidity_lending_pool_hw.sol\":1252:1270  owner = msg.sender */\n  0x0100\n  exp\n  dup2\n  sload\n  dup2\n  0xffffffffffffffffffffffffffffffffffffffff\n  mul\n  not\n  and\n  swap1\n  dup4\n  0xffffffffffffffffffffffffffffffffffffffff\n  and\n  mul\n  or\n  swap1\n  sstore\n  pop\n    /* \"w9_liquidity_lending_pool_hw.sol\":1296:1310  _interest_rate */\n  dup1\n    /* \"w9_liquidity_lending_pool_hw.sol\":1280:1293  interest_rate */\n  0x02\n    /* \"w9_liquidity_lending_pool_hw.sol\":1280:1310  interest_rate = _interest_rate */\n  dup2\n  swap1\n  sstore\n  pop\n    /* \"w9_liquidity_lending_pool_hw.sol\":1343:1358  block.timestamp */\n  timestamp\n    /* \"w9_liquidity_lending_pool_hw.sol\":1320:1340  lastAccrualTimestamp */\n  0x0b\n    /* \"w9_liquidity_lending_pool_hw.sol\":1320:1358  lastAccrualTimestamp = block.timestamp */\n  dup2\n  swap1\n  sstore\n  pop\n    /* \"w9_liquidity_lending_pool_hw.sol\":1206:1365  constructor(uint256 _interest_rate) {... */\n  pop\n    /* \"w9_liquidity_lending_pool_hw.sol\":58:12980  contract cw9_3_MockLendingPool {... */\n  jump(tag_6)\n    /* \"#utility.yul\":88:205   */\ntag_8:\n    /* \"#utility.yul\":197:198   */\n  0x00\n    /* \"#utility.yul\":194:195   */\n  dup1\n    /* \"#utility.yul\":187:199   */\n  revert\n    /* \"#utility.yul\":334:411   */\ntag_10:\n    /* \"#utility.yul\":371:378   */\n  0x00\n    /* \"#utility.yul\":400:405   */\n  dup2\n    /* \"#utility.yul\":389:405   */\n  swap1\n  pop\n    /* \"#utility.yul\":334:411   */\n  swap2\n  swap1\n  pop\n  jump\t// out\n    /* \"#utility.yul\":417:539   */\ntag_11:\n    /* \"#utility.yul\":490:514   */\n  tag_19\n    /* \"#utility.yul\":508:513   */\n  dup2\n    /* \"#utility.yul\":490:514   */\n  tag_10\n  jump\t// in\ntag_19:\n    /* \"#utility.yul\":483:488   */\n  dup2\n    /* \"#utility.yul\":480:515   */\n  eq\n    /* \"#utility.yul\":470:533   */\n  tag_20\n  jumpi\n    /* \"#utility.yul\":529:530   */\n  0x00\n    /* \"#utility.yul\":526:527   */\n  dup1\n    /* \"#utility.yul\":519:531   */\n  revert\n    /* \"#utility.yul\":470:533   */\ntag_20:\n    /* \"#utility.yul\":417:539   */\n  pop\n  jump\t// out\n    /* \"#utility.yul\":545:688   */\ntag_12:\n    /* \"#utility.yul\":602:607   */\n  0x00\n    /* \"#utility.yul\":633:639   */\n  dup2\n    /* \"#utility.yul\":627:640   */\n  mload\n    /* \"#utility.yul\":618:640   */\n  swap1\n  pop\n    /* \"#utility.yul\":649:682   */\n  tag_22\n    /* \"#utility.yul\":676:681   */\n  dup2\n    /* \"#utility.yul\":649:682   */\n  tag_11\n  jump\t// in\ntag_22:\n    /* \"#utility.yul\":545:688   */\n  swap3\n  swap2\n  pop\n  pop\n  jump\t// out\n    /* \"#utility.yul\":694:1045   */\ntag_3:\n    /* \"#utility.yul\":764:770   */\n  0x00\n    /* \"#utility.yul\":813:815   */\n  0x20\n    /* \"#utility.yul\":801:810   */\n  dup3\n    /* \"#utility.yul\":792:799   */\n  dup5\n    /* \"#utility.yul\":788:811   */\n  sub\n    /* \"#utility.yul\":784:816   */\n  slt\n    /* \"#utility.yul\":781:900   */\n  iszero\n  tag_24\n  jumpi\n    /* \"#utility.yul\":819:898   */\n  tag_25\n  tag_8\n  jump\t// in\ntag_25:\n    /* \"#utility.yul\":781:900   */\ntag_24:\n    /* \"#utility.yul\":939:940   */\n  0x00\n    /* \"#utility.yul\":964:1028   */\n  tag_26\n    /* \"#utility.yul\":1020:1027   */\n  dup5\n    /* \"#utility.yul\":1011:1017   */\n  dup3\n    /* \"#utility.yul\":1000:1009   */\n  dup6\n    /* \"#utility.yul\":996:1018   */\n  add\n    /* \"#utility.yul\":964:1028   */\n  tag_12\n  jump\t// in\ntag_26:\n    /* \"#utility.yul\":954:1028   */\n  swap2\n  pop\n    /* \"#utility.yul\":910:1038   */\n  pop\n    /* \"#utility.yul\":694:1045   */\n  swap3\n  swap2\n  pop\n  pop\n  jump\t// out\n    /* \"w9_liquidity_lending_pool_hw.sol\":58:12980  contract cw9_3_MockLendingPool {... */\ntag_6:\n  dataSize(sub_0)\n  dup1\n  dataOffset(sub_0)\n  0x00\n  codecopy\n  0x00\n  return\nstop\n\nsub_0: assembly {\n        /* \"w9_liquidity_lending_pool_hw.sol\":58:12980  contract cw9_3_MockLendingPool {... */\n      mstore(0x40, 0x80)\n      jumpi(tag_1, lt(calldatasize, 0x04))\n      shr(0xe0, calldataload(0x00))\n      dup1\n      0xa3183125\n      gt\n      tag_37\n      jumpi\n      dup1\n      0xc5ebeaec\n      gt\n      tag_38\n      jumpi\n      dup1\n      0xe1ec3c68\n      gt\n      tag_39\n      jumpi\n      dup1\n      0xe1ec3c68\n      eq\n      tag_32\n      jumpi\n      dup1\n      0xe4b2fb79\n      eq\n      tag_33\n      jumpi\n      dup1\n      0xe59c20d0\n      eq\n      tag_34\n      jumpi\n      dup1\n      0xeeb97d3b\n      eq\n      tag_35\n      jumpi\n      dup1\n      0xfc7e286d\n      eq\n      tag_36\n      jumpi\n      jump(tag_2)\n    tag_39:\n      dup1\n      0xc5ebeaec\n      eq\n      tag_28\n      jumpi\n      dup1\n      0xc84aae17\n      eq\n      tag_29\n      jumpi\n      dup1\n      0xd0e30db0\n      eq\n      tag_30\n      jumpi\n      dup1\n      0xd8bad5bd\n      eq\n      tag_31\n      jumpi\n      jump(tag_2)\n    tag_38:\n      dup1\n      0xb1197239\n      gt\n      tag_40\n      jumpi\n      dup1\n      0xb1197239\n      eq\n      tag_24\n      jumpi\n      dup1\n      0xb3f54444\n      eq\n      tag_25\n      jumpi\n      dup1\n      0xbb57ad20\n      eq\n      tag_26\n      jumpi\n      dup1\n      0xc0789dcb\n      eq\n      tag_27\n      jumpi\n      jump(tag_2)\n    tag_40:\n      dup1\n      0xa3183125\n      eq\n      tag_20\n      jumpi\n      dup1\n      0xa6afed95\n      eq\n      tag_21\n      jumpi\n      dup1\n      0xab7b1c89\n      eq\n      tag_22\n      jumpi\n      dup1\n      0xabb7bc4a\n      eq\n      tag_23\n      jumpi\n      jump(tag_2)\n    tag_37:\n      dup1\n      0x4ba5e2ce\n      gt\n      tag_41\n      jumpi\n      dup1\n      0x8393ea5f\n      gt\n      tag_42\n      jumpi\n      dup1\n      0x8393ea5f\n      eq\n      tag_15\n      jumpi\n      dup1\n      0x8da5cb5b\n      eq\n      tag_16\n      jumpi\n      dup1\n      0x95ddbe89\n      eq\n      tag_17\n      jumpi\n      dup1\n      0x96f159ba\n      eq\n      tag_18\n      jumpi\n      dup1\n      0x9b56d6c9\n      eq\n      tag_19\n      jumpi\n      jump(tag_2)\n    tag_42:\n      dup1\n      0x4ba5e2ce\n      eq\n      tag_11\n      jumpi\n      dup1\n      0x560c88ed\n      eq\n      tag_12\n      jumpi\n      dup1\n      0x6f9fb98a\n      eq\n      tag_13\n      jumpi\n      dup1\n      0x7c3a00fd\n      eq\n      tag_14\n      jumpi\n      jump(tag_2)\n    tag_41:\n      dup1\n      0x34d9289e\n      gt\n      tag_43\n      jumpi\n      dup1\n      0x34d9289e\n      eq\n      tag_7\n      jumpi\n      dup1\n      0x34f93778\n      eq\n      tag_8\n      jumpi\n      dup1\n      0x402d8883\n      eq\n      tag_9\n      jumpi\n      dup1\n      0x47734892\n      eq\n      tag_10\n      jumpi\n      jump(tag_2)\n    tag_43:\n      dup1\n      0x15770f92\n      eq\n      tag_3\n      jumpi\n      dup1\n      0x2e1a7d4d\n      eq\n      tag_4\n      jumpi\n      dup1\n      0x2f70d1ba\n      eq\n      tag_5\n      jumpi\n      dup1\n      0x2f865568\n      eq\n      tag_6\n      jumpi\n      jump(tag_2)\n    tag_1:\n      jumpi(tag_2, calldatasize)\n      stop\n    tag_2:\n      0x00\n      dup1\n      revert\n        /* \"w9_liquidity_lending_pool_hw.sol\":430:459  uint256 public totalLiquidity */\n    tag_3:\n      callvalue\n      dup1\n      iszero\n      tag_46\n      jumpi\n      0x00\n      dup1\n      revert\n    tag_46:\n      pop\n      tag_47\n      tag_48\n      jump\t// in\n    tag_47:\n      mload(0x40)\n      tag_49\n      swap2\n      swap1\n      tag_50\n      jump\t// in\n    tag_49:\n      mload(0x40)\n      dup1\n      swap2\n      sub\n      swap1\n      return\n        /* \"w9_liquidity_lending_pool_hw.sol\":3060:4057  function withdraw(uint256 withdrawAmount) external payable{... */\n    tag_4:\n      tag_51\n      0x04\n      dup1\n      calldatasize\n      sub\n      dup2\n      add\n      swap1\n      tag_52\n      swap2\n      swap1\n      tag_53\n      jump\t// in\n    tag_52:\n      tag_54\n      jump\t// in\n    tag_51:\n      stop\n        /* \"w9_liquidity_lending_pool_hw.sol\":2509:2783  function isDepositor(address a) public view returns (bool){... */\n    tag_5:\n      callvalue\n      dup1\n      iszero\n      tag_55\n      jumpi\n      0x00\n      dup1\n      revert\n    tag_55:\n      pop\n      tag_56\n      0x04\n      dup1\n      calldatasize\n      sub\n      dup2\n      add\n      swap1\n      tag_57\n      swap2\n      swap1\n      tag_58\n      jump\t// in\n    tag_57:\n      tag_59\n      jump\t// in\n    tag_56:\n      mload(0x40)\n      tag_60\n      swap2\n      swap1\n      tag_61\n      jump\t// in\n    tag_60:\n      mload(0x40)\n      dup1\n      swap2\n      sub\n      swap1\n      return\n        /* \"w9_liquidity_lending_pool_hw.sol\":5640:6431  function liquidate(address borrower) external onlyOwner {... */\n    tag_6:\n      callvalue\n      dup1\n      iszero\n      tag_62\n      jumpi\n      0x00\n      dup1\n      revert\n    tag_62:\n      pop\n      tag_63\n      0x04\n      dup1\n      calldatasize\n      sub\n      dup2\n      add\n      swap1\n      tag_64\n      swap2\n      swap1\n      tag_58\n      jump\t// in\n    tag_64:\n      tag_65\n      jump\t// in\n    tag_63:\n      stop\n        /* \"w9_liquidity_lending_pool_hw.sol\":566:592  uint256 public loanCounter */\n    tag_7:\n      callvalue\n      dup1\n      iszero\n      tag_66\n      jumpi\n      0x00\n      dup1\n      revert\n    tag_66:\n      pop\n      tag_67\n      tag_68\n      jump\t// in\n    tag_67:\n      mload(0x40)\n      tag_69\n      swap2\n      swap1\n      tag_50\n      jump\t// in\n    tag_69:\n      mload(0x40)\n      dup1\n      swap2\n      sub\n      swap1\n      return\n        /* \"w9_liquidity_lending_pool_hw.sol\":10857:10992  function getUserAccruedFees(address user) public view returns (uint256) {... */\n    tag_8:\n      callvalue\n      dup1\n      iszero\n      tag_70\n      jumpi\n      0x00\n      dup1\n      revert\n    tag_70:\n      pop\n      tag_71\n      0x04\n      dup1\n      calldatasize\n      sub\n      dup2\n      add\n      swap1\n      tag_72\n      swap2\n      swap1\n      tag_58\n      jump\t// in\n    tag_72:\n      tag_73\n      jump\t// in\n    tag_71:\n      mload(0x40)\n      tag_74\n      swap2\n      swap1\n      tag_50\n      jump\t// in\n    tag_74:\n      mload(0x40)\n      dup1\n      swap2\n      sub\n      swap1\n      return\n        /* \"w9_liquidity_lending_pool_hw.sol\":4738:5634  function repay() external payable {... */\n    tag_9:\n      tag_75\n      tag_76\n      jump\t// in\n    tag_75:\n      stop\n        /* \"w9_liquidity_lending_pool_hw.sol\":12011:12163  function getUserBalance(address a) public view returns (uint256){... */\n    tag_10:\n      callvalue\n      dup1\n      iszero\n      tag_77\n      jumpi\n      0x00\n      dup1\n      revert\n    tag_77:\n      pop\n      tag_78\n      0x04\n      dup1\n      calldatasize\n      sub\n      dup2\n      add\n      swap1\n      tag_79\n      swap2\n      swap1\n      tag_58\n      jump\t// in\n    tag_79:\n      tag_80\n      jump\t// in\n    tag_78:\n      mload(0x40)\n      tag_81\n      swap2\n      swap1\n      tag_50\n      jump\t// in\n    tag_81:\n      mload(0x40)\n      dup1\n      swap2\n      sub\n      swap1\n      return\n        /* \"w9_liquidity_lending_pool_hw.sol\":869:921  uint256 public constant contractFeeFromRepayment = 1 */\n    tag_11:\n      callvalue\n      dup1\n      iszero\n      tag_82\n      jumpi\n      0x00\n      dup1\n      revert\n    tag_82:\n      pop\n      tag_83\n      tag_84\n      jump\t// in\n    tag_83:\n      mload(0x40)\n      tag_85\n      swap2\n      swap1\n      tag_50\n      jump\t// in\n    tag_85:\n      mload(0x40)\n      dup1\n      swap2\n      sub\n      swap1\n      return\n        /* \"w9_liquidity_lending_pool_hw.sol\":12169:12551  function getLiquidityPoolWithLoan() public view returns (uint256) { //Liquidity pool that includes outstanding loan too... */\n    tag_12:\n      callvalue\n      dup1\n      iszero\n      tag_86\n      jumpi\n      0x00\n      dup1\n      revert\n    tag_86:\n      pop\n      tag_87\n      tag_88\n      jump\t// in\n    tag_87:\n      mload(0x40)\n      tag_89\n      swap2\n      swap1\n      tag_50\n      jump\t// in\n    tag_89:\n      mload(0x40)\n      dup1\n      swap2\n      sub\n      swap1\n      return\n        /* \"w9_liquidity_lending_pool_hw.sol\":6561:6668  function getContractBalance() external view returns (uint256) {... */\n    tag_13:\n      callvalue\n      dup1\n      iszero\n      tag_90\n      jumpi\n      0x00\n      dup1\n      revert\n    tag_90:\n      pop\n      tag_91\n      tag_92\n      jump\t// in\n    tag_91:\n      mload(0x40)\n      tag_93\n      swap2\n      swap1\n      tag_50\n      jump\t// in\n    tag_93:\n      mload(0x40)\n      dup1\n      swap2\n      sub\n      swap1\n      return\n        /* \"w9_liquidity_lending_pool_hw.sol\":497:528  uint256 public interestRate = 5 */\n    tag_14:\n      callvalue\n      dup1\n      iszero\n      tag_94\n      jumpi\n      0x00\n      dup1\n      revert\n    tag_94:\n      pop\n      tag_95\n      tag_96\n      jump\t// in\n    tag_95:\n      mload(0x40)\n      tag_97\n      swap2\n      swap1\n      tag_50\n      jump\t// in\n    tag_97:\n      mload(0x40)\n      dup1\n      swap2\n      sub\n      swap1\n      return\n        /* \"w9_liquidity_lending_pool_hw.sol\":835:863  uint256 public accruedReward */\n    tag_15:\n      callvalue\n      dup1\n      iszero\n      tag_98\n      jumpi\n      0x00\n      dup1\n      revert\n    tag_98:\n      pop\n      tag_99\n      tag_100\n      jump\t// in\n    tag_99:\n      mload(0x40)\n      tag_101\n      swap2\n      swap1\n      tag_50\n      jump\t// in\n    tag_101:\n      mload(0x40)\n      dup1\n      swap2\n      sub\n      swap1\n      return\n        /* \"w9_liquidity_lending_pool_hw.sol\":215:235  address public owner */\n    tag_16:\n      callvalue\n      dup1\n      iszero\n      tag_102\n      jumpi\n      0x00\n      dup1\n      revert\n    tag_102:\n      pop\n      tag_103\n      tag_104\n      jump\t// in\n    tag_103:\n      mload(0x40)\n      tag_105\n      swap2\n      swap1\n      tag_106\n      jump\t// in\n    tag_105:\n      mload(0x40)\n      dup1\n      swap2\n      sub\n      swap1\n      return\n        /* \"w9_liquidity_lending_pool_hw.sol\":11910:12005  function getLiquidityPool() public view returns (uint256){... */\n    tag_17:\n      callvalue\n      dup1\n      iszero\n      tag_107\n      jumpi\n      0x00\n      dup1\n      revert\n    tag_107:\n      pop\n      tag_108\n      tag_109\n      jump\t// in\n    tag_108:\n      mload(0x40)\n      tag_110\n      swap2\n      swap1\n      tag_50\n      jump\t// in\n    tag_110:\n      mload(0x40)\n      dup1\n      swap2\n      sub\n      swap1\n      return\n        /* \"w9_liquidity_lending_pool_hw.sol\":347:392  mapping(address => uint256) public borrowings */\n    tag_18:\n      callvalue\n      dup1\n      iszero\n      tag_111\n      jumpi\n      0x00\n      dup1\n      revert\n    tag_111:\n      pop\n      tag_112\n      0x04\n      dup1\n      calldatasize\n      sub\n      dup2\n      add\n      swap1\n      tag_113\n      swap2\n      swap1\n      tag_58\n      jump\t// in\n    tag_113:\n      tag_114\n      jump\t// in\n    tag_112:\n      mload(0x40)\n      tag_115\n      swap2\n      swap1\n      tag_50\n      jump\t// in\n    tag_115:\n      mload(0x40)\n      dup1\n      swap2\n      sub\n      swap1\n      return\n        /* \"w9_liquidity_lending_pool_hw.sol\":6437:6555  function getCollateral(address borrower) external view returns (uint256) {... */\n    tag_19:\n      callvalue\n      dup1\n      iszero\n      tag_116\n      jumpi\n      0x00\n      dup1\n      revert\n    tag_116:\n      pop\n      tag_117\n      0x04\n      dup1\n      calldatasize\n      sub\n      dup2\n      add\n      swap1\n      tag_118\n      swap2\n      swap1\n      tag_58\n      jump\t// in\n    tag_118:\n      tag_119\n      jump\t// in\n    tag_117:\n      mload(0x40)\n      tag_120\n      swap2\n      swap1\n      tag_50\n      jump\t// in\n    tag_120:\n      mload(0x40)\n      dup1\n      swap2\n      sub\n      swap1\n      return\n        /* \"w9_liquidity_lending_pool_hw.sol\":7019:8343  function takeLoan(uint256 amount, uint256 loan_duration) external payable {... */\n    tag_20:\n      tag_121\n      0x04\n      dup1\n      calldatasize\n      sub\n      dup2\n      add\n      swap1\n      tag_122\n      swap2\n      swap1\n      tag_123\n      jump\t// in\n    tag_122:\n      tag_124\n      jump\t// in\n    tag_121:\n      stop\n        /* \"w9_liquidity_lending_pool_hw.sol\":9652:10570  function accrueInterest() external {... */\n    tag_21:\n      callvalue\n      dup1\n      iszero\n      tag_125\n      jumpi\n      0x00\n      dup1\n      revert\n    tag_125:\n      pop\n      tag_126\n      tag_127\n      jump\t// in\n    tag_126:\n      stop\n        /* \"w9_liquidity_lending_pool_hw.sol\":8349:9646  function repayLoan(uint256 loanId) external payable {... */\n    tag_22:\n      tag_128\n      0x04\n      dup1\n      calldatasize\n      sub\n      dup2\n      add\n      swap1\n      tag_129\n      swap2\n      swap1\n      tag_53\n      jump\t// in\n    tag_129:\n      tag_130\n      jump\t// in\n    tag_128:\n      stop\n        /* \"w9_liquidity_lending_pool_hw.sol\":12557:12725  function requiredCollateral(uint256 loan) public pure returns (uint256) {... */\n    tag_23:\n      callvalue\n      dup1\n      iszero\n      tag_131\n      jumpi\n      0x00\n      dup1\n      revert\n    tag_131:\n      pop\n      tag_132\n      0x04\n      dup1\n      calldatasize\n      sub\n      dup2\n      add\n      swap1\n      tag_133\n      swap2\n      swap1\n      tag_53\n      jump\t// in\n    tag_133:\n      tag_134\n      jump\t// in\n    tag_132:\n      mload(0x40)\n      tag_135\n      swap2\n      swap1\n      tag_50\n      jump\t// in\n    tag_135:\n      mload(0x40)\n      dup1\n      swap2\n      sub\n      swap1\n      return\n        /* \"w9_liquidity_lending_pool_hw.sol\":11660:11904  function calculateRepaymentAmount(uint256 loanId) public view returns (uint256) {... */\n    tag_24:\n      callvalue\n      dup1\n      iszero\n      tag_136\n      jumpi\n      0x00\n      dup1\n      revert\n    tag_136:\n      pop\n      tag_137\n      0x04\n      dup1\n      calldatasize\n      sub\n      dup2\n      add\n      swap1\n      tag_138\n      swap2\n      swap1\n      tag_53\n      jump\t// in\n    tag_138:\n      tag_139\n      jump\t// in\n    tag_137:\n      mload(0x40)\n      tag_140\n      swap2\n      swap1\n      tag_50\n      jump\t// in\n    tag_140:\n      mload(0x40)\n      dup1\n      swap2\n      sub\n      swap1\n      return\n        /* \"w9_liquidity_lending_pool_hw.sol\":10639:10826  function calculateFeeShare(address user) public view returns (uint256) {... */\n    tag_25:\n      callvalue\n      dup1\n      iszero\n      tag_141\n      jumpi\n      0x00\n      dup1\n      revert\n    tag_141:\n      pop\n      tag_142\n      0x04\n      dup1\n      calldatasize\n      sub\n      dup2\n      add\n      swap1\n      tag_143\n      swap2\n      swap1\n      tag_58\n      jump\t// in\n    tag_143:\n      tag_144\n      jump\t// in\n    tag_142:\n      mload(0x40)\n      tag_145\n      swap2\n      swap1\n      tag_50\n      jump\t// in\n    tag_145:\n      mload(0x40)\n      dup1\n      swap2\n      sub\n      swap1\n      return\n        /* \"w9_liquidity_lending_pool_hw.sol\":10998:11654  function distributeFees() external payable onlyOwner{... */\n    tag_26:\n      tag_146\n      tag_147\n      jump\t// in\n    tag_146:\n      stop\n        /* \"w9_liquidity_lending_pool_hw.sol\":794:829  uint256 public lastAccrualTimestamp */\n    tag_27:\n      callvalue\n      dup1\n      iszero\n      tag_148\n      jumpi\n      0x00\n      dup1\n      revert\n    tag_148:\n      pop\n      tag_149\n      tag_150\n      jump\t// in\n    tag_149:\n      mload(0x40)\n      tag_151\n      swap2\n      swap1\n      tag_50\n      jump\t// in\n    tag_151:\n      mload(0x40)\n      dup1\n      swap2\n      sub\n      swap1\n      return\n        /* \"w9_liquidity_lending_pool_hw.sol\":4063:4732  function borrow(uint256 amount) external payable {... */\n    tag_28:\n      tag_152\n      0x04\n      dup1\n      calldatasize\n      sub\n      dup2\n      add\n      swap1\n      tag_153\n      swap2\n      swap1\n      tag_53\n      jump\t// in\n    tag_153:\n      tag_154\n      jump\t// in\n    tag_152:\n      stop\n        /* \"w9_liquidity_lending_pool_hw.sol\":6716:7013  function getBalances(address account) external view returns (... */\n    tag_29:\n      callvalue\n      dup1\n      iszero\n      tag_155\n      jumpi\n      0x00\n      dup1\n      revert\n    tag_155:\n      pop\n      tag_156\n      0x04\n      dup1\n      calldatasize\n      sub\n      dup2\n      add\n      swap1\n      tag_157\n      swap2\n      swap1\n      tag_58\n      jump\t// in\n    tag_157:\n      tag_158\n      jump\t// in\n    tag_156:\n      mload(0x40)\n      tag_159\n      swap4\n      swap3\n      swap2\n      swap1\n      tag_160\n      jump\t// in\n    tag_159:\n      mload(0x40)\n      dup1\n      swap2\n      sub\n      swap1\n      return\n        /* \"w9_liquidity_lending_pool_hw.sol\":2225:2503  function deposit() external payable {... */\n    tag_30:\n      tag_161\n      tag_162\n      jump\t// in\n    tag_161:\n      stop\n        /* \"w9_liquidity_lending_pool_hw.sol\":685:731  mapping(address => uint256[]) public userLoans */\n    tag_31:\n      callvalue\n      dup1\n      iszero\n      tag_163\n      jumpi\n      0x00\n      dup1\n      revert\n    tag_163:\n      pop\n      tag_164\n      0x04\n      dup1\n      calldatasize\n      sub\n      dup2\n      add\n      swap1\n      tag_165\n      swap2\n      swap1\n      tag_166\n      jump\t// in\n    tag_165:\n      tag_167\n      jump\t// in\n    tag_164:\n      mload(0x40)\n      tag_168\n      swap2\n      swap1\n      tag_50\n      jump\t// in\n    tag_168:\n      mload(0x40)\n      dup1\n      swap2\n      sub\n      swap1\n      return\n        /* \"w9_liquidity_lending_pool_hw.sol\":622:659  mapping(uint256 => Loan) public loans */\n    tag_32:\n      callvalue\n      dup1\n      iszero\n      tag_169\n      jumpi\n      0x00\n      dup1\n      revert\n    tag_169:\n      pop\n      tag_170\n      0x04\n      dup1\n      calldatasize\n      sub\n      dup2\n      add\n      swap1\n      tag_171\n      swap2\n      swap1\n      tag_53\n      jump\t// in\n    tag_171:\n      tag_172\n      jump\t// in\n    tag_170:\n      mload(0x40)\n      tag_173\n      swap8\n      swap7\n      swap6\n      swap5\n      swap4\n      swap3\n      swap2\n      swap1\n      tag_174\n      jump\t// in\n    tag_173:\n      mload(0x40)\n      dup1\n      swap2\n      sub\n      swap1\n      return\n        /* \"w9_liquidity_lending_pool_hw.sol\":761:788  address[] public depositors */\n    tag_33:\n      callvalue\n      dup1\n      iszero\n      tag_175\n      jumpi\n      0x00\n      dup1\n      revert\n    tag_175:\n      pop\n      tag_176\n      0x04\n      dup1\n      calldatasize\n      sub\n      dup2\n      add\n      swap1\n      tag_177\n      swap2\n      swap1\n      tag_53\n      jump\t// in\n    tag_177:\n      tag_178\n      jump\t// in\n    tag_176:\n      mload(0x40)\n      tag_179\n      swap2\n      swap1\n      tag_106\n      jump\t// in\n    tag_179:\n      mload(0x40)\n      dup1\n      swap2\n      sub\n      swap1\n      return\n        /* \"w9_liquidity_lending_pool_hw.sol\":12731:12942  function requiredRepaymentAmount(uint256 loan) public view returns (uint256) {... */\n    tag_34:\n      callvalue\n      dup1\n      iszero\n      tag_180\n      jumpi\n      0x00\n      dup1\n      revert\n    tag_180:\n      pop\n      tag_181\n      0x04\n      dup1\n      calldatasize\n      sub\n      dup2\n      add\n      swap1\n      tag_182\n      swap2\n      swap1\n      tag_53\n      jump\t// in\n    tag_182:\n      tag_183\n      jump\t// in\n    tag_181:\n      mload(0x40)\n      tag_184\n      swap2\n      swap1\n      tag_50\n      jump\t// in\n    tag_184:\n      mload(0x40)\n      dup1\n      swap2\n      sub\n      swap1\n      return\n        /* \"w9_liquidity_lending_pool_hw.sol\":126:172  mapping(address => uint256) public collaterals */\n    tag_35:\n      callvalue\n      dup1\n      iszero\n      tag_185\n      jumpi\n      0x00\n      dup1\n      revert\n    tag_185:\n      pop\n      tag_186\n      0x04\n      dup1\n      calldatasize\n      sub\n      dup2\n      add\n      swap1\n      tag_187\n      swap2\n      swap1\n      tag_58\n      jump\t// in\n    tag_187:\n      tag_188\n      jump\t// in\n    tag_186:\n      mload(0x40)\n      tag_189\n      swap2\n      swap1\n      tag_50\n      jump\t// in\n    tag_189:\n      mload(0x40)\n      dup1\n      swap2\n      sub\n      swap1\n      return\n        /* \"w9_liquidity_lending_pool_hw.sol\":268:311  mapping(address => uint256) public deposits */\n    tag_36:\n      callvalue\n      dup1\n      iszero\n      tag_190\n      jumpi\n      0x00\n      dup1\n      revert\n    tag_190:\n      pop\n      tag_191\n      0x04\n      dup1\n      calldatasize\n      sub\n      dup2\n      add\n      swap1\n      tag_192\n      swap2\n      swap1\n      tag_58\n      jump\t// in\n    tag_192:\n      tag_193\n      jump\t// in\n    tag_191:\n      mload(0x40)\n      tag_194\n      swap2\n      swap1\n      tag_50\n      jump\t// in\n    tag_194:\n      mload(0x40)\n      dup1\n      swap2\n      sub\n      swap1\n      return\n        /* \"w9_liquidity_lending_pool_hw.sol\":430:459  uint256 public totalLiquidity */\n    tag_48:\n      sload(0x05)\n      dup2\n      jump\t// out\n        /* \"w9_liquidity_lending_pool_hw.sol\":3060:4057  function withdraw(uint256 withdrawAmount) external payable{... */\n    tag_54:\n        /* \"w9_liquidity_lending_pool_hw.sol\":3152:3175  isDepositor(msg.sender) */\n      tag_196\n        /* \"w9_liquidity_lending_pool_hw.sol\":3164:3174  msg.sender */\n      caller\n        /* \"w9_liquidity_lending_pool_hw.sol\":3152:3163  isDepositor */\n      tag_59\n        /* \"w9_liquidity_lending_pool_hw.sol\":3152:3175  isDepositor(msg.sender) */\n      jump\t// in\n    tag_196:\n        /* \"w9_liquidity_lending_pool_hw.sol\":3144:3204  require(isDepositor(msg.sender), \"You are not a depositor.\") */\n      tag_197\n      jumpi\n      mload(0x40)\n      0x08c379a000000000000000000000000000000000000000000000000000000000\n      dup2\n      mstore\n      0x04\n      add\n      tag_198\n      swap1\n      tag_199\n      jump\t// in\n    tag_198:\n      mload(0x40)\n      dup1\n      swap2\n      sub\n      swap1\n      revert\n    tag_197:\n        /* \"w9_liquidity_lending_pool_hw.sol\":3240:3248  deposits */\n      0x03\n        /* \"w9_liquidity_lending_pool_hw.sol\":3240:3260  deposits[msg.sender] */\n      0x00\n        /* \"w9_liquidity_lending_pool_hw.sol\":3249:3259  msg.sender */\n      caller\n        /* \"w9_liquidity_lending_pool_hw.sol\":3240:3260  deposits[msg.sender] */\n      0xffffffffffffffffffffffffffffffffffffffff\n      and\n      0xffffffffffffffffffffffffffffffffffffffff\n      and\n      dup2\n      mstore\n      0x20\n      add\n      swap1\n      dup2\n      mstore\n      0x20\n      add\n      0x00\n      keccak256\n      sload\n        /* \"w9_liquidity_lending_pool_hw.sol\":3222:3236  withdrawAmount */\n      dup2\n        /* \"w9_liquidity_lending_pool_hw.sol\":3222:3260  withdrawAmount <= deposits[msg.sender] */\n      gt\n      iszero\n        /* \"w9_liquidity_lending_pool_hw.sol\":3214:3319  require(withdrawAmount <= deposits[msg.sender], \"You don't have this much amount of deposit to withdraw\") */\n      tag_200\n      jumpi\n      mload(0x40)\n      0x08c379a000000000000000000000000000000000000000000000000000000000\n      dup2\n      mstore\n      0x04\n      add\n      tag_201\n      swap1\n      tag_202\n      jump\t// in\n    tag_201:\n      mload(0x40)\n      dup1\n      swap2\n      sub\n      swap1\n      revert\n    tag_200:\n        /* \"w9_liquidity_lending_pool_hw.sol\":3355:3369  totalLiquidity */\n      sload(0x05)\n        /* \"w9_liquidity_lending_pool_hw.sol\":3337:3351  withdrawAmount */\n      dup2\n        /* \"w9_liquidity_lending_pool_hw.sol\":3337:3369  withdrawAmount <= totalLiquidity */\n      gt\n      iszero\n        /* \"w9_liquidity_lending_pool_hw.sol\":3329:3402  require(withdrawAmount <= totalLiquidity, \"Not enough liquidity in pool\") */\n      tag_203\n      jumpi\n      mload(0x40)\n      0x08c379a000000000000000000000000000000000000000000000000000000000\n      dup2\n      mstore\n      0x04\n      add\n      tag_204\n      swap1\n      tag_205\n      jump\t// in\n    tag_204:\n      mload(0x40)\n      dup1\n      swap2\n      sub\n      swap1\n      revert\n    tag_203:\n        /* \"w9_liquidity_lending_pool_hw.sol\":3454:3468  withdrawAmount */\n      dup1\n        /* \"w9_liquidity_lending_pool_hw.sol\":3430:3438  deposits */\n      0x03\n        /* \"w9_liquidity_lending_pool_hw.sol\":3430:3450  deposits[msg.sender] */\n      0x00\n        /* \"w9_liquidity_lending_pool_hw.sol\":3439:3449  msg.sender */\n      caller\n        /* \"w9_liquidity_lending_pool_hw.sol\":3430:3450  deposits[msg.sender] */\n      0xffffffffffffffffffffffffffffffffffffffff\n      and\n      0xffffffffffffffffffffffffffffffffffffffff\n      and\n      dup2\n      mstore\n      0x20\n      add\n      swap1\n      dup2\n      mstore\n      0x20\n      add\n      0x00\n      keccak256\n      0x00\n        /* \"w9_liquidity_lending_pool_hw.sol\":3430:3468  deposits[msg.sender] -= withdrawAmount */\n      dup3\n      dup3\n      sload\n      tag_206\n      swap2\n      swap1\n      tag_207\n      jump\t// in\n    tag_206:\n      swap3\n      pop\n      pop\n      dup2\n      swap1\n      sstore\n      pop\n        /* \"w9_liquidity_lending_pool_hw.sol\":3496:3510  withdrawAmount */\n      dup1\n        /* \"w9_liquidity_lending_pool_hw.sol\":3478:3492  totalLiquidity */\n      0x05\n      0x00\n        /* \"w9_liquidity_lending_pool_hw.sol\":3478:3510  totalLiquidity -= withdrawAmount */\n      dup3\n      dup3\n      sload\n      tag_208\n      swap2\n      swap1\n      tag_207\n      jump\t// in\n    tag_208:\n      swap3\n      pop\n      pop\n      dup2\n      swap1\n      sstore\n      pop\n        /* \"w9_liquidity_lending_pool_hw.sol\":3541:3553  bool success */\n      0x00\n        /* \"w9_liquidity_lending_pool_hw.sol\":3567:3577  msg.sender */\n      caller\n        /* \"w9_liquidity_lending_pool_hw.sol\":3559:3583  payable(msg.sender).call */\n      0xffffffffffffffffffffffffffffffffffffffff\n      and\n        /* \"w9_liquidity_lending_pool_hw.sol\":3591:3605  withdrawAmount */\n      dup3\n        /* \"w9_liquidity_lending_pool_hw.sol\":3559:3610  payable(msg.sender).call{value: withdrawAmount}(\"\") */\n      mload(0x40)\n      tag_209\n      swap1\n      tag_210\n      jump\t// in\n    tag_209:\n      0x00\n      mload(0x40)\n      dup1\n      dup4\n      sub\n      dup2\n      dup6\n      dup8\n      gas\n      call\n      swap3\n      pop\n      pop\n      pop\n      returndatasize\n      dup1\n      0x00\n      dup2\n      eq\n      tag_213\n      jumpi\n      mload(0x40)\n      swap2\n      pop\n      and(add(returndatasize, 0x3f), not(0x1f))\n      dup3\n      add\n      0x40\n      mstore\n      returndatasize\n      dup3\n      mstore\n      returndatasize\n      0x00\n      0x20\n      dup5\n      add\n      returndatacopy\n      jump(tag_212)\n    tag_213:\n      0x60\n      swap2\n      pop\n    tag_212:\n      pop\n        /* \"w9_liquidity_lending_pool_hw.sol\":3540:3610  (bool success, ) = payable(msg.sender).call{value: withdrawAmount}(\"\") */\n      pop\n      swap1\n      pop\n        /* \"w9_liquidity_lending_pool_hw.sol\":3628:3635  success */\n      dup1\n        /* \"w9_liquidity_lending_pool_hw.sol\":3620:3666  require(success, \"Withdrawal transfer failed\") */\n      tag_214\n      jumpi\n      mload(0x40)\n      0x08c379a000000000000000000000000000000000000000000000000000000000\n      dup2\n      mstore\n      0x04\n      add\n      tag_215\n      swap1\n      tag_216\n      jump\t// in\n    tag_215:\n      mload(0x40)\n      dup1\n      swap2\n      sub\n      swap1\n      revert\n    tag_214:\n        /* \"w9_liquidity_lending_pool_hw.sol\":3713:3714  0 */\n      0x00\n        /* \"w9_liquidity_lending_pool_hw.sol\":3689:3697  deposits */\n      0x03\n        /* \"w9_liquidity_lending_pool_hw.sol\":3689:3709  deposits[msg.sender] */\n      0x00\n        /* \"w9_liquidity_lending_pool_hw.sol\":3698:3708  msg.sender */\n      caller\n        /* \"w9_liquidity_lending_pool_hw.sol\":3689:3709  deposits[msg.sender] */\n      0xffffffffffffffffffffffffffffffffffffffff\n      and\n      0xffffffffffffffffffffffffffffffffffffffff\n      and\n      dup2\n      mstore\n      0x20\n      add\n      swap1\n      dup2\n      mstore\n      0x20\n      add\n      0x00\n      keccak256\n      sload\n        /* \"w9_liquidity_lending_pool_hw.sol\":3689:3714  deposits[msg.sender] == 0 */\n      sub\n        /* \"w9_liquidity_lending_pool_hw.sol\":3685:3997  if (deposits[msg.sender] == 0) { //removeProvider when their balance becomes zero.... */\n      tag_217\n      jumpi\n        /* \"w9_liquidity_lending_pool_hw.sol\":3781:3792  bool exists */\n      0x00\n        /* \"w9_liquidity_lending_pool_hw.sol\":3794:3807  uint256 index */\n      dup1\n        /* \"w9_liquidity_lending_pool_hw.sol\":3811:3841  findDepositorIndex(msg.sender) */\n      tag_218\n        /* \"w9_liquidity_lending_pool_hw.sol\":3830:3840  msg.sender */\n      caller\n        /* \"w9_liquidity_lending_pool_hw.sol\":3811:3829  findDepositorIndex */\n      tag_219\n        /* \"w9_liquidity_lending_pool_hw.sol\":3811:3841  findDepositorIndex(msg.sender) */\n      jump\t// in\n    tag_218:\n        /* \"w9_liquidity_lending_pool_hw.sol\":3780:3841  (bool exists, uint256 index) = findDepositorIndex(msg.sender) */\n      swap2\n      pop\n      swap2\n      pop\n        /* \"w9_liquidity_lending_pool_hw.sol\":3859:3865  exists */\n      dup2\n        /* \"w9_liquidity_lending_pool_hw.sol\":3855:3987  if (exists) {... */\n      iszero\n      tag_220\n      jumpi\n        /* \"w9_liquidity_lending_pool_hw.sol\":3905:3915  depositors */\n      0x0a\n        /* \"w9_liquidity_lending_pool_hw.sol\":3936:3937  1 */\n      0x01\n        /* \"w9_liquidity_lending_pool_hw.sol\":3916:3926  depositors */\n      0x0a\n        /* \"w9_liquidity_lending_pool_hw.sol\":3916:3933  depositors.length */\n      dup1\n      sload\n      swap1\n      pop\n        /* \"w9_liquidity_lending_pool_hw.sol\":3916:3937  depositors.length - 1 */\n      tag_221\n      swap2\n      swap1\n      tag_207\n      jump\t// in\n    tag_221:\n        /* \"w9_liquidity_lending_pool_hw.sol\":3905:3938  depositors[depositors.length - 1] */\n      dup2\n      sload\n      dup2\n      lt\n      tag_222\n      jumpi\n      tag_223\n      tag_224\n      jump\t// in\n    tag_223:\n    tag_222:\n      swap1\n      0x00\n      mstore\n      keccak256(0x00, 0x20)\n      add\n      0x00\n      swap1\n      sload\n      swap1\n      0x0100\n      exp\n      swap1\n      div\n      0xffffffffffffffffffffffffffffffffffffffff\n      and\n        /* \"w9_liquidity_lending_pool_hw.sol\":3885:3895  depositors */\n      0x0a\n        /* \"w9_liquidity_lending_pool_hw.sol\":3896:3901  index */\n      dup3\n        /* \"w9_liquidity_lending_pool_hw.sol\":3885:3902  depositors[index] */\n      dup2\n      sload\n      dup2\n      lt\n      tag_226\n      jumpi\n      tag_227\n      tag_224\n      jump\t// in\n    tag_227:\n    tag_226:\n      swap1\n      0x00\n      mstore\n      keccak256(0x00, 0x20)\n      add\n      0x00\n        /* \"w9_liquidity_lending_pool_hw.sol\":3885:3938  depositors[index] = depositors[depositors.length - 1] */\n      0x0100\n      exp\n      dup2\n      sload\n      dup2\n      0xffffffffffffffffffffffffffffffffffffffff\n      mul\n      not\n      and\n      swap1\n      dup4\n      0xffffffffffffffffffffffffffffffffffffffff\n      and\n      mul\n      or\n      swap1\n      sstore\n      pop\n        /* \"w9_liquidity_lending_pool_hw.sol\":3956:3966  depositors */\n      0x0a\n        /* \"w9_liquidity_lending_pool_hw.sol\":3956:3972  depositors.pop() */\n      dup1\n      sload\n      dup1\n      tag_229\n      jumpi\n      tag_230\n      tag_231\n      jump\t// in\n    tag_230:\n    tag_229:\n      0x01\n      swap1\n      sub\n      dup2\n      dup2\n      swap1\n      0x00\n      mstore\n      keccak256(0x00, 0x20)\n      add\n      exp(0x0100, 0x00)\n      dup2\n      sload\n      swap1\n      0xffffffffffffffffffffffffffffffffffffffff\n      mul\n      not\n      and\n      swap1\n      sstore\n      swap1\n      sstore\n        /* \"w9_liquidity_lending_pool_hw.sol\":3855:3987  if (exists) {... */\n    tag_220:\n        /* \"w9_liquidity_lending_pool_hw.sol\":3716:3997  { //removeProvider when their balance becomes zero.... */\n      pop\n      pop\n        /* \"w9_liquidity_lending_pool_hw.sol\":3685:3997  if (deposits[msg.sender] == 0) { //removeProvider when their balance becomes zero.... */\n    tag_217:\n        /* \"w9_liquidity_lending_pool_hw.sol\":4023:4033  msg.sender */\n      caller\n        /* \"w9_liquidity_lending_pool_hw.sol\":4012:4050  Withdrawal(msg.sender, withdrawAmount) */\n      0xffffffffffffffffffffffffffffffffffffffff\n      and\n      0x7fcf532c15f0a6db0bd6d0e038bea71d30d808c7d98cb3bf7268a95bf5081b65\n        /* \"w9_liquidity_lending_pool_hw.sol\":4035:4049  withdrawAmount */\n      dup4\n        /* \"w9_liquidity_lending_pool_hw.sol\":4012:4050  Withdrawal(msg.sender, withdrawAmount) */\n      mload(0x40)\n      tag_233\n      swap2\n      swap1\n      tag_50\n      jump\t// in\n    tag_233:\n      mload(0x40)\n      dup1\n      swap2\n      sub\n      swap1\n      log2\n        /* \"w9_liquidity_lending_pool_hw.sol\":3118:4057  {... */\n      pop\n        /* \"w9_liquidity_lending_pool_hw.sol\":3060:4057  function withdraw(uint256 withdrawAmount) external payable{... */\n      pop\n      jump\t// out\n        /* \"w9_liquidity_lending_pool_hw.sol\":2509:2783  function isDepositor(address a) public view returns (bool){... */\n    tag_59:\n        /* \"w9_liquidity_lending_pool_hw.sol\":2562:2566  bool */\n      0x00\n        /* \"w9_liquidity_lending_pool_hw.sol\":2582:2591  uint256 i */\n      dup1\n        /* \"w9_liquidity_lending_pool_hw.sol\":2594:2595  0 */\n      0x00\n        /* \"w9_liquidity_lending_pool_hw.sol\":2582:2595  uint256 i = 0 */\n      swap1\n      pop\n        /* \"w9_liquidity_lending_pool_hw.sol\":2577:2755  for (uint256 i = 0; i < depositors.length ; ++i) { //iterates through array depositor... */\n    tag_235:\n        /* \"w9_liquidity_lending_pool_hw.sol\":2601:2611  depositors */\n      0x0a\n        /* \"w9_liquidity_lending_pool_hw.sol\":2601:2618  depositors.length */\n      dup1\n      sload\n      swap1\n      pop\n        /* \"w9_liquidity_lending_pool_hw.sol\":2597:2598  i */\n      dup2\n        /* \"w9_liquidity_lending_pool_hw.sol\":2597:2618  i < depositors.length */\n      lt\n        /* \"w9_liquidity_lending_pool_hw.sol\":2577:2755  for (uint256 i = 0; i < depositors.length ; ++i) { //iterates through array depositor... */\n      iszero\n      tag_236\n      jumpi\n        /* \"w9_liquidity_lending_pool_hw.sol\":2696:2697  a */\n      dup3\n        /* \"w9_liquidity_lending_pool_hw.sol\":2679:2697  depositors[i] == a */\n      0xffffffffffffffffffffffffffffffffffffffff\n      and\n        /* \"w9_liquidity_lending_pool_hw.sol\":2679:2689  depositors */\n      0x0a\n        /* \"w9_liquidity_lending_pool_hw.sol\":2690:2691  i */\n      dup3\n        /* \"w9_liquidity_lending_pool_hw.sol\":2679:2692  depositors[i] */\n      dup2\n      sload\n      dup2\n      lt\n      tag_238\n      jumpi\n      tag_239\n      tag_224\n      jump\t// in\n    tag_239:\n    tag_238:\n      swap1\n      0x00\n      mstore\n      keccak256(0x00, 0x20)\n      add\n      0x00\n      swap1\n      sload\n      swap1\n      0x0100\n      exp\n      swap1\n      div\n      0xffffffffffffffffffffffffffffffffffffffff\n      and\n        /* \"w9_liquidity_lending_pool_hw.sol\":2679:2697  depositors[i] == a */\n      0xffffffffffffffffffffffffffffffffffffffff\n      and\n      sub\n        /* \"w9_liquidity_lending_pool_hw.sol\":2675:2745  if (depositors[i] == a){ ... */\n      tag_241\n      jumpi\n        /* \"w9_liquidity_lending_pool_hw.sol\":2724:2728  true */\n      0x01\n        /* \"w9_liquidity_lending_pool_hw.sol\":2717:2728  return true */\n      swap2\n      pop\n      pop\n      jump(tag_234)\n        /* \"w9_liquidity_lending_pool_hw.sol\":2675:2745  if (depositors[i] == a){ ... */\n    tag_241:\n        /* \"w9_liquidity_lending_pool_hw.sol\":2621:2624  ++i */\n      dup1\n      0x01\n      add\n      swap1\n      pop\n        /* \"w9_liquidity_lending_pool_hw.sol\":2577:2755  for (uint256 i = 0; i < depositors.length ; ++i) { //iterates through array depositor... */\n      jump(tag_235)\n    tag_236:\n      pop\n        /* \"w9_liquidity_lending_pool_hw.sol\":2771:2776  false */\n      0x00\n        /* \"w9_liquidity_lending_pool_hw.sol\":2764:2776  return false */\n      swap1\n      pop\n        /* \"w9_liquidity_lending_pool_hw.sol\":2509:2783  function isDepositor(address a) public view returns (bool){... */\n    tag_234:\n      swap2\n      swap1\n      pop\n      jump\t// out\n        /* \"w9_liquidity_lending_pool_hw.sol\":5640:6431  function liquidate(address borrower) external onlyOwner {... */\n    tag_65:\n        /* \"w9_liquidity_lending_pool_hw.sol\":2153:2158  owner */\n      0x01\n      0x00\n      swap1\n      sload\n      swap1\n      0x0100\n      exp\n      swap1\n      div\n      0xffffffffffffffffffffffffffffffffffffffff\n      and\n        /* \"w9_liquidity_lending_pool_hw.sol\":2139:2158  msg.sender == owner */\n      0xffffffffffffffffffffffffffffffffffffffff\n      and\n        /* \"w9_liquidity_lending_pool_hw.sol\":2139:2149  msg.sender */\n      caller\n        /* \"w9_liquidity_lending_pool_hw.sol\":2139:2158  msg.sender == owner */\n      0xffffffffffffffffffffffffffffffffffffffff\n      and\n      eq\n        /* \"w9_liquidity_lending_pool_hw.sol\":2131:2201  require(msg.sender == owner, \"Only the owner can perform this action\") */\n      tag_243\n      jumpi\n      mload(0x40)\n      0x08c379a000000000000000000000000000000000000000000000000000000000\n      dup2\n      mstore\n      0x04\n      add\n      tag_244\n      swap1\n      tag_245\n      jump\t// in\n    tag_244:\n      mload(0x40)\n      dup1\n      swap2\n      sub\n      swap1\n      revert\n    tag_243:\n        /* \"w9_liquidity_lending_pool_hw.sol\":5737:5738  0 */\n      0x00\n        /* \"w9_liquidity_lending_pool_hw.sol\":5714:5724  borrowings */\n      0x04\n        /* \"w9_liquidity_lending_pool_hw.sol\":5714:5734  borrowings[borrower] */\n      0x00\n        /* \"w9_liquidity_lending_pool_hw.sol\":5725:5733  borrower */\n      dup4\n        /* \"w9_liquidity_lending_pool_hw.sol\":5714:5734  borrowings[borrower] */\n      0xffffffffffffffffffffffffffffffffffffffff\n      and\n      0xffffffffffffffffffffffffffffffffffffffff\n      and\n      dup2\n      mstore\n      0x20\n      add\n      swap1\n      dup2\n      mstore\n      0x20\n      add\n      0x00\n      keccak256\n      sload\n        /* \"w9_liquidity_lending_pool_hw.sol\":5714:5738  borrowings[borrower] > 0 */\n      gt\n        /* \"w9_liquidity_lending_pool_hw.sol\":5706:5776  require(borrowings[borrower] > 0, \"No active loans for this borrower\") */\n      tag_247\n      jumpi\n      mload(0x40)\n      0x08c379a000000000000000000000000000000000000000000000000000000000\n      dup2\n      mstore\n      0x04\n      add\n      tag_248\n      swap1\n      tag_249\n      jump\t// in\n    tag_248:\n      mload(0x40)\n      dup1\n      swap2\n      sub\n      swap1\n      revert\n    tag_247:\n        /* \"w9_liquidity_lending_pool_hw.sol\":5795:5813  uint256 debtAmount */\n      0x00\n        /* \"w9_liquidity_lending_pool_hw.sol\":5816:5826  borrowings */\n      0x04\n        /* \"w9_liquidity_lending_pool_hw.sol\":5816:5836  borrowings[borrower] */\n      0x00\n        /* \"w9_liquidity_lending_pool_hw.sol\":5827:5835  borrower */\n      dup4\n        /* \"w9_liquidity_lending_pool_hw.sol\":5816:5836  borrowings[borrower] */\n      0xffffffffffffffffffffffffffffffffffffffff\n      and\n      0xffffffffffffffffffffffffffffffffffffffff\n      and\n      dup2\n      mstore\n      0x20\n      add\n      swap1\n      dup2\n      mstore\n      0x20\n      add\n      0x00\n      keccak256\n      sload\n        /* \"w9_liquidity_lending_pool_hw.sol\":5795:5836  uint256 debtAmount = borrowings[borrower] */\n      swap1\n      pop\n        /* \"w9_liquidity_lending_pool_hw.sol\":5846:5870  uint256 collateralAmount */\n      0x00\n        /* \"w9_liquidity_lending_pool_hw.sol\":5873:5884  collaterals */\n      dup1\n        /* \"w9_liquidity_lending_pool_hw.sol\":5873:5894  collaterals[borrower] */\n      0x00\n        /* \"w9_liquidity_lending_pool_hw.sol\":5885:5893  borrower */\n      dup5\n        /* \"w9_liquidity_lending_pool_hw.sol\":5873:5894  collaterals[borrower] */\n      0xffffffffffffffffffffffffffffffffffffffff\n      and\n      0xffffffffffffffffffffffffffffffffffffffff\n      and\n      dup2\n      mstore\n      0x20\n      add\n      swap1\n      dup2\n      mstore\n      0x20\n      add\n      0x00\n      keccak256\n      sload\n        /* \"w9_liquidity_lending_pool_hw.sol\":5846:5894  uint256 collateralAmount = collaterals[borrower] */\n      swap1\n      pop\n        /* \"w9_liquidity_lending_pool_hw.sol\":5931:5932  0 */\n      0x00\n        /* \"w9_liquidity_lending_pool_hw.sol\":5912:5928  collateralAmount */\n      dup2\n        /* \"w9_liquidity_lending_pool_hw.sol\":5912:5932  collateralAmount > 0 */\n      gt\n        /* \"w9_liquidity_lending_pool_hw.sol\":5904:5959  require(collateralAmount > 0, \"No collateral to seize\") */\n      tag_250\n      jumpi\n      mload(0x40)\n      0x08c379a000000000000000000000000000000000000000000000000000000000\n      dup2\n      mstore\n      0x04\n      add\n      tag_251\n      swap1\n      tag_252\n      jump\t// in\n    tag_251:\n      mload(0x40)\n      dup1\n      swap2\n      sub\n      swap1\n      revert\n    tag_250:\n        /* \"w9_liquidity_lending_pool_hw.sol\":6043:6044  0 */\n      0x00\n        /* \"w9_liquidity_lending_pool_hw.sol\":6020:6030  borrowings */\n      0x04\n        /* \"w9_liquidity_lending_pool_hw.sol\":6020:6040  borrowings[borrower] */\n      0x00\n        /* \"w9_liquidity_lending_pool_hw.sol\":6031:6039  borrower */\n      dup6\n        /* \"w9_liquidity_lending_pool_hw.sol\":6020:6040  borrowings[borrower] */\n      0xffffffffffffffffffffffffffffffffffffffff\n      and\n      0xffffffffffffffffffffffffffffffffffffffff\n      and\n      dup2\n      mstore\n      0x20\n      add\n      swap1\n      dup2\n      mstore\n      0x20\n      add\n      0x00\n      keccak256\n        /* \"w9_liquidity_lending_pool_hw.sol\":6020:6044  borrowings[borrower] = 0 */\n      dup2\n      swap1\n      sstore\n      pop\n        /* \"w9_liquidity_lending_pool_hw.sol\":6078:6079  0 */\n      0x00\n        /* \"w9_liquidity_lending_pool_hw.sol\":6054:6065  collaterals */\n      dup1\n        /* \"w9_liquidity_lending_pool_hw.sol\":6054:6075  collaterals[borrower] */\n      0x00\n        /* \"w9_liquidity_lending_pool_hw.sol\":6066:6074  borrower */\n      dup6\n        /* \"w9_liquidity_lending_pool_hw.sol\":6054:6075  collaterals[borrower] */\n      0xffffffffffffffffffffffffffffffffffffffff\n      and\n      0xffffffffffffffffffffffffffffffffffffffff\n      and\n      dup2\n      mstore\n      0x20\n      add\n      swap1\n      dup2\n      mstore\n      0x20\n      add\n      0x00\n      keccak256\n        /* \"w9_liquidity_lending_pool_hw.sol\":6054:6079  collaterals[borrower] = 0 */\n      dup2\n      swap1\n      sstore\n      pop\n        /* \"w9_liquidity_lending_pool_hw.sol\":6138:6150  bool success */\n      0x00\n        /* \"w9_liquidity_lending_pool_hw.sol\":6164:6169  owner */\n      0x01\n      0x00\n      swap1\n      sload\n      swap1\n      0x0100\n      exp\n      swap1\n      div\n      0xffffffffffffffffffffffffffffffffffffffff\n      and\n        /* \"w9_liquidity_lending_pool_hw.sol\":6156:6175  payable(owner).call */\n      0xffffffffffffffffffffffffffffffffffffffff\n      and\n        /* \"w9_liquidity_lending_pool_hw.sol\":6183:6199  collateralAmount */\n      dup3\n        /* \"w9_liquidity_lending_pool_hw.sol\":6156:6204  payable(owner).call{value: collateralAmount}(\"\") */\n      mload(0x40)\n      tag_253\n      swap1\n      tag_210\n      jump\t// in\n    tag_253:\n      0x00\n      mload(0x40)\n      dup1\n      dup4\n      sub\n      dup2\n      dup6\n      dup8\n      gas\n      call\n      swap3\n      pop\n      pop\n      pop\n      returndatasize\n      dup1\n      0x00\n      dup2\n      eq\n      tag_256\n      jumpi\n      mload(0x40)\n      swap2\n      pop\n      and(add(returndatasize, 0x3f), not(0x1f))\n      dup3\n      add\n      0x40\n      mstore\n      returndatasize\n      dup3\n      mstore\n      returndatasize\n      0x00\n      0x20\n      dup5\n      add\n      returndatacopy\n      jump(tag_255)\n    tag_256:\n      0x60\n      swap2\n      pop\n    tag_255:\n      pop\n        /* \"w9_liquidity_lending_pool_hw.sol\":6137:6204  (bool success, ) = payable(owner).call{value: collateralAmount}(\"\") */\n      pop\n      swap1\n      pop\n        /* \"w9_liquidity_lending_pool_hw.sol\":6222:6229  success */\n      dup1\n        /* \"w9_liquidity_lending_pool_hw.sol\":6214:6272  require(success, \"Failed to transfer collateral to owner\") */\n      tag_257\n      jumpi\n      mload(0x40)\n      0x08c379a000000000000000000000000000000000000000000000000000000000\n      dup2\n      mstore\n      0x04\n      add\n      tag_258\n      swap1\n      tag_259\n      jump\t// in\n    tag_258:\n      mload(0x40)\n      dup1\n      swap2\n      sub\n      swap1\n      revert\n    tag_257:\n        /* \"w9_liquidity_lending_pool_hw.sol\":6349:6359  debtAmount */\n      dup3\n        /* \"w9_liquidity_lending_pool_hw.sol\":6331:6345  totalLiquidity */\n      0x05\n      0x00\n        /* \"w9_liquidity_lending_pool_hw.sol\":6331:6359  totalLiquidity += debtAmount */\n      dup3\n      dup3\n      sload\n      tag_260\n      swap2\n      swap1\n      tag_261\n      jump\t// in\n    tag_260:\n      swap3\n      pop\n      pop\n      dup2\n      swap1\n      sstore\n      pop\n        /* \"w9_liquidity_lending_pool_hw.sol\":6385:6393  borrower */\n      dup4\n        /* \"w9_liquidity_lending_pool_hw.sol\":6375:6424  Liquidate(borrower, collateralAmount, debtAmount) */\n      0xffffffffffffffffffffffffffffffffffffffff\n      and\n      0x3c4b1d42b9c7fa283f6fe657533f6a5a8a7ad1d36f9ef1d9d89ad04485e10d2c\n        /* \"w9_liquidity_lending_pool_hw.sol\":6395:6411  collateralAmount */\n      dup4\n        /* \"w9_liquidity_lending_pool_hw.sol\":6413:6423  debtAmount */\n      dup6\n        /* \"w9_liquidity_lending_pool_hw.sol\":6375:6424  Liquidate(borrower, collateralAmount, debtAmount) */\n      mload(0x40)\n      tag_262\n      swap3\n      swap2\n      swap1\n      tag_263\n      jump\t// in\n    tag_262:\n      mload(0x40)\n      dup1\n      swap2\n      sub\n      swap1\n      log2\n        /* \"w9_liquidity_lending_pool_hw.sol\":5696:6431  {... */\n      pop\n      pop\n      pop\n        /* \"w9_liquidity_lending_pool_hw.sol\":5640:6431  function liquidate(address borrower) external onlyOwner {... */\n      pop\n      jump\t// out\n        /* \"w9_liquidity_lending_pool_hw.sol\":566:592  uint256 public loanCounter */\n    tag_68:\n      sload(0x07)\n      dup2\n      jump\t// out\n        /* \"w9_liquidity_lending_pool_hw.sol\":10857:10992  function getUserAccruedFees(address user) public view returns (uint256) {... */\n    tag_73:\n        /* \"w9_liquidity_lending_pool_hw.sol\":10920:10927  uint256 */\n      0x00\n        /* \"w9_liquidity_lending_pool_hw.sol\":10962:10985  calculateFeeShare(user) */\n      tag_265\n        /* \"w9_liquidity_lending_pool_hw.sol\":10980:10984  user */\n      dup3\n        /* \"w9_liquidity_lending_pool_hw.sol\":10962:10979  calculateFeeShare */\n      tag_144\n        /* \"w9_liquidity_lending_pool_hw.sol\":10962:10985  calculateFeeShare(user) */\n      jump\t// in\n    tag_265:\n        /* \"w9_liquidity_lending_pool_hw.sol\":10946:10959  accruedReward */\n      sload(0x0c)\n        /* \"w9_liquidity_lending_pool_hw.sol\":10946:10985  accruedReward * calculateFeeShare(user) */\n      tag_266\n      swap2\n      swap1\n      tag_267\n      jump\t// in\n    tag_266:\n        /* \"w9_liquidity_lending_pool_hw.sol\":10939:10985  return accruedReward * calculateFeeShare(user) */\n      swap1\n      pop\n        /* \"w9_liquidity_lending_pool_hw.sol\":10857:10992  function getUserAccruedFees(address user) public view returns (uint256) {... */\n      swap2\n      swap1\n      pop\n      jump\t// out\n        /* \"w9_liquidity_lending_pool_hw.sol\":4738:5634  function repay() external payable {... */\n    tag_76:\n        /* \"w9_liquidity_lending_pool_hw.sol\":4815:4816  0 */\n      0x00\n        /* \"w9_liquidity_lending_pool_hw.sol\":4790:4800  borrowings */\n      0x04\n        /* \"w9_liquidity_lending_pool_hw.sol\":4790:4812  borrowings[msg.sender] */\n      0x00\n        /* \"w9_liquidity_lending_pool_hw.sol\":4801:4811  msg.sender */\n      caller\n        /* \"w9_liquidity_lending_pool_hw.sol\":4790:4812  borrowings[msg.sender] */\n      0xffffffffffffffffffffffffffffffffffffffff\n      and\n      0xffffffffffffffffffffffffffffffffffffffff\n      and\n      dup2\n      mstore\n      0x20\n      add\n      swap1\n      dup2\n      mstore\n      0x20\n      add\n      0x00\n      keccak256\n      sload\n        /* \"w9_liquidity_lending_pool_hw.sol\":4790:4816  borrowings[msg.sender] > 0 */\n      gt\n        /* \"w9_liquidity_lending_pool_hw.sol\":4782:4850  require(borrowings[msg.sender] > 0, \"You have no outstanding loans\") */\n      tag_269\n      jumpi\n      mload(0x40)\n      0x08c379a000000000000000000000000000000000000000000000000000000000\n      dup2\n      mstore\n      0x04\n      add\n      tag_270\n      swap1\n      tag_271\n      jump\t// in\n    tag_270:\n      mload(0x40)\n      dup1\n      swap2\n      sub\n      swap1\n      revert\n    tag_269:\n        /* \"w9_liquidity_lending_pool_hw.sol\":4869:4885  uint256 interest */\n      0x00\n        /* \"w9_liquidity_lending_pool_hw.sol\":4930:4933  100 */\n      0x64\n        /* \"w9_liquidity_lending_pool_hw.sol\":4914:4926  interestRate */\n      sload(0x06)\n        /* \"w9_liquidity_lending_pool_hw.sol\":4889:4899  borrowings */\n      0x04\n        /* \"w9_liquidity_lending_pool_hw.sol\":4889:4911  borrowings[msg.sender] */\n      0x00\n        /* \"w9_liquidity_lending_pool_hw.sol\":4900:4910  msg.sender */\n      caller\n        /* \"w9_liquidity_lending_pool_hw.sol\":4889:4911  borrowings[msg.sender] */\n      0xffffffffffffffffffffffffffffffffffffffff\n      and\n      0xffffffffffffffffffffffffffffffffffffffff\n      and\n      dup2\n      mstore\n      0x20\n      add\n      swap1\n      dup2\n      mstore\n      0x20\n      add\n      0x00\n      keccak256\n      sload\n        /* \"w9_liquidity_lending_pool_hw.sol\":4889:4926  borrowings[msg.sender] * interestRate */\n      tag_272\n      swap2\n      swap1\n      tag_267\n      jump\t// in\n    tag_272:\n        /* \"w9_liquidity_lending_pool_hw.sol\":4888:4933  (borrowings[msg.sender] * interestRate) / 100 */\n      tag_273\n      swap2\n      swap1\n      tag_274\n      jump\t// in\n    tag_273:\n        /* \"w9_liquidity_lending_pool_hw.sol\":4869:4933  uint256 interest = (borrowings[msg.sender] * interestRate) / 100 */\n      swap1\n      pop\n        /* \"w9_liquidity_lending_pool_hw.sol\":4943:4965  uint256 totalRepayment */\n      0x00\n        /* \"w9_liquidity_lending_pool_hw.sol\":4993:5001  interest */\n      dup2\n        /* \"w9_liquidity_lending_pool_hw.sol\":4968:4978  borrowings */\n      0x04\n        /* \"w9_liquidity_lending_pool_hw.sol\":4968:4990  borrowings[msg.sender] */\n      0x00\n        /* \"w9_liquidity_lending_pool_hw.sol\":4979:4989  msg.sender */\n      caller\n        /* \"w9_liquidity_lending_pool_hw.sol\":4968:4990  borrowings[msg.sender] */\n      0xffffffffffffffffffffffffffffffffffffffff\n      and\n      0xffffffffffffffffffffffffffffffffffffffff\n      and\n      dup2\n      mstore\n      0x20\n      add\n      swap1\n      dup2\n      mstore\n      0x20\n      add\n      0x00\n      keccak256\n      sload\n        /* \"w9_liquidity_lending_pool_hw.sol\":4968:5001  borrowings[msg.sender] + interest */\n      tag_275\n      swap2\n      swap1\n      tag_261\n      jump\t// in\n    tag_275:\n        /* \"w9_liquidity_lending_pool_hw.sol\":4943:5001  uint256 totalRepayment = borrowings[msg.sender] + interest */\n      swap1\n      pop\n        /* \"w9_liquidity_lending_pool_hw.sol\":5032:5046  totalRepayment */\n      dup1\n        /* \"w9_liquidity_lending_pool_hw.sol\":5019:5028  msg.value */\n      callvalue\n        /* \"w9_liquidity_lending_pool_hw.sol\":5019:5046  msg.value >= totalRepayment */\n      lt\n      iszero\n        /* \"w9_liquidity_lending_pool_hw.sol\":5011:5084  require(msg.value >= totalRepayment, \"Include interest in the repayment\") */\n      tag_276\n      jumpi\n      mload(0x40)\n      0x08c379a000000000000000000000000000000000000000000000000000000000\n      dup2\n      mstore\n      0x04\n      add\n      tag_277\n      swap1\n      tag_278\n      jump\t// in\n    tag_277:\n      mload(0x40)\n      dup1\n      swap2\n      sub\n      swap1\n      revert\n    tag_276:\n        /* \"w9_liquidity_lending_pool_hw.sol\":5095:5121  uint256 collateralToReturn */\n      0x00\n        /* \"w9_liquidity_lending_pool_hw.sol\":5124:5135  collaterals */\n      dup1\n        /* \"w9_liquidity_lending_pool_hw.sol\":5124:5147  collaterals[msg.sender] */\n      0x00\n        /* \"w9_liquidity_lending_pool_hw.sol\":5136:5146  msg.sender */\n      caller\n        /* \"w9_liquidity_lending_pool_hw.sol\":5124:5147  collaterals[msg.sender] */\n      0xffffffffffffffffffffffffffffffffffffffff\n      and\n      0xffffffffffffffffffffffffffffffffffffffff\n      and\n      dup2\n      mstore\n      0x20\n      add\n      swap1\n      dup2\n      mstore\n      0x20\n      add\n      0x00\n      keccak256\n      sload\n        /* \"w9_liquidity_lending_pool_hw.sol\":5095:5147  uint256 collateralToReturn = collaterals[msg.sender] */\n      swap1\n      pop\n        /* \"w9_liquidity_lending_pool_hw.sol\":5186:5187  0 */\n      0x00\n        /* \"w9_liquidity_lending_pool_hw.sol\":5165:5183  collateralToReturn */\n      dup2\n        /* \"w9_liquidity_lending_pool_hw.sol\":5165:5187  collateralToReturn > 0 */\n      gt\n        /* \"w9_liquidity_lending_pool_hw.sol\":5157:5215  require(collateralToReturn > 0, \"No collateral to return\") */\n      tag_279\n      jumpi\n      mload(0x40)\n      0x08c379a000000000000000000000000000000000000000000000000000000000\n      dup2\n      mstore\n      0x04\n      add\n      tag_280\n      swap1\n      tag_281\n      jump\t// in\n    tag_280:\n      mload(0x40)\n      dup1\n      swap2\n      sub\n      swap1\n      revert\n    tag_279:\n        /* \"w9_liquidity_lending_pool_hw.sol\":5285:5295  borrowings */\n      0x04\n        /* \"w9_liquidity_lending_pool_hw.sol\":5285:5307  borrowings[msg.sender] */\n      0x00\n        /* \"w9_liquidity_lending_pool_hw.sol\":5296:5306  msg.sender */\n      caller\n        /* \"w9_liquidity_lending_pool_hw.sol\":5285:5307  borrowings[msg.sender] */\n      0xffffffffffffffffffffffffffffffffffffffff\n      and\n      0xffffffffffffffffffffffffffffffffffffffff\n      and\n      dup2\n      mstore\n      0x20\n      add\n      swap1\n      dup2\n      mstore\n      0x20\n      add\n      0x00\n      keccak256\n      sload\n        /* \"w9_liquidity_lending_pool_hw.sol\":5267:5281  totalLiquidity */\n      0x05\n      0x00\n        /* \"w9_liquidity_lending_pool_hw.sol\":5267:5307  totalLiquidity += borrowings[msg.sender] */\n      dup3\n      dup3\n      sload\n      tag_282\n      swap2\n      swap1\n      tag_261\n      jump\t// in\n    tag_282:\n      swap3\n      pop\n      pop\n      dup2\n      swap1\n      sstore\n      pop\n        /* \"w9_liquidity_lending_pool_hw.sol\":5342:5343  0 */\n      0x00\n        /* \"w9_liquidity_lending_pool_hw.sol\":5317:5327  borrowings */\n      0x04\n        /* \"w9_liquidity_lending_pool_hw.sol\":5317:5339  borrowings[msg.sender] */\n      0x00\n        /* \"w9_liquidity_lending_pool_hw.sol\":5328:5338  msg.sender */\n      caller\n        /* \"w9_liquidity_lending_pool_hw.sol\":5317:5339  borrowings[msg.sender] */\n      0xffffffffffffffffffffffffffffffffffffffff\n      and\n      0xffffffffffffffffffffffffffffffffffffffff\n      and\n      dup2\n      mstore\n      0x20\n      add\n      swap1\n      dup2\n      mstore\n      0x20\n      add\n      0x00\n      keccak256\n        /* \"w9_liquidity_lending_pool_hw.sol\":5317:5343  borrowings[msg.sender] = 0 */\n      dup2\n      swap1\n      sstore\n      pop\n        /* \"w9_liquidity_lending_pool_hw.sol\":5379:5380  0 */\n      0x00\n        /* \"w9_liquidity_lending_pool_hw.sol\":5353:5364  collaterals */\n      dup1\n        /* \"w9_liquidity_lending_pool_hw.sol\":5353:5376  collaterals[msg.sender] */\n      0x00\n        /* \"w9_liquidity_lending_pool_hw.sol\":5365:5375  msg.sender */\n      caller\n        /* \"w9_liquidity_lending_pool_hw.sol\":5353:5376  collaterals[msg.sender] */\n      0xffffffffffffffffffffffffffffffffffffffff\n      and\n      0xffffffffffffffffffffffffffffffffffffffff\n      and\n      dup2\n      mstore\n      0x20\n      add\n      swap1\n      dup2\n      mstore\n      0x20\n      add\n      0x00\n      keccak256\n        /* \"w9_liquidity_lending_pool_hw.sol\":5353:5380  collaterals[msg.sender] = 0 */\n      dup2\n      swap1\n      sstore\n      pop\n        /* \"w9_liquidity_lending_pool_hw.sol\":5433:5445  bool success */\n      0x00\n        /* \"w9_liquidity_lending_pool_hw.sol\":5459:5469  msg.sender */\n      caller\n        /* \"w9_liquidity_lending_pool_hw.sol\":5451:5475  payable(msg.sender).call */\n      0xffffffffffffffffffffffffffffffffffffffff\n      and\n        /* \"w9_liquidity_lending_pool_hw.sol\":5483:5501  collateralToReturn */\n      dup3\n        /* \"w9_liquidity_lending_pool_hw.sol\":5451:5506  payable(msg.sender).call{value: collateralToReturn}(\"\") */\n      mload(0x40)\n      tag_283\n      swap1\n      tag_210\n      jump\t// in\n    tag_283:\n      0x00\n      mload(0x40)\n      dup1\n      dup4\n      sub\n      dup2\n      dup6\n      dup8\n      gas\n      call\n      swap3\n      pop\n      pop\n      pop\n      returndatasize\n      dup1\n      0x00\n      dup2\n      eq\n      tag_286\n      jumpi\n      mload(0x40)\n      swap2\n      pop\n      and(add(returndatasize, 0x3f), not(0x1f))\n      dup3\n      add\n      0x40\n      mstore\n      returndatasize\n      dup3\n      mstore\n      returndatasize\n      0x00\n      0x20\n      dup5\n      add\n      returndatacopy\n      jump(tag_285)\n    tag_286:\n      0x60\n      swap2\n      pop\n    tag_285:\n      pop\n        /* \"w9_liquidity_lending_pool_hw.sol\":5432:5506  (bool success, ) = payable(msg.sender).call{value: collateralToReturn}(\"\") */\n      pop\n      swap1\n      pop\n        /* \"w9_liquidity_lending_pool_hw.sol\":5524:5531  success */\n      dup1\n        /* \"w9_liquidity_lending_pool_hw.sol\":5516:5563  require(success, \"Failed to return collateral\") */\n      tag_287\n      jumpi\n      mload(0x40)\n      0x08c379a000000000000000000000000000000000000000000000000000000000\n      dup2\n      mstore\n      0x04\n      add\n      tag_288\n      swap1\n      tag_289\n      jump\t// in\n    tag_288:\n      mload(0x40)\n      dup1\n      swap2\n      sub\n      swap1\n      revert\n    tag_287:\n        /* \"w9_liquidity_lending_pool_hw.sol\":5585:5595  msg.sender */\n      caller\n        /* \"w9_liquidity_lending_pool_hw.sol\":5579:5627  Repay(msg.sender, msg.value, collateralToReturn) */\n      0xffffffffffffffffffffffffffffffffffffffff\n      and\n      0x77c6871227e5d2dec8dadd5354f78453203e22e669cd0ec4c19d9a8c5edb31d0\n        /* \"w9_liquidity_lending_pool_hw.sol\":5597:5606  msg.value */\n      callvalue\n        /* \"w9_liquidity_lending_pool_hw.sol\":5608:5626  collateralToReturn */\n      dup5\n        /* \"w9_liquidity_lending_pool_hw.sol\":5579:5627  Repay(msg.sender, msg.value, collateralToReturn) */\n      mload(0x40)\n      tag_290\n      swap3\n      swap2\n      swap1\n      tag_263\n      jump\t// in\n    tag_290:\n      mload(0x40)\n      dup1\n      swap2\n      sub\n      swap1\n      log2\n        /* \"w9_liquidity_lending_pool_hw.sol\":4772:5634  {... */\n      pop\n      pop\n      pop\n      pop\n        /* \"w9_liquidity_lending_pool_hw.sol\":4738:5634  function repay() external payable {... */\n      jump\t// out\n        /* \"w9_liquidity_lending_pool_hw.sol\":12011:12163  function getUserBalance(address a) public view returns (uint256){... */\n    tag_80:\n        /* \"w9_liquidity_lending_pool_hw.sol\":12067:12074  uint256 */\n      0x00\n        /* \"w9_liquidity_lending_pool_hw.sol\":12093:12107  isDepositor(a) */\n      tag_292\n        /* \"w9_liquidity_lending_pool_hw.sol\":12105:12106  a */\n      dup3\n        /* \"w9_liquidity_lending_pool_hw.sol\":12093:12104  isDepositor */\n      tag_59\n        /* \"w9_liquidity_lending_pool_hw.sol\":12093:12107  isDepositor(a) */\n      jump\t// in\n    tag_292:\n        /* \"w9_liquidity_lending_pool_hw.sol\":12085:12128  require(isDepositor(a), \"Not a depositor.\") */\n      tag_293\n      jumpi\n      mload(0x40)\n      0x08c379a000000000000000000000000000000000000000000000000000000000\n      dup2\n      mstore\n      0x04\n      add\n      tag_294\n      swap1\n      tag_295\n      jump\t// in\n    tag_294:\n      mload(0x40)\n      dup1\n      swap2\n      sub\n      swap1\n      revert\n    tag_293:\n        /* \"w9_liquidity_lending_pool_hw.sol\":12145:12153  deposits */\n      0x03\n        /* \"w9_liquidity_lending_pool_hw.sol\":12145:12156  deposits[a] */\n      0x00\n        /* \"w9_liquidity_lending_pool_hw.sol\":12154:12155  a */\n      dup4\n        /* \"w9_liquidity_lending_pool_hw.sol\":12145:12156  deposits[a] */\n      0xffffffffffffffffffffffffffffffffffffffff\n      and\n      0xffffffffffffffffffffffffffffffffffffffff\n      and\n      dup2\n      mstore\n      0x20\n      add\n      swap1\n      dup2\n      mstore\n      0x20\n      add\n      0x00\n      keccak256\n      sload\n        /* \"w9_liquidity_lending_pool_hw.sol\":12138:12156  return deposits[a] */\n      swap1\n      pop\n        /* \"w9_liquidity_lending_pool_hw.sol\":12011:12163  function getUserBalance(address a) public view returns (uint256){... */\n      swap2\n      swap1\n      pop\n      jump\t// out\n        /* \"w9_liquidity_lending_pool_hw.sol\":869:921  uint256 public constant contractFeeFromRepayment = 1 */\n    tag_84:\n        /* \"w9_liquidity_lending_pool_hw.sol\":920:921  1 */\n      0x01\n        /* \"w9_liquidity_lending_pool_hw.sol\":869:921  uint256 public constant contractFeeFromRepayment = 1 */\n      dup2\n      jump\t// out\n        /* \"w9_liquidity_lending_pool_hw.sol\":12169:12551  function getLiquidityPoolWithLoan() public view returns (uint256) { //Liquidity pool that includes outstanding loan too... */\n    tag_88:\n        /* \"w9_liquidity_lending_pool_hw.sol\":12226:12233  uint256 */\n      0x00\n        /* \"w9_liquidity_lending_pool_hw.sol\":12297:12313  uint256 borrowed */\n      dup1\n        /* \"w9_liquidity_lending_pool_hw.sol\":12316:12317  0 */\n      0x00\n        /* \"w9_liquidity_lending_pool_hw.sol\":12297:12317  uint256 borrowed = 0 */\n      swap1\n      pop\n        /* \"w9_liquidity_lending_pool_hw.sol\":12332:12341  uint256 i */\n      0x00\n        /* \"w9_liquidity_lending_pool_hw.sol\":12344:12345  1 */\n      0x01\n        /* \"w9_liquidity_lending_pool_hw.sol\":12332:12345  uint256 i = 1 */\n      swap1\n      pop\n        /* \"w9_liquidity_lending_pool_hw.sol\":12327:12503  for (uint256 i = 1; i <= loanCounter; i++) {... */\n    tag_297:\n        /* \"w9_liquidity_lending_pool_hw.sol\":12352:12363  loanCounter */\n      sload(0x07)\n        /* \"w9_liquidity_lending_pool_hw.sol\":12347:12348  i */\n      dup2\n        /* \"w9_liquidity_lending_pool_hw.sol\":12347:12363  i <= loanCounter */\n      gt\n        /* \"w9_liquidity_lending_pool_hw.sol\":12327:12503  for (uint256 i = 1; i <= loanCounter; i++) {... */\n      tag_298\n      jumpi\n        /* \"w9_liquidity_lending_pool_hw.sol\":12388:12393  loans */\n      0x08\n        /* \"w9_liquidity_lending_pool_hw.sol\":12388:12396  loans[i] */\n      0x00\n        /* \"w9_liquidity_lending_pool_hw.sol\":12394:12395  i */\n      dup3\n        /* \"w9_liquidity_lending_pool_hw.sol\":12388:12396  loans[i] */\n      dup2\n      mstore\n      0x20\n      add\n      swap1\n      dup2\n      mstore\n      0x20\n      add\n      0x00\n      keccak256\n        /* \"w9_liquidity_lending_pool_hw.sol\":12388:12405  loans[i].isActive */\n      0x05\n      add\n      0x01\n      swap1\n      sload\n      swap1\n      0x0100\n      exp\n      swap1\n      div\n      0xff\n      and\n        /* \"w9_liquidity_lending_pool_hw.sol\":12388:12427  loans[i].isActive && !loans[i].isRepaid */\n      dup1\n      iszero\n      tag_300\n      jumpi\n      pop\n        /* \"w9_liquidity_lending_pool_hw.sol\":12410:12415  loans */\n      0x08\n        /* \"w9_liquidity_lending_pool_hw.sol\":12410:12418  loans[i] */\n      0x00\n        /* \"w9_liquidity_lending_pool_hw.sol\":12416:12417  i */\n      dup3\n        /* \"w9_liquidity_lending_pool_hw.sol\":12410:12418  loans[i] */\n      dup2\n      mstore\n      0x20\n      add\n      swap1\n      dup2\n      mstore\n      0x20\n      add\n      0x00\n      keccak256\n        /* \"w9_liquidity_lending_pool_hw.sol\":12410:12427  loans[i].isRepaid */\n      0x05\n      add\n      0x00\n      swap1\n      sload\n      swap1\n      0x0100\n      exp\n      swap1\n      div\n      0xff\n      and\n        /* \"w9_liquidity_lending_pool_hw.sol\":12409:12427  !loans[i].isRepaid */\n      iszero\n        /* \"w9_liquidity_lending_pool_hw.sol\":12388:12427  loans[i].isActive && !loans[i].isRepaid */\n    tag_300:\n        /* \"w9_liquidity_lending_pool_hw.sol\":12384:12493  if (loans[i].isActive && !loans[i].isRepaid) {... */\n      iszero\n      tag_301\n      jumpi\n        /* \"w9_liquidity_lending_pool_hw.sol\":12459:12464  loans */\n      0x08\n        /* \"w9_liquidity_lending_pool_hw.sol\":12459:12467  loans[i] */\n      0x00\n        /* \"w9_liquidity_lending_pool_hw.sol\":12465:12466  i */\n      dup3\n        /* \"w9_liquidity_lending_pool_hw.sol\":12459:12467  loans[i] */\n      dup2\n      mstore\n      0x20\n      add\n      swap1\n      dup2\n      mstore\n      0x20\n      add\n      0x00\n      keccak256\n        /* \"w9_liquidity_lending_pool_hw.sol\":12459:12478  loans[i].loanAmount */\n      0x01\n      add\n      sload\n        /* \"w9_liquidity_lending_pool_hw.sol\":12447:12478  borrowed += loans[i].loanAmount */\n      dup3\n      tag_302\n      swap2\n      swap1\n      tag_261\n      jump\t// in\n    tag_302:\n      swap2\n      pop\n        /* \"w9_liquidity_lending_pool_hw.sol\":12384:12493  if (loans[i].isActive && !loans[i].isRepaid) {... */\n    tag_301:\n        /* \"w9_liquidity_lending_pool_hw.sol\":12365:12368  i++ */\n      dup1\n      dup1\n      tag_303\n      swap1\n      tag_304\n      jump\t// in\n    tag_303:\n      swap2\n      pop\n      pop\n        /* \"w9_liquidity_lending_pool_hw.sol\":12327:12503  for (uint256 i = 1; i <= loanCounter; i++) {... */\n      jump(tag_297)\n    tag_298:\n      pop\n        /* \"w9_liquidity_lending_pool_hw.sol\":12536:12544  borrowed */\n      dup1\n        /* \"w9_liquidity_lending_pool_hw.sol\":12519:12533  totalLiquidity */\n      sload(0x05)\n        /* \"w9_liquidity_lending_pool_hw.sol\":12519:12544  totalLiquidity + borrowed */\n      tag_305\n      swap2\n      swap1\n      tag_261\n      jump\t// in\n    tag_305:\n        /* \"w9_liquidity_lending_pool_hw.sol\":12512:12544  return totalLiquidity + borrowed */\n      swap2\n      pop\n      pop\n        /* \"w9_liquidity_lending_pool_hw.sol\":12169:12551  function getLiquidityPoolWithLoan() public view returns (uint256) { //Liquidity pool that includes outstanding loan too... */\n      swap1\n      jump\t// out\n        /* \"w9_liquidity_lending_pool_hw.sol\":6561:6668  function getContractBalance() external view returns (uint256) {... */\n    tag_92:\n        /* \"w9_liquidity_lending_pool_hw.sol\":6614:6621  uint256 */\n      0x00\n        /* \"w9_liquidity_lending_pool_hw.sol\":6640:6661  address(this).balance */\n      selfbalance\n        /* \"w9_liquidity_lending_pool_hw.sol\":6633:6661  return address(this).balance */\n      swap1\n      pop\n        /* \"w9_liquidity_lending_pool_hw.sol\":6561:6668  function getContractBalance() external view returns (uint256) {... */\n      swap1\n      jump\t// out\n        /* \"w9_liquidity_lending_pool_hw.sol\":497:528  uint256 public interestRate = 5 */\n    tag_96:\n      sload(0x06)\n      dup2\n      jump\t// out\n        /* \"w9_liquidity_lending_pool_hw.sol\":835:863  uint256 public accruedReward */\n    tag_100:\n      sload(0x0c)\n      dup2\n      jump\t// out\n        /* \"w9_liquidity_lending_pool_hw.sol\":215:235  address public owner */\n    tag_104:\n      0x01\n      0x00\n      swap1\n      sload\n      swap1\n      0x0100\n      exp\n      swap1\n      div\n      0xffffffffffffffffffffffffffffffffffffffff\n      and\n      dup2\n      jump\t// out\n        /* \"w9_liquidity_lending_pool_hw.sol\":11910:12005  function getLiquidityPool() public view returns (uint256){... */\n    tag_109:\n        /* \"w9_liquidity_lending_pool_hw.sol\":11959:11966  uint256 */\n      0x00\n        /* \"w9_liquidity_lending_pool_hw.sol\":11984:11998  totalLiquidity */\n      sload(0x05)\n        /* \"w9_liquidity_lending_pool_hw.sol\":11977:11998  return totalLiquidity */\n      swap1\n      pop\n        /* \"w9_liquidity_lending_pool_hw.sol\":11910:12005  function getLiquidityPool() public view returns (uint256){... */\n      swap1\n      jump\t// out\n        /* \"w9_liquidity_lending_pool_hw.sol\":347:392  mapping(address => uint256) public borrowings */\n    tag_114:\n      mstore(0x20, 0x04)\n      dup1\n      0x00\n      mstore\n      keccak256(0x00, 0x40)\n      0x00\n      swap2\n      pop\n      swap1\n      pop\n      sload\n      dup2\n      jump\t// out\n        /* \"w9_liquidity_lending_pool_hw.sol\":6437:6555  function getCollateral(address borrower) external view returns (uint256) {... */\n    tag_119:\n        /* \"w9_liquidity_lending_pool_hw.sol\":6501:6508  uint256 */\n      0x00\n        /* \"w9_liquidity_lending_pool_hw.sol\":6527:6538  collaterals */\n      dup1\n        /* \"w9_liquidity_lending_pool_hw.sol\":6527:6548  collaterals[borrower] */\n      0x00\n        /* \"w9_liquidity_lending_pool_hw.sol\":6539:6547  borrower */\n      dup4\n        /* \"w9_liquidity_lending_pool_hw.sol\":6527:6548  collaterals[borrower] */\n      0xffffffffffffffffffffffffffffffffffffffff\n      and\n      0xffffffffffffffffffffffffffffffffffffffff\n      and\n      dup2\n      mstore\n      0x20\n      add\n      swap1\n      dup2\n      mstore\n      0x20\n      add\n      0x00\n      keccak256\n      sload\n        /* \"w9_liquidity_lending_pool_hw.sol\":6520:6548  return collaterals[borrower] */\n      swap1\n      pop\n        /* \"w9_liquidity_lending_pool_hw.sol\":6437:6555  function getCollateral(address borrower) external view returns (uint256) {... */\n      swap2\n      swap1\n      pop\n      jump\t// out\n        /* \"w9_liquidity_lending_pool_hw.sol\":7019:8343  function takeLoan(uint256 amount, uint256 loan_duration) external payable {... */\n    tag_124:\n        /* \"w9_liquidity_lending_pool_hw.sol\":7120:7121  0 */\n      0x00\n        /* \"w9_liquidity_lending_pool_hw.sol\":7111:7117  amount */\n      dup3\n        /* \"w9_liquidity_lending_pool_hw.sol\":7111:7121  amount > 0 */\n      gt\n        /* \"w9_liquidity_lending_pool_hw.sol\":7103:7160  require(amount > 0, \"Loan amount must be greater than 0\") */\n      tag_310\n      jumpi\n      mload(0x40)\n      0x08c379a000000000000000000000000000000000000000000000000000000000\n      dup2\n      mstore\n      0x04\n      add\n      tag_311\n      swap1\n      tag_312\n      jump\t// in\n    tag_311:\n      mload(0x40)\n      dup1\n      swap2\n      sub\n      swap1\n      revert\n    tag_310:\n        /* \"w9_liquidity_lending_pool_hw.sol\":7188:7202  totalLiquidity */\n      sload(0x05)\n        /* \"w9_liquidity_lending_pool_hw.sol\":7178:7184  amount */\n      dup3\n        /* \"w9_liquidity_lending_pool_hw.sol\":7178:7202  amount <= totalLiquidity */\n      gt\n      iszero\n        /* \"w9_liquidity_lending_pool_hw.sol\":7170:7235  require(amount <= totalLiquidity, \"Not enough liquidity in pool\") */\n      tag_313\n      jumpi\n      mload(0x40)\n      0x08c379a000000000000000000000000000000000000000000000000000000000\n      dup2\n      mstore\n      0x04\n      add\n      tag_314\n      swap1\n      tag_205\n      jump\t// in\n    tag_314:\n      mload(0x40)\n      dup1\n      swap2\n      sub\n      swap1\n      revert\n    tag_313:\n        /* \"w9_liquidity_lending_pool_hw.sol\":7283:7286  100 */\n      0x64\n        /* \"w9_liquidity_lending_pool_hw.sol\":7276:7279  150 */\n      0x96\n        /* \"w9_liquidity_lending_pool_hw.sol\":7267:7273  amount */\n      dup4\n        /* \"w9_liquidity_lending_pool_hw.sol\":7267:7279  amount * 150 */\n      tag_315\n      swap2\n      swap1\n      tag_267\n      jump\t// in\n    tag_315:\n        /* \"w9_liquidity_lending_pool_hw.sol\":7266:7286  (amount * 150) / 100 */\n      tag_316\n      swap2\n      swap1\n      tag_274\n      jump\t// in\n    tag_316:\n        /* \"w9_liquidity_lending_pool_hw.sol\":7253:7262  msg.value */\n      callvalue\n        /* \"w9_liquidity_lending_pool_hw.sol\":7253:7286  msg.value >= (amount * 150) / 100 */\n      lt\n      iszero\n        /* \"w9_liquidity_lending_pool_hw.sol\":7245:7329  require(msg.value >= (amount * 150) / 100, \"Collateral must be 150% of loan amount\") */\n      tag_317\n      jumpi\n      mload(0x40)\n      0x08c379a000000000000000000000000000000000000000000000000000000000\n      dup2\n      mstore\n      0x04\n      add\n      tag_318\n      swap1\n      tag_319\n      jump\t// in\n    tag_318:\n      mload(0x40)\n      dup1\n      swap2\n      sub\n      swap1\n      revert\n    tag_317:\n        /* \"w9_liquidity_lending_pool_hw.sol\":7440:7463  uint256 repaymentAmount */\n      0x00\n        /* \"w9_liquidity_lending_pool_hw.sol\":7466:7497  requiredRepaymentAmount(amount) */\n      tag_320\n        /* \"w9_liquidity_lending_pool_hw.sol\":7490:7496  amount */\n      dup4\n        /* \"w9_liquidity_lending_pool_hw.sol\":7466:7489  requiredRepaymentAmount */\n      tag_183\n        /* \"w9_liquidity_lending_pool_hw.sol\":7466:7497  requiredRepaymentAmount(amount) */\n      jump\t// in\n    tag_320:\n        /* \"w9_liquidity_lending_pool_hw.sol\":7440:7497  uint256 repaymentAmount = requiredRepaymentAmount(amount) */\n      swap1\n      pop\n        /* \"w9_liquidity_lending_pool_hw.sol\":7507:7528  uint256 repaymentTime */\n      0x00\n        /* \"w9_liquidity_lending_pool_hw.sol\":7565:7570  86400 */\n      0x015180\n        /* \"w9_liquidity_lending_pool_hw.sol\":7549:7562  loan_duration */\n      dup4\n        /* \"w9_liquidity_lending_pool_hw.sol\":7549:7570  loan_duration * 86400 */\n      tag_321\n      swap2\n      swap1\n      tag_267\n      jump\t// in\n    tag_321:\n        /* \"w9_liquidity_lending_pool_hw.sol\":7531:7546  block.timestamp */\n      timestamp\n        /* \"w9_liquidity_lending_pool_hw.sol\":7531:7570  block.timestamp + loan_duration * 86400 */\n      tag_322\n      swap2\n      swap1\n      tag_261\n      jump\t// in\n    tag_322:\n        /* \"w9_liquidity_lending_pool_hw.sol\":7507:7570  uint256 repaymentTime = block.timestamp + loan_duration * 86400 */\n      swap1\n      pop\n        /* \"w9_liquidity_lending_pool_hw.sol\":7637:7648  loanCounter */\n      0x07\n      0x00\n        /* \"w9_liquidity_lending_pool_hw.sol\":7637:7650  loanCounter++ */\n      dup2\n      sload\n      dup1\n      swap3\n      swap2\n      swap1\n      tag_323\n      swap1\n      tag_304\n      jump\t// in\n    tag_323:\n      swap2\n      swap1\n      pop\n      sstore\n      pop\n        /* \"w9_liquidity_lending_pool_hw.sol\":7681:7954  Loan({... */\n      mload(0x40)\n      dup1\n      0xe0\n      add\n      0x40\n      mstore\n      dup1\n        /* \"w9_liquidity_lending_pool_hw.sol\":7710:7720  msg.sender */\n      caller\n        /* \"w9_liquidity_lending_pool_hw.sol\":7681:7954  Loan({... */\n      0xffffffffffffffffffffffffffffffffffffffff\n      and\n      dup2\n      mstore\n      0x20\n      add\n        /* \"w9_liquidity_lending_pool_hw.sol\":7746:7752  amount */\n      dup6\n        /* \"w9_liquidity_lending_pool_hw.sol\":7681:7954  Loan({... */\n      dup2\n      mstore\n      0x20\n      add\n        /* \"w9_liquidity_lending_pool_hw.sol\":7780:7793  interest_rate */\n      sload(0x02)\n        /* \"w9_liquidity_lending_pool_hw.sol\":7681:7954  Loan({... */\n      dup2\n      mstore\n      0x20\n      add\n        /* \"w9_liquidity_lending_pool_hw.sol\":7824:7839  repaymentAmount */\n      dup4\n        /* \"w9_liquidity_lending_pool_hw.sol\":7681:7954  Loan({... */\n      dup2\n      mstore\n      0x20\n      add\n        /* \"w9_liquidity_lending_pool_hw.sol\":7873:7886  repaymentTime */\n      dup3\n        /* \"w9_liquidity_lending_pool_hw.sol\":7681:7954  Loan({... */\n      dup2\n      mstore\n      0x20\n      add\n        /* \"w9_liquidity_lending_pool_hw.sol\":7910:7915  false */\n      0x00\n        /* \"w9_liquidity_lending_pool_hw.sol\":7681:7954  Loan({... */\n      iszero\n      iszero\n      dup2\n      mstore\n      0x20\n      add\n        /* \"w9_liquidity_lending_pool_hw.sol\":7939:7943  true */\n      0x01\n        /* \"w9_liquidity_lending_pool_hw.sol\":7681:7954  Loan({... */\n      iszero\n      iszero\n      dup2\n      mstore\n      pop\n        /* \"w9_liquidity_lending_pool_hw.sol\":7660:7665  loans */\n      0x08\n        /* \"w9_liquidity_lending_pool_hw.sol\":7660:7678  loans[loanCounter] */\n      0x00\n        /* \"w9_liquidity_lending_pool_hw.sol\":7666:7677  loanCounter */\n      sload(0x07)\n        /* \"w9_liquidity_lending_pool_hw.sol\":7660:7678  loans[loanCounter] */\n      dup2\n      mstore\n      0x20\n      add\n      swap1\n      dup2\n      mstore\n      0x20\n      add\n      0x00\n      keccak256\n        /* \"w9_liquidity_lending_pool_hw.sol\":7660:7954  loans[loanCounter] = Loan({... */\n      0x00\n      dup3\n      add\n      mload\n      dup2\n      0x00\n      add\n      exp(0x0100, 0x00)\n      dup2\n      sload\n      dup2\n      0xffffffffffffffffffffffffffffffffffffffff\n      mul\n      not\n      and\n      swap1\n      dup4\n      0xffffffffffffffffffffffffffffffffffffffff\n      and\n      mul\n      or\n      swap1\n      sstore\n      pop\n      0x20\n      dup3\n      add\n      mload\n      dup2\n      0x01\n      add\n      sstore\n      0x40\n      dup3\n      add\n      mload\n      dup2\n      0x02\n      add\n      sstore\n      0x60\n      dup3\n      add\n      mload\n      dup2\n      0x03\n      add\n      sstore\n      0x80\n      dup3\n      add\n      mload\n      dup2\n      0x04\n      add\n      sstore\n      0xa0\n      dup3\n      add\n      mload\n      dup2\n      0x05\n      add\n      exp(0x0100, 0x00)\n      dup2\n      sload\n      dup2\n      0xff\n      mul\n      not\n      and\n      swap1\n      dup4\n      iszero\n      iszero\n      mul\n      or\n      swap1\n      sstore\n      pop\n      0xc0\n      dup3\n      add\n      mload\n      dup2\n      0x05\n      add\n      exp(0x0100, 0x01)\n      dup2\n      sload\n      dup2\n      0xff\n      mul\n      not\n      and\n      swap1\n      dup4\n      iszero\n      iszero\n      mul\n      or\n      swap1\n      sstore\n      pop\n      swap1\n      pop\n      pop\n        /* \"w9_liquidity_lending_pool_hw.sol\":7992:8001  userLoans */\n      0x09\n        /* \"w9_liquidity_lending_pool_hw.sol\":7992:8013  userLoans[msg.sender] */\n      0x00\n        /* \"w9_liquidity_lending_pool_hw.sol\":8002:8012  msg.sender */\n      caller\n        /* \"w9_liquidity_lending_pool_hw.sol\":7992:8013  userLoans[msg.sender] */\n      0xffffffffffffffffffffffffffffffffffffffff\n      and\n      0xffffffffffffffffffffffffffffffffffffffff\n      and\n      dup2\n      mstore\n      0x20\n      add\n      swap1\n      dup2\n      mstore\n      0x20\n      add\n      0x00\n      keccak256\n        /* \"w9_liquidity_lending_pool_hw.sol\":8019:8030  loanCounter */\n      sload(0x07)\n        /* \"w9_liquidity_lending_pool_hw.sol\":7992:8031  userLoans[msg.sender].push(loanCounter) */\n      swap1\n      dup1\n      0x01\n      dup2\n      sload\n      add\n      dup1\n      dup3\n      sstore\n      dup1\n      swap2\n      pop\n      pop\n      0x01\n      swap1\n      sub\n      swap1\n      0x00\n      mstore\n      keccak256(0x00, 0x20)\n      add\n      0x00\n      swap1\n      swap2\n      swap1\n      swap2\n      swap1\n      swap2\n      pop\n      sstore\n        /* \"w9_liquidity_lending_pool_hw.sol\":8068:8077  msg.value */\n      callvalue\n        /* \"w9_liquidity_lending_pool_hw.sol\":8041:8052  collaterals */\n      0x00\n        /* \"w9_liquidity_lending_pool_hw.sol\":8041:8064  collaterals[msg.sender] */\n      dup1\n        /* \"w9_liquidity_lending_pool_hw.sol\":8053:8063  msg.sender */\n      caller\n        /* \"w9_liquidity_lending_pool_hw.sol\":8041:8064  collaterals[msg.sender] */\n      0xffffffffffffffffffffffffffffffffffffffff\n      and\n      0xffffffffffffffffffffffffffffffffffffffff\n      and\n      dup2\n      mstore\n      0x20\n      add\n      swap1\n      dup2\n      mstore\n      0x20\n      add\n      0x00\n      keccak256\n      0x00\n        /* \"w9_liquidity_lending_pool_hw.sol\":8041:8077  collaterals[msg.sender] += msg.value */\n      dup3\n      dup3\n      sload\n      tag_325\n      swap2\n      swap1\n      tag_261\n      jump\t// in\n    tag_325:\n      swap3\n      pop\n      pop\n      dup2\n      swap1\n      sstore\n      pop\n        /* \"w9_liquidity_lending_pool_hw.sol\":8105:8111  amount */\n      dup4\n        /* \"w9_liquidity_lending_pool_hw.sol\":8087:8101  totalLiquidity */\n      0x05\n      0x00\n        /* \"w9_liquidity_lending_pool_hw.sol\":8087:8111  totalLiquidity -= amount */\n      dup3\n      dup3\n      sload\n      tag_326\n      swap2\n      swap1\n      tag_207\n      jump\t// in\n    tag_326:\n      swap3\n      pop\n      pop\n      dup2\n      swap1\n      sstore\n      pop\n        /* \"w9_liquidity_lending_pool_hw.sol\":8167:8179  bool success */\n      0x00\n        /* \"w9_liquidity_lending_pool_hw.sol\":8193:8203  msg.sender */\n      caller\n        /* \"w9_liquidity_lending_pool_hw.sol\":8185:8209  payable(msg.sender).call */\n      0xffffffffffffffffffffffffffffffffffffffff\n      and\n        /* \"w9_liquidity_lending_pool_hw.sol\":8217:8223  amount */\n      dup6\n        /* \"w9_liquidity_lending_pool_hw.sol\":8185:8228  payable(msg.sender).call{value: amount}(\"\") */\n      mload(0x40)\n      tag_327\n      swap1\n      tag_210\n      jump\t// in\n    tag_327:\n      0x00\n      mload(0x40)\n      dup1\n      dup4\n      sub\n      dup2\n      dup6\n      dup8\n      gas\n      call\n      swap3\n      pop\n      pop\n      pop\n      returndatasize\n      dup1\n      0x00\n      dup2\n      eq\n      tag_330\n      jumpi\n      mload(0x40)\n      swap2\n      pop\n      and(add(returndatasize, 0x3f), not(0x1f))\n      dup3\n      add\n      0x40\n      mstore\n      returndatasize\n      dup3\n      mstore\n      returndatasize\n      0x00\n      0x20\n      dup5\n      add\n      returndatacopy\n      jump(tag_329)\n    tag_330:\n      0x60\n      swap2\n      pop\n    tag_329:\n      pop\n        /* \"w9_liquidity_lending_pool_hw.sol\":8166:8228  (bool success, ) = payable(msg.sender).call{value: amount}(\"\") */\n      pop\n      swap1\n      pop\n        /* \"w9_liquidity_lending_pool_hw.sol\":8246:8253  success */\n      dup1\n        /* \"w9_liquidity_lending_pool_hw.sol\":8238:8278  require(success, \"Loan transfer failed\") */\n      tag_331\n      jumpi\n      mload(0x40)\n      0x08c379a000000000000000000000000000000000000000000000000000000000\n      dup2\n      mstore\n      0x04\n      add\n      tag_332\n      swap1\n      tag_333\n      jump\t// in\n    tag_332:\n      mload(0x40)\n      dup1\n      swap2\n      sub\n      swap1\n      revert\n    tag_331:\n        /* \"w9_liquidity_lending_pool_hw.sol\":8304:8314  msg.sender */\n      caller\n        /* \"w9_liquidity_lending_pool_hw.sol\":8294:8336  LoanTaken(msg.sender, loanCounter, amount) */\n      0xffffffffffffffffffffffffffffffffffffffff\n      and\n      0x6b9bb4766cf5ab74b890df959e4fad0e54b1c3885e49c9541d36253a6e39e6\n        /* \"w9_liquidity_lending_pool_hw.sol\":8316:8327  loanCounter */\n      sload(0x07)\n        /* \"w9_liquidity_lending_pool_hw.sol\":8329:8335  amount */\n      dup8\n        /* \"w9_liquidity_lending_pool_hw.sol\":8294:8336  LoanTaken(msg.sender, loanCounter, amount) */\n      mload(0x40)\n      tag_334\n      swap3\n      swap2\n      swap1\n      tag_263\n      jump\t// in\n    tag_334:\n      mload(0x40)\n      dup1\n      swap2\n      sub\n      swap1\n      log2\n        /* \"w9_liquidity_lending_pool_hw.sol\":7093:8343  {... */\n      pop\n      pop\n      pop\n        /* \"w9_liquidity_lending_pool_hw.sol\":7019:8343  function takeLoan(uint256 amount, uint256 loan_duration) external payable {... */\n      pop\n      pop\n      jump\t// out\n        /* \"w9_liquidity_lending_pool_hw.sol\":9652:10570  function accrueInterest() external {... */\n    tag_127:\n        /* \"w9_liquidity_lending_pool_hw.sol\":9722:9723  0 */\n      0x00\n        /* \"w9_liquidity_lending_pool_hw.sol\":9705:9719  totalLiquidity */\n      sload(0x05)\n        /* \"w9_liquidity_lending_pool_hw.sol\":9705:9723  totalLiquidity > 0 */\n      gt\n        /* \"w9_liquidity_lending_pool_hw.sol\":9697:9762  require(totalLiquidity > 0, \"No liquidity to accrue interest on\") */\n      tag_336\n      jumpi\n      mload(0x40)\n      0x08c379a000000000000000000000000000000000000000000000000000000000\n      dup2\n      mstore\n      0x04\n      add\n      tag_337\n      swap1\n      tag_338\n      jump\t// in\n    tag_337:\n      mload(0x40)\n      dup1\n      swap2\n      sub\n      swap1\n      revert\n    tag_336:\n        /* \"w9_liquidity_lending_pool_hw.sol\":9837:9856  uint256 timeElapsed */\n      0x00\n        /* \"w9_liquidity_lending_pool_hw.sol\":9877:9897  lastAccrualTimestamp */\n      sload(0x0b)\n        /* \"w9_liquidity_lending_pool_hw.sol\":9859:9874  block.timestamp */\n      timestamp\n        /* \"w9_liquidity_lending_pool_hw.sol\":9859:9897  block.timestamp - lastAccrualTimestamp */\n      tag_339\n      swap2\n      swap1\n      tag_207\n      jump\t// in\n    tag_339:\n        /* \"w9_liquidity_lending_pool_hw.sol\":9837:9897  uint256 timeElapsed = block.timestamp - lastAccrualTimestamp */\n      swap1\n      pop\n        /* \"w9_liquidity_lending_pool_hw.sol\":9926:9927  0 */\n      0x00\n        /* \"w9_liquidity_lending_pool_hw.sol\":9911:9922  timeElapsed */\n      dup2\n        /* \"w9_liquidity_lending_pool_hw.sol\":9911:9927  timeElapsed == 0 */\n      sub\n        /* \"w9_liquidity_lending_pool_hw.sol\":9907:9936  if (timeElapsed == 0) return; */\n      tag_340\n      jumpi\n        /* \"w9_liquidity_lending_pool_hw.sol\":9929:9936  return; */\n      pop\n      jump(tag_335)\n        /* \"w9_liquidity_lending_pool_hw.sol\":9907:9936  if (timeElapsed == 0) return; */\n    tag_340:\n        /* \"w9_liquidity_lending_pool_hw.sol\":9992:10014  uint256 secondsPerYear */\n      0x00\n        /* \"w9_liquidity_lending_pool_hw.sol\":10017:10035  365 * 24 * 60 * 60 */\n      0x01e13380\n        /* \"w9_liquidity_lending_pool_hw.sol\":9992:10035  uint256 secondsPerYear = 365 * 24 * 60 * 60 */\n      swap1\n      pop\n        /* \"w9_liquidity_lending_pool_hw.sol\":10183:10199  uint256 interest */\n      0x00\n        /* \"w9_liquidity_lending_pool_hw.sol\":10258:10272  secondsPerYear */\n      dup2\n        /* \"w9_liquidity_lending_pool_hw.sol\":10252:10255  100 */\n      0x64\n        /* \"w9_liquidity_lending_pool_hw.sol\":10252:10272  100 * secondsPerYear */\n      tag_341\n      swap2\n      swap1\n      tag_267\n      jump\t// in\n    tag_341:\n        /* \"w9_liquidity_lending_pool_hw.sol\":10236:10247  timeElapsed */\n      dup4\n        /* \"w9_liquidity_lending_pool_hw.sol\":10220:10233  interest_rate */\n      sload(0x02)\n        /* \"w9_liquidity_lending_pool_hw.sol\":10203:10217  totalLiquidity */\n      sload(0x05)\n        /* \"w9_liquidity_lending_pool_hw.sol\":10203:10233  totalLiquidity * interest_rate */\n      tag_342\n      swap2\n      swap1\n      tag_267\n      jump\t// in\n    tag_342:\n        /* \"w9_liquidity_lending_pool_hw.sol\":10203:10247  totalLiquidity * interest_rate * timeElapsed */\n      tag_343\n      swap2\n      swap1\n      tag_267\n      jump\t// in\n    tag_343:\n        /* \"w9_liquidity_lending_pool_hw.sol\":10202:10273  (totalLiquidity * interest_rate * timeElapsed) / (100 * secondsPerYear) */\n      tag_344\n      swap2\n      swap1\n      tag_274\n      jump\t// in\n    tag_344:\n        /* \"w9_liquidity_lending_pool_hw.sol\":10183:10273  uint256 interest = (totalLiquidity * interest_rate * timeElapsed) / (100 * secondsPerYear) */\n      swap1\n      pop\n        /* \"w9_liquidity_lending_pool_hw.sol\":10300:10301  0 */\n      0x00\n        /* \"w9_liquidity_lending_pool_hw.sol\":10289:10297  interest */\n      dup2\n        /* \"w9_liquidity_lending_pool_hw.sol\":10289:10301  interest > 0 */\n      gt\n        /* \"w9_liquidity_lending_pool_hw.sol\":10285:10564  if (interest > 0) {... */\n      iszero\n      tag_345\n      jumpi\n        /* \"w9_liquidity_lending_pool_hw.sol\":10334:10342  interest */\n      dup1\n        /* \"w9_liquidity_lending_pool_hw.sol\":10317:10330  accruedReward */\n      0x0c\n      0x00\n        /* \"w9_liquidity_lending_pool_hw.sol\":10317:10342  accruedReward += interest */\n      dup3\n      dup3\n      sload\n      tag_346\n      swap2\n      swap1\n      tag_261\n      jump\t// in\n    tag_346:\n      swap3\n      pop\n      pop\n      dup2\n      swap1\n      sstore\n      pop\n        /* \"w9_liquidity_lending_pool_hw.sol\":10431:10446  block.timestamp */\n      timestamp\n        /* \"w9_liquidity_lending_pool_hw.sol\":10408:10428  lastAccrualTimestamp */\n      0x0b\n        /* \"w9_liquidity_lending_pool_hw.sol\":10408:10446  lastAccrualTimestamp = block.timestamp */\n      dup2\n      swap1\n      sstore\n      pop\n        /* \"w9_liquidity_lending_pool_hw.sol\":10495:10553  InterestAccrued(interest, totalLiquidity, block.timestamp) */\n      0xe9d95e658b0c714da9de2e12fbed253a24a632058a074dc7c90b8b6618675c7c\n        /* \"w9_liquidity_lending_pool_hw.sol\":10511:10519  interest */\n      dup2\n        /* \"w9_liquidity_lending_pool_hw.sol\":10521:10535  totalLiquidity */\n      sload(0x05)\n        /* \"w9_liquidity_lending_pool_hw.sol\":10537:10552  block.timestamp */\n      timestamp\n        /* \"w9_liquidity_lending_pool_hw.sol\":10495:10553  InterestAccrued(interest, totalLiquidity, block.timestamp) */\n      mload(0x40)\n      tag_347\n      swap4\n      swap3\n      swap2\n      swap1\n      tag_160\n      jump\t// in\n    tag_347:\n      mload(0x40)\n      dup1\n      swap2\n      sub\n      swap1\n      log1\n        /* \"w9_liquidity_lending_pool_hw.sol\":10285:10564  if (interest > 0) {... */\n    tag_345:\n        /* \"w9_liquidity_lending_pool_hw.sol\":9687:10570  {... */\n      pop\n      pop\n      pop\n        /* \"w9_liquidity_lending_pool_hw.sol\":9652:10570  function accrueInterest() external {... */\n    tag_335:\n      jump\t// out\n        /* \"w9_liquidity_lending_pool_hw.sol\":8349:9646  function repayLoan(uint256 loanId) external payable {... */\n    tag_130:\n        /* \"w9_liquidity_lending_pool_hw.sol\":8411:8428  Loan storage loan */\n      0x00\n        /* \"w9_liquidity_lending_pool_hw.sol\":8431:8436  loans */\n      0x08\n        /* \"w9_liquidity_lending_pool_hw.sol\":8431:8444  loans[loanId] */\n      0x00\n        /* \"w9_liquidity_lending_pool_hw.sol\":8437:8443  loanId */\n      dup4\n        /* \"w9_liquidity_lending_pool_hw.sol\":8431:8444  loans[loanId] */\n      dup2\n      mstore\n      0x20\n      add\n      swap1\n      dup2\n      mstore\n      0x20\n      add\n      0x00\n      keccak256\n        /* \"w9_liquidity_lending_pool_hw.sol\":8411:8444  Loan storage loan = loans[loanId] */\n      swap1\n      pop\n        /* \"w9_liquidity_lending_pool_hw.sol\":8495:8505  msg.sender */\n      caller\n        /* \"w9_liquidity_lending_pool_hw.sol\":8478:8505  loan.borrower == msg.sender */\n      0xffffffffffffffffffffffffffffffffffffffff\n      and\n        /* \"w9_liquidity_lending_pool_hw.sol\":8478:8482  loan */\n      dup2\n        /* \"w9_liquidity_lending_pool_hw.sol\":8478:8491  loan.borrower */\n      0x00\n      add\n      0x00\n      swap1\n      sload\n      swap1\n      0x0100\n      exp\n      swap1\n      div\n      0xffffffffffffffffffffffffffffffffffffffff\n      and\n        /* \"w9_liquidity_lending_pool_hw.sol\":8478:8505  loan.borrower == msg.sender */\n      0xffffffffffffffffffffffffffffffffffffffff\n      and\n      eq\n        /* \"w9_liquidity_lending_pool_hw.sol\":8470:8523  require(loan.borrower == msg.sender, \"Not your loan\") */\n      tag_349\n      jumpi\n      mload(0x40)\n      0x08c379a000000000000000000000000000000000000000000000000000000000\n      dup2\n      mstore\n      0x04\n      add\n      tag_350\n      swap1\n      tag_351\n      jump\t// in\n    tag_350:\n      mload(0x40)\n      dup1\n      swap2\n      sub\n      swap1\n      revert\n    tag_349:\n        /* \"w9_liquidity_lending_pool_hw.sol\":8541:8545  loan */\n      dup1\n        /* \"w9_liquidity_lending_pool_hw.sol\":8541:8554  loan.isActive */\n      0x05\n      add\n      0x01\n      swap1\n      sload\n      swap1\n      0x0100\n      exp\n      swap1\n      div\n      0xff\n      and\n        /* \"w9_liquidity_lending_pool_hw.sol\":8533:8577  require(loan.isActive, \"Loan is not active\") */\n      tag_352\n      jumpi\n      mload(0x40)\n      0x08c379a000000000000000000000000000000000000000000000000000000000\n      dup2\n      mstore\n      0x04\n      add\n      tag_353\n      swap1\n      tag_354\n      jump\t// in\n    tag_353:\n      mload(0x40)\n      dup1\n      swap2\n      sub\n      swap1\n      revert\n    tag_352:\n        /* \"w9_liquidity_lending_pool_hw.sol\":8596:8600  loan */\n      dup1\n        /* \"w9_liquidity_lending_pool_hw.sol\":8596:8609  loan.isRepaid */\n      0x05\n      add\n      0x00\n      swap1\n      sload\n      swap1\n      0x0100\n      exp\n      swap1\n      div\n      0xff\n      and\n        /* \"w9_liquidity_lending_pool_hw.sol\":8595:8609  !loan.isRepaid */\n      iszero\n        /* \"w9_liquidity_lending_pool_hw.sol\":8587:8633  require(!loan.isRepaid, \"Loan already repaid\") */\n      tag_355\n      jumpi\n      mload(0x40)\n      0x08c379a000000000000000000000000000000000000000000000000000000000\n      dup2\n      mstore\n      0x04\n      add\n      tag_356\n      swap1\n      tag_357\n      jump\t// in\n    tag_356:\n      mload(0x40)\n      dup1\n      swap2\n      sub\n      swap1\n      revert\n    tag_355:\n        /* \"w9_liquidity_lending_pool_hw.sol\":8664:8668  loan */\n      dup1\n        /* \"w9_liquidity_lending_pool_hw.sol\":8664:8684  loan.repaymentAmount */\n      0x03\n      add\n      sload\n        /* \"w9_liquidity_lending_pool_hw.sol\":8651:8660  msg.value */\n      callvalue\n        /* \"w9_liquidity_lending_pool_hw.sol\":8651:8684  msg.value >= loan.repaymentAmount */\n      lt\n      iszero\n        /* \"w9_liquidity_lending_pool_hw.sol\":8643:8718  require(msg.value >= loan.repaymentAmount, \"Insufficient repayment amount\") */\n      tag_358\n      jumpi\n      mload(0x40)\n      0x08c379a000000000000000000000000000000000000000000000000000000000\n      dup2\n      mstore\n      0x04\n      add\n      tag_359\n      swap1\n      tag_360\n      jump\t// in\n    tag_359:\n      mload(0x40)\n      dup1\n      swap2\n      sub\n      swap1\n      revert\n    tag_358:\n        /* \"w9_liquidity_lending_pool_hw.sol\":8729:8740  uint256 fee */\n      0x00\n        /* \"w9_liquidity_lending_pool_hw.sol\":8795:8798  100 */\n      0x64\n        /* \"w9_liquidity_lending_pool_hw.sol\":920:921  1 */\n      0x01\n        /* \"w9_liquidity_lending_pool_hw.sol\":8744:8748  loan */\n      dup4\n        /* \"w9_liquidity_lending_pool_hw.sol\":8744:8764  loan.repaymentAmount */\n      0x03\n      add\n      sload\n        /* \"w9_liquidity_lending_pool_hw.sol\":8744:8791  loan.repaymentAmount * contractFeeFromRepayment */\n      tag_361\n      swap2\n      swap1\n      tag_267\n      jump\t// in\n    tag_361:\n        /* \"w9_liquidity_lending_pool_hw.sol\":8743:8798  (loan.repaymentAmount * contractFeeFromRepayment) / 100 */\n      tag_362\n      swap2\n      swap1\n      tag_274\n      jump\t// in\n    tag_362:\n        /* \"w9_liquidity_lending_pool_hw.sol\":8729:8798  uint256 fee = (loan.repaymentAmount * contractFeeFromRepayment) / 100 */\n      swap1\n      pop\n        /* \"w9_liquidity_lending_pool_hw.sol\":8846:8866  uint256 amountToPool */\n      0x00\n        /* \"w9_liquidity_lending_pool_hw.sol\":8892:8895  fee */\n      dup2\n        /* \"w9_liquidity_lending_pool_hw.sol\":8869:8873  loan */\n      dup4\n        /* \"w9_liquidity_lending_pool_hw.sol\":8869:8889  loan.repaymentAmount */\n      0x03\n      add\n      sload\n        /* \"w9_liquidity_lending_pool_hw.sol\":8869:8895  loan.repaymentAmount - fee */\n      tag_363\n      swap2\n      swap1\n      tag_207\n      jump\t// in\n    tag_363:\n        /* \"w9_liquidity_lending_pool_hw.sol\":8846:8895  uint256 amountToPool = loan.repaymentAmount - fee */\n      swap1\n      pop\n        /* \"w9_liquidity_lending_pool_hw.sol\":8949:8952  fee */\n      dup2\n        /* \"w9_liquidity_lending_pool_hw.sol\":8932:8945  accruedReward */\n      0x0c\n      0x00\n        /* \"w9_liquidity_lending_pool_hw.sol\":8932:8952  accruedReward += fee */\n      dup3\n      dup3\n      sload\n      tag_364\n      swap2\n      swap1\n      tag_261\n      jump\t// in\n    tag_364:\n      swap3\n      pop\n      pop\n      dup2\n      swap1\n      sstore\n      pop\n        /* \"w9_liquidity_lending_pool_hw.sol\":9043:9047  true */\n      0x01\n        /* \"w9_liquidity_lending_pool_hw.sol\":9027:9031  loan */\n      dup4\n        /* \"w9_liquidity_lending_pool_hw.sol\":9027:9040  loan.isRepaid */\n      0x05\n      add\n      0x00\n        /* \"w9_liquidity_lending_pool_hw.sol\":9027:9047  loan.isRepaid = true */\n      0x0100\n      exp\n      dup2\n      sload\n      dup2\n      0xff\n      mul\n      not\n      and\n      swap1\n      dup4\n      iszero\n      iszero\n      mul\n      or\n      swap1\n      sstore\n      pop\n        /* \"w9_liquidity_lending_pool_hw.sol\":9073:9078  false */\n      0x00\n        /* \"w9_liquidity_lending_pool_hw.sol\":9057:9061  loan */\n      dup4\n        /* \"w9_liquidity_lending_pool_hw.sol\":9057:9070  loan.isActive */\n      0x05\n      add\n      0x01\n        /* \"w9_liquidity_lending_pool_hw.sol\":9057:9078  loan.isActive = false */\n      0x0100\n      exp\n      dup2\n      sload\n      dup2\n      0xff\n      mul\n      not\n      and\n      swap1\n      dup4\n      iszero\n      iszero\n      mul\n      or\n      swap1\n      sstore\n      pop\n        /* \"w9_liquidity_lending_pool_hw.sol\":9088:9114  uint256 collateralToReturn */\n      0x00\n        /* \"w9_liquidity_lending_pool_hw.sol\":9117:9128  collaterals */\n      dup1\n        /* \"w9_liquidity_lending_pool_hw.sol\":9117:9140  collaterals[msg.sender] */\n      0x00\n        /* \"w9_liquidity_lending_pool_hw.sol\":9129:9139  msg.sender */\n      caller\n        /* \"w9_liquidity_lending_pool_hw.sol\":9117:9140  collaterals[msg.sender] */\n      0xffffffffffffffffffffffffffffffffffffffff\n      and\n      0xffffffffffffffffffffffffffffffffffffffff\n      and\n      dup2\n      mstore\n      0x20\n      add\n      swap1\n      dup2\n      mstore\n      0x20\n      add\n      0x00\n      keccak256\n      sload\n        /* \"w9_liquidity_lending_pool_hw.sol\":9088:9140  uint256 collateralToReturn = collaterals[msg.sender] */\n      swap1\n      pop\n        /* \"w9_liquidity_lending_pool_hw.sol\":9179:9180  0 */\n      0x00\n        /* \"w9_liquidity_lending_pool_hw.sol\":9158:9176  collateralToReturn */\n      dup2\n        /* \"w9_liquidity_lending_pool_hw.sol\":9158:9180  collateralToReturn > 0 */\n      gt\n        /* \"w9_liquidity_lending_pool_hw.sol\":9150:9208  require(collateralToReturn > 0, \"No collateral to return\") */\n      tag_365\n      jumpi\n      mload(0x40)\n      0x08c379a000000000000000000000000000000000000000000000000000000000\n      dup2\n      mstore\n      0x04\n      add\n      tag_366\n      swap1\n      tag_281\n      jump\t// in\n    tag_366:\n      mload(0x40)\n      dup1\n      swap2\n      sub\n      swap1\n      revert\n    tag_365:\n        /* \"w9_liquidity_lending_pool_hw.sol\":9244:9245  0 */\n      0x00\n        /* \"w9_liquidity_lending_pool_hw.sol\":9218:9229  collaterals */\n      dup1\n        /* \"w9_liquidity_lending_pool_hw.sol\":9218:9241  collaterals[msg.sender] */\n      0x00\n        /* \"w9_liquidity_lending_pool_hw.sol\":9230:9240  msg.sender */\n      caller\n        /* \"w9_liquidity_lending_pool_hw.sol\":9218:9241  collaterals[msg.sender] */\n      0xffffffffffffffffffffffffffffffffffffffff\n      and\n      0xffffffffffffffffffffffffffffffffffffffff\n      and\n      dup2\n      mstore\n      0x20\n      add\n      swap1\n      dup2\n      mstore\n      0x20\n      add\n      0x00\n      keccak256\n        /* \"w9_liquidity_lending_pool_hw.sol\":9218:9245  collaterals[msg.sender] = 0 */\n      dup2\n      swap1\n      sstore\n      pop\n        /* \"w9_liquidity_lending_pool_hw.sol\":9273:9285  amountToPool */\n      dup2\n        /* \"w9_liquidity_lending_pool_hw.sol\":9255:9269  totalLiquidity */\n      0x05\n      0x00\n        /* \"w9_liquidity_lending_pool_hw.sol\":9255:9285  totalLiquidity += amountToPool */\n      dup3\n      dup3\n      sload\n      tag_367\n      swap2\n      swap1\n      tag_261\n      jump\t// in\n    tag_367:\n      swap3\n      pop\n      pop\n      dup2\n      swap1\n      sstore\n      pop\n        /* \"w9_liquidity_lending_pool_hw.sol\":9354:9358  true */\n      0x01\n        /* \"w9_liquidity_lending_pool_hw.sol\":9338:9342  loan */\n      dup5\n        /* \"w9_liquidity_lending_pool_hw.sol\":9338:9351  loan.isRepaid */\n      0x05\n      add\n      0x00\n        /* \"w9_liquidity_lending_pool_hw.sol\":9338:9358  loan.isRepaid = true */\n      0x0100\n      exp\n      dup2\n      sload\n      dup2\n      0xff\n      mul\n      not\n      and\n      swap1\n      dup4\n      iszero\n      iszero\n      mul\n      or\n      swap1\n      sstore\n      pop\n        /* \"w9_liquidity_lending_pool_hw.sol\":9384:9389  false */\n      0x00\n        /* \"w9_liquidity_lending_pool_hw.sol\":9368:9372  loan */\n      dup5\n        /* \"w9_liquidity_lending_pool_hw.sol\":9368:9381  loan.isActive */\n      0x05\n      add\n      0x01\n        /* \"w9_liquidity_lending_pool_hw.sol\":9368:9389  loan.isActive = false */\n      0x0100\n      exp\n      dup2\n      sload\n      dup2\n      0xff\n      mul\n      not\n      and\n      swap1\n      dup4\n      iszero\n      iszero\n      mul\n      or\n      swap1\n      sstore\n      pop\n        /* \"w9_liquidity_lending_pool_hw.sol\":9452:9464  bool success */\n      0x00\n        /* \"w9_liquidity_lending_pool_hw.sol\":9478:9488  msg.sender */\n      caller\n        /* \"w9_liquidity_lending_pool_hw.sol\":9470:9494  payable(msg.sender).call */\n      0xffffffffffffffffffffffffffffffffffffffff\n      and\n        /* \"w9_liquidity_lending_pool_hw.sol\":9502:9520  collateralToReturn */\n      dup3\n        /* \"w9_liquidity_lending_pool_hw.sol\":9470:9525  payable(msg.sender).call{value: collateralToReturn}(\"\") */\n      mload(0x40)\n      tag_368\n      swap1\n      tag_210\n      jump\t// in\n    tag_368:\n      0x00\n      mload(0x40)\n      dup1\n      dup4\n      sub\n      dup2\n      dup6\n      dup8\n      gas\n      call\n      swap3\n      pop\n      pop\n      pop\n      returndatasize\n      dup1\n      0x00\n      dup2\n      eq\n      tag_371\n      jumpi\n      mload(0x40)\n      swap2\n      pop\n      and(add(returndatasize, 0x3f), not(0x1f))\n      dup3\n      add\n      0x40\n      mstore\n      returndatasize\n      dup3\n      mstore\n      returndatasize\n      0x00\n      0x20\n      dup5\n      add\n      returndatacopy\n      jump(tag_370)\n    tag_371:\n      0x60\n      swap2\n      pop\n    tag_370:\n      pop\n        /* \"w9_liquidity_lending_pool_hw.sol\":9451:9525  (bool success, ) = payable(msg.sender).call{value: collateralToReturn}(\"\") */\n      pop\n      swap1\n      pop\n        /* \"w9_liquidity_lending_pool_hw.sol\":9543:9550  success */\n      dup1\n        /* \"w9_liquidity_lending_pool_hw.sol\":9535:9582  require(success, \"Failed to return collateral\") */\n      tag_372\n      jumpi\n      mload(0x40)\n      0x08c379a000000000000000000000000000000000000000000000000000000000\n      dup2\n      mstore\n      0x04\n      add\n      tag_373\n      swap1\n      tag_289\n      jump\t// in\n    tag_373:\n      mload(0x40)\n      dup1\n      swap2\n      sub\n      swap1\n      revert\n    tag_372:\n        /* \"w9_liquidity_lending_pool_hw.sol\":9609:9619  msg.sender */\n      caller\n        /* \"w9_liquidity_lending_pool_hw.sol\":9598:9639  LoanRepaid(msg.sender, loanId, msg.value) */\n      0xffffffffffffffffffffffffffffffffffffffff\n      and\n      0xc7ce0a35f17b490de2a317e7fecb2cae86b1abffb03800b2f492823521382698\n        /* \"w9_liquidity_lending_pool_hw.sol\":9621:9627  loanId */\n      dup8\n        /* \"w9_liquidity_lending_pool_hw.sol\":9629:9638  msg.value */\n      callvalue\n        /* \"w9_liquidity_lending_pool_hw.sol\":9598:9639  LoanRepaid(msg.sender, loanId, msg.value) */\n      mload(0x40)\n      tag_374\n      swap3\n      swap2\n      swap1\n      tag_263\n      jump\t// in\n    tag_374:\n      mload(0x40)\n      dup1\n      swap2\n      sub\n      swap1\n      log2\n        /* \"w9_liquidity_lending_pool_hw.sol\":8401:9646  {... */\n      pop\n      pop\n      pop\n      pop\n      pop\n        /* \"w9_liquidity_lending_pool_hw.sol\":8349:9646  function repayLoan(uint256 loanId) external payable {... */\n      pop\n      jump\t// out\n        /* \"w9_liquidity_lending_pool_hw.sol\":12557:12725  function requiredCollateral(uint256 loan) public pure returns (uint256) {... */\n    tag_134:\n        /* \"w9_liquidity_lending_pool_hw.sol\":12620:12627  uint256 */\n      0x00\n        /* \"w9_liquidity_lending_pool_hw.sol\":12654:12655  0 */\n      dup1\n        /* \"w9_liquidity_lending_pool_hw.sol\":12647:12651  loan */\n      dup3\n        /* \"w9_liquidity_lending_pool_hw.sol\":12647:12655  loan > 0 */\n      gt\n        /* \"w9_liquidity_lending_pool_hw.sol\":12639:12683  require(loan > 0, \"Loan amount must be > 0\") */\n      tag_376\n      jumpi\n      mload(0x40)\n      0x08c379a000000000000000000000000000000000000000000000000000000000\n      dup2\n      mstore\n      0x04\n      add\n      tag_377\n      swap1\n      tag_378\n      jump\t// in\n    tag_377:\n      mload(0x40)\n      dup1\n      swap2\n      sub\n      swap1\n      revert\n    tag_376:\n        /* \"w9_liquidity_lending_pool_hw.sol\":12715:12718  100 */\n      0x64\n        /* \"w9_liquidity_lending_pool_hw.sol\":12708:12711  150 */\n      0x96\n        /* \"w9_liquidity_lending_pool_hw.sol\":12701:12705  loan */\n      dup4\n        /* \"w9_liquidity_lending_pool_hw.sol\":12701:12711  loan * 150 */\n      tag_379\n      swap2\n      swap1\n      tag_267\n      jump\t// in\n    tag_379:\n        /* \"w9_liquidity_lending_pool_hw.sol\":12700:12718  (loan * 150) / 100 */\n      tag_380\n      swap2\n      swap1\n      tag_274\n      jump\t// in\n    tag_380:\n        /* \"w9_liquidity_lending_pool_hw.sol\":12693:12718  return (loan * 150) / 100 */\n      swap1\n      pop\n        /* \"w9_liquidity_lending_pool_hw.sol\":12557:12725  function requiredCollateral(uint256 loan) public pure returns (uint256) {... */\n      swap2\n      swap1\n      pop\n      jump\t// out\n        /* \"w9_liquidity_lending_pool_hw.sol\":11660:11904  function calculateRepaymentAmount(uint256 loanId) public view returns (uint256) {... */\n    tag_139:\n        /* \"w9_liquidity_lending_pool_hw.sol\":11731:11738  uint256 */\n      0x00\n        /* \"w9_liquidity_lending_pool_hw.sol\":11750:11766  Loan memory loan */\n      dup1\n        /* \"w9_liquidity_lending_pool_hw.sol\":11769:11774  loans */\n      0x08\n        /* \"w9_liquidity_lending_pool_hw.sol\":11769:11782  loans[loanId] */\n      0x00\n        /* \"w9_liquidity_lending_pool_hw.sol\":11775:11781  loanId */\n      dup5\n        /* \"w9_liquidity_lending_pool_hw.sol\":11769:11782  loans[loanId] */\n      dup2\n      mstore\n      0x20\n      add\n      swap1\n      dup2\n      mstore\n      0x20\n      add\n      0x00\n      keccak256\n        /* \"w9_liquidity_lending_pool_hw.sol\":11750:11782  Loan memory loan = loans[loanId] */\n      mload(0x40)\n      dup1\n      0xe0\n      add\n      0x40\n      mstore\n      swap1\n      dup2\n      0x00\n      dup3\n      add\n      0x00\n      swap1\n      sload\n      swap1\n      0x0100\n      exp\n      swap1\n      div\n      0xffffffffffffffffffffffffffffffffffffffff\n      and\n      0xffffffffffffffffffffffffffffffffffffffff\n      and\n      0xffffffffffffffffffffffffffffffffffffffff\n      and\n      dup2\n      mstore\n      0x20\n      add\n      0x01\n      dup3\n      add\n      sload\n      dup2\n      mstore\n      0x20\n      add\n      0x02\n      dup3\n      add\n      sload\n      dup2\n      mstore\n      0x20\n      add\n      0x03\n      dup3\n      add\n      sload\n      dup2\n      mstore\n      0x20\n      add\n      0x04\n      dup3\n      add\n      sload\n      dup2\n      mstore\n      0x20\n      add\n      0x05\n      dup3\n      add\n      0x00\n      swap1\n      sload\n      swap1\n      0x0100\n      exp\n      swap1\n      div\n      0xff\n      and\n      iszero\n      iszero\n      iszero\n      iszero\n      dup2\n      mstore\n      0x20\n      add\n      0x05\n      dup3\n      add\n      0x01\n      swap1\n      sload\n      swap1\n      0x0100\n      exp\n      swap1\n      div\n      0xff\n      and\n      iszero\n      iszero\n      iszero\n      iszero\n      dup2\n      mstore\n      pop\n      pop\n      swap1\n      pop\n        /* \"w9_liquidity_lending_pool_hw.sol\":11818:11819  0 */\n      0x00\n        /* \"w9_liquidity_lending_pool_hw.sol\":11800:11804  loan */\n      dup2\n        /* \"w9_liquidity_lending_pool_hw.sol\":11800:11815  loan.loanAmount */\n      0x20\n      add\n      mload\n        /* \"w9_liquidity_lending_pool_hw.sol\":11800:11819  loan.loanAmount > 0 */\n      gt\n        /* \"w9_liquidity_lending_pool_hw.sol\":11792:11860  require(loan.loanAmount > 0, \"Loan does not exist or has no amount\") */\n      tag_382\n      jumpi\n      mload(0x40)\n      0x08c379a000000000000000000000000000000000000000000000000000000000\n      dup2\n      mstore\n      0x04\n      add\n      tag_383\n      swap1\n      tag_384\n      jump\t// in\n    tag_383:\n      mload(0x40)\n      dup1\n      swap2\n      sub\n      swap1\n      revert\n    tag_382:\n        /* \"w9_liquidity_lending_pool_hw.sol\":11877:11881  loan */\n      dup1\n        /* \"w9_liquidity_lending_pool_hw.sol\":11877:11897  loan.repaymentAmount */\n      0x60\n      add\n      mload\n        /* \"w9_liquidity_lending_pool_hw.sol\":11870:11897  return loan.repaymentAmount */\n      swap2\n      pop\n      pop\n        /* \"w9_liquidity_lending_pool_hw.sol\":11660:11904  function calculateRepaymentAmount(uint256 loanId) public view returns (uint256) {... */\n      swap2\n      swap1\n      pop\n      jump\t// out\n        /* \"w9_liquidity_lending_pool_hw.sol\":10639:10826  function calculateFeeShare(address user) public view returns (uint256) {... */\n    tag_144:\n        /* \"w9_liquidity_lending_pool_hw.sol\":10701:10708  uint256 */\n      0x00\n        /* \"w9_liquidity_lending_pool_hw.sol\":10742:10743  0 */\n      dup1\n        /* \"w9_liquidity_lending_pool_hw.sol\":10724:10738  totalLiquidity */\n      sload(0x05)\n        /* \"w9_liquidity_lending_pool_hw.sol\":10724:10743  totalLiquidity == 0 */\n      sub\n        /* \"w9_liquidity_lending_pool_hw.sol\":10720:10753  if (totalLiquidity == 0) return 0 */\n      tag_386\n      jumpi\n        /* \"w9_liquidity_lending_pool_hw.sol\":10752:10753  0 */\n      0x00\n        /* \"w9_liquidity_lending_pool_hw.sol\":10745:10753  return 0 */\n      swap1\n      pop\n      jump(tag_385)\n        /* \"w9_liquidity_lending_pool_hw.sol\":10720:10753  if (totalLiquidity == 0) return 0 */\n    tag_386:\n        /* \"w9_liquidity_lending_pool_hw.sol\":10805:10819  totalLiquidity */\n      sload(0x05)\n        /* \"w9_liquidity_lending_pool_hw.sol\":10788:10801  accruedReward */\n      sload(0x0c)\n        /* \"w9_liquidity_lending_pool_hw.sol\":10771:10779  deposits */\n      0x03\n        /* \"w9_liquidity_lending_pool_hw.sol\":10771:10785  deposits[user] */\n      0x00\n        /* \"w9_liquidity_lending_pool_hw.sol\":10780:10784  user */\n      dup6\n        /* \"w9_liquidity_lending_pool_hw.sol\":10771:10785  deposits[user] */\n      0xffffffffffffffffffffffffffffffffffffffff\n      and\n      0xffffffffffffffffffffffffffffffffffffffff\n      and\n      dup2\n      mstore\n      0x20\n      add\n      swap1\n      dup2\n      mstore\n      0x20\n      add\n      0x00\n      keccak256\n      sload\n        /* \"w9_liquidity_lending_pool_hw.sol\":10771:10801  deposits[user] * accruedReward */\n      tag_387\n      swap2\n      swap1\n      tag_267\n      jump\t// in\n    tag_387:\n        /* \"w9_liquidity_lending_pool_hw.sol\":10770:10819  (deposits[user] * accruedReward) / totalLiquidity */\n      tag_388\n      swap2\n      swap1\n      tag_274\n      jump\t// in\n    tag_388:\n        /* \"w9_liquidity_lending_pool_hw.sol\":10763:10819  return (deposits[user] * accruedReward) / totalLiquidity */\n      swap1\n      pop\n        /* \"w9_liquidity_lending_pool_hw.sol\":10639:10826  function calculateFeeShare(address user) public view returns (uint256) {... */\n    tag_385:\n      swap2\n      swap1\n      pop\n      jump\t// out\n        /* \"w9_liquidity_lending_pool_hw.sol\":10998:11654  function distributeFees() external payable onlyOwner{... */\n    tag_147:\n        /* \"w9_liquidity_lending_pool_hw.sol\":2153:2158  owner */\n      0x01\n      0x00\n      swap1\n      sload\n      swap1\n      0x0100\n      exp\n      swap1\n      div\n      0xffffffffffffffffffffffffffffffffffffffff\n      and\n        /* \"w9_liquidity_lending_pool_hw.sol\":2139:2158  msg.sender == owner */\n      0xffffffffffffffffffffffffffffffffffffffff\n      and\n        /* \"w9_liquidity_lending_pool_hw.sol\":2139:2149  msg.sender */\n      caller\n        /* \"w9_liquidity_lending_pool_hw.sol\":2139:2158  msg.sender == owner */\n      0xffffffffffffffffffffffffffffffffffffffff\n      and\n      eq\n        /* \"w9_liquidity_lending_pool_hw.sol\":2131:2201  require(msg.sender == owner, \"Only the owner can perform this action\") */\n      tag_390\n      jumpi\n      mload(0x40)\n      0x08c379a000000000000000000000000000000000000000000000000000000000\n      dup2\n      mstore\n      0x04\n      add\n      tag_391\n      swap1\n      tag_245\n      jump\t// in\n    tag_391:\n      mload(0x40)\n      dup1\n      swap2\n      sub\n      swap1\n      revert\n    tag_390:\n        /* \"w9_liquidity_lending_pool_hw.sol\":11084:11085  0 */\n      0x00\n        /* \"w9_liquidity_lending_pool_hw.sol\":11068:11081  accruedReward */\n      sload(0x0c)\n        /* \"w9_liquidity_lending_pool_hw.sol\":11068:11085  accruedReward > 0 */\n      gt\n        /* \"w9_liquidity_lending_pool_hw.sol\":11060:11111  require(accruedReward > 0, \"No fees to distribute\") */\n      tag_393\n      jumpi\n      mload(0x40)\n      0x08c379a000000000000000000000000000000000000000000000000000000000\n      dup2\n      mstore\n      0x04\n      add\n      tag_394\n      swap1\n      tag_395\n      jump\t// in\n    tag_394:\n      mload(0x40)\n      dup1\n      swap2\n      sub\n      swap1\n      revert\n    tag_393:\n        /* \"w9_liquidity_lending_pool_hw.sol\":11121:11145  uint256 totalDistributed */\n      0x00\n        /* \"w9_liquidity_lending_pool_hw.sol\":11164:11173  uint256 i */\n      dup1\n        /* \"w9_liquidity_lending_pool_hw.sol\":11159:11604  for (uint256 i = 0; i < depositors.length; i++) {... */\n    tag_396:\n        /* \"w9_liquidity_lending_pool_hw.sol\":11183:11193  depositors */\n      0x0a\n        /* \"w9_liquidity_lending_pool_hw.sol\":11183:11200  depositors.length */\n      dup1\n      sload\n      swap1\n      pop\n        /* \"w9_liquidity_lending_pool_hw.sol\":11179:11180  i */\n      dup2\n        /* \"w9_liquidity_lending_pool_hw.sol\":11179:11200  i < depositors.length */\n      lt\n        /* \"w9_liquidity_lending_pool_hw.sol\":11159:11604  for (uint256 i = 0; i < depositors.length; i++) {... */\n      iszero\n      tag_397\n      jumpi\n        /* \"w9_liquidity_lending_pool_hw.sol\":11221:11238  address depositor */\n      0x00\n        /* \"w9_liquidity_lending_pool_hw.sol\":11241:11251  depositors */\n      0x0a\n        /* \"w9_liquidity_lending_pool_hw.sol\":11252:11253  i */\n      dup3\n        /* \"w9_liquidity_lending_pool_hw.sol\":11241:11254  depositors[i] */\n      dup2\n      sload\n      dup2\n      lt\n      tag_399\n      jumpi\n      tag_400\n      tag_224\n      jump\t// in\n    tag_400:\n    tag_399:\n      swap1\n      0x00\n      mstore\n      keccak256(0x00, 0x20)\n      add\n      0x00\n      swap1\n      sload\n      swap1\n      0x0100\n      exp\n      swap1\n      div\n      0xffffffffffffffffffffffffffffffffffffffff\n      and\n        /* \"w9_liquidity_lending_pool_hw.sol\":11221:11254  address depositor = depositors[i] */\n      swap1\n      pop\n        /* \"w9_liquidity_lending_pool_hw.sol\":11268:11281  uint256 share */\n      0x00\n        /* \"w9_liquidity_lending_pool_hw.sol\":11284:11312  calculateFeeShare(depositor) */\n      tag_402\n        /* \"w9_liquidity_lending_pool_hw.sol\":11302:11311  depositor */\n      dup3\n        /* \"w9_liquidity_lending_pool_hw.sol\":11284:11301  calculateFeeShare */\n      tag_144\n        /* \"w9_liquidity_lending_pool_hw.sol\":11284:11312  calculateFeeShare(depositor) */\n      jump\t// in\n    tag_402:\n        /* \"w9_liquidity_lending_pool_hw.sol\":11268:11312  uint256 share = calculateFeeShare(depositor) */\n      swap1\n      pop\n        /* \"w9_liquidity_lending_pool_hw.sol\":11339:11340  0 */\n      0x00\n        /* \"w9_liquidity_lending_pool_hw.sol\":11331:11336  share */\n      dup2\n        /* \"w9_liquidity_lending_pool_hw.sol\":11331:11340  share > 0 */\n      gt\n        /* \"w9_liquidity_lending_pool_hw.sol\":11327:11594  if (share > 0) {... */\n      iszero\n      tag_403\n      jumpi\n        /* \"w9_liquidity_lending_pool_hw.sol\":11380:11385  share */\n      dup1\n        /* \"w9_liquidity_lending_pool_hw.sol\":11360:11385  totalDistributed += share */\n      dup5\n      tag_404\n      swap2\n      swap1\n      tag_261\n      jump\t// in\n    tag_404:\n      swap4\n      pop\n        /* \"w9_liquidity_lending_pool_hw.sol\":11404:11416  bool success */\n      0x00\n        /* \"w9_liquidity_lending_pool_hw.sol\":11430:11439  depositor */\n      dup3\n        /* \"w9_liquidity_lending_pool_hw.sol\":11422:11445  payable(depositor).call */\n      0xffffffffffffffffffffffffffffffffffffffff\n      and\n        /* \"w9_liquidity_lending_pool_hw.sol\":11453:11458  share */\n      dup3\n        /* \"w9_liquidity_lending_pool_hw.sol\":11422:11463  payable(depositor).call{value: share}(\"\") */\n      mload(0x40)\n      tag_405\n      swap1\n      tag_210\n      jump\t// in\n    tag_405:\n      0x00\n      mload(0x40)\n      dup1\n      dup4\n      sub\n      dup2\n      dup6\n      dup8\n      gas\n      call\n      swap3\n      pop\n      pop\n      pop\n      returndatasize\n      dup1\n      0x00\n      dup2\n      eq\n      tag_408\n      jumpi\n      mload(0x40)\n      swap2\n      pop\n      and(add(returndatasize, 0x3f), not(0x1f))\n      dup3\n      add\n      0x40\n      mstore\n      returndatasize\n      dup3\n      mstore\n      returndatasize\n      0x00\n      0x20\n      dup5\n      add\n      returndatacopy\n      jump(tag_407)\n    tag_408:\n      0x60\n      swap2\n      pop\n    tag_407:\n      pop\n        /* \"w9_liquidity_lending_pool_hw.sol\":11403:11463  (bool success, ) = payable(depositor).call{value: share}(\"\") */\n      pop\n      swap1\n      pop\n        /* \"w9_liquidity_lending_pool_hw.sol\":11489:11496  success */\n      dup1\n        /* \"w9_liquidity_lending_pool_hw.sol\":11481:11524  require(success, \"Fee distribution failed\") */\n      tag_409\n      jumpi\n      mload(0x40)\n      0x08c379a000000000000000000000000000000000000000000000000000000000\n      dup2\n      mstore\n      0x04\n      add\n      tag_410\n      swap1\n      tag_411\n      jump\t// in\n    tag_410:\n      mload(0x40)\n      dup1\n      swap2\n      sub\n      swap1\n      revert\n    tag_409:\n        /* \"w9_liquidity_lending_pool_hw.sol\":11562:11571  depositor */\n      dup3\n        /* \"w9_liquidity_lending_pool_hw.sol\":11547:11579  FeeDistributed(depositor, share) */\n      0xffffffffffffffffffffffffffffffffffffffff\n      and\n      0x6c461460f28af1386f23dc4c0c7f4e2e54f0db320a8edc08803e4b787f6db325\n        /* \"w9_liquidity_lending_pool_hw.sol\":11573:11578  share */\n      dup4\n        /* \"w9_liquidity_lending_pool_hw.sol\":11547:11579  FeeDistributed(depositor, share) */\n      mload(0x40)\n      tag_412\n      swap2\n      swap1\n      tag_50\n      jump\t// in\n    tag_412:\n      mload(0x40)\n      dup1\n      swap2\n      sub\n      swap1\n      log2\n        /* \"w9_liquidity_lending_pool_hw.sol\":11342:11594  {... */\n      pop\n        /* \"w9_liquidity_lending_pool_hw.sol\":11327:11594  if (share > 0) {... */\n    tag_403:\n        /* \"w9_liquidity_lending_pool_hw.sol\":11207:11604  {... */\n      pop\n      pop\n        /* \"w9_liquidity_lending_pool_hw.sol\":11202:11205  i++ */\n      dup1\n      dup1\n      0x01\n      add\n      swap2\n      pop\n      pop\n        /* \"w9_liquidity_lending_pool_hw.sol\":11159:11604  for (uint256 i = 0; i < depositors.length; i++) {... */\n      jump(tag_396)\n    tag_397:\n      pop\n        /* \"w9_liquidity_lending_pool_hw.sol\":11631:11647  totalDistributed */\n      dup1\n        /* \"w9_liquidity_lending_pool_hw.sol\":11614:11627  accruedReward */\n      0x0c\n      0x00\n        /* \"w9_liquidity_lending_pool_hw.sol\":11614:11647  accruedReward -= totalDistributed */\n      dup3\n      dup3\n      sload\n      tag_413\n      swap2\n      swap1\n      tag_207\n      jump\t// in\n    tag_413:\n      swap3\n      pop\n      pop\n      dup2\n      swap1\n      sstore\n      pop\n        /* \"w9_liquidity_lending_pool_hw.sol\":11050:11654  {... */\n      pop\n        /* \"w9_liquidity_lending_pool_hw.sol\":10998:11654  function distributeFees() external payable onlyOwner{... */\n      jump\t// out\n        /* \"w9_liquidity_lending_pool_hw.sol\":794:829  uint256 public lastAccrualTimestamp */\n    tag_150:\n      sload(0x0b)\n      dup2\n      jump\t// out\n        /* \"w9_liquidity_lending_pool_hw.sol\":4063:4732  function borrow(uint256 amount) external payable {... */\n    tag_154:\n        /* \"w9_liquidity_lending_pool_hw.sol\":4139:4140  0 */\n      0x00\n        /* \"w9_liquidity_lending_pool_hw.sol\":4130:4136  amount */\n      dup2\n        /* \"w9_liquidity_lending_pool_hw.sol\":4130:4140  amount > 0 */\n      gt\n        /* \"w9_liquidity_lending_pool_hw.sol\":4122:4181  require(amount > 0, \"Borrow amount must be greater than 0\") */\n      tag_415\n      jumpi\n      mload(0x40)\n      0x08c379a000000000000000000000000000000000000000000000000000000000\n      dup2\n      mstore\n      0x04\n      add\n      tag_416\n      swap1\n      tag_417\n      jump\t// in\n    tag_416:\n      mload(0x40)\n      dup1\n      swap2\n      sub\n      swap1\n      revert\n    tag_415:\n        /* \"w9_liquidity_lending_pool_hw.sol\":4209:4223  totalLiquidity */\n      sload(0x05)\n        /* \"w9_liquidity_lending_pool_hw.sol\":4199:4205  amount */\n      dup2\n        /* \"w9_liquidity_lending_pool_hw.sol\":4199:4223  amount <= totalLiquidity */\n      gt\n      iszero\n        /* \"w9_liquidity_lending_pool_hw.sol\":4191:4260  require(amount <= totalLiquidity, \"Not enough liquidity in the pool\") */\n      tag_418\n      jumpi\n      mload(0x40)\n      0x08c379a000000000000000000000000000000000000000000000000000000000\n      dup2\n      mstore\n      0x04\n      add\n      tag_419\n      swap1\n      tag_420\n      jump\t// in\n    tag_419:\n      mload(0x40)\n      dup1\n      swap2\n      sub\n      swap1\n      revert\n    tag_418:\n        /* \"w9_liquidity_lending_pool_hw.sol\":4308:4311  100 */\n      0x64\n        /* \"w9_liquidity_lending_pool_hw.sol\":4301:4304  150 */\n      0x96\n        /* \"w9_liquidity_lending_pool_hw.sol\":4292:4298  amount */\n      dup3\n        /* \"w9_liquidity_lending_pool_hw.sol\":4292:4304  amount * 150 */\n      tag_421\n      swap2\n      swap1\n      tag_267\n      jump\t// in\n    tag_421:\n        /* \"w9_liquidity_lending_pool_hw.sol\":4291:4311  (amount * 150) / 100 */\n      tag_422\n      swap2\n      swap1\n      tag_274\n      jump\t// in\n    tag_422:\n        /* \"w9_liquidity_lending_pool_hw.sol\":4278:4287  msg.value */\n      callvalue\n        /* \"w9_liquidity_lending_pool_hw.sol\":4278:4311  msg.value >= (amount * 150) / 100 */\n      lt\n      iszero\n        /* \"w9_liquidity_lending_pool_hw.sol\":4270:4358  require(msg.value >= (amount * 150) / 100, \"Collateral must be 150% of the loan amount\") */\n      tag_423\n      jumpi\n      mload(0x40)\n      0x08c379a000000000000000000000000000000000000000000000000000000000\n      dup2\n      mstore\n      0x04\n      add\n      tag_424\n      swap1\n      tag_425\n      jump\t// in\n    tag_424:\n      mload(0x40)\n      dup1\n      swap2\n      sub\n      swap1\n      revert\n    tag_423:\n        /* \"w9_liquidity_lending_pool_hw.sol\":4423:4432  msg.value */\n      callvalue\n        /* \"w9_liquidity_lending_pool_hw.sol\":4397:4408  collaterals */\n      0x00\n        /* \"w9_liquidity_lending_pool_hw.sol\":4397:4420  collaterals[msg.sender] */\n      dup1\n        /* \"w9_liquidity_lending_pool_hw.sol\":4409:4419  msg.sender */\n      caller\n        /* \"w9_liquidity_lending_pool_hw.sol\":4397:4420  collaterals[msg.sender] */\n      0xffffffffffffffffffffffffffffffffffffffff\n      and\n      0xffffffffffffffffffffffffffffffffffffffff\n      and\n      dup2\n      mstore\n      0x20\n      add\n      swap1\n      dup2\n      mstore\n      0x20\n      add\n      0x00\n      keccak256\n        /* \"w9_liquidity_lending_pool_hw.sol\":4397:4432  collaterals[msg.sender] = msg.value */\n      dup2\n      swap1\n      sstore\n      pop\n        /* \"w9_liquidity_lending_pool_hw.sol\":4501:4507  amount */\n      dup1\n        /* \"w9_liquidity_lending_pool_hw.sol\":4476:4486  borrowings */\n      0x04\n        /* \"w9_liquidity_lending_pool_hw.sol\":4476:4498  borrowings[msg.sender] */\n      0x00\n        /* \"w9_liquidity_lending_pool_hw.sol\":4487:4497  msg.sender */\n      caller\n        /* \"w9_liquidity_lending_pool_hw.sol\":4476:4498  borrowings[msg.sender] */\n      0xffffffffffffffffffffffffffffffffffffffff\n      and\n      0xffffffffffffffffffffffffffffffffffffffff\n      and\n      dup2\n      mstore\n      0x20\n      add\n      swap1\n      dup2\n      mstore\n      0x20\n      add\n      0x00\n      keccak256\n        /* \"w9_liquidity_lending_pool_hw.sol\":4476:4507  borrowings[msg.sender] = amount */\n      dup2\n      swap1\n      sstore\n      pop\n        /* \"w9_liquidity_lending_pool_hw.sol\":4571:4577  amount */\n      dup1\n        /* \"w9_liquidity_lending_pool_hw.sol\":4553:4567  totalLiquidity */\n      0x05\n      0x00\n        /* \"w9_liquidity_lending_pool_hw.sol\":4553:4577  totalLiquidity -= amount */\n      dup3\n      dup3\n      sload\n      tag_426\n      swap2\n      swap1\n      tag_207\n      jump\t// in\n    tag_426:\n      swap3\n      pop\n      pop\n      dup2\n      swap1\n      sstore\n      pop\n        /* \"w9_liquidity_lending_pool_hw.sol\":4644:4654  msg.sender */\n      caller\n        /* \"w9_liquidity_lending_pool_hw.sol\":4636:4664  payable(msg.sender).transfer */\n      0xffffffffffffffffffffffffffffffffffffffff\n      and\n        /* \"w9_liquidity_lending_pool_hw.sol\":4636:4672  payable(msg.sender).transfer(amount) */\n      0x08fc\n        /* \"w9_liquidity_lending_pool_hw.sol\":4665:4671  amount */\n      dup3\n        /* \"w9_liquidity_lending_pool_hw.sol\":4636:4672  payable(msg.sender).transfer(amount) */\n      swap1\n      dup2\n      iszero\n      mul\n      swap1\n      mload(0x40)\n      0x00\n      mload(0x40)\n      dup1\n      dup4\n      sub\n      dup2\n      dup6\n      dup9\n      dup9\n      call\n      swap4\n      pop\n      pop\n      pop\n      pop\n      iszero\n      dup1\n      iszero\n      tag_428\n      jumpi\n      returndatasize\n      0x00\n      dup1\n      returndatacopy\n      revert(0x00, returndatasize)\n    tag_428:\n      pop\n        /* \"w9_liquidity_lending_pool_hw.sol\":4695:4705  msg.sender */\n      caller\n        /* \"w9_liquidity_lending_pool_hw.sol\":4688:4725  Borrow(msg.sender, amount, msg.value) */\n      0xffffffffffffffffffffffffffffffffffffffff\n      and\n      0xe1979fe4c35e0cef342fef5668e2c8e7a7e9f5d5d1ca8fee0ac6c427fa4153af\n        /* \"w9_liquidity_lending_pool_hw.sol\":4707:4713  amount */\n      dup3\n        /* \"w9_liquidity_lending_pool_hw.sol\":4715:4724  msg.value */\n      callvalue\n        /* \"w9_liquidity_lending_pool_hw.sol\":4688:4725  Borrow(msg.sender, amount, msg.value) */\n      mload(0x40)\n      tag_429\n      swap3\n      swap2\n      swap1\n      tag_263\n      jump\t// in\n    tag_429:\n      mload(0x40)\n      dup1\n      swap2\n      sub\n      swap1\n      log2\n        /* \"w9_liquidity_lending_pool_hw.sol\":4063:4732  function borrow(uint256 amount) external payable {... */\n      pop\n      jump\t// out\n        /* \"w9_liquidity_lending_pool_hw.sol\":6716:7013  function getBalances(address account) external view returns (... */\n    tag_158:\n        /* \"w9_liquidity_lending_pool_hw.sol\":6786:6808  uint256 depositBalance */\n      0x00\n        /* \"w9_liquidity_lending_pool_hw.sol\":6818:6839  uint256 borrowBalance */\n      dup1\n        /* \"w9_liquidity_lending_pool_hw.sol\":6849:6874  uint256 collateralBalance */\n      0x00\n        /* \"w9_liquidity_lending_pool_hw.sol\":6912:6920  deposits */\n      0x03\n        /* \"w9_liquidity_lending_pool_hw.sol\":6912:6929  deposits[account] */\n      0x00\n        /* \"w9_liquidity_lending_pool_hw.sol\":6921:6928  account */\n      dup6\n        /* \"w9_liquidity_lending_pool_hw.sol\":6912:6929  deposits[account] */\n      0xffffffffffffffffffffffffffffffffffffffff\n      and\n      0xffffffffffffffffffffffffffffffffffffffff\n      and\n      dup2\n      mstore\n      0x20\n      add\n      swap1\n      dup2\n      mstore\n      0x20\n      add\n      0x00\n      keccak256\n      sload\n        /* \"w9_liquidity_lending_pool_hw.sol\":6943:6953  borrowings */\n      0x04\n        /* \"w9_liquidity_lending_pool_hw.sol\":6943:6962  borrowings[account] */\n      0x00\n        /* \"w9_liquidity_lending_pool_hw.sol\":6954:6961  account */\n      dup7\n        /* \"w9_liquidity_lending_pool_hw.sol\":6943:6962  borrowings[account] */\n      0xffffffffffffffffffffffffffffffffffffffff\n      and\n      0xffffffffffffffffffffffffffffffffffffffff\n      and\n      dup2\n      mstore\n      0x20\n      add\n      swap1\n      dup2\n      mstore\n      0x20\n      add\n      0x00\n      keccak256\n      sload\n        /* \"w9_liquidity_lending_pool_hw.sol\":6976:6987  collaterals */\n      0x00\n        /* \"w9_liquidity_lending_pool_hw.sol\":6976:6996  collaterals[account] */\n      dup1\n        /* \"w9_liquidity_lending_pool_hw.sol\":6988:6995  account */\n      dup8\n        /* \"w9_liquidity_lending_pool_hw.sol\":6976:6996  collaterals[account] */\n      0xffffffffffffffffffffffffffffffffffffffff\n      and\n      0xffffffffffffffffffffffffffffffffffffffff\n      and\n      dup2\n      mstore\n      0x20\n      add\n      swap1\n      dup2\n      mstore\n      0x20\n      add\n      0x00\n      keccak256\n      sload\n        /* \"w9_liquidity_lending_pool_hw.sol\":6891:7006  return (... */\n      swap3\n      pop\n      swap3\n      pop\n      swap3\n      pop\n        /* \"w9_liquidity_lending_pool_hw.sol\":6716:7013  function getBalances(address account) external view returns (... */\n      swap2\n      swap4\n      swap1\n      swap3\n      pop\n      jump\t// out\n        /* \"w9_liquidity_lending_pool_hw.sol\":2225:2503  function deposit() external payable {... */\n    tag_162:\n        /* \"w9_liquidity_lending_pool_hw.sol\":2291:2292  0 */\n      0x00\n        /* \"w9_liquidity_lending_pool_hw.sol\":2279:2288  msg.value */\n      callvalue\n        /* \"w9_liquidity_lending_pool_hw.sol\":2279:2292  msg.value > 0 */\n      gt\n        /* \"w9_liquidity_lending_pool_hw.sol\":2271:2334  require(msg.value > 0, \"Deposit amount must be greater than 0\") */\n      tag_432\n      jumpi\n      mload(0x40)\n      0x08c379a000000000000000000000000000000000000000000000000000000000\n      dup2\n      mstore\n      0x04\n      add\n      tag_433\n      swap1\n      tag_434\n      jump\t// in\n    tag_433:\n      mload(0x40)\n      dup1\n      swap2\n      sub\n      swap1\n      revert\n    tag_432:\n        /* \"w9_liquidity_lending_pool_hw.sol\":2368:2377  msg.value */\n      callvalue\n        /* \"w9_liquidity_lending_pool_hw.sol\":2344:2352  deposits */\n      0x03\n        /* \"w9_liquidity_lending_pool_hw.sol\":2344:2364  deposits[msg.sender] */\n      0x00\n        /* \"w9_liquidity_lending_pool_hw.sol\":2353:2363  msg.sender */\n      caller\n        /* \"w9_liquidity_lending_pool_hw.sol\":2344:2364  deposits[msg.sender] */\n      0xffffffffffffffffffffffffffffffffffffffff\n      and\n      0xffffffffffffffffffffffffffffffffffffffff\n      and\n      dup2\n      mstore\n      0x20\n      add\n      swap1\n      dup2\n      mstore\n      0x20\n      add\n      0x00\n      keccak256\n      0x00\n        /* \"w9_liquidity_lending_pool_hw.sol\":2344:2377  deposits[msg.sender] += msg.value */\n      dup3\n      dup3\n      sload\n      tag_435\n      swap2\n      swap1\n      tag_261\n      jump\t// in\n    tag_435:\n      swap3\n      pop\n      pop\n      dup2\n      swap1\n      sstore\n      pop\n        /* \"w9_liquidity_lending_pool_hw.sol\":2405:2414  msg.value */\n      callvalue\n        /* \"w9_liquidity_lending_pool_hw.sol\":2387:2401  totalLiquidity */\n      0x05\n      0x00\n        /* \"w9_liquidity_lending_pool_hw.sol\":2387:2414  totalLiquidity += msg.value */\n      dup3\n      dup3\n      sload\n      tag_436\n      swap2\n      swap1\n      tag_261\n      jump\t// in\n    tag_436:\n      swap3\n      pop\n      pop\n      dup2\n      swap1\n      sstore\n      pop\n        /* \"w9_liquidity_lending_pool_hw.sol\":2437:2447  msg.sender */\n      caller\n        /* \"w9_liquidity_lending_pool_hw.sol\":2429:2459  Deposit(msg.sender, msg.value) */\n      0xffffffffffffffffffffffffffffffffffffffff\n      and\n      0xe1fffcc4923d04b559f4d29a8bfc6cda04eb5b0d3c460751c2402c5c5cc9109c\n        /* \"w9_liquidity_lending_pool_hw.sol\":2449:2458  msg.value */\n      callvalue\n        /* \"w9_liquidity_lending_pool_hw.sol\":2429:2459  Deposit(msg.sender, msg.value) */\n      mload(0x40)\n      tag_437\n      swap2\n      swap1\n      tag_50\n      jump\t// in\n    tag_437:\n      mload(0x40)\n      dup1\n      swap2\n      sub\n      swap1\n      log2\n        /* \"w9_liquidity_lending_pool_hw.sol\":2469:2479  depositors */\n      0x0a\n        /* \"w9_liquidity_lending_pool_hw.sol\":2485:2495  msg.sender */\n      caller\n        /* \"w9_liquidity_lending_pool_hw.sol\":2469:2496  depositors.push(msg.sender) */\n      swap1\n      dup1\n      0x01\n      dup2\n      sload\n      add\n      dup1\n      dup3\n      sstore\n      dup1\n      swap2\n      pop\n      pop\n      0x01\n      swap1\n      sub\n      swap1\n      0x00\n      mstore\n      keccak256(0x00, 0x20)\n      add\n      0x00\n      swap1\n      swap2\n      swap1\n      swap2\n      swap1\n      swap2\n      0x0100\n      exp\n      dup2\n      sload\n      dup2\n      0xffffffffffffffffffffffffffffffffffffffff\n      mul\n      not\n      and\n      swap1\n      dup4\n      0xffffffffffffffffffffffffffffffffffffffff\n      and\n      mul\n      or\n      swap1\n      sstore\n      pop\n        /* \"w9_liquidity_lending_pool_hw.sol\":2225:2503  function deposit() external payable {... */\n      jump\t// out\n        /* \"w9_liquidity_lending_pool_hw.sol\":685:731  mapping(address => uint256[]) public userLoans */\n    tag_167:\n      mstore(0x20, 0x09)\n      dup2\n      0x00\n      mstore\n      keccak256(0x00, 0x40)\n      dup2\n      dup2\n      sload\n      dup2\n      lt\n      tag_439\n      jumpi\n      0x00\n      dup1\n      revert\n    tag_439:\n      swap1\n      0x00\n      mstore\n      keccak256(0x00, 0x20)\n      add\n      0x00\n      swap2\n      pop\n      swap2\n      pop\n      pop\n      sload\n      dup2\n      jump\t// out\n        /* \"w9_liquidity_lending_pool_hw.sol\":622:659  mapping(uint256 => Loan) public loans */\n    tag_172:\n      mstore(0x20, 0x08)\n      dup1\n      0x00\n      mstore\n      keccak256(0x00, 0x40)\n      0x00\n      swap2\n      pop\n      swap1\n      pop\n      dup1\n      0x00\n      add\n      0x00\n      swap1\n      sload\n      swap1\n      0x0100\n      exp\n      swap1\n      div\n      0xffffffffffffffffffffffffffffffffffffffff\n      and\n      swap1\n      dup1\n      0x01\n      add\n      sload\n      swap1\n      dup1\n      0x02\n      add\n      sload\n      swap1\n      dup1\n      0x03\n      add\n      sload\n      swap1\n      dup1\n      0x04\n      add\n      sload\n      swap1\n      dup1\n      0x05\n      add\n      0x00\n      swap1\n      sload\n      swap1\n      0x0100\n      exp\n      swap1\n      div\n      0xff\n      and\n      swap1\n      dup1\n      0x05\n      add\n      0x01\n      swap1\n      sload\n      swap1\n      0x0100\n      exp\n      swap1\n      div\n      0xff\n      and\n      swap1\n      pop\n      dup8\n      jump\t// out\n        /* \"w9_liquidity_lending_pool_hw.sol\":761:788  address[] public depositors */\n    tag_178:\n      0x0a\n      dup2\n      dup2\n      sload\n      dup2\n      lt\n      tag_441\n      jumpi\n      0x00\n      dup1\n      revert\n    tag_441:\n      swap1\n      0x00\n      mstore\n      keccak256(0x00, 0x20)\n      add\n      0x00\n      swap2\n      pop\n      sload\n      swap1\n      0x0100\n      exp\n      swap1\n      div\n      0xffffffffffffffffffffffffffffffffffffffff\n      and\n      dup2\n      jump\t// out\n        /* \"w9_liquidity_lending_pool_hw.sol\":12731:12942  function requiredRepaymentAmount(uint256 loan) public view returns (uint256) {... */\n    tag_183:\n        /* \"w9_liquidity_lending_pool_hw.sol\":12799:12806  uint256 */\n      0x00\n        /* \"w9_liquidity_lending_pool_hw.sol\":12829:12830  0 */\n      dup1\n        /* \"w9_liquidity_lending_pool_hw.sol\":12822:12826  loan */\n      dup3\n        /* \"w9_liquidity_lending_pool_hw.sol\":12822:12830  loan > 0 */\n      gt\n        /* \"w9_liquidity_lending_pool_hw.sol\":12814:12858  require(loan > 0, \"Loan amount must be > 0\") */\n      tag_444\n      jumpi\n      mload(0x40)\n      0x08c379a000000000000000000000000000000000000000000000000000000000\n      dup2\n      mstore\n      0x04\n      add\n      tag_445\n      swap1\n      tag_378\n      jump\t// in\n    tag_445:\n      mload(0x40)\n      dup1\n      swap2\n      sub\n      swap1\n      revert\n    tag_444:\n        /* \"w9_liquidity_lending_pool_hw.sol\":12864:12880  uint256 interest */\n      0x00\n        /* \"w9_liquidity_lending_pool_hw.sol\":12908:12911  100 */\n      0x64\n        /* \"w9_liquidity_lending_pool_hw.sol\":12891:12904  interest_rate */\n      sload(0x02)\n        /* \"w9_liquidity_lending_pool_hw.sol\":12884:12888  loan */\n      dup5\n        /* \"w9_liquidity_lending_pool_hw.sol\":12884:12904  loan * interest_rate */\n      tag_446\n      swap2\n      swap1\n      tag_267\n      jump\t// in\n    tag_446:\n        /* \"w9_liquidity_lending_pool_hw.sol\":12883:12911  (loan * interest_rate) / 100 */\n      tag_447\n      swap2\n      swap1\n      tag_274\n      jump\t// in\n    tag_447:\n        /* \"w9_liquidity_lending_pool_hw.sol\":12864:12911  uint256 interest = (loan * interest_rate) / 100 */\n      swap1\n      pop\n        /* \"w9_liquidity_lending_pool_hw.sol\":12931:12939  interest */\n      dup1\n        /* \"w9_liquidity_lending_pool_hw.sol\":12924:12928  loan */\n      dup4\n        /* \"w9_liquidity_lending_pool_hw.sol\":12924:12939  loan + interest */\n      tag_448\n      swap2\n      swap1\n      tag_261\n      jump\t// in\n    tag_448:\n        /* \"w9_liquidity_lending_pool_hw.sol\":12917:12939  return loan + interest */\n      swap2\n      pop\n      pop\n        /* \"w9_liquidity_lending_pool_hw.sol\":12731:12942  function requiredRepaymentAmount(uint256 loan) public view returns (uint256) {... */\n      swap2\n      swap1\n      pop\n      jump\t// out\n        /* \"w9_liquidity_lending_pool_hw.sol\":126:172  mapping(address => uint256) public collaterals */\n    tag_188:\n      mstore(0x20, 0x00)\n      dup1\n      0x00\n      mstore\n      keccak256(0x00, 0x40)\n      0x00\n      swap2\n      pop\n      swap1\n      pop\n      sload\n      dup2\n      jump\t// out\n        /* \"w9_liquidity_lending_pool_hw.sol\":268:311  mapping(address => uint256) public deposits */\n    tag_193:\n      mstore(0x20, 0x03)\n      dup1\n      0x00\n      mstore\n      keccak256(0x00, 0x40)\n      0x00\n      swap2\n      pop\n      swap1\n      pop\n      sload\n      dup2\n      jump\t// out\n        /* \"w9_liquidity_lending_pool_hw.sol\":2789:3054  function findDepositorIndex(address a) internal view returns (bool, uint256) {... */\n    tag_219:\n        /* \"w9_liquidity_lending_pool_hw.sol\":2851:2855  bool */\n      0x00\n        /* \"w9_liquidity_lending_pool_hw.sol\":2857:2864  uint256 */\n      dup1\n        /* \"w9_liquidity_lending_pool_hw.sol\":2881:2890  uint256 i */\n      0x00\n        /* \"w9_liquidity_lending_pool_hw.sol\":2876:3021  for (uint256 i = 0; i < depositors.length; i++) {... */\n    tag_450:\n        /* \"w9_liquidity_lending_pool_hw.sol\":2900:2910  depositors */\n      0x0a\n        /* \"w9_liquidity_lending_pool_hw.sol\":2900:2917  depositors.length */\n      dup1\n      sload\n      swap1\n      pop\n        /* \"w9_liquidity_lending_pool_hw.sol\":2896:2897  i */\n      dup2\n        /* \"w9_liquidity_lending_pool_hw.sol\":2896:2917  i < depositors.length */\n      lt\n        /* \"w9_liquidity_lending_pool_hw.sol\":2876:3021  for (uint256 i = 0; i < depositors.length; i++) {... */\n      iszero\n      tag_451\n      jumpi\n        /* \"w9_liquidity_lending_pool_hw.sol\":2959:2960  a */\n      dup4\n        /* \"w9_liquidity_lending_pool_hw.sol\":2942:2960  depositors[i] == a */\n      0xffffffffffffffffffffffffffffffffffffffff\n      and\n        /* \"w9_liquidity_lending_pool_hw.sol\":2942:2952  depositors */\n      0x0a\n        /* \"w9_liquidity_lending_pool_hw.sol\":2953:2954  i */\n      dup3\n        /* \"w9_liquidity_lending_pool_hw.sol\":2942:2955  depositors[i] */\n      dup2\n      sload\n      dup2\n      lt\n      tag_453\n      jumpi\n      tag_454\n      tag_224\n      jump\t// in\n    tag_454:\n    tag_453:\n      swap1\n      0x00\n      mstore\n      keccak256(0x00, 0x20)\n      add\n      0x00\n      swap1\n      sload\n      swap1\n      0x0100\n      exp\n      swap1\n      div\n      0xffffffffffffffffffffffffffffffffffffffff\n      and\n        /* \"w9_liquidity_lending_pool_hw.sol\":2942:2960  depositors[i] == a */\n      0xffffffffffffffffffffffffffffffffffffffff\n      and\n      sub\n        /* \"w9_liquidity_lending_pool_hw.sol\":2938:3011  if (depositors[i] == a) {... */\n      tag_456\n      jumpi\n        /* \"w9_liquidity_lending_pool_hw.sol\":2988:2992  true */\n      0x01\n        /* \"w9_liquidity_lending_pool_hw.sol\":2994:2995  i */\n      dup2\n        /* \"w9_liquidity_lending_pool_hw.sol\":2980:2996  return (true, i) */\n      swap3\n      pop\n      swap3\n      pop\n      pop\n      jump(tag_449)\n        /* \"w9_liquidity_lending_pool_hw.sol\":2938:3011  if (depositors[i] == a) {... */\n    tag_456:\n        /* \"w9_liquidity_lending_pool_hw.sol\":2919:2922  i++ */\n      dup1\n      dup1\n      0x01\n      add\n      swap2\n      pop\n      pop\n        /* \"w9_liquidity_lending_pool_hw.sol\":2876:3021  for (uint256 i = 0; i < depositors.length; i++) {... */\n      jump(tag_450)\n    tag_451:\n      pop\n        /* \"w9_liquidity_lending_pool_hw.sol\":3038:3043  false */\n      0x00\n        /* \"w9_liquidity_lending_pool_hw.sol\":3045:3046  0 */\n      dup1\n        /* \"w9_liquidity_lending_pool_hw.sol\":3030:3047  return (false, 0) */\n      swap2\n      pop\n      swap2\n      pop\n        /* \"w9_liquidity_lending_pool_hw.sol\":2789:3054  function findDepositorIndex(address a) internal view returns (bool, uint256) {... */\n    tag_449:\n      swap2\n      pop\n      swap2\n      jump\t// out\n        /* \"#utility.yul\":7:84   */\n    tag_457:\n        /* \"#utility.yul\":44:51   */\n      0x00\n        /* \"#utility.yul\":73:78   */\n      dup2\n        /* \"#utility.yul\":62:78   */\n      swap1\n      pop\n        /* \"#utility.yul\":7:84   */\n      swap2\n      swap1\n      pop\n      jump\t// out\n        /* \"#utility.yul\":90:208   */\n    tag_458:\n        /* \"#utility.yul\":177:201   */\n      tag_538\n        /* \"#utility.yul\":195:200   */\n      dup2\n        /* \"#utility.yul\":177:201   */\n      tag_457\n      jump\t// in\n    tag_538:\n        /* \"#utility.yul\":172:175   */\n      dup3\n        /* \"#utility.yul\":165:202   */\n      mstore\n        /* \"#utility.yul\":90:208   */\n      pop\n      pop\n      jump\t// out\n        /* \"#utility.yul\":214:436   */\n    tag_50:\n        /* \"#utility.yul\":307:311   */\n      0x00\n        /* \"#utility.yul\":345:347   */\n      0x20\n        /* \"#utility.yul\":334:343   */\n      dup3\n        /* \"#utility.yul\":330:348   */\n      add\n        /* \"#utility.yul\":322:348   */\n      swap1\n      pop\n        /* \"#utility.yul\":358:429   */\n      tag_540\n        /* \"#utility.yul\":426:427   */\n      0x00\n        /* \"#utility.yul\":415:424   */\n      dup4\n        /* \"#utility.yul\":411:428   */\n      add\n        /* \"#utility.yul\":402:408   */\n      dup5\n        /* \"#utility.yul\":358:429   */\n      tag_458\n      jump\t// in\n    tag_540:\n        /* \"#utility.yul\":214:436   */\n      swap3\n      swap2\n      pop\n      pop\n      jump\t// out\n        /* \"#utility.yul\":523:640   */\n    tag_460:\n        /* \"#utility.yul\":632:633   */\n      0x00\n        /* \"#utility.yul\":629:630   */\n      dup1\n        /* \"#utility.yul\":622:634   */\n      revert\n        /* \"#utility.yul\":769:891   */\n    tag_462:\n        /* \"#utility.yul\":842:866   */\n      tag_545\n        /* \"#utility.yul\":860:865   */\n      dup2\n        /* \"#utility.yul\":842:866   */\n      tag_457\n      jump\t// in\n    tag_545:\n        /* \"#utility.yul\":835:840   */\n      dup2\n        /* \"#utility.yul\":832:867   */\n      eq\n        /* \"#utility.yul\":822:885   */\n      tag_546\n      jumpi\n        /* \"#utility.yul\":881:882   */\n      0x00\n        /* \"#utility.yul\":878:879   */\n      dup1\n        /* \"#utility.yul\":871:883   */\n      revert\n        /* \"#utility.yul\":822:885   */\n    tag_546:\n        /* \"#utility.yul\":769:891   */\n      pop\n      jump\t// out\n        /* \"#utility.yul\":897:1036   */\n    tag_463:\n        /* \"#utility.yul\":943:948   */\n      0x00\n        /* \"#utility.yul\":981:987   */\n      dup2\n        /* \"#utility.yul\":968:988   */\n      calldataload\n        /* \"#utility.yul\":959:988   */\n      swap1\n      pop\n        /* \"#utility.yul\":997:1030   */\n      tag_548\n        /* \"#utility.yul\":1024:1029   */\n      dup2\n        /* \"#utility.yul\":997:1030   */\n      tag_462\n      jump\t// in\n    tag_548:\n        /* \"#utility.yul\":897:1036   */\n      swap3\n      swap2\n      pop\n      pop\n      jump\t// out\n        /* \"#utility.yul\":1042:1371   */\n    tag_53:\n        /* \"#utility.yul\":1101:1107   */\n      0x00\n        /* \"#utility.yul\":1150:1152   */\n      0x20\n        /* \"#utility.yul\":1138:1147   */\n      dup3\n        /* \"#utility.yul\":1129:1136   */\n      dup5\n        /* \"#utility.yul\":1125:1148   */\n      sub\n        /* \"#utility.yul\":1121:1153   */\n      slt\n        /* \"#utility.yul\":1118:1237   */\n      iszero\n      tag_550\n      jumpi\n        /* \"#utility.yul\":1156:1235   */\n      tag_551\n      tag_460\n      jump\t// in\n    tag_551:\n        /* \"#utility.yul\":1118:1237   */\n    tag_550:\n        /* \"#utility.yul\":1276:1277   */\n      0x00\n        /* \"#utility.yul\":1301:1354   */\n      tag_552\n        /* \"#utility.yul\":1346:1353   */\n      dup5\n        /* \"#utility.yul\":1337:1343   */\n      dup3\n        /* \"#utility.yul\":1326:1335   */\n      dup6\n        /* \"#utility.yul\":1322:1344   */\n      add\n        /* \"#utility.yul\":1301:1354   */\n      tag_463\n      jump\t// in\n    tag_552:\n        /* \"#utility.yul\":1291:1354   */\n      swap2\n      pop\n        /* \"#utility.yul\":1247:1364   */\n      pop\n        /* \"#utility.yul\":1042:1371   */\n      swap3\n      swap2\n      pop\n      pop\n      jump\t// out\n        /* \"#utility.yul\":1377:1503   */\n    tag_464:\n        /* \"#utility.yul\":1414:1421   */\n      0x00\n        /* \"#utility.yul\":1454:1496   */\n      0xffffffffffffffffffffffffffffffffffffffff\n        /* \"#utility.yul\":1447:1452   */\n      dup3\n        /* \"#utility.yul\":1443:1497   */\n      and\n        /* \"#utility.yul\":1432:1497   */\n      swap1\n      pop\n        /* \"#utility.yul\":1377:1503   */\n      swap2\n      swap1\n      pop\n      jump\t// out\n        /* \"#utility.yul\":1509:1605   */\n    tag_465:\n        /* \"#utility.yul\":1546:1553   */\n      0x00\n        /* \"#utility.yul\":1575:1599   */\n      tag_555\n        /* \"#utility.yul\":1593:1598   */\n      dup3\n        /* \"#utility.yul\":1575:1599   */\n      tag_464\n      jump\t// in\n    tag_555:\n        /* \"#utility.yul\":1564:1599   */\n      swap1\n      pop\n        /* \"#utility.yul\":1509:1605   */\n      swap2\n      swap1\n      pop\n      jump\t// out\n        /* \"#utility.yul\":1611:1733   */\n    tag_466:\n        /* \"#utility.yul\":1684:1708   */\n      tag_557\n        /* \"#utility.yul\":1702:1707   */\n      dup2\n        /* \"#utility.yul\":1684:1708   */\n      tag_465\n      jump\t// in\n    tag_557:\n        /* \"#utility.yul\":1677:1682   */\n      dup2\n        /* \"#utility.yul\":1674:1709   */\n      eq\n        /* \"#utility.yul\":1664:1727   */\n      tag_558\n      jumpi\n        /* \"#utility.yul\":1723:1724   */\n      0x00\n        /* \"#utility.yul\":1720:1721   */\n      dup1\n        /* \"#utility.yul\":1713:1725   */\n      revert\n        /* \"#utility.yul\":1664:1727   */\n    tag_558:\n        /* \"#utility.yul\":1611:1733   */\n      pop\n      jump\t// out\n        /* \"#utility.yul\":1739:1878   */\n    tag_467:\n        /* \"#utility.yul\":1785:1790   */\n      0x00\n        /* \"#utility.yul\":1823:1829   */\n      dup2\n        /* \"#utility.yul\":1810:1830   */\n      calldataload\n        /* \"#utility.yul\":1801:1830   */\n      swap1\n      pop\n        /* \"#utility.yul\":1839:1872   */\n      tag_560\n        /* \"#utility.yul\":1866:1871   */\n      dup2\n        /* \"#utility.yul\":1839:1872   */\n      tag_466\n      jump\t// in\n    tag_560:\n        /* \"#utility.yul\":1739:1878   */\n      swap3\n      swap2\n      pop\n      pop\n      jump\t// out\n        /* \"#utility.yul\":1884:2213   */\n    tag_58:\n        /* \"#utility.yul\":1943:1949   */\n      0x00\n        /* \"#utility.yul\":1992:1994   */\n      0x20\n        /* \"#utility.yul\":1980:1989   */\n      dup3\n        /* \"#utility.yul\":1971:1978   */\n      dup5\n        /* \"#utility.yul\":1967:1990   */\n      sub\n        /* \"#utility.yul\":1963:1995   */\n      slt\n        /* \"#utility.yul\":1960:2079   */\n      iszero\n      tag_562\n      jumpi\n        /* \"#utility.yul\":1998:2077   */\n      tag_563\n      tag_460\n      jump\t// in\n    tag_563:\n        /* \"#utility.yul\":1960:2079   */\n    tag_562:\n        /* \"#utility.yul\":2118:2119   */\n      0x00\n        /* \"#utility.yul\":2143:2196   */\n      tag_564\n        /* \"#utility.yul\":2188:2195   */\n      dup5\n        /* \"#utility.yul\":2179:2185   */\n      dup3\n        /* \"#utility.yul\":2168:2177   */\n      dup6\n        /* \"#utility.yul\":2164:2186   */\n      add\n        /* \"#utility.yul\":2143:2196   */\n      tag_467\n      jump\t// in\n    tag_564:\n        /* \"#utility.yul\":2133:2196   */\n      swap2\n      pop\n        /* \"#utility.yul\":2089:2206   */\n      pop\n        /* \"#utility.yul\":1884:2213   */\n      swap3\n      swap2\n      pop\n      pop\n      jump\t// out\n        /* \"#utility.yul\":2219:2309   */\n    tag_468:\n        /* \"#utility.yul\":2253:2260   */\n      0x00\n        /* \"#utility.yul\":2296:2301   */\n      dup2\n        /* \"#utility.yul\":2289:2302   */\n      iszero\n        /* \"#utility.yul\":2282:2303   */\n      iszero\n        /* \"#utility.yul\":2271:2303   */\n      swap1\n      pop\n        /* \"#utility.yul\":2219:2309   */\n      swap2\n      swap1\n      pop\n      jump\t// out\n        /* \"#utility.yul\":2315:2424   */\n    tag_469:\n        /* \"#utility.yul\":2396:2417   */\n      tag_567\n        /* \"#utility.yul\":2411:2416   */\n      dup2\n        /* \"#utility.yul\":2396:2417   */\n      tag_468\n      jump\t// in\n    tag_567:\n        /* \"#utility.yul\":2391:2394   */\n      dup3\n        /* \"#utility.yul\":2384:2418   */\n      mstore\n        /* \"#utility.yul\":2315:2424   */\n      pop\n      pop\n      jump\t// out\n        /* \"#utility.yul\":2430:2640   */\n    tag_61:\n        /* \"#utility.yul\":2517:2521   */\n      0x00\n        /* \"#utility.yul\":2555:2557   */\n      0x20\n        /* \"#utility.yul\":2544:2553   */\n      dup3\n        /* \"#utility.yul\":2540:2558   */\n      add\n        /* \"#utility.yul\":2532:2558   */\n      swap1\n      pop\n        /* \"#utility.yul\":2568:2633   */\n      tag_569\n        /* \"#utility.yul\":2630:2631   */\n      0x00\n        /* \"#utility.yul\":2619:2628   */\n      dup4\n        /* \"#utility.yul\":2615:2632   */\n      add\n        /* \"#utility.yul\":2606:2612   */\n      dup5\n        /* \"#utility.yul\":2568:2633   */\n      tag_469\n      jump\t// in\n    tag_569:\n        /* \"#utility.yul\":2430:2640   */\n      swap3\n      swap2\n      pop\n      pop\n      jump\t// out\n        /* \"#utility.yul\":2646:2764   */\n    tag_470:\n        /* \"#utility.yul\":2733:2757   */\n      tag_571\n        /* \"#utility.yul\":2751:2756   */\n      dup2\n        /* \"#utility.yul\":2733:2757   */\n      tag_465\n      jump\t// in\n    tag_571:\n        /* \"#utility.yul\":2728:2731   */\n      dup3\n        /* \"#utility.yul\":2721:2758   */\n      mstore\n        /* \"#utility.yul\":2646:2764   */\n      pop\n      pop\n      jump\t// out\n        /* \"#utility.yul\":2770:2992   */\n    tag_106:\n        /* \"#utility.yul\":2863:2867   */\n      0x00\n        /* \"#utility.yul\":2901:2903   */\n      0x20\n        /* \"#utility.yul\":2890:2899   */\n      dup3\n        /* \"#utility.yul\":2886:2904   */\n      add\n        /* \"#utility.yul\":2878:2904   */\n      swap1\n      pop\n        /* \"#utility.yul\":2914:2985   */\n      tag_573\n        /* \"#utility.yul\":2982:2983   */\n      0x00\n        /* \"#utility.yul\":2971:2980   */\n      dup4\n        /* \"#utility.yul\":2967:2984   */\n      add\n        /* \"#utility.yul\":2958:2964   */\n      dup5\n        /* \"#utility.yul\":2914:2985   */\n      tag_470\n      jump\t// in\n    tag_573:\n        /* \"#utility.yul\":2770:2992   */\n      swap3\n      swap2\n      pop\n      pop\n      jump\t// out\n        /* \"#utility.yul\":2998:3472   */\n    tag_123:\n        /* \"#utility.yul\":3066:3072   */\n      0x00\n        /* \"#utility.yul\":3074:3080   */\n      dup1\n        /* \"#utility.yul\":3123:3125   */\n      0x40\n        /* \"#utility.yul\":3111:3120   */\n      dup4\n        /* \"#utility.yul\":3102:3109   */\n      dup6\n        /* \"#utility.yul\":3098:3121   */\n      sub\n        /* \"#utility.yul\":3094:3126   */\n      slt\n        /* \"#utility.yul\":3091:3210   */\n      iszero\n      tag_575\n      jumpi\n        /* \"#utility.yul\":3129:3208   */\n      tag_576\n      tag_460\n      jump\t// in\n    tag_576:\n        /* \"#utility.yul\":3091:3210   */\n    tag_575:\n        /* \"#utility.yul\":3249:3250   */\n      0x00\n        /* \"#utility.yul\":3274:3327   */\n      tag_577\n        /* \"#utility.yul\":3319:3326   */\n      dup6\n        /* \"#utility.yul\":3310:3316   */\n      dup3\n        /* \"#utility.yul\":3299:3308   */\n      dup7\n        /* \"#utility.yul\":3295:3317   */\n      add\n        /* \"#utility.yul\":3274:3327   */\n      tag_463\n      jump\t// in\n    tag_577:\n        /* \"#utility.yul\":3264:3327   */\n      swap3\n      pop\n        /* \"#utility.yul\":3220:3337   */\n      pop\n        /* \"#utility.yul\":3376:3378   */\n      0x20\n        /* \"#utility.yul\":3402:3455   */\n      tag_578\n        /* \"#utility.yul\":3447:3454   */\n      dup6\n        /* \"#utility.yul\":3438:3444   */\n      dup3\n        /* \"#utility.yul\":3427:3436   */\n      dup7\n        /* \"#utility.yul\":3423:3445   */\n      add\n        /* \"#utility.yul\":3402:3455   */\n      tag_463\n      jump\t// in\n    tag_578:\n        /* \"#utility.yul\":3392:3455   */\n      swap2\n      pop\n        /* \"#utility.yul\":3347:3465   */\n      pop\n        /* \"#utility.yul\":2998:3472   */\n      swap3\n      pop\n      swap3\n      swap1\n      pop\n      jump\t// out\n        /* \"#utility.yul\":3478:3920   */\n    tag_160:\n        /* \"#utility.yul\":3627:3631   */\n      0x00\n        /* \"#utility.yul\":3665:3667   */\n      0x60\n        /* \"#utility.yul\":3654:3663   */\n      dup3\n        /* \"#utility.yul\":3650:3668   */\n      add\n        /* \"#utility.yul\":3642:3668   */\n      swap1\n      pop\n        /* \"#utility.yul\":3678:3749   */\n      tag_580\n        /* \"#utility.yul\":3746:3747   */\n      0x00\n        /* \"#utility.yul\":3735:3744   */\n      dup4\n        /* \"#utility.yul\":3731:3748   */\n      add\n        /* \"#utility.yul\":3722:3728   */\n      dup7\n        /* \"#utility.yul\":3678:3749   */\n      tag_458\n      jump\t// in\n    tag_580:\n        /* \"#utility.yul\":3759:3831   */\n      tag_581\n        /* \"#utility.yul\":3827:3829   */\n      0x20\n        /* \"#utility.yul\":3816:3825   */\n      dup4\n        /* \"#utility.yul\":3812:3830   */\n      add\n        /* \"#utility.yul\":3803:3809   */\n      dup6\n        /* \"#utility.yul\":3759:3831   */\n      tag_458\n      jump\t// in\n    tag_581:\n        /* \"#utility.yul\":3841:3913   */\n      tag_582\n        /* \"#utility.yul\":3909:3911   */\n      0x40\n        /* \"#utility.yul\":3898:3907   */\n      dup4\n        /* \"#utility.yul\":3894:3912   */\n      add\n        /* \"#utility.yul\":3885:3891   */\n      dup5\n        /* \"#utility.yul\":3841:3913   */\n      tag_458\n      jump\t// in\n    tag_582:\n        /* \"#utility.yul\":3478:3920   */\n      swap5\n      swap4\n      pop\n      pop\n      pop\n      pop\n      jump\t// out\n        /* \"#utility.yul\":3926:4400   */\n    tag_166:\n        /* \"#utility.yul\":3994:4000   */\n      0x00\n        /* \"#utility.yul\":4002:4008   */\n      dup1\n        /* \"#utility.yul\":4051:4053   */\n      0x40\n        /* \"#utility.yul\":4039:4048   */\n      dup4\n        /* \"#utility.yul\":4030:4037   */\n      dup6\n        /* \"#utility.yul\":4026:4049   */\n      sub\n        /* \"#utility.yul\":4022:4054   */\n      slt\n        /* \"#utility.yul\":4019:4138   */\n      iszero\n      tag_584\n      jumpi\n        /* \"#utility.yul\":4057:4136   */\n      tag_585\n      tag_460\n      jump\t// in\n    tag_585:\n        /* \"#utility.yul\":4019:4138   */\n    tag_584:\n        /* \"#utility.yul\":4177:4178   */\n      0x00\n        /* \"#utility.yul\":4202:4255   */\n      tag_586\n        /* \"#utility.yul\":4247:4254   */\n      dup6\n        /* \"#utility.yul\":4238:4244   */\n      dup3\n        /* \"#utility.yul\":4227:4236   */\n      dup7\n        /* \"#utility.yul\":4223:4245   */\n      add\n        /* \"#utility.yul\":4202:4255   */\n      tag_467\n      jump\t// in\n    tag_586:\n        /* \"#utility.yul\":4192:4255   */\n      swap3\n      pop\n        /* \"#utility.yul\":4148:4265   */\n      pop\n        /* \"#utility.yul\":4304:4306   */\n      0x20\n        /* \"#utility.yul\":4330:4383   */\n      tag_587\n        /* \"#utility.yul\":4375:4382   */\n      dup6\n        /* \"#utility.yul\":4366:4372   */\n      dup3\n        /* \"#utility.yul\":4355:4364   */\n      dup7\n        /* \"#utility.yul\":4351:4373   */\n      add\n        /* \"#utility.yul\":4330:4383   */\n      tag_463\n      jump\t// in\n    tag_587:\n        /* \"#utility.yul\":4320:4383   */\n      swap2\n      pop\n        /* \"#utility.yul\":4275:4393   */\n      pop\n        /* \"#utility.yul\":3926:4400   */\n      swap3\n      pop\n      swap3\n      swap1\n      pop\n      jump\t// out\n        /* \"#utility.yul\":4406:5268   */\n    tag_174:\n        /* \"#utility.yul\":4655:4659   */\n      0x00\n        /* \"#utility.yul\":4693:4696   */\n      0xe0\n        /* \"#utility.yul\":4682:4691   */\n      dup3\n        /* \"#utility.yul\":4678:4697   */\n      add\n        /* \"#utility.yul\":4670:4697   */\n      swap1\n      pop\n        /* \"#utility.yul\":4707:4778   */\n      tag_589\n        /* \"#utility.yul\":4775:4776   */\n      0x00\n        /* \"#utility.yul\":4764:4773   */\n      dup4\n        /* \"#utility.yul\":4760:4777   */\n      add\n        /* \"#utility.yul\":4751:4757   */\n      dup11\n        /* \"#utility.yul\":4707:4778   */\n      tag_470\n      jump\t// in\n    tag_589:\n        /* \"#utility.yul\":4788:4860   */\n      tag_590\n        /* \"#utility.yul\":4856:4858   */\n      0x20\n        /* \"#utility.yul\":4845:4854   */\n      dup4\n        /* \"#utility.yul\":4841:4859   */\n      add\n        /* \"#utility.yul\":4832:4838   */\n      dup10\n        /* \"#utility.yul\":4788:4860   */\n      tag_458\n      jump\t// in\n    tag_590:\n        /* \"#utility.yul\":4870:4942   */\n      tag_591\n        /* \"#utility.yul\":4938:4940   */\n      0x40\n        /* \"#utility.yul\":4927:4936   */\n      dup4\n        /* \"#utility.yul\":4923:4941   */\n      add\n        /* \"#utility.yul\":4914:4920   */\n      dup9\n        /* \"#utility.yul\":4870:4942   */\n      tag_458\n      jump\t// in\n    tag_591:\n        /* \"#utility.yul\":4952:5024   */\n      tag_592\n        /* \"#utility.yul\":5020:5022   */\n      0x60\n        /* \"#utility.yul\":5009:5018   */\n      dup4\n        /* \"#utility.yul\":5005:5023   */\n      add\n        /* \"#utility.yul\":4996:5002   */\n      dup8\n        /* \"#utility.yul\":4952:5024   */\n      tag_458\n      jump\t// in\n    tag_592:\n        /* \"#utility.yul\":5034:5107   */\n      tag_593\n        /* \"#utility.yul\":5102:5105   */\n      0x80\n        /* \"#utility.yul\":5091:5100   */\n      dup4\n        /* \"#utility.yul\":5087:5106   */\n      add\n        /* \"#utility.yul\":5078:5084   */\n      dup7\n        /* \"#utility.yul\":5034:5107   */\n      tag_458\n      jump\t// in\n    tag_593:\n        /* \"#utility.yul\":5117:5184   */\n      tag_594\n        /* \"#utility.yul\":5179:5182   */\n      0xa0\n        /* \"#utility.yul\":5168:5177   */\n      dup4\n        /* \"#utility.yul\":5164:5183   */\n      add\n        /* \"#utility.yul\":5155:5161   */\n      dup6\n        /* \"#utility.yul\":5117:5184   */\n      tag_469\n      jump\t// in\n    tag_594:\n        /* \"#utility.yul\":5194:5261   */\n      tag_595\n        /* \"#utility.yul\":5256:5259   */\n      0xc0\n        /* \"#utility.yul\":5245:5254   */\n      dup4\n        /* \"#utility.yul\":5241:5260   */\n      add\n        /* \"#utility.yul\":5232:5238   */\n      dup5\n        /* \"#utility.yul\":5194:5261   */\n      tag_469\n      jump\t// in\n    tag_595:\n        /* \"#utility.yul\":4406:5268   */\n      swap9\n      swap8\n      pop\n      pop\n      pop\n      pop\n      pop\n      pop\n      pop\n      pop\n      jump\t// out\n        /* \"#utility.yul\":5274:5443   */\n    tag_471:\n        /* \"#utility.yul\":5358:5369   */\n      0x00\n        /* \"#utility.yul\":5392:5398   */\n      dup3\n        /* \"#utility.yul\":5387:5390   */\n      dup3\n        /* \"#utility.yul\":5380:5399   */\n      mstore\n        /* \"#utility.yul\":5432:5436   */\n      0x20\n        /* \"#utility.yul\":5427:5430   */\n      dup3\n        /* \"#utility.yul\":5423:5437   */\n      add\n        /* \"#utility.yul\":5408:5437   */\n      swap1\n      pop\n        /* \"#utility.yul\":5274:5443   */\n      swap3\n      swap2\n      pop\n      pop\n      jump\t// out\n        /* \"#utility.yul\":5449:5623   */\n    tag_472:\n        /* \"#utility.yul\":5589:5615   */\n      0x596f7520617265206e6f742061206465706f7369746f722e0000000000000000\n        /* \"#utility.yul\":5585:5586   */\n      0x00\n        /* \"#utility.yul\":5577:5583   */\n      dup3\n        /* \"#utility.yul\":5573:5587   */\n      add\n        /* \"#utility.yul\":5566:5616   */\n      mstore\n        /* \"#utility.yul\":5449:5623   */\n      pop\n      jump\t// out\n        /* \"#utility.yul\":5629:5995   */\n    tag_473:\n        /* \"#utility.yul\":5771:5774   */\n      0x00\n        /* \"#utility.yul\":5792:5859   */\n      tag_599\n        /* \"#utility.yul\":5856:5858   */\n      0x18\n        /* \"#utility.yul\":5851:5854   */\n      dup4\n        /* \"#utility.yul\":5792:5859   */\n      tag_471\n      jump\t// in\n    tag_599:\n        /* \"#utility.yul\":5785:5859   */\n      swap2\n      pop\n        /* \"#utility.yul\":5868:5961   */\n      tag_600\n        /* \"#utility.yul\":5957:5960   */\n      dup3\n        /* \"#utility.yul\":5868:5961   */\n      tag_472\n      jump\t// in\n    tag_600:\n        /* \"#utility.yul\":5986:5988   */\n      0x20\n        /* \"#utility.yul\":5981:5984   */\n      dup3\n        /* \"#utility.yul\":5977:5989   */\n      add\n        /* \"#utility.yul\":5970:5989   */\n      swap1\n      pop\n        /* \"#utility.yul\":5629:5995   */\n      swap2\n      swap1\n      pop\n      jump\t// out\n        /* \"#utility.yul\":6001:6420   */\n    tag_199:\n        /* \"#utility.yul\":6167:6171   */\n      0x00\n        /* \"#utility.yul\":6205:6207   */\n      0x20\n        /* \"#utility.yul\":6194:6203   */\n      dup3\n        /* \"#utility.yul\":6190:6208   */\n      add\n        /* \"#utility.yul\":6182:6208   */\n      swap1\n      pop\n        /* \"#utility.yul\":6254:6263   */\n      dup2\n        /* \"#utility.yul\":6248:6252   */\n      dup2\n        /* \"#utility.yul\":6244:6264   */\n      sub\n        /* \"#utility.yul\":6240:6241   */\n      0x00\n        /* \"#utility.yul\":6229:6238   */\n      dup4\n        /* \"#utility.yul\":6225:6242   */\n      add\n        /* \"#utility.yul\":6218:6265   */\n      mstore\n        /* \"#utility.yul\":6282:6413   */\n      tag_602\n        /* \"#utility.yul\":6408:6412   */\n      dup2\n        /* \"#utility.yul\":6282:6413   */\n      tag_473\n      jump\t// in\n    tag_602:\n        /* \"#utility.yul\":6274:6413   */\n      swap1\n      pop\n        /* \"#utility.yul\":6001:6420   */\n      swap2\n      swap1\n      pop\n      jump\t// out\n        /* \"#utility.yul\":6426:6667   */\n    tag_474:\n        /* \"#utility.yul\":6566:6600   */\n      0x596f7520646f6e277420686176652074686973206d75636820616d6f756e7420\n        /* \"#utility.yul\":6562:6563   */\n      0x00\n        /* \"#utility.yul\":6554:6560   */\n      dup3\n        /* \"#utility.yul\":6550:6564   */\n      add\n        /* \"#utility.yul\":6543:6601   */\n      mstore\n        /* \"#utility.yul\":6635:6659   */\n      0x6f66206465706f73697420746f20776974686472617700000000000000000000\n        /* \"#utility.yul\":6630:6632   */\n      0x20\n        /* \"#utility.yul\":6622:6628   */\n      dup3\n        /* \"#utility.yul\":6618:6633   */\n      add\n        /* \"#utility.yul\":6611:6660   */\n      mstore\n        /* \"#utility.yul\":6426:6667   */\n      pop\n      jump\t// out\n        /* \"#utility.yul\":6673:7039   */\n    tag_475:\n        /* \"#utility.yul\":6815:6818   */\n      0x00\n        /* \"#utility.yul\":6836:6903   */\n      tag_605\n        /* \"#utility.yul\":6900:6902   */\n      0x36\n        /* \"#utility.yul\":6895:6898   */\n      dup4\n        /* \"#utility.yul\":6836:6903   */\n      tag_471\n      jump\t// in\n    tag_605:\n        /* \"#utility.yul\":6829:6903   */\n      swap2\n      pop\n        /* \"#utility.yul\":6912:7005   */\n      tag_606\n        /* \"#utility.yul\":7001:7004   */\n      dup3\n        /* \"#utility.yul\":6912:7005   */\n      tag_474\n      jump\t// in\n    tag_606:\n        /* \"#utility.yul\":7030:7032   */\n      0x40\n        /* \"#utility.yul\":7025:7028   */\n      dup3\n        /* \"#utility.yul\":7021:7033   */\n      add\n        /* \"#utility.yul\":7014:7033   */\n      swap1\n      pop\n        /* \"#utility.yul\":6673:7039   */\n      swap2\n      swap1\n      pop\n      jump\t// out\n        /* \"#utility.yul\":7045:7464   */\n    tag_202:\n        /* \"#utility.yul\":7211:7215   */\n      0x00\n        /* \"#utility.yul\":7249:7251   */\n      0x20\n        /* \"#utility.yul\":7238:7247   */\n      dup3\n        /* \"#utility.yul\":7234:7252   */\n      add\n        /* \"#utility.yul\":7226:7252   */\n      swap1\n      pop\n        /* \"#utility.yul\":7298:7307   */\n      dup2\n        /* \"#utility.yul\":7292:7296   */\n      dup2\n        /* \"#utility.yul\":7288:7308   */\n      sub\n        /* \"#utility.yul\":7284:7285   */\n      0x00\n        /* \"#utility.yul\":7273:7282   */\n      dup4\n        /* \"#utility.yul\":7269:7286   */\n      add\n        /* \"#utility.yul\":7262:7309   */\n      mstore\n        /* \"#utility.yul\":7326:7457   */\n      tag_608\n        /* \"#utility.yul\":7452:7456   */\n      dup2\n        /* \"#utility.yul\":7326:7457   */\n      tag_475\n      jump\t// in\n    tag_608:\n        /* \"#utility.yul\":7318:7457   */\n      swap1\n      pop\n        /* \"#utility.yul\":7045:7464   */\n      swap2\n      swap1\n      pop\n      jump\t// out\n        /* \"#utility.yul\":7470:7648   */\n    tag_476:\n        /* \"#utility.yul\":7610:7640   */\n      0x4e6f7420656e6f756768206c697175696469747920696e20706f6f6c00000000\n        /* \"#utility.yul\":7606:7607   */\n      0x00\n        /* \"#utility.yul\":7598:7604   */\n      dup3\n        /* \"#utility.yul\":7594:7608   */\n      add\n        /* \"#utility.yul\":7587:7641   */\n      mstore\n        /* \"#utility.yul\":7470:7648   */\n      pop\n      jump\t// out\n        /* \"#utility.yul\":7654:8020   */\n    tag_477:\n        /* \"#utility.yul\":7796:7799   */\n      0x00\n        /* \"#utility.yul\":7817:7884   */\n      tag_611\n        /* \"#utility.yul\":7881:7883   */\n      0x1c\n        /* \"#utility.yul\":7876:7879   */\n      dup4\n        /* \"#utility.yul\":7817:7884   */\n      tag_471\n      jump\t// in\n    tag_611:\n        /* \"#utility.yul\":7810:7884   */\n      swap2\n      pop\n        /* \"#utility.yul\":7893:7986   */\n      tag_612\n        /* \"#utility.yul\":7982:7985   */\n      dup3\n        /* \"#utility.yul\":7893:7986   */\n      tag_476\n      jump\t// in\n    tag_612:\n        /* \"#utility.yul\":8011:8013   */\n      0x20\n        /* \"#utility.yul\":8006:8009   */\n      dup3\n        /* \"#utility.yul\":8002:8014   */\n      add\n        /* \"#utility.yul\":7995:8014   */\n      swap1\n      pop\n        /* \"#utility.yul\":7654:8020   */\n      swap2\n      swap1\n      pop\n      jump\t// out\n        /* \"#utility.yul\":8026:8445   */\n    tag_205:\n        /* \"#utility.yul\":8192:8196   */\n      0x00\n        /* \"#utility.yul\":8230:8232   */\n      0x20\n        /* \"#utility.yul\":8219:8228   */\n      dup3\n        /* \"#utility.yul\":8215:8233   */\n      add\n        /* \"#utility.yul\":8207:8233   */\n      swap1\n      pop\n        /* \"#utility.yul\":8279:8288   */\n      dup2\n        /* \"#utility.yul\":8273:8277   */\n      dup2\n        /* \"#utility.yul\":8269:8289   */\n      sub\n        /* \"#utility.yul\":8265:8266   */\n      0x00\n        /* \"#utility.yul\":8254:8263   */\n      dup4\n        /* \"#utility.yul\":8250:8267   */\n      add\n        /* \"#utility.yul\":8243:8290   */\n      mstore\n        /* \"#utility.yul\":8307:8438   */\n      tag_614\n        /* \"#utility.yul\":8433:8437   */\n      dup2\n        /* \"#utility.yul\":8307:8438   */\n      tag_477\n      jump\t// in\n    tag_614:\n        /* \"#utility.yul\":8299:8438   */\n      swap1\n      pop\n        /* \"#utility.yul\":8026:8445   */\n      swap2\n      swap1\n      pop\n      jump\t// out\n        /* \"#utility.yul\":8451:8631   */\n    tag_478:\n        /* \"#utility.yul\":8499:8576   */\n      0x4e487b7100000000000000000000000000000000000000000000000000000000\n        /* \"#utility.yul\":8496:8497   */\n      0x00\n        /* \"#utility.yul\":8489:8577   */\n      mstore\n        /* \"#utility.yul\":8596:8600   */\n      0x11\n        /* \"#utility.yul\":8593:8594   */\n      0x04\n        /* \"#utility.yul\":8586:8601   */\n      mstore\n        /* \"#utility.yul\":8620:8624   */\n      0x24\n        /* \"#utility.yul\":8617:8618   */\n      0x00\n        /* \"#utility.yul\":8610:8625   */\n      revert\n        /* \"#utility.yul\":8637:8831   */\n    tag_207:\n        /* \"#utility.yul\":8677:8681   */\n      0x00\n        /* \"#utility.yul\":8697:8717   */\n      tag_617\n        /* \"#utility.yul\":8715:8716   */\n      dup3\n        /* \"#utility.yul\":8697:8717   */\n      tag_457\n      jump\t// in\n    tag_617:\n        /* \"#utility.yul\":8692:8717   */\n      swap2\n      pop\n        /* \"#utility.yul\":8731:8751   */\n      tag_618\n        /* \"#utility.yul\":8749:8750   */\n      dup4\n        /* \"#utility.yul\":8731:8751   */\n      tag_457\n      jump\t// in\n    tag_618:\n        /* \"#utility.yul\":8726:8751   */\n      swap3\n      pop\n        /* \"#utility.yul\":8775:8776   */\n      dup3\n        /* \"#utility.yul\":8772:8773   */\n      dup3\n        /* \"#utility.yul\":8768:8777   */\n      sub\n        /* \"#utility.yul\":8760:8777   */\n      swap1\n      pop\n        /* \"#utility.yul\":8799:8800   */\n      dup2\n        /* \"#utility.yul\":8793:8797   */\n      dup2\n        /* \"#utility.yul\":8790:8801   */\n      gt\n        /* \"#utility.yul\":8787:8824   */\n      iszero\n      tag_619\n      jumpi\n        /* \"#utility.yul\":8804:8822   */\n      tag_620\n      tag_478\n      jump\t// in\n    tag_620:\n        /* \"#utility.yul\":8787:8824   */\n    tag_619:\n        /* \"#utility.yul\":8637:8831   */\n      swap3\n      swap2\n      pop\n      pop\n      jump\t// out\n        /* \"#utility.yul\":8837:8984   */\n    tag_479:\n        /* \"#utility.yul\":8938:8949   */\n      0x00\n        /* \"#utility.yul\":8975:8978   */\n      dup2\n        /* \"#utility.yul\":8960:8978   */\n      swap1\n      pop\n        /* \"#utility.yul\":8837:8984   */\n      swap3\n      swap2\n      pop\n      pop\n      jump\t// out\n        /* \"#utility.yul\":8990:9104   */\n    tag_480:\n      pop\n      jump\t// out\n        /* \"#utility.yul\":9110:9508   */\n    tag_481:\n        /* \"#utility.yul\":9269:9272   */\n      0x00\n        /* \"#utility.yul\":9290:9373   */\n      tag_624\n        /* \"#utility.yul\":9371:9372   */\n      0x00\n        /* \"#utility.yul\":9366:9369   */\n      dup4\n        /* \"#utility.yul\":9290:9373   */\n      tag_479\n      jump\t// in\n    tag_624:\n        /* \"#utility.yul\":9283:9373   */\n      swap2\n      pop\n        /* \"#utility.yul\":9382:9475   */\n      tag_625\n        /* \"#utility.yul\":9471:9474   */\n      dup3\n        /* \"#utility.yul\":9382:9475   */\n      tag_480\n      jump\t// in\n    tag_625:\n        /* \"#utility.yul\":9500:9501   */\n      0x00\n        /* \"#utility.yul\":9495:9498   */\n      dup3\n        /* \"#utility.yul\":9491:9502   */\n      add\n        /* \"#utility.yul\":9484:9502   */\n      swap1\n      pop\n        /* \"#utility.yul\":9110:9508   */\n      swap2\n      swap1\n      pop\n      jump\t// out\n        /* \"#utility.yul\":9514:9893   */\n    tag_210:\n        /* \"#utility.yul\":9698:9701   */\n      0x00\n        /* \"#utility.yul\":9720:9867   */\n      tag_627\n        /* \"#utility.yul\":9863:9866   */\n      dup3\n        /* \"#utility.yul\":9720:9867   */\n      tag_481\n      jump\t// in\n    tag_627:\n        /* \"#utility.yul\":9713:9867   */\n      swap2\n      pop\n        /* \"#utility.yul\":9884:9887   */\n      dup2\n        /* \"#utility.yul\":9877:9887   */\n      swap1\n      pop\n        /* \"#utility.yul\":9514:9893   */\n      swap2\n      swap1\n      pop\n      jump\t// out\n        /* \"#utility.yul\":9899:10075   */\n    tag_482:\n        /* \"#utility.yul\":10039:10067   */\n      0x5769746864726177616c207472616e73666572206661696c6564000000000000\n        /* \"#utility.yul\":10035:10036   */\n      0x00\n        /* \"#utility.yul\":10027:10033   */\n      dup3\n        /* \"#utility.yul\":10023:10037   */\n      add\n        /* \"#utility.yul\":10016:10068   */\n      mstore\n        /* \"#utility.yul\":9899:10075   */\n      pop\n      jump\t// out\n        /* \"#utility.yul\":10081:10447   */\n    tag_483:\n        /* \"#utility.yul\":10223:10226   */\n      0x00\n        /* \"#utility.yul\":10244:10311   */\n      tag_630\n        /* \"#utility.yul\":10308:10310   */\n      0x1a\n        /* \"#utility.yul\":10303:10306   */\n      dup4\n        /* \"#utility.yul\":10244:10311   */\n      tag_471\n      jump\t// in\n    tag_630:\n        /* \"#utility.yul\":10237:10311   */\n      swap2\n      pop\n        /* \"#utility.yul\":10320:10413   */\n      tag_631\n        /* \"#utility.yul\":10409:10412   */\n      dup3\n        /* \"#utility.yul\":10320:10413   */\n      tag_482\n      jump\t// in\n    tag_631:\n        /* \"#utility.yul\":10438:10440   */\n      0x20\n        /* \"#utility.yul\":10433:10436   */\n      dup3\n        /* \"#utility.yul\":10429:10441   */\n      add\n        /* \"#utility.yul\":10422:10441   */\n      swap1\n      pop\n        /* \"#utility.yul\":10081:10447   */\n      swap2\n      swap1\n      pop\n      jump\t// out\n        /* \"#utility.yul\":10453:10872   */\n    tag_216:\n        /* \"#utility.yul\":10619:10623   */\n      0x00\n        /* \"#utility.yul\":10657:10659   */\n      0x20\n        /* \"#utility.yul\":10646:10655   */\n      dup3\n        /* \"#utility.yul\":10642:10660   */\n      add\n        /* \"#utility.yul\":10634:10660   */\n      swap1\n      pop\n        /* \"#utility.yul\":10706:10715   */\n      dup2\n        /* \"#utility.yul\":10700:10704   */\n      dup2\n        /* \"#utility.yul\":10696:10716   */\n      sub\n        /* \"#utility.yul\":10692:10693   */\n      0x00\n        /* \"#utility.yul\":10681:10690   */\n      dup4\n        /* \"#utility.yul\":10677:10694   */\n      add\n        /* \"#utility.yul\":10670:10717   */\n      mstore\n        /* \"#utility.yul\":10734:10865   */\n      tag_633\n        /* \"#utility.yul\":10860:10864   */\n      dup2\n        /* \"#utility.yul\":10734:10865   */\n      tag_483\n      jump\t// in\n    tag_633:\n        /* \"#utility.yul\":10726:10865   */\n      swap1\n      pop\n        /* \"#utility.yul\":10453:10872   */\n      swap2\n      swap1\n      pop\n      jump\t// out\n        /* \"#utility.yul\":10878:11058   */\n    tag_224:\n        /* \"#utility.yul\":10926:11003   */\n      0x4e487b7100000000000000000000000000000000000000000000000000000000\n        /* \"#utility.yul\":10923:10924   */\n      0x00\n        /* \"#utility.yul\":10916:11004   */\n      mstore\n        /* \"#utility.yul\":11023:11027   */\n      0x32\n        /* \"#utility.yul\":11020:11021   */\n      0x04\n        /* \"#utility.yul\":11013:11028   */\n      mstore\n        /* \"#utility.yul\":11047:11051   */\n      0x24\n        /* \"#utility.yul\":11044:11045   */\n      0x00\n        /* \"#utility.yul\":11037:11052   */\n      revert\n        /* \"#utility.yul\":11064:11244   */\n    tag_231:\n        /* \"#utility.yul\":11112:11189   */\n      0x4e487b7100000000000000000000000000000000000000000000000000000000\n        /* \"#utility.yul\":11109:11110   */\n      0x00\n        /* \"#utility.yul\":11102:11190   */\n      mstore\n        /* \"#utility.yul\":11209:11213   */\n      0x31\n        /* \"#utility.yul\":11206:11207   */\n      0x04\n        /* \"#utility.yul\":11199:11214   */\n      mstore\n        /* \"#utility.yul\":11233:11237   */\n      0x24\n        /* \"#utility.yul\":11230:11231   */\n      0x00\n        /* \"#utility.yul\":11223:11238   */\n      revert\n        /* \"#utility.yul\":11250:11475   */\n    tag_484:\n        /* \"#utility.yul\":11390:11424   */\n      0x4f6e6c7920746865206f776e65722063616e20706572666f726d207468697320\n        /* \"#utility.yul\":11386:11387   */\n      0x00\n        /* \"#utility.yul\":11378:11384   */\n      dup3\n        /* \"#utility.yul\":11374:11388   */\n      add\n        /* \"#utility.yul\":11367:11425   */\n      mstore\n        /* \"#utility.yul\":11459:11467   */\n      0x616374696f6e0000000000000000000000000000000000000000000000000000\n        /* \"#utility.yul\":11454:11456   */\n      0x20\n        /* \"#utility.yul\":11446:11452   */\n      dup3\n        /* \"#utility.yul\":11442:11457   */\n      add\n        /* \"#utility.yul\":11435:11468   */\n      mstore\n        /* \"#utility.yul\":11250:11475   */\n      pop\n      jump\t// out\n        /* \"#utility.yul\":11481:11847   */\n    tag_485:\n        /* \"#utility.yul\":11623:11626   */\n      0x00\n        /* \"#utility.yul\":11644:11711   */\n      tag_638\n        /* \"#utility.yul\":11708:11710   */\n      0x26\n        /* \"#utility.yul\":11703:11706   */\n      dup4\n        /* \"#utility.yul\":11644:11711   */\n      tag_471\n      jump\t// in\n    tag_638:\n        /* \"#utility.yul\":11637:11711   */\n      swap2\n      pop\n        /* \"#utility.yul\":11720:11813   */\n      tag_639\n        /* \"#utility.yul\":11809:11812   */\n      dup3\n        /* \"#utility.yul\":11720:11813   */\n      tag_484\n      jump\t// in\n    tag_639:\n        /* \"#utility.yul\":11838:11840   */\n      0x40\n        /* \"#utility.yul\":11833:11836   */\n      dup3\n        /* \"#utility.yul\":11829:11841   */\n      add\n        /* \"#utility.yul\":11822:11841   */\n      swap1\n      pop\n        /* \"#utility.yul\":11481:11847   */\n      swap2\n      swap1\n      pop\n      jump\t// out\n        /* \"#utility.yul\":11853:12272   */\n    tag_245:\n        /* \"#utility.yul\":12019:12023   */\n      0x00\n        /* \"#utility.yul\":12057:12059   */\n      0x20\n        /* \"#utility.yul\":12046:12055   */\n      dup3\n        /* \"#utility.yul\":12042:12060   */\n      add\n        /* \"#utility.yul\":12034:12060   */\n      swap1\n      pop\n        /* \"#utility.yul\":12106:12115   */\n      dup2\n        /* \"#utility.yul\":12100:12104   */\n      dup2\n        /* \"#utility.yul\":12096:12116   */\n      sub\n        /* \"#utility.yul\":12092:12093   */\n      0x00\n        /* \"#utility.yul\":12081:12090   */\n      dup4\n        /* \"#utility.yul\":12077:12094   */\n      add\n        /* \"#utility.yul\":12070:12117   */\n      mstore\n        /* \"#utility.yul\":12134:12265   */\n      tag_641\n        /* \"#utility.yul\":12260:12264   */\n      dup2\n        /* \"#utility.yul\":12134:12265   */\n      tag_485\n      jump\t// in\n    tag_641:\n        /* \"#utility.yul\":12126:12265   */\n      swap1\n      pop\n        /* \"#utility.yul\":11853:12272   */\n      swap2\n      swap1\n      pop\n      jump\t// out\n        /* \"#utility.yul\":12278:12498   */\n    tag_486:\n        /* \"#utility.yul\":12418:12452   */\n      0x4e6f20616374697665206c6f616e7320666f72207468697320626f72726f7765\n        /* \"#utility.yul\":12414:12415   */\n      0x00\n        /* \"#utility.yul\":12406:12412   */\n      dup3\n        /* \"#utility.yul\":12402:12416   */\n      add\n        /* \"#utility.yul\":12395:12453   */\n      mstore\n        /* \"#utility.yul\":12487:12490   */\n      0x7200000000000000000000000000000000000000000000000000000000000000\n        /* \"#utility.yul\":12482:12484   */\n      0x20\n        /* \"#utility.yul\":12474:12480   */\n      dup3\n        /* \"#utility.yul\":12470:12485   */\n      add\n        /* \"#utility.yul\":12463:12491   */\n      mstore\n        /* \"#utility.yul\":12278:12498   */\n      pop\n      jump\t// out\n        /* \"#utility.yul\":12504:12870   */\n    tag_487:\n        /* \"#utility.yul\":12646:12649   */\n      0x00\n        /* \"#utility.yul\":12667:12734   */\n      tag_644\n        /* \"#utility.yul\":12731:12733   */\n      0x21\n        /* \"#utility.yul\":12726:12729   */\n      dup4\n        /* \"#utility.yul\":12667:12734   */\n      tag_471\n      jump\t// in\n    tag_644:\n        /* \"#utility.yul\":12660:12734   */\n      swap2\n      pop\n        /* \"#utility.yul\":12743:12836   */\n      tag_645\n        /* \"#utility.yul\":12832:12835   */\n      dup3\n        /* \"#utility.yul\":12743:12836   */\n      tag_486\n      jump\t// in\n    tag_645:\n        /* \"#utility.yul\":12861:12863   */\n      0x40\n        /* \"#utility.yul\":12856:12859   */\n      dup3\n        /* \"#utility.yul\":12852:12864   */\n      add\n        /* \"#utility.yul\":12845:12864   */\n      swap1\n      pop\n        /* \"#utility.yul\":12504:12870   */\n      swap2\n      swap1\n      pop\n      jump\t// out\n        /* \"#utility.yul\":12876:13295   */\n    tag_249:\n        /* \"#utility.yul\":13042:13046   */\n      0x00\n        /* \"#utility.yul\":13080:13082   */\n      0x20\n        /* \"#utility.yul\":13069:13078   */\n      dup3\n        /* \"#utility.yul\":13065:13083   */\n      add\n        /* \"#utility.yul\":13057:13083   */\n      swap1\n      pop\n        /* \"#utility.yul\":13129:13138   */\n      dup2\n        /* \"#utility.yul\":13123:13127   */\n      dup2\n        /* \"#utility.yul\":13119:13139   */\n      sub\n        /* \"#utility.yul\":13115:13116   */\n      0x00\n        /* \"#utility.yul\":13104:13113   */\n      dup4\n        /* \"#utility.yul\":13100:13117   */\n      add\n        /* \"#utility.yul\":13093:13140   */\n      mstore\n        /* \"#utility.yul\":13157:13288   */\n      tag_647\n        /* \"#utility.yul\":13283:13287   */\n      dup2\n        /* \"#utility.yul\":13157:13288   */\n      tag_487\n      jump\t// in\n    tag_647:\n        /* \"#utility.yul\":13149:13288   */\n      swap1\n      pop\n        /* \"#utility.yul\":12876:13295   */\n      swap2\n      swap1\n      pop\n      jump\t// out\n        /* \"#utility.yul\":13301:13473   */\n    tag_488:\n        /* \"#utility.yul\":13441:13465   */\n      0x4e6f20636f6c6c61746572616c20746f207365697a6500000000000000000000\n        /* \"#utility.yul\":13437:13438   */\n      0x00\n        /* \"#utility.yul\":13429:13435   */\n      dup3\n        /* \"#utility.yul\":13425:13439   */\n      add\n        /* \"#utility.yul\":13418:13466   */\n      mstore\n        /* \"#utility.yul\":13301:13473   */\n      pop\n      jump\t// out\n        /* \"#utility.yul\":13479:13845   */\n    tag_489:\n        /* \"#utility.yul\":13621:13624   */\n      0x00\n        /* \"#utility.yul\":13642:13709   */\n      tag_650\n        /* \"#utility.yul\":13706:13708   */\n      0x16\n        /* \"#utility.yul\":13701:13704   */\n      dup4\n        /* \"#utility.yul\":13642:13709   */\n      tag_471\n      jump\t// in\n    tag_650:\n        /* \"#utility.yul\":13635:13709   */\n      swap2\n      pop\n        /* \"#utility.yul\":13718:13811   */\n      tag_651\n        /* \"#utility.yul\":13807:13810   */\n      dup3\n        /* \"#utility.yul\":13718:13811   */\n      tag_488\n      jump\t// in\n    tag_651:\n        /* \"#utility.yul\":13836:13838   */\n      0x20\n        /* \"#utility.yul\":13831:13834   */\n      dup3\n        /* \"#utility.yul\":13827:13839   */\n      add\n        /* \"#utility.yul\":13820:13839   */\n      swap1\n      pop\n        /* \"#utility.yul\":13479:13845   */\n      swap2\n      swap1\n      pop\n      jump\t// out\n        /* \"#utility.yul\":13851:14270   */\n    tag_252:\n        /* \"#utility.yul\":14017:14021   */\n      0x00\n        /* \"#utility.yul\":14055:14057   */\n      0x20\n        /* \"#utility.yul\":14044:14053   */\n      dup3\n        /* \"#utility.yul\":14040:14058   */\n      add\n        /* \"#utility.yul\":14032:14058   */\n      swap1\n      pop\n        /* \"#utility.yul\":14104:14113   */\n      dup2\n        /* \"#utility.yul\":14098:14102   */\n      dup2\n        /* \"#utility.yul\":14094:14114   */\n      sub\n        /* \"#utility.yul\":14090:14091   */\n      0x00\n        /* \"#utility.yul\":14079:14088   */\n      dup4\n        /* \"#utility.yul\":14075:14092   */\n      add\n        /* \"#utility.yul\":14068:14115   */\n      mstore\n        /* \"#utility.yul\":14132:14263   */\n      tag_653\n        /* \"#utility.yul\":14258:14262   */\n      dup2\n        /* \"#utility.yul\":14132:14263   */\n      tag_489\n      jump\t// in\n    tag_653:\n        /* \"#utility.yul\":14124:14263   */\n      swap1\n      pop\n        /* \"#utility.yul\":13851:14270   */\n      swap2\n      swap1\n      pop\n      jump\t// out\n        /* \"#utility.yul\":14276:14501   */\n    tag_490:\n        /* \"#utility.yul\":14416:14450   */\n      0x4661696c656420746f207472616e7366657220636f6c6c61746572616c20746f\n        /* \"#utility.yul\":14412:14413   */\n      0x00\n        /* \"#utility.yul\":14404:14410   */\n      dup3\n        /* \"#utility.yul\":14400:14414   */\n      add\n        /* \"#utility.yul\":14393:14451   */\n      mstore\n        /* \"#utility.yul\":14485:14493   */\n      0x206f776e65720000000000000000000000000000000000000000000000000000\n        /* \"#utility.yul\":14480:14482   */\n      0x20\n        /* \"#utility.yul\":14472:14478   */\n      dup3\n        /* \"#utility.yul\":14468:14483   */\n      add\n        /* \"#utility.yul\":14461:14494   */\n      mstore\n        /* \"#utility.yul\":14276:14501   */\n      pop\n      jump\t// out\n        /* \"#utility.yul\":14507:14873   */\n    tag_491:\n        /* \"#utility.yul\":14649:14652   */\n      0x00\n        /* \"#utility.yul\":14670:14737   */\n      tag_656\n        /* \"#utility.yul\":14734:14736   */\n      0x26\n        /* \"#utility.yul\":14729:14732   */\n      dup4\n        /* \"#utility.yul\":14670:14737   */\n      tag_471\n      jump\t// in\n    tag_656:\n        /* \"#utility.yul\":14663:14737   */\n      swap2\n      pop\n        /* \"#utility.yul\":14746:14839   */\n      tag_657\n        /* \"#utility.yul\":14835:14838   */\n      dup3\n        /* \"#utility.yul\":14746:14839   */\n      tag_490\n      jump\t// in\n    tag_657:\n        /* \"#utility.yul\":14864:14866   */\n      0x40\n        /* \"#utility.yul\":14859:14862   */\n      dup3\n        /* \"#utility.yul\":14855:14867   */\n      add\n        /* \"#utility.yul\":14848:14867   */\n      swap1\n      pop\n        /* \"#utility.yul\":14507:14873   */\n      swap2\n      swap1\n      pop\n      jump\t// out\n        /* \"#utility.yul\":14879:15298   */\n    tag_259:\n        /* \"#utility.yul\":15045:15049   */\n      0x00\n        /* \"#utility.yul\":15083:15085   */\n      0x20\n        /* \"#utility.yul\":15072:15081   */\n      dup3\n        /* \"#utility.yul\":15068:15086   */\n      add\n        /* \"#utility.yul\":15060:15086   */\n      swap1\n      pop\n        /* \"#utility.yul\":15132:15141   */\n      dup2\n        /* \"#utility.yul\":15126:15130   */\n      dup2\n        /* \"#utility.yul\":15122:15142   */\n      sub\n        /* \"#utility.yul\":15118:15119   */\n      0x00\n        /* \"#utility.yul\":15107:15116   */\n      dup4\n        /* \"#utility.yul\":15103:15120   */\n      add\n        /* \"#utility.yul\":15096:15143   */\n      mstore\n        /* \"#utility.yul\":15160:15291   */\n      tag_659\n        /* \"#utility.yul\":15286:15290   */\n      dup2\n        /* \"#utility.yul\":15160:15291   */\n      tag_491\n      jump\t// in\n    tag_659:\n        /* \"#utility.yul\":15152:15291   */\n      swap1\n      pop\n        /* \"#utility.yul\":14879:15298   */\n      swap2\n      swap1\n      pop\n      jump\t// out\n        /* \"#utility.yul\":15304:15495   */\n    tag_261:\n        /* \"#utility.yul\":15344:15347   */\n      0x00\n        /* \"#utility.yul\":15363:15383   */\n      tag_661\n        /* \"#utility.yul\":15381:15382   */\n      dup3\n        /* \"#utility.yul\":15363:15383   */\n      tag_457\n      jump\t// in\n    tag_661:\n        /* \"#utility.yul\":15358:15383   */\n      swap2\n      pop\n        /* \"#utility.yul\":15397:15417   */\n      tag_662\n        /* \"#utility.yul\":15415:15416   */\n      dup4\n        /* \"#utility.yul\":15397:15417   */\n      tag_457\n      jump\t// in\n    tag_662:\n        /* \"#utility.yul\":15392:15417   */\n      swap3\n      pop\n        /* \"#utility.yul\":15440:15441   */\n      dup3\n        /* \"#utility.yul\":15437:15438   */\n      dup3\n        /* \"#utility.yul\":15433:15442   */\n      add\n        /* \"#utility.yul\":15426:15442   */\n      swap1\n      pop\n        /* \"#utility.yul\":15461:15464   */\n      dup1\n        /* \"#utility.yul\":15458:15459   */\n      dup3\n        /* \"#utility.yul\":15455:15465   */\n      gt\n        /* \"#utility.yul\":15452:15488   */\n      iszero\n      tag_663\n      jumpi\n        /* \"#utility.yul\":15468:15486   */\n      tag_664\n      tag_478\n      jump\t// in\n    tag_664:\n        /* \"#utility.yul\":15452:15488   */\n    tag_663:\n        /* \"#utility.yul\":15304:15495   */\n      swap3\n      swap2\n      pop\n      pop\n      jump\t// out\n        /* \"#utility.yul\":15501:15833   */\n    tag_263:\n        /* \"#utility.yul\":15622:15626   */\n      0x00\n        /* \"#utility.yul\":15660:15662   */\n      0x40\n        /* \"#utility.yul\":15649:15658   */\n      dup3\n        /* \"#utility.yul\":15645:15663   */\n      add\n        /* \"#utility.yul\":15637:15663   */\n      swap1\n      pop\n        /* \"#utility.yul\":15673:15744   */\n      tag_666\n        /* \"#utility.yul\":15741:15742   */\n      0x00\n        /* \"#utility.yul\":15730:15739   */\n      dup4\n        /* \"#utility.yul\":15726:15743   */\n      add\n        /* \"#utility.yul\":15717:15723   */\n      dup6\n        /* \"#utility.yul\":15673:15744   */\n      tag_458\n      jump\t// in\n    tag_666:\n        /* \"#utility.yul\":15754:15826   */\n      tag_667\n        /* \"#utility.yul\":15822:15824   */\n      0x20\n        /* \"#utility.yul\":15811:15820   */\n      dup4\n        /* \"#utility.yul\":15807:15825   */\n      add\n        /* \"#utility.yul\":15798:15804   */\n      dup5\n        /* \"#utility.yul\":15754:15826   */\n      tag_458\n      jump\t// in\n    tag_667:\n        /* \"#utility.yul\":15501:15833   */\n      swap4\n      swap3\n      pop\n      pop\n      pop\n      jump\t// out\n        /* \"#utility.yul\":15839:16249   */\n    tag_267:\n        /* \"#utility.yul\":15879:15886   */\n      0x00\n        /* \"#utility.yul\":15902:15922   */\n      tag_669\n        /* \"#utility.yul\":15920:15921   */\n      dup3\n        /* \"#utility.yul\":15902:15922   */\n      tag_457\n      jump\t// in\n    tag_669:\n        /* \"#utility.yul\":15897:15922   */\n      swap2\n      pop\n        /* \"#utility.yul\":15936:15956   */\n      tag_670\n        /* \"#utility.yul\":15954:15955   */\n      dup4\n        /* \"#utility.yul\":15936:15956   */\n      tag_457\n      jump\t// in\n    tag_670:\n        /* \"#utility.yul\":15931:15956   */\n      swap3\n      pop\n        /* \"#utility.yul\":15991:15992   */\n      dup3\n        /* \"#utility.yul\":15988:15989   */\n      dup3\n        /* \"#utility.yul\":15984:15993   */\n      mul\n        /* \"#utility.yul\":16013:16043   */\n      tag_671\n        /* \"#utility.yul\":16031:16042   */\n      dup2\n        /* \"#utility.yul\":16013:16043   */\n      tag_457\n      jump\t// in\n    tag_671:\n        /* \"#utility.yul\":16002:16043   */\n      swap2\n      pop\n        /* \"#utility.yul\":16192:16193   */\n      dup3\n        /* \"#utility.yul\":16183:16190   */\n      dup3\n        /* \"#utility.yul\":16179:16194   */\n      div\n        /* \"#utility.yul\":16176:16177   */\n      dup5\n        /* \"#utility.yul\":16173:16195   */\n      eq\n        /* \"#utility.yul\":16153:16154   */\n      dup4\n        /* \"#utility.yul\":16146:16155   */\n      iszero\n        /* \"#utility.yul\":16126:16209   */\n      or\n        /* \"#utility.yul\":16103:16242   */\n      tag_672\n      jumpi\n        /* \"#utility.yul\":16222:16240   */\n      tag_673\n      tag_478\n      jump\t// in\n    tag_673:\n        /* \"#utility.yul\":16103:16242   */\n    tag_672:\n        /* \"#utility.yul\":15887:16249   */\n      pop\n        /* \"#utility.yul\":15839:16249   */\n      swap3\n      swap2\n      pop\n      pop\n      jump\t// out\n        /* \"#utility.yul\":16255:16434   */\n    tag_492:\n        /* \"#utility.yul\":16395:16426   */\n      0x596f752068617665206e6f206f75747374616e64696e67206c6f616e73000000\n        /* \"#utility.yul\":16391:16392   */\n      0x00\n        /* \"#utility.yul\":16383:16389   */\n      dup3\n        /* \"#utility.yul\":16379:16393   */\n      add\n        /* \"#utility.yul\":16372:16427   */\n      mstore\n        /* \"#utility.yul\":16255:16434   */\n      pop\n      jump\t// out\n        /* \"#utility.yul\":16440:16806   */\n    tag_493:\n        /* \"#utility.yul\":16582:16585   */\n      0x00\n        /* \"#utility.yul\":16603:16670   */\n      tag_676\n        /* \"#utility.yul\":16667:16669   */\n      0x1d\n        /* \"#utility.yul\":16662:16665   */\n      dup4\n        /* \"#utility.yul\":16603:16670   */\n      tag_471\n      jump\t// in\n    tag_676:\n        /* \"#utility.yul\":16596:16670   */\n      swap2\n      pop\n        /* \"#utility.yul\":16679:16772   */\n      tag_677\n        /* \"#utility.yul\":16768:16771   */\n      dup3\n        /* \"#utility.yul\":16679:16772   */\n      tag_492\n      jump\t// in\n    tag_677:\n        /* \"#utility.yul\":16797:16799   */\n      0x20\n        /* \"#utility.yul\":16792:16795   */\n      dup3\n        /* \"#utility.yul\":16788:16800   */\n      add\n        /* \"#utility.yul\":16781:16800   */\n      swap1\n      pop\n        /* \"#utility.yul\":16440:16806   */\n      swap2\n      swap1\n      pop\n      jump\t// out\n        /* \"#utility.yul\":16812:17231   */\n    tag_271:\n        /* \"#utility.yul\":16978:16982   */\n      0x00\n        /* \"#utility.yul\":17016:17018   */\n      0x20\n        /* \"#utility.yul\":17005:17014   */\n      dup3\n        /* \"#utility.yul\":17001:17019   */\n      add\n        /* \"#utility.yul\":16993:17019   */\n      swap1\n      pop\n        /* \"#utility.yul\":17065:17074   */\n      dup2\n        /* \"#utility.yul\":17059:17063   */\n      dup2\n        /* \"#utility.yul\":17055:17075   */\n      sub\n        /* \"#utility.yul\":17051:17052   */\n      0x00\n        /* \"#utility.yul\":17040:17049   */\n      dup4\n        /* \"#utility.yul\":17036:17053   */\n      add\n        /* \"#utility.yul\":17029:17076   */\n      mstore\n        /* \"#utility.yul\":17093:17224   */\n      tag_679\n        /* \"#utility.yul\":17219:17223   */\n      dup2\n        /* \"#utility.yul\":17093:17224   */\n      tag_493\n      jump\t// in\n    tag_679:\n        /* \"#utility.yul\":17085:17224   */\n      swap1\n      pop\n        /* \"#utility.yul\":16812:17231   */\n      swap2\n      swap1\n      pop\n      jump\t// out\n        /* \"#utility.yul\":17237:17417   */\n    tag_494:\n        /* \"#utility.yul\":17285:17362   */\n      0x4e487b7100000000000000000000000000000000000000000000000000000000\n        /* \"#utility.yul\":17282:17283   */\n      0x00\n        /* \"#utility.yul\":17275:17363   */\n      mstore\n        /* \"#utility.yul\":17382:17386   */\n      0x12\n        /* \"#utility.yul\":17379:17380   */\n      0x04\n        /* \"#utility.yul\":17372:17387   */\n      mstore\n        /* \"#utility.yul\":17406:17410   */\n      0x24\n        /* \"#utility.yul\":17403:17404   */\n      0x00\n        /* \"#utility.yul\":17396:17411   */\n      revert\n        /* \"#utility.yul\":17423:17608   */\n    tag_274:\n        /* \"#utility.yul\":17463:17464   */\n      0x00\n        /* \"#utility.yul\":17480:17500   */\n      tag_682\n        /* \"#utility.yul\":17498:17499   */\n      dup3\n        /* \"#utility.yul\":17480:17500   */\n      tag_457\n      jump\t// in\n    tag_682:\n        /* \"#utility.yul\":17475:17500   */\n      swap2\n      pop\n        /* \"#utility.yul\":17514:17534   */\n      tag_683\n        /* \"#utility.yul\":17532:17533   */\n      dup4\n        /* \"#utility.yul\":17514:17534   */\n      tag_457\n      jump\t// in\n    tag_683:\n        /* \"#utility.yul\":17509:17534   */\n      swap3\n      pop\n        /* \"#utility.yul\":17553:17554   */\n      dup3\n        /* \"#utility.yul\":17543:17578   */\n      tag_684\n      jumpi\n        /* \"#utility.yul\":17558:17576   */\n      tag_685\n      tag_494\n      jump\t// in\n    tag_685:\n        /* \"#utility.yul\":17543:17578   */\n    tag_684:\n        /* \"#utility.yul\":17600:17601   */\n      dup3\n        /* \"#utility.yul\":17597:17598   */\n      dup3\n        /* \"#utility.yul\":17593:17602   */\n      div\n        /* \"#utility.yul\":17588:17602   */\n      swap1\n      pop\n        /* \"#utility.yul\":17423:17608   */\n      swap3\n      swap2\n      pop\n      pop\n      jump\t// out\n        /* \"#utility.yul\":17614:17834   */\n    tag_495:\n        /* \"#utility.yul\":17754:17788   */\n      0x496e636c75646520696e74657265737420696e207468652072657061796d656e\n        /* \"#utility.yul\":17750:17751   */\n      0x00\n        /* \"#utility.yul\":17742:17748   */\n      dup3\n        /* \"#utility.yul\":17738:17752   */\n      add\n        /* \"#utility.yul\":17731:17789   */\n      mstore\n        /* \"#utility.yul\":17823:17826   */\n      0x7400000000000000000000000000000000000000000000000000000000000000\n        /* \"#utility.yul\":17818:17820   */\n      0x20\n        /* \"#utility.yul\":17810:17816   */\n      dup3\n        /* \"#utility.yul\":17806:17821   */\n      add\n        /* \"#utility.yul\":17799:17827   */\n      mstore\n        /* \"#utility.yul\":17614:17834   */\n      pop\n      jump\t// out\n        /* \"#utility.yul\":17840:18206   */\n    tag_496:\n        /* \"#utility.yul\":17982:17985   */\n      0x00\n        /* \"#utility.yul\":18003:18070   */\n      tag_688\n        /* \"#utility.yul\":18067:18069   */\n      0x21\n        /* \"#utility.yul\":18062:18065   */\n      dup4\n        /* \"#utility.yul\":18003:18070   */\n      tag_471\n      jump\t// in\n    tag_688:\n        /* \"#utility.yul\":17996:18070   */\n      swap2\n      pop\n        /* \"#utility.yul\":18079:18172   */\n      tag_689\n        /* \"#utility.yul\":18168:18171   */\n      dup3\n        /* \"#utility.yul\":18079:18172   */\n      tag_495\n      jump\t// in\n    tag_689:\n        /* \"#utility.yul\":18197:18199   */\n      0x40\n        /* \"#utility.yul\":18192:18195   */\n      dup3\n        /* \"#utility.yul\":18188:18200   */\n      add\n        /* \"#utility.yul\":18181:18200   */\n      swap1\n      pop\n        /* \"#utility.yul\":17840:18206   */\n      swap2\n      swap1\n      pop\n      jump\t// out\n        /* \"#utility.yul\":18212:18631   */\n    tag_278:\n        /* \"#utility.yul\":18378:18382   */\n      0x00\n        /* \"#utility.yul\":18416:18418   */\n      0x20\n        /* \"#utility.yul\":18405:18414   */\n      dup3\n        /* \"#utility.yul\":18401:18419   */\n      add\n        /* \"#utility.yul\":18393:18419   */\n      swap1\n      pop\n        /* \"#utility.yul\":18465:18474   */\n      dup2\n        /* \"#utility.yul\":18459:18463   */\n      dup2\n        /* \"#utility.yul\":18455:18475   */\n      sub\n        /* \"#utility.yul\":18451:18452   */\n      0x00\n        /* \"#utility.yul\":18440:18449   */\n      dup4\n        /* \"#utility.yul\":18436:18453   */\n      add\n        /* \"#utility.yul\":18429:18476   */\n      mstore\n        /* \"#utility.yul\":18493:18624   */\n      tag_691\n        /* \"#utility.yul\":18619:18623   */\n      dup2\n        /* \"#utility.yul\":18493:18624   */\n      tag_496\n      jump\t// in\n    tag_691:\n        /* \"#utility.yul\":18485:18624   */\n      swap1\n      pop\n        /* \"#utility.yul\":18212:18631   */\n      swap2\n      swap1\n      pop\n      jump\t// out\n        /* \"#utility.yul\":18637:18810   */\n    tag_497:\n        /* \"#utility.yul\":18777:18802   */\n      0x4e6f20636f6c6c61746572616c20746f2072657475726e000000000000000000\n        /* \"#utility.yul\":18773:18774   */\n      0x00\n        /* \"#utility.yul\":18765:18771   */\n      dup3\n        /* \"#utility.yul\":18761:18775   */\n      add\n        /* \"#utility.yul\":18754:18803   */\n      mstore\n        /* \"#utility.yul\":18637:18810   */\n      pop\n      jump\t// out\n        /* \"#utility.yul\":18816:19182   */\n    tag_498:\n        /* \"#utility.yul\":18958:18961   */\n      0x00\n        /* \"#utility.yul\":18979:19046   */\n      tag_694\n        /* \"#utility.yul\":19043:19045   */\n      0x17\n        /* \"#utility.yul\":19038:19041   */\n      dup4\n        /* \"#utility.yul\":18979:19046   */\n      tag_471\n      jump\t// in\n    tag_694:\n        /* \"#utility.yul\":18972:19046   */\n      swap2\n      pop\n        /* \"#utility.yul\":19055:19148   */\n      tag_695\n        /* \"#utility.yul\":19144:19147   */\n      dup3\n        /* \"#utility.yul\":19055:19148   */\n      tag_497\n      jump\t// in\n    tag_695:\n        /* \"#utility.yul\":19173:19175   */\n      0x20\n        /* \"#utility.yul\":19168:19171   */\n      dup3\n        /* \"#utility.yul\":19164:19176   */\n      add\n        /* \"#utility.yul\":19157:19176   */\n      swap1\n      pop\n        /* \"#utility.yul\":18816:19182   */\n      swap2\n      swap1\n      pop\n      jump\t// out\n        /* \"#utility.yul\":19188:19607   */\n    tag_281:\n        /* \"#utility.yul\":19354:19358   */\n      0x00\n        /* \"#utility.yul\":19392:19394   */\n      0x20\n        /* \"#utility.yul\":19381:19390   */\n      dup3\n        /* \"#utility.yul\":19377:19395   */\n      add\n        /* \"#utility.yul\":19369:19395   */\n      swap1\n      pop\n        /* \"#utility.yul\":19441:19450   */\n      dup2\n        /* \"#utility.yul\":19435:19439   */\n      dup2\n        /* \"#utility.yul\":19431:19451   */\n      sub\n        /* \"#utility.yul\":19427:19428   */\n      0x00\n        /* \"#utility.yul\":19416:19425   */\n      dup4\n        /* \"#utility.yul\":19412:19429   */\n      add\n        /* \"#utility.yul\":19405:19452   */\n      mstore\n        /* \"#utility.yul\":19469:19600   */\n      tag_697\n        /* \"#utility.yul\":19595:19599   */\n      dup2\n        /* \"#utility.yul\":19469:19600   */\n      tag_498\n      jump\t// in\n    tag_697:\n        /* \"#utility.yul\":19461:19600   */\n      swap1\n      pop\n        /* \"#utility.yul\":19188:19607   */\n      swap2\n      swap1\n      pop\n      jump\t// out\n        /* \"#utility.yul\":19613:19790   */\n    tag_499:\n        /* \"#utility.yul\":19753:19782   */\n      0x4661696c656420746f2072657475726e20636f6c6c61746572616c0000000000\n        /* \"#utility.yul\":19749:19750   */\n      0x00\n        /* \"#utility.yul\":19741:19747   */\n      dup3\n        /* \"#utility.yul\":19737:19751   */\n      add\n        /* \"#utility.yul\":19730:19783   */\n      mstore\n        /* \"#utility.yul\":19613:19790   */\n      pop\n      jump\t// out\n        /* \"#utility.yul\":19796:20162   */\n    tag_500:\n        /* \"#utility.yul\":19938:19941   */\n      0x00\n        /* \"#utility.yul\":19959:20026   */\n      tag_700\n        /* \"#utility.yul\":20023:20025   */\n      0x1b\n        /* \"#utility.yul\":20018:20021   */\n      dup4\n        /* \"#utility.yul\":19959:20026   */\n      tag_471\n      jump\t// in\n    tag_700:\n        /* \"#utility.yul\":19952:20026   */\n      swap2\n      pop\n        /* \"#utility.yul\":20035:20128   */\n      tag_701\n        /* \"#utility.yul\":20124:20127   */\n      dup3\n        /* \"#utility.yul\":20035:20128   */\n      tag_499\n      jump\t// in\n    tag_701:\n        /* \"#utility.yul\":20153:20155   */\n      0x20\n        /* \"#utility.yul\":20148:20151   */\n      dup3\n        /* \"#utility.yul\":20144:20156   */\n      add\n        /* \"#utility.yul\":20137:20156   */\n      swap1\n      pop\n        /* \"#utility.yul\":19796:20162   */\n      swap2\n      swap1\n      pop\n      jump\t// out\n        /* \"#utility.yul\":20168:20587   */\n    tag_289:\n        /* \"#utility.yul\":20334:20338   */\n      0x00\n        /* \"#utility.yul\":20372:20374   */\n      0x20\n        /* \"#utility.yul\":20361:20370   */\n      dup3\n        /* \"#utility.yul\":20357:20375   */\n      add\n        /* \"#utility.yul\":20349:20375   */\n      swap1\n      pop\n        /* \"#utility.yul\":20421:20430   */\n      dup2\n        /* \"#utility.yul\":20415:20419   */\n      dup2\n        /* \"#utility.yul\":20411:20431   */\n      sub\n        /* \"#utility.yul\":20407:20408   */\n      0x00\n        /* \"#utility.yul\":20396:20405   */\n      dup4\n        /* \"#utility.yul\":20392:20409   */\n      add\n        /* \"#utility.yul\":20385:20432   */\n      mstore\n        /* \"#utility.yul\":20449:20580   */\n      tag_703\n        /* \"#utility.yul\":20575:20579   */\n      dup2\n        /* \"#utility.yul\":20449:20580   */\n      tag_500\n      jump\t// in\n    tag_703:\n        /* \"#utility.yul\":20441:20580   */\n      swap1\n      pop\n        /* \"#utility.yul\":20168:20587   */\n      swap2\n      swap1\n      pop\n      jump\t// out\n        /* \"#utility.yul\":20593:20759   */\n    tag_501:\n        /* \"#utility.yul\":20733:20751   */\n      0x4e6f742061206465706f7369746f722e00000000000000000000000000000000\n        /* \"#utility.yul\":20729:20730   */\n      0x00\n        /* \"#utility.yul\":20721:20727   */\n      dup3\n        /* \"#utility.yul\":20717:20731   */\n      add\n        /* \"#utility.yul\":20710:20752   */\n      mstore\n        /* \"#utility.yul\":20593:20759   */\n      pop\n      jump\t// out\n        /* \"#utility.yul\":20765:21131   */\n    tag_502:\n        /* \"#utility.yul\":20907:20910   */\n      0x00\n        /* \"#utility.yul\":20928:20995   */\n      tag_706\n        /* \"#utility.yul\":20992:20994   */\n      0x10\n        /* \"#utility.yul\":20987:20990   */\n      dup4\n        /* \"#utility.yul\":20928:20995   */\n      tag_471\n      jump\t// in\n    tag_706:\n        /* \"#utility.yul\":20921:20995   */\n      swap2\n      pop\n        /* \"#utility.yul\":21004:21097   */\n      tag_707\n        /* \"#utility.yul\":21093:21096   */\n      dup3\n        /* \"#utility.yul\":21004:21097   */\n      tag_501\n      jump\t// in\n    tag_707:\n        /* \"#utility.yul\":21122:21124   */\n      0x20\n        /* \"#utility.yul\":21117:21120   */\n      dup3\n        /* \"#utility.yul\":21113:21125   */\n      add\n        /* \"#utility.yul\":21106:21125   */\n      swap1\n      pop\n        /* \"#utility.yul\":20765:21131   */\n      swap2\n      swap1\n      pop\n      jump\t// out\n        /* \"#utility.yul\":21137:21556   */\n    tag_295:\n        /* \"#utility.yul\":21303:21307   */\n      0x00\n        /* \"#utility.yul\":21341:21343   */\n      0x20\n        /* \"#utility.yul\":21330:21339   */\n      dup3\n        /* \"#utility.yul\":21326:21344   */\n      add\n        /* \"#utility.yul\":21318:21344   */\n      swap1\n      pop\n        /* \"#utility.yul\":21390:21399   */\n      dup2\n        /* \"#utility.yul\":21384:21388   */\n      dup2\n        /* \"#utility.yul\":21380:21400   */\n      sub\n        /* \"#utility.yul\":21376:21377   */\n      0x00\n        /* \"#utility.yul\":21365:21374   */\n      dup4\n        /* \"#utility.yul\":21361:21378   */\n      add\n        /* \"#utility.yul\":21354:21401   */\n      mstore\n        /* \"#utility.yul\":21418:21549   */\n      tag_709\n        /* \"#utility.yul\":21544:21548   */\n      dup2\n        /* \"#utility.yul\":21418:21549   */\n      tag_502\n      jump\t// in\n    tag_709:\n        /* \"#utility.yul\":21410:21549   */\n      swap1\n      pop\n        /* \"#utility.yul\":21137:21556   */\n      swap2\n      swap1\n      pop\n      jump\t// out\n        /* \"#utility.yul\":21562:21795   */\n    tag_304:\n        /* \"#utility.yul\":21601:21604   */\n      0x00\n        /* \"#utility.yul\":21624:21648   */\n      tag_711\n        /* \"#utility.yul\":21642:21647   */\n      dup3\n        /* \"#utility.yul\":21624:21648   */\n      tag_457\n      jump\t// in\n    tag_711:\n        /* \"#utility.yul\":21615:21648   */\n      swap2\n      pop\n        /* \"#utility.yul\":21670:21736   */\n      0xffffffffffffffffffffffffffffffffffffffffffffffffffffffffffffffff\n        /* \"#utility.yul\":21663:21668   */\n      dup3\n        /* \"#utility.yul\":21660:21737   */\n      sub\n        /* \"#utility.yul\":21657:21760   */\n      tag_712\n      jumpi\n        /* \"#utility.yul\":21740:21758   */\n      tag_713\n      tag_478\n      jump\t// in\n    tag_713:\n        /* \"#utility.yul\":21657:21760   */\n    tag_712:\n        /* \"#utility.yul\":21787:21788   */\n      0x01\n        /* \"#utility.yul\":21780:21785   */\n      dup3\n        /* \"#utility.yul\":21776:21789   */\n      add\n        /* \"#utility.yul\":21769:21789   */\n      swap1\n      pop\n        /* \"#utility.yul\":21562:21795   */\n      swap2\n      swap1\n      pop\n      jump\t// out\n        /* \"#utility.yul\":21801:22022   */\n    tag_503:\n        /* \"#utility.yul\":21941:21975   */\n      0x4c6f616e20616d6f756e74206d7573742062652067726561746572207468616e\n        /* \"#utility.yul\":21937:21938   */\n      0x00\n        /* \"#utility.yul\":21929:21935   */\n      dup3\n        /* \"#utility.yul\":21925:21939   */\n      add\n        /* \"#utility.yul\":21918:21976   */\n      mstore\n        /* \"#utility.yul\":22010:22014   */\n      0x2030000000000000000000000000000000000000000000000000000000000000\n        /* \"#utility.yul\":22005:22007   */\n      0x20\n        /* \"#utility.yul\":21997:22003   */\n      dup3\n        /* \"#utility.yul\":21993:22008   */\n      add\n        /* \"#utility.yul\":21986:22015   */\n      mstore\n        /* \"#utility.yul\":21801:22022   */\n      pop\n      jump\t// out\n        /* \"#utility.yul\":22028:22394   */\n    tag_504:\n        /* \"#utility.yul\":22170:22173   */\n      0x00\n        /* \"#utility.yul\":22191:22258   */\n      tag_716\n        /* \"#utility.yul\":22255:22257   */\n      0x22\n        /* \"#utility.yul\":22250:22253   */\n      dup4\n        /* \"#utility.yul\":22191:22258   */\n      tag_471\n      jump\t// in\n    tag_716:\n        /* \"#utility.yul\":22184:22258   */\n      swap2\n      pop\n        /* \"#utility.yul\":22267:22360   */\n      tag_717\n        /* \"#utility.yul\":22356:22359   */\n      dup3\n        /* \"#utility.yul\":22267:22360   */\n      tag_503\n      jump\t// in\n    tag_717:\n        /* \"#utility.yul\":22385:22387   */\n      0x40\n        /* \"#utility.yul\":22380:22383   */\n      dup3\n        /* \"#utility.yul\":22376:22388   */\n      add\n        /* \"#utility.yul\":22369:22388   */\n      swap1\n      pop\n        /* \"#utility.yul\":22028:22394   */\n      swap2\n      swap1\n      pop\n      jump\t// out\n        /* \"#utility.yul\":22400:22819   */\n    tag_312:\n        /* \"#utility.yul\":22566:22570   */\n      0x00\n        /* \"#utility.yul\":22604:22606   */\n      0x20\n        /* \"#utility.yul\":22593:22602   */\n      dup3\n        /* \"#utility.yul\":22589:22607   */\n      add\n        /* \"#utility.yul\":22581:22607   */\n      swap1\n      pop\n        /* \"#utility.yul\":22653:22662   */\n      dup2\n        /* \"#utility.yul\":22647:22651   */\n      dup2\n        /* \"#utility.yul\":22643:22663   */\n      sub\n        /* \"#utility.yul\":22639:22640   */\n      0x00\n        /* \"#utility.yul\":22628:22637   */\n      dup4\n        /* \"#utility.yul\":22624:22641   */\n      add\n        /* \"#utility.yul\":22617:22664   */\n      mstore\n        /* \"#utility.yul\":22681:22812   */\n      tag_719\n        /* \"#utility.yul\":22807:22811   */\n      dup2\n        /* \"#utility.yul\":22681:22812   */\n      tag_504\n      jump\t// in\n    tag_719:\n        /* \"#utility.yul\":22673:22812   */\n      swap1\n      pop\n        /* \"#utility.yul\":22400:22819   */\n      swap2\n      swap1\n      pop\n      jump\t// out\n        /* \"#utility.yul\":22825:23050   */\n    tag_505:\n        /* \"#utility.yul\":22965:22999   */\n      0x436f6c6c61746572616c206d7573742062652031353025206f66206c6f616e20\n        /* \"#utility.yul\":22961:22962   */\n      0x00\n        /* \"#utility.yul\":22953:22959   */\n      dup3\n        /* \"#utility.yul\":22949:22963   */\n      add\n        /* \"#utility.yul\":22942:23000   */\n      mstore\n        /* \"#utility.yul\":23034:23042   */\n      0x616d6f756e740000000000000000000000000000000000000000000000000000\n        /* \"#utility.yul\":23029:23031   */\n      0x20\n        /* \"#utility.yul\":23021:23027   */\n      dup3\n        /* \"#utility.yul\":23017:23032   */\n      add\n        /* \"#utility.yul\":23010:23043   */\n      mstore\n        /* \"#utility.yul\":22825:23050   */\n      pop\n      jump\t// out\n        /* \"#utility.yul\":23056:23422   */\n    tag_506:\n        /* \"#utility.yul\":23198:23201   */\n      0x00\n        /* \"#utility.yul\":23219:23286   */\n      tag_722\n        /* \"#utility.yul\":23283:23285   */\n      0x26\n        /* \"#utility.yul\":23278:23281   */\n      dup4\n        /* \"#utility.yul\":23219:23286   */\n      tag_471\n      jump\t// in\n    tag_722:\n        /* \"#utility.yul\":23212:23286   */\n      swap2\n      pop\n        /* \"#utility.yul\":23295:23388   */\n      tag_723\n        /* \"#utility.yul\":23384:23387   */\n      dup3\n        /* \"#utility.yul\":23295:23388   */\n      tag_505\n      jump\t// in\n    tag_723:\n        /* \"#utility.yul\":23413:23415   */\n      0x40\n        /* \"#utility.yul\":23408:23411   */\n      dup3\n        /* \"#utility.yul\":23404:23416   */\n      add\n        /* \"#utility.yul\":23397:23416   */\n      swap1\n      pop\n        /* \"#utility.yul\":23056:23422   */\n      swap2\n      swap1\n      pop\n      jump\t// out\n        /* \"#utility.yul\":23428:23847   */\n    tag_319:\n        /* \"#utility.yul\":23594:23598   */\n      0x00\n        /* \"#utility.yul\":23632:23634   */\n      0x20\n        /* \"#utility.yul\":23621:23630   */\n      dup3\n        /* \"#utility.yul\":23617:23635   */\n      add\n        /* \"#utility.yul\":23609:23635   */\n      swap1\n      pop\n        /* \"#utility.yul\":23681:23690   */\n      dup2\n        /* \"#utility.yul\":23675:23679   */\n      dup2\n        /* \"#utility.yul\":23671:23691   */\n      sub\n        /* \"#utility.yul\":23667:23668   */\n      0x00\n        /* \"#utility.yul\":23656:23665   */\n      dup4\n        /* \"#utility.yul\":23652:23669   */\n      add\n        /* \"#utility.yul\":23645:23692   */\n      mstore\n        /* \"#utility.yul\":23709:23840   */\n      tag_725\n        /* \"#utility.yul\":23835:23839   */\n      dup2\n        /* \"#utility.yul\":23709:23840   */\n      tag_506\n      jump\t// in\n    tag_725:\n        /* \"#utility.yul\":23701:23840   */\n      swap1\n      pop\n        /* \"#utility.yul\":23428:23847   */\n      swap2\n      swap1\n      pop\n      jump\t// out\n        /* \"#utility.yul\":23853:24023   */\n    tag_507:\n        /* \"#utility.yul\":23993:24015   */\n      0x4c6f616e207472616e73666572206661696c6564000000000000000000000000\n        /* \"#utility.yul\":23989:23990   */\n      0x00\n        /* \"#utility.yul\":23981:23987   */\n      dup3\n        /* \"#utility.yul\":23977:23991   */\n      add\n        /* \"#utility.yul\":23970:24016   */\n      mstore\n        /* \"#utility.yul\":23853:24023   */\n      pop\n      jump\t// out\n        /* \"#utility.yul\":24029:24395   */\n    tag_508:\n        /* \"#utility.yul\":24171:24174   */\n      0x00\n        /* \"#utility.yul\":24192:24259   */\n      tag_728\n        /* \"#utility.yul\":24256:24258   */\n      0x14\n        /* \"#utility.yul\":24251:24254   */\n      dup4\n        /* \"#utility.yul\":24192:24259   */\n      tag_471\n      jump\t// in\n    tag_728:\n        /* \"#utility.yul\":24185:24259   */\n      swap2\n      pop\n        /* \"#utility.yul\":24268:24361   */\n      tag_729\n        /* \"#utility.yul\":24357:24360   */\n      dup3\n        /* \"#utility.yul\":24268:24361   */\n      tag_507\n      jump\t// in\n    tag_729:\n        /* \"#utility.yul\":24386:24388   */\n      0x20\n        /* \"#utility.yul\":24381:24384   */\n      dup3\n        /* \"#utility.yul\":24377:24389   */\n      add\n        /* \"#utility.yul\":24370:24389   */\n      swap1\n      pop\n        /* \"#utility.yul\":24029:24395   */\n      swap2\n      swap1\n      pop\n      jump\t// out\n        /* \"#utility.yul\":24401:24820   */\n    tag_333:\n        /* \"#utility.yul\":24567:24571   */\n      0x00\n        /* \"#utility.yul\":24605:24607   */\n      0x20\n        /* \"#utility.yul\":24594:24603   */\n      dup3\n        /* \"#utility.yul\":24590:24608   */\n      add\n        /* \"#utility.yul\":24582:24608   */\n      swap1\n      pop\n        /* \"#utility.yul\":24654:24663   */\n      dup2\n        /* \"#utility.yul\":24648:24652   */\n      dup2\n        /* \"#utility.yul\":24644:24664   */\n      sub\n        /* \"#utility.yul\":24640:24641   */\n      0x00\n        /* \"#utility.yul\":24629:24638   */\n      dup4\n        /* \"#utility.yul\":24625:24642   */\n      add\n        /* \"#utility.yul\":24618:24665   */\n      mstore\n        /* \"#utility.yul\":24682:24813   */\n      tag_731\n        /* \"#utility.yul\":24808:24812   */\n      dup2\n        /* \"#utility.yul\":24682:24813   */\n      tag_508\n      jump\t// in\n    tag_731:\n        /* \"#utility.yul\":24674:24813   */\n      swap1\n      pop\n        /* \"#utility.yul\":24401:24820   */\n      swap2\n      swap1\n      pop\n      jump\t// out\n        /* \"#utility.yul\":24826:25047   */\n    tag_509:\n        /* \"#utility.yul\":24966:25000   */\n      0x4e6f206c697175696469747920746f2061636372756520696e74657265737420\n        /* \"#utility.yul\":24962:24963   */\n      0x00\n        /* \"#utility.yul\":24954:24960   */\n      dup3\n        /* \"#utility.yul\":24950:24964   */\n      add\n        /* \"#utility.yul\":24943:25001   */\n      mstore\n        /* \"#utility.yul\":25035:25039   */\n      0x6f6e000000000000000000000000000000000000000000000000000000000000\n        /* \"#utility.yul\":25030:25032   */\n      0x20\n        /* \"#utility.yul\":25022:25028   */\n      dup3\n        /* \"#utility.yul\":25018:25033   */\n      add\n        /* \"#utility.yul\":25011:25040   */\n      mstore\n        /* \"#utility.yul\":24826:25047   */\n      pop\n      jump\t// out\n        /* \"#utility.yul\":25053:25419   */\n    tag_510:\n        /* \"#utility.yul\":25195:25198   */\n      0x00\n        /* \"#utility.yul\":25216:25283   */\n      tag_734\n        /* \"#utility.yul\":25280:25282   */\n      0x22\n        /* \"#utility.yul\":25275:25278   */\n      dup4\n        /* \"#utility.yul\":25216:25283   */\n      tag_471\n      jump\t// in\n    tag_734:\n        /* \"#utility.yul\":25209:25283   */\n      swap2\n      pop\n        /* \"#utility.yul\":25292:25385   */\n      tag_735\n        /* \"#utility.yul\":25381:25384   */\n      dup3\n        /* \"#utility.yul\":25292:25385   */\n      tag_509\n      jump\t// in\n    tag_735:\n        /* \"#utility.yul\":25410:25412   */\n      0x40\n        /* \"#utility.yul\":25405:25408   */\n      dup3\n        /* \"#utility.yul\":25401:25413   */\n      add\n        /* \"#utility.yul\":25394:25413   */\n      swap1\n      pop\n        /* \"#utility.yul\":25053:25419   */\n      swap2\n      swap1\n      pop\n      jump\t// out\n        /* \"#utility.yul\":25425:25844   */\n    tag_338:\n        /* \"#utility.yul\":25591:25595   */\n      0x00\n        /* \"#utility.yul\":25629:25631   */\n      0x20\n        /* \"#utility.yul\":25618:25627   */\n      dup3\n        /* \"#utility.yul\":25614:25632   */\n      add\n        /* \"#utility.yul\":25606:25632   */\n      swap1\n      pop\n        /* \"#utility.yul\":25678:25687   */\n      dup2\n        /* \"#utility.yul\":25672:25676   */\n      dup2\n        /* \"#utility.yul\":25668:25688   */\n      sub\n        /* \"#utility.yul\":25664:25665   */\n      0x00\n        /* \"#utility.yul\":25653:25662   */\n      dup4\n        /* \"#utility.yul\":25649:25666   */\n      add\n        /* \"#utility.yul\":25642:25689   */\n      mstore\n        /* \"#utility.yul\":25706:25837   */\n      tag_737\n        /* \"#utility.yul\":25832:25836   */\n      dup2\n        /* \"#utility.yul\":25706:25837   */\n      tag_510\n      jump\t// in\n    tag_737:\n        /* \"#utility.yul\":25698:25837   */\n      swap1\n      pop\n        /* \"#utility.yul\":25425:25844   */\n      swap2\n      swap1\n      pop\n      jump\t// out\n        /* \"#utility.yul\":25850:26013   */\n    tag_511:\n        /* \"#utility.yul\":25990:26005   */\n      0x4e6f7420796f7572206c6f616e00000000000000000000000000000000000000\n        /* \"#utility.yul\":25986:25987   */\n      0x00\n        /* \"#utility.yul\":25978:25984   */\n      dup3\n        /* \"#utility.yul\":25974:25988   */\n      add\n        /* \"#utility.yul\":25967:26006   */\n      mstore\n        /* \"#utility.yul\":25850:26013   */\n      pop\n      jump\t// out\n        /* \"#utility.yul\":26019:26385   */\n    tag_512:\n        /* \"#utility.yul\":26161:26164   */\n      0x00\n        /* \"#utility.yul\":26182:26249   */\n      tag_740\n        /* \"#utility.yul\":26246:26248   */\n      0x0d\n        /* \"#utility.yul\":26241:26244   */\n      dup4\n        /* \"#utility.yul\":26182:26249   */\n      tag_471\n      jump\t// in\n    tag_740:\n        /* \"#utility.yul\":26175:26249   */\n      swap2\n      pop\n        /* \"#utility.yul\":26258:26351   */\n      tag_741\n        /* \"#utility.yul\":26347:26350   */\n      dup3\n        /* \"#utility.yul\":26258:26351   */\n      tag_511\n      jump\t// in\n    tag_741:\n        /* \"#utility.yul\":26376:26378   */\n      0x20\n        /* \"#utility.yul\":26371:26374   */\n      dup3\n        /* \"#utility.yul\":26367:26379   */\n      add\n        /* \"#utility.yul\":26360:26379   */\n      swap1\n      pop\n        /* \"#utility.yul\":26019:26385   */\n      swap2\n      swap1\n      pop\n      jump\t// out\n        /* \"#utility.yul\":26391:26810   */\n    tag_351:\n        /* \"#utility.yul\":26557:26561   */\n      0x00\n        /* \"#utility.yul\":26595:26597   */\n      0x20\n        /* \"#utility.yul\":26584:26593   */\n      dup3\n        /* \"#utility.yul\":26580:26598   */\n      add\n        /* \"#utility.yul\":26572:26598   */\n      swap1\n      pop\n        /* \"#utility.yul\":26644:26653   */\n      dup2\n        /* \"#utility.yul\":26638:26642   */\n      dup2\n        /* \"#utility.yul\":26634:26654   */\n      sub\n        /* \"#utility.yul\":26630:26631   */\n      0x00\n        /* \"#utility.yul\":26619:26628   */\n      dup4\n        /* \"#utility.yul\":26615:26632   */\n      add\n        /* \"#utility.yul\":26608:26655   */\n      mstore\n        /* \"#utility.yul\":26672:26803   */\n      tag_743\n        /* \"#utility.yul\":26798:26802   */\n      dup2\n        /* \"#utility.yul\":26672:26803   */\n      tag_512\n      jump\t// in\n    tag_743:\n        /* \"#utility.yul\":26664:26803   */\n      swap1\n      pop\n        /* \"#utility.yul\":26391:26810   */\n      swap2\n      swap1\n      pop\n      jump\t// out\n        /* \"#utility.yul\":26816:26984   */\n    tag_513:\n        /* \"#utility.yul\":26956:26976   */\n      0x4c6f616e206973206e6f74206163746976650000000000000000000000000000\n        /* \"#utility.yul\":26952:26953   */\n      0x00\n        /* \"#utility.yul\":26944:26950   */\n      dup3\n        /* \"#utility.yul\":26940:26954   */\n      add\n        /* \"#utility.yul\":26933:26977   */\n      mstore\n        /* \"#utility.yul\":26816:26984   */\n      pop\n      jump\t// out\n        /* \"#utility.yul\":26990:27356   */\n    tag_514:\n        /* \"#utility.yul\":27132:27135   */\n      0x00\n        /* \"#utility.yul\":27153:27220   */\n      tag_746\n        /* \"#utility.yul\":27217:27219   */\n      0x12\n        /* \"#utility.yul\":27212:27215   */\n      dup4\n        /* \"#utility.yul\":27153:27220   */\n      tag_471\n      jump\t// in\n    tag_746:\n        /* \"#utility.yul\":27146:27220   */\n      swap2\n      pop\n        /* \"#utility.yul\":27229:27322   */\n      tag_747\n        /* \"#utility.yul\":27318:27321   */\n      dup3\n        /* \"#utility.yul\":27229:27322   */\n      tag_513\n      jump\t// in\n    tag_747:\n        /* \"#utility.yul\":27347:27349   */\n      0x20\n        /* \"#utility.yul\":27342:27345   */\n      dup3\n        /* \"#utility.yul\":27338:27350   */\n      add\n        /* \"#utility.yul\":27331:27350   */\n      swap1\n      pop\n        /* \"#utility.yul\":26990:27356   */\n      swap2\n      swap1\n      pop\n      jump\t// out\n        /* \"#utility.yul\":27362:27781   */\n    tag_354:\n        /* \"#utility.yul\":27528:27532   */\n      0x00\n        /* \"#utility.yul\":27566:27568   */\n      0x20\n        /* \"#utility.yul\":27555:27564   */\n      dup3\n        /* \"#utility.yul\":27551:27569   */\n      add\n        /* \"#utility.yul\":27543:27569   */\n      swap1\n      pop\n        /* \"#utility.yul\":27615:27624   */\n      dup2\n        /* \"#utility.yul\":27609:27613   */\n      dup2\n        /* \"#utility.yul\":27605:27625   */\n      sub\n        /* \"#utility.yul\":27601:27602   */\n      0x00\n        /* \"#utility.yul\":27590:27599   */\n      dup4\n        /* \"#utility.yul\":27586:27603   */\n      add\n        /* \"#utility.yul\":27579:27626   */\n      mstore\n        /* \"#utility.yul\":27643:27774   */\n      tag_749\n        /* \"#utility.yul\":27769:27773   */\n      dup2\n        /* \"#utility.yul\":27643:27774   */\n      tag_514\n      jump\t// in\n    tag_749:\n        /* \"#utility.yul\":27635:27774   */\n      swap1\n      pop\n        /* \"#utility.yul\":27362:27781   */\n      swap2\n      swap1\n      pop\n      jump\t// out\n        /* \"#utility.yul\":27787:27956   */\n    tag_515:\n        /* \"#utility.yul\":27927:27948   */\n      0x4c6f616e20616c72656164792072657061696400000000000000000000000000\n        /* \"#utility.yul\":27923:27924   */\n      0x00\n        /* \"#utility.yul\":27915:27921   */\n      dup3\n        /* \"#utility.yul\":27911:27925   */\n      add\n        /* \"#utility.yul\":27904:27949   */\n      mstore\n        /* \"#utility.yul\":27787:27956   */\n      pop\n      jump\t// out\n        /* \"#utility.yul\":27962:28328   */\n    tag_516:\n        /* \"#utility.yul\":28104:28107   */\n      0x00\n        /* \"#utility.yul\":28125:28192   */\n      tag_752\n        /* \"#utility.yul\":28189:28191   */\n      0x13\n        /* \"#utility.yul\":28184:28187   */\n      dup4\n        /* \"#utility.yul\":28125:28192   */\n      tag_471\n      jump\t// in\n    tag_752:\n        /* \"#utility.yul\":28118:28192   */\n      swap2\n      pop\n        /* \"#utility.yul\":28201:28294   */\n      tag_753\n        /* \"#utility.yul\":28290:28293   */\n      dup3\n        /* \"#utility.yul\":28201:28294   */\n      tag_515\n      jump\t// in\n    tag_753:\n        /* \"#utility.yul\":28319:28321   */\n      0x20\n        /* \"#utility.yul\":28314:28317   */\n      dup3\n        /* \"#utility.yul\":28310:28322   */\n      add\n        /* \"#utility.yul\":28303:28322   */\n      swap1\n      pop\n        /* \"#utility.yul\":27962:28328   */\n      swap2\n      swap1\n      pop\n      jump\t// out\n        /* \"#utility.yul\":28334:28753   */\n    tag_357:\n        /* \"#utility.yul\":28500:28504   */\n      0x00\n        /* \"#utility.yul\":28538:28540   */\n      0x20\n        /* \"#utility.yul\":28527:28536   */\n      dup3\n        /* \"#utility.yul\":28523:28541   */\n      add\n        /* \"#utility.yul\":28515:28541   */\n      swap1\n      pop\n        /* \"#utility.yul\":28587:28596   */\n      dup2\n        /* \"#utility.yul\":28581:28585   */\n      dup2\n        /* \"#utility.yul\":28577:28597   */\n      sub\n        /* \"#utility.yul\":28573:28574   */\n      0x00\n        /* \"#utility.yul\":28562:28571   */\n      dup4\n        /* \"#utility.yul\":28558:28575   */\n      add\n        /* \"#utility.yul\":28551:28598   */\n      mstore\n        /* \"#utility.yul\":28615:28746   */\n      tag_755\n        /* \"#utility.yul\":28741:28745   */\n      dup2\n        /* \"#utility.yul\":28615:28746   */\n      tag_516\n      jump\t// in\n    tag_755:\n        /* \"#utility.yul\":28607:28746   */\n      swap1\n      pop\n        /* \"#utility.yul\":28334:28753   */\n      swap2\n      swap1\n      pop\n      jump\t// out\n        /* \"#utility.yul\":28759:28938   */\n    tag_517:\n        /* \"#utility.yul\":28899:28930   */\n      0x496e73756666696369656e742072657061796d656e7420616d6f756e74000000\n        /* \"#utility.yul\":28895:28896   */\n      0x00\n        /* \"#utility.yul\":28887:28893   */\n      dup3\n        /* \"#utility.yul\":28883:28897   */\n      add\n        /* \"#utility.yul\":28876:28931   */\n      mstore\n        /* \"#utility.yul\":28759:28938   */\n      pop\n      jump\t// out\n        /* \"#utility.yul\":28944:29310   */\n    tag_518:\n        /* \"#utility.yul\":29086:29089   */\n      0x00\n        /* \"#utility.yul\":29107:29174   */\n      tag_758\n        /* \"#utility.yul\":29171:29173   */\n      0x1d\n        /* \"#utility.yul\":29166:29169   */\n      dup4\n        /* \"#utility.yul\":29107:29174   */\n      tag_471\n      jump\t// in\n    tag_758:\n        /* \"#utility.yul\":29100:29174   */\n      swap2\n      pop\n        /* \"#utility.yul\":29183:29276   */\n      tag_759\n        /* \"#utility.yul\":29272:29275   */\n      dup3\n        /* \"#utility.yul\":29183:29276   */\n      tag_517\n      jump\t// in\n    tag_759:\n        /* \"#utility.yul\":29301:29303   */\n      0x20\n        /* \"#utility.yul\":29296:29299   */\n      dup3\n        /* \"#utility.yul\":29292:29304   */\n      add\n        /* \"#utility.yul\":29285:29304   */\n      swap1\n      pop\n        /* \"#utility.yul\":28944:29310   */\n      swap2\n      swap1\n      pop\n      jump\t// out\n        /* \"#utility.yul\":29316:29735   */\n    tag_360:\n        /* \"#utility.yul\":29482:29486   */\n      0x00\n        /* \"#utility.yul\":29520:29522   */\n      0x20\n        /* \"#utility.yul\":29509:29518   */\n      dup3\n        /* \"#utility.yul\":29505:29523   */\n      add\n        /* \"#utility.yul\":29497:29523   */\n      swap1\n      pop\n        /* \"#utility.yul\":29569:29578   */\n      dup2\n        /* \"#utility.yul\":29563:29567   */\n      dup2\n        /* \"#utility.yul\":29559:29579   */\n      sub\n        /* \"#utility.yul\":29555:29556   */\n      0x00\n        /* \"#utility.yul\":29544:29553   */\n      dup4\n        /* \"#utility.yul\":29540:29557   */\n      add\n        /* \"#utility.yul\":29533:29580   */\n      mstore\n        /* \"#utility.yul\":29597:29728   */\n      tag_761\n        /* \"#utility.yul\":29723:29727   */\n      dup2\n        /* \"#utility.yul\":29597:29728   */\n      tag_518\n      jump\t// in\n    tag_761:\n        /* \"#utility.yul\":29589:29728   */\n      swap1\n      pop\n        /* \"#utility.yul\":29316:29735   */\n      swap2\n      swap1\n      pop\n      jump\t// out\n        /* \"#utility.yul\":29741:29914   */\n    tag_519:\n        /* \"#utility.yul\":29881:29906   */\n      0x4c6f616e20616d6f756e74206d757374206265203e2030000000000000000000\n        /* \"#utility.yul\":29877:29878   */\n      0x00\n        /* \"#utility.yul\":29869:29875   */\n      dup3\n        /* \"#utility.yul\":29865:29879   */\n      add\n        /* \"#utility.yul\":29858:29907   */\n      mstore\n        /* \"#utility.yul\":29741:29914   */\n      pop\n      jump\t// out\n        /* \"#utility.yul\":29920:30286   */\n    tag_520:\n        /* \"#utility.yul\":30062:30065   */\n      0x00\n        /* \"#utility.yul\":30083:30150   */\n      tag_764\n        /* \"#utility.yul\":30147:30149   */\n      0x17\n        /* \"#utility.yul\":30142:30145   */\n      dup4\n        /* \"#utility.yul\":30083:30150   */\n      tag_471\n      jump\t// in\n    tag_764:\n        /* \"#utility.yul\":30076:30150   */\n      swap2\n      pop\n        /* \"#utility.yul\":30159:30252   */\n      tag_765\n        /* \"#utility.yul\":30248:30251   */\n      dup3\n        /* \"#utility.yul\":30159:30252   */\n      tag_519\n      jump\t// in\n    tag_765:\n        /* \"#utility.yul\":30277:30279   */\n      0x20\n        /* \"#utility.yul\":30272:30275   */\n      dup3\n        /* \"#utility.yul\":30268:30280   */\n      add\n        /* \"#utility.yul\":30261:30280   */\n      swap1\n      pop\n        /* \"#utility.yul\":29920:30286   */\n      swap2\n      swap1\n      pop\n      jump\t// out\n        /* \"#utility.yul\":30292:30711   */\n    tag_378:\n        /* \"#utility.yul\":30458:30462   */\n      0x00\n        /* \"#utility.yul\":30496:30498   */\n      0x20\n        /* \"#utility.yul\":30485:30494   */\n      dup3\n        /* \"#utility.yul\":30481:30499   */\n      add\n        /* \"#utility.yul\":30473:30499   */\n      swap1\n      pop\n        /* \"#utility.yul\":30545:30554   */\n      dup2\n        /* \"#utility.yul\":30539:30543   */\n      dup2\n        /* \"#utility.yul\":30535:30555   */\n      sub\n        /* \"#utility.yul\":30531:30532   */\n      0x00\n        /* \"#utility.yul\":30520:30529   */\n      dup4\n        /* \"#utility.yul\":30516:30533   */\n      add\n        /* \"#utility.yul\":30509:30556   */\n      mstore\n        /* \"#utility.yul\":30573:30704   */\n      tag_767\n        /* \"#utility.yul\":30699:30703   */\n      dup2\n        /* \"#utility.yul\":30573:30704   */\n      tag_520\n      jump\t// in\n    tag_767:\n        /* \"#utility.yul\":30565:30704   */\n      swap1\n      pop\n        /* \"#utility.yul\":30292:30711   */\n      swap2\n      swap1\n      pop\n      jump\t// out\n        /* \"#utility.yul\":30717:30940   */\n    tag_521:\n        /* \"#utility.yul\":30857:30891   */\n      0x4c6f616e20646f6573206e6f74206578697374206f7220686173206e6f20616d\n        /* \"#utility.yul\":30853:30854   */\n      0x00\n        /* \"#utility.yul\":30845:30851   */\n      dup3\n        /* \"#utility.yul\":30841:30855   */\n      add\n        /* \"#utility.yul\":30834:30892   */\n      mstore\n        /* \"#utility.yul\":30926:30932   */\n      0x6f756e7400000000000000000000000000000000000000000000000000000000\n        /* \"#utility.yul\":30921:30923   */\n      0x20\n        /* \"#utility.yul\":30913:30919   */\n      dup3\n        /* \"#utility.yul\":30909:30924   */\n      add\n        /* \"#utility.yul\":30902:30933   */\n      mstore\n        /* \"#utility.yul\":30717:30940   */\n      pop\n      jump\t// out\n        /* \"#utility.yul\":30946:31312   */\n    tag_522:\n        /* \"#utility.yul\":31088:31091   */\n      0x00\n        /* \"#utility.yul\":31109:31176   */\n      tag_770\n        /* \"#utility.yul\":31173:31175   */\n      0x24\n        /* \"#utility.yul\":31168:31171   */\n      dup4\n        /* \"#utility.yul\":31109:31176   */\n      tag_471\n      jump\t// in\n    tag_770:\n        /* \"#utility.yul\":31102:31176   */\n      swap2\n      pop\n        /* \"#utility.yul\":31185:31278   */\n      tag_771\n        /* \"#utility.yul\":31274:31277   */\n      dup3\n        /* \"#utility.yul\":31185:31278   */\n      tag_521\n      jump\t// in\n    tag_771:\n        /* \"#utility.yul\":31303:31305   */\n      0x40\n        /* \"#utility.yul\":31298:31301   */\n      dup3\n        /* \"#utility.yul\":31294:31306   */\n      add\n        /* \"#utility.yul\":31287:31306   */\n      swap1\n      pop\n        /* \"#utility.yul\":30946:31312   */\n      swap2\n      swap1\n      pop\n      jump\t// out\n        /* \"#utility.yul\":31318:31737   */\n    tag_384:\n        /* \"#utility.yul\":31484:31488   */\n      0x00\n        /* \"#utility.yul\":31522:31524   */\n      0x20\n        /* \"#utility.yul\":31511:31520   */\n      dup3\n        /* \"#utility.yul\":31507:31525   */\n      add\n        /* \"#utility.yul\":31499:31525   */\n      swap1\n      pop\n        /* \"#utility.yul\":31571:31580   */\n      dup2\n        /* \"#utility.yul\":31565:31569   */\n      dup2\n        /* \"#utility.yul\":31561:31581   */\n      sub\n        /* \"#utility.yul\":31557:31558   */\n      0x00\n        /* \"#utility.yul\":31546:31555   */\n      dup4\n        /* \"#utility.yul\":31542:31559   */\n      add\n        /* \"#utility.yul\":31535:31582   */\n      mstore\n        /* \"#utility.yul\":31599:31730   */\n      tag_773\n        /* \"#utility.yul\":31725:31729   */\n      dup2\n        /* \"#utility.yul\":31599:31730   */\n      tag_522\n      jump\t// in\n    tag_773:\n        /* \"#utility.yul\":31591:31730   */\n      swap1\n      pop\n        /* \"#utility.yul\":31318:31737   */\n      swap2\n      swap1\n      pop\n      jump\t// out\n        /* \"#utility.yul\":31743:31914   */\n    tag_523:\n        /* \"#utility.yul\":31883:31906   */\n      0x4e6f206665657320746f20646973747269627574650000000000000000000000\n        /* \"#utility.yul\":31879:31880   */\n      0x00\n        /* \"#utility.yul\":31871:31877   */\n      dup3\n        /* \"#utility.yul\":31867:31881   */\n      add\n        /* \"#utility.yul\":31860:31907   */\n      mstore\n        /* \"#utility.yul\":31743:31914   */\n      pop\n      jump\t// out\n        /* \"#utility.yul\":31920:32286   */\n    tag_524:\n        /* \"#utility.yul\":32062:32065   */\n      0x00\n        /* \"#utility.yul\":32083:32150   */\n      tag_776\n        /* \"#utility.yul\":32147:32149   */\n      0x15\n        /* \"#utility.yul\":32142:32145   */\n      dup4\n        /* \"#utility.yul\":32083:32150   */\n      tag_471\n      jump\t// in\n    tag_776:\n        /* \"#utility.yul\":32076:32150   */\n      swap2\n      pop\n        /* \"#utility.yul\":32159:32252   */\n      tag_777\n        /* \"#utility.yul\":32248:32251   */\n      dup3\n        /* \"#utility.yul\":32159:32252   */\n      tag_523\n      jump\t// in\n    tag_777:\n        /* \"#utility.yul\":32277:32279   */\n      0x20\n        /* \"#utility.yul\":32272:32275   */\n      dup3\n        /* \"#utility.yul\":32268:32280   */\n      add\n        /* \"#utility.yul\":32261:32280   */\n      swap1\n      pop\n        /* \"#utility.yul\":31920:32286   */\n      swap2\n      swap1\n      pop\n      jump\t// out\n        /* \"#utility.yul\":32292:32711   */\n    tag_395:\n        /* \"#utility.yul\":32458:32462   */\n      0x00\n        /* \"#utility.yul\":32496:32498   */\n      0x20\n        /* \"#utility.yul\":32485:32494   */\n      dup3\n        /* \"#utility.yul\":32481:32499   */\n      add\n        /* \"#utility.yul\":32473:32499   */\n      swap1\n      pop\n        /* \"#utility.yul\":32545:32554   */\n      dup2\n        /* \"#utility.yul\":32539:32543   */\n      dup2\n        /* \"#utility.yul\":32535:32555   */\n      sub\n        /* \"#utility.yul\":32531:32532   */\n      0x00\n        /* \"#utility.yul\":32520:32529   */\n      dup4\n        /* \"#utility.yul\":32516:32533   */\n      add\n        /* \"#utility.yul\":32509:32556   */\n      mstore\n        /* \"#utility.yul\":32573:32704   */\n      tag_779\n        /* \"#utility.yul\":32699:32703   */\n      dup2\n        /* \"#utility.yul\":32573:32704   */\n      tag_524\n      jump\t// in\n    tag_779:\n        /* \"#utility.yul\":32565:32704   */\n      swap1\n      pop\n        /* \"#utility.yul\":32292:32711   */\n      swap2\n      swap1\n      pop\n      jump\t// out\n        /* \"#utility.yul\":32717:32890   */\n    tag_525:\n        /* \"#utility.yul\":32857:32882   */\n      0x46656520646973747269627574696f6e206661696c6564000000000000000000\n        /* \"#utility.yul\":32853:32854   */\n      0x00\n        /* \"#utility.yul\":32845:32851   */\n      dup3\n        /* \"#utility.yul\":32841:32855   */\n      add\n        /* \"#utility.yul\":32834:32883   */\n      mstore\n        /* \"#utility.yul\":32717:32890   */\n      pop\n      jump\t// out\n        /* \"#utility.yul\":32896:33262   */\n    tag_526:\n        /* \"#utility.yul\":33038:33041   */\n      0x00\n        /* \"#utility.yul\":33059:33126   */\n      tag_782\n        /* \"#utility.yul\":33123:33125   */\n      0x17\n        /* \"#utility.yul\":33118:33121   */\n      dup4\n        /* \"#utility.yul\":33059:33126   */\n      tag_471\n      jump\t// in\n    tag_782:\n        /* \"#utility.yul\":33052:33126   */\n      swap2\n      pop\n        /* \"#utility.yul\":33135:33228   */\n      tag_783\n        /* \"#utility.yul\":33224:33227   */\n      dup3\n        /* \"#utility.yul\":33135:33228   */\n      tag_525\n      jump\t// in\n    tag_783:\n        /* \"#utility.yul\":33253:33255   */\n      0x20\n        /* \"#utility.yul\":33248:33251   */\n      dup3\n        /* \"#utility.yul\":33244:33256   */\n      add\n        /* \"#utility.yul\":33237:33256   */\n      swap1\n      pop\n        /* \"#utility.yul\":32896:33262   */\n      swap2\n      swap1\n      pop\n      jump\t// out\n        /* \"#utility.yul\":33268:33687   */\n    tag_411:\n        /* \"#utility.yul\":33434:33438   */\n      0x00\n        /* \"#utility.yul\":33472:33474   */\n      0x20\n        /* \"#utility.yul\":33461:33470   */\n      dup3\n        /* \"#utility.yul\":33457:33475   */\n      add\n        /* \"#utility.yul\":33449:33475   */\n      swap1\n      pop\n        /* \"#utility.yul\":33521:33530   */\n      dup2\n        /* \"#utility.yul\":33515:33519   */\n      dup2\n        /* \"#utility.yul\":33511:33531   */\n      sub\n        /* \"#utility.yul\":33507:33508   */\n      0x00\n        /* \"#utility.yul\":33496:33505   */\n      dup4\n        /* \"#utility.yul\":33492:33509   */\n      add\n        /* \"#utility.yul\":33485:33532   */\n      mstore\n        /* \"#utility.yul\":33549:33680   */\n      tag_785\n        /* \"#utility.yul\":33675:33679   */\n      dup2\n        /* \"#utility.yul\":33549:33680   */\n      tag_526\n      jump\t// in\n    tag_785:\n        /* \"#utility.yul\":33541:33680   */\n      swap1\n      pop\n        /* \"#utility.yul\":33268:33687   */\n      swap2\n      swap1\n      pop\n      jump\t// out\n        /* \"#utility.yul\":33693:33916   */\n    tag_527:\n        /* \"#utility.yul\":33833:33867   */\n      0x426f72726f7720616d6f756e74206d7573742062652067726561746572207468\n        /* \"#utility.yul\":33829:33830   */\n      0x00\n        /* \"#utility.yul\":33821:33827   */\n      dup3\n        /* \"#utility.yul\":33817:33831   */\n      add\n        /* \"#utility.yul\":33810:33868   */\n      mstore\n        /* \"#utility.yul\":33902:33908   */\n      0x616e203000000000000000000000000000000000000000000000000000000000\n        /* \"#utility.yul\":33897:33899   */\n      0x20\n        /* \"#utility.yul\":33889:33895   */\n      dup3\n        /* \"#utility.yul\":33885:33900   */\n      add\n        /* \"#utility.yul\":33878:33909   */\n      mstore\n        /* \"#utility.yul\":33693:33916   */\n      pop\n      jump\t// out\n        /* \"#utility.yul\":33922:34288   */\n    tag_528:\n        /* \"#utility.yul\":34064:34067   */\n      0x00\n        /* \"#utility.yul\":34085:34152   */\n      tag_788\n        /* \"#utility.yul\":34149:34151   */\n      0x24\n        /* \"#utility.yul\":34144:34147   */\n      dup4\n        /* \"#utility.yul\":34085:34152   */\n      tag_471\n      jump\t// in\n    tag_788:\n        /* \"#utility.yul\":34078:34152   */\n      swap2\n      pop\n        /* \"#utility.yul\":34161:34254   */\n      tag_789\n        /* \"#utility.yul\":34250:34253   */\n      dup3\n        /* \"#utility.yul\":34161:34254   */\n      tag_527\n      jump\t// in\n    tag_789:\n        /* \"#utility.yul\":34279:34281   */\n      0x40\n        /* \"#utility.yul\":34274:34277   */\n      dup3\n        /* \"#utility.yul\":34270:34282   */\n      add\n        /* \"#utility.yul\":34263:34282   */\n      swap1\n      pop\n        /* \"#utility.yul\":33922:34288   */\n      swap2\n      swap1\n      pop\n      jump\t// out\n        /* \"#utility.yul\":34294:34713   */\n    tag_417:\n        /* \"#utility.yul\":34460:34464   */\n      0x00\n        /* \"#utility.yul\":34498:34500   */\n      0x20\n        /* \"#utility.yul\":34487:34496   */\n      dup3\n        /* \"#utility.yul\":34483:34501   */\n      add\n        /* \"#utility.yul\":34475:34501   */\n      swap1\n      pop\n        /* \"#utility.yul\":34547:34556   */\n      dup2\n        /* \"#utility.yul\":34541:34545   */\n      dup2\n        /* \"#utility.yul\":34537:34557   */\n      sub\n        /* \"#utility.yul\":34533:34534   */\n      0x00\n        /* \"#utility.yul\":34522:34531   */\n      dup4\n        /* \"#utility.yul\":34518:34535   */\n      add\n        /* \"#utility.yul\":34511:34558   */\n      mstore\n        /* \"#utility.yul\":34575:34706   */\n      tag_791\n        /* \"#utility.yul\":34701:34705   */\n      dup2\n        /* \"#utility.yul\":34575:34706   */\n      tag_528\n      jump\t// in\n    tag_791:\n        /* \"#utility.yul\":34567:34706   */\n      swap1\n      pop\n        /* \"#utility.yul\":34294:34713   */\n      swap2\n      swap1\n      pop\n      jump\t// out\n        /* \"#utility.yul\":34719:34901   */\n    tag_529:\n        /* \"#utility.yul\":34859:34893   */\n      0x4e6f7420656e6f756768206c697175696469747920696e2074686520706f6f6c\n        /* \"#utility.yul\":34855:34856   */\n      0x00\n        /* \"#utility.yul\":34847:34853   */\n      dup3\n        /* \"#utility.yul\":34843:34857   */\n      add\n        /* \"#utility.yul\":34836:34894   */\n      mstore\n        /* \"#utility.yul\":34719:34901   */\n      pop\n      jump\t// out\n        /* \"#utility.yul\":34907:35273   */\n    tag_530:\n        /* \"#utility.yul\":35049:35052   */\n      0x00\n        /* \"#utility.yul\":35070:35137   */\n      tag_794\n        /* \"#utility.yul\":35134:35136   */\n      0x20\n        /* \"#utility.yul\":35129:35132   */\n      dup4\n        /* \"#utility.yul\":35070:35137   */\n      tag_471\n      jump\t// in\n    tag_794:\n        /* \"#utility.yul\":35063:35137   */\n      swap2\n      pop\n        /* \"#utility.yul\":35146:35239   */\n      tag_795\n        /* \"#utility.yul\":35235:35238   */\n      dup3\n        /* \"#utility.yul\":35146:35239   */\n      tag_529\n      jump\t// in\n    tag_795:\n        /* \"#utility.yul\":35264:35266   */\n      0x20\n        /* \"#utility.yul\":35259:35262   */\n      dup3\n        /* \"#utility.yul\":35255:35267   */\n      add\n        /* \"#utility.yul\":35248:35267   */\n      swap1\n      pop\n        /* \"#utility.yul\":34907:35273   */\n      swap2\n      swap1\n      pop\n      jump\t// out\n        /* \"#utility.yul\":35279:35698   */\n    tag_420:\n        /* \"#utility.yul\":35445:35449   */\n      0x00\n        /* \"#utility.yul\":35483:35485   */\n      0x20\n        /* \"#utility.yul\":35472:35481   */\n      dup3\n        /* \"#utility.yul\":35468:35486   */\n      add\n        /* \"#utility.yul\":35460:35486   */\n      swap1\n      pop\n        /* \"#utility.yul\":35532:35541   */\n      dup2\n        /* \"#utility.yul\":35526:35530   */\n      dup2\n        /* \"#utility.yul\":35522:35542   */\n      sub\n        /* \"#utility.yul\":35518:35519   */\n      0x00\n        /* \"#utility.yul\":35507:35516   */\n      dup4\n        /* \"#utility.yul\":35503:35520   */\n      add\n        /* \"#utility.yul\":35496:35543   */\n      mstore\n        /* \"#utility.yul\":35560:35691   */\n      tag_797\n        /* \"#utility.yul\":35686:35690   */\n      dup2\n        /* \"#utility.yul\":35560:35691   */\n      tag_530\n      jump\t// in\n    tag_797:\n        /* \"#utility.yul\":35552:35691   */\n      swap1\n      pop\n        /* \"#utility.yul\":35279:35698   */\n      swap2\n      swap1\n      pop\n      jump\t// out\n        /* \"#utility.yul\":35704:35933   */\n    tag_531:\n        /* \"#utility.yul\":35844:35878   */\n      0x436f6c6c61746572616c206d7573742062652031353025206f6620746865206c\n        /* \"#utility.yul\":35840:35841   */\n      0x00\n        /* \"#utility.yul\":35832:35838   */\n      dup3\n        /* \"#utility.yul\":35828:35842   */\n      add\n        /* \"#utility.yul\":35821:35879   */\n      mstore\n        /* \"#utility.yul\":35913:35925   */\n      0x6f616e20616d6f756e7400000000000000000000000000000000000000000000\n        /* \"#utility.yul\":35908:35910   */\n      0x20\n        /* \"#utility.yul\":35900:35906   */\n      dup3\n        /* \"#utility.yul\":35896:35911   */\n      add\n        /* \"#utility.yul\":35889:35926   */\n      mstore\n        /* \"#utility.yul\":35704:35933   */\n      pop\n      jump\t// out\n        /* \"#utility.yul\":35939:36305   */\n    tag_532:\n        /* \"#utility.yul\":36081:36084   */\n      0x00\n        /* \"#utility.yul\":36102:36169   */\n      tag_800\n        /* \"#utility.yul\":36166:36168   */\n      0x2a\n        /* \"#utility.yul\":36161:36164   */\n      dup4\n        /* \"#utility.yul\":36102:36169   */\n      tag_471\n      jump\t// in\n    tag_800:\n        /* \"#utility.yul\":36095:36169   */\n      swap2\n      pop\n        /* \"#utility.yul\":36178:36271   */\n      tag_801\n        /* \"#utility.yul\":36267:36270   */\n      dup3\n        /* \"#utility.yul\":36178:36271   */\n      tag_531\n      jump\t// in\n    tag_801:\n        /* \"#utility.yul\":36296:36298   */\n      0x40\n        /* \"#utility.yul\":36291:36294   */\n      dup3\n        /* \"#utility.yul\":36287:36299   */\n      add\n        /* \"#utility.yul\":36280:36299   */\n      swap1\n      pop\n        /* \"#utility.yul\":35939:36305   */\n      swap2\n      swap1\n      pop\n      jump\t// out\n        /* \"#utility.yul\":36311:36730   */\n    tag_425:\n        /* \"#utility.yul\":36477:36481   */\n      0x00\n        /* \"#utility.yul\":36515:36517   */\n      0x20\n        /* \"#utility.yul\":36504:36513   */\n      dup3\n        /* \"#utility.yul\":36500:36518   */\n      add\n        /* \"#utility.yul\":36492:36518   */\n      swap1\n      pop\n        /* \"#utility.yul\":36564:36573   */\n      dup2\n        /* \"#utility.yul\":36558:36562   */\n      dup2\n        /* \"#utility.yul\":36554:36574   */\n      sub\n        /* \"#utility.yul\":36550:36551   */\n      0x00\n        /* \"#utility.yul\":36539:36548   */\n      dup4\n        /* \"#utility.yul\":36535:36552   */\n      add\n        /* \"#utility.yul\":36528:36575   */\n      mstore\n        /* \"#utility.yul\":36592:36723   */\n      tag_803\n        /* \"#utility.yul\":36718:36722   */\n      dup2\n        /* \"#utility.yul\":36592:36723   */\n      tag_532\n      jump\t// in\n    tag_803:\n        /* \"#utility.yul\":36584:36723   */\n      swap1\n      pop\n        /* \"#utility.yul\":36311:36730   */\n      swap2\n      swap1\n      pop\n      jump\t// out\n        /* \"#utility.yul\":36736:36960   */\n    tag_533:\n        /* \"#utility.yul\":36876:36910   */\n      0x4465706f73697420616d6f756e74206d75737420626520677265617465722074\n        /* \"#utility.yul\":36872:36873   */\n      0x00\n        /* \"#utility.yul\":36864:36870   */\n      dup3\n        /* \"#utility.yul\":36860:36874   */\n      add\n        /* \"#utility.yul\":36853:36911   */\n      mstore\n        /* \"#utility.yul\":36945:36952   */\n      0x68616e2030000000000000000000000000000000000000000000000000000000\n        /* \"#utility.yul\":36940:36942   */\n      0x20\n        /* \"#utility.yul\":36932:36938   */\n      dup3\n        /* \"#utility.yul\":36928:36943   */\n      add\n        /* \"#utility.yul\":36921:36953   */\n      mstore\n        /* \"#utility.yul\":36736:36960   */\n      pop\n      jump\t// out\n        /* \"#utility.yul\":36966:37332   */\n    tag_534:\n        /* \"#utility.yul\":37108:37111   */\n      0x00\n        /* \"#utility.yul\":37129:37196   */\n      tag_806\n        /* \"#utility.yul\":37193:37195   */\n      0x25\n        /* \"#utility.yul\":37188:37191   */\n      dup4\n        /* \"#utility.yul\":37129:37196   */\n      tag_471\n      jump\t// in\n    tag_806:\n        /* \"#utility.yul\":37122:37196   */\n      swap2\n      pop\n        /* \"#utility.yul\":37205:37298   */\n      tag_807\n        /* \"#utility.yul\":37294:37297   */\n      dup3\n        /* \"#utility.yul\":37205:37298   */\n      tag_533\n      jump\t// in\n    tag_807:\n        /* \"#utility.yul\":37323:37325   */\n      0x40\n        /* \"#utility.yul\":37318:37321   */\n      dup3\n        /* \"#utility.yul\":37314:37326   */\n      add\n        /* \"#utility.yul\":37307:37326   */\n      swap1\n      pop\n        /* \"#utility.yul\":36966:37332   */\n      swap2\n      swap1\n      pop\n      jump\t// out\n        /* \"#utility.yul\":37338:37757   */\n    tag_434:\n        /* \"#utility.yul\":37504:37508   */\n      0x00\n        /* \"#utility.yul\":37542:37544   */\n      0x20\n        /* \"#utility.yul\":37531:37540   */\n      dup3\n        /* \"#utility.yul\":37527:37545   */\n      add\n        /* \"#utility.yul\":37519:37545   */\n      swap1\n      pop\n        /* \"#utility.yul\":37591:37600   */\n      dup2\n        /* \"#utility.yul\":37585:37589   */\n      dup2\n        /* \"#utility.yul\":37581:37601   */\n      sub\n        /* \"#utility.yul\":37577:37578   */\n      0x00\n        /* \"#utility.yul\":37566:37575   */\n      dup4\n        /* \"#utility.yul\":37562:37579   */\n      add\n        /* \"#utility.yul\":37555:37602   */\n      mstore\n        /* \"#utility.yul\":37619:37750   */\n      tag_809\n        /* \"#utility.yul\":37745:37749   */\n      dup2\n        /* \"#utility.yul\":37619:37750   */\n      tag_534\n      jump\t// in\n    tag_809:\n        /* \"#utility.yul\":37611:37750   */\n      swap1\n      pop\n        /* \"#utility.yul\":37338:37757   */\n      swap2\n      swap1\n      pop\n      jump\t// out\n\n    auxdata: 0xa26469706673582212204c95ec5f26c86c0ec953517916d8fe9bdb22b200be7e2152a37b8b7858db4f7464736f6c634300081a0033\n}\n",
				"bytecode": {
					"linkReferences": {},
					"object": "60806040526005600655348015610014575f80fd5b50604051613d2c380380613d2c833981810160405281019061003691906100c1565b3360015f6101000a81548173ffffffffffffffffffffffffffffffffffffffff021916908373ffffffffffffffffffffffffffffffffffffffff1602179055508060028190555042600b81905550506100ec565b5f80fd5b5f819050919050565b6100a08161008e565b81146100aa575f80fd5b50565b5f815190506100bb81610097565b92915050565b5f602082840312156100d6576100d561008a565b5b5f6100e3848285016100ad565b91505092915050565b613c33806100f95f395ff3fe6080604052600436106101fc575f3560e01c8063a31831251161010c578063c5ebeaec1161009f578063e1ec3c681161006e578063e1ec3c68146106d1578063e4b2fb7914610713578063e59c20d01461074f578063eeb97d3b1461078b578063fc7e286d146107c757610203565b8063c5ebeaec14610631578063c84aae171461064d578063d0e30db01461068b578063d8bad5bd1461069557610203565b8063b1197239116100db578063b119723914610585578063b3f54444146105c1578063bb57ad20146105fd578063c0789dcb1461060757610203565b8063a3183125146104fb578063a6afed9514610517578063ab7b1c891461052d578063abb7bc4a1461054957610203565b80634ba5e2ce1161018f5780638393ea5f1161015e5780638393ea5f146104055780638da5cb5b1461042f57806395ddbe891461045957806396f159ba146104835780639b56d6c9146104bf57610203565b80634ba5e2ce1461035d578063560c88ed146103875780636f9fb98a146103b15780637c3a00fd146103db57610203565b806334d9289e116101cb57806334d9289e146102b157806334f93778146102db578063402d888314610317578063477348921461032157610203565b806315770f92146102075780632e1a7d4d146102315780632f70d1ba1461024d5780632f8655681461028957610203565b3661020357005b5f80fd5b348015610212575f80fd5b5061021b610803565b60405161022891906129b3565b60405180910390f35b61024b600480360381019061024691906129fa565b610809565b005b348015610258575f80fd5b50610273600480360381019061026e9190612a7f565b610bc2565b6040516102809190612ac4565b60405180910390f35b348015610294575f80fd5b506102af60048036038101906102aa9190612a7f565b610c62565b005b3480156102bc575f80fd5b506102c5610fed565b6040516102d291906129b3565b60405180910390f35b3480156102e6575f80fd5b5061030160048036038101906102fc9190612a7f565b610ff3565b60405161030e91906129b3565b60405180910390f35b61031f611011565b005b34801561032c575f80fd5b5061034760048036038101906103429190612a7f565b6113d1565b60405161035491906129b3565b60405180910390f35b348015610368575f80fd5b5061037161145f565b60405161037e91906129b3565b60405180910390f35b348015610392575f80fd5b5061039b611464565b6040516103a891906129b3565b60405180910390f35b3480156103bc575f80fd5b506103c5611514565b6040516103d291906129b3565b60405180910390f35b3480156103e6575f80fd5b506103ef61151b565b6040516103fc91906129b3565b60405180910390f35b348015610410575f80fd5b50610419611521565b60405161042691906129b3565b60405180910390f35b34801561043a575f80fd5b50610443611527565b6040516104509190612aec565b60405180910390f35b348015610464575f80fd5b5061046d61154c565b60405161047a91906129b3565b60405180910390f35b34801561048e575f80fd5b506104a960048036038101906104a49190612a7f565b611555565b6040516104b691906129b3565b60405180910390f35b3480156104ca575f80fd5b506104e560048036038101906104e09190612a7f565b61156a565b6040516104f291906129b3565b60405180910390f35b61051560048036038101906105109190612b05565b6115af565b005b348015610522575f80fd5b5061052b6119af565b005b610547600480360381019061054291906129fa565b611ab9565b005b348015610554575f80fd5b5061056f600480360381019061056a91906129fa565b611edc565b60405161057c91906129b3565b60405180910390f35b348015610590575f80fd5b506105ab60048036038101906105a691906129fa565b611f3f565b6040516105b891906129b3565b60405180910390f35b3480156105cc575f80fd5b506105e760048036038101906105e29190612a7f565b612063565b6040516105f491906129b3565b60405180910390f35b6106056120d5565b005b348015610612575f80fd5b5061061b61233c565b60405161062891906129b3565b60405180910390f35b61064b600480360381019061064691906129fa565b612342565b005b348015610658575f80fd5b50610673600480360381019061066e9190612a7f565b612556565b60405161068293929190612b43565b60405180910390f35b61069361261f565b005b3480156106a0575f80fd5b506106bb60048036038101906106b69190612b78565b61277c565b6040516106c891906129b3565b60405180910390f35b3480156106dc575f80fd5b506106f760048036038101906106f291906129fa565b6127a7565b60405161070a9796959493929190612bb6565b60405180910390f35b34801561071e575f80fd5b50610739600480360381019061073491906129fa565b61281d565b6040516107469190612aec565b60405180910390f35b34801561075a575f80fd5b50610775600480360381019061077091906129fa565b612858565b60405161078291906129b3565b60405180910390f35b348015610796575f80fd5b506107b160048036038101906107ac9190612a7f565b6128cc565b6040516107be91906129b3565b60405180910390f35b3480156107d2575f80fd5b506107ed60048036038101906107e89190612a7f565b6128e0565b6040516107fa91906129b3565b60405180910390f35b60055481565b61081233610bc2565b610851576040517f08c379a000000000000000000000000000000000000000000000000000000000815260040161084890612c7d565b60405180910390fd5b60035f3373ffffffffffffffffffffffffffffffffffffffff1673ffffffffffffffffffffffffffffffffffffffff1681526020019081526020015f20548111156108d1576040517f08c379a00000000000000000000000000000000000000000000000000000000081526004016108c890612d0b565b60405180910390fd5b600554811115610916576040517f08c379a000000000000000000000000000000000000000000000000000000000815260040161090d90612d73565b60405180910390fd5b8060035f3373ffffffffffffffffffffffffffffffffffffffff1673ffffffffffffffffffffffffffffffffffffffff1681526020019081526020015f205f8282546109629190612dbe565b925050819055508060055f82825461097a9190612dbe565b925050819055505f3373ffffffffffffffffffffffffffffffffffffffff16826040516109a690612e1e565b5f6040518083038185875af1925050503d805f81146109e0576040519150601f19603f3d011682016040523d82523d5f602084013e6109e5565b606091505b5050905080610a29576040517f08c379a0000000000000000000000000000000000000000000000000000000008152600401610a2090612e7c565b60405180910390fd5b5f60035f3373ffffffffffffffffffffffffffffffffffffffff1673ffffffffffffffffffffffffffffffffffffffff1681526020019081526020015f205403610b70575f80610a78336128f5565b915091508115610b6d57600a6001600a80549050610a969190612dbe565b81548110610aa757610aa6612e9a565b5b905f5260205f20015f9054906101000a900473ffffffffffffffffffffffffffffffffffffffff16600a8281548110610ae357610ae2612e9a565b5b905f5260205f20015f6101000a81548173ffffffffffffffffffffffffffffffffffffffff021916908373ffffffffffffffffffffffffffffffffffffffff160217905550600a805480610b3a57610b39612ec7565b5b600190038181905f5260205f20015f6101000a81549073ffffffffffffffffffffffffffffffffffffffff021916905590555b50505b3373ffffffffffffffffffffffffffffffffffffffff167f7fcf532c15f0a6db0bd6d0e038bea71d30d808c7d98cb3bf7268a95bf5081b6583604051610bb691906129b3565b60405180910390a25050565b5f805f90505b600a80549050811015610c58578273ffffffffffffffffffffffffffffffffffffffff16600a8281548110610c0057610bff612e9a565b5b905f5260205f20015f9054906101000a900473ffffffffffffffffffffffffffffffffffffffff1673ffffffffffffffffffffffffffffffffffffffff1603610c4d576001915050610c5d565b806001019050610bc8565b505f90505b919050565b60015f9054906101000a900473ffffffffffffffffffffffffffffffffffffffff1673ffffffffffffffffffffffffffffffffffffffff163373ffffffffffffffffffffffffffffffffffffffff1614610cf1576040517f08c379a0000000000000000000000000000000000000000000000000000000008152600401610ce890612f64565b60405180910390fd5b5f60045f8373ffffffffffffffffffffffffffffffffffffffff1673ffffffffffffffffffffffffffffffffffffffff1681526020019081526020015f205411610d70576040517f08c379a0000000000000000000000000000000000000000000000000000000008152600401610d6790612ff2565b60405180910390fd5b5f60045f8373ffffffffffffffffffffffffffffffffffffffff1673ffffffffffffffffffffffffffffffffffffffff1681526020019081526020015f205490505f805f8473ffffffffffffffffffffffffffffffffffffffff1673ffffffffffffffffffffffffffffffffffffffff1681526020019081526020015f205490505f8111610e33576040517f08c379a0000000000000000000000000000000000000000000000000000000008152600401610e2a9061305a565b60405180910390fd5b5f60045f8573ffffffffffffffffffffffffffffffffffffffff1673ffffffffffffffffffffffffffffffffffffffff1681526020019081526020015f20819055505f805f8573ffffffffffffffffffffffffffffffffffffffff1673ffffffffffffffffffffffffffffffffffffffff1681526020019081526020015f20819055505f60015f9054906101000a900473ffffffffffffffffffffffffffffffffffffffff1673ffffffffffffffffffffffffffffffffffffffff1682604051610efc90612e1e565b5f6040518083038185875af1925050503d805f8114610f36576040519150601f19603f3d011682016040523d82523d5f602084013e610f3b565b606091505b5050905080610f7f576040517f08c379a0000000000000000000000000000000000000000000000000000000008152600401610f76906130e8565b60405180910390fd5b8260055f828254610f909190613106565b925050819055508373ffffffffffffffffffffffffffffffffffffffff167f3c4b1d42b9c7fa283f6fe657533f6a5a8a7ad1d36f9ef1d9d89ad04485e10d2c8385604051610fdf929190613139565b60405180910390a250505050565b60075481565b5f610ffd82612063565b600c5461100a9190613160565b9050919050565b5f60045f3373ffffffffffffffffffffffffffffffffffffffff1673ffffffffffffffffffffffffffffffffffffffff1681526020019081526020015f205411611090576040517f08c379a0000000000000000000000000000000000000000000000000000000008152600401611087906131eb565b60405180910390fd5b5f606460065460045f3373ffffffffffffffffffffffffffffffffffffffff1673ffffffffffffffffffffffffffffffffffffffff1681526020019081526020015f20546110de9190613160565b6110e89190613236565b90505f8160045f3373ffffffffffffffffffffffffffffffffffffffff1673ffffffffffffffffffffffffffffffffffffffff1681526020019081526020015f20546111349190613106565b905080341015611179576040517f08c379a0000000000000000000000000000000000000000000000000000000008152600401611170906132d6565b60405180910390fd5b5f805f3373ffffffffffffffffffffffffffffffffffffffff1673ffffffffffffffffffffffffffffffffffffffff1681526020019081526020015f205490505f81116111fb576040517f08c379a00000000000000000000000000000000000000000000000000000000081526004016111f29061333e565b60405180910390fd5b60045f3373ffffffffffffffffffffffffffffffffffffffff1673ffffffffffffffffffffffffffffffffffffffff1681526020019081526020015f205460055f8282546112499190613106565b925050819055505f60045f3373ffffffffffffffffffffffffffffffffffffffff1673ffffffffffffffffffffffffffffffffffffffff1681526020019081526020015f20819055505f805f3373ffffffffffffffffffffffffffffffffffffffff1673ffffffffffffffffffffffffffffffffffffffff1681526020019081526020015f20819055505f3373ffffffffffffffffffffffffffffffffffffffff16826040516112f890612e1e565b5f6040518083038185875af1925050503d805f8114611332576040519150601f19603f3d011682016040523d82523d5f602084013e611337565b606091505b505090508061137b576040517f08c379a0000000000000000000000000000000000000000000000000000000008152600401611372906133a6565b60405180910390fd5b3373ffffffffffffffffffffffffffffffffffffffff167f77c6871227e5d2dec8dadd5354f78453203e22e669cd0ec4c19d9a8c5edb31d034846040516113c3929190613139565b60405180910390a250505050565b5f6113db82610bc2565b61141a576040517f08c379a00000000000000000000000000000000000000000000000000000000081526004016114119061340e565b60405180910390fd5b60035f8373ffffffffffffffffffffffffffffffffffffffff1673ffffffffffffffffffffffffffffffffffffffff1681526020019081526020015f20549050919050565b600181565b5f805f90505f600190505b60075481116114ff5760085f8281526020019081526020015f2060050160019054906101000a900460ff1680156114c4575060085f8281526020019081526020015f206005015f9054906101000a900460ff16155b156114ec5760085f8281526020019081526020015f2060010154826114e99190613106565b91505b80806114f79061342c565b91505061146f565b508060055461150e9190613106565b91505090565b5f47905090565b60065481565b600c5481565b60015f9054906101000a900473ffffffffffffffffffffffffffffffffffffffff1681565b5f600554905090565b6004602052805f5260405f205f915090505481565b5f805f8373ffffffffffffffffffffffffffffffffffffffff1673ffffffffffffffffffffffffffffffffffffffff1681526020019081526020015f20549050919050565b5f82116115f1576040517f08c379a00000000000000000000000000000000000000000000000000000000081526004016115e8906134e3565b60405180910390fd5b600554821115611636576040517f08c379a000000000000000000000000000000000000000000000000000000000815260040161162d90612d73565b60405180910390fd5b60646096836116459190613160565b61164f9190613236565b341015611691576040517f08c379a000000000000000000000000000000000000000000000000000000000815260040161168890613571565b60405180910390fd5b5f61169b83612858565b90505f62015180836116ad9190613160565b426116b89190613106565b905060075f8154809291906116cc9061342c565b91905055506040518060e001604052803373ffffffffffffffffffffffffffffffffffffffff16815260200185815260200160025481526020018381526020018281526020015f151581526020016001151581525060085f60075481526020019081526020015f205f820151815f015f6101000a81548173ffffffffffffffffffffffffffffffffffffffff021916908373ffffffffffffffffffffffffffffffffffffffff1602179055506020820151816001015560408201518160020155606082015181600301556080820151816004015560a0820151816005015f6101000a81548160ff02191690831515021790555060c08201518160050160016101000a81548160ff02191690831515021790555090505060095f3373ffffffffffffffffffffffffffffffffffffffff1673ffffffffffffffffffffffffffffffffffffffff1681526020019081526020015f20600754908060018154018082558091505060019003905f5260205f20015f9091909190915055345f803373ffffffffffffffffffffffffffffffffffffffff1673ffffffffffffffffffffffffffffffffffffffff1681526020019081526020015f205f8282546118909190613106565b925050819055508360055f8282546118a89190612dbe565b925050819055505f3373ffffffffffffffffffffffffffffffffffffffff16856040516118d490612e1e565b5f6040518083038185875af1925050503d805f811461190e576040519150601f19603f3d011682016040523d82523d5f602084013e611913565b606091505b5050905080611957576040517f08c379a000000000000000000000000000000000000000000000000000000000815260040161194e906135d9565b60405180910390fd5b3373ffffffffffffffffffffffffffffffffffffffff167e6b9bb4766cf5ab74b890df959e4fad0e54b1c3885e49c9541d36253a6e39e6600754876040516119a0929190613139565b60405180910390a25050505050565b5f600554116119f3576040517f08c379a00000000000000000000000000000000000000000000000000000000081526004016119ea90613667565b60405180910390fd5b5f600b5442611a029190612dbe565b90505f8103611a115750611ab7565b5f6301e1338090505f816064611a279190613160565b83600254600554611a389190613160565b611a429190613160565b611a4c9190613236565b90505f811115611ab35780600c5f828254611a679190613106565b9250508190555042600b819055507fe9d95e658b0c714da9de2e12fbed253a24a632058a074dc7c90b8b6618675c7c8160055442604051611aaa93929190612b43565b60405180910390a15b5050505b565b5f60085f8381526020019081526020015f2090503373ffffffffffffffffffffffffffffffffffffffff16815f015f9054906101000a900473ffffffffffffffffffffffffffffffffffffffff1673ffffffffffffffffffffffffffffffffffffffff1614611b5d576040517f08c379a0000000000000000000000000000000000000000000000000000000008152600401611b54906136cf565b60405180910390fd5b8060050160019054906101000a900460ff16611bae576040517f08c379a0000000000000000000000000000000000000000000000000000000008152600401611ba590613737565b60405180910390fd5b806005015f9054906101000a900460ff1615611bff576040517f08c379a0000000000000000000000000000000000000000000000000000000008152600401611bf69061379f565b60405180910390fd5b8060030154341015611c46576040517f08c379a0000000000000000000000000000000000000000000000000000000008152600401611c3d90613807565b60405180910390fd5b5f606460018360030154611c5a9190613160565b611c649190613236565b90505f818360030154611c779190612dbe565b905081600c5f828254611c8a9190613106565b925050819055506001836005015f6101000a81548160ff0219169083151502179055505f8360050160016101000a81548160ff0219169083151502179055505f805f3373ffffffffffffffffffffffffffffffffffffffff1673ffffffffffffffffffffffffffffffffffffffff1681526020019081526020015f205490505f8111611d4b576040517f08c379a0000000000000000000000000000000000000000000000000000000008152600401611d429061333e565b60405180910390fd5b5f805f3373ffffffffffffffffffffffffffffffffffffffff1673ffffffffffffffffffffffffffffffffffffffff1681526020019081526020015f20819055508160055f828254611d9d9190613106565b925050819055506001846005015f6101000a81548160ff0219169083151502179055505f8460050160016101000a81548160ff0219169083151502179055505f3373ffffffffffffffffffffffffffffffffffffffff1682604051611e0190612e1e565b5f6040518083038185875af1925050503d805f8114611e3b576040519150601f19603f3d011682016040523d82523d5f602084013e611e40565b606091505b5050905080611e84576040517f08c379a0000000000000000000000000000000000000000000000000000000008152600401611e7b906133a6565b60405180910390fd5b3373ffffffffffffffffffffffffffffffffffffffff167fc7ce0a35f17b490de2a317e7fecb2cae86b1abffb03800b2f4928235213826988734604051611ecc929190613139565b60405180910390a2505050505050565b5f808211611f1f576040517f08c379a0000000000000000000000000000000000000000000000000000000008152600401611f169061386f565b60405180910390fd5b6064609683611f2e9190613160565b611f389190613236565b9050919050565b5f8060085f8481526020019081526020015f206040518060e00160405290815f82015f9054906101000a900473ffffffffffffffffffffffffffffffffffffffff1673ffffffffffffffffffffffffffffffffffffffff1673ffffffffffffffffffffffffffffffffffffffff16815260200160018201548152602001600282015481526020016003820154815260200160048201548152602001600582015f9054906101000a900460ff161515151581526020016005820160019054906101000a900460ff16151515158152505090505f816020015111612056576040517f08c379a000000000000000000000000000000000000000000000000000000000815260040161204d906138fd565b60405180910390fd5b8060600151915050919050565b5f8060055403612075575f90506120d0565b600554600c5460035f8573ffffffffffffffffffffffffffffffffffffffff1673ffffffffffffffffffffffffffffffffffffffff1681526020019081526020015f20546120c39190613160565b6120cd9190613236565b90505b919050565b60015f9054906101000a900473ffffffffffffffffffffffffffffffffffffffff1673ffffffffffffffffffffffffffffffffffffffff163373ffffffffffffffffffffffffffffffffffffffff1614612164576040517f08c379a000000000000000000000000000000000000000000000000000000000815260040161215b90612f64565b60405180910390fd5b5f600c54116121a8576040517f08c379a000000000000000000000000000000000000000000000000000000000815260040161219f90613965565b60405180910390fd5b5f805b600a80549050811015612320575f600a82815481106121cd576121cc612e9a565b5b905f5260205f20015f9054906101000a900473ffffffffffffffffffffffffffffffffffffffff1690505f61220182612063565b90505f8111156123115780846122179190613106565b93505f8273ffffffffffffffffffffffffffffffffffffffff168260405161223e90612e1e565b5f6040518083038185875af1925050503d805f8114612278576040519150601f19603f3d011682016040523d82523d5f602084013e61227d565b606091505b50509050806122c1576040517f08c379a00000000000000000000000000000000000000000000000000000000081526004016122b8906139cd565b60405180910390fd5b8273ffffffffffffffffffffffffffffffffffffffff167f6c461460f28af1386f23dc4c0c7f4e2e54f0db320a8edc08803e4b787f6db3258360405161230791906129b3565b60405180910390a2505b505080806001019150506121ab565b5080600c5f8282546123329190612dbe565b9250508190555050565b600b5481565b5f8111612384576040517f08c379a000000000000000000000000000000000000000000000000000000000815260040161237b90613a5b565b60405180910390fd5b6005548111156123c9576040517f08c379a00000000000000000000000000000000000000000000000000000000081526004016123c090613ac3565b60405180910390fd5b60646096826123d89190613160565b6123e29190613236565b341015612424576040517f08c379a000000000000000000000000000000000000000000000000000000000815260040161241b90613b51565b60405180910390fd5b345f803373ffffffffffffffffffffffffffffffffffffffff1673ffffffffffffffffffffffffffffffffffffffff1681526020019081526020015f20819055508060045f3373ffffffffffffffffffffffffffffffffffffffff1673ffffffffffffffffffffffffffffffffffffffff1681526020019081526020015f20819055508060055f8282546124b89190612dbe565b925050819055503373ffffffffffffffffffffffffffffffffffffffff166108fc8290811502906040515f60405180830381858888f19350505050158015612502573d5f803e3d5ffd5b503373ffffffffffffffffffffffffffffffffffffffff167fe1979fe4c35e0cef342fef5668e2c8e7a7e9f5d5d1ca8fee0ac6c427fa4153af823460405161254b929190613139565b60405180910390a250565b5f805f60035f8573ffffffffffffffffffffffffffffffffffffffff1673ffffffffffffffffffffffffffffffffffffffff1681526020019081526020015f205460045f8673ffffffffffffffffffffffffffffffffffffffff1673ffffffffffffffffffffffffffffffffffffffff1681526020019081526020015f20545f808773ffffffffffffffffffffffffffffffffffffffff1673ffffffffffffffffffffffffffffffffffffffff1681526020019081526020015f20549250925092509193909250565b5f3411612661576040517f08c379a000000000000000000000000000000000000000000000000000000000815260040161265890613bdf565b60405180910390fd5b3460035f3373ffffffffffffffffffffffffffffffffffffffff1673ffffffffffffffffffffffffffffffffffffffff1681526020019081526020015f205f8282546126ad9190613106565b925050819055503460055f8282546126c59190613106565b925050819055503373ffffffffffffffffffffffffffffffffffffffff167fe1fffcc4923d04b559f4d29a8bfc6cda04eb5b0d3c460751c2402c5c5cc9109c3460405161271291906129b3565b60405180910390a2600a33908060018154018082558091505060019003905f5260205f20015f9091909190916101000a81548173ffffffffffffffffffffffffffffffffffffffff021916908373ffffffffffffffffffffffffffffffffffffffff160217905550565b6009602052815f5260405f208181548110612795575f80fd5b905f5260205f20015f91509150505481565b6008602052805f5260405f205f91509050805f015f9054906101000a900473ffffffffffffffffffffffffffffffffffffffff1690806001015490806002015490806003015490806004015490806005015f9054906101000a900460ff16908060050160019054906101000a900460ff16905087565b600a818154811061282c575f80fd5b905f5260205f20015f915054906101000a900473ffffffffffffffffffffffffffffffffffffffff1681565b5f80821161289b576040517f08c379a00000000000000000000000000000000000000000000000000000000081526004016128929061386f565b60405180910390fd5b5f6064600254846128ac9190613160565b6128b69190613236565b905080836128c49190613106565b915050919050565b5f602052805f5260405f205f915090505481565b6003602052805f5260405f205f915090505481565b5f805f5b600a8054905081101561298e578373ffffffffffffffffffffffffffffffffffffffff16600a828154811061293157612930612e9a565b5b905f5260205f20015f9054906101000a900473ffffffffffffffffffffffffffffffffffffffff1673ffffffffffffffffffffffffffffffffffffffff1603612981576001819250925050612996565b80806001019150506128f9565b505f80915091505b915091565b5f819050919050565b6129ad8161299b565b82525050565b5f6020820190506129c65f8301846129a4565b92915050565b5f80fd5b6129d98161299b565b81146129e3575f80fd5b50565b5f813590506129f4816129d0565b92915050565b5f60208284031215612a0f57612a0e6129cc565b5b5f612a1c848285016129e6565b91505092915050565b5f73ffffffffffffffffffffffffffffffffffffffff82169050919050565b5f612a4e82612a25565b9050919050565b612a5e81612a44565b8114612a68575f80fd5b50565b5f81359050612a7981612a55565b92915050565b5f60208284031215612a9457612a936129cc565b5b5f612aa184828501612a6b565b91505092915050565b5f8115159050919050565b612abe81612aaa565b82525050565b5f602082019050612ad75f830184612ab5565b92915050565b612ae681612a44565b82525050565b5f602082019050612aff5f830184612add565b92915050565b5f8060408385031215612b1b57612b1a6129cc565b5b5f612b28858286016129e6565b9250506020612b39858286016129e6565b9150509250929050565b5f606082019050612b565f8301866129a4565b612b6360208301856129a4565b612b7060408301846129a4565b949350505050565b5f8060408385031215612b8e57612b8d6129cc565b5b5f612b9b85828601612a6b565b9250506020612bac858286016129e6565b9150509250929050565b5f60e082019050612bc95f83018a612add565b612bd660208301896129a4565b612be360408301886129a4565b612bf060608301876129a4565b612bfd60808301866129a4565b612c0a60a0830185612ab5565b612c1760c0830184612ab5565b98975050505050505050565b5f82825260208201905092915050565b7f596f7520617265206e6f742061206465706f7369746f722e00000000000000005f82015250565b5f612c67601883612c23565b9150612c7282612c33565b602082019050919050565b5f6020820190508181035f830152612c9481612c5b565b9050919050565b7f596f7520646f6e277420686176652074686973206d75636820616d6f756e74205f8201527f6f66206465706f73697420746f20776974686472617700000000000000000000602082015250565b5f612cf5603683612c23565b9150612d0082612c9b565b604082019050919050565b5f6020820190508181035f830152612d2281612ce9565b9050919050565b7f4e6f7420656e6f756768206c697175696469747920696e20706f6f6c000000005f82015250565b5f612d5d601c83612c23565b9150612d6882612d29565b602082019050919050565b5f6020820190508181035f830152612d8a81612d51565b9050919050565b7f4e487b71000000000000000000000000000000000000000000000000000000005f52601160045260245ffd5b5f612dc88261299b565b9150612dd38361299b565b9250828203905081811115612deb57612dea612d91565b5b92915050565b5f81905092915050565b50565b5f612e095f83612df1565b9150612e1482612dfb565b5f82019050919050565b5f612e2882612dfe565b9150819050919050565b7f5769746864726177616c207472616e73666572206661696c65640000000000005f82015250565b5f612e66601a83612c23565b9150612e7182612e32565b602082019050919050565b5f6020820190508181035f830152612e9381612e5a565b9050919050565b7f4e487b71000000000000000000000000000000000000000000000000000000005f52603260045260245ffd5b7f4e487b71000000000000000000000000000000000000000000000000000000005f52603160045260245ffd5b7f4f6e6c7920746865206f776e65722063616e20706572666f726d2074686973205f8201527f616374696f6e0000000000000000000000000000000000000000000000000000602082015250565b5f612f4e602683612c23565b9150612f5982612ef4565b604082019050919050565b5f6020820190508181035f830152612f7b81612f42565b9050919050565b7f4e6f20616374697665206c6f616e7320666f72207468697320626f72726f77655f8201527f7200000000000000000000000000000000000000000000000000000000000000602082015250565b5f612fdc602183612c23565b9150612fe782612f82565b604082019050919050565b5f6020820190508181035f83015261300981612fd0565b9050919050565b7f4e6f20636f6c6c61746572616c20746f207365697a65000000000000000000005f82015250565b5f613044601683612c23565b915061304f82613010565b602082019050919050565b5f6020820190508181035f83015261307181613038565b9050919050565b7f4661696c656420746f207472616e7366657220636f6c6c61746572616c20746f5f8201527f206f776e65720000000000000000000000000000000000000000000000000000602082015250565b5f6130d2602683612c23565b91506130dd82613078565b604082019050919050565b5f6020820190508181035f8301526130ff816130c6565b9050919050565b5f6131108261299b565b915061311b8361299b565b925082820190508082111561313357613132612d91565b5b92915050565b5f60408201905061314c5f8301856129a4565b61315960208301846129a4565b9392505050565b5f61316a8261299b565b91506131758361299b565b92508282026131838161299b565b9150828204841483151761319a57613199612d91565b5b5092915050565b7f596f752068617665206e6f206f75747374616e64696e67206c6f616e730000005f82015250565b5f6131d5601d83612c23565b91506131e0826131a1565b602082019050919050565b5f6020820190508181035f830152613202816131c9565b9050919050565b7f4e487b71000000000000000000000000000000000000000000000000000000005f52601260045260245ffd5b5f6132408261299b565b915061324b8361299b565b92508261325b5761325a613209565b5b828204905092915050565b7f496e636c75646520696e74657265737420696e207468652072657061796d656e5f8201527f7400000000000000000000000000000000000000000000000000000000000000602082015250565b5f6132c0602183612c23565b91506132cb82613266565b604082019050919050565b5f6020820190508181035f8301526132ed816132b4565b9050919050565b7f4e6f20636f6c6c61746572616c20746f2072657475726e0000000000000000005f82015250565b5f613328601783612c23565b9150613333826132f4565b602082019050919050565b5f6020820190508181035f8301526133558161331c565b9050919050565b7f4661696c656420746f2072657475726e20636f6c6c61746572616c00000000005f82015250565b5f613390601b83612c23565b915061339b8261335c565b602082019050919050565b5f6020820190508181035f8301526133bd81613384565b9050919050565b7f4e6f742061206465706f7369746f722e000000000000000000000000000000005f82015250565b5f6133f8601083612c23565b9150613403826133c4565b602082019050919050565b5f6020820190508181035f830152613425816133ec565b9050919050565b5f6134368261299b565b91507fffffffffffffffffffffffffffffffffffffffffffffffffffffffffffffffff820361346857613467612d91565b5b600182019050919050565b7f4c6f616e20616d6f756e74206d7573742062652067726561746572207468616e5f8201527f2030000000000000000000000000000000000000000000000000000000000000602082015250565b5f6134cd602283612c23565b91506134d882613473565b604082019050919050565b5f6020820190508181035f8301526134fa816134c1565b9050919050565b7f436f6c6c61746572616c206d7573742062652031353025206f66206c6f616e205f8201527f616d6f756e740000000000000000000000000000000000000000000000000000602082015250565b5f61355b602683612c23565b915061356682613501565b604082019050919050565b5f6020820190508181035f8301526135888161354f565b9050919050565b7f4c6f616e207472616e73666572206661696c65640000000000000000000000005f82015250565b5f6135c3601483612c23565b91506135ce8261358f565b602082019050919050565b5f6020820190508181035f8301526135f0816135b7565b9050919050565b7f4e6f206c697175696469747920746f2061636372756520696e746572657374205f8201527f6f6e000000000000000000000000000000000000000000000000000000000000602082015250565b5f613651602283612c23565b915061365c826135f7565b604082019050919050565b5f6020820190508181035f83015261367e81613645565b9050919050565b7f4e6f7420796f7572206c6f616e000000000000000000000000000000000000005f82015250565b5f6136b9600d83612c23565b91506136c482613685565b602082019050919050565b5f6020820190508181035f8301526136e6816136ad565b9050919050565b7f4c6f616e206973206e6f742061637469766500000000000000000000000000005f82015250565b5f613721601283612c23565b915061372c826136ed565b602082019050919050565b5f6020820190508181035f83015261374e81613715565b9050919050565b7f4c6f616e20616c726561647920726570616964000000000000000000000000005f82015250565b5f613789601383612c23565b915061379482613755565b602082019050919050565b5f6020820190508181035f8301526137b68161377d565b9050919050565b7f496e73756666696369656e742072657061796d656e7420616d6f756e740000005f82015250565b5f6137f1601d83612c23565b91506137fc826137bd565b602082019050919050565b5f6020820190508181035f83015261381e816137e5565b9050919050565b7f4c6f616e20616d6f756e74206d757374206265203e20300000000000000000005f82015250565b5f613859601783612c23565b915061386482613825565b602082019050919050565b5f6020820190508181035f8301526138868161384d565b9050919050565b7f4c6f616e20646f6573206e6f74206578697374206f7220686173206e6f20616d5f8201527f6f756e7400000000000000000000000000000000000000000000000000000000602082015250565b5f6138e7602483612c23565b91506138f28261388d565b604082019050919050565b5f6020820190508181035f830152613914816138db565b9050919050565b7f4e6f206665657320746f206469737472696275746500000000000000000000005f82015250565b5f61394f601583612c23565b915061395a8261391b565b602082019050919050565b5f6020820190508181035f83015261397c81613943565b9050919050565b7f46656520646973747269627574696f6e206661696c65640000000000000000005f82015250565b5f6139b7601783612c23565b91506139c282613983565b602082019050919050565b5f6020820190508181035f8301526139e4816139ab565b9050919050565b7f426f72726f7720616d6f756e74206d75737420626520677265617465722074685f8201527f616e203000000000000000000000000000000000000000000000000000000000602082015250565b5f613a45602483612c23565b9150613a50826139eb565b604082019050919050565b5f6020820190508181035f830152613a7281613a39565b9050919050565b7f4e6f7420656e6f756768206c697175696469747920696e2074686520706f6f6c5f82015250565b5f613aad602083612c23565b9150613ab882613a79565b602082019050919050565b5f6020820190508181035f830152613ada81613aa1565b9050919050565b7f436f6c6c61746572616c206d7573742062652031353025206f6620746865206c5f8201527f6f616e20616d6f756e7400000000000000000000000000000000000000000000602082015250565b5f613b3b602a83612c23565b9150613b4682613ae1565b604082019050919050565b5f6020820190508181035f830152613b6881613b2f565b9050919050565b7f4465706f73697420616d6f756e74206d757374206265206772656174657220745f8201527f68616e2030000000000000000000000000000000000000000000000000000000602082015250565b5f613bc9602583612c23565b9150613bd482613b6f565b604082019050919050565b5f6020820190508181035f830152613bf681613bbd565b905091905056fea26469706673582212204c95ec5f26c86c0ec953517916d8fe9bdb22b200be7e2152a37b8b7858db4f7464736f6c634300081a0033",
					"opcodes": "PUSH1 0x80 PUSH1 0x40 MSTORE PUSH1 0x5 PUSH1 0x6 SSTORE CALLVALUE DUP1 ISZERO PUSH2 0x14 JUMPI PUSH0 DUP1 REVERT JUMPDEST POP PUSH1 0x40 MLOAD PUSH2 0x3D2C CODESIZE SUB DUP1 PUSH2 0x3D2C DUP4 CODECOPY DUP2 DUP2 ADD PUSH1 0x40 MSTORE DUP2 ADD SWAP1 PUSH2 0x36 SWAP2 SWAP1 PUSH2 0xC1 JUMP JUMPDEST CALLER PUSH1 0x1 PUSH0 PUSH2 0x100 EXP DUP2 SLOAD DUP2 PUSH20 0xFFFFFFFFFFFFFFFFFFFFFFFFFFFFFFFFFFFFFFFF MUL NOT AND SWAP1 DUP4 PUSH20 0xFFFFFFFFFFFFFFFFFFFFFFFFFFFFFFFFFFFFFFFF AND MUL OR SWAP1 SSTORE POP DUP1 PUSH1 0x2 DUP2 SWAP1 SSTORE POP TIMESTAMP PUSH1 0xB DUP2 SWAP1 SSTORE POP POP PUSH2 0xEC JUMP JUMPDEST PUSH0 DUP1 REVERT JUMPDEST PUSH0 DUP2 SWAP1 POP SWAP2 SWAP1 POP JUMP JUMPDEST PUSH2 0xA0 DUP2 PUSH2 0x8E JUMP JUMPDEST DUP2 EQ PUSH2 0xAA JUMPI PUSH0 DUP1 REVERT JUMPDEST POP JUMP JUMPDEST PUSH0 DUP2 MLOAD SWAP1 POP PUSH2 0xBB DUP2 PUSH2 0x97 JUMP JUMPDEST SWAP3 SWAP2 POP POP JUMP JUMPDEST PUSH0 PUSH1 0x20 DUP3 DUP5 SUB SLT ISZERO PUSH2 0xD6 JUMPI PUSH2 0xD5 PUSH2 0x8A JUMP JUMPDEST JUMPDEST PUSH0 PUSH2 0xE3 DUP5 DUP3 DUP6 ADD PUSH2 0xAD JUMP JUMPDEST SWAP2 POP POP SWAP3 SWAP2 POP POP JUMP JUMPDEST PUSH2 0x3C33 DUP1 PUSH2 0xF9 PUSH0 CODECOPY PUSH0 RETURN INVALID PUSH1 0x80 PUSH1 0x40 MSTORE PUSH1 0x4 CALLDATASIZE LT PUSH2 0x1FC JUMPI PUSH0 CALLDATALOAD PUSH1 0xE0 SHR DUP1 PUSH4 0xA3183125 GT PUSH2 0x10C JUMPI DUP1 PUSH4 0xC5EBEAEC GT PUSH2 0x9F JUMPI DUP1 PUSH4 0xE1EC3C68 GT PUSH2 0x6E JUMPI DUP1 PUSH4 0xE1EC3C68 EQ PUSH2 0x6D1 JUMPI DUP1 PUSH4 0xE4B2FB79 EQ PUSH2 0x713 JUMPI DUP1 PUSH4 0xE59C20D0 EQ PUSH2 0x74F JUMPI DUP1 PUSH4 0xEEB97D3B EQ PUSH2 0x78B JUMPI DUP1 PUSH4 0xFC7E286D EQ PUSH2 0x7C7 JUMPI PUSH2 0x203 JUMP JUMPDEST DUP1 PUSH4 0xC5EBEAEC EQ PUSH2 0x631 JUMPI DUP1 PUSH4 0xC84AAE17 EQ PUSH2 0x64D JUMPI DUP1 PUSH4 0xD0E30DB0 EQ PUSH2 0x68B JUMPI DUP1 PUSH4 0xD8BAD5BD EQ PUSH2 0x695 JUMPI PUSH2 0x203 JUMP JUMPDEST DUP1 PUSH4 0xB1197239 GT PUSH2 0xDB JUMPI DUP1 PUSH4 0xB1197239 EQ PUSH2 0x585 JUMPI DUP1 PUSH4 0xB3F54444 EQ PUSH2 0x5C1 JUMPI DUP1 PUSH4 0xBB57AD20 EQ PUSH2 0x5FD JUMPI DUP1 PUSH4 0xC0789DCB EQ PUSH2 0x607 JUMPI PUSH2 0x203 JUMP JUMPDEST DUP1 PUSH4 0xA3183125 EQ PUSH2 0x4FB JUMPI DUP1 PUSH4 0xA6AFED95 EQ PUSH2 0x517 JUMPI DUP1 PUSH4 0xAB7B1C89 EQ PUSH2 0x52D JUMPI DUP1 PUSH4 0xABB7BC4A EQ PUSH2 0x549 JUMPI PUSH2 0x203 JUMP JUMPDEST DUP1 PUSH4 0x4BA5E2CE GT PUSH2 0x18F JUMPI DUP1 PUSH4 0x8393EA5F GT PUSH2 0x15E JUMPI DUP1 PUSH4 0x8393EA5F EQ PUSH2 0x405 JUMPI DUP1 PUSH4 0x8DA5CB5B EQ PUSH2 0x42F JUMPI DUP1 PUSH4 0x95DDBE89 EQ PUSH2 0x459 JUMPI DUP1 PUSH4 0x96F159BA EQ PUSH2 0x483 JUMPI DUP1 PUSH4 0x9B56D6C9 EQ PUSH2 0x4BF JUMPI PUSH2 0x203 JUMP JUMPDEST DUP1 PUSH4 0x4BA5E2CE EQ PUSH2 0x35D JUMPI DUP1 PUSH4 0x560C88ED EQ PUSH2 0x387 JUMPI DUP1 PUSH4 0x6F9FB98A EQ PUSH2 0x3B1 JUMPI DUP1 PUSH4 0x7C3A00FD EQ PUSH2 0x3DB JUMPI PUSH2 0x203 JUMP JUMPDEST DUP1 PUSH4 0x34D9289E GT PUSH2 0x1CB JUMPI DUP1 PUSH4 0x34D9289E EQ PUSH2 0x2B1 JUMPI DUP1 PUSH4 0x34F93778 EQ PUSH2 0x2DB JUMPI DUP1 PUSH4 0x402D8883 EQ PUSH2 0x317 JUMPI DUP1 PUSH4 0x47734892 EQ PUSH2 0x321 JUMPI PUSH2 0x203 JUMP JUMPDEST DUP1 PUSH4 0x15770F92 EQ PUSH2 0x207 JUMPI DUP1 PUSH4 0x2E1A7D4D EQ PUSH2 0x231 JUMPI DUP1 PUSH4 0x2F70D1BA EQ PUSH2 0x24D JUMPI DUP1 PUSH4 0x2F865568 EQ PUSH2 0x289 JUMPI PUSH2 0x203 JUMP JUMPDEST CALLDATASIZE PUSH2 0x203 JUMPI STOP JUMPDEST PUSH0 DUP1 REVERT JUMPDEST CALLVALUE DUP1 ISZERO PUSH2 0x212 JUMPI PUSH0 DUP1 REVERT JUMPDEST POP PUSH2 0x21B PUSH2 0x803 JUMP JUMPDEST PUSH1 0x40 MLOAD PUSH2 0x228 SWAP2 SWAP1 PUSH2 0x29B3 JUMP JUMPDEST PUSH1 0x40 MLOAD DUP1 SWAP2 SUB SWAP1 RETURN JUMPDEST PUSH2 0x24B PUSH1 0x4 DUP1 CALLDATASIZE SUB DUP2 ADD SWAP1 PUSH2 0x246 SWAP2 SWAP1 PUSH2 0x29FA JUMP JUMPDEST PUSH2 0x809 JUMP JUMPDEST STOP JUMPDEST CALLVALUE DUP1 ISZERO PUSH2 0x258 JUMPI PUSH0 DUP1 REVERT JUMPDEST POP PUSH2 0x273 PUSH1 0x4 DUP1 CALLDATASIZE SUB DUP2 ADD SWAP1 PUSH2 0x26E SWAP2 SWAP1 PUSH2 0x2A7F JUMP JUMPDEST PUSH2 0xBC2 JUMP JUMPDEST PUSH1 0x40 MLOAD PUSH2 0x280 SWAP2 SWAP1 PUSH2 0x2AC4 JUMP JUMPDEST PUSH1 0x40 MLOAD DUP1 SWAP2 SUB SWAP1 RETURN JUMPDEST CALLVALUE DUP1 ISZERO PUSH2 0x294 JUMPI PUSH0 DUP1 REVERT JUMPDEST POP PUSH2 0x2AF PUSH1 0x4 DUP1 CALLDATASIZE SUB DUP2 ADD SWAP1 PUSH2 0x2AA SWAP2 SWAP1 PUSH2 0x2A7F JUMP JUMPDEST PUSH2 0xC62 JUMP JUMPDEST STOP JUMPDEST CALLVALUE DUP1 ISZERO PUSH2 0x2BC JUMPI PUSH0 DUP1 REVERT JUMPDEST POP PUSH2 0x2C5 PUSH2 0xFED JUMP JUMPDEST PUSH1 0x40 MLOAD PUSH2 0x2D2 SWAP2 SWAP1 PUSH2 0x29B3 JUMP JUMPDEST PUSH1 0x40 MLOAD DUP1 SWAP2 SUB SWAP1 RETURN JUMPDEST CALLVALUE DUP1 ISZERO PUSH2 0x2E6 JUMPI PUSH0 DUP1 REVERT JUMPDEST POP PUSH2 0x301 PUSH1 0x4 DUP1 CALLDATASIZE SUB DUP2 ADD SWAP1 PUSH2 0x2FC SWAP2 SWAP1 PUSH2 0x2A7F JUMP JUMPDEST PUSH2 0xFF3 JUMP JUMPDEST PUSH1 0x40 MLOAD PUSH2 0x30E SWAP2 SWAP1 PUSH2 0x29B3 JUMP JUMPDEST PUSH1 0x40 MLOAD DUP1 SWAP2 SUB SWAP1 RETURN JUMPDEST PUSH2 0x31F PUSH2 0x1011 JUMP JUMPDEST STOP JUMPDEST CALLVALUE DUP1 ISZERO PUSH2 0x32C JUMPI PUSH0 DUP1 REVERT JUMPDEST POP PUSH2 0x347 PUSH1 0x4 DUP1 CALLDATASIZE SUB DUP2 ADD SWAP1 PUSH2 0x342 SWAP2 SWAP1 PUSH2 0x2A7F JUMP JUMPDEST PUSH2 0x13D1 JUMP JUMPDEST PUSH1 0x40 MLOAD PUSH2 0x354 SWAP2 SWAP1 PUSH2 0x29B3 JUMP JUMPDEST PUSH1 0x40 MLOAD DUP1 SWAP2 SUB SWAP1 RETURN JUMPDEST CALLVALUE DUP1 ISZERO PUSH2 0x368 JUMPI PUSH0 DUP1 REVERT JUMPDEST POP PUSH2 0x371 PUSH2 0x145F JUMP JUMPDEST PUSH1 0x40 MLOAD PUSH2 0x37E SWAP2 SWAP1 PUSH2 0x29B3 JUMP JUMPDEST PUSH1 0x40 MLOAD DUP1 SWAP2 SUB SWAP1 RETURN JUMPDEST CALLVALUE DUP1 ISZERO PUSH2 0x392 JUMPI PUSH0 DUP1 REVERT JUMPDEST POP PUSH2 0x39B PUSH2 0x1464 JUMP JUMPDEST PUSH1 0x40 MLOAD PUSH2 0x3A8 SWAP2 SWAP1 PUSH2 0x29B3 JUMP JUMPDEST PUSH1 0x40 MLOAD DUP1 SWAP2 SUB SWAP1 RETURN JUMPDEST CALLVALUE DUP1 ISZERO PUSH2 0x3BC JUMPI PUSH0 DUP1 REVERT JUMPDEST POP PUSH2 0x3C5 PUSH2 0x1514 JUMP JUMPDEST PUSH1 0x40 MLOAD PUSH2 0x3D2 SWAP2 SWAP1 PUSH2 0x29B3 JUMP JUMPDEST PUSH1 0x40 MLOAD DUP1 SWAP2 SUB SWAP1 RETURN JUMPDEST CALLVALUE DUP1 ISZERO PUSH2 0x3E6 JUMPI PUSH0 DUP1 REVERT JUMPDEST POP PUSH2 0x3EF PUSH2 0x151B JUMP JUMPDEST PUSH1 0x40 MLOAD PUSH2 0x3FC SWAP2 SWAP1 PUSH2 0x29B3 JUMP JUMPDEST PUSH1 0x40 MLOAD DUP1 SWAP2 SUB SWAP1 RETURN JUMPDEST CALLVALUE DUP1 ISZERO PUSH2 0x410 JUMPI PUSH0 DUP1 REVERT JUMPDEST POP PUSH2 0x419 PUSH2 0x1521 JUMP JUMPDEST PUSH1 0x40 MLOAD PUSH2 0x426 SWAP2 SWAP1 PUSH2 0x29B3 JUMP JUMPDEST PUSH1 0x40 MLOAD DUP1 SWAP2 SUB SWAP1 RETURN JUMPDEST CALLVALUE DUP1 ISZERO PUSH2 0x43A JUMPI PUSH0 DUP1 REVERT JUMPDEST POP PUSH2 0x443 PUSH2 0x1527 JUMP JUMPDEST PUSH1 0x40 MLOAD PUSH2 0x450 SWAP2 SWAP1 PUSH2 0x2AEC JUMP JUMPDEST PUSH1 0x40 MLOAD DUP1 SWAP2 SUB SWAP1 RETURN JUMPDEST CALLVALUE DUP1 ISZERO PUSH2 0x464 JUMPI PUSH0 DUP1 REVERT JUMPDEST POP PUSH2 0x46D PUSH2 0x154C JUMP JUMPDEST PUSH1 0x40 MLOAD PUSH2 0x47A SWAP2 SWAP1 PUSH2 0x29B3 JUMP JUMPDEST PUSH1 0x40 MLOAD DUP1 SWAP2 SUB SWAP1 RETURN JUMPDEST CALLVALUE DUP1 ISZERO PUSH2 0x48E JUMPI PUSH0 DUP1 REVERT JUMPDEST POP PUSH2 0x4A9 PUSH1 0x4 DUP1 CALLDATASIZE SUB DUP2 ADD SWAP1 PUSH2 0x4A4 SWAP2 SWAP1 PUSH2 0x2A7F JUMP JUMPDEST PUSH2 0x1555 JUMP JUMPDEST PUSH1 0x40 MLOAD PUSH2 0x4B6 SWAP2 SWAP1 PUSH2 0x29B3 JUMP JUMPDEST PUSH1 0x40 MLOAD DUP1 SWAP2 SUB SWAP1 RETURN JUMPDEST CALLVALUE DUP1 ISZERO PUSH2 0x4CA JUMPI PUSH0 DUP1 REVERT JUMPDEST POP PUSH2 0x4E5 PUSH1 0x4 DUP1 CALLDATASIZE SUB DUP2 ADD SWAP1 PUSH2 0x4E0 SWAP2 SWAP1 PUSH2 0x2A7F JUMP JUMPDEST PUSH2 0x156A JUMP JUMPDEST PUSH1 0x40 MLOAD PUSH2 0x4F2 SWAP2 SWAP1 PUSH2 0x29B3 JUMP JUMPDEST PUSH1 0x40 MLOAD DUP1 SWAP2 SUB SWAP1 RETURN JUMPDEST PUSH2 0x515 PUSH1 0x4 DUP1 CALLDATASIZE SUB DUP2 ADD SWAP1 PUSH2 0x510 SWAP2 SWAP1 PUSH2 0x2B05 JUMP JUMPDEST PUSH2 0x15AF JUMP JUMPDEST STOP JUMPDEST CALLVALUE DUP1 ISZERO PUSH2 0x522 JUMPI PUSH0 DUP1 REVERT JUMPDEST POP PUSH2 0x52B PUSH2 0x19AF JUMP JUMPDEST STOP JUMPDEST PUSH2 0x547 PUSH1 0x4 DUP1 CALLDATASIZE SUB DUP2 ADD SWAP1 PUSH2 0x542 SWAP2 SWAP1 PUSH2 0x29FA JUMP JUMPDEST PUSH2 0x1AB9 JUMP JUMPDEST STOP JUMPDEST CALLVALUE DUP1 ISZERO PUSH2 0x554 JUMPI PUSH0 DUP1 REVERT JUMPDEST POP PUSH2 0x56F PUSH1 0x4 DUP1 CALLDATASIZE SUB DUP2 ADD SWAP1 PUSH2 0x56A SWAP2 SWAP1 PUSH2 0x29FA JUMP JUMPDEST PUSH2 0x1EDC JUMP JUMPDEST PUSH1 0x40 MLOAD PUSH2 0x57C SWAP2 SWAP1 PUSH2 0x29B3 JUMP JUMPDEST PUSH1 0x40 MLOAD DUP1 SWAP2 SUB SWAP1 RETURN JUMPDEST CALLVALUE DUP1 ISZERO PUSH2 0x590 JUMPI PUSH0 DUP1 REVERT JUMPDEST POP PUSH2 0x5AB PUSH1 0x4 DUP1 CALLDATASIZE SUB DUP2 ADD SWAP1 PUSH2 0x5A6 SWAP2 SWAP1 PUSH2 0x29FA JUMP JUMPDEST PUSH2 0x1F3F JUMP JUMPDEST PUSH1 0x40 MLOAD PUSH2 0x5B8 SWAP2 SWAP1 PUSH2 0x29B3 JUMP JUMPDEST PUSH1 0x40 MLOAD DUP1 SWAP2 SUB SWAP1 RETURN JUMPDEST CALLVALUE DUP1 ISZERO PUSH2 0x5CC JUMPI PUSH0 DUP1 REVERT JUMPDEST POP PUSH2 0x5E7 PUSH1 0x4 DUP1 CALLDATASIZE SUB DUP2 ADD SWAP1 PUSH2 0x5E2 SWAP2 SWAP1 PUSH2 0x2A7F JUMP JUMPDEST PUSH2 0x2063 JUMP JUMPDEST PUSH1 0x40 MLOAD PUSH2 0x5F4 SWAP2 SWAP1 PUSH2 0x29B3 JUMP JUMPDEST PUSH1 0x40 MLOAD DUP1 SWAP2 SUB SWAP1 RETURN JUMPDEST PUSH2 0x605 PUSH2 0x20D5 JUMP JUMPDEST STOP JUMPDEST CALLVALUE DUP1 ISZERO PUSH2 0x612 JUMPI PUSH0 DUP1 REVERT JUMPDEST POP PUSH2 0x61B PUSH2 0x233C JUMP JUMPDEST PUSH1 0x40 MLOAD PUSH2 0x628 SWAP2 SWAP1 PUSH2 0x29B3 JUMP JUMPDEST PUSH1 0x40 MLOAD DUP1 SWAP2 SUB SWAP1 RETURN JUMPDEST PUSH2 0x64B PUSH1 0x4 DUP1 CALLDATASIZE SUB DUP2 ADD SWAP1 PUSH2 0x646 SWAP2 SWAP1 PUSH2 0x29FA JUMP JUMPDEST PUSH2 0x2342 JUMP JUMPDEST STOP JUMPDEST CALLVALUE DUP1 ISZERO PUSH2 0x658 JUMPI PUSH0 DUP1 REVERT JUMPDEST POP PUSH2 0x673 PUSH1 0x4 DUP1 CALLDATASIZE SUB DUP2 ADD SWAP1 PUSH2 0x66E SWAP2 SWAP1 PUSH2 0x2A7F JUMP JUMPDEST PUSH2 0x2556 JUMP JUMPDEST PUSH1 0x40 MLOAD PUSH2 0x682 SWAP4 SWAP3 SWAP2 SWAP1 PUSH2 0x2B43 JUMP JUMPDEST PUSH1 0x40 MLOAD DUP1 SWAP2 SUB SWAP1 RETURN JUMPDEST PUSH2 0x693 PUSH2 0x261F JUMP JUMPDEST STOP JUMPDEST CALLVALUE DUP1 ISZERO PUSH2 0x6A0 JUMPI PUSH0 DUP1 REVERT JUMPDEST POP PUSH2 0x6BB PUSH1 0x4 DUP1 CALLDATASIZE SUB DUP2 ADD SWAP1 PUSH2 0x6B6 SWAP2 SWAP1 PUSH2 0x2B78 JUMP JUMPDEST PUSH2 0x277C JUMP JUMPDEST PUSH1 0x40 MLOAD PUSH2 0x6C8 SWAP2 SWAP1 PUSH2 0x29B3 JUMP JUMPDEST PUSH1 0x40 MLOAD DUP1 SWAP2 SUB SWAP1 RETURN JUMPDEST CALLVALUE DUP1 ISZERO PUSH2 0x6DC JUMPI PUSH0 DUP1 REVERT JUMPDEST POP PUSH2 0x6F7 PUSH1 0x4 DUP1 CALLDATASIZE SUB DUP2 ADD SWAP1 PUSH2 0x6F2 SWAP2 SWAP1 PUSH2 0x29FA JUMP JUMPDEST PUSH2 0x27A7 JUMP JUMPDEST PUSH1 0x40 MLOAD PUSH2 0x70A SWAP8 SWAP7 SWAP6 SWAP5 SWAP4 SWAP3 SWAP2 SWAP1 PUSH2 0x2BB6 JUMP JUMPDEST PUSH1 0x40 MLOAD DUP1 SWAP2 SUB SWAP1 RETURN JUMPDEST CALLVALUE DUP1 ISZERO PUSH2 0x71E JUMPI PUSH0 DUP1 REVERT JUMPDEST POP PUSH2 0x739 PUSH1 0x4 DUP1 CALLDATASIZE SUB DUP2 ADD SWAP1 PUSH2 0x734 SWAP2 SWAP1 PUSH2 0x29FA JUMP JUMPDEST PUSH2 0x281D JUMP JUMPDEST PUSH1 0x40 MLOAD PUSH2 0x746 SWAP2 SWAP1 PUSH2 0x2AEC JUMP JUMPDEST PUSH1 0x40 MLOAD DUP1 SWAP2 SUB SWAP1 RETURN JUMPDEST CALLVALUE DUP1 ISZERO PUSH2 0x75A JUMPI PUSH0 DUP1 REVERT JUMPDEST POP PUSH2 0x775 PUSH1 0x4 DUP1 CALLDATASIZE SUB DUP2 ADD SWAP1 PUSH2 0x770 SWAP2 SWAP1 PUSH2 0x29FA JUMP JUMPDEST PUSH2 0x2858 JUMP JUMPDEST PUSH1 0x40 MLOAD PUSH2 0x782 SWAP2 SWAP1 PUSH2 0x29B3 JUMP JUMPDEST PUSH1 0x40 MLOAD DUP1 SWAP2 SUB SWAP1 RETURN JUMPDEST CALLVALUE DUP1 ISZERO PUSH2 0x796 JUMPI PUSH0 DUP1 REVERT JUMPDEST POP PUSH2 0x7B1 PUSH1 0x4 DUP1 CALLDATASIZE SUB DUP2 ADD SWAP1 PUSH2 0x7AC SWAP2 SWAP1 PUSH2 0x2A7F JUMP JUMPDEST PUSH2 0x28CC JUMP JUMPDEST PUSH1 0x40 MLOAD PUSH2 0x7BE SWAP2 SWAP1 PUSH2 0x29B3 JUMP JUMPDEST PUSH1 0x40 MLOAD DUP1 SWAP2 SUB SWAP1 RETURN JUMPDEST CALLVALUE DUP1 ISZERO PUSH2 0x7D2 JUMPI PUSH0 DUP1 REVERT JUMPDEST POP PUSH2 0x7ED PUSH1 0x4 DUP1 CALLDATASIZE SUB DUP2 ADD SWAP1 PUSH2 0x7E8 SWAP2 SWAP1 PUSH2 0x2A7F JUMP JUMPDEST PUSH2 0x28E0 JUMP JUMPDEST PUSH1 0x40 MLOAD PUSH2 0x7FA SWAP2 SWAP1 PUSH2 0x29B3 JUMP JUMPDEST PUSH1 0x40 MLOAD DUP1 SWAP2 SUB SWAP1 RETURN JUMPDEST PUSH1 0x5 SLOAD DUP2 JUMP JUMPDEST PUSH2 0x812 CALLER PUSH2 0xBC2 JUMP JUMPDEST PUSH2 0x851 JUMPI PUSH1 0x40 MLOAD PUSH32 0x8C379A000000000000000000000000000000000000000000000000000000000 DUP2 MSTORE PUSH1 0x4 ADD PUSH2 0x848 SWAP1 PUSH2 0x2C7D JUMP JUMPDEST PUSH1 0x40 MLOAD DUP1 SWAP2 SUB SWAP1 REVERT JUMPDEST PUSH1 0x3 PUSH0 CALLER PUSH20 0xFFFFFFFFFFFFFFFFFFFFFFFFFFFFFFFFFFFFFFFF AND PUSH20 0xFFFFFFFFFFFFFFFFFFFFFFFFFFFFFFFFFFFFFFFF AND DUP2 MSTORE PUSH1 0x20 ADD SWAP1 DUP2 MSTORE PUSH1 0x20 ADD PUSH0 KECCAK256 SLOAD DUP2 GT ISZERO PUSH2 0x8D1 JUMPI PUSH1 0x40 MLOAD PUSH32 0x8C379A000000000000000000000000000000000000000000000000000000000 DUP2 MSTORE PUSH1 0x4 ADD PUSH2 0x8C8 SWAP1 PUSH2 0x2D0B JUMP JUMPDEST PUSH1 0x40 MLOAD DUP1 SWAP2 SUB SWAP1 REVERT JUMPDEST PUSH1 0x5 SLOAD DUP2 GT ISZERO PUSH2 0x916 JUMPI PUSH1 0x40 MLOAD PUSH32 0x8C379A000000000000000000000000000000000000000000000000000000000 DUP2 MSTORE PUSH1 0x4 ADD PUSH2 0x90D SWAP1 PUSH2 0x2D73 JUMP JUMPDEST PUSH1 0x40 MLOAD DUP1 SWAP2 SUB SWAP1 REVERT JUMPDEST DUP1 PUSH1 0x3 PUSH0 CALLER PUSH20 0xFFFFFFFFFFFFFFFFFFFFFFFFFFFFFFFFFFFFFFFF AND PUSH20 0xFFFFFFFFFFFFFFFFFFFFFFFFFFFFFFFFFFFFFFFF AND DUP2 MSTORE PUSH1 0x20 ADD SWAP1 DUP2 MSTORE PUSH1 0x20 ADD PUSH0 KECCAK256 PUSH0 DUP3 DUP3 SLOAD PUSH2 0x962 SWAP2 SWAP1 PUSH2 0x2DBE JUMP JUMPDEST SWAP3 POP POP DUP2 SWAP1 SSTORE POP DUP1 PUSH1 0x5 PUSH0 DUP3 DUP3 SLOAD PUSH2 0x97A SWAP2 SWAP1 PUSH2 0x2DBE JUMP JUMPDEST SWAP3 POP POP DUP2 SWAP1 SSTORE POP PUSH0 CALLER PUSH20 0xFFFFFFFFFFFFFFFFFFFFFFFFFFFFFFFFFFFFFFFF AND DUP3 PUSH1 0x40 MLOAD PUSH2 0x9A6 SWAP1 PUSH2 0x2E1E JUMP JUMPDEST PUSH0 PUSH1 0x40 MLOAD DUP1 DUP4 SUB DUP2 DUP6 DUP8 GAS CALL SWAP3 POP POP POP RETURNDATASIZE DUP1 PUSH0 DUP2 EQ PUSH2 0x9E0 JUMPI PUSH1 0x40 MLOAD SWAP2 POP PUSH1 0x1F NOT PUSH1 0x3F RETURNDATASIZE ADD AND DUP3 ADD PUSH1 0x40 MSTORE RETURNDATASIZE DUP3 MSTORE RETURNDATASIZE PUSH0 PUSH1 0x20 DUP5 ADD RETURNDATACOPY PUSH2 0x9E5 JUMP JUMPDEST PUSH1 0x60 SWAP2 POP JUMPDEST POP POP SWAP1 POP DUP1 PUSH2 0xA29 JUMPI PUSH1 0x40 MLOAD PUSH32 0x8C379A000000000000000000000000000000000000000000000000000000000 DUP2 MSTORE PUSH1 0x4 ADD PUSH2 0xA20 SWAP1 PUSH2 0x2E7C JUMP JUMPDEST PUSH1 0x40 MLOAD DUP1 SWAP2 SUB SWAP1 REVERT JUMPDEST PUSH0 PUSH1 0x3 PUSH0 CALLER PUSH20 0xFFFFFFFFFFFFFFFFFFFFFFFFFFFFFFFFFFFFFFFF AND PUSH20 0xFFFFFFFFFFFFFFFFFFFFFFFFFFFFFFFFFFFFFFFF AND DUP2 MSTORE PUSH1 0x20 ADD SWAP1 DUP2 MSTORE PUSH1 0x20 ADD PUSH0 KECCAK256 SLOAD SUB PUSH2 0xB70 JUMPI PUSH0 DUP1 PUSH2 0xA78 CALLER PUSH2 0x28F5 JUMP JUMPDEST SWAP2 POP SWAP2 POP DUP2 ISZERO PUSH2 0xB6D JUMPI PUSH1 0xA PUSH1 0x1 PUSH1 0xA DUP1 SLOAD SWAP1 POP PUSH2 0xA96 SWAP2 SWAP1 PUSH2 0x2DBE JUMP JUMPDEST DUP2 SLOAD DUP2 LT PUSH2 0xAA7 JUMPI PUSH2 0xAA6 PUSH2 0x2E9A JUMP JUMPDEST JUMPDEST SWAP1 PUSH0 MSTORE PUSH1 0x20 PUSH0 KECCAK256 ADD PUSH0 SWAP1 SLOAD SWAP1 PUSH2 0x100 EXP SWAP1 DIV PUSH20 0xFFFFFFFFFFFFFFFFFFFFFFFFFFFFFFFFFFFFFFFF AND PUSH1 0xA DUP3 DUP2 SLOAD DUP2 LT PUSH2 0xAE3 JUMPI PUSH2 0xAE2 PUSH2 0x2E9A JUMP JUMPDEST JUMPDEST SWAP1 PUSH0 MSTORE PUSH1 0x20 PUSH0 KECCAK256 ADD PUSH0 PUSH2 0x100 EXP DUP2 SLOAD DUP2 PUSH20 0xFFFFFFFFFFFFFFFFFFFFFFFFFFFFFFFFFFFFFFFF MUL NOT AND SWAP1 DUP4 PUSH20 0xFFFFFFFFFFFFFFFFFFFFFFFFFFFFFFFFFFFFFFFF AND MUL OR SWAP1 SSTORE POP PUSH1 0xA DUP1 SLOAD DUP1 PUSH2 0xB3A JUMPI PUSH2 0xB39 PUSH2 0x2EC7 JUMP JUMPDEST JUMPDEST PUSH1 0x1 SWAP1 SUB DUP2 DUP2 SWAP1 PUSH0 MSTORE PUSH1 0x20 PUSH0 KECCAK256 ADD PUSH0 PUSH2 0x100 EXP DUP2 SLOAD SWAP1 PUSH20 0xFFFFFFFFFFFFFFFFFFFFFFFFFFFFFFFFFFFFFFFF MUL NOT AND SWAP1 SSTORE SWAP1 SSTORE JUMPDEST POP POP JUMPDEST CALLER PUSH20 0xFFFFFFFFFFFFFFFFFFFFFFFFFFFFFFFFFFFFFFFF AND PUSH32 0x7FCF532C15F0A6DB0BD6D0E038BEA71D30D808C7D98CB3BF7268A95BF5081B65 DUP4 PUSH1 0x40 MLOAD PUSH2 0xBB6 SWAP2 SWAP1 PUSH2 0x29B3 JUMP JUMPDEST PUSH1 0x40 MLOAD DUP1 SWAP2 SUB SWAP1 LOG2 POP POP JUMP JUMPDEST PUSH0 DUP1 PUSH0 SWAP1 POP JUMPDEST PUSH1 0xA DUP1 SLOAD SWAP1 POP DUP2 LT ISZERO PUSH2 0xC58 JUMPI DUP3 PUSH20 0xFFFFFFFFFFFFFFFFFFFFFFFFFFFFFFFFFFFFFFFF AND PUSH1 0xA DUP3 DUP2 SLOAD DUP2 LT PUSH2 0xC00 JUMPI PUSH2 0xBFF PUSH2 0x2E9A JUMP JUMPDEST JUMPDEST SWAP1 PUSH0 MSTORE PUSH1 0x20 PUSH0 KECCAK256 ADD PUSH0 SWAP1 SLOAD SWAP1 PUSH2 0x100 EXP SWAP1 DIV PUSH20 0xFFFFFFFFFFFFFFFFFFFFFFFFFFFFFFFFFFFFFFFF AND PUSH20 0xFFFFFFFFFFFFFFFFFFFFFFFFFFFFFFFFFFFFFFFF AND SUB PUSH2 0xC4D JUMPI PUSH1 0x1 SWAP2 POP POP PUSH2 0xC5D JUMP JUMPDEST DUP1 PUSH1 0x1 ADD SWAP1 POP PUSH2 0xBC8 JUMP JUMPDEST POP PUSH0 SWAP1 POP JUMPDEST SWAP2 SWAP1 POP JUMP JUMPDEST PUSH1 0x1 PUSH0 SWAP1 SLOAD SWAP1 PUSH2 0x100 EXP SWAP1 DIV PUSH20 0xFFFFFFFFFFFFFFFFFFFFFFFFFFFFFFFFFFFFFFFF AND PUSH20 0xFFFFFFFFFFFFFFFFFFFFFFFFFFFFFFFFFFFFFFFF AND CALLER PUSH20 0xFFFFFFFFFFFFFFFFFFFFFFFFFFFFFFFFFFFFFFFF AND EQ PUSH2 0xCF1 JUMPI PUSH1 0x40 MLOAD PUSH32 0x8C379A000000000000000000000000000000000000000000000000000000000 DUP2 MSTORE PUSH1 0x4 ADD PUSH2 0xCE8 SWAP1 PUSH2 0x2F64 JUMP JUMPDEST PUSH1 0x40 MLOAD DUP1 SWAP2 SUB SWAP1 REVERT JUMPDEST PUSH0 PUSH1 0x4 PUSH0 DUP4 PUSH20 0xFFFFFFFFFFFFFFFFFFFFFFFFFFFFFFFFFFFFFFFF AND PUSH20 0xFFFFFFFFFFFFFFFFFFFFFFFFFFFFFFFFFFFFFFFF AND DUP2 MSTORE PUSH1 0x20 ADD SWAP1 DUP2 MSTORE PUSH1 0x20 ADD PUSH0 KECCAK256 SLOAD GT PUSH2 0xD70 JUMPI PUSH1 0x40 MLOAD PUSH32 0x8C379A000000000000000000000000000000000000000000000000000000000 DUP2 MSTORE PUSH1 0x4 ADD PUSH2 0xD67 SWAP1 PUSH2 0x2FF2 JUMP JUMPDEST PUSH1 0x40 MLOAD DUP1 SWAP2 SUB SWAP1 REVERT JUMPDEST PUSH0 PUSH1 0x4 PUSH0 DUP4 PUSH20 0xFFFFFFFFFFFFFFFFFFFFFFFFFFFFFFFFFFFFFFFF AND PUSH20 0xFFFFFFFFFFFFFFFFFFFFFFFFFFFFFFFFFFFFFFFF AND DUP2 MSTORE PUSH1 0x20 ADD SWAP1 DUP2 MSTORE PUSH1 0x20 ADD PUSH0 KECCAK256 SLOAD SWAP1 POP PUSH0 DUP1 PUSH0 DUP5 PUSH20 0xFFFFFFFFFFFFFFFFFFFFFFFFFFFFFFFFFFFFFFFF AND PUSH20 0xFFFFFFFFFFFFFFFFFFFFFFFFFFFFFFFFFFFFFFFF AND DUP2 MSTORE PUSH1 0x20 ADD SWAP1 DUP2 MSTORE PUSH1 0x20 ADD PUSH0 KECCAK256 SLOAD SWAP1 POP PUSH0 DUP2 GT PUSH2 0xE33 JUMPI PUSH1 0x40 MLOAD PUSH32 0x8C379A000000000000000000000000000000000000000000000000000000000 DUP2 MSTORE PUSH1 0x4 ADD PUSH2 0xE2A SWAP1 PUSH2 0x305A JUMP JUMPDEST PUSH1 0x40 MLOAD DUP1 SWAP2 SUB SWAP1 REVERT JUMPDEST PUSH0 PUSH1 0x4 PUSH0 DUP6 PUSH20 0xFFFFFFFFFFFFFFFFFFFFFFFFFFFFFFFFFFFFFFFF AND PUSH20 0xFFFFFFFFFFFFFFFFFFFFFFFFFFFFFFFFFFFFFFFF AND DUP2 MSTORE PUSH1 0x20 ADD SWAP1 DUP2 MSTORE PUSH1 0x20 ADD PUSH0 KECCAK256 DUP2 SWAP1 SSTORE POP PUSH0 DUP1 PUSH0 DUP6 PUSH20 0xFFFFFFFFFFFFFFFFFFFFFFFFFFFFFFFFFFFFFFFF AND PUSH20 0xFFFFFFFFFFFFFFFFFFFFFFFFFFFFFFFFFFFFFFFF AND DUP2 MSTORE PUSH1 0x20 ADD SWAP1 DUP2 MSTORE PUSH1 0x20 ADD PUSH0 KECCAK256 DUP2 SWAP1 SSTORE POP PUSH0 PUSH1 0x1 PUSH0 SWAP1 SLOAD SWAP1 PUSH2 0x100 EXP SWAP1 DIV PUSH20 0xFFFFFFFFFFFFFFFFFFFFFFFFFFFFFFFFFFFFFFFF AND PUSH20 0xFFFFFFFFFFFFFFFFFFFFFFFFFFFFFFFFFFFFFFFF AND DUP3 PUSH1 0x40 MLOAD PUSH2 0xEFC SWAP1 PUSH2 0x2E1E JUMP JUMPDEST PUSH0 PUSH1 0x40 MLOAD DUP1 DUP4 SUB DUP2 DUP6 DUP8 GAS CALL SWAP3 POP POP POP RETURNDATASIZE DUP1 PUSH0 DUP2 EQ PUSH2 0xF36 JUMPI PUSH1 0x40 MLOAD SWAP2 POP PUSH1 0x1F NOT PUSH1 0x3F RETURNDATASIZE ADD AND DUP3 ADD PUSH1 0x40 MSTORE RETURNDATASIZE DUP3 MSTORE RETURNDATASIZE PUSH0 PUSH1 0x20 DUP5 ADD RETURNDATACOPY PUSH2 0xF3B JUMP JUMPDEST PUSH1 0x60 SWAP2 POP JUMPDEST POP POP SWAP1 POP DUP1 PUSH2 0xF7F JUMPI PUSH1 0x40 MLOAD PUSH32 0x8C379A000000000000000000000000000000000000000000000000000000000 DUP2 MSTORE PUSH1 0x4 ADD PUSH2 0xF76 SWAP1 PUSH2 0x30E8 JUMP JUMPDEST PUSH1 0x40 MLOAD DUP1 SWAP2 SUB SWAP1 REVERT JUMPDEST DUP3 PUSH1 0x5 PUSH0 DUP3 DUP3 SLOAD PUSH2 0xF90 SWAP2 SWAP1 PUSH2 0x3106 JUMP JUMPDEST SWAP3 POP POP DUP2 SWAP1 SSTORE POP DUP4 PUSH20 0xFFFFFFFFFFFFFFFFFFFFFFFFFFFFFFFFFFFFFFFF AND PUSH32 0x3C4B1D42B9C7FA283F6FE657533F6A5A8A7AD1D36F9EF1D9D89AD04485E10D2C DUP4 DUP6 PUSH1 0x40 MLOAD PUSH2 0xFDF SWAP3 SWAP2 SWAP1 PUSH2 0x3139 JUMP JUMPDEST PUSH1 0x40 MLOAD DUP1 SWAP2 SUB SWAP1 LOG2 POP POP POP POP JUMP JUMPDEST PUSH1 0x7 SLOAD DUP2 JUMP JUMPDEST PUSH0 PUSH2 0xFFD DUP3 PUSH2 0x2063 JUMP JUMPDEST PUSH1 0xC SLOAD PUSH2 0x100A SWAP2 SWAP1 PUSH2 0x3160 JUMP JUMPDEST SWAP1 POP SWAP2 SWAP1 POP JUMP JUMPDEST PUSH0 PUSH1 0x4 PUSH0 CALLER PUSH20 0xFFFFFFFFFFFFFFFFFFFFFFFFFFFFFFFFFFFFFFFF AND PUSH20 0xFFFFFFFFFFFFFFFFFFFFFFFFFFFFFFFFFFFFFFFF AND DUP2 MSTORE PUSH1 0x20 ADD SWAP1 DUP2 MSTORE PUSH1 0x20 ADD PUSH0 KECCAK256 SLOAD GT PUSH2 0x1090 JUMPI PUSH1 0x40 MLOAD PUSH32 0x8C379A000000000000000000000000000000000000000000000000000000000 DUP2 MSTORE PUSH1 0x4 ADD PUSH2 0x1087 SWAP1 PUSH2 0x31EB JUMP JUMPDEST PUSH1 0x40 MLOAD DUP1 SWAP2 SUB SWAP1 REVERT JUMPDEST PUSH0 PUSH1 0x64 PUSH1 0x6 SLOAD PUSH1 0x4 PUSH0 CALLER PUSH20 0xFFFFFFFFFFFFFFFFFFFFFFFFFFFFFFFFFFFFFFFF AND PUSH20 0xFFFFFFFFFFFFFFFFFFFFFFFFFFFFFFFFFFFFFFFF AND DUP2 MSTORE PUSH1 0x20 ADD SWAP1 DUP2 MSTORE PUSH1 0x20 ADD PUSH0 KECCAK256 SLOAD PUSH2 0x10DE SWAP2 SWAP1 PUSH2 0x3160 JUMP JUMPDEST PUSH2 0x10E8 SWAP2 SWAP1 PUSH2 0x3236 JUMP JUMPDEST SWAP1 POP PUSH0 DUP2 PUSH1 0x4 PUSH0 CALLER PUSH20 0xFFFFFFFFFFFFFFFFFFFFFFFFFFFFFFFFFFFFFFFF AND PUSH20 0xFFFFFFFFFFFFFFFFFFFFFFFFFFFFFFFFFFFFFFFF AND DUP2 MSTORE PUSH1 0x20 ADD SWAP1 DUP2 MSTORE PUSH1 0x20 ADD PUSH0 KECCAK256 SLOAD PUSH2 0x1134 SWAP2 SWAP1 PUSH2 0x3106 JUMP JUMPDEST SWAP1 POP DUP1 CALLVALUE LT ISZERO PUSH2 0x1179 JUMPI PUSH1 0x40 MLOAD PUSH32 0x8C379A000000000000000000000000000000000000000000000000000000000 DUP2 MSTORE PUSH1 0x4 ADD PUSH2 0x1170 SWAP1 PUSH2 0x32D6 JUMP JUMPDEST PUSH1 0x40 MLOAD DUP1 SWAP2 SUB SWAP1 REVERT JUMPDEST PUSH0 DUP1 PUSH0 CALLER PUSH20 0xFFFFFFFFFFFFFFFFFFFFFFFFFFFFFFFFFFFFFFFF AND PUSH20 0xFFFFFFFFFFFFFFFFFFFFFFFFFFFFFFFFFFFFFFFF AND DUP2 MSTORE PUSH1 0x20 ADD SWAP1 DUP2 MSTORE PUSH1 0x20 ADD PUSH0 KECCAK256 SLOAD SWAP1 POP PUSH0 DUP2 GT PUSH2 0x11FB JUMPI PUSH1 0x40 MLOAD PUSH32 0x8C379A000000000000000000000000000000000000000000000000000000000 DUP2 MSTORE PUSH1 0x4 ADD PUSH2 0x11F2 SWAP1 PUSH2 0x333E JUMP JUMPDEST PUSH1 0x40 MLOAD DUP1 SWAP2 SUB SWAP1 REVERT JUMPDEST PUSH1 0x4 PUSH0 CALLER PUSH20 0xFFFFFFFFFFFFFFFFFFFFFFFFFFFFFFFFFFFFFFFF AND PUSH20 0xFFFFFFFFFFFFFFFFFFFFFFFFFFFFFFFFFFFFFFFF AND DUP2 MSTORE PUSH1 0x20 ADD SWAP1 DUP2 MSTORE PUSH1 0x20 ADD PUSH0 KECCAK256 SLOAD PUSH1 0x5 PUSH0 DUP3 DUP3 SLOAD PUSH2 0x1249 SWAP2 SWAP1 PUSH2 0x3106 JUMP JUMPDEST SWAP3 POP POP DUP2 SWAP1 SSTORE POP PUSH0 PUSH1 0x4 PUSH0 CALLER PUSH20 0xFFFFFFFFFFFFFFFFFFFFFFFFFFFFFFFFFFFFFFFF AND PUSH20 0xFFFFFFFFFFFFFFFFFFFFFFFFFFFFFFFFFFFFFFFF AND DUP2 MSTORE PUSH1 0x20 ADD SWAP1 DUP2 MSTORE PUSH1 0x20 ADD PUSH0 KECCAK256 DUP2 SWAP1 SSTORE POP PUSH0 DUP1 PUSH0 CALLER PUSH20 0xFFFFFFFFFFFFFFFFFFFFFFFFFFFFFFFFFFFFFFFF AND PUSH20 0xFFFFFFFFFFFFFFFFFFFFFFFFFFFFFFFFFFFFFFFF AND DUP2 MSTORE PUSH1 0x20 ADD SWAP1 DUP2 MSTORE PUSH1 0x20 ADD PUSH0 KECCAK256 DUP2 SWAP1 SSTORE POP PUSH0 CALLER PUSH20 0xFFFFFFFFFFFFFFFFFFFFFFFFFFFFFFFFFFFFFFFF AND DUP3 PUSH1 0x40 MLOAD PUSH2 0x12F8 SWAP1 PUSH2 0x2E1E JUMP JUMPDEST PUSH0 PUSH1 0x40 MLOAD DUP1 DUP4 SUB DUP2 DUP6 DUP8 GAS CALL SWAP3 POP POP POP RETURNDATASIZE DUP1 PUSH0 DUP2 EQ PUSH2 0x1332 JUMPI PUSH1 0x40 MLOAD SWAP2 POP PUSH1 0x1F NOT PUSH1 0x3F RETURNDATASIZE ADD AND DUP3 ADD PUSH1 0x40 MSTORE RETURNDATASIZE DUP3 MSTORE RETURNDATASIZE PUSH0 PUSH1 0x20 DUP5 ADD RETURNDATACOPY PUSH2 0x1337 JUMP JUMPDEST PUSH1 0x60 SWAP2 POP JUMPDEST POP POP SWAP1 POP DUP1 PUSH2 0x137B JUMPI PUSH1 0x40 MLOAD PUSH32 0x8C379A000000000000000000000000000000000000000000000000000000000 DUP2 MSTORE PUSH1 0x4 ADD PUSH2 0x1372 SWAP1 PUSH2 0x33A6 JUMP JUMPDEST PUSH1 0x40 MLOAD DUP1 SWAP2 SUB SWAP1 REVERT JUMPDEST CALLER PUSH20 0xFFFFFFFFFFFFFFFFFFFFFFFFFFFFFFFFFFFFFFFF AND PUSH32 0x77C6871227E5D2DEC8DADD5354F78453203E22E669CD0EC4C19D9A8C5EDB31D0 CALLVALUE DUP5 PUSH1 0x40 MLOAD PUSH2 0x13C3 SWAP3 SWAP2 SWAP1 PUSH2 0x3139 JUMP JUMPDEST PUSH1 0x40 MLOAD DUP1 SWAP2 SUB SWAP1 LOG2 POP POP POP POP JUMP JUMPDEST PUSH0 PUSH2 0x13DB DUP3 PUSH2 0xBC2 JUMP JUMPDEST PUSH2 0x141A JUMPI PUSH1 0x40 MLOAD PUSH32 0x8C379A000000000000000000000000000000000000000000000000000000000 DUP2 MSTORE PUSH1 0x4 ADD PUSH2 0x1411 SWAP1 PUSH2 0x340E JUMP JUMPDEST PUSH1 0x40 MLOAD DUP1 SWAP2 SUB SWAP1 REVERT JUMPDEST PUSH1 0x3 PUSH0 DUP4 PUSH20 0xFFFFFFFFFFFFFFFFFFFFFFFFFFFFFFFFFFFFFFFF AND PUSH20 0xFFFFFFFFFFFFFFFFFFFFFFFFFFFFFFFFFFFFFFFF AND DUP2 MSTORE PUSH1 0x20 ADD SWAP1 DUP2 MSTORE PUSH1 0x20 ADD PUSH0 KECCAK256 SLOAD SWAP1 POP SWAP2 SWAP1 POP JUMP JUMPDEST PUSH1 0x1 DUP2 JUMP JUMPDEST PUSH0 DUP1 PUSH0 SWAP1 POP PUSH0 PUSH1 0x1 SWAP1 POP JUMPDEST PUSH1 0x7 SLOAD DUP2 GT PUSH2 0x14FF JUMPI PUSH1 0x8 PUSH0 DUP3 DUP2 MSTORE PUSH1 0x20 ADD SWAP1 DUP2 MSTORE PUSH1 0x20 ADD PUSH0 KECCAK256 PUSH1 0x5 ADD PUSH1 0x1 SWAP1 SLOAD SWAP1 PUSH2 0x100 EXP SWAP1 DIV PUSH1 0xFF AND DUP1 ISZERO PUSH2 0x14C4 JUMPI POP PUSH1 0x8 PUSH0 DUP3 DUP2 MSTORE PUSH1 0x20 ADD SWAP1 DUP2 MSTORE PUSH1 0x20 ADD PUSH0 KECCAK256 PUSH1 0x5 ADD PUSH0 SWAP1 SLOAD SWAP1 PUSH2 0x100 EXP SWAP1 DIV PUSH1 0xFF AND ISZERO JUMPDEST ISZERO PUSH2 0x14EC JUMPI PUSH1 0x8 PUSH0 DUP3 DUP2 MSTORE PUSH1 0x20 ADD SWAP1 DUP2 MSTORE PUSH1 0x20 ADD PUSH0 KECCAK256 PUSH1 0x1 ADD SLOAD DUP3 PUSH2 0x14E9 SWAP2 SWAP1 PUSH2 0x3106 JUMP JUMPDEST SWAP2 POP JUMPDEST DUP1 DUP1 PUSH2 0x14F7 SWAP1 PUSH2 0x342C JUMP JUMPDEST SWAP2 POP POP PUSH2 0x146F JUMP JUMPDEST POP DUP1 PUSH1 0x5 SLOAD PUSH2 0x150E SWAP2 SWAP1 PUSH2 0x3106 JUMP JUMPDEST SWAP2 POP POP SWAP1 JUMP JUMPDEST PUSH0 SELFBALANCE SWAP1 POP SWAP1 JUMP JUMPDEST PUSH1 0x6 SLOAD DUP2 JUMP JUMPDEST PUSH1 0xC SLOAD DUP2 JUMP JUMPDEST PUSH1 0x1 PUSH0 SWAP1 SLOAD SWAP1 PUSH2 0x100 EXP SWAP1 DIV PUSH20 0xFFFFFFFFFFFFFFFFFFFFFFFFFFFFFFFFFFFFFFFF AND DUP2 JUMP JUMPDEST PUSH0 PUSH1 0x5 SLOAD SWAP1 POP SWAP1 JUMP JUMPDEST PUSH1 0x4 PUSH1 0x20 MSTORE DUP1 PUSH0 MSTORE PUSH1 0x40 PUSH0 KECCAK256 PUSH0 SWAP2 POP SWAP1 POP SLOAD DUP2 JUMP JUMPDEST PUSH0 DUP1 PUSH0 DUP4 PUSH20 0xFFFFFFFFFFFFFFFFFFFFFFFFFFFFFFFFFFFFFFFF AND PUSH20 0xFFFFFFFFFFFFFFFFFFFFFFFFFFFFFFFFFFFFFFFF AND DUP2 MSTORE PUSH1 0x20 ADD SWAP1 DUP2 MSTORE PUSH1 0x20 ADD PUSH0 KECCAK256 SLOAD SWAP1 POP SWAP2 SWAP1 POP JUMP JUMPDEST PUSH0 DUP3 GT PUSH2 0x15F1 JUMPI PUSH1 0x40 MLOAD PUSH32 0x8C379A000000000000000000000000000000000000000000000000000000000 DUP2 MSTORE PUSH1 0x4 ADD PUSH2 0x15E8 SWAP1 PUSH2 0x34E3 JUMP JUMPDEST PUSH1 0x40 MLOAD DUP1 SWAP2 SUB SWAP1 REVERT JUMPDEST PUSH1 0x5 SLOAD DUP3 GT ISZERO PUSH2 0x1636 JUMPI PUSH1 0x40 MLOAD PUSH32 0x8C379A000000000000000000000000000000000000000000000000000000000 DUP2 MSTORE PUSH1 0x4 ADD PUSH2 0x162D SWAP1 PUSH2 0x2D73 JUMP JUMPDEST PUSH1 0x40 MLOAD DUP1 SWAP2 SUB SWAP1 REVERT JUMPDEST PUSH1 0x64 PUSH1 0x96 DUP4 PUSH2 0x1645 SWAP2 SWAP1 PUSH2 0x3160 JUMP JUMPDEST PUSH2 0x164F SWAP2 SWAP1 PUSH2 0x3236 JUMP JUMPDEST CALLVALUE LT ISZERO PUSH2 0x1691 JUMPI PUSH1 0x40 MLOAD PUSH32 0x8C379A000000000000000000000000000000000000000000000000000000000 DUP2 MSTORE PUSH1 0x4 ADD PUSH2 0x1688 SWAP1 PUSH2 0x3571 JUMP JUMPDEST PUSH1 0x40 MLOAD DUP1 SWAP2 SUB SWAP1 REVERT JUMPDEST PUSH0 PUSH2 0x169B DUP4 PUSH2 0x2858 JUMP JUMPDEST SWAP1 POP PUSH0 PUSH3 0x15180 DUP4 PUSH2 0x16AD SWAP2 SWAP1 PUSH2 0x3160 JUMP JUMPDEST TIMESTAMP PUSH2 0x16B8 SWAP2 SWAP1 PUSH2 0x3106 JUMP JUMPDEST SWAP1 POP PUSH1 0x7 PUSH0 DUP2 SLOAD DUP1 SWAP3 SWAP2 SWAP1 PUSH2 0x16CC SWAP1 PUSH2 0x342C JUMP JUMPDEST SWAP2 SWAP1 POP SSTORE POP PUSH1 0x40 MLOAD DUP1 PUSH1 0xE0 ADD PUSH1 0x40 MSTORE DUP1 CALLER PUSH20 0xFFFFFFFFFFFFFFFFFFFFFFFFFFFFFFFFFFFFFFFF AND DUP2 MSTORE PUSH1 0x20 ADD DUP6 DUP2 MSTORE PUSH1 0x20 ADD PUSH1 0x2 SLOAD DUP2 MSTORE PUSH1 0x20 ADD DUP4 DUP2 MSTORE PUSH1 0x20 ADD DUP3 DUP2 MSTORE PUSH1 0x20 ADD PUSH0 ISZERO ISZERO DUP2 MSTORE PUSH1 0x20 ADD PUSH1 0x1 ISZERO ISZERO DUP2 MSTORE POP PUSH1 0x8 PUSH0 PUSH1 0x7 SLOAD DUP2 MSTORE PUSH1 0x20 ADD SWAP1 DUP2 MSTORE PUSH1 0x20 ADD PUSH0 KECCAK256 PUSH0 DUP3 ADD MLOAD DUP2 PUSH0 ADD PUSH0 PUSH2 0x100 EXP DUP2 SLOAD DUP2 PUSH20 0xFFFFFFFFFFFFFFFFFFFFFFFFFFFFFFFFFFFFFFFF MUL NOT AND SWAP1 DUP4 PUSH20 0xFFFFFFFFFFFFFFFFFFFFFFFFFFFFFFFFFFFFFFFF AND MUL OR SWAP1 SSTORE POP PUSH1 0x20 DUP3 ADD MLOAD DUP2 PUSH1 0x1 ADD SSTORE PUSH1 0x40 DUP3 ADD MLOAD DUP2 PUSH1 0x2 ADD SSTORE PUSH1 0x60 DUP3 ADD MLOAD DUP2 PUSH1 0x3 ADD SSTORE PUSH1 0x80 DUP3 ADD MLOAD DUP2 PUSH1 0x4 ADD SSTORE PUSH1 0xA0 DUP3 ADD MLOAD DUP2 PUSH1 0x5 ADD PUSH0 PUSH2 0x100 EXP DUP2 SLOAD DUP2 PUSH1 0xFF MUL NOT AND SWAP1 DUP4 ISZERO ISZERO MUL OR SWAP1 SSTORE POP PUSH1 0xC0 DUP3 ADD MLOAD DUP2 PUSH1 0x5 ADD PUSH1 0x1 PUSH2 0x100 EXP DUP2 SLOAD DUP2 PUSH1 0xFF MUL NOT AND SWAP1 DUP4 ISZERO ISZERO MUL OR SWAP1 SSTORE POP SWAP1 POP POP PUSH1 0x9 PUSH0 CALLER PUSH20 0xFFFFFFFFFFFFFFFFFFFFFFFFFFFFFFFFFFFFFFFF AND PUSH20 0xFFFFFFFFFFFFFFFFFFFFFFFFFFFFFFFFFFFFFFFF AND DUP2 MSTORE PUSH1 0x20 ADD SWAP1 DUP2 MSTORE PUSH1 0x20 ADD PUSH0 KECCAK256 PUSH1 0x7 SLOAD SWAP1 DUP1 PUSH1 0x1 DUP2 SLOAD ADD DUP1 DUP3 SSTORE DUP1 SWAP2 POP POP PUSH1 0x1 SWAP1 SUB SWAP1 PUSH0 MSTORE PUSH1 0x20 PUSH0 KECCAK256 ADD PUSH0 SWAP1 SWAP2 SWAP1 SWAP2 SWAP1 SWAP2 POP SSTORE CALLVALUE PUSH0 DUP1 CALLER PUSH20 0xFFFFFFFFFFFFFFFFFFFFFFFFFFFFFFFFFFFFFFFF AND PUSH20 0xFFFFFFFFFFFFFFFFFFFFFFFFFFFFFFFFFFFFFFFF AND DUP2 MSTORE PUSH1 0x20 ADD SWAP1 DUP2 MSTORE PUSH1 0x20 ADD PUSH0 KECCAK256 PUSH0 DUP3 DUP3 SLOAD PUSH2 0x1890 SWAP2 SWAP1 PUSH2 0x3106 JUMP JUMPDEST SWAP3 POP POP DUP2 SWAP1 SSTORE POP DUP4 PUSH1 0x5 PUSH0 DUP3 DUP3 SLOAD PUSH2 0x18A8 SWAP2 SWAP1 PUSH2 0x2DBE JUMP JUMPDEST SWAP3 POP POP DUP2 SWAP1 SSTORE POP PUSH0 CALLER PUSH20 0xFFFFFFFFFFFFFFFFFFFFFFFFFFFFFFFFFFFFFFFF AND DUP6 PUSH1 0x40 MLOAD PUSH2 0x18D4 SWAP1 PUSH2 0x2E1E JUMP JUMPDEST PUSH0 PUSH1 0x40 MLOAD DUP1 DUP4 SUB DUP2 DUP6 DUP8 GAS CALL SWAP3 POP POP POP RETURNDATASIZE DUP1 PUSH0 DUP2 EQ PUSH2 0x190E JUMPI PUSH1 0x40 MLOAD SWAP2 POP PUSH1 0x1F NOT PUSH1 0x3F RETURNDATASIZE ADD AND DUP3 ADD PUSH1 0x40 MSTORE RETURNDATASIZE DUP3 MSTORE RETURNDATASIZE PUSH0 PUSH1 0x20 DUP5 ADD RETURNDATACOPY PUSH2 0x1913 JUMP JUMPDEST PUSH1 0x60 SWAP2 POP JUMPDEST POP POP SWAP1 POP DUP1 PUSH2 0x1957 JUMPI PUSH1 0x40 MLOAD PUSH32 0x8C379A000000000000000000000000000000000000000000000000000000000 DUP2 MSTORE PUSH1 0x4 ADD PUSH2 0x194E SWAP1 PUSH2 0x35D9 JUMP JUMPDEST PUSH1 0x40 MLOAD DUP1 SWAP2 SUB SWAP1 REVERT JUMPDEST CALLER PUSH20 0xFFFFFFFFFFFFFFFFFFFFFFFFFFFFFFFFFFFFFFFF AND PUSH31 0x6B9BB4766CF5AB74B890DF959E4FAD0E54B1C3885E49C9541D36253A6E39E6 PUSH1 0x7 SLOAD DUP8 PUSH1 0x40 MLOAD PUSH2 0x19A0 SWAP3 SWAP2 SWAP1 PUSH2 0x3139 JUMP JUMPDEST PUSH1 0x40 MLOAD DUP1 SWAP2 SUB SWAP1 LOG2 POP POP POP POP POP JUMP JUMPDEST PUSH0 PUSH1 0x5 SLOAD GT PUSH2 0x19F3 JUMPI PUSH1 0x40 MLOAD PUSH32 0x8C379A000000000000000000000000000000000000000000000000000000000 DUP2 MSTORE PUSH1 0x4 ADD PUSH2 0x19EA SWAP1 PUSH2 0x3667 JUMP JUMPDEST PUSH1 0x40 MLOAD DUP1 SWAP2 SUB SWAP1 REVERT JUMPDEST PUSH0 PUSH1 0xB SLOAD TIMESTAMP PUSH2 0x1A02 SWAP2 SWAP1 PUSH2 0x2DBE JUMP JUMPDEST SWAP1 POP PUSH0 DUP2 SUB PUSH2 0x1A11 JUMPI POP PUSH2 0x1AB7 JUMP JUMPDEST PUSH0 PUSH4 0x1E13380 SWAP1 POP PUSH0 DUP2 PUSH1 0x64 PUSH2 0x1A27 SWAP2 SWAP1 PUSH2 0x3160 JUMP JUMPDEST DUP4 PUSH1 0x2 SLOAD PUSH1 0x5 SLOAD PUSH2 0x1A38 SWAP2 SWAP1 PUSH2 0x3160 JUMP JUMPDEST PUSH2 0x1A42 SWAP2 SWAP1 PUSH2 0x3160 JUMP JUMPDEST PUSH2 0x1A4C SWAP2 SWAP1 PUSH2 0x3236 JUMP JUMPDEST SWAP1 POP PUSH0 DUP2 GT ISZERO PUSH2 0x1AB3 JUMPI DUP1 PUSH1 0xC PUSH0 DUP3 DUP3 SLOAD PUSH2 0x1A67 SWAP2 SWAP1 PUSH2 0x3106 JUMP JUMPDEST SWAP3 POP POP DUP2 SWAP1 SSTORE POP TIMESTAMP PUSH1 0xB DUP2 SWAP1 SSTORE POP PUSH32 0xE9D95E658B0C714DA9DE2E12FBED253A24A632058A074DC7C90B8B6618675C7C DUP2 PUSH1 0x5 SLOAD TIMESTAMP PUSH1 0x40 MLOAD PUSH2 0x1AAA SWAP4 SWAP3 SWAP2 SWAP1 PUSH2 0x2B43 JUMP JUMPDEST PUSH1 0x40 MLOAD DUP1 SWAP2 SUB SWAP1 LOG1 JUMPDEST POP POP POP JUMPDEST JUMP JUMPDEST PUSH0 PUSH1 0x8 PUSH0 DUP4 DUP2 MSTORE PUSH1 0x20 ADD SWAP1 DUP2 MSTORE PUSH1 0x20 ADD PUSH0 KECCAK256 SWAP1 POP CALLER PUSH20 0xFFFFFFFFFFFFFFFFFFFFFFFFFFFFFFFFFFFFFFFF AND DUP2 PUSH0 ADD PUSH0 SWAP1 SLOAD SWAP1 PUSH2 0x100 EXP SWAP1 DIV PUSH20 0xFFFFFFFFFFFFFFFFFFFFFFFFFFFFFFFFFFFFFFFF AND PUSH20 0xFFFFFFFFFFFFFFFFFFFFFFFFFFFFFFFFFFFFFFFF AND EQ PUSH2 0x1B5D JUMPI PUSH1 0x40 MLOAD PUSH32 0x8C379A000000000000000000000000000000000000000000000000000000000 DUP2 MSTORE PUSH1 0x4 ADD PUSH2 0x1B54 SWAP1 PUSH2 0x36CF JUMP JUMPDEST PUSH1 0x40 MLOAD DUP1 SWAP2 SUB SWAP1 REVERT JUMPDEST DUP1 PUSH1 0x5 ADD PUSH1 0x1 SWAP1 SLOAD SWAP1 PUSH2 0x100 EXP SWAP1 DIV PUSH1 0xFF AND PUSH2 0x1BAE JUMPI PUSH1 0x40 MLOAD PUSH32 0x8C379A000000000000000000000000000000000000000000000000000000000 DUP2 MSTORE PUSH1 0x4 ADD PUSH2 0x1BA5 SWAP1 PUSH2 0x3737 JUMP JUMPDEST PUSH1 0x40 MLOAD DUP1 SWAP2 SUB SWAP1 REVERT JUMPDEST DUP1 PUSH1 0x5 ADD PUSH0 SWAP1 SLOAD SWAP1 PUSH2 0x100 EXP SWAP1 DIV PUSH1 0xFF AND ISZERO PUSH2 0x1BFF JUMPI PUSH1 0x40 MLOAD PUSH32 0x8C379A000000000000000000000000000000000000000000000000000000000 DUP2 MSTORE PUSH1 0x4 ADD PUSH2 0x1BF6 SWAP1 PUSH2 0x379F JUMP JUMPDEST PUSH1 0x40 MLOAD DUP1 SWAP2 SUB SWAP1 REVERT JUMPDEST DUP1 PUSH1 0x3 ADD SLOAD CALLVALUE LT ISZERO PUSH2 0x1C46 JUMPI PUSH1 0x40 MLOAD PUSH32 0x8C379A000000000000000000000000000000000000000000000000000000000 DUP2 MSTORE PUSH1 0x4 ADD PUSH2 0x1C3D SWAP1 PUSH2 0x3807 JUMP JUMPDEST PUSH1 0x40 MLOAD DUP1 SWAP2 SUB SWAP1 REVERT JUMPDEST PUSH0 PUSH1 0x64 PUSH1 0x1 DUP4 PUSH1 0x3 ADD SLOAD PUSH2 0x1C5A SWAP2 SWAP1 PUSH2 0x3160 JUMP JUMPDEST PUSH2 0x1C64 SWAP2 SWAP1 PUSH2 0x3236 JUMP JUMPDEST SWAP1 POP PUSH0 DUP2 DUP4 PUSH1 0x3 ADD SLOAD PUSH2 0x1C77 SWAP2 SWAP1 PUSH2 0x2DBE JUMP JUMPDEST SWAP1 POP DUP2 PUSH1 0xC PUSH0 DUP3 DUP3 SLOAD PUSH2 0x1C8A SWAP2 SWAP1 PUSH2 0x3106 JUMP JUMPDEST SWAP3 POP POP DUP2 SWAP1 SSTORE POP PUSH1 0x1 DUP4 PUSH1 0x5 ADD PUSH0 PUSH2 0x100 EXP DUP2 SLOAD DUP2 PUSH1 0xFF MUL NOT AND SWAP1 DUP4 ISZERO ISZERO MUL OR SWAP1 SSTORE POP PUSH0 DUP4 PUSH1 0x5 ADD PUSH1 0x1 PUSH2 0x100 EXP DUP2 SLOAD DUP2 PUSH1 0xFF MUL NOT AND SWAP1 DUP4 ISZERO ISZERO MUL OR SWAP1 SSTORE POP PUSH0 DUP1 PUSH0 CALLER PUSH20 0xFFFFFFFFFFFFFFFFFFFFFFFFFFFFFFFFFFFFFFFF AND PUSH20 0xFFFFFFFFFFFFFFFFFFFFFFFFFFFFFFFFFFFFFFFF AND DUP2 MSTORE PUSH1 0x20 ADD SWAP1 DUP2 MSTORE PUSH1 0x20 ADD PUSH0 KECCAK256 SLOAD SWAP1 POP PUSH0 DUP2 GT PUSH2 0x1D4B JUMPI PUSH1 0x40 MLOAD PUSH32 0x8C379A000000000000000000000000000000000000000000000000000000000 DUP2 MSTORE PUSH1 0x4 ADD PUSH2 0x1D42 SWAP1 PUSH2 0x333E JUMP JUMPDEST PUSH1 0x40 MLOAD DUP1 SWAP2 SUB SWAP1 REVERT JUMPDEST PUSH0 DUP1 PUSH0 CALLER PUSH20 0xFFFFFFFFFFFFFFFFFFFFFFFFFFFFFFFFFFFFFFFF AND PUSH20 0xFFFFFFFFFFFFFFFFFFFFFFFFFFFFFFFFFFFFFFFF AND DUP2 MSTORE PUSH1 0x20 ADD SWAP1 DUP2 MSTORE PUSH1 0x20 ADD PUSH0 KECCAK256 DUP2 SWAP1 SSTORE POP DUP2 PUSH1 0x5 PUSH0 DUP3 DUP3 SLOAD PUSH2 0x1D9D SWAP2 SWAP1 PUSH2 0x3106 JUMP JUMPDEST SWAP3 POP POP DUP2 SWAP1 SSTORE POP PUSH1 0x1 DUP5 PUSH1 0x5 ADD PUSH0 PUSH2 0x100 EXP DUP2 SLOAD DUP2 PUSH1 0xFF MUL NOT AND SWAP1 DUP4 ISZERO ISZERO MUL OR SWAP1 SSTORE POP PUSH0 DUP5 PUSH1 0x5 ADD PUSH1 0x1 PUSH2 0x100 EXP DUP2 SLOAD DUP2 PUSH1 0xFF MUL NOT AND SWAP1 DUP4 ISZERO ISZERO MUL OR SWAP1 SSTORE POP PUSH0 CALLER PUSH20 0xFFFFFFFFFFFFFFFFFFFFFFFFFFFFFFFFFFFFFFFF AND DUP3 PUSH1 0x40 MLOAD PUSH2 0x1E01 SWAP1 PUSH2 0x2E1E JUMP JUMPDEST PUSH0 PUSH1 0x40 MLOAD DUP1 DUP4 SUB DUP2 DUP6 DUP8 GAS CALL SWAP3 POP POP POP RETURNDATASIZE DUP1 PUSH0 DUP2 EQ PUSH2 0x1E3B JUMPI PUSH1 0x40 MLOAD SWAP2 POP PUSH1 0x1F NOT PUSH1 0x3F RETURNDATASIZE ADD AND DUP3 ADD PUSH1 0x40 MSTORE RETURNDATASIZE DUP3 MSTORE RETURNDATASIZE PUSH0 PUSH1 0x20 DUP5 ADD RETURNDATACOPY PUSH2 0x1E40 JUMP JUMPDEST PUSH1 0x60 SWAP2 POP JUMPDEST POP POP SWAP1 POP DUP1 PUSH2 0x1E84 JUMPI PUSH1 0x40 MLOAD PUSH32 0x8C379A000000000000000000000000000000000000000000000000000000000 DUP2 MSTORE PUSH1 0x4 ADD PUSH2 0x1E7B SWAP1 PUSH2 0x33A6 JUMP JUMPDEST PUSH1 0x40 MLOAD DUP1 SWAP2 SUB SWAP1 REVERT JUMPDEST CALLER PUSH20 0xFFFFFFFFFFFFFFFFFFFFFFFFFFFFFFFFFFFFFFFF AND PUSH32 0xC7CE0A35F17B490DE2A317E7FECB2CAE86B1ABFFB03800B2F492823521382698 DUP8 CALLVALUE PUSH1 0x40 MLOAD PUSH2 0x1ECC SWAP3 SWAP2 SWAP1 PUSH2 0x3139 JUMP JUMPDEST PUSH1 0x40 MLOAD DUP1 SWAP2 SUB SWAP1 LOG2 POP POP POP POP POP POP JUMP JUMPDEST PUSH0 DUP1 DUP3 GT PUSH2 0x1F1F JUMPI PUSH1 0x40 MLOAD PUSH32 0x8C379A000000000000000000000000000000000000000000000000000000000 DUP2 MSTORE PUSH1 0x4 ADD PUSH2 0x1F16 SWAP1 PUSH2 0x386F JUMP JUMPDEST PUSH1 0x40 MLOAD DUP1 SWAP2 SUB SWAP1 REVERT JUMPDEST PUSH1 0x64 PUSH1 0x96 DUP4 PUSH2 0x1F2E SWAP2 SWAP1 PUSH2 0x3160 JUMP JUMPDEST PUSH2 0x1F38 SWAP2 SWAP1 PUSH2 0x3236 JUMP JUMPDEST SWAP1 POP SWAP2 SWAP1 POP JUMP JUMPDEST PUSH0 DUP1 PUSH1 0x8 PUSH0 DUP5 DUP2 MSTORE PUSH1 0x20 ADD SWAP1 DUP2 MSTORE PUSH1 0x20 ADD PUSH0 KECCAK256 PUSH1 0x40 MLOAD DUP1 PUSH1 0xE0 ADD PUSH1 0x40 MSTORE SWAP1 DUP2 PUSH0 DUP3 ADD PUSH0 SWAP1 SLOAD SWAP1 PUSH2 0x100 EXP SWAP1 DIV PUSH20 0xFFFFFFFFFFFFFFFFFFFFFFFFFFFFFFFFFFFFFFFF AND PUSH20 0xFFFFFFFFFFFFFFFFFFFFFFFFFFFFFFFFFFFFFFFF AND PUSH20 0xFFFFFFFFFFFFFFFFFFFFFFFFFFFFFFFFFFFFFFFF AND DUP2 MSTORE PUSH1 0x20 ADD PUSH1 0x1 DUP3 ADD SLOAD DUP2 MSTORE PUSH1 0x20 ADD PUSH1 0x2 DUP3 ADD SLOAD DUP2 MSTORE PUSH1 0x20 ADD PUSH1 0x3 DUP3 ADD SLOAD DUP2 MSTORE PUSH1 0x20 ADD PUSH1 0x4 DUP3 ADD SLOAD DUP2 MSTORE PUSH1 0x20 ADD PUSH1 0x5 DUP3 ADD PUSH0 SWAP1 SLOAD SWAP1 PUSH2 0x100 EXP SWAP1 DIV PUSH1 0xFF AND ISZERO ISZERO ISZERO ISZERO DUP2 MSTORE PUSH1 0x20 ADD PUSH1 0x5 DUP3 ADD PUSH1 0x1 SWAP1 SLOAD SWAP1 PUSH2 0x100 EXP SWAP1 DIV PUSH1 0xFF AND ISZERO ISZERO ISZERO ISZERO DUP2 MSTORE POP POP SWAP1 POP PUSH0 DUP2 PUSH1 0x20 ADD MLOAD GT PUSH2 0x2056 JUMPI PUSH1 0x40 MLOAD PUSH32 0x8C379A000000000000000000000000000000000000000000000000000000000 DUP2 MSTORE PUSH1 0x4 ADD PUSH2 0x204D SWAP1 PUSH2 0x38FD JUMP JUMPDEST PUSH1 0x40 MLOAD DUP1 SWAP2 SUB SWAP1 REVERT JUMPDEST DUP1 PUSH1 0x60 ADD MLOAD SWAP2 POP POP SWAP2 SWAP1 POP JUMP JUMPDEST PUSH0 DUP1 PUSH1 0x5 SLOAD SUB PUSH2 0x2075 JUMPI PUSH0 SWAP1 POP PUSH2 0x20D0 JUMP JUMPDEST PUSH1 0x5 SLOAD PUSH1 0xC SLOAD PUSH1 0x3 PUSH0 DUP6 PUSH20 0xFFFFFFFFFFFFFFFFFFFFFFFFFFFFFFFFFFFFFFFF AND PUSH20 0xFFFFFFFFFFFFFFFFFFFFFFFFFFFFFFFFFFFFFFFF AND DUP2 MSTORE PUSH1 0x20 ADD SWAP1 DUP2 MSTORE PUSH1 0x20 ADD PUSH0 KECCAK256 SLOAD PUSH2 0x20C3 SWAP2 SWAP1 PUSH2 0x3160 JUMP JUMPDEST PUSH2 0x20CD SWAP2 SWAP1 PUSH2 0x3236 JUMP JUMPDEST SWAP1 POP JUMPDEST SWAP2 SWAP1 POP JUMP JUMPDEST PUSH1 0x1 PUSH0 SWAP1 SLOAD SWAP1 PUSH2 0x100 EXP SWAP1 DIV PUSH20 0xFFFFFFFFFFFFFFFFFFFFFFFFFFFFFFFFFFFFFFFF AND PUSH20 0xFFFFFFFFFFFFFFFFFFFFFFFFFFFFFFFFFFFFFFFF AND CALLER PUSH20 0xFFFFFFFFFFFFFFFFFFFFFFFFFFFFFFFFFFFFFFFF AND EQ PUSH2 0x2164 JUMPI PUSH1 0x40 MLOAD PUSH32 0x8C379A000000000000000000000000000000000000000000000000000000000 DUP2 MSTORE PUSH1 0x4 ADD PUSH2 0x215B SWAP1 PUSH2 0x2F64 JUMP JUMPDEST PUSH1 0x40 MLOAD DUP1 SWAP2 SUB SWAP1 REVERT JUMPDEST PUSH0 PUSH1 0xC SLOAD GT PUSH2 0x21A8 JUMPI PUSH1 0x40 MLOAD PUSH32 0x8C379A000000000000000000000000000000000000000000000000000000000 DUP2 MSTORE PUSH1 0x4 ADD PUSH2 0x219F SWAP1 PUSH2 0x3965 JUMP JUMPDEST PUSH1 0x40 MLOAD DUP1 SWAP2 SUB SWAP1 REVERT JUMPDEST PUSH0 DUP1 JUMPDEST PUSH1 0xA DUP1 SLOAD SWAP1 POP DUP2 LT ISZERO PUSH2 0x2320 JUMPI PUSH0 PUSH1 0xA DUP3 DUP2 SLOAD DUP2 LT PUSH2 0x21CD JUMPI PUSH2 0x21CC PUSH2 0x2E9A JUMP JUMPDEST JUMPDEST SWAP1 PUSH0 MSTORE PUSH1 0x20 PUSH0 KECCAK256 ADD PUSH0 SWAP1 SLOAD SWAP1 PUSH2 0x100 EXP SWAP1 DIV PUSH20 0xFFFFFFFFFFFFFFFFFFFFFFFFFFFFFFFFFFFFFFFF AND SWAP1 POP PUSH0 PUSH2 0x2201 DUP3 PUSH2 0x2063 JUMP JUMPDEST SWAP1 POP PUSH0 DUP2 GT ISZERO PUSH2 0x2311 JUMPI DUP1 DUP5 PUSH2 0x2217 SWAP2 SWAP1 PUSH2 0x3106 JUMP JUMPDEST SWAP4 POP PUSH0 DUP3 PUSH20 0xFFFFFFFFFFFFFFFFFFFFFFFFFFFFFFFFFFFFFFFF AND DUP3 PUSH1 0x40 MLOAD PUSH2 0x223E SWAP1 PUSH2 0x2E1E JUMP JUMPDEST PUSH0 PUSH1 0x40 MLOAD DUP1 DUP4 SUB DUP2 DUP6 DUP8 GAS CALL SWAP3 POP POP POP RETURNDATASIZE DUP1 PUSH0 DUP2 EQ PUSH2 0x2278 JUMPI PUSH1 0x40 MLOAD SWAP2 POP PUSH1 0x1F NOT PUSH1 0x3F RETURNDATASIZE ADD AND DUP3 ADD PUSH1 0x40 MSTORE RETURNDATASIZE DUP3 MSTORE RETURNDATASIZE PUSH0 PUSH1 0x20 DUP5 ADD RETURNDATACOPY PUSH2 0x227D JUMP JUMPDEST PUSH1 0x60 SWAP2 POP JUMPDEST POP POP SWAP1 POP DUP1 PUSH2 0x22C1 JUMPI PUSH1 0x40 MLOAD PUSH32 0x8C379A000000000000000000000000000000000000000000000000000000000 DUP2 MSTORE PUSH1 0x4 ADD PUSH2 0x22B8 SWAP1 PUSH2 0x39CD JUMP JUMPDEST PUSH1 0x40 MLOAD DUP1 SWAP2 SUB SWAP1 REVERT JUMPDEST DUP3 PUSH20 0xFFFFFFFFFFFFFFFFFFFFFFFFFFFFFFFFFFFFFFFF AND PUSH32 0x6C461460F28AF1386F23DC4C0C7F4E2E54F0DB320A8EDC08803E4B787F6DB325 DUP4 PUSH1 0x40 MLOAD PUSH2 0x2307 SWAP2 SWAP1 PUSH2 0x29B3 JUMP JUMPDEST PUSH1 0x40 MLOAD DUP1 SWAP2 SUB SWAP1 LOG2 POP JUMPDEST POP POP DUP1 DUP1 PUSH1 0x1 ADD SWAP2 POP POP PUSH2 0x21AB JUMP JUMPDEST POP DUP1 PUSH1 0xC PUSH0 DUP3 DUP3 SLOAD PUSH2 0x2332 SWAP2 SWAP1 PUSH2 0x2DBE JUMP JUMPDEST SWAP3 POP POP DUP2 SWAP1 SSTORE POP POP JUMP JUMPDEST PUSH1 0xB SLOAD DUP2 JUMP JUMPDEST PUSH0 DUP2 GT PUSH2 0x2384 JUMPI PUSH1 0x40 MLOAD PUSH32 0x8C379A000000000000000000000000000000000000000000000000000000000 DUP2 MSTORE PUSH1 0x4 ADD PUSH2 0x237B SWAP1 PUSH2 0x3A5B JUMP JUMPDEST PUSH1 0x40 MLOAD DUP1 SWAP2 SUB SWAP1 REVERT JUMPDEST PUSH1 0x5 SLOAD DUP2 GT ISZERO PUSH2 0x23C9 JUMPI PUSH1 0x40 MLOAD PUSH32 0x8C379A000000000000000000000000000000000000000000000000000000000 DUP2 MSTORE PUSH1 0x4 ADD PUSH2 0x23C0 SWAP1 PUSH2 0x3AC3 JUMP JUMPDEST PUSH1 0x40 MLOAD DUP1 SWAP2 SUB SWAP1 REVERT JUMPDEST PUSH1 0x64 PUSH1 0x96 DUP3 PUSH2 0x23D8 SWAP2 SWAP1 PUSH2 0x3160 JUMP JUMPDEST PUSH2 0x23E2 SWAP2 SWAP1 PUSH2 0x3236 JUMP JUMPDEST CALLVALUE LT ISZERO PUSH2 0x2424 JUMPI PUSH1 0x40 MLOAD PUSH32 0x8C379A000000000000000000000000000000000000000000000000000000000 DUP2 MSTORE PUSH1 0x4 ADD PUSH2 0x241B SWAP1 PUSH2 0x3B51 JUMP JUMPDEST PUSH1 0x40 MLOAD DUP1 SWAP2 SUB SWAP1 REVERT JUMPDEST CALLVALUE PUSH0 DUP1 CALLER PUSH20 0xFFFFFFFFFFFFFFFFFFFFFFFFFFFFFFFFFFFFFFFF AND PUSH20 0xFFFFFFFFFFFFFFFFFFFFFFFFFFFFFFFFFFFFFFFF AND DUP2 MSTORE PUSH1 0x20 ADD SWAP1 DUP2 MSTORE PUSH1 0x20 ADD PUSH0 KECCAK256 DUP2 SWAP1 SSTORE POP DUP1 PUSH1 0x4 PUSH0 CALLER PUSH20 0xFFFFFFFFFFFFFFFFFFFFFFFFFFFFFFFFFFFFFFFF AND PUSH20 0xFFFFFFFFFFFFFFFFFFFFFFFFFFFFFFFFFFFFFFFF AND DUP2 MSTORE PUSH1 0x20 ADD SWAP1 DUP2 MSTORE PUSH1 0x20 ADD PUSH0 KECCAK256 DUP2 SWAP1 SSTORE POP DUP1 PUSH1 0x5 PUSH0 DUP3 DUP3 SLOAD PUSH2 0x24B8 SWAP2 SWAP1 PUSH2 0x2DBE JUMP JUMPDEST SWAP3 POP POP DUP2 SWAP1 SSTORE POP CALLER PUSH20 0xFFFFFFFFFFFFFFFFFFFFFFFFFFFFFFFFFFFFFFFF AND PUSH2 0x8FC DUP3 SWAP1 DUP2 ISZERO MUL SWAP1 PUSH1 0x40 MLOAD PUSH0 PUSH1 0x40 MLOAD DUP1 DUP4 SUB DUP2 DUP6 DUP9 DUP9 CALL SWAP4 POP POP POP POP ISZERO DUP1 ISZERO PUSH2 0x2502 JUMPI RETURNDATASIZE PUSH0 DUP1 RETURNDATACOPY RETURNDATASIZE PUSH0 REVERT JUMPDEST POP CALLER PUSH20 0xFFFFFFFFFFFFFFFFFFFFFFFFFFFFFFFFFFFFFFFF AND PUSH32 0xE1979FE4C35E0CEF342FEF5668E2C8E7A7E9F5D5D1CA8FEE0AC6C427FA4153AF DUP3 CALLVALUE PUSH1 0x40 MLOAD PUSH2 0x254B SWAP3 SWAP2 SWAP1 PUSH2 0x3139 JUMP JUMPDEST PUSH1 0x40 MLOAD DUP1 SWAP2 SUB SWAP1 LOG2 POP JUMP JUMPDEST PUSH0 DUP1 PUSH0 PUSH1 0x3 PUSH0 DUP6 PUSH20 0xFFFFFFFFFFFFFFFFFFFFFFFFFFFFFFFFFFFFFFFF AND PUSH20 0xFFFFFFFFFFFFFFFFFFFFFFFFFFFFFFFFFFFFFFFF AND DUP2 MSTORE PUSH1 0x20 ADD SWAP1 DUP2 MSTORE PUSH1 0x20 ADD PUSH0 KECCAK256 SLOAD PUSH1 0x4 PUSH0 DUP7 PUSH20 0xFFFFFFFFFFFFFFFFFFFFFFFFFFFFFFFFFFFFFFFF AND PUSH20 0xFFFFFFFFFFFFFFFFFFFFFFFFFFFFFFFFFFFFFFFF AND DUP2 MSTORE PUSH1 0x20 ADD SWAP1 DUP2 MSTORE PUSH1 0x20 ADD PUSH0 KECCAK256 SLOAD PUSH0 DUP1 DUP8 PUSH20 0xFFFFFFFFFFFFFFFFFFFFFFFFFFFFFFFFFFFFFFFF AND PUSH20 0xFFFFFFFFFFFFFFFFFFFFFFFFFFFFFFFFFFFFFFFF AND DUP2 MSTORE PUSH1 0x20 ADD SWAP1 DUP2 MSTORE PUSH1 0x20 ADD PUSH0 KECCAK256 SLOAD SWAP3 POP SWAP3 POP SWAP3 POP SWAP2 SWAP4 SWAP1 SWAP3 POP JUMP JUMPDEST PUSH0 CALLVALUE GT PUSH2 0x2661 JUMPI PUSH1 0x40 MLOAD PUSH32 0x8C379A000000000000000000000000000000000000000000000000000000000 DUP2 MSTORE PUSH1 0x4 ADD PUSH2 0x2658 SWAP1 PUSH2 0x3BDF JUMP JUMPDEST PUSH1 0x40 MLOAD DUP1 SWAP2 SUB SWAP1 REVERT JUMPDEST CALLVALUE PUSH1 0x3 PUSH0 CALLER PUSH20 0xFFFFFFFFFFFFFFFFFFFFFFFFFFFFFFFFFFFFFFFF AND PUSH20 0xFFFFFFFFFFFFFFFFFFFFFFFFFFFFFFFFFFFFFFFF AND DUP2 MSTORE PUSH1 0x20 ADD SWAP1 DUP2 MSTORE PUSH1 0x20 ADD PUSH0 KECCAK256 PUSH0 DUP3 DUP3 SLOAD PUSH2 0x26AD SWAP2 SWAP1 PUSH2 0x3106 JUMP JUMPDEST SWAP3 POP POP DUP2 SWAP1 SSTORE POP CALLVALUE PUSH1 0x5 PUSH0 DUP3 DUP3 SLOAD PUSH2 0x26C5 SWAP2 SWAP1 PUSH2 0x3106 JUMP JUMPDEST SWAP3 POP POP DUP2 SWAP1 SSTORE POP CALLER PUSH20 0xFFFFFFFFFFFFFFFFFFFFFFFFFFFFFFFFFFFFFFFF AND PUSH32 0xE1FFFCC4923D04B559F4D29A8BFC6CDA04EB5B0D3C460751C2402C5C5CC9109C CALLVALUE PUSH1 0x40 MLOAD PUSH2 0x2712 SWAP2 SWAP1 PUSH2 0x29B3 JUMP JUMPDEST PUSH1 0x40 MLOAD DUP1 SWAP2 SUB SWAP1 LOG2 PUSH1 0xA CALLER SWAP1 DUP1 PUSH1 0x1 DUP2 SLOAD ADD DUP1 DUP3 SSTORE DUP1 SWAP2 POP POP PUSH1 0x1 SWAP1 SUB SWAP1 PUSH0 MSTORE PUSH1 0x20 PUSH0 KECCAK256 ADD PUSH0 SWAP1 SWAP2 SWAP1 SWAP2 SWAP1 SWAP2 PUSH2 0x100 EXP DUP2 SLOAD DUP2 PUSH20 0xFFFFFFFFFFFFFFFFFFFFFFFFFFFFFFFFFFFFFFFF MUL NOT AND SWAP1 DUP4 PUSH20 0xFFFFFFFFFFFFFFFFFFFFFFFFFFFFFFFFFFFFFFFF AND MUL OR SWAP1 SSTORE POP JUMP JUMPDEST PUSH1 0x9 PUSH1 0x20 MSTORE DUP2 PUSH0 MSTORE PUSH1 0x40 PUSH0 KECCAK256 DUP2 DUP2 SLOAD DUP2 LT PUSH2 0x2795 JUMPI PUSH0 DUP1 REVERT JUMPDEST SWAP1 PUSH0 MSTORE PUSH1 0x20 PUSH0 KECCAK256 ADD PUSH0 SWAP2 POP SWAP2 POP POP SLOAD DUP2 JUMP JUMPDEST PUSH1 0x8 PUSH1 0x20 MSTORE DUP1 PUSH0 MSTORE PUSH1 0x40 PUSH0 KECCAK256 PUSH0 SWAP2 POP SWAP1 POP DUP1 PUSH0 ADD PUSH0 SWAP1 SLOAD SWAP1 PUSH2 0x100 EXP SWAP1 DIV PUSH20 0xFFFFFFFFFFFFFFFFFFFFFFFFFFFFFFFFFFFFFFFF AND SWAP1 DUP1 PUSH1 0x1 ADD SLOAD SWAP1 DUP1 PUSH1 0x2 ADD SLOAD SWAP1 DUP1 PUSH1 0x3 ADD SLOAD SWAP1 DUP1 PUSH1 0x4 ADD SLOAD SWAP1 DUP1 PUSH1 0x5 ADD PUSH0 SWAP1 SLOAD SWAP1 PUSH2 0x100 EXP SWAP1 DIV PUSH1 0xFF AND SWAP1 DUP1 PUSH1 0x5 ADD PUSH1 0x1 SWAP1 SLOAD SWAP1 PUSH2 0x100 EXP SWAP1 DIV PUSH1 0xFF AND SWAP1 POP DUP8 JUMP JUMPDEST PUSH1 0xA DUP2 DUP2 SLOAD DUP2 LT PUSH2 0x282C JUMPI PUSH0 DUP1 REVERT JUMPDEST SWAP1 PUSH0 MSTORE PUSH1 0x20 PUSH0 KECCAK256 ADD PUSH0 SWAP2 POP SLOAD SWAP1 PUSH2 0x100 EXP SWAP1 DIV PUSH20 0xFFFFFFFFFFFFFFFFFFFFFFFFFFFFFFFFFFFFFFFF AND DUP2 JUMP JUMPDEST PUSH0 DUP1 DUP3 GT PUSH2 0x289B JUMPI PUSH1 0x40 MLOAD PUSH32 0x8C379A000000000000000000000000000000000000000000000000000000000 DUP2 MSTORE PUSH1 0x4 ADD PUSH2 0x2892 SWAP1 PUSH2 0x386F JUMP JUMPDEST PUSH1 0x40 MLOAD DUP1 SWAP2 SUB SWAP1 REVERT JUMPDEST PUSH0 PUSH1 0x64 PUSH1 0x2 SLOAD DUP5 PUSH2 0x28AC SWAP2 SWAP1 PUSH2 0x3160 JUMP JUMPDEST PUSH2 0x28B6 SWAP2 SWAP1 PUSH2 0x3236 JUMP JUMPDEST SWAP1 POP DUP1 DUP4 PUSH2 0x28C4 SWAP2 SWAP1 PUSH2 0x3106 JUMP JUMPDEST SWAP2 POP POP SWAP2 SWAP1 POP JUMP JUMPDEST PUSH0 PUSH1 0x20 MSTORE DUP1 PUSH0 MSTORE PUSH1 0x40 PUSH0 KECCAK256 PUSH0 SWAP2 POP SWAP1 POP SLOAD DUP2 JUMP JUMPDEST PUSH1 0x3 PUSH1 0x20 MSTORE DUP1 PUSH0 MSTORE PUSH1 0x40 PUSH0 KECCAK256 PUSH0 SWAP2 POP SWAP1 POP SLOAD DUP2 JUMP JUMPDEST PUSH0 DUP1 PUSH0 JUMPDEST PUSH1 0xA DUP1 SLOAD SWAP1 POP DUP2 LT ISZERO PUSH2 0x298E JUMPI DUP4 PUSH20 0xFFFFFFFFFFFFFFFFFFFFFFFFFFFFFFFFFFFFFFFF AND PUSH1 0xA DUP3 DUP2 SLOAD DUP2 LT PUSH2 0x2931 JUMPI PUSH2 0x2930 PUSH2 0x2E9A JUMP JUMPDEST JUMPDEST SWAP1 PUSH0 MSTORE PUSH1 0x20 PUSH0 KECCAK256 ADD PUSH0 SWAP1 SLOAD SWAP1 PUSH2 0x100 EXP SWAP1 DIV PUSH20 0xFFFFFFFFFFFFFFFFFFFFFFFFFFFFFFFFFFFFFFFF AND PUSH20 0xFFFFFFFFFFFFFFFFFFFFFFFFFFFFFFFFFFFFFFFF AND SUB PUSH2 0x2981 JUMPI PUSH1 0x1 DUP2 SWAP3 POP SWAP3 POP POP PUSH2 0x2996 JUMP JUMPDEST DUP1 DUP1 PUSH1 0x1 ADD SWAP2 POP POP PUSH2 0x28F9 JUMP JUMPDEST POP PUSH0 DUP1 SWAP2 POP SWAP2 POP JUMPDEST SWAP2 POP SWAP2 JUMP JUMPDEST PUSH0 DUP2 SWAP1 POP SWAP2 SWAP1 POP JUMP JUMPDEST PUSH2 0x29AD DUP2 PUSH2 0x299B JUMP JUMPDEST DUP3 MSTORE POP POP JUMP JUMPDEST PUSH0 PUSH1 0x20 DUP3 ADD SWAP1 POP PUSH2 0x29C6 PUSH0 DUP4 ADD DUP5 PUSH2 0x29A4 JUMP JUMPDEST SWAP3 SWAP2 POP POP JUMP JUMPDEST PUSH0 DUP1 REVERT JUMPDEST PUSH2 0x29D9 DUP2 PUSH2 0x299B JUMP JUMPDEST DUP2 EQ PUSH2 0x29E3 JUMPI PUSH0 DUP1 REVERT JUMPDEST POP JUMP JUMPDEST PUSH0 DUP2 CALLDATALOAD SWAP1 POP PUSH2 0x29F4 DUP2 PUSH2 0x29D0 JUMP JUMPDEST SWAP3 SWAP2 POP POP JUMP JUMPDEST PUSH0 PUSH1 0x20 DUP3 DUP5 SUB SLT ISZERO PUSH2 0x2A0F JUMPI PUSH2 0x2A0E PUSH2 0x29CC JUMP JUMPDEST JUMPDEST PUSH0 PUSH2 0x2A1C DUP5 DUP3 DUP6 ADD PUSH2 0x29E6 JUMP JUMPDEST SWAP2 POP POP SWAP3 SWAP2 POP POP JUMP JUMPDEST PUSH0 PUSH20 0xFFFFFFFFFFFFFFFFFFFFFFFFFFFFFFFFFFFFFFFF DUP3 AND SWAP1 POP SWAP2 SWAP1 POP JUMP JUMPDEST PUSH0 PUSH2 0x2A4E DUP3 PUSH2 0x2A25 JUMP JUMPDEST SWAP1 POP SWAP2 SWAP1 POP JUMP JUMPDEST PUSH2 0x2A5E DUP2 PUSH2 0x2A44 JUMP JUMPDEST DUP2 EQ PUSH2 0x2A68 JUMPI PUSH0 DUP1 REVERT JUMPDEST POP JUMP JUMPDEST PUSH0 DUP2 CALLDATALOAD SWAP1 POP PUSH2 0x2A79 DUP2 PUSH2 0x2A55 JUMP JUMPDEST SWAP3 SWAP2 POP POP JUMP JUMPDEST PUSH0 PUSH1 0x20 DUP3 DUP5 SUB SLT ISZERO PUSH2 0x2A94 JUMPI PUSH2 0x2A93 PUSH2 0x29CC JUMP JUMPDEST JUMPDEST PUSH0 PUSH2 0x2AA1 DUP5 DUP3 DUP6 ADD PUSH2 0x2A6B JUMP JUMPDEST SWAP2 POP POP SWAP3 SWAP2 POP POP JUMP JUMPDEST PUSH0 DUP2 ISZERO ISZERO SWAP1 POP SWAP2 SWAP1 POP JUMP JUMPDEST PUSH2 0x2ABE DUP2 PUSH2 0x2AAA JUMP JUMPDEST DUP3 MSTORE POP POP JUMP JUMPDEST PUSH0 PUSH1 0x20 DUP3 ADD SWAP1 POP PUSH2 0x2AD7 PUSH0 DUP4 ADD DUP5 PUSH2 0x2AB5 JUMP JUMPDEST SWAP3 SWAP2 POP POP JUMP JUMPDEST PUSH2 0x2AE6 DUP2 PUSH2 0x2A44 JUMP JUMPDEST DUP3 MSTORE POP POP JUMP JUMPDEST PUSH0 PUSH1 0x20 DUP3 ADD SWAP1 POP PUSH2 0x2AFF PUSH0 DUP4 ADD DUP5 PUSH2 0x2ADD JUMP JUMPDEST SWAP3 SWAP2 POP POP JUMP JUMPDEST PUSH0 DUP1 PUSH1 0x40 DUP4 DUP6 SUB SLT ISZERO PUSH2 0x2B1B JUMPI PUSH2 0x2B1A PUSH2 0x29CC JUMP JUMPDEST JUMPDEST PUSH0 PUSH2 0x2B28 DUP6 DUP3 DUP7 ADD PUSH2 0x29E6 JUMP JUMPDEST SWAP3 POP POP PUSH1 0x20 PUSH2 0x2B39 DUP6 DUP3 DUP7 ADD PUSH2 0x29E6 JUMP JUMPDEST SWAP2 POP POP SWAP3 POP SWAP3 SWAP1 POP JUMP JUMPDEST PUSH0 PUSH1 0x60 DUP3 ADD SWAP1 POP PUSH2 0x2B56 PUSH0 DUP4 ADD DUP7 PUSH2 0x29A4 JUMP JUMPDEST PUSH2 0x2B63 PUSH1 0x20 DUP4 ADD DUP6 PUSH2 0x29A4 JUMP JUMPDEST PUSH2 0x2B70 PUSH1 0x40 DUP4 ADD DUP5 PUSH2 0x29A4 JUMP JUMPDEST SWAP5 SWAP4 POP POP POP POP JUMP JUMPDEST PUSH0 DUP1 PUSH1 0x40 DUP4 DUP6 SUB SLT ISZERO PUSH2 0x2B8E JUMPI PUSH2 0x2B8D PUSH2 0x29CC JUMP JUMPDEST JUMPDEST PUSH0 PUSH2 0x2B9B DUP6 DUP3 DUP7 ADD PUSH2 0x2A6B JUMP JUMPDEST SWAP3 POP POP PUSH1 0x20 PUSH2 0x2BAC DUP6 DUP3 DUP7 ADD PUSH2 0x29E6 JUMP JUMPDEST SWAP2 POP POP SWAP3 POP SWAP3 SWAP1 POP JUMP JUMPDEST PUSH0 PUSH1 0xE0 DUP3 ADD SWAP1 POP PUSH2 0x2BC9 PUSH0 DUP4 ADD DUP11 PUSH2 0x2ADD JUMP JUMPDEST PUSH2 0x2BD6 PUSH1 0x20 DUP4 ADD DUP10 PUSH2 0x29A4 JUMP JUMPDEST PUSH2 0x2BE3 PUSH1 0x40 DUP4 ADD DUP9 PUSH2 0x29A4 JUMP JUMPDEST PUSH2 0x2BF0 PUSH1 0x60 DUP4 ADD DUP8 PUSH2 0x29A4 JUMP JUMPDEST PUSH2 0x2BFD PUSH1 0x80 DUP4 ADD DUP7 PUSH2 0x29A4 JUMP JUMPDEST PUSH2 0x2C0A PUSH1 0xA0 DUP4 ADD DUP6 PUSH2 0x2AB5 JUMP JUMPDEST PUSH2 0x2C17 PUSH1 0xC0 DUP4 ADD DUP5 PUSH2 0x2AB5 JUMP JUMPDEST SWAP9 SWAP8 POP POP POP POP POP POP POP POP JUMP JUMPDEST PUSH0 DUP3 DUP3 MSTORE PUSH1 0x20 DUP3 ADD SWAP1 POP SWAP3 SWAP2 POP POP JUMP JUMPDEST PUSH32 0x596F7520617265206E6F742061206465706F7369746F722E0000000000000000 PUSH0 DUP3 ADD MSTORE POP JUMP JUMPDEST PUSH0 PUSH2 0x2C67 PUSH1 0x18 DUP4 PUSH2 0x2C23 JUMP JUMPDEST SWAP2 POP PUSH2 0x2C72 DUP3 PUSH2 0x2C33 JUMP JUMPDEST PUSH1 0x20 DUP3 ADD SWAP1 POP SWAP2 SWAP1 POP JUMP JUMPDEST PUSH0 PUSH1 0x20 DUP3 ADD SWAP1 POP DUP2 DUP2 SUB PUSH0 DUP4 ADD MSTORE PUSH2 0x2C94 DUP2 PUSH2 0x2C5B JUMP JUMPDEST SWAP1 POP SWAP2 SWAP1 POP JUMP JUMPDEST PUSH32 0x596F7520646F6E277420686176652074686973206D75636820616D6F756E7420 PUSH0 DUP3 ADD MSTORE PUSH32 0x6F66206465706F73697420746F20776974686472617700000000000000000000 PUSH1 0x20 DUP3 ADD MSTORE POP JUMP JUMPDEST PUSH0 PUSH2 0x2CF5 PUSH1 0x36 DUP4 PUSH2 0x2C23 JUMP JUMPDEST SWAP2 POP PUSH2 0x2D00 DUP3 PUSH2 0x2C9B JUMP JUMPDEST PUSH1 0x40 DUP3 ADD SWAP1 POP SWAP2 SWAP1 POP JUMP JUMPDEST PUSH0 PUSH1 0x20 DUP3 ADD SWAP1 POP DUP2 DUP2 SUB PUSH0 DUP4 ADD MSTORE PUSH2 0x2D22 DUP2 PUSH2 0x2CE9 JUMP JUMPDEST SWAP1 POP SWAP2 SWAP1 POP JUMP JUMPDEST PUSH32 0x4E6F7420656E6F756768206C697175696469747920696E20706F6F6C00000000 PUSH0 DUP3 ADD MSTORE POP JUMP JUMPDEST PUSH0 PUSH2 0x2D5D PUSH1 0x1C DUP4 PUSH2 0x2C23 JUMP JUMPDEST SWAP2 POP PUSH2 0x2D68 DUP3 PUSH2 0x2D29 JUMP JUMPDEST PUSH1 0x20 DUP3 ADD SWAP1 POP SWAP2 SWAP1 POP JUMP JUMPDEST PUSH0 PUSH1 0x20 DUP3 ADD SWAP1 POP DUP2 DUP2 SUB PUSH0 DUP4 ADD MSTORE PUSH2 0x2D8A DUP2 PUSH2 0x2D51 JUMP JUMPDEST SWAP1 POP SWAP2 SWAP1 POP JUMP JUMPDEST PUSH32 0x4E487B7100000000000000000000000000000000000000000000000000000000 PUSH0 MSTORE PUSH1 0x11 PUSH1 0x4 MSTORE PUSH1 0x24 PUSH0 REVERT JUMPDEST PUSH0 PUSH2 0x2DC8 DUP3 PUSH2 0x299B JUMP JUMPDEST SWAP2 POP PUSH2 0x2DD3 DUP4 PUSH2 0x299B JUMP JUMPDEST SWAP3 POP DUP3 DUP3 SUB SWAP1 POP DUP2 DUP2 GT ISZERO PUSH2 0x2DEB JUMPI PUSH2 0x2DEA PUSH2 0x2D91 JUMP JUMPDEST JUMPDEST SWAP3 SWAP2 POP POP JUMP JUMPDEST PUSH0 DUP2 SWAP1 POP SWAP3 SWAP2 POP POP JUMP JUMPDEST POP JUMP JUMPDEST PUSH0 PUSH2 0x2E09 PUSH0 DUP4 PUSH2 0x2DF1 JUMP JUMPDEST SWAP2 POP PUSH2 0x2E14 DUP3 PUSH2 0x2DFB JUMP JUMPDEST PUSH0 DUP3 ADD SWAP1 POP SWAP2 SWAP1 POP JUMP JUMPDEST PUSH0 PUSH2 0x2E28 DUP3 PUSH2 0x2DFE JUMP JUMPDEST SWAP2 POP DUP2 SWAP1 POP SWAP2 SWAP1 POP JUMP JUMPDEST PUSH32 0x5769746864726177616C207472616E73666572206661696C6564000000000000 PUSH0 DUP3 ADD MSTORE POP JUMP JUMPDEST PUSH0 PUSH2 0x2E66 PUSH1 0x1A DUP4 PUSH2 0x2C23 JUMP JUMPDEST SWAP2 POP PUSH2 0x2E71 DUP3 PUSH2 0x2E32 JUMP JUMPDEST PUSH1 0x20 DUP3 ADD SWAP1 POP SWAP2 SWAP1 POP JUMP JUMPDEST PUSH0 PUSH1 0x20 DUP3 ADD SWAP1 POP DUP2 DUP2 SUB PUSH0 DUP4 ADD MSTORE PUSH2 0x2E93 DUP2 PUSH2 0x2E5A JUMP JUMPDEST SWAP1 POP SWAP2 SWAP1 POP JUMP JUMPDEST PUSH32 0x4E487B7100000000000000000000000000000000000000000000000000000000 PUSH0 MSTORE PUSH1 0x32 PUSH1 0x4 MSTORE PUSH1 0x24 PUSH0 REVERT JUMPDEST PUSH32 0x4E487B7100000000000000000000000000000000000000000000000000000000 PUSH0 MSTORE PUSH1 0x31 PUSH1 0x4 MSTORE PUSH1 0x24 PUSH0 REVERT JUMPDEST PUSH32 0x4F6E6C7920746865206F776E65722063616E20706572666F726D207468697320 PUSH0 DUP3 ADD MSTORE PUSH32 0x616374696F6E0000000000000000000000000000000000000000000000000000 PUSH1 0x20 DUP3 ADD MSTORE POP JUMP JUMPDEST PUSH0 PUSH2 0x2F4E PUSH1 0x26 DUP4 PUSH2 0x2C23 JUMP JUMPDEST SWAP2 POP PUSH2 0x2F59 DUP3 PUSH2 0x2EF4 JUMP JUMPDEST PUSH1 0x40 DUP3 ADD SWAP1 POP SWAP2 SWAP1 POP JUMP JUMPDEST PUSH0 PUSH1 0x20 DUP3 ADD SWAP1 POP DUP2 DUP2 SUB PUSH0 DUP4 ADD MSTORE PUSH2 0x2F7B DUP2 PUSH2 0x2F42 JUMP JUMPDEST SWAP1 POP SWAP2 SWAP1 POP JUMP JUMPDEST PUSH32 0x4E6F20616374697665206C6F616E7320666F72207468697320626F72726F7765 PUSH0 DUP3 ADD MSTORE PUSH32 0x7200000000000000000000000000000000000000000000000000000000000000 PUSH1 0x20 DUP3 ADD MSTORE POP JUMP JUMPDEST PUSH0 PUSH2 0x2FDC PUSH1 0x21 DUP4 PUSH2 0x2C23 JUMP JUMPDEST SWAP2 POP PUSH2 0x2FE7 DUP3 PUSH2 0x2F82 JUMP JUMPDEST PUSH1 0x40 DUP3 ADD SWAP1 POP SWAP2 SWAP1 POP JUMP JUMPDEST PUSH0 PUSH1 0x20 DUP3 ADD SWAP1 POP DUP2 DUP2 SUB PUSH0 DUP4 ADD MSTORE PUSH2 0x3009 DUP2 PUSH2 0x2FD0 JUMP JUMPDEST SWAP1 POP SWAP2 SWAP1 POP JUMP JUMPDEST PUSH32 0x4E6F20636F6C6C61746572616C20746F207365697A6500000000000000000000 PUSH0 DUP3 ADD MSTORE POP JUMP JUMPDEST PUSH0 PUSH2 0x3044 PUSH1 0x16 DUP4 PUSH2 0x2C23 JUMP JUMPDEST SWAP2 POP PUSH2 0x304F DUP3 PUSH2 0x3010 JUMP JUMPDEST PUSH1 0x20 DUP3 ADD SWAP1 POP SWAP2 SWAP1 POP JUMP JUMPDEST PUSH0 PUSH1 0x20 DUP3 ADD SWAP1 POP DUP2 DUP2 SUB PUSH0 DUP4 ADD MSTORE PUSH2 0x3071 DUP2 PUSH2 0x3038 JUMP JUMPDEST SWAP1 POP SWAP2 SWAP1 POP JUMP JUMPDEST PUSH32 0x4661696C656420746F207472616E7366657220636F6C6C61746572616C20746F PUSH0 DUP3 ADD MSTORE PUSH32 0x206F776E65720000000000000000000000000000000000000000000000000000 PUSH1 0x20 DUP3 ADD MSTORE POP JUMP JUMPDEST PUSH0 PUSH2 0x30D2 PUSH1 0x26 DUP4 PUSH2 0x2C23 JUMP JUMPDEST SWAP2 POP PUSH2 0x30DD DUP3 PUSH2 0x3078 JUMP JUMPDEST PUSH1 0x40 DUP3 ADD SWAP1 POP SWAP2 SWAP1 POP JUMP JUMPDEST PUSH0 PUSH1 0x20 DUP3 ADD SWAP1 POP DUP2 DUP2 SUB PUSH0 DUP4 ADD MSTORE PUSH2 0x30FF DUP2 PUSH2 0x30C6 JUMP JUMPDEST SWAP1 POP SWAP2 SWAP1 POP JUMP JUMPDEST PUSH0 PUSH2 0x3110 DUP3 PUSH2 0x299B JUMP JUMPDEST SWAP2 POP PUSH2 0x311B DUP4 PUSH2 0x299B JUMP JUMPDEST SWAP3 POP DUP3 DUP3 ADD SWAP1 POP DUP1 DUP3 GT ISZERO PUSH2 0x3133 JUMPI PUSH2 0x3132 PUSH2 0x2D91 JUMP JUMPDEST JUMPDEST SWAP3 SWAP2 POP POP JUMP JUMPDEST PUSH0 PUSH1 0x40 DUP3 ADD SWAP1 POP PUSH2 0x314C PUSH0 DUP4 ADD DUP6 PUSH2 0x29A4 JUMP JUMPDEST PUSH2 0x3159 PUSH1 0x20 DUP4 ADD DUP5 PUSH2 0x29A4 JUMP JUMPDEST SWAP4 SWAP3 POP POP POP JUMP JUMPDEST PUSH0 PUSH2 0x316A DUP3 PUSH2 0x299B JUMP JUMPDEST SWAP2 POP PUSH2 0x3175 DUP4 PUSH2 0x299B JUMP JUMPDEST SWAP3 POP DUP3 DUP3 MUL PUSH2 0x3183 DUP2 PUSH2 0x299B JUMP JUMPDEST SWAP2 POP DUP3 DUP3 DIV DUP5 EQ DUP4 ISZERO OR PUSH2 0x319A JUMPI PUSH2 0x3199 PUSH2 0x2D91 JUMP JUMPDEST JUMPDEST POP SWAP3 SWAP2 POP POP JUMP JUMPDEST PUSH32 0x596F752068617665206E6F206F75747374616E64696E67206C6F616E73000000 PUSH0 DUP3 ADD MSTORE POP JUMP JUMPDEST PUSH0 PUSH2 0x31D5 PUSH1 0x1D DUP4 PUSH2 0x2C23 JUMP JUMPDEST SWAP2 POP PUSH2 0x31E0 DUP3 PUSH2 0x31A1 JUMP JUMPDEST PUSH1 0x20 DUP3 ADD SWAP1 POP SWAP2 SWAP1 POP JUMP JUMPDEST PUSH0 PUSH1 0x20 DUP3 ADD SWAP1 POP DUP2 DUP2 SUB PUSH0 DUP4 ADD MSTORE PUSH2 0x3202 DUP2 PUSH2 0x31C9 JUMP JUMPDEST SWAP1 POP SWAP2 SWAP1 POP JUMP JUMPDEST PUSH32 0x4E487B7100000000000000000000000000000000000000000000000000000000 PUSH0 MSTORE PUSH1 0x12 PUSH1 0x4 MSTORE PUSH1 0x24 PUSH0 REVERT JUMPDEST PUSH0 PUSH2 0x3240 DUP3 PUSH2 0x299B JUMP JUMPDEST SWAP2 POP PUSH2 0x324B DUP4 PUSH2 0x299B JUMP JUMPDEST SWAP3 POP DUP3 PUSH2 0x325B JUMPI PUSH2 0x325A PUSH2 0x3209 JUMP JUMPDEST JUMPDEST DUP3 DUP3 DIV SWAP1 POP SWAP3 SWAP2 POP POP JUMP JUMPDEST PUSH32 0x496E636C75646520696E74657265737420696E207468652072657061796D656E PUSH0 DUP3 ADD MSTORE PUSH32 0x7400000000000000000000000000000000000000000000000000000000000000 PUSH1 0x20 DUP3 ADD MSTORE POP JUMP JUMPDEST PUSH0 PUSH2 0x32C0 PUSH1 0x21 DUP4 PUSH2 0x2C23 JUMP JUMPDEST SWAP2 POP PUSH2 0x32CB DUP3 PUSH2 0x3266 JUMP JUMPDEST PUSH1 0x40 DUP3 ADD SWAP1 POP SWAP2 SWAP1 POP JUMP JUMPDEST PUSH0 PUSH1 0x20 DUP3 ADD SWAP1 POP DUP2 DUP2 SUB PUSH0 DUP4 ADD MSTORE PUSH2 0x32ED DUP2 PUSH2 0x32B4 JUMP JUMPDEST SWAP1 POP SWAP2 SWAP1 POP JUMP JUMPDEST PUSH32 0x4E6F20636F6C6C61746572616C20746F2072657475726E000000000000000000 PUSH0 DUP3 ADD MSTORE POP JUMP JUMPDEST PUSH0 PUSH2 0x3328 PUSH1 0x17 DUP4 PUSH2 0x2C23 JUMP JUMPDEST SWAP2 POP PUSH2 0x3333 DUP3 PUSH2 0x32F4 JUMP JUMPDEST PUSH1 0x20 DUP3 ADD SWAP1 POP SWAP2 SWAP1 POP JUMP JUMPDEST PUSH0 PUSH1 0x20 DUP3 ADD SWAP1 POP DUP2 DUP2 SUB PUSH0 DUP4 ADD MSTORE PUSH2 0x3355 DUP2 PUSH2 0x331C JUMP JUMPDEST SWAP1 POP SWAP2 SWAP1 POP JUMP JUMPDEST PUSH32 0x4661696C656420746F2072657475726E20636F6C6C61746572616C0000000000 PUSH0 DUP3 ADD MSTORE POP JUMP JUMPDEST PUSH0 PUSH2 0x3390 PUSH1 0x1B DUP4 PUSH2 0x2C23 JUMP JUMPDEST SWAP2 POP PUSH2 0x339B DUP3 PUSH2 0x335C JUMP JUMPDEST PUSH1 0x20 DUP3 ADD SWAP1 POP SWAP2 SWAP1 POP JUMP JUMPDEST PUSH0 PUSH1 0x20 DUP3 ADD SWAP1 POP DUP2 DUP2 SUB PUSH0 DUP4 ADD MSTORE PUSH2 0x33BD DUP2 PUSH2 0x3384 JUMP JUMPDEST SWAP1 POP SWAP2 SWAP1 POP JUMP JUMPDEST PUSH32 0x4E6F742061206465706F7369746F722E00000000000000000000000000000000 PUSH0 DUP3 ADD MSTORE POP JUMP JUMPDEST PUSH0 PUSH2 0x33F8 PUSH1 0x10 DUP4 PUSH2 0x2C23 JUMP JUMPDEST SWAP2 POP PUSH2 0x3403 DUP3 PUSH2 0x33C4 JUMP JUMPDEST PUSH1 0x20 DUP3 ADD SWAP1 POP SWAP2 SWAP1 POP JUMP JUMPDEST PUSH0 PUSH1 0x20 DUP3 ADD SWAP1 POP DUP2 DUP2 SUB PUSH0 DUP4 ADD MSTORE PUSH2 0x3425 DUP2 PUSH2 0x33EC JUMP JUMPDEST SWAP1 POP SWAP2 SWAP1 POP JUMP JUMPDEST PUSH0 PUSH2 0x3436 DUP3 PUSH2 0x299B JUMP JUMPDEST SWAP2 POP PUSH32 0xFFFFFFFFFFFFFFFFFFFFFFFFFFFFFFFFFFFFFFFFFFFFFFFFFFFFFFFFFFFFFFFF DUP3 SUB PUSH2 0x3468 JUMPI PUSH2 0x3467 PUSH2 0x2D91 JUMP JUMPDEST JUMPDEST PUSH1 0x1 DUP3 ADD SWAP1 POP SWAP2 SWAP1 POP JUMP JUMPDEST PUSH32 0x4C6F616E20616D6F756E74206D7573742062652067726561746572207468616E PUSH0 DUP3 ADD MSTORE PUSH32 0x2030000000000000000000000000000000000000000000000000000000000000 PUSH1 0x20 DUP3 ADD MSTORE POP JUMP JUMPDEST PUSH0 PUSH2 0x34CD PUSH1 0x22 DUP4 PUSH2 0x2C23 JUMP JUMPDEST SWAP2 POP PUSH2 0x34D8 DUP3 PUSH2 0x3473 JUMP JUMPDEST PUSH1 0x40 DUP3 ADD SWAP1 POP SWAP2 SWAP1 POP JUMP JUMPDEST PUSH0 PUSH1 0x20 DUP3 ADD SWAP1 POP DUP2 DUP2 SUB PUSH0 DUP4 ADD MSTORE PUSH2 0x34FA DUP2 PUSH2 0x34C1 JUMP JUMPDEST SWAP1 POP SWAP2 SWAP1 POP JUMP JUMPDEST PUSH32 0x436F6C6C61746572616C206D7573742062652031353025206F66206C6F616E20 PUSH0 DUP3 ADD MSTORE PUSH32 0x616D6F756E740000000000000000000000000000000000000000000000000000 PUSH1 0x20 DUP3 ADD MSTORE POP JUMP JUMPDEST PUSH0 PUSH2 0x355B PUSH1 0x26 DUP4 PUSH2 0x2C23 JUMP JUMPDEST SWAP2 POP PUSH2 0x3566 DUP3 PUSH2 0x3501 JUMP JUMPDEST PUSH1 0x40 DUP3 ADD SWAP1 POP SWAP2 SWAP1 POP JUMP JUMPDEST PUSH0 PUSH1 0x20 DUP3 ADD SWAP1 POP DUP2 DUP2 SUB PUSH0 DUP4 ADD MSTORE PUSH2 0x3588 DUP2 PUSH2 0x354F JUMP JUMPDEST SWAP1 POP SWAP2 SWAP1 POP JUMP JUMPDEST PUSH32 0x4C6F616E207472616E73666572206661696C6564000000000000000000000000 PUSH0 DUP3 ADD MSTORE POP JUMP JUMPDEST PUSH0 PUSH2 0x35C3 PUSH1 0x14 DUP4 PUSH2 0x2C23 JUMP JUMPDEST SWAP2 POP PUSH2 0x35CE DUP3 PUSH2 0x358F JUMP JUMPDEST PUSH1 0x20 DUP3 ADD SWAP1 POP SWAP2 SWAP1 POP JUMP JUMPDEST PUSH0 PUSH1 0x20 DUP3 ADD SWAP1 POP DUP2 DUP2 SUB PUSH0 DUP4 ADD MSTORE PUSH2 0x35F0 DUP2 PUSH2 0x35B7 JUMP JUMPDEST SWAP1 POP SWAP2 SWAP1 POP JUMP JUMPDEST PUSH32 0x4E6F206C697175696469747920746F2061636372756520696E74657265737420 PUSH0 DUP3 ADD MSTORE PUSH32 0x6F6E000000000000000000000000000000000000000000000000000000000000 PUSH1 0x20 DUP3 ADD MSTORE POP JUMP JUMPDEST PUSH0 PUSH2 0x3651 PUSH1 0x22 DUP4 PUSH2 0x2C23 JUMP JUMPDEST SWAP2 POP PUSH2 0x365C DUP3 PUSH2 0x35F7 JUMP JUMPDEST PUSH1 0x40 DUP3 ADD SWAP1 POP SWAP2 SWAP1 POP JUMP JUMPDEST PUSH0 PUSH1 0x20 DUP3 ADD SWAP1 POP DUP2 DUP2 SUB PUSH0 DUP4 ADD MSTORE PUSH2 0x367E DUP2 PUSH2 0x3645 JUMP JUMPDEST SWAP1 POP SWAP2 SWAP1 POP JUMP JUMPDEST PUSH32 0x4E6F7420796F7572206C6F616E00000000000000000000000000000000000000 PUSH0 DUP3 ADD MSTORE POP JUMP JUMPDEST PUSH0 PUSH2 0x36B9 PUSH1 0xD DUP4 PUSH2 0x2C23 JUMP JUMPDEST SWAP2 POP PUSH2 0x36C4 DUP3 PUSH2 0x3685 JUMP JUMPDEST PUSH1 0x20 DUP3 ADD SWAP1 POP SWAP2 SWAP1 POP JUMP JUMPDEST PUSH0 PUSH1 0x20 DUP3 ADD SWAP1 POP DUP2 DUP2 SUB PUSH0 DUP4 ADD MSTORE PUSH2 0x36E6 DUP2 PUSH2 0x36AD JUMP JUMPDEST SWAP1 POP SWAP2 SWAP1 POP JUMP JUMPDEST PUSH32 0x4C6F616E206973206E6F74206163746976650000000000000000000000000000 PUSH0 DUP3 ADD MSTORE POP JUMP JUMPDEST PUSH0 PUSH2 0x3721 PUSH1 0x12 DUP4 PUSH2 0x2C23 JUMP JUMPDEST SWAP2 POP PUSH2 0x372C DUP3 PUSH2 0x36ED JUMP JUMPDEST PUSH1 0x20 DUP3 ADD SWAP1 POP SWAP2 SWAP1 POP JUMP JUMPDEST PUSH0 PUSH1 0x20 DUP3 ADD SWAP1 POP DUP2 DUP2 SUB PUSH0 DUP4 ADD MSTORE PUSH2 0x374E DUP2 PUSH2 0x3715 JUMP JUMPDEST SWAP1 POP SWAP2 SWAP1 POP JUMP JUMPDEST PUSH32 0x4C6F616E20616C72656164792072657061696400000000000000000000000000 PUSH0 DUP3 ADD MSTORE POP JUMP JUMPDEST PUSH0 PUSH2 0x3789 PUSH1 0x13 DUP4 PUSH2 0x2C23 JUMP JUMPDEST SWAP2 POP PUSH2 0x3794 DUP3 PUSH2 0x3755 JUMP JUMPDEST PUSH1 0x20 DUP3 ADD SWAP1 POP SWAP2 SWAP1 POP JUMP JUMPDEST PUSH0 PUSH1 0x20 DUP3 ADD SWAP1 POP DUP2 DUP2 SUB PUSH0 DUP4 ADD MSTORE PUSH2 0x37B6 DUP2 PUSH2 0x377D JUMP JUMPDEST SWAP1 POP SWAP2 SWAP1 POP JUMP JUMPDEST PUSH32 0x496E73756666696369656E742072657061796D656E7420616D6F756E74000000 PUSH0 DUP3 ADD MSTORE POP JUMP JUMPDEST PUSH0 PUSH2 0x37F1 PUSH1 0x1D DUP4 PUSH2 0x2C23 JUMP JUMPDEST SWAP2 POP PUSH2 0x37FC DUP3 PUSH2 0x37BD JUMP JUMPDEST PUSH1 0x20 DUP3 ADD SWAP1 POP SWAP2 SWAP1 POP JUMP JUMPDEST PUSH0 PUSH1 0x20 DUP3 ADD SWAP1 POP DUP2 DUP2 SUB PUSH0 DUP4 ADD MSTORE PUSH2 0x381E DUP2 PUSH2 0x37E5 JUMP JUMPDEST SWAP1 POP SWAP2 SWAP1 POP JUMP JUMPDEST PUSH32 0x4C6F616E20616D6F756E74206D757374206265203E2030000000000000000000 PUSH0 DUP3 ADD MSTORE POP JUMP JUMPDEST PUSH0 PUSH2 0x3859 PUSH1 0x17 DUP4 PUSH2 0x2C23 JUMP JUMPDEST SWAP2 POP PUSH2 0x3864 DUP3 PUSH2 0x3825 JUMP JUMPDEST PUSH1 0x20 DUP3 ADD SWAP1 POP SWAP2 SWAP1 POP JUMP JUMPDEST PUSH0 PUSH1 0x20 DUP3 ADD SWAP1 POP DUP2 DUP2 SUB PUSH0 DUP4 ADD MSTORE PUSH2 0x3886 DUP2 PUSH2 0x384D JUMP JUMPDEST SWAP1 POP SWAP2 SWAP1 POP JUMP JUMPDEST PUSH32 0x4C6F616E20646F6573206E6F74206578697374206F7220686173206E6F20616D PUSH0 DUP3 ADD MSTORE PUSH32 0x6F756E7400000000000000000000000000000000000000000000000000000000 PUSH1 0x20 DUP3 ADD MSTORE POP JUMP JUMPDEST PUSH0 PUSH2 0x38E7 PUSH1 0x24 DUP4 PUSH2 0x2C23 JUMP JUMPDEST SWAP2 POP PUSH2 0x38F2 DUP3 PUSH2 0x388D JUMP JUMPDEST PUSH1 0x40 DUP3 ADD SWAP1 POP SWAP2 SWAP1 POP JUMP JUMPDEST PUSH0 PUSH1 0x20 DUP3 ADD SWAP1 POP DUP2 DUP2 SUB PUSH0 DUP4 ADD MSTORE PUSH2 0x3914 DUP2 PUSH2 0x38DB JUMP JUMPDEST SWAP1 POP SWAP2 SWAP1 POP JUMP JUMPDEST PUSH32 0x4E6F206665657320746F20646973747269627574650000000000000000000000 PUSH0 DUP3 ADD MSTORE POP JUMP JUMPDEST PUSH0 PUSH2 0x394F PUSH1 0x15 DUP4 PUSH2 0x2C23 JUMP JUMPDEST SWAP2 POP PUSH2 0x395A DUP3 PUSH2 0x391B JUMP JUMPDEST PUSH1 0x20 DUP3 ADD SWAP1 POP SWAP2 SWAP1 POP JUMP JUMPDEST PUSH0 PUSH1 0x20 DUP3 ADD SWAP1 POP DUP2 DUP2 SUB PUSH0 DUP4 ADD MSTORE PUSH2 0x397C DUP2 PUSH2 0x3943 JUMP JUMPDEST SWAP1 POP SWAP2 SWAP1 POP JUMP JUMPDEST PUSH32 0x46656520646973747269627574696F6E206661696C6564000000000000000000 PUSH0 DUP3 ADD MSTORE POP JUMP JUMPDEST PUSH0 PUSH2 0x39B7 PUSH1 0x17 DUP4 PUSH2 0x2C23 JUMP JUMPDEST SWAP2 POP PUSH2 0x39C2 DUP3 PUSH2 0x3983 JUMP JUMPDEST PUSH1 0x20 DUP3 ADD SWAP1 POP SWAP2 SWAP1 POP JUMP JUMPDEST PUSH0 PUSH1 0x20 DUP3 ADD SWAP1 POP DUP2 DUP2 SUB PUSH0 DUP4 ADD MSTORE PUSH2 0x39E4 DUP2 PUSH2 0x39AB JUMP JUMPDEST SWAP1 POP SWAP2 SWAP1 POP JUMP JUMPDEST PUSH32 0x426F72726F7720616D6F756E74206D7573742062652067726561746572207468 PUSH0 DUP3 ADD MSTORE PUSH32 0x616E203000000000000000000000000000000000000000000000000000000000 PUSH1 0x20 DUP3 ADD MSTORE POP JUMP JUMPDEST PUSH0 PUSH2 0x3A45 PUSH1 0x24 DUP4 PUSH2 0x2C23 JUMP JUMPDEST SWAP2 POP PUSH2 0x3A50 DUP3 PUSH2 0x39EB JUMP JUMPDEST PUSH1 0x40 DUP3 ADD SWAP1 POP SWAP2 SWAP1 POP JUMP JUMPDEST PUSH0 PUSH1 0x20 DUP3 ADD SWAP1 POP DUP2 DUP2 SUB PUSH0 DUP4 ADD MSTORE PUSH2 0x3A72 DUP2 PUSH2 0x3A39 JUMP JUMPDEST SWAP1 POP SWAP2 SWAP1 POP JUMP JUMPDEST PUSH32 0x4E6F7420656E6F756768206C697175696469747920696E2074686520706F6F6C PUSH0 DUP3 ADD MSTORE POP JUMP JUMPDEST PUSH0 PUSH2 0x3AAD PUSH1 0x20 DUP4 PUSH2 0x2C23 JUMP JUMPDEST SWAP2 POP PUSH2 0x3AB8 DUP3 PUSH2 0x3A79 JUMP JUMPDEST PUSH1 0x20 DUP3 ADD SWAP1 POP SWAP2 SWAP1 POP JUMP JUMPDEST PUSH0 PUSH1 0x20 DUP3 ADD SWAP1 POP DUP2 DUP2 SUB PUSH0 DUP4 ADD MSTORE PUSH2 0x3ADA DUP2 PUSH2 0x3AA1 JUMP JUMPDEST SWAP1 POP SWAP2 SWAP1 POP JUMP JUMPDEST PUSH32 0x436F6C6C61746572616C206D7573742062652031353025206F6620746865206C PUSH0 DUP3 ADD MSTORE PUSH32 0x6F616E20616D6F756E7400000000000000000000000000000000000000000000 PUSH1 0x20 DUP3 ADD MSTORE POP JUMP JUMPDEST PUSH0 PUSH2 0x3B3B PUSH1 0x2A DUP4 PUSH2 0x2C23 JUMP JUMPDEST SWAP2 POP PUSH2 0x3B46 DUP3 PUSH2 0x3AE1 JUMP JUMPDEST PUSH1 0x40 DUP3 ADD SWAP1 POP SWAP2 SWAP1 POP JUMP JUMPDEST PUSH0 PUSH1 0x20 DUP3 ADD SWAP1 POP DUP2 DUP2 SUB PUSH0 DUP4 ADD MSTORE PUSH2 0x3B68 DUP2 PUSH2 0x3B2F JUMP JUMPDEST SWAP1 POP SWAP2 SWAP1 POP JUMP JUMPDEST PUSH32 0x4465706F73697420616D6F756E74206D75737420626520677265617465722074 PUSH0 DUP3 ADD MSTORE PUSH32 0x68616E2030000000000000000000000000000000000000000000000000000000 PUSH1 0x20 DUP3 ADD MSTORE POP JUMP JUMPDEST PUSH0 PUSH2 0x3BC9 PUSH1 0x25 DUP4 PUSH2 0x2C23 JUMP JUMPDEST SWAP2 POP PUSH2 0x3BD4 DUP3 PUSH2 0x3B6F JUMP JUMPDEST PUSH1 0x40 DUP3 ADD SWAP1 POP SWAP2 SWAP1 POP JUMP JUMPDEST PUSH0 PUSH1 0x20 DUP3 ADD SWAP1 POP DUP2 DUP2 SUB PUSH0 DUP4 ADD MSTORE PUSH2 0x3BF6 DUP2 PUSH2 0x3BBD JUMP JUMPDEST SWAP1 POP SWAP2 SWAP1 POP JUMP INVALID LOG2 PUSH5 0x6970667358 0x22 SLT KECCAK256 0x4C SWAP6 0xEC PUSH0 0x26 0xC8 PUSH13 0xEC953517916D8FE9BDB22B200 0xBE PUSH31 0x2152A37B8B7858DB4F7464736F6C634300081A003300000000000000000000 "
				},
				"gasEstimates": {
					"creation": {
						"codeDepositCost": "3082200",
						"executionCost": "infinite",
						"totalCost": "infinite"
					},
					"external": {
						"accrueInterest()": "infinite",
						"accruedReward()": "2470",
						"borrow(uint256)": "infinite",
						"borrowings(address)": "2913",
						"calculateFeeShare(address)": "infinite",
						"calculateRepaymentAmount(uint256)": "infinite",
						"collaterals(address)": "2911",
						"contractFeeFromRepayment()": "371",
						"deposit()": "infinite",
						"depositors(uint256)": "5010",
						"deposits(address)": "2934",
						"distributeFees()": "infinite",
						"getBalances(address)": "infinite",
						"getCollateral(address)": "2962",
						"getContractBalance()": "424",
						"getLiquidityPool()": "2521",
						"getLiquidityPoolWithLoan()": "infinite",
						"getUserAccruedFees(address)": "infinite",
						"getUserBalance(address)": "infinite",
						"interestRate()": "2537",
						"isDepositor(address)": "infinite",
						"lastAccrualTimestamp()": "2536",
						"liquidate(address)": "infinite",
						"loanCounter()": "2471",
						"loans(uint256)": "infinite",
						"owner()": "2575",
						"repay()": "infinite",
						"repayLoan(uint256)": "infinite",
						"requiredCollateral(uint256)": "infinite",
						"requiredRepaymentAmount(uint256)": "infinite",
						"takeLoan(uint256,uint256)": "infinite",
						"totalLiquidity()": "2472",
						"userLoans(address,uint256)": "infinite",
						"withdraw(uint256)": "infinite"
					},
					"internal": {
						"findDepositorIndex(address)": "infinite"
					}
				},
				"methodIdentifiers": {
					"accrueInterest()": "a6afed95",
					"accruedReward()": "8393ea5f",
					"borrow(uint256)": "c5ebeaec",
					"borrowings(address)": "96f159ba",
					"calculateFeeShare(address)": "b3f54444",
					"calculateRepaymentAmount(uint256)": "b1197239",
					"collaterals(address)": "eeb97d3b",
					"contractFeeFromRepayment()": "4ba5e2ce",
					"deposit()": "d0e30db0",
					"depositors(uint256)": "e4b2fb79",
					"deposits(address)": "fc7e286d",
					"distributeFees()": "bb57ad20",
					"getBalances(address)": "c84aae17",
					"getCollateral(address)": "9b56d6c9",
					"getContractBalance()": "6f9fb98a",
					"getLiquidityPool()": "95ddbe89",
					"getLiquidityPoolWithLoan()": "560c88ed",
					"getUserAccruedFees(address)": "34f93778",
					"getUserBalance(address)": "47734892",
					"interestRate()": "7c3a00fd",
					"isDepositor(address)": "2f70d1ba",
					"lastAccrualTimestamp()": "c0789dcb",
					"liquidate(address)": "2f865568",
					"loanCounter()": "34d9289e",
					"loans(uint256)": "e1ec3c68",
					"owner()": "8da5cb5b",
					"repay()": "402d8883",
					"repayLoan(uint256)": "ab7b1c89",
					"requiredCollateral(uint256)": "abb7bc4a",
					"requiredRepaymentAmount(uint256)": "e59c20d0",
					"takeLoan(uint256,uint256)": "a3183125",
					"totalLiquidity()": "15770f92",
					"userLoans(address,uint256)": "d8bad5bd",
					"withdraw(uint256)": "2e1a7d4d"
				}
			},
			"storageLayout": {
				"storage": [
					{
						"astId": 5,
						"contract": "w9_liquidity_lending_pool_hw.sol:cw9_3_MockLendingPool",
						"label": "collaterals",
						"offset": 0,
						"slot": "0",
						"type": "t_mapping(t_address,t_uint256)"
					},
					{
						"astId": 7,
						"contract": "w9_liquidity_lending_pool_hw.sol:cw9_3_MockLendingPool",
						"label": "owner",
						"offset": 0,
						"slot": "1",
						"type": "t_address"
					},
					{
						"astId": 9,
						"contract": "w9_liquidity_lending_pool_hw.sol:cw9_3_MockLendingPool",
						"label": "interest_rate",
						"offset": 0,
						"slot": "2",
						"type": "t_uint256"
					},
					{
						"astId": 13,
						"contract": "w9_liquidity_lending_pool_hw.sol:cw9_3_MockLendingPool",
						"label": "deposits",
						"offset": 0,
						"slot": "3",
						"type": "t_mapping(t_address,t_uint256)"
					},
					{
						"astId": 17,
						"contract": "w9_liquidity_lending_pool_hw.sol:cw9_3_MockLendingPool",
						"label": "borrowings",
						"offset": 0,
						"slot": "4",
						"type": "t_mapping(t_address,t_uint256)"
					},
					{
						"astId": 19,
						"contract": "w9_liquidity_lending_pool_hw.sol:cw9_3_MockLendingPool",
						"label": "totalLiquidity",
						"offset": 0,
						"slot": "5",
						"type": "t_uint256"
					},
					{
						"astId": 22,
						"contract": "w9_liquidity_lending_pool_hw.sol:cw9_3_MockLendingPool",
						"label": "interestRate",
						"offset": 0,
						"slot": "6",
						"type": "t_uint256"
					},
					{
						"astId": 24,
						"contract": "w9_liquidity_lending_pool_hw.sol:cw9_3_MockLendingPool",
						"label": "loanCounter",
						"offset": 0,
						"slot": "7",
						"type": "t_uint256"
					},
					{
						"astId": 29,
						"contract": "w9_liquidity_lending_pool_hw.sol:cw9_3_MockLendingPool",
						"label": "loans",
						"offset": 0,
						"slot": "8",
						"type": "t_mapping(t_uint256,t_struct(Loan)59_storage)"
					},
					{
						"astId": 34,
						"contract": "w9_liquidity_lending_pool_hw.sol:cw9_3_MockLendingPool",
						"label": "userLoans",
						"offset": 0,
						"slot": "9",
						"type": "t_mapping(t_address,t_array(t_uint256)dyn_storage)"
					},
					{
						"astId": 37,
						"contract": "w9_liquidity_lending_pool_hw.sol:cw9_3_MockLendingPool",
						"label": "depositors",
						"offset": 0,
						"slot": "10",
						"type": "t_array(t_address)dyn_storage"
					},
					{
						"astId": 39,
						"contract": "w9_liquidity_lending_pool_hw.sol:cw9_3_MockLendingPool",
						"label": "lastAccrualTimestamp",
						"offset": 0,
						"slot": "11",
						"type": "t_uint256"
					},
					{
						"astId": 41,
						"contract": "w9_liquidity_lending_pool_hw.sol:cw9_3_MockLendingPool",
						"label": "accruedReward",
						"offset": 0,
						"slot": "12",
						"type": "t_uint256"
					}
				],
				"types": {
					"t_address": {
						"encoding": "inplace",
						"label": "address",
						"numberOfBytes": "20"
					},
					"t_array(t_address)dyn_storage": {
						"base": "t_address",
						"encoding": "dynamic_array",
						"label": "address[]",
						"numberOfBytes": "32"
					},
					"t_array(t_uint256)dyn_storage": {
						"base": "t_uint256",
						"encoding": "dynamic_array",
						"label": "uint256[]",
						"numberOfBytes": "32"
					},
					"t_bool": {
						"encoding": "inplace",
						"label": "bool",
						"numberOfBytes": "1"
					},
					"t_mapping(t_address,t_array(t_uint256)dyn_storage)": {
						"encoding": "mapping",
						"key": "t_address",
						"label": "mapping(address => uint256[])",
						"numberOfBytes": "32",
						"value": "t_array(t_uint256)dyn_storage"
					},
					"t_mapping(t_address,t_uint256)": {
						"encoding": "mapping",
						"key": "t_address",
						"label": "mapping(address => uint256)",
						"numberOfBytes": "32",
						"value": "t_uint256"
					},
					"t_mapping(t_uint256,t_struct(Loan)59_storage)": {
						"encoding": "mapping",
						"key": "t_uint256",
						"label": "mapping(uint256 => struct cw9_3_MockLendingPool.Loan)",
						"numberOfBytes": "32",
						"value": "t_struct(Loan)59_storage"
					},
					"t_struct(Loan)59_storage": {
						"encoding": "inplace",
						"label": "struct cw9_3_MockLendingPool.Loan",
						"members": [
							{
								"astId": 46,
								"contract": "w9_liquidity_lending_pool_hw.sol:cw9_3_MockLendingPool",
								"label": "borrower",
								"offset": 0,
								"slot": "0",
								"type": "t_address"
							},
							{
								"astId": 48,
								"contract": "w9_liquidity_lending_pool_hw.sol:cw9_3_MockLendingPool",
								"label": "loanAmount",
								"offset": 0,
								"slot": "1",
								"type": "t_uint256"
							},
							{
								"astId": 50,
								"contract": "w9_liquidity_lending_pool_hw.sol:cw9_3_MockLendingPool",
								"label": "interestRate",
								"offset": 0,
								"slot": "2",
								"type": "t_uint256"
							},
							{
								"astId": 52,
								"contract": "w9_liquidity_lending_pool_hw.sol:cw9_3_MockLendingPool",
								"label": "repaymentAmount",
								"offset": 0,
								"slot": "3",
								"type": "t_uint256"
							},
							{
								"astId": 54,
								"contract": "w9_liquidity_lending_pool_hw.sol:cw9_3_MockLendingPool",
								"label": "repaymentTimestamp",
								"offset": 0,
								"slot": "4",
								"type": "t_uint256"
							},
							{
								"astId": 56,
								"contract": "w9_liquidity_lending_pool_hw.sol:cw9_3_MockLendingPool",
								"label": "isRepaid",
								"offset": 0,
								"slot": "5",
								"type": "t_bool"
							},
							{
								"astId": 58,
								"contract": "w9_liquidity_lending_pool_hw.sol:cw9_3_MockLendingPool",
								"label": "isActive",
								"offset": 1,
								"slot": "5",
								"type": "t_bool"
							}
						],
						"numberOfBytes": "192"
					},
					"t_uint256": {
						"encoding": "inplace",
						"label": "uint256",
						"numberOfBytes": "32"
					}
				}
			},
			"userdoc": {
				"kind": "user",
				"methods": {},
				"version": 1
			}
		}
	}
}