{
	"w8.sol": {
		"hw8_VulnerableEscrow": {
			"abi": [
				{
					"inputs": [
						{
							"internalType": "address",
							"name": "_buyer",
							"type": "address"
						},
						{
							"internalType": "address",
							"name": "_seller",
							"type": "address"
						},
						{
							"internalType": "address",
							"name": "_arbiter",
							"type": "address"
						},
						{
							"internalType": "uint256",
							"name": "_amount",
							"type": "uint256"
						}
					],
					"stateMutability": "nonpayable",
					"type": "constructor"
				},
				{
					"anonymous": false,
					"inputs": [
						{
							"indexed": true,
							"internalType": "address",
							"name": "arbiter",
							"type": "address"
						},
						{
							"indexed": false,
							"internalType": "uint256",
							"name": "amount",
							"type": "uint256"
						}
					],
					"name": "ArbiterRefundBuyer",
					"type": "event"
				},
				{
					"anonymous": false,
					"inputs": [
						{
							"indexed": true,
							"internalType": "address",
							"name": "confirmer",
							"type": "address"
						},
						{
							"indexed": false,
							"internalType": "uint256",
							"name": "amount",
							"type": "uint256"
						}
					],
					"name": "DeliveryConfirmed",
					"type": "event"
				},
				{
					"anonymous": false,
					"inputs": [
						{
							"indexed": true,
							"internalType": "address",
							"name": "buyer",
							"type": "address"
						},
						{
							"indexed": false,
							"internalType": "uint256",
							"name": "amount",
							"type": "uint256"
						}
					],
					"name": "Deposited",
					"type": "event"
				},
				{
					"anonymous": false,
					"inputs": [
						{
							"indexed": true,
							"internalType": "address",
							"name": "seller",
							"type": "address"
						},
						{
							"indexed": false,
							"internalType": "uint256",
							"name": "amount",
							"type": "uint256"
						}
					],
					"name": "FundsReleasedToSeller",
					"type": "event"
				},
				{
					"anonymous": false,
					"inputs": [
						{
							"indexed": false,
							"internalType": "uint256",
							"name": "released",
							"type": "uint256"
						},
						{
							"indexed": false,
							"internalType": "uint256",
							"name": "remaining",
							"type": "uint256"
						}
					],
					"name": "PartialRelease",
					"type": "event"
				},
				{
					"anonymous": false,
					"inputs": [
						{
							"indexed": true,
							"internalType": "address",
							"name": "seller",
							"type": "address"
						},
						{
							"indexed": false,
							"internalType": "uint256",
							"name": "amount",
							"type": "uint256"
						}
					],
					"name": "SellerRefundBuyer",
					"type": "event"
				},
				{
					"inputs": [],
					"name": "amount",
					"outputs": [
						{
							"internalType": "uint256",
							"name": "",
							"type": "uint256"
						}
					],
					"stateMutability": "view",
					"type": "function"
				},
				{
					"inputs": [],
					"name": "arbiter",
					"outputs": [
						{
							"internalType": "address",
							"name": "",
							"type": "address"
						}
					],
					"stateMutability": "view",
					"type": "function"
				},
				{
					"inputs": [],
					"name": "buyer",
					"outputs": [
						{
							"internalType": "address",
							"name": "",
							"type": "address"
						}
					],
					"stateMutability": "view",
					"type": "function"
				},
				{
					"inputs": [],
					"name": "confirmDelivery",
					"outputs": [],
					"stateMutability": "nonpayable",
					"type": "function"
				},
				{
					"inputs": [],
					"name": "deposit",
					"outputs": [],
					"stateMutability": "payable",
					"type": "function"
				},
				{
					"inputs": [],
					"name": "fundsDisbursed",
					"outputs": [
						{
							"internalType": "bool",
							"name": "",
							"type": "bool"
						}
					],
					"stateMutability": "view",
					"type": "function"
				},
				{
					"inputs": [],
					"name": "isDeposited",
					"outputs": [
						{
							"internalType": "bool",
							"name": "",
							"type": "bool"
						}
					],
					"stateMutability": "view",
					"type": "function"
				},
				{
					"inputs": [],
					"name": "refundBuyer",
					"outputs": [],
					"stateMutability": "nonpayable",
					"type": "function"
				},
				{
					"inputs": [],
					"name": "release",
					"outputs": [],
					"stateMutability": "nonpayable",
					"type": "function"
				},
				{
					"inputs": [
						{
							"internalType": "uint256",
							"name": "amountToRelease",
							"type": "uint256"
						}
					],
					"name": "releasePartial",
					"outputs": [],
					"stateMutability": "nonpayable",
					"type": "function"
				},
				{
					"inputs": [],
					"name": "releasedAmount",
					"outputs": [
						{
							"internalType": "uint256",
							"name": "",
							"type": "uint256"
						}
					],
					"stateMutability": "view",
					"type": "function"
				},
				{
					"inputs": [],
					"name": "seller",
					"outputs": [
						{
							"internalType": "address",
							"name": "",
							"type": "address"
						}
					],
					"stateMutability": "view",
					"type": "function"
				},
				{
					"inputs": [],
					"name": "withdraw",
					"outputs": [],
					"stateMutability": "nonpayable",
					"type": "function"
				}
			],
			"devdoc": {
				"kind": "dev",
				"methods": {},
				"version": 1
			},
			"evm": {
				"assembly": "    /* \"w8.sol\":123:3714  contract hw8_VulnerableEscrow {... */\n  mstore(0x40, 0x80)\n    /* \"w8.sol\":1396:1587  constructor(address _buyer, address _seller, address _arbiter, uint256 _amount) {... */\n  callvalue\n  dup1\n  iszero\n  tag_1\n  jumpi\n  0x00\n  dup1\n  revert\ntag_1:\n  pop\n  mload(0x40)\n  sub(codesize, bytecodeSize)\n  dup1\n  bytecodeSize\n  dup4\n  codecopy\n  dup2\n  dup2\n  add\n  0x40\n  mstore\n  dup2\n  add\n  swap1\n  tag_2\n  swap2\n  swap1\n  tag_3\n  jump\t// in\ntag_2:\n    /* \"w8.sol\":1494:1500  _buyer */\n  dup4\n    /* \"w8.sol\":1486:1491  buyer */\n  0x00\n  dup1\n    /* \"w8.sol\":1486:1500  buyer = _buyer */\n  0x0100\n  exp\n  dup2\n  sload\n  dup2\n  0xffffffffffffffffffffffffffffffffffffffff\n  mul\n  not\n  and\n  swap1\n  dup4\n  0xffffffffffffffffffffffffffffffffffffffff\n  and\n  mul\n  or\n  swap1\n  sstore\n  pop\n    /* \"w8.sol\":1519:1526  _seller */\n  dup3\n    /* \"w8.sol\":1510:1516  seller */\n  0x01\n  0x00\n    /* \"w8.sol\":1510:1526  seller = _seller */\n  0x0100\n  exp\n  dup2\n  sload\n  dup2\n  0xffffffffffffffffffffffffffffffffffffffff\n  mul\n  not\n  and\n  swap1\n  dup4\n  0xffffffffffffffffffffffffffffffffffffffff\n  and\n  mul\n  or\n  swap1\n  sstore\n  pop\n    /* \"w8.sol\":1546:1554  _arbiter */\n  dup2\n    /* \"w8.sol\":1536:1543  arbiter */\n  0x03\n  0x01\n    /* \"w8.sol\":1536:1554  arbiter = _arbiter */\n  0x0100\n  exp\n  dup2\n  sload\n  dup2\n  0xffffffffffffffffffffffffffffffffffffffff\n  mul\n  not\n  and\n  swap1\n  dup4\n  0xffffffffffffffffffffffffffffffffffffffff\n  and\n  mul\n  or\n  swap1\n  sstore\n  pop\n    /* \"w8.sol\":1573:1580  _amount */\n  dup1\n    /* \"w8.sol\":1564:1570  amount */\n  0x02\n    /* \"w8.sol\":1564:1580  amount = _amount */\n  dup2\n  swap1\n  sstore\n  pop\n    /* \"w8.sol\":1396:1587  constructor(address _buyer, address _seller, address _arbiter, uint256 _amount) {... */\n  pop\n  pop\n  pop\n  pop\n    /* \"w8.sol\":123:3714  contract hw8_VulnerableEscrow {... */\n  jump(tag_6)\n    /* \"#utility.yul\":88:205   */\ntag_8:\n    /* \"#utility.yul\":197:198   */\n  0x00\n    /* \"#utility.yul\":194:195   */\n  dup1\n    /* \"#utility.yul\":187:199   */\n  revert\n    /* \"#utility.yul\":334:460   */\ntag_10:\n    /* \"#utility.yul\":371:378   */\n  0x00\n    /* \"#utility.yul\":411:453   */\n  0xffffffffffffffffffffffffffffffffffffffff\n    /* \"#utility.yul\":404:409   */\n  dup3\n    /* \"#utility.yul\":400:454   */\n  and\n    /* \"#utility.yul\":389:454   */\n  swap1\n  pop\n    /* \"#utility.yul\":334:460   */\n  swap2\n  swap1\n  pop\n  jump\t// out\n    /* \"#utility.yul\":466:562   */\ntag_11:\n    /* \"#utility.yul\":503:510   */\n  0x00\n    /* \"#utility.yul\":532:556   */\n  tag_23\n    /* \"#utility.yul\":550:555   */\n  dup3\n    /* \"#utility.yul\":532:556   */\n  tag_10\n  jump\t// in\ntag_23:\n    /* \"#utility.yul\":521:556   */\n  swap1\n  pop\n    /* \"#utility.yul\":466:562   */\n  swap2\n  swap1\n  pop\n  jump\t// out\n    /* \"#utility.yul\":568:690   */\ntag_12:\n    /* \"#utility.yul\":641:665   */\n  tag_25\n    /* \"#utility.yul\":659:664   */\n  dup2\n    /* \"#utility.yul\":641:665   */\n  tag_11\n  jump\t// in\ntag_25:\n    /* \"#utility.yul\":634:639   */\n  dup2\n    /* \"#utility.yul\":631:666   */\n  eq\n    /* \"#utility.yul\":621:684   */\n  tag_26\n  jumpi\n    /* \"#utility.yul\":680:681   */\n  0x00\n    /* \"#utility.yul\":677:678   */\n  dup1\n    /* \"#utility.yul\":670:682   */\n  revert\n    /* \"#utility.yul\":621:684   */\ntag_26:\n    /* \"#utility.yul\":568:690   */\n  pop\n  jump\t// out\n    /* \"#utility.yul\":696:839   */\ntag_13:\n    /* \"#utility.yul\":753:758   */\n  0x00\n    /* \"#utility.yul\":784:790   */\n  dup2\n    /* \"#utility.yul\":778:791   */\n  mload\n    /* \"#utility.yul\":769:791   */\n  swap1\n  pop\n    /* \"#utility.yul\":800:833   */\n  tag_28\n    /* \"#utility.yul\":827:832   */\n  dup2\n    /* \"#utility.yul\":800:833   */\n  tag_12\n  jump\t// in\ntag_28:\n    /* \"#utility.yul\":696:839   */\n  swap3\n  swap2\n  pop\n  pop\n  jump\t// out\n    /* \"#utility.yul\":845:922   */\ntag_14:\n    /* \"#utility.yul\":882:889   */\n  0x00\n    /* \"#utility.yul\":911:916   */\n  dup2\n    /* \"#utility.yul\":900:916   */\n  swap1\n  pop\n    /* \"#utility.yul\":845:922   */\n  swap2\n  swap1\n  pop\n  jump\t// out\n    /* \"#utility.yul\":928:1050   */\ntag_15:\n    /* \"#utility.yul\":1001:1025   */\n  tag_31\n    /* \"#utility.yul\":1019:1024   */\n  dup2\n    /* \"#utility.yul\":1001:1025   */\n  tag_14\n  jump\t// in\ntag_31:\n    /* \"#utility.yul\":994:999   */\n  dup2\n    /* \"#utility.yul\":991:1026   */\n  eq\n    /* \"#utility.yul\":981:1044   */\n  tag_32\n  jumpi\n    /* \"#utility.yul\":1040:1041   */\n  0x00\n    /* \"#utility.yul\":1037:1038   */\n  dup1\n    /* \"#utility.yul\":1030:1042   */\n  revert\n    /* \"#utility.yul\":981:1044   */\ntag_32:\n    /* \"#utility.yul\":928:1050   */\n  pop\n  jump\t// out\n    /* \"#utility.yul\":1056:1199   */\ntag_16:\n    /* \"#utility.yul\":1113:1118   */\n  0x00\n    /* \"#utility.yul\":1144:1150   */\n  dup2\n    /* \"#utility.yul\":1138:1151   */\n  mload\n    /* \"#utility.yul\":1129:1151   */\n  swap1\n  pop\n    /* \"#utility.yul\":1160:1193   */\n  tag_34\n    /* \"#utility.yul\":1187:1192   */\n  dup2\n    /* \"#utility.yul\":1160:1193   */\n  tag_15\n  jump\t// in\ntag_34:\n    /* \"#utility.yul\":1056:1199   */\n  swap3\n  swap2\n  pop\n  pop\n  jump\t// out\n    /* \"#utility.yul\":1205:2025   */\ntag_3:\n    /* \"#utility.yul\":1302:1308   */\n  0x00\n    /* \"#utility.yul\":1310:1316   */\n  dup1\n    /* \"#utility.yul\":1318:1324   */\n  0x00\n    /* \"#utility.yul\":1326:1332   */\n  dup1\n    /* \"#utility.yul\":1375:1378   */\n  0x80\n    /* \"#utility.yul\":1363:1372   */\n  dup6\n    /* \"#utility.yul\":1354:1361   */\n  dup8\n    /* \"#utility.yul\":1350:1373   */\n  sub\n    /* \"#utility.yul\":1346:1379   */\n  slt\n    /* \"#utility.yul\":1343:1463   */\n  iszero\n  tag_36\n  jumpi\n    /* \"#utility.yul\":1382:1461   */\n  tag_37\n  tag_8\n  jump\t// in\ntag_37:\n    /* \"#utility.yul\":1343:1463   */\ntag_36:\n    /* \"#utility.yul\":1502:1503   */\n  0x00\n    /* \"#utility.yul\":1527:1591   */\n  tag_38\n    /* \"#utility.yul\":1583:1590   */\n  dup8\n    /* \"#utility.yul\":1574:1580   */\n  dup3\n    /* \"#utility.yul\":1563:1572   */\n  dup9\n    /* \"#utility.yul\":1559:1581   */\n  add\n    /* \"#utility.yul\":1527:1591   */\n  tag_13\n  jump\t// in\ntag_38:\n    /* \"#utility.yul\":1517:1591   */\n  swap5\n  pop\n    /* \"#utility.yul\":1473:1601   */\n  pop\n    /* \"#utility.yul\":1640:1642   */\n  0x20\n    /* \"#utility.yul\":1666:1730   */\n  tag_39\n    /* \"#utility.yul\":1722:1729   */\n  dup8\n    /* \"#utility.yul\":1713:1719   */\n  dup3\n    /* \"#utility.yul\":1702:1711   */\n  dup9\n    /* \"#utility.yul\":1698:1720   */\n  add\n    /* \"#utility.yul\":1666:1730   */\n  tag_13\n  jump\t// in\ntag_39:\n    /* \"#utility.yul\":1656:1730   */\n  swap4\n  pop\n    /* \"#utility.yul\":1611:1740   */\n  pop\n    /* \"#utility.yul\":1779:1781   */\n  0x40\n    /* \"#utility.yul\":1805:1869   */\n  tag_40\n    /* \"#utility.yul\":1861:1868   */\n  dup8\n    /* \"#utility.yul\":1852:1858   */\n  dup3\n    /* \"#utility.yul\":1841:1850   */\n  dup9\n    /* \"#utility.yul\":1837:1859   */\n  add\n    /* \"#utility.yul\":1805:1869   */\n  tag_13\n  jump\t// in\ntag_40:\n    /* \"#utility.yul\":1795:1869   */\n  swap3\n  pop\n    /* \"#utility.yul\":1750:1879   */\n  pop\n    /* \"#utility.yul\":1918:1920   */\n  0x60\n    /* \"#utility.yul\":1944:2008   */\n  tag_41\n    /* \"#utility.yul\":2000:2007   */\n  dup8\n    /* \"#utility.yul\":1991:1997   */\n  dup3\n    /* \"#utility.yul\":1980:1989   */\n  dup9\n    /* \"#utility.yul\":1976:1998   */\n  add\n    /* \"#utility.yul\":1944:2008   */\n  tag_16\n  jump\t// in\ntag_41:\n    /* \"#utility.yul\":1934:2008   */\n  swap2\n  pop\n    /* \"#utility.yul\":1889:2018   */\n  pop\n    /* \"#utility.yul\":1205:2025   */\n  swap3\n  swap6\n  swap2\n  swap5\n  pop\n  swap3\n  pop\n  jump\t// out\n    /* \"w8.sol\":123:3714  contract hw8_VulnerableEscrow {... */\ntag_6:\n  dataSize(sub_0)\n  dup1\n  dataOffset(sub_0)\n  0x00\n  codecopy\n  0x00\n  return\nstop\n\nsub_0: assembly {\n        /* \"w8.sol\":123:3714  contract hw8_VulnerableEscrow {... */\n      mstore(0x40, 0x80)\n      jumpi(tag_1, lt(calldatasize, 0x04))\n      shr(0xe0, calldataload(0x00))\n      dup1\n      0xaa8c217c\n      gt\n      tag_15\n      jumpi\n      dup1\n      0xd1a52e30\n      gt\n      tag_16\n      jumpi\n      dup1\n      0xd1a52e30\n      eq\n      tag_11\n      jumpi\n      dup1\n      0xe8a61cc8\n      eq\n      tag_12\n      jumpi\n      dup1\n      0xecdef075\n      eq\n      tag_13\n      jumpi\n      dup1\n      0xfe25e00a\n      eq\n      tag_14\n      jumpi\n      jump(tag_1)\n    tag_16:\n      dup1\n      0xaa8c217c\n      eq\n      tag_8\n      jumpi\n      dup1\n      0xc52f2e08\n      eq\n      tag_9\n      jumpi\n      dup1\n      0xd0e30db0\n      eq\n      tag_10\n      jumpi\n      jump(tag_1)\n    tag_15:\n      dup1\n      0x08551a53\n      eq\n      tag_2\n      jumpi\n      dup1\n      0x3ccfd60b\n      eq\n      tag_3\n      jumpi\n      dup1\n      0x45d30a17\n      eq\n      tag_4\n      jumpi\n      dup1\n      0x5e10177b\n      eq\n      tag_5\n      jumpi\n      dup1\n      0x7150d8ae\n      eq\n      tag_6\n      jumpi\n      dup1\n      0x86d1a69f\n      eq\n      tag_7\n      jumpi\n    tag_1:\n      0x00\n      dup1\n      revert\n        /* \"w8.sol\":185:206  address public seller */\n    tag_2:\n      callvalue\n      dup1\n      iszero\n      tag_17\n      jumpi\n      0x00\n      dup1\n      revert\n    tag_17:\n      pop\n      tag_18\n      tag_19\n      jump\t// in\n    tag_18:\n      mload(0x40)\n      tag_20\n      swap2\n      swap1\n      tag_21\n      jump\t// in\n    tag_20:\n      mload(0x40)\n      dup1\n      swap2\n      sub\n      swap1\n      return\n        /* \"w8.sol\":1830:2018  function withdraw() public onlyBuyer { ... */\n    tag_3:\n      callvalue\n      dup1\n      iszero\n      tag_22\n      jumpi\n      0x00\n      dup1\n      revert\n    tag_22:\n      pop\n      tag_23\n      tag_24\n      jump\t// in\n    tag_23:\n      stop\n        /* \"w8.sol\":293:322  uint256 public releasedAmount */\n    tag_4:\n      callvalue\n      dup1\n      iszero\n      tag_25\n      jumpi\n      0x00\n      dup1\n      revert\n    tag_25:\n      pop\n      tag_26\n      tag_27\n      jump\t// in\n    tag_26:\n      mload(0x40)\n      tag_28\n      swap2\n      swap1\n      tag_29\n      jump\t// in\n    tag_28:\n      mload(0x40)\n      dup1\n      swap2\n      sub\n      swap1\n      return\n        /* \"w8.sol\":2765:3258  function confirmDelivery() external onlyArbiter{... */\n    tag_5:\n      callvalue\n      dup1\n      iszero\n      tag_30\n      jumpi\n      0x00\n      dup1\n      revert\n    tag_30:\n      pop\n      tag_31\n      tag_32\n      jump\t// in\n    tag_31:\n      stop\n        /* \"w8.sol\":159:179  address public buyer */\n    tag_6:\n      callvalue\n      dup1\n      iszero\n      tag_33\n      jumpi\n      0x00\n      dup1\n      revert\n    tag_33:\n      pop\n      tag_34\n      tag_35\n      jump\t// in\n    tag_34:\n      mload(0x40)\n      tag_36\n      swap2\n      swap1\n      tag_21\n      jump\t// in\n    tag_36:\n      mload(0x40)\n      dup1\n      swap2\n      sub\n      swap1\n      return\n        /* \"w8.sol\":2068:2240  function release() public onlyBuyer { ... */\n    tag_7:\n      callvalue\n      dup1\n      iszero\n      tag_37\n      jumpi\n      0x00\n      dup1\n      revert\n    tag_37:\n      pop\n      tag_38\n      tag_39\n      jump\t// in\n    tag_38:\n      stop\n        /* \"w8.sol\":212:230  uint public amount */\n    tag_8:\n      callvalue\n      dup1\n      iszero\n      tag_40\n      jumpi\n      0x00\n      dup1\n      revert\n    tag_40:\n      pop\n      tag_41\n      tag_42\n      jump\t// in\n    tag_41:\n      mload(0x40)\n      tag_43\n      swap2\n      swap1\n      tag_29\n      jump\t// in\n    tag_43:\n      mload(0x40)\n      dup1\n      swap2\n      sub\n      swap1\n      return\n        /* \"w8.sol\":236:259  bool public isDeposited */\n    tag_9:\n      callvalue\n      dup1\n      iszero\n      tag_44\n      jumpi\n      0x00\n      dup1\n      revert\n    tag_44:\n      pop\n      tag_45\n      tag_46\n      jump\t// in\n    tag_45:\n      mload(0x40)\n      tag_47\n      swap2\n      swap1\n      tag_48\n      jump\t// in\n    tag_47:\n      mload(0x40)\n      dup1\n      swap2\n      sub\n      swap1\n      return\n        /* \"w8.sol\":1635:1783  function deposit() public payable onlyBuyer { ... */\n    tag_10:\n      tag_49\n      tag_50\n      jump\t// in\n    tag_49:\n      stop\n        /* \"w8.sol\":328:354  bool public fundsDisbursed */\n    tag_11:\n      callvalue\n      dup1\n      iszero\n      tag_51\n      jumpi\n      0x00\n      dup1\n      revert\n    tag_51:\n      pop\n      tag_52\n      tag_53\n      jump\t// in\n    tag_52:\n      mload(0x40)\n      tag_54\n      swap2\n      swap1\n      tag_48\n      jump\t// in\n    tag_54:\n      mload(0x40)\n      dup1\n      swap2\n      sub\n      swap1\n      return\n        /* \"w8.sol\":3299:3712  function refundBuyer() external onlySellerOrArbiter{... */\n    tag_12:\n      callvalue\n      dup1\n      iszero\n      tag_55\n      jumpi\n      0x00\n      dup1\n      revert\n    tag_55:\n      pop\n      tag_56\n      tag_57\n      jump\t// in\n    tag_56:\n      stop\n        /* \"w8.sol\":2284:2722  function releasePartial(uint256 amountToRelease) external onlySeller {... */\n    tag_13:\n      callvalue\n      dup1\n      iszero\n      tag_58\n      jumpi\n      0x00\n      dup1\n      revert\n    tag_58:\n      pop\n      tag_59\n      0x04\n      dup1\n      calldatasize\n      sub\n      dup2\n      add\n      swap1\n      tag_60\n      swap2\n      swap1\n      tag_61\n      jump\t// in\n    tag_60:\n      tag_62\n      jump\t// in\n    tag_59:\n      stop\n        /* \"w8.sol\":265:287  address public arbiter */\n    tag_14:\n      callvalue\n      dup1\n      iszero\n      tag_63\n      jumpi\n      0x00\n      dup1\n      revert\n    tag_63:\n      pop\n      tag_64\n      tag_65\n      jump\t// in\n    tag_64:\n      mload(0x40)\n      tag_66\n      swap2\n      swap1\n      tag_21\n      jump\t// in\n    tag_66:\n      mload(0x40)\n      dup1\n      swap2\n      sub\n      swap1\n      return\n        /* \"w8.sol\":185:206  address public seller */\n    tag_19:\n      0x01\n      0x00\n      swap1\n      sload\n      swap1\n      0x0100\n      exp\n      swap1\n      div\n      0xffffffffffffffffffffffffffffffffffffffff\n      and\n      dup2\n      jump\t// out\n        /* \"w8.sol\":1830:2018  function withdraw() public onlyBuyer { ... */\n    tag_24:\n        /* \"w8.sol\":418:423  buyer */\n      0x00\n      dup1\n      sload\n      swap1\n      0x0100\n      exp\n      swap1\n      div\n      0xffffffffffffffffffffffffffffffffffffffff\n      and\n        /* \"w8.sol\":404:423  msg.sender == buyer */\n      0xffffffffffffffffffffffffffffffffffffffff\n      and\n        /* \"w8.sol\":404:414  msg.sender */\n      caller\n        /* \"w8.sol\":404:423  msg.sender == buyer */\n      0xffffffffffffffffffffffffffffffffffffffff\n      and\n      eq\n        /* \"w8.sol\":396:438  require(msg.sender == buyer, \"Only buyer\") */\n      tag_68\n      jumpi\n      mload(0x40)\n      0x08c379a000000000000000000000000000000000000000000000000000000000\n      dup2\n      mstore\n      0x04\n      add\n      tag_69\n      swap1\n      tag_70\n      jump\t// in\n    tag_69:\n      mload(0x40)\n      dup1\n      swap2\n      sub\n      swap1\n      revert\n    tag_68:\n        /* \"w8.sol\":1911:1917  amount */\n      sload(0x02)\n        /* \"w8.sol\":1886:1907  address(this).balance */\n      selfbalance\n        /* \"w8.sol\":1886:1917  address(this).balance >= amount */\n      lt\n      iszero\n        /* \"w8.sol\":1878:1942  require(address(this).balance >= amount, \"Insufficient balance\") */\n      tag_72\n      jumpi\n      mload(0x40)\n      0x08c379a000000000000000000000000000000000000000000000000000000000\n      dup2\n      mstore\n      0x04\n      add\n      tag_73\n      swap1\n      tag_74\n      jump\t// in\n    tag_73:\n      mload(0x40)\n      dup1\n      swap2\n      sub\n      swap1\n      revert\n    tag_72:\n        /* \"w8.sol\":1952:1962  msg.sender */\n      caller\n        /* \"w8.sol\":1944:1972  payable(msg.sender).transfer */\n      0xffffffffffffffffffffffffffffffffffffffff\n      and\n        /* \"w8.sol\":1944:1980  payable(msg.sender).transfer(amount) */\n      0x08fc\n        /* \"w8.sol\":1973:1979  amount */\n      sload(0x02)\n        /* \"w8.sol\":1944:1980  payable(msg.sender).transfer(amount) */\n      swap1\n      dup2\n      iszero\n      mul\n      swap1\n      mload(0x40)\n      0x00\n      mload(0x40)\n      dup1\n      dup4\n      sub\n      dup2\n      dup6\n      dup9\n      dup9\n      call\n      swap4\n      pop\n      pop\n      pop\n      pop\n      iszero\n      dup1\n      iszero\n      tag_76\n      jumpi\n      returndatasize\n      0x00\n      dup1\n      returndatacopy\n      revert(0x00, returndatasize)\n    tag_76:\n      pop\n        /* \"w8.sol\":2005:2010  false */\n      0x00\n        /* \"w8.sol\":1991:2002  isDeposited */\n      0x03\n      0x00\n        /* \"w8.sol\":1991:2010  isDeposited = false */\n      0x0100\n      exp\n      dup2\n      sload\n      dup2\n      0xff\n      mul\n      not\n      and\n      swap1\n      dup4\n      iszero\n      iszero\n      mul\n      or\n      swap1\n      sstore\n      pop\n        /* \"w8.sol\":1830:2018  function withdraw() public onlyBuyer { ... */\n      jump\t// out\n        /* \"w8.sol\":293:322  uint256 public releasedAmount */\n    tag_27:\n      sload(0x04)\n      dup2\n      jump\t// out\n        /* \"w8.sol\":2765:3258  function confirmDelivery() external onlyArbiter{... */\n    tag_32:\n        /* \"w8.sol\":625:632  arbiter */\n      0x03\n      0x01\n      swap1\n      sload\n      swap1\n      0x0100\n      exp\n      swap1\n      div\n      0xffffffffffffffffffffffffffffffffffffffff\n      and\n        /* \"w8.sol\":611:632  msg.sender == arbiter */\n      0xffffffffffffffffffffffffffffffffffffffff\n      and\n        /* \"w8.sol\":611:621  msg.sender */\n      caller\n        /* \"w8.sol\":611:632  msg.sender == arbiter */\n      0xffffffffffffffffffffffffffffffffffffffff\n      and\n      eq\n        /* \"w8.sol\":603:652  require(msg.sender == arbiter, \"Only arbitrator\") */\n      tag_78\n      jumpi\n      mload(0x40)\n      0x08c379a000000000000000000000000000000000000000000000000000000000\n      dup2\n      mstore\n      0x04\n      add\n      tag_79\n      swap1\n      tag_80\n      jump\t// in\n    tag_79:\n      mload(0x40)\n      dup1\n      swap2\n      sub\n      swap1\n      revert\n    tag_78:\n        /* \"w8.sol\":2948:2959  isDeposited */\n      0x03\n      0x00\n      swap1\n      sload\n      swap1\n      0x0100\n      exp\n      swap1\n      div\n      0xff\n      and\n        /* \"w8.sol\":2940:2994  require(isDeposited, \"Buyer must have deposted funds\") */\n      tag_82\n      jumpi\n      mload(0x40)\n      0x08c379a000000000000000000000000000000000000000000000000000000000\n      dup2\n      mstore\n      0x04\n      add\n      tag_83\n      swap1\n      tag_84\n      jump\t// in\n    tag_83:\n      mload(0x40)\n      dup1\n      swap2\n      sub\n      swap1\n      revert\n    tag_82:\n        /* \"w8.sol\":3012:3026  fundsDisbursed */\n      0x05\n      0x00\n      swap1\n      sload\n      swap1\n      0x0100\n      exp\n      swap1\n      div\n      0xff\n      and\n        /* \"w8.sol\":3004:3064  require(fundsDisbursed, \"Funds have already been disbursed\") */\n      tag_85\n      jumpi\n      mload(0x40)\n      0x08c379a000000000000000000000000000000000000000000000000000000000\n      dup2\n      mstore\n      0x04\n      add\n      tag_86\n      swap1\n      tag_87\n      jump\t// in\n    tag_86:\n      mload(0x40)\n      dup1\n      swap2\n      sub\n      swap1\n      revert\n    tag_85:\n        /* \"w8.sol\":3087:3093  seller */\n      0x01\n      0x00\n      swap1\n      sload\n      swap1\n      0x0100\n      exp\n      swap1\n      div\n      0xffffffffffffffffffffffffffffffffffffffff\n      and\n        /* \"w8.sol\":3079:3103  payable(seller).transfer */\n      0xffffffffffffffffffffffffffffffffffffffff\n      and\n        /* \"w8.sol\":3079:3111  payable(seller).transfer(amount) */\n      0x08fc\n        /* \"w8.sol\":3104:3110  amount */\n      sload(0x02)\n        /* \"w8.sol\":3079:3111  payable(seller).transfer(amount) */\n      swap1\n      dup2\n      iszero\n      mul\n      swap1\n      mload(0x40)\n      0x00\n      mload(0x40)\n      dup1\n      dup4\n      sub\n      dup2\n      dup6\n      dup9\n      dup9\n      call\n      swap4\n      pop\n      pop\n      pop\n      pop\n      iszero\n      dup1\n      iszero\n      tag_89\n      jumpi\n      returndatasize\n      0x00\n      dup1\n      returndatacopy\n      revert(0x00, returndatasize)\n    tag_89:\n      pop\n        /* \"w8.sol\":3138:3142  true */\n      0x01\n        /* \"w8.sol\":3121:3135  fundsDisbursed */\n      0x05\n      0x00\n        /* \"w8.sol\":3121:3142  fundsDisbursed = true */\n      0x0100\n      exp\n      dup2\n      sload\n      dup2\n      0xff\n      mul\n      not\n      and\n      swap1\n      dup4\n      iszero\n      iszero\n      mul\n      or\n      swap1\n      sstore\n      pop\n        /* \"w8.sol\":3176:3186  msg.sender */\n      caller\n        /* \"w8.sol\":3158:3195  DeliveryConfirmed(msg.sender, amount) */\n      0xffffffffffffffffffffffffffffffffffffffff\n      and\n      0x28720c586a6e736146008f9bf260b09f29b8dcc37314fed637613ea3aec614f8\n        /* \"w8.sol\":3188:3194  amount */\n      sload(0x02)\n        /* \"w8.sol\":3158:3195  DeliveryConfirmed(msg.sender, amount) */\n      mload(0x40)\n      tag_90\n      swap2\n      swap1\n      tag_29\n      jump\t// in\n    tag_90:\n      mload(0x40)\n      dup1\n      swap2\n      sub\n      swap1\n      log2\n        /* \"w8.sol\":3232:3238  seller */\n      0x01\n      0x00\n      swap1\n      sload\n      swap1\n      0x0100\n      exp\n      swap1\n      div\n      0xffffffffffffffffffffffffffffffffffffffff\n      and\n        /* \"w8.sol\":3210:3247  FundsReleasedToSeller(seller, amount) */\n      0xffffffffffffffffffffffffffffffffffffffff\n      and\n      0x6bbb9098479cbbc176a8b3f5cba6cde9236931e5cab7780ff0398ff7ebb07a3d\n        /* \"w8.sol\":3240:3246  amount */\n      sload(0x02)\n        /* \"w8.sol\":3210:3247  FundsReleasedToSeller(seller, amount) */\n      mload(0x40)\n      tag_91\n      swap2\n      swap1\n      tag_29\n      jump\t// in\n    tag_91:\n      mload(0x40)\n      dup1\n      swap2\n      sub\n      swap1\n      log2\n        /* \"w8.sol\":2765:3258  function confirmDelivery() external onlyArbiter{... */\n      jump\t// out\n        /* \"w8.sol\":159:179  address public buyer */\n    tag_35:\n      0x00\n      dup1\n      sload\n      swap1\n      0x0100\n      exp\n      swap1\n      div\n      0xffffffffffffffffffffffffffffffffffffffff\n      and\n      dup2\n      jump\t// out\n        /* \"w8.sol\":2068:2240  function release() public onlyBuyer { ... */\n    tag_39:\n        /* \"w8.sol\":418:423  buyer */\n      0x00\n      dup1\n      sload\n      swap1\n      0x0100\n      exp\n      swap1\n      div\n      0xffffffffffffffffffffffffffffffffffffffff\n      and\n        /* \"w8.sol\":404:423  msg.sender == buyer */\n      0xffffffffffffffffffffffffffffffffffffffff\n      and\n        /* \"w8.sol\":404:414  msg.sender */\n      caller\n        /* \"w8.sol\":404:423  msg.sender == buyer */\n      0xffffffffffffffffffffffffffffffffffffffff\n      and\n      eq\n        /* \"w8.sol\":396:438  require(msg.sender == buyer, \"Only buyer\") */\n      tag_93\n      jumpi\n      mload(0x40)\n      0x08c379a000000000000000000000000000000000000000000000000000000000\n      dup2\n      mstore\n      0x04\n      add\n      tag_94\n      swap1\n      tag_70\n      jump\t// in\n    tag_94:\n      mload(0x40)\n      dup1\n      swap2\n      sub\n      swap1\n      revert\n    tag_93:\n        /* \"w8.sol\":2123:2134  isDeposited */\n      0x03\n      0x00\n      swap1\n      sload\n      swap1\n      0x0100\n      exp\n      swap1\n      div\n      0xff\n      and\n        /* \"w8.sol\":2115:2168  require(isDeposited, \"Funds have not been deposited\") */\n      tag_96\n      jumpi\n      mload(0x40)\n      0x08c379a000000000000000000000000000000000000000000000000000000000\n      dup2\n      mstore\n      0x04\n      add\n      tag_97\n      swap1\n      tag_98\n      jump\t// in\n    tag_97:\n      mload(0x40)\n      dup1\n      swap2\n      sub\n      swap1\n      revert\n    tag_96:\n        /* \"w8.sol\":2178:2184  seller */\n      0x01\n      0x00\n      swap1\n      sload\n      swap1\n      0x0100\n      exp\n      swap1\n      div\n      0xffffffffffffffffffffffffffffffffffffffff\n      and\n        /* \"w8.sol\":2170:2194  payable(seller).transfer */\n      0xffffffffffffffffffffffffffffffffffffffff\n      and\n        /* \"w8.sol\":2170:2202  payable(seller).transfer(amount) */\n      0x08fc\n        /* \"w8.sol\":2195:2201  amount */\n      sload(0x02)\n        /* \"w8.sol\":2170:2202  payable(seller).transfer(amount) */\n      swap1\n      dup2\n      iszero\n      mul\n      swap1\n      mload(0x40)\n      0x00\n      mload(0x40)\n      dup1\n      dup4\n      sub\n      dup2\n      dup6\n      dup9\n      dup9\n      call\n      swap4\n      pop\n      pop\n      pop\n      pop\n      iszero\n      dup1\n      iszero\n      tag_100\n      jumpi\n      returndatasize\n      0x00\n      dup1\n      returndatacopy\n      revert(0x00, returndatasize)\n    tag_100:\n      pop\n        /* \"w8.sol\":2227:2232  false */\n      0x00\n        /* \"w8.sol\":2213:2224  isDeposited */\n      0x03\n      0x00\n        /* \"w8.sol\":2213:2232  isDeposited = false */\n      0x0100\n      exp\n      dup2\n      sload\n      dup2\n      0xff\n      mul\n      not\n      and\n      swap1\n      dup4\n      iszero\n      iszero\n      mul\n      or\n      swap1\n      sstore\n      pop\n        /* \"w8.sol\":2068:2240  function release() public onlyBuyer { ... */\n      jump\t// out\n        /* \"w8.sol\":212:230  uint public amount */\n    tag_42:\n      sload(0x02)\n      dup2\n      jump\t// out\n        /* \"w8.sol\":236:259  bool public isDeposited */\n    tag_46:\n      0x03\n      0x00\n      swap1\n      sload\n      swap1\n      0x0100\n      exp\n      swap1\n      div\n      0xff\n      and\n      dup2\n      jump\t// out\n        /* \"w8.sol\":1635:1783  function deposit() public payable onlyBuyer { ... */\n    tag_50:\n        /* \"w8.sol\":418:423  buyer */\n      0x00\n      dup1\n      sload\n      swap1\n      0x0100\n      exp\n      swap1\n      div\n      0xffffffffffffffffffffffffffffffffffffffff\n      and\n        /* \"w8.sol\":404:423  msg.sender == buyer */\n      0xffffffffffffffffffffffffffffffffffffffff\n      and\n        /* \"w8.sol\":404:414  msg.sender */\n      caller\n        /* \"w8.sol\":404:423  msg.sender == buyer */\n      0xffffffffffffffffffffffffffffffffffffffff\n      and\n      eq\n        /* \"w8.sol\":396:438  require(msg.sender == buyer, \"Only buyer\") */\n      tag_102\n      jumpi\n      mload(0x40)\n      0x08c379a000000000000000000000000000000000000000000000000000000000\n      dup2\n      mstore\n      0x04\n      add\n      tag_103\n      swap1\n      tag_70\n      jump\t// in\n    tag_103:\n      mload(0x40)\n      dup1\n      swap2\n      sub\n      swap1\n      revert\n    tag_102:\n        /* \"w8.sol\":1711:1717  amount */\n      sload(0x02)\n        /* \"w8.sol\":1698:1707  msg.value */\n      callvalue\n        /* \"w8.sol\":1698:1717  msg.value == amount */\n      eq\n        /* \"w8.sol\":1690:1746  require(msg.value == amount, \"Incorrect deposit amount\") */\n      tag_105\n      jumpi\n      mload(0x40)\n      0x08c379a000000000000000000000000000000000000000000000000000000000\n      dup2\n      mstore\n      0x04\n      add\n      tag_106\n      swap1\n      tag_107\n      jump\t// in\n    tag_106:\n      mload(0x40)\n      dup1\n      swap2\n      sub\n      swap1\n      revert\n    tag_105:\n        /* \"w8.sol\":1771:1775  true */\n      0x01\n        /* \"w8.sol\":1757:1768  isDeposited */\n      0x03\n      0x00\n        /* \"w8.sol\":1757:1775  isDeposited = true */\n      0x0100\n      exp\n      dup2\n      sload\n      dup2\n      0xff\n      mul\n      not\n      and\n      swap1\n      dup4\n      iszero\n      iszero\n      mul\n      or\n      swap1\n      sstore\n      pop\n        /* \"w8.sol\":1635:1783  function deposit() public payable onlyBuyer { ... */\n      jump\t// out\n        /* \"w8.sol\":328:354  bool public fundsDisbursed */\n    tag_53:\n      0x05\n      0x00\n      swap1\n      sload\n      swap1\n      0x0100\n      exp\n      swap1\n      div\n      0xff\n      and\n      dup2\n      jump\t// out\n        /* \"w8.sol\":3299:3712  function refundBuyer() external onlySellerOrArbiter{... */\n    tag_57:\n        /* \"w8.sol\":1292:1298  seller */\n      0x01\n      0x00\n      swap1\n      sload\n      swap1\n      0x0100\n      exp\n      swap1\n      div\n      0xffffffffffffffffffffffffffffffffffffffff\n      and\n        /* \"w8.sol\":1278:1298  msg.sender == seller */\n      0xffffffffffffffffffffffffffffffffffffffff\n      and\n        /* \"w8.sol\":1278:1288  msg.sender */\n      caller\n        /* \"w8.sol\":1278:1298  msg.sender == seller */\n      0xffffffffffffffffffffffffffffffffffffffff\n      and\n      eq\n        /* \"w8.sol\":1278:1323  msg.sender == seller || msg.sender == arbiter */\n      dup1\n      tag_109\n      jumpi\n      pop\n        /* \"w8.sol\":1316:1323  arbiter */\n      0x03\n      0x01\n      swap1\n      sload\n      swap1\n      0x0100\n      exp\n      swap1\n      div\n      0xffffffffffffffffffffffffffffffffffffffff\n      and\n        /* \"w8.sol\":1302:1323  msg.sender == arbiter */\n      0xffffffffffffffffffffffffffffffffffffffff\n      and\n        /* \"w8.sol\":1302:1312  msg.sender */\n      caller\n        /* \"w8.sol\":1302:1323  msg.sender == arbiter */\n      0xffffffffffffffffffffffffffffffffffffffff\n      and\n      eq\n        /* \"w8.sol\":1278:1323  msg.sender == seller || msg.sender == arbiter */\n    tag_109:\n        /* \"w8.sol\":1270:1368  require(msg.sender == seller || msg.sender == arbiter, \"caller must be the seller or the arbiter\") */\n      tag_110\n      jumpi\n      mload(0x40)\n      0x08c379a000000000000000000000000000000000000000000000000000000000\n      dup2\n      mstore\n      0x04\n      add\n      tag_111\n      swap1\n      tag_112\n      jump\t// in\n    tag_111:\n      mload(0x40)\n      dup1\n      swap2\n      sub\n      swap1\n      revert\n    tag_110:\n        /* \"w8.sol\":3370:3381  isDeposited */\n      0x03\n      0x00\n      swap1\n      sload\n      swap1\n      0x0100\n      exp\n      swap1\n      div\n      0xff\n      and\n        /* \"w8.sol\":3361:3417  require (isDeposited, \"Buyer must have deposited funds\") */\n      tag_114\n      jumpi\n      mload(0x40)\n      0x08c379a000000000000000000000000000000000000000000000000000000000\n      dup2\n      mstore\n      0x04\n      add\n      tag_115\n      swap1\n      tag_116\n      jump\t// in\n    tag_115:\n      mload(0x40)\n      dup1\n      swap2\n      sub\n      swap1\n      revert\n    tag_114:\n        /* \"w8.sol\":3437:3451  fundsDisbursed */\n      0x05\n      0x00\n      swap1\n      sload\n      swap1\n      0x0100\n      exp\n      swap1\n      div\n      0xff\n      and\n        /* \"w8.sol\":3436:3451  !fundsDisbursed */\n      iszero\n        /* \"w8.sol\":3427:3489  require (!fundsDisbursed, \"Funds have already been disbursed\") */\n      tag_117\n      jumpi\n      mload(0x40)\n      0x08c379a000000000000000000000000000000000000000000000000000000000\n      dup2\n      mstore\n      0x04\n      add\n      tag_118\n      swap1\n      tag_87\n      jump\t// in\n    tag_118:\n      mload(0x40)\n      dup1\n      swap2\n      sub\n      swap1\n      revert\n    tag_117:\n        /* \"w8.sol\":3507:3512  buyer */\n      0x00\n      dup1\n      sload\n      swap1\n      0x0100\n      exp\n      swap1\n      div\n      0xffffffffffffffffffffffffffffffffffffffff\n      and\n        /* \"w8.sol\":3499:3522  payable(buyer).transfer */\n      0xffffffffffffffffffffffffffffffffffffffff\n      and\n        /* \"w8.sol\":3499:3530  payable(buyer).transfer(amount) */\n      0x08fc\n        /* \"w8.sol\":3523:3529  amount */\n      sload(0x02)\n        /* \"w8.sol\":3499:3530  payable(buyer).transfer(amount) */\n      swap1\n      dup2\n      iszero\n      mul\n      swap1\n      mload(0x40)\n      0x00\n      mload(0x40)\n      dup1\n      dup4\n      sub\n      dup2\n      dup6\n      dup9\n      dup9\n      call\n      swap4\n      pop\n      pop\n      pop\n      pop\n      iszero\n      dup1\n      iszero\n      tag_120\n      jumpi\n      returndatasize\n      0x00\n      dup1\n      returndatacopy\n      revert(0x00, returndatasize)\n    tag_120:\n      pop\n        /* \"w8.sol\":3558:3564  seller */\n      0x01\n      0x00\n      swap1\n      sload\n      swap1\n      0x0100\n      exp\n      swap1\n      div\n      0xffffffffffffffffffffffffffffffffffffffff\n      and\n        /* \"w8.sol\":3544:3564  msg.sender == seller */\n      0xffffffffffffffffffffffffffffffffffffffff\n      and\n        /* \"w8.sol\":3544:3554  msg.sender */\n      caller\n        /* \"w8.sol\":3544:3564  msg.sender == seller */\n      0xffffffffffffffffffffffffffffffffffffffff\n      and\n      sub\n        /* \"w8.sol\":3540:3706  if (msg.sender == seller){... */\n      tag_121\n      jumpi\n        /* \"w8.sol\":3602:3612  msg.sender */\n      caller\n        /* \"w8.sol\":3584:3621  SellerRefundBuyer(msg.sender, amount) */\n      0xffffffffffffffffffffffffffffffffffffffff\n      and\n      0xd0a35a552b7aa19661d12f4431a0269f83b8fbc8d9647ad55992ea710d538002\n        /* \"w8.sol\":3614:3620  amount */\n      sload(0x02)\n        /* \"w8.sol\":3584:3621  SellerRefundBuyer(msg.sender, amount) */\n      mload(0x40)\n      tag_122\n      swap2\n      swap1\n      tag_29\n      jump\t// in\n    tag_122:\n      mload(0x40)\n      dup1\n      swap2\n      sub\n      swap1\n      log2\n        /* \"w8.sol\":3540:3706  if (msg.sender == seller){... */\n      jump(tag_123)\n    tag_121:\n        /* \"w8.sol\":3676:3686  msg.sender */\n      caller\n        /* \"w8.sol\":3657:3695  ArbiterRefundBuyer(msg.sender, amount) */\n      0xffffffffffffffffffffffffffffffffffffffff\n      and\n      0x305ee2c381d77e2423d38768e63a93aac80ab99c1b57ddcda8fd5e74c79bbe60\n        /* \"w8.sol\":3688:3694  amount */\n      sload(0x02)\n        /* \"w8.sol\":3657:3695  ArbiterRefundBuyer(msg.sender, amount) */\n      mload(0x40)\n      tag_124\n      swap2\n      swap1\n      tag_29\n      jump\t// in\n    tag_124:\n      mload(0x40)\n      dup1\n      swap2\n      sub\n      swap1\n      log2\n        /* \"w8.sol\":3540:3706  if (msg.sender == seller){... */\n    tag_123:\n        /* \"w8.sol\":3299:3712  function refundBuyer() external onlySellerOrArbiter{... */\n      jump\t// out\n        /* \"w8.sol\":2284:2722  function releasePartial(uint256 amountToRelease) external onlySeller {... */\n    tag_62:\n        /* \"w8.sol\":520:526  seller */\n      0x01\n      0x00\n      swap1\n      sload\n      swap1\n      0x0100\n      exp\n      swap1\n      div\n      0xffffffffffffffffffffffffffffffffffffffff\n      and\n        /* \"w8.sol\":506:526  msg.sender == seller */\n      0xffffffffffffffffffffffffffffffffffffffff\n      and\n        /* \"w8.sol\":506:516  msg.sender */\n      caller\n        /* \"w8.sol\":506:526  msg.sender == seller */\n      0xffffffffffffffffffffffffffffffffffffffff\n      and\n      eq\n        /* \"w8.sol\":498:542  require(msg.sender == seller, \"Only seller\") */\n      tag_126\n      jumpi\n      mload(0x40)\n      0x08c379a000000000000000000000000000000000000000000000000000000000\n      dup2\n      mstore\n      0x04\n      add\n      tag_127\n      swap1\n      tag_128\n      jump\t// in\n    tag_127:\n      mload(0x40)\n      dup1\n      swap2\n      sub\n      swap1\n      revert\n    tag_126:\n        /* \"w8.sol\":2389:2390  0 */\n      0x00\n        /* \"w8.sol\":2371:2386  amountToRelease */\n      dup2\n        /* \"w8.sol\":2371:2390  amountToRelease > 0 */\n      gt\n        /* \"w8.sol\":2371:2418  amountToRelease > 0 && amountToRelease < amount */\n      dup1\n      iszero\n      tag_130\n      jumpi\n      pop\n        /* \"w8.sol\":2412:2418  amount */\n      sload(0x02)\n        /* \"w8.sol\":2394:2409  amountToRelease */\n      dup2\n        /* \"w8.sol\":2394:2418  amountToRelease < amount */\n      lt\n        /* \"w8.sol\":2371:2418  amountToRelease > 0 && amountToRelease < amount */\n    tag_130:\n        /* \"w8.sol\":2363:2437  require(amountToRelease > 0 && amountToRelease < amount, \"Invalid amount\") */\n      tag_131\n      jumpi\n      mload(0x40)\n      0x08c379a000000000000000000000000000000000000000000000000000000000\n      dup2\n      mstore\n      0x04\n      add\n      tag_132\n      swap1\n      tag_133\n      jump\t// in\n    tag_132:\n      mload(0x40)\n      dup1\n      swap2\n      sub\n      swap1\n      revert\n    tag_131:\n        /* \"w8.sol\":2464:2479  amountToRelease */\n      dup1\n        /* \"w8.sol\":2447:2461  releasedAmount */\n      0x04\n        /* \"w8.sol\":2447:2479  releasedAmount = amountToRelease */\n      dup2\n      swap1\n      sstore\n      pop\n        /* \"w8.sol\":2507:2522  amountToRelease */\n      dup1\n        /* \"w8.sol\":2498:2504  amount */\n      sload(0x02)\n        /* \"w8.sol\":2498:2522  amount - amountToRelease */\n      tag_134\n      swap2\n      swap1\n      tag_135\n      jump\t// in\n    tag_134:\n        /* \"w8.sol\":2489:2495  amount */\n      0x02\n        /* \"w8.sol\":2489:2522  amount = amount - amountToRelease */\n      dup2\n      swap1\n      sstore\n      pop\n        /* \"w8.sol\":2628:2634  seller */\n      0x01\n      0x00\n      swap1\n      sload\n      swap1\n      0x0100\n      exp\n      swap1\n      div\n      0xffffffffffffffffffffffffffffffffffffffff\n      and\n        /* \"w8.sol\":2620:2644  payable(seller).transfer */\n      0xffffffffffffffffffffffffffffffffffffffff\n      and\n        /* \"w8.sol\":2620:2661  payable(seller).transfer(amountToRelease) */\n      0x08fc\n        /* \"w8.sol\":2645:2660  amountToRelease */\n      dup3\n        /* \"w8.sol\":2620:2661  payable(seller).transfer(amountToRelease) */\n      swap1\n      dup2\n      iszero\n      mul\n      swap1\n      mload(0x40)\n      0x00\n      mload(0x40)\n      dup1\n      dup4\n      sub\n      dup2\n      dup6\n      dup9\n      dup9\n      call\n      swap4\n      pop\n      pop\n      pop\n      pop\n      iszero\n      dup1\n      iszero\n      tag_137\n      jumpi\n      returndatasize\n      0x00\n      dup1\n      returndatacopy\n      revert(0x00, returndatasize)\n    tag_137:\n      pop\n        /* \"w8.sol\":2676:2715  PartialRelease(amountToRelease, amount) */\n      0xe0e6e821759edc7f6c2fa6925ffa369956519ab9be7fd7f04fb0a60bd97f8f01\n        /* \"w8.sol\":2691:2706  amountToRelease */\n      dup2\n        /* \"w8.sol\":2708:2714  amount */\n      sload(0x02)\n        /* \"w8.sol\":2676:2715  PartialRelease(amountToRelease, amount) */\n      mload(0x40)\n      tag_138\n      swap3\n      swap2\n      swap1\n      tag_139\n      jump\t// in\n    tag_138:\n      mload(0x40)\n      dup1\n      swap2\n      sub\n      swap1\n      log1\n        /* \"w8.sol\":2284:2722  function releasePartial(uint256 amountToRelease) external onlySeller {... */\n      pop\n      jump\t// out\n        /* \"w8.sol\":265:287  address public arbiter */\n    tag_65:\n      0x03\n      0x01\n      swap1\n      sload\n      swap1\n      0x0100\n      exp\n      swap1\n      div\n      0xffffffffffffffffffffffffffffffffffffffff\n      and\n      dup2\n      jump\t// out\n        /* \"#utility.yul\":7:133   */\n    tag_140:\n        /* \"#utility.yul\":44:51   */\n      0x00\n        /* \"#utility.yul\":84:126   */\n      0xffffffffffffffffffffffffffffffffffffffff\n        /* \"#utility.yul\":77:82   */\n      dup3\n        /* \"#utility.yul\":73:127   */\n      and\n        /* \"#utility.yul\":62:127   */\n      swap1\n      pop\n        /* \"#utility.yul\":7:133   */\n      swap2\n      swap1\n      pop\n      jump\t// out\n        /* \"#utility.yul\":139:235   */\n    tag_141:\n        /* \"#utility.yul\":176:183   */\n      0x00\n        /* \"#utility.yul\":205:229   */\n      tag_179\n        /* \"#utility.yul\":223:228   */\n      dup3\n        /* \"#utility.yul\":205:229   */\n      tag_140\n      jump\t// in\n    tag_179:\n        /* \"#utility.yul\":194:229   */\n      swap1\n      pop\n        /* \"#utility.yul\":139:235   */\n      swap2\n      swap1\n      pop\n      jump\t// out\n        /* \"#utility.yul\":241:359   */\n    tag_142:\n        /* \"#utility.yul\":328:352   */\n      tag_181\n        /* \"#utility.yul\":346:351   */\n      dup2\n        /* \"#utility.yul\":328:352   */\n      tag_141\n      jump\t// in\n    tag_181:\n        /* \"#utility.yul\":323:326   */\n      dup3\n        /* \"#utility.yul\":316:353   */\n      mstore\n        /* \"#utility.yul\":241:359   */\n      pop\n      pop\n      jump\t// out\n        /* \"#utility.yul\":365:587   */\n    tag_21:\n        /* \"#utility.yul\":458:462   */\n      0x00\n        /* \"#utility.yul\":496:498   */\n      0x20\n        /* \"#utility.yul\":485:494   */\n      dup3\n        /* \"#utility.yul\":481:499   */\n      add\n        /* \"#utility.yul\":473:499   */\n      swap1\n      pop\n        /* \"#utility.yul\":509:580   */\n      tag_183\n        /* \"#utility.yul\":577:578   */\n      0x00\n        /* \"#utility.yul\":566:575   */\n      dup4\n        /* \"#utility.yul\":562:579   */\n      add\n        /* \"#utility.yul\":553:559   */\n      dup5\n        /* \"#utility.yul\":509:580   */\n      tag_142\n      jump\t// in\n    tag_183:\n        /* \"#utility.yul\":365:587   */\n      swap3\n      swap2\n      pop\n      pop\n      jump\t// out\n        /* \"#utility.yul\":593:670   */\n    tag_143:\n        /* \"#utility.yul\":630:637   */\n      0x00\n        /* \"#utility.yul\":659:664   */\n      dup2\n        /* \"#utility.yul\":648:664   */\n      swap1\n      pop\n        /* \"#utility.yul\":593:670   */\n      swap2\n      swap1\n      pop\n      jump\t// out\n        /* \"#utility.yul\":676:794   */\n    tag_144:\n        /* \"#utility.yul\":763:787   */\n      tag_186\n        /* \"#utility.yul\":781:786   */\n      dup2\n        /* \"#utility.yul\":763:787   */\n      tag_143\n      jump\t// in\n    tag_186:\n        /* \"#utility.yul\":758:761   */\n      dup3\n        /* \"#utility.yul\":751:788   */\n      mstore\n        /* \"#utility.yul\":676:794   */\n      pop\n      pop\n      jump\t// out\n        /* \"#utility.yul\":800:1022   */\n    tag_29:\n        /* \"#utility.yul\":893:897   */\n      0x00\n        /* \"#utility.yul\":931:933   */\n      0x20\n        /* \"#utility.yul\":920:929   */\n      dup3\n        /* \"#utility.yul\":916:934   */\n      add\n        /* \"#utility.yul\":908:934   */\n      swap1\n      pop\n        /* \"#utility.yul\":944:1015   */\n      tag_188\n        /* \"#utility.yul\":1012:1013   */\n      0x00\n        /* \"#utility.yul\":1001:1010   */\n      dup4\n        /* \"#utility.yul\":997:1014   */\n      add\n        /* \"#utility.yul\":988:994   */\n      dup5\n        /* \"#utility.yul\":944:1015   */\n      tag_144\n      jump\t// in\n    tag_188:\n        /* \"#utility.yul\":800:1022   */\n      swap3\n      swap2\n      pop\n      pop\n      jump\t// out\n        /* \"#utility.yul\":1028:1118   */\n    tag_145:\n        /* \"#utility.yul\":1062:1069   */\n      0x00\n        /* \"#utility.yul\":1105:1110   */\n      dup2\n        /* \"#utility.yul\":1098:1111   */\n      iszero\n        /* \"#utility.yul\":1091:1112   */\n      iszero\n        /* \"#utility.yul\":1080:1112   */\n      swap1\n      pop\n        /* \"#utility.yul\":1028:1118   */\n      swap2\n      swap1\n      pop\n      jump\t// out\n        /* \"#utility.yul\":1124:1233   */\n    tag_146:\n        /* \"#utility.yul\":1205:1226   */\n      tag_191\n        /* \"#utility.yul\":1220:1225   */\n      dup2\n        /* \"#utility.yul\":1205:1226   */\n      tag_145\n      jump\t// in\n    tag_191:\n        /* \"#utility.yul\":1200:1203   */\n      dup3\n        /* \"#utility.yul\":1193:1227   */\n      mstore\n        /* \"#utility.yul\":1124:1233   */\n      pop\n      pop\n      jump\t// out\n        /* \"#utility.yul\":1239:1449   */\n    tag_48:\n        /* \"#utility.yul\":1326:1330   */\n      0x00\n        /* \"#utility.yul\":1364:1366   */\n      0x20\n        /* \"#utility.yul\":1353:1362   */\n      dup3\n        /* \"#utility.yul\":1349:1367   */\n      add\n        /* \"#utility.yul\":1341:1367   */\n      swap1\n      pop\n        /* \"#utility.yul\":1377:1442   */\n      tag_193\n        /* \"#utility.yul\":1439:1440   */\n      0x00\n        /* \"#utility.yul\":1428:1437   */\n      dup4\n        /* \"#utility.yul\":1424:1441   */\n      add\n        /* \"#utility.yul\":1415:1421   */\n      dup5\n        /* \"#utility.yul\":1377:1442   */\n      tag_146\n      jump\t// in\n    tag_193:\n        /* \"#utility.yul\":1239:1449   */\n      swap3\n      swap2\n      pop\n      pop\n      jump\t// out\n        /* \"#utility.yul\":1536:1653   */\n    tag_148:\n        /* \"#utility.yul\":1645:1646   */\n      0x00\n        /* \"#utility.yul\":1642:1643   */\n      dup1\n        /* \"#utility.yul\":1635:1647   */\n      revert\n        /* \"#utility.yul\":1782:1904   */\n    tag_150:\n        /* \"#utility.yul\":1855:1879   */\n      tag_198\n        /* \"#utility.yul\":1873:1878   */\n      dup2\n        /* \"#utility.yul\":1855:1879   */\n      tag_143\n      jump\t// in\n    tag_198:\n        /* \"#utility.yul\":1848:1853   */\n      dup2\n        /* \"#utility.yul\":1845:1880   */\n      eq\n        /* \"#utility.yul\":1835:1898   */\n      tag_199\n      jumpi\n        /* \"#utility.yul\":1894:1895   */\n      0x00\n        /* \"#utility.yul\":1891:1892   */\n      dup1\n        /* \"#utility.yul\":1884:1896   */\n      revert\n        /* \"#utility.yul\":1835:1898   */\n    tag_199:\n        /* \"#utility.yul\":1782:1904   */\n      pop\n      jump\t// out\n        /* \"#utility.yul\":1910:2049   */\n    tag_151:\n        /* \"#utility.yul\":1956:1961   */\n      0x00\n        /* \"#utility.yul\":1994:2000   */\n      dup2\n        /* \"#utility.yul\":1981:2001   */\n      calldataload\n        /* \"#utility.yul\":1972:2001   */\n      swap1\n      pop\n        /* \"#utility.yul\":2010:2043   */\n      tag_201\n        /* \"#utility.yul\":2037:2042   */\n      dup2\n        /* \"#utility.yul\":2010:2043   */\n      tag_150\n      jump\t// in\n    tag_201:\n        /* \"#utility.yul\":1910:2049   */\n      swap3\n      swap2\n      pop\n      pop\n      jump\t// out\n        /* \"#utility.yul\":2055:2384   */\n    tag_61:\n        /* \"#utility.yul\":2114:2120   */\n      0x00\n        /* \"#utility.yul\":2163:2165   */\n      0x20\n        /* \"#utility.yul\":2151:2160   */\n      dup3\n        /* \"#utility.yul\":2142:2149   */\n      dup5\n        /* \"#utility.yul\":2138:2161   */\n      sub\n        /* \"#utility.yul\":2134:2166   */\n      slt\n        /* \"#utility.yul\":2131:2250   */\n      iszero\n      tag_203\n      jumpi\n        /* \"#utility.yul\":2169:2248   */\n      tag_204\n      tag_148\n      jump\t// in\n    tag_204:\n        /* \"#utility.yul\":2131:2250   */\n    tag_203:\n        /* \"#utility.yul\":2289:2290   */\n      0x00\n        /* \"#utility.yul\":2314:2367   */\n      tag_205\n        /* \"#utility.yul\":2359:2366   */\n      dup5\n        /* \"#utility.yul\":2350:2356   */\n      dup3\n        /* \"#utility.yul\":2339:2348   */\n      dup6\n        /* \"#utility.yul\":2335:2357   */\n      add\n        /* \"#utility.yul\":2314:2367   */\n      tag_151\n      jump\t// in\n    tag_205:\n        /* \"#utility.yul\":2304:2367   */\n      swap2\n      pop\n        /* \"#utility.yul\":2260:2377   */\n      pop\n        /* \"#utility.yul\":2055:2384   */\n      swap3\n      swap2\n      pop\n      pop\n      jump\t// out\n        /* \"#utility.yul\":2390:2559   */\n    tag_152:\n        /* \"#utility.yul\":2474:2485   */\n      0x00\n        /* \"#utility.yul\":2508:2514   */\n      dup3\n        /* \"#utility.yul\":2503:2506   */\n      dup3\n        /* \"#utility.yul\":2496:2515   */\n      mstore\n        /* \"#utility.yul\":2548:2552   */\n      0x20\n        /* \"#utility.yul\":2543:2546   */\n      dup3\n        /* \"#utility.yul\":2539:2553   */\n      add\n        /* \"#utility.yul\":2524:2553   */\n      swap1\n      pop\n        /* \"#utility.yul\":2390:2559   */\n      swap3\n      swap2\n      pop\n      pop\n      jump\t// out\n        /* \"#utility.yul\":2565:2725   */\n    tag_153:\n        /* \"#utility.yul\":2705:2717   */\n      0x4f6e6c7920627579657200000000000000000000000000000000000000000000\n        /* \"#utility.yul\":2701:2702   */\n      0x00\n        /* \"#utility.yul\":2693:2699   */\n      dup3\n        /* \"#utility.yul\":2689:2703   */\n      add\n        /* \"#utility.yul\":2682:2718   */\n      mstore\n        /* \"#utility.yul\":2565:2725   */\n      pop\n      jump\t// out\n        /* \"#utility.yul\":2731:3097   */\n    tag_154:\n        /* \"#utility.yul\":2873:2876   */\n      0x00\n        /* \"#utility.yul\":2894:2961   */\n      tag_209\n        /* \"#utility.yul\":2958:2960   */\n      0x0a\n        /* \"#utility.yul\":2953:2956   */\n      dup4\n        /* \"#utility.yul\":2894:2961   */\n      tag_152\n      jump\t// in\n    tag_209:\n        /* \"#utility.yul\":2887:2961   */\n      swap2\n      pop\n        /* \"#utility.yul\":2970:3063   */\n      tag_210\n        /* \"#utility.yul\":3059:3062   */\n      dup3\n        /* \"#utility.yul\":2970:3063   */\n      tag_153\n      jump\t// in\n    tag_210:\n        /* \"#utility.yul\":3088:3090   */\n      0x20\n        /* \"#utility.yul\":3083:3086   */\n      dup3\n        /* \"#utility.yul\":3079:3091   */\n      add\n        /* \"#utility.yul\":3072:3091   */\n      swap1\n      pop\n        /* \"#utility.yul\":2731:3097   */\n      swap2\n      swap1\n      pop\n      jump\t// out\n        /* \"#utility.yul\":3103:3522   */\n    tag_70:\n        /* \"#utility.yul\":3269:3273   */\n      0x00\n        /* \"#utility.yul\":3307:3309   */\n      0x20\n        /* \"#utility.yul\":3296:3305   */\n      dup3\n        /* \"#utility.yul\":3292:3310   */\n      add\n        /* \"#utility.yul\":3284:3310   */\n      swap1\n      pop\n        /* \"#utility.yul\":3356:3365   */\n      dup2\n        /* \"#utility.yul\":3350:3354   */\n      dup2\n        /* \"#utility.yul\":3346:3366   */\n      sub\n        /* \"#utility.yul\":3342:3343   */\n      0x00\n        /* \"#utility.yul\":3331:3340   */\n      dup4\n        /* \"#utility.yul\":3327:3344   */\n      add\n        /* \"#utility.yul\":3320:3367   */\n      mstore\n        /* \"#utility.yul\":3384:3515   */\n      tag_212\n        /* \"#utility.yul\":3510:3514   */\n      dup2\n        /* \"#utility.yul\":3384:3515   */\n      tag_154\n      jump\t// in\n    tag_212:\n        /* \"#utility.yul\":3376:3515   */\n      swap1\n      pop\n        /* \"#utility.yul\":3103:3522   */\n      swap2\n      swap1\n      pop\n      jump\t// out\n        /* \"#utility.yul\":3528:3698   */\n    tag_155:\n        /* \"#utility.yul\":3668:3690   */\n      0x496e73756666696369656e742062616c616e6365000000000000000000000000\n        /* \"#utility.yul\":3664:3665   */\n      0x00\n        /* \"#utility.yul\":3656:3662   */\n      dup3\n        /* \"#utility.yul\":3652:3666   */\n      add\n        /* \"#utility.yul\":3645:3691   */\n      mstore\n        /* \"#utility.yul\":3528:3698   */\n      pop\n      jump\t// out\n        /* \"#utility.yul\":3704:4070   */\n    tag_156:\n        /* \"#utility.yul\":3846:3849   */\n      0x00\n        /* \"#utility.yul\":3867:3934   */\n      tag_215\n        /* \"#utility.yul\":3931:3933   */\n      0x14\n        /* \"#utility.yul\":3926:3929   */\n      dup4\n        /* \"#utility.yul\":3867:3934   */\n      tag_152\n      jump\t// in\n    tag_215:\n        /* \"#utility.yul\":3860:3934   */\n      swap2\n      pop\n        /* \"#utility.yul\":3943:4036   */\n      tag_216\n        /* \"#utility.yul\":4032:4035   */\n      dup3\n        /* \"#utility.yul\":3943:4036   */\n      tag_155\n      jump\t// in\n    tag_216:\n        /* \"#utility.yul\":4061:4063   */\n      0x20\n        /* \"#utility.yul\":4056:4059   */\n      dup3\n        /* \"#utility.yul\":4052:4064   */\n      add\n        /* \"#utility.yul\":4045:4064   */\n      swap1\n      pop\n        /* \"#utility.yul\":3704:4070   */\n      swap2\n      swap1\n      pop\n      jump\t// out\n        /* \"#utility.yul\":4076:4495   */\n    tag_74:\n        /* \"#utility.yul\":4242:4246   */\n      0x00\n        /* \"#utility.yul\":4280:4282   */\n      0x20\n        /* \"#utility.yul\":4269:4278   */\n      dup3\n        /* \"#utility.yul\":4265:4283   */\n      add\n        /* \"#utility.yul\":4257:4283   */\n      swap1\n      pop\n        /* \"#utility.yul\":4329:4338   */\n      dup2\n        /* \"#utility.yul\":4323:4327   */\n      dup2\n        /* \"#utility.yul\":4319:4339   */\n      sub\n        /* \"#utility.yul\":4315:4316   */\n      0x00\n        /* \"#utility.yul\":4304:4313   */\n      dup4\n        /* \"#utility.yul\":4300:4317   */\n      add\n        /* \"#utility.yul\":4293:4340   */\n      mstore\n        /* \"#utility.yul\":4357:4488   */\n      tag_218\n        /* \"#utility.yul\":4483:4487   */\n      dup2\n        /* \"#utility.yul\":4357:4488   */\n      tag_156\n      jump\t// in\n    tag_218:\n        /* \"#utility.yul\":4349:4488   */\n      swap1\n      pop\n        /* \"#utility.yul\":4076:4495   */\n      swap2\n      swap1\n      pop\n      jump\t// out\n        /* \"#utility.yul\":4501:4666   */\n    tag_157:\n        /* \"#utility.yul\":4641:4658   */\n      0x4f6e6c792061726269747261746f720000000000000000000000000000000000\n        /* \"#utility.yul\":4637:4638   */\n      0x00\n        /* \"#utility.yul\":4629:4635   */\n      dup3\n        /* \"#utility.yul\":4625:4639   */\n      add\n        /* \"#utility.yul\":4618:4659   */\n      mstore\n        /* \"#utility.yul\":4501:4666   */\n      pop\n      jump\t// out\n        /* \"#utility.yul\":4672:5038   */\n    tag_158:\n        /* \"#utility.yul\":4814:4817   */\n      0x00\n        /* \"#utility.yul\":4835:4902   */\n      tag_221\n        /* \"#utility.yul\":4899:4901   */\n      0x0f\n        /* \"#utility.yul\":4894:4897   */\n      dup4\n        /* \"#utility.yul\":4835:4902   */\n      tag_152\n      jump\t// in\n    tag_221:\n        /* \"#utility.yul\":4828:4902   */\n      swap2\n      pop\n        /* \"#utility.yul\":4911:5004   */\n      tag_222\n        /* \"#utility.yul\":5000:5003   */\n      dup3\n        /* \"#utility.yul\":4911:5004   */\n      tag_157\n      jump\t// in\n    tag_222:\n        /* \"#utility.yul\":5029:5031   */\n      0x20\n        /* \"#utility.yul\":5024:5027   */\n      dup3\n        /* \"#utility.yul\":5020:5032   */\n      add\n        /* \"#utility.yul\":5013:5032   */\n      swap1\n      pop\n        /* \"#utility.yul\":4672:5038   */\n      swap2\n      swap1\n      pop\n      jump\t// out\n        /* \"#utility.yul\":5044:5463   */\n    tag_80:\n        /* \"#utility.yul\":5210:5214   */\n      0x00\n        /* \"#utility.yul\":5248:5250   */\n      0x20\n        /* \"#utility.yul\":5237:5246   */\n      dup3\n        /* \"#utility.yul\":5233:5251   */\n      add\n        /* \"#utility.yul\":5225:5251   */\n      swap1\n      pop\n        /* \"#utility.yul\":5297:5306   */\n      dup2\n        /* \"#utility.yul\":5291:5295   */\n      dup2\n        /* \"#utility.yul\":5287:5307   */\n      sub\n        /* \"#utility.yul\":5283:5284   */\n      0x00\n        /* \"#utility.yul\":5272:5281   */\n      dup4\n        /* \"#utility.yul\":5268:5285   */\n      add\n        /* \"#utility.yul\":5261:5308   */\n      mstore\n        /* \"#utility.yul\":5325:5456   */\n      tag_224\n        /* \"#utility.yul\":5451:5455   */\n      dup2\n        /* \"#utility.yul\":5325:5456   */\n      tag_158\n      jump\t// in\n    tag_224:\n        /* \"#utility.yul\":5317:5456   */\n      swap1\n      pop\n        /* \"#utility.yul\":5044:5463   */\n      swap2\n      swap1\n      pop\n      jump\t// out\n        /* \"#utility.yul\":5469:5649   */\n    tag_159:\n        /* \"#utility.yul\":5609:5641   */\n      0x4275796572206d7573742068617665206465706f737465642066756e64730000\n        /* \"#utility.yul\":5605:5606   */\n      0x00\n        /* \"#utility.yul\":5597:5603   */\n      dup3\n        /* \"#utility.yul\":5593:5607   */\n      add\n        /* \"#utility.yul\":5586:5642   */\n      mstore\n        /* \"#utility.yul\":5469:5649   */\n      pop\n      jump\t// out\n        /* \"#utility.yul\":5655:6021   */\n    tag_160:\n        /* \"#utility.yul\":5797:5800   */\n      0x00\n        /* \"#utility.yul\":5818:5885   */\n      tag_227\n        /* \"#utility.yul\":5882:5884   */\n      0x1e\n        /* \"#utility.yul\":5877:5880   */\n      dup4\n        /* \"#utility.yul\":5818:5885   */\n      tag_152\n      jump\t// in\n    tag_227:\n        /* \"#utility.yul\":5811:5885   */\n      swap2\n      pop\n        /* \"#utility.yul\":5894:5987   */\n      tag_228\n        /* \"#utility.yul\":5983:5986   */\n      dup3\n        /* \"#utility.yul\":5894:5987   */\n      tag_159\n      jump\t// in\n    tag_228:\n        /* \"#utility.yul\":6012:6014   */\n      0x20\n        /* \"#utility.yul\":6007:6010   */\n      dup3\n        /* \"#utility.yul\":6003:6015   */\n      add\n        /* \"#utility.yul\":5996:6015   */\n      swap1\n      pop\n        /* \"#utility.yul\":5655:6021   */\n      swap2\n      swap1\n      pop\n      jump\t// out\n        /* \"#utility.yul\":6027:6446   */\n    tag_84:\n        /* \"#utility.yul\":6193:6197   */\n      0x00\n        /* \"#utility.yul\":6231:6233   */\n      0x20\n        /* \"#utility.yul\":6220:6229   */\n      dup3\n        /* \"#utility.yul\":6216:6234   */\n      add\n        /* \"#utility.yul\":6208:6234   */\n      swap1\n      pop\n        /* \"#utility.yul\":6280:6289   */\n      dup2\n        /* \"#utility.yul\":6274:6278   */\n      dup2\n        /* \"#utility.yul\":6270:6290   */\n      sub\n        /* \"#utility.yul\":6266:6267   */\n      0x00\n        /* \"#utility.yul\":6255:6264   */\n      dup4\n        /* \"#utility.yul\":6251:6268   */\n      add\n        /* \"#utility.yul\":6244:6291   */\n      mstore\n        /* \"#utility.yul\":6308:6439   */\n      tag_230\n        /* \"#utility.yul\":6434:6438   */\n      dup2\n        /* \"#utility.yul\":6308:6439   */\n      tag_160\n      jump\t// in\n    tag_230:\n        /* \"#utility.yul\":6300:6439   */\n      swap1\n      pop\n        /* \"#utility.yul\":6027:6446   */\n      swap2\n      swap1\n      pop\n      jump\t// out\n        /* \"#utility.yul\":6452:6672   */\n    tag_161:\n        /* \"#utility.yul\":6592:6626   */\n      0x46756e6473206861766520616c7265616479206265656e206469736275727365\n        /* \"#utility.yul\":6588:6589   */\n      0x00\n        /* \"#utility.yul\":6580:6586   */\n      dup3\n        /* \"#utility.yul\":6576:6590   */\n      add\n        /* \"#utility.yul\":6569:6627   */\n      mstore\n        /* \"#utility.yul\":6661:6664   */\n      0x6400000000000000000000000000000000000000000000000000000000000000\n        /* \"#utility.yul\":6656:6658   */\n      0x20\n        /* \"#utility.yul\":6648:6654   */\n      dup3\n        /* \"#utility.yul\":6644:6659   */\n      add\n        /* \"#utility.yul\":6637:6665   */\n      mstore\n        /* \"#utility.yul\":6452:6672   */\n      pop\n      jump\t// out\n        /* \"#utility.yul\":6678:7044   */\n    tag_162:\n        /* \"#utility.yul\":6820:6823   */\n      0x00\n        /* \"#utility.yul\":6841:6908   */\n      tag_233\n        /* \"#utility.yul\":6905:6907   */\n      0x21\n        /* \"#utility.yul\":6900:6903   */\n      dup4\n        /* \"#utility.yul\":6841:6908   */\n      tag_152\n      jump\t// in\n    tag_233:\n        /* \"#utility.yul\":6834:6908   */\n      swap2\n      pop\n        /* \"#utility.yul\":6917:7010   */\n      tag_234\n        /* \"#utility.yul\":7006:7009   */\n      dup3\n        /* \"#utility.yul\":6917:7010   */\n      tag_161\n      jump\t// in\n    tag_234:\n        /* \"#utility.yul\":7035:7037   */\n      0x40\n        /* \"#utility.yul\":7030:7033   */\n      dup3\n        /* \"#utility.yul\":7026:7038   */\n      add\n        /* \"#utility.yul\":7019:7038   */\n      swap1\n      pop\n        /* \"#utility.yul\":6678:7044   */\n      swap2\n      swap1\n      pop\n      jump\t// out\n        /* \"#utility.yul\":7050:7469   */\n    tag_87:\n        /* \"#utility.yul\":7216:7220   */\n      0x00\n        /* \"#utility.yul\":7254:7256   */\n      0x20\n        /* \"#utility.yul\":7243:7252   */\n      dup3\n        /* \"#utility.yul\":7239:7257   */\n      add\n        /* \"#utility.yul\":7231:7257   */\n      swap1\n      pop\n        /* \"#utility.yul\":7303:7312   */\n      dup2\n        /* \"#utility.yul\":7297:7301   */\n      dup2\n        /* \"#utility.yul\":7293:7313   */\n      sub\n        /* \"#utility.yul\":7289:7290   */\n      0x00\n        /* \"#utility.yul\":7278:7287   */\n      dup4\n        /* \"#utility.yul\":7274:7291   */\n      add\n        /* \"#utility.yul\":7267:7314   */\n      mstore\n        /* \"#utility.yul\":7331:7462   */\n      tag_236\n        /* \"#utility.yul\":7457:7461   */\n      dup2\n        /* \"#utility.yul\":7331:7462   */\n      tag_162\n      jump\t// in\n    tag_236:\n        /* \"#utility.yul\":7323:7462   */\n      swap1\n      pop\n        /* \"#utility.yul\":7050:7469   */\n      swap2\n      swap1\n      pop\n      jump\t// out\n        /* \"#utility.yul\":7475:7654   */\n    tag_163:\n        /* \"#utility.yul\":7615:7646   */\n      0x46756e64732068617665206e6f74206265656e206465706f7369746564000000\n        /* \"#utility.yul\":7611:7612   */\n      0x00\n        /* \"#utility.yul\":7603:7609   */\n      dup3\n        /* \"#utility.yul\":7599:7613   */\n      add\n        /* \"#utility.yul\":7592:7647   */\n      mstore\n        /* \"#utility.yul\":7475:7654   */\n      pop\n      jump\t// out\n        /* \"#utility.yul\":7660:8026   */\n    tag_164:\n        /* \"#utility.yul\":7802:7805   */\n      0x00\n        /* \"#utility.yul\":7823:7890   */\n      tag_239\n        /* \"#utility.yul\":7887:7889   */\n      0x1d\n        /* \"#utility.yul\":7882:7885   */\n      dup4\n        /* \"#utility.yul\":7823:7890   */\n      tag_152\n      jump\t// in\n    tag_239:\n        /* \"#utility.yul\":7816:7890   */\n      swap2\n      pop\n        /* \"#utility.yul\":7899:7992   */\n      tag_240\n        /* \"#utility.yul\":7988:7991   */\n      dup3\n        /* \"#utility.yul\":7899:7992   */\n      tag_163\n      jump\t// in\n    tag_240:\n        /* \"#utility.yul\":8017:8019   */\n      0x20\n        /* \"#utility.yul\":8012:8015   */\n      dup3\n        /* \"#utility.yul\":8008:8020   */\n      add\n        /* \"#utility.yul\":8001:8020   */\n      swap1\n      pop\n        /* \"#utility.yul\":7660:8026   */\n      swap2\n      swap1\n      pop\n      jump\t// out\n        /* \"#utility.yul\":8032:8451   */\n    tag_98:\n        /* \"#utility.yul\":8198:8202   */\n      0x00\n        /* \"#utility.yul\":8236:8238   */\n      0x20\n        /* \"#utility.yul\":8225:8234   */\n      dup3\n        /* \"#utility.yul\":8221:8239   */\n      add\n        /* \"#utility.yul\":8213:8239   */\n      swap1\n      pop\n        /* \"#utility.yul\":8285:8294   */\n      dup2\n        /* \"#utility.yul\":8279:8283   */\n      dup2\n        /* \"#utility.yul\":8275:8295   */\n      sub\n        /* \"#utility.yul\":8271:8272   */\n      0x00\n        /* \"#utility.yul\":8260:8269   */\n      dup4\n        /* \"#utility.yul\":8256:8273   */\n      add\n        /* \"#utility.yul\":8249:8296   */\n      mstore\n        /* \"#utility.yul\":8313:8444   */\n      tag_242\n        /* \"#utility.yul\":8439:8443   */\n      dup2\n        /* \"#utility.yul\":8313:8444   */\n      tag_164\n      jump\t// in\n    tag_242:\n        /* \"#utility.yul\":8305:8444   */\n      swap1\n      pop\n        /* \"#utility.yul\":8032:8451   */\n      swap2\n      swap1\n      pop\n      jump\t// out\n        /* \"#utility.yul\":8457:8631   */\n    tag_165:\n        /* \"#utility.yul\":8597:8623   */\n      0x496e636f7272656374206465706f73697420616d6f756e740000000000000000\n        /* \"#utility.yul\":8593:8594   */\n      0x00\n        /* \"#utility.yul\":8585:8591   */\n      dup3\n        /* \"#utility.yul\":8581:8595   */\n      add\n        /* \"#utility.yul\":8574:8624   */\n      mstore\n        /* \"#utility.yul\":8457:8631   */\n      pop\n      jump\t// out\n        /* \"#utility.yul\":8637:9003   */\n    tag_166:\n        /* \"#utility.yul\":8779:8782   */\n      0x00\n        /* \"#utility.yul\":8800:8867   */\n      tag_245\n        /* \"#utility.yul\":8864:8866   */\n      0x18\n        /* \"#utility.yul\":8859:8862   */\n      dup4\n        /* \"#utility.yul\":8800:8867   */\n      tag_152\n      jump\t// in\n    tag_245:\n        /* \"#utility.yul\":8793:8867   */\n      swap2\n      pop\n        /* \"#utility.yul\":8876:8969   */\n      tag_246\n        /* \"#utility.yul\":8965:8968   */\n      dup3\n        /* \"#utility.yul\":8876:8969   */\n      tag_165\n      jump\t// in\n    tag_246:\n        /* \"#utility.yul\":8994:8996   */\n      0x20\n        /* \"#utility.yul\":8989:8992   */\n      dup3\n        /* \"#utility.yul\":8985:8997   */\n      add\n        /* \"#utility.yul\":8978:8997   */\n      swap1\n      pop\n        /* \"#utility.yul\":8637:9003   */\n      swap2\n      swap1\n      pop\n      jump\t// out\n        /* \"#utility.yul\":9009:9428   */\n    tag_107:\n        /* \"#utility.yul\":9175:9179   */\n      0x00\n        /* \"#utility.yul\":9213:9215   */\n      0x20\n        /* \"#utility.yul\":9202:9211   */\n      dup3\n        /* \"#utility.yul\":9198:9216   */\n      add\n        /* \"#utility.yul\":9190:9216   */\n      swap1\n      pop\n        /* \"#utility.yul\":9262:9271   */\n      dup2\n        /* \"#utility.yul\":9256:9260   */\n      dup2\n        /* \"#utility.yul\":9252:9272   */\n      sub\n        /* \"#utility.yul\":9248:9249   */\n      0x00\n        /* \"#utility.yul\":9237:9246   */\n      dup4\n        /* \"#utility.yul\":9233:9250   */\n      add\n        /* \"#utility.yul\":9226:9273   */\n      mstore\n        /* \"#utility.yul\":9290:9421   */\n      tag_248\n        /* \"#utility.yul\":9416:9420   */\n      dup2\n        /* \"#utility.yul\":9290:9421   */\n      tag_166\n      jump\t// in\n    tag_248:\n        /* \"#utility.yul\":9282:9421   */\n      swap1\n      pop\n        /* \"#utility.yul\":9009:9428   */\n      swap2\n      swap1\n      pop\n      jump\t// out\n        /* \"#utility.yul\":9434:9661   */\n    tag_167:\n        /* \"#utility.yul\":9574:9608   */\n      0x63616c6c6572206d757374206265207468652073656c6c6572206f7220746865\n        /* \"#utility.yul\":9570:9571   */\n      0x00\n        /* \"#utility.yul\":9562:9568   */\n      dup3\n        /* \"#utility.yul\":9558:9572   */\n      add\n        /* \"#utility.yul\":9551:9609   */\n      mstore\n        /* \"#utility.yul\":9643:9653   */\n      0x2061726269746572000000000000000000000000000000000000000000000000\n        /* \"#utility.yul\":9638:9640   */\n      0x20\n        /* \"#utility.yul\":9630:9636   */\n      dup3\n        /* \"#utility.yul\":9626:9641   */\n      add\n        /* \"#utility.yul\":9619:9654   */\n      mstore\n        /* \"#utility.yul\":9434:9661   */\n      pop\n      jump\t// out\n        /* \"#utility.yul\":9667:10033   */\n    tag_168:\n        /* \"#utility.yul\":9809:9812   */\n      0x00\n        /* \"#utility.yul\":9830:9897   */\n      tag_251\n        /* \"#utility.yul\":9894:9896   */\n      0x28\n        /* \"#utility.yul\":9889:9892   */\n      dup4\n        /* \"#utility.yul\":9830:9897   */\n      tag_152\n      jump\t// in\n    tag_251:\n        /* \"#utility.yul\":9823:9897   */\n      swap2\n      pop\n        /* \"#utility.yul\":9906:9999   */\n      tag_252\n        /* \"#utility.yul\":9995:9998   */\n      dup3\n        /* \"#utility.yul\":9906:9999   */\n      tag_167\n      jump\t// in\n    tag_252:\n        /* \"#utility.yul\":10024:10026   */\n      0x40\n        /* \"#utility.yul\":10019:10022   */\n      dup3\n        /* \"#utility.yul\":10015:10027   */\n      add\n        /* \"#utility.yul\":10008:10027   */\n      swap1\n      pop\n        /* \"#utility.yul\":9667:10033   */\n      swap2\n      swap1\n      pop\n      jump\t// out\n        /* \"#utility.yul\":10039:10458   */\n    tag_112:\n        /* \"#utility.yul\":10205:10209   */\n      0x00\n        /* \"#utility.yul\":10243:10245   */\n      0x20\n        /* \"#utility.yul\":10232:10241   */\n      dup3\n        /* \"#utility.yul\":10228:10246   */\n      add\n        /* \"#utility.yul\":10220:10246   */\n      swap1\n      pop\n        /* \"#utility.yul\":10292:10301   */\n      dup2\n        /* \"#utility.yul\":10286:10290   */\n      dup2\n        /* \"#utility.yul\":10282:10302   */\n      sub\n        /* \"#utility.yul\":10278:10279   */\n      0x00\n        /* \"#utility.yul\":10267:10276   */\n      dup4\n        /* \"#utility.yul\":10263:10280   */\n      add\n        /* \"#utility.yul\":10256:10303   */\n      mstore\n        /* \"#utility.yul\":10320:10451   */\n      tag_254\n        /* \"#utility.yul\":10446:10450   */\n      dup2\n        /* \"#utility.yul\":10320:10451   */\n      tag_168\n      jump\t// in\n    tag_254:\n        /* \"#utility.yul\":10312:10451   */\n      swap1\n      pop\n        /* \"#utility.yul\":10039:10458   */\n      swap2\n      swap1\n      pop\n      jump\t// out\n        /* \"#utility.yul\":10464:10645   */\n    tag_169:\n        /* \"#utility.yul\":10604:10637   */\n      0x4275796572206d7573742068617665206465706f73697465642066756e647300\n        /* \"#utility.yul\":10600:10601   */\n      0x00\n        /* \"#utility.yul\":10592:10598   */\n      dup3\n        /* \"#utility.yul\":10588:10602   */\n      add\n        /* \"#utility.yul\":10581:10638   */\n      mstore\n        /* \"#utility.yul\":10464:10645   */\n      pop\n      jump\t// out\n        /* \"#utility.yul\":10651:11017   */\n    tag_170:\n        /* \"#utility.yul\":10793:10796   */\n      0x00\n        /* \"#utility.yul\":10814:10881   */\n      tag_257\n        /* \"#utility.yul\":10878:10880   */\n      0x1f\n        /* \"#utility.yul\":10873:10876   */\n      dup4\n        /* \"#utility.yul\":10814:10881   */\n      tag_152\n      jump\t// in\n    tag_257:\n        /* \"#utility.yul\":10807:10881   */\n      swap2\n      pop\n        /* \"#utility.yul\":10890:10983   */\n      tag_258\n        /* \"#utility.yul\":10979:10982   */\n      dup3\n        /* \"#utility.yul\":10890:10983   */\n      tag_169\n      jump\t// in\n    tag_258:\n        /* \"#utility.yul\":11008:11010   */\n      0x20\n        /* \"#utility.yul\":11003:11006   */\n      dup3\n        /* \"#utility.yul\":10999:11011   */\n      add\n        /* \"#utility.yul\":10992:11011   */\n      swap1\n      pop\n        /* \"#utility.yul\":10651:11017   */\n      swap2\n      swap1\n      pop\n      jump\t// out\n        /* \"#utility.yul\":11023:11442   */\n    tag_116:\n        /* \"#utility.yul\":11189:11193   */\n      0x00\n        /* \"#utility.yul\":11227:11229   */\n      0x20\n        /* \"#utility.yul\":11216:11225   */\n      dup3\n        /* \"#utility.yul\":11212:11230   */\n      add\n        /* \"#utility.yul\":11204:11230   */\n      swap1\n      pop\n        /* \"#utility.yul\":11276:11285   */\n      dup2\n        /* \"#utility.yul\":11270:11274   */\n      dup2\n        /* \"#utility.yul\":11266:11286   */\n      sub\n        /* \"#utility.yul\":11262:11263   */\n      0x00\n        /* \"#utility.yul\":11251:11260   */\n      dup4\n        /* \"#utility.yul\":11247:11264   */\n      add\n        /* \"#utility.yul\":11240:11287   */\n      mstore\n        /* \"#utility.yul\":11304:11435   */\n      tag_260\n        /* \"#utility.yul\":11430:11434   */\n      dup2\n        /* \"#utility.yul\":11304:11435   */\n      tag_170\n      jump\t// in\n    tag_260:\n        /* \"#utility.yul\":11296:11435   */\n      swap1\n      pop\n        /* \"#utility.yul\":11023:11442   */\n      swap2\n      swap1\n      pop\n      jump\t// out\n        /* \"#utility.yul\":11448:11609   */\n    tag_171:\n        /* \"#utility.yul\":11588:11601   */\n      0x4f6e6c792073656c6c6572000000000000000000000000000000000000000000\n        /* \"#utility.yul\":11584:11585   */\n      0x00\n        /* \"#utility.yul\":11576:11582   */\n      dup3\n        /* \"#utility.yul\":11572:11586   */\n      add\n        /* \"#utility.yul\":11565:11602   */\n      mstore\n        /* \"#utility.yul\":11448:11609   */\n      pop\n      jump\t// out\n        /* \"#utility.yul\":11615:11981   */\n    tag_172:\n        /* \"#utility.yul\":11757:11760   */\n      0x00\n        /* \"#utility.yul\":11778:11845   */\n      tag_263\n        /* \"#utility.yul\":11842:11844   */\n      0x0b\n        /* \"#utility.yul\":11837:11840   */\n      dup4\n        /* \"#utility.yul\":11778:11845   */\n      tag_152\n      jump\t// in\n    tag_263:\n        /* \"#utility.yul\":11771:11845   */\n      swap2\n      pop\n        /* \"#utility.yul\":11854:11947   */\n      tag_264\n        /* \"#utility.yul\":11943:11946   */\n      dup3\n        /* \"#utility.yul\":11854:11947   */\n      tag_171\n      jump\t// in\n    tag_264:\n        /* \"#utility.yul\":11972:11974   */\n      0x20\n        /* \"#utility.yul\":11967:11970   */\n      dup3\n        /* \"#utility.yul\":11963:11975   */\n      add\n        /* \"#utility.yul\":11956:11975   */\n      swap1\n      pop\n        /* \"#utility.yul\":11615:11981   */\n      swap2\n      swap1\n      pop\n      jump\t// out\n        /* \"#utility.yul\":11987:12406   */\n    tag_128:\n        /* \"#utility.yul\":12153:12157   */\n      0x00\n        /* \"#utility.yul\":12191:12193   */\n      0x20\n        /* \"#utility.yul\":12180:12189   */\n      dup3\n        /* \"#utility.yul\":12176:12194   */\n      add\n        /* \"#utility.yul\":12168:12194   */\n      swap1\n      pop\n        /* \"#utility.yul\":12240:12249   */\n      dup2\n        /* \"#utility.yul\":12234:12238   */\n      dup2\n        /* \"#utility.yul\":12230:12250   */\n      sub\n        /* \"#utility.yul\":12226:12227   */\n      0x00\n        /* \"#utility.yul\":12215:12224   */\n      dup4\n        /* \"#utility.yul\":12211:12228   */\n      add\n        /* \"#utility.yul\":12204:12251   */\n      mstore\n        /* \"#utility.yul\":12268:12399   */\n      tag_266\n        /* \"#utility.yul\":12394:12398   */\n      dup2\n        /* \"#utility.yul\":12268:12399   */\n      tag_172\n      jump\t// in\n    tag_266:\n        /* \"#utility.yul\":12260:12399   */\n      swap1\n      pop\n        /* \"#utility.yul\":11987:12406   */\n      swap2\n      swap1\n      pop\n      jump\t// out\n        /* \"#utility.yul\":12412:12576   */\n    tag_173:\n        /* \"#utility.yul\":12552:12568   */\n      0x496e76616c696420616d6f756e74000000000000000000000000000000000000\n        /* \"#utility.yul\":12548:12549   */\n      0x00\n        /* \"#utility.yul\":12540:12546   */\n      dup3\n        /* \"#utility.yul\":12536:12550   */\n      add\n        /* \"#utility.yul\":12529:12569   */\n      mstore\n        /* \"#utility.yul\":12412:12576   */\n      pop\n      jump\t// out\n        /* \"#utility.yul\":12582:12948   */\n    tag_174:\n        /* \"#utility.yul\":12724:12727   */\n      0x00\n        /* \"#utility.yul\":12745:12812   */\n      tag_269\n        /* \"#utility.yul\":12809:12811   */\n      0x0e\n        /* \"#utility.yul\":12804:12807   */\n      dup4\n        /* \"#utility.yul\":12745:12812   */\n      tag_152\n      jump\t// in\n    tag_269:\n        /* \"#utility.yul\":12738:12812   */\n      swap2\n      pop\n        /* \"#utility.yul\":12821:12914   */\n      tag_270\n        /* \"#utility.yul\":12910:12913   */\n      dup3\n        /* \"#utility.yul\":12821:12914   */\n      tag_173\n      jump\t// in\n    tag_270:\n        /* \"#utility.yul\":12939:12941   */\n      0x20\n        /* \"#utility.yul\":12934:12937   */\n      dup3\n        /* \"#utility.yul\":12930:12942   */\n      add\n        /* \"#utility.yul\":12923:12942   */\n      swap1\n      pop\n        /* \"#utility.yul\":12582:12948   */\n      swap2\n      swap1\n      pop\n      jump\t// out\n        /* \"#utility.yul\":12954:13373   */\n    tag_133:\n        /* \"#utility.yul\":13120:13124   */\n      0x00\n        /* \"#utility.yul\":13158:13160   */\n      0x20\n        /* \"#utility.yul\":13147:13156   */\n      dup3\n        /* \"#utility.yul\":13143:13161   */\n      add\n        /* \"#utility.yul\":13135:13161   */\n      swap1\n      pop\n        /* \"#utility.yul\":13207:13216   */\n      dup2\n        /* \"#utility.yul\":13201:13205   */\n      dup2\n        /* \"#utility.yul\":13197:13217   */\n      sub\n        /* \"#utility.yul\":13193:13194   */\n      0x00\n        /* \"#utility.yul\":13182:13191   */\n      dup4\n        /* \"#utility.yul\":13178:13195   */\n      add\n        /* \"#utility.yul\":13171:13218   */\n      mstore\n        /* \"#utility.yul\":13235:13366   */\n      tag_272\n        /* \"#utility.yul\":13361:13365   */\n      dup2\n        /* \"#utility.yul\":13235:13366   */\n      tag_174\n      jump\t// in\n    tag_272:\n        /* \"#utility.yul\":13227:13366   */\n      swap1\n      pop\n        /* \"#utility.yul\":12954:13373   */\n      swap2\n      swap1\n      pop\n      jump\t// out\n        /* \"#utility.yul\":13379:13559   */\n    tag_175:\n        /* \"#utility.yul\":13427:13504   */\n      0x4e487b7100000000000000000000000000000000000000000000000000000000\n        /* \"#utility.yul\":13424:13425   */\n      0x00\n        /* \"#utility.yul\":13417:13505   */\n      mstore\n        /* \"#utility.yul\":13524:13528   */\n      0x11\n        /* \"#utility.yul\":13521:13522   */\n      0x04\n        /* \"#utility.yul\":13514:13529   */\n      mstore\n        /* \"#utility.yul\":13548:13552   */\n      0x24\n        /* \"#utility.yul\":13545:13546   */\n      0x00\n        /* \"#utility.yul\":13538:13553   */\n      revert\n        /* \"#utility.yul\":13565:13759   */\n    tag_135:\n        /* \"#utility.yul\":13605:13609   */\n      0x00\n        /* \"#utility.yul\":13625:13645   */\n      tag_275\n        /* \"#utility.yul\":13643:13644   */\n      dup3\n        /* \"#utility.yul\":13625:13645   */\n      tag_143\n      jump\t// in\n    tag_275:\n        /* \"#utility.yul\":13620:13645   */\n      swap2\n      pop\n        /* \"#utility.yul\":13659:13679   */\n      tag_276\n        /* \"#utility.yul\":13677:13678   */\n      dup4\n        /* \"#utility.yul\":13659:13679   */\n      tag_143\n      jump\t// in\n    tag_276:\n        /* \"#utility.yul\":13654:13679   */\n      swap3\n      pop\n        /* \"#utility.yul\":13703:13704   */\n      dup3\n        /* \"#utility.yul\":13700:13701   */\n      dup3\n        /* \"#utility.yul\":13696:13705   */\n      sub\n        /* \"#utility.yul\":13688:13705   */\n      swap1\n      pop\n        /* \"#utility.yul\":13727:13728   */\n      dup2\n        /* \"#utility.yul\":13721:13725   */\n      dup2\n        /* \"#utility.yul\":13718:13729   */\n      gt\n        /* \"#utility.yul\":13715:13752   */\n      iszero\n      tag_277\n      jumpi\n        /* \"#utility.yul\":13732:13750   */\n      tag_278\n      tag_175\n      jump\t// in\n    tag_278:\n        /* \"#utility.yul\":13715:13752   */\n    tag_277:\n        /* \"#utility.yul\":13565:13759   */\n      swap3\n      swap2\n      pop\n      pop\n      jump\t// out\n        /* \"#utility.yul\":13765:14097   */\n    tag_139:\n        /* \"#utility.yul\":13886:13890   */\n      0x00\n        /* \"#utility.yul\":13924:13926   */\n      0x40\n        /* \"#utility.yul\":13913:13922   */\n      dup3\n        /* \"#utility.yul\":13909:13927   */\n      add\n        /* \"#utility.yul\":13901:13927   */\n      swap1\n      pop\n        /* \"#utility.yul\":13937:14008   */\n      tag_280\n        /* \"#utility.yul\":14005:14006   */\n      0x00\n        /* \"#utility.yul\":13994:14003   */\n      dup4\n        /* \"#utility.yul\":13990:14007   */\n      add\n        /* \"#utility.yul\":13981:13987   */\n      dup6\n        /* \"#utility.yul\":13937:14008   */\n      tag_144\n      jump\t// in\n    tag_280:\n        /* \"#utility.yul\":14018:14090   */\n      tag_281\n        /* \"#utility.yul\":14086:14088   */\n      0x20\n        /* \"#utility.yul\":14075:14084   */\n      dup4\n        /* \"#utility.yul\":14071:14089   */\n      add\n        /* \"#utility.yul\":14062:14068   */\n      dup5\n        /* \"#utility.yul\":14018:14090   */\n      tag_144\n      jump\t// in\n    tag_281:\n        /* \"#utility.yul\":13765:14097   */\n      swap4\n      swap3\n      pop\n      pop\n      pop\n      jump\t// out\n\n    auxdata: 0xa2646970667358221220d2c62c17ef42600ff005059207944e8c7507d68c2dc54c0d7fd0b0f1b106b4d564736f6c634300081a0033\n}\n",
				"bytecode": {
					"linkReferences": {},
					"object": "608060405234801561000f575f80fd5b5060405161162a38038061162a83398181016040528101906100319190610192565b835f806101000a81548173ffffffffffffffffffffffffffffffffffffffff021916908373ffffffffffffffffffffffffffffffffffffffff1602179055508260015f6101000a81548173ffffffffffffffffffffffffffffffffffffffff021916908373ffffffffffffffffffffffffffffffffffffffff16021790555081600360016101000a81548173ffffffffffffffffffffffffffffffffffffffff021916908373ffffffffffffffffffffffffffffffffffffffff16021790555080600281905550505050506101f6565b5f80fd5b5f73ffffffffffffffffffffffffffffffffffffffff82169050919050565b5f61012e82610105565b9050919050565b61013e81610124565b8114610148575f80fd5b50565b5f8151905061015981610135565b92915050565b5f819050919050565b6101718161015f565b811461017b575f80fd5b50565b5f8151905061018c81610168565b92915050565b5f805f80608085870312156101aa576101a9610101565b5b5f6101b78782880161014b565b94505060206101c88782880161014b565b93505060406101d98782880161014b565b92505060606101ea8782880161017e565b91505092959194509250565b611427806102035f395ff3fe6080604052600436106100c1575f3560e01c8063aa8c217c1161007e578063d1a52e3011610058578063d1a52e30146101e3578063e8a61cc81461020d578063ecdef07514610223578063fe25e00a1461024b576100c1565b8063aa8c217c14610185578063c52f2e08146101af578063d0e30db0146101d9576100c1565b806308551a53146100c55780633ccfd60b146100ef57806345d30a17146101055780635e10177b1461012f5780637150d8ae1461014557806386d1a69f1461016f575b5f80fd5b3480156100d0575f80fd5b506100d9610275565b6040516100e69190610dc0565b60405180910390f35b3480156100fa575f80fd5b5061010361029a565b005b348015610110575f80fd5b506101196103cd565b6040516101269190610df1565b60405180910390f35b34801561013a575f80fd5b506101436103d3565b005b348015610150575f80fd5b50610159610643565b6040516101669190610dc0565b60405180910390f35b34801561017a575f80fd5b50610183610666565b005b348015610190575f80fd5b506101996107c3565b6040516101a69190610df1565b60405180910390f35b3480156101ba575f80fd5b506101c36107c9565b6040516101d09190610e24565b60405180910390f35b6101e16107db565b005b3480156101ee575f80fd5b506101f76108c8565b6040516102049190610e24565b60405180910390f35b348015610218575f80fd5b506102216108da565b005b34801561022e575f80fd5b5061024960048036038101906102449190610e6b565b610bbf565b005b348015610256575f80fd5b5061025f610d5b565b60405161026c9190610dc0565b60405180910390f35b60015f9054906101000a900473ffffffffffffffffffffffffffffffffffffffff1681565b5f8054906101000a900473ffffffffffffffffffffffffffffffffffffffff1673ffffffffffffffffffffffffffffffffffffffff163373ffffffffffffffffffffffffffffffffffffffff1614610327576040517f08c379a000000000000000000000000000000000000000000000000000000000815260040161031e90610ef0565b60405180910390fd5b60025447101561036c576040517f08c379a000000000000000000000000000000000000000000000000000000000815260040161036390610f58565b60405180910390fd5b3373ffffffffffffffffffffffffffffffffffffffff166108fc60025490811502906040515f60405180830381858888f193505050501580156103b1573d5f803e3d5ffd5b505f60035f6101000a81548160ff021916908315150217905550565b60045481565b600360019054906101000a900473ffffffffffffffffffffffffffffffffffffffff1673ffffffffffffffffffffffffffffffffffffffff163373ffffffffffffffffffffffffffffffffffffffff1614610463576040517f08c379a000000000000000000000000000000000000000000000000000000000815260040161045a90610fc0565b60405180910390fd5b60035f9054906101000a900460ff166104b1576040517f08c379a00000000000000000000000000000000000000000000000000000000081526004016104a890611028565b60405180910390fd5b60055f9054906101000a900460ff166104ff576040517f08c379a00000000000000000000000000000000000000000000000000000000081526004016104f6906110b6565b60405180910390fd5b60015f9054906101000a900473ffffffffffffffffffffffffffffffffffffffff1673ffffffffffffffffffffffffffffffffffffffff166108fc60025490811502906040515f60405180830381858888f19350505050158015610565573d5f803e3d5ffd5b50600160055f6101000a81548160ff0219169083151502179055503373ffffffffffffffffffffffffffffffffffffffff167f28720c586a6e736146008f9bf260b09f29b8dcc37314fed637613ea3aec614f86002546040516105c89190610df1565b60405180910390a260015f9054906101000a900473ffffffffffffffffffffffffffffffffffffffff1673ffffffffffffffffffffffffffffffffffffffff167f6bbb9098479cbbc176a8b3f5cba6cde9236931e5cab7780ff0398ff7ebb07a3d6002546040516106399190610df1565b60405180910390a2565b5f8054906101000a900473ffffffffffffffffffffffffffffffffffffffff1681565b5f8054906101000a900473ffffffffffffffffffffffffffffffffffffffff1673ffffffffffffffffffffffffffffffffffffffff163373ffffffffffffffffffffffffffffffffffffffff16146106f3576040517f08c379a00000000000000000000000000000000000000000000000000000000081526004016106ea90610ef0565b60405180910390fd5b60035f9054906101000a900460ff16610741576040517f08c379a00000000000000000000000000000000000000000000000000000000081526004016107389061111e565b60405180910390fd5b60015f9054906101000a900473ffffffffffffffffffffffffffffffffffffffff1673ffffffffffffffffffffffffffffffffffffffff166108fc60025490811502906040515f60405180830381858888f193505050501580156107a7573d5f803e3d5ffd5b505f60035f6101000a81548160ff021916908315150217905550565b60025481565b60035f9054906101000a900460ff1681565b5f8054906101000a900473ffffffffffffffffffffffffffffffffffffffff1673ffffffffffffffffffffffffffffffffffffffff163373ffffffffffffffffffffffffffffffffffffffff1614610868576040517f08c379a000000000000000000000000000000000000000000000000000000000815260040161085f90610ef0565b60405180910390fd5b60025434146108ac576040517f08c379a00000000000000000000000000000000000000000000000000000000081526004016108a390611186565b60405180910390fd5b600160035f6101000a81548160ff021916908315150217905550565b60055f9054906101000a900460ff1681565b60015f9054906101000a900473ffffffffffffffffffffffffffffffffffffffff1673ffffffffffffffffffffffffffffffffffffffff163373ffffffffffffffffffffffffffffffffffffffff1614806109825750600360019054906101000a900473ffffffffffffffffffffffffffffffffffffffff1673ffffffffffffffffffffffffffffffffffffffff163373ffffffffffffffffffffffffffffffffffffffff16145b6109c1576040517f08c379a00000000000000000000000000000000000000000000000000000000081526004016109b890611214565b60405180910390fd5b60035f9054906101000a900460ff16610a0f576040517f08c379a0000000000000000000000000000000000000000000000000000000008152600401610a069061127c565b60405180910390fd5b60055f9054906101000a900460ff1615610a5e576040517f08c379a0000000000000000000000000000000000000000000000000000000008152600401610a55906110b6565b60405180910390fd5b5f8054906101000a900473ffffffffffffffffffffffffffffffffffffffff1673ffffffffffffffffffffffffffffffffffffffff166108fc60025490811502906040515f60405180830381858888f19350505050158015610ac2573d5f803e3d5ffd5b5060015f9054906101000a900473ffffffffffffffffffffffffffffffffffffffff1673ffffffffffffffffffffffffffffffffffffffff163373ffffffffffffffffffffffffffffffffffffffff1603610b6c573373ffffffffffffffffffffffffffffffffffffffff167fd0a35a552b7aa19661d12f4431a0269f83b8fbc8d9647ad55992ea710d538002600254604051610b5f9190610df1565b60405180910390a2610bbd565b3373ffffffffffffffffffffffffffffffffffffffff167f305ee2c381d77e2423d38768e63a93aac80ab99c1b57ddcda8fd5e74c79bbe60600254604051610bb49190610df1565b60405180910390a25b565b60015f9054906101000a900473ffffffffffffffffffffffffffffffffffffffff1673ffffffffffffffffffffffffffffffffffffffff163373ffffffffffffffffffffffffffffffffffffffff1614610c4e576040517f08c379a0000000000000000000000000000000000000000000000000000000008152600401610c45906112e4565b60405180910390fd5b5f81118015610c5e575060025481105b610c9d576040517f08c379a0000000000000000000000000000000000000000000000000000000008152600401610c949061134c565b60405180910390fd5b8060048190555080600254610cb29190611397565b60028190555060015f9054906101000a900473ffffffffffffffffffffffffffffffffffffffff1673ffffffffffffffffffffffffffffffffffffffff166108fc8290811502906040515f60405180830381858888f19350505050158015610d1c573d5f803e3d5ffd5b507fe0e6e821759edc7f6c2fa6925ffa369956519ab9be7fd7f04fb0a60bd97f8f0181600254604051610d509291906113ca565b60405180910390a150565b600360019054906101000a900473ffffffffffffffffffffffffffffffffffffffff1681565b5f73ffffffffffffffffffffffffffffffffffffffff82169050919050565b5f610daa82610d81565b9050919050565b610dba81610da0565b82525050565b5f602082019050610dd35f830184610db1565b92915050565b5f819050919050565b610deb81610dd9565b82525050565b5f602082019050610e045f830184610de2565b92915050565b5f8115159050919050565b610e1e81610e0a565b82525050565b5f602082019050610e375f830184610e15565b92915050565b5f80fd5b610e4a81610dd9565b8114610e54575f80fd5b50565b5f81359050610e6581610e41565b92915050565b5f60208284031215610e8057610e7f610e3d565b5b5f610e8d84828501610e57565b91505092915050565b5f82825260208201905092915050565b7f4f6e6c79206275796572000000000000000000000000000000000000000000005f82015250565b5f610eda600a83610e96565b9150610ee582610ea6565b602082019050919050565b5f6020820190508181035f830152610f0781610ece565b9050919050565b7f496e73756666696369656e742062616c616e63650000000000000000000000005f82015250565b5f610f42601483610e96565b9150610f4d82610f0e565b602082019050919050565b5f6020820190508181035f830152610f6f81610f36565b9050919050565b7f4f6e6c792061726269747261746f7200000000000000000000000000000000005f82015250565b5f610faa600f83610e96565b9150610fb582610f76565b602082019050919050565b5f6020820190508181035f830152610fd781610f9e565b9050919050565b7f4275796572206d7573742068617665206465706f737465642066756e647300005f82015250565b5f611012601e83610e96565b915061101d82610fde565b602082019050919050565b5f6020820190508181035f83015261103f81611006565b9050919050565b7f46756e6473206861766520616c7265616479206265656e2064697362757273655f8201527f6400000000000000000000000000000000000000000000000000000000000000602082015250565b5f6110a0602183610e96565b91506110ab82611046565b604082019050919050565b5f6020820190508181035f8301526110cd81611094565b9050919050565b7f46756e64732068617665206e6f74206265656e206465706f73697465640000005f82015250565b5f611108601d83610e96565b9150611113826110d4565b602082019050919050565b5f6020820190508181035f830152611135816110fc565b9050919050565b7f496e636f7272656374206465706f73697420616d6f756e7400000000000000005f82015250565b5f611170601883610e96565b915061117b8261113c565b602082019050919050565b5f6020820190508181035f83015261119d81611164565b9050919050565b7f63616c6c6572206d757374206265207468652073656c6c6572206f72207468655f8201527f2061726269746572000000000000000000000000000000000000000000000000602082015250565b5f6111fe602883610e96565b9150611209826111a4565b604082019050919050565b5f6020820190508181035f83015261122b816111f2565b9050919050565b7f4275796572206d7573742068617665206465706f73697465642066756e6473005f82015250565b5f611266601f83610e96565b915061127182611232565b602082019050919050565b5f6020820190508181035f8301526112938161125a565b9050919050565b7f4f6e6c792073656c6c65720000000000000000000000000000000000000000005f82015250565b5f6112ce600b83610e96565b91506112d98261129a565b602082019050919050565b5f6020820190508181035f8301526112fb816112c2565b9050919050565b7f496e76616c696420616d6f756e740000000000000000000000000000000000005f82015250565b5f611336600e83610e96565b915061134182611302565b602082019050919050565b5f6020820190508181035f8301526113638161132a565b9050919050565b7f4e487b71000000000000000000000000000000000000000000000000000000005f52601160045260245ffd5b5f6113a182610dd9565b91506113ac83610dd9565b92508282039050818111156113c4576113c361136a565b5b92915050565b5f6040820190506113dd5f830185610de2565b6113ea6020830184610de2565b939250505056fea2646970667358221220d2c62c17ef42600ff005059207944e8c7507d68c2dc54c0d7fd0b0f1b106b4d564736f6c634300081a0033",
					"opcodes": "PUSH1 0x80 PUSH1 0x40 MSTORE CALLVALUE DUP1 ISZERO PUSH2 0xF JUMPI PUSH0 DUP1 REVERT JUMPDEST POP PUSH1 0x40 MLOAD PUSH2 0x162A CODESIZE SUB DUP1 PUSH2 0x162A DUP4 CODECOPY DUP2 DUP2 ADD PUSH1 0x40 MSTORE DUP2 ADD SWAP1 PUSH2 0x31 SWAP2 SWAP1 PUSH2 0x192 JUMP JUMPDEST DUP4 PUSH0 DUP1 PUSH2 0x100 EXP DUP2 SLOAD DUP2 PUSH20 0xFFFFFFFFFFFFFFFFFFFFFFFFFFFFFFFFFFFFFFFF MUL NOT AND SWAP1 DUP4 PUSH20 0xFFFFFFFFFFFFFFFFFFFFFFFFFFFFFFFFFFFFFFFF AND MUL OR SWAP1 SSTORE POP DUP3 PUSH1 0x1 PUSH0 PUSH2 0x100 EXP DUP2 SLOAD DUP2 PUSH20 0xFFFFFFFFFFFFFFFFFFFFFFFFFFFFFFFFFFFFFFFF MUL NOT AND SWAP1 DUP4 PUSH20 0xFFFFFFFFFFFFFFFFFFFFFFFFFFFFFFFFFFFFFFFF AND MUL OR SWAP1 SSTORE POP DUP2 PUSH1 0x3 PUSH1 0x1 PUSH2 0x100 EXP DUP2 SLOAD DUP2 PUSH20 0xFFFFFFFFFFFFFFFFFFFFFFFFFFFFFFFFFFFFFFFF MUL NOT AND SWAP1 DUP4 PUSH20 0xFFFFFFFFFFFFFFFFFFFFFFFFFFFFFFFFFFFFFFFF AND MUL OR SWAP1 SSTORE POP DUP1 PUSH1 0x2 DUP2 SWAP1 SSTORE POP POP POP POP POP PUSH2 0x1F6 JUMP JUMPDEST PUSH0 DUP1 REVERT JUMPDEST PUSH0 PUSH20 0xFFFFFFFFFFFFFFFFFFFFFFFFFFFFFFFFFFFFFFFF DUP3 AND SWAP1 POP SWAP2 SWAP1 POP JUMP JUMPDEST PUSH0 PUSH2 0x12E DUP3 PUSH2 0x105 JUMP JUMPDEST SWAP1 POP SWAP2 SWAP1 POP JUMP JUMPDEST PUSH2 0x13E DUP2 PUSH2 0x124 JUMP JUMPDEST DUP2 EQ PUSH2 0x148 JUMPI PUSH0 DUP1 REVERT JUMPDEST POP JUMP JUMPDEST PUSH0 DUP2 MLOAD SWAP1 POP PUSH2 0x159 DUP2 PUSH2 0x135 JUMP JUMPDEST SWAP3 SWAP2 POP POP JUMP JUMPDEST PUSH0 DUP2 SWAP1 POP SWAP2 SWAP1 POP JUMP JUMPDEST PUSH2 0x171 DUP2 PUSH2 0x15F JUMP JUMPDEST DUP2 EQ PUSH2 0x17B JUMPI PUSH0 DUP1 REVERT JUMPDEST POP JUMP JUMPDEST PUSH0 DUP2 MLOAD SWAP1 POP PUSH2 0x18C DUP2 PUSH2 0x168 JUMP JUMPDEST SWAP3 SWAP2 POP POP JUMP JUMPDEST PUSH0 DUP1 PUSH0 DUP1 PUSH1 0x80 DUP6 DUP8 SUB SLT ISZERO PUSH2 0x1AA JUMPI PUSH2 0x1A9 PUSH2 0x101 JUMP JUMPDEST JUMPDEST PUSH0 PUSH2 0x1B7 DUP8 DUP3 DUP9 ADD PUSH2 0x14B JUMP JUMPDEST SWAP5 POP POP PUSH1 0x20 PUSH2 0x1C8 DUP8 DUP3 DUP9 ADD PUSH2 0x14B JUMP JUMPDEST SWAP4 POP POP PUSH1 0x40 PUSH2 0x1D9 DUP8 DUP3 DUP9 ADD PUSH2 0x14B JUMP JUMPDEST SWAP3 POP POP PUSH1 0x60 PUSH2 0x1EA DUP8 DUP3 DUP9 ADD PUSH2 0x17E JUMP JUMPDEST SWAP2 POP POP SWAP3 SWAP6 SWAP2 SWAP5 POP SWAP3 POP JUMP JUMPDEST PUSH2 0x1427 DUP1 PUSH2 0x203 PUSH0 CODECOPY PUSH0 RETURN INVALID PUSH1 0x80 PUSH1 0x40 MSTORE PUSH1 0x4 CALLDATASIZE LT PUSH2 0xC1 JUMPI PUSH0 CALLDATALOAD PUSH1 0xE0 SHR DUP1 PUSH4 0xAA8C217C GT PUSH2 0x7E JUMPI DUP1 PUSH4 0xD1A52E30 GT PUSH2 0x58 JUMPI DUP1 PUSH4 0xD1A52E30 EQ PUSH2 0x1E3 JUMPI DUP1 PUSH4 0xE8A61CC8 EQ PUSH2 0x20D JUMPI DUP1 PUSH4 0xECDEF075 EQ PUSH2 0x223 JUMPI DUP1 PUSH4 0xFE25E00A EQ PUSH2 0x24B JUMPI PUSH2 0xC1 JUMP JUMPDEST DUP1 PUSH4 0xAA8C217C EQ PUSH2 0x185 JUMPI DUP1 PUSH4 0xC52F2E08 EQ PUSH2 0x1AF JUMPI DUP1 PUSH4 0xD0E30DB0 EQ PUSH2 0x1D9 JUMPI PUSH2 0xC1 JUMP JUMPDEST DUP1 PUSH4 0x8551A53 EQ PUSH2 0xC5 JUMPI DUP1 PUSH4 0x3CCFD60B EQ PUSH2 0xEF JUMPI DUP1 PUSH4 0x45D30A17 EQ PUSH2 0x105 JUMPI DUP1 PUSH4 0x5E10177B EQ PUSH2 0x12F JUMPI DUP1 PUSH4 0x7150D8AE EQ PUSH2 0x145 JUMPI DUP1 PUSH4 0x86D1A69F EQ PUSH2 0x16F JUMPI JUMPDEST PUSH0 DUP1 REVERT JUMPDEST CALLVALUE DUP1 ISZERO PUSH2 0xD0 JUMPI PUSH0 DUP1 REVERT JUMPDEST POP PUSH2 0xD9 PUSH2 0x275 JUMP JUMPDEST PUSH1 0x40 MLOAD PUSH2 0xE6 SWAP2 SWAP1 PUSH2 0xDC0 JUMP JUMPDEST PUSH1 0x40 MLOAD DUP1 SWAP2 SUB SWAP1 RETURN JUMPDEST CALLVALUE DUP1 ISZERO PUSH2 0xFA JUMPI PUSH0 DUP1 REVERT JUMPDEST POP PUSH2 0x103 PUSH2 0x29A JUMP JUMPDEST STOP JUMPDEST CALLVALUE DUP1 ISZERO PUSH2 0x110 JUMPI PUSH0 DUP1 REVERT JUMPDEST POP PUSH2 0x119 PUSH2 0x3CD JUMP JUMPDEST PUSH1 0x40 MLOAD PUSH2 0x126 SWAP2 SWAP1 PUSH2 0xDF1 JUMP JUMPDEST PUSH1 0x40 MLOAD DUP1 SWAP2 SUB SWAP1 RETURN JUMPDEST CALLVALUE DUP1 ISZERO PUSH2 0x13A JUMPI PUSH0 DUP1 REVERT JUMPDEST POP PUSH2 0x143 PUSH2 0x3D3 JUMP JUMPDEST STOP JUMPDEST CALLVALUE DUP1 ISZERO PUSH2 0x150 JUMPI PUSH0 DUP1 REVERT JUMPDEST POP PUSH2 0x159 PUSH2 0x643 JUMP JUMPDEST PUSH1 0x40 MLOAD PUSH2 0x166 SWAP2 SWAP1 PUSH2 0xDC0 JUMP JUMPDEST PUSH1 0x40 MLOAD DUP1 SWAP2 SUB SWAP1 RETURN JUMPDEST CALLVALUE DUP1 ISZERO PUSH2 0x17A JUMPI PUSH0 DUP1 REVERT JUMPDEST POP PUSH2 0x183 PUSH2 0x666 JUMP JUMPDEST STOP JUMPDEST CALLVALUE DUP1 ISZERO PUSH2 0x190 JUMPI PUSH0 DUP1 REVERT JUMPDEST POP PUSH2 0x199 PUSH2 0x7C3 JUMP JUMPDEST PUSH1 0x40 MLOAD PUSH2 0x1A6 SWAP2 SWAP1 PUSH2 0xDF1 JUMP JUMPDEST PUSH1 0x40 MLOAD DUP1 SWAP2 SUB SWAP1 RETURN JUMPDEST CALLVALUE DUP1 ISZERO PUSH2 0x1BA JUMPI PUSH0 DUP1 REVERT JUMPDEST POP PUSH2 0x1C3 PUSH2 0x7C9 JUMP JUMPDEST PUSH1 0x40 MLOAD PUSH2 0x1D0 SWAP2 SWAP1 PUSH2 0xE24 JUMP JUMPDEST PUSH1 0x40 MLOAD DUP1 SWAP2 SUB SWAP1 RETURN JUMPDEST PUSH2 0x1E1 PUSH2 0x7DB JUMP JUMPDEST STOP JUMPDEST CALLVALUE DUP1 ISZERO PUSH2 0x1EE JUMPI PUSH0 DUP1 REVERT JUMPDEST POP PUSH2 0x1F7 PUSH2 0x8C8 JUMP JUMPDEST PUSH1 0x40 MLOAD PUSH2 0x204 SWAP2 SWAP1 PUSH2 0xE24 JUMP JUMPDEST PUSH1 0x40 MLOAD DUP1 SWAP2 SUB SWAP1 RETURN JUMPDEST CALLVALUE DUP1 ISZERO PUSH2 0x218 JUMPI PUSH0 DUP1 REVERT JUMPDEST POP PUSH2 0x221 PUSH2 0x8DA JUMP JUMPDEST STOP JUMPDEST CALLVALUE DUP1 ISZERO PUSH2 0x22E JUMPI PUSH0 DUP1 REVERT JUMPDEST POP PUSH2 0x249 PUSH1 0x4 DUP1 CALLDATASIZE SUB DUP2 ADD SWAP1 PUSH2 0x244 SWAP2 SWAP1 PUSH2 0xE6B JUMP JUMPDEST PUSH2 0xBBF JUMP JUMPDEST STOP JUMPDEST CALLVALUE DUP1 ISZERO PUSH2 0x256 JUMPI PUSH0 DUP1 REVERT JUMPDEST POP PUSH2 0x25F PUSH2 0xD5B JUMP JUMPDEST PUSH1 0x40 MLOAD PUSH2 0x26C SWAP2 SWAP1 PUSH2 0xDC0 JUMP JUMPDEST PUSH1 0x40 MLOAD DUP1 SWAP2 SUB SWAP1 RETURN JUMPDEST PUSH1 0x1 PUSH0 SWAP1 SLOAD SWAP1 PUSH2 0x100 EXP SWAP1 DIV PUSH20 0xFFFFFFFFFFFFFFFFFFFFFFFFFFFFFFFFFFFFFFFF AND DUP2 JUMP JUMPDEST PUSH0 DUP1 SLOAD SWAP1 PUSH2 0x100 EXP SWAP1 DIV PUSH20 0xFFFFFFFFFFFFFFFFFFFFFFFFFFFFFFFFFFFFFFFF AND PUSH20 0xFFFFFFFFFFFFFFFFFFFFFFFFFFFFFFFFFFFFFFFF AND CALLER PUSH20 0xFFFFFFFFFFFFFFFFFFFFFFFFFFFFFFFFFFFFFFFF AND EQ PUSH2 0x327 JUMPI PUSH1 0x40 MLOAD PUSH32 0x8C379A000000000000000000000000000000000000000000000000000000000 DUP2 MSTORE PUSH1 0x4 ADD PUSH2 0x31E SWAP1 PUSH2 0xEF0 JUMP JUMPDEST PUSH1 0x40 MLOAD DUP1 SWAP2 SUB SWAP1 REVERT JUMPDEST PUSH1 0x2 SLOAD SELFBALANCE LT ISZERO PUSH2 0x36C JUMPI PUSH1 0x40 MLOAD PUSH32 0x8C379A000000000000000000000000000000000000000000000000000000000 DUP2 MSTORE PUSH1 0x4 ADD PUSH2 0x363 SWAP1 PUSH2 0xF58 JUMP JUMPDEST PUSH1 0x40 MLOAD DUP1 SWAP2 SUB SWAP1 REVERT JUMPDEST CALLER PUSH20 0xFFFFFFFFFFFFFFFFFFFFFFFFFFFFFFFFFFFFFFFF AND PUSH2 0x8FC PUSH1 0x2 SLOAD SWAP1 DUP2 ISZERO MUL SWAP1 PUSH1 0x40 MLOAD PUSH0 PUSH1 0x40 MLOAD DUP1 DUP4 SUB DUP2 DUP6 DUP9 DUP9 CALL SWAP4 POP POP POP POP ISZERO DUP1 ISZERO PUSH2 0x3B1 JUMPI RETURNDATASIZE PUSH0 DUP1 RETURNDATACOPY RETURNDATASIZE PUSH0 REVERT JUMPDEST POP PUSH0 PUSH1 0x3 PUSH0 PUSH2 0x100 EXP DUP2 SLOAD DUP2 PUSH1 0xFF MUL NOT AND SWAP1 DUP4 ISZERO ISZERO MUL OR SWAP1 SSTORE POP JUMP JUMPDEST PUSH1 0x4 SLOAD DUP2 JUMP JUMPDEST PUSH1 0x3 PUSH1 0x1 SWAP1 SLOAD SWAP1 PUSH2 0x100 EXP SWAP1 DIV PUSH20 0xFFFFFFFFFFFFFFFFFFFFFFFFFFFFFFFFFFFFFFFF AND PUSH20 0xFFFFFFFFFFFFFFFFFFFFFFFFFFFFFFFFFFFFFFFF AND CALLER PUSH20 0xFFFFFFFFFFFFFFFFFFFFFFFFFFFFFFFFFFFFFFFF AND EQ PUSH2 0x463 JUMPI PUSH1 0x40 MLOAD PUSH32 0x8C379A000000000000000000000000000000000000000000000000000000000 DUP2 MSTORE PUSH1 0x4 ADD PUSH2 0x45A SWAP1 PUSH2 0xFC0 JUMP JUMPDEST PUSH1 0x40 MLOAD DUP1 SWAP2 SUB SWAP1 REVERT JUMPDEST PUSH1 0x3 PUSH0 SWAP1 SLOAD SWAP1 PUSH2 0x100 EXP SWAP1 DIV PUSH1 0xFF AND PUSH2 0x4B1 JUMPI PUSH1 0x40 MLOAD PUSH32 0x8C379A000000000000000000000000000000000000000000000000000000000 DUP2 MSTORE PUSH1 0x4 ADD PUSH2 0x4A8 SWAP1 PUSH2 0x1028 JUMP JUMPDEST PUSH1 0x40 MLOAD DUP1 SWAP2 SUB SWAP1 REVERT JUMPDEST PUSH1 0x5 PUSH0 SWAP1 SLOAD SWAP1 PUSH2 0x100 EXP SWAP1 DIV PUSH1 0xFF AND PUSH2 0x4FF JUMPI PUSH1 0x40 MLOAD PUSH32 0x8C379A000000000000000000000000000000000000000000000000000000000 DUP2 MSTORE PUSH1 0x4 ADD PUSH2 0x4F6 SWAP1 PUSH2 0x10B6 JUMP JUMPDEST PUSH1 0x40 MLOAD DUP1 SWAP2 SUB SWAP1 REVERT JUMPDEST PUSH1 0x1 PUSH0 SWAP1 SLOAD SWAP1 PUSH2 0x100 EXP SWAP1 DIV PUSH20 0xFFFFFFFFFFFFFFFFFFFFFFFFFFFFFFFFFFFFFFFF AND PUSH20 0xFFFFFFFFFFFFFFFFFFFFFFFFFFFFFFFFFFFFFFFF AND PUSH2 0x8FC PUSH1 0x2 SLOAD SWAP1 DUP2 ISZERO MUL SWAP1 PUSH1 0x40 MLOAD PUSH0 PUSH1 0x40 MLOAD DUP1 DUP4 SUB DUP2 DUP6 DUP9 DUP9 CALL SWAP4 POP POP POP POP ISZERO DUP1 ISZERO PUSH2 0x565 JUMPI RETURNDATASIZE PUSH0 DUP1 RETURNDATACOPY RETURNDATASIZE PUSH0 REVERT JUMPDEST POP PUSH1 0x1 PUSH1 0x5 PUSH0 PUSH2 0x100 EXP DUP2 SLOAD DUP2 PUSH1 0xFF MUL NOT AND SWAP1 DUP4 ISZERO ISZERO MUL OR SWAP1 SSTORE POP CALLER PUSH20 0xFFFFFFFFFFFFFFFFFFFFFFFFFFFFFFFFFFFFFFFF AND PUSH32 0x28720C586A6E736146008F9BF260B09F29B8DCC37314FED637613EA3AEC614F8 PUSH1 0x2 SLOAD PUSH1 0x40 MLOAD PUSH2 0x5C8 SWAP2 SWAP1 PUSH2 0xDF1 JUMP JUMPDEST PUSH1 0x40 MLOAD DUP1 SWAP2 SUB SWAP1 LOG2 PUSH1 0x1 PUSH0 SWAP1 SLOAD SWAP1 PUSH2 0x100 EXP SWAP1 DIV PUSH20 0xFFFFFFFFFFFFFFFFFFFFFFFFFFFFFFFFFFFFFFFF AND PUSH20 0xFFFFFFFFFFFFFFFFFFFFFFFFFFFFFFFFFFFFFFFF AND PUSH32 0x6BBB9098479CBBC176A8B3F5CBA6CDE9236931E5CAB7780FF0398FF7EBB07A3D PUSH1 0x2 SLOAD PUSH1 0x40 MLOAD PUSH2 0x639 SWAP2 SWAP1 PUSH2 0xDF1 JUMP JUMPDEST PUSH1 0x40 MLOAD DUP1 SWAP2 SUB SWAP1 LOG2 JUMP JUMPDEST PUSH0 DUP1 SLOAD SWAP1 PUSH2 0x100 EXP SWAP1 DIV PUSH20 0xFFFFFFFFFFFFFFFFFFFFFFFFFFFFFFFFFFFFFFFF AND DUP2 JUMP JUMPDEST PUSH0 DUP1 SLOAD SWAP1 PUSH2 0x100 EXP SWAP1 DIV PUSH20 0xFFFFFFFFFFFFFFFFFFFFFFFFFFFFFFFFFFFFFFFF AND PUSH20 0xFFFFFFFFFFFFFFFFFFFFFFFFFFFFFFFFFFFFFFFF AND CALLER PUSH20 0xFFFFFFFFFFFFFFFFFFFFFFFFFFFFFFFFFFFFFFFF AND EQ PUSH2 0x6F3 JUMPI PUSH1 0x40 MLOAD PUSH32 0x8C379A000000000000000000000000000000000000000000000000000000000 DUP2 MSTORE PUSH1 0x4 ADD PUSH2 0x6EA SWAP1 PUSH2 0xEF0 JUMP JUMPDEST PUSH1 0x40 MLOAD DUP1 SWAP2 SUB SWAP1 REVERT JUMPDEST PUSH1 0x3 PUSH0 SWAP1 SLOAD SWAP1 PUSH2 0x100 EXP SWAP1 DIV PUSH1 0xFF AND PUSH2 0x741 JUMPI PUSH1 0x40 MLOAD PUSH32 0x8C379A000000000000000000000000000000000000000000000000000000000 DUP2 MSTORE PUSH1 0x4 ADD PUSH2 0x738 SWAP1 PUSH2 0x111E JUMP JUMPDEST PUSH1 0x40 MLOAD DUP1 SWAP2 SUB SWAP1 REVERT JUMPDEST PUSH1 0x1 PUSH0 SWAP1 SLOAD SWAP1 PUSH2 0x100 EXP SWAP1 DIV PUSH20 0xFFFFFFFFFFFFFFFFFFFFFFFFFFFFFFFFFFFFFFFF AND PUSH20 0xFFFFFFFFFFFFFFFFFFFFFFFFFFFFFFFFFFFFFFFF AND PUSH2 0x8FC PUSH1 0x2 SLOAD SWAP1 DUP2 ISZERO MUL SWAP1 PUSH1 0x40 MLOAD PUSH0 PUSH1 0x40 MLOAD DUP1 DUP4 SUB DUP2 DUP6 DUP9 DUP9 CALL SWAP4 POP POP POP POP ISZERO DUP1 ISZERO PUSH2 0x7A7 JUMPI RETURNDATASIZE PUSH0 DUP1 RETURNDATACOPY RETURNDATASIZE PUSH0 REVERT JUMPDEST POP PUSH0 PUSH1 0x3 PUSH0 PUSH2 0x100 EXP DUP2 SLOAD DUP2 PUSH1 0xFF MUL NOT AND SWAP1 DUP4 ISZERO ISZERO MUL OR SWAP1 SSTORE POP JUMP JUMPDEST PUSH1 0x2 SLOAD DUP2 JUMP JUMPDEST PUSH1 0x3 PUSH0 SWAP1 SLOAD SWAP1 PUSH2 0x100 EXP SWAP1 DIV PUSH1 0xFF AND DUP2 JUMP JUMPDEST PUSH0 DUP1 SLOAD SWAP1 PUSH2 0x100 EXP SWAP1 DIV PUSH20 0xFFFFFFFFFFFFFFFFFFFFFFFFFFFFFFFFFFFFFFFF AND PUSH20 0xFFFFFFFFFFFFFFFFFFFFFFFFFFFFFFFFFFFFFFFF AND CALLER PUSH20 0xFFFFFFFFFFFFFFFFFFFFFFFFFFFFFFFFFFFFFFFF AND EQ PUSH2 0x868 JUMPI PUSH1 0x40 MLOAD PUSH32 0x8C379A000000000000000000000000000000000000000000000000000000000 DUP2 MSTORE PUSH1 0x4 ADD PUSH2 0x85F SWAP1 PUSH2 0xEF0 JUMP JUMPDEST PUSH1 0x40 MLOAD DUP1 SWAP2 SUB SWAP1 REVERT JUMPDEST PUSH1 0x2 SLOAD CALLVALUE EQ PUSH2 0x8AC JUMPI PUSH1 0x40 MLOAD PUSH32 0x8C379A000000000000000000000000000000000000000000000000000000000 DUP2 MSTORE PUSH1 0x4 ADD PUSH2 0x8A3 SWAP1 PUSH2 0x1186 JUMP JUMPDEST PUSH1 0x40 MLOAD DUP1 SWAP2 SUB SWAP1 REVERT JUMPDEST PUSH1 0x1 PUSH1 0x3 PUSH0 PUSH2 0x100 EXP DUP2 SLOAD DUP2 PUSH1 0xFF MUL NOT AND SWAP1 DUP4 ISZERO ISZERO MUL OR SWAP1 SSTORE POP JUMP JUMPDEST PUSH1 0x5 PUSH0 SWAP1 SLOAD SWAP1 PUSH2 0x100 EXP SWAP1 DIV PUSH1 0xFF AND DUP2 JUMP JUMPDEST PUSH1 0x1 PUSH0 SWAP1 SLOAD SWAP1 PUSH2 0x100 EXP SWAP1 DIV PUSH20 0xFFFFFFFFFFFFFFFFFFFFFFFFFFFFFFFFFFFFFFFF AND PUSH20 0xFFFFFFFFFFFFFFFFFFFFFFFFFFFFFFFFFFFFFFFF AND CALLER PUSH20 0xFFFFFFFFFFFFFFFFFFFFFFFFFFFFFFFFFFFFFFFF AND EQ DUP1 PUSH2 0x982 JUMPI POP PUSH1 0x3 PUSH1 0x1 SWAP1 SLOAD SWAP1 PUSH2 0x100 EXP SWAP1 DIV PUSH20 0xFFFFFFFFFFFFFFFFFFFFFFFFFFFFFFFFFFFFFFFF AND PUSH20 0xFFFFFFFFFFFFFFFFFFFFFFFFFFFFFFFFFFFFFFFF AND CALLER PUSH20 0xFFFFFFFFFFFFFFFFFFFFFFFFFFFFFFFFFFFFFFFF AND EQ JUMPDEST PUSH2 0x9C1 JUMPI PUSH1 0x40 MLOAD PUSH32 0x8C379A000000000000000000000000000000000000000000000000000000000 DUP2 MSTORE PUSH1 0x4 ADD PUSH2 0x9B8 SWAP1 PUSH2 0x1214 JUMP JUMPDEST PUSH1 0x40 MLOAD DUP1 SWAP2 SUB SWAP1 REVERT JUMPDEST PUSH1 0x3 PUSH0 SWAP1 SLOAD SWAP1 PUSH2 0x100 EXP SWAP1 DIV PUSH1 0xFF AND PUSH2 0xA0F JUMPI PUSH1 0x40 MLOAD PUSH32 0x8C379A000000000000000000000000000000000000000000000000000000000 DUP2 MSTORE PUSH1 0x4 ADD PUSH2 0xA06 SWAP1 PUSH2 0x127C JUMP JUMPDEST PUSH1 0x40 MLOAD DUP1 SWAP2 SUB SWAP1 REVERT JUMPDEST PUSH1 0x5 PUSH0 SWAP1 SLOAD SWAP1 PUSH2 0x100 EXP SWAP1 DIV PUSH1 0xFF AND ISZERO PUSH2 0xA5E JUMPI PUSH1 0x40 MLOAD PUSH32 0x8C379A000000000000000000000000000000000000000000000000000000000 DUP2 MSTORE PUSH1 0x4 ADD PUSH2 0xA55 SWAP1 PUSH2 0x10B6 JUMP JUMPDEST PUSH1 0x40 MLOAD DUP1 SWAP2 SUB SWAP1 REVERT JUMPDEST PUSH0 DUP1 SLOAD SWAP1 PUSH2 0x100 EXP SWAP1 DIV PUSH20 0xFFFFFFFFFFFFFFFFFFFFFFFFFFFFFFFFFFFFFFFF AND PUSH20 0xFFFFFFFFFFFFFFFFFFFFFFFFFFFFFFFFFFFFFFFF AND PUSH2 0x8FC PUSH1 0x2 SLOAD SWAP1 DUP2 ISZERO MUL SWAP1 PUSH1 0x40 MLOAD PUSH0 PUSH1 0x40 MLOAD DUP1 DUP4 SUB DUP2 DUP6 DUP9 DUP9 CALL SWAP4 POP POP POP POP ISZERO DUP1 ISZERO PUSH2 0xAC2 JUMPI RETURNDATASIZE PUSH0 DUP1 RETURNDATACOPY RETURNDATASIZE PUSH0 REVERT JUMPDEST POP PUSH1 0x1 PUSH0 SWAP1 SLOAD SWAP1 PUSH2 0x100 EXP SWAP1 DIV PUSH20 0xFFFFFFFFFFFFFFFFFFFFFFFFFFFFFFFFFFFFFFFF AND PUSH20 0xFFFFFFFFFFFFFFFFFFFFFFFFFFFFFFFFFFFFFFFF AND CALLER PUSH20 0xFFFFFFFFFFFFFFFFFFFFFFFFFFFFFFFFFFFFFFFF AND SUB PUSH2 0xB6C JUMPI CALLER PUSH20 0xFFFFFFFFFFFFFFFFFFFFFFFFFFFFFFFFFFFFFFFF AND PUSH32 0xD0A35A552B7AA19661D12F4431A0269F83B8FBC8D9647AD55992EA710D538002 PUSH1 0x2 SLOAD PUSH1 0x40 MLOAD PUSH2 0xB5F SWAP2 SWAP1 PUSH2 0xDF1 JUMP JUMPDEST PUSH1 0x40 MLOAD DUP1 SWAP2 SUB SWAP1 LOG2 PUSH2 0xBBD JUMP JUMPDEST CALLER PUSH20 0xFFFFFFFFFFFFFFFFFFFFFFFFFFFFFFFFFFFFFFFF AND PUSH32 0x305EE2C381D77E2423D38768E63A93AAC80AB99C1B57DDCDA8FD5E74C79BBE60 PUSH1 0x2 SLOAD PUSH1 0x40 MLOAD PUSH2 0xBB4 SWAP2 SWAP1 PUSH2 0xDF1 JUMP JUMPDEST PUSH1 0x40 MLOAD DUP1 SWAP2 SUB SWAP1 LOG2 JUMPDEST JUMP JUMPDEST PUSH1 0x1 PUSH0 SWAP1 SLOAD SWAP1 PUSH2 0x100 EXP SWAP1 DIV PUSH20 0xFFFFFFFFFFFFFFFFFFFFFFFFFFFFFFFFFFFFFFFF AND PUSH20 0xFFFFFFFFFFFFFFFFFFFFFFFFFFFFFFFFFFFFFFFF AND CALLER PUSH20 0xFFFFFFFFFFFFFFFFFFFFFFFFFFFFFFFFFFFFFFFF AND EQ PUSH2 0xC4E JUMPI PUSH1 0x40 MLOAD PUSH32 0x8C379A000000000000000000000000000000000000000000000000000000000 DUP2 MSTORE PUSH1 0x4 ADD PUSH2 0xC45 SWAP1 PUSH2 0x12E4 JUMP JUMPDEST PUSH1 0x40 MLOAD DUP1 SWAP2 SUB SWAP1 REVERT JUMPDEST PUSH0 DUP2 GT DUP1 ISZERO PUSH2 0xC5E JUMPI POP PUSH1 0x2 SLOAD DUP2 LT JUMPDEST PUSH2 0xC9D JUMPI PUSH1 0x40 MLOAD PUSH32 0x8C379A000000000000000000000000000000000000000000000000000000000 DUP2 MSTORE PUSH1 0x4 ADD PUSH2 0xC94 SWAP1 PUSH2 0x134C JUMP JUMPDEST PUSH1 0x40 MLOAD DUP1 SWAP2 SUB SWAP1 REVERT JUMPDEST DUP1 PUSH1 0x4 DUP2 SWAP1 SSTORE POP DUP1 PUSH1 0x2 SLOAD PUSH2 0xCB2 SWAP2 SWAP1 PUSH2 0x1397 JUMP JUMPDEST PUSH1 0x2 DUP2 SWAP1 SSTORE POP PUSH1 0x1 PUSH0 SWAP1 SLOAD SWAP1 PUSH2 0x100 EXP SWAP1 DIV PUSH20 0xFFFFFFFFFFFFFFFFFFFFFFFFFFFFFFFFFFFFFFFF AND PUSH20 0xFFFFFFFFFFFFFFFFFFFFFFFFFFFFFFFFFFFFFFFF AND PUSH2 0x8FC DUP3 SWAP1 DUP2 ISZERO MUL SWAP1 PUSH1 0x40 MLOAD PUSH0 PUSH1 0x40 MLOAD DUP1 DUP4 SUB DUP2 DUP6 DUP9 DUP9 CALL SWAP4 POP POP POP POP ISZERO DUP1 ISZERO PUSH2 0xD1C JUMPI RETURNDATASIZE PUSH0 DUP1 RETURNDATACOPY RETURNDATASIZE PUSH0 REVERT JUMPDEST POP PUSH32 0xE0E6E821759EDC7F6C2FA6925FFA369956519AB9BE7FD7F04FB0A60BD97F8F01 DUP2 PUSH1 0x2 SLOAD PUSH1 0x40 MLOAD PUSH2 0xD50 SWAP3 SWAP2 SWAP1 PUSH2 0x13CA JUMP JUMPDEST PUSH1 0x40 MLOAD DUP1 SWAP2 SUB SWAP1 LOG1 POP JUMP JUMPDEST PUSH1 0x3 PUSH1 0x1 SWAP1 SLOAD SWAP1 PUSH2 0x100 EXP SWAP1 DIV PUSH20 0xFFFFFFFFFFFFFFFFFFFFFFFFFFFFFFFFFFFFFFFF AND DUP2 JUMP JUMPDEST PUSH0 PUSH20 0xFFFFFFFFFFFFFFFFFFFFFFFFFFFFFFFFFFFFFFFF DUP3 AND SWAP1 POP SWAP2 SWAP1 POP JUMP JUMPDEST PUSH0 PUSH2 0xDAA DUP3 PUSH2 0xD81 JUMP JUMPDEST SWAP1 POP SWAP2 SWAP1 POP JUMP JUMPDEST PUSH2 0xDBA DUP2 PUSH2 0xDA0 JUMP JUMPDEST DUP3 MSTORE POP POP JUMP JUMPDEST PUSH0 PUSH1 0x20 DUP3 ADD SWAP1 POP PUSH2 0xDD3 PUSH0 DUP4 ADD DUP5 PUSH2 0xDB1 JUMP JUMPDEST SWAP3 SWAP2 POP POP JUMP JUMPDEST PUSH0 DUP2 SWAP1 POP SWAP2 SWAP1 POP JUMP JUMPDEST PUSH2 0xDEB DUP2 PUSH2 0xDD9 JUMP JUMPDEST DUP3 MSTORE POP POP JUMP JUMPDEST PUSH0 PUSH1 0x20 DUP3 ADD SWAP1 POP PUSH2 0xE04 PUSH0 DUP4 ADD DUP5 PUSH2 0xDE2 JUMP JUMPDEST SWAP3 SWAP2 POP POP JUMP JUMPDEST PUSH0 DUP2 ISZERO ISZERO SWAP1 POP SWAP2 SWAP1 POP JUMP JUMPDEST PUSH2 0xE1E DUP2 PUSH2 0xE0A JUMP JUMPDEST DUP3 MSTORE POP POP JUMP JUMPDEST PUSH0 PUSH1 0x20 DUP3 ADD SWAP1 POP PUSH2 0xE37 PUSH0 DUP4 ADD DUP5 PUSH2 0xE15 JUMP JUMPDEST SWAP3 SWAP2 POP POP JUMP JUMPDEST PUSH0 DUP1 REVERT JUMPDEST PUSH2 0xE4A DUP2 PUSH2 0xDD9 JUMP JUMPDEST DUP2 EQ PUSH2 0xE54 JUMPI PUSH0 DUP1 REVERT JUMPDEST POP JUMP JUMPDEST PUSH0 DUP2 CALLDATALOAD SWAP1 POP PUSH2 0xE65 DUP2 PUSH2 0xE41 JUMP JUMPDEST SWAP3 SWAP2 POP POP JUMP JUMPDEST PUSH0 PUSH1 0x20 DUP3 DUP5 SUB SLT ISZERO PUSH2 0xE80 JUMPI PUSH2 0xE7F PUSH2 0xE3D JUMP JUMPDEST JUMPDEST PUSH0 PUSH2 0xE8D DUP5 DUP3 DUP6 ADD PUSH2 0xE57 JUMP JUMPDEST SWAP2 POP POP SWAP3 SWAP2 POP POP JUMP JUMPDEST PUSH0 DUP3 DUP3 MSTORE PUSH1 0x20 DUP3 ADD SWAP1 POP SWAP3 SWAP2 POP POP JUMP JUMPDEST PUSH32 0x4F6E6C7920627579657200000000000000000000000000000000000000000000 PUSH0 DUP3 ADD MSTORE POP JUMP JUMPDEST PUSH0 PUSH2 0xEDA PUSH1 0xA DUP4 PUSH2 0xE96 JUMP JUMPDEST SWAP2 POP PUSH2 0xEE5 DUP3 PUSH2 0xEA6 JUMP JUMPDEST PUSH1 0x20 DUP3 ADD SWAP1 POP SWAP2 SWAP1 POP JUMP JUMPDEST PUSH0 PUSH1 0x20 DUP3 ADD SWAP1 POP DUP2 DUP2 SUB PUSH0 DUP4 ADD MSTORE PUSH2 0xF07 DUP2 PUSH2 0xECE JUMP JUMPDEST SWAP1 POP SWAP2 SWAP1 POP JUMP JUMPDEST PUSH32 0x496E73756666696369656E742062616C616E6365000000000000000000000000 PUSH0 DUP3 ADD MSTORE POP JUMP JUMPDEST PUSH0 PUSH2 0xF42 PUSH1 0x14 DUP4 PUSH2 0xE96 JUMP JUMPDEST SWAP2 POP PUSH2 0xF4D DUP3 PUSH2 0xF0E JUMP JUMPDEST PUSH1 0x20 DUP3 ADD SWAP1 POP SWAP2 SWAP1 POP JUMP JUMPDEST PUSH0 PUSH1 0x20 DUP3 ADD SWAP1 POP DUP2 DUP2 SUB PUSH0 DUP4 ADD MSTORE PUSH2 0xF6F DUP2 PUSH2 0xF36 JUMP JUMPDEST SWAP1 POP SWAP2 SWAP1 POP JUMP JUMPDEST PUSH32 0x4F6E6C792061726269747261746F720000000000000000000000000000000000 PUSH0 DUP3 ADD MSTORE POP JUMP JUMPDEST PUSH0 PUSH2 0xFAA PUSH1 0xF DUP4 PUSH2 0xE96 JUMP JUMPDEST SWAP2 POP PUSH2 0xFB5 DUP3 PUSH2 0xF76 JUMP JUMPDEST PUSH1 0x20 DUP3 ADD SWAP1 POP SWAP2 SWAP1 POP JUMP JUMPDEST PUSH0 PUSH1 0x20 DUP3 ADD SWAP1 POP DUP2 DUP2 SUB PUSH0 DUP4 ADD MSTORE PUSH2 0xFD7 DUP2 PUSH2 0xF9E JUMP JUMPDEST SWAP1 POP SWAP2 SWAP1 POP JUMP JUMPDEST PUSH32 0x4275796572206D7573742068617665206465706F737465642066756E64730000 PUSH0 DUP3 ADD MSTORE POP JUMP JUMPDEST PUSH0 PUSH2 0x1012 PUSH1 0x1E DUP4 PUSH2 0xE96 JUMP JUMPDEST SWAP2 POP PUSH2 0x101D DUP3 PUSH2 0xFDE JUMP JUMPDEST PUSH1 0x20 DUP3 ADD SWAP1 POP SWAP2 SWAP1 POP JUMP JUMPDEST PUSH0 PUSH1 0x20 DUP3 ADD SWAP1 POP DUP2 DUP2 SUB PUSH0 DUP4 ADD MSTORE PUSH2 0x103F DUP2 PUSH2 0x1006 JUMP JUMPDEST SWAP1 POP SWAP2 SWAP1 POP JUMP JUMPDEST PUSH32 0x46756E6473206861766520616C7265616479206265656E206469736275727365 PUSH0 DUP3 ADD MSTORE PUSH32 0x6400000000000000000000000000000000000000000000000000000000000000 PUSH1 0x20 DUP3 ADD MSTORE POP JUMP JUMPDEST PUSH0 PUSH2 0x10A0 PUSH1 0x21 DUP4 PUSH2 0xE96 JUMP JUMPDEST SWAP2 POP PUSH2 0x10AB DUP3 PUSH2 0x1046 JUMP JUMPDEST PUSH1 0x40 DUP3 ADD SWAP1 POP SWAP2 SWAP1 POP JUMP JUMPDEST PUSH0 PUSH1 0x20 DUP3 ADD SWAP1 POP DUP2 DUP2 SUB PUSH0 DUP4 ADD MSTORE PUSH2 0x10CD DUP2 PUSH2 0x1094 JUMP JUMPDEST SWAP1 POP SWAP2 SWAP1 POP JUMP JUMPDEST PUSH32 0x46756E64732068617665206E6F74206265656E206465706F7369746564000000 PUSH0 DUP3 ADD MSTORE POP JUMP JUMPDEST PUSH0 PUSH2 0x1108 PUSH1 0x1D DUP4 PUSH2 0xE96 JUMP JUMPDEST SWAP2 POP PUSH2 0x1113 DUP3 PUSH2 0x10D4 JUMP JUMPDEST PUSH1 0x20 DUP3 ADD SWAP1 POP SWAP2 SWAP1 POP JUMP JUMPDEST PUSH0 PUSH1 0x20 DUP3 ADD SWAP1 POP DUP2 DUP2 SUB PUSH0 DUP4 ADD MSTORE PUSH2 0x1135 DUP2 PUSH2 0x10FC JUMP JUMPDEST SWAP1 POP SWAP2 SWAP1 POP JUMP JUMPDEST PUSH32 0x496E636F7272656374206465706F73697420616D6F756E740000000000000000 PUSH0 DUP3 ADD MSTORE POP JUMP JUMPDEST PUSH0 PUSH2 0x1170 PUSH1 0x18 DUP4 PUSH2 0xE96 JUMP JUMPDEST SWAP2 POP PUSH2 0x117B DUP3 PUSH2 0x113C JUMP JUMPDEST PUSH1 0x20 DUP3 ADD SWAP1 POP SWAP2 SWAP1 POP JUMP JUMPDEST PUSH0 PUSH1 0x20 DUP3 ADD SWAP1 POP DUP2 DUP2 SUB PUSH0 DUP4 ADD MSTORE PUSH2 0x119D DUP2 PUSH2 0x1164 JUMP JUMPDEST SWAP1 POP SWAP2 SWAP1 POP JUMP JUMPDEST PUSH32 0x63616C6C6572206D757374206265207468652073656C6C6572206F7220746865 PUSH0 DUP3 ADD MSTORE PUSH32 0x2061726269746572000000000000000000000000000000000000000000000000 PUSH1 0x20 DUP3 ADD MSTORE POP JUMP JUMPDEST PUSH0 PUSH2 0x11FE PUSH1 0x28 DUP4 PUSH2 0xE96 JUMP JUMPDEST SWAP2 POP PUSH2 0x1209 DUP3 PUSH2 0x11A4 JUMP JUMPDEST PUSH1 0x40 DUP3 ADD SWAP1 POP SWAP2 SWAP1 POP JUMP JUMPDEST PUSH0 PUSH1 0x20 DUP3 ADD SWAP1 POP DUP2 DUP2 SUB PUSH0 DUP4 ADD MSTORE PUSH2 0x122B DUP2 PUSH2 0x11F2 JUMP JUMPDEST SWAP1 POP SWAP2 SWAP1 POP JUMP JUMPDEST PUSH32 0x4275796572206D7573742068617665206465706F73697465642066756E647300 PUSH0 DUP3 ADD MSTORE POP JUMP JUMPDEST PUSH0 PUSH2 0x1266 PUSH1 0x1F DUP4 PUSH2 0xE96 JUMP JUMPDEST SWAP2 POP PUSH2 0x1271 DUP3 PUSH2 0x1232 JUMP JUMPDEST PUSH1 0x20 DUP3 ADD SWAP1 POP SWAP2 SWAP1 POP JUMP JUMPDEST PUSH0 PUSH1 0x20 DUP3 ADD SWAP1 POP DUP2 DUP2 SUB PUSH0 DUP4 ADD MSTORE PUSH2 0x1293 DUP2 PUSH2 0x125A JUMP JUMPDEST SWAP1 POP SWAP2 SWAP1 POP JUMP JUMPDEST PUSH32 0x4F6E6C792073656C6C6572000000000000000000000000000000000000000000 PUSH0 DUP3 ADD MSTORE POP JUMP JUMPDEST PUSH0 PUSH2 0x12CE PUSH1 0xB DUP4 PUSH2 0xE96 JUMP JUMPDEST SWAP2 POP PUSH2 0x12D9 DUP3 PUSH2 0x129A JUMP JUMPDEST PUSH1 0x20 DUP3 ADD SWAP1 POP SWAP2 SWAP1 POP JUMP JUMPDEST PUSH0 PUSH1 0x20 DUP3 ADD SWAP1 POP DUP2 DUP2 SUB PUSH0 DUP4 ADD MSTORE PUSH2 0x12FB DUP2 PUSH2 0x12C2 JUMP JUMPDEST SWAP1 POP SWAP2 SWAP1 POP JUMP JUMPDEST PUSH32 0x496E76616C696420616D6F756E74000000000000000000000000000000000000 PUSH0 DUP3 ADD MSTORE POP JUMP JUMPDEST PUSH0 PUSH2 0x1336 PUSH1 0xE DUP4 PUSH2 0xE96 JUMP JUMPDEST SWAP2 POP PUSH2 0x1341 DUP3 PUSH2 0x1302 JUMP JUMPDEST PUSH1 0x20 DUP3 ADD SWAP1 POP SWAP2 SWAP1 POP JUMP JUMPDEST PUSH0 PUSH1 0x20 DUP3 ADD SWAP1 POP DUP2 DUP2 SUB PUSH0 DUP4 ADD MSTORE PUSH2 0x1363 DUP2 PUSH2 0x132A JUMP JUMPDEST SWAP1 POP SWAP2 SWAP1 POP JUMP JUMPDEST PUSH32 0x4E487B7100000000000000000000000000000000000000000000000000000000 PUSH0 MSTORE PUSH1 0x11 PUSH1 0x4 MSTORE PUSH1 0x24 PUSH0 REVERT JUMPDEST PUSH0 PUSH2 0x13A1 DUP3 PUSH2 0xDD9 JUMP JUMPDEST SWAP2 POP PUSH2 0x13AC DUP4 PUSH2 0xDD9 JUMP JUMPDEST SWAP3 POP DUP3 DUP3 SUB SWAP1 POP DUP2 DUP2 GT ISZERO PUSH2 0x13C4 JUMPI PUSH2 0x13C3 PUSH2 0x136A JUMP JUMPDEST JUMPDEST SWAP3 SWAP2 POP POP JUMP JUMPDEST PUSH0 PUSH1 0x40 DUP3 ADD SWAP1 POP PUSH2 0x13DD PUSH0 DUP4 ADD DUP6 PUSH2 0xDE2 JUMP JUMPDEST PUSH2 0x13EA PUSH1 0x20 DUP4 ADD DUP5 PUSH2 0xDE2 JUMP JUMPDEST SWAP4 SWAP3 POP POP POP JUMP INVALID LOG2 PUSH5 0x6970667358 0x22 SLT KECCAK256 0xD2 0xC6 0x2C OR 0xEF TIMESTAMP PUSH1 0xF CREATE SDIV SDIV SWAP3 SMOD SWAP5 0x4E DUP13 PUSH22 0x7D68C2DC54C0D7FD0B0F1B106B4D564736F6C634300 ADDMOD BYTE STOP CALLER "
				},
				"gasEstimates": {
					"creation": {
						"codeDepositCost": "1031800",
						"executionCost": "infinite",
						"totalCost": "infinite"
					},
					"external": {
						"amount()": "2448",
						"arbiter()": "2647",
						"buyer()": "2594",
						"confirmDelivery()": "infinite",
						"deposit()": "28740",
						"fundsDisbursed()": "2488",
						"isDeposited()": "2511",
						"refundBuyer()": "infinite",
						"release()": "infinite",
						"releasePartial(uint256)": "infinite",
						"releasedAmount()": "2470",
						"seller()": "2509",
						"withdraw()": "infinite"
					}
				},
				"methodIdentifiers": {
					"amount()": "aa8c217c",
					"arbiter()": "fe25e00a",
					"buyer()": "7150d8ae",
					"confirmDelivery()": "5e10177b",
					"deposit()": "d0e30db0",
					"fundsDisbursed()": "d1a52e30",
					"isDeposited()": "c52f2e08",
					"refundBuyer()": "e8a61cc8",
					"release()": "86d1a69f",
					"releasePartial(uint256)": "ecdef075",
					"releasedAmount()": "45d30a17",
					"seller()": "08551a53",
					"withdraw()": "3ccfd60b"
				}
			},
			"storageLayout": {
				"storage": [
					{
						"astId": 3,
						"contract": "w8.sol:hw8_VulnerableEscrow",
						"label": "buyer",
						"offset": 0,
						"slot": "0",
						"type": "t_address"
					},
					{
						"astId": 5,
						"contract": "w8.sol:hw8_VulnerableEscrow",
						"label": "seller",
						"offset": 0,
						"slot": "1",
						"type": "t_address"
					},
					{
						"astId": 7,
						"contract": "w8.sol:hw8_VulnerableEscrow",
						"label": "amount",
						"offset": 0,
						"slot": "2",
						"type": "t_uint256"
					},
					{
						"astId": 9,
						"contract": "w8.sol:hw8_VulnerableEscrow",
						"label": "isDeposited",
						"offset": 0,
						"slot": "3",
						"type": "t_bool"
					},
					{
						"astId": 11,
						"contract": "w8.sol:hw8_VulnerableEscrow",
						"label": "arbiter",
						"offset": 1,
						"slot": "3",
						"type": "t_address"
					},
					{
						"astId": 13,
						"contract": "w8.sol:hw8_VulnerableEscrow",
						"label": "releasedAmount",
						"offset": 0,
						"slot": "4",
						"type": "t_uint256"
					},
					{
						"astId": 15,
						"contract": "w8.sol:hw8_VulnerableEscrow",
						"label": "fundsDisbursed",
						"offset": 0,
						"slot": "5",
						"type": "t_bool"
					}
				],
				"types": {
					"t_address": {
						"encoding": "inplace",
						"label": "address",
						"numberOfBytes": "20"
					},
					"t_bool": {
						"encoding": "inplace",
						"label": "bool",
						"numberOfBytes": "1"
					},
					"t_uint256": {
						"encoding": "inplace",
						"label": "uint256",
						"numberOfBytes": "32"
					}
				}
			},
			"userdoc": {
				"kind": "user",
				"methods": {},
				"version": 1
			}
		}
	}
}