{
	"data": {
		"bytecode": {
			"linkReferences": {
				"remix_accounts.sol": {
					"TestsAccounts": [
						{
							"length": 20,
							"start": 5452
						},
						{
							"length": 20,
							"start": 5633
						},
						{
							"length": 20,
							"start": 5815
						},
						{
							"length": 20,
							"start": 5997
						}
					]
				},
				"remix_tests.sol": {
					"Assert": [
						{
							"length": 20,
							"start": 688
						},
						{
							"length": 20,
							"start": 813
						},
						{
							"length": 20,
							"start": 1103
						},
						{
							"length": 20,
							"start": 1228
						},
						{
							"length": 20,
							"start": 1483
						},
						{
							"length": 20,
							"start": 1608
						},
						{
							"length": 20,
							"start": 1730
						},
						{
							"length": 20,
							"start": 2032
						},
						{
							"length": 20,
							"start": 2334
						},
						{
							"length": 20,
							"start": 2807
						},
						{
							"length": 20,
							"start": 2932
						},
						{
							"length": 20,
							"start": 3386
						},
						{
							"length": 20,
							"start": 4179
						},
						{
							"length": 20,
							"start": 4304
						},
						{
							"length": 20,
							"start": 4924
						},
						{
							"length": 20,
							"start": 5043
						},
						{
							"length": 20,
							"start": 5328
						},
						{
							"length": 20,
							"start": 7057
						},
						{
							"length": 20,
							"start": 7315
						},
						{
							"length": 20,
							"start": 7440
						},
						{
							"length": 20,
							"start": 8198
						},
						{
							"length": 20,
							"start": 8323
						},
						{
							"length": 20,
							"start": 8761
						},
						{
							"length": 20,
							"start": 9014
						},
						{
							"length": 20,
							"start": 9139
						},
						{
							"length": 20,
							"start": 10311
						},
						{
							"length": 20,
							"start": 10434
						},
						{
							"length": 20,
							"start": 10999
						},
						{
							"length": 20,
							"start": 11121
						},
						{
							"length": 20,
							"start": 11240
						},
						{
							"length": 20,
							"start": 11360
						},
						{
							"length": 20,
							"start": 11756
						},
						{
							"length": 20,
							"start": 11881
						},
						{
							"length": 20,
							"start": 12136
						},
						{
							"length": 20,
							"start": 12261
						},
						{
							"length": 20,
							"start": 12551
						},
						{
							"length": 20,
							"start": 12676
						},
						{
							"length": 20,
							"start": 13095
						},
						{
							"length": 20,
							"start": 13712
						},
						{
							"length": 20,
							"start": 13866
						}
					]
				}
			},
			"object": "6080604052348015600e575f80fd5b5061a59c8061001c5f395ff3fe608060405234801561000f575f80fd5b5060043610610135575f3560e01c806386526e43116100b6578063ce01abf01161007a578063ce01abf0146101cf578063cf291207146101d9578063ec07a0a3146101e3578063ed3502ae146101ed578063f95d102d146101f7578063fe7c593f1461020157610135565b806386526e431461019d57806388de657b146101a75780639dea947b146101b1578063c9190dd1146101bb578063cbb329e9146101c557610135565b8063575fc5d5116100fd578063575fc5d51461016b57806363718ef714610175578063749480d21461017f5780637fea0d4b14610189578063840efce81461019357610135565b80630c5085ae1461013957806339aa12081461014357806349fffacb1461014d5780634a52d5b7146101575780634e62263b14610161575b5f80fd5b61014161020b565b005b61014b610389565b005b610155610528565b005b61015f6106a4565b005b610169610a31565b005b610173610bd0565b005b61017d610db9565b005b61018761112f565b005b61019161152e565b005b61019b611a5d565b005b6101a5611bee565b005b6101af611d6c565b005b6101b96120e2565b005b6101c3612296565b005b6101cd61240f565b005b6101d76129af565b005b6101e1612d4c565b005b6101eb612ec5565b005b6101f5613041565b005b6101ff6131e0565b005b610209613383565b005b5f8054906101000a900473ffffffffffffffffffffffffffffffffffffffff1673ffffffffffffffffffffffffffffffffffffffff166386734e5b60015f6040518363ffffffff1660e01b815260040161026692919061379b565b5f604051808303815f87803b15801561027d575f80fd5b505af192505050801561028e575060015b61030f5773__$acbfb1c35000d78352310b16a054a6b106$__6339df137f60016040518263ffffffff1660e01b81526004016102ca9190613882565b602060405180830381865af41580156102e5573d5f803e3d5ffd5b505050506040513d601f19601f8201168201806040525081019061030991906138e9565b50610387565b73__$acbfb1c35000d78352310b16a054a6b106$__6339df137f5f6040518263ffffffff1660e01b81526004016103469190613984565b602060405180830381865af4158015610361573d5f803e3d5ffd5b505050506040513d601f19601f8201168201806040525081019061038591906138e9565b505b565b5f8054906101000a900473ffffffffffffffffffffffffffffffffffffffff1673ffffffffffffffffffffffffffffffffffffffff166386734e5b600160035f9054906101000a900473ffffffffffffffffffffffffffffffffffffffff166040518363ffffffff1660e01b81526004016104059291906139fa565b5f604051808303815f87803b15801561041c575f80fd5b505af192505050801561042d575060015b6104ae5773__$acbfb1c35000d78352310b16a054a6b106$__6339df137f60016040518263ffffffff1660e01b81526004016104699190613ab7565b602060405180830381865af4158015610484573d5f803e3d5ffd5b505050506040513d601f19601f820116820180604052508101906104a891906138e9565b50610526565b73__$acbfb1c35000d78352310b16a054a6b106$__6339df137f5f6040518263ffffffff1660e01b81526004016104e59190613b53565b602060405180830381865af4158015610500573d5f803e3d5ffd5b505050506040513d601f19601f8201168201806040525081019061052491906138e9565b505b565b5f8054906101000a900473ffffffffffffffffffffffffffffffffffffffff1673ffffffffffffffffffffffffffffffffffffffff16639ce0f97360016040518263ffffffff1660e01b81526004016105819190613bef565b5f604051808303815f87803b158015610598575f80fd5b505af19250505080156105a9575060015b61062a5773__$acbfb1c35000d78352310b16a054a6b106$__6339df137f60016040518263ffffffff1660e01b81526004016105e59190613c8b565b602060405180830381865af4158015610600573d5f803e3d5ffd5b505050506040513d601f19601f8201168201806040525081019061062491906138e9565b506106a2565b73__$acbfb1c35000d78352310b16a054a6b106$__6339df137f5f6040518263ffffffff1660e01b81526004016106619190613d27565b602060405180830381865af415801561067c573d5f803e3d5ffd5b505050506040513d601f19601f820116820180604052508101906106a091906138e9565b505b565b73__$acbfb1c35000d78352310b16a054a6b106$__6339df137f5f8054906101000a900473ffffffffffffffffffffffffffffffffffffffff1673ffffffffffffffffffffffffffffffffffffffff16638d28230b60025f9054906101000a900473ffffffffffffffffffffffffffffffffffffffff166040518263ffffffff1660e01b81526004016107379190613d53565b602060405180830381865afa158015610752573d5f803e3d5ffd5b505050506040513d601f19601f8201168201806040525081019061077691906138e9565b6040518263ffffffff1660e01b81526004016107929190613db6565b602060405180830381865af41580156107ad573d5f803e3d5ffd5b505050506040513d601f19601f820116820180604052508101906107d191906138e9565b5073__$acbfb1c35000d78352310b16a054a6b106$__6339df137f5f8054906101000a900473ffffffffffffffffffffffffffffffffffffffff1673ffffffffffffffffffffffffffffffffffffffff16638d28230b60035f9054906101000a900473ffffffffffffffffffffffffffffffffffffffff166040518263ffffffff1660e01b81526004016108659190613d53565b602060405180830381865afa158015610880573d5f803e3d5ffd5b505050506040513d601f19601f820116820180604052508101906108a491906138e9565b6040518263ffffffff1660e01b81526004016108c09190613e2c565b602060405180830381865af41580156108db573d5f803e3d5ffd5b505050506040513d601f19601f820116820180604052508101906108ff91906138e9565b5073__$acbfb1c35000d78352310b16a054a6b106$__6339df137f5f8054906101000a900473ffffffffffffffffffffffffffffffffffffffff1673ffffffffffffffffffffffffffffffffffffffff16638d28230b60045f9054906101000a900473ffffffffffffffffffffffffffffffffffffffff166040518263ffffffff1660e01b81526004016109939190613d53565b602060405180830381865afa1580156109ae573d5f803e3d5ffd5b505050506040513d601f19601f820116820180604052508101906109d291906138e9565b156040518263ffffffff1660e01b81526004016109ef9190613ec8565b602060405180830381865af4158015610a0a573d5f803e3d5ffd5b505050506040513d601f19601f82011682018060405250810190610a2e91906138e9565b50565b5f8054906101000a900473ffffffffffffffffffffffffffffffffffffffff1673ffffffffffffffffffffffffffffffffffffffff166386b0e812600160035f9054906101000a900473ffffffffffffffffffffffffffffffffffffffff166040518363ffffffff1660e01b8152600401610aad929190613ef4565b5f604051808303815f87803b158015610ac4575f80fd5b505af1925050508015610ad5575060015b610b565773__$acbfb1c35000d78352310b16a054a6b106$__6339df137f60016040518263ffffffff1660e01b8152600401610b119190613f65565b602060405180830381865af4158015610b2c573d5f803e3d5ffd5b505050506040513d601f19601f82011682018060405250810190610b5091906138e9565b50610bce565b73__$acbfb1c35000d78352310b16a054a6b106$__6339df137f5f6040518263ffffffff1660e01b8152600401610b8d9190614001565b602060405180830381865af4158015610ba8573d5f803e3d5ffd5b505050506040513d601f19601f82011682018060405250810190610bcc91906138e9565b505b565b5f8054906101000a900473ffffffffffffffffffffffffffffffffffffffff1673ffffffffffffffffffffffffffffffffffffffff166386b0e812600160035f9054906101000a900473ffffffffffffffffffffffffffffffffffffffff166040518363ffffffff1660e01b8152600401610c4c929190613ef4565b5f604051808303815f87803b158015610c63575f80fd5b505af1158015610c75573d5f803e3d5ffd5b505050505f805f9054906101000a900473ffffffffffffffffffffffffffffffffffffffff1673ffffffffffffffffffffffffffffffffffffffff1663b9db15b460016040518263ffffffff1660e01b8152600401610cd4919061402d565b5f60405180830381865afa158015610cee573d5f803e3d5ffd5b505050506040513d5f823e3d601f19601f82011682018060405250810190610d1691906141d6565b50509250505073__$acbfb1c35000d78352310b16a054a6b106$__63bfba5dd68260035f9054906101000a900473ffffffffffffffffffffffffffffffffffffffff166040518363ffffffff1660e01b8152600401610d769291906142c2565b602060405180830381865af4158015610d91573d5f803e3d5ffd5b505050506040513d601f19601f82011682018060405250810190610db591906138e9565b5050565b5f600267ffffffffffffffff811115610dd557610dd4614088565b5b604051908082528060200260200182016040528015610e0857816020015b6060815260200190600190039081610df35790505b5090506040518060400160405280600881526020017f69706e6f64657363000000000000000000000000000000000000000000000000815250815f81518110610e5457610e536142fc565b5b60200260200101819052506040518060400160405280600981526020017f69706e6f6465736332000000000000000000000000000000000000000000000081525081600181518110610ea957610ea86142fc565b5b60200260200101819052505f600267ffffffffffffffff811115610ed057610ecf614088565b5b604051908082528060200260200182016040528015610f0357816020015b6060815260200190600190039081610eee5790505b50905060405180602001604052805f815250815f81518110610f2857610f276142fc565b5b602002602001018190525060405180602001604052805f81525081600181518110610f5657610f556142fc565b5b60200260200101819052505f8067ffffffffffffffff811115610f7c57610f7b614088565b5b604051908082528060200260200182016040528015610faa5781602001602082028036833780820191505090505b5090505f8054906101000a900473ffffffffffffffffffffffffffffffffffffffff1673ffffffffffffffffffffffffffffffffffffffff1663f5f344138285856040518463ffffffff1660e01b815260040161100993929190614537565b5f604051808303815f87803b158015611020575f80fd5b505af1925050508015611031575060015b6110b25773__$acbfb1c35000d78352310b16a054a6b106$__6339df137f60016040518263ffffffff1660e01b815260040161106d9190614604565b602060405180830381865af4158015611088573d5f803e3d5ffd5b505050506040513d601f19601f820116820180604052508101906110ac91906138e9565b5061112a565b73__$acbfb1c35000d78352310b16a054a6b106$__6339df137f5f6040518263ffffffff1660e01b81526004016110e9919061467a565b602060405180830381865af4158015611104573d5f803e3d5ffd5b505050506040513d601f19601f8201168201806040525081019061112891906138e9565b505b505050565b5f8054906101000a900473ffffffffffffffffffffffffffffffffffffffff1673ffffffffffffffffffffffffffffffffffffffff166386734e5b600160025f9054906101000a900473ffffffffffffffffffffffffffffffffffffffff166040518363ffffffff1660e01b81526004016111ab92919061473a565b5f604051808303815f87803b1580156111c2575f80fd5b505af11580156111d4573d5f803e3d5ffd5b505050505f805f9054906101000a900473ffffffffffffffffffffffffffffffffffffffff1673ffffffffffffffffffffffffffffffffffffffff1663b9db15b460026040518263ffffffff1660e01b815260040161123391906147c0565b5f60405180830381865afa15801561124d573d5f803e3d5ffd5b505050506040513d5f823e3d601f19601f8201168201806040525081019061127591906141d6565b9450505050505f805f9054906101000a900473ffffffffffffffffffffffffffffffffffffffff1673ffffffffffffffffffffffffffffffffffffffff1663b9db15b460036040518263ffffffff1660e01b81526004016112d69190614812565b5f60405180830381865afa1580156112f0573d5f803e3d5ffd5b505050506040513d5f823e3d601f19601f8201168201806040525081019061131891906141d6565b94505050505073__$acbfb1c35000d78352310b16a054a6b106$__6339df137f836040518263ffffffff1660e01b81526004016113559190614875565b602060405180830381865af4158015611370573d5f803e3d5ffd5b505050506040513d601f19601f8201168201806040525081019061139491906138e9565b5073__$acbfb1c35000d78352310b16a054a6b106$__6339df137f826040518263ffffffff1660e01b81526004016113cc91906148eb565b602060405180830381865af41580156113e7573d5f803e3d5ffd5b505050506040513d601f19601f8201168201806040525081019061140b91906138e9565b505f805f9054906101000a900473ffffffffffffffffffffffffffffffffffffffff1673ffffffffffffffffffffffffffffffffffffffff16635ac4428260016040518263ffffffff1660e01b8152600401611467919061402d565b5f60405180830381865afa158015611481573d5f803e3d5ffd5b505050506040513d5f823e3d601f19601f820116820180604052508101906114a99190614ab9565b50509550505050505073__$acbfb1c35000d78352310b16a054a6b106$__6339df137f826040518263ffffffff1660e01b81526004016114e99190614c24565b602060405180830381865af4158015611504573d5f803e3d5ffd5b505050506040513d601f19601f8201168201806040525081019061152891906138e9565b50505050565b73__$1068a87eb54ed04c4e435de35b2ebf536f$__63ce88b1455f6040518263ffffffff1660e01b81526004016115659190614c89565b602060405180830381865af4158015611580573d5f803e3d5ffd5b505050506040513d601f19601f820116820180604052508101906115a49190614ca2565b60015f6101000a81548173ffffffffffffffffffffffffffffffffffffffff021916908373ffffffffffffffffffffffffffffffffffffffff16021790555073__$1068a87eb54ed04c4e435de35b2ebf536f$__63ce88b14560016040518263ffffffff1660e01b815260040161161b9190614cdc565b602060405180830381865af4158015611636573d5f803e3d5ffd5b505050506040513d601f19601f8201168201806040525081019061165a9190614ca2565b60025f6101000a81548173ffffffffffffffffffffffffffffffffffffffff021916908373ffffffffffffffffffffffffffffffffffffffff16021790555073__$1068a87eb54ed04c4e435de35b2ebf536f$__63ce88b14560026040518263ffffffff1660e01b81526004016116d19190614d04565b602060405180830381865af41580156116ec573d5f803e3d5ffd5b505050506040513d601f19601f820116820180604052508101906117109190614ca2565b60035f6101000a81548173ffffffffffffffffffffffffffffffffffffffff021916908373ffffffffffffffffffffffffffffffffffffffff16021790555073__$1068a87eb54ed04c4e435de35b2ebf536f$__63ce88b14560036040518263ffffffff1660e01b81526004016117879190614d2c565b602060405180830381865af41580156117a2573d5f803e3d5ffd5b505050506040513d601f19601f820116820180604052508101906117c69190614ca2565b60045f6101000a81548173ffffffffffffffffffffffffffffffffffffffff021916908373ffffffffffffffffffffffffffffffffffffffff160217905550604051611811906136aa565b604051809103905ff08015801561182a573d5f803e3d5ffd5b505f806101000a81548173ffffffffffffffffffffffffffffffffffffffff021916908373ffffffffffffffffffffffffffffffffffffffff1602179055505f8054906101000a900473ffffffffffffffffffffffffffffffffffffffff1673ffffffffffffffffffffffffffffffffffffffff1663c5f8d58460015f9054906101000a900473ffffffffffffffffffffffffffffffffffffffff166040518263ffffffff1660e01b81526004016118e29190613d53565b5f604051808303815f87803b1580156118f9575f80fd5b505af115801561190b573d5f803e3d5ffd5b505050505f8054906101000a900473ffffffffffffffffffffffffffffffffffffffff1673ffffffffffffffffffffffffffffffffffffffff1663c5f8d58460025f9054906101000a900473ffffffffffffffffffffffffffffffffffffffff166040518263ffffffff1660e01b81526004016119889190613d53565b5f604051808303815f87803b15801561199f575f80fd5b505af11580156119b1573d5f803e3d5ffd5b505050505f8054906101000a900473ffffffffffffffffffffffffffffffffffffffff1673ffffffffffffffffffffffffffffffffffffffff1663c5f8d58460035f9054906101000a900473ffffffffffffffffffffffffffffffffffffffff166040518263ffffffff1660e01b8152600401611a2e9190613d53565b5f604051808303815f87803b158015611a45575f80fd5b505af1158015611a57573d5f803e3d5ffd5b50505050565b5f805f9054906101000a900473ffffffffffffffffffffffffffffffffffffffff1673ffffffffffffffffffffffffffffffffffffffff166001604051602401611aa79190614dcb565b6040516020818303038152906040527f9ce0f973000000000000000000000000000000000000000000000000000000007bffffffffffffffffffffffffffffffffffffffffffffffffffffffff19166020820180517bffffffffffffffffffffffffffffffffffffffffffffffffffffffff8381831617835250505050604051611b319190614e3b565b5f604051808303815f865af19150503d805f8114611b6a576040519150601f19603f3d011682016040523d82523d5f602084013e611b6f565b606091505b5050905073__$acbfb1c35000d78352310b16a054a6b106$__6339df137f82156040518263ffffffff1660e01b8152600401611bab9190614e9b565b602060405180830381865af4158015611bc6573d5f803e3d5ffd5b505050506040513d601f19601f82011682018060405250810190611bea91906138e9565b5050565b5f8054906101000a900473ffffffffffffffffffffffffffffffffffffffff1673ffffffffffffffffffffffffffffffffffffffff166386b0e81260015f6040518363ffffffff1660e01b8152600401611c49929190613ef4565b5f604051808303815f87803b158015611c60575f80fd5b505af1925050508015611c71575060015b611cf25773__$acbfb1c35000d78352310b16a054a6b106$__6339df137f60016040518263ffffffff1660e01b8152600401611cad9190613882565b602060405180830381865af4158015611cc8573d5f803e3d5ffd5b505050506040513d601f19601f82011682018060405250810190611cec91906138e9565b50611d6a565b73__$acbfb1c35000d78352310b16a054a6b106$__6339df137f5f6040518263ffffffff1660e01b8152600401611d299190614f37565b602060405180830381865af4158015611d44573d5f803e3d5ffd5b505050506040513d601f19601f82011682018060405250810190611d6891906138e9565b505b565b5f600267ffffffffffffffff811115611d8857611d87614088565b5b604051908082528060200260200182016040528015611dbb57816020015b6060815260200190600190039081611da65790505b50905060405180602001604052805f815250815f81518110611de057611ddf6142fc565b5b602002602001018190525060405180602001604052805f81525081600181518110611e0e57611e0d6142fc565b5b60200260200101819052505f600267ffffffffffffffff811115611e3557611e34614088565b5b604051908082528060200260200182016040528015611e6857816020015b6060815260200190600190039081611e535790505b5090506040518060400160405280600581526020017f3235364742000000000000000000000000000000000000000000000000000000815250815f81518110611eb457611eb36142fc565b5b60200260200101819052506040518060400160405280600581526020017f353132474200000000000000000000000000000000000000000000000000000081525081600181518110611f0957611f086142fc565b5b60200260200101819052505f8067ffffffffffffffff811115611f2f57611f2e614088565b5b604051908082528060200260200182016040528015611f5d5781602001602082028036833780820191505090505b5090505f8054906101000a900473ffffffffffffffffffffffffffffffffffffffff1673ffffffffffffffffffffffffffffffffffffffff1663f5f344138285856040518463ffffffff1660e01b8152600401611fbc93929190614537565b5f604051808303815f87803b158015611fd3575f80fd5b505af1925050508015611fe4575060015b6120655773__$acbfb1c35000d78352310b16a054a6b106$__6339df137f60016040518263ffffffff1660e01b81526004016120209190614fd3565b602060405180830381865af415801561203b573d5f803e3d5ffd5b505050506040513d601f19601f8201168201806040525081019061205f91906138e9565b506120dd565b73__$acbfb1c35000d78352310b16a054a6b106$__6339df137f5f6040518263ffffffff1660e01b815260040161209c9190615049565b602060405180830381865af41580156120b7573d5f803e3d5ffd5b505050506040513d601f19601f820116820180604052508101906120db91906138e9565b505b505050565b5f805f9054906101000a900473ffffffffffffffffffffffffffffffffffffffff1673ffffffffffffffffffffffffffffffffffffffff16606360035f9054906101000a900473ffffffffffffffffffffffffffffffffffffffff1660405160240161214f9291906150ae565b6040516020818303038152906040527f86b0e812000000000000000000000000000000000000000000000000000000007bffffffffffffffffffffffffffffffffffffffffffffffffffffffff19166020820180517bffffffffffffffffffffffffffffffffffffffffffffffffffffffff83818316178352505050506040516121d99190614e3b565b5f604051808303815f865af19150503d805f8114612212576040519150601f19603f3d011682016040523d82523d5f602084013e612217565b606091505b5050905073__$acbfb1c35000d78352310b16a054a6b106$__6339df137f82156040518263ffffffff1660e01b8152600401612253919061511f565b602060405180830381865af415801561226e573d5f803e3d5ffd5b505050506040513d601f19601f8201168201806040525081019061229291906138e9565b5050565b5f8054906101000a900473ffffffffffffffffffffffffffffffffffffffff1673ffffffffffffffffffffffffffffffffffffffff16638fbd0dcf6040518163ffffffff1660e01b81526004016122ec906151b8565b5f604051808303815f87803b158015612303575f80fd5b505af1925050508015612314575060015b6123955773__$acbfb1c35000d78352310b16a054a6b106$__6339df137f60016040518263ffffffff1660e01b81526004016123509190615259565b602060405180830381865af415801561236b573d5f803e3d5ffd5b505050506040513d601f19601f8201168201806040525081019061238f91906138e9565b5061240d565b73__$acbfb1c35000d78352310b16a054a6b106$__6339df137f5f6040518263ffffffff1660e01b81526004016123cc91906152f5565b602060405180830381865af41580156123e7573d5f803e3d5ffd5b505050506040513d601f19601f8201168201806040525081019061240b91906138e9565b505b565b5f600267ffffffffffffffff81111561242b5761242a614088565b5b60405190808252806020026020018201604052801561245e57816020015b60608152602001906001900390816124495790505b5090506040518060400160405280600781526020017f6970686f6e653800000000000000000000000000000000000000000000000000815250815f815181106124aa576124a96142fc565b5b60200260200101819052506040518060400160405280600781526020017f6970686f6e653900000000000000000000000000000000000000000000000000815250816001815181106124ff576124fe6142fc565b5b60200260200101819052505f600267ffffffffffffffff81111561252657612525614088565b5b60405190808252806020026020018201604052801561255957816020015b60608152602001906001900390816125445790505b5090506040518060400160405280600581526020017f3235364742000000000000000000000000000000000000000000000000000000815250815f815181106125a5576125a46142fc565b5b60200260200101819052506040518060400160405280600581526020017f3531324742000000000000000000000000000000000000000000000000000000815250816001815181106125fa576125f96142fc565b5b60200260200101819052505f8067ffffffffffffffff8111156126205761261f614088565b5b60405190808252806020026020018201604052801561264e5781602001602082028036833780820191505090505b5090505f8054906101000a900473ffffffffffffffffffffffffffffffffffffffff1673ffffffffffffffffffffffffffffffffffffffff1663f5f344138285856040518463ffffffff1660e01b81526004016126ad93929190614537565b5f604051808303815f87803b1580156126c4575f80fd5b505af11580156126d6573d5f803e3d5ffd5b505050505f8054906101000a900473ffffffffffffffffffffffffffffffffffffffff1673ffffffffffffffffffffffffffffffffffffffff166386734e5b600160025f9054906101000a900473ffffffffffffffffffffffffffffffffffffffff166040518363ffffffff1660e01b8152600401612756929190615321565b5f604051808303815f87803b15801561276d575f80fd5b505af115801561277f573d5f803e3d5ffd5b505050505f805f9054906101000a900473ffffffffffffffffffffffffffffffffffffffff1673ffffffffffffffffffffffffffffffffffffffff16635ac4428260016040518263ffffffff1660e01b81526004016127de919061402d565b5f60405180830381865afa1580156127f8573d5f803e3d5ffd5b505050506040513d5f823e3d601f19601f820116820180604052508101906128209190614ab9565b50505050505050905073__$acbfb1c35000d78352310b16a054a6b106$__63abcd7960825160026040518363ffffffff1660e01b81526004016128649291906153ed565b602060405180830381865af415801561287f573d5f803e3d5ffd5b505050506040513d601f19601f820116820180604052508101906128a391906138e9565b5073__$acbfb1c35000d78352310b16a054a6b106$__63abcd79605f8054906101000a900473ffffffffffffffffffffffffffffffffffffffff1673ffffffffffffffffffffffffffffffffffffffff1663e0f6ef876040518163ffffffff1660e01b8152600401602060405180830381865afa158015612926573d5f803e3d5ffd5b505050506040513d601f19601f8201168201806040525081019061294a9190615427565b60036040518363ffffffff1660e01b81526004016129699291906154c2565b602060405180830381865af4158015612984573d5f803e3d5ffd5b505050506040513d601f19601f820116820180604052508101906129a891906138e9565b5050505050565b5f8054906101000a900473ffffffffffffffffffffffffffffffffffffffff1673ffffffffffffffffffffffffffffffffffffffff16638fbd0dcf6040518163ffffffff1660e01b8152600401612a0590615590565b5f604051808303815f87803b158015612a1c575f80fd5b505af1158015612a2e573d5f803e3d5ffd5b505050505f805f805f9054906101000a900473ffffffffffffffffffffffffffffffffffffffff1673ffffffffffffffffffffffffffffffffffffffff1663b9db15b460016040518263ffffffff1660e01b8152600401612a8f919061402d565b5f60405180830381865afa158015612aa9573d5f803e3d5ffd5b505050506040513d5f823e3d601f19601f82011682018060405250810190612ad191906141d6565b945050509250925073__$acbfb1c35000d78352310b16a054a6b106$__63abcd79608460016040518363ffffffff1660e01b8152600401612b1392919061560b565b602060405180830381865af4158015612b2e573d5f803e3d5ffd5b505050506040513d601f19601f82011682018060405250810190612b5291906138e9565b5073__$acbfb1c35000d78352310b16a054a6b106$__63e8c2cb16836040518263ffffffff1660e01b8152600401612b8a91906156e9565b602060405180830381865af4158015612ba5573d5f803e3d5ffd5b505050506040513d601f19601f82011682018060405250810190612bc991906138e9565b5073__$acbfb1c35000d78352310b16a054a6b106$__6339df137f82156040518263ffffffff1660e01b8152600401612c029190615779565b602060405180830381865af4158015612c1d573d5f803e3d5ffd5b505050506040513d601f19601f82011682018060405250810190612c4191906138e9565b5073__$acbfb1c35000d78352310b16a054a6b106$__63abcd79605f8054906101000a900473ffffffffffffffffffffffffffffffffffffffff1673ffffffffffffffffffffffffffffffffffffffff1663e0f6ef876040518163ffffffff1660e01b8152600401602060405180830381865afa158015612cc4573d5f803e3d5ffd5b505050506040513d601f19601f82011682018060405250810190612ce89190615427565b60016040518363ffffffff1660e01b8152600401612d07929190615815565b602060405180830381865af4158015612d22573d5f803e3d5ffd5b505050506040513d601f19601f82011682018060405250810190612d4691906138e9565b50505050565b5f8054906101000a900473ffffffffffffffffffffffffffffffffffffffff1673ffffffffffffffffffffffffffffffffffffffff16638fbd0dcf6040518163ffffffff1660e01b8152600401612da290615899565b5f604051808303815f87803b158015612db9575f80fd5b505af1925050508015612dca575060015b612e4b5773__$acbfb1c35000d78352310b16a054a6b106$__6339df137f60016040518263ffffffff1660e01b8152600401612e069190614fd3565b602060405180830381865af4158015612e21573d5f803e3d5ffd5b505050506040513d601f19601f82011682018060405250810190612e4591906138e9565b50612ec3565b73__$acbfb1c35000d78352310b16a054a6b106$__6339df137f5f6040518263ffffffff1660e01b8152600401612e829190615049565b602060405180830381865af4158015612e9d573d5f803e3d5ffd5b505050506040513d601f19601f82011682018060405250810190612ec191906138e9565b505b565b5f8054906101000a900473ffffffffffffffffffffffffffffffffffffffff1673ffffffffffffffffffffffffffffffffffffffff16639ce0f97360096040518263ffffffff1660e01b8152600401612f1e9190615973565b5f604051808303815f87803b158015612f35575f80fd5b505af1925050508015612f46575060015b612fc75773__$acbfb1c35000d78352310b16a054a6b106$__6339df137f60016040518263ffffffff1660e01b8152600401612f829190615a0f565b602060405180830381865af4158015612f9d573d5f803e3d5ffd5b505050506040513d601f19601f82011682018060405250810190612fc191906138e9565b5061303f565b73__$acbfb1c35000d78352310b16a054a6b106$__6339df137f5f6040518263ffffffff1660e01b8152600401612ffe9190615aab565b602060405180830381865af4158015613019573d5f803e3d5ffd5b505050506040513d601f19601f8201168201806040525081019061303d91906138e9565b505b565b5f8054906101000a900473ffffffffffffffffffffffffffffffffffffffff1673ffffffffffffffffffffffffffffffffffffffff166386734e5b600160025f9054906101000a900473ffffffffffffffffffffffffffffffffffffffff166040518363ffffffff1660e01b81526004016130bd92919061379b565b5f604051808303815f87803b1580156130d4575f80fd5b505af19250505080156130e5575060015b6131665773__$acbfb1c35000d78352310b16a054a6b106$__6339df137f60016040518263ffffffff1660e01b81526004016131219190613f65565b602060405180830381865af415801561313c573d5f803e3d5ffd5b505050506040513d601f19601f8201168201806040525081019061316091906138e9565b506131de565b73__$acbfb1c35000d78352310b16a054a6b106$__6339df137f5f6040518263ffffffff1660e01b815260040161319d9190615b47565b602060405180830381865af41580156131b8573d5f803e3d5ffd5b505050506040513d601f19601f820116820180604052508101906131dc91906138e9565b505b565b5f8054906101000a900473ffffffffffffffffffffffffffffffffffffffff1673ffffffffffffffffffffffffffffffffffffffff16639ce0f97360016040518263ffffffff1660e01b81526004016132399190615bbd565b5f604051808303815f87803b158015613250575f80fd5b505af1158015613262573d5f803e3d5ffd5b505050505f805f9054906101000a900473ffffffffffffffffffffffffffffffffffffffff1673ffffffffffffffffffffffffffffffffffffffff1663b9db15b460016040518263ffffffff1660e01b81526004016132c1919061402d565b5f60405180830381865afa1580156132db573d5f803e3d5ffd5b505050506040513d5f823e3d601f19601f8201168201806040525081019061330391906141d6565b94505050505073__$acbfb1c35000d78352310b16a054a6b106$__6339df137f826040518263ffffffff1660e01b81526004016133409190615c33565b602060405180830381865af415801561335b573d5f803e3d5ffd5b505050506040513d601f19601f8201168201806040525081019061337f91906138e9565b5050565b5f8054906101000a900473ffffffffffffffffffffffffffffffffffffffff1673ffffffffffffffffffffffffffffffffffffffff166386734e5b600160035f9054906101000a900473ffffffffffffffffffffffffffffffffffffffff166040518363ffffffff1660e01b81526004016133ff92919061379b565b5f604051808303815f87803b158015613416575f80fd5b505af1158015613428573d5f803e3d5ffd5b505050505f805f9054906101000a900473ffffffffffffffffffffffffffffffffffffffff1673ffffffffffffffffffffffffffffffffffffffff1663b9db15b460026040518263ffffffff1660e01b815260040161348791906147c0565b5f60405180830381865afa1580156134a1573d5f803e3d5ffd5b505050506040513d5f823e3d601f19601f820116820180604052508101906134c991906141d6565b5050925050505f805f9054906101000a900473ffffffffffffffffffffffffffffffffffffffff1673ffffffffffffffffffffffffffffffffffffffff1663b9db15b460036040518263ffffffff1660e01b815260040161352a9190614812565b5f60405180830381865afa158015613544573d5f803e3d5ffd5b505050506040513d5f823e3d601f19601f8201168201806040525081019061356c91906141d6565b50509250505073__$acbfb1c35000d78352310b16a054a6b106$__63bfba5dd68360035f9054906101000a900473ffffffffffffffffffffffffffffffffffffffff166040518363ffffffff1660e01b81526004016135cc929190615ccf565b602060405180830381865af41580156135e7573d5f803e3d5ffd5b505050506040513d601f19601f8201168201806040525081019061360b91906138e9565b5073__$acbfb1c35000d78352310b16a054a6b106$__63bfba5dd68260035f9054906101000a900473ffffffffffffffffffffffffffffffffffffffff166040518363ffffffff1660e01b8152600401613666929190615d79565b602060405180830381865af4158015613681573d5f803e3d5ffd5b505050506040513d601f19601f820116820180604052508101906136a591906138e9565b505050565b6147b380615db483390190565b5f819050919050565b5f819050919050565b5f819050919050565b5f6136ec6136e76136e2846136b7565b6136c9565b6136c0565b9050919050565b6136fc816136d2565b82525050565b5f73ffffffffffffffffffffffffffffffffffffffff82169050919050565b5f61372b82613702565b9050919050565b61373b81613721565b82525050565b5f82825260208201905092915050565b7f7472616e736665724261746368000000000000000000000000000000000000005f82015250565b5f613785600d83613741565b915061379082613751565b602082019050919050565b5f6080820190506137ae5f8301856136f3565b6137bb6020830184613732565b81810360408301526137cc81613779565b905081810360608301526137df81613779565b90509392505050565b5f8115159050919050565b6137fc816137e8565b82525050565b5f82825260208201905092915050565b7f426c6f636b6564207472616e7366657272696e6720746f2030206164647265735f8201527f7300000000000000000000000000000000000000000000000000000000000000602082015250565b5f61386c602183613802565b915061387782613812565b604082019050919050565b5f6040820190506138955f8301846137f3565b81810360208301526138a681613860565b905092915050565b5f604051905090565b5f80fd5b5f80fd5b6138c8816137e8565b81146138d2575f80fd5b50565b5f815190506138e3816138bf565b92915050565b5f602082840312156138fe576138fd6138b7565b5b5f61390b848285016138d5565b91505092915050565b7f73686f756c646e7420616c6c6f77207472616e7366657272696e6720746f20305f8201527f2061646472657373000000000000000000000000000000000000000000000000602082015250565b5f61396e602883613802565b915061397982613914565b604082019050919050565b5f6040820190506139975f8301846137f3565b81810360208301526139a881613962565b905092915050565b7f726561636c6c42617463680000000000000000000000000000000000000000005f82015250565b5f6139e4600b83613741565b91506139ef826139b0565b602082019050919050565b5f608082019050613a0d5f8301856136f3565b613a1a6020830184613732565b8181036040830152613a2b816139d8565b90508181036060830152613a3e816139d8565b90509392505050565b7f426c6f636b656420726563616c6c656420626174636820746f206265207265635f8201527f616c6c656420616761696e000000000000000000000000000000000000000000602082015250565b5f613aa1602b83613802565b9150613aac82613a47565b604082019050919050565b5f604082019050613aca5f8301846137f3565b8181036020830152613adb81613a95565b905092915050565b7f73686f756c646e7420616c6c6f7720616c726561647920726563616c6c6564205f8201527f626174636820746f20726563616c6c0000000000000000000000000000000000602082015250565b5f613b3d602f83613802565b9150613b4882613ae3565b604082019050919050565b5f604082019050613b665f8301846137f3565b8181036020830152613b7781613b31565b905092915050565b7f7465737420726563616c6c20616c726561647920726563616c6c65642070726f5f8201527f6475637400000000000000000000000000000000000000000000000000000000602082015250565b5f613bd9602483613741565b9150613be482613b7f565b604082019050919050565b5f604082019050613c025f8301846136f3565b8181036020830152613c1381613bcd565b905092915050565b7f426c6f636b656420726563616c6c696e6720726563616c6c65642070726f64755f8201527f6374000000000000000000000000000000000000000000000000000000000000602082015250565b5f613c75602283613802565b9150613c8082613c1b565b604082019050919050565b5f604082019050613c9e5f8301846137f3565b8181036020830152613caf81613c69565b905092915050565b7f73686f756c646e7420616c6c6f7720726563616c6c20726563616c6c656420705f8201527f726f647563740000000000000000000000000000000000000000000000000000602082015250565b5f613d11602683613802565b9150613d1c82613cb7565b604082019050919050565b5f604082019050613d3a5f8301846137f3565b8181036020830152613d4b81613d05565b905092915050565b5f602082019050613d665f830184613732565b92915050565b7f417574686f72697a6564312073686f756c6420626520617574686f72697a65645f82015250565b5f613da0602083613802565b9150613dab82613d6c565b602082019050919050565b5f604082019050613dc95f8301846137f3565b8181036020830152613dda81613d94565b905092915050565b7f417574686f72697a6564322073686f756c6420626520617574686f72697a65645f82015250565b5f613e16602083613802565b9150613e2182613de2565b602082019050919050565b5f604082019050613e3f5f8301846137f3565b8181036020830152613e5081613e0a565b905092915050565b7f556e617574686f72697a65642073686f756c64206e6f7420626520617574686f5f8201527f72697a6564000000000000000000000000000000000000000000000000000000602082015250565b5f613eb2602583613802565b9150613ebd82613e58565b604082019050919050565b5f604082019050613edb5f8301846137f3565b8181036020830152613eec81613ea6565b905092915050565b5f604082019050613f075f8301856136f3565b613f146020830184613732565b9392505050565b7f426c6f636b6564207472616e7366657272696e6720746f20796f757273656c665f82015250565b5f613f4f602083613802565b9150613f5a82613f1b565b602082019050919050565b5f604082019050613f785f8301846137f3565b8181036020830152613f8981613f43565b905092915050565b7f73686f756c646e7420616c6c6f77207472616e7366657220746f20796f7572735f8201527f656c660000000000000000000000000000000000000000000000000000000000602082015250565b5f613feb602383613802565b9150613ff682613f91565b604082019050919050565b5f6040820190506140145f8301846137f3565b818103602083015261402581613fdf565b905092915050565b5f6020820190506140405f8301846136f3565b92915050565b61404f816136c0565b8114614059575f80fd5b50565b5f8151905061406a81614046565b92915050565b5f80fd5b5f80fd5b5f601f19601f8301169050919050565b7f4e487b71000000000000000000000000000000000000000000000000000000005f52604160045260245ffd5b6140be82614078565b810181811067ffffffffffffffff821117156140dd576140dc614088565b5b80604052505050565b5f6140ef6138ae565b90506140fb82826140b5565b919050565b5f67ffffffffffffffff82111561411a57614119614088565b5b61412382614078565b9050602081019050919050565b8281835e5f83830152505050565b5f61415061414b84614100565b6140e6565b90508281526020810184848401111561416c5761416b614074565b5b614177848285614130565b509392505050565b5f82601f83011261419357614192614070565b5b81516141a384826020860161413e565b91505092915050565b6141b581613721565b81146141bf575f80fd5b50565b5f815190506141d0816141ac565b92915050565b5f805f805f60a086880312156141ef576141ee6138b7565b5b5f6141fc8882890161405c565b955050602086015167ffffffffffffffff81111561421d5761421c6138bb565b5b6142298882890161417f565b945050604061423a888289016141c2565b935050606061424b8882890161405c565b925050608061425c888289016138d5565b9150509295509295909350565b61427281613721565b82525050565b7f4f776e657273686970207472616e73666572206661696c6564000000000000005f82015250565b5f6142ac601983613802565b91506142b782614278565b602082019050919050565b5f6060820190506142d55f830185614269565b6142e26020830184614269565b81810360408301526142f3816142a0565b90509392505050565b7f4e487b71000000000000000000000000000000000000000000000000000000005f52603260045260245ffd5b5f81519050919050565b5f82825260208201905092915050565b5f819050602082019050919050565b61435b816136c0565b82525050565b5f61436c8383614352565b60208301905092915050565b5f602082019050919050565b5f61438e82614329565b6143988185614333565b93506143a383614343565b805f5b838110156143d35781516143ba8882614361565b97506143c583614378565b9250506001810190506143a6565b5085935050505092915050565b5f81519050919050565b5f82825260208201905092915050565b5f819050602082019050919050565b5f81519050919050565b5f82825260208201905092915050565b5f61442d82614409565b6144378185614413565b9350614447818560208601614130565b61445081614078565b840191505092915050565b5f6144668383614423565b905092915050565b5f602082019050919050565b5f614484826143e0565b61448e81856143ea565b9350836020820285016144a0856143fa565b805f5b858110156144db57848403895281516144bc858261445b565b94506144c78361446e565b925060208a019950506001810190506144a3565b50829750879550505050505092915050565b7f72656769737465724261746368000000000000000000000000000000000000005f82015250565b5f614521600d83613741565b915061452c826144ed565b602082019050919050565b5f6080820190508181035f83015261454f8186614384565b90508181036020830152614563818561447a565b90508181036040830152614577818461447a565b9050818103606083015261458a81614515565b9050949350505050565b7f426c6f636b65642072656769737465722070726f64756374207769746820656d5f8201527f7074792064657363000000000000000000000000000000000000000000000000602082015250565b5f6145ee602883613802565b91506145f982614594565b604082019050919050565b5f6040820190506146175f8301846137f3565b8181036020830152614628816145e2565b905092915050565b7f656d70747920646573632073686f756c646e7420626520616c6c6f77656400005f82015250565b5f614664601e83613802565b915061466f82614630565b602082019050919050565b5f60408201905061468d5f8301846137f3565b818103602083015261469e81614658565b905092915050565b7f726563616c6c42617463680000000000000000000000000000000000000000005f82015250565b5f6146da600b83613741565b91506146e5826146a6565b602082019050919050565b7f7465737420626174636820726563616c6c0000000000000000000000000000005f82015250565b5f614724601183613741565b915061472f826146f0565b602082019050919050565b5f60808201905061474d5f8301856136f3565b61475a6020830184613732565b818103604083015261476b816146ce565b9050818103606083015261477e81614718565b90509392505050565b5f819050919050565b5f6147aa6147a56147a084614787565b6136c9565b6136c0565b9050919050565b6147ba81614790565b82525050565b5f6020820190506147d35f8301846147b1565b92915050565b5f819050919050565b5f6147fc6147f76147f2846147d9565b6136c9565b6136c0565b9050919050565b61480c816147e2565b82525050565b5f6020820190506148255f830184614803565b92915050565b7f6970686f6e653820726563616c6c206661696c656400000000000000000000005f82015250565b5f61485f601583613802565b915061486a8261482b565b602082019050919050565b5f6040820190506148885f8301846137f3565b818103602083015261489981614853565b905092915050565b7f6970686f6e653920726563616c6c206661696c656400000000000000000000005f82015250565b5f6148d5601583613802565b91506148e0826148a1565b602082019050919050565b5f6040820190506148fe5f8301846137f3565b818103602083015261490f816148c9565b905092915050565b5f67ffffffffffffffff82111561493157614930614088565b5b602082029050602081019050919050565b5f80fd5b5f61495861495384614917565b6140e6565b9050808382526020820190506020840283018581111561497b5761497a614942565b5b835b818110156149a45780614990888261405c565b84526020840193505060208101905061497d565b5050509392505050565b5f82601f8301126149c2576149c1614070565b5b81516149d2848260208601614946565b91505092915050565b5f67ffffffffffffffff8211156149f5576149f4614088565b5b602082029050602081019050919050565b5f614a18614a13846149db565b6140e6565b90508083825260208201905060208402830185811115614a3b57614a3a614942565b5b835b81811015614a8257805167ffffffffffffffff811115614a6057614a5f614070565b5b808601614a6d898261417f565b85526020850194505050602081019050614a3d565b5050509392505050565b5f82601f830112614aa057614a9f614070565b5b8151614ab0848260208601614a06565b91505092915050565b5f805f805f805f80610100898b031215614ad657614ad56138b7565b5b5f89015167ffffffffffffffff811115614af357614af26138bb565b5b614aff8b828c016149ae565b985050602089015167ffffffffffffffff811115614b2057614b1f6138bb565b5b614b2c8b828c01614a8c565b975050604089015167ffffffffffffffff811115614b4d57614b4c6138bb565b5b614b598b828c01614a8c565b9650506060614b6a8b828c016141c2565b9550506080614b7b8b828c0161405c565b94505060a0614b8c8b828c016138d5565b93505060c0614b9d8b828c0161405c565b92505060e089015167ffffffffffffffff811115614bbe57614bbd6138bb565b5b614bca8b828c0161417f565b9150509295985092959890939650565b7f626174636820726563616c6c206661696c6564000000000000000000000000005f82015250565b5f614c0e601383613802565b9150614c1982614bda565b602082019050919050565b5f604082019050614c375f8301846137f3565b8181036020830152614c4881614c02565b905092915050565b5f819050919050565b5f614c73614c6e614c6984614c50565b6136c9565b6136c0565b9050919050565b614c8381614c59565b82525050565b5f602082019050614c9c5f830184614c7a565b92915050565b5f60208284031215614cb757614cb66138b7565b5b5f614cc4848285016141c2565b91505092915050565b614cd6816136d2565b82525050565b5f602082019050614cef5f830184614ccd565b92915050565b614cfe81614790565b82525050565b5f602082019050614d175f830184614cf5565b92915050565b614d26816147e2565b82525050565b5f602082019050614d3f5f830184614d1d565b92915050565b5f60ff82169050919050565b5f614d6b614d66614d61846136b7565b6136c9565b614d45565b9050919050565b614d7b81614d51565b82525050565b7f7265656e74727920726563616c6c0000000000000000000000000000000000005f82015250565b5f614db5600e83613741565b9150614dc082614d81565b602082019050919050565b5f604082019050614dde5f830184614d72565b8181036020830152614def81614da9565b905092915050565b5f81519050919050565b5f81905092915050565b5f614e1582614df7565b614e1f8185614e01565b9350614e2f818560208601614130565b80840191505092915050565b5f614e468284614e0b565b915081905092915050565b7f7265656e74727920726563616c6c2073686f756c64206661696c0000000000005f82015250565b5f614e85601a83613802565b9150614e9082614e51565b602082019050919050565b5f604082019050614eae5f8301846137f3565b8181036020830152614ebf81614e79565b905092915050565b7f73686f756c646e7420616c6c6f77207472616e7366657220746f2030206164645f8201527f7265737300000000000000000000000000000000000000000000000000000000602082015250565b5f614f21602483613802565b9150614f2c82614ec7565b604082019050919050565b5f604082019050614f4a5f8301846137f3565b8181036020830152614f5b81614f15565b905092915050565b7f426c6f636b65642072656769737465722070726f64756374207769746820656d5f8201527f707479206e616d65000000000000000000000000000000000000000000000000602082015250565b5f614fbd602883613802565b9150614fc882614f63565b604082019050919050565b5f604082019050614fe65f8301846137f3565b8181036020830152614ff781614fb1565b905092915050565b7f656d707479206e616d652073686f756c646e7420626520616c6c6f77656400005f82015250565b5f615033601e83613802565b915061503e82614fff565b602082019050919050565b5f60408201905061505c5f8301846137f3565b818103602083015261506d81615027565b905092915050565b5f819050919050565b5f61509861509361508e84615075565b6136c9565b614d45565b9050919050565b6150a88161507e565b82525050565b5f6040820190506150c15f83018561509f565b6150ce6020830184613732565b9392505050565b7f496e76616c69642070726f6475637449642073686f756c64206661696c0000005f82015250565b5f615109601d83613802565b9150615114826150d5565b602082019050919050565b5f6040820190506151325f8301846137f3565b8181036020830152615143816150fd565b905092915050565b7f6970686f6e656e6f6465736300000000000000000000000000000000000000005f82015250565b5f61517f600c83613741565b915061518a8261514b565b602082019050919050565b50565b5f6151a35f83613741565b91506151ae82615195565b5f82019050919050565b5f6040820190508181035f8301526151cf81615173565b905081810360208301526151e281615198565b9050919050565b7f426c6f636b65642072656769737465722070726f64756374207769746820656d5f8201527f707479206465736372697074696f6e0000000000000000000000000000000000602082015250565b5f615243602f83613802565b915061524e826151e9565b604082019050919050565b5f60408201905061526c5f8301846137f3565b818103602083015261527d81615237565b905092915050565b7f656d707479206465736372697074696f6e2073686f756c646e7420626520616c5f8201527f6c6f776564000000000000000000000000000000000000000000000000000000602082015250565b5f6152df602583613802565b91506152ea82615285565b604082019050919050565b5f6040820190506153085f8301846137f3565b8181036020830152615319816152d3565b905092915050565b5f6080820190506153345f8301856136f3565b6153416020830184613732565b818103604083015261535281614515565b9050818103606083015261536581615198565b90509392505050565b615377816136c0565b82525050565b7f62617463682073686f756c6420636f6e7461696e20322070726f6475637473205f8201527f6f6e6c7900000000000000000000000000000000000000000000000000000000602082015250565b5f6153d7602483613802565b91506153e28261537d565b604082019050919050565b5f6060820190506154005f83018561536e565b61540d6020830184614cf5565b818103604083015261541e816153cb565b90509392505050565b5f6020828403121561543c5761543b6138b7565b5b5f6154498482850161405c565b91505092915050565b7f746f74616c2070726f64756374732073686f756c6420626520332c20322066725f8201527f6f6d20626174636820312066726f6d20696e646976696475616c000000000000602082015250565b5f6154ac603a83613802565b91506154b782615452565b604082019050919050565b5f6060820190506154d55f83018561536e565b6154e26020830184614d1d565b81810360408301526154f3816154a0565b90509392505050565b7f6970686f6e6531300000000000000000000000000000000000000000000000005f82015250565b5f615530600883613741565b915061553b826154fc565b602082019050919050565b7f31303234474200000000000000000000000000000000000000000000000000005f82015250565b5f61557a600683613741565b915061558582615546565b602082019050919050565b5f6040820190508181035f8301526155a781615524565b905081810360208301526155ba8161556e565b9050919050565b7f70726f6475637449642073686f756c64206265203100000000000000000000005f82015250565b5f6155f5601583613802565b9150615600826155c1565b602082019050919050565b5f60608201905061561e5f83018561536e565b61562b6020830184614ccd565b818103604083015261563c816155e9565b90509392505050565b5f61564f82614409565b6156598185613802565b9350615669818560208601614130565b61567281614078565b840191505092915050565b5f615689600883613802565b9150615694826154fc565b602082019050919050565b7f70726f64756374206e616d65206d69736d6174636800000000000000000000005f82015250565b5f6156d3601583613802565b91506156de8261569f565b602082019050919050565b5f6060820190508181035f8301526157018184615645565b905081810360208301526157148161567d565b90508181036040830152615727816156c7565b905092915050565b7f73686f756c64206e6f7420626520726563616c6c6564207965740000000000005f82015250565b5f615763601a83613802565b915061576e8261572f565b602082019050919050565b5f60408201905061578c5f8301846137f3565b818103602083015261579d81615757565b905092915050565b7f7468697320696e646976696475616c207265672073686f756c64206f6e6c79205f8201527f6861766520312070726f64756374206f6e6c7900000000000000000000000000602082015250565b5f6157ff603383613802565b915061580a826157a5565b604082019050919050565b5f6060820190506158285f83018561536e565b6158356020830184614ccd565b8181036040830152615846816157f3565b90509392505050565b7f6970686f6e656e6f6e616d6500000000000000000000000000000000000000005f82015250565b5f615883600c83613741565b915061588e8261584f565b602082019050919050565b5f6040820190508181035f8301526158b081615198565b905081810360208301526158c381615877565b9050919050565b5f819050919050565b5f6158ed6158e86158e3846158ca565b6136c9565b6136c0565b9050919050565b6158fd816158d3565b82525050565b7f7465737420696e646920726563616c6c206e6f6e206578697374696e672070725f8201527f6f64756374000000000000000000000000000000000000000000000000000000602082015250565b5f61595d602583613741565b915061596882615903565b604082019050919050565b5f6040820190506159865f8301846158f4565b818103602083015261599781615951565b905092915050565b7f426c6f636b656420726563616c6c206e6f6e6578697374696e672070726f64755f8201527f6374000000000000000000000000000000000000000000000000000000000000602082015250565b5f6159f9602283613802565b9150615a048261599f565b604082019050919050565b5f604082019050615a225f8301846137f3565b8181036020830152615a33816159ed565b905092915050565b7f73686f756c646e7420616c6c6f7720726563616c6c206e6f6e6578697374696e5f8201527f672070726f647563740000000000000000000000000000000000000000000000602082015250565b5f615a95602983613802565b9150615aa082615a3b565b604082019050919050565b5f604082019050615abe5f8301846137f3565b8181036020830152615acf81615a89565b905092915050565b7f73686f756c646e7420616c6c6f77207472616e7366657272696e6720746f20795f8201527f6f757273656c6600000000000000000000000000000000000000000000000000602082015250565b5f615b31602783613802565b9150615b3c82615ad7565b604082019050919050565b5f604082019050615b5a5f8301846137f3565b8181036020830152615b6b81615b25565b905092915050565b7f7465737420696e646920726563616c6c000000000000000000000000000000005f82015250565b5f615ba7601083613741565b9150615bb282615b73565b602082019050919050565b5f604082019050615bd05f8301846136f3565b8181036020830152615be181615b9b565b905092915050565b7f696e646920726563616c6c206661696c656400000000000000000000000000005f82015250565b5f615c1d601283613802565b9150615c2882615be9565b602082019050919050565b5f604082019050615c465f8301846137f3565b8181036020830152615c5781615c11565b905092915050565b7f4261746368207472616e73666572206661696c656420666f722070726f6475635f8201527f7420320000000000000000000000000000000000000000000000000000000000602082015250565b5f615cb9602383613802565b9150615cc482615c5f565b604082019050919050565b5f606082019050615ce25f830185614269565b615cef6020830184614269565b8181036040830152615d0081615cad565b90509392505050565b7f4261746368207472616e73666572206661696c656420666f722070726f6475635f8201527f7420330000000000000000000000000000000000000000000000000000000000602082015250565b5f615d63602383613802565b9150615d6e82615d09565b604082019050919050565b5f606082019050615d8c5f830185614269565b615d996020830184614269565b8181036040830152615daa81615d57565b9050939250505056fe608060405234801561000f575f80fd5b50335f806101000a81548173ffffffffffffffffffffffffffffffffffffffff021916908373ffffffffffffffffffffffffffffffffffffffff1602179055505f6001819055505f600281905550600160035f3373ffffffffffffffffffffffffffffffffffffffff1673ffffffffffffffffffffffffffffffffffffffff1681526020019081526020015f205f6101000a81548160ff0219169083151502179055503373ffffffffffffffffffffffffffffffffffffffff167f3cbcbb9ba5a54d0762f39fd455fd2900fbcfcd0e0693e2c87db13043c400b55f60405160405180910390a26146b1806101025f395ff3fe608060405234801561000f575f80fd5b506004361061011f575f3560e01c80638fbd0dcf116100ab578063b9db15b41161006f578063b9db15b41461034b578063c5f8d5841461037f578063cf9cd6691461039b578063e0f6ef87146103cb578063f5f34413146103e95761011f565b80638fbd0dcf1461027f5780639ce0f9731461029b5780639ffaa71e146102b7578063af55ed64146102e7578063b32c4d8d146103175761011f565b80637acc0b20116100f25780637acc0b20146101c457806386734e5b146101f957806386b0e812146102155780638d28230b146102315780638da5cb5b146102615761011f565b8063043414221461012357806306f130561461013f5780633c9af5871461015d5780635ac442821461018d575b5f80fd5b61013d60048036038101906101389190612b9b565b610405565b005b6101476105a1565b6040516101549190612c04565b60405180910390f35b61017760048036038101906101729190612c1d565b6105a7565b6040516101849190612c62565b60405180910390f35b6101a760048036038101906101a29190612c1d565b6107be565b6040516101bb989796959493929190612ed4565b60405180910390f35b6101de60048036038101906101d99190612c1d565b610b3c565b6040516101f096959493929190612f6c565b60405180910390f35b610213600480360381019061020e9190613003565b610cab565b005b61022f600480360381019061022a919061309f565b61159e565b005b61024b600480360381019061024691906130dd565b611972565b6040516102589190612c62565b60405180910390f35b61026961198f565b6040516102769190613108565b60405180910390f35b61029960048036038101906102949190613121565b6119b2565b005b6102b560048036038101906102b09190612b9b565b611c4d565b005b6102d160048036038101906102cc9190612c1d565b611de7565b6040516102de9190612c62565b60405180910390f35b61030160048036038101906102fc9190612c1d565b611e15565b60405161030e9190612c62565b60405180910390f35b610331600480360381019061032c9190612c1d565b611e66565b604051610342959493929190613197565b60405180910390f35b61036560048036038101906103609190612c1d565b611f4a565b6040516103769594939291906131ef565b60405180910390f35b610399600480360381019061039491906130dd565b61213d565b005b6103b560048036038101906103b09190612c1d565b61235d565b6040516103c29190613247565b60405180910390f35b6103d3612434565b6040516103e09190612c04565b60405180910390f35b61040360048036038101906103fe9190613409565b61243a565b005b60035f3373ffffffffffffffffffffffffffffffffffffffff1673ffffffffffffffffffffffffffffffffffffffff1681526020019081526020015f205f9054906101000a900460ff1661048e576040517f08c379a000000000000000000000000000000000000000000000000000000000815260040161048590613527565b60405180910390fd5b61049782611de7565b6104d6576040517f08c379a00000000000000000000000000000000000000000000000000000000081526004016104cd9061358f565b60405180910390fd5b5f60055f8481526020019081526020015f209050806005015f9054906101000a900460ff161561053b576040517f08c379a0000000000000000000000000000000000000000000000000000000008152600401610532906135f7565b60405180910390fd5b5f5b815f018054905081101561057f57610572825f01828154811061056357610562613615565b5b905f5260205f20015484611c4d565b808060010191505061053d565b506001816005015f6101000a81548160ff021916908315150217905550505050565b60025481565b5f6105b182611e15565b6105f0576040517f08c379a00000000000000000000000000000000000000000000000000000000081526004016105e79061368c565b60405180910390fd5b5f60045f8481526020019081526020015f206040518060c00160405290815f8201548152602001600182018054610626906136d7565b80601f0160208091040260200160405190810160405280929190818152602001828054610652906136d7565b801561069d5780601f106106745761010080835404028352916020019161069d565b820191905f5260205f20905b81548152906001019060200180831161068057829003601f168201915b505050505081526020016002820180546106b6906136d7565b80601f01602080910402602001604051908101604052809291908181526020018280546106e2906136d7565b801561072d5780601f106107045761010080835404028352916020019161072d565b820191905f5260205f20905b81548152906001019060200180831161071057829003601f168201915b50505050508152602001600382015f9054906101000a900473ffffffffffffffffffffffffffffffffffffffff1673ffffffffffffffffffffffffffffffffffffffff1673ffffffffffffffffffffffffffffffffffffffff16815260200160048201548152602001600582015f9054906101000a900460ff16151515158152505090508060a00151915050919050565b60608060605f805f8060605f60055f8b81526020019081526020015f20604051806101000160405290815f820180548060200260200160405190810160405280929190818152602001828054801561083357602002820191905f5260205f20905b81548152602001906001019080831161081f575b5050505050815260200160018201805480602002602001604051908101604052809291908181526020015f905b82821015610908578382905f5260205f2001805461087d906136d7565b80601f01602080910402602001604051908101604052809291908181526020018280546108a9906136d7565b80156108f45780601f106108cb576101008083540402835291602001916108f4565b820191905f5260205f20905b8154815290600101906020018083116108d757829003601f168201915b505050505081526020019060010190610860565b50505050815260200160028201805480602002602001604051908101604052809291908181526020015f905b828210156109dc578382905f5260205f20018054610951906136d7565b80601f016020809104026020016040519081016040528092919081815260200182805461097d906136d7565b80156109c85780601f1061099f576101008083540402835291602001916109c8565b820191905f5260205f20905b8154815290600101906020018083116109ab57829003601f168201915b505050505081526020019060010190610934565b505050508152602001600382015f9054906101000a900473ffffffffffffffffffffffffffffffffffffffff1673ffffffffffffffffffffffffffffffffffffffff1673ffffffffffffffffffffffffffffffffffffffff16815260200160048201548152602001600582015f9054906101000a900460ff1615151515815260200160068201548152602001600782018054610a77906136d7565b80601f0160208091040260200160405190810160405280929190818152602001828054610aa3906136d7565b8015610aee5780601f10610ac557610100808354040283529160200191610aee565b820191905f5260205f20905b815481529060010190602001808311610ad157829003601f168201915b5050505050815250509050805f015181602001518260400151836060015184608001518560a001518660c001518760e001519850985098509850985098509850985050919395975091939597565b6004602052805f5260405f205f91509050805f015490806001018054610b61906136d7565b80601f0160208091040260200160405190810160405280929190818152602001828054610b8d906136d7565b8015610bd85780601f10610baf57610100808354040283529160200191610bd8565b820191905f5260205f20905b815481529060010190602001808311610bbb57829003601f168201915b505050505090806002018054610bed906136d7565b80601f0160208091040260200160405190810160405280929190818152602001828054610c19906136d7565b8015610c645780601f10610c3b57610100808354040283529160200191610c64565b820191905f5260205f20905b815481529060010190602001808311610c4757829003601f168201915b505050505090806003015f9054906101000a900473ffffffffffffffffffffffffffffffffffffffff1690806004015490806005015f9054906101000a900460ff16905086565b60035f3373ffffffffffffffffffffffffffffffffffffffff1673ffffffffffffffffffffffffffffffffffffffff1681526020019081526020015f205f9054906101000a900460ff16610d34576040517f08c379a0000000000000000000000000000000000000000000000000000000008152600401610d2b90613527565b60405180910390fd5b5f60055f8681526020019081526020015f206006015403610d8a576040517f08c379a0000000000000000000000000000000000000000000000000000000008152600401610d819061358f565b60405180910390fd5b60055f8581526020019081526020015f206005015f9054906101000a900460ff1615610deb576040517f08c379a0000000000000000000000000000000000000000000000000000000008152600401610de290613751565b60405180910390fd5b5f73ffffffffffffffffffffffffffffffffffffffff168373ffffffffffffffffffffffffffffffffffffffff1603610e59576040517f08c379a0000000000000000000000000000000000000000000000000000000008152600401610e50906137b9565b60405180910390fd5b604051602001610e689061382b565b6040516020818303038152906040528051906020012082604051602001610e8f919061386f565b60405160208183030381529060405280519060200120036112e1575f60055f8681526020019081526020015f205f018054905014610f02576040517f08c379a0000000000000000000000000000000000000000000000000000000008152600401610ef9906138f5565b60405180910390fd5b5f60055f8681526020019081526020015f206001018054905067ffffffffffffffff811115610f3457610f33612a77565b5b604051908082528060200260200182016040528015610f625781602001602082028036833780820191505090505b5090505f5b60055f8781526020019081526020015f20600101805490508110156112b25760015f815480929190610f9890613940565b9190505550600154828281518110610fb357610fb2613615565b5b6020026020010181815250506040518060c00160405280600154815260200160055f8981526020019081526020015f206001018381548110610ff857610ff7613615565b5b905f5260205f2001805461100b906136d7565b80601f0160208091040260200160405190810160405280929190818152602001828054611037906136d7565b80156110825780601f1061105957610100808354040283529160200191611082565b820191905f5260205f20905b81548152906001019060200180831161106557829003601f168201915b5050505050815260200160055f8981526020019081526020015f2060020183815481106110b2576110b1613615565b5b905f5260205f200180546110c5906136d7565b80601f01602080910402602001604051908101604052809291908181526020018280546110f1906136d7565b801561113c5780601f106111135761010080835404028352916020019161113c565b820191905f5260205f20905b81548152906001019060200180831161111f57829003601f168201915b505050505081526020018673ffffffffffffffffffffffffffffffffffffffff1681526020014281526020015f151581525060045f60015481526020019081526020015f205f820151815f0155602082015181600101908161119e9190613b24565b5060408201518160020190816111b49190613b24565b506060820151816003015f6101000a81548173ffffffffffffffffffffffffffffffffffffffff021916908373ffffffffffffffffffffffffffffffffffffffff1602179055506080820151816004015560a0820151816005015f6101000a81548160ff0219169083151502179055509050508473ffffffffffffffffffffffffffffffffffffffff166001547f0cab8542fad5393d8a674ae5bb9094c309e41fdf2bf941b1d4a44fb4a790ff1c60055f8a81526020019081526020015f20600101848154811061128857611287613615565b5b905f5260205f200160405161129d9190613c74565b60405180910390a38080600101915050610f67565b508060055f8781526020019081526020015f205f0190805190602001906112da9291906128fe565b505061154d565b6040516020016112f090613cde565b6040516020818303038152906040528051906020012082604051602001611317919061386f565b6040516020818303038152906040528051906020012003611478575f5b60055f8681526020019081526020015f205f01805490508110156113965761138960055f8781526020019081526020015f205f01828154811061137a57611379613615565b5b905f5260205f2001548561159e565b8080600101915050611334565b505f60055f8681526020019081526020015f206003015f9054906101000a900473ffffffffffffffffffffffffffffffffffffffff1690504260055f8781526020019081526020015f20600401819055508360055f8781526020019081526020015f206003015f6101000a81548173ffffffffffffffffffffffffffffffffffffffff021916908373ffffffffffffffffffffffffffffffffffffffff1602179055507f68e04257b55466ad5273799ac2b8d9d926b5e87d7f301e15ea0d73c8d7f3ee4c818560405161146a929190613cf2565b60405180910390a15061154c565b60405160200161148790613d63565b60405160208183030381529060405280519060200120826040516020016114ae919061386f565b6040516020818303038152906040528051906020012003611510576114d38482610405565b837f8f8994662430cbb3a0b089f812f1c51f46ef020e2ccc019cee8988c3312b4a66826040516115039190613247565b60405180910390a261154b565b6040517f08c379a000000000000000000000000000000000000000000000000000000000815260040161154290613dc1565b60405180910390fd5b5b5b837f603489d1e5e10e7b7393a68b1707e0b98e7976704197482dc200a6b34674b54a60055f8781526020019081526020015f206007016040516115909190613c74565b60405180910390a250505050565b60035f3373ffffffffffffffffffffffffffffffffffffffff1673ffffffffffffffffffffffffffffffffffffffff1681526020019081526020015f205f9054906101000a900460ff16611627576040517f08c379a000000000000000000000000000000000000000000000000000000000815260040161161e90613527565b60405180910390fd5b5f8211801561163857506001548211155b611677576040517f08c379a000000000000000000000000000000000000000000000000000000000815260040161166e90613e29565b60405180910390fd5b60045f8381526020019081526020015f206005015f9054906101000a900460ff16156116d8576040517f08c379a00000000000000000000000000000000000000000000000000000000081526004016116cf90613eb7565b60405180910390fd5b5f73ffffffffffffffffffffffffffffffffffffffff168173ffffffffffffffffffffffffffffffffffffffff1603611746576040517f08c379a000000000000000000000000000000000000000000000000000000000815260040161173d90613f1f565b60405180910390fd5b60035f8273ffffffffffffffffffffffffffffffffffffffff1673ffffffffffffffffffffffffffffffffffffffff1681526020019081526020015f205f9054906101000a900460ff166117cf576040517f08c379a00000000000000000000000000000000000000000000000000000000081526004016117c690613f87565b60405180910390fd5b3373ffffffffffffffffffffffffffffffffffffffff1660045f8481526020019081526020015f206003015f9054906101000a900473ffffffffffffffffffffffffffffffffffffffff1673ffffffffffffffffffffffffffffffffffffffff1614611870576040517f08c379a000000000000000000000000000000000000000000000000000000000815260040161186790613fef565b60405180910390fd5b5f60045f8481526020019081526020015f206003015f9054906101000a900473ffffffffffffffffffffffffffffffffffffffff1690508160045f8581526020019081526020015f206003015f6101000a81548173ffffffffffffffffffffffffffffffffffffffff021916908373ffffffffffffffffffffffffffffffffffffffff1602179055504260045f8581526020019081526020015f20600401819055508173ffffffffffffffffffffffffffffffffffffffff168173ffffffffffffffffffffffffffffffffffffffff16847f16b85f49bf01212961345d3016c9a531894accf62eb7680f2045d79185cc0ec060405160405180910390a4505050565b6003602052805f5260405f205f915054906101000a900460ff1681565b5f8054906101000a900473ffffffffffffffffffffffffffffffffffffffff1681565b60035f3373ffffffffffffffffffffffffffffffffffffffff1673ffffffffffffffffffffffffffffffffffffffff1681526020019081526020015f205f9054906101000a900460ff16611a3b576040517f08c379a0000000000000000000000000000000000000000000000000000000008152600401611a3290613527565b60405180910390fd5b5f825111611a7e576040517f08c379a0000000000000000000000000000000000000000000000000000000008152600401611a7590614057565b60405180910390fd5b5f815111611ac1576040517f08c379a0000000000000000000000000000000000000000000000000000000008152600401611ab8906140bf565b60405180910390fd5b60015f815480929190611ad390613940565b91905055505f60015490506040518060c001604052808281526020018481526020018381526020013373ffffffffffffffffffffffffffffffffffffffff1681526020014281526020015f151581525060045f8381526020019081526020015f205f820151815f01556020820151816001019081611b519190613b24565b506040820151816002019081611b679190613b24565b506060820151816003015f6101000a81548173ffffffffffffffffffffffffffffffffffffffff021916908373ffffffffffffffffffffffffffffffffffffffff1602179055506080820151816004015560a0820151816005015f6101000a81548160ff0219169083151502179055509050505f8054906101000a900473ffffffffffffffffffffffffffffffffffffffff1673ffffffffffffffffffffffffffffffffffffffff16817f0cab8542fad5393d8a674ae5bb9094c309e41fdf2bf941b1d4a44fb4a790ff1c85604051611c409190613247565b60405180910390a3505050565b60035f3373ffffffffffffffffffffffffffffffffffffffff1673ffffffffffffffffffffffffffffffffffffffff1681526020019081526020015f205f9054906101000a900460ff16611cd6576040517f08c379a0000000000000000000000000000000000000000000000000000000008152600401611ccd90613527565b60405180910390fd5b611cdf82611e15565b611d1e576040517f08c379a0000000000000000000000000000000000000000000000000000000008152600401611d1590614127565b60405180910390fd5b60045f8381526020019081526020015f206005015f9054906101000a900460ff1615611d7f576040517f08c379a0000000000000000000000000000000000000000000000000000000008152600401611d769061418f565b60405180910390fd5b600160045f8481526020019081526020015f206005015f6101000a81548160ff021916908315150217905550817fcf945375036ee1ff64a8885b9c36844ac503b07ad7b0b3b78d023eb0a4cc623c82604051611ddb9190613247565b60405180910390a25050565b5f8060055f8481526020019081526020015f206006015414611e0c5760019050611e10565b5f90505b919050565b5f80600190505b6001548111611e5c578260045f8381526020019081526020015f205f015403611e49576001915050611e61565b8080611e5490613940565b915050611e1c565b505f90505b919050565b6005602052805f5260405f205f91509050806003015f9054906101000a900473ffffffffffffffffffffffffffffffffffffffff1690806004015490806005015f9054906101000a900460ff1690806006015490806007018054611ec9906136d7565b80601f0160208091040260200160405190810160405280929190818152602001828054611ef5906136d7565b8015611f405780601f10611f1757610100808354040283529160200191611f40565b820191905f5260205f20905b815481529060010190602001808311611f2357829003601f168201915b5050505050905085565b5f60605f805f8060045f8881526020019081526020015f206040518060c00160405290815f8201548152602001600182018054611f86906136d7565b80601f0160208091040260200160405190810160405280929190818152602001828054611fb2906136d7565b8015611ffd5780601f10611fd457610100808354040283529160200191611ffd565b820191905f5260205f20905b815481529060010190602001808311611fe057829003601f168201915b50505050508152602001600282018054612016906136d7565b80601f0160208091040260200160405190810160405280929190818152602001828054612042906136d7565b801561208d5780601f106120645761010080835404028352916020019161208d565b820191905f5260205f20905b81548152906001019060200180831161207057829003601f168201915b50505050508152602001600382015f9054906101000a900473ffffffffffffffffffffffffffffffffffffffff1673ffffffffffffffffffffffffffffffffffffffff1673ffffffffffffffffffffffffffffffffffffffff16815260200160048201548152602001600582015f9054906101000a900460ff1615151515815250509050805f01518160200151826060015183608001518460a00151955095509550955095505091939590929450565b5f8054906101000a900473ffffffffffffffffffffffffffffffffffffffff1673ffffffffffffffffffffffffffffffffffffffff163373ffffffffffffffffffffffffffffffffffffffff16146121ca576040517f08c379a00000000000000000000000000000000000000000000000000000000081526004016121c1906141f7565b60405180910390fd5b5f73ffffffffffffffffffffffffffffffffffffffff168173ffffffffffffffffffffffffffffffffffffffff1603612238576040517f08c379a000000000000000000000000000000000000000000000000000000000815260040161222f9061425f565b60405180910390fd5b60035f8273ffffffffffffffffffffffffffffffffffffffff1673ffffffffffffffffffffffffffffffffffffffff1681526020019081526020015f205f9054906101000a900460ff16156122c2576040517f08c379a00000000000000000000000000000000000000000000000000000000081526004016122b9906142c7565b60405180910390fd5b600160035f8373ffffffffffffffffffffffffffffffffffffffff1673ffffffffffffffffffffffffffffffffffffffff1681526020019081526020015f205f6101000a81548160ff0219169083151502179055508073ffffffffffffffffffffffffffffffffffffffff167f3cbcbb9ba5a54d0762f39fd455fd2900fbcfcd0e0693e2c87db13043c400b55f60405160405180910390a250565b6060600182036123a4576040518060400160405280600e81526020017f7265736769737465724261746368000000000000000000000000000000000000815250905061242f565b600282036123e9576040518060400160405280600d81526020017f7472616e73666572426174636800000000000000000000000000000000000000815250905061242f565b6003820361242e576040518060400160405280600b81526020017f726563616c6c4261746368000000000000000000000000000000000000000000815250905061242f565b5b919050565b60015481565b60035f3373ffffffffffffffffffffffffffffffffffffffff1673ffffffffffffffffffffffffffffffffffffffff1681526020019081526020015f205f9054906101000a900460ff166124c3576040517f08c379a00000000000000000000000000000000000000000000000000000000081526004016124ba90613527565b60405180910390fd5b6040516020016124d29061382b565b60405160208183030381529060405280519060200120816040516020016124f9919061386f565b60405160208183030381529060405280519060200120036125a0575f845114612557576040517f08c379a000000000000000000000000000000000000000000000000000000000815260040161254e90614355565b60405180910390fd5b815183511461259b576040517f08c379a0000000000000000000000000000000000000000000000000000000008152600401612592906143e3565b60405180910390fd5b61266c565b5f8451116125e3576040517f08c379a00000000000000000000000000000000000000000000000000000000081526004016125da90614471565b60405180910390fd5b8251845114612627576040517f08c379a000000000000000000000000000000000000000000000000000000000815260040161261e906144ff565b60405180910390fd5b815184511461266b576040517f08c379a00000000000000000000000000000000000000000000000000000000081526004016126629061458d565b60405180910390fd5b5b5f5b83518110156126e1575f84828151811061268b5761268a613615565b5b602002602001015151116126d4576040517f08c379a00000000000000000000000000000000000000000000000000000000081526004016126cb906145f5565b60405180910390fd5b808060010191505061266e565b505f5b8251811015612757575f83828151811061270157612700613615565b5b6020026020010151511161274a576040517f08c379a00000000000000000000000000000000000000000000000000000000081526004016127419061465d565b60405180910390fd5b80806001019150506126e4565b5060025f81548092919061276a90613940565b91905055505f60025490506040518061010001604052808681526020018581526020018481526020013373ffffffffffffffffffffffffffffffffffffffff1681526020014281526020015f151581526020018281526020018381525060055f8381526020019081526020015f205f820151815f0190805190602001906127f29291906128fe565b50602082015181600101908051906020019061280f929190612949565b50604082015181600201908051906020019061282c929190612949565b506060820151816003015f6101000a81548173ffffffffffffffffffffffffffffffffffffffff021916908373ffffffffffffffffffffffffffffffffffffffff1602179055506080820151816004015560a0820151816005015f6101000a81548160ff02191690831515021790555060c0820151816006015560e08201518160070190816128bb9190613b24565b50905050807f97ff4eb42b5af6ff38cafbfad77979b7fbe233bb58b2cb81eb38859456a133fd836040516128ef9190613247565b60405180910390a25050505050565b828054828255905f5260205f20908101928215612938579160200282015b8281111561293757825182559160200191906001019061291c565b5b50905061294591906129a0565b5090565b828054828255905f5260205f2090810192821561298f579160200282015b8281111561298e57825182908161297e9190613b24565b5091602001919060010190612967565b5b50905061299c91906129bb565b5090565b5b808211156129b7575f815f9055506001016129a1565b5090565b5b808211156129da575f81816129d191906129de565b506001016129bc565b5090565b5080546129ea906136d7565b5f825580601f106129fb5750612a18565b601f0160209004905f5260205f2090810190612a1791906129a0565b5b50565b5f604051905090565b5f80fd5b5f80fd5b5f819050919050565b612a3e81612a2c565b8114612a48575f80fd5b50565b5f81359050612a5981612a35565b92915050565b5f80fd5b5f80fd5b5f601f19601f8301169050919050565b7f4e487b71000000000000000000000000000000000000000000000000000000005f52604160045260245ffd5b612aad82612a67565b810181811067ffffffffffffffff82111715612acc57612acb612a77565b5b80604052505050565b5f612ade612a1b565b9050612aea8282612aa4565b919050565b5f67ffffffffffffffff821115612b0957612b08612a77565b5b612b1282612a67565b9050602081019050919050565b828183375f83830152505050565b5f612b3f612b3a84612aef565b612ad5565b905082815260208101848484011115612b5b57612b5a612a63565b5b612b66848285612b1f565b509392505050565b5f82601f830112612b8257612b81612a5f565b5b8135612b92848260208601612b2d565b91505092915050565b5f8060408385031215612bb157612bb0612a24565b5b5f612bbe85828601612a4b565b925050602083013567ffffffffffffffff811115612bdf57612bde612a28565b5b612beb85828601612b6e565b9150509250929050565b612bfe81612a2c565b82525050565b5f602082019050612c175f830184612bf5565b92915050565b5f60208284031215612c3257612c31612a24565b5b5f612c3f84828501612a4b565b91505092915050565b5f8115159050919050565b612c5c81612c48565b82525050565b5f602082019050612c755f830184612c53565b92915050565b5f81519050919050565b5f82825260208201905092915050565b5f819050602082019050919050565b612cad81612a2c565b82525050565b5f612cbe8383612ca4565b60208301905092915050565b5f602082019050919050565b5f612ce082612c7b565b612cea8185612c85565b9350612cf583612c95565b805f5b83811015612d25578151612d0c8882612cb3565b9750612d1783612cca565b925050600181019050612cf8565b5085935050505092915050565b5f81519050919050565b5f82825260208201905092915050565b5f819050602082019050919050565b5f81519050919050565b5f82825260208201905092915050565b8281835e5f83830152505050565b5f612d8d82612d5b565b612d978185612d65565b9350612da7818560208601612d75565b612db081612a67565b840191505092915050565b5f612dc68383612d83565b905092915050565b5f602082019050919050565b5f612de482612d32565b612dee8185612d3c565b935083602082028501612e0085612d4c565b805f5b85811015612e3b5784840389528151612e1c8582612dbb565b9450612e2783612dce565b925060208a01995050600181019050612e03565b50829750879550505050505092915050565b5f73ffffffffffffffffffffffffffffffffffffffff82169050919050565b5f612e7682612e4d565b9050919050565b612e8681612e6c565b82525050565b5f82825260208201905092915050565b5f612ea682612d5b565b612eb08185612e8c565b9350612ec0818560208601612d75565b612ec981612a67565b840191505092915050565b5f610100820190508181035f830152612eed818b612cd6565b90508181036020830152612f01818a612dda565b90508181036040830152612f158189612dda565b9050612f246060830188612e7d565b612f316080830187612bf5565b612f3e60a0830186612c53565b612f4b60c0830185612bf5565b81810360e0830152612f5d8184612e9c565b90509998505050505050505050565b5f60c082019050612f7f5f830189612bf5565b8181036020830152612f918188612e9c565b90508181036040830152612fa58187612e9c565b9050612fb46060830186612e7d565b612fc16080830185612bf5565b612fce60a0830184612c53565b979650505050505050565b612fe281612e6c565b8114612fec575f80fd5b50565b5f81359050612ffd81612fd9565b92915050565b5f805f806080858703121561301b5761301a612a24565b5b5f61302887828801612a4b565b945050602061303987828801612fef565b935050604085013567ffffffffffffffff81111561305a57613059612a28565b5b61306687828801612b6e565b925050606085013567ffffffffffffffff81111561308757613086612a28565b5b61309387828801612b6e565b91505092959194509250565b5f80604083850312156130b5576130b4612a24565b5b5f6130c285828601612a4b565b92505060206130d385828601612fef565b9150509250929050565b5f602082840312156130f2576130f1612a24565b5b5f6130ff84828501612fef565b91505092915050565b5f60208201905061311b5f830184612e7d565b92915050565b5f806040838503121561313757613136612a24565b5b5f83013567ffffffffffffffff81111561315457613153612a28565b5b61316085828601612b6e565b925050602083013567ffffffffffffffff81111561318157613180612a28565b5b61318d85828601612b6e565b9150509250929050565b5f60a0820190506131aa5f830188612e7d565b6131b76020830187612bf5565b6131c46040830186612c53565b6131d16060830185612bf5565b81810360808301526131e38184612e9c565b90509695505050505050565b5f60a0820190506132025f830188612bf5565b81810360208301526132148187612e9c565b90506132236040830186612e7d565b6132306060830185612bf5565b61323d6080830184612c53565b9695505050505050565b5f6020820190508181035f83015261325f8184612e9c565b905092915050565b5f67ffffffffffffffff82111561328157613280612a77565b5b602082029050602081019050919050565b5f80fd5b5f6132a86132a384613267565b612ad5565b905080838252602082019050602084028301858111156132cb576132ca613292565b5b835b818110156132f457806132e08882612a4b565b8452602084019350506020810190506132cd565b5050509392505050565b5f82601f83011261331257613311612a5f565b5b8135613322848260208601613296565b91505092915050565b5f67ffffffffffffffff82111561334557613344612a77565b5b602082029050602081019050919050565b5f6133686133638461332b565b612ad5565b9050808382526020820190506020840283018581111561338b5761338a613292565b5b835b818110156133d257803567ffffffffffffffff8111156133b0576133af612a5f565b5b8086016133bd8982612b6e565b8552602085019450505060208101905061338d565b5050509392505050565b5f82601f8301126133f0576133ef612a5f565b5b8135613400848260208601613356565b91505092915050565b5f805f806080858703121561342157613420612a24565b5b5f85013567ffffffffffffffff81111561343e5761343d612a28565b5b61344a878288016132fe565b945050602085013567ffffffffffffffff81111561346b5761346a612a28565b5b613477878288016133dc565b935050604085013567ffffffffffffffff81111561349857613497612a28565b5b6134a4878288016133dc565b925050606085013567ffffffffffffffff8111156134c5576134c4612a28565b5b6134d187828801612b6e565b91505092959194509250565b7f4e6f7420617574686f72697a65640000000000000000000000000000000000005f82015250565b5f613511600e83612e8c565b915061351c826134dd565b602082019050919050565b5f6020820190508181035f83015261353e81613505565b9050919050565b7f426174636820646f65736e2774206578697374000000000000000000000000005f82015250565b5f613579601383612e8c565b915061358482613545565b602082019050919050565b5f6020820190508181035f8301526135a68161356d565b9050919050565b7f426174636820616c726561647920726563616c6c6564000000000000000000005f82015250565b5f6135e1601683612e8c565b91506135ec826135ad565b602082019050919050565b5f6020820190508181035f83015261360e816135d5565b9050919050565b7f4e487b71000000000000000000000000000000000000000000000000000000005f52603260045260245ffd5b7f497420646f65736e7420657869737473000000000000000000000000000000005f82015250565b5f613676601083612e8c565b915061368182613642565b602082019050919050565b5f6020820190508181035f8301526136a38161366a565b9050919050565b7f4e487b71000000000000000000000000000000000000000000000000000000005f52602260045260245ffd5b5f60028204905060018216806136ee57607f821691505b602082108103613701576137006136aa565b5b50919050565b7f426174636820697320726563616c6c65640000000000000000000000000000005f82015250565b5f61373b601183612e8c565b915061374682613707565b602082019050919050565b5f6020820190508181035f8301526137688161372f565b9050919050565b7f6e65774f776e65722063616e742062652061207a65726f2061646472657373005f82015250565b5f6137a3601f83612e8c565b91506137ae8261376f565b602082019050919050565b5f6020820190508181035f8301526137d081613797565b9050919050565b5f81905092915050565b7f72656769737465724261746368000000000000000000000000000000000000005f82015250565b5f613815600d836137d7565b9150613820826137e1565b600d82019050919050565b5f61383582613809565b9150819050919050565b5f61384982612d5b565b61385381856137d7565b9350613863818560208601612d75565b80840191505092915050565b5f61387a828461383f565b915081905092915050565b7f426174636820494473206d75737420626520656d70747920666f7220726567695f8201527f7374726174696f6e000000000000000000000000000000000000000000000000602082015250565b5f6138df602883612e8c565b91506138ea82613885565b604082019050919050565b5f6020820190508181035f83015261390c816138d3565b9050919050565b7f4e487b71000000000000000000000000000000000000000000000000000000005f52601160045260245ffd5b5f61394a82612a2c565b91507fffffffffffffffffffffffffffffffffffffffffffffffffffffffffffffffff820361397c5761397b613913565b5b600182019050919050565b5f819050815f5260205f209050919050565b5f6020601f8301049050919050565b5f82821b905092915050565b5f600883026139e37fffffffffffffffffffffffffffffffffffffffffffffffffffffffffffffffff826139a8565b6139ed86836139a8565b95508019841693508086168417925050509392505050565b5f819050919050565b5f613a28613a23613a1e84612a2c565b613a05565b612a2c565b9050919050565b5f819050919050565b613a4183613a0e565b613a55613a4d82613a2f565b8484546139b4565b825550505050565b5f90565b613a69613a5d565b613a74818484613a38565b505050565b5b81811015613a9757613a8c5f82613a61565b600181019050613a7a565b5050565b601f821115613adc57613aad81613987565b613ab684613999565b81016020851015613ac5578190505b613ad9613ad185613999565b830182613a79565b50505b505050565b5f82821c905092915050565b5f613afc5f1984600802613ae1565b1980831691505092915050565b5f613b148383613aed565b9150826002028217905092915050565b613b2d82612d5b565b67ffffffffffffffff811115613b4657613b45612a77565b5b613b5082546136d7565b613b5b828285613a9b565b5f60209050601f831160018114613b8c575f8415613b7a578287015190505b613b848582613b09565b865550613beb565b601f198416613b9a86613987565b5f5b82811015613bc157848901518255600182019150602085019450602081019050613b9c565b86831015613bde5784890151613bda601f891682613aed565b8355505b6001600288020188555050505b505050505050565b5f8154613bff816136d7565b613c098186612e8c565b9450600182165f8114613c235760018114613c3957613c6b565b60ff198316865281151560200286019350613c6b565b613c4285613987565b5f5b83811015613c6357815481890152600182019150602081019050613c44565b808801955050505b50505092915050565b5f6020820190508181035f830152613c8c8184613bf3565b905092915050565b7f7472616e736665724261746368000000000000000000000000000000000000005f82015250565b5f613cc8600d836137d7565b9150613cd382613c94565b600d82019050919050565b5f613ce882613cbc565b9150819050919050565b5f604082019050613d055f830185612e7d565b613d126020830184612e7d565b9392505050565b7f726563616c6c42617463680000000000000000000000000000000000000000005f82015250565b5f613d4d600b836137d7565b9150613d5882613d19565b600b82019050919050565b5f613d6d82613d41565b9150819050919050565b7f496e76616c6964206f7065726174696f6e0000000000000000000000000000005f82015250565b5f613dab601183612e8c565b9150613db682613d77565b602082019050919050565b5f6020820190508181035f830152613dd881613d9f565b9050919050565b7f496e76616c69642070726f6475637420494400000000000000000000000000005f82015250565b5f613e13601283612e8c565b9150613e1e82613ddf565b602082019050919050565b5f6020820190508181035f830152613e4081613e07565b9050919050565b7f526563616c6c65642070726f64756374732063616e6e6f74206265207472616e5f8201527f7366657272656400000000000000000000000000000000000000000000000000602082015250565b5f613ea1602783612e8c565b9150613eac82613e47565b604082019050919050565b5f6020820190508181035f830152613ece81613e95565b9050919050565b7f496e76616c6964206e6577206f776e65722061646472657373000000000000005f82015250565b5f613f09601983612e8c565b9150613f1482613ed5565b602082019050919050565b5f6020820190508181035f830152613f3681613efd565b9050919050565b7f4e6577206f776e6572206973206e6f7420617574686f72697a656400000000005f82015250565b5f613f71601b83612e8c565b9150613f7c82613f3d565b602082019050919050565b5f6020820190508181035f830152613f9e81613f65565b9050919050565b7f4f6e6c792063757272656e74206f776e65722063616e207472616e73666572005f82015250565b5f613fd9601f83612e8c565b9150613fe482613fa5565b602082019050919050565b5f6020820190508181035f83015261400681613fcd565b9050919050565b7f4e616d652063616e6e6f7420626520656d7074790000000000000000000000005f82015250565b5f614041601483612e8c565b915061404c8261400d565b602082019050919050565b5f6020820190508181035f83015261406e81614035565b9050919050565b7f4465736372697074696f6e2063616e6e6f7420626520656d70747900000000005f82015250565b5f6140a9601b83612e8c565b91506140b482614075565b602082019050919050565b5f6020820190508181035f8301526140d68161409d565b9050919050565b7f50726f6475637420646f65736e742065786973747300000000000000000000005f82015250565b5f614111601583612e8c565b915061411c826140dd565b602082019050919050565b5f6020820190508181035f83015261413e81614105565b9050919050565b7f416c726561647920726563616c6c6564000000000000000000000000000000005f82015250565b5f614179601083612e8c565b915061418482614145565b602082019050919050565b5f6020820190508181035f8301526141a68161416d565b9050919050565b7f4e6f7420746865206f776e6572000000000000000000000000000000000000005f82015250565b5f6141e1600d83612e8c565b91506141ec826141ad565b602082019050919050565b5f6020820190508181035f83015261420e816141d5565b9050919050565b7f496e76616c6964206164647265737300000000000000000000000000000000005f82015250565b5f614249600f83612e8c565b915061425482614215565b602082019050919050565b5f6020820190508181035f8301526142768161423d565b9050919050565b7f5061727469636970616e7420616c726561647920617574686f72697a656400005f82015250565b5f6142b1601e83612e8c565b91506142bc8261427d565b602082019050919050565b5f6020820190508181035f8301526142de816142a5565b9050919050565b7f466f7220726567697374657242617463682c204944206c697374206d757374205f8201527f626520656d707479000000000000000000000000000000000000000000000000602082015250565b5f61433f602883612e8c565b915061434a826142e5565b604082019050919050565b5f6020820190508181035f83015261436c81614333565b9050919050565b7f4e616d6520616e64206465736372697074696f6e206c69737473206d757374205f8201527f6d6174636820696e206c656e6774680000000000000000000000000000000000602082015250565b5f6143cd602f83612e8c565b91506143d882614373565b604082019050919050565b5f6020820190508181035f8301526143fa816143c1565b9050919050565b7f4944206c6973742063616e6e6f7420626520656d70747920666f72206e6f6e2d5f8201527f7265676973746572206f7065726174696f6e7300000000000000000000000000602082015250565b5f61445b603383612e8c565b915061446682614401565b604082019050919050565b5f6020820190508181035f8301526144888161444f565b9050919050565b7f494420616e64206e616d65206c69737473206d757374206d6174636820696e205f8201527f6c656e6774680000000000000000000000000000000000000000000000000000602082015250565b5f6144e9602683612e8c565b91506144f48261448f565b604082019050919050565b5f6020820190508181035f830152614516816144dd565b9050919050565b7f494420616e64206465736372697074696f6e206c69737473206d757374206d615f8201527f74636820696e206c656e67746800000000000000000000000000000000000000602082015250565b5f614577602d83612e8c565b91506145828261451d565b604082019050919050565b5f6020820190508181035f8301526145a48161456b565b9050919050565b7f4e616d65206c6973742063616e6e6f7420626520656d707479000000000000005f82015250565b5f6145df601983612e8c565b91506145ea826145ab565b602082019050919050565b5f6020820190508181035f83015261460c816145d3565b9050919050565b7f44657363206c6973742063616e6e6f7420626520656d707479000000000000005f82015250565b5f614647601983612e8c565b915061465282614613565b602082019050919050565b5f6020820190508181035f8301526146748161463b565b905091905056fea2646970667358221220dfa35dccde0a23c5782bfe3bec72b1330fda5dea611ce6ba898d93bdd884aaee64736f6c634300081a0033a2646970667358221220b0d695f7861322cab304b8f1a6ab9ad64008dac1da9fcf98f66d6009359f26b864736f6c634300081a0033",
			"opcodes": "PUSH1 0x80 PUSH1 0x40 MSTORE CALLVALUE DUP1 ISZERO PUSH1 0xE JUMPI PUSH0 DUP1 REVERT JUMPDEST POP PUSH2 0xA59C DUP1 PUSH2 0x1C PUSH0 CODECOPY PUSH0 RETURN INVALID PUSH1 0x80 PUSH1 0x40 MSTORE CALLVALUE DUP1 ISZERO PUSH2 0xF JUMPI PUSH0 DUP1 REVERT JUMPDEST POP PUSH1 0x4 CALLDATASIZE LT PUSH2 0x135 JUMPI PUSH0 CALLDATALOAD PUSH1 0xE0 SHR DUP1 PUSH4 0x86526E43 GT PUSH2 0xB6 JUMPI DUP1 PUSH4 0xCE01ABF0 GT PUSH2 0x7A JUMPI DUP1 PUSH4 0xCE01ABF0 EQ PUSH2 0x1CF JUMPI DUP1 PUSH4 0xCF291207 EQ PUSH2 0x1D9 JUMPI DUP1 PUSH4 0xEC07A0A3 EQ PUSH2 0x1E3 JUMPI DUP1 PUSH4 0xED3502AE EQ PUSH2 0x1ED JUMPI DUP1 PUSH4 0xF95D102D EQ PUSH2 0x1F7 JUMPI DUP1 PUSH4 0xFE7C593F EQ PUSH2 0x201 JUMPI PUSH2 0x135 JUMP JUMPDEST DUP1 PUSH4 0x86526E43 EQ PUSH2 0x19D JUMPI DUP1 PUSH4 0x88DE657B EQ PUSH2 0x1A7 JUMPI DUP1 PUSH4 0x9DEA947B EQ PUSH2 0x1B1 JUMPI DUP1 PUSH4 0xC9190DD1 EQ PUSH2 0x1BB JUMPI DUP1 PUSH4 0xCBB329E9 EQ PUSH2 0x1C5 JUMPI PUSH2 0x135 JUMP JUMPDEST DUP1 PUSH4 0x575FC5D5 GT PUSH2 0xFD JUMPI DUP1 PUSH4 0x575FC5D5 EQ PUSH2 0x16B JUMPI DUP1 PUSH4 0x63718EF7 EQ PUSH2 0x175 JUMPI DUP1 PUSH4 0x749480D2 EQ PUSH2 0x17F JUMPI DUP1 PUSH4 0x7FEA0D4B EQ PUSH2 0x189 JUMPI DUP1 PUSH4 0x840EFCE8 EQ PUSH2 0x193 JUMPI PUSH2 0x135 JUMP JUMPDEST DUP1 PUSH4 0xC5085AE EQ PUSH2 0x139 JUMPI DUP1 PUSH4 0x39AA1208 EQ PUSH2 0x143 JUMPI DUP1 PUSH4 0x49FFFACB EQ PUSH2 0x14D JUMPI DUP1 PUSH4 0x4A52D5B7 EQ PUSH2 0x157 JUMPI DUP1 PUSH4 0x4E62263B EQ PUSH2 0x161 JUMPI JUMPDEST PUSH0 DUP1 REVERT JUMPDEST PUSH2 0x141 PUSH2 0x20B JUMP JUMPDEST STOP JUMPDEST PUSH2 0x14B PUSH2 0x389 JUMP JUMPDEST STOP JUMPDEST PUSH2 0x155 PUSH2 0x528 JUMP JUMPDEST STOP JUMPDEST PUSH2 0x15F PUSH2 0x6A4 JUMP JUMPDEST STOP JUMPDEST PUSH2 0x169 PUSH2 0xA31 JUMP JUMPDEST STOP JUMPDEST PUSH2 0x173 PUSH2 0xBD0 JUMP JUMPDEST STOP JUMPDEST PUSH2 0x17D PUSH2 0xDB9 JUMP JUMPDEST STOP JUMPDEST PUSH2 0x187 PUSH2 0x112F JUMP JUMPDEST STOP JUMPDEST PUSH2 0x191 PUSH2 0x152E JUMP JUMPDEST STOP JUMPDEST PUSH2 0x19B PUSH2 0x1A5D JUMP JUMPDEST STOP JUMPDEST PUSH2 0x1A5 PUSH2 0x1BEE JUMP JUMPDEST STOP JUMPDEST PUSH2 0x1AF PUSH2 0x1D6C JUMP JUMPDEST STOP JUMPDEST PUSH2 0x1B9 PUSH2 0x20E2 JUMP JUMPDEST STOP JUMPDEST PUSH2 0x1C3 PUSH2 0x2296 JUMP JUMPDEST STOP JUMPDEST PUSH2 0x1CD PUSH2 0x240F JUMP JUMPDEST STOP JUMPDEST PUSH2 0x1D7 PUSH2 0x29AF JUMP JUMPDEST STOP JUMPDEST PUSH2 0x1E1 PUSH2 0x2D4C JUMP JUMPDEST STOP JUMPDEST PUSH2 0x1EB PUSH2 0x2EC5 JUMP JUMPDEST STOP JUMPDEST PUSH2 0x1F5 PUSH2 0x3041 JUMP JUMPDEST STOP JUMPDEST PUSH2 0x1FF PUSH2 0x31E0 JUMP JUMPDEST STOP JUMPDEST PUSH2 0x209 PUSH2 0x3383 JUMP JUMPDEST STOP JUMPDEST PUSH0 DUP1 SLOAD SWAP1 PUSH2 0x100 EXP SWAP1 DIV PUSH20 0xFFFFFFFFFFFFFFFFFFFFFFFFFFFFFFFFFFFFFFFF AND PUSH20 0xFFFFFFFFFFFFFFFFFFFFFFFFFFFFFFFFFFFFFFFF AND PUSH4 0x86734E5B PUSH1 0x1 PUSH0 PUSH1 0x40 MLOAD DUP4 PUSH4 0xFFFFFFFF AND PUSH1 0xE0 SHL DUP2 MSTORE PUSH1 0x4 ADD PUSH2 0x266 SWAP3 SWAP2 SWAP1 PUSH2 0x379B JUMP JUMPDEST PUSH0 PUSH1 0x40 MLOAD DUP1 DUP4 SUB DUP2 PUSH0 DUP8 DUP1 EXTCODESIZE ISZERO DUP1 ISZERO PUSH2 0x27D JUMPI PUSH0 DUP1 REVERT JUMPDEST POP GAS CALL SWAP3 POP POP POP DUP1 ISZERO PUSH2 0x28E JUMPI POP PUSH1 0x1 JUMPDEST PUSH2 0x30F JUMPI PUSH20 0x0 PUSH4 0x39DF137F PUSH1 0x1 PUSH1 0x40 MLOAD DUP3 PUSH4 0xFFFFFFFF AND PUSH1 0xE0 SHL DUP2 MSTORE PUSH1 0x4 ADD PUSH2 0x2CA SWAP2 SWAP1 PUSH2 0x3882 JUMP JUMPDEST PUSH1 0x20 PUSH1 0x40 MLOAD DUP1 DUP4 SUB DUP2 DUP7 GAS DELEGATECALL ISZERO DUP1 ISZERO PUSH2 0x2E5 JUMPI RETURNDATASIZE PUSH0 DUP1 RETURNDATACOPY RETURNDATASIZE PUSH0 REVERT JUMPDEST POP POP POP POP PUSH1 0x40 MLOAD RETURNDATASIZE PUSH1 0x1F NOT PUSH1 0x1F DUP3 ADD AND DUP3 ADD DUP1 PUSH1 0x40 MSTORE POP DUP2 ADD SWAP1 PUSH2 0x309 SWAP2 SWAP1 PUSH2 0x38E9 JUMP JUMPDEST POP PUSH2 0x387 JUMP JUMPDEST PUSH20 0x0 PUSH4 0x39DF137F PUSH0 PUSH1 0x40 MLOAD DUP3 PUSH4 0xFFFFFFFF AND PUSH1 0xE0 SHL DUP2 MSTORE PUSH1 0x4 ADD PUSH2 0x346 SWAP2 SWAP1 PUSH2 0x3984 JUMP JUMPDEST PUSH1 0x20 PUSH1 0x40 MLOAD DUP1 DUP4 SUB DUP2 DUP7 GAS DELEGATECALL ISZERO DUP1 ISZERO PUSH2 0x361 JUMPI RETURNDATASIZE PUSH0 DUP1 RETURNDATACOPY RETURNDATASIZE PUSH0 REVERT JUMPDEST POP POP POP POP PUSH1 0x40 MLOAD RETURNDATASIZE PUSH1 0x1F NOT PUSH1 0x1F DUP3 ADD AND DUP3 ADD DUP1 PUSH1 0x40 MSTORE POP DUP2 ADD SWAP1 PUSH2 0x385 SWAP2 SWAP1 PUSH2 0x38E9 JUMP JUMPDEST POP JUMPDEST JUMP JUMPDEST PUSH0 DUP1 SLOAD SWAP1 PUSH2 0x100 EXP SWAP1 DIV PUSH20 0xFFFFFFFFFFFFFFFFFFFFFFFFFFFFFFFFFFFFFFFF AND PUSH20 0xFFFFFFFFFFFFFFFFFFFFFFFFFFFFFFFFFFFFFFFF AND PUSH4 0x86734E5B PUSH1 0x1 PUSH1 0x3 PUSH0 SWAP1 SLOAD SWAP1 PUSH2 0x100 EXP SWAP1 DIV PUSH20 0xFFFFFFFFFFFFFFFFFFFFFFFFFFFFFFFFFFFFFFFF AND PUSH1 0x40 MLOAD DUP4 PUSH4 0xFFFFFFFF AND PUSH1 0xE0 SHL DUP2 MSTORE PUSH1 0x4 ADD PUSH2 0x405 SWAP3 SWAP2 SWAP1 PUSH2 0x39FA JUMP JUMPDEST PUSH0 PUSH1 0x40 MLOAD DUP1 DUP4 SUB DUP2 PUSH0 DUP8 DUP1 EXTCODESIZE ISZERO DUP1 ISZERO PUSH2 0x41C JUMPI PUSH0 DUP1 REVERT JUMPDEST POP GAS CALL SWAP3 POP POP POP DUP1 ISZERO PUSH2 0x42D JUMPI POP PUSH1 0x1 JUMPDEST PUSH2 0x4AE JUMPI PUSH20 0x0 PUSH4 0x39DF137F PUSH1 0x1 PUSH1 0x40 MLOAD DUP3 PUSH4 0xFFFFFFFF AND PUSH1 0xE0 SHL DUP2 MSTORE PUSH1 0x4 ADD PUSH2 0x469 SWAP2 SWAP1 PUSH2 0x3AB7 JUMP JUMPDEST PUSH1 0x20 PUSH1 0x40 MLOAD DUP1 DUP4 SUB DUP2 DUP7 GAS DELEGATECALL ISZERO DUP1 ISZERO PUSH2 0x484 JUMPI RETURNDATASIZE PUSH0 DUP1 RETURNDATACOPY RETURNDATASIZE PUSH0 REVERT JUMPDEST POP POP POP POP PUSH1 0x40 MLOAD RETURNDATASIZE PUSH1 0x1F NOT PUSH1 0x1F DUP3 ADD AND DUP3 ADD DUP1 PUSH1 0x40 MSTORE POP DUP2 ADD SWAP1 PUSH2 0x4A8 SWAP2 SWAP1 PUSH2 0x38E9 JUMP JUMPDEST POP PUSH2 0x526 JUMP JUMPDEST PUSH20 0x0 PUSH4 0x39DF137F PUSH0 PUSH1 0x40 MLOAD DUP3 PUSH4 0xFFFFFFFF AND PUSH1 0xE0 SHL DUP2 MSTORE PUSH1 0x4 ADD PUSH2 0x4E5 SWAP2 SWAP1 PUSH2 0x3B53 JUMP JUMPDEST PUSH1 0x20 PUSH1 0x40 MLOAD DUP1 DUP4 SUB DUP2 DUP7 GAS DELEGATECALL ISZERO DUP1 ISZERO PUSH2 0x500 JUMPI RETURNDATASIZE PUSH0 DUP1 RETURNDATACOPY RETURNDATASIZE PUSH0 REVERT JUMPDEST POP POP POP POP PUSH1 0x40 MLOAD RETURNDATASIZE PUSH1 0x1F NOT PUSH1 0x1F DUP3 ADD AND DUP3 ADD DUP1 PUSH1 0x40 MSTORE POP DUP2 ADD SWAP1 PUSH2 0x524 SWAP2 SWAP1 PUSH2 0x38E9 JUMP JUMPDEST POP JUMPDEST JUMP JUMPDEST PUSH0 DUP1 SLOAD SWAP1 PUSH2 0x100 EXP SWAP1 DIV PUSH20 0xFFFFFFFFFFFFFFFFFFFFFFFFFFFFFFFFFFFFFFFF AND PUSH20 0xFFFFFFFFFFFFFFFFFFFFFFFFFFFFFFFFFFFFFFFF AND PUSH4 0x9CE0F973 PUSH1 0x1 PUSH1 0x40 MLOAD DUP3 PUSH4 0xFFFFFFFF AND PUSH1 0xE0 SHL DUP2 MSTORE PUSH1 0x4 ADD PUSH2 0x581 SWAP2 SWAP1 PUSH2 0x3BEF JUMP JUMPDEST PUSH0 PUSH1 0x40 MLOAD DUP1 DUP4 SUB DUP2 PUSH0 DUP8 DUP1 EXTCODESIZE ISZERO DUP1 ISZERO PUSH2 0x598 JUMPI PUSH0 DUP1 REVERT JUMPDEST POP GAS CALL SWAP3 POP POP POP DUP1 ISZERO PUSH2 0x5A9 JUMPI POP PUSH1 0x1 JUMPDEST PUSH2 0x62A JUMPI PUSH20 0x0 PUSH4 0x39DF137F PUSH1 0x1 PUSH1 0x40 MLOAD DUP3 PUSH4 0xFFFFFFFF AND PUSH1 0xE0 SHL DUP2 MSTORE PUSH1 0x4 ADD PUSH2 0x5E5 SWAP2 SWAP1 PUSH2 0x3C8B JUMP JUMPDEST PUSH1 0x20 PUSH1 0x40 MLOAD DUP1 DUP4 SUB DUP2 DUP7 GAS DELEGATECALL ISZERO DUP1 ISZERO PUSH2 0x600 JUMPI RETURNDATASIZE PUSH0 DUP1 RETURNDATACOPY RETURNDATASIZE PUSH0 REVERT JUMPDEST POP POP POP POP PUSH1 0x40 MLOAD RETURNDATASIZE PUSH1 0x1F NOT PUSH1 0x1F DUP3 ADD AND DUP3 ADD DUP1 PUSH1 0x40 MSTORE POP DUP2 ADD SWAP1 PUSH2 0x624 SWAP2 SWAP1 PUSH2 0x38E9 JUMP JUMPDEST POP PUSH2 0x6A2 JUMP JUMPDEST PUSH20 0x0 PUSH4 0x39DF137F PUSH0 PUSH1 0x40 MLOAD DUP3 PUSH4 0xFFFFFFFF AND PUSH1 0xE0 SHL DUP2 MSTORE PUSH1 0x4 ADD PUSH2 0x661 SWAP2 SWAP1 PUSH2 0x3D27 JUMP JUMPDEST PUSH1 0x20 PUSH1 0x40 MLOAD DUP1 DUP4 SUB DUP2 DUP7 GAS DELEGATECALL ISZERO DUP1 ISZERO PUSH2 0x67C JUMPI RETURNDATASIZE PUSH0 DUP1 RETURNDATACOPY RETURNDATASIZE PUSH0 REVERT JUMPDEST POP POP POP POP PUSH1 0x40 MLOAD RETURNDATASIZE PUSH1 0x1F NOT PUSH1 0x1F DUP3 ADD AND DUP3 ADD DUP1 PUSH1 0x40 MSTORE POP DUP2 ADD SWAP1 PUSH2 0x6A0 SWAP2 SWAP1 PUSH2 0x38E9 JUMP JUMPDEST POP JUMPDEST JUMP JUMPDEST PUSH20 0x0 PUSH4 0x39DF137F PUSH0 DUP1 SLOAD SWAP1 PUSH2 0x100 EXP SWAP1 DIV PUSH20 0xFFFFFFFFFFFFFFFFFFFFFFFFFFFFFFFFFFFFFFFF AND PUSH20 0xFFFFFFFFFFFFFFFFFFFFFFFFFFFFFFFFFFFFFFFF AND PUSH4 0x8D28230B PUSH1 0x2 PUSH0 SWAP1 SLOAD SWAP1 PUSH2 0x100 EXP SWAP1 DIV PUSH20 0xFFFFFFFFFFFFFFFFFFFFFFFFFFFFFFFFFFFFFFFF AND PUSH1 0x40 MLOAD DUP3 PUSH4 0xFFFFFFFF AND PUSH1 0xE0 SHL DUP2 MSTORE PUSH1 0x4 ADD PUSH2 0x737 SWAP2 SWAP1 PUSH2 0x3D53 JUMP JUMPDEST PUSH1 0x20 PUSH1 0x40 MLOAD DUP1 DUP4 SUB DUP2 DUP7 GAS STATICCALL ISZERO DUP1 ISZERO PUSH2 0x752 JUMPI RETURNDATASIZE PUSH0 DUP1 RETURNDATACOPY RETURNDATASIZE PUSH0 REVERT JUMPDEST POP POP POP POP PUSH1 0x40 MLOAD RETURNDATASIZE PUSH1 0x1F NOT PUSH1 0x1F DUP3 ADD AND DUP3 ADD DUP1 PUSH1 0x40 MSTORE POP DUP2 ADD SWAP1 PUSH2 0x776 SWAP2 SWAP1 PUSH2 0x38E9 JUMP JUMPDEST PUSH1 0x40 MLOAD DUP3 PUSH4 0xFFFFFFFF AND PUSH1 0xE0 SHL DUP2 MSTORE PUSH1 0x4 ADD PUSH2 0x792 SWAP2 SWAP1 PUSH2 0x3DB6 JUMP JUMPDEST PUSH1 0x20 PUSH1 0x40 MLOAD DUP1 DUP4 SUB DUP2 DUP7 GAS DELEGATECALL ISZERO DUP1 ISZERO PUSH2 0x7AD JUMPI RETURNDATASIZE PUSH0 DUP1 RETURNDATACOPY RETURNDATASIZE PUSH0 REVERT JUMPDEST POP POP POP POP PUSH1 0x40 MLOAD RETURNDATASIZE PUSH1 0x1F NOT PUSH1 0x1F DUP3 ADD AND DUP3 ADD DUP1 PUSH1 0x40 MSTORE POP DUP2 ADD SWAP1 PUSH2 0x7D1 SWAP2 SWAP1 PUSH2 0x38E9 JUMP JUMPDEST POP PUSH20 0x0 PUSH4 0x39DF137F PUSH0 DUP1 SLOAD SWAP1 PUSH2 0x100 EXP SWAP1 DIV PUSH20 0xFFFFFFFFFFFFFFFFFFFFFFFFFFFFFFFFFFFFFFFF AND PUSH20 0xFFFFFFFFFFFFFFFFFFFFFFFFFFFFFFFFFFFFFFFF AND PUSH4 0x8D28230B PUSH1 0x3 PUSH0 SWAP1 SLOAD SWAP1 PUSH2 0x100 EXP SWAP1 DIV PUSH20 0xFFFFFFFFFFFFFFFFFFFFFFFFFFFFFFFFFFFFFFFF AND PUSH1 0x40 MLOAD DUP3 PUSH4 0xFFFFFFFF AND PUSH1 0xE0 SHL DUP2 MSTORE PUSH1 0x4 ADD PUSH2 0x865 SWAP2 SWAP1 PUSH2 0x3D53 JUMP JUMPDEST PUSH1 0x20 PUSH1 0x40 MLOAD DUP1 DUP4 SUB DUP2 DUP7 GAS STATICCALL ISZERO DUP1 ISZERO PUSH2 0x880 JUMPI RETURNDATASIZE PUSH0 DUP1 RETURNDATACOPY RETURNDATASIZE PUSH0 REVERT JUMPDEST POP POP POP POP PUSH1 0x40 MLOAD RETURNDATASIZE PUSH1 0x1F NOT PUSH1 0x1F DUP3 ADD AND DUP3 ADD DUP1 PUSH1 0x40 MSTORE POP DUP2 ADD SWAP1 PUSH2 0x8A4 SWAP2 SWAP1 PUSH2 0x38E9 JUMP JUMPDEST PUSH1 0x40 MLOAD DUP3 PUSH4 0xFFFFFFFF AND PUSH1 0xE0 SHL DUP2 MSTORE PUSH1 0x4 ADD PUSH2 0x8C0 SWAP2 SWAP1 PUSH2 0x3E2C JUMP JUMPDEST PUSH1 0x20 PUSH1 0x40 MLOAD DUP1 DUP4 SUB DUP2 DUP7 GAS DELEGATECALL ISZERO DUP1 ISZERO PUSH2 0x8DB JUMPI RETURNDATASIZE PUSH0 DUP1 RETURNDATACOPY RETURNDATASIZE PUSH0 REVERT JUMPDEST POP POP POP POP PUSH1 0x40 MLOAD RETURNDATASIZE PUSH1 0x1F NOT PUSH1 0x1F DUP3 ADD AND DUP3 ADD DUP1 PUSH1 0x40 MSTORE POP DUP2 ADD SWAP1 PUSH2 0x8FF SWAP2 SWAP1 PUSH2 0x38E9 JUMP JUMPDEST POP PUSH20 0x0 PUSH4 0x39DF137F PUSH0 DUP1 SLOAD SWAP1 PUSH2 0x100 EXP SWAP1 DIV PUSH20 0xFFFFFFFFFFFFFFFFFFFFFFFFFFFFFFFFFFFFFFFF AND PUSH20 0xFFFFFFFFFFFFFFFFFFFFFFFFFFFFFFFFFFFFFFFF AND PUSH4 0x8D28230B PUSH1 0x4 PUSH0 SWAP1 SLOAD SWAP1 PUSH2 0x100 EXP SWAP1 DIV PUSH20 0xFFFFFFFFFFFFFFFFFFFFFFFFFFFFFFFFFFFFFFFF AND PUSH1 0x40 MLOAD DUP3 PUSH4 0xFFFFFFFF AND PUSH1 0xE0 SHL DUP2 MSTORE PUSH1 0x4 ADD PUSH2 0x993 SWAP2 SWAP1 PUSH2 0x3D53 JUMP JUMPDEST PUSH1 0x20 PUSH1 0x40 MLOAD DUP1 DUP4 SUB DUP2 DUP7 GAS STATICCALL ISZERO DUP1 ISZERO PUSH2 0x9AE JUMPI RETURNDATASIZE PUSH0 DUP1 RETURNDATACOPY RETURNDATASIZE PUSH0 REVERT JUMPDEST POP POP POP POP PUSH1 0x40 MLOAD RETURNDATASIZE PUSH1 0x1F NOT PUSH1 0x1F DUP3 ADD AND DUP3 ADD DUP1 PUSH1 0x40 MSTORE POP DUP2 ADD SWAP1 PUSH2 0x9D2 SWAP2 SWAP1 PUSH2 0x38E9 JUMP JUMPDEST ISZERO PUSH1 0x40 MLOAD DUP3 PUSH4 0xFFFFFFFF AND PUSH1 0xE0 SHL DUP2 MSTORE PUSH1 0x4 ADD PUSH2 0x9EF SWAP2 SWAP1 PUSH2 0x3EC8 JUMP JUMPDEST PUSH1 0x20 PUSH1 0x40 MLOAD DUP1 DUP4 SUB DUP2 DUP7 GAS DELEGATECALL ISZERO DUP1 ISZERO PUSH2 0xA0A JUMPI RETURNDATASIZE PUSH0 DUP1 RETURNDATACOPY RETURNDATASIZE PUSH0 REVERT JUMPDEST POP POP POP POP PUSH1 0x40 MLOAD RETURNDATASIZE PUSH1 0x1F NOT PUSH1 0x1F DUP3 ADD AND DUP3 ADD DUP1 PUSH1 0x40 MSTORE POP DUP2 ADD SWAP1 PUSH2 0xA2E SWAP2 SWAP1 PUSH2 0x38E9 JUMP JUMPDEST POP JUMP JUMPDEST PUSH0 DUP1 SLOAD SWAP1 PUSH2 0x100 EXP SWAP1 DIV PUSH20 0xFFFFFFFFFFFFFFFFFFFFFFFFFFFFFFFFFFFFFFFF AND PUSH20 0xFFFFFFFFFFFFFFFFFFFFFFFFFFFFFFFFFFFFFFFF AND PUSH4 0x86B0E812 PUSH1 0x1 PUSH1 0x3 PUSH0 SWAP1 SLOAD SWAP1 PUSH2 0x100 EXP SWAP1 DIV PUSH20 0xFFFFFFFFFFFFFFFFFFFFFFFFFFFFFFFFFFFFFFFF AND PUSH1 0x40 MLOAD DUP4 PUSH4 0xFFFFFFFF AND PUSH1 0xE0 SHL DUP2 MSTORE PUSH1 0x4 ADD PUSH2 0xAAD SWAP3 SWAP2 SWAP1 PUSH2 0x3EF4 JUMP JUMPDEST PUSH0 PUSH1 0x40 MLOAD DUP1 DUP4 SUB DUP2 PUSH0 DUP8 DUP1 EXTCODESIZE ISZERO DUP1 ISZERO PUSH2 0xAC4 JUMPI PUSH0 DUP1 REVERT JUMPDEST POP GAS CALL SWAP3 POP POP POP DUP1 ISZERO PUSH2 0xAD5 JUMPI POP PUSH1 0x1 JUMPDEST PUSH2 0xB56 JUMPI PUSH20 0x0 PUSH4 0x39DF137F PUSH1 0x1 PUSH1 0x40 MLOAD DUP3 PUSH4 0xFFFFFFFF AND PUSH1 0xE0 SHL DUP2 MSTORE PUSH1 0x4 ADD PUSH2 0xB11 SWAP2 SWAP1 PUSH2 0x3F65 JUMP JUMPDEST PUSH1 0x20 PUSH1 0x40 MLOAD DUP1 DUP4 SUB DUP2 DUP7 GAS DELEGATECALL ISZERO DUP1 ISZERO PUSH2 0xB2C JUMPI RETURNDATASIZE PUSH0 DUP1 RETURNDATACOPY RETURNDATASIZE PUSH0 REVERT JUMPDEST POP POP POP POP PUSH1 0x40 MLOAD RETURNDATASIZE PUSH1 0x1F NOT PUSH1 0x1F DUP3 ADD AND DUP3 ADD DUP1 PUSH1 0x40 MSTORE POP DUP2 ADD SWAP1 PUSH2 0xB50 SWAP2 SWAP1 PUSH2 0x38E9 JUMP JUMPDEST POP PUSH2 0xBCE JUMP JUMPDEST PUSH20 0x0 PUSH4 0x39DF137F PUSH0 PUSH1 0x40 MLOAD DUP3 PUSH4 0xFFFFFFFF AND PUSH1 0xE0 SHL DUP2 MSTORE PUSH1 0x4 ADD PUSH2 0xB8D SWAP2 SWAP1 PUSH2 0x4001 JUMP JUMPDEST PUSH1 0x20 PUSH1 0x40 MLOAD DUP1 DUP4 SUB DUP2 DUP7 GAS DELEGATECALL ISZERO DUP1 ISZERO PUSH2 0xBA8 JUMPI RETURNDATASIZE PUSH0 DUP1 RETURNDATACOPY RETURNDATASIZE PUSH0 REVERT JUMPDEST POP POP POP POP PUSH1 0x40 MLOAD RETURNDATASIZE PUSH1 0x1F NOT PUSH1 0x1F DUP3 ADD AND DUP3 ADD DUP1 PUSH1 0x40 MSTORE POP DUP2 ADD SWAP1 PUSH2 0xBCC SWAP2 SWAP1 PUSH2 0x38E9 JUMP JUMPDEST POP JUMPDEST JUMP JUMPDEST PUSH0 DUP1 SLOAD SWAP1 PUSH2 0x100 EXP SWAP1 DIV PUSH20 0xFFFFFFFFFFFFFFFFFFFFFFFFFFFFFFFFFFFFFFFF AND PUSH20 0xFFFFFFFFFFFFFFFFFFFFFFFFFFFFFFFFFFFFFFFF AND PUSH4 0x86B0E812 PUSH1 0x1 PUSH1 0x3 PUSH0 SWAP1 SLOAD SWAP1 PUSH2 0x100 EXP SWAP1 DIV PUSH20 0xFFFFFFFFFFFFFFFFFFFFFFFFFFFFFFFFFFFFFFFF AND PUSH1 0x40 MLOAD DUP4 PUSH4 0xFFFFFFFF AND PUSH1 0xE0 SHL DUP2 MSTORE PUSH1 0x4 ADD PUSH2 0xC4C SWAP3 SWAP2 SWAP1 PUSH2 0x3EF4 JUMP JUMPDEST PUSH0 PUSH1 0x40 MLOAD DUP1 DUP4 SUB DUP2 PUSH0 DUP8 DUP1 EXTCODESIZE ISZERO DUP1 ISZERO PUSH2 0xC63 JUMPI PUSH0 DUP1 REVERT JUMPDEST POP GAS CALL ISZERO DUP1 ISZERO PUSH2 0xC75 JUMPI RETURNDATASIZE PUSH0 DUP1 RETURNDATACOPY RETURNDATASIZE PUSH0 REVERT JUMPDEST POP POP POP POP PUSH0 DUP1 PUSH0 SWAP1 SLOAD SWAP1 PUSH2 0x100 EXP SWAP1 DIV PUSH20 0xFFFFFFFFFFFFFFFFFFFFFFFFFFFFFFFFFFFFFFFF AND PUSH20 0xFFFFFFFFFFFFFFFFFFFFFFFFFFFFFFFFFFFFFFFF AND PUSH4 0xB9DB15B4 PUSH1 0x1 PUSH1 0x40 MLOAD DUP3 PUSH4 0xFFFFFFFF AND PUSH1 0xE0 SHL DUP2 MSTORE PUSH1 0x4 ADD PUSH2 0xCD4 SWAP2 SWAP1 PUSH2 0x402D JUMP JUMPDEST PUSH0 PUSH1 0x40 MLOAD DUP1 DUP4 SUB DUP2 DUP7 GAS STATICCALL ISZERO DUP1 ISZERO PUSH2 0xCEE JUMPI RETURNDATASIZE PUSH0 DUP1 RETURNDATACOPY RETURNDATASIZE PUSH0 REVERT JUMPDEST POP POP POP POP PUSH1 0x40 MLOAD RETURNDATASIZE PUSH0 DUP3 RETURNDATACOPY RETURNDATASIZE PUSH1 0x1F NOT PUSH1 0x1F DUP3 ADD AND DUP3 ADD DUP1 PUSH1 0x40 MSTORE POP DUP2 ADD SWAP1 PUSH2 0xD16 SWAP2 SWAP1 PUSH2 0x41D6 JUMP JUMPDEST POP POP SWAP3 POP POP POP PUSH20 0x0 PUSH4 0xBFBA5DD6 DUP3 PUSH1 0x3 PUSH0 SWAP1 SLOAD SWAP1 PUSH2 0x100 EXP SWAP1 DIV PUSH20 0xFFFFFFFFFFFFFFFFFFFFFFFFFFFFFFFFFFFFFFFF AND PUSH1 0x40 MLOAD DUP4 PUSH4 0xFFFFFFFF AND PUSH1 0xE0 SHL DUP2 MSTORE PUSH1 0x4 ADD PUSH2 0xD76 SWAP3 SWAP2 SWAP1 PUSH2 0x42C2 JUMP JUMPDEST PUSH1 0x20 PUSH1 0x40 MLOAD DUP1 DUP4 SUB DUP2 DUP7 GAS DELEGATECALL ISZERO DUP1 ISZERO PUSH2 0xD91 JUMPI RETURNDATASIZE PUSH0 DUP1 RETURNDATACOPY RETURNDATASIZE PUSH0 REVERT JUMPDEST POP POP POP POP PUSH1 0x40 MLOAD RETURNDATASIZE PUSH1 0x1F NOT PUSH1 0x1F DUP3 ADD AND DUP3 ADD DUP1 PUSH1 0x40 MSTORE POP DUP2 ADD SWAP1 PUSH2 0xDB5 SWAP2 SWAP1 PUSH2 0x38E9 JUMP JUMPDEST POP POP JUMP JUMPDEST PUSH0 PUSH1 0x2 PUSH8 0xFFFFFFFFFFFFFFFF DUP2 GT ISZERO PUSH2 0xDD5 JUMPI PUSH2 0xDD4 PUSH2 0x4088 JUMP JUMPDEST JUMPDEST PUSH1 0x40 MLOAD SWAP1 DUP1 DUP3 MSTORE DUP1 PUSH1 0x20 MUL PUSH1 0x20 ADD DUP3 ADD PUSH1 0x40 MSTORE DUP1 ISZERO PUSH2 0xE08 JUMPI DUP2 PUSH1 0x20 ADD JUMPDEST PUSH1 0x60 DUP2 MSTORE PUSH1 0x20 ADD SWAP1 PUSH1 0x1 SWAP1 SUB SWAP1 DUP2 PUSH2 0xDF3 JUMPI SWAP1 POP JUMPDEST POP SWAP1 POP PUSH1 0x40 MLOAD DUP1 PUSH1 0x40 ADD PUSH1 0x40 MSTORE DUP1 PUSH1 0x8 DUP2 MSTORE PUSH1 0x20 ADD PUSH32 0x69706E6F64657363000000000000000000000000000000000000000000000000 DUP2 MSTORE POP DUP2 PUSH0 DUP2 MLOAD DUP2 LT PUSH2 0xE54 JUMPI PUSH2 0xE53 PUSH2 0x42FC JUMP JUMPDEST JUMPDEST PUSH1 0x20 MUL PUSH1 0x20 ADD ADD DUP2 SWAP1 MSTORE POP PUSH1 0x40 MLOAD DUP1 PUSH1 0x40 ADD PUSH1 0x40 MSTORE DUP1 PUSH1 0x9 DUP2 MSTORE PUSH1 0x20 ADD PUSH32 0x69706E6F64657363320000000000000000000000000000000000000000000000 DUP2 MSTORE POP DUP2 PUSH1 0x1 DUP2 MLOAD DUP2 LT PUSH2 0xEA9 JUMPI PUSH2 0xEA8 PUSH2 0x42FC JUMP JUMPDEST JUMPDEST PUSH1 0x20 MUL PUSH1 0x20 ADD ADD DUP2 SWAP1 MSTORE POP PUSH0 PUSH1 0x2 PUSH8 0xFFFFFFFFFFFFFFFF DUP2 GT ISZERO PUSH2 0xED0 JUMPI PUSH2 0xECF PUSH2 0x4088 JUMP JUMPDEST JUMPDEST PUSH1 0x40 MLOAD SWAP1 DUP1 DUP3 MSTORE DUP1 PUSH1 0x20 MUL PUSH1 0x20 ADD DUP3 ADD PUSH1 0x40 MSTORE DUP1 ISZERO PUSH2 0xF03 JUMPI DUP2 PUSH1 0x20 ADD JUMPDEST PUSH1 0x60 DUP2 MSTORE PUSH1 0x20 ADD SWAP1 PUSH1 0x1 SWAP1 SUB SWAP1 DUP2 PUSH2 0xEEE JUMPI SWAP1 POP JUMPDEST POP SWAP1 POP PUSH1 0x40 MLOAD DUP1 PUSH1 0x20 ADD PUSH1 0x40 MSTORE DUP1 PUSH0 DUP2 MSTORE POP DUP2 PUSH0 DUP2 MLOAD DUP2 LT PUSH2 0xF28 JUMPI PUSH2 0xF27 PUSH2 0x42FC JUMP JUMPDEST JUMPDEST PUSH1 0x20 MUL PUSH1 0x20 ADD ADD DUP2 SWAP1 MSTORE POP PUSH1 0x40 MLOAD DUP1 PUSH1 0x20 ADD PUSH1 0x40 MSTORE DUP1 PUSH0 DUP2 MSTORE POP DUP2 PUSH1 0x1 DUP2 MLOAD DUP2 LT PUSH2 0xF56 JUMPI PUSH2 0xF55 PUSH2 0x42FC JUMP JUMPDEST JUMPDEST PUSH1 0x20 MUL PUSH1 0x20 ADD ADD DUP2 SWAP1 MSTORE POP PUSH0 DUP1 PUSH8 0xFFFFFFFFFFFFFFFF DUP2 GT ISZERO PUSH2 0xF7C JUMPI PUSH2 0xF7B PUSH2 0x4088 JUMP JUMPDEST JUMPDEST PUSH1 0x40 MLOAD SWAP1 DUP1 DUP3 MSTORE DUP1 PUSH1 0x20 MUL PUSH1 0x20 ADD DUP3 ADD PUSH1 0x40 MSTORE DUP1 ISZERO PUSH2 0xFAA JUMPI DUP2 PUSH1 0x20 ADD PUSH1 0x20 DUP3 MUL DUP1 CALLDATASIZE DUP4 CALLDATACOPY DUP1 DUP3 ADD SWAP2 POP POP SWAP1 POP JUMPDEST POP SWAP1 POP PUSH0 DUP1 SLOAD SWAP1 PUSH2 0x100 EXP SWAP1 DIV PUSH20 0xFFFFFFFFFFFFFFFFFFFFFFFFFFFFFFFFFFFFFFFF AND PUSH20 0xFFFFFFFFFFFFFFFFFFFFFFFFFFFFFFFFFFFFFFFF AND PUSH4 0xF5F34413 DUP3 DUP6 DUP6 PUSH1 0x40 MLOAD DUP5 PUSH4 0xFFFFFFFF AND PUSH1 0xE0 SHL DUP2 MSTORE PUSH1 0x4 ADD PUSH2 0x1009 SWAP4 SWAP3 SWAP2 SWAP1 PUSH2 0x4537 JUMP JUMPDEST PUSH0 PUSH1 0x40 MLOAD DUP1 DUP4 SUB DUP2 PUSH0 DUP8 DUP1 EXTCODESIZE ISZERO DUP1 ISZERO PUSH2 0x1020 JUMPI PUSH0 DUP1 REVERT JUMPDEST POP GAS CALL SWAP3 POP POP POP DUP1 ISZERO PUSH2 0x1031 JUMPI POP PUSH1 0x1 JUMPDEST PUSH2 0x10B2 JUMPI PUSH20 0x0 PUSH4 0x39DF137F PUSH1 0x1 PUSH1 0x40 MLOAD DUP3 PUSH4 0xFFFFFFFF AND PUSH1 0xE0 SHL DUP2 MSTORE PUSH1 0x4 ADD PUSH2 0x106D SWAP2 SWAP1 PUSH2 0x4604 JUMP JUMPDEST PUSH1 0x20 PUSH1 0x40 MLOAD DUP1 DUP4 SUB DUP2 DUP7 GAS DELEGATECALL ISZERO DUP1 ISZERO PUSH2 0x1088 JUMPI RETURNDATASIZE PUSH0 DUP1 RETURNDATACOPY RETURNDATASIZE PUSH0 REVERT JUMPDEST POP POP POP POP PUSH1 0x40 MLOAD RETURNDATASIZE PUSH1 0x1F NOT PUSH1 0x1F DUP3 ADD AND DUP3 ADD DUP1 PUSH1 0x40 MSTORE POP DUP2 ADD SWAP1 PUSH2 0x10AC SWAP2 SWAP1 PUSH2 0x38E9 JUMP JUMPDEST POP PUSH2 0x112A JUMP JUMPDEST PUSH20 0x0 PUSH4 0x39DF137F PUSH0 PUSH1 0x40 MLOAD DUP3 PUSH4 0xFFFFFFFF AND PUSH1 0xE0 SHL DUP2 MSTORE PUSH1 0x4 ADD PUSH2 0x10E9 SWAP2 SWAP1 PUSH2 0x467A JUMP JUMPDEST PUSH1 0x20 PUSH1 0x40 MLOAD DUP1 DUP4 SUB DUP2 DUP7 GAS DELEGATECALL ISZERO DUP1 ISZERO PUSH2 0x1104 JUMPI RETURNDATASIZE PUSH0 DUP1 RETURNDATACOPY RETURNDATASIZE PUSH0 REVERT JUMPDEST POP POP POP POP PUSH1 0x40 MLOAD RETURNDATASIZE PUSH1 0x1F NOT PUSH1 0x1F DUP3 ADD AND DUP3 ADD DUP1 PUSH1 0x40 MSTORE POP DUP2 ADD SWAP1 PUSH2 0x1128 SWAP2 SWAP1 PUSH2 0x38E9 JUMP JUMPDEST POP JUMPDEST POP POP POP JUMP JUMPDEST PUSH0 DUP1 SLOAD SWAP1 PUSH2 0x100 EXP SWAP1 DIV PUSH20 0xFFFFFFFFFFFFFFFFFFFFFFFFFFFFFFFFFFFFFFFF AND PUSH20 0xFFFFFFFFFFFFFFFFFFFFFFFFFFFFFFFFFFFFFFFF AND PUSH4 0x86734E5B PUSH1 0x1 PUSH1 0x2 PUSH0 SWAP1 SLOAD SWAP1 PUSH2 0x100 EXP SWAP1 DIV PUSH20 0xFFFFFFFFFFFFFFFFFFFFFFFFFFFFFFFFFFFFFFFF AND PUSH1 0x40 MLOAD DUP4 PUSH4 0xFFFFFFFF AND PUSH1 0xE0 SHL DUP2 MSTORE PUSH1 0x4 ADD PUSH2 0x11AB SWAP3 SWAP2 SWAP1 PUSH2 0x473A JUMP JUMPDEST PUSH0 PUSH1 0x40 MLOAD DUP1 DUP4 SUB DUP2 PUSH0 DUP8 DUP1 EXTCODESIZE ISZERO DUP1 ISZERO PUSH2 0x11C2 JUMPI PUSH0 DUP1 REVERT JUMPDEST POP GAS CALL ISZERO DUP1 ISZERO PUSH2 0x11D4 JUMPI RETURNDATASIZE PUSH0 DUP1 RETURNDATACOPY RETURNDATASIZE PUSH0 REVERT JUMPDEST POP POP POP POP PUSH0 DUP1 PUSH0 SWAP1 SLOAD SWAP1 PUSH2 0x100 EXP SWAP1 DIV PUSH20 0xFFFFFFFFFFFFFFFFFFFFFFFFFFFFFFFFFFFFFFFF AND PUSH20 0xFFFFFFFFFFFFFFFFFFFFFFFFFFFFFFFFFFFFFFFF AND PUSH4 0xB9DB15B4 PUSH1 0x2 PUSH1 0x40 MLOAD DUP3 PUSH4 0xFFFFFFFF AND PUSH1 0xE0 SHL DUP2 MSTORE PUSH1 0x4 ADD PUSH2 0x1233 SWAP2 SWAP1 PUSH2 0x47C0 JUMP JUMPDEST PUSH0 PUSH1 0x40 MLOAD DUP1 DUP4 SUB DUP2 DUP7 GAS STATICCALL ISZERO DUP1 ISZERO PUSH2 0x124D JUMPI RETURNDATASIZE PUSH0 DUP1 RETURNDATACOPY RETURNDATASIZE PUSH0 REVERT JUMPDEST POP POP POP POP PUSH1 0x40 MLOAD RETURNDATASIZE PUSH0 DUP3 RETURNDATACOPY RETURNDATASIZE PUSH1 0x1F NOT PUSH1 0x1F DUP3 ADD AND DUP3 ADD DUP1 PUSH1 0x40 MSTORE POP DUP2 ADD SWAP1 PUSH2 0x1275 SWAP2 SWAP1 PUSH2 0x41D6 JUMP JUMPDEST SWAP5 POP POP POP POP POP PUSH0 DUP1 PUSH0 SWAP1 SLOAD SWAP1 PUSH2 0x100 EXP SWAP1 DIV PUSH20 0xFFFFFFFFFFFFFFFFFFFFFFFFFFFFFFFFFFFFFFFF AND PUSH20 0xFFFFFFFFFFFFFFFFFFFFFFFFFFFFFFFFFFFFFFFF AND PUSH4 0xB9DB15B4 PUSH1 0x3 PUSH1 0x40 MLOAD DUP3 PUSH4 0xFFFFFFFF AND PUSH1 0xE0 SHL DUP2 MSTORE PUSH1 0x4 ADD PUSH2 0x12D6 SWAP2 SWAP1 PUSH2 0x4812 JUMP JUMPDEST PUSH0 PUSH1 0x40 MLOAD DUP1 DUP4 SUB DUP2 DUP7 GAS STATICCALL ISZERO DUP1 ISZERO PUSH2 0x12F0 JUMPI RETURNDATASIZE PUSH0 DUP1 RETURNDATACOPY RETURNDATASIZE PUSH0 REVERT JUMPDEST POP POP POP POP PUSH1 0x40 MLOAD RETURNDATASIZE PUSH0 DUP3 RETURNDATACOPY RETURNDATASIZE PUSH1 0x1F NOT PUSH1 0x1F DUP3 ADD AND DUP3 ADD DUP1 PUSH1 0x40 MSTORE POP DUP2 ADD SWAP1 PUSH2 0x1318 SWAP2 SWAP1 PUSH2 0x41D6 JUMP JUMPDEST SWAP5 POP POP POP POP POP PUSH20 0x0 PUSH4 0x39DF137F DUP4 PUSH1 0x40 MLOAD DUP3 PUSH4 0xFFFFFFFF AND PUSH1 0xE0 SHL DUP2 MSTORE PUSH1 0x4 ADD PUSH2 0x1355 SWAP2 SWAP1 PUSH2 0x4875 JUMP JUMPDEST PUSH1 0x20 PUSH1 0x40 MLOAD DUP1 DUP4 SUB DUP2 DUP7 GAS DELEGATECALL ISZERO DUP1 ISZERO PUSH2 0x1370 JUMPI RETURNDATASIZE PUSH0 DUP1 RETURNDATACOPY RETURNDATASIZE PUSH0 REVERT JUMPDEST POP POP POP POP PUSH1 0x40 MLOAD RETURNDATASIZE PUSH1 0x1F NOT PUSH1 0x1F DUP3 ADD AND DUP3 ADD DUP1 PUSH1 0x40 MSTORE POP DUP2 ADD SWAP1 PUSH2 0x1394 SWAP2 SWAP1 PUSH2 0x38E9 JUMP JUMPDEST POP PUSH20 0x0 PUSH4 0x39DF137F DUP3 PUSH1 0x40 MLOAD DUP3 PUSH4 0xFFFFFFFF AND PUSH1 0xE0 SHL DUP2 MSTORE PUSH1 0x4 ADD PUSH2 0x13CC SWAP2 SWAP1 PUSH2 0x48EB JUMP JUMPDEST PUSH1 0x20 PUSH1 0x40 MLOAD DUP1 DUP4 SUB DUP2 DUP7 GAS DELEGATECALL ISZERO DUP1 ISZERO PUSH2 0x13E7 JUMPI RETURNDATASIZE PUSH0 DUP1 RETURNDATACOPY RETURNDATASIZE PUSH0 REVERT JUMPDEST POP POP POP POP PUSH1 0x40 MLOAD RETURNDATASIZE PUSH1 0x1F NOT PUSH1 0x1F DUP3 ADD AND DUP3 ADD DUP1 PUSH1 0x40 MSTORE POP DUP2 ADD SWAP1 PUSH2 0x140B SWAP2 SWAP1 PUSH2 0x38E9 JUMP JUMPDEST POP PUSH0 DUP1 PUSH0 SWAP1 SLOAD SWAP1 PUSH2 0x100 EXP SWAP1 DIV PUSH20 0xFFFFFFFFFFFFFFFFFFFFFFFFFFFFFFFFFFFFFFFF AND PUSH20 0xFFFFFFFFFFFFFFFFFFFFFFFFFFFFFFFFFFFFFFFF AND PUSH4 0x5AC44282 PUSH1 0x1 PUSH1 0x40 MLOAD DUP3 PUSH4 0xFFFFFFFF AND PUSH1 0xE0 SHL DUP2 MSTORE PUSH1 0x4 ADD PUSH2 0x1467 SWAP2 SWAP1 PUSH2 0x402D JUMP JUMPDEST PUSH0 PUSH1 0x40 MLOAD DUP1 DUP4 SUB DUP2 DUP7 GAS STATICCALL ISZERO DUP1 ISZERO PUSH2 0x1481 JUMPI RETURNDATASIZE PUSH0 DUP1 RETURNDATACOPY RETURNDATASIZE PUSH0 REVERT JUMPDEST POP POP POP POP PUSH1 0x40 MLOAD RETURNDATASIZE PUSH0 DUP3 RETURNDATACOPY RETURNDATASIZE PUSH1 0x1F NOT PUSH1 0x1F DUP3 ADD AND DUP3 ADD DUP1 PUSH1 0x40 MSTORE POP DUP2 ADD SWAP1 PUSH2 0x14A9 SWAP2 SWAP1 PUSH2 0x4AB9 JUMP JUMPDEST POP POP SWAP6 POP POP POP POP POP POP PUSH20 0x0 PUSH4 0x39DF137F DUP3 PUSH1 0x40 MLOAD DUP3 PUSH4 0xFFFFFFFF AND PUSH1 0xE0 SHL DUP2 MSTORE PUSH1 0x4 ADD PUSH2 0x14E9 SWAP2 SWAP1 PUSH2 0x4C24 JUMP JUMPDEST PUSH1 0x20 PUSH1 0x40 MLOAD DUP1 DUP4 SUB DUP2 DUP7 GAS DELEGATECALL ISZERO DUP1 ISZERO PUSH2 0x1504 JUMPI RETURNDATASIZE PUSH0 DUP1 RETURNDATACOPY RETURNDATASIZE PUSH0 REVERT JUMPDEST POP POP POP POP PUSH1 0x40 MLOAD RETURNDATASIZE PUSH1 0x1F NOT PUSH1 0x1F DUP3 ADD AND DUP3 ADD DUP1 PUSH1 0x40 MSTORE POP DUP2 ADD SWAP1 PUSH2 0x1528 SWAP2 SWAP1 PUSH2 0x38E9 JUMP JUMPDEST POP POP POP POP JUMP JUMPDEST PUSH20 0x0 PUSH4 0xCE88B145 PUSH0 PUSH1 0x40 MLOAD DUP3 PUSH4 0xFFFFFFFF AND PUSH1 0xE0 SHL DUP2 MSTORE PUSH1 0x4 ADD PUSH2 0x1565 SWAP2 SWAP1 PUSH2 0x4C89 JUMP JUMPDEST PUSH1 0x20 PUSH1 0x40 MLOAD DUP1 DUP4 SUB DUP2 DUP7 GAS DELEGATECALL ISZERO DUP1 ISZERO PUSH2 0x1580 JUMPI RETURNDATASIZE PUSH0 DUP1 RETURNDATACOPY RETURNDATASIZE PUSH0 REVERT JUMPDEST POP POP POP POP PUSH1 0x40 MLOAD RETURNDATASIZE PUSH1 0x1F NOT PUSH1 0x1F DUP3 ADD AND DUP3 ADD DUP1 PUSH1 0x40 MSTORE POP DUP2 ADD SWAP1 PUSH2 0x15A4 SWAP2 SWAP1 PUSH2 0x4CA2 JUMP JUMPDEST PUSH1 0x1 PUSH0 PUSH2 0x100 EXP DUP2 SLOAD DUP2 PUSH20 0xFFFFFFFFFFFFFFFFFFFFFFFFFFFFFFFFFFFFFFFF MUL NOT AND SWAP1 DUP4 PUSH20 0xFFFFFFFFFFFFFFFFFFFFFFFFFFFFFFFFFFFFFFFF AND MUL OR SWAP1 SSTORE POP PUSH20 0x0 PUSH4 0xCE88B145 PUSH1 0x1 PUSH1 0x40 MLOAD DUP3 PUSH4 0xFFFFFFFF AND PUSH1 0xE0 SHL DUP2 MSTORE PUSH1 0x4 ADD PUSH2 0x161B SWAP2 SWAP1 PUSH2 0x4CDC JUMP JUMPDEST PUSH1 0x20 PUSH1 0x40 MLOAD DUP1 DUP4 SUB DUP2 DUP7 GAS DELEGATECALL ISZERO DUP1 ISZERO PUSH2 0x1636 JUMPI RETURNDATASIZE PUSH0 DUP1 RETURNDATACOPY RETURNDATASIZE PUSH0 REVERT JUMPDEST POP POP POP POP PUSH1 0x40 MLOAD RETURNDATASIZE PUSH1 0x1F NOT PUSH1 0x1F DUP3 ADD AND DUP3 ADD DUP1 PUSH1 0x40 MSTORE POP DUP2 ADD SWAP1 PUSH2 0x165A SWAP2 SWAP1 PUSH2 0x4CA2 JUMP JUMPDEST PUSH1 0x2 PUSH0 PUSH2 0x100 EXP DUP2 SLOAD DUP2 PUSH20 0xFFFFFFFFFFFFFFFFFFFFFFFFFFFFFFFFFFFFFFFF MUL NOT AND SWAP1 DUP4 PUSH20 0xFFFFFFFFFFFFFFFFFFFFFFFFFFFFFFFFFFFFFFFF AND MUL OR SWAP1 SSTORE POP PUSH20 0x0 PUSH4 0xCE88B145 PUSH1 0x2 PUSH1 0x40 MLOAD DUP3 PUSH4 0xFFFFFFFF AND PUSH1 0xE0 SHL DUP2 MSTORE PUSH1 0x4 ADD PUSH2 0x16D1 SWAP2 SWAP1 PUSH2 0x4D04 JUMP JUMPDEST PUSH1 0x20 PUSH1 0x40 MLOAD DUP1 DUP4 SUB DUP2 DUP7 GAS DELEGATECALL ISZERO DUP1 ISZERO PUSH2 0x16EC JUMPI RETURNDATASIZE PUSH0 DUP1 RETURNDATACOPY RETURNDATASIZE PUSH0 REVERT JUMPDEST POP POP POP POP PUSH1 0x40 MLOAD RETURNDATASIZE PUSH1 0x1F NOT PUSH1 0x1F DUP3 ADD AND DUP3 ADD DUP1 PUSH1 0x40 MSTORE POP DUP2 ADD SWAP1 PUSH2 0x1710 SWAP2 SWAP1 PUSH2 0x4CA2 JUMP JUMPDEST PUSH1 0x3 PUSH0 PUSH2 0x100 EXP DUP2 SLOAD DUP2 PUSH20 0xFFFFFFFFFFFFFFFFFFFFFFFFFFFFFFFFFFFFFFFF MUL NOT AND SWAP1 DUP4 PUSH20 0xFFFFFFFFFFFFFFFFFFFFFFFFFFFFFFFFFFFFFFFF AND MUL OR SWAP1 SSTORE POP PUSH20 0x0 PUSH4 0xCE88B145 PUSH1 0x3 PUSH1 0x40 MLOAD DUP3 PUSH4 0xFFFFFFFF AND PUSH1 0xE0 SHL DUP2 MSTORE PUSH1 0x4 ADD PUSH2 0x1787 SWAP2 SWAP1 PUSH2 0x4D2C JUMP JUMPDEST PUSH1 0x20 PUSH1 0x40 MLOAD DUP1 DUP4 SUB DUP2 DUP7 GAS DELEGATECALL ISZERO DUP1 ISZERO PUSH2 0x17A2 JUMPI RETURNDATASIZE PUSH0 DUP1 RETURNDATACOPY RETURNDATASIZE PUSH0 REVERT JUMPDEST POP POP POP POP PUSH1 0x40 MLOAD RETURNDATASIZE PUSH1 0x1F NOT PUSH1 0x1F DUP3 ADD AND DUP3 ADD DUP1 PUSH1 0x40 MSTORE POP DUP2 ADD SWAP1 PUSH2 0x17C6 SWAP2 SWAP1 PUSH2 0x4CA2 JUMP JUMPDEST PUSH1 0x4 PUSH0 PUSH2 0x100 EXP DUP2 SLOAD DUP2 PUSH20 0xFFFFFFFFFFFFFFFFFFFFFFFFFFFFFFFFFFFFFFFF MUL NOT AND SWAP1 DUP4 PUSH20 0xFFFFFFFFFFFFFFFFFFFFFFFFFFFFFFFFFFFFFFFF AND MUL OR SWAP1 SSTORE POP PUSH1 0x40 MLOAD PUSH2 0x1811 SWAP1 PUSH2 0x36AA JUMP JUMPDEST PUSH1 0x40 MLOAD DUP1 SWAP2 SUB SWAP1 PUSH0 CREATE DUP1 ISZERO DUP1 ISZERO PUSH2 0x182A JUMPI RETURNDATASIZE PUSH0 DUP1 RETURNDATACOPY RETURNDATASIZE PUSH0 REVERT JUMPDEST POP PUSH0 DUP1 PUSH2 0x100 EXP DUP2 SLOAD DUP2 PUSH20 0xFFFFFFFFFFFFFFFFFFFFFFFFFFFFFFFFFFFFFFFF MUL NOT AND SWAP1 DUP4 PUSH20 0xFFFFFFFFFFFFFFFFFFFFFFFFFFFFFFFFFFFFFFFF AND MUL OR SWAP1 SSTORE POP PUSH0 DUP1 SLOAD SWAP1 PUSH2 0x100 EXP SWAP1 DIV PUSH20 0xFFFFFFFFFFFFFFFFFFFFFFFFFFFFFFFFFFFFFFFF AND PUSH20 0xFFFFFFFFFFFFFFFFFFFFFFFFFFFFFFFFFFFFFFFF AND PUSH4 0xC5F8D584 PUSH1 0x1 PUSH0 SWAP1 SLOAD SWAP1 PUSH2 0x100 EXP SWAP1 DIV PUSH20 0xFFFFFFFFFFFFFFFFFFFFFFFFFFFFFFFFFFFFFFFF AND PUSH1 0x40 MLOAD DUP3 PUSH4 0xFFFFFFFF AND PUSH1 0xE0 SHL DUP2 MSTORE PUSH1 0x4 ADD PUSH2 0x18E2 SWAP2 SWAP1 PUSH2 0x3D53 JUMP JUMPDEST PUSH0 PUSH1 0x40 MLOAD DUP1 DUP4 SUB DUP2 PUSH0 DUP8 DUP1 EXTCODESIZE ISZERO DUP1 ISZERO PUSH2 0x18F9 JUMPI PUSH0 DUP1 REVERT JUMPDEST POP GAS CALL ISZERO DUP1 ISZERO PUSH2 0x190B JUMPI RETURNDATASIZE PUSH0 DUP1 RETURNDATACOPY RETURNDATASIZE PUSH0 REVERT JUMPDEST POP POP POP POP PUSH0 DUP1 SLOAD SWAP1 PUSH2 0x100 EXP SWAP1 DIV PUSH20 0xFFFFFFFFFFFFFFFFFFFFFFFFFFFFFFFFFFFFFFFF AND PUSH20 0xFFFFFFFFFFFFFFFFFFFFFFFFFFFFFFFFFFFFFFFF AND PUSH4 0xC5F8D584 PUSH1 0x2 PUSH0 SWAP1 SLOAD SWAP1 PUSH2 0x100 EXP SWAP1 DIV PUSH20 0xFFFFFFFFFFFFFFFFFFFFFFFFFFFFFFFFFFFFFFFF AND PUSH1 0x40 MLOAD DUP3 PUSH4 0xFFFFFFFF AND PUSH1 0xE0 SHL DUP2 MSTORE PUSH1 0x4 ADD PUSH2 0x1988 SWAP2 SWAP1 PUSH2 0x3D53 JUMP JUMPDEST PUSH0 PUSH1 0x40 MLOAD DUP1 DUP4 SUB DUP2 PUSH0 DUP8 DUP1 EXTCODESIZE ISZERO DUP1 ISZERO PUSH2 0x199F JUMPI PUSH0 DUP1 REVERT JUMPDEST POP GAS CALL ISZERO DUP1 ISZERO PUSH2 0x19B1 JUMPI RETURNDATASIZE PUSH0 DUP1 RETURNDATACOPY RETURNDATASIZE PUSH0 REVERT JUMPDEST POP POP POP POP PUSH0 DUP1 SLOAD SWAP1 PUSH2 0x100 EXP SWAP1 DIV PUSH20 0xFFFFFFFFFFFFFFFFFFFFFFFFFFFFFFFFFFFFFFFF AND PUSH20 0xFFFFFFFFFFFFFFFFFFFFFFFFFFFFFFFFFFFFFFFF AND PUSH4 0xC5F8D584 PUSH1 0x3 PUSH0 SWAP1 SLOAD SWAP1 PUSH2 0x100 EXP SWAP1 DIV PUSH20 0xFFFFFFFFFFFFFFFFFFFFFFFFFFFFFFFFFFFFFFFF AND PUSH1 0x40 MLOAD DUP3 PUSH4 0xFFFFFFFF AND PUSH1 0xE0 SHL DUP2 MSTORE PUSH1 0x4 ADD PUSH2 0x1A2E SWAP2 SWAP1 PUSH2 0x3D53 JUMP JUMPDEST PUSH0 PUSH1 0x40 MLOAD DUP1 DUP4 SUB DUP2 PUSH0 DUP8 DUP1 EXTCODESIZE ISZERO DUP1 ISZERO PUSH2 0x1A45 JUMPI PUSH0 DUP1 REVERT JUMPDEST POP GAS CALL ISZERO DUP1 ISZERO PUSH2 0x1A57 JUMPI RETURNDATASIZE PUSH0 DUP1 RETURNDATACOPY RETURNDATASIZE PUSH0 REVERT JUMPDEST POP POP POP POP JUMP JUMPDEST PUSH0 DUP1 PUSH0 SWAP1 SLOAD SWAP1 PUSH2 0x100 EXP SWAP1 DIV PUSH20 0xFFFFFFFFFFFFFFFFFFFFFFFFFFFFFFFFFFFFFFFF AND PUSH20 0xFFFFFFFFFFFFFFFFFFFFFFFFFFFFFFFFFFFFFFFF AND PUSH1 0x1 PUSH1 0x40 MLOAD PUSH1 0x24 ADD PUSH2 0x1AA7 SWAP2 SWAP1 PUSH2 0x4DCB JUMP JUMPDEST PUSH1 0x40 MLOAD PUSH1 0x20 DUP2 DUP4 SUB SUB DUP2 MSTORE SWAP1 PUSH1 0x40 MSTORE PUSH32 0x9CE0F97300000000000000000000000000000000000000000000000000000000 PUSH28 0xFFFFFFFFFFFFFFFFFFFFFFFFFFFFFFFFFFFFFFFFFFFFFFFFFFFFFFFF NOT AND PUSH1 0x20 DUP3 ADD DUP1 MLOAD PUSH28 0xFFFFFFFFFFFFFFFFFFFFFFFFFFFFFFFFFFFFFFFFFFFFFFFFFFFFFFFF DUP4 DUP2 DUP4 AND OR DUP4 MSTORE POP POP POP POP PUSH1 0x40 MLOAD PUSH2 0x1B31 SWAP2 SWAP1 PUSH2 0x4E3B JUMP JUMPDEST PUSH0 PUSH1 0x40 MLOAD DUP1 DUP4 SUB DUP2 PUSH0 DUP7 GAS CALL SWAP2 POP POP RETURNDATASIZE DUP1 PUSH0 DUP2 EQ PUSH2 0x1B6A JUMPI PUSH1 0x40 MLOAD SWAP2 POP PUSH1 0x1F NOT PUSH1 0x3F RETURNDATASIZE ADD AND DUP3 ADD PUSH1 0x40 MSTORE RETURNDATASIZE DUP3 MSTORE RETURNDATASIZE PUSH0 PUSH1 0x20 DUP5 ADD RETURNDATACOPY PUSH2 0x1B6F JUMP JUMPDEST PUSH1 0x60 SWAP2 POP JUMPDEST POP POP SWAP1 POP PUSH20 0x0 PUSH4 0x39DF137F DUP3 ISZERO PUSH1 0x40 MLOAD DUP3 PUSH4 0xFFFFFFFF AND PUSH1 0xE0 SHL DUP2 MSTORE PUSH1 0x4 ADD PUSH2 0x1BAB SWAP2 SWAP1 PUSH2 0x4E9B JUMP JUMPDEST PUSH1 0x20 PUSH1 0x40 MLOAD DUP1 DUP4 SUB DUP2 DUP7 GAS DELEGATECALL ISZERO DUP1 ISZERO PUSH2 0x1BC6 JUMPI RETURNDATASIZE PUSH0 DUP1 RETURNDATACOPY RETURNDATASIZE PUSH0 REVERT JUMPDEST POP POP POP POP PUSH1 0x40 MLOAD RETURNDATASIZE PUSH1 0x1F NOT PUSH1 0x1F DUP3 ADD AND DUP3 ADD DUP1 PUSH1 0x40 MSTORE POP DUP2 ADD SWAP1 PUSH2 0x1BEA SWAP2 SWAP1 PUSH2 0x38E9 JUMP JUMPDEST POP POP JUMP JUMPDEST PUSH0 DUP1 SLOAD SWAP1 PUSH2 0x100 EXP SWAP1 DIV PUSH20 0xFFFFFFFFFFFFFFFFFFFFFFFFFFFFFFFFFFFFFFFF AND PUSH20 0xFFFFFFFFFFFFFFFFFFFFFFFFFFFFFFFFFFFFFFFF AND PUSH4 0x86B0E812 PUSH1 0x1 PUSH0 PUSH1 0x40 MLOAD DUP4 PUSH4 0xFFFFFFFF AND PUSH1 0xE0 SHL DUP2 MSTORE PUSH1 0x4 ADD PUSH2 0x1C49 SWAP3 SWAP2 SWAP1 PUSH2 0x3EF4 JUMP JUMPDEST PUSH0 PUSH1 0x40 MLOAD DUP1 DUP4 SUB DUP2 PUSH0 DUP8 DUP1 EXTCODESIZE ISZERO DUP1 ISZERO PUSH2 0x1C60 JUMPI PUSH0 DUP1 REVERT JUMPDEST POP GAS CALL SWAP3 POP POP POP DUP1 ISZERO PUSH2 0x1C71 JUMPI POP PUSH1 0x1 JUMPDEST PUSH2 0x1CF2 JUMPI PUSH20 0x0 PUSH4 0x39DF137F PUSH1 0x1 PUSH1 0x40 MLOAD DUP3 PUSH4 0xFFFFFFFF AND PUSH1 0xE0 SHL DUP2 MSTORE PUSH1 0x4 ADD PUSH2 0x1CAD SWAP2 SWAP1 PUSH2 0x3882 JUMP JUMPDEST PUSH1 0x20 PUSH1 0x40 MLOAD DUP1 DUP4 SUB DUP2 DUP7 GAS DELEGATECALL ISZERO DUP1 ISZERO PUSH2 0x1CC8 JUMPI RETURNDATASIZE PUSH0 DUP1 RETURNDATACOPY RETURNDATASIZE PUSH0 REVERT JUMPDEST POP POP POP POP PUSH1 0x40 MLOAD RETURNDATASIZE PUSH1 0x1F NOT PUSH1 0x1F DUP3 ADD AND DUP3 ADD DUP1 PUSH1 0x40 MSTORE POP DUP2 ADD SWAP1 PUSH2 0x1CEC SWAP2 SWAP1 PUSH2 0x38E9 JUMP JUMPDEST POP PUSH2 0x1D6A JUMP JUMPDEST PUSH20 0x0 PUSH4 0x39DF137F PUSH0 PUSH1 0x40 MLOAD DUP3 PUSH4 0xFFFFFFFF AND PUSH1 0xE0 SHL DUP2 MSTORE PUSH1 0x4 ADD PUSH2 0x1D29 SWAP2 SWAP1 PUSH2 0x4F37 JUMP JUMPDEST PUSH1 0x20 PUSH1 0x40 MLOAD DUP1 DUP4 SUB DUP2 DUP7 GAS DELEGATECALL ISZERO DUP1 ISZERO PUSH2 0x1D44 JUMPI RETURNDATASIZE PUSH0 DUP1 RETURNDATACOPY RETURNDATASIZE PUSH0 REVERT JUMPDEST POP POP POP POP PUSH1 0x40 MLOAD RETURNDATASIZE PUSH1 0x1F NOT PUSH1 0x1F DUP3 ADD AND DUP3 ADD DUP1 PUSH1 0x40 MSTORE POP DUP2 ADD SWAP1 PUSH2 0x1D68 SWAP2 SWAP1 PUSH2 0x38E9 JUMP JUMPDEST POP JUMPDEST JUMP JUMPDEST PUSH0 PUSH1 0x2 PUSH8 0xFFFFFFFFFFFFFFFF DUP2 GT ISZERO PUSH2 0x1D88 JUMPI PUSH2 0x1D87 PUSH2 0x4088 JUMP JUMPDEST JUMPDEST PUSH1 0x40 MLOAD SWAP1 DUP1 DUP3 MSTORE DUP1 PUSH1 0x20 MUL PUSH1 0x20 ADD DUP3 ADD PUSH1 0x40 MSTORE DUP1 ISZERO PUSH2 0x1DBB JUMPI DUP2 PUSH1 0x20 ADD JUMPDEST PUSH1 0x60 DUP2 MSTORE PUSH1 0x20 ADD SWAP1 PUSH1 0x1 SWAP1 SUB SWAP1 DUP2 PUSH2 0x1DA6 JUMPI SWAP1 POP JUMPDEST POP SWAP1 POP PUSH1 0x40 MLOAD DUP1 PUSH1 0x20 ADD PUSH1 0x40 MSTORE DUP1 PUSH0 DUP2 MSTORE POP DUP2 PUSH0 DUP2 MLOAD DUP2 LT PUSH2 0x1DE0 JUMPI PUSH2 0x1DDF PUSH2 0x42FC JUMP JUMPDEST JUMPDEST PUSH1 0x20 MUL PUSH1 0x20 ADD ADD DUP2 SWAP1 MSTORE POP PUSH1 0x40 MLOAD DUP1 PUSH1 0x20 ADD PUSH1 0x40 MSTORE DUP1 PUSH0 DUP2 MSTORE POP DUP2 PUSH1 0x1 DUP2 MLOAD DUP2 LT PUSH2 0x1E0E JUMPI PUSH2 0x1E0D PUSH2 0x42FC JUMP JUMPDEST JUMPDEST PUSH1 0x20 MUL PUSH1 0x20 ADD ADD DUP2 SWAP1 MSTORE POP PUSH0 PUSH1 0x2 PUSH8 0xFFFFFFFFFFFFFFFF DUP2 GT ISZERO PUSH2 0x1E35 JUMPI PUSH2 0x1E34 PUSH2 0x4088 JUMP JUMPDEST JUMPDEST PUSH1 0x40 MLOAD SWAP1 DUP1 DUP3 MSTORE DUP1 PUSH1 0x20 MUL PUSH1 0x20 ADD DUP3 ADD PUSH1 0x40 MSTORE DUP1 ISZERO PUSH2 0x1E68 JUMPI DUP2 PUSH1 0x20 ADD JUMPDEST PUSH1 0x60 DUP2 MSTORE PUSH1 0x20 ADD SWAP1 PUSH1 0x1 SWAP1 SUB SWAP1 DUP2 PUSH2 0x1E53 JUMPI SWAP1 POP JUMPDEST POP SWAP1 POP PUSH1 0x40 MLOAD DUP1 PUSH1 0x40 ADD PUSH1 0x40 MSTORE DUP1 PUSH1 0x5 DUP2 MSTORE PUSH1 0x20 ADD PUSH32 0x3235364742000000000000000000000000000000000000000000000000000000 DUP2 MSTORE POP DUP2 PUSH0 DUP2 MLOAD DUP2 LT PUSH2 0x1EB4 JUMPI PUSH2 0x1EB3 PUSH2 0x42FC JUMP JUMPDEST JUMPDEST PUSH1 0x20 MUL PUSH1 0x20 ADD ADD DUP2 SWAP1 MSTORE POP PUSH1 0x40 MLOAD DUP1 PUSH1 0x40 ADD PUSH1 0x40 MSTORE DUP1 PUSH1 0x5 DUP2 MSTORE PUSH1 0x20 ADD PUSH32 0x3531324742000000000000000000000000000000000000000000000000000000 DUP2 MSTORE POP DUP2 PUSH1 0x1 DUP2 MLOAD DUP2 LT PUSH2 0x1F09 JUMPI PUSH2 0x1F08 PUSH2 0x42FC JUMP JUMPDEST JUMPDEST PUSH1 0x20 MUL PUSH1 0x20 ADD ADD DUP2 SWAP1 MSTORE POP PUSH0 DUP1 PUSH8 0xFFFFFFFFFFFFFFFF DUP2 GT ISZERO PUSH2 0x1F2F JUMPI PUSH2 0x1F2E PUSH2 0x4088 JUMP JUMPDEST JUMPDEST PUSH1 0x40 MLOAD SWAP1 DUP1 DUP3 MSTORE DUP1 PUSH1 0x20 MUL PUSH1 0x20 ADD DUP3 ADD PUSH1 0x40 MSTORE DUP1 ISZERO PUSH2 0x1F5D JUMPI DUP2 PUSH1 0x20 ADD PUSH1 0x20 DUP3 MUL DUP1 CALLDATASIZE DUP4 CALLDATACOPY DUP1 DUP3 ADD SWAP2 POP POP SWAP1 POP JUMPDEST POP SWAP1 POP PUSH0 DUP1 SLOAD SWAP1 PUSH2 0x100 EXP SWAP1 DIV PUSH20 0xFFFFFFFFFFFFFFFFFFFFFFFFFFFFFFFFFFFFFFFF AND PUSH20 0xFFFFFFFFFFFFFFFFFFFFFFFFFFFFFFFFFFFFFFFF AND PUSH4 0xF5F34413 DUP3 DUP6 DUP6 PUSH1 0x40 MLOAD DUP5 PUSH4 0xFFFFFFFF AND PUSH1 0xE0 SHL DUP2 MSTORE PUSH1 0x4 ADD PUSH2 0x1FBC SWAP4 SWAP3 SWAP2 SWAP1 PUSH2 0x4537 JUMP JUMPDEST PUSH0 PUSH1 0x40 MLOAD DUP1 DUP4 SUB DUP2 PUSH0 DUP8 DUP1 EXTCODESIZE ISZERO DUP1 ISZERO PUSH2 0x1FD3 JUMPI PUSH0 DUP1 REVERT JUMPDEST POP GAS CALL SWAP3 POP POP POP DUP1 ISZERO PUSH2 0x1FE4 JUMPI POP PUSH1 0x1 JUMPDEST PUSH2 0x2065 JUMPI PUSH20 0x0 PUSH4 0x39DF137F PUSH1 0x1 PUSH1 0x40 MLOAD DUP3 PUSH4 0xFFFFFFFF AND PUSH1 0xE0 SHL DUP2 MSTORE PUSH1 0x4 ADD PUSH2 0x2020 SWAP2 SWAP1 PUSH2 0x4FD3 JUMP JUMPDEST PUSH1 0x20 PUSH1 0x40 MLOAD DUP1 DUP4 SUB DUP2 DUP7 GAS DELEGATECALL ISZERO DUP1 ISZERO PUSH2 0x203B JUMPI RETURNDATASIZE PUSH0 DUP1 RETURNDATACOPY RETURNDATASIZE PUSH0 REVERT JUMPDEST POP POP POP POP PUSH1 0x40 MLOAD RETURNDATASIZE PUSH1 0x1F NOT PUSH1 0x1F DUP3 ADD AND DUP3 ADD DUP1 PUSH1 0x40 MSTORE POP DUP2 ADD SWAP1 PUSH2 0x205F SWAP2 SWAP1 PUSH2 0x38E9 JUMP JUMPDEST POP PUSH2 0x20DD JUMP JUMPDEST PUSH20 0x0 PUSH4 0x39DF137F PUSH0 PUSH1 0x40 MLOAD DUP3 PUSH4 0xFFFFFFFF AND PUSH1 0xE0 SHL DUP2 MSTORE PUSH1 0x4 ADD PUSH2 0x209C SWAP2 SWAP1 PUSH2 0x5049 JUMP JUMPDEST PUSH1 0x20 PUSH1 0x40 MLOAD DUP1 DUP4 SUB DUP2 DUP7 GAS DELEGATECALL ISZERO DUP1 ISZERO PUSH2 0x20B7 JUMPI RETURNDATASIZE PUSH0 DUP1 RETURNDATACOPY RETURNDATASIZE PUSH0 REVERT JUMPDEST POP POP POP POP PUSH1 0x40 MLOAD RETURNDATASIZE PUSH1 0x1F NOT PUSH1 0x1F DUP3 ADD AND DUP3 ADD DUP1 PUSH1 0x40 MSTORE POP DUP2 ADD SWAP1 PUSH2 0x20DB SWAP2 SWAP1 PUSH2 0x38E9 JUMP JUMPDEST POP JUMPDEST POP POP POP JUMP JUMPDEST PUSH0 DUP1 PUSH0 SWAP1 SLOAD SWAP1 PUSH2 0x100 EXP SWAP1 DIV PUSH20 0xFFFFFFFFFFFFFFFFFFFFFFFFFFFFFFFFFFFFFFFF AND PUSH20 0xFFFFFFFFFFFFFFFFFFFFFFFFFFFFFFFFFFFFFFFF AND PUSH1 0x63 PUSH1 0x3 PUSH0 SWAP1 SLOAD SWAP1 PUSH2 0x100 EXP SWAP1 DIV PUSH20 0xFFFFFFFFFFFFFFFFFFFFFFFFFFFFFFFFFFFFFFFF AND PUSH1 0x40 MLOAD PUSH1 0x24 ADD PUSH2 0x214F SWAP3 SWAP2 SWAP1 PUSH2 0x50AE JUMP JUMPDEST PUSH1 0x40 MLOAD PUSH1 0x20 DUP2 DUP4 SUB SUB DUP2 MSTORE SWAP1 PUSH1 0x40 MSTORE PUSH32 0x86B0E81200000000000000000000000000000000000000000000000000000000 PUSH28 0xFFFFFFFFFFFFFFFFFFFFFFFFFFFFFFFFFFFFFFFFFFFFFFFFFFFFFFFF NOT AND PUSH1 0x20 DUP3 ADD DUP1 MLOAD PUSH28 0xFFFFFFFFFFFFFFFFFFFFFFFFFFFFFFFFFFFFFFFFFFFFFFFFFFFFFFFF DUP4 DUP2 DUP4 AND OR DUP4 MSTORE POP POP POP POP PUSH1 0x40 MLOAD PUSH2 0x21D9 SWAP2 SWAP1 PUSH2 0x4E3B JUMP JUMPDEST PUSH0 PUSH1 0x40 MLOAD DUP1 DUP4 SUB DUP2 PUSH0 DUP7 GAS CALL SWAP2 POP POP RETURNDATASIZE DUP1 PUSH0 DUP2 EQ PUSH2 0x2212 JUMPI PUSH1 0x40 MLOAD SWAP2 POP PUSH1 0x1F NOT PUSH1 0x3F RETURNDATASIZE ADD AND DUP3 ADD PUSH1 0x40 MSTORE RETURNDATASIZE DUP3 MSTORE RETURNDATASIZE PUSH0 PUSH1 0x20 DUP5 ADD RETURNDATACOPY PUSH2 0x2217 JUMP JUMPDEST PUSH1 0x60 SWAP2 POP JUMPDEST POP POP SWAP1 POP PUSH20 0x0 PUSH4 0x39DF137F DUP3 ISZERO PUSH1 0x40 MLOAD DUP3 PUSH4 0xFFFFFFFF AND PUSH1 0xE0 SHL DUP2 MSTORE PUSH1 0x4 ADD PUSH2 0x2253 SWAP2 SWAP1 PUSH2 0x511F JUMP JUMPDEST PUSH1 0x20 PUSH1 0x40 MLOAD DUP1 DUP4 SUB DUP2 DUP7 GAS DELEGATECALL ISZERO DUP1 ISZERO PUSH2 0x226E JUMPI RETURNDATASIZE PUSH0 DUP1 RETURNDATACOPY RETURNDATASIZE PUSH0 REVERT JUMPDEST POP POP POP POP PUSH1 0x40 MLOAD RETURNDATASIZE PUSH1 0x1F NOT PUSH1 0x1F DUP3 ADD AND DUP3 ADD DUP1 PUSH1 0x40 MSTORE POP DUP2 ADD SWAP1 PUSH2 0x2292 SWAP2 SWAP1 PUSH2 0x38E9 JUMP JUMPDEST POP POP JUMP JUMPDEST PUSH0 DUP1 SLOAD SWAP1 PUSH2 0x100 EXP SWAP1 DIV PUSH20 0xFFFFFFFFFFFFFFFFFFFFFFFFFFFFFFFFFFFFFFFF AND PUSH20 0xFFFFFFFFFFFFFFFFFFFFFFFFFFFFFFFFFFFFFFFF AND PUSH4 0x8FBD0DCF PUSH1 0x40 MLOAD DUP2 PUSH4 0xFFFFFFFF AND PUSH1 0xE0 SHL DUP2 MSTORE PUSH1 0x4 ADD PUSH2 0x22EC SWAP1 PUSH2 0x51B8 JUMP JUMPDEST PUSH0 PUSH1 0x40 MLOAD DUP1 DUP4 SUB DUP2 PUSH0 DUP8 DUP1 EXTCODESIZE ISZERO DUP1 ISZERO PUSH2 0x2303 JUMPI PUSH0 DUP1 REVERT JUMPDEST POP GAS CALL SWAP3 POP POP POP DUP1 ISZERO PUSH2 0x2314 JUMPI POP PUSH1 0x1 JUMPDEST PUSH2 0x2395 JUMPI PUSH20 0x0 PUSH4 0x39DF137F PUSH1 0x1 PUSH1 0x40 MLOAD DUP3 PUSH4 0xFFFFFFFF AND PUSH1 0xE0 SHL DUP2 MSTORE PUSH1 0x4 ADD PUSH2 0x2350 SWAP2 SWAP1 PUSH2 0x5259 JUMP JUMPDEST PUSH1 0x20 PUSH1 0x40 MLOAD DUP1 DUP4 SUB DUP2 DUP7 GAS DELEGATECALL ISZERO DUP1 ISZERO PUSH2 0x236B JUMPI RETURNDATASIZE PUSH0 DUP1 RETURNDATACOPY RETURNDATASIZE PUSH0 REVERT JUMPDEST POP POP POP POP PUSH1 0x40 MLOAD RETURNDATASIZE PUSH1 0x1F NOT PUSH1 0x1F DUP3 ADD AND DUP3 ADD DUP1 PUSH1 0x40 MSTORE POP DUP2 ADD SWAP1 PUSH2 0x238F SWAP2 SWAP1 PUSH2 0x38E9 JUMP JUMPDEST POP PUSH2 0x240D JUMP JUMPDEST PUSH20 0x0 PUSH4 0x39DF137F PUSH0 PUSH1 0x40 MLOAD DUP3 PUSH4 0xFFFFFFFF AND PUSH1 0xE0 SHL DUP2 MSTORE PUSH1 0x4 ADD PUSH2 0x23CC SWAP2 SWAP1 PUSH2 0x52F5 JUMP JUMPDEST PUSH1 0x20 PUSH1 0x40 MLOAD DUP1 DUP4 SUB DUP2 DUP7 GAS DELEGATECALL ISZERO DUP1 ISZERO PUSH2 0x23E7 JUMPI RETURNDATASIZE PUSH0 DUP1 RETURNDATACOPY RETURNDATASIZE PUSH0 REVERT JUMPDEST POP POP POP POP PUSH1 0x40 MLOAD RETURNDATASIZE PUSH1 0x1F NOT PUSH1 0x1F DUP3 ADD AND DUP3 ADD DUP1 PUSH1 0x40 MSTORE POP DUP2 ADD SWAP1 PUSH2 0x240B SWAP2 SWAP1 PUSH2 0x38E9 JUMP JUMPDEST POP JUMPDEST JUMP JUMPDEST PUSH0 PUSH1 0x2 PUSH8 0xFFFFFFFFFFFFFFFF DUP2 GT ISZERO PUSH2 0x242B JUMPI PUSH2 0x242A PUSH2 0x4088 JUMP JUMPDEST JUMPDEST PUSH1 0x40 MLOAD SWAP1 DUP1 DUP3 MSTORE DUP1 PUSH1 0x20 MUL PUSH1 0x20 ADD DUP3 ADD PUSH1 0x40 MSTORE DUP1 ISZERO PUSH2 0x245E JUMPI DUP2 PUSH1 0x20 ADD JUMPDEST PUSH1 0x60 DUP2 MSTORE PUSH1 0x20 ADD SWAP1 PUSH1 0x1 SWAP1 SUB SWAP1 DUP2 PUSH2 0x2449 JUMPI SWAP1 POP JUMPDEST POP SWAP1 POP PUSH1 0x40 MLOAD DUP1 PUSH1 0x40 ADD PUSH1 0x40 MSTORE DUP1 PUSH1 0x7 DUP2 MSTORE PUSH1 0x20 ADD PUSH32 0x6970686F6E653800000000000000000000000000000000000000000000000000 DUP2 MSTORE POP DUP2 PUSH0 DUP2 MLOAD DUP2 LT PUSH2 0x24AA JUMPI PUSH2 0x24A9 PUSH2 0x42FC JUMP JUMPDEST JUMPDEST PUSH1 0x20 MUL PUSH1 0x20 ADD ADD DUP2 SWAP1 MSTORE POP PUSH1 0x40 MLOAD DUP1 PUSH1 0x40 ADD PUSH1 0x40 MSTORE DUP1 PUSH1 0x7 DUP2 MSTORE PUSH1 0x20 ADD PUSH32 0x6970686F6E653900000000000000000000000000000000000000000000000000 DUP2 MSTORE POP DUP2 PUSH1 0x1 DUP2 MLOAD DUP2 LT PUSH2 0x24FF JUMPI PUSH2 0x24FE PUSH2 0x42FC JUMP JUMPDEST JUMPDEST PUSH1 0x20 MUL PUSH1 0x20 ADD ADD DUP2 SWAP1 MSTORE POP PUSH0 PUSH1 0x2 PUSH8 0xFFFFFFFFFFFFFFFF DUP2 GT ISZERO PUSH2 0x2526 JUMPI PUSH2 0x2525 PUSH2 0x4088 JUMP JUMPDEST JUMPDEST PUSH1 0x40 MLOAD SWAP1 DUP1 DUP3 MSTORE DUP1 PUSH1 0x20 MUL PUSH1 0x20 ADD DUP3 ADD PUSH1 0x40 MSTORE DUP1 ISZERO PUSH2 0x2559 JUMPI DUP2 PUSH1 0x20 ADD JUMPDEST PUSH1 0x60 DUP2 MSTORE PUSH1 0x20 ADD SWAP1 PUSH1 0x1 SWAP1 SUB SWAP1 DUP2 PUSH2 0x2544 JUMPI SWAP1 POP JUMPDEST POP SWAP1 POP PUSH1 0x40 MLOAD DUP1 PUSH1 0x40 ADD PUSH1 0x40 MSTORE DUP1 PUSH1 0x5 DUP2 MSTORE PUSH1 0x20 ADD PUSH32 0x3235364742000000000000000000000000000000000000000000000000000000 DUP2 MSTORE POP DUP2 PUSH0 DUP2 MLOAD DUP2 LT PUSH2 0x25A5 JUMPI PUSH2 0x25A4 PUSH2 0x42FC JUMP JUMPDEST JUMPDEST PUSH1 0x20 MUL PUSH1 0x20 ADD ADD DUP2 SWAP1 MSTORE POP PUSH1 0x40 MLOAD DUP1 PUSH1 0x40 ADD PUSH1 0x40 MSTORE DUP1 PUSH1 0x5 DUP2 MSTORE PUSH1 0x20 ADD PUSH32 0x3531324742000000000000000000000000000000000000000000000000000000 DUP2 MSTORE POP DUP2 PUSH1 0x1 DUP2 MLOAD DUP2 LT PUSH2 0x25FA JUMPI PUSH2 0x25F9 PUSH2 0x42FC JUMP JUMPDEST JUMPDEST PUSH1 0x20 MUL PUSH1 0x20 ADD ADD DUP2 SWAP1 MSTORE POP PUSH0 DUP1 PUSH8 0xFFFFFFFFFFFFFFFF DUP2 GT ISZERO PUSH2 0x2620 JUMPI PUSH2 0x261F PUSH2 0x4088 JUMP JUMPDEST JUMPDEST PUSH1 0x40 MLOAD SWAP1 DUP1 DUP3 MSTORE DUP1 PUSH1 0x20 MUL PUSH1 0x20 ADD DUP3 ADD PUSH1 0x40 MSTORE DUP1 ISZERO PUSH2 0x264E JUMPI DUP2 PUSH1 0x20 ADD PUSH1 0x20 DUP3 MUL DUP1 CALLDATASIZE DUP4 CALLDATACOPY DUP1 DUP3 ADD SWAP2 POP POP SWAP1 POP JUMPDEST POP SWAP1 POP PUSH0 DUP1 SLOAD SWAP1 PUSH2 0x100 EXP SWAP1 DIV PUSH20 0xFFFFFFFFFFFFFFFFFFFFFFFFFFFFFFFFFFFFFFFF AND PUSH20 0xFFFFFFFFFFFFFFFFFFFFFFFFFFFFFFFFFFFFFFFF AND PUSH4 0xF5F34413 DUP3 DUP6 DUP6 PUSH1 0x40 MLOAD DUP5 PUSH4 0xFFFFFFFF AND PUSH1 0xE0 SHL DUP2 MSTORE PUSH1 0x4 ADD PUSH2 0x26AD SWAP4 SWAP3 SWAP2 SWAP1 PUSH2 0x4537 JUMP JUMPDEST PUSH0 PUSH1 0x40 MLOAD DUP1 DUP4 SUB DUP2 PUSH0 DUP8 DUP1 EXTCODESIZE ISZERO DUP1 ISZERO PUSH2 0x26C4 JUMPI PUSH0 DUP1 REVERT JUMPDEST POP GAS CALL ISZERO DUP1 ISZERO PUSH2 0x26D6 JUMPI RETURNDATASIZE PUSH0 DUP1 RETURNDATACOPY RETURNDATASIZE PUSH0 REVERT JUMPDEST POP POP POP POP PUSH0 DUP1 SLOAD SWAP1 PUSH2 0x100 EXP SWAP1 DIV PUSH20 0xFFFFFFFFFFFFFFFFFFFFFFFFFFFFFFFFFFFFFFFF AND PUSH20 0xFFFFFFFFFFFFFFFFFFFFFFFFFFFFFFFFFFFFFFFF AND PUSH4 0x86734E5B PUSH1 0x1 PUSH1 0x2 PUSH0 SWAP1 SLOAD SWAP1 PUSH2 0x100 EXP SWAP1 DIV PUSH20 0xFFFFFFFFFFFFFFFFFFFFFFFFFFFFFFFFFFFFFFFF AND PUSH1 0x40 MLOAD DUP4 PUSH4 0xFFFFFFFF AND PUSH1 0xE0 SHL DUP2 MSTORE PUSH1 0x4 ADD PUSH2 0x2756 SWAP3 SWAP2 SWAP1 PUSH2 0x5321 JUMP JUMPDEST PUSH0 PUSH1 0x40 MLOAD DUP1 DUP4 SUB DUP2 PUSH0 DUP8 DUP1 EXTCODESIZE ISZERO DUP1 ISZERO PUSH2 0x276D JUMPI PUSH0 DUP1 REVERT JUMPDEST POP GAS CALL ISZERO DUP1 ISZERO PUSH2 0x277F JUMPI RETURNDATASIZE PUSH0 DUP1 RETURNDATACOPY RETURNDATASIZE PUSH0 REVERT JUMPDEST POP POP POP POP PUSH0 DUP1 PUSH0 SWAP1 SLOAD SWAP1 PUSH2 0x100 EXP SWAP1 DIV PUSH20 0xFFFFFFFFFFFFFFFFFFFFFFFFFFFFFFFFFFFFFFFF AND PUSH20 0xFFFFFFFFFFFFFFFFFFFFFFFFFFFFFFFFFFFFFFFF AND PUSH4 0x5AC44282 PUSH1 0x1 PUSH1 0x40 MLOAD DUP3 PUSH4 0xFFFFFFFF AND PUSH1 0xE0 SHL DUP2 MSTORE PUSH1 0x4 ADD PUSH2 0x27DE SWAP2 SWAP1 PUSH2 0x402D JUMP JUMPDEST PUSH0 PUSH1 0x40 MLOAD DUP1 DUP4 SUB DUP2 DUP7 GAS STATICCALL ISZERO DUP1 ISZERO PUSH2 0x27F8 JUMPI RETURNDATASIZE PUSH0 DUP1 RETURNDATACOPY RETURNDATASIZE PUSH0 REVERT JUMPDEST POP POP POP POP PUSH1 0x40 MLOAD RETURNDATASIZE PUSH0 DUP3 RETURNDATACOPY RETURNDATASIZE PUSH1 0x1F NOT PUSH1 0x1F DUP3 ADD AND DUP3 ADD DUP1 PUSH1 0x40 MSTORE POP DUP2 ADD SWAP1 PUSH2 0x2820 SWAP2 SWAP1 PUSH2 0x4AB9 JUMP JUMPDEST POP POP POP POP POP POP POP SWAP1 POP PUSH20 0x0 PUSH4 0xABCD7960 DUP3 MLOAD PUSH1 0x2 PUSH1 0x40 MLOAD DUP4 PUSH4 0xFFFFFFFF AND PUSH1 0xE0 SHL DUP2 MSTORE PUSH1 0x4 ADD PUSH2 0x2864 SWAP3 SWAP2 SWAP1 PUSH2 0x53ED JUMP JUMPDEST PUSH1 0x20 PUSH1 0x40 MLOAD DUP1 DUP4 SUB DUP2 DUP7 GAS DELEGATECALL ISZERO DUP1 ISZERO PUSH2 0x287F JUMPI RETURNDATASIZE PUSH0 DUP1 RETURNDATACOPY RETURNDATASIZE PUSH0 REVERT JUMPDEST POP POP POP POP PUSH1 0x40 MLOAD RETURNDATASIZE PUSH1 0x1F NOT PUSH1 0x1F DUP3 ADD AND DUP3 ADD DUP1 PUSH1 0x40 MSTORE POP DUP2 ADD SWAP1 PUSH2 0x28A3 SWAP2 SWAP1 PUSH2 0x38E9 JUMP JUMPDEST POP PUSH20 0x0 PUSH4 0xABCD7960 PUSH0 DUP1 SLOAD SWAP1 PUSH2 0x100 EXP SWAP1 DIV PUSH20 0xFFFFFFFFFFFFFFFFFFFFFFFFFFFFFFFFFFFFFFFF AND PUSH20 0xFFFFFFFFFFFFFFFFFFFFFFFFFFFFFFFFFFFFFFFF AND PUSH4 0xE0F6EF87 PUSH1 0x40 MLOAD DUP2 PUSH4 0xFFFFFFFF AND PUSH1 0xE0 SHL DUP2 MSTORE PUSH1 0x4 ADD PUSH1 0x20 PUSH1 0x40 MLOAD DUP1 DUP4 SUB DUP2 DUP7 GAS STATICCALL ISZERO DUP1 ISZERO PUSH2 0x2926 JUMPI RETURNDATASIZE PUSH0 DUP1 RETURNDATACOPY RETURNDATASIZE PUSH0 REVERT JUMPDEST POP POP POP POP PUSH1 0x40 MLOAD RETURNDATASIZE PUSH1 0x1F NOT PUSH1 0x1F DUP3 ADD AND DUP3 ADD DUP1 PUSH1 0x40 MSTORE POP DUP2 ADD SWAP1 PUSH2 0x294A SWAP2 SWAP1 PUSH2 0x5427 JUMP JUMPDEST PUSH1 0x3 PUSH1 0x40 MLOAD DUP4 PUSH4 0xFFFFFFFF AND PUSH1 0xE0 SHL DUP2 MSTORE PUSH1 0x4 ADD PUSH2 0x2969 SWAP3 SWAP2 SWAP1 PUSH2 0x54C2 JUMP JUMPDEST PUSH1 0x20 PUSH1 0x40 MLOAD DUP1 DUP4 SUB DUP2 DUP7 GAS DELEGATECALL ISZERO DUP1 ISZERO PUSH2 0x2984 JUMPI RETURNDATASIZE PUSH0 DUP1 RETURNDATACOPY RETURNDATASIZE PUSH0 REVERT JUMPDEST POP POP POP POP PUSH1 0x40 MLOAD RETURNDATASIZE PUSH1 0x1F NOT PUSH1 0x1F DUP3 ADD AND DUP3 ADD DUP1 PUSH1 0x40 MSTORE POP DUP2 ADD SWAP1 PUSH2 0x29A8 SWAP2 SWAP1 PUSH2 0x38E9 JUMP JUMPDEST POP POP POP POP POP JUMP JUMPDEST PUSH0 DUP1 SLOAD SWAP1 PUSH2 0x100 EXP SWAP1 DIV PUSH20 0xFFFFFFFFFFFFFFFFFFFFFFFFFFFFFFFFFFFFFFFF AND PUSH20 0xFFFFFFFFFFFFFFFFFFFFFFFFFFFFFFFFFFFFFFFF AND PUSH4 0x8FBD0DCF PUSH1 0x40 MLOAD DUP2 PUSH4 0xFFFFFFFF AND PUSH1 0xE0 SHL DUP2 MSTORE PUSH1 0x4 ADD PUSH2 0x2A05 SWAP1 PUSH2 0x5590 JUMP JUMPDEST PUSH0 PUSH1 0x40 MLOAD DUP1 DUP4 SUB DUP2 PUSH0 DUP8 DUP1 EXTCODESIZE ISZERO DUP1 ISZERO PUSH2 0x2A1C JUMPI PUSH0 DUP1 REVERT JUMPDEST POP GAS CALL ISZERO DUP1 ISZERO PUSH2 0x2A2E JUMPI RETURNDATASIZE PUSH0 DUP1 RETURNDATACOPY RETURNDATASIZE PUSH0 REVERT JUMPDEST POP POP POP POP PUSH0 DUP1 PUSH0 DUP1 PUSH0 SWAP1 SLOAD SWAP1 PUSH2 0x100 EXP SWAP1 DIV PUSH20 0xFFFFFFFFFFFFFFFFFFFFFFFFFFFFFFFFFFFFFFFF AND PUSH20 0xFFFFFFFFFFFFFFFFFFFFFFFFFFFFFFFFFFFFFFFF AND PUSH4 0xB9DB15B4 PUSH1 0x1 PUSH1 0x40 MLOAD DUP3 PUSH4 0xFFFFFFFF AND PUSH1 0xE0 SHL DUP2 MSTORE PUSH1 0x4 ADD PUSH2 0x2A8F SWAP2 SWAP1 PUSH2 0x402D JUMP JUMPDEST PUSH0 PUSH1 0x40 MLOAD DUP1 DUP4 SUB DUP2 DUP7 GAS STATICCALL ISZERO DUP1 ISZERO PUSH2 0x2AA9 JUMPI RETURNDATASIZE PUSH0 DUP1 RETURNDATACOPY RETURNDATASIZE PUSH0 REVERT JUMPDEST POP POP POP POP PUSH1 0x40 MLOAD RETURNDATASIZE PUSH0 DUP3 RETURNDATACOPY RETURNDATASIZE PUSH1 0x1F NOT PUSH1 0x1F DUP3 ADD AND DUP3 ADD DUP1 PUSH1 0x40 MSTORE POP DUP2 ADD SWAP1 PUSH2 0x2AD1 SWAP2 SWAP1 PUSH2 0x41D6 JUMP JUMPDEST SWAP5 POP POP POP SWAP3 POP SWAP3 POP PUSH20 0x0 PUSH4 0xABCD7960 DUP5 PUSH1 0x1 PUSH1 0x40 MLOAD DUP4 PUSH4 0xFFFFFFFF AND PUSH1 0xE0 SHL DUP2 MSTORE PUSH1 0x4 ADD PUSH2 0x2B13 SWAP3 SWAP2 SWAP1 PUSH2 0x560B JUMP JUMPDEST PUSH1 0x20 PUSH1 0x40 MLOAD DUP1 DUP4 SUB DUP2 DUP7 GAS DELEGATECALL ISZERO DUP1 ISZERO PUSH2 0x2B2E JUMPI RETURNDATASIZE PUSH0 DUP1 RETURNDATACOPY RETURNDATASIZE PUSH0 REVERT JUMPDEST POP POP POP POP PUSH1 0x40 MLOAD RETURNDATASIZE PUSH1 0x1F NOT PUSH1 0x1F DUP3 ADD AND DUP3 ADD DUP1 PUSH1 0x40 MSTORE POP DUP2 ADD SWAP1 PUSH2 0x2B52 SWAP2 SWAP1 PUSH2 0x38E9 JUMP JUMPDEST POP PUSH20 0x0 PUSH4 0xE8C2CB16 DUP4 PUSH1 0x40 MLOAD DUP3 PUSH4 0xFFFFFFFF AND PUSH1 0xE0 SHL DUP2 MSTORE PUSH1 0x4 ADD PUSH2 0x2B8A SWAP2 SWAP1 PUSH2 0x56E9 JUMP JUMPDEST PUSH1 0x20 PUSH1 0x40 MLOAD DUP1 DUP4 SUB DUP2 DUP7 GAS DELEGATECALL ISZERO DUP1 ISZERO PUSH2 0x2BA5 JUMPI RETURNDATASIZE PUSH0 DUP1 RETURNDATACOPY RETURNDATASIZE PUSH0 REVERT JUMPDEST POP POP POP POP PUSH1 0x40 MLOAD RETURNDATASIZE PUSH1 0x1F NOT PUSH1 0x1F DUP3 ADD AND DUP3 ADD DUP1 PUSH1 0x40 MSTORE POP DUP2 ADD SWAP1 PUSH2 0x2BC9 SWAP2 SWAP1 PUSH2 0x38E9 JUMP JUMPDEST POP PUSH20 0x0 PUSH4 0x39DF137F DUP3 ISZERO PUSH1 0x40 MLOAD DUP3 PUSH4 0xFFFFFFFF AND PUSH1 0xE0 SHL DUP2 MSTORE PUSH1 0x4 ADD PUSH2 0x2C02 SWAP2 SWAP1 PUSH2 0x5779 JUMP JUMPDEST PUSH1 0x20 PUSH1 0x40 MLOAD DUP1 DUP4 SUB DUP2 DUP7 GAS DELEGATECALL ISZERO DUP1 ISZERO PUSH2 0x2C1D JUMPI RETURNDATASIZE PUSH0 DUP1 RETURNDATACOPY RETURNDATASIZE PUSH0 REVERT JUMPDEST POP POP POP POP PUSH1 0x40 MLOAD RETURNDATASIZE PUSH1 0x1F NOT PUSH1 0x1F DUP3 ADD AND DUP3 ADD DUP1 PUSH1 0x40 MSTORE POP DUP2 ADD SWAP1 PUSH2 0x2C41 SWAP2 SWAP1 PUSH2 0x38E9 JUMP JUMPDEST POP PUSH20 0x0 PUSH4 0xABCD7960 PUSH0 DUP1 SLOAD SWAP1 PUSH2 0x100 EXP SWAP1 DIV PUSH20 0xFFFFFFFFFFFFFFFFFFFFFFFFFFFFFFFFFFFFFFFF AND PUSH20 0xFFFFFFFFFFFFFFFFFFFFFFFFFFFFFFFFFFFFFFFF AND PUSH4 0xE0F6EF87 PUSH1 0x40 MLOAD DUP2 PUSH4 0xFFFFFFFF AND PUSH1 0xE0 SHL DUP2 MSTORE PUSH1 0x4 ADD PUSH1 0x20 PUSH1 0x40 MLOAD DUP1 DUP4 SUB DUP2 DUP7 GAS STATICCALL ISZERO DUP1 ISZERO PUSH2 0x2CC4 JUMPI RETURNDATASIZE PUSH0 DUP1 RETURNDATACOPY RETURNDATASIZE PUSH0 REVERT JUMPDEST POP POP POP POP PUSH1 0x40 MLOAD RETURNDATASIZE PUSH1 0x1F NOT PUSH1 0x1F DUP3 ADD AND DUP3 ADD DUP1 PUSH1 0x40 MSTORE POP DUP2 ADD SWAP1 PUSH2 0x2CE8 SWAP2 SWAP1 PUSH2 0x5427 JUMP JUMPDEST PUSH1 0x1 PUSH1 0x40 MLOAD DUP4 PUSH4 0xFFFFFFFF AND PUSH1 0xE0 SHL DUP2 MSTORE PUSH1 0x4 ADD PUSH2 0x2D07 SWAP3 SWAP2 SWAP1 PUSH2 0x5815 JUMP JUMPDEST PUSH1 0x20 PUSH1 0x40 MLOAD DUP1 DUP4 SUB DUP2 DUP7 GAS DELEGATECALL ISZERO DUP1 ISZERO PUSH2 0x2D22 JUMPI RETURNDATASIZE PUSH0 DUP1 RETURNDATACOPY RETURNDATASIZE PUSH0 REVERT JUMPDEST POP POP POP POP PUSH1 0x40 MLOAD RETURNDATASIZE PUSH1 0x1F NOT PUSH1 0x1F DUP3 ADD AND DUP3 ADD DUP1 PUSH1 0x40 MSTORE POP DUP2 ADD SWAP1 PUSH2 0x2D46 SWAP2 SWAP1 PUSH2 0x38E9 JUMP JUMPDEST POP POP POP POP JUMP JUMPDEST PUSH0 DUP1 SLOAD SWAP1 PUSH2 0x100 EXP SWAP1 DIV PUSH20 0xFFFFFFFFFFFFFFFFFFFFFFFFFFFFFFFFFFFFFFFF AND PUSH20 0xFFFFFFFFFFFFFFFFFFFFFFFFFFFFFFFFFFFFFFFF AND PUSH4 0x8FBD0DCF PUSH1 0x40 MLOAD DUP2 PUSH4 0xFFFFFFFF AND PUSH1 0xE0 SHL DUP2 MSTORE PUSH1 0x4 ADD PUSH2 0x2DA2 SWAP1 PUSH2 0x5899 JUMP JUMPDEST PUSH0 PUSH1 0x40 MLOAD DUP1 DUP4 SUB DUP2 PUSH0 DUP8 DUP1 EXTCODESIZE ISZERO DUP1 ISZERO PUSH2 0x2DB9 JUMPI PUSH0 DUP1 REVERT JUMPDEST POP GAS CALL SWAP3 POP POP POP DUP1 ISZERO PUSH2 0x2DCA JUMPI POP PUSH1 0x1 JUMPDEST PUSH2 0x2E4B JUMPI PUSH20 0x0 PUSH4 0x39DF137F PUSH1 0x1 PUSH1 0x40 MLOAD DUP3 PUSH4 0xFFFFFFFF AND PUSH1 0xE0 SHL DUP2 MSTORE PUSH1 0x4 ADD PUSH2 0x2E06 SWAP2 SWAP1 PUSH2 0x4FD3 JUMP JUMPDEST PUSH1 0x20 PUSH1 0x40 MLOAD DUP1 DUP4 SUB DUP2 DUP7 GAS DELEGATECALL ISZERO DUP1 ISZERO PUSH2 0x2E21 JUMPI RETURNDATASIZE PUSH0 DUP1 RETURNDATACOPY RETURNDATASIZE PUSH0 REVERT JUMPDEST POP POP POP POP PUSH1 0x40 MLOAD RETURNDATASIZE PUSH1 0x1F NOT PUSH1 0x1F DUP3 ADD AND DUP3 ADD DUP1 PUSH1 0x40 MSTORE POP DUP2 ADD SWAP1 PUSH2 0x2E45 SWAP2 SWAP1 PUSH2 0x38E9 JUMP JUMPDEST POP PUSH2 0x2EC3 JUMP JUMPDEST PUSH20 0x0 PUSH4 0x39DF137F PUSH0 PUSH1 0x40 MLOAD DUP3 PUSH4 0xFFFFFFFF AND PUSH1 0xE0 SHL DUP2 MSTORE PUSH1 0x4 ADD PUSH2 0x2E82 SWAP2 SWAP1 PUSH2 0x5049 JUMP JUMPDEST PUSH1 0x20 PUSH1 0x40 MLOAD DUP1 DUP4 SUB DUP2 DUP7 GAS DELEGATECALL ISZERO DUP1 ISZERO PUSH2 0x2E9D JUMPI RETURNDATASIZE PUSH0 DUP1 RETURNDATACOPY RETURNDATASIZE PUSH0 REVERT JUMPDEST POP POP POP POP PUSH1 0x40 MLOAD RETURNDATASIZE PUSH1 0x1F NOT PUSH1 0x1F DUP3 ADD AND DUP3 ADD DUP1 PUSH1 0x40 MSTORE POP DUP2 ADD SWAP1 PUSH2 0x2EC1 SWAP2 SWAP1 PUSH2 0x38E9 JUMP JUMPDEST POP JUMPDEST JUMP JUMPDEST PUSH0 DUP1 SLOAD SWAP1 PUSH2 0x100 EXP SWAP1 DIV PUSH20 0xFFFFFFFFFFFFFFFFFFFFFFFFFFFFFFFFFFFFFFFF AND PUSH20 0xFFFFFFFFFFFFFFFFFFFFFFFFFFFFFFFFFFFFFFFF AND PUSH4 0x9CE0F973 PUSH1 0x9 PUSH1 0x40 MLOAD DUP3 PUSH4 0xFFFFFFFF AND PUSH1 0xE0 SHL DUP2 MSTORE PUSH1 0x4 ADD PUSH2 0x2F1E SWAP2 SWAP1 PUSH2 0x5973 JUMP JUMPDEST PUSH0 PUSH1 0x40 MLOAD DUP1 DUP4 SUB DUP2 PUSH0 DUP8 DUP1 EXTCODESIZE ISZERO DUP1 ISZERO PUSH2 0x2F35 JUMPI PUSH0 DUP1 REVERT JUMPDEST POP GAS CALL SWAP3 POP POP POP DUP1 ISZERO PUSH2 0x2F46 JUMPI POP PUSH1 0x1 JUMPDEST PUSH2 0x2FC7 JUMPI PUSH20 0x0 PUSH4 0x39DF137F PUSH1 0x1 PUSH1 0x40 MLOAD DUP3 PUSH4 0xFFFFFFFF AND PUSH1 0xE0 SHL DUP2 MSTORE PUSH1 0x4 ADD PUSH2 0x2F82 SWAP2 SWAP1 PUSH2 0x5A0F JUMP JUMPDEST PUSH1 0x20 PUSH1 0x40 MLOAD DUP1 DUP4 SUB DUP2 DUP7 GAS DELEGATECALL ISZERO DUP1 ISZERO PUSH2 0x2F9D JUMPI RETURNDATASIZE PUSH0 DUP1 RETURNDATACOPY RETURNDATASIZE PUSH0 REVERT JUMPDEST POP POP POP POP PUSH1 0x40 MLOAD RETURNDATASIZE PUSH1 0x1F NOT PUSH1 0x1F DUP3 ADD AND DUP3 ADD DUP1 PUSH1 0x40 MSTORE POP DUP2 ADD SWAP1 PUSH2 0x2FC1 SWAP2 SWAP1 PUSH2 0x38E9 JUMP JUMPDEST POP PUSH2 0x303F JUMP JUMPDEST PUSH20 0x0 PUSH4 0x39DF137F PUSH0 PUSH1 0x40 MLOAD DUP3 PUSH4 0xFFFFFFFF AND PUSH1 0xE0 SHL DUP2 MSTORE PUSH1 0x4 ADD PUSH2 0x2FFE SWAP2 SWAP1 PUSH2 0x5AAB JUMP JUMPDEST PUSH1 0x20 PUSH1 0x40 MLOAD DUP1 DUP4 SUB DUP2 DUP7 GAS DELEGATECALL ISZERO DUP1 ISZERO PUSH2 0x3019 JUMPI RETURNDATASIZE PUSH0 DUP1 RETURNDATACOPY RETURNDATASIZE PUSH0 REVERT JUMPDEST POP POP POP POP PUSH1 0x40 MLOAD RETURNDATASIZE PUSH1 0x1F NOT PUSH1 0x1F DUP3 ADD AND DUP3 ADD DUP1 PUSH1 0x40 MSTORE POP DUP2 ADD SWAP1 PUSH2 0x303D SWAP2 SWAP1 PUSH2 0x38E9 JUMP JUMPDEST POP JUMPDEST JUMP JUMPDEST PUSH0 DUP1 SLOAD SWAP1 PUSH2 0x100 EXP SWAP1 DIV PUSH20 0xFFFFFFFFFFFFFFFFFFFFFFFFFFFFFFFFFFFFFFFF AND PUSH20 0xFFFFFFFFFFFFFFFFFFFFFFFFFFFFFFFFFFFFFFFF AND PUSH4 0x86734E5B PUSH1 0x1 PUSH1 0x2 PUSH0 SWAP1 SLOAD SWAP1 PUSH2 0x100 EXP SWAP1 DIV PUSH20 0xFFFFFFFFFFFFFFFFFFFFFFFFFFFFFFFFFFFFFFFF AND PUSH1 0x40 MLOAD DUP4 PUSH4 0xFFFFFFFF AND PUSH1 0xE0 SHL DUP2 MSTORE PUSH1 0x4 ADD PUSH2 0x30BD SWAP3 SWAP2 SWAP1 PUSH2 0x379B JUMP JUMPDEST PUSH0 PUSH1 0x40 MLOAD DUP1 DUP4 SUB DUP2 PUSH0 DUP8 DUP1 EXTCODESIZE ISZERO DUP1 ISZERO PUSH2 0x30D4 JUMPI PUSH0 DUP1 REVERT JUMPDEST POP GAS CALL SWAP3 POP POP POP DUP1 ISZERO PUSH2 0x30E5 JUMPI POP PUSH1 0x1 JUMPDEST PUSH2 0x3166 JUMPI PUSH20 0x0 PUSH4 0x39DF137F PUSH1 0x1 PUSH1 0x40 MLOAD DUP3 PUSH4 0xFFFFFFFF AND PUSH1 0xE0 SHL DUP2 MSTORE PUSH1 0x4 ADD PUSH2 0x3121 SWAP2 SWAP1 PUSH2 0x3F65 JUMP JUMPDEST PUSH1 0x20 PUSH1 0x40 MLOAD DUP1 DUP4 SUB DUP2 DUP7 GAS DELEGATECALL ISZERO DUP1 ISZERO PUSH2 0x313C JUMPI RETURNDATASIZE PUSH0 DUP1 RETURNDATACOPY RETURNDATASIZE PUSH0 REVERT JUMPDEST POP POP POP POP PUSH1 0x40 MLOAD RETURNDATASIZE PUSH1 0x1F NOT PUSH1 0x1F DUP3 ADD AND DUP3 ADD DUP1 PUSH1 0x40 MSTORE POP DUP2 ADD SWAP1 PUSH2 0x3160 SWAP2 SWAP1 PUSH2 0x38E9 JUMP JUMPDEST POP PUSH2 0x31DE JUMP JUMPDEST PUSH20 0x0 PUSH4 0x39DF137F PUSH0 PUSH1 0x40 MLOAD DUP3 PUSH4 0xFFFFFFFF AND PUSH1 0xE0 SHL DUP2 MSTORE PUSH1 0x4 ADD PUSH2 0x319D SWAP2 SWAP1 PUSH2 0x5B47 JUMP JUMPDEST PUSH1 0x20 PUSH1 0x40 MLOAD DUP1 DUP4 SUB DUP2 DUP7 GAS DELEGATECALL ISZERO DUP1 ISZERO PUSH2 0x31B8 JUMPI RETURNDATASIZE PUSH0 DUP1 RETURNDATACOPY RETURNDATASIZE PUSH0 REVERT JUMPDEST POP POP POP POP PUSH1 0x40 MLOAD RETURNDATASIZE PUSH1 0x1F NOT PUSH1 0x1F DUP3 ADD AND DUP3 ADD DUP1 PUSH1 0x40 MSTORE POP DUP2 ADD SWAP1 PUSH2 0x31DC SWAP2 SWAP1 PUSH2 0x38E9 JUMP JUMPDEST POP JUMPDEST JUMP JUMPDEST PUSH0 DUP1 SLOAD SWAP1 PUSH2 0x100 EXP SWAP1 DIV PUSH20 0xFFFFFFFFFFFFFFFFFFFFFFFFFFFFFFFFFFFFFFFF AND PUSH20 0xFFFFFFFFFFFFFFFFFFFFFFFFFFFFFFFFFFFFFFFF AND PUSH4 0x9CE0F973 PUSH1 0x1 PUSH1 0x40 MLOAD DUP3 PUSH4 0xFFFFFFFF AND PUSH1 0xE0 SHL DUP2 MSTORE PUSH1 0x4 ADD PUSH2 0x3239 SWAP2 SWAP1 PUSH2 0x5BBD JUMP JUMPDEST PUSH0 PUSH1 0x40 MLOAD DUP1 DUP4 SUB DUP2 PUSH0 DUP8 DUP1 EXTCODESIZE ISZERO DUP1 ISZERO PUSH2 0x3250 JUMPI PUSH0 DUP1 REVERT JUMPDEST POP GAS CALL ISZERO DUP1 ISZERO PUSH2 0x3262 JUMPI RETURNDATASIZE PUSH0 DUP1 RETURNDATACOPY RETURNDATASIZE PUSH0 REVERT JUMPDEST POP POP POP POP PUSH0 DUP1 PUSH0 SWAP1 SLOAD SWAP1 PUSH2 0x100 EXP SWAP1 DIV PUSH20 0xFFFFFFFFFFFFFFFFFFFFFFFFFFFFFFFFFFFFFFFF AND PUSH20 0xFFFFFFFFFFFFFFFFFFFFFFFFFFFFFFFFFFFFFFFF AND PUSH4 0xB9DB15B4 PUSH1 0x1 PUSH1 0x40 MLOAD DUP3 PUSH4 0xFFFFFFFF AND PUSH1 0xE0 SHL DUP2 MSTORE PUSH1 0x4 ADD PUSH2 0x32C1 SWAP2 SWAP1 PUSH2 0x402D JUMP JUMPDEST PUSH0 PUSH1 0x40 MLOAD DUP1 DUP4 SUB DUP2 DUP7 GAS STATICCALL ISZERO DUP1 ISZERO PUSH2 0x32DB JUMPI RETURNDATASIZE PUSH0 DUP1 RETURNDATACOPY RETURNDATASIZE PUSH0 REVERT JUMPDEST POP POP POP POP PUSH1 0x40 MLOAD RETURNDATASIZE PUSH0 DUP3 RETURNDATACOPY RETURNDATASIZE PUSH1 0x1F NOT PUSH1 0x1F DUP3 ADD AND DUP3 ADD DUP1 PUSH1 0x40 MSTORE POP DUP2 ADD SWAP1 PUSH2 0x3303 SWAP2 SWAP1 PUSH2 0x41D6 JUMP JUMPDEST SWAP5 POP POP POP POP POP PUSH20 0x0 PUSH4 0x39DF137F DUP3 PUSH1 0x40 MLOAD DUP3 PUSH4 0xFFFFFFFF AND PUSH1 0xE0 SHL DUP2 MSTORE PUSH1 0x4 ADD PUSH2 0x3340 SWAP2 SWAP1 PUSH2 0x5C33 JUMP JUMPDEST PUSH1 0x20 PUSH1 0x40 MLOAD DUP1 DUP4 SUB DUP2 DUP7 GAS DELEGATECALL ISZERO DUP1 ISZERO PUSH2 0x335B JUMPI RETURNDATASIZE PUSH0 DUP1 RETURNDATACOPY RETURNDATASIZE PUSH0 REVERT JUMPDEST POP POP POP POP PUSH1 0x40 MLOAD RETURNDATASIZE PUSH1 0x1F NOT PUSH1 0x1F DUP3 ADD AND DUP3 ADD DUP1 PUSH1 0x40 MSTORE POP DUP2 ADD SWAP1 PUSH2 0x337F SWAP2 SWAP1 PUSH2 0x38E9 JUMP JUMPDEST POP POP JUMP JUMPDEST PUSH0 DUP1 SLOAD SWAP1 PUSH2 0x100 EXP SWAP1 DIV PUSH20 0xFFFFFFFFFFFFFFFFFFFFFFFFFFFFFFFFFFFFFFFF AND PUSH20 0xFFFFFFFFFFFFFFFFFFFFFFFFFFFFFFFFFFFFFFFF AND PUSH4 0x86734E5B PUSH1 0x1 PUSH1 0x3 PUSH0 SWAP1 SLOAD SWAP1 PUSH2 0x100 EXP SWAP1 DIV PUSH20 0xFFFFFFFFFFFFFFFFFFFFFFFFFFFFFFFFFFFFFFFF AND PUSH1 0x40 MLOAD DUP4 PUSH4 0xFFFFFFFF AND PUSH1 0xE0 SHL DUP2 MSTORE PUSH1 0x4 ADD PUSH2 0x33FF SWAP3 SWAP2 SWAP1 PUSH2 0x379B JUMP JUMPDEST PUSH0 PUSH1 0x40 MLOAD DUP1 DUP4 SUB DUP2 PUSH0 DUP8 DUP1 EXTCODESIZE ISZERO DUP1 ISZERO PUSH2 0x3416 JUMPI PUSH0 DUP1 REVERT JUMPDEST POP GAS CALL ISZERO DUP1 ISZERO PUSH2 0x3428 JUMPI RETURNDATASIZE PUSH0 DUP1 RETURNDATACOPY RETURNDATASIZE PUSH0 REVERT JUMPDEST POP POP POP POP PUSH0 DUP1 PUSH0 SWAP1 SLOAD SWAP1 PUSH2 0x100 EXP SWAP1 DIV PUSH20 0xFFFFFFFFFFFFFFFFFFFFFFFFFFFFFFFFFFFFFFFF AND PUSH20 0xFFFFFFFFFFFFFFFFFFFFFFFFFFFFFFFFFFFFFFFF AND PUSH4 0xB9DB15B4 PUSH1 0x2 PUSH1 0x40 MLOAD DUP3 PUSH4 0xFFFFFFFF AND PUSH1 0xE0 SHL DUP2 MSTORE PUSH1 0x4 ADD PUSH2 0x3487 SWAP2 SWAP1 PUSH2 0x47C0 JUMP JUMPDEST PUSH0 PUSH1 0x40 MLOAD DUP1 DUP4 SUB DUP2 DUP7 GAS STATICCALL ISZERO DUP1 ISZERO PUSH2 0x34A1 JUMPI RETURNDATASIZE PUSH0 DUP1 RETURNDATACOPY RETURNDATASIZE PUSH0 REVERT JUMPDEST POP POP POP POP PUSH1 0x40 MLOAD RETURNDATASIZE PUSH0 DUP3 RETURNDATACOPY RETURNDATASIZE PUSH1 0x1F NOT PUSH1 0x1F DUP3 ADD AND DUP3 ADD DUP1 PUSH1 0x40 MSTORE POP DUP2 ADD SWAP1 PUSH2 0x34C9 SWAP2 SWAP1 PUSH2 0x41D6 JUMP JUMPDEST POP POP SWAP3 POP POP POP PUSH0 DUP1 PUSH0 SWAP1 SLOAD SWAP1 PUSH2 0x100 EXP SWAP1 DIV PUSH20 0xFFFFFFFFFFFFFFFFFFFFFFFFFFFFFFFFFFFFFFFF AND PUSH20 0xFFFFFFFFFFFFFFFFFFFFFFFFFFFFFFFFFFFFFFFF AND PUSH4 0xB9DB15B4 PUSH1 0x3 PUSH1 0x40 MLOAD DUP3 PUSH4 0xFFFFFFFF AND PUSH1 0xE0 SHL DUP2 MSTORE PUSH1 0x4 ADD PUSH2 0x352A SWAP2 SWAP1 PUSH2 0x4812 JUMP JUMPDEST PUSH0 PUSH1 0x40 MLOAD DUP1 DUP4 SUB DUP2 DUP7 GAS STATICCALL ISZERO DUP1 ISZERO PUSH2 0x3544 JUMPI RETURNDATASIZE PUSH0 DUP1 RETURNDATACOPY RETURNDATASIZE PUSH0 REVERT JUMPDEST POP POP POP POP PUSH1 0x40 MLOAD RETURNDATASIZE PUSH0 DUP3 RETURNDATACOPY RETURNDATASIZE PUSH1 0x1F NOT PUSH1 0x1F DUP3 ADD AND DUP3 ADD DUP1 PUSH1 0x40 MSTORE POP DUP2 ADD SWAP1 PUSH2 0x356C SWAP2 SWAP1 PUSH2 0x41D6 JUMP JUMPDEST POP POP SWAP3 POP POP POP PUSH20 0x0 PUSH4 0xBFBA5DD6 DUP4 PUSH1 0x3 PUSH0 SWAP1 SLOAD SWAP1 PUSH2 0x100 EXP SWAP1 DIV PUSH20 0xFFFFFFFFFFFFFFFFFFFFFFFFFFFFFFFFFFFFFFFF AND PUSH1 0x40 MLOAD DUP4 PUSH4 0xFFFFFFFF AND PUSH1 0xE0 SHL DUP2 MSTORE PUSH1 0x4 ADD PUSH2 0x35CC SWAP3 SWAP2 SWAP1 PUSH2 0x5CCF JUMP JUMPDEST PUSH1 0x20 PUSH1 0x40 MLOAD DUP1 DUP4 SUB DUP2 DUP7 GAS DELEGATECALL ISZERO DUP1 ISZERO PUSH2 0x35E7 JUMPI RETURNDATASIZE PUSH0 DUP1 RETURNDATACOPY RETURNDATASIZE PUSH0 REVERT JUMPDEST POP POP POP POP PUSH1 0x40 MLOAD RETURNDATASIZE PUSH1 0x1F NOT PUSH1 0x1F DUP3 ADD AND DUP3 ADD DUP1 PUSH1 0x40 MSTORE POP DUP2 ADD SWAP1 PUSH2 0x360B SWAP2 SWAP1 PUSH2 0x38E9 JUMP JUMPDEST POP PUSH20 0x0 PUSH4 0xBFBA5DD6 DUP3 PUSH1 0x3 PUSH0 SWAP1 SLOAD SWAP1 PUSH2 0x100 EXP SWAP1 DIV PUSH20 0xFFFFFFFFFFFFFFFFFFFFFFFFFFFFFFFFFFFFFFFF AND PUSH1 0x40 MLOAD DUP4 PUSH4 0xFFFFFFFF AND PUSH1 0xE0 SHL DUP2 MSTORE PUSH1 0x4 ADD PUSH2 0x3666 SWAP3 SWAP2 SWAP1 PUSH2 0x5D79 JUMP JUMPDEST PUSH1 0x20 PUSH1 0x40 MLOAD DUP1 DUP4 SUB DUP2 DUP7 GAS DELEGATECALL ISZERO DUP1 ISZERO PUSH2 0x3681 JUMPI RETURNDATASIZE PUSH0 DUP1 RETURNDATACOPY RETURNDATASIZE PUSH0 REVERT JUMPDEST POP POP POP POP PUSH1 0x40 MLOAD RETURNDATASIZE PUSH1 0x1F NOT PUSH1 0x1F DUP3 ADD AND DUP3 ADD DUP1 PUSH1 0x40 MSTORE POP DUP2 ADD SWAP1 PUSH2 0x36A5 SWAP2 SWAP1 PUSH2 0x38E9 JUMP JUMPDEST POP POP POP JUMP JUMPDEST PUSH2 0x47B3 DUP1 PUSH2 0x5DB4 DUP4 CODECOPY ADD SWAP1 JUMP JUMPDEST PUSH0 DUP2 SWAP1 POP SWAP2 SWAP1 POP JUMP JUMPDEST PUSH0 DUP2 SWAP1 POP SWAP2 SWAP1 POP JUMP JUMPDEST PUSH0 DUP2 SWAP1 POP SWAP2 SWAP1 POP JUMP JUMPDEST PUSH0 PUSH2 0x36EC PUSH2 0x36E7 PUSH2 0x36E2 DUP5 PUSH2 0x36B7 JUMP JUMPDEST PUSH2 0x36C9 JUMP JUMPDEST PUSH2 0x36C0 JUMP JUMPDEST SWAP1 POP SWAP2 SWAP1 POP JUMP JUMPDEST PUSH2 0x36FC DUP2 PUSH2 0x36D2 JUMP JUMPDEST DUP3 MSTORE POP POP JUMP JUMPDEST PUSH0 PUSH20 0xFFFFFFFFFFFFFFFFFFFFFFFFFFFFFFFFFFFFFFFF DUP3 AND SWAP1 POP SWAP2 SWAP1 POP JUMP JUMPDEST PUSH0 PUSH2 0x372B DUP3 PUSH2 0x3702 JUMP JUMPDEST SWAP1 POP SWAP2 SWAP1 POP JUMP JUMPDEST PUSH2 0x373B DUP2 PUSH2 0x3721 JUMP JUMPDEST DUP3 MSTORE POP POP JUMP JUMPDEST PUSH0 DUP3 DUP3 MSTORE PUSH1 0x20 DUP3 ADD SWAP1 POP SWAP3 SWAP2 POP POP JUMP JUMPDEST PUSH32 0x7472616E73666572426174636800000000000000000000000000000000000000 PUSH0 DUP3 ADD MSTORE POP JUMP JUMPDEST PUSH0 PUSH2 0x3785 PUSH1 0xD DUP4 PUSH2 0x3741 JUMP JUMPDEST SWAP2 POP PUSH2 0x3790 DUP3 PUSH2 0x3751 JUMP JUMPDEST PUSH1 0x20 DUP3 ADD SWAP1 POP SWAP2 SWAP1 POP JUMP JUMPDEST PUSH0 PUSH1 0x80 DUP3 ADD SWAP1 POP PUSH2 0x37AE PUSH0 DUP4 ADD DUP6 PUSH2 0x36F3 JUMP JUMPDEST PUSH2 0x37BB PUSH1 0x20 DUP4 ADD DUP5 PUSH2 0x3732 JUMP JUMPDEST DUP2 DUP2 SUB PUSH1 0x40 DUP4 ADD MSTORE PUSH2 0x37CC DUP2 PUSH2 0x3779 JUMP JUMPDEST SWAP1 POP DUP2 DUP2 SUB PUSH1 0x60 DUP4 ADD MSTORE PUSH2 0x37DF DUP2 PUSH2 0x3779 JUMP JUMPDEST SWAP1 POP SWAP4 SWAP3 POP POP POP JUMP JUMPDEST PUSH0 DUP2 ISZERO ISZERO SWAP1 POP SWAP2 SWAP1 POP JUMP JUMPDEST PUSH2 0x37FC DUP2 PUSH2 0x37E8 JUMP JUMPDEST DUP3 MSTORE POP POP JUMP JUMPDEST PUSH0 DUP3 DUP3 MSTORE PUSH1 0x20 DUP3 ADD SWAP1 POP SWAP3 SWAP2 POP POP JUMP JUMPDEST PUSH32 0x426C6F636B6564207472616E7366657272696E6720746F203020616464726573 PUSH0 DUP3 ADD MSTORE PUSH32 0x7300000000000000000000000000000000000000000000000000000000000000 PUSH1 0x20 DUP3 ADD MSTORE POP JUMP JUMPDEST PUSH0 PUSH2 0x386C PUSH1 0x21 DUP4 PUSH2 0x3802 JUMP JUMPDEST SWAP2 POP PUSH2 0x3877 DUP3 PUSH2 0x3812 JUMP JUMPDEST PUSH1 0x40 DUP3 ADD SWAP1 POP SWAP2 SWAP1 POP JUMP JUMPDEST PUSH0 PUSH1 0x40 DUP3 ADD SWAP1 POP PUSH2 0x3895 PUSH0 DUP4 ADD DUP5 PUSH2 0x37F3 JUMP JUMPDEST DUP2 DUP2 SUB PUSH1 0x20 DUP4 ADD MSTORE PUSH2 0x38A6 DUP2 PUSH2 0x3860 JUMP JUMPDEST SWAP1 POP SWAP3 SWAP2 POP POP JUMP JUMPDEST PUSH0 PUSH1 0x40 MLOAD SWAP1 POP SWAP1 JUMP JUMPDEST PUSH0 DUP1 REVERT JUMPDEST PUSH0 DUP1 REVERT JUMPDEST PUSH2 0x38C8 DUP2 PUSH2 0x37E8 JUMP JUMPDEST DUP2 EQ PUSH2 0x38D2 JUMPI PUSH0 DUP1 REVERT JUMPDEST POP JUMP JUMPDEST PUSH0 DUP2 MLOAD SWAP1 POP PUSH2 0x38E3 DUP2 PUSH2 0x38BF JUMP JUMPDEST SWAP3 SWAP2 POP POP JUMP JUMPDEST PUSH0 PUSH1 0x20 DUP3 DUP5 SUB SLT ISZERO PUSH2 0x38FE JUMPI PUSH2 0x38FD PUSH2 0x38B7 JUMP JUMPDEST JUMPDEST PUSH0 PUSH2 0x390B DUP5 DUP3 DUP6 ADD PUSH2 0x38D5 JUMP JUMPDEST SWAP2 POP POP SWAP3 SWAP2 POP POP JUMP JUMPDEST PUSH32 0x73686F756C646E7420616C6C6F77207472616E7366657272696E6720746F2030 PUSH0 DUP3 ADD MSTORE PUSH32 0x2061646472657373000000000000000000000000000000000000000000000000 PUSH1 0x20 DUP3 ADD MSTORE POP JUMP JUMPDEST PUSH0 PUSH2 0x396E PUSH1 0x28 DUP4 PUSH2 0x3802 JUMP JUMPDEST SWAP2 POP PUSH2 0x3979 DUP3 PUSH2 0x3914 JUMP JUMPDEST PUSH1 0x40 DUP3 ADD SWAP1 POP SWAP2 SWAP1 POP JUMP JUMPDEST PUSH0 PUSH1 0x40 DUP3 ADD SWAP1 POP PUSH2 0x3997 PUSH0 DUP4 ADD DUP5 PUSH2 0x37F3 JUMP JUMPDEST DUP2 DUP2 SUB PUSH1 0x20 DUP4 ADD MSTORE PUSH2 0x39A8 DUP2 PUSH2 0x3962 JUMP JUMPDEST SWAP1 POP SWAP3 SWAP2 POP POP JUMP JUMPDEST PUSH32 0x726561636C6C4261746368000000000000000000000000000000000000000000 PUSH0 DUP3 ADD MSTORE POP JUMP JUMPDEST PUSH0 PUSH2 0x39E4 PUSH1 0xB DUP4 PUSH2 0x3741 JUMP JUMPDEST SWAP2 POP PUSH2 0x39EF DUP3 PUSH2 0x39B0 JUMP JUMPDEST PUSH1 0x20 DUP3 ADD SWAP1 POP SWAP2 SWAP1 POP JUMP JUMPDEST PUSH0 PUSH1 0x80 DUP3 ADD SWAP1 POP PUSH2 0x3A0D PUSH0 DUP4 ADD DUP6 PUSH2 0x36F3 JUMP JUMPDEST PUSH2 0x3A1A PUSH1 0x20 DUP4 ADD DUP5 PUSH2 0x3732 JUMP JUMPDEST DUP2 DUP2 SUB PUSH1 0x40 DUP4 ADD MSTORE PUSH2 0x3A2B DUP2 PUSH2 0x39D8 JUMP JUMPDEST SWAP1 POP DUP2 DUP2 SUB PUSH1 0x60 DUP4 ADD MSTORE PUSH2 0x3A3E DUP2 PUSH2 0x39D8 JUMP JUMPDEST SWAP1 POP SWAP4 SWAP3 POP POP POP JUMP JUMPDEST PUSH32 0x426C6F636B656420726563616C6C656420626174636820746F20626520726563 PUSH0 DUP3 ADD MSTORE PUSH32 0x616C6C656420616761696E000000000000000000000000000000000000000000 PUSH1 0x20 DUP3 ADD MSTORE POP JUMP JUMPDEST PUSH0 PUSH2 0x3AA1 PUSH1 0x2B DUP4 PUSH2 0x3802 JUMP JUMPDEST SWAP2 POP PUSH2 0x3AAC DUP3 PUSH2 0x3A47 JUMP JUMPDEST PUSH1 0x40 DUP3 ADD SWAP1 POP SWAP2 SWAP1 POP JUMP JUMPDEST PUSH0 PUSH1 0x40 DUP3 ADD SWAP1 POP PUSH2 0x3ACA PUSH0 DUP4 ADD DUP5 PUSH2 0x37F3 JUMP JUMPDEST DUP2 DUP2 SUB PUSH1 0x20 DUP4 ADD MSTORE PUSH2 0x3ADB DUP2 PUSH2 0x3A95 JUMP JUMPDEST SWAP1 POP SWAP3 SWAP2 POP POP JUMP JUMPDEST PUSH32 0x73686F756C646E7420616C6C6F7720616C726561647920726563616C6C656420 PUSH0 DUP3 ADD MSTORE PUSH32 0x626174636820746F20726563616C6C0000000000000000000000000000000000 PUSH1 0x20 DUP3 ADD MSTORE POP JUMP JUMPDEST PUSH0 PUSH2 0x3B3D PUSH1 0x2F DUP4 PUSH2 0x3802 JUMP JUMPDEST SWAP2 POP PUSH2 0x3B48 DUP3 PUSH2 0x3AE3 JUMP JUMPDEST PUSH1 0x40 DUP3 ADD SWAP1 POP SWAP2 SWAP1 POP JUMP JUMPDEST PUSH0 PUSH1 0x40 DUP3 ADD SWAP1 POP PUSH2 0x3B66 PUSH0 DUP4 ADD DUP5 PUSH2 0x37F3 JUMP JUMPDEST DUP2 DUP2 SUB PUSH1 0x20 DUP4 ADD MSTORE PUSH2 0x3B77 DUP2 PUSH2 0x3B31 JUMP JUMPDEST SWAP1 POP SWAP3 SWAP2 POP POP JUMP JUMPDEST PUSH32 0x7465737420726563616C6C20616C726561647920726563616C6C65642070726F PUSH0 DUP3 ADD MSTORE PUSH32 0x6475637400000000000000000000000000000000000000000000000000000000 PUSH1 0x20 DUP3 ADD MSTORE POP JUMP JUMPDEST PUSH0 PUSH2 0x3BD9 PUSH1 0x24 DUP4 PUSH2 0x3741 JUMP JUMPDEST SWAP2 POP PUSH2 0x3BE4 DUP3 PUSH2 0x3B7F JUMP JUMPDEST PUSH1 0x40 DUP3 ADD SWAP1 POP SWAP2 SWAP1 POP JUMP JUMPDEST PUSH0 PUSH1 0x40 DUP3 ADD SWAP1 POP PUSH2 0x3C02 PUSH0 DUP4 ADD DUP5 PUSH2 0x36F3 JUMP JUMPDEST DUP2 DUP2 SUB PUSH1 0x20 DUP4 ADD MSTORE PUSH2 0x3C13 DUP2 PUSH2 0x3BCD JUMP JUMPDEST SWAP1 POP SWAP3 SWAP2 POP POP JUMP JUMPDEST PUSH32 0x426C6F636B656420726563616C6C696E6720726563616C6C65642070726F6475 PUSH0 DUP3 ADD MSTORE PUSH32 0x6374000000000000000000000000000000000000000000000000000000000000 PUSH1 0x20 DUP3 ADD MSTORE POP JUMP JUMPDEST PUSH0 PUSH2 0x3C75 PUSH1 0x22 DUP4 PUSH2 0x3802 JUMP JUMPDEST SWAP2 POP PUSH2 0x3C80 DUP3 PUSH2 0x3C1B JUMP JUMPDEST PUSH1 0x40 DUP3 ADD SWAP1 POP SWAP2 SWAP1 POP JUMP JUMPDEST PUSH0 PUSH1 0x40 DUP3 ADD SWAP1 POP PUSH2 0x3C9E PUSH0 DUP4 ADD DUP5 PUSH2 0x37F3 JUMP JUMPDEST DUP2 DUP2 SUB PUSH1 0x20 DUP4 ADD MSTORE PUSH2 0x3CAF DUP2 PUSH2 0x3C69 JUMP JUMPDEST SWAP1 POP SWAP3 SWAP2 POP POP JUMP JUMPDEST PUSH32 0x73686F756C646E7420616C6C6F7720726563616C6C20726563616C6C65642070 PUSH0 DUP3 ADD MSTORE PUSH32 0x726F647563740000000000000000000000000000000000000000000000000000 PUSH1 0x20 DUP3 ADD MSTORE POP JUMP JUMPDEST PUSH0 PUSH2 0x3D11 PUSH1 0x26 DUP4 PUSH2 0x3802 JUMP JUMPDEST SWAP2 POP PUSH2 0x3D1C DUP3 PUSH2 0x3CB7 JUMP JUMPDEST PUSH1 0x40 DUP3 ADD SWAP1 POP SWAP2 SWAP1 POP JUMP JUMPDEST PUSH0 PUSH1 0x40 DUP3 ADD SWAP1 POP PUSH2 0x3D3A PUSH0 DUP4 ADD DUP5 PUSH2 0x37F3 JUMP JUMPDEST DUP2 DUP2 SUB PUSH1 0x20 DUP4 ADD MSTORE PUSH2 0x3D4B DUP2 PUSH2 0x3D05 JUMP JUMPDEST SWAP1 POP SWAP3 SWAP2 POP POP JUMP JUMPDEST PUSH0 PUSH1 0x20 DUP3 ADD SWAP1 POP PUSH2 0x3D66 PUSH0 DUP4 ADD DUP5 PUSH2 0x3732 JUMP JUMPDEST SWAP3 SWAP2 POP POP JUMP JUMPDEST PUSH32 0x417574686F72697A6564312073686F756C6420626520617574686F72697A6564 PUSH0 DUP3 ADD MSTORE POP JUMP JUMPDEST PUSH0 PUSH2 0x3DA0 PUSH1 0x20 DUP4 PUSH2 0x3802 JUMP JUMPDEST SWAP2 POP PUSH2 0x3DAB DUP3 PUSH2 0x3D6C JUMP JUMPDEST PUSH1 0x20 DUP3 ADD SWAP1 POP SWAP2 SWAP1 POP JUMP JUMPDEST PUSH0 PUSH1 0x40 DUP3 ADD SWAP1 POP PUSH2 0x3DC9 PUSH0 DUP4 ADD DUP5 PUSH2 0x37F3 JUMP JUMPDEST DUP2 DUP2 SUB PUSH1 0x20 DUP4 ADD MSTORE PUSH2 0x3DDA DUP2 PUSH2 0x3D94 JUMP JUMPDEST SWAP1 POP SWAP3 SWAP2 POP POP JUMP JUMPDEST PUSH32 0x417574686F72697A6564322073686F756C6420626520617574686F72697A6564 PUSH0 DUP3 ADD MSTORE POP JUMP JUMPDEST PUSH0 PUSH2 0x3E16 PUSH1 0x20 DUP4 PUSH2 0x3802 JUMP JUMPDEST SWAP2 POP PUSH2 0x3E21 DUP3 PUSH2 0x3DE2 JUMP JUMPDEST PUSH1 0x20 DUP3 ADD SWAP1 POP SWAP2 SWAP1 POP JUMP JUMPDEST PUSH0 PUSH1 0x40 DUP3 ADD SWAP1 POP PUSH2 0x3E3F PUSH0 DUP4 ADD DUP5 PUSH2 0x37F3 JUMP JUMPDEST DUP2 DUP2 SUB PUSH1 0x20 DUP4 ADD MSTORE PUSH2 0x3E50 DUP2 PUSH2 0x3E0A JUMP JUMPDEST SWAP1 POP SWAP3 SWAP2 POP POP JUMP JUMPDEST PUSH32 0x556E617574686F72697A65642073686F756C64206E6F7420626520617574686F PUSH0 DUP3 ADD MSTORE PUSH32 0x72697A6564000000000000000000000000000000000000000000000000000000 PUSH1 0x20 DUP3 ADD MSTORE POP JUMP JUMPDEST PUSH0 PUSH2 0x3EB2 PUSH1 0x25 DUP4 PUSH2 0x3802 JUMP JUMPDEST SWAP2 POP PUSH2 0x3EBD DUP3 PUSH2 0x3E58 JUMP JUMPDEST PUSH1 0x40 DUP3 ADD SWAP1 POP SWAP2 SWAP1 POP JUMP JUMPDEST PUSH0 PUSH1 0x40 DUP3 ADD SWAP1 POP PUSH2 0x3EDB PUSH0 DUP4 ADD DUP5 PUSH2 0x37F3 JUMP JUMPDEST DUP2 DUP2 SUB PUSH1 0x20 DUP4 ADD MSTORE PUSH2 0x3EEC DUP2 PUSH2 0x3EA6 JUMP JUMPDEST SWAP1 POP SWAP3 SWAP2 POP POP JUMP JUMPDEST PUSH0 PUSH1 0x40 DUP3 ADD SWAP1 POP PUSH2 0x3F07 PUSH0 DUP4 ADD DUP6 PUSH2 0x36F3 JUMP JUMPDEST PUSH2 0x3F14 PUSH1 0x20 DUP4 ADD DUP5 PUSH2 0x3732 JUMP JUMPDEST SWAP4 SWAP3 POP POP POP JUMP JUMPDEST PUSH32 0x426C6F636B6564207472616E7366657272696E6720746F20796F757273656C66 PUSH0 DUP3 ADD MSTORE POP JUMP JUMPDEST PUSH0 PUSH2 0x3F4F PUSH1 0x20 DUP4 PUSH2 0x3802 JUMP JUMPDEST SWAP2 POP PUSH2 0x3F5A DUP3 PUSH2 0x3F1B JUMP JUMPDEST PUSH1 0x20 DUP3 ADD SWAP1 POP SWAP2 SWAP1 POP JUMP JUMPDEST PUSH0 PUSH1 0x40 DUP3 ADD SWAP1 POP PUSH2 0x3F78 PUSH0 DUP4 ADD DUP5 PUSH2 0x37F3 JUMP JUMPDEST DUP2 DUP2 SUB PUSH1 0x20 DUP4 ADD MSTORE PUSH2 0x3F89 DUP2 PUSH2 0x3F43 JUMP JUMPDEST SWAP1 POP SWAP3 SWAP2 POP POP JUMP JUMPDEST PUSH32 0x73686F756C646E7420616C6C6F77207472616E7366657220746F20796F757273 PUSH0 DUP3 ADD MSTORE PUSH32 0x656C660000000000000000000000000000000000000000000000000000000000 PUSH1 0x20 DUP3 ADD MSTORE POP JUMP JUMPDEST PUSH0 PUSH2 0x3FEB PUSH1 0x23 DUP4 PUSH2 0x3802 JUMP JUMPDEST SWAP2 POP PUSH2 0x3FF6 DUP3 PUSH2 0x3F91 JUMP JUMPDEST PUSH1 0x40 DUP3 ADD SWAP1 POP SWAP2 SWAP1 POP JUMP JUMPDEST PUSH0 PUSH1 0x40 DUP3 ADD SWAP1 POP PUSH2 0x4014 PUSH0 DUP4 ADD DUP5 PUSH2 0x37F3 JUMP JUMPDEST DUP2 DUP2 SUB PUSH1 0x20 DUP4 ADD MSTORE PUSH2 0x4025 DUP2 PUSH2 0x3FDF JUMP JUMPDEST SWAP1 POP SWAP3 SWAP2 POP POP JUMP JUMPDEST PUSH0 PUSH1 0x20 DUP3 ADD SWAP1 POP PUSH2 0x4040 PUSH0 DUP4 ADD DUP5 PUSH2 0x36F3 JUMP JUMPDEST SWAP3 SWAP2 POP POP JUMP JUMPDEST PUSH2 0x404F DUP2 PUSH2 0x36C0 JUMP JUMPDEST DUP2 EQ PUSH2 0x4059 JUMPI PUSH0 DUP1 REVERT JUMPDEST POP JUMP JUMPDEST PUSH0 DUP2 MLOAD SWAP1 POP PUSH2 0x406A DUP2 PUSH2 0x4046 JUMP JUMPDEST SWAP3 SWAP2 POP POP JUMP JUMPDEST PUSH0 DUP1 REVERT JUMPDEST PUSH0 DUP1 REVERT JUMPDEST PUSH0 PUSH1 0x1F NOT PUSH1 0x1F DUP4 ADD AND SWAP1 POP SWAP2 SWAP1 POP JUMP JUMPDEST PUSH32 0x4E487B7100000000000000000000000000000000000000000000000000000000 PUSH0 MSTORE PUSH1 0x41 PUSH1 0x4 MSTORE PUSH1 0x24 PUSH0 REVERT JUMPDEST PUSH2 0x40BE DUP3 PUSH2 0x4078 JUMP JUMPDEST DUP2 ADD DUP2 DUP2 LT PUSH8 0xFFFFFFFFFFFFFFFF DUP3 GT OR ISZERO PUSH2 0x40DD JUMPI PUSH2 0x40DC PUSH2 0x4088 JUMP JUMPDEST JUMPDEST DUP1 PUSH1 0x40 MSTORE POP POP POP JUMP JUMPDEST PUSH0 PUSH2 0x40EF PUSH2 0x38AE JUMP JUMPDEST SWAP1 POP PUSH2 0x40FB DUP3 DUP3 PUSH2 0x40B5 JUMP JUMPDEST SWAP2 SWAP1 POP JUMP JUMPDEST PUSH0 PUSH8 0xFFFFFFFFFFFFFFFF DUP3 GT ISZERO PUSH2 0x411A JUMPI PUSH2 0x4119 PUSH2 0x4088 JUMP JUMPDEST JUMPDEST PUSH2 0x4123 DUP3 PUSH2 0x4078 JUMP JUMPDEST SWAP1 POP PUSH1 0x20 DUP2 ADD SWAP1 POP SWAP2 SWAP1 POP JUMP JUMPDEST DUP3 DUP2 DUP4 MCOPY PUSH0 DUP4 DUP4 ADD MSTORE POP POP POP JUMP JUMPDEST PUSH0 PUSH2 0x4150 PUSH2 0x414B DUP5 PUSH2 0x4100 JUMP JUMPDEST PUSH2 0x40E6 JUMP JUMPDEST SWAP1 POP DUP3 DUP2 MSTORE PUSH1 0x20 DUP2 ADD DUP5 DUP5 DUP5 ADD GT ISZERO PUSH2 0x416C JUMPI PUSH2 0x416B PUSH2 0x4074 JUMP JUMPDEST JUMPDEST PUSH2 0x4177 DUP5 DUP3 DUP6 PUSH2 0x4130 JUMP JUMPDEST POP SWAP4 SWAP3 POP POP POP JUMP JUMPDEST PUSH0 DUP3 PUSH1 0x1F DUP4 ADD SLT PUSH2 0x4193 JUMPI PUSH2 0x4192 PUSH2 0x4070 JUMP JUMPDEST JUMPDEST DUP2 MLOAD PUSH2 0x41A3 DUP5 DUP3 PUSH1 0x20 DUP7 ADD PUSH2 0x413E JUMP JUMPDEST SWAP2 POP POP SWAP3 SWAP2 POP POP JUMP JUMPDEST PUSH2 0x41B5 DUP2 PUSH2 0x3721 JUMP JUMPDEST DUP2 EQ PUSH2 0x41BF JUMPI PUSH0 DUP1 REVERT JUMPDEST POP JUMP JUMPDEST PUSH0 DUP2 MLOAD SWAP1 POP PUSH2 0x41D0 DUP2 PUSH2 0x41AC JUMP JUMPDEST SWAP3 SWAP2 POP POP JUMP JUMPDEST PUSH0 DUP1 PUSH0 DUP1 PUSH0 PUSH1 0xA0 DUP7 DUP9 SUB SLT ISZERO PUSH2 0x41EF JUMPI PUSH2 0x41EE PUSH2 0x38B7 JUMP JUMPDEST JUMPDEST PUSH0 PUSH2 0x41FC DUP9 DUP3 DUP10 ADD PUSH2 0x405C JUMP JUMPDEST SWAP6 POP POP PUSH1 0x20 DUP7 ADD MLOAD PUSH8 0xFFFFFFFFFFFFFFFF DUP2 GT ISZERO PUSH2 0x421D JUMPI PUSH2 0x421C PUSH2 0x38BB JUMP JUMPDEST JUMPDEST PUSH2 0x4229 DUP9 DUP3 DUP10 ADD PUSH2 0x417F JUMP JUMPDEST SWAP5 POP POP PUSH1 0x40 PUSH2 0x423A DUP9 DUP3 DUP10 ADD PUSH2 0x41C2 JUMP JUMPDEST SWAP4 POP POP PUSH1 0x60 PUSH2 0x424B DUP9 DUP3 DUP10 ADD PUSH2 0x405C JUMP JUMPDEST SWAP3 POP POP PUSH1 0x80 PUSH2 0x425C DUP9 DUP3 DUP10 ADD PUSH2 0x38D5 JUMP JUMPDEST SWAP2 POP POP SWAP3 SWAP6 POP SWAP3 SWAP6 SWAP1 SWAP4 POP JUMP JUMPDEST PUSH2 0x4272 DUP2 PUSH2 0x3721 JUMP JUMPDEST DUP3 MSTORE POP POP JUMP JUMPDEST PUSH32 0x4F776E657273686970207472616E73666572206661696C656400000000000000 PUSH0 DUP3 ADD MSTORE POP JUMP JUMPDEST PUSH0 PUSH2 0x42AC PUSH1 0x19 DUP4 PUSH2 0x3802 JUMP JUMPDEST SWAP2 POP PUSH2 0x42B7 DUP3 PUSH2 0x4278 JUMP JUMPDEST PUSH1 0x20 DUP3 ADD SWAP1 POP SWAP2 SWAP1 POP JUMP JUMPDEST PUSH0 PUSH1 0x60 DUP3 ADD SWAP1 POP PUSH2 0x42D5 PUSH0 DUP4 ADD DUP6 PUSH2 0x4269 JUMP JUMPDEST PUSH2 0x42E2 PUSH1 0x20 DUP4 ADD DUP5 PUSH2 0x4269 JUMP JUMPDEST DUP2 DUP2 SUB PUSH1 0x40 DUP4 ADD MSTORE PUSH2 0x42F3 DUP2 PUSH2 0x42A0 JUMP JUMPDEST SWAP1 POP SWAP4 SWAP3 POP POP POP JUMP JUMPDEST PUSH32 0x4E487B7100000000000000000000000000000000000000000000000000000000 PUSH0 MSTORE PUSH1 0x32 PUSH1 0x4 MSTORE PUSH1 0x24 PUSH0 REVERT JUMPDEST PUSH0 DUP2 MLOAD SWAP1 POP SWAP2 SWAP1 POP JUMP JUMPDEST PUSH0 DUP3 DUP3 MSTORE PUSH1 0x20 DUP3 ADD SWAP1 POP SWAP3 SWAP2 POP POP JUMP JUMPDEST PUSH0 DUP2 SWAP1 POP PUSH1 0x20 DUP3 ADD SWAP1 POP SWAP2 SWAP1 POP JUMP JUMPDEST PUSH2 0x435B DUP2 PUSH2 0x36C0 JUMP JUMPDEST DUP3 MSTORE POP POP JUMP JUMPDEST PUSH0 PUSH2 0x436C DUP4 DUP4 PUSH2 0x4352 JUMP JUMPDEST PUSH1 0x20 DUP4 ADD SWAP1 POP SWAP3 SWAP2 POP POP JUMP JUMPDEST PUSH0 PUSH1 0x20 DUP3 ADD SWAP1 POP SWAP2 SWAP1 POP JUMP JUMPDEST PUSH0 PUSH2 0x438E DUP3 PUSH2 0x4329 JUMP JUMPDEST PUSH2 0x4398 DUP2 DUP6 PUSH2 0x4333 JUMP JUMPDEST SWAP4 POP PUSH2 0x43A3 DUP4 PUSH2 0x4343 JUMP JUMPDEST DUP1 PUSH0 JUMPDEST DUP4 DUP2 LT ISZERO PUSH2 0x43D3 JUMPI DUP2 MLOAD PUSH2 0x43BA DUP9 DUP3 PUSH2 0x4361 JUMP JUMPDEST SWAP8 POP PUSH2 0x43C5 DUP4 PUSH2 0x4378 JUMP JUMPDEST SWAP3 POP POP PUSH1 0x1 DUP2 ADD SWAP1 POP PUSH2 0x43A6 JUMP JUMPDEST POP DUP6 SWAP4 POP POP POP POP SWAP3 SWAP2 POP POP JUMP JUMPDEST PUSH0 DUP2 MLOAD SWAP1 POP SWAP2 SWAP1 POP JUMP JUMPDEST PUSH0 DUP3 DUP3 MSTORE PUSH1 0x20 DUP3 ADD SWAP1 POP SWAP3 SWAP2 POP POP JUMP JUMPDEST PUSH0 DUP2 SWAP1 POP PUSH1 0x20 DUP3 ADD SWAP1 POP SWAP2 SWAP1 POP JUMP JUMPDEST PUSH0 DUP2 MLOAD SWAP1 POP SWAP2 SWAP1 POP JUMP JUMPDEST PUSH0 DUP3 DUP3 MSTORE PUSH1 0x20 DUP3 ADD SWAP1 POP SWAP3 SWAP2 POP POP JUMP JUMPDEST PUSH0 PUSH2 0x442D DUP3 PUSH2 0x4409 JUMP JUMPDEST PUSH2 0x4437 DUP2 DUP6 PUSH2 0x4413 JUMP JUMPDEST SWAP4 POP PUSH2 0x4447 DUP2 DUP6 PUSH1 0x20 DUP7 ADD PUSH2 0x4130 JUMP JUMPDEST PUSH2 0x4450 DUP2 PUSH2 0x4078 JUMP JUMPDEST DUP5 ADD SWAP2 POP POP SWAP3 SWAP2 POP POP JUMP JUMPDEST PUSH0 PUSH2 0x4466 DUP4 DUP4 PUSH2 0x4423 JUMP JUMPDEST SWAP1 POP SWAP3 SWAP2 POP POP JUMP JUMPDEST PUSH0 PUSH1 0x20 DUP3 ADD SWAP1 POP SWAP2 SWAP1 POP JUMP JUMPDEST PUSH0 PUSH2 0x4484 DUP3 PUSH2 0x43E0 JUMP JUMPDEST PUSH2 0x448E DUP2 DUP6 PUSH2 0x43EA JUMP JUMPDEST SWAP4 POP DUP4 PUSH1 0x20 DUP3 MUL DUP6 ADD PUSH2 0x44A0 DUP6 PUSH2 0x43FA JUMP JUMPDEST DUP1 PUSH0 JUMPDEST DUP6 DUP2 LT ISZERO PUSH2 0x44DB JUMPI DUP5 DUP5 SUB DUP10 MSTORE DUP2 MLOAD PUSH2 0x44BC DUP6 DUP3 PUSH2 0x445B JUMP JUMPDEST SWAP5 POP PUSH2 0x44C7 DUP4 PUSH2 0x446E JUMP JUMPDEST SWAP3 POP PUSH1 0x20 DUP11 ADD SWAP10 POP POP PUSH1 0x1 DUP2 ADD SWAP1 POP PUSH2 0x44A3 JUMP JUMPDEST POP DUP3 SWAP8 POP DUP8 SWAP6 POP POP POP POP POP POP SWAP3 SWAP2 POP POP JUMP JUMPDEST PUSH32 0x7265676973746572426174636800000000000000000000000000000000000000 PUSH0 DUP3 ADD MSTORE POP JUMP JUMPDEST PUSH0 PUSH2 0x4521 PUSH1 0xD DUP4 PUSH2 0x3741 JUMP JUMPDEST SWAP2 POP PUSH2 0x452C DUP3 PUSH2 0x44ED JUMP JUMPDEST PUSH1 0x20 DUP3 ADD SWAP1 POP SWAP2 SWAP1 POP JUMP JUMPDEST PUSH0 PUSH1 0x80 DUP3 ADD SWAP1 POP DUP2 DUP2 SUB PUSH0 DUP4 ADD MSTORE PUSH2 0x454F DUP2 DUP7 PUSH2 0x4384 JUMP JUMPDEST SWAP1 POP DUP2 DUP2 SUB PUSH1 0x20 DUP4 ADD MSTORE PUSH2 0x4563 DUP2 DUP6 PUSH2 0x447A JUMP JUMPDEST SWAP1 POP DUP2 DUP2 SUB PUSH1 0x40 DUP4 ADD MSTORE PUSH2 0x4577 DUP2 DUP5 PUSH2 0x447A JUMP JUMPDEST SWAP1 POP DUP2 DUP2 SUB PUSH1 0x60 DUP4 ADD MSTORE PUSH2 0x458A DUP2 PUSH2 0x4515 JUMP JUMPDEST SWAP1 POP SWAP5 SWAP4 POP POP POP POP JUMP JUMPDEST PUSH32 0x426C6F636B65642072656769737465722070726F64756374207769746820656D PUSH0 DUP3 ADD MSTORE PUSH32 0x7074792064657363000000000000000000000000000000000000000000000000 PUSH1 0x20 DUP3 ADD MSTORE POP JUMP JUMPDEST PUSH0 PUSH2 0x45EE PUSH1 0x28 DUP4 PUSH2 0x3802 JUMP JUMPDEST SWAP2 POP PUSH2 0x45F9 DUP3 PUSH2 0x4594 JUMP JUMPDEST PUSH1 0x40 DUP3 ADD SWAP1 POP SWAP2 SWAP1 POP JUMP JUMPDEST PUSH0 PUSH1 0x40 DUP3 ADD SWAP1 POP PUSH2 0x4617 PUSH0 DUP4 ADD DUP5 PUSH2 0x37F3 JUMP JUMPDEST DUP2 DUP2 SUB PUSH1 0x20 DUP4 ADD MSTORE PUSH2 0x4628 DUP2 PUSH2 0x45E2 JUMP JUMPDEST SWAP1 POP SWAP3 SWAP2 POP POP JUMP JUMPDEST PUSH32 0x656D70747920646573632073686F756C646E7420626520616C6C6F7765640000 PUSH0 DUP3 ADD MSTORE POP JUMP JUMPDEST PUSH0 PUSH2 0x4664 PUSH1 0x1E DUP4 PUSH2 0x3802 JUMP JUMPDEST SWAP2 POP PUSH2 0x466F DUP3 PUSH2 0x4630 JUMP JUMPDEST PUSH1 0x20 DUP3 ADD SWAP1 POP SWAP2 SWAP1 POP JUMP JUMPDEST PUSH0 PUSH1 0x40 DUP3 ADD SWAP1 POP PUSH2 0x468D PUSH0 DUP4 ADD DUP5 PUSH2 0x37F3 JUMP JUMPDEST DUP2 DUP2 SUB PUSH1 0x20 DUP4 ADD MSTORE PUSH2 0x469E DUP2 PUSH2 0x4658 JUMP JUMPDEST SWAP1 POP SWAP3 SWAP2 POP POP JUMP JUMPDEST PUSH32 0x726563616C6C4261746368000000000000000000000000000000000000000000 PUSH0 DUP3 ADD MSTORE POP JUMP JUMPDEST PUSH0 PUSH2 0x46DA PUSH1 0xB DUP4 PUSH2 0x3741 JUMP JUMPDEST SWAP2 POP PUSH2 0x46E5 DUP3 PUSH2 0x46A6 JUMP JUMPDEST PUSH1 0x20 DUP3 ADD SWAP1 POP SWAP2 SWAP1 POP JUMP JUMPDEST PUSH32 0x7465737420626174636820726563616C6C000000000000000000000000000000 PUSH0 DUP3 ADD MSTORE POP JUMP JUMPDEST PUSH0 PUSH2 0x4724 PUSH1 0x11 DUP4 PUSH2 0x3741 JUMP JUMPDEST SWAP2 POP PUSH2 0x472F DUP3 PUSH2 0x46F0 JUMP JUMPDEST PUSH1 0x20 DUP3 ADD SWAP1 POP SWAP2 SWAP1 POP JUMP JUMPDEST PUSH0 PUSH1 0x80 DUP3 ADD SWAP1 POP PUSH2 0x474D PUSH0 DUP4 ADD DUP6 PUSH2 0x36F3 JUMP JUMPDEST PUSH2 0x475A PUSH1 0x20 DUP4 ADD DUP5 PUSH2 0x3732 JUMP JUMPDEST DUP2 DUP2 SUB PUSH1 0x40 DUP4 ADD MSTORE PUSH2 0x476B DUP2 PUSH2 0x46CE JUMP JUMPDEST SWAP1 POP DUP2 DUP2 SUB PUSH1 0x60 DUP4 ADD MSTORE PUSH2 0x477E DUP2 PUSH2 0x4718 JUMP JUMPDEST SWAP1 POP SWAP4 SWAP3 POP POP POP JUMP JUMPDEST PUSH0 DUP2 SWAP1 POP SWAP2 SWAP1 POP JUMP JUMPDEST PUSH0 PUSH2 0x47AA PUSH2 0x47A5 PUSH2 0x47A0 DUP5 PUSH2 0x4787 JUMP JUMPDEST PUSH2 0x36C9 JUMP JUMPDEST PUSH2 0x36C0 JUMP JUMPDEST SWAP1 POP SWAP2 SWAP1 POP JUMP JUMPDEST PUSH2 0x47BA DUP2 PUSH2 0x4790 JUMP JUMPDEST DUP3 MSTORE POP POP JUMP JUMPDEST PUSH0 PUSH1 0x20 DUP3 ADD SWAP1 POP PUSH2 0x47D3 PUSH0 DUP4 ADD DUP5 PUSH2 0x47B1 JUMP JUMPDEST SWAP3 SWAP2 POP POP JUMP JUMPDEST PUSH0 DUP2 SWAP1 POP SWAP2 SWAP1 POP JUMP JUMPDEST PUSH0 PUSH2 0x47FC PUSH2 0x47F7 PUSH2 0x47F2 DUP5 PUSH2 0x47D9 JUMP JUMPDEST PUSH2 0x36C9 JUMP JUMPDEST PUSH2 0x36C0 JUMP JUMPDEST SWAP1 POP SWAP2 SWAP1 POP JUMP JUMPDEST PUSH2 0x480C DUP2 PUSH2 0x47E2 JUMP JUMPDEST DUP3 MSTORE POP POP JUMP JUMPDEST PUSH0 PUSH1 0x20 DUP3 ADD SWAP1 POP PUSH2 0x4825 PUSH0 DUP4 ADD DUP5 PUSH2 0x4803 JUMP JUMPDEST SWAP3 SWAP2 POP POP JUMP JUMPDEST PUSH32 0x6970686F6E653820726563616C6C206661696C65640000000000000000000000 PUSH0 DUP3 ADD MSTORE POP JUMP JUMPDEST PUSH0 PUSH2 0x485F PUSH1 0x15 DUP4 PUSH2 0x3802 JUMP JUMPDEST SWAP2 POP PUSH2 0x486A DUP3 PUSH2 0x482B JUMP JUMPDEST PUSH1 0x20 DUP3 ADD SWAP1 POP SWAP2 SWAP1 POP JUMP JUMPDEST PUSH0 PUSH1 0x40 DUP3 ADD SWAP1 POP PUSH2 0x4888 PUSH0 DUP4 ADD DUP5 PUSH2 0x37F3 JUMP JUMPDEST DUP2 DUP2 SUB PUSH1 0x20 DUP4 ADD MSTORE PUSH2 0x4899 DUP2 PUSH2 0x4853 JUMP JUMPDEST SWAP1 POP SWAP3 SWAP2 POP POP JUMP JUMPDEST PUSH32 0x6970686F6E653920726563616C6C206661696C65640000000000000000000000 PUSH0 DUP3 ADD MSTORE POP JUMP JUMPDEST PUSH0 PUSH2 0x48D5 PUSH1 0x15 DUP4 PUSH2 0x3802 JUMP JUMPDEST SWAP2 POP PUSH2 0x48E0 DUP3 PUSH2 0x48A1 JUMP JUMPDEST PUSH1 0x20 DUP3 ADD SWAP1 POP SWAP2 SWAP1 POP JUMP JUMPDEST PUSH0 PUSH1 0x40 DUP3 ADD SWAP1 POP PUSH2 0x48FE PUSH0 DUP4 ADD DUP5 PUSH2 0x37F3 JUMP JUMPDEST DUP2 DUP2 SUB PUSH1 0x20 DUP4 ADD MSTORE PUSH2 0x490F DUP2 PUSH2 0x48C9 JUMP JUMPDEST SWAP1 POP SWAP3 SWAP2 POP POP JUMP JUMPDEST PUSH0 PUSH8 0xFFFFFFFFFFFFFFFF DUP3 GT ISZERO PUSH2 0x4931 JUMPI PUSH2 0x4930 PUSH2 0x4088 JUMP JUMPDEST JUMPDEST PUSH1 0x20 DUP3 MUL SWAP1 POP PUSH1 0x20 DUP2 ADD SWAP1 POP SWAP2 SWAP1 POP JUMP JUMPDEST PUSH0 DUP1 REVERT JUMPDEST PUSH0 PUSH2 0x4958 PUSH2 0x4953 DUP5 PUSH2 0x4917 JUMP JUMPDEST PUSH2 0x40E6 JUMP JUMPDEST SWAP1 POP DUP1 DUP4 DUP3 MSTORE PUSH1 0x20 DUP3 ADD SWAP1 POP PUSH1 0x20 DUP5 MUL DUP4 ADD DUP6 DUP2 GT ISZERO PUSH2 0x497B JUMPI PUSH2 0x497A PUSH2 0x4942 JUMP JUMPDEST JUMPDEST DUP4 JUMPDEST DUP2 DUP2 LT ISZERO PUSH2 0x49A4 JUMPI DUP1 PUSH2 0x4990 DUP9 DUP3 PUSH2 0x405C JUMP JUMPDEST DUP5 MSTORE PUSH1 0x20 DUP5 ADD SWAP4 POP POP PUSH1 0x20 DUP2 ADD SWAP1 POP PUSH2 0x497D JUMP JUMPDEST POP POP POP SWAP4 SWAP3 POP POP POP JUMP JUMPDEST PUSH0 DUP3 PUSH1 0x1F DUP4 ADD SLT PUSH2 0x49C2 JUMPI PUSH2 0x49C1 PUSH2 0x4070 JUMP JUMPDEST JUMPDEST DUP2 MLOAD PUSH2 0x49D2 DUP5 DUP3 PUSH1 0x20 DUP7 ADD PUSH2 0x4946 JUMP JUMPDEST SWAP2 POP POP SWAP3 SWAP2 POP POP JUMP JUMPDEST PUSH0 PUSH8 0xFFFFFFFFFFFFFFFF DUP3 GT ISZERO PUSH2 0x49F5 JUMPI PUSH2 0x49F4 PUSH2 0x4088 JUMP JUMPDEST JUMPDEST PUSH1 0x20 DUP3 MUL SWAP1 POP PUSH1 0x20 DUP2 ADD SWAP1 POP SWAP2 SWAP1 POP JUMP JUMPDEST PUSH0 PUSH2 0x4A18 PUSH2 0x4A13 DUP5 PUSH2 0x49DB JUMP JUMPDEST PUSH2 0x40E6 JUMP JUMPDEST SWAP1 POP DUP1 DUP4 DUP3 MSTORE PUSH1 0x20 DUP3 ADD SWAP1 POP PUSH1 0x20 DUP5 MUL DUP4 ADD DUP6 DUP2 GT ISZERO PUSH2 0x4A3B JUMPI PUSH2 0x4A3A PUSH2 0x4942 JUMP JUMPDEST JUMPDEST DUP4 JUMPDEST DUP2 DUP2 LT ISZERO PUSH2 0x4A82 JUMPI DUP1 MLOAD PUSH8 0xFFFFFFFFFFFFFFFF DUP2 GT ISZERO PUSH2 0x4A60 JUMPI PUSH2 0x4A5F PUSH2 0x4070 JUMP JUMPDEST JUMPDEST DUP1 DUP7 ADD PUSH2 0x4A6D DUP10 DUP3 PUSH2 0x417F JUMP JUMPDEST DUP6 MSTORE PUSH1 0x20 DUP6 ADD SWAP5 POP POP POP PUSH1 0x20 DUP2 ADD SWAP1 POP PUSH2 0x4A3D JUMP JUMPDEST POP POP POP SWAP4 SWAP3 POP POP POP JUMP JUMPDEST PUSH0 DUP3 PUSH1 0x1F DUP4 ADD SLT PUSH2 0x4AA0 JUMPI PUSH2 0x4A9F PUSH2 0x4070 JUMP JUMPDEST JUMPDEST DUP2 MLOAD PUSH2 0x4AB0 DUP5 DUP3 PUSH1 0x20 DUP7 ADD PUSH2 0x4A06 JUMP JUMPDEST SWAP2 POP POP SWAP3 SWAP2 POP POP JUMP JUMPDEST PUSH0 DUP1 PUSH0 DUP1 PUSH0 DUP1 PUSH0 DUP1 PUSH2 0x100 DUP10 DUP12 SUB SLT ISZERO PUSH2 0x4AD6 JUMPI PUSH2 0x4AD5 PUSH2 0x38B7 JUMP JUMPDEST JUMPDEST PUSH0 DUP10 ADD MLOAD PUSH8 0xFFFFFFFFFFFFFFFF DUP2 GT ISZERO PUSH2 0x4AF3 JUMPI PUSH2 0x4AF2 PUSH2 0x38BB JUMP JUMPDEST JUMPDEST PUSH2 0x4AFF DUP12 DUP3 DUP13 ADD PUSH2 0x49AE JUMP JUMPDEST SWAP9 POP POP PUSH1 0x20 DUP10 ADD MLOAD PUSH8 0xFFFFFFFFFFFFFFFF DUP2 GT ISZERO PUSH2 0x4B20 JUMPI PUSH2 0x4B1F PUSH2 0x38BB JUMP JUMPDEST JUMPDEST PUSH2 0x4B2C DUP12 DUP3 DUP13 ADD PUSH2 0x4A8C JUMP JUMPDEST SWAP8 POP POP PUSH1 0x40 DUP10 ADD MLOAD PUSH8 0xFFFFFFFFFFFFFFFF DUP2 GT ISZERO PUSH2 0x4B4D JUMPI PUSH2 0x4B4C PUSH2 0x38BB JUMP JUMPDEST JUMPDEST PUSH2 0x4B59 DUP12 DUP3 DUP13 ADD PUSH2 0x4A8C JUMP JUMPDEST SWAP7 POP POP PUSH1 0x60 PUSH2 0x4B6A DUP12 DUP3 DUP13 ADD PUSH2 0x41C2 JUMP JUMPDEST SWAP6 POP POP PUSH1 0x80 PUSH2 0x4B7B DUP12 DUP3 DUP13 ADD PUSH2 0x405C JUMP JUMPDEST SWAP5 POP POP PUSH1 0xA0 PUSH2 0x4B8C DUP12 DUP3 DUP13 ADD PUSH2 0x38D5 JUMP JUMPDEST SWAP4 POP POP PUSH1 0xC0 PUSH2 0x4B9D DUP12 DUP3 DUP13 ADD PUSH2 0x405C JUMP JUMPDEST SWAP3 POP POP PUSH1 0xE0 DUP10 ADD MLOAD PUSH8 0xFFFFFFFFFFFFFFFF DUP2 GT ISZERO PUSH2 0x4BBE JUMPI PUSH2 0x4BBD PUSH2 0x38BB JUMP JUMPDEST JUMPDEST PUSH2 0x4BCA DUP12 DUP3 DUP13 ADD PUSH2 0x417F JUMP JUMPDEST SWAP2 POP POP SWAP3 SWAP6 SWAP9 POP SWAP3 SWAP6 SWAP9 SWAP1 SWAP4 SWAP7 POP JUMP JUMPDEST PUSH32 0x626174636820726563616C6C206661696C656400000000000000000000000000 PUSH0 DUP3 ADD MSTORE POP JUMP JUMPDEST PUSH0 PUSH2 0x4C0E PUSH1 0x13 DUP4 PUSH2 0x3802 JUMP JUMPDEST SWAP2 POP PUSH2 0x4C19 DUP3 PUSH2 0x4BDA JUMP JUMPDEST PUSH1 0x20 DUP3 ADD SWAP1 POP SWAP2 SWAP1 POP JUMP JUMPDEST PUSH0 PUSH1 0x40 DUP3 ADD SWAP1 POP PUSH2 0x4C37 PUSH0 DUP4 ADD DUP5 PUSH2 0x37F3 JUMP JUMPDEST DUP2 DUP2 SUB PUSH1 0x20 DUP4 ADD MSTORE PUSH2 0x4C48 DUP2 PUSH2 0x4C02 JUMP JUMPDEST SWAP1 POP SWAP3 SWAP2 POP POP JUMP JUMPDEST PUSH0 DUP2 SWAP1 POP SWAP2 SWAP1 POP JUMP JUMPDEST PUSH0 PUSH2 0x4C73 PUSH2 0x4C6E PUSH2 0x4C69 DUP5 PUSH2 0x4C50 JUMP JUMPDEST PUSH2 0x36C9 JUMP JUMPDEST PUSH2 0x36C0 JUMP JUMPDEST SWAP1 POP SWAP2 SWAP1 POP JUMP JUMPDEST PUSH2 0x4C83 DUP2 PUSH2 0x4C59 JUMP JUMPDEST DUP3 MSTORE POP POP JUMP JUMPDEST PUSH0 PUSH1 0x20 DUP3 ADD SWAP1 POP PUSH2 0x4C9C PUSH0 DUP4 ADD DUP5 PUSH2 0x4C7A JUMP JUMPDEST SWAP3 SWAP2 POP POP JUMP JUMPDEST PUSH0 PUSH1 0x20 DUP3 DUP5 SUB SLT ISZERO PUSH2 0x4CB7 JUMPI PUSH2 0x4CB6 PUSH2 0x38B7 JUMP JUMPDEST JUMPDEST PUSH0 PUSH2 0x4CC4 DUP5 DUP3 DUP6 ADD PUSH2 0x41C2 JUMP JUMPDEST SWAP2 POP POP SWAP3 SWAP2 POP POP JUMP JUMPDEST PUSH2 0x4CD6 DUP2 PUSH2 0x36D2 JUMP JUMPDEST DUP3 MSTORE POP POP JUMP JUMPDEST PUSH0 PUSH1 0x20 DUP3 ADD SWAP1 POP PUSH2 0x4CEF PUSH0 DUP4 ADD DUP5 PUSH2 0x4CCD JUMP JUMPDEST SWAP3 SWAP2 POP POP JUMP JUMPDEST PUSH2 0x4CFE DUP2 PUSH2 0x4790 JUMP JUMPDEST DUP3 MSTORE POP POP JUMP JUMPDEST PUSH0 PUSH1 0x20 DUP3 ADD SWAP1 POP PUSH2 0x4D17 PUSH0 DUP4 ADD DUP5 PUSH2 0x4CF5 JUMP JUMPDEST SWAP3 SWAP2 POP POP JUMP JUMPDEST PUSH2 0x4D26 DUP2 PUSH2 0x47E2 JUMP JUMPDEST DUP3 MSTORE POP POP JUMP JUMPDEST PUSH0 PUSH1 0x20 DUP3 ADD SWAP1 POP PUSH2 0x4D3F PUSH0 DUP4 ADD DUP5 PUSH2 0x4D1D JUMP JUMPDEST SWAP3 SWAP2 POP POP JUMP JUMPDEST PUSH0 PUSH1 0xFF DUP3 AND SWAP1 POP SWAP2 SWAP1 POP JUMP JUMPDEST PUSH0 PUSH2 0x4D6B PUSH2 0x4D66 PUSH2 0x4D61 DUP5 PUSH2 0x36B7 JUMP JUMPDEST PUSH2 0x36C9 JUMP JUMPDEST PUSH2 0x4D45 JUMP JUMPDEST SWAP1 POP SWAP2 SWAP1 POP JUMP JUMPDEST PUSH2 0x4D7B DUP2 PUSH2 0x4D51 JUMP JUMPDEST DUP3 MSTORE POP POP JUMP JUMPDEST PUSH32 0x7265656E74727920726563616C6C000000000000000000000000000000000000 PUSH0 DUP3 ADD MSTORE POP JUMP JUMPDEST PUSH0 PUSH2 0x4DB5 PUSH1 0xE DUP4 PUSH2 0x3741 JUMP JUMPDEST SWAP2 POP PUSH2 0x4DC0 DUP3 PUSH2 0x4D81 JUMP JUMPDEST PUSH1 0x20 DUP3 ADD SWAP1 POP SWAP2 SWAP1 POP JUMP JUMPDEST PUSH0 PUSH1 0x40 DUP3 ADD SWAP1 POP PUSH2 0x4DDE PUSH0 DUP4 ADD DUP5 PUSH2 0x4D72 JUMP JUMPDEST DUP2 DUP2 SUB PUSH1 0x20 DUP4 ADD MSTORE PUSH2 0x4DEF DUP2 PUSH2 0x4DA9 JUMP JUMPDEST SWAP1 POP SWAP3 SWAP2 POP POP JUMP JUMPDEST PUSH0 DUP2 MLOAD SWAP1 POP SWAP2 SWAP1 POP JUMP JUMPDEST PUSH0 DUP2 SWAP1 POP SWAP3 SWAP2 POP POP JUMP JUMPDEST PUSH0 PUSH2 0x4E15 DUP3 PUSH2 0x4DF7 JUMP JUMPDEST PUSH2 0x4E1F DUP2 DUP6 PUSH2 0x4E01 JUMP JUMPDEST SWAP4 POP PUSH2 0x4E2F DUP2 DUP6 PUSH1 0x20 DUP7 ADD PUSH2 0x4130 JUMP JUMPDEST DUP1 DUP5 ADD SWAP2 POP POP SWAP3 SWAP2 POP POP JUMP JUMPDEST PUSH0 PUSH2 0x4E46 DUP3 DUP5 PUSH2 0x4E0B JUMP JUMPDEST SWAP2 POP DUP2 SWAP1 POP SWAP3 SWAP2 POP POP JUMP JUMPDEST PUSH32 0x7265656E74727920726563616C6C2073686F756C64206661696C000000000000 PUSH0 DUP3 ADD MSTORE POP JUMP JUMPDEST PUSH0 PUSH2 0x4E85 PUSH1 0x1A DUP4 PUSH2 0x3802 JUMP JUMPDEST SWAP2 POP PUSH2 0x4E90 DUP3 PUSH2 0x4E51 JUMP JUMPDEST PUSH1 0x20 DUP3 ADD SWAP1 POP SWAP2 SWAP1 POP JUMP JUMPDEST PUSH0 PUSH1 0x40 DUP3 ADD SWAP1 POP PUSH2 0x4EAE PUSH0 DUP4 ADD DUP5 PUSH2 0x37F3 JUMP JUMPDEST DUP2 DUP2 SUB PUSH1 0x20 DUP4 ADD MSTORE PUSH2 0x4EBF DUP2 PUSH2 0x4E79 JUMP JUMPDEST SWAP1 POP SWAP3 SWAP2 POP POP JUMP JUMPDEST PUSH32 0x73686F756C646E7420616C6C6F77207472616E7366657220746F203020616464 PUSH0 DUP3 ADD MSTORE PUSH32 0x7265737300000000000000000000000000000000000000000000000000000000 PUSH1 0x20 DUP3 ADD MSTORE POP JUMP JUMPDEST PUSH0 PUSH2 0x4F21 PUSH1 0x24 DUP4 PUSH2 0x3802 JUMP JUMPDEST SWAP2 POP PUSH2 0x4F2C DUP3 PUSH2 0x4EC7 JUMP JUMPDEST PUSH1 0x40 DUP3 ADD SWAP1 POP SWAP2 SWAP1 POP JUMP JUMPDEST PUSH0 PUSH1 0x40 DUP3 ADD SWAP1 POP PUSH2 0x4F4A PUSH0 DUP4 ADD DUP5 PUSH2 0x37F3 JUMP JUMPDEST DUP2 DUP2 SUB PUSH1 0x20 DUP4 ADD MSTORE PUSH2 0x4F5B DUP2 PUSH2 0x4F15 JUMP JUMPDEST SWAP1 POP SWAP3 SWAP2 POP POP JUMP JUMPDEST PUSH32 0x426C6F636B65642072656769737465722070726F64756374207769746820656D PUSH0 DUP3 ADD MSTORE PUSH32 0x707479206E616D65000000000000000000000000000000000000000000000000 PUSH1 0x20 DUP3 ADD MSTORE POP JUMP JUMPDEST PUSH0 PUSH2 0x4FBD PUSH1 0x28 DUP4 PUSH2 0x3802 JUMP JUMPDEST SWAP2 POP PUSH2 0x4FC8 DUP3 PUSH2 0x4F63 JUMP JUMPDEST PUSH1 0x40 DUP3 ADD SWAP1 POP SWAP2 SWAP1 POP JUMP JUMPDEST PUSH0 PUSH1 0x40 DUP3 ADD SWAP1 POP PUSH2 0x4FE6 PUSH0 DUP4 ADD DUP5 PUSH2 0x37F3 JUMP JUMPDEST DUP2 DUP2 SUB PUSH1 0x20 DUP4 ADD MSTORE PUSH2 0x4FF7 DUP2 PUSH2 0x4FB1 JUMP JUMPDEST SWAP1 POP SWAP3 SWAP2 POP POP JUMP JUMPDEST PUSH32 0x656D707479206E616D652073686F756C646E7420626520616C6C6F7765640000 PUSH0 DUP3 ADD MSTORE POP JUMP JUMPDEST PUSH0 PUSH2 0x5033 PUSH1 0x1E DUP4 PUSH2 0x3802 JUMP JUMPDEST SWAP2 POP PUSH2 0x503E DUP3 PUSH2 0x4FFF JUMP JUMPDEST PUSH1 0x20 DUP3 ADD SWAP1 POP SWAP2 SWAP1 POP JUMP JUMPDEST PUSH0 PUSH1 0x40 DUP3 ADD SWAP1 POP PUSH2 0x505C PUSH0 DUP4 ADD DUP5 PUSH2 0x37F3 JUMP JUMPDEST DUP2 DUP2 SUB PUSH1 0x20 DUP4 ADD MSTORE PUSH2 0x506D DUP2 PUSH2 0x5027 JUMP JUMPDEST SWAP1 POP SWAP3 SWAP2 POP POP JUMP JUMPDEST PUSH0 DUP2 SWAP1 POP SWAP2 SWAP1 POP JUMP JUMPDEST PUSH0 PUSH2 0x5098 PUSH2 0x5093 PUSH2 0x508E DUP5 PUSH2 0x5075 JUMP JUMPDEST PUSH2 0x36C9 JUMP JUMPDEST PUSH2 0x4D45 JUMP JUMPDEST SWAP1 POP SWAP2 SWAP1 POP JUMP JUMPDEST PUSH2 0x50A8 DUP2 PUSH2 0x507E JUMP JUMPDEST DUP3 MSTORE POP POP JUMP JUMPDEST PUSH0 PUSH1 0x40 DUP3 ADD SWAP1 POP PUSH2 0x50C1 PUSH0 DUP4 ADD DUP6 PUSH2 0x509F JUMP JUMPDEST PUSH2 0x50CE PUSH1 0x20 DUP4 ADD DUP5 PUSH2 0x3732 JUMP JUMPDEST SWAP4 SWAP3 POP POP POP JUMP JUMPDEST PUSH32 0x496E76616C69642070726F6475637449642073686F756C64206661696C000000 PUSH0 DUP3 ADD MSTORE POP JUMP JUMPDEST PUSH0 PUSH2 0x5109 PUSH1 0x1D DUP4 PUSH2 0x3802 JUMP JUMPDEST SWAP2 POP PUSH2 0x5114 DUP3 PUSH2 0x50D5 JUMP JUMPDEST PUSH1 0x20 DUP3 ADD SWAP1 POP SWAP2 SWAP1 POP JUMP JUMPDEST PUSH0 PUSH1 0x40 DUP3 ADD SWAP1 POP PUSH2 0x5132 PUSH0 DUP4 ADD DUP5 PUSH2 0x37F3 JUMP JUMPDEST DUP2 DUP2 SUB PUSH1 0x20 DUP4 ADD MSTORE PUSH2 0x5143 DUP2 PUSH2 0x50FD JUMP JUMPDEST SWAP1 POP SWAP3 SWAP2 POP POP JUMP JUMPDEST PUSH32 0x6970686F6E656E6F646573630000000000000000000000000000000000000000 PUSH0 DUP3 ADD MSTORE POP JUMP JUMPDEST PUSH0 PUSH2 0x517F PUSH1 0xC DUP4 PUSH2 0x3741 JUMP JUMPDEST SWAP2 POP PUSH2 0x518A DUP3 PUSH2 0x514B JUMP JUMPDEST PUSH1 0x20 DUP3 ADD SWAP1 POP SWAP2 SWAP1 POP JUMP JUMPDEST POP JUMP JUMPDEST PUSH0 PUSH2 0x51A3 PUSH0 DUP4 PUSH2 0x3741 JUMP JUMPDEST SWAP2 POP PUSH2 0x51AE DUP3 PUSH2 0x5195 JUMP JUMPDEST PUSH0 DUP3 ADD SWAP1 POP SWAP2 SWAP1 POP JUMP JUMPDEST PUSH0 PUSH1 0x40 DUP3 ADD SWAP1 POP DUP2 DUP2 SUB PUSH0 DUP4 ADD MSTORE PUSH2 0x51CF DUP2 PUSH2 0x5173 JUMP JUMPDEST SWAP1 POP DUP2 DUP2 SUB PUSH1 0x20 DUP4 ADD MSTORE PUSH2 0x51E2 DUP2 PUSH2 0x5198 JUMP JUMPDEST SWAP1 POP SWAP2 SWAP1 POP JUMP JUMPDEST PUSH32 0x426C6F636B65642072656769737465722070726F64756374207769746820656D PUSH0 DUP3 ADD MSTORE PUSH32 0x707479206465736372697074696F6E0000000000000000000000000000000000 PUSH1 0x20 DUP3 ADD MSTORE POP JUMP JUMPDEST PUSH0 PUSH2 0x5243 PUSH1 0x2F DUP4 PUSH2 0x3802 JUMP JUMPDEST SWAP2 POP PUSH2 0x524E DUP3 PUSH2 0x51E9 JUMP JUMPDEST PUSH1 0x40 DUP3 ADD SWAP1 POP SWAP2 SWAP1 POP JUMP JUMPDEST PUSH0 PUSH1 0x40 DUP3 ADD SWAP1 POP PUSH2 0x526C PUSH0 DUP4 ADD DUP5 PUSH2 0x37F3 JUMP JUMPDEST DUP2 DUP2 SUB PUSH1 0x20 DUP4 ADD MSTORE PUSH2 0x527D DUP2 PUSH2 0x5237 JUMP JUMPDEST SWAP1 POP SWAP3 SWAP2 POP POP JUMP JUMPDEST PUSH32 0x656D707479206465736372697074696F6E2073686F756C646E7420626520616C PUSH0 DUP3 ADD MSTORE PUSH32 0x6C6F776564000000000000000000000000000000000000000000000000000000 PUSH1 0x20 DUP3 ADD MSTORE POP JUMP JUMPDEST PUSH0 PUSH2 0x52DF PUSH1 0x25 DUP4 PUSH2 0x3802 JUMP JUMPDEST SWAP2 POP PUSH2 0x52EA DUP3 PUSH2 0x5285 JUMP JUMPDEST PUSH1 0x40 DUP3 ADD SWAP1 POP SWAP2 SWAP1 POP JUMP JUMPDEST PUSH0 PUSH1 0x40 DUP3 ADD SWAP1 POP PUSH2 0x5308 PUSH0 DUP4 ADD DUP5 PUSH2 0x37F3 JUMP JUMPDEST DUP2 DUP2 SUB PUSH1 0x20 DUP4 ADD MSTORE PUSH2 0x5319 DUP2 PUSH2 0x52D3 JUMP JUMPDEST SWAP1 POP SWAP3 SWAP2 POP POP JUMP JUMPDEST PUSH0 PUSH1 0x80 DUP3 ADD SWAP1 POP PUSH2 0x5334 PUSH0 DUP4 ADD DUP6 PUSH2 0x36F3 JUMP JUMPDEST PUSH2 0x5341 PUSH1 0x20 DUP4 ADD DUP5 PUSH2 0x3732 JUMP JUMPDEST DUP2 DUP2 SUB PUSH1 0x40 DUP4 ADD MSTORE PUSH2 0x5352 DUP2 PUSH2 0x4515 JUMP JUMPDEST SWAP1 POP DUP2 DUP2 SUB PUSH1 0x60 DUP4 ADD MSTORE PUSH2 0x5365 DUP2 PUSH2 0x5198 JUMP JUMPDEST SWAP1 POP SWAP4 SWAP3 POP POP POP JUMP JUMPDEST PUSH2 0x5377 DUP2 PUSH2 0x36C0 JUMP JUMPDEST DUP3 MSTORE POP POP JUMP JUMPDEST PUSH32 0x62617463682073686F756C6420636F6E7461696E20322070726F647563747320 PUSH0 DUP3 ADD MSTORE PUSH32 0x6F6E6C7900000000000000000000000000000000000000000000000000000000 PUSH1 0x20 DUP3 ADD MSTORE POP JUMP JUMPDEST PUSH0 PUSH2 0x53D7 PUSH1 0x24 DUP4 PUSH2 0x3802 JUMP JUMPDEST SWAP2 POP PUSH2 0x53E2 DUP3 PUSH2 0x537D JUMP JUMPDEST PUSH1 0x40 DUP3 ADD SWAP1 POP SWAP2 SWAP1 POP JUMP JUMPDEST PUSH0 PUSH1 0x60 DUP3 ADD SWAP1 POP PUSH2 0x5400 PUSH0 DUP4 ADD DUP6 PUSH2 0x536E JUMP JUMPDEST PUSH2 0x540D PUSH1 0x20 DUP4 ADD DUP5 PUSH2 0x4CF5 JUMP JUMPDEST DUP2 DUP2 SUB PUSH1 0x40 DUP4 ADD MSTORE PUSH2 0x541E DUP2 PUSH2 0x53CB JUMP JUMPDEST SWAP1 POP SWAP4 SWAP3 POP POP POP JUMP JUMPDEST PUSH0 PUSH1 0x20 DUP3 DUP5 SUB SLT ISZERO PUSH2 0x543C JUMPI PUSH2 0x543B PUSH2 0x38B7 JUMP JUMPDEST JUMPDEST PUSH0 PUSH2 0x5449 DUP5 DUP3 DUP6 ADD PUSH2 0x405C JUMP JUMPDEST SWAP2 POP POP SWAP3 SWAP2 POP POP JUMP JUMPDEST PUSH32 0x746F74616C2070726F64756374732073686F756C6420626520332C2032206672 PUSH0 DUP3 ADD MSTORE PUSH32 0x6F6D20626174636820312066726F6D20696E646976696475616C000000000000 PUSH1 0x20 DUP3 ADD MSTORE POP JUMP JUMPDEST PUSH0 PUSH2 0x54AC PUSH1 0x3A DUP4 PUSH2 0x3802 JUMP JUMPDEST SWAP2 POP PUSH2 0x54B7 DUP3 PUSH2 0x5452 JUMP JUMPDEST PUSH1 0x40 DUP3 ADD SWAP1 POP SWAP2 SWAP1 POP JUMP JUMPDEST PUSH0 PUSH1 0x60 DUP3 ADD SWAP1 POP PUSH2 0x54D5 PUSH0 DUP4 ADD DUP6 PUSH2 0x536E JUMP JUMPDEST PUSH2 0x54E2 PUSH1 0x20 DUP4 ADD DUP5 PUSH2 0x4D1D JUMP JUMPDEST DUP2 DUP2 SUB PUSH1 0x40 DUP4 ADD MSTORE PUSH2 0x54F3 DUP2 PUSH2 0x54A0 JUMP JUMPDEST SWAP1 POP SWAP4 SWAP3 POP POP POP JUMP JUMPDEST PUSH32 0x6970686F6E653130000000000000000000000000000000000000000000000000 PUSH0 DUP3 ADD MSTORE POP JUMP JUMPDEST PUSH0 PUSH2 0x5530 PUSH1 0x8 DUP4 PUSH2 0x3741 JUMP JUMPDEST SWAP2 POP PUSH2 0x553B DUP3 PUSH2 0x54FC JUMP JUMPDEST PUSH1 0x20 DUP3 ADD SWAP1 POP SWAP2 SWAP1 POP JUMP JUMPDEST PUSH32 0x3130323447420000000000000000000000000000000000000000000000000000 PUSH0 DUP3 ADD MSTORE POP JUMP JUMPDEST PUSH0 PUSH2 0x557A PUSH1 0x6 DUP4 PUSH2 0x3741 JUMP JUMPDEST SWAP2 POP PUSH2 0x5585 DUP3 PUSH2 0x5546 JUMP JUMPDEST PUSH1 0x20 DUP3 ADD SWAP1 POP SWAP2 SWAP1 POP JUMP JUMPDEST PUSH0 PUSH1 0x40 DUP3 ADD SWAP1 POP DUP2 DUP2 SUB PUSH0 DUP4 ADD MSTORE PUSH2 0x55A7 DUP2 PUSH2 0x5524 JUMP JUMPDEST SWAP1 POP DUP2 DUP2 SUB PUSH1 0x20 DUP4 ADD MSTORE PUSH2 0x55BA DUP2 PUSH2 0x556E JUMP JUMPDEST SWAP1 POP SWAP2 SWAP1 POP JUMP JUMPDEST PUSH32 0x70726F6475637449642073686F756C6420626520310000000000000000000000 PUSH0 DUP3 ADD MSTORE POP JUMP JUMPDEST PUSH0 PUSH2 0x55F5 PUSH1 0x15 DUP4 PUSH2 0x3802 JUMP JUMPDEST SWAP2 POP PUSH2 0x5600 DUP3 PUSH2 0x55C1 JUMP JUMPDEST PUSH1 0x20 DUP3 ADD SWAP1 POP SWAP2 SWAP1 POP JUMP JUMPDEST PUSH0 PUSH1 0x60 DUP3 ADD SWAP1 POP PUSH2 0x561E PUSH0 DUP4 ADD DUP6 PUSH2 0x536E JUMP JUMPDEST PUSH2 0x562B PUSH1 0x20 DUP4 ADD DUP5 PUSH2 0x4CCD JUMP JUMPDEST DUP2 DUP2 SUB PUSH1 0x40 DUP4 ADD MSTORE PUSH2 0x563C DUP2 PUSH2 0x55E9 JUMP JUMPDEST SWAP1 POP SWAP4 SWAP3 POP POP POP JUMP JUMPDEST PUSH0 PUSH2 0x564F DUP3 PUSH2 0x4409 JUMP JUMPDEST PUSH2 0x5659 DUP2 DUP6 PUSH2 0x3802 JUMP JUMPDEST SWAP4 POP PUSH2 0x5669 DUP2 DUP6 PUSH1 0x20 DUP7 ADD PUSH2 0x4130 JUMP JUMPDEST PUSH2 0x5672 DUP2 PUSH2 0x4078 JUMP JUMPDEST DUP5 ADD SWAP2 POP POP SWAP3 SWAP2 POP POP JUMP JUMPDEST PUSH0 PUSH2 0x5689 PUSH1 0x8 DUP4 PUSH2 0x3802 JUMP JUMPDEST SWAP2 POP PUSH2 0x5694 DUP3 PUSH2 0x54FC JUMP JUMPDEST PUSH1 0x20 DUP3 ADD SWAP1 POP SWAP2 SWAP1 POP JUMP JUMPDEST PUSH32 0x70726F64756374206E616D65206D69736D617463680000000000000000000000 PUSH0 DUP3 ADD MSTORE POP JUMP JUMPDEST PUSH0 PUSH2 0x56D3 PUSH1 0x15 DUP4 PUSH2 0x3802 JUMP JUMPDEST SWAP2 POP PUSH2 0x56DE DUP3 PUSH2 0x569F JUMP JUMPDEST PUSH1 0x20 DUP3 ADD SWAP1 POP SWAP2 SWAP1 POP JUMP JUMPDEST PUSH0 PUSH1 0x60 DUP3 ADD SWAP1 POP DUP2 DUP2 SUB PUSH0 DUP4 ADD MSTORE PUSH2 0x5701 DUP2 DUP5 PUSH2 0x5645 JUMP JUMPDEST SWAP1 POP DUP2 DUP2 SUB PUSH1 0x20 DUP4 ADD MSTORE PUSH2 0x5714 DUP2 PUSH2 0x567D JUMP JUMPDEST SWAP1 POP DUP2 DUP2 SUB PUSH1 0x40 DUP4 ADD MSTORE PUSH2 0x5727 DUP2 PUSH2 0x56C7 JUMP JUMPDEST SWAP1 POP SWAP3 SWAP2 POP POP JUMP JUMPDEST PUSH32 0x73686F756C64206E6F7420626520726563616C6C656420796574000000000000 PUSH0 DUP3 ADD MSTORE POP JUMP JUMPDEST PUSH0 PUSH2 0x5763 PUSH1 0x1A DUP4 PUSH2 0x3802 JUMP JUMPDEST SWAP2 POP PUSH2 0x576E DUP3 PUSH2 0x572F JUMP JUMPDEST PUSH1 0x20 DUP3 ADD SWAP1 POP SWAP2 SWAP1 POP JUMP JUMPDEST PUSH0 PUSH1 0x40 DUP3 ADD SWAP1 POP PUSH2 0x578C PUSH0 DUP4 ADD DUP5 PUSH2 0x37F3 JUMP JUMPDEST DUP2 DUP2 SUB PUSH1 0x20 DUP4 ADD MSTORE PUSH2 0x579D DUP2 PUSH2 0x5757 JUMP JUMPDEST SWAP1 POP SWAP3 SWAP2 POP POP JUMP JUMPDEST PUSH32 0x7468697320696E646976696475616C207265672073686F756C64206F6E6C7920 PUSH0 DUP3 ADD MSTORE PUSH32 0x6861766520312070726F64756374206F6E6C7900000000000000000000000000 PUSH1 0x20 DUP3 ADD MSTORE POP JUMP JUMPDEST PUSH0 PUSH2 0x57FF PUSH1 0x33 DUP4 PUSH2 0x3802 JUMP JUMPDEST SWAP2 POP PUSH2 0x580A DUP3 PUSH2 0x57A5 JUMP JUMPDEST PUSH1 0x40 DUP3 ADD SWAP1 POP SWAP2 SWAP1 POP JUMP JUMPDEST PUSH0 PUSH1 0x60 DUP3 ADD SWAP1 POP PUSH2 0x5828 PUSH0 DUP4 ADD DUP6 PUSH2 0x536E JUMP JUMPDEST PUSH2 0x5835 PUSH1 0x20 DUP4 ADD DUP5 PUSH2 0x4CCD JUMP JUMPDEST DUP2 DUP2 SUB PUSH1 0x40 DUP4 ADD MSTORE PUSH2 0x5846 DUP2 PUSH2 0x57F3 JUMP JUMPDEST SWAP1 POP SWAP4 SWAP3 POP POP POP JUMP JUMPDEST PUSH32 0x6970686F6E656E6F6E616D650000000000000000000000000000000000000000 PUSH0 DUP3 ADD MSTORE POP JUMP JUMPDEST PUSH0 PUSH2 0x5883 PUSH1 0xC DUP4 PUSH2 0x3741 JUMP JUMPDEST SWAP2 POP PUSH2 0x588E DUP3 PUSH2 0x584F JUMP JUMPDEST PUSH1 0x20 DUP3 ADD SWAP1 POP SWAP2 SWAP1 POP JUMP JUMPDEST PUSH0 PUSH1 0x40 DUP3 ADD SWAP1 POP DUP2 DUP2 SUB PUSH0 DUP4 ADD MSTORE PUSH2 0x58B0 DUP2 PUSH2 0x5198 JUMP JUMPDEST SWAP1 POP DUP2 DUP2 SUB PUSH1 0x20 DUP4 ADD MSTORE PUSH2 0x58C3 DUP2 PUSH2 0x5877 JUMP JUMPDEST SWAP1 POP SWAP2 SWAP1 POP JUMP JUMPDEST PUSH0 DUP2 SWAP1 POP SWAP2 SWAP1 POP JUMP JUMPDEST PUSH0 PUSH2 0x58ED PUSH2 0x58E8 PUSH2 0x58E3 DUP5 PUSH2 0x58CA JUMP JUMPDEST PUSH2 0x36C9 JUMP JUMPDEST PUSH2 0x36C0 JUMP JUMPDEST SWAP1 POP SWAP2 SWAP1 POP JUMP JUMPDEST PUSH2 0x58FD DUP2 PUSH2 0x58D3 JUMP JUMPDEST DUP3 MSTORE POP POP JUMP JUMPDEST PUSH32 0x7465737420696E646920726563616C6C206E6F6E206578697374696E67207072 PUSH0 DUP3 ADD MSTORE PUSH32 0x6F64756374000000000000000000000000000000000000000000000000000000 PUSH1 0x20 DUP3 ADD MSTORE POP JUMP JUMPDEST PUSH0 PUSH2 0x595D PUSH1 0x25 DUP4 PUSH2 0x3741 JUMP JUMPDEST SWAP2 POP PUSH2 0x5968 DUP3 PUSH2 0x5903 JUMP JUMPDEST PUSH1 0x40 DUP3 ADD SWAP1 POP SWAP2 SWAP1 POP JUMP JUMPDEST PUSH0 PUSH1 0x40 DUP3 ADD SWAP1 POP PUSH2 0x5986 PUSH0 DUP4 ADD DUP5 PUSH2 0x58F4 JUMP JUMPDEST DUP2 DUP2 SUB PUSH1 0x20 DUP4 ADD MSTORE PUSH2 0x5997 DUP2 PUSH2 0x5951 JUMP JUMPDEST SWAP1 POP SWAP3 SWAP2 POP POP JUMP JUMPDEST PUSH32 0x426C6F636B656420726563616C6C206E6F6E6578697374696E672070726F6475 PUSH0 DUP3 ADD MSTORE PUSH32 0x6374000000000000000000000000000000000000000000000000000000000000 PUSH1 0x20 DUP3 ADD MSTORE POP JUMP JUMPDEST PUSH0 PUSH2 0x59F9 PUSH1 0x22 DUP4 PUSH2 0x3802 JUMP JUMPDEST SWAP2 POP PUSH2 0x5A04 DUP3 PUSH2 0x599F JUMP JUMPDEST PUSH1 0x40 DUP3 ADD SWAP1 POP SWAP2 SWAP1 POP JUMP JUMPDEST PUSH0 PUSH1 0x40 DUP3 ADD SWAP1 POP PUSH2 0x5A22 PUSH0 DUP4 ADD DUP5 PUSH2 0x37F3 JUMP JUMPDEST DUP2 DUP2 SUB PUSH1 0x20 DUP4 ADD MSTORE PUSH2 0x5A33 DUP2 PUSH2 0x59ED JUMP JUMPDEST SWAP1 POP SWAP3 SWAP2 POP POP JUMP JUMPDEST PUSH32 0x73686F756C646E7420616C6C6F7720726563616C6C206E6F6E6578697374696E PUSH0 DUP3 ADD MSTORE PUSH32 0x672070726F647563740000000000000000000000000000000000000000000000 PUSH1 0x20 DUP3 ADD MSTORE POP JUMP JUMPDEST PUSH0 PUSH2 0x5A95 PUSH1 0x29 DUP4 PUSH2 0x3802 JUMP JUMPDEST SWAP2 POP PUSH2 0x5AA0 DUP3 PUSH2 0x5A3B JUMP JUMPDEST PUSH1 0x40 DUP3 ADD SWAP1 POP SWAP2 SWAP1 POP JUMP JUMPDEST PUSH0 PUSH1 0x40 DUP3 ADD SWAP1 POP PUSH2 0x5ABE PUSH0 DUP4 ADD DUP5 PUSH2 0x37F3 JUMP JUMPDEST DUP2 DUP2 SUB PUSH1 0x20 DUP4 ADD MSTORE PUSH2 0x5ACF DUP2 PUSH2 0x5A89 JUMP JUMPDEST SWAP1 POP SWAP3 SWAP2 POP POP JUMP JUMPDEST PUSH32 0x73686F756C646E7420616C6C6F77207472616E7366657272696E6720746F2079 PUSH0 DUP3 ADD MSTORE PUSH32 0x6F757273656C6600000000000000000000000000000000000000000000000000 PUSH1 0x20 DUP3 ADD MSTORE POP JUMP JUMPDEST PUSH0 PUSH2 0x5B31 PUSH1 0x27 DUP4 PUSH2 0x3802 JUMP JUMPDEST SWAP2 POP PUSH2 0x5B3C DUP3 PUSH2 0x5AD7 JUMP JUMPDEST PUSH1 0x40 DUP3 ADD SWAP1 POP SWAP2 SWAP1 POP JUMP JUMPDEST PUSH0 PUSH1 0x40 DUP3 ADD SWAP1 POP PUSH2 0x5B5A PUSH0 DUP4 ADD DUP5 PUSH2 0x37F3 JUMP JUMPDEST DUP2 DUP2 SUB PUSH1 0x20 DUP4 ADD MSTORE PUSH2 0x5B6B DUP2 PUSH2 0x5B25 JUMP JUMPDEST SWAP1 POP SWAP3 SWAP2 POP POP JUMP JUMPDEST PUSH32 0x7465737420696E646920726563616C6C00000000000000000000000000000000 PUSH0 DUP3 ADD MSTORE POP JUMP JUMPDEST PUSH0 PUSH2 0x5BA7 PUSH1 0x10 DUP4 PUSH2 0x3741 JUMP JUMPDEST SWAP2 POP PUSH2 0x5BB2 DUP3 PUSH2 0x5B73 JUMP JUMPDEST PUSH1 0x20 DUP3 ADD SWAP1 POP SWAP2 SWAP1 POP JUMP JUMPDEST PUSH0 PUSH1 0x40 DUP3 ADD SWAP1 POP PUSH2 0x5BD0 PUSH0 DUP4 ADD DUP5 PUSH2 0x36F3 JUMP JUMPDEST DUP2 DUP2 SUB PUSH1 0x20 DUP4 ADD MSTORE PUSH2 0x5BE1 DUP2 PUSH2 0x5B9B JUMP JUMPDEST SWAP1 POP SWAP3 SWAP2 POP POP JUMP JUMPDEST PUSH32 0x696E646920726563616C6C206661696C65640000000000000000000000000000 PUSH0 DUP3 ADD MSTORE POP JUMP JUMPDEST PUSH0 PUSH2 0x5C1D PUSH1 0x12 DUP4 PUSH2 0x3802 JUMP JUMPDEST SWAP2 POP PUSH2 0x5C28 DUP3 PUSH2 0x5BE9 JUMP JUMPDEST PUSH1 0x20 DUP3 ADD SWAP1 POP SWAP2 SWAP1 POP JUMP JUMPDEST PUSH0 PUSH1 0x40 DUP3 ADD SWAP1 POP PUSH2 0x5C46 PUSH0 DUP4 ADD DUP5 PUSH2 0x37F3 JUMP JUMPDEST DUP2 DUP2 SUB PUSH1 0x20 DUP4 ADD MSTORE PUSH2 0x5C57 DUP2 PUSH2 0x5C11 JUMP JUMPDEST SWAP1 POP SWAP3 SWAP2 POP POP JUMP JUMPDEST PUSH32 0x4261746368207472616E73666572206661696C656420666F722070726F647563 PUSH0 DUP3 ADD MSTORE PUSH32 0x7420320000000000000000000000000000000000000000000000000000000000 PUSH1 0x20 DUP3 ADD MSTORE POP JUMP JUMPDEST PUSH0 PUSH2 0x5CB9 PUSH1 0x23 DUP4 PUSH2 0x3802 JUMP JUMPDEST SWAP2 POP PUSH2 0x5CC4 DUP3 PUSH2 0x5C5F JUMP JUMPDEST PUSH1 0x40 DUP3 ADD SWAP1 POP SWAP2 SWAP1 POP JUMP JUMPDEST PUSH0 PUSH1 0x60 DUP3 ADD SWAP1 POP PUSH2 0x5CE2 PUSH0 DUP4 ADD DUP6 PUSH2 0x4269 JUMP JUMPDEST PUSH2 0x5CEF PUSH1 0x20 DUP4 ADD DUP5 PUSH2 0x4269 JUMP JUMPDEST DUP2 DUP2 SUB PUSH1 0x40 DUP4 ADD MSTORE PUSH2 0x5D00 DUP2 PUSH2 0x5CAD JUMP JUMPDEST SWAP1 POP SWAP4 SWAP3 POP POP POP JUMP JUMPDEST PUSH32 0x4261746368207472616E73666572206661696C656420666F722070726F647563 PUSH0 DUP3 ADD MSTORE PUSH32 0x7420330000000000000000000000000000000000000000000000000000000000 PUSH1 0x20 DUP3 ADD MSTORE POP JUMP JUMPDEST PUSH0 PUSH2 0x5D63 PUSH1 0x23 DUP4 PUSH2 0x3802 JUMP JUMPDEST SWAP2 POP PUSH2 0x5D6E DUP3 PUSH2 0x5D09 JUMP JUMPDEST PUSH1 0x40 DUP3 ADD SWAP1 POP SWAP2 SWAP1 POP JUMP JUMPDEST PUSH0 PUSH1 0x60 DUP3 ADD SWAP1 POP PUSH2 0x5D8C PUSH0 DUP4 ADD DUP6 PUSH2 0x4269 JUMP JUMPDEST PUSH2 0x5D99 PUSH1 0x20 DUP4 ADD DUP5 PUSH2 0x4269 JUMP JUMPDEST DUP2 DUP2 SUB PUSH1 0x40 DUP4 ADD MSTORE PUSH2 0x5DAA DUP2 PUSH2 0x5D57 JUMP JUMPDEST SWAP1 POP SWAP4 SWAP3 POP POP POP JUMP INVALID PUSH1 0x80 PUSH1 0x40 MSTORE CALLVALUE DUP1 ISZERO PUSH2 0xF JUMPI PUSH0 DUP1 REVERT JUMPDEST POP CALLER PUSH0 DUP1 PUSH2 0x100 EXP DUP2 SLOAD DUP2 PUSH20 0xFFFFFFFFFFFFFFFFFFFFFFFFFFFFFFFFFFFFFFFF MUL NOT AND SWAP1 DUP4 PUSH20 0xFFFFFFFFFFFFFFFFFFFFFFFFFFFFFFFFFFFFFFFF AND MUL OR SWAP1 SSTORE POP PUSH0 PUSH1 0x1 DUP2 SWAP1 SSTORE POP PUSH0 PUSH1 0x2 DUP2 SWAP1 SSTORE POP PUSH1 0x1 PUSH1 0x3 PUSH0 CALLER PUSH20 0xFFFFFFFFFFFFFFFFFFFFFFFFFFFFFFFFFFFFFFFF AND PUSH20 0xFFFFFFFFFFFFFFFFFFFFFFFFFFFFFFFFFFFFFFFF AND DUP2 MSTORE PUSH1 0x20 ADD SWAP1 DUP2 MSTORE PUSH1 0x20 ADD PUSH0 KECCAK256 PUSH0 PUSH2 0x100 EXP DUP2 SLOAD DUP2 PUSH1 0xFF MUL NOT AND SWAP1 DUP4 ISZERO ISZERO MUL OR SWAP1 SSTORE POP CALLER PUSH20 0xFFFFFFFFFFFFFFFFFFFFFFFFFFFFFFFFFFFFFFFF AND PUSH32 0x3CBCBB9BA5A54D0762F39FD455FD2900FBCFCD0E0693E2C87DB13043C400B55F PUSH1 0x40 MLOAD PUSH1 0x40 MLOAD DUP1 SWAP2 SUB SWAP1 LOG2 PUSH2 0x46B1 DUP1 PUSH2 0x102 PUSH0 CODECOPY PUSH0 RETURN INVALID PUSH1 0x80 PUSH1 0x40 MSTORE CALLVALUE DUP1 ISZERO PUSH2 0xF JUMPI PUSH0 DUP1 REVERT JUMPDEST POP PUSH1 0x4 CALLDATASIZE LT PUSH2 0x11F JUMPI PUSH0 CALLDATALOAD PUSH1 0xE0 SHR DUP1 PUSH4 0x8FBD0DCF GT PUSH2 0xAB JUMPI DUP1 PUSH4 0xB9DB15B4 GT PUSH2 0x6F JUMPI DUP1 PUSH4 0xB9DB15B4 EQ PUSH2 0x34B JUMPI DUP1 PUSH4 0xC5F8D584 EQ PUSH2 0x37F JUMPI DUP1 PUSH4 0xCF9CD669 EQ PUSH2 0x39B JUMPI DUP1 PUSH4 0xE0F6EF87 EQ PUSH2 0x3CB JUMPI DUP1 PUSH4 0xF5F34413 EQ PUSH2 0x3E9 JUMPI PUSH2 0x11F JUMP JUMPDEST DUP1 PUSH4 0x8FBD0DCF EQ PUSH2 0x27F JUMPI DUP1 PUSH4 0x9CE0F973 EQ PUSH2 0x29B JUMPI DUP1 PUSH4 0x9FFAA71E EQ PUSH2 0x2B7 JUMPI DUP1 PUSH4 0xAF55ED64 EQ PUSH2 0x2E7 JUMPI DUP1 PUSH4 0xB32C4D8D EQ PUSH2 0x317 JUMPI PUSH2 0x11F JUMP JUMPDEST DUP1 PUSH4 0x7ACC0B20 GT PUSH2 0xF2 JUMPI DUP1 PUSH4 0x7ACC0B20 EQ PUSH2 0x1C4 JUMPI DUP1 PUSH4 0x86734E5B EQ PUSH2 0x1F9 JUMPI DUP1 PUSH4 0x86B0E812 EQ PUSH2 0x215 JUMPI DUP1 PUSH4 0x8D28230B EQ PUSH2 0x231 JUMPI DUP1 PUSH4 0x8DA5CB5B EQ PUSH2 0x261 JUMPI PUSH2 0x11F JUMP JUMPDEST DUP1 PUSH4 0x4341422 EQ PUSH2 0x123 JUMPI DUP1 PUSH4 0x6F13056 EQ PUSH2 0x13F JUMPI DUP1 PUSH4 0x3C9AF587 EQ PUSH2 0x15D JUMPI DUP1 PUSH4 0x5AC44282 EQ PUSH2 0x18D JUMPI JUMPDEST PUSH0 DUP1 REVERT JUMPDEST PUSH2 0x13D PUSH1 0x4 DUP1 CALLDATASIZE SUB DUP2 ADD SWAP1 PUSH2 0x138 SWAP2 SWAP1 PUSH2 0x2B9B JUMP JUMPDEST PUSH2 0x405 JUMP JUMPDEST STOP JUMPDEST PUSH2 0x147 PUSH2 0x5A1 JUMP JUMPDEST PUSH1 0x40 MLOAD PUSH2 0x154 SWAP2 SWAP1 PUSH2 0x2C04 JUMP JUMPDEST PUSH1 0x40 MLOAD DUP1 SWAP2 SUB SWAP1 RETURN JUMPDEST PUSH2 0x177 PUSH1 0x4 DUP1 CALLDATASIZE SUB DUP2 ADD SWAP1 PUSH2 0x172 SWAP2 SWAP1 PUSH2 0x2C1D JUMP JUMPDEST PUSH2 0x5A7 JUMP JUMPDEST PUSH1 0x40 MLOAD PUSH2 0x184 SWAP2 SWAP1 PUSH2 0x2C62 JUMP JUMPDEST PUSH1 0x40 MLOAD DUP1 SWAP2 SUB SWAP1 RETURN JUMPDEST PUSH2 0x1A7 PUSH1 0x4 DUP1 CALLDATASIZE SUB DUP2 ADD SWAP1 PUSH2 0x1A2 SWAP2 SWAP1 PUSH2 0x2C1D JUMP JUMPDEST PUSH2 0x7BE JUMP JUMPDEST PUSH1 0x40 MLOAD PUSH2 0x1BB SWAP9 SWAP8 SWAP7 SWAP6 SWAP5 SWAP4 SWAP3 SWAP2 SWAP1 PUSH2 0x2ED4 JUMP JUMPDEST PUSH1 0x40 MLOAD DUP1 SWAP2 SUB SWAP1 RETURN JUMPDEST PUSH2 0x1DE PUSH1 0x4 DUP1 CALLDATASIZE SUB DUP2 ADD SWAP1 PUSH2 0x1D9 SWAP2 SWAP1 PUSH2 0x2C1D JUMP JUMPDEST PUSH2 0xB3C JUMP JUMPDEST PUSH1 0x40 MLOAD PUSH2 0x1F0 SWAP7 SWAP6 SWAP5 SWAP4 SWAP3 SWAP2 SWAP1 PUSH2 0x2F6C JUMP JUMPDEST PUSH1 0x40 MLOAD DUP1 SWAP2 SUB SWAP1 RETURN JUMPDEST PUSH2 0x213 PUSH1 0x4 DUP1 CALLDATASIZE SUB DUP2 ADD SWAP1 PUSH2 0x20E SWAP2 SWAP1 PUSH2 0x3003 JUMP JUMPDEST PUSH2 0xCAB JUMP JUMPDEST STOP JUMPDEST PUSH2 0x22F PUSH1 0x4 DUP1 CALLDATASIZE SUB DUP2 ADD SWAP1 PUSH2 0x22A SWAP2 SWAP1 PUSH2 0x309F JUMP JUMPDEST PUSH2 0x159E JUMP JUMPDEST STOP JUMPDEST PUSH2 0x24B PUSH1 0x4 DUP1 CALLDATASIZE SUB DUP2 ADD SWAP1 PUSH2 0x246 SWAP2 SWAP1 PUSH2 0x30DD JUMP JUMPDEST PUSH2 0x1972 JUMP JUMPDEST PUSH1 0x40 MLOAD PUSH2 0x258 SWAP2 SWAP1 PUSH2 0x2C62 JUMP JUMPDEST PUSH1 0x40 MLOAD DUP1 SWAP2 SUB SWAP1 RETURN JUMPDEST PUSH2 0x269 PUSH2 0x198F JUMP JUMPDEST PUSH1 0x40 MLOAD PUSH2 0x276 SWAP2 SWAP1 PUSH2 0x3108 JUMP JUMPDEST PUSH1 0x40 MLOAD DUP1 SWAP2 SUB SWAP1 RETURN JUMPDEST PUSH2 0x299 PUSH1 0x4 DUP1 CALLDATASIZE SUB DUP2 ADD SWAP1 PUSH2 0x294 SWAP2 SWAP1 PUSH2 0x3121 JUMP JUMPDEST PUSH2 0x19B2 JUMP JUMPDEST STOP JUMPDEST PUSH2 0x2B5 PUSH1 0x4 DUP1 CALLDATASIZE SUB DUP2 ADD SWAP1 PUSH2 0x2B0 SWAP2 SWAP1 PUSH2 0x2B9B JUMP JUMPDEST PUSH2 0x1C4D JUMP JUMPDEST STOP JUMPDEST PUSH2 0x2D1 PUSH1 0x4 DUP1 CALLDATASIZE SUB DUP2 ADD SWAP1 PUSH2 0x2CC SWAP2 SWAP1 PUSH2 0x2C1D JUMP JUMPDEST PUSH2 0x1DE7 JUMP JUMPDEST PUSH1 0x40 MLOAD PUSH2 0x2DE SWAP2 SWAP1 PUSH2 0x2C62 JUMP JUMPDEST PUSH1 0x40 MLOAD DUP1 SWAP2 SUB SWAP1 RETURN JUMPDEST PUSH2 0x301 PUSH1 0x4 DUP1 CALLDATASIZE SUB DUP2 ADD SWAP1 PUSH2 0x2FC SWAP2 SWAP1 PUSH2 0x2C1D JUMP JUMPDEST PUSH2 0x1E15 JUMP JUMPDEST PUSH1 0x40 MLOAD PUSH2 0x30E SWAP2 SWAP1 PUSH2 0x2C62 JUMP JUMPDEST PUSH1 0x40 MLOAD DUP1 SWAP2 SUB SWAP1 RETURN JUMPDEST PUSH2 0x331 PUSH1 0x4 DUP1 CALLDATASIZE SUB DUP2 ADD SWAP1 PUSH2 0x32C SWAP2 SWAP1 PUSH2 0x2C1D JUMP JUMPDEST PUSH2 0x1E66 JUMP JUMPDEST PUSH1 0x40 MLOAD PUSH2 0x342 SWAP6 SWAP5 SWAP4 SWAP3 SWAP2 SWAP1 PUSH2 0x3197 JUMP JUMPDEST PUSH1 0x40 MLOAD DUP1 SWAP2 SUB SWAP1 RETURN JUMPDEST PUSH2 0x365 PUSH1 0x4 DUP1 CALLDATASIZE SUB DUP2 ADD SWAP1 PUSH2 0x360 SWAP2 SWAP1 PUSH2 0x2C1D JUMP JUMPDEST PUSH2 0x1F4A JUMP JUMPDEST PUSH1 0x40 MLOAD PUSH2 0x376 SWAP6 SWAP5 SWAP4 SWAP3 SWAP2 SWAP1 PUSH2 0x31EF JUMP JUMPDEST PUSH1 0x40 MLOAD DUP1 SWAP2 SUB SWAP1 RETURN JUMPDEST PUSH2 0x399 PUSH1 0x4 DUP1 CALLDATASIZE SUB DUP2 ADD SWAP1 PUSH2 0x394 SWAP2 SWAP1 PUSH2 0x30DD JUMP JUMPDEST PUSH2 0x213D JUMP JUMPDEST STOP JUMPDEST PUSH2 0x3B5 PUSH1 0x4 DUP1 CALLDATASIZE SUB DUP2 ADD SWAP1 PUSH2 0x3B0 SWAP2 SWAP1 PUSH2 0x2C1D JUMP JUMPDEST PUSH2 0x235D JUMP JUMPDEST PUSH1 0x40 MLOAD PUSH2 0x3C2 SWAP2 SWAP1 PUSH2 0x3247 JUMP JUMPDEST PUSH1 0x40 MLOAD DUP1 SWAP2 SUB SWAP1 RETURN JUMPDEST PUSH2 0x3D3 PUSH2 0x2434 JUMP JUMPDEST PUSH1 0x40 MLOAD PUSH2 0x3E0 SWAP2 SWAP1 PUSH2 0x2C04 JUMP JUMPDEST PUSH1 0x40 MLOAD DUP1 SWAP2 SUB SWAP1 RETURN JUMPDEST PUSH2 0x403 PUSH1 0x4 DUP1 CALLDATASIZE SUB DUP2 ADD SWAP1 PUSH2 0x3FE SWAP2 SWAP1 PUSH2 0x3409 JUMP JUMPDEST PUSH2 0x243A JUMP JUMPDEST STOP JUMPDEST PUSH1 0x3 PUSH0 CALLER PUSH20 0xFFFFFFFFFFFFFFFFFFFFFFFFFFFFFFFFFFFFFFFF AND PUSH20 0xFFFFFFFFFFFFFFFFFFFFFFFFFFFFFFFFFFFFFFFF AND DUP2 MSTORE PUSH1 0x20 ADD SWAP1 DUP2 MSTORE PUSH1 0x20 ADD PUSH0 KECCAK256 PUSH0 SWAP1 SLOAD SWAP1 PUSH2 0x100 EXP SWAP1 DIV PUSH1 0xFF AND PUSH2 0x48E JUMPI PUSH1 0x40 MLOAD PUSH32 0x8C379A000000000000000000000000000000000000000000000000000000000 DUP2 MSTORE PUSH1 0x4 ADD PUSH2 0x485 SWAP1 PUSH2 0x3527 JUMP JUMPDEST PUSH1 0x40 MLOAD DUP1 SWAP2 SUB SWAP1 REVERT JUMPDEST PUSH2 0x497 DUP3 PUSH2 0x1DE7 JUMP JUMPDEST PUSH2 0x4D6 JUMPI PUSH1 0x40 MLOAD PUSH32 0x8C379A000000000000000000000000000000000000000000000000000000000 DUP2 MSTORE PUSH1 0x4 ADD PUSH2 0x4CD SWAP1 PUSH2 0x358F JUMP JUMPDEST PUSH1 0x40 MLOAD DUP1 SWAP2 SUB SWAP1 REVERT JUMPDEST PUSH0 PUSH1 0x5 PUSH0 DUP5 DUP2 MSTORE PUSH1 0x20 ADD SWAP1 DUP2 MSTORE PUSH1 0x20 ADD PUSH0 KECCAK256 SWAP1 POP DUP1 PUSH1 0x5 ADD PUSH0 SWAP1 SLOAD SWAP1 PUSH2 0x100 EXP SWAP1 DIV PUSH1 0xFF AND ISZERO PUSH2 0x53B JUMPI PUSH1 0x40 MLOAD PUSH32 0x8C379A000000000000000000000000000000000000000000000000000000000 DUP2 MSTORE PUSH1 0x4 ADD PUSH2 0x532 SWAP1 PUSH2 0x35F7 JUMP JUMPDEST PUSH1 0x40 MLOAD DUP1 SWAP2 SUB SWAP1 REVERT JUMPDEST PUSH0 JUMPDEST DUP2 PUSH0 ADD DUP1 SLOAD SWAP1 POP DUP2 LT ISZERO PUSH2 0x57F JUMPI PUSH2 0x572 DUP3 PUSH0 ADD DUP3 DUP2 SLOAD DUP2 LT PUSH2 0x563 JUMPI PUSH2 0x562 PUSH2 0x3615 JUMP JUMPDEST JUMPDEST SWAP1 PUSH0 MSTORE PUSH1 0x20 PUSH0 KECCAK256 ADD SLOAD DUP5 PUSH2 0x1C4D JUMP JUMPDEST DUP1 DUP1 PUSH1 0x1 ADD SWAP2 POP POP PUSH2 0x53D JUMP JUMPDEST POP PUSH1 0x1 DUP2 PUSH1 0x5 ADD PUSH0 PUSH2 0x100 EXP DUP2 SLOAD DUP2 PUSH1 0xFF MUL NOT AND SWAP1 DUP4 ISZERO ISZERO MUL OR SWAP1 SSTORE POP POP POP POP JUMP JUMPDEST PUSH1 0x2 SLOAD DUP2 JUMP JUMPDEST PUSH0 PUSH2 0x5B1 DUP3 PUSH2 0x1E15 JUMP JUMPDEST PUSH2 0x5F0 JUMPI PUSH1 0x40 MLOAD PUSH32 0x8C379A000000000000000000000000000000000000000000000000000000000 DUP2 MSTORE PUSH1 0x4 ADD PUSH2 0x5E7 SWAP1 PUSH2 0x368C JUMP JUMPDEST PUSH1 0x40 MLOAD DUP1 SWAP2 SUB SWAP1 REVERT JUMPDEST PUSH0 PUSH1 0x4 PUSH0 DUP5 DUP2 MSTORE PUSH1 0x20 ADD SWAP1 DUP2 MSTORE PUSH1 0x20 ADD PUSH0 KECCAK256 PUSH1 0x40 MLOAD DUP1 PUSH1 0xC0 ADD PUSH1 0x40 MSTORE SWAP1 DUP2 PUSH0 DUP3 ADD SLOAD DUP2 MSTORE PUSH1 0x20 ADD PUSH1 0x1 DUP3 ADD DUP1 SLOAD PUSH2 0x626 SWAP1 PUSH2 0x36D7 JUMP JUMPDEST DUP1 PUSH1 0x1F ADD PUSH1 0x20 DUP1 SWAP2 DIV MUL PUSH1 0x20 ADD PUSH1 0x40 MLOAD SWAP1 DUP2 ADD PUSH1 0x40 MSTORE DUP1 SWAP3 SWAP2 SWAP1 DUP2 DUP2 MSTORE PUSH1 0x20 ADD DUP3 DUP1 SLOAD PUSH2 0x652 SWAP1 PUSH2 0x36D7 JUMP JUMPDEST DUP1 ISZERO PUSH2 0x69D JUMPI DUP1 PUSH1 0x1F LT PUSH2 0x674 JUMPI PUSH2 0x100 DUP1 DUP4 SLOAD DIV MUL DUP4 MSTORE SWAP2 PUSH1 0x20 ADD SWAP2 PUSH2 0x69D JUMP JUMPDEST DUP3 ADD SWAP2 SWAP1 PUSH0 MSTORE PUSH1 0x20 PUSH0 KECCAK256 SWAP1 JUMPDEST DUP2 SLOAD DUP2 MSTORE SWAP1 PUSH1 0x1 ADD SWAP1 PUSH1 0x20 ADD DUP1 DUP4 GT PUSH2 0x680 JUMPI DUP3 SWAP1 SUB PUSH1 0x1F AND DUP3 ADD SWAP2 JUMPDEST POP POP POP POP POP DUP2 MSTORE PUSH1 0x20 ADD PUSH1 0x2 DUP3 ADD DUP1 SLOAD PUSH2 0x6B6 SWAP1 PUSH2 0x36D7 JUMP JUMPDEST DUP1 PUSH1 0x1F ADD PUSH1 0x20 DUP1 SWAP2 DIV MUL PUSH1 0x20 ADD PUSH1 0x40 MLOAD SWAP1 DUP2 ADD PUSH1 0x40 MSTORE DUP1 SWAP3 SWAP2 SWAP1 DUP2 DUP2 MSTORE PUSH1 0x20 ADD DUP3 DUP1 SLOAD PUSH2 0x6E2 SWAP1 PUSH2 0x36D7 JUMP JUMPDEST DUP1 ISZERO PUSH2 0x72D JUMPI DUP1 PUSH1 0x1F LT PUSH2 0x704 JUMPI PUSH2 0x100 DUP1 DUP4 SLOAD DIV MUL DUP4 MSTORE SWAP2 PUSH1 0x20 ADD SWAP2 PUSH2 0x72D JUMP JUMPDEST DUP3 ADD SWAP2 SWAP1 PUSH0 MSTORE PUSH1 0x20 PUSH0 KECCAK256 SWAP1 JUMPDEST DUP2 SLOAD DUP2 MSTORE SWAP1 PUSH1 0x1 ADD SWAP1 PUSH1 0x20 ADD DUP1 DUP4 GT PUSH2 0x710 JUMPI DUP3 SWAP1 SUB PUSH1 0x1F AND DUP3 ADD SWAP2 JUMPDEST POP POP POP POP POP DUP2 MSTORE PUSH1 0x20 ADD PUSH1 0x3 DUP3 ADD PUSH0 SWAP1 SLOAD SWAP1 PUSH2 0x100 EXP SWAP1 DIV PUSH20 0xFFFFFFFFFFFFFFFFFFFFFFFFFFFFFFFFFFFFFFFF AND PUSH20 0xFFFFFFFFFFFFFFFFFFFFFFFFFFFFFFFFFFFFFFFF AND PUSH20 0xFFFFFFFFFFFFFFFFFFFFFFFFFFFFFFFFFFFFFFFF AND DUP2 MSTORE PUSH1 0x20 ADD PUSH1 0x4 DUP3 ADD SLOAD DUP2 MSTORE PUSH1 0x20 ADD PUSH1 0x5 DUP3 ADD PUSH0 SWAP1 SLOAD SWAP1 PUSH2 0x100 EXP SWAP1 DIV PUSH1 0xFF AND ISZERO ISZERO ISZERO ISZERO DUP2 MSTORE POP POP SWAP1 POP DUP1 PUSH1 0xA0 ADD MLOAD SWAP2 POP POP SWAP2 SWAP1 POP JUMP JUMPDEST PUSH1 0x60 DUP1 PUSH1 0x60 PUSH0 DUP1 PUSH0 DUP1 PUSH1 0x60 PUSH0 PUSH1 0x5 PUSH0 DUP12 DUP2 MSTORE PUSH1 0x20 ADD SWAP1 DUP2 MSTORE PUSH1 0x20 ADD PUSH0 KECCAK256 PUSH1 0x40 MLOAD DUP1 PUSH2 0x100 ADD PUSH1 0x40 MSTORE SWAP1 DUP2 PUSH0 DUP3 ADD DUP1 SLOAD DUP1 PUSH1 0x20 MUL PUSH1 0x20 ADD PUSH1 0x40 MLOAD SWAP1 DUP2 ADD PUSH1 0x40 MSTORE DUP1 SWAP3 SWAP2 SWAP1 DUP2 DUP2 MSTORE PUSH1 0x20 ADD DUP3 DUP1 SLOAD DUP1 ISZERO PUSH2 0x833 JUMPI PUSH1 0x20 MUL DUP3 ADD SWAP2 SWAP1 PUSH0 MSTORE PUSH1 0x20 PUSH0 KECCAK256 SWAP1 JUMPDEST DUP2 SLOAD DUP2 MSTORE PUSH1 0x20 ADD SWAP1 PUSH1 0x1 ADD SWAP1 DUP1 DUP4 GT PUSH2 0x81F JUMPI JUMPDEST POP POP POP POP POP DUP2 MSTORE PUSH1 0x20 ADD PUSH1 0x1 DUP3 ADD DUP1 SLOAD DUP1 PUSH1 0x20 MUL PUSH1 0x20 ADD PUSH1 0x40 MLOAD SWAP1 DUP2 ADD PUSH1 0x40 MSTORE DUP1 SWAP3 SWAP2 SWAP1 DUP2 DUP2 MSTORE PUSH1 0x20 ADD PUSH0 SWAP1 JUMPDEST DUP3 DUP3 LT ISZERO PUSH2 0x908 JUMPI DUP4 DUP3 SWAP1 PUSH0 MSTORE PUSH1 0x20 PUSH0 KECCAK256 ADD DUP1 SLOAD PUSH2 0x87D SWAP1 PUSH2 0x36D7 JUMP JUMPDEST DUP1 PUSH1 0x1F ADD PUSH1 0x20 DUP1 SWAP2 DIV MUL PUSH1 0x20 ADD PUSH1 0x40 MLOAD SWAP1 DUP2 ADD PUSH1 0x40 MSTORE DUP1 SWAP3 SWAP2 SWAP1 DUP2 DUP2 MSTORE PUSH1 0x20 ADD DUP3 DUP1 SLOAD PUSH2 0x8A9 SWAP1 PUSH2 0x36D7 JUMP JUMPDEST DUP1 ISZERO PUSH2 0x8F4 JUMPI DUP1 PUSH1 0x1F LT PUSH2 0x8CB JUMPI PUSH2 0x100 DUP1 DUP4 SLOAD DIV MUL DUP4 MSTORE SWAP2 PUSH1 0x20 ADD SWAP2 PUSH2 0x8F4 JUMP JUMPDEST DUP3 ADD SWAP2 SWAP1 PUSH0 MSTORE PUSH1 0x20 PUSH0 KECCAK256 SWAP1 JUMPDEST DUP2 SLOAD DUP2 MSTORE SWAP1 PUSH1 0x1 ADD SWAP1 PUSH1 0x20 ADD DUP1 DUP4 GT PUSH2 0x8D7 JUMPI DUP3 SWAP1 SUB PUSH1 0x1F AND DUP3 ADD SWAP2 JUMPDEST POP POP POP POP POP DUP2 MSTORE PUSH1 0x20 ADD SWAP1 PUSH1 0x1 ADD SWAP1 PUSH2 0x860 JUMP JUMPDEST POP POP POP POP DUP2 MSTORE PUSH1 0x20 ADD PUSH1 0x2 DUP3 ADD DUP1 SLOAD DUP1 PUSH1 0x20 MUL PUSH1 0x20 ADD PUSH1 0x40 MLOAD SWAP1 DUP2 ADD PUSH1 0x40 MSTORE DUP1 SWAP3 SWAP2 SWAP1 DUP2 DUP2 MSTORE PUSH1 0x20 ADD PUSH0 SWAP1 JUMPDEST DUP3 DUP3 LT ISZERO PUSH2 0x9DC JUMPI DUP4 DUP3 SWAP1 PUSH0 MSTORE PUSH1 0x20 PUSH0 KECCAK256 ADD DUP1 SLOAD PUSH2 0x951 SWAP1 PUSH2 0x36D7 JUMP JUMPDEST DUP1 PUSH1 0x1F ADD PUSH1 0x20 DUP1 SWAP2 DIV MUL PUSH1 0x20 ADD PUSH1 0x40 MLOAD SWAP1 DUP2 ADD PUSH1 0x40 MSTORE DUP1 SWAP3 SWAP2 SWAP1 DUP2 DUP2 MSTORE PUSH1 0x20 ADD DUP3 DUP1 SLOAD PUSH2 0x97D SWAP1 PUSH2 0x36D7 JUMP JUMPDEST DUP1 ISZERO PUSH2 0x9C8 JUMPI DUP1 PUSH1 0x1F LT PUSH2 0x99F JUMPI PUSH2 0x100 DUP1 DUP4 SLOAD DIV MUL DUP4 MSTORE SWAP2 PUSH1 0x20 ADD SWAP2 PUSH2 0x9C8 JUMP JUMPDEST DUP3 ADD SWAP2 SWAP1 PUSH0 MSTORE PUSH1 0x20 PUSH0 KECCAK256 SWAP1 JUMPDEST DUP2 SLOAD DUP2 MSTORE SWAP1 PUSH1 0x1 ADD SWAP1 PUSH1 0x20 ADD DUP1 DUP4 GT PUSH2 0x9AB JUMPI DUP3 SWAP1 SUB PUSH1 0x1F AND DUP3 ADD SWAP2 JUMPDEST POP POP POP POP POP DUP2 MSTORE PUSH1 0x20 ADD SWAP1 PUSH1 0x1 ADD SWAP1 PUSH2 0x934 JUMP JUMPDEST POP POP POP POP DUP2 MSTORE PUSH1 0x20 ADD PUSH1 0x3 DUP3 ADD PUSH0 SWAP1 SLOAD SWAP1 PUSH2 0x100 EXP SWAP1 DIV PUSH20 0xFFFFFFFFFFFFFFFFFFFFFFFFFFFFFFFFFFFFFFFF AND PUSH20 0xFFFFFFFFFFFFFFFFFFFFFFFFFFFFFFFFFFFFFFFF AND PUSH20 0xFFFFFFFFFFFFFFFFFFFFFFFFFFFFFFFFFFFFFFFF AND DUP2 MSTORE PUSH1 0x20 ADD PUSH1 0x4 DUP3 ADD SLOAD DUP2 MSTORE PUSH1 0x20 ADD PUSH1 0x5 DUP3 ADD PUSH0 SWAP1 SLOAD SWAP1 PUSH2 0x100 EXP SWAP1 DIV PUSH1 0xFF AND ISZERO ISZERO ISZERO ISZERO DUP2 MSTORE PUSH1 0x20 ADD PUSH1 0x6 DUP3 ADD SLOAD DUP2 MSTORE PUSH1 0x20 ADD PUSH1 0x7 DUP3 ADD DUP1 SLOAD PUSH2 0xA77 SWAP1 PUSH2 0x36D7 JUMP JUMPDEST DUP1 PUSH1 0x1F ADD PUSH1 0x20 DUP1 SWAP2 DIV MUL PUSH1 0x20 ADD PUSH1 0x40 MLOAD SWAP1 DUP2 ADD PUSH1 0x40 MSTORE DUP1 SWAP3 SWAP2 SWAP1 DUP2 DUP2 MSTORE PUSH1 0x20 ADD DUP3 DUP1 SLOAD PUSH2 0xAA3 SWAP1 PUSH2 0x36D7 JUMP JUMPDEST DUP1 ISZERO PUSH2 0xAEE JUMPI DUP1 PUSH1 0x1F LT PUSH2 0xAC5 JUMPI PUSH2 0x100 DUP1 DUP4 SLOAD DIV MUL DUP4 MSTORE SWAP2 PUSH1 0x20 ADD SWAP2 PUSH2 0xAEE JUMP JUMPDEST DUP3 ADD SWAP2 SWAP1 PUSH0 MSTORE PUSH1 0x20 PUSH0 KECCAK256 SWAP1 JUMPDEST DUP2 SLOAD DUP2 MSTORE SWAP1 PUSH1 0x1 ADD SWAP1 PUSH1 0x20 ADD DUP1 DUP4 GT PUSH2 0xAD1 JUMPI DUP3 SWAP1 SUB PUSH1 0x1F AND DUP3 ADD SWAP2 JUMPDEST POP POP POP POP POP DUP2 MSTORE POP POP SWAP1 POP DUP1 PUSH0 ADD MLOAD DUP2 PUSH1 0x20 ADD MLOAD DUP3 PUSH1 0x40 ADD MLOAD DUP4 PUSH1 0x60 ADD MLOAD DUP5 PUSH1 0x80 ADD MLOAD DUP6 PUSH1 0xA0 ADD MLOAD DUP7 PUSH1 0xC0 ADD MLOAD DUP8 PUSH1 0xE0 ADD MLOAD SWAP9 POP SWAP9 POP SWAP9 POP SWAP9 POP SWAP9 POP SWAP9 POP SWAP9 POP SWAP9 POP POP SWAP2 SWAP4 SWAP6 SWAP8 POP SWAP2 SWAP4 SWAP6 SWAP8 JUMP JUMPDEST PUSH1 0x4 PUSH1 0x20 MSTORE DUP1 PUSH0 MSTORE PUSH1 0x40 PUSH0 KECCAK256 PUSH0 SWAP2 POP SWAP1 POP DUP1 PUSH0 ADD SLOAD SWAP1 DUP1 PUSH1 0x1 ADD DUP1 SLOAD PUSH2 0xB61 SWAP1 PUSH2 0x36D7 JUMP JUMPDEST DUP1 PUSH1 0x1F ADD PUSH1 0x20 DUP1 SWAP2 DIV MUL PUSH1 0x20 ADD PUSH1 0x40 MLOAD SWAP1 DUP2 ADD PUSH1 0x40 MSTORE DUP1 SWAP3 SWAP2 SWAP1 DUP2 DUP2 MSTORE PUSH1 0x20 ADD DUP3 DUP1 SLOAD PUSH2 0xB8D SWAP1 PUSH2 0x36D7 JUMP JUMPDEST DUP1 ISZERO PUSH2 0xBD8 JUMPI DUP1 PUSH1 0x1F LT PUSH2 0xBAF JUMPI PUSH2 0x100 DUP1 DUP4 SLOAD DIV MUL DUP4 MSTORE SWAP2 PUSH1 0x20 ADD SWAP2 PUSH2 0xBD8 JUMP JUMPDEST DUP3 ADD SWAP2 SWAP1 PUSH0 MSTORE PUSH1 0x20 PUSH0 KECCAK256 SWAP1 JUMPDEST DUP2 SLOAD DUP2 MSTORE SWAP1 PUSH1 0x1 ADD SWAP1 PUSH1 0x20 ADD DUP1 DUP4 GT PUSH2 0xBBB JUMPI DUP3 SWAP1 SUB PUSH1 0x1F AND DUP3 ADD SWAP2 JUMPDEST POP POP POP POP POP SWAP1 DUP1 PUSH1 0x2 ADD DUP1 SLOAD PUSH2 0xBED SWAP1 PUSH2 0x36D7 JUMP JUMPDEST DUP1 PUSH1 0x1F ADD PUSH1 0x20 DUP1 SWAP2 DIV MUL PUSH1 0x20 ADD PUSH1 0x40 MLOAD SWAP1 DUP2 ADD PUSH1 0x40 MSTORE DUP1 SWAP3 SWAP2 SWAP1 DUP2 DUP2 MSTORE PUSH1 0x20 ADD DUP3 DUP1 SLOAD PUSH2 0xC19 SWAP1 PUSH2 0x36D7 JUMP JUMPDEST DUP1 ISZERO PUSH2 0xC64 JUMPI DUP1 PUSH1 0x1F LT PUSH2 0xC3B JUMPI PUSH2 0x100 DUP1 DUP4 SLOAD DIV MUL DUP4 MSTORE SWAP2 PUSH1 0x20 ADD SWAP2 PUSH2 0xC64 JUMP JUMPDEST DUP3 ADD SWAP2 SWAP1 PUSH0 MSTORE PUSH1 0x20 PUSH0 KECCAK256 SWAP1 JUMPDEST DUP2 SLOAD DUP2 MSTORE SWAP1 PUSH1 0x1 ADD SWAP1 PUSH1 0x20 ADD DUP1 DUP4 GT PUSH2 0xC47 JUMPI DUP3 SWAP1 SUB PUSH1 0x1F AND DUP3 ADD SWAP2 JUMPDEST POP POP POP POP POP SWAP1 DUP1 PUSH1 0x3 ADD PUSH0 SWAP1 SLOAD SWAP1 PUSH2 0x100 EXP SWAP1 DIV PUSH20 0xFFFFFFFFFFFFFFFFFFFFFFFFFFFFFFFFFFFFFFFF AND SWAP1 DUP1 PUSH1 0x4 ADD SLOAD SWAP1 DUP1 PUSH1 0x5 ADD PUSH0 SWAP1 SLOAD SWAP1 PUSH2 0x100 EXP SWAP1 DIV PUSH1 0xFF AND SWAP1 POP DUP7 JUMP JUMPDEST PUSH1 0x3 PUSH0 CALLER PUSH20 0xFFFFFFFFFFFFFFFFFFFFFFFFFFFFFFFFFFFFFFFF AND PUSH20 0xFFFFFFFFFFFFFFFFFFFFFFFFFFFFFFFFFFFFFFFF AND DUP2 MSTORE PUSH1 0x20 ADD SWAP1 DUP2 MSTORE PUSH1 0x20 ADD PUSH0 KECCAK256 PUSH0 SWAP1 SLOAD SWAP1 PUSH2 0x100 EXP SWAP1 DIV PUSH1 0xFF AND PUSH2 0xD34 JUMPI PUSH1 0x40 MLOAD PUSH32 0x8C379A000000000000000000000000000000000000000000000000000000000 DUP2 MSTORE PUSH1 0x4 ADD PUSH2 0xD2B SWAP1 PUSH2 0x3527 JUMP JUMPDEST PUSH1 0x40 MLOAD DUP1 SWAP2 SUB SWAP1 REVERT JUMPDEST PUSH0 PUSH1 0x5 PUSH0 DUP7 DUP2 MSTORE PUSH1 0x20 ADD SWAP1 DUP2 MSTORE PUSH1 0x20 ADD PUSH0 KECCAK256 PUSH1 0x6 ADD SLOAD SUB PUSH2 0xD8A JUMPI PUSH1 0x40 MLOAD PUSH32 0x8C379A000000000000000000000000000000000000000000000000000000000 DUP2 MSTORE PUSH1 0x4 ADD PUSH2 0xD81 SWAP1 PUSH2 0x358F JUMP JUMPDEST PUSH1 0x40 MLOAD DUP1 SWAP2 SUB SWAP1 REVERT JUMPDEST PUSH1 0x5 PUSH0 DUP6 DUP2 MSTORE PUSH1 0x20 ADD SWAP1 DUP2 MSTORE PUSH1 0x20 ADD PUSH0 KECCAK256 PUSH1 0x5 ADD PUSH0 SWAP1 SLOAD SWAP1 PUSH2 0x100 EXP SWAP1 DIV PUSH1 0xFF AND ISZERO PUSH2 0xDEB JUMPI PUSH1 0x40 MLOAD PUSH32 0x8C379A000000000000000000000000000000000000000000000000000000000 DUP2 MSTORE PUSH1 0x4 ADD PUSH2 0xDE2 SWAP1 PUSH2 0x3751 JUMP JUMPDEST PUSH1 0x40 MLOAD DUP1 SWAP2 SUB SWAP1 REVERT JUMPDEST PUSH0 PUSH20 0xFFFFFFFFFFFFFFFFFFFFFFFFFFFFFFFFFFFFFFFF AND DUP4 PUSH20 0xFFFFFFFFFFFFFFFFFFFFFFFFFFFFFFFFFFFFFFFF AND SUB PUSH2 0xE59 JUMPI PUSH1 0x40 MLOAD PUSH32 0x8C379A000000000000000000000000000000000000000000000000000000000 DUP2 MSTORE PUSH1 0x4 ADD PUSH2 0xE50 SWAP1 PUSH2 0x37B9 JUMP JUMPDEST PUSH1 0x40 MLOAD DUP1 SWAP2 SUB SWAP1 REVERT JUMPDEST PUSH1 0x40 MLOAD PUSH1 0x20 ADD PUSH2 0xE68 SWAP1 PUSH2 0x382B JUMP JUMPDEST PUSH1 0x40 MLOAD PUSH1 0x20 DUP2 DUP4 SUB SUB DUP2 MSTORE SWAP1 PUSH1 0x40 MSTORE DUP1 MLOAD SWAP1 PUSH1 0x20 ADD KECCAK256 DUP3 PUSH1 0x40 MLOAD PUSH1 0x20 ADD PUSH2 0xE8F SWAP2 SWAP1 PUSH2 0x386F JUMP JUMPDEST PUSH1 0x40 MLOAD PUSH1 0x20 DUP2 DUP4 SUB SUB DUP2 MSTORE SWAP1 PUSH1 0x40 MSTORE DUP1 MLOAD SWAP1 PUSH1 0x20 ADD KECCAK256 SUB PUSH2 0x12E1 JUMPI PUSH0 PUSH1 0x5 PUSH0 DUP7 DUP2 MSTORE PUSH1 0x20 ADD SWAP1 DUP2 MSTORE PUSH1 0x20 ADD PUSH0 KECCAK256 PUSH0 ADD DUP1 SLOAD SWAP1 POP EQ PUSH2 0xF02 JUMPI PUSH1 0x40 MLOAD PUSH32 0x8C379A000000000000000000000000000000000000000000000000000000000 DUP2 MSTORE PUSH1 0x4 ADD PUSH2 0xEF9 SWAP1 PUSH2 0x38F5 JUMP JUMPDEST PUSH1 0x40 MLOAD DUP1 SWAP2 SUB SWAP1 REVERT JUMPDEST PUSH0 PUSH1 0x5 PUSH0 DUP7 DUP2 MSTORE PUSH1 0x20 ADD SWAP1 DUP2 MSTORE PUSH1 0x20 ADD PUSH0 KECCAK256 PUSH1 0x1 ADD DUP1 SLOAD SWAP1 POP PUSH8 0xFFFFFFFFFFFFFFFF DUP2 GT ISZERO PUSH2 0xF34 JUMPI PUSH2 0xF33 PUSH2 0x2A77 JUMP JUMPDEST JUMPDEST PUSH1 0x40 MLOAD SWAP1 DUP1 DUP3 MSTORE DUP1 PUSH1 0x20 MUL PUSH1 0x20 ADD DUP3 ADD PUSH1 0x40 MSTORE DUP1 ISZERO PUSH2 0xF62 JUMPI DUP2 PUSH1 0x20 ADD PUSH1 0x20 DUP3 MUL DUP1 CALLDATASIZE DUP4 CALLDATACOPY DUP1 DUP3 ADD SWAP2 POP POP SWAP1 POP JUMPDEST POP SWAP1 POP PUSH0 JUMPDEST PUSH1 0x5 PUSH0 DUP8 DUP2 MSTORE PUSH1 0x20 ADD SWAP1 DUP2 MSTORE PUSH1 0x20 ADD PUSH0 KECCAK256 PUSH1 0x1 ADD DUP1 SLOAD SWAP1 POP DUP2 LT ISZERO PUSH2 0x12B2 JUMPI PUSH1 0x1 PUSH0 DUP2 SLOAD DUP1 SWAP3 SWAP2 SWAP1 PUSH2 0xF98 SWAP1 PUSH2 0x3940 JUMP JUMPDEST SWAP2 SWAP1 POP SSTORE POP PUSH1 0x1 SLOAD DUP3 DUP3 DUP2 MLOAD DUP2 LT PUSH2 0xFB3 JUMPI PUSH2 0xFB2 PUSH2 0x3615 JUMP JUMPDEST JUMPDEST PUSH1 0x20 MUL PUSH1 0x20 ADD ADD DUP2 DUP2 MSTORE POP POP PUSH1 0x40 MLOAD DUP1 PUSH1 0xC0 ADD PUSH1 0x40 MSTORE DUP1 PUSH1 0x1 SLOAD DUP2 MSTORE PUSH1 0x20 ADD PUSH1 0x5 PUSH0 DUP10 DUP2 MSTORE PUSH1 0x20 ADD SWAP1 DUP2 MSTORE PUSH1 0x20 ADD PUSH0 KECCAK256 PUSH1 0x1 ADD DUP4 DUP2 SLOAD DUP2 LT PUSH2 0xFF8 JUMPI PUSH2 0xFF7 PUSH2 0x3615 JUMP JUMPDEST JUMPDEST SWAP1 PUSH0 MSTORE PUSH1 0x20 PUSH0 KECCAK256 ADD DUP1 SLOAD PUSH2 0x100B SWAP1 PUSH2 0x36D7 JUMP JUMPDEST DUP1 PUSH1 0x1F ADD PUSH1 0x20 DUP1 SWAP2 DIV MUL PUSH1 0x20 ADD PUSH1 0x40 MLOAD SWAP1 DUP2 ADD PUSH1 0x40 MSTORE DUP1 SWAP3 SWAP2 SWAP1 DUP2 DUP2 MSTORE PUSH1 0x20 ADD DUP3 DUP1 SLOAD PUSH2 0x1037 SWAP1 PUSH2 0x36D7 JUMP JUMPDEST DUP1 ISZERO PUSH2 0x1082 JUMPI DUP1 PUSH1 0x1F LT PUSH2 0x1059 JUMPI PUSH2 0x100 DUP1 DUP4 SLOAD DIV MUL DUP4 MSTORE SWAP2 PUSH1 0x20 ADD SWAP2 PUSH2 0x1082 JUMP JUMPDEST DUP3 ADD SWAP2 SWAP1 PUSH0 MSTORE PUSH1 0x20 PUSH0 KECCAK256 SWAP1 JUMPDEST DUP2 SLOAD DUP2 MSTORE SWAP1 PUSH1 0x1 ADD SWAP1 PUSH1 0x20 ADD DUP1 DUP4 GT PUSH2 0x1065 JUMPI DUP3 SWAP1 SUB PUSH1 0x1F AND DUP3 ADD SWAP2 JUMPDEST POP POP POP POP POP DUP2 MSTORE PUSH1 0x20 ADD PUSH1 0x5 PUSH0 DUP10 DUP2 MSTORE PUSH1 0x20 ADD SWAP1 DUP2 MSTORE PUSH1 0x20 ADD PUSH0 KECCAK256 PUSH1 0x2 ADD DUP4 DUP2 SLOAD DUP2 LT PUSH2 0x10B2 JUMPI PUSH2 0x10B1 PUSH2 0x3615 JUMP JUMPDEST JUMPDEST SWAP1 PUSH0 MSTORE PUSH1 0x20 PUSH0 KECCAK256 ADD DUP1 SLOAD PUSH2 0x10C5 SWAP1 PUSH2 0x36D7 JUMP JUMPDEST DUP1 PUSH1 0x1F ADD PUSH1 0x20 DUP1 SWAP2 DIV MUL PUSH1 0x20 ADD PUSH1 0x40 MLOAD SWAP1 DUP2 ADD PUSH1 0x40 MSTORE DUP1 SWAP3 SWAP2 SWAP1 DUP2 DUP2 MSTORE PUSH1 0x20 ADD DUP3 DUP1 SLOAD PUSH2 0x10F1 SWAP1 PUSH2 0x36D7 JUMP JUMPDEST DUP1 ISZERO PUSH2 0x113C JUMPI DUP1 PUSH1 0x1F LT PUSH2 0x1113 JUMPI PUSH2 0x100 DUP1 DUP4 SLOAD DIV MUL DUP4 MSTORE SWAP2 PUSH1 0x20 ADD SWAP2 PUSH2 0x113C JUMP JUMPDEST DUP3 ADD SWAP2 SWAP1 PUSH0 MSTORE PUSH1 0x20 PUSH0 KECCAK256 SWAP1 JUMPDEST DUP2 SLOAD DUP2 MSTORE SWAP1 PUSH1 0x1 ADD SWAP1 PUSH1 0x20 ADD DUP1 DUP4 GT PUSH2 0x111F JUMPI DUP3 SWAP1 SUB PUSH1 0x1F AND DUP3 ADD SWAP2 JUMPDEST POP POP POP POP POP DUP2 MSTORE PUSH1 0x20 ADD DUP7 PUSH20 0xFFFFFFFFFFFFFFFFFFFFFFFFFFFFFFFFFFFFFFFF AND DUP2 MSTORE PUSH1 0x20 ADD TIMESTAMP DUP2 MSTORE PUSH1 0x20 ADD PUSH0 ISZERO ISZERO DUP2 MSTORE POP PUSH1 0x4 PUSH0 PUSH1 0x1 SLOAD DUP2 MSTORE PUSH1 0x20 ADD SWAP1 DUP2 MSTORE PUSH1 0x20 ADD PUSH0 KECCAK256 PUSH0 DUP3 ADD MLOAD DUP2 PUSH0 ADD SSTORE PUSH1 0x20 DUP3 ADD MLOAD DUP2 PUSH1 0x1 ADD SWAP1 DUP2 PUSH2 0x119E SWAP2 SWAP1 PUSH2 0x3B24 JUMP JUMPDEST POP PUSH1 0x40 DUP3 ADD MLOAD DUP2 PUSH1 0x2 ADD SWAP1 DUP2 PUSH2 0x11B4 SWAP2 SWAP1 PUSH2 0x3B24 JUMP JUMPDEST POP PUSH1 0x60 DUP3 ADD MLOAD DUP2 PUSH1 0x3 ADD PUSH0 PUSH2 0x100 EXP DUP2 SLOAD DUP2 PUSH20 0xFFFFFFFFFFFFFFFFFFFFFFFFFFFFFFFFFFFFFFFF MUL NOT AND SWAP1 DUP4 PUSH20 0xFFFFFFFFFFFFFFFFFFFFFFFFFFFFFFFFFFFFFFFF AND MUL OR SWAP1 SSTORE POP PUSH1 0x80 DUP3 ADD MLOAD DUP2 PUSH1 0x4 ADD SSTORE PUSH1 0xA0 DUP3 ADD MLOAD DUP2 PUSH1 0x5 ADD PUSH0 PUSH2 0x100 EXP DUP2 SLOAD DUP2 PUSH1 0xFF MUL NOT AND SWAP1 DUP4 ISZERO ISZERO MUL OR SWAP1 SSTORE POP SWAP1 POP POP DUP5 PUSH20 0xFFFFFFFFFFFFFFFFFFFFFFFFFFFFFFFFFFFFFFFF AND PUSH1 0x1 SLOAD PUSH32 0xCAB8542FAD5393D8A674AE5BB9094C309E41FDF2BF941B1D4A44FB4A790FF1C PUSH1 0x5 PUSH0 DUP11 DUP2 MSTORE PUSH1 0x20 ADD SWAP1 DUP2 MSTORE PUSH1 0x20 ADD PUSH0 KECCAK256 PUSH1 0x1 ADD DUP5 DUP2 SLOAD DUP2 LT PUSH2 0x1288 JUMPI PUSH2 0x1287 PUSH2 0x3615 JUMP JUMPDEST JUMPDEST SWAP1 PUSH0 MSTORE PUSH1 0x20 PUSH0 KECCAK256 ADD PUSH1 0x40 MLOAD PUSH2 0x129D SWAP2 SWAP1 PUSH2 0x3C74 JUMP JUMPDEST PUSH1 0x40 MLOAD DUP1 SWAP2 SUB SWAP1 LOG3 DUP1 DUP1 PUSH1 0x1 ADD SWAP2 POP POP PUSH2 0xF67 JUMP JUMPDEST POP DUP1 PUSH1 0x5 PUSH0 DUP8 DUP2 MSTORE PUSH1 0x20 ADD SWAP1 DUP2 MSTORE PUSH1 0x20 ADD PUSH0 KECCAK256 PUSH0 ADD SWAP1 DUP1 MLOAD SWAP1 PUSH1 0x20 ADD SWAP1 PUSH2 0x12DA SWAP3 SWAP2 SWAP1 PUSH2 0x28FE JUMP JUMPDEST POP POP PUSH2 0x154D JUMP JUMPDEST PUSH1 0x40 MLOAD PUSH1 0x20 ADD PUSH2 0x12F0 SWAP1 PUSH2 0x3CDE JUMP JUMPDEST PUSH1 0x40 MLOAD PUSH1 0x20 DUP2 DUP4 SUB SUB DUP2 MSTORE SWAP1 PUSH1 0x40 MSTORE DUP1 MLOAD SWAP1 PUSH1 0x20 ADD KECCAK256 DUP3 PUSH1 0x40 MLOAD PUSH1 0x20 ADD PUSH2 0x1317 SWAP2 SWAP1 PUSH2 0x386F JUMP JUMPDEST PUSH1 0x40 MLOAD PUSH1 0x20 DUP2 DUP4 SUB SUB DUP2 MSTORE SWAP1 PUSH1 0x40 MSTORE DUP1 MLOAD SWAP1 PUSH1 0x20 ADD KECCAK256 SUB PUSH2 0x1478 JUMPI PUSH0 JUMPDEST PUSH1 0x5 PUSH0 DUP7 DUP2 MSTORE PUSH1 0x20 ADD SWAP1 DUP2 MSTORE PUSH1 0x20 ADD PUSH0 KECCAK256 PUSH0 ADD DUP1 SLOAD SWAP1 POP DUP2 LT ISZERO PUSH2 0x1396 JUMPI PUSH2 0x1389 PUSH1 0x5 PUSH0 DUP8 DUP2 MSTORE PUSH1 0x20 ADD SWAP1 DUP2 MSTORE PUSH1 0x20 ADD PUSH0 KECCAK256 PUSH0 ADD DUP3 DUP2 SLOAD DUP2 LT PUSH2 0x137A JUMPI PUSH2 0x1379 PUSH2 0x3615 JUMP JUMPDEST JUMPDEST SWAP1 PUSH0 MSTORE PUSH1 0x20 PUSH0 KECCAK256 ADD SLOAD DUP6 PUSH2 0x159E JUMP JUMPDEST DUP1 DUP1 PUSH1 0x1 ADD SWAP2 POP POP PUSH2 0x1334 JUMP JUMPDEST POP PUSH0 PUSH1 0x5 PUSH0 DUP7 DUP2 MSTORE PUSH1 0x20 ADD SWAP1 DUP2 MSTORE PUSH1 0x20 ADD PUSH0 KECCAK256 PUSH1 0x3 ADD PUSH0 SWAP1 SLOAD SWAP1 PUSH2 0x100 EXP SWAP1 DIV PUSH20 0xFFFFFFFFFFFFFFFFFFFFFFFFFFFFFFFFFFFFFFFF AND SWAP1 POP TIMESTAMP PUSH1 0x5 PUSH0 DUP8 DUP2 MSTORE PUSH1 0x20 ADD SWAP1 DUP2 MSTORE PUSH1 0x20 ADD PUSH0 KECCAK256 PUSH1 0x4 ADD DUP2 SWAP1 SSTORE POP DUP4 PUSH1 0x5 PUSH0 DUP8 DUP2 MSTORE PUSH1 0x20 ADD SWAP1 DUP2 MSTORE PUSH1 0x20 ADD PUSH0 KECCAK256 PUSH1 0x3 ADD PUSH0 PUSH2 0x100 EXP DUP2 SLOAD DUP2 PUSH20 0xFFFFFFFFFFFFFFFFFFFFFFFFFFFFFFFFFFFFFFFF MUL NOT AND SWAP1 DUP4 PUSH20 0xFFFFFFFFFFFFFFFFFFFFFFFFFFFFFFFFFFFFFFFF AND MUL OR SWAP1 SSTORE POP PUSH32 0x68E04257B55466AD5273799AC2B8D9D926B5E87D7F301E15EA0D73C8D7F3EE4C DUP2 DUP6 PUSH1 0x40 MLOAD PUSH2 0x146A SWAP3 SWAP2 SWAP1 PUSH2 0x3CF2 JUMP JUMPDEST PUSH1 0x40 MLOAD DUP1 SWAP2 SUB SWAP1 LOG1 POP PUSH2 0x154C JUMP JUMPDEST PUSH1 0x40 MLOAD PUSH1 0x20 ADD PUSH2 0x1487 SWAP1 PUSH2 0x3D63 JUMP JUMPDEST PUSH1 0x40 MLOAD PUSH1 0x20 DUP2 DUP4 SUB SUB DUP2 MSTORE SWAP1 PUSH1 0x40 MSTORE DUP1 MLOAD SWAP1 PUSH1 0x20 ADD KECCAK256 DUP3 PUSH1 0x40 MLOAD PUSH1 0x20 ADD PUSH2 0x14AE SWAP2 SWAP1 PUSH2 0x386F JUMP JUMPDEST PUSH1 0x40 MLOAD PUSH1 0x20 DUP2 DUP4 SUB SUB DUP2 MSTORE SWAP1 PUSH1 0x40 MSTORE DUP1 MLOAD SWAP1 PUSH1 0x20 ADD KECCAK256 SUB PUSH2 0x1510 JUMPI PUSH2 0x14D3 DUP5 DUP3 PUSH2 0x405 JUMP JUMPDEST DUP4 PUSH32 0x8F8994662430CBB3A0B089F812F1C51F46EF020E2CCC019CEE8988C3312B4A66 DUP3 PUSH1 0x40 MLOAD PUSH2 0x1503 SWAP2 SWAP1 PUSH2 0x3247 JUMP JUMPDEST PUSH1 0x40 MLOAD DUP1 SWAP2 SUB SWAP1 LOG2 PUSH2 0x154B JUMP JUMPDEST PUSH1 0x40 MLOAD PUSH32 0x8C379A000000000000000000000000000000000000000000000000000000000 DUP2 MSTORE PUSH1 0x4 ADD PUSH2 0x1542 SWAP1 PUSH2 0x3DC1 JUMP JUMPDEST PUSH1 0x40 MLOAD DUP1 SWAP2 SUB SWAP1 REVERT JUMPDEST JUMPDEST JUMPDEST DUP4 PUSH32 0x603489D1E5E10E7B7393A68B1707E0B98E7976704197482DC200A6B34674B54A PUSH1 0x5 PUSH0 DUP8 DUP2 MSTORE PUSH1 0x20 ADD SWAP1 DUP2 MSTORE PUSH1 0x20 ADD PUSH0 KECCAK256 PUSH1 0x7 ADD PUSH1 0x40 MLOAD PUSH2 0x1590 SWAP2 SWAP1 PUSH2 0x3C74 JUMP JUMPDEST PUSH1 0x40 MLOAD DUP1 SWAP2 SUB SWAP1 LOG2 POP POP POP POP JUMP JUMPDEST PUSH1 0x3 PUSH0 CALLER PUSH20 0xFFFFFFFFFFFFFFFFFFFFFFFFFFFFFFFFFFFFFFFF AND PUSH20 0xFFFFFFFFFFFFFFFFFFFFFFFFFFFFFFFFFFFFFFFF AND DUP2 MSTORE PUSH1 0x20 ADD SWAP1 DUP2 MSTORE PUSH1 0x20 ADD PUSH0 KECCAK256 PUSH0 SWAP1 SLOAD SWAP1 PUSH2 0x100 EXP SWAP1 DIV PUSH1 0xFF AND PUSH2 0x1627 JUMPI PUSH1 0x40 MLOAD PUSH32 0x8C379A000000000000000000000000000000000000000000000000000000000 DUP2 MSTORE PUSH1 0x4 ADD PUSH2 0x161E SWAP1 PUSH2 0x3527 JUMP JUMPDEST PUSH1 0x40 MLOAD DUP1 SWAP2 SUB SWAP1 REVERT JUMPDEST PUSH0 DUP3 GT DUP1 ISZERO PUSH2 0x1638 JUMPI POP PUSH1 0x1 SLOAD DUP3 GT ISZERO JUMPDEST PUSH2 0x1677 JUMPI PUSH1 0x40 MLOAD PUSH32 0x8C379A000000000000000000000000000000000000000000000000000000000 DUP2 MSTORE PUSH1 0x4 ADD PUSH2 0x166E SWAP1 PUSH2 0x3E29 JUMP JUMPDEST PUSH1 0x40 MLOAD DUP1 SWAP2 SUB SWAP1 REVERT JUMPDEST PUSH1 0x4 PUSH0 DUP4 DUP2 MSTORE PUSH1 0x20 ADD SWAP1 DUP2 MSTORE PUSH1 0x20 ADD PUSH0 KECCAK256 PUSH1 0x5 ADD PUSH0 SWAP1 SLOAD SWAP1 PUSH2 0x100 EXP SWAP1 DIV PUSH1 0xFF AND ISZERO PUSH2 0x16D8 JUMPI PUSH1 0x40 MLOAD PUSH32 0x8C379A000000000000000000000000000000000000000000000000000000000 DUP2 MSTORE PUSH1 0x4 ADD PUSH2 0x16CF SWAP1 PUSH2 0x3EB7 JUMP JUMPDEST PUSH1 0x40 MLOAD DUP1 SWAP2 SUB SWAP1 REVERT JUMPDEST PUSH0 PUSH20 0xFFFFFFFFFFFFFFFFFFFFFFFFFFFFFFFFFFFFFFFF AND DUP2 PUSH20 0xFFFFFFFFFFFFFFFFFFFFFFFFFFFFFFFFFFFFFFFF AND SUB PUSH2 0x1746 JUMPI PUSH1 0x40 MLOAD PUSH32 0x8C379A000000000000000000000000000000000000000000000000000000000 DUP2 MSTORE PUSH1 0x4 ADD PUSH2 0x173D SWAP1 PUSH2 0x3F1F JUMP JUMPDEST PUSH1 0x40 MLOAD DUP1 SWAP2 SUB SWAP1 REVERT JUMPDEST PUSH1 0x3 PUSH0 DUP3 PUSH20 0xFFFFFFFFFFFFFFFFFFFFFFFFFFFFFFFFFFFFFFFF AND PUSH20 0xFFFFFFFFFFFFFFFFFFFFFFFFFFFFFFFFFFFFFFFF AND DUP2 MSTORE PUSH1 0x20 ADD SWAP1 DUP2 MSTORE PUSH1 0x20 ADD PUSH0 KECCAK256 PUSH0 SWAP1 SLOAD SWAP1 PUSH2 0x100 EXP SWAP1 DIV PUSH1 0xFF AND PUSH2 0x17CF JUMPI PUSH1 0x40 MLOAD PUSH32 0x8C379A000000000000000000000000000000000000000000000000000000000 DUP2 MSTORE PUSH1 0x4 ADD PUSH2 0x17C6 SWAP1 PUSH2 0x3F87 JUMP JUMPDEST PUSH1 0x40 MLOAD DUP1 SWAP2 SUB SWAP1 REVERT JUMPDEST CALLER PUSH20 0xFFFFFFFFFFFFFFFFFFFFFFFFFFFFFFFFFFFFFFFF AND PUSH1 0x4 PUSH0 DUP5 DUP2 MSTORE PUSH1 0x20 ADD SWAP1 DUP2 MSTORE PUSH1 0x20 ADD PUSH0 KECCAK256 PUSH1 0x3 ADD PUSH0 SWAP1 SLOAD SWAP1 PUSH2 0x100 EXP SWAP1 DIV PUSH20 0xFFFFFFFFFFFFFFFFFFFFFFFFFFFFFFFFFFFFFFFF AND PUSH20 0xFFFFFFFFFFFFFFFFFFFFFFFFFFFFFFFFFFFFFFFF AND EQ PUSH2 0x1870 JUMPI PUSH1 0x40 MLOAD PUSH32 0x8C379A000000000000000000000000000000000000000000000000000000000 DUP2 MSTORE PUSH1 0x4 ADD PUSH2 0x1867 SWAP1 PUSH2 0x3FEF JUMP JUMPDEST PUSH1 0x40 MLOAD DUP1 SWAP2 SUB SWAP1 REVERT JUMPDEST PUSH0 PUSH1 0x4 PUSH0 DUP5 DUP2 MSTORE PUSH1 0x20 ADD SWAP1 DUP2 MSTORE PUSH1 0x20 ADD PUSH0 KECCAK256 PUSH1 0x3 ADD PUSH0 SWAP1 SLOAD SWAP1 PUSH2 0x100 EXP SWAP1 DIV PUSH20 0xFFFFFFFFFFFFFFFFFFFFFFFFFFFFFFFFFFFFFFFF AND SWAP1 POP DUP2 PUSH1 0x4 PUSH0 DUP6 DUP2 MSTORE PUSH1 0x20 ADD SWAP1 DUP2 MSTORE PUSH1 0x20 ADD PUSH0 KECCAK256 PUSH1 0x3 ADD PUSH0 PUSH2 0x100 EXP DUP2 SLOAD DUP2 PUSH20 0xFFFFFFFFFFFFFFFFFFFFFFFFFFFFFFFFFFFFFFFF MUL NOT AND SWAP1 DUP4 PUSH20 0xFFFFFFFFFFFFFFFFFFFFFFFFFFFFFFFFFFFFFFFF AND MUL OR SWAP1 SSTORE POP TIMESTAMP PUSH1 0x4 PUSH0 DUP6 DUP2 MSTORE PUSH1 0x20 ADD SWAP1 DUP2 MSTORE PUSH1 0x20 ADD PUSH0 KECCAK256 PUSH1 0x4 ADD DUP2 SWAP1 SSTORE POP DUP2 PUSH20 0xFFFFFFFFFFFFFFFFFFFFFFFFFFFFFFFFFFFFFFFF AND DUP2 PUSH20 0xFFFFFFFFFFFFFFFFFFFFFFFFFFFFFFFFFFFFFFFF AND DUP5 PUSH32 0x16B85F49BF01212961345D3016C9A531894ACCF62EB7680F2045D79185CC0EC0 PUSH1 0x40 MLOAD PUSH1 0x40 MLOAD DUP1 SWAP2 SUB SWAP1 LOG4 POP POP POP JUMP JUMPDEST PUSH1 0x3 PUSH1 0x20 MSTORE DUP1 PUSH0 MSTORE PUSH1 0x40 PUSH0 KECCAK256 PUSH0 SWAP2 POP SLOAD SWAP1 PUSH2 0x100 EXP SWAP1 DIV PUSH1 0xFF AND DUP2 JUMP JUMPDEST PUSH0 DUP1 SLOAD SWAP1 PUSH2 0x100 EXP SWAP1 DIV PUSH20 0xFFFFFFFFFFFFFFFFFFFFFFFFFFFFFFFFFFFFFFFF AND DUP2 JUMP JUMPDEST PUSH1 0x3 PUSH0 CALLER PUSH20 0xFFFFFFFFFFFFFFFFFFFFFFFFFFFFFFFFFFFFFFFF AND PUSH20 0xFFFFFFFFFFFFFFFFFFFFFFFFFFFFFFFFFFFFFFFF AND DUP2 MSTORE PUSH1 0x20 ADD SWAP1 DUP2 MSTORE PUSH1 0x20 ADD PUSH0 KECCAK256 PUSH0 SWAP1 SLOAD SWAP1 PUSH2 0x100 EXP SWAP1 DIV PUSH1 0xFF AND PUSH2 0x1A3B JUMPI PUSH1 0x40 MLOAD PUSH32 0x8C379A000000000000000000000000000000000000000000000000000000000 DUP2 MSTORE PUSH1 0x4 ADD PUSH2 0x1A32 SWAP1 PUSH2 0x3527 JUMP JUMPDEST PUSH1 0x40 MLOAD DUP1 SWAP2 SUB SWAP1 REVERT JUMPDEST PUSH0 DUP3 MLOAD GT PUSH2 0x1A7E JUMPI PUSH1 0x40 MLOAD PUSH32 0x8C379A000000000000000000000000000000000000000000000000000000000 DUP2 MSTORE PUSH1 0x4 ADD PUSH2 0x1A75 SWAP1 PUSH2 0x4057 JUMP JUMPDEST PUSH1 0x40 MLOAD DUP1 SWAP2 SUB SWAP1 REVERT JUMPDEST PUSH0 DUP2 MLOAD GT PUSH2 0x1AC1 JUMPI PUSH1 0x40 MLOAD PUSH32 0x8C379A000000000000000000000000000000000000000000000000000000000 DUP2 MSTORE PUSH1 0x4 ADD PUSH2 0x1AB8 SWAP1 PUSH2 0x40BF JUMP JUMPDEST PUSH1 0x40 MLOAD DUP1 SWAP2 SUB SWAP1 REVERT JUMPDEST PUSH1 0x1 PUSH0 DUP2 SLOAD DUP1 SWAP3 SWAP2 SWAP1 PUSH2 0x1AD3 SWAP1 PUSH2 0x3940 JUMP JUMPDEST SWAP2 SWAP1 POP SSTORE POP PUSH0 PUSH1 0x1 SLOAD SWAP1 POP PUSH1 0x40 MLOAD DUP1 PUSH1 0xC0 ADD PUSH1 0x40 MSTORE DUP1 DUP3 DUP2 MSTORE PUSH1 0x20 ADD DUP5 DUP2 MSTORE PUSH1 0x20 ADD DUP4 DUP2 MSTORE PUSH1 0x20 ADD CALLER PUSH20 0xFFFFFFFFFFFFFFFFFFFFFFFFFFFFFFFFFFFFFFFF AND DUP2 MSTORE PUSH1 0x20 ADD TIMESTAMP DUP2 MSTORE PUSH1 0x20 ADD PUSH0 ISZERO ISZERO DUP2 MSTORE POP PUSH1 0x4 PUSH0 DUP4 DUP2 MSTORE PUSH1 0x20 ADD SWAP1 DUP2 MSTORE PUSH1 0x20 ADD PUSH0 KECCAK256 PUSH0 DUP3 ADD MLOAD DUP2 PUSH0 ADD SSTORE PUSH1 0x20 DUP3 ADD MLOAD DUP2 PUSH1 0x1 ADD SWAP1 DUP2 PUSH2 0x1B51 SWAP2 SWAP1 PUSH2 0x3B24 JUMP JUMPDEST POP PUSH1 0x40 DUP3 ADD MLOAD DUP2 PUSH1 0x2 ADD SWAP1 DUP2 PUSH2 0x1B67 SWAP2 SWAP1 PUSH2 0x3B24 JUMP JUMPDEST POP PUSH1 0x60 DUP3 ADD MLOAD DUP2 PUSH1 0x3 ADD PUSH0 PUSH2 0x100 EXP DUP2 SLOAD DUP2 PUSH20 0xFFFFFFFFFFFFFFFFFFFFFFFFFFFFFFFFFFFFFFFF MUL NOT AND SWAP1 DUP4 PUSH20 0xFFFFFFFFFFFFFFFFFFFFFFFFFFFFFFFFFFFFFFFF AND MUL OR SWAP1 SSTORE POP PUSH1 0x80 DUP3 ADD MLOAD DUP2 PUSH1 0x4 ADD SSTORE PUSH1 0xA0 DUP3 ADD MLOAD DUP2 PUSH1 0x5 ADD PUSH0 PUSH2 0x100 EXP DUP2 SLOAD DUP2 PUSH1 0xFF MUL NOT AND SWAP1 DUP4 ISZERO ISZERO MUL OR SWAP1 SSTORE POP SWAP1 POP POP PUSH0 DUP1 SLOAD SWAP1 PUSH2 0x100 EXP SWAP1 DIV PUSH20 0xFFFFFFFFFFFFFFFFFFFFFFFFFFFFFFFFFFFFFFFF AND PUSH20 0xFFFFFFFFFFFFFFFFFFFFFFFFFFFFFFFFFFFFFFFF AND DUP2 PUSH32 0xCAB8542FAD5393D8A674AE5BB9094C309E41FDF2BF941B1D4A44FB4A790FF1C DUP6 PUSH1 0x40 MLOAD PUSH2 0x1C40 SWAP2 SWAP1 PUSH2 0x3247 JUMP JUMPDEST PUSH1 0x40 MLOAD DUP1 SWAP2 SUB SWAP1 LOG3 POP POP POP JUMP JUMPDEST PUSH1 0x3 PUSH0 CALLER PUSH20 0xFFFFFFFFFFFFFFFFFFFFFFFFFFFFFFFFFFFFFFFF AND PUSH20 0xFFFFFFFFFFFFFFFFFFFFFFFFFFFFFFFFFFFFFFFF AND DUP2 MSTORE PUSH1 0x20 ADD SWAP1 DUP2 MSTORE PUSH1 0x20 ADD PUSH0 KECCAK256 PUSH0 SWAP1 SLOAD SWAP1 PUSH2 0x100 EXP SWAP1 DIV PUSH1 0xFF AND PUSH2 0x1CD6 JUMPI PUSH1 0x40 MLOAD PUSH32 0x8C379A000000000000000000000000000000000000000000000000000000000 DUP2 MSTORE PUSH1 0x4 ADD PUSH2 0x1CCD SWAP1 PUSH2 0x3527 JUMP JUMPDEST PUSH1 0x40 MLOAD DUP1 SWAP2 SUB SWAP1 REVERT JUMPDEST PUSH2 0x1CDF DUP3 PUSH2 0x1E15 JUMP JUMPDEST PUSH2 0x1D1E JUMPI PUSH1 0x40 MLOAD PUSH32 0x8C379A000000000000000000000000000000000000000000000000000000000 DUP2 MSTORE PUSH1 0x4 ADD PUSH2 0x1D15 SWAP1 PUSH2 0x4127 JUMP JUMPDEST PUSH1 0x40 MLOAD DUP1 SWAP2 SUB SWAP1 REVERT JUMPDEST PUSH1 0x4 PUSH0 DUP4 DUP2 MSTORE PUSH1 0x20 ADD SWAP1 DUP2 MSTORE PUSH1 0x20 ADD PUSH0 KECCAK256 PUSH1 0x5 ADD PUSH0 SWAP1 SLOAD SWAP1 PUSH2 0x100 EXP SWAP1 DIV PUSH1 0xFF AND ISZERO PUSH2 0x1D7F JUMPI PUSH1 0x40 MLOAD PUSH32 0x8C379A000000000000000000000000000000000000000000000000000000000 DUP2 MSTORE PUSH1 0x4 ADD PUSH2 0x1D76 SWAP1 PUSH2 0x418F JUMP JUMPDEST PUSH1 0x40 MLOAD DUP1 SWAP2 SUB SWAP1 REVERT JUMPDEST PUSH1 0x1 PUSH1 0x4 PUSH0 DUP5 DUP2 MSTORE PUSH1 0x20 ADD SWAP1 DUP2 MSTORE PUSH1 0x20 ADD PUSH0 KECCAK256 PUSH1 0x5 ADD PUSH0 PUSH2 0x100 EXP DUP2 SLOAD DUP2 PUSH1 0xFF MUL NOT AND SWAP1 DUP4 ISZERO ISZERO MUL OR SWAP1 SSTORE POP DUP2 PUSH32 0xCF945375036EE1FF64A8885B9C36844AC503B07AD7B0B3B78D023EB0A4CC623C DUP3 PUSH1 0x40 MLOAD PUSH2 0x1DDB SWAP2 SWAP1 PUSH2 0x3247 JUMP JUMPDEST PUSH1 0x40 MLOAD DUP1 SWAP2 SUB SWAP1 LOG2 POP POP JUMP JUMPDEST PUSH0 DUP1 PUSH1 0x5 PUSH0 DUP5 DUP2 MSTORE PUSH1 0x20 ADD SWAP1 DUP2 MSTORE PUSH1 0x20 ADD PUSH0 KECCAK256 PUSH1 0x6 ADD SLOAD EQ PUSH2 0x1E0C JUMPI PUSH1 0x1 SWAP1 POP PUSH2 0x1E10 JUMP JUMPDEST PUSH0 SWAP1 POP JUMPDEST SWAP2 SWAP1 POP JUMP JUMPDEST PUSH0 DUP1 PUSH1 0x1 SWAP1 POP JUMPDEST PUSH1 0x1 SLOAD DUP2 GT PUSH2 0x1E5C JUMPI DUP3 PUSH1 0x4 PUSH0 DUP4 DUP2 MSTORE PUSH1 0x20 ADD SWAP1 DUP2 MSTORE PUSH1 0x20 ADD PUSH0 KECCAK256 PUSH0 ADD SLOAD SUB PUSH2 0x1E49 JUMPI PUSH1 0x1 SWAP2 POP POP PUSH2 0x1E61 JUMP JUMPDEST DUP1 DUP1 PUSH2 0x1E54 SWAP1 PUSH2 0x3940 JUMP JUMPDEST SWAP2 POP POP PUSH2 0x1E1C JUMP JUMPDEST POP PUSH0 SWAP1 POP JUMPDEST SWAP2 SWAP1 POP JUMP JUMPDEST PUSH1 0x5 PUSH1 0x20 MSTORE DUP1 PUSH0 MSTORE PUSH1 0x40 PUSH0 KECCAK256 PUSH0 SWAP2 POP SWAP1 POP DUP1 PUSH1 0x3 ADD PUSH0 SWAP1 SLOAD SWAP1 PUSH2 0x100 EXP SWAP1 DIV PUSH20 0xFFFFFFFFFFFFFFFFFFFFFFFFFFFFFFFFFFFFFFFF AND SWAP1 DUP1 PUSH1 0x4 ADD SLOAD SWAP1 DUP1 PUSH1 0x5 ADD PUSH0 SWAP1 SLOAD SWAP1 PUSH2 0x100 EXP SWAP1 DIV PUSH1 0xFF AND SWAP1 DUP1 PUSH1 0x6 ADD SLOAD SWAP1 DUP1 PUSH1 0x7 ADD DUP1 SLOAD PUSH2 0x1EC9 SWAP1 PUSH2 0x36D7 JUMP JUMPDEST DUP1 PUSH1 0x1F ADD PUSH1 0x20 DUP1 SWAP2 DIV MUL PUSH1 0x20 ADD PUSH1 0x40 MLOAD SWAP1 DUP2 ADD PUSH1 0x40 MSTORE DUP1 SWAP3 SWAP2 SWAP1 DUP2 DUP2 MSTORE PUSH1 0x20 ADD DUP3 DUP1 SLOAD PUSH2 0x1EF5 SWAP1 PUSH2 0x36D7 JUMP JUMPDEST DUP1 ISZERO PUSH2 0x1F40 JUMPI DUP1 PUSH1 0x1F LT PUSH2 0x1F17 JUMPI PUSH2 0x100 DUP1 DUP4 SLOAD DIV MUL DUP4 MSTORE SWAP2 PUSH1 0x20 ADD SWAP2 PUSH2 0x1F40 JUMP JUMPDEST DUP3 ADD SWAP2 SWAP1 PUSH0 MSTORE PUSH1 0x20 PUSH0 KECCAK256 SWAP1 JUMPDEST DUP2 SLOAD DUP2 MSTORE SWAP1 PUSH1 0x1 ADD SWAP1 PUSH1 0x20 ADD DUP1 DUP4 GT PUSH2 0x1F23 JUMPI DUP3 SWAP1 SUB PUSH1 0x1F AND DUP3 ADD SWAP2 JUMPDEST POP POP POP POP POP SWAP1 POP DUP6 JUMP JUMPDEST PUSH0 PUSH1 0x60 PUSH0 DUP1 PUSH0 DUP1 PUSH1 0x4 PUSH0 DUP9 DUP2 MSTORE PUSH1 0x20 ADD SWAP1 DUP2 MSTORE PUSH1 0x20 ADD PUSH0 KECCAK256 PUSH1 0x40 MLOAD DUP1 PUSH1 0xC0 ADD PUSH1 0x40 MSTORE SWAP1 DUP2 PUSH0 DUP3 ADD SLOAD DUP2 MSTORE PUSH1 0x20 ADD PUSH1 0x1 DUP3 ADD DUP1 SLOAD PUSH2 0x1F86 SWAP1 PUSH2 0x36D7 JUMP JUMPDEST DUP1 PUSH1 0x1F ADD PUSH1 0x20 DUP1 SWAP2 DIV MUL PUSH1 0x20 ADD PUSH1 0x40 MLOAD SWAP1 DUP2 ADD PUSH1 0x40 MSTORE DUP1 SWAP3 SWAP2 SWAP1 DUP2 DUP2 MSTORE PUSH1 0x20 ADD DUP3 DUP1 SLOAD PUSH2 0x1FB2 SWAP1 PUSH2 0x36D7 JUMP JUMPDEST DUP1 ISZERO PUSH2 0x1FFD JUMPI DUP1 PUSH1 0x1F LT PUSH2 0x1FD4 JUMPI PUSH2 0x100 DUP1 DUP4 SLOAD DIV MUL DUP4 MSTORE SWAP2 PUSH1 0x20 ADD SWAP2 PUSH2 0x1FFD JUMP JUMPDEST DUP3 ADD SWAP2 SWAP1 PUSH0 MSTORE PUSH1 0x20 PUSH0 KECCAK256 SWAP1 JUMPDEST DUP2 SLOAD DUP2 MSTORE SWAP1 PUSH1 0x1 ADD SWAP1 PUSH1 0x20 ADD DUP1 DUP4 GT PUSH2 0x1FE0 JUMPI DUP3 SWAP1 SUB PUSH1 0x1F AND DUP3 ADD SWAP2 JUMPDEST POP POP POP POP POP DUP2 MSTORE PUSH1 0x20 ADD PUSH1 0x2 DUP3 ADD DUP1 SLOAD PUSH2 0x2016 SWAP1 PUSH2 0x36D7 JUMP JUMPDEST DUP1 PUSH1 0x1F ADD PUSH1 0x20 DUP1 SWAP2 DIV MUL PUSH1 0x20 ADD PUSH1 0x40 MLOAD SWAP1 DUP2 ADD PUSH1 0x40 MSTORE DUP1 SWAP3 SWAP2 SWAP1 DUP2 DUP2 MSTORE PUSH1 0x20 ADD DUP3 DUP1 SLOAD PUSH2 0x2042 SWAP1 PUSH2 0x36D7 JUMP JUMPDEST DUP1 ISZERO PUSH2 0x208D JUMPI DUP1 PUSH1 0x1F LT PUSH2 0x2064 JUMPI PUSH2 0x100 DUP1 DUP4 SLOAD DIV MUL DUP4 MSTORE SWAP2 PUSH1 0x20 ADD SWAP2 PUSH2 0x208D JUMP JUMPDEST DUP3 ADD SWAP2 SWAP1 PUSH0 MSTORE PUSH1 0x20 PUSH0 KECCAK256 SWAP1 JUMPDEST DUP2 SLOAD DUP2 MSTORE SWAP1 PUSH1 0x1 ADD SWAP1 PUSH1 0x20 ADD DUP1 DUP4 GT PUSH2 0x2070 JUMPI DUP3 SWAP1 SUB PUSH1 0x1F AND DUP3 ADD SWAP2 JUMPDEST POP POP POP POP POP DUP2 MSTORE PUSH1 0x20 ADD PUSH1 0x3 DUP3 ADD PUSH0 SWAP1 SLOAD SWAP1 PUSH2 0x100 EXP SWAP1 DIV PUSH20 0xFFFFFFFFFFFFFFFFFFFFFFFFFFFFFFFFFFFFFFFF AND PUSH20 0xFFFFFFFFFFFFFFFFFFFFFFFFFFFFFFFFFFFFFFFF AND PUSH20 0xFFFFFFFFFFFFFFFFFFFFFFFFFFFFFFFFFFFFFFFF AND DUP2 MSTORE PUSH1 0x20 ADD PUSH1 0x4 DUP3 ADD SLOAD DUP2 MSTORE PUSH1 0x20 ADD PUSH1 0x5 DUP3 ADD PUSH0 SWAP1 SLOAD SWAP1 PUSH2 0x100 EXP SWAP1 DIV PUSH1 0xFF AND ISZERO ISZERO ISZERO ISZERO DUP2 MSTORE POP POP SWAP1 POP DUP1 PUSH0 ADD MLOAD DUP2 PUSH1 0x20 ADD MLOAD DUP3 PUSH1 0x60 ADD MLOAD DUP4 PUSH1 0x80 ADD MLOAD DUP5 PUSH1 0xA0 ADD MLOAD SWAP6 POP SWAP6 POP SWAP6 POP SWAP6 POP SWAP6 POP POP SWAP2 SWAP4 SWAP6 SWAP1 SWAP3 SWAP5 POP JUMP JUMPDEST PUSH0 DUP1 SLOAD SWAP1 PUSH2 0x100 EXP SWAP1 DIV PUSH20 0xFFFFFFFFFFFFFFFFFFFFFFFFFFFFFFFFFFFFFFFF AND PUSH20 0xFFFFFFFFFFFFFFFFFFFFFFFFFFFFFFFFFFFFFFFF AND CALLER PUSH20 0xFFFFFFFFFFFFFFFFFFFFFFFFFFFFFFFFFFFFFFFF AND EQ PUSH2 0x21CA JUMPI PUSH1 0x40 MLOAD PUSH32 0x8C379A000000000000000000000000000000000000000000000000000000000 DUP2 MSTORE PUSH1 0x4 ADD PUSH2 0x21C1 SWAP1 PUSH2 0x41F7 JUMP JUMPDEST PUSH1 0x40 MLOAD DUP1 SWAP2 SUB SWAP1 REVERT JUMPDEST PUSH0 PUSH20 0xFFFFFFFFFFFFFFFFFFFFFFFFFFFFFFFFFFFFFFFF AND DUP2 PUSH20 0xFFFFFFFFFFFFFFFFFFFFFFFFFFFFFFFFFFFFFFFF AND SUB PUSH2 0x2238 JUMPI PUSH1 0x40 MLOAD PUSH32 0x8C379A000000000000000000000000000000000000000000000000000000000 DUP2 MSTORE PUSH1 0x4 ADD PUSH2 0x222F SWAP1 PUSH2 0x425F JUMP JUMPDEST PUSH1 0x40 MLOAD DUP1 SWAP2 SUB SWAP1 REVERT JUMPDEST PUSH1 0x3 PUSH0 DUP3 PUSH20 0xFFFFFFFFFFFFFFFFFFFFFFFFFFFFFFFFFFFFFFFF AND PUSH20 0xFFFFFFFFFFFFFFFFFFFFFFFFFFFFFFFFFFFFFFFF AND DUP2 MSTORE PUSH1 0x20 ADD SWAP1 DUP2 MSTORE PUSH1 0x20 ADD PUSH0 KECCAK256 PUSH0 SWAP1 SLOAD SWAP1 PUSH2 0x100 EXP SWAP1 DIV PUSH1 0xFF AND ISZERO PUSH2 0x22C2 JUMPI PUSH1 0x40 MLOAD PUSH32 0x8C379A000000000000000000000000000000000000000000000000000000000 DUP2 MSTORE PUSH1 0x4 ADD PUSH2 0x22B9 SWAP1 PUSH2 0x42C7 JUMP JUMPDEST PUSH1 0x40 MLOAD DUP1 SWAP2 SUB SWAP1 REVERT JUMPDEST PUSH1 0x1 PUSH1 0x3 PUSH0 DUP4 PUSH20 0xFFFFFFFFFFFFFFFFFFFFFFFFFFFFFFFFFFFFFFFF AND PUSH20 0xFFFFFFFFFFFFFFFFFFFFFFFFFFFFFFFFFFFFFFFF AND DUP2 MSTORE PUSH1 0x20 ADD SWAP1 DUP2 MSTORE PUSH1 0x20 ADD PUSH0 KECCAK256 PUSH0 PUSH2 0x100 EXP DUP2 SLOAD DUP2 PUSH1 0xFF MUL NOT AND SWAP1 DUP4 ISZERO ISZERO MUL OR SWAP1 SSTORE POP DUP1 PUSH20 0xFFFFFFFFFFFFFFFFFFFFFFFFFFFFFFFFFFFFFFFF AND PUSH32 0x3CBCBB9BA5A54D0762F39FD455FD2900FBCFCD0E0693E2C87DB13043C400B55F PUSH1 0x40 MLOAD PUSH1 0x40 MLOAD DUP1 SWAP2 SUB SWAP1 LOG2 POP JUMP JUMPDEST PUSH1 0x60 PUSH1 0x1 DUP3 SUB PUSH2 0x23A4 JUMPI PUSH1 0x40 MLOAD DUP1 PUSH1 0x40 ADD PUSH1 0x40 MSTORE DUP1 PUSH1 0xE DUP2 MSTORE PUSH1 0x20 ADD PUSH32 0x7265736769737465724261746368000000000000000000000000000000000000 DUP2 MSTORE POP SWAP1 POP PUSH2 0x242F JUMP JUMPDEST PUSH1 0x2 DUP3 SUB PUSH2 0x23E9 JUMPI PUSH1 0x40 MLOAD DUP1 PUSH1 0x40 ADD PUSH1 0x40 MSTORE DUP1 PUSH1 0xD DUP2 MSTORE PUSH1 0x20 ADD PUSH32 0x7472616E73666572426174636800000000000000000000000000000000000000 DUP2 MSTORE POP SWAP1 POP PUSH2 0x242F JUMP JUMPDEST PUSH1 0x3 DUP3 SUB PUSH2 0x242E JUMPI PUSH1 0x40 MLOAD DUP1 PUSH1 0x40 ADD PUSH1 0x40 MSTORE DUP1 PUSH1 0xB DUP2 MSTORE PUSH1 0x20 ADD PUSH32 0x726563616C6C4261746368000000000000000000000000000000000000000000 DUP2 MSTORE POP SWAP1 POP PUSH2 0x242F JUMP JUMPDEST JUMPDEST SWAP2 SWAP1 POP JUMP JUMPDEST PUSH1 0x1 SLOAD DUP2 JUMP JUMPDEST PUSH1 0x3 PUSH0 CALLER PUSH20 0xFFFFFFFFFFFFFFFFFFFFFFFFFFFFFFFFFFFFFFFF AND PUSH20 0xFFFFFFFFFFFFFFFFFFFFFFFFFFFFFFFFFFFFFFFF AND DUP2 MSTORE PUSH1 0x20 ADD SWAP1 DUP2 MSTORE PUSH1 0x20 ADD PUSH0 KECCAK256 PUSH0 SWAP1 SLOAD SWAP1 PUSH2 0x100 EXP SWAP1 DIV PUSH1 0xFF AND PUSH2 0x24C3 JUMPI PUSH1 0x40 MLOAD PUSH32 0x8C379A000000000000000000000000000000000000000000000000000000000 DUP2 MSTORE PUSH1 0x4 ADD PUSH2 0x24BA SWAP1 PUSH2 0x3527 JUMP JUMPDEST PUSH1 0x40 MLOAD DUP1 SWAP2 SUB SWAP1 REVERT JUMPDEST PUSH1 0x40 MLOAD PUSH1 0x20 ADD PUSH2 0x24D2 SWAP1 PUSH2 0x382B JUMP JUMPDEST PUSH1 0x40 MLOAD PUSH1 0x20 DUP2 DUP4 SUB SUB DUP2 MSTORE SWAP1 PUSH1 0x40 MSTORE DUP1 MLOAD SWAP1 PUSH1 0x20 ADD KECCAK256 DUP2 PUSH1 0x40 MLOAD PUSH1 0x20 ADD PUSH2 0x24F9 SWAP2 SWAP1 PUSH2 0x386F JUMP JUMPDEST PUSH1 0x40 MLOAD PUSH1 0x20 DUP2 DUP4 SUB SUB DUP2 MSTORE SWAP1 PUSH1 0x40 MSTORE DUP1 MLOAD SWAP1 PUSH1 0x20 ADD KECCAK256 SUB PUSH2 0x25A0 JUMPI PUSH0 DUP5 MLOAD EQ PUSH2 0x2557 JUMPI PUSH1 0x40 MLOAD PUSH32 0x8C379A000000000000000000000000000000000000000000000000000000000 DUP2 MSTORE PUSH1 0x4 ADD PUSH2 0x254E SWAP1 PUSH2 0x4355 JUMP JUMPDEST PUSH1 0x40 MLOAD DUP1 SWAP2 SUB SWAP1 REVERT JUMPDEST DUP2 MLOAD DUP4 MLOAD EQ PUSH2 0x259B JUMPI PUSH1 0x40 MLOAD PUSH32 0x8C379A000000000000000000000000000000000000000000000000000000000 DUP2 MSTORE PUSH1 0x4 ADD PUSH2 0x2592 SWAP1 PUSH2 0x43E3 JUMP JUMPDEST PUSH1 0x40 MLOAD DUP1 SWAP2 SUB SWAP1 REVERT JUMPDEST PUSH2 0x266C JUMP JUMPDEST PUSH0 DUP5 MLOAD GT PUSH2 0x25E3 JUMPI PUSH1 0x40 MLOAD PUSH32 0x8C379A000000000000000000000000000000000000000000000000000000000 DUP2 MSTORE PUSH1 0x4 ADD PUSH2 0x25DA SWAP1 PUSH2 0x4471 JUMP JUMPDEST PUSH1 0x40 MLOAD DUP1 SWAP2 SUB SWAP1 REVERT JUMPDEST DUP3 MLOAD DUP5 MLOAD EQ PUSH2 0x2627 JUMPI PUSH1 0x40 MLOAD PUSH32 0x8C379A000000000000000000000000000000000000000000000000000000000 DUP2 MSTORE PUSH1 0x4 ADD PUSH2 0x261E SWAP1 PUSH2 0x44FF JUMP JUMPDEST PUSH1 0x40 MLOAD DUP1 SWAP2 SUB SWAP1 REVERT JUMPDEST DUP2 MLOAD DUP5 MLOAD EQ PUSH2 0x266B JUMPI PUSH1 0x40 MLOAD PUSH32 0x8C379A000000000000000000000000000000000000000000000000000000000 DUP2 MSTORE PUSH1 0x4 ADD PUSH2 0x2662 SWAP1 PUSH2 0x458D JUMP JUMPDEST PUSH1 0x40 MLOAD DUP1 SWAP2 SUB SWAP1 REVERT JUMPDEST JUMPDEST PUSH0 JUMPDEST DUP4 MLOAD DUP2 LT ISZERO PUSH2 0x26E1 JUMPI PUSH0 DUP5 DUP3 DUP2 MLOAD DUP2 LT PUSH2 0x268B JUMPI PUSH2 0x268A PUSH2 0x3615 JUMP JUMPDEST JUMPDEST PUSH1 0x20 MUL PUSH1 0x20 ADD ADD MLOAD MLOAD GT PUSH2 0x26D4 JUMPI PUSH1 0x40 MLOAD PUSH32 0x8C379A000000000000000000000000000000000000000000000000000000000 DUP2 MSTORE PUSH1 0x4 ADD PUSH2 0x26CB SWAP1 PUSH2 0x45F5 JUMP JUMPDEST PUSH1 0x40 MLOAD DUP1 SWAP2 SUB SWAP1 REVERT JUMPDEST DUP1 DUP1 PUSH1 0x1 ADD SWAP2 POP POP PUSH2 0x266E JUMP JUMPDEST POP PUSH0 JUMPDEST DUP3 MLOAD DUP2 LT ISZERO PUSH2 0x2757 JUMPI PUSH0 DUP4 DUP3 DUP2 MLOAD DUP2 LT PUSH2 0x2701 JUMPI PUSH2 0x2700 PUSH2 0x3615 JUMP JUMPDEST JUMPDEST PUSH1 0x20 MUL PUSH1 0x20 ADD ADD MLOAD MLOAD GT PUSH2 0x274A JUMPI PUSH1 0x40 MLOAD PUSH32 0x8C379A000000000000000000000000000000000000000000000000000000000 DUP2 MSTORE PUSH1 0x4 ADD PUSH2 0x2741 SWAP1 PUSH2 0x465D JUMP JUMPDEST PUSH1 0x40 MLOAD DUP1 SWAP2 SUB SWAP1 REVERT JUMPDEST DUP1 DUP1 PUSH1 0x1 ADD SWAP2 POP POP PUSH2 0x26E4 JUMP JUMPDEST POP PUSH1 0x2 PUSH0 DUP2 SLOAD DUP1 SWAP3 SWAP2 SWAP1 PUSH2 0x276A SWAP1 PUSH2 0x3940 JUMP JUMPDEST SWAP2 SWAP1 POP SSTORE POP PUSH0 PUSH1 0x2 SLOAD SWAP1 POP PUSH1 0x40 MLOAD DUP1 PUSH2 0x100 ADD PUSH1 0x40 MSTORE DUP1 DUP7 DUP2 MSTORE PUSH1 0x20 ADD DUP6 DUP2 MSTORE PUSH1 0x20 ADD DUP5 DUP2 MSTORE PUSH1 0x20 ADD CALLER PUSH20 0xFFFFFFFFFFFFFFFFFFFFFFFFFFFFFFFFFFFFFFFF AND DUP2 MSTORE PUSH1 0x20 ADD TIMESTAMP DUP2 MSTORE PUSH1 0x20 ADD PUSH0 ISZERO ISZERO DUP2 MSTORE PUSH1 0x20 ADD DUP3 DUP2 MSTORE PUSH1 0x20 ADD DUP4 DUP2 MSTORE POP PUSH1 0x5 PUSH0 DUP4 DUP2 MSTORE PUSH1 0x20 ADD SWAP1 DUP2 MSTORE PUSH1 0x20 ADD PUSH0 KECCAK256 PUSH0 DUP3 ADD MLOAD DUP2 PUSH0 ADD SWAP1 DUP1 MLOAD SWAP1 PUSH1 0x20 ADD SWAP1 PUSH2 0x27F2 SWAP3 SWAP2 SWAP1 PUSH2 0x28FE JUMP JUMPDEST POP PUSH1 0x20 DUP3 ADD MLOAD DUP2 PUSH1 0x1 ADD SWAP1 DUP1 MLOAD SWAP1 PUSH1 0x20 ADD SWAP1 PUSH2 0x280F SWAP3 SWAP2 SWAP1 PUSH2 0x2949 JUMP JUMPDEST POP PUSH1 0x40 DUP3 ADD MLOAD DUP2 PUSH1 0x2 ADD SWAP1 DUP1 MLOAD SWAP1 PUSH1 0x20 ADD SWAP1 PUSH2 0x282C SWAP3 SWAP2 SWAP1 PUSH2 0x2949 JUMP JUMPDEST POP PUSH1 0x60 DUP3 ADD MLOAD DUP2 PUSH1 0x3 ADD PUSH0 PUSH2 0x100 EXP DUP2 SLOAD DUP2 PUSH20 0xFFFFFFFFFFFFFFFFFFFFFFFFFFFFFFFFFFFFFFFF MUL NOT AND SWAP1 DUP4 PUSH20 0xFFFFFFFFFFFFFFFFFFFFFFFFFFFFFFFFFFFFFFFF AND MUL OR SWAP1 SSTORE POP PUSH1 0x80 DUP3 ADD MLOAD DUP2 PUSH1 0x4 ADD SSTORE PUSH1 0xA0 DUP3 ADD MLOAD DUP2 PUSH1 0x5 ADD PUSH0 PUSH2 0x100 EXP DUP2 SLOAD DUP2 PUSH1 0xFF MUL NOT AND SWAP1 DUP4 ISZERO ISZERO MUL OR SWAP1 SSTORE POP PUSH1 0xC0 DUP3 ADD MLOAD DUP2 PUSH1 0x6 ADD SSTORE PUSH1 0xE0 DUP3 ADD MLOAD DUP2 PUSH1 0x7 ADD SWAP1 DUP2 PUSH2 0x28BB SWAP2 SWAP1 PUSH2 0x3B24 JUMP JUMPDEST POP SWAP1 POP POP DUP1 PUSH32 0x97FF4EB42B5AF6FF38CAFBFAD77979B7FBE233BB58B2CB81EB38859456A133FD DUP4 PUSH1 0x40 MLOAD PUSH2 0x28EF SWAP2 SWAP1 PUSH2 0x3247 JUMP JUMPDEST PUSH1 0x40 MLOAD DUP1 SWAP2 SUB SWAP1 LOG2 POP POP POP POP POP JUMP JUMPDEST DUP3 DUP1 SLOAD DUP3 DUP3 SSTORE SWAP1 PUSH0 MSTORE PUSH1 0x20 PUSH0 KECCAK256 SWAP1 DUP2 ADD SWAP3 DUP3 ISZERO PUSH2 0x2938 JUMPI SWAP2 PUSH1 0x20 MUL DUP3 ADD JUMPDEST DUP3 DUP2 GT ISZERO PUSH2 0x2937 JUMPI DUP3 MLOAD DUP3 SSTORE SWAP2 PUSH1 0x20 ADD SWAP2 SWAP1 PUSH1 0x1 ADD SWAP1 PUSH2 0x291C JUMP JUMPDEST JUMPDEST POP SWAP1 POP PUSH2 0x2945 SWAP2 SWAP1 PUSH2 0x29A0 JUMP JUMPDEST POP SWAP1 JUMP JUMPDEST DUP3 DUP1 SLOAD DUP3 DUP3 SSTORE SWAP1 PUSH0 MSTORE PUSH1 0x20 PUSH0 KECCAK256 SWAP1 DUP2 ADD SWAP3 DUP3 ISZERO PUSH2 0x298F JUMPI SWAP2 PUSH1 0x20 MUL DUP3 ADD JUMPDEST DUP3 DUP2 GT ISZERO PUSH2 0x298E JUMPI DUP3 MLOAD DUP3 SWAP1 DUP2 PUSH2 0x297E SWAP2 SWAP1 PUSH2 0x3B24 JUMP JUMPDEST POP SWAP2 PUSH1 0x20 ADD SWAP2 SWAP1 PUSH1 0x1 ADD SWAP1 PUSH2 0x2967 JUMP JUMPDEST JUMPDEST POP SWAP1 POP PUSH2 0x299C SWAP2 SWAP1 PUSH2 0x29BB JUMP JUMPDEST POP SWAP1 JUMP JUMPDEST JUMPDEST DUP1 DUP3 GT ISZERO PUSH2 0x29B7 JUMPI PUSH0 DUP2 PUSH0 SWAP1 SSTORE POP PUSH1 0x1 ADD PUSH2 0x29A1 JUMP JUMPDEST POP SWAP1 JUMP JUMPDEST JUMPDEST DUP1 DUP3 GT ISZERO PUSH2 0x29DA JUMPI PUSH0 DUP2 DUP2 PUSH2 0x29D1 SWAP2 SWAP1 PUSH2 0x29DE JUMP JUMPDEST POP PUSH1 0x1 ADD PUSH2 0x29BC JUMP JUMPDEST POP SWAP1 JUMP JUMPDEST POP DUP1 SLOAD PUSH2 0x29EA SWAP1 PUSH2 0x36D7 JUMP JUMPDEST PUSH0 DUP3 SSTORE DUP1 PUSH1 0x1F LT PUSH2 0x29FB JUMPI POP PUSH2 0x2A18 JUMP JUMPDEST PUSH1 0x1F ADD PUSH1 0x20 SWAP1 DIV SWAP1 PUSH0 MSTORE PUSH1 0x20 PUSH0 KECCAK256 SWAP1 DUP2 ADD SWAP1 PUSH2 0x2A17 SWAP2 SWAP1 PUSH2 0x29A0 JUMP JUMPDEST JUMPDEST POP JUMP JUMPDEST PUSH0 PUSH1 0x40 MLOAD SWAP1 POP SWAP1 JUMP JUMPDEST PUSH0 DUP1 REVERT JUMPDEST PUSH0 DUP1 REVERT JUMPDEST PUSH0 DUP2 SWAP1 POP SWAP2 SWAP1 POP JUMP JUMPDEST PUSH2 0x2A3E DUP2 PUSH2 0x2A2C JUMP JUMPDEST DUP2 EQ PUSH2 0x2A48 JUMPI PUSH0 DUP1 REVERT JUMPDEST POP JUMP JUMPDEST PUSH0 DUP2 CALLDATALOAD SWAP1 POP PUSH2 0x2A59 DUP2 PUSH2 0x2A35 JUMP JUMPDEST SWAP3 SWAP2 POP POP JUMP JUMPDEST PUSH0 DUP1 REVERT JUMPDEST PUSH0 DUP1 REVERT JUMPDEST PUSH0 PUSH1 0x1F NOT PUSH1 0x1F DUP4 ADD AND SWAP1 POP SWAP2 SWAP1 POP JUMP JUMPDEST PUSH32 0x4E487B7100000000000000000000000000000000000000000000000000000000 PUSH0 MSTORE PUSH1 0x41 PUSH1 0x4 MSTORE PUSH1 0x24 PUSH0 REVERT JUMPDEST PUSH2 0x2AAD DUP3 PUSH2 0x2A67 JUMP JUMPDEST DUP2 ADD DUP2 DUP2 LT PUSH8 0xFFFFFFFFFFFFFFFF DUP3 GT OR ISZERO PUSH2 0x2ACC JUMPI PUSH2 0x2ACB PUSH2 0x2A77 JUMP JUMPDEST JUMPDEST DUP1 PUSH1 0x40 MSTORE POP POP POP JUMP JUMPDEST PUSH0 PUSH2 0x2ADE PUSH2 0x2A1B JUMP JUMPDEST SWAP1 POP PUSH2 0x2AEA DUP3 DUP3 PUSH2 0x2AA4 JUMP JUMPDEST SWAP2 SWAP1 POP JUMP JUMPDEST PUSH0 PUSH8 0xFFFFFFFFFFFFFFFF DUP3 GT ISZERO PUSH2 0x2B09 JUMPI PUSH2 0x2B08 PUSH2 0x2A77 JUMP JUMPDEST JUMPDEST PUSH2 0x2B12 DUP3 PUSH2 0x2A67 JUMP JUMPDEST SWAP1 POP PUSH1 0x20 DUP2 ADD SWAP1 POP SWAP2 SWAP1 POP JUMP JUMPDEST DUP3 DUP2 DUP4 CALLDATACOPY PUSH0 DUP4 DUP4 ADD MSTORE POP POP POP JUMP JUMPDEST PUSH0 PUSH2 0x2B3F PUSH2 0x2B3A DUP5 PUSH2 0x2AEF JUMP JUMPDEST PUSH2 0x2AD5 JUMP JUMPDEST SWAP1 POP DUP3 DUP2 MSTORE PUSH1 0x20 DUP2 ADD DUP5 DUP5 DUP5 ADD GT ISZERO PUSH2 0x2B5B JUMPI PUSH2 0x2B5A PUSH2 0x2A63 JUMP JUMPDEST JUMPDEST PUSH2 0x2B66 DUP5 DUP3 DUP6 PUSH2 0x2B1F JUMP JUMPDEST POP SWAP4 SWAP3 POP POP POP JUMP JUMPDEST PUSH0 DUP3 PUSH1 0x1F DUP4 ADD SLT PUSH2 0x2B82 JUMPI PUSH2 0x2B81 PUSH2 0x2A5F JUMP JUMPDEST JUMPDEST DUP2 CALLDATALOAD PUSH2 0x2B92 DUP5 DUP3 PUSH1 0x20 DUP7 ADD PUSH2 0x2B2D JUMP JUMPDEST SWAP2 POP POP SWAP3 SWAP2 POP POP JUMP JUMPDEST PUSH0 DUP1 PUSH1 0x40 DUP4 DUP6 SUB SLT ISZERO PUSH2 0x2BB1 JUMPI PUSH2 0x2BB0 PUSH2 0x2A24 JUMP JUMPDEST JUMPDEST PUSH0 PUSH2 0x2BBE DUP6 DUP3 DUP7 ADD PUSH2 0x2A4B JUMP JUMPDEST SWAP3 POP POP PUSH1 0x20 DUP4 ADD CALLDATALOAD PUSH8 0xFFFFFFFFFFFFFFFF DUP2 GT ISZERO PUSH2 0x2BDF JUMPI PUSH2 0x2BDE PUSH2 0x2A28 JUMP JUMPDEST JUMPDEST PUSH2 0x2BEB DUP6 DUP3 DUP7 ADD PUSH2 0x2B6E JUMP JUMPDEST SWAP2 POP POP SWAP3 POP SWAP3 SWAP1 POP JUMP JUMPDEST PUSH2 0x2BFE DUP2 PUSH2 0x2A2C JUMP JUMPDEST DUP3 MSTORE POP POP JUMP JUMPDEST PUSH0 PUSH1 0x20 DUP3 ADD SWAP1 POP PUSH2 0x2C17 PUSH0 DUP4 ADD DUP5 PUSH2 0x2BF5 JUMP JUMPDEST SWAP3 SWAP2 POP POP JUMP JUMPDEST PUSH0 PUSH1 0x20 DUP3 DUP5 SUB SLT ISZERO PUSH2 0x2C32 JUMPI PUSH2 0x2C31 PUSH2 0x2A24 JUMP JUMPDEST JUMPDEST PUSH0 PUSH2 0x2C3F DUP5 DUP3 DUP6 ADD PUSH2 0x2A4B JUMP JUMPDEST SWAP2 POP POP SWAP3 SWAP2 POP POP JUMP JUMPDEST PUSH0 DUP2 ISZERO ISZERO SWAP1 POP SWAP2 SWAP1 POP JUMP JUMPDEST PUSH2 0x2C5C DUP2 PUSH2 0x2C48 JUMP JUMPDEST DUP3 MSTORE POP POP JUMP JUMPDEST PUSH0 PUSH1 0x20 DUP3 ADD SWAP1 POP PUSH2 0x2C75 PUSH0 DUP4 ADD DUP5 PUSH2 0x2C53 JUMP JUMPDEST SWAP3 SWAP2 POP POP JUMP JUMPDEST PUSH0 DUP2 MLOAD SWAP1 POP SWAP2 SWAP1 POP JUMP JUMPDEST PUSH0 DUP3 DUP3 MSTORE PUSH1 0x20 DUP3 ADD SWAP1 POP SWAP3 SWAP2 POP POP JUMP JUMPDEST PUSH0 DUP2 SWAP1 POP PUSH1 0x20 DUP3 ADD SWAP1 POP SWAP2 SWAP1 POP JUMP JUMPDEST PUSH2 0x2CAD DUP2 PUSH2 0x2A2C JUMP JUMPDEST DUP3 MSTORE POP POP JUMP JUMPDEST PUSH0 PUSH2 0x2CBE DUP4 DUP4 PUSH2 0x2CA4 JUMP JUMPDEST PUSH1 0x20 DUP4 ADD SWAP1 POP SWAP3 SWAP2 POP POP JUMP JUMPDEST PUSH0 PUSH1 0x20 DUP3 ADD SWAP1 POP SWAP2 SWAP1 POP JUMP JUMPDEST PUSH0 PUSH2 0x2CE0 DUP3 PUSH2 0x2C7B JUMP JUMPDEST PUSH2 0x2CEA DUP2 DUP6 PUSH2 0x2C85 JUMP JUMPDEST SWAP4 POP PUSH2 0x2CF5 DUP4 PUSH2 0x2C95 JUMP JUMPDEST DUP1 PUSH0 JUMPDEST DUP4 DUP2 LT ISZERO PUSH2 0x2D25 JUMPI DUP2 MLOAD PUSH2 0x2D0C DUP9 DUP3 PUSH2 0x2CB3 JUMP JUMPDEST SWAP8 POP PUSH2 0x2D17 DUP4 PUSH2 0x2CCA JUMP JUMPDEST SWAP3 POP POP PUSH1 0x1 DUP2 ADD SWAP1 POP PUSH2 0x2CF8 JUMP JUMPDEST POP DUP6 SWAP4 POP POP POP POP SWAP3 SWAP2 POP POP JUMP JUMPDEST PUSH0 DUP2 MLOAD SWAP1 POP SWAP2 SWAP1 POP JUMP JUMPDEST PUSH0 DUP3 DUP3 MSTORE PUSH1 0x20 DUP3 ADD SWAP1 POP SWAP3 SWAP2 POP POP JUMP JUMPDEST PUSH0 DUP2 SWAP1 POP PUSH1 0x20 DUP3 ADD SWAP1 POP SWAP2 SWAP1 POP JUMP JUMPDEST PUSH0 DUP2 MLOAD SWAP1 POP SWAP2 SWAP1 POP JUMP JUMPDEST PUSH0 DUP3 DUP3 MSTORE PUSH1 0x20 DUP3 ADD SWAP1 POP SWAP3 SWAP2 POP POP JUMP JUMPDEST DUP3 DUP2 DUP4 MCOPY PUSH0 DUP4 DUP4 ADD MSTORE POP POP POP JUMP JUMPDEST PUSH0 PUSH2 0x2D8D DUP3 PUSH2 0x2D5B JUMP JUMPDEST PUSH2 0x2D97 DUP2 DUP6 PUSH2 0x2D65 JUMP JUMPDEST SWAP4 POP PUSH2 0x2DA7 DUP2 DUP6 PUSH1 0x20 DUP7 ADD PUSH2 0x2D75 JUMP JUMPDEST PUSH2 0x2DB0 DUP2 PUSH2 0x2A67 JUMP JUMPDEST DUP5 ADD SWAP2 POP POP SWAP3 SWAP2 POP POP JUMP JUMPDEST PUSH0 PUSH2 0x2DC6 DUP4 DUP4 PUSH2 0x2D83 JUMP JUMPDEST SWAP1 POP SWAP3 SWAP2 POP POP JUMP JUMPDEST PUSH0 PUSH1 0x20 DUP3 ADD SWAP1 POP SWAP2 SWAP1 POP JUMP JUMPDEST PUSH0 PUSH2 0x2DE4 DUP3 PUSH2 0x2D32 JUMP JUMPDEST PUSH2 0x2DEE DUP2 DUP6 PUSH2 0x2D3C JUMP JUMPDEST SWAP4 POP DUP4 PUSH1 0x20 DUP3 MUL DUP6 ADD PUSH2 0x2E00 DUP6 PUSH2 0x2D4C JUMP JUMPDEST DUP1 PUSH0 JUMPDEST DUP6 DUP2 LT ISZERO PUSH2 0x2E3B JUMPI DUP5 DUP5 SUB DUP10 MSTORE DUP2 MLOAD PUSH2 0x2E1C DUP6 DUP3 PUSH2 0x2DBB JUMP JUMPDEST SWAP5 POP PUSH2 0x2E27 DUP4 PUSH2 0x2DCE JUMP JUMPDEST SWAP3 POP PUSH1 0x20 DUP11 ADD SWAP10 POP POP PUSH1 0x1 DUP2 ADD SWAP1 POP PUSH2 0x2E03 JUMP JUMPDEST POP DUP3 SWAP8 POP DUP8 SWAP6 POP POP POP POP POP POP SWAP3 SWAP2 POP POP JUMP JUMPDEST PUSH0 PUSH20 0xFFFFFFFFFFFFFFFFFFFFFFFFFFFFFFFFFFFFFFFF DUP3 AND SWAP1 POP SWAP2 SWAP1 POP JUMP JUMPDEST PUSH0 PUSH2 0x2E76 DUP3 PUSH2 0x2E4D JUMP JUMPDEST SWAP1 POP SWAP2 SWAP1 POP JUMP JUMPDEST PUSH2 0x2E86 DUP2 PUSH2 0x2E6C JUMP JUMPDEST DUP3 MSTORE POP POP JUMP JUMPDEST PUSH0 DUP3 DUP3 MSTORE PUSH1 0x20 DUP3 ADD SWAP1 POP SWAP3 SWAP2 POP POP JUMP JUMPDEST PUSH0 PUSH2 0x2EA6 DUP3 PUSH2 0x2D5B JUMP JUMPDEST PUSH2 0x2EB0 DUP2 DUP6 PUSH2 0x2E8C JUMP JUMPDEST SWAP4 POP PUSH2 0x2EC0 DUP2 DUP6 PUSH1 0x20 DUP7 ADD PUSH2 0x2D75 JUMP JUMPDEST PUSH2 0x2EC9 DUP2 PUSH2 0x2A67 JUMP JUMPDEST DUP5 ADD SWAP2 POP POP SWAP3 SWAP2 POP POP JUMP JUMPDEST PUSH0 PUSH2 0x100 DUP3 ADD SWAP1 POP DUP2 DUP2 SUB PUSH0 DUP4 ADD MSTORE PUSH2 0x2EED DUP2 DUP12 PUSH2 0x2CD6 JUMP JUMPDEST SWAP1 POP DUP2 DUP2 SUB PUSH1 0x20 DUP4 ADD MSTORE PUSH2 0x2F01 DUP2 DUP11 PUSH2 0x2DDA JUMP JUMPDEST SWAP1 POP DUP2 DUP2 SUB PUSH1 0x40 DUP4 ADD MSTORE PUSH2 0x2F15 DUP2 DUP10 PUSH2 0x2DDA JUMP JUMPDEST SWAP1 POP PUSH2 0x2F24 PUSH1 0x60 DUP4 ADD DUP9 PUSH2 0x2E7D JUMP JUMPDEST PUSH2 0x2F31 PUSH1 0x80 DUP4 ADD DUP8 PUSH2 0x2BF5 JUMP JUMPDEST PUSH2 0x2F3E PUSH1 0xA0 DUP4 ADD DUP7 PUSH2 0x2C53 JUMP JUMPDEST PUSH2 0x2F4B PUSH1 0xC0 DUP4 ADD DUP6 PUSH2 0x2BF5 JUMP JUMPDEST DUP2 DUP2 SUB PUSH1 0xE0 DUP4 ADD MSTORE PUSH2 0x2F5D DUP2 DUP5 PUSH2 0x2E9C JUMP JUMPDEST SWAP1 POP SWAP10 SWAP9 POP POP POP POP POP POP POP POP POP JUMP JUMPDEST PUSH0 PUSH1 0xC0 DUP3 ADD SWAP1 POP PUSH2 0x2F7F PUSH0 DUP4 ADD DUP10 PUSH2 0x2BF5 JUMP JUMPDEST DUP2 DUP2 SUB PUSH1 0x20 DUP4 ADD MSTORE PUSH2 0x2F91 DUP2 DUP9 PUSH2 0x2E9C JUMP JUMPDEST SWAP1 POP DUP2 DUP2 SUB PUSH1 0x40 DUP4 ADD MSTORE PUSH2 0x2FA5 DUP2 DUP8 PUSH2 0x2E9C JUMP JUMPDEST SWAP1 POP PUSH2 0x2FB4 PUSH1 0x60 DUP4 ADD DUP7 PUSH2 0x2E7D JUMP JUMPDEST PUSH2 0x2FC1 PUSH1 0x80 DUP4 ADD DUP6 PUSH2 0x2BF5 JUMP JUMPDEST PUSH2 0x2FCE PUSH1 0xA0 DUP4 ADD DUP5 PUSH2 0x2C53 JUMP JUMPDEST SWAP8 SWAP7 POP POP POP POP POP POP POP JUMP JUMPDEST PUSH2 0x2FE2 DUP2 PUSH2 0x2E6C JUMP JUMPDEST DUP2 EQ PUSH2 0x2FEC JUMPI PUSH0 DUP1 REVERT JUMPDEST POP JUMP JUMPDEST PUSH0 DUP2 CALLDATALOAD SWAP1 POP PUSH2 0x2FFD DUP2 PUSH2 0x2FD9 JUMP JUMPDEST SWAP3 SWAP2 POP POP JUMP JUMPDEST PUSH0 DUP1 PUSH0 DUP1 PUSH1 0x80 DUP6 DUP8 SUB SLT ISZERO PUSH2 0x301B JUMPI PUSH2 0x301A PUSH2 0x2A24 JUMP JUMPDEST JUMPDEST PUSH0 PUSH2 0x3028 DUP8 DUP3 DUP9 ADD PUSH2 0x2A4B JUMP JUMPDEST SWAP5 POP POP PUSH1 0x20 PUSH2 0x3039 DUP8 DUP3 DUP9 ADD PUSH2 0x2FEF JUMP JUMPDEST SWAP4 POP POP PUSH1 0x40 DUP6 ADD CALLDATALOAD PUSH8 0xFFFFFFFFFFFFFFFF DUP2 GT ISZERO PUSH2 0x305A JUMPI PUSH2 0x3059 PUSH2 0x2A28 JUMP JUMPDEST JUMPDEST PUSH2 0x3066 DUP8 DUP3 DUP9 ADD PUSH2 0x2B6E JUMP JUMPDEST SWAP3 POP POP PUSH1 0x60 DUP6 ADD CALLDATALOAD PUSH8 0xFFFFFFFFFFFFFFFF DUP2 GT ISZERO PUSH2 0x3087 JUMPI PUSH2 0x3086 PUSH2 0x2A28 JUMP JUMPDEST JUMPDEST PUSH2 0x3093 DUP8 DUP3 DUP9 ADD PUSH2 0x2B6E JUMP JUMPDEST SWAP2 POP POP SWAP3 SWAP6 SWAP2 SWAP5 POP SWAP3 POP JUMP JUMPDEST PUSH0 DUP1 PUSH1 0x40 DUP4 DUP6 SUB SLT ISZERO PUSH2 0x30B5 JUMPI PUSH2 0x30B4 PUSH2 0x2A24 JUMP JUMPDEST JUMPDEST PUSH0 PUSH2 0x30C2 DUP6 DUP3 DUP7 ADD PUSH2 0x2A4B JUMP JUMPDEST SWAP3 POP POP PUSH1 0x20 PUSH2 0x30D3 DUP6 DUP3 DUP7 ADD PUSH2 0x2FEF JUMP JUMPDEST SWAP2 POP POP SWAP3 POP SWAP3 SWAP1 POP JUMP JUMPDEST PUSH0 PUSH1 0x20 DUP3 DUP5 SUB SLT ISZERO PUSH2 0x30F2 JUMPI PUSH2 0x30F1 PUSH2 0x2A24 JUMP JUMPDEST JUMPDEST PUSH0 PUSH2 0x30FF DUP5 DUP3 DUP6 ADD PUSH2 0x2FEF JUMP JUMPDEST SWAP2 POP POP SWAP3 SWAP2 POP POP JUMP JUMPDEST PUSH0 PUSH1 0x20 DUP3 ADD SWAP1 POP PUSH2 0x311B PUSH0 DUP4 ADD DUP5 PUSH2 0x2E7D JUMP JUMPDEST SWAP3 SWAP2 POP POP JUMP JUMPDEST PUSH0 DUP1 PUSH1 0x40 DUP4 DUP6 SUB SLT ISZERO PUSH2 0x3137 JUMPI PUSH2 0x3136 PUSH2 0x2A24 JUMP JUMPDEST JUMPDEST PUSH0 DUP4 ADD CALLDATALOAD PUSH8 0xFFFFFFFFFFFFFFFF DUP2 GT ISZERO PUSH2 0x3154 JUMPI PUSH2 0x3153 PUSH2 0x2A28 JUMP JUMPDEST JUMPDEST PUSH2 0x3160 DUP6 DUP3 DUP7 ADD PUSH2 0x2B6E JUMP JUMPDEST SWAP3 POP POP PUSH1 0x20 DUP4 ADD CALLDATALOAD PUSH8 0xFFFFFFFFFFFFFFFF DUP2 GT ISZERO PUSH2 0x3181 JUMPI PUSH2 0x3180 PUSH2 0x2A28 JUMP JUMPDEST JUMPDEST PUSH2 0x318D DUP6 DUP3 DUP7 ADD PUSH2 0x2B6E JUMP JUMPDEST SWAP2 POP POP SWAP3 POP SWAP3 SWAP1 POP JUMP JUMPDEST PUSH0 PUSH1 0xA0 DUP3 ADD SWAP1 POP PUSH2 0x31AA PUSH0 DUP4 ADD DUP9 PUSH2 0x2E7D JUMP JUMPDEST PUSH2 0x31B7 PUSH1 0x20 DUP4 ADD DUP8 PUSH2 0x2BF5 JUMP JUMPDEST PUSH2 0x31C4 PUSH1 0x40 DUP4 ADD DUP7 PUSH2 0x2C53 JUMP JUMPDEST PUSH2 0x31D1 PUSH1 0x60 DUP4 ADD DUP6 PUSH2 0x2BF5 JUMP JUMPDEST DUP2 DUP2 SUB PUSH1 0x80 DUP4 ADD MSTORE PUSH2 0x31E3 DUP2 DUP5 PUSH2 0x2E9C JUMP JUMPDEST SWAP1 POP SWAP7 SWAP6 POP POP POP POP POP POP JUMP JUMPDEST PUSH0 PUSH1 0xA0 DUP3 ADD SWAP1 POP PUSH2 0x3202 PUSH0 DUP4 ADD DUP9 PUSH2 0x2BF5 JUMP JUMPDEST DUP2 DUP2 SUB PUSH1 0x20 DUP4 ADD MSTORE PUSH2 0x3214 DUP2 DUP8 PUSH2 0x2E9C JUMP JUMPDEST SWAP1 POP PUSH2 0x3223 PUSH1 0x40 DUP4 ADD DUP7 PUSH2 0x2E7D JUMP JUMPDEST PUSH2 0x3230 PUSH1 0x60 DUP4 ADD DUP6 PUSH2 0x2BF5 JUMP JUMPDEST PUSH2 0x323D PUSH1 0x80 DUP4 ADD DUP5 PUSH2 0x2C53 JUMP JUMPDEST SWAP7 SWAP6 POP POP POP POP POP POP JUMP JUMPDEST PUSH0 PUSH1 0x20 DUP3 ADD SWAP1 POP DUP2 DUP2 SUB PUSH0 DUP4 ADD MSTORE PUSH2 0x325F DUP2 DUP5 PUSH2 0x2E9C JUMP JUMPDEST SWAP1 POP SWAP3 SWAP2 POP POP JUMP JUMPDEST PUSH0 PUSH8 0xFFFFFFFFFFFFFFFF DUP3 GT ISZERO PUSH2 0x3281 JUMPI PUSH2 0x3280 PUSH2 0x2A77 JUMP JUMPDEST JUMPDEST PUSH1 0x20 DUP3 MUL SWAP1 POP PUSH1 0x20 DUP2 ADD SWAP1 POP SWAP2 SWAP1 POP JUMP JUMPDEST PUSH0 DUP1 REVERT JUMPDEST PUSH0 PUSH2 0x32A8 PUSH2 0x32A3 DUP5 PUSH2 0x3267 JUMP JUMPDEST PUSH2 0x2AD5 JUMP JUMPDEST SWAP1 POP DUP1 DUP4 DUP3 MSTORE PUSH1 0x20 DUP3 ADD SWAP1 POP PUSH1 0x20 DUP5 MUL DUP4 ADD DUP6 DUP2 GT ISZERO PUSH2 0x32CB JUMPI PUSH2 0x32CA PUSH2 0x3292 JUMP JUMPDEST JUMPDEST DUP4 JUMPDEST DUP2 DUP2 LT ISZERO PUSH2 0x32F4 JUMPI DUP1 PUSH2 0x32E0 DUP9 DUP3 PUSH2 0x2A4B JUMP JUMPDEST DUP5 MSTORE PUSH1 0x20 DUP5 ADD SWAP4 POP POP PUSH1 0x20 DUP2 ADD SWAP1 POP PUSH2 0x32CD JUMP JUMPDEST POP POP POP SWAP4 SWAP3 POP POP POP JUMP JUMPDEST PUSH0 DUP3 PUSH1 0x1F DUP4 ADD SLT PUSH2 0x3312 JUMPI PUSH2 0x3311 PUSH2 0x2A5F JUMP JUMPDEST JUMPDEST DUP2 CALLDATALOAD PUSH2 0x3322 DUP5 DUP3 PUSH1 0x20 DUP7 ADD PUSH2 0x3296 JUMP JUMPDEST SWAP2 POP POP SWAP3 SWAP2 POP POP JUMP JUMPDEST PUSH0 PUSH8 0xFFFFFFFFFFFFFFFF DUP3 GT ISZERO PUSH2 0x3345 JUMPI PUSH2 0x3344 PUSH2 0x2A77 JUMP JUMPDEST JUMPDEST PUSH1 0x20 DUP3 MUL SWAP1 POP PUSH1 0x20 DUP2 ADD SWAP1 POP SWAP2 SWAP1 POP JUMP JUMPDEST PUSH0 PUSH2 0x3368 PUSH2 0x3363 DUP5 PUSH2 0x332B JUMP JUMPDEST PUSH2 0x2AD5 JUMP JUMPDEST SWAP1 POP DUP1 DUP4 DUP3 MSTORE PUSH1 0x20 DUP3 ADD SWAP1 POP PUSH1 0x20 DUP5 MUL DUP4 ADD DUP6 DUP2 GT ISZERO PUSH2 0x338B JUMPI PUSH2 0x338A PUSH2 0x3292 JUMP JUMPDEST JUMPDEST DUP4 JUMPDEST DUP2 DUP2 LT ISZERO PUSH2 0x33D2 JUMPI DUP1 CALLDATALOAD PUSH8 0xFFFFFFFFFFFFFFFF DUP2 GT ISZERO PUSH2 0x33B0 JUMPI PUSH2 0x33AF PUSH2 0x2A5F JUMP JUMPDEST JUMPDEST DUP1 DUP7 ADD PUSH2 0x33BD DUP10 DUP3 PUSH2 0x2B6E JUMP JUMPDEST DUP6 MSTORE PUSH1 0x20 DUP6 ADD SWAP5 POP POP POP PUSH1 0x20 DUP2 ADD SWAP1 POP PUSH2 0x338D JUMP JUMPDEST POP POP POP SWAP4 SWAP3 POP POP POP JUMP JUMPDEST PUSH0 DUP3 PUSH1 0x1F DUP4 ADD SLT PUSH2 0x33F0 JUMPI PUSH2 0x33EF PUSH2 0x2A5F JUMP JUMPDEST JUMPDEST DUP2 CALLDATALOAD PUSH2 0x3400 DUP5 DUP3 PUSH1 0x20 DUP7 ADD PUSH2 0x3356 JUMP JUMPDEST SWAP2 POP POP SWAP3 SWAP2 POP POP JUMP JUMPDEST PUSH0 DUP1 PUSH0 DUP1 PUSH1 0x80 DUP6 DUP8 SUB SLT ISZERO PUSH2 0x3421 JUMPI PUSH2 0x3420 PUSH2 0x2A24 JUMP JUMPDEST JUMPDEST PUSH0 DUP6 ADD CALLDATALOAD PUSH8 0xFFFFFFFFFFFFFFFF DUP2 GT ISZERO PUSH2 0x343E JUMPI PUSH2 0x343D PUSH2 0x2A28 JUMP JUMPDEST JUMPDEST PUSH2 0x344A DUP8 DUP3 DUP9 ADD PUSH2 0x32FE JUMP JUMPDEST SWAP5 POP POP PUSH1 0x20 DUP6 ADD CALLDATALOAD PUSH8 0xFFFFFFFFFFFFFFFF DUP2 GT ISZERO PUSH2 0x346B JUMPI PUSH2 0x346A PUSH2 0x2A28 JUMP JUMPDEST JUMPDEST PUSH2 0x3477 DUP8 DUP3 DUP9 ADD PUSH2 0x33DC JUMP JUMPDEST SWAP4 POP POP PUSH1 0x40 DUP6 ADD CALLDATALOAD PUSH8 0xFFFFFFFFFFFFFFFF DUP2 GT ISZERO PUSH2 0x3498 JUMPI PUSH2 0x3497 PUSH2 0x2A28 JUMP JUMPDEST JUMPDEST PUSH2 0x34A4 DUP8 DUP3 DUP9 ADD PUSH2 0x33DC JUMP JUMPDEST SWAP3 POP POP PUSH1 0x60 DUP6 ADD CALLDATALOAD PUSH8 0xFFFFFFFFFFFFFFFF DUP2 GT ISZERO PUSH2 0x34C5 JUMPI PUSH2 0x34C4 PUSH2 0x2A28 JUMP JUMPDEST JUMPDEST PUSH2 0x34D1 DUP8 DUP3 DUP9 ADD PUSH2 0x2B6E JUMP JUMPDEST SWAP2 POP POP SWAP3 SWAP6 SWAP2 SWAP5 POP SWAP3 POP JUMP JUMPDEST PUSH32 0x4E6F7420617574686F72697A6564000000000000000000000000000000000000 PUSH0 DUP3 ADD MSTORE POP JUMP JUMPDEST PUSH0 PUSH2 0x3511 PUSH1 0xE DUP4 PUSH2 0x2E8C JUMP JUMPDEST SWAP2 POP PUSH2 0x351C DUP3 PUSH2 0x34DD JUMP JUMPDEST PUSH1 0x20 DUP3 ADD SWAP1 POP SWAP2 SWAP1 POP JUMP JUMPDEST PUSH0 PUSH1 0x20 DUP3 ADD SWAP1 POP DUP2 DUP2 SUB PUSH0 DUP4 ADD MSTORE PUSH2 0x353E DUP2 PUSH2 0x3505 JUMP JUMPDEST SWAP1 POP SWAP2 SWAP1 POP JUMP JUMPDEST PUSH32 0x426174636820646F65736E277420657869737400000000000000000000000000 PUSH0 DUP3 ADD MSTORE POP JUMP JUMPDEST PUSH0 PUSH2 0x3579 PUSH1 0x13 DUP4 PUSH2 0x2E8C JUMP JUMPDEST SWAP2 POP PUSH2 0x3584 DUP3 PUSH2 0x3545 JUMP JUMPDEST PUSH1 0x20 DUP3 ADD SWAP1 POP SWAP2 SWAP1 POP JUMP JUMPDEST PUSH0 PUSH1 0x20 DUP3 ADD SWAP1 POP DUP2 DUP2 SUB PUSH0 DUP4 ADD MSTORE PUSH2 0x35A6 DUP2 PUSH2 0x356D JUMP JUMPDEST SWAP1 POP SWAP2 SWAP1 POP JUMP JUMPDEST PUSH32 0x426174636820616C726561647920726563616C6C656400000000000000000000 PUSH0 DUP3 ADD MSTORE POP JUMP JUMPDEST PUSH0 PUSH2 0x35E1 PUSH1 0x16 DUP4 PUSH2 0x2E8C JUMP JUMPDEST SWAP2 POP PUSH2 0x35EC DUP3 PUSH2 0x35AD JUMP JUMPDEST PUSH1 0x20 DUP3 ADD SWAP1 POP SWAP2 SWAP1 POP JUMP JUMPDEST PUSH0 PUSH1 0x20 DUP3 ADD SWAP1 POP DUP2 DUP2 SUB PUSH0 DUP4 ADD MSTORE PUSH2 0x360E DUP2 PUSH2 0x35D5 JUMP JUMPDEST SWAP1 POP SWAP2 SWAP1 POP JUMP JUMPDEST PUSH32 0x4E487B7100000000000000000000000000000000000000000000000000000000 PUSH0 MSTORE PUSH1 0x32 PUSH1 0x4 MSTORE PUSH1 0x24 PUSH0 REVERT JUMPDEST PUSH32 0x497420646F65736E742065786973747300000000000000000000000000000000 PUSH0 DUP3 ADD MSTORE POP JUMP JUMPDEST PUSH0 PUSH2 0x3676 PUSH1 0x10 DUP4 PUSH2 0x2E8C JUMP JUMPDEST SWAP2 POP PUSH2 0x3681 DUP3 PUSH2 0x3642 JUMP JUMPDEST PUSH1 0x20 DUP3 ADD SWAP1 POP SWAP2 SWAP1 POP JUMP JUMPDEST PUSH0 PUSH1 0x20 DUP3 ADD SWAP1 POP DUP2 DUP2 SUB PUSH0 DUP4 ADD MSTORE PUSH2 0x36A3 DUP2 PUSH2 0x366A JUMP JUMPDEST SWAP1 POP SWAP2 SWAP1 POP JUMP JUMPDEST PUSH32 0x4E487B7100000000000000000000000000000000000000000000000000000000 PUSH0 MSTORE PUSH1 0x22 PUSH1 0x4 MSTORE PUSH1 0x24 PUSH0 REVERT JUMPDEST PUSH0 PUSH1 0x2 DUP3 DIV SWAP1 POP PUSH1 0x1 DUP3 AND DUP1 PUSH2 0x36EE JUMPI PUSH1 0x7F DUP3 AND SWAP2 POP JUMPDEST PUSH1 0x20 DUP3 LT DUP2 SUB PUSH2 0x3701 JUMPI PUSH2 0x3700 PUSH2 0x36AA JUMP JUMPDEST JUMPDEST POP SWAP2 SWAP1 POP JUMP JUMPDEST PUSH32 0x426174636820697320726563616C6C6564000000000000000000000000000000 PUSH0 DUP3 ADD MSTORE POP JUMP JUMPDEST PUSH0 PUSH2 0x373B PUSH1 0x11 DUP4 PUSH2 0x2E8C JUMP JUMPDEST SWAP2 POP PUSH2 0x3746 DUP3 PUSH2 0x3707 JUMP JUMPDEST PUSH1 0x20 DUP3 ADD SWAP1 POP SWAP2 SWAP1 POP JUMP JUMPDEST PUSH0 PUSH1 0x20 DUP3 ADD SWAP1 POP DUP2 DUP2 SUB PUSH0 DUP4 ADD MSTORE PUSH2 0x3768 DUP2 PUSH2 0x372F JUMP JUMPDEST SWAP1 POP SWAP2 SWAP1 POP JUMP JUMPDEST PUSH32 0x6E65774F776E65722063616E742062652061207A65726F206164647265737300 PUSH0 DUP3 ADD MSTORE POP JUMP JUMPDEST PUSH0 PUSH2 0x37A3 PUSH1 0x1F DUP4 PUSH2 0x2E8C JUMP JUMPDEST SWAP2 POP PUSH2 0x37AE DUP3 PUSH2 0x376F JUMP JUMPDEST PUSH1 0x20 DUP3 ADD SWAP1 POP SWAP2 SWAP1 POP JUMP JUMPDEST PUSH0 PUSH1 0x20 DUP3 ADD SWAP1 POP DUP2 DUP2 SUB PUSH0 DUP4 ADD MSTORE PUSH2 0x37D0 DUP2 PUSH2 0x3797 JUMP JUMPDEST SWAP1 POP SWAP2 SWAP1 POP JUMP JUMPDEST PUSH0 DUP2 SWAP1 POP SWAP3 SWAP2 POP POP JUMP JUMPDEST PUSH32 0x7265676973746572426174636800000000000000000000000000000000000000 PUSH0 DUP3 ADD MSTORE POP JUMP JUMPDEST PUSH0 PUSH2 0x3815 PUSH1 0xD DUP4 PUSH2 0x37D7 JUMP JUMPDEST SWAP2 POP PUSH2 0x3820 DUP3 PUSH2 0x37E1 JUMP JUMPDEST PUSH1 0xD DUP3 ADD SWAP1 POP SWAP2 SWAP1 POP JUMP JUMPDEST PUSH0 PUSH2 0x3835 DUP3 PUSH2 0x3809 JUMP JUMPDEST SWAP2 POP DUP2 SWAP1 POP SWAP2 SWAP1 POP JUMP JUMPDEST PUSH0 PUSH2 0x3849 DUP3 PUSH2 0x2D5B JUMP JUMPDEST PUSH2 0x3853 DUP2 DUP6 PUSH2 0x37D7 JUMP JUMPDEST SWAP4 POP PUSH2 0x3863 DUP2 DUP6 PUSH1 0x20 DUP7 ADD PUSH2 0x2D75 JUMP JUMPDEST DUP1 DUP5 ADD SWAP2 POP POP SWAP3 SWAP2 POP POP JUMP JUMPDEST PUSH0 PUSH2 0x387A DUP3 DUP5 PUSH2 0x383F JUMP JUMPDEST SWAP2 POP DUP2 SWAP1 POP SWAP3 SWAP2 POP POP JUMP JUMPDEST PUSH32 0x426174636820494473206D75737420626520656D70747920666F722072656769 PUSH0 DUP3 ADD MSTORE PUSH32 0x7374726174696F6E000000000000000000000000000000000000000000000000 PUSH1 0x20 DUP3 ADD MSTORE POP JUMP JUMPDEST PUSH0 PUSH2 0x38DF PUSH1 0x28 DUP4 PUSH2 0x2E8C JUMP JUMPDEST SWAP2 POP PUSH2 0x38EA DUP3 PUSH2 0x3885 JUMP JUMPDEST PUSH1 0x40 DUP3 ADD SWAP1 POP SWAP2 SWAP1 POP JUMP JUMPDEST PUSH0 PUSH1 0x20 DUP3 ADD SWAP1 POP DUP2 DUP2 SUB PUSH0 DUP4 ADD MSTORE PUSH2 0x390C DUP2 PUSH2 0x38D3 JUMP JUMPDEST SWAP1 POP SWAP2 SWAP1 POP JUMP JUMPDEST PUSH32 0x4E487B7100000000000000000000000000000000000000000000000000000000 PUSH0 MSTORE PUSH1 0x11 PUSH1 0x4 MSTORE PUSH1 0x24 PUSH0 REVERT JUMPDEST PUSH0 PUSH2 0x394A DUP3 PUSH2 0x2A2C JUMP JUMPDEST SWAP2 POP PUSH32 0xFFFFFFFFFFFFFFFFFFFFFFFFFFFFFFFFFFFFFFFFFFFFFFFFFFFFFFFFFFFFFFFF DUP3 SUB PUSH2 0x397C JUMPI PUSH2 0x397B PUSH2 0x3913 JUMP JUMPDEST JUMPDEST PUSH1 0x1 DUP3 ADD SWAP1 POP SWAP2 SWAP1 POP JUMP JUMPDEST PUSH0 DUP2 SWAP1 POP DUP2 PUSH0 MSTORE PUSH1 0x20 PUSH0 KECCAK256 SWAP1 POP SWAP2 SWAP1 POP JUMP JUMPDEST PUSH0 PUSH1 0x20 PUSH1 0x1F DUP4 ADD DIV SWAP1 POP SWAP2 SWAP1 POP JUMP JUMPDEST PUSH0 DUP3 DUP3 SHL SWAP1 POP SWAP3 SWAP2 POP POP JUMP JUMPDEST PUSH0 PUSH1 0x8 DUP4 MUL PUSH2 0x39E3 PUSH32 0xFFFFFFFFFFFFFFFFFFFFFFFFFFFFFFFFFFFFFFFFFFFFFFFFFFFFFFFFFFFFFFFF DUP3 PUSH2 0x39A8 JUMP JUMPDEST PUSH2 0x39ED DUP7 DUP4 PUSH2 0x39A8 JUMP JUMPDEST SWAP6 POP DUP1 NOT DUP5 AND SWAP4 POP DUP1 DUP7 AND DUP5 OR SWAP3 POP POP POP SWAP4 SWAP3 POP POP POP JUMP JUMPDEST PUSH0 DUP2 SWAP1 POP SWAP2 SWAP1 POP JUMP JUMPDEST PUSH0 PUSH2 0x3A28 PUSH2 0x3A23 PUSH2 0x3A1E DUP5 PUSH2 0x2A2C JUMP JUMPDEST PUSH2 0x3A05 JUMP JUMPDEST PUSH2 0x2A2C JUMP JUMPDEST SWAP1 POP SWAP2 SWAP1 POP JUMP JUMPDEST PUSH0 DUP2 SWAP1 POP SWAP2 SWAP1 POP JUMP JUMPDEST PUSH2 0x3A41 DUP4 PUSH2 0x3A0E JUMP JUMPDEST PUSH2 0x3A55 PUSH2 0x3A4D DUP3 PUSH2 0x3A2F JUMP JUMPDEST DUP5 DUP5 SLOAD PUSH2 0x39B4 JUMP JUMPDEST DUP3 SSTORE POP POP POP POP JUMP JUMPDEST PUSH0 SWAP1 JUMP JUMPDEST PUSH2 0x3A69 PUSH2 0x3A5D JUMP JUMPDEST PUSH2 0x3A74 DUP2 DUP5 DUP5 PUSH2 0x3A38 JUMP JUMPDEST POP POP POP JUMP JUMPDEST JUMPDEST DUP2 DUP2 LT ISZERO PUSH2 0x3A97 JUMPI PUSH2 0x3A8C PUSH0 DUP3 PUSH2 0x3A61 JUMP JUMPDEST PUSH1 0x1 DUP2 ADD SWAP1 POP PUSH2 0x3A7A JUMP JUMPDEST POP POP JUMP JUMPDEST PUSH1 0x1F DUP3 GT ISZERO PUSH2 0x3ADC JUMPI PUSH2 0x3AAD DUP2 PUSH2 0x3987 JUMP JUMPDEST PUSH2 0x3AB6 DUP5 PUSH2 0x3999 JUMP JUMPDEST DUP2 ADD PUSH1 0x20 DUP6 LT ISZERO PUSH2 0x3AC5 JUMPI DUP2 SWAP1 POP JUMPDEST PUSH2 0x3AD9 PUSH2 0x3AD1 DUP6 PUSH2 0x3999 JUMP JUMPDEST DUP4 ADD DUP3 PUSH2 0x3A79 JUMP JUMPDEST POP POP JUMPDEST POP POP POP JUMP JUMPDEST PUSH0 DUP3 DUP3 SHR SWAP1 POP SWAP3 SWAP2 POP POP JUMP JUMPDEST PUSH0 PUSH2 0x3AFC PUSH0 NOT DUP5 PUSH1 0x8 MUL PUSH2 0x3AE1 JUMP JUMPDEST NOT DUP1 DUP4 AND SWAP2 POP POP SWAP3 SWAP2 POP POP JUMP JUMPDEST PUSH0 PUSH2 0x3B14 DUP4 DUP4 PUSH2 0x3AED JUMP JUMPDEST SWAP2 POP DUP3 PUSH1 0x2 MUL DUP3 OR SWAP1 POP SWAP3 SWAP2 POP POP JUMP JUMPDEST PUSH2 0x3B2D DUP3 PUSH2 0x2D5B JUMP JUMPDEST PUSH8 0xFFFFFFFFFFFFFFFF DUP2 GT ISZERO PUSH2 0x3B46 JUMPI PUSH2 0x3B45 PUSH2 0x2A77 JUMP JUMPDEST JUMPDEST PUSH2 0x3B50 DUP3 SLOAD PUSH2 0x36D7 JUMP JUMPDEST PUSH2 0x3B5B DUP3 DUP3 DUP6 PUSH2 0x3A9B JUMP JUMPDEST PUSH0 PUSH1 0x20 SWAP1 POP PUSH1 0x1F DUP4 GT PUSH1 0x1 DUP2 EQ PUSH2 0x3B8C JUMPI PUSH0 DUP5 ISZERO PUSH2 0x3B7A JUMPI DUP3 DUP8 ADD MLOAD SWAP1 POP JUMPDEST PUSH2 0x3B84 DUP6 DUP3 PUSH2 0x3B09 JUMP JUMPDEST DUP7 SSTORE POP PUSH2 0x3BEB JUMP JUMPDEST PUSH1 0x1F NOT DUP5 AND PUSH2 0x3B9A DUP7 PUSH2 0x3987 JUMP JUMPDEST PUSH0 JUMPDEST DUP3 DUP2 LT ISZERO PUSH2 0x3BC1 JUMPI DUP5 DUP10 ADD MLOAD DUP3 SSTORE PUSH1 0x1 DUP3 ADD SWAP2 POP PUSH1 0x20 DUP6 ADD SWAP5 POP PUSH1 0x20 DUP2 ADD SWAP1 POP PUSH2 0x3B9C JUMP JUMPDEST DUP7 DUP4 LT ISZERO PUSH2 0x3BDE JUMPI DUP5 DUP10 ADD MLOAD PUSH2 0x3BDA PUSH1 0x1F DUP10 AND DUP3 PUSH2 0x3AED JUMP JUMPDEST DUP4 SSTORE POP JUMPDEST PUSH1 0x1 PUSH1 0x2 DUP9 MUL ADD DUP9 SSTORE POP POP POP JUMPDEST POP POP POP POP POP POP JUMP JUMPDEST PUSH0 DUP2 SLOAD PUSH2 0x3BFF DUP2 PUSH2 0x36D7 JUMP JUMPDEST PUSH2 0x3C09 DUP2 DUP7 PUSH2 0x2E8C JUMP JUMPDEST SWAP5 POP PUSH1 0x1 DUP3 AND PUSH0 DUP2 EQ PUSH2 0x3C23 JUMPI PUSH1 0x1 DUP2 EQ PUSH2 0x3C39 JUMPI PUSH2 0x3C6B JUMP JUMPDEST PUSH1 0xFF NOT DUP4 AND DUP7 MSTORE DUP2 ISZERO ISZERO PUSH1 0x20 MUL DUP7 ADD SWAP4 POP PUSH2 0x3C6B JUMP JUMPDEST PUSH2 0x3C42 DUP6 PUSH2 0x3987 JUMP JUMPDEST PUSH0 JUMPDEST DUP4 DUP2 LT ISZERO PUSH2 0x3C63 JUMPI DUP2 SLOAD DUP2 DUP10 ADD MSTORE PUSH1 0x1 DUP3 ADD SWAP2 POP PUSH1 0x20 DUP2 ADD SWAP1 POP PUSH2 0x3C44 JUMP JUMPDEST DUP1 DUP9 ADD SWAP6 POP POP POP JUMPDEST POP POP POP SWAP3 SWAP2 POP POP JUMP JUMPDEST PUSH0 PUSH1 0x20 DUP3 ADD SWAP1 POP DUP2 DUP2 SUB PUSH0 DUP4 ADD MSTORE PUSH2 0x3C8C DUP2 DUP5 PUSH2 0x3BF3 JUMP JUMPDEST SWAP1 POP SWAP3 SWAP2 POP POP JUMP JUMPDEST PUSH32 0x7472616E73666572426174636800000000000000000000000000000000000000 PUSH0 DUP3 ADD MSTORE POP JUMP JUMPDEST PUSH0 PUSH2 0x3CC8 PUSH1 0xD DUP4 PUSH2 0x37D7 JUMP JUMPDEST SWAP2 POP PUSH2 0x3CD3 DUP3 PUSH2 0x3C94 JUMP JUMPDEST PUSH1 0xD DUP3 ADD SWAP1 POP SWAP2 SWAP1 POP JUMP JUMPDEST PUSH0 PUSH2 0x3CE8 DUP3 PUSH2 0x3CBC JUMP JUMPDEST SWAP2 POP DUP2 SWAP1 POP SWAP2 SWAP1 POP JUMP JUMPDEST PUSH0 PUSH1 0x40 DUP3 ADD SWAP1 POP PUSH2 0x3D05 PUSH0 DUP4 ADD DUP6 PUSH2 0x2E7D JUMP JUMPDEST PUSH2 0x3D12 PUSH1 0x20 DUP4 ADD DUP5 PUSH2 0x2E7D JUMP JUMPDEST SWAP4 SWAP3 POP POP POP JUMP JUMPDEST PUSH32 0x726563616C6C4261746368000000000000000000000000000000000000000000 PUSH0 DUP3 ADD MSTORE POP JUMP JUMPDEST PUSH0 PUSH2 0x3D4D PUSH1 0xB DUP4 PUSH2 0x37D7 JUMP JUMPDEST SWAP2 POP PUSH2 0x3D58 DUP3 PUSH2 0x3D19 JUMP JUMPDEST PUSH1 0xB DUP3 ADD SWAP1 POP SWAP2 SWAP1 POP JUMP JUMPDEST PUSH0 PUSH2 0x3D6D DUP3 PUSH2 0x3D41 JUMP JUMPDEST SWAP2 POP DUP2 SWAP1 POP SWAP2 SWAP1 POP JUMP JUMPDEST PUSH32 0x496E76616C6964206F7065726174696F6E000000000000000000000000000000 PUSH0 DUP3 ADD MSTORE POP JUMP JUMPDEST PUSH0 PUSH2 0x3DAB PUSH1 0x11 DUP4 PUSH2 0x2E8C JUMP JUMPDEST SWAP2 POP PUSH2 0x3DB6 DUP3 PUSH2 0x3D77 JUMP JUMPDEST PUSH1 0x20 DUP3 ADD SWAP1 POP SWAP2 SWAP1 POP JUMP JUMPDEST PUSH0 PUSH1 0x20 DUP3 ADD SWAP1 POP DUP2 DUP2 SUB PUSH0 DUP4 ADD MSTORE PUSH2 0x3DD8 DUP2 PUSH2 0x3D9F JUMP JUMPDEST SWAP1 POP SWAP2 SWAP1 POP JUMP JUMPDEST PUSH32 0x496E76616C69642070726F647563742049440000000000000000000000000000 PUSH0 DUP3 ADD MSTORE POP JUMP JUMPDEST PUSH0 PUSH2 0x3E13 PUSH1 0x12 DUP4 PUSH2 0x2E8C JUMP JUMPDEST SWAP2 POP PUSH2 0x3E1E DUP3 PUSH2 0x3DDF JUMP JUMPDEST PUSH1 0x20 DUP3 ADD SWAP1 POP SWAP2 SWAP1 POP JUMP JUMPDEST PUSH0 PUSH1 0x20 DUP3 ADD SWAP1 POP DUP2 DUP2 SUB PUSH0 DUP4 ADD MSTORE PUSH2 0x3E40 DUP2 PUSH2 0x3E07 JUMP JUMPDEST SWAP1 POP SWAP2 SWAP1 POP JUMP JUMPDEST PUSH32 0x526563616C6C65642070726F64756374732063616E6E6F74206265207472616E PUSH0 DUP3 ADD MSTORE PUSH32 0x7366657272656400000000000000000000000000000000000000000000000000 PUSH1 0x20 DUP3 ADD MSTORE POP JUMP JUMPDEST PUSH0 PUSH2 0x3EA1 PUSH1 0x27 DUP4 PUSH2 0x2E8C JUMP JUMPDEST SWAP2 POP PUSH2 0x3EAC DUP3 PUSH2 0x3E47 JUMP JUMPDEST PUSH1 0x40 DUP3 ADD SWAP1 POP SWAP2 SWAP1 POP JUMP JUMPDEST PUSH0 PUSH1 0x20 DUP3 ADD SWAP1 POP DUP2 DUP2 SUB PUSH0 DUP4 ADD MSTORE PUSH2 0x3ECE DUP2 PUSH2 0x3E95 JUMP JUMPDEST SWAP1 POP SWAP2 SWAP1 POP JUMP JUMPDEST PUSH32 0x496E76616C6964206E6577206F776E6572206164647265737300000000000000 PUSH0 DUP3 ADD MSTORE POP JUMP JUMPDEST PUSH0 PUSH2 0x3F09 PUSH1 0x19 DUP4 PUSH2 0x2E8C JUMP JUMPDEST SWAP2 POP PUSH2 0x3F14 DUP3 PUSH2 0x3ED5 JUMP JUMPDEST PUSH1 0x20 DUP3 ADD SWAP1 POP SWAP2 SWAP1 POP JUMP JUMPDEST PUSH0 PUSH1 0x20 DUP3 ADD SWAP1 POP DUP2 DUP2 SUB PUSH0 DUP4 ADD MSTORE PUSH2 0x3F36 DUP2 PUSH2 0x3EFD JUMP JUMPDEST SWAP1 POP SWAP2 SWAP1 POP JUMP JUMPDEST PUSH32 0x4E6577206F776E6572206973206E6F7420617574686F72697A65640000000000 PUSH0 DUP3 ADD MSTORE POP JUMP JUMPDEST PUSH0 PUSH2 0x3F71 PUSH1 0x1B DUP4 PUSH2 0x2E8C JUMP JUMPDEST SWAP2 POP PUSH2 0x3F7C DUP3 PUSH2 0x3F3D JUMP JUMPDEST PUSH1 0x20 DUP3 ADD SWAP1 POP SWAP2 SWAP1 POP JUMP JUMPDEST PUSH0 PUSH1 0x20 DUP3 ADD SWAP1 POP DUP2 DUP2 SUB PUSH0 DUP4 ADD MSTORE PUSH2 0x3F9E DUP2 PUSH2 0x3F65 JUMP JUMPDEST SWAP1 POP SWAP2 SWAP1 POP JUMP JUMPDEST PUSH32 0x4F6E6C792063757272656E74206F776E65722063616E207472616E7366657200 PUSH0 DUP3 ADD MSTORE POP JUMP JUMPDEST PUSH0 PUSH2 0x3FD9 PUSH1 0x1F DUP4 PUSH2 0x2E8C JUMP JUMPDEST SWAP2 POP PUSH2 0x3FE4 DUP3 PUSH2 0x3FA5 JUMP JUMPDEST PUSH1 0x20 DUP3 ADD SWAP1 POP SWAP2 SWAP1 POP JUMP JUMPDEST PUSH0 PUSH1 0x20 DUP3 ADD SWAP1 POP DUP2 DUP2 SUB PUSH0 DUP4 ADD MSTORE PUSH2 0x4006 DUP2 PUSH2 0x3FCD JUMP JUMPDEST SWAP1 POP SWAP2 SWAP1 POP JUMP JUMPDEST PUSH32 0x4E616D652063616E6E6F7420626520656D707479000000000000000000000000 PUSH0 DUP3 ADD MSTORE POP JUMP JUMPDEST PUSH0 PUSH2 0x4041 PUSH1 0x14 DUP4 PUSH2 0x2E8C JUMP JUMPDEST SWAP2 POP PUSH2 0x404C DUP3 PUSH2 0x400D JUMP JUMPDEST PUSH1 0x20 DUP3 ADD SWAP1 POP SWAP2 SWAP1 POP JUMP JUMPDEST PUSH0 PUSH1 0x20 DUP3 ADD SWAP1 POP DUP2 DUP2 SUB PUSH0 DUP4 ADD MSTORE PUSH2 0x406E DUP2 PUSH2 0x4035 JUMP JUMPDEST SWAP1 POP SWAP2 SWAP1 POP JUMP JUMPDEST PUSH32 0x4465736372697074696F6E2063616E6E6F7420626520656D7074790000000000 PUSH0 DUP3 ADD MSTORE POP JUMP JUMPDEST PUSH0 PUSH2 0x40A9 PUSH1 0x1B DUP4 PUSH2 0x2E8C JUMP JUMPDEST SWAP2 POP PUSH2 0x40B4 DUP3 PUSH2 0x4075 JUMP JUMPDEST PUSH1 0x20 DUP3 ADD SWAP1 POP SWAP2 SWAP1 POP JUMP JUMPDEST PUSH0 PUSH1 0x20 DUP3 ADD SWAP1 POP DUP2 DUP2 SUB PUSH0 DUP4 ADD MSTORE PUSH2 0x40D6 DUP2 PUSH2 0x409D JUMP JUMPDEST SWAP1 POP SWAP2 SWAP1 POP JUMP JUMPDEST PUSH32 0x50726F6475637420646F65736E74206578697374730000000000000000000000 PUSH0 DUP3 ADD MSTORE POP JUMP JUMPDEST PUSH0 PUSH2 0x4111 PUSH1 0x15 DUP4 PUSH2 0x2E8C JUMP JUMPDEST SWAP2 POP PUSH2 0x411C DUP3 PUSH2 0x40DD JUMP JUMPDEST PUSH1 0x20 DUP3 ADD SWAP1 POP SWAP2 SWAP1 POP JUMP JUMPDEST PUSH0 PUSH1 0x20 DUP3 ADD SWAP1 POP DUP2 DUP2 SUB PUSH0 DUP4 ADD MSTORE PUSH2 0x413E DUP2 PUSH2 0x4105 JUMP JUMPDEST SWAP1 POP SWAP2 SWAP1 POP JUMP JUMPDEST PUSH32 0x416C726561647920726563616C6C656400000000000000000000000000000000 PUSH0 DUP3 ADD MSTORE POP JUMP JUMPDEST PUSH0 PUSH2 0x4179 PUSH1 0x10 DUP4 PUSH2 0x2E8C JUMP JUMPDEST SWAP2 POP PUSH2 0x4184 DUP3 PUSH2 0x4145 JUMP JUMPDEST PUSH1 0x20 DUP3 ADD SWAP1 POP SWAP2 SWAP1 POP JUMP JUMPDEST PUSH0 PUSH1 0x20 DUP3 ADD SWAP1 POP DUP2 DUP2 SUB PUSH0 DUP4 ADD MSTORE PUSH2 0x41A6 DUP2 PUSH2 0x416D JUMP JUMPDEST SWAP1 POP SWAP2 SWAP1 POP JUMP JUMPDEST PUSH32 0x4E6F7420746865206F776E657200000000000000000000000000000000000000 PUSH0 DUP3 ADD MSTORE POP JUMP JUMPDEST PUSH0 PUSH2 0x41E1 PUSH1 0xD DUP4 PUSH2 0x2E8C JUMP JUMPDEST SWAP2 POP PUSH2 0x41EC DUP3 PUSH2 0x41AD JUMP JUMPDEST PUSH1 0x20 DUP3 ADD SWAP1 POP SWAP2 SWAP1 POP JUMP JUMPDEST PUSH0 PUSH1 0x20 DUP3 ADD SWAP1 POP DUP2 DUP2 SUB PUSH0 DUP4 ADD MSTORE PUSH2 0x420E DUP2 PUSH2 0x41D5 JUMP JUMPDEST SWAP1 POP SWAP2 SWAP1 POP JUMP JUMPDEST PUSH32 0x496E76616C696420616464726573730000000000000000000000000000000000 PUSH0 DUP3 ADD MSTORE POP JUMP JUMPDEST PUSH0 PUSH2 0x4249 PUSH1 0xF DUP4 PUSH2 0x2E8C JUMP JUMPDEST SWAP2 POP PUSH2 0x4254 DUP3 PUSH2 0x4215 JUMP JUMPDEST PUSH1 0x20 DUP3 ADD SWAP1 POP SWAP2 SWAP1 POP JUMP JUMPDEST PUSH0 PUSH1 0x20 DUP3 ADD SWAP1 POP DUP2 DUP2 SUB PUSH0 DUP4 ADD MSTORE PUSH2 0x4276 DUP2 PUSH2 0x423D JUMP JUMPDEST SWAP1 POP SWAP2 SWAP1 POP JUMP JUMPDEST PUSH32 0x5061727469636970616E7420616C726561647920617574686F72697A65640000 PUSH0 DUP3 ADD MSTORE POP JUMP JUMPDEST PUSH0 PUSH2 0x42B1 PUSH1 0x1E DUP4 PUSH2 0x2E8C JUMP JUMPDEST SWAP2 POP PUSH2 0x42BC DUP3 PUSH2 0x427D JUMP JUMPDEST PUSH1 0x20 DUP3 ADD SWAP1 POP SWAP2 SWAP1 POP JUMP JUMPDEST PUSH0 PUSH1 0x20 DUP3 ADD SWAP1 POP DUP2 DUP2 SUB PUSH0 DUP4 ADD MSTORE PUSH2 0x42DE DUP2 PUSH2 0x42A5 JUMP JUMPDEST SWAP1 POP SWAP2 SWAP1 POP JUMP JUMPDEST PUSH32 0x466F7220726567697374657242617463682C204944206C697374206D75737420 PUSH0 DUP3 ADD MSTORE PUSH32 0x626520656D707479000000000000000000000000000000000000000000000000 PUSH1 0x20 DUP3 ADD MSTORE POP JUMP JUMPDEST PUSH0 PUSH2 0x433F PUSH1 0x28 DUP4 PUSH2 0x2E8C JUMP JUMPDEST SWAP2 POP PUSH2 0x434A DUP3 PUSH2 0x42E5 JUMP JUMPDEST PUSH1 0x40 DUP3 ADD SWAP1 POP SWAP2 SWAP1 POP JUMP JUMPDEST PUSH0 PUSH1 0x20 DUP3 ADD SWAP1 POP DUP2 DUP2 SUB PUSH0 DUP4 ADD MSTORE PUSH2 0x436C DUP2 PUSH2 0x4333 JUMP JUMPDEST SWAP1 POP SWAP2 SWAP1 POP JUMP JUMPDEST PUSH32 0x4E616D6520616E64206465736372697074696F6E206C69737473206D75737420 PUSH0 DUP3 ADD MSTORE PUSH32 0x6D6174636820696E206C656E6774680000000000000000000000000000000000 PUSH1 0x20 DUP3 ADD MSTORE POP JUMP JUMPDEST PUSH0 PUSH2 0x43CD PUSH1 0x2F DUP4 PUSH2 0x2E8C JUMP JUMPDEST SWAP2 POP PUSH2 0x43D8 DUP3 PUSH2 0x4373 JUMP JUMPDEST PUSH1 0x40 DUP3 ADD SWAP1 POP SWAP2 SWAP1 POP JUMP JUMPDEST PUSH0 PUSH1 0x20 DUP3 ADD SWAP1 POP DUP2 DUP2 SUB PUSH0 DUP4 ADD MSTORE PUSH2 0x43FA DUP2 PUSH2 0x43C1 JUMP JUMPDEST SWAP1 POP SWAP2 SWAP1 POP JUMP JUMPDEST PUSH32 0x4944206C6973742063616E6E6F7420626520656D70747920666F72206E6F6E2D PUSH0 DUP3 ADD MSTORE PUSH32 0x7265676973746572206F7065726174696F6E7300000000000000000000000000 PUSH1 0x20 DUP3 ADD MSTORE POP JUMP JUMPDEST PUSH0 PUSH2 0x445B PUSH1 0x33 DUP4 PUSH2 0x2E8C JUMP JUMPDEST SWAP2 POP PUSH2 0x4466 DUP3 PUSH2 0x4401 JUMP JUMPDEST PUSH1 0x40 DUP3 ADD SWAP1 POP SWAP2 SWAP1 POP JUMP JUMPDEST PUSH0 PUSH1 0x20 DUP3 ADD SWAP1 POP DUP2 DUP2 SUB PUSH0 DUP4 ADD MSTORE PUSH2 0x4488 DUP2 PUSH2 0x444F JUMP JUMPDEST SWAP1 POP SWAP2 SWAP1 POP JUMP JUMPDEST PUSH32 0x494420616E64206E616D65206C69737473206D757374206D6174636820696E20 PUSH0 DUP3 ADD MSTORE PUSH32 0x6C656E6774680000000000000000000000000000000000000000000000000000 PUSH1 0x20 DUP3 ADD MSTORE POP JUMP JUMPDEST PUSH0 PUSH2 0x44E9 PUSH1 0x26 DUP4 PUSH2 0x2E8C JUMP JUMPDEST SWAP2 POP PUSH2 0x44F4 DUP3 PUSH2 0x448F JUMP JUMPDEST PUSH1 0x40 DUP3 ADD SWAP1 POP SWAP2 SWAP1 POP JUMP JUMPDEST PUSH0 PUSH1 0x20 DUP3 ADD SWAP1 POP DUP2 DUP2 SUB PUSH0 DUP4 ADD MSTORE PUSH2 0x4516 DUP2 PUSH2 0x44DD JUMP JUMPDEST SWAP1 POP SWAP2 SWAP1 POP JUMP JUMPDEST PUSH32 0x494420616E64206465736372697074696F6E206C69737473206D757374206D61 PUSH0 DUP3 ADD MSTORE PUSH32 0x74636820696E206C656E67746800000000000000000000000000000000000000 PUSH1 0x20 DUP3 ADD MSTORE POP JUMP JUMPDEST PUSH0 PUSH2 0x4577 PUSH1 0x2D DUP4 PUSH2 0x2E8C JUMP JUMPDEST SWAP2 POP PUSH2 0x4582 DUP3 PUSH2 0x451D JUMP JUMPDEST PUSH1 0x40 DUP3 ADD SWAP1 POP SWAP2 SWAP1 POP JUMP JUMPDEST PUSH0 PUSH1 0x20 DUP3 ADD SWAP1 POP DUP2 DUP2 SUB PUSH0 DUP4 ADD MSTORE PUSH2 0x45A4 DUP2 PUSH2 0x456B JUMP JUMPDEST SWAP1 POP SWAP2 SWAP1 POP JUMP JUMPDEST PUSH32 0x4E616D65206C6973742063616E6E6F7420626520656D70747900000000000000 PUSH0 DUP3 ADD MSTORE POP JUMP JUMPDEST PUSH0 PUSH2 0x45DF PUSH1 0x19 DUP4 PUSH2 0x2E8C JUMP JUMPDEST SWAP2 POP PUSH2 0x45EA DUP3 PUSH2 0x45AB JUMP JUMPDEST PUSH1 0x20 DUP3 ADD SWAP1 POP SWAP2 SWAP1 POP JUMP JUMPDEST PUSH0 PUSH1 0x20 DUP3 ADD SWAP1 POP DUP2 DUP2 SUB PUSH0 DUP4 ADD MSTORE PUSH2 0x460C DUP2 PUSH2 0x45D3 JUMP JUMPDEST SWAP1 POP SWAP2 SWAP1 POP JUMP JUMPDEST PUSH32 0x44657363206C6973742063616E6E6F7420626520656D70747900000000000000 PUSH0 DUP3 ADD MSTORE POP JUMP JUMPDEST PUSH0 PUSH2 0x4647 PUSH1 0x19 DUP4 PUSH2 0x2E8C JUMP JUMPDEST SWAP2 POP PUSH2 0x4652 DUP3 PUSH2 0x4613 JUMP JUMPDEST PUSH1 0x20 DUP3 ADD SWAP1 POP SWAP2 SWAP1 POP JUMP JUMPDEST PUSH0 PUSH1 0x20 DUP3 ADD SWAP1 POP DUP2 DUP2 SUB PUSH0 DUP4 ADD MSTORE PUSH2 0x4674 DUP2 PUSH2 0x463B JUMP JUMPDEST SWAP1 POP SWAP2 SWAP1 POP JUMP INVALID LOG2 PUSH5 0x6970667358 0x22 SLT KECCAK256 0xDF LOG3 TSTORE 0xCC 0xDE EXP 0x23 0xC5 PUSH25 0x2BFE3BEC72B1330FDA5DEA611CE6BA898D93BDD884AAEE6473 PUSH16 0x6C634300081A0033A264697066735822 SLT KECCAK256 0xB0 0xD6 SWAP6 0xF7 DUP7 SGT 0x22 0xCA 0xB3 DIV 0xB8 CALL 0xA6 0xAB SWAP11 0xD6 BLOCKHASH ADDMOD 0xDA 0xC1 0xDA SWAP16 0xCF SWAP9 0xF6 PUSH14 0x6009359F26B864736F6C63430008 BYTE STOP CALLER "
		},
		"gasEstimates": {
			"creation": {
				"codeDepositCost": "8479200",
				"executionCost": "11427",
				"totalCost": "8490627"
			},
			"external": {
				"beforeAll()": "infinite",
				"testAuthorization()": "infinite",
				"testBatchRecall()": "infinite",
				"testBatchRecallAlreadyRecalled()": "infinite",
				"testBatchRegisterEmptyDesc()": "infinite",
				"testBatchRegisterEmptyName()": "infinite",
				"testBatchRegistration()": "infinite",
				"testBatchSelfOwnershipTransfer()": "infinite",
				"testBatchTransfer()": "infinite",
				"testBatchZeroAddressOwnershipTransfer()": "infinite",
				"testIndividualRegistration()": "infinite",
				"testInvalidTransfer()": "infinite",
				"testOwnershipTransfer()": "infinite",
				"testOwnershipTransferToZeroAddress()": "infinite",
				"testProductRecall()": "infinite",
				"testProductRecallAlreadyRecalled()": "infinite",
				"testProductRecallNonExistingProduct()": "infinite",
				"testReentryRecall()": "infinite",
				"testRegisterEmptyDescription()": "infinite",
				"testRegisterEmptyName()": "infinite",
				"testSelfOwnershipTransfer()": "infinite"
			}
		},
		"methodIdentifiers": {
			"beforeAll()": "7fea0d4b",
			"testAuthorization()": "4a52d5b7",
			"testBatchRecall()": "749480d2",
			"testBatchRecallAlreadyRecalled()": "39aa1208",
			"testBatchRegisterEmptyDesc()": "63718ef7",
			"testBatchRegisterEmptyName()": "88de657b",
			"testBatchRegistration()": "cbb329e9",
			"testBatchSelfOwnershipTransfer()": "ed3502ae",
			"testBatchTransfer()": "fe7c593f",
			"testBatchZeroAddressOwnershipTransfer()": "0c5085ae",
			"testIndividualRegistration()": "ce01abf0",
			"testInvalidTransfer()": "9dea947b",
			"testOwnershipTransfer()": "575fc5d5",
			"testOwnershipTransferToZeroAddress()": "86526e43",
			"testProductRecall()": "f95d102d",
			"testProductRecallAlreadyRecalled()": "49fffacb",
			"testProductRecallNonExistingProduct()": "ec07a0a3",
			"testReentryRecall()": "840efce8",
			"testRegisterEmptyDescription()": "c9190dd1",
			"testRegisterEmptyName()": "cf291207",
			"testSelfOwnershipTransfer()": "4e62263b"
		}
	},
	"abi": [
		{
			"inputs": [],
			"name": "beforeAll",
			"outputs": [],
			"stateMutability": "nonpayable",
			"type": "function"
		},
		{
			"inputs": [],
			"name": "testAuthorization",
			"outputs": [],
			"stateMutability": "nonpayable",
			"type": "function"
		},
		{
			"inputs": [],
			"name": "testBatchRecall",
			"outputs": [],
			"stateMutability": "nonpayable",
			"type": "function"
		},
		{
			"inputs": [],
			"name": "testBatchRecallAlreadyRecalled",
			"outputs": [],
			"stateMutability": "nonpayable",
			"type": "function"
		},
		{
			"inputs": [],
			"name": "testBatchRegisterEmptyDesc",
			"outputs": [],
			"stateMutability": "nonpayable",
			"type": "function"
		},
		{
			"inputs": [],
			"name": "testBatchRegisterEmptyName",
			"outputs": [],
			"stateMutability": "nonpayable",
			"type": "function"
		},
		{
			"inputs": [],
			"name": "testBatchRegistration",
			"outputs": [],
			"stateMutability": "nonpayable",
			"type": "function"
		},
		{
			"inputs": [],
			"name": "testBatchSelfOwnershipTransfer",
			"outputs": [],
			"stateMutability": "nonpayable",
			"type": "function"
		},
		{
			"inputs": [],
			"name": "testBatchTransfer",
			"outputs": [],
			"stateMutability": "nonpayable",
			"type": "function"
		},
		{
			"inputs": [],
			"name": "testBatchZeroAddressOwnershipTransfer",
			"outputs": [],
			"stateMutability": "nonpayable",
			"type": "function"
		},
		{
			"inputs": [],
			"name": "testIndividualRegistration",
			"outputs": [],
			"stateMutability": "nonpayable",
			"type": "function"
		},
		{
			"inputs": [],
			"name": "testInvalidTransfer",
			"outputs": [],
			"stateMutability": "nonpayable",
			"type": "function"
		},
		{
			"inputs": [],
			"name": "testOwnershipTransfer",
			"outputs": [],
			"stateMutability": "nonpayable",
			"type": "function"
		},
		{
			"inputs": [],
			"name": "testOwnershipTransferToZeroAddress",
			"outputs": [],
			"stateMutability": "nonpayable",
			"type": "function"
		},
		{
			"inputs": [],
			"name": "testProductRecall",
			"outputs": [],
			"stateMutability": "nonpayable",
			"type": "function"
		},
		{
			"inputs": [],
			"name": "testProductRecallAlreadyRecalled",
			"outputs": [],
			"stateMutability": "nonpayable",
			"type": "function"
		},
		{
			"inputs": [],
			"name": "testProductRecallNonExistingProduct",
			"outputs": [],
			"stateMutability": "nonpayable",
			"type": "function"
		},
		{
			"inputs": [],
			"name": "testReentryRecall",
			"outputs": [],
			"stateMutability": "nonpayable",
			"type": "function"
		},
		{
			"inputs": [],
			"name": "testRegisterEmptyDescription",
			"outputs": [],
			"stateMutability": "nonpayable",
			"type": "function"
		},
		{
			"inputs": [],
			"name": "testRegisterEmptyName",
			"outputs": [],
			"stateMutability": "nonpayable",
			"type": "function"
		},
		{
			"inputs": [],
			"name": "testSelfOwnershipTransfer",
			"outputs": [],
			"stateMutability": "nonpayable",
			"type": "function"
		}
	]
}