{
	"contracts/w62.sol": {
		"SupplyChainContract": {
			"abi": [
				{
					"inputs": [],
					"stateMutability": "nonpayable",
					"type": "constructor"
				},
				{
					"inputs": [],
					"name": "AlreadyRecalled",
					"type": "error"
				},
				{
					"inputs": [
						{
							"internalType": "string",
							"name": "paramName",
							"type": "string"
						}
					],
					"name": "EmptyParameter",
					"type": "error"
				},
				{
					"inputs": [],
					"name": "InvalidAddress",
					"type": "error"
				},
				{
					"inputs": [
						{
							"internalType": "uint256",
							"name": "productId",
							"type": "uint256"
						},
						{
							"internalType": "address",
							"name": "from",
							"type": "address"
						},
						{
							"internalType": "address",
							"name": "to",
							"type": "address"
						}
					],
					"name": "InvalidOwnershipTransfer",
					"type": "error"
				},
				{
					"inputs": [
						{
							"internalType": "uint256",
							"name": "productId",
							"type": "uint256"
						}
					],
					"name": "InvalidProductId",
					"type": "error"
				},
				{
					"inputs": [
						{
							"internalType": "uint256",
							"name": "productId",
							"type": "uint256"
						}
					],
					"name": "ProductAlreadyExists",
					"type": "error"
				},
				{
					"inputs": [],
					"name": "ProductDoesntExists",
					"type": "error"
				},
				{
					"inputs": [
						{
							"internalType": "address",
							"name": "caller",
							"type": "address"
						}
					],
					"name": "UnauthorizedAccess",
					"type": "error"
				},
				{
					"anonymous": false,
					"inputs": [
						{
							"indexed": true,
							"internalType": "uint256",
							"name": "batchId",
							"type": "uint256"
						},
						{
							"indexed": false,
							"internalType": "string",
							"name": "operation",
							"type": "string"
						}
					],
					"name": "BatchCreation",
					"type": "event"
				},
				{
					"anonymous": false,
					"inputs": [
						{
							"indexed": true,
							"internalType": "uint256",
							"name": "batchId",
							"type": "uint256"
						},
						{
							"indexed": false,
							"internalType": "string",
							"name": "operation",
							"type": "string"
						}
					],
					"name": "BatchProcessed",
					"type": "event"
				},
				{
					"anonymous": false,
					"inputs": [
						{
							"indexed": true,
							"internalType": "uint256",
							"name": "batchId",
							"type": "uint256"
						},
						{
							"indexed": false,
							"internalType": "string",
							"name": "reasons",
							"type": "string"
						}
					],
					"name": "BatchRecalled",
					"type": "event"
				},
				{
					"anonymous": false,
					"inputs": [
						{
							"indexed": true,
							"internalType": "uint256",
							"name": "productID",
							"type": "uint256"
						},
						{
							"indexed": true,
							"internalType": "address",
							"name": "previousowner",
							"type": "address"
						},
						{
							"indexed": true,
							"internalType": "address",
							"name": "newOwner",
							"type": "address"
						}
					],
					"name": "OwnershipTransferred",
					"type": "event"
				},
				{
					"anonymous": false,
					"inputs": [
						{
							"indexed": true,
							"internalType": "address",
							"name": "participant",
							"type": "address"
						}
					],
					"name": "ParticipantAuthorized",
					"type": "event"
				},
				{
					"anonymous": false,
					"inputs": [
						{
							"indexed": true,
							"internalType": "uint256",
							"name": "productID",
							"type": "uint256"
						},
						{
							"indexed": false,
							"internalType": "string",
							"name": "reasons",
							"type": "string"
						}
					],
					"name": "ProductRecalled",
					"type": "event"
				},
				{
					"anonymous": false,
					"inputs": [
						{
							"indexed": true,
							"internalType": "uint256",
							"name": "productId",
							"type": "uint256"
						},
						{
							"indexed": false,
							"internalType": "string",
							"name": "name",
							"type": "string"
						},
						{
							"indexed": true,
							"internalType": "address",
							"name": "owner",
							"type": "address"
						}
					],
					"name": "ProdustRegistered",
					"type": "event"
				},
				{
					"inputs": [
						{
							"internalType": "address",
							"name": "participant",
							"type": "address"
						}
					],
					"name": "addParticipant",
					"outputs": [],
					"stateMutability": "nonpayable",
					"type": "function"
				},
				{
					"inputs": [
						{
							"internalType": "address",
							"name": "participant",
							"type": "address"
						}
					],
					"name": "authorizeParticipant",
					"outputs": [],
					"stateMutability": "nonpayable",
					"type": "function"
				},
				{
					"inputs": [
						{
							"internalType": "address",
							"name": "",
							"type": "address"
						}
					],
					"name": "authorizedParticipants",
					"outputs": [
						{
							"internalType": "bool",
							"name": "",
							"type": "bool"
						}
					],
					"stateMutability": "view",
					"type": "function"
				},
				{
					"inputs": [],
					"name": "batchCount",
					"outputs": [
						{
							"internalType": "uint256",
							"name": "",
							"type": "uint256"
						}
					],
					"stateMutability": "view",
					"type": "function"
				},
				{
					"inputs": [
						{
							"internalType": "uint256",
							"name": "batchId",
							"type": "uint256"
						}
					],
					"name": "batchExists",
					"outputs": [
						{
							"internalType": "bool",
							"name": "",
							"type": "bool"
						}
					],
					"stateMutability": "view",
					"type": "function"
				},
				{
					"inputs": [
						{
							"internalType": "uint256",
							"name": "",
							"type": "uint256"
						}
					],
					"name": "batches",
					"outputs": [
						{
							"internalType": "address",
							"name": "currentOwner",
							"type": "address"
						},
						{
							"internalType": "uint256",
							"name": "timestamp",
							"type": "uint256"
						},
						{
							"internalType": "bool",
							"name": "isRecalled",
							"type": "bool"
						},
						{
							"internalType": "uint256",
							"name": "batchId",
							"type": "uint256"
						},
						{
							"internalType": "string",
							"name": "operation",
							"type": "string"
						}
					],
					"stateMutability": "view",
					"type": "function"
				},
				{
					"inputs": [
						{
							"internalType": "uint256[]",
							"name": "lst_id",
							"type": "uint256[]"
						},
						{
							"internalType": "string[]",
							"name": "lst_name",
							"type": "string[]"
						},
						{
							"internalType": "string[]",
							"name": "lst_description",
							"type": "string[]"
						},
						{
							"internalType": "string",
							"name": "operation",
							"type": "string"
						}
					],
					"name": "createBatch",
					"outputs": [],
					"stateMutability": "nonpayable",
					"type": "function"
				},
				{
					"inputs": [
						{
							"internalType": "uint256",
							"name": "batchIndex",
							"type": "uint256"
						}
					],
					"name": "getBatch",
					"outputs": [
						{
							"internalType": "uint256[]",
							"name": "id",
							"type": "uint256[]"
						},
						{
							"internalType": "string[]",
							"name": "name",
							"type": "string[]"
						},
						{
							"internalType": "string[]",
							"name": "description",
							"type": "string[]"
						},
						{
							"internalType": "address",
							"name": "currentOwner",
							"type": "address"
						},
						{
							"internalType": "uint256",
							"name": "timestamp",
							"type": "uint256"
						},
						{
							"internalType": "bool",
							"name": "isRecalled",
							"type": "bool"
						},
						{
							"internalType": "uint256",
							"name": "batchId",
							"type": "uint256"
						},
						{
							"internalType": "string",
							"name": "operation",
							"type": "string"
						}
					],
					"stateMutability": "view",
					"type": "function"
				},
				{
					"inputs": [
						{
							"internalType": "uint256",
							"name": "productId",
							"type": "uint256"
						}
					],
					"name": "getProduct",
					"outputs": [
						{
							"internalType": "uint256",
							"name": "id",
							"type": "uint256"
						},
						{
							"internalType": "string",
							"name": "name",
							"type": "string"
						},
						{
							"internalType": "address",
							"name": "currentOwner",
							"type": "address"
						},
						{
							"internalType": "uint256",
							"name": "timestamp",
							"type": "uint256"
						},
						{
							"internalType": "bool",
							"name": "isRecalled",
							"type": "bool"
						}
					],
					"stateMutability": "view",
					"type": "function"
				},
				{
					"inputs": [
						{
							"internalType": "uint256",
							"name": "x",
							"type": "uint256"
						}
					],
					"name": "operationConvert",
					"outputs": [
						{
							"internalType": "string",
							"name": "y",
							"type": "string"
						}
					],
					"stateMutability": "pure",
					"type": "function"
				},
				{
					"inputs": [],
					"name": "owner",
					"outputs": [
						{
							"internalType": "address",
							"name": "",
							"type": "address"
						}
					],
					"stateMutability": "view",
					"type": "function"
				},
				{
					"inputs": [
						{
							"internalType": "uint256",
							"name": "batchId",
							"type": "uint256"
						},
						{
							"internalType": "address",
							"name": "newOwner",
							"type": "address"
						},
						{
							"internalType": "string",
							"name": "operation",
							"type": "string"
						},
						{
							"internalType": "string",
							"name": "reasons",
							"type": "string"
						}
					],
					"name": "processBatch",
					"outputs": [],
					"stateMutability": "nonpayable",
					"type": "function"
				},
				{
					"inputs": [],
					"name": "productCount",
					"outputs": [
						{
							"internalType": "uint256",
							"name": "",
							"type": "uint256"
						}
					],
					"stateMutability": "view",
					"type": "function"
				},
				{
					"inputs": [
						{
							"internalType": "uint256",
							"name": "productId",
							"type": "uint256"
						}
					],
					"name": "productExists",
					"outputs": [
						{
							"internalType": "bool",
							"name": "",
							"type": "bool"
						}
					],
					"stateMutability": "view",
					"type": "function"
				},
				{
					"inputs": [
						{
							"internalType": "uint256",
							"name": "",
							"type": "uint256"
						}
					],
					"name": "products",
					"outputs": [
						{
							"internalType": "uint256",
							"name": "id",
							"type": "uint256"
						},
						{
							"internalType": "string",
							"name": "name",
							"type": "string"
						},
						{
							"internalType": "string",
							"name": "description",
							"type": "string"
						},
						{
							"internalType": "address",
							"name": "currentOwner",
							"type": "address"
						},
						{
							"internalType": "uint256",
							"name": "timestamp",
							"type": "uint256"
						},
						{
							"internalType": "bool",
							"name": "isRecalled",
							"type": "bool"
						}
					],
					"stateMutability": "view",
					"type": "function"
				},
				{
					"inputs": [
						{
							"internalType": "uint256",
							"name": "batchId",
							"type": "uint256"
						},
						{
							"internalType": "string",
							"name": "reasons",
							"type": "string"
						}
					],
					"name": "recallBatch",
					"outputs": [],
					"stateMutability": "nonpayable",
					"type": "function"
				},
				{
					"inputs": [
						{
							"internalType": "uint256",
							"name": "productId",
							"type": "uint256"
						},
						{
							"internalType": "string",
							"name": "reasons",
							"type": "string"
						}
					],
					"name": "recallProduct",
					"outputs": [],
					"stateMutability": "nonpayable",
					"type": "function"
				},
				{
					"inputs": [
						{
							"internalType": "string",
							"name": "name",
							"type": "string"
						},
						{
							"internalType": "string",
							"name": "description",
							"type": "string"
						}
					],
					"name": "registerProduct",
					"outputs": [],
					"stateMutability": "nonpayable",
					"type": "function"
				},
				{
					"inputs": [
						{
							"internalType": "uint256",
							"name": "productId",
							"type": "uint256"
						}
					],
					"name": "stateRecalled",
					"outputs": [
						{
							"internalType": "bool",
							"name": "",
							"type": "bool"
						}
					],
					"stateMutability": "view",
					"type": "function"
				},
				{
					"inputs": [
						{
							"internalType": "uint256",
							"name": "productId",
							"type": "uint256"
						},
						{
							"internalType": "address",
							"name": "newOwner",
							"type": "address"
						}
					],
					"name": "transferProductOwnership",
					"outputs": [],
					"stateMutability": "nonpayable",
					"type": "function"
				}
			],
			"devdoc": {
				"kind": "dev",
				"methods": {},
				"version": 1
			},
			"evm": {
				"assembly": "    /* \"contracts/w62.sol\":57:11519  contract SupplyChainContract{... */\n  mstore(0x40, 0x80)\n    /* \"contracts/w62.sol\":1831:2028  constructor(){... */\n  callvalue\n  dup1\n  iszero\n  tag_1\n  jumpi\n  0x00\n  dup1\n  revert\ntag_1:\n  pop\n    /* \"contracts/w62.sol\":1862:1872  msg.sender */\n  caller\n    /* \"contracts/w62.sol\":1854:1859  owner */\n  0x00\n  dup1\n    /* \"contracts/w62.sol\":1854:1872  owner = msg.sender */\n  0x0100\n  exp\n  dup2\n  sload\n  dup2\n  0xffffffffffffffffffffffffffffffffffffffff\n  mul\n  not\n  and\n  swap1\n  dup4\n  0xffffffffffffffffffffffffffffffffffffffff\n  and\n  mul\n  or\n  swap1\n  sstore\n  pop\n    /* \"contracts/w62.sol\":1897:1898  0 */\n  0x00\n    /* \"contracts/w62.sol\":1882:1894  productCount */\n  0x01\n    /* \"contracts/w62.sol\":1882:1898  productCount = 0 */\n  dup2\n  swap1\n  sstore\n  pop\n    /* \"contracts/w62.sol\":1921:1922  0 */\n  0x00\n    /* \"contracts/w62.sol\":1908:1918  batchCount */\n  0x02\n    /* \"contracts/w62.sol\":1908:1922  batchCount = 0 */\n  dup2\n  swap1\n  sstore\n  pop\n    /* \"contracts/w62.sol\":1969:1973  true */\n  0x01\n    /* \"contracts/w62.sol\":1932:1954  authorizedParticipants */\n  0x03\n    /* \"contracts/w62.sol\":1932:1966  authorizedParticipants[msg.sender] */\n  0x00\n    /* \"contracts/w62.sol\":1955:1965  msg.sender */\n  caller\n    /* \"contracts/w62.sol\":1932:1966  authorizedParticipants[msg.sender] */\n  0xffffffffffffffffffffffffffffffffffffffff\n  and\n  0xffffffffffffffffffffffffffffffffffffffff\n  and\n  dup2\n  mstore\n  0x20\n  add\n  swap1\n  dup2\n  mstore\n  0x20\n  add\n  0x00\n  keccak256\n  0x00\n    /* \"contracts/w62.sol\":1932:1973  authorizedParticipants[msg.sender] = true */\n  0x0100\n  exp\n  dup2\n  sload\n  dup2\n  0xff\n  mul\n  not\n  and\n  swap1\n  dup4\n  iszero\n  iszero\n  mul\n  or\n  swap1\n  sstore\n  pop\n    /* \"contracts/w62.sol\":2010:2020  msg.sender */\n  caller\n    /* \"contracts/w62.sol\":1988:2021  ParticipantAuthorized(msg.sender) */\n  0xffffffffffffffffffffffffffffffffffffffff\n  and\n  0x3cbcbb9ba5a54d0762f39fd455fd2900fbcfcd0e0693e2c87db13043c400b55f\n  mload(0x40)\n  mload(0x40)\n  dup1\n  swap2\n  sub\n  swap1\n  log2\n    /* \"contracts/w62.sol\":57:11519  contract SupplyChainContract{... */\n  dataSize(sub_0)\n  dup1\n  dataOffset(sub_0)\n  0x00\n  codecopy\n  0x00\n  return\nstop\n\nsub_0: assembly {\n        /* \"contracts/w62.sol\":57:11519  contract SupplyChainContract{... */\n      mstore(0x40, 0x80)\n      callvalue\n      dup1\n      iszero\n      tag_1\n      jumpi\n      0x00\n      dup1\n      revert\n    tag_1:\n      pop\n      jumpi(tag_2, lt(calldatasize, 0x04))\n      shr(0xe0, calldataload(0x00))\n      dup1\n      0x9ce0f973\n      gt\n      tag_23\n      jumpi\n      dup1\n      0xc5f8d584\n      gt\n      tag_24\n      jumpi\n      dup1\n      0xc5f8d584\n      eq\n      tag_18\n      jumpi\n      dup1\n      0xcf9cd669\n      eq\n      tag_19\n      jumpi\n      dup1\n      0xdfafe10f\n      eq\n      tag_20\n      jumpi\n      dup1\n      0xe0f6ef87\n      eq\n      tag_21\n      jumpi\n      dup1\n      0xf5f34413\n      eq\n      tag_22\n      jumpi\n      jump(tag_2)\n    tag_24:\n      dup1\n      0x9ce0f973\n      eq\n      tag_13\n      jumpi\n      dup1\n      0x9ffaa71e\n      eq\n      tag_14\n      jumpi\n      dup1\n      0xaf55ed64\n      eq\n      tag_15\n      jumpi\n      dup1\n      0xb32c4d8d\n      eq\n      tag_16\n      jumpi\n      dup1\n      0xb9db15b4\n      eq\n      tag_17\n      jumpi\n      jump(tag_2)\n    tag_23:\n      dup1\n      0x86734e5b\n      gt\n      tag_25\n      jumpi\n      dup1\n      0x86734e5b\n      eq\n      tag_8\n      jumpi\n      dup1\n      0x86b0e812\n      eq\n      tag_9\n      jumpi\n      dup1\n      0x8d28230b\n      eq\n      tag_10\n      jumpi\n      dup1\n      0x8da5cb5b\n      eq\n      tag_11\n      jumpi\n      dup1\n      0x8fbd0dcf\n      eq\n      tag_12\n      jumpi\n      jump(tag_2)\n    tag_25:\n      dup1\n      0x04341422\n      eq\n      tag_3\n      jumpi\n      dup1\n      0x06f13056\n      eq\n      tag_4\n      jumpi\n      dup1\n      0x3c9af587\n      eq\n      tag_5\n      jumpi\n      dup1\n      0x5ac44282\n      eq\n      tag_6\n      jumpi\n      dup1\n      0x7acc0b20\n      eq\n      tag_7\n      jumpi\n    tag_2:\n      0x00\n      dup1\n      revert\n        /* \"contracts/w62.sol\":4652:5297  function recallBatch(uint256 batchId, string memory reasons) public onlyAuthorized { ... */\n    tag_3:\n      tag_26\n      0x04\n      dup1\n      calldatasize\n      sub\n      dup2\n      add\n      swap1\n      tag_27\n      swap2\n      swap1\n      tag_28\n      jump\t// in\n    tag_27:\n      tag_29\n      jump\t// in\n    tag_26:\n      stop\n        /* \"contracts/w62.sol\":208:233  uint256 public batchCount */\n    tag_4:\n      tag_30\n      tag_31\n      jump\t// in\n    tag_30:\n      mload(0x40)\n      tag_32\n      swap2\n      swap1\n      tag_33\n      jump\t// in\n    tag_32:\n      mload(0x40)\n      dup1\n      swap2\n      sub\n      swap1\n      return\n        /* \"contracts/w62.sol\":7226:7514  function stateRecalled(uint256 productId) public view returns (bool){... */\n    tag_5:\n      tag_34\n      0x04\n      dup1\n      calldatasize\n      sub\n      dup2\n      add\n      swap1\n      tag_35\n      swap2\n      swap1\n      tag_36\n      jump\t// in\n    tag_35:\n      tag_37\n      jump\t// in\n    tag_34:\n      mload(0x40)\n      tag_38\n      swap2\n      swap1\n      tag_39\n      jump\t// in\n    tag_38:\n      mload(0x40)\n      dup1\n      swap2\n      sub\n      swap1\n      return\n        /* \"contracts/w62.sol\":6529:7220  function getBatch(uint256 batchIndex) public view returns (... */\n    tag_6:\n      tag_40\n      0x04\n      dup1\n      calldatasize\n      sub\n      dup2\n      add\n      swap1\n      tag_41\n      swap2\n      swap1\n      tag_36\n      jump\t// in\n    tag_41:\n      tag_42\n      jump\t// in\n    tag_40:\n      mload(0x40)\n      tag_43\n      swap9\n      swap8\n      swap7\n      swap6\n      swap5\n      swap4\n      swap3\n      swap2\n      swap1\n      tag_44\n      jump\t// in\n    tag_43:\n      mload(0x40)\n      dup1\n      swap2\n      sub\n      swap1\n      return\n        /* \"contracts/w62.sol\":364:407  mapping(uint256 => Product) public products */\n    tag_7:\n      tag_45\n      0x04\n      dup1\n      calldatasize\n      sub\n      dup2\n      add\n      swap1\n      tag_46\n      swap2\n      swap1\n      tag_36\n      jump\t// in\n    tag_46:\n      tag_47\n      jump\t// in\n    tag_45:\n      mload(0x40)\n      tag_48\n      swap7\n      swap6\n      swap5\n      swap4\n      swap3\n      swap2\n      swap1\n      tag_49\n      jump\t// in\n    tag_48:\n      mload(0x40)\n      dup1\n      swap2\n      sub\n      swap1\n      return\n        /* \"contracts/w62.sol\":9525:11517  function processBatch(uint256 batchId, address newOwner, string memory operation, string memory reasons) public onlyAuthorized {... */\n    tag_8:\n      tag_50\n      0x04\n      dup1\n      calldatasize\n      sub\n      dup2\n      add\n      swap1\n      tag_51\n      swap2\n      swap1\n      tag_52\n      jump\t// in\n    tag_51:\n      tag_53\n      jump\t// in\n    tag_50:\n      stop\n        /* \"contracts/w62.sol\":3330:4179  function transferProductOwnership(uint256 productId, address newOwner) public onlyAuthorized{... */\n    tag_9:\n      tag_54\n      0x04\n      dup1\n      calldatasize\n      sub\n      dup2\n      add\n      swap1\n      tag_55\n      swap2\n      swap1\n      tag_56\n      jump\t// in\n    tag_55:\n      tag_57\n      jump\t// in\n    tag_54:\n      stop\n        /* \"contracts/w62.sol\":277:331  mapping(address => bool) public authorizedParticipants */\n    tag_10:\n      tag_58\n      0x04\n      dup1\n      calldatasize\n      sub\n      dup2\n      add\n      swap1\n      tag_59\n      swap2\n      swap1\n      tag_60\n      jump\t// in\n    tag_59:\n      tag_61\n      jump\t// in\n    tag_58:\n      mload(0x40)\n      tag_62\n      swap2\n      swap1\n      tag_39\n      jump\t// in\n    tag_62:\n      mload(0x40)\n      dup1\n      swap2\n      sub\n      swap1\n      return\n        /* \"contracts/w62.sol\":111:131  address public owner */\n    tag_11:\n      tag_63\n      tag_64\n      jump\t// in\n    tag_63:\n      mload(0x40)\n      tag_65\n      swap2\n      swap1\n      tag_66\n      jump\t// in\n    tag_65:\n      mload(0x40)\n      dup1\n      swap2\n      sub\n      swap1\n      return\n        /* \"contracts/w62.sol\":2712:3324  function registerProduct(string memory name, string memory description) public onlyAuthorized{... */\n    tag_12:\n      tag_67\n      0x04\n      dup1\n      calldatasize\n      sub\n      dup2\n      add\n      swap1\n      tag_68\n      swap2\n      swap1\n      tag_69\n      jump\t// in\n    tag_68:\n      tag_70\n      jump\t// in\n    tag_67:\n      stop\n        /* \"contracts/w62.sol\":5303:6004  function recallProduct(uint256 productId, string memory reasons) public onlyAuthorized { //Verify caller authorization done... */\n    tag_13:\n      tag_71\n      0x04\n      dup1\n      calldatasize\n      sub\n      dup2\n      add\n      swap1\n      tag_72\n      swap2\n      swap1\n      tag_28\n      jump\t// in\n    tag_72:\n      tag_73\n      jump\t// in\n    tag_71:\n      stop\n        /* \"contracts/w62.sol\":4439:4611  function batchExists(uint256 batchId) public view returns (bool) {... */\n    tag_14:\n      tag_74\n      0x04\n      dup1\n      calldatasize\n      sub\n      dup2\n      add\n      swap1\n      tag_75\n      swap2\n      swap1\n      tag_36\n      jump\t// in\n    tag_75:\n      tag_76\n      jump\t// in\n    tag_74:\n      mload(0x40)\n      tag_77\n      swap2\n      swap1\n      tag_39\n      jump\t// in\n    tag_77:\n      mload(0x40)\n      dup1\n      swap2\n      sub\n      swap1\n      return\n        /* \"contracts/w62.sol\":4185:4433  function productExists(uint256 productId) public view returns (bool) {... */\n    tag_15:\n      tag_78\n      0x04\n      dup1\n      calldatasize\n      sub\n      dup2\n      add\n      swap1\n      tag_79\n      swap2\n      swap1\n      tag_36\n      jump\t// in\n    tag_79:\n      tag_80\n      jump\t// in\n    tag_78:\n      mload(0x40)\n      tag_81\n      swap2\n      swap1\n      tag_39\n      jump\t// in\n    tag_81:\n      mload(0x40)\n      dup1\n      swap2\n      sub\n      swap1\n      return\n        /* \"contracts/w62.sol\":413:453  mapping(uint256 => Batch) public batches */\n    tag_16:\n      tag_82\n      0x04\n      dup1\n      calldatasize\n      sub\n      dup2\n      add\n      swap1\n      tag_83\n      swap2\n      swap1\n      tag_36\n      jump\t// in\n    tag_83:\n      tag_84\n      jump\t// in\n    tag_82:\n      mload(0x40)\n      tag_85\n      swap6\n      swap5\n      swap4\n      swap3\n      swap2\n      swap1\n      tag_86\n      jump\t// in\n    tag_85:\n      mload(0x40)\n      dup1\n      swap2\n      sub\n      swap1\n      return\n        /* \"contracts/w62.sol\":6010:6523  function getProduct(uint256 productId) public view returns (... */\n    tag_17:\n      tag_87\n      0x04\n      dup1\n      calldatasize\n      sub\n      dup2\n      add\n      swap1\n      tag_88\n      swap2\n      swap1\n      tag_36\n      jump\t// in\n    tag_88:\n      tag_89\n      jump\t// in\n    tag_87:\n      mload(0x40)\n      tag_90\n      swap6\n      swap5\n      swap4\n      swap3\n      swap2\n      swap1\n      tag_91\n      jump\t// in\n    tag_90:\n      mload(0x40)\n      dup1\n      swap2\n      sub\n      swap1\n      return\n        /* \"contracts/w62.sol\":2379:2706  function authorizeParticipant(address participant) public onlyOwner{... */\n    tag_18:\n      tag_92\n      0x04\n      dup1\n      calldatasize\n      sub\n      dup2\n      add\n      swap1\n      tag_93\n      swap2\n      swap1\n      tag_60\n      jump\t// in\n    tag_93:\n      tag_94\n      jump\t// in\n    tag_92:\n      stop\n        /* \"contracts/w62.sol\":7520:7742  function operationConvert(uint256 x) public pure returns (string memory y){... */\n    tag_19:\n      tag_95\n      0x04\n      dup1\n      calldatasize\n      sub\n      dup2\n      add\n      swap1\n      tag_96\n      swap2\n      swap1\n      tag_36\n      jump\t// in\n    tag_96:\n      tag_97\n      jump\t// in\n    tag_95:\n      mload(0x40)\n      tag_98\n      swap2\n      swap1\n      tag_99\n      jump\t// in\n    tag_98:\n      mload(0x40)\n      dup1\n      swap2\n      sub\n      swap1\n      return\n        /* \"contracts/w62.sol\":2253:2373  function addParticipant(address participant) public onlyOwner{... */\n    tag_20:\n      tag_100\n      0x04\n      dup1\n      calldatasize\n      sub\n      dup2\n      add\n      swap1\n      tag_101\n      swap2\n      swap1\n      tag_60\n      jump\t// in\n    tag_101:\n      tag_102\n      jump\t// in\n    tag_100:\n      stop\n        /* \"contracts/w62.sol\":157:184  uint256 public productCount */\n    tag_21:\n      tag_103\n      tag_104\n      jump\t// in\n    tag_103:\n      mload(0x40)\n      tag_105\n      swap2\n      swap1\n      tag_33\n      jump\t// in\n    tag_105:\n      mload(0x40)\n      dup1\n      swap2\n      sub\n      swap1\n      return\n        /* \"contracts/w62.sol\":8025:9520  function createBatch(... */\n    tag_22:\n      tag_106\n      0x04\n      dup1\n      calldatasize\n      sub\n      dup2\n      add\n      swap1\n      tag_107\n      swap2\n      swap1\n      tag_108\n      jump\t// in\n    tag_107:\n      tag_109\n      jump\t// in\n    tag_106:\n      stop\n        /* \"contracts/w62.sol\":4652:5297  function recallBatch(uint256 batchId, string memory reasons) public onlyAuthorized { ... */\n    tag_29:\n        /* \"contracts/w62.sol\":2176:2198  authorizedParticipants */\n      0x03\n        /* \"contracts/w62.sol\":2176:2210  authorizedParticipants[msg.sender] */\n      0x00\n        /* \"contracts/w62.sol\":2199:2209  msg.sender */\n      caller\n        /* \"contracts/w62.sol\":2176:2210  authorizedParticipants[msg.sender] */\n      0xffffffffffffffffffffffffffffffffffffffff\n      and\n      0xffffffffffffffffffffffffffffffffffffffff\n      and\n      dup2\n      mstore\n      0x20\n      add\n      swap1\n      dup2\n      mstore\n      0x20\n      add\n      0x00\n      keccak256\n      0x00\n      swap1\n      sload\n      swap1\n      0x0100\n      exp\n      swap1\n      div\n      0xff\n      and\n        /* \"contracts/w62.sol\":2168:2229  require(authorizedParticipants[msg.sender], \"Not authorized\") */\n      tag_111\n      jumpi\n      mload(0x40)\n      0x08c379a000000000000000000000000000000000000000000000000000000000\n      dup2\n      mstore\n      0x04\n      add\n      tag_112\n      swap1\n      tag_113\n      jump\t// in\n    tag_112:\n      mload(0x40)\n      dup1\n      swap2\n      sub\n      swap1\n      revert\n    tag_111:\n        /* \"contracts/w62.sol\":4790:4810  batchExists(batchId) */\n      tag_115\n        /* \"contracts/w62.sol\":4802:4809  batchId */\n      dup3\n        /* \"contracts/w62.sol\":4790:4801  batchExists */\n      tag_76\n        /* \"contracts/w62.sol\":4790:4810  batchExists(batchId) */\n      jump\t// in\n    tag_115:\n        /* \"contracts/w62.sol\":4782:4834  require(batchExists(batchId), \"Batch doesn't exist\") */\n      tag_116\n      jumpi\n      mload(0x40)\n      0x08c379a000000000000000000000000000000000000000000000000000000000\n      dup2\n      mstore\n      0x04\n      add\n      tag_117\n      swap1\n      tag_118\n      jump\t// in\n    tag_117:\n      mload(0x40)\n      dup1\n      swap2\n      sub\n      swap1\n      revert\n    tag_116:\n        /* \"contracts/w62.sol\":4844:4863  Batch storage batch */\n      0x00\n        /* \"contracts/w62.sol\":4866:4873  batches */\n      0x05\n        /* \"contracts/w62.sol\":4866:4882  batches[batchId] */\n      0x00\n        /* \"contracts/w62.sol\":4874:4881  batchId */\n      dup5\n        /* \"contracts/w62.sol\":4866:4882  batches[batchId] */\n      dup2\n      mstore\n      0x20\n      add\n      swap1\n      dup2\n      mstore\n      0x20\n      add\n      0x00\n      keccak256\n        /* \"contracts/w62.sol\":4844:4882  Batch storage batch = batches[batchId] */\n      swap1\n      pop\n        /* \"contracts/w62.sol\":4960:4965  batch */\n      dup1\n        /* \"contracts/w62.sol\":4960:4976  batch.isRecalled */\n      0x05\n      add\n      0x00\n      swap1\n      sload\n      swap1\n      0x0100\n      exp\n      swap1\n      div\n      0xff\n      and\n        /* \"contracts/w62.sol\":4959:4976  !batch.isRecalled */\n      iszero\n        /* \"contracts/w62.sol\":4951:5003  require(!batch.isRecalled, \"Batch already recalled\") */\n      tag_119\n      jumpi\n      mload(0x40)\n      0x08c379a000000000000000000000000000000000000000000000000000000000\n      dup2\n      mstore\n      0x04\n      add\n      tag_120\n      swap1\n      tag_121\n      jump\t// in\n    tag_120:\n      mload(0x40)\n      dup1\n      swap2\n      sub\n      swap1\n      revert\n    tag_119:\n        /* \"contracts/w62.sol\":5071:5077  uint i */\n      0x00\n        /* \"contracts/w62.sol\":5066:5223  for (uint i = 0; i < batch.id.length; i++) {... */\n    tag_122:\n        /* \"contracts/w62.sol\":5087:5092  batch */\n      dup2\n        /* \"contracts/w62.sol\":5087:5095  batch.id */\n      0x00\n      add\n        /* \"contracts/w62.sol\":5087:5102  batch.id.length */\n      dup1\n      sload\n      swap1\n      pop\n        /* \"contracts/w62.sol\":5083:5084  i */\n      dup2\n        /* \"contracts/w62.sol\":5083:5102  i < batch.id.length */\n      lt\n        /* \"contracts/w62.sol\":5066:5223  for (uint i = 0; i < batch.id.length; i++) {... */\n      iszero\n      tag_123\n      jumpi\n        /* \"contracts/w62.sol\":5177:5212  recallProduct(batch.id[i], reasons) */\n      tag_125\n        /* \"contracts/w62.sol\":5191:5196  batch */\n      dup3\n        /* \"contracts/w62.sol\":5191:5199  batch.id */\n      0x00\n      add\n        /* \"contracts/w62.sol\":5200:5201  i */\n      dup3\n        /* \"contracts/w62.sol\":5191:5202  batch.id[i] */\n      dup2\n      sload\n      dup2\n      lt\n      tag_126\n      jumpi\n      tag_127\n      tag_128\n      jump\t// in\n    tag_127:\n    tag_126:\n      swap1\n      0x00\n      mstore\n      keccak256(0x00, 0x20)\n      add\n      sload\n        /* \"contracts/w62.sol\":5204:5211  reasons */\n      dup5\n        /* \"contracts/w62.sol\":5177:5190  recallProduct */\n      tag_73\n        /* \"contracts/w62.sol\":5177:5212  recallProduct(batch.id[i], reasons) */\n      jump\t// in\n    tag_125:\n        /* \"contracts/w62.sol\":5104:5107  i++ */\n      dup1\n      dup1\n      0x01\n      add\n      swap2\n      pop\n      pop\n        /* \"contracts/w62.sol\":5066:5223  for (uint i = 0; i < batch.id.length; i++) {... */\n      jump(tag_122)\n    tag_123:\n      pop\n        /* \"contracts/w62.sol\":5286:5290  true */\n      0x01\n        /* \"contracts/w62.sol\":5267:5272  batch */\n      dup2\n        /* \"contracts/w62.sol\":5267:5283  batch.isRecalled */\n      0x05\n      add\n      0x00\n        /* \"contracts/w62.sol\":5267:5290  batch.isRecalled = true */\n      0x0100\n      exp\n      dup2\n      sload\n      dup2\n      0xff\n      mul\n      not\n      and\n      swap1\n      dup4\n      iszero\n      iszero\n      mul\n      or\n      swap1\n      sstore\n      pop\n        /* \"contracts/w62.sol\":4735:5297  { ... */\n      pop\n        /* \"contracts/w62.sol\":4652:5297  function recallBatch(uint256 batchId, string memory reasons) public onlyAuthorized { ... */\n      pop\n      pop\n      jump\t// out\n        /* \"contracts/w62.sol\":208:233  uint256 public batchCount */\n    tag_31:\n      sload(0x02)\n      dup2\n      jump\t// out\n        /* \"contracts/w62.sol\":7226:7514  function stateRecalled(uint256 productId) public view returns (bool){... */\n    tag_37:\n        /* \"contracts/w62.sol\":7289:7293  bool */\n      0x00\n        /* \"contracts/w62.sol\":7312:7336  productExists(productId) */\n      tag_131\n        /* \"contracts/w62.sol\":7326:7335  productId */\n      dup3\n        /* \"contracts/w62.sol\":7312:7325  productExists */\n      tag_80\n        /* \"contracts/w62.sol\":7312:7336  productExists(productId) */\n      jump\t// in\n    tag_131:\n        /* \"contracts/w62.sol\":7304:7357  require(productExists(productId), \"It doesnt exists\") */\n      tag_132\n      jumpi\n      mload(0x40)\n      0x08c379a000000000000000000000000000000000000000000000000000000000\n      dup2\n      mstore\n      0x04\n      add\n      tag_133\n      swap1\n      tag_134\n      jump\t// in\n    tag_133:\n      mload(0x40)\n      dup1\n      swap2\n      sub\n      swap1\n      revert\n    tag_132:\n        /* \"contracts/w62.sol\":7367:7389  Product memory product */\n      0x00\n        /* \"contracts/w62.sol\":7392:7400  products */\n      0x04\n        /* \"contracts/w62.sol\":7392:7411  products[productId] */\n      0x00\n        /* \"contracts/w62.sol\":7401:7410  productId */\n      dup5\n        /* \"contracts/w62.sol\":7392:7411  products[productId] */\n      dup2\n      mstore\n      0x20\n      add\n      swap1\n      dup2\n      mstore\n      0x20\n      add\n      0x00\n      keccak256\n        /* \"contracts/w62.sol\":7367:7411  Product memory product = products[productId] */\n      mload(0x40)\n      dup1\n      0xc0\n      add\n      0x40\n      mstore\n      swap1\n      dup2\n      0x00\n      dup3\n      add\n      sload\n      dup2\n      mstore\n      0x20\n      add\n      0x01\n      dup3\n      add\n      dup1\n      sload\n      tag_135\n      swap1\n      tag_136\n      jump\t// in\n    tag_135:\n      dup1\n      0x1f\n      add\n      0x20\n      dup1\n      swap2\n      div\n      mul\n      0x20\n      add\n      mload(0x40)\n      swap1\n      dup2\n      add\n      0x40\n      mstore\n      dup1\n      swap3\n      swap2\n      swap1\n      dup2\n      dup2\n      mstore\n      0x20\n      add\n      dup3\n      dup1\n      sload\n      tag_137\n      swap1\n      tag_136\n      jump\t// in\n    tag_137:\n      dup1\n      iszero\n      tag_138\n      jumpi\n      dup1\n      0x1f\n      lt\n      tag_139\n      jumpi\n      0x0100\n      dup1\n      dup4\n      sload\n      div\n      mul\n      dup4\n      mstore\n      swap2\n      0x20\n      add\n      swap2\n      jump(tag_138)\n    tag_139:\n      dup3\n      add\n      swap2\n      swap1\n      0x00\n      mstore\n      keccak256(0x00, 0x20)\n      swap1\n    tag_140:\n      dup2\n      sload\n      dup2\n      mstore\n      swap1\n      0x01\n      add\n      swap1\n      0x20\n      add\n      dup1\n      dup4\n      gt\n      tag_140\n      jumpi\n      dup3\n      swap1\n      sub\n      0x1f\n      and\n      dup3\n      add\n      swap2\n    tag_138:\n      pop\n      pop\n      pop\n      pop\n      pop\n      dup2\n      mstore\n      0x20\n      add\n      0x02\n      dup3\n      add\n      dup1\n      sload\n      tag_141\n      swap1\n      tag_136\n      jump\t// in\n    tag_141:\n      dup1\n      0x1f\n      add\n      0x20\n      dup1\n      swap2\n      div\n      mul\n      0x20\n      add\n      mload(0x40)\n      swap1\n      dup2\n      add\n      0x40\n      mstore\n      dup1\n      swap3\n      swap2\n      swap1\n      dup2\n      dup2\n      mstore\n      0x20\n      add\n      dup3\n      dup1\n      sload\n      tag_142\n      swap1\n      tag_136\n      jump\t// in\n    tag_142:\n      dup1\n      iszero\n      tag_143\n      jumpi\n      dup1\n      0x1f\n      lt\n      tag_144\n      jumpi\n      0x0100\n      dup1\n      dup4\n      sload\n      div\n      mul\n      dup4\n      mstore\n      swap2\n      0x20\n      add\n      swap2\n      jump(tag_143)\n    tag_144:\n      dup3\n      add\n      swap2\n      swap1\n      0x00\n      mstore\n      keccak256(0x00, 0x20)\n      swap1\n    tag_145:\n      dup2\n      sload\n      dup2\n      mstore\n      swap1\n      0x01\n      add\n      swap1\n      0x20\n      add\n      dup1\n      dup4\n      gt\n      tag_145\n      jumpi\n      dup3\n      swap1\n      sub\n      0x1f\n      and\n      dup3\n      add\n      swap2\n    tag_143:\n      pop\n      pop\n      pop\n      pop\n      pop\n      dup2\n      mstore\n      0x20\n      add\n      0x03\n      dup3\n      add\n      0x00\n      swap1\n      sload\n      swap1\n      0x0100\n      exp\n      swap1\n      div\n      0xffffffffffffffffffffffffffffffffffffffff\n      and\n      0xffffffffffffffffffffffffffffffffffffffff\n      and\n      0xffffffffffffffffffffffffffffffffffffffff\n      and\n      dup2\n      mstore\n      0x20\n      add\n      0x04\n      dup3\n      add\n      sload\n      dup2\n      mstore\n      0x20\n      add\n      0x05\n      dup3\n      add\n      0x00\n      swap1\n      sload\n      swap1\n      0x0100\n      exp\n      swap1\n      div\n      0xff\n      and\n      iszero\n      iszero\n      iszero\n      iszero\n      dup2\n      mstore\n      pop\n      pop\n      swap1\n      pop\n        /* \"contracts/w62.sol\":7479:7486  product */\n      dup1\n        /* \"contracts/w62.sol\":7479:7497  product.isRecalled */\n      0xa0\n      add\n      mload\n        /* \"contracts/w62.sol\":7458:7507  return (... */\n      swap2\n      pop\n      pop\n        /* \"contracts/w62.sol\":7226:7514  function stateRecalled(uint256 productId) public view returns (bool){... */\n      swap2\n      swap1\n      pop\n      jump\t// out\n        /* \"contracts/w62.sol\":6529:7220  function getBatch(uint256 batchIndex) public view returns (... */\n    tag_42:\n        /* \"contracts/w62.sol\":6597:6616  uint256[] memory id */\n      0x60\n        /* \"contracts/w62.sol\":6626:6646  string[] memory name */\n      dup1\n        /* \"contracts/w62.sol\":6656:6683  string[] memory description */\n      0x60\n        /* \"contracts/w62.sol\":6693:6713  address currentOwner */\n      0x00\n        /* \"contracts/w62.sol\":6723:6740  uint256 timestamp */\n      dup1\n        /* \"contracts/w62.sol\":6750:6765  bool isRecalled */\n      0x00\n        /* \"contracts/w62.sol\":6775:6790  uint256 batchId */\n      dup1\n        /* \"contracts/w62.sol\":6800:6823  string memory operation */\n      0x60\n        /* \"contracts/w62.sol\":6876:6894  Batch memory batch */\n      0x00\n        /* \"contracts/w62.sol\":6897:6904  batches */\n      0x05\n        /* \"contracts/w62.sol\":6897:6916  batches[batchIndex] */\n      0x00\n        /* \"contracts/w62.sol\":6905:6915  batchIndex */\n      dup12\n        /* \"contracts/w62.sol\":6897:6916  batches[batchIndex] */\n      dup2\n      mstore\n      0x20\n      add\n      swap1\n      dup2\n      mstore\n      0x20\n      add\n      0x00\n      keccak256\n        /* \"contracts/w62.sol\":6876:6916  Batch memory batch = batches[batchIndex] */\n      mload(0x40)\n      dup1\n      0x0100\n      add\n      0x40\n      mstore\n      swap1\n      dup2\n      0x00\n      dup3\n      add\n      dup1\n      sload\n      dup1\n      0x20\n      mul\n      0x20\n      add\n      mload(0x40)\n      swap1\n      dup2\n      add\n      0x40\n      mstore\n      dup1\n      swap3\n      swap2\n      swap1\n      dup2\n      dup2\n      mstore\n      0x20\n      add\n      dup3\n      dup1\n      sload\n      dup1\n      iszero\n      tag_147\n      jumpi\n      0x20\n      mul\n      dup3\n      add\n      swap2\n      swap1\n      0x00\n      mstore\n      keccak256(0x00, 0x20)\n      swap1\n    tag_148:\n      dup2\n      sload\n      dup2\n      mstore\n      0x20\n      add\n      swap1\n      0x01\n      add\n      swap1\n      dup1\n      dup4\n      gt\n      tag_148\n      jumpi\n    tag_147:\n      pop\n      pop\n      pop\n      pop\n      pop\n      dup2\n      mstore\n      0x20\n      add\n      0x01\n      dup3\n      add\n      dup1\n      sload\n      dup1\n      0x20\n      mul\n      0x20\n      add\n      mload(0x40)\n      swap1\n      dup2\n      add\n      0x40\n      mstore\n      dup1\n      swap3\n      swap2\n      swap1\n      dup2\n      dup2\n      mstore\n      0x20\n      add\n      0x00\n      swap1\n    tag_149:\n      dup3\n      dup3\n      lt\n      iszero\n      tag_150\n      jumpi\n      dup4\n      dup3\n      swap1\n      0x00\n      mstore\n      keccak256(0x00, 0x20)\n      add\n      dup1\n      sload\n      tag_152\n      swap1\n      tag_136\n      jump\t// in\n    tag_152:\n      dup1\n      0x1f\n      add\n      0x20\n      dup1\n      swap2\n      div\n      mul\n      0x20\n      add\n      mload(0x40)\n      swap1\n      dup2\n      add\n      0x40\n      mstore\n      dup1\n      swap3\n      swap2\n      swap1\n      dup2\n      dup2\n      mstore\n      0x20\n      add\n      dup3\n      dup1\n      sload\n      tag_153\n      swap1\n      tag_136\n      jump\t// in\n    tag_153:\n      dup1\n      iszero\n      tag_154\n      jumpi\n      dup1\n      0x1f\n      lt\n      tag_155\n      jumpi\n      0x0100\n      dup1\n      dup4\n      sload\n      div\n      mul\n      dup4\n      mstore\n      swap2\n      0x20\n      add\n      swap2\n      jump(tag_154)\n    tag_155:\n      dup3\n      add\n      swap2\n      swap1\n      0x00\n      mstore\n      keccak256(0x00, 0x20)\n      swap1\n    tag_156:\n      dup2\n      sload\n      dup2\n      mstore\n      swap1\n      0x01\n      add\n      swap1\n      0x20\n      add\n      dup1\n      dup4\n      gt\n      tag_156\n      jumpi\n      dup3\n      swap1\n      sub\n      0x1f\n      and\n      dup3\n      add\n      swap2\n    tag_154:\n      pop\n      pop\n      pop\n      pop\n      pop\n      dup2\n      mstore\n      0x20\n      add\n      swap1\n      0x01\n      add\n      swap1\n      jump(tag_149)\n    tag_150:\n      pop\n      pop\n      pop\n      pop\n      dup2\n      mstore\n      0x20\n      add\n      0x02\n      dup3\n      add\n      dup1\n      sload\n      dup1\n      0x20\n      mul\n      0x20\n      add\n      mload(0x40)\n      swap1\n      dup2\n      add\n      0x40\n      mstore\n      dup1\n      swap3\n      swap2\n      swap1\n      dup2\n      dup2\n      mstore\n      0x20\n      add\n      0x00\n      swap1\n    tag_157:\n      dup3\n      dup3\n      lt\n      iszero\n      tag_158\n      jumpi\n      dup4\n      dup3\n      swap1\n      0x00\n      mstore\n      keccak256(0x00, 0x20)\n      add\n      dup1\n      sload\n      tag_160\n      swap1\n      tag_136\n      jump\t// in\n    tag_160:\n      dup1\n      0x1f\n      add\n      0x20\n      dup1\n      swap2\n      div\n      mul\n      0x20\n      add\n      mload(0x40)\n      swap1\n      dup2\n      add\n      0x40\n      mstore\n      dup1\n      swap3\n      swap2\n      swap1\n      dup2\n      dup2\n      mstore\n      0x20\n      add\n      dup3\n      dup1\n      sload\n      tag_161\n      swap1\n      tag_136\n      jump\t// in\n    tag_161:\n      dup1\n      iszero\n      tag_162\n      jumpi\n      dup1\n      0x1f\n      lt\n      tag_163\n      jumpi\n      0x0100\n      dup1\n      dup4\n      sload\n      div\n      mul\n      dup4\n      mstore\n      swap2\n      0x20\n      add\n      swap2\n      jump(tag_162)\n    tag_163:\n      dup3\n      add\n      swap2\n      swap1\n      0x00\n      mstore\n      keccak256(0x00, 0x20)\n      swap1\n    tag_164:\n      dup2\n      sload\n      dup2\n      mstore\n      swap1\n      0x01\n      add\n      swap1\n      0x20\n      add\n      dup1\n      dup4\n      gt\n      tag_164\n      jumpi\n      dup3\n      swap1\n      sub\n      0x1f\n      and\n      dup3\n      add\n      swap2\n    tag_162:\n      pop\n      pop\n      pop\n      pop\n      pop\n      dup2\n      mstore\n      0x20\n      add\n      swap1\n      0x01\n      add\n      swap1\n      jump(tag_157)\n    tag_158:\n      pop\n      pop\n      pop\n      pop\n      dup2\n      mstore\n      0x20\n      add\n      0x03\n      dup3\n      add\n      0x00\n      swap1\n      sload\n      swap1\n      0x0100\n      exp\n      swap1\n      div\n      0xffffffffffffffffffffffffffffffffffffffff\n      and\n      0xffffffffffffffffffffffffffffffffffffffff\n      and\n      0xffffffffffffffffffffffffffffffffffffffff\n      and\n      dup2\n      mstore\n      0x20\n      add\n      0x04\n      dup3\n      add\n      sload\n      dup2\n      mstore\n      0x20\n      add\n      0x05\n      dup3\n      add\n      0x00\n      swap1\n      sload\n      swap1\n      0x0100\n      exp\n      swap1\n      div\n      0xff\n      and\n      iszero\n      iszero\n      iszero\n      iszero\n      dup2\n      mstore\n      0x20\n      add\n      0x06\n      dup3\n      add\n      sload\n      dup2\n      mstore\n      0x20\n      add\n      0x07\n      dup3\n      add\n      dup1\n      sload\n      tag_165\n      swap1\n      tag_136\n      jump\t// in\n    tag_165:\n      dup1\n      0x1f\n      add\n      0x20\n      dup1\n      swap2\n      div\n      mul\n      0x20\n      add\n      mload(0x40)\n      swap1\n      dup2\n      add\n      0x40\n      mstore\n      dup1\n      swap3\n      swap2\n      swap1\n      dup2\n      dup2\n      mstore\n      0x20\n      add\n      dup3\n      dup1\n      sload\n      tag_166\n      swap1\n      tag_136\n      jump\t// in\n    tag_166:\n      dup1\n      iszero\n      tag_167\n      jumpi\n      dup1\n      0x1f\n      lt\n      tag_168\n      jumpi\n      0x0100\n      dup1\n      dup4\n      sload\n      div\n      mul\n      dup4\n      mstore\n      swap2\n      0x20\n      add\n      swap2\n      jump(tag_167)\n    tag_168:\n      dup3\n      add\n      swap2\n      swap1\n      0x00\n      mstore\n      keccak256(0x00, 0x20)\n      swap1\n    tag_169:\n      dup2\n      sload\n      dup2\n      mstore\n      swap1\n      0x01\n      add\n      swap1\n      0x20\n      add\n      dup1\n      dup4\n      gt\n      tag_169\n      jumpi\n      dup3\n      swap1\n      sub\n      0x1f\n      and\n      dup3\n      add\n      swap2\n    tag_167:\n      pop\n      pop\n      pop\n      pop\n      pop\n      dup2\n      mstore\n      pop\n      pop\n      swap1\n      pop\n        /* \"contracts/w62.sol\":6993:6998  batch */\n      dup1\n        /* \"contracts/w62.sol\":6993:7001  batch.id */\n      0x00\n      add\n      mload\n        /* \"contracts/w62.sol\":7015:7020  batch */\n      dup2\n        /* \"contracts/w62.sol\":7015:7025  batch.name */\n      0x20\n      add\n      mload\n        /* \"contracts/w62.sol\":7039:7044  batch */\n      dup3\n        /* \"contracts/w62.sol\":7039:7056  batch.description */\n      0x40\n      add\n      mload\n        /* \"contracts/w62.sol\":7070:7075  batch */\n      dup4\n        /* \"contracts/w62.sol\":7070:7088  batch.currentOwner */\n      0x60\n      add\n      mload\n        /* \"contracts/w62.sol\":7102:7107  batch */\n      dup5\n        /* \"contracts/w62.sol\":7102:7117  batch.timestamp */\n      0x80\n      add\n      mload\n        /* \"contracts/w62.sol\":7131:7136  batch */\n      dup6\n        /* \"contracts/w62.sol\":7131:7147  batch.isRecalled */\n      0xa0\n      add\n      mload\n        /* \"contracts/w62.sol\":7161:7166  batch */\n      dup7\n        /* \"contracts/w62.sol\":7161:7174  batch.batchId */\n      0xc0\n      add\n      mload\n        /* \"contracts/w62.sol\":7188:7193  batch */\n      dup8\n        /* \"contracts/w62.sol\":7188:7203  batch.operation */\n      0xe0\n      add\n      mload\n        /* \"contracts/w62.sol\":6972:7213  return (... */\n      swap9\n      pop\n      swap9\n      pop\n      swap9\n      pop\n      swap9\n      pop\n      swap9\n      pop\n      swap9\n      pop\n      swap9\n      pop\n      swap9\n      pop\n      pop\n        /* \"contracts/w62.sol\":6529:7220  function getBatch(uint256 batchIndex) public view returns (... */\n      swap2\n      swap4\n      swap6\n      swap8\n      pop\n      swap2\n      swap4\n      swap6\n      swap8\n      jump\t// out\n        /* \"contracts/w62.sol\":364:407  mapping(uint256 => Product) public products */\n    tag_47:\n      mstore(0x20, 0x04)\n      dup1\n      0x00\n      mstore\n      keccak256(0x00, 0x40)\n      0x00\n      swap2\n      pop\n      swap1\n      pop\n      dup1\n      0x00\n      add\n      sload\n      swap1\n      dup1\n      0x01\n      add\n      dup1\n      sload\n      tag_170\n      swap1\n      tag_136\n      jump\t// in\n    tag_170:\n      dup1\n      0x1f\n      add\n      0x20\n      dup1\n      swap2\n      div\n      mul\n      0x20\n      add\n      mload(0x40)\n      swap1\n      dup2\n      add\n      0x40\n      mstore\n      dup1\n      swap3\n      swap2\n      swap1\n      dup2\n      dup2\n      mstore\n      0x20\n      add\n      dup3\n      dup1\n      sload\n      tag_171\n      swap1\n      tag_136\n      jump\t// in\n    tag_171:\n      dup1\n      iszero\n      tag_172\n      jumpi\n      dup1\n      0x1f\n      lt\n      tag_173\n      jumpi\n      0x0100\n      dup1\n      dup4\n      sload\n      div\n      mul\n      dup4\n      mstore\n      swap2\n      0x20\n      add\n      swap2\n      jump(tag_172)\n    tag_173:\n      dup3\n      add\n      swap2\n      swap1\n      0x00\n      mstore\n      keccak256(0x00, 0x20)\n      swap1\n    tag_174:\n      dup2\n      sload\n      dup2\n      mstore\n      swap1\n      0x01\n      add\n      swap1\n      0x20\n      add\n      dup1\n      dup4\n      gt\n      tag_174\n      jumpi\n      dup3\n      swap1\n      sub\n      0x1f\n      and\n      dup3\n      add\n      swap2\n    tag_172:\n      pop\n      pop\n      pop\n      pop\n      pop\n      swap1\n      dup1\n      0x02\n      add\n      dup1\n      sload\n      tag_175\n      swap1\n      tag_136\n      jump\t// in\n    tag_175:\n      dup1\n      0x1f\n      add\n      0x20\n      dup1\n      swap2\n      div\n      mul\n      0x20\n      add\n      mload(0x40)\n      swap1\n      dup2\n      add\n      0x40\n      mstore\n      dup1\n      swap3\n      swap2\n      swap1\n      dup2\n      dup2\n      mstore\n      0x20\n      add\n      dup3\n      dup1\n      sload\n      tag_176\n      swap1\n      tag_136\n      jump\t// in\n    tag_176:\n      dup1\n      iszero\n      tag_177\n      jumpi\n      dup1\n      0x1f\n      lt\n      tag_178\n      jumpi\n      0x0100\n      dup1\n      dup4\n      sload\n      div\n      mul\n      dup4\n      mstore\n      swap2\n      0x20\n      add\n      swap2\n      jump(tag_177)\n    tag_178:\n      dup3\n      add\n      swap2\n      swap1\n      0x00\n      mstore\n      keccak256(0x00, 0x20)\n      swap1\n    tag_179:\n      dup2\n      sload\n      dup2\n      mstore\n      swap1\n      0x01\n      add\n      swap1\n      0x20\n      add\n      dup1\n      dup4\n      gt\n      tag_179\n      jumpi\n      dup3\n      swap1\n      sub\n      0x1f\n      and\n      dup3\n      add\n      swap2\n    tag_177:\n      pop\n      pop\n      pop\n      pop\n      pop\n      swap1\n      dup1\n      0x03\n      add\n      0x00\n      swap1\n      sload\n      swap1\n      0x0100\n      exp\n      swap1\n      div\n      0xffffffffffffffffffffffffffffffffffffffff\n      and\n      swap1\n      dup1\n      0x04\n      add\n      sload\n      swap1\n      dup1\n      0x05\n      add\n      0x00\n      swap1\n      sload\n      swap1\n      0x0100\n      exp\n      swap1\n      div\n      0xff\n      and\n      swap1\n      pop\n      dup7\n      jump\t// out\n        /* \"contracts/w62.sol\":9525:11517  function processBatch(uint256 batchId, address newOwner, string memory operation, string memory reasons) public onlyAuthorized {... */\n    tag_53:\n        /* \"contracts/w62.sol\":2176:2198  authorizedParticipants */\n      0x03\n        /* \"contracts/w62.sol\":2176:2210  authorizedParticipants[msg.sender] */\n      0x00\n        /* \"contracts/w62.sol\":2199:2209  msg.sender */\n      caller\n        /* \"contracts/w62.sol\":2176:2210  authorizedParticipants[msg.sender] */\n      0xffffffffffffffffffffffffffffffffffffffff\n      and\n      0xffffffffffffffffffffffffffffffffffffffff\n      and\n      dup2\n      mstore\n      0x20\n      add\n      swap1\n      dup2\n      mstore\n      0x20\n      add\n      0x00\n      keccak256\n      0x00\n      swap1\n      sload\n      swap1\n      0x0100\n      exp\n      swap1\n      div\n      0xff\n      and\n        /* \"contracts/w62.sol\":2168:2229  require(authorizedParticipants[msg.sender], \"Not authorized\") */\n      tag_181\n      jumpi\n      mload(0x40)\n      0x08c379a000000000000000000000000000000000000000000000000000000000\n      dup2\n      mstore\n      0x04\n      add\n      tag_182\n      swap1\n      tag_113\n      jump\t// in\n    tag_182:\n      mload(0x40)\n      dup1\n      swap2\n      sub\n      swap1\n      revert\n    tag_181:\n        /* \"contracts/w62.sol\":9698:9699  0 */\n      0x00\n        /* \"contracts/w62.sol\":9670:9677  batches */\n      0x05\n        /* \"contracts/w62.sol\":9670:9686  batches[batchId] */\n      0x00\n        /* \"contracts/w62.sol\":9678:9685  batchId */\n      dup7\n        /* \"contracts/w62.sol\":9670:9686  batches[batchId] */\n      dup2\n      mstore\n      0x20\n      add\n      swap1\n      dup2\n      mstore\n      0x20\n      add\n      0x00\n      keccak256\n        /* \"contracts/w62.sol\":9670:9694  batches[batchId].batchId */\n      0x06\n      add\n      sload\n        /* \"contracts/w62.sol\":9670:9699  batches[batchId].batchId != 0 */\n      sub\n        /* \"contracts/w62.sol\":9662:9723  require(batches[batchId].batchId != 0, \"Batch doesn't exist\") */\n      tag_184\n      jumpi\n      mload(0x40)\n      0x08c379a000000000000000000000000000000000000000000000000000000000\n      dup2\n      mstore\n      0x04\n      add\n      tag_185\n      swap1\n      tag_118\n      jump\t// in\n    tag_185:\n      mload(0x40)\n      dup1\n      swap2\n      sub\n      swap1\n      revert\n    tag_184:\n        /* \"contracts/w62.sol\":9742:9749  batches */\n      0x05\n        /* \"contracts/w62.sol\":9742:9758  batches[batchId] */\n      0x00\n        /* \"contracts/w62.sol\":9750:9757  batchId */\n      dup6\n        /* \"contracts/w62.sol\":9742:9758  batches[batchId] */\n      dup2\n      mstore\n      0x20\n      add\n      swap1\n      dup2\n      mstore\n      0x20\n      add\n      0x00\n      keccak256\n        /* \"contracts/w62.sol\":9742:9769  batches[batchId].isRecalled */\n      0x05\n      add\n      0x00\n      swap1\n      sload\n      swap1\n      0x0100\n      exp\n      swap1\n      div\n      0xff\n      and\n        /* \"contracts/w62.sol\":9741:9769  !batches[batchId].isRecalled */\n      iszero\n        /* \"contracts/w62.sol\":9733:9791  require(!batches[batchId].isRecalled, \"Batch is recalled\") */\n      tag_186\n      jumpi\n      mload(0x40)\n      0x08c379a000000000000000000000000000000000000000000000000000000000\n      dup2\n      mstore\n      0x04\n      add\n      tag_187\n      swap1\n      tag_188\n      jump\t// in\n    tag_187:\n      mload(0x40)\n      dup1\n      swap2\n      sub\n      swap1\n      revert\n    tag_186:\n        /* \"contracts/w62.sol\":9858:9891  abi.encodePacked(\"registerBatch\") */\n      add(0x20, mload(0x40))\n      tag_189\n      swap1\n      tag_190\n      jump\t// in\n    tag_189:\n      mload(0x40)\n      0x20\n      dup2\n      dup4\n      sub\n      sub\n      dup2\n      mstore\n      swap1\n      0x40\n      mstore\n        /* \"contracts/w62.sol\":9848:9892  keccak256(abi.encodePacked(\"registerBatch\")) */\n      dup1\n      mload\n      swap1\n      0x20\n      add\n      keccak256\n        /* \"contracts/w62.sol\":9833:9842  operation */\n      dup3\n        /* \"contracts/w62.sol\":9816:9843  abi.encodePacked(operation) */\n      add(0x20, mload(0x40))\n      tag_191\n      swap2\n      swap1\n      tag_192\n      jump\t// in\n    tag_191:\n      mload(0x40)\n      0x20\n      dup2\n      dup4\n      sub\n      sub\n      dup2\n      mstore\n      swap1\n      0x40\n      mstore\n        /* \"contracts/w62.sol\":9806:9844  keccak256(abi.encodePacked(operation)) */\n      dup1\n      mload\n      swap1\n      0x20\n      add\n      keccak256\n        /* \"contracts/w62.sol\":9806:9892  keccak256(abi.encodePacked(operation)) == keccak256(abi.encodePacked(\"registerBatch\")) */\n      sub\n        /* \"contracts/w62.sol\":9802:11444  if (keccak256(abi.encodePacked(operation)) == keccak256(abi.encodePacked(\"registerBatch\"))) { // Register products... */\n      tag_193\n      jumpi\n        /* \"contracts/w62.sol\":9967:9968  0 */\n      0x00\n        /* \"contracts/w62.sol\":9937:9944  batches */\n      0x05\n        /* \"contracts/w62.sol\":9937:9953  batches[batchId] */\n      0x00\n        /* \"contracts/w62.sol\":9945:9952  batchId */\n      dup7\n        /* \"contracts/w62.sol\":9937:9953  batches[batchId] */\n      dup2\n      mstore\n      0x20\n      add\n      swap1\n      dup2\n      mstore\n      0x20\n      add\n      0x00\n      keccak256\n        /* \"contracts/w62.sol\":9937:9956  batches[batchId].id */\n      0x00\n      add\n        /* \"contracts/w62.sol\":9937:9963  batches[batchId].id.length */\n      dup1\n      sload\n      swap1\n      pop\n        /* \"contracts/w62.sol\":9937:9968  batches[batchId].id.length == 0 */\n      eq\n        /* \"contracts/w62.sol\":9929:10013  require(batches[batchId].id.length == 0, \"Batch IDs must be empty for registration\") */\n      tag_194\n      jumpi\n      mload(0x40)\n      0x08c379a000000000000000000000000000000000000000000000000000000000\n      dup2\n      mstore\n      0x04\n      add\n      tag_195\n      swap1\n      tag_196\n      jump\t// in\n    tag_195:\n      mload(0x40)\n      dup1\n      swap2\n      sub\n      swap1\n      revert\n    tag_194:\n        /* \"contracts/w62.sol\":10027:10050  uint256[] memory newIds */\n      0x00\n        /* \"contracts/w62.sol\":10067:10074  batches */\n      0x05\n        /* \"contracts/w62.sol\":10067:10083  batches[batchId] */\n      0x00\n        /* \"contracts/w62.sol\":10075:10082  batchId */\n      dup7\n        /* \"contracts/w62.sol\":10067:10083  batches[batchId] */\n      dup2\n      mstore\n      0x20\n      add\n      swap1\n      dup2\n      mstore\n      0x20\n      add\n      0x00\n      keccak256\n        /* \"contracts/w62.sol\":10067:10088  batches[batchId].name */\n      0x01\n      add\n        /* \"contracts/w62.sol\":10067:10095  batches[batchId].name.length */\n      dup1\n      sload\n      swap1\n      pop\n        /* \"contracts/w62.sol\":10053:10096  new uint256[](batches[batchId].name.length) */\n      0xffffffffffffffff\n      dup2\n      gt\n      iszero\n      tag_197\n      jumpi\n      tag_198\n      tag_199\n      jump\t// in\n    tag_198:\n    tag_197:\n      mload(0x40)\n      swap1\n      dup1\n      dup3\n      mstore\n      dup1\n      0x20\n      mul\n      0x20\n      add\n      dup3\n      add\n      0x40\n      mstore\n      dup1\n      iszero\n      tag_200\n      jumpi\n      dup2\n      0x20\n      add\n      0x20\n      dup3\n      mul\n      dup1\n      calldatasize\n      dup4\n      calldatacopy\n      dup1\n      dup3\n      add\n      swap2\n      pop\n      pop\n      swap1\n      pop\n    tag_200:\n      pop\n        /* \"contracts/w62.sol\":10027:10096  uint256[] memory newIds = new uint256[](batches[batchId].name.length) */\n      swap1\n      pop\n        /* \"contracts/w62.sol\":10160:10166  uint i */\n      0x00\n        /* \"contracts/w62.sol\":10155:10695  for (uint i = 0; i < batches[batchId].name.length; i++) {... */\n    tag_201:\n        /* \"contracts/w62.sol\":10176:10183  batches */\n      0x05\n        /* \"contracts/w62.sol\":10176:10192  batches[batchId] */\n      0x00\n        /* \"contracts/w62.sol\":10184:10191  batchId */\n      dup8\n        /* \"contracts/w62.sol\":10176:10192  batches[batchId] */\n      dup2\n      mstore\n      0x20\n      add\n      swap1\n      dup2\n      mstore\n      0x20\n      add\n      0x00\n      keccak256\n        /* \"contracts/w62.sol\":10176:10197  batches[batchId].name */\n      0x01\n      add\n        /* \"contracts/w62.sol\":10176:10204  batches[batchId].name.length */\n      dup1\n      sload\n      swap1\n      pop\n        /* \"contracts/w62.sol\":10172:10173  i */\n      dup2\n        /* \"contracts/w62.sol\":10172:10204  i < batches[batchId].name.length */\n      lt\n        /* \"contracts/w62.sol\":10155:10695  for (uint i = 0; i < batches[batchId].name.length; i++) {... */\n      iszero\n      tag_202\n      jumpi\n        /* \"contracts/w62.sol\":10229:10241  productCount */\n      0x01\n      0x00\n        /* \"contracts/w62.sol\":10229:10243  productCount++ */\n      dup2\n      sload\n      dup1\n      swap3\n      swap2\n      swap1\n      tag_204\n      swap1\n      tag_205\n      jump\t// in\n    tag_204:\n      swap2\n      swap1\n      pop\n      sstore\n      pop\n        /* \"contracts/w62.sol\":10309:10321  productCount */\n      sload(0x01)\n        /* \"contracts/w62.sol\":10297:10303  newIds */\n      dup3\n        /* \"contracts/w62.sol\":10304:10305  i */\n      dup3\n        /* \"contracts/w62.sol\":10297:10306  newIds[i] */\n      dup2\n      mload\n      dup2\n      lt\n      tag_206\n      jumpi\n      tag_207\n      tag_128\n      jump\t// in\n    tag_207:\n    tag_206:\n      0x20\n      mul\n      0x20\n      add\n      add\n        /* \"contracts/w62.sol\":10297:10321  newIds[i] = productCount */\n      dup2\n      dup2\n      mstore\n      pop\n      pop\n        /* \"contracts/w62.sol\":10364:10680  Product({... */\n      mload(0x40)\n      dup1\n      0xc0\n      add\n      0x40\n      mstore\n      dup1\n        /* \"contracts/w62.sol\":10398:10410  productCount */\n      sload(0x01)\n        /* \"contracts/w62.sol\":10364:10680  Product({... */\n      dup2\n      mstore\n      0x20\n      add\n        /* \"contracts/w62.sol\":10438:10445  batches */\n      0x05\n        /* \"contracts/w62.sol\":10438:10454  batches[batchId] */\n      0x00\n        /* \"contracts/w62.sol\":10446:10453  batchId */\n      dup10\n        /* \"contracts/w62.sol\":10438:10454  batches[batchId] */\n      dup2\n      mstore\n      0x20\n      add\n      swap1\n      dup2\n      mstore\n      0x20\n      add\n      0x00\n      keccak256\n        /* \"contracts/w62.sol\":10438:10459  batches[batchId].name */\n      0x01\n      add\n        /* \"contracts/w62.sol\":10460:10461  i */\n      dup4\n        /* \"contracts/w62.sol\":10438:10462  batches[batchId].name[i] */\n      dup2\n      sload\n      dup2\n      lt\n      tag_208\n      jumpi\n      tag_209\n      tag_128\n      jump\t// in\n    tag_209:\n    tag_208:\n      swap1\n      0x00\n      mstore\n      keccak256(0x00, 0x20)\n      add\n        /* \"contracts/w62.sol\":10364:10680  Product({... */\n      dup1\n      sload\n      tag_211\n      swap1\n      tag_136\n      jump\t// in\n    tag_211:\n      dup1\n      0x1f\n      add\n      0x20\n      dup1\n      swap2\n      div\n      mul\n      0x20\n      add\n      mload(0x40)\n      swap1\n      dup2\n      add\n      0x40\n      mstore\n      dup1\n      swap3\n      swap2\n      swap1\n      dup2\n      dup2\n      mstore\n      0x20\n      add\n      dup3\n      dup1\n      sload\n      tag_212\n      swap1\n      tag_136\n      jump\t// in\n    tag_212:\n      dup1\n      iszero\n      tag_213\n      jumpi\n      dup1\n      0x1f\n      lt\n      tag_214\n      jumpi\n      0x0100\n      dup1\n      dup4\n      sload\n      div\n      mul\n      dup4\n      mstore\n      swap2\n      0x20\n      add\n      swap2\n      jump(tag_213)\n    tag_214:\n      dup3\n      add\n      swap2\n      swap1\n      0x00\n      mstore\n      keccak256(0x00, 0x20)\n      swap1\n    tag_215:\n      dup2\n      sload\n      dup2\n      mstore\n      swap1\n      0x01\n      add\n      swap1\n      0x20\n      add\n      dup1\n      dup4\n      gt\n      tag_215\n      jumpi\n      dup3\n      swap1\n      sub\n      0x1f\n      and\n      dup3\n      add\n      swap2\n    tag_213:\n      pop\n      pop\n      pop\n      pop\n      pop\n      dup2\n      mstore\n      0x20\n      add\n        /* \"contracts/w62.sol\":10497:10504  batches */\n      0x05\n        /* \"contracts/w62.sol\":10497:10513  batches[batchId] */\n      0x00\n        /* \"contracts/w62.sol\":10505:10512  batchId */\n      dup10\n        /* \"contracts/w62.sol\":10497:10513  batches[batchId] */\n      dup2\n      mstore\n      0x20\n      add\n      swap1\n      dup2\n      mstore\n      0x20\n      add\n      0x00\n      keccak256\n        /* \"contracts/w62.sol\":10497:10525  batches[batchId].description */\n      0x02\n      add\n        /* \"contracts/w62.sol\":10526:10527  i */\n      dup4\n        /* \"contracts/w62.sol\":10497:10528  batches[batchId].description[i] */\n      dup2\n      sload\n      dup2\n      lt\n      tag_216\n      jumpi\n      tag_217\n      tag_128\n      jump\t// in\n    tag_217:\n    tag_216:\n      swap1\n      0x00\n      mstore\n      keccak256(0x00, 0x20)\n      add\n        /* \"contracts/w62.sol\":10364:10680  Product({... */\n      dup1\n      sload\n      tag_219\n      swap1\n      tag_136\n      jump\t// in\n    tag_219:\n      dup1\n      0x1f\n      add\n      0x20\n      dup1\n      swap2\n      div\n      mul\n      0x20\n      add\n      mload(0x40)\n      swap1\n      dup2\n      add\n      0x40\n      mstore\n      dup1\n      swap3\n      swap2\n      swap1\n      dup2\n      dup2\n      mstore\n      0x20\n      add\n      dup3\n      dup1\n      sload\n      tag_220\n      swap1\n      tag_136\n      jump\t// in\n    tag_220:\n      dup1\n      iszero\n      tag_221\n      jumpi\n      dup1\n      0x1f\n      lt\n      tag_222\n      jumpi\n      0x0100\n      dup1\n      dup4\n      sload\n      div\n      mul\n      dup4\n      mstore\n      swap2\n      0x20\n      add\n      swap2\n      jump(tag_221)\n    tag_222:\n      dup3\n      add\n      swap2\n      swap1\n      0x00\n      mstore\n      keccak256(0x00, 0x20)\n      swap1\n    tag_223:\n      dup2\n      sload\n      dup2\n      mstore\n      swap1\n      0x01\n      add\n      swap1\n      0x20\n      add\n      dup1\n      dup4\n      gt\n      tag_223\n      jumpi\n      dup3\n      swap1\n      sub\n      0x1f\n      and\n      dup3\n      add\n      swap2\n    tag_221:\n      pop\n      pop\n      pop\n      pop\n      pop\n      dup2\n      mstore\n      0x20\n      add\n        /* \"contracts/w62.sol\":10564:10574  msg.sender */\n      caller\n        /* \"contracts/w62.sol\":10364:10680  Product({... */\n      0xffffffffffffffffffffffffffffffffffffffff\n      and\n      dup2\n      mstore\n      0x20\n      add\n        /* \"contracts/w62.sol\":10607:10622  block.timestamp */\n      timestamp\n        /* \"contracts/w62.sol\":10364:10680  Product({... */\n      dup2\n      mstore\n      0x20\n      add\n        /* \"contracts/w62.sol\":10656:10661  false */\n      0x00\n        /* \"contracts/w62.sol\":10364:10680  Product({... */\n      iszero\n      iszero\n      dup2\n      mstore\n      pop\n        /* \"contracts/w62.sol\":10339:10347  products */\n      0x04\n        /* \"contracts/w62.sol\":10339:10361  products[productCount] */\n      0x00\n        /* \"contracts/w62.sol\":10348:10360  productCount */\n      sload(0x01)\n        /* \"contracts/w62.sol\":10339:10361  products[productCount] */\n      dup2\n      mstore\n      0x20\n      add\n      swap1\n      dup2\n      mstore\n      0x20\n      add\n      0x00\n      keccak256\n        /* \"contracts/w62.sol\":10339:10680  products[productCount] = Product({... */\n      0x00\n      dup3\n      add\n      mload\n      dup2\n      0x00\n      add\n      sstore\n      0x20\n      dup3\n      add\n      mload\n      dup2\n      0x01\n      add\n      swap1\n      dup2\n      tag_224\n      swap2\n      swap1\n      tag_225\n      jump\t// in\n    tag_224:\n      pop\n      0x40\n      dup3\n      add\n      mload\n      dup2\n      0x02\n      add\n      swap1\n      dup2\n      tag_226\n      swap2\n      swap1\n      tag_225\n      jump\t// in\n    tag_226:\n      pop\n      0x60\n      dup3\n      add\n      mload\n      dup2\n      0x03\n      add\n      exp(0x0100, 0x00)\n      dup2\n      sload\n      dup2\n      0xffffffffffffffffffffffffffffffffffffffff\n      mul\n      not\n      and\n      swap1\n      dup4\n      0xffffffffffffffffffffffffffffffffffffffff\n      and\n      mul\n      or\n      swap1\n      sstore\n      pop\n      0x80\n      dup3\n      add\n      mload\n      dup2\n      0x04\n      add\n      sstore\n      0xa0\n      dup3\n      add\n      mload\n      dup2\n      0x05\n      add\n      exp(0x0100, 0x00)\n      dup2\n      sload\n      dup2\n      0xff\n      mul\n      not\n      and\n      swap1\n      dup4\n      iszero\n      iszero\n      mul\n      or\n      swap1\n      sstore\n      pop\n      swap1\n      pop\n      pop\n        /* \"contracts/w62.sol\":10206:10209  i++ */\n      dup1\n      dup1\n      0x01\n      add\n      swap2\n      pop\n      pop\n        /* \"contracts/w62.sol\":10155:10695  for (uint i = 0; i < batches[batchId].name.length; i++) {... */\n      jump(tag_201)\n    tag_202:\n      pop\n        /* \"contracts/w62.sol\":10730:10736  newIds */\n      dup1\n        /* \"contracts/w62.sol\":10708:10715  batches */\n      0x05\n        /* \"contracts/w62.sol\":10708:10724  batches[batchId] */\n      0x00\n        /* \"contracts/w62.sol\":10716:10723  batchId */\n      dup8\n        /* \"contracts/w62.sol\":10708:10724  batches[batchId] */\n      dup2\n      mstore\n      0x20\n      add\n      swap1\n      dup2\n      mstore\n      0x20\n      add\n      0x00\n      keccak256\n        /* \"contracts/w62.sol\":10708:10727  batches[batchId].id */\n      0x00\n      add\n        /* \"contracts/w62.sol\":10708:10736  batches[batchId].id = newIds */\n      swap1\n      dup1\n      mload\n      swap1\n      0x20\n      add\n      swap1\n      tag_227\n      swap3\n      swap2\n      swap1\n      tag_228\n      jump\t// in\n    tag_227:\n      pop\n        /* \"contracts/w62.sol\":9894:10826  { // Register products... */\n      pop\n        /* \"contracts/w62.sol\":9802:11444  if (keccak256(abi.encodePacked(operation)) == keccak256(abi.encodePacked(\"registerBatch\"))) { // Register products... */\n      jump(tag_229)\n    tag_193:\n        /* \"contracts/w62.sol\":10888:10921  abi.encodePacked(\"transferBatch\") */\n      add(0x20, mload(0x40))\n      tag_230\n      swap1\n      tag_231\n      jump\t// in\n    tag_230:\n      mload(0x40)\n      0x20\n      dup2\n      dup4\n      sub\n      sub\n      dup2\n      mstore\n      swap1\n      0x40\n      mstore\n        /* \"contracts/w62.sol\":10878:10922  keccak256(abi.encodePacked(\"transferBatch\")) */\n      dup1\n      mload\n      swap1\n      0x20\n      add\n      keccak256\n        /* \"contracts/w62.sol\":10863:10872  operation */\n      dup3\n        /* \"contracts/w62.sol\":10846:10873  abi.encodePacked(operation) */\n      add(0x20, mload(0x40))\n      tag_232\n      swap2\n      swap1\n      tag_192\n      jump\t// in\n    tag_232:\n      mload(0x40)\n      0x20\n      dup2\n      dup4\n      sub\n      sub\n      dup2\n      mstore\n      swap1\n      0x40\n      mstore\n        /* \"contracts/w62.sol\":10836:10874  keccak256(abi.encodePacked(operation)) */\n      dup1\n      mload\n      swap1\n      0x20\n      add\n      keccak256\n        /* \"contracts/w62.sol\":10836:10922  keccak256(abi.encodePacked(operation)) == keccak256(abi.encodePacked(\"transferBatch\")) */\n      sub\n        /* \"contracts/w62.sol\":10832:11444  if (keccak256(abi.encodePacked(operation)) == keccak256(abi.encodePacked(\"transferBatch\"))) { // Transfer ownership... */\n      tag_233\n      jumpi\n        /* \"contracts/w62.sol\":10965:10971  uint i */\n      0x00\n        /* \"contracts/w62.sol\":10960:11105  for (uint i = 0; i < batches[batchId].id.length; i++) {... */\n    tag_234:\n        /* \"contracts/w62.sol\":10981:10988  batches */\n      0x05\n        /* \"contracts/w62.sol\":10981:10997  batches[batchId] */\n      0x00\n        /* \"contracts/w62.sol\":10989:10996  batchId */\n      dup7\n        /* \"contracts/w62.sol\":10981:10997  batches[batchId] */\n      dup2\n      mstore\n      0x20\n      add\n      swap1\n      dup2\n      mstore\n      0x20\n      add\n      0x00\n      keccak256\n        /* \"contracts/w62.sol\":10981:11000  batches[batchId].id */\n      0x00\n      add\n        /* \"contracts/w62.sol\":10981:11007  batches[batchId].id.length */\n      dup1\n      sload\n      swap1\n      pop\n        /* \"contracts/w62.sol\":10977:10978  i */\n      dup2\n        /* \"contracts/w62.sol\":10977:11007  i < batches[batchId].id.length */\n      lt\n        /* \"contracts/w62.sol\":10960:11105  for (uint i = 0; i < batches[batchId].id.length; i++) {... */\n      iszero\n      tag_235\n      jumpi\n        /* \"contracts/w62.sol\":11032:11090  transferProductOwnership(batches[batchId].id[i], newOwner) */\n      tag_237\n        /* \"contracts/w62.sol\":11057:11064  batches */\n      0x05\n        /* \"contracts/w62.sol\":11057:11073  batches[batchId] */\n      0x00\n        /* \"contracts/w62.sol\":11065:11072  batchId */\n      dup8\n        /* \"contracts/w62.sol\":11057:11073  batches[batchId] */\n      dup2\n      mstore\n      0x20\n      add\n      swap1\n      dup2\n      mstore\n      0x20\n      add\n      0x00\n      keccak256\n        /* \"contracts/w62.sol\":11057:11076  batches[batchId].id */\n      0x00\n      add\n        /* \"contracts/w62.sol\":11077:11078  i */\n      dup3\n        /* \"contracts/w62.sol\":11057:11079  batches[batchId].id[i] */\n      dup2\n      sload\n      dup2\n      lt\n      tag_238\n      jumpi\n      tag_239\n      tag_128\n      jump\t// in\n    tag_239:\n    tag_238:\n      swap1\n      0x00\n      mstore\n      keccak256(0x00, 0x20)\n      add\n      sload\n        /* \"contracts/w62.sol\":11081:11089  newOwner */\n      dup6\n        /* \"contracts/w62.sol\":11032:11056  transferProductOwnership */\n      tag_57\n        /* \"contracts/w62.sol\":11032:11090  transferProductOwnership(batches[batchId].id[i], newOwner) */\n      jump\t// in\n    tag_237:\n        /* \"contracts/w62.sol\":11009:11012  i++ */\n      dup1\n      dup1\n      0x01\n      add\n      swap2\n      pop\n      pop\n        /* \"contracts/w62.sol\":10960:11105  for (uint i = 0; i < batches[batchId].id.length; i++) {... */\n      jump(tag_234)\n    tag_235:\n      pop\n        /* \"contracts/w62.sol\":10832:11444  if (keccak256(abi.encodePacked(operation)) == keccak256(abi.encodePacked(\"transferBatch\"))) { // Transfer ownership... */\n      jump(tag_241)\n    tag_233:\n        /* \"contracts/w62.sol\":11177:11208  abi.encodePacked(\"recallBatch\") */\n      add(0x20, mload(0x40))\n      tag_242\n      swap1\n      tag_243\n      jump\t// in\n    tag_242:\n      mload(0x40)\n      0x20\n      dup2\n      dup4\n      sub\n      sub\n      dup2\n      mstore\n      swap1\n      0x40\n      mstore\n        /* \"contracts/w62.sol\":11167:11209  keccak256(abi.encodePacked(\"recallBatch\")) */\n      dup1\n      mload\n      swap1\n      0x20\n      add\n      keccak256\n        /* \"contracts/w62.sol\":11152:11161  operation */\n      dup3\n        /* \"contracts/w62.sol\":11135:11162  abi.encodePacked(operation) */\n      add(0x20, mload(0x40))\n      tag_244\n      swap2\n      swap1\n      tag_192\n      jump\t// in\n    tag_244:\n      mload(0x40)\n      0x20\n      dup2\n      dup4\n      sub\n      sub\n      dup2\n      mstore\n      swap1\n      0x40\n      mstore\n        /* \"contracts/w62.sol\":11125:11163  keccak256(abi.encodePacked(operation)) */\n      dup1\n      mload\n      swap1\n      0x20\n      add\n      keccak256\n        /* \"contracts/w62.sol\":11125:11209  keccak256(abi.encodePacked(operation)) == keccak256(abi.encodePacked(\"recallBatch\")) */\n      sub\n        /* \"contracts/w62.sol\":11121:11444  if (keccak256(abi.encodePacked(operation)) == keccak256(abi.encodePacked(\"recallBatch\"))) { // Recall products and batch... */\n      tag_245\n      jumpi\n        /* \"contracts/w62.sol\":11254:11282  recallBatch(batchId,reasons) */\n      tag_246\n        /* \"contracts/w62.sol\":11266:11273  batchId */\n      dup5\n        /* \"contracts/w62.sol\":11274:11281  reasons */\n      dup3\n        /* \"contracts/w62.sol\":11254:11265  recallBatch */\n      tag_29\n        /* \"contracts/w62.sol\":11254:11282  recallBatch(batchId,reasons) */\n      jump\t// in\n    tag_246:\n        /* \"contracts/w62.sol\":11358:11365  batchId */\n      dup4\n        /* \"contracts/w62.sol\":11344:11375  BatchRecalled(batchId, reasons) */\n      0x8f8994662430cbb3a0b089f812f1c51f46ef020e2ccc019cee8988c3312b4a66\n        /* \"contracts/w62.sol\":11367:11374  reasons */\n      dup3\n        /* \"contracts/w62.sol\":11344:11375  BatchRecalled(batchId, reasons) */\n      mload(0x40)\n      tag_247\n      swap2\n      swap1\n      tag_99\n      jump\t// in\n    tag_247:\n      mload(0x40)\n      dup1\n      swap2\n      sub\n      swap1\n      log2\n        /* \"contracts/w62.sol\":11121:11444  if (keccak256(abi.encodePacked(operation)) == keccak256(abi.encodePacked(\"recallBatch\"))) { // Recall products and batch... */\n      jump(tag_248)\n    tag_245:\n        /* \"contracts/w62.sol\":11406:11433  revert(\"Invalid operation\") */\n      mload(0x40)\n      0x08c379a000000000000000000000000000000000000000000000000000000000\n      dup2\n      mstore\n      0x04\n      add\n      tag_249\n      swap1\n      tag_250\n      jump\t// in\n    tag_249:\n      mload(0x40)\n      dup1\n      swap2\n      sub\n      swap1\n      revert\n        /* \"contracts/w62.sol\":11121:11444  if (keccak256(abi.encodePacked(operation)) == keccak256(abi.encodePacked(\"recallBatch\"))) { // Recall products and batch... */\n    tag_248:\n        /* \"contracts/w62.sol\":10832:11444  if (keccak256(abi.encodePacked(operation)) == keccak256(abi.encodePacked(\"transferBatch\"))) { // Transfer ownership... */\n    tag_241:\n        /* \"contracts/w62.sol\":9802:11444  if (keccak256(abi.encodePacked(operation)) == keccak256(abi.encodePacked(\"registerBatch\"))) { // Register products... */\n    tag_229:\n        /* \"contracts/w62.sol\":11474:11481  batchId */\n      dup4\n        /* \"contracts/w62.sol\":11459:11510  BatchProcessed(batchId, batches[batchId].operation) */\n      0x603489d1e5e10e7b7393a68b1707e0b98e7976704197482dc200a6b34674b54a\n        /* \"contracts/w62.sol\":11483:11490  batches */\n      0x05\n        /* \"contracts/w62.sol\":11483:11499  batches[batchId] */\n      0x00\n        /* \"contracts/w62.sol\":11491:11498  batchId */\n      dup8\n        /* \"contracts/w62.sol\":11483:11499  batches[batchId] */\n      dup2\n      mstore\n      0x20\n      add\n      swap1\n      dup2\n      mstore\n      0x20\n      add\n      0x00\n      keccak256\n        /* \"contracts/w62.sol\":11483:11509  batches[batchId].operation */\n      0x07\n      add\n        /* \"contracts/w62.sol\":11459:11510  BatchProcessed(batchId, batches[batchId].operation) */\n      mload(0x40)\n      tag_251\n      swap2\n      swap1\n      tag_252\n      jump\t// in\n    tag_251:\n      mload(0x40)\n      dup1\n      swap2\n      sub\n      swap1\n      log2\n        /* \"contracts/w62.sol\":9525:11517  function processBatch(uint256 batchId, address newOwner, string memory operation, string memory reasons) public onlyAuthorized {... */\n      pop\n      pop\n      pop\n      pop\n      jump\t// out\n        /* \"contracts/w62.sol\":3330:4179  function transferProductOwnership(uint256 productId, address newOwner) public onlyAuthorized{... */\n    tag_57:\n        /* \"contracts/w62.sol\":2176:2198  authorizedParticipants */\n      0x03\n        /* \"contracts/w62.sol\":2176:2210  authorizedParticipants[msg.sender] */\n      0x00\n        /* \"contracts/w62.sol\":2199:2209  msg.sender */\n      caller\n        /* \"contracts/w62.sol\":2176:2210  authorizedParticipants[msg.sender] */\n      0xffffffffffffffffffffffffffffffffffffffff\n      and\n      0xffffffffffffffffffffffffffffffffffffffff\n      and\n      dup2\n      mstore\n      0x20\n      add\n      swap1\n      dup2\n      mstore\n      0x20\n      add\n      0x00\n      keccak256\n      0x00\n      swap1\n      sload\n      swap1\n      0x0100\n      exp\n      swap1\n      div\n      0xff\n      and\n        /* \"contracts/w62.sol\":2168:2229  require(authorizedParticipants[msg.sender], \"Not authorized\") */\n      tag_254\n      jumpi\n      mload(0x40)\n      0x08c379a000000000000000000000000000000000000000000000000000000000\n      dup2\n      mstore\n      0x04\n      add\n      tag_255\n      swap1\n      tag_113\n      jump\t// in\n    tag_255:\n      mload(0x40)\n      dup1\n      swap2\n      sub\n      swap1\n      revert\n    tag_254:\n        /* \"contracts/w62.sol\":3452:3453  0 */\n      0x00\n        /* \"contracts/w62.sol\":3440:3449  productId */\n      dup3\n        /* \"contracts/w62.sol\":3440:3453  productId > 0 */\n      gt\n        /* \"contracts/w62.sol\":3440:3482  productId > 0 && productId <= productCount */\n      dup1\n      iszero\n      tag_257\n      jumpi\n      pop\n        /* \"contracts/w62.sol\":3470:3482  productCount */\n      sload(0x01)\n        /* \"contracts/w62.sol\":3457:3466  productId */\n      dup3\n        /* \"contracts/w62.sol\":3457:3482  productId <= productCount */\n      gt\n      iszero\n        /* \"contracts/w62.sol\":3440:3482  productId > 0 && productId <= productCount */\n    tag_257:\n        /* \"contracts/w62.sol\":3432:3505  require(productId > 0 && productId <= productCount, \"Invalid product ID\") */\n      tag_258\n      jumpi\n      mload(0x40)\n      0x08c379a000000000000000000000000000000000000000000000000000000000\n      dup2\n      mstore\n      0x04\n      add\n      tag_259\n      swap1\n      tag_260\n      jump\t// in\n    tag_259:\n      mload(0x40)\n      dup1\n      swap2\n      sub\n      swap1\n      revert\n    tag_258:\n        /* \"contracts/w62.sol\":3524:3532  products */\n      0x04\n        /* \"contracts/w62.sol\":3524:3543  products[productId] */\n      0x00\n        /* \"contracts/w62.sol\":3533:3542  productId */\n      dup4\n        /* \"contracts/w62.sol\":3524:3543  products[productId] */\n      dup2\n      mstore\n      0x20\n      add\n      swap1\n      dup2\n      mstore\n      0x20\n      add\n      0x00\n      keccak256\n        /* \"contracts/w62.sol\":3524:3554  products[productId].isRecalled */\n      0x05\n      add\n      0x00\n      swap1\n      sload\n      swap1\n      0x0100\n      exp\n      swap1\n      div\n      0xff\n      and\n        /* \"contracts/w62.sol\":3523:3554  !products[productId].isRecalled */\n      iszero\n        /* \"contracts/w62.sol\":3515:3598  require(!products[productId].isRecalled, \"Recalled products cannot be transferred\") */\n      tag_261\n      jumpi\n      mload(0x40)\n      0x08c379a000000000000000000000000000000000000000000000000000000000\n      dup2\n      mstore\n      0x04\n      add\n      tag_262\n      swap1\n      tag_263\n      jump\t// in\n    tag_262:\n      mload(0x40)\n      dup1\n      swap2\n      sub\n      swap1\n      revert\n    tag_261:\n        /* \"contracts/w62.sol\":3710:3711  0 */\n      0x00\n        /* \"contracts/w62.sol\":3690:3712  newOwner != address(0) */\n      0xffffffffffffffffffffffffffffffffffffffff\n      and\n        /* \"contracts/w62.sol\":3690:3698  newOwner */\n      dup2\n        /* \"contracts/w62.sol\":3690:3712  newOwner != address(0) */\n      0xffffffffffffffffffffffffffffffffffffffff\n      and\n      sub\n        /* \"contracts/w62.sol\":3682:3742  require(newOwner != address(0), \"Invalid new owner address\") */\n      tag_264\n      jumpi\n      mload(0x40)\n      0x08c379a000000000000000000000000000000000000000000000000000000000\n      dup2\n      mstore\n      0x04\n      add\n      tag_265\n      swap1\n      tag_266\n      jump\t// in\n    tag_265:\n      mload(0x40)\n      dup1\n      swap2\n      sub\n      swap1\n      revert\n    tag_264:\n        /* \"contracts/w62.sol\":3760:3782  authorizedParticipants */\n      0x03\n        /* \"contracts/w62.sol\":3760:3792  authorizedParticipants[newOwner] */\n      0x00\n        /* \"contracts/w62.sol\":3783:3791  newOwner */\n      dup3\n        /* \"contracts/w62.sol\":3760:3792  authorizedParticipants[newOwner] */\n      0xffffffffffffffffffffffffffffffffffffffff\n      and\n      0xffffffffffffffffffffffffffffffffffffffff\n      and\n      dup2\n      mstore\n      0x20\n      add\n      swap1\n      dup2\n      mstore\n      0x20\n      add\n      0x00\n      keccak256\n      0x00\n      swap1\n      sload\n      swap1\n      0x0100\n      exp\n      swap1\n      div\n      0xff\n      and\n        /* \"contracts/w62.sol\":3752:3824  require(authorizedParticipants[newOwner], \"New owner is not authorized\") */\n      tag_267\n      jumpi\n      mload(0x40)\n      0x08c379a000000000000000000000000000000000000000000000000000000000\n      dup2\n      mstore\n      0x04\n      add\n      tag_268\n      swap1\n      tag_269\n      jump\t// in\n    tag_268:\n      mload(0x40)\n      dup1\n      swap2\n      sub\n      swap1\n      revert\n    tag_267:\n        /* \"contracts/w62.sol\":3878:3888  msg.sender */\n      caller\n        /* \"contracts/w62.sol\":3842:3888  products[productId].currentOwner == msg.sender */\n      0xffffffffffffffffffffffffffffffffffffffff\n      and\n        /* \"contracts/w62.sol\":3842:3850  products */\n      0x04\n        /* \"contracts/w62.sol\":3842:3861  products[productId] */\n      0x00\n        /* \"contracts/w62.sol\":3851:3860  productId */\n      dup5\n        /* \"contracts/w62.sol\":3842:3861  products[productId] */\n      dup2\n      mstore\n      0x20\n      add\n      swap1\n      dup2\n      mstore\n      0x20\n      add\n      0x00\n      keccak256\n        /* \"contracts/w62.sol\":3842:3874  products[productId].currentOwner */\n      0x03\n      add\n      0x00\n      swap1\n      sload\n      swap1\n      0x0100\n      exp\n      swap1\n      div\n      0xffffffffffffffffffffffffffffffffffffffff\n      and\n        /* \"contracts/w62.sol\":3842:3888  products[productId].currentOwner == msg.sender */\n      0xffffffffffffffffffffffffffffffffffffffff\n      and\n      eq\n        /* \"contracts/w62.sol\":3834:3924  require(products[productId].currentOwner == msg.sender, \"Only current owner can transfer\") */\n      tag_270\n      jumpi\n      mload(0x40)\n      0x08c379a000000000000000000000000000000000000000000000000000000000\n      dup2\n      mstore\n      0x04\n      add\n      tag_271\n      swap1\n      tag_272\n      jump\t// in\n    tag_271:\n      mload(0x40)\n      dup1\n      swap2\n      sub\n      swap1\n      revert\n    tag_270:\n        /* \"contracts/w62.sol\":3934:3955  address previousOwner */\n      0x00\n        /* \"contracts/w62.sol\":3958:3966  products */\n      0x04\n        /* \"contracts/w62.sol\":3958:3977  products[productId] */\n      0x00\n        /* \"contracts/w62.sol\":3967:3976  productId */\n      dup5\n        /* \"contracts/w62.sol\":3958:3977  products[productId] */\n      dup2\n      mstore\n      0x20\n      add\n      swap1\n      dup2\n      mstore\n      0x20\n      add\n      0x00\n      keccak256\n        /* \"contracts/w62.sol\":3958:3990  products[productId].currentOwner */\n      0x03\n      add\n      0x00\n      swap1\n      sload\n      swap1\n      0x0100\n      exp\n      swap1\n      div\n      0xffffffffffffffffffffffffffffffffffffffff\n      and\n        /* \"contracts/w62.sol\":3934:3990  address previousOwner = products[productId].currentOwner */\n      swap1\n      pop\n        /* \"contracts/w62.sol\":4035:4043  newOwner */\n      dup2\n        /* \"contracts/w62.sol\":4000:4008  products */\n      0x04\n        /* \"contracts/w62.sol\":4000:4019  products[productId] */\n      0x00\n        /* \"contracts/w62.sol\":4009:4018  productId */\n      dup6\n        /* \"contracts/w62.sol\":4000:4019  products[productId] */\n      dup2\n      mstore\n      0x20\n      add\n      swap1\n      dup2\n      mstore\n      0x20\n      add\n      0x00\n      keccak256\n        /* \"contracts/w62.sol\":4000:4032  products[productId].currentOwner */\n      0x03\n      add\n      0x00\n        /* \"contracts/w62.sol\":4000:4043  products[productId].currentOwner = newOwner */\n      0x0100\n      exp\n      dup2\n      sload\n      dup2\n      0xffffffffffffffffffffffffffffffffffffffff\n      mul\n      not\n      and\n      swap1\n      dup4\n      0xffffffffffffffffffffffffffffffffffffffff\n      and\n      mul\n      or\n      swap1\n      sstore\n      pop\n        /* \"contracts/w62.sol\":4085:4100  block.timestamp */\n      timestamp\n        /* \"contracts/w62.sol\":4053:4061  products */\n      0x04\n        /* \"contracts/w62.sol\":4053:4072  products[productId] */\n      0x00\n        /* \"contracts/w62.sol\":4062:4071  productId */\n      dup6\n        /* \"contracts/w62.sol\":4053:4072  products[productId] */\n      dup2\n      mstore\n      0x20\n      add\n      swap1\n      dup2\n      mstore\n      0x20\n      add\n      0x00\n      keccak256\n        /* \"contracts/w62.sol\":4053:4082  products[productId].timestamp */\n      0x04\n      add\n        /* \"contracts/w62.sol\":4053:4100  products[productId].timestamp = block.timestamp */\n      dup2\n      swap1\n      sstore\n      pop\n        /* \"contracts/w62.sol\":4163:4171  newOwner */\n      dup2\n        /* \"contracts/w62.sol\":4115:4172  OwnershipTransferred( productId, previousOwner, newOwner) */\n      0xffffffffffffffffffffffffffffffffffffffff\n      and\n        /* \"contracts/w62.sol\":4148:4161  previousOwner */\n      dup2\n        /* \"contracts/w62.sol\":4115:4172  OwnershipTransferred( productId, previousOwner, newOwner) */\n      0xffffffffffffffffffffffffffffffffffffffff\n      and\n        /* \"contracts/w62.sol\":4137:4146  productId */\n      dup5\n        /* \"contracts/w62.sol\":4115:4172  OwnershipTransferred( productId, previousOwner, newOwner) */\n      0x16b85f49bf01212961345d3016c9a531894accf62eb7680f2045d79185cc0ec0\n      mload(0x40)\n      mload(0x40)\n      dup1\n      swap2\n      sub\n      swap1\n      log4\n        /* \"contracts/w62.sol\":3422:4179  {... */\n      pop\n        /* \"contracts/w62.sol\":3330:4179  function transferProductOwnership(uint256 productId, address newOwner) public onlyAuthorized{... */\n      pop\n      pop\n      jump\t// out\n        /* \"contracts/w62.sol\":277:331  mapping(address => bool) public authorizedParticipants */\n    tag_61:\n      mstore(0x20, 0x03)\n      dup1\n      0x00\n      mstore\n      keccak256(0x00, 0x40)\n      0x00\n      swap2\n      pop\n      sload\n      swap1\n      0x0100\n      exp\n      swap1\n      div\n      0xff\n      and\n      dup2\n      jump\t// out\n        /* \"contracts/w62.sol\":111:131  address public owner */\n    tag_64:\n      0x00\n      dup1\n      sload\n      swap1\n      0x0100\n      exp\n      swap1\n      div\n      0xffffffffffffffffffffffffffffffffffffffff\n      and\n      dup2\n      jump\t// out\n        /* \"contracts/w62.sol\":2712:3324  function registerProduct(string memory name, string memory description) public onlyAuthorized{... */\n    tag_70:\n        /* \"contracts/w62.sol\":2176:2198  authorizedParticipants */\n      0x03\n        /* \"contracts/w62.sol\":2176:2210  authorizedParticipants[msg.sender] */\n      0x00\n        /* \"contracts/w62.sol\":2199:2209  msg.sender */\n      caller\n        /* \"contracts/w62.sol\":2176:2210  authorizedParticipants[msg.sender] */\n      0xffffffffffffffffffffffffffffffffffffffff\n      and\n      0xffffffffffffffffffffffffffffffffffffffff\n      and\n      dup2\n      mstore\n      0x20\n      add\n      swap1\n      dup2\n      mstore\n      0x20\n      add\n      0x00\n      keccak256\n      0x00\n      swap1\n      sload\n      swap1\n      0x0100\n      exp\n      swap1\n      div\n      0xff\n      and\n        /* \"contracts/w62.sol\":2168:2229  require(authorizedParticipants[msg.sender], \"Not authorized\") */\n      tag_274\n      jumpi\n      mload(0x40)\n      0x08c379a000000000000000000000000000000000000000000000000000000000\n      dup2\n      mstore\n      0x04\n      add\n      tag_275\n      swap1\n      tag_113\n      jump\t// in\n    tag_275:\n      mload(0x40)\n      dup1\n      swap2\n      sub\n      swap1\n      revert\n    tag_274:\n        /* \"contracts/w62.sol\":2853:2854  0 */\n      0x00\n        /* \"contracts/w62.sol\":2838:2842  name */\n      dup3\n        /* \"contracts/w62.sol\":2832:2850  bytes(name).length */\n      mload\n        /* \"contracts/w62.sol\":2832:2854  bytes(name).length > 0 */\n      gt\n        /* \"contracts/w62.sol\":2824:2879  require(bytes(name).length > 0, \"Name cannot be empty\") */\n      tag_277\n      jumpi\n      mload(0x40)\n      0x08c379a000000000000000000000000000000000000000000000000000000000\n      dup2\n      mstore\n      0x04\n      add\n      tag_278\n      swap1\n      tag_279\n      jump\t// in\n    tag_278:\n      mload(0x40)\n      dup1\n      swap2\n      sub\n      swap1\n      revert\n    tag_277:\n        /* \"contracts/w62.sol\":2925:2926  0 */\n      0x00\n        /* \"contracts/w62.sol\":2903:2914  description */\n      dup2\n        /* \"contracts/w62.sol\":2897:2922  bytes(description).length */\n      mload\n        /* \"contracts/w62.sol\":2897:2926  bytes(description).length > 0 */\n      gt\n        /* \"contracts/w62.sol\":2889:2958  require(bytes(description).length > 0, \"Description cannot be empty\") */\n      tag_280\n      jumpi\n      mload(0x40)\n      0x08c379a000000000000000000000000000000000000000000000000000000000\n      dup2\n      mstore\n      0x04\n      add\n      tag_281\n      swap1\n      tag_282\n      jump\t// in\n    tag_281:\n      mload(0x40)\n      dup1\n      swap2\n      sub\n      swap1\n      revert\n    tag_280:\n        /* \"contracts/w62.sol\":2977:2989  productCount */\n      0x01\n      0x00\n        /* \"contracts/w62.sol\":2977:2991  productCount++ */\n      dup2\n      sload\n      dup1\n      swap3\n      swap2\n      swap1\n      tag_283\n      swap1\n      tag_205\n      jump\t// in\n    tag_283:\n      swap2\n      swap1\n      pop\n      sstore\n      pop\n        /* \"contracts/w62.sol\":3001:3018  uint256 productID */\n      0x00\n        /* \"contracts/w62.sol\":3021:3033  productCount */\n      sload(0x01)\n        /* \"contracts/w62.sol\":3001:3033  uint256 productID = productCount */\n      swap1\n      pop\n        /* \"contracts/w62.sol\":3065:3317  Product({... */\n      mload(0x40)\n      dup1\n      0xc0\n      add\n      0x40\n      mstore\n      dup1\n        /* \"contracts/w62.sol\":3091:3100  productID */\n      dup3\n        /* \"contracts/w62.sol\":3065:3317  Product({... */\n      dup2\n      mstore\n      0x20\n      add\n        /* \"contracts/w62.sol\":3120:3124  name */\n      dup5\n        /* \"contracts/w62.sol\":3065:3317  Product({... */\n      dup2\n      mstore\n      0x20\n      add\n        /* \"contracts/w62.sol\":3151:3162  description */\n      dup4\n        /* \"contracts/w62.sol\":3065:3317  Product({... */\n      dup2\n      mstore\n      0x20\n      add\n        /* \"contracts/w62.sol\":3190:3200  msg.sender */\n      caller\n        /* \"contracts/w62.sol\":3065:3317  Product({... */\n      0xffffffffffffffffffffffffffffffffffffffff\n      and\n      dup2\n      mstore\n      0x20\n      add\n        /* \"contracts/w62.sol\":3225:3240  block.timestamp */\n      timestamp\n        /* \"contracts/w62.sol\":3065:3317  Product({... */\n      dup2\n      mstore\n      0x20\n      add\n        /* \"contracts/w62.sol\":3266:3271  false */\n      0x00\n        /* \"contracts/w62.sol\":3065:3317  Product({... */\n      iszero\n      iszero\n      dup2\n      mstore\n      pop\n        /* \"contracts/w62.sol\":3043:3051  products */\n      0x04\n        /* \"contracts/w62.sol\":3043:3062  products[productID] */\n      0x00\n        /* \"contracts/w62.sol\":3052:3061  productID */\n      dup4\n        /* \"contracts/w62.sol\":3043:3062  products[productID] */\n      dup2\n      mstore\n      0x20\n      add\n      swap1\n      dup2\n      mstore\n      0x20\n      add\n      0x00\n      keccak256\n        /* \"contracts/w62.sol\":3043:3317  products[productID] = Product({... */\n      0x00\n      dup3\n      add\n      mload\n      dup2\n      0x00\n      add\n      sstore\n      0x20\n      dup3\n      add\n      mload\n      dup2\n      0x01\n      add\n      swap1\n      dup2\n      tag_284\n      swap2\n      swap1\n      tag_225\n      jump\t// in\n    tag_284:\n      pop\n      0x40\n      dup3\n      add\n      mload\n      dup2\n      0x02\n      add\n      swap1\n      dup2\n      tag_285\n      swap2\n      swap1\n      tag_225\n      jump\t// in\n    tag_285:\n      pop\n      0x60\n      dup3\n      add\n      mload\n      dup2\n      0x03\n      add\n      exp(0x0100, 0x00)\n      dup2\n      sload\n      dup2\n      0xffffffffffffffffffffffffffffffffffffffff\n      mul\n      not\n      and\n      swap1\n      dup4\n      0xffffffffffffffffffffffffffffffffffffffff\n      and\n      mul\n      or\n      swap1\n      sstore\n      pop\n      0x80\n      dup3\n      add\n      mload\n      dup2\n      0x04\n      add\n      sstore\n      0xa0\n      dup3\n      add\n      mload\n      dup2\n      0x05\n      add\n      exp(0x0100, 0x00)\n      dup2\n      sload\n      dup2\n      0xff\n      mul\n      not\n      and\n      swap1\n      dup4\n      iszero\n      iszero\n      mul\n      or\n      swap1\n      sstore\n      pop\n      swap1\n      pop\n      pop\n        /* \"contracts/w62.sol\":2805:3324  {... */\n      pop\n        /* \"contracts/w62.sol\":2712:3324  function registerProduct(string memory name, string memory description) public onlyAuthorized{... */\n      pop\n      pop\n      jump\t// out\n        /* \"contracts/w62.sol\":5303:6004  function recallProduct(uint256 productId, string memory reasons) public onlyAuthorized { //Verify caller authorization done... */\n    tag_73:\n        /* \"contracts/w62.sol\":2176:2198  authorizedParticipants */\n      0x03\n        /* \"contracts/w62.sol\":2176:2210  authorizedParticipants[msg.sender] */\n      0x00\n        /* \"contracts/w62.sol\":2199:2209  msg.sender */\n      caller\n        /* \"contracts/w62.sol\":2176:2210  authorizedParticipants[msg.sender] */\n      0xffffffffffffffffffffffffffffffffffffffff\n      and\n      0xffffffffffffffffffffffffffffffffffffffff\n      and\n      dup2\n      mstore\n      0x20\n      add\n      swap1\n      dup2\n      mstore\n      0x20\n      add\n      0x00\n      keccak256\n      0x00\n      swap1\n      sload\n      swap1\n      0x0100\n      exp\n      swap1\n      div\n      0xff\n      and\n        /* \"contracts/w62.sol\":2168:2229  require(authorizedParticipants[msg.sender], \"Not authorized\") */\n      tag_287\n      jumpi\n      mload(0x40)\n      0x08c379a000000000000000000000000000000000000000000000000000000000\n      dup2\n      mstore\n      0x04\n      add\n      tag_288\n      swap1\n      tag_113\n      jump\t// in\n    tag_288:\n      mload(0x40)\n      dup1\n      swap2\n      sub\n      swap1\n      revert\n    tag_287:\n        /* \"contracts/w62.sol\":5477:5501  productExists(productId) */\n      tag_290\n        /* \"contracts/w62.sol\":5491:5500  productId */\n      dup3\n        /* \"contracts/w62.sol\":5477:5490  productExists */\n      tag_80\n        /* \"contracts/w62.sol\":5477:5501  productExists(productId) */\n      jump\t// in\n    tag_290:\n        /* \"contracts/w62.sol\":5469:5527  require(productExists(productId), \"Product doesnt exists\") */\n      tag_291\n      jumpi\n      mload(0x40)\n      0x08c379a000000000000000000000000000000000000000000000000000000000\n      dup2\n      mstore\n      0x04\n      add\n      tag_292\n      swap1\n      tag_293\n      jump\t// in\n    tag_292:\n      mload(0x40)\n      dup1\n      swap2\n      sub\n      swap1\n      revert\n    tag_291:\n        /* \"contracts/w62.sol\":5627:5635  products */\n      0x04\n        /* \"contracts/w62.sol\":5627:5646  products[productId] */\n      0x00\n        /* \"contracts/w62.sol\":5636:5645  productId */\n      dup4\n        /* \"contracts/w62.sol\":5627:5646  products[productId] */\n      dup2\n      mstore\n      0x20\n      add\n      swap1\n      dup2\n      mstore\n      0x20\n      add\n      0x00\n      keccak256\n        /* \"contracts/w62.sol\":5627:5657  products[productId].isRecalled */\n      0x05\n      add\n      0x00\n      swap1\n      sload\n      swap1\n      0x0100\n      exp\n      swap1\n      div\n      0xff\n      and\n        /* \"contracts/w62.sol\":5626:5657  !products[productId].isRecalled */\n      iszero\n        /* \"contracts/w62.sol\":5618:5678  require(!products[productId].isRecalled, \"Already recalled\") */\n      tag_294\n      jumpi\n      mload(0x40)\n      0x08c379a000000000000000000000000000000000000000000000000000000000\n      dup2\n      mstore\n      0x04\n      add\n      tag_295\n      swap1\n      tag_296\n      jump\t// in\n    tag_295:\n      mload(0x40)\n      dup1\n      swap2\n      sub\n      swap1\n      revert\n    tag_294:\n        /* \"contracts/w62.sol\":5808:5812  true */\n      0x01\n        /* \"contracts/w62.sol\":5775:5783  products */\n      0x04\n        /* \"contracts/w62.sol\":5775:5794  products[productId] */\n      0x00\n        /* \"contracts/w62.sol\":5784:5793  productId */\n      dup5\n        /* \"contracts/w62.sol\":5775:5794  products[productId] */\n      dup2\n      mstore\n      0x20\n      add\n      swap1\n      dup2\n      mstore\n      0x20\n      add\n      0x00\n      keccak256\n        /* \"contracts/w62.sol\":5775:5805  products[productId].isRecalled */\n      0x05\n      add\n      0x00\n        /* \"contracts/w62.sol\":5775:5812  products[productId].isRecalled = true */\n      0x0100\n      exp\n      dup2\n      sload\n      dup2\n      0xff\n      mul\n      not\n      and\n      swap1\n      dup4\n      iszero\n      iszero\n      mul\n      or\n      swap1\n      sstore\n      pop\n        /* \"contracts/w62.sol\":5906:5915  productId */\n      dup2\n        /* \"contracts/w62.sol\":5890:5925  ProductRecalled(productId, reasons) */\n      0xcf945375036ee1ff64a8885b9c36844ac503b07ad7b0b3b78d023eb0a4cc623c\n        /* \"contracts/w62.sol\":5917:5924  reasons */\n      dup3\n        /* \"contracts/w62.sol\":5890:5925  ProductRecalled(productId, reasons) */\n      mload(0x40)\n      tag_297\n      swap2\n      swap1\n      tag_99\n      jump\t// in\n    tag_297:\n      mload(0x40)\n      dup1\n      swap2\n      sub\n      swap1\n      log2\n        /* \"contracts/w62.sol\":5303:6004  function recallProduct(uint256 productId, string memory reasons) public onlyAuthorized { //Verify caller authorization done... */\n      pop\n      pop\n      jump\t// out\n        /* \"contracts/w62.sol\":4439:4611  function batchExists(uint256 batchId) public view returns (bool) {... */\n    tag_76:\n        /* \"contracts/w62.sol\":4498:4502  bool */\n      0x00\n        /* \"contracts/w62.sol\":4545:4546  0 */\n      dup1\n        /* \"contracts/w62.sol\":4518:4525  batches */\n      0x05\n        /* \"contracts/w62.sol\":4518:4534  batches[batchId] */\n      0x00\n        /* \"contracts/w62.sol\":4526:4533  batchId */\n      dup5\n        /* \"contracts/w62.sol\":4518:4534  batches[batchId] */\n      dup2\n      mstore\n      0x20\n      add\n      swap1\n      dup2\n      mstore\n      0x20\n      add\n      0x00\n      keccak256\n        /* \"contracts/w62.sol\":4518:4542  batches[batchId].batchId */\n      0x06\n      add\n      sload\n        /* \"contracts/w62.sol\":4518:4546  batches[batchId].batchId !=0 */\n      eq\n        /* \"contracts/w62.sol\":4514:4583  if (batches[batchId].batchId !=0){... */\n      tag_299\n      jumpi\n        /* \"contracts/w62.sol\":4568:4572  true */\n      0x01\n        /* \"contracts/w62.sol\":4561:4572  return true */\n      swap1\n      pop\n      jump(tag_298)\n        /* \"contracts/w62.sol\":4514:4583  if (batches[batchId].batchId !=0){... */\n    tag_299:\n        /* \"contracts/w62.sol\":4599:4604  false */\n      0x00\n        /* \"contracts/w62.sol\":4592:4604  return false */\n      swap1\n      pop\n        /* \"contracts/w62.sol\":4439:4611  function batchExists(uint256 batchId) public view returns (bool) {... */\n    tag_298:\n      swap2\n      swap1\n      pop\n      jump\t// out\n        /* \"contracts/w62.sol\":4185:4433  function productExists(uint256 productId) public view returns (bool) {... */\n    tag_80:\n        /* \"contracts/w62.sol\":4248:4252  bool */\n      0x00\n        /* \"contracts/w62.sol\":4269:4275  uint i */\n      dup1\n        /* \"contracts/w62.sol\":4278:4279  1 */\n      0x01\n        /* \"contracts/w62.sol\":4269:4279  uint i = 1 */\n      swap1\n      pop\n        /* \"contracts/w62.sol\":4264:4405  for (uint i = 1; i <= productCount; i++) {... */\n    tag_301:\n        /* \"contracts/w62.sol\":4286:4298  productCount */\n      sload(0x01)\n        /* \"contracts/w62.sol\":4281:4282  i */\n      dup2\n        /* \"contracts/w62.sol\":4281:4298  i <= productCount */\n      gt\n        /* \"contracts/w62.sol\":4264:4405  for (uint i = 1; i <= productCount; i++) {... */\n      tag_302\n      jumpi\n        /* \"contracts/w62.sol\":4341:4350  productId */\n      dup3\n        /* \"contracts/w62.sol\":4323:4331  products */\n      0x04\n        /* \"contracts/w62.sol\":4323:4334  products[i] */\n      0x00\n        /* \"contracts/w62.sol\":4332:4333  i */\n      dup4\n        /* \"contracts/w62.sol\":4323:4334  products[i] */\n      dup2\n      mstore\n      0x20\n      add\n      swap1\n      dup2\n      mstore\n      0x20\n      add\n      0x00\n      keccak256\n        /* \"contracts/w62.sol\":4323:4337  products[i].id */\n      0x00\n      add\n      sload\n        /* \"contracts/w62.sol\":4323:4350  products[i].id == productId */\n      sub\n        /* \"contracts/w62.sol\":4319:4395  if (products[i].id == productId){... */\n      tag_304\n      jumpi\n        /* \"contracts/w62.sol\":4376:4380  true */\n      0x01\n        /* \"contracts/w62.sol\":4369:4380  return true */\n      swap2\n      pop\n      pop\n      jump(tag_300)\n        /* \"contracts/w62.sol\":4319:4395  if (products[i].id == productId){... */\n    tag_304:\n        /* \"contracts/w62.sol\":4300:4303  i++ */\n      dup1\n      dup1\n      tag_305\n      swap1\n      tag_205\n      jump\t// in\n    tag_305:\n      swap2\n      pop\n      pop\n        /* \"contracts/w62.sol\":4264:4405  for (uint i = 1; i <= productCount; i++) {... */\n      jump(tag_301)\n    tag_302:\n      pop\n        /* \"contracts/w62.sol\":4421:4426  false */\n      0x00\n        /* \"contracts/w62.sol\":4414:4426  return false */\n      swap1\n      pop\n        /* \"contracts/w62.sol\":4185:4433  function productExists(uint256 productId) public view returns (bool) {... */\n    tag_300:\n      swap2\n      swap1\n      pop\n      jump\t// out\n        /* \"contracts/w62.sol\":413:453  mapping(uint256 => Batch) public batches */\n    tag_84:\n      mstore(0x20, 0x05)\n      dup1\n      0x00\n      mstore\n      keccak256(0x00, 0x40)\n      0x00\n      swap2\n      pop\n      swap1\n      pop\n      dup1\n      0x03\n      add\n      0x00\n      swap1\n      sload\n      swap1\n      0x0100\n      exp\n      swap1\n      div\n      0xffffffffffffffffffffffffffffffffffffffff\n      and\n      swap1\n      dup1\n      0x04\n      add\n      sload\n      swap1\n      dup1\n      0x05\n      add\n      0x00\n      swap1\n      sload\n      swap1\n      0x0100\n      exp\n      swap1\n      div\n      0xff\n      and\n      swap1\n      dup1\n      0x06\n      add\n      sload\n      swap1\n      dup1\n      0x07\n      add\n      dup1\n      sload\n      tag_306\n      swap1\n      tag_136\n      jump\t// in\n    tag_306:\n      dup1\n      0x1f\n      add\n      0x20\n      dup1\n      swap2\n      div\n      mul\n      0x20\n      add\n      mload(0x40)\n      swap1\n      dup2\n      add\n      0x40\n      mstore\n      dup1\n      swap3\n      swap2\n      swap1\n      dup2\n      dup2\n      mstore\n      0x20\n      add\n      dup3\n      dup1\n      sload\n      tag_307\n      swap1\n      tag_136\n      jump\t// in\n    tag_307:\n      dup1\n      iszero\n      tag_308\n      jumpi\n      dup1\n      0x1f\n      lt\n      tag_309\n      jumpi\n      0x0100\n      dup1\n      dup4\n      sload\n      div\n      mul\n      dup4\n      mstore\n      swap2\n      0x20\n      add\n      swap2\n      jump(tag_308)\n    tag_309:\n      dup3\n      add\n      swap2\n      swap1\n      0x00\n      mstore\n      keccak256(0x00, 0x20)\n      swap1\n    tag_310:\n      dup2\n      sload\n      dup2\n      mstore\n      swap1\n      0x01\n      add\n      swap1\n      0x20\n      add\n      dup1\n      dup4\n      gt\n      tag_310\n      jumpi\n      dup3\n      swap1\n      sub\n      0x1f\n      and\n      dup3\n      add\n      swap2\n    tag_308:\n      pop\n      pop\n      pop\n      pop\n      pop\n      swap1\n      pop\n      dup6\n      jump\t// out\n        /* \"contracts/w62.sol\":6010:6523  function getProduct(uint256 productId) public view returns (... */\n    tag_89:\n        /* \"contracts/w62.sol\":6079:6089  uint256 id */\n      0x00\n        /* \"contracts/w62.sol\":6099:6117  string memory name */\n      0x60\n        /* \"contracts/w62.sol\":6127:6147  address currentOwner */\n      0x00\n        /* \"contracts/w62.sol\":6157:6174  uint256 timestamp */\n      dup1\n        /* \"contracts/w62.sol\":6184:6199  bool isRecalled */\n      0x00\n        /* \"contracts/w62.sol\":6252:6274  Product memory product */\n      dup1\n        /* \"contracts/w62.sol\":6277:6285  products */\n      0x04\n        /* \"contracts/w62.sol\":6277:6296  products[productId] */\n      0x00\n        /* \"contracts/w62.sol\":6286:6295  productId */\n      dup9\n        /* \"contracts/w62.sol\":6277:6296  products[productId] */\n      dup2\n      mstore\n      0x20\n      add\n      swap1\n      dup2\n      mstore\n      0x20\n      add\n      0x00\n      keccak256\n        /* \"contracts/w62.sol\":6252:6296  Product memory product = products[productId] */\n      mload(0x40)\n      dup1\n      0xc0\n      add\n      0x40\n      mstore\n      swap1\n      dup2\n      0x00\n      dup3\n      add\n      sload\n      dup2\n      mstore\n      0x20\n      add\n      0x01\n      dup3\n      add\n      dup1\n      sload\n      tag_312\n      swap1\n      tag_136\n      jump\t// in\n    tag_312:\n      dup1\n      0x1f\n      add\n      0x20\n      dup1\n      swap2\n      div\n      mul\n      0x20\n      add\n      mload(0x40)\n      swap1\n      dup2\n      add\n      0x40\n      mstore\n      dup1\n      swap3\n      swap2\n      swap1\n      dup2\n      dup2\n      mstore\n      0x20\n      add\n      dup3\n      dup1\n      sload\n      tag_313\n      swap1\n      tag_136\n      jump\t// in\n    tag_313:\n      dup1\n      iszero\n      tag_314\n      jumpi\n      dup1\n      0x1f\n      lt\n      tag_315\n      jumpi\n      0x0100\n      dup1\n      dup4\n      sload\n      div\n      mul\n      dup4\n      mstore\n      swap2\n      0x20\n      add\n      swap2\n      jump(tag_314)\n    tag_315:\n      dup3\n      add\n      swap2\n      swap1\n      0x00\n      mstore\n      keccak256(0x00, 0x20)\n      swap1\n    tag_316:\n      dup2\n      sload\n      dup2\n      mstore\n      swap1\n      0x01\n      add\n      swap1\n      0x20\n      add\n      dup1\n      dup4\n      gt\n      tag_316\n      jumpi\n      dup3\n      swap1\n      sub\n      0x1f\n      and\n      dup3\n      add\n      swap2\n    tag_314:\n      pop\n      pop\n      pop\n      pop\n      pop\n      dup2\n      mstore\n      0x20\n      add\n      0x02\n      dup3\n      add\n      dup1\n      sload\n      tag_317\n      swap1\n      tag_136\n      jump\t// in\n    tag_317:\n      dup1\n      0x1f\n      add\n      0x20\n      dup1\n      swap2\n      div\n      mul\n      0x20\n      add\n      mload(0x40)\n      swap1\n      dup2\n      add\n      0x40\n      mstore\n      dup1\n      swap3\n      swap2\n      swap1\n      dup2\n      dup2\n      mstore\n      0x20\n      add\n      dup3\n      dup1\n      sload\n      tag_318\n      swap1\n      tag_136\n      jump\t// in\n    tag_318:\n      dup1\n      iszero\n      tag_319\n      jumpi\n      dup1\n      0x1f\n      lt\n      tag_320\n      jumpi\n      0x0100\n      dup1\n      dup4\n      sload\n      div\n      mul\n      dup4\n      mstore\n      swap2\n      0x20\n      add\n      swap2\n      jump(tag_319)\n    tag_320:\n      dup3\n      add\n      swap2\n      swap1\n      0x00\n      mstore\n      keccak256(0x00, 0x20)\n      swap1\n    tag_321:\n      dup2\n      sload\n      dup2\n      mstore\n      swap1\n      0x01\n      add\n      swap1\n      0x20\n      add\n      dup1\n      dup4\n      gt\n      tag_321\n      jumpi\n      dup3\n      swap1\n      sub\n      0x1f\n      and\n      dup3\n      add\n      swap2\n    tag_319:\n      pop\n      pop\n      pop\n      pop\n      pop\n      dup2\n      mstore\n      0x20\n      add\n      0x03\n      dup3\n      add\n      0x00\n      swap1\n      sload\n      swap1\n      0x0100\n      exp\n      swap1\n      div\n      0xffffffffffffffffffffffffffffffffffffffff\n      and\n      0xffffffffffffffffffffffffffffffffffffffff\n      and\n      0xffffffffffffffffffffffffffffffffffffffff\n      and\n      dup2\n      mstore\n      0x20\n      add\n      0x04\n      dup3\n      add\n      sload\n      dup2\n      mstore\n      0x20\n      add\n      0x05\n      dup3\n      add\n      0x00\n      swap1\n      sload\n      swap1\n      0x0100\n      exp\n      swap1\n      div\n      0xff\n      and\n      iszero\n      iszero\n      iszero\n      iszero\n      dup2\n      mstore\n      pop\n      pop\n      swap1\n      pop\n        /* \"contracts/w62.sol\":6373:6380  product */\n      dup1\n        /* \"contracts/w62.sol\":6373:6383  product.id */\n      0x00\n      add\n      mload\n        /* \"contracts/w62.sol\":6397:6404  product */\n      dup2\n        /* \"contracts/w62.sol\":6397:6409  product.name */\n      0x20\n      add\n      mload\n        /* \"contracts/w62.sol\":6423:6430  product */\n      dup3\n        /* \"contracts/w62.sol\":6423:6443  product.currentOwner */\n      0x60\n      add\n      mload\n        /* \"contracts/w62.sol\":6457:6464  product */\n      dup4\n        /* \"contracts/w62.sol\":6457:6474  product.timestamp */\n      0x80\n      add\n      mload\n        /* \"contracts/w62.sol\":6488:6495  product */\n      dup5\n        /* \"contracts/w62.sol\":6488:6506  product.isRecalled */\n      0xa0\n      add\n      mload\n        /* \"contracts/w62.sol\":6352:6516  return (... */\n      swap6\n      pop\n      swap6\n      pop\n      swap6\n      pop\n      swap6\n      pop\n      swap6\n      pop\n      pop\n        /* \"contracts/w62.sol\":6010:6523  function getProduct(uint256 productId) public view returns (... */\n      swap2\n      swap4\n      swap6\n      swap1\n      swap3\n      swap5\n      pop\n      jump\t// out\n        /* \"contracts/w62.sol\":2379:2706  function authorizeParticipant(address participant) public onlyOwner{... */\n    tag_94:\n        /* \"contracts/w62.sol\":2086:2091  owner */\n      0x00\n      dup1\n      sload\n      swap1\n      0x0100\n      exp\n      swap1\n      div\n      0xffffffffffffffffffffffffffffffffffffffff\n      and\n        /* \"contracts/w62.sol\":2072:2091  msg.sender == owner */\n      0xffffffffffffffffffffffffffffffffffffffff\n      and\n        /* \"contracts/w62.sol\":2072:2082  msg.sender */\n      caller\n        /* \"contracts/w62.sol\":2072:2091  msg.sender == owner */\n      0xffffffffffffffffffffffffffffffffffffffff\n      and\n      eq\n        /* \"contracts/w62.sol\":2064:2109  require(msg.sender == owner, \"Not the owner\") */\n      tag_323\n      jumpi\n      mload(0x40)\n      0x08c379a000000000000000000000000000000000000000000000000000000000\n      dup2\n      mstore\n      0x04\n      add\n      tag_324\n      swap1\n      tag_325\n      jump\t// in\n    tag_324:\n      mload(0x40)\n      dup1\n      swap2\n      sub\n      swap1\n      revert\n    tag_323:\n        /* \"contracts/w62.sol\":2487:2488  0 */\n      0x00\n        /* \"contracts/w62.sol\":2464:2489  participant != address(0) */\n      0xffffffffffffffffffffffffffffffffffffffff\n      and\n        /* \"contracts/w62.sol\":2464:2475  participant */\n      dup2\n        /* \"contracts/w62.sol\":2464:2489  participant != address(0) */\n      0xffffffffffffffffffffffffffffffffffffffff\n      and\n      sub\n        /* \"contracts/w62.sol\":2456:2509  require(participant != address(0), \"Invalid address\") */\n      tag_327\n      jumpi\n      mload(0x40)\n      0x08c379a000000000000000000000000000000000000000000000000000000000\n      dup2\n      mstore\n      0x04\n      add\n      tag_328\n      swap1\n      tag_329\n      jump\t// in\n    tag_328:\n      mload(0x40)\n      dup1\n      swap2\n      sub\n      swap1\n      revert\n    tag_327:\n        /* \"contracts/w62.sol\":2528:2550  authorizedParticipants */\n      0x03\n        /* \"contracts/w62.sol\":2528:2563  authorizedParticipants[participant] */\n      0x00\n        /* \"contracts/w62.sol\":2551:2562  participant */\n      dup3\n        /* \"contracts/w62.sol\":2528:2563  authorizedParticipants[participant] */\n      0xffffffffffffffffffffffffffffffffffffffff\n      and\n      0xffffffffffffffffffffffffffffffffffffffff\n      and\n      dup2\n      mstore\n      0x20\n      add\n      swap1\n      dup2\n      mstore\n      0x20\n      add\n      0x00\n      keccak256\n      0x00\n      swap1\n      sload\n      swap1\n      0x0100\n      exp\n      swap1\n      div\n      0xff\n      and\n        /* \"contracts/w62.sol\":2527:2563  !authorizedParticipants[participant] */\n      iszero\n        /* \"contracts/w62.sol\":2519:2598  require(!authorizedParticipants[participant], \"Participant already authorized\") */\n      tag_330\n      jumpi\n      mload(0x40)\n      0x08c379a000000000000000000000000000000000000000000000000000000000\n      dup2\n      mstore\n      0x04\n      add\n      tag_331\n      swap1\n      tag_332\n      jump\t// in\n    tag_331:\n      mload(0x40)\n      dup1\n      swap2\n      sub\n      swap1\n      revert\n    tag_330:\n        /* \"contracts/w62.sol\":2646:2650  true */\n      0x01\n        /* \"contracts/w62.sol\":2608:2630  authorizedParticipants */\n      0x03\n        /* \"contracts/w62.sol\":2608:2643  authorizedParticipants[participant] */\n      0x00\n        /* \"contracts/w62.sol\":2631:2642  participant */\n      dup4\n        /* \"contracts/w62.sol\":2608:2643  authorizedParticipants[participant] */\n      0xffffffffffffffffffffffffffffffffffffffff\n      and\n      0xffffffffffffffffffffffffffffffffffffffff\n      and\n      dup2\n      mstore\n      0x20\n      add\n      swap1\n      dup2\n      mstore\n      0x20\n      add\n      0x00\n      keccak256\n      0x00\n        /* \"contracts/w62.sol\":2608:2650  authorizedParticipants[participant] = true */\n      0x0100\n      exp\n      dup2\n      sload\n      dup2\n      0xff\n      mul\n      not\n      and\n      swap1\n      dup4\n      iszero\n      iszero\n      mul\n      or\n      swap1\n      sstore\n      pop\n        /* \"contracts/w62.sol\":2687:2698  participant */\n      dup1\n        /* \"contracts/w62.sol\":2665:2699  ParticipantAuthorized(participant) */\n      0xffffffffffffffffffffffffffffffffffffffff\n      and\n      0x3cbcbb9ba5a54d0762f39fd455fd2900fbcfcd0e0693e2c87db13043c400b55f\n      mload(0x40)\n      mload(0x40)\n      dup1\n      swap2\n      sub\n      swap1\n      log2\n        /* \"contracts/w62.sol\":2379:2706  function authorizeParticipant(address participant) public onlyOwner{... */\n      pop\n      jump\t// out\n        /* \"contracts/w62.sol\":7520:7742  function operationConvert(uint256 x) public pure returns (string memory y){... */\n    tag_97:\n        /* \"contracts/w62.sol\":7578:7593  string memory y */\n      0x60\n        /* \"contracts/w62.sol\":7613:7614  1 */\n      0x01\n        /* \"contracts/w62.sol\":7608:7609  x */\n      dup3\n        /* \"contracts/w62.sol\":7608:7614  x == 1 */\n      sub\n        /* \"contracts/w62.sol\":7604:7735  if (x == 1) return \"resgisterBatch\";... */\n      tag_334\n      jumpi\n        /* \"contracts/w62.sol\":7616:7639  return \"resgisterBatch\" */\n      mload(0x40)\n      dup1\n      0x40\n      add\n      0x40\n      mstore\n      dup1\n      0x0e\n      dup2\n      mstore\n      0x20\n      add\n      0x7265736769737465724261746368000000000000000000000000000000000000\n      dup2\n      mstore\n      pop\n      swap1\n      pop\n      jump(tag_333)\n        /* \"contracts/w62.sol\":7604:7735  if (x == 1) return \"resgisterBatch\";... */\n    tag_334:\n        /* \"contracts/w62.sol\":7663:7664  2 */\n      0x02\n        /* \"contracts/w62.sol\":7658:7659  x */\n      dup3\n        /* \"contracts/w62.sol\":7658:7664  x == 2 */\n      sub\n        /* \"contracts/w62.sol\":7654:7735  if (x == 2) return \"transferBatch\";... */\n      tag_336\n      jumpi\n        /* \"contracts/w62.sol\":7666:7688  return \"transferBatch\" */\n      mload(0x40)\n      dup1\n      0x40\n      add\n      0x40\n      mstore\n      dup1\n      0x0d\n      dup2\n      mstore\n      0x20\n      add\n      0x7472616e73666572426174636800000000000000000000000000000000000000\n      dup2\n      mstore\n      pop\n      swap1\n      pop\n      jump(tag_333)\n        /* \"contracts/w62.sol\":7654:7735  if (x == 2) return \"transferBatch\";... */\n    tag_336:\n        /* \"contracts/w62.sol\":7712:7713  3 */\n      0x03\n        /* \"contracts/w62.sol\":7707:7708  x */\n      dup3\n        /* \"contracts/w62.sol\":7707:7713  x == 3 */\n      sub\n        /* \"contracts/w62.sol\":7703:7735  if (x == 3) return \"recallBatch\" */\n      tag_338\n      jumpi\n        /* \"contracts/w62.sol\":7715:7735  return \"recallBatch\" */\n      mload(0x40)\n      dup1\n      0x40\n      add\n      0x40\n      mstore\n      dup1\n      0x0b\n      dup2\n      mstore\n      0x20\n      add\n      0x726563616c6c4261746368000000000000000000000000000000000000000000\n      dup2\n      mstore\n      pop\n      swap1\n      pop\n      jump(tag_333)\n        /* \"contracts/w62.sol\":7703:7735  if (x == 3) return \"recallBatch\" */\n    tag_338:\n        /* \"contracts/w62.sol\":7520:7742  function operationConvert(uint256 x) public pure returns (string memory y){... */\n    tag_333:\n      swap2\n      swap1\n      pop\n      jump\t// out\n        /* \"contracts/w62.sol\":2253:2373  function addParticipant(address participant) public onlyOwner{... */\n    tag_102:\n        /* \"contracts/w62.sol\":2086:2091  owner */\n      0x00\n      dup1\n      sload\n      swap1\n      0x0100\n      exp\n      swap1\n      div\n      0xffffffffffffffffffffffffffffffffffffffff\n      and\n        /* \"contracts/w62.sol\":2072:2091  msg.sender == owner */\n      0xffffffffffffffffffffffffffffffffffffffff\n      and\n        /* \"contracts/w62.sol\":2072:2082  msg.sender */\n      caller\n        /* \"contracts/w62.sol\":2072:2091  msg.sender == owner */\n      0xffffffffffffffffffffffffffffffffffffffff\n      and\n      eq\n        /* \"contracts/w62.sol\":2064:2109  require(msg.sender == owner, \"Not the owner\") */\n      tag_340\n      jumpi\n      mload(0x40)\n      0x08c379a000000000000000000000000000000000000000000000000000000000\n      dup2\n      mstore\n      0x04\n      add\n      tag_341\n      swap1\n      tag_325\n      jump\t// in\n    tag_341:\n      mload(0x40)\n      dup1\n      swap2\n      sub\n      swap1\n      revert\n    tag_340:\n        /* \"contracts/w62.sol\":2362:2366  true */\n      0x01\n        /* \"contracts/w62.sol\":2324:2346  authorizedParticipants */\n      0x03\n        /* \"contracts/w62.sol\":2324:2359  authorizedParticipants[participant] */\n      0x00\n        /* \"contracts/w62.sol\":2347:2358  participant */\n      dup4\n        /* \"contracts/w62.sol\":2324:2359  authorizedParticipants[participant] */\n      0xffffffffffffffffffffffffffffffffffffffff\n      and\n      0xffffffffffffffffffffffffffffffffffffffff\n      and\n      dup2\n      mstore\n      0x20\n      add\n      swap1\n      dup2\n      mstore\n      0x20\n      add\n      0x00\n      keccak256\n      0x00\n        /* \"contracts/w62.sol\":2324:2366  authorizedParticipants[participant] = true */\n      0x0100\n      exp\n      dup2\n      sload\n      dup2\n      0xff\n      mul\n      not\n      and\n      swap1\n      dup4\n      iszero\n      iszero\n      mul\n      or\n      swap1\n      sstore\n      pop\n        /* \"contracts/w62.sol\":2253:2373  function addParticipant(address participant) public onlyOwner{... */\n      pop\n      jump\t// out\n        /* \"contracts/w62.sol\":157:184  uint256 public productCount */\n    tag_104:\n      sload(0x01)\n      dup2\n      jump\t// out\n        /* \"contracts/w62.sol\":8025:9520  function createBatch(... */\n    tag_109:\n        /* \"contracts/w62.sol\":2176:2198  authorizedParticipants */\n      0x03\n        /* \"contracts/w62.sol\":2176:2210  authorizedParticipants[msg.sender] */\n      0x00\n        /* \"contracts/w62.sol\":2199:2209  msg.sender */\n      caller\n        /* \"contracts/w62.sol\":2176:2210  authorizedParticipants[msg.sender] */\n      0xffffffffffffffffffffffffffffffffffffffff\n      and\n      0xffffffffffffffffffffffffffffffffffffffff\n      and\n      dup2\n      mstore\n      0x20\n      add\n      swap1\n      dup2\n      mstore\n      0x20\n      add\n      0x00\n      keccak256\n      0x00\n      swap1\n      sload\n      swap1\n      0x0100\n      exp\n      swap1\n      div\n      0xff\n      and\n        /* \"contracts/w62.sol\":2168:2229  require(authorizedParticipants[msg.sender], \"Not authorized\") */\n      tag_344\n      jumpi\n      mload(0x40)\n      0x08c379a000000000000000000000000000000000000000000000000000000000\n      dup2\n      mstore\n      0x04\n      add\n      tag_345\n      swap1\n      tag_113\n      jump\t// in\n    tag_345:\n      mload(0x40)\n      dup1\n      swap2\n      sub\n      swap1\n      revert\n    tag_344:\n        /* \"contracts/w62.sol\":8331:8364  abi.encodePacked(\"registerBatch\") */\n      add(0x20, mload(0x40))\n      tag_347\n      swap1\n      tag_190\n      jump\t// in\n    tag_347:\n      mload(0x40)\n      0x20\n      dup2\n      dup4\n      sub\n      sub\n      dup2\n      mstore\n      swap1\n      0x40\n      mstore\n        /* \"contracts/w62.sol\":8321:8365  keccak256(abi.encodePacked(\"registerBatch\")) */\n      dup1\n      mload\n      swap1\n      0x20\n      add\n      keccak256\n        /* \"contracts/w62.sol\":8306:8315  operation */\n      dup2\n        /* \"contracts/w62.sol\":8289:8316  abi.encodePacked(operation) */\n      add(0x20, mload(0x40))\n      tag_348\n      swap2\n      swap1\n      tag_192\n      jump\t// in\n    tag_348:\n      mload(0x40)\n      0x20\n      dup2\n      dup4\n      sub\n      sub\n      dup2\n      mstore\n      swap1\n      0x40\n      mstore\n        /* \"contracts/w62.sol\":8279:8317  keccak256(abi.encodePacked(operation)) */\n      dup1\n      mload\n      swap1\n      0x20\n      add\n      keccak256\n        /* \"contracts/w62.sol\":8279:8365  keccak256(abi.encodePacked(operation)) == keccak256(abi.encodePacked(\"registerBatch\")) */\n      sub\n        /* \"contracts/w62.sol\":8275:8898  if (keccak256(abi.encodePacked(operation)) == keccak256(abi.encodePacked(\"registerBatch\"))) {... */\n      tag_349\n      jumpi\n        /* \"contracts/w62.sol\":8406:8407  0 */\n      0x00\n        /* \"contracts/w62.sol\":8389:8395  lst_id */\n      dup5\n        /* \"contracts/w62.sol\":8389:8402  lst_id.length */\n      mload\n        /* \"contracts/w62.sol\":8389:8407  lst_id.length == 0 */\n      eq\n        /* \"contracts/w62.sol\":8381:8452  require(lst_id.length == 0, \"For registerBatch, ID list must be empty\") */\n      tag_350\n      jumpi\n      mload(0x40)\n      0x08c379a000000000000000000000000000000000000000000000000000000000\n      dup2\n      mstore\n      0x04\n      add\n      tag_351\n      swap1\n      tag_352\n      jump\t// in\n    tag_351:\n      mload(0x40)\n      dup1\n      swap2\n      sub\n      swap1\n      revert\n    tag_350:\n        /* \"contracts/w62.sol\":8493:8508  lst_description */\n      dup2\n        /* \"contracts/w62.sol\":8493:8515  lst_description.length */\n      mload\n        /* \"contracts/w62.sol\":8474:8482  lst_name */\n      dup4\n        /* \"contracts/w62.sol\":8474:8489  lst_name.length */\n      mload\n        /* \"contracts/w62.sol\":8474:8515  lst_name.length == lst_description.length */\n      eq\n        /* \"contracts/w62.sol\":8466:8567  require(lst_name.length == lst_description.length, \"Name and description lists must match in length\") */\n      tag_353\n      jumpi\n      mload(0x40)\n      0x08c379a000000000000000000000000000000000000000000000000000000000\n      dup2\n      mstore\n      0x04\n      add\n      tag_354\n      swap1\n      tag_355\n      jump\t// in\n    tag_354:\n      mload(0x40)\n      dup1\n      swap2\n      sub\n      swap1\n      revert\n    tag_353:\n        /* \"contracts/w62.sol\":8275:8898  if (keccak256(abi.encodePacked(operation)) == keccak256(abi.encodePacked(\"registerBatch\"))) {... */\n      jump(tag_356)\n    tag_349:\n        /* \"contracts/w62.sol\":8622:8623  0 */\n      0x00\n        /* \"contracts/w62.sol\":8606:8612  lst_id */\n      dup5\n        /* \"contracts/w62.sol\":8606:8619  lst_id.length */\n      mload\n        /* \"contracts/w62.sol\":8606:8623  lst_id.length > 0 */\n      gt\n        /* \"contracts/w62.sol\":8598:8679  require(lst_id.length > 0, \"ID list cannot be empty for non-register operations\") */\n      tag_357\n      jumpi\n      mload(0x40)\n      0x08c379a000000000000000000000000000000000000000000000000000000000\n      dup2\n      mstore\n      0x04\n      add\n      tag_358\n      swap1\n      tag_359\n      jump\t// in\n    tag_358:\n      mload(0x40)\n      dup1\n      swap2\n      sub\n      swap1\n      revert\n    tag_357:\n        /* \"contracts/w62.sol\":8718:8726  lst_name */\n      dup3\n        /* \"contracts/w62.sol\":8718:8733  lst_name.length */\n      mload\n        /* \"contracts/w62.sol\":8701:8707  lst_id */\n      dup5\n        /* \"contracts/w62.sol\":8701:8714  lst_id.length */\n      mload\n        /* \"contracts/w62.sol\":8701:8733  lst_id.length == lst_name.length */\n      eq\n        /* \"contracts/w62.sol\":8693:8776  require(lst_id.length == lst_name.length, \"ID and name lists must match in length\") */\n      tag_360\n      jumpi\n      mload(0x40)\n      0x08c379a000000000000000000000000000000000000000000000000000000000\n      dup2\n      mstore\n      0x04\n      add\n      tag_361\n      swap1\n      tag_362\n      jump\t// in\n    tag_361:\n      mload(0x40)\n      dup1\n      swap2\n      sub\n      swap1\n      revert\n    tag_360:\n        /* \"contracts/w62.sol\":8815:8830  lst_description */\n      dup2\n        /* \"contracts/w62.sol\":8815:8837  lst_description.length */\n      mload\n        /* \"contracts/w62.sol\":8798:8804  lst_id */\n      dup5\n        /* \"contracts/w62.sol\":8798:8811  lst_id.length */\n      mload\n        /* \"contracts/w62.sol\":8798:8837  lst_id.length == lst_description.length */\n      eq\n        /* \"contracts/w62.sol\":8790:8887  require(lst_id.length == lst_description.length, \"ID and description lists must match in length\") */\n      tag_363\n      jumpi\n      mload(0x40)\n      0x08c379a000000000000000000000000000000000000000000000000000000000\n      dup2\n      mstore\n      0x04\n      add\n      tag_364\n      swap1\n      tag_365\n      jump\t// in\n    tag_364:\n      mload(0x40)\n      dup1\n      swap2\n      sub\n      swap1\n      revert\n    tag_363:\n        /* \"contracts/w62.sol\":8275:8898  if (keccak256(abi.encodePacked(operation)) == keccak256(abi.encodePacked(\"registerBatch\"))) {... */\n    tag_356:\n        /* \"contracts/w62.sol\":8933:8934  0 */\n      0x00\n        /* \"contracts/w62.sol\":8915:8923  lst_name */\n      dup4\n        /* \"contracts/w62.sol\":8915:8930  lst_name.length */\n      mload\n        /* \"contracts/w62.sol\":8915:8934  lst_name.length > 0 */\n      gt\n        /* \"contracts/w62.sol\":8907:8964  require(lst_name.length > 0, \"Name list cannot be empty\") */\n      tag_366\n      jumpi\n      mload(0x40)\n      0x08c379a000000000000000000000000000000000000000000000000000000000\n      dup2\n      mstore\n      0x04\n      add\n      tag_367\n      swap1\n      tag_368\n      jump\t// in\n    tag_367:\n      mload(0x40)\n      dup1\n      swap2\n      sub\n      swap1\n      revert\n    tag_366:\n        /* \"contracts/w62.sol\":9007:9008  0 */\n      0x00\n        /* \"contracts/w62.sol\":8982:8997  lst_description */\n      dup3\n        /* \"contracts/w62.sol\":8982:9004  lst_description.length */\n      mload\n        /* \"contracts/w62.sol\":8982:9008  lst_description.length > 0 */\n      gt\n        /* \"contracts/w62.sol\":8974:9045  require(lst_description.length > 0, \"Description list cannot be empty\") */\n      tag_369\n      jumpi\n      mload(0x40)\n      0x08c379a000000000000000000000000000000000000000000000000000000000\n      dup2\n      mstore\n      0x04\n      add\n      tag_370\n      swap1\n      tag_371\n      jump\t// in\n    tag_370:\n      mload(0x40)\n      dup1\n      swap2\n      sub\n      swap1\n      revert\n    tag_369:\n        /* \"contracts/w62.sol\":9056:9066  batchCount */\n      0x02\n      0x00\n        /* \"contracts/w62.sol\":9056:9068  batchCount++ */\n      dup2\n      sload\n      dup1\n      swap3\n      swap2\n      swap1\n      tag_372\n      swap1\n      tag_205\n      jump\t// in\n    tag_372:\n      swap2\n      swap1\n      pop\n      sstore\n      pop\n        /* \"contracts/w62.sol\":9078:9093  uint256 batchId */\n      0x00\n        /* \"contracts/w62.sol\":9096:9106  batchCount */\n      sload(0x02)\n        /* \"contracts/w62.sol\":9078:9106  uint256 batchId = batchCount */\n      swap1\n      pop\n        /* \"contracts/w62.sol\":9135:9465  Batch({... */\n      mload(0x40)\n      dup1\n      0x0100\n      add\n      0x40\n      mstore\n      dup1\n        /* \"contracts/w62.sol\":9159:9165  lst_id */\n      dup7\n        /* \"contracts/w62.sol\":9135:9465  Batch({... */\n      dup2\n      mstore\n      0x20\n      add\n        /* \"contracts/w62.sol\":9185:9193  lst_name */\n      dup6\n        /* \"contracts/w62.sol\":9135:9465  Batch({... */\n      dup2\n      mstore\n      0x20\n      add\n        /* \"contracts/w62.sol\":9220:9235  lst_description */\n      dup5\n        /* \"contracts/w62.sol\":9135:9465  Batch({... */\n      dup2\n      mstore\n      0x20\n      add\n        /* \"contracts/w62.sol\":9263:9273  msg.sender */\n      caller\n        /* \"contracts/w62.sol\":9135:9465  Batch({... */\n      0xffffffffffffffffffffffffffffffffffffffff\n      and\n      dup2\n      mstore\n      0x20\n      add\n        /* \"contracts/w62.sol\":9344:9359  block.timestamp */\n      timestamp\n        /* \"contracts/w62.sol\":9135:9465  Batch({... */\n      dup2\n      mstore\n      0x20\n      add\n        /* \"contracts/w62.sol\":9385:9390  false */\n      0x00\n        /* \"contracts/w62.sol\":9135:9465  Batch({... */\n      iszero\n      iszero\n      dup2\n      mstore\n      0x20\n      add\n        /* \"contracts/w62.sol\":9413:9420  batchId */\n      dup3\n        /* \"contracts/w62.sol\":9135:9465  Batch({... */\n      dup2\n      mstore\n      0x20\n      add\n        /* \"contracts/w62.sol\":9445:9454  operation */\n      dup4\n        /* \"contracts/w62.sol\":9135:9465  Batch({... */\n      dup2\n      mstore\n      pop\n        /* \"contracts/w62.sol\":9116:9123  batches */\n      0x05\n        /* \"contracts/w62.sol\":9116:9132  batches[batchId] */\n      0x00\n        /* \"contracts/w62.sol\":9124:9131  batchId */\n      dup4\n        /* \"contracts/w62.sol\":9116:9132  batches[batchId] */\n      dup2\n      mstore\n      0x20\n      add\n      swap1\n      dup2\n      mstore\n      0x20\n      add\n      0x00\n      keccak256\n        /* \"contracts/w62.sol\":9116:9465  batches[batchId] = Batch({... */\n      0x00\n      dup3\n      add\n      mload\n      dup2\n      0x00\n      add\n      swap1\n      dup1\n      mload\n      swap1\n      0x20\n      add\n      swap1\n      tag_373\n      swap3\n      swap2\n      swap1\n      tag_228\n      jump\t// in\n    tag_373:\n      pop\n      0x20\n      dup3\n      add\n      mload\n      dup2\n      0x01\n      add\n      swap1\n      dup1\n      mload\n      swap1\n      0x20\n      add\n      swap1\n      tag_374\n      swap3\n      swap2\n      swap1\n      tag_375\n      jump\t// in\n    tag_374:\n      pop\n      0x40\n      dup3\n      add\n      mload\n      dup2\n      0x02\n      add\n      swap1\n      dup1\n      mload\n      swap1\n      0x20\n      add\n      swap1\n      tag_376\n      swap3\n      swap2\n      swap1\n      tag_375\n      jump\t// in\n    tag_376:\n      pop\n      0x60\n      dup3\n      add\n      mload\n      dup2\n      0x03\n      add\n      exp(0x0100, 0x00)\n      dup2\n      sload\n      dup2\n      0xffffffffffffffffffffffffffffffffffffffff\n      mul\n      not\n      and\n      swap1\n      dup4\n      0xffffffffffffffffffffffffffffffffffffffff\n      and\n      mul\n      or\n      swap1\n      sstore\n      pop\n      0x80\n      dup3\n      add\n      mload\n      dup2\n      0x04\n      add\n      sstore\n      0xa0\n      dup3\n      add\n      mload\n      dup2\n      0x05\n      add\n      exp(0x0100, 0x00)\n      dup2\n      sload\n      dup2\n      0xff\n      mul\n      not\n      and\n      swap1\n      dup4\n      iszero\n      iszero\n      mul\n      or\n      swap1\n      sstore\n      pop\n      0xc0\n      dup3\n      add\n      mload\n      dup2\n      0x06\n      add\n      sstore\n      0xe0\n      dup3\n      add\n      mload\n      dup2\n      0x07\n      add\n      swap1\n      dup2\n      tag_377\n      swap2\n      swap1\n      tag_225\n      jump\t// in\n    tag_377:\n      pop\n      swap1\n      pop\n      pop\n        /* \"contracts/w62.sol\":9494:9501  batchId */\n      dup1\n        /* \"contracts/w62.sol\":9480:9513  BatchCreation(batchId, operation) */\n      0x97ff4eb42b5af6ff38cafbfad77979b7fbe233bb58b2cb81eb38859456a133fd\n        /* \"contracts/w62.sol\":9503:9512  operation */\n      dup4\n        /* \"contracts/w62.sol\":9480:9513  BatchCreation(batchId, operation) */\n      mload(0x40)\n      tag_378\n      swap2\n      swap1\n      tag_99\n      jump\t// in\n    tag_378:\n      mload(0x40)\n      dup1\n      swap2\n      sub\n      swap1\n      log2\n        /* \"contracts/w62.sol\":8215:9520  {... */\n      pop\n        /* \"contracts/w62.sol\":8025:9520  function createBatch(... */\n      pop\n      pop\n      pop\n      pop\n      jump\t// out\n    tag_228:\n      dup3\n      dup1\n      sload\n      dup3\n      dup3\n      sstore\n      swap1\n      0x00\n      mstore\n      keccak256(0x00, 0x20)\n      swap1\n      dup2\n      add\n      swap3\n      dup3\n      iszero\n      tag_379\n      jumpi\n      swap2\n      0x20\n      mul\n      dup3\n      add\n    tag_380:\n      dup3\n      dup2\n      gt\n      iszero\n      tag_381\n      jumpi\n      dup3\n      mload\n      dup3\n      sstore\n      swap2\n      0x20\n      add\n      swap2\n      swap1\n      0x01\n      add\n      swap1\n      jump(tag_380)\n    tag_381:\n    tag_379:\n      pop\n      swap1\n      pop\n      tag_382\n      swap2\n      swap1\n      tag_383\n      jump\t// in\n    tag_382:\n      pop\n      swap1\n      jump\t// out\n    tag_375:\n      dup3\n      dup1\n      sload\n      dup3\n      dup3\n      sstore\n      swap1\n      0x00\n      mstore\n      keccak256(0x00, 0x20)\n      swap1\n      dup2\n      add\n      swap3\n      dup3\n      iszero\n      tag_384\n      jumpi\n      swap2\n      0x20\n      mul\n      dup3\n      add\n    tag_385:\n      dup3\n      dup2\n      gt\n      iszero\n      tag_386\n      jumpi\n      dup3\n      mload\n      dup3\n      swap1\n      dup2\n      tag_387\n      swap2\n      swap1\n      tag_225\n      jump\t// in\n    tag_387:\n      pop\n      swap2\n      0x20\n      add\n      swap2\n      swap1\n      0x01\n      add\n      swap1\n      jump(tag_385)\n    tag_386:\n    tag_384:\n      pop\n      swap1\n      pop\n      tag_388\n      swap2\n      swap1\n      tag_389\n      jump\t// in\n    tag_388:\n      pop\n      swap1\n      jump\t// out\n    tag_383:\n    tag_390:\n      dup1\n      dup3\n      gt\n      iszero\n      tag_391\n      jumpi\n      0x00\n      dup2\n      0x00\n      swap1\n      sstore\n      pop\n      0x01\n      add\n      jump(tag_390)\n    tag_391:\n      pop\n      swap1\n      jump\t// out\n    tag_389:\n    tag_392:\n      dup1\n      dup3\n      gt\n      iszero\n      tag_393\n      jumpi\n      0x00\n      dup2\n      dup2\n      tag_394\n      swap2\n      swap1\n      tag_395\n      jump\t// in\n    tag_394:\n      pop\n      0x01\n      add\n      jump(tag_392)\n    tag_393:\n      pop\n      swap1\n      jump\t// out\n    tag_395:\n      pop\n      dup1\n      sload\n      tag_396\n      swap1\n      tag_136\n      jump\t// in\n    tag_396:\n      0x00\n      dup3\n      sstore\n      dup1\n      0x1f\n      lt\n      tag_398\n      jumpi\n      pop\n      jump(tag_397)\n    tag_398:\n      0x1f\n      add\n      0x20\n      swap1\n      div\n      swap1\n      0x00\n      mstore\n      keccak256(0x00, 0x20)\n      swap1\n      dup2\n      add\n      swap1\n      tag_399\n      swap2\n      swap1\n      tag_383\n      jump\t// in\n    tag_399:\n    tag_397:\n      pop\n      jump\t// out\n        /* \"#utility.yul\":7:82   */\n    tag_400:\n        /* \"#utility.yul\":40:46   */\n      0x00\n        /* \"#utility.yul\":73:75   */\n      0x40\n        /* \"#utility.yul\":67:76   */\n      mload\n        /* \"#utility.yul\":57:76   */\n      swap1\n      pop\n        /* \"#utility.yul\":7:82   */\n      swap1\n      jump\t// out\n        /* \"#utility.yul\":88:205   */\n    tag_401:\n        /* \"#utility.yul\":197:198   */\n      0x00\n        /* \"#utility.yul\":194:195   */\n      dup1\n        /* \"#utility.yul\":187:199   */\n      revert\n        /* \"#utility.yul\":211:328   */\n    tag_402:\n        /* \"#utility.yul\":320:321   */\n      0x00\n        /* \"#utility.yul\":317:318   */\n      dup1\n        /* \"#utility.yul\":310:322   */\n      revert\n        /* \"#utility.yul\":334:411   */\n    tag_403:\n        /* \"#utility.yul\":371:378   */\n      0x00\n        /* \"#utility.yul\":400:405   */\n      dup2\n        /* \"#utility.yul\":389:405   */\n      swap1\n      pop\n        /* \"#utility.yul\":334:411   */\n      swap2\n      swap1\n      pop\n      jump\t// out\n        /* \"#utility.yul\":417:539   */\n    tag_404:\n        /* \"#utility.yul\":490:514   */\n      tag_533\n        /* \"#utility.yul\":508:513   */\n      dup2\n        /* \"#utility.yul\":490:514   */\n      tag_403\n      jump\t// in\n    tag_533:\n        /* \"#utility.yul\":483:488   */\n      dup2\n        /* \"#utility.yul\":480:515   */\n      eq\n        /* \"#utility.yul\":470:533   */\n      tag_534\n      jumpi\n        /* \"#utility.yul\":529:530   */\n      0x00\n        /* \"#utility.yul\":526:527   */\n      dup1\n        /* \"#utility.yul\":519:531   */\n      revert\n        /* \"#utility.yul\":470:533   */\n    tag_534:\n        /* \"#utility.yul\":417:539   */\n      pop\n      jump\t// out\n        /* \"#utility.yul\":545:684   */\n    tag_405:\n        /* \"#utility.yul\":591:596   */\n      0x00\n        /* \"#utility.yul\":629:635   */\n      dup2\n        /* \"#utility.yul\":616:636   */\n      calldataload\n        /* \"#utility.yul\":607:636   */\n      swap1\n      pop\n        /* \"#utility.yul\":645:678   */\n      tag_536\n        /* \"#utility.yul\":672:677   */\n      dup2\n        /* \"#utility.yul\":645:678   */\n      tag_404\n      jump\t// in\n    tag_536:\n        /* \"#utility.yul\":545:684   */\n      swap3\n      swap2\n      pop\n      pop\n      jump\t// out\n        /* \"#utility.yul\":690:807   */\n    tag_406:\n        /* \"#utility.yul\":799:800   */\n      0x00\n        /* \"#utility.yul\":796:797   */\n      dup1\n        /* \"#utility.yul\":789:801   */\n      revert\n        /* \"#utility.yul\":813:930   */\n    tag_407:\n        /* \"#utility.yul\":922:923   */\n      0x00\n        /* \"#utility.yul\":919:920   */\n      dup1\n        /* \"#utility.yul\":912:924   */\n      revert\n        /* \"#utility.yul\":936:1038   */\n    tag_408:\n        /* \"#utility.yul\":977:983   */\n      0x00\n        /* \"#utility.yul\":1028:1030   */\n      0x1f\n        /* \"#utility.yul\":1024:1031   */\n      not\n        /* \"#utility.yul\":1019:1021   */\n      0x1f\n        /* \"#utility.yul\":1012:1017   */\n      dup4\n        /* \"#utility.yul\":1008:1022   */\n      add\n        /* \"#utility.yul\":1004:1032   */\n      and\n        /* \"#utility.yul\":994:1032   */\n      swap1\n      pop\n        /* \"#utility.yul\":936:1038   */\n      swap2\n      swap1\n      pop\n      jump\t// out\n        /* \"#utility.yul\":1044:1224   */\n    tag_199:\n        /* \"#utility.yul\":1092:1169   */\n      0x4e487b7100000000000000000000000000000000000000000000000000000000\n        /* \"#utility.yul\":1089:1090   */\n      0x00\n        /* \"#utility.yul\":1082:1170   */\n      mstore\n        /* \"#utility.yul\":1189:1193   */\n      0x41\n        /* \"#utility.yul\":1186:1187   */\n      0x04\n        /* \"#utility.yul\":1179:1194   */\n      mstore\n        /* \"#utility.yul\":1213:1217   */\n      0x24\n        /* \"#utility.yul\":1210:1211   */\n      0x00\n        /* \"#utility.yul\":1203:1218   */\n      revert\n        /* \"#utility.yul\":1230:1511   */\n    tag_409:\n        /* \"#utility.yul\":1313:1340   */\n      tag_542\n        /* \"#utility.yul\":1335:1339   */\n      dup3\n        /* \"#utility.yul\":1313:1340   */\n      tag_408\n      jump\t// in\n    tag_542:\n        /* \"#utility.yul\":1305:1311   */\n      dup2\n        /* \"#utility.yul\":1301:1341   */\n      add\n        /* \"#utility.yul\":1443:1449   */\n      dup2\n        /* \"#utility.yul\":1431:1441   */\n      dup2\n        /* \"#utility.yul\":1428:1450   */\n      lt\n        /* \"#utility.yul\":1407:1425   */\n      0xffffffffffffffff\n        /* \"#utility.yul\":1395:1405   */\n      dup3\n        /* \"#utility.yul\":1392:1426   */\n      gt\n        /* \"#utility.yul\":1389:1451   */\n      or\n        /* \"#utility.yul\":1386:1474   */\n      iszero\n      tag_543\n      jumpi\n        /* \"#utility.yul\":1454:1472   */\n      tag_544\n      tag_199\n      jump\t// in\n    tag_544:\n        /* \"#utility.yul\":1386:1474   */\n    tag_543:\n        /* \"#utility.yul\":1494:1504   */\n      dup1\n        /* \"#utility.yul\":1490:1492   */\n      0x40\n        /* \"#utility.yul\":1483:1505   */\n      mstore\n        /* \"#utility.yul\":1273:1511   */\n      pop\n        /* \"#utility.yul\":1230:1511   */\n      pop\n      pop\n      jump\t// out\n        /* \"#utility.yul\":1517:1646   */\n    tag_410:\n        /* \"#utility.yul\":1551:1557   */\n      0x00\n        /* \"#utility.yul\":1578:1598   */\n      tag_546\n      tag_400\n      jump\t// in\n    tag_546:\n        /* \"#utility.yul\":1568:1598   */\n      swap1\n      pop\n        /* \"#utility.yul\":1607:1640   */\n      tag_547\n        /* \"#utility.yul\":1635:1639   */\n      dup3\n        /* \"#utility.yul\":1627:1633   */\n      dup3\n        /* \"#utility.yul\":1607:1640   */\n      tag_409\n      jump\t// in\n    tag_547:\n        /* \"#utility.yul\":1517:1646   */\n      swap2\n      swap1\n      pop\n      jump\t// out\n        /* \"#utility.yul\":1652:1960   */\n    tag_411:\n        /* \"#utility.yul\":1714:1718   */\n      0x00\n        /* \"#utility.yul\":1804:1822   */\n      0xffffffffffffffff\n        /* \"#utility.yul\":1796:1802   */\n      dup3\n        /* \"#utility.yul\":1793:1823   */\n      gt\n        /* \"#utility.yul\":1790:1846   */\n      iszero\n      tag_549\n      jumpi\n        /* \"#utility.yul\":1826:1844   */\n      tag_550\n      tag_199\n      jump\t// in\n    tag_550:\n        /* \"#utility.yul\":1790:1846   */\n    tag_549:\n        /* \"#utility.yul\":1864:1893   */\n      tag_551\n        /* \"#utility.yul\":1886:1892   */\n      dup3\n        /* \"#utility.yul\":1864:1893   */\n      tag_408\n      jump\t// in\n    tag_551:\n        /* \"#utility.yul\":1856:1893   */\n      swap1\n      pop\n        /* \"#utility.yul\":1948:1952   */\n      0x20\n        /* \"#utility.yul\":1942:1946   */\n      dup2\n        /* \"#utility.yul\":1938:1953   */\n      add\n        /* \"#utility.yul\":1930:1953   */\n      swap1\n      pop\n        /* \"#utility.yul\":1652:1960   */\n      swap2\n      swap1\n      pop\n      jump\t// out\n        /* \"#utility.yul\":1966:2114   */\n    tag_412:\n        /* \"#utility.yul\":2064:2070   */\n      dup3\n        /* \"#utility.yul\":2059:2062   */\n      dup2\n        /* \"#utility.yul\":2054:2057   */\n      dup4\n        /* \"#utility.yul\":2041:2071   */\n      calldatacopy\n        /* \"#utility.yul\":2105:2106   */\n      0x00\n        /* \"#utility.yul\":2096:2102   */\n      dup4\n        /* \"#utility.yul\":2091:2094   */\n      dup4\n        /* \"#utility.yul\":2087:2103   */\n      add\n        /* \"#utility.yul\":2080:2107   */\n      mstore\n        /* \"#utility.yul\":1966:2114   */\n      pop\n      pop\n      pop\n      jump\t// out\n        /* \"#utility.yul\":2120:2545   */\n    tag_413:\n        /* \"#utility.yul\":2198:2203   */\n      0x00\n        /* \"#utility.yul\":2223:2289   */\n      tag_554\n        /* \"#utility.yul\":2239:2288   */\n      tag_555\n        /* \"#utility.yul\":2281:2287   */\n      dup5\n        /* \"#utility.yul\":2239:2288   */\n      tag_411\n      jump\t// in\n    tag_555:\n        /* \"#utility.yul\":2223:2289   */\n      tag_410\n      jump\t// in\n    tag_554:\n        /* \"#utility.yul\":2214:2289   */\n      swap1\n      pop\n        /* \"#utility.yul\":2312:2318   */\n      dup3\n        /* \"#utility.yul\":2305:2310   */\n      dup2\n        /* \"#utility.yul\":2298:2319   */\n      mstore\n        /* \"#utility.yul\":2350:2354   */\n      0x20\n        /* \"#utility.yul\":2343:2348   */\n      dup2\n        /* \"#utility.yul\":2339:2355   */\n      add\n        /* \"#utility.yul\":2388:2391   */\n      dup5\n        /* \"#utility.yul\":2379:2385   */\n      dup5\n        /* \"#utility.yul\":2374:2377   */\n      dup5\n        /* \"#utility.yul\":2370:2386   */\n      add\n        /* \"#utility.yul\":2367:2392   */\n      gt\n        /* \"#utility.yul\":2364:2476   */\n      iszero\n      tag_556\n      jumpi\n        /* \"#utility.yul\":2395:2474   */\n      tag_557\n      tag_407\n      jump\t// in\n    tag_557:\n        /* \"#utility.yul\":2364:2476   */\n    tag_556:\n        /* \"#utility.yul\":2485:2539   */\n      tag_558\n        /* \"#utility.yul\":2532:2538   */\n      dup5\n        /* \"#utility.yul\":2527:2530   */\n      dup3\n        /* \"#utility.yul\":2522:2525   */\n      dup6\n        /* \"#utility.yul\":2485:2539   */\n      tag_412\n      jump\t// in\n    tag_558:\n        /* \"#utility.yul\":2204:2545   */\n      pop\n        /* \"#utility.yul\":2120:2545   */\n      swap4\n      swap3\n      pop\n      pop\n      pop\n      jump\t// out\n        /* \"#utility.yul\":2565:2905   */\n    tag_414:\n        /* \"#utility.yul\":2621:2626   */\n      0x00\n        /* \"#utility.yul\":2670:2673   */\n      dup3\n        /* \"#utility.yul\":2663:2667   */\n      0x1f\n        /* \"#utility.yul\":2655:2661   */\n      dup4\n        /* \"#utility.yul\":2651:2668   */\n      add\n        /* \"#utility.yul\":2647:2674   */\n      slt\n        /* \"#utility.yul\":2637:2759   */\n      tag_560\n      jumpi\n        /* \"#utility.yul\":2678:2757   */\n      tag_561\n      tag_406\n      jump\t// in\n    tag_561:\n        /* \"#utility.yul\":2637:2759   */\n    tag_560:\n        /* \"#utility.yul\":2795:2801   */\n      dup2\n        /* \"#utility.yul\":2782:2802   */\n      calldataload\n        /* \"#utility.yul\":2820:2899   */\n      tag_562\n        /* \"#utility.yul\":2895:2898   */\n      dup5\n        /* \"#utility.yul\":2887:2893   */\n      dup3\n        /* \"#utility.yul\":2880:2884   */\n      0x20\n        /* \"#utility.yul\":2872:2878   */\n      dup7\n        /* \"#utility.yul\":2868:2885   */\n      add\n        /* \"#utility.yul\":2820:2899   */\n      tag_413\n      jump\t// in\n    tag_562:\n        /* \"#utility.yul\":2811:2899   */\n      swap2\n      pop\n        /* \"#utility.yul\":2627:2905   */\n      pop\n        /* \"#utility.yul\":2565:2905   */\n      swap3\n      swap2\n      pop\n      pop\n      jump\t// out\n        /* \"#utility.yul\":2911:3565   */\n    tag_28:\n        /* \"#utility.yul\":2989:2995   */\n      0x00\n        /* \"#utility.yul\":2997:3003   */\n      dup1\n        /* \"#utility.yul\":3046:3048   */\n      0x40\n        /* \"#utility.yul\":3034:3043   */\n      dup4\n        /* \"#utility.yul\":3025:3032   */\n      dup6\n        /* \"#utility.yul\":3021:3044   */\n      sub\n        /* \"#utility.yul\":3017:3049   */\n      slt\n        /* \"#utility.yul\":3014:3133   */\n      iszero\n      tag_564\n      jumpi\n        /* \"#utility.yul\":3052:3131   */\n      tag_565\n      tag_401\n      jump\t// in\n    tag_565:\n        /* \"#utility.yul\":3014:3133   */\n    tag_564:\n        /* \"#utility.yul\":3172:3173   */\n      0x00\n        /* \"#utility.yul\":3197:3250   */\n      tag_566\n        /* \"#utility.yul\":3242:3249   */\n      dup6\n        /* \"#utility.yul\":3233:3239   */\n      dup3\n        /* \"#utility.yul\":3222:3231   */\n      dup7\n        /* \"#utility.yul\":3218:3240   */\n      add\n        /* \"#utility.yul\":3197:3250   */\n      tag_405\n      jump\t// in\n    tag_566:\n        /* \"#utility.yul\":3187:3250   */\n      swap3\n      pop\n        /* \"#utility.yul\":3143:3260   */\n      pop\n        /* \"#utility.yul\":3327:3329   */\n      0x20\n        /* \"#utility.yul\":3316:3325   */\n      dup4\n        /* \"#utility.yul\":3312:3330   */\n      add\n        /* \"#utility.yul\":3299:3331   */\n      calldataload\n        /* \"#utility.yul\":3358:3376   */\n      0xffffffffffffffff\n        /* \"#utility.yul\":3350:3356   */\n      dup2\n        /* \"#utility.yul\":3347:3377   */\n      gt\n        /* \"#utility.yul\":3344:3461   */\n      iszero\n      tag_567\n      jumpi\n        /* \"#utility.yul\":3380:3459   */\n      tag_568\n      tag_402\n      jump\t// in\n    tag_568:\n        /* \"#utility.yul\":3344:3461   */\n    tag_567:\n        /* \"#utility.yul\":3485:3548   */\n      tag_569\n        /* \"#utility.yul\":3540:3547   */\n      dup6\n        /* \"#utility.yul\":3531:3537   */\n      dup3\n        /* \"#utility.yul\":3520:3529   */\n      dup7\n        /* \"#utility.yul\":3516:3538   */\n      add\n        /* \"#utility.yul\":3485:3548   */\n      tag_414\n      jump\t// in\n    tag_569:\n        /* \"#utility.yul\":3475:3548   */\n      swap2\n      pop\n        /* \"#utility.yul\":3270:3558   */\n      pop\n        /* \"#utility.yul\":2911:3565   */\n      swap3\n      pop\n      swap3\n      swap1\n      pop\n      jump\t// out\n        /* \"#utility.yul\":3571:3689   */\n    tag_415:\n        /* \"#utility.yul\":3658:3682   */\n      tag_571\n        /* \"#utility.yul\":3676:3681   */\n      dup2\n        /* \"#utility.yul\":3658:3682   */\n      tag_403\n      jump\t// in\n    tag_571:\n        /* \"#utility.yul\":3653:3656   */\n      dup3\n        /* \"#utility.yul\":3646:3683   */\n      mstore\n        /* \"#utility.yul\":3571:3689   */\n      pop\n      pop\n      jump\t// out\n        /* \"#utility.yul\":3695:3917   */\n    tag_33:\n        /* \"#utility.yul\":3788:3792   */\n      0x00\n        /* \"#utility.yul\":3826:3828   */\n      0x20\n        /* \"#utility.yul\":3815:3824   */\n      dup3\n        /* \"#utility.yul\":3811:3829   */\n      add\n        /* \"#utility.yul\":3803:3829   */\n      swap1\n      pop\n        /* \"#utility.yul\":3839:3910   */\n      tag_573\n        /* \"#utility.yul\":3907:3908   */\n      0x00\n        /* \"#utility.yul\":3896:3905   */\n      dup4\n        /* \"#utility.yul\":3892:3909   */\n      add\n        /* \"#utility.yul\":3883:3889   */\n      dup5\n        /* \"#utility.yul\":3839:3910   */\n      tag_415\n      jump\t// in\n    tag_573:\n        /* \"#utility.yul\":3695:3917   */\n      swap3\n      swap2\n      pop\n      pop\n      jump\t// out\n        /* \"#utility.yul\":3923:4252   */\n    tag_36:\n        /* \"#utility.yul\":3982:3988   */\n      0x00\n        /* \"#utility.yul\":4031:4033   */\n      0x20\n        /* \"#utility.yul\":4019:4028   */\n      dup3\n        /* \"#utility.yul\":4010:4017   */\n      dup5\n        /* \"#utility.yul\":4006:4029   */\n      sub\n        /* \"#utility.yul\":4002:4034   */\n      slt\n        /* \"#utility.yul\":3999:4118   */\n      iszero\n      tag_575\n      jumpi\n        /* \"#utility.yul\":4037:4116   */\n      tag_576\n      tag_401\n      jump\t// in\n    tag_576:\n        /* \"#utility.yul\":3999:4118   */\n    tag_575:\n        /* \"#utility.yul\":4157:4158   */\n      0x00\n        /* \"#utility.yul\":4182:4235   */\n      tag_577\n        /* \"#utility.yul\":4227:4234   */\n      dup5\n        /* \"#utility.yul\":4218:4224   */\n      dup3\n        /* \"#utility.yul\":4207:4216   */\n      dup6\n        /* \"#utility.yul\":4203:4225   */\n      add\n        /* \"#utility.yul\":4182:4235   */\n      tag_405\n      jump\t// in\n    tag_577:\n        /* \"#utility.yul\":4172:4235   */\n      swap2\n      pop\n        /* \"#utility.yul\":4128:4245   */\n      pop\n        /* \"#utility.yul\":3923:4252   */\n      swap3\n      swap2\n      pop\n      pop\n      jump\t// out\n        /* \"#utility.yul\":4258:4348   */\n    tag_416:\n        /* \"#utility.yul\":4292:4299   */\n      0x00\n        /* \"#utility.yul\":4335:4340   */\n      dup2\n        /* \"#utility.yul\":4328:4341   */\n      iszero\n        /* \"#utility.yul\":4321:4342   */\n      iszero\n        /* \"#utility.yul\":4310:4342   */\n      swap1\n      pop\n        /* \"#utility.yul\":4258:4348   */\n      swap2\n      swap1\n      pop\n      jump\t// out\n        /* \"#utility.yul\":4354:4463   */\n    tag_417:\n        /* \"#utility.yul\":4435:4456   */\n      tag_580\n        /* \"#utility.yul\":4450:4455   */\n      dup2\n        /* \"#utility.yul\":4435:4456   */\n      tag_416\n      jump\t// in\n    tag_580:\n        /* \"#utility.yul\":4430:4433   */\n      dup3\n        /* \"#utility.yul\":4423:4457   */\n      mstore\n        /* \"#utility.yul\":4354:4463   */\n      pop\n      pop\n      jump\t// out\n        /* \"#utility.yul\":4469:4679   */\n    tag_39:\n        /* \"#utility.yul\":4556:4560   */\n      0x00\n        /* \"#utility.yul\":4594:4596   */\n      0x20\n        /* \"#utility.yul\":4583:4592   */\n      dup3\n        /* \"#utility.yul\":4579:4597   */\n      add\n        /* \"#utility.yul\":4571:4597   */\n      swap1\n      pop\n        /* \"#utility.yul\":4607:4672   */\n      tag_582\n        /* \"#utility.yul\":4669:4670   */\n      0x00\n        /* \"#utility.yul\":4658:4667   */\n      dup4\n        /* \"#utility.yul\":4654:4671   */\n      add\n        /* \"#utility.yul\":4645:4651   */\n      dup5\n        /* \"#utility.yul\":4607:4672   */\n      tag_417\n      jump\t// in\n    tag_582:\n        /* \"#utility.yul\":4469:4679   */\n      swap3\n      swap2\n      pop\n      pop\n      jump\t// out\n        /* \"#utility.yul\":4685:4799   */\n    tag_418:\n        /* \"#utility.yul\":4752:4758   */\n      0x00\n        /* \"#utility.yul\":4786:4791   */\n      dup2\n        /* \"#utility.yul\":4780:4792   */\n      mload\n        /* \"#utility.yul\":4770:4792   */\n      swap1\n      pop\n        /* \"#utility.yul\":4685:4799   */\n      swap2\n      swap1\n      pop\n      jump\t// out\n        /* \"#utility.yul\":4805:4989   */\n    tag_419:\n        /* \"#utility.yul\":4904:4915   */\n      0x00\n        /* \"#utility.yul\":4938:4944   */\n      dup3\n        /* \"#utility.yul\":4933:4936   */\n      dup3\n        /* \"#utility.yul\":4926:4945   */\n      mstore\n        /* \"#utility.yul\":4978:4982   */\n      0x20\n        /* \"#utility.yul\":4973:4976   */\n      dup3\n        /* \"#utility.yul\":4969:4983   */\n      add\n        /* \"#utility.yul\":4954:4983   */\n      swap1\n      pop\n        /* \"#utility.yul\":4805:4989   */\n      swap3\n      swap2\n      pop\n      pop\n      jump\t// out\n        /* \"#utility.yul\":4995:5127   */\n    tag_420:\n        /* \"#utility.yul\":5062:5066   */\n      0x00\n        /* \"#utility.yul\":5085:5088   */\n      dup2\n        /* \"#utility.yul\":5077:5088   */\n      swap1\n      pop\n        /* \"#utility.yul\":5115:5119   */\n      0x20\n        /* \"#utility.yul\":5110:5113   */\n      dup3\n        /* \"#utility.yul\":5106:5120   */\n      add\n        /* \"#utility.yul\":5098:5120   */\n      swap1\n      pop\n        /* \"#utility.yul\":4995:5127   */\n      swap2\n      swap1\n      pop\n      jump\t// out\n        /* \"#utility.yul\":5133:5241   */\n    tag_421:\n        /* \"#utility.yul\":5210:5234   */\n      tag_587\n        /* \"#utility.yul\":5228:5233   */\n      dup2\n        /* \"#utility.yul\":5210:5234   */\n      tag_403\n      jump\t// in\n    tag_587:\n        /* \"#utility.yul\":5205:5208   */\n      dup3\n        /* \"#utility.yul\":5198:5235   */\n      mstore\n        /* \"#utility.yul\":5133:5241   */\n      pop\n      pop\n      jump\t// out\n        /* \"#utility.yul\":5247:5426   */\n    tag_422:\n        /* \"#utility.yul\":5316:5326   */\n      0x00\n        /* \"#utility.yul\":5337:5383   */\n      tag_589\n        /* \"#utility.yul\":5379:5382   */\n      dup4\n        /* \"#utility.yul\":5371:5377   */\n      dup4\n        /* \"#utility.yul\":5337:5383   */\n      tag_421\n      jump\t// in\n    tag_589:\n        /* \"#utility.yul\":5415:5419   */\n      0x20\n        /* \"#utility.yul\":5410:5413   */\n      dup4\n        /* \"#utility.yul\":5406:5420   */\n      add\n        /* \"#utility.yul\":5392:5420   */\n      swap1\n      pop\n        /* \"#utility.yul\":5247:5426   */\n      swap3\n      swap2\n      pop\n      pop\n      jump\t// out\n        /* \"#utility.yul\":5432:5545   */\n    tag_423:\n        /* \"#utility.yul\":5502:5506   */\n      0x00\n        /* \"#utility.yul\":5534:5538   */\n      0x20\n        /* \"#utility.yul\":5529:5532   */\n      dup3\n        /* \"#utility.yul\":5525:5539   */\n      add\n        /* \"#utility.yul\":5517:5539   */\n      swap1\n      pop\n        /* \"#utility.yul\":5432:5545   */\n      swap2\n      swap1\n      pop\n      jump\t// out\n        /* \"#utility.yul\":5581:6313   */\n    tag_424:\n        /* \"#utility.yul\":5700:5703   */\n      0x00\n        /* \"#utility.yul\":5729:5783   */\n      tag_592\n        /* \"#utility.yul\":5777:5782   */\n      dup3\n        /* \"#utility.yul\":5729:5783   */\n      tag_418\n      jump\t// in\n    tag_592:\n        /* \"#utility.yul\":5799:5885   */\n      tag_593\n        /* \"#utility.yul\":5878:5884   */\n      dup2\n        /* \"#utility.yul\":5873:5876   */\n      dup6\n        /* \"#utility.yul\":5799:5885   */\n      tag_419\n      jump\t// in\n    tag_593:\n        /* \"#utility.yul\":5792:5885   */\n      swap4\n      pop\n        /* \"#utility.yul\":5909:5965   */\n      tag_594\n        /* \"#utility.yul\":5959:5964   */\n      dup4\n        /* \"#utility.yul\":5909:5965   */\n      tag_420\n      jump\t// in\n    tag_594:\n        /* \"#utility.yul\":5988:5995   */\n      dup1\n        /* \"#utility.yul\":6019:6020   */\n      0x00\n        /* \"#utility.yul\":6004:6288   */\n    tag_595:\n        /* \"#utility.yul\":6029:6035   */\n      dup4\n        /* \"#utility.yul\":6026:6027   */\n      dup2\n        /* \"#utility.yul\":6023:6036   */\n      lt\n        /* \"#utility.yul\":6004:6288   */\n      iszero\n      tag_597\n      jumpi\n        /* \"#utility.yul\":6105:6111   */\n      dup2\n        /* \"#utility.yul\":6099:6112   */\n      mload\n        /* \"#utility.yul\":6132:6195   */\n      tag_598\n        /* \"#utility.yul\":6191:6194   */\n      dup9\n        /* \"#utility.yul\":6176:6189   */\n      dup3\n        /* \"#utility.yul\":6132:6195   */\n      tag_422\n      jump\t// in\n    tag_598:\n        /* \"#utility.yul\":6125:6195   */\n      swap8\n      pop\n        /* \"#utility.yul\":6218:6278   */\n      tag_599\n        /* \"#utility.yul\":6271:6277   */\n      dup4\n        /* \"#utility.yul\":6218:6278   */\n      tag_423\n      jump\t// in\n    tag_599:\n        /* \"#utility.yul\":6208:6278   */\n      swap3\n      pop\n        /* \"#utility.yul\":6064:6288   */\n      pop\n        /* \"#utility.yul\":6051:6052   */\n      0x01\n        /* \"#utility.yul\":6048:6049   */\n      dup2\n        /* \"#utility.yul\":6044:6053   */\n      add\n        /* \"#utility.yul\":6039:6053   */\n      swap1\n      pop\n        /* \"#utility.yul\":6004:6288   */\n      jump(tag_595)\n    tag_597:\n        /* \"#utility.yul\":6008:6022   */\n      pop\n        /* \"#utility.yul\":6304:6307   */\n      dup6\n        /* \"#utility.yul\":6297:6307   */\n      swap4\n      pop\n        /* \"#utility.yul\":5705:6313   */\n      pop\n      pop\n      pop\n        /* \"#utility.yul\":5581:6313   */\n      swap3\n      swap2\n      pop\n      pop\n      jump\t// out\n        /* \"#utility.yul\":6319:6443   */\n    tag_425:\n        /* \"#utility.yul\":6396:6402   */\n      0x00\n        /* \"#utility.yul\":6430:6435   */\n      dup2\n        /* \"#utility.yul\":6424:6436   */\n      mload\n        /* \"#utility.yul\":6414:6436   */\n      swap1\n      pop\n        /* \"#utility.yul\":6319:6443   */\n      swap2\n      swap1\n      pop\n      jump\t// out\n        /* \"#utility.yul\":6449:6643   */\n    tag_426:\n        /* \"#utility.yul\":6558:6569   */\n      0x00\n        /* \"#utility.yul\":6592:6598   */\n      dup3\n        /* \"#utility.yul\":6587:6590   */\n      dup3\n        /* \"#utility.yul\":6580:6599   */\n      mstore\n        /* \"#utility.yul\":6632:6636   */\n      0x20\n        /* \"#utility.yul\":6627:6630   */\n      dup3\n        /* \"#utility.yul\":6623:6637   */\n      add\n        /* \"#utility.yul\":6608:6637   */\n      swap1\n      pop\n        /* \"#utility.yul\":6449:6643   */\n      swap3\n      swap2\n      pop\n      pop\n      jump\t// out\n        /* \"#utility.yul\":6649:6791   */\n    tag_427:\n        /* \"#utility.yul\":6726:6730   */\n      0x00\n        /* \"#utility.yul\":6749:6752   */\n      dup2\n        /* \"#utility.yul\":6741:6752   */\n      swap1\n      pop\n        /* \"#utility.yul\":6779:6783   */\n      0x20\n        /* \"#utility.yul\":6774:6777   */\n      dup3\n        /* \"#utility.yul\":6770:6784   */\n      add\n        /* \"#utility.yul\":6762:6784   */\n      swap1\n      pop\n        /* \"#utility.yul\":6649:6791   */\n      swap2\n      swap1\n      pop\n      jump\t// out\n        /* \"#utility.yul\":6797:6896   */\n    tag_428:\n        /* \"#utility.yul\":6849:6855   */\n      0x00\n        /* \"#utility.yul\":6883:6888   */\n      dup2\n        /* \"#utility.yul\":6877:6889   */\n      mload\n        /* \"#utility.yul\":6867:6889   */\n      swap1\n      pop\n        /* \"#utility.yul\":6797:6896   */\n      swap2\n      swap1\n      pop\n      jump\t// out\n        /* \"#utility.yul\":6902:7061   */\n    tag_429:\n        /* \"#utility.yul\":6976:6987   */\n      0x00\n        /* \"#utility.yul\":7010:7016   */\n      dup3\n        /* \"#utility.yul\":7005:7008   */\n      dup3\n        /* \"#utility.yul\":6998:7017   */\n      mstore\n        /* \"#utility.yul\":7050:7054   */\n      0x20\n        /* \"#utility.yul\":7045:7048   */\n      dup3\n        /* \"#utility.yul\":7041:7055   */\n      add\n        /* \"#utility.yul\":7026:7055   */\n      swap1\n      pop\n        /* \"#utility.yul\":6902:7061   */\n      swap3\n      swap2\n      pop\n      pop\n      jump\t// out\n        /* \"#utility.yul\":7067:7206   */\n    tag_430:\n        /* \"#utility.yul\":7156:7162   */\n      dup3\n        /* \"#utility.yul\":7151:7154   */\n      dup2\n        /* \"#utility.yul\":7146:7149   */\n      dup4\n        /* \"#utility.yul\":7140:7163   */\n      mcopy\n        /* \"#utility.yul\":7197:7198   */\n      0x00\n        /* \"#utility.yul\":7188:7194   */\n      dup4\n        /* \"#utility.yul\":7183:7186   */\n      dup4\n        /* \"#utility.yul\":7179:7195   */\n      add\n        /* \"#utility.yul\":7172:7199   */\n      mstore\n        /* \"#utility.yul\":7067:7206   */\n      pop\n      pop\n      pop\n      jump\t// out\n        /* \"#utility.yul\":7212:7569   */\n    tag_431:\n        /* \"#utility.yul\":7290:7293   */\n      0x00\n        /* \"#utility.yul\":7318:7357   */\n      tag_607\n        /* \"#utility.yul\":7351:7356   */\n      dup3\n        /* \"#utility.yul\":7318:7357   */\n      tag_428\n      jump\t// in\n    tag_607:\n        /* \"#utility.yul\":7373:7434   */\n      tag_608\n        /* \"#utility.yul\":7427:7433   */\n      dup2\n        /* \"#utility.yul\":7422:7425   */\n      dup6\n        /* \"#utility.yul\":7373:7434   */\n      tag_429\n      jump\t// in\n    tag_608:\n        /* \"#utility.yul\":7366:7434   */\n      swap4\n      pop\n        /* \"#utility.yul\":7443:7508   */\n      tag_609\n        /* \"#utility.yul\":7501:7507   */\n      dup2\n        /* \"#utility.yul\":7496:7499   */\n      dup6\n        /* \"#utility.yul\":7489:7493   */\n      0x20\n        /* \"#utility.yul\":7482:7487   */\n      dup7\n        /* \"#utility.yul\":7478:7494   */\n      add\n        /* \"#utility.yul\":7443:7508   */\n      tag_430\n      jump\t// in\n    tag_609:\n        /* \"#utility.yul\":7533:7562   */\n      tag_610\n        /* \"#utility.yul\":7555:7561   */\n      dup2\n        /* \"#utility.yul\":7533:7562   */\n      tag_408\n      jump\t// in\n    tag_610:\n        /* \"#utility.yul\":7528:7531   */\n      dup5\n        /* \"#utility.yul\":7524:7563   */\n      add\n        /* \"#utility.yul\":7517:7563   */\n      swap2\n      pop\n        /* \"#utility.yul\":7294:7569   */\n      pop\n        /* \"#utility.yul\":7212:7569   */\n      swap3\n      swap2\n      pop\n      pop\n      jump\t// out\n        /* \"#utility.yul\":7575:7771   */\n    tag_432:\n        /* \"#utility.yul\":7664:7674   */\n      0x00\n        /* \"#utility.yul\":7699:7765   */\n      tag_612\n        /* \"#utility.yul\":7761:7764   */\n      dup4\n        /* \"#utility.yul\":7753:7759   */\n      dup4\n        /* \"#utility.yul\":7699:7765   */\n      tag_431\n      jump\t// in\n    tag_612:\n        /* \"#utility.yul\":7685:7765   */\n      swap1\n      pop\n        /* \"#utility.yul\":7575:7771   */\n      swap3\n      swap2\n      pop\n      pop\n      jump\t// out\n        /* \"#utility.yul\":7777:7900   */\n    tag_433:\n        /* \"#utility.yul\":7857:7861   */\n      0x00\n        /* \"#utility.yul\":7889:7893   */\n      0x20\n        /* \"#utility.yul\":7884:7887   */\n      dup3\n        /* \"#utility.yul\":7880:7894   */\n      add\n        /* \"#utility.yul\":7872:7894   */\n      swap1\n      pop\n        /* \"#utility.yul\":7777:7900   */\n      swap2\n      swap1\n      pop\n      jump\t// out\n        /* \"#utility.yul\":7934:8925   */\n    tag_434:\n        /* \"#utility.yul\":8073:8076   */\n      0x00\n        /* \"#utility.yul\":8102:8166   */\n      tag_615\n        /* \"#utility.yul\":8160:8165   */\n      dup3\n        /* \"#utility.yul\":8102:8166   */\n      tag_425\n      jump\t// in\n    tag_615:\n        /* \"#utility.yul\":8182:8278   */\n      tag_616\n        /* \"#utility.yul\":8271:8277   */\n      dup2\n        /* \"#utility.yul\":8266:8269   */\n      dup6\n        /* \"#utility.yul\":8182:8278   */\n      tag_426\n      jump\t// in\n    tag_616:\n        /* \"#utility.yul\":8175:8278   */\n      swap4\n      pop\n        /* \"#utility.yul\":8304:8307   */\n      dup4\n        /* \"#utility.yul\":8349:8353   */\n      0x20\n        /* \"#utility.yul\":8341:8347   */\n      dup3\n        /* \"#utility.yul\":8337:8354   */\n      mul\n        /* \"#utility.yul\":8332:8335   */\n      dup6\n        /* \"#utility.yul\":8328:8355   */\n      add\n        /* \"#utility.yul\":8379:8445   */\n      tag_617\n        /* \"#utility.yul\":8439:8444   */\n      dup6\n        /* \"#utility.yul\":8379:8445   */\n      tag_427\n      jump\t// in\n    tag_617:\n        /* \"#utility.yul\":8468:8475   */\n      dup1\n        /* \"#utility.yul\":8499:8500   */\n      0x00\n        /* \"#utility.yul\":8484:8880   */\n    tag_618:\n        /* \"#utility.yul\":8509:8515   */\n      dup6\n        /* \"#utility.yul\":8506:8507   */\n      dup2\n        /* \"#utility.yul\":8503:8516   */\n      lt\n        /* \"#utility.yul\":8484:8880   */\n      iszero\n      tag_620\n      jumpi\n        /* \"#utility.yul\":8580:8589   */\n      dup5\n        /* \"#utility.yul\":8574:8578   */\n      dup5\n        /* \"#utility.yul\":8570:8590   */\n      sub\n        /* \"#utility.yul\":8565:8568   */\n      dup10\n        /* \"#utility.yul\":8558:8591   */\n      mstore\n        /* \"#utility.yul\":8631:8637   */\n      dup2\n        /* \"#utility.yul\":8625:8638   */\n      mload\n        /* \"#utility.yul\":8659:8743   */\n      tag_621\n        /* \"#utility.yul\":8738:8742   */\n      dup6\n        /* \"#utility.yul\":8723:8736   */\n      dup3\n        /* \"#utility.yul\":8659:8743   */\n      tag_432\n      jump\t// in\n    tag_621:\n        /* \"#utility.yul\":8651:8743   */\n      swap5\n      pop\n        /* \"#utility.yul\":8766:8836   */\n      tag_622\n        /* \"#utility.yul\":8829:8835   */\n      dup4\n        /* \"#utility.yul\":8766:8836   */\n      tag_433\n      jump\t// in\n    tag_622:\n        /* \"#utility.yul\":8756:8836   */\n      swap3\n      pop\n        /* \"#utility.yul\":8865:8869   */\n      0x20\n        /* \"#utility.yul\":8860:8863   */\n      dup11\n        /* \"#utility.yul\":8856:8870   */\n      add\n        /* \"#utility.yul\":8849:8870   */\n      swap10\n      pop\n        /* \"#utility.yul\":8544:8880   */\n      pop\n        /* \"#utility.yul\":8531:8532   */\n      0x01\n        /* \"#utility.yul\":8528:8529   */\n      dup2\n        /* \"#utility.yul\":8524:8533   */\n      add\n        /* \"#utility.yul\":8519:8533   */\n      swap1\n      pop\n        /* \"#utility.yul\":8484:8880   */\n      jump(tag_618)\n    tag_620:\n        /* \"#utility.yul\":8488:8502   */\n      pop\n        /* \"#utility.yul\":8896:8900   */\n      dup3\n        /* \"#utility.yul\":8889:8900   */\n      swap8\n      pop\n        /* \"#utility.yul\":8916:8919   */\n      dup8\n        /* \"#utility.yul\":8909:8919   */\n      swap6\n      pop\n        /* \"#utility.yul\":8078:8925   */\n      pop\n      pop\n      pop\n      pop\n      pop\n        /* \"#utility.yul\":7934:8925   */\n      swap3\n      swap2\n      pop\n      pop\n      jump\t// out\n        /* \"#utility.yul\":8931:9057   */\n    tag_435:\n        /* \"#utility.yul\":8968:8975   */\n      0x00\n        /* \"#utility.yul\":9008:9050   */\n      0xffffffffffffffffffffffffffffffffffffffff\n        /* \"#utility.yul\":9001:9006   */\n      dup3\n        /* \"#utility.yul\":8997:9051   */\n      and\n        /* \"#utility.yul\":8986:9051   */\n      swap1\n      pop\n        /* \"#utility.yul\":8931:9057   */\n      swap2\n      swap1\n      pop\n      jump\t// out\n        /* \"#utility.yul\":9063:9159   */\n    tag_436:\n        /* \"#utility.yul\":9100:9107   */\n      0x00\n        /* \"#utility.yul\":9129:9153   */\n      tag_625\n        /* \"#utility.yul\":9147:9152   */\n      dup3\n        /* \"#utility.yul\":9129:9153   */\n      tag_435\n      jump\t// in\n    tag_625:\n        /* \"#utility.yul\":9118:9153   */\n      swap1\n      pop\n        /* \"#utility.yul\":9063:9159   */\n      swap2\n      swap1\n      pop\n      jump\t// out\n        /* \"#utility.yul\":9165:9283   */\n    tag_437:\n        /* \"#utility.yul\":9252:9276   */\n      tag_627\n        /* \"#utility.yul\":9270:9275   */\n      dup2\n        /* \"#utility.yul\":9252:9276   */\n      tag_436\n      jump\t// in\n    tag_627:\n        /* \"#utility.yul\":9247:9250   */\n      dup3\n        /* \"#utility.yul\":9240:9277   */\n      mstore\n        /* \"#utility.yul\":9165:9283   */\n      pop\n      pop\n      jump\t// out\n        /* \"#utility.yul\":9289:9458   */\n    tag_438:\n        /* \"#utility.yul\":9373:9384   */\n      0x00\n        /* \"#utility.yul\":9407:9413   */\n      dup3\n        /* \"#utility.yul\":9402:9405   */\n      dup3\n        /* \"#utility.yul\":9395:9414   */\n      mstore\n        /* \"#utility.yul\":9447:9451   */\n      0x20\n        /* \"#utility.yul\":9442:9445   */\n      dup3\n        /* \"#utility.yul\":9438:9452   */\n      add\n        /* \"#utility.yul\":9423:9452   */\n      swap1\n      pop\n        /* \"#utility.yul\":9289:9458   */\n      swap3\n      swap2\n      pop\n      pop\n      jump\t// out\n        /* \"#utility.yul\":9464:9841   */\n    tag_439:\n        /* \"#utility.yul\":9552:9555   */\n      0x00\n        /* \"#utility.yul\":9580:9619   */\n      tag_630\n        /* \"#utility.yul\":9613:9618   */\n      dup3\n        /* \"#utility.yul\":9580:9619   */\n      tag_428\n      jump\t// in\n    tag_630:\n        /* \"#utility.yul\":9635:9706   */\n      tag_631\n        /* \"#utility.yul\":9699:9705   */\n      dup2\n        /* \"#utility.yul\":9694:9697   */\n      dup6\n        /* \"#utility.yul\":9635:9706   */\n      tag_438\n      jump\t// in\n    tag_631:\n        /* \"#utility.yul\":9628:9706   */\n      swap4\n      pop\n        /* \"#utility.yul\":9715:9780   */\n      tag_632\n        /* \"#utility.yul\":9773:9779   */\n      dup2\n        /* \"#utility.yul\":9768:9771   */\n      dup6\n        /* \"#utility.yul\":9761:9765   */\n      0x20\n        /* \"#utility.yul\":9754:9759   */\n      dup7\n        /* \"#utility.yul\":9750:9766   */\n      add\n        /* \"#utility.yul\":9715:9780   */\n      tag_430\n      jump\t// in\n    tag_632:\n        /* \"#utility.yul\":9805:9834   */\n      tag_633\n        /* \"#utility.yul\":9827:9833   */\n      dup2\n        /* \"#utility.yul\":9805:9834   */\n      tag_408\n      jump\t// in\n    tag_633:\n        /* \"#utility.yul\":9800:9803   */\n      dup5\n        /* \"#utility.yul\":9796:9835   */\n      add\n        /* \"#utility.yul\":9789:9835   */\n      swap2\n      pop\n        /* \"#utility.yul\":9556:9841   */\n      pop\n        /* \"#utility.yul\":9464:9841   */\n      swap3\n      swap2\n      pop\n      pop\n      jump\t// out\n        /* \"#utility.yul\":9847:11456   */\n    tag_44:\n        /* \"#utility.yul\":10340:10344   */\n      0x00\n        /* \"#utility.yul\":10378:10381   */\n      0x0100\n        /* \"#utility.yul\":10367:10376   */\n      dup3\n        /* \"#utility.yul\":10363:10382   */\n      add\n        /* \"#utility.yul\":10355:10382   */\n      swap1\n      pop\n        /* \"#utility.yul\":10428:10437   */\n      dup2\n        /* \"#utility.yul\":10422:10426   */\n      dup2\n        /* \"#utility.yul\":10418:10438   */\n      sub\n        /* \"#utility.yul\":10414:10415   */\n      0x00\n        /* \"#utility.yul\":10403:10412   */\n      dup4\n        /* \"#utility.yul\":10399:10416   */\n      add\n        /* \"#utility.yul\":10392:10439   */\n      mstore\n        /* \"#utility.yul\":10456:10564   */\n      tag_635\n        /* \"#utility.yul\":10559:10563   */\n      dup2\n        /* \"#utility.yul\":10550:10556   */\n      dup12\n        /* \"#utility.yul\":10456:10564   */\n      tag_424\n      jump\t// in\n    tag_635:\n        /* \"#utility.yul\":10448:10564   */\n      swap1\n      pop\n        /* \"#utility.yul\":10611:10620   */\n      dup2\n        /* \"#utility.yul\":10605:10609   */\n      dup2\n        /* \"#utility.yul\":10601:10621   */\n      sub\n        /* \"#utility.yul\":10596:10598   */\n      0x20\n        /* \"#utility.yul\":10585:10594   */\n      dup4\n        /* \"#utility.yul\":10581:10599   */\n      add\n        /* \"#utility.yul\":10574:10622   */\n      mstore\n        /* \"#utility.yul\":10639:10767   */\n      tag_636\n        /* \"#utility.yul\":10762:10766   */\n      dup2\n        /* \"#utility.yul\":10753:10759   */\n      dup11\n        /* \"#utility.yul\":10639:10767   */\n      tag_434\n      jump\t// in\n    tag_636:\n        /* \"#utility.yul\":10631:10767   */\n      swap1\n      pop\n        /* \"#utility.yul\":10814:10823   */\n      dup2\n        /* \"#utility.yul\":10808:10812   */\n      dup2\n        /* \"#utility.yul\":10804:10824   */\n      sub\n        /* \"#utility.yul\":10799:10801   */\n      0x40\n        /* \"#utility.yul\":10788:10797   */\n      dup4\n        /* \"#utility.yul\":10784:10802   */\n      add\n        /* \"#utility.yul\":10777:10825   */\n      mstore\n        /* \"#utility.yul\":10842:10970   */\n      tag_637\n        /* \"#utility.yul\":10965:10969   */\n      dup2\n        /* \"#utility.yul\":10956:10962   */\n      dup10\n        /* \"#utility.yul\":10842:10970   */\n      tag_434\n      jump\t// in\n    tag_637:\n        /* \"#utility.yul\":10834:10970   */\n      swap1\n      pop\n        /* \"#utility.yul\":10980:11052   */\n      tag_638\n        /* \"#utility.yul\":11048:11050   */\n      0x60\n        /* \"#utility.yul\":11037:11046   */\n      dup4\n        /* \"#utility.yul\":11033:11051   */\n      add\n        /* \"#utility.yul\":11024:11030   */\n      dup9\n        /* \"#utility.yul\":10980:11052   */\n      tag_437\n      jump\t// in\n    tag_638:\n        /* \"#utility.yul\":11062:11135   */\n      tag_639\n        /* \"#utility.yul\":11130:11133   */\n      0x80\n        /* \"#utility.yul\":11119:11128   */\n      dup4\n        /* \"#utility.yul\":11115:11134   */\n      add\n        /* \"#utility.yul\":11106:11112   */\n      dup8\n        /* \"#utility.yul\":11062:11135   */\n      tag_415\n      jump\t// in\n    tag_639:\n        /* \"#utility.yul\":11145:11212   */\n      tag_640\n        /* \"#utility.yul\":11207:11210   */\n      0xa0\n        /* \"#utility.yul\":11196:11205   */\n      dup4\n        /* \"#utility.yul\":11192:11211   */\n      add\n        /* \"#utility.yul\":11183:11189   */\n      dup7\n        /* \"#utility.yul\":11145:11212   */\n      tag_417\n      jump\t// in\n    tag_640:\n        /* \"#utility.yul\":11222:11295   */\n      tag_641\n        /* \"#utility.yul\":11290:11293   */\n      0xc0\n        /* \"#utility.yul\":11279:11288   */\n      dup4\n        /* \"#utility.yul\":11275:11294   */\n      add\n        /* \"#utility.yul\":11266:11272   */\n      dup6\n        /* \"#utility.yul\":11222:11295   */\n      tag_415\n      jump\t// in\n    tag_641:\n        /* \"#utility.yul\":11343:11352   */\n      dup2\n        /* \"#utility.yul\":11337:11341   */\n      dup2\n        /* \"#utility.yul\":11333:11353   */\n      sub\n        /* \"#utility.yul\":11327:11330   */\n      0xe0\n        /* \"#utility.yul\":11316:11325   */\n      dup4\n        /* \"#utility.yul\":11312:11331   */\n      add\n        /* \"#utility.yul\":11305:11354   */\n      mstore\n        /* \"#utility.yul\":11371:11449   */\n      tag_642\n        /* \"#utility.yul\":11444:11448   */\n      dup2\n        /* \"#utility.yul\":11435:11441   */\n      dup5\n        /* \"#utility.yul\":11371:11449   */\n      tag_439\n      jump\t// in\n    tag_642:\n        /* \"#utility.yul\":11363:11449   */\n      swap1\n      pop\n        /* \"#utility.yul\":9847:11456   */\n      swap10\n      swap9\n      pop\n      pop\n      pop\n      pop\n      pop\n      pop\n      pop\n      pop\n      pop\n      jump\t// out\n        /* \"#utility.yul\":11462:12407   */\n    tag_49:\n        /* \"#utility.yul\":11729:11733   */\n      0x00\n        /* \"#utility.yul\":11767:11770   */\n      0xc0\n        /* \"#utility.yul\":11756:11765   */\n      dup3\n        /* \"#utility.yul\":11752:11771   */\n      add\n        /* \"#utility.yul\":11744:11771   */\n      swap1\n      pop\n        /* \"#utility.yul\":11781:11852   */\n      tag_644\n        /* \"#utility.yul\":11849:11850   */\n      0x00\n        /* \"#utility.yul\":11838:11847   */\n      dup4\n        /* \"#utility.yul\":11834:11851   */\n      add\n        /* \"#utility.yul\":11825:11831   */\n      dup10\n        /* \"#utility.yul\":11781:11852   */\n      tag_415\n      jump\t// in\n    tag_644:\n        /* \"#utility.yul\":11899:11908   */\n      dup2\n        /* \"#utility.yul\":11893:11897   */\n      dup2\n        /* \"#utility.yul\":11889:11909   */\n      sub\n        /* \"#utility.yul\":11884:11886   */\n      0x20\n        /* \"#utility.yul\":11873:11882   */\n      dup4\n        /* \"#utility.yul\":11869:11887   */\n      add\n        /* \"#utility.yul\":11862:11910   */\n      mstore\n        /* \"#utility.yul\":11927:12005   */\n      tag_645\n        /* \"#utility.yul\":12000:12004   */\n      dup2\n        /* \"#utility.yul\":11991:11997   */\n      dup9\n        /* \"#utility.yul\":11927:12005   */\n      tag_439\n      jump\t// in\n    tag_645:\n        /* \"#utility.yul\":11919:12005   */\n      swap1\n      pop\n        /* \"#utility.yul\":12052:12061   */\n      dup2\n        /* \"#utility.yul\":12046:12050   */\n      dup2\n        /* \"#utility.yul\":12042:12062   */\n      sub\n        /* \"#utility.yul\":12037:12039   */\n      0x40\n        /* \"#utility.yul\":12026:12035   */\n      dup4\n        /* \"#utility.yul\":12022:12040   */\n      add\n        /* \"#utility.yul\":12015:12063   */\n      mstore\n        /* \"#utility.yul\":12080:12158   */\n      tag_646\n        /* \"#utility.yul\":12153:12157   */\n      dup2\n        /* \"#utility.yul\":12144:12150   */\n      dup8\n        /* \"#utility.yul\":12080:12158   */\n      tag_439\n      jump\t// in\n    tag_646:\n        /* \"#utility.yul\":12072:12158   */\n      swap1\n      pop\n        /* \"#utility.yul\":12168:12240   */\n      tag_647\n        /* \"#utility.yul\":12236:12238   */\n      0x60\n        /* \"#utility.yul\":12225:12234   */\n      dup4\n        /* \"#utility.yul\":12221:12239   */\n      add\n        /* \"#utility.yul\":12212:12218   */\n      dup7\n        /* \"#utility.yul\":12168:12240   */\n      tag_437\n      jump\t// in\n    tag_647:\n        /* \"#utility.yul\":12250:12323   */\n      tag_648\n        /* \"#utility.yul\":12318:12321   */\n      0x80\n        /* \"#utility.yul\":12307:12316   */\n      dup4\n        /* \"#utility.yul\":12303:12322   */\n      add\n        /* \"#utility.yul\":12294:12300   */\n      dup6\n        /* \"#utility.yul\":12250:12323   */\n      tag_415\n      jump\t// in\n    tag_648:\n        /* \"#utility.yul\":12333:12400   */\n      tag_649\n        /* \"#utility.yul\":12395:12398   */\n      0xa0\n        /* \"#utility.yul\":12384:12393   */\n      dup4\n        /* \"#utility.yul\":12380:12399   */\n      add\n        /* \"#utility.yul\":12371:12377   */\n      dup5\n        /* \"#utility.yul\":12333:12400   */\n      tag_417\n      jump\t// in\n    tag_649:\n        /* \"#utility.yul\":11462:12407   */\n      swap8\n      swap7\n      pop\n      pop\n      pop\n      pop\n      pop\n      pop\n      pop\n      jump\t// out\n        /* \"#utility.yul\":12413:12535   */\n    tag_440:\n        /* \"#utility.yul\":12486:12510   */\n      tag_651\n        /* \"#utility.yul\":12504:12509   */\n      dup2\n        /* \"#utility.yul\":12486:12510   */\n      tag_436\n      jump\t// in\n    tag_651:\n        /* \"#utility.yul\":12479:12484   */\n      dup2\n        /* \"#utility.yul\":12476:12511   */\n      eq\n        /* \"#utility.yul\":12466:12529   */\n      tag_652\n      jumpi\n        /* \"#utility.yul\":12525:12526   */\n      0x00\n        /* \"#utility.yul\":12522:12523   */\n      dup1\n        /* \"#utility.yul\":12515:12527   */\n      revert\n        /* \"#utility.yul\":12466:12529   */\n    tag_652:\n        /* \"#utility.yul\":12413:12535   */\n      pop\n      jump\t// out\n        /* \"#utility.yul\":12541:12680   */\n    tag_441:\n        /* \"#utility.yul\":12587:12592   */\n      0x00\n        /* \"#utility.yul\":12625:12631   */\n      dup2\n        /* \"#utility.yul\":12612:12632   */\n      calldataload\n        /* \"#utility.yul\":12603:12632   */\n      swap1\n      pop\n        /* \"#utility.yul\":12641:12674   */\n      tag_654\n        /* \"#utility.yul\":12668:12673   */\n      dup2\n        /* \"#utility.yul\":12641:12674   */\n      tag_440\n      jump\t// in\n    tag_654:\n        /* \"#utility.yul\":12541:12680   */\n      swap3\n      swap2\n      pop\n      pop\n      jump\t// out\n        /* \"#utility.yul\":12686:13811   */\n    tag_52:\n        /* \"#utility.yul\":12792:12798   */\n      0x00\n        /* \"#utility.yul\":12800:12806   */\n      dup1\n        /* \"#utility.yul\":12808:12814   */\n      0x00\n        /* \"#utility.yul\":12816:12822   */\n      dup1\n        /* \"#utility.yul\":12865:12868   */\n      0x80\n        /* \"#utility.yul\":12853:12862   */\n      dup6\n        /* \"#utility.yul\":12844:12851   */\n      dup8\n        /* \"#utility.yul\":12840:12863   */\n      sub\n        /* \"#utility.yul\":12836:12869   */\n      slt\n        /* \"#utility.yul\":12833:12953   */\n      iszero\n      tag_656\n      jumpi\n        /* \"#utility.yul\":12872:12951   */\n      tag_657\n      tag_401\n      jump\t// in\n    tag_657:\n        /* \"#utility.yul\":12833:12953   */\n    tag_656:\n        /* \"#utility.yul\":12992:12993   */\n      0x00\n        /* \"#utility.yul\":13017:13070   */\n      tag_658\n        /* \"#utility.yul\":13062:13069   */\n      dup8\n        /* \"#utility.yul\":13053:13059   */\n      dup3\n        /* \"#utility.yul\":13042:13051   */\n      dup9\n        /* \"#utility.yul\":13038:13060   */\n      add\n        /* \"#utility.yul\":13017:13070   */\n      tag_405\n      jump\t// in\n    tag_658:\n        /* \"#utility.yul\":13007:13070   */\n      swap5\n      pop\n        /* \"#utility.yul\":12963:13080   */\n      pop\n        /* \"#utility.yul\":13119:13121   */\n      0x20\n        /* \"#utility.yul\":13145:13198   */\n      tag_659\n        /* \"#utility.yul\":13190:13197   */\n      dup8\n        /* \"#utility.yul\":13181:13187   */\n      dup3\n        /* \"#utility.yul\":13170:13179   */\n      dup9\n        /* \"#utility.yul\":13166:13188   */\n      add\n        /* \"#utility.yul\":13145:13198   */\n      tag_441\n      jump\t// in\n    tag_659:\n        /* \"#utility.yul\":13135:13198   */\n      swap4\n      pop\n        /* \"#utility.yul\":13090:13208   */\n      pop\n        /* \"#utility.yul\":13275:13277   */\n      0x40\n        /* \"#utility.yul\":13264:13273   */\n      dup6\n        /* \"#utility.yul\":13260:13278   */\n      add\n        /* \"#utility.yul\":13247:13279   */\n      calldataload\n        /* \"#utility.yul\":13306:13324   */\n      0xffffffffffffffff\n        /* \"#utility.yul\":13298:13304   */\n      dup2\n        /* \"#utility.yul\":13295:13325   */\n      gt\n        /* \"#utility.yul\":13292:13409   */\n      iszero\n      tag_660\n      jumpi\n        /* \"#utility.yul\":13328:13407   */\n      tag_661\n      tag_402\n      jump\t// in\n    tag_661:\n        /* \"#utility.yul\":13292:13409   */\n    tag_660:\n        /* \"#utility.yul\":13433:13496   */\n      tag_662\n        /* \"#utility.yul\":13488:13495   */\n      dup8\n        /* \"#utility.yul\":13479:13485   */\n      dup3\n        /* \"#utility.yul\":13468:13477   */\n      dup9\n        /* \"#utility.yul\":13464:13486   */\n      add\n        /* \"#utility.yul\":13433:13496   */\n      tag_414\n      jump\t// in\n    tag_662:\n        /* \"#utility.yul\":13423:13496   */\n      swap3\n      pop\n        /* \"#utility.yul\":13218:13506   */\n      pop\n        /* \"#utility.yul\":13573:13575   */\n      0x60\n        /* \"#utility.yul\":13562:13571   */\n      dup6\n        /* \"#utility.yul\":13558:13576   */\n      add\n        /* \"#utility.yul\":13545:13577   */\n      calldataload\n        /* \"#utility.yul\":13604:13622   */\n      0xffffffffffffffff\n        /* \"#utility.yul\":13596:13602   */\n      dup2\n        /* \"#utility.yul\":13593:13623   */\n      gt\n        /* \"#utility.yul\":13590:13707   */\n      iszero\n      tag_663\n      jumpi\n        /* \"#utility.yul\":13626:13705   */\n      tag_664\n      tag_402\n      jump\t// in\n    tag_664:\n        /* \"#utility.yul\":13590:13707   */\n    tag_663:\n        /* \"#utility.yul\":13731:13794   */\n      tag_665\n        /* \"#utility.yul\":13786:13793   */\n      dup8\n        /* \"#utility.yul\":13777:13783   */\n      dup3\n        /* \"#utility.yul\":13766:13775   */\n      dup9\n        /* \"#utility.yul\":13762:13784   */\n      add\n        /* \"#utility.yul\":13731:13794   */\n      tag_414\n      jump\t// in\n    tag_665:\n        /* \"#utility.yul\":13721:13794   */\n      swap2\n      pop\n        /* \"#utility.yul\":13516:13804   */\n      pop\n        /* \"#utility.yul\":12686:13811   */\n      swap3\n      swap6\n      swap2\n      swap5\n      pop\n      swap3\n      pop\n      jump\t// out\n        /* \"#utility.yul\":13817:14291   */\n    tag_56:\n        /* \"#utility.yul\":13885:13891   */\n      0x00\n        /* \"#utility.yul\":13893:13899   */\n      dup1\n        /* \"#utility.yul\":13942:13944   */\n      0x40\n        /* \"#utility.yul\":13930:13939   */\n      dup4\n        /* \"#utility.yul\":13921:13928   */\n      dup6\n        /* \"#utility.yul\":13917:13940   */\n      sub\n        /* \"#utility.yul\":13913:13945   */\n      slt\n        /* \"#utility.yul\":13910:14029   */\n      iszero\n      tag_667\n      jumpi\n        /* \"#utility.yul\":13948:14027   */\n      tag_668\n      tag_401\n      jump\t// in\n    tag_668:\n        /* \"#utility.yul\":13910:14029   */\n    tag_667:\n        /* \"#utility.yul\":14068:14069   */\n      0x00\n        /* \"#utility.yul\":14093:14146   */\n      tag_669\n        /* \"#utility.yul\":14138:14145   */\n      dup6\n        /* \"#utility.yul\":14129:14135   */\n      dup3\n        /* \"#utility.yul\":14118:14127   */\n      dup7\n        /* \"#utility.yul\":14114:14136   */\n      add\n        /* \"#utility.yul\":14093:14146   */\n      tag_405\n      jump\t// in\n    tag_669:\n        /* \"#utility.yul\":14083:14146   */\n      swap3\n      pop\n        /* \"#utility.yul\":14039:14156   */\n      pop\n        /* \"#utility.yul\":14195:14197   */\n      0x20\n        /* \"#utility.yul\":14221:14274   */\n      tag_670\n        /* \"#utility.yul\":14266:14273   */\n      dup6\n        /* \"#utility.yul\":14257:14263   */\n      dup3\n        /* \"#utility.yul\":14246:14255   */\n      dup7\n        /* \"#utility.yul\":14242:14264   */\n      add\n        /* \"#utility.yul\":14221:14274   */\n      tag_441\n      jump\t// in\n    tag_670:\n        /* \"#utility.yul\":14211:14274   */\n      swap2\n      pop\n        /* \"#utility.yul\":14166:14284   */\n      pop\n        /* \"#utility.yul\":13817:14291   */\n      swap3\n      pop\n      swap3\n      swap1\n      pop\n      jump\t// out\n        /* \"#utility.yul\":14297:14626   */\n    tag_60:\n        /* \"#utility.yul\":14356:14362   */\n      0x00\n        /* \"#utility.yul\":14405:14407   */\n      0x20\n        /* \"#utility.yul\":14393:14402   */\n      dup3\n        /* \"#utility.yul\":14384:14391   */\n      dup5\n        /* \"#utility.yul\":14380:14403   */\n      sub\n        /* \"#utility.yul\":14376:14408   */\n      slt\n        /* \"#utility.yul\":14373:14492   */\n      iszero\n      tag_672\n      jumpi\n        /* \"#utility.yul\":14411:14490   */\n      tag_673\n      tag_401\n      jump\t// in\n    tag_673:\n        /* \"#utility.yul\":14373:14492   */\n    tag_672:\n        /* \"#utility.yul\":14531:14532   */\n      0x00\n        /* \"#utility.yul\":14556:14609   */\n      tag_674\n        /* \"#utility.yul\":14601:14608   */\n      dup5\n        /* \"#utility.yul\":14592:14598   */\n      dup3\n        /* \"#utility.yul\":14581:14590   */\n      dup6\n        /* \"#utility.yul\":14577:14599   */\n      add\n        /* \"#utility.yul\":14556:14609   */\n      tag_441\n      jump\t// in\n    tag_674:\n        /* \"#utility.yul\":14546:14609   */\n      swap2\n      pop\n        /* \"#utility.yul\":14502:14619   */\n      pop\n        /* \"#utility.yul\":14297:14626   */\n      swap3\n      swap2\n      pop\n      pop\n      jump\t// out\n        /* \"#utility.yul\":14632:14854   */\n    tag_66:\n        /* \"#utility.yul\":14725:14729   */\n      0x00\n        /* \"#utility.yul\":14763:14765   */\n      0x20\n        /* \"#utility.yul\":14752:14761   */\n      dup3\n        /* \"#utility.yul\":14748:14766   */\n      add\n        /* \"#utility.yul\":14740:14766   */\n      swap1\n      pop\n        /* \"#utility.yul\":14776:14847   */\n      tag_676\n        /* \"#utility.yul\":14844:14845   */\n      0x00\n        /* \"#utility.yul\":14833:14842   */\n      dup4\n        /* \"#utility.yul\":14829:14846   */\n      add\n        /* \"#utility.yul\":14820:14826   */\n      dup5\n        /* \"#utility.yul\":14776:14847   */\n      tag_437\n      jump\t// in\n    tag_676:\n        /* \"#utility.yul\":14632:14854   */\n      swap3\n      swap2\n      pop\n      pop\n      jump\t// out\n        /* \"#utility.yul\":14860:15694   */\n    tag_69:\n        /* \"#utility.yul\":14948:14954   */\n      0x00\n        /* \"#utility.yul\":14956:14962   */\n      dup1\n        /* \"#utility.yul\":15005:15007   */\n      0x40\n        /* \"#utility.yul\":14993:15002   */\n      dup4\n        /* \"#utility.yul\":14984:14991   */\n      dup6\n        /* \"#utility.yul\":14980:15003   */\n      sub\n        /* \"#utility.yul\":14976:15008   */\n      slt\n        /* \"#utility.yul\":14973:15092   */\n      iszero\n      tag_678\n      jumpi\n        /* \"#utility.yul\":15011:15090   */\n      tag_679\n      tag_401\n      jump\t// in\n    tag_679:\n        /* \"#utility.yul\":14973:15092   */\n    tag_678:\n        /* \"#utility.yul\":15159:15160   */\n      0x00\n        /* \"#utility.yul\":15148:15157   */\n      dup4\n        /* \"#utility.yul\":15144:15161   */\n      add\n        /* \"#utility.yul\":15131:15162   */\n      calldataload\n        /* \"#utility.yul\":15189:15207   */\n      0xffffffffffffffff\n        /* \"#utility.yul\":15181:15187   */\n      dup2\n        /* \"#utility.yul\":15178:15208   */\n      gt\n        /* \"#utility.yul\":15175:15292   */\n      iszero\n      tag_680\n      jumpi\n        /* \"#utility.yul\":15211:15290   */\n      tag_681\n      tag_402\n      jump\t// in\n    tag_681:\n        /* \"#utility.yul\":15175:15292   */\n    tag_680:\n        /* \"#utility.yul\":15316:15379   */\n      tag_682\n        /* \"#utility.yul\":15371:15378   */\n      dup6\n        /* \"#utility.yul\":15362:15368   */\n      dup3\n        /* \"#utility.yul\":15351:15360   */\n      dup7\n        /* \"#utility.yul\":15347:15369   */\n      add\n        /* \"#utility.yul\":15316:15379   */\n      tag_414\n      jump\t// in\n    tag_682:\n        /* \"#utility.yul\":15306:15379   */\n      swap3\n      pop\n        /* \"#utility.yul\":15102:15389   */\n      pop\n        /* \"#utility.yul\":15456:15458   */\n      0x20\n        /* \"#utility.yul\":15445:15454   */\n      dup4\n        /* \"#utility.yul\":15441:15459   */\n      add\n        /* \"#utility.yul\":15428:15460   */\n      calldataload\n        /* \"#utility.yul\":15487:15505   */\n      0xffffffffffffffff\n        /* \"#utility.yul\":15479:15485   */\n      dup2\n        /* \"#utility.yul\":15476:15506   */\n      gt\n        /* \"#utility.yul\":15473:15590   */\n      iszero\n      tag_683\n      jumpi\n        /* \"#utility.yul\":15509:15588   */\n      tag_684\n      tag_402\n      jump\t// in\n    tag_684:\n        /* \"#utility.yul\":15473:15590   */\n    tag_683:\n        /* \"#utility.yul\":15614:15677   */\n      tag_685\n        /* \"#utility.yul\":15669:15676   */\n      dup6\n        /* \"#utility.yul\":15660:15666   */\n      dup3\n        /* \"#utility.yul\":15649:15658   */\n      dup7\n        /* \"#utility.yul\":15645:15667   */\n      add\n        /* \"#utility.yul\":15614:15677   */\n      tag_414\n      jump\t// in\n    tag_685:\n        /* \"#utility.yul\":15604:15677   */\n      swap2\n      pop\n        /* \"#utility.yul\":15399:15687   */\n      pop\n        /* \"#utility.yul\":14860:15694   */\n      swap3\n      pop\n      swap3\n      swap1\n      pop\n      jump\t// out\n        /* \"#utility.yul\":15700:16443   */\n    tag_86:\n        /* \"#utility.yul\":15919:15923   */\n      0x00\n        /* \"#utility.yul\":15957:15960   */\n      0xa0\n        /* \"#utility.yul\":15946:15955   */\n      dup3\n        /* \"#utility.yul\":15942:15961   */\n      add\n        /* \"#utility.yul\":15934:15961   */\n      swap1\n      pop\n        /* \"#utility.yul\":15971:16042   */\n      tag_687\n        /* \"#utility.yul\":16039:16040   */\n      0x00\n        /* \"#utility.yul\":16028:16037   */\n      dup4\n        /* \"#utility.yul\":16024:16041   */\n      add\n        /* \"#utility.yul\":16015:16021   */\n      dup9\n        /* \"#utility.yul\":15971:16042   */\n      tag_437\n      jump\t// in\n    tag_687:\n        /* \"#utility.yul\":16052:16124   */\n      tag_688\n        /* \"#utility.yul\":16120:16122   */\n      0x20\n        /* \"#utility.yul\":16109:16118   */\n      dup4\n        /* \"#utility.yul\":16105:16123   */\n      add\n        /* \"#utility.yul\":16096:16102   */\n      dup8\n        /* \"#utility.yul\":16052:16124   */\n      tag_415\n      jump\t// in\n    tag_688:\n        /* \"#utility.yul\":16134:16200   */\n      tag_689\n        /* \"#utility.yul\":16196:16198   */\n      0x40\n        /* \"#utility.yul\":16185:16194   */\n      dup4\n        /* \"#utility.yul\":16181:16199   */\n      add\n        /* \"#utility.yul\":16172:16178   */\n      dup7\n        /* \"#utility.yul\":16134:16200   */\n      tag_417\n      jump\t// in\n    tag_689:\n        /* \"#utility.yul\":16210:16282   */\n      tag_690\n        /* \"#utility.yul\":16278:16280   */\n      0x60\n        /* \"#utility.yul\":16267:16276   */\n      dup4\n        /* \"#utility.yul\":16263:16281   */\n      add\n        /* \"#utility.yul\":16254:16260   */\n      dup6\n        /* \"#utility.yul\":16210:16282   */\n      tag_415\n      jump\t// in\n    tag_690:\n        /* \"#utility.yul\":16330:16339   */\n      dup2\n        /* \"#utility.yul\":16324:16328   */\n      dup2\n        /* \"#utility.yul\":16320:16340   */\n      sub\n        /* \"#utility.yul\":16314:16317   */\n      0x80\n        /* \"#utility.yul\":16303:16312   */\n      dup4\n        /* \"#utility.yul\":16299:16318   */\n      add\n        /* \"#utility.yul\":16292:16341   */\n      mstore\n        /* \"#utility.yul\":16358:16436   */\n      tag_691\n        /* \"#utility.yul\":16431:16435   */\n      dup2\n        /* \"#utility.yul\":16422:16428   */\n      dup5\n        /* \"#utility.yul\":16358:16436   */\n      tag_439\n      jump\t// in\n    tag_691:\n        /* \"#utility.yul\":16350:16436   */\n      swap1\n      pop\n        /* \"#utility.yul\":15700:16443   */\n      swap7\n      swap6\n      pop\n      pop\n      pop\n      pop\n      pop\n      pop\n      jump\t// out\n        /* \"#utility.yul\":16449:17192   */\n    tag_91:\n        /* \"#utility.yul\":16668:16672   */\n      0x00\n        /* \"#utility.yul\":16706:16709   */\n      0xa0\n        /* \"#utility.yul\":16695:16704   */\n      dup3\n        /* \"#utility.yul\":16691:16710   */\n      add\n        /* \"#utility.yul\":16683:16710   */\n      swap1\n      pop\n        /* \"#utility.yul\":16720:16791   */\n      tag_693\n        /* \"#utility.yul\":16788:16789   */\n      0x00\n        /* \"#utility.yul\":16777:16786   */\n      dup4\n        /* \"#utility.yul\":16773:16790   */\n      add\n        /* \"#utility.yul\":16764:16770   */\n      dup9\n        /* \"#utility.yul\":16720:16791   */\n      tag_415\n      jump\t// in\n    tag_693:\n        /* \"#utility.yul\":16838:16847   */\n      dup2\n        /* \"#utility.yul\":16832:16836   */\n      dup2\n        /* \"#utility.yul\":16828:16848   */\n      sub\n        /* \"#utility.yul\":16823:16825   */\n      0x20\n        /* \"#utility.yul\":16812:16821   */\n      dup4\n        /* \"#utility.yul\":16808:16826   */\n      add\n        /* \"#utility.yul\":16801:16849   */\n      mstore\n        /* \"#utility.yul\":16866:16944   */\n      tag_694\n        /* \"#utility.yul\":16939:16943   */\n      dup2\n        /* \"#utility.yul\":16930:16936   */\n      dup8\n        /* \"#utility.yul\":16866:16944   */\n      tag_439\n      jump\t// in\n    tag_694:\n        /* \"#utility.yul\":16858:16944   */\n      swap1\n      pop\n        /* \"#utility.yul\":16954:17026   */\n      tag_695\n        /* \"#utility.yul\":17022:17024   */\n      0x40\n        /* \"#utility.yul\":17011:17020   */\n      dup4\n        /* \"#utility.yul\":17007:17025   */\n      add\n        /* \"#utility.yul\":16998:17004   */\n      dup7\n        /* \"#utility.yul\":16954:17026   */\n      tag_437\n      jump\t// in\n    tag_695:\n        /* \"#utility.yul\":17036:17108   */\n      tag_696\n        /* \"#utility.yul\":17104:17106   */\n      0x60\n        /* \"#utility.yul\":17093:17102   */\n      dup4\n        /* \"#utility.yul\":17089:17107   */\n      add\n        /* \"#utility.yul\":17080:17086   */\n      dup6\n        /* \"#utility.yul\":17036:17108   */\n      tag_415\n      jump\t// in\n    tag_696:\n        /* \"#utility.yul\":17118:17185   */\n      tag_697\n        /* \"#utility.yul\":17180:17183   */\n      0x80\n        /* \"#utility.yul\":17169:17178   */\n      dup4\n        /* \"#utility.yul\":17165:17184   */\n      add\n        /* \"#utility.yul\":17156:17162   */\n      dup5\n        /* \"#utility.yul\":17118:17185   */\n      tag_417\n      jump\t// in\n    tag_697:\n        /* \"#utility.yul\":16449:17192   */\n      swap7\n      swap6\n      pop\n      pop\n      pop\n      pop\n      pop\n      pop\n      jump\t// out\n        /* \"#utility.yul\":17198:17511   */\n    tag_99:\n        /* \"#utility.yul\":17311:17315   */\n      0x00\n        /* \"#utility.yul\":17349:17351   */\n      0x20\n        /* \"#utility.yul\":17338:17347   */\n      dup3\n        /* \"#utility.yul\":17334:17352   */\n      add\n        /* \"#utility.yul\":17326:17352   */\n      swap1\n      pop\n        /* \"#utility.yul\":17398:17407   */\n      dup2\n        /* \"#utility.yul\":17392:17396   */\n      dup2\n        /* \"#utility.yul\":17388:17408   */\n      sub\n        /* \"#utility.yul\":17384:17385   */\n      0x00\n        /* \"#utility.yul\":17373:17382   */\n      dup4\n        /* \"#utility.yul\":17369:17386   */\n      add\n        /* \"#utility.yul\":17362:17409   */\n      mstore\n        /* \"#utility.yul\":17426:17504   */\n      tag_699\n        /* \"#utility.yul\":17499:17503   */\n      dup2\n        /* \"#utility.yul\":17490:17496   */\n      dup5\n        /* \"#utility.yul\":17426:17504   */\n      tag_439\n      jump\t// in\n    tag_699:\n        /* \"#utility.yul\":17418:17504   */\n      swap1\n      pop\n        /* \"#utility.yul\":17198:17511   */\n      swap3\n      swap2\n      pop\n      pop\n      jump\t// out\n        /* \"#utility.yul\":17517:17828   */\n    tag_442:\n        /* \"#utility.yul\":17594:17598   */\n      0x00\n        /* \"#utility.yul\":17684:17702   */\n      0xffffffffffffffff\n        /* \"#utility.yul\":17676:17682   */\n      dup3\n        /* \"#utility.yul\":17673:17703   */\n      gt\n        /* \"#utility.yul\":17670:17726   */\n      iszero\n      tag_701\n      jumpi\n        /* \"#utility.yul\":17706:17724   */\n      tag_702\n      tag_199\n      jump\t// in\n    tag_702:\n        /* \"#utility.yul\":17670:17726   */\n    tag_701:\n        /* \"#utility.yul\":17756:17760   */\n      0x20\n        /* \"#utility.yul\":17748:17754   */\n      dup3\n        /* \"#utility.yul\":17744:17761   */\n      mul\n        /* \"#utility.yul\":17736:17761   */\n      swap1\n      pop\n        /* \"#utility.yul\":17816:17820   */\n      0x20\n        /* \"#utility.yul\":17810:17814   */\n      dup2\n        /* \"#utility.yul\":17806:17821   */\n      add\n        /* \"#utility.yul\":17798:17821   */\n      swap1\n      pop\n        /* \"#utility.yul\":17517:17828   */\n      swap2\n      swap1\n      pop\n      jump\t// out\n        /* \"#utility.yul\":17834:17951   */\n    tag_443:\n        /* \"#utility.yul\":17943:17944   */\n      0x00\n        /* \"#utility.yul\":17940:17941   */\n      dup1\n        /* \"#utility.yul\":17933:17945   */\n      revert\n        /* \"#utility.yul\":17974:18684   */\n    tag_444:\n        /* \"#utility.yul\":18070:18075   */\n      0x00\n        /* \"#utility.yul\":18095:18176   */\n      tag_705\n        /* \"#utility.yul\":18111:18175   */\n      tag_706\n        /* \"#utility.yul\":18168:18174   */\n      dup5\n        /* \"#utility.yul\":18111:18175   */\n      tag_442\n      jump\t// in\n    tag_706:\n        /* \"#utility.yul\":18095:18176   */\n      tag_410\n      jump\t// in\n    tag_705:\n        /* \"#utility.yul\":18086:18176   */\n      swap1\n      pop\n        /* \"#utility.yul\":18196:18201   */\n      dup1\n        /* \"#utility.yul\":18225:18231   */\n      dup4\n        /* \"#utility.yul\":18218:18223   */\n      dup3\n        /* \"#utility.yul\":18211:18232   */\n      mstore\n        /* \"#utility.yul\":18259:18263   */\n      0x20\n        /* \"#utility.yul\":18252:18257   */\n      dup3\n        /* \"#utility.yul\":18248:18264   */\n      add\n        /* \"#utility.yul\":18241:18264   */\n      swap1\n      pop\n        /* \"#utility.yul\":18312:18316   */\n      0x20\n        /* \"#utility.yul\":18304:18310   */\n      dup5\n        /* \"#utility.yul\":18300:18317   */\n      mul\n        /* \"#utility.yul\":18292:18298   */\n      dup4\n        /* \"#utility.yul\":18288:18318   */\n      add\n        /* \"#utility.yul\":18341:18344   */\n      dup6\n        /* \"#utility.yul\":18333:18339   */\n      dup2\n        /* \"#utility.yul\":18330:18345   */\n      gt\n        /* \"#utility.yul\":18327:18449   */\n      iszero\n      tag_707\n      jumpi\n        /* \"#utility.yul\":18360:18439   */\n      tag_708\n      tag_443\n      jump\t// in\n    tag_708:\n        /* \"#utility.yul\":18327:18449   */\n    tag_707:\n        /* \"#utility.yul\":18475:18481   */\n      dup4\n        /* \"#utility.yul\":18458:18678   */\n    tag_709:\n        /* \"#utility.yul\":18492:18498   */\n      dup2\n        /* \"#utility.yul\":18487:18490   */\n      dup2\n        /* \"#utility.yul\":18484:18499   */\n      lt\n        /* \"#utility.yul\":18458:18678   */\n      iszero\n      tag_711\n      jumpi\n        /* \"#utility.yul\":18567:18570   */\n      dup1\n        /* \"#utility.yul\":18596:18633   */\n      tag_712\n        /* \"#utility.yul\":18629:18632   */\n      dup9\n        /* \"#utility.yul\":18617:18627   */\n      dup3\n        /* \"#utility.yul\":18596:18633   */\n      tag_405\n      jump\t// in\n    tag_712:\n        /* \"#utility.yul\":18591:18594   */\n      dup5\n        /* \"#utility.yul\":18584:18634   */\n      mstore\n        /* \"#utility.yul\":18663:18667   */\n      0x20\n        /* \"#utility.yul\":18658:18661   */\n      dup5\n        /* \"#utility.yul\":18654:18668   */\n      add\n        /* \"#utility.yul\":18647:18668   */\n      swap4\n      pop\n        /* \"#utility.yul\":18534:18678   */\n      pop\n        /* \"#utility.yul\":18518:18522   */\n      0x20\n        /* \"#utility.yul\":18513:18516   */\n      dup2\n        /* \"#utility.yul\":18509:18523   */\n      add\n        /* \"#utility.yul\":18502:18523   */\n      swap1\n      pop\n        /* \"#utility.yul\":18458:18678   */\n      jump(tag_709)\n    tag_711:\n        /* \"#utility.yul\":18462:18483   */\n      pop\n        /* \"#utility.yul\":18076:18684   */\n      pop\n      pop\n        /* \"#utility.yul\":17974:18684   */\n      swap4\n      swap3\n      pop\n      pop\n      pop\n      jump\t// out\n        /* \"#utility.yul\":18707:19077   */\n    tag_445:\n        /* \"#utility.yul\":18778:18783   */\n      0x00\n        /* \"#utility.yul\":18827:18830   */\n      dup3\n        /* \"#utility.yul\":18820:18824   */\n      0x1f\n        /* \"#utility.yul\":18812:18818   */\n      dup4\n        /* \"#utility.yul\":18808:18825   */\n      add\n        /* \"#utility.yul\":18804:18831   */\n      slt\n        /* \"#utility.yul\":18794:18916   */\n      tag_714\n      jumpi\n        /* \"#utility.yul\":18835:18914   */\n      tag_715\n      tag_406\n      jump\t// in\n    tag_715:\n        /* \"#utility.yul\":18794:18916   */\n    tag_714:\n        /* \"#utility.yul\":18952:18958   */\n      dup2\n        /* \"#utility.yul\":18939:18959   */\n      calldataload\n        /* \"#utility.yul\":18977:19071   */\n      tag_716\n        /* \"#utility.yul\":19067:19070   */\n      dup5\n        /* \"#utility.yul\":19059:19065   */\n      dup3\n        /* \"#utility.yul\":19052:19056   */\n      0x20\n        /* \"#utility.yul\":19044:19050   */\n      dup7\n        /* \"#utility.yul\":19040:19057   */\n      add\n        /* \"#utility.yul\":18977:19071   */\n      tag_444\n      jump\t// in\n    tag_716:\n        /* \"#utility.yul\":18968:19071   */\n      swap2\n      pop\n        /* \"#utility.yul\":18784:19077   */\n      pop\n        /* \"#utility.yul\":18707:19077   */\n      swap3\n      swap2\n      pop\n      pop\n      jump\t// out\n        /* \"#utility.yul\":19083:19404   */\n    tag_446:\n        /* \"#utility.yul\":19170:19174   */\n      0x00\n        /* \"#utility.yul\":19260:19278   */\n      0xffffffffffffffff\n        /* \"#utility.yul\":19252:19258   */\n      dup3\n        /* \"#utility.yul\":19249:19279   */\n      gt\n        /* \"#utility.yul\":19246:19302   */\n      iszero\n      tag_718\n      jumpi\n        /* \"#utility.yul\":19282:19300   */\n      tag_719\n      tag_199\n      jump\t// in\n    tag_719:\n        /* \"#utility.yul\":19246:19302   */\n    tag_718:\n        /* \"#utility.yul\":19332:19336   */\n      0x20\n        /* \"#utility.yul\":19324:19330   */\n      dup3\n        /* \"#utility.yul\":19320:19337   */\n      mul\n        /* \"#utility.yul\":19312:19337   */\n      swap1\n      pop\n        /* \"#utility.yul\":19392:19396   */\n      0x20\n        /* \"#utility.yul\":19386:19390   */\n      dup2\n        /* \"#utility.yul\":19382:19397   */\n      add\n        /* \"#utility.yul\":19374:19397   */\n      swap1\n      pop\n        /* \"#utility.yul\":19083:19404   */\n      swap2\n      swap1\n      pop\n      jump\t// out\n        /* \"#utility.yul\":19426:20371   */\n    tag_447:\n        /* \"#utility.yul\":19532:19537   */\n      0x00\n        /* \"#utility.yul\":19557:19648   */\n      tag_721\n        /* \"#utility.yul\":19573:19647   */\n      tag_722\n        /* \"#utility.yul\":19640:19646   */\n      dup5\n        /* \"#utility.yul\":19573:19647   */\n      tag_446\n      jump\t// in\n    tag_722:\n        /* \"#utility.yul\":19557:19648   */\n      tag_410\n      jump\t// in\n    tag_721:\n        /* \"#utility.yul\":19548:19648   */\n      swap1\n      pop\n        /* \"#utility.yul\":19668:19673   */\n      dup1\n        /* \"#utility.yul\":19697:19703   */\n      dup4\n        /* \"#utility.yul\":19690:19695   */\n      dup3\n        /* \"#utility.yul\":19683:19704   */\n      mstore\n        /* \"#utility.yul\":19731:19735   */\n      0x20\n        /* \"#utility.yul\":19724:19729   */\n      dup3\n        /* \"#utility.yul\":19720:19736   */\n      add\n        /* \"#utility.yul\":19713:19736   */\n      swap1\n      pop\n        /* \"#utility.yul\":19784:19788   */\n      0x20\n        /* \"#utility.yul\":19776:19782   */\n      dup5\n        /* \"#utility.yul\":19772:19789   */\n      mul\n        /* \"#utility.yul\":19764:19770   */\n      dup4\n        /* \"#utility.yul\":19760:19790   */\n      add\n        /* \"#utility.yul\":19813:19816   */\n      dup6\n        /* \"#utility.yul\":19805:19811   */\n      dup2\n        /* \"#utility.yul\":19802:19817   */\n      gt\n        /* \"#utility.yul\":19799:19921   */\n      iszero\n      tag_723\n      jumpi\n        /* \"#utility.yul\":19832:19911   */\n      tag_724\n      tag_443\n      jump\t// in\n    tag_724:\n        /* \"#utility.yul\":19799:19921   */\n    tag_723:\n        /* \"#utility.yul\":19947:19953   */\n      dup4\n        /* \"#utility.yul\":19930:20365   */\n    tag_725:\n        /* \"#utility.yul\":19964:19970   */\n      dup2\n        /* \"#utility.yul\":19959:19962   */\n      dup2\n        /* \"#utility.yul\":19956:19971   */\n      lt\n        /* \"#utility.yul\":19930:20365   */\n      iszero\n      tag_727\n      jumpi\n        /* \"#utility.yul\":20053:20056   */\n      dup1\n        /* \"#utility.yul\":20040:20057   */\n      calldataload\n        /* \"#utility.yul\":20089:20107   */\n      0xffffffffffffffff\n        /* \"#utility.yul\":20076:20087   */\n      dup2\n        /* \"#utility.yul\":20073:20108   */\n      gt\n        /* \"#utility.yul\":20070:20192   */\n      iszero\n      tag_728\n      jumpi\n        /* \"#utility.yul\":20111:20190   */\n      tag_729\n      tag_406\n      jump\t// in\n    tag_729:\n        /* \"#utility.yul\":20070:20192   */\n    tag_728:\n        /* \"#utility.yul\":20235:20246   */\n      dup1\n        /* \"#utility.yul\":20227:20233   */\n      dup7\n        /* \"#utility.yul\":20223:20247   */\n      add\n        /* \"#utility.yul\":20273:20320   */\n      tag_730\n        /* \"#utility.yul\":20316:20319   */\n      dup10\n        /* \"#utility.yul\":20304:20314   */\n      dup3\n        /* \"#utility.yul\":20273:20320   */\n      tag_414\n      jump\t// in\n    tag_730:\n        /* \"#utility.yul\":20268:20271   */\n      dup6\n        /* \"#utility.yul\":20261:20321   */\n      mstore\n        /* \"#utility.yul\":20350:20354   */\n      0x20\n        /* \"#utility.yul\":20345:20348   */\n      dup6\n        /* \"#utility.yul\":20341:20355   */\n      add\n        /* \"#utility.yul\":20334:20355   */\n      swap5\n      pop\n        /* \"#utility.yul\":20006:20365   */\n      pop\n      pop\n        /* \"#utility.yul\":19990:19994   */\n      0x20\n        /* \"#utility.yul\":19985:19988   */\n      dup2\n        /* \"#utility.yul\":19981:19995   */\n      add\n        /* \"#utility.yul\":19974:19995   */\n      swap1\n      pop\n        /* \"#utility.yul\":19930:20365   */\n      jump(tag_725)\n    tag_727:\n        /* \"#utility.yul\":19934:19955   */\n      pop\n        /* \"#utility.yul\":19538:20371   */\n      pop\n      pop\n        /* \"#utility.yul\":19426:20371   */\n      swap4\n      swap3\n      pop\n      pop\n      pop\n      jump\t// out\n        /* \"#utility.yul\":20393:20783   */\n    tag_448:\n        /* \"#utility.yul\":20474:20479   */\n      0x00\n        /* \"#utility.yul\":20523:20526   */\n      dup3\n        /* \"#utility.yul\":20516:20520   */\n      0x1f\n        /* \"#utility.yul\":20508:20514   */\n      dup4\n        /* \"#utility.yul\":20504:20521   */\n      add\n        /* \"#utility.yul\":20500:20527   */\n      slt\n        /* \"#utility.yul\":20490:20612   */\n      tag_732\n      jumpi\n        /* \"#utility.yul\":20531:20610   */\n      tag_733\n      tag_406\n      jump\t// in\n    tag_733:\n        /* \"#utility.yul\":20490:20612   */\n    tag_732:\n        /* \"#utility.yul\":20648:20654   */\n      dup2\n        /* \"#utility.yul\":20635:20655   */\n      calldataload\n        /* \"#utility.yul\":20673:20777   */\n      tag_734\n        /* \"#utility.yul\":20773:20776   */\n      dup5\n        /* \"#utility.yul\":20765:20771   */\n      dup3\n        /* \"#utility.yul\":20758:20762   */\n      0x20\n        /* \"#utility.yul\":20750:20756   */\n      dup7\n        /* \"#utility.yul\":20746:20763   */\n      add\n        /* \"#utility.yul\":20673:20777   */\n      tag_447\n      jump\t// in\n    tag_734:\n        /* \"#utility.yul\":20664:20777   */\n      swap2\n      pop\n        /* \"#utility.yul\":20480:20783   */\n      pop\n        /* \"#utility.yul\":20393:20783   */\n      swap3\n      swap2\n      pop\n      pop\n      jump\t// out\n        /* \"#utility.yul\":20789:22404   */\n    tag_108:\n        /* \"#utility.yul\":20980:20986   */\n      0x00\n        /* \"#utility.yul\":20988:20994   */\n      dup1\n        /* \"#utility.yul\":20996:21002   */\n      0x00\n        /* \"#utility.yul\":21004:21010   */\n      dup1\n        /* \"#utility.yul\":21053:21056   */\n      0x80\n        /* \"#utility.yul\":21041:21050   */\n      dup6\n        /* \"#utility.yul\":21032:21039   */\n      dup8\n        /* \"#utility.yul\":21028:21051   */\n      sub\n        /* \"#utility.yul\":21024:21057   */\n      slt\n        /* \"#utility.yul\":21021:21141   */\n      iszero\n      tag_736\n      jumpi\n        /* \"#utility.yul\":21060:21139   */\n      tag_737\n      tag_401\n      jump\t// in\n    tag_737:\n        /* \"#utility.yul\":21021:21141   */\n    tag_736:\n        /* \"#utility.yul\":21208:21209   */\n      0x00\n        /* \"#utility.yul\":21197:21206   */\n      dup6\n        /* \"#utility.yul\":21193:21210   */\n      add\n        /* \"#utility.yul\":21180:21211   */\n      calldataload\n        /* \"#utility.yul\":21238:21256   */\n      0xffffffffffffffff\n        /* \"#utility.yul\":21230:21236   */\n      dup2\n        /* \"#utility.yul\":21227:21257   */\n      gt\n        /* \"#utility.yul\":21224:21341   */\n      iszero\n      tag_738\n      jumpi\n        /* \"#utility.yul\":21260:21339   */\n      tag_739\n      tag_402\n      jump\t// in\n    tag_739:\n        /* \"#utility.yul\":21224:21341   */\n    tag_738:\n        /* \"#utility.yul\":21365:21443   */\n      tag_740\n        /* \"#utility.yul\":21435:21442   */\n      dup8\n        /* \"#utility.yul\":21426:21432   */\n      dup3\n        /* \"#utility.yul\":21415:21424   */\n      dup9\n        /* \"#utility.yul\":21411:21433   */\n      add\n        /* \"#utility.yul\":21365:21443   */\n      tag_445\n      jump\t// in\n    tag_740:\n        /* \"#utility.yul\":21355:21443   */\n      swap5\n      pop\n        /* \"#utility.yul\":21151:21453   */\n      pop\n        /* \"#utility.yul\":21520:21522   */\n      0x20\n        /* \"#utility.yul\":21509:21518   */\n      dup6\n        /* \"#utility.yul\":21505:21523   */\n      add\n        /* \"#utility.yul\":21492:21524   */\n      calldataload\n        /* \"#utility.yul\":21551:21569   */\n      0xffffffffffffffff\n        /* \"#utility.yul\":21543:21549   */\n      dup2\n        /* \"#utility.yul\":21540:21570   */\n      gt\n        /* \"#utility.yul\":21537:21654   */\n      iszero\n      tag_741\n      jumpi\n        /* \"#utility.yul\":21573:21652   */\n      tag_742\n      tag_402\n      jump\t// in\n    tag_742:\n        /* \"#utility.yul\":21537:21654   */\n    tag_741:\n        /* \"#utility.yul\":21678:21766   */\n      tag_743\n        /* \"#utility.yul\":21758:21765   */\n      dup8\n        /* \"#utility.yul\":21749:21755   */\n      dup3\n        /* \"#utility.yul\":21738:21747   */\n      dup9\n        /* \"#utility.yul\":21734:21756   */\n      add\n        /* \"#utility.yul\":21678:21766   */\n      tag_448\n      jump\t// in\n    tag_743:\n        /* \"#utility.yul\":21668:21766   */\n      swap4\n      pop\n        /* \"#utility.yul\":21463:21776   */\n      pop\n        /* \"#utility.yul\":21843:21845   */\n      0x40\n        /* \"#utility.yul\":21832:21841   */\n      dup6\n        /* \"#utility.yul\":21828:21846   */\n      add\n        /* \"#utility.yul\":21815:21847   */\n      calldataload\n        /* \"#utility.yul\":21874:21892   */\n      0xffffffffffffffff\n        /* \"#utility.yul\":21866:21872   */\n      dup2\n        /* \"#utility.yul\":21863:21893   */\n      gt\n        /* \"#utility.yul\":21860:21977   */\n      iszero\n      tag_744\n      jumpi\n        /* \"#utility.yul\":21896:21975   */\n      tag_745\n      tag_402\n      jump\t// in\n    tag_745:\n        /* \"#utility.yul\":21860:21977   */\n    tag_744:\n        /* \"#utility.yul\":22001:22089   */\n      tag_746\n        /* \"#utility.yul\":22081:22088   */\n      dup8\n        /* \"#utility.yul\":22072:22078   */\n      dup3\n        /* \"#utility.yul\":22061:22070   */\n      dup9\n        /* \"#utility.yul\":22057:22079   */\n      add\n        /* \"#utility.yul\":22001:22089   */\n      tag_448\n      jump\t// in\n    tag_746:\n        /* \"#utility.yul\":21991:22089   */\n      swap3\n      pop\n        /* \"#utility.yul\":21786:22099   */\n      pop\n        /* \"#utility.yul\":22166:22168   */\n      0x60\n        /* \"#utility.yul\":22155:22164   */\n      dup6\n        /* \"#utility.yul\":22151:22169   */\n      add\n        /* \"#utility.yul\":22138:22170   */\n      calldataload\n        /* \"#utility.yul\":22197:22215   */\n      0xffffffffffffffff\n        /* \"#utility.yul\":22189:22195   */\n      dup2\n        /* \"#utility.yul\":22186:22216   */\n      gt\n        /* \"#utility.yul\":22183:22300   */\n      iszero\n      tag_747\n      jumpi\n        /* \"#utility.yul\":22219:22298   */\n      tag_748\n      tag_402\n      jump\t// in\n    tag_748:\n        /* \"#utility.yul\":22183:22300   */\n    tag_747:\n        /* \"#utility.yul\":22324:22387   */\n      tag_749\n        /* \"#utility.yul\":22379:22386   */\n      dup8\n        /* \"#utility.yul\":22370:22376   */\n      dup3\n        /* \"#utility.yul\":22359:22368   */\n      dup9\n        /* \"#utility.yul\":22355:22377   */\n      add\n        /* \"#utility.yul\":22324:22387   */\n      tag_414\n      jump\t// in\n    tag_749:\n        /* \"#utility.yul\":22314:22387   */\n      swap2\n      pop\n        /* \"#utility.yul\":22109:22397   */\n      pop\n        /* \"#utility.yul\":20789:22404   */\n      swap3\n      swap6\n      swap2\n      swap5\n      pop\n      swap3\n      pop\n      jump\t// out\n        /* \"#utility.yul\":22410:22574   */\n    tag_449:\n        /* \"#utility.yul\":22550:22566   */\n      0x4e6f7420617574686f72697a6564000000000000000000000000000000000000\n        /* \"#utility.yul\":22546:22547   */\n      0x00\n        /* \"#utility.yul\":22538:22544   */\n      dup3\n        /* \"#utility.yul\":22534:22548   */\n      add\n        /* \"#utility.yul\":22527:22567   */\n      mstore\n        /* \"#utility.yul\":22410:22574   */\n      pop\n      jump\t// out\n        /* \"#utility.yul\":22580:22946   */\n    tag_450:\n        /* \"#utility.yul\":22722:22725   */\n      0x00\n        /* \"#utility.yul\":22743:22810   */\n      tag_752\n        /* \"#utility.yul\":22807:22809   */\n      0x0e\n        /* \"#utility.yul\":22802:22805   */\n      dup4\n        /* \"#utility.yul\":22743:22810   */\n      tag_438\n      jump\t// in\n    tag_752:\n        /* \"#utility.yul\":22736:22810   */\n      swap2\n      pop\n        /* \"#utility.yul\":22819:22912   */\n      tag_753\n        /* \"#utility.yul\":22908:22911   */\n      dup3\n        /* \"#utility.yul\":22819:22912   */\n      tag_449\n      jump\t// in\n    tag_753:\n        /* \"#utility.yul\":22937:22939   */\n      0x20\n        /* \"#utility.yul\":22932:22935   */\n      dup3\n        /* \"#utility.yul\":22928:22940   */\n      add\n        /* \"#utility.yul\":22921:22940   */\n      swap1\n      pop\n        /* \"#utility.yul\":22580:22946   */\n      swap2\n      swap1\n      pop\n      jump\t// out\n        /* \"#utility.yul\":22952:23371   */\n    tag_113:\n        /* \"#utility.yul\":23118:23122   */\n      0x00\n        /* \"#utility.yul\":23156:23158   */\n      0x20\n        /* \"#utility.yul\":23145:23154   */\n      dup3\n        /* \"#utility.yul\":23141:23159   */\n      add\n        /* \"#utility.yul\":23133:23159   */\n      swap1\n      pop\n        /* \"#utility.yul\":23205:23214   */\n      dup2\n        /* \"#utility.yul\":23199:23203   */\n      dup2\n        /* \"#utility.yul\":23195:23215   */\n      sub\n        /* \"#utility.yul\":23191:23192   */\n      0x00\n        /* \"#utility.yul\":23180:23189   */\n      dup4\n        /* \"#utility.yul\":23176:23193   */\n      add\n        /* \"#utility.yul\":23169:23216   */\n      mstore\n        /* \"#utility.yul\":23233:23364   */\n      tag_755\n        /* \"#utility.yul\":23359:23363   */\n      dup2\n        /* \"#utility.yul\":23233:23364   */\n      tag_450\n      jump\t// in\n    tag_755:\n        /* \"#utility.yul\":23225:23364   */\n      swap1\n      pop\n        /* \"#utility.yul\":22952:23371   */\n      swap2\n      swap1\n      pop\n      jump\t// out\n        /* \"#utility.yul\":23377:23546   */\n    tag_451:\n        /* \"#utility.yul\":23517:23538   */\n      0x426174636820646f65736e277420657869737400000000000000000000000000\n        /* \"#utility.yul\":23513:23514   */\n      0x00\n        /* \"#utility.yul\":23505:23511   */\n      dup3\n        /* \"#utility.yul\":23501:23515   */\n      add\n        /* \"#utility.yul\":23494:23539   */\n      mstore\n        /* \"#utility.yul\":23377:23546   */\n      pop\n      jump\t// out\n        /* \"#utility.yul\":23552:23918   */\n    tag_452:\n        /* \"#utility.yul\":23694:23697   */\n      0x00\n        /* \"#utility.yul\":23715:23782   */\n      tag_758\n        /* \"#utility.yul\":23779:23781   */\n      0x13\n        /* \"#utility.yul\":23774:23777   */\n      dup4\n        /* \"#utility.yul\":23715:23782   */\n      tag_438\n      jump\t// in\n    tag_758:\n        /* \"#utility.yul\":23708:23782   */\n      swap2\n      pop\n        /* \"#utility.yul\":23791:23884   */\n      tag_759\n        /* \"#utility.yul\":23880:23883   */\n      dup3\n        /* \"#utility.yul\":23791:23884   */\n      tag_451\n      jump\t// in\n    tag_759:\n        /* \"#utility.yul\":23909:23911   */\n      0x20\n        /* \"#utility.yul\":23904:23907   */\n      dup3\n        /* \"#utility.yul\":23900:23912   */\n      add\n        /* \"#utility.yul\":23893:23912   */\n      swap1\n      pop\n        /* \"#utility.yul\":23552:23918   */\n      swap2\n      swap1\n      pop\n      jump\t// out\n        /* \"#utility.yul\":23924:24343   */\n    tag_118:\n        /* \"#utility.yul\":24090:24094   */\n      0x00\n        /* \"#utility.yul\":24128:24130   */\n      0x20\n        /* \"#utility.yul\":24117:24126   */\n      dup3\n        /* \"#utility.yul\":24113:24131   */\n      add\n        /* \"#utility.yul\":24105:24131   */\n      swap1\n      pop\n        /* \"#utility.yul\":24177:24186   */\n      dup2\n        /* \"#utility.yul\":24171:24175   */\n      dup2\n        /* \"#utility.yul\":24167:24187   */\n      sub\n        /* \"#utility.yul\":24163:24164   */\n      0x00\n        /* \"#utility.yul\":24152:24161   */\n      dup4\n        /* \"#utility.yul\":24148:24165   */\n      add\n        /* \"#utility.yul\":24141:24188   */\n      mstore\n        /* \"#utility.yul\":24205:24336   */\n      tag_761\n        /* \"#utility.yul\":24331:24335   */\n      dup2\n        /* \"#utility.yul\":24205:24336   */\n      tag_452\n      jump\t// in\n    tag_761:\n        /* \"#utility.yul\":24197:24336   */\n      swap1\n      pop\n        /* \"#utility.yul\":23924:24343   */\n      swap2\n      swap1\n      pop\n      jump\t// out\n        /* \"#utility.yul\":24349:24521   */\n    tag_453:\n        /* \"#utility.yul\":24489:24513   */\n      0x426174636820616c726561647920726563616c6c656400000000000000000000\n        /* \"#utility.yul\":24485:24486   */\n      0x00\n        /* \"#utility.yul\":24477:24483   */\n      dup3\n        /* \"#utility.yul\":24473:24487   */\n      add\n        /* \"#utility.yul\":24466:24514   */\n      mstore\n        /* \"#utility.yul\":24349:24521   */\n      pop\n      jump\t// out\n        /* \"#utility.yul\":24527:24893   */\n    tag_454:\n        /* \"#utility.yul\":24669:24672   */\n      0x00\n        /* \"#utility.yul\":24690:24757   */\n      tag_764\n        /* \"#utility.yul\":24754:24756   */\n      0x16\n        /* \"#utility.yul\":24749:24752   */\n      dup4\n        /* \"#utility.yul\":24690:24757   */\n      tag_438\n      jump\t// in\n    tag_764:\n        /* \"#utility.yul\":24683:24757   */\n      swap2\n      pop\n        /* \"#utility.yul\":24766:24859   */\n      tag_765\n        /* \"#utility.yul\":24855:24858   */\n      dup3\n        /* \"#utility.yul\":24766:24859   */\n      tag_453\n      jump\t// in\n    tag_765:\n        /* \"#utility.yul\":24884:24886   */\n      0x20\n        /* \"#utility.yul\":24879:24882   */\n      dup3\n        /* \"#utility.yul\":24875:24887   */\n      add\n        /* \"#utility.yul\":24868:24887   */\n      swap1\n      pop\n        /* \"#utility.yul\":24527:24893   */\n      swap2\n      swap1\n      pop\n      jump\t// out\n        /* \"#utility.yul\":24899:25318   */\n    tag_121:\n        /* \"#utility.yul\":25065:25069   */\n      0x00\n        /* \"#utility.yul\":25103:25105   */\n      0x20\n        /* \"#utility.yul\":25092:25101   */\n      dup3\n        /* \"#utility.yul\":25088:25106   */\n      add\n        /* \"#utility.yul\":25080:25106   */\n      swap1\n      pop\n        /* \"#utility.yul\":25152:25161   */\n      dup2\n        /* \"#utility.yul\":25146:25150   */\n      dup2\n        /* \"#utility.yul\":25142:25162   */\n      sub\n        /* \"#utility.yul\":25138:25139   */\n      0x00\n        /* \"#utility.yul\":25127:25136   */\n      dup4\n        /* \"#utility.yul\":25123:25140   */\n      add\n        /* \"#utility.yul\":25116:25163   */\n      mstore\n        /* \"#utility.yul\":25180:25311   */\n      tag_767\n        /* \"#utility.yul\":25306:25310   */\n      dup2\n        /* \"#utility.yul\":25180:25311   */\n      tag_454\n      jump\t// in\n    tag_767:\n        /* \"#utility.yul\":25172:25311   */\n      swap1\n      pop\n        /* \"#utility.yul\":24899:25318   */\n      swap2\n      swap1\n      pop\n      jump\t// out\n        /* \"#utility.yul\":25324:25504   */\n    tag_128:\n        /* \"#utility.yul\":25372:25449   */\n      0x4e487b7100000000000000000000000000000000000000000000000000000000\n        /* \"#utility.yul\":25369:25370   */\n      0x00\n        /* \"#utility.yul\":25362:25450   */\n      mstore\n        /* \"#utility.yul\":25469:25473   */\n      0x32\n        /* \"#utility.yul\":25466:25467   */\n      0x04\n        /* \"#utility.yul\":25459:25474   */\n      mstore\n        /* \"#utility.yul\":25493:25497   */\n      0x24\n        /* \"#utility.yul\":25490:25491   */\n      0x00\n        /* \"#utility.yul\":25483:25498   */\n      revert\n        /* \"#utility.yul\":25510:25676   */\n    tag_455:\n        /* \"#utility.yul\":25650:25668   */\n      0x497420646f65736e742065786973747300000000000000000000000000000000\n        /* \"#utility.yul\":25646:25647   */\n      0x00\n        /* \"#utility.yul\":25638:25644   */\n      dup3\n        /* \"#utility.yul\":25634:25648   */\n      add\n        /* \"#utility.yul\":25627:25669   */\n      mstore\n        /* \"#utility.yul\":25510:25676   */\n      pop\n      jump\t// out\n        /* \"#utility.yul\":25682:26048   */\n    tag_456:\n        /* \"#utility.yul\":25824:25827   */\n      0x00\n        /* \"#utility.yul\":25845:25912   */\n      tag_771\n        /* \"#utility.yul\":25909:25911   */\n      0x10\n        /* \"#utility.yul\":25904:25907   */\n      dup4\n        /* \"#utility.yul\":25845:25912   */\n      tag_438\n      jump\t// in\n    tag_771:\n        /* \"#utility.yul\":25838:25912   */\n      swap2\n      pop\n        /* \"#utility.yul\":25921:26014   */\n      tag_772\n        /* \"#utility.yul\":26010:26013   */\n      dup3\n        /* \"#utility.yul\":25921:26014   */\n      tag_455\n      jump\t// in\n    tag_772:\n        /* \"#utility.yul\":26039:26041   */\n      0x20\n        /* \"#utility.yul\":26034:26037   */\n      dup3\n        /* \"#utility.yul\":26030:26042   */\n      add\n        /* \"#utility.yul\":26023:26042   */\n      swap1\n      pop\n        /* \"#utility.yul\":25682:26048   */\n      swap2\n      swap1\n      pop\n      jump\t// out\n        /* \"#utility.yul\":26054:26473   */\n    tag_134:\n        /* \"#utility.yul\":26220:26224   */\n      0x00\n        /* \"#utility.yul\":26258:26260   */\n      0x20\n        /* \"#utility.yul\":26247:26256   */\n      dup3\n        /* \"#utility.yul\":26243:26261   */\n      add\n        /* \"#utility.yul\":26235:26261   */\n      swap1\n      pop\n        /* \"#utility.yul\":26307:26316   */\n      dup2\n        /* \"#utility.yul\":26301:26305   */\n      dup2\n        /* \"#utility.yul\":26297:26317   */\n      sub\n        /* \"#utility.yul\":26293:26294   */\n      0x00\n        /* \"#utility.yul\":26282:26291   */\n      dup4\n        /* \"#utility.yul\":26278:26295   */\n      add\n        /* \"#utility.yul\":26271:26318   */\n      mstore\n        /* \"#utility.yul\":26335:26466   */\n      tag_774\n        /* \"#utility.yul\":26461:26465   */\n      dup2\n        /* \"#utility.yul\":26335:26466   */\n      tag_456\n      jump\t// in\n    tag_774:\n        /* \"#utility.yul\":26327:26466   */\n      swap1\n      pop\n        /* \"#utility.yul\":26054:26473   */\n      swap2\n      swap1\n      pop\n      jump\t// out\n        /* \"#utility.yul\":26479:26659   */\n    tag_457:\n        /* \"#utility.yul\":26527:26604   */\n      0x4e487b7100000000000000000000000000000000000000000000000000000000\n        /* \"#utility.yul\":26524:26525   */\n      0x00\n        /* \"#utility.yul\":26517:26605   */\n      mstore\n        /* \"#utility.yul\":26624:26628   */\n      0x22\n        /* \"#utility.yul\":26621:26622   */\n      0x04\n        /* \"#utility.yul\":26614:26629   */\n      mstore\n        /* \"#utility.yul\":26648:26652   */\n      0x24\n        /* \"#utility.yul\":26645:26646   */\n      0x00\n        /* \"#utility.yul\":26638:26653   */\n      revert\n        /* \"#utility.yul\":26665:26985   */\n    tag_136:\n        /* \"#utility.yul\":26709:26715   */\n      0x00\n        /* \"#utility.yul\":26746:26747   */\n      0x02\n        /* \"#utility.yul\":26740:26744   */\n      dup3\n        /* \"#utility.yul\":26736:26748   */\n      div\n        /* \"#utility.yul\":26726:26748   */\n      swap1\n      pop\n        /* \"#utility.yul\":26793:26794   */\n      0x01\n        /* \"#utility.yul\":26787:26791   */\n      dup3\n        /* \"#utility.yul\":26783:26795   */\n      and\n        /* \"#utility.yul\":26814:26832   */\n      dup1\n        /* \"#utility.yul\":26804:26885   */\n      tag_777\n      jumpi\n        /* \"#utility.yul\":26870:26874   */\n      0x7f\n        /* \"#utility.yul\":26862:26868   */\n      dup3\n        /* \"#utility.yul\":26858:26875   */\n      and\n        /* \"#utility.yul\":26848:26875   */\n      swap2\n      pop\n        /* \"#utility.yul\":26804:26885   */\n    tag_777:\n        /* \"#utility.yul\":26932:26934   */\n      0x20\n        /* \"#utility.yul\":26924:26930   */\n      dup3\n        /* \"#utility.yul\":26921:26935   */\n      lt\n        /* \"#utility.yul\":26901:26919   */\n      dup2\n        /* \"#utility.yul\":26898:26936   */\n      sub\n        /* \"#utility.yul\":26895:26979   */\n      tag_778\n      jumpi\n        /* \"#utility.yul\":26951:26969   */\n      tag_779\n      tag_457\n      jump\t// in\n    tag_779:\n        /* \"#utility.yul\":26895:26979   */\n    tag_778:\n        /* \"#utility.yul\":26716:26985   */\n      pop\n        /* \"#utility.yul\":26665:26985   */\n      swap2\n      swap1\n      pop\n      jump\t// out\n        /* \"#utility.yul\":26991:27158   */\n    tag_458:\n        /* \"#utility.yul\":27131:27150   */\n      0x426174636820697320726563616c6c6564000000000000000000000000000000\n        /* \"#utility.yul\":27127:27128   */\n      0x00\n        /* \"#utility.yul\":27119:27125   */\n      dup3\n        /* \"#utility.yul\":27115:27129   */\n      add\n        /* \"#utility.yul\":27108:27151   */\n      mstore\n        /* \"#utility.yul\":26991:27158   */\n      pop\n      jump\t// out\n        /* \"#utility.yul\":27164:27530   */\n    tag_459:\n        /* \"#utility.yul\":27306:27309   */\n      0x00\n        /* \"#utility.yul\":27327:27394   */\n      tag_782\n        /* \"#utility.yul\":27391:27393   */\n      0x11\n        /* \"#utility.yul\":27386:27389   */\n      dup4\n        /* \"#utility.yul\":27327:27394   */\n      tag_438\n      jump\t// in\n    tag_782:\n        /* \"#utility.yul\":27320:27394   */\n      swap2\n      pop\n        /* \"#utility.yul\":27403:27496   */\n      tag_783\n        /* \"#utility.yul\":27492:27495   */\n      dup3\n        /* \"#utility.yul\":27403:27496   */\n      tag_458\n      jump\t// in\n    tag_783:\n        /* \"#utility.yul\":27521:27523   */\n      0x20\n        /* \"#utility.yul\":27516:27519   */\n      dup3\n        /* \"#utility.yul\":27512:27524   */\n      add\n        /* \"#utility.yul\":27505:27524   */\n      swap1\n      pop\n        /* \"#utility.yul\":27164:27530   */\n      swap2\n      swap1\n      pop\n      jump\t// out\n        /* \"#utility.yul\":27536:27955   */\n    tag_188:\n        /* \"#utility.yul\":27702:27706   */\n      0x00\n        /* \"#utility.yul\":27740:27742   */\n      0x20\n        /* \"#utility.yul\":27729:27738   */\n      dup3\n        /* \"#utility.yul\":27725:27743   */\n      add\n        /* \"#utility.yul\":27717:27743   */\n      swap1\n      pop\n        /* \"#utility.yul\":27789:27798   */\n      dup2\n        /* \"#utility.yul\":27783:27787   */\n      dup2\n        /* \"#utility.yul\":27779:27799   */\n      sub\n        /* \"#utility.yul\":27775:27776   */\n      0x00\n        /* \"#utility.yul\":27764:27773   */\n      dup4\n        /* \"#utility.yul\":27760:27777   */\n      add\n        /* \"#utility.yul\":27753:27800   */\n      mstore\n        /* \"#utility.yul\":27817:27948   */\n      tag_785\n        /* \"#utility.yul\":27943:27947   */\n      dup2\n        /* \"#utility.yul\":27817:27948   */\n      tag_459\n      jump\t// in\n    tag_785:\n        /* \"#utility.yul\":27809:27948   */\n      swap1\n      pop\n        /* \"#utility.yul\":27536:27955   */\n      swap2\n      swap1\n      pop\n      jump\t// out\n        /* \"#utility.yul\":27961:28109   */\n    tag_460:\n        /* \"#utility.yul\":28063:28074   */\n      0x00\n        /* \"#utility.yul\":28100:28103   */\n      dup2\n        /* \"#utility.yul\":28085:28103   */\n      swap1\n      pop\n        /* \"#utility.yul\":27961:28109   */\n      swap3\n      swap2\n      pop\n      pop\n      jump\t// out\n        /* \"#utility.yul\":28115:28278   */\n    tag_461:\n        /* \"#utility.yul\":28255:28270   */\n      0x7265676973746572426174636800000000000000000000000000000000000000\n        /* \"#utility.yul\":28251:28252   */\n      0x00\n        /* \"#utility.yul\":28243:28249   */\n      dup3\n        /* \"#utility.yul\":28239:28253   */\n      add\n        /* \"#utility.yul\":28232:28271   */\n      mstore\n        /* \"#utility.yul\":28115:28278   */\n      pop\n      jump\t// out\n        /* \"#utility.yul\":28284:28686   */\n    tag_462:\n        /* \"#utility.yul\":28444:28447   */\n      0x00\n        /* \"#utility.yul\":28465:28550   */\n      tag_789\n        /* \"#utility.yul\":28547:28549   */\n      0x0d\n        /* \"#utility.yul\":28542:28545   */\n      dup4\n        /* \"#utility.yul\":28465:28550   */\n      tag_460\n      jump\t// in\n    tag_789:\n        /* \"#utility.yul\":28458:28550   */\n      swap2\n      pop\n        /* \"#utility.yul\":28559:28652   */\n      tag_790\n        /* \"#utility.yul\":28648:28651   */\n      dup3\n        /* \"#utility.yul\":28559:28652   */\n      tag_461\n      jump\t// in\n    tag_790:\n        /* \"#utility.yul\":28677:28679   */\n      0x0d\n        /* \"#utility.yul\":28672:28675   */\n      dup3\n        /* \"#utility.yul\":28668:28680   */\n      add\n        /* \"#utility.yul\":28661:28680   */\n      swap1\n      pop\n        /* \"#utility.yul\":28284:28686   */\n      swap2\n      swap1\n      pop\n      jump\t// out\n        /* \"#utility.yul\":28692:29073   */\n    tag_190:\n        /* \"#utility.yul\":28877:28880   */\n      0x00\n        /* \"#utility.yul\":28899:29047   */\n      tag_792\n        /* \"#utility.yul\":29043:29046   */\n      dup3\n        /* \"#utility.yul\":28899:29047   */\n      tag_462\n      jump\t// in\n    tag_792:\n        /* \"#utility.yul\":28892:29047   */\n      swap2\n      pop\n        /* \"#utility.yul\":29064:29067   */\n      dup2\n        /* \"#utility.yul\":29057:29067   */\n      swap1\n      pop\n        /* \"#utility.yul\":28692:29073   */\n      swap2\n      swap1\n      pop\n      jump\t// out\n        /* \"#utility.yul\":29079:29469   */\n    tag_463:\n        /* \"#utility.yul\":29185:29188   */\n      0x00\n        /* \"#utility.yul\":29213:29252   */\n      tag_794\n        /* \"#utility.yul\":29246:29251   */\n      dup3\n        /* \"#utility.yul\":29213:29252   */\n      tag_428\n      jump\t// in\n    tag_794:\n        /* \"#utility.yul\":29268:29357   */\n      tag_795\n        /* \"#utility.yul\":29350:29356   */\n      dup2\n        /* \"#utility.yul\":29345:29348   */\n      dup6\n        /* \"#utility.yul\":29268:29357   */\n      tag_460\n      jump\t// in\n    tag_795:\n        /* \"#utility.yul\":29261:29357   */\n      swap4\n      pop\n        /* \"#utility.yul\":29366:29431   */\n      tag_796\n        /* \"#utility.yul\":29424:29430   */\n      dup2\n        /* \"#utility.yul\":29419:29422   */\n      dup6\n        /* \"#utility.yul\":29412:29416   */\n      0x20\n        /* \"#utility.yul\":29405:29410   */\n      dup7\n        /* \"#utility.yul\":29401:29417   */\n      add\n        /* \"#utility.yul\":29366:29431   */\n      tag_430\n      jump\t// in\n    tag_796:\n        /* \"#utility.yul\":29456:29462   */\n      dup1\n        /* \"#utility.yul\":29451:29454   */\n      dup5\n        /* \"#utility.yul\":29447:29463   */\n      add\n        /* \"#utility.yul\":29440:29463   */\n      swap2\n      pop\n        /* \"#utility.yul\":29189:29469   */\n      pop\n        /* \"#utility.yul\":29079:29469   */\n      swap3\n      swap2\n      pop\n      pop\n      jump\t// out\n        /* \"#utility.yul\":29475:29750   */\n    tag_192:\n        /* \"#utility.yul\":29607:29610   */\n      0x00\n        /* \"#utility.yul\":29629:29724   */\n      tag_798\n        /* \"#utility.yul\":29720:29723   */\n      dup3\n        /* \"#utility.yul\":29711:29717   */\n      dup5\n        /* \"#utility.yul\":29629:29724   */\n      tag_463\n      jump\t// in\n    tag_798:\n        /* \"#utility.yul\":29622:29724   */\n      swap2\n      pop\n        /* \"#utility.yul\":29741:29744   */\n      dup2\n        /* \"#utility.yul\":29734:29744   */\n      swap1\n      pop\n        /* \"#utility.yul\":29475:29750   */\n      swap3\n      swap2\n      pop\n      pop\n      jump\t// out\n        /* \"#utility.yul\":29756:29983   */\n    tag_464:\n        /* \"#utility.yul\":29896:29930   */\n      0x426174636820494473206d75737420626520656d70747920666f722072656769\n        /* \"#utility.yul\":29892:29893   */\n      0x00\n        /* \"#utility.yul\":29884:29890   */\n      dup3\n        /* \"#utility.yul\":29880:29894   */\n      add\n        /* \"#utility.yul\":29873:29931   */\n      mstore\n        /* \"#utility.yul\":29965:29975   */\n      0x7374726174696f6e000000000000000000000000000000000000000000000000\n        /* \"#utility.yul\":29960:29962   */\n      0x20\n        /* \"#utility.yul\":29952:29958   */\n      dup3\n        /* \"#utility.yul\":29948:29963   */\n      add\n        /* \"#utility.yul\":29941:29976   */\n      mstore\n        /* \"#utility.yul\":29756:29983   */\n      pop\n      jump\t// out\n        /* \"#utility.yul\":29989:30355   */\n    tag_465:\n        /* \"#utility.yul\":30131:30134   */\n      0x00\n        /* \"#utility.yul\":30152:30219   */\n      tag_801\n        /* \"#utility.yul\":30216:30218   */\n      0x28\n        /* \"#utility.yul\":30211:30214   */\n      dup4\n        /* \"#utility.yul\":30152:30219   */\n      tag_438\n      jump\t// in\n    tag_801:\n        /* \"#utility.yul\":30145:30219   */\n      swap2\n      pop\n        /* \"#utility.yul\":30228:30321   */\n      tag_802\n        /* \"#utility.yul\":30317:30320   */\n      dup3\n        /* \"#utility.yul\":30228:30321   */\n      tag_464\n      jump\t// in\n    tag_802:\n        /* \"#utility.yul\":30346:30348   */\n      0x40\n        /* \"#utility.yul\":30341:30344   */\n      dup3\n        /* \"#utility.yul\":30337:30349   */\n      add\n        /* \"#utility.yul\":30330:30349   */\n      swap1\n      pop\n        /* \"#utility.yul\":29989:30355   */\n      swap2\n      swap1\n      pop\n      jump\t// out\n        /* \"#utility.yul\":30361:30780   */\n    tag_196:\n        /* \"#utility.yul\":30527:30531   */\n      0x00\n        /* \"#utility.yul\":30565:30567   */\n      0x20\n        /* \"#utility.yul\":30554:30563   */\n      dup3\n        /* \"#utility.yul\":30550:30568   */\n      add\n        /* \"#utility.yul\":30542:30568   */\n      swap1\n      pop\n        /* \"#utility.yul\":30614:30623   */\n      dup2\n        /* \"#utility.yul\":30608:30612   */\n      dup2\n        /* \"#utility.yul\":30604:30624   */\n      sub\n        /* \"#utility.yul\":30600:30601   */\n      0x00\n        /* \"#utility.yul\":30589:30598   */\n      dup4\n        /* \"#utility.yul\":30585:30602   */\n      add\n        /* \"#utility.yul\":30578:30625   */\n      mstore\n        /* \"#utility.yul\":30642:30773   */\n      tag_804\n        /* \"#utility.yul\":30768:30772   */\n      dup2\n        /* \"#utility.yul\":30642:30773   */\n      tag_465\n      jump\t// in\n    tag_804:\n        /* \"#utility.yul\":30634:30773   */\n      swap1\n      pop\n        /* \"#utility.yul\":30361:30780   */\n      swap2\n      swap1\n      pop\n      jump\t// out\n        /* \"#utility.yul\":30786:30966   */\n    tag_466:\n        /* \"#utility.yul\":30834:30911   */\n      0x4e487b7100000000000000000000000000000000000000000000000000000000\n        /* \"#utility.yul\":30831:30832   */\n      0x00\n        /* \"#utility.yul\":30824:30912   */\n      mstore\n        /* \"#utility.yul\":30931:30935   */\n      0x11\n        /* \"#utility.yul\":30928:30929   */\n      0x04\n        /* \"#utility.yul\":30921:30936   */\n      mstore\n        /* \"#utility.yul\":30955:30959   */\n      0x24\n        /* \"#utility.yul\":30952:30953   */\n      0x00\n        /* \"#utility.yul\":30945:30960   */\n      revert\n        /* \"#utility.yul\":30972:31205   */\n    tag_205:\n        /* \"#utility.yul\":31011:31014   */\n      0x00\n        /* \"#utility.yul\":31034:31058   */\n      tag_807\n        /* \"#utility.yul\":31052:31057   */\n      dup3\n        /* \"#utility.yul\":31034:31058   */\n      tag_403\n      jump\t// in\n    tag_807:\n        /* \"#utility.yul\":31025:31058   */\n      swap2\n      pop\n        /* \"#utility.yul\":31080:31146   */\n      0xffffffffffffffffffffffffffffffffffffffffffffffffffffffffffffffff\n        /* \"#utility.yul\":31073:31078   */\n      dup3\n        /* \"#utility.yul\":31070:31147   */\n      sub\n        /* \"#utility.yul\":31067:31170   */\n      tag_808\n      jumpi\n        /* \"#utility.yul\":31150:31168   */\n      tag_809\n      tag_466\n      jump\t// in\n    tag_809:\n        /* \"#utility.yul\":31067:31170   */\n    tag_808:\n        /* \"#utility.yul\":31197:31198   */\n      0x01\n        /* \"#utility.yul\":31190:31195   */\n      dup3\n        /* \"#utility.yul\":31186:31199   */\n      add\n        /* \"#utility.yul\":31179:31199   */\n      swap1\n      pop\n        /* \"#utility.yul\":30972:31205   */\n      swap2\n      swap1\n      pop\n      jump\t// out\n        /* \"#utility.yul\":31211:31352   */\n    tag_467:\n        /* \"#utility.yul\":31260:31264   */\n      0x00\n        /* \"#utility.yul\":31283:31286   */\n      dup2\n        /* \"#utility.yul\":31275:31286   */\n      swap1\n      pop\n        /* \"#utility.yul\":31306:31309   */\n      dup2\n        /* \"#utility.yul\":31303:31304   */\n      0x00\n        /* \"#utility.yul\":31296:31310   */\n      mstore\n        /* \"#utility.yul\":31340:31344   */\n      0x20\n        /* \"#utility.yul\":31337:31338   */\n      0x00\n        /* \"#utility.yul\":31327:31345   */\n      keccak256\n        /* \"#utility.yul\":31319:31345   */\n      swap1\n      pop\n        /* \"#utility.yul\":31211:31352   */\n      swap2\n      swap1\n      pop\n      jump\t// out\n        /* \"#utility.yul\":31358:31451   */\n    tag_468:\n        /* \"#utility.yul\":31395:31401   */\n      0x00\n        /* \"#utility.yul\":31442:31444   */\n      0x20\n        /* \"#utility.yul\":31437:31439   */\n      0x1f\n        /* \"#utility.yul\":31430:31435   */\n      dup4\n        /* \"#utility.yul\":31426:31440   */\n      add\n        /* \"#utility.yul\":31422:31445   */\n      div\n        /* \"#utility.yul\":31412:31445   */\n      swap1\n      pop\n        /* \"#utility.yul\":31358:31451   */\n      swap2\n      swap1\n      pop\n      jump\t// out\n        /* \"#utility.yul\":31457:31564   */\n    tag_469:\n        /* \"#utility.yul\":31501:31509   */\n      0x00\n        /* \"#utility.yul\":31551:31556   */\n      dup3\n        /* \"#utility.yul\":31545:31549   */\n      dup3\n        /* \"#utility.yul\":31541:31557   */\n      shl\n        /* \"#utility.yul\":31520:31557   */\n      swap1\n      pop\n        /* \"#utility.yul\":31457:31564   */\n      swap3\n      swap2\n      pop\n      pop\n      jump\t// out\n        /* \"#utility.yul\":31570:31963   */\n    tag_470:\n        /* \"#utility.yul\":31639:31645   */\n      0x00\n        /* \"#utility.yul\":31689:31690   */\n      0x08\n        /* \"#utility.yul\":31677:31687   */\n      dup4\n        /* \"#utility.yul\":31673:31691   */\n      mul\n        /* \"#utility.yul\":31712:31809   */\n      tag_814\n        /* \"#utility.yul\":31742:31808   */\n      0xffffffffffffffffffffffffffffffffffffffffffffffffffffffffffffffff\n        /* \"#utility.yul\":31731:31740   */\n      dup3\n        /* \"#utility.yul\":31712:31809   */\n      tag_469\n      jump\t// in\n    tag_814:\n        /* \"#utility.yul\":31830:31869   */\n      tag_815\n        /* \"#utility.yul\":31860:31868   */\n      dup7\n        /* \"#utility.yul\":31849:31858   */\n      dup4\n        /* \"#utility.yul\":31830:31869   */\n      tag_469\n      jump\t// in\n    tag_815:\n        /* \"#utility.yul\":31818:31869   */\n      swap6\n      pop\n        /* \"#utility.yul\":31902:31906   */\n      dup1\n        /* \"#utility.yul\":31898:31907   */\n      not\n        /* \"#utility.yul\":31891:31896   */\n      dup5\n        /* \"#utility.yul\":31887:31908   */\n      and\n        /* \"#utility.yul\":31878:31908   */\n      swap4\n      pop\n        /* \"#utility.yul\":31951:31955   */\n      dup1\n        /* \"#utility.yul\":31941:31949   */\n      dup7\n        /* \"#utility.yul\":31937:31956   */\n      and\n        /* \"#utility.yul\":31930:31935   */\n      dup5\n        /* \"#utility.yul\":31927:31957   */\n      or\n        /* \"#utility.yul\":31917:31957   */\n      swap3\n      pop\n        /* \"#utility.yul\":31646:31963   */\n      pop\n      pop\n        /* \"#utility.yul\":31570:31963   */\n      swap4\n      swap3\n      pop\n      pop\n      pop\n      jump\t// out\n        /* \"#utility.yul\":31969:32029   */\n    tag_471:\n        /* \"#utility.yul\":31997:32000   */\n      0x00\n        /* \"#utility.yul\":32018:32023   */\n      dup2\n        /* \"#utility.yul\":32011:32023   */\n      swap1\n      pop\n        /* \"#utility.yul\":31969:32029   */\n      swap2\n      swap1\n      pop\n      jump\t// out\n        /* \"#utility.yul\":32035:32177   */\n    tag_472:\n        /* \"#utility.yul\":32085:32094   */\n      0x00\n        /* \"#utility.yul\":32118:32171   */\n      tag_818\n        /* \"#utility.yul\":32136:32170   */\n      tag_819\n        /* \"#utility.yul\":32145:32169   */\n      tag_820\n        /* \"#utility.yul\":32163:32168   */\n      dup5\n        /* \"#utility.yul\":32145:32169   */\n      tag_403\n      jump\t// in\n    tag_820:\n        /* \"#utility.yul\":32136:32170   */\n      tag_471\n      jump\t// in\n    tag_819:\n        /* \"#utility.yul\":32118:32171   */\n      tag_403\n      jump\t// in\n    tag_818:\n        /* \"#utility.yul\":32105:32171   */\n      swap1\n      pop\n        /* \"#utility.yul\":32035:32177   */\n      swap2\n      swap1\n      pop\n      jump\t// out\n        /* \"#utility.yul\":32183:32258   */\n    tag_473:\n        /* \"#utility.yul\":32226:32229   */\n      0x00\n        /* \"#utility.yul\":32247:32252   */\n      dup2\n        /* \"#utility.yul\":32240:32252   */\n      swap1\n      pop\n        /* \"#utility.yul\":32183:32258   */\n      swap2\n      swap1\n      pop\n      jump\t// out\n        /* \"#utility.yul\":32264:32533   */\n    tag_474:\n        /* \"#utility.yul\":32374:32413   */\n      tag_823\n        /* \"#utility.yul\":32405:32412   */\n      dup4\n        /* \"#utility.yul\":32374:32413   */\n      tag_472\n      jump\t// in\n    tag_823:\n        /* \"#utility.yul\":32435:32526   */\n      tag_824\n        /* \"#utility.yul\":32484:32525   */\n      tag_825\n        /* \"#utility.yul\":32508:32524   */\n      dup3\n        /* \"#utility.yul\":32484:32525   */\n      tag_473\n      jump\t// in\n    tag_825:\n        /* \"#utility.yul\":32476:32482   */\n      dup5\n        /* \"#utility.yul\":32469:32473   */\n      dup5\n        /* \"#utility.yul\":32463:32474   */\n      sload\n        /* \"#utility.yul\":32435:32526   */\n      tag_470\n      jump\t// in\n    tag_824:\n        /* \"#utility.yul\":32429:32433   */\n      dup3\n        /* \"#utility.yul\":32422:32527   */\n      sstore\n        /* \"#utility.yul\":32340:32533   */\n      pop\n        /* \"#utility.yul\":32264:32533   */\n      pop\n      pop\n      pop\n      jump\t// out\n        /* \"#utility.yul\":32539:32612   */\n    tag_475:\n        /* \"#utility.yul\":32584:32587   */\n      0x00\n        /* \"#utility.yul\":32539:32612   */\n      swap1\n      jump\t// out\n        /* \"#utility.yul\":32618:32807   */\n    tag_476:\n        /* \"#utility.yul\":32695:32727   */\n      tag_828\n      tag_475\n      jump\t// in\n    tag_828:\n        /* \"#utility.yul\":32736:32801   */\n      tag_829\n        /* \"#utility.yul\":32794:32800   */\n      dup2\n        /* \"#utility.yul\":32786:32792   */\n      dup5\n        /* \"#utility.yul\":32780:32784   */\n      dup5\n        /* \"#utility.yul\":32736:32801   */\n      tag_474\n      jump\t// in\n    tag_829:\n        /* \"#utility.yul\":32671:32807   */\n      pop\n        /* \"#utility.yul\":32618:32807   */\n      pop\n      pop\n      jump\t// out\n        /* \"#utility.yul\":32813:32999   */\n    tag_477:\n        /* \"#utility.yul\":32873:32993   */\n    tag_831:\n        /* \"#utility.yul\":32890:32893   */\n      dup2\n        /* \"#utility.yul\":32883:32888   */\n      dup2\n        /* \"#utility.yul\":32880:32894   */\n      lt\n        /* \"#utility.yul\":32873:32993   */\n      iszero\n      tag_833\n      jumpi\n        /* \"#utility.yul\":32944:32983   */\n      tag_834\n        /* \"#utility.yul\":32981:32982   */\n      0x00\n        /* \"#utility.yul\":32974:32979   */\n      dup3\n        /* \"#utility.yul\":32944:32983   */\n      tag_476\n      jump\t// in\n    tag_834:\n        /* \"#utility.yul\":32917:32918   */\n      0x01\n        /* \"#utility.yul\":32910:32915   */\n      dup2\n        /* \"#utility.yul\":32906:32919   */\n      add\n        /* \"#utility.yul\":32897:32919   */\n      swap1\n      pop\n        /* \"#utility.yul\":32873:32993   */\n      jump(tag_831)\n    tag_833:\n        /* \"#utility.yul\":32813:32999   */\n      pop\n      pop\n      jump\t// out\n        /* \"#utility.yul\":33005:33548   */\n    tag_478:\n        /* \"#utility.yul\":33106:33108   */\n      0x1f\n        /* \"#utility.yul\":33101:33104   */\n      dup3\n        /* \"#utility.yul\":33098:33109   */\n      gt\n        /* \"#utility.yul\":33095:33541   */\n      iszero\n      tag_836\n      jumpi\n        /* \"#utility.yul\":33140:33178   */\n      tag_837\n        /* \"#utility.yul\":33172:33177   */\n      dup2\n        /* \"#utility.yul\":33140:33178   */\n      tag_467\n      jump\t// in\n    tag_837:\n        /* \"#utility.yul\":33224:33253   */\n      tag_838\n        /* \"#utility.yul\":33242:33252   */\n      dup5\n        /* \"#utility.yul\":33224:33253   */\n      tag_468\n      jump\t// in\n    tag_838:\n        /* \"#utility.yul\":33214:33222   */\n      dup2\n        /* \"#utility.yul\":33210:33254   */\n      add\n        /* \"#utility.yul\":33407:33409   */\n      0x20\n        /* \"#utility.yul\":33395:33405   */\n      dup6\n        /* \"#utility.yul\":33392:33410   */\n      lt\n        /* \"#utility.yul\":33389:33438   */\n      iszero\n      tag_839\n      jumpi\n        /* \"#utility.yul\":33428:33436   */\n      dup2\n        /* \"#utility.yul\":33413:33436   */\n      swap1\n      pop\n        /* \"#utility.yul\":33389:33438   */\n    tag_839:\n        /* \"#utility.yul\":33451:33531   */\n      tag_840\n        /* \"#utility.yul\":33507:33529   */\n      tag_841\n        /* \"#utility.yul\":33525:33528   */\n      dup6\n        /* \"#utility.yul\":33507:33529   */\n      tag_468\n      jump\t// in\n    tag_841:\n        /* \"#utility.yul\":33497:33505   */\n      dup4\n        /* \"#utility.yul\":33493:33530   */\n      add\n        /* \"#utility.yul\":33480:33491   */\n      dup3\n        /* \"#utility.yul\":33451:33531   */\n      tag_477\n      jump\t// in\n    tag_840:\n        /* \"#utility.yul\":33110:33541   */\n      pop\n      pop\n        /* \"#utility.yul\":33095:33541   */\n    tag_836:\n        /* \"#utility.yul\":33005:33548   */\n      pop\n      pop\n      pop\n      jump\t// out\n        /* \"#utility.yul\":33554:33671   */\n    tag_479:\n        /* \"#utility.yul\":33608:33616   */\n      0x00\n        /* \"#utility.yul\":33658:33663   */\n      dup3\n        /* \"#utility.yul\":33652:33656   */\n      dup3\n        /* \"#utility.yul\":33648:33664   */\n      shr\n        /* \"#utility.yul\":33627:33664   */\n      swap1\n      pop\n        /* \"#utility.yul\":33554:33671   */\n      swap3\n      swap2\n      pop\n      pop\n      jump\t// out\n        /* \"#utility.yul\":33677:33846   */\n    tag_480:\n        /* \"#utility.yul\":33721:33727   */\n      0x00\n        /* \"#utility.yul\":33754:33805   */\n      tag_844\n        /* \"#utility.yul\":33802:33803   */\n      0x00\n        /* \"#utility.yul\":33798:33804   */\n      not\n        /* \"#utility.yul\":33790:33795   */\n      dup5\n        /* \"#utility.yul\":33787:33788   */\n      0x08\n        /* \"#utility.yul\":33783:33796   */\n      mul\n        /* \"#utility.yul\":33754:33805   */\n      tag_479\n      jump\t// in\n    tag_844:\n        /* \"#utility.yul\":33750:33806   */\n      not\n        /* \"#utility.yul\":33835:33839   */\n      dup1\n        /* \"#utility.yul\":33829:33833   */\n      dup4\n        /* \"#utility.yul\":33825:33840   */\n      and\n        /* \"#utility.yul\":33815:33840   */\n      swap2\n      pop\n        /* \"#utility.yul\":33728:33846   */\n      pop\n        /* \"#utility.yul\":33677:33846   */\n      swap3\n      swap2\n      pop\n      pop\n      jump\t// out\n        /* \"#utility.yul\":33851:34146   */\n    tag_481:\n        /* \"#utility.yul\":33927:33931   */\n      0x00\n        /* \"#utility.yul\":34073:34102   */\n      tag_846\n        /* \"#utility.yul\":34098:34101   */\n      dup4\n        /* \"#utility.yul\":34092:34096   */\n      dup4\n        /* \"#utility.yul\":34073:34102   */\n      tag_480\n      jump\t// in\n    tag_846:\n        /* \"#utility.yul\":34065:34102   */\n      swap2\n      pop\n        /* \"#utility.yul\":34135:34138   */\n      dup3\n        /* \"#utility.yul\":34132:34133   */\n      0x02\n        /* \"#utility.yul\":34128:34139   */\n      mul\n        /* \"#utility.yul\":34122:34126   */\n      dup3\n        /* \"#utility.yul\":34119:34140   */\n      or\n        /* \"#utility.yul\":34111:34140   */\n      swap1\n      pop\n        /* \"#utility.yul\":33851:34146   */\n      swap3\n      swap2\n      pop\n      pop\n      jump\t// out\n        /* \"#utility.yul\":34151:35546   */\n    tag_225:\n        /* \"#utility.yul\":34268:34305   */\n      tag_848\n        /* \"#utility.yul\":34301:34304   */\n      dup3\n        /* \"#utility.yul\":34268:34305   */\n      tag_428\n      jump\t// in\n    tag_848:\n        /* \"#utility.yul\":34370:34388   */\n      0xffffffffffffffff\n        /* \"#utility.yul\":34362:34368   */\n      dup2\n        /* \"#utility.yul\":34359:34389   */\n      gt\n        /* \"#utility.yul\":34356:34412   */\n      iszero\n      tag_849\n      jumpi\n        /* \"#utility.yul\":34392:34410   */\n      tag_850\n      tag_199\n      jump\t// in\n    tag_850:\n        /* \"#utility.yul\":34356:34412   */\n    tag_849:\n        /* \"#utility.yul\":34436:34474   */\n      tag_851\n        /* \"#utility.yul\":34468:34472   */\n      dup3\n        /* \"#utility.yul\":34462:34473   */\n      sload\n        /* \"#utility.yul\":34436:34474   */\n      tag_136\n      jump\t// in\n    tag_851:\n        /* \"#utility.yul\":34521:34588   */\n      tag_852\n        /* \"#utility.yul\":34581:34587   */\n      dup3\n        /* \"#utility.yul\":34573:34579   */\n      dup3\n        /* \"#utility.yul\":34567:34571   */\n      dup6\n        /* \"#utility.yul\":34521:34588   */\n      tag_478\n      jump\t// in\n    tag_852:\n        /* \"#utility.yul\":34615:34616   */\n      0x00\n        /* \"#utility.yul\":34639:34643   */\n      0x20\n        /* \"#utility.yul\":34626:34643   */\n      swap1\n      pop\n        /* \"#utility.yul\":34671:34673   */\n      0x1f\n        /* \"#utility.yul\":34663:34669   */\n      dup4\n        /* \"#utility.yul\":34660:34674   */\n      gt\n        /* \"#utility.yul\":34688:34689   */\n      0x01\n        /* \"#utility.yul\":34683:35301   */\n      dup2\n      eq\n      tag_854\n      jumpi\n        /* \"#utility.yul\":35345:35346   */\n      0x00\n        /* \"#utility.yul\":35362:35368   */\n      dup5\n        /* \"#utility.yul\":35359:35436   */\n      iszero\n      tag_855\n      jumpi\n        /* \"#utility.yul\":35411:35420   */\n      dup3\n        /* \"#utility.yul\":35406:35409   */\n      dup8\n        /* \"#utility.yul\":35402:35421   */\n      add\n        /* \"#utility.yul\":35396:35422   */\n      mload\n        /* \"#utility.yul\":35387:35422   */\n      swap1\n      pop\n        /* \"#utility.yul\":35359:35436   */\n    tag_855:\n        /* \"#utility.yul\":35462:35529   */\n      tag_856\n        /* \"#utility.yul\":35522:35528   */\n      dup6\n        /* \"#utility.yul\":35515:35520   */\n      dup3\n        /* \"#utility.yul\":35462:35529   */\n      tag_481\n      jump\t// in\n    tag_856:\n        /* \"#utility.yul\":35456:35460   */\n      dup7\n        /* \"#utility.yul\":35449:35530   */\n      sstore\n        /* \"#utility.yul\":35318:35540   */\n      pop\n        /* \"#utility.yul\":34653:35540   */\n      jump(tag_853)\n        /* \"#utility.yul\":34683:35301   */\n    tag_854:\n        /* \"#utility.yul\":34735:34739   */\n      0x1f\n        /* \"#utility.yul\":34731:34740   */\n      not\n        /* \"#utility.yul\":34723:34729   */\n      dup5\n        /* \"#utility.yul\":34719:34741   */\n      and\n        /* \"#utility.yul\":34769:34806   */\n      tag_857\n        /* \"#utility.yul\":34801:34805   */\n      dup7\n        /* \"#utility.yul\":34769:34806   */\n      tag_467\n      jump\t// in\n    tag_857:\n        /* \"#utility.yul\":34828:34829   */\n      0x00\n        /* \"#utility.yul\":34842:35050   */\n    tag_858:\n        /* \"#utility.yul\":34856:34863   */\n      dup3\n        /* \"#utility.yul\":34853:34854   */\n      dup2\n        /* \"#utility.yul\":34850:34864   */\n      lt\n        /* \"#utility.yul\":34842:35050   */\n      iszero\n      tag_860\n      jumpi\n        /* \"#utility.yul\":34935:34944   */\n      dup5\n        /* \"#utility.yul\":34930:34933   */\n      dup10\n        /* \"#utility.yul\":34926:34945   */\n      add\n        /* \"#utility.yul\":34920:34946   */\n      mload\n        /* \"#utility.yul\":34912:34918   */\n      dup3\n        /* \"#utility.yul\":34905:34947   */\n      sstore\n        /* \"#utility.yul\":34986:34987   */\n      0x01\n        /* \"#utility.yul\":34978:34984   */\n      dup3\n        /* \"#utility.yul\":34974:34988   */\n      add\n        /* \"#utility.yul\":34964:34988   */\n      swap2\n      pop\n        /* \"#utility.yul\":35033:35035   */\n      0x20\n        /* \"#utility.yul\":35022:35031   */\n      dup6\n        /* \"#utility.yul\":35018:35036   */\n      add\n        /* \"#utility.yul\":35005:35036   */\n      swap5\n      pop\n        /* \"#utility.yul\":34879:34883   */\n      0x20\n        /* \"#utility.yul\":34876:34877   */\n      dup2\n        /* \"#utility.yul\":34872:34884   */\n      add\n        /* \"#utility.yul\":34867:34884   */\n      swap1\n      pop\n        /* \"#utility.yul\":34842:35050   */\n      jump(tag_858)\n    tag_860:\n        /* \"#utility.yul\":35078:35084   */\n      dup7\n        /* \"#utility.yul\":35069:35076   */\n      dup4\n        /* \"#utility.yul\":35066:35085   */\n      lt\n        /* \"#utility.yul\":35063:35242   */\n      iszero\n      tag_861\n      jumpi\n        /* \"#utility.yul\":35136:35145   */\n      dup5\n        /* \"#utility.yul\":35131:35134   */\n      dup10\n        /* \"#utility.yul\":35127:35146   */\n      add\n        /* \"#utility.yul\":35121:35147   */\n      mload\n        /* \"#utility.yul\":35179:35227   */\n      tag_862\n        /* \"#utility.yul\":35221:35225   */\n      0x1f\n        /* \"#utility.yul\":35213:35219   */\n      dup10\n        /* \"#utility.yul\":35209:35226   */\n      and\n        /* \"#utility.yul\":35198:35207   */\n      dup3\n        /* \"#utility.yul\":35179:35227   */\n      tag_480\n      jump\t// in\n    tag_862:\n        /* \"#utility.yul\":35171:35177   */\n      dup4\n        /* \"#utility.yul\":35164:35228   */\n      sstore\n        /* \"#utility.yul\":35086:35242   */\n      pop\n        /* \"#utility.yul\":35063:35242   */\n    tag_861:\n        /* \"#utility.yul\":35288:35289   */\n      0x01\n        /* \"#utility.yul\":35284:35285   */\n      0x02\n        /* \"#utility.yul\":35276:35282   */\n      dup9\n        /* \"#utility.yul\":35272:35286   */\n      mul\n        /* \"#utility.yul\":35268:35290   */\n      add\n        /* \"#utility.yul\":35262:35266   */\n      dup9\n        /* \"#utility.yul\":35255:35291   */\n      sstore\n        /* \"#utility.yul\":34690:35301   */\n      pop\n      pop\n      pop\n        /* \"#utility.yul\":34653:35540   */\n    tag_853:\n      pop\n        /* \"#utility.yul\":34243:35546   */\n      pop\n      pop\n      pop\n        /* \"#utility.yul\":34151:35546   */\n      pop\n      pop\n      jump\t// out\n        /* \"#utility.yul\":35552:35715   */\n    tag_482:\n        /* \"#utility.yul\":35692:35707   */\n      0x7472616e73666572426174636800000000000000000000000000000000000000\n        /* \"#utility.yul\":35688:35689   */\n      0x00\n        /* \"#utility.yul\":35680:35686   */\n      dup3\n        /* \"#utility.yul\":35676:35690   */\n      add\n        /* \"#utility.yul\":35669:35708   */\n      mstore\n        /* \"#utility.yul\":35552:35715   */\n      pop\n      jump\t// out\n        /* \"#utility.yul\":35721:36123   */\n    tag_483:\n        /* \"#utility.yul\":35881:35884   */\n      0x00\n        /* \"#utility.yul\":35902:35987   */\n      tag_865\n        /* \"#utility.yul\":35984:35986   */\n      0x0d\n        /* \"#utility.yul\":35979:35982   */\n      dup4\n        /* \"#utility.yul\":35902:35987   */\n      tag_460\n      jump\t// in\n    tag_865:\n        /* \"#utility.yul\":35895:35987   */\n      swap2\n      pop\n        /* \"#utility.yul\":35996:36089   */\n      tag_866\n        /* \"#utility.yul\":36085:36088   */\n      dup3\n        /* \"#utility.yul\":35996:36089   */\n      tag_482\n      jump\t// in\n    tag_866:\n        /* \"#utility.yul\":36114:36116   */\n      0x0d\n        /* \"#utility.yul\":36109:36112   */\n      dup3\n        /* \"#utility.yul\":36105:36117   */\n      add\n        /* \"#utility.yul\":36098:36117   */\n      swap1\n      pop\n        /* \"#utility.yul\":35721:36123   */\n      swap2\n      swap1\n      pop\n      jump\t// out\n        /* \"#utility.yul\":36129:36510   */\n    tag_231:\n        /* \"#utility.yul\":36314:36317   */\n      0x00\n        /* \"#utility.yul\":36336:36484   */\n      tag_868\n        /* \"#utility.yul\":36480:36483   */\n      dup3\n        /* \"#utility.yul\":36336:36484   */\n      tag_483\n      jump\t// in\n    tag_868:\n        /* \"#utility.yul\":36329:36484   */\n      swap2\n      pop\n        /* \"#utility.yul\":36501:36504   */\n      dup2\n        /* \"#utility.yul\":36494:36504   */\n      swap1\n      pop\n        /* \"#utility.yul\":36129:36510   */\n      swap2\n      swap1\n      pop\n      jump\t// out\n        /* \"#utility.yul\":36516:36677   */\n    tag_484:\n        /* \"#utility.yul\":36656:36669   */\n      0x726563616c6c4261746368000000000000000000000000000000000000000000\n        /* \"#utility.yul\":36652:36653   */\n      0x00\n        /* \"#utility.yul\":36644:36650   */\n      dup3\n        /* \"#utility.yul\":36640:36654   */\n      add\n        /* \"#utility.yul\":36633:36670   */\n      mstore\n        /* \"#utility.yul\":36516:36677   */\n      pop\n      jump\t// out\n        /* \"#utility.yul\":36683:37085   */\n    tag_485:\n        /* \"#utility.yul\":36843:36846   */\n      0x00\n        /* \"#utility.yul\":36864:36949   */\n      tag_871\n        /* \"#utility.yul\":36946:36948   */\n      0x0b\n        /* \"#utility.yul\":36941:36944   */\n      dup4\n        /* \"#utility.yul\":36864:36949   */\n      tag_460\n      jump\t// in\n    tag_871:\n        /* \"#utility.yul\":36857:36949   */\n      swap2\n      pop\n        /* \"#utility.yul\":36958:37051   */\n      tag_872\n        /* \"#utility.yul\":37047:37050   */\n      dup3\n        /* \"#utility.yul\":36958:37051   */\n      tag_484\n      jump\t// in\n    tag_872:\n        /* \"#utility.yul\":37076:37078   */\n      0x0b\n        /* \"#utility.yul\":37071:37074   */\n      dup3\n        /* \"#utility.yul\":37067:37079   */\n      add\n        /* \"#utility.yul\":37060:37079   */\n      swap1\n      pop\n        /* \"#utility.yul\":36683:37085   */\n      swap2\n      swap1\n      pop\n      jump\t// out\n        /* \"#utility.yul\":37091:37472   */\n    tag_243:\n        /* \"#utility.yul\":37276:37279   */\n      0x00\n        /* \"#utility.yul\":37298:37446   */\n      tag_874\n        /* \"#utility.yul\":37442:37445   */\n      dup3\n        /* \"#utility.yul\":37298:37446   */\n      tag_485\n      jump\t// in\n    tag_874:\n        /* \"#utility.yul\":37291:37446   */\n      swap2\n      pop\n        /* \"#utility.yul\":37463:37466   */\n      dup2\n        /* \"#utility.yul\":37456:37466   */\n      swap1\n      pop\n        /* \"#utility.yul\":37091:37472   */\n      swap2\n      swap1\n      pop\n      jump\t// out\n        /* \"#utility.yul\":37478:37645   */\n    tag_486:\n        /* \"#utility.yul\":37618:37637   */\n      0x496e76616c6964206f7065726174696f6e000000000000000000000000000000\n        /* \"#utility.yul\":37614:37615   */\n      0x00\n        /* \"#utility.yul\":37606:37612   */\n      dup3\n        /* \"#utility.yul\":37602:37616   */\n      add\n        /* \"#utility.yul\":37595:37638   */\n      mstore\n        /* \"#utility.yul\":37478:37645   */\n      pop\n      jump\t// out\n        /* \"#utility.yul\":37651:38017   */\n    tag_487:\n        /* \"#utility.yul\":37793:37796   */\n      0x00\n        /* \"#utility.yul\":37814:37881   */\n      tag_877\n        /* \"#utility.yul\":37878:37880   */\n      0x11\n        /* \"#utility.yul\":37873:37876   */\n      dup4\n        /* \"#utility.yul\":37814:37881   */\n      tag_438\n      jump\t// in\n    tag_877:\n        /* \"#utility.yul\":37807:37881   */\n      swap2\n      pop\n        /* \"#utility.yul\":37890:37983   */\n      tag_878\n        /* \"#utility.yul\":37979:37982   */\n      dup3\n        /* \"#utility.yul\":37890:37983   */\n      tag_486\n      jump\t// in\n    tag_878:\n        /* \"#utility.yul\":38008:38010   */\n      0x20\n        /* \"#utility.yul\":38003:38006   */\n      dup3\n        /* \"#utility.yul\":37999:38011   */\n      add\n        /* \"#utility.yul\":37992:38011   */\n      swap1\n      pop\n        /* \"#utility.yul\":37651:38017   */\n      swap2\n      swap1\n      pop\n      jump\t// out\n        /* \"#utility.yul\":38023:38442   */\n    tag_250:\n        /* \"#utility.yul\":38189:38193   */\n      0x00\n        /* \"#utility.yul\":38227:38229   */\n      0x20\n        /* \"#utility.yul\":38216:38225   */\n      dup3\n        /* \"#utility.yul\":38212:38230   */\n      add\n        /* \"#utility.yul\":38204:38230   */\n      swap1\n      pop\n        /* \"#utility.yul\":38276:38285   */\n      dup2\n        /* \"#utility.yul\":38270:38274   */\n      dup2\n        /* \"#utility.yul\":38266:38286   */\n      sub\n        /* \"#utility.yul\":38262:38263   */\n      0x00\n        /* \"#utility.yul\":38251:38260   */\n      dup4\n        /* \"#utility.yul\":38247:38264   */\n      add\n        /* \"#utility.yul\":38240:38287   */\n      mstore\n        /* \"#utility.yul\":38304:38435   */\n      tag_880\n        /* \"#utility.yul\":38430:38434   */\n      dup2\n        /* \"#utility.yul\":38304:38435   */\n      tag_487\n      jump\t// in\n    tag_880:\n        /* \"#utility.yul\":38296:38435   */\n      swap1\n      pop\n        /* \"#utility.yul\":38023:38442   */\n      swap2\n      swap1\n      pop\n      jump\t// out\n        /* \"#utility.yul\":38472:39303   */\n    tag_488:\n        /* \"#utility.yul\":38557:38560   */\n      0x00\n        /* \"#utility.yul\":38594:38599   */\n      dup2\n        /* \"#utility.yul\":38588:38600   */\n      sload\n        /* \"#utility.yul\":38623:38659   */\n      tag_882\n        /* \"#utility.yul\":38649:38658   */\n      dup2\n        /* \"#utility.yul\":38623:38659   */\n      tag_136\n      jump\t// in\n    tag_882:\n        /* \"#utility.yul\":38675:38746   */\n      tag_883\n        /* \"#utility.yul\":38739:38745   */\n      dup2\n        /* \"#utility.yul\":38734:38737   */\n      dup7\n        /* \"#utility.yul\":38675:38746   */\n      tag_438\n      jump\t// in\n    tag_883:\n        /* \"#utility.yul\":38668:38746   */\n      swap5\n      pop\n        /* \"#utility.yul\":38777:38778   */\n      0x01\n        /* \"#utility.yul\":38766:38775   */\n      dup3\n        /* \"#utility.yul\":38762:38779   */\n      and\n        /* \"#utility.yul\":38793:38794   */\n      0x00\n        /* \"#utility.yul\":38788:38952   */\n      dup2\n      eq\n      tag_885\n      jumpi\n        /* \"#utility.yul\":38966:38967   */\n      0x01\n        /* \"#utility.yul\":38961:39297   */\n      dup2\n      eq\n      tag_886\n      jumpi\n        /* \"#utility.yul\":38755:39297   */\n      jump(tag_884)\n        /* \"#utility.yul\":38788:38952   */\n    tag_885:\n        /* \"#utility.yul\":38872:38876   */\n      0xff\n        /* \"#utility.yul\":38868:38877   */\n      not\n        /* \"#utility.yul\":38857:38866   */\n      dup4\n        /* \"#utility.yul\":38853:38878   */\n      and\n        /* \"#utility.yul\":38848:38851   */\n      dup7\n        /* \"#utility.yul\":38841:38879   */\n      mstore\n        /* \"#utility.yul\":38932:38938   */\n      dup2\n        /* \"#utility.yul\":38925:38939   */\n      iszero\n        /* \"#utility.yul\":38918:38940   */\n      iszero\n        /* \"#utility.yul\":38912:38916   */\n      0x20\n        /* \"#utility.yul\":38908:38941   */\n      mul\n        /* \"#utility.yul\":38903:38906   */\n      dup7\n        /* \"#utility.yul\":38899:38942   */\n      add\n        /* \"#utility.yul\":38892:38942   */\n      swap4\n      pop\n        /* \"#utility.yul\":38788:38952   */\n      jump(tag_884)\n        /* \"#utility.yul\":38961:39297   */\n    tag_886:\n        /* \"#utility.yul\":39028:39066   */\n      tag_887\n        /* \"#utility.yul\":39060:39065   */\n      dup6\n        /* \"#utility.yul\":39028:39066   */\n      tag_467\n      jump\t// in\n    tag_887:\n        /* \"#utility.yul\":39088:39089   */\n      0x00\n        /* \"#utility.yul\":39102:39256   */\n    tag_888:\n        /* \"#utility.yul\":39116:39122   */\n      dup4\n        /* \"#utility.yul\":39113:39114   */\n      dup2\n        /* \"#utility.yul\":39110:39123   */\n      lt\n        /* \"#utility.yul\":39102:39256   */\n      iszero\n      tag_890\n      jumpi\n        /* \"#utility.yul\":39190:39197   */\n      dup2\n        /* \"#utility.yul\":39184:39198   */\n      sload\n        /* \"#utility.yul\":39180:39181   */\n      dup2\n        /* \"#utility.yul\":39175:39178   */\n      dup10\n        /* \"#utility.yul\":39171:39182   */\n      add\n        /* \"#utility.yul\":39164:39199   */\n      mstore\n        /* \"#utility.yul\":39240:39241   */\n      0x01\n        /* \"#utility.yul\":39231:39238   */\n      dup3\n        /* \"#utility.yul\":39227:39242   */\n      add\n        /* \"#utility.yul\":39216:39242   */\n      swap2\n      pop\n        /* \"#utility.yul\":39138:39142   */\n      0x20\n        /* \"#utility.yul\":39135:39136   */\n      dup2\n        /* \"#utility.yul\":39131:39143   */\n      add\n        /* \"#utility.yul\":39126:39143   */\n      swap1\n      pop\n        /* \"#utility.yul\":39102:39256   */\n      jump(tag_888)\n    tag_890:\n        /* \"#utility.yul\":39285:39286   */\n      dup1\n        /* \"#utility.yul\":39280:39283   */\n      dup9\n        /* \"#utility.yul\":39276:39287   */\n      add\n        /* \"#utility.yul\":39269:39287   */\n      swap6\n      pop\n        /* \"#utility.yul\":38968:39297   */\n      pop\n      pop\n        /* \"#utility.yul\":38755:39297   */\n    tag_884:\n      pop\n        /* \"#utility.yul\":38561:39303   */\n      pop\n      pop\n        /* \"#utility.yul\":38472:39303   */\n      swap3\n      swap2\n      pop\n      pop\n      jump\t// out\n        /* \"#utility.yul\":39309:39616   */\n    tag_252:\n        /* \"#utility.yul\":39419:39423   */\n      0x00\n        /* \"#utility.yul\":39457:39459   */\n      0x20\n        /* \"#utility.yul\":39446:39455   */\n      dup3\n        /* \"#utility.yul\":39442:39460   */\n      add\n        /* \"#utility.yul\":39434:39460   */\n      swap1\n      pop\n        /* \"#utility.yul\":39506:39515   */\n      dup2\n        /* \"#utility.yul\":39500:39504   */\n      dup2\n        /* \"#utility.yul\":39496:39516   */\n      sub\n        /* \"#utility.yul\":39492:39493   */\n      0x00\n        /* \"#utility.yul\":39481:39490   */\n      dup4\n        /* \"#utility.yul\":39477:39494   */\n      add\n        /* \"#utility.yul\":39470:39517   */\n      mstore\n        /* \"#utility.yul\":39534:39609   */\n      tag_892\n        /* \"#utility.yul\":39604:39608   */\n      dup2\n        /* \"#utility.yul\":39595:39601   */\n      dup5\n        /* \"#utility.yul\":39534:39609   */\n      tag_488\n      jump\t// in\n    tag_892:\n        /* \"#utility.yul\":39526:39609   */\n      swap1\n      pop\n        /* \"#utility.yul\":39309:39616   */\n      swap3\n      swap2\n      pop\n      pop\n      jump\t// out\n        /* \"#utility.yul\":39622:39790   */\n    tag_489:\n        /* \"#utility.yul\":39762:39782   */\n      0x496e76616c69642070726f647563742049440000000000000000000000000000\n        /* \"#utility.yul\":39758:39759   */\n      0x00\n        /* \"#utility.yul\":39750:39756   */\n      dup3\n        /* \"#utility.yul\":39746:39760   */\n      add\n        /* \"#utility.yul\":39739:39783   */\n      mstore\n        /* \"#utility.yul\":39622:39790   */\n      pop\n      jump\t// out\n        /* \"#utility.yul\":39796:40162   */\n    tag_490:\n        /* \"#utility.yul\":39938:39941   */\n      0x00\n        /* \"#utility.yul\":39959:40026   */\n      tag_895\n        /* \"#utility.yul\":40023:40025   */\n      0x12\n        /* \"#utility.yul\":40018:40021   */\n      dup4\n        /* \"#utility.yul\":39959:40026   */\n      tag_438\n      jump\t// in\n    tag_895:\n        /* \"#utility.yul\":39952:40026   */\n      swap2\n      pop\n        /* \"#utility.yul\":40035:40128   */\n      tag_896\n        /* \"#utility.yul\":40124:40127   */\n      dup3\n        /* \"#utility.yul\":40035:40128   */\n      tag_489\n      jump\t// in\n    tag_896:\n        /* \"#utility.yul\":40153:40155   */\n      0x20\n        /* \"#utility.yul\":40148:40151   */\n      dup3\n        /* \"#utility.yul\":40144:40156   */\n      add\n        /* \"#utility.yul\":40137:40156   */\n      swap1\n      pop\n        /* \"#utility.yul\":39796:40162   */\n      swap2\n      swap1\n      pop\n      jump\t// out\n        /* \"#utility.yul\":40168:40587   */\n    tag_260:\n        /* \"#utility.yul\":40334:40338   */\n      0x00\n        /* \"#utility.yul\":40372:40374   */\n      0x20\n        /* \"#utility.yul\":40361:40370   */\n      dup3\n        /* \"#utility.yul\":40357:40375   */\n      add\n        /* \"#utility.yul\":40349:40375   */\n      swap1\n      pop\n        /* \"#utility.yul\":40421:40430   */\n      dup2\n        /* \"#utility.yul\":40415:40419   */\n      dup2\n        /* \"#utility.yul\":40411:40431   */\n      sub\n        /* \"#utility.yul\":40407:40408   */\n      0x00\n        /* \"#utility.yul\":40396:40405   */\n      dup4\n        /* \"#utility.yul\":40392:40409   */\n      add\n        /* \"#utility.yul\":40385:40432   */\n      mstore\n        /* \"#utility.yul\":40449:40580   */\n      tag_898\n        /* \"#utility.yul\":40575:40579   */\n      dup2\n        /* \"#utility.yul\":40449:40580   */\n      tag_490\n      jump\t// in\n    tag_898:\n        /* \"#utility.yul\":40441:40580   */\n      swap1\n      pop\n        /* \"#utility.yul\":40168:40587   */\n      swap2\n      swap1\n      pop\n      jump\t// out\n        /* \"#utility.yul\":40593:40819   */\n    tag_491:\n        /* \"#utility.yul\":40733:40767   */\n      0x526563616c6c65642070726f64756374732063616e6e6f74206265207472616e\n        /* \"#utility.yul\":40729:40730   */\n      0x00\n        /* \"#utility.yul\":40721:40727   */\n      dup3\n        /* \"#utility.yul\":40717:40731   */\n      add\n        /* \"#utility.yul\":40710:40768   */\n      mstore\n        /* \"#utility.yul\":40802:40811   */\n      0x7366657272656400000000000000000000000000000000000000000000000000\n        /* \"#utility.yul\":40797:40799   */\n      0x20\n        /* \"#utility.yul\":40789:40795   */\n      dup3\n        /* \"#utility.yul\":40785:40800   */\n      add\n        /* \"#utility.yul\":40778:40812   */\n      mstore\n        /* \"#utility.yul\":40593:40819   */\n      pop\n      jump\t// out\n        /* \"#utility.yul\":40825:41191   */\n    tag_492:\n        /* \"#utility.yul\":40967:40970   */\n      0x00\n        /* \"#utility.yul\":40988:41055   */\n      tag_901\n        /* \"#utility.yul\":41052:41054   */\n      0x27\n        /* \"#utility.yul\":41047:41050   */\n      dup4\n        /* \"#utility.yul\":40988:41055   */\n      tag_438\n      jump\t// in\n    tag_901:\n        /* \"#utility.yul\":40981:41055   */\n      swap2\n      pop\n        /* \"#utility.yul\":41064:41157   */\n      tag_902\n        /* \"#utility.yul\":41153:41156   */\n      dup3\n        /* \"#utility.yul\":41064:41157   */\n      tag_491\n      jump\t// in\n    tag_902:\n        /* \"#utility.yul\":41182:41184   */\n      0x40\n        /* \"#utility.yul\":41177:41180   */\n      dup3\n        /* \"#utility.yul\":41173:41185   */\n      add\n        /* \"#utility.yul\":41166:41185   */\n      swap1\n      pop\n        /* \"#utility.yul\":40825:41191   */\n      swap2\n      swap1\n      pop\n      jump\t// out\n        /* \"#utility.yul\":41197:41616   */\n    tag_263:\n        /* \"#utility.yul\":41363:41367   */\n      0x00\n        /* \"#utility.yul\":41401:41403   */\n      0x20\n        /* \"#utility.yul\":41390:41399   */\n      dup3\n        /* \"#utility.yul\":41386:41404   */\n      add\n        /* \"#utility.yul\":41378:41404   */\n      swap1\n      pop\n        /* \"#utility.yul\":41450:41459   */\n      dup2\n        /* \"#utility.yul\":41444:41448   */\n      dup2\n        /* \"#utility.yul\":41440:41460   */\n      sub\n        /* \"#utility.yul\":41436:41437   */\n      0x00\n        /* \"#utility.yul\":41425:41434   */\n      dup4\n        /* \"#utility.yul\":41421:41438   */\n      add\n        /* \"#utility.yul\":41414:41461   */\n      mstore\n        /* \"#utility.yul\":41478:41609   */\n      tag_904\n        /* \"#utility.yul\":41604:41608   */\n      dup2\n        /* \"#utility.yul\":41478:41609   */\n      tag_492\n      jump\t// in\n    tag_904:\n        /* \"#utility.yul\":41470:41609   */\n      swap1\n      pop\n        /* \"#utility.yul\":41197:41616   */\n      swap2\n      swap1\n      pop\n      jump\t// out\n        /* \"#utility.yul\":41622:41797   */\n    tag_493:\n        /* \"#utility.yul\":41762:41789   */\n      0x496e76616c6964206e6577206f776e6572206164647265737300000000000000\n        /* \"#utility.yul\":41758:41759   */\n      0x00\n        /* \"#utility.yul\":41750:41756   */\n      dup3\n        /* \"#utility.yul\":41746:41760   */\n      add\n        /* \"#utility.yul\":41739:41790   */\n      mstore\n        /* \"#utility.yul\":41622:41797   */\n      pop\n      jump\t// out\n        /* \"#utility.yul\":41803:42169   */\n    tag_494:\n        /* \"#utility.yul\":41945:41948   */\n      0x00\n        /* \"#utility.yul\":41966:42033   */\n      tag_907\n        /* \"#utility.yul\":42030:42032   */\n      0x19\n        /* \"#utility.yul\":42025:42028   */\n      dup4\n        /* \"#utility.yul\":41966:42033   */\n      tag_438\n      jump\t// in\n    tag_907:\n        /* \"#utility.yul\":41959:42033   */\n      swap2\n      pop\n        /* \"#utility.yul\":42042:42135   */\n      tag_908\n        /* \"#utility.yul\":42131:42134   */\n      dup3\n        /* \"#utility.yul\":42042:42135   */\n      tag_493\n      jump\t// in\n    tag_908:\n        /* \"#utility.yul\":42160:42162   */\n      0x20\n        /* \"#utility.yul\":42155:42158   */\n      dup3\n        /* \"#utility.yul\":42151:42163   */\n      add\n        /* \"#utility.yul\":42144:42163   */\n      swap1\n      pop\n        /* \"#utility.yul\":41803:42169   */\n      swap2\n      swap1\n      pop\n      jump\t// out\n        /* \"#utility.yul\":42175:42594   */\n    tag_266:\n        /* \"#utility.yul\":42341:42345   */\n      0x00\n        /* \"#utility.yul\":42379:42381   */\n      0x20\n        /* \"#utility.yul\":42368:42377   */\n      dup3\n        /* \"#utility.yul\":42364:42382   */\n      add\n        /* \"#utility.yul\":42356:42382   */\n      swap1\n      pop\n        /* \"#utility.yul\":42428:42437   */\n      dup2\n        /* \"#utility.yul\":42422:42426   */\n      dup2\n        /* \"#utility.yul\":42418:42438   */\n      sub\n        /* \"#utility.yul\":42414:42415   */\n      0x00\n        /* \"#utility.yul\":42403:42412   */\n      dup4\n        /* \"#utility.yul\":42399:42416   */\n      add\n        /* \"#utility.yul\":42392:42439   */\n      mstore\n        /* \"#utility.yul\":42456:42587   */\n      tag_910\n        /* \"#utility.yul\":42582:42586   */\n      dup2\n        /* \"#utility.yul\":42456:42587   */\n      tag_494\n      jump\t// in\n    tag_910:\n        /* \"#utility.yul\":42448:42587   */\n      swap1\n      pop\n        /* \"#utility.yul\":42175:42594   */\n      swap2\n      swap1\n      pop\n      jump\t// out\n        /* \"#utility.yul\":42600:42777   */\n    tag_495:\n        /* \"#utility.yul\":42740:42769   */\n      0x4e6577206f776e6572206973206e6f7420617574686f72697a65640000000000\n        /* \"#utility.yul\":42736:42737   */\n      0x00\n        /* \"#utility.yul\":42728:42734   */\n      dup3\n        /* \"#utility.yul\":42724:42738   */\n      add\n        /* \"#utility.yul\":42717:42770   */\n      mstore\n        /* \"#utility.yul\":42600:42777   */\n      pop\n      jump\t// out\n        /* \"#utility.yul\":42783:43149   */\n    tag_496:\n        /* \"#utility.yul\":42925:42928   */\n      0x00\n        /* \"#utility.yul\":42946:43013   */\n      tag_913\n        /* \"#utility.yul\":43010:43012   */\n      0x1b\n        /* \"#utility.yul\":43005:43008   */\n      dup4\n        /* \"#utility.yul\":42946:43013   */\n      tag_438\n      jump\t// in\n    tag_913:\n        /* \"#utility.yul\":42939:43013   */\n      swap2\n      pop\n        /* \"#utility.yul\":43022:43115   */\n      tag_914\n        /* \"#utility.yul\":43111:43114   */\n      dup3\n        /* \"#utility.yul\":43022:43115   */\n      tag_495\n      jump\t// in\n    tag_914:\n        /* \"#utility.yul\":43140:43142   */\n      0x20\n        /* \"#utility.yul\":43135:43138   */\n      dup3\n        /* \"#utility.yul\":43131:43143   */\n      add\n        /* \"#utility.yul\":43124:43143   */\n      swap1\n      pop\n        /* \"#utility.yul\":42783:43149   */\n      swap2\n      swap1\n      pop\n      jump\t// out\n        /* \"#utility.yul\":43155:43574   */\n    tag_269:\n        /* \"#utility.yul\":43321:43325   */\n      0x00\n        /* \"#utility.yul\":43359:43361   */\n      0x20\n        /* \"#utility.yul\":43348:43357   */\n      dup3\n        /* \"#utility.yul\":43344:43362   */\n      add\n        /* \"#utility.yul\":43336:43362   */\n      swap1\n      pop\n        /* \"#utility.yul\":43408:43417   */\n      dup2\n        /* \"#utility.yul\":43402:43406   */\n      dup2\n        /* \"#utility.yul\":43398:43418   */\n      sub\n        /* \"#utility.yul\":43394:43395   */\n      0x00\n        /* \"#utility.yul\":43383:43392   */\n      dup4\n        /* \"#utility.yul\":43379:43396   */\n      add\n        /* \"#utility.yul\":43372:43419   */\n      mstore\n        /* \"#utility.yul\":43436:43567   */\n      tag_916\n        /* \"#utility.yul\":43562:43566   */\n      dup2\n        /* \"#utility.yul\":43436:43567   */\n      tag_496\n      jump\t// in\n    tag_916:\n        /* \"#utility.yul\":43428:43567   */\n      swap1\n      pop\n        /* \"#utility.yul\":43155:43574   */\n      swap2\n      swap1\n      pop\n      jump\t// out\n        /* \"#utility.yul\":43580:43761   */\n    tag_497:\n        /* \"#utility.yul\":43720:43753   */\n      0x4f6e6c792063757272656e74206f776e65722063616e207472616e7366657200\n        /* \"#utility.yul\":43716:43717   */\n      0x00\n        /* \"#utility.yul\":43708:43714   */\n      dup3\n        /* \"#utility.yul\":43704:43718   */\n      add\n        /* \"#utility.yul\":43697:43754   */\n      mstore\n        /* \"#utility.yul\":43580:43761   */\n      pop\n      jump\t// out\n        /* \"#utility.yul\":43767:44133   */\n    tag_498:\n        /* \"#utility.yul\":43909:43912   */\n      0x00\n        /* \"#utility.yul\":43930:43997   */\n      tag_919\n        /* \"#utility.yul\":43994:43996   */\n      0x1f\n        /* \"#utility.yul\":43989:43992   */\n      dup4\n        /* \"#utility.yul\":43930:43997   */\n      tag_438\n      jump\t// in\n    tag_919:\n        /* \"#utility.yul\":43923:43997   */\n      swap2\n      pop\n        /* \"#utility.yul\":44006:44099   */\n      tag_920\n        /* \"#utility.yul\":44095:44098   */\n      dup3\n        /* \"#utility.yul\":44006:44099   */\n      tag_497\n      jump\t// in\n    tag_920:\n        /* \"#utility.yul\":44124:44126   */\n      0x20\n        /* \"#utility.yul\":44119:44122   */\n      dup3\n        /* \"#utility.yul\":44115:44127   */\n      add\n        /* \"#utility.yul\":44108:44127   */\n      swap1\n      pop\n        /* \"#utility.yul\":43767:44133   */\n      swap2\n      swap1\n      pop\n      jump\t// out\n        /* \"#utility.yul\":44139:44558   */\n    tag_272:\n        /* \"#utility.yul\":44305:44309   */\n      0x00\n        /* \"#utility.yul\":44343:44345   */\n      0x20\n        /* \"#utility.yul\":44332:44341   */\n      dup3\n        /* \"#utility.yul\":44328:44346   */\n      add\n        /* \"#utility.yul\":44320:44346   */\n      swap1\n      pop\n        /* \"#utility.yul\":44392:44401   */\n      dup2\n        /* \"#utility.yul\":44386:44390   */\n      dup2\n        /* \"#utility.yul\":44382:44402   */\n      sub\n        /* \"#utility.yul\":44378:44379   */\n      0x00\n        /* \"#utility.yul\":44367:44376   */\n      dup4\n        /* \"#utility.yul\":44363:44380   */\n      add\n        /* \"#utility.yul\":44356:44403   */\n      mstore\n        /* \"#utility.yul\":44420:44551   */\n      tag_922\n        /* \"#utility.yul\":44546:44550   */\n      dup2\n        /* \"#utility.yul\":44420:44551   */\n      tag_498\n      jump\t// in\n    tag_922:\n        /* \"#utility.yul\":44412:44551   */\n      swap1\n      pop\n        /* \"#utility.yul\":44139:44558   */\n      swap2\n      swap1\n      pop\n      jump\t// out\n        /* \"#utility.yul\":44564:44734   */\n    tag_499:\n        /* \"#utility.yul\":44704:44726   */\n      0x4e616d652063616e6e6f7420626520656d707479000000000000000000000000\n        /* \"#utility.yul\":44700:44701   */\n      0x00\n        /* \"#utility.yul\":44692:44698   */\n      dup3\n        /* \"#utility.yul\":44688:44702   */\n      add\n        /* \"#utility.yul\":44681:44727   */\n      mstore\n        /* \"#utility.yul\":44564:44734   */\n      pop\n      jump\t// out\n        /* \"#utility.yul\":44740:45106   */\n    tag_500:\n        /* \"#utility.yul\":44882:44885   */\n      0x00\n        /* \"#utility.yul\":44903:44970   */\n      tag_925\n        /* \"#utility.yul\":44967:44969   */\n      0x14\n        /* \"#utility.yul\":44962:44965   */\n      dup4\n        /* \"#utility.yul\":44903:44970   */\n      tag_438\n      jump\t// in\n    tag_925:\n        /* \"#utility.yul\":44896:44970   */\n      swap2\n      pop\n        /* \"#utility.yul\":44979:45072   */\n      tag_926\n        /* \"#utility.yul\":45068:45071   */\n      dup3\n        /* \"#utility.yul\":44979:45072   */\n      tag_499\n      jump\t// in\n    tag_926:\n        /* \"#utility.yul\":45097:45099   */\n      0x20\n        /* \"#utility.yul\":45092:45095   */\n      dup3\n        /* \"#utility.yul\":45088:45100   */\n      add\n        /* \"#utility.yul\":45081:45100   */\n      swap1\n      pop\n        /* \"#utility.yul\":44740:45106   */\n      swap2\n      swap1\n      pop\n      jump\t// out\n        /* \"#utility.yul\":45112:45531   */\n    tag_279:\n        /* \"#utility.yul\":45278:45282   */\n      0x00\n        /* \"#utility.yul\":45316:45318   */\n      0x20\n        /* \"#utility.yul\":45305:45314   */\n      dup3\n        /* \"#utility.yul\":45301:45319   */\n      add\n        /* \"#utility.yul\":45293:45319   */\n      swap1\n      pop\n        /* \"#utility.yul\":45365:45374   */\n      dup2\n        /* \"#utility.yul\":45359:45363   */\n      dup2\n        /* \"#utility.yul\":45355:45375   */\n      sub\n        /* \"#utility.yul\":45351:45352   */\n      0x00\n        /* \"#utility.yul\":45340:45349   */\n      dup4\n        /* \"#utility.yul\":45336:45353   */\n      add\n        /* \"#utility.yul\":45329:45376   */\n      mstore\n        /* \"#utility.yul\":45393:45524   */\n      tag_928\n        /* \"#utility.yul\":45519:45523   */\n      dup2\n        /* \"#utility.yul\":45393:45524   */\n      tag_500\n      jump\t// in\n    tag_928:\n        /* \"#utility.yul\":45385:45524   */\n      swap1\n      pop\n        /* \"#utility.yul\":45112:45531   */\n      swap2\n      swap1\n      pop\n      jump\t// out\n        /* \"#utility.yul\":45537:45714   */\n    tag_501:\n        /* \"#utility.yul\":45677:45706   */\n      0x4465736372697074696f6e2063616e6e6f7420626520656d7074790000000000\n        /* \"#utility.yul\":45673:45674   */\n      0x00\n        /* \"#utility.yul\":45665:45671   */\n      dup3\n        /* \"#utility.yul\":45661:45675   */\n      add\n        /* \"#utility.yul\":45654:45707   */\n      mstore\n        /* \"#utility.yul\":45537:45714   */\n      pop\n      jump\t// out\n        /* \"#utility.yul\":45720:46086   */\n    tag_502:\n        /* \"#utility.yul\":45862:45865   */\n      0x00\n        /* \"#utility.yul\":45883:45950   */\n      tag_931\n        /* \"#utility.yul\":45947:45949   */\n      0x1b\n        /* \"#utility.yul\":45942:45945   */\n      dup4\n        /* \"#utility.yul\":45883:45950   */\n      tag_438\n      jump\t// in\n    tag_931:\n        /* \"#utility.yul\":45876:45950   */\n      swap2\n      pop\n        /* \"#utility.yul\":45959:46052   */\n      tag_932\n        /* \"#utility.yul\":46048:46051   */\n      dup3\n        /* \"#utility.yul\":45959:46052   */\n      tag_501\n      jump\t// in\n    tag_932:\n        /* \"#utility.yul\":46077:46079   */\n      0x20\n        /* \"#utility.yul\":46072:46075   */\n      dup3\n        /* \"#utility.yul\":46068:46080   */\n      add\n        /* \"#utility.yul\":46061:46080   */\n      swap1\n      pop\n        /* \"#utility.yul\":45720:46086   */\n      swap2\n      swap1\n      pop\n      jump\t// out\n        /* \"#utility.yul\":46092:46511   */\n    tag_282:\n        /* \"#utility.yul\":46258:46262   */\n      0x00\n        /* \"#utility.yul\":46296:46298   */\n      0x20\n        /* \"#utility.yul\":46285:46294   */\n      dup3\n        /* \"#utility.yul\":46281:46299   */\n      add\n        /* \"#utility.yul\":46273:46299   */\n      swap1\n      pop\n        /* \"#utility.yul\":46345:46354   */\n      dup2\n        /* \"#utility.yul\":46339:46343   */\n      dup2\n        /* \"#utility.yul\":46335:46355   */\n      sub\n        /* \"#utility.yul\":46331:46332   */\n      0x00\n        /* \"#utility.yul\":46320:46329   */\n      dup4\n        /* \"#utility.yul\":46316:46333   */\n      add\n        /* \"#utility.yul\":46309:46356   */\n      mstore\n        /* \"#utility.yul\":46373:46504   */\n      tag_934\n        /* \"#utility.yul\":46499:46503   */\n      dup2\n        /* \"#utility.yul\":46373:46504   */\n      tag_502\n      jump\t// in\n    tag_934:\n        /* \"#utility.yul\":46365:46504   */\n      swap1\n      pop\n        /* \"#utility.yul\":46092:46511   */\n      swap2\n      swap1\n      pop\n      jump\t// out\n        /* \"#utility.yul\":46517:46688   */\n    tag_503:\n        /* \"#utility.yul\":46657:46680   */\n      0x50726f6475637420646f65736e74206578697374730000000000000000000000\n        /* \"#utility.yul\":46653:46654   */\n      0x00\n        /* \"#utility.yul\":46645:46651   */\n      dup3\n        /* \"#utility.yul\":46641:46655   */\n      add\n        /* \"#utility.yul\":46634:46681   */\n      mstore\n        /* \"#utility.yul\":46517:46688   */\n      pop\n      jump\t// out\n        /* \"#utility.yul\":46694:47060   */\n    tag_504:\n        /* \"#utility.yul\":46836:46839   */\n      0x00\n        /* \"#utility.yul\":46857:46924   */\n      tag_937\n        /* \"#utility.yul\":46921:46923   */\n      0x15\n        /* \"#utility.yul\":46916:46919   */\n      dup4\n        /* \"#utility.yul\":46857:46924   */\n      tag_438\n      jump\t// in\n    tag_937:\n        /* \"#utility.yul\":46850:46924   */\n      swap2\n      pop\n        /* \"#utility.yul\":46933:47026   */\n      tag_938\n        /* \"#utility.yul\":47022:47025   */\n      dup3\n        /* \"#utility.yul\":46933:47026   */\n      tag_503\n      jump\t// in\n    tag_938:\n        /* \"#utility.yul\":47051:47053   */\n      0x20\n        /* \"#utility.yul\":47046:47049   */\n      dup3\n        /* \"#utility.yul\":47042:47054   */\n      add\n        /* \"#utility.yul\":47035:47054   */\n      swap1\n      pop\n        /* \"#utility.yul\":46694:47060   */\n      swap2\n      swap1\n      pop\n      jump\t// out\n        /* \"#utility.yul\":47066:47485   */\n    tag_293:\n        /* \"#utility.yul\":47232:47236   */\n      0x00\n        /* \"#utility.yul\":47270:47272   */\n      0x20\n        /* \"#utility.yul\":47259:47268   */\n      dup3\n        /* \"#utility.yul\":47255:47273   */\n      add\n        /* \"#utility.yul\":47247:47273   */\n      swap1\n      pop\n        /* \"#utility.yul\":47319:47328   */\n      dup2\n        /* \"#utility.yul\":47313:47317   */\n      dup2\n        /* \"#utility.yul\":47309:47329   */\n      sub\n        /* \"#utility.yul\":47305:47306   */\n      0x00\n        /* \"#utility.yul\":47294:47303   */\n      dup4\n        /* \"#utility.yul\":47290:47307   */\n      add\n        /* \"#utility.yul\":47283:47330   */\n      mstore\n        /* \"#utility.yul\":47347:47478   */\n      tag_940\n        /* \"#utility.yul\":47473:47477   */\n      dup2\n        /* \"#utility.yul\":47347:47478   */\n      tag_504\n      jump\t// in\n    tag_940:\n        /* \"#utility.yul\":47339:47478   */\n      swap1\n      pop\n        /* \"#utility.yul\":47066:47485   */\n      swap2\n      swap1\n      pop\n      jump\t// out\n        /* \"#utility.yul\":47491:47657   */\n    tag_505:\n        /* \"#utility.yul\":47631:47649   */\n      0x416c726561647920726563616c6c656400000000000000000000000000000000\n        /* \"#utility.yul\":47627:47628   */\n      0x00\n        /* \"#utility.yul\":47619:47625   */\n      dup3\n        /* \"#utility.yul\":47615:47629   */\n      add\n        /* \"#utility.yul\":47608:47650   */\n      mstore\n        /* \"#utility.yul\":47491:47657   */\n      pop\n      jump\t// out\n        /* \"#utility.yul\":47663:48029   */\n    tag_506:\n        /* \"#utility.yul\":47805:47808   */\n      0x00\n        /* \"#utility.yul\":47826:47893   */\n      tag_943\n        /* \"#utility.yul\":47890:47892   */\n      0x10\n        /* \"#utility.yul\":47885:47888   */\n      dup4\n        /* \"#utility.yul\":47826:47893   */\n      tag_438\n      jump\t// in\n    tag_943:\n        /* \"#utility.yul\":47819:47893   */\n      swap2\n      pop\n        /* \"#utility.yul\":47902:47995   */\n      tag_944\n        /* \"#utility.yul\":47991:47994   */\n      dup3\n        /* \"#utility.yul\":47902:47995   */\n      tag_505\n      jump\t// in\n    tag_944:\n        /* \"#utility.yul\":48020:48022   */\n      0x20\n        /* \"#utility.yul\":48015:48018   */\n      dup3\n        /* \"#utility.yul\":48011:48023   */\n      add\n        /* \"#utility.yul\":48004:48023   */\n      swap1\n      pop\n        /* \"#utility.yul\":47663:48029   */\n      swap2\n      swap1\n      pop\n      jump\t// out\n        /* \"#utility.yul\":48035:48454   */\n    tag_296:\n        /* \"#utility.yul\":48201:48205   */\n      0x00\n        /* \"#utility.yul\":48239:48241   */\n      0x20\n        /* \"#utility.yul\":48228:48237   */\n      dup3\n        /* \"#utility.yul\":48224:48242   */\n      add\n        /* \"#utility.yul\":48216:48242   */\n      swap1\n      pop\n        /* \"#utility.yul\":48288:48297   */\n      dup2\n        /* \"#utility.yul\":48282:48286   */\n      dup2\n        /* \"#utility.yul\":48278:48298   */\n      sub\n        /* \"#utility.yul\":48274:48275   */\n      0x00\n        /* \"#utility.yul\":48263:48272   */\n      dup4\n        /* \"#utility.yul\":48259:48276   */\n      add\n        /* \"#utility.yul\":48252:48299   */\n      mstore\n        /* \"#utility.yul\":48316:48447   */\n      tag_946\n        /* \"#utility.yul\":48442:48446   */\n      dup2\n        /* \"#utility.yul\":48316:48447   */\n      tag_506\n      jump\t// in\n    tag_946:\n        /* \"#utility.yul\":48308:48447   */\n      swap1\n      pop\n        /* \"#utility.yul\":48035:48454   */\n      swap2\n      swap1\n      pop\n      jump\t// out\n        /* \"#utility.yul\":48460:48623   */\n    tag_507:\n        /* \"#utility.yul\":48600:48615   */\n      0x4e6f7420746865206f776e657200000000000000000000000000000000000000\n        /* \"#utility.yul\":48596:48597   */\n      0x00\n        /* \"#utility.yul\":48588:48594   */\n      dup3\n        /* \"#utility.yul\":48584:48598   */\n      add\n        /* \"#utility.yul\":48577:48616   */\n      mstore\n        /* \"#utility.yul\":48460:48623   */\n      pop\n      jump\t// out\n        /* \"#utility.yul\":48629:48995   */\n    tag_508:\n        /* \"#utility.yul\":48771:48774   */\n      0x00\n        /* \"#utility.yul\":48792:48859   */\n      tag_949\n        /* \"#utility.yul\":48856:48858   */\n      0x0d\n        /* \"#utility.yul\":48851:48854   */\n      dup4\n        /* \"#utility.yul\":48792:48859   */\n      tag_438\n      jump\t// in\n    tag_949:\n        /* \"#utility.yul\":48785:48859   */\n      swap2\n      pop\n        /* \"#utility.yul\":48868:48961   */\n      tag_950\n        /* \"#utility.yul\":48957:48960   */\n      dup3\n        /* \"#utility.yul\":48868:48961   */\n      tag_507\n      jump\t// in\n    tag_950:\n        /* \"#utility.yul\":48986:48988   */\n      0x20\n        /* \"#utility.yul\":48981:48984   */\n      dup3\n        /* \"#utility.yul\":48977:48989   */\n      add\n        /* \"#utility.yul\":48970:48989   */\n      swap1\n      pop\n        /* \"#utility.yul\":48629:48995   */\n      swap2\n      swap1\n      pop\n      jump\t// out\n        /* \"#utility.yul\":49001:49420   */\n    tag_325:\n        /* \"#utility.yul\":49167:49171   */\n      0x00\n        /* \"#utility.yul\":49205:49207   */\n      0x20\n        /* \"#utility.yul\":49194:49203   */\n      dup3\n        /* \"#utility.yul\":49190:49208   */\n      add\n        /* \"#utility.yul\":49182:49208   */\n      swap1\n      pop\n        /* \"#utility.yul\":49254:49263   */\n      dup2\n        /* \"#utility.yul\":49248:49252   */\n      dup2\n        /* \"#utility.yul\":49244:49264   */\n      sub\n        /* \"#utility.yul\":49240:49241   */\n      0x00\n        /* \"#utility.yul\":49229:49238   */\n      dup4\n        /* \"#utility.yul\":49225:49242   */\n      add\n        /* \"#utility.yul\":49218:49265   */\n      mstore\n        /* \"#utility.yul\":49282:49413   */\n      tag_952\n        /* \"#utility.yul\":49408:49412   */\n      dup2\n        /* \"#utility.yul\":49282:49413   */\n      tag_508\n      jump\t// in\n    tag_952:\n        /* \"#utility.yul\":49274:49413   */\n      swap1\n      pop\n        /* \"#utility.yul\":49001:49420   */\n      swap2\n      swap1\n      pop\n      jump\t// out\n        /* \"#utility.yul\":49426:49591   */\n    tag_509:\n        /* \"#utility.yul\":49566:49583   */\n      0x496e76616c696420616464726573730000000000000000000000000000000000\n        /* \"#utility.yul\":49562:49563   */\n      0x00\n        /* \"#utility.yul\":49554:49560   */\n      dup3\n        /* \"#utility.yul\":49550:49564   */\n      add\n        /* \"#utility.yul\":49543:49584   */\n      mstore\n        /* \"#utility.yul\":49426:49591   */\n      pop\n      jump\t// out\n        /* \"#utility.yul\":49597:49963   */\n    tag_510:\n        /* \"#utility.yul\":49739:49742   */\n      0x00\n        /* \"#utility.yul\":49760:49827   */\n      tag_955\n        /* \"#utility.yul\":49824:49826   */\n      0x0f\n        /* \"#utility.yul\":49819:49822   */\n      dup4\n        /* \"#utility.yul\":49760:49827   */\n      tag_438\n      jump\t// in\n    tag_955:\n        /* \"#utility.yul\":49753:49827   */\n      swap2\n      pop\n        /* \"#utility.yul\":49836:49929   */\n      tag_956\n        /* \"#utility.yul\":49925:49928   */\n      dup3\n        /* \"#utility.yul\":49836:49929   */\n      tag_509\n      jump\t// in\n    tag_956:\n        /* \"#utility.yul\":49954:49956   */\n      0x20\n        /* \"#utility.yul\":49949:49952   */\n      dup3\n        /* \"#utility.yul\":49945:49957   */\n      add\n        /* \"#utility.yul\":49938:49957   */\n      swap1\n      pop\n        /* \"#utility.yul\":49597:49963   */\n      swap2\n      swap1\n      pop\n      jump\t// out\n        /* \"#utility.yul\":49969:50388   */\n    tag_329:\n        /* \"#utility.yul\":50135:50139   */\n      0x00\n        /* \"#utility.yul\":50173:50175   */\n      0x20\n        /* \"#utility.yul\":50162:50171   */\n      dup3\n        /* \"#utility.yul\":50158:50176   */\n      add\n        /* \"#utility.yul\":50150:50176   */\n      swap1\n      pop\n        /* \"#utility.yul\":50222:50231   */\n      dup2\n        /* \"#utility.yul\":50216:50220   */\n      dup2\n        /* \"#utility.yul\":50212:50232   */\n      sub\n        /* \"#utility.yul\":50208:50209   */\n      0x00\n        /* \"#utility.yul\":50197:50206   */\n      dup4\n        /* \"#utility.yul\":50193:50210   */\n      add\n        /* \"#utility.yul\":50186:50233   */\n      mstore\n        /* \"#utility.yul\":50250:50381   */\n      tag_958\n        /* \"#utility.yul\":50376:50380   */\n      dup2\n        /* \"#utility.yul\":50250:50381   */\n      tag_510\n      jump\t// in\n    tag_958:\n        /* \"#utility.yul\":50242:50381   */\n      swap1\n      pop\n        /* \"#utility.yul\":49969:50388   */\n      swap2\n      swap1\n      pop\n      jump\t// out\n        /* \"#utility.yul\":50394:50574   */\n    tag_511:\n        /* \"#utility.yul\":50534:50566   */\n      0x5061727469636970616e7420616c726561647920617574686f72697a65640000\n        /* \"#utility.yul\":50530:50531   */\n      0x00\n        /* \"#utility.yul\":50522:50528   */\n      dup3\n        /* \"#utility.yul\":50518:50532   */\n      add\n        /* \"#utility.yul\":50511:50567   */\n      mstore\n        /* \"#utility.yul\":50394:50574   */\n      pop\n      jump\t// out\n        /* \"#utility.yul\":50580:50946   */\n    tag_512:\n        /* \"#utility.yul\":50722:50725   */\n      0x00\n        /* \"#utility.yul\":50743:50810   */\n      tag_961\n        /* \"#utility.yul\":50807:50809   */\n      0x1e\n        /* \"#utility.yul\":50802:50805   */\n      dup4\n        /* \"#utility.yul\":50743:50810   */\n      tag_438\n      jump\t// in\n    tag_961:\n        /* \"#utility.yul\":50736:50810   */\n      swap2\n      pop\n        /* \"#utility.yul\":50819:50912   */\n      tag_962\n        /* \"#utility.yul\":50908:50911   */\n      dup3\n        /* \"#utility.yul\":50819:50912   */\n      tag_511\n      jump\t// in\n    tag_962:\n        /* \"#utility.yul\":50937:50939   */\n      0x20\n        /* \"#utility.yul\":50932:50935   */\n      dup3\n        /* \"#utility.yul\":50928:50940   */\n      add\n        /* \"#utility.yul\":50921:50940   */\n      swap1\n      pop\n        /* \"#utility.yul\":50580:50946   */\n      swap2\n      swap1\n      pop\n      jump\t// out\n        /* \"#utility.yul\":50952:51371   */\n    tag_332:\n        /* \"#utility.yul\":51118:51122   */\n      0x00\n        /* \"#utility.yul\":51156:51158   */\n      0x20\n        /* \"#utility.yul\":51145:51154   */\n      dup3\n        /* \"#utility.yul\":51141:51159   */\n      add\n        /* \"#utility.yul\":51133:51159   */\n      swap1\n      pop\n        /* \"#utility.yul\":51205:51214   */\n      dup2\n        /* \"#utility.yul\":51199:51203   */\n      dup2\n        /* \"#utility.yul\":51195:51215   */\n      sub\n        /* \"#utility.yul\":51191:51192   */\n      0x00\n        /* \"#utility.yul\":51180:51189   */\n      dup4\n        /* \"#utility.yul\":51176:51193   */\n      add\n        /* \"#utility.yul\":51169:51216   */\n      mstore\n        /* \"#utility.yul\":51233:51364   */\n      tag_964\n        /* \"#utility.yul\":51359:51363   */\n      dup2\n        /* \"#utility.yul\":51233:51364   */\n      tag_512\n      jump\t// in\n    tag_964:\n        /* \"#utility.yul\":51225:51364   */\n      swap1\n      pop\n        /* \"#utility.yul\":50952:51371   */\n      swap2\n      swap1\n      pop\n      jump\t// out\n        /* \"#utility.yul\":51377:51604   */\n    tag_513:\n        /* \"#utility.yul\":51517:51551   */\n      0x466f7220726567697374657242617463682c204944206c697374206d75737420\n        /* \"#utility.yul\":51513:51514   */\n      0x00\n        /* \"#utility.yul\":51505:51511   */\n      dup3\n        /* \"#utility.yul\":51501:51515   */\n      add\n        /* \"#utility.yul\":51494:51552   */\n      mstore\n        /* \"#utility.yul\":51586:51596   */\n      0x626520656d707479000000000000000000000000000000000000000000000000\n        /* \"#utility.yul\":51581:51583   */\n      0x20\n        /* \"#utility.yul\":51573:51579   */\n      dup3\n        /* \"#utility.yul\":51569:51584   */\n      add\n        /* \"#utility.yul\":51562:51597   */\n      mstore\n        /* \"#utility.yul\":51377:51604   */\n      pop\n      jump\t// out\n        /* \"#utility.yul\":51610:51976   */\n    tag_514:\n        /* \"#utility.yul\":51752:51755   */\n      0x00\n        /* \"#utility.yul\":51773:51840   */\n      tag_967\n        /* \"#utility.yul\":51837:51839   */\n      0x28\n        /* \"#utility.yul\":51832:51835   */\n      dup4\n        /* \"#utility.yul\":51773:51840   */\n      tag_438\n      jump\t// in\n    tag_967:\n        /* \"#utility.yul\":51766:51840   */\n      swap2\n      pop\n        /* \"#utility.yul\":51849:51942   */\n      tag_968\n        /* \"#utility.yul\":51938:51941   */\n      dup3\n        /* \"#utility.yul\":51849:51942   */\n      tag_513\n      jump\t// in\n    tag_968:\n        /* \"#utility.yul\":51967:51969   */\n      0x40\n        /* \"#utility.yul\":51962:51965   */\n      dup3\n        /* \"#utility.yul\":51958:51970   */\n      add\n        /* \"#utility.yul\":51951:51970   */\n      swap1\n      pop\n        /* \"#utility.yul\":51610:51976   */\n      swap2\n      swap1\n      pop\n      jump\t// out\n        /* \"#utility.yul\":51982:52401   */\n    tag_352:\n        /* \"#utility.yul\":52148:52152   */\n      0x00\n        /* \"#utility.yul\":52186:52188   */\n      0x20\n        /* \"#utility.yul\":52175:52184   */\n      dup3\n        /* \"#utility.yul\":52171:52189   */\n      add\n        /* \"#utility.yul\":52163:52189   */\n      swap1\n      pop\n        /* \"#utility.yul\":52235:52244   */\n      dup2\n        /* \"#utility.yul\":52229:52233   */\n      dup2\n        /* \"#utility.yul\":52225:52245   */\n      sub\n        /* \"#utility.yul\":52221:52222   */\n      0x00\n        /* \"#utility.yul\":52210:52219   */\n      dup4\n        /* \"#utility.yul\":52206:52223   */\n      add\n        /* \"#utility.yul\":52199:52246   */\n      mstore\n        /* \"#utility.yul\":52263:52394   */\n      tag_970\n        /* \"#utility.yul\":52389:52393   */\n      dup2\n        /* \"#utility.yul\":52263:52394   */\n      tag_514\n      jump\t// in\n    tag_970:\n        /* \"#utility.yul\":52255:52394   */\n      swap1\n      pop\n        /* \"#utility.yul\":51982:52401   */\n      swap2\n      swap1\n      pop\n      jump\t// out\n        /* \"#utility.yul\":52407:52641   */\n    tag_515:\n        /* \"#utility.yul\":52547:52581   */\n      0x4e616d6520616e64206465736372697074696f6e206c69737473206d75737420\n        /* \"#utility.yul\":52543:52544   */\n      0x00\n        /* \"#utility.yul\":52535:52541   */\n      dup3\n        /* \"#utility.yul\":52531:52545   */\n      add\n        /* \"#utility.yul\":52524:52582   */\n      mstore\n        /* \"#utility.yul\":52616:52633   */\n      0x6d6174636820696e206c656e6774680000000000000000000000000000000000\n        /* \"#utility.yul\":52611:52613   */\n      0x20\n        /* \"#utility.yul\":52603:52609   */\n      dup3\n        /* \"#utility.yul\":52599:52614   */\n      add\n        /* \"#utility.yul\":52592:52634   */\n      mstore\n        /* \"#utility.yul\":52407:52641   */\n      pop\n      jump\t// out\n        /* \"#utility.yul\":52647:53013   */\n    tag_516:\n        /* \"#utility.yul\":52789:52792   */\n      0x00\n        /* \"#utility.yul\":52810:52877   */\n      tag_973\n        /* \"#utility.yul\":52874:52876   */\n      0x2f\n        /* \"#utility.yul\":52869:52872   */\n      dup4\n        /* \"#utility.yul\":52810:52877   */\n      tag_438\n      jump\t// in\n    tag_973:\n        /* \"#utility.yul\":52803:52877   */\n      swap2\n      pop\n        /* \"#utility.yul\":52886:52979   */\n      tag_974\n        /* \"#utility.yul\":52975:52978   */\n      dup3\n        /* \"#utility.yul\":52886:52979   */\n      tag_515\n      jump\t// in\n    tag_974:\n        /* \"#utility.yul\":53004:53006   */\n      0x40\n        /* \"#utility.yul\":52999:53002   */\n      dup3\n        /* \"#utility.yul\":52995:53007   */\n      add\n        /* \"#utility.yul\":52988:53007   */\n      swap1\n      pop\n        /* \"#utility.yul\":52647:53013   */\n      swap2\n      swap1\n      pop\n      jump\t// out\n        /* \"#utility.yul\":53019:53438   */\n    tag_355:\n        /* \"#utility.yul\":53185:53189   */\n      0x00\n        /* \"#utility.yul\":53223:53225   */\n      0x20\n        /* \"#utility.yul\":53212:53221   */\n      dup3\n        /* \"#utility.yul\":53208:53226   */\n      add\n        /* \"#utility.yul\":53200:53226   */\n      swap1\n      pop\n        /* \"#utility.yul\":53272:53281   */\n      dup2\n        /* \"#utility.yul\":53266:53270   */\n      dup2\n        /* \"#utility.yul\":53262:53282   */\n      sub\n        /* \"#utility.yul\":53258:53259   */\n      0x00\n        /* \"#utility.yul\":53247:53256   */\n      dup4\n        /* \"#utility.yul\":53243:53260   */\n      add\n        /* \"#utility.yul\":53236:53283   */\n      mstore\n        /* \"#utility.yul\":53300:53431   */\n      tag_976\n        /* \"#utility.yul\":53426:53430   */\n      dup2\n        /* \"#utility.yul\":53300:53431   */\n      tag_516\n      jump\t// in\n    tag_976:\n        /* \"#utility.yul\":53292:53431   */\n      swap1\n      pop\n        /* \"#utility.yul\":53019:53438   */\n      swap2\n      swap1\n      pop\n      jump\t// out\n        /* \"#utility.yul\":53444:53682   */\n    tag_517:\n        /* \"#utility.yul\":53584:53618   */\n      0x4944206c6973742063616e6e6f7420626520656d70747920666f72206e6f6e2d\n        /* \"#utility.yul\":53580:53581   */\n      0x00\n        /* \"#utility.yul\":53572:53578   */\n      dup3\n        /* \"#utility.yul\":53568:53582   */\n      add\n        /* \"#utility.yul\":53561:53619   */\n      mstore\n        /* \"#utility.yul\":53653:53674   */\n      0x7265676973746572206f7065726174696f6e7300000000000000000000000000\n        /* \"#utility.yul\":53648:53650   */\n      0x20\n        /* \"#utility.yul\":53640:53646   */\n      dup3\n        /* \"#utility.yul\":53636:53651   */\n      add\n        /* \"#utility.yul\":53629:53675   */\n      mstore\n        /* \"#utility.yul\":53444:53682   */\n      pop\n      jump\t// out\n        /* \"#utility.yul\":53688:54054   */\n    tag_518:\n        /* \"#utility.yul\":53830:53833   */\n      0x00\n        /* \"#utility.yul\":53851:53918   */\n      tag_979\n        /* \"#utility.yul\":53915:53917   */\n      0x33\n        /* \"#utility.yul\":53910:53913   */\n      dup4\n        /* \"#utility.yul\":53851:53918   */\n      tag_438\n      jump\t// in\n    tag_979:\n        /* \"#utility.yul\":53844:53918   */\n      swap2\n      pop\n        /* \"#utility.yul\":53927:54020   */\n      tag_980\n        /* \"#utility.yul\":54016:54019   */\n      dup3\n        /* \"#utility.yul\":53927:54020   */\n      tag_517\n      jump\t// in\n    tag_980:\n        /* \"#utility.yul\":54045:54047   */\n      0x40\n        /* \"#utility.yul\":54040:54043   */\n      dup3\n        /* \"#utility.yul\":54036:54048   */\n      add\n        /* \"#utility.yul\":54029:54048   */\n      swap1\n      pop\n        /* \"#utility.yul\":53688:54054   */\n      swap2\n      swap1\n      pop\n      jump\t// out\n        /* \"#utility.yul\":54060:54479   */\n    tag_359:\n        /* \"#utility.yul\":54226:54230   */\n      0x00\n        /* \"#utility.yul\":54264:54266   */\n      0x20\n        /* \"#utility.yul\":54253:54262   */\n      dup3\n        /* \"#utility.yul\":54249:54267   */\n      add\n        /* \"#utility.yul\":54241:54267   */\n      swap1\n      pop\n        /* \"#utility.yul\":54313:54322   */\n      dup2\n        /* \"#utility.yul\":54307:54311   */\n      dup2\n        /* \"#utility.yul\":54303:54323   */\n      sub\n        /* \"#utility.yul\":54299:54300   */\n      0x00\n        /* \"#utility.yul\":54288:54297   */\n      dup4\n        /* \"#utility.yul\":54284:54301   */\n      add\n        /* \"#utility.yul\":54277:54324   */\n      mstore\n        /* \"#utility.yul\":54341:54472   */\n      tag_982\n        /* \"#utility.yul\":54467:54471   */\n      dup2\n        /* \"#utility.yul\":54341:54472   */\n      tag_518\n      jump\t// in\n    tag_982:\n        /* \"#utility.yul\":54333:54472   */\n      swap1\n      pop\n        /* \"#utility.yul\":54060:54479   */\n      swap2\n      swap1\n      pop\n      jump\t// out\n        /* \"#utility.yul\":54485:54710   */\n    tag_519:\n        /* \"#utility.yul\":54625:54659   */\n      0x494420616e64206e616d65206c69737473206d757374206d6174636820696e20\n        /* \"#utility.yul\":54621:54622   */\n      0x00\n        /* \"#utility.yul\":54613:54619   */\n      dup3\n        /* \"#utility.yul\":54609:54623   */\n      add\n        /* \"#utility.yul\":54602:54660   */\n      mstore\n        /* \"#utility.yul\":54694:54702   */\n      0x6c656e6774680000000000000000000000000000000000000000000000000000\n        /* \"#utility.yul\":54689:54691   */\n      0x20\n        /* \"#utility.yul\":54681:54687   */\n      dup3\n        /* \"#utility.yul\":54677:54692   */\n      add\n        /* \"#utility.yul\":54670:54703   */\n      mstore\n        /* \"#utility.yul\":54485:54710   */\n      pop\n      jump\t// out\n        /* \"#utility.yul\":54716:55082   */\n    tag_520:\n        /* \"#utility.yul\":54858:54861   */\n      0x00\n        /* \"#utility.yul\":54879:54946   */\n      tag_985\n        /* \"#utility.yul\":54943:54945   */\n      0x26\n        /* \"#utility.yul\":54938:54941   */\n      dup4\n        /* \"#utility.yul\":54879:54946   */\n      tag_438\n      jump\t// in\n    tag_985:\n        /* \"#utility.yul\":54872:54946   */\n      swap2\n      pop\n        /* \"#utility.yul\":54955:55048   */\n      tag_986\n        /* \"#utility.yul\":55044:55047   */\n      dup3\n        /* \"#utility.yul\":54955:55048   */\n      tag_519\n      jump\t// in\n    tag_986:\n        /* \"#utility.yul\":55073:55075   */\n      0x40\n        /* \"#utility.yul\":55068:55071   */\n      dup3\n        /* \"#utility.yul\":55064:55076   */\n      add\n        /* \"#utility.yul\":55057:55076   */\n      swap1\n      pop\n        /* \"#utility.yul\":54716:55082   */\n      swap2\n      swap1\n      pop\n      jump\t// out\n        /* \"#utility.yul\":55088:55507   */\n    tag_362:\n        /* \"#utility.yul\":55254:55258   */\n      0x00\n        /* \"#utility.yul\":55292:55294   */\n      0x20\n        /* \"#utility.yul\":55281:55290   */\n      dup3\n        /* \"#utility.yul\":55277:55295   */\n      add\n        /* \"#utility.yul\":55269:55295   */\n      swap1\n      pop\n        /* \"#utility.yul\":55341:55350   */\n      dup2\n        /* \"#utility.yul\":55335:55339   */\n      dup2\n        /* \"#utility.yul\":55331:55351   */\n      sub\n        /* \"#utility.yul\":55327:55328   */\n      0x00\n        /* \"#utility.yul\":55316:55325   */\n      dup4\n        /* \"#utility.yul\":55312:55329   */\n      add\n        /* \"#utility.yul\":55305:55352   */\n      mstore\n        /* \"#utility.yul\":55369:55500   */\n      tag_988\n        /* \"#utility.yul\":55495:55499   */\n      dup2\n        /* \"#utility.yul\":55369:55500   */\n      tag_520\n      jump\t// in\n    tag_988:\n        /* \"#utility.yul\":55361:55500   */\n      swap1\n      pop\n        /* \"#utility.yul\":55088:55507   */\n      swap2\n      swap1\n      pop\n      jump\t// out\n        /* \"#utility.yul\":55513:55745   */\n    tag_521:\n        /* \"#utility.yul\":55653:55687   */\n      0x494420616e64206465736372697074696f6e206c69737473206d757374206d61\n        /* \"#utility.yul\":55649:55650   */\n      0x00\n        /* \"#utility.yul\":55641:55647   */\n      dup3\n        /* \"#utility.yul\":55637:55651   */\n      add\n        /* \"#utility.yul\":55630:55688   */\n      mstore\n        /* \"#utility.yul\":55722:55737   */\n      0x74636820696e206c656e67746800000000000000000000000000000000000000\n        /* \"#utility.yul\":55717:55719   */\n      0x20\n        /* \"#utility.yul\":55709:55715   */\n      dup3\n        /* \"#utility.yul\":55705:55720   */\n      add\n        /* \"#utility.yul\":55698:55738   */\n      mstore\n        /* \"#utility.yul\":55513:55745   */\n      pop\n      jump\t// out\n        /* \"#utility.yul\":55751:56117   */\n    tag_522:\n        /* \"#utility.yul\":55893:55896   */\n      0x00\n        /* \"#utility.yul\":55914:55981   */\n      tag_991\n        /* \"#utility.yul\":55978:55980   */\n      0x2d\n        /* \"#utility.yul\":55973:55976   */\n      dup4\n        /* \"#utility.yul\":55914:55981   */\n      tag_438\n      jump\t// in\n    tag_991:\n        /* \"#utility.yul\":55907:55981   */\n      swap2\n      pop\n        /* \"#utility.yul\":55990:56083   */\n      tag_992\n        /* \"#utility.yul\":56079:56082   */\n      dup3\n        /* \"#utility.yul\":55990:56083   */\n      tag_521\n      jump\t// in\n    tag_992:\n        /* \"#utility.yul\":56108:56110   */\n      0x40\n        /* \"#utility.yul\":56103:56106   */\n      dup3\n        /* \"#utility.yul\":56099:56111   */\n      add\n        /* \"#utility.yul\":56092:56111   */\n      swap1\n      pop\n        /* \"#utility.yul\":55751:56117   */\n      swap2\n      swap1\n      pop\n      jump\t// out\n        /* \"#utility.yul\":56123:56542   */\n    tag_365:\n        /* \"#utility.yul\":56289:56293   */\n      0x00\n        /* \"#utility.yul\":56327:56329   */\n      0x20\n        /* \"#utility.yul\":56316:56325   */\n      dup3\n        /* \"#utility.yul\":56312:56330   */\n      add\n        /* \"#utility.yul\":56304:56330   */\n      swap1\n      pop\n        /* \"#utility.yul\":56376:56385   */\n      dup2\n        /* \"#utility.yul\":56370:56374   */\n      dup2\n        /* \"#utility.yul\":56366:56386   */\n      sub\n        /* \"#utility.yul\":56362:56363   */\n      0x00\n        /* \"#utility.yul\":56351:56360   */\n      dup4\n        /* \"#utility.yul\":56347:56364   */\n      add\n        /* \"#utility.yul\":56340:56387   */\n      mstore\n        /* \"#utility.yul\":56404:56535   */\n      tag_994\n        /* \"#utility.yul\":56530:56534   */\n      dup2\n        /* \"#utility.yul\":56404:56535   */\n      tag_522\n      jump\t// in\n    tag_994:\n        /* \"#utility.yul\":56396:56535   */\n      swap1\n      pop\n        /* \"#utility.yul\":56123:56542   */\n      swap2\n      swap1\n      pop\n      jump\t// out\n        /* \"#utility.yul\":56548:56723   */\n    tag_523:\n        /* \"#utility.yul\":56688:56715   */\n      0x4e616d65206c6973742063616e6e6f7420626520656d70747900000000000000\n        /* \"#utility.yul\":56684:56685   */\n      0x00\n        /* \"#utility.yul\":56676:56682   */\n      dup3\n        /* \"#utility.yul\":56672:56686   */\n      add\n        /* \"#utility.yul\":56665:56716   */\n      mstore\n        /* \"#utility.yul\":56548:56723   */\n      pop\n      jump\t// out\n        /* \"#utility.yul\":56729:57095   */\n    tag_524:\n        /* \"#utility.yul\":56871:56874   */\n      0x00\n        /* \"#utility.yul\":56892:56959   */\n      tag_997\n        /* \"#utility.yul\":56956:56958   */\n      0x19\n        /* \"#utility.yul\":56951:56954   */\n      dup4\n        /* \"#utility.yul\":56892:56959   */\n      tag_438\n      jump\t// in\n    tag_997:\n        /* \"#utility.yul\":56885:56959   */\n      swap2\n      pop\n        /* \"#utility.yul\":56968:57061   */\n      tag_998\n        /* \"#utility.yul\":57057:57060   */\n      dup3\n        /* \"#utility.yul\":56968:57061   */\n      tag_523\n      jump\t// in\n    tag_998:\n        /* \"#utility.yul\":57086:57088   */\n      0x20\n        /* \"#utility.yul\":57081:57084   */\n      dup3\n        /* \"#utility.yul\":57077:57089   */\n      add\n        /* \"#utility.yul\":57070:57089   */\n      swap1\n      pop\n        /* \"#utility.yul\":56729:57095   */\n      swap2\n      swap1\n      pop\n      jump\t// out\n        /* \"#utility.yul\":57101:57520   */\n    tag_368:\n        /* \"#utility.yul\":57267:57271   */\n      0x00\n        /* \"#utility.yul\":57305:57307   */\n      0x20\n        /* \"#utility.yul\":57294:57303   */\n      dup3\n        /* \"#utility.yul\":57290:57308   */\n      add\n        /* \"#utility.yul\":57282:57308   */\n      swap1\n      pop\n        /* \"#utility.yul\":57354:57363   */\n      dup2\n        /* \"#utility.yul\":57348:57352   */\n      dup2\n        /* \"#utility.yul\":57344:57364   */\n      sub\n        /* \"#utility.yul\":57340:57341   */\n      0x00\n        /* \"#utility.yul\":57329:57338   */\n      dup4\n        /* \"#utility.yul\":57325:57342   */\n      add\n        /* \"#utility.yul\":57318:57365   */\n      mstore\n        /* \"#utility.yul\":57382:57513   */\n      tag_1000\n        /* \"#utility.yul\":57508:57512   */\n      dup2\n        /* \"#utility.yul\":57382:57513   */\n      tag_524\n      jump\t// in\n    tag_1000:\n        /* \"#utility.yul\":57374:57513   */\n      swap1\n      pop\n        /* \"#utility.yul\":57101:57520   */\n      swap2\n      swap1\n      pop\n      jump\t// out\n        /* \"#utility.yul\":57526:57708   */\n    tag_525:\n        /* \"#utility.yul\":57666:57700   */\n      0x4465736372697074696f6e206c6973742063616e6e6f7420626520656d707479\n        /* \"#utility.yul\":57662:57663   */\n      0x00\n        /* \"#utility.yul\":57654:57660   */\n      dup3\n        /* \"#utility.yul\":57650:57664   */\n      add\n        /* \"#utility.yul\":57643:57701   */\n      mstore\n        /* \"#utility.yul\":57526:57708   */\n      pop\n      jump\t// out\n        /* \"#utility.yul\":57714:58080   */\n    tag_526:\n        /* \"#utility.yul\":57856:57859   */\n      0x00\n        /* \"#utility.yul\":57877:57944   */\n      tag_1003\n        /* \"#utility.yul\":57941:57943   */\n      0x20\n        /* \"#utility.yul\":57936:57939   */\n      dup4\n        /* \"#utility.yul\":57877:57944   */\n      tag_438\n      jump\t// in\n    tag_1003:\n        /* \"#utility.yul\":57870:57944   */\n      swap2\n      pop\n        /* \"#utility.yul\":57953:58046   */\n      tag_1004\n        /* \"#utility.yul\":58042:58045   */\n      dup3\n        /* \"#utility.yul\":57953:58046   */\n      tag_525\n      jump\t// in\n    tag_1004:\n        /* \"#utility.yul\":58071:58073   */\n      0x20\n        /* \"#utility.yul\":58066:58069   */\n      dup3\n        /* \"#utility.yul\":58062:58074   */\n      add\n        /* \"#utility.yul\":58055:58074   */\n      swap1\n      pop\n        /* \"#utility.yul\":57714:58080   */\n      swap2\n      swap1\n      pop\n      jump\t// out\n        /* \"#utility.yul\":58086:58505   */\n    tag_371:\n        /* \"#utility.yul\":58252:58256   */\n      0x00\n        /* \"#utility.yul\":58290:58292   */\n      0x20\n        /* \"#utility.yul\":58279:58288   */\n      dup3\n        /* \"#utility.yul\":58275:58293   */\n      add\n        /* \"#utility.yul\":58267:58293   */\n      swap1\n      pop\n        /* \"#utility.yul\":58339:58348   */\n      dup2\n        /* \"#utility.yul\":58333:58337   */\n      dup2\n        /* \"#utility.yul\":58329:58349   */\n      sub\n        /* \"#utility.yul\":58325:58326   */\n      0x00\n        /* \"#utility.yul\":58314:58323   */\n      dup4\n        /* \"#utility.yul\":58310:58327   */\n      add\n        /* \"#utility.yul\":58303:58350   */\n      mstore\n        /* \"#utility.yul\":58367:58498   */\n      tag_1006\n        /* \"#utility.yul\":58493:58497   */\n      dup2\n        /* \"#utility.yul\":58367:58498   */\n      tag_526\n      jump\t// in\n    tag_1006:\n        /* \"#utility.yul\":58359:58498   */\n      swap1\n      pop\n        /* \"#utility.yul\":58086:58505   */\n      swap2\n      swap1\n      pop\n      jump\t// out\n\n    auxdata: 0xa2646970667358221220410859914e1e62f4a127edfe1ad8cee6045a4ff8c5468b73c4bf913c8deea5fc64736f6c634300081a0033\n}\n",
				"bytecode": {
					"linkReferences": {},
					"object": "608060405234801561000f575f80fd5b50335f806101000a81548173ffffffffffffffffffffffffffffffffffffffff021916908373ffffffffffffffffffffffffffffffffffffffff1602179055505f6001819055505f600281905550600160035f3373ffffffffffffffffffffffffffffffffffffffff1673ffffffffffffffffffffffffffffffffffffffff1681526020019081526020015f205f6101000a81548160ff0219169083151502179055503373ffffffffffffffffffffffffffffffffffffffff167f3cbcbb9ba5a54d0762f39fd455fd2900fbcfcd0e0693e2c87db13043c400b55f60405160405180910390a2614492806101025f395ff3fe608060405234801561000f575f80fd5b506004361061012a575f3560e01c80639ce0f973116100ab578063c5f8d5841161006f578063c5f8d5841461038a578063cf9cd669146103a6578063dfafe10f146103d6578063e0f6ef87146103f2578063f5f34413146104105761012a565b80639ce0f973146102a65780639ffaa71e146102c2578063af55ed64146102f2578063b32c4d8d14610322578063b9db15b4146103565761012a565b806386734e5b116100f257806386734e5b1461020457806386b0e812146102205780638d28230b1461023c5780638da5cb5b1461026c5780638fbd0dcf1461028a5761012a565b8063043414221461012e57806306f130561461014a5780633c9af587146101685780635ac44282146101985780637acc0b20146101cf575b5f80fd5b61014860048036038101906101439190612a0b565b61042c565b005b6101526105c8565b60405161015f9190612a74565b60405180910390f35b610182600480360381019061017d9190612a8d565b6105ce565b60405161018f9190612ad2565b60405180910390f35b6101b260048036038101906101ad9190612a8d565b6107e5565b6040516101c6989796959493929190612d44565b60405180910390f35b6101e960048036038101906101e49190612a8d565b610b63565b6040516101fb96959493929190612ddc565b60405180910390f35b61021e60048036038101906102199190612e73565b610cd2565b005b61023a60048036038101906102359190612f0f565b6113fd565b005b61025660048036038101906102519190612f4d565b6117d1565b6040516102639190612ad2565b60405180910390f35b6102746117ee565b6040516102819190612f78565b60405180910390f35b6102a4600480360381019061029f9190612f91565b611811565b005b6102c060048036038101906102bb9190612a0b565b611a3e565b005b6102dc60048036038101906102d79190612a8d565b611bd8565b6040516102e99190612ad2565b60405180910390f35b61030c60048036038101906103079190612a8d565b611c06565b6040516103199190612ad2565b60405180910390f35b61033c60048036038101906103379190612a8d565b611c57565b60405161034d959493929190613007565b60405180910390f35b610370600480360381019061036b9190612a8d565b611d3b565b60405161038195949392919061305f565b60405180910390f35b6103a4600480360381019061039f9190612f4d565b611f2e565b005b6103c060048036038101906103bb9190612a8d565b61214e565b6040516103cd91906130b7565b60405180910390f35b6103f060048036038101906103eb9190612f4d565b612225565b005b6103fa61230a565b6040516104079190612a74565b60405180910390f35b61042a60048036038101906104259190613279565b612310565b005b60035f3373ffffffffffffffffffffffffffffffffffffffff1673ffffffffffffffffffffffffffffffffffffffff1681526020019081526020015f205f9054906101000a900460ff166104b5576040517f08c379a00000000000000000000000000000000000000000000000000000000081526004016104ac90613397565b60405180910390fd5b6104be82611bd8565b6104fd576040517f08c379a00000000000000000000000000000000000000000000000000000000081526004016104f4906133ff565b60405180910390fd5b5f60055f8481526020019081526020015f209050806005015f9054906101000a900460ff1615610562576040517f08c379a000000000000000000000000000000000000000000000000000000000815260040161055990613467565b60405180910390fd5b5f5b815f01805490508110156105a657610599825f01828154811061058a57610589613485565b5b905f5260205f20015484611a3e565b8080600101915050610564565b506001816005015f6101000a81548160ff021916908315150217905550505050565b60025481565b5f6105d882611c06565b610617576040517f08c379a000000000000000000000000000000000000000000000000000000000815260040161060e906134fc565b60405180910390fd5b5f60045f8481526020019081526020015f206040518060c00160405290815f820154815260200160018201805461064d90613547565b80601f016020809104026020016040519081016040528092919081815260200182805461067990613547565b80156106c45780601f1061069b576101008083540402835291602001916106c4565b820191905f5260205f20905b8154815290600101906020018083116106a757829003601f168201915b505050505081526020016002820180546106dd90613547565b80601f016020809104026020016040519081016040528092919081815260200182805461070990613547565b80156107545780601f1061072b57610100808354040283529160200191610754565b820191905f5260205f20905b81548152906001019060200180831161073757829003601f168201915b50505050508152602001600382015f9054906101000a900473ffffffffffffffffffffffffffffffffffffffff1673ffffffffffffffffffffffffffffffffffffffff1673ffffffffffffffffffffffffffffffffffffffff16815260200160048201548152602001600582015f9054906101000a900460ff16151515158152505090508060a00151915050919050565b60608060605f805f8060605f60055f8b81526020019081526020015f20604051806101000160405290815f820180548060200260200160405190810160405280929190818152602001828054801561085a57602002820191905f5260205f20905b815481526020019060010190808311610846575b5050505050815260200160018201805480602002602001604051908101604052809291908181526020015f905b8282101561092f578382905f5260205f200180546108a490613547565b80601f01602080910402602001604051908101604052809291908181526020018280546108d090613547565b801561091b5780601f106108f25761010080835404028352916020019161091b565b820191905f5260205f20905b8154815290600101906020018083116108fe57829003601f168201915b505050505081526020019060010190610887565b50505050815260200160028201805480602002602001604051908101604052809291908181526020015f905b82821015610a03578382905f5260205f2001805461097890613547565b80601f01602080910402602001604051908101604052809291908181526020018280546109a490613547565b80156109ef5780601f106109c6576101008083540402835291602001916109ef565b820191905f5260205f20905b8154815290600101906020018083116109d257829003601f168201915b50505050508152602001906001019061095b565b505050508152602001600382015f9054906101000a900473ffffffffffffffffffffffffffffffffffffffff1673ffffffffffffffffffffffffffffffffffffffff1673ffffffffffffffffffffffffffffffffffffffff16815260200160048201548152602001600582015f9054906101000a900460ff1615151515815260200160068201548152602001600782018054610a9e90613547565b80601f0160208091040260200160405190810160405280929190818152602001828054610aca90613547565b8015610b155780601f10610aec57610100808354040283529160200191610b15565b820191905f5260205f20905b815481529060010190602001808311610af857829003601f168201915b5050505050815250509050805f015181602001518260400151836060015184608001518560a001518660c001518760e001519850985098509850985098509850985050919395975091939597565b6004602052805f5260405f205f91509050805f015490806001018054610b8890613547565b80601f0160208091040260200160405190810160405280929190818152602001828054610bb490613547565b8015610bff5780601f10610bd657610100808354040283529160200191610bff565b820191905f5260205f20905b815481529060010190602001808311610be257829003601f168201915b505050505090806002018054610c1490613547565b80601f0160208091040260200160405190810160405280929190818152602001828054610c4090613547565b8015610c8b5780601f10610c6257610100808354040283529160200191610c8b565b820191905f5260205f20905b815481529060010190602001808311610c6e57829003601f168201915b505050505090806003015f9054906101000a900473ffffffffffffffffffffffffffffffffffffffff1690806004015490806005015f9054906101000a900460ff16905086565b60035f3373ffffffffffffffffffffffffffffffffffffffff1673ffffffffffffffffffffffffffffffffffffffff1681526020019081526020015f205f9054906101000a900460ff16610d5b576040517f08c379a0000000000000000000000000000000000000000000000000000000008152600401610d5290613397565b60405180910390fd5b5f60055f8681526020019081526020015f206006015403610db1576040517f08c379a0000000000000000000000000000000000000000000000000000000008152600401610da8906133ff565b60405180910390fd5b60055f8581526020019081526020015f206005015f9054906101000a900460ff1615610e12576040517f08c379a0000000000000000000000000000000000000000000000000000000008152600401610e09906135c1565b60405180910390fd5b604051602001610e2190613633565b6040516020818303038152906040528051906020012082604051602001610e489190613677565b604051602081830303815290604052805190602001200361121c575f60055f8681526020019081526020015f205f018054905014610ebb576040517f08c379a0000000000000000000000000000000000000000000000000000000008152600401610eb2906136fd565b60405180910390fd5b5f60055f8681526020019081526020015f206001018054905067ffffffffffffffff811115610eed57610eec6128e7565b5b604051908082528060200260200182016040528015610f1b5781602001602082028036833780820191505090505b5090505f5b60055f8781526020019081526020015f20600101805490508110156111ed5760015f815480929190610f5190613748565b9190505550600154828281518110610f6c57610f6b613485565b5b6020026020010181815250506040518060c00160405280600154815260200160055f8981526020019081526020015f206001018381548110610fb157610fb0613485565b5b905f5260205f20018054610fc490613547565b80601f0160208091040260200160405190810160405280929190818152602001828054610ff090613547565b801561103b5780601f106110125761010080835404028352916020019161103b565b820191905f5260205f20905b81548152906001019060200180831161101e57829003601f168201915b5050505050815260200160055f8981526020019081526020015f20600201838154811061106b5761106a613485565b5b905f5260205f2001805461107e90613547565b80601f01602080910402602001604051908101604052809291908181526020018280546110aa90613547565b80156110f55780601f106110cc576101008083540402835291602001916110f5565b820191905f5260205f20905b8154815290600101906020018083116110d857829003601f168201915b505050505081526020013373ffffffffffffffffffffffffffffffffffffffff1681526020014281526020015f151581525060045f60015481526020019081526020015f205f820151815f01556020820151816001019081611157919061392c565b50604082015181600201908161116d919061392c565b506060820151816003015f6101000a81548173ffffffffffffffffffffffffffffffffffffffff021916908373ffffffffffffffffffffffffffffffffffffffff1602179055506080820151816004015560a0820151816005015f6101000a81548160ff0219169083151502179055509050508080600101915050610f20565b508060055f8781526020019081526020015f205f01908051906020019061121592919061276e565b50506113ac565b60405160200161122b90613a45565b60405160208183030381529060405280519060200120826040516020016112529190613677565b60405160208183030381529060405280519060200120036112d7575f5b60055f8681526020019081526020015f205f01805490508110156112d1576112c460055f8781526020019081526020015f205f0182815481106112b5576112b4613485565b5b905f5260205f200154856113fd565b808060010191505061126f565b506113ab565b6040516020016112e690613aa3565b604051602081830303815290604052805190602001208260405160200161130d9190613677565b604051602081830303815290604052805190602001200361136f57611332848261042c565b837f8f8994662430cbb3a0b089f812f1c51f46ef020e2ccc019cee8988c3312b4a668260405161136291906130b7565b60405180910390a26113aa565b6040517f08c379a00000000000000000000000000000000000000000000000000000000081526004016113a190613b01565b60405180910390fd5b5b5b837f603489d1e5e10e7b7393a68b1707e0b98e7976704197482dc200a6b34674b54a60055f8781526020019081526020015f206007016040516113ef9190613ba0565b60405180910390a250505050565b60035f3373ffffffffffffffffffffffffffffffffffffffff1673ffffffffffffffffffffffffffffffffffffffff1681526020019081526020015f205f9054906101000a900460ff16611486576040517f08c379a000000000000000000000000000000000000000000000000000000000815260040161147d90613397565b60405180910390fd5b5f8211801561149757506001548211155b6114d6576040517f08c379a00000000000000000000000000000000000000000000000000000000081526004016114cd90613c0a565b60405180910390fd5b60045f8381526020019081526020015f206005015f9054906101000a900460ff1615611537576040517f08c379a000000000000000000000000000000000000000000000000000000000815260040161152e90613c98565b60405180910390fd5b5f73ffffffffffffffffffffffffffffffffffffffff168173ffffffffffffffffffffffffffffffffffffffff16036115a5576040517f08c379a000000000000000000000000000000000000000000000000000000000815260040161159c90613d00565b60405180910390fd5b60035f8273ffffffffffffffffffffffffffffffffffffffff1673ffffffffffffffffffffffffffffffffffffffff1681526020019081526020015f205f9054906101000a900460ff1661162e576040517f08c379a000000000000000000000000000000000000000000000000000000000815260040161162590613d68565b60405180910390fd5b3373ffffffffffffffffffffffffffffffffffffffff1660045f8481526020019081526020015f206003015f9054906101000a900473ffffffffffffffffffffffffffffffffffffffff1673ffffffffffffffffffffffffffffffffffffffff16146116cf576040517f08c379a00000000000000000000000000000000000000000000000000000000081526004016116c690613dd0565b60405180910390fd5b5f60045f8481526020019081526020015f206003015f9054906101000a900473ffffffffffffffffffffffffffffffffffffffff1690508160045f8581526020019081526020015f206003015f6101000a81548173ffffffffffffffffffffffffffffffffffffffff021916908373ffffffffffffffffffffffffffffffffffffffff1602179055504260045f8581526020019081526020015f20600401819055508173ffffffffffffffffffffffffffffffffffffffff168173ffffffffffffffffffffffffffffffffffffffff16847f16b85f49bf01212961345d3016c9a531894accf62eb7680f2045d79185cc0ec060405160405180910390a4505050565b6003602052805f5260405f205f915054906101000a900460ff1681565b5f8054906101000a900473ffffffffffffffffffffffffffffffffffffffff1681565b60035f3373ffffffffffffffffffffffffffffffffffffffff1673ffffffffffffffffffffffffffffffffffffffff1681526020019081526020015f205f9054906101000a900460ff1661189a576040517f08c379a000000000000000000000000000000000000000000000000000000000815260040161189190613397565b60405180910390fd5b5f8251116118dd576040517f08c379a00000000000000000000000000000000000000000000000000000000081526004016118d490613e38565b60405180910390fd5b5f815111611920576040517f08c379a000000000000000000000000000000000000000000000000000000000815260040161191790613ea0565b60405180910390fd5b60015f81548092919061193290613748565b91905055505f60015490506040518060c001604052808281526020018481526020018381526020013373ffffffffffffffffffffffffffffffffffffffff1681526020014281526020015f151581525060045f8381526020019081526020015f205f820151815f015560208201518160010190816119b0919061392c565b5060408201518160020190816119c6919061392c565b506060820151816003015f6101000a81548173ffffffffffffffffffffffffffffffffffffffff021916908373ffffffffffffffffffffffffffffffffffffffff1602179055506080820151816004015560a0820151816005015f6101000a81548160ff021916908315150217905550905050505050565b60035f3373ffffffffffffffffffffffffffffffffffffffff1673ffffffffffffffffffffffffffffffffffffffff1681526020019081526020015f205f9054906101000a900460ff16611ac7576040517f08c379a0000000000000000000000000000000000000000000000000000000008152600401611abe90613397565b60405180910390fd5b611ad082611c06565b611b0f576040517f08c379a0000000000000000000000000000000000000000000000000000000008152600401611b0690613f08565b60405180910390fd5b60045f8381526020019081526020015f206005015f9054906101000a900460ff1615611b70576040517f08c379a0000000000000000000000000000000000000000000000000000000008152600401611b6790613f70565b60405180910390fd5b600160045f8481526020019081526020015f206005015f6101000a81548160ff021916908315150217905550817fcf945375036ee1ff64a8885b9c36844ac503b07ad7b0b3b78d023eb0a4cc623c82604051611bcc91906130b7565b60405180910390a25050565b5f8060055f8481526020019081526020015f206006015414611bfd5760019050611c01565b5f90505b919050565b5f80600190505b6001548111611c4d578260045f8381526020019081526020015f205f015403611c3a576001915050611c52565b8080611c4590613748565b915050611c0d565b505f90505b919050565b6005602052805f5260405f205f91509050806003015f9054906101000a900473ffffffffffffffffffffffffffffffffffffffff1690806004015490806005015f9054906101000a900460ff1690806006015490806007018054611cba90613547565b80601f0160208091040260200160405190810160405280929190818152602001828054611ce690613547565b8015611d315780601f10611d0857610100808354040283529160200191611d31565b820191905f5260205f20905b815481529060010190602001808311611d1457829003601f168201915b5050505050905085565b5f60605f805f8060045f8881526020019081526020015f206040518060c00160405290815f8201548152602001600182018054611d7790613547565b80601f0160208091040260200160405190810160405280929190818152602001828054611da390613547565b8015611dee5780601f10611dc557610100808354040283529160200191611dee565b820191905f5260205f20905b815481529060010190602001808311611dd157829003601f168201915b50505050508152602001600282018054611e0790613547565b80601f0160208091040260200160405190810160405280929190818152602001828054611e3390613547565b8015611e7e5780601f10611e5557610100808354040283529160200191611e7e565b820191905f5260205f20905b815481529060010190602001808311611e6157829003601f168201915b50505050508152602001600382015f9054906101000a900473ffffffffffffffffffffffffffffffffffffffff1673ffffffffffffffffffffffffffffffffffffffff1673ffffffffffffffffffffffffffffffffffffffff16815260200160048201548152602001600582015f9054906101000a900460ff1615151515815250509050805f01518160200151826060015183608001518460a00151955095509550955095505091939590929450565b5f8054906101000a900473ffffffffffffffffffffffffffffffffffffffff1673ffffffffffffffffffffffffffffffffffffffff163373ffffffffffffffffffffffffffffffffffffffff1614611fbb576040517f08c379a0000000000000000000000000000000000000000000000000000000008152600401611fb290613fd8565b60405180910390fd5b5f73ffffffffffffffffffffffffffffffffffffffff168173ffffffffffffffffffffffffffffffffffffffff1603612029576040517f08c379a000000000000000000000000000000000000000000000000000000000815260040161202090614040565b60405180910390fd5b60035f8273ffffffffffffffffffffffffffffffffffffffff1673ffffffffffffffffffffffffffffffffffffffff1681526020019081526020015f205f9054906101000a900460ff16156120b3576040517f08c379a00000000000000000000000000000000000000000000000000000000081526004016120aa906140a8565b60405180910390fd5b600160035f8373ffffffffffffffffffffffffffffffffffffffff1673ffffffffffffffffffffffffffffffffffffffff1681526020019081526020015f205f6101000a81548160ff0219169083151502179055508073ffffffffffffffffffffffffffffffffffffffff167f3cbcbb9ba5a54d0762f39fd455fd2900fbcfcd0e0693e2c87db13043c400b55f60405160405180910390a250565b606060018203612195576040518060400160405280600e81526020017f72657367697374657242617463680000000000000000000000000000000000008152509050612220565b600282036121da576040518060400160405280600d81526020017f7472616e736665724261746368000000000000000000000000000000000000008152509050612220565b6003820361221f576040518060400160405280600b81526020017f726563616c6c42617463680000000000000000000000000000000000000000008152509050612220565b5b919050565b5f8054906101000a900473ffffffffffffffffffffffffffffffffffffffff1673ffffffffffffffffffffffffffffffffffffffff163373ffffffffffffffffffffffffffffffffffffffff16146122b2576040517f08c379a00000000000000000000000000000000000000000000000000000000081526004016122a990613fd8565b60405180910390fd5b600160035f8373ffffffffffffffffffffffffffffffffffffffff1673ffffffffffffffffffffffffffffffffffffffff1681526020019081526020015f205f6101000a81548160ff02191690831515021790555050565b60015481565b60035f3373ffffffffffffffffffffffffffffffffffffffff1673ffffffffffffffffffffffffffffffffffffffff1681526020019081526020015f205f9054906101000a900460ff16612399576040517f08c379a000000000000000000000000000000000000000000000000000000000815260040161239090613397565b60405180910390fd5b6040516020016123a890613633565b60405160208183030381529060405280519060200120816040516020016123cf9190613677565b6040516020818303038152906040528051906020012003612476575f84511461242d576040517f08c379a000000000000000000000000000000000000000000000000000000000815260040161242490614136565b60405180910390fd5b8151835114612471576040517f08c379a0000000000000000000000000000000000000000000000000000000008152600401612468906141c4565b60405180910390fd5b612542565b5f8451116124b9576040517f08c379a00000000000000000000000000000000000000000000000000000000081526004016124b090614252565b60405180910390fd5b82518451146124fd576040517f08c379a00000000000000000000000000000000000000000000000000000000081526004016124f4906142e0565b60405180910390fd5b8151845114612541576040517f08c379a00000000000000000000000000000000000000000000000000000000081526004016125389061436e565b60405180910390fd5b5b5f835111612585576040517f08c379a000000000000000000000000000000000000000000000000000000000815260040161257c906143d6565b60405180910390fd5b5f8251116125c8576040517f08c379a00000000000000000000000000000000000000000000000000000000081526004016125bf9061443e565b60405180910390fd5b60025f8154809291906125da90613748565b91905055505f60025490506040518061010001604052808681526020018581526020018481526020013373ffffffffffffffffffffffffffffffffffffffff1681526020014281526020015f151581526020018281526020018381525060055f8381526020019081526020015f205f820151815f01908051906020019061266292919061276e565b50602082015181600101908051906020019061267f9291906127b9565b50604082015181600201908051906020019061269c9291906127b9565b506060820151816003015f6101000a81548173ffffffffffffffffffffffffffffffffffffffff021916908373ffffffffffffffffffffffffffffffffffffffff1602179055506080820151816004015560a0820151816005015f6101000a81548160ff02191690831515021790555060c0820151816006015560e082015181600701908161272b919061392c565b50905050807f97ff4eb42b5af6ff38cafbfad77979b7fbe233bb58b2cb81eb38859456a133fd8360405161275f91906130b7565b60405180910390a25050505050565b828054828255905f5260205f209081019282156127a8579160200282015b828111156127a757825182559160200191906001019061278c565b5b5090506127b59190612810565b5090565b828054828255905f5260205f209081019282156127ff579160200282015b828111156127fe5782518290816127ee919061392c565b50916020019190600101906127d7565b5b50905061280c919061282b565b5090565b5b80821115612827575f815f905550600101612811565b5090565b5b8082111561284a575f8181612841919061284e565b5060010161282c565b5090565b50805461285a90613547565b5f825580601f1061286b5750612888565b601f0160209004905f5260205f20908101906128879190612810565b5b50565b5f604051905090565b5f80fd5b5f80fd5b5f819050919050565b6128ae8161289c565b81146128b8575f80fd5b50565b5f813590506128c9816128a5565b92915050565b5f80fd5b5f80fd5b5f601f19601f8301169050919050565b7f4e487b71000000000000000000000000000000000000000000000000000000005f52604160045260245ffd5b61291d826128d7565b810181811067ffffffffffffffff8211171561293c5761293b6128e7565b5b80604052505050565b5f61294e61288b565b905061295a8282612914565b919050565b5f67ffffffffffffffff821115612979576129786128e7565b5b612982826128d7565b9050602081019050919050565b828183375f83830152505050565b5f6129af6129aa8461295f565b612945565b9050828152602081018484840111156129cb576129ca6128d3565b5b6129d684828561298f565b509392505050565b5f82601f8301126129f2576129f16128cf565b5b8135612a0284826020860161299d565b91505092915050565b5f8060408385031215612a2157612a20612894565b5b5f612a2e858286016128bb565b925050602083013567ffffffffffffffff811115612a4f57612a4e612898565b5b612a5b858286016129de565b9150509250929050565b612a6e8161289c565b82525050565b5f602082019050612a875f830184612a65565b92915050565b5f60208284031215612aa257612aa1612894565b5b5f612aaf848285016128bb565b91505092915050565b5f8115159050919050565b612acc81612ab8565b82525050565b5f602082019050612ae55f830184612ac3565b92915050565b5f81519050919050565b5f82825260208201905092915050565b5f819050602082019050919050565b612b1d8161289c565b82525050565b5f612b2e8383612b14565b60208301905092915050565b5f602082019050919050565b5f612b5082612aeb565b612b5a8185612af5565b9350612b6583612b05565b805f5b83811015612b95578151612b7c8882612b23565b9750612b8783612b3a565b925050600181019050612b68565b5085935050505092915050565b5f81519050919050565b5f82825260208201905092915050565b5f819050602082019050919050565b5f81519050919050565b5f82825260208201905092915050565b8281835e5f83830152505050565b5f612bfd82612bcb565b612c078185612bd5565b9350612c17818560208601612be5565b612c20816128d7565b840191505092915050565b5f612c368383612bf3565b905092915050565b5f602082019050919050565b5f612c5482612ba2565b612c5e8185612bac565b935083602082028501612c7085612bbc565b805f5b85811015612cab5784840389528151612c8c8582612c2b565b9450612c9783612c3e565b925060208a01995050600181019050612c73565b50829750879550505050505092915050565b5f73ffffffffffffffffffffffffffffffffffffffff82169050919050565b5f612ce682612cbd565b9050919050565b612cf681612cdc565b82525050565b5f82825260208201905092915050565b5f612d1682612bcb565b612d208185612cfc565b9350612d30818560208601612be5565b612d39816128d7565b840191505092915050565b5f610100820190508181035f830152612d5d818b612b46565b90508181036020830152612d71818a612c4a565b90508181036040830152612d858189612c4a565b9050612d946060830188612ced565b612da16080830187612a65565b612dae60a0830186612ac3565b612dbb60c0830185612a65565b81810360e0830152612dcd8184612d0c565b90509998505050505050505050565b5f60c082019050612def5f830189612a65565b8181036020830152612e018188612d0c565b90508181036040830152612e158187612d0c565b9050612e246060830186612ced565b612e316080830185612a65565b612e3e60a0830184612ac3565b979650505050505050565b612e5281612cdc565b8114612e5c575f80fd5b50565b5f81359050612e6d81612e49565b92915050565b5f805f8060808587031215612e8b57612e8a612894565b5b5f612e98878288016128bb565b9450506020612ea987828801612e5f565b935050604085013567ffffffffffffffff811115612eca57612ec9612898565b5b612ed6878288016129de565b925050606085013567ffffffffffffffff811115612ef757612ef6612898565b5b612f03878288016129de565b91505092959194509250565b5f8060408385031215612f2557612f24612894565b5b5f612f32858286016128bb565b9250506020612f4385828601612e5f565b9150509250929050565b5f60208284031215612f6257612f61612894565b5b5f612f6f84828501612e5f565b91505092915050565b5f602082019050612f8b5f830184612ced565b92915050565b5f8060408385031215612fa757612fa6612894565b5b5f83013567ffffffffffffffff811115612fc457612fc3612898565b5b612fd0858286016129de565b925050602083013567ffffffffffffffff811115612ff157612ff0612898565b5b612ffd858286016129de565b9150509250929050565b5f60a08201905061301a5f830188612ced565b6130276020830187612a65565b6130346040830186612ac3565b6130416060830185612a65565b81810360808301526130538184612d0c565b90509695505050505050565b5f60a0820190506130725f830188612a65565b81810360208301526130848187612d0c565b90506130936040830186612ced565b6130a06060830185612a65565b6130ad6080830184612ac3565b9695505050505050565b5f6020820190508181035f8301526130cf8184612d0c565b905092915050565b5f67ffffffffffffffff8211156130f1576130f06128e7565b5b602082029050602081019050919050565b5f80fd5b5f613118613113846130d7565b612945565b9050808382526020820190506020840283018581111561313b5761313a613102565b5b835b81811015613164578061315088826128bb565b84526020840193505060208101905061313d565b5050509392505050565b5f82601f830112613182576131816128cf565b5b8135613192848260208601613106565b91505092915050565b5f67ffffffffffffffff8211156131b5576131b46128e7565b5b602082029050602081019050919050565b5f6131d86131d38461319b565b612945565b905080838252602082019050602084028301858111156131fb576131fa613102565b5b835b8181101561324257803567ffffffffffffffff8111156132205761321f6128cf565b5b80860161322d89826129de565b855260208501945050506020810190506131fd565b5050509392505050565b5f82601f8301126132605761325f6128cf565b5b81356132708482602086016131c6565b91505092915050565b5f805f806080858703121561329157613290612894565b5b5f85013567ffffffffffffffff8111156132ae576132ad612898565b5b6132ba8782880161316e565b945050602085013567ffffffffffffffff8111156132db576132da612898565b5b6132e78782880161324c565b935050604085013567ffffffffffffffff81111561330857613307612898565b5b6133148782880161324c565b925050606085013567ffffffffffffffff81111561333557613334612898565b5b613341878288016129de565b91505092959194509250565b7f4e6f7420617574686f72697a65640000000000000000000000000000000000005f82015250565b5f613381600e83612cfc565b915061338c8261334d565b602082019050919050565b5f6020820190508181035f8301526133ae81613375565b9050919050565b7f426174636820646f65736e2774206578697374000000000000000000000000005f82015250565b5f6133e9601383612cfc565b91506133f4826133b5565b602082019050919050565b5f6020820190508181035f830152613416816133dd565b9050919050565b7f426174636820616c726561647920726563616c6c6564000000000000000000005f82015250565b5f613451601683612cfc565b915061345c8261341d565b602082019050919050565b5f6020820190508181035f83015261347e81613445565b9050919050565b7f4e487b71000000000000000000000000000000000000000000000000000000005f52603260045260245ffd5b7f497420646f65736e7420657869737473000000000000000000000000000000005f82015250565b5f6134e6601083612cfc565b91506134f1826134b2565b602082019050919050565b5f6020820190508181035f830152613513816134da565b9050919050565b7f4e487b71000000000000000000000000000000000000000000000000000000005f52602260045260245ffd5b5f600282049050600182168061355e57607f821691505b6020821081036135715761357061351a565b5b50919050565b7f426174636820697320726563616c6c65640000000000000000000000000000005f82015250565b5f6135ab601183612cfc565b91506135b682613577565b602082019050919050565b5f6020820190508181035f8301526135d88161359f565b9050919050565b5f81905092915050565b7f72656769737465724261746368000000000000000000000000000000000000005f82015250565b5f61361d600d836135df565b9150613628826135e9565b600d82019050919050565b5f61363d82613611565b9150819050919050565b5f61365182612bcb565b61365b81856135df565b935061366b818560208601612be5565b80840191505092915050565b5f6136828284613647565b915081905092915050565b7f426174636820494473206d75737420626520656d70747920666f7220726567695f8201527f7374726174696f6e000000000000000000000000000000000000000000000000602082015250565b5f6136e7602883612cfc565b91506136f28261368d565b604082019050919050565b5f6020820190508181035f830152613714816136db565b9050919050565b7f4e487b71000000000000000000000000000000000000000000000000000000005f52601160045260245ffd5b5f6137528261289c565b91507fffffffffffffffffffffffffffffffffffffffffffffffffffffffffffffffff82036137845761378361371b565b5b600182019050919050565b5f819050815f5260205f209050919050565b5f6020601f8301049050919050565b5f82821b905092915050565b5f600883026137eb7fffffffffffffffffffffffffffffffffffffffffffffffffffffffffffffffff826137b0565b6137f586836137b0565b95508019841693508086168417925050509392505050565b5f819050919050565b5f61383061382b6138268461289c565b61380d565b61289c565b9050919050565b5f819050919050565b61384983613816565b61385d61385582613837565b8484546137bc565b825550505050565b5f90565b613871613865565b61387c818484613840565b505050565b5b8181101561389f576138945f82613869565b600181019050613882565b5050565b601f8211156138e4576138b58161378f565b6138be846137a1565b810160208510156138cd578190505b6138e16138d9856137a1565b830182613881565b50505b505050565b5f82821c905092915050565b5f6139045f19846008026138e9565b1980831691505092915050565b5f61391c83836138f5565b9150826002028217905092915050565b61393582612bcb565b67ffffffffffffffff81111561394e5761394d6128e7565b5b6139588254613547565b6139638282856138a3565b5f60209050601f831160018114613994575f8415613982578287015190505b61398c8582613911565b8655506139f3565b601f1984166139a28661378f565b5f5b828110156139c9578489015182556001820191506020850194506020810190506139a4565b868310156139e657848901516139e2601f8916826138f5565b8355505b6001600288020188555050505b505050505050565b7f7472616e736665724261746368000000000000000000000000000000000000005f82015250565b5f613a2f600d836135df565b9150613a3a826139fb565b600d82019050919050565b5f613a4f82613a23565b9150819050919050565b7f726563616c6c42617463680000000000000000000000000000000000000000005f82015250565b5f613a8d600b836135df565b9150613a9882613a59565b600b82019050919050565b5f613aad82613a81565b9150819050919050565b7f496e76616c6964206f7065726174696f6e0000000000000000000000000000005f82015250565b5f613aeb601183612cfc565b9150613af682613ab7565b602082019050919050565b5f6020820190508181035f830152613b1881613adf565b9050919050565b5f8154613b2b81613547565b613b358186612cfc565b9450600182165f8114613b4f5760018114613b6557613b97565b60ff198316865281151560200286019350613b97565b613b6e8561378f565b5f5b83811015613b8f57815481890152600182019150602081019050613b70565b808801955050505b50505092915050565b5f6020820190508181035f830152613bb88184613b1f565b905092915050565b7f496e76616c69642070726f6475637420494400000000000000000000000000005f82015250565b5f613bf4601283612cfc565b9150613bff82613bc0565b602082019050919050565b5f6020820190508181035f830152613c2181613be8565b9050919050565b7f526563616c6c65642070726f64756374732063616e6e6f74206265207472616e5f8201527f7366657272656400000000000000000000000000000000000000000000000000602082015250565b5f613c82602783612cfc565b9150613c8d82613c28565b604082019050919050565b5f6020820190508181035f830152613caf81613c76565b9050919050565b7f496e76616c6964206e6577206f776e65722061646472657373000000000000005f82015250565b5f613cea601983612cfc565b9150613cf582613cb6565b602082019050919050565b5f6020820190508181035f830152613d1781613cde565b9050919050565b7f4e6577206f776e6572206973206e6f7420617574686f72697a656400000000005f82015250565b5f613d52601b83612cfc565b9150613d5d82613d1e565b602082019050919050565b5f6020820190508181035f830152613d7f81613d46565b9050919050565b7f4f6e6c792063757272656e74206f776e65722063616e207472616e73666572005f82015250565b5f613dba601f83612cfc565b9150613dc582613d86565b602082019050919050565b5f6020820190508181035f830152613de781613dae565b9050919050565b7f4e616d652063616e6e6f7420626520656d7074790000000000000000000000005f82015250565b5f613e22601483612cfc565b9150613e2d82613dee565b602082019050919050565b5f6020820190508181035f830152613e4f81613e16565b9050919050565b7f4465736372697074696f6e2063616e6e6f7420626520656d70747900000000005f82015250565b5f613e8a601b83612cfc565b9150613e9582613e56565b602082019050919050565b5f6020820190508181035f830152613eb781613e7e565b9050919050565b7f50726f6475637420646f65736e742065786973747300000000000000000000005f82015250565b5f613ef2601583612cfc565b9150613efd82613ebe565b602082019050919050565b5f6020820190508181035f830152613f1f81613ee6565b9050919050565b7f416c726561647920726563616c6c6564000000000000000000000000000000005f82015250565b5f613f5a601083612cfc565b9150613f6582613f26565b602082019050919050565b5f6020820190508181035f830152613f8781613f4e565b9050919050565b7f4e6f7420746865206f776e6572000000000000000000000000000000000000005f82015250565b5f613fc2600d83612cfc565b9150613fcd82613f8e565b602082019050919050565b5f6020820190508181035f830152613fef81613fb6565b9050919050565b7f496e76616c6964206164647265737300000000000000000000000000000000005f82015250565b5f61402a600f83612cfc565b915061403582613ff6565b602082019050919050565b5f6020820190508181035f8301526140578161401e565b9050919050565b7f5061727469636970616e7420616c726561647920617574686f72697a656400005f82015250565b5f614092601e83612cfc565b915061409d8261405e565b602082019050919050565b5f6020820190508181035f8301526140bf81614086565b9050919050565b7f466f7220726567697374657242617463682c204944206c697374206d757374205f8201527f626520656d707479000000000000000000000000000000000000000000000000602082015250565b5f614120602883612cfc565b915061412b826140c6565b604082019050919050565b5f6020820190508181035f83015261414d81614114565b9050919050565b7f4e616d6520616e64206465736372697074696f6e206c69737473206d757374205f8201527f6d6174636820696e206c656e6774680000000000000000000000000000000000602082015250565b5f6141ae602f83612cfc565b91506141b982614154565b604082019050919050565b5f6020820190508181035f8301526141db816141a2565b9050919050565b7f4944206c6973742063616e6e6f7420626520656d70747920666f72206e6f6e2d5f8201527f7265676973746572206f7065726174696f6e7300000000000000000000000000602082015250565b5f61423c603383612cfc565b9150614247826141e2565b604082019050919050565b5f6020820190508181035f83015261426981614230565b9050919050565b7f494420616e64206e616d65206c69737473206d757374206d6174636820696e205f8201527f6c656e6774680000000000000000000000000000000000000000000000000000602082015250565b5f6142ca602683612cfc565b91506142d582614270565b604082019050919050565b5f6020820190508181035f8301526142f7816142be565b9050919050565b7f494420616e64206465736372697074696f6e206c69737473206d757374206d615f8201527f74636820696e206c656e67746800000000000000000000000000000000000000602082015250565b5f614358602d83612cfc565b9150614363826142fe565b604082019050919050565b5f6020820190508181035f8301526143858161434c565b9050919050565b7f4e616d65206c6973742063616e6e6f7420626520656d707479000000000000005f82015250565b5f6143c0601983612cfc565b91506143cb8261438c565b602082019050919050565b5f6020820190508181035f8301526143ed816143b4565b9050919050565b7f4465736372697074696f6e206c6973742063616e6e6f7420626520656d7074795f82015250565b5f614428602083612cfc565b9150614433826143f4565b602082019050919050565b5f6020820190508181035f8301526144558161441c565b905091905056fea2646970667358221220410859914e1e62f4a127edfe1ad8cee6045a4ff8c5468b73c4bf913c8deea5fc64736f6c634300081a0033",
					"opcodes": "PUSH1 0x80 PUSH1 0x40 MSTORE CALLVALUE DUP1 ISZERO PUSH2 0xF JUMPI PUSH0 DUP1 REVERT JUMPDEST POP CALLER PUSH0 DUP1 PUSH2 0x100 EXP DUP2 SLOAD DUP2 PUSH20 0xFFFFFFFFFFFFFFFFFFFFFFFFFFFFFFFFFFFFFFFF MUL NOT AND SWAP1 DUP4 PUSH20 0xFFFFFFFFFFFFFFFFFFFFFFFFFFFFFFFFFFFFFFFF AND MUL OR SWAP1 SSTORE POP PUSH0 PUSH1 0x1 DUP2 SWAP1 SSTORE POP PUSH0 PUSH1 0x2 DUP2 SWAP1 SSTORE POP PUSH1 0x1 PUSH1 0x3 PUSH0 CALLER PUSH20 0xFFFFFFFFFFFFFFFFFFFFFFFFFFFFFFFFFFFFFFFF AND PUSH20 0xFFFFFFFFFFFFFFFFFFFFFFFFFFFFFFFFFFFFFFFF AND DUP2 MSTORE PUSH1 0x20 ADD SWAP1 DUP2 MSTORE PUSH1 0x20 ADD PUSH0 KECCAK256 PUSH0 PUSH2 0x100 EXP DUP2 SLOAD DUP2 PUSH1 0xFF MUL NOT AND SWAP1 DUP4 ISZERO ISZERO MUL OR SWAP1 SSTORE POP CALLER PUSH20 0xFFFFFFFFFFFFFFFFFFFFFFFFFFFFFFFFFFFFFFFF AND PUSH32 0x3CBCBB9BA5A54D0762F39FD455FD2900FBCFCD0E0693E2C87DB13043C400B55F PUSH1 0x40 MLOAD PUSH1 0x40 MLOAD DUP1 SWAP2 SUB SWAP1 LOG2 PUSH2 0x4492 DUP1 PUSH2 0x102 PUSH0 CODECOPY PUSH0 RETURN INVALID PUSH1 0x80 PUSH1 0x40 MSTORE CALLVALUE DUP1 ISZERO PUSH2 0xF JUMPI PUSH0 DUP1 REVERT JUMPDEST POP PUSH1 0x4 CALLDATASIZE LT PUSH2 0x12A JUMPI PUSH0 CALLDATALOAD PUSH1 0xE0 SHR DUP1 PUSH4 0x9CE0F973 GT PUSH2 0xAB JUMPI DUP1 PUSH4 0xC5F8D584 GT PUSH2 0x6F JUMPI DUP1 PUSH4 0xC5F8D584 EQ PUSH2 0x38A JUMPI DUP1 PUSH4 0xCF9CD669 EQ PUSH2 0x3A6 JUMPI DUP1 PUSH4 0xDFAFE10F EQ PUSH2 0x3D6 JUMPI DUP1 PUSH4 0xE0F6EF87 EQ PUSH2 0x3F2 JUMPI DUP1 PUSH4 0xF5F34413 EQ PUSH2 0x410 JUMPI PUSH2 0x12A JUMP JUMPDEST DUP1 PUSH4 0x9CE0F973 EQ PUSH2 0x2A6 JUMPI DUP1 PUSH4 0x9FFAA71E EQ PUSH2 0x2C2 JUMPI DUP1 PUSH4 0xAF55ED64 EQ PUSH2 0x2F2 JUMPI DUP1 PUSH4 0xB32C4D8D EQ PUSH2 0x322 JUMPI DUP1 PUSH4 0xB9DB15B4 EQ PUSH2 0x356 JUMPI PUSH2 0x12A JUMP JUMPDEST DUP1 PUSH4 0x86734E5B GT PUSH2 0xF2 JUMPI DUP1 PUSH4 0x86734E5B EQ PUSH2 0x204 JUMPI DUP1 PUSH4 0x86B0E812 EQ PUSH2 0x220 JUMPI DUP1 PUSH4 0x8D28230B EQ PUSH2 0x23C JUMPI DUP1 PUSH4 0x8DA5CB5B EQ PUSH2 0x26C JUMPI DUP1 PUSH4 0x8FBD0DCF EQ PUSH2 0x28A JUMPI PUSH2 0x12A JUMP JUMPDEST DUP1 PUSH4 0x4341422 EQ PUSH2 0x12E JUMPI DUP1 PUSH4 0x6F13056 EQ PUSH2 0x14A JUMPI DUP1 PUSH4 0x3C9AF587 EQ PUSH2 0x168 JUMPI DUP1 PUSH4 0x5AC44282 EQ PUSH2 0x198 JUMPI DUP1 PUSH4 0x7ACC0B20 EQ PUSH2 0x1CF JUMPI JUMPDEST PUSH0 DUP1 REVERT JUMPDEST PUSH2 0x148 PUSH1 0x4 DUP1 CALLDATASIZE SUB DUP2 ADD SWAP1 PUSH2 0x143 SWAP2 SWAP1 PUSH2 0x2A0B JUMP JUMPDEST PUSH2 0x42C JUMP JUMPDEST STOP JUMPDEST PUSH2 0x152 PUSH2 0x5C8 JUMP JUMPDEST PUSH1 0x40 MLOAD PUSH2 0x15F SWAP2 SWAP1 PUSH2 0x2A74 JUMP JUMPDEST PUSH1 0x40 MLOAD DUP1 SWAP2 SUB SWAP1 RETURN JUMPDEST PUSH2 0x182 PUSH1 0x4 DUP1 CALLDATASIZE SUB DUP2 ADD SWAP1 PUSH2 0x17D SWAP2 SWAP1 PUSH2 0x2A8D JUMP JUMPDEST PUSH2 0x5CE JUMP JUMPDEST PUSH1 0x40 MLOAD PUSH2 0x18F SWAP2 SWAP1 PUSH2 0x2AD2 JUMP JUMPDEST PUSH1 0x40 MLOAD DUP1 SWAP2 SUB SWAP1 RETURN JUMPDEST PUSH2 0x1B2 PUSH1 0x4 DUP1 CALLDATASIZE SUB DUP2 ADD SWAP1 PUSH2 0x1AD SWAP2 SWAP1 PUSH2 0x2A8D JUMP JUMPDEST PUSH2 0x7E5 JUMP JUMPDEST PUSH1 0x40 MLOAD PUSH2 0x1C6 SWAP9 SWAP8 SWAP7 SWAP6 SWAP5 SWAP4 SWAP3 SWAP2 SWAP1 PUSH2 0x2D44 JUMP JUMPDEST PUSH1 0x40 MLOAD DUP1 SWAP2 SUB SWAP1 RETURN JUMPDEST PUSH2 0x1E9 PUSH1 0x4 DUP1 CALLDATASIZE SUB DUP2 ADD SWAP1 PUSH2 0x1E4 SWAP2 SWAP1 PUSH2 0x2A8D JUMP JUMPDEST PUSH2 0xB63 JUMP JUMPDEST PUSH1 0x40 MLOAD PUSH2 0x1FB SWAP7 SWAP6 SWAP5 SWAP4 SWAP3 SWAP2 SWAP1 PUSH2 0x2DDC JUMP JUMPDEST PUSH1 0x40 MLOAD DUP1 SWAP2 SUB SWAP1 RETURN JUMPDEST PUSH2 0x21E PUSH1 0x4 DUP1 CALLDATASIZE SUB DUP2 ADD SWAP1 PUSH2 0x219 SWAP2 SWAP1 PUSH2 0x2E73 JUMP JUMPDEST PUSH2 0xCD2 JUMP JUMPDEST STOP JUMPDEST PUSH2 0x23A PUSH1 0x4 DUP1 CALLDATASIZE SUB DUP2 ADD SWAP1 PUSH2 0x235 SWAP2 SWAP1 PUSH2 0x2F0F JUMP JUMPDEST PUSH2 0x13FD JUMP JUMPDEST STOP JUMPDEST PUSH2 0x256 PUSH1 0x4 DUP1 CALLDATASIZE SUB DUP2 ADD SWAP1 PUSH2 0x251 SWAP2 SWAP1 PUSH2 0x2F4D JUMP JUMPDEST PUSH2 0x17D1 JUMP JUMPDEST PUSH1 0x40 MLOAD PUSH2 0x263 SWAP2 SWAP1 PUSH2 0x2AD2 JUMP JUMPDEST PUSH1 0x40 MLOAD DUP1 SWAP2 SUB SWAP1 RETURN JUMPDEST PUSH2 0x274 PUSH2 0x17EE JUMP JUMPDEST PUSH1 0x40 MLOAD PUSH2 0x281 SWAP2 SWAP1 PUSH2 0x2F78 JUMP JUMPDEST PUSH1 0x40 MLOAD DUP1 SWAP2 SUB SWAP1 RETURN JUMPDEST PUSH2 0x2A4 PUSH1 0x4 DUP1 CALLDATASIZE SUB DUP2 ADD SWAP1 PUSH2 0x29F SWAP2 SWAP1 PUSH2 0x2F91 JUMP JUMPDEST PUSH2 0x1811 JUMP JUMPDEST STOP JUMPDEST PUSH2 0x2C0 PUSH1 0x4 DUP1 CALLDATASIZE SUB DUP2 ADD SWAP1 PUSH2 0x2BB SWAP2 SWAP1 PUSH2 0x2A0B JUMP JUMPDEST PUSH2 0x1A3E JUMP JUMPDEST STOP JUMPDEST PUSH2 0x2DC PUSH1 0x4 DUP1 CALLDATASIZE SUB DUP2 ADD SWAP1 PUSH2 0x2D7 SWAP2 SWAP1 PUSH2 0x2A8D JUMP JUMPDEST PUSH2 0x1BD8 JUMP JUMPDEST PUSH1 0x40 MLOAD PUSH2 0x2E9 SWAP2 SWAP1 PUSH2 0x2AD2 JUMP JUMPDEST PUSH1 0x40 MLOAD DUP1 SWAP2 SUB SWAP1 RETURN JUMPDEST PUSH2 0x30C PUSH1 0x4 DUP1 CALLDATASIZE SUB DUP2 ADD SWAP1 PUSH2 0x307 SWAP2 SWAP1 PUSH2 0x2A8D JUMP JUMPDEST PUSH2 0x1C06 JUMP JUMPDEST PUSH1 0x40 MLOAD PUSH2 0x319 SWAP2 SWAP1 PUSH2 0x2AD2 JUMP JUMPDEST PUSH1 0x40 MLOAD DUP1 SWAP2 SUB SWAP1 RETURN JUMPDEST PUSH2 0x33C PUSH1 0x4 DUP1 CALLDATASIZE SUB DUP2 ADD SWAP1 PUSH2 0x337 SWAP2 SWAP1 PUSH2 0x2A8D JUMP JUMPDEST PUSH2 0x1C57 JUMP JUMPDEST PUSH1 0x40 MLOAD PUSH2 0x34D SWAP6 SWAP5 SWAP4 SWAP3 SWAP2 SWAP1 PUSH2 0x3007 JUMP JUMPDEST PUSH1 0x40 MLOAD DUP1 SWAP2 SUB SWAP1 RETURN JUMPDEST PUSH2 0x370 PUSH1 0x4 DUP1 CALLDATASIZE SUB DUP2 ADD SWAP1 PUSH2 0x36B SWAP2 SWAP1 PUSH2 0x2A8D JUMP JUMPDEST PUSH2 0x1D3B JUMP JUMPDEST PUSH1 0x40 MLOAD PUSH2 0x381 SWAP6 SWAP5 SWAP4 SWAP3 SWAP2 SWAP1 PUSH2 0x305F JUMP JUMPDEST PUSH1 0x40 MLOAD DUP1 SWAP2 SUB SWAP1 RETURN JUMPDEST PUSH2 0x3A4 PUSH1 0x4 DUP1 CALLDATASIZE SUB DUP2 ADD SWAP1 PUSH2 0x39F SWAP2 SWAP1 PUSH2 0x2F4D JUMP JUMPDEST PUSH2 0x1F2E JUMP JUMPDEST STOP JUMPDEST PUSH2 0x3C0 PUSH1 0x4 DUP1 CALLDATASIZE SUB DUP2 ADD SWAP1 PUSH2 0x3BB SWAP2 SWAP1 PUSH2 0x2A8D JUMP JUMPDEST PUSH2 0x214E JUMP JUMPDEST PUSH1 0x40 MLOAD PUSH2 0x3CD SWAP2 SWAP1 PUSH2 0x30B7 JUMP JUMPDEST PUSH1 0x40 MLOAD DUP1 SWAP2 SUB SWAP1 RETURN JUMPDEST PUSH2 0x3F0 PUSH1 0x4 DUP1 CALLDATASIZE SUB DUP2 ADD SWAP1 PUSH2 0x3EB SWAP2 SWAP1 PUSH2 0x2F4D JUMP JUMPDEST PUSH2 0x2225 JUMP JUMPDEST STOP JUMPDEST PUSH2 0x3FA PUSH2 0x230A JUMP JUMPDEST PUSH1 0x40 MLOAD PUSH2 0x407 SWAP2 SWAP1 PUSH2 0x2A74 JUMP JUMPDEST PUSH1 0x40 MLOAD DUP1 SWAP2 SUB SWAP1 RETURN JUMPDEST PUSH2 0x42A PUSH1 0x4 DUP1 CALLDATASIZE SUB DUP2 ADD SWAP1 PUSH2 0x425 SWAP2 SWAP1 PUSH2 0x3279 JUMP JUMPDEST PUSH2 0x2310 JUMP JUMPDEST STOP JUMPDEST PUSH1 0x3 PUSH0 CALLER PUSH20 0xFFFFFFFFFFFFFFFFFFFFFFFFFFFFFFFFFFFFFFFF AND PUSH20 0xFFFFFFFFFFFFFFFFFFFFFFFFFFFFFFFFFFFFFFFF AND DUP2 MSTORE PUSH1 0x20 ADD SWAP1 DUP2 MSTORE PUSH1 0x20 ADD PUSH0 KECCAK256 PUSH0 SWAP1 SLOAD SWAP1 PUSH2 0x100 EXP SWAP1 DIV PUSH1 0xFF AND PUSH2 0x4B5 JUMPI PUSH1 0x40 MLOAD PUSH32 0x8C379A000000000000000000000000000000000000000000000000000000000 DUP2 MSTORE PUSH1 0x4 ADD PUSH2 0x4AC SWAP1 PUSH2 0x3397 JUMP JUMPDEST PUSH1 0x40 MLOAD DUP1 SWAP2 SUB SWAP1 REVERT JUMPDEST PUSH2 0x4BE DUP3 PUSH2 0x1BD8 JUMP JUMPDEST PUSH2 0x4FD JUMPI PUSH1 0x40 MLOAD PUSH32 0x8C379A000000000000000000000000000000000000000000000000000000000 DUP2 MSTORE PUSH1 0x4 ADD PUSH2 0x4F4 SWAP1 PUSH2 0x33FF JUMP JUMPDEST PUSH1 0x40 MLOAD DUP1 SWAP2 SUB SWAP1 REVERT JUMPDEST PUSH0 PUSH1 0x5 PUSH0 DUP5 DUP2 MSTORE PUSH1 0x20 ADD SWAP1 DUP2 MSTORE PUSH1 0x20 ADD PUSH0 KECCAK256 SWAP1 POP DUP1 PUSH1 0x5 ADD PUSH0 SWAP1 SLOAD SWAP1 PUSH2 0x100 EXP SWAP1 DIV PUSH1 0xFF AND ISZERO PUSH2 0x562 JUMPI PUSH1 0x40 MLOAD PUSH32 0x8C379A000000000000000000000000000000000000000000000000000000000 DUP2 MSTORE PUSH1 0x4 ADD PUSH2 0x559 SWAP1 PUSH2 0x3467 JUMP JUMPDEST PUSH1 0x40 MLOAD DUP1 SWAP2 SUB SWAP1 REVERT JUMPDEST PUSH0 JUMPDEST DUP2 PUSH0 ADD DUP1 SLOAD SWAP1 POP DUP2 LT ISZERO PUSH2 0x5A6 JUMPI PUSH2 0x599 DUP3 PUSH0 ADD DUP3 DUP2 SLOAD DUP2 LT PUSH2 0x58A JUMPI PUSH2 0x589 PUSH2 0x3485 JUMP JUMPDEST JUMPDEST SWAP1 PUSH0 MSTORE PUSH1 0x20 PUSH0 KECCAK256 ADD SLOAD DUP5 PUSH2 0x1A3E JUMP JUMPDEST DUP1 DUP1 PUSH1 0x1 ADD SWAP2 POP POP PUSH2 0x564 JUMP JUMPDEST POP PUSH1 0x1 DUP2 PUSH1 0x5 ADD PUSH0 PUSH2 0x100 EXP DUP2 SLOAD DUP2 PUSH1 0xFF MUL NOT AND SWAP1 DUP4 ISZERO ISZERO MUL OR SWAP1 SSTORE POP POP POP POP JUMP JUMPDEST PUSH1 0x2 SLOAD DUP2 JUMP JUMPDEST PUSH0 PUSH2 0x5D8 DUP3 PUSH2 0x1C06 JUMP JUMPDEST PUSH2 0x617 JUMPI PUSH1 0x40 MLOAD PUSH32 0x8C379A000000000000000000000000000000000000000000000000000000000 DUP2 MSTORE PUSH1 0x4 ADD PUSH2 0x60E SWAP1 PUSH2 0x34FC JUMP JUMPDEST PUSH1 0x40 MLOAD DUP1 SWAP2 SUB SWAP1 REVERT JUMPDEST PUSH0 PUSH1 0x4 PUSH0 DUP5 DUP2 MSTORE PUSH1 0x20 ADD SWAP1 DUP2 MSTORE PUSH1 0x20 ADD PUSH0 KECCAK256 PUSH1 0x40 MLOAD DUP1 PUSH1 0xC0 ADD PUSH1 0x40 MSTORE SWAP1 DUP2 PUSH0 DUP3 ADD SLOAD DUP2 MSTORE PUSH1 0x20 ADD PUSH1 0x1 DUP3 ADD DUP1 SLOAD PUSH2 0x64D SWAP1 PUSH2 0x3547 JUMP JUMPDEST DUP1 PUSH1 0x1F ADD PUSH1 0x20 DUP1 SWAP2 DIV MUL PUSH1 0x20 ADD PUSH1 0x40 MLOAD SWAP1 DUP2 ADD PUSH1 0x40 MSTORE DUP1 SWAP3 SWAP2 SWAP1 DUP2 DUP2 MSTORE PUSH1 0x20 ADD DUP3 DUP1 SLOAD PUSH2 0x679 SWAP1 PUSH2 0x3547 JUMP JUMPDEST DUP1 ISZERO PUSH2 0x6C4 JUMPI DUP1 PUSH1 0x1F LT PUSH2 0x69B JUMPI PUSH2 0x100 DUP1 DUP4 SLOAD DIV MUL DUP4 MSTORE SWAP2 PUSH1 0x20 ADD SWAP2 PUSH2 0x6C4 JUMP JUMPDEST DUP3 ADD SWAP2 SWAP1 PUSH0 MSTORE PUSH1 0x20 PUSH0 KECCAK256 SWAP1 JUMPDEST DUP2 SLOAD DUP2 MSTORE SWAP1 PUSH1 0x1 ADD SWAP1 PUSH1 0x20 ADD DUP1 DUP4 GT PUSH2 0x6A7 JUMPI DUP3 SWAP1 SUB PUSH1 0x1F AND DUP3 ADD SWAP2 JUMPDEST POP POP POP POP POP DUP2 MSTORE PUSH1 0x20 ADD PUSH1 0x2 DUP3 ADD DUP1 SLOAD PUSH2 0x6DD SWAP1 PUSH2 0x3547 JUMP JUMPDEST DUP1 PUSH1 0x1F ADD PUSH1 0x20 DUP1 SWAP2 DIV MUL PUSH1 0x20 ADD PUSH1 0x40 MLOAD SWAP1 DUP2 ADD PUSH1 0x40 MSTORE DUP1 SWAP3 SWAP2 SWAP1 DUP2 DUP2 MSTORE PUSH1 0x20 ADD DUP3 DUP1 SLOAD PUSH2 0x709 SWAP1 PUSH2 0x3547 JUMP JUMPDEST DUP1 ISZERO PUSH2 0x754 JUMPI DUP1 PUSH1 0x1F LT PUSH2 0x72B JUMPI PUSH2 0x100 DUP1 DUP4 SLOAD DIV MUL DUP4 MSTORE SWAP2 PUSH1 0x20 ADD SWAP2 PUSH2 0x754 JUMP JUMPDEST DUP3 ADD SWAP2 SWAP1 PUSH0 MSTORE PUSH1 0x20 PUSH0 KECCAK256 SWAP1 JUMPDEST DUP2 SLOAD DUP2 MSTORE SWAP1 PUSH1 0x1 ADD SWAP1 PUSH1 0x20 ADD DUP1 DUP4 GT PUSH2 0x737 JUMPI DUP3 SWAP1 SUB PUSH1 0x1F AND DUP3 ADD SWAP2 JUMPDEST POP POP POP POP POP DUP2 MSTORE PUSH1 0x20 ADD PUSH1 0x3 DUP3 ADD PUSH0 SWAP1 SLOAD SWAP1 PUSH2 0x100 EXP SWAP1 DIV PUSH20 0xFFFFFFFFFFFFFFFFFFFFFFFFFFFFFFFFFFFFFFFF AND PUSH20 0xFFFFFFFFFFFFFFFFFFFFFFFFFFFFFFFFFFFFFFFF AND PUSH20 0xFFFFFFFFFFFFFFFFFFFFFFFFFFFFFFFFFFFFFFFF AND DUP2 MSTORE PUSH1 0x20 ADD PUSH1 0x4 DUP3 ADD SLOAD DUP2 MSTORE PUSH1 0x20 ADD PUSH1 0x5 DUP3 ADD PUSH0 SWAP1 SLOAD SWAP1 PUSH2 0x100 EXP SWAP1 DIV PUSH1 0xFF AND ISZERO ISZERO ISZERO ISZERO DUP2 MSTORE POP POP SWAP1 POP DUP1 PUSH1 0xA0 ADD MLOAD SWAP2 POP POP SWAP2 SWAP1 POP JUMP JUMPDEST PUSH1 0x60 DUP1 PUSH1 0x60 PUSH0 DUP1 PUSH0 DUP1 PUSH1 0x60 PUSH0 PUSH1 0x5 PUSH0 DUP12 DUP2 MSTORE PUSH1 0x20 ADD SWAP1 DUP2 MSTORE PUSH1 0x20 ADD PUSH0 KECCAK256 PUSH1 0x40 MLOAD DUP1 PUSH2 0x100 ADD PUSH1 0x40 MSTORE SWAP1 DUP2 PUSH0 DUP3 ADD DUP1 SLOAD DUP1 PUSH1 0x20 MUL PUSH1 0x20 ADD PUSH1 0x40 MLOAD SWAP1 DUP2 ADD PUSH1 0x40 MSTORE DUP1 SWAP3 SWAP2 SWAP1 DUP2 DUP2 MSTORE PUSH1 0x20 ADD DUP3 DUP1 SLOAD DUP1 ISZERO PUSH2 0x85A JUMPI PUSH1 0x20 MUL DUP3 ADD SWAP2 SWAP1 PUSH0 MSTORE PUSH1 0x20 PUSH0 KECCAK256 SWAP1 JUMPDEST DUP2 SLOAD DUP2 MSTORE PUSH1 0x20 ADD SWAP1 PUSH1 0x1 ADD SWAP1 DUP1 DUP4 GT PUSH2 0x846 JUMPI JUMPDEST POP POP POP POP POP DUP2 MSTORE PUSH1 0x20 ADD PUSH1 0x1 DUP3 ADD DUP1 SLOAD DUP1 PUSH1 0x20 MUL PUSH1 0x20 ADD PUSH1 0x40 MLOAD SWAP1 DUP2 ADD PUSH1 0x40 MSTORE DUP1 SWAP3 SWAP2 SWAP1 DUP2 DUP2 MSTORE PUSH1 0x20 ADD PUSH0 SWAP1 JUMPDEST DUP3 DUP3 LT ISZERO PUSH2 0x92F JUMPI DUP4 DUP3 SWAP1 PUSH0 MSTORE PUSH1 0x20 PUSH0 KECCAK256 ADD DUP1 SLOAD PUSH2 0x8A4 SWAP1 PUSH2 0x3547 JUMP JUMPDEST DUP1 PUSH1 0x1F ADD PUSH1 0x20 DUP1 SWAP2 DIV MUL PUSH1 0x20 ADD PUSH1 0x40 MLOAD SWAP1 DUP2 ADD PUSH1 0x40 MSTORE DUP1 SWAP3 SWAP2 SWAP1 DUP2 DUP2 MSTORE PUSH1 0x20 ADD DUP3 DUP1 SLOAD PUSH2 0x8D0 SWAP1 PUSH2 0x3547 JUMP JUMPDEST DUP1 ISZERO PUSH2 0x91B JUMPI DUP1 PUSH1 0x1F LT PUSH2 0x8F2 JUMPI PUSH2 0x100 DUP1 DUP4 SLOAD DIV MUL DUP4 MSTORE SWAP2 PUSH1 0x20 ADD SWAP2 PUSH2 0x91B JUMP JUMPDEST DUP3 ADD SWAP2 SWAP1 PUSH0 MSTORE PUSH1 0x20 PUSH0 KECCAK256 SWAP1 JUMPDEST DUP2 SLOAD DUP2 MSTORE SWAP1 PUSH1 0x1 ADD SWAP1 PUSH1 0x20 ADD DUP1 DUP4 GT PUSH2 0x8FE JUMPI DUP3 SWAP1 SUB PUSH1 0x1F AND DUP3 ADD SWAP2 JUMPDEST POP POP POP POP POP DUP2 MSTORE PUSH1 0x20 ADD SWAP1 PUSH1 0x1 ADD SWAP1 PUSH2 0x887 JUMP JUMPDEST POP POP POP POP DUP2 MSTORE PUSH1 0x20 ADD PUSH1 0x2 DUP3 ADD DUP1 SLOAD DUP1 PUSH1 0x20 MUL PUSH1 0x20 ADD PUSH1 0x40 MLOAD SWAP1 DUP2 ADD PUSH1 0x40 MSTORE DUP1 SWAP3 SWAP2 SWAP1 DUP2 DUP2 MSTORE PUSH1 0x20 ADD PUSH0 SWAP1 JUMPDEST DUP3 DUP3 LT ISZERO PUSH2 0xA03 JUMPI DUP4 DUP3 SWAP1 PUSH0 MSTORE PUSH1 0x20 PUSH0 KECCAK256 ADD DUP1 SLOAD PUSH2 0x978 SWAP1 PUSH2 0x3547 JUMP JUMPDEST DUP1 PUSH1 0x1F ADD PUSH1 0x20 DUP1 SWAP2 DIV MUL PUSH1 0x20 ADD PUSH1 0x40 MLOAD SWAP1 DUP2 ADD PUSH1 0x40 MSTORE DUP1 SWAP3 SWAP2 SWAP1 DUP2 DUP2 MSTORE PUSH1 0x20 ADD DUP3 DUP1 SLOAD PUSH2 0x9A4 SWAP1 PUSH2 0x3547 JUMP JUMPDEST DUP1 ISZERO PUSH2 0x9EF JUMPI DUP1 PUSH1 0x1F LT PUSH2 0x9C6 JUMPI PUSH2 0x100 DUP1 DUP4 SLOAD DIV MUL DUP4 MSTORE SWAP2 PUSH1 0x20 ADD SWAP2 PUSH2 0x9EF JUMP JUMPDEST DUP3 ADD SWAP2 SWAP1 PUSH0 MSTORE PUSH1 0x20 PUSH0 KECCAK256 SWAP1 JUMPDEST DUP2 SLOAD DUP2 MSTORE SWAP1 PUSH1 0x1 ADD SWAP1 PUSH1 0x20 ADD DUP1 DUP4 GT PUSH2 0x9D2 JUMPI DUP3 SWAP1 SUB PUSH1 0x1F AND DUP3 ADD SWAP2 JUMPDEST POP POP POP POP POP DUP2 MSTORE PUSH1 0x20 ADD SWAP1 PUSH1 0x1 ADD SWAP1 PUSH2 0x95B JUMP JUMPDEST POP POP POP POP DUP2 MSTORE PUSH1 0x20 ADD PUSH1 0x3 DUP3 ADD PUSH0 SWAP1 SLOAD SWAP1 PUSH2 0x100 EXP SWAP1 DIV PUSH20 0xFFFFFFFFFFFFFFFFFFFFFFFFFFFFFFFFFFFFFFFF AND PUSH20 0xFFFFFFFFFFFFFFFFFFFFFFFFFFFFFFFFFFFFFFFF AND PUSH20 0xFFFFFFFFFFFFFFFFFFFFFFFFFFFFFFFFFFFFFFFF AND DUP2 MSTORE PUSH1 0x20 ADD PUSH1 0x4 DUP3 ADD SLOAD DUP2 MSTORE PUSH1 0x20 ADD PUSH1 0x5 DUP3 ADD PUSH0 SWAP1 SLOAD SWAP1 PUSH2 0x100 EXP SWAP1 DIV PUSH1 0xFF AND ISZERO ISZERO ISZERO ISZERO DUP2 MSTORE PUSH1 0x20 ADD PUSH1 0x6 DUP3 ADD SLOAD DUP2 MSTORE PUSH1 0x20 ADD PUSH1 0x7 DUP3 ADD DUP1 SLOAD PUSH2 0xA9E SWAP1 PUSH2 0x3547 JUMP JUMPDEST DUP1 PUSH1 0x1F ADD PUSH1 0x20 DUP1 SWAP2 DIV MUL PUSH1 0x20 ADD PUSH1 0x40 MLOAD SWAP1 DUP2 ADD PUSH1 0x40 MSTORE DUP1 SWAP3 SWAP2 SWAP1 DUP2 DUP2 MSTORE PUSH1 0x20 ADD DUP3 DUP1 SLOAD PUSH2 0xACA SWAP1 PUSH2 0x3547 JUMP JUMPDEST DUP1 ISZERO PUSH2 0xB15 JUMPI DUP1 PUSH1 0x1F LT PUSH2 0xAEC JUMPI PUSH2 0x100 DUP1 DUP4 SLOAD DIV MUL DUP4 MSTORE SWAP2 PUSH1 0x20 ADD SWAP2 PUSH2 0xB15 JUMP JUMPDEST DUP3 ADD SWAP2 SWAP1 PUSH0 MSTORE PUSH1 0x20 PUSH0 KECCAK256 SWAP1 JUMPDEST DUP2 SLOAD DUP2 MSTORE SWAP1 PUSH1 0x1 ADD SWAP1 PUSH1 0x20 ADD DUP1 DUP4 GT PUSH2 0xAF8 JUMPI DUP3 SWAP1 SUB PUSH1 0x1F AND DUP3 ADD SWAP2 JUMPDEST POP POP POP POP POP DUP2 MSTORE POP POP SWAP1 POP DUP1 PUSH0 ADD MLOAD DUP2 PUSH1 0x20 ADD MLOAD DUP3 PUSH1 0x40 ADD MLOAD DUP4 PUSH1 0x60 ADD MLOAD DUP5 PUSH1 0x80 ADD MLOAD DUP6 PUSH1 0xA0 ADD MLOAD DUP7 PUSH1 0xC0 ADD MLOAD DUP8 PUSH1 0xE0 ADD MLOAD SWAP9 POP SWAP9 POP SWAP9 POP SWAP9 POP SWAP9 POP SWAP9 POP SWAP9 POP SWAP9 POP POP SWAP2 SWAP4 SWAP6 SWAP8 POP SWAP2 SWAP4 SWAP6 SWAP8 JUMP JUMPDEST PUSH1 0x4 PUSH1 0x20 MSTORE DUP1 PUSH0 MSTORE PUSH1 0x40 PUSH0 KECCAK256 PUSH0 SWAP2 POP SWAP1 POP DUP1 PUSH0 ADD SLOAD SWAP1 DUP1 PUSH1 0x1 ADD DUP1 SLOAD PUSH2 0xB88 SWAP1 PUSH2 0x3547 JUMP JUMPDEST DUP1 PUSH1 0x1F ADD PUSH1 0x20 DUP1 SWAP2 DIV MUL PUSH1 0x20 ADD PUSH1 0x40 MLOAD SWAP1 DUP2 ADD PUSH1 0x40 MSTORE DUP1 SWAP3 SWAP2 SWAP1 DUP2 DUP2 MSTORE PUSH1 0x20 ADD DUP3 DUP1 SLOAD PUSH2 0xBB4 SWAP1 PUSH2 0x3547 JUMP JUMPDEST DUP1 ISZERO PUSH2 0xBFF JUMPI DUP1 PUSH1 0x1F LT PUSH2 0xBD6 JUMPI PUSH2 0x100 DUP1 DUP4 SLOAD DIV MUL DUP4 MSTORE SWAP2 PUSH1 0x20 ADD SWAP2 PUSH2 0xBFF JUMP JUMPDEST DUP3 ADD SWAP2 SWAP1 PUSH0 MSTORE PUSH1 0x20 PUSH0 KECCAK256 SWAP1 JUMPDEST DUP2 SLOAD DUP2 MSTORE SWAP1 PUSH1 0x1 ADD SWAP1 PUSH1 0x20 ADD DUP1 DUP4 GT PUSH2 0xBE2 JUMPI DUP3 SWAP1 SUB PUSH1 0x1F AND DUP3 ADD SWAP2 JUMPDEST POP POP POP POP POP SWAP1 DUP1 PUSH1 0x2 ADD DUP1 SLOAD PUSH2 0xC14 SWAP1 PUSH2 0x3547 JUMP JUMPDEST DUP1 PUSH1 0x1F ADD PUSH1 0x20 DUP1 SWAP2 DIV MUL PUSH1 0x20 ADD PUSH1 0x40 MLOAD SWAP1 DUP2 ADD PUSH1 0x40 MSTORE DUP1 SWAP3 SWAP2 SWAP1 DUP2 DUP2 MSTORE PUSH1 0x20 ADD DUP3 DUP1 SLOAD PUSH2 0xC40 SWAP1 PUSH2 0x3547 JUMP JUMPDEST DUP1 ISZERO PUSH2 0xC8B JUMPI DUP1 PUSH1 0x1F LT PUSH2 0xC62 JUMPI PUSH2 0x100 DUP1 DUP4 SLOAD DIV MUL DUP4 MSTORE SWAP2 PUSH1 0x20 ADD SWAP2 PUSH2 0xC8B JUMP JUMPDEST DUP3 ADD SWAP2 SWAP1 PUSH0 MSTORE PUSH1 0x20 PUSH0 KECCAK256 SWAP1 JUMPDEST DUP2 SLOAD DUP2 MSTORE SWAP1 PUSH1 0x1 ADD SWAP1 PUSH1 0x20 ADD DUP1 DUP4 GT PUSH2 0xC6E JUMPI DUP3 SWAP1 SUB PUSH1 0x1F AND DUP3 ADD SWAP2 JUMPDEST POP POP POP POP POP SWAP1 DUP1 PUSH1 0x3 ADD PUSH0 SWAP1 SLOAD SWAP1 PUSH2 0x100 EXP SWAP1 DIV PUSH20 0xFFFFFFFFFFFFFFFFFFFFFFFFFFFFFFFFFFFFFFFF AND SWAP1 DUP1 PUSH1 0x4 ADD SLOAD SWAP1 DUP1 PUSH1 0x5 ADD PUSH0 SWAP1 SLOAD SWAP1 PUSH2 0x100 EXP SWAP1 DIV PUSH1 0xFF AND SWAP1 POP DUP7 JUMP JUMPDEST PUSH1 0x3 PUSH0 CALLER PUSH20 0xFFFFFFFFFFFFFFFFFFFFFFFFFFFFFFFFFFFFFFFF AND PUSH20 0xFFFFFFFFFFFFFFFFFFFFFFFFFFFFFFFFFFFFFFFF AND DUP2 MSTORE PUSH1 0x20 ADD SWAP1 DUP2 MSTORE PUSH1 0x20 ADD PUSH0 KECCAK256 PUSH0 SWAP1 SLOAD SWAP1 PUSH2 0x100 EXP SWAP1 DIV PUSH1 0xFF AND PUSH2 0xD5B JUMPI PUSH1 0x40 MLOAD PUSH32 0x8C379A000000000000000000000000000000000000000000000000000000000 DUP2 MSTORE PUSH1 0x4 ADD PUSH2 0xD52 SWAP1 PUSH2 0x3397 JUMP JUMPDEST PUSH1 0x40 MLOAD DUP1 SWAP2 SUB SWAP1 REVERT JUMPDEST PUSH0 PUSH1 0x5 PUSH0 DUP7 DUP2 MSTORE PUSH1 0x20 ADD SWAP1 DUP2 MSTORE PUSH1 0x20 ADD PUSH0 KECCAK256 PUSH1 0x6 ADD SLOAD SUB PUSH2 0xDB1 JUMPI PUSH1 0x40 MLOAD PUSH32 0x8C379A000000000000000000000000000000000000000000000000000000000 DUP2 MSTORE PUSH1 0x4 ADD PUSH2 0xDA8 SWAP1 PUSH2 0x33FF JUMP JUMPDEST PUSH1 0x40 MLOAD DUP1 SWAP2 SUB SWAP1 REVERT JUMPDEST PUSH1 0x5 PUSH0 DUP6 DUP2 MSTORE PUSH1 0x20 ADD SWAP1 DUP2 MSTORE PUSH1 0x20 ADD PUSH0 KECCAK256 PUSH1 0x5 ADD PUSH0 SWAP1 SLOAD SWAP1 PUSH2 0x100 EXP SWAP1 DIV PUSH1 0xFF AND ISZERO PUSH2 0xE12 JUMPI PUSH1 0x40 MLOAD PUSH32 0x8C379A000000000000000000000000000000000000000000000000000000000 DUP2 MSTORE PUSH1 0x4 ADD PUSH2 0xE09 SWAP1 PUSH2 0x35C1 JUMP JUMPDEST PUSH1 0x40 MLOAD DUP1 SWAP2 SUB SWAP1 REVERT JUMPDEST PUSH1 0x40 MLOAD PUSH1 0x20 ADD PUSH2 0xE21 SWAP1 PUSH2 0x3633 JUMP JUMPDEST PUSH1 0x40 MLOAD PUSH1 0x20 DUP2 DUP4 SUB SUB DUP2 MSTORE SWAP1 PUSH1 0x40 MSTORE DUP1 MLOAD SWAP1 PUSH1 0x20 ADD KECCAK256 DUP3 PUSH1 0x40 MLOAD PUSH1 0x20 ADD PUSH2 0xE48 SWAP2 SWAP1 PUSH2 0x3677 JUMP JUMPDEST PUSH1 0x40 MLOAD PUSH1 0x20 DUP2 DUP4 SUB SUB DUP2 MSTORE SWAP1 PUSH1 0x40 MSTORE DUP1 MLOAD SWAP1 PUSH1 0x20 ADD KECCAK256 SUB PUSH2 0x121C JUMPI PUSH0 PUSH1 0x5 PUSH0 DUP7 DUP2 MSTORE PUSH1 0x20 ADD SWAP1 DUP2 MSTORE PUSH1 0x20 ADD PUSH0 KECCAK256 PUSH0 ADD DUP1 SLOAD SWAP1 POP EQ PUSH2 0xEBB JUMPI PUSH1 0x40 MLOAD PUSH32 0x8C379A000000000000000000000000000000000000000000000000000000000 DUP2 MSTORE PUSH1 0x4 ADD PUSH2 0xEB2 SWAP1 PUSH2 0x36FD JUMP JUMPDEST PUSH1 0x40 MLOAD DUP1 SWAP2 SUB SWAP1 REVERT JUMPDEST PUSH0 PUSH1 0x5 PUSH0 DUP7 DUP2 MSTORE PUSH1 0x20 ADD SWAP1 DUP2 MSTORE PUSH1 0x20 ADD PUSH0 KECCAK256 PUSH1 0x1 ADD DUP1 SLOAD SWAP1 POP PUSH8 0xFFFFFFFFFFFFFFFF DUP2 GT ISZERO PUSH2 0xEED JUMPI PUSH2 0xEEC PUSH2 0x28E7 JUMP JUMPDEST JUMPDEST PUSH1 0x40 MLOAD SWAP1 DUP1 DUP3 MSTORE DUP1 PUSH1 0x20 MUL PUSH1 0x20 ADD DUP3 ADD PUSH1 0x40 MSTORE DUP1 ISZERO PUSH2 0xF1B JUMPI DUP2 PUSH1 0x20 ADD PUSH1 0x20 DUP3 MUL DUP1 CALLDATASIZE DUP4 CALLDATACOPY DUP1 DUP3 ADD SWAP2 POP POP SWAP1 POP JUMPDEST POP SWAP1 POP PUSH0 JUMPDEST PUSH1 0x5 PUSH0 DUP8 DUP2 MSTORE PUSH1 0x20 ADD SWAP1 DUP2 MSTORE PUSH1 0x20 ADD PUSH0 KECCAK256 PUSH1 0x1 ADD DUP1 SLOAD SWAP1 POP DUP2 LT ISZERO PUSH2 0x11ED JUMPI PUSH1 0x1 PUSH0 DUP2 SLOAD DUP1 SWAP3 SWAP2 SWAP1 PUSH2 0xF51 SWAP1 PUSH2 0x3748 JUMP JUMPDEST SWAP2 SWAP1 POP SSTORE POP PUSH1 0x1 SLOAD DUP3 DUP3 DUP2 MLOAD DUP2 LT PUSH2 0xF6C JUMPI PUSH2 0xF6B PUSH2 0x3485 JUMP JUMPDEST JUMPDEST PUSH1 0x20 MUL PUSH1 0x20 ADD ADD DUP2 DUP2 MSTORE POP POP PUSH1 0x40 MLOAD DUP1 PUSH1 0xC0 ADD PUSH1 0x40 MSTORE DUP1 PUSH1 0x1 SLOAD DUP2 MSTORE PUSH1 0x20 ADD PUSH1 0x5 PUSH0 DUP10 DUP2 MSTORE PUSH1 0x20 ADD SWAP1 DUP2 MSTORE PUSH1 0x20 ADD PUSH0 KECCAK256 PUSH1 0x1 ADD DUP4 DUP2 SLOAD DUP2 LT PUSH2 0xFB1 JUMPI PUSH2 0xFB0 PUSH2 0x3485 JUMP JUMPDEST JUMPDEST SWAP1 PUSH0 MSTORE PUSH1 0x20 PUSH0 KECCAK256 ADD DUP1 SLOAD PUSH2 0xFC4 SWAP1 PUSH2 0x3547 JUMP JUMPDEST DUP1 PUSH1 0x1F ADD PUSH1 0x20 DUP1 SWAP2 DIV MUL PUSH1 0x20 ADD PUSH1 0x40 MLOAD SWAP1 DUP2 ADD PUSH1 0x40 MSTORE DUP1 SWAP3 SWAP2 SWAP1 DUP2 DUP2 MSTORE PUSH1 0x20 ADD DUP3 DUP1 SLOAD PUSH2 0xFF0 SWAP1 PUSH2 0x3547 JUMP JUMPDEST DUP1 ISZERO PUSH2 0x103B JUMPI DUP1 PUSH1 0x1F LT PUSH2 0x1012 JUMPI PUSH2 0x100 DUP1 DUP4 SLOAD DIV MUL DUP4 MSTORE SWAP2 PUSH1 0x20 ADD SWAP2 PUSH2 0x103B JUMP JUMPDEST DUP3 ADD SWAP2 SWAP1 PUSH0 MSTORE PUSH1 0x20 PUSH0 KECCAK256 SWAP1 JUMPDEST DUP2 SLOAD DUP2 MSTORE SWAP1 PUSH1 0x1 ADD SWAP1 PUSH1 0x20 ADD DUP1 DUP4 GT PUSH2 0x101E JUMPI DUP3 SWAP1 SUB PUSH1 0x1F AND DUP3 ADD SWAP2 JUMPDEST POP POP POP POP POP DUP2 MSTORE PUSH1 0x20 ADD PUSH1 0x5 PUSH0 DUP10 DUP2 MSTORE PUSH1 0x20 ADD SWAP1 DUP2 MSTORE PUSH1 0x20 ADD PUSH0 KECCAK256 PUSH1 0x2 ADD DUP4 DUP2 SLOAD DUP2 LT PUSH2 0x106B JUMPI PUSH2 0x106A PUSH2 0x3485 JUMP JUMPDEST JUMPDEST SWAP1 PUSH0 MSTORE PUSH1 0x20 PUSH0 KECCAK256 ADD DUP1 SLOAD PUSH2 0x107E SWAP1 PUSH2 0x3547 JUMP JUMPDEST DUP1 PUSH1 0x1F ADD PUSH1 0x20 DUP1 SWAP2 DIV MUL PUSH1 0x20 ADD PUSH1 0x40 MLOAD SWAP1 DUP2 ADD PUSH1 0x40 MSTORE DUP1 SWAP3 SWAP2 SWAP1 DUP2 DUP2 MSTORE PUSH1 0x20 ADD DUP3 DUP1 SLOAD PUSH2 0x10AA SWAP1 PUSH2 0x3547 JUMP JUMPDEST DUP1 ISZERO PUSH2 0x10F5 JUMPI DUP1 PUSH1 0x1F LT PUSH2 0x10CC JUMPI PUSH2 0x100 DUP1 DUP4 SLOAD DIV MUL DUP4 MSTORE SWAP2 PUSH1 0x20 ADD SWAP2 PUSH2 0x10F5 JUMP JUMPDEST DUP3 ADD SWAP2 SWAP1 PUSH0 MSTORE PUSH1 0x20 PUSH0 KECCAK256 SWAP1 JUMPDEST DUP2 SLOAD DUP2 MSTORE SWAP1 PUSH1 0x1 ADD SWAP1 PUSH1 0x20 ADD DUP1 DUP4 GT PUSH2 0x10D8 JUMPI DUP3 SWAP1 SUB PUSH1 0x1F AND DUP3 ADD SWAP2 JUMPDEST POP POP POP POP POP DUP2 MSTORE PUSH1 0x20 ADD CALLER PUSH20 0xFFFFFFFFFFFFFFFFFFFFFFFFFFFFFFFFFFFFFFFF AND DUP2 MSTORE PUSH1 0x20 ADD TIMESTAMP DUP2 MSTORE PUSH1 0x20 ADD PUSH0 ISZERO ISZERO DUP2 MSTORE POP PUSH1 0x4 PUSH0 PUSH1 0x1 SLOAD DUP2 MSTORE PUSH1 0x20 ADD SWAP1 DUP2 MSTORE PUSH1 0x20 ADD PUSH0 KECCAK256 PUSH0 DUP3 ADD MLOAD DUP2 PUSH0 ADD SSTORE PUSH1 0x20 DUP3 ADD MLOAD DUP2 PUSH1 0x1 ADD SWAP1 DUP2 PUSH2 0x1157 SWAP2 SWAP1 PUSH2 0x392C JUMP JUMPDEST POP PUSH1 0x40 DUP3 ADD MLOAD DUP2 PUSH1 0x2 ADD SWAP1 DUP2 PUSH2 0x116D SWAP2 SWAP1 PUSH2 0x392C JUMP JUMPDEST POP PUSH1 0x60 DUP3 ADD MLOAD DUP2 PUSH1 0x3 ADD PUSH0 PUSH2 0x100 EXP DUP2 SLOAD DUP2 PUSH20 0xFFFFFFFFFFFFFFFFFFFFFFFFFFFFFFFFFFFFFFFF MUL NOT AND SWAP1 DUP4 PUSH20 0xFFFFFFFFFFFFFFFFFFFFFFFFFFFFFFFFFFFFFFFF AND MUL OR SWAP1 SSTORE POP PUSH1 0x80 DUP3 ADD MLOAD DUP2 PUSH1 0x4 ADD SSTORE PUSH1 0xA0 DUP3 ADD MLOAD DUP2 PUSH1 0x5 ADD PUSH0 PUSH2 0x100 EXP DUP2 SLOAD DUP2 PUSH1 0xFF MUL NOT AND SWAP1 DUP4 ISZERO ISZERO MUL OR SWAP1 SSTORE POP SWAP1 POP POP DUP1 DUP1 PUSH1 0x1 ADD SWAP2 POP POP PUSH2 0xF20 JUMP JUMPDEST POP DUP1 PUSH1 0x5 PUSH0 DUP8 DUP2 MSTORE PUSH1 0x20 ADD SWAP1 DUP2 MSTORE PUSH1 0x20 ADD PUSH0 KECCAK256 PUSH0 ADD SWAP1 DUP1 MLOAD SWAP1 PUSH1 0x20 ADD SWAP1 PUSH2 0x1215 SWAP3 SWAP2 SWAP1 PUSH2 0x276E JUMP JUMPDEST POP POP PUSH2 0x13AC JUMP JUMPDEST PUSH1 0x40 MLOAD PUSH1 0x20 ADD PUSH2 0x122B SWAP1 PUSH2 0x3A45 JUMP JUMPDEST PUSH1 0x40 MLOAD PUSH1 0x20 DUP2 DUP4 SUB SUB DUP2 MSTORE SWAP1 PUSH1 0x40 MSTORE DUP1 MLOAD SWAP1 PUSH1 0x20 ADD KECCAK256 DUP3 PUSH1 0x40 MLOAD PUSH1 0x20 ADD PUSH2 0x1252 SWAP2 SWAP1 PUSH2 0x3677 JUMP JUMPDEST PUSH1 0x40 MLOAD PUSH1 0x20 DUP2 DUP4 SUB SUB DUP2 MSTORE SWAP1 PUSH1 0x40 MSTORE DUP1 MLOAD SWAP1 PUSH1 0x20 ADD KECCAK256 SUB PUSH2 0x12D7 JUMPI PUSH0 JUMPDEST PUSH1 0x5 PUSH0 DUP7 DUP2 MSTORE PUSH1 0x20 ADD SWAP1 DUP2 MSTORE PUSH1 0x20 ADD PUSH0 KECCAK256 PUSH0 ADD DUP1 SLOAD SWAP1 POP DUP2 LT ISZERO PUSH2 0x12D1 JUMPI PUSH2 0x12C4 PUSH1 0x5 PUSH0 DUP8 DUP2 MSTORE PUSH1 0x20 ADD SWAP1 DUP2 MSTORE PUSH1 0x20 ADD PUSH0 KECCAK256 PUSH0 ADD DUP3 DUP2 SLOAD DUP2 LT PUSH2 0x12B5 JUMPI PUSH2 0x12B4 PUSH2 0x3485 JUMP JUMPDEST JUMPDEST SWAP1 PUSH0 MSTORE PUSH1 0x20 PUSH0 KECCAK256 ADD SLOAD DUP6 PUSH2 0x13FD JUMP JUMPDEST DUP1 DUP1 PUSH1 0x1 ADD SWAP2 POP POP PUSH2 0x126F JUMP JUMPDEST POP PUSH2 0x13AB JUMP JUMPDEST PUSH1 0x40 MLOAD PUSH1 0x20 ADD PUSH2 0x12E6 SWAP1 PUSH2 0x3AA3 JUMP JUMPDEST PUSH1 0x40 MLOAD PUSH1 0x20 DUP2 DUP4 SUB SUB DUP2 MSTORE SWAP1 PUSH1 0x40 MSTORE DUP1 MLOAD SWAP1 PUSH1 0x20 ADD KECCAK256 DUP3 PUSH1 0x40 MLOAD PUSH1 0x20 ADD PUSH2 0x130D SWAP2 SWAP1 PUSH2 0x3677 JUMP JUMPDEST PUSH1 0x40 MLOAD PUSH1 0x20 DUP2 DUP4 SUB SUB DUP2 MSTORE SWAP1 PUSH1 0x40 MSTORE DUP1 MLOAD SWAP1 PUSH1 0x20 ADD KECCAK256 SUB PUSH2 0x136F JUMPI PUSH2 0x1332 DUP5 DUP3 PUSH2 0x42C JUMP JUMPDEST DUP4 PUSH32 0x8F8994662430CBB3A0B089F812F1C51F46EF020E2CCC019CEE8988C3312B4A66 DUP3 PUSH1 0x40 MLOAD PUSH2 0x1362 SWAP2 SWAP1 PUSH2 0x30B7 JUMP JUMPDEST PUSH1 0x40 MLOAD DUP1 SWAP2 SUB SWAP1 LOG2 PUSH2 0x13AA JUMP JUMPDEST PUSH1 0x40 MLOAD PUSH32 0x8C379A000000000000000000000000000000000000000000000000000000000 DUP2 MSTORE PUSH1 0x4 ADD PUSH2 0x13A1 SWAP1 PUSH2 0x3B01 JUMP JUMPDEST PUSH1 0x40 MLOAD DUP1 SWAP2 SUB SWAP1 REVERT JUMPDEST JUMPDEST JUMPDEST DUP4 PUSH32 0x603489D1E5E10E7B7393A68B1707E0B98E7976704197482DC200A6B34674B54A PUSH1 0x5 PUSH0 DUP8 DUP2 MSTORE PUSH1 0x20 ADD SWAP1 DUP2 MSTORE PUSH1 0x20 ADD PUSH0 KECCAK256 PUSH1 0x7 ADD PUSH1 0x40 MLOAD PUSH2 0x13EF SWAP2 SWAP1 PUSH2 0x3BA0 JUMP JUMPDEST PUSH1 0x40 MLOAD DUP1 SWAP2 SUB SWAP1 LOG2 POP POP POP POP JUMP JUMPDEST PUSH1 0x3 PUSH0 CALLER PUSH20 0xFFFFFFFFFFFFFFFFFFFFFFFFFFFFFFFFFFFFFFFF AND PUSH20 0xFFFFFFFFFFFFFFFFFFFFFFFFFFFFFFFFFFFFFFFF AND DUP2 MSTORE PUSH1 0x20 ADD SWAP1 DUP2 MSTORE PUSH1 0x20 ADD PUSH0 KECCAK256 PUSH0 SWAP1 SLOAD SWAP1 PUSH2 0x100 EXP SWAP1 DIV PUSH1 0xFF AND PUSH2 0x1486 JUMPI PUSH1 0x40 MLOAD PUSH32 0x8C379A000000000000000000000000000000000000000000000000000000000 DUP2 MSTORE PUSH1 0x4 ADD PUSH2 0x147D SWAP1 PUSH2 0x3397 JUMP JUMPDEST PUSH1 0x40 MLOAD DUP1 SWAP2 SUB SWAP1 REVERT JUMPDEST PUSH0 DUP3 GT DUP1 ISZERO PUSH2 0x1497 JUMPI POP PUSH1 0x1 SLOAD DUP3 GT ISZERO JUMPDEST PUSH2 0x14D6 JUMPI PUSH1 0x40 MLOAD PUSH32 0x8C379A000000000000000000000000000000000000000000000000000000000 DUP2 MSTORE PUSH1 0x4 ADD PUSH2 0x14CD SWAP1 PUSH2 0x3C0A JUMP JUMPDEST PUSH1 0x40 MLOAD DUP1 SWAP2 SUB SWAP1 REVERT JUMPDEST PUSH1 0x4 PUSH0 DUP4 DUP2 MSTORE PUSH1 0x20 ADD SWAP1 DUP2 MSTORE PUSH1 0x20 ADD PUSH0 KECCAK256 PUSH1 0x5 ADD PUSH0 SWAP1 SLOAD SWAP1 PUSH2 0x100 EXP SWAP1 DIV PUSH1 0xFF AND ISZERO PUSH2 0x1537 JUMPI PUSH1 0x40 MLOAD PUSH32 0x8C379A000000000000000000000000000000000000000000000000000000000 DUP2 MSTORE PUSH1 0x4 ADD PUSH2 0x152E SWAP1 PUSH2 0x3C98 JUMP JUMPDEST PUSH1 0x40 MLOAD DUP1 SWAP2 SUB SWAP1 REVERT JUMPDEST PUSH0 PUSH20 0xFFFFFFFFFFFFFFFFFFFFFFFFFFFFFFFFFFFFFFFF AND DUP2 PUSH20 0xFFFFFFFFFFFFFFFFFFFFFFFFFFFFFFFFFFFFFFFF AND SUB PUSH2 0x15A5 JUMPI PUSH1 0x40 MLOAD PUSH32 0x8C379A000000000000000000000000000000000000000000000000000000000 DUP2 MSTORE PUSH1 0x4 ADD PUSH2 0x159C SWAP1 PUSH2 0x3D00 JUMP JUMPDEST PUSH1 0x40 MLOAD DUP1 SWAP2 SUB SWAP1 REVERT JUMPDEST PUSH1 0x3 PUSH0 DUP3 PUSH20 0xFFFFFFFFFFFFFFFFFFFFFFFFFFFFFFFFFFFFFFFF AND PUSH20 0xFFFFFFFFFFFFFFFFFFFFFFFFFFFFFFFFFFFFFFFF AND DUP2 MSTORE PUSH1 0x20 ADD SWAP1 DUP2 MSTORE PUSH1 0x20 ADD PUSH0 KECCAK256 PUSH0 SWAP1 SLOAD SWAP1 PUSH2 0x100 EXP SWAP1 DIV PUSH1 0xFF AND PUSH2 0x162E JUMPI PUSH1 0x40 MLOAD PUSH32 0x8C379A000000000000000000000000000000000000000000000000000000000 DUP2 MSTORE PUSH1 0x4 ADD PUSH2 0x1625 SWAP1 PUSH2 0x3D68 JUMP JUMPDEST PUSH1 0x40 MLOAD DUP1 SWAP2 SUB SWAP1 REVERT JUMPDEST CALLER PUSH20 0xFFFFFFFFFFFFFFFFFFFFFFFFFFFFFFFFFFFFFFFF AND PUSH1 0x4 PUSH0 DUP5 DUP2 MSTORE PUSH1 0x20 ADD SWAP1 DUP2 MSTORE PUSH1 0x20 ADD PUSH0 KECCAK256 PUSH1 0x3 ADD PUSH0 SWAP1 SLOAD SWAP1 PUSH2 0x100 EXP SWAP1 DIV PUSH20 0xFFFFFFFFFFFFFFFFFFFFFFFFFFFFFFFFFFFFFFFF AND PUSH20 0xFFFFFFFFFFFFFFFFFFFFFFFFFFFFFFFFFFFFFFFF AND EQ PUSH2 0x16CF JUMPI PUSH1 0x40 MLOAD PUSH32 0x8C379A000000000000000000000000000000000000000000000000000000000 DUP2 MSTORE PUSH1 0x4 ADD PUSH2 0x16C6 SWAP1 PUSH2 0x3DD0 JUMP JUMPDEST PUSH1 0x40 MLOAD DUP1 SWAP2 SUB SWAP1 REVERT JUMPDEST PUSH0 PUSH1 0x4 PUSH0 DUP5 DUP2 MSTORE PUSH1 0x20 ADD SWAP1 DUP2 MSTORE PUSH1 0x20 ADD PUSH0 KECCAK256 PUSH1 0x3 ADD PUSH0 SWAP1 SLOAD SWAP1 PUSH2 0x100 EXP SWAP1 DIV PUSH20 0xFFFFFFFFFFFFFFFFFFFFFFFFFFFFFFFFFFFFFFFF AND SWAP1 POP DUP2 PUSH1 0x4 PUSH0 DUP6 DUP2 MSTORE PUSH1 0x20 ADD SWAP1 DUP2 MSTORE PUSH1 0x20 ADD PUSH0 KECCAK256 PUSH1 0x3 ADD PUSH0 PUSH2 0x100 EXP DUP2 SLOAD DUP2 PUSH20 0xFFFFFFFFFFFFFFFFFFFFFFFFFFFFFFFFFFFFFFFF MUL NOT AND SWAP1 DUP4 PUSH20 0xFFFFFFFFFFFFFFFFFFFFFFFFFFFFFFFFFFFFFFFF AND MUL OR SWAP1 SSTORE POP TIMESTAMP PUSH1 0x4 PUSH0 DUP6 DUP2 MSTORE PUSH1 0x20 ADD SWAP1 DUP2 MSTORE PUSH1 0x20 ADD PUSH0 KECCAK256 PUSH1 0x4 ADD DUP2 SWAP1 SSTORE POP DUP2 PUSH20 0xFFFFFFFFFFFFFFFFFFFFFFFFFFFFFFFFFFFFFFFF AND DUP2 PUSH20 0xFFFFFFFFFFFFFFFFFFFFFFFFFFFFFFFFFFFFFFFF AND DUP5 PUSH32 0x16B85F49BF01212961345D3016C9A531894ACCF62EB7680F2045D79185CC0EC0 PUSH1 0x40 MLOAD PUSH1 0x40 MLOAD DUP1 SWAP2 SUB SWAP1 LOG4 POP POP POP JUMP JUMPDEST PUSH1 0x3 PUSH1 0x20 MSTORE DUP1 PUSH0 MSTORE PUSH1 0x40 PUSH0 KECCAK256 PUSH0 SWAP2 POP SLOAD SWAP1 PUSH2 0x100 EXP SWAP1 DIV PUSH1 0xFF AND DUP2 JUMP JUMPDEST PUSH0 DUP1 SLOAD SWAP1 PUSH2 0x100 EXP SWAP1 DIV PUSH20 0xFFFFFFFFFFFFFFFFFFFFFFFFFFFFFFFFFFFFFFFF AND DUP2 JUMP JUMPDEST PUSH1 0x3 PUSH0 CALLER PUSH20 0xFFFFFFFFFFFFFFFFFFFFFFFFFFFFFFFFFFFFFFFF AND PUSH20 0xFFFFFFFFFFFFFFFFFFFFFFFFFFFFFFFFFFFFFFFF AND DUP2 MSTORE PUSH1 0x20 ADD SWAP1 DUP2 MSTORE PUSH1 0x20 ADD PUSH0 KECCAK256 PUSH0 SWAP1 SLOAD SWAP1 PUSH2 0x100 EXP SWAP1 DIV PUSH1 0xFF AND PUSH2 0x189A JUMPI PUSH1 0x40 MLOAD PUSH32 0x8C379A000000000000000000000000000000000000000000000000000000000 DUP2 MSTORE PUSH1 0x4 ADD PUSH2 0x1891 SWAP1 PUSH2 0x3397 JUMP JUMPDEST PUSH1 0x40 MLOAD DUP1 SWAP2 SUB SWAP1 REVERT JUMPDEST PUSH0 DUP3 MLOAD GT PUSH2 0x18DD JUMPI PUSH1 0x40 MLOAD PUSH32 0x8C379A000000000000000000000000000000000000000000000000000000000 DUP2 MSTORE PUSH1 0x4 ADD PUSH2 0x18D4 SWAP1 PUSH2 0x3E38 JUMP JUMPDEST PUSH1 0x40 MLOAD DUP1 SWAP2 SUB SWAP1 REVERT JUMPDEST PUSH0 DUP2 MLOAD GT PUSH2 0x1920 JUMPI PUSH1 0x40 MLOAD PUSH32 0x8C379A000000000000000000000000000000000000000000000000000000000 DUP2 MSTORE PUSH1 0x4 ADD PUSH2 0x1917 SWAP1 PUSH2 0x3EA0 JUMP JUMPDEST PUSH1 0x40 MLOAD DUP1 SWAP2 SUB SWAP1 REVERT JUMPDEST PUSH1 0x1 PUSH0 DUP2 SLOAD DUP1 SWAP3 SWAP2 SWAP1 PUSH2 0x1932 SWAP1 PUSH2 0x3748 JUMP JUMPDEST SWAP2 SWAP1 POP SSTORE POP PUSH0 PUSH1 0x1 SLOAD SWAP1 POP PUSH1 0x40 MLOAD DUP1 PUSH1 0xC0 ADD PUSH1 0x40 MSTORE DUP1 DUP3 DUP2 MSTORE PUSH1 0x20 ADD DUP5 DUP2 MSTORE PUSH1 0x20 ADD DUP4 DUP2 MSTORE PUSH1 0x20 ADD CALLER PUSH20 0xFFFFFFFFFFFFFFFFFFFFFFFFFFFFFFFFFFFFFFFF AND DUP2 MSTORE PUSH1 0x20 ADD TIMESTAMP DUP2 MSTORE PUSH1 0x20 ADD PUSH0 ISZERO ISZERO DUP2 MSTORE POP PUSH1 0x4 PUSH0 DUP4 DUP2 MSTORE PUSH1 0x20 ADD SWAP1 DUP2 MSTORE PUSH1 0x20 ADD PUSH0 KECCAK256 PUSH0 DUP3 ADD MLOAD DUP2 PUSH0 ADD SSTORE PUSH1 0x20 DUP3 ADD MLOAD DUP2 PUSH1 0x1 ADD SWAP1 DUP2 PUSH2 0x19B0 SWAP2 SWAP1 PUSH2 0x392C JUMP JUMPDEST POP PUSH1 0x40 DUP3 ADD MLOAD DUP2 PUSH1 0x2 ADD SWAP1 DUP2 PUSH2 0x19C6 SWAP2 SWAP1 PUSH2 0x392C JUMP JUMPDEST POP PUSH1 0x60 DUP3 ADD MLOAD DUP2 PUSH1 0x3 ADD PUSH0 PUSH2 0x100 EXP DUP2 SLOAD DUP2 PUSH20 0xFFFFFFFFFFFFFFFFFFFFFFFFFFFFFFFFFFFFFFFF MUL NOT AND SWAP1 DUP4 PUSH20 0xFFFFFFFFFFFFFFFFFFFFFFFFFFFFFFFFFFFFFFFF AND MUL OR SWAP1 SSTORE POP PUSH1 0x80 DUP3 ADD MLOAD DUP2 PUSH1 0x4 ADD SSTORE PUSH1 0xA0 DUP3 ADD MLOAD DUP2 PUSH1 0x5 ADD PUSH0 PUSH2 0x100 EXP DUP2 SLOAD DUP2 PUSH1 0xFF MUL NOT AND SWAP1 DUP4 ISZERO ISZERO MUL OR SWAP1 SSTORE POP SWAP1 POP POP POP POP POP JUMP JUMPDEST PUSH1 0x3 PUSH0 CALLER PUSH20 0xFFFFFFFFFFFFFFFFFFFFFFFFFFFFFFFFFFFFFFFF AND PUSH20 0xFFFFFFFFFFFFFFFFFFFFFFFFFFFFFFFFFFFFFFFF AND DUP2 MSTORE PUSH1 0x20 ADD SWAP1 DUP2 MSTORE PUSH1 0x20 ADD PUSH0 KECCAK256 PUSH0 SWAP1 SLOAD SWAP1 PUSH2 0x100 EXP SWAP1 DIV PUSH1 0xFF AND PUSH2 0x1AC7 JUMPI PUSH1 0x40 MLOAD PUSH32 0x8C379A000000000000000000000000000000000000000000000000000000000 DUP2 MSTORE PUSH1 0x4 ADD PUSH2 0x1ABE SWAP1 PUSH2 0x3397 JUMP JUMPDEST PUSH1 0x40 MLOAD DUP1 SWAP2 SUB SWAP1 REVERT JUMPDEST PUSH2 0x1AD0 DUP3 PUSH2 0x1C06 JUMP JUMPDEST PUSH2 0x1B0F JUMPI PUSH1 0x40 MLOAD PUSH32 0x8C379A000000000000000000000000000000000000000000000000000000000 DUP2 MSTORE PUSH1 0x4 ADD PUSH2 0x1B06 SWAP1 PUSH2 0x3F08 JUMP JUMPDEST PUSH1 0x40 MLOAD DUP1 SWAP2 SUB SWAP1 REVERT JUMPDEST PUSH1 0x4 PUSH0 DUP4 DUP2 MSTORE PUSH1 0x20 ADD SWAP1 DUP2 MSTORE PUSH1 0x20 ADD PUSH0 KECCAK256 PUSH1 0x5 ADD PUSH0 SWAP1 SLOAD SWAP1 PUSH2 0x100 EXP SWAP1 DIV PUSH1 0xFF AND ISZERO PUSH2 0x1B70 JUMPI PUSH1 0x40 MLOAD PUSH32 0x8C379A000000000000000000000000000000000000000000000000000000000 DUP2 MSTORE PUSH1 0x4 ADD PUSH2 0x1B67 SWAP1 PUSH2 0x3F70 JUMP JUMPDEST PUSH1 0x40 MLOAD DUP1 SWAP2 SUB SWAP1 REVERT JUMPDEST PUSH1 0x1 PUSH1 0x4 PUSH0 DUP5 DUP2 MSTORE PUSH1 0x20 ADD SWAP1 DUP2 MSTORE PUSH1 0x20 ADD PUSH0 KECCAK256 PUSH1 0x5 ADD PUSH0 PUSH2 0x100 EXP DUP2 SLOAD DUP2 PUSH1 0xFF MUL NOT AND SWAP1 DUP4 ISZERO ISZERO MUL OR SWAP1 SSTORE POP DUP2 PUSH32 0xCF945375036EE1FF64A8885B9C36844AC503B07AD7B0B3B78D023EB0A4CC623C DUP3 PUSH1 0x40 MLOAD PUSH2 0x1BCC SWAP2 SWAP1 PUSH2 0x30B7 JUMP JUMPDEST PUSH1 0x40 MLOAD DUP1 SWAP2 SUB SWAP1 LOG2 POP POP JUMP JUMPDEST PUSH0 DUP1 PUSH1 0x5 PUSH0 DUP5 DUP2 MSTORE PUSH1 0x20 ADD SWAP1 DUP2 MSTORE PUSH1 0x20 ADD PUSH0 KECCAK256 PUSH1 0x6 ADD SLOAD EQ PUSH2 0x1BFD JUMPI PUSH1 0x1 SWAP1 POP PUSH2 0x1C01 JUMP JUMPDEST PUSH0 SWAP1 POP JUMPDEST SWAP2 SWAP1 POP JUMP JUMPDEST PUSH0 DUP1 PUSH1 0x1 SWAP1 POP JUMPDEST PUSH1 0x1 SLOAD DUP2 GT PUSH2 0x1C4D JUMPI DUP3 PUSH1 0x4 PUSH0 DUP4 DUP2 MSTORE PUSH1 0x20 ADD SWAP1 DUP2 MSTORE PUSH1 0x20 ADD PUSH0 KECCAK256 PUSH0 ADD SLOAD SUB PUSH2 0x1C3A JUMPI PUSH1 0x1 SWAP2 POP POP PUSH2 0x1C52 JUMP JUMPDEST DUP1 DUP1 PUSH2 0x1C45 SWAP1 PUSH2 0x3748 JUMP JUMPDEST SWAP2 POP POP PUSH2 0x1C0D JUMP JUMPDEST POP PUSH0 SWAP1 POP JUMPDEST SWAP2 SWAP1 POP JUMP JUMPDEST PUSH1 0x5 PUSH1 0x20 MSTORE DUP1 PUSH0 MSTORE PUSH1 0x40 PUSH0 KECCAK256 PUSH0 SWAP2 POP SWAP1 POP DUP1 PUSH1 0x3 ADD PUSH0 SWAP1 SLOAD SWAP1 PUSH2 0x100 EXP SWAP1 DIV PUSH20 0xFFFFFFFFFFFFFFFFFFFFFFFFFFFFFFFFFFFFFFFF AND SWAP1 DUP1 PUSH1 0x4 ADD SLOAD SWAP1 DUP1 PUSH1 0x5 ADD PUSH0 SWAP1 SLOAD SWAP1 PUSH2 0x100 EXP SWAP1 DIV PUSH1 0xFF AND SWAP1 DUP1 PUSH1 0x6 ADD SLOAD SWAP1 DUP1 PUSH1 0x7 ADD DUP1 SLOAD PUSH2 0x1CBA SWAP1 PUSH2 0x3547 JUMP JUMPDEST DUP1 PUSH1 0x1F ADD PUSH1 0x20 DUP1 SWAP2 DIV MUL PUSH1 0x20 ADD PUSH1 0x40 MLOAD SWAP1 DUP2 ADD PUSH1 0x40 MSTORE DUP1 SWAP3 SWAP2 SWAP1 DUP2 DUP2 MSTORE PUSH1 0x20 ADD DUP3 DUP1 SLOAD PUSH2 0x1CE6 SWAP1 PUSH2 0x3547 JUMP JUMPDEST DUP1 ISZERO PUSH2 0x1D31 JUMPI DUP1 PUSH1 0x1F LT PUSH2 0x1D08 JUMPI PUSH2 0x100 DUP1 DUP4 SLOAD DIV MUL DUP4 MSTORE SWAP2 PUSH1 0x20 ADD SWAP2 PUSH2 0x1D31 JUMP JUMPDEST DUP3 ADD SWAP2 SWAP1 PUSH0 MSTORE PUSH1 0x20 PUSH0 KECCAK256 SWAP1 JUMPDEST DUP2 SLOAD DUP2 MSTORE SWAP1 PUSH1 0x1 ADD SWAP1 PUSH1 0x20 ADD DUP1 DUP4 GT PUSH2 0x1D14 JUMPI DUP3 SWAP1 SUB PUSH1 0x1F AND DUP3 ADD SWAP2 JUMPDEST POP POP POP POP POP SWAP1 POP DUP6 JUMP JUMPDEST PUSH0 PUSH1 0x60 PUSH0 DUP1 PUSH0 DUP1 PUSH1 0x4 PUSH0 DUP9 DUP2 MSTORE PUSH1 0x20 ADD SWAP1 DUP2 MSTORE PUSH1 0x20 ADD PUSH0 KECCAK256 PUSH1 0x40 MLOAD DUP1 PUSH1 0xC0 ADD PUSH1 0x40 MSTORE SWAP1 DUP2 PUSH0 DUP3 ADD SLOAD DUP2 MSTORE PUSH1 0x20 ADD PUSH1 0x1 DUP3 ADD DUP1 SLOAD PUSH2 0x1D77 SWAP1 PUSH2 0x3547 JUMP JUMPDEST DUP1 PUSH1 0x1F ADD PUSH1 0x20 DUP1 SWAP2 DIV MUL PUSH1 0x20 ADD PUSH1 0x40 MLOAD SWAP1 DUP2 ADD PUSH1 0x40 MSTORE DUP1 SWAP3 SWAP2 SWAP1 DUP2 DUP2 MSTORE PUSH1 0x20 ADD DUP3 DUP1 SLOAD PUSH2 0x1DA3 SWAP1 PUSH2 0x3547 JUMP JUMPDEST DUP1 ISZERO PUSH2 0x1DEE JUMPI DUP1 PUSH1 0x1F LT PUSH2 0x1DC5 JUMPI PUSH2 0x100 DUP1 DUP4 SLOAD DIV MUL DUP4 MSTORE SWAP2 PUSH1 0x20 ADD SWAP2 PUSH2 0x1DEE JUMP JUMPDEST DUP3 ADD SWAP2 SWAP1 PUSH0 MSTORE PUSH1 0x20 PUSH0 KECCAK256 SWAP1 JUMPDEST DUP2 SLOAD DUP2 MSTORE SWAP1 PUSH1 0x1 ADD SWAP1 PUSH1 0x20 ADD DUP1 DUP4 GT PUSH2 0x1DD1 JUMPI DUP3 SWAP1 SUB PUSH1 0x1F AND DUP3 ADD SWAP2 JUMPDEST POP POP POP POP POP DUP2 MSTORE PUSH1 0x20 ADD PUSH1 0x2 DUP3 ADD DUP1 SLOAD PUSH2 0x1E07 SWAP1 PUSH2 0x3547 JUMP JUMPDEST DUP1 PUSH1 0x1F ADD PUSH1 0x20 DUP1 SWAP2 DIV MUL PUSH1 0x20 ADD PUSH1 0x40 MLOAD SWAP1 DUP2 ADD PUSH1 0x40 MSTORE DUP1 SWAP3 SWAP2 SWAP1 DUP2 DUP2 MSTORE PUSH1 0x20 ADD DUP3 DUP1 SLOAD PUSH2 0x1E33 SWAP1 PUSH2 0x3547 JUMP JUMPDEST DUP1 ISZERO PUSH2 0x1E7E JUMPI DUP1 PUSH1 0x1F LT PUSH2 0x1E55 JUMPI PUSH2 0x100 DUP1 DUP4 SLOAD DIV MUL DUP4 MSTORE SWAP2 PUSH1 0x20 ADD SWAP2 PUSH2 0x1E7E JUMP JUMPDEST DUP3 ADD SWAP2 SWAP1 PUSH0 MSTORE PUSH1 0x20 PUSH0 KECCAK256 SWAP1 JUMPDEST DUP2 SLOAD DUP2 MSTORE SWAP1 PUSH1 0x1 ADD SWAP1 PUSH1 0x20 ADD DUP1 DUP4 GT PUSH2 0x1E61 JUMPI DUP3 SWAP1 SUB PUSH1 0x1F AND DUP3 ADD SWAP2 JUMPDEST POP POP POP POP POP DUP2 MSTORE PUSH1 0x20 ADD PUSH1 0x3 DUP3 ADD PUSH0 SWAP1 SLOAD SWAP1 PUSH2 0x100 EXP SWAP1 DIV PUSH20 0xFFFFFFFFFFFFFFFFFFFFFFFFFFFFFFFFFFFFFFFF AND PUSH20 0xFFFFFFFFFFFFFFFFFFFFFFFFFFFFFFFFFFFFFFFF AND PUSH20 0xFFFFFFFFFFFFFFFFFFFFFFFFFFFFFFFFFFFFFFFF AND DUP2 MSTORE PUSH1 0x20 ADD PUSH1 0x4 DUP3 ADD SLOAD DUP2 MSTORE PUSH1 0x20 ADD PUSH1 0x5 DUP3 ADD PUSH0 SWAP1 SLOAD SWAP1 PUSH2 0x100 EXP SWAP1 DIV PUSH1 0xFF AND ISZERO ISZERO ISZERO ISZERO DUP2 MSTORE POP POP SWAP1 POP DUP1 PUSH0 ADD MLOAD DUP2 PUSH1 0x20 ADD MLOAD DUP3 PUSH1 0x60 ADD MLOAD DUP4 PUSH1 0x80 ADD MLOAD DUP5 PUSH1 0xA0 ADD MLOAD SWAP6 POP SWAP6 POP SWAP6 POP SWAP6 POP SWAP6 POP POP SWAP2 SWAP4 SWAP6 SWAP1 SWAP3 SWAP5 POP JUMP JUMPDEST PUSH0 DUP1 SLOAD SWAP1 PUSH2 0x100 EXP SWAP1 DIV PUSH20 0xFFFFFFFFFFFFFFFFFFFFFFFFFFFFFFFFFFFFFFFF AND PUSH20 0xFFFFFFFFFFFFFFFFFFFFFFFFFFFFFFFFFFFFFFFF AND CALLER PUSH20 0xFFFFFFFFFFFFFFFFFFFFFFFFFFFFFFFFFFFFFFFF AND EQ PUSH2 0x1FBB JUMPI PUSH1 0x40 MLOAD PUSH32 0x8C379A000000000000000000000000000000000000000000000000000000000 DUP2 MSTORE PUSH1 0x4 ADD PUSH2 0x1FB2 SWAP1 PUSH2 0x3FD8 JUMP JUMPDEST PUSH1 0x40 MLOAD DUP1 SWAP2 SUB SWAP1 REVERT JUMPDEST PUSH0 PUSH20 0xFFFFFFFFFFFFFFFFFFFFFFFFFFFFFFFFFFFFFFFF AND DUP2 PUSH20 0xFFFFFFFFFFFFFFFFFFFFFFFFFFFFFFFFFFFFFFFF AND SUB PUSH2 0x2029 JUMPI PUSH1 0x40 MLOAD PUSH32 0x8C379A000000000000000000000000000000000000000000000000000000000 DUP2 MSTORE PUSH1 0x4 ADD PUSH2 0x2020 SWAP1 PUSH2 0x4040 JUMP JUMPDEST PUSH1 0x40 MLOAD DUP1 SWAP2 SUB SWAP1 REVERT JUMPDEST PUSH1 0x3 PUSH0 DUP3 PUSH20 0xFFFFFFFFFFFFFFFFFFFFFFFFFFFFFFFFFFFFFFFF AND PUSH20 0xFFFFFFFFFFFFFFFFFFFFFFFFFFFFFFFFFFFFFFFF AND DUP2 MSTORE PUSH1 0x20 ADD SWAP1 DUP2 MSTORE PUSH1 0x20 ADD PUSH0 KECCAK256 PUSH0 SWAP1 SLOAD SWAP1 PUSH2 0x100 EXP SWAP1 DIV PUSH1 0xFF AND ISZERO PUSH2 0x20B3 JUMPI PUSH1 0x40 MLOAD PUSH32 0x8C379A000000000000000000000000000000000000000000000000000000000 DUP2 MSTORE PUSH1 0x4 ADD PUSH2 0x20AA SWAP1 PUSH2 0x40A8 JUMP JUMPDEST PUSH1 0x40 MLOAD DUP1 SWAP2 SUB SWAP1 REVERT JUMPDEST PUSH1 0x1 PUSH1 0x3 PUSH0 DUP4 PUSH20 0xFFFFFFFFFFFFFFFFFFFFFFFFFFFFFFFFFFFFFFFF AND PUSH20 0xFFFFFFFFFFFFFFFFFFFFFFFFFFFFFFFFFFFFFFFF AND DUP2 MSTORE PUSH1 0x20 ADD SWAP1 DUP2 MSTORE PUSH1 0x20 ADD PUSH0 KECCAK256 PUSH0 PUSH2 0x100 EXP DUP2 SLOAD DUP2 PUSH1 0xFF MUL NOT AND SWAP1 DUP4 ISZERO ISZERO MUL OR SWAP1 SSTORE POP DUP1 PUSH20 0xFFFFFFFFFFFFFFFFFFFFFFFFFFFFFFFFFFFFFFFF AND PUSH32 0x3CBCBB9BA5A54D0762F39FD455FD2900FBCFCD0E0693E2C87DB13043C400B55F PUSH1 0x40 MLOAD PUSH1 0x40 MLOAD DUP1 SWAP2 SUB SWAP1 LOG2 POP JUMP JUMPDEST PUSH1 0x60 PUSH1 0x1 DUP3 SUB PUSH2 0x2195 JUMPI PUSH1 0x40 MLOAD DUP1 PUSH1 0x40 ADD PUSH1 0x40 MSTORE DUP1 PUSH1 0xE DUP2 MSTORE PUSH1 0x20 ADD PUSH32 0x7265736769737465724261746368000000000000000000000000000000000000 DUP2 MSTORE POP SWAP1 POP PUSH2 0x2220 JUMP JUMPDEST PUSH1 0x2 DUP3 SUB PUSH2 0x21DA JUMPI PUSH1 0x40 MLOAD DUP1 PUSH1 0x40 ADD PUSH1 0x40 MSTORE DUP1 PUSH1 0xD DUP2 MSTORE PUSH1 0x20 ADD PUSH32 0x7472616E73666572426174636800000000000000000000000000000000000000 DUP2 MSTORE POP SWAP1 POP PUSH2 0x2220 JUMP JUMPDEST PUSH1 0x3 DUP3 SUB PUSH2 0x221F JUMPI PUSH1 0x40 MLOAD DUP1 PUSH1 0x40 ADD PUSH1 0x40 MSTORE DUP1 PUSH1 0xB DUP2 MSTORE PUSH1 0x20 ADD PUSH32 0x726563616C6C4261746368000000000000000000000000000000000000000000 DUP2 MSTORE POP SWAP1 POP PUSH2 0x2220 JUMP JUMPDEST JUMPDEST SWAP2 SWAP1 POP JUMP JUMPDEST PUSH0 DUP1 SLOAD SWAP1 PUSH2 0x100 EXP SWAP1 DIV PUSH20 0xFFFFFFFFFFFFFFFFFFFFFFFFFFFFFFFFFFFFFFFF AND PUSH20 0xFFFFFFFFFFFFFFFFFFFFFFFFFFFFFFFFFFFFFFFF AND CALLER PUSH20 0xFFFFFFFFFFFFFFFFFFFFFFFFFFFFFFFFFFFFFFFF AND EQ PUSH2 0x22B2 JUMPI PUSH1 0x40 MLOAD PUSH32 0x8C379A000000000000000000000000000000000000000000000000000000000 DUP2 MSTORE PUSH1 0x4 ADD PUSH2 0x22A9 SWAP1 PUSH2 0x3FD8 JUMP JUMPDEST PUSH1 0x40 MLOAD DUP1 SWAP2 SUB SWAP1 REVERT JUMPDEST PUSH1 0x1 PUSH1 0x3 PUSH0 DUP4 PUSH20 0xFFFFFFFFFFFFFFFFFFFFFFFFFFFFFFFFFFFFFFFF AND PUSH20 0xFFFFFFFFFFFFFFFFFFFFFFFFFFFFFFFFFFFFFFFF AND DUP2 MSTORE PUSH1 0x20 ADD SWAP1 DUP2 MSTORE PUSH1 0x20 ADD PUSH0 KECCAK256 PUSH0 PUSH2 0x100 EXP DUP2 SLOAD DUP2 PUSH1 0xFF MUL NOT AND SWAP1 DUP4 ISZERO ISZERO MUL OR SWAP1 SSTORE POP POP JUMP JUMPDEST PUSH1 0x1 SLOAD DUP2 JUMP JUMPDEST PUSH1 0x3 PUSH0 CALLER PUSH20 0xFFFFFFFFFFFFFFFFFFFFFFFFFFFFFFFFFFFFFFFF AND PUSH20 0xFFFFFFFFFFFFFFFFFFFFFFFFFFFFFFFFFFFFFFFF AND DUP2 MSTORE PUSH1 0x20 ADD SWAP1 DUP2 MSTORE PUSH1 0x20 ADD PUSH0 KECCAK256 PUSH0 SWAP1 SLOAD SWAP1 PUSH2 0x100 EXP SWAP1 DIV PUSH1 0xFF AND PUSH2 0x2399 JUMPI PUSH1 0x40 MLOAD PUSH32 0x8C379A000000000000000000000000000000000000000000000000000000000 DUP2 MSTORE PUSH1 0x4 ADD PUSH2 0x2390 SWAP1 PUSH2 0x3397 JUMP JUMPDEST PUSH1 0x40 MLOAD DUP1 SWAP2 SUB SWAP1 REVERT JUMPDEST PUSH1 0x40 MLOAD PUSH1 0x20 ADD PUSH2 0x23A8 SWAP1 PUSH2 0x3633 JUMP JUMPDEST PUSH1 0x40 MLOAD PUSH1 0x20 DUP2 DUP4 SUB SUB DUP2 MSTORE SWAP1 PUSH1 0x40 MSTORE DUP1 MLOAD SWAP1 PUSH1 0x20 ADD KECCAK256 DUP2 PUSH1 0x40 MLOAD PUSH1 0x20 ADD PUSH2 0x23CF SWAP2 SWAP1 PUSH2 0x3677 JUMP JUMPDEST PUSH1 0x40 MLOAD PUSH1 0x20 DUP2 DUP4 SUB SUB DUP2 MSTORE SWAP1 PUSH1 0x40 MSTORE DUP1 MLOAD SWAP1 PUSH1 0x20 ADD KECCAK256 SUB PUSH2 0x2476 JUMPI PUSH0 DUP5 MLOAD EQ PUSH2 0x242D JUMPI PUSH1 0x40 MLOAD PUSH32 0x8C379A000000000000000000000000000000000000000000000000000000000 DUP2 MSTORE PUSH1 0x4 ADD PUSH2 0x2424 SWAP1 PUSH2 0x4136 JUMP JUMPDEST PUSH1 0x40 MLOAD DUP1 SWAP2 SUB SWAP1 REVERT JUMPDEST DUP2 MLOAD DUP4 MLOAD EQ PUSH2 0x2471 JUMPI PUSH1 0x40 MLOAD PUSH32 0x8C379A000000000000000000000000000000000000000000000000000000000 DUP2 MSTORE PUSH1 0x4 ADD PUSH2 0x2468 SWAP1 PUSH2 0x41C4 JUMP JUMPDEST PUSH1 0x40 MLOAD DUP1 SWAP2 SUB SWAP1 REVERT JUMPDEST PUSH2 0x2542 JUMP JUMPDEST PUSH0 DUP5 MLOAD GT PUSH2 0x24B9 JUMPI PUSH1 0x40 MLOAD PUSH32 0x8C379A000000000000000000000000000000000000000000000000000000000 DUP2 MSTORE PUSH1 0x4 ADD PUSH2 0x24B0 SWAP1 PUSH2 0x4252 JUMP JUMPDEST PUSH1 0x40 MLOAD DUP1 SWAP2 SUB SWAP1 REVERT JUMPDEST DUP3 MLOAD DUP5 MLOAD EQ PUSH2 0x24FD JUMPI PUSH1 0x40 MLOAD PUSH32 0x8C379A000000000000000000000000000000000000000000000000000000000 DUP2 MSTORE PUSH1 0x4 ADD PUSH2 0x24F4 SWAP1 PUSH2 0x42E0 JUMP JUMPDEST PUSH1 0x40 MLOAD DUP1 SWAP2 SUB SWAP1 REVERT JUMPDEST DUP2 MLOAD DUP5 MLOAD EQ PUSH2 0x2541 JUMPI PUSH1 0x40 MLOAD PUSH32 0x8C379A000000000000000000000000000000000000000000000000000000000 DUP2 MSTORE PUSH1 0x4 ADD PUSH2 0x2538 SWAP1 PUSH2 0x436E JUMP JUMPDEST PUSH1 0x40 MLOAD DUP1 SWAP2 SUB SWAP1 REVERT JUMPDEST JUMPDEST PUSH0 DUP4 MLOAD GT PUSH2 0x2585 JUMPI PUSH1 0x40 MLOAD PUSH32 0x8C379A000000000000000000000000000000000000000000000000000000000 DUP2 MSTORE PUSH1 0x4 ADD PUSH2 0x257C SWAP1 PUSH2 0x43D6 JUMP JUMPDEST PUSH1 0x40 MLOAD DUP1 SWAP2 SUB SWAP1 REVERT JUMPDEST PUSH0 DUP3 MLOAD GT PUSH2 0x25C8 JUMPI PUSH1 0x40 MLOAD PUSH32 0x8C379A000000000000000000000000000000000000000000000000000000000 DUP2 MSTORE PUSH1 0x4 ADD PUSH2 0x25BF SWAP1 PUSH2 0x443E JUMP JUMPDEST PUSH1 0x40 MLOAD DUP1 SWAP2 SUB SWAP1 REVERT JUMPDEST PUSH1 0x2 PUSH0 DUP2 SLOAD DUP1 SWAP3 SWAP2 SWAP1 PUSH2 0x25DA SWAP1 PUSH2 0x3748 JUMP JUMPDEST SWAP2 SWAP1 POP SSTORE POP PUSH0 PUSH1 0x2 SLOAD SWAP1 POP PUSH1 0x40 MLOAD DUP1 PUSH2 0x100 ADD PUSH1 0x40 MSTORE DUP1 DUP7 DUP2 MSTORE PUSH1 0x20 ADD DUP6 DUP2 MSTORE PUSH1 0x20 ADD DUP5 DUP2 MSTORE PUSH1 0x20 ADD CALLER PUSH20 0xFFFFFFFFFFFFFFFFFFFFFFFFFFFFFFFFFFFFFFFF AND DUP2 MSTORE PUSH1 0x20 ADD TIMESTAMP DUP2 MSTORE PUSH1 0x20 ADD PUSH0 ISZERO ISZERO DUP2 MSTORE PUSH1 0x20 ADD DUP3 DUP2 MSTORE PUSH1 0x20 ADD DUP4 DUP2 MSTORE POP PUSH1 0x5 PUSH0 DUP4 DUP2 MSTORE PUSH1 0x20 ADD SWAP1 DUP2 MSTORE PUSH1 0x20 ADD PUSH0 KECCAK256 PUSH0 DUP3 ADD MLOAD DUP2 PUSH0 ADD SWAP1 DUP1 MLOAD SWAP1 PUSH1 0x20 ADD SWAP1 PUSH2 0x2662 SWAP3 SWAP2 SWAP1 PUSH2 0x276E JUMP JUMPDEST POP PUSH1 0x20 DUP3 ADD MLOAD DUP2 PUSH1 0x1 ADD SWAP1 DUP1 MLOAD SWAP1 PUSH1 0x20 ADD SWAP1 PUSH2 0x267F SWAP3 SWAP2 SWAP1 PUSH2 0x27B9 JUMP JUMPDEST POP PUSH1 0x40 DUP3 ADD MLOAD DUP2 PUSH1 0x2 ADD SWAP1 DUP1 MLOAD SWAP1 PUSH1 0x20 ADD SWAP1 PUSH2 0x269C SWAP3 SWAP2 SWAP1 PUSH2 0x27B9 JUMP JUMPDEST POP PUSH1 0x60 DUP3 ADD MLOAD DUP2 PUSH1 0x3 ADD PUSH0 PUSH2 0x100 EXP DUP2 SLOAD DUP2 PUSH20 0xFFFFFFFFFFFFFFFFFFFFFFFFFFFFFFFFFFFFFFFF MUL NOT AND SWAP1 DUP4 PUSH20 0xFFFFFFFFFFFFFFFFFFFFFFFFFFFFFFFFFFFFFFFF AND MUL OR SWAP1 SSTORE POP PUSH1 0x80 DUP3 ADD MLOAD DUP2 PUSH1 0x4 ADD SSTORE PUSH1 0xA0 DUP3 ADD MLOAD DUP2 PUSH1 0x5 ADD PUSH0 PUSH2 0x100 EXP DUP2 SLOAD DUP2 PUSH1 0xFF MUL NOT AND SWAP1 DUP4 ISZERO ISZERO MUL OR SWAP1 SSTORE POP PUSH1 0xC0 DUP3 ADD MLOAD DUP2 PUSH1 0x6 ADD SSTORE PUSH1 0xE0 DUP3 ADD MLOAD DUP2 PUSH1 0x7 ADD SWAP1 DUP2 PUSH2 0x272B SWAP2 SWAP1 PUSH2 0x392C JUMP JUMPDEST POP SWAP1 POP POP DUP1 PUSH32 0x97FF4EB42B5AF6FF38CAFBFAD77979B7FBE233BB58B2CB81EB38859456A133FD DUP4 PUSH1 0x40 MLOAD PUSH2 0x275F SWAP2 SWAP1 PUSH2 0x30B7 JUMP JUMPDEST PUSH1 0x40 MLOAD DUP1 SWAP2 SUB SWAP1 LOG2 POP POP POP POP POP JUMP JUMPDEST DUP3 DUP1 SLOAD DUP3 DUP3 SSTORE SWAP1 PUSH0 MSTORE PUSH1 0x20 PUSH0 KECCAK256 SWAP1 DUP2 ADD SWAP3 DUP3 ISZERO PUSH2 0x27A8 JUMPI SWAP2 PUSH1 0x20 MUL DUP3 ADD JUMPDEST DUP3 DUP2 GT ISZERO PUSH2 0x27A7 JUMPI DUP3 MLOAD DUP3 SSTORE SWAP2 PUSH1 0x20 ADD SWAP2 SWAP1 PUSH1 0x1 ADD SWAP1 PUSH2 0x278C JUMP JUMPDEST JUMPDEST POP SWAP1 POP PUSH2 0x27B5 SWAP2 SWAP1 PUSH2 0x2810 JUMP JUMPDEST POP SWAP1 JUMP JUMPDEST DUP3 DUP1 SLOAD DUP3 DUP3 SSTORE SWAP1 PUSH0 MSTORE PUSH1 0x20 PUSH0 KECCAK256 SWAP1 DUP2 ADD SWAP3 DUP3 ISZERO PUSH2 0x27FF JUMPI SWAP2 PUSH1 0x20 MUL DUP3 ADD JUMPDEST DUP3 DUP2 GT ISZERO PUSH2 0x27FE JUMPI DUP3 MLOAD DUP3 SWAP1 DUP2 PUSH2 0x27EE SWAP2 SWAP1 PUSH2 0x392C JUMP JUMPDEST POP SWAP2 PUSH1 0x20 ADD SWAP2 SWAP1 PUSH1 0x1 ADD SWAP1 PUSH2 0x27D7 JUMP JUMPDEST JUMPDEST POP SWAP1 POP PUSH2 0x280C SWAP2 SWAP1 PUSH2 0x282B JUMP JUMPDEST POP SWAP1 JUMP JUMPDEST JUMPDEST DUP1 DUP3 GT ISZERO PUSH2 0x2827 JUMPI PUSH0 DUP2 PUSH0 SWAP1 SSTORE POP PUSH1 0x1 ADD PUSH2 0x2811 JUMP JUMPDEST POP SWAP1 JUMP JUMPDEST JUMPDEST DUP1 DUP3 GT ISZERO PUSH2 0x284A JUMPI PUSH0 DUP2 DUP2 PUSH2 0x2841 SWAP2 SWAP1 PUSH2 0x284E JUMP JUMPDEST POP PUSH1 0x1 ADD PUSH2 0x282C JUMP JUMPDEST POP SWAP1 JUMP JUMPDEST POP DUP1 SLOAD PUSH2 0x285A SWAP1 PUSH2 0x3547 JUMP JUMPDEST PUSH0 DUP3 SSTORE DUP1 PUSH1 0x1F LT PUSH2 0x286B JUMPI POP PUSH2 0x2888 JUMP JUMPDEST PUSH1 0x1F ADD PUSH1 0x20 SWAP1 DIV SWAP1 PUSH0 MSTORE PUSH1 0x20 PUSH0 KECCAK256 SWAP1 DUP2 ADD SWAP1 PUSH2 0x2887 SWAP2 SWAP1 PUSH2 0x2810 JUMP JUMPDEST JUMPDEST POP JUMP JUMPDEST PUSH0 PUSH1 0x40 MLOAD SWAP1 POP SWAP1 JUMP JUMPDEST PUSH0 DUP1 REVERT JUMPDEST PUSH0 DUP1 REVERT JUMPDEST PUSH0 DUP2 SWAP1 POP SWAP2 SWAP1 POP JUMP JUMPDEST PUSH2 0x28AE DUP2 PUSH2 0x289C JUMP JUMPDEST DUP2 EQ PUSH2 0x28B8 JUMPI PUSH0 DUP1 REVERT JUMPDEST POP JUMP JUMPDEST PUSH0 DUP2 CALLDATALOAD SWAP1 POP PUSH2 0x28C9 DUP2 PUSH2 0x28A5 JUMP JUMPDEST SWAP3 SWAP2 POP POP JUMP JUMPDEST PUSH0 DUP1 REVERT JUMPDEST PUSH0 DUP1 REVERT JUMPDEST PUSH0 PUSH1 0x1F NOT PUSH1 0x1F DUP4 ADD AND SWAP1 POP SWAP2 SWAP1 POP JUMP JUMPDEST PUSH32 0x4E487B7100000000000000000000000000000000000000000000000000000000 PUSH0 MSTORE PUSH1 0x41 PUSH1 0x4 MSTORE PUSH1 0x24 PUSH0 REVERT JUMPDEST PUSH2 0x291D DUP3 PUSH2 0x28D7 JUMP JUMPDEST DUP2 ADD DUP2 DUP2 LT PUSH8 0xFFFFFFFFFFFFFFFF DUP3 GT OR ISZERO PUSH2 0x293C JUMPI PUSH2 0x293B PUSH2 0x28E7 JUMP JUMPDEST JUMPDEST DUP1 PUSH1 0x40 MSTORE POP POP POP JUMP JUMPDEST PUSH0 PUSH2 0x294E PUSH2 0x288B JUMP JUMPDEST SWAP1 POP PUSH2 0x295A DUP3 DUP3 PUSH2 0x2914 JUMP JUMPDEST SWAP2 SWAP1 POP JUMP JUMPDEST PUSH0 PUSH8 0xFFFFFFFFFFFFFFFF DUP3 GT ISZERO PUSH2 0x2979 JUMPI PUSH2 0x2978 PUSH2 0x28E7 JUMP JUMPDEST JUMPDEST PUSH2 0x2982 DUP3 PUSH2 0x28D7 JUMP JUMPDEST SWAP1 POP PUSH1 0x20 DUP2 ADD SWAP1 POP SWAP2 SWAP1 POP JUMP JUMPDEST DUP3 DUP2 DUP4 CALLDATACOPY PUSH0 DUP4 DUP4 ADD MSTORE POP POP POP JUMP JUMPDEST PUSH0 PUSH2 0x29AF PUSH2 0x29AA DUP5 PUSH2 0x295F JUMP JUMPDEST PUSH2 0x2945 JUMP JUMPDEST SWAP1 POP DUP3 DUP2 MSTORE PUSH1 0x20 DUP2 ADD DUP5 DUP5 DUP5 ADD GT ISZERO PUSH2 0x29CB JUMPI PUSH2 0x29CA PUSH2 0x28D3 JUMP JUMPDEST JUMPDEST PUSH2 0x29D6 DUP5 DUP3 DUP6 PUSH2 0x298F JUMP JUMPDEST POP SWAP4 SWAP3 POP POP POP JUMP JUMPDEST PUSH0 DUP3 PUSH1 0x1F DUP4 ADD SLT PUSH2 0x29F2 JUMPI PUSH2 0x29F1 PUSH2 0x28CF JUMP JUMPDEST JUMPDEST DUP2 CALLDATALOAD PUSH2 0x2A02 DUP5 DUP3 PUSH1 0x20 DUP7 ADD PUSH2 0x299D JUMP JUMPDEST SWAP2 POP POP SWAP3 SWAP2 POP POP JUMP JUMPDEST PUSH0 DUP1 PUSH1 0x40 DUP4 DUP6 SUB SLT ISZERO PUSH2 0x2A21 JUMPI PUSH2 0x2A20 PUSH2 0x2894 JUMP JUMPDEST JUMPDEST PUSH0 PUSH2 0x2A2E DUP6 DUP3 DUP7 ADD PUSH2 0x28BB JUMP JUMPDEST SWAP3 POP POP PUSH1 0x20 DUP4 ADD CALLDATALOAD PUSH8 0xFFFFFFFFFFFFFFFF DUP2 GT ISZERO PUSH2 0x2A4F JUMPI PUSH2 0x2A4E PUSH2 0x2898 JUMP JUMPDEST JUMPDEST PUSH2 0x2A5B DUP6 DUP3 DUP7 ADD PUSH2 0x29DE JUMP JUMPDEST SWAP2 POP POP SWAP3 POP SWAP3 SWAP1 POP JUMP JUMPDEST PUSH2 0x2A6E DUP2 PUSH2 0x289C JUMP JUMPDEST DUP3 MSTORE POP POP JUMP JUMPDEST PUSH0 PUSH1 0x20 DUP3 ADD SWAP1 POP PUSH2 0x2A87 PUSH0 DUP4 ADD DUP5 PUSH2 0x2A65 JUMP JUMPDEST SWAP3 SWAP2 POP POP JUMP JUMPDEST PUSH0 PUSH1 0x20 DUP3 DUP5 SUB SLT ISZERO PUSH2 0x2AA2 JUMPI PUSH2 0x2AA1 PUSH2 0x2894 JUMP JUMPDEST JUMPDEST PUSH0 PUSH2 0x2AAF DUP5 DUP3 DUP6 ADD PUSH2 0x28BB JUMP JUMPDEST SWAP2 POP POP SWAP3 SWAP2 POP POP JUMP JUMPDEST PUSH0 DUP2 ISZERO ISZERO SWAP1 POP SWAP2 SWAP1 POP JUMP JUMPDEST PUSH2 0x2ACC DUP2 PUSH2 0x2AB8 JUMP JUMPDEST DUP3 MSTORE POP POP JUMP JUMPDEST PUSH0 PUSH1 0x20 DUP3 ADD SWAP1 POP PUSH2 0x2AE5 PUSH0 DUP4 ADD DUP5 PUSH2 0x2AC3 JUMP JUMPDEST SWAP3 SWAP2 POP POP JUMP JUMPDEST PUSH0 DUP2 MLOAD SWAP1 POP SWAP2 SWAP1 POP JUMP JUMPDEST PUSH0 DUP3 DUP3 MSTORE PUSH1 0x20 DUP3 ADD SWAP1 POP SWAP3 SWAP2 POP POP JUMP JUMPDEST PUSH0 DUP2 SWAP1 POP PUSH1 0x20 DUP3 ADD SWAP1 POP SWAP2 SWAP1 POP JUMP JUMPDEST PUSH2 0x2B1D DUP2 PUSH2 0x289C JUMP JUMPDEST DUP3 MSTORE POP POP JUMP JUMPDEST PUSH0 PUSH2 0x2B2E DUP4 DUP4 PUSH2 0x2B14 JUMP JUMPDEST PUSH1 0x20 DUP4 ADD SWAP1 POP SWAP3 SWAP2 POP POP JUMP JUMPDEST PUSH0 PUSH1 0x20 DUP3 ADD SWAP1 POP SWAP2 SWAP1 POP JUMP JUMPDEST PUSH0 PUSH2 0x2B50 DUP3 PUSH2 0x2AEB JUMP JUMPDEST PUSH2 0x2B5A DUP2 DUP6 PUSH2 0x2AF5 JUMP JUMPDEST SWAP4 POP PUSH2 0x2B65 DUP4 PUSH2 0x2B05 JUMP JUMPDEST DUP1 PUSH0 JUMPDEST DUP4 DUP2 LT ISZERO PUSH2 0x2B95 JUMPI DUP2 MLOAD PUSH2 0x2B7C DUP9 DUP3 PUSH2 0x2B23 JUMP JUMPDEST SWAP8 POP PUSH2 0x2B87 DUP4 PUSH2 0x2B3A JUMP JUMPDEST SWAP3 POP POP PUSH1 0x1 DUP2 ADD SWAP1 POP PUSH2 0x2B68 JUMP JUMPDEST POP DUP6 SWAP4 POP POP POP POP SWAP3 SWAP2 POP POP JUMP JUMPDEST PUSH0 DUP2 MLOAD SWAP1 POP SWAP2 SWAP1 POP JUMP JUMPDEST PUSH0 DUP3 DUP3 MSTORE PUSH1 0x20 DUP3 ADD SWAP1 POP SWAP3 SWAP2 POP POP JUMP JUMPDEST PUSH0 DUP2 SWAP1 POP PUSH1 0x20 DUP3 ADD SWAP1 POP SWAP2 SWAP1 POP JUMP JUMPDEST PUSH0 DUP2 MLOAD SWAP1 POP SWAP2 SWAP1 POP JUMP JUMPDEST PUSH0 DUP3 DUP3 MSTORE PUSH1 0x20 DUP3 ADD SWAP1 POP SWAP3 SWAP2 POP POP JUMP JUMPDEST DUP3 DUP2 DUP4 MCOPY PUSH0 DUP4 DUP4 ADD MSTORE POP POP POP JUMP JUMPDEST PUSH0 PUSH2 0x2BFD DUP3 PUSH2 0x2BCB JUMP JUMPDEST PUSH2 0x2C07 DUP2 DUP6 PUSH2 0x2BD5 JUMP JUMPDEST SWAP4 POP PUSH2 0x2C17 DUP2 DUP6 PUSH1 0x20 DUP7 ADD PUSH2 0x2BE5 JUMP JUMPDEST PUSH2 0x2C20 DUP2 PUSH2 0x28D7 JUMP JUMPDEST DUP5 ADD SWAP2 POP POP SWAP3 SWAP2 POP POP JUMP JUMPDEST PUSH0 PUSH2 0x2C36 DUP4 DUP4 PUSH2 0x2BF3 JUMP JUMPDEST SWAP1 POP SWAP3 SWAP2 POP POP JUMP JUMPDEST PUSH0 PUSH1 0x20 DUP3 ADD SWAP1 POP SWAP2 SWAP1 POP JUMP JUMPDEST PUSH0 PUSH2 0x2C54 DUP3 PUSH2 0x2BA2 JUMP JUMPDEST PUSH2 0x2C5E DUP2 DUP6 PUSH2 0x2BAC JUMP JUMPDEST SWAP4 POP DUP4 PUSH1 0x20 DUP3 MUL DUP6 ADD PUSH2 0x2C70 DUP6 PUSH2 0x2BBC JUMP JUMPDEST DUP1 PUSH0 JUMPDEST DUP6 DUP2 LT ISZERO PUSH2 0x2CAB JUMPI DUP5 DUP5 SUB DUP10 MSTORE DUP2 MLOAD PUSH2 0x2C8C DUP6 DUP3 PUSH2 0x2C2B JUMP JUMPDEST SWAP5 POP PUSH2 0x2C97 DUP4 PUSH2 0x2C3E JUMP JUMPDEST SWAP3 POP PUSH1 0x20 DUP11 ADD SWAP10 POP POP PUSH1 0x1 DUP2 ADD SWAP1 POP PUSH2 0x2C73 JUMP JUMPDEST POP DUP3 SWAP8 POP DUP8 SWAP6 POP POP POP POP POP POP SWAP3 SWAP2 POP POP JUMP JUMPDEST PUSH0 PUSH20 0xFFFFFFFFFFFFFFFFFFFFFFFFFFFFFFFFFFFFFFFF DUP3 AND SWAP1 POP SWAP2 SWAP1 POP JUMP JUMPDEST PUSH0 PUSH2 0x2CE6 DUP3 PUSH2 0x2CBD JUMP JUMPDEST SWAP1 POP SWAP2 SWAP1 POP JUMP JUMPDEST PUSH2 0x2CF6 DUP2 PUSH2 0x2CDC JUMP JUMPDEST DUP3 MSTORE POP POP JUMP JUMPDEST PUSH0 DUP3 DUP3 MSTORE PUSH1 0x20 DUP3 ADD SWAP1 POP SWAP3 SWAP2 POP POP JUMP JUMPDEST PUSH0 PUSH2 0x2D16 DUP3 PUSH2 0x2BCB JUMP JUMPDEST PUSH2 0x2D20 DUP2 DUP6 PUSH2 0x2CFC JUMP JUMPDEST SWAP4 POP PUSH2 0x2D30 DUP2 DUP6 PUSH1 0x20 DUP7 ADD PUSH2 0x2BE5 JUMP JUMPDEST PUSH2 0x2D39 DUP2 PUSH2 0x28D7 JUMP JUMPDEST DUP5 ADD SWAP2 POP POP SWAP3 SWAP2 POP POP JUMP JUMPDEST PUSH0 PUSH2 0x100 DUP3 ADD SWAP1 POP DUP2 DUP2 SUB PUSH0 DUP4 ADD MSTORE PUSH2 0x2D5D DUP2 DUP12 PUSH2 0x2B46 JUMP JUMPDEST SWAP1 POP DUP2 DUP2 SUB PUSH1 0x20 DUP4 ADD MSTORE PUSH2 0x2D71 DUP2 DUP11 PUSH2 0x2C4A JUMP JUMPDEST SWAP1 POP DUP2 DUP2 SUB PUSH1 0x40 DUP4 ADD MSTORE PUSH2 0x2D85 DUP2 DUP10 PUSH2 0x2C4A JUMP JUMPDEST SWAP1 POP PUSH2 0x2D94 PUSH1 0x60 DUP4 ADD DUP9 PUSH2 0x2CED JUMP JUMPDEST PUSH2 0x2DA1 PUSH1 0x80 DUP4 ADD DUP8 PUSH2 0x2A65 JUMP JUMPDEST PUSH2 0x2DAE PUSH1 0xA0 DUP4 ADD DUP7 PUSH2 0x2AC3 JUMP JUMPDEST PUSH2 0x2DBB PUSH1 0xC0 DUP4 ADD DUP6 PUSH2 0x2A65 JUMP JUMPDEST DUP2 DUP2 SUB PUSH1 0xE0 DUP4 ADD MSTORE PUSH2 0x2DCD DUP2 DUP5 PUSH2 0x2D0C JUMP JUMPDEST SWAP1 POP SWAP10 SWAP9 POP POP POP POP POP POP POP POP POP JUMP JUMPDEST PUSH0 PUSH1 0xC0 DUP3 ADD SWAP1 POP PUSH2 0x2DEF PUSH0 DUP4 ADD DUP10 PUSH2 0x2A65 JUMP JUMPDEST DUP2 DUP2 SUB PUSH1 0x20 DUP4 ADD MSTORE PUSH2 0x2E01 DUP2 DUP9 PUSH2 0x2D0C JUMP JUMPDEST SWAP1 POP DUP2 DUP2 SUB PUSH1 0x40 DUP4 ADD MSTORE PUSH2 0x2E15 DUP2 DUP8 PUSH2 0x2D0C JUMP JUMPDEST SWAP1 POP PUSH2 0x2E24 PUSH1 0x60 DUP4 ADD DUP7 PUSH2 0x2CED JUMP JUMPDEST PUSH2 0x2E31 PUSH1 0x80 DUP4 ADD DUP6 PUSH2 0x2A65 JUMP JUMPDEST PUSH2 0x2E3E PUSH1 0xA0 DUP4 ADD DUP5 PUSH2 0x2AC3 JUMP JUMPDEST SWAP8 SWAP7 POP POP POP POP POP POP POP JUMP JUMPDEST PUSH2 0x2E52 DUP2 PUSH2 0x2CDC JUMP JUMPDEST DUP2 EQ PUSH2 0x2E5C JUMPI PUSH0 DUP1 REVERT JUMPDEST POP JUMP JUMPDEST PUSH0 DUP2 CALLDATALOAD SWAP1 POP PUSH2 0x2E6D DUP2 PUSH2 0x2E49 JUMP JUMPDEST SWAP3 SWAP2 POP POP JUMP JUMPDEST PUSH0 DUP1 PUSH0 DUP1 PUSH1 0x80 DUP6 DUP8 SUB SLT ISZERO PUSH2 0x2E8B JUMPI PUSH2 0x2E8A PUSH2 0x2894 JUMP JUMPDEST JUMPDEST PUSH0 PUSH2 0x2E98 DUP8 DUP3 DUP9 ADD PUSH2 0x28BB JUMP JUMPDEST SWAP5 POP POP PUSH1 0x20 PUSH2 0x2EA9 DUP8 DUP3 DUP9 ADD PUSH2 0x2E5F JUMP JUMPDEST SWAP4 POP POP PUSH1 0x40 DUP6 ADD CALLDATALOAD PUSH8 0xFFFFFFFFFFFFFFFF DUP2 GT ISZERO PUSH2 0x2ECA JUMPI PUSH2 0x2EC9 PUSH2 0x2898 JUMP JUMPDEST JUMPDEST PUSH2 0x2ED6 DUP8 DUP3 DUP9 ADD PUSH2 0x29DE JUMP JUMPDEST SWAP3 POP POP PUSH1 0x60 DUP6 ADD CALLDATALOAD PUSH8 0xFFFFFFFFFFFFFFFF DUP2 GT ISZERO PUSH2 0x2EF7 JUMPI PUSH2 0x2EF6 PUSH2 0x2898 JUMP JUMPDEST JUMPDEST PUSH2 0x2F03 DUP8 DUP3 DUP9 ADD PUSH2 0x29DE JUMP JUMPDEST SWAP2 POP POP SWAP3 SWAP6 SWAP2 SWAP5 POP SWAP3 POP JUMP JUMPDEST PUSH0 DUP1 PUSH1 0x40 DUP4 DUP6 SUB SLT ISZERO PUSH2 0x2F25 JUMPI PUSH2 0x2F24 PUSH2 0x2894 JUMP JUMPDEST JUMPDEST PUSH0 PUSH2 0x2F32 DUP6 DUP3 DUP7 ADD PUSH2 0x28BB JUMP JUMPDEST SWAP3 POP POP PUSH1 0x20 PUSH2 0x2F43 DUP6 DUP3 DUP7 ADD PUSH2 0x2E5F JUMP JUMPDEST SWAP2 POP POP SWAP3 POP SWAP3 SWAP1 POP JUMP JUMPDEST PUSH0 PUSH1 0x20 DUP3 DUP5 SUB SLT ISZERO PUSH2 0x2F62 JUMPI PUSH2 0x2F61 PUSH2 0x2894 JUMP JUMPDEST JUMPDEST PUSH0 PUSH2 0x2F6F DUP5 DUP3 DUP6 ADD PUSH2 0x2E5F JUMP JUMPDEST SWAP2 POP POP SWAP3 SWAP2 POP POP JUMP JUMPDEST PUSH0 PUSH1 0x20 DUP3 ADD SWAP1 POP PUSH2 0x2F8B PUSH0 DUP4 ADD DUP5 PUSH2 0x2CED JUMP JUMPDEST SWAP3 SWAP2 POP POP JUMP JUMPDEST PUSH0 DUP1 PUSH1 0x40 DUP4 DUP6 SUB SLT ISZERO PUSH2 0x2FA7 JUMPI PUSH2 0x2FA6 PUSH2 0x2894 JUMP JUMPDEST JUMPDEST PUSH0 DUP4 ADD CALLDATALOAD PUSH8 0xFFFFFFFFFFFFFFFF DUP2 GT ISZERO PUSH2 0x2FC4 JUMPI PUSH2 0x2FC3 PUSH2 0x2898 JUMP JUMPDEST JUMPDEST PUSH2 0x2FD0 DUP6 DUP3 DUP7 ADD PUSH2 0x29DE JUMP JUMPDEST SWAP3 POP POP PUSH1 0x20 DUP4 ADD CALLDATALOAD PUSH8 0xFFFFFFFFFFFFFFFF DUP2 GT ISZERO PUSH2 0x2FF1 JUMPI PUSH2 0x2FF0 PUSH2 0x2898 JUMP JUMPDEST JUMPDEST PUSH2 0x2FFD DUP6 DUP3 DUP7 ADD PUSH2 0x29DE JUMP JUMPDEST SWAP2 POP POP SWAP3 POP SWAP3 SWAP1 POP JUMP JUMPDEST PUSH0 PUSH1 0xA0 DUP3 ADD SWAP1 POP PUSH2 0x301A PUSH0 DUP4 ADD DUP9 PUSH2 0x2CED JUMP JUMPDEST PUSH2 0x3027 PUSH1 0x20 DUP4 ADD DUP8 PUSH2 0x2A65 JUMP JUMPDEST PUSH2 0x3034 PUSH1 0x40 DUP4 ADD DUP7 PUSH2 0x2AC3 JUMP JUMPDEST PUSH2 0x3041 PUSH1 0x60 DUP4 ADD DUP6 PUSH2 0x2A65 JUMP JUMPDEST DUP2 DUP2 SUB PUSH1 0x80 DUP4 ADD MSTORE PUSH2 0x3053 DUP2 DUP5 PUSH2 0x2D0C JUMP JUMPDEST SWAP1 POP SWAP7 SWAP6 POP POP POP POP POP POP JUMP JUMPDEST PUSH0 PUSH1 0xA0 DUP3 ADD SWAP1 POP PUSH2 0x3072 PUSH0 DUP4 ADD DUP9 PUSH2 0x2A65 JUMP JUMPDEST DUP2 DUP2 SUB PUSH1 0x20 DUP4 ADD MSTORE PUSH2 0x3084 DUP2 DUP8 PUSH2 0x2D0C JUMP JUMPDEST SWAP1 POP PUSH2 0x3093 PUSH1 0x40 DUP4 ADD DUP7 PUSH2 0x2CED JUMP JUMPDEST PUSH2 0x30A0 PUSH1 0x60 DUP4 ADD DUP6 PUSH2 0x2A65 JUMP JUMPDEST PUSH2 0x30AD PUSH1 0x80 DUP4 ADD DUP5 PUSH2 0x2AC3 JUMP JUMPDEST SWAP7 SWAP6 POP POP POP POP POP POP JUMP JUMPDEST PUSH0 PUSH1 0x20 DUP3 ADD SWAP1 POP DUP2 DUP2 SUB PUSH0 DUP4 ADD MSTORE PUSH2 0x30CF DUP2 DUP5 PUSH2 0x2D0C JUMP JUMPDEST SWAP1 POP SWAP3 SWAP2 POP POP JUMP JUMPDEST PUSH0 PUSH8 0xFFFFFFFFFFFFFFFF DUP3 GT ISZERO PUSH2 0x30F1 JUMPI PUSH2 0x30F0 PUSH2 0x28E7 JUMP JUMPDEST JUMPDEST PUSH1 0x20 DUP3 MUL SWAP1 POP PUSH1 0x20 DUP2 ADD SWAP1 POP SWAP2 SWAP1 POP JUMP JUMPDEST PUSH0 DUP1 REVERT JUMPDEST PUSH0 PUSH2 0x3118 PUSH2 0x3113 DUP5 PUSH2 0x30D7 JUMP JUMPDEST PUSH2 0x2945 JUMP JUMPDEST SWAP1 POP DUP1 DUP4 DUP3 MSTORE PUSH1 0x20 DUP3 ADD SWAP1 POP PUSH1 0x20 DUP5 MUL DUP4 ADD DUP6 DUP2 GT ISZERO PUSH2 0x313B JUMPI PUSH2 0x313A PUSH2 0x3102 JUMP JUMPDEST JUMPDEST DUP4 JUMPDEST DUP2 DUP2 LT ISZERO PUSH2 0x3164 JUMPI DUP1 PUSH2 0x3150 DUP9 DUP3 PUSH2 0x28BB JUMP JUMPDEST DUP5 MSTORE PUSH1 0x20 DUP5 ADD SWAP4 POP POP PUSH1 0x20 DUP2 ADD SWAP1 POP PUSH2 0x313D JUMP JUMPDEST POP POP POP SWAP4 SWAP3 POP POP POP JUMP JUMPDEST PUSH0 DUP3 PUSH1 0x1F DUP4 ADD SLT PUSH2 0x3182 JUMPI PUSH2 0x3181 PUSH2 0x28CF JUMP JUMPDEST JUMPDEST DUP2 CALLDATALOAD PUSH2 0x3192 DUP5 DUP3 PUSH1 0x20 DUP7 ADD PUSH2 0x3106 JUMP JUMPDEST SWAP2 POP POP SWAP3 SWAP2 POP POP JUMP JUMPDEST PUSH0 PUSH8 0xFFFFFFFFFFFFFFFF DUP3 GT ISZERO PUSH2 0x31B5 JUMPI PUSH2 0x31B4 PUSH2 0x28E7 JUMP JUMPDEST JUMPDEST PUSH1 0x20 DUP3 MUL SWAP1 POP PUSH1 0x20 DUP2 ADD SWAP1 POP SWAP2 SWAP1 POP JUMP JUMPDEST PUSH0 PUSH2 0x31D8 PUSH2 0x31D3 DUP5 PUSH2 0x319B JUMP JUMPDEST PUSH2 0x2945 JUMP JUMPDEST SWAP1 POP DUP1 DUP4 DUP3 MSTORE PUSH1 0x20 DUP3 ADD SWAP1 POP PUSH1 0x20 DUP5 MUL DUP4 ADD DUP6 DUP2 GT ISZERO PUSH2 0x31FB JUMPI PUSH2 0x31FA PUSH2 0x3102 JUMP JUMPDEST JUMPDEST DUP4 JUMPDEST DUP2 DUP2 LT ISZERO PUSH2 0x3242 JUMPI DUP1 CALLDATALOAD PUSH8 0xFFFFFFFFFFFFFFFF DUP2 GT ISZERO PUSH2 0x3220 JUMPI PUSH2 0x321F PUSH2 0x28CF JUMP JUMPDEST JUMPDEST DUP1 DUP7 ADD PUSH2 0x322D DUP10 DUP3 PUSH2 0x29DE JUMP JUMPDEST DUP6 MSTORE PUSH1 0x20 DUP6 ADD SWAP5 POP POP POP PUSH1 0x20 DUP2 ADD SWAP1 POP PUSH2 0x31FD JUMP JUMPDEST POP POP POP SWAP4 SWAP3 POP POP POP JUMP JUMPDEST PUSH0 DUP3 PUSH1 0x1F DUP4 ADD SLT PUSH2 0x3260 JUMPI PUSH2 0x325F PUSH2 0x28CF JUMP JUMPDEST JUMPDEST DUP2 CALLDATALOAD PUSH2 0x3270 DUP5 DUP3 PUSH1 0x20 DUP7 ADD PUSH2 0x31C6 JUMP JUMPDEST SWAP2 POP POP SWAP3 SWAP2 POP POP JUMP JUMPDEST PUSH0 DUP1 PUSH0 DUP1 PUSH1 0x80 DUP6 DUP8 SUB SLT ISZERO PUSH2 0x3291 JUMPI PUSH2 0x3290 PUSH2 0x2894 JUMP JUMPDEST JUMPDEST PUSH0 DUP6 ADD CALLDATALOAD PUSH8 0xFFFFFFFFFFFFFFFF DUP2 GT ISZERO PUSH2 0x32AE JUMPI PUSH2 0x32AD PUSH2 0x2898 JUMP JUMPDEST JUMPDEST PUSH2 0x32BA DUP8 DUP3 DUP9 ADD PUSH2 0x316E JUMP JUMPDEST SWAP5 POP POP PUSH1 0x20 DUP6 ADD CALLDATALOAD PUSH8 0xFFFFFFFFFFFFFFFF DUP2 GT ISZERO PUSH2 0x32DB JUMPI PUSH2 0x32DA PUSH2 0x2898 JUMP JUMPDEST JUMPDEST PUSH2 0x32E7 DUP8 DUP3 DUP9 ADD PUSH2 0x324C JUMP JUMPDEST SWAP4 POP POP PUSH1 0x40 DUP6 ADD CALLDATALOAD PUSH8 0xFFFFFFFFFFFFFFFF DUP2 GT ISZERO PUSH2 0x3308 JUMPI PUSH2 0x3307 PUSH2 0x2898 JUMP JUMPDEST JUMPDEST PUSH2 0x3314 DUP8 DUP3 DUP9 ADD PUSH2 0x324C JUMP JUMPDEST SWAP3 POP POP PUSH1 0x60 DUP6 ADD CALLDATALOAD PUSH8 0xFFFFFFFFFFFFFFFF DUP2 GT ISZERO PUSH2 0x3335 JUMPI PUSH2 0x3334 PUSH2 0x2898 JUMP JUMPDEST JUMPDEST PUSH2 0x3341 DUP8 DUP3 DUP9 ADD PUSH2 0x29DE JUMP JUMPDEST SWAP2 POP POP SWAP3 SWAP6 SWAP2 SWAP5 POP SWAP3 POP JUMP JUMPDEST PUSH32 0x4E6F7420617574686F72697A6564000000000000000000000000000000000000 PUSH0 DUP3 ADD MSTORE POP JUMP JUMPDEST PUSH0 PUSH2 0x3381 PUSH1 0xE DUP4 PUSH2 0x2CFC JUMP JUMPDEST SWAP2 POP PUSH2 0x338C DUP3 PUSH2 0x334D JUMP JUMPDEST PUSH1 0x20 DUP3 ADD SWAP1 POP SWAP2 SWAP1 POP JUMP JUMPDEST PUSH0 PUSH1 0x20 DUP3 ADD SWAP1 POP DUP2 DUP2 SUB PUSH0 DUP4 ADD MSTORE PUSH2 0x33AE DUP2 PUSH2 0x3375 JUMP JUMPDEST SWAP1 POP SWAP2 SWAP1 POP JUMP JUMPDEST PUSH32 0x426174636820646F65736E277420657869737400000000000000000000000000 PUSH0 DUP3 ADD MSTORE POP JUMP JUMPDEST PUSH0 PUSH2 0x33E9 PUSH1 0x13 DUP4 PUSH2 0x2CFC JUMP JUMPDEST SWAP2 POP PUSH2 0x33F4 DUP3 PUSH2 0x33B5 JUMP JUMPDEST PUSH1 0x20 DUP3 ADD SWAP1 POP SWAP2 SWAP1 POP JUMP JUMPDEST PUSH0 PUSH1 0x20 DUP3 ADD SWAP1 POP DUP2 DUP2 SUB PUSH0 DUP4 ADD MSTORE PUSH2 0x3416 DUP2 PUSH2 0x33DD JUMP JUMPDEST SWAP1 POP SWAP2 SWAP1 POP JUMP JUMPDEST PUSH32 0x426174636820616C726561647920726563616C6C656400000000000000000000 PUSH0 DUP3 ADD MSTORE POP JUMP JUMPDEST PUSH0 PUSH2 0x3451 PUSH1 0x16 DUP4 PUSH2 0x2CFC JUMP JUMPDEST SWAP2 POP PUSH2 0x345C DUP3 PUSH2 0x341D JUMP JUMPDEST PUSH1 0x20 DUP3 ADD SWAP1 POP SWAP2 SWAP1 POP JUMP JUMPDEST PUSH0 PUSH1 0x20 DUP3 ADD SWAP1 POP DUP2 DUP2 SUB PUSH0 DUP4 ADD MSTORE PUSH2 0x347E DUP2 PUSH2 0x3445 JUMP JUMPDEST SWAP1 POP SWAP2 SWAP1 POP JUMP JUMPDEST PUSH32 0x4E487B7100000000000000000000000000000000000000000000000000000000 PUSH0 MSTORE PUSH1 0x32 PUSH1 0x4 MSTORE PUSH1 0x24 PUSH0 REVERT JUMPDEST PUSH32 0x497420646F65736E742065786973747300000000000000000000000000000000 PUSH0 DUP3 ADD MSTORE POP JUMP JUMPDEST PUSH0 PUSH2 0x34E6 PUSH1 0x10 DUP4 PUSH2 0x2CFC JUMP JUMPDEST SWAP2 POP PUSH2 0x34F1 DUP3 PUSH2 0x34B2 JUMP JUMPDEST PUSH1 0x20 DUP3 ADD SWAP1 POP SWAP2 SWAP1 POP JUMP JUMPDEST PUSH0 PUSH1 0x20 DUP3 ADD SWAP1 POP DUP2 DUP2 SUB PUSH0 DUP4 ADD MSTORE PUSH2 0x3513 DUP2 PUSH2 0x34DA JUMP JUMPDEST SWAP1 POP SWAP2 SWAP1 POP JUMP JUMPDEST PUSH32 0x4E487B7100000000000000000000000000000000000000000000000000000000 PUSH0 MSTORE PUSH1 0x22 PUSH1 0x4 MSTORE PUSH1 0x24 PUSH0 REVERT JUMPDEST PUSH0 PUSH1 0x2 DUP3 DIV SWAP1 POP PUSH1 0x1 DUP3 AND DUP1 PUSH2 0x355E JUMPI PUSH1 0x7F DUP3 AND SWAP2 POP JUMPDEST PUSH1 0x20 DUP3 LT DUP2 SUB PUSH2 0x3571 JUMPI PUSH2 0x3570 PUSH2 0x351A JUMP JUMPDEST JUMPDEST POP SWAP2 SWAP1 POP JUMP JUMPDEST PUSH32 0x426174636820697320726563616C6C6564000000000000000000000000000000 PUSH0 DUP3 ADD MSTORE POP JUMP JUMPDEST PUSH0 PUSH2 0x35AB PUSH1 0x11 DUP4 PUSH2 0x2CFC JUMP JUMPDEST SWAP2 POP PUSH2 0x35B6 DUP3 PUSH2 0x3577 JUMP JUMPDEST PUSH1 0x20 DUP3 ADD SWAP1 POP SWAP2 SWAP1 POP JUMP JUMPDEST PUSH0 PUSH1 0x20 DUP3 ADD SWAP1 POP DUP2 DUP2 SUB PUSH0 DUP4 ADD MSTORE PUSH2 0x35D8 DUP2 PUSH2 0x359F JUMP JUMPDEST SWAP1 POP SWAP2 SWAP1 POP JUMP JUMPDEST PUSH0 DUP2 SWAP1 POP SWAP3 SWAP2 POP POP JUMP JUMPDEST PUSH32 0x7265676973746572426174636800000000000000000000000000000000000000 PUSH0 DUP3 ADD MSTORE POP JUMP JUMPDEST PUSH0 PUSH2 0x361D PUSH1 0xD DUP4 PUSH2 0x35DF JUMP JUMPDEST SWAP2 POP PUSH2 0x3628 DUP3 PUSH2 0x35E9 JUMP JUMPDEST PUSH1 0xD DUP3 ADD SWAP1 POP SWAP2 SWAP1 POP JUMP JUMPDEST PUSH0 PUSH2 0x363D DUP3 PUSH2 0x3611 JUMP JUMPDEST SWAP2 POP DUP2 SWAP1 POP SWAP2 SWAP1 POP JUMP JUMPDEST PUSH0 PUSH2 0x3651 DUP3 PUSH2 0x2BCB JUMP JUMPDEST PUSH2 0x365B DUP2 DUP6 PUSH2 0x35DF JUMP JUMPDEST SWAP4 POP PUSH2 0x366B DUP2 DUP6 PUSH1 0x20 DUP7 ADD PUSH2 0x2BE5 JUMP JUMPDEST DUP1 DUP5 ADD SWAP2 POP POP SWAP3 SWAP2 POP POP JUMP JUMPDEST PUSH0 PUSH2 0x3682 DUP3 DUP5 PUSH2 0x3647 JUMP JUMPDEST SWAP2 POP DUP2 SWAP1 POP SWAP3 SWAP2 POP POP JUMP JUMPDEST PUSH32 0x426174636820494473206D75737420626520656D70747920666F722072656769 PUSH0 DUP3 ADD MSTORE PUSH32 0x7374726174696F6E000000000000000000000000000000000000000000000000 PUSH1 0x20 DUP3 ADD MSTORE POP JUMP JUMPDEST PUSH0 PUSH2 0x36E7 PUSH1 0x28 DUP4 PUSH2 0x2CFC JUMP JUMPDEST SWAP2 POP PUSH2 0x36F2 DUP3 PUSH2 0x368D JUMP JUMPDEST PUSH1 0x40 DUP3 ADD SWAP1 POP SWAP2 SWAP1 POP JUMP JUMPDEST PUSH0 PUSH1 0x20 DUP3 ADD SWAP1 POP DUP2 DUP2 SUB PUSH0 DUP4 ADD MSTORE PUSH2 0x3714 DUP2 PUSH2 0x36DB JUMP JUMPDEST SWAP1 POP SWAP2 SWAP1 POP JUMP JUMPDEST PUSH32 0x4E487B7100000000000000000000000000000000000000000000000000000000 PUSH0 MSTORE PUSH1 0x11 PUSH1 0x4 MSTORE PUSH1 0x24 PUSH0 REVERT JUMPDEST PUSH0 PUSH2 0x3752 DUP3 PUSH2 0x289C JUMP JUMPDEST SWAP2 POP PUSH32 0xFFFFFFFFFFFFFFFFFFFFFFFFFFFFFFFFFFFFFFFFFFFFFFFFFFFFFFFFFFFFFFFF DUP3 SUB PUSH2 0x3784 JUMPI PUSH2 0x3783 PUSH2 0x371B JUMP JUMPDEST JUMPDEST PUSH1 0x1 DUP3 ADD SWAP1 POP SWAP2 SWAP1 POP JUMP JUMPDEST PUSH0 DUP2 SWAP1 POP DUP2 PUSH0 MSTORE PUSH1 0x20 PUSH0 KECCAK256 SWAP1 POP SWAP2 SWAP1 POP JUMP JUMPDEST PUSH0 PUSH1 0x20 PUSH1 0x1F DUP4 ADD DIV SWAP1 POP SWAP2 SWAP1 POP JUMP JUMPDEST PUSH0 DUP3 DUP3 SHL SWAP1 POP SWAP3 SWAP2 POP POP JUMP JUMPDEST PUSH0 PUSH1 0x8 DUP4 MUL PUSH2 0x37EB PUSH32 0xFFFFFFFFFFFFFFFFFFFFFFFFFFFFFFFFFFFFFFFFFFFFFFFFFFFFFFFFFFFFFFFF DUP3 PUSH2 0x37B0 JUMP JUMPDEST PUSH2 0x37F5 DUP7 DUP4 PUSH2 0x37B0 JUMP JUMPDEST SWAP6 POP DUP1 NOT DUP5 AND SWAP4 POP DUP1 DUP7 AND DUP5 OR SWAP3 POP POP POP SWAP4 SWAP3 POP POP POP JUMP JUMPDEST PUSH0 DUP2 SWAP1 POP SWAP2 SWAP1 POP JUMP JUMPDEST PUSH0 PUSH2 0x3830 PUSH2 0x382B PUSH2 0x3826 DUP5 PUSH2 0x289C JUMP JUMPDEST PUSH2 0x380D JUMP JUMPDEST PUSH2 0x289C JUMP JUMPDEST SWAP1 POP SWAP2 SWAP1 POP JUMP JUMPDEST PUSH0 DUP2 SWAP1 POP SWAP2 SWAP1 POP JUMP JUMPDEST PUSH2 0x3849 DUP4 PUSH2 0x3816 JUMP JUMPDEST PUSH2 0x385D PUSH2 0x3855 DUP3 PUSH2 0x3837 JUMP JUMPDEST DUP5 DUP5 SLOAD PUSH2 0x37BC JUMP JUMPDEST DUP3 SSTORE POP POP POP POP JUMP JUMPDEST PUSH0 SWAP1 JUMP JUMPDEST PUSH2 0x3871 PUSH2 0x3865 JUMP JUMPDEST PUSH2 0x387C DUP2 DUP5 DUP5 PUSH2 0x3840 JUMP JUMPDEST POP POP POP JUMP JUMPDEST JUMPDEST DUP2 DUP2 LT ISZERO PUSH2 0x389F JUMPI PUSH2 0x3894 PUSH0 DUP3 PUSH2 0x3869 JUMP JUMPDEST PUSH1 0x1 DUP2 ADD SWAP1 POP PUSH2 0x3882 JUMP JUMPDEST POP POP JUMP JUMPDEST PUSH1 0x1F DUP3 GT ISZERO PUSH2 0x38E4 JUMPI PUSH2 0x38B5 DUP2 PUSH2 0x378F JUMP JUMPDEST PUSH2 0x38BE DUP5 PUSH2 0x37A1 JUMP JUMPDEST DUP2 ADD PUSH1 0x20 DUP6 LT ISZERO PUSH2 0x38CD JUMPI DUP2 SWAP1 POP JUMPDEST PUSH2 0x38E1 PUSH2 0x38D9 DUP6 PUSH2 0x37A1 JUMP JUMPDEST DUP4 ADD DUP3 PUSH2 0x3881 JUMP JUMPDEST POP POP JUMPDEST POP POP POP JUMP JUMPDEST PUSH0 DUP3 DUP3 SHR SWAP1 POP SWAP3 SWAP2 POP POP JUMP JUMPDEST PUSH0 PUSH2 0x3904 PUSH0 NOT DUP5 PUSH1 0x8 MUL PUSH2 0x38E9 JUMP JUMPDEST NOT DUP1 DUP4 AND SWAP2 POP POP SWAP3 SWAP2 POP POP JUMP JUMPDEST PUSH0 PUSH2 0x391C DUP4 DUP4 PUSH2 0x38F5 JUMP JUMPDEST SWAP2 POP DUP3 PUSH1 0x2 MUL DUP3 OR SWAP1 POP SWAP3 SWAP2 POP POP JUMP JUMPDEST PUSH2 0x3935 DUP3 PUSH2 0x2BCB JUMP JUMPDEST PUSH8 0xFFFFFFFFFFFFFFFF DUP2 GT ISZERO PUSH2 0x394E JUMPI PUSH2 0x394D PUSH2 0x28E7 JUMP JUMPDEST JUMPDEST PUSH2 0x3958 DUP3 SLOAD PUSH2 0x3547 JUMP JUMPDEST PUSH2 0x3963 DUP3 DUP3 DUP6 PUSH2 0x38A3 JUMP JUMPDEST PUSH0 PUSH1 0x20 SWAP1 POP PUSH1 0x1F DUP4 GT PUSH1 0x1 DUP2 EQ PUSH2 0x3994 JUMPI PUSH0 DUP5 ISZERO PUSH2 0x3982 JUMPI DUP3 DUP8 ADD MLOAD SWAP1 POP JUMPDEST PUSH2 0x398C DUP6 DUP3 PUSH2 0x3911 JUMP JUMPDEST DUP7 SSTORE POP PUSH2 0x39F3 JUMP JUMPDEST PUSH1 0x1F NOT DUP5 AND PUSH2 0x39A2 DUP7 PUSH2 0x378F JUMP JUMPDEST PUSH0 JUMPDEST DUP3 DUP2 LT ISZERO PUSH2 0x39C9 JUMPI DUP5 DUP10 ADD MLOAD DUP3 SSTORE PUSH1 0x1 DUP3 ADD SWAP2 POP PUSH1 0x20 DUP6 ADD SWAP5 POP PUSH1 0x20 DUP2 ADD SWAP1 POP PUSH2 0x39A4 JUMP JUMPDEST DUP7 DUP4 LT ISZERO PUSH2 0x39E6 JUMPI DUP5 DUP10 ADD MLOAD PUSH2 0x39E2 PUSH1 0x1F DUP10 AND DUP3 PUSH2 0x38F5 JUMP JUMPDEST DUP4 SSTORE POP JUMPDEST PUSH1 0x1 PUSH1 0x2 DUP9 MUL ADD DUP9 SSTORE POP POP POP JUMPDEST POP POP POP POP POP POP JUMP JUMPDEST PUSH32 0x7472616E73666572426174636800000000000000000000000000000000000000 PUSH0 DUP3 ADD MSTORE POP JUMP JUMPDEST PUSH0 PUSH2 0x3A2F PUSH1 0xD DUP4 PUSH2 0x35DF JUMP JUMPDEST SWAP2 POP PUSH2 0x3A3A DUP3 PUSH2 0x39FB JUMP JUMPDEST PUSH1 0xD DUP3 ADD SWAP1 POP SWAP2 SWAP1 POP JUMP JUMPDEST PUSH0 PUSH2 0x3A4F DUP3 PUSH2 0x3A23 JUMP JUMPDEST SWAP2 POP DUP2 SWAP1 POP SWAP2 SWAP1 POP JUMP JUMPDEST PUSH32 0x726563616C6C4261746368000000000000000000000000000000000000000000 PUSH0 DUP3 ADD MSTORE POP JUMP JUMPDEST PUSH0 PUSH2 0x3A8D PUSH1 0xB DUP4 PUSH2 0x35DF JUMP JUMPDEST SWAP2 POP PUSH2 0x3A98 DUP3 PUSH2 0x3A59 JUMP JUMPDEST PUSH1 0xB DUP3 ADD SWAP1 POP SWAP2 SWAP1 POP JUMP JUMPDEST PUSH0 PUSH2 0x3AAD DUP3 PUSH2 0x3A81 JUMP JUMPDEST SWAP2 POP DUP2 SWAP1 POP SWAP2 SWAP1 POP JUMP JUMPDEST PUSH32 0x496E76616C6964206F7065726174696F6E000000000000000000000000000000 PUSH0 DUP3 ADD MSTORE POP JUMP JUMPDEST PUSH0 PUSH2 0x3AEB PUSH1 0x11 DUP4 PUSH2 0x2CFC JUMP JUMPDEST SWAP2 POP PUSH2 0x3AF6 DUP3 PUSH2 0x3AB7 JUMP JUMPDEST PUSH1 0x20 DUP3 ADD SWAP1 POP SWAP2 SWAP1 POP JUMP JUMPDEST PUSH0 PUSH1 0x20 DUP3 ADD SWAP1 POP DUP2 DUP2 SUB PUSH0 DUP4 ADD MSTORE PUSH2 0x3B18 DUP2 PUSH2 0x3ADF JUMP JUMPDEST SWAP1 POP SWAP2 SWAP1 POP JUMP JUMPDEST PUSH0 DUP2 SLOAD PUSH2 0x3B2B DUP2 PUSH2 0x3547 JUMP JUMPDEST PUSH2 0x3B35 DUP2 DUP7 PUSH2 0x2CFC JUMP JUMPDEST SWAP5 POP PUSH1 0x1 DUP3 AND PUSH0 DUP2 EQ PUSH2 0x3B4F JUMPI PUSH1 0x1 DUP2 EQ PUSH2 0x3B65 JUMPI PUSH2 0x3B97 JUMP JUMPDEST PUSH1 0xFF NOT DUP4 AND DUP7 MSTORE DUP2 ISZERO ISZERO PUSH1 0x20 MUL DUP7 ADD SWAP4 POP PUSH2 0x3B97 JUMP JUMPDEST PUSH2 0x3B6E DUP6 PUSH2 0x378F JUMP JUMPDEST PUSH0 JUMPDEST DUP4 DUP2 LT ISZERO PUSH2 0x3B8F JUMPI DUP2 SLOAD DUP2 DUP10 ADD MSTORE PUSH1 0x1 DUP3 ADD SWAP2 POP PUSH1 0x20 DUP2 ADD SWAP1 POP PUSH2 0x3B70 JUMP JUMPDEST DUP1 DUP9 ADD SWAP6 POP POP POP JUMPDEST POP POP POP SWAP3 SWAP2 POP POP JUMP JUMPDEST PUSH0 PUSH1 0x20 DUP3 ADD SWAP1 POP DUP2 DUP2 SUB PUSH0 DUP4 ADD MSTORE PUSH2 0x3BB8 DUP2 DUP5 PUSH2 0x3B1F JUMP JUMPDEST SWAP1 POP SWAP3 SWAP2 POP POP JUMP JUMPDEST PUSH32 0x496E76616C69642070726F647563742049440000000000000000000000000000 PUSH0 DUP3 ADD MSTORE POP JUMP JUMPDEST PUSH0 PUSH2 0x3BF4 PUSH1 0x12 DUP4 PUSH2 0x2CFC JUMP JUMPDEST SWAP2 POP PUSH2 0x3BFF DUP3 PUSH2 0x3BC0 JUMP JUMPDEST PUSH1 0x20 DUP3 ADD SWAP1 POP SWAP2 SWAP1 POP JUMP JUMPDEST PUSH0 PUSH1 0x20 DUP3 ADD SWAP1 POP DUP2 DUP2 SUB PUSH0 DUP4 ADD MSTORE PUSH2 0x3C21 DUP2 PUSH2 0x3BE8 JUMP JUMPDEST SWAP1 POP SWAP2 SWAP1 POP JUMP JUMPDEST PUSH32 0x526563616C6C65642070726F64756374732063616E6E6F74206265207472616E PUSH0 DUP3 ADD MSTORE PUSH32 0x7366657272656400000000000000000000000000000000000000000000000000 PUSH1 0x20 DUP3 ADD MSTORE POP JUMP JUMPDEST PUSH0 PUSH2 0x3C82 PUSH1 0x27 DUP4 PUSH2 0x2CFC JUMP JUMPDEST SWAP2 POP PUSH2 0x3C8D DUP3 PUSH2 0x3C28 JUMP JUMPDEST PUSH1 0x40 DUP3 ADD SWAP1 POP SWAP2 SWAP1 POP JUMP JUMPDEST PUSH0 PUSH1 0x20 DUP3 ADD SWAP1 POP DUP2 DUP2 SUB PUSH0 DUP4 ADD MSTORE PUSH2 0x3CAF DUP2 PUSH2 0x3C76 JUMP JUMPDEST SWAP1 POP SWAP2 SWAP1 POP JUMP JUMPDEST PUSH32 0x496E76616C6964206E6577206F776E6572206164647265737300000000000000 PUSH0 DUP3 ADD MSTORE POP JUMP JUMPDEST PUSH0 PUSH2 0x3CEA PUSH1 0x19 DUP4 PUSH2 0x2CFC JUMP JUMPDEST SWAP2 POP PUSH2 0x3CF5 DUP3 PUSH2 0x3CB6 JUMP JUMPDEST PUSH1 0x20 DUP3 ADD SWAP1 POP SWAP2 SWAP1 POP JUMP JUMPDEST PUSH0 PUSH1 0x20 DUP3 ADD SWAP1 POP DUP2 DUP2 SUB PUSH0 DUP4 ADD MSTORE PUSH2 0x3D17 DUP2 PUSH2 0x3CDE JUMP JUMPDEST SWAP1 POP SWAP2 SWAP1 POP JUMP JUMPDEST PUSH32 0x4E6577206F776E6572206973206E6F7420617574686F72697A65640000000000 PUSH0 DUP3 ADD MSTORE POP JUMP JUMPDEST PUSH0 PUSH2 0x3D52 PUSH1 0x1B DUP4 PUSH2 0x2CFC JUMP JUMPDEST SWAP2 POP PUSH2 0x3D5D DUP3 PUSH2 0x3D1E JUMP JUMPDEST PUSH1 0x20 DUP3 ADD SWAP1 POP SWAP2 SWAP1 POP JUMP JUMPDEST PUSH0 PUSH1 0x20 DUP3 ADD SWAP1 POP DUP2 DUP2 SUB PUSH0 DUP4 ADD MSTORE PUSH2 0x3D7F DUP2 PUSH2 0x3D46 JUMP JUMPDEST SWAP1 POP SWAP2 SWAP1 POP JUMP JUMPDEST PUSH32 0x4F6E6C792063757272656E74206F776E65722063616E207472616E7366657200 PUSH0 DUP3 ADD MSTORE POP JUMP JUMPDEST PUSH0 PUSH2 0x3DBA PUSH1 0x1F DUP4 PUSH2 0x2CFC JUMP JUMPDEST SWAP2 POP PUSH2 0x3DC5 DUP3 PUSH2 0x3D86 JUMP JUMPDEST PUSH1 0x20 DUP3 ADD SWAP1 POP SWAP2 SWAP1 POP JUMP JUMPDEST PUSH0 PUSH1 0x20 DUP3 ADD SWAP1 POP DUP2 DUP2 SUB PUSH0 DUP4 ADD MSTORE PUSH2 0x3DE7 DUP2 PUSH2 0x3DAE JUMP JUMPDEST SWAP1 POP SWAP2 SWAP1 POP JUMP JUMPDEST PUSH32 0x4E616D652063616E6E6F7420626520656D707479000000000000000000000000 PUSH0 DUP3 ADD MSTORE POP JUMP JUMPDEST PUSH0 PUSH2 0x3E22 PUSH1 0x14 DUP4 PUSH2 0x2CFC JUMP JUMPDEST SWAP2 POP PUSH2 0x3E2D DUP3 PUSH2 0x3DEE JUMP JUMPDEST PUSH1 0x20 DUP3 ADD SWAP1 POP SWAP2 SWAP1 POP JUMP JUMPDEST PUSH0 PUSH1 0x20 DUP3 ADD SWAP1 POP DUP2 DUP2 SUB PUSH0 DUP4 ADD MSTORE PUSH2 0x3E4F DUP2 PUSH2 0x3E16 JUMP JUMPDEST SWAP1 POP SWAP2 SWAP1 POP JUMP JUMPDEST PUSH32 0x4465736372697074696F6E2063616E6E6F7420626520656D7074790000000000 PUSH0 DUP3 ADD MSTORE POP JUMP JUMPDEST PUSH0 PUSH2 0x3E8A PUSH1 0x1B DUP4 PUSH2 0x2CFC JUMP JUMPDEST SWAP2 POP PUSH2 0x3E95 DUP3 PUSH2 0x3E56 JUMP JUMPDEST PUSH1 0x20 DUP3 ADD SWAP1 POP SWAP2 SWAP1 POP JUMP JUMPDEST PUSH0 PUSH1 0x20 DUP3 ADD SWAP1 POP DUP2 DUP2 SUB PUSH0 DUP4 ADD MSTORE PUSH2 0x3EB7 DUP2 PUSH2 0x3E7E JUMP JUMPDEST SWAP1 POP SWAP2 SWAP1 POP JUMP JUMPDEST PUSH32 0x50726F6475637420646F65736E74206578697374730000000000000000000000 PUSH0 DUP3 ADD MSTORE POP JUMP JUMPDEST PUSH0 PUSH2 0x3EF2 PUSH1 0x15 DUP4 PUSH2 0x2CFC JUMP JUMPDEST SWAP2 POP PUSH2 0x3EFD DUP3 PUSH2 0x3EBE JUMP JUMPDEST PUSH1 0x20 DUP3 ADD SWAP1 POP SWAP2 SWAP1 POP JUMP JUMPDEST PUSH0 PUSH1 0x20 DUP3 ADD SWAP1 POP DUP2 DUP2 SUB PUSH0 DUP4 ADD MSTORE PUSH2 0x3F1F DUP2 PUSH2 0x3EE6 JUMP JUMPDEST SWAP1 POP SWAP2 SWAP1 POP JUMP JUMPDEST PUSH32 0x416C726561647920726563616C6C656400000000000000000000000000000000 PUSH0 DUP3 ADD MSTORE POP JUMP JUMPDEST PUSH0 PUSH2 0x3F5A PUSH1 0x10 DUP4 PUSH2 0x2CFC JUMP JUMPDEST SWAP2 POP PUSH2 0x3F65 DUP3 PUSH2 0x3F26 JUMP JUMPDEST PUSH1 0x20 DUP3 ADD SWAP1 POP SWAP2 SWAP1 POP JUMP JUMPDEST PUSH0 PUSH1 0x20 DUP3 ADD SWAP1 POP DUP2 DUP2 SUB PUSH0 DUP4 ADD MSTORE PUSH2 0x3F87 DUP2 PUSH2 0x3F4E JUMP JUMPDEST SWAP1 POP SWAP2 SWAP1 POP JUMP JUMPDEST PUSH32 0x4E6F7420746865206F776E657200000000000000000000000000000000000000 PUSH0 DUP3 ADD MSTORE POP JUMP JUMPDEST PUSH0 PUSH2 0x3FC2 PUSH1 0xD DUP4 PUSH2 0x2CFC JUMP JUMPDEST SWAP2 POP PUSH2 0x3FCD DUP3 PUSH2 0x3F8E JUMP JUMPDEST PUSH1 0x20 DUP3 ADD SWAP1 POP SWAP2 SWAP1 POP JUMP JUMPDEST PUSH0 PUSH1 0x20 DUP3 ADD SWAP1 POP DUP2 DUP2 SUB PUSH0 DUP4 ADD MSTORE PUSH2 0x3FEF DUP2 PUSH2 0x3FB6 JUMP JUMPDEST SWAP1 POP SWAP2 SWAP1 POP JUMP JUMPDEST PUSH32 0x496E76616C696420616464726573730000000000000000000000000000000000 PUSH0 DUP3 ADD MSTORE POP JUMP JUMPDEST PUSH0 PUSH2 0x402A PUSH1 0xF DUP4 PUSH2 0x2CFC JUMP JUMPDEST SWAP2 POP PUSH2 0x4035 DUP3 PUSH2 0x3FF6 JUMP JUMPDEST PUSH1 0x20 DUP3 ADD SWAP1 POP SWAP2 SWAP1 POP JUMP JUMPDEST PUSH0 PUSH1 0x20 DUP3 ADD SWAP1 POP DUP2 DUP2 SUB PUSH0 DUP4 ADD MSTORE PUSH2 0x4057 DUP2 PUSH2 0x401E JUMP JUMPDEST SWAP1 POP SWAP2 SWAP1 POP JUMP JUMPDEST PUSH32 0x5061727469636970616E7420616C726561647920617574686F72697A65640000 PUSH0 DUP3 ADD MSTORE POP JUMP JUMPDEST PUSH0 PUSH2 0x4092 PUSH1 0x1E DUP4 PUSH2 0x2CFC JUMP JUMPDEST SWAP2 POP PUSH2 0x409D DUP3 PUSH2 0x405E JUMP JUMPDEST PUSH1 0x20 DUP3 ADD SWAP1 POP SWAP2 SWAP1 POP JUMP JUMPDEST PUSH0 PUSH1 0x20 DUP3 ADD SWAP1 POP DUP2 DUP2 SUB PUSH0 DUP4 ADD MSTORE PUSH2 0x40BF DUP2 PUSH2 0x4086 JUMP JUMPDEST SWAP1 POP SWAP2 SWAP1 POP JUMP JUMPDEST PUSH32 0x466F7220726567697374657242617463682C204944206C697374206D75737420 PUSH0 DUP3 ADD MSTORE PUSH32 0x626520656D707479000000000000000000000000000000000000000000000000 PUSH1 0x20 DUP3 ADD MSTORE POP JUMP JUMPDEST PUSH0 PUSH2 0x4120 PUSH1 0x28 DUP4 PUSH2 0x2CFC JUMP JUMPDEST SWAP2 POP PUSH2 0x412B DUP3 PUSH2 0x40C6 JUMP JUMPDEST PUSH1 0x40 DUP3 ADD SWAP1 POP SWAP2 SWAP1 POP JUMP JUMPDEST PUSH0 PUSH1 0x20 DUP3 ADD SWAP1 POP DUP2 DUP2 SUB PUSH0 DUP4 ADD MSTORE PUSH2 0x414D DUP2 PUSH2 0x4114 JUMP JUMPDEST SWAP1 POP SWAP2 SWAP1 POP JUMP JUMPDEST PUSH32 0x4E616D6520616E64206465736372697074696F6E206C69737473206D75737420 PUSH0 DUP3 ADD MSTORE PUSH32 0x6D6174636820696E206C656E6774680000000000000000000000000000000000 PUSH1 0x20 DUP3 ADD MSTORE POP JUMP JUMPDEST PUSH0 PUSH2 0x41AE PUSH1 0x2F DUP4 PUSH2 0x2CFC JUMP JUMPDEST SWAP2 POP PUSH2 0x41B9 DUP3 PUSH2 0x4154 JUMP JUMPDEST PUSH1 0x40 DUP3 ADD SWAP1 POP SWAP2 SWAP1 POP JUMP JUMPDEST PUSH0 PUSH1 0x20 DUP3 ADD SWAP1 POP DUP2 DUP2 SUB PUSH0 DUP4 ADD MSTORE PUSH2 0x41DB DUP2 PUSH2 0x41A2 JUMP JUMPDEST SWAP1 POP SWAP2 SWAP1 POP JUMP JUMPDEST PUSH32 0x4944206C6973742063616E6E6F7420626520656D70747920666F72206E6F6E2D PUSH0 DUP3 ADD MSTORE PUSH32 0x7265676973746572206F7065726174696F6E7300000000000000000000000000 PUSH1 0x20 DUP3 ADD MSTORE POP JUMP JUMPDEST PUSH0 PUSH2 0x423C PUSH1 0x33 DUP4 PUSH2 0x2CFC JUMP JUMPDEST SWAP2 POP PUSH2 0x4247 DUP3 PUSH2 0x41E2 JUMP JUMPDEST PUSH1 0x40 DUP3 ADD SWAP1 POP SWAP2 SWAP1 POP JUMP JUMPDEST PUSH0 PUSH1 0x20 DUP3 ADD SWAP1 POP DUP2 DUP2 SUB PUSH0 DUP4 ADD MSTORE PUSH2 0x4269 DUP2 PUSH2 0x4230 JUMP JUMPDEST SWAP1 POP SWAP2 SWAP1 POP JUMP JUMPDEST PUSH32 0x494420616E64206E616D65206C69737473206D757374206D6174636820696E20 PUSH0 DUP3 ADD MSTORE PUSH32 0x6C656E6774680000000000000000000000000000000000000000000000000000 PUSH1 0x20 DUP3 ADD MSTORE POP JUMP JUMPDEST PUSH0 PUSH2 0x42CA PUSH1 0x26 DUP4 PUSH2 0x2CFC JUMP JUMPDEST SWAP2 POP PUSH2 0x42D5 DUP3 PUSH2 0x4270 JUMP JUMPDEST PUSH1 0x40 DUP3 ADD SWAP1 POP SWAP2 SWAP1 POP JUMP JUMPDEST PUSH0 PUSH1 0x20 DUP3 ADD SWAP1 POP DUP2 DUP2 SUB PUSH0 DUP4 ADD MSTORE PUSH2 0x42F7 DUP2 PUSH2 0x42BE JUMP JUMPDEST SWAP1 POP SWAP2 SWAP1 POP JUMP JUMPDEST PUSH32 0x494420616E64206465736372697074696F6E206C69737473206D757374206D61 PUSH0 DUP3 ADD MSTORE PUSH32 0x74636820696E206C656E67746800000000000000000000000000000000000000 PUSH1 0x20 DUP3 ADD MSTORE POP JUMP JUMPDEST PUSH0 PUSH2 0x4358 PUSH1 0x2D DUP4 PUSH2 0x2CFC JUMP JUMPDEST SWAP2 POP PUSH2 0x4363 DUP3 PUSH2 0x42FE JUMP JUMPDEST PUSH1 0x40 DUP3 ADD SWAP1 POP SWAP2 SWAP1 POP JUMP JUMPDEST PUSH0 PUSH1 0x20 DUP3 ADD SWAP1 POP DUP2 DUP2 SUB PUSH0 DUP4 ADD MSTORE PUSH2 0x4385 DUP2 PUSH2 0x434C JUMP JUMPDEST SWAP1 POP SWAP2 SWAP1 POP JUMP JUMPDEST PUSH32 0x4E616D65206C6973742063616E6E6F7420626520656D70747900000000000000 PUSH0 DUP3 ADD MSTORE POP JUMP JUMPDEST PUSH0 PUSH2 0x43C0 PUSH1 0x19 DUP4 PUSH2 0x2CFC JUMP JUMPDEST SWAP2 POP PUSH2 0x43CB DUP3 PUSH2 0x438C JUMP JUMPDEST PUSH1 0x20 DUP3 ADD SWAP1 POP SWAP2 SWAP1 POP JUMP JUMPDEST PUSH0 PUSH1 0x20 DUP3 ADD SWAP1 POP DUP2 DUP2 SUB PUSH0 DUP4 ADD MSTORE PUSH2 0x43ED DUP2 PUSH2 0x43B4 JUMP JUMPDEST SWAP1 POP SWAP2 SWAP1 POP JUMP JUMPDEST PUSH32 0x4465736372697074696F6E206C6973742063616E6E6F7420626520656D707479 PUSH0 DUP3 ADD MSTORE POP JUMP JUMPDEST PUSH0 PUSH2 0x4428 PUSH1 0x20 DUP4 PUSH2 0x2CFC JUMP JUMPDEST SWAP2 POP PUSH2 0x4433 DUP3 PUSH2 0x43F4 JUMP JUMPDEST PUSH1 0x20 DUP3 ADD SWAP1 POP SWAP2 SWAP1 POP JUMP JUMPDEST PUSH0 PUSH1 0x20 DUP3 ADD SWAP1 POP DUP2 DUP2 SUB PUSH0 DUP4 ADD MSTORE PUSH2 0x4455 DUP2 PUSH2 0x441C JUMP JUMPDEST SWAP1 POP SWAP2 SWAP1 POP JUMP INVALID LOG2 PUSH5 0x6970667358 0x22 SLT KECCAK256 COINBASE ADDMOD MSIZE SWAP2 0x4E 0x1E PUSH3 0xF4A127 0xED INVALID BYTE 0xD8 0xCE 0xE6 DIV GAS 0x4F 0xF8 0xC5 CHAINID DUP12 PUSH20 0xC4BF913C8DEEA5FC64736F6C634300081A003300 "
				},
				"gasEstimates": {
					"creation": {
						"codeDepositCost": "3510800",
						"executionCost": "63735",
						"totalCost": "3574535"
					},
					"external": {
						"addParticipant(address)": "27035",
						"authorizeParticipant(address)": "30429",
						"authorizedParticipants(address)": "2900",
						"batchCount()": "2471",
						"batchExists(uint256)": "2860",
						"batches(uint256)": "infinite",
						"createBatch(uint256[],string[],string[],string)": "infinite",
						"getBatch(uint256)": "infinite",
						"getProduct(uint256)": "infinite",
						"operationConvert(uint256)": "infinite",
						"owner()": "2594",
						"processBatch(uint256,address,string,string)": "infinite",
						"productCount()": "2513",
						"productExists(uint256)": "infinite",
						"products(uint256)": "infinite",
						"recallBatch(uint256,string)": "infinite",
						"recallProduct(uint256,string)": "infinite",
						"registerProduct(string,string)": "infinite",
						"stateRecalled(uint256)": "infinite",
						"transferProductOwnership(uint256,address)": "62517"
					}
				},
				"methodIdentifiers": {
					"addParticipant(address)": "dfafe10f",
					"authorizeParticipant(address)": "c5f8d584",
					"authorizedParticipants(address)": "8d28230b",
					"batchCount()": "06f13056",
					"batchExists(uint256)": "9ffaa71e",
					"batches(uint256)": "b32c4d8d",
					"createBatch(uint256[],string[],string[],string)": "f5f34413",
					"getBatch(uint256)": "5ac44282",
					"getProduct(uint256)": "b9db15b4",
					"operationConvert(uint256)": "cf9cd669",
					"owner()": "8da5cb5b",
					"processBatch(uint256,address,string,string)": "86734e5b",
					"productCount()": "e0f6ef87",
					"productExists(uint256)": "af55ed64",
					"products(uint256)": "7acc0b20",
					"recallBatch(uint256,string)": "04341422",
					"recallProduct(uint256,string)": "9ce0f973",
					"registerProduct(string,string)": "8fbd0dcf",
					"stateRecalled(uint256)": "3c9af587",
					"transferProductOwnership(uint256,address)": "86b0e812"
				}
			},
			"storageLayout": {
				"storage": [
					{
						"astId": 3,
						"contract": "contracts/w62.sol:SupplyChainContract",
						"label": "owner",
						"offset": 0,
						"slot": "0",
						"type": "t_address"
					},
					{
						"astId": 5,
						"contract": "contracts/w62.sol:SupplyChainContract",
						"label": "productCount",
						"offset": 0,
						"slot": "1",
						"type": "t_uint256"
					},
					{
						"astId": 7,
						"contract": "contracts/w62.sol:SupplyChainContract",
						"label": "batchCount",
						"offset": 0,
						"slot": "2",
						"type": "t_uint256"
					},
					{
						"astId": 11,
						"contract": "contracts/w62.sol:SupplyChainContract",
						"label": "authorizedParticipants",
						"offset": 0,
						"slot": "3",
						"type": "t_mapping(t_address,t_bool)"
					},
					{
						"astId": 16,
						"contract": "contracts/w62.sol:SupplyChainContract",
						"label": "products",
						"offset": 0,
						"slot": "4",
						"type": "t_mapping(t_uint256,t_struct(Product)34_storage)"
					},
					{
						"astId": 21,
						"contract": "contracts/w62.sol:SupplyChainContract",
						"label": "batches",
						"offset": 0,
						"slot": "5",
						"type": "t_mapping(t_uint256,t_struct(Batch)54_storage)"
					}
				],
				"types": {
					"t_address": {
						"encoding": "inplace",
						"label": "address",
						"numberOfBytes": "20"
					},
					"t_array(t_string_storage)dyn_storage": {
						"base": "t_string_storage",
						"encoding": "dynamic_array",
						"label": "string[]",
						"numberOfBytes": "32"
					},
					"t_array(t_uint256)dyn_storage": {
						"base": "t_uint256",
						"encoding": "dynamic_array",
						"label": "uint256[]",
						"numberOfBytes": "32"
					},
					"t_bool": {
						"encoding": "inplace",
						"label": "bool",
						"numberOfBytes": "1"
					},
					"t_mapping(t_address,t_bool)": {
						"encoding": "mapping",
						"key": "t_address",
						"label": "mapping(address => bool)",
						"numberOfBytes": "32",
						"value": "t_bool"
					},
					"t_mapping(t_uint256,t_struct(Batch)54_storage)": {
						"encoding": "mapping",
						"key": "t_uint256",
						"label": "mapping(uint256 => struct SupplyChainContract.Batch)",
						"numberOfBytes": "32",
						"value": "t_struct(Batch)54_storage"
					},
					"t_mapping(t_uint256,t_struct(Product)34_storage)": {
						"encoding": "mapping",
						"key": "t_uint256",
						"label": "mapping(uint256 => struct SupplyChainContract.Product)",
						"numberOfBytes": "32",
						"value": "t_struct(Product)34_storage"
					},
					"t_string_storage": {
						"encoding": "bytes",
						"label": "string",
						"numberOfBytes": "32"
					},
					"t_struct(Batch)54_storage": {
						"encoding": "inplace",
						"label": "struct SupplyChainContract.Batch",
						"members": [
							{
								"astId": 37,
								"contract": "contracts/w62.sol:SupplyChainContract",
								"label": "id",
								"offset": 0,
								"slot": "0",
								"type": "t_array(t_uint256)dyn_storage"
							},
							{
								"astId": 40,
								"contract": "contracts/w62.sol:SupplyChainContract",
								"label": "name",
								"offset": 0,
								"slot": "1",
								"type": "t_array(t_string_storage)dyn_storage"
							},
							{
								"astId": 43,
								"contract": "contracts/w62.sol:SupplyChainContract",
								"label": "description",
								"offset": 0,
								"slot": "2",
								"type": "t_array(t_string_storage)dyn_storage"
							},
							{
								"astId": 45,
								"contract": "contracts/w62.sol:SupplyChainContract",
								"label": "currentOwner",
								"offset": 0,
								"slot": "3",
								"type": "t_address"
							},
							{
								"astId": 47,
								"contract": "contracts/w62.sol:SupplyChainContract",
								"label": "timestamp",
								"offset": 0,
								"slot": "4",
								"type": "t_uint256"
							},
							{
								"astId": 49,
								"contract": "contracts/w62.sol:SupplyChainContract",
								"label": "isRecalled",
								"offset": 0,
								"slot": "5",
								"type": "t_bool"
							},
							{
								"astId": 51,
								"contract": "contracts/w62.sol:SupplyChainContract",
								"label": "batchId",
								"offset": 0,
								"slot": "6",
								"type": "t_uint256"
							},
							{
								"astId": 53,
								"contract": "contracts/w62.sol:SupplyChainContract",
								"label": "operation",
								"offset": 0,
								"slot": "7",
								"type": "t_string_storage"
							}
						],
						"numberOfBytes": "256"
					},
					"t_struct(Product)34_storage": {
						"encoding": "inplace",
						"label": "struct SupplyChainContract.Product",
						"members": [
							{
								"astId": 23,
								"contract": "contracts/w62.sol:SupplyChainContract",
								"label": "id",
								"offset": 0,
								"slot": "0",
								"type": "t_uint256"
							},
							{
								"astId": 25,
								"contract": "contracts/w62.sol:SupplyChainContract",
								"label": "name",
								"offset": 0,
								"slot": "1",
								"type": "t_string_storage"
							},
							{
								"astId": 27,
								"contract": "contracts/w62.sol:SupplyChainContract",
								"label": "description",
								"offset": 0,
								"slot": "2",
								"type": "t_string_storage"
							},
							{
								"astId": 29,
								"contract": "contracts/w62.sol:SupplyChainContract",
								"label": "currentOwner",
								"offset": 0,
								"slot": "3",
								"type": "t_address"
							},
							{
								"astId": 31,
								"contract": "contracts/w62.sol:SupplyChainContract",
								"label": "timestamp",
								"offset": 0,
								"slot": "4",
								"type": "t_uint256"
							},
							{
								"astId": 33,
								"contract": "contracts/w62.sol:SupplyChainContract",
								"label": "isRecalled",
								"offset": 0,
								"slot": "5",
								"type": "t_bool"
							}
						],
						"numberOfBytes": "192"
					},
					"t_uint256": {
						"encoding": "inplace",
						"label": "uint256",
						"numberOfBytes": "32"
					}
				}
			},
			"userdoc": {
				"kind": "user",
				"methods": {},
				"version": 1
			}
		}
	}
}