{
	"contracts/w5_LuckyDraw.sol": {
		"LuckyDraw": {
			"abi": [
				{
					"inputs": [
						{
							"internalType": "uint256",
							"name": "_ticketPrice",
							"type": "uint256"
						},
						{
							"internalType": "uint256",
							"name": "_totalTickets",
							"type": "uint256"
						},
						{
							"internalType": "uint256",
							"name": "_xWinners",
							"type": "uint256"
						}
					],
					"stateMutability": "nonpayable",
					"type": "constructor"
				},
				{
					"anonymous": false,
					"inputs": [
						{
							"indexed": false,
							"internalType": "address",
							"name": "sender",
							"type": "address"
						},
						{
							"indexed": false,
							"internalType": "uint256",
							"name": "value",
							"type": "uint256"
						},
						{
							"indexed": false,
							"internalType": "bytes",
							"name": "data",
							"type": "bytes"
						}
					],
					"name": "LogFallBack",
					"type": "event"
				},
				{
					"anonymous": false,
					"inputs": [
						{
							"indexed": false,
							"internalType": "address",
							"name": "winner",
							"type": "address"
						},
						{
							"indexed": false,
							"internalType": "uint256",
							"name": "wins",
							"type": "uint256"
						}
					],
					"name": "NewWinnerAdded",
					"type": "event"
				},
				{
					"anonymous": false,
					"inputs": [
						{
							"indexed": false,
							"internalType": "address[]",
							"name": "part",
							"type": "address[]"
						}
					],
					"name": "ParticipantArray",
					"type": "event"
				},
				{
					"anonymous": false,
					"inputs": [
						{
							"indexed": false,
							"internalType": "uint256",
							"name": "before",
							"type": "uint256"
						},
						{
							"indexed": false,
							"internalType": "uint256",
							"name": "newPrice",
							"type": "uint256"
						}
					],
					"name": "TicketPriceChanged",
					"type": "event"
				},
				{
					"anonymous": false,
					"inputs": [
						{
							"indexed": false,
							"internalType": "address",
							"name": "addr",
							"type": "address"
						},
						{
							"indexed": false,
							"internalType": "uint256",
							"name": "amt",
							"type": "uint256"
						}
					],
					"name": "TicketPurchashed",
					"type": "event"
				},
				{
					"anonymous": false,
					"inputs": [
						{
							"indexed": false,
							"internalType": "address[]",
							"name": "winners",
							"type": "address[]"
						}
					],
					"name": "WinnersDrawn",
					"type": "event"
				},
				{
					"anonymous": false,
					"inputs": [
						{
							"indexed": false,
							"internalType": "address",
							"name": "winners",
							"type": "address"
						}
					],
					"name": "WinnersGuy",
					"type": "event"
				},
				{
					"anonymous": false,
					"inputs": [
						{
							"indexed": false,
							"internalType": "uint256",
							"name": "a",
							"type": "uint256"
						},
						{
							"indexed": false,
							"internalType": "uint256",
							"name": "b",
							"type": "uint256"
						},
						{
							"indexed": false,
							"internalType": "uint256",
							"name": "c",
							"type": "uint256"
						},
						{
							"indexed": false,
							"internalType": "uint256",
							"name": "d",
							"type": "uint256"
						}
					],
					"name": "loglog",
					"type": "event"
				},
				{
					"stateMutability": "payable",
					"type": "fallback"
				},
				{
					"inputs": [],
					"name": "availableTickets",
					"outputs": [
						{
							"internalType": "uint256",
							"name": "",
							"type": "uint256"
						}
					],
					"stateMutability": "view",
					"type": "function"
				},
				{
					"inputs": [
						{
							"internalType": "uint256",
							"name": "numberOfTicket",
							"type": "uint256"
						}
					],
					"name": "buyTicket",
					"outputs": [],
					"stateMutability": "payable",
					"type": "function"
				},
				{
					"inputs": [],
					"name": "consumedTickets",
					"outputs": [
						{
							"internalType": "uint256",
							"name": "",
							"type": "uint256"
						}
					],
					"stateMutability": "view",
					"type": "function"
				},
				{
					"inputs": [
						{
							"internalType": "uint256",
							"name": "numberOfWinners",
							"type": "uint256"
						}
					],
					"name": "drawWinners",
					"outputs": [],
					"stateMutability": "nonpayable",
					"type": "function"
				},
				{
					"inputs": [],
					"name": "getAvailableTickets",
					"outputs": [
						{
							"internalType": "uint256",
							"name": "",
							"type": "uint256"
						}
					],
					"stateMutability": "view",
					"type": "function"
				},
				{
					"inputs": [],
					"name": "getConsumedTickets",
					"outputs": [
						{
							"internalType": "uint256",
							"name": "",
							"type": "uint256"
						}
					],
					"stateMutability": "view",
					"type": "function"
				},
				{
					"inputs": [],
					"name": "getMyTickets",
					"outputs": [
						{
							"internalType": "uint256",
							"name": "",
							"type": "uint256"
						}
					],
					"stateMutability": "view",
					"type": "function"
				},
				{
					"inputs": [],
					"name": "getOverallAllHistoryWinners",
					"outputs": [
						{
							"components": [
								{
									"internalType": "address",
									"name": "userAddress",
									"type": "address"
								},
								{
									"internalType": "uint256",
									"name": "wins",
									"type": "uint256"
								}
							],
							"internalType": "struct LuckyDraw.PastWinners[]",
							"name": "",
							"type": "tuple[]"
						}
					],
					"stateMutability": "view",
					"type": "function"
				},
				{
					"inputs": [],
					"name": "getParticipants",
					"outputs": [
						{
							"internalType": "address[]",
							"name": "",
							"type": "address[]"
						}
					],
					"stateMutability": "view",
					"type": "function"
				},
				{
					"inputs": [],
					"name": "getPrizePool",
					"outputs": [
						{
							"internalType": "uint256",
							"name": "",
							"type": "uint256"
						}
					],
					"stateMutability": "view",
					"type": "function"
				},
				{
					"inputs": [],
					"name": "getTicketPrice",
					"outputs": [
						{
							"internalType": "uint256",
							"name": "",
							"type": "uint256"
						}
					],
					"stateMutability": "view",
					"type": "function"
				},
				{
					"inputs": [],
					"name": "getTotalTickets",
					"outputs": [
						{
							"internalType": "uint256",
							"name": "",
							"type": "uint256"
						}
					],
					"stateMutability": "view",
					"type": "function"
				},
				{
					"inputs": [],
					"name": "getWinnerHistory",
					"outputs": [
						{
							"internalType": "address[]",
							"name": "",
							"type": "address[]"
						}
					],
					"stateMutability": "view",
					"type": "function"
				},
				{
					"inputs": [],
					"name": "last_X_Winners",
					"outputs": [
						{
							"internalType": "uint256",
							"name": "",
							"type": "uint256"
						}
					],
					"stateMutability": "view",
					"type": "function"
				},
				{
					"inputs": [],
					"name": "owner",
					"outputs": [
						{
							"internalType": "address payable",
							"name": "",
							"type": "address"
						}
					],
					"stateMutability": "view",
					"type": "function"
				},
				{
					"inputs": [
						{
							"internalType": "uint256",
							"name": "",
							"type": "uint256"
						}
					],
					"name": "participants",
					"outputs": [
						{
							"internalType": "address",
							"name": "",
							"type": "address"
						}
					],
					"stateMutability": "view",
					"type": "function"
				},
				{
					"inputs": [
						{
							"internalType": "uint256",
							"name": "",
							"type": "uint256"
						}
					],
					"name": "pastWinners",
					"outputs": [
						{
							"internalType": "address",
							"name": "userAddress",
							"type": "address"
						},
						{
							"internalType": "uint256",
							"name": "wins",
							"type": "uint256"
						}
					],
					"stateMutability": "view",
					"type": "function"
				},
				{
					"inputs": [],
					"name": "prizePool",
					"outputs": [
						{
							"internalType": "uint256",
							"name": "",
							"type": "uint256"
						}
					],
					"stateMutability": "view",
					"type": "function"
				},
				{
					"inputs": [
						{
							"internalType": "uint256",
							"name": "newPrice",
							"type": "uint256"
						}
					],
					"name": "setTicketPrice",
					"outputs": [],
					"stateMutability": "nonpayable",
					"type": "function"
				},
				{
					"inputs": [],
					"name": "ticketPrice",
					"outputs": [
						{
							"internalType": "uint256",
							"name": "",
							"type": "uint256"
						}
					],
					"stateMutability": "view",
					"type": "function"
				},
				{
					"inputs": [
						{
							"internalType": "address",
							"name": "",
							"type": "address"
						}
					],
					"name": "ticketsBought",
					"outputs": [
						{
							"internalType": "uint256",
							"name": "",
							"type": "uint256"
						}
					],
					"stateMutability": "view",
					"type": "function"
				},
				{
					"inputs": [],
					"name": "totalTickets",
					"outputs": [
						{
							"internalType": "uint256",
							"name": "",
							"type": "uint256"
						}
					],
					"stateMutability": "view",
					"type": "function"
				},
				{
					"inputs": [
						{
							"internalType": "uint256",
							"name": "",
							"type": "uint256"
						}
					],
					"name": "winnerHistory",
					"outputs": [
						{
							"internalType": "address",
							"name": "",
							"type": "address"
						}
					],
					"stateMutability": "view",
					"type": "function"
				},
				{
					"inputs": [],
					"name": "withdrawRemaining",
					"outputs": [],
					"stateMutability": "nonpayable",
					"type": "function"
				},
				{
					"stateMutability": "payable",
					"type": "receive"
				}
			],
			"devdoc": {
				"kind": "dev",
				"methods": {},
				"version": 1
			},
			"evm": {
				"assembly": "    /* \"contracts/w5_LuckyDraw.sol\":57:8849  contract LuckyDraw {... */\n  mstore(0x40, 0x80)\n    /* \"contracts/w5_LuckyDraw.sol\":1499:1762  constructor(uint _ticketPrice, uint _totalTickets, uint _xWinners) {... */\n  callvalue\n  dup1\n  iszero\n  tag_1\n  jumpi\n  0x00\n  dup1\n  revert\ntag_1:\n  pop\n  mload(0x40)\n  sub(codesize, bytecodeSize)\n  dup1\n  bytecodeSize\n  dup4\n  codecopy\n  dup2\n  dup2\n  add\n  0x40\n  mstore\n  dup2\n  add\n  swap1\n  tag_2\n  swap2\n  swap1\n  tag_3\n  jump\t// in\ntag_2:\n    /* \"contracts/w5_LuckyDraw.sol\":1592:1602  msg.sender */\n  caller\n    /* \"contracts/w5_LuckyDraw.sol\":1576:1581  owner */\n  0x00\n  dup1\n    /* \"contracts/w5_LuckyDraw.sol\":1576:1603  owner = payable(msg.sender) */\n  0x0100\n  exp\n  dup2\n  sload\n  dup2\n  0xffffffffffffffffffffffffffffffffffffffff\n  mul\n  not\n  and\n  swap1\n  dup4\n  0xffffffffffffffffffffffffffffffffffffffff\n  and\n  mul\n  or\n  swap1\n  sstore\n  pop\n    /* \"contracts/w5_LuckyDraw.sol\":1627:1639  _ticketPrice */\n  dup3\n    /* \"contracts/w5_LuckyDraw.sol\":1613:1624  ticketPrice */\n  0x01\n    /* \"contracts/w5_LuckyDraw.sol\":1613:1639  ticketPrice = _ticketPrice */\n  dup2\n  swap1\n  sstore\n  pop\n    /* \"contracts/w5_LuckyDraw.sol\":1664:1677  _totalTickets */\n  dup2\n    /* \"contracts/w5_LuckyDraw.sol\":1649:1661  totalTickets */\n  0x02\n    /* \"contracts/w5_LuckyDraw.sol\":1649:1677  totalTickets = _totalTickets */\n  dup2\n  swap1\n  sstore\n  pop\n    /* \"contracts/w5_LuckyDraw.sol\":1706:1719  _totalTickets */\n  dup2\n    /* \"contracts/w5_LuckyDraw.sol\":1687:1703  availableTickets */\n  0x05\n    /* \"contracts/w5_LuckyDraw.sol\":1687:1719  availableTickets = _totalTickets */\n  dup2\n  swap1\n  sstore\n  pop\n    /* \"contracts/w5_LuckyDraw.sol\":1746:1755  _xWinners */\n  dup1\n    /* \"contracts/w5_LuckyDraw.sol\":1729:1743  last_X_Winners */\n  0x0a\n    /* \"contracts/w5_LuckyDraw.sol\":1729:1755  last_X_Winners = _xWinners */\n  dup2\n  swap1\n  sstore\n  pop\n    /* \"contracts/w5_LuckyDraw.sol\":1499:1762  constructor(uint _ticketPrice, uint _totalTickets, uint _xWinners) {... */\n  pop\n  pop\n  pop\n    /* \"contracts/w5_LuckyDraw.sol\":57:8849  contract LuckyDraw {... */\n  jump(tag_6)\n    /* \"#utility.yul\":88:205   */\ntag_8:\n    /* \"#utility.yul\":197:198   */\n  0x00\n    /* \"#utility.yul\":194:195   */\n  dup1\n    /* \"#utility.yul\":187:199   */\n  revert\n    /* \"#utility.yul\":334:411   */\ntag_10:\n    /* \"#utility.yul\":371:378   */\n  0x00\n    /* \"#utility.yul\":400:405   */\n  dup2\n    /* \"#utility.yul\":389:405   */\n  swap1\n  pop\n    /* \"#utility.yul\":334:411   */\n  swap2\n  swap1\n  pop\n  jump\t// out\n    /* \"#utility.yul\":417:539   */\ntag_11:\n    /* \"#utility.yul\":490:514   */\n  tag_19\n    /* \"#utility.yul\":508:513   */\n  dup2\n    /* \"#utility.yul\":490:514   */\n  tag_10\n  jump\t// in\ntag_19:\n    /* \"#utility.yul\":483:488   */\n  dup2\n    /* \"#utility.yul\":480:515   */\n  eq\n    /* \"#utility.yul\":470:533   */\n  tag_20\n  jumpi\n    /* \"#utility.yul\":529:530   */\n  0x00\n    /* \"#utility.yul\":526:527   */\n  dup1\n    /* \"#utility.yul\":519:531   */\n  revert\n    /* \"#utility.yul\":470:533   */\ntag_20:\n    /* \"#utility.yul\":417:539   */\n  pop\n  jump\t// out\n    /* \"#utility.yul\":545:688   */\ntag_12:\n    /* \"#utility.yul\":602:607   */\n  0x00\n    /* \"#utility.yul\":633:639   */\n  dup2\n    /* \"#utility.yul\":627:640   */\n  mload\n    /* \"#utility.yul\":618:640   */\n  swap1\n  pop\n    /* \"#utility.yul\":649:682   */\n  tag_22\n    /* \"#utility.yul\":676:681   */\n  dup2\n    /* \"#utility.yul\":649:682   */\n  tag_11\n  jump\t// in\ntag_22:\n    /* \"#utility.yul\":545:688   */\n  swap3\n  swap2\n  pop\n  pop\n  jump\t// out\n    /* \"#utility.yul\":694:1357   */\ntag_3:\n    /* \"#utility.yul\":782:788   */\n  0x00\n    /* \"#utility.yul\":790:796   */\n  dup1\n    /* \"#utility.yul\":798:804   */\n  0x00\n    /* \"#utility.yul\":847:849   */\n  0x60\n    /* \"#utility.yul\":835:844   */\n  dup5\n    /* \"#utility.yul\":826:833   */\n  dup7\n    /* \"#utility.yul\":822:845   */\n  sub\n    /* \"#utility.yul\":818:850   */\n  slt\n    /* \"#utility.yul\":815:934   */\n  iszero\n  tag_24\n  jumpi\n    /* \"#utility.yul\":853:932   */\n  tag_25\n  tag_8\n  jump\t// in\ntag_25:\n    /* \"#utility.yul\":815:934   */\ntag_24:\n    /* \"#utility.yul\":973:974   */\n  0x00\n    /* \"#utility.yul\":998:1062   */\n  tag_26\n    /* \"#utility.yul\":1054:1061   */\n  dup7\n    /* \"#utility.yul\":1045:1051   */\n  dup3\n    /* \"#utility.yul\":1034:1043   */\n  dup8\n    /* \"#utility.yul\":1030:1052   */\n  add\n    /* \"#utility.yul\":998:1062   */\n  tag_12\n  jump\t// in\ntag_26:\n    /* \"#utility.yul\":988:1062   */\n  swap4\n  pop\n    /* \"#utility.yul\":944:1072   */\n  pop\n    /* \"#utility.yul\":1111:1113   */\n  0x20\n    /* \"#utility.yul\":1137:1201   */\n  tag_27\n    /* \"#utility.yul\":1193:1200   */\n  dup7\n    /* \"#utility.yul\":1184:1190   */\n  dup3\n    /* \"#utility.yul\":1173:1182   */\n  dup8\n    /* \"#utility.yul\":1169:1191   */\n  add\n    /* \"#utility.yul\":1137:1201   */\n  tag_12\n  jump\t// in\ntag_27:\n    /* \"#utility.yul\":1127:1201   */\n  swap3\n  pop\n    /* \"#utility.yul\":1082:1211   */\n  pop\n    /* \"#utility.yul\":1250:1252   */\n  0x40\n    /* \"#utility.yul\":1276:1340   */\n  tag_28\n    /* \"#utility.yul\":1332:1339   */\n  dup7\n    /* \"#utility.yul\":1323:1329   */\n  dup3\n    /* \"#utility.yul\":1312:1321   */\n  dup8\n    /* \"#utility.yul\":1308:1330   */\n  add\n    /* \"#utility.yul\":1276:1340   */\n  tag_12\n  jump\t// in\ntag_28:\n    /* \"#utility.yul\":1266:1340   */\n  swap2\n  pop\n    /* \"#utility.yul\":1221:1350   */\n  pop\n    /* \"#utility.yul\":694:1357   */\n  swap3\n  pop\n  swap3\n  pop\n  swap3\n  jump\t// out\n    /* \"contracts/w5_LuckyDraw.sol\":57:8849  contract LuckyDraw {... */\ntag_6:\n  dataSize(sub_0)\n  dup1\n  dataOffset(sub_0)\n  0x00\n  codecopy\n  0x00\n  return\nstop\n\nsub_0: assembly {\n        /* \"contracts/w5_LuckyDraw.sol\":57:8849  contract LuckyDraw {... */\n      mstore(0x40, 0x80)\n      jumpi(tag_1, lt(calldatasize, 0x04))\n      shr(0xe0, calldataload(0x00))\n      dup1\n      0x719ce73e\n      gt\n      tag_27\n      jumpi\n      dup1\n      0xd1d06b2e\n      gt\n      tag_28\n      jumpi\n      dup1\n      0xd1d06b2e\n      eq\n      tag_21\n      jumpi\n      dup1\n      0xdd11247e\n      eq\n      tag_22\n      jumpi\n      dup1\n      0xe1d10d85\n      eq\n      tag_23\n      jumpi\n      dup1\n      0xe499e79c\n      eq\n      tag_24\n      jumpi\n      dup1\n      0xee38db95\n      eq\n      tag_25\n      jumpi\n      dup1\n      0xfcbbc922\n      eq\n      tag_26\n      jumpi\n      jump(tag_2)\n    tag_28:\n      dup1\n      0x719ce73e\n      eq\n      tag_15\n      jumpi\n      dup1\n      0x75964b55\n      eq\n      tag_16\n      jumpi\n      dup1\n      0x84bd3264\n      eq\n      tag_17\n      jumpi\n      dup1\n      0x87bb7ae0\n      eq\n      tag_18\n      jumpi\n      dup1\n      0x884bf67c\n      eq\n      tag_19\n      jumpi\n      dup1\n      0x8da5cb5b\n      eq\n      tag_20\n      jumpi\n      jump(tag_2)\n    tag_27:\n      dup1\n      0x3580404b\n      gt\n      tag_29\n      jumpi\n      dup1\n      0x3580404b\n      eq\n      tag_9\n      jumpi\n      dup1\n      0x35c1d349\n      eq\n      tag_10\n      jumpi\n      dup1\n      0x3cfa7e01\n      eq\n      tag_11\n      jumpi\n      dup1\n      0x5a8acacc\n      eq\n      tag_12\n      jumpi\n      dup1\n      0x5aa68ac0\n      eq\n      tag_13\n      jumpi\n      dup1\n      0x67dd74ca\n      eq\n      tag_14\n      jumpi\n      jump(tag_2)\n    tag_29:\n      dup1\n      0x0356f67e\n      eq\n      tag_3\n      jumpi\n      dup1\n      0x06e8337f\n      eq\n      tag_4\n      jumpi\n      dup1\n      0x1209b1f6\n      eq\n      tag_5\n      jumpi\n      dup1\n      0x15981650\n      eq\n      tag_6\n      jumpi\n      dup1\n      0x1a647251\n      eq\n      tag_7\n      jumpi\n      dup1\n      0x2f357d12\n      eq\n      tag_8\n      jumpi\n      jump(tag_2)\n    tag_1:\n      jumpi(tag_2, calldatasize)\n        /* \"contracts/w5_LuckyDraw.sol\":1909:1946  LogFallBack(msg.sender,msg.value, \"\") */\n      0xbba0c0d409a9851877021792305bba31e09716fefe49175c172198ead2066de6\n        /* \"contracts/w5_LuckyDraw.sol\":1921:1931  msg.sender */\n      caller\n        /* \"contracts/w5_LuckyDraw.sol\":1932:1941  msg.value */\n      callvalue\n        /* \"contracts/w5_LuckyDraw.sol\":1909:1946  LogFallBack(msg.sender,msg.value, \"\") */\n      mload(0x40)\n      tag_32\n      swap3\n      swap2\n      swap1\n      tag_33\n      jump\t// in\n    tag_32:\n      mload(0x40)\n      dup1\n      swap2\n      sub\n      swap1\n      log1\n        /* \"contracts/w5_LuckyDraw.sol\":57:8849  contract LuckyDraw {... */\n      stop\n    tag_2:\n        /* \"contracts/w5_LuckyDraw.sol\":1811:1854  LogFallBack(msg.sender,msg.value, msg.data) */\n      0xbba0c0d409a9851877021792305bba31e09716fefe49175c172198ead2066de6\n        /* \"contracts/w5_LuckyDraw.sol\":1823:1833  msg.sender */\n      caller\n        /* \"contracts/w5_LuckyDraw.sol\":1834:1843  msg.value */\n      callvalue\n        /* \"contracts/w5_LuckyDraw.sol\":1845:1853  msg.data */\n      0x00\n      calldatasize\n        /* \"contracts/w5_LuckyDraw.sol\":1811:1854  LogFallBack(msg.sender,msg.value, msg.data) */\n      mload(0x40)\n      tag_36\n      swap5\n      swap4\n      swap3\n      swap2\n      swap1\n      tag_37\n      jump\t// in\n    tag_36:\n      mload(0x40)\n      dup1\n      swap2\n      sub\n      swap1\n      log1\n        /* \"contracts/w5_LuckyDraw.sol\":57:8849  contract LuckyDraw {... */\n      stop\n        /* \"contracts/w5_LuckyDraw.sol\":8336:8432  function getConsumedTickets() public view returns (uint) {... */\n    tag_3:\n      callvalue\n      dup1\n      iszero\n      tag_38\n      jumpi\n      0x00\n      dup1\n      revert\n    tag_38:\n      pop\n      tag_39\n      tag_40\n      jump\t// in\n    tag_39:\n      mload(0x40)\n      tag_41\n      swap2\n      swap1\n      tag_42\n      jump\t// in\n    tag_41:\n      mload(0x40)\n      dup1\n      swap2\n      sub\n      swap1\n      return\n        /* \"contracts/w5_LuckyDraw.sol\":7832:7922  function getTotalTickets() public view returns (uint) {... */\n    tag_4:\n      callvalue\n      dup1\n      iszero\n      tag_43\n      jumpi\n      0x00\n      dup1\n      revert\n    tag_43:\n      pop\n      tag_44\n      tag_45\n      jump\t// in\n    tag_44:\n      mload(0x40)\n      tag_46\n      swap2\n      swap1\n      tag_42\n      jump\t// in\n    tag_46:\n      mload(0x40)\n      dup1\n      swap2\n      sub\n      swap1\n      return\n        /* \"contracts/w5_LuckyDraw.sol\":322:345  uint public ticketPrice */\n    tag_5:\n      callvalue\n      dup1\n      iszero\n      tag_47\n      jumpi\n      0x00\n      dup1\n      revert\n    tag_47:\n      pop\n      tag_48\n      tag_49\n      jump\t// in\n    tag_48:\n      mload(0x40)\n      tag_50\n      swap2\n      swap1\n      tag_42\n      jump\t// in\n    tag_50:\n      mload(0x40)\n      dup1\n      swap2\n      sub\n      swap1\n      return\n        /* \"contracts/w5_LuckyDraw.sol\":2993:3228  function setTicketPrice(uint newPrice) public onlyOwner{... */\n    tag_6:\n      callvalue\n      dup1\n      iszero\n      tag_51\n      jumpi\n      0x00\n      dup1\n      revert\n    tag_51:\n      pop\n      tag_52\n      0x04\n      dup1\n      calldatasize\n      sub\n      dup2\n      add\n      swap1\n      tag_53\n      swap2\n      swap1\n      tag_54\n      jump\t// in\n    tag_53:\n      tag_55\n      jump\t// in\n    tag_52:\n      stop\n        /* \"contracts/w5_LuckyDraw.sol\":530:557  uint public consumedTickets */\n    tag_7:\n      callvalue\n      dup1\n      iszero\n      tag_56\n      jumpi\n      0x00\n      dup1\n      revert\n    tag_56:\n      pop\n      tag_57\n      tag_58\n      jump\t// in\n    tag_57:\n      mload(0x40)\n      tag_59\n      swap2\n      swap1\n      tag_42\n      jump\t// in\n    tag_59:\n      mload(0x40)\n      dup1\n      swap2\n      sub\n      swap1\n      return\n        /* \"contracts/w5_LuckyDraw.sol\":8548:8665  function getOverallAllHistoryWinners() public view returns (PastWinners[] memory) {... */\n    tag_8:\n      callvalue\n      dup1\n      iszero\n      tag_60\n      jumpi\n      0x00\n      dup1\n      revert\n    tag_60:\n      pop\n      tag_61\n      tag_62\n      jump\t// in\n    tag_61:\n      mload(0x40)\n      tag_63\n      swap2\n      swap1\n      tag_64\n      jump\t// in\n    tag_63:\n      mload(0x40)\n      dup1\n      swap2\n      sub\n      swap1\n      return\n        /* \"contracts/w5_LuckyDraw.sol\":8438:8542  function getWinnerHistory() public view returns (address[] memory) {... */\n    tag_9:\n      callvalue\n      dup1\n      iszero\n      tag_65\n      jumpi\n      0x00\n      dup1\n      revert\n    tag_65:\n      pop\n      tag_66\n      tag_67\n      jump\t// in\n    tag_66:\n      mload(0x40)\n      tag_68\n      swap2\n      swap1\n      tag_69\n      jump\t// in\n    tag_68:\n      mload(0x40)\n      dup1\n      swap2\n      sub\n      swap1\n      return\n        /* \"contracts/w5_LuckyDraw.sol\":779:808  address[] public participants */\n    tag_10:\n      callvalue\n      dup1\n      iszero\n      tag_70\n      jumpi\n      0x00\n      dup1\n      revert\n    tag_70:\n      pop\n      tag_71\n      0x04\n      dup1\n      calldatasize\n      sub\n      dup2\n      add\n      swap1\n      tag_72\n      swap2\n      swap1\n      tag_54\n      jump\t// in\n    tag_72:\n      tag_73\n      jump\t// in\n    tag_71:\n      mload(0x40)\n      tag_74\n      swap2\n      swap1\n      tag_75\n      jump\t// in\n    tag_74:\n      mload(0x40)\n      dup1\n      swap2\n      sub\n      swap1\n      return\n        /* \"contracts/w5_LuckyDraw.sol\":563:591  uint public availableTickets */\n    tag_11:\n      callvalue\n      dup1\n      iszero\n      tag_76\n      jumpi\n      0x00\n      dup1\n      revert\n    tag_76:\n      pop\n      tag_77\n      tag_78\n      jump\t// in\n    tag_77:\n      mload(0x40)\n      tag_79\n      swap2\n      swap1\n      tag_42\n      jump\t// in\n    tag_79:\n      mload(0x40)\n      dup1\n      swap2\n      sub\n      swap1\n      return\n        /* \"contracts/w5_LuckyDraw.sol\":8232:8330  function getAvailableTickets() public view returns (uint) {... */\n    tag_12:\n      callvalue\n      dup1\n      iszero\n      tag_80\n      jumpi\n      0x00\n      dup1\n      revert\n    tag_80:\n      pop\n      tag_81\n      tag_82\n      jump\t// in\n    tag_81:\n      mload(0x40)\n      tag_83\n      swap2\n      swap1\n      tag_42\n      jump\t// in\n    tag_83:\n      mload(0x40)\n      dup1\n      swap2\n      sub\n      swap1\n      return\n        /* \"contracts/w5_LuckyDraw.sol\":8124:8226  function getParticipants() public view returns (address[] memory) {... */\n    tag_13:\n      callvalue\n      dup1\n      iszero\n      tag_84\n      jumpi\n      0x00\n      dup1\n      revert\n    tag_84:\n      pop\n      tag_85\n      tag_86\n      jump\t// in\n    tag_85:\n      mload(0x40)\n      tag_87\n      swap2\n      swap1\n      tag_69\n      jump\t// in\n    tag_87:\n      mload(0x40)\n      dup1\n      swap2\n      sub\n      swap1\n      return\n        /* \"contracts/w5_LuckyDraw.sol\":2065:2987  function buyTicket(uint numberOfTicket) public payable {... */\n    tag_14:\n      tag_88\n      0x04\n      dup1\n      calldatasize\n      sub\n      dup2\n      add\n      swap1\n      tag_89\n      swap2\n      swap1\n      tag_54\n      jump\t// in\n    tag_89:\n      tag_90\n      jump\t// in\n    tag_88:\n      stop\n        /* \"contracts/w5_LuckyDraw.sol\":466:487  uint public prizePool */\n    tag_15:\n      callvalue\n      dup1\n      iszero\n      tag_91\n      jumpi\n      0x00\n      dup1\n      revert\n    tag_91:\n      pop\n      tag_92\n      tag_93\n      jump\t// in\n    tag_92:\n      mload(0x40)\n      tag_94\n      swap2\n      swap1\n      tag_42\n      jump\t// in\n    tag_94:\n      mload(0x40)\n      dup1\n      swap2\n      sub\n      swap1\n      return\n        /* \"contracts/w5_LuckyDraw.sol\":915:945  address[] public winnerHistory */\n    tag_16:\n      callvalue\n      dup1\n      iszero\n      tag_95\n      jumpi\n      0x00\n      dup1\n      revert\n    tag_95:\n      pop\n      tag_96\n      0x04\n      dup1\n      calldatasize\n      sub\n      dup2\n      add\n      swap1\n      tag_97\n      swap2\n      swap1\n      tag_54\n      jump\t// in\n    tag_97:\n      tag_98\n      jump\t// in\n    tag_96:\n      mload(0x40)\n      tag_99\n      swap2\n      swap1\n      tag_75\n      jump\t// in\n    tag_99:\n      mload(0x40)\n      dup1\n      swap2\n      sub\n      swap1\n      return\n        /* \"contracts/w5_LuckyDraw.sol\":654:699  mapping(address => uint) public ticketsBought */\n    tag_17:\n      callvalue\n      dup1\n      iszero\n      tag_100\n      jumpi\n      0x00\n      dup1\n      revert\n    tag_100:\n      pop\n      tag_101\n      0x04\n      dup1\n      calldatasize\n      sub\n      dup2\n      add\n      swap1\n      tag_102\n      swap2\n      swap1\n      tag_103\n      jump\t// in\n    tag_102:\n      tag_104\n      jump\t// in\n    tag_101:\n      mload(0x40)\n      tag_105\n      swap2\n      swap1\n      tag_42\n      jump\t// in\n    tag_105:\n      mload(0x40)\n      dup1\n      swap2\n      sub\n      swap1\n      return\n        /* \"contracts/w5_LuckyDraw.sol\":7738:7826  function getTicketPrice() public view returns (uint) {... */\n    tag_18:\n      callvalue\n      dup1\n      iszero\n      tag_106\n      jumpi\n      0x00\n      dup1\n      revert\n    tag_106:\n      pop\n      tag_107\n      tag_108\n      jump\t// in\n    tag_107:\n      mload(0x40)\n      tag_109\n      swap2\n      swap1\n      tag_42\n      jump\t// in\n    tag_109:\n      mload(0x40)\n      dup1\n      swap2\n      sub\n      swap1\n      return\n        /* \"contracts/w5_LuckyDraw.sol\":7928:8012  function getPrizePool() public view returns (uint) {... */\n    tag_19:\n      callvalue\n      dup1\n      iszero\n      tag_110\n      jumpi\n      0x00\n      dup1\n      revert\n    tag_110:\n      pop\n      tag_111\n      tag_112\n      jump\t// in\n    tag_111:\n      mload(0x40)\n      tag_113\n      swap2\n      swap1\n      tag_42\n      jump\t// in\n    tag_113:\n      mload(0x40)\n      dup1\n      swap2\n      sub\n      swap1\n      return\n        /* \"contracts/w5_LuckyDraw.sol\":245:273  address payable public owner */\n    tag_20:\n      callvalue\n      dup1\n      iszero\n      tag_114\n      jumpi\n      0x00\n      dup1\n      revert\n    tag_114:\n      pop\n      tag_115\n      tag_116\n      jump\t// in\n    tag_115:\n      mload(0x40)\n      tag_117\n      swap2\n      swap1\n      tag_118\n      jump\t// in\n    tag_117:\n      mload(0x40)\n      dup1\n      swap2\n      sub\n      swap1\n      return\n        /* \"contracts/w5_LuckyDraw.sol\":3296:5624  function drawWinners(uint numberOfWinners) public onlyOwner {... */\n    tag_21:\n      callvalue\n      dup1\n      iszero\n      tag_119\n      jumpi\n      0x00\n      dup1\n      revert\n    tag_119:\n      pop\n      tag_120\n      0x04\n      dup1\n      calldatasize\n      sub\n      dup2\n      add\n      swap1\n      tag_121\n      swap2\n      swap1\n      tag_54\n      jump\t// in\n    tag_121:\n      tag_122\n      jump\t// in\n    tag_120:\n      stop\n        /* \"contracts/w5_LuckyDraw.sol\":393:417  uint public totalTickets */\n    tag_22:\n      callvalue\n      dup1\n      iszero\n      tag_123\n      jumpi\n      0x00\n      dup1\n      revert\n    tag_123:\n      pop\n      tag_124\n      tag_125\n      jump\t// in\n    tag_124:\n      mload(0x40)\n      tag_126\n      swap2\n      swap1\n      tag_42\n      jump\t// in\n    tag_126:\n      mload(0x40)\n      dup1\n      swap2\n      sub\n      swap1\n      return\n        /* \"contracts/w5_LuckyDraw.sol\":8018:8118  function getMyTickets() public view returns (uint) {... */\n    tag_23:\n      callvalue\n      dup1\n      iszero\n      tag_127\n      jumpi\n      0x00\n      dup1\n      revert\n    tag_127:\n      pop\n      tag_128\n      tag_129\n      jump\t// in\n    tag_128:\n      mload(0x40)\n      tag_130\n      swap2\n      swap1\n      tag_42\n      jump\t// in\n    tag_130:\n      mload(0x40)\n      dup1\n      swap2\n      sub\n      swap1\n      return\n        /* \"contracts/w5_LuckyDraw.sol\":877:909  PastWinners[] public pastWinners */\n    tag_24:\n      callvalue\n      dup1\n      iszero\n      tag_131\n      jumpi\n      0x00\n      dup1\n      revert\n    tag_131:\n      pop\n      tag_132\n      0x04\n      dup1\n      calldatasize\n      sub\n      dup2\n      add\n      swap1\n      tag_133\n      swap2\n      swap1\n      tag_54\n      jump\t// in\n    tag_133:\n      tag_134\n      jump\t// in\n    tag_132:\n      mload(0x40)\n      tag_135\n      swap3\n      swap2\n      swap1\n      tag_136\n      jump\t// in\n    tag_135:\n      mload(0x40)\n      dup1\n      swap2\n      sub\n      swap1\n      return\n        /* \"contracts/w5_LuckyDraw.sol\":7518:7688  function withdrawRemaining() public onlyOwner {... */\n    tag_25:\n      callvalue\n      dup1\n      iszero\n      tag_137\n      jumpi\n      0x00\n      dup1\n      revert\n    tag_137:\n      pop\n      tag_138\n      tag_139\n      jump\t// in\n    tag_138:\n      stop\n        /* \"contracts/w5_LuckyDraw.sol\":951:977  uint public last_X_Winners */\n    tag_26:\n      callvalue\n      dup1\n      iszero\n      tag_140\n      jumpi\n      0x00\n      dup1\n      revert\n    tag_140:\n      pop\n      tag_141\n      tag_142\n      jump\t// in\n    tag_141:\n      mload(0x40)\n      tag_143\n      swap2\n      swap1\n      tag_42\n      jump\t// in\n    tag_143:\n      mload(0x40)\n      dup1\n      swap2\n      sub\n      swap1\n      return\n        /* \"contracts/w5_LuckyDraw.sol\":8336:8432  function getConsumedTickets() public view returns (uint) {... */\n    tag_40:\n        /* \"contracts/w5_LuckyDraw.sol\":8387:8391  uint */\n      0x00\n        /* \"contracts/w5_LuckyDraw.sol\":8410:8425  consumedTickets */\n      sload(0x04)\n        /* \"contracts/w5_LuckyDraw.sol\":8403:8425  return consumedTickets */\n      swap1\n      pop\n        /* \"contracts/w5_LuckyDraw.sol\":8336:8432  function getConsumedTickets() public view returns (uint) {... */\n      swap1\n      jump\t// out\n        /* \"contracts/w5_LuckyDraw.sol\":7832:7922  function getTotalTickets() public view returns (uint) {... */\n    tag_45:\n        /* \"contracts/w5_LuckyDraw.sol\":7880:7884  uint */\n      0x00\n        /* \"contracts/w5_LuckyDraw.sol\":7903:7915  totalTickets */\n      sload(0x02)\n        /* \"contracts/w5_LuckyDraw.sol\":7896:7915  return totalTickets */\n      swap1\n      pop\n        /* \"contracts/w5_LuckyDraw.sol\":7832:7922  function getTotalTickets() public view returns (uint) {... */\n      swap1\n      jump\t// out\n        /* \"contracts/w5_LuckyDraw.sol\":322:345  uint public ticketPrice */\n    tag_49:\n      sload(0x01)\n      dup2\n      jump\t// out\n        /* \"contracts/w5_LuckyDraw.sol\":2993:3228  function setTicketPrice(uint newPrice) public onlyOwner{... */\n    tag_55:\n        /* \"contracts/w5_LuckyDraw.sol\":8786:8791  owner */\n      0x00\n      dup1\n      sload\n      swap1\n      0x0100\n      exp\n      swap1\n      div\n      0xffffffffffffffffffffffffffffffffffffffff\n      and\n        /* \"contracts/w5_LuckyDraw.sol\":8772:8791  msg.sender == owner */\n      0xffffffffffffffffffffffffffffffffffffffff\n      and\n        /* \"contracts/w5_LuckyDraw.sol\":8772:8782  msg.sender */\n      caller\n        /* \"contracts/w5_LuckyDraw.sol\":8772:8791  msg.sender == owner */\n      0xffffffffffffffffffffffffffffffffffffffff\n      and\n      eq\n        /* \"contracts/w5_LuckyDraw.sol\":8764:8829  require(msg.sender == owner, \"Only owner can call this function\") */\n      tag_147\n      jumpi\n      mload(0x40)\n      0x08c379a000000000000000000000000000000000000000000000000000000000\n      dup2\n      mstore\n      0x04\n      add\n      tag_148\n      swap1\n      tag_149\n      jump\t// in\n    tag_148:\n      mload(0x40)\n      dup1\n      swap2\n      sub\n      swap1\n      revert\n    tag_147:\n        /* \"contracts/w5_LuckyDraw.sol\":3077:3078  0 */\n      0x00\n        /* \"contracts/w5_LuckyDraw.sol\":3066:3074  newPrice */\n      dup2\n        /* \"contracts/w5_LuckyDraw.sol\":3066:3078  newPrice > 0 */\n      gt\n        /* \"contracts/w5_LuckyDraw.sol\":3058:3133  require(newPrice > 0, \"Invalid Number, price cant be less or equal than 0\") */\n      tag_151\n      jumpi\n      mload(0x40)\n      0x08c379a000000000000000000000000000000000000000000000000000000000\n      dup2\n      mstore\n      0x04\n      add\n      tag_152\n      swap1\n      tag_153\n      jump\t// in\n    tag_152:\n      mload(0x40)\n      dup1\n      swap2\n      sub\n      swap1\n      revert\n    tag_151:\n        /* \"contracts/w5_LuckyDraw.sol\":3157:3165  newPrice */\n      dup1\n        /* \"contracts/w5_LuckyDraw.sol\":3143:3154  ticketPrice */\n      0x01\n        /* \"contracts/w5_LuckyDraw.sol\":3143:3165  ticketPrice = newPrice */\n      dup2\n      swap1\n      sstore\n      pop\n        /* \"contracts/w5_LuckyDraw.sol\":3180:3221  TicketPriceChanged(ticketPrice, newPrice) */\n      0x82a40b2eb2e166a9a513e909894042d026f115051ab5c019f766ba8b33c28f3f\n        /* \"contracts/w5_LuckyDraw.sol\":3199:3210  ticketPrice */\n      sload(0x01)\n        /* \"contracts/w5_LuckyDraw.sol\":3212:3220  newPrice */\n      dup3\n        /* \"contracts/w5_LuckyDraw.sol\":3180:3221  TicketPriceChanged(ticketPrice, newPrice) */\n      mload(0x40)\n      tag_154\n      swap3\n      swap2\n      swap1\n      tag_155\n      jump\t// in\n    tag_154:\n      mload(0x40)\n      dup1\n      swap2\n      sub\n      swap1\n      log1\n        /* \"contracts/w5_LuckyDraw.sol\":2993:3228  function setTicketPrice(uint newPrice) public onlyOwner{... */\n      pop\n      jump\t// out\n        /* \"contracts/w5_LuckyDraw.sol\":530:557  uint public consumedTickets */\n    tag_58:\n      sload(0x04)\n      dup2\n      jump\t// out\n        /* \"contracts/w5_LuckyDraw.sol\":8548:8665  function getOverallAllHistoryWinners() public view returns (PastWinners[] memory) {... */\n    tag_62:\n        /* \"contracts/w5_LuckyDraw.sol\":8608:8628  PastWinners[] memory */\n      0x60\n        /* \"contracts/w5_LuckyDraw.sol\":8647:8658  pastWinners */\n      0x08\n        /* \"contracts/w5_LuckyDraw.sol\":8640:8658  return pastWinners */\n      dup1\n      sload\n      dup1\n      0x20\n      mul\n      0x20\n      add\n      mload(0x40)\n      swap1\n      dup2\n      add\n      0x40\n      mstore\n      dup1\n      swap3\n      swap2\n      swap1\n      dup2\n      dup2\n      mstore\n      0x20\n      add\n      0x00\n      swap1\n    tag_157:\n      dup3\n      dup3\n      lt\n      iszero\n      tag_158\n      jumpi\n      dup4\n      dup3\n      swap1\n      0x00\n      mstore\n      keccak256(0x00, 0x20)\n      swap1\n      0x02\n      mul\n      add\n      mload(0x40)\n      dup1\n      0x40\n      add\n      0x40\n      mstore\n      swap1\n      dup2\n      0x00\n      dup3\n      add\n      0x00\n      swap1\n      sload\n      swap1\n      0x0100\n      exp\n      swap1\n      div\n      0xffffffffffffffffffffffffffffffffffffffff\n      and\n      0xffffffffffffffffffffffffffffffffffffffff\n      and\n      0xffffffffffffffffffffffffffffffffffffffff\n      and\n      dup2\n      mstore\n      0x20\n      add\n      0x01\n      dup3\n      add\n      sload\n      dup2\n      mstore\n      pop\n      pop\n      dup2\n      mstore\n      0x20\n      add\n      swap1\n      0x01\n      add\n      swap1\n      jump(tag_157)\n    tag_158:\n      pop\n      pop\n      pop\n      pop\n      swap1\n      pop\n        /* \"contracts/w5_LuckyDraw.sol\":8548:8665  function getOverallAllHistoryWinners() public view returns (PastWinners[] memory) {... */\n      swap1\n      jump\t// out\n        /* \"contracts/w5_LuckyDraw.sol\":8438:8542  function getWinnerHistory() public view returns (address[] memory) {... */\n    tag_67:\n        /* \"contracts/w5_LuckyDraw.sol\":8487:8503  address[] memory */\n      0x60\n        /* \"contracts/w5_LuckyDraw.sol\":8522:8535  winnerHistory */\n      0x09\n        /* \"contracts/w5_LuckyDraw.sol\":8515:8535  return winnerHistory */\n      dup1\n      sload\n      dup1\n      0x20\n      mul\n      0x20\n      add\n      mload(0x40)\n      swap1\n      dup2\n      add\n      0x40\n      mstore\n      dup1\n      swap3\n      swap2\n      swap1\n      dup2\n      dup2\n      mstore\n      0x20\n      add\n      dup3\n      dup1\n      sload\n      dup1\n      iszero\n      tag_161\n      jumpi\n      0x20\n      mul\n      dup3\n      add\n      swap2\n      swap1\n      0x00\n      mstore\n      keccak256(0x00, 0x20)\n      swap1\n    tag_162:\n      dup2\n      0x00\n      swap1\n      sload\n      swap1\n      0x0100\n      exp\n      swap1\n      div\n      0xffffffffffffffffffffffffffffffffffffffff\n      and\n      0xffffffffffffffffffffffffffffffffffffffff\n      and\n      dup2\n      mstore\n      0x20\n      add\n      swap1\n      0x01\n      add\n      swap1\n      dup1\n      dup4\n      gt\n      tag_162\n      jumpi\n    tag_161:\n      pop\n      pop\n      pop\n      pop\n      pop\n      swap1\n      pop\n        /* \"contracts/w5_LuckyDraw.sol\":8438:8542  function getWinnerHistory() public view returns (address[] memory) {... */\n      swap1\n      jump\t// out\n        /* \"contracts/w5_LuckyDraw.sol\":779:808  address[] public participants */\n    tag_73:\n      0x07\n      dup2\n      dup2\n      sload\n      dup2\n      lt\n      tag_163\n      jumpi\n      0x00\n      dup1\n      revert\n    tag_163:\n      swap1\n      0x00\n      mstore\n      keccak256(0x00, 0x20)\n      add\n      0x00\n      swap2\n      pop\n      sload\n      swap1\n      0x0100\n      exp\n      swap1\n      div\n      0xffffffffffffffffffffffffffffffffffffffff\n      and\n      dup2\n      jump\t// out\n        /* \"contracts/w5_LuckyDraw.sol\":563:591  uint public availableTickets */\n    tag_78:\n      sload(0x05)\n      dup2\n      jump\t// out\n        /* \"contracts/w5_LuckyDraw.sol\":8232:8330  function getAvailableTickets() public view returns (uint) {... */\n    tag_82:\n        /* \"contracts/w5_LuckyDraw.sol\":8284:8288  uint */\n      0x00\n        /* \"contracts/w5_LuckyDraw.sol\":8307:8323  availableTickets */\n      sload(0x05)\n        /* \"contracts/w5_LuckyDraw.sol\":8300:8323  return availableTickets */\n      swap1\n      pop\n        /* \"contracts/w5_LuckyDraw.sol\":8232:8330  function getAvailableTickets() public view returns (uint) {... */\n      swap1\n      jump\t// out\n        /* \"contracts/w5_LuckyDraw.sol\":8124:8226  function getParticipants() public view returns (address[] memory) {... */\n    tag_86:\n        /* \"contracts/w5_LuckyDraw.sol\":8172:8188  address[] memory */\n      0x60\n        /* \"contracts/w5_LuckyDraw.sol\":8207:8219  participants */\n      0x07\n        /* \"contracts/w5_LuckyDraw.sol\":8200:8219  return participants */\n      dup1\n      sload\n      dup1\n      0x20\n      mul\n      0x20\n      add\n      mload(0x40)\n      swap1\n      dup2\n      add\n      0x40\n      mstore\n      dup1\n      swap3\n      swap2\n      swap1\n      dup2\n      dup2\n      mstore\n      0x20\n      add\n      dup3\n      dup1\n      sload\n      dup1\n      iszero\n      tag_167\n      jumpi\n      0x20\n      mul\n      dup3\n      add\n      swap2\n      swap1\n      0x00\n      mstore\n      keccak256(0x00, 0x20)\n      swap1\n    tag_168:\n      dup2\n      0x00\n      swap1\n      sload\n      swap1\n      0x0100\n      exp\n      swap1\n      div\n      0xffffffffffffffffffffffffffffffffffffffff\n      and\n      0xffffffffffffffffffffffffffffffffffffffff\n      and\n      dup2\n      mstore\n      0x20\n      add\n      swap1\n      0x01\n      add\n      swap1\n      dup1\n      dup4\n      gt\n      tag_168\n      jumpi\n    tag_167:\n      pop\n      pop\n      pop\n      pop\n      pop\n      swap1\n      pop\n        /* \"contracts/w5_LuckyDraw.sol\":8124:8226  function getParticipants() public view returns (address[] memory) {... */\n      swap1\n      jump\t// out\n        /* \"contracts/w5_LuckyDraw.sol\":2065:2987  function buyTicket(uint numberOfTicket) public payable {... */\n    tag_90:\n        /* \"contracts/w5_LuckyDraw.sol\":2248:2262  numberOfTicket */\n      dup1\n        /* \"contracts/w5_LuckyDraw.sol\":2236:2247  ticketPrice */\n      sload(0x01)\n        /* \"contracts/w5_LuckyDraw.sol\":2236:2262  ticketPrice*numberOfTicket */\n      tag_170\n      swap2\n      swap1\n      tag_171\n      jump\t// in\n    tag_170:\n        /* \"contracts/w5_LuckyDraw.sol\":2223:2232  msg.value */\n      callvalue\n        /* \"contracts/w5_LuckyDraw.sol\":2223:2262  msg.value >= ticketPrice*numberOfTicket */\n      lt\n      iszero\n        /* \"contracts/w5_LuckyDraw.sol\":2215:2296  require(msg.value >= ticketPrice*numberOfTicket, \"Insufficient funds for ticket\") */\n      tag_172\n      jumpi\n      mload(0x40)\n      0x08c379a000000000000000000000000000000000000000000000000000000000\n      dup2\n      mstore\n      0x04\n      add\n      tag_173\n      swap1\n      tag_174\n      jump\t// in\n    tag_173:\n      mload(0x40)\n      dup1\n      swap2\n      sub\n      swap1\n      revert\n    tag_172:\n        /* \"contracts/w5_LuckyDraw.sol\":2332:2348  availableTickets */\n      sload(0x05)\n        /* \"contracts/w5_LuckyDraw.sol\":2314:2328  numberOfTicket */\n      dup2\n        /* \"contracts/w5_LuckyDraw.sol\":2314:2348  numberOfTicket <= availableTickets */\n      gt\n      iszero\n        /* \"contracts/w5_LuckyDraw.sol\":2306:2382  require(numberOfTicket <= availableTickets, \"Insufficient tickets for sale\") */\n      tag_175\n      jumpi\n      mload(0x40)\n      0x08c379a000000000000000000000000000000000000000000000000000000000\n      dup2\n      mstore\n      0x04\n      add\n      tag_176\n      swap1\n      tag_177\n      jump\t// in\n    tag_176:\n      mload(0x40)\n      dup1\n      swap2\n      sub\n      swap1\n      revert\n    tag_175:\n        /* \"contracts/w5_LuckyDraw.sol\":2531:2532  0 */\n      0x00\n        /* \"contracts/w5_LuckyDraw.sol\":2502:2515  ticketsBought */\n      0x06\n        /* \"contracts/w5_LuckyDraw.sol\":2502:2527  ticketsBought[msg.sender] */\n      0x00\n        /* \"contracts/w5_LuckyDraw.sol\":2516:2526  msg.sender */\n      caller\n        /* \"contracts/w5_LuckyDraw.sol\":2502:2527  ticketsBought[msg.sender] */\n      0xffffffffffffffffffffffffffffffffffffffff\n      and\n      0xffffffffffffffffffffffffffffffffffffffff\n      and\n      dup2\n      mstore\n      0x20\n      add\n      swap1\n      dup2\n      mstore\n      0x20\n      add\n      0x00\n      keccak256\n      sload\n        /* \"contracts/w5_LuckyDraw.sol\":2502:2532  ticketsBought[msg.sender] == 0 */\n      sub\n        /* \"contracts/w5_LuckyDraw.sol\":2498:2588  if (ticketsBought[msg.sender] == 0) {... */\n      tag_178\n      jumpi\n        /* \"contracts/w5_LuckyDraw.sol\":2548:2560  participants */\n      0x07\n        /* \"contracts/w5_LuckyDraw.sol\":2566:2576  msg.sender */\n      caller\n        /* \"contracts/w5_LuckyDraw.sol\":2548:2577  participants.push(msg.sender) */\n      swap1\n      dup1\n      0x01\n      dup2\n      sload\n      add\n      dup1\n      dup3\n      sstore\n      dup1\n      swap2\n      pop\n      pop\n      0x01\n      swap1\n      sub\n      swap1\n      0x00\n      mstore\n      keccak256(0x00, 0x20)\n      add\n      0x00\n      swap1\n      swap2\n      swap1\n      swap2\n      swap1\n      swap2\n      0x0100\n      exp\n      dup2\n      sload\n      dup2\n      0xffffffffffffffffffffffffffffffffffffffff\n      mul\n      not\n      and\n      swap1\n      dup4\n      0xffffffffffffffffffffffffffffffffffffffff\n      and\n      mul\n      or\n      swap1\n      sstore\n      pop\n        /* \"contracts/w5_LuckyDraw.sol\":2498:2588  if (ticketsBought[msg.sender] == 0) {... */\n    tag_178:\n        /* \"contracts/w5_LuckyDraw.sol\":2681:2695  numberOfTicket */\n      dup1\n        /* \"contracts/w5_LuckyDraw.sol\":2653:2666  ticketsBought */\n      0x06\n        /* \"contracts/w5_LuckyDraw.sol\":2653:2678  ticketsBought[msg.sender] */\n      0x00\n        /* \"contracts/w5_LuckyDraw.sol\":2667:2677  msg.sender */\n      caller\n        /* \"contracts/w5_LuckyDraw.sol\":2653:2678  ticketsBought[msg.sender] */\n      0xffffffffffffffffffffffffffffffffffffffff\n      and\n      0xffffffffffffffffffffffffffffffffffffffff\n      and\n      dup2\n      mstore\n      0x20\n      add\n      swap1\n      dup2\n      mstore\n      0x20\n      add\n      0x00\n      keccak256\n      0x00\n        /* \"contracts/w5_LuckyDraw.sol\":2653:2695  ticketsBought[msg.sender]+= numberOfTicket */\n      dup3\n      dup3\n      sload\n      tag_180\n      swap2\n      swap1\n      tag_181\n      jump\t// in\n    tag_180:\n      swap3\n      pop\n      pop\n      dup2\n      swap1\n      sstore\n      pop\n        /* \"contracts/w5_LuckyDraw.sol\":2724:2738  numberOfTicket */\n      dup1\n        /* \"contracts/w5_LuckyDraw.sol\":2705:2720  consumedTickets */\n      0x04\n      0x00\n        /* \"contracts/w5_LuckyDraw.sol\":2705:2738  consumedTickets += numberOfTicket */\n      dup3\n      dup3\n      sload\n      tag_182\n      swap2\n      swap1\n      tag_181\n      jump\t// in\n    tag_182:\n      swap3\n      pop\n      pop\n      dup2\n      swap1\n      sstore\n      pop\n        /* \"contracts/w5_LuckyDraw.sol\":2786:2800  numberOfTicket */\n      dup1\n        /* \"contracts/w5_LuckyDraw.sol\":2767:2783  availableTickets */\n      sload(0x05)\n        /* \"contracts/w5_LuckyDraw.sol\":2767:2800  availableTickets - numberOfTicket */\n      tag_183\n      swap2\n      swap1\n      tag_184\n      jump\t// in\n    tag_183:\n        /* \"contracts/w5_LuckyDraw.sol\":2748:2764  availableTickets */\n      0x05\n        /* \"contracts/w5_LuckyDraw.sol\":2748:2800  availableTickets = availableTickets - numberOfTicket */\n      dup2\n      swap1\n      sstore\n      pop\n        /* \"contracts/w5_LuckyDraw.sol\":2867:2876  msg.value */\n      callvalue\n        /* \"contracts/w5_LuckyDraw.sol\":2854:2863  prizePool */\n      0x03\n      0x00\n        /* \"contracts/w5_LuckyDraw.sol\":2854:2876  prizePool += msg.value */\n      dup3\n      dup3\n      sload\n      tag_185\n      swap2\n      swap1\n      tag_181\n      jump\t// in\n    tag_185:\n      swap3\n      pop\n      pop\n      dup2\n      swap1\n      sstore\n      pop\n        /* \"contracts/w5_LuckyDraw.sol\":2891:2935  TicketPurchashed(msg.sender, numberOfTicket) */\n      0x0bba69e9c544bf16df5732642e0d0aff01e2b36b054552413a21a05035fbb462\n        /* \"contracts/w5_LuckyDraw.sol\":2908:2918  msg.sender */\n      caller\n        /* \"contracts/w5_LuckyDraw.sol\":2920:2934  numberOfTicket */\n      dup3\n        /* \"contracts/w5_LuckyDraw.sol\":2891:2935  TicketPurchashed(msg.sender, numberOfTicket) */\n      mload(0x40)\n      tag_186\n      swap3\n      swap2\n      swap1\n      tag_136\n      jump\t// in\n    tag_186:\n      mload(0x40)\n      dup1\n      swap2\n      sub\n      swap1\n      log1\n        /* \"contracts/w5_LuckyDraw.sol\":2950:2980  ParticipantArray(participants) */\n      0xbe75abfbfe86f7db09dd6ac4babfba470b3c3bd59aecede848fdeaa7a4b8a6df\n        /* \"contracts/w5_LuckyDraw.sol\":2967:2979  participants */\n      0x07\n        /* \"contracts/w5_LuckyDraw.sol\":2950:2980  ParticipantArray(participants) */\n      mload(0x40)\n      tag_187\n      swap2\n      swap1\n      tag_188\n      jump\t// in\n    tag_187:\n      mload(0x40)\n      dup1\n      swap2\n      sub\n      swap1\n      log1\n        /* \"contracts/w5_LuckyDraw.sol\":2065:2987  function buyTicket(uint numberOfTicket) public payable {... */\n      pop\n      jump\t// out\n        /* \"contracts/w5_LuckyDraw.sol\":466:487  uint public prizePool */\n    tag_93:\n      sload(0x03)\n      dup2\n      jump\t// out\n        /* \"contracts/w5_LuckyDraw.sol\":915:945  address[] public winnerHistory */\n    tag_98:\n      0x09\n      dup2\n      dup2\n      sload\n      dup2\n      lt\n      tag_189\n      jumpi\n      0x00\n      dup1\n      revert\n    tag_189:\n      swap1\n      0x00\n      mstore\n      keccak256(0x00, 0x20)\n      add\n      0x00\n      swap2\n      pop\n      sload\n      swap1\n      0x0100\n      exp\n      swap1\n      div\n      0xffffffffffffffffffffffffffffffffffffffff\n      and\n      dup2\n      jump\t// out\n        /* \"contracts/w5_LuckyDraw.sol\":654:699  mapping(address => uint) public ticketsBought */\n    tag_104:\n      mstore(0x20, 0x06)\n      dup1\n      0x00\n      mstore\n      keccak256(0x00, 0x40)\n      0x00\n      swap2\n      pop\n      swap1\n      pop\n      sload\n      dup2\n      jump\t// out\n        /* \"contracts/w5_LuckyDraw.sol\":7738:7826  function getTicketPrice() public view returns (uint) {... */\n    tag_108:\n        /* \"contracts/w5_LuckyDraw.sol\":7785:7789  uint */\n      0x00\n        /* \"contracts/w5_LuckyDraw.sol\":7808:7819  ticketPrice */\n      sload(0x01)\n        /* \"contracts/w5_LuckyDraw.sol\":7801:7819  return ticketPrice */\n      swap1\n      pop\n        /* \"contracts/w5_LuckyDraw.sol\":7738:7826  function getTicketPrice() public view returns (uint) {... */\n      swap1\n      jump\t// out\n        /* \"contracts/w5_LuckyDraw.sol\":7928:8012  function getPrizePool() public view returns (uint) {... */\n    tag_112:\n        /* \"contracts/w5_LuckyDraw.sol\":7973:7977  uint */\n      0x00\n        /* \"contracts/w5_LuckyDraw.sol\":7996:8005  prizePool */\n      sload(0x03)\n        /* \"contracts/w5_LuckyDraw.sol\":7989:8005  return prizePool */\n      swap1\n      pop\n        /* \"contracts/w5_LuckyDraw.sol\":7928:8012  function getPrizePool() public view returns (uint) {... */\n      swap1\n      jump\t// out\n        /* \"contracts/w5_LuckyDraw.sol\":245:273  address payable public owner */\n    tag_116:\n      0x00\n      dup1\n      sload\n      swap1\n      0x0100\n      exp\n      swap1\n      div\n      0xffffffffffffffffffffffffffffffffffffffff\n      and\n      dup2\n      jump\t// out\n        /* \"contracts/w5_LuckyDraw.sol\":3296:5624  function drawWinners(uint numberOfWinners) public onlyOwner {... */\n    tag_122:\n        /* \"contracts/w5_LuckyDraw.sol\":8786:8791  owner */\n      0x00\n      dup1\n      sload\n      swap1\n      0x0100\n      exp\n      swap1\n      div\n      0xffffffffffffffffffffffffffffffffffffffff\n      and\n        /* \"contracts/w5_LuckyDraw.sol\":8772:8791  msg.sender == owner */\n      0xffffffffffffffffffffffffffffffffffffffff\n      and\n        /* \"contracts/w5_LuckyDraw.sol\":8772:8782  msg.sender */\n      caller\n        /* \"contracts/w5_LuckyDraw.sol\":8772:8791  msg.sender == owner */\n      0xffffffffffffffffffffffffffffffffffffffff\n      and\n      eq\n        /* \"contracts/w5_LuckyDraw.sol\":8764:8829  require(msg.sender == owner, \"Only owner can call this function\") */\n      tag_194\n      jumpi\n      mload(0x40)\n      0x08c379a000000000000000000000000000000000000000000000000000000000\n      dup2\n      mstore\n      0x04\n      add\n      tag_195\n      swap1\n      tag_149\n      jump\t// in\n    tag_195:\n      mload(0x40)\n      dup1\n      swap2\n      sub\n      swap1\n      revert\n    tag_194:\n        /* \"contracts/w5_LuckyDraw.sol\":3392:3393  0 */\n      0x00\n        /* \"contracts/w5_LuckyDraw.sol\":3374:3389  numberOfWinners */\n      dup2\n        /* \"contracts/w5_LuckyDraw.sol\":3374:3393  numberOfWinners > 0 */\n      gt\n        /* \"contracts/w5_LuckyDraw.sol\":3366:3427  require(numberOfWinners > 0, \"Must draw at least one winner\") */\n      tag_197\n      jumpi\n      mload(0x40)\n      0x08c379a000000000000000000000000000000000000000000000000000000000\n      dup2\n      mstore\n      0x04\n      add\n      tag_198\n      swap1\n      tag_199\n      jump\t// in\n    tag_198:\n      mload(0x40)\n      dup1\n      swap2\n      sub\n      swap1\n      revert\n    tag_197:\n        /* \"contracts/w5_LuckyDraw.sol\":3490:3502  participants */\n      0x07\n        /* \"contracts/w5_LuckyDraw.sol\":3490:3509  participants.length */\n      dup1\n      sload\n      swap1\n      pop\n        /* \"contracts/w5_LuckyDraw.sol\":3471:3486  numberOfWinners */\n      dup2\n        /* \"contracts/w5_LuckyDraw.sol\":3471:3509  numberOfWinners <= participants.length */\n      gt\n      iszero\n        /* \"contracts/w5_LuckyDraw.sol\":3463:3601  require(numberOfWinners <= participants.length, \"Not enough participants, numbers of winners cant be larger than numbers of participants\") */\n      tag_200\n      jumpi\n      mload(0x40)\n      0x08c379a000000000000000000000000000000000000000000000000000000000\n      dup2\n      mstore\n      0x04\n      add\n      tag_201\n      swap1\n      tag_202\n      jump\t// in\n    tag_201:\n      mload(0x40)\n      dup1\n      swap2\n      sub\n      swap1\n      revert\n    tag_200:\n        /* \"contracts/w5_LuckyDraw.sol\":3683:3698  numberOfWinners */\n      dup1\n        /* \"contracts/w5_LuckyDraw.sol\":3664:3679  consumedTickets */\n      sload(0x04)\n        /* \"contracts/w5_LuckyDraw.sol\":3664:3698  consumedTickets >= numberOfWinners */\n      lt\n      iszero\n        /* \"contracts/w5_LuckyDraw.sol\":3656:3719  require(consumedTickets >= numberOfWinners, \"Too many winners\") */\n      tag_203\n      jumpi\n      mload(0x40)\n      0x08c379a000000000000000000000000000000000000000000000000000000000\n      dup2\n      mstore\n      0x04\n      add\n      tag_204\n      swap1\n      tag_205\n      jump\t// in\n    tag_204:\n      mload(0x40)\n      dup1\n      swap2\n      sub\n      swap1\n      revert\n    tag_203:\n        /* \"contracts/w5_LuckyDraw.sol\":3780:3804  address[] memory winners */\n      0x00\n        /* \"contracts/w5_LuckyDraw.sol\":3821:3836  numberOfWinners */\n      dup2\n        /* \"contracts/w5_LuckyDraw.sol\":3807:3837  new address[](numberOfWinners) */\n      0xffffffffffffffff\n      dup2\n      gt\n      iszero\n      tag_206\n      jumpi\n      tag_207\n      tag_208\n      jump\t// in\n    tag_207:\n    tag_206:\n      mload(0x40)\n      swap1\n      dup1\n      dup3\n      mstore\n      dup1\n      0x20\n      mul\n      0x20\n      add\n      dup3\n      add\n      0x40\n      mstore\n      dup1\n      iszero\n      tag_209\n      jumpi\n      dup2\n      0x20\n      add\n      0x20\n      dup3\n      mul\n      dup1\n      calldatasize\n      dup4\n      calldatacopy\n      dup1\n      dup3\n      add\n      swap2\n      pop\n      pop\n      swap1\n      pop\n    tag_209:\n      pop\n        /* \"contracts/w5_LuckyDraw.sol\":3780:3837  address[] memory winners = new address[](numberOfWinners) */\n      swap1\n      pop\n        /* \"contracts/w5_LuckyDraw.sol\":3930:3945  uint totalPrize */\n      0x00\n        /* \"contracts/w5_LuckyDraw.sol\":3967:3970  100 */\n      0x64\n        /* \"contracts/w5_LuckyDraw.sol\":3961:3963  90 */\n      0x5a\n        /* \"contracts/w5_LuckyDraw.sol\":3949:3958  prizePool */\n      sload(0x03)\n        /* \"contracts/w5_LuckyDraw.sol\":3949:3963  prizePool * 90 */\n      tag_210\n      swap2\n      swap1\n      tag_171\n      jump\t// in\n    tag_210:\n        /* \"contracts/w5_LuckyDraw.sol\":3948:3970  (prizePool * 90) / 100 */\n      tag_211\n      swap2\n      swap1\n      tag_212\n      jump\t// in\n    tag_211:\n        /* \"contracts/w5_LuckyDraw.sol\":3930:3970  uint totalPrize = (prizePool * 90) / 100 */\n      swap1\n      pop\n        /* \"contracts/w5_LuckyDraw.sol\":3980:3999  uint sharePerWinner */\n      0x00\n        /* \"contracts/w5_LuckyDraw.sol\":4015:4030  numberOfWinners */\n      dup4\n        /* \"contracts/w5_LuckyDraw.sol\":4002:4012  totalPrize */\n      dup3\n        /* \"contracts/w5_LuckyDraw.sol\":4002:4030  totalPrize / numberOfWinners */\n      tag_213\n      swap2\n      swap1\n      tag_212\n      jump\t// in\n    tag_213:\n        /* \"contracts/w5_LuckyDraw.sol\":3980:4030  uint sharePerWinner = totalPrize / numberOfWinners */\n      swap1\n      pop\n        /* \"contracts/w5_LuckyDraw.sol\":4094:4100  uint i */\n      0x00\n        /* \"contracts/w5_LuckyDraw.sol\":4089:5496  for (uint i = 0; i < numberOfWinners; i++) {... */\n    tag_214:\n        /* \"contracts/w5_LuckyDraw.sol\":4110:4125  numberOfWinners */\n      dup5\n        /* \"contracts/w5_LuckyDraw.sol\":4106:4107  i */\n      dup2\n        /* \"contracts/w5_LuckyDraw.sol\":4106:4125  i < numberOfWinners */\n      lt\n        /* \"contracts/w5_LuckyDraw.sol\":4089:5496  for (uint i = 0; i < numberOfWinners; i++) {... */\n      iszero\n      tag_215\n      jumpi\n        /* \"contracts/w5_LuckyDraw.sol\":4159:4179  selectRandomWinner() */\n      tag_217\n        /* \"contracts/w5_LuckyDraw.sol\":4159:4177  selectRandomWinner */\n      tag_218\n        /* \"contracts/w5_LuckyDraw.sol\":4159:4179  selectRandomWinner() */\n      jump\t// in\n    tag_217:\n        /* \"contracts/w5_LuckyDraw.sol\":4146:4153  winners */\n      dup5\n        /* \"contracts/w5_LuckyDraw.sol\":4154:4155  i */\n      dup3\n        /* \"contracts/w5_LuckyDraw.sol\":4146:4156  winners[i] */\n      dup2\n      mload\n      dup2\n      lt\n      tag_219\n      jumpi\n      tag_220\n      tag_221\n      jump\t// in\n    tag_220:\n    tag_219:\n      0x20\n      mul\n      0x20\n      add\n      add\n        /* \"contracts/w5_LuckyDraw.sol\":4146:4179  winners[i] = selectRandomWinner() */\n      swap1\n      0xffffffffffffffffffffffffffffffffffffffff\n      and\n      swap1\n      dup2\n      0xffffffffffffffffffffffffffffffffffffffff\n      and\n      dup2\n      mstore\n      pop\n      pop\n        /* \"contracts/w5_LuckyDraw.sol\":4193:4210  bool winnerExists */\n      0x00\n        /* \"contracts/w5_LuckyDraw.sol\":4237:4243  uint j */\n      dup1\n        /* \"contracts/w5_LuckyDraw.sol\":4232:4559  for (uint j = 0; j < pastWinners.length; j++) {... */\n    tag_222:\n        /* \"contracts/w5_LuckyDraw.sol\":4253:4264  pastWinners */\n      0x08\n        /* \"contracts/w5_LuckyDraw.sol\":4253:4271  pastWinners.length */\n      dup1\n      sload\n      swap1\n      pop\n        /* \"contracts/w5_LuckyDraw.sol\":4249:4250  j */\n      dup2\n        /* \"contracts/w5_LuckyDraw.sol\":4249:4271  j < pastWinners.length */\n      lt\n        /* \"contracts/w5_LuckyDraw.sol\":4232:4559  for (uint j = 0; j < pastWinners.length; j++) {... */\n      iszero\n      tag_223\n      jumpi\n        /* \"contracts/w5_LuckyDraw.sol\":4330:4337  winners */\n      dup6\n        /* \"contracts/w5_LuckyDraw.sol\":4338:4339  i */\n      dup4\n        /* \"contracts/w5_LuckyDraw.sol\":4330:4340  winners[i] */\n      dup2\n      mload\n      dup2\n      lt\n      tag_225\n      jumpi\n      tag_226\n      tag_221\n      jump\t// in\n    tag_226:\n    tag_225:\n      0x20\n      mul\n      0x20\n      add\n      add\n      mload\n        /* \"contracts/w5_LuckyDraw.sol\":4300:4340  pastWinners[j].userAddress == winners[i] */\n      0xffffffffffffffffffffffffffffffffffffffff\n      and\n        /* \"contracts/w5_LuckyDraw.sol\":4300:4311  pastWinners */\n      0x08\n        /* \"contracts/w5_LuckyDraw.sol\":4312:4313  j */\n      dup3\n        /* \"contracts/w5_LuckyDraw.sol\":4300:4314  pastWinners[j] */\n      dup2\n      sload\n      dup2\n      lt\n      tag_227\n      jumpi\n      tag_228\n      tag_221\n      jump\t// in\n    tag_228:\n    tag_227:\n      swap1\n      0x00\n      mstore\n      keccak256(0x00, 0x20)\n      swap1\n      0x02\n      mul\n      add\n        /* \"contracts/w5_LuckyDraw.sol\":4300:4326  pastWinners[j].userAddress */\n      0x00\n      add\n      0x00\n      swap1\n      sload\n      swap1\n      0x0100\n      exp\n      swap1\n      div\n      0xffffffffffffffffffffffffffffffffffffffff\n      and\n        /* \"contracts/w5_LuckyDraw.sol\":4300:4340  pastWinners[j].userAddress == winners[i] */\n      0xffffffffffffffffffffffffffffffffffffffff\n      and\n      sub\n        /* \"contracts/w5_LuckyDraw.sol\":4296:4545  if (pastWinners[j].userAddress == winners[i]) {... */\n      tag_230\n      jumpi\n        /* \"contracts/w5_LuckyDraw.sol\":4457:4458  1 */\n      0x01\n        /* \"contracts/w5_LuckyDraw.sol\":4434:4445  pastWinners */\n      0x08\n        /* \"contracts/w5_LuckyDraw.sol\":4446:4447  j */\n      dup3\n        /* \"contracts/w5_LuckyDraw.sol\":4434:4448  pastWinners[j] */\n      dup2\n      sload\n      dup2\n      lt\n      tag_231\n      jumpi\n      tag_232\n      tag_221\n      jump\t// in\n    tag_232:\n    tag_231:\n      swap1\n      0x00\n      mstore\n      keccak256(0x00, 0x20)\n      swap1\n      0x02\n      mul\n      add\n        /* \"contracts/w5_LuckyDraw.sol\":4434:4453  pastWinners[j].wins */\n      0x01\n      add\n      0x00\n        /* \"contracts/w5_LuckyDraw.sol\":4434:4458  pastWinners[j].wins += 1 */\n      dup3\n      dup3\n      sload\n      tag_234\n      swap2\n      swap1\n      tag_181\n      jump\t// in\n    tag_234:\n      swap3\n      pop\n      pop\n      dup2\n      swap1\n      sstore\n      pop\n        /* \"contracts/w5_LuckyDraw.sol\":4495:4499  true */\n      0x01\n        /* \"contracts/w5_LuckyDraw.sol\":4480:4499  winnerExists = true */\n      swap2\n      pop\n        /* \"contracts/w5_LuckyDraw.sol\":4521:4526  break */\n      jump(tag_223)\n        /* \"contracts/w5_LuckyDraw.sol\":4296:4545  if (pastWinners[j].userAddress == winners[i]) {... */\n    tag_230:\n        /* \"contracts/w5_LuckyDraw.sol\":4273:4276  j++ */\n      dup1\n      dup1\n      0x01\n      add\n      swap2\n      pop\n      pop\n        /* \"contracts/w5_LuckyDraw.sol\":4232:4559  for (uint j = 0; j < pastWinners.length; j++) {... */\n      jump(tag_222)\n    tag_223:\n      pop\n        /* \"contracts/w5_LuckyDraw.sol\":4577:4589  winnerExists */\n      dup1\n        /* \"contracts/w5_LuckyDraw.sol\":4572:4803  if (!winnerExists) {... */\n      tag_235\n      jumpi\n        /* \"contracts/w5_LuckyDraw.sol\":4665:4676  pastWinners */\n      0x08\n        /* \"contracts/w5_LuckyDraw.sol\":4682:4787  PastWinners({... */\n      mload(0x40)\n      dup1\n      0x40\n      add\n      0x40\n      mstore\n      dup1\n        /* \"contracts/w5_LuckyDraw.sol\":4729:4736  winners */\n      dup8\n        /* \"contracts/w5_LuckyDraw.sol\":4737:4738  i */\n      dup6\n        /* \"contracts/w5_LuckyDraw.sol\":4729:4739  winners[i] */\n      dup2\n      mload\n      dup2\n      lt\n      tag_236\n      jumpi\n      tag_237\n      tag_221\n      jump\t// in\n    tag_237:\n    tag_236:\n      0x20\n      mul\n      0x20\n      add\n      add\n      mload\n        /* \"contracts/w5_LuckyDraw.sol\":4682:4787  PastWinners({... */\n      0xffffffffffffffffffffffffffffffffffffffff\n      and\n      dup2\n      mstore\n      0x20\n      add\n        /* \"contracts/w5_LuckyDraw.sol\":4767:4768  1 */\n      0x01\n        /* \"contracts/w5_LuckyDraw.sol\":4682:4787  PastWinners({... */\n      dup2\n      mstore\n      pop\n        /* \"contracts/w5_LuckyDraw.sol\":4665:4788  pastWinners.push(PastWinners({... */\n      swap1\n      dup1\n      0x01\n      dup2\n      sload\n      add\n      dup1\n      dup3\n      sstore\n      dup1\n      swap2\n      pop\n      pop\n      0x01\n      swap1\n      sub\n      swap1\n      0x00\n      mstore\n      keccak256(0x00, 0x20)\n      swap1\n      0x02\n      mul\n      add\n      0x00\n      swap1\n      swap2\n      swap1\n      swap2\n      swap1\n      swap2\n      pop\n      0x00\n      dup3\n      add\n      mload\n      dup2\n      0x00\n      add\n      exp(0x0100, 0x00)\n      dup2\n      sload\n      dup2\n      0xffffffffffffffffffffffffffffffffffffffff\n      mul\n      not\n      and\n      swap1\n      dup4\n      0xffffffffffffffffffffffffffffffffffffffff\n      and\n      mul\n      or\n      swap1\n      sstore\n      pop\n      0x20\n      dup3\n      add\n      mload\n      dup2\n      0x01\n      add\n      sstore\n      pop\n      pop\n        /* \"contracts/w5_LuckyDraw.sol\":4572:4803  if (!winnerExists) {... */\n    tag_235:\n        /* \"contracts/w5_LuckyDraw.sol\":4845:4859  last_X_Winners */\n      sload(0x0a)\n        /* \"contracts/w5_LuckyDraw.sol\":4821:4834  winnerHistory */\n      0x09\n        /* \"contracts/w5_LuckyDraw.sol\":4821:4841  winnerHistory.length */\n      dup1\n      sload\n      swap1\n      pop\n        /* \"contracts/w5_LuckyDraw.sol\":4821:4859  winnerHistory.length >= last_X_Winners */\n      lt\n        /* \"contracts/w5_LuckyDraw.sol\":4817:5224  if (winnerHistory.length >= last_X_Winners) {... */\n      tag_239\n      jumpi\n        /* \"contracts/w5_LuckyDraw.sol\":4944:4950  uint k */\n      0x00\n        /* \"contracts/w5_LuckyDraw.sol\":4939:5071  for (uint k = 0; k < winnerHistory.length - 1; k++) {... */\n    tag_240:\n        /* \"contracts/w5_LuckyDraw.sol\":4983:4984  1 */\n      0x01\n        /* \"contracts/w5_LuckyDraw.sol\":4960:4973  winnerHistory */\n      0x09\n        /* \"contracts/w5_LuckyDraw.sol\":4960:4980  winnerHistory.length */\n      dup1\n      sload\n      swap1\n      pop\n        /* \"contracts/w5_LuckyDraw.sol\":4960:4984  winnerHistory.length - 1 */\n      tag_243\n      swap2\n      swap1\n      tag_184\n      jump\t// in\n    tag_243:\n        /* \"contracts/w5_LuckyDraw.sol\":4956:4957  k */\n      dup2\n        /* \"contracts/w5_LuckyDraw.sol\":4956:4984  k < winnerHistory.length - 1 */\n      lt\n        /* \"contracts/w5_LuckyDraw.sol\":4939:5071  for (uint k = 0; k < winnerHistory.length - 1; k++) {... */\n      iszero\n      tag_241\n      jumpi\n        /* \"contracts/w5_LuckyDraw.sol\":5032:5045  winnerHistory */\n      0x09\n        /* \"contracts/w5_LuckyDraw.sol\":5050:5051  1 */\n      0x01\n        /* \"contracts/w5_LuckyDraw.sol\":5046:5047  k */\n      dup3\n        /* \"contracts/w5_LuckyDraw.sol\":5046:5051  k + 1 */\n      tag_244\n      swap2\n      swap1\n      tag_181\n      jump\t// in\n    tag_244:\n        /* \"contracts/w5_LuckyDraw.sol\":5032:5052  winnerHistory[k + 1] */\n      dup2\n      sload\n      dup2\n      lt\n      tag_245\n      jumpi\n      tag_246\n      tag_221\n      jump\t// in\n    tag_246:\n    tag_245:\n      swap1\n      0x00\n      mstore\n      keccak256(0x00, 0x20)\n      add\n      0x00\n      swap1\n      sload\n      swap1\n      0x0100\n      exp\n      swap1\n      div\n      0xffffffffffffffffffffffffffffffffffffffff\n      and\n        /* \"contracts/w5_LuckyDraw.sol\":5013:5026  winnerHistory */\n      0x09\n        /* \"contracts/w5_LuckyDraw.sol\":5027:5028  k */\n      dup3\n        /* \"contracts/w5_LuckyDraw.sol\":5013:5029  winnerHistory[k] */\n      dup2\n      sload\n      dup2\n      lt\n      tag_248\n      jumpi\n      tag_249\n      tag_221\n      jump\t// in\n    tag_249:\n    tag_248:\n      swap1\n      0x00\n      mstore\n      keccak256(0x00, 0x20)\n      add\n      0x00\n        /* \"contracts/w5_LuckyDraw.sol\":5013:5052  winnerHistory[k] = winnerHistory[k + 1] */\n      0x0100\n      exp\n      dup2\n      sload\n      dup2\n      0xffffffffffffffffffffffffffffffffffffffff\n      mul\n      not\n      and\n      swap1\n      dup4\n      0xffffffffffffffffffffffffffffffffffffffff\n      and\n      mul\n      or\n      swap1\n      sstore\n      pop\n        /* \"contracts/w5_LuckyDraw.sol\":4986:4989  k++ */\n      dup1\n      dup1\n      0x01\n      add\n      swap2\n      pop\n      pop\n        /* \"contracts/w5_LuckyDraw.sol\":4939:5071  for (uint k = 0; k < winnerHistory.length - 1; k++) {... */\n      jump(tag_240)\n    tag_241:\n      pop\n        /* \"contracts/w5_LuckyDraw.sol\":5130:5137  winners */\n      dup5\n        /* \"contracts/w5_LuckyDraw.sol\":5138:5139  i */\n      dup3\n        /* \"contracts/w5_LuckyDraw.sol\":5130:5140  winners[i] */\n      dup2\n      mload\n      dup2\n      lt\n      tag_251\n      jumpi\n      tag_252\n      tag_221\n      jump\t// in\n    tag_252:\n    tag_251:\n      0x20\n      mul\n      0x20\n      add\n      add\n      mload\n        /* \"contracts/w5_LuckyDraw.sol\":5088:5101  winnerHistory */\n      0x09\n        /* \"contracts/w5_LuckyDraw.sol\":5125:5126  1 */\n      0x01\n        /* \"contracts/w5_LuckyDraw.sol\":5102:5115  winnerHistory */\n      0x09\n        /* \"contracts/w5_LuckyDraw.sol\":5102:5122  winnerHistory.length */\n      dup1\n      sload\n      swap1\n      pop\n        /* \"contracts/w5_LuckyDraw.sol\":5102:5126  winnerHistory.length - 1 */\n      tag_253\n      swap2\n      swap1\n      tag_184\n      jump\t// in\n    tag_253:\n        /* \"contracts/w5_LuckyDraw.sol\":5088:5127  winnerHistory[winnerHistory.length - 1] */\n      dup2\n      sload\n      dup2\n      lt\n      tag_254\n      jumpi\n      tag_255\n      tag_221\n      jump\t// in\n    tag_255:\n    tag_254:\n      swap1\n      0x00\n      mstore\n      keccak256(0x00, 0x20)\n      add\n      0x00\n        /* \"contracts/w5_LuckyDraw.sol\":5088:5140  winnerHistory[winnerHistory.length - 1] = winners[i] */\n      0x0100\n      exp\n      dup2\n      sload\n      dup2\n      0xffffffffffffffffffffffffffffffffffffffff\n      mul\n      not\n      and\n      swap1\n      dup4\n      0xffffffffffffffffffffffffffffffffffffffff\n      and\n      mul\n      or\n      swap1\n      sstore\n      pop\n        /* \"contracts/w5_LuckyDraw.sol\":4817:5224  if (winnerHistory.length >= last_X_Winners) {... */\n      jump(tag_257)\n    tag_239:\n        /* \"contracts/w5_LuckyDraw.sol\":5179:5192  winnerHistory */\n      0x09\n        /* \"contracts/w5_LuckyDraw.sol\":5198:5205  winners */\n      dup6\n        /* \"contracts/w5_LuckyDraw.sol\":5206:5207  i */\n      dup4\n        /* \"contracts/w5_LuckyDraw.sol\":5198:5208  winners[i] */\n      dup2\n      mload\n      dup2\n      lt\n      tag_258\n      jumpi\n      tag_259\n      tag_221\n      jump\t// in\n    tag_259:\n    tag_258:\n      0x20\n      mul\n      0x20\n      add\n      add\n      mload\n        /* \"contracts/w5_LuckyDraw.sol\":5179:5209  winnerHistory.push(winners[i]) */\n      swap1\n      dup1\n      0x01\n      dup2\n      sload\n      add\n      dup1\n      dup3\n      sstore\n      dup1\n      swap2\n      pop\n      pop\n      0x01\n      swap1\n      sub\n      swap1\n      0x00\n      mstore\n      keccak256(0x00, 0x20)\n      add\n      0x00\n      swap1\n      swap2\n      swap1\n      swap2\n      swap1\n      swap2\n      0x0100\n      exp\n      dup2\n      sload\n      dup2\n      0xffffffffffffffffffffffffffffffffffffffff\n      mul\n      not\n      and\n      swap1\n      dup4\n      0xffffffffffffffffffffffffffffffffffffffff\n      and\n      mul\n      or\n      swap1\n      sstore\n      pop\n        /* \"contracts/w5_LuckyDraw.sol\":4817:5224  if (winnerHistory.length >= last_X_Winners) {... */\n    tag_257:\n        /* \"contracts/w5_LuckyDraw.sol\":5243:5311  NewWinnerAdded(winners[i], pastWinners[pastWinners.length - 1].wins) */\n      0xe60b844d6fcf97a8804144bf76f323d7f9e4f62a9441a41c3ae50f47ae00ec17\n        /* \"contracts/w5_LuckyDraw.sol\":5258:5265  winners */\n      dup6\n        /* \"contracts/w5_LuckyDraw.sol\":5266:5267  i */\n      dup4\n        /* \"contracts/w5_LuckyDraw.sol\":5258:5268  winners[i] */\n      dup2\n      mload\n      dup2\n      lt\n      tag_261\n      jumpi\n      tag_262\n      tag_221\n      jump\t// in\n    tag_262:\n    tag_261:\n      0x20\n      mul\n      0x20\n      add\n      add\n      mload\n        /* \"contracts/w5_LuckyDraw.sol\":5270:5281  pastWinners */\n      0x08\n        /* \"contracts/w5_LuckyDraw.sol\":5303:5304  1 */\n      0x01\n        /* \"contracts/w5_LuckyDraw.sol\":5282:5293  pastWinners */\n      0x08\n        /* \"contracts/w5_LuckyDraw.sol\":5282:5300  pastWinners.length */\n      dup1\n      sload\n      swap1\n      pop\n        /* \"contracts/w5_LuckyDraw.sol\":5282:5304  pastWinners.length - 1 */\n      tag_263\n      swap2\n      swap1\n      tag_184\n      jump\t// in\n    tag_263:\n        /* \"contracts/w5_LuckyDraw.sol\":5270:5305  pastWinners[pastWinners.length - 1] */\n      dup2\n      sload\n      dup2\n      lt\n      tag_264\n      jumpi\n      tag_265\n      tag_221\n      jump\t// in\n    tag_265:\n    tag_264:\n      swap1\n      0x00\n      mstore\n      keccak256(0x00, 0x20)\n      swap1\n      0x02\n      mul\n      add\n        /* \"contracts/w5_LuckyDraw.sol\":5270:5310  pastWinners[pastWinners.length - 1].wins */\n      0x01\n      add\n      sload\n        /* \"contracts/w5_LuckyDraw.sol\":5243:5311  NewWinnerAdded(winners[i], pastWinners[pastWinners.length - 1].wins) */\n      mload(0x40)\n      tag_267\n      swap3\n      swap2\n      swap1\n      tag_136\n      jump\t// in\n    tag_267:\n      mload(0x40)\n      dup1\n      swap2\n      sub\n      swap1\n      log1\n        /* \"contracts/w5_LuckyDraw.sol\":5331:5353  WinnersGuy(winners[i]) */\n      0xd35e602b55017e45db8b6df7945c1e0bc479d25b1075d87e2e06402a3625cb00\n        /* \"contracts/w5_LuckyDraw.sol\":5342:5349  winners */\n      dup6\n        /* \"contracts/w5_LuckyDraw.sol\":5350:5351  i */\n      dup4\n        /* \"contracts/w5_LuckyDraw.sol\":5342:5352  winners[i] */\n      dup2\n      mload\n      dup2\n      lt\n      tag_268\n      jumpi\n      tag_269\n      tag_221\n      jump\t// in\n    tag_269:\n    tag_268:\n      0x20\n      mul\n      0x20\n      add\n      add\n      mload\n        /* \"contracts/w5_LuckyDraw.sol\":5331:5353  WinnersGuy(winners[i]) */\n      mload(0x40)\n      tag_270\n      swap2\n      swap1\n      tag_75\n      jump\t// in\n    tag_270:\n      mload(0x40)\n      dup1\n      swap2\n      sub\n      swap1\n      log1\n        /* \"contracts/w5_LuckyDraw.sol\":5368:5377  bool sent */\n      0x00\n        /* \"contracts/w5_LuckyDraw.sol\":5391:5398  winners */\n      dup6\n        /* \"contracts/w5_LuckyDraw.sol\":5399:5400  i */\n      dup4\n        /* \"contracts/w5_LuckyDraw.sol\":5391:5401  winners[i] */\n      dup2\n      mload\n      dup2\n      lt\n      tag_271\n      jumpi\n      tag_272\n      tag_221\n      jump\t// in\n    tag_272:\n    tag_271:\n      0x20\n      mul\n      0x20\n      add\n      add\n      mload\n        /* \"contracts/w5_LuckyDraw.sol\":5383:5407  payable(winners[i]).call */\n      0xffffffffffffffffffffffffffffffffffffffff\n      and\n        /* \"contracts/w5_LuckyDraw.sol\":5415:5429  sharePerWinner */\n      dup5\n        /* \"contracts/w5_LuckyDraw.sol\":5383:5434  payable(winners[i]).call{value: sharePerWinner}(\"\") */\n      mload(0x40)\n      tag_273\n      swap1\n      tag_274\n      jump\t// in\n    tag_273:\n      0x00\n      mload(0x40)\n      dup1\n      dup4\n      sub\n      dup2\n      dup6\n      dup8\n      gas\n      call\n      swap3\n      pop\n      pop\n      pop\n      returndatasize\n      dup1\n      0x00\n      dup2\n      eq\n      tag_277\n      jumpi\n      mload(0x40)\n      swap2\n      pop\n      and(add(returndatasize, 0x3f), not(0x1f))\n      dup3\n      add\n      0x40\n      mstore\n      returndatasize\n      dup3\n      mstore\n      returndatasize\n      0x00\n      0x20\n      dup5\n      add\n      returndatacopy\n      jump(tag_276)\n    tag_277:\n      0x60\n      swap2\n      pop\n    tag_276:\n      pop\n        /* \"contracts/w5_LuckyDraw.sol\":5367:5434  (bool sent, ) = payable(winners[i]).call{value: sharePerWinner}(\"\") */\n      pop\n      swap1\n      pop\n        /* \"contracts/w5_LuckyDraw.sol\":5456:5460  sent */\n      dup1\n        /* \"contracts/w5_LuckyDraw.sol\":5448:5485  require(sent, \"Failed to send Ether\") */\n      tag_278\n      jumpi\n      mload(0x40)\n      0x08c379a000000000000000000000000000000000000000000000000000000000\n      dup2\n      mstore\n      0x04\n      add\n      tag_279\n      swap1\n      tag_280\n      jump\t// in\n    tag_279:\n      mload(0x40)\n      dup1\n      swap2\n      sub\n      swap1\n      revert\n    tag_278:\n        /* \"contracts/w5_LuckyDraw.sol\":4132:5496  {... */\n      pop\n      pop\n        /* \"contracts/w5_LuckyDraw.sol\":4127:4130  i++ */\n      dup1\n      dup1\n      0x01\n      add\n      swap2\n      pop\n      pop\n        /* \"contracts/w5_LuckyDraw.sol\":4089:5496  for (uint i = 0; i < numberOfWinners; i++) {... */\n      jump(tag_214)\n    tag_215:\n      pop\n        /* \"contracts/w5_LuckyDraw.sol\":5571:5581  totalPrize */\n      dup2\n        /* \"contracts/w5_LuckyDraw.sol\":5558:5567  prizePool */\n      0x03\n      0x00\n        /* \"contracts/w5_LuckyDraw.sol\":5558:5581  prizePool -= totalPrize */\n      dup3\n      dup3\n      sload\n      tag_281\n      swap2\n      swap1\n      tag_184\n      jump\t// in\n    tag_281:\n      swap3\n      pop\n      pop\n      dup2\n      swap1\n      sstore\n      pop\n        /* \"contracts/w5_LuckyDraw.sol\":5596:5617  WinnersDrawn(winners) */\n      0x01e26fd9468170c075e6afc90d001d0e84ba9f84a6816461d03d2a4e7f6aa7de\n        /* \"contracts/w5_LuckyDraw.sol\":5609:5616  winners */\n      dup4\n        /* \"contracts/w5_LuckyDraw.sol\":5596:5617  WinnersDrawn(winners) */\n      mload(0x40)\n      tag_282\n      swap2\n      swap1\n      tag_69\n      jump\t// in\n    tag_282:\n      mload(0x40)\n      dup1\n      swap2\n      sub\n      swap1\n      log1\n        /* \"contracts/w5_LuckyDraw.sol\":3356:5624  {... */\n      pop\n      pop\n      pop\n        /* \"contracts/w5_LuckyDraw.sol\":3296:5624  function drawWinners(uint numberOfWinners) public onlyOwner {... */\n      pop\n      jump\t// out\n        /* \"contracts/w5_LuckyDraw.sol\":393:417  uint public totalTickets */\n    tag_125:\n      sload(0x02)\n      dup2\n      jump\t// out\n        /* \"contracts/w5_LuckyDraw.sol\":8018:8118  function getMyTickets() public view returns (uint) {... */\n    tag_129:\n        /* \"contracts/w5_LuckyDraw.sol\":8063:8067  uint */\n      0x00\n        /* \"contracts/w5_LuckyDraw.sol\":8086:8099  ticketsBought */\n      0x06\n        /* \"contracts/w5_LuckyDraw.sol\":8086:8111  ticketsBought[msg.sender] */\n      0x00\n        /* \"contracts/w5_LuckyDraw.sol\":8100:8110  msg.sender */\n      caller\n        /* \"contracts/w5_LuckyDraw.sol\":8086:8111  ticketsBought[msg.sender] */\n      0xffffffffffffffffffffffffffffffffffffffff\n      and\n      0xffffffffffffffffffffffffffffffffffffffff\n      and\n      dup2\n      mstore\n      0x20\n      add\n      swap1\n      dup2\n      mstore\n      0x20\n      add\n      0x00\n      keccak256\n      sload\n        /* \"contracts/w5_LuckyDraw.sol\":8079:8111  return ticketsBought[msg.sender] */\n      swap1\n      pop\n        /* \"contracts/w5_LuckyDraw.sol\":8018:8118  function getMyTickets() public view returns (uint) {... */\n      swap1\n      jump\t// out\n        /* \"contracts/w5_LuckyDraw.sol\":877:909  PastWinners[] public pastWinners */\n    tag_134:\n      0x08\n      dup2\n      dup2\n      sload\n      dup2\n      lt\n      tag_284\n      jumpi\n      0x00\n      dup1\n      revert\n    tag_284:\n      swap1\n      0x00\n      mstore\n      keccak256(0x00, 0x20)\n      swap1\n      0x02\n      mul\n      add\n      0x00\n      swap2\n      pop\n      swap1\n      pop\n      dup1\n      0x00\n      add\n      0x00\n      swap1\n      sload\n      swap1\n      0x0100\n      exp\n      swap1\n      div\n      0xffffffffffffffffffffffffffffffffffffffff\n      and\n      swap1\n      dup1\n      0x01\n      add\n      sload\n      swap1\n      pop\n      dup3\n      jump\t// out\n        /* \"contracts/w5_LuckyDraw.sol\":7518:7688  function withdrawRemaining() public onlyOwner {... */\n    tag_139:\n        /* \"contracts/w5_LuckyDraw.sol\":8786:8791  owner */\n      0x00\n      dup1\n      sload\n      swap1\n      0x0100\n      exp\n      swap1\n      div\n      0xffffffffffffffffffffffffffffffffffffffff\n      and\n        /* \"contracts/w5_LuckyDraw.sol\":8772:8791  msg.sender == owner */\n      0xffffffffffffffffffffffffffffffffffffffff\n      and\n        /* \"contracts/w5_LuckyDraw.sol\":8772:8782  msg.sender */\n      caller\n        /* \"contracts/w5_LuckyDraw.sol\":8772:8791  msg.sender == owner */\n      0xffffffffffffffffffffffffffffffffffffffff\n      and\n      eq\n        /* \"contracts/w5_LuckyDraw.sol\":8764:8829  require(msg.sender == owner, \"Only owner can call this function\") */\n      tag_287\n      jumpi\n      mload(0x40)\n      0x08c379a000000000000000000000000000000000000000000000000000000000\n      dup2\n      mstore\n      0x04\n      add\n      tag_288\n      swap1\n      tag_149\n      jump\t// in\n    tag_288:\n      mload(0x40)\n      dup1\n      swap2\n      sub\n      swap1\n      revert\n    tag_287:\n        /* \"contracts/w5_LuckyDraw.sol\":7575:7584  bool sent */\n      0x00\n        /* \"contracts/w5_LuckyDraw.sol\":7590:7595  owner */\n      dup1\n      0x00\n      swap1\n      sload\n      swap1\n      0x0100\n      exp\n      swap1\n      div\n      0xffffffffffffffffffffffffffffffffffffffff\n      and\n        /* \"contracts/w5_LuckyDraw.sol\":7590:7600  owner.call */\n      0xffffffffffffffffffffffffffffffffffffffff\n      and\n        /* \"contracts/w5_LuckyDraw.sol\":7608:7629  address(this).balance */\n      selfbalance\n        /* \"contracts/w5_LuckyDraw.sol\":7590:7634  owner.call{value: address(this).balance}(\"\") */\n      mload(0x40)\n      tag_290\n      swap1\n      tag_274\n      jump\t// in\n    tag_290:\n      0x00\n      mload(0x40)\n      dup1\n      dup4\n      sub\n      dup2\n      dup6\n      dup8\n      gas\n      call\n      swap3\n      pop\n      pop\n      pop\n      returndatasize\n      dup1\n      0x00\n      dup2\n      eq\n      tag_293\n      jumpi\n      mload(0x40)\n      swap2\n      pop\n      and(add(returndatasize, 0x3f), not(0x1f))\n      dup3\n      add\n      0x40\n      mstore\n      returndatasize\n      dup3\n      mstore\n      returndatasize\n      0x00\n      0x20\n      dup5\n      add\n      returndatacopy\n      jump(tag_292)\n    tag_293:\n      0x60\n      swap2\n      pop\n    tag_292:\n      pop\n        /* \"contracts/w5_LuckyDraw.sol\":7574:7634  (bool sent, ) = owner.call{value: address(this).balance}(\"\") */\n      pop\n      swap1\n      pop\n        /* \"contracts/w5_LuckyDraw.sol\":7652:7656  sent */\n      dup1\n        /* \"contracts/w5_LuckyDraw.sol\":7644:7681  require(sent, \"Failed to send Ether\") */\n      tag_294\n      jumpi\n      mload(0x40)\n      0x08c379a000000000000000000000000000000000000000000000000000000000\n      dup2\n      mstore\n      0x04\n      add\n      tag_295\n      swap1\n      tag_280\n      jump\t// in\n    tag_295:\n      mload(0x40)\n      dup1\n      swap2\n      sub\n      swap1\n      revert\n    tag_294:\n        /* \"contracts/w5_LuckyDraw.sol\":7564:7688  {... */\n      pop\n        /* \"contracts/w5_LuckyDraw.sol\":7518:7688  function withdrawRemaining() public onlyOwner {... */\n      jump\t// out\n        /* \"contracts/w5_LuckyDraw.sol\":951:977  uint public last_X_Winners */\n    tag_142:\n      sload(0x0a)\n      dup2\n      jump\t// out\n        /* \"contracts/w5_LuckyDraw.sol\":5709:7445  function selectRandomWinner() private returns (address) {... */\n    tag_218:\n        /* \"contracts/w5_LuckyDraw.sol\":5756:5763  address */\n      0x00\n        /* \"contracts/w5_LuckyDraw.sol\":5833:5844  uint random */\n      dup1\n        /* \"contracts/w5_LuckyDraw.sol\":5917:5918  1 */\n      0x01\n        /* \"contracts/w5_LuckyDraw.sol\":5902:5914  block.number */\n      number\n        /* \"contracts/w5_LuckyDraw.sol\":5902:5918  block.number - 1 */\n      tag_297\n      swap2\n      swap1\n      tag_184\n      jump\t// in\n    tag_297:\n        /* \"contracts/w5_LuckyDraw.sol\":5892:5919  blockhash(block.number - 1) */\n      blockhash\n        /* \"contracts/w5_LuckyDraw.sol\":5933:5948  block.timestamp */\n      timestamp\n        /* \"contracts/w5_LuckyDraw.sol\":5962:5974  totalTickets */\n      sload(0x02)\n        /* \"contracts/w5_LuckyDraw.sol\":5862:5984  abi.encodePacked(... */\n      add(0x20, mload(0x40))\n      tag_298\n      swap4\n      swap3\n      swap2\n      swap1\n      tag_299\n      jump\t// in\n    tag_298:\n      mload(0x40)\n      0x20\n      dup2\n      dup4\n      sub\n      sub\n      dup2\n      mstore\n      swap1\n      0x40\n      mstore\n        /* \"contracts/w5_LuckyDraw.sol\":5852:5985  keccak256(abi.encodePacked(... */\n      dup1\n      mload\n      swap1\n      0x20\n      add\n      keccak256\n        /* \"contracts/w5_LuckyDraw.sol\":5847:5986  uint(keccak256(abi.encodePacked(... */\n      0x00\n      shr\n        /* \"contracts/w5_LuckyDraw.sol\":5833:5986  uint random = uint(keccak256(abi.encodePacked(... */\n      swap1\n      pop\n        /* \"contracts/w5_LuckyDraw.sol\":6052:6068  uint winnerIndex */\n      0x00\n        /* \"contracts/w5_LuckyDraw.sol\":6080:6095  consumedTickets */\n      sload(0x04)\n        /* \"contracts/w5_LuckyDraw.sol\":6071:6077  random */\n      dup3\n        /* \"contracts/w5_LuckyDraw.sol\":6071:6095  random % consumedTickets */\n      tag_300\n      swap2\n      swap1\n      tag_301\n      jump\t// in\n    tag_300:\n        /* \"contracts/w5_LuckyDraw.sol\":6052:6095  uint winnerIndex = random % consumedTickets */\n      swap1\n      pop\n        /* \"contracts/w5_LuckyDraw.sol\":6105:6117  uint counter */\n      0x00\n        /* \"contracts/w5_LuckyDraw.sol\":6200:6206  uint i */\n      dup1\n        /* \"contracts/w5_LuckyDraw.sol\":6195:7404  for (uint i = 0; i < participants.length; i++) {... */\n    tag_302:\n        /* \"contracts/w5_LuckyDraw.sol\":6216:6228  participants */\n      0x07\n        /* \"contracts/w5_LuckyDraw.sol\":6216:6235  participants.length */\n      dup1\n      sload\n      swap1\n      pop\n        /* \"contracts/w5_LuckyDraw.sol\":6212:6213  i */\n      dup2\n        /* \"contracts/w5_LuckyDraw.sol\":6212:6235  i < participants.length */\n      lt\n        /* \"contracts/w5_LuckyDraw.sol\":6195:7404  for (uint i = 0; i < participants.length; i++) {... */\n      iszero\n      tag_303\n      jumpi\n        /* \"contracts/w5_LuckyDraw.sol\":6256:6275  address participant */\n      0x00\n        /* \"contracts/w5_LuckyDraw.sol\":6278:6290  participants */\n      0x07\n        /* \"contracts/w5_LuckyDraw.sol\":6291:6292  i */\n      dup3\n        /* \"contracts/w5_LuckyDraw.sol\":6278:6293  participants[i] */\n      dup2\n      sload\n      dup2\n      lt\n      tag_305\n      jumpi\n      tag_306\n      tag_221\n      jump\t// in\n    tag_306:\n    tag_305:\n      swap1\n      0x00\n      mstore\n      keccak256(0x00, 0x20)\n      add\n      0x00\n      swap1\n      sload\n      swap1\n      0x0100\n      exp\n      swap1\n      div\n      0xffffffffffffffffffffffffffffffffffffffff\n      and\n        /* \"contracts/w5_LuckyDraw.sol\":6256:6293  address participant = participants[i] */\n      swap1\n      pop\n        /* \"contracts/w5_LuckyDraw.sol\":6307:6330  uint participantTickets */\n      0x00\n        /* \"contracts/w5_LuckyDraw.sol\":6333:6346  ticketsBought */\n      0x06\n        /* \"contracts/w5_LuckyDraw.sol\":6333:6359  ticketsBought[participant] */\n      0x00\n        /* \"contracts/w5_LuckyDraw.sol\":6347:6358  participant */\n      dup4\n        /* \"contracts/w5_LuckyDraw.sol\":6333:6359  ticketsBought[participant] */\n      0xffffffffffffffffffffffffffffffffffffffff\n      and\n      0xffffffffffffffffffffffffffffffffffffffff\n      and\n      dup2\n      mstore\n      0x20\n      add\n      swap1\n      dup2\n      mstore\n      0x20\n      add\n      0x00\n      keccak256\n      sload\n        /* \"contracts/w5_LuckyDraw.sol\":6307:6359  uint participantTickets = ticketsBought[participant] */\n      swap1\n      pop\n        /* \"contracts/w5_LuckyDraw.sol\":6488:6495  counter */\n      dup4\n        /* \"contracts/w5_LuckyDraw.sol\":6473:6484  winnerIndex */\n      dup6\n        /* \"contracts/w5_LuckyDraw.sol\":6473:6495  winnerIndex >= counter */\n      lt\n      iszero\n        /* \"contracts/w5_LuckyDraw.sol\":6473:6541  winnerIndex >= counter && winnerIndex < counter + participantTickets */\n      dup1\n      iszero\n      tag_308\n      jumpi\n      pop\n        /* \"contracts/w5_LuckyDraw.sol\":6523:6541  participantTickets */\n      dup1\n        /* \"contracts/w5_LuckyDraw.sol\":6513:6520  counter */\n      dup5\n        /* \"contracts/w5_LuckyDraw.sol\":6513:6541  counter + participantTickets */\n      tag_309\n      swap2\n      swap1\n      tag_181\n      jump\t// in\n    tag_309:\n        /* \"contracts/w5_LuckyDraw.sol\":6499:6510  winnerIndex */\n      dup6\n        /* \"contracts/w5_LuckyDraw.sol\":6499:6541  winnerIndex < counter + participantTickets */\n      lt\n        /* \"contracts/w5_LuckyDraw.sol\":6473:6541  winnerIndex >= counter && winnerIndex < counter + participantTickets */\n    tag_308:\n        /* \"contracts/w5_LuckyDraw.sol\":6469:7351  if (winnerIndex >= counter && winnerIndex < counter + participantTickets) {... */\n      iszero\n      tag_310\n      jumpi\n        /* \"contracts/w5_LuckyDraw.sol\":7060:7073  ticketsBought */\n      0x06\n        /* \"contracts/w5_LuckyDraw.sol\":7060:7086  ticketsBought[participant] */\n      0x00\n        /* \"contracts/w5_LuckyDraw.sol\":7074:7085  participant */\n      dup4\n        /* \"contracts/w5_LuckyDraw.sol\":7060:7086  ticketsBought[participant] */\n      0xffffffffffffffffffffffffffffffffffffffff\n      and\n      0xffffffffffffffffffffffffffffffffffffffff\n      and\n      dup2\n      mstore\n      0x20\n      add\n      swap1\n      dup2\n      mstore\n      0x20\n      add\n      0x00\n      keccak256\n      sload\n        /* \"contracts/w5_LuckyDraw.sol\":7042:7057  consumedTickets */\n      sload(0x04)\n        /* \"contracts/w5_LuckyDraw.sol\":7042:7086  consumedTickets - ticketsBought[participant] */\n      tag_311\n      swap2\n      swap1\n      tag_184\n      jump\t// in\n    tag_311:\n        /* \"contracts/w5_LuckyDraw.sol\":7024:7039  consumedTickets */\n      0x04\n        /* \"contracts/w5_LuckyDraw.sol\":7024:7086  consumedTickets = consumedTickets - ticketsBought[participant] */\n      dup2\n      swap1\n      sstore\n      pop\n        /* \"contracts/w5_LuckyDraw.sol\":7210:7222  participants */\n      0x07\n        /* \"contracts/w5_LuckyDraw.sol\":7245:7246  1 */\n      0x01\n        /* \"contracts/w5_LuckyDraw.sol\":7223:7235  participants */\n      0x07\n        /* \"contracts/w5_LuckyDraw.sol\":7223:7242  participants.length */\n      dup1\n      sload\n      swap1\n      pop\n        /* \"contracts/w5_LuckyDraw.sol\":7223:7246  participants.length - 1 */\n      tag_312\n      swap2\n      swap1\n      tag_184\n      jump\t// in\n    tag_312:\n        /* \"contracts/w5_LuckyDraw.sol\":7210:7247  participants[participants.length - 1] */\n      dup2\n      sload\n      dup2\n      lt\n      tag_313\n      jumpi\n      tag_314\n      tag_221\n      jump\t// in\n    tag_314:\n    tag_313:\n      swap1\n      0x00\n      mstore\n      keccak256(0x00, 0x20)\n      add\n      0x00\n      swap1\n      sload\n      swap1\n      0x0100\n      exp\n      swap1\n      div\n      0xffffffffffffffffffffffffffffffffffffffff\n      and\n        /* \"contracts/w5_LuckyDraw.sol\":7192:7204  participants */\n      0x07\n        /* \"contracts/w5_LuckyDraw.sol\":7205:7206  i */\n      dup5\n        /* \"contracts/w5_LuckyDraw.sol\":7192:7207  participants[i] */\n      dup2\n      sload\n      dup2\n      lt\n      tag_316\n      jumpi\n      tag_317\n      tag_221\n      jump\t// in\n    tag_317:\n    tag_316:\n      swap1\n      0x00\n      mstore\n      keccak256(0x00, 0x20)\n      add\n      0x00\n        /* \"contracts/w5_LuckyDraw.sol\":7192:7247  participants[i] = participants[participants.length - 1] */\n      0x0100\n      exp\n      dup2\n      sload\n      dup2\n      0xffffffffffffffffffffffffffffffffffffffff\n      mul\n      not\n      and\n      swap1\n      dup4\n      0xffffffffffffffffffffffffffffffffffffffff\n      and\n      mul\n      or\n      swap1\n      sstore\n      pop\n        /* \"contracts/w5_LuckyDraw.sol\":7265:7277  participants */\n      0x07\n        /* \"contracts/w5_LuckyDraw.sol\":7265:7283  participants.pop() */\n      dup1\n      sload\n      dup1\n      tag_319\n      jumpi\n      tag_320\n      tag_321\n      jump\t// in\n    tag_320:\n    tag_319:\n      0x01\n      swap1\n      sub\n      dup2\n      dup2\n      swap1\n      0x00\n      mstore\n      keccak256(0x00, 0x20)\n      add\n      exp(0x0100, 0x00)\n      dup2\n      sload\n      swap1\n      0xffffffffffffffffffffffffffffffffffffffff\n      mul\n      not\n      and\n      swap1\n      sstore\n      swap1\n      sstore\n        /* \"contracts/w5_LuckyDraw.sol\":7325:7336  participant */\n      dup2\n        /* \"contracts/w5_LuckyDraw.sol\":7318:7336  return participant */\n      swap7\n      pop\n      pop\n      pop\n      pop\n      pop\n      pop\n      pop\n      jump(tag_296)\n        /* \"contracts/w5_LuckyDraw.sol\":6469:7351  if (winnerIndex >= counter && winnerIndex < counter + participantTickets) {... */\n    tag_310:\n        /* \"contracts/w5_LuckyDraw.sol\":7375:7393  participantTickets */\n      dup1\n        /* \"contracts/w5_LuckyDraw.sol\":7364:7393  counter += participantTickets */\n      dup5\n      tag_323\n      swap2\n      swap1\n      tag_181\n      jump\t// in\n    tag_323:\n      swap4\n      pop\n        /* \"contracts/w5_LuckyDraw.sol\":6242:7404  {... */\n      pop\n      pop\n        /* \"contracts/w5_LuckyDraw.sol\":6237:6240  i++ */\n      dup1\n      dup1\n      0x01\n      add\n      swap2\n      pop\n      pop\n        /* \"contracts/w5_LuckyDraw.sol\":6195:7404  for (uint i = 0; i < participants.length; i++) {... */\n      jump(tag_302)\n    tag_303:\n      pop\n        /* \"contracts/w5_LuckyDraw.sol\":7413:7438  revert(\"No winner found\") */\n      mload(0x40)\n      0x08c379a000000000000000000000000000000000000000000000000000000000\n      dup2\n      mstore\n      0x04\n      add\n      tag_324\n      swap1\n      tag_325\n      jump\t// in\n    tag_324:\n      mload(0x40)\n      dup1\n      swap2\n      sub\n      swap1\n      revert\n        /* \"contracts/w5_LuckyDraw.sol\":5709:7445  function selectRandomWinner() private returns (address) {... */\n    tag_296:\n      swap1\n      jump\t// out\n        /* \"#utility.yul\":7:133   */\n    tag_326:\n        /* \"#utility.yul\":44:51   */\n      0x00\n        /* \"#utility.yul\":84:126   */\n      0xffffffffffffffffffffffffffffffffffffffff\n        /* \"#utility.yul\":77:82   */\n      dup3\n        /* \"#utility.yul\":73:127   */\n      and\n        /* \"#utility.yul\":62:127   */\n      swap1\n      pop\n        /* \"#utility.yul\":7:133   */\n      swap2\n      swap1\n      pop\n      jump\t// out\n        /* \"#utility.yul\":139:235   */\n    tag_327:\n        /* \"#utility.yul\":176:183   */\n      0x00\n        /* \"#utility.yul\":205:229   */\n      tag_400\n        /* \"#utility.yul\":223:228   */\n      dup3\n        /* \"#utility.yul\":205:229   */\n      tag_326\n      jump\t// in\n    tag_400:\n        /* \"#utility.yul\":194:229   */\n      swap1\n      pop\n        /* \"#utility.yul\":139:235   */\n      swap2\n      swap1\n      pop\n      jump\t// out\n        /* \"#utility.yul\":241:359   */\n    tag_328:\n        /* \"#utility.yul\":328:352   */\n      tag_402\n        /* \"#utility.yul\":346:351   */\n      dup2\n        /* \"#utility.yul\":328:352   */\n      tag_327\n      jump\t// in\n    tag_402:\n        /* \"#utility.yul\":323:326   */\n      dup3\n        /* \"#utility.yul\":316:353   */\n      mstore\n        /* \"#utility.yul\":241:359   */\n      pop\n      pop\n      jump\t// out\n        /* \"#utility.yul\":365:442   */\n    tag_329:\n        /* \"#utility.yul\":402:409   */\n      0x00\n        /* \"#utility.yul\":431:436   */\n      dup2\n        /* \"#utility.yul\":420:436   */\n      swap1\n      pop\n        /* \"#utility.yul\":365:442   */\n      swap2\n      swap1\n      pop\n      jump\t// out\n        /* \"#utility.yul\":448:566   */\n    tag_330:\n        /* \"#utility.yul\":535:559   */\n      tag_405\n        /* \"#utility.yul\":553:558   */\n      dup2\n        /* \"#utility.yul\":535:559   */\n      tag_329\n      jump\t// in\n    tag_405:\n        /* \"#utility.yul\":530:533   */\n      dup3\n        /* \"#utility.yul\":523:560   */\n      mstore\n        /* \"#utility.yul\":448:566   */\n      pop\n      pop\n      jump\t// out\n        /* \"#utility.yul\":572:740   */\n    tag_331:\n        /* \"#utility.yul\":655:666   */\n      0x00\n        /* \"#utility.yul\":689:695   */\n      dup3\n        /* \"#utility.yul\":684:687   */\n      dup3\n        /* \"#utility.yul\":677:696   */\n      mstore\n        /* \"#utility.yul\":729:733   */\n      0x20\n        /* \"#utility.yul\":724:727   */\n      dup3\n        /* \"#utility.yul\":720:734   */\n      add\n        /* \"#utility.yul\":705:734   */\n      swap1\n      pop\n        /* \"#utility.yul\":572:740   */\n      swap3\n      swap2\n      pop\n      pop\n      jump\t// out\n        /* \"#utility.yul\":746:860   */\n    tag_332:\n      pop\n      jump\t// out\n        /* \"#utility.yul\":866:1228   */\n    tag_333:\n        /* \"#utility.yul\":1007:1010   */\n      0x00\n        /* \"#utility.yul\":1028:1093   */\n      tag_409\n        /* \"#utility.yul\":1091:1092   */\n      0x00\n        /* \"#utility.yul\":1086:1089   */\n      dup4\n        /* \"#utility.yul\":1028:1093   */\n      tag_331\n      jump\t// in\n    tag_409:\n        /* \"#utility.yul\":1021:1093   */\n      swap2\n      pop\n        /* \"#utility.yul\":1102:1195   */\n      tag_410\n        /* \"#utility.yul\":1191:1194   */\n      dup3\n        /* \"#utility.yul\":1102:1195   */\n      tag_332\n      jump\t// in\n    tag_410:\n        /* \"#utility.yul\":1220:1221   */\n      0x00\n        /* \"#utility.yul\":1215:1218   */\n      dup3\n        /* \"#utility.yul\":1211:1222   */\n      add\n        /* \"#utility.yul\":1204:1222   */\n      swap1\n      pop\n        /* \"#utility.yul\":866:1228   */\n      swap2\n      swap1\n      pop\n      jump\t// out\n        /* \"#utility.yul\":1234:1871   */\n    tag_33:\n        /* \"#utility.yul\":1455:1459   */\n      0x00\n        /* \"#utility.yul\":1493:1495   */\n      0x60\n        /* \"#utility.yul\":1482:1491   */\n      dup3\n        /* \"#utility.yul\":1478:1496   */\n      add\n        /* \"#utility.yul\":1470:1496   */\n      swap1\n      pop\n        /* \"#utility.yul\":1506:1577   */\n      tag_412\n        /* \"#utility.yul\":1574:1575   */\n      0x00\n        /* \"#utility.yul\":1563:1572   */\n      dup4\n        /* \"#utility.yul\":1559:1576   */\n      add\n        /* \"#utility.yul\":1550:1556   */\n      dup6\n        /* \"#utility.yul\":1506:1577   */\n      tag_328\n      jump\t// in\n    tag_412:\n        /* \"#utility.yul\":1587:1659   */\n      tag_413\n        /* \"#utility.yul\":1655:1657   */\n      0x20\n        /* \"#utility.yul\":1644:1653   */\n      dup4\n        /* \"#utility.yul\":1640:1658   */\n      add\n        /* \"#utility.yul\":1631:1637   */\n      dup5\n        /* \"#utility.yul\":1587:1659   */\n      tag_330\n      jump\t// in\n    tag_413:\n        /* \"#utility.yul\":1706:1715   */\n      dup2\n        /* \"#utility.yul\":1700:1704   */\n      dup2\n        /* \"#utility.yul\":1696:1716   */\n      sub\n        /* \"#utility.yul\":1691:1693   */\n      0x40\n        /* \"#utility.yul\":1680:1689   */\n      dup4\n        /* \"#utility.yul\":1676:1694   */\n      add\n        /* \"#utility.yul\":1669:1717   */\n      mstore\n        /* \"#utility.yul\":1734:1864   */\n      tag_414\n        /* \"#utility.yul\":1859:1863   */\n      dup2\n        /* \"#utility.yul\":1734:1864   */\n      tag_333\n      jump\t// in\n    tag_414:\n        /* \"#utility.yul\":1726:1864   */\n      swap1\n      pop\n        /* \"#utility.yul\":1234:1871   */\n      swap4\n      swap3\n      pop\n      pop\n      pop\n      jump\t// out\n        /* \"#utility.yul\":1877:2025   */\n    tag_334:\n        /* \"#utility.yul\":1975:1981   */\n      dup3\n        /* \"#utility.yul\":1970:1973   */\n      dup2\n        /* \"#utility.yul\":1965:1968   */\n      dup4\n        /* \"#utility.yul\":1952:1982   */\n      calldatacopy\n        /* \"#utility.yul\":2016:2017   */\n      0x00\n        /* \"#utility.yul\":2007:2013   */\n      dup4\n        /* \"#utility.yul\":2002:2005   */\n      dup4\n        /* \"#utility.yul\":1998:2014   */\n      add\n        /* \"#utility.yul\":1991:2018   */\n      mstore\n        /* \"#utility.yul\":1877:2025   */\n      pop\n      pop\n      pop\n      jump\t// out\n        /* \"#utility.yul\":2031:2133   */\n    tag_335:\n        /* \"#utility.yul\":2072:2078   */\n      0x00\n        /* \"#utility.yul\":2123:2125   */\n      0x1f\n        /* \"#utility.yul\":2119:2126   */\n      not\n        /* \"#utility.yul\":2114:2116   */\n      0x1f\n        /* \"#utility.yul\":2107:2112   */\n      dup4\n        /* \"#utility.yul\":2103:2117   */\n      add\n        /* \"#utility.yul\":2099:2127   */\n      and\n        /* \"#utility.yul\":2089:2127   */\n      swap1\n      pop\n        /* \"#utility.yul\":2031:2133   */\n      swap2\n      swap1\n      pop\n      jump\t// out\n        /* \"#utility.yul\":2161:2475   */\n    tag_336:\n        /* \"#utility.yul\":2257:2260   */\n      0x00\n        /* \"#utility.yul\":2278:2348   */\n      tag_418\n        /* \"#utility.yul\":2341:2347   */\n      dup4\n        /* \"#utility.yul\":2336:2339   */\n      dup6\n        /* \"#utility.yul\":2278:2348   */\n      tag_331\n      jump\t// in\n    tag_418:\n        /* \"#utility.yul\":2271:2348   */\n      swap4\n      pop\n        /* \"#utility.yul\":2358:2414   */\n      tag_419\n        /* \"#utility.yul\":2407:2413   */\n      dup4\n        /* \"#utility.yul\":2402:2405   */\n      dup6\n        /* \"#utility.yul\":2395:2400   */\n      dup5\n        /* \"#utility.yul\":2358:2414   */\n      tag_334\n      jump\t// in\n    tag_419:\n        /* \"#utility.yul\":2439:2468   */\n      tag_420\n        /* \"#utility.yul\":2461:2467   */\n      dup4\n        /* \"#utility.yul\":2439:2468   */\n      tag_335\n      jump\t// in\n    tag_420:\n        /* \"#utility.yul\":2434:2437   */\n      dup5\n        /* \"#utility.yul\":2430:2469   */\n      add\n        /* \"#utility.yul\":2423:2469   */\n      swap1\n      pop\n        /* \"#utility.yul\":2161:2475   */\n      swap4\n      swap3\n      pop\n      pop\n      pop\n      jump\t// out\n        /* \"#utility.yul\":2481:3030   */\n    tag_37:\n        /* \"#utility.yul\":2658:2662   */\n      0x00\n        /* \"#utility.yul\":2696:2698   */\n      0x60\n        /* \"#utility.yul\":2685:2694   */\n      dup3\n        /* \"#utility.yul\":2681:2699   */\n      add\n        /* \"#utility.yul\":2673:2699   */\n      swap1\n      pop\n        /* \"#utility.yul\":2709:2780   */\n      tag_422\n        /* \"#utility.yul\":2777:2778   */\n      0x00\n        /* \"#utility.yul\":2766:2775   */\n      dup4\n        /* \"#utility.yul\":2762:2779   */\n      add\n        /* \"#utility.yul\":2753:2759   */\n      dup8\n        /* \"#utility.yul\":2709:2780   */\n      tag_328\n      jump\t// in\n    tag_422:\n        /* \"#utility.yul\":2790:2862   */\n      tag_423\n        /* \"#utility.yul\":2858:2860   */\n      0x20\n        /* \"#utility.yul\":2847:2856   */\n      dup4\n        /* \"#utility.yul\":2843:2861   */\n      add\n        /* \"#utility.yul\":2834:2840   */\n      dup7\n        /* \"#utility.yul\":2790:2862   */\n      tag_330\n      jump\t// in\n    tag_423:\n        /* \"#utility.yul\":2909:2918   */\n      dup2\n        /* \"#utility.yul\":2903:2907   */\n      dup2\n        /* \"#utility.yul\":2899:2919   */\n      sub\n        /* \"#utility.yul\":2894:2896   */\n      0x40\n        /* \"#utility.yul\":2883:2892   */\n      dup4\n        /* \"#utility.yul\":2879:2897   */\n      add\n        /* \"#utility.yul\":2872:2920   */\n      mstore\n        /* \"#utility.yul\":2937:3023   */\n      tag_424\n        /* \"#utility.yul\":3018:3022   */\n      dup2\n        /* \"#utility.yul\":3009:3015   */\n      dup5\n        /* \"#utility.yul\":3001:3007   */\n      dup7\n        /* \"#utility.yul\":2937:3023   */\n      tag_336\n      jump\t// in\n    tag_424:\n        /* \"#utility.yul\":2929:3023   */\n      swap1\n      pop\n        /* \"#utility.yul\":2481:3030   */\n      swap6\n      swap5\n      pop\n      pop\n      pop\n      pop\n      pop\n      jump\t// out\n        /* \"#utility.yul\":3036:3258   */\n    tag_42:\n        /* \"#utility.yul\":3129:3133   */\n      0x00\n        /* \"#utility.yul\":3167:3169   */\n      0x20\n        /* \"#utility.yul\":3156:3165   */\n      dup3\n        /* \"#utility.yul\":3152:3170   */\n      add\n        /* \"#utility.yul\":3144:3170   */\n      swap1\n      pop\n        /* \"#utility.yul\":3180:3251   */\n      tag_426\n        /* \"#utility.yul\":3248:3249   */\n      0x00\n        /* \"#utility.yul\":3237:3246   */\n      dup4\n        /* \"#utility.yul\":3233:3250   */\n      add\n        /* \"#utility.yul\":3224:3230   */\n      dup5\n        /* \"#utility.yul\":3180:3251   */\n      tag_330\n      jump\t// in\n    tag_426:\n        /* \"#utility.yul\":3036:3258   */\n      swap3\n      swap2\n      pop\n      pop\n      jump\t// out\n        /* \"#utility.yul\":3345:3462   */\n    tag_338:\n        /* \"#utility.yul\":3454:3455   */\n      0x00\n        /* \"#utility.yul\":3451:3452   */\n      dup1\n        /* \"#utility.yul\":3444:3456   */\n      revert\n        /* \"#utility.yul\":3591:3713   */\n    tag_340:\n        /* \"#utility.yul\":3664:3688   */\n      tag_431\n        /* \"#utility.yul\":3682:3687   */\n      dup2\n        /* \"#utility.yul\":3664:3688   */\n      tag_329\n      jump\t// in\n    tag_431:\n        /* \"#utility.yul\":3657:3662   */\n      dup2\n        /* \"#utility.yul\":3654:3689   */\n      eq\n        /* \"#utility.yul\":3644:3707   */\n      tag_432\n      jumpi\n        /* \"#utility.yul\":3703:3704   */\n      0x00\n        /* \"#utility.yul\":3700:3701   */\n      dup1\n        /* \"#utility.yul\":3693:3705   */\n      revert\n        /* \"#utility.yul\":3644:3707   */\n    tag_432:\n        /* \"#utility.yul\":3591:3713   */\n      pop\n      jump\t// out\n        /* \"#utility.yul\":3719:3858   */\n    tag_341:\n        /* \"#utility.yul\":3765:3770   */\n      0x00\n        /* \"#utility.yul\":3803:3809   */\n      dup2\n        /* \"#utility.yul\":3790:3810   */\n      calldataload\n        /* \"#utility.yul\":3781:3810   */\n      swap1\n      pop\n        /* \"#utility.yul\":3819:3852   */\n      tag_434\n        /* \"#utility.yul\":3846:3851   */\n      dup2\n        /* \"#utility.yul\":3819:3852   */\n      tag_340\n      jump\t// in\n    tag_434:\n        /* \"#utility.yul\":3719:3858   */\n      swap3\n      swap2\n      pop\n      pop\n      jump\t// out\n        /* \"#utility.yul\":3864:4193   */\n    tag_54:\n        /* \"#utility.yul\":3923:3929   */\n      0x00\n        /* \"#utility.yul\":3972:3974   */\n      0x20\n        /* \"#utility.yul\":3960:3969   */\n      dup3\n        /* \"#utility.yul\":3951:3958   */\n      dup5\n        /* \"#utility.yul\":3947:3970   */\n      sub\n        /* \"#utility.yul\":3943:3975   */\n      slt\n        /* \"#utility.yul\":3940:4059   */\n      iszero\n      tag_436\n      jumpi\n        /* \"#utility.yul\":3978:4057   */\n      tag_437\n      tag_338\n      jump\t// in\n    tag_437:\n        /* \"#utility.yul\":3940:4059   */\n    tag_436:\n        /* \"#utility.yul\":4098:4099   */\n      0x00\n        /* \"#utility.yul\":4123:4176   */\n      tag_438\n        /* \"#utility.yul\":4168:4175   */\n      dup5\n        /* \"#utility.yul\":4159:4165   */\n      dup3\n        /* \"#utility.yul\":4148:4157   */\n      dup6\n        /* \"#utility.yul\":4144:4166   */\n      add\n        /* \"#utility.yul\":4123:4176   */\n      tag_341\n      jump\t// in\n    tag_438:\n        /* \"#utility.yul\":4113:4176   */\n      swap2\n      pop\n        /* \"#utility.yul\":4069:4186   */\n      pop\n        /* \"#utility.yul\":3864:4193   */\n      swap3\n      swap2\n      pop\n      pop\n      jump\t// out\n        /* \"#utility.yul\":4199:4339   */\n    tag_342:\n        /* \"#utility.yul\":4292:4298   */\n      0x00\n        /* \"#utility.yul\":4326:4331   */\n      dup2\n        /* \"#utility.yul\":4320:4332   */\n      mload\n        /* \"#utility.yul\":4310:4332   */\n      swap1\n      pop\n        /* \"#utility.yul\":4199:4339   */\n      swap2\n      swap1\n      pop\n      jump\t// out\n        /* \"#utility.yul\":4345:4555   */\n    tag_343:\n        /* \"#utility.yul\":4470:4481   */\n      0x00\n        /* \"#utility.yul\":4504:4510   */\n      dup3\n        /* \"#utility.yul\":4499:4502   */\n      dup3\n        /* \"#utility.yul\":4492:4511   */\n      mstore\n        /* \"#utility.yul\":4544:4548   */\n      0x20\n        /* \"#utility.yul\":4539:4542   */\n      dup3\n        /* \"#utility.yul\":4535:4549   */\n      add\n        /* \"#utility.yul\":4520:4549   */\n      swap1\n      pop\n        /* \"#utility.yul\":4345:4555   */\n      swap3\n      swap2\n      pop\n      pop\n      jump\t// out\n        /* \"#utility.yul\":4561:4719   */\n    tag_344:\n        /* \"#utility.yul\":4654:4658   */\n      0x00\n        /* \"#utility.yul\":4677:4680   */\n      dup2\n        /* \"#utility.yul\":4669:4680   */\n      swap1\n      pop\n        /* \"#utility.yul\":4707:4711   */\n      0x20\n        /* \"#utility.yul\":4702:4705   */\n      dup3\n        /* \"#utility.yul\":4698:4712   */\n      add\n        /* \"#utility.yul\":4690:4712   */\n      swap1\n      pop\n        /* \"#utility.yul\":4561:4719   */\n      swap2\n      swap1\n      pop\n      jump\t// out\n        /* \"#utility.yul\":4725:4833   */\n    tag_345:\n        /* \"#utility.yul\":4802:4826   */\n      tag_443\n        /* \"#utility.yul\":4820:4825   */\n      dup2\n        /* \"#utility.yul\":4802:4826   */\n      tag_327\n      jump\t// in\n    tag_443:\n        /* \"#utility.yul\":4797:4800   */\n      dup3\n        /* \"#utility.yul\":4790:4827   */\n      mstore\n        /* \"#utility.yul\":4725:4833   */\n      pop\n      pop\n      jump\t// out\n        /* \"#utility.yul\":4839:4947   */\n    tag_346:\n        /* \"#utility.yul\":4916:4940   */\n      tag_445\n        /* \"#utility.yul\":4934:4939   */\n      dup2\n        /* \"#utility.yul\":4916:4940   */\n      tag_329\n      jump\t// in\n    tag_445:\n        /* \"#utility.yul\":4911:4914   */\n      dup3\n        /* \"#utility.yul\":4904:4941   */\n      mstore\n        /* \"#utility.yul\":4839:4947   */\n      pop\n      pop\n      jump\t// out\n        /* \"#utility.yul\":5021:5527   */\n    tag_347:\n        /* \"#utility.yul\":5160:5164   */\n      0x40\n        /* \"#utility.yul\":5155:5158   */\n      dup3\n        /* \"#utility.yul\":5151:5165   */\n      add\n        /* \"#utility.yul\":5254:5258   */\n      0x00\n        /* \"#utility.yul\":5247:5252   */\n      dup3\n        /* \"#utility.yul\":5243:5259   */\n      add\n        /* \"#utility.yul\":5237:5260   */\n      mload\n        /* \"#utility.yul\":5273:5336   */\n      tag_447\n        /* \"#utility.yul\":5330:5334   */\n      0x00\n        /* \"#utility.yul\":5325:5328   */\n      dup6\n        /* \"#utility.yul\":5321:5335   */\n      add\n        /* \"#utility.yul\":5307:5319   */\n      dup3\n        /* \"#utility.yul\":5273:5336   */\n      tag_345\n      jump\t// in\n    tag_447:\n        /* \"#utility.yul\":5175:5346   */\n      pop\n        /* \"#utility.yul\":5428:5432   */\n      0x20\n        /* \"#utility.yul\":5421:5426   */\n      dup3\n        /* \"#utility.yul\":5417:5433   */\n      add\n        /* \"#utility.yul\":5411:5434   */\n      mload\n        /* \"#utility.yul\":5447:5510   */\n      tag_448\n        /* \"#utility.yul\":5504:5508   */\n      0x20\n        /* \"#utility.yul\":5499:5502   */\n      dup6\n        /* \"#utility.yul\":5495:5509   */\n      add\n        /* \"#utility.yul\":5481:5493   */\n      dup3\n        /* \"#utility.yul\":5447:5510   */\n      tag_346\n      jump\t// in\n    tag_448:\n        /* \"#utility.yul\":5356:5520   */\n      pop\n        /* \"#utility.yul\":5129:5527   */\n      pop\n        /* \"#utility.yul\":5021:5527   */\n      pop\n      pop\n      jump\t// out\n        /* \"#utility.yul\":5533:5816   */\n    tag_348:\n        /* \"#utility.yul\":5654:5664   */\n      0x00\n        /* \"#utility.yul\":5675:5773   */\n      tag_450\n        /* \"#utility.yul\":5769:5772   */\n      dup4\n        /* \"#utility.yul\":5761:5767   */\n      dup4\n        /* \"#utility.yul\":5675:5773   */\n      tag_347\n      jump\t// in\n    tag_450:\n        /* \"#utility.yul\":5805:5809   */\n      0x40\n        /* \"#utility.yul\":5800:5803   */\n      dup4\n        /* \"#utility.yul\":5796:5810   */\n      add\n        /* \"#utility.yul\":5782:5810   */\n      swap1\n      pop\n        /* \"#utility.yul\":5533:5816   */\n      swap3\n      swap2\n      pop\n      pop\n      jump\t// out\n        /* \"#utility.yul\":5822:5961   */\n    tag_349:\n        /* \"#utility.yul\":5918:5922   */\n      0x00\n        /* \"#utility.yul\":5950:5954   */\n      0x20\n        /* \"#utility.yul\":5945:5948   */\n      dup3\n        /* \"#utility.yul\":5941:5955   */\n      add\n        /* \"#utility.yul\":5933:5955   */\n      swap1\n      pop\n        /* \"#utility.yul\":5822:5961   */\n      swap2\n      swap1\n      pop\n      jump\t// out\n        /* \"#utility.yul\":6039:6979   */\n    tag_350:\n        /* \"#utility.yul\":6210:6213   */\n      0x00\n        /* \"#utility.yul\":6239:6319   */\n      tag_453\n        /* \"#utility.yul\":6313:6318   */\n      dup3\n        /* \"#utility.yul\":6239:6319   */\n      tag_342\n      jump\t// in\n    tag_453:\n        /* \"#utility.yul\":6335:6447   */\n      tag_454\n        /* \"#utility.yul\":6440:6446   */\n      dup2\n        /* \"#utility.yul\":6435:6438   */\n      dup6\n        /* \"#utility.yul\":6335:6447   */\n      tag_343\n      jump\t// in\n    tag_454:\n        /* \"#utility.yul\":6328:6447   */\n      swap4\n      pop\n        /* \"#utility.yul\":6471:6553   */\n      tag_455\n        /* \"#utility.yul\":6547:6552   */\n      dup4\n        /* \"#utility.yul\":6471:6553   */\n      tag_344\n      jump\t// in\n    tag_455:\n        /* \"#utility.yul\":6576:6583   */\n      dup1\n        /* \"#utility.yul\":6607:6608   */\n      0x00\n        /* \"#utility.yul\":6592:6954   */\n    tag_456:\n        /* \"#utility.yul\":6617:6623   */\n      dup4\n        /* \"#utility.yul\":6614:6615   */\n      dup2\n        /* \"#utility.yul\":6611:6624   */\n      lt\n        /* \"#utility.yul\":6592:6954   */\n      iszero\n      tag_458\n      jumpi\n        /* \"#utility.yul\":6693:6699   */\n      dup2\n        /* \"#utility.yul\":6687:6700   */\n      mload\n        /* \"#utility.yul\":6720:6835   */\n      tag_459\n        /* \"#utility.yul\":6831:6834   */\n      dup9\n        /* \"#utility.yul\":6816:6829   */\n      dup3\n        /* \"#utility.yul\":6720:6835   */\n      tag_348\n      jump\t// in\n    tag_459:\n        /* \"#utility.yul\":6713:6835   */\n      swap8\n      pop\n        /* \"#utility.yul\":6858:6944   */\n      tag_460\n        /* \"#utility.yul\":6937:6943   */\n      dup4\n        /* \"#utility.yul\":6858:6944   */\n      tag_349\n      jump\t// in\n    tag_460:\n        /* \"#utility.yul\":6848:6944   */\n      swap3\n      pop\n        /* \"#utility.yul\":6652:6954   */\n      pop\n        /* \"#utility.yul\":6639:6640   */\n      0x01\n        /* \"#utility.yul\":6636:6637   */\n      dup2\n        /* \"#utility.yul\":6632:6641   */\n      add\n        /* \"#utility.yul\":6627:6641   */\n      swap1\n      pop\n        /* \"#utility.yul\":6592:6954   */\n      jump(tag_456)\n    tag_458:\n        /* \"#utility.yul\":6596:6610   */\n      pop\n        /* \"#utility.yul\":6970:6973   */\n      dup6\n        /* \"#utility.yul\":6963:6973   */\n      swap4\n      pop\n        /* \"#utility.yul\":6215:6979   */\n      pop\n      pop\n      pop\n        /* \"#utility.yul\":6039:6979   */\n      swap3\n      swap2\n      pop\n      pop\n      jump\t// out\n        /* \"#utility.yul\":6985:7462   */\n    tag_64:\n        /* \"#utility.yul\":7180:7184   */\n      0x00\n        /* \"#utility.yul\":7218:7220   */\n      0x20\n        /* \"#utility.yul\":7207:7216   */\n      dup3\n        /* \"#utility.yul\":7203:7221   */\n      add\n        /* \"#utility.yul\":7195:7221   */\n      swap1\n      pop\n        /* \"#utility.yul\":7267:7276   */\n      dup2\n        /* \"#utility.yul\":7261:7265   */\n      dup2\n        /* \"#utility.yul\":7257:7277   */\n      sub\n        /* \"#utility.yul\":7253:7254   */\n      0x00\n        /* \"#utility.yul\":7242:7251   */\n      dup4\n        /* \"#utility.yul\":7238:7255   */\n      add\n        /* \"#utility.yul\":7231:7278   */\n      mstore\n        /* \"#utility.yul\":7295:7455   */\n      tag_462\n        /* \"#utility.yul\":7450:7454   */\n      dup2\n        /* \"#utility.yul\":7441:7447   */\n      dup5\n        /* \"#utility.yul\":7295:7455   */\n      tag_350\n      jump\t// in\n    tag_462:\n        /* \"#utility.yul\":7287:7455   */\n      swap1\n      pop\n        /* \"#utility.yul\":6985:7462   */\n      swap3\n      swap2\n      pop\n      pop\n      jump\t// out\n        /* \"#utility.yul\":7468:7582   */\n    tag_351:\n        /* \"#utility.yul\":7535:7541   */\n      0x00\n        /* \"#utility.yul\":7569:7574   */\n      dup2\n        /* \"#utility.yul\":7563:7575   */\n      mload\n        /* \"#utility.yul\":7553:7575   */\n      swap1\n      pop\n        /* \"#utility.yul\":7468:7582   */\n      swap2\n      swap1\n      pop\n      jump\t// out\n        /* \"#utility.yul\":7588:7772   */\n    tag_352:\n        /* \"#utility.yul\":7687:7698   */\n      0x00\n        /* \"#utility.yul\":7721:7727   */\n      dup3\n        /* \"#utility.yul\":7716:7719   */\n      dup3\n        /* \"#utility.yul\":7709:7728   */\n      mstore\n        /* \"#utility.yul\":7761:7765   */\n      0x20\n        /* \"#utility.yul\":7756:7759   */\n      dup3\n        /* \"#utility.yul\":7752:7766   */\n      add\n        /* \"#utility.yul\":7737:7766   */\n      swap1\n      pop\n        /* \"#utility.yul\":7588:7772   */\n      swap3\n      swap2\n      pop\n      pop\n      jump\t// out\n        /* \"#utility.yul\":7778:7910   */\n    tag_353:\n        /* \"#utility.yul\":7845:7849   */\n      0x00\n        /* \"#utility.yul\":7868:7871   */\n      dup2\n        /* \"#utility.yul\":7860:7871   */\n      swap1\n      pop\n        /* \"#utility.yul\":7898:7902   */\n      0x20\n        /* \"#utility.yul\":7893:7896   */\n      dup3\n        /* \"#utility.yul\":7889:7903   */\n      add\n        /* \"#utility.yul\":7881:7903   */\n      swap1\n      pop\n        /* \"#utility.yul\":7778:7910   */\n      swap2\n      swap1\n      pop\n      jump\t// out\n        /* \"#utility.yul\":7916:8095   */\n    tag_354:\n        /* \"#utility.yul\":7985:7995   */\n      0x00\n        /* \"#utility.yul\":8006:8052   */\n      tag_467\n        /* \"#utility.yul\":8048:8051   */\n      dup4\n        /* \"#utility.yul\":8040:8046   */\n      dup4\n        /* \"#utility.yul\":8006:8052   */\n      tag_345\n      jump\t// in\n    tag_467:\n        /* \"#utility.yul\":8084:8088   */\n      0x20\n        /* \"#utility.yul\":8079:8082   */\n      dup4\n        /* \"#utility.yul\":8075:8089   */\n      add\n        /* \"#utility.yul\":8061:8089   */\n      swap1\n      pop\n        /* \"#utility.yul\":7916:8095   */\n      swap3\n      swap2\n      pop\n      pop\n      jump\t// out\n        /* \"#utility.yul\":8101:8214   */\n    tag_355:\n        /* \"#utility.yul\":8171:8175   */\n      0x00\n        /* \"#utility.yul\":8203:8207   */\n      0x20\n        /* \"#utility.yul\":8198:8201   */\n      dup3\n        /* \"#utility.yul\":8194:8208   */\n      add\n        /* \"#utility.yul\":8186:8208   */\n      swap1\n      pop\n        /* \"#utility.yul\":8101:8214   */\n      swap2\n      swap1\n      pop\n      jump\t// out\n        /* \"#utility.yul\":8250:8982   */\n    tag_356:\n        /* \"#utility.yul\":8369:8372   */\n      0x00\n        /* \"#utility.yul\":8398:8452   */\n      tag_470\n        /* \"#utility.yul\":8446:8451   */\n      dup3\n        /* \"#utility.yul\":8398:8452   */\n      tag_351\n      jump\t// in\n    tag_470:\n        /* \"#utility.yul\":8468:8554   */\n      tag_471\n        /* \"#utility.yul\":8547:8553   */\n      dup2\n        /* \"#utility.yul\":8542:8545   */\n      dup6\n        /* \"#utility.yul\":8468:8554   */\n      tag_352\n      jump\t// in\n    tag_471:\n        /* \"#utility.yul\":8461:8554   */\n      swap4\n      pop\n        /* \"#utility.yul\":8578:8634   */\n      tag_472\n        /* \"#utility.yul\":8628:8633   */\n      dup4\n        /* \"#utility.yul\":8578:8634   */\n      tag_353\n      jump\t// in\n    tag_472:\n        /* \"#utility.yul\":8657:8664   */\n      dup1\n        /* \"#utility.yul\":8688:8689   */\n      0x00\n        /* \"#utility.yul\":8673:8957   */\n    tag_473:\n        /* \"#utility.yul\":8698:8704   */\n      dup4\n        /* \"#utility.yul\":8695:8696   */\n      dup2\n        /* \"#utility.yul\":8692:8705   */\n      lt\n        /* \"#utility.yul\":8673:8957   */\n      iszero\n      tag_475\n      jumpi\n        /* \"#utility.yul\":8774:8780   */\n      dup2\n        /* \"#utility.yul\":8768:8781   */\n      mload\n        /* \"#utility.yul\":8801:8864   */\n      tag_476\n        /* \"#utility.yul\":8860:8863   */\n      dup9\n        /* \"#utility.yul\":8845:8858   */\n      dup3\n        /* \"#utility.yul\":8801:8864   */\n      tag_354\n      jump\t// in\n    tag_476:\n        /* \"#utility.yul\":8794:8864   */\n      swap8\n      pop\n        /* \"#utility.yul\":8887:8947   */\n      tag_477\n        /* \"#utility.yul\":8940:8946   */\n      dup4\n        /* \"#utility.yul\":8887:8947   */\n      tag_355\n      jump\t// in\n    tag_477:\n        /* \"#utility.yul\":8877:8947   */\n      swap3\n      pop\n        /* \"#utility.yul\":8733:8957   */\n      pop\n        /* \"#utility.yul\":8720:8721   */\n      0x01\n        /* \"#utility.yul\":8717:8718   */\n      dup2\n        /* \"#utility.yul\":8713:8722   */\n      add\n        /* \"#utility.yul\":8708:8722   */\n      swap1\n      pop\n        /* \"#utility.yul\":8673:8957   */\n      jump(tag_473)\n    tag_475:\n        /* \"#utility.yul\":8677:8691   */\n      pop\n        /* \"#utility.yul\":8973:8976   */\n      dup6\n        /* \"#utility.yul\":8966:8976   */\n      swap4\n      pop\n        /* \"#utility.yul\":8374:8982   */\n      pop\n      pop\n      pop\n        /* \"#utility.yul\":8250:8982   */\n      swap3\n      swap2\n      pop\n      pop\n      jump\t// out\n        /* \"#utility.yul\":8988:9361   */\n    tag_69:\n        /* \"#utility.yul\":9131:9135   */\n      0x00\n        /* \"#utility.yul\":9169:9171   */\n      0x20\n        /* \"#utility.yul\":9158:9167   */\n      dup3\n        /* \"#utility.yul\":9154:9172   */\n      add\n        /* \"#utility.yul\":9146:9172   */\n      swap1\n      pop\n        /* \"#utility.yul\":9218:9227   */\n      dup2\n        /* \"#utility.yul\":9212:9216   */\n      dup2\n        /* \"#utility.yul\":9208:9228   */\n      sub\n        /* \"#utility.yul\":9204:9205   */\n      0x00\n        /* \"#utility.yul\":9193:9202   */\n      dup4\n        /* \"#utility.yul\":9189:9206   */\n      add\n        /* \"#utility.yul\":9182:9229   */\n      mstore\n        /* \"#utility.yul\":9246:9354   */\n      tag_479\n        /* \"#utility.yul\":9349:9353   */\n      dup2\n        /* \"#utility.yul\":9340:9346   */\n      dup5\n        /* \"#utility.yul\":9246:9354   */\n      tag_356\n      jump\t// in\n    tag_479:\n        /* \"#utility.yul\":9238:9354   */\n      swap1\n      pop\n        /* \"#utility.yul\":8988:9361   */\n      swap3\n      swap2\n      pop\n      pop\n      jump\t// out\n        /* \"#utility.yul\":9367:9589   */\n    tag_75:\n        /* \"#utility.yul\":9460:9464   */\n      0x00\n        /* \"#utility.yul\":9498:9500   */\n      0x20\n        /* \"#utility.yul\":9487:9496   */\n      dup3\n        /* \"#utility.yul\":9483:9501   */\n      add\n        /* \"#utility.yul\":9475:9501   */\n      swap1\n      pop\n        /* \"#utility.yul\":9511:9582   */\n      tag_481\n        /* \"#utility.yul\":9579:9580   */\n      0x00\n        /* \"#utility.yul\":9568:9577   */\n      dup4\n        /* \"#utility.yul\":9564:9581   */\n      add\n        /* \"#utility.yul\":9555:9561   */\n      dup5\n        /* \"#utility.yul\":9511:9582   */\n      tag_328\n      jump\t// in\n    tag_481:\n        /* \"#utility.yul\":9367:9589   */\n      swap3\n      swap2\n      pop\n      pop\n      jump\t// out\n        /* \"#utility.yul\":9595:9717   */\n    tag_357:\n        /* \"#utility.yul\":9668:9692   */\n      tag_483\n        /* \"#utility.yul\":9686:9691   */\n      dup2\n        /* \"#utility.yul\":9668:9692   */\n      tag_327\n      jump\t// in\n    tag_483:\n        /* \"#utility.yul\":9661:9666   */\n      dup2\n        /* \"#utility.yul\":9658:9693   */\n      eq\n        /* \"#utility.yul\":9648:9711   */\n      tag_484\n      jumpi\n        /* \"#utility.yul\":9707:9708   */\n      0x00\n        /* \"#utility.yul\":9704:9705   */\n      dup1\n        /* \"#utility.yul\":9697:9709   */\n      revert\n        /* \"#utility.yul\":9648:9711   */\n    tag_484:\n        /* \"#utility.yul\":9595:9717   */\n      pop\n      jump\t// out\n        /* \"#utility.yul\":9723:9862   */\n    tag_358:\n        /* \"#utility.yul\":9769:9774   */\n      0x00\n        /* \"#utility.yul\":9807:9813   */\n      dup2\n        /* \"#utility.yul\":9794:9814   */\n      calldataload\n        /* \"#utility.yul\":9785:9814   */\n      swap1\n      pop\n        /* \"#utility.yul\":9823:9856   */\n      tag_486\n        /* \"#utility.yul\":9850:9855   */\n      dup2\n        /* \"#utility.yul\":9823:9856   */\n      tag_357\n      jump\t// in\n    tag_486:\n        /* \"#utility.yul\":9723:9862   */\n      swap3\n      swap2\n      pop\n      pop\n      jump\t// out\n        /* \"#utility.yul\":9868:10197   */\n    tag_103:\n        /* \"#utility.yul\":9927:9933   */\n      0x00\n        /* \"#utility.yul\":9976:9978   */\n      0x20\n        /* \"#utility.yul\":9964:9973   */\n      dup3\n        /* \"#utility.yul\":9955:9962   */\n      dup5\n        /* \"#utility.yul\":9951:9974   */\n      sub\n        /* \"#utility.yul\":9947:9979   */\n      slt\n        /* \"#utility.yul\":9944:10063   */\n      iszero\n      tag_488\n      jumpi\n        /* \"#utility.yul\":9982:10061   */\n      tag_489\n      tag_338\n      jump\t// in\n    tag_489:\n        /* \"#utility.yul\":9944:10063   */\n    tag_488:\n        /* \"#utility.yul\":10102:10103   */\n      0x00\n        /* \"#utility.yul\":10127:10180   */\n      tag_490\n        /* \"#utility.yul\":10172:10179   */\n      dup5\n        /* \"#utility.yul\":10163:10169   */\n      dup3\n        /* \"#utility.yul\":10152:10161   */\n      dup6\n        /* \"#utility.yul\":10148:10170   */\n      add\n        /* \"#utility.yul\":10127:10180   */\n      tag_358\n      jump\t// in\n    tag_490:\n        /* \"#utility.yul\":10117:10180   */\n      swap2\n      pop\n        /* \"#utility.yul\":10073:10190   */\n      pop\n        /* \"#utility.yul\":9868:10197   */\n      swap3\n      swap2\n      pop\n      pop\n      jump\t// out\n        /* \"#utility.yul\":10203:10307   */\n    tag_359:\n        /* \"#utility.yul\":10248:10255   */\n      0x00\n        /* \"#utility.yul\":10277:10301   */\n      tag_492\n        /* \"#utility.yul\":10295:10300   */\n      dup3\n        /* \"#utility.yul\":10277:10301   */\n      tag_326\n      jump\t// in\n    tag_492:\n        /* \"#utility.yul\":10266:10301   */\n      swap1\n      pop\n        /* \"#utility.yul\":10203:10307   */\n      swap2\n      swap1\n      pop\n      jump\t// out\n        /* \"#utility.yul\":10313:10455   */\n    tag_360:\n        /* \"#utility.yul\":10416:10448   */\n      tag_494\n        /* \"#utility.yul\":10442:10447   */\n      dup2\n        /* \"#utility.yul\":10416:10448   */\n      tag_359\n      jump\t// in\n    tag_494:\n        /* \"#utility.yul\":10411:10414   */\n      dup3\n        /* \"#utility.yul\":10404:10449   */\n      mstore\n        /* \"#utility.yul\":10313:10455   */\n      pop\n      pop\n      jump\t// out\n        /* \"#utility.yul\":10461:10715   */\n    tag_118:\n        /* \"#utility.yul\":10570:10574   */\n      0x00\n        /* \"#utility.yul\":10608:10610   */\n      0x20\n        /* \"#utility.yul\":10597:10606   */\n      dup3\n        /* \"#utility.yul\":10593:10611   */\n      add\n        /* \"#utility.yul\":10585:10611   */\n      swap1\n      pop\n        /* \"#utility.yul\":10621:10708   */\n      tag_496\n        /* \"#utility.yul\":10705:10706   */\n      0x00\n        /* \"#utility.yul\":10694:10703   */\n      dup4\n        /* \"#utility.yul\":10690:10707   */\n      add\n        /* \"#utility.yul\":10681:10687   */\n      dup5\n        /* \"#utility.yul\":10621:10708   */\n      tag_360\n      jump\t// in\n    tag_496:\n        /* \"#utility.yul\":10461:10715   */\n      swap3\n      swap2\n      pop\n      pop\n      jump\t// out\n        /* \"#utility.yul\":10721:11053   */\n    tag_136:\n        /* \"#utility.yul\":10842:10846   */\n      0x00\n        /* \"#utility.yul\":10880:10882   */\n      0x40\n        /* \"#utility.yul\":10869:10878   */\n      dup3\n        /* \"#utility.yul\":10865:10883   */\n      add\n        /* \"#utility.yul\":10857:10883   */\n      swap1\n      pop\n        /* \"#utility.yul\":10893:10964   */\n      tag_498\n        /* \"#utility.yul\":10961:10962   */\n      0x00\n        /* \"#utility.yul\":10950:10959   */\n      dup4\n        /* \"#utility.yul\":10946:10963   */\n      add\n        /* \"#utility.yul\":10937:10943   */\n      dup6\n        /* \"#utility.yul\":10893:10964   */\n      tag_328\n      jump\t// in\n    tag_498:\n        /* \"#utility.yul\":10974:11046   */\n      tag_499\n        /* \"#utility.yul\":11042:11044   */\n      0x20\n        /* \"#utility.yul\":11031:11040   */\n      dup4\n        /* \"#utility.yul\":11027:11045   */\n      add\n        /* \"#utility.yul\":11018:11024   */\n      dup5\n        /* \"#utility.yul\":10974:11046   */\n      tag_330\n      jump\t// in\n    tag_499:\n        /* \"#utility.yul\":10721:11053   */\n      swap4\n      swap3\n      pop\n      pop\n      pop\n      jump\t// out\n        /* \"#utility.yul\":11059:11228   */\n    tag_361:\n        /* \"#utility.yul\":11143:11154   */\n      0x00\n        /* \"#utility.yul\":11177:11183   */\n      dup3\n        /* \"#utility.yul\":11172:11175   */\n      dup3\n        /* \"#utility.yul\":11165:11184   */\n      mstore\n        /* \"#utility.yul\":11217:11221   */\n      0x20\n        /* \"#utility.yul\":11212:11215   */\n      dup3\n        /* \"#utility.yul\":11208:11222   */\n      add\n        /* \"#utility.yul\":11193:11222   */\n      swap1\n      pop\n        /* \"#utility.yul\":11059:11228   */\n      swap3\n      swap2\n      pop\n      pop\n      jump\t// out\n        /* \"#utility.yul\":11234:11454   */\n    tag_362:\n        /* \"#utility.yul\":11374:11408   */\n      0x4f6e6c79206f776e65722063616e2063616c6c20746869732066756e6374696f\n        /* \"#utility.yul\":11370:11371   */\n      0x00\n        /* \"#utility.yul\":11362:11368   */\n      dup3\n        /* \"#utility.yul\":11358:11372   */\n      add\n        /* \"#utility.yul\":11351:11409   */\n      mstore\n        /* \"#utility.yul\":11443:11446   */\n      0x6e00000000000000000000000000000000000000000000000000000000000000\n        /* \"#utility.yul\":11438:11440   */\n      0x20\n        /* \"#utility.yul\":11430:11436   */\n      dup3\n        /* \"#utility.yul\":11426:11441   */\n      add\n        /* \"#utility.yul\":11419:11447   */\n      mstore\n        /* \"#utility.yul\":11234:11454   */\n      pop\n      jump\t// out\n        /* \"#utility.yul\":11460:11826   */\n    tag_363:\n        /* \"#utility.yul\":11602:11605   */\n      0x00\n        /* \"#utility.yul\":11623:11690   */\n      tag_503\n        /* \"#utility.yul\":11687:11689   */\n      0x21\n        /* \"#utility.yul\":11682:11685   */\n      dup4\n        /* \"#utility.yul\":11623:11690   */\n      tag_361\n      jump\t// in\n    tag_503:\n        /* \"#utility.yul\":11616:11690   */\n      swap2\n      pop\n        /* \"#utility.yul\":11699:11792   */\n      tag_504\n        /* \"#utility.yul\":11788:11791   */\n      dup3\n        /* \"#utility.yul\":11699:11792   */\n      tag_362\n      jump\t// in\n    tag_504:\n        /* \"#utility.yul\":11817:11819   */\n      0x40\n        /* \"#utility.yul\":11812:11815   */\n      dup3\n        /* \"#utility.yul\":11808:11820   */\n      add\n        /* \"#utility.yul\":11801:11820   */\n      swap1\n      pop\n        /* \"#utility.yul\":11460:11826   */\n      swap2\n      swap1\n      pop\n      jump\t// out\n        /* \"#utility.yul\":11832:12251   */\n    tag_149:\n        /* \"#utility.yul\":11998:12002   */\n      0x00\n        /* \"#utility.yul\":12036:12038   */\n      0x20\n        /* \"#utility.yul\":12025:12034   */\n      dup3\n        /* \"#utility.yul\":12021:12039   */\n      add\n        /* \"#utility.yul\":12013:12039   */\n      swap1\n      pop\n        /* \"#utility.yul\":12085:12094   */\n      dup2\n        /* \"#utility.yul\":12079:12083   */\n      dup2\n        /* \"#utility.yul\":12075:12095   */\n      sub\n        /* \"#utility.yul\":12071:12072   */\n      0x00\n        /* \"#utility.yul\":12060:12069   */\n      dup4\n        /* \"#utility.yul\":12056:12073   */\n      add\n        /* \"#utility.yul\":12049:12096   */\n      mstore\n        /* \"#utility.yul\":12113:12244   */\n      tag_506\n        /* \"#utility.yul\":12239:12243   */\n      dup2\n        /* \"#utility.yul\":12113:12244   */\n      tag_363\n      jump\t// in\n    tag_506:\n        /* \"#utility.yul\":12105:12244   */\n      swap1\n      pop\n        /* \"#utility.yul\":11832:12251   */\n      swap2\n      swap1\n      pop\n      jump\t// out\n        /* \"#utility.yul\":12257:12494   */\n    tag_364:\n        /* \"#utility.yul\":12397:12431   */\n      0x496e76616c6964204e756d6265722c2070726963652063616e74206265206c65\n        /* \"#utility.yul\":12393:12394   */\n      0x00\n        /* \"#utility.yul\":12385:12391   */\n      dup3\n        /* \"#utility.yul\":12381:12395   */\n      add\n        /* \"#utility.yul\":12374:12432   */\n      mstore\n        /* \"#utility.yul\":12466:12486   */\n      0x7373206f7220657175616c207468616e20300000000000000000000000000000\n        /* \"#utility.yul\":12461:12463   */\n      0x20\n        /* \"#utility.yul\":12453:12459   */\n      dup3\n        /* \"#utility.yul\":12449:12464   */\n      add\n        /* \"#utility.yul\":12442:12487   */\n      mstore\n        /* \"#utility.yul\":12257:12494   */\n      pop\n      jump\t// out\n        /* \"#utility.yul\":12500:12866   */\n    tag_365:\n        /* \"#utility.yul\":12642:12645   */\n      0x00\n        /* \"#utility.yul\":12663:12730   */\n      tag_509\n        /* \"#utility.yul\":12727:12729   */\n      0x32\n        /* \"#utility.yul\":12722:12725   */\n      dup4\n        /* \"#utility.yul\":12663:12730   */\n      tag_361\n      jump\t// in\n    tag_509:\n        /* \"#utility.yul\":12656:12730   */\n      swap2\n      pop\n        /* \"#utility.yul\":12739:12832   */\n      tag_510\n        /* \"#utility.yul\":12828:12831   */\n      dup3\n        /* \"#utility.yul\":12739:12832   */\n      tag_364\n      jump\t// in\n    tag_510:\n        /* \"#utility.yul\":12857:12859   */\n      0x40\n        /* \"#utility.yul\":12852:12855   */\n      dup3\n        /* \"#utility.yul\":12848:12860   */\n      add\n        /* \"#utility.yul\":12841:12860   */\n      swap1\n      pop\n        /* \"#utility.yul\":12500:12866   */\n      swap2\n      swap1\n      pop\n      jump\t// out\n        /* \"#utility.yul\":12872:13291   */\n    tag_153:\n        /* \"#utility.yul\":13038:13042   */\n      0x00\n        /* \"#utility.yul\":13076:13078   */\n      0x20\n        /* \"#utility.yul\":13065:13074   */\n      dup3\n        /* \"#utility.yul\":13061:13079   */\n      add\n        /* \"#utility.yul\":13053:13079   */\n      swap1\n      pop\n        /* \"#utility.yul\":13125:13134   */\n      dup2\n        /* \"#utility.yul\":13119:13123   */\n      dup2\n        /* \"#utility.yul\":13115:13135   */\n      sub\n        /* \"#utility.yul\":13111:13112   */\n      0x00\n        /* \"#utility.yul\":13100:13109   */\n      dup4\n        /* \"#utility.yul\":13096:13113   */\n      add\n        /* \"#utility.yul\":13089:13136   */\n      mstore\n        /* \"#utility.yul\":13153:13284   */\n      tag_512\n        /* \"#utility.yul\":13279:13283   */\n      dup2\n        /* \"#utility.yul\":13153:13284   */\n      tag_365\n      jump\t// in\n    tag_512:\n        /* \"#utility.yul\":13145:13284   */\n      swap1\n      pop\n        /* \"#utility.yul\":12872:13291   */\n      swap2\n      swap1\n      pop\n      jump\t// out\n        /* \"#utility.yul\":13297:13629   */\n    tag_155:\n        /* \"#utility.yul\":13418:13422   */\n      0x00\n        /* \"#utility.yul\":13456:13458   */\n      0x40\n        /* \"#utility.yul\":13445:13454   */\n      dup3\n        /* \"#utility.yul\":13441:13459   */\n      add\n        /* \"#utility.yul\":13433:13459   */\n      swap1\n      pop\n        /* \"#utility.yul\":13469:13540   */\n      tag_514\n        /* \"#utility.yul\":13537:13538   */\n      0x00\n        /* \"#utility.yul\":13526:13535   */\n      dup4\n        /* \"#utility.yul\":13522:13539   */\n      add\n        /* \"#utility.yul\":13513:13519   */\n      dup6\n        /* \"#utility.yul\":13469:13540   */\n      tag_330\n      jump\t// in\n    tag_514:\n        /* \"#utility.yul\":13550:13622   */\n      tag_515\n        /* \"#utility.yul\":13618:13620   */\n      0x20\n        /* \"#utility.yul\":13607:13616   */\n      dup4\n        /* \"#utility.yul\":13603:13621   */\n      add\n        /* \"#utility.yul\":13594:13600   */\n      dup5\n        /* \"#utility.yul\":13550:13622   */\n      tag_330\n      jump\t// in\n    tag_515:\n        /* \"#utility.yul\":13297:13629   */\n      swap4\n      swap3\n      pop\n      pop\n      pop\n      jump\t// out\n        /* \"#utility.yul\":13635:13815   */\n    tag_366:\n        /* \"#utility.yul\":13683:13760   */\n      0x4e487b7100000000000000000000000000000000000000000000000000000000\n        /* \"#utility.yul\":13680:13681   */\n      0x00\n        /* \"#utility.yul\":13673:13761   */\n      mstore\n        /* \"#utility.yul\":13780:13784   */\n      0x11\n        /* \"#utility.yul\":13777:13778   */\n      0x04\n        /* \"#utility.yul\":13770:13785   */\n      mstore\n        /* \"#utility.yul\":13804:13808   */\n      0x24\n        /* \"#utility.yul\":13801:13802   */\n      0x00\n        /* \"#utility.yul\":13794:13809   */\n      revert\n        /* \"#utility.yul\":13821:14231   */\n    tag_171:\n        /* \"#utility.yul\":13861:13868   */\n      0x00\n        /* \"#utility.yul\":13884:13904   */\n      tag_518\n        /* \"#utility.yul\":13902:13903   */\n      dup3\n        /* \"#utility.yul\":13884:13904   */\n      tag_329\n      jump\t// in\n    tag_518:\n        /* \"#utility.yul\":13879:13904   */\n      swap2\n      pop\n        /* \"#utility.yul\":13918:13938   */\n      tag_519\n        /* \"#utility.yul\":13936:13937   */\n      dup4\n        /* \"#utility.yul\":13918:13938   */\n      tag_329\n      jump\t// in\n    tag_519:\n        /* \"#utility.yul\":13913:13938   */\n      swap3\n      pop\n        /* \"#utility.yul\":13973:13974   */\n      dup3\n        /* \"#utility.yul\":13970:13971   */\n      dup3\n        /* \"#utility.yul\":13966:13975   */\n      mul\n        /* \"#utility.yul\":13995:14025   */\n      tag_520\n        /* \"#utility.yul\":14013:14024   */\n      dup2\n        /* \"#utility.yul\":13995:14025   */\n      tag_329\n      jump\t// in\n    tag_520:\n        /* \"#utility.yul\":13984:14025   */\n      swap2\n      pop\n        /* \"#utility.yul\":14174:14175   */\n      dup3\n        /* \"#utility.yul\":14165:14172   */\n      dup3\n        /* \"#utility.yul\":14161:14176   */\n      div\n        /* \"#utility.yul\":14158:14159   */\n      dup5\n        /* \"#utility.yul\":14155:14177   */\n      eq\n        /* \"#utility.yul\":14135:14136   */\n      dup4\n        /* \"#utility.yul\":14128:14137   */\n      iszero\n        /* \"#utility.yul\":14108:14191   */\n      or\n        /* \"#utility.yul\":14085:14224   */\n      tag_521\n      jumpi\n        /* \"#utility.yul\":14204:14222   */\n      tag_522\n      tag_366\n      jump\t// in\n    tag_522:\n        /* \"#utility.yul\":14085:14224   */\n    tag_521:\n        /* \"#utility.yul\":13869:14231   */\n      pop\n        /* \"#utility.yul\":13821:14231   */\n      swap3\n      swap2\n      pop\n      pop\n      jump\t// out\n        /* \"#utility.yul\":14237:14416   */\n    tag_367:\n        /* \"#utility.yul\":14377:14408   */\n      0x496e73756666696369656e742066756e647320666f72207469636b6574000000\n        /* \"#utility.yul\":14373:14374   */\n      0x00\n        /* \"#utility.yul\":14365:14371   */\n      dup3\n        /* \"#utility.yul\":14361:14375   */\n      add\n        /* \"#utility.yul\":14354:14409   */\n      mstore\n        /* \"#utility.yul\":14237:14416   */\n      pop\n      jump\t// out\n        /* \"#utility.yul\":14422:14788   */\n    tag_368:\n        /* \"#utility.yul\":14564:14567   */\n      0x00\n        /* \"#utility.yul\":14585:14652   */\n      tag_525\n        /* \"#utility.yul\":14649:14651   */\n      0x1d\n        /* \"#utility.yul\":14644:14647   */\n      dup4\n        /* \"#utility.yul\":14585:14652   */\n      tag_361\n      jump\t// in\n    tag_525:\n        /* \"#utility.yul\":14578:14652   */\n      swap2\n      pop\n        /* \"#utility.yul\":14661:14754   */\n      tag_526\n        /* \"#utility.yul\":14750:14753   */\n      dup3\n        /* \"#utility.yul\":14661:14754   */\n      tag_367\n      jump\t// in\n    tag_526:\n        /* \"#utility.yul\":14779:14781   */\n      0x20\n        /* \"#utility.yul\":14774:14777   */\n      dup3\n        /* \"#utility.yul\":14770:14782   */\n      add\n        /* \"#utility.yul\":14763:14782   */\n      swap1\n      pop\n        /* \"#utility.yul\":14422:14788   */\n      swap2\n      swap1\n      pop\n      jump\t// out\n        /* \"#utility.yul\":14794:15213   */\n    tag_174:\n        /* \"#utility.yul\":14960:14964   */\n      0x00\n        /* \"#utility.yul\":14998:15000   */\n      0x20\n        /* \"#utility.yul\":14987:14996   */\n      dup3\n        /* \"#utility.yul\":14983:15001   */\n      add\n        /* \"#utility.yul\":14975:15001   */\n      swap1\n      pop\n        /* \"#utility.yul\":15047:15056   */\n      dup2\n        /* \"#utility.yul\":15041:15045   */\n      dup2\n        /* \"#utility.yul\":15037:15057   */\n      sub\n        /* \"#utility.yul\":15033:15034   */\n      0x00\n        /* \"#utility.yul\":15022:15031   */\n      dup4\n        /* \"#utility.yul\":15018:15035   */\n      add\n        /* \"#utility.yul\":15011:15058   */\n      mstore\n        /* \"#utility.yul\":15075:15206   */\n      tag_528\n        /* \"#utility.yul\":15201:15205   */\n      dup2\n        /* \"#utility.yul\":15075:15206   */\n      tag_368\n      jump\t// in\n    tag_528:\n        /* \"#utility.yul\":15067:15206   */\n      swap1\n      pop\n        /* \"#utility.yul\":14794:15213   */\n      swap2\n      swap1\n      pop\n      jump\t// out\n        /* \"#utility.yul\":15219:15398   */\n    tag_369:\n        /* \"#utility.yul\":15359:15390   */\n      0x496e73756666696369656e74207469636b65747320666f722073616c65000000\n        /* \"#utility.yul\":15355:15356   */\n      0x00\n        /* \"#utility.yul\":15347:15353   */\n      dup3\n        /* \"#utility.yul\":15343:15357   */\n      add\n        /* \"#utility.yul\":15336:15391   */\n      mstore\n        /* \"#utility.yul\":15219:15398   */\n      pop\n      jump\t// out\n        /* \"#utility.yul\":15404:15770   */\n    tag_370:\n        /* \"#utility.yul\":15546:15549   */\n      0x00\n        /* \"#utility.yul\":15567:15634   */\n      tag_531\n        /* \"#utility.yul\":15631:15633   */\n      0x1d\n        /* \"#utility.yul\":15626:15629   */\n      dup4\n        /* \"#utility.yul\":15567:15634   */\n      tag_361\n      jump\t// in\n    tag_531:\n        /* \"#utility.yul\":15560:15634   */\n      swap2\n      pop\n        /* \"#utility.yul\":15643:15736   */\n      tag_532\n        /* \"#utility.yul\":15732:15735   */\n      dup3\n        /* \"#utility.yul\":15643:15736   */\n      tag_369\n      jump\t// in\n    tag_532:\n        /* \"#utility.yul\":15761:15763   */\n      0x20\n        /* \"#utility.yul\":15756:15759   */\n      dup3\n        /* \"#utility.yul\":15752:15764   */\n      add\n        /* \"#utility.yul\":15745:15764   */\n      swap1\n      pop\n        /* \"#utility.yul\":15404:15770   */\n      swap2\n      swap1\n      pop\n      jump\t// out\n        /* \"#utility.yul\":15776:16195   */\n    tag_177:\n        /* \"#utility.yul\":15942:15946   */\n      0x00\n        /* \"#utility.yul\":15980:15982   */\n      0x20\n        /* \"#utility.yul\":15969:15978   */\n      dup3\n        /* \"#utility.yul\":15965:15983   */\n      add\n        /* \"#utility.yul\":15957:15983   */\n      swap1\n      pop\n        /* \"#utility.yul\":16029:16038   */\n      dup2\n        /* \"#utility.yul\":16023:16027   */\n      dup2\n        /* \"#utility.yul\":16019:16039   */\n      sub\n        /* \"#utility.yul\":16015:16016   */\n      0x00\n        /* \"#utility.yul\":16004:16013   */\n      dup4\n        /* \"#utility.yul\":16000:16017   */\n      add\n        /* \"#utility.yul\":15993:16040   */\n      mstore\n        /* \"#utility.yul\":16057:16188   */\n      tag_534\n        /* \"#utility.yul\":16183:16187   */\n      dup2\n        /* \"#utility.yul\":16057:16188   */\n      tag_370\n      jump\t// in\n    tag_534:\n        /* \"#utility.yul\":16049:16188   */\n      swap1\n      pop\n        /* \"#utility.yul\":15776:16195   */\n      swap2\n      swap1\n      pop\n      jump\t// out\n        /* \"#utility.yul\":16201:16392   */\n    tag_181:\n        /* \"#utility.yul\":16241:16244   */\n      0x00\n        /* \"#utility.yul\":16260:16280   */\n      tag_536\n        /* \"#utility.yul\":16278:16279   */\n      dup3\n        /* \"#utility.yul\":16260:16280   */\n      tag_329\n      jump\t// in\n    tag_536:\n        /* \"#utility.yul\":16255:16280   */\n      swap2\n      pop\n        /* \"#utility.yul\":16294:16314   */\n      tag_537\n        /* \"#utility.yul\":16312:16313   */\n      dup4\n        /* \"#utility.yul\":16294:16314   */\n      tag_329\n      jump\t// in\n    tag_537:\n        /* \"#utility.yul\":16289:16314   */\n      swap3\n      pop\n        /* \"#utility.yul\":16337:16338   */\n      dup3\n        /* \"#utility.yul\":16334:16335   */\n      dup3\n        /* \"#utility.yul\":16330:16339   */\n      add\n        /* \"#utility.yul\":16323:16339   */\n      swap1\n      pop\n        /* \"#utility.yul\":16358:16361   */\n      dup1\n        /* \"#utility.yul\":16355:16356   */\n      dup3\n        /* \"#utility.yul\":16352:16362   */\n      gt\n        /* \"#utility.yul\":16349:16385   */\n      iszero\n      tag_538\n      jumpi\n        /* \"#utility.yul\":16365:16383   */\n      tag_539\n      tag_366\n      jump\t// in\n    tag_539:\n        /* \"#utility.yul\":16349:16385   */\n    tag_538:\n        /* \"#utility.yul\":16201:16392   */\n      swap3\n      swap2\n      pop\n      pop\n      jump\t// out\n        /* \"#utility.yul\":16398:16592   */\n    tag_184:\n        /* \"#utility.yul\":16438:16442   */\n      0x00\n        /* \"#utility.yul\":16458:16478   */\n      tag_541\n        /* \"#utility.yul\":16476:16477   */\n      dup3\n        /* \"#utility.yul\":16458:16478   */\n      tag_329\n      jump\t// in\n    tag_541:\n        /* \"#utility.yul\":16453:16478   */\n      swap2\n      pop\n        /* \"#utility.yul\":16492:16512   */\n      tag_542\n        /* \"#utility.yul\":16510:16511   */\n      dup4\n        /* \"#utility.yul\":16492:16512   */\n      tag_329\n      jump\t// in\n    tag_542:\n        /* \"#utility.yul\":16487:16512   */\n      swap3\n      pop\n        /* \"#utility.yul\":16536:16537   */\n      dup3\n        /* \"#utility.yul\":16533:16534   */\n      dup3\n        /* \"#utility.yul\":16529:16538   */\n      sub\n        /* \"#utility.yul\":16521:16538   */\n      swap1\n      pop\n        /* \"#utility.yul\":16560:16561   */\n      dup2\n        /* \"#utility.yul\":16554:16558   */\n      dup2\n        /* \"#utility.yul\":16551:16562   */\n      gt\n        /* \"#utility.yul\":16548:16585   */\n      iszero\n      tag_543\n      jumpi\n        /* \"#utility.yul\":16565:16583   */\n      tag_544\n      tag_366\n      jump\t// in\n    tag_544:\n        /* \"#utility.yul\":16548:16585   */\n    tag_543:\n        /* \"#utility.yul\":16398:16592   */\n      swap3\n      swap2\n      pop\n      pop\n      jump\t// out\n        /* \"#utility.yul\":16598:16709   */\n    tag_371:\n        /* \"#utility.yul\":16662:16668   */\n      0x00\n        /* \"#utility.yul\":16696:16701   */\n      dup2\n        /* \"#utility.yul\":16690:16702   */\n      sload\n        /* \"#utility.yul\":16680:16702   */\n      swap1\n      pop\n        /* \"#utility.yul\":16598:16709   */\n      swap2\n      swap1\n      pop\n      jump\t// out\n        /* \"#utility.yul\":16715:16871   */\n    tag_372:\n        /* \"#utility.yul\":16779:16783   */\n      0x00\n        /* \"#utility.yul\":16802:16805   */\n      dup2\n        /* \"#utility.yul\":16794:16805   */\n      swap1\n      pop\n        /* \"#utility.yul\":16825:16828   */\n      dup2\n        /* \"#utility.yul\":16822:16823   */\n      0x00\n        /* \"#utility.yul\":16815:16829   */\n      mstore\n        /* \"#utility.yul\":16859:16863   */\n      0x20\n        /* \"#utility.yul\":16856:16857   */\n      0x00\n        /* \"#utility.yul\":16846:16864   */\n      keccak256\n        /* \"#utility.yul\":16838:16864   */\n      swap1\n      pop\n        /* \"#utility.yul\":16715:16871   */\n      swap2\n      swap1\n      pop\n      jump\t// out\n        /* \"#utility.yul\":16877:16979   */\n    tag_373:\n        /* \"#utility.yul\":16919:16927   */\n      0x00\n        /* \"#utility.yul\":16966:16971   */\n      dup2\n        /* \"#utility.yul\":16963:16964   */\n      0x00\n        /* \"#utility.yul\":16959:16972   */\n      shr\n        /* \"#utility.yul\":16938:16972   */\n      swap1\n      pop\n        /* \"#utility.yul\":16877:16979   */\n      swap2\n      swap1\n      pop\n      jump\t// out\n        /* \"#utility.yul\":16985:17124   */\n    tag_374:\n        /* \"#utility.yul\":17035:17042   */\n      0x00\n        /* \"#utility.yul\":17075:17117   */\n      0xffffffffffffffffffffffffffffffffffffffff\n        /* \"#utility.yul\":17068:17073   */\n      dup3\n        /* \"#utility.yul\":17064:17118   */\n      and\n        /* \"#utility.yul\":17053:17118   */\n      swap1\n      pop\n        /* \"#utility.yul\":16985:17124   */\n      swap2\n      swap1\n      pop\n      jump\t// out\n        /* \"#utility.yul\":17130:17296   */\n    tag_375:\n        /* \"#utility.yul\":17199:17204   */\n      0x00\n        /* \"#utility.yul\":17224:17290   */\n      tag_550\n        /* \"#utility.yul\":17255:17289   */\n      tag_551\n        /* \"#utility.yul\":17278:17288   */\n      dup4\n        /* \"#utility.yul\":17255:17289   */\n      tag_373\n      jump\t// in\n    tag_551:\n        /* \"#utility.yul\":17224:17290   */\n      tag_374\n      jump\t// in\n    tag_550:\n        /* \"#utility.yul\":17215:17290   */\n      swap1\n      pop\n        /* \"#utility.yul\":17130:17296   */\n      swap2\n      swap1\n      pop\n      jump\t// out\n        /* \"#utility.yul\":17302:17446   */\n    tag_376:\n        /* \"#utility.yul\":17357:17362   */\n      0x00\n        /* \"#utility.yul\":17382:17439   */\n      tag_553\n        /* \"#utility.yul\":17433:17437   */\n      dup3\n        /* \"#utility.yul\":17427:17438   */\n      sload\n        /* \"#utility.yul\":17382:17439   */\n      tag_375\n      jump\t// in\n    tag_553:\n        /* \"#utility.yul\":17373:17439   */\n      swap1\n      pop\n        /* \"#utility.yul\":17302:17446   */\n      swap2\n      swap1\n      pop\n      jump\t// out\n        /* \"#utility.yul\":17452:17562   */\n    tag_377:\n        /* \"#utility.yul\":17519:17523   */\n      0x00\n        /* \"#utility.yul\":17551:17555   */\n      0x01\n        /* \"#utility.yul\":17546:17549   */\n      dup3\n        /* \"#utility.yul\":17542:17556   */\n      add\n        /* \"#utility.yul\":17534:17556   */\n      swap1\n      pop\n        /* \"#utility.yul\":17452:17562   */\n      swap2\n      swap1\n      pop\n      jump\t// out\n        /* \"#utility.yul\":17598:18349   */\n    tag_378:\n        /* \"#utility.yul\":17714:17717   */\n      0x00\n        /* \"#utility.yul\":17743:17794   */\n      tag_556\n        /* \"#utility.yul\":17788:17793   */\n      dup3\n        /* \"#utility.yul\":17743:17794   */\n      tag_371\n      jump\t// in\n    tag_556:\n        /* \"#utility.yul\":17810:17896   */\n      tag_557\n        /* \"#utility.yul\":17889:17895   */\n      dup2\n        /* \"#utility.yul\":17884:17887   */\n      dup6\n        /* \"#utility.yul\":17810:17896   */\n      tag_352\n      jump\t// in\n    tag_557:\n        /* \"#utility.yul\":17803:17896   */\n      swap4\n      pop\n        /* \"#utility.yul\":17920:17973   */\n      tag_558\n        /* \"#utility.yul\":17967:17972   */\n      dup4\n        /* \"#utility.yul\":17920:17973   */\n      tag_372\n      jump\t// in\n    tag_558:\n        /* \"#utility.yul\":17996:18003   */\n      dup1\n        /* \"#utility.yul\":18027:18028   */\n      0x00\n        /* \"#utility.yul\":18012:18324   */\n    tag_559:\n        /* \"#utility.yul\":18037:18043   */\n      dup4\n        /* \"#utility.yul\":18034:18035   */\n      dup2\n        /* \"#utility.yul\":18031:18044   */\n      lt\n        /* \"#utility.yul\":18012:18324   */\n      iszero\n      tag_561\n      jumpi\n        /* \"#utility.yul\":18107:18151   */\n      tag_562\n        /* \"#utility.yul\":18144:18150   */\n      dup3\n        /* \"#utility.yul\":18107:18151   */\n      tag_376\n      jump\t// in\n    tag_562:\n        /* \"#utility.yul\":18171:18234   */\n      tag_563\n        /* \"#utility.yul\":18230:18233   */\n      dup9\n        /* \"#utility.yul\":18215:18228   */\n      dup3\n        /* \"#utility.yul\":18171:18234   */\n      tag_354\n      jump\t// in\n    tag_563:\n        /* \"#utility.yul\":18164:18234   */\n      swap8\n      pop\n        /* \"#utility.yul\":18257:18314   */\n      tag_564\n        /* \"#utility.yul\":18307:18313   */\n      dup4\n        /* \"#utility.yul\":18257:18314   */\n      tag_377\n      jump\t// in\n    tag_564:\n        /* \"#utility.yul\":18247:18314   */\n      swap3\n      pop\n        /* \"#utility.yul\":18072:18324   */\n      pop\n        /* \"#utility.yul\":18059:18060   */\n      0x01\n        /* \"#utility.yul\":18056:18057   */\n      dup2\n        /* \"#utility.yul\":18052:18061   */\n      add\n        /* \"#utility.yul\":18047:18061   */\n      swap1\n      pop\n        /* \"#utility.yul\":18012:18324   */\n      jump(tag_559)\n    tag_561:\n        /* \"#utility.yul\":18016:18030   */\n      pop\n        /* \"#utility.yul\":18340:18343   */\n      dup6\n        /* \"#utility.yul\":18333:18343   */\n      swap4\n      pop\n        /* \"#utility.yul\":17719:18349   */\n      pop\n      pop\n      pop\n        /* \"#utility.yul\":17598:18349   */\n      swap3\n      swap2\n      pop\n      pop\n      jump\t// out\n        /* \"#utility.yul\":18355:18722   */\n    tag_188:\n        /* \"#utility.yul\":18495:18499   */\n      0x00\n        /* \"#utility.yul\":18533:18535   */\n      0x20\n        /* \"#utility.yul\":18522:18531   */\n      dup3\n        /* \"#utility.yul\":18518:18536   */\n      add\n        /* \"#utility.yul\":18510:18536   */\n      swap1\n      pop\n        /* \"#utility.yul\":18582:18591   */\n      dup2\n        /* \"#utility.yul\":18576:18580   */\n      dup2\n        /* \"#utility.yul\":18572:18592   */\n      sub\n        /* \"#utility.yul\":18568:18569   */\n      0x00\n        /* \"#utility.yul\":18557:18566   */\n      dup4\n        /* \"#utility.yul\":18553:18570   */\n      add\n        /* \"#utility.yul\":18546:18593   */\n      mstore\n        /* \"#utility.yul\":18610:18715   */\n      tag_566\n        /* \"#utility.yul\":18710:18714   */\n      dup2\n        /* \"#utility.yul\":18701:18707   */\n      dup5\n        /* \"#utility.yul\":18610:18715   */\n      tag_378\n      jump\t// in\n    tag_566:\n        /* \"#utility.yul\":18602:18715   */\n      swap1\n      pop\n        /* \"#utility.yul\":18355:18722   */\n      swap3\n      swap2\n      pop\n      pop\n      jump\t// out\n        /* \"#utility.yul\":18728:18907   */\n    tag_379:\n        /* \"#utility.yul\":18868:18899   */\n      0x4d7573742064726177206174206c65617374206f6e652077696e6e6572000000\n        /* \"#utility.yul\":18864:18865   */\n      0x00\n        /* \"#utility.yul\":18856:18862   */\n      dup3\n        /* \"#utility.yul\":18852:18866   */\n      add\n        /* \"#utility.yul\":18845:18900   */\n      mstore\n        /* \"#utility.yul\":18728:18907   */\n      pop\n      jump\t// out\n        /* \"#utility.yul\":18913:19279   */\n    tag_380:\n        /* \"#utility.yul\":19055:19058   */\n      0x00\n        /* \"#utility.yul\":19076:19143   */\n      tag_569\n        /* \"#utility.yul\":19140:19142   */\n      0x1d\n        /* \"#utility.yul\":19135:19138   */\n      dup4\n        /* \"#utility.yul\":19076:19143   */\n      tag_361\n      jump\t// in\n    tag_569:\n        /* \"#utility.yul\":19069:19143   */\n      swap2\n      pop\n        /* \"#utility.yul\":19152:19245   */\n      tag_570\n        /* \"#utility.yul\":19241:19244   */\n      dup3\n        /* \"#utility.yul\":19152:19245   */\n      tag_379\n      jump\t// in\n    tag_570:\n        /* \"#utility.yul\":19270:19272   */\n      0x20\n        /* \"#utility.yul\":19265:19268   */\n      dup3\n        /* \"#utility.yul\":19261:19273   */\n      add\n        /* \"#utility.yul\":19254:19273   */\n      swap1\n      pop\n        /* \"#utility.yul\":18913:19279   */\n      swap2\n      swap1\n      pop\n      jump\t// out\n        /* \"#utility.yul\":19285:19704   */\n    tag_199:\n        /* \"#utility.yul\":19451:19455   */\n      0x00\n        /* \"#utility.yul\":19489:19491   */\n      0x20\n        /* \"#utility.yul\":19478:19487   */\n      dup3\n        /* \"#utility.yul\":19474:19492   */\n      add\n        /* \"#utility.yul\":19466:19492   */\n      swap1\n      pop\n        /* \"#utility.yul\":19538:19547   */\n      dup2\n        /* \"#utility.yul\":19532:19536   */\n      dup2\n        /* \"#utility.yul\":19528:19548   */\n      sub\n        /* \"#utility.yul\":19524:19525   */\n      0x00\n        /* \"#utility.yul\":19513:19522   */\n      dup4\n        /* \"#utility.yul\":19509:19526   */\n      add\n        /* \"#utility.yul\":19502:19549   */\n      mstore\n        /* \"#utility.yul\":19566:19697   */\n      tag_572\n        /* \"#utility.yul\":19692:19696   */\n      dup2\n        /* \"#utility.yul\":19566:19697   */\n      tag_380\n      jump\t// in\n    tag_572:\n        /* \"#utility.yul\":19558:19697   */\n      swap1\n      pop\n        /* \"#utility.yul\":19285:19704   */\n      swap2\n      swap1\n      pop\n      jump\t// out\n        /* \"#utility.yul\":19710:20021   */\n    tag_381:\n        /* \"#utility.yul\":19850:19884   */\n      0x4e6f7420656e6f756768207061727469636970616e74732c206e756d62657273\n        /* \"#utility.yul\":19846:19847   */\n      0x00\n        /* \"#utility.yul\":19838:19844   */\n      dup3\n        /* \"#utility.yul\":19834:19848   */\n      add\n        /* \"#utility.yul\":19827:19885   */\n      mstore\n        /* \"#utility.yul\":19919:19953   */\n      0x206f662077696e6e6572732063616e74206265206c6172676572207468616e20\n        /* \"#utility.yul\":19914:19916   */\n      0x20\n        /* \"#utility.yul\":19906:19912   */\n      dup3\n        /* \"#utility.yul\":19902:19917   */\n      add\n        /* \"#utility.yul\":19895:19954   */\n      mstore\n        /* \"#utility.yul\":19988:20013   */\n      0x6e756d62657273206f66207061727469636970616e7473000000000000000000\n        /* \"#utility.yul\":19983:19985   */\n      0x40\n        /* \"#utility.yul\":19975:19981   */\n      dup3\n        /* \"#utility.yul\":19971:19986   */\n      add\n        /* \"#utility.yul\":19964:20014   */\n      mstore\n        /* \"#utility.yul\":19710:20021   */\n      pop\n      jump\t// out\n        /* \"#utility.yul\":20027:20393   */\n    tag_382:\n        /* \"#utility.yul\":20169:20172   */\n      0x00\n        /* \"#utility.yul\":20190:20257   */\n      tag_575\n        /* \"#utility.yul\":20254:20256   */\n      0x57\n        /* \"#utility.yul\":20249:20252   */\n      dup4\n        /* \"#utility.yul\":20190:20257   */\n      tag_361\n      jump\t// in\n    tag_575:\n        /* \"#utility.yul\":20183:20257   */\n      swap2\n      pop\n        /* \"#utility.yul\":20266:20359   */\n      tag_576\n        /* \"#utility.yul\":20355:20358   */\n      dup3\n        /* \"#utility.yul\":20266:20359   */\n      tag_381\n      jump\t// in\n    tag_576:\n        /* \"#utility.yul\":20384:20386   */\n      0x60\n        /* \"#utility.yul\":20379:20382   */\n      dup3\n        /* \"#utility.yul\":20375:20387   */\n      add\n        /* \"#utility.yul\":20368:20387   */\n      swap1\n      pop\n        /* \"#utility.yul\":20027:20393   */\n      swap2\n      swap1\n      pop\n      jump\t// out\n        /* \"#utility.yul\":20399:20818   */\n    tag_202:\n        /* \"#utility.yul\":20565:20569   */\n      0x00\n        /* \"#utility.yul\":20603:20605   */\n      0x20\n        /* \"#utility.yul\":20592:20601   */\n      dup3\n        /* \"#utility.yul\":20588:20606   */\n      add\n        /* \"#utility.yul\":20580:20606   */\n      swap1\n      pop\n        /* \"#utility.yul\":20652:20661   */\n      dup2\n        /* \"#utility.yul\":20646:20650   */\n      dup2\n        /* \"#utility.yul\":20642:20662   */\n      sub\n        /* \"#utility.yul\":20638:20639   */\n      0x00\n        /* \"#utility.yul\":20627:20636   */\n      dup4\n        /* \"#utility.yul\":20623:20640   */\n      add\n        /* \"#utility.yul\":20616:20663   */\n      mstore\n        /* \"#utility.yul\":20680:20811   */\n      tag_578\n        /* \"#utility.yul\":20806:20810   */\n      dup2\n        /* \"#utility.yul\":20680:20811   */\n      tag_382\n      jump\t// in\n    tag_578:\n        /* \"#utility.yul\":20672:20811   */\n      swap1\n      pop\n        /* \"#utility.yul\":20399:20818   */\n      swap2\n      swap1\n      pop\n      jump\t// out\n        /* \"#utility.yul\":20824:20990   */\n    tag_383:\n        /* \"#utility.yul\":20964:20982   */\n      0x546f6f206d616e792077696e6e65727300000000000000000000000000000000\n        /* \"#utility.yul\":20960:20961   */\n      0x00\n        /* \"#utility.yul\":20952:20958   */\n      dup3\n        /* \"#utility.yul\":20948:20962   */\n      add\n        /* \"#utility.yul\":20941:20983   */\n      mstore\n        /* \"#utility.yul\":20824:20990   */\n      pop\n      jump\t// out\n        /* \"#utility.yul\":20996:21362   */\n    tag_384:\n        /* \"#utility.yul\":21138:21141   */\n      0x00\n        /* \"#utility.yul\":21159:21226   */\n      tag_581\n        /* \"#utility.yul\":21223:21225   */\n      0x10\n        /* \"#utility.yul\":21218:21221   */\n      dup4\n        /* \"#utility.yul\":21159:21226   */\n      tag_361\n      jump\t// in\n    tag_581:\n        /* \"#utility.yul\":21152:21226   */\n      swap2\n      pop\n        /* \"#utility.yul\":21235:21328   */\n      tag_582\n        /* \"#utility.yul\":21324:21327   */\n      dup3\n        /* \"#utility.yul\":21235:21328   */\n      tag_383\n      jump\t// in\n    tag_582:\n        /* \"#utility.yul\":21353:21355   */\n      0x20\n        /* \"#utility.yul\":21348:21351   */\n      dup3\n        /* \"#utility.yul\":21344:21356   */\n      add\n        /* \"#utility.yul\":21337:21356   */\n      swap1\n      pop\n        /* \"#utility.yul\":20996:21362   */\n      swap2\n      swap1\n      pop\n      jump\t// out\n        /* \"#utility.yul\":21368:21787   */\n    tag_205:\n        /* \"#utility.yul\":21534:21538   */\n      0x00\n        /* \"#utility.yul\":21572:21574   */\n      0x20\n        /* \"#utility.yul\":21561:21570   */\n      dup3\n        /* \"#utility.yul\":21557:21575   */\n      add\n        /* \"#utility.yul\":21549:21575   */\n      swap1\n      pop\n        /* \"#utility.yul\":21621:21630   */\n      dup2\n        /* \"#utility.yul\":21615:21619   */\n      dup2\n        /* \"#utility.yul\":21611:21631   */\n      sub\n        /* \"#utility.yul\":21607:21608   */\n      0x00\n        /* \"#utility.yul\":21596:21605   */\n      dup4\n        /* \"#utility.yul\":21592:21609   */\n      add\n        /* \"#utility.yul\":21585:21632   */\n      mstore\n        /* \"#utility.yul\":21649:21780   */\n      tag_584\n        /* \"#utility.yul\":21775:21779   */\n      dup2\n        /* \"#utility.yul\":21649:21780   */\n      tag_384\n      jump\t// in\n    tag_584:\n        /* \"#utility.yul\":21641:21780   */\n      swap1\n      pop\n        /* \"#utility.yul\":21368:21787   */\n      swap2\n      swap1\n      pop\n      jump\t// out\n        /* \"#utility.yul\":21793:21973   */\n    tag_208:\n        /* \"#utility.yul\":21841:21918   */\n      0x4e487b7100000000000000000000000000000000000000000000000000000000\n        /* \"#utility.yul\":21838:21839   */\n      0x00\n        /* \"#utility.yul\":21831:21919   */\n      mstore\n        /* \"#utility.yul\":21938:21942   */\n      0x41\n        /* \"#utility.yul\":21935:21936   */\n      0x04\n        /* \"#utility.yul\":21928:21943   */\n      mstore\n        /* \"#utility.yul\":21962:21966   */\n      0x24\n        /* \"#utility.yul\":21959:21960   */\n      0x00\n        /* \"#utility.yul\":21952:21967   */\n      revert\n        /* \"#utility.yul\":21979:22159   */\n    tag_385:\n        /* \"#utility.yul\":22027:22104   */\n      0x4e487b7100000000000000000000000000000000000000000000000000000000\n        /* \"#utility.yul\":22024:22025   */\n      0x00\n        /* \"#utility.yul\":22017:22105   */\n      mstore\n        /* \"#utility.yul\":22124:22128   */\n      0x12\n        /* \"#utility.yul\":22121:22122   */\n      0x04\n        /* \"#utility.yul\":22114:22129   */\n      mstore\n        /* \"#utility.yul\":22148:22152   */\n      0x24\n        /* \"#utility.yul\":22145:22146   */\n      0x00\n        /* \"#utility.yul\":22138:22153   */\n      revert\n        /* \"#utility.yul\":22165:22350   */\n    tag_212:\n        /* \"#utility.yul\":22205:22206   */\n      0x00\n        /* \"#utility.yul\":22222:22242   */\n      tag_588\n        /* \"#utility.yul\":22240:22241   */\n      dup3\n        /* \"#utility.yul\":22222:22242   */\n      tag_329\n      jump\t// in\n    tag_588:\n        /* \"#utility.yul\":22217:22242   */\n      swap2\n      pop\n        /* \"#utility.yul\":22256:22276   */\n      tag_589\n        /* \"#utility.yul\":22274:22275   */\n      dup4\n        /* \"#utility.yul\":22256:22276   */\n      tag_329\n      jump\t// in\n    tag_589:\n        /* \"#utility.yul\":22251:22276   */\n      swap3\n      pop\n        /* \"#utility.yul\":22295:22296   */\n      dup3\n        /* \"#utility.yul\":22285:22320   */\n      tag_590\n      jumpi\n        /* \"#utility.yul\":22300:22318   */\n      tag_591\n      tag_385\n      jump\t// in\n    tag_591:\n        /* \"#utility.yul\":22285:22320   */\n    tag_590:\n        /* \"#utility.yul\":22342:22343   */\n      dup3\n        /* \"#utility.yul\":22339:22340   */\n      dup3\n        /* \"#utility.yul\":22335:22344   */\n      div\n        /* \"#utility.yul\":22330:22344   */\n      swap1\n      pop\n        /* \"#utility.yul\":22165:22350   */\n      swap3\n      swap2\n      pop\n      pop\n      jump\t// out\n        /* \"#utility.yul\":22356:22536   */\n    tag_221:\n        /* \"#utility.yul\":22404:22481   */\n      0x4e487b7100000000000000000000000000000000000000000000000000000000\n        /* \"#utility.yul\":22401:22402   */\n      0x00\n        /* \"#utility.yul\":22394:22482   */\n      mstore\n        /* \"#utility.yul\":22501:22505   */\n      0x32\n        /* \"#utility.yul\":22498:22499   */\n      0x04\n        /* \"#utility.yul\":22491:22506   */\n      mstore\n        /* \"#utility.yul\":22525:22529   */\n      0x24\n        /* \"#utility.yul\":22522:22523   */\n      0x00\n        /* \"#utility.yul\":22515:22530   */\n      revert\n        /* \"#utility.yul\":22542:22689   */\n    tag_386:\n        /* \"#utility.yul\":22643:22654   */\n      0x00\n        /* \"#utility.yul\":22680:22683   */\n      dup2\n        /* \"#utility.yul\":22665:22683   */\n      swap1\n      pop\n        /* \"#utility.yul\":22542:22689   */\n      swap3\n      swap2\n      pop\n      pop\n      jump\t// out\n        /* \"#utility.yul\":22695:23093   */\n    tag_387:\n        /* \"#utility.yul\":22854:22857   */\n      0x00\n        /* \"#utility.yul\":22875:22958   */\n      tag_595\n        /* \"#utility.yul\":22956:22957   */\n      0x00\n        /* \"#utility.yul\":22951:22954   */\n      dup4\n        /* \"#utility.yul\":22875:22958   */\n      tag_386\n      jump\t// in\n    tag_595:\n        /* \"#utility.yul\":22868:22958   */\n      swap2\n      pop\n        /* \"#utility.yul\":22967:23060   */\n      tag_596\n        /* \"#utility.yul\":23056:23059   */\n      dup3\n        /* \"#utility.yul\":22967:23060   */\n      tag_332\n      jump\t// in\n    tag_596:\n        /* \"#utility.yul\":23085:23086   */\n      0x00\n        /* \"#utility.yul\":23080:23083   */\n      dup3\n        /* \"#utility.yul\":23076:23087   */\n      add\n        /* \"#utility.yul\":23069:23087   */\n      swap1\n      pop\n        /* \"#utility.yul\":22695:23093   */\n      swap2\n      swap1\n      pop\n      jump\t// out\n        /* \"#utility.yul\":23099:23478   */\n    tag_274:\n        /* \"#utility.yul\":23283:23286   */\n      0x00\n        /* \"#utility.yul\":23305:23452   */\n      tag_598\n        /* \"#utility.yul\":23448:23451   */\n      dup3\n        /* \"#utility.yul\":23305:23452   */\n      tag_387\n      jump\t// in\n    tag_598:\n        /* \"#utility.yul\":23298:23452   */\n      swap2\n      pop\n        /* \"#utility.yul\":23469:23472   */\n      dup2\n        /* \"#utility.yul\":23462:23472   */\n      swap1\n      pop\n        /* \"#utility.yul\":23099:23478   */\n      swap2\n      swap1\n      pop\n      jump\t// out\n        /* \"#utility.yul\":23484:23654   */\n    tag_388:\n        /* \"#utility.yul\":23624:23646   */\n      0x4661696c656420746f2073656e64204574686572000000000000000000000000\n        /* \"#utility.yul\":23620:23621   */\n      0x00\n        /* \"#utility.yul\":23612:23618   */\n      dup3\n        /* \"#utility.yul\":23608:23622   */\n      add\n        /* \"#utility.yul\":23601:23647   */\n      mstore\n        /* \"#utility.yul\":23484:23654   */\n      pop\n      jump\t// out\n        /* \"#utility.yul\":23660:24026   */\n    tag_389:\n        /* \"#utility.yul\":23802:23805   */\n      0x00\n        /* \"#utility.yul\":23823:23890   */\n      tag_601\n        /* \"#utility.yul\":23887:23889   */\n      0x14\n        /* \"#utility.yul\":23882:23885   */\n      dup4\n        /* \"#utility.yul\":23823:23890   */\n      tag_361\n      jump\t// in\n    tag_601:\n        /* \"#utility.yul\":23816:23890   */\n      swap2\n      pop\n        /* \"#utility.yul\":23899:23992   */\n      tag_602\n        /* \"#utility.yul\":23988:23991   */\n      dup3\n        /* \"#utility.yul\":23899:23992   */\n      tag_388\n      jump\t// in\n    tag_602:\n        /* \"#utility.yul\":24017:24019   */\n      0x20\n        /* \"#utility.yul\":24012:24015   */\n      dup3\n        /* \"#utility.yul\":24008:24020   */\n      add\n        /* \"#utility.yul\":24001:24020   */\n      swap1\n      pop\n        /* \"#utility.yul\":23660:24026   */\n      swap2\n      swap1\n      pop\n      jump\t// out\n        /* \"#utility.yul\":24032:24451   */\n    tag_280:\n        /* \"#utility.yul\":24198:24202   */\n      0x00\n        /* \"#utility.yul\":24236:24238   */\n      0x20\n        /* \"#utility.yul\":24225:24234   */\n      dup3\n        /* \"#utility.yul\":24221:24239   */\n      add\n        /* \"#utility.yul\":24213:24239   */\n      swap1\n      pop\n        /* \"#utility.yul\":24285:24294   */\n      dup2\n        /* \"#utility.yul\":24279:24283   */\n      dup2\n        /* \"#utility.yul\":24275:24295   */\n      sub\n        /* \"#utility.yul\":24271:24272   */\n      0x00\n        /* \"#utility.yul\":24260:24269   */\n      dup4\n        /* \"#utility.yul\":24256:24273   */\n      add\n        /* \"#utility.yul\":24249:24296   */\n      mstore\n        /* \"#utility.yul\":24313:24444   */\n      tag_604\n        /* \"#utility.yul\":24439:24443   */\n      dup2\n        /* \"#utility.yul\":24313:24444   */\n      tag_389\n      jump\t// in\n    tag_604:\n        /* \"#utility.yul\":24305:24444   */\n      swap1\n      pop\n        /* \"#utility.yul\":24032:24451   */\n      swap2\n      swap1\n      pop\n      jump\t// out\n        /* \"#utility.yul\":24457:24534   */\n    tag_390:\n        /* \"#utility.yul\":24494:24501   */\n      0x00\n        /* \"#utility.yul\":24523:24528   */\n      dup2\n        /* \"#utility.yul\":24512:24528   */\n      swap1\n      pop\n        /* \"#utility.yul\":24457:24534   */\n      swap2\n      swap1\n      pop\n      jump\t// out\n        /* \"#utility.yul\":24540:24619   */\n    tag_391:\n        /* \"#utility.yul\":24579:24586   */\n      0x00\n        /* \"#utility.yul\":24608:24613   */\n      dup2\n        /* \"#utility.yul\":24597:24613   */\n      swap1\n      pop\n        /* \"#utility.yul\":24540:24619   */\n      swap2\n      swap1\n      pop\n      jump\t// out\n        /* \"#utility.yul\":24625:24782   */\n    tag_392:\n        /* \"#utility.yul\":24730:24775   */\n      tag_608\n        /* \"#utility.yul\":24750:24774   */\n      tag_609\n        /* \"#utility.yul\":24768:24773   */\n      dup3\n        /* \"#utility.yul\":24750:24774   */\n      tag_390\n      jump\t// in\n    tag_609:\n        /* \"#utility.yul\":24730:24775   */\n      tag_391\n      jump\t// in\n    tag_608:\n        /* \"#utility.yul\":24725:24728   */\n      dup3\n        /* \"#utility.yul\":24718:24776   */\n      mstore\n        /* \"#utility.yul\":24625:24782   */\n      pop\n      pop\n      jump\t// out\n        /* \"#utility.yul\":24788:24867   */\n    tag_393:\n        /* \"#utility.yul\":24827:24834   */\n      0x00\n        /* \"#utility.yul\":24856:24861   */\n      dup2\n        /* \"#utility.yul\":24845:24861   */\n      swap1\n      pop\n        /* \"#utility.yul\":24788:24867   */\n      swap2\n      swap1\n      pop\n      jump\t// out\n        /* \"#utility.yul\":24873:25030   */\n    tag_394:\n        /* \"#utility.yul\":24978:25023   */\n      tag_612\n        /* \"#utility.yul\":24998:25022   */\n      tag_613\n        /* \"#utility.yul\":25016:25021   */\n      dup3\n        /* \"#utility.yul\":24998:25022   */\n      tag_329\n      jump\t// in\n    tag_613:\n        /* \"#utility.yul\":24978:25023   */\n      tag_393\n      jump\t// in\n    tag_612:\n        /* \"#utility.yul\":24973:24976   */\n      dup3\n        /* \"#utility.yul\":24966:25024   */\n      mstore\n        /* \"#utility.yul\":24873:25030   */\n      pop\n      pop\n      jump\t// out\n        /* \"#utility.yul\":25036:25574   */\n    tag_299:\n        /* \"#utility.yul\":25204:25207   */\n      0x00\n        /* \"#utility.yul\":25219:25294   */\n      tag_615\n        /* \"#utility.yul\":25290:25293   */\n      dup3\n        /* \"#utility.yul\":25281:25287   */\n      dup7\n        /* \"#utility.yul\":25219:25294   */\n      tag_392\n      jump\t// in\n    tag_615:\n        /* \"#utility.yul\":25319:25321   */\n      0x20\n        /* \"#utility.yul\":25314:25317   */\n      dup3\n        /* \"#utility.yul\":25310:25322   */\n      add\n        /* \"#utility.yul\":25303:25322   */\n      swap2\n      pop\n        /* \"#utility.yul\":25332:25407   */\n      tag_616\n        /* \"#utility.yul\":25403:25406   */\n      dup3\n        /* \"#utility.yul\":25394:25400   */\n      dup6\n        /* \"#utility.yul\":25332:25407   */\n      tag_394\n      jump\t// in\n    tag_616:\n        /* \"#utility.yul\":25432:25434   */\n      0x20\n        /* \"#utility.yul\":25427:25430   */\n      dup3\n        /* \"#utility.yul\":25423:25435   */\n      add\n        /* \"#utility.yul\":25416:25435   */\n      swap2\n      pop\n        /* \"#utility.yul\":25445:25520   */\n      tag_617\n        /* \"#utility.yul\":25516:25519   */\n      dup3\n        /* \"#utility.yul\":25507:25513   */\n      dup5\n        /* \"#utility.yul\":25445:25520   */\n      tag_394\n      jump\t// in\n    tag_617:\n        /* \"#utility.yul\":25545:25547   */\n      0x20\n        /* \"#utility.yul\":25540:25543   */\n      dup3\n        /* \"#utility.yul\":25536:25548   */\n      add\n        /* \"#utility.yul\":25529:25548   */\n      swap2\n      pop\n        /* \"#utility.yul\":25565:25568   */\n      dup2\n        /* \"#utility.yul\":25558:25568   */\n      swap1\n      pop\n        /* \"#utility.yul\":25036:25574   */\n      swap5\n      swap4\n      pop\n      pop\n      pop\n      pop\n      jump\t// out\n        /* \"#utility.yul\":25580:25756   */\n    tag_301:\n        /* \"#utility.yul\":25612:25613   */\n      0x00\n        /* \"#utility.yul\":25629:25649   */\n      tag_619\n        /* \"#utility.yul\":25647:25648   */\n      dup3\n        /* \"#utility.yul\":25629:25649   */\n      tag_329\n      jump\t// in\n    tag_619:\n        /* \"#utility.yul\":25624:25649   */\n      swap2\n      pop\n        /* \"#utility.yul\":25663:25683   */\n      tag_620\n        /* \"#utility.yul\":25681:25682   */\n      dup4\n        /* \"#utility.yul\":25663:25683   */\n      tag_329\n      jump\t// in\n    tag_620:\n        /* \"#utility.yul\":25658:25683   */\n      swap3\n      pop\n        /* \"#utility.yul\":25702:25703   */\n      dup3\n        /* \"#utility.yul\":25692:25727   */\n      tag_621\n      jumpi\n        /* \"#utility.yul\":25707:25725   */\n      tag_622\n      tag_385\n      jump\t// in\n    tag_622:\n        /* \"#utility.yul\":25692:25727   */\n    tag_621:\n        /* \"#utility.yul\":25748:25749   */\n      dup3\n        /* \"#utility.yul\":25745:25746   */\n      dup3\n        /* \"#utility.yul\":25741:25750   */\n      mod\n        /* \"#utility.yul\":25736:25750   */\n      swap1\n      pop\n        /* \"#utility.yul\":25580:25756   */\n      swap3\n      swap2\n      pop\n      pop\n      jump\t// out\n        /* \"#utility.yul\":25762:25942   */\n    tag_321:\n        /* \"#utility.yul\":25810:25887   */\n      0x4e487b7100000000000000000000000000000000000000000000000000000000\n        /* \"#utility.yul\":25807:25808   */\n      0x00\n        /* \"#utility.yul\":25800:25888   */\n      mstore\n        /* \"#utility.yul\":25907:25911   */\n      0x31\n        /* \"#utility.yul\":25904:25905   */\n      0x04\n        /* \"#utility.yul\":25897:25912   */\n      mstore\n        /* \"#utility.yul\":25931:25935   */\n      0x24\n        /* \"#utility.yul\":25928:25929   */\n      0x00\n        /* \"#utility.yul\":25921:25936   */\n      revert\n        /* \"#utility.yul\":25948:26113   */\n    tag_395:\n        /* \"#utility.yul\":26088:26105   */\n      0x4e6f2077696e6e657220666f756e640000000000000000000000000000000000\n        /* \"#utility.yul\":26084:26085   */\n      0x00\n        /* \"#utility.yul\":26076:26082   */\n      dup3\n        /* \"#utility.yul\":26072:26086   */\n      add\n        /* \"#utility.yul\":26065:26106   */\n      mstore\n        /* \"#utility.yul\":25948:26113   */\n      pop\n      jump\t// out\n        /* \"#utility.yul\":26119:26485   */\n    tag_396:\n        /* \"#utility.yul\":26261:26264   */\n      0x00\n        /* \"#utility.yul\":26282:26349   */\n      tag_626\n        /* \"#utility.yul\":26346:26348   */\n      0x0f\n        /* \"#utility.yul\":26341:26344   */\n      dup4\n        /* \"#utility.yul\":26282:26349   */\n      tag_361\n      jump\t// in\n    tag_626:\n        /* \"#utility.yul\":26275:26349   */\n      swap2\n      pop\n        /* \"#utility.yul\":26358:26451   */\n      tag_627\n        /* \"#utility.yul\":26447:26450   */\n      dup3\n        /* \"#utility.yul\":26358:26451   */\n      tag_395\n      jump\t// in\n    tag_627:\n        /* \"#utility.yul\":26476:26478   */\n      0x20\n        /* \"#utility.yul\":26471:26474   */\n      dup3\n        /* \"#utility.yul\":26467:26479   */\n      add\n        /* \"#utility.yul\":26460:26479   */\n      swap1\n      pop\n        /* \"#utility.yul\":26119:26485   */\n      swap2\n      swap1\n      pop\n      jump\t// out\n        /* \"#utility.yul\":26491:26910   */\n    tag_325:\n        /* \"#utility.yul\":26657:26661   */\n      0x00\n        /* \"#utility.yul\":26695:26697   */\n      0x20\n        /* \"#utility.yul\":26684:26693   */\n      dup3\n        /* \"#utility.yul\":26680:26698   */\n      add\n        /* \"#utility.yul\":26672:26698   */\n      swap1\n      pop\n        /* \"#utility.yul\":26744:26753   */\n      dup2\n        /* \"#utility.yul\":26738:26742   */\n      dup2\n        /* \"#utility.yul\":26734:26754   */\n      sub\n        /* \"#utility.yul\":26730:26731   */\n      0x00\n        /* \"#utility.yul\":26719:26728   */\n      dup4\n        /* \"#utility.yul\":26715:26732   */\n      add\n        /* \"#utility.yul\":26708:26755   */\n      mstore\n        /* \"#utility.yul\":26772:26903   */\n      tag_629\n        /* \"#utility.yul\":26898:26902   */\n      dup2\n        /* \"#utility.yul\":26772:26903   */\n      tag_396\n      jump\t// in\n    tag_629:\n        /* \"#utility.yul\":26764:26903   */\n      swap1\n      pop\n        /* \"#utility.yul\":26491:26910   */\n      swap2\n      swap1\n      pop\n      jump\t// out\n\n    auxdata: 0xa2646970667358221220e4cfa0bc1a68b68868fdc2a5ca57cb55ccf1c2781882a4a861798d345368954364736f6c634300081a0033\n}\n",
				"bytecode": {
					"linkReferences": {},
					"object": "608060405234801561000f575f80fd5b50604051612641380380612641833981810160405281019061003191906100cb565b335f806101000a81548173ffffffffffffffffffffffffffffffffffffffff021916908373ffffffffffffffffffffffffffffffffffffffff16021790555082600181905550816002819055508160058190555080600a8190555050505061011b565b5f80fd5b5f819050919050565b6100aa81610098565b81146100b4575f80fd5b50565b5f815190506100c5816100a1565b92915050565b5f805f606084860312156100e2576100e1610094565b5b5f6100ef868287016100b7565b9350506020610100868287016100b7565b9250506040610111868287016100b7565b9150509250925092565b612519806101285f395ff3fe60806040526004361061014e575f3560e01c8063719ce73e116100b5578063d1d06b2e1161006e578063d1d06b2e146104e7578063dd11247e1461050f578063e1d10d8514610539578063e499e79c14610563578063ee38db95146105a0578063fcbbc922146105b65761018e565b8063719ce73e146103c757806375964b55146103f157806384bd32641461042d57806387bb7ae014610469578063884bf67c146104935780638da5cb5b146104bd5761018e565b80633580404b116101075780633580404b146102c757806335c1d349146102f15780633cfa7e011461032d5780635a8acacc146103575780635aa68ac01461038157806367dd74ca146103ab5761018e565b80630356f67e146101cd57806306e8337f146101f75780631209b1f614610221578063159816501461024b5780631a647251146102735780632f357d121461029d5761018e565b3661018e577fbba0c0d409a9851877021792305bba31e09716fefe49175c172198ead2066de633346040516101849291906118e4565b60405180910390a1005b7fbba0c0d409a9851877021792305bba31e09716fefe49175c172198ead2066de633345f366040516101c39493929190611968565b60405180910390a1005b3480156101d8575f80fd5b506101e16105e0565b6040516101ee91906119a6565b60405180910390f35b348015610202575f80fd5b5061020b6105e9565b60405161021891906119a6565b60405180910390f35b34801561022c575f80fd5b506102356105f2565b60405161024291906119a6565b60405180910390f35b348015610256575f80fd5b50610271600480360381019061026c91906119ed565b6105f8565b005b34801561027e575f80fd5b5061028761070c565b60405161029491906119a6565b60405180910390f35b3480156102a8575f80fd5b506102b1610712565b6040516102be9190611b0b565b60405180910390f35b3480156102d2575f80fd5b506102db6107cc565b6040516102e89190611bd3565b60405180910390f35b3480156102fc575f80fd5b50610317600480360381019061031291906119ed565b610857565b6040516103249190611bf3565b60405180910390f35b348015610338575f80fd5b50610341610892565b60405161034e91906119a6565b60405180910390f35b348015610362575f80fd5b5061036b610898565b60405161037891906119a6565b60405180910390f35b34801561038c575f80fd5b506103956108a1565b6040516103a29190611bd3565b60405180910390f35b6103c560048036038101906103c091906119ed565b61092c565b005b3480156103d2575f80fd5b506103db610b71565b6040516103e891906119a6565b60405180910390f35b3480156103fc575f80fd5b50610417600480360381019061041291906119ed565b610b77565b6040516104249190611bf3565b60405180910390f35b348015610438575f80fd5b50610453600480360381019061044e9190611c36565b610bb2565b60405161046091906119a6565b60405180910390f35b348015610474575f80fd5b5061047d610bc7565b60405161048a91906119a6565b60405180910390f35b34801561049e575f80fd5b506104a7610bd0565b6040516104b491906119a6565b60405180910390f35b3480156104c8575f80fd5b506104d1610bd9565b6040516104de9190611c81565b60405180910390f35b3480156104f2575f80fd5b5061050d600480360381019061050891906119ed565b610bfc565b005b34801561051a575f80fd5b506105236113bf565b60405161053091906119a6565b60405180910390f35b348015610544575f80fd5b5061054d6113c5565b60405161055a91906119a6565b60405180910390f35b34801561056e575f80fd5b50610589600480360381019061058491906119ed565b611409565b604051610597929190611c9a565b60405180910390f35b3480156105ab575f80fd5b506105b4611457565b005b3480156105c1575f80fd5b506105ca6115af565b6040516105d791906119a6565b60405180910390f35b5f600454905090565b5f600254905090565b60015481565b5f8054906101000a900473ffffffffffffffffffffffffffffffffffffffff1673ffffffffffffffffffffffffffffffffffffffff163373ffffffffffffffffffffffffffffffffffffffff1614610685576040517f08c379a000000000000000000000000000000000000000000000000000000000815260040161067c90611d41565b60405180910390fd5b5f81116106c7576040517f08c379a00000000000000000000000000000000000000000000000000000000081526004016106be90611dcf565b60405180910390fd5b806001819055507f82a40b2eb2e166a9a513e909894042d026f115051ab5c019f766ba8b33c28f3f60015482604051610701929190611ded565b60405180910390a150565b60045481565b60606008805480602002602001604051908101604052809291908181526020015f905b828210156107c3578382905f5260205f2090600202016040518060400160405290815f82015f9054906101000a900473ffffffffffffffffffffffffffffffffffffffff1673ffffffffffffffffffffffffffffffffffffffff1673ffffffffffffffffffffffffffffffffffffffff16815260200160018201548152505081526020019060010190610735565b50505050905090565b6060600980548060200260200160405190810160405280929190818152602001828054801561084d57602002820191905f5260205f20905b815f9054906101000a900473ffffffffffffffffffffffffffffffffffffffff1673ffffffffffffffffffffffffffffffffffffffff1681526020019060010190808311610804575b5050505050905090565b60078181548110610866575f80fd5b905f5260205f20015f915054906101000a900473ffffffffffffffffffffffffffffffffffffffff1681565b60055481565b5f600554905090565b6060600780548060200260200160405190810160405280929190818152602001828054801561092257602002820191905f5260205f20905b815f9054906101000a900473ffffffffffffffffffffffffffffffffffffffff1673ffffffffffffffffffffffffffffffffffffffff16815260200190600101908083116108d9575b5050505050905090565b8060015461093a9190611e41565b34101561097c576040517f08c379a000000000000000000000000000000000000000000000000000000000815260040161097390611ecc565b60405180910390fd5b6005548111156109c1576040517f08c379a00000000000000000000000000000000000000000000000000000000081526004016109b890611f34565b60405180910390fd5b5f60065f3373ffffffffffffffffffffffffffffffffffffffff1673ffffffffffffffffffffffffffffffffffffffff1681526020019081526020015f205403610a6657600733908060018154018082558091505060019003905f5260205f20015f9091909190916101000a81548173ffffffffffffffffffffffffffffffffffffffff021916908373ffffffffffffffffffffffffffffffffffffffff1602179055505b8060065f3373ffffffffffffffffffffffffffffffffffffffff1673ffffffffffffffffffffffffffffffffffffffff1681526020019081526020015f205f828254610ab29190611f52565b925050819055508060045f828254610aca9190611f52565b9250508190555080600554610adf9190611f85565b6005819055503460035f828254610af69190611f52565b925050819055507f0bba69e9c544bf16df5732642e0d0aff01e2b36b054552413a21a05035fbb4623382604051610b2e929190611c9a565b60405180910390a17fbe75abfbfe86f7db09dd6ac4babfba470b3c3bd59aecede848fdeaa7a4b8a6df6007604051610b669190612098565b60405180910390a150565b60035481565b60098181548110610b86575f80fd5b905f5260205f20015f915054906101000a900473ffffffffffffffffffffffffffffffffffffffff1681565b6006602052805f5260405f205f915090505481565b5f600154905090565b5f600354905090565b5f8054906101000a900473ffffffffffffffffffffffffffffffffffffffff1681565b5f8054906101000a900473ffffffffffffffffffffffffffffffffffffffff1673ffffffffffffffffffffffffffffffffffffffff163373ffffffffffffffffffffffffffffffffffffffff1614610c89576040517f08c379a0000000000000000000000000000000000000000000000000000000008152600401610c8090611d41565b60405180910390fd5b5f8111610ccb576040517f08c379a0000000000000000000000000000000000000000000000000000000008152600401610cc290612102565b60405180910390fd5b600780549050811115610d13576040517f08c379a0000000000000000000000000000000000000000000000000000000008152600401610d0a906121b6565b60405180910390fd5b806004541015610d58576040517f08c379a0000000000000000000000000000000000000000000000000000000008152600401610d4f9061221e565b60405180910390fd5b5f8167ffffffffffffffff811115610d7357610d7261223c565b5b604051908082528060200260200182016040528015610da15781602001602082028036833780820191505090505b5090505f6064605a600354610db69190611e41565b610dc09190612296565b90505f8382610dcf9190612296565b90505f5b8481101561136957610de36115b5565b848281518110610df657610df56122c6565b5b602002602001019073ffffffffffffffffffffffffffffffffffffffff16908173ffffffffffffffffffffffffffffffffffffffff16815250505f805b600880549050811015610f1e57858381518110610e5357610e526122c6565b5b602002602001015173ffffffffffffffffffffffffffffffffffffffff1660088281548110610e8557610e846122c6565b5b905f5260205f2090600202015f015f9054906101000a900473ffffffffffffffffffffffffffffffffffffffff1673ffffffffffffffffffffffffffffffffffffffff1603610f1157600160088281548110610ee457610ee36122c6565b5b905f5260205f2090600202016001015f828254610f019190611f52565b9250508190555060019150610f1e565b8080600101915050610e33565b5080610fe35760086040518060400160405280878581518110610f4457610f436122c6565b5b602002602001015173ffffffffffffffffffffffffffffffffffffffff1681526020016001815250908060018154018082558091505060019003905f5260205f2090600202015f909190919091505f820151815f015f6101000a81548173ffffffffffffffffffffffffffffffffffffffff021916908373ffffffffffffffffffffffffffffffffffffffff1602179055506020820151816001015550505b600a5460098054905010611145575f5b60016009805490506110059190611f85565b8110156110ba57600960018261101b9190611f52565b8154811061102c5761102b6122c6565b5b905f5260205f20015f9054906101000a900473ffffffffffffffffffffffffffffffffffffffff1660098281548110611068576110676122c6565b5b905f5260205f20015f6101000a81548173ffffffffffffffffffffffffffffffffffffffff021916908373ffffffffffffffffffffffffffffffffffffffff1602179055508080600101915050610ff3565b508482815181106110ce576110cd6122c6565b5b6020026020010151600960016009805490506110ea9190611f85565b815481106110fb576110fa6122c6565b5b905f5260205f20015f6101000a81548173ffffffffffffffffffffffffffffffffffffffff021916908373ffffffffffffffffffffffffffffffffffffffff1602179055506111c0565b600985838151811061115a576111596122c6565b5b6020026020010151908060018154018082558091505060019003905f5260205f20015f9091909190916101000a81548173ffffffffffffffffffffffffffffffffffffffff021916908373ffffffffffffffffffffffffffffffffffffffff1602179055505b7fe60b844d6fcf97a8804144bf76f323d7f9e4f62a9441a41c3ae50f47ae00ec178583815181106111f4576111f36122c6565b5b6020026020010151600860016008805490506112109190611f85565b81548110611221576112206122c6565b5b905f5260205f2090600202016001015460405161123f929190611c9a565b60405180910390a17fd35e602b55017e45db8b6df7945c1e0bc479d25b1075d87e2e06402a3625cb0085838151811061127b5761127a6122c6565b5b60200260200101516040516112909190611bf3565b60405180910390a15f8583815181106112ac576112ab6122c6565b5b602002602001015173ffffffffffffffffffffffffffffffffffffffff16846040516112d79061231d565b5f6040518083038185875af1925050503d805f8114611311576040519150601f19603f3d011682016040523d82523d5f602084013e611316565b606091505b505090508061135a576040517f08c379a00000000000000000000000000000000000000000000000000000000081526004016113519061237b565b60405180910390fd5b50508080600101915050610dd3565b508160035f82825461137b9190611f85565b925050819055507f01e26fd9468170c075e6afc90d001d0e84ba9f84a6816461d03d2a4e7f6aa7de836040516113b19190611bd3565b60405180910390a150505050565b60025481565b5f60065f3373ffffffffffffffffffffffffffffffffffffffff1673ffffffffffffffffffffffffffffffffffffffff1681526020019081526020015f2054905090565b60088181548110611418575f80fd5b905f5260205f2090600202015f91509050805f015f9054906101000a900473ffffffffffffffffffffffffffffffffffffffff16908060010154905082565b5f8054906101000a900473ffffffffffffffffffffffffffffffffffffffff1673ffffffffffffffffffffffffffffffffffffffff163373ffffffffffffffffffffffffffffffffffffffff16146114e4576040517f08c379a00000000000000000000000000000000000000000000000000000000081526004016114db90611d41565b60405180910390fd5b5f805f9054906101000a900473ffffffffffffffffffffffffffffffffffffffff1673ffffffffffffffffffffffffffffffffffffffff16476040516115299061231d565b5f6040518083038185875af1925050503d805f8114611563576040519150601f19603f3d011682016040523d82523d5f602084013e611568565b606091505b50509050806115ac576040517f08c379a00000000000000000000000000000000000000000000000000000000081526004016115a39061237b565b60405180910390fd5b50565b600a5481565b5f806001436115c49190611f85565b40426002546040516020016115db939291906123e2565b604051602081830303815290604052805190602001205f1c90505f60045482611604919061241e565b90505f805b60078054905081101561181b575f6007828154811061162b5761162a6122c6565b5b905f5260205f20015f9054906101000a900473ffffffffffffffffffffffffffffffffffffffff1690505f60065f8373ffffffffffffffffffffffffffffffffffffffff1673ffffffffffffffffffffffffffffffffffffffff1681526020019081526020015f205490508385101580156116b0575080846116ad9190611f52565b85105b156117fe5760065f8373ffffffffffffffffffffffffffffffffffffffff1673ffffffffffffffffffffffffffffffffffffffff1681526020019081526020015f20546004546117009190611f85565b6004819055506007600160078054905061171a9190611f85565b8154811061172b5761172a6122c6565b5b905f5260205f20015f9054906101000a900473ffffffffffffffffffffffffffffffffffffffff1660078481548110611767576117666122c6565b5b905f5260205f20015f6101000a81548173ffffffffffffffffffffffffffffffffffffffff021916908373ffffffffffffffffffffffffffffffffffffffff16021790555060078054806117be576117bd61244e565b5b600190038181905f5260205f20015f6101000a81549073ffffffffffffffffffffffffffffffffffffffff02191690559055819650505050505050611857565b808461180a9190611f52565b935050508080600101915050611609565b506040517f08c379a000000000000000000000000000000000000000000000000000000000815260040161184e906124c5565b60405180910390fd5b90565b5f73ffffffffffffffffffffffffffffffffffffffff82169050919050565b5f6118838261185a565b9050919050565b61189381611879565b82525050565b5f819050919050565b6118ab81611899565b82525050565b5f82825260208201905092915050565b50565b5f6118cf5f836118b1565b91506118da826118c1565b5f82019050919050565b5f6060820190506118f75f83018561188a565b61190460208301846118a2565b8181036040830152611915816118c4565b90509392505050565b828183375f83830152505050565b5f601f19601f8301169050919050565b5f61194783856118b1565b935061195483858461191e565b61195d8361192c565b840190509392505050565b5f60608201905061197b5f83018761188a565b61198860208301866118a2565b818103604083015261199b81848661193c565b905095945050505050565b5f6020820190506119b95f8301846118a2565b92915050565b5f80fd5b6119cc81611899565b81146119d6575f80fd5b50565b5f813590506119e7816119c3565b92915050565b5f60208284031215611a0257611a016119bf565b5b5f611a0f848285016119d9565b91505092915050565b5f81519050919050565b5f82825260208201905092915050565b5f819050602082019050919050565b611a4a81611879565b82525050565b611a5981611899565b82525050565b604082015f820151611a735f850182611a41565b506020820151611a866020850182611a50565b50505050565b5f611a978383611a5f565b60408301905092915050565b5f602082019050919050565b5f611ab982611a18565b611ac38185611a22565b9350611ace83611a32565b805f5b83811015611afe578151611ae58882611a8c565b9750611af083611aa3565b925050600181019050611ad1565b5085935050505092915050565b5f6020820190508181035f830152611b238184611aaf565b905092915050565b5f81519050919050565b5f82825260208201905092915050565b5f819050602082019050919050565b5f611b5f8383611a41565b60208301905092915050565b5f602082019050919050565b5f611b8182611b2b565b611b8b8185611b35565b9350611b9683611b45565b805f5b83811015611bc6578151611bad8882611b54565b9750611bb883611b6b565b925050600181019050611b99565b5085935050505092915050565b5f6020820190508181035f830152611beb8184611b77565b905092915050565b5f602082019050611c065f83018461188a565b92915050565b611c1581611879565b8114611c1f575f80fd5b50565b5f81359050611c3081611c0c565b92915050565b5f60208284031215611c4b57611c4a6119bf565b5b5f611c5884828501611c22565b91505092915050565b5f611c6b8261185a565b9050919050565b611c7b81611c61565b82525050565b5f602082019050611c945f830184611c72565b92915050565b5f604082019050611cad5f83018561188a565b611cba60208301846118a2565b9392505050565b5f82825260208201905092915050565b7f4f6e6c79206f776e65722063616e2063616c6c20746869732066756e6374696f5f8201527f6e00000000000000000000000000000000000000000000000000000000000000602082015250565b5f611d2b602183611cc1565b9150611d3682611cd1565b604082019050919050565b5f6020820190508181035f830152611d5881611d1f565b9050919050565b7f496e76616c6964204e756d6265722c2070726963652063616e74206265206c655f8201527f7373206f7220657175616c207468616e20300000000000000000000000000000602082015250565b5f611db9603283611cc1565b9150611dc482611d5f565b604082019050919050565b5f6020820190508181035f830152611de681611dad565b9050919050565b5f604082019050611e005f8301856118a2565b611e0d60208301846118a2565b9392505050565b7f4e487b71000000000000000000000000000000000000000000000000000000005f52601160045260245ffd5b5f611e4b82611899565b9150611e5683611899565b9250828202611e6481611899565b91508282048414831517611e7b57611e7a611e14565b5b5092915050565b7f496e73756666696369656e742066756e647320666f72207469636b65740000005f82015250565b5f611eb6601d83611cc1565b9150611ec182611e82565b602082019050919050565b5f6020820190508181035f830152611ee381611eaa565b9050919050565b7f496e73756666696369656e74207469636b65747320666f722073616c650000005f82015250565b5f611f1e601d83611cc1565b9150611f2982611eea565b602082019050919050565b5f6020820190508181035f830152611f4b81611f12565b9050919050565b5f611f5c82611899565b9150611f6783611899565b9250828201905080821115611f7f57611f7e611e14565b5b92915050565b5f611f8f82611899565b9150611f9a83611899565b9250828203905081811115611fb257611fb1611e14565b5b92915050565b5f81549050919050565b5f819050815f5260205f209050919050565b5f815f1c9050919050565b5f73ffffffffffffffffffffffffffffffffffffffff82169050919050565b5f61201061200b83611fd4565b611fdf565b9050919050565b5f6120228254611ffe565b9050919050565b5f600182019050919050565b5f61203f82611fb8565b6120498185611b35565b935061205483611fc2565b805f5b8381101561208b5761206882612017565b6120728882611b54565b975061207d83612029565b925050600181019050612057565b5085935050505092915050565b5f6020820190508181035f8301526120b08184612035565b905092915050565b7f4d7573742064726177206174206c65617374206f6e652077696e6e65720000005f82015250565b5f6120ec601d83611cc1565b91506120f7826120b8565b602082019050919050565b5f6020820190508181035f830152612119816120e0565b9050919050565b7f4e6f7420656e6f756768207061727469636970616e74732c206e756d626572735f8201527f206f662077696e6e6572732063616e74206265206c6172676572207468616e2060208201527f6e756d62657273206f66207061727469636970616e7473000000000000000000604082015250565b5f6121a0605783611cc1565b91506121ab82612120565b606082019050919050565b5f6020820190508181035f8301526121cd81612194565b9050919050565b7f546f6f206d616e792077696e6e657273000000000000000000000000000000005f82015250565b5f612208601083611cc1565b9150612213826121d4565b602082019050919050565b5f6020820190508181035f830152612235816121fc565b9050919050565b7f4e487b71000000000000000000000000000000000000000000000000000000005f52604160045260245ffd5b7f4e487b71000000000000000000000000000000000000000000000000000000005f52601260045260245ffd5b5f6122a082611899565b91506122ab83611899565b9250826122bb576122ba612269565b5b828204905092915050565b7f4e487b71000000000000000000000000000000000000000000000000000000005f52603260045260245ffd5b5f81905092915050565b5f6123085f836122f3565b9150612313826118c1565b5f82019050919050565b5f612327826122fd565b9150819050919050565b7f4661696c656420746f2073656e642045746865720000000000000000000000005f82015250565b5f612365601483611cc1565b915061237082612331565b602082019050919050565b5f6020820190508181035f83015261239281612359565b9050919050565b5f819050919050565b5f819050919050565b6123bc6123b782612399565b6123a2565b82525050565b5f819050919050565b6123dc6123d782611899565b6123c2565b82525050565b5f6123ed82866123ab565b6020820191506123fd82856123cb565b60208201915061240d82846123cb565b602082019150819050949350505050565b5f61242882611899565b915061243383611899565b92508261244357612442612269565b5b828206905092915050565b7f4e487b71000000000000000000000000000000000000000000000000000000005f52603160045260245ffd5b7f4e6f2077696e6e657220666f756e6400000000000000000000000000000000005f82015250565b5f6124af600f83611cc1565b91506124ba8261247b565b602082019050919050565b5f6020820190508181035f8301526124dc816124a3565b905091905056fea2646970667358221220e4cfa0bc1a68b68868fdc2a5ca57cb55ccf1c2781882a4a861798d345368954364736f6c634300081a0033",
					"opcodes": "PUSH1 0x80 PUSH1 0x40 MSTORE CALLVALUE DUP1 ISZERO PUSH2 0xF JUMPI PUSH0 DUP1 REVERT JUMPDEST POP PUSH1 0x40 MLOAD PUSH2 0x2641 CODESIZE SUB DUP1 PUSH2 0x2641 DUP4 CODECOPY DUP2 DUP2 ADD PUSH1 0x40 MSTORE DUP2 ADD SWAP1 PUSH2 0x31 SWAP2 SWAP1 PUSH2 0xCB JUMP JUMPDEST CALLER PUSH0 DUP1 PUSH2 0x100 EXP DUP2 SLOAD DUP2 PUSH20 0xFFFFFFFFFFFFFFFFFFFFFFFFFFFFFFFFFFFFFFFF MUL NOT AND SWAP1 DUP4 PUSH20 0xFFFFFFFFFFFFFFFFFFFFFFFFFFFFFFFFFFFFFFFF AND MUL OR SWAP1 SSTORE POP DUP3 PUSH1 0x1 DUP2 SWAP1 SSTORE POP DUP2 PUSH1 0x2 DUP2 SWAP1 SSTORE POP DUP2 PUSH1 0x5 DUP2 SWAP1 SSTORE POP DUP1 PUSH1 0xA DUP2 SWAP1 SSTORE POP POP POP POP PUSH2 0x11B JUMP JUMPDEST PUSH0 DUP1 REVERT JUMPDEST PUSH0 DUP2 SWAP1 POP SWAP2 SWAP1 POP JUMP JUMPDEST PUSH2 0xAA DUP2 PUSH2 0x98 JUMP JUMPDEST DUP2 EQ PUSH2 0xB4 JUMPI PUSH0 DUP1 REVERT JUMPDEST POP JUMP JUMPDEST PUSH0 DUP2 MLOAD SWAP1 POP PUSH2 0xC5 DUP2 PUSH2 0xA1 JUMP JUMPDEST SWAP3 SWAP2 POP POP JUMP JUMPDEST PUSH0 DUP1 PUSH0 PUSH1 0x60 DUP5 DUP7 SUB SLT ISZERO PUSH2 0xE2 JUMPI PUSH2 0xE1 PUSH2 0x94 JUMP JUMPDEST JUMPDEST PUSH0 PUSH2 0xEF DUP7 DUP3 DUP8 ADD PUSH2 0xB7 JUMP JUMPDEST SWAP4 POP POP PUSH1 0x20 PUSH2 0x100 DUP7 DUP3 DUP8 ADD PUSH2 0xB7 JUMP JUMPDEST SWAP3 POP POP PUSH1 0x40 PUSH2 0x111 DUP7 DUP3 DUP8 ADD PUSH2 0xB7 JUMP JUMPDEST SWAP2 POP POP SWAP3 POP SWAP3 POP SWAP3 JUMP JUMPDEST PUSH2 0x2519 DUP1 PUSH2 0x128 PUSH0 CODECOPY PUSH0 RETURN INVALID PUSH1 0x80 PUSH1 0x40 MSTORE PUSH1 0x4 CALLDATASIZE LT PUSH2 0x14E JUMPI PUSH0 CALLDATALOAD PUSH1 0xE0 SHR DUP1 PUSH4 0x719CE73E GT PUSH2 0xB5 JUMPI DUP1 PUSH4 0xD1D06B2E GT PUSH2 0x6E JUMPI DUP1 PUSH4 0xD1D06B2E EQ PUSH2 0x4E7 JUMPI DUP1 PUSH4 0xDD11247E EQ PUSH2 0x50F JUMPI DUP1 PUSH4 0xE1D10D85 EQ PUSH2 0x539 JUMPI DUP1 PUSH4 0xE499E79C EQ PUSH2 0x563 JUMPI DUP1 PUSH4 0xEE38DB95 EQ PUSH2 0x5A0 JUMPI DUP1 PUSH4 0xFCBBC922 EQ PUSH2 0x5B6 JUMPI PUSH2 0x18E JUMP JUMPDEST DUP1 PUSH4 0x719CE73E EQ PUSH2 0x3C7 JUMPI DUP1 PUSH4 0x75964B55 EQ PUSH2 0x3F1 JUMPI DUP1 PUSH4 0x84BD3264 EQ PUSH2 0x42D JUMPI DUP1 PUSH4 0x87BB7AE0 EQ PUSH2 0x469 JUMPI DUP1 PUSH4 0x884BF67C EQ PUSH2 0x493 JUMPI DUP1 PUSH4 0x8DA5CB5B EQ PUSH2 0x4BD JUMPI PUSH2 0x18E JUMP JUMPDEST DUP1 PUSH4 0x3580404B GT PUSH2 0x107 JUMPI DUP1 PUSH4 0x3580404B EQ PUSH2 0x2C7 JUMPI DUP1 PUSH4 0x35C1D349 EQ PUSH2 0x2F1 JUMPI DUP1 PUSH4 0x3CFA7E01 EQ PUSH2 0x32D JUMPI DUP1 PUSH4 0x5A8ACACC EQ PUSH2 0x357 JUMPI DUP1 PUSH4 0x5AA68AC0 EQ PUSH2 0x381 JUMPI DUP1 PUSH4 0x67DD74CA EQ PUSH2 0x3AB JUMPI PUSH2 0x18E JUMP JUMPDEST DUP1 PUSH4 0x356F67E EQ PUSH2 0x1CD JUMPI DUP1 PUSH4 0x6E8337F EQ PUSH2 0x1F7 JUMPI DUP1 PUSH4 0x1209B1F6 EQ PUSH2 0x221 JUMPI DUP1 PUSH4 0x15981650 EQ PUSH2 0x24B JUMPI DUP1 PUSH4 0x1A647251 EQ PUSH2 0x273 JUMPI DUP1 PUSH4 0x2F357D12 EQ PUSH2 0x29D JUMPI PUSH2 0x18E JUMP JUMPDEST CALLDATASIZE PUSH2 0x18E JUMPI PUSH32 0xBBA0C0D409A9851877021792305BBA31E09716FEFE49175C172198EAD2066DE6 CALLER CALLVALUE PUSH1 0x40 MLOAD PUSH2 0x184 SWAP3 SWAP2 SWAP1 PUSH2 0x18E4 JUMP JUMPDEST PUSH1 0x40 MLOAD DUP1 SWAP2 SUB SWAP1 LOG1 STOP JUMPDEST PUSH32 0xBBA0C0D409A9851877021792305BBA31E09716FEFE49175C172198EAD2066DE6 CALLER CALLVALUE PUSH0 CALLDATASIZE PUSH1 0x40 MLOAD PUSH2 0x1C3 SWAP5 SWAP4 SWAP3 SWAP2 SWAP1 PUSH2 0x1968 JUMP JUMPDEST PUSH1 0x40 MLOAD DUP1 SWAP2 SUB SWAP1 LOG1 STOP JUMPDEST CALLVALUE DUP1 ISZERO PUSH2 0x1D8 JUMPI PUSH0 DUP1 REVERT JUMPDEST POP PUSH2 0x1E1 PUSH2 0x5E0 JUMP JUMPDEST PUSH1 0x40 MLOAD PUSH2 0x1EE SWAP2 SWAP1 PUSH2 0x19A6 JUMP JUMPDEST PUSH1 0x40 MLOAD DUP1 SWAP2 SUB SWAP1 RETURN JUMPDEST CALLVALUE DUP1 ISZERO PUSH2 0x202 JUMPI PUSH0 DUP1 REVERT JUMPDEST POP PUSH2 0x20B PUSH2 0x5E9 JUMP JUMPDEST PUSH1 0x40 MLOAD PUSH2 0x218 SWAP2 SWAP1 PUSH2 0x19A6 JUMP JUMPDEST PUSH1 0x40 MLOAD DUP1 SWAP2 SUB SWAP1 RETURN JUMPDEST CALLVALUE DUP1 ISZERO PUSH2 0x22C JUMPI PUSH0 DUP1 REVERT JUMPDEST POP PUSH2 0x235 PUSH2 0x5F2 JUMP JUMPDEST PUSH1 0x40 MLOAD PUSH2 0x242 SWAP2 SWAP1 PUSH2 0x19A6 JUMP JUMPDEST PUSH1 0x40 MLOAD DUP1 SWAP2 SUB SWAP1 RETURN JUMPDEST CALLVALUE DUP1 ISZERO PUSH2 0x256 JUMPI PUSH0 DUP1 REVERT JUMPDEST POP PUSH2 0x271 PUSH1 0x4 DUP1 CALLDATASIZE SUB DUP2 ADD SWAP1 PUSH2 0x26C SWAP2 SWAP1 PUSH2 0x19ED JUMP JUMPDEST PUSH2 0x5F8 JUMP JUMPDEST STOP JUMPDEST CALLVALUE DUP1 ISZERO PUSH2 0x27E JUMPI PUSH0 DUP1 REVERT JUMPDEST POP PUSH2 0x287 PUSH2 0x70C JUMP JUMPDEST PUSH1 0x40 MLOAD PUSH2 0x294 SWAP2 SWAP1 PUSH2 0x19A6 JUMP JUMPDEST PUSH1 0x40 MLOAD DUP1 SWAP2 SUB SWAP1 RETURN JUMPDEST CALLVALUE DUP1 ISZERO PUSH2 0x2A8 JUMPI PUSH0 DUP1 REVERT JUMPDEST POP PUSH2 0x2B1 PUSH2 0x712 JUMP JUMPDEST PUSH1 0x40 MLOAD PUSH2 0x2BE SWAP2 SWAP1 PUSH2 0x1B0B JUMP JUMPDEST PUSH1 0x40 MLOAD DUP1 SWAP2 SUB SWAP1 RETURN JUMPDEST CALLVALUE DUP1 ISZERO PUSH2 0x2D2 JUMPI PUSH0 DUP1 REVERT JUMPDEST POP PUSH2 0x2DB PUSH2 0x7CC JUMP JUMPDEST PUSH1 0x40 MLOAD PUSH2 0x2E8 SWAP2 SWAP1 PUSH2 0x1BD3 JUMP JUMPDEST PUSH1 0x40 MLOAD DUP1 SWAP2 SUB SWAP1 RETURN JUMPDEST CALLVALUE DUP1 ISZERO PUSH2 0x2FC JUMPI PUSH0 DUP1 REVERT JUMPDEST POP PUSH2 0x317 PUSH1 0x4 DUP1 CALLDATASIZE SUB DUP2 ADD SWAP1 PUSH2 0x312 SWAP2 SWAP1 PUSH2 0x19ED JUMP JUMPDEST PUSH2 0x857 JUMP JUMPDEST PUSH1 0x40 MLOAD PUSH2 0x324 SWAP2 SWAP1 PUSH2 0x1BF3 JUMP JUMPDEST PUSH1 0x40 MLOAD DUP1 SWAP2 SUB SWAP1 RETURN JUMPDEST CALLVALUE DUP1 ISZERO PUSH2 0x338 JUMPI PUSH0 DUP1 REVERT JUMPDEST POP PUSH2 0x341 PUSH2 0x892 JUMP JUMPDEST PUSH1 0x40 MLOAD PUSH2 0x34E SWAP2 SWAP1 PUSH2 0x19A6 JUMP JUMPDEST PUSH1 0x40 MLOAD DUP1 SWAP2 SUB SWAP1 RETURN JUMPDEST CALLVALUE DUP1 ISZERO PUSH2 0x362 JUMPI PUSH0 DUP1 REVERT JUMPDEST POP PUSH2 0x36B PUSH2 0x898 JUMP JUMPDEST PUSH1 0x40 MLOAD PUSH2 0x378 SWAP2 SWAP1 PUSH2 0x19A6 JUMP JUMPDEST PUSH1 0x40 MLOAD DUP1 SWAP2 SUB SWAP1 RETURN JUMPDEST CALLVALUE DUP1 ISZERO PUSH2 0x38C JUMPI PUSH0 DUP1 REVERT JUMPDEST POP PUSH2 0x395 PUSH2 0x8A1 JUMP JUMPDEST PUSH1 0x40 MLOAD PUSH2 0x3A2 SWAP2 SWAP1 PUSH2 0x1BD3 JUMP JUMPDEST PUSH1 0x40 MLOAD DUP1 SWAP2 SUB SWAP1 RETURN JUMPDEST PUSH2 0x3C5 PUSH1 0x4 DUP1 CALLDATASIZE SUB DUP2 ADD SWAP1 PUSH2 0x3C0 SWAP2 SWAP1 PUSH2 0x19ED JUMP JUMPDEST PUSH2 0x92C JUMP JUMPDEST STOP JUMPDEST CALLVALUE DUP1 ISZERO PUSH2 0x3D2 JUMPI PUSH0 DUP1 REVERT JUMPDEST POP PUSH2 0x3DB PUSH2 0xB71 JUMP JUMPDEST PUSH1 0x40 MLOAD PUSH2 0x3E8 SWAP2 SWAP1 PUSH2 0x19A6 JUMP JUMPDEST PUSH1 0x40 MLOAD DUP1 SWAP2 SUB SWAP1 RETURN JUMPDEST CALLVALUE DUP1 ISZERO PUSH2 0x3FC JUMPI PUSH0 DUP1 REVERT JUMPDEST POP PUSH2 0x417 PUSH1 0x4 DUP1 CALLDATASIZE SUB DUP2 ADD SWAP1 PUSH2 0x412 SWAP2 SWAP1 PUSH2 0x19ED JUMP JUMPDEST PUSH2 0xB77 JUMP JUMPDEST PUSH1 0x40 MLOAD PUSH2 0x424 SWAP2 SWAP1 PUSH2 0x1BF3 JUMP JUMPDEST PUSH1 0x40 MLOAD DUP1 SWAP2 SUB SWAP1 RETURN JUMPDEST CALLVALUE DUP1 ISZERO PUSH2 0x438 JUMPI PUSH0 DUP1 REVERT JUMPDEST POP PUSH2 0x453 PUSH1 0x4 DUP1 CALLDATASIZE SUB DUP2 ADD SWAP1 PUSH2 0x44E SWAP2 SWAP1 PUSH2 0x1C36 JUMP JUMPDEST PUSH2 0xBB2 JUMP JUMPDEST PUSH1 0x40 MLOAD PUSH2 0x460 SWAP2 SWAP1 PUSH2 0x19A6 JUMP JUMPDEST PUSH1 0x40 MLOAD DUP1 SWAP2 SUB SWAP1 RETURN JUMPDEST CALLVALUE DUP1 ISZERO PUSH2 0x474 JUMPI PUSH0 DUP1 REVERT JUMPDEST POP PUSH2 0x47D PUSH2 0xBC7 JUMP JUMPDEST PUSH1 0x40 MLOAD PUSH2 0x48A SWAP2 SWAP1 PUSH2 0x19A6 JUMP JUMPDEST PUSH1 0x40 MLOAD DUP1 SWAP2 SUB SWAP1 RETURN JUMPDEST CALLVALUE DUP1 ISZERO PUSH2 0x49E JUMPI PUSH0 DUP1 REVERT JUMPDEST POP PUSH2 0x4A7 PUSH2 0xBD0 JUMP JUMPDEST PUSH1 0x40 MLOAD PUSH2 0x4B4 SWAP2 SWAP1 PUSH2 0x19A6 JUMP JUMPDEST PUSH1 0x40 MLOAD DUP1 SWAP2 SUB SWAP1 RETURN JUMPDEST CALLVALUE DUP1 ISZERO PUSH2 0x4C8 JUMPI PUSH0 DUP1 REVERT JUMPDEST POP PUSH2 0x4D1 PUSH2 0xBD9 JUMP JUMPDEST PUSH1 0x40 MLOAD PUSH2 0x4DE SWAP2 SWAP1 PUSH2 0x1C81 JUMP JUMPDEST PUSH1 0x40 MLOAD DUP1 SWAP2 SUB SWAP1 RETURN JUMPDEST CALLVALUE DUP1 ISZERO PUSH2 0x4F2 JUMPI PUSH0 DUP1 REVERT JUMPDEST POP PUSH2 0x50D PUSH1 0x4 DUP1 CALLDATASIZE SUB DUP2 ADD SWAP1 PUSH2 0x508 SWAP2 SWAP1 PUSH2 0x19ED JUMP JUMPDEST PUSH2 0xBFC JUMP JUMPDEST STOP JUMPDEST CALLVALUE DUP1 ISZERO PUSH2 0x51A JUMPI PUSH0 DUP1 REVERT JUMPDEST POP PUSH2 0x523 PUSH2 0x13BF JUMP JUMPDEST PUSH1 0x40 MLOAD PUSH2 0x530 SWAP2 SWAP1 PUSH2 0x19A6 JUMP JUMPDEST PUSH1 0x40 MLOAD DUP1 SWAP2 SUB SWAP1 RETURN JUMPDEST CALLVALUE DUP1 ISZERO PUSH2 0x544 JUMPI PUSH0 DUP1 REVERT JUMPDEST POP PUSH2 0x54D PUSH2 0x13C5 JUMP JUMPDEST PUSH1 0x40 MLOAD PUSH2 0x55A SWAP2 SWAP1 PUSH2 0x19A6 JUMP JUMPDEST PUSH1 0x40 MLOAD DUP1 SWAP2 SUB SWAP1 RETURN JUMPDEST CALLVALUE DUP1 ISZERO PUSH2 0x56E JUMPI PUSH0 DUP1 REVERT JUMPDEST POP PUSH2 0x589 PUSH1 0x4 DUP1 CALLDATASIZE SUB DUP2 ADD SWAP1 PUSH2 0x584 SWAP2 SWAP1 PUSH2 0x19ED JUMP JUMPDEST PUSH2 0x1409 JUMP JUMPDEST PUSH1 0x40 MLOAD PUSH2 0x597 SWAP3 SWAP2 SWAP1 PUSH2 0x1C9A JUMP JUMPDEST PUSH1 0x40 MLOAD DUP1 SWAP2 SUB SWAP1 RETURN JUMPDEST CALLVALUE DUP1 ISZERO PUSH2 0x5AB JUMPI PUSH0 DUP1 REVERT JUMPDEST POP PUSH2 0x5B4 PUSH2 0x1457 JUMP JUMPDEST STOP JUMPDEST CALLVALUE DUP1 ISZERO PUSH2 0x5C1 JUMPI PUSH0 DUP1 REVERT JUMPDEST POP PUSH2 0x5CA PUSH2 0x15AF JUMP JUMPDEST PUSH1 0x40 MLOAD PUSH2 0x5D7 SWAP2 SWAP1 PUSH2 0x19A6 JUMP JUMPDEST PUSH1 0x40 MLOAD DUP1 SWAP2 SUB SWAP1 RETURN JUMPDEST PUSH0 PUSH1 0x4 SLOAD SWAP1 POP SWAP1 JUMP JUMPDEST PUSH0 PUSH1 0x2 SLOAD SWAP1 POP SWAP1 JUMP JUMPDEST PUSH1 0x1 SLOAD DUP2 JUMP JUMPDEST PUSH0 DUP1 SLOAD SWAP1 PUSH2 0x100 EXP SWAP1 DIV PUSH20 0xFFFFFFFFFFFFFFFFFFFFFFFFFFFFFFFFFFFFFFFF AND PUSH20 0xFFFFFFFFFFFFFFFFFFFFFFFFFFFFFFFFFFFFFFFF AND CALLER PUSH20 0xFFFFFFFFFFFFFFFFFFFFFFFFFFFFFFFFFFFFFFFF AND EQ PUSH2 0x685 JUMPI PUSH1 0x40 MLOAD PUSH32 0x8C379A000000000000000000000000000000000000000000000000000000000 DUP2 MSTORE PUSH1 0x4 ADD PUSH2 0x67C SWAP1 PUSH2 0x1D41 JUMP JUMPDEST PUSH1 0x40 MLOAD DUP1 SWAP2 SUB SWAP1 REVERT JUMPDEST PUSH0 DUP2 GT PUSH2 0x6C7 JUMPI PUSH1 0x40 MLOAD PUSH32 0x8C379A000000000000000000000000000000000000000000000000000000000 DUP2 MSTORE PUSH1 0x4 ADD PUSH2 0x6BE SWAP1 PUSH2 0x1DCF JUMP JUMPDEST PUSH1 0x40 MLOAD DUP1 SWAP2 SUB SWAP1 REVERT JUMPDEST DUP1 PUSH1 0x1 DUP2 SWAP1 SSTORE POP PUSH32 0x82A40B2EB2E166A9A513E909894042D026F115051AB5C019F766BA8B33C28F3F PUSH1 0x1 SLOAD DUP3 PUSH1 0x40 MLOAD PUSH2 0x701 SWAP3 SWAP2 SWAP1 PUSH2 0x1DED JUMP JUMPDEST PUSH1 0x40 MLOAD DUP1 SWAP2 SUB SWAP1 LOG1 POP JUMP JUMPDEST PUSH1 0x4 SLOAD DUP2 JUMP JUMPDEST PUSH1 0x60 PUSH1 0x8 DUP1 SLOAD DUP1 PUSH1 0x20 MUL PUSH1 0x20 ADD PUSH1 0x40 MLOAD SWAP1 DUP2 ADD PUSH1 0x40 MSTORE DUP1 SWAP3 SWAP2 SWAP1 DUP2 DUP2 MSTORE PUSH1 0x20 ADD PUSH0 SWAP1 JUMPDEST DUP3 DUP3 LT ISZERO PUSH2 0x7C3 JUMPI DUP4 DUP3 SWAP1 PUSH0 MSTORE PUSH1 0x20 PUSH0 KECCAK256 SWAP1 PUSH1 0x2 MUL ADD PUSH1 0x40 MLOAD DUP1 PUSH1 0x40 ADD PUSH1 0x40 MSTORE SWAP1 DUP2 PUSH0 DUP3 ADD PUSH0 SWAP1 SLOAD SWAP1 PUSH2 0x100 EXP SWAP1 DIV PUSH20 0xFFFFFFFFFFFFFFFFFFFFFFFFFFFFFFFFFFFFFFFF AND PUSH20 0xFFFFFFFFFFFFFFFFFFFFFFFFFFFFFFFFFFFFFFFF AND PUSH20 0xFFFFFFFFFFFFFFFFFFFFFFFFFFFFFFFFFFFFFFFF AND DUP2 MSTORE PUSH1 0x20 ADD PUSH1 0x1 DUP3 ADD SLOAD DUP2 MSTORE POP POP DUP2 MSTORE PUSH1 0x20 ADD SWAP1 PUSH1 0x1 ADD SWAP1 PUSH2 0x735 JUMP JUMPDEST POP POP POP POP SWAP1 POP SWAP1 JUMP JUMPDEST PUSH1 0x60 PUSH1 0x9 DUP1 SLOAD DUP1 PUSH1 0x20 MUL PUSH1 0x20 ADD PUSH1 0x40 MLOAD SWAP1 DUP2 ADD PUSH1 0x40 MSTORE DUP1 SWAP3 SWAP2 SWAP1 DUP2 DUP2 MSTORE PUSH1 0x20 ADD DUP3 DUP1 SLOAD DUP1 ISZERO PUSH2 0x84D JUMPI PUSH1 0x20 MUL DUP3 ADD SWAP2 SWAP1 PUSH0 MSTORE PUSH1 0x20 PUSH0 KECCAK256 SWAP1 JUMPDEST DUP2 PUSH0 SWAP1 SLOAD SWAP1 PUSH2 0x100 EXP SWAP1 DIV PUSH20 0xFFFFFFFFFFFFFFFFFFFFFFFFFFFFFFFFFFFFFFFF AND PUSH20 0xFFFFFFFFFFFFFFFFFFFFFFFFFFFFFFFFFFFFFFFF AND DUP2 MSTORE PUSH1 0x20 ADD SWAP1 PUSH1 0x1 ADD SWAP1 DUP1 DUP4 GT PUSH2 0x804 JUMPI JUMPDEST POP POP POP POP POP SWAP1 POP SWAP1 JUMP JUMPDEST PUSH1 0x7 DUP2 DUP2 SLOAD DUP2 LT PUSH2 0x866 JUMPI PUSH0 DUP1 REVERT JUMPDEST SWAP1 PUSH0 MSTORE PUSH1 0x20 PUSH0 KECCAK256 ADD PUSH0 SWAP2 POP SLOAD SWAP1 PUSH2 0x100 EXP SWAP1 DIV PUSH20 0xFFFFFFFFFFFFFFFFFFFFFFFFFFFFFFFFFFFFFFFF AND DUP2 JUMP JUMPDEST PUSH1 0x5 SLOAD DUP2 JUMP JUMPDEST PUSH0 PUSH1 0x5 SLOAD SWAP1 POP SWAP1 JUMP JUMPDEST PUSH1 0x60 PUSH1 0x7 DUP1 SLOAD DUP1 PUSH1 0x20 MUL PUSH1 0x20 ADD PUSH1 0x40 MLOAD SWAP1 DUP2 ADD PUSH1 0x40 MSTORE DUP1 SWAP3 SWAP2 SWAP1 DUP2 DUP2 MSTORE PUSH1 0x20 ADD DUP3 DUP1 SLOAD DUP1 ISZERO PUSH2 0x922 JUMPI PUSH1 0x20 MUL DUP3 ADD SWAP2 SWAP1 PUSH0 MSTORE PUSH1 0x20 PUSH0 KECCAK256 SWAP1 JUMPDEST DUP2 PUSH0 SWAP1 SLOAD SWAP1 PUSH2 0x100 EXP SWAP1 DIV PUSH20 0xFFFFFFFFFFFFFFFFFFFFFFFFFFFFFFFFFFFFFFFF AND PUSH20 0xFFFFFFFFFFFFFFFFFFFFFFFFFFFFFFFFFFFFFFFF AND DUP2 MSTORE PUSH1 0x20 ADD SWAP1 PUSH1 0x1 ADD SWAP1 DUP1 DUP4 GT PUSH2 0x8D9 JUMPI JUMPDEST POP POP POP POP POP SWAP1 POP SWAP1 JUMP JUMPDEST DUP1 PUSH1 0x1 SLOAD PUSH2 0x93A SWAP2 SWAP1 PUSH2 0x1E41 JUMP JUMPDEST CALLVALUE LT ISZERO PUSH2 0x97C JUMPI PUSH1 0x40 MLOAD PUSH32 0x8C379A000000000000000000000000000000000000000000000000000000000 DUP2 MSTORE PUSH1 0x4 ADD PUSH2 0x973 SWAP1 PUSH2 0x1ECC JUMP JUMPDEST PUSH1 0x40 MLOAD DUP1 SWAP2 SUB SWAP1 REVERT JUMPDEST PUSH1 0x5 SLOAD DUP2 GT ISZERO PUSH2 0x9C1 JUMPI PUSH1 0x40 MLOAD PUSH32 0x8C379A000000000000000000000000000000000000000000000000000000000 DUP2 MSTORE PUSH1 0x4 ADD PUSH2 0x9B8 SWAP1 PUSH2 0x1F34 JUMP JUMPDEST PUSH1 0x40 MLOAD DUP1 SWAP2 SUB SWAP1 REVERT JUMPDEST PUSH0 PUSH1 0x6 PUSH0 CALLER PUSH20 0xFFFFFFFFFFFFFFFFFFFFFFFFFFFFFFFFFFFFFFFF AND PUSH20 0xFFFFFFFFFFFFFFFFFFFFFFFFFFFFFFFFFFFFFFFF AND DUP2 MSTORE PUSH1 0x20 ADD SWAP1 DUP2 MSTORE PUSH1 0x20 ADD PUSH0 KECCAK256 SLOAD SUB PUSH2 0xA66 JUMPI PUSH1 0x7 CALLER SWAP1 DUP1 PUSH1 0x1 DUP2 SLOAD ADD DUP1 DUP3 SSTORE DUP1 SWAP2 POP POP PUSH1 0x1 SWAP1 SUB SWAP1 PUSH0 MSTORE PUSH1 0x20 PUSH0 KECCAK256 ADD PUSH0 SWAP1 SWAP2 SWAP1 SWAP2 SWAP1 SWAP2 PUSH2 0x100 EXP DUP2 SLOAD DUP2 PUSH20 0xFFFFFFFFFFFFFFFFFFFFFFFFFFFFFFFFFFFFFFFF MUL NOT AND SWAP1 DUP4 PUSH20 0xFFFFFFFFFFFFFFFFFFFFFFFFFFFFFFFFFFFFFFFF AND MUL OR SWAP1 SSTORE POP JUMPDEST DUP1 PUSH1 0x6 PUSH0 CALLER PUSH20 0xFFFFFFFFFFFFFFFFFFFFFFFFFFFFFFFFFFFFFFFF AND PUSH20 0xFFFFFFFFFFFFFFFFFFFFFFFFFFFFFFFFFFFFFFFF AND DUP2 MSTORE PUSH1 0x20 ADD SWAP1 DUP2 MSTORE PUSH1 0x20 ADD PUSH0 KECCAK256 PUSH0 DUP3 DUP3 SLOAD PUSH2 0xAB2 SWAP2 SWAP1 PUSH2 0x1F52 JUMP JUMPDEST SWAP3 POP POP DUP2 SWAP1 SSTORE POP DUP1 PUSH1 0x4 PUSH0 DUP3 DUP3 SLOAD PUSH2 0xACA SWAP2 SWAP1 PUSH2 0x1F52 JUMP JUMPDEST SWAP3 POP POP DUP2 SWAP1 SSTORE POP DUP1 PUSH1 0x5 SLOAD PUSH2 0xADF SWAP2 SWAP1 PUSH2 0x1F85 JUMP JUMPDEST PUSH1 0x5 DUP2 SWAP1 SSTORE POP CALLVALUE PUSH1 0x3 PUSH0 DUP3 DUP3 SLOAD PUSH2 0xAF6 SWAP2 SWAP1 PUSH2 0x1F52 JUMP JUMPDEST SWAP3 POP POP DUP2 SWAP1 SSTORE POP PUSH32 0xBBA69E9C544BF16DF5732642E0D0AFF01E2B36B054552413A21A05035FBB462 CALLER DUP3 PUSH1 0x40 MLOAD PUSH2 0xB2E SWAP3 SWAP2 SWAP1 PUSH2 0x1C9A JUMP JUMPDEST PUSH1 0x40 MLOAD DUP1 SWAP2 SUB SWAP1 LOG1 PUSH32 0xBE75ABFBFE86F7DB09DD6AC4BABFBA470B3C3BD59AECEDE848FDEAA7A4B8A6DF PUSH1 0x7 PUSH1 0x40 MLOAD PUSH2 0xB66 SWAP2 SWAP1 PUSH2 0x2098 JUMP JUMPDEST PUSH1 0x40 MLOAD DUP1 SWAP2 SUB SWAP1 LOG1 POP JUMP JUMPDEST PUSH1 0x3 SLOAD DUP2 JUMP JUMPDEST PUSH1 0x9 DUP2 DUP2 SLOAD DUP2 LT PUSH2 0xB86 JUMPI PUSH0 DUP1 REVERT JUMPDEST SWAP1 PUSH0 MSTORE PUSH1 0x20 PUSH0 KECCAK256 ADD PUSH0 SWAP2 POP SLOAD SWAP1 PUSH2 0x100 EXP SWAP1 DIV PUSH20 0xFFFFFFFFFFFFFFFFFFFFFFFFFFFFFFFFFFFFFFFF AND DUP2 JUMP JUMPDEST PUSH1 0x6 PUSH1 0x20 MSTORE DUP1 PUSH0 MSTORE PUSH1 0x40 PUSH0 KECCAK256 PUSH0 SWAP2 POP SWAP1 POP SLOAD DUP2 JUMP JUMPDEST PUSH0 PUSH1 0x1 SLOAD SWAP1 POP SWAP1 JUMP JUMPDEST PUSH0 PUSH1 0x3 SLOAD SWAP1 POP SWAP1 JUMP JUMPDEST PUSH0 DUP1 SLOAD SWAP1 PUSH2 0x100 EXP SWAP1 DIV PUSH20 0xFFFFFFFFFFFFFFFFFFFFFFFFFFFFFFFFFFFFFFFF AND DUP2 JUMP JUMPDEST PUSH0 DUP1 SLOAD SWAP1 PUSH2 0x100 EXP SWAP1 DIV PUSH20 0xFFFFFFFFFFFFFFFFFFFFFFFFFFFFFFFFFFFFFFFF AND PUSH20 0xFFFFFFFFFFFFFFFFFFFFFFFFFFFFFFFFFFFFFFFF AND CALLER PUSH20 0xFFFFFFFFFFFFFFFFFFFFFFFFFFFFFFFFFFFFFFFF AND EQ PUSH2 0xC89 JUMPI PUSH1 0x40 MLOAD PUSH32 0x8C379A000000000000000000000000000000000000000000000000000000000 DUP2 MSTORE PUSH1 0x4 ADD PUSH2 0xC80 SWAP1 PUSH2 0x1D41 JUMP JUMPDEST PUSH1 0x40 MLOAD DUP1 SWAP2 SUB SWAP1 REVERT JUMPDEST PUSH0 DUP2 GT PUSH2 0xCCB JUMPI PUSH1 0x40 MLOAD PUSH32 0x8C379A000000000000000000000000000000000000000000000000000000000 DUP2 MSTORE PUSH1 0x4 ADD PUSH2 0xCC2 SWAP1 PUSH2 0x2102 JUMP JUMPDEST PUSH1 0x40 MLOAD DUP1 SWAP2 SUB SWAP1 REVERT JUMPDEST PUSH1 0x7 DUP1 SLOAD SWAP1 POP DUP2 GT ISZERO PUSH2 0xD13 JUMPI PUSH1 0x40 MLOAD PUSH32 0x8C379A000000000000000000000000000000000000000000000000000000000 DUP2 MSTORE PUSH1 0x4 ADD PUSH2 0xD0A SWAP1 PUSH2 0x21B6 JUMP JUMPDEST PUSH1 0x40 MLOAD DUP1 SWAP2 SUB SWAP1 REVERT JUMPDEST DUP1 PUSH1 0x4 SLOAD LT ISZERO PUSH2 0xD58 JUMPI PUSH1 0x40 MLOAD PUSH32 0x8C379A000000000000000000000000000000000000000000000000000000000 DUP2 MSTORE PUSH1 0x4 ADD PUSH2 0xD4F SWAP1 PUSH2 0x221E JUMP JUMPDEST PUSH1 0x40 MLOAD DUP1 SWAP2 SUB SWAP1 REVERT JUMPDEST PUSH0 DUP2 PUSH8 0xFFFFFFFFFFFFFFFF DUP2 GT ISZERO PUSH2 0xD73 JUMPI PUSH2 0xD72 PUSH2 0x223C JUMP JUMPDEST JUMPDEST PUSH1 0x40 MLOAD SWAP1 DUP1 DUP3 MSTORE DUP1 PUSH1 0x20 MUL PUSH1 0x20 ADD DUP3 ADD PUSH1 0x40 MSTORE DUP1 ISZERO PUSH2 0xDA1 JUMPI DUP2 PUSH1 0x20 ADD PUSH1 0x20 DUP3 MUL DUP1 CALLDATASIZE DUP4 CALLDATACOPY DUP1 DUP3 ADD SWAP2 POP POP SWAP1 POP JUMPDEST POP SWAP1 POP PUSH0 PUSH1 0x64 PUSH1 0x5A PUSH1 0x3 SLOAD PUSH2 0xDB6 SWAP2 SWAP1 PUSH2 0x1E41 JUMP JUMPDEST PUSH2 0xDC0 SWAP2 SWAP1 PUSH2 0x2296 JUMP JUMPDEST SWAP1 POP PUSH0 DUP4 DUP3 PUSH2 0xDCF SWAP2 SWAP1 PUSH2 0x2296 JUMP JUMPDEST SWAP1 POP PUSH0 JUMPDEST DUP5 DUP2 LT ISZERO PUSH2 0x1369 JUMPI PUSH2 0xDE3 PUSH2 0x15B5 JUMP JUMPDEST DUP5 DUP3 DUP2 MLOAD DUP2 LT PUSH2 0xDF6 JUMPI PUSH2 0xDF5 PUSH2 0x22C6 JUMP JUMPDEST JUMPDEST PUSH1 0x20 MUL PUSH1 0x20 ADD ADD SWAP1 PUSH20 0xFFFFFFFFFFFFFFFFFFFFFFFFFFFFFFFFFFFFFFFF AND SWAP1 DUP2 PUSH20 0xFFFFFFFFFFFFFFFFFFFFFFFFFFFFFFFFFFFFFFFF AND DUP2 MSTORE POP POP PUSH0 DUP1 JUMPDEST PUSH1 0x8 DUP1 SLOAD SWAP1 POP DUP2 LT ISZERO PUSH2 0xF1E JUMPI DUP6 DUP4 DUP2 MLOAD DUP2 LT PUSH2 0xE53 JUMPI PUSH2 0xE52 PUSH2 0x22C6 JUMP JUMPDEST JUMPDEST PUSH1 0x20 MUL PUSH1 0x20 ADD ADD MLOAD PUSH20 0xFFFFFFFFFFFFFFFFFFFFFFFFFFFFFFFFFFFFFFFF AND PUSH1 0x8 DUP3 DUP2 SLOAD DUP2 LT PUSH2 0xE85 JUMPI PUSH2 0xE84 PUSH2 0x22C6 JUMP JUMPDEST JUMPDEST SWAP1 PUSH0 MSTORE PUSH1 0x20 PUSH0 KECCAK256 SWAP1 PUSH1 0x2 MUL ADD PUSH0 ADD PUSH0 SWAP1 SLOAD SWAP1 PUSH2 0x100 EXP SWAP1 DIV PUSH20 0xFFFFFFFFFFFFFFFFFFFFFFFFFFFFFFFFFFFFFFFF AND PUSH20 0xFFFFFFFFFFFFFFFFFFFFFFFFFFFFFFFFFFFFFFFF AND SUB PUSH2 0xF11 JUMPI PUSH1 0x1 PUSH1 0x8 DUP3 DUP2 SLOAD DUP2 LT PUSH2 0xEE4 JUMPI PUSH2 0xEE3 PUSH2 0x22C6 JUMP JUMPDEST JUMPDEST SWAP1 PUSH0 MSTORE PUSH1 0x20 PUSH0 KECCAK256 SWAP1 PUSH1 0x2 MUL ADD PUSH1 0x1 ADD PUSH0 DUP3 DUP3 SLOAD PUSH2 0xF01 SWAP2 SWAP1 PUSH2 0x1F52 JUMP JUMPDEST SWAP3 POP POP DUP2 SWAP1 SSTORE POP PUSH1 0x1 SWAP2 POP PUSH2 0xF1E JUMP JUMPDEST DUP1 DUP1 PUSH1 0x1 ADD SWAP2 POP POP PUSH2 0xE33 JUMP JUMPDEST POP DUP1 PUSH2 0xFE3 JUMPI PUSH1 0x8 PUSH1 0x40 MLOAD DUP1 PUSH1 0x40 ADD PUSH1 0x40 MSTORE DUP1 DUP8 DUP6 DUP2 MLOAD DUP2 LT PUSH2 0xF44 JUMPI PUSH2 0xF43 PUSH2 0x22C6 JUMP JUMPDEST JUMPDEST PUSH1 0x20 MUL PUSH1 0x20 ADD ADD MLOAD PUSH20 0xFFFFFFFFFFFFFFFFFFFFFFFFFFFFFFFFFFFFFFFF AND DUP2 MSTORE PUSH1 0x20 ADD PUSH1 0x1 DUP2 MSTORE POP SWAP1 DUP1 PUSH1 0x1 DUP2 SLOAD ADD DUP1 DUP3 SSTORE DUP1 SWAP2 POP POP PUSH1 0x1 SWAP1 SUB SWAP1 PUSH0 MSTORE PUSH1 0x20 PUSH0 KECCAK256 SWAP1 PUSH1 0x2 MUL ADD PUSH0 SWAP1 SWAP2 SWAP1 SWAP2 SWAP1 SWAP2 POP PUSH0 DUP3 ADD MLOAD DUP2 PUSH0 ADD PUSH0 PUSH2 0x100 EXP DUP2 SLOAD DUP2 PUSH20 0xFFFFFFFFFFFFFFFFFFFFFFFFFFFFFFFFFFFFFFFF MUL NOT AND SWAP1 DUP4 PUSH20 0xFFFFFFFFFFFFFFFFFFFFFFFFFFFFFFFFFFFFFFFF AND MUL OR SWAP1 SSTORE POP PUSH1 0x20 DUP3 ADD MLOAD DUP2 PUSH1 0x1 ADD SSTORE POP POP JUMPDEST PUSH1 0xA SLOAD PUSH1 0x9 DUP1 SLOAD SWAP1 POP LT PUSH2 0x1145 JUMPI PUSH0 JUMPDEST PUSH1 0x1 PUSH1 0x9 DUP1 SLOAD SWAP1 POP PUSH2 0x1005 SWAP2 SWAP1 PUSH2 0x1F85 JUMP JUMPDEST DUP2 LT ISZERO PUSH2 0x10BA JUMPI PUSH1 0x9 PUSH1 0x1 DUP3 PUSH2 0x101B SWAP2 SWAP1 PUSH2 0x1F52 JUMP JUMPDEST DUP2 SLOAD DUP2 LT PUSH2 0x102C JUMPI PUSH2 0x102B PUSH2 0x22C6 JUMP JUMPDEST JUMPDEST SWAP1 PUSH0 MSTORE PUSH1 0x20 PUSH0 KECCAK256 ADD PUSH0 SWAP1 SLOAD SWAP1 PUSH2 0x100 EXP SWAP1 DIV PUSH20 0xFFFFFFFFFFFFFFFFFFFFFFFFFFFFFFFFFFFFFFFF AND PUSH1 0x9 DUP3 DUP2 SLOAD DUP2 LT PUSH2 0x1068 JUMPI PUSH2 0x1067 PUSH2 0x22C6 JUMP JUMPDEST JUMPDEST SWAP1 PUSH0 MSTORE PUSH1 0x20 PUSH0 KECCAK256 ADD PUSH0 PUSH2 0x100 EXP DUP2 SLOAD DUP2 PUSH20 0xFFFFFFFFFFFFFFFFFFFFFFFFFFFFFFFFFFFFFFFF MUL NOT AND SWAP1 DUP4 PUSH20 0xFFFFFFFFFFFFFFFFFFFFFFFFFFFFFFFFFFFFFFFF AND MUL OR SWAP1 SSTORE POP DUP1 DUP1 PUSH1 0x1 ADD SWAP2 POP POP PUSH2 0xFF3 JUMP JUMPDEST POP DUP5 DUP3 DUP2 MLOAD DUP2 LT PUSH2 0x10CE JUMPI PUSH2 0x10CD PUSH2 0x22C6 JUMP JUMPDEST JUMPDEST PUSH1 0x20 MUL PUSH1 0x20 ADD ADD MLOAD PUSH1 0x9 PUSH1 0x1 PUSH1 0x9 DUP1 SLOAD SWAP1 POP PUSH2 0x10EA SWAP2 SWAP1 PUSH2 0x1F85 JUMP JUMPDEST DUP2 SLOAD DUP2 LT PUSH2 0x10FB JUMPI PUSH2 0x10FA PUSH2 0x22C6 JUMP JUMPDEST JUMPDEST SWAP1 PUSH0 MSTORE PUSH1 0x20 PUSH0 KECCAK256 ADD PUSH0 PUSH2 0x100 EXP DUP2 SLOAD DUP2 PUSH20 0xFFFFFFFFFFFFFFFFFFFFFFFFFFFFFFFFFFFFFFFF MUL NOT AND SWAP1 DUP4 PUSH20 0xFFFFFFFFFFFFFFFFFFFFFFFFFFFFFFFFFFFFFFFF AND MUL OR SWAP1 SSTORE POP PUSH2 0x11C0 JUMP JUMPDEST PUSH1 0x9 DUP6 DUP4 DUP2 MLOAD DUP2 LT PUSH2 0x115A JUMPI PUSH2 0x1159 PUSH2 0x22C6 JUMP JUMPDEST JUMPDEST PUSH1 0x20 MUL PUSH1 0x20 ADD ADD MLOAD SWAP1 DUP1 PUSH1 0x1 DUP2 SLOAD ADD DUP1 DUP3 SSTORE DUP1 SWAP2 POP POP PUSH1 0x1 SWAP1 SUB SWAP1 PUSH0 MSTORE PUSH1 0x20 PUSH0 KECCAK256 ADD PUSH0 SWAP1 SWAP2 SWAP1 SWAP2 SWAP1 SWAP2 PUSH2 0x100 EXP DUP2 SLOAD DUP2 PUSH20 0xFFFFFFFFFFFFFFFFFFFFFFFFFFFFFFFFFFFFFFFF MUL NOT AND SWAP1 DUP4 PUSH20 0xFFFFFFFFFFFFFFFFFFFFFFFFFFFFFFFFFFFFFFFF AND MUL OR SWAP1 SSTORE POP JUMPDEST PUSH32 0xE60B844D6FCF97A8804144BF76F323D7F9E4F62A9441A41C3AE50F47AE00EC17 DUP6 DUP4 DUP2 MLOAD DUP2 LT PUSH2 0x11F4 JUMPI PUSH2 0x11F3 PUSH2 0x22C6 JUMP JUMPDEST JUMPDEST PUSH1 0x20 MUL PUSH1 0x20 ADD ADD MLOAD PUSH1 0x8 PUSH1 0x1 PUSH1 0x8 DUP1 SLOAD SWAP1 POP PUSH2 0x1210 SWAP2 SWAP1 PUSH2 0x1F85 JUMP JUMPDEST DUP2 SLOAD DUP2 LT PUSH2 0x1221 JUMPI PUSH2 0x1220 PUSH2 0x22C6 JUMP JUMPDEST JUMPDEST SWAP1 PUSH0 MSTORE PUSH1 0x20 PUSH0 KECCAK256 SWAP1 PUSH1 0x2 MUL ADD PUSH1 0x1 ADD SLOAD PUSH1 0x40 MLOAD PUSH2 0x123F SWAP3 SWAP2 SWAP1 PUSH2 0x1C9A JUMP JUMPDEST PUSH1 0x40 MLOAD DUP1 SWAP2 SUB SWAP1 LOG1 PUSH32 0xD35E602B55017E45DB8B6DF7945C1E0BC479D25B1075D87E2E06402A3625CB00 DUP6 DUP4 DUP2 MLOAD DUP2 LT PUSH2 0x127B JUMPI PUSH2 0x127A PUSH2 0x22C6 JUMP JUMPDEST JUMPDEST PUSH1 0x20 MUL PUSH1 0x20 ADD ADD MLOAD PUSH1 0x40 MLOAD PUSH2 0x1290 SWAP2 SWAP1 PUSH2 0x1BF3 JUMP JUMPDEST PUSH1 0x40 MLOAD DUP1 SWAP2 SUB SWAP1 LOG1 PUSH0 DUP6 DUP4 DUP2 MLOAD DUP2 LT PUSH2 0x12AC JUMPI PUSH2 0x12AB PUSH2 0x22C6 JUMP JUMPDEST JUMPDEST PUSH1 0x20 MUL PUSH1 0x20 ADD ADD MLOAD PUSH20 0xFFFFFFFFFFFFFFFFFFFFFFFFFFFFFFFFFFFFFFFF AND DUP5 PUSH1 0x40 MLOAD PUSH2 0x12D7 SWAP1 PUSH2 0x231D JUMP JUMPDEST PUSH0 PUSH1 0x40 MLOAD DUP1 DUP4 SUB DUP2 DUP6 DUP8 GAS CALL SWAP3 POP POP POP RETURNDATASIZE DUP1 PUSH0 DUP2 EQ PUSH2 0x1311 JUMPI PUSH1 0x40 MLOAD SWAP2 POP PUSH1 0x1F NOT PUSH1 0x3F RETURNDATASIZE ADD AND DUP3 ADD PUSH1 0x40 MSTORE RETURNDATASIZE DUP3 MSTORE RETURNDATASIZE PUSH0 PUSH1 0x20 DUP5 ADD RETURNDATACOPY PUSH2 0x1316 JUMP JUMPDEST PUSH1 0x60 SWAP2 POP JUMPDEST POP POP SWAP1 POP DUP1 PUSH2 0x135A JUMPI PUSH1 0x40 MLOAD PUSH32 0x8C379A000000000000000000000000000000000000000000000000000000000 DUP2 MSTORE PUSH1 0x4 ADD PUSH2 0x1351 SWAP1 PUSH2 0x237B JUMP JUMPDEST PUSH1 0x40 MLOAD DUP1 SWAP2 SUB SWAP1 REVERT JUMPDEST POP POP DUP1 DUP1 PUSH1 0x1 ADD SWAP2 POP POP PUSH2 0xDD3 JUMP JUMPDEST POP DUP2 PUSH1 0x3 PUSH0 DUP3 DUP3 SLOAD PUSH2 0x137B SWAP2 SWAP1 PUSH2 0x1F85 JUMP JUMPDEST SWAP3 POP POP DUP2 SWAP1 SSTORE POP PUSH32 0x1E26FD9468170C075E6AFC90D001D0E84BA9F84A6816461D03D2A4E7F6AA7DE DUP4 PUSH1 0x40 MLOAD PUSH2 0x13B1 SWAP2 SWAP1 PUSH2 0x1BD3 JUMP JUMPDEST PUSH1 0x40 MLOAD DUP1 SWAP2 SUB SWAP1 LOG1 POP POP POP POP JUMP JUMPDEST PUSH1 0x2 SLOAD DUP2 JUMP JUMPDEST PUSH0 PUSH1 0x6 PUSH0 CALLER PUSH20 0xFFFFFFFFFFFFFFFFFFFFFFFFFFFFFFFFFFFFFFFF AND PUSH20 0xFFFFFFFFFFFFFFFFFFFFFFFFFFFFFFFFFFFFFFFF AND DUP2 MSTORE PUSH1 0x20 ADD SWAP1 DUP2 MSTORE PUSH1 0x20 ADD PUSH0 KECCAK256 SLOAD SWAP1 POP SWAP1 JUMP JUMPDEST PUSH1 0x8 DUP2 DUP2 SLOAD DUP2 LT PUSH2 0x1418 JUMPI PUSH0 DUP1 REVERT JUMPDEST SWAP1 PUSH0 MSTORE PUSH1 0x20 PUSH0 KECCAK256 SWAP1 PUSH1 0x2 MUL ADD PUSH0 SWAP2 POP SWAP1 POP DUP1 PUSH0 ADD PUSH0 SWAP1 SLOAD SWAP1 PUSH2 0x100 EXP SWAP1 DIV PUSH20 0xFFFFFFFFFFFFFFFFFFFFFFFFFFFFFFFFFFFFFFFF AND SWAP1 DUP1 PUSH1 0x1 ADD SLOAD SWAP1 POP DUP3 JUMP JUMPDEST PUSH0 DUP1 SLOAD SWAP1 PUSH2 0x100 EXP SWAP1 DIV PUSH20 0xFFFFFFFFFFFFFFFFFFFFFFFFFFFFFFFFFFFFFFFF AND PUSH20 0xFFFFFFFFFFFFFFFFFFFFFFFFFFFFFFFFFFFFFFFF AND CALLER PUSH20 0xFFFFFFFFFFFFFFFFFFFFFFFFFFFFFFFFFFFFFFFF AND EQ PUSH2 0x14E4 JUMPI PUSH1 0x40 MLOAD PUSH32 0x8C379A000000000000000000000000000000000000000000000000000000000 DUP2 MSTORE PUSH1 0x4 ADD PUSH2 0x14DB SWAP1 PUSH2 0x1D41 JUMP JUMPDEST PUSH1 0x40 MLOAD DUP1 SWAP2 SUB SWAP1 REVERT JUMPDEST PUSH0 DUP1 PUSH0 SWAP1 SLOAD SWAP1 PUSH2 0x100 EXP SWAP1 DIV PUSH20 0xFFFFFFFFFFFFFFFFFFFFFFFFFFFFFFFFFFFFFFFF AND PUSH20 0xFFFFFFFFFFFFFFFFFFFFFFFFFFFFFFFFFFFFFFFF AND SELFBALANCE PUSH1 0x40 MLOAD PUSH2 0x1529 SWAP1 PUSH2 0x231D JUMP JUMPDEST PUSH0 PUSH1 0x40 MLOAD DUP1 DUP4 SUB DUP2 DUP6 DUP8 GAS CALL SWAP3 POP POP POP RETURNDATASIZE DUP1 PUSH0 DUP2 EQ PUSH2 0x1563 JUMPI PUSH1 0x40 MLOAD SWAP2 POP PUSH1 0x1F NOT PUSH1 0x3F RETURNDATASIZE ADD AND DUP3 ADD PUSH1 0x40 MSTORE RETURNDATASIZE DUP3 MSTORE RETURNDATASIZE PUSH0 PUSH1 0x20 DUP5 ADD RETURNDATACOPY PUSH2 0x1568 JUMP JUMPDEST PUSH1 0x60 SWAP2 POP JUMPDEST POP POP SWAP1 POP DUP1 PUSH2 0x15AC JUMPI PUSH1 0x40 MLOAD PUSH32 0x8C379A000000000000000000000000000000000000000000000000000000000 DUP2 MSTORE PUSH1 0x4 ADD PUSH2 0x15A3 SWAP1 PUSH2 0x237B JUMP JUMPDEST PUSH1 0x40 MLOAD DUP1 SWAP2 SUB SWAP1 REVERT JUMPDEST POP JUMP JUMPDEST PUSH1 0xA SLOAD DUP2 JUMP JUMPDEST PUSH0 DUP1 PUSH1 0x1 NUMBER PUSH2 0x15C4 SWAP2 SWAP1 PUSH2 0x1F85 JUMP JUMPDEST BLOCKHASH TIMESTAMP PUSH1 0x2 SLOAD PUSH1 0x40 MLOAD PUSH1 0x20 ADD PUSH2 0x15DB SWAP4 SWAP3 SWAP2 SWAP1 PUSH2 0x23E2 JUMP JUMPDEST PUSH1 0x40 MLOAD PUSH1 0x20 DUP2 DUP4 SUB SUB DUP2 MSTORE SWAP1 PUSH1 0x40 MSTORE DUP1 MLOAD SWAP1 PUSH1 0x20 ADD KECCAK256 PUSH0 SHR SWAP1 POP PUSH0 PUSH1 0x4 SLOAD DUP3 PUSH2 0x1604 SWAP2 SWAP1 PUSH2 0x241E JUMP JUMPDEST SWAP1 POP PUSH0 DUP1 JUMPDEST PUSH1 0x7 DUP1 SLOAD SWAP1 POP DUP2 LT ISZERO PUSH2 0x181B JUMPI PUSH0 PUSH1 0x7 DUP3 DUP2 SLOAD DUP2 LT PUSH2 0x162B JUMPI PUSH2 0x162A PUSH2 0x22C6 JUMP JUMPDEST JUMPDEST SWAP1 PUSH0 MSTORE PUSH1 0x20 PUSH0 KECCAK256 ADD PUSH0 SWAP1 SLOAD SWAP1 PUSH2 0x100 EXP SWAP1 DIV PUSH20 0xFFFFFFFFFFFFFFFFFFFFFFFFFFFFFFFFFFFFFFFF AND SWAP1 POP PUSH0 PUSH1 0x6 PUSH0 DUP4 PUSH20 0xFFFFFFFFFFFFFFFFFFFFFFFFFFFFFFFFFFFFFFFF AND PUSH20 0xFFFFFFFFFFFFFFFFFFFFFFFFFFFFFFFFFFFFFFFF AND DUP2 MSTORE PUSH1 0x20 ADD SWAP1 DUP2 MSTORE PUSH1 0x20 ADD PUSH0 KECCAK256 SLOAD SWAP1 POP DUP4 DUP6 LT ISZERO DUP1 ISZERO PUSH2 0x16B0 JUMPI POP DUP1 DUP5 PUSH2 0x16AD SWAP2 SWAP1 PUSH2 0x1F52 JUMP JUMPDEST DUP6 LT JUMPDEST ISZERO PUSH2 0x17FE JUMPI PUSH1 0x6 PUSH0 DUP4 PUSH20 0xFFFFFFFFFFFFFFFFFFFFFFFFFFFFFFFFFFFFFFFF AND PUSH20 0xFFFFFFFFFFFFFFFFFFFFFFFFFFFFFFFFFFFFFFFF AND DUP2 MSTORE PUSH1 0x20 ADD SWAP1 DUP2 MSTORE PUSH1 0x20 ADD PUSH0 KECCAK256 SLOAD PUSH1 0x4 SLOAD PUSH2 0x1700 SWAP2 SWAP1 PUSH2 0x1F85 JUMP JUMPDEST PUSH1 0x4 DUP2 SWAP1 SSTORE POP PUSH1 0x7 PUSH1 0x1 PUSH1 0x7 DUP1 SLOAD SWAP1 POP PUSH2 0x171A SWAP2 SWAP1 PUSH2 0x1F85 JUMP JUMPDEST DUP2 SLOAD DUP2 LT PUSH2 0x172B JUMPI PUSH2 0x172A PUSH2 0x22C6 JUMP JUMPDEST JUMPDEST SWAP1 PUSH0 MSTORE PUSH1 0x20 PUSH0 KECCAK256 ADD PUSH0 SWAP1 SLOAD SWAP1 PUSH2 0x100 EXP SWAP1 DIV PUSH20 0xFFFFFFFFFFFFFFFFFFFFFFFFFFFFFFFFFFFFFFFF AND PUSH1 0x7 DUP5 DUP2 SLOAD DUP2 LT PUSH2 0x1767 JUMPI PUSH2 0x1766 PUSH2 0x22C6 JUMP JUMPDEST JUMPDEST SWAP1 PUSH0 MSTORE PUSH1 0x20 PUSH0 KECCAK256 ADD PUSH0 PUSH2 0x100 EXP DUP2 SLOAD DUP2 PUSH20 0xFFFFFFFFFFFFFFFFFFFFFFFFFFFFFFFFFFFFFFFF MUL NOT AND SWAP1 DUP4 PUSH20 0xFFFFFFFFFFFFFFFFFFFFFFFFFFFFFFFFFFFFFFFF AND MUL OR SWAP1 SSTORE POP PUSH1 0x7 DUP1 SLOAD DUP1 PUSH2 0x17BE JUMPI PUSH2 0x17BD PUSH2 0x244E JUMP JUMPDEST JUMPDEST PUSH1 0x1 SWAP1 SUB DUP2 DUP2 SWAP1 PUSH0 MSTORE PUSH1 0x20 PUSH0 KECCAK256 ADD PUSH0 PUSH2 0x100 EXP DUP2 SLOAD SWAP1 PUSH20 0xFFFFFFFFFFFFFFFFFFFFFFFFFFFFFFFFFFFFFFFF MUL NOT AND SWAP1 SSTORE SWAP1 SSTORE DUP2 SWAP7 POP POP POP POP POP POP POP PUSH2 0x1857 JUMP JUMPDEST DUP1 DUP5 PUSH2 0x180A SWAP2 SWAP1 PUSH2 0x1F52 JUMP JUMPDEST SWAP4 POP POP POP DUP1 DUP1 PUSH1 0x1 ADD SWAP2 POP POP PUSH2 0x1609 JUMP JUMPDEST POP PUSH1 0x40 MLOAD PUSH32 0x8C379A000000000000000000000000000000000000000000000000000000000 DUP2 MSTORE PUSH1 0x4 ADD PUSH2 0x184E SWAP1 PUSH2 0x24C5 JUMP JUMPDEST PUSH1 0x40 MLOAD DUP1 SWAP2 SUB SWAP1 REVERT JUMPDEST SWAP1 JUMP JUMPDEST PUSH0 PUSH20 0xFFFFFFFFFFFFFFFFFFFFFFFFFFFFFFFFFFFFFFFF DUP3 AND SWAP1 POP SWAP2 SWAP1 POP JUMP JUMPDEST PUSH0 PUSH2 0x1883 DUP3 PUSH2 0x185A JUMP JUMPDEST SWAP1 POP SWAP2 SWAP1 POP JUMP JUMPDEST PUSH2 0x1893 DUP2 PUSH2 0x1879 JUMP JUMPDEST DUP3 MSTORE POP POP JUMP JUMPDEST PUSH0 DUP2 SWAP1 POP SWAP2 SWAP1 POP JUMP JUMPDEST PUSH2 0x18AB DUP2 PUSH2 0x1899 JUMP JUMPDEST DUP3 MSTORE POP POP JUMP JUMPDEST PUSH0 DUP3 DUP3 MSTORE PUSH1 0x20 DUP3 ADD SWAP1 POP SWAP3 SWAP2 POP POP JUMP JUMPDEST POP JUMP JUMPDEST PUSH0 PUSH2 0x18CF PUSH0 DUP4 PUSH2 0x18B1 JUMP JUMPDEST SWAP2 POP PUSH2 0x18DA DUP3 PUSH2 0x18C1 JUMP JUMPDEST PUSH0 DUP3 ADD SWAP1 POP SWAP2 SWAP1 POP JUMP JUMPDEST PUSH0 PUSH1 0x60 DUP3 ADD SWAP1 POP PUSH2 0x18F7 PUSH0 DUP4 ADD DUP6 PUSH2 0x188A JUMP JUMPDEST PUSH2 0x1904 PUSH1 0x20 DUP4 ADD DUP5 PUSH2 0x18A2 JUMP JUMPDEST DUP2 DUP2 SUB PUSH1 0x40 DUP4 ADD MSTORE PUSH2 0x1915 DUP2 PUSH2 0x18C4 JUMP JUMPDEST SWAP1 POP SWAP4 SWAP3 POP POP POP JUMP JUMPDEST DUP3 DUP2 DUP4 CALLDATACOPY PUSH0 DUP4 DUP4 ADD MSTORE POP POP POP JUMP JUMPDEST PUSH0 PUSH1 0x1F NOT PUSH1 0x1F DUP4 ADD AND SWAP1 POP SWAP2 SWAP1 POP JUMP JUMPDEST PUSH0 PUSH2 0x1947 DUP4 DUP6 PUSH2 0x18B1 JUMP JUMPDEST SWAP4 POP PUSH2 0x1954 DUP4 DUP6 DUP5 PUSH2 0x191E JUMP JUMPDEST PUSH2 0x195D DUP4 PUSH2 0x192C JUMP JUMPDEST DUP5 ADD SWAP1 POP SWAP4 SWAP3 POP POP POP JUMP JUMPDEST PUSH0 PUSH1 0x60 DUP3 ADD SWAP1 POP PUSH2 0x197B PUSH0 DUP4 ADD DUP8 PUSH2 0x188A JUMP JUMPDEST PUSH2 0x1988 PUSH1 0x20 DUP4 ADD DUP7 PUSH2 0x18A2 JUMP JUMPDEST DUP2 DUP2 SUB PUSH1 0x40 DUP4 ADD MSTORE PUSH2 0x199B DUP2 DUP5 DUP7 PUSH2 0x193C JUMP JUMPDEST SWAP1 POP SWAP6 SWAP5 POP POP POP POP POP JUMP JUMPDEST PUSH0 PUSH1 0x20 DUP3 ADD SWAP1 POP PUSH2 0x19B9 PUSH0 DUP4 ADD DUP5 PUSH2 0x18A2 JUMP JUMPDEST SWAP3 SWAP2 POP POP JUMP JUMPDEST PUSH0 DUP1 REVERT JUMPDEST PUSH2 0x19CC DUP2 PUSH2 0x1899 JUMP JUMPDEST DUP2 EQ PUSH2 0x19D6 JUMPI PUSH0 DUP1 REVERT JUMPDEST POP JUMP JUMPDEST PUSH0 DUP2 CALLDATALOAD SWAP1 POP PUSH2 0x19E7 DUP2 PUSH2 0x19C3 JUMP JUMPDEST SWAP3 SWAP2 POP POP JUMP JUMPDEST PUSH0 PUSH1 0x20 DUP3 DUP5 SUB SLT ISZERO PUSH2 0x1A02 JUMPI PUSH2 0x1A01 PUSH2 0x19BF JUMP JUMPDEST JUMPDEST PUSH0 PUSH2 0x1A0F DUP5 DUP3 DUP6 ADD PUSH2 0x19D9 JUMP JUMPDEST SWAP2 POP POP SWAP3 SWAP2 POP POP JUMP JUMPDEST PUSH0 DUP2 MLOAD SWAP1 POP SWAP2 SWAP1 POP JUMP JUMPDEST PUSH0 DUP3 DUP3 MSTORE PUSH1 0x20 DUP3 ADD SWAP1 POP SWAP3 SWAP2 POP POP JUMP JUMPDEST PUSH0 DUP2 SWAP1 POP PUSH1 0x20 DUP3 ADD SWAP1 POP SWAP2 SWAP1 POP JUMP JUMPDEST PUSH2 0x1A4A DUP2 PUSH2 0x1879 JUMP JUMPDEST DUP3 MSTORE POP POP JUMP JUMPDEST PUSH2 0x1A59 DUP2 PUSH2 0x1899 JUMP JUMPDEST DUP3 MSTORE POP POP JUMP JUMPDEST PUSH1 0x40 DUP3 ADD PUSH0 DUP3 ADD MLOAD PUSH2 0x1A73 PUSH0 DUP6 ADD DUP3 PUSH2 0x1A41 JUMP JUMPDEST POP PUSH1 0x20 DUP3 ADD MLOAD PUSH2 0x1A86 PUSH1 0x20 DUP6 ADD DUP3 PUSH2 0x1A50 JUMP JUMPDEST POP POP POP POP JUMP JUMPDEST PUSH0 PUSH2 0x1A97 DUP4 DUP4 PUSH2 0x1A5F JUMP JUMPDEST PUSH1 0x40 DUP4 ADD SWAP1 POP SWAP3 SWAP2 POP POP JUMP JUMPDEST PUSH0 PUSH1 0x20 DUP3 ADD SWAP1 POP SWAP2 SWAP1 POP JUMP JUMPDEST PUSH0 PUSH2 0x1AB9 DUP3 PUSH2 0x1A18 JUMP JUMPDEST PUSH2 0x1AC3 DUP2 DUP6 PUSH2 0x1A22 JUMP JUMPDEST SWAP4 POP PUSH2 0x1ACE DUP4 PUSH2 0x1A32 JUMP JUMPDEST DUP1 PUSH0 JUMPDEST DUP4 DUP2 LT ISZERO PUSH2 0x1AFE JUMPI DUP2 MLOAD PUSH2 0x1AE5 DUP9 DUP3 PUSH2 0x1A8C JUMP JUMPDEST SWAP8 POP PUSH2 0x1AF0 DUP4 PUSH2 0x1AA3 JUMP JUMPDEST SWAP3 POP POP PUSH1 0x1 DUP2 ADD SWAP1 POP PUSH2 0x1AD1 JUMP JUMPDEST POP DUP6 SWAP4 POP POP POP POP SWAP3 SWAP2 POP POP JUMP JUMPDEST PUSH0 PUSH1 0x20 DUP3 ADD SWAP1 POP DUP2 DUP2 SUB PUSH0 DUP4 ADD MSTORE PUSH2 0x1B23 DUP2 DUP5 PUSH2 0x1AAF JUMP JUMPDEST SWAP1 POP SWAP3 SWAP2 POP POP JUMP JUMPDEST PUSH0 DUP2 MLOAD SWAP1 POP SWAP2 SWAP1 POP JUMP JUMPDEST PUSH0 DUP3 DUP3 MSTORE PUSH1 0x20 DUP3 ADD SWAP1 POP SWAP3 SWAP2 POP POP JUMP JUMPDEST PUSH0 DUP2 SWAP1 POP PUSH1 0x20 DUP3 ADD SWAP1 POP SWAP2 SWAP1 POP JUMP JUMPDEST PUSH0 PUSH2 0x1B5F DUP4 DUP4 PUSH2 0x1A41 JUMP JUMPDEST PUSH1 0x20 DUP4 ADD SWAP1 POP SWAP3 SWAP2 POP POP JUMP JUMPDEST PUSH0 PUSH1 0x20 DUP3 ADD SWAP1 POP SWAP2 SWAP1 POP JUMP JUMPDEST PUSH0 PUSH2 0x1B81 DUP3 PUSH2 0x1B2B JUMP JUMPDEST PUSH2 0x1B8B DUP2 DUP6 PUSH2 0x1B35 JUMP JUMPDEST SWAP4 POP PUSH2 0x1B96 DUP4 PUSH2 0x1B45 JUMP JUMPDEST DUP1 PUSH0 JUMPDEST DUP4 DUP2 LT ISZERO PUSH2 0x1BC6 JUMPI DUP2 MLOAD PUSH2 0x1BAD DUP9 DUP3 PUSH2 0x1B54 JUMP JUMPDEST SWAP8 POP PUSH2 0x1BB8 DUP4 PUSH2 0x1B6B JUMP JUMPDEST SWAP3 POP POP PUSH1 0x1 DUP2 ADD SWAP1 POP PUSH2 0x1B99 JUMP JUMPDEST POP DUP6 SWAP4 POP POP POP POP SWAP3 SWAP2 POP POP JUMP JUMPDEST PUSH0 PUSH1 0x20 DUP3 ADD SWAP1 POP DUP2 DUP2 SUB PUSH0 DUP4 ADD MSTORE PUSH2 0x1BEB DUP2 DUP5 PUSH2 0x1B77 JUMP JUMPDEST SWAP1 POP SWAP3 SWAP2 POP POP JUMP JUMPDEST PUSH0 PUSH1 0x20 DUP3 ADD SWAP1 POP PUSH2 0x1C06 PUSH0 DUP4 ADD DUP5 PUSH2 0x188A JUMP JUMPDEST SWAP3 SWAP2 POP POP JUMP JUMPDEST PUSH2 0x1C15 DUP2 PUSH2 0x1879 JUMP JUMPDEST DUP2 EQ PUSH2 0x1C1F JUMPI PUSH0 DUP1 REVERT JUMPDEST POP JUMP JUMPDEST PUSH0 DUP2 CALLDATALOAD SWAP1 POP PUSH2 0x1C30 DUP2 PUSH2 0x1C0C JUMP JUMPDEST SWAP3 SWAP2 POP POP JUMP JUMPDEST PUSH0 PUSH1 0x20 DUP3 DUP5 SUB SLT ISZERO PUSH2 0x1C4B JUMPI PUSH2 0x1C4A PUSH2 0x19BF JUMP JUMPDEST JUMPDEST PUSH0 PUSH2 0x1C58 DUP5 DUP3 DUP6 ADD PUSH2 0x1C22 JUMP JUMPDEST SWAP2 POP POP SWAP3 SWAP2 POP POP JUMP JUMPDEST PUSH0 PUSH2 0x1C6B DUP3 PUSH2 0x185A JUMP JUMPDEST SWAP1 POP SWAP2 SWAP1 POP JUMP JUMPDEST PUSH2 0x1C7B DUP2 PUSH2 0x1C61 JUMP JUMPDEST DUP3 MSTORE POP POP JUMP JUMPDEST PUSH0 PUSH1 0x20 DUP3 ADD SWAP1 POP PUSH2 0x1C94 PUSH0 DUP4 ADD DUP5 PUSH2 0x1C72 JUMP JUMPDEST SWAP3 SWAP2 POP POP JUMP JUMPDEST PUSH0 PUSH1 0x40 DUP3 ADD SWAP1 POP PUSH2 0x1CAD PUSH0 DUP4 ADD DUP6 PUSH2 0x188A JUMP JUMPDEST PUSH2 0x1CBA PUSH1 0x20 DUP4 ADD DUP5 PUSH2 0x18A2 JUMP JUMPDEST SWAP4 SWAP3 POP POP POP JUMP JUMPDEST PUSH0 DUP3 DUP3 MSTORE PUSH1 0x20 DUP3 ADD SWAP1 POP SWAP3 SWAP2 POP POP JUMP JUMPDEST PUSH32 0x4F6E6C79206F776E65722063616E2063616C6C20746869732066756E6374696F PUSH0 DUP3 ADD MSTORE PUSH32 0x6E00000000000000000000000000000000000000000000000000000000000000 PUSH1 0x20 DUP3 ADD MSTORE POP JUMP JUMPDEST PUSH0 PUSH2 0x1D2B PUSH1 0x21 DUP4 PUSH2 0x1CC1 JUMP JUMPDEST SWAP2 POP PUSH2 0x1D36 DUP3 PUSH2 0x1CD1 JUMP JUMPDEST PUSH1 0x40 DUP3 ADD SWAP1 POP SWAP2 SWAP1 POP JUMP JUMPDEST PUSH0 PUSH1 0x20 DUP3 ADD SWAP1 POP DUP2 DUP2 SUB PUSH0 DUP4 ADD MSTORE PUSH2 0x1D58 DUP2 PUSH2 0x1D1F JUMP JUMPDEST SWAP1 POP SWAP2 SWAP1 POP JUMP JUMPDEST PUSH32 0x496E76616C6964204E756D6265722C2070726963652063616E74206265206C65 PUSH0 DUP3 ADD MSTORE PUSH32 0x7373206F7220657175616C207468616E20300000000000000000000000000000 PUSH1 0x20 DUP3 ADD MSTORE POP JUMP JUMPDEST PUSH0 PUSH2 0x1DB9 PUSH1 0x32 DUP4 PUSH2 0x1CC1 JUMP JUMPDEST SWAP2 POP PUSH2 0x1DC4 DUP3 PUSH2 0x1D5F JUMP JUMPDEST PUSH1 0x40 DUP3 ADD SWAP1 POP SWAP2 SWAP1 POP JUMP JUMPDEST PUSH0 PUSH1 0x20 DUP3 ADD SWAP1 POP DUP2 DUP2 SUB PUSH0 DUP4 ADD MSTORE PUSH2 0x1DE6 DUP2 PUSH2 0x1DAD JUMP JUMPDEST SWAP1 POP SWAP2 SWAP1 POP JUMP JUMPDEST PUSH0 PUSH1 0x40 DUP3 ADD SWAP1 POP PUSH2 0x1E00 PUSH0 DUP4 ADD DUP6 PUSH2 0x18A2 JUMP JUMPDEST PUSH2 0x1E0D PUSH1 0x20 DUP4 ADD DUP5 PUSH2 0x18A2 JUMP JUMPDEST SWAP4 SWAP3 POP POP POP JUMP JUMPDEST PUSH32 0x4E487B7100000000000000000000000000000000000000000000000000000000 PUSH0 MSTORE PUSH1 0x11 PUSH1 0x4 MSTORE PUSH1 0x24 PUSH0 REVERT JUMPDEST PUSH0 PUSH2 0x1E4B DUP3 PUSH2 0x1899 JUMP JUMPDEST SWAP2 POP PUSH2 0x1E56 DUP4 PUSH2 0x1899 JUMP JUMPDEST SWAP3 POP DUP3 DUP3 MUL PUSH2 0x1E64 DUP2 PUSH2 0x1899 JUMP JUMPDEST SWAP2 POP DUP3 DUP3 DIV DUP5 EQ DUP4 ISZERO OR PUSH2 0x1E7B JUMPI PUSH2 0x1E7A PUSH2 0x1E14 JUMP JUMPDEST JUMPDEST POP SWAP3 SWAP2 POP POP JUMP JUMPDEST PUSH32 0x496E73756666696369656E742066756E647320666F72207469636B6574000000 PUSH0 DUP3 ADD MSTORE POP JUMP JUMPDEST PUSH0 PUSH2 0x1EB6 PUSH1 0x1D DUP4 PUSH2 0x1CC1 JUMP JUMPDEST SWAP2 POP PUSH2 0x1EC1 DUP3 PUSH2 0x1E82 JUMP JUMPDEST PUSH1 0x20 DUP3 ADD SWAP1 POP SWAP2 SWAP1 POP JUMP JUMPDEST PUSH0 PUSH1 0x20 DUP3 ADD SWAP1 POP DUP2 DUP2 SUB PUSH0 DUP4 ADD MSTORE PUSH2 0x1EE3 DUP2 PUSH2 0x1EAA JUMP JUMPDEST SWAP1 POP SWAP2 SWAP1 POP JUMP JUMPDEST PUSH32 0x496E73756666696369656E74207469636B65747320666F722073616C65000000 PUSH0 DUP3 ADD MSTORE POP JUMP JUMPDEST PUSH0 PUSH2 0x1F1E PUSH1 0x1D DUP4 PUSH2 0x1CC1 JUMP JUMPDEST SWAP2 POP PUSH2 0x1F29 DUP3 PUSH2 0x1EEA JUMP JUMPDEST PUSH1 0x20 DUP3 ADD SWAP1 POP SWAP2 SWAP1 POP JUMP JUMPDEST PUSH0 PUSH1 0x20 DUP3 ADD SWAP1 POP DUP2 DUP2 SUB PUSH0 DUP4 ADD MSTORE PUSH2 0x1F4B DUP2 PUSH2 0x1F12 JUMP JUMPDEST SWAP1 POP SWAP2 SWAP1 POP JUMP JUMPDEST PUSH0 PUSH2 0x1F5C DUP3 PUSH2 0x1899 JUMP JUMPDEST SWAP2 POP PUSH2 0x1F67 DUP4 PUSH2 0x1899 JUMP JUMPDEST SWAP3 POP DUP3 DUP3 ADD SWAP1 POP DUP1 DUP3 GT ISZERO PUSH2 0x1F7F JUMPI PUSH2 0x1F7E PUSH2 0x1E14 JUMP JUMPDEST JUMPDEST SWAP3 SWAP2 POP POP JUMP JUMPDEST PUSH0 PUSH2 0x1F8F DUP3 PUSH2 0x1899 JUMP JUMPDEST SWAP2 POP PUSH2 0x1F9A DUP4 PUSH2 0x1899 JUMP JUMPDEST SWAP3 POP DUP3 DUP3 SUB SWAP1 POP DUP2 DUP2 GT ISZERO PUSH2 0x1FB2 JUMPI PUSH2 0x1FB1 PUSH2 0x1E14 JUMP JUMPDEST JUMPDEST SWAP3 SWAP2 POP POP JUMP JUMPDEST PUSH0 DUP2 SLOAD SWAP1 POP SWAP2 SWAP1 POP JUMP JUMPDEST PUSH0 DUP2 SWAP1 POP DUP2 PUSH0 MSTORE PUSH1 0x20 PUSH0 KECCAK256 SWAP1 POP SWAP2 SWAP1 POP JUMP JUMPDEST PUSH0 DUP2 PUSH0 SHR SWAP1 POP SWAP2 SWAP1 POP JUMP JUMPDEST PUSH0 PUSH20 0xFFFFFFFFFFFFFFFFFFFFFFFFFFFFFFFFFFFFFFFF DUP3 AND SWAP1 POP SWAP2 SWAP1 POP JUMP JUMPDEST PUSH0 PUSH2 0x2010 PUSH2 0x200B DUP4 PUSH2 0x1FD4 JUMP JUMPDEST PUSH2 0x1FDF JUMP JUMPDEST SWAP1 POP SWAP2 SWAP1 POP JUMP JUMPDEST PUSH0 PUSH2 0x2022 DUP3 SLOAD PUSH2 0x1FFE JUMP JUMPDEST SWAP1 POP SWAP2 SWAP1 POP JUMP JUMPDEST PUSH0 PUSH1 0x1 DUP3 ADD SWAP1 POP SWAP2 SWAP1 POP JUMP JUMPDEST PUSH0 PUSH2 0x203F DUP3 PUSH2 0x1FB8 JUMP JUMPDEST PUSH2 0x2049 DUP2 DUP6 PUSH2 0x1B35 JUMP JUMPDEST SWAP4 POP PUSH2 0x2054 DUP4 PUSH2 0x1FC2 JUMP JUMPDEST DUP1 PUSH0 JUMPDEST DUP4 DUP2 LT ISZERO PUSH2 0x208B JUMPI PUSH2 0x2068 DUP3 PUSH2 0x2017 JUMP JUMPDEST PUSH2 0x2072 DUP9 DUP3 PUSH2 0x1B54 JUMP JUMPDEST SWAP8 POP PUSH2 0x207D DUP4 PUSH2 0x2029 JUMP JUMPDEST SWAP3 POP POP PUSH1 0x1 DUP2 ADD SWAP1 POP PUSH2 0x2057 JUMP JUMPDEST POP DUP6 SWAP4 POP POP POP POP SWAP3 SWAP2 POP POP JUMP JUMPDEST PUSH0 PUSH1 0x20 DUP3 ADD SWAP1 POP DUP2 DUP2 SUB PUSH0 DUP4 ADD MSTORE PUSH2 0x20B0 DUP2 DUP5 PUSH2 0x2035 JUMP JUMPDEST SWAP1 POP SWAP3 SWAP2 POP POP JUMP JUMPDEST PUSH32 0x4D7573742064726177206174206C65617374206F6E652077696E6E6572000000 PUSH0 DUP3 ADD MSTORE POP JUMP JUMPDEST PUSH0 PUSH2 0x20EC PUSH1 0x1D DUP4 PUSH2 0x1CC1 JUMP JUMPDEST SWAP2 POP PUSH2 0x20F7 DUP3 PUSH2 0x20B8 JUMP JUMPDEST PUSH1 0x20 DUP3 ADD SWAP1 POP SWAP2 SWAP1 POP JUMP JUMPDEST PUSH0 PUSH1 0x20 DUP3 ADD SWAP1 POP DUP2 DUP2 SUB PUSH0 DUP4 ADD MSTORE PUSH2 0x2119 DUP2 PUSH2 0x20E0 JUMP JUMPDEST SWAP1 POP SWAP2 SWAP1 POP JUMP JUMPDEST PUSH32 0x4E6F7420656E6F756768207061727469636970616E74732C206E756D62657273 PUSH0 DUP3 ADD MSTORE PUSH32 0x206F662077696E6E6572732063616E74206265206C6172676572207468616E20 PUSH1 0x20 DUP3 ADD MSTORE PUSH32 0x6E756D62657273206F66207061727469636970616E7473000000000000000000 PUSH1 0x40 DUP3 ADD MSTORE POP JUMP JUMPDEST PUSH0 PUSH2 0x21A0 PUSH1 0x57 DUP4 PUSH2 0x1CC1 JUMP JUMPDEST SWAP2 POP PUSH2 0x21AB DUP3 PUSH2 0x2120 JUMP JUMPDEST PUSH1 0x60 DUP3 ADD SWAP1 POP SWAP2 SWAP1 POP JUMP JUMPDEST PUSH0 PUSH1 0x20 DUP3 ADD SWAP1 POP DUP2 DUP2 SUB PUSH0 DUP4 ADD MSTORE PUSH2 0x21CD DUP2 PUSH2 0x2194 JUMP JUMPDEST SWAP1 POP SWAP2 SWAP1 POP JUMP JUMPDEST PUSH32 0x546F6F206D616E792077696E6E65727300000000000000000000000000000000 PUSH0 DUP3 ADD MSTORE POP JUMP JUMPDEST PUSH0 PUSH2 0x2208 PUSH1 0x10 DUP4 PUSH2 0x1CC1 JUMP JUMPDEST SWAP2 POP PUSH2 0x2213 DUP3 PUSH2 0x21D4 JUMP JUMPDEST PUSH1 0x20 DUP3 ADD SWAP1 POP SWAP2 SWAP1 POP JUMP JUMPDEST PUSH0 PUSH1 0x20 DUP3 ADD SWAP1 POP DUP2 DUP2 SUB PUSH0 DUP4 ADD MSTORE PUSH2 0x2235 DUP2 PUSH2 0x21FC JUMP JUMPDEST SWAP1 POP SWAP2 SWAP1 POP JUMP JUMPDEST PUSH32 0x4E487B7100000000000000000000000000000000000000000000000000000000 PUSH0 MSTORE PUSH1 0x41 PUSH1 0x4 MSTORE PUSH1 0x24 PUSH0 REVERT JUMPDEST PUSH32 0x4E487B7100000000000000000000000000000000000000000000000000000000 PUSH0 MSTORE PUSH1 0x12 PUSH1 0x4 MSTORE PUSH1 0x24 PUSH0 REVERT JUMPDEST PUSH0 PUSH2 0x22A0 DUP3 PUSH2 0x1899 JUMP JUMPDEST SWAP2 POP PUSH2 0x22AB DUP4 PUSH2 0x1899 JUMP JUMPDEST SWAP3 POP DUP3 PUSH2 0x22BB JUMPI PUSH2 0x22BA PUSH2 0x2269 JUMP JUMPDEST JUMPDEST DUP3 DUP3 DIV SWAP1 POP SWAP3 SWAP2 POP POP JUMP JUMPDEST PUSH32 0x4E487B7100000000000000000000000000000000000000000000000000000000 PUSH0 MSTORE PUSH1 0x32 PUSH1 0x4 MSTORE PUSH1 0x24 PUSH0 REVERT JUMPDEST PUSH0 DUP2 SWAP1 POP SWAP3 SWAP2 POP POP JUMP JUMPDEST PUSH0 PUSH2 0x2308 PUSH0 DUP4 PUSH2 0x22F3 JUMP JUMPDEST SWAP2 POP PUSH2 0x2313 DUP3 PUSH2 0x18C1 JUMP JUMPDEST PUSH0 DUP3 ADD SWAP1 POP SWAP2 SWAP1 POP JUMP JUMPDEST PUSH0 PUSH2 0x2327 DUP3 PUSH2 0x22FD JUMP JUMPDEST SWAP2 POP DUP2 SWAP1 POP SWAP2 SWAP1 POP JUMP JUMPDEST PUSH32 0x4661696C656420746F2073656E64204574686572000000000000000000000000 PUSH0 DUP3 ADD MSTORE POP JUMP JUMPDEST PUSH0 PUSH2 0x2365 PUSH1 0x14 DUP4 PUSH2 0x1CC1 JUMP JUMPDEST SWAP2 POP PUSH2 0x2370 DUP3 PUSH2 0x2331 JUMP JUMPDEST PUSH1 0x20 DUP3 ADD SWAP1 POP SWAP2 SWAP1 POP JUMP JUMPDEST PUSH0 PUSH1 0x20 DUP3 ADD SWAP1 POP DUP2 DUP2 SUB PUSH0 DUP4 ADD MSTORE PUSH2 0x2392 DUP2 PUSH2 0x2359 JUMP JUMPDEST SWAP1 POP SWAP2 SWAP1 POP JUMP JUMPDEST PUSH0 DUP2 SWAP1 POP SWAP2 SWAP1 POP JUMP JUMPDEST PUSH0 DUP2 SWAP1 POP SWAP2 SWAP1 POP JUMP JUMPDEST PUSH2 0x23BC PUSH2 0x23B7 DUP3 PUSH2 0x2399 JUMP JUMPDEST PUSH2 0x23A2 JUMP JUMPDEST DUP3 MSTORE POP POP JUMP JUMPDEST PUSH0 DUP2 SWAP1 POP SWAP2 SWAP1 POP JUMP JUMPDEST PUSH2 0x23DC PUSH2 0x23D7 DUP3 PUSH2 0x1899 JUMP JUMPDEST PUSH2 0x23C2 JUMP JUMPDEST DUP3 MSTORE POP POP JUMP JUMPDEST PUSH0 PUSH2 0x23ED DUP3 DUP7 PUSH2 0x23AB JUMP JUMPDEST PUSH1 0x20 DUP3 ADD SWAP2 POP PUSH2 0x23FD DUP3 DUP6 PUSH2 0x23CB JUMP JUMPDEST PUSH1 0x20 DUP3 ADD SWAP2 POP PUSH2 0x240D DUP3 DUP5 PUSH2 0x23CB JUMP JUMPDEST PUSH1 0x20 DUP3 ADD SWAP2 POP DUP2 SWAP1 POP SWAP5 SWAP4 POP POP POP POP JUMP JUMPDEST PUSH0 PUSH2 0x2428 DUP3 PUSH2 0x1899 JUMP JUMPDEST SWAP2 POP PUSH2 0x2433 DUP4 PUSH2 0x1899 JUMP JUMPDEST SWAP3 POP DUP3 PUSH2 0x2443 JUMPI PUSH2 0x2442 PUSH2 0x2269 JUMP JUMPDEST JUMPDEST DUP3 DUP3 MOD SWAP1 POP SWAP3 SWAP2 POP POP JUMP JUMPDEST PUSH32 0x4E487B7100000000000000000000000000000000000000000000000000000000 PUSH0 MSTORE PUSH1 0x31 PUSH1 0x4 MSTORE PUSH1 0x24 PUSH0 REVERT JUMPDEST PUSH32 0x4E6F2077696E6E657220666F756E640000000000000000000000000000000000 PUSH0 DUP3 ADD MSTORE POP JUMP JUMPDEST PUSH0 PUSH2 0x24AF PUSH1 0xF DUP4 PUSH2 0x1CC1 JUMP JUMPDEST SWAP2 POP PUSH2 0x24BA DUP3 PUSH2 0x247B JUMP JUMPDEST PUSH1 0x20 DUP3 ADD SWAP1 POP SWAP2 SWAP1 POP JUMP JUMPDEST PUSH0 PUSH1 0x20 DUP3 ADD SWAP1 POP DUP2 DUP2 SUB PUSH0 DUP4 ADD MSTORE PUSH2 0x24DC DUP2 PUSH2 0x24A3 JUMP JUMPDEST SWAP1 POP SWAP2 SWAP1 POP JUMP INVALID LOG2 PUSH5 0x6970667358 0x22 SLT KECCAK256 0xE4 0xCF LOG0 0xBC BYTE PUSH9 0xB68868FDC2A5CA57CB SSTORE 0xCC CALL 0xC2 PUSH25 0x1882A4A861798D345368954364736F6C634300081A00330000 "
				},
				"gasEstimates": {
					"creation": {
						"codeDepositCost": "1899400",
						"executionCost": "infinite",
						"totalCost": "infinite"
					},
					"external": {
						"": "infinite",
						"availableTickets()": "2492",
						"buyTicket(uint256)": "infinite",
						"consumedTickets()": "2537",
						"drawWinners(uint256)": "infinite",
						"getAvailableTickets()": "2521",
						"getConsumedTickets()": "2456",
						"getMyTickets()": "2585",
						"getOverallAllHistoryWinners()": "infinite",
						"getParticipants()": "infinite",
						"getPrizePool()": "2543",
						"getTicketPrice()": "2521",
						"getTotalTickets()": "2478",
						"getWinnerHistory()": "infinite",
						"last_X_Winners()": "2557",
						"owner()": "2638",
						"participants(uint256)": "4989",
						"pastWinners(uint256)": "infinite",
						"prizePool()": "2448",
						"setTicketPrice(uint256)": "infinite",
						"ticketPrice()": "2493",
						"ticketsBought(address)": "2869",
						"totalTickets()": "2469",
						"winnerHistory(uint256)": "4989",
						"withdrawRemaining()": "infinite"
					},
					"internal": {
						"selectRandomWinner()": "infinite"
					}
				},
				"methodIdentifiers": {
					"availableTickets()": "3cfa7e01",
					"buyTicket(uint256)": "67dd74ca",
					"consumedTickets()": "1a647251",
					"drawWinners(uint256)": "d1d06b2e",
					"getAvailableTickets()": "5a8acacc",
					"getConsumedTickets()": "0356f67e",
					"getMyTickets()": "e1d10d85",
					"getOverallAllHistoryWinners()": "2f357d12",
					"getParticipants()": "5aa68ac0",
					"getPrizePool()": "884bf67c",
					"getTicketPrice()": "87bb7ae0",
					"getTotalTickets()": "06e8337f",
					"getWinnerHistory()": "3580404b",
					"last_X_Winners()": "fcbbc922",
					"owner()": "8da5cb5b",
					"participants(uint256)": "35c1d349",
					"pastWinners(uint256)": "e499e79c",
					"prizePool()": "719ce73e",
					"setTicketPrice(uint256)": "15981650",
					"ticketPrice()": "1209b1f6",
					"ticketsBought(address)": "84bd3264",
					"totalTickets()": "dd11247e",
					"winnerHistory(uint256)": "75964b55",
					"withdrawRemaining()": "ee38db95"
				}
			},
			"storageLayout": {
				"storage": [
					{
						"astId": 8,
						"contract": "contracts/w5_LuckyDraw.sol:LuckyDraw",
						"label": "owner",
						"offset": 0,
						"slot": "0",
						"type": "t_address_payable"
					},
					{
						"astId": 10,
						"contract": "contracts/w5_LuckyDraw.sol:LuckyDraw",
						"label": "ticketPrice",
						"offset": 0,
						"slot": "1",
						"type": "t_uint256"
					},
					{
						"astId": 12,
						"contract": "contracts/w5_LuckyDraw.sol:LuckyDraw",
						"label": "totalTickets",
						"offset": 0,
						"slot": "2",
						"type": "t_uint256"
					},
					{
						"astId": 14,
						"contract": "contracts/w5_LuckyDraw.sol:LuckyDraw",
						"label": "prizePool",
						"offset": 0,
						"slot": "3",
						"type": "t_uint256"
					},
					{
						"astId": 16,
						"contract": "contracts/w5_LuckyDraw.sol:LuckyDraw",
						"label": "consumedTickets",
						"offset": 0,
						"slot": "4",
						"type": "t_uint256"
					},
					{
						"astId": 18,
						"contract": "contracts/w5_LuckyDraw.sol:LuckyDraw",
						"label": "availableTickets",
						"offset": 0,
						"slot": "5",
						"type": "t_uint256"
					},
					{
						"astId": 22,
						"contract": "contracts/w5_LuckyDraw.sol:LuckyDraw",
						"label": "ticketsBought",
						"offset": 0,
						"slot": "6",
						"type": "t_mapping(t_address,t_uint256)"
					},
					{
						"astId": 25,
						"contract": "contracts/w5_LuckyDraw.sol:LuckyDraw",
						"label": "participants",
						"offset": 0,
						"slot": "7",
						"type": "t_array(t_address)dyn_storage"
					},
					{
						"astId": 29,
						"contract": "contracts/w5_LuckyDraw.sol:LuckyDraw",
						"label": "pastWinners",
						"offset": 0,
						"slot": "8",
						"type": "t_array(t_struct(PastWinners)6_storage)dyn_storage"
					},
					{
						"astId": 32,
						"contract": "contracts/w5_LuckyDraw.sol:LuckyDraw",
						"label": "winnerHistory",
						"offset": 0,
						"slot": "9",
						"type": "t_array(t_address)dyn_storage"
					},
					{
						"astId": 34,
						"contract": "contracts/w5_LuckyDraw.sol:LuckyDraw",
						"label": "last_X_Winners",
						"offset": 0,
						"slot": "10",
						"type": "t_uint256"
					}
				],
				"types": {
					"t_address": {
						"encoding": "inplace",
						"label": "address",
						"numberOfBytes": "20"
					},
					"t_address_payable": {
						"encoding": "inplace",
						"label": "address payable",
						"numberOfBytes": "20"
					},
					"t_array(t_address)dyn_storage": {
						"base": "t_address",
						"encoding": "dynamic_array",
						"label": "address[]",
						"numberOfBytes": "32"
					},
					"t_array(t_struct(PastWinners)6_storage)dyn_storage": {
						"base": "t_struct(PastWinners)6_storage",
						"encoding": "dynamic_array",
						"label": "struct LuckyDraw.PastWinners[]",
						"numberOfBytes": "32"
					},
					"t_mapping(t_address,t_uint256)": {
						"encoding": "mapping",
						"key": "t_address",
						"label": "mapping(address => uint256)",
						"numberOfBytes": "32",
						"value": "t_uint256"
					},
					"t_struct(PastWinners)6_storage": {
						"encoding": "inplace",
						"label": "struct LuckyDraw.PastWinners",
						"members": [
							{
								"astId": 3,
								"contract": "contracts/w5_LuckyDraw.sol:LuckyDraw",
								"label": "userAddress",
								"offset": 0,
								"slot": "0",
								"type": "t_address"
							},
							{
								"astId": 5,
								"contract": "contracts/w5_LuckyDraw.sol:LuckyDraw",
								"label": "wins",
								"offset": 0,
								"slot": "1",
								"type": "t_uint256"
							}
						],
						"numberOfBytes": "64"
					},
					"t_uint256": {
						"encoding": "inplace",
						"label": "uint256",
						"numberOfBytes": "32"
					}
				}
			},
			"userdoc": {
				"kind": "user",
				"methods": {},
				"version": 1
			}
		}
	}
}