{
	"contracts/w5_LuckyDraw.sol": {
		"LuckyDraw": {
			"abi": [
				{
					"inputs": [
						{
							"internalType": "uint256",
							"name": "_ticketPrice",
							"type": "uint256"
						}
					],
					"stateMutability": "nonpayable",
					"type": "constructor"
				},
				{
					"anonymous": false,
					"inputs": [
						{
							"indexed": false,
							"internalType": "address[]",
							"name": "winners",
							"type": "address[]"
						}
					],
					"name": "WinnersDrawn",
					"type": "event"
				},
				{
					"inputs": [],
					"name": "buyTicket",
					"outputs": [],
					"stateMutability": "payable",
					"type": "function"
				},
				{
					"inputs": [
						{
							"internalType": "uint256",
							"name": "numberOfWinners",
							"type": "uint256"
						}
					],
					"name": "drawWinners",
					"outputs": [],
					"stateMutability": "nonpayable",
					"type": "function"
				},
				{
					"inputs": [],
					"name": "getMyTickets",
					"outputs": [
						{
							"internalType": "uint256",
							"name": "",
							"type": "uint256"
						}
					],
					"stateMutability": "view",
					"type": "function"
				},
				{
					"inputs": [],
					"name": "getParticipants",
					"outputs": [
						{
							"internalType": "address[]",
							"name": "",
							"type": "address[]"
						}
					],
					"stateMutability": "view",
					"type": "function"
				},
				{
					"inputs": [],
					"name": "getPrizePool",
					"outputs": [
						{
							"internalType": "uint256",
							"name": "",
							"type": "uint256"
						}
					],
					"stateMutability": "view",
					"type": "function"
				},
				{
					"inputs": [],
					"name": "getTicketPrice",
					"outputs": [
						{
							"internalType": "uint256",
							"name": "",
							"type": "uint256"
						}
					],
					"stateMutability": "view",
					"type": "function"
				},
				{
					"inputs": [],
					"name": "getTotalTickets",
					"outputs": [
						{
							"internalType": "uint256",
							"name": "",
							"type": "uint256"
						}
					],
					"stateMutability": "view",
					"type": "function"
				},
				{
					"inputs": [],
					"name": "owner",
					"outputs": [
						{
							"internalType": "address payable",
							"name": "",
							"type": "address"
						}
					],
					"stateMutability": "view",
					"type": "function"
				},
				{
					"inputs": [
						{
							"internalType": "uint256",
							"name": "",
							"type": "uint256"
						}
					],
					"name": "participants",
					"outputs": [
						{
							"internalType": "address",
							"name": "",
							"type": "address"
						}
					],
					"stateMutability": "view",
					"type": "function"
				},
				{
					"inputs": [],
					"name": "prizePool",
					"outputs": [
						{
							"internalType": "uint256",
							"name": "",
							"type": "uint256"
						}
					],
					"stateMutability": "view",
					"type": "function"
				},
				{
					"inputs": [],
					"name": "ticketPrice",
					"outputs": [
						{
							"internalType": "uint256",
							"name": "",
							"type": "uint256"
						}
					],
					"stateMutability": "view",
					"type": "function"
				},
				{
					"inputs": [
						{
							"internalType": "address",
							"name": "",
							"type": "address"
						}
					],
					"name": "ticketsBought",
					"outputs": [
						{
							"internalType": "uint256",
							"name": "",
							"type": "uint256"
						}
					],
					"stateMutability": "view",
					"type": "function"
				},
				{
					"inputs": [],
					"name": "totalTickets",
					"outputs": [
						{
							"internalType": "uint256",
							"name": "",
							"type": "uint256"
						}
					],
					"stateMutability": "view",
					"type": "function"
				},
				{
					"inputs": [],
					"name": "withdrawRemaining",
					"outputs": [],
					"stateMutability": "nonpayable",
					"type": "function"
				}
			],
			"devdoc": {
				"kind": "dev",
				"methods": {},
				"version": 1
			},
			"evm": {
				"assembly": "    /* \"contracts/w5_LuckyDraw.sol\":57:4883  contract LuckyDraw {... */\n  mstore(0x40, 0x80)\n    /* \"contracts/w5_LuckyDraw.sol\":782:893  constructor(uint _ticketPrice) {... */\n  callvalue\n  dup1\n  iszero\n  tag_1\n  jumpi\n  0x00\n  dup1\n  revert\ntag_1:\n  pop\n  mload(0x40)\n  sub(codesize, bytecodeSize)\n  dup1\n  bytecodeSize\n  dup4\n  codecopy\n  dup2\n  dup2\n  add\n  0x40\n  mstore\n  dup2\n  add\n  swap1\n  tag_2\n  swap2\n  swap1\n  tag_3\n  jump\t// in\ntag_2:\n    /* \"contracts/w5_LuckyDraw.sol\":839:849  msg.sender */\n  caller\n    /* \"contracts/w5_LuckyDraw.sol\":823:828  owner */\n  0x00\n  dup1\n    /* \"contracts/w5_LuckyDraw.sol\":823:850  owner = payable(msg.sender) */\n  0x0100\n  exp\n  dup2\n  sload\n  dup2\n  0xffffffffffffffffffffffffffffffffffffffff\n  mul\n  not\n  and\n  swap1\n  dup4\n  0xffffffffffffffffffffffffffffffffffffffff\n  and\n  mul\n  or\n  swap1\n  sstore\n  pop\n    /* \"contracts/w5_LuckyDraw.sol\":874:886  _ticketPrice */\n  dup1\n    /* \"contracts/w5_LuckyDraw.sol\":860:871  ticketPrice */\n  0x01\n    /* \"contracts/w5_LuckyDraw.sol\":860:886  ticketPrice = _ticketPrice */\n  dup2\n  swap1\n  sstore\n  pop\n    /* \"contracts/w5_LuckyDraw.sol\":782:893  constructor(uint _ticketPrice) {... */\n  pop\n    /* \"contracts/w5_LuckyDraw.sol\":57:4883  contract LuckyDraw {... */\n  jump(tag_6)\n    /* \"#utility.yul\":88:205   */\ntag_8:\n    /* \"#utility.yul\":197:198   */\n  0x00\n    /* \"#utility.yul\":194:195   */\n  dup1\n    /* \"#utility.yul\":187:199   */\n  revert\n    /* \"#utility.yul\":334:411   */\ntag_10:\n    /* \"#utility.yul\":371:378   */\n  0x00\n    /* \"#utility.yul\":400:405   */\n  dup2\n    /* \"#utility.yul\":389:405   */\n  swap1\n  pop\n    /* \"#utility.yul\":334:411   */\n  swap2\n  swap1\n  pop\n  jump\t// out\n    /* \"#utility.yul\":417:539   */\ntag_11:\n    /* \"#utility.yul\":490:514   */\n  tag_19\n    /* \"#utility.yul\":508:513   */\n  dup2\n    /* \"#utility.yul\":490:514   */\n  tag_10\n  jump\t// in\ntag_19:\n    /* \"#utility.yul\":483:488   */\n  dup2\n    /* \"#utility.yul\":480:515   */\n  eq\n    /* \"#utility.yul\":470:533   */\n  tag_20\n  jumpi\n    /* \"#utility.yul\":529:530   */\n  0x00\n    /* \"#utility.yul\":526:527   */\n  dup1\n    /* \"#utility.yul\":519:531   */\n  revert\n    /* \"#utility.yul\":470:533   */\ntag_20:\n    /* \"#utility.yul\":417:539   */\n  pop\n  jump\t// out\n    /* \"#utility.yul\":545:688   */\ntag_12:\n    /* \"#utility.yul\":602:607   */\n  0x00\n    /* \"#utility.yul\":633:639   */\n  dup2\n    /* \"#utility.yul\":627:640   */\n  mload\n    /* \"#utility.yul\":618:640   */\n  swap1\n  pop\n    /* \"#utility.yul\":649:682   */\n  tag_22\n    /* \"#utility.yul\":676:681   */\n  dup2\n    /* \"#utility.yul\":649:682   */\n  tag_11\n  jump\t// in\ntag_22:\n    /* \"#utility.yul\":545:688   */\n  swap3\n  swap2\n  pop\n  pop\n  jump\t// out\n    /* \"#utility.yul\":694:1045   */\ntag_3:\n    /* \"#utility.yul\":764:770   */\n  0x00\n    /* \"#utility.yul\":813:815   */\n  0x20\n    /* \"#utility.yul\":801:810   */\n  dup3\n    /* \"#utility.yul\":792:799   */\n  dup5\n    /* \"#utility.yul\":788:811   */\n  sub\n    /* \"#utility.yul\":784:816   */\n  slt\n    /* \"#utility.yul\":781:900   */\n  iszero\n  tag_24\n  jumpi\n    /* \"#utility.yul\":819:898   */\n  tag_25\n  tag_8\n  jump\t// in\ntag_25:\n    /* \"#utility.yul\":781:900   */\ntag_24:\n    /* \"#utility.yul\":939:940   */\n  0x00\n    /* \"#utility.yul\":964:1028   */\n  tag_26\n    /* \"#utility.yul\":1020:1027   */\n  dup5\n    /* \"#utility.yul\":1011:1017   */\n  dup3\n    /* \"#utility.yul\":1000:1009   */\n  dup6\n    /* \"#utility.yul\":996:1018   */\n  add\n    /* \"#utility.yul\":964:1028   */\n  tag_12\n  jump\t// in\ntag_26:\n    /* \"#utility.yul\":954:1028   */\n  swap2\n  pop\n    /* \"#utility.yul\":910:1038   */\n  pop\n    /* \"#utility.yul\":694:1045   */\n  swap3\n  swap2\n  pop\n  pop\n  jump\t// out\n    /* \"contracts/w5_LuckyDraw.sol\":57:4883  contract LuckyDraw {... */\ntag_6:\n  dataSize(sub_0)\n  dup1\n  dataOffset(sub_0)\n  0x00\n  codecopy\n  0x00\n  return\nstop\n\nsub_0: assembly {\n        /* \"contracts/w5_LuckyDraw.sol\":57:4883  contract LuckyDraw {... */\n      mstore(0x40, 0x80)\n      jumpi(tag_1, lt(calldatasize, 0x04))\n      shr(0xe0, calldataload(0x00))\n      dup1\n      0x884bf67c\n      gt\n      tag_16\n      jumpi\n      dup1\n      0xdd11247e\n      gt\n      tag_17\n      jumpi\n      dup1\n      0xdd11247e\n      eq\n      tag_12\n      jumpi\n      dup1\n      0xe1d10d85\n      eq\n      tag_13\n      jumpi\n      dup1\n      0xedca914c\n      eq\n      tag_14\n      jumpi\n      dup1\n      0xee38db95\n      eq\n      tag_15\n      jumpi\n      jump(tag_1)\n    tag_17:\n      dup1\n      0x884bf67c\n      eq\n      tag_9\n      jumpi\n      dup1\n      0x8da5cb5b\n      eq\n      tag_10\n      jumpi\n      dup1\n      0xd1d06b2e\n      eq\n      tag_11\n      jumpi\n      jump(tag_1)\n    tag_16:\n      dup1\n      0x5aa68ac0\n      gt\n      tag_18\n      jumpi\n      dup1\n      0x5aa68ac0\n      eq\n      tag_5\n      jumpi\n      dup1\n      0x719ce73e\n      eq\n      tag_6\n      jumpi\n      dup1\n      0x84bd3264\n      eq\n      tag_7\n      jumpi\n      dup1\n      0x87bb7ae0\n      eq\n      tag_8\n      jumpi\n      jump(tag_1)\n    tag_18:\n      dup1\n      0x06e8337f\n      eq\n      tag_2\n      jumpi\n      dup1\n      0x1209b1f6\n      eq\n      tag_3\n      jumpi\n      dup1\n      0x35c1d349\n      eq\n      tag_4\n      jumpi\n    tag_1:\n      0x00\n      dup1\n      revert\n        /* \"contracts/w5_LuckyDraw.sol\":4305:4395  function getTotalTickets() public view returns (uint) {... */\n    tag_2:\n      callvalue\n      dup1\n      iszero\n      tag_19\n      jumpi\n      0x00\n      dup1\n      revert\n    tag_19:\n      pop\n      tag_20\n      tag_21\n      jump\t// in\n    tag_20:\n      mload(0x40)\n      tag_22\n      swap2\n      swap1\n      tag_23\n      jump\t// in\n    tag_22:\n      mload(0x40)\n      dup1\n      swap2\n      sub\n      swap1\n      return\n        /* \"contracts/w5_LuckyDraw.sol\":239:262  uint public ticketPrice */\n    tag_3:\n      callvalue\n      dup1\n      iszero\n      tag_24\n      jumpi\n      0x00\n      dup1\n      revert\n    tag_24:\n      pop\n      tag_25\n      tag_26\n      jump\t// in\n    tag_25:\n      mload(0x40)\n      tag_27\n      swap2\n      swap1\n      tag_23\n      jump\t// in\n    tag_27:\n      mload(0x40)\n      dup1\n      swap2\n      sub\n      swap1\n      return\n        /* \"contracts/w5_LuckyDraw.sol\":592:621  address[] public participants */\n    tag_4:\n      callvalue\n      dup1\n      iszero\n      tag_28\n      jumpi\n      0x00\n      dup1\n      revert\n    tag_28:\n      pop\n      tag_29\n      0x04\n      dup1\n      calldatasize\n      sub\n      dup2\n      add\n      swap1\n      tag_30\n      swap2\n      swap1\n      tag_31\n      jump\t// in\n    tag_30:\n      tag_32\n      jump\t// in\n    tag_29:\n      mload(0x40)\n      tag_33\n      swap2\n      swap1\n      tag_34\n      jump\t// in\n    tag_33:\n      mload(0x40)\n      dup1\n      swap2\n      sub\n      swap1\n      return\n        /* \"contracts/w5_LuckyDraw.sol\":4597:4699  function getParticipants() public view returns (address[] memory) {... */\n    tag_5:\n      callvalue\n      dup1\n      iszero\n      tag_35\n      jumpi\n      0x00\n      dup1\n      revert\n    tag_35:\n      pop\n      tag_36\n      tag_37\n      jump\t// in\n    tag_36:\n      mload(0x40)\n      tag_38\n      swap2\n      swap1\n      tag_39\n      jump\t// in\n    tag_38:\n      mload(0x40)\n      dup1\n      swap2\n      sub\n      swap1\n      return\n        /* \"contracts/w5_LuckyDraw.sol\":383:404  uint public prizePool */\n    tag_6:\n      callvalue\n      dup1\n      iszero\n      tag_40\n      jumpi\n      0x00\n      dup1\n      revert\n    tag_40:\n      pop\n      tag_41\n      tag_42\n      jump\t// in\n    tag_41:\n      mload(0x40)\n      tag_43\n      swap2\n      swap1\n      tag_23\n      jump\t// in\n    tag_43:\n      mload(0x40)\n      dup1\n      swap2\n      sub\n      swap1\n      return\n        /* \"contracts/w5_LuckyDraw.sol\":467:512  mapping(address => uint) public ticketsBought */\n    tag_7:\n      callvalue\n      dup1\n      iszero\n      tag_44\n      jumpi\n      0x00\n      dup1\n      revert\n    tag_44:\n      pop\n      tag_45\n      0x04\n      dup1\n      calldatasize\n      sub\n      dup2\n      add\n      swap1\n      tag_46\n      swap2\n      swap1\n      tag_47\n      jump\t// in\n    tag_46:\n      tag_48\n      jump\t// in\n    tag_45:\n      mload(0x40)\n      tag_49\n      swap2\n      swap1\n      tag_23\n      jump\t// in\n    tag_49:\n      mload(0x40)\n      dup1\n      swap2\n      sub\n      swap1\n      return\n        /* \"contracts/w5_LuckyDraw.sol\":4211:4299  function getTicketPrice() public view returns (uint) {... */\n    tag_8:\n      callvalue\n      dup1\n      iszero\n      tag_50\n      jumpi\n      0x00\n      dup1\n      revert\n    tag_50:\n      pop\n      tag_51\n      tag_52\n      jump\t// in\n    tag_51:\n      mload(0x40)\n      tag_53\n      swap2\n      swap1\n      tag_23\n      jump\t// in\n    tag_53:\n      mload(0x40)\n      dup1\n      swap2\n      sub\n      swap1\n      return\n        /* \"contracts/w5_LuckyDraw.sol\":4401:4485  function getPrizePool() public view returns (uint) {... */\n    tag_9:\n      callvalue\n      dup1\n      iszero\n      tag_54\n      jumpi\n      0x00\n      dup1\n      revert\n    tag_54:\n      pop\n      tag_55\n      tag_56\n      jump\t// in\n    tag_55:\n      mload(0x40)\n      tag_57\n      swap2\n      swap1\n      tag_23\n      jump\t// in\n    tag_57:\n      mload(0x40)\n      dup1\n      swap2\n      sub\n      swap1\n      return\n        /* \"contracts/w5_LuckyDraw.sol\":162:190  address payable public owner */\n    tag_10:\n      callvalue\n      dup1\n      iszero\n      tag_58\n      jumpi\n      0x00\n      dup1\n      revert\n    tag_58:\n      pop\n      tag_59\n      tag_60\n      jump\t// in\n    tag_59:\n      mload(0x40)\n      tag_61\n      swap2\n      swap1\n      tag_62\n      jump\t// in\n    tag_61:\n      mload(0x40)\n      dup1\n      swap2\n      sub\n      swap1\n      return\n        /* \"contracts/w5_LuckyDraw.sol\":1457:2480  function drawWinners(uint numberOfWinners) public onlyOwner {... */\n    tag_11:\n      callvalue\n      dup1\n      iszero\n      tag_63\n      jumpi\n      0x00\n      dup1\n      revert\n    tag_63:\n      pop\n      tag_64\n      0x04\n      dup1\n      calldatasize\n      sub\n      dup2\n      add\n      swap1\n      tag_65\n      swap2\n      swap1\n      tag_31\n      jump\t// in\n    tag_65:\n      tag_66\n      jump\t// in\n    tag_64:\n      stop\n        /* \"contracts/w5_LuckyDraw.sol\":310:334  uint public totalTickets */\n    tag_12:\n      callvalue\n      dup1\n      iszero\n      tag_67\n      jumpi\n      0x00\n      dup1\n      revert\n    tag_67:\n      pop\n      tag_68\n      tag_69\n      jump\t// in\n    tag_68:\n      mload(0x40)\n      tag_70\n      swap2\n      swap1\n      tag_23\n      jump\t// in\n    tag_70:\n      mload(0x40)\n      dup1\n      swap2\n      sub\n      swap1\n      return\n        /* \"contracts/w5_LuckyDraw.sol\":4491:4591  function getMyTickets() public view returns (uint) {... */\n    tag_13:\n      callvalue\n      dup1\n      iszero\n      tag_71\n      jumpi\n      0x00\n      dup1\n      revert\n    tag_71:\n      pop\n      tag_72\n      tag_73\n      jump\t// in\n    tag_72:\n      mload(0x40)\n      tag_74\n      swap2\n      swap1\n      tag_23\n      jump\t// in\n    tag_74:\n      mload(0x40)\n      dup1\n      swap2\n      sub\n      swap1\n      return\n        /* \"contracts/w5_LuckyDraw.sol\":955:1389  function buyTicket() public payable {... */\n    tag_14:\n      tag_75\n      tag_76\n      jump\t// in\n    tag_75:\n      stop\n        /* \"contracts/w5_LuckyDraw.sol\":3991:4161  function withdrawRemaining() public onlyOwner {... */\n    tag_15:\n      callvalue\n      dup1\n      iszero\n      tag_77\n      jumpi\n      0x00\n      dup1\n      revert\n    tag_77:\n      pop\n      tag_78\n      tag_79\n      jump\t// in\n    tag_78:\n      stop\n        /* \"contracts/w5_LuckyDraw.sol\":4305:4395  function getTotalTickets() public view returns (uint) {... */\n    tag_21:\n        /* \"contracts/w5_LuckyDraw.sol\":4353:4357  uint */\n      0x00\n        /* \"contracts/w5_LuckyDraw.sol\":4376:4388  totalTickets */\n      sload(0x02)\n        /* \"contracts/w5_LuckyDraw.sol\":4369:4388  return totalTickets */\n      swap1\n      pop\n        /* \"contracts/w5_LuckyDraw.sol\":4305:4395  function getTotalTickets() public view returns (uint) {... */\n      swap1\n      jump\t// out\n        /* \"contracts/w5_LuckyDraw.sol\":239:262  uint public ticketPrice */\n    tag_26:\n      sload(0x01)\n      dup2\n      jump\t// out\n        /* \"contracts/w5_LuckyDraw.sol\":592:621  address[] public participants */\n    tag_32:\n      0x05\n      dup2\n      dup2\n      sload\n      dup2\n      lt\n      tag_81\n      jumpi\n      0x00\n      dup1\n      revert\n    tag_81:\n      swap1\n      0x00\n      mstore\n      keccak256(0x00, 0x20)\n      add\n      0x00\n      swap2\n      pop\n      sload\n      swap1\n      0x0100\n      exp\n      swap1\n      div\n      0xffffffffffffffffffffffffffffffffffffffff\n      and\n      dup2\n      jump\t// out\n        /* \"contracts/w5_LuckyDraw.sol\":4597:4699  function getParticipants() public view returns (address[] memory) {... */\n    tag_37:\n        /* \"contracts/w5_LuckyDraw.sol\":4645:4661  address[] memory */\n      0x60\n        /* \"contracts/w5_LuckyDraw.sol\":4680:4692  participants */\n      0x05\n        /* \"contracts/w5_LuckyDraw.sol\":4673:4692  return participants */\n      dup1\n      sload\n      dup1\n      0x20\n      mul\n      0x20\n      add\n      mload(0x40)\n      swap1\n      dup2\n      add\n      0x40\n      mstore\n      dup1\n      swap3\n      swap2\n      swap1\n      dup2\n      dup2\n      mstore\n      0x20\n      add\n      dup3\n      dup1\n      sload\n      dup1\n      iszero\n      tag_84\n      jumpi\n      0x20\n      mul\n      dup3\n      add\n      swap2\n      swap1\n      0x00\n      mstore\n      keccak256(0x00, 0x20)\n      swap1\n    tag_85:\n      dup2\n      0x00\n      swap1\n      sload\n      swap1\n      0x0100\n      exp\n      swap1\n      div\n      0xffffffffffffffffffffffffffffffffffffffff\n      and\n      0xffffffffffffffffffffffffffffffffffffffff\n      and\n      dup2\n      mstore\n      0x20\n      add\n      swap1\n      0x01\n      add\n      swap1\n      dup1\n      dup4\n      gt\n      tag_85\n      jumpi\n    tag_84:\n      pop\n      pop\n      pop\n      pop\n      pop\n      swap1\n      pop\n        /* \"contracts/w5_LuckyDraw.sol\":4597:4699  function getParticipants() public view returns (address[] memory) {... */\n      swap1\n      jump\t// out\n        /* \"contracts/w5_LuckyDraw.sol\":383:404  uint public prizePool */\n    tag_42:\n      sload(0x03)\n      dup2\n      jump\t// out\n        /* \"contracts/w5_LuckyDraw.sol\":467:512  mapping(address => uint) public ticketsBought */\n    tag_48:\n      mstore(0x20, 0x04)\n      dup1\n      0x00\n      mstore\n      keccak256(0x00, 0x40)\n      0x00\n      swap2\n      pop\n      swap1\n      pop\n      sload\n      dup2\n      jump\t// out\n        /* \"contracts/w5_LuckyDraw.sol\":4211:4299  function getTicketPrice() public view returns (uint) {... */\n    tag_52:\n        /* \"contracts/w5_LuckyDraw.sol\":4258:4262  uint */\n      0x00\n        /* \"contracts/w5_LuckyDraw.sol\":4281:4292  ticketPrice */\n      sload(0x01)\n        /* \"contracts/w5_LuckyDraw.sol\":4274:4292  return ticketPrice */\n      swap1\n      pop\n        /* \"contracts/w5_LuckyDraw.sol\":4211:4299  function getTicketPrice() public view returns (uint) {... */\n      swap1\n      jump\t// out\n        /* \"contracts/w5_LuckyDraw.sol\":4401:4485  function getPrizePool() public view returns (uint) {... */\n    tag_56:\n        /* \"contracts/w5_LuckyDraw.sol\":4446:4450  uint */\n      0x00\n        /* \"contracts/w5_LuckyDraw.sol\":4469:4478  prizePool */\n      sload(0x03)\n        /* \"contracts/w5_LuckyDraw.sol\":4462:4478  return prizePool */\n      swap1\n      pop\n        /* \"contracts/w5_LuckyDraw.sol\":4401:4485  function getPrizePool() public view returns (uint) {... */\n      swap1\n      jump\t// out\n        /* \"contracts/w5_LuckyDraw.sol\":162:190  address payable public owner */\n    tag_60:\n      0x00\n      dup1\n      sload\n      swap1\n      0x0100\n      exp\n      swap1\n      div\n      0xffffffffffffffffffffffffffffffffffffffff\n      and\n      dup2\n      jump\t// out\n        /* \"contracts/w5_LuckyDraw.sol\":1457:2480  function drawWinners(uint numberOfWinners) public onlyOwner {... */\n    tag_66:\n        /* \"contracts/w5_LuckyDraw.sol\":4820:4825  owner */\n      0x00\n      dup1\n      sload\n      swap1\n      0x0100\n      exp\n      swap1\n      div\n      0xffffffffffffffffffffffffffffffffffffffff\n      and\n        /* \"contracts/w5_LuckyDraw.sol\":4806:4825  msg.sender == owner */\n      0xffffffffffffffffffffffffffffffffffffffff\n      and\n        /* \"contracts/w5_LuckyDraw.sol\":4806:4816  msg.sender */\n      caller\n        /* \"contracts/w5_LuckyDraw.sol\":4806:4825  msg.sender == owner */\n      0xffffffffffffffffffffffffffffffffffffffff\n      and\n      eq\n        /* \"contracts/w5_LuckyDraw.sol\":4798:4863  require(msg.sender == owner, \"Only owner can call this function\") */\n      tag_89\n      jumpi\n      mload(0x40)\n      0x08c379a000000000000000000000000000000000000000000000000000000000\n      dup2\n      mstore\n      0x04\n      add\n      tag_90\n      swap1\n      tag_91\n      jump\t// in\n    tag_90:\n      mload(0x40)\n      dup1\n      swap2\n      sub\n      swap1\n      revert\n    tag_89:\n        /* \"contracts/w5_LuckyDraw.sol\":1553:1554  0 */\n      0x00\n        /* \"contracts/w5_LuckyDraw.sol\":1535:1550  numberOfWinners */\n      dup2\n        /* \"contracts/w5_LuckyDraw.sol\":1535:1554  numberOfWinners > 0 */\n      gt\n        /* \"contracts/w5_LuckyDraw.sol\":1527:1588  require(numberOfWinners > 0, \"Must draw at least one winner\") */\n      tag_93\n      jumpi\n      mload(0x40)\n      0x08c379a000000000000000000000000000000000000000000000000000000000\n      dup2\n      mstore\n      0x04\n      add\n      tag_94\n      swap1\n      tag_95\n      jump\t// in\n    tag_94:\n      mload(0x40)\n      dup1\n      swap2\n      sub\n      swap1\n      revert\n    tag_93:\n        /* \"contracts/w5_LuckyDraw.sol\":1625:1637  participants */\n      0x05\n        /* \"contracts/w5_LuckyDraw.sol\":1625:1644  participants.length */\n      dup1\n      sload\n      swap1\n      pop\n        /* \"contracts/w5_LuckyDraw.sol\":1606:1621  numberOfWinners */\n      dup2\n        /* \"contracts/w5_LuckyDraw.sol\":1606:1644  numberOfWinners <= participants.length */\n      gt\n      iszero\n        /* \"contracts/w5_LuckyDraw.sol\":1598:1672  require(numberOfWinners <= participants.length, \"Not enough participants\") */\n      tag_96\n      jumpi\n      mload(0x40)\n      0x08c379a000000000000000000000000000000000000000000000000000000000\n      dup2\n      mstore\n      0x04\n      add\n      tag_97\n      swap1\n      tag_98\n      jump\t// in\n    tag_97:\n      mload(0x40)\n      dup1\n      swap2\n      sub\n      swap1\n      revert\n    tag_96:\n        /* \"contracts/w5_LuckyDraw.sol\":1706:1721  numberOfWinners */\n      dup1\n        /* \"contracts/w5_LuckyDraw.sol\":1690:1702  totalTickets */\n      sload(0x02)\n        /* \"contracts/w5_LuckyDraw.sol\":1690:1721  totalTickets >= numberOfWinners */\n      lt\n      iszero\n        /* \"contracts/w5_LuckyDraw.sol\":1682:1749  require(totalTickets >= numberOfWinners, \"Not enough tickets sold\") */\n      tag_99\n      jumpi\n      mload(0x40)\n      0x08c379a000000000000000000000000000000000000000000000000000000000\n      dup2\n      mstore\n      0x04\n      add\n      tag_100\n      swap1\n      tag_101\n      jump\t// in\n    tag_100:\n      mload(0x40)\n      dup1\n      swap2\n      sub\n      swap1\n      revert\n    tag_99:\n        /* \"contracts/w5_LuckyDraw.sol\":1810:1834  address[] memory winners */\n      0x00\n        /* \"contracts/w5_LuckyDraw.sol\":1851:1866  numberOfWinners */\n      dup2\n        /* \"contracts/w5_LuckyDraw.sol\":1837:1867  new address[](numberOfWinners) */\n      0xffffffffffffffff\n      dup2\n      gt\n      iszero\n      tag_102\n      jumpi\n      tag_103\n      tag_104\n      jump\t// in\n    tag_103:\n    tag_102:\n      mload(0x40)\n      swap1\n      dup1\n      dup3\n      mstore\n      dup1\n      0x20\n      mul\n      0x20\n      add\n      dup3\n      add\n      0x40\n      mstore\n      dup1\n      iszero\n      tag_105\n      jumpi\n      dup2\n      0x20\n      add\n      0x20\n      dup3\n      mul\n      dup1\n      calldatasize\n      dup4\n      calldatacopy\n      dup1\n      dup3\n      add\n      swap2\n      pop\n      pop\n      swap1\n      pop\n    tag_105:\n      pop\n        /* \"contracts/w5_LuckyDraw.sol\":1810:1867  address[] memory winners = new address[](numberOfWinners) */\n      swap1\n      pop\n        /* \"contracts/w5_LuckyDraw.sol\":1960:1975  uint totalPrize */\n      0x00\n        /* \"contracts/w5_LuckyDraw.sol\":1997:2000  100 */\n      0x64\n        /* \"contracts/w5_LuckyDraw.sol\":1991:1993  90 */\n      0x5a\n        /* \"contracts/w5_LuckyDraw.sol\":1979:1988  prizePool */\n      sload(0x03)\n        /* \"contracts/w5_LuckyDraw.sol\":1979:1993  prizePool * 90 */\n      tag_106\n      swap2\n      swap1\n      tag_107\n      jump\t// in\n    tag_106:\n        /* \"contracts/w5_LuckyDraw.sol\":1978:2000  (prizePool * 90) / 100 */\n      tag_108\n      swap2\n      swap1\n      tag_109\n      jump\t// in\n    tag_108:\n        /* \"contracts/w5_LuckyDraw.sol\":1960:2000  uint totalPrize = (prizePool * 90) / 100 */\n      swap1\n      pop\n        /* \"contracts/w5_LuckyDraw.sol\":2010:2029  uint sharePerWinner */\n      0x00\n        /* \"contracts/w5_LuckyDraw.sol\":2045:2060  numberOfWinners */\n      dup4\n        /* \"contracts/w5_LuckyDraw.sol\":2032:2042  totalPrize */\n      dup3\n        /* \"contracts/w5_LuckyDraw.sol\":2032:2060  totalPrize / numberOfWinners */\n      tag_110\n      swap2\n      swap1\n      tag_109\n      jump\t// in\n    tag_110:\n        /* \"contracts/w5_LuckyDraw.sol\":2010:2060  uint sharePerWinner = totalPrize / numberOfWinners */\n      swap1\n      pop\n        /* \"contracts/w5_LuckyDraw.sol\":2124:2130  uint i */\n      0x00\n        /* \"contracts/w5_LuckyDraw.sol\":2119:2352  for (uint i = 0; i < numberOfWinners; i++) {... */\n    tag_111:\n        /* \"contracts/w5_LuckyDraw.sol\":2140:2155  numberOfWinners */\n      dup5\n        /* \"contracts/w5_LuckyDraw.sol\":2136:2137  i */\n      dup2\n        /* \"contracts/w5_LuckyDraw.sol\":2136:2155  i < numberOfWinners */\n      lt\n        /* \"contracts/w5_LuckyDraw.sol\":2119:2352  for (uint i = 0; i < numberOfWinners; i++) {... */\n      iszero\n      tag_112\n      jumpi\n        /* \"contracts/w5_LuckyDraw.sol\":2189:2209  selectRandomWinner() */\n      tag_114\n        /* \"contracts/w5_LuckyDraw.sol\":2189:2207  selectRandomWinner */\n      tag_115\n        /* \"contracts/w5_LuckyDraw.sol\":2189:2209  selectRandomWinner() */\n      jump\t// in\n    tag_114:\n        /* \"contracts/w5_LuckyDraw.sol\":2176:2183  winners */\n      dup5\n        /* \"contracts/w5_LuckyDraw.sol\":2184:2185  i */\n      dup3\n        /* \"contracts/w5_LuckyDraw.sol\":2176:2186  winners[i] */\n      dup2\n      mload\n      dup2\n      lt\n      tag_116\n      jumpi\n      tag_117\n      tag_118\n      jump\t// in\n    tag_117:\n    tag_116:\n      0x20\n      mul\n      0x20\n      add\n      add\n        /* \"contracts/w5_LuckyDraw.sol\":2176:2209  winners[i] = selectRandomWinner() */\n      swap1\n      0xffffffffffffffffffffffffffffffffffffffff\n      and\n      swap1\n      dup2\n      0xffffffffffffffffffffffffffffffffffffffff\n      and\n      dup2\n      mstore\n      pop\n      pop\n        /* \"contracts/w5_LuckyDraw.sol\":2224:2233  bool sent */\n      0x00\n        /* \"contracts/w5_LuckyDraw.sol\":2247:2254  winners */\n      dup5\n        /* \"contracts/w5_LuckyDraw.sol\":2255:2256  i */\n      dup3\n        /* \"contracts/w5_LuckyDraw.sol\":2247:2257  winners[i] */\n      dup2\n      mload\n      dup2\n      lt\n      tag_119\n      jumpi\n      tag_120\n      tag_118\n      jump\t// in\n    tag_120:\n    tag_119:\n      0x20\n      mul\n      0x20\n      add\n      add\n      mload\n        /* \"contracts/w5_LuckyDraw.sol\":2239:2263  payable(winners[i]).call */\n      0xffffffffffffffffffffffffffffffffffffffff\n      and\n        /* \"contracts/w5_LuckyDraw.sol\":2271:2285  sharePerWinner */\n      dup4\n        /* \"contracts/w5_LuckyDraw.sol\":2239:2290  payable(winners[i]).call{value: sharePerWinner}(\"\") */\n      mload(0x40)\n      tag_121\n      swap1\n      tag_122\n      jump\t// in\n    tag_121:\n      0x00\n      mload(0x40)\n      dup1\n      dup4\n      sub\n      dup2\n      dup6\n      dup8\n      gas\n      call\n      swap3\n      pop\n      pop\n      pop\n      returndatasize\n      dup1\n      0x00\n      dup2\n      eq\n      tag_125\n      jumpi\n      mload(0x40)\n      swap2\n      pop\n      and(add(returndatasize, 0x3f), not(0x1f))\n      dup3\n      add\n      0x40\n      mstore\n      returndatasize\n      dup3\n      mstore\n      returndatasize\n      0x00\n      0x20\n      dup5\n      add\n      returndatacopy\n      jump(tag_124)\n    tag_125:\n      0x60\n      swap2\n      pop\n    tag_124:\n      pop\n        /* \"contracts/w5_LuckyDraw.sol\":2223:2290  (bool sent, ) = payable(winners[i]).call{value: sharePerWinner}(\"\") */\n      pop\n      swap1\n      pop\n        /* \"contracts/w5_LuckyDraw.sol\":2312:2316  sent */\n      dup1\n        /* \"contracts/w5_LuckyDraw.sol\":2304:2341  require(sent, \"Failed to send Ether\") */\n      tag_126\n      jumpi\n      mload(0x40)\n      0x08c379a000000000000000000000000000000000000000000000000000000000\n      dup2\n      mstore\n      0x04\n      add\n      tag_127\n      swap1\n      tag_128\n      jump\t// in\n    tag_127:\n      mload(0x40)\n      dup1\n      swap2\n      sub\n      swap1\n      revert\n    tag_126:\n        /* \"contracts/w5_LuckyDraw.sol\":2162:2352  {... */\n      pop\n        /* \"contracts/w5_LuckyDraw.sol\":2157:2160  i++ */\n      dup1\n      dup1\n      0x01\n      add\n      swap2\n      pop\n      pop\n        /* \"contracts/w5_LuckyDraw.sol\":2119:2352  for (uint i = 0; i < numberOfWinners; i++) {... */\n      jump(tag_111)\n    tag_112:\n      pop\n        /* \"contracts/w5_LuckyDraw.sol\":2427:2437  totalPrize */\n      dup2\n        /* \"contracts/w5_LuckyDraw.sol\":2414:2423  prizePool */\n      0x03\n      0x00\n        /* \"contracts/w5_LuckyDraw.sol\":2414:2437  prizePool -= totalPrize */\n      dup3\n      dup3\n      sload\n      tag_129\n      swap2\n      swap1\n      tag_130\n      jump\t// in\n    tag_129:\n      swap3\n      pop\n      pop\n      dup2\n      swap1\n      sstore\n      pop\n        /* \"contracts/w5_LuckyDraw.sol\":2452:2473  WinnersDrawn(winners) */\n      0x01e26fd9468170c075e6afc90d001d0e84ba9f84a6816461d03d2a4e7f6aa7de\n        /* \"contracts/w5_LuckyDraw.sol\":2465:2472  winners */\n      dup4\n        /* \"contracts/w5_LuckyDraw.sol\":2452:2473  WinnersDrawn(winners) */\n      mload(0x40)\n      tag_131\n      swap2\n      swap1\n      tag_39\n      jump\t// in\n    tag_131:\n      mload(0x40)\n      dup1\n      swap2\n      sub\n      swap1\n      log1\n        /* \"contracts/w5_LuckyDraw.sol\":1517:2480  {... */\n      pop\n      pop\n      pop\n        /* \"contracts/w5_LuckyDraw.sol\":1457:2480  function drawWinners(uint numberOfWinners) public onlyOwner {... */\n      pop\n      jump\t// out\n        /* \"contracts/w5_LuckyDraw.sol\":310:334  uint public totalTickets */\n    tag_69:\n      sload(0x02)\n      dup2\n      jump\t// out\n        /* \"contracts/w5_LuckyDraw.sol\":4491:4591  function getMyTickets() public view returns (uint) {... */\n    tag_73:\n        /* \"contracts/w5_LuckyDraw.sol\":4536:4540  uint */\n      0x00\n        /* \"contracts/w5_LuckyDraw.sol\":4559:4572  ticketsBought */\n      0x04\n        /* \"contracts/w5_LuckyDraw.sol\":4559:4584  ticketsBought[msg.sender] */\n      0x00\n        /* \"contracts/w5_LuckyDraw.sol\":4573:4583  msg.sender */\n      caller\n        /* \"contracts/w5_LuckyDraw.sol\":4559:4584  ticketsBought[msg.sender] */\n      0xffffffffffffffffffffffffffffffffffffffff\n      and\n      0xffffffffffffffffffffffffffffffffffffffff\n      and\n      dup2\n      mstore\n      0x20\n      add\n      swap1\n      dup2\n      mstore\n      0x20\n      add\n      0x00\n      keccak256\n      sload\n        /* \"contracts/w5_LuckyDraw.sol\":4552:4584  return ticketsBought[msg.sender] */\n      swap1\n      pop\n        /* \"contracts/w5_LuckyDraw.sol\":4491:4591  function getMyTickets() public view returns (uint) {... */\n      swap1\n      jump\t// out\n        /* \"contracts/w5_LuckyDraw.sol\":955:1389  function buyTicket() public payable {... */\n    tag_76:\n        /* \"contracts/w5_LuckyDraw.sol\":1022:1033  ticketPrice */\n      sload(0x01)\n        /* \"contracts/w5_LuckyDraw.sol\":1009:1018  msg.value */\n      callvalue\n        /* \"contracts/w5_LuckyDraw.sol\":1009:1033  msg.value >= ticketPrice */\n      lt\n      iszero\n        /* \"contracts/w5_LuckyDraw.sol\":1001:1067  require(msg.value >= ticketPrice, \"Insufficient funds for ticket\") */\n      tag_134\n      jumpi\n      mload(0x40)\n      0x08c379a000000000000000000000000000000000000000000000000000000000\n      dup2\n      mstore\n      0x04\n      add\n      tag_135\n      swap1\n      tag_136\n      jump\t// in\n    tag_135:\n      mload(0x40)\n      dup1\n      swap2\n      sub\n      swap1\n      revert\n    tag_134:\n        /* \"contracts/w5_LuckyDraw.sol\":1177:1178  0 */\n      0x00\n        /* \"contracts/w5_LuckyDraw.sol\":1148:1161  ticketsBought */\n      0x04\n        /* \"contracts/w5_LuckyDraw.sol\":1148:1173  ticketsBought[msg.sender] */\n      0x00\n        /* \"contracts/w5_LuckyDraw.sol\":1162:1172  msg.sender */\n      caller\n        /* \"contracts/w5_LuckyDraw.sol\":1148:1173  ticketsBought[msg.sender] */\n      0xffffffffffffffffffffffffffffffffffffffff\n      and\n      0xffffffffffffffffffffffffffffffffffffffff\n      and\n      dup2\n      mstore\n      0x20\n      add\n      swap1\n      dup2\n      mstore\n      0x20\n      add\n      0x00\n      keccak256\n      sload\n        /* \"contracts/w5_LuckyDraw.sol\":1148:1178  ticketsBought[msg.sender] == 0 */\n      sub\n        /* \"contracts/w5_LuckyDraw.sol\":1144:1234  if (ticketsBought[msg.sender] == 0) {... */\n      tag_137\n      jumpi\n        /* \"contracts/w5_LuckyDraw.sol\":1194:1206  participants */\n      0x05\n        /* \"contracts/w5_LuckyDraw.sol\":1212:1222  msg.sender */\n      caller\n        /* \"contracts/w5_LuckyDraw.sol\":1194:1223  participants.push(msg.sender) */\n      swap1\n      dup1\n      0x01\n      dup2\n      sload\n      add\n      dup1\n      dup3\n      sstore\n      dup1\n      swap2\n      pop\n      pop\n      0x01\n      swap1\n      sub\n      swap1\n      0x00\n      mstore\n      keccak256(0x00, 0x20)\n      add\n      0x00\n      swap1\n      swap2\n      swap1\n      swap2\n      swap1\n      swap2\n      0x0100\n      exp\n      dup2\n      sload\n      dup2\n      0xffffffffffffffffffffffffffffffffffffffff\n      mul\n      not\n      and\n      swap1\n      dup4\n      0xffffffffffffffffffffffffffffffffffffffff\n      and\n      mul\n      or\n      swap1\n      sstore\n      pop\n        /* \"contracts/w5_LuckyDraw.sol\":1144:1234  if (ticketsBought[msg.sender] == 0) {... */\n    tag_137:\n        /* \"contracts/w5_LuckyDraw.sol\":1299:1312  ticketsBought */\n      0x04\n        /* \"contracts/w5_LuckyDraw.sol\":1299:1324  ticketsBought[msg.sender] */\n      0x00\n        /* \"contracts/w5_LuckyDraw.sol\":1313:1323  msg.sender */\n      caller\n        /* \"contracts/w5_LuckyDraw.sol\":1299:1324  ticketsBought[msg.sender] */\n      0xffffffffffffffffffffffffffffffffffffffff\n      and\n      0xffffffffffffffffffffffffffffffffffffffff\n      and\n      dup2\n      mstore\n      0x20\n      add\n      swap1\n      dup2\n      mstore\n      0x20\n      add\n      0x00\n      keccak256\n      0x00\n        /* \"contracts/w5_LuckyDraw.sol\":1299:1326  ticketsBought[msg.sender]++ */\n      dup2\n      sload\n      dup1\n      swap3\n      swap2\n      swap1\n      tag_139\n      swap1\n      tag_140\n      jump\t// in\n    tag_139:\n      swap2\n      swap1\n      pop\n      sstore\n      pop\n        /* \"contracts/w5_LuckyDraw.sol\":1336:1348  totalTickets */\n      0x02\n      0x00\n        /* \"contracts/w5_LuckyDraw.sol\":1336:1350  totalTickets++ */\n      dup2\n      sload\n      dup1\n      swap3\n      swap2\n      swap1\n      tag_141\n      swap1\n      tag_140\n      jump\t// in\n    tag_141:\n      swap2\n      swap1\n      pop\n      sstore\n      pop\n        /* \"contracts/w5_LuckyDraw.sol\":1373:1382  msg.value */\n      callvalue\n        /* \"contracts/w5_LuckyDraw.sol\":1360:1369  prizePool */\n      0x03\n      0x00\n        /* \"contracts/w5_LuckyDraw.sol\":1360:1382  prizePool += msg.value */\n      dup3\n      dup3\n      sload\n      tag_142\n      swap2\n      swap1\n      tag_143\n      jump\t// in\n    tag_142:\n      swap3\n      pop\n      pop\n      dup2\n      swap1\n      sstore\n      pop\n        /* \"contracts/w5_LuckyDraw.sol\":955:1389  function buyTicket() public payable {... */\n      jump\t// out\n        /* \"contracts/w5_LuckyDraw.sol\":3991:4161  function withdrawRemaining() public onlyOwner {... */\n    tag_79:\n        /* \"contracts/w5_LuckyDraw.sol\":4820:4825  owner */\n      0x00\n      dup1\n      sload\n      swap1\n      0x0100\n      exp\n      swap1\n      div\n      0xffffffffffffffffffffffffffffffffffffffff\n      and\n        /* \"contracts/w5_LuckyDraw.sol\":4806:4825  msg.sender == owner */\n      0xffffffffffffffffffffffffffffffffffffffff\n      and\n        /* \"contracts/w5_LuckyDraw.sol\":4806:4816  msg.sender */\n      caller\n        /* \"contracts/w5_LuckyDraw.sol\":4806:4825  msg.sender == owner */\n      0xffffffffffffffffffffffffffffffffffffffff\n      and\n      eq\n        /* \"contracts/w5_LuckyDraw.sol\":4798:4863  require(msg.sender == owner, \"Only owner can call this function\") */\n      tag_145\n      jumpi\n      mload(0x40)\n      0x08c379a000000000000000000000000000000000000000000000000000000000\n      dup2\n      mstore\n      0x04\n      add\n      tag_146\n      swap1\n      tag_91\n      jump\t// in\n    tag_146:\n      mload(0x40)\n      dup1\n      swap2\n      sub\n      swap1\n      revert\n    tag_145:\n        /* \"contracts/w5_LuckyDraw.sol\":4048:4057  bool sent */\n      0x00\n        /* \"contracts/w5_LuckyDraw.sol\":4063:4068  owner */\n      dup1\n      0x00\n      swap1\n      sload\n      swap1\n      0x0100\n      exp\n      swap1\n      div\n      0xffffffffffffffffffffffffffffffffffffffff\n      and\n        /* \"contracts/w5_LuckyDraw.sol\":4063:4073  owner.call */\n      0xffffffffffffffffffffffffffffffffffffffff\n      and\n        /* \"contracts/w5_LuckyDraw.sol\":4081:4102  address(this).balance */\n      selfbalance\n        /* \"contracts/w5_LuckyDraw.sol\":4063:4107  owner.call{value: address(this).balance}(\"\") */\n      mload(0x40)\n      tag_148\n      swap1\n      tag_122\n      jump\t// in\n    tag_148:\n      0x00\n      mload(0x40)\n      dup1\n      dup4\n      sub\n      dup2\n      dup6\n      dup8\n      gas\n      call\n      swap3\n      pop\n      pop\n      pop\n      returndatasize\n      dup1\n      0x00\n      dup2\n      eq\n      tag_151\n      jumpi\n      mload(0x40)\n      swap2\n      pop\n      and(add(returndatasize, 0x3f), not(0x1f))\n      dup3\n      add\n      0x40\n      mstore\n      returndatasize\n      dup3\n      mstore\n      returndatasize\n      0x00\n      0x20\n      dup5\n      add\n      returndatacopy\n      jump(tag_150)\n    tag_151:\n      0x60\n      swap2\n      pop\n    tag_150:\n      pop\n        /* \"contracts/w5_LuckyDraw.sol\":4047:4107  (bool sent, ) = owner.call{value: address(this).balance}(\"\") */\n      pop\n      swap1\n      pop\n        /* \"contracts/w5_LuckyDraw.sol\":4125:4129  sent */\n      dup1\n        /* \"contracts/w5_LuckyDraw.sol\":4117:4154  require(sent, \"Failed to send Ether\") */\n      tag_152\n      jumpi\n      mload(0x40)\n      0x08c379a000000000000000000000000000000000000000000000000000000000\n      dup2\n      mstore\n      0x04\n      add\n      tag_153\n      swap1\n      tag_128\n      jump\t// in\n    tag_153:\n      mload(0x40)\n      dup1\n      swap2\n      sub\n      swap1\n      revert\n    tag_152:\n        /* \"contracts/w5_LuckyDraw.sol\":4037:4161  {... */\n      pop\n        /* \"contracts/w5_LuckyDraw.sol\":3991:4161  function withdrawRemaining() public onlyOwner {... */\n      jump\t// out\n        /* \"contracts/w5_LuckyDraw.sol\":2565:3918  function selectRandomWinner() private returns (address) {... */\n    tag_115:\n        /* \"contracts/w5_LuckyDraw.sol\":2612:2619  address */\n      0x00\n        /* \"contracts/w5_LuckyDraw.sol\":2689:2700  uint random */\n      dup1\n        /* \"contracts/w5_LuckyDraw.sol\":2773:2774  1 */\n      0x01\n        /* \"contracts/w5_LuckyDraw.sol\":2758:2770  block.number */\n      number\n        /* \"contracts/w5_LuckyDraw.sol\":2758:2774  block.number - 1 */\n      tag_155\n      swap2\n      swap1\n      tag_130\n      jump\t// in\n    tag_155:\n        /* \"contracts/w5_LuckyDraw.sol\":2748:2775  blockhash(block.number - 1) */\n      blockhash\n        /* \"contracts/w5_LuckyDraw.sol\":2789:2804  block.timestamp */\n      timestamp\n        /* \"contracts/w5_LuckyDraw.sol\":2818:2830  totalTickets */\n      sload(0x02)\n        /* \"contracts/w5_LuckyDraw.sol\":2718:2840  abi.encodePacked(... */\n      add(0x20, mload(0x40))\n      tag_156\n      swap4\n      swap3\n      swap2\n      swap1\n      tag_157\n      jump\t// in\n    tag_156:\n      mload(0x40)\n      0x20\n      dup2\n      dup4\n      sub\n      sub\n      dup2\n      mstore\n      swap1\n      0x40\n      mstore\n        /* \"contracts/w5_LuckyDraw.sol\":2708:2841  keccak256(abi.encodePacked(... */\n      dup1\n      mload\n      swap1\n      0x20\n      add\n      keccak256\n        /* \"contracts/w5_LuckyDraw.sol\":2703:2842  uint(keccak256(abi.encodePacked(... */\n      0x00\n      shr\n        /* \"contracts/w5_LuckyDraw.sol\":2689:2842  uint random = uint(keccak256(abi.encodePacked(... */\n      swap1\n      pop\n        /* \"contracts/w5_LuckyDraw.sol\":2908:2924  uint winnerIndex */\n      0x00\n        /* \"contracts/w5_LuckyDraw.sol\":2936:2948  totalTickets */\n      sload(0x02)\n        /* \"contracts/w5_LuckyDraw.sol\":2927:2933  random */\n      dup3\n        /* \"contracts/w5_LuckyDraw.sol\":2927:2948  random % totalTickets */\n      tag_158\n      swap2\n      swap1\n      tag_159\n      jump\t// in\n    tag_158:\n        /* \"contracts/w5_LuckyDraw.sol\":2908:2948  uint winnerIndex = random % totalTickets */\n      swap1\n      pop\n        /* \"contracts/w5_LuckyDraw.sol\":2958:2970  uint counter */\n      0x00\n        /* \"contracts/w5_LuckyDraw.sol\":3053:3059  uint i */\n      dup1\n        /* \"contracts/w5_LuckyDraw.sol\":3048:3877  for (uint i = 0; i < participants.length; i++) {... */\n    tag_160:\n        /* \"contracts/w5_LuckyDraw.sol\":3069:3081  participants */\n      0x05\n        /* \"contracts/w5_LuckyDraw.sol\":3069:3088  participants.length */\n      dup1\n      sload\n      swap1\n      pop\n        /* \"contracts/w5_LuckyDraw.sol\":3065:3066  i */\n      dup2\n        /* \"contracts/w5_LuckyDraw.sol\":3065:3088  i < participants.length */\n      lt\n        /* \"contracts/w5_LuckyDraw.sol\":3048:3877  for (uint i = 0; i < participants.length; i++) {... */\n      iszero\n      tag_161\n      jumpi\n        /* \"contracts/w5_LuckyDraw.sol\":3109:3128  address participant */\n      0x00\n        /* \"contracts/w5_LuckyDraw.sol\":3131:3143  participants */\n      0x05\n        /* \"contracts/w5_LuckyDraw.sol\":3144:3145  i */\n      dup3\n        /* \"contracts/w5_LuckyDraw.sol\":3131:3146  participants[i] */\n      dup2\n      sload\n      dup2\n      lt\n      tag_163\n      jumpi\n      tag_164\n      tag_118\n      jump\t// in\n    tag_164:\n    tag_163:\n      swap1\n      0x00\n      mstore\n      keccak256(0x00, 0x20)\n      add\n      0x00\n      swap1\n      sload\n      swap1\n      0x0100\n      exp\n      swap1\n      div\n      0xffffffffffffffffffffffffffffffffffffffff\n      and\n        /* \"contracts/w5_LuckyDraw.sol\":3109:3146  address participant = participants[i] */\n      swap1\n      pop\n        /* \"contracts/w5_LuckyDraw.sol\":3160:3183  uint participantTickets */\n      0x00\n        /* \"contracts/w5_LuckyDraw.sol\":3186:3199  ticketsBought */\n      0x04\n        /* \"contracts/w5_LuckyDraw.sol\":3186:3212  ticketsBought[participant] */\n      0x00\n        /* \"contracts/w5_LuckyDraw.sol\":3200:3211  participant */\n      dup4\n        /* \"contracts/w5_LuckyDraw.sol\":3186:3212  ticketsBought[participant] */\n      0xffffffffffffffffffffffffffffffffffffffff\n      and\n      0xffffffffffffffffffffffffffffffffffffffff\n      and\n      dup2\n      mstore\n      0x20\n      add\n      swap1\n      dup2\n      mstore\n      0x20\n      add\n      0x00\n      keccak256\n      sload\n        /* \"contracts/w5_LuckyDraw.sol\":3160:3212  uint participantTickets = ticketsBought[participant] */\n      swap1\n      pop\n        /* \"contracts/w5_LuckyDraw.sol\":3341:3348  counter */\n      dup4\n        /* \"contracts/w5_LuckyDraw.sol\":3326:3337  winnerIndex */\n      dup6\n        /* \"contracts/w5_LuckyDraw.sol\":3326:3348  winnerIndex >= counter */\n      lt\n      iszero\n        /* \"contracts/w5_LuckyDraw.sol\":3326:3394  winnerIndex >= counter && winnerIndex < counter + participantTickets */\n      dup1\n      iszero\n      tag_166\n      jumpi\n      pop\n        /* \"contracts/w5_LuckyDraw.sol\":3376:3394  participantTickets */\n      dup1\n        /* \"contracts/w5_LuckyDraw.sol\":3366:3373  counter */\n      dup5\n        /* \"contracts/w5_LuckyDraw.sol\":3366:3394  counter + participantTickets */\n      tag_167\n      swap2\n      swap1\n      tag_143\n      jump\t// in\n    tag_167:\n        /* \"contracts/w5_LuckyDraw.sol\":3352:3363  winnerIndex */\n      dup6\n        /* \"contracts/w5_LuckyDraw.sol\":3352:3394  winnerIndex < counter + participantTickets */\n      lt\n        /* \"contracts/w5_LuckyDraw.sol\":3326:3394  winnerIndex >= counter && winnerIndex < counter + participantTickets */\n    tag_166:\n        /* \"contracts/w5_LuckyDraw.sol\":3322:3824  if (winnerIndex >= counter && winnerIndex < counter + participantTickets) {... */\n      iszero\n      tag_168\n      jumpi\n        /* \"contracts/w5_LuckyDraw.sol\":3452:3465  ticketsBought */\n      0x04\n        /* \"contracts/w5_LuckyDraw.sol\":3452:3478  ticketsBought[participant] */\n      0x00\n        /* \"contracts/w5_LuckyDraw.sol\":3466:3477  participant */\n      dup4\n        /* \"contracts/w5_LuckyDraw.sol\":3452:3478  ticketsBought[participant] */\n      0xffffffffffffffffffffffffffffffffffffffff\n      and\n      0xffffffffffffffffffffffffffffffffffffffff\n      and\n      dup2\n      mstore\n      0x20\n      add\n      swap1\n      dup2\n      mstore\n      0x20\n      add\n      0x00\n      keccak256\n      0x00\n        /* \"contracts/w5_LuckyDraw.sol\":3452:3480  ticketsBought[participant]-- */\n      dup2\n      sload\n      dup1\n      swap3\n      swap2\n      swap1\n      tag_169\n      swap1\n      tag_170\n      jump\t// in\n    tag_169:\n      swap2\n      swap1\n      pop\n      sstore\n      pop\n        /* \"contracts/w5_LuckyDraw.sol\":3635:3636  0 */\n      0x00\n        /* \"contracts/w5_LuckyDraw.sol\":3605:3618  ticketsBought */\n      0x04\n        /* \"contracts/w5_LuckyDraw.sol\":3605:3631  ticketsBought[participant] */\n      0x00\n        /* \"contracts/w5_LuckyDraw.sol\":3619:3630  participant */\n      dup5\n        /* \"contracts/w5_LuckyDraw.sol\":3605:3631  ticketsBought[participant] */\n      0xffffffffffffffffffffffffffffffffffffffff\n      and\n      0xffffffffffffffffffffffffffffffffffffffff\n      and\n      dup2\n      mstore\n      0x20\n      add\n      swap1\n      dup2\n      mstore\n      0x20\n      add\n      0x00\n      keccak256\n      sload\n        /* \"contracts/w5_LuckyDraw.sol\":3605:3636  ticketsBought[participant] == 0 */\n      sub\n        /* \"contracts/w5_LuckyDraw.sol\":3601:3774  if (ticketsBought[participant] == 0) {... */\n      tag_171\n      jumpi\n        /* \"contracts/w5_LuckyDraw.sol\":3678:3690  participants */\n      0x05\n        /* \"contracts/w5_LuckyDraw.sol\":3713:3714  1 */\n      0x01\n        /* \"contracts/w5_LuckyDraw.sol\":3691:3703  participants */\n      0x05\n        /* \"contracts/w5_LuckyDraw.sol\":3691:3710  participants.length */\n      dup1\n      sload\n      swap1\n      pop\n        /* \"contracts/w5_LuckyDraw.sol\":3691:3714  participants.length - 1 */\n      tag_172\n      swap2\n      swap1\n      tag_130\n      jump\t// in\n    tag_172:\n        /* \"contracts/w5_LuckyDraw.sol\":3678:3715  participants[participants.length - 1] */\n      dup2\n      sload\n      dup2\n      lt\n      tag_173\n      jumpi\n      tag_174\n      tag_118\n      jump\t// in\n    tag_174:\n    tag_173:\n      swap1\n      0x00\n      mstore\n      keccak256(0x00, 0x20)\n      add\n      0x00\n      swap1\n      sload\n      swap1\n      0x0100\n      exp\n      swap1\n      div\n      0xffffffffffffffffffffffffffffffffffffffff\n      and\n        /* \"contracts/w5_LuckyDraw.sol\":3660:3672  participants */\n      0x05\n        /* \"contracts/w5_LuckyDraw.sol\":3673:3674  i */\n      dup5\n        /* \"contracts/w5_LuckyDraw.sol\":3660:3675  participants[i] */\n      dup2\n      sload\n      dup2\n      lt\n      tag_176\n      jumpi\n      tag_177\n      tag_118\n      jump\t// in\n    tag_177:\n    tag_176:\n      swap1\n      0x00\n      mstore\n      keccak256(0x00, 0x20)\n      add\n      0x00\n        /* \"contracts/w5_LuckyDraw.sol\":3660:3715  participants[i] = participants[participants.length - 1] */\n      0x0100\n      exp\n      dup2\n      sload\n      dup2\n      0xffffffffffffffffffffffffffffffffffffffff\n      mul\n      not\n      and\n      swap1\n      dup4\n      0xffffffffffffffffffffffffffffffffffffffff\n      and\n      mul\n      or\n      swap1\n      sstore\n      pop\n        /* \"contracts/w5_LuckyDraw.sol\":3737:3749  participants */\n      0x05\n        /* \"contracts/w5_LuckyDraw.sol\":3737:3755  participants.pop() */\n      dup1\n      sload\n      dup1\n      tag_179\n      jumpi\n      tag_180\n      tag_181\n      jump\t// in\n    tag_180:\n    tag_179:\n      0x01\n      swap1\n      sub\n      dup2\n      dup2\n      swap1\n      0x00\n      mstore\n      keccak256(0x00, 0x20)\n      add\n      exp(0x0100, 0x00)\n      dup2\n      sload\n      swap1\n      0xffffffffffffffffffffffffffffffffffffffff\n      mul\n      not\n      and\n      swap1\n      sstore\n      swap1\n      sstore\n        /* \"contracts/w5_LuckyDraw.sol\":3601:3774  if (ticketsBought[participant] == 0) {... */\n    tag_171:\n        /* \"contracts/w5_LuckyDraw.sol\":3798:3809  participant */\n      dup2\n        /* \"contracts/w5_LuckyDraw.sol\":3791:3809  return participant */\n      swap7\n      pop\n      pop\n      pop\n      pop\n      pop\n      pop\n      pop\n      jump(tag_154)\n        /* \"contracts/w5_LuckyDraw.sol\":3322:3824  if (winnerIndex >= counter && winnerIndex < counter + participantTickets) {... */\n    tag_168:\n        /* \"contracts/w5_LuckyDraw.sol\":3848:3866  participantTickets */\n      dup1\n        /* \"contracts/w5_LuckyDraw.sol\":3837:3866  counter += participantTickets */\n      dup5\n      tag_183\n      swap2\n      swap1\n      tag_143\n      jump\t// in\n    tag_183:\n      swap4\n      pop\n        /* \"contracts/w5_LuckyDraw.sol\":3095:3877  {... */\n      pop\n      pop\n        /* \"contracts/w5_LuckyDraw.sol\":3090:3093  i++ */\n      dup1\n      dup1\n      0x01\n      add\n      swap2\n      pop\n      pop\n        /* \"contracts/w5_LuckyDraw.sol\":3048:3877  for (uint i = 0; i < participants.length; i++) {... */\n      jump(tag_160)\n    tag_161:\n      pop\n        /* \"contracts/w5_LuckyDraw.sol\":3886:3911  revert(\"No winner found\") */\n      mload(0x40)\n      0x08c379a000000000000000000000000000000000000000000000000000000000\n      dup2\n      mstore\n      0x04\n      add\n      tag_184\n      swap1\n      tag_185\n      jump\t// in\n    tag_184:\n      mload(0x40)\n      dup1\n      swap2\n      sub\n      swap1\n      revert\n        /* \"contracts/w5_LuckyDraw.sol\":2565:3918  function selectRandomWinner() private returns (address) {... */\n    tag_154:\n      swap1\n      jump\t// out\n        /* \"#utility.yul\":7:84   */\n    tag_186:\n        /* \"#utility.yul\":44:51   */\n      0x00\n        /* \"#utility.yul\":73:78   */\n      dup2\n        /* \"#utility.yul\":62:78   */\n      swap1\n      pop\n        /* \"#utility.yul\":7:84   */\n      swap2\n      swap1\n      pop\n      jump\t// out\n        /* \"#utility.yul\":90:208   */\n    tag_187:\n        /* \"#utility.yul\":177:201   */\n      tag_235\n        /* \"#utility.yul\":195:200   */\n      dup2\n        /* \"#utility.yul\":177:201   */\n      tag_186\n      jump\t// in\n    tag_235:\n        /* \"#utility.yul\":172:175   */\n      dup3\n        /* \"#utility.yul\":165:202   */\n      mstore\n        /* \"#utility.yul\":90:208   */\n      pop\n      pop\n      jump\t// out\n        /* \"#utility.yul\":214:436   */\n    tag_23:\n        /* \"#utility.yul\":307:311   */\n      0x00\n        /* \"#utility.yul\":345:347   */\n      0x20\n        /* \"#utility.yul\":334:343   */\n      dup3\n        /* \"#utility.yul\":330:348   */\n      add\n        /* \"#utility.yul\":322:348   */\n      swap1\n      pop\n        /* \"#utility.yul\":358:429   */\n      tag_237\n        /* \"#utility.yul\":426:427   */\n      0x00\n        /* \"#utility.yul\":415:424   */\n      dup4\n        /* \"#utility.yul\":411:428   */\n      add\n        /* \"#utility.yul\":402:408   */\n      dup5\n        /* \"#utility.yul\":358:429   */\n      tag_187\n      jump\t// in\n    tag_237:\n        /* \"#utility.yul\":214:436   */\n      swap3\n      swap2\n      pop\n      pop\n      jump\t// out\n        /* \"#utility.yul\":523:640   */\n    tag_189:\n        /* \"#utility.yul\":632:633   */\n      0x00\n        /* \"#utility.yul\":629:630   */\n      dup1\n        /* \"#utility.yul\":622:634   */\n      revert\n        /* \"#utility.yul\":769:891   */\n    tag_191:\n        /* \"#utility.yul\":842:866   */\n      tag_242\n        /* \"#utility.yul\":860:865   */\n      dup2\n        /* \"#utility.yul\":842:866   */\n      tag_186\n      jump\t// in\n    tag_242:\n        /* \"#utility.yul\":835:840   */\n      dup2\n        /* \"#utility.yul\":832:867   */\n      eq\n        /* \"#utility.yul\":822:885   */\n      tag_243\n      jumpi\n        /* \"#utility.yul\":881:882   */\n      0x00\n        /* \"#utility.yul\":878:879   */\n      dup1\n        /* \"#utility.yul\":871:883   */\n      revert\n        /* \"#utility.yul\":822:885   */\n    tag_243:\n        /* \"#utility.yul\":769:891   */\n      pop\n      jump\t// out\n        /* \"#utility.yul\":897:1036   */\n    tag_192:\n        /* \"#utility.yul\":943:948   */\n      0x00\n        /* \"#utility.yul\":981:987   */\n      dup2\n        /* \"#utility.yul\":968:988   */\n      calldataload\n        /* \"#utility.yul\":959:988   */\n      swap1\n      pop\n        /* \"#utility.yul\":997:1030   */\n      tag_245\n        /* \"#utility.yul\":1024:1029   */\n      dup2\n        /* \"#utility.yul\":997:1030   */\n      tag_191\n      jump\t// in\n    tag_245:\n        /* \"#utility.yul\":897:1036   */\n      swap3\n      swap2\n      pop\n      pop\n      jump\t// out\n        /* \"#utility.yul\":1042:1371   */\n    tag_31:\n        /* \"#utility.yul\":1101:1107   */\n      0x00\n        /* \"#utility.yul\":1150:1152   */\n      0x20\n        /* \"#utility.yul\":1138:1147   */\n      dup3\n        /* \"#utility.yul\":1129:1136   */\n      dup5\n        /* \"#utility.yul\":1125:1148   */\n      sub\n        /* \"#utility.yul\":1121:1153   */\n      slt\n        /* \"#utility.yul\":1118:1237   */\n      iszero\n      tag_247\n      jumpi\n        /* \"#utility.yul\":1156:1235   */\n      tag_248\n      tag_189\n      jump\t// in\n    tag_248:\n        /* \"#utility.yul\":1118:1237   */\n    tag_247:\n        /* \"#utility.yul\":1276:1277   */\n      0x00\n        /* \"#utility.yul\":1301:1354   */\n      tag_249\n        /* \"#utility.yul\":1346:1353   */\n      dup5\n        /* \"#utility.yul\":1337:1343   */\n      dup3\n        /* \"#utility.yul\":1326:1335   */\n      dup6\n        /* \"#utility.yul\":1322:1344   */\n      add\n        /* \"#utility.yul\":1301:1354   */\n      tag_192\n      jump\t// in\n    tag_249:\n        /* \"#utility.yul\":1291:1354   */\n      swap2\n      pop\n        /* \"#utility.yul\":1247:1364   */\n      pop\n        /* \"#utility.yul\":1042:1371   */\n      swap3\n      swap2\n      pop\n      pop\n      jump\t// out\n        /* \"#utility.yul\":1377:1503   */\n    tag_193:\n        /* \"#utility.yul\":1414:1421   */\n      0x00\n        /* \"#utility.yul\":1454:1496   */\n      0xffffffffffffffffffffffffffffffffffffffff\n        /* \"#utility.yul\":1447:1452   */\n      dup3\n        /* \"#utility.yul\":1443:1497   */\n      and\n        /* \"#utility.yul\":1432:1497   */\n      swap1\n      pop\n        /* \"#utility.yul\":1377:1503   */\n      swap2\n      swap1\n      pop\n      jump\t// out\n        /* \"#utility.yul\":1509:1605   */\n    tag_194:\n        /* \"#utility.yul\":1546:1553   */\n      0x00\n        /* \"#utility.yul\":1575:1599   */\n      tag_252\n        /* \"#utility.yul\":1593:1598   */\n      dup3\n        /* \"#utility.yul\":1575:1599   */\n      tag_193\n      jump\t// in\n    tag_252:\n        /* \"#utility.yul\":1564:1599   */\n      swap1\n      pop\n        /* \"#utility.yul\":1509:1605   */\n      swap2\n      swap1\n      pop\n      jump\t// out\n        /* \"#utility.yul\":1611:1729   */\n    tag_195:\n        /* \"#utility.yul\":1698:1722   */\n      tag_254\n        /* \"#utility.yul\":1716:1721   */\n      dup2\n        /* \"#utility.yul\":1698:1722   */\n      tag_194\n      jump\t// in\n    tag_254:\n        /* \"#utility.yul\":1693:1696   */\n      dup3\n        /* \"#utility.yul\":1686:1723   */\n      mstore\n        /* \"#utility.yul\":1611:1729   */\n      pop\n      pop\n      jump\t// out\n        /* \"#utility.yul\":1735:1957   */\n    tag_34:\n        /* \"#utility.yul\":1828:1832   */\n      0x00\n        /* \"#utility.yul\":1866:1868   */\n      0x20\n        /* \"#utility.yul\":1855:1864   */\n      dup3\n        /* \"#utility.yul\":1851:1869   */\n      add\n        /* \"#utility.yul\":1843:1869   */\n      swap1\n      pop\n        /* \"#utility.yul\":1879:1950   */\n      tag_256\n        /* \"#utility.yul\":1947:1948   */\n      0x00\n        /* \"#utility.yul\":1936:1945   */\n      dup4\n        /* \"#utility.yul\":1932:1949   */\n      add\n        /* \"#utility.yul\":1923:1929   */\n      dup5\n        /* \"#utility.yul\":1879:1950   */\n      tag_195\n      jump\t// in\n    tag_256:\n        /* \"#utility.yul\":1735:1957   */\n      swap3\n      swap2\n      pop\n      pop\n      jump\t// out\n        /* \"#utility.yul\":1963:2077   */\n    tag_196:\n        /* \"#utility.yul\":2030:2036   */\n      0x00\n        /* \"#utility.yul\":2064:2069   */\n      dup2\n        /* \"#utility.yul\":2058:2070   */\n      mload\n        /* \"#utility.yul\":2048:2070   */\n      swap1\n      pop\n        /* \"#utility.yul\":1963:2077   */\n      swap2\n      swap1\n      pop\n      jump\t// out\n        /* \"#utility.yul\":2083:2267   */\n    tag_197:\n        /* \"#utility.yul\":2182:2193   */\n      0x00\n        /* \"#utility.yul\":2216:2222   */\n      dup3\n        /* \"#utility.yul\":2211:2214   */\n      dup3\n        /* \"#utility.yul\":2204:2223   */\n      mstore\n        /* \"#utility.yul\":2256:2260   */\n      0x20\n        /* \"#utility.yul\":2251:2254   */\n      dup3\n        /* \"#utility.yul\":2247:2261   */\n      add\n        /* \"#utility.yul\":2232:2261   */\n      swap1\n      pop\n        /* \"#utility.yul\":2083:2267   */\n      swap3\n      swap2\n      pop\n      pop\n      jump\t// out\n        /* \"#utility.yul\":2273:2405   */\n    tag_198:\n        /* \"#utility.yul\":2340:2344   */\n      0x00\n        /* \"#utility.yul\":2363:2366   */\n      dup2\n        /* \"#utility.yul\":2355:2366   */\n      swap1\n      pop\n        /* \"#utility.yul\":2393:2397   */\n      0x20\n        /* \"#utility.yul\":2388:2391   */\n      dup3\n        /* \"#utility.yul\":2384:2398   */\n      add\n        /* \"#utility.yul\":2376:2398   */\n      swap1\n      pop\n        /* \"#utility.yul\":2273:2405   */\n      swap2\n      swap1\n      pop\n      jump\t// out\n        /* \"#utility.yul\":2411:2519   */\n    tag_199:\n        /* \"#utility.yul\":2488:2512   */\n      tag_261\n        /* \"#utility.yul\":2506:2511   */\n      dup2\n        /* \"#utility.yul\":2488:2512   */\n      tag_194\n      jump\t// in\n    tag_261:\n        /* \"#utility.yul\":2483:2486   */\n      dup3\n        /* \"#utility.yul\":2476:2513   */\n      mstore\n        /* \"#utility.yul\":2411:2519   */\n      pop\n      pop\n      jump\t// out\n        /* \"#utility.yul\":2525:2704   */\n    tag_200:\n        /* \"#utility.yul\":2594:2604   */\n      0x00\n        /* \"#utility.yul\":2615:2661   */\n      tag_263\n        /* \"#utility.yul\":2657:2660   */\n      dup4\n        /* \"#utility.yul\":2649:2655   */\n      dup4\n        /* \"#utility.yul\":2615:2661   */\n      tag_199\n      jump\t// in\n    tag_263:\n        /* \"#utility.yul\":2693:2697   */\n      0x20\n        /* \"#utility.yul\":2688:2691   */\n      dup4\n        /* \"#utility.yul\":2684:2698   */\n      add\n        /* \"#utility.yul\":2670:2698   */\n      swap1\n      pop\n        /* \"#utility.yul\":2525:2704   */\n      swap3\n      swap2\n      pop\n      pop\n      jump\t// out\n        /* \"#utility.yul\":2710:2823   */\n    tag_201:\n        /* \"#utility.yul\":2780:2784   */\n      0x00\n        /* \"#utility.yul\":2812:2816   */\n      0x20\n        /* \"#utility.yul\":2807:2810   */\n      dup3\n        /* \"#utility.yul\":2803:2817   */\n      add\n        /* \"#utility.yul\":2795:2817   */\n      swap1\n      pop\n        /* \"#utility.yul\":2710:2823   */\n      swap2\n      swap1\n      pop\n      jump\t// out\n        /* \"#utility.yul\":2859:3591   */\n    tag_202:\n        /* \"#utility.yul\":2978:2981   */\n      0x00\n        /* \"#utility.yul\":3007:3061   */\n      tag_266\n        /* \"#utility.yul\":3055:3060   */\n      dup3\n        /* \"#utility.yul\":3007:3061   */\n      tag_196\n      jump\t// in\n    tag_266:\n        /* \"#utility.yul\":3077:3163   */\n      tag_267\n        /* \"#utility.yul\":3156:3162   */\n      dup2\n        /* \"#utility.yul\":3151:3154   */\n      dup6\n        /* \"#utility.yul\":3077:3163   */\n      tag_197\n      jump\t// in\n    tag_267:\n        /* \"#utility.yul\":3070:3163   */\n      swap4\n      pop\n        /* \"#utility.yul\":3187:3243   */\n      tag_268\n        /* \"#utility.yul\":3237:3242   */\n      dup4\n        /* \"#utility.yul\":3187:3243   */\n      tag_198\n      jump\t// in\n    tag_268:\n        /* \"#utility.yul\":3266:3273   */\n      dup1\n        /* \"#utility.yul\":3297:3298   */\n      0x00\n        /* \"#utility.yul\":3282:3566   */\n    tag_269:\n        /* \"#utility.yul\":3307:3313   */\n      dup4\n        /* \"#utility.yul\":3304:3305   */\n      dup2\n        /* \"#utility.yul\":3301:3314   */\n      lt\n        /* \"#utility.yul\":3282:3566   */\n      iszero\n      tag_271\n      jumpi\n        /* \"#utility.yul\":3383:3389   */\n      dup2\n        /* \"#utility.yul\":3377:3390   */\n      mload\n        /* \"#utility.yul\":3410:3473   */\n      tag_272\n        /* \"#utility.yul\":3469:3472   */\n      dup9\n        /* \"#utility.yul\":3454:3467   */\n      dup3\n        /* \"#utility.yul\":3410:3473   */\n      tag_200\n      jump\t// in\n    tag_272:\n        /* \"#utility.yul\":3403:3473   */\n      swap8\n      pop\n        /* \"#utility.yul\":3496:3556   */\n      tag_273\n        /* \"#utility.yul\":3549:3555   */\n      dup4\n        /* \"#utility.yul\":3496:3556   */\n      tag_201\n      jump\t// in\n    tag_273:\n        /* \"#utility.yul\":3486:3556   */\n      swap3\n      pop\n        /* \"#utility.yul\":3342:3566   */\n      pop\n        /* \"#utility.yul\":3329:3330   */\n      0x01\n        /* \"#utility.yul\":3326:3327   */\n      dup2\n        /* \"#utility.yul\":3322:3331   */\n      add\n        /* \"#utility.yul\":3317:3331   */\n      swap1\n      pop\n        /* \"#utility.yul\":3282:3566   */\n      jump(tag_269)\n    tag_271:\n        /* \"#utility.yul\":3286:3300   */\n      pop\n        /* \"#utility.yul\":3582:3585   */\n      dup6\n        /* \"#utility.yul\":3575:3585   */\n      swap4\n      pop\n        /* \"#utility.yul\":2983:3591   */\n      pop\n      pop\n      pop\n        /* \"#utility.yul\":2859:3591   */\n      swap3\n      swap2\n      pop\n      pop\n      jump\t// out\n        /* \"#utility.yul\":3597:3970   */\n    tag_39:\n        /* \"#utility.yul\":3740:3744   */\n      0x00\n        /* \"#utility.yul\":3778:3780   */\n      0x20\n        /* \"#utility.yul\":3767:3776   */\n      dup3\n        /* \"#utility.yul\":3763:3781   */\n      add\n        /* \"#utility.yul\":3755:3781   */\n      swap1\n      pop\n        /* \"#utility.yul\":3827:3836   */\n      dup2\n        /* \"#utility.yul\":3821:3825   */\n      dup2\n        /* \"#utility.yul\":3817:3837   */\n      sub\n        /* \"#utility.yul\":3813:3814   */\n      0x00\n        /* \"#utility.yul\":3802:3811   */\n      dup4\n        /* \"#utility.yul\":3798:3815   */\n      add\n        /* \"#utility.yul\":3791:3838   */\n      mstore\n        /* \"#utility.yul\":3855:3963   */\n      tag_275\n        /* \"#utility.yul\":3958:3962   */\n      dup2\n        /* \"#utility.yul\":3949:3955   */\n      dup5\n        /* \"#utility.yul\":3855:3963   */\n      tag_202\n      jump\t// in\n    tag_275:\n        /* \"#utility.yul\":3847:3963   */\n      swap1\n      pop\n        /* \"#utility.yul\":3597:3970   */\n      swap3\n      swap2\n      pop\n      pop\n      jump\t// out\n        /* \"#utility.yul\":3976:4098   */\n    tag_203:\n        /* \"#utility.yul\":4049:4073   */\n      tag_277\n        /* \"#utility.yul\":4067:4072   */\n      dup2\n        /* \"#utility.yul\":4049:4073   */\n      tag_194\n      jump\t// in\n    tag_277:\n        /* \"#utility.yul\":4042:4047   */\n      dup2\n        /* \"#utility.yul\":4039:4074   */\n      eq\n        /* \"#utility.yul\":4029:4092   */\n      tag_278\n      jumpi\n        /* \"#utility.yul\":4088:4089   */\n      0x00\n        /* \"#utility.yul\":4085:4086   */\n      dup1\n        /* \"#utility.yul\":4078:4090   */\n      revert\n        /* \"#utility.yul\":4029:4092   */\n    tag_278:\n        /* \"#utility.yul\":3976:4098   */\n      pop\n      jump\t// out\n        /* \"#utility.yul\":4104:4243   */\n    tag_204:\n        /* \"#utility.yul\":4150:4155   */\n      0x00\n        /* \"#utility.yul\":4188:4194   */\n      dup2\n        /* \"#utility.yul\":4175:4195   */\n      calldataload\n        /* \"#utility.yul\":4166:4195   */\n      swap1\n      pop\n        /* \"#utility.yul\":4204:4237   */\n      tag_280\n        /* \"#utility.yul\":4231:4236   */\n      dup2\n        /* \"#utility.yul\":4204:4237   */\n      tag_203\n      jump\t// in\n    tag_280:\n        /* \"#utility.yul\":4104:4243   */\n      swap3\n      swap2\n      pop\n      pop\n      jump\t// out\n        /* \"#utility.yul\":4249:4578   */\n    tag_47:\n        /* \"#utility.yul\":4308:4314   */\n      0x00\n        /* \"#utility.yul\":4357:4359   */\n      0x20\n        /* \"#utility.yul\":4345:4354   */\n      dup3\n        /* \"#utility.yul\":4336:4343   */\n      dup5\n        /* \"#utility.yul\":4332:4355   */\n      sub\n        /* \"#utility.yul\":4328:4360   */\n      slt\n        /* \"#utility.yul\":4325:4444   */\n      iszero\n      tag_282\n      jumpi\n        /* \"#utility.yul\":4363:4442   */\n      tag_283\n      tag_189\n      jump\t// in\n    tag_283:\n        /* \"#utility.yul\":4325:4444   */\n    tag_282:\n        /* \"#utility.yul\":4483:4484   */\n      0x00\n        /* \"#utility.yul\":4508:4561   */\n      tag_284\n        /* \"#utility.yul\":4553:4560   */\n      dup5\n        /* \"#utility.yul\":4544:4550   */\n      dup3\n        /* \"#utility.yul\":4533:4542   */\n      dup6\n        /* \"#utility.yul\":4529:4551   */\n      add\n        /* \"#utility.yul\":4508:4561   */\n      tag_204\n      jump\t// in\n    tag_284:\n        /* \"#utility.yul\":4498:4561   */\n      swap2\n      pop\n        /* \"#utility.yul\":4454:4571   */\n      pop\n        /* \"#utility.yul\":4249:4578   */\n      swap3\n      swap2\n      pop\n      pop\n      jump\t// out\n        /* \"#utility.yul\":4584:4688   */\n    tag_205:\n        /* \"#utility.yul\":4629:4636   */\n      0x00\n        /* \"#utility.yul\":4658:4682   */\n      tag_286\n        /* \"#utility.yul\":4676:4681   */\n      dup3\n        /* \"#utility.yul\":4658:4682   */\n      tag_193\n      jump\t// in\n    tag_286:\n        /* \"#utility.yul\":4647:4682   */\n      swap1\n      pop\n        /* \"#utility.yul\":4584:4688   */\n      swap2\n      swap1\n      pop\n      jump\t// out\n        /* \"#utility.yul\":4694:4836   */\n    tag_206:\n        /* \"#utility.yul\":4797:4829   */\n      tag_288\n        /* \"#utility.yul\":4823:4828   */\n      dup2\n        /* \"#utility.yul\":4797:4829   */\n      tag_205\n      jump\t// in\n    tag_288:\n        /* \"#utility.yul\":4792:4795   */\n      dup3\n        /* \"#utility.yul\":4785:4830   */\n      mstore\n        /* \"#utility.yul\":4694:4836   */\n      pop\n      pop\n      jump\t// out\n        /* \"#utility.yul\":4842:5096   */\n    tag_62:\n        /* \"#utility.yul\":4951:4955   */\n      0x00\n        /* \"#utility.yul\":4989:4991   */\n      0x20\n        /* \"#utility.yul\":4978:4987   */\n      dup3\n        /* \"#utility.yul\":4974:4992   */\n      add\n        /* \"#utility.yul\":4966:4992   */\n      swap1\n      pop\n        /* \"#utility.yul\":5002:5089   */\n      tag_290\n        /* \"#utility.yul\":5086:5087   */\n      0x00\n        /* \"#utility.yul\":5075:5084   */\n      dup4\n        /* \"#utility.yul\":5071:5088   */\n      add\n        /* \"#utility.yul\":5062:5068   */\n      dup5\n        /* \"#utility.yul\":5002:5089   */\n      tag_206\n      jump\t// in\n    tag_290:\n        /* \"#utility.yul\":4842:5096   */\n      swap3\n      swap2\n      pop\n      pop\n      jump\t// out\n        /* \"#utility.yul\":5102:5271   */\n    tag_207:\n        /* \"#utility.yul\":5186:5197   */\n      0x00\n        /* \"#utility.yul\":5220:5226   */\n      dup3\n        /* \"#utility.yul\":5215:5218   */\n      dup3\n        /* \"#utility.yul\":5208:5227   */\n      mstore\n        /* \"#utility.yul\":5260:5264   */\n      0x20\n        /* \"#utility.yul\":5255:5258   */\n      dup3\n        /* \"#utility.yul\":5251:5265   */\n      add\n        /* \"#utility.yul\":5236:5265   */\n      swap1\n      pop\n        /* \"#utility.yul\":5102:5271   */\n      swap3\n      swap2\n      pop\n      pop\n      jump\t// out\n        /* \"#utility.yul\":5277:5497   */\n    tag_208:\n        /* \"#utility.yul\":5417:5451   */\n      0x4f6e6c79206f776e65722063616e2063616c6c20746869732066756e6374696f\n        /* \"#utility.yul\":5413:5414   */\n      0x00\n        /* \"#utility.yul\":5405:5411   */\n      dup3\n        /* \"#utility.yul\":5401:5415   */\n      add\n        /* \"#utility.yul\":5394:5452   */\n      mstore\n        /* \"#utility.yul\":5486:5489   */\n      0x6e00000000000000000000000000000000000000000000000000000000000000\n        /* \"#utility.yul\":5481:5483   */\n      0x20\n        /* \"#utility.yul\":5473:5479   */\n      dup3\n        /* \"#utility.yul\":5469:5484   */\n      add\n        /* \"#utility.yul\":5462:5490   */\n      mstore\n        /* \"#utility.yul\":5277:5497   */\n      pop\n      jump\t// out\n        /* \"#utility.yul\":5503:5869   */\n    tag_209:\n        /* \"#utility.yul\":5645:5648   */\n      0x00\n        /* \"#utility.yul\":5666:5733   */\n      tag_294\n        /* \"#utility.yul\":5730:5732   */\n      0x21\n        /* \"#utility.yul\":5725:5728   */\n      dup4\n        /* \"#utility.yul\":5666:5733   */\n      tag_207\n      jump\t// in\n    tag_294:\n        /* \"#utility.yul\":5659:5733   */\n      swap2\n      pop\n        /* \"#utility.yul\":5742:5835   */\n      tag_295\n        /* \"#utility.yul\":5831:5834   */\n      dup3\n        /* \"#utility.yul\":5742:5835   */\n      tag_208\n      jump\t// in\n    tag_295:\n        /* \"#utility.yul\":5860:5862   */\n      0x40\n        /* \"#utility.yul\":5855:5858   */\n      dup3\n        /* \"#utility.yul\":5851:5863   */\n      add\n        /* \"#utility.yul\":5844:5863   */\n      swap1\n      pop\n        /* \"#utility.yul\":5503:5869   */\n      swap2\n      swap1\n      pop\n      jump\t// out\n        /* \"#utility.yul\":5875:6294   */\n    tag_91:\n        /* \"#utility.yul\":6041:6045   */\n      0x00\n        /* \"#utility.yul\":6079:6081   */\n      0x20\n        /* \"#utility.yul\":6068:6077   */\n      dup3\n        /* \"#utility.yul\":6064:6082   */\n      add\n        /* \"#utility.yul\":6056:6082   */\n      swap1\n      pop\n        /* \"#utility.yul\":6128:6137   */\n      dup2\n        /* \"#utility.yul\":6122:6126   */\n      dup2\n        /* \"#utility.yul\":6118:6138   */\n      sub\n        /* \"#utility.yul\":6114:6115   */\n      0x00\n        /* \"#utility.yul\":6103:6112   */\n      dup4\n        /* \"#utility.yul\":6099:6116   */\n      add\n        /* \"#utility.yul\":6092:6139   */\n      mstore\n        /* \"#utility.yul\":6156:6287   */\n      tag_297\n        /* \"#utility.yul\":6282:6286   */\n      dup2\n        /* \"#utility.yul\":6156:6287   */\n      tag_209\n      jump\t// in\n    tag_297:\n        /* \"#utility.yul\":6148:6287   */\n      swap1\n      pop\n        /* \"#utility.yul\":5875:6294   */\n      swap2\n      swap1\n      pop\n      jump\t// out\n        /* \"#utility.yul\":6300:6479   */\n    tag_210:\n        /* \"#utility.yul\":6440:6471   */\n      0x4d7573742064726177206174206c65617374206f6e652077696e6e6572000000\n        /* \"#utility.yul\":6436:6437   */\n      0x00\n        /* \"#utility.yul\":6428:6434   */\n      dup3\n        /* \"#utility.yul\":6424:6438   */\n      add\n        /* \"#utility.yul\":6417:6472   */\n      mstore\n        /* \"#utility.yul\":6300:6479   */\n      pop\n      jump\t// out\n        /* \"#utility.yul\":6485:6851   */\n    tag_211:\n        /* \"#utility.yul\":6627:6630   */\n      0x00\n        /* \"#utility.yul\":6648:6715   */\n      tag_300\n        /* \"#utility.yul\":6712:6714   */\n      0x1d\n        /* \"#utility.yul\":6707:6710   */\n      dup4\n        /* \"#utility.yul\":6648:6715   */\n      tag_207\n      jump\t// in\n    tag_300:\n        /* \"#utility.yul\":6641:6715   */\n      swap2\n      pop\n        /* \"#utility.yul\":6724:6817   */\n      tag_301\n        /* \"#utility.yul\":6813:6816   */\n      dup3\n        /* \"#utility.yul\":6724:6817   */\n      tag_210\n      jump\t// in\n    tag_301:\n        /* \"#utility.yul\":6842:6844   */\n      0x20\n        /* \"#utility.yul\":6837:6840   */\n      dup3\n        /* \"#utility.yul\":6833:6845   */\n      add\n        /* \"#utility.yul\":6826:6845   */\n      swap1\n      pop\n        /* \"#utility.yul\":6485:6851   */\n      swap2\n      swap1\n      pop\n      jump\t// out\n        /* \"#utility.yul\":6857:7276   */\n    tag_95:\n        /* \"#utility.yul\":7023:7027   */\n      0x00\n        /* \"#utility.yul\":7061:7063   */\n      0x20\n        /* \"#utility.yul\":7050:7059   */\n      dup3\n        /* \"#utility.yul\":7046:7064   */\n      add\n        /* \"#utility.yul\":7038:7064   */\n      swap1\n      pop\n        /* \"#utility.yul\":7110:7119   */\n      dup2\n        /* \"#utility.yul\":7104:7108   */\n      dup2\n        /* \"#utility.yul\":7100:7120   */\n      sub\n        /* \"#utility.yul\":7096:7097   */\n      0x00\n        /* \"#utility.yul\":7085:7094   */\n      dup4\n        /* \"#utility.yul\":7081:7098   */\n      add\n        /* \"#utility.yul\":7074:7121   */\n      mstore\n        /* \"#utility.yul\":7138:7269   */\n      tag_303\n        /* \"#utility.yul\":7264:7268   */\n      dup2\n        /* \"#utility.yul\":7138:7269   */\n      tag_211\n      jump\t// in\n    tag_303:\n        /* \"#utility.yul\":7130:7269   */\n      swap1\n      pop\n        /* \"#utility.yul\":6857:7276   */\n      swap2\n      swap1\n      pop\n      jump\t// out\n        /* \"#utility.yul\":7282:7455   */\n    tag_212:\n        /* \"#utility.yul\":7422:7447   */\n      0x4e6f7420656e6f756768207061727469636970616e7473000000000000000000\n        /* \"#utility.yul\":7418:7419   */\n      0x00\n        /* \"#utility.yul\":7410:7416   */\n      dup3\n        /* \"#utility.yul\":7406:7420   */\n      add\n        /* \"#utility.yul\":7399:7448   */\n      mstore\n        /* \"#utility.yul\":7282:7455   */\n      pop\n      jump\t// out\n        /* \"#utility.yul\":7461:7827   */\n    tag_213:\n        /* \"#utility.yul\":7603:7606   */\n      0x00\n        /* \"#utility.yul\":7624:7691   */\n      tag_306\n        /* \"#utility.yul\":7688:7690   */\n      0x17\n        /* \"#utility.yul\":7683:7686   */\n      dup4\n        /* \"#utility.yul\":7624:7691   */\n      tag_207\n      jump\t// in\n    tag_306:\n        /* \"#utility.yul\":7617:7691   */\n      swap2\n      pop\n        /* \"#utility.yul\":7700:7793   */\n      tag_307\n        /* \"#utility.yul\":7789:7792   */\n      dup3\n        /* \"#utility.yul\":7700:7793   */\n      tag_212\n      jump\t// in\n    tag_307:\n        /* \"#utility.yul\":7818:7820   */\n      0x20\n        /* \"#utility.yul\":7813:7816   */\n      dup3\n        /* \"#utility.yul\":7809:7821   */\n      add\n        /* \"#utility.yul\":7802:7821   */\n      swap1\n      pop\n        /* \"#utility.yul\":7461:7827   */\n      swap2\n      swap1\n      pop\n      jump\t// out\n        /* \"#utility.yul\":7833:8252   */\n    tag_98:\n        /* \"#utility.yul\":7999:8003   */\n      0x00\n        /* \"#utility.yul\":8037:8039   */\n      0x20\n        /* \"#utility.yul\":8026:8035   */\n      dup3\n        /* \"#utility.yul\":8022:8040   */\n      add\n        /* \"#utility.yul\":8014:8040   */\n      swap1\n      pop\n        /* \"#utility.yul\":8086:8095   */\n      dup2\n        /* \"#utility.yul\":8080:8084   */\n      dup2\n        /* \"#utility.yul\":8076:8096   */\n      sub\n        /* \"#utility.yul\":8072:8073   */\n      0x00\n        /* \"#utility.yul\":8061:8070   */\n      dup4\n        /* \"#utility.yul\":8057:8074   */\n      add\n        /* \"#utility.yul\":8050:8097   */\n      mstore\n        /* \"#utility.yul\":8114:8245   */\n      tag_309\n        /* \"#utility.yul\":8240:8244   */\n      dup2\n        /* \"#utility.yul\":8114:8245   */\n      tag_213\n      jump\t// in\n    tag_309:\n        /* \"#utility.yul\":8106:8245   */\n      swap1\n      pop\n        /* \"#utility.yul\":7833:8252   */\n      swap2\n      swap1\n      pop\n      jump\t// out\n        /* \"#utility.yul\":8258:8431   */\n    tag_214:\n        /* \"#utility.yul\":8398:8423   */\n      0x4e6f7420656e6f756768207469636b65747320736f6c64000000000000000000\n        /* \"#utility.yul\":8394:8395   */\n      0x00\n        /* \"#utility.yul\":8386:8392   */\n      dup3\n        /* \"#utility.yul\":8382:8396   */\n      add\n        /* \"#utility.yul\":8375:8424   */\n      mstore\n        /* \"#utility.yul\":8258:8431   */\n      pop\n      jump\t// out\n        /* \"#utility.yul\":8437:8803   */\n    tag_215:\n        /* \"#utility.yul\":8579:8582   */\n      0x00\n        /* \"#utility.yul\":8600:8667   */\n      tag_312\n        /* \"#utility.yul\":8664:8666   */\n      0x17\n        /* \"#utility.yul\":8659:8662   */\n      dup4\n        /* \"#utility.yul\":8600:8667   */\n      tag_207\n      jump\t// in\n    tag_312:\n        /* \"#utility.yul\":8593:8667   */\n      swap2\n      pop\n        /* \"#utility.yul\":8676:8769   */\n      tag_313\n        /* \"#utility.yul\":8765:8768   */\n      dup3\n        /* \"#utility.yul\":8676:8769   */\n      tag_214\n      jump\t// in\n    tag_313:\n        /* \"#utility.yul\":8794:8796   */\n      0x20\n        /* \"#utility.yul\":8789:8792   */\n      dup3\n        /* \"#utility.yul\":8785:8797   */\n      add\n        /* \"#utility.yul\":8778:8797   */\n      swap1\n      pop\n        /* \"#utility.yul\":8437:8803   */\n      swap2\n      swap1\n      pop\n      jump\t// out\n        /* \"#utility.yul\":8809:9228   */\n    tag_101:\n        /* \"#utility.yul\":8975:8979   */\n      0x00\n        /* \"#utility.yul\":9013:9015   */\n      0x20\n        /* \"#utility.yul\":9002:9011   */\n      dup3\n        /* \"#utility.yul\":8998:9016   */\n      add\n        /* \"#utility.yul\":8990:9016   */\n      swap1\n      pop\n        /* \"#utility.yul\":9062:9071   */\n      dup2\n        /* \"#utility.yul\":9056:9060   */\n      dup2\n        /* \"#utility.yul\":9052:9072   */\n      sub\n        /* \"#utility.yul\":9048:9049   */\n      0x00\n        /* \"#utility.yul\":9037:9046   */\n      dup4\n        /* \"#utility.yul\":9033:9050   */\n      add\n        /* \"#utility.yul\":9026:9073   */\n      mstore\n        /* \"#utility.yul\":9090:9221   */\n      tag_315\n        /* \"#utility.yul\":9216:9220   */\n      dup2\n        /* \"#utility.yul\":9090:9221   */\n      tag_215\n      jump\t// in\n    tag_315:\n        /* \"#utility.yul\":9082:9221   */\n      swap1\n      pop\n        /* \"#utility.yul\":8809:9228   */\n      swap2\n      swap1\n      pop\n      jump\t// out\n        /* \"#utility.yul\":9234:9414   */\n    tag_104:\n        /* \"#utility.yul\":9282:9359   */\n      0x4e487b7100000000000000000000000000000000000000000000000000000000\n        /* \"#utility.yul\":9279:9280   */\n      0x00\n        /* \"#utility.yul\":9272:9360   */\n      mstore\n        /* \"#utility.yul\":9379:9383   */\n      0x41\n        /* \"#utility.yul\":9376:9377   */\n      0x04\n        /* \"#utility.yul\":9369:9384   */\n      mstore\n        /* \"#utility.yul\":9403:9407   */\n      0x24\n        /* \"#utility.yul\":9400:9401   */\n      0x00\n        /* \"#utility.yul\":9393:9408   */\n      revert\n        /* \"#utility.yul\":9420:9600   */\n    tag_216:\n        /* \"#utility.yul\":9468:9545   */\n      0x4e487b7100000000000000000000000000000000000000000000000000000000\n        /* \"#utility.yul\":9465:9466   */\n      0x00\n        /* \"#utility.yul\":9458:9546   */\n      mstore\n        /* \"#utility.yul\":9565:9569   */\n      0x11\n        /* \"#utility.yul\":9562:9563   */\n      0x04\n        /* \"#utility.yul\":9555:9570   */\n      mstore\n        /* \"#utility.yul\":9589:9593   */\n      0x24\n        /* \"#utility.yul\":9586:9587   */\n      0x00\n        /* \"#utility.yul\":9579:9594   */\n      revert\n        /* \"#utility.yul\":9606:10016   */\n    tag_107:\n        /* \"#utility.yul\":9646:9653   */\n      0x00\n        /* \"#utility.yul\":9669:9689   */\n      tag_319\n        /* \"#utility.yul\":9687:9688   */\n      dup3\n        /* \"#utility.yul\":9669:9689   */\n      tag_186\n      jump\t// in\n    tag_319:\n        /* \"#utility.yul\":9664:9689   */\n      swap2\n      pop\n        /* \"#utility.yul\":9703:9723   */\n      tag_320\n        /* \"#utility.yul\":9721:9722   */\n      dup4\n        /* \"#utility.yul\":9703:9723   */\n      tag_186\n      jump\t// in\n    tag_320:\n        /* \"#utility.yul\":9698:9723   */\n      swap3\n      pop\n        /* \"#utility.yul\":9758:9759   */\n      dup3\n        /* \"#utility.yul\":9755:9756   */\n      dup3\n        /* \"#utility.yul\":9751:9760   */\n      mul\n        /* \"#utility.yul\":9780:9810   */\n      tag_321\n        /* \"#utility.yul\":9798:9809   */\n      dup2\n        /* \"#utility.yul\":9780:9810   */\n      tag_186\n      jump\t// in\n    tag_321:\n        /* \"#utility.yul\":9769:9810   */\n      swap2\n      pop\n        /* \"#utility.yul\":9959:9960   */\n      dup3\n        /* \"#utility.yul\":9950:9957   */\n      dup3\n        /* \"#utility.yul\":9946:9961   */\n      div\n        /* \"#utility.yul\":9943:9944   */\n      dup5\n        /* \"#utility.yul\":9940:9962   */\n      eq\n        /* \"#utility.yul\":9920:9921   */\n      dup4\n        /* \"#utility.yul\":9913:9922   */\n      iszero\n        /* \"#utility.yul\":9893:9976   */\n      or\n        /* \"#utility.yul\":9870:10009   */\n      tag_322\n      jumpi\n        /* \"#utility.yul\":9989:10007   */\n      tag_323\n      tag_216\n      jump\t// in\n    tag_323:\n        /* \"#utility.yul\":9870:10009   */\n    tag_322:\n        /* \"#utility.yul\":9654:10016   */\n      pop\n        /* \"#utility.yul\":9606:10016   */\n      swap3\n      swap2\n      pop\n      pop\n      jump\t// out\n        /* \"#utility.yul\":10022:10202   */\n    tag_217:\n        /* \"#utility.yul\":10070:10147   */\n      0x4e487b7100000000000000000000000000000000000000000000000000000000\n        /* \"#utility.yul\":10067:10068   */\n      0x00\n        /* \"#utility.yul\":10060:10148   */\n      mstore\n        /* \"#utility.yul\":10167:10171   */\n      0x12\n        /* \"#utility.yul\":10164:10165   */\n      0x04\n        /* \"#utility.yul\":10157:10172   */\n      mstore\n        /* \"#utility.yul\":10191:10195   */\n      0x24\n        /* \"#utility.yul\":10188:10189   */\n      0x00\n        /* \"#utility.yul\":10181:10196   */\n      revert\n        /* \"#utility.yul\":10208:10393   */\n    tag_109:\n        /* \"#utility.yul\":10248:10249   */\n      0x00\n        /* \"#utility.yul\":10265:10285   */\n      tag_326\n        /* \"#utility.yul\":10283:10284   */\n      dup3\n        /* \"#utility.yul\":10265:10285   */\n      tag_186\n      jump\t// in\n    tag_326:\n        /* \"#utility.yul\":10260:10285   */\n      swap2\n      pop\n        /* \"#utility.yul\":10299:10319   */\n      tag_327\n        /* \"#utility.yul\":10317:10318   */\n      dup4\n        /* \"#utility.yul\":10299:10319   */\n      tag_186\n      jump\t// in\n    tag_327:\n        /* \"#utility.yul\":10294:10319   */\n      swap3\n      pop\n        /* \"#utility.yul\":10338:10339   */\n      dup3\n        /* \"#utility.yul\":10328:10363   */\n      tag_328\n      jumpi\n        /* \"#utility.yul\":10343:10361   */\n      tag_329\n      tag_217\n      jump\t// in\n    tag_329:\n        /* \"#utility.yul\":10328:10363   */\n    tag_328:\n        /* \"#utility.yul\":10385:10386   */\n      dup3\n        /* \"#utility.yul\":10382:10383   */\n      dup3\n        /* \"#utility.yul\":10378:10387   */\n      div\n        /* \"#utility.yul\":10373:10387   */\n      swap1\n      pop\n        /* \"#utility.yul\":10208:10393   */\n      swap3\n      swap2\n      pop\n      pop\n      jump\t// out\n        /* \"#utility.yul\":10399:10579   */\n    tag_118:\n        /* \"#utility.yul\":10447:10524   */\n      0x4e487b7100000000000000000000000000000000000000000000000000000000\n        /* \"#utility.yul\":10444:10445   */\n      0x00\n        /* \"#utility.yul\":10437:10525   */\n      mstore\n        /* \"#utility.yul\":10544:10548   */\n      0x32\n        /* \"#utility.yul\":10541:10542   */\n      0x04\n        /* \"#utility.yul\":10534:10549   */\n      mstore\n        /* \"#utility.yul\":10568:10572   */\n      0x24\n        /* \"#utility.yul\":10565:10566   */\n      0x00\n        /* \"#utility.yul\":10558:10573   */\n      revert\n        /* \"#utility.yul\":10585:10732   */\n    tag_218:\n        /* \"#utility.yul\":10686:10697   */\n      0x00\n        /* \"#utility.yul\":10723:10726   */\n      dup2\n        /* \"#utility.yul\":10708:10726   */\n      swap1\n      pop\n        /* \"#utility.yul\":10585:10732   */\n      swap3\n      swap2\n      pop\n      pop\n      jump\t// out\n        /* \"#utility.yul\":10738:10852   */\n    tag_219:\n      pop\n      jump\t// out\n        /* \"#utility.yul\":10858:11256   */\n    tag_220:\n        /* \"#utility.yul\":11017:11020   */\n      0x00\n        /* \"#utility.yul\":11038:11121   */\n      tag_334\n        /* \"#utility.yul\":11119:11120   */\n      0x00\n        /* \"#utility.yul\":11114:11117   */\n      dup4\n        /* \"#utility.yul\":11038:11121   */\n      tag_218\n      jump\t// in\n    tag_334:\n        /* \"#utility.yul\":11031:11121   */\n      swap2\n      pop\n        /* \"#utility.yul\":11130:11223   */\n      tag_335\n        /* \"#utility.yul\":11219:11222   */\n      dup3\n        /* \"#utility.yul\":11130:11223   */\n      tag_219\n      jump\t// in\n    tag_335:\n        /* \"#utility.yul\":11248:11249   */\n      0x00\n        /* \"#utility.yul\":11243:11246   */\n      dup3\n        /* \"#utility.yul\":11239:11250   */\n      add\n        /* \"#utility.yul\":11232:11250   */\n      swap1\n      pop\n        /* \"#utility.yul\":10858:11256   */\n      swap2\n      swap1\n      pop\n      jump\t// out\n        /* \"#utility.yul\":11262:11641   */\n    tag_122:\n        /* \"#utility.yul\":11446:11449   */\n      0x00\n        /* \"#utility.yul\":11468:11615   */\n      tag_337\n        /* \"#utility.yul\":11611:11614   */\n      dup3\n        /* \"#utility.yul\":11468:11615   */\n      tag_220\n      jump\t// in\n    tag_337:\n        /* \"#utility.yul\":11461:11615   */\n      swap2\n      pop\n        /* \"#utility.yul\":11632:11635   */\n      dup2\n        /* \"#utility.yul\":11625:11635   */\n      swap1\n      pop\n        /* \"#utility.yul\":11262:11641   */\n      swap2\n      swap1\n      pop\n      jump\t// out\n        /* \"#utility.yul\":11647:11817   */\n    tag_221:\n        /* \"#utility.yul\":11787:11809   */\n      0x4661696c656420746f2073656e64204574686572000000000000000000000000\n        /* \"#utility.yul\":11783:11784   */\n      0x00\n        /* \"#utility.yul\":11775:11781   */\n      dup3\n        /* \"#utility.yul\":11771:11785   */\n      add\n        /* \"#utility.yul\":11764:11810   */\n      mstore\n        /* \"#utility.yul\":11647:11817   */\n      pop\n      jump\t// out\n        /* \"#utility.yul\":11823:12189   */\n    tag_222:\n        /* \"#utility.yul\":11965:11968   */\n      0x00\n        /* \"#utility.yul\":11986:12053   */\n      tag_340\n        /* \"#utility.yul\":12050:12052   */\n      0x14\n        /* \"#utility.yul\":12045:12048   */\n      dup4\n        /* \"#utility.yul\":11986:12053   */\n      tag_207\n      jump\t// in\n    tag_340:\n        /* \"#utility.yul\":11979:12053   */\n      swap2\n      pop\n        /* \"#utility.yul\":12062:12155   */\n      tag_341\n        /* \"#utility.yul\":12151:12154   */\n      dup3\n        /* \"#utility.yul\":12062:12155   */\n      tag_221\n      jump\t// in\n    tag_341:\n        /* \"#utility.yul\":12180:12182   */\n      0x20\n        /* \"#utility.yul\":12175:12178   */\n      dup3\n        /* \"#utility.yul\":12171:12183   */\n      add\n        /* \"#utility.yul\":12164:12183   */\n      swap1\n      pop\n        /* \"#utility.yul\":11823:12189   */\n      swap2\n      swap1\n      pop\n      jump\t// out\n        /* \"#utility.yul\":12195:12614   */\n    tag_128:\n        /* \"#utility.yul\":12361:12365   */\n      0x00\n        /* \"#utility.yul\":12399:12401   */\n      0x20\n        /* \"#utility.yul\":12388:12397   */\n      dup3\n        /* \"#utility.yul\":12384:12402   */\n      add\n        /* \"#utility.yul\":12376:12402   */\n      swap1\n      pop\n        /* \"#utility.yul\":12448:12457   */\n      dup2\n        /* \"#utility.yul\":12442:12446   */\n      dup2\n        /* \"#utility.yul\":12438:12458   */\n      sub\n        /* \"#utility.yul\":12434:12435   */\n      0x00\n        /* \"#utility.yul\":12423:12432   */\n      dup4\n        /* \"#utility.yul\":12419:12436   */\n      add\n        /* \"#utility.yul\":12412:12459   */\n      mstore\n        /* \"#utility.yul\":12476:12607   */\n      tag_343\n        /* \"#utility.yul\":12602:12606   */\n      dup2\n        /* \"#utility.yul\":12476:12607   */\n      tag_222\n      jump\t// in\n    tag_343:\n        /* \"#utility.yul\":12468:12607   */\n      swap1\n      pop\n        /* \"#utility.yul\":12195:12614   */\n      swap2\n      swap1\n      pop\n      jump\t// out\n        /* \"#utility.yul\":12620:12814   */\n    tag_130:\n        /* \"#utility.yul\":12660:12664   */\n      0x00\n        /* \"#utility.yul\":12680:12700   */\n      tag_345\n        /* \"#utility.yul\":12698:12699   */\n      dup3\n        /* \"#utility.yul\":12680:12700   */\n      tag_186\n      jump\t// in\n    tag_345:\n        /* \"#utility.yul\":12675:12700   */\n      swap2\n      pop\n        /* \"#utility.yul\":12714:12734   */\n      tag_346\n        /* \"#utility.yul\":12732:12733   */\n      dup4\n        /* \"#utility.yul\":12714:12734   */\n      tag_186\n      jump\t// in\n    tag_346:\n        /* \"#utility.yul\":12709:12734   */\n      swap3\n      pop\n        /* \"#utility.yul\":12758:12759   */\n      dup3\n        /* \"#utility.yul\":12755:12756   */\n      dup3\n        /* \"#utility.yul\":12751:12760   */\n      sub\n        /* \"#utility.yul\":12743:12760   */\n      swap1\n      pop\n        /* \"#utility.yul\":12782:12783   */\n      dup2\n        /* \"#utility.yul\":12776:12780   */\n      dup2\n        /* \"#utility.yul\":12773:12784   */\n      gt\n        /* \"#utility.yul\":12770:12807   */\n      iszero\n      tag_347\n      jumpi\n        /* \"#utility.yul\":12787:12805   */\n      tag_348\n      tag_216\n      jump\t// in\n    tag_348:\n        /* \"#utility.yul\":12770:12807   */\n    tag_347:\n        /* \"#utility.yul\":12620:12814   */\n      swap3\n      swap2\n      pop\n      pop\n      jump\t// out\n        /* \"#utility.yul\":12820:12999   */\n    tag_223:\n        /* \"#utility.yul\":12960:12991   */\n      0x496e73756666696369656e742066756e647320666f72207469636b6574000000\n        /* \"#utility.yul\":12956:12957   */\n      0x00\n        /* \"#utility.yul\":12948:12954   */\n      dup3\n        /* \"#utility.yul\":12944:12958   */\n      add\n        /* \"#utility.yul\":12937:12992   */\n      mstore\n        /* \"#utility.yul\":12820:12999   */\n      pop\n      jump\t// out\n        /* \"#utility.yul\":13005:13371   */\n    tag_224:\n        /* \"#utility.yul\":13147:13150   */\n      0x00\n        /* \"#utility.yul\":13168:13235   */\n      tag_351\n        /* \"#utility.yul\":13232:13234   */\n      0x1d\n        /* \"#utility.yul\":13227:13230   */\n      dup4\n        /* \"#utility.yul\":13168:13235   */\n      tag_207\n      jump\t// in\n    tag_351:\n        /* \"#utility.yul\":13161:13235   */\n      swap2\n      pop\n        /* \"#utility.yul\":13244:13337   */\n      tag_352\n        /* \"#utility.yul\":13333:13336   */\n      dup3\n        /* \"#utility.yul\":13244:13337   */\n      tag_223\n      jump\t// in\n    tag_352:\n        /* \"#utility.yul\":13362:13364   */\n      0x20\n        /* \"#utility.yul\":13357:13360   */\n      dup3\n        /* \"#utility.yul\":13353:13365   */\n      add\n        /* \"#utility.yul\":13346:13365   */\n      swap1\n      pop\n        /* \"#utility.yul\":13005:13371   */\n      swap2\n      swap1\n      pop\n      jump\t// out\n        /* \"#utility.yul\":13377:13796   */\n    tag_136:\n        /* \"#utility.yul\":13543:13547   */\n      0x00\n        /* \"#utility.yul\":13581:13583   */\n      0x20\n        /* \"#utility.yul\":13570:13579   */\n      dup3\n        /* \"#utility.yul\":13566:13584   */\n      add\n        /* \"#utility.yul\":13558:13584   */\n      swap1\n      pop\n        /* \"#utility.yul\":13630:13639   */\n      dup2\n        /* \"#utility.yul\":13624:13628   */\n      dup2\n        /* \"#utility.yul\":13620:13640   */\n      sub\n        /* \"#utility.yul\":13616:13617   */\n      0x00\n        /* \"#utility.yul\":13605:13614   */\n      dup4\n        /* \"#utility.yul\":13601:13618   */\n      add\n        /* \"#utility.yul\":13594:13641   */\n      mstore\n        /* \"#utility.yul\":13658:13789   */\n      tag_354\n        /* \"#utility.yul\":13784:13788   */\n      dup2\n        /* \"#utility.yul\":13658:13789   */\n      tag_224\n      jump\t// in\n    tag_354:\n        /* \"#utility.yul\":13650:13789   */\n      swap1\n      pop\n        /* \"#utility.yul\":13377:13796   */\n      swap2\n      swap1\n      pop\n      jump\t// out\n        /* \"#utility.yul\":13802:14035   */\n    tag_140:\n        /* \"#utility.yul\":13841:13844   */\n      0x00\n        /* \"#utility.yul\":13864:13888   */\n      tag_356\n        /* \"#utility.yul\":13882:13887   */\n      dup3\n        /* \"#utility.yul\":13864:13888   */\n      tag_186\n      jump\t// in\n    tag_356:\n        /* \"#utility.yul\":13855:13888   */\n      swap2\n      pop\n        /* \"#utility.yul\":13910:13976   */\n      0xffffffffffffffffffffffffffffffffffffffffffffffffffffffffffffffff\n        /* \"#utility.yul\":13903:13908   */\n      dup3\n        /* \"#utility.yul\":13900:13977   */\n      sub\n        /* \"#utility.yul\":13897:14000   */\n      tag_357\n      jumpi\n        /* \"#utility.yul\":13980:13998   */\n      tag_358\n      tag_216\n      jump\t// in\n    tag_358:\n        /* \"#utility.yul\":13897:14000   */\n    tag_357:\n        /* \"#utility.yul\":14027:14028   */\n      0x01\n        /* \"#utility.yul\":14020:14025   */\n      dup3\n        /* \"#utility.yul\":14016:14029   */\n      add\n        /* \"#utility.yul\":14009:14029   */\n      swap1\n      pop\n        /* \"#utility.yul\":13802:14035   */\n      swap2\n      swap1\n      pop\n      jump\t// out\n        /* \"#utility.yul\":14041:14232   */\n    tag_143:\n        /* \"#utility.yul\":14081:14084   */\n      0x00\n        /* \"#utility.yul\":14100:14120   */\n      tag_360\n        /* \"#utility.yul\":14118:14119   */\n      dup3\n        /* \"#utility.yul\":14100:14120   */\n      tag_186\n      jump\t// in\n    tag_360:\n        /* \"#utility.yul\":14095:14120   */\n      swap2\n      pop\n        /* \"#utility.yul\":14134:14154   */\n      tag_361\n        /* \"#utility.yul\":14152:14153   */\n      dup4\n        /* \"#utility.yul\":14134:14154   */\n      tag_186\n      jump\t// in\n    tag_361:\n        /* \"#utility.yul\":14129:14154   */\n      swap3\n      pop\n        /* \"#utility.yul\":14177:14178   */\n      dup3\n        /* \"#utility.yul\":14174:14175   */\n      dup3\n        /* \"#utility.yul\":14170:14179   */\n      add\n        /* \"#utility.yul\":14163:14179   */\n      swap1\n      pop\n        /* \"#utility.yul\":14198:14201   */\n      dup1\n        /* \"#utility.yul\":14195:14196   */\n      dup3\n        /* \"#utility.yul\":14192:14202   */\n      gt\n        /* \"#utility.yul\":14189:14225   */\n      iszero\n      tag_362\n      jumpi\n        /* \"#utility.yul\":14205:14223   */\n      tag_363\n      tag_216\n      jump\t// in\n    tag_363:\n        /* \"#utility.yul\":14189:14225   */\n    tag_362:\n        /* \"#utility.yul\":14041:14232   */\n      swap3\n      swap2\n      pop\n      pop\n      jump\t// out\n        /* \"#utility.yul\":14238:14315   */\n    tag_225:\n        /* \"#utility.yul\":14275:14282   */\n      0x00\n        /* \"#utility.yul\":14304:14309   */\n      dup2\n        /* \"#utility.yul\":14293:14309   */\n      swap1\n      pop\n        /* \"#utility.yul\":14238:14315   */\n      swap2\n      swap1\n      pop\n      jump\t// out\n        /* \"#utility.yul\":14321:14400   */\n    tag_226:\n        /* \"#utility.yul\":14360:14367   */\n      0x00\n        /* \"#utility.yul\":14389:14394   */\n      dup2\n        /* \"#utility.yul\":14378:14394   */\n      swap1\n      pop\n        /* \"#utility.yul\":14321:14400   */\n      swap2\n      swap1\n      pop\n      jump\t// out\n        /* \"#utility.yul\":14406:14563   */\n    tag_227:\n        /* \"#utility.yul\":14511:14556   */\n      tag_367\n        /* \"#utility.yul\":14531:14555   */\n      tag_368\n        /* \"#utility.yul\":14549:14554   */\n      dup3\n        /* \"#utility.yul\":14531:14555   */\n      tag_225\n      jump\t// in\n    tag_368:\n        /* \"#utility.yul\":14511:14556   */\n      tag_226\n      jump\t// in\n    tag_367:\n        /* \"#utility.yul\":14506:14509   */\n      dup3\n        /* \"#utility.yul\":14499:14557   */\n      mstore\n        /* \"#utility.yul\":14406:14563   */\n      pop\n      pop\n      jump\t// out\n        /* \"#utility.yul\":14569:14648   */\n    tag_228:\n        /* \"#utility.yul\":14608:14615   */\n      0x00\n        /* \"#utility.yul\":14637:14642   */\n      dup2\n        /* \"#utility.yul\":14626:14642   */\n      swap1\n      pop\n        /* \"#utility.yul\":14569:14648   */\n      swap2\n      swap1\n      pop\n      jump\t// out\n        /* \"#utility.yul\":14654:14811   */\n    tag_229:\n        /* \"#utility.yul\":14759:14804   */\n      tag_371\n        /* \"#utility.yul\":14779:14803   */\n      tag_372\n        /* \"#utility.yul\":14797:14802   */\n      dup3\n        /* \"#utility.yul\":14779:14803   */\n      tag_186\n      jump\t// in\n    tag_372:\n        /* \"#utility.yul\":14759:14804   */\n      tag_228\n      jump\t// in\n    tag_371:\n        /* \"#utility.yul\":14754:14757   */\n      dup3\n        /* \"#utility.yul\":14747:14805   */\n      mstore\n        /* \"#utility.yul\":14654:14811   */\n      pop\n      pop\n      jump\t// out\n        /* \"#utility.yul\":14817:15355   */\n    tag_157:\n        /* \"#utility.yul\":14985:14988   */\n      0x00\n        /* \"#utility.yul\":15000:15075   */\n      tag_374\n        /* \"#utility.yul\":15071:15074   */\n      dup3\n        /* \"#utility.yul\":15062:15068   */\n      dup7\n        /* \"#utility.yul\":15000:15075   */\n      tag_227\n      jump\t// in\n    tag_374:\n        /* \"#utility.yul\":15100:15102   */\n      0x20\n        /* \"#utility.yul\":15095:15098   */\n      dup3\n        /* \"#utility.yul\":15091:15103   */\n      add\n        /* \"#utility.yul\":15084:15103   */\n      swap2\n      pop\n        /* \"#utility.yul\":15113:15188   */\n      tag_375\n        /* \"#utility.yul\":15184:15187   */\n      dup3\n        /* \"#utility.yul\":15175:15181   */\n      dup6\n        /* \"#utility.yul\":15113:15188   */\n      tag_229\n      jump\t// in\n    tag_375:\n        /* \"#utility.yul\":15213:15215   */\n      0x20\n        /* \"#utility.yul\":15208:15211   */\n      dup3\n        /* \"#utility.yul\":15204:15216   */\n      add\n        /* \"#utility.yul\":15197:15216   */\n      swap2\n      pop\n        /* \"#utility.yul\":15226:15301   */\n      tag_376\n        /* \"#utility.yul\":15297:15300   */\n      dup3\n        /* \"#utility.yul\":15288:15294   */\n      dup5\n        /* \"#utility.yul\":15226:15301   */\n      tag_229\n      jump\t// in\n    tag_376:\n        /* \"#utility.yul\":15326:15328   */\n      0x20\n        /* \"#utility.yul\":15321:15324   */\n      dup3\n        /* \"#utility.yul\":15317:15329   */\n      add\n        /* \"#utility.yul\":15310:15329   */\n      swap2\n      pop\n        /* \"#utility.yul\":15346:15349   */\n      dup2\n        /* \"#utility.yul\":15339:15349   */\n      swap1\n      pop\n        /* \"#utility.yul\":14817:15355   */\n      swap5\n      swap4\n      pop\n      pop\n      pop\n      pop\n      jump\t// out\n        /* \"#utility.yul\":15361:15537   */\n    tag_159:\n        /* \"#utility.yul\":15393:15394   */\n      0x00\n        /* \"#utility.yul\":15410:15430   */\n      tag_378\n        /* \"#utility.yul\":15428:15429   */\n      dup3\n        /* \"#utility.yul\":15410:15430   */\n      tag_186\n      jump\t// in\n    tag_378:\n        /* \"#utility.yul\":15405:15430   */\n      swap2\n      pop\n        /* \"#utility.yul\":15444:15464   */\n      tag_379\n        /* \"#utility.yul\":15462:15463   */\n      dup4\n        /* \"#utility.yul\":15444:15464   */\n      tag_186\n      jump\t// in\n    tag_379:\n        /* \"#utility.yul\":15439:15464   */\n      swap3\n      pop\n        /* \"#utility.yul\":15483:15484   */\n      dup3\n        /* \"#utility.yul\":15473:15508   */\n      tag_380\n      jumpi\n        /* \"#utility.yul\":15488:15506   */\n      tag_381\n      tag_217\n      jump\t// in\n    tag_381:\n        /* \"#utility.yul\":15473:15508   */\n    tag_380:\n        /* \"#utility.yul\":15529:15530   */\n      dup3\n        /* \"#utility.yul\":15526:15527   */\n      dup3\n        /* \"#utility.yul\":15522:15531   */\n      mod\n        /* \"#utility.yul\":15517:15531   */\n      swap1\n      pop\n        /* \"#utility.yul\":15361:15537   */\n      swap3\n      swap2\n      pop\n      pop\n      jump\t// out\n        /* \"#utility.yul\":15543:15714   */\n    tag_170:\n        /* \"#utility.yul\":15582:15585   */\n      0x00\n        /* \"#utility.yul\":15605:15629   */\n      tag_383\n        /* \"#utility.yul\":15623:15628   */\n      dup3\n        /* \"#utility.yul\":15605:15629   */\n      tag_186\n      jump\t// in\n    tag_383:\n        /* \"#utility.yul\":15596:15629   */\n      swap2\n      pop\n        /* \"#utility.yul\":15651:15655   */\n      0x00\n        /* \"#utility.yul\":15644:15649   */\n      dup3\n        /* \"#utility.yul\":15641:15656   */\n      sub\n        /* \"#utility.yul\":15638:15679   */\n      tag_384\n      jumpi\n        /* \"#utility.yul\":15659:15677   */\n      tag_385\n      tag_216\n      jump\t// in\n    tag_385:\n        /* \"#utility.yul\":15638:15679   */\n    tag_384:\n        /* \"#utility.yul\":15706:15707   */\n      0x01\n        /* \"#utility.yul\":15699:15704   */\n      dup3\n        /* \"#utility.yul\":15695:15708   */\n      sub\n        /* \"#utility.yul\":15688:15708   */\n      swap1\n      pop\n        /* \"#utility.yul\":15543:15714   */\n      swap2\n      swap1\n      pop\n      jump\t// out\n        /* \"#utility.yul\":15720:15900   */\n    tag_181:\n        /* \"#utility.yul\":15768:15845   */\n      0x4e487b7100000000000000000000000000000000000000000000000000000000\n        /* \"#utility.yul\":15765:15766   */\n      0x00\n        /* \"#utility.yul\":15758:15846   */\n      mstore\n        /* \"#utility.yul\":15865:15869   */\n      0x31\n        /* \"#utility.yul\":15862:15863   */\n      0x04\n        /* \"#utility.yul\":15855:15870   */\n      mstore\n        /* \"#utility.yul\":15889:15893   */\n      0x24\n        /* \"#utility.yul\":15886:15887   */\n      0x00\n        /* \"#utility.yul\":15879:15894   */\n      revert\n        /* \"#utility.yul\":15906:16071   */\n    tag_230:\n        /* \"#utility.yul\":16046:16063   */\n      0x4e6f2077696e6e657220666f756e640000000000000000000000000000000000\n        /* \"#utility.yul\":16042:16043   */\n      0x00\n        /* \"#utility.yul\":16034:16040   */\n      dup3\n        /* \"#utility.yul\":16030:16044   */\n      add\n        /* \"#utility.yul\":16023:16064   */\n      mstore\n        /* \"#utility.yul\":15906:16071   */\n      pop\n      jump\t// out\n        /* \"#utility.yul\":16077:16443   */\n    tag_231:\n        /* \"#utility.yul\":16219:16222   */\n      0x00\n        /* \"#utility.yul\":16240:16307   */\n      tag_389\n        /* \"#utility.yul\":16304:16306   */\n      0x0f\n        /* \"#utility.yul\":16299:16302   */\n      dup4\n        /* \"#utility.yul\":16240:16307   */\n      tag_207\n      jump\t// in\n    tag_389:\n        /* \"#utility.yul\":16233:16307   */\n      swap2\n      pop\n        /* \"#utility.yul\":16316:16409   */\n      tag_390\n        /* \"#utility.yul\":16405:16408   */\n      dup3\n        /* \"#utility.yul\":16316:16409   */\n      tag_230\n      jump\t// in\n    tag_390:\n        /* \"#utility.yul\":16434:16436   */\n      0x20\n        /* \"#utility.yul\":16429:16432   */\n      dup3\n        /* \"#utility.yul\":16425:16437   */\n      add\n        /* \"#utility.yul\":16418:16437   */\n      swap1\n      pop\n        /* \"#utility.yul\":16077:16443   */\n      swap2\n      swap1\n      pop\n      jump\t// out\n        /* \"#utility.yul\":16449:16868   */\n    tag_185:\n        /* \"#utility.yul\":16615:16619   */\n      0x00\n        /* \"#utility.yul\":16653:16655   */\n      0x20\n        /* \"#utility.yul\":16642:16651   */\n      dup3\n        /* \"#utility.yul\":16638:16656   */\n      add\n        /* \"#utility.yul\":16630:16656   */\n      swap1\n      pop\n        /* \"#utility.yul\":16702:16711   */\n      dup2\n        /* \"#utility.yul\":16696:16700   */\n      dup2\n        /* \"#utility.yul\":16692:16712   */\n      sub\n        /* \"#utility.yul\":16688:16689   */\n      0x00\n        /* \"#utility.yul\":16677:16686   */\n      dup4\n        /* \"#utility.yul\":16673:16690   */\n      add\n        /* \"#utility.yul\":16666:16713   */\n      mstore\n        /* \"#utility.yul\":16730:16861   */\n      tag_392\n        /* \"#utility.yul\":16856:16860   */\n      dup2\n        /* \"#utility.yul\":16730:16861   */\n      tag_231\n      jump\t// in\n    tag_392:\n        /* \"#utility.yul\":16722:16861   */\n      swap1\n      pop\n        /* \"#utility.yul\":16449:16868   */\n      swap2\n      swap1\n      pop\n      jump\t// out\n\n    auxdata: 0xa2646970667358221220424397d1f892928243c0fd476927f5328442799c01234fb82499623431a6a96964736f6c634300081a0033\n}\n",
				"bytecode": {
					"linkReferences": {},
					"object": "6080604052348015600e575f80fd5b506040516117183803806117188339818101604052810190602e919060ab565b335f806101000a81548173ffffffffffffffffffffffffffffffffffffffff021916908373ffffffffffffffffffffffffffffffffffffffff160217905550806001819055505060d1565b5f80fd5b5f819050919050565b608d81607d565b81146096575f80fd5b50565b5f8151905060a5816086565b92915050565b5f6020828403121560bd5760bc6079565b5b5f60c8848285016099565b91505092915050565b61163a806100de5f395ff3fe6080604052600436106100dc575f3560e01c8063884bf67c1161007e578063dd11247e11610058578063dd11247e146102a6578063e1d10d85146102d0578063edca914c146102fa578063ee38db9514610304576100dc565b8063884bf67c1461022a5780638da5cb5b14610254578063d1d06b2e1461027e576100dc565b80635aa68ac0116100ba5780635aa68ac014610170578063719ce73e1461019a57806384bd3264146101c457806387bb7ae014610200576100dc565b806306e8337f146100e05780631209b1f61461010a57806335c1d34914610134575b5f80fd5b3480156100eb575f80fd5b506100f461031a565b6040516101019190610dab565b60405180910390f35b348015610115575f80fd5b5061011e610323565b60405161012b9190610dab565b60405180910390f35b34801561013f575f80fd5b5061015a60048036038101906101559190610df2565b610329565b6040516101679190610e5c565b60405180910390f35b34801561017b575f80fd5b50610184610364565b6040516101919190610f2c565b60405180910390f35b3480156101a5575f80fd5b506101ae6103ef565b6040516101bb9190610dab565b60405180910390f35b3480156101cf575f80fd5b506101ea60048036038101906101e59190610f76565b6103f5565b6040516101f79190610dab565b60405180910390f35b34801561020b575f80fd5b5061021461040a565b6040516102219190610dab565b60405180910390f35b348015610235575f80fd5b5061023e610413565b60405161024b9190610dab565b60405180910390f35b34801561025f575f80fd5b5061026861041c565b6040516102759190610fc1565b60405180910390f35b348015610289575f80fd5b506102a4600480360381019061029f9190610df2565b61043f565b005b3480156102b1575f80fd5b506102ba610799565b6040516102c79190610dab565b60405180910390f35b3480156102db575f80fd5b506102e461079f565b6040516102f19190610dab565b60405180910390f35b6103026107e3565b005b34801561030f575f80fd5b50610318610950565b005b5f600254905090565b60015481565b60058181548110610338575f80fd5b905f5260205f20015f915054906101000a900473ffffffffffffffffffffffffffffffffffffffff1681565b606060058054806020026020016040519081016040528092919081815260200182805480156103e557602002820191905f5260205f20905b815f9054906101000a900473ffffffffffffffffffffffffffffffffffffffff1673ffffffffffffffffffffffffffffffffffffffff168152602001906001019080831161039c575b5050505050905090565b60035481565b6004602052805f5260405f205f915090505481565b5f600154905090565b5f600354905090565b5f8054906101000a900473ffffffffffffffffffffffffffffffffffffffff1681565b5f8054906101000a900473ffffffffffffffffffffffffffffffffffffffff1673ffffffffffffffffffffffffffffffffffffffff163373ffffffffffffffffffffffffffffffffffffffff16146104cc576040517f08c379a00000000000000000000000000000000000000000000000000000000081526004016104c39061105a565b60405180910390fd5b5f811161050e576040517f08c379a0000000000000000000000000000000000000000000000000000000008152600401610505906110c2565b60405180910390fd5b600580549050811115610556576040517f08c379a000000000000000000000000000000000000000000000000000000000815260040161054d9061112a565b60405180910390fd5b80600254101561059b576040517f08c379a000000000000000000000000000000000000000000000000000000000815260040161059290611192565b60405180910390fd5b5f8167ffffffffffffffff8111156105b6576105b56111b0565b5b6040519080825280602002602001820160405280156105e45781602001602082028036833780820191505090505b5090505f6064605a6003546105f9919061120a565b6106039190611278565b90505f83826106129190611278565b90505f5b8481101561074357610626610aa8565b848281518110610639576106386112a8565b5b602002602001019073ffffffffffffffffffffffffffffffffffffffff16908173ffffffffffffffffffffffffffffffffffffffff16815250505f848281518110610687576106866112a8565b5b602002602001015173ffffffffffffffffffffffffffffffffffffffff16836040516106b290611302565b5f6040518083038185875af1925050503d805f81146106ec576040519150601f19603f3d011682016040523d82523d5f602084013e6106f1565b606091505b5050905080610735576040517f08c379a000000000000000000000000000000000000000000000000000000000815260040161072c90611360565b60405180910390fd5b508080600101915050610616565b508160035f828254610755919061137e565b925050819055507f01e26fd9468170c075e6afc90d001d0e84ba9f84a6816461d03d2a4e7f6aa7de8360405161078b9190610f2c565b60405180910390a150505050565b60025481565b5f60045f3373ffffffffffffffffffffffffffffffffffffffff1673ffffffffffffffffffffffffffffffffffffffff1681526020019081526020015f2054905090565b600154341015610828576040517f08c379a000000000000000000000000000000000000000000000000000000000815260040161081f906113fb565b60405180910390fd5b5f60045f3373ffffffffffffffffffffffffffffffffffffffff1673ffffffffffffffffffffffffffffffffffffffff1681526020019081526020015f2054036108cd57600533908060018154018082558091505060019003905f5260205f20015f9091909190916101000a81548173ffffffffffffffffffffffffffffffffffffffff021916908373ffffffffffffffffffffffffffffffffffffffff1602179055505b60045f3373ffffffffffffffffffffffffffffffffffffffff1673ffffffffffffffffffffffffffffffffffffffff1681526020019081526020015f205f81548092919061091a90611419565b919050555060025f81548092919061093190611419565b91905055503460035f8282546109479190611460565b92505081905550565b5f8054906101000a900473ffffffffffffffffffffffffffffffffffffffff1673ffffffffffffffffffffffffffffffffffffffff163373ffffffffffffffffffffffffffffffffffffffff16146109dd576040517f08c379a00000000000000000000000000000000000000000000000000000000081526004016109d49061105a565b60405180910390fd5b5f805f9054906101000a900473ffffffffffffffffffffffffffffffffffffffff1673ffffffffffffffffffffffffffffffffffffffff1647604051610a2290611302565b5f6040518083038185875af1925050503d805f8114610a5c576040519150601f19603f3d011682016040523d82523d5f602084013e610a61565b606091505b5050905080610aa5576040517f08c379a0000000000000000000000000000000000000000000000000000000008152600401610a9c90611360565b60405180910390fd5b50565b5f80600143610ab7919061137e565b4042600254604051602001610ace939291906114dc565b604051602081830303815290604052805190602001205f1c90505f60025482610af79190611518565b90505f805b600580549050811015610d54575f60058281548110610b1e57610b1d6112a8565b5b905f5260205f20015f9054906101000a900473ffffffffffffffffffffffffffffffffffffffff1690505f60045f8373ffffffffffffffffffffffffffffffffffffffff1673ffffffffffffffffffffffffffffffffffffffff1681526020019081526020015f20549050838510158015610ba357508084610ba09190611460565b85105b15610d375760045f8373ffffffffffffffffffffffffffffffffffffffff1673ffffffffffffffffffffffffffffffffffffffff1681526020019081526020015f205f815480929190610bf590611548565b91905055505f60045f8473ffffffffffffffffffffffffffffffffffffffff1673ffffffffffffffffffffffffffffffffffffffff1681526020019081526020015f205403610d295760056001600580549050610c52919061137e565b81548110610c6357610c626112a8565b5b905f5260205f20015f9054906101000a900473ffffffffffffffffffffffffffffffffffffffff1660058481548110610c9f57610c9e6112a8565b5b905f5260205f20015f6101000a81548173ffffffffffffffffffffffffffffffffffffffff021916908373ffffffffffffffffffffffffffffffffffffffff1602179055506005805480610cf657610cf561156f565b5b600190038181905f5260205f20015f6101000a81549073ffffffffffffffffffffffffffffffffffffffff021916905590555b819650505050505050610d90565b8084610d439190611460565b935050508080600101915050610afc565b506040517f08c379a0000000000000000000000000000000000000000000000000000000008152600401610d87906115e6565b60405180910390fd5b90565b5f819050919050565b610da581610d93565b82525050565b5f602082019050610dbe5f830184610d9c565b92915050565b5f80fd5b610dd181610d93565b8114610ddb575f80fd5b50565b5f81359050610dec81610dc8565b92915050565b5f60208284031215610e0757610e06610dc4565b5b5f610e1484828501610dde565b91505092915050565b5f73ffffffffffffffffffffffffffffffffffffffff82169050919050565b5f610e4682610e1d565b9050919050565b610e5681610e3c565b82525050565b5f602082019050610e6f5f830184610e4d565b92915050565b5f81519050919050565b5f82825260208201905092915050565b5f819050602082019050919050565b610ea781610e3c565b82525050565b5f610eb88383610e9e565b60208301905092915050565b5f602082019050919050565b5f610eda82610e75565b610ee48185610e7f565b9350610eef83610e8f565b805f5b83811015610f1f578151610f068882610ead565b9750610f1183610ec4565b925050600181019050610ef2565b5085935050505092915050565b5f6020820190508181035f830152610f448184610ed0565b905092915050565b610f5581610e3c565b8114610f5f575f80fd5b50565b5f81359050610f7081610f4c565b92915050565b5f60208284031215610f8b57610f8a610dc4565b5b5f610f9884828501610f62565b91505092915050565b5f610fab82610e1d565b9050919050565b610fbb81610fa1565b82525050565b5f602082019050610fd45f830184610fb2565b92915050565b5f82825260208201905092915050565b7f4f6e6c79206f776e65722063616e2063616c6c20746869732066756e6374696f5f8201527f6e00000000000000000000000000000000000000000000000000000000000000602082015250565b5f611044602183610fda565b915061104f82610fea565b604082019050919050565b5f6020820190508181035f83015261107181611038565b9050919050565b7f4d7573742064726177206174206c65617374206f6e652077696e6e65720000005f82015250565b5f6110ac601d83610fda565b91506110b782611078565b602082019050919050565b5f6020820190508181035f8301526110d9816110a0565b9050919050565b7f4e6f7420656e6f756768207061727469636970616e74730000000000000000005f82015250565b5f611114601783610fda565b915061111f826110e0565b602082019050919050565b5f6020820190508181035f83015261114181611108565b9050919050565b7f4e6f7420656e6f756768207469636b65747320736f6c640000000000000000005f82015250565b5f61117c601783610fda565b915061118782611148565b602082019050919050565b5f6020820190508181035f8301526111a981611170565b9050919050565b7f4e487b71000000000000000000000000000000000000000000000000000000005f52604160045260245ffd5b7f4e487b71000000000000000000000000000000000000000000000000000000005f52601160045260245ffd5b5f61121482610d93565b915061121f83610d93565b925082820261122d81610d93565b91508282048414831517611244576112436111dd565b5b5092915050565b7f4e487b71000000000000000000000000000000000000000000000000000000005f52601260045260245ffd5b5f61128282610d93565b915061128d83610d93565b92508261129d5761129c61124b565b5b828204905092915050565b7f4e487b71000000000000000000000000000000000000000000000000000000005f52603260045260245ffd5b5f81905092915050565b50565b5f6112ed5f836112d5565b91506112f8826112df565b5f82019050919050565b5f61130c826112e2565b9150819050919050565b7f4661696c656420746f2073656e642045746865720000000000000000000000005f82015250565b5f61134a601483610fda565b915061135582611316565b602082019050919050565b5f6020820190508181035f8301526113778161133e565b9050919050565b5f61138882610d93565b915061139383610d93565b92508282039050818111156113ab576113aa6111dd565b5b92915050565b7f496e73756666696369656e742066756e647320666f72207469636b65740000005f82015250565b5f6113e5601d83610fda565b91506113f0826113b1565b602082019050919050565b5f6020820190508181035f830152611412816113d9565b9050919050565b5f61142382610d93565b91507fffffffffffffffffffffffffffffffffffffffffffffffffffffffffffffffff8203611455576114546111dd565b5b600182019050919050565b5f61146a82610d93565b915061147583610d93565b925082820190508082111561148d5761148c6111dd565b5b92915050565b5f819050919050565b5f819050919050565b6114b66114b182611493565b61149c565b82525050565b5f819050919050565b6114d66114d182610d93565b6114bc565b82525050565b5f6114e782866114a5565b6020820191506114f782856114c5565b60208201915061150782846114c5565b602082019150819050949350505050565b5f61152282610d93565b915061152d83610d93565b92508261153d5761153c61124b565b5b828206905092915050565b5f61155282610d93565b91505f8203611564576115636111dd565b5b600182039050919050565b7f4e487b71000000000000000000000000000000000000000000000000000000005f52603160045260245ffd5b7f4e6f2077696e6e657220666f756e6400000000000000000000000000000000005f82015250565b5f6115d0600f83610fda565b91506115db8261159c565b602082019050919050565b5f6020820190508181035f8301526115fd816115c4565b905091905056fea2646970667358221220424397d1f892928243c0fd476927f5328442799c01234fb82499623431a6a96964736f6c634300081a0033",
					"opcodes": "PUSH1 0x80 PUSH1 0x40 MSTORE CALLVALUE DUP1 ISZERO PUSH1 0xE JUMPI PUSH0 DUP1 REVERT JUMPDEST POP PUSH1 0x40 MLOAD PUSH2 0x1718 CODESIZE SUB DUP1 PUSH2 0x1718 DUP4 CODECOPY DUP2 DUP2 ADD PUSH1 0x40 MSTORE DUP2 ADD SWAP1 PUSH1 0x2E SWAP2 SWAP1 PUSH1 0xAB JUMP JUMPDEST CALLER PUSH0 DUP1 PUSH2 0x100 EXP DUP2 SLOAD DUP2 PUSH20 0xFFFFFFFFFFFFFFFFFFFFFFFFFFFFFFFFFFFFFFFF MUL NOT AND SWAP1 DUP4 PUSH20 0xFFFFFFFFFFFFFFFFFFFFFFFFFFFFFFFFFFFFFFFF AND MUL OR SWAP1 SSTORE POP DUP1 PUSH1 0x1 DUP2 SWAP1 SSTORE POP POP PUSH1 0xD1 JUMP JUMPDEST PUSH0 DUP1 REVERT JUMPDEST PUSH0 DUP2 SWAP1 POP SWAP2 SWAP1 POP JUMP JUMPDEST PUSH1 0x8D DUP2 PUSH1 0x7D JUMP JUMPDEST DUP2 EQ PUSH1 0x96 JUMPI PUSH0 DUP1 REVERT JUMPDEST POP JUMP JUMPDEST PUSH0 DUP2 MLOAD SWAP1 POP PUSH1 0xA5 DUP2 PUSH1 0x86 JUMP JUMPDEST SWAP3 SWAP2 POP POP JUMP JUMPDEST PUSH0 PUSH1 0x20 DUP3 DUP5 SUB SLT ISZERO PUSH1 0xBD JUMPI PUSH1 0xBC PUSH1 0x79 JUMP JUMPDEST JUMPDEST PUSH0 PUSH1 0xC8 DUP5 DUP3 DUP6 ADD PUSH1 0x99 JUMP JUMPDEST SWAP2 POP POP SWAP3 SWAP2 POP POP JUMP JUMPDEST PUSH2 0x163A DUP1 PUSH2 0xDE PUSH0 CODECOPY PUSH0 RETURN INVALID PUSH1 0x80 PUSH1 0x40 MSTORE PUSH1 0x4 CALLDATASIZE LT PUSH2 0xDC JUMPI PUSH0 CALLDATALOAD PUSH1 0xE0 SHR DUP1 PUSH4 0x884BF67C GT PUSH2 0x7E JUMPI DUP1 PUSH4 0xDD11247E GT PUSH2 0x58 JUMPI DUP1 PUSH4 0xDD11247E EQ PUSH2 0x2A6 JUMPI DUP1 PUSH4 0xE1D10D85 EQ PUSH2 0x2D0 JUMPI DUP1 PUSH4 0xEDCA914C EQ PUSH2 0x2FA JUMPI DUP1 PUSH4 0xEE38DB95 EQ PUSH2 0x304 JUMPI PUSH2 0xDC JUMP JUMPDEST DUP1 PUSH4 0x884BF67C EQ PUSH2 0x22A JUMPI DUP1 PUSH4 0x8DA5CB5B EQ PUSH2 0x254 JUMPI DUP1 PUSH4 0xD1D06B2E EQ PUSH2 0x27E JUMPI PUSH2 0xDC JUMP JUMPDEST DUP1 PUSH4 0x5AA68AC0 GT PUSH2 0xBA JUMPI DUP1 PUSH4 0x5AA68AC0 EQ PUSH2 0x170 JUMPI DUP1 PUSH4 0x719CE73E EQ PUSH2 0x19A JUMPI DUP1 PUSH4 0x84BD3264 EQ PUSH2 0x1C4 JUMPI DUP1 PUSH4 0x87BB7AE0 EQ PUSH2 0x200 JUMPI PUSH2 0xDC JUMP JUMPDEST DUP1 PUSH4 0x6E8337F EQ PUSH2 0xE0 JUMPI DUP1 PUSH4 0x1209B1F6 EQ PUSH2 0x10A JUMPI DUP1 PUSH4 0x35C1D349 EQ PUSH2 0x134 JUMPI JUMPDEST PUSH0 DUP1 REVERT JUMPDEST CALLVALUE DUP1 ISZERO PUSH2 0xEB JUMPI PUSH0 DUP1 REVERT JUMPDEST POP PUSH2 0xF4 PUSH2 0x31A JUMP JUMPDEST PUSH1 0x40 MLOAD PUSH2 0x101 SWAP2 SWAP1 PUSH2 0xDAB JUMP JUMPDEST PUSH1 0x40 MLOAD DUP1 SWAP2 SUB SWAP1 RETURN JUMPDEST CALLVALUE DUP1 ISZERO PUSH2 0x115 JUMPI PUSH0 DUP1 REVERT JUMPDEST POP PUSH2 0x11E PUSH2 0x323 JUMP JUMPDEST PUSH1 0x40 MLOAD PUSH2 0x12B SWAP2 SWAP1 PUSH2 0xDAB JUMP JUMPDEST PUSH1 0x40 MLOAD DUP1 SWAP2 SUB SWAP1 RETURN JUMPDEST CALLVALUE DUP1 ISZERO PUSH2 0x13F JUMPI PUSH0 DUP1 REVERT JUMPDEST POP PUSH2 0x15A PUSH1 0x4 DUP1 CALLDATASIZE SUB DUP2 ADD SWAP1 PUSH2 0x155 SWAP2 SWAP1 PUSH2 0xDF2 JUMP JUMPDEST PUSH2 0x329 JUMP JUMPDEST PUSH1 0x40 MLOAD PUSH2 0x167 SWAP2 SWAP1 PUSH2 0xE5C JUMP JUMPDEST PUSH1 0x40 MLOAD DUP1 SWAP2 SUB SWAP1 RETURN JUMPDEST CALLVALUE DUP1 ISZERO PUSH2 0x17B JUMPI PUSH0 DUP1 REVERT JUMPDEST POP PUSH2 0x184 PUSH2 0x364 JUMP JUMPDEST PUSH1 0x40 MLOAD PUSH2 0x191 SWAP2 SWAP1 PUSH2 0xF2C JUMP JUMPDEST PUSH1 0x40 MLOAD DUP1 SWAP2 SUB SWAP1 RETURN JUMPDEST CALLVALUE DUP1 ISZERO PUSH2 0x1A5 JUMPI PUSH0 DUP1 REVERT JUMPDEST POP PUSH2 0x1AE PUSH2 0x3EF JUMP JUMPDEST PUSH1 0x40 MLOAD PUSH2 0x1BB SWAP2 SWAP1 PUSH2 0xDAB JUMP JUMPDEST PUSH1 0x40 MLOAD DUP1 SWAP2 SUB SWAP1 RETURN JUMPDEST CALLVALUE DUP1 ISZERO PUSH2 0x1CF JUMPI PUSH0 DUP1 REVERT JUMPDEST POP PUSH2 0x1EA PUSH1 0x4 DUP1 CALLDATASIZE SUB DUP2 ADD SWAP1 PUSH2 0x1E5 SWAP2 SWAP1 PUSH2 0xF76 JUMP JUMPDEST PUSH2 0x3F5 JUMP JUMPDEST PUSH1 0x40 MLOAD PUSH2 0x1F7 SWAP2 SWAP1 PUSH2 0xDAB JUMP JUMPDEST PUSH1 0x40 MLOAD DUP1 SWAP2 SUB SWAP1 RETURN JUMPDEST CALLVALUE DUP1 ISZERO PUSH2 0x20B JUMPI PUSH0 DUP1 REVERT JUMPDEST POP PUSH2 0x214 PUSH2 0x40A JUMP JUMPDEST PUSH1 0x40 MLOAD PUSH2 0x221 SWAP2 SWAP1 PUSH2 0xDAB JUMP JUMPDEST PUSH1 0x40 MLOAD DUP1 SWAP2 SUB SWAP1 RETURN JUMPDEST CALLVALUE DUP1 ISZERO PUSH2 0x235 JUMPI PUSH0 DUP1 REVERT JUMPDEST POP PUSH2 0x23E PUSH2 0x413 JUMP JUMPDEST PUSH1 0x40 MLOAD PUSH2 0x24B SWAP2 SWAP1 PUSH2 0xDAB JUMP JUMPDEST PUSH1 0x40 MLOAD DUP1 SWAP2 SUB SWAP1 RETURN JUMPDEST CALLVALUE DUP1 ISZERO PUSH2 0x25F JUMPI PUSH0 DUP1 REVERT JUMPDEST POP PUSH2 0x268 PUSH2 0x41C JUMP JUMPDEST PUSH1 0x40 MLOAD PUSH2 0x275 SWAP2 SWAP1 PUSH2 0xFC1 JUMP JUMPDEST PUSH1 0x40 MLOAD DUP1 SWAP2 SUB SWAP1 RETURN JUMPDEST CALLVALUE DUP1 ISZERO PUSH2 0x289 JUMPI PUSH0 DUP1 REVERT JUMPDEST POP PUSH2 0x2A4 PUSH1 0x4 DUP1 CALLDATASIZE SUB DUP2 ADD SWAP1 PUSH2 0x29F SWAP2 SWAP1 PUSH2 0xDF2 JUMP JUMPDEST PUSH2 0x43F JUMP JUMPDEST STOP JUMPDEST CALLVALUE DUP1 ISZERO PUSH2 0x2B1 JUMPI PUSH0 DUP1 REVERT JUMPDEST POP PUSH2 0x2BA PUSH2 0x799 JUMP JUMPDEST PUSH1 0x40 MLOAD PUSH2 0x2C7 SWAP2 SWAP1 PUSH2 0xDAB JUMP JUMPDEST PUSH1 0x40 MLOAD DUP1 SWAP2 SUB SWAP1 RETURN JUMPDEST CALLVALUE DUP1 ISZERO PUSH2 0x2DB JUMPI PUSH0 DUP1 REVERT JUMPDEST POP PUSH2 0x2E4 PUSH2 0x79F JUMP JUMPDEST PUSH1 0x40 MLOAD PUSH2 0x2F1 SWAP2 SWAP1 PUSH2 0xDAB JUMP JUMPDEST PUSH1 0x40 MLOAD DUP1 SWAP2 SUB SWAP1 RETURN JUMPDEST PUSH2 0x302 PUSH2 0x7E3 JUMP JUMPDEST STOP JUMPDEST CALLVALUE DUP1 ISZERO PUSH2 0x30F JUMPI PUSH0 DUP1 REVERT JUMPDEST POP PUSH2 0x318 PUSH2 0x950 JUMP JUMPDEST STOP JUMPDEST PUSH0 PUSH1 0x2 SLOAD SWAP1 POP SWAP1 JUMP JUMPDEST PUSH1 0x1 SLOAD DUP2 JUMP JUMPDEST PUSH1 0x5 DUP2 DUP2 SLOAD DUP2 LT PUSH2 0x338 JUMPI PUSH0 DUP1 REVERT JUMPDEST SWAP1 PUSH0 MSTORE PUSH1 0x20 PUSH0 KECCAK256 ADD PUSH0 SWAP2 POP SLOAD SWAP1 PUSH2 0x100 EXP SWAP1 DIV PUSH20 0xFFFFFFFFFFFFFFFFFFFFFFFFFFFFFFFFFFFFFFFF AND DUP2 JUMP JUMPDEST PUSH1 0x60 PUSH1 0x5 DUP1 SLOAD DUP1 PUSH1 0x20 MUL PUSH1 0x20 ADD PUSH1 0x40 MLOAD SWAP1 DUP2 ADD PUSH1 0x40 MSTORE DUP1 SWAP3 SWAP2 SWAP1 DUP2 DUP2 MSTORE PUSH1 0x20 ADD DUP3 DUP1 SLOAD DUP1 ISZERO PUSH2 0x3E5 JUMPI PUSH1 0x20 MUL DUP3 ADD SWAP2 SWAP1 PUSH0 MSTORE PUSH1 0x20 PUSH0 KECCAK256 SWAP1 JUMPDEST DUP2 PUSH0 SWAP1 SLOAD SWAP1 PUSH2 0x100 EXP SWAP1 DIV PUSH20 0xFFFFFFFFFFFFFFFFFFFFFFFFFFFFFFFFFFFFFFFF AND PUSH20 0xFFFFFFFFFFFFFFFFFFFFFFFFFFFFFFFFFFFFFFFF AND DUP2 MSTORE PUSH1 0x20 ADD SWAP1 PUSH1 0x1 ADD SWAP1 DUP1 DUP4 GT PUSH2 0x39C JUMPI JUMPDEST POP POP POP POP POP SWAP1 POP SWAP1 JUMP JUMPDEST PUSH1 0x3 SLOAD DUP2 JUMP JUMPDEST PUSH1 0x4 PUSH1 0x20 MSTORE DUP1 PUSH0 MSTORE PUSH1 0x40 PUSH0 KECCAK256 PUSH0 SWAP2 POP SWAP1 POP SLOAD DUP2 JUMP JUMPDEST PUSH0 PUSH1 0x1 SLOAD SWAP1 POP SWAP1 JUMP JUMPDEST PUSH0 PUSH1 0x3 SLOAD SWAP1 POP SWAP1 JUMP JUMPDEST PUSH0 DUP1 SLOAD SWAP1 PUSH2 0x100 EXP SWAP1 DIV PUSH20 0xFFFFFFFFFFFFFFFFFFFFFFFFFFFFFFFFFFFFFFFF AND DUP2 JUMP JUMPDEST PUSH0 DUP1 SLOAD SWAP1 PUSH2 0x100 EXP SWAP1 DIV PUSH20 0xFFFFFFFFFFFFFFFFFFFFFFFFFFFFFFFFFFFFFFFF AND PUSH20 0xFFFFFFFFFFFFFFFFFFFFFFFFFFFFFFFFFFFFFFFF AND CALLER PUSH20 0xFFFFFFFFFFFFFFFFFFFFFFFFFFFFFFFFFFFFFFFF AND EQ PUSH2 0x4CC JUMPI PUSH1 0x40 MLOAD PUSH32 0x8C379A000000000000000000000000000000000000000000000000000000000 DUP2 MSTORE PUSH1 0x4 ADD PUSH2 0x4C3 SWAP1 PUSH2 0x105A JUMP JUMPDEST PUSH1 0x40 MLOAD DUP1 SWAP2 SUB SWAP1 REVERT JUMPDEST PUSH0 DUP2 GT PUSH2 0x50E JUMPI PUSH1 0x40 MLOAD PUSH32 0x8C379A000000000000000000000000000000000000000000000000000000000 DUP2 MSTORE PUSH1 0x4 ADD PUSH2 0x505 SWAP1 PUSH2 0x10C2 JUMP JUMPDEST PUSH1 0x40 MLOAD DUP1 SWAP2 SUB SWAP1 REVERT JUMPDEST PUSH1 0x5 DUP1 SLOAD SWAP1 POP DUP2 GT ISZERO PUSH2 0x556 JUMPI PUSH1 0x40 MLOAD PUSH32 0x8C379A000000000000000000000000000000000000000000000000000000000 DUP2 MSTORE PUSH1 0x4 ADD PUSH2 0x54D SWAP1 PUSH2 0x112A JUMP JUMPDEST PUSH1 0x40 MLOAD DUP1 SWAP2 SUB SWAP1 REVERT JUMPDEST DUP1 PUSH1 0x2 SLOAD LT ISZERO PUSH2 0x59B JUMPI PUSH1 0x40 MLOAD PUSH32 0x8C379A000000000000000000000000000000000000000000000000000000000 DUP2 MSTORE PUSH1 0x4 ADD PUSH2 0x592 SWAP1 PUSH2 0x1192 JUMP JUMPDEST PUSH1 0x40 MLOAD DUP1 SWAP2 SUB SWAP1 REVERT JUMPDEST PUSH0 DUP2 PUSH8 0xFFFFFFFFFFFFFFFF DUP2 GT ISZERO PUSH2 0x5B6 JUMPI PUSH2 0x5B5 PUSH2 0x11B0 JUMP JUMPDEST JUMPDEST PUSH1 0x40 MLOAD SWAP1 DUP1 DUP3 MSTORE DUP1 PUSH1 0x20 MUL PUSH1 0x20 ADD DUP3 ADD PUSH1 0x40 MSTORE DUP1 ISZERO PUSH2 0x5E4 JUMPI DUP2 PUSH1 0x20 ADD PUSH1 0x20 DUP3 MUL DUP1 CALLDATASIZE DUP4 CALLDATACOPY DUP1 DUP3 ADD SWAP2 POP POP SWAP1 POP JUMPDEST POP SWAP1 POP PUSH0 PUSH1 0x64 PUSH1 0x5A PUSH1 0x3 SLOAD PUSH2 0x5F9 SWAP2 SWAP1 PUSH2 0x120A JUMP JUMPDEST PUSH2 0x603 SWAP2 SWAP1 PUSH2 0x1278 JUMP JUMPDEST SWAP1 POP PUSH0 DUP4 DUP3 PUSH2 0x612 SWAP2 SWAP1 PUSH2 0x1278 JUMP JUMPDEST SWAP1 POP PUSH0 JUMPDEST DUP5 DUP2 LT ISZERO PUSH2 0x743 JUMPI PUSH2 0x626 PUSH2 0xAA8 JUMP JUMPDEST DUP5 DUP3 DUP2 MLOAD DUP2 LT PUSH2 0x639 JUMPI PUSH2 0x638 PUSH2 0x12A8 JUMP JUMPDEST JUMPDEST PUSH1 0x20 MUL PUSH1 0x20 ADD ADD SWAP1 PUSH20 0xFFFFFFFFFFFFFFFFFFFFFFFFFFFFFFFFFFFFFFFF AND SWAP1 DUP2 PUSH20 0xFFFFFFFFFFFFFFFFFFFFFFFFFFFFFFFFFFFFFFFF AND DUP2 MSTORE POP POP PUSH0 DUP5 DUP3 DUP2 MLOAD DUP2 LT PUSH2 0x687 JUMPI PUSH2 0x686 PUSH2 0x12A8 JUMP JUMPDEST JUMPDEST PUSH1 0x20 MUL PUSH1 0x20 ADD ADD MLOAD PUSH20 0xFFFFFFFFFFFFFFFFFFFFFFFFFFFFFFFFFFFFFFFF AND DUP4 PUSH1 0x40 MLOAD PUSH2 0x6B2 SWAP1 PUSH2 0x1302 JUMP JUMPDEST PUSH0 PUSH1 0x40 MLOAD DUP1 DUP4 SUB DUP2 DUP6 DUP8 GAS CALL SWAP3 POP POP POP RETURNDATASIZE DUP1 PUSH0 DUP2 EQ PUSH2 0x6EC JUMPI PUSH1 0x40 MLOAD SWAP2 POP PUSH1 0x1F NOT PUSH1 0x3F RETURNDATASIZE ADD AND DUP3 ADD PUSH1 0x40 MSTORE RETURNDATASIZE DUP3 MSTORE RETURNDATASIZE PUSH0 PUSH1 0x20 DUP5 ADD RETURNDATACOPY PUSH2 0x6F1 JUMP JUMPDEST PUSH1 0x60 SWAP2 POP JUMPDEST POP POP SWAP1 POP DUP1 PUSH2 0x735 JUMPI PUSH1 0x40 MLOAD PUSH32 0x8C379A000000000000000000000000000000000000000000000000000000000 DUP2 MSTORE PUSH1 0x4 ADD PUSH2 0x72C SWAP1 PUSH2 0x1360 JUMP JUMPDEST PUSH1 0x40 MLOAD DUP1 SWAP2 SUB SWAP1 REVERT JUMPDEST POP DUP1 DUP1 PUSH1 0x1 ADD SWAP2 POP POP PUSH2 0x616 JUMP JUMPDEST POP DUP2 PUSH1 0x3 PUSH0 DUP3 DUP3 SLOAD PUSH2 0x755 SWAP2 SWAP1 PUSH2 0x137E JUMP JUMPDEST SWAP3 POP POP DUP2 SWAP1 SSTORE POP PUSH32 0x1E26FD9468170C075E6AFC90D001D0E84BA9F84A6816461D03D2A4E7F6AA7DE DUP4 PUSH1 0x40 MLOAD PUSH2 0x78B SWAP2 SWAP1 PUSH2 0xF2C JUMP JUMPDEST PUSH1 0x40 MLOAD DUP1 SWAP2 SUB SWAP1 LOG1 POP POP POP POP JUMP JUMPDEST PUSH1 0x2 SLOAD DUP2 JUMP JUMPDEST PUSH0 PUSH1 0x4 PUSH0 CALLER PUSH20 0xFFFFFFFFFFFFFFFFFFFFFFFFFFFFFFFFFFFFFFFF AND PUSH20 0xFFFFFFFFFFFFFFFFFFFFFFFFFFFFFFFFFFFFFFFF AND DUP2 MSTORE PUSH1 0x20 ADD SWAP1 DUP2 MSTORE PUSH1 0x20 ADD PUSH0 KECCAK256 SLOAD SWAP1 POP SWAP1 JUMP JUMPDEST PUSH1 0x1 SLOAD CALLVALUE LT ISZERO PUSH2 0x828 JUMPI PUSH1 0x40 MLOAD PUSH32 0x8C379A000000000000000000000000000000000000000000000000000000000 DUP2 MSTORE PUSH1 0x4 ADD PUSH2 0x81F SWAP1 PUSH2 0x13FB JUMP JUMPDEST PUSH1 0x40 MLOAD DUP1 SWAP2 SUB SWAP1 REVERT JUMPDEST PUSH0 PUSH1 0x4 PUSH0 CALLER PUSH20 0xFFFFFFFFFFFFFFFFFFFFFFFFFFFFFFFFFFFFFFFF AND PUSH20 0xFFFFFFFFFFFFFFFFFFFFFFFFFFFFFFFFFFFFFFFF AND DUP2 MSTORE PUSH1 0x20 ADD SWAP1 DUP2 MSTORE PUSH1 0x20 ADD PUSH0 KECCAK256 SLOAD SUB PUSH2 0x8CD JUMPI PUSH1 0x5 CALLER SWAP1 DUP1 PUSH1 0x1 DUP2 SLOAD ADD DUP1 DUP3 SSTORE DUP1 SWAP2 POP POP PUSH1 0x1 SWAP1 SUB SWAP1 PUSH0 MSTORE PUSH1 0x20 PUSH0 KECCAK256 ADD PUSH0 SWAP1 SWAP2 SWAP1 SWAP2 SWAP1 SWAP2 PUSH2 0x100 EXP DUP2 SLOAD DUP2 PUSH20 0xFFFFFFFFFFFFFFFFFFFFFFFFFFFFFFFFFFFFFFFF MUL NOT AND SWAP1 DUP4 PUSH20 0xFFFFFFFFFFFFFFFFFFFFFFFFFFFFFFFFFFFFFFFF AND MUL OR SWAP1 SSTORE POP JUMPDEST PUSH1 0x4 PUSH0 CALLER PUSH20 0xFFFFFFFFFFFFFFFFFFFFFFFFFFFFFFFFFFFFFFFF AND PUSH20 0xFFFFFFFFFFFFFFFFFFFFFFFFFFFFFFFFFFFFFFFF AND DUP2 MSTORE PUSH1 0x20 ADD SWAP1 DUP2 MSTORE PUSH1 0x20 ADD PUSH0 KECCAK256 PUSH0 DUP2 SLOAD DUP1 SWAP3 SWAP2 SWAP1 PUSH2 0x91A SWAP1 PUSH2 0x1419 JUMP JUMPDEST SWAP2 SWAP1 POP SSTORE POP PUSH1 0x2 PUSH0 DUP2 SLOAD DUP1 SWAP3 SWAP2 SWAP1 PUSH2 0x931 SWAP1 PUSH2 0x1419 JUMP JUMPDEST SWAP2 SWAP1 POP SSTORE POP CALLVALUE PUSH1 0x3 PUSH0 DUP3 DUP3 SLOAD PUSH2 0x947 SWAP2 SWAP1 PUSH2 0x1460 JUMP JUMPDEST SWAP3 POP POP DUP2 SWAP1 SSTORE POP JUMP JUMPDEST PUSH0 DUP1 SLOAD SWAP1 PUSH2 0x100 EXP SWAP1 DIV PUSH20 0xFFFFFFFFFFFFFFFFFFFFFFFFFFFFFFFFFFFFFFFF AND PUSH20 0xFFFFFFFFFFFFFFFFFFFFFFFFFFFFFFFFFFFFFFFF AND CALLER PUSH20 0xFFFFFFFFFFFFFFFFFFFFFFFFFFFFFFFFFFFFFFFF AND EQ PUSH2 0x9DD JUMPI PUSH1 0x40 MLOAD PUSH32 0x8C379A000000000000000000000000000000000000000000000000000000000 DUP2 MSTORE PUSH1 0x4 ADD PUSH2 0x9D4 SWAP1 PUSH2 0x105A JUMP JUMPDEST PUSH1 0x40 MLOAD DUP1 SWAP2 SUB SWAP1 REVERT JUMPDEST PUSH0 DUP1 PUSH0 SWAP1 SLOAD SWAP1 PUSH2 0x100 EXP SWAP1 DIV PUSH20 0xFFFFFFFFFFFFFFFFFFFFFFFFFFFFFFFFFFFFFFFF AND PUSH20 0xFFFFFFFFFFFFFFFFFFFFFFFFFFFFFFFFFFFFFFFF AND SELFBALANCE PUSH1 0x40 MLOAD PUSH2 0xA22 SWAP1 PUSH2 0x1302 JUMP JUMPDEST PUSH0 PUSH1 0x40 MLOAD DUP1 DUP4 SUB DUP2 DUP6 DUP8 GAS CALL SWAP3 POP POP POP RETURNDATASIZE DUP1 PUSH0 DUP2 EQ PUSH2 0xA5C JUMPI PUSH1 0x40 MLOAD SWAP2 POP PUSH1 0x1F NOT PUSH1 0x3F RETURNDATASIZE ADD AND DUP3 ADD PUSH1 0x40 MSTORE RETURNDATASIZE DUP3 MSTORE RETURNDATASIZE PUSH0 PUSH1 0x20 DUP5 ADD RETURNDATACOPY PUSH2 0xA61 JUMP JUMPDEST PUSH1 0x60 SWAP2 POP JUMPDEST POP POP SWAP1 POP DUP1 PUSH2 0xAA5 JUMPI PUSH1 0x40 MLOAD PUSH32 0x8C379A000000000000000000000000000000000000000000000000000000000 DUP2 MSTORE PUSH1 0x4 ADD PUSH2 0xA9C SWAP1 PUSH2 0x1360 JUMP JUMPDEST PUSH1 0x40 MLOAD DUP1 SWAP2 SUB SWAP1 REVERT JUMPDEST POP JUMP JUMPDEST PUSH0 DUP1 PUSH1 0x1 NUMBER PUSH2 0xAB7 SWAP2 SWAP1 PUSH2 0x137E JUMP JUMPDEST BLOCKHASH TIMESTAMP PUSH1 0x2 SLOAD PUSH1 0x40 MLOAD PUSH1 0x20 ADD PUSH2 0xACE SWAP4 SWAP3 SWAP2 SWAP1 PUSH2 0x14DC JUMP JUMPDEST PUSH1 0x40 MLOAD PUSH1 0x20 DUP2 DUP4 SUB SUB DUP2 MSTORE SWAP1 PUSH1 0x40 MSTORE DUP1 MLOAD SWAP1 PUSH1 0x20 ADD KECCAK256 PUSH0 SHR SWAP1 POP PUSH0 PUSH1 0x2 SLOAD DUP3 PUSH2 0xAF7 SWAP2 SWAP1 PUSH2 0x1518 JUMP JUMPDEST SWAP1 POP PUSH0 DUP1 JUMPDEST PUSH1 0x5 DUP1 SLOAD SWAP1 POP DUP2 LT ISZERO PUSH2 0xD54 JUMPI PUSH0 PUSH1 0x5 DUP3 DUP2 SLOAD DUP2 LT PUSH2 0xB1E JUMPI PUSH2 0xB1D PUSH2 0x12A8 JUMP JUMPDEST JUMPDEST SWAP1 PUSH0 MSTORE PUSH1 0x20 PUSH0 KECCAK256 ADD PUSH0 SWAP1 SLOAD SWAP1 PUSH2 0x100 EXP SWAP1 DIV PUSH20 0xFFFFFFFFFFFFFFFFFFFFFFFFFFFFFFFFFFFFFFFF AND SWAP1 POP PUSH0 PUSH1 0x4 PUSH0 DUP4 PUSH20 0xFFFFFFFFFFFFFFFFFFFFFFFFFFFFFFFFFFFFFFFF AND PUSH20 0xFFFFFFFFFFFFFFFFFFFFFFFFFFFFFFFFFFFFFFFF AND DUP2 MSTORE PUSH1 0x20 ADD SWAP1 DUP2 MSTORE PUSH1 0x20 ADD PUSH0 KECCAK256 SLOAD SWAP1 POP DUP4 DUP6 LT ISZERO DUP1 ISZERO PUSH2 0xBA3 JUMPI POP DUP1 DUP5 PUSH2 0xBA0 SWAP2 SWAP1 PUSH2 0x1460 JUMP JUMPDEST DUP6 LT JUMPDEST ISZERO PUSH2 0xD37 JUMPI PUSH1 0x4 PUSH0 DUP4 PUSH20 0xFFFFFFFFFFFFFFFFFFFFFFFFFFFFFFFFFFFFFFFF AND PUSH20 0xFFFFFFFFFFFFFFFFFFFFFFFFFFFFFFFFFFFFFFFF AND DUP2 MSTORE PUSH1 0x20 ADD SWAP1 DUP2 MSTORE PUSH1 0x20 ADD PUSH0 KECCAK256 PUSH0 DUP2 SLOAD DUP1 SWAP3 SWAP2 SWAP1 PUSH2 0xBF5 SWAP1 PUSH2 0x1548 JUMP JUMPDEST SWAP2 SWAP1 POP SSTORE POP PUSH0 PUSH1 0x4 PUSH0 DUP5 PUSH20 0xFFFFFFFFFFFFFFFFFFFFFFFFFFFFFFFFFFFFFFFF AND PUSH20 0xFFFFFFFFFFFFFFFFFFFFFFFFFFFFFFFFFFFFFFFF AND DUP2 MSTORE PUSH1 0x20 ADD SWAP1 DUP2 MSTORE PUSH1 0x20 ADD PUSH0 KECCAK256 SLOAD SUB PUSH2 0xD29 JUMPI PUSH1 0x5 PUSH1 0x1 PUSH1 0x5 DUP1 SLOAD SWAP1 POP PUSH2 0xC52 SWAP2 SWAP1 PUSH2 0x137E JUMP JUMPDEST DUP2 SLOAD DUP2 LT PUSH2 0xC63 JUMPI PUSH2 0xC62 PUSH2 0x12A8 JUMP JUMPDEST JUMPDEST SWAP1 PUSH0 MSTORE PUSH1 0x20 PUSH0 KECCAK256 ADD PUSH0 SWAP1 SLOAD SWAP1 PUSH2 0x100 EXP SWAP1 DIV PUSH20 0xFFFFFFFFFFFFFFFFFFFFFFFFFFFFFFFFFFFFFFFF AND PUSH1 0x5 DUP5 DUP2 SLOAD DUP2 LT PUSH2 0xC9F JUMPI PUSH2 0xC9E PUSH2 0x12A8 JUMP JUMPDEST JUMPDEST SWAP1 PUSH0 MSTORE PUSH1 0x20 PUSH0 KECCAK256 ADD PUSH0 PUSH2 0x100 EXP DUP2 SLOAD DUP2 PUSH20 0xFFFFFFFFFFFFFFFFFFFFFFFFFFFFFFFFFFFFFFFF MUL NOT AND SWAP1 DUP4 PUSH20 0xFFFFFFFFFFFFFFFFFFFFFFFFFFFFFFFFFFFFFFFF AND MUL OR SWAP1 SSTORE POP PUSH1 0x5 DUP1 SLOAD DUP1 PUSH2 0xCF6 JUMPI PUSH2 0xCF5 PUSH2 0x156F JUMP JUMPDEST JUMPDEST PUSH1 0x1 SWAP1 SUB DUP2 DUP2 SWAP1 PUSH0 MSTORE PUSH1 0x20 PUSH0 KECCAK256 ADD PUSH0 PUSH2 0x100 EXP DUP2 SLOAD SWAP1 PUSH20 0xFFFFFFFFFFFFFFFFFFFFFFFFFFFFFFFFFFFFFFFF MUL NOT AND SWAP1 SSTORE SWAP1 SSTORE JUMPDEST DUP2 SWAP7 POP POP POP POP POP POP POP PUSH2 0xD90 JUMP JUMPDEST DUP1 DUP5 PUSH2 0xD43 SWAP2 SWAP1 PUSH2 0x1460 JUMP JUMPDEST SWAP4 POP POP POP DUP1 DUP1 PUSH1 0x1 ADD SWAP2 POP POP PUSH2 0xAFC JUMP JUMPDEST POP PUSH1 0x40 MLOAD PUSH32 0x8C379A000000000000000000000000000000000000000000000000000000000 DUP2 MSTORE PUSH1 0x4 ADD PUSH2 0xD87 SWAP1 PUSH2 0x15E6 JUMP JUMPDEST PUSH1 0x40 MLOAD DUP1 SWAP2 SUB SWAP1 REVERT JUMPDEST SWAP1 JUMP JUMPDEST PUSH0 DUP2 SWAP1 POP SWAP2 SWAP1 POP JUMP JUMPDEST PUSH2 0xDA5 DUP2 PUSH2 0xD93 JUMP JUMPDEST DUP3 MSTORE POP POP JUMP JUMPDEST PUSH0 PUSH1 0x20 DUP3 ADD SWAP1 POP PUSH2 0xDBE PUSH0 DUP4 ADD DUP5 PUSH2 0xD9C JUMP JUMPDEST SWAP3 SWAP2 POP POP JUMP JUMPDEST PUSH0 DUP1 REVERT JUMPDEST PUSH2 0xDD1 DUP2 PUSH2 0xD93 JUMP JUMPDEST DUP2 EQ PUSH2 0xDDB JUMPI PUSH0 DUP1 REVERT JUMPDEST POP JUMP JUMPDEST PUSH0 DUP2 CALLDATALOAD SWAP1 POP PUSH2 0xDEC DUP2 PUSH2 0xDC8 JUMP JUMPDEST SWAP3 SWAP2 POP POP JUMP JUMPDEST PUSH0 PUSH1 0x20 DUP3 DUP5 SUB SLT ISZERO PUSH2 0xE07 JUMPI PUSH2 0xE06 PUSH2 0xDC4 JUMP JUMPDEST JUMPDEST PUSH0 PUSH2 0xE14 DUP5 DUP3 DUP6 ADD PUSH2 0xDDE JUMP JUMPDEST SWAP2 POP POP SWAP3 SWAP2 POP POP JUMP JUMPDEST PUSH0 PUSH20 0xFFFFFFFFFFFFFFFFFFFFFFFFFFFFFFFFFFFFFFFF DUP3 AND SWAP1 POP SWAP2 SWAP1 POP JUMP JUMPDEST PUSH0 PUSH2 0xE46 DUP3 PUSH2 0xE1D JUMP JUMPDEST SWAP1 POP SWAP2 SWAP1 POP JUMP JUMPDEST PUSH2 0xE56 DUP2 PUSH2 0xE3C JUMP JUMPDEST DUP3 MSTORE POP POP JUMP JUMPDEST PUSH0 PUSH1 0x20 DUP3 ADD SWAP1 POP PUSH2 0xE6F PUSH0 DUP4 ADD DUP5 PUSH2 0xE4D JUMP JUMPDEST SWAP3 SWAP2 POP POP JUMP JUMPDEST PUSH0 DUP2 MLOAD SWAP1 POP SWAP2 SWAP1 POP JUMP JUMPDEST PUSH0 DUP3 DUP3 MSTORE PUSH1 0x20 DUP3 ADD SWAP1 POP SWAP3 SWAP2 POP POP JUMP JUMPDEST PUSH0 DUP2 SWAP1 POP PUSH1 0x20 DUP3 ADD SWAP1 POP SWAP2 SWAP1 POP JUMP JUMPDEST PUSH2 0xEA7 DUP2 PUSH2 0xE3C JUMP JUMPDEST DUP3 MSTORE POP POP JUMP JUMPDEST PUSH0 PUSH2 0xEB8 DUP4 DUP4 PUSH2 0xE9E JUMP JUMPDEST PUSH1 0x20 DUP4 ADD SWAP1 POP SWAP3 SWAP2 POP POP JUMP JUMPDEST PUSH0 PUSH1 0x20 DUP3 ADD SWAP1 POP SWAP2 SWAP1 POP JUMP JUMPDEST PUSH0 PUSH2 0xEDA DUP3 PUSH2 0xE75 JUMP JUMPDEST PUSH2 0xEE4 DUP2 DUP6 PUSH2 0xE7F JUMP JUMPDEST SWAP4 POP PUSH2 0xEEF DUP4 PUSH2 0xE8F JUMP JUMPDEST DUP1 PUSH0 JUMPDEST DUP4 DUP2 LT ISZERO PUSH2 0xF1F JUMPI DUP2 MLOAD PUSH2 0xF06 DUP9 DUP3 PUSH2 0xEAD JUMP JUMPDEST SWAP8 POP PUSH2 0xF11 DUP4 PUSH2 0xEC4 JUMP JUMPDEST SWAP3 POP POP PUSH1 0x1 DUP2 ADD SWAP1 POP PUSH2 0xEF2 JUMP JUMPDEST POP DUP6 SWAP4 POP POP POP POP SWAP3 SWAP2 POP POP JUMP JUMPDEST PUSH0 PUSH1 0x20 DUP3 ADD SWAP1 POP DUP2 DUP2 SUB PUSH0 DUP4 ADD MSTORE PUSH2 0xF44 DUP2 DUP5 PUSH2 0xED0 JUMP JUMPDEST SWAP1 POP SWAP3 SWAP2 POP POP JUMP JUMPDEST PUSH2 0xF55 DUP2 PUSH2 0xE3C JUMP JUMPDEST DUP2 EQ PUSH2 0xF5F JUMPI PUSH0 DUP1 REVERT JUMPDEST POP JUMP JUMPDEST PUSH0 DUP2 CALLDATALOAD SWAP1 POP PUSH2 0xF70 DUP2 PUSH2 0xF4C JUMP JUMPDEST SWAP3 SWAP2 POP POP JUMP JUMPDEST PUSH0 PUSH1 0x20 DUP3 DUP5 SUB SLT ISZERO PUSH2 0xF8B JUMPI PUSH2 0xF8A PUSH2 0xDC4 JUMP JUMPDEST JUMPDEST PUSH0 PUSH2 0xF98 DUP5 DUP3 DUP6 ADD PUSH2 0xF62 JUMP JUMPDEST SWAP2 POP POP SWAP3 SWAP2 POP POP JUMP JUMPDEST PUSH0 PUSH2 0xFAB DUP3 PUSH2 0xE1D JUMP JUMPDEST SWAP1 POP SWAP2 SWAP1 POP JUMP JUMPDEST PUSH2 0xFBB DUP2 PUSH2 0xFA1 JUMP JUMPDEST DUP3 MSTORE POP POP JUMP JUMPDEST PUSH0 PUSH1 0x20 DUP3 ADD SWAP1 POP PUSH2 0xFD4 PUSH0 DUP4 ADD DUP5 PUSH2 0xFB2 JUMP JUMPDEST SWAP3 SWAP2 POP POP JUMP JUMPDEST PUSH0 DUP3 DUP3 MSTORE PUSH1 0x20 DUP3 ADD SWAP1 POP SWAP3 SWAP2 POP POP JUMP JUMPDEST PUSH32 0x4F6E6C79206F776E65722063616E2063616C6C20746869732066756E6374696F PUSH0 DUP3 ADD MSTORE PUSH32 0x6E00000000000000000000000000000000000000000000000000000000000000 PUSH1 0x20 DUP3 ADD MSTORE POP JUMP JUMPDEST PUSH0 PUSH2 0x1044 PUSH1 0x21 DUP4 PUSH2 0xFDA JUMP JUMPDEST SWAP2 POP PUSH2 0x104F DUP3 PUSH2 0xFEA JUMP JUMPDEST PUSH1 0x40 DUP3 ADD SWAP1 POP SWAP2 SWAP1 POP JUMP JUMPDEST PUSH0 PUSH1 0x20 DUP3 ADD SWAP1 POP DUP2 DUP2 SUB PUSH0 DUP4 ADD MSTORE PUSH2 0x1071 DUP2 PUSH2 0x1038 JUMP JUMPDEST SWAP1 POP SWAP2 SWAP1 POP JUMP JUMPDEST PUSH32 0x4D7573742064726177206174206C65617374206F6E652077696E6E6572000000 PUSH0 DUP3 ADD MSTORE POP JUMP JUMPDEST PUSH0 PUSH2 0x10AC PUSH1 0x1D DUP4 PUSH2 0xFDA JUMP JUMPDEST SWAP2 POP PUSH2 0x10B7 DUP3 PUSH2 0x1078 JUMP JUMPDEST PUSH1 0x20 DUP3 ADD SWAP1 POP SWAP2 SWAP1 POP JUMP JUMPDEST PUSH0 PUSH1 0x20 DUP3 ADD SWAP1 POP DUP2 DUP2 SUB PUSH0 DUP4 ADD MSTORE PUSH2 0x10D9 DUP2 PUSH2 0x10A0 JUMP JUMPDEST SWAP1 POP SWAP2 SWAP1 POP JUMP JUMPDEST PUSH32 0x4E6F7420656E6F756768207061727469636970616E7473000000000000000000 PUSH0 DUP3 ADD MSTORE POP JUMP JUMPDEST PUSH0 PUSH2 0x1114 PUSH1 0x17 DUP4 PUSH2 0xFDA JUMP JUMPDEST SWAP2 POP PUSH2 0x111F DUP3 PUSH2 0x10E0 JUMP JUMPDEST PUSH1 0x20 DUP3 ADD SWAP1 POP SWAP2 SWAP1 POP JUMP JUMPDEST PUSH0 PUSH1 0x20 DUP3 ADD SWAP1 POP DUP2 DUP2 SUB PUSH0 DUP4 ADD MSTORE PUSH2 0x1141 DUP2 PUSH2 0x1108 JUMP JUMPDEST SWAP1 POP SWAP2 SWAP1 POP JUMP JUMPDEST PUSH32 0x4E6F7420656E6F756768207469636B65747320736F6C64000000000000000000 PUSH0 DUP3 ADD MSTORE POP JUMP JUMPDEST PUSH0 PUSH2 0x117C PUSH1 0x17 DUP4 PUSH2 0xFDA JUMP JUMPDEST SWAP2 POP PUSH2 0x1187 DUP3 PUSH2 0x1148 JUMP JUMPDEST PUSH1 0x20 DUP3 ADD SWAP1 POP SWAP2 SWAP1 POP JUMP JUMPDEST PUSH0 PUSH1 0x20 DUP3 ADD SWAP1 POP DUP2 DUP2 SUB PUSH0 DUP4 ADD MSTORE PUSH2 0x11A9 DUP2 PUSH2 0x1170 JUMP JUMPDEST SWAP1 POP SWAP2 SWAP1 POP JUMP JUMPDEST PUSH32 0x4E487B7100000000000000000000000000000000000000000000000000000000 PUSH0 MSTORE PUSH1 0x41 PUSH1 0x4 MSTORE PUSH1 0x24 PUSH0 REVERT JUMPDEST PUSH32 0x4E487B7100000000000000000000000000000000000000000000000000000000 PUSH0 MSTORE PUSH1 0x11 PUSH1 0x4 MSTORE PUSH1 0x24 PUSH0 REVERT JUMPDEST PUSH0 PUSH2 0x1214 DUP3 PUSH2 0xD93 JUMP JUMPDEST SWAP2 POP PUSH2 0x121F DUP4 PUSH2 0xD93 JUMP JUMPDEST SWAP3 POP DUP3 DUP3 MUL PUSH2 0x122D DUP2 PUSH2 0xD93 JUMP JUMPDEST SWAP2 POP DUP3 DUP3 DIV DUP5 EQ DUP4 ISZERO OR PUSH2 0x1244 JUMPI PUSH2 0x1243 PUSH2 0x11DD JUMP JUMPDEST JUMPDEST POP SWAP3 SWAP2 POP POP JUMP JUMPDEST PUSH32 0x4E487B7100000000000000000000000000000000000000000000000000000000 PUSH0 MSTORE PUSH1 0x12 PUSH1 0x4 MSTORE PUSH1 0x24 PUSH0 REVERT JUMPDEST PUSH0 PUSH2 0x1282 DUP3 PUSH2 0xD93 JUMP JUMPDEST SWAP2 POP PUSH2 0x128D DUP4 PUSH2 0xD93 JUMP JUMPDEST SWAP3 POP DUP3 PUSH2 0x129D JUMPI PUSH2 0x129C PUSH2 0x124B JUMP JUMPDEST JUMPDEST DUP3 DUP3 DIV SWAP1 POP SWAP3 SWAP2 POP POP JUMP JUMPDEST PUSH32 0x4E487B7100000000000000000000000000000000000000000000000000000000 PUSH0 MSTORE PUSH1 0x32 PUSH1 0x4 MSTORE PUSH1 0x24 PUSH0 REVERT JUMPDEST PUSH0 DUP2 SWAP1 POP SWAP3 SWAP2 POP POP JUMP JUMPDEST POP JUMP JUMPDEST PUSH0 PUSH2 0x12ED PUSH0 DUP4 PUSH2 0x12D5 JUMP JUMPDEST SWAP2 POP PUSH2 0x12F8 DUP3 PUSH2 0x12DF JUMP JUMPDEST PUSH0 DUP3 ADD SWAP1 POP SWAP2 SWAP1 POP JUMP JUMPDEST PUSH0 PUSH2 0x130C DUP3 PUSH2 0x12E2 JUMP JUMPDEST SWAP2 POP DUP2 SWAP1 POP SWAP2 SWAP1 POP JUMP JUMPDEST PUSH32 0x4661696C656420746F2073656E64204574686572000000000000000000000000 PUSH0 DUP3 ADD MSTORE POP JUMP JUMPDEST PUSH0 PUSH2 0x134A PUSH1 0x14 DUP4 PUSH2 0xFDA JUMP JUMPDEST SWAP2 POP PUSH2 0x1355 DUP3 PUSH2 0x1316 JUMP JUMPDEST PUSH1 0x20 DUP3 ADD SWAP1 POP SWAP2 SWAP1 POP JUMP JUMPDEST PUSH0 PUSH1 0x20 DUP3 ADD SWAP1 POP DUP2 DUP2 SUB PUSH0 DUP4 ADD MSTORE PUSH2 0x1377 DUP2 PUSH2 0x133E JUMP JUMPDEST SWAP1 POP SWAP2 SWAP1 POP JUMP JUMPDEST PUSH0 PUSH2 0x1388 DUP3 PUSH2 0xD93 JUMP JUMPDEST SWAP2 POP PUSH2 0x1393 DUP4 PUSH2 0xD93 JUMP JUMPDEST SWAP3 POP DUP3 DUP3 SUB SWAP1 POP DUP2 DUP2 GT ISZERO PUSH2 0x13AB JUMPI PUSH2 0x13AA PUSH2 0x11DD JUMP JUMPDEST JUMPDEST SWAP3 SWAP2 POP POP JUMP JUMPDEST PUSH32 0x496E73756666696369656E742066756E647320666F72207469636B6574000000 PUSH0 DUP3 ADD MSTORE POP JUMP JUMPDEST PUSH0 PUSH2 0x13E5 PUSH1 0x1D DUP4 PUSH2 0xFDA JUMP JUMPDEST SWAP2 POP PUSH2 0x13F0 DUP3 PUSH2 0x13B1 JUMP JUMPDEST PUSH1 0x20 DUP3 ADD SWAP1 POP SWAP2 SWAP1 POP JUMP JUMPDEST PUSH0 PUSH1 0x20 DUP3 ADD SWAP1 POP DUP2 DUP2 SUB PUSH0 DUP4 ADD MSTORE PUSH2 0x1412 DUP2 PUSH2 0x13D9 JUMP JUMPDEST SWAP1 POP SWAP2 SWAP1 POP JUMP JUMPDEST PUSH0 PUSH2 0x1423 DUP3 PUSH2 0xD93 JUMP JUMPDEST SWAP2 POP PUSH32 0xFFFFFFFFFFFFFFFFFFFFFFFFFFFFFFFFFFFFFFFFFFFFFFFFFFFFFFFFFFFFFFFF DUP3 SUB PUSH2 0x1455 JUMPI PUSH2 0x1454 PUSH2 0x11DD JUMP JUMPDEST JUMPDEST PUSH1 0x1 DUP3 ADD SWAP1 POP SWAP2 SWAP1 POP JUMP JUMPDEST PUSH0 PUSH2 0x146A DUP3 PUSH2 0xD93 JUMP JUMPDEST SWAP2 POP PUSH2 0x1475 DUP4 PUSH2 0xD93 JUMP JUMPDEST SWAP3 POP DUP3 DUP3 ADD SWAP1 POP DUP1 DUP3 GT ISZERO PUSH2 0x148D JUMPI PUSH2 0x148C PUSH2 0x11DD JUMP JUMPDEST JUMPDEST SWAP3 SWAP2 POP POP JUMP JUMPDEST PUSH0 DUP2 SWAP1 POP SWAP2 SWAP1 POP JUMP JUMPDEST PUSH0 DUP2 SWAP1 POP SWAP2 SWAP1 POP JUMP JUMPDEST PUSH2 0x14B6 PUSH2 0x14B1 DUP3 PUSH2 0x1493 JUMP JUMPDEST PUSH2 0x149C JUMP JUMPDEST DUP3 MSTORE POP POP JUMP JUMPDEST PUSH0 DUP2 SWAP1 POP SWAP2 SWAP1 POP JUMP JUMPDEST PUSH2 0x14D6 PUSH2 0x14D1 DUP3 PUSH2 0xD93 JUMP JUMPDEST PUSH2 0x14BC JUMP JUMPDEST DUP3 MSTORE POP POP JUMP JUMPDEST PUSH0 PUSH2 0x14E7 DUP3 DUP7 PUSH2 0x14A5 JUMP JUMPDEST PUSH1 0x20 DUP3 ADD SWAP2 POP PUSH2 0x14F7 DUP3 DUP6 PUSH2 0x14C5 JUMP JUMPDEST PUSH1 0x20 DUP3 ADD SWAP2 POP PUSH2 0x1507 DUP3 DUP5 PUSH2 0x14C5 JUMP JUMPDEST PUSH1 0x20 DUP3 ADD SWAP2 POP DUP2 SWAP1 POP SWAP5 SWAP4 POP POP POP POP JUMP JUMPDEST PUSH0 PUSH2 0x1522 DUP3 PUSH2 0xD93 JUMP JUMPDEST SWAP2 POP PUSH2 0x152D DUP4 PUSH2 0xD93 JUMP JUMPDEST SWAP3 POP DUP3 PUSH2 0x153D JUMPI PUSH2 0x153C PUSH2 0x124B JUMP JUMPDEST JUMPDEST DUP3 DUP3 MOD SWAP1 POP SWAP3 SWAP2 POP POP JUMP JUMPDEST PUSH0 PUSH2 0x1552 DUP3 PUSH2 0xD93 JUMP JUMPDEST SWAP2 POP PUSH0 DUP3 SUB PUSH2 0x1564 JUMPI PUSH2 0x1563 PUSH2 0x11DD JUMP JUMPDEST JUMPDEST PUSH1 0x1 DUP3 SUB SWAP1 POP SWAP2 SWAP1 POP JUMP JUMPDEST PUSH32 0x4E487B7100000000000000000000000000000000000000000000000000000000 PUSH0 MSTORE PUSH1 0x31 PUSH1 0x4 MSTORE PUSH1 0x24 PUSH0 REVERT JUMPDEST PUSH32 0x4E6F2077696E6E657220666F756E640000000000000000000000000000000000 PUSH0 DUP3 ADD MSTORE POP JUMP JUMPDEST PUSH0 PUSH2 0x15D0 PUSH1 0xF DUP4 PUSH2 0xFDA JUMP JUMPDEST SWAP2 POP PUSH2 0x15DB DUP3 PUSH2 0x159C JUMP JUMPDEST PUSH1 0x20 DUP3 ADD SWAP1 POP SWAP2 SWAP1 POP JUMP JUMPDEST PUSH0 PUSH1 0x20 DUP3 ADD SWAP1 POP DUP2 DUP2 SUB PUSH0 DUP4 ADD MSTORE PUSH2 0x15FD DUP2 PUSH2 0x15C4 JUMP JUMPDEST SWAP1 POP SWAP2 SWAP1 POP JUMP INVALID LOG2 PUSH5 0x6970667358 0x22 SLT KECCAK256 TIMESTAMP NUMBER SWAP8 0xD1 0xF8 SWAP3 SWAP3 DUP3 NUMBER 0xC0 REVERT SELFBALANCE PUSH10 0x27F5328442799C01234F 0xB8 0x24 SWAP10 PUSH3 0x3431A6 0xA9 PUSH10 0x64736F6C634300081A00 CALLER "
				},
				"gasEstimates": {
					"creation": {
						"codeDepositCost": "1138000",
						"executionCost": "infinite",
						"totalCost": "infinite"
					},
					"external": {
						"buyTicket()": "infinite",
						"drawWinners(uint256)": "infinite",
						"getMyTickets()": "2563",
						"getParticipants()": "infinite",
						"getPrizePool()": "2455",
						"getTicketPrice()": "2521",
						"getTotalTickets()": "2456",
						"owner()": "2550",
						"participants(uint256)": "5012",
						"prizePool()": "2470",
						"ticketPrice()": "2471",
						"ticketsBought(address)": "2869",
						"totalTickets()": "2447",
						"withdrawRemaining()": "infinite"
					},
					"internal": {
						"selectRandomWinner()": "infinite"
					}
				},
				"methodIdentifiers": {
					"buyTicket()": "edca914c",
					"drawWinners(uint256)": "d1d06b2e",
					"getMyTickets()": "e1d10d85",
					"getParticipants()": "5aa68ac0",
					"getPrizePool()": "884bf67c",
					"getTicketPrice()": "87bb7ae0",
					"getTotalTickets()": "06e8337f",
					"owner()": "8da5cb5b",
					"participants(uint256)": "35c1d349",
					"prizePool()": "719ce73e",
					"ticketPrice()": "1209b1f6",
					"ticketsBought(address)": "84bd3264",
					"totalTickets()": "dd11247e",
					"withdrawRemaining()": "ee38db95"
				}
			},
			"storageLayout": {
				"storage": [
					{
						"astId": 3,
						"contract": "contracts/w5_LuckyDraw.sol:LuckyDraw",
						"label": "owner",
						"offset": 0,
						"slot": "0",
						"type": "t_address_payable"
					},
					{
						"astId": 5,
						"contract": "contracts/w5_LuckyDraw.sol:LuckyDraw",
						"label": "ticketPrice",
						"offset": 0,
						"slot": "1",
						"type": "t_uint256"
					},
					{
						"astId": 7,
						"contract": "contracts/w5_LuckyDraw.sol:LuckyDraw",
						"label": "totalTickets",
						"offset": 0,
						"slot": "2",
						"type": "t_uint256"
					},
					{
						"astId": 9,
						"contract": "contracts/w5_LuckyDraw.sol:LuckyDraw",
						"label": "prizePool",
						"offset": 0,
						"slot": "3",
						"type": "t_uint256"
					},
					{
						"astId": 13,
						"contract": "contracts/w5_LuckyDraw.sol:LuckyDraw",
						"label": "ticketsBought",
						"offset": 0,
						"slot": "4",
						"type": "t_mapping(t_address,t_uint256)"
					},
					{
						"astId": 16,
						"contract": "contracts/w5_LuckyDraw.sol:LuckyDraw",
						"label": "participants",
						"offset": 0,
						"slot": "5",
						"type": "t_array(t_address)dyn_storage"
					}
				],
				"types": {
					"t_address": {
						"encoding": "inplace",
						"label": "address",
						"numberOfBytes": "20"
					},
					"t_address_payable": {
						"encoding": "inplace",
						"label": "address payable",
						"numberOfBytes": "20"
					},
					"t_array(t_address)dyn_storage": {
						"base": "t_address",
						"encoding": "dynamic_array",
						"label": "address[]",
						"numberOfBytes": "32"
					},
					"t_mapping(t_address,t_uint256)": {
						"encoding": "mapping",
						"key": "t_address",
						"label": "mapping(address => uint256)",
						"numberOfBytes": "32",
						"value": "t_uint256"
					},
					"t_uint256": {
						"encoding": "inplace",
						"label": "uint256",
						"numberOfBytes": "32"
					}
				}
			},
			"userdoc": {
				"kind": "user",
				"methods": {},
				"version": 1
			}
		}
	}
}