{
	"contracts/w6_SupplyChainContract.sol": {
		"SupplyChainContract": {
			"abi": [
				{
					"inputs": [],
					"stateMutability": "nonpayable",
					"type": "constructor"
				},
				{
					"inputs": [],
					"name": "AlreadyRecalled",
					"type": "error"
				},
				{
					"inputs": [
						{
							"internalType": "string",
							"name": "paramName",
							"type": "string"
						}
					],
					"name": "EmptyParameter",
					"type": "error"
				},
				{
					"inputs": [],
					"name": "InvalidAddress",
					"type": "error"
				},
				{
					"inputs": [
						{
							"internalType": "uint256",
							"name": "productId",
							"type": "uint256"
						},
						{
							"internalType": "address",
							"name": "from",
							"type": "address"
						},
						{
							"internalType": "address",
							"name": "to",
							"type": "address"
						}
					],
					"name": "InvalidOwnershipTransfer",
					"type": "error"
				},
				{
					"inputs": [
						{
							"internalType": "uint256",
							"name": "productId",
							"type": "uint256"
						}
					],
					"name": "InvalidProductId",
					"type": "error"
				},
				{
					"inputs": [
						{
							"internalType": "uint256",
							"name": "productId",
							"type": "uint256"
						}
					],
					"name": "ProductAlreadyExists",
					"type": "error"
				},
				{
					"inputs": [],
					"name": "ProductDoesntExists",
					"type": "error"
				},
				{
					"inputs": [
						{
							"internalType": "address",
							"name": "caller",
							"type": "address"
						}
					],
					"name": "UnauthorizedAccess",
					"type": "error"
				},
				{
					"anonymous": false,
					"inputs": [
						{
							"indexed": true,
							"internalType": "uint256",
							"name": "batchId",
							"type": "uint256"
						},
						{
							"indexed": false,
							"internalType": "string",
							"name": "operation",
							"type": "string"
						}
					],
					"name": "BatchCreation",
					"type": "event"
				},
				{
					"anonymous": false,
					"inputs": [
						{
							"indexed": true,
							"internalType": "uint256",
							"name": "batchId",
							"type": "uint256"
						},
						{
							"indexed": false,
							"internalType": "string",
							"name": "operation",
							"type": "string"
						}
					],
					"name": "BatchProcessed",
					"type": "event"
				},
				{
					"anonymous": false,
					"inputs": [
						{
							"indexed": true,
							"internalType": "uint256",
							"name": "batchId",
							"type": "uint256"
						},
						{
							"indexed": false,
							"internalType": "string",
							"name": "reasons",
							"type": "string"
						}
					],
					"name": "BatchRecalled",
					"type": "event"
				},
				{
					"anonymous": false,
					"inputs": [
						{
							"indexed": true,
							"internalType": "uint256",
							"name": "productID",
							"type": "uint256"
						},
						{
							"indexed": true,
							"internalType": "address",
							"name": "previousowner",
							"type": "address"
						},
						{
							"indexed": true,
							"internalType": "address",
							"name": "newOwner",
							"type": "address"
						}
					],
					"name": "OwnershipTransferred",
					"type": "event"
				},
				{
					"anonymous": false,
					"inputs": [
						{
							"indexed": true,
							"internalType": "address",
							"name": "participant",
							"type": "address"
						}
					],
					"name": "ParticipantAuthorized",
					"type": "event"
				},
				{
					"anonymous": false,
					"inputs": [
						{
							"indexed": true,
							"internalType": "uint256",
							"name": "productID",
							"type": "uint256"
						},
						{
							"indexed": false,
							"internalType": "string",
							"name": "reasons",
							"type": "string"
						}
					],
					"name": "ProductRecalled",
					"type": "event"
				},
				{
					"anonymous": false,
					"inputs": [
						{
							"indexed": true,
							"internalType": "uint256",
							"name": "productId",
							"type": "uint256"
						},
						{
							"indexed": false,
							"internalType": "string",
							"name": "name",
							"type": "string"
						},
						{
							"indexed": true,
							"internalType": "address",
							"name": "owner",
							"type": "address"
						}
					],
					"name": "ProdustRegistered",
					"type": "event"
				},
				{
					"inputs": [
						{
							"internalType": "address",
							"name": "participant",
							"type": "address"
						}
					],
					"name": "addParticipant",
					"outputs": [],
					"stateMutability": "nonpayable",
					"type": "function"
				},
				{
					"inputs": [
						{
							"internalType": "address",
							"name": "participant",
							"type": "address"
						}
					],
					"name": "authorizeParticipant",
					"outputs": [],
					"stateMutability": "nonpayable",
					"type": "function"
				},
				{
					"inputs": [
						{
							"internalType": "address",
							"name": "",
							"type": "address"
						}
					],
					"name": "authorizedParticipants",
					"outputs": [
						{
							"internalType": "bool",
							"name": "",
							"type": "bool"
						}
					],
					"stateMutability": "view",
					"type": "function"
				},
				{
					"inputs": [],
					"name": "batchCount",
					"outputs": [
						{
							"internalType": "uint256",
							"name": "",
							"type": "uint256"
						}
					],
					"stateMutability": "view",
					"type": "function"
				},
				{
					"inputs": [
						{
							"internalType": "uint256",
							"name": "batchId",
							"type": "uint256"
						}
					],
					"name": "batchExists",
					"outputs": [
						{
							"internalType": "bool",
							"name": "",
							"type": "bool"
						}
					],
					"stateMutability": "view",
					"type": "function"
				},
				{
					"inputs": [
						{
							"internalType": "uint256",
							"name": "",
							"type": "uint256"
						}
					],
					"name": "batches",
					"outputs": [
						{
							"internalType": "address",
							"name": "currentOwner",
							"type": "address"
						},
						{
							"internalType": "uint256",
							"name": "timestamp",
							"type": "uint256"
						},
						{
							"internalType": "bool",
							"name": "isRecalled",
							"type": "bool"
						},
						{
							"internalType": "uint256",
							"name": "batchId",
							"type": "uint256"
						},
						{
							"internalType": "string",
							"name": "operation",
							"type": "string"
						}
					],
					"stateMutability": "view",
					"type": "function"
				},
				{
					"inputs": [
						{
							"internalType": "uint256[]",
							"name": "lst_id",
							"type": "uint256[]"
						},
						{
							"internalType": "string[]",
							"name": "lst_name",
							"type": "string[]"
						},
						{
							"internalType": "string[]",
							"name": "lst_description",
							"type": "string[]"
						},
						{
							"internalType": "string",
							"name": "operation",
							"type": "string"
						}
					],
					"name": "createBatch",
					"outputs": [],
					"stateMutability": "nonpayable",
					"type": "function"
				},
				{
					"inputs": [
						{
							"internalType": "uint256",
							"name": "batchIndex",
							"type": "uint256"
						}
					],
					"name": "getBatch",
					"outputs": [
						{
							"internalType": "uint256[]",
							"name": "id",
							"type": "uint256[]"
						},
						{
							"internalType": "string[]",
							"name": "name",
							"type": "string[]"
						},
						{
							"internalType": "string[]",
							"name": "description",
							"type": "string[]"
						},
						{
							"internalType": "address",
							"name": "currentOwner",
							"type": "address"
						},
						{
							"internalType": "uint256",
							"name": "timestamp",
							"type": "uint256"
						},
						{
							"internalType": "bool",
							"name": "isRecalled",
							"type": "bool"
						},
						{
							"internalType": "uint256",
							"name": "batchId",
							"type": "uint256"
						},
						{
							"internalType": "string",
							"name": "operation",
							"type": "string"
						}
					],
					"stateMutability": "view",
					"type": "function"
				},
				{
					"inputs": [
						{
							"internalType": "uint256",
							"name": "productId",
							"type": "uint256"
						}
					],
					"name": "getProduct",
					"outputs": [
						{
							"internalType": "uint256",
							"name": "id",
							"type": "uint256"
						},
						{
							"internalType": "string",
							"name": "name",
							"type": "string"
						},
						{
							"internalType": "address",
							"name": "currentOwner",
							"type": "address"
						},
						{
							"internalType": "uint256",
							"name": "timestamp",
							"type": "uint256"
						},
						{
							"internalType": "bool",
							"name": "isRecalled",
							"type": "bool"
						}
					],
					"stateMutability": "view",
					"type": "function"
				},
				{
					"inputs": [
						{
							"internalType": "uint256",
							"name": "x",
							"type": "uint256"
						}
					],
					"name": "operationConvert",
					"outputs": [
						{
							"internalType": "string",
							"name": "y",
							"type": "string"
						}
					],
					"stateMutability": "pure",
					"type": "function"
				},
				{
					"inputs": [],
					"name": "owner",
					"outputs": [
						{
							"internalType": "address",
							"name": "",
							"type": "address"
						}
					],
					"stateMutability": "view",
					"type": "function"
				},
				{
					"inputs": [
						{
							"internalType": "uint256",
							"name": "batchId",
							"type": "uint256"
						},
						{
							"internalType": "address",
							"name": "newOwner",
							"type": "address"
						},
						{
							"internalType": "uint256",
							"name": "operationIndex",
							"type": "uint256"
						},
						{
							"internalType": "string",
							"name": "reasons",
							"type": "string"
						}
					],
					"name": "processBatch",
					"outputs": [],
					"stateMutability": "nonpayable",
					"type": "function"
				},
				{
					"inputs": [],
					"name": "productCount",
					"outputs": [
						{
							"internalType": "uint256",
							"name": "",
							"type": "uint256"
						}
					],
					"stateMutability": "view",
					"type": "function"
				},
				{
					"inputs": [
						{
							"internalType": "uint256",
							"name": "productId",
							"type": "uint256"
						}
					],
					"name": "productExists",
					"outputs": [
						{
							"internalType": "bool",
							"name": "",
							"type": "bool"
						}
					],
					"stateMutability": "view",
					"type": "function"
				},
				{
					"inputs": [
						{
							"internalType": "uint256",
							"name": "",
							"type": "uint256"
						}
					],
					"name": "products",
					"outputs": [
						{
							"internalType": "uint256",
							"name": "id",
							"type": "uint256"
						},
						{
							"internalType": "string",
							"name": "name",
							"type": "string"
						},
						{
							"internalType": "string",
							"name": "description",
							"type": "string"
						},
						{
							"internalType": "address",
							"name": "currentOwner",
							"type": "address"
						},
						{
							"internalType": "uint256",
							"name": "timestamp",
							"type": "uint256"
						},
						{
							"internalType": "bool",
							"name": "isRecalled",
							"type": "bool"
						}
					],
					"stateMutability": "view",
					"type": "function"
				},
				{
					"inputs": [
						{
							"internalType": "uint256",
							"name": "batchId",
							"type": "uint256"
						},
						{
							"internalType": "string",
							"name": "reasons",
							"type": "string"
						}
					],
					"name": "recallBatch",
					"outputs": [],
					"stateMutability": "nonpayable",
					"type": "function"
				},
				{
					"inputs": [
						{
							"internalType": "uint256",
							"name": "productId",
							"type": "uint256"
						},
						{
							"internalType": "string",
							"name": "reasons",
							"type": "string"
						}
					],
					"name": "recallProduct",
					"outputs": [],
					"stateMutability": "nonpayable",
					"type": "function"
				},
				{
					"inputs": [
						{
							"internalType": "string",
							"name": "name",
							"type": "string"
						},
						{
							"internalType": "string",
							"name": "description",
							"type": "string"
						}
					],
					"name": "registerProduct",
					"outputs": [],
					"stateMutability": "nonpayable",
					"type": "function"
				},
				{
					"inputs": [
						{
							"internalType": "uint256",
							"name": "productId",
							"type": "uint256"
						}
					],
					"name": "stateRecalled",
					"outputs": [
						{
							"internalType": "bool",
							"name": "",
							"type": "bool"
						}
					],
					"stateMutability": "view",
					"type": "function"
				},
				{
					"inputs": [
						{
							"internalType": "uint256",
							"name": "productId",
							"type": "uint256"
						},
						{
							"internalType": "address",
							"name": "newOwner",
							"type": "address"
						}
					],
					"name": "transferProductOwnership",
					"outputs": [],
					"stateMutability": "nonpayable",
					"type": "function"
				}
			],
			"devdoc": {
				"kind": "dev",
				"methods": {},
				"version": 1
			},
			"evm": {
				"assembly": "    /* \"contracts/w6_SupplyChainContract.sol\":57:10901  contract SupplyChainContract{... */\n  mstore(0x40, 0x80)\n    /* \"contracts/w6_SupplyChainContract.sol\":1831:2028  constructor(){... */\n  callvalue\n  dup1\n  iszero\n  tag_1\n  jumpi\n  0x00\n  dup1\n  revert\ntag_1:\n  pop\n    /* \"contracts/w6_SupplyChainContract.sol\":1862:1872  msg.sender */\n  caller\n    /* \"contracts/w6_SupplyChainContract.sol\":1854:1859  owner */\n  0x00\n  dup1\n    /* \"contracts/w6_SupplyChainContract.sol\":1854:1872  owner = msg.sender */\n  0x0100\n  exp\n  dup2\n  sload\n  dup2\n  0xffffffffffffffffffffffffffffffffffffffff\n  mul\n  not\n  and\n  swap1\n  dup4\n  0xffffffffffffffffffffffffffffffffffffffff\n  and\n  mul\n  or\n  swap1\n  sstore\n  pop\n    /* \"contracts/w6_SupplyChainContract.sol\":1897:1898  0 */\n  0x00\n    /* \"contracts/w6_SupplyChainContract.sol\":1882:1894  productCount */\n  0x01\n    /* \"contracts/w6_SupplyChainContract.sol\":1882:1898  productCount = 0 */\n  dup2\n  swap1\n  sstore\n  pop\n    /* \"contracts/w6_SupplyChainContract.sol\":1921:1922  0 */\n  0x00\n    /* \"contracts/w6_SupplyChainContract.sol\":1908:1918  batchCount */\n  0x02\n    /* \"contracts/w6_SupplyChainContract.sol\":1908:1922  batchCount = 0 */\n  dup2\n  swap1\n  sstore\n  pop\n    /* \"contracts/w6_SupplyChainContract.sol\":1969:1973  true */\n  0x01\n    /* \"contracts/w6_SupplyChainContract.sol\":1932:1954  authorizedParticipants */\n  0x03\n    /* \"contracts/w6_SupplyChainContract.sol\":1932:1966  authorizedParticipants[msg.sender] */\n  0x00\n    /* \"contracts/w6_SupplyChainContract.sol\":1955:1965  msg.sender */\n  caller\n    /* \"contracts/w6_SupplyChainContract.sol\":1932:1966  authorizedParticipants[msg.sender] */\n  0xffffffffffffffffffffffffffffffffffffffff\n  and\n  0xffffffffffffffffffffffffffffffffffffffff\n  and\n  dup2\n  mstore\n  0x20\n  add\n  swap1\n  dup2\n  mstore\n  0x20\n  add\n  0x00\n  keccak256\n  0x00\n    /* \"contracts/w6_SupplyChainContract.sol\":1932:1973  authorizedParticipants[msg.sender] = true */\n  0x0100\n  exp\n  dup2\n  sload\n  dup2\n  0xff\n  mul\n  not\n  and\n  swap1\n  dup4\n  iszero\n  iszero\n  mul\n  or\n  swap1\n  sstore\n  pop\n    /* \"contracts/w6_SupplyChainContract.sol\":2010:2020  msg.sender */\n  caller\n    /* \"contracts/w6_SupplyChainContract.sol\":1988:2021  ParticipantAuthorized(msg.sender) */\n  0xffffffffffffffffffffffffffffffffffffffff\n  and\n  0x3cbcbb9ba5a54d0762f39fd455fd2900fbcfcd0e0693e2c87db13043c400b55f\n  mload(0x40)\n  mload(0x40)\n  dup1\n  swap2\n  sub\n  swap1\n  log2\n    /* \"contracts/w6_SupplyChainContract.sol\":57:10901  contract SupplyChainContract{... */\n  dataSize(sub_0)\n  dup1\n  dataOffset(sub_0)\n  0x00\n  codecopy\n  0x00\n  return\nstop\n\nsub_0: assembly {\n        /* \"contracts/w6_SupplyChainContract.sol\":57:10901  contract SupplyChainContract{... */\n      mstore(0x40, 0x80)\n      callvalue\n      dup1\n      iszero\n      tag_1\n      jumpi\n      0x00\n      dup1\n      revert\n    tag_1:\n      pop\n      jumpi(tag_2, lt(calldatasize, 0x04))\n      shr(0xe0, calldataload(0x00))\n      dup1\n      0x9ce0f973\n      gt\n      tag_23\n      jumpi\n      dup1\n      0xc5f8d584\n      gt\n      tag_24\n      jumpi\n      dup1\n      0xc5f8d584\n      eq\n      tag_18\n      jumpi\n      dup1\n      0xcf9cd669\n      eq\n      tag_19\n      jumpi\n      dup1\n      0xdfafe10f\n      eq\n      tag_20\n      jumpi\n      dup1\n      0xe0f6ef87\n      eq\n      tag_21\n      jumpi\n      dup1\n      0xf5f34413\n      eq\n      tag_22\n      jumpi\n      jump(tag_2)\n    tag_24:\n      dup1\n      0x9ce0f973\n      eq\n      tag_13\n      jumpi\n      dup1\n      0x9ffaa71e\n      eq\n      tag_14\n      jumpi\n      dup1\n      0xaf55ed64\n      eq\n      tag_15\n      jumpi\n      dup1\n      0xb32c4d8d\n      eq\n      tag_16\n      jumpi\n      dup1\n      0xb9db15b4\n      eq\n      tag_17\n      jumpi\n      jump(tag_2)\n    tag_23:\n      dup1\n      0x7acc0b20\n      gt\n      tag_25\n      jumpi\n      dup1\n      0x7acc0b20\n      eq\n      tag_8\n      jumpi\n      dup1\n      0x86b0e812\n      eq\n      tag_9\n      jumpi\n      dup1\n      0x8d28230b\n      eq\n      tag_10\n      jumpi\n      dup1\n      0x8da5cb5b\n      eq\n      tag_11\n      jumpi\n      dup1\n      0x8fbd0dcf\n      eq\n      tag_12\n      jumpi\n      jump(tag_2)\n    tag_25:\n      dup1\n      0x04341422\n      eq\n      tag_3\n      jumpi\n      dup1\n      0x06f13056\n      eq\n      tag_4\n      jumpi\n      dup1\n      0x2be5b856\n      eq\n      tag_5\n      jumpi\n      dup1\n      0x3c9af587\n      eq\n      tag_6\n      jumpi\n      dup1\n      0x5ac44282\n      eq\n      tag_7\n      jumpi\n    tag_2:\n      0x00\n      dup1\n      revert\n        /* \"contracts/w6_SupplyChainContract.sol\":4651:5338  function recallBatch(uint256 batchId, string memory reasons) public onlyAuthorized { //Verify caller authorization done... */\n    tag_3:\n      tag_26\n      0x04\n      dup1\n      calldatasize\n      sub\n      dup2\n      add\n      swap1\n      tag_27\n      swap2\n      swap1\n      tag_28\n      jump\t// in\n    tag_27:\n      tag_29\n      jump\t// in\n    tag_26:\n      stop\n        /* \"contracts/w6_SupplyChainContract.sol\":208:233  uint256 public batchCount */\n    tag_4:\n      tag_30\n      tag_31\n      jump\t// in\n    tag_30:\n      mload(0x40)\n      tag_32\n      swap2\n      swap1\n      tag_33\n      jump\t// in\n    tag_32:\n      mload(0x40)\n      dup1\n      swap2\n      sub\n      swap1\n      return\n        /* \"contracts/w6_SupplyChainContract.sol\":9024:10899  function processBatch(uint256 batchId, address newOwner, uint256 operationIndex, string memory reasons) public onlyAuthorized {... */\n    tag_5:\n      tag_34\n      0x04\n      dup1\n      calldatasize\n      sub\n      dup2\n      add\n      swap1\n      tag_35\n      swap2\n      swap1\n      tag_36\n      jump\t// in\n    tag_35:\n      tag_37\n      jump\t// in\n    tag_34:\n      stop\n        /* \"contracts/w6_SupplyChainContract.sol\":7267:7555  function stateRecalled(uint256 productId) public view returns (bool){... */\n    tag_6:\n      tag_38\n      0x04\n      dup1\n      calldatasize\n      sub\n      dup2\n      add\n      swap1\n      tag_39\n      swap2\n      swap1\n      tag_40\n      jump\t// in\n    tag_39:\n      tag_41\n      jump\t// in\n    tag_38:\n      mload(0x40)\n      tag_42\n      swap2\n      swap1\n      tag_43\n      jump\t// in\n    tag_42:\n      mload(0x40)\n      dup1\n      swap2\n      sub\n      swap1\n      return\n        /* \"contracts/w6_SupplyChainContract.sol\":6570:7261  function getBatch(uint256 batchIndex) public view returns (... */\n    tag_7:\n      tag_44\n      0x04\n      dup1\n      calldatasize\n      sub\n      dup2\n      add\n      swap1\n      tag_45\n      swap2\n      swap1\n      tag_40\n      jump\t// in\n    tag_45:\n      tag_46\n      jump\t// in\n    tag_44:\n      mload(0x40)\n      tag_47\n      swap9\n      swap8\n      swap7\n      swap6\n      swap5\n      swap4\n      swap3\n      swap2\n      swap1\n      tag_48\n      jump\t// in\n    tag_47:\n      mload(0x40)\n      dup1\n      swap2\n      sub\n      swap1\n      return\n        /* \"contracts/w6_SupplyChainContract.sol\":364:407  mapping(uint256 => Product) public products */\n    tag_8:\n      tag_49\n      0x04\n      dup1\n      calldatasize\n      sub\n      dup2\n      add\n      swap1\n      tag_50\n      swap2\n      swap1\n      tag_40\n      jump\t// in\n    tag_50:\n      tag_51\n      jump\t// in\n    tag_49:\n      mload(0x40)\n      tag_52\n      swap7\n      swap6\n      swap5\n      swap4\n      swap3\n      swap2\n      swap1\n      tag_53\n      jump\t// in\n    tag_52:\n      mload(0x40)\n      dup1\n      swap2\n      sub\n      swap1\n      return\n        /* \"contracts/w6_SupplyChainContract.sol\":3330:4179  function transferProductOwnership(uint256 productId, address newOwner) public onlyAuthorized{... */\n    tag_9:\n      tag_54\n      0x04\n      dup1\n      calldatasize\n      sub\n      dup2\n      add\n      swap1\n      tag_55\n      swap2\n      swap1\n      tag_56\n      jump\t// in\n    tag_55:\n      tag_57\n      jump\t// in\n    tag_54:\n      stop\n        /* \"contracts/w6_SupplyChainContract.sol\":277:331  mapping(address => bool) public authorizedParticipants */\n    tag_10:\n      tag_58\n      0x04\n      dup1\n      calldatasize\n      sub\n      dup2\n      add\n      swap1\n      tag_59\n      swap2\n      swap1\n      tag_60\n      jump\t// in\n    tag_59:\n      tag_61\n      jump\t// in\n    tag_58:\n      mload(0x40)\n      tag_62\n      swap2\n      swap1\n      tag_43\n      jump\t// in\n    tag_62:\n      mload(0x40)\n      dup1\n      swap2\n      sub\n      swap1\n      return\n        /* \"contracts/w6_SupplyChainContract.sol\":111:131  address public owner */\n    tag_11:\n      tag_63\n      tag_64\n      jump\t// in\n    tag_63:\n      mload(0x40)\n      tag_65\n      swap2\n      swap1\n      tag_66\n      jump\t// in\n    tag_65:\n      mload(0x40)\n      dup1\n      swap2\n      sub\n      swap1\n      return\n        /* \"contracts/w6_SupplyChainContract.sol\":2712:3324  function registerProduct(string memory name, string memory description) public onlyAuthorized{... */\n    tag_12:\n      tag_67\n      0x04\n      dup1\n      calldatasize\n      sub\n      dup2\n      add\n      swap1\n      tag_68\n      swap2\n      swap1\n      tag_69\n      jump\t// in\n    tag_68:\n      tag_70\n      jump\t// in\n    tag_67:\n      stop\n        /* \"contracts/w6_SupplyChainContract.sol\":5344:6045  function recallProduct(uint256 productId, string memory reasons) public onlyAuthorized { //Verify caller authorization done... */\n    tag_13:\n      tag_71\n      0x04\n      dup1\n      calldatasize\n      sub\n      dup2\n      add\n      swap1\n      tag_72\n      swap2\n      swap1\n      tag_28\n      jump\t// in\n    tag_72:\n      tag_73\n      jump\t// in\n    tag_71:\n      stop\n        /* \"contracts/w6_SupplyChainContract.sol\":4438:4610  function batchExists(uint256 batchId) public view returns (bool) {... */\n    tag_14:\n      tag_74\n      0x04\n      dup1\n      calldatasize\n      sub\n      dup2\n      add\n      swap1\n      tag_75\n      swap2\n      swap1\n      tag_40\n      jump\t// in\n    tag_75:\n      tag_76\n      jump\t// in\n    tag_74:\n      mload(0x40)\n      tag_77\n      swap2\n      swap1\n      tag_43\n      jump\t// in\n    tag_77:\n      mload(0x40)\n      dup1\n      swap2\n      sub\n      swap1\n      return\n        /* \"contracts/w6_SupplyChainContract.sol\":4185:4432  function productExists(uint256 productId) public view returns (bool) {... */\n    tag_15:\n      tag_78\n      0x04\n      dup1\n      calldatasize\n      sub\n      dup2\n      add\n      swap1\n      tag_79\n      swap2\n      swap1\n      tag_40\n      jump\t// in\n    tag_79:\n      tag_80\n      jump\t// in\n    tag_78:\n      mload(0x40)\n      tag_81\n      swap2\n      swap1\n      tag_43\n      jump\t// in\n    tag_81:\n      mload(0x40)\n      dup1\n      swap2\n      sub\n      swap1\n      return\n        /* \"contracts/w6_SupplyChainContract.sol\":413:453  mapping(uint256 => Batch) public batches */\n    tag_16:\n      tag_82\n      0x04\n      dup1\n      calldatasize\n      sub\n      dup2\n      add\n      swap1\n      tag_83\n      swap2\n      swap1\n      tag_40\n      jump\t// in\n    tag_83:\n      tag_84\n      jump\t// in\n    tag_82:\n      mload(0x40)\n      tag_85\n      swap6\n      swap5\n      swap4\n      swap3\n      swap2\n      swap1\n      tag_86\n      jump\t// in\n    tag_85:\n      mload(0x40)\n      dup1\n      swap2\n      sub\n      swap1\n      return\n        /* \"contracts/w6_SupplyChainContract.sol\":6051:6564  function getProduct(uint256 productId) public view returns (... */\n    tag_17:\n      tag_87\n      0x04\n      dup1\n      calldatasize\n      sub\n      dup2\n      add\n      swap1\n      tag_88\n      swap2\n      swap1\n      tag_40\n      jump\t// in\n    tag_88:\n      tag_89\n      jump\t// in\n    tag_87:\n      mload(0x40)\n      tag_90\n      swap6\n      swap5\n      swap4\n      swap3\n      swap2\n      swap1\n      tag_91\n      jump\t// in\n    tag_90:\n      mload(0x40)\n      dup1\n      swap2\n      sub\n      swap1\n      return\n        /* \"contracts/w6_SupplyChainContract.sol\":2379:2706  function authorizeParticipant(address participant) public onlyOwner{... */\n    tag_18:\n      tag_92\n      0x04\n      dup1\n      calldatasize\n      sub\n      dup2\n      add\n      swap1\n      tag_93\n      swap2\n      swap1\n      tag_60\n      jump\t// in\n    tag_93:\n      tag_94\n      jump\t// in\n    tag_92:\n      stop\n        /* \"contracts/w6_SupplyChainContract.sol\":7561:7783  function operationConvert(uint256 x) public pure returns (string memory y){... */\n    tag_19:\n      tag_95\n      0x04\n      dup1\n      calldatasize\n      sub\n      dup2\n      add\n      swap1\n      tag_96\n      swap2\n      swap1\n      tag_40\n      jump\t// in\n    tag_96:\n      tag_97\n      jump\t// in\n    tag_95:\n      mload(0x40)\n      tag_98\n      swap2\n      swap1\n      tag_99\n      jump\t// in\n    tag_98:\n      mload(0x40)\n      dup1\n      swap2\n      sub\n      swap1\n      return\n        /* \"contracts/w6_SupplyChainContract.sol\":2253:2373  function addParticipant(address participant) public onlyOwner{... */\n    tag_20:\n      tag_100\n      0x04\n      dup1\n      calldatasize\n      sub\n      dup2\n      add\n      swap1\n      tag_101\n      swap2\n      swap1\n      tag_60\n      jump\t// in\n    tag_101:\n      tag_102\n      jump\t// in\n    tag_100:\n      stop\n        /* \"contracts/w6_SupplyChainContract.sol\":157:184  uint256 public productCount */\n    tag_21:\n      tag_103\n      tag_104\n      jump\t// in\n    tag_103:\n      mload(0x40)\n      tag_105\n      swap2\n      swap1\n      tag_33\n      jump\t// in\n    tag_105:\n      mload(0x40)\n      dup1\n      swap2\n      sub\n      swap1\n      return\n        /* \"contracts/w6_SupplyChainContract.sol\":8060:9015  function createBatch(uint256[] memory lst_id , string[] memory lst_name, string[] memory lst_description, string memory operation) public onlyAuthorized{... */\n    tag_22:\n      tag_106\n      0x04\n      dup1\n      calldatasize\n      sub\n      dup2\n      add\n      swap1\n      tag_107\n      swap2\n      swap1\n      tag_108\n      jump\t// in\n    tag_107:\n      tag_109\n      jump\t// in\n    tag_106:\n      stop\n        /* \"contracts/w6_SupplyChainContract.sol\":4651:5338  function recallBatch(uint256 batchId, string memory reasons) public onlyAuthorized { //Verify caller authorization done... */\n    tag_29:\n        /* \"contracts/w6_SupplyChainContract.sol\":2176:2198  authorizedParticipants */\n      0x03\n        /* \"contracts/w6_SupplyChainContract.sol\":2176:2210  authorizedParticipants[msg.sender] */\n      0x00\n        /* \"contracts/w6_SupplyChainContract.sol\":2199:2209  msg.sender */\n      caller\n        /* \"contracts/w6_SupplyChainContract.sol\":2176:2210  authorizedParticipants[msg.sender] */\n      0xffffffffffffffffffffffffffffffffffffffff\n      and\n      0xffffffffffffffffffffffffffffffffffffffff\n      and\n      dup2\n      mstore\n      0x20\n      add\n      swap1\n      dup2\n      mstore\n      0x20\n      add\n      0x00\n      keccak256\n      0x00\n      swap1\n      sload\n      swap1\n      0x0100\n      exp\n      swap1\n      div\n      0xff\n      and\n        /* \"contracts/w6_SupplyChainContract.sol\":2168:2229  require(authorizedParticipants[msg.sender], \"Not authorized\") */\n      tag_111\n      jumpi\n      mload(0x40)\n      0x08c379a000000000000000000000000000000000000000000000000000000000\n      dup2\n      mstore\n      0x04\n      add\n      tag_112\n      swap1\n      tag_113\n      jump\t// in\n    tag_112:\n      mload(0x40)\n      dup1\n      swap2\n      sub\n      swap1\n      revert\n    tag_111:\n        /* \"contracts/w6_SupplyChainContract.sol\":4821:4841  batchExists(batchId) */\n      tag_115\n        /* \"contracts/w6_SupplyChainContract.sol\":4833:4840  batchId */\n      dup3\n        /* \"contracts/w6_SupplyChainContract.sol\":4821:4832  batchExists */\n      tag_76\n        /* \"contracts/w6_SupplyChainContract.sol\":4821:4841  batchExists(batchId) */\n      jump\t// in\n    tag_115:\n        /* \"contracts/w6_SupplyChainContract.sol\":4813:4865  require(batchExists(batchId), \"Batch doesnt exists\") */\n      tag_116\n      jumpi\n      mload(0x40)\n      0x08c379a000000000000000000000000000000000000000000000000000000000\n      dup2\n      mstore\n      0x04\n      add\n      tag_117\n      swap1\n      tag_118\n      jump\t// in\n    tag_117:\n      mload(0x40)\n      dup1\n      swap2\n      sub\n      swap1\n      revert\n    tag_116:\n        /* \"contracts/w6_SupplyChainContract.sol\":4965:4972  batches */\n      0x05\n        /* \"contracts/w6_SupplyChainContract.sol\":4965:4981  batches[batchId] */\n      0x00\n        /* \"contracts/w6_SupplyChainContract.sol\":4973:4980  batchId */\n      dup4\n        /* \"contracts/w6_SupplyChainContract.sol\":4965:4981  batches[batchId] */\n      dup2\n      mstore\n      0x20\n      add\n      swap1\n      dup2\n      mstore\n      0x20\n      add\n      0x00\n      keccak256\n        /* \"contracts/w6_SupplyChainContract.sol\":4965:4992  batches[batchId].isRecalled */\n      0x05\n      add\n      0x00\n      swap1\n      sload\n      swap1\n      0x0100\n      exp\n      swap1\n      div\n      0xff\n      and\n        /* \"contracts/w6_SupplyChainContract.sol\":4964:4992  !batches[batchId].isRecalled */\n      iszero\n        /* \"contracts/w6_SupplyChainContract.sol\":4956:5019  require(!batches[batchId].isRecalled, \"Batch already recalled\") */\n      tag_119\n      jumpi\n      mload(0x40)\n      0x08c379a000000000000000000000000000000000000000000000000000000000\n      dup2\n      mstore\n      0x04\n      add\n      tag_120\n      swap1\n      tag_121\n      jump\t// in\n    tag_120:\n      mload(0x40)\n      dup1\n      swap2\n      sub\n      swap1\n      revert\n    tag_119:\n        /* \"contracts/w6_SupplyChainContract.sol\":5146:5150  true */\n      0x01\n        /* \"contracts/w6_SupplyChainContract.sol\":5116:5123  batches */\n      0x05\n        /* \"contracts/w6_SupplyChainContract.sol\":5116:5132  batches[batchId] */\n      0x00\n        /* \"contracts/w6_SupplyChainContract.sol\":5124:5131  batchId */\n      dup5\n        /* \"contracts/w6_SupplyChainContract.sol\":5116:5132  batches[batchId] */\n      dup2\n      mstore\n      0x20\n      add\n      swap1\n      dup2\n      mstore\n      0x20\n      add\n      0x00\n      keccak256\n        /* \"contracts/w6_SupplyChainContract.sol\":5116:5143  batches[batchId].isRecalled */\n      0x05\n      add\n      0x00\n        /* \"contracts/w6_SupplyChainContract.sol\":5116:5150  batches[batchId].isRecalled = true */\n      0x0100\n      exp\n      dup2\n      sload\n      dup2\n      0xff\n      mul\n      not\n      and\n      swap1\n      dup4\n      iszero\n      iszero\n      mul\n      or\n      swap1\n      sstore\n      pop\n        /* \"contracts/w6_SupplyChainContract.sol\":5242:5249  batchId */\n      dup2\n        /* \"contracts/w6_SupplyChainContract.sol\":5228:5259  BatchRecalled(batchId, reasons) */\n      0x8f8994662430cbb3a0b089f812f1c51f46ef020e2ccc019cee8988c3312b4a66\n        /* \"contracts/w6_SupplyChainContract.sol\":5251:5258  reasons */\n      dup3\n        /* \"contracts/w6_SupplyChainContract.sol\":5228:5259  BatchRecalled(batchId, reasons) */\n      mload(0x40)\n      tag_122\n      swap2\n      swap1\n      tag_99\n      jump\t// in\n    tag_122:\n      mload(0x40)\n      dup1\n      swap2\n      sub\n      swap1\n      log2\n        /* \"contracts/w6_SupplyChainContract.sol\":4651:5338  function recallBatch(uint256 batchId, string memory reasons) public onlyAuthorized { //Verify caller authorization done... */\n      pop\n      pop\n      jump\t// out\n        /* \"contracts/w6_SupplyChainContract.sol\":208:233  uint256 public batchCount */\n    tag_31:\n      sload(0x02)\n      dup2\n      jump\t// out\n        /* \"contracts/w6_SupplyChainContract.sol\":9024:10899  function processBatch(uint256 batchId, address newOwner, uint256 operationIndex, string memory reasons) public onlyAuthorized {... */\n    tag_37:\n        /* \"contracts/w6_SupplyChainContract.sol\":2176:2198  authorizedParticipants */\n      0x03\n        /* \"contracts/w6_SupplyChainContract.sol\":2176:2210  authorizedParticipants[msg.sender] */\n      0x00\n        /* \"contracts/w6_SupplyChainContract.sol\":2199:2209  msg.sender */\n      caller\n        /* \"contracts/w6_SupplyChainContract.sol\":2176:2210  authorizedParticipants[msg.sender] */\n      0xffffffffffffffffffffffffffffffffffffffff\n      and\n      0xffffffffffffffffffffffffffffffffffffffff\n      and\n      dup2\n      mstore\n      0x20\n      add\n      swap1\n      dup2\n      mstore\n      0x20\n      add\n      0x00\n      keccak256\n      0x00\n      swap1\n      sload\n      swap1\n      0x0100\n      exp\n      swap1\n      div\n      0xff\n      and\n        /* \"contracts/w6_SupplyChainContract.sol\":2168:2229  require(authorizedParticipants[msg.sender], \"Not authorized\") */\n      tag_124\n      jumpi\n      mload(0x40)\n      0x08c379a000000000000000000000000000000000000000000000000000000000\n      dup2\n      mstore\n      0x04\n      add\n      tag_125\n      swap1\n      tag_113\n      jump\t// in\n    tag_125:\n      mload(0x40)\n      dup1\n      swap2\n      sub\n      swap1\n      revert\n    tag_124:\n        /* \"contracts/w6_SupplyChainContract.sol\":9200:9201  0 */\n      0x00\n        /* \"contracts/w6_SupplyChainContract.sol\":9172:9179  batches */\n      0x05\n        /* \"contracts/w6_SupplyChainContract.sol\":9172:9188  batches[batchId] */\n      0x00\n        /* \"contracts/w6_SupplyChainContract.sol\":9180:9187  batchId */\n      dup7\n        /* \"contracts/w6_SupplyChainContract.sol\":9172:9188  batches[batchId] */\n      dup2\n      mstore\n      0x20\n      add\n      swap1\n      dup2\n      mstore\n      0x20\n      add\n      0x00\n      keccak256\n        /* \"contracts/w6_SupplyChainContract.sol\":9172:9196  batches[batchId].batchId */\n      0x06\n      add\n      sload\n        /* \"contracts/w6_SupplyChainContract.sol\":9172:9201  batches[batchId].batchId != 0 */\n      sub\n        /* \"contracts/w6_SupplyChainContract.sol\":9164:9224  require(batches[batchId].batchId != 0, \"Batch doesnt exist\") */\n      tag_127\n      jumpi\n      mload(0x40)\n      0x08c379a000000000000000000000000000000000000000000000000000000000\n      dup2\n      mstore\n      0x04\n      add\n      tag_128\n      swap1\n      tag_129\n      jump\t// in\n    tag_128:\n      mload(0x40)\n      dup1\n      swap2\n      sub\n      swap1\n      revert\n    tag_127:\n        /* \"contracts/w6_SupplyChainContract.sol\":9513:9514  1 */\n      0x01\n        /* \"contracts/w6_SupplyChainContract.sol\":9495:9509  operationIndex */\n      dup3\n        /* \"contracts/w6_SupplyChainContract.sol\":9495:9514  operationIndex == 1 */\n      sub\n        /* \"contracts/w6_SupplyChainContract.sol\":9491:10755  if (operationIndex == 1) { // registerBatch... */\n      tag_130\n      jumpi\n        /* \"contracts/w6_SupplyChainContract.sol\":9590:9595  false */\n      0x00\n        /* \"contracts/w6_SupplyChainContract.sol\":9559:9595  batches[batchId].isRecalled == false */\n      iszero\n      iszero\n        /* \"contracts/w6_SupplyChainContract.sol\":9559:9566  batches */\n      0x05\n        /* \"contracts/w6_SupplyChainContract.sol\":9559:9575  batches[batchId] */\n      0x00\n        /* \"contracts/w6_SupplyChainContract.sol\":9567:9574  batchId */\n      dup7\n        /* \"contracts/w6_SupplyChainContract.sol\":9559:9575  batches[batchId] */\n      dup2\n      mstore\n      0x20\n      add\n      swap1\n      dup2\n      mstore\n      0x20\n      add\n      0x00\n      keccak256\n        /* \"contracts/w6_SupplyChainContract.sol\":9559:9586  batches[batchId].isRecalled */\n      0x05\n      add\n      0x00\n      swap1\n      sload\n      swap1\n      0x0100\n      exp\n      swap1\n      div\n      0xff\n      and\n        /* \"contracts/w6_SupplyChainContract.sol\":9559:9595  batches[batchId].isRecalled == false */\n      iszero\n      iszero\n      eq\n        /* \"contracts/w6_SupplyChainContract.sol\":9551:9638  require(batches[batchId].isRecalled == false, \"Batch Recalled, operation cant be done\") */\n      tag_131\n      jumpi\n      mload(0x40)\n      0x08c379a000000000000000000000000000000000000000000000000000000000\n      dup2\n      mstore\n      0x04\n      add\n      tag_132\n      swap1\n      tag_133\n      jump\t// in\n    tag_132:\n      mload(0x40)\n      dup1\n      swap2\n      sub\n      swap1\n      revert\n    tag_131:\n        /* \"contracts/w6_SupplyChainContract.sol\":9678:9684  uint i */\n      0x00\n        /* \"contracts/w6_SupplyChainContract.sol\":9673:9923  for (uint i = 0; i < batches[batchId].id.length; i++) {... */\n    tag_134:\n        /* \"contracts/w6_SupplyChainContract.sol\":9694:9701  batches */\n      0x05\n        /* \"contracts/w6_SupplyChainContract.sol\":9694:9710  batches[batchId] */\n      0x00\n        /* \"contracts/w6_SupplyChainContract.sol\":9702:9709  batchId */\n      dup7\n        /* \"contracts/w6_SupplyChainContract.sol\":9694:9710  batches[batchId] */\n      dup2\n      mstore\n      0x20\n      add\n      swap1\n      dup2\n      mstore\n      0x20\n      add\n      0x00\n      keccak256\n        /* \"contracts/w6_SupplyChainContract.sol\":9694:9713  batches[batchId].id */\n      0x00\n      add\n        /* \"contracts/w6_SupplyChainContract.sol\":9694:9720  batches[batchId].id.length */\n      dup1\n      sload\n      swap1\n      pop\n        /* \"contracts/w6_SupplyChainContract.sol\":9690:9691  i */\n      dup2\n        /* \"contracts/w6_SupplyChainContract.sol\":9690:9720  i < batches[batchId].id.length */\n      lt\n        /* \"contracts/w6_SupplyChainContract.sol\":9673:9923  for (uint i = 0; i < batches[batchId].id.length; i++) {... */\n      iszero\n      tag_135\n      jumpi\n        /* \"contracts/w6_SupplyChainContract.sol\":9830:9904  registerProduct(batches[batchId].name[i], batches[batchId].description[i]) */\n      tag_137\n        /* \"contracts/w6_SupplyChainContract.sol\":9846:9853  batches */\n      0x05\n        /* \"contracts/w6_SupplyChainContract.sol\":9846:9862  batches[batchId] */\n      0x00\n        /* \"contracts/w6_SupplyChainContract.sol\":9854:9861  batchId */\n      dup8\n        /* \"contracts/w6_SupplyChainContract.sol\":9846:9862  batches[batchId] */\n      dup2\n      mstore\n      0x20\n      add\n      swap1\n      dup2\n      mstore\n      0x20\n      add\n      0x00\n      keccak256\n        /* \"contracts/w6_SupplyChainContract.sol\":9846:9867  batches[batchId].name */\n      0x01\n      add\n        /* \"contracts/w6_SupplyChainContract.sol\":9868:9869  i */\n      dup3\n        /* \"contracts/w6_SupplyChainContract.sol\":9846:9870  batches[batchId].name[i] */\n      dup2\n      sload\n      dup2\n      lt\n      tag_138\n      jumpi\n      tag_139\n      tag_140\n      jump\t// in\n    tag_139:\n    tag_138:\n      swap1\n      0x00\n      mstore\n      keccak256(0x00, 0x20)\n      add\n        /* \"contracts/w6_SupplyChainContract.sol\":9830:9904  registerProduct(batches[batchId].name[i], batches[batchId].description[i]) */\n      dup1\n      sload\n      tag_142\n      swap1\n      tag_143\n      jump\t// in\n    tag_142:\n      dup1\n      0x1f\n      add\n      0x20\n      dup1\n      swap2\n      div\n      mul\n      0x20\n      add\n      mload(0x40)\n      swap1\n      dup2\n      add\n      0x40\n      mstore\n      dup1\n      swap3\n      swap2\n      swap1\n      dup2\n      dup2\n      mstore\n      0x20\n      add\n      dup3\n      dup1\n      sload\n      tag_144\n      swap1\n      tag_143\n      jump\t// in\n    tag_144:\n      dup1\n      iszero\n      tag_145\n      jumpi\n      dup1\n      0x1f\n      lt\n      tag_146\n      jumpi\n      0x0100\n      dup1\n      dup4\n      sload\n      div\n      mul\n      dup4\n      mstore\n      swap2\n      0x20\n      add\n      swap2\n      jump(tag_145)\n    tag_146:\n      dup3\n      add\n      swap2\n      swap1\n      0x00\n      mstore\n      keccak256(0x00, 0x20)\n      swap1\n    tag_147:\n      dup2\n      sload\n      dup2\n      mstore\n      swap1\n      0x01\n      add\n      swap1\n      0x20\n      add\n      dup1\n      dup4\n      gt\n      tag_147\n      jumpi\n      dup3\n      swap1\n      sub\n      0x1f\n      and\n      dup3\n      add\n      swap2\n    tag_145:\n      pop\n      pop\n      pop\n      pop\n      pop\n        /* \"contracts/w6_SupplyChainContract.sol\":9872:9879  batches */\n      0x05\n        /* \"contracts/w6_SupplyChainContract.sol\":9872:9888  batches[batchId] */\n      0x00\n        /* \"contracts/w6_SupplyChainContract.sol\":9880:9887  batchId */\n      dup9\n        /* \"contracts/w6_SupplyChainContract.sol\":9872:9888  batches[batchId] */\n      dup2\n      mstore\n      0x20\n      add\n      swap1\n      dup2\n      mstore\n      0x20\n      add\n      0x00\n      keccak256\n        /* \"contracts/w6_SupplyChainContract.sol\":9872:9900  batches[batchId].description */\n      0x02\n      add\n        /* \"contracts/w6_SupplyChainContract.sol\":9901:9902  i */\n      dup4\n        /* \"contracts/w6_SupplyChainContract.sol\":9872:9903  batches[batchId].description[i] */\n      dup2\n      sload\n      dup2\n      lt\n      tag_148\n      jumpi\n      tag_149\n      tag_140\n      jump\t// in\n    tag_149:\n    tag_148:\n      swap1\n      0x00\n      mstore\n      keccak256(0x00, 0x20)\n      add\n        /* \"contracts/w6_SupplyChainContract.sol\":9830:9904  registerProduct(batches[batchId].name[i], batches[batchId].description[i]) */\n      dup1\n      sload\n      tag_151\n      swap1\n      tag_143\n      jump\t// in\n    tag_151:\n      dup1\n      0x1f\n      add\n      0x20\n      dup1\n      swap2\n      div\n      mul\n      0x20\n      add\n      mload(0x40)\n      swap1\n      dup2\n      add\n      0x40\n      mstore\n      dup1\n      swap3\n      swap2\n      swap1\n      dup2\n      dup2\n      mstore\n      0x20\n      add\n      dup3\n      dup1\n      sload\n      tag_152\n      swap1\n      tag_143\n      jump\t// in\n    tag_152:\n      dup1\n      iszero\n      tag_153\n      jumpi\n      dup1\n      0x1f\n      lt\n      tag_154\n      jumpi\n      0x0100\n      dup1\n      dup4\n      sload\n      div\n      mul\n      dup4\n      mstore\n      swap2\n      0x20\n      add\n      swap2\n      jump(tag_153)\n    tag_154:\n      dup3\n      add\n      swap2\n      swap1\n      0x00\n      mstore\n      keccak256(0x00, 0x20)\n      swap1\n    tag_155:\n      dup2\n      sload\n      dup2\n      mstore\n      swap1\n      0x01\n      add\n      swap1\n      0x20\n      add\n      dup1\n      dup4\n      gt\n      tag_155\n      jumpi\n      dup3\n      swap1\n      sub\n      0x1f\n      and\n      dup3\n      add\n      swap2\n    tag_153:\n      pop\n      pop\n      pop\n      pop\n      pop\n        /* \"contracts/w6_SupplyChainContract.sol\":9830:9845  registerProduct */\n      tag_70\n        /* \"contracts/w6_SupplyChainContract.sol\":9830:9904  registerProduct(batches[batchId].name[i], batches[batchId].description[i]) */\n      jump\t// in\n    tag_137:\n        /* \"contracts/w6_SupplyChainContract.sol\":9722:9725  i++ */\n      dup1\n      dup1\n      0x01\n      add\n      swap2\n      pop\n      pop\n        /* \"contracts/w6_SupplyChainContract.sol\":9673:9923  for (uint i = 0; i < batches[batchId].id.length; i++) {... */\n      jump(tag_134)\n    tag_135:\n      pop\n        /* \"contracts/w6_SupplyChainContract.sol\":9491:10755  if (operationIndex == 1) { // registerBatch... */\n      jump(tag_156)\n    tag_130:\n        /* \"contracts/w6_SupplyChainContract.sol\":9965:9966  2 */\n      0x02\n        /* \"contracts/w6_SupplyChainContract.sol\":9947:9961  operationIndex */\n      dup3\n        /* \"contracts/w6_SupplyChainContract.sol\":9947:9966  operationIndex == 2 */\n      sub\n        /* \"contracts/w6_SupplyChainContract.sol\":9943:10755  if (operationIndex == 2) { // transferBatch... */\n      tag_157\n      jumpi\n        /* \"contracts/w6_SupplyChainContract.sol\":10042:10047  false */\n      0x00\n        /* \"contracts/w6_SupplyChainContract.sol\":10011:10047  batches[batchId].isRecalled == false */\n      iszero\n      iszero\n        /* \"contracts/w6_SupplyChainContract.sol\":10011:10018  batches */\n      0x05\n        /* \"contracts/w6_SupplyChainContract.sol\":10011:10027  batches[batchId] */\n      0x00\n        /* \"contracts/w6_SupplyChainContract.sol\":10019:10026  batchId */\n      dup7\n        /* \"contracts/w6_SupplyChainContract.sol\":10011:10027  batches[batchId] */\n      dup2\n      mstore\n      0x20\n      add\n      swap1\n      dup2\n      mstore\n      0x20\n      add\n      0x00\n      keccak256\n        /* \"contracts/w6_SupplyChainContract.sol\":10011:10038  batches[batchId].isRecalled */\n      0x05\n      add\n      0x00\n      swap1\n      sload\n      swap1\n      0x0100\n      exp\n      swap1\n      div\n      0xff\n      and\n        /* \"contracts/w6_SupplyChainContract.sol\":10011:10047  batches[batchId].isRecalled == false */\n      iszero\n      iszero\n      eq\n        /* \"contracts/w6_SupplyChainContract.sol\":10003:10090  require(batches[batchId].isRecalled == false, \"Batch Recalled, operation cant be done\") */\n      tag_158\n      jumpi\n      mload(0x40)\n      0x08c379a000000000000000000000000000000000000000000000000000000000\n      dup2\n      mstore\n      0x04\n      add\n      tag_159\n      swap1\n      tag_133\n      jump\t// in\n    tag_159:\n      mload(0x40)\n      dup1\n      swap2\n      sub\n      swap1\n      revert\n    tag_158:\n        /* \"contracts/w6_SupplyChainContract.sol\":10130:10136  uint i */\n      0x00\n        /* \"contracts/w6_SupplyChainContract.sol\":10125:10278  for (uint i = 0; i < batches[batchId].id.length; i++) {... */\n    tag_160:\n        /* \"contracts/w6_SupplyChainContract.sol\":10146:10153  batches */\n      0x05\n        /* \"contracts/w6_SupplyChainContract.sol\":10146:10162  batches[batchId] */\n      0x00\n        /* \"contracts/w6_SupplyChainContract.sol\":10154:10161  batchId */\n      dup7\n        /* \"contracts/w6_SupplyChainContract.sol\":10146:10162  batches[batchId] */\n      dup2\n      mstore\n      0x20\n      add\n      swap1\n      dup2\n      mstore\n      0x20\n      add\n      0x00\n      keccak256\n        /* \"contracts/w6_SupplyChainContract.sol\":10146:10165  batches[batchId].id */\n      0x00\n      add\n        /* \"contracts/w6_SupplyChainContract.sol\":10146:10172  batches[batchId].id.length */\n      dup1\n      sload\n      swap1\n      pop\n        /* \"contracts/w6_SupplyChainContract.sol\":10142:10143  i */\n      dup2\n        /* \"contracts/w6_SupplyChainContract.sol\":10142:10172  i < batches[batchId].id.length */\n      lt\n        /* \"contracts/w6_SupplyChainContract.sol\":10125:10278  for (uint i = 0; i < batches[batchId].id.length; i++) {... */\n      iszero\n      tag_161\n      jumpi\n        /* \"contracts/w6_SupplyChainContract.sol\":10201:10259  transferProductOwnership(batches[batchId].id[i], newOwner) */\n      tag_163\n        /* \"contracts/w6_SupplyChainContract.sol\":10226:10233  batches */\n      0x05\n        /* \"contracts/w6_SupplyChainContract.sol\":10226:10242  batches[batchId] */\n      0x00\n        /* \"contracts/w6_SupplyChainContract.sol\":10234:10241  batchId */\n      dup8\n        /* \"contracts/w6_SupplyChainContract.sol\":10226:10242  batches[batchId] */\n      dup2\n      mstore\n      0x20\n      add\n      swap1\n      dup2\n      mstore\n      0x20\n      add\n      0x00\n      keccak256\n        /* \"contracts/w6_SupplyChainContract.sol\":10226:10245  batches[batchId].id */\n      0x00\n      add\n        /* \"contracts/w6_SupplyChainContract.sol\":10246:10247  i */\n      dup3\n        /* \"contracts/w6_SupplyChainContract.sol\":10226:10248  batches[batchId].id[i] */\n      dup2\n      sload\n      dup2\n      lt\n      tag_164\n      jumpi\n      tag_165\n      tag_140\n      jump\t// in\n    tag_165:\n    tag_164:\n      swap1\n      0x00\n      mstore\n      keccak256(0x00, 0x20)\n      add\n      sload\n        /* \"contracts/w6_SupplyChainContract.sol\":10250:10258  newOwner */\n      dup6\n        /* \"contracts/w6_SupplyChainContract.sol\":10201:10225  transferProductOwnership */\n      tag_57\n        /* \"contracts/w6_SupplyChainContract.sol\":10201:10259  transferProductOwnership(batches[batchId].id[i], newOwner) */\n      jump\t// in\n    tag_163:\n        /* \"contracts/w6_SupplyChainContract.sol\":10174:10177  i++ */\n      dup1\n      dup1\n      0x01\n      add\n      swap2\n      pop\n      pop\n        /* \"contracts/w6_SupplyChainContract.sol\":10125:10278  for (uint i = 0; i < batches[batchId].id.length; i++) {... */\n      jump(tag_160)\n    tag_161:\n      pop\n        /* \"contracts/w6_SupplyChainContract.sol\":9943:10755  if (operationIndex == 2) { // transferBatch... */\n      jump(tag_167)\n    tag_157:\n        /* \"contracts/w6_SupplyChainContract.sol\":10320:10321  3 */\n      0x03\n        /* \"contracts/w6_SupplyChainContract.sol\":10302:10316  operationIndex */\n      dup3\n        /* \"contracts/w6_SupplyChainContract.sol\":10302:10321  operationIndex == 3 */\n      sub\n        /* \"contracts/w6_SupplyChainContract.sol\":10298:10755  if (operationIndex == 3) { // recallBatch... */\n      tag_168\n      jumpi\n        /* \"contracts/w6_SupplyChainContract.sol\":10395:10400  false */\n      0x00\n        /* \"contracts/w6_SupplyChainContract.sol\":10364:10400  batches[batchId].isRecalled == false */\n      iszero\n      iszero\n        /* \"contracts/w6_SupplyChainContract.sol\":10364:10371  batches */\n      0x05\n        /* \"contracts/w6_SupplyChainContract.sol\":10364:10380  batches[batchId] */\n      0x00\n        /* \"contracts/w6_SupplyChainContract.sol\":10372:10379  batchId */\n      dup7\n        /* \"contracts/w6_SupplyChainContract.sol\":10364:10380  batches[batchId] */\n      dup2\n      mstore\n      0x20\n      add\n      swap1\n      dup2\n      mstore\n      0x20\n      add\n      0x00\n      keccak256\n        /* \"contracts/w6_SupplyChainContract.sol\":10364:10391  batches[batchId].isRecalled */\n      0x05\n      add\n      0x00\n      swap1\n      sload\n      swap1\n      0x0100\n      exp\n      swap1\n      div\n      0xff\n      and\n        /* \"contracts/w6_SupplyChainContract.sol\":10364:10400  batches[batchId].isRecalled == false */\n      iszero\n      iszero\n      eq\n        /* \"contracts/w6_SupplyChainContract.sol\":10356:10427  require(batches[batchId].isRecalled == false, \"Batch already recalled\") */\n      tag_169\n      jumpi\n      mload(0x40)\n      0x08c379a000000000000000000000000000000000000000000000000000000000\n      dup2\n      mstore\n      0x04\n      add\n      tag_170\n      swap1\n      tag_121\n      jump\t// in\n    tag_170:\n      mload(0x40)\n      dup1\n      swap2\n      sub\n      swap1\n      revert\n    tag_169:\n        /* \"contracts/w6_SupplyChainContract.sol\":10467:10473  uint i */\n      0x00\n        /* \"contracts/w6_SupplyChainContract.sol\":10462:10628  for (uint i = 0; i < batches[batchId].id.length; i++) {... */\n    tag_171:\n        /* \"contracts/w6_SupplyChainContract.sol\":10483:10490  batches */\n      0x05\n        /* \"contracts/w6_SupplyChainContract.sol\":10483:10499  batches[batchId] */\n      0x00\n        /* \"contracts/w6_SupplyChainContract.sol\":10491:10498  batchId */\n      dup7\n        /* \"contracts/w6_SupplyChainContract.sol\":10483:10499  batches[batchId] */\n      dup2\n      mstore\n      0x20\n      add\n      swap1\n      dup2\n      mstore\n      0x20\n      add\n      0x00\n      keccak256\n        /* \"contracts/w6_SupplyChainContract.sol\":10483:10502  batches[batchId].id */\n      0x00\n      add\n        /* \"contracts/w6_SupplyChainContract.sol\":10483:10509  batches[batchId].id.length */\n      dup1\n      sload\n      swap1\n      pop\n        /* \"contracts/w6_SupplyChainContract.sol\":10479:10480  i */\n      dup2\n        /* \"contracts/w6_SupplyChainContract.sol\":10479:10509  i < batches[batchId].id.length */\n      lt\n        /* \"contracts/w6_SupplyChainContract.sol\":10462:10628  for (uint i = 0; i < batches[batchId].id.length; i++) {... */\n      iszero\n      tag_172\n      jumpi\n        /* \"contracts/w6_SupplyChainContract.sol\":10538:10584  recallProduct(batches[batchId].id[i], reasons) */\n      tag_174\n        /* \"contracts/w6_SupplyChainContract.sol\":10552:10559  batches */\n      0x05\n        /* \"contracts/w6_SupplyChainContract.sol\":10552:10568  batches[batchId] */\n      0x00\n        /* \"contracts/w6_SupplyChainContract.sol\":10560:10567  batchId */\n      dup8\n        /* \"contracts/w6_SupplyChainContract.sol\":10552:10568  batches[batchId] */\n      dup2\n      mstore\n      0x20\n      add\n      swap1\n      dup2\n      mstore\n      0x20\n      add\n      0x00\n      keccak256\n        /* \"contracts/w6_SupplyChainContract.sol\":10552:10571  batches[batchId].id */\n      0x00\n      add\n        /* \"contracts/w6_SupplyChainContract.sol\":10572:10573  i */\n      dup3\n        /* \"contracts/w6_SupplyChainContract.sol\":10552:10574  batches[batchId].id[i] */\n      dup2\n      sload\n      dup2\n      lt\n      tag_175\n      jumpi\n      tag_176\n      tag_140\n      jump\t// in\n    tag_176:\n    tag_175:\n      swap1\n      0x00\n      mstore\n      keccak256(0x00, 0x20)\n      add\n      sload\n        /* \"contracts/w6_SupplyChainContract.sol\":10576:10583  reasons */\n      dup4\n        /* \"contracts/w6_SupplyChainContract.sol\":10538:10551  recallProduct */\n      tag_73\n        /* \"contracts/w6_SupplyChainContract.sol\":10538:10584  recallProduct(batches[batchId].id[i], reasons) */\n      jump\t// in\n    tag_174:\n        /* \"contracts/w6_SupplyChainContract.sol\":10511:10514  i++ */\n      dup1\n      dup1\n      0x01\n      add\n      swap2\n      pop\n      pop\n        /* \"contracts/w6_SupplyChainContract.sol\":10462:10628  for (uint i = 0; i < batches[batchId].id.length; i++) {... */\n      jump(tag_171)\n    tag_172:\n      pop\n        /* \"contracts/w6_SupplyChainContract.sol\":10645:10674  recallBatch(batchId, reasons) */\n      tag_178\n        /* \"contracts/w6_SupplyChainContract.sol\":10657:10664  batchId */\n      dup5\n        /* \"contracts/w6_SupplyChainContract.sol\":10666:10673  reasons */\n      dup3\n        /* \"contracts/w6_SupplyChainContract.sol\":10645:10656  recallBatch */\n      tag_29\n        /* \"contracts/w6_SupplyChainContract.sol\":10645:10674  recallBatch(batchId, reasons) */\n      jump\t// in\n    tag_178:\n        /* \"contracts/w6_SupplyChainContract.sol\":10298:10755  if (operationIndex == 3) { // recallBatch... */\n      jump(tag_179)\n    tag_168:\n        /* \"contracts/w6_SupplyChainContract.sol\":10713:10740  revert(\"Invalid operation\") */\n      mload(0x40)\n      0x08c379a000000000000000000000000000000000000000000000000000000000\n      dup2\n      mstore\n      0x04\n      add\n      tag_180\n      swap1\n      tag_181\n      jump\t// in\n    tag_180:\n      mload(0x40)\n      dup1\n      swap2\n      sub\n      swap1\n      revert\n        /* \"contracts/w6_SupplyChainContract.sol\":10298:10755  if (operationIndex == 3) { // recallBatch... */\n    tag_179:\n        /* \"contracts/w6_SupplyChainContract.sol\":9943:10755  if (operationIndex == 2) { // transferBatch... */\n    tag_167:\n        /* \"contracts/w6_SupplyChainContract.sol\":9491:10755  if (operationIndex == 1) { // registerBatch... */\n    tag_156:\n        /* \"contracts/w6_SupplyChainContract.sol\":10856:10863  batchId */\n      dup4\n        /* \"contracts/w6_SupplyChainContract.sol\":10841:10892  BatchProcessed(batchId, batches[batchId].operation) */\n      0x603489d1e5e10e7b7393a68b1707e0b98e7976704197482dc200a6b34674b54a\n        /* \"contracts/w6_SupplyChainContract.sol\":10865:10872  batches */\n      0x05\n        /* \"contracts/w6_SupplyChainContract.sol\":10865:10881  batches[batchId] */\n      0x00\n        /* \"contracts/w6_SupplyChainContract.sol\":10873:10880  batchId */\n      dup8\n        /* \"contracts/w6_SupplyChainContract.sol\":10865:10881  batches[batchId] */\n      dup2\n      mstore\n      0x20\n      add\n      swap1\n      dup2\n      mstore\n      0x20\n      add\n      0x00\n      keccak256\n        /* \"contracts/w6_SupplyChainContract.sol\":10865:10891  batches[batchId].operation */\n      0x07\n      add\n        /* \"contracts/w6_SupplyChainContract.sol\":10841:10892  BatchProcessed(batchId, batches[batchId].operation) */\n      mload(0x40)\n      tag_182\n      swap2\n      swap1\n      tag_183\n      jump\t// in\n    tag_182:\n      mload(0x40)\n      dup1\n      swap2\n      sub\n      swap1\n      log2\n        /* \"contracts/w6_SupplyChainContract.sol\":9024:10899  function processBatch(uint256 batchId, address newOwner, uint256 operationIndex, string memory reasons) public onlyAuthorized {... */\n      pop\n      pop\n      pop\n      pop\n      jump\t// out\n        /* \"contracts/w6_SupplyChainContract.sol\":7267:7555  function stateRecalled(uint256 productId) public view returns (bool){... */\n    tag_41:\n        /* \"contracts/w6_SupplyChainContract.sol\":7330:7334  bool */\n      0x00\n        /* \"contracts/w6_SupplyChainContract.sol\":7353:7377  productExists(productId) */\n      tag_185\n        /* \"contracts/w6_SupplyChainContract.sol\":7367:7376  productId */\n      dup3\n        /* \"contracts/w6_SupplyChainContract.sol\":7353:7366  productExists */\n      tag_80\n        /* \"contracts/w6_SupplyChainContract.sol\":7353:7377  productExists(productId) */\n      jump\t// in\n    tag_185:\n        /* \"contracts/w6_SupplyChainContract.sol\":7345:7398  require(productExists(productId), \"It doesnt exists\") */\n      tag_186\n      jumpi\n      mload(0x40)\n      0x08c379a000000000000000000000000000000000000000000000000000000000\n      dup2\n      mstore\n      0x04\n      add\n      tag_187\n      swap1\n      tag_188\n      jump\t// in\n    tag_187:\n      mload(0x40)\n      dup1\n      swap2\n      sub\n      swap1\n      revert\n    tag_186:\n        /* \"contracts/w6_SupplyChainContract.sol\":7408:7430  Product memory product */\n      0x00\n        /* \"contracts/w6_SupplyChainContract.sol\":7433:7441  products */\n      0x04\n        /* \"contracts/w6_SupplyChainContract.sol\":7433:7452  products[productId] */\n      0x00\n        /* \"contracts/w6_SupplyChainContract.sol\":7442:7451  productId */\n      dup5\n        /* \"contracts/w6_SupplyChainContract.sol\":7433:7452  products[productId] */\n      dup2\n      mstore\n      0x20\n      add\n      swap1\n      dup2\n      mstore\n      0x20\n      add\n      0x00\n      keccak256\n        /* \"contracts/w6_SupplyChainContract.sol\":7408:7452  Product memory product = products[productId] */\n      mload(0x40)\n      dup1\n      0xc0\n      add\n      0x40\n      mstore\n      swap1\n      dup2\n      0x00\n      dup3\n      add\n      sload\n      dup2\n      mstore\n      0x20\n      add\n      0x01\n      dup3\n      add\n      dup1\n      sload\n      tag_189\n      swap1\n      tag_143\n      jump\t// in\n    tag_189:\n      dup1\n      0x1f\n      add\n      0x20\n      dup1\n      swap2\n      div\n      mul\n      0x20\n      add\n      mload(0x40)\n      swap1\n      dup2\n      add\n      0x40\n      mstore\n      dup1\n      swap3\n      swap2\n      swap1\n      dup2\n      dup2\n      mstore\n      0x20\n      add\n      dup3\n      dup1\n      sload\n      tag_190\n      swap1\n      tag_143\n      jump\t// in\n    tag_190:\n      dup1\n      iszero\n      tag_191\n      jumpi\n      dup1\n      0x1f\n      lt\n      tag_192\n      jumpi\n      0x0100\n      dup1\n      dup4\n      sload\n      div\n      mul\n      dup4\n      mstore\n      swap2\n      0x20\n      add\n      swap2\n      jump(tag_191)\n    tag_192:\n      dup3\n      add\n      swap2\n      swap1\n      0x00\n      mstore\n      keccak256(0x00, 0x20)\n      swap1\n    tag_193:\n      dup2\n      sload\n      dup2\n      mstore\n      swap1\n      0x01\n      add\n      swap1\n      0x20\n      add\n      dup1\n      dup4\n      gt\n      tag_193\n      jumpi\n      dup3\n      swap1\n      sub\n      0x1f\n      and\n      dup3\n      add\n      swap2\n    tag_191:\n      pop\n      pop\n      pop\n      pop\n      pop\n      dup2\n      mstore\n      0x20\n      add\n      0x02\n      dup3\n      add\n      dup1\n      sload\n      tag_194\n      swap1\n      tag_143\n      jump\t// in\n    tag_194:\n      dup1\n      0x1f\n      add\n      0x20\n      dup1\n      swap2\n      div\n      mul\n      0x20\n      add\n      mload(0x40)\n      swap1\n      dup2\n      add\n      0x40\n      mstore\n      dup1\n      swap3\n      swap2\n      swap1\n      dup2\n      dup2\n      mstore\n      0x20\n      add\n      dup3\n      dup1\n      sload\n      tag_195\n      swap1\n      tag_143\n      jump\t// in\n    tag_195:\n      dup1\n      iszero\n      tag_196\n      jumpi\n      dup1\n      0x1f\n      lt\n      tag_197\n      jumpi\n      0x0100\n      dup1\n      dup4\n      sload\n      div\n      mul\n      dup4\n      mstore\n      swap2\n      0x20\n      add\n      swap2\n      jump(tag_196)\n    tag_197:\n      dup3\n      add\n      swap2\n      swap1\n      0x00\n      mstore\n      keccak256(0x00, 0x20)\n      swap1\n    tag_198:\n      dup2\n      sload\n      dup2\n      mstore\n      swap1\n      0x01\n      add\n      swap1\n      0x20\n      add\n      dup1\n      dup4\n      gt\n      tag_198\n      jumpi\n      dup3\n      swap1\n      sub\n      0x1f\n      and\n      dup3\n      add\n      swap2\n    tag_196:\n      pop\n      pop\n      pop\n      pop\n      pop\n      dup2\n      mstore\n      0x20\n      add\n      0x03\n      dup3\n      add\n      0x00\n      swap1\n      sload\n      swap1\n      0x0100\n      exp\n      swap1\n      div\n      0xffffffffffffffffffffffffffffffffffffffff\n      and\n      0xffffffffffffffffffffffffffffffffffffffff\n      and\n      0xffffffffffffffffffffffffffffffffffffffff\n      and\n      dup2\n      mstore\n      0x20\n      add\n      0x04\n      dup3\n      add\n      sload\n      dup2\n      mstore\n      0x20\n      add\n      0x05\n      dup3\n      add\n      0x00\n      swap1\n      sload\n      swap1\n      0x0100\n      exp\n      swap1\n      div\n      0xff\n      and\n      iszero\n      iszero\n      iszero\n      iszero\n      dup2\n      mstore\n      pop\n      pop\n      swap1\n      pop\n        /* \"contracts/w6_SupplyChainContract.sol\":7520:7527  product */\n      dup1\n        /* \"contracts/w6_SupplyChainContract.sol\":7520:7538  product.isRecalled */\n      0xa0\n      add\n      mload\n        /* \"contracts/w6_SupplyChainContract.sol\":7499:7548  return (... */\n      swap2\n      pop\n      pop\n        /* \"contracts/w6_SupplyChainContract.sol\":7267:7555  function stateRecalled(uint256 productId) public view returns (bool){... */\n      swap2\n      swap1\n      pop\n      jump\t// out\n        /* \"contracts/w6_SupplyChainContract.sol\":6570:7261  function getBatch(uint256 batchIndex) public view returns (... */\n    tag_46:\n        /* \"contracts/w6_SupplyChainContract.sol\":6638:6657  uint256[] memory id */\n      0x60\n        /* \"contracts/w6_SupplyChainContract.sol\":6667:6687  string[] memory name */\n      dup1\n        /* \"contracts/w6_SupplyChainContract.sol\":6697:6724  string[] memory description */\n      0x60\n        /* \"contracts/w6_SupplyChainContract.sol\":6734:6754  address currentOwner */\n      0x00\n        /* \"contracts/w6_SupplyChainContract.sol\":6764:6781  uint256 timestamp */\n      dup1\n        /* \"contracts/w6_SupplyChainContract.sol\":6791:6806  bool isRecalled */\n      0x00\n        /* \"contracts/w6_SupplyChainContract.sol\":6816:6831  uint256 batchId */\n      dup1\n        /* \"contracts/w6_SupplyChainContract.sol\":6841:6864  string memory operation */\n      0x60\n        /* \"contracts/w6_SupplyChainContract.sol\":6917:6935  Batch memory batch */\n      0x00\n        /* \"contracts/w6_SupplyChainContract.sol\":6938:6945  batches */\n      0x05\n        /* \"contracts/w6_SupplyChainContract.sol\":6938:6957  batches[batchIndex] */\n      0x00\n        /* \"contracts/w6_SupplyChainContract.sol\":6946:6956  batchIndex */\n      dup12\n        /* \"contracts/w6_SupplyChainContract.sol\":6938:6957  batches[batchIndex] */\n      dup2\n      mstore\n      0x20\n      add\n      swap1\n      dup2\n      mstore\n      0x20\n      add\n      0x00\n      keccak256\n        /* \"contracts/w6_SupplyChainContract.sol\":6917:6957  Batch memory batch = batches[batchIndex] */\n      mload(0x40)\n      dup1\n      0x0100\n      add\n      0x40\n      mstore\n      swap1\n      dup2\n      0x00\n      dup3\n      add\n      dup1\n      sload\n      dup1\n      0x20\n      mul\n      0x20\n      add\n      mload(0x40)\n      swap1\n      dup2\n      add\n      0x40\n      mstore\n      dup1\n      swap3\n      swap2\n      swap1\n      dup2\n      dup2\n      mstore\n      0x20\n      add\n      dup3\n      dup1\n      sload\n      dup1\n      iszero\n      tag_200\n      jumpi\n      0x20\n      mul\n      dup3\n      add\n      swap2\n      swap1\n      0x00\n      mstore\n      keccak256(0x00, 0x20)\n      swap1\n    tag_201:\n      dup2\n      sload\n      dup2\n      mstore\n      0x20\n      add\n      swap1\n      0x01\n      add\n      swap1\n      dup1\n      dup4\n      gt\n      tag_201\n      jumpi\n    tag_200:\n      pop\n      pop\n      pop\n      pop\n      pop\n      dup2\n      mstore\n      0x20\n      add\n      0x01\n      dup3\n      add\n      dup1\n      sload\n      dup1\n      0x20\n      mul\n      0x20\n      add\n      mload(0x40)\n      swap1\n      dup2\n      add\n      0x40\n      mstore\n      dup1\n      swap3\n      swap2\n      swap1\n      dup2\n      dup2\n      mstore\n      0x20\n      add\n      0x00\n      swap1\n    tag_202:\n      dup3\n      dup3\n      lt\n      iszero\n      tag_203\n      jumpi\n      dup4\n      dup3\n      swap1\n      0x00\n      mstore\n      keccak256(0x00, 0x20)\n      add\n      dup1\n      sload\n      tag_205\n      swap1\n      tag_143\n      jump\t// in\n    tag_205:\n      dup1\n      0x1f\n      add\n      0x20\n      dup1\n      swap2\n      div\n      mul\n      0x20\n      add\n      mload(0x40)\n      swap1\n      dup2\n      add\n      0x40\n      mstore\n      dup1\n      swap3\n      swap2\n      swap1\n      dup2\n      dup2\n      mstore\n      0x20\n      add\n      dup3\n      dup1\n      sload\n      tag_206\n      swap1\n      tag_143\n      jump\t// in\n    tag_206:\n      dup1\n      iszero\n      tag_207\n      jumpi\n      dup1\n      0x1f\n      lt\n      tag_208\n      jumpi\n      0x0100\n      dup1\n      dup4\n      sload\n      div\n      mul\n      dup4\n      mstore\n      swap2\n      0x20\n      add\n      swap2\n      jump(tag_207)\n    tag_208:\n      dup3\n      add\n      swap2\n      swap1\n      0x00\n      mstore\n      keccak256(0x00, 0x20)\n      swap1\n    tag_209:\n      dup2\n      sload\n      dup2\n      mstore\n      swap1\n      0x01\n      add\n      swap1\n      0x20\n      add\n      dup1\n      dup4\n      gt\n      tag_209\n      jumpi\n      dup3\n      swap1\n      sub\n      0x1f\n      and\n      dup3\n      add\n      swap2\n    tag_207:\n      pop\n      pop\n      pop\n      pop\n      pop\n      dup2\n      mstore\n      0x20\n      add\n      swap1\n      0x01\n      add\n      swap1\n      jump(tag_202)\n    tag_203:\n      pop\n      pop\n      pop\n      pop\n      dup2\n      mstore\n      0x20\n      add\n      0x02\n      dup3\n      add\n      dup1\n      sload\n      dup1\n      0x20\n      mul\n      0x20\n      add\n      mload(0x40)\n      swap1\n      dup2\n      add\n      0x40\n      mstore\n      dup1\n      swap3\n      swap2\n      swap1\n      dup2\n      dup2\n      mstore\n      0x20\n      add\n      0x00\n      swap1\n    tag_210:\n      dup3\n      dup3\n      lt\n      iszero\n      tag_211\n      jumpi\n      dup4\n      dup3\n      swap1\n      0x00\n      mstore\n      keccak256(0x00, 0x20)\n      add\n      dup1\n      sload\n      tag_213\n      swap1\n      tag_143\n      jump\t// in\n    tag_213:\n      dup1\n      0x1f\n      add\n      0x20\n      dup1\n      swap2\n      div\n      mul\n      0x20\n      add\n      mload(0x40)\n      swap1\n      dup2\n      add\n      0x40\n      mstore\n      dup1\n      swap3\n      swap2\n      swap1\n      dup2\n      dup2\n      mstore\n      0x20\n      add\n      dup3\n      dup1\n      sload\n      tag_214\n      swap1\n      tag_143\n      jump\t// in\n    tag_214:\n      dup1\n      iszero\n      tag_215\n      jumpi\n      dup1\n      0x1f\n      lt\n      tag_216\n      jumpi\n      0x0100\n      dup1\n      dup4\n      sload\n      div\n      mul\n      dup4\n      mstore\n      swap2\n      0x20\n      add\n      swap2\n      jump(tag_215)\n    tag_216:\n      dup3\n      add\n      swap2\n      swap1\n      0x00\n      mstore\n      keccak256(0x00, 0x20)\n      swap1\n    tag_217:\n      dup2\n      sload\n      dup2\n      mstore\n      swap1\n      0x01\n      add\n      swap1\n      0x20\n      add\n      dup1\n      dup4\n      gt\n      tag_217\n      jumpi\n      dup3\n      swap1\n      sub\n      0x1f\n      and\n      dup3\n      add\n      swap2\n    tag_215:\n      pop\n      pop\n      pop\n      pop\n      pop\n      dup2\n      mstore\n      0x20\n      add\n      swap1\n      0x01\n      add\n      swap1\n      jump(tag_210)\n    tag_211:\n      pop\n      pop\n      pop\n      pop\n      dup2\n      mstore\n      0x20\n      add\n      0x03\n      dup3\n      add\n      0x00\n      swap1\n      sload\n      swap1\n      0x0100\n      exp\n      swap1\n      div\n      0xffffffffffffffffffffffffffffffffffffffff\n      and\n      0xffffffffffffffffffffffffffffffffffffffff\n      and\n      0xffffffffffffffffffffffffffffffffffffffff\n      and\n      dup2\n      mstore\n      0x20\n      add\n      0x04\n      dup3\n      add\n      sload\n      dup2\n      mstore\n      0x20\n      add\n      0x05\n      dup3\n      add\n      0x00\n      swap1\n      sload\n      swap1\n      0x0100\n      exp\n      swap1\n      div\n      0xff\n      and\n      iszero\n      iszero\n      iszero\n      iszero\n      dup2\n      mstore\n      0x20\n      add\n      0x06\n      dup3\n      add\n      sload\n      dup2\n      mstore\n      0x20\n      add\n      0x07\n      dup3\n      add\n      dup1\n      sload\n      tag_218\n      swap1\n      tag_143\n      jump\t// in\n    tag_218:\n      dup1\n      0x1f\n      add\n      0x20\n      dup1\n      swap2\n      div\n      mul\n      0x20\n      add\n      mload(0x40)\n      swap1\n      dup2\n      add\n      0x40\n      mstore\n      dup1\n      swap3\n      swap2\n      swap1\n      dup2\n      dup2\n      mstore\n      0x20\n      add\n      dup3\n      dup1\n      sload\n      tag_219\n      swap1\n      tag_143\n      jump\t// in\n    tag_219:\n      dup1\n      iszero\n      tag_220\n      jumpi\n      dup1\n      0x1f\n      lt\n      tag_221\n      jumpi\n      0x0100\n      dup1\n      dup4\n      sload\n      div\n      mul\n      dup4\n      mstore\n      swap2\n      0x20\n      add\n      swap2\n      jump(tag_220)\n    tag_221:\n      dup3\n      add\n      swap2\n      swap1\n      0x00\n      mstore\n      keccak256(0x00, 0x20)\n      swap1\n    tag_222:\n      dup2\n      sload\n      dup2\n      mstore\n      swap1\n      0x01\n      add\n      swap1\n      0x20\n      add\n      dup1\n      dup4\n      gt\n      tag_222\n      jumpi\n      dup3\n      swap1\n      sub\n      0x1f\n      and\n      dup3\n      add\n      swap2\n    tag_220:\n      pop\n      pop\n      pop\n      pop\n      pop\n      dup2\n      mstore\n      pop\n      pop\n      swap1\n      pop\n        /* \"contracts/w6_SupplyChainContract.sol\":7034:7039  batch */\n      dup1\n        /* \"contracts/w6_SupplyChainContract.sol\":7034:7042  batch.id */\n      0x00\n      add\n      mload\n        /* \"contracts/w6_SupplyChainContract.sol\":7056:7061  batch */\n      dup2\n        /* \"contracts/w6_SupplyChainContract.sol\":7056:7066  batch.name */\n      0x20\n      add\n      mload\n        /* \"contracts/w6_SupplyChainContract.sol\":7080:7085  batch */\n      dup3\n        /* \"contracts/w6_SupplyChainContract.sol\":7080:7097  batch.description */\n      0x40\n      add\n      mload\n        /* \"contracts/w6_SupplyChainContract.sol\":7111:7116  batch */\n      dup4\n        /* \"contracts/w6_SupplyChainContract.sol\":7111:7129  batch.currentOwner */\n      0x60\n      add\n      mload\n        /* \"contracts/w6_SupplyChainContract.sol\":7143:7148  batch */\n      dup5\n        /* \"contracts/w6_SupplyChainContract.sol\":7143:7158  batch.timestamp */\n      0x80\n      add\n      mload\n        /* \"contracts/w6_SupplyChainContract.sol\":7172:7177  batch */\n      dup6\n        /* \"contracts/w6_SupplyChainContract.sol\":7172:7188  batch.isRecalled */\n      0xa0\n      add\n      mload\n        /* \"contracts/w6_SupplyChainContract.sol\":7202:7207  batch */\n      dup7\n        /* \"contracts/w6_SupplyChainContract.sol\":7202:7215  batch.batchId */\n      0xc0\n      add\n      mload\n        /* \"contracts/w6_SupplyChainContract.sol\":7229:7234  batch */\n      dup8\n        /* \"contracts/w6_SupplyChainContract.sol\":7229:7244  batch.operation */\n      0xe0\n      add\n      mload\n        /* \"contracts/w6_SupplyChainContract.sol\":7013:7254  return (... */\n      swap9\n      pop\n      swap9\n      pop\n      swap9\n      pop\n      swap9\n      pop\n      swap9\n      pop\n      swap9\n      pop\n      swap9\n      pop\n      swap9\n      pop\n      pop\n        /* \"contracts/w6_SupplyChainContract.sol\":6570:7261  function getBatch(uint256 batchIndex) public view returns (... */\n      swap2\n      swap4\n      swap6\n      swap8\n      pop\n      swap2\n      swap4\n      swap6\n      swap8\n      jump\t// out\n        /* \"contracts/w6_SupplyChainContract.sol\":364:407  mapping(uint256 => Product) public products */\n    tag_51:\n      mstore(0x20, 0x04)\n      dup1\n      0x00\n      mstore\n      keccak256(0x00, 0x40)\n      0x00\n      swap2\n      pop\n      swap1\n      pop\n      dup1\n      0x00\n      add\n      sload\n      swap1\n      dup1\n      0x01\n      add\n      dup1\n      sload\n      tag_223\n      swap1\n      tag_143\n      jump\t// in\n    tag_223:\n      dup1\n      0x1f\n      add\n      0x20\n      dup1\n      swap2\n      div\n      mul\n      0x20\n      add\n      mload(0x40)\n      swap1\n      dup2\n      add\n      0x40\n      mstore\n      dup1\n      swap3\n      swap2\n      swap1\n      dup2\n      dup2\n      mstore\n      0x20\n      add\n      dup3\n      dup1\n      sload\n      tag_224\n      swap1\n      tag_143\n      jump\t// in\n    tag_224:\n      dup1\n      iszero\n      tag_225\n      jumpi\n      dup1\n      0x1f\n      lt\n      tag_226\n      jumpi\n      0x0100\n      dup1\n      dup4\n      sload\n      div\n      mul\n      dup4\n      mstore\n      swap2\n      0x20\n      add\n      swap2\n      jump(tag_225)\n    tag_226:\n      dup3\n      add\n      swap2\n      swap1\n      0x00\n      mstore\n      keccak256(0x00, 0x20)\n      swap1\n    tag_227:\n      dup2\n      sload\n      dup2\n      mstore\n      swap1\n      0x01\n      add\n      swap1\n      0x20\n      add\n      dup1\n      dup4\n      gt\n      tag_227\n      jumpi\n      dup3\n      swap1\n      sub\n      0x1f\n      and\n      dup3\n      add\n      swap2\n    tag_225:\n      pop\n      pop\n      pop\n      pop\n      pop\n      swap1\n      dup1\n      0x02\n      add\n      dup1\n      sload\n      tag_228\n      swap1\n      tag_143\n      jump\t// in\n    tag_228:\n      dup1\n      0x1f\n      add\n      0x20\n      dup1\n      swap2\n      div\n      mul\n      0x20\n      add\n      mload(0x40)\n      swap1\n      dup2\n      add\n      0x40\n      mstore\n      dup1\n      swap3\n      swap2\n      swap1\n      dup2\n      dup2\n      mstore\n      0x20\n      add\n      dup3\n      dup1\n      sload\n      tag_229\n      swap1\n      tag_143\n      jump\t// in\n    tag_229:\n      dup1\n      iszero\n      tag_230\n      jumpi\n      dup1\n      0x1f\n      lt\n      tag_231\n      jumpi\n      0x0100\n      dup1\n      dup4\n      sload\n      div\n      mul\n      dup4\n      mstore\n      swap2\n      0x20\n      add\n      swap2\n      jump(tag_230)\n    tag_231:\n      dup3\n      add\n      swap2\n      swap1\n      0x00\n      mstore\n      keccak256(0x00, 0x20)\n      swap1\n    tag_232:\n      dup2\n      sload\n      dup2\n      mstore\n      swap1\n      0x01\n      add\n      swap1\n      0x20\n      add\n      dup1\n      dup4\n      gt\n      tag_232\n      jumpi\n      dup3\n      swap1\n      sub\n      0x1f\n      and\n      dup3\n      add\n      swap2\n    tag_230:\n      pop\n      pop\n      pop\n      pop\n      pop\n      swap1\n      dup1\n      0x03\n      add\n      0x00\n      swap1\n      sload\n      swap1\n      0x0100\n      exp\n      swap1\n      div\n      0xffffffffffffffffffffffffffffffffffffffff\n      and\n      swap1\n      dup1\n      0x04\n      add\n      sload\n      swap1\n      dup1\n      0x05\n      add\n      0x00\n      swap1\n      sload\n      swap1\n      0x0100\n      exp\n      swap1\n      div\n      0xff\n      and\n      swap1\n      pop\n      dup7\n      jump\t// out\n        /* \"contracts/w6_SupplyChainContract.sol\":3330:4179  function transferProductOwnership(uint256 productId, address newOwner) public onlyAuthorized{... */\n    tag_57:\n        /* \"contracts/w6_SupplyChainContract.sol\":2176:2198  authorizedParticipants */\n      0x03\n        /* \"contracts/w6_SupplyChainContract.sol\":2176:2210  authorizedParticipants[msg.sender] */\n      0x00\n        /* \"contracts/w6_SupplyChainContract.sol\":2199:2209  msg.sender */\n      caller\n        /* \"contracts/w6_SupplyChainContract.sol\":2176:2210  authorizedParticipants[msg.sender] */\n      0xffffffffffffffffffffffffffffffffffffffff\n      and\n      0xffffffffffffffffffffffffffffffffffffffff\n      and\n      dup2\n      mstore\n      0x20\n      add\n      swap1\n      dup2\n      mstore\n      0x20\n      add\n      0x00\n      keccak256\n      0x00\n      swap1\n      sload\n      swap1\n      0x0100\n      exp\n      swap1\n      div\n      0xff\n      and\n        /* \"contracts/w6_SupplyChainContract.sol\":2168:2229  require(authorizedParticipants[msg.sender], \"Not authorized\") */\n      tag_234\n      jumpi\n      mload(0x40)\n      0x08c379a000000000000000000000000000000000000000000000000000000000\n      dup2\n      mstore\n      0x04\n      add\n      tag_235\n      swap1\n      tag_113\n      jump\t// in\n    tag_235:\n      mload(0x40)\n      dup1\n      swap2\n      sub\n      swap1\n      revert\n    tag_234:\n        /* \"contracts/w6_SupplyChainContract.sol\":3452:3453  0 */\n      0x00\n        /* \"contracts/w6_SupplyChainContract.sol\":3440:3449  productId */\n      dup3\n        /* \"contracts/w6_SupplyChainContract.sol\":3440:3453  productId > 0 */\n      gt\n        /* \"contracts/w6_SupplyChainContract.sol\":3440:3482  productId > 0 && productId <= productCount */\n      dup1\n      iszero\n      tag_237\n      jumpi\n      pop\n        /* \"contracts/w6_SupplyChainContract.sol\":3470:3482  productCount */\n      sload(0x01)\n        /* \"contracts/w6_SupplyChainContract.sol\":3457:3466  productId */\n      dup3\n        /* \"contracts/w6_SupplyChainContract.sol\":3457:3482  productId <= productCount */\n      gt\n      iszero\n        /* \"contracts/w6_SupplyChainContract.sol\":3440:3482  productId > 0 && productId <= productCount */\n    tag_237:\n        /* \"contracts/w6_SupplyChainContract.sol\":3432:3505  require(productId > 0 && productId <= productCount, \"Invalid product ID\") */\n      tag_238\n      jumpi\n      mload(0x40)\n      0x08c379a000000000000000000000000000000000000000000000000000000000\n      dup2\n      mstore\n      0x04\n      add\n      tag_239\n      swap1\n      tag_240\n      jump\t// in\n    tag_239:\n      mload(0x40)\n      dup1\n      swap2\n      sub\n      swap1\n      revert\n    tag_238:\n        /* \"contracts/w6_SupplyChainContract.sol\":3524:3532  products */\n      0x04\n        /* \"contracts/w6_SupplyChainContract.sol\":3524:3543  products[productId] */\n      0x00\n        /* \"contracts/w6_SupplyChainContract.sol\":3533:3542  productId */\n      dup4\n        /* \"contracts/w6_SupplyChainContract.sol\":3524:3543  products[productId] */\n      dup2\n      mstore\n      0x20\n      add\n      swap1\n      dup2\n      mstore\n      0x20\n      add\n      0x00\n      keccak256\n        /* \"contracts/w6_SupplyChainContract.sol\":3524:3554  products[productId].isRecalled */\n      0x05\n      add\n      0x00\n      swap1\n      sload\n      swap1\n      0x0100\n      exp\n      swap1\n      div\n      0xff\n      and\n        /* \"contracts/w6_SupplyChainContract.sol\":3523:3554  !products[productId].isRecalled */\n      iszero\n        /* \"contracts/w6_SupplyChainContract.sol\":3515:3598  require(!products[productId].isRecalled, \"Recalled products cannot be transferred\") */\n      tag_241\n      jumpi\n      mload(0x40)\n      0x08c379a000000000000000000000000000000000000000000000000000000000\n      dup2\n      mstore\n      0x04\n      add\n      tag_242\n      swap1\n      tag_243\n      jump\t// in\n    tag_242:\n      mload(0x40)\n      dup1\n      swap2\n      sub\n      swap1\n      revert\n    tag_241:\n        /* \"contracts/w6_SupplyChainContract.sol\":3710:3711  0 */\n      0x00\n        /* \"contracts/w6_SupplyChainContract.sol\":3690:3712  newOwner != address(0) */\n      0xffffffffffffffffffffffffffffffffffffffff\n      and\n        /* \"contracts/w6_SupplyChainContract.sol\":3690:3698  newOwner */\n      dup2\n        /* \"contracts/w6_SupplyChainContract.sol\":3690:3712  newOwner != address(0) */\n      0xffffffffffffffffffffffffffffffffffffffff\n      and\n      sub\n        /* \"contracts/w6_SupplyChainContract.sol\":3682:3742  require(newOwner != address(0), \"Invalid new owner address\") */\n      tag_244\n      jumpi\n      mload(0x40)\n      0x08c379a000000000000000000000000000000000000000000000000000000000\n      dup2\n      mstore\n      0x04\n      add\n      tag_245\n      swap1\n      tag_246\n      jump\t// in\n    tag_245:\n      mload(0x40)\n      dup1\n      swap2\n      sub\n      swap1\n      revert\n    tag_244:\n        /* \"contracts/w6_SupplyChainContract.sol\":3760:3782  authorizedParticipants */\n      0x03\n        /* \"contracts/w6_SupplyChainContract.sol\":3760:3792  authorizedParticipants[newOwner] */\n      0x00\n        /* \"contracts/w6_SupplyChainContract.sol\":3783:3791  newOwner */\n      dup3\n        /* \"contracts/w6_SupplyChainContract.sol\":3760:3792  authorizedParticipants[newOwner] */\n      0xffffffffffffffffffffffffffffffffffffffff\n      and\n      0xffffffffffffffffffffffffffffffffffffffff\n      and\n      dup2\n      mstore\n      0x20\n      add\n      swap1\n      dup2\n      mstore\n      0x20\n      add\n      0x00\n      keccak256\n      0x00\n      swap1\n      sload\n      swap1\n      0x0100\n      exp\n      swap1\n      div\n      0xff\n      and\n        /* \"contracts/w6_SupplyChainContract.sol\":3752:3824  require(authorizedParticipants[newOwner], \"New owner is not authorized\") */\n      tag_247\n      jumpi\n      mload(0x40)\n      0x08c379a000000000000000000000000000000000000000000000000000000000\n      dup2\n      mstore\n      0x04\n      add\n      tag_248\n      swap1\n      tag_249\n      jump\t// in\n    tag_248:\n      mload(0x40)\n      dup1\n      swap2\n      sub\n      swap1\n      revert\n    tag_247:\n        /* \"contracts/w6_SupplyChainContract.sol\":3878:3888  msg.sender */\n      caller\n        /* \"contracts/w6_SupplyChainContract.sol\":3842:3888  products[productId].currentOwner == msg.sender */\n      0xffffffffffffffffffffffffffffffffffffffff\n      and\n        /* \"contracts/w6_SupplyChainContract.sol\":3842:3850  products */\n      0x04\n        /* \"contracts/w6_SupplyChainContract.sol\":3842:3861  products[productId] */\n      0x00\n        /* \"contracts/w6_SupplyChainContract.sol\":3851:3860  productId */\n      dup5\n        /* \"contracts/w6_SupplyChainContract.sol\":3842:3861  products[productId] */\n      dup2\n      mstore\n      0x20\n      add\n      swap1\n      dup2\n      mstore\n      0x20\n      add\n      0x00\n      keccak256\n        /* \"contracts/w6_SupplyChainContract.sol\":3842:3874  products[productId].currentOwner */\n      0x03\n      add\n      0x00\n      swap1\n      sload\n      swap1\n      0x0100\n      exp\n      swap1\n      div\n      0xffffffffffffffffffffffffffffffffffffffff\n      and\n        /* \"contracts/w6_SupplyChainContract.sol\":3842:3888  products[productId].currentOwner == msg.sender */\n      0xffffffffffffffffffffffffffffffffffffffff\n      and\n      eq\n        /* \"contracts/w6_SupplyChainContract.sol\":3834:3924  require(products[productId].currentOwner == msg.sender, \"Only current owner can transfer\") */\n      tag_250\n      jumpi\n      mload(0x40)\n      0x08c379a000000000000000000000000000000000000000000000000000000000\n      dup2\n      mstore\n      0x04\n      add\n      tag_251\n      swap1\n      tag_252\n      jump\t// in\n    tag_251:\n      mload(0x40)\n      dup1\n      swap2\n      sub\n      swap1\n      revert\n    tag_250:\n        /* \"contracts/w6_SupplyChainContract.sol\":3934:3955  address previousOwner */\n      0x00\n        /* \"contracts/w6_SupplyChainContract.sol\":3958:3966  products */\n      0x04\n        /* \"contracts/w6_SupplyChainContract.sol\":3958:3977  products[productId] */\n      0x00\n        /* \"contracts/w6_SupplyChainContract.sol\":3967:3976  productId */\n      dup5\n        /* \"contracts/w6_SupplyChainContract.sol\":3958:3977  products[productId] */\n      dup2\n      mstore\n      0x20\n      add\n      swap1\n      dup2\n      mstore\n      0x20\n      add\n      0x00\n      keccak256\n        /* \"contracts/w6_SupplyChainContract.sol\":3958:3990  products[productId].currentOwner */\n      0x03\n      add\n      0x00\n      swap1\n      sload\n      swap1\n      0x0100\n      exp\n      swap1\n      div\n      0xffffffffffffffffffffffffffffffffffffffff\n      and\n        /* \"contracts/w6_SupplyChainContract.sol\":3934:3990  address previousOwner = products[productId].currentOwner */\n      swap1\n      pop\n        /* \"contracts/w6_SupplyChainContract.sol\":4035:4043  newOwner */\n      dup2\n        /* \"contracts/w6_SupplyChainContract.sol\":4000:4008  products */\n      0x04\n        /* \"contracts/w6_SupplyChainContract.sol\":4000:4019  products[productId] */\n      0x00\n        /* \"contracts/w6_SupplyChainContract.sol\":4009:4018  productId */\n      dup6\n        /* \"contracts/w6_SupplyChainContract.sol\":4000:4019  products[productId] */\n      dup2\n      mstore\n      0x20\n      add\n      swap1\n      dup2\n      mstore\n      0x20\n      add\n      0x00\n      keccak256\n        /* \"contracts/w6_SupplyChainContract.sol\":4000:4032  products[productId].currentOwner */\n      0x03\n      add\n      0x00\n        /* \"contracts/w6_SupplyChainContract.sol\":4000:4043  products[productId].currentOwner = newOwner */\n      0x0100\n      exp\n      dup2\n      sload\n      dup2\n      0xffffffffffffffffffffffffffffffffffffffff\n      mul\n      not\n      and\n      swap1\n      dup4\n      0xffffffffffffffffffffffffffffffffffffffff\n      and\n      mul\n      or\n      swap1\n      sstore\n      pop\n        /* \"contracts/w6_SupplyChainContract.sol\":4085:4100  block.timestamp */\n      timestamp\n        /* \"contracts/w6_SupplyChainContract.sol\":4053:4061  products */\n      0x04\n        /* \"contracts/w6_SupplyChainContract.sol\":4053:4072  products[productId] */\n      0x00\n        /* \"contracts/w6_SupplyChainContract.sol\":4062:4071  productId */\n      dup6\n        /* \"contracts/w6_SupplyChainContract.sol\":4053:4072  products[productId] */\n      dup2\n      mstore\n      0x20\n      add\n      swap1\n      dup2\n      mstore\n      0x20\n      add\n      0x00\n      keccak256\n        /* \"contracts/w6_SupplyChainContract.sol\":4053:4082  products[productId].timestamp */\n      0x04\n      add\n        /* \"contracts/w6_SupplyChainContract.sol\":4053:4100  products[productId].timestamp = block.timestamp */\n      dup2\n      swap1\n      sstore\n      pop\n        /* \"contracts/w6_SupplyChainContract.sol\":4163:4171  newOwner */\n      dup2\n        /* \"contracts/w6_SupplyChainContract.sol\":4115:4172  OwnershipTransferred( productId, previousOwner, newOwner) */\n      0xffffffffffffffffffffffffffffffffffffffff\n      and\n        /* \"contracts/w6_SupplyChainContract.sol\":4148:4161  previousOwner */\n      dup2\n        /* \"contracts/w6_SupplyChainContract.sol\":4115:4172  OwnershipTransferred( productId, previousOwner, newOwner) */\n      0xffffffffffffffffffffffffffffffffffffffff\n      and\n        /* \"contracts/w6_SupplyChainContract.sol\":4137:4146  productId */\n      dup5\n        /* \"contracts/w6_SupplyChainContract.sol\":4115:4172  OwnershipTransferred( productId, previousOwner, newOwner) */\n      0x16b85f49bf01212961345d3016c9a531894accf62eb7680f2045d79185cc0ec0\n      mload(0x40)\n      mload(0x40)\n      dup1\n      swap2\n      sub\n      swap1\n      log4\n        /* \"contracts/w6_SupplyChainContract.sol\":3422:4179  {... */\n      pop\n        /* \"contracts/w6_SupplyChainContract.sol\":3330:4179  function transferProductOwnership(uint256 productId, address newOwner) public onlyAuthorized{... */\n      pop\n      pop\n      jump\t// out\n        /* \"contracts/w6_SupplyChainContract.sol\":277:331  mapping(address => bool) public authorizedParticipants */\n    tag_61:\n      mstore(0x20, 0x03)\n      dup1\n      0x00\n      mstore\n      keccak256(0x00, 0x40)\n      0x00\n      swap2\n      pop\n      sload\n      swap1\n      0x0100\n      exp\n      swap1\n      div\n      0xff\n      and\n      dup2\n      jump\t// out\n        /* \"contracts/w6_SupplyChainContract.sol\":111:131  address public owner */\n    tag_64:\n      0x00\n      dup1\n      sload\n      swap1\n      0x0100\n      exp\n      swap1\n      div\n      0xffffffffffffffffffffffffffffffffffffffff\n      and\n      dup2\n      jump\t// out\n        /* \"contracts/w6_SupplyChainContract.sol\":2712:3324  function registerProduct(string memory name, string memory description) public onlyAuthorized{... */\n    tag_70:\n        /* \"contracts/w6_SupplyChainContract.sol\":2176:2198  authorizedParticipants */\n      0x03\n        /* \"contracts/w6_SupplyChainContract.sol\":2176:2210  authorizedParticipants[msg.sender] */\n      0x00\n        /* \"contracts/w6_SupplyChainContract.sol\":2199:2209  msg.sender */\n      caller\n        /* \"contracts/w6_SupplyChainContract.sol\":2176:2210  authorizedParticipants[msg.sender] */\n      0xffffffffffffffffffffffffffffffffffffffff\n      and\n      0xffffffffffffffffffffffffffffffffffffffff\n      and\n      dup2\n      mstore\n      0x20\n      add\n      swap1\n      dup2\n      mstore\n      0x20\n      add\n      0x00\n      keccak256\n      0x00\n      swap1\n      sload\n      swap1\n      0x0100\n      exp\n      swap1\n      div\n      0xff\n      and\n        /* \"contracts/w6_SupplyChainContract.sol\":2168:2229  require(authorizedParticipants[msg.sender], \"Not authorized\") */\n      tag_254\n      jumpi\n      mload(0x40)\n      0x08c379a000000000000000000000000000000000000000000000000000000000\n      dup2\n      mstore\n      0x04\n      add\n      tag_255\n      swap1\n      tag_113\n      jump\t// in\n    tag_255:\n      mload(0x40)\n      dup1\n      swap2\n      sub\n      swap1\n      revert\n    tag_254:\n        /* \"contracts/w6_SupplyChainContract.sol\":2853:2854  0 */\n      0x00\n        /* \"contracts/w6_SupplyChainContract.sol\":2838:2842  name */\n      dup3\n        /* \"contracts/w6_SupplyChainContract.sol\":2832:2850  bytes(name).length */\n      mload\n        /* \"contracts/w6_SupplyChainContract.sol\":2832:2854  bytes(name).length > 0 */\n      gt\n        /* \"contracts/w6_SupplyChainContract.sol\":2824:2879  require(bytes(name).length > 0, \"Name cannot be empty\") */\n      tag_257\n      jumpi\n      mload(0x40)\n      0x08c379a000000000000000000000000000000000000000000000000000000000\n      dup2\n      mstore\n      0x04\n      add\n      tag_258\n      swap1\n      tag_259\n      jump\t// in\n    tag_258:\n      mload(0x40)\n      dup1\n      swap2\n      sub\n      swap1\n      revert\n    tag_257:\n        /* \"contracts/w6_SupplyChainContract.sol\":2925:2926  0 */\n      0x00\n        /* \"contracts/w6_SupplyChainContract.sol\":2903:2914  description */\n      dup2\n        /* \"contracts/w6_SupplyChainContract.sol\":2897:2922  bytes(description).length */\n      mload\n        /* \"contracts/w6_SupplyChainContract.sol\":2897:2926  bytes(description).length > 0 */\n      gt\n        /* \"contracts/w6_SupplyChainContract.sol\":2889:2958  require(bytes(description).length > 0, \"Description cannot be empty\") */\n      tag_260\n      jumpi\n      mload(0x40)\n      0x08c379a000000000000000000000000000000000000000000000000000000000\n      dup2\n      mstore\n      0x04\n      add\n      tag_261\n      swap1\n      tag_262\n      jump\t// in\n    tag_261:\n      mload(0x40)\n      dup1\n      swap2\n      sub\n      swap1\n      revert\n    tag_260:\n        /* \"contracts/w6_SupplyChainContract.sol\":2977:2989  productCount */\n      0x01\n      0x00\n        /* \"contracts/w6_SupplyChainContract.sol\":2977:2991  productCount++ */\n      dup2\n      sload\n      dup1\n      swap3\n      swap2\n      swap1\n      tag_263\n      swap1\n      tag_264\n      jump\t// in\n    tag_263:\n      swap2\n      swap1\n      pop\n      sstore\n      pop\n        /* \"contracts/w6_SupplyChainContract.sol\":3001:3018  uint256 productID */\n      0x00\n        /* \"contracts/w6_SupplyChainContract.sol\":3021:3033  productCount */\n      sload(0x01)\n        /* \"contracts/w6_SupplyChainContract.sol\":3001:3033  uint256 productID = productCount */\n      swap1\n      pop\n        /* \"contracts/w6_SupplyChainContract.sol\":3065:3317  Product({... */\n      mload(0x40)\n      dup1\n      0xc0\n      add\n      0x40\n      mstore\n      dup1\n        /* \"contracts/w6_SupplyChainContract.sol\":3091:3100  productID */\n      dup3\n        /* \"contracts/w6_SupplyChainContract.sol\":3065:3317  Product({... */\n      dup2\n      mstore\n      0x20\n      add\n        /* \"contracts/w6_SupplyChainContract.sol\":3120:3124  name */\n      dup5\n        /* \"contracts/w6_SupplyChainContract.sol\":3065:3317  Product({... */\n      dup2\n      mstore\n      0x20\n      add\n        /* \"contracts/w6_SupplyChainContract.sol\":3151:3162  description */\n      dup4\n        /* \"contracts/w6_SupplyChainContract.sol\":3065:3317  Product({... */\n      dup2\n      mstore\n      0x20\n      add\n        /* \"contracts/w6_SupplyChainContract.sol\":3190:3200  msg.sender */\n      caller\n        /* \"contracts/w6_SupplyChainContract.sol\":3065:3317  Product({... */\n      0xffffffffffffffffffffffffffffffffffffffff\n      and\n      dup2\n      mstore\n      0x20\n      add\n        /* \"contracts/w6_SupplyChainContract.sol\":3225:3240  block.timestamp */\n      timestamp\n        /* \"contracts/w6_SupplyChainContract.sol\":3065:3317  Product({... */\n      dup2\n      mstore\n      0x20\n      add\n        /* \"contracts/w6_SupplyChainContract.sol\":3266:3271  false */\n      0x00\n        /* \"contracts/w6_SupplyChainContract.sol\":3065:3317  Product({... */\n      iszero\n      iszero\n      dup2\n      mstore\n      pop\n        /* \"contracts/w6_SupplyChainContract.sol\":3043:3051  products */\n      0x04\n        /* \"contracts/w6_SupplyChainContract.sol\":3043:3062  products[productID] */\n      0x00\n        /* \"contracts/w6_SupplyChainContract.sol\":3052:3061  productID */\n      dup4\n        /* \"contracts/w6_SupplyChainContract.sol\":3043:3062  products[productID] */\n      dup2\n      mstore\n      0x20\n      add\n      swap1\n      dup2\n      mstore\n      0x20\n      add\n      0x00\n      keccak256\n        /* \"contracts/w6_SupplyChainContract.sol\":3043:3317  products[productID] = Product({... */\n      0x00\n      dup3\n      add\n      mload\n      dup2\n      0x00\n      add\n      sstore\n      0x20\n      dup3\n      add\n      mload\n      dup2\n      0x01\n      add\n      swap1\n      dup2\n      tag_265\n      swap2\n      swap1\n      tag_266\n      jump\t// in\n    tag_265:\n      pop\n      0x40\n      dup3\n      add\n      mload\n      dup2\n      0x02\n      add\n      swap1\n      dup2\n      tag_267\n      swap2\n      swap1\n      tag_266\n      jump\t// in\n    tag_267:\n      pop\n      0x60\n      dup3\n      add\n      mload\n      dup2\n      0x03\n      add\n      exp(0x0100, 0x00)\n      dup2\n      sload\n      dup2\n      0xffffffffffffffffffffffffffffffffffffffff\n      mul\n      not\n      and\n      swap1\n      dup4\n      0xffffffffffffffffffffffffffffffffffffffff\n      and\n      mul\n      or\n      swap1\n      sstore\n      pop\n      0x80\n      dup3\n      add\n      mload\n      dup2\n      0x04\n      add\n      sstore\n      0xa0\n      dup3\n      add\n      mload\n      dup2\n      0x05\n      add\n      exp(0x0100, 0x00)\n      dup2\n      sload\n      dup2\n      0xff\n      mul\n      not\n      and\n      swap1\n      dup4\n      iszero\n      iszero\n      mul\n      or\n      swap1\n      sstore\n      pop\n      swap1\n      pop\n      pop\n        /* \"contracts/w6_SupplyChainContract.sol\":2805:3324  {... */\n      pop\n        /* \"contracts/w6_SupplyChainContract.sol\":2712:3324  function registerProduct(string memory name, string memory description) public onlyAuthorized{... */\n      pop\n      pop\n      jump\t// out\n        /* \"contracts/w6_SupplyChainContract.sol\":5344:6045  function recallProduct(uint256 productId, string memory reasons) public onlyAuthorized { //Verify caller authorization done... */\n    tag_73:\n        /* \"contracts/w6_SupplyChainContract.sol\":2176:2198  authorizedParticipants */\n      0x03\n        /* \"contracts/w6_SupplyChainContract.sol\":2176:2210  authorizedParticipants[msg.sender] */\n      0x00\n        /* \"contracts/w6_SupplyChainContract.sol\":2199:2209  msg.sender */\n      caller\n        /* \"contracts/w6_SupplyChainContract.sol\":2176:2210  authorizedParticipants[msg.sender] */\n      0xffffffffffffffffffffffffffffffffffffffff\n      and\n      0xffffffffffffffffffffffffffffffffffffffff\n      and\n      dup2\n      mstore\n      0x20\n      add\n      swap1\n      dup2\n      mstore\n      0x20\n      add\n      0x00\n      keccak256\n      0x00\n      swap1\n      sload\n      swap1\n      0x0100\n      exp\n      swap1\n      div\n      0xff\n      and\n        /* \"contracts/w6_SupplyChainContract.sol\":2168:2229  require(authorizedParticipants[msg.sender], \"Not authorized\") */\n      tag_269\n      jumpi\n      mload(0x40)\n      0x08c379a000000000000000000000000000000000000000000000000000000000\n      dup2\n      mstore\n      0x04\n      add\n      tag_270\n      swap1\n      tag_113\n      jump\t// in\n    tag_270:\n      mload(0x40)\n      dup1\n      swap2\n      sub\n      swap1\n      revert\n    tag_269:\n        /* \"contracts/w6_SupplyChainContract.sol\":5518:5542  productExists(productId) */\n      tag_272\n        /* \"contracts/w6_SupplyChainContract.sol\":5532:5541  productId */\n      dup3\n        /* \"contracts/w6_SupplyChainContract.sol\":5518:5531  productExists */\n      tag_80\n        /* \"contracts/w6_SupplyChainContract.sol\":5518:5542  productExists(productId) */\n      jump\t// in\n    tag_272:\n        /* \"contracts/w6_SupplyChainContract.sol\":5510:5568  require(productExists(productId), \"Product doesnt exists\") */\n      tag_273\n      jumpi\n      mload(0x40)\n      0x08c379a000000000000000000000000000000000000000000000000000000000\n      dup2\n      mstore\n      0x04\n      add\n      tag_274\n      swap1\n      tag_275\n      jump\t// in\n    tag_274:\n      mload(0x40)\n      dup1\n      swap2\n      sub\n      swap1\n      revert\n    tag_273:\n        /* \"contracts/w6_SupplyChainContract.sol\":5668:5676  products */\n      0x04\n        /* \"contracts/w6_SupplyChainContract.sol\":5668:5687  products[productId] */\n      0x00\n        /* \"contracts/w6_SupplyChainContract.sol\":5677:5686  productId */\n      dup4\n        /* \"contracts/w6_SupplyChainContract.sol\":5668:5687  products[productId] */\n      dup2\n      mstore\n      0x20\n      add\n      swap1\n      dup2\n      mstore\n      0x20\n      add\n      0x00\n      keccak256\n        /* \"contracts/w6_SupplyChainContract.sol\":5668:5698  products[productId].isRecalled */\n      0x05\n      add\n      0x00\n      swap1\n      sload\n      swap1\n      0x0100\n      exp\n      swap1\n      div\n      0xff\n      and\n        /* \"contracts/w6_SupplyChainContract.sol\":5667:5698  !products[productId].isRecalled */\n      iszero\n        /* \"contracts/w6_SupplyChainContract.sol\":5659:5719  require(!products[productId].isRecalled, \"Already recalled\") */\n      tag_276\n      jumpi\n      mload(0x40)\n      0x08c379a000000000000000000000000000000000000000000000000000000000\n      dup2\n      mstore\n      0x04\n      add\n      tag_277\n      swap1\n      tag_278\n      jump\t// in\n    tag_277:\n      mload(0x40)\n      dup1\n      swap2\n      sub\n      swap1\n      revert\n    tag_276:\n        /* \"contracts/w6_SupplyChainContract.sol\":5849:5853  true */\n      0x01\n        /* \"contracts/w6_SupplyChainContract.sol\":5816:5824  products */\n      0x04\n        /* \"contracts/w6_SupplyChainContract.sol\":5816:5835  products[productId] */\n      0x00\n        /* \"contracts/w6_SupplyChainContract.sol\":5825:5834  productId */\n      dup5\n        /* \"contracts/w6_SupplyChainContract.sol\":5816:5835  products[productId] */\n      dup2\n      mstore\n      0x20\n      add\n      swap1\n      dup2\n      mstore\n      0x20\n      add\n      0x00\n      keccak256\n        /* \"contracts/w6_SupplyChainContract.sol\":5816:5846  products[productId].isRecalled */\n      0x05\n      add\n      0x00\n        /* \"contracts/w6_SupplyChainContract.sol\":5816:5853  products[productId].isRecalled = true */\n      0x0100\n      exp\n      dup2\n      sload\n      dup2\n      0xff\n      mul\n      not\n      and\n      swap1\n      dup4\n      iszero\n      iszero\n      mul\n      or\n      swap1\n      sstore\n      pop\n        /* \"contracts/w6_SupplyChainContract.sol\":5947:5956  productId */\n      dup2\n        /* \"contracts/w6_SupplyChainContract.sol\":5931:5966  ProductRecalled(productId, reasons) */\n      0xcf945375036ee1ff64a8885b9c36844ac503b07ad7b0b3b78d023eb0a4cc623c\n        /* \"contracts/w6_SupplyChainContract.sol\":5958:5965  reasons */\n      dup3\n        /* \"contracts/w6_SupplyChainContract.sol\":5931:5966  ProductRecalled(productId, reasons) */\n      mload(0x40)\n      tag_279\n      swap2\n      swap1\n      tag_99\n      jump\t// in\n    tag_279:\n      mload(0x40)\n      dup1\n      swap2\n      sub\n      swap1\n      log2\n        /* \"contracts/w6_SupplyChainContract.sol\":5344:6045  function recallProduct(uint256 productId, string memory reasons) public onlyAuthorized { //Verify caller authorization done... */\n      pop\n      pop\n      jump\t// out\n        /* \"contracts/w6_SupplyChainContract.sol\":4438:4610  function batchExists(uint256 batchId) public view returns (bool) {... */\n    tag_76:\n        /* \"contracts/w6_SupplyChainContract.sol\":4497:4501  bool */\n      0x00\n        /* \"contracts/w6_SupplyChainContract.sol\":4544:4545  0 */\n      dup1\n        /* \"contracts/w6_SupplyChainContract.sol\":4517:4524  batches */\n      0x05\n        /* \"contracts/w6_SupplyChainContract.sol\":4517:4533  batches[batchId] */\n      0x00\n        /* \"contracts/w6_SupplyChainContract.sol\":4525:4532  batchId */\n      dup5\n        /* \"contracts/w6_SupplyChainContract.sol\":4517:4533  batches[batchId] */\n      dup2\n      mstore\n      0x20\n      add\n      swap1\n      dup2\n      mstore\n      0x20\n      add\n      0x00\n      keccak256\n        /* \"contracts/w6_SupplyChainContract.sol\":4517:4541  batches[batchId].batchId */\n      0x06\n      add\n      sload\n        /* \"contracts/w6_SupplyChainContract.sol\":4517:4545  batches[batchId].batchId !=0 */\n      eq\n        /* \"contracts/w6_SupplyChainContract.sol\":4513:4582  if (batches[batchId].batchId !=0){... */\n      tag_281\n      jumpi\n        /* \"contracts/w6_SupplyChainContract.sol\":4567:4571  true */\n      0x01\n        /* \"contracts/w6_SupplyChainContract.sol\":4560:4571  return true */\n      swap1\n      pop\n      jump(tag_280)\n        /* \"contracts/w6_SupplyChainContract.sol\":4513:4582  if (batches[batchId].batchId !=0){... */\n    tag_281:\n        /* \"contracts/w6_SupplyChainContract.sol\":4598:4603  false */\n      0x00\n        /* \"contracts/w6_SupplyChainContract.sol\":4591:4603  return false */\n      swap1\n      pop\n        /* \"contracts/w6_SupplyChainContract.sol\":4438:4610  function batchExists(uint256 batchId) public view returns (bool) {... */\n    tag_280:\n      swap2\n      swap1\n      pop\n      jump\t// out\n        /* \"contracts/w6_SupplyChainContract.sol\":4185:4432  function productExists(uint256 productId) public view returns (bool) {... */\n    tag_80:\n        /* \"contracts/w6_SupplyChainContract.sol\":4248:4252  bool */\n      0x00\n        /* \"contracts/w6_SupplyChainContract.sol\":4269:4275  uint i */\n      dup1\n        /* \"contracts/w6_SupplyChainContract.sol\":4278:4279  0 */\n      0x00\n        /* \"contracts/w6_SupplyChainContract.sol\":4269:4279  uint i = 0 */\n      swap1\n      pop\n        /* \"contracts/w6_SupplyChainContract.sol\":4264:4404  for (uint i = 0; i < productCount; i++) {... */\n    tag_283:\n        /* \"contracts/w6_SupplyChainContract.sol\":4285:4297  productCount */\n      sload(0x01)\n        /* \"contracts/w6_SupplyChainContract.sol\":4281:4282  i */\n      dup2\n        /* \"contracts/w6_SupplyChainContract.sol\":4281:4297  i < productCount */\n      lt\n        /* \"contracts/w6_SupplyChainContract.sol\":4264:4404  for (uint i = 0; i < productCount; i++) {... */\n      iszero\n      tag_284\n      jumpi\n        /* \"contracts/w6_SupplyChainContract.sol\":4335:4343  products */\n      0x04\n        /* \"contracts/w6_SupplyChainContract.sol\":4335:4346  products[i] */\n      0x00\n        /* \"contracts/w6_SupplyChainContract.sol\":4344:4345  i */\n      dup3\n        /* \"contracts/w6_SupplyChainContract.sol\":4335:4346  products[i] */\n      dup2\n      mstore\n      0x20\n      add\n      swap1\n      dup2\n      mstore\n      0x20\n      add\n      0x00\n      keccak256\n        /* \"contracts/w6_SupplyChainContract.sol\":4335:4349  products[i].id */\n      0x00\n      add\n      sload\n        /* \"contracts/w6_SupplyChainContract.sol\":4322:4331  productId */\n      dup4\n        /* \"contracts/w6_SupplyChainContract.sol\":4322:4349  productId == products[i].id */\n      sub\n        /* \"contracts/w6_SupplyChainContract.sol\":4318:4394  if (productId == products[i].id){... */\n      tag_286\n      jumpi\n        /* \"contracts/w6_SupplyChainContract.sol\":4375:4379  true */\n      0x01\n        /* \"contracts/w6_SupplyChainContract.sol\":4368:4379  return true */\n      swap2\n      pop\n      pop\n      jump(tag_282)\n        /* \"contracts/w6_SupplyChainContract.sol\":4318:4394  if (productId == products[i].id){... */\n    tag_286:\n        /* \"contracts/w6_SupplyChainContract.sol\":4299:4302  i++ */\n      dup1\n      dup1\n      0x01\n      add\n      swap2\n      pop\n      pop\n        /* \"contracts/w6_SupplyChainContract.sol\":4264:4404  for (uint i = 0; i < productCount; i++) {... */\n      jump(tag_283)\n    tag_284:\n      pop\n        /* \"contracts/w6_SupplyChainContract.sol\":4420:4425  false */\n      0x00\n        /* \"contracts/w6_SupplyChainContract.sol\":4413:4425  return false */\n      swap1\n      pop\n        /* \"contracts/w6_SupplyChainContract.sol\":4185:4432  function productExists(uint256 productId) public view returns (bool) {... */\n    tag_282:\n      swap2\n      swap1\n      pop\n      jump\t// out\n        /* \"contracts/w6_SupplyChainContract.sol\":413:453  mapping(uint256 => Batch) public batches */\n    tag_84:\n      mstore(0x20, 0x05)\n      dup1\n      0x00\n      mstore\n      keccak256(0x00, 0x40)\n      0x00\n      swap2\n      pop\n      swap1\n      pop\n      dup1\n      0x03\n      add\n      0x00\n      swap1\n      sload\n      swap1\n      0x0100\n      exp\n      swap1\n      div\n      0xffffffffffffffffffffffffffffffffffffffff\n      and\n      swap1\n      dup1\n      0x04\n      add\n      sload\n      swap1\n      dup1\n      0x05\n      add\n      0x00\n      swap1\n      sload\n      swap1\n      0x0100\n      exp\n      swap1\n      div\n      0xff\n      and\n      swap1\n      dup1\n      0x06\n      add\n      sload\n      swap1\n      dup1\n      0x07\n      add\n      dup1\n      sload\n      tag_287\n      swap1\n      tag_143\n      jump\t// in\n    tag_287:\n      dup1\n      0x1f\n      add\n      0x20\n      dup1\n      swap2\n      div\n      mul\n      0x20\n      add\n      mload(0x40)\n      swap1\n      dup2\n      add\n      0x40\n      mstore\n      dup1\n      swap3\n      swap2\n      swap1\n      dup2\n      dup2\n      mstore\n      0x20\n      add\n      dup3\n      dup1\n      sload\n      tag_288\n      swap1\n      tag_143\n      jump\t// in\n    tag_288:\n      dup1\n      iszero\n      tag_289\n      jumpi\n      dup1\n      0x1f\n      lt\n      tag_290\n      jumpi\n      0x0100\n      dup1\n      dup4\n      sload\n      div\n      mul\n      dup4\n      mstore\n      swap2\n      0x20\n      add\n      swap2\n      jump(tag_289)\n    tag_290:\n      dup3\n      add\n      swap2\n      swap1\n      0x00\n      mstore\n      keccak256(0x00, 0x20)\n      swap1\n    tag_291:\n      dup2\n      sload\n      dup2\n      mstore\n      swap1\n      0x01\n      add\n      swap1\n      0x20\n      add\n      dup1\n      dup4\n      gt\n      tag_291\n      jumpi\n      dup3\n      swap1\n      sub\n      0x1f\n      and\n      dup3\n      add\n      swap2\n    tag_289:\n      pop\n      pop\n      pop\n      pop\n      pop\n      swap1\n      pop\n      dup6\n      jump\t// out\n        /* \"contracts/w6_SupplyChainContract.sol\":6051:6564  function getProduct(uint256 productId) public view returns (... */\n    tag_89:\n        /* \"contracts/w6_SupplyChainContract.sol\":6120:6130  uint256 id */\n      0x00\n        /* \"contracts/w6_SupplyChainContract.sol\":6140:6158  string memory name */\n      0x60\n        /* \"contracts/w6_SupplyChainContract.sol\":6168:6188  address currentOwner */\n      0x00\n        /* \"contracts/w6_SupplyChainContract.sol\":6198:6215  uint256 timestamp */\n      dup1\n        /* \"contracts/w6_SupplyChainContract.sol\":6225:6240  bool isRecalled */\n      0x00\n        /* \"contracts/w6_SupplyChainContract.sol\":6293:6315  Product memory product */\n      dup1\n        /* \"contracts/w6_SupplyChainContract.sol\":6318:6326  products */\n      0x04\n        /* \"contracts/w6_SupplyChainContract.sol\":6318:6337  products[productId] */\n      0x00\n        /* \"contracts/w6_SupplyChainContract.sol\":6327:6336  productId */\n      dup9\n        /* \"contracts/w6_SupplyChainContract.sol\":6318:6337  products[productId] */\n      dup2\n      mstore\n      0x20\n      add\n      swap1\n      dup2\n      mstore\n      0x20\n      add\n      0x00\n      keccak256\n        /* \"contracts/w6_SupplyChainContract.sol\":6293:6337  Product memory product = products[productId] */\n      mload(0x40)\n      dup1\n      0xc0\n      add\n      0x40\n      mstore\n      swap1\n      dup2\n      0x00\n      dup3\n      add\n      sload\n      dup2\n      mstore\n      0x20\n      add\n      0x01\n      dup3\n      add\n      dup1\n      sload\n      tag_293\n      swap1\n      tag_143\n      jump\t// in\n    tag_293:\n      dup1\n      0x1f\n      add\n      0x20\n      dup1\n      swap2\n      div\n      mul\n      0x20\n      add\n      mload(0x40)\n      swap1\n      dup2\n      add\n      0x40\n      mstore\n      dup1\n      swap3\n      swap2\n      swap1\n      dup2\n      dup2\n      mstore\n      0x20\n      add\n      dup3\n      dup1\n      sload\n      tag_294\n      swap1\n      tag_143\n      jump\t// in\n    tag_294:\n      dup1\n      iszero\n      tag_295\n      jumpi\n      dup1\n      0x1f\n      lt\n      tag_296\n      jumpi\n      0x0100\n      dup1\n      dup4\n      sload\n      div\n      mul\n      dup4\n      mstore\n      swap2\n      0x20\n      add\n      swap2\n      jump(tag_295)\n    tag_296:\n      dup3\n      add\n      swap2\n      swap1\n      0x00\n      mstore\n      keccak256(0x00, 0x20)\n      swap1\n    tag_297:\n      dup2\n      sload\n      dup2\n      mstore\n      swap1\n      0x01\n      add\n      swap1\n      0x20\n      add\n      dup1\n      dup4\n      gt\n      tag_297\n      jumpi\n      dup3\n      swap1\n      sub\n      0x1f\n      and\n      dup3\n      add\n      swap2\n    tag_295:\n      pop\n      pop\n      pop\n      pop\n      pop\n      dup2\n      mstore\n      0x20\n      add\n      0x02\n      dup3\n      add\n      dup1\n      sload\n      tag_298\n      swap1\n      tag_143\n      jump\t// in\n    tag_298:\n      dup1\n      0x1f\n      add\n      0x20\n      dup1\n      swap2\n      div\n      mul\n      0x20\n      add\n      mload(0x40)\n      swap1\n      dup2\n      add\n      0x40\n      mstore\n      dup1\n      swap3\n      swap2\n      swap1\n      dup2\n      dup2\n      mstore\n      0x20\n      add\n      dup3\n      dup1\n      sload\n      tag_299\n      swap1\n      tag_143\n      jump\t// in\n    tag_299:\n      dup1\n      iszero\n      tag_300\n      jumpi\n      dup1\n      0x1f\n      lt\n      tag_301\n      jumpi\n      0x0100\n      dup1\n      dup4\n      sload\n      div\n      mul\n      dup4\n      mstore\n      swap2\n      0x20\n      add\n      swap2\n      jump(tag_300)\n    tag_301:\n      dup3\n      add\n      swap2\n      swap1\n      0x00\n      mstore\n      keccak256(0x00, 0x20)\n      swap1\n    tag_302:\n      dup2\n      sload\n      dup2\n      mstore\n      swap1\n      0x01\n      add\n      swap1\n      0x20\n      add\n      dup1\n      dup4\n      gt\n      tag_302\n      jumpi\n      dup3\n      swap1\n      sub\n      0x1f\n      and\n      dup3\n      add\n      swap2\n    tag_300:\n      pop\n      pop\n      pop\n      pop\n      pop\n      dup2\n      mstore\n      0x20\n      add\n      0x03\n      dup3\n      add\n      0x00\n      swap1\n      sload\n      swap1\n      0x0100\n      exp\n      swap1\n      div\n      0xffffffffffffffffffffffffffffffffffffffff\n      and\n      0xffffffffffffffffffffffffffffffffffffffff\n      and\n      0xffffffffffffffffffffffffffffffffffffffff\n      and\n      dup2\n      mstore\n      0x20\n      add\n      0x04\n      dup3\n      add\n      sload\n      dup2\n      mstore\n      0x20\n      add\n      0x05\n      dup3\n      add\n      0x00\n      swap1\n      sload\n      swap1\n      0x0100\n      exp\n      swap1\n      div\n      0xff\n      and\n      iszero\n      iszero\n      iszero\n      iszero\n      dup2\n      mstore\n      pop\n      pop\n      swap1\n      pop\n        /* \"contracts/w6_SupplyChainContract.sol\":6414:6421  product */\n      dup1\n        /* \"contracts/w6_SupplyChainContract.sol\":6414:6424  product.id */\n      0x00\n      add\n      mload\n        /* \"contracts/w6_SupplyChainContract.sol\":6438:6445  product */\n      dup2\n        /* \"contracts/w6_SupplyChainContract.sol\":6438:6450  product.name */\n      0x20\n      add\n      mload\n        /* \"contracts/w6_SupplyChainContract.sol\":6464:6471  product */\n      dup3\n        /* \"contracts/w6_SupplyChainContract.sol\":6464:6484  product.currentOwner */\n      0x60\n      add\n      mload\n        /* \"contracts/w6_SupplyChainContract.sol\":6498:6505  product */\n      dup4\n        /* \"contracts/w6_SupplyChainContract.sol\":6498:6515  product.timestamp */\n      0x80\n      add\n      mload\n        /* \"contracts/w6_SupplyChainContract.sol\":6529:6536  product */\n      dup5\n        /* \"contracts/w6_SupplyChainContract.sol\":6529:6547  product.isRecalled */\n      0xa0\n      add\n      mload\n        /* \"contracts/w6_SupplyChainContract.sol\":6393:6557  return (... */\n      swap6\n      pop\n      swap6\n      pop\n      swap6\n      pop\n      swap6\n      pop\n      swap6\n      pop\n      pop\n        /* \"contracts/w6_SupplyChainContract.sol\":6051:6564  function getProduct(uint256 productId) public view returns (... */\n      swap2\n      swap4\n      swap6\n      swap1\n      swap3\n      swap5\n      pop\n      jump\t// out\n        /* \"contracts/w6_SupplyChainContract.sol\":2379:2706  function authorizeParticipant(address participant) public onlyOwner{... */\n    tag_94:\n        /* \"contracts/w6_SupplyChainContract.sol\":2086:2091  owner */\n      0x00\n      dup1\n      sload\n      swap1\n      0x0100\n      exp\n      swap1\n      div\n      0xffffffffffffffffffffffffffffffffffffffff\n      and\n        /* \"contracts/w6_SupplyChainContract.sol\":2072:2091  msg.sender == owner */\n      0xffffffffffffffffffffffffffffffffffffffff\n      and\n        /* \"contracts/w6_SupplyChainContract.sol\":2072:2082  msg.sender */\n      caller\n        /* \"contracts/w6_SupplyChainContract.sol\":2072:2091  msg.sender == owner */\n      0xffffffffffffffffffffffffffffffffffffffff\n      and\n      eq\n        /* \"contracts/w6_SupplyChainContract.sol\":2064:2109  require(msg.sender == owner, \"Not the owner\") */\n      tag_304\n      jumpi\n      mload(0x40)\n      0x08c379a000000000000000000000000000000000000000000000000000000000\n      dup2\n      mstore\n      0x04\n      add\n      tag_305\n      swap1\n      tag_306\n      jump\t// in\n    tag_305:\n      mload(0x40)\n      dup1\n      swap2\n      sub\n      swap1\n      revert\n    tag_304:\n        /* \"contracts/w6_SupplyChainContract.sol\":2487:2488  0 */\n      0x00\n        /* \"contracts/w6_SupplyChainContract.sol\":2464:2489  participant != address(0) */\n      0xffffffffffffffffffffffffffffffffffffffff\n      and\n        /* \"contracts/w6_SupplyChainContract.sol\":2464:2475  participant */\n      dup2\n        /* \"contracts/w6_SupplyChainContract.sol\":2464:2489  participant != address(0) */\n      0xffffffffffffffffffffffffffffffffffffffff\n      and\n      sub\n        /* \"contracts/w6_SupplyChainContract.sol\":2456:2509  require(participant != address(0), \"Invalid address\") */\n      tag_308\n      jumpi\n      mload(0x40)\n      0x08c379a000000000000000000000000000000000000000000000000000000000\n      dup2\n      mstore\n      0x04\n      add\n      tag_309\n      swap1\n      tag_310\n      jump\t// in\n    tag_309:\n      mload(0x40)\n      dup1\n      swap2\n      sub\n      swap1\n      revert\n    tag_308:\n        /* \"contracts/w6_SupplyChainContract.sol\":2528:2550  authorizedParticipants */\n      0x03\n        /* \"contracts/w6_SupplyChainContract.sol\":2528:2563  authorizedParticipants[participant] */\n      0x00\n        /* \"contracts/w6_SupplyChainContract.sol\":2551:2562  participant */\n      dup3\n        /* \"contracts/w6_SupplyChainContract.sol\":2528:2563  authorizedParticipants[participant] */\n      0xffffffffffffffffffffffffffffffffffffffff\n      and\n      0xffffffffffffffffffffffffffffffffffffffff\n      and\n      dup2\n      mstore\n      0x20\n      add\n      swap1\n      dup2\n      mstore\n      0x20\n      add\n      0x00\n      keccak256\n      0x00\n      swap1\n      sload\n      swap1\n      0x0100\n      exp\n      swap1\n      div\n      0xff\n      and\n        /* \"contracts/w6_SupplyChainContract.sol\":2527:2563  !authorizedParticipants[participant] */\n      iszero\n        /* \"contracts/w6_SupplyChainContract.sol\":2519:2598  require(!authorizedParticipants[participant], \"Participant already authorized\") */\n      tag_311\n      jumpi\n      mload(0x40)\n      0x08c379a000000000000000000000000000000000000000000000000000000000\n      dup2\n      mstore\n      0x04\n      add\n      tag_312\n      swap1\n      tag_313\n      jump\t// in\n    tag_312:\n      mload(0x40)\n      dup1\n      swap2\n      sub\n      swap1\n      revert\n    tag_311:\n        /* \"contracts/w6_SupplyChainContract.sol\":2646:2650  true */\n      0x01\n        /* \"contracts/w6_SupplyChainContract.sol\":2608:2630  authorizedParticipants */\n      0x03\n        /* \"contracts/w6_SupplyChainContract.sol\":2608:2643  authorizedParticipants[participant] */\n      0x00\n        /* \"contracts/w6_SupplyChainContract.sol\":2631:2642  participant */\n      dup4\n        /* \"contracts/w6_SupplyChainContract.sol\":2608:2643  authorizedParticipants[participant] */\n      0xffffffffffffffffffffffffffffffffffffffff\n      and\n      0xffffffffffffffffffffffffffffffffffffffff\n      and\n      dup2\n      mstore\n      0x20\n      add\n      swap1\n      dup2\n      mstore\n      0x20\n      add\n      0x00\n      keccak256\n      0x00\n        /* \"contracts/w6_SupplyChainContract.sol\":2608:2650  authorizedParticipants[participant] = true */\n      0x0100\n      exp\n      dup2\n      sload\n      dup2\n      0xff\n      mul\n      not\n      and\n      swap1\n      dup4\n      iszero\n      iszero\n      mul\n      or\n      swap1\n      sstore\n      pop\n        /* \"contracts/w6_SupplyChainContract.sol\":2687:2698  participant */\n      dup1\n        /* \"contracts/w6_SupplyChainContract.sol\":2665:2699  ParticipantAuthorized(participant) */\n      0xffffffffffffffffffffffffffffffffffffffff\n      and\n      0x3cbcbb9ba5a54d0762f39fd455fd2900fbcfcd0e0693e2c87db13043c400b55f\n      mload(0x40)\n      mload(0x40)\n      dup1\n      swap2\n      sub\n      swap1\n      log2\n        /* \"contracts/w6_SupplyChainContract.sol\":2379:2706  function authorizeParticipant(address participant) public onlyOwner{... */\n      pop\n      jump\t// out\n        /* \"contracts/w6_SupplyChainContract.sol\":7561:7783  function operationConvert(uint256 x) public pure returns (string memory y){... */\n    tag_97:\n        /* \"contracts/w6_SupplyChainContract.sol\":7619:7634  string memory y */\n      0x60\n        /* \"contracts/w6_SupplyChainContract.sol\":7654:7655  1 */\n      0x01\n        /* \"contracts/w6_SupplyChainContract.sol\":7649:7650  x */\n      dup3\n        /* \"contracts/w6_SupplyChainContract.sol\":7649:7655  x == 1 */\n      sub\n        /* \"contracts/w6_SupplyChainContract.sol\":7645:7776  if (x == 1) return \"resgisterBatch\";... */\n      tag_315\n      jumpi\n        /* \"contracts/w6_SupplyChainContract.sol\":7657:7680  return \"resgisterBatch\" */\n      mload(0x40)\n      dup1\n      0x40\n      add\n      0x40\n      mstore\n      dup1\n      0x0e\n      dup2\n      mstore\n      0x20\n      add\n      0x7265736769737465724261746368000000000000000000000000000000000000\n      dup2\n      mstore\n      pop\n      swap1\n      pop\n      jump(tag_314)\n        /* \"contracts/w6_SupplyChainContract.sol\":7645:7776  if (x == 1) return \"resgisterBatch\";... */\n    tag_315:\n        /* \"contracts/w6_SupplyChainContract.sol\":7704:7705  2 */\n      0x02\n        /* \"contracts/w6_SupplyChainContract.sol\":7699:7700  x */\n      dup3\n        /* \"contracts/w6_SupplyChainContract.sol\":7699:7705  x == 2 */\n      sub\n        /* \"contracts/w6_SupplyChainContract.sol\":7695:7776  if (x == 2) return \"transferBatch\";... */\n      tag_317\n      jumpi\n        /* \"contracts/w6_SupplyChainContract.sol\":7707:7729  return \"transferBatch\" */\n      mload(0x40)\n      dup1\n      0x40\n      add\n      0x40\n      mstore\n      dup1\n      0x0d\n      dup2\n      mstore\n      0x20\n      add\n      0x7472616e73666572426174636800000000000000000000000000000000000000\n      dup2\n      mstore\n      pop\n      swap1\n      pop\n      jump(tag_314)\n        /* \"contracts/w6_SupplyChainContract.sol\":7695:7776  if (x == 2) return \"transferBatch\";... */\n    tag_317:\n        /* \"contracts/w6_SupplyChainContract.sol\":7753:7754  3 */\n      0x03\n        /* \"contracts/w6_SupplyChainContract.sol\":7748:7749  x */\n      dup3\n        /* \"contracts/w6_SupplyChainContract.sol\":7748:7754  x == 3 */\n      sub\n        /* \"contracts/w6_SupplyChainContract.sol\":7744:7776  if (x == 3) return \"recallBatch\" */\n      tag_319\n      jumpi\n        /* \"contracts/w6_SupplyChainContract.sol\":7756:7776  return \"recallBatch\" */\n      mload(0x40)\n      dup1\n      0x40\n      add\n      0x40\n      mstore\n      dup1\n      0x0b\n      dup2\n      mstore\n      0x20\n      add\n      0x726563616c6c4261746368000000000000000000000000000000000000000000\n      dup2\n      mstore\n      pop\n      swap1\n      pop\n      jump(tag_314)\n        /* \"contracts/w6_SupplyChainContract.sol\":7744:7776  if (x == 3) return \"recallBatch\" */\n    tag_319:\n        /* \"contracts/w6_SupplyChainContract.sol\":7561:7783  function operationConvert(uint256 x) public pure returns (string memory y){... */\n    tag_314:\n      swap2\n      swap1\n      pop\n      jump\t// out\n        /* \"contracts/w6_SupplyChainContract.sol\":2253:2373  function addParticipant(address participant) public onlyOwner{... */\n    tag_102:\n        /* \"contracts/w6_SupplyChainContract.sol\":2086:2091  owner */\n      0x00\n      dup1\n      sload\n      swap1\n      0x0100\n      exp\n      swap1\n      div\n      0xffffffffffffffffffffffffffffffffffffffff\n      and\n        /* \"contracts/w6_SupplyChainContract.sol\":2072:2091  msg.sender == owner */\n      0xffffffffffffffffffffffffffffffffffffffff\n      and\n        /* \"contracts/w6_SupplyChainContract.sol\":2072:2082  msg.sender */\n      caller\n        /* \"contracts/w6_SupplyChainContract.sol\":2072:2091  msg.sender == owner */\n      0xffffffffffffffffffffffffffffffffffffffff\n      and\n      eq\n        /* \"contracts/w6_SupplyChainContract.sol\":2064:2109  require(msg.sender == owner, \"Not the owner\") */\n      tag_321\n      jumpi\n      mload(0x40)\n      0x08c379a000000000000000000000000000000000000000000000000000000000\n      dup2\n      mstore\n      0x04\n      add\n      tag_322\n      swap1\n      tag_306\n      jump\t// in\n    tag_322:\n      mload(0x40)\n      dup1\n      swap2\n      sub\n      swap1\n      revert\n    tag_321:\n        /* \"contracts/w6_SupplyChainContract.sol\":2362:2366  true */\n      0x01\n        /* \"contracts/w6_SupplyChainContract.sol\":2324:2346  authorizedParticipants */\n      0x03\n        /* \"contracts/w6_SupplyChainContract.sol\":2324:2359  authorizedParticipants[participant] */\n      0x00\n        /* \"contracts/w6_SupplyChainContract.sol\":2347:2358  participant */\n      dup4\n        /* \"contracts/w6_SupplyChainContract.sol\":2324:2359  authorizedParticipants[participant] */\n      0xffffffffffffffffffffffffffffffffffffffff\n      and\n      0xffffffffffffffffffffffffffffffffffffffff\n      and\n      dup2\n      mstore\n      0x20\n      add\n      swap1\n      dup2\n      mstore\n      0x20\n      add\n      0x00\n      keccak256\n      0x00\n        /* \"contracts/w6_SupplyChainContract.sol\":2324:2366  authorizedParticipants[participant] = true */\n      0x0100\n      exp\n      dup2\n      sload\n      dup2\n      0xff\n      mul\n      not\n      and\n      swap1\n      dup4\n      iszero\n      iszero\n      mul\n      or\n      swap1\n      sstore\n      pop\n        /* \"contracts/w6_SupplyChainContract.sol\":2253:2373  function addParticipant(address participant) public onlyOwner{... */\n      pop\n      jump\t// out\n        /* \"contracts/w6_SupplyChainContract.sol\":157:184  uint256 public productCount */\n    tag_104:\n      sload(0x01)\n      dup2\n      jump\t// out\n        /* \"contracts/w6_SupplyChainContract.sol\":8060:9015  function createBatch(uint256[] memory lst_id , string[] memory lst_name, string[] memory lst_description, string memory operation) public onlyAuthorized{... */\n    tag_109:\n        /* \"contracts/w6_SupplyChainContract.sol\":2176:2198  authorizedParticipants */\n      0x03\n        /* \"contracts/w6_SupplyChainContract.sol\":2176:2210  authorizedParticipants[msg.sender] */\n      0x00\n        /* \"contracts/w6_SupplyChainContract.sol\":2199:2209  msg.sender */\n      caller\n        /* \"contracts/w6_SupplyChainContract.sol\":2176:2210  authorizedParticipants[msg.sender] */\n      0xffffffffffffffffffffffffffffffffffffffff\n      and\n      0xffffffffffffffffffffffffffffffffffffffff\n      and\n      dup2\n      mstore\n      0x20\n      add\n      swap1\n      dup2\n      mstore\n      0x20\n      add\n      0x00\n      keccak256\n      0x00\n      swap1\n      sload\n      swap1\n      0x0100\n      exp\n      swap1\n      div\n      0xff\n      and\n        /* \"contracts/w6_SupplyChainContract.sol\":2168:2229  require(authorizedParticipants[msg.sender], \"Not authorized\") */\n      tag_325\n      jumpi\n      mload(0x40)\n      0x08c379a000000000000000000000000000000000000000000000000000000000\n      dup2\n      mstore\n      0x04\n      add\n      tag_326\n      swap1\n      tag_113\n      jump\t// in\n    tag_326:\n      mload(0x40)\n      dup1\n      swap2\n      sub\n      swap1\n      revert\n    tag_325:\n        /* \"contracts/w6_SupplyChainContract.sol\":8246:8247  0 */\n      0x00\n        /* \"contracts/w6_SupplyChainContract.sol\":8230:8236  lst_id */\n      dup5\n        /* \"contracts/w6_SupplyChainContract.sol\":8230:8243  lst_id.length */\n      mload\n        /* \"contracts/w6_SupplyChainContract.sol\":8230:8247  lst_id.length > 0 */\n      gt\n        /* \"contracts/w6_SupplyChainContract.sol\":8222:8275  require(lst_id.length > 0, \"ID list cannot be empty\") */\n      tag_328\n      jumpi\n      mload(0x40)\n      0x08c379a000000000000000000000000000000000000000000000000000000000\n      dup2\n      mstore\n      0x04\n      add\n      tag_329\n      swap1\n      tag_330\n      jump\t// in\n    tag_329:\n      mload(0x40)\n      dup1\n      swap2\n      sub\n      swap1\n      revert\n    tag_328:\n        /* \"contracts/w6_SupplyChainContract.sol\":8311:8312  0 */\n      0x00\n        /* \"contracts/w6_SupplyChainContract.sol\":8293:8301  lst_name */\n      dup4\n        /* \"contracts/w6_SupplyChainContract.sol\":8293:8308  lst_name.length */\n      mload\n        /* \"contracts/w6_SupplyChainContract.sol\":8293:8312  lst_name.length > 0 */\n      gt\n        /* \"contracts/w6_SupplyChainContract.sol\":8285:8337  require(lst_name.length > 0, \"Name cannot be empty\") */\n      tag_331\n      jumpi\n      mload(0x40)\n      0x08c379a000000000000000000000000000000000000000000000000000000000\n      dup2\n      mstore\n      0x04\n      add\n      tag_332\n      swap1\n      tag_259\n      jump\t// in\n    tag_332:\n      mload(0x40)\n      dup1\n      swap2\n      sub\n      swap1\n      revert\n    tag_331:\n        /* \"contracts/w6_SupplyChainContract.sol\":8380:8381  0 */\n      0x00\n        /* \"contracts/w6_SupplyChainContract.sol\":8355:8370  lst_description */\n      dup3\n        /* \"contracts/w6_SupplyChainContract.sol\":8355:8377  lst_description.length */\n      mload\n        /* \"contracts/w6_SupplyChainContract.sol\":8355:8381  lst_description.length > 0 */\n      gt\n        /* \"contracts/w6_SupplyChainContract.sol\":8347:8413  require(lst_description.length > 0, \"Description cannot be empty\") */\n      tag_333\n      jumpi\n      mload(0x40)\n      0x08c379a000000000000000000000000000000000000000000000000000000000\n      dup2\n      mstore\n      0x04\n      add\n      tag_334\n      swap1\n      tag_262\n      jump\t// in\n    tag_334:\n      mload(0x40)\n      dup1\n      swap2\n      sub\n      swap1\n      revert\n    tag_333:\n        /* \"contracts/w6_SupplyChainContract.sol\":8603:8613  batchCount */\n      0x02\n      0x00\n        /* \"contracts/w6_SupplyChainContract.sol\":8603:8615  batchCount++ */\n      dup2\n      sload\n      dup1\n      swap3\n      swap2\n      swap1\n      tag_335\n      swap1\n      tag_264\n      jump\t// in\n    tag_335:\n      swap2\n      swap1\n      pop\n      sstore\n      pop\n        /* \"contracts/w6_SupplyChainContract.sol\":8625:8640  uint256 BatchId */\n      0x00\n        /* \"contracts/w6_SupplyChainContract.sol\":8643:8653  batchCount */\n      sload(0x02)\n        /* \"contracts/w6_SupplyChainContract.sol\":8625:8653  uint256 BatchId = batchCount */\n      swap1\n      pop\n        /* \"contracts/w6_SupplyChainContract.sol\":8682:8961  Batch({... */\n      mload(0x40)\n      dup1\n      0x0100\n      add\n      0x40\n      mstore\n      dup1\n        /* \"contracts/w6_SupplyChainContract.sol\":8706:8712  lst_id */\n      dup7\n        /* \"contracts/w6_SupplyChainContract.sol\":8682:8961  Batch({... */\n      dup2\n      mstore\n      0x20\n      add\n        /* \"contracts/w6_SupplyChainContract.sol\":8732:8740  lst_name */\n      dup6\n        /* \"contracts/w6_SupplyChainContract.sol\":8682:8961  Batch({... */\n      dup2\n      mstore\n      0x20\n      add\n        /* \"contracts/w6_SupplyChainContract.sol\":8767:8782  lst_description */\n      dup5\n        /* \"contracts/w6_SupplyChainContract.sol\":8682:8961  Batch({... */\n      dup2\n      mstore\n      0x20\n      add\n        /* \"contracts/w6_SupplyChainContract.sol\":8810:8815  owner */\n      0x00\n      dup1\n      sload\n      swap1\n      0x0100\n      exp\n      swap1\n      div\n      0xffffffffffffffffffffffffffffffffffffffff\n      and\n        /* \"contracts/w6_SupplyChainContract.sol\":8682:8961  Batch({... */\n      0xffffffffffffffffffffffffffffffffffffffff\n      and\n      dup2\n      mstore\n      0x20\n      add\n        /* \"contracts/w6_SupplyChainContract.sol\":8840:8855  block.timestamp */\n      timestamp\n        /* \"contracts/w6_SupplyChainContract.sol\":8682:8961  Batch({... */\n      dup2\n      mstore\n      0x20\n      add\n        /* \"contracts/w6_SupplyChainContract.sol\":8881:8886  false */\n      0x00\n        /* \"contracts/w6_SupplyChainContract.sol\":8682:8961  Batch({... */\n      iszero\n      iszero\n      dup2\n      mstore\n      0x20\n      add\n        /* \"contracts/w6_SupplyChainContract.sol\":8909:8916  BatchId */\n      dup3\n        /* \"contracts/w6_SupplyChainContract.sol\":8682:8961  Batch({... */\n      dup2\n      mstore\n      0x20\n      add\n        /* \"contracts/w6_SupplyChainContract.sol\":8941:8950  operation */\n      dup4\n        /* \"contracts/w6_SupplyChainContract.sol\":8682:8961  Batch({... */\n      dup2\n      mstore\n      pop\n        /* \"contracts/w6_SupplyChainContract.sol\":8663:8670  batches */\n      0x05\n        /* \"contracts/w6_SupplyChainContract.sol\":8663:8679  batches[BatchId] */\n      0x00\n        /* \"contracts/w6_SupplyChainContract.sol\":8671:8678  BatchId */\n      dup4\n        /* \"contracts/w6_SupplyChainContract.sol\":8663:8679  batches[BatchId] */\n      dup2\n      mstore\n      0x20\n      add\n      swap1\n      dup2\n      mstore\n      0x20\n      add\n      0x00\n      keccak256\n        /* \"contracts/w6_SupplyChainContract.sol\":8663:8961  batches[BatchId] = Batch({... */\n      0x00\n      dup3\n      add\n      mload\n      dup2\n      0x00\n      add\n      swap1\n      dup1\n      mload\n      swap1\n      0x20\n      add\n      swap1\n      tag_336\n      swap3\n      swap2\n      swap1\n      tag_337\n      jump\t// in\n    tag_336:\n      pop\n      0x20\n      dup3\n      add\n      mload\n      dup2\n      0x01\n      add\n      swap1\n      dup1\n      mload\n      swap1\n      0x20\n      add\n      swap1\n      tag_338\n      swap3\n      swap2\n      swap1\n      tag_339\n      jump\t// in\n    tag_338:\n      pop\n      0x40\n      dup3\n      add\n      mload\n      dup2\n      0x02\n      add\n      swap1\n      dup1\n      mload\n      swap1\n      0x20\n      add\n      swap1\n      tag_340\n      swap3\n      swap2\n      swap1\n      tag_339\n      jump\t// in\n    tag_340:\n      pop\n      0x60\n      dup3\n      add\n      mload\n      dup2\n      0x03\n      add\n      exp(0x0100, 0x00)\n      dup2\n      sload\n      dup2\n      0xffffffffffffffffffffffffffffffffffffffff\n      mul\n      not\n      and\n      swap1\n      dup4\n      0xffffffffffffffffffffffffffffffffffffffff\n      and\n      mul\n      or\n      swap1\n      sstore\n      pop\n      0x80\n      dup3\n      add\n      mload\n      dup2\n      0x04\n      add\n      sstore\n      0xa0\n      dup3\n      add\n      mload\n      dup2\n      0x05\n      add\n      exp(0x0100, 0x00)\n      dup2\n      sload\n      dup2\n      0xff\n      mul\n      not\n      and\n      swap1\n      dup4\n      iszero\n      iszero\n      mul\n      or\n      swap1\n      sstore\n      pop\n      0xc0\n      dup3\n      add\n      mload\n      dup2\n      0x06\n      add\n      sstore\n      0xe0\n      dup3\n      add\n      mload\n      dup2\n      0x07\n      add\n      swap1\n      dup2\n      tag_341\n      swap2\n      swap1\n      tag_266\n      jump\t// in\n    tag_341:\n      pop\n      swap1\n      pop\n      pop\n        /* \"contracts/w6_SupplyChainContract.sol\":8990:8997  BatchId */\n      dup1\n        /* \"contracts/w6_SupplyChainContract.sol\":8976:9008  BatchCreation(BatchId,operation) */\n      0x97ff4eb42b5af6ff38cafbfad77979b7fbe233bb58b2cb81eb38859456a133fd\n        /* \"contracts/w6_SupplyChainContract.sol\":8998:9007  operation */\n      dup4\n        /* \"contracts/w6_SupplyChainContract.sol\":8976:9008  BatchCreation(BatchId,operation) */\n      mload(0x40)\n      tag_342\n      swap2\n      swap1\n      tag_99\n      jump\t// in\n    tag_342:\n      mload(0x40)\n      dup1\n      swap2\n      sub\n      swap1\n      log2\n        /* \"contracts/w6_SupplyChainContract.sol\":8212:9015  {... */\n      pop\n        /* \"contracts/w6_SupplyChainContract.sol\":8060:9015  function createBatch(uint256[] memory lst_id , string[] memory lst_name, string[] memory lst_description, string memory operation) public onlyAuthorized{... */\n      pop\n      pop\n      pop\n      pop\n      jump\t// out\n    tag_337:\n      dup3\n      dup1\n      sload\n      dup3\n      dup3\n      sstore\n      swap1\n      0x00\n      mstore\n      keccak256(0x00, 0x20)\n      swap1\n      dup2\n      add\n      swap3\n      dup3\n      iszero\n      tag_343\n      jumpi\n      swap2\n      0x20\n      mul\n      dup3\n      add\n    tag_344:\n      dup3\n      dup2\n      gt\n      iszero\n      tag_345\n      jumpi\n      dup3\n      mload\n      dup3\n      sstore\n      swap2\n      0x20\n      add\n      swap2\n      swap1\n      0x01\n      add\n      swap1\n      jump(tag_344)\n    tag_345:\n    tag_343:\n      pop\n      swap1\n      pop\n      tag_346\n      swap2\n      swap1\n      tag_347\n      jump\t// in\n    tag_346:\n      pop\n      swap1\n      jump\t// out\n    tag_339:\n      dup3\n      dup1\n      sload\n      dup3\n      dup3\n      sstore\n      swap1\n      0x00\n      mstore\n      keccak256(0x00, 0x20)\n      swap1\n      dup2\n      add\n      swap3\n      dup3\n      iszero\n      tag_348\n      jumpi\n      swap2\n      0x20\n      mul\n      dup3\n      add\n    tag_349:\n      dup3\n      dup2\n      gt\n      iszero\n      tag_350\n      jumpi\n      dup3\n      mload\n      dup3\n      swap1\n      dup2\n      tag_351\n      swap2\n      swap1\n      tag_266\n      jump\t// in\n    tag_351:\n      pop\n      swap2\n      0x20\n      add\n      swap2\n      swap1\n      0x01\n      add\n      swap1\n      jump(tag_349)\n    tag_350:\n    tag_348:\n      pop\n      swap1\n      pop\n      tag_352\n      swap2\n      swap1\n      tag_353\n      jump\t// in\n    tag_352:\n      pop\n      swap1\n      jump\t// out\n    tag_347:\n    tag_354:\n      dup1\n      dup3\n      gt\n      iszero\n      tag_355\n      jumpi\n      0x00\n      dup2\n      0x00\n      swap1\n      sstore\n      pop\n      0x01\n      add\n      jump(tag_354)\n    tag_355:\n      pop\n      swap1\n      jump\t// out\n    tag_353:\n    tag_356:\n      dup1\n      dup3\n      gt\n      iszero\n      tag_357\n      jumpi\n      0x00\n      dup2\n      dup2\n      tag_358\n      swap2\n      swap1\n      tag_359\n      jump\t// in\n    tag_358:\n      pop\n      0x01\n      add\n      jump(tag_356)\n    tag_357:\n      pop\n      swap1\n      jump\t// out\n    tag_359:\n      pop\n      dup1\n      sload\n      tag_360\n      swap1\n      tag_143\n      jump\t// in\n    tag_360:\n      0x00\n      dup3\n      sstore\n      dup1\n      0x1f\n      lt\n      tag_362\n      jumpi\n      pop\n      jump(tag_361)\n    tag_362:\n      0x1f\n      add\n      0x20\n      swap1\n      div\n      swap1\n      0x00\n      mstore\n      keccak256(0x00, 0x20)\n      swap1\n      dup2\n      add\n      swap1\n      tag_363\n      swap2\n      swap1\n      tag_347\n      jump\t// in\n    tag_363:\n    tag_361:\n      pop\n      jump\t// out\n        /* \"#utility.yul\":7:82   */\n    tag_364:\n        /* \"#utility.yul\":40:46   */\n      0x00\n        /* \"#utility.yul\":73:75   */\n      0x40\n        /* \"#utility.yul\":67:76   */\n      mload\n        /* \"#utility.yul\":57:76   */\n      swap1\n      pop\n        /* \"#utility.yul\":7:82   */\n      swap1\n      jump\t// out\n        /* \"#utility.yul\":88:205   */\n    tag_365:\n        /* \"#utility.yul\":197:198   */\n      0x00\n        /* \"#utility.yul\":194:195   */\n      dup1\n        /* \"#utility.yul\":187:199   */\n      revert\n        /* \"#utility.yul\":211:328   */\n    tag_366:\n        /* \"#utility.yul\":320:321   */\n      0x00\n        /* \"#utility.yul\":317:318   */\n      dup1\n        /* \"#utility.yul\":310:322   */\n      revert\n        /* \"#utility.yul\":334:411   */\n    tag_367:\n        /* \"#utility.yul\":371:378   */\n      0x00\n        /* \"#utility.yul\":400:405   */\n      dup2\n        /* \"#utility.yul\":389:405   */\n      swap1\n      pop\n        /* \"#utility.yul\":334:411   */\n      swap2\n      swap1\n      pop\n      jump\t// out\n        /* \"#utility.yul\":417:539   */\n    tag_368:\n        /* \"#utility.yul\":490:514   */\n      tag_478\n        /* \"#utility.yul\":508:513   */\n      dup2\n        /* \"#utility.yul\":490:514   */\n      tag_367\n      jump\t// in\n    tag_478:\n        /* \"#utility.yul\":483:488   */\n      dup2\n        /* \"#utility.yul\":480:515   */\n      eq\n        /* \"#utility.yul\":470:533   */\n      tag_479\n      jumpi\n        /* \"#utility.yul\":529:530   */\n      0x00\n        /* \"#utility.yul\":526:527   */\n      dup1\n        /* \"#utility.yul\":519:531   */\n      revert\n        /* \"#utility.yul\":470:533   */\n    tag_479:\n        /* \"#utility.yul\":417:539   */\n      pop\n      jump\t// out\n        /* \"#utility.yul\":545:684   */\n    tag_369:\n        /* \"#utility.yul\":591:596   */\n      0x00\n        /* \"#utility.yul\":629:635   */\n      dup2\n        /* \"#utility.yul\":616:636   */\n      calldataload\n        /* \"#utility.yul\":607:636   */\n      swap1\n      pop\n        /* \"#utility.yul\":645:678   */\n      tag_481\n        /* \"#utility.yul\":672:677   */\n      dup2\n        /* \"#utility.yul\":645:678   */\n      tag_368\n      jump\t// in\n    tag_481:\n        /* \"#utility.yul\":545:684   */\n      swap3\n      swap2\n      pop\n      pop\n      jump\t// out\n        /* \"#utility.yul\":690:807   */\n    tag_370:\n        /* \"#utility.yul\":799:800   */\n      0x00\n        /* \"#utility.yul\":796:797   */\n      dup1\n        /* \"#utility.yul\":789:801   */\n      revert\n        /* \"#utility.yul\":813:930   */\n    tag_371:\n        /* \"#utility.yul\":922:923   */\n      0x00\n        /* \"#utility.yul\":919:920   */\n      dup1\n        /* \"#utility.yul\":912:924   */\n      revert\n        /* \"#utility.yul\":936:1038   */\n    tag_372:\n        /* \"#utility.yul\":977:983   */\n      0x00\n        /* \"#utility.yul\":1028:1030   */\n      0x1f\n        /* \"#utility.yul\":1024:1031   */\n      not\n        /* \"#utility.yul\":1019:1021   */\n      0x1f\n        /* \"#utility.yul\":1012:1017   */\n      dup4\n        /* \"#utility.yul\":1008:1022   */\n      add\n        /* \"#utility.yul\":1004:1032   */\n      and\n        /* \"#utility.yul\":994:1032   */\n      swap1\n      pop\n        /* \"#utility.yul\":936:1038   */\n      swap2\n      swap1\n      pop\n      jump\t// out\n        /* \"#utility.yul\":1044:1224   */\n    tag_373:\n        /* \"#utility.yul\":1092:1169   */\n      0x4e487b7100000000000000000000000000000000000000000000000000000000\n        /* \"#utility.yul\":1089:1090   */\n      0x00\n        /* \"#utility.yul\":1082:1170   */\n      mstore\n        /* \"#utility.yul\":1189:1193   */\n      0x41\n        /* \"#utility.yul\":1186:1187   */\n      0x04\n        /* \"#utility.yul\":1179:1194   */\n      mstore\n        /* \"#utility.yul\":1213:1217   */\n      0x24\n        /* \"#utility.yul\":1210:1211   */\n      0x00\n        /* \"#utility.yul\":1203:1218   */\n      revert\n        /* \"#utility.yul\":1230:1511   */\n    tag_374:\n        /* \"#utility.yul\":1313:1340   */\n      tag_487\n        /* \"#utility.yul\":1335:1339   */\n      dup3\n        /* \"#utility.yul\":1313:1340   */\n      tag_372\n      jump\t// in\n    tag_487:\n        /* \"#utility.yul\":1305:1311   */\n      dup2\n        /* \"#utility.yul\":1301:1341   */\n      add\n        /* \"#utility.yul\":1443:1449   */\n      dup2\n        /* \"#utility.yul\":1431:1441   */\n      dup2\n        /* \"#utility.yul\":1428:1450   */\n      lt\n        /* \"#utility.yul\":1407:1425   */\n      0xffffffffffffffff\n        /* \"#utility.yul\":1395:1405   */\n      dup3\n        /* \"#utility.yul\":1392:1426   */\n      gt\n        /* \"#utility.yul\":1389:1451   */\n      or\n        /* \"#utility.yul\":1386:1474   */\n      iszero\n      tag_488\n      jumpi\n        /* \"#utility.yul\":1454:1472   */\n      tag_489\n      tag_373\n      jump\t// in\n    tag_489:\n        /* \"#utility.yul\":1386:1474   */\n    tag_488:\n        /* \"#utility.yul\":1494:1504   */\n      dup1\n        /* \"#utility.yul\":1490:1492   */\n      0x40\n        /* \"#utility.yul\":1483:1505   */\n      mstore\n        /* \"#utility.yul\":1273:1511   */\n      pop\n        /* \"#utility.yul\":1230:1511   */\n      pop\n      pop\n      jump\t// out\n        /* \"#utility.yul\":1517:1646   */\n    tag_375:\n        /* \"#utility.yul\":1551:1557   */\n      0x00\n        /* \"#utility.yul\":1578:1598   */\n      tag_491\n      tag_364\n      jump\t// in\n    tag_491:\n        /* \"#utility.yul\":1568:1598   */\n      swap1\n      pop\n        /* \"#utility.yul\":1607:1640   */\n      tag_492\n        /* \"#utility.yul\":1635:1639   */\n      dup3\n        /* \"#utility.yul\":1627:1633   */\n      dup3\n        /* \"#utility.yul\":1607:1640   */\n      tag_374\n      jump\t// in\n    tag_492:\n        /* \"#utility.yul\":1517:1646   */\n      swap2\n      swap1\n      pop\n      jump\t// out\n        /* \"#utility.yul\":1652:1960   */\n    tag_376:\n        /* \"#utility.yul\":1714:1718   */\n      0x00\n        /* \"#utility.yul\":1804:1822   */\n      0xffffffffffffffff\n        /* \"#utility.yul\":1796:1802   */\n      dup3\n        /* \"#utility.yul\":1793:1823   */\n      gt\n        /* \"#utility.yul\":1790:1846   */\n      iszero\n      tag_494\n      jumpi\n        /* \"#utility.yul\":1826:1844   */\n      tag_495\n      tag_373\n      jump\t// in\n    tag_495:\n        /* \"#utility.yul\":1790:1846   */\n    tag_494:\n        /* \"#utility.yul\":1864:1893   */\n      tag_496\n        /* \"#utility.yul\":1886:1892   */\n      dup3\n        /* \"#utility.yul\":1864:1893   */\n      tag_372\n      jump\t// in\n    tag_496:\n        /* \"#utility.yul\":1856:1893   */\n      swap1\n      pop\n        /* \"#utility.yul\":1948:1952   */\n      0x20\n        /* \"#utility.yul\":1942:1946   */\n      dup2\n        /* \"#utility.yul\":1938:1953   */\n      add\n        /* \"#utility.yul\":1930:1953   */\n      swap1\n      pop\n        /* \"#utility.yul\":1652:1960   */\n      swap2\n      swap1\n      pop\n      jump\t// out\n        /* \"#utility.yul\":1966:2114   */\n    tag_377:\n        /* \"#utility.yul\":2064:2070   */\n      dup3\n        /* \"#utility.yul\":2059:2062   */\n      dup2\n        /* \"#utility.yul\":2054:2057   */\n      dup4\n        /* \"#utility.yul\":2041:2071   */\n      calldatacopy\n        /* \"#utility.yul\":2105:2106   */\n      0x00\n        /* \"#utility.yul\":2096:2102   */\n      dup4\n        /* \"#utility.yul\":2091:2094   */\n      dup4\n        /* \"#utility.yul\":2087:2103   */\n      add\n        /* \"#utility.yul\":2080:2107   */\n      mstore\n        /* \"#utility.yul\":1966:2114   */\n      pop\n      pop\n      pop\n      jump\t// out\n        /* \"#utility.yul\":2120:2545   */\n    tag_378:\n        /* \"#utility.yul\":2198:2203   */\n      0x00\n        /* \"#utility.yul\":2223:2289   */\n      tag_499\n        /* \"#utility.yul\":2239:2288   */\n      tag_500\n        /* \"#utility.yul\":2281:2287   */\n      dup5\n        /* \"#utility.yul\":2239:2288   */\n      tag_376\n      jump\t// in\n    tag_500:\n        /* \"#utility.yul\":2223:2289   */\n      tag_375\n      jump\t// in\n    tag_499:\n        /* \"#utility.yul\":2214:2289   */\n      swap1\n      pop\n        /* \"#utility.yul\":2312:2318   */\n      dup3\n        /* \"#utility.yul\":2305:2310   */\n      dup2\n        /* \"#utility.yul\":2298:2319   */\n      mstore\n        /* \"#utility.yul\":2350:2354   */\n      0x20\n        /* \"#utility.yul\":2343:2348   */\n      dup2\n        /* \"#utility.yul\":2339:2355   */\n      add\n        /* \"#utility.yul\":2388:2391   */\n      dup5\n        /* \"#utility.yul\":2379:2385   */\n      dup5\n        /* \"#utility.yul\":2374:2377   */\n      dup5\n        /* \"#utility.yul\":2370:2386   */\n      add\n        /* \"#utility.yul\":2367:2392   */\n      gt\n        /* \"#utility.yul\":2364:2476   */\n      iszero\n      tag_501\n      jumpi\n        /* \"#utility.yul\":2395:2474   */\n      tag_502\n      tag_371\n      jump\t// in\n    tag_502:\n        /* \"#utility.yul\":2364:2476   */\n    tag_501:\n        /* \"#utility.yul\":2485:2539   */\n      tag_503\n        /* \"#utility.yul\":2532:2538   */\n      dup5\n        /* \"#utility.yul\":2527:2530   */\n      dup3\n        /* \"#utility.yul\":2522:2525   */\n      dup6\n        /* \"#utility.yul\":2485:2539   */\n      tag_377\n      jump\t// in\n    tag_503:\n        /* \"#utility.yul\":2204:2545   */\n      pop\n        /* \"#utility.yul\":2120:2545   */\n      swap4\n      swap3\n      pop\n      pop\n      pop\n      jump\t// out\n        /* \"#utility.yul\":2565:2905   */\n    tag_379:\n        /* \"#utility.yul\":2621:2626   */\n      0x00\n        /* \"#utility.yul\":2670:2673   */\n      dup3\n        /* \"#utility.yul\":2663:2667   */\n      0x1f\n        /* \"#utility.yul\":2655:2661   */\n      dup4\n        /* \"#utility.yul\":2651:2668   */\n      add\n        /* \"#utility.yul\":2647:2674   */\n      slt\n        /* \"#utility.yul\":2637:2759   */\n      tag_505\n      jumpi\n        /* \"#utility.yul\":2678:2757   */\n      tag_506\n      tag_370\n      jump\t// in\n    tag_506:\n        /* \"#utility.yul\":2637:2759   */\n    tag_505:\n        /* \"#utility.yul\":2795:2801   */\n      dup2\n        /* \"#utility.yul\":2782:2802   */\n      calldataload\n        /* \"#utility.yul\":2820:2899   */\n      tag_507\n        /* \"#utility.yul\":2895:2898   */\n      dup5\n        /* \"#utility.yul\":2887:2893   */\n      dup3\n        /* \"#utility.yul\":2880:2884   */\n      0x20\n        /* \"#utility.yul\":2872:2878   */\n      dup7\n        /* \"#utility.yul\":2868:2885   */\n      add\n        /* \"#utility.yul\":2820:2899   */\n      tag_378\n      jump\t// in\n    tag_507:\n        /* \"#utility.yul\":2811:2899   */\n      swap2\n      pop\n        /* \"#utility.yul\":2627:2905   */\n      pop\n        /* \"#utility.yul\":2565:2905   */\n      swap3\n      swap2\n      pop\n      pop\n      jump\t// out\n        /* \"#utility.yul\":2911:3565   */\n    tag_28:\n        /* \"#utility.yul\":2989:2995   */\n      0x00\n        /* \"#utility.yul\":2997:3003   */\n      dup1\n        /* \"#utility.yul\":3046:3048   */\n      0x40\n        /* \"#utility.yul\":3034:3043   */\n      dup4\n        /* \"#utility.yul\":3025:3032   */\n      dup6\n        /* \"#utility.yul\":3021:3044   */\n      sub\n        /* \"#utility.yul\":3017:3049   */\n      slt\n        /* \"#utility.yul\":3014:3133   */\n      iszero\n      tag_509\n      jumpi\n        /* \"#utility.yul\":3052:3131   */\n      tag_510\n      tag_365\n      jump\t// in\n    tag_510:\n        /* \"#utility.yul\":3014:3133   */\n    tag_509:\n        /* \"#utility.yul\":3172:3173   */\n      0x00\n        /* \"#utility.yul\":3197:3250   */\n      tag_511\n        /* \"#utility.yul\":3242:3249   */\n      dup6\n        /* \"#utility.yul\":3233:3239   */\n      dup3\n        /* \"#utility.yul\":3222:3231   */\n      dup7\n        /* \"#utility.yul\":3218:3240   */\n      add\n        /* \"#utility.yul\":3197:3250   */\n      tag_369\n      jump\t// in\n    tag_511:\n        /* \"#utility.yul\":3187:3250   */\n      swap3\n      pop\n        /* \"#utility.yul\":3143:3260   */\n      pop\n        /* \"#utility.yul\":3327:3329   */\n      0x20\n        /* \"#utility.yul\":3316:3325   */\n      dup4\n        /* \"#utility.yul\":3312:3330   */\n      add\n        /* \"#utility.yul\":3299:3331   */\n      calldataload\n        /* \"#utility.yul\":3358:3376   */\n      0xffffffffffffffff\n        /* \"#utility.yul\":3350:3356   */\n      dup2\n        /* \"#utility.yul\":3347:3377   */\n      gt\n        /* \"#utility.yul\":3344:3461   */\n      iszero\n      tag_512\n      jumpi\n        /* \"#utility.yul\":3380:3459   */\n      tag_513\n      tag_366\n      jump\t// in\n    tag_513:\n        /* \"#utility.yul\":3344:3461   */\n    tag_512:\n        /* \"#utility.yul\":3485:3548   */\n      tag_514\n        /* \"#utility.yul\":3540:3547   */\n      dup6\n        /* \"#utility.yul\":3531:3537   */\n      dup3\n        /* \"#utility.yul\":3520:3529   */\n      dup7\n        /* \"#utility.yul\":3516:3538   */\n      add\n        /* \"#utility.yul\":3485:3548   */\n      tag_379\n      jump\t// in\n    tag_514:\n        /* \"#utility.yul\":3475:3548   */\n      swap2\n      pop\n        /* \"#utility.yul\":3270:3558   */\n      pop\n        /* \"#utility.yul\":2911:3565   */\n      swap3\n      pop\n      swap3\n      swap1\n      pop\n      jump\t// out\n        /* \"#utility.yul\":3571:3689   */\n    tag_380:\n        /* \"#utility.yul\":3658:3682   */\n      tag_516\n        /* \"#utility.yul\":3676:3681   */\n      dup2\n        /* \"#utility.yul\":3658:3682   */\n      tag_367\n      jump\t// in\n    tag_516:\n        /* \"#utility.yul\":3653:3656   */\n      dup3\n        /* \"#utility.yul\":3646:3683   */\n      mstore\n        /* \"#utility.yul\":3571:3689   */\n      pop\n      pop\n      jump\t// out\n        /* \"#utility.yul\":3695:3917   */\n    tag_33:\n        /* \"#utility.yul\":3788:3792   */\n      0x00\n        /* \"#utility.yul\":3826:3828   */\n      0x20\n        /* \"#utility.yul\":3815:3824   */\n      dup3\n        /* \"#utility.yul\":3811:3829   */\n      add\n        /* \"#utility.yul\":3803:3829   */\n      swap1\n      pop\n        /* \"#utility.yul\":3839:3910   */\n      tag_518\n        /* \"#utility.yul\":3907:3908   */\n      0x00\n        /* \"#utility.yul\":3896:3905   */\n      dup4\n        /* \"#utility.yul\":3892:3909   */\n      add\n        /* \"#utility.yul\":3883:3889   */\n      dup5\n        /* \"#utility.yul\":3839:3910   */\n      tag_380\n      jump\t// in\n    tag_518:\n        /* \"#utility.yul\":3695:3917   */\n      swap3\n      swap2\n      pop\n      pop\n      jump\t// out\n        /* \"#utility.yul\":3923:4049   */\n    tag_381:\n        /* \"#utility.yul\":3960:3967   */\n      0x00\n        /* \"#utility.yul\":4000:4042   */\n      0xffffffffffffffffffffffffffffffffffffffff\n        /* \"#utility.yul\":3993:3998   */\n      dup3\n        /* \"#utility.yul\":3989:4043   */\n      and\n        /* \"#utility.yul\":3978:4043   */\n      swap1\n      pop\n        /* \"#utility.yul\":3923:4049   */\n      swap2\n      swap1\n      pop\n      jump\t// out\n        /* \"#utility.yul\":4055:4151   */\n    tag_382:\n        /* \"#utility.yul\":4092:4099   */\n      0x00\n        /* \"#utility.yul\":4121:4145   */\n      tag_521\n        /* \"#utility.yul\":4139:4144   */\n      dup3\n        /* \"#utility.yul\":4121:4145   */\n      tag_381\n      jump\t// in\n    tag_521:\n        /* \"#utility.yul\":4110:4145   */\n      swap1\n      pop\n        /* \"#utility.yul\":4055:4151   */\n      swap2\n      swap1\n      pop\n      jump\t// out\n        /* \"#utility.yul\":4157:4279   */\n    tag_383:\n        /* \"#utility.yul\":4230:4254   */\n      tag_523\n        /* \"#utility.yul\":4248:4253   */\n      dup2\n        /* \"#utility.yul\":4230:4254   */\n      tag_382\n      jump\t// in\n    tag_523:\n        /* \"#utility.yul\":4223:4228   */\n      dup2\n        /* \"#utility.yul\":4220:4255   */\n      eq\n        /* \"#utility.yul\":4210:4273   */\n      tag_524\n      jumpi\n        /* \"#utility.yul\":4269:4270   */\n      0x00\n        /* \"#utility.yul\":4266:4267   */\n      dup1\n        /* \"#utility.yul\":4259:4271   */\n      revert\n        /* \"#utility.yul\":4210:4273   */\n    tag_524:\n        /* \"#utility.yul\":4157:4279   */\n      pop\n      jump\t// out\n        /* \"#utility.yul\":4285:4424   */\n    tag_384:\n        /* \"#utility.yul\":4331:4336   */\n      0x00\n        /* \"#utility.yul\":4369:4375   */\n      dup2\n        /* \"#utility.yul\":4356:4376   */\n      calldataload\n        /* \"#utility.yul\":4347:4376   */\n      swap1\n      pop\n        /* \"#utility.yul\":4385:4418   */\n      tag_526\n        /* \"#utility.yul\":4412:4417   */\n      dup2\n        /* \"#utility.yul\":4385:4418   */\n      tag_383\n      jump\t// in\n    tag_526:\n        /* \"#utility.yul\":4285:4424   */\n      swap3\n      swap2\n      pop\n      pop\n      jump\t// out\n        /* \"#utility.yul\":4430:5375   */\n    tag_36:\n        /* \"#utility.yul\":4526:4532   */\n      0x00\n        /* \"#utility.yul\":4534:4540   */\n      dup1\n        /* \"#utility.yul\":4542:4548   */\n      0x00\n        /* \"#utility.yul\":4550:4556   */\n      dup1\n        /* \"#utility.yul\":4599:4602   */\n      0x80\n        /* \"#utility.yul\":4587:4596   */\n      dup6\n        /* \"#utility.yul\":4578:4585   */\n      dup8\n        /* \"#utility.yul\":4574:4597   */\n      sub\n        /* \"#utility.yul\":4570:4603   */\n      slt\n        /* \"#utility.yul\":4567:4687   */\n      iszero\n      tag_528\n      jumpi\n        /* \"#utility.yul\":4606:4685   */\n      tag_529\n      tag_365\n      jump\t// in\n    tag_529:\n        /* \"#utility.yul\":4567:4687   */\n    tag_528:\n        /* \"#utility.yul\":4726:4727   */\n      0x00\n        /* \"#utility.yul\":4751:4804   */\n      tag_530\n        /* \"#utility.yul\":4796:4803   */\n      dup8\n        /* \"#utility.yul\":4787:4793   */\n      dup3\n        /* \"#utility.yul\":4776:4785   */\n      dup9\n        /* \"#utility.yul\":4772:4794   */\n      add\n        /* \"#utility.yul\":4751:4804   */\n      tag_369\n      jump\t// in\n    tag_530:\n        /* \"#utility.yul\":4741:4804   */\n      swap5\n      pop\n        /* \"#utility.yul\":4697:4814   */\n      pop\n        /* \"#utility.yul\":4853:4855   */\n      0x20\n        /* \"#utility.yul\":4879:4932   */\n      tag_531\n        /* \"#utility.yul\":4924:4931   */\n      dup8\n        /* \"#utility.yul\":4915:4921   */\n      dup3\n        /* \"#utility.yul\":4904:4913   */\n      dup9\n        /* \"#utility.yul\":4900:4922   */\n      add\n        /* \"#utility.yul\":4879:4932   */\n      tag_384\n      jump\t// in\n    tag_531:\n        /* \"#utility.yul\":4869:4932   */\n      swap4\n      pop\n        /* \"#utility.yul\":4824:4942   */\n      pop\n        /* \"#utility.yul\":4981:4983   */\n      0x40\n        /* \"#utility.yul\":5007:5060   */\n      tag_532\n        /* \"#utility.yul\":5052:5059   */\n      dup8\n        /* \"#utility.yul\":5043:5049   */\n      dup3\n        /* \"#utility.yul\":5032:5041   */\n      dup9\n        /* \"#utility.yul\":5028:5050   */\n      add\n        /* \"#utility.yul\":5007:5060   */\n      tag_369\n      jump\t// in\n    tag_532:\n        /* \"#utility.yul\":4997:5060   */\n      swap3\n      pop\n        /* \"#utility.yul\":4952:5070   */\n      pop\n        /* \"#utility.yul\":5137:5139   */\n      0x60\n        /* \"#utility.yul\":5126:5135   */\n      dup6\n        /* \"#utility.yul\":5122:5140   */\n      add\n        /* \"#utility.yul\":5109:5141   */\n      calldataload\n        /* \"#utility.yul\":5168:5186   */\n      0xffffffffffffffff\n        /* \"#utility.yul\":5160:5166   */\n      dup2\n        /* \"#utility.yul\":5157:5187   */\n      gt\n        /* \"#utility.yul\":5154:5271   */\n      iszero\n      tag_533\n      jumpi\n        /* \"#utility.yul\":5190:5269   */\n      tag_534\n      tag_366\n      jump\t// in\n    tag_534:\n        /* \"#utility.yul\":5154:5271   */\n    tag_533:\n        /* \"#utility.yul\":5295:5358   */\n      tag_535\n        /* \"#utility.yul\":5350:5357   */\n      dup8\n        /* \"#utility.yul\":5341:5347   */\n      dup3\n        /* \"#utility.yul\":5330:5339   */\n      dup9\n        /* \"#utility.yul\":5326:5348   */\n      add\n        /* \"#utility.yul\":5295:5358   */\n      tag_379\n      jump\t// in\n    tag_535:\n        /* \"#utility.yul\":5285:5358   */\n      swap2\n      pop\n        /* \"#utility.yul\":5080:5368   */\n      pop\n        /* \"#utility.yul\":4430:5375   */\n      swap3\n      swap6\n      swap2\n      swap5\n      pop\n      swap3\n      pop\n      jump\t// out\n        /* \"#utility.yul\":5381:5710   */\n    tag_40:\n        /* \"#utility.yul\":5440:5446   */\n      0x00\n        /* \"#utility.yul\":5489:5491   */\n      0x20\n        /* \"#utility.yul\":5477:5486   */\n      dup3\n        /* \"#utility.yul\":5468:5475   */\n      dup5\n        /* \"#utility.yul\":5464:5487   */\n      sub\n        /* \"#utility.yul\":5460:5492   */\n      slt\n        /* \"#utility.yul\":5457:5576   */\n      iszero\n      tag_537\n      jumpi\n        /* \"#utility.yul\":5495:5574   */\n      tag_538\n      tag_365\n      jump\t// in\n    tag_538:\n        /* \"#utility.yul\":5457:5576   */\n    tag_537:\n        /* \"#utility.yul\":5615:5616   */\n      0x00\n        /* \"#utility.yul\":5640:5693   */\n      tag_539\n        /* \"#utility.yul\":5685:5692   */\n      dup5\n        /* \"#utility.yul\":5676:5682   */\n      dup3\n        /* \"#utility.yul\":5665:5674   */\n      dup6\n        /* \"#utility.yul\":5661:5683   */\n      add\n        /* \"#utility.yul\":5640:5693   */\n      tag_369\n      jump\t// in\n    tag_539:\n        /* \"#utility.yul\":5630:5693   */\n      swap2\n      pop\n        /* \"#utility.yul\":5586:5703   */\n      pop\n        /* \"#utility.yul\":5381:5710   */\n      swap3\n      swap2\n      pop\n      pop\n      jump\t// out\n        /* \"#utility.yul\":5716:5806   */\n    tag_385:\n        /* \"#utility.yul\":5750:5757   */\n      0x00\n        /* \"#utility.yul\":5793:5798   */\n      dup2\n        /* \"#utility.yul\":5786:5799   */\n      iszero\n        /* \"#utility.yul\":5779:5800   */\n      iszero\n        /* \"#utility.yul\":5768:5800   */\n      swap1\n      pop\n        /* \"#utility.yul\":5716:5806   */\n      swap2\n      swap1\n      pop\n      jump\t// out\n        /* \"#utility.yul\":5812:5921   */\n    tag_386:\n        /* \"#utility.yul\":5893:5914   */\n      tag_542\n        /* \"#utility.yul\":5908:5913   */\n      dup2\n        /* \"#utility.yul\":5893:5914   */\n      tag_385\n      jump\t// in\n    tag_542:\n        /* \"#utility.yul\":5888:5891   */\n      dup3\n        /* \"#utility.yul\":5881:5915   */\n      mstore\n        /* \"#utility.yul\":5812:5921   */\n      pop\n      pop\n      jump\t// out\n        /* \"#utility.yul\":5927:6137   */\n    tag_43:\n        /* \"#utility.yul\":6014:6018   */\n      0x00\n        /* \"#utility.yul\":6052:6054   */\n      0x20\n        /* \"#utility.yul\":6041:6050   */\n      dup3\n        /* \"#utility.yul\":6037:6055   */\n      add\n        /* \"#utility.yul\":6029:6055   */\n      swap1\n      pop\n        /* \"#utility.yul\":6065:6130   */\n      tag_544\n        /* \"#utility.yul\":6127:6128   */\n      0x00\n        /* \"#utility.yul\":6116:6125   */\n      dup4\n        /* \"#utility.yul\":6112:6129   */\n      add\n        /* \"#utility.yul\":6103:6109   */\n      dup5\n        /* \"#utility.yul\":6065:6130   */\n      tag_386\n      jump\t// in\n    tag_544:\n        /* \"#utility.yul\":5927:6137   */\n      swap3\n      swap2\n      pop\n      pop\n      jump\t// out\n        /* \"#utility.yul\":6143:6257   */\n    tag_387:\n        /* \"#utility.yul\":6210:6216   */\n      0x00\n        /* \"#utility.yul\":6244:6249   */\n      dup2\n        /* \"#utility.yul\":6238:6250   */\n      mload\n        /* \"#utility.yul\":6228:6250   */\n      swap1\n      pop\n        /* \"#utility.yul\":6143:6257   */\n      swap2\n      swap1\n      pop\n      jump\t// out\n        /* \"#utility.yul\":6263:6447   */\n    tag_388:\n        /* \"#utility.yul\":6362:6373   */\n      0x00\n        /* \"#utility.yul\":6396:6402   */\n      dup3\n        /* \"#utility.yul\":6391:6394   */\n      dup3\n        /* \"#utility.yul\":6384:6403   */\n      mstore\n        /* \"#utility.yul\":6436:6440   */\n      0x20\n        /* \"#utility.yul\":6431:6434   */\n      dup3\n        /* \"#utility.yul\":6427:6441   */\n      add\n        /* \"#utility.yul\":6412:6441   */\n      swap1\n      pop\n        /* \"#utility.yul\":6263:6447   */\n      swap3\n      swap2\n      pop\n      pop\n      jump\t// out\n        /* \"#utility.yul\":6453:6585   */\n    tag_389:\n        /* \"#utility.yul\":6520:6524   */\n      0x00\n        /* \"#utility.yul\":6543:6546   */\n      dup2\n        /* \"#utility.yul\":6535:6546   */\n      swap1\n      pop\n        /* \"#utility.yul\":6573:6577   */\n      0x20\n        /* \"#utility.yul\":6568:6571   */\n      dup3\n        /* \"#utility.yul\":6564:6578   */\n      add\n        /* \"#utility.yul\":6556:6578   */\n      swap1\n      pop\n        /* \"#utility.yul\":6453:6585   */\n      swap2\n      swap1\n      pop\n      jump\t// out\n        /* \"#utility.yul\":6591:6699   */\n    tag_390:\n        /* \"#utility.yul\":6668:6692   */\n      tag_549\n        /* \"#utility.yul\":6686:6691   */\n      dup2\n        /* \"#utility.yul\":6668:6692   */\n      tag_367\n      jump\t// in\n    tag_549:\n        /* \"#utility.yul\":6663:6666   */\n      dup3\n        /* \"#utility.yul\":6656:6693   */\n      mstore\n        /* \"#utility.yul\":6591:6699   */\n      pop\n      pop\n      jump\t// out\n        /* \"#utility.yul\":6705:6884   */\n    tag_391:\n        /* \"#utility.yul\":6774:6784   */\n      0x00\n        /* \"#utility.yul\":6795:6841   */\n      tag_551\n        /* \"#utility.yul\":6837:6840   */\n      dup4\n        /* \"#utility.yul\":6829:6835   */\n      dup4\n        /* \"#utility.yul\":6795:6841   */\n      tag_390\n      jump\t// in\n    tag_551:\n        /* \"#utility.yul\":6873:6877   */\n      0x20\n        /* \"#utility.yul\":6868:6871   */\n      dup4\n        /* \"#utility.yul\":6864:6878   */\n      add\n        /* \"#utility.yul\":6850:6878   */\n      swap1\n      pop\n        /* \"#utility.yul\":6705:6884   */\n      swap3\n      swap2\n      pop\n      pop\n      jump\t// out\n        /* \"#utility.yul\":6890:7003   */\n    tag_392:\n        /* \"#utility.yul\":6960:6964   */\n      0x00\n        /* \"#utility.yul\":6992:6996   */\n      0x20\n        /* \"#utility.yul\":6987:6990   */\n      dup3\n        /* \"#utility.yul\":6983:6997   */\n      add\n        /* \"#utility.yul\":6975:6997   */\n      swap1\n      pop\n        /* \"#utility.yul\":6890:7003   */\n      swap2\n      swap1\n      pop\n      jump\t// out\n        /* \"#utility.yul\":7039:7771   */\n    tag_393:\n        /* \"#utility.yul\":7158:7161   */\n      0x00\n        /* \"#utility.yul\":7187:7241   */\n      tag_554\n        /* \"#utility.yul\":7235:7240   */\n      dup3\n        /* \"#utility.yul\":7187:7241   */\n      tag_387\n      jump\t// in\n    tag_554:\n        /* \"#utility.yul\":7257:7343   */\n      tag_555\n        /* \"#utility.yul\":7336:7342   */\n      dup2\n        /* \"#utility.yul\":7331:7334   */\n      dup6\n        /* \"#utility.yul\":7257:7343   */\n      tag_388\n      jump\t// in\n    tag_555:\n        /* \"#utility.yul\":7250:7343   */\n      swap4\n      pop\n        /* \"#utility.yul\":7367:7423   */\n      tag_556\n        /* \"#utility.yul\":7417:7422   */\n      dup4\n        /* \"#utility.yul\":7367:7423   */\n      tag_389\n      jump\t// in\n    tag_556:\n        /* \"#utility.yul\":7446:7453   */\n      dup1\n        /* \"#utility.yul\":7477:7478   */\n      0x00\n        /* \"#utility.yul\":7462:7746   */\n    tag_557:\n        /* \"#utility.yul\":7487:7493   */\n      dup4\n        /* \"#utility.yul\":7484:7485   */\n      dup2\n        /* \"#utility.yul\":7481:7494   */\n      lt\n        /* \"#utility.yul\":7462:7746   */\n      iszero\n      tag_559\n      jumpi\n        /* \"#utility.yul\":7563:7569   */\n      dup2\n        /* \"#utility.yul\":7557:7570   */\n      mload\n        /* \"#utility.yul\":7590:7653   */\n      tag_560\n        /* \"#utility.yul\":7649:7652   */\n      dup9\n        /* \"#utility.yul\":7634:7647   */\n      dup3\n        /* \"#utility.yul\":7590:7653   */\n      tag_391\n      jump\t// in\n    tag_560:\n        /* \"#utility.yul\":7583:7653   */\n      swap8\n      pop\n        /* \"#utility.yul\":7676:7736   */\n      tag_561\n        /* \"#utility.yul\":7729:7735   */\n      dup4\n        /* \"#utility.yul\":7676:7736   */\n      tag_392\n      jump\t// in\n    tag_561:\n        /* \"#utility.yul\":7666:7736   */\n      swap3\n      pop\n        /* \"#utility.yul\":7522:7746   */\n      pop\n        /* \"#utility.yul\":7509:7510   */\n      0x01\n        /* \"#utility.yul\":7506:7507   */\n      dup2\n        /* \"#utility.yul\":7502:7511   */\n      add\n        /* \"#utility.yul\":7497:7511   */\n      swap1\n      pop\n        /* \"#utility.yul\":7462:7746   */\n      jump(tag_557)\n    tag_559:\n        /* \"#utility.yul\":7466:7480   */\n      pop\n        /* \"#utility.yul\":7762:7765   */\n      dup6\n        /* \"#utility.yul\":7755:7765   */\n      swap4\n      pop\n        /* \"#utility.yul\":7163:7771   */\n      pop\n      pop\n      pop\n        /* \"#utility.yul\":7039:7771   */\n      swap3\n      swap2\n      pop\n      pop\n      jump\t// out\n        /* \"#utility.yul\":7777:7901   */\n    tag_394:\n        /* \"#utility.yul\":7854:7860   */\n      0x00\n        /* \"#utility.yul\":7888:7893   */\n      dup2\n        /* \"#utility.yul\":7882:7894   */\n      mload\n        /* \"#utility.yul\":7872:7894   */\n      swap1\n      pop\n        /* \"#utility.yul\":7777:7901   */\n      swap2\n      swap1\n      pop\n      jump\t// out\n        /* \"#utility.yul\":7907:8101   */\n    tag_395:\n        /* \"#utility.yul\":8016:8027   */\n      0x00\n        /* \"#utility.yul\":8050:8056   */\n      dup3\n        /* \"#utility.yul\":8045:8048   */\n      dup3\n        /* \"#utility.yul\":8038:8057   */\n      mstore\n        /* \"#utility.yul\":8090:8094   */\n      0x20\n        /* \"#utility.yul\":8085:8088   */\n      dup3\n        /* \"#utility.yul\":8081:8095   */\n      add\n        /* \"#utility.yul\":8066:8095   */\n      swap1\n      pop\n        /* \"#utility.yul\":7907:8101   */\n      swap3\n      swap2\n      pop\n      pop\n      jump\t// out\n        /* \"#utility.yul\":8107:8249   */\n    tag_396:\n        /* \"#utility.yul\":8184:8188   */\n      0x00\n        /* \"#utility.yul\":8207:8210   */\n      dup2\n        /* \"#utility.yul\":8199:8210   */\n      swap1\n      pop\n        /* \"#utility.yul\":8237:8241   */\n      0x20\n        /* \"#utility.yul\":8232:8235   */\n      dup3\n        /* \"#utility.yul\":8228:8242   */\n      add\n        /* \"#utility.yul\":8220:8242   */\n      swap1\n      pop\n        /* \"#utility.yul\":8107:8249   */\n      swap2\n      swap1\n      pop\n      jump\t// out\n        /* \"#utility.yul\":8255:8354   */\n    tag_397:\n        /* \"#utility.yul\":8307:8313   */\n      0x00\n        /* \"#utility.yul\":8341:8346   */\n      dup2\n        /* \"#utility.yul\":8335:8347   */\n      mload\n        /* \"#utility.yul\":8325:8347   */\n      swap1\n      pop\n        /* \"#utility.yul\":8255:8354   */\n      swap2\n      swap1\n      pop\n      jump\t// out\n        /* \"#utility.yul\":8360:8519   */\n    tag_398:\n        /* \"#utility.yul\":8434:8445   */\n      0x00\n        /* \"#utility.yul\":8468:8474   */\n      dup3\n        /* \"#utility.yul\":8463:8466   */\n      dup3\n        /* \"#utility.yul\":8456:8475   */\n      mstore\n        /* \"#utility.yul\":8508:8512   */\n      0x20\n        /* \"#utility.yul\":8503:8506   */\n      dup3\n        /* \"#utility.yul\":8499:8513   */\n      add\n        /* \"#utility.yul\":8484:8513   */\n      swap1\n      pop\n        /* \"#utility.yul\":8360:8519   */\n      swap3\n      swap2\n      pop\n      pop\n      jump\t// out\n        /* \"#utility.yul\":8525:8664   */\n    tag_399:\n        /* \"#utility.yul\":8614:8620   */\n      dup3\n        /* \"#utility.yul\":8609:8612   */\n      dup2\n        /* \"#utility.yul\":8604:8607   */\n      dup4\n        /* \"#utility.yul\":8598:8621   */\n      mcopy\n        /* \"#utility.yul\":8655:8656   */\n      0x00\n        /* \"#utility.yul\":8646:8652   */\n      dup4\n        /* \"#utility.yul\":8641:8644   */\n      dup4\n        /* \"#utility.yul\":8637:8653   */\n      add\n        /* \"#utility.yul\":8630:8657   */\n      mstore\n        /* \"#utility.yul\":8525:8664   */\n      pop\n      pop\n      pop\n      jump\t// out\n        /* \"#utility.yul\":8670:9027   */\n    tag_400:\n        /* \"#utility.yul\":8748:8751   */\n      0x00\n        /* \"#utility.yul\":8776:8815   */\n      tag_569\n        /* \"#utility.yul\":8809:8814   */\n      dup3\n        /* \"#utility.yul\":8776:8815   */\n      tag_397\n      jump\t// in\n    tag_569:\n        /* \"#utility.yul\":8831:8892   */\n      tag_570\n        /* \"#utility.yul\":8885:8891   */\n      dup2\n        /* \"#utility.yul\":8880:8883   */\n      dup6\n        /* \"#utility.yul\":8831:8892   */\n      tag_398\n      jump\t// in\n    tag_570:\n        /* \"#utility.yul\":8824:8892   */\n      swap4\n      pop\n        /* \"#utility.yul\":8901:8966   */\n      tag_571\n        /* \"#utility.yul\":8959:8965   */\n      dup2\n        /* \"#utility.yul\":8954:8957   */\n      dup6\n        /* \"#utility.yul\":8947:8951   */\n      0x20\n        /* \"#utility.yul\":8940:8945   */\n      dup7\n        /* \"#utility.yul\":8936:8952   */\n      add\n        /* \"#utility.yul\":8901:8966   */\n      tag_399\n      jump\t// in\n    tag_571:\n        /* \"#utility.yul\":8991:9020   */\n      tag_572\n        /* \"#utility.yul\":9013:9019   */\n      dup2\n        /* \"#utility.yul\":8991:9020   */\n      tag_372\n      jump\t// in\n    tag_572:\n        /* \"#utility.yul\":8986:8989   */\n      dup5\n        /* \"#utility.yul\":8982:9021   */\n      add\n        /* \"#utility.yul\":8975:9021   */\n      swap2\n      pop\n        /* \"#utility.yul\":8752:9027   */\n      pop\n        /* \"#utility.yul\":8670:9027   */\n      swap3\n      swap2\n      pop\n      pop\n      jump\t// out\n        /* \"#utility.yul\":9033:9229   */\n    tag_401:\n        /* \"#utility.yul\":9122:9132   */\n      0x00\n        /* \"#utility.yul\":9157:9223   */\n      tag_574\n        /* \"#utility.yul\":9219:9222   */\n      dup4\n        /* \"#utility.yul\":9211:9217   */\n      dup4\n        /* \"#utility.yul\":9157:9223   */\n      tag_400\n      jump\t// in\n    tag_574:\n        /* \"#utility.yul\":9143:9223   */\n      swap1\n      pop\n        /* \"#utility.yul\":9033:9229   */\n      swap3\n      swap2\n      pop\n      pop\n      jump\t// out\n        /* \"#utility.yul\":9235:9358   */\n    tag_402:\n        /* \"#utility.yul\":9315:9319   */\n      0x00\n        /* \"#utility.yul\":9347:9351   */\n      0x20\n        /* \"#utility.yul\":9342:9345   */\n      dup3\n        /* \"#utility.yul\":9338:9352   */\n      add\n        /* \"#utility.yul\":9330:9352   */\n      swap1\n      pop\n        /* \"#utility.yul\":9235:9358   */\n      swap2\n      swap1\n      pop\n      jump\t// out\n        /* \"#utility.yul\":9392:10383   */\n    tag_403:\n        /* \"#utility.yul\":9531:9534   */\n      0x00\n        /* \"#utility.yul\":9560:9624   */\n      tag_577\n        /* \"#utility.yul\":9618:9623   */\n      dup3\n        /* \"#utility.yul\":9560:9624   */\n      tag_394\n      jump\t// in\n    tag_577:\n        /* \"#utility.yul\":9640:9736   */\n      tag_578\n        /* \"#utility.yul\":9729:9735   */\n      dup2\n        /* \"#utility.yul\":9724:9727   */\n      dup6\n        /* \"#utility.yul\":9640:9736   */\n      tag_395\n      jump\t// in\n    tag_578:\n        /* \"#utility.yul\":9633:9736   */\n      swap4\n      pop\n        /* \"#utility.yul\":9762:9765   */\n      dup4\n        /* \"#utility.yul\":9807:9811   */\n      0x20\n        /* \"#utility.yul\":9799:9805   */\n      dup3\n        /* \"#utility.yul\":9795:9812   */\n      mul\n        /* \"#utility.yul\":9790:9793   */\n      dup6\n        /* \"#utility.yul\":9786:9813   */\n      add\n        /* \"#utility.yul\":9837:9903   */\n      tag_579\n        /* \"#utility.yul\":9897:9902   */\n      dup6\n        /* \"#utility.yul\":9837:9903   */\n      tag_396\n      jump\t// in\n    tag_579:\n        /* \"#utility.yul\":9926:9933   */\n      dup1\n        /* \"#utility.yul\":9957:9958   */\n      0x00\n        /* \"#utility.yul\":9942:10338   */\n    tag_580:\n        /* \"#utility.yul\":9967:9973   */\n      dup6\n        /* \"#utility.yul\":9964:9965   */\n      dup2\n        /* \"#utility.yul\":9961:9974   */\n      lt\n        /* \"#utility.yul\":9942:10338   */\n      iszero\n      tag_582\n      jumpi\n        /* \"#utility.yul\":10038:10047   */\n      dup5\n        /* \"#utility.yul\":10032:10036   */\n      dup5\n        /* \"#utility.yul\":10028:10048   */\n      sub\n        /* \"#utility.yul\":10023:10026   */\n      dup10\n        /* \"#utility.yul\":10016:10049   */\n      mstore\n        /* \"#utility.yul\":10089:10095   */\n      dup2\n        /* \"#utility.yul\":10083:10096   */\n      mload\n        /* \"#utility.yul\":10117:10201   */\n      tag_583\n        /* \"#utility.yul\":10196:10200   */\n      dup6\n        /* \"#utility.yul\":10181:10194   */\n      dup3\n        /* \"#utility.yul\":10117:10201   */\n      tag_401\n      jump\t// in\n    tag_583:\n        /* \"#utility.yul\":10109:10201   */\n      swap5\n      pop\n        /* \"#utility.yul\":10224:10294   */\n      tag_584\n        /* \"#utility.yul\":10287:10293   */\n      dup4\n        /* \"#utility.yul\":10224:10294   */\n      tag_402\n      jump\t// in\n    tag_584:\n        /* \"#utility.yul\":10214:10294   */\n      swap3\n      pop\n        /* \"#utility.yul\":10323:10327   */\n      0x20\n        /* \"#utility.yul\":10318:10321   */\n      dup11\n        /* \"#utility.yul\":10314:10328   */\n      add\n        /* \"#utility.yul\":10307:10328   */\n      swap10\n      pop\n        /* \"#utility.yul\":10002:10338   */\n      pop\n        /* \"#utility.yul\":9989:9990   */\n      0x01\n        /* \"#utility.yul\":9986:9987   */\n      dup2\n        /* \"#utility.yul\":9982:9991   */\n      add\n        /* \"#utility.yul\":9977:9991   */\n      swap1\n      pop\n        /* \"#utility.yul\":9942:10338   */\n      jump(tag_580)\n    tag_582:\n        /* \"#utility.yul\":9946:9960   */\n      pop\n        /* \"#utility.yul\":10354:10358   */\n      dup3\n        /* \"#utility.yul\":10347:10358   */\n      swap8\n      pop\n        /* \"#utility.yul\":10374:10377   */\n      dup8\n        /* \"#utility.yul\":10367:10377   */\n      swap6\n      pop\n        /* \"#utility.yul\":9536:10383   */\n      pop\n      pop\n      pop\n      pop\n      pop\n        /* \"#utility.yul\":9392:10383   */\n      swap3\n      swap2\n      pop\n      pop\n      jump\t// out\n        /* \"#utility.yul\":10389:10507   */\n    tag_404:\n        /* \"#utility.yul\":10476:10500   */\n      tag_586\n        /* \"#utility.yul\":10494:10499   */\n      dup2\n        /* \"#utility.yul\":10476:10500   */\n      tag_382\n      jump\t// in\n    tag_586:\n        /* \"#utility.yul\":10471:10474   */\n      dup3\n        /* \"#utility.yul\":10464:10501   */\n      mstore\n        /* \"#utility.yul\":10389:10507   */\n      pop\n      pop\n      jump\t// out\n        /* \"#utility.yul\":10513:10682   */\n    tag_405:\n        /* \"#utility.yul\":10597:10608   */\n      0x00\n        /* \"#utility.yul\":10631:10637   */\n      dup3\n        /* \"#utility.yul\":10626:10629   */\n      dup3\n        /* \"#utility.yul\":10619:10638   */\n      mstore\n        /* \"#utility.yul\":10671:10675   */\n      0x20\n        /* \"#utility.yul\":10666:10669   */\n      dup3\n        /* \"#utility.yul\":10662:10676   */\n      add\n        /* \"#utility.yul\":10647:10676   */\n      swap1\n      pop\n        /* \"#utility.yul\":10513:10682   */\n      swap3\n      swap2\n      pop\n      pop\n      jump\t// out\n        /* \"#utility.yul\":10688:11065   */\n    tag_406:\n        /* \"#utility.yul\":10776:10779   */\n      0x00\n        /* \"#utility.yul\":10804:10843   */\n      tag_589\n        /* \"#utility.yul\":10837:10842   */\n      dup3\n        /* \"#utility.yul\":10804:10843   */\n      tag_397\n      jump\t// in\n    tag_589:\n        /* \"#utility.yul\":10859:10930   */\n      tag_590\n        /* \"#utility.yul\":10923:10929   */\n      dup2\n        /* \"#utility.yul\":10918:10921   */\n      dup6\n        /* \"#utility.yul\":10859:10930   */\n      tag_405\n      jump\t// in\n    tag_590:\n        /* \"#utility.yul\":10852:10930   */\n      swap4\n      pop\n        /* \"#utility.yul\":10939:11004   */\n      tag_591\n        /* \"#utility.yul\":10997:11003   */\n      dup2\n        /* \"#utility.yul\":10992:10995   */\n      dup6\n        /* \"#utility.yul\":10985:10989   */\n      0x20\n        /* \"#utility.yul\":10978:10983   */\n      dup7\n        /* \"#utility.yul\":10974:10990   */\n      add\n        /* \"#utility.yul\":10939:11004   */\n      tag_399\n      jump\t// in\n    tag_591:\n        /* \"#utility.yul\":11029:11058   */\n      tag_592\n        /* \"#utility.yul\":11051:11057   */\n      dup2\n        /* \"#utility.yul\":11029:11058   */\n      tag_372\n      jump\t// in\n    tag_592:\n        /* \"#utility.yul\":11024:11027   */\n      dup5\n        /* \"#utility.yul\":11020:11059   */\n      add\n        /* \"#utility.yul\":11013:11059   */\n      swap2\n      pop\n        /* \"#utility.yul\":10780:11065   */\n      pop\n        /* \"#utility.yul\":10688:11065   */\n      swap3\n      swap2\n      pop\n      pop\n      jump\t// out\n        /* \"#utility.yul\":11071:12680   */\n    tag_48:\n        /* \"#utility.yul\":11564:11568   */\n      0x00\n        /* \"#utility.yul\":11602:11605   */\n      0x0100\n        /* \"#utility.yul\":11591:11600   */\n      dup3\n        /* \"#utility.yul\":11587:11606   */\n      add\n        /* \"#utility.yul\":11579:11606   */\n      swap1\n      pop\n        /* \"#utility.yul\":11652:11661   */\n      dup2\n        /* \"#utility.yul\":11646:11650   */\n      dup2\n        /* \"#utility.yul\":11642:11662   */\n      sub\n        /* \"#utility.yul\":11638:11639   */\n      0x00\n        /* \"#utility.yul\":11627:11636   */\n      dup4\n        /* \"#utility.yul\":11623:11640   */\n      add\n        /* \"#utility.yul\":11616:11663   */\n      mstore\n        /* \"#utility.yul\":11680:11788   */\n      tag_594\n        /* \"#utility.yul\":11783:11787   */\n      dup2\n        /* \"#utility.yul\":11774:11780   */\n      dup12\n        /* \"#utility.yul\":11680:11788   */\n      tag_393\n      jump\t// in\n    tag_594:\n        /* \"#utility.yul\":11672:11788   */\n      swap1\n      pop\n        /* \"#utility.yul\":11835:11844   */\n      dup2\n        /* \"#utility.yul\":11829:11833   */\n      dup2\n        /* \"#utility.yul\":11825:11845   */\n      sub\n        /* \"#utility.yul\":11820:11822   */\n      0x20\n        /* \"#utility.yul\":11809:11818   */\n      dup4\n        /* \"#utility.yul\":11805:11823   */\n      add\n        /* \"#utility.yul\":11798:11846   */\n      mstore\n        /* \"#utility.yul\":11863:11991   */\n      tag_595\n        /* \"#utility.yul\":11986:11990   */\n      dup2\n        /* \"#utility.yul\":11977:11983   */\n      dup11\n        /* \"#utility.yul\":11863:11991   */\n      tag_403\n      jump\t// in\n    tag_595:\n        /* \"#utility.yul\":11855:11991   */\n      swap1\n      pop\n        /* \"#utility.yul\":12038:12047   */\n      dup2\n        /* \"#utility.yul\":12032:12036   */\n      dup2\n        /* \"#utility.yul\":12028:12048   */\n      sub\n        /* \"#utility.yul\":12023:12025   */\n      0x40\n        /* \"#utility.yul\":12012:12021   */\n      dup4\n        /* \"#utility.yul\":12008:12026   */\n      add\n        /* \"#utility.yul\":12001:12049   */\n      mstore\n        /* \"#utility.yul\":12066:12194   */\n      tag_596\n        /* \"#utility.yul\":12189:12193   */\n      dup2\n        /* \"#utility.yul\":12180:12186   */\n      dup10\n        /* \"#utility.yul\":12066:12194   */\n      tag_403\n      jump\t// in\n    tag_596:\n        /* \"#utility.yul\":12058:12194   */\n      swap1\n      pop\n        /* \"#utility.yul\":12204:12276   */\n      tag_597\n        /* \"#utility.yul\":12272:12274   */\n      0x60\n        /* \"#utility.yul\":12261:12270   */\n      dup4\n        /* \"#utility.yul\":12257:12275   */\n      add\n        /* \"#utility.yul\":12248:12254   */\n      dup9\n        /* \"#utility.yul\":12204:12276   */\n      tag_404\n      jump\t// in\n    tag_597:\n        /* \"#utility.yul\":12286:12359   */\n      tag_598\n        /* \"#utility.yul\":12354:12357   */\n      0x80\n        /* \"#utility.yul\":12343:12352   */\n      dup4\n        /* \"#utility.yul\":12339:12358   */\n      add\n        /* \"#utility.yul\":12330:12336   */\n      dup8\n        /* \"#utility.yul\":12286:12359   */\n      tag_380\n      jump\t// in\n    tag_598:\n        /* \"#utility.yul\":12369:12436   */\n      tag_599\n        /* \"#utility.yul\":12431:12434   */\n      0xa0\n        /* \"#utility.yul\":12420:12429   */\n      dup4\n        /* \"#utility.yul\":12416:12435   */\n      add\n        /* \"#utility.yul\":12407:12413   */\n      dup7\n        /* \"#utility.yul\":12369:12436   */\n      tag_386\n      jump\t// in\n    tag_599:\n        /* \"#utility.yul\":12446:12519   */\n      tag_600\n        /* \"#utility.yul\":12514:12517   */\n      0xc0\n        /* \"#utility.yul\":12503:12512   */\n      dup4\n        /* \"#utility.yul\":12499:12518   */\n      add\n        /* \"#utility.yul\":12490:12496   */\n      dup6\n        /* \"#utility.yul\":12446:12519   */\n      tag_380\n      jump\t// in\n    tag_600:\n        /* \"#utility.yul\":12567:12576   */\n      dup2\n        /* \"#utility.yul\":12561:12565   */\n      dup2\n        /* \"#utility.yul\":12557:12577   */\n      sub\n        /* \"#utility.yul\":12551:12554   */\n      0xe0\n        /* \"#utility.yul\":12540:12549   */\n      dup4\n        /* \"#utility.yul\":12536:12555   */\n      add\n        /* \"#utility.yul\":12529:12578   */\n      mstore\n        /* \"#utility.yul\":12595:12673   */\n      tag_601\n        /* \"#utility.yul\":12668:12672   */\n      dup2\n        /* \"#utility.yul\":12659:12665   */\n      dup5\n        /* \"#utility.yul\":12595:12673   */\n      tag_406\n      jump\t// in\n    tag_601:\n        /* \"#utility.yul\":12587:12673   */\n      swap1\n      pop\n        /* \"#utility.yul\":11071:12680   */\n      swap10\n      swap9\n      pop\n      pop\n      pop\n      pop\n      pop\n      pop\n      pop\n      pop\n      pop\n      jump\t// out\n        /* \"#utility.yul\":12686:13631   */\n    tag_53:\n        /* \"#utility.yul\":12953:12957   */\n      0x00\n        /* \"#utility.yul\":12991:12994   */\n      0xc0\n        /* \"#utility.yul\":12980:12989   */\n      dup3\n        /* \"#utility.yul\":12976:12995   */\n      add\n        /* \"#utility.yul\":12968:12995   */\n      swap1\n      pop\n        /* \"#utility.yul\":13005:13076   */\n      tag_603\n        /* \"#utility.yul\":13073:13074   */\n      0x00\n        /* \"#utility.yul\":13062:13071   */\n      dup4\n        /* \"#utility.yul\":13058:13075   */\n      add\n        /* \"#utility.yul\":13049:13055   */\n      dup10\n        /* \"#utility.yul\":13005:13076   */\n      tag_380\n      jump\t// in\n    tag_603:\n        /* \"#utility.yul\":13123:13132   */\n      dup2\n        /* \"#utility.yul\":13117:13121   */\n      dup2\n        /* \"#utility.yul\":13113:13133   */\n      sub\n        /* \"#utility.yul\":13108:13110   */\n      0x20\n        /* \"#utility.yul\":13097:13106   */\n      dup4\n        /* \"#utility.yul\":13093:13111   */\n      add\n        /* \"#utility.yul\":13086:13134   */\n      mstore\n        /* \"#utility.yul\":13151:13229   */\n      tag_604\n        /* \"#utility.yul\":13224:13228   */\n      dup2\n        /* \"#utility.yul\":13215:13221   */\n      dup9\n        /* \"#utility.yul\":13151:13229   */\n      tag_406\n      jump\t// in\n    tag_604:\n        /* \"#utility.yul\":13143:13229   */\n      swap1\n      pop\n        /* \"#utility.yul\":13276:13285   */\n      dup2\n        /* \"#utility.yul\":13270:13274   */\n      dup2\n        /* \"#utility.yul\":13266:13286   */\n      sub\n        /* \"#utility.yul\":13261:13263   */\n      0x40\n        /* \"#utility.yul\":13250:13259   */\n      dup4\n        /* \"#utility.yul\":13246:13264   */\n      add\n        /* \"#utility.yul\":13239:13287   */\n      mstore\n        /* \"#utility.yul\":13304:13382   */\n      tag_605\n        /* \"#utility.yul\":13377:13381   */\n      dup2\n        /* \"#utility.yul\":13368:13374   */\n      dup8\n        /* \"#utility.yul\":13304:13382   */\n      tag_406\n      jump\t// in\n    tag_605:\n        /* \"#utility.yul\":13296:13382   */\n      swap1\n      pop\n        /* \"#utility.yul\":13392:13464   */\n      tag_606\n        /* \"#utility.yul\":13460:13462   */\n      0x60\n        /* \"#utility.yul\":13449:13458   */\n      dup4\n        /* \"#utility.yul\":13445:13463   */\n      add\n        /* \"#utility.yul\":13436:13442   */\n      dup7\n        /* \"#utility.yul\":13392:13464   */\n      tag_404\n      jump\t// in\n    tag_606:\n        /* \"#utility.yul\":13474:13547   */\n      tag_607\n        /* \"#utility.yul\":13542:13545   */\n      0x80\n        /* \"#utility.yul\":13531:13540   */\n      dup4\n        /* \"#utility.yul\":13527:13546   */\n      add\n        /* \"#utility.yul\":13518:13524   */\n      dup6\n        /* \"#utility.yul\":13474:13547   */\n      tag_380\n      jump\t// in\n    tag_607:\n        /* \"#utility.yul\":13557:13624   */\n      tag_608\n        /* \"#utility.yul\":13619:13622   */\n      0xa0\n        /* \"#utility.yul\":13608:13617   */\n      dup4\n        /* \"#utility.yul\":13604:13623   */\n      add\n        /* \"#utility.yul\":13595:13601   */\n      dup5\n        /* \"#utility.yul\":13557:13624   */\n      tag_386\n      jump\t// in\n    tag_608:\n        /* \"#utility.yul\":12686:13631   */\n      swap8\n      swap7\n      pop\n      pop\n      pop\n      pop\n      pop\n      pop\n      pop\n      jump\t// out\n        /* \"#utility.yul\":13637:14111   */\n    tag_56:\n        /* \"#utility.yul\":13705:13711   */\n      0x00\n        /* \"#utility.yul\":13713:13719   */\n      dup1\n        /* \"#utility.yul\":13762:13764   */\n      0x40\n        /* \"#utility.yul\":13750:13759   */\n      dup4\n        /* \"#utility.yul\":13741:13748   */\n      dup6\n        /* \"#utility.yul\":13737:13760   */\n      sub\n        /* \"#utility.yul\":13733:13765   */\n      slt\n        /* \"#utility.yul\":13730:13849   */\n      iszero\n      tag_610\n      jumpi\n        /* \"#utility.yul\":13768:13847   */\n      tag_611\n      tag_365\n      jump\t// in\n    tag_611:\n        /* \"#utility.yul\":13730:13849   */\n    tag_610:\n        /* \"#utility.yul\":13888:13889   */\n      0x00\n        /* \"#utility.yul\":13913:13966   */\n      tag_612\n        /* \"#utility.yul\":13958:13965   */\n      dup6\n        /* \"#utility.yul\":13949:13955   */\n      dup3\n        /* \"#utility.yul\":13938:13947   */\n      dup7\n        /* \"#utility.yul\":13934:13956   */\n      add\n        /* \"#utility.yul\":13913:13966   */\n      tag_369\n      jump\t// in\n    tag_612:\n        /* \"#utility.yul\":13903:13966   */\n      swap3\n      pop\n        /* \"#utility.yul\":13859:13976   */\n      pop\n        /* \"#utility.yul\":14015:14017   */\n      0x20\n        /* \"#utility.yul\":14041:14094   */\n      tag_613\n        /* \"#utility.yul\":14086:14093   */\n      dup6\n        /* \"#utility.yul\":14077:14083   */\n      dup3\n        /* \"#utility.yul\":14066:14075   */\n      dup7\n        /* \"#utility.yul\":14062:14084   */\n      add\n        /* \"#utility.yul\":14041:14094   */\n      tag_384\n      jump\t// in\n    tag_613:\n        /* \"#utility.yul\":14031:14094   */\n      swap2\n      pop\n        /* \"#utility.yul\":13986:14104   */\n      pop\n        /* \"#utility.yul\":13637:14111   */\n      swap3\n      pop\n      swap3\n      swap1\n      pop\n      jump\t// out\n        /* \"#utility.yul\":14117:14446   */\n    tag_60:\n        /* \"#utility.yul\":14176:14182   */\n      0x00\n        /* \"#utility.yul\":14225:14227   */\n      0x20\n        /* \"#utility.yul\":14213:14222   */\n      dup3\n        /* \"#utility.yul\":14204:14211   */\n      dup5\n        /* \"#utility.yul\":14200:14223   */\n      sub\n        /* \"#utility.yul\":14196:14228   */\n      slt\n        /* \"#utility.yul\":14193:14312   */\n      iszero\n      tag_615\n      jumpi\n        /* \"#utility.yul\":14231:14310   */\n      tag_616\n      tag_365\n      jump\t// in\n    tag_616:\n        /* \"#utility.yul\":14193:14312   */\n    tag_615:\n        /* \"#utility.yul\":14351:14352   */\n      0x00\n        /* \"#utility.yul\":14376:14429   */\n      tag_617\n        /* \"#utility.yul\":14421:14428   */\n      dup5\n        /* \"#utility.yul\":14412:14418   */\n      dup3\n        /* \"#utility.yul\":14401:14410   */\n      dup6\n        /* \"#utility.yul\":14397:14419   */\n      add\n        /* \"#utility.yul\":14376:14429   */\n      tag_384\n      jump\t// in\n    tag_617:\n        /* \"#utility.yul\":14366:14429   */\n      swap2\n      pop\n        /* \"#utility.yul\":14322:14439   */\n      pop\n        /* \"#utility.yul\":14117:14446   */\n      swap3\n      swap2\n      pop\n      pop\n      jump\t// out\n        /* \"#utility.yul\":14452:14674   */\n    tag_66:\n        /* \"#utility.yul\":14545:14549   */\n      0x00\n        /* \"#utility.yul\":14583:14585   */\n      0x20\n        /* \"#utility.yul\":14572:14581   */\n      dup3\n        /* \"#utility.yul\":14568:14586   */\n      add\n        /* \"#utility.yul\":14560:14586   */\n      swap1\n      pop\n        /* \"#utility.yul\":14596:14667   */\n      tag_619\n        /* \"#utility.yul\":14664:14665   */\n      0x00\n        /* \"#utility.yul\":14653:14662   */\n      dup4\n        /* \"#utility.yul\":14649:14666   */\n      add\n        /* \"#utility.yul\":14640:14646   */\n      dup5\n        /* \"#utility.yul\":14596:14667   */\n      tag_404\n      jump\t// in\n    tag_619:\n        /* \"#utility.yul\":14452:14674   */\n      swap3\n      swap2\n      pop\n      pop\n      jump\t// out\n        /* \"#utility.yul\":14680:15514   */\n    tag_69:\n        /* \"#utility.yul\":14768:14774   */\n      0x00\n        /* \"#utility.yul\":14776:14782   */\n      dup1\n        /* \"#utility.yul\":14825:14827   */\n      0x40\n        /* \"#utility.yul\":14813:14822   */\n      dup4\n        /* \"#utility.yul\":14804:14811   */\n      dup6\n        /* \"#utility.yul\":14800:14823   */\n      sub\n        /* \"#utility.yul\":14796:14828   */\n      slt\n        /* \"#utility.yul\":14793:14912   */\n      iszero\n      tag_621\n      jumpi\n        /* \"#utility.yul\":14831:14910   */\n      tag_622\n      tag_365\n      jump\t// in\n    tag_622:\n        /* \"#utility.yul\":14793:14912   */\n    tag_621:\n        /* \"#utility.yul\":14979:14980   */\n      0x00\n        /* \"#utility.yul\":14968:14977   */\n      dup4\n        /* \"#utility.yul\":14964:14981   */\n      add\n        /* \"#utility.yul\":14951:14982   */\n      calldataload\n        /* \"#utility.yul\":15009:15027   */\n      0xffffffffffffffff\n        /* \"#utility.yul\":15001:15007   */\n      dup2\n        /* \"#utility.yul\":14998:15028   */\n      gt\n        /* \"#utility.yul\":14995:15112   */\n      iszero\n      tag_623\n      jumpi\n        /* \"#utility.yul\":15031:15110   */\n      tag_624\n      tag_366\n      jump\t// in\n    tag_624:\n        /* \"#utility.yul\":14995:15112   */\n    tag_623:\n        /* \"#utility.yul\":15136:15199   */\n      tag_625\n        /* \"#utility.yul\":15191:15198   */\n      dup6\n        /* \"#utility.yul\":15182:15188   */\n      dup3\n        /* \"#utility.yul\":15171:15180   */\n      dup7\n        /* \"#utility.yul\":15167:15189   */\n      add\n        /* \"#utility.yul\":15136:15199   */\n      tag_379\n      jump\t// in\n    tag_625:\n        /* \"#utility.yul\":15126:15199   */\n      swap3\n      pop\n        /* \"#utility.yul\":14922:15209   */\n      pop\n        /* \"#utility.yul\":15276:15278   */\n      0x20\n        /* \"#utility.yul\":15265:15274   */\n      dup4\n        /* \"#utility.yul\":15261:15279   */\n      add\n        /* \"#utility.yul\":15248:15280   */\n      calldataload\n        /* \"#utility.yul\":15307:15325   */\n      0xffffffffffffffff\n        /* \"#utility.yul\":15299:15305   */\n      dup2\n        /* \"#utility.yul\":15296:15326   */\n      gt\n        /* \"#utility.yul\":15293:15410   */\n      iszero\n      tag_626\n      jumpi\n        /* \"#utility.yul\":15329:15408   */\n      tag_627\n      tag_366\n      jump\t// in\n    tag_627:\n        /* \"#utility.yul\":15293:15410   */\n    tag_626:\n        /* \"#utility.yul\":15434:15497   */\n      tag_628\n        /* \"#utility.yul\":15489:15496   */\n      dup6\n        /* \"#utility.yul\":15480:15486   */\n      dup3\n        /* \"#utility.yul\":15469:15478   */\n      dup7\n        /* \"#utility.yul\":15465:15487   */\n      add\n        /* \"#utility.yul\":15434:15497   */\n      tag_379\n      jump\t// in\n    tag_628:\n        /* \"#utility.yul\":15424:15497   */\n      swap2\n      pop\n        /* \"#utility.yul\":15219:15507   */\n      pop\n        /* \"#utility.yul\":14680:15514   */\n      swap3\n      pop\n      swap3\n      swap1\n      pop\n      jump\t// out\n        /* \"#utility.yul\":15520:16263   */\n    tag_86:\n        /* \"#utility.yul\":15739:15743   */\n      0x00\n        /* \"#utility.yul\":15777:15780   */\n      0xa0\n        /* \"#utility.yul\":15766:15775   */\n      dup3\n        /* \"#utility.yul\":15762:15781   */\n      add\n        /* \"#utility.yul\":15754:15781   */\n      swap1\n      pop\n        /* \"#utility.yul\":15791:15862   */\n      tag_630\n        /* \"#utility.yul\":15859:15860   */\n      0x00\n        /* \"#utility.yul\":15848:15857   */\n      dup4\n        /* \"#utility.yul\":15844:15861   */\n      add\n        /* \"#utility.yul\":15835:15841   */\n      dup9\n        /* \"#utility.yul\":15791:15862   */\n      tag_404\n      jump\t// in\n    tag_630:\n        /* \"#utility.yul\":15872:15944   */\n      tag_631\n        /* \"#utility.yul\":15940:15942   */\n      0x20\n        /* \"#utility.yul\":15929:15938   */\n      dup4\n        /* \"#utility.yul\":15925:15943   */\n      add\n        /* \"#utility.yul\":15916:15922   */\n      dup8\n        /* \"#utility.yul\":15872:15944   */\n      tag_380\n      jump\t// in\n    tag_631:\n        /* \"#utility.yul\":15954:16020   */\n      tag_632\n        /* \"#utility.yul\":16016:16018   */\n      0x40\n        /* \"#utility.yul\":16005:16014   */\n      dup4\n        /* \"#utility.yul\":16001:16019   */\n      add\n        /* \"#utility.yul\":15992:15998   */\n      dup7\n        /* \"#utility.yul\":15954:16020   */\n      tag_386\n      jump\t// in\n    tag_632:\n        /* \"#utility.yul\":16030:16102   */\n      tag_633\n        /* \"#utility.yul\":16098:16100   */\n      0x60\n        /* \"#utility.yul\":16087:16096   */\n      dup4\n        /* \"#utility.yul\":16083:16101   */\n      add\n        /* \"#utility.yul\":16074:16080   */\n      dup6\n        /* \"#utility.yul\":16030:16102   */\n      tag_380\n      jump\t// in\n    tag_633:\n        /* \"#utility.yul\":16150:16159   */\n      dup2\n        /* \"#utility.yul\":16144:16148   */\n      dup2\n        /* \"#utility.yul\":16140:16160   */\n      sub\n        /* \"#utility.yul\":16134:16137   */\n      0x80\n        /* \"#utility.yul\":16123:16132   */\n      dup4\n        /* \"#utility.yul\":16119:16138   */\n      add\n        /* \"#utility.yul\":16112:16161   */\n      mstore\n        /* \"#utility.yul\":16178:16256   */\n      tag_634\n        /* \"#utility.yul\":16251:16255   */\n      dup2\n        /* \"#utility.yul\":16242:16248   */\n      dup5\n        /* \"#utility.yul\":16178:16256   */\n      tag_406\n      jump\t// in\n    tag_634:\n        /* \"#utility.yul\":16170:16256   */\n      swap1\n      pop\n        /* \"#utility.yul\":15520:16263   */\n      swap7\n      swap6\n      pop\n      pop\n      pop\n      pop\n      pop\n      pop\n      jump\t// out\n        /* \"#utility.yul\":16269:17012   */\n    tag_91:\n        /* \"#utility.yul\":16488:16492   */\n      0x00\n        /* \"#utility.yul\":16526:16529   */\n      0xa0\n        /* \"#utility.yul\":16515:16524   */\n      dup3\n        /* \"#utility.yul\":16511:16530   */\n      add\n        /* \"#utility.yul\":16503:16530   */\n      swap1\n      pop\n        /* \"#utility.yul\":16540:16611   */\n      tag_636\n        /* \"#utility.yul\":16608:16609   */\n      0x00\n        /* \"#utility.yul\":16597:16606   */\n      dup4\n        /* \"#utility.yul\":16593:16610   */\n      add\n        /* \"#utility.yul\":16584:16590   */\n      dup9\n        /* \"#utility.yul\":16540:16611   */\n      tag_380\n      jump\t// in\n    tag_636:\n        /* \"#utility.yul\":16658:16667   */\n      dup2\n        /* \"#utility.yul\":16652:16656   */\n      dup2\n        /* \"#utility.yul\":16648:16668   */\n      sub\n        /* \"#utility.yul\":16643:16645   */\n      0x20\n        /* \"#utility.yul\":16632:16641   */\n      dup4\n        /* \"#utility.yul\":16628:16646   */\n      add\n        /* \"#utility.yul\":16621:16669   */\n      mstore\n        /* \"#utility.yul\":16686:16764   */\n      tag_637\n        /* \"#utility.yul\":16759:16763   */\n      dup2\n        /* \"#utility.yul\":16750:16756   */\n      dup8\n        /* \"#utility.yul\":16686:16764   */\n      tag_406\n      jump\t// in\n    tag_637:\n        /* \"#utility.yul\":16678:16764   */\n      swap1\n      pop\n        /* \"#utility.yul\":16774:16846   */\n      tag_638\n        /* \"#utility.yul\":16842:16844   */\n      0x40\n        /* \"#utility.yul\":16831:16840   */\n      dup4\n        /* \"#utility.yul\":16827:16845   */\n      add\n        /* \"#utility.yul\":16818:16824   */\n      dup7\n        /* \"#utility.yul\":16774:16846   */\n      tag_404\n      jump\t// in\n    tag_638:\n        /* \"#utility.yul\":16856:16928   */\n      tag_639\n        /* \"#utility.yul\":16924:16926   */\n      0x60\n        /* \"#utility.yul\":16913:16922   */\n      dup4\n        /* \"#utility.yul\":16909:16927   */\n      add\n        /* \"#utility.yul\":16900:16906   */\n      dup6\n        /* \"#utility.yul\":16856:16928   */\n      tag_380\n      jump\t// in\n    tag_639:\n        /* \"#utility.yul\":16938:17005   */\n      tag_640\n        /* \"#utility.yul\":17000:17003   */\n      0x80\n        /* \"#utility.yul\":16989:16998   */\n      dup4\n        /* \"#utility.yul\":16985:17004   */\n      add\n        /* \"#utility.yul\":16976:16982   */\n      dup5\n        /* \"#utility.yul\":16938:17005   */\n      tag_386\n      jump\t// in\n    tag_640:\n        /* \"#utility.yul\":16269:17012   */\n      swap7\n      swap6\n      pop\n      pop\n      pop\n      pop\n      pop\n      pop\n      jump\t// out\n        /* \"#utility.yul\":17018:17331   */\n    tag_99:\n        /* \"#utility.yul\":17131:17135   */\n      0x00\n        /* \"#utility.yul\":17169:17171   */\n      0x20\n        /* \"#utility.yul\":17158:17167   */\n      dup3\n        /* \"#utility.yul\":17154:17172   */\n      add\n        /* \"#utility.yul\":17146:17172   */\n      swap1\n      pop\n        /* \"#utility.yul\":17218:17227   */\n      dup2\n        /* \"#utility.yul\":17212:17216   */\n      dup2\n        /* \"#utility.yul\":17208:17228   */\n      sub\n        /* \"#utility.yul\":17204:17205   */\n      0x00\n        /* \"#utility.yul\":17193:17202   */\n      dup4\n        /* \"#utility.yul\":17189:17206   */\n      add\n        /* \"#utility.yul\":17182:17229   */\n      mstore\n        /* \"#utility.yul\":17246:17324   */\n      tag_642\n        /* \"#utility.yul\":17319:17323   */\n      dup2\n        /* \"#utility.yul\":17310:17316   */\n      dup5\n        /* \"#utility.yul\":17246:17324   */\n      tag_406\n      jump\t// in\n    tag_642:\n        /* \"#utility.yul\":17238:17324   */\n      swap1\n      pop\n        /* \"#utility.yul\":17018:17331   */\n      swap3\n      swap2\n      pop\n      pop\n      jump\t// out\n        /* \"#utility.yul\":17337:17648   */\n    tag_407:\n        /* \"#utility.yul\":17414:17418   */\n      0x00\n        /* \"#utility.yul\":17504:17522   */\n      0xffffffffffffffff\n        /* \"#utility.yul\":17496:17502   */\n      dup3\n        /* \"#utility.yul\":17493:17523   */\n      gt\n        /* \"#utility.yul\":17490:17546   */\n      iszero\n      tag_644\n      jumpi\n        /* \"#utility.yul\":17526:17544   */\n      tag_645\n      tag_373\n      jump\t// in\n    tag_645:\n        /* \"#utility.yul\":17490:17546   */\n    tag_644:\n        /* \"#utility.yul\":17576:17580   */\n      0x20\n        /* \"#utility.yul\":17568:17574   */\n      dup3\n        /* \"#utility.yul\":17564:17581   */\n      mul\n        /* \"#utility.yul\":17556:17581   */\n      swap1\n      pop\n        /* \"#utility.yul\":17636:17640   */\n      0x20\n        /* \"#utility.yul\":17630:17634   */\n      dup2\n        /* \"#utility.yul\":17626:17641   */\n      add\n        /* \"#utility.yul\":17618:17641   */\n      swap1\n      pop\n        /* \"#utility.yul\":17337:17648   */\n      swap2\n      swap1\n      pop\n      jump\t// out\n        /* \"#utility.yul\":17654:17771   */\n    tag_408:\n        /* \"#utility.yul\":17763:17764   */\n      0x00\n        /* \"#utility.yul\":17760:17761   */\n      dup1\n        /* \"#utility.yul\":17753:17765   */\n      revert\n        /* \"#utility.yul\":17794:18504   */\n    tag_409:\n        /* \"#utility.yul\":17890:17895   */\n      0x00\n        /* \"#utility.yul\":17915:17996   */\n      tag_648\n        /* \"#utility.yul\":17931:17995   */\n      tag_649\n        /* \"#utility.yul\":17988:17994   */\n      dup5\n        /* \"#utility.yul\":17931:17995   */\n      tag_407\n      jump\t// in\n    tag_649:\n        /* \"#utility.yul\":17915:17996   */\n      tag_375\n      jump\t// in\n    tag_648:\n        /* \"#utility.yul\":17906:17996   */\n      swap1\n      pop\n        /* \"#utility.yul\":18016:18021   */\n      dup1\n        /* \"#utility.yul\":18045:18051   */\n      dup4\n        /* \"#utility.yul\":18038:18043   */\n      dup3\n        /* \"#utility.yul\":18031:18052   */\n      mstore\n        /* \"#utility.yul\":18079:18083   */\n      0x20\n        /* \"#utility.yul\":18072:18077   */\n      dup3\n        /* \"#utility.yul\":18068:18084   */\n      add\n        /* \"#utility.yul\":18061:18084   */\n      swap1\n      pop\n        /* \"#utility.yul\":18132:18136   */\n      0x20\n        /* \"#utility.yul\":18124:18130   */\n      dup5\n        /* \"#utility.yul\":18120:18137   */\n      mul\n        /* \"#utility.yul\":18112:18118   */\n      dup4\n        /* \"#utility.yul\":18108:18138   */\n      add\n        /* \"#utility.yul\":18161:18164   */\n      dup6\n        /* \"#utility.yul\":18153:18159   */\n      dup2\n        /* \"#utility.yul\":18150:18165   */\n      gt\n        /* \"#utility.yul\":18147:18269   */\n      iszero\n      tag_650\n      jumpi\n        /* \"#utility.yul\":18180:18259   */\n      tag_651\n      tag_408\n      jump\t// in\n    tag_651:\n        /* \"#utility.yul\":18147:18269   */\n    tag_650:\n        /* \"#utility.yul\":18295:18301   */\n      dup4\n        /* \"#utility.yul\":18278:18498   */\n    tag_652:\n        /* \"#utility.yul\":18312:18318   */\n      dup2\n        /* \"#utility.yul\":18307:18310   */\n      dup2\n        /* \"#utility.yul\":18304:18319   */\n      lt\n        /* \"#utility.yul\":18278:18498   */\n      iszero\n      tag_654\n      jumpi\n        /* \"#utility.yul\":18387:18390   */\n      dup1\n        /* \"#utility.yul\":18416:18453   */\n      tag_655\n        /* \"#utility.yul\":18449:18452   */\n      dup9\n        /* \"#utility.yul\":18437:18447   */\n      dup3\n        /* \"#utility.yul\":18416:18453   */\n      tag_369\n      jump\t// in\n    tag_655:\n        /* \"#utility.yul\":18411:18414   */\n      dup5\n        /* \"#utility.yul\":18404:18454   */\n      mstore\n        /* \"#utility.yul\":18483:18487   */\n      0x20\n        /* \"#utility.yul\":18478:18481   */\n      dup5\n        /* \"#utility.yul\":18474:18488   */\n      add\n        /* \"#utility.yul\":18467:18488   */\n      swap4\n      pop\n        /* \"#utility.yul\":18354:18498   */\n      pop\n        /* \"#utility.yul\":18338:18342   */\n      0x20\n        /* \"#utility.yul\":18333:18336   */\n      dup2\n        /* \"#utility.yul\":18329:18343   */\n      add\n        /* \"#utility.yul\":18322:18343   */\n      swap1\n      pop\n        /* \"#utility.yul\":18278:18498   */\n      jump(tag_652)\n    tag_654:\n        /* \"#utility.yul\":18282:18303   */\n      pop\n        /* \"#utility.yul\":17896:18504   */\n      pop\n      pop\n        /* \"#utility.yul\":17794:18504   */\n      swap4\n      swap3\n      pop\n      pop\n      pop\n      jump\t// out\n        /* \"#utility.yul\":18527:18897   */\n    tag_410:\n        /* \"#utility.yul\":18598:18603   */\n      0x00\n        /* \"#utility.yul\":18647:18650   */\n      dup3\n        /* \"#utility.yul\":18640:18644   */\n      0x1f\n        /* \"#utility.yul\":18632:18638   */\n      dup4\n        /* \"#utility.yul\":18628:18645   */\n      add\n        /* \"#utility.yul\":18624:18651   */\n      slt\n        /* \"#utility.yul\":18614:18736   */\n      tag_657\n      jumpi\n        /* \"#utility.yul\":18655:18734   */\n      tag_658\n      tag_370\n      jump\t// in\n    tag_658:\n        /* \"#utility.yul\":18614:18736   */\n    tag_657:\n        /* \"#utility.yul\":18772:18778   */\n      dup2\n        /* \"#utility.yul\":18759:18779   */\n      calldataload\n        /* \"#utility.yul\":18797:18891   */\n      tag_659\n        /* \"#utility.yul\":18887:18890   */\n      dup5\n        /* \"#utility.yul\":18879:18885   */\n      dup3\n        /* \"#utility.yul\":18872:18876   */\n      0x20\n        /* \"#utility.yul\":18864:18870   */\n      dup7\n        /* \"#utility.yul\":18860:18877   */\n      add\n        /* \"#utility.yul\":18797:18891   */\n      tag_409\n      jump\t// in\n    tag_659:\n        /* \"#utility.yul\":18788:18891   */\n      swap2\n      pop\n        /* \"#utility.yul\":18604:18897   */\n      pop\n        /* \"#utility.yul\":18527:18897   */\n      swap3\n      swap2\n      pop\n      pop\n      jump\t// out\n        /* \"#utility.yul\":18903:19224   */\n    tag_411:\n        /* \"#utility.yul\":18990:18994   */\n      0x00\n        /* \"#utility.yul\":19080:19098   */\n      0xffffffffffffffff\n        /* \"#utility.yul\":19072:19078   */\n      dup3\n        /* \"#utility.yul\":19069:19099   */\n      gt\n        /* \"#utility.yul\":19066:19122   */\n      iszero\n      tag_661\n      jumpi\n        /* \"#utility.yul\":19102:19120   */\n      tag_662\n      tag_373\n      jump\t// in\n    tag_662:\n        /* \"#utility.yul\":19066:19122   */\n    tag_661:\n        /* \"#utility.yul\":19152:19156   */\n      0x20\n        /* \"#utility.yul\":19144:19150   */\n      dup3\n        /* \"#utility.yul\":19140:19157   */\n      mul\n        /* \"#utility.yul\":19132:19157   */\n      swap1\n      pop\n        /* \"#utility.yul\":19212:19216   */\n      0x20\n        /* \"#utility.yul\":19206:19210   */\n      dup2\n        /* \"#utility.yul\":19202:19217   */\n      add\n        /* \"#utility.yul\":19194:19217   */\n      swap1\n      pop\n        /* \"#utility.yul\":18903:19224   */\n      swap2\n      swap1\n      pop\n      jump\t// out\n        /* \"#utility.yul\":19246:20191   */\n    tag_412:\n        /* \"#utility.yul\":19352:19357   */\n      0x00\n        /* \"#utility.yul\":19377:19468   */\n      tag_664\n        /* \"#utility.yul\":19393:19467   */\n      tag_665\n        /* \"#utility.yul\":19460:19466   */\n      dup5\n        /* \"#utility.yul\":19393:19467   */\n      tag_411\n      jump\t// in\n    tag_665:\n        /* \"#utility.yul\":19377:19468   */\n      tag_375\n      jump\t// in\n    tag_664:\n        /* \"#utility.yul\":19368:19468   */\n      swap1\n      pop\n        /* \"#utility.yul\":19488:19493   */\n      dup1\n        /* \"#utility.yul\":19517:19523   */\n      dup4\n        /* \"#utility.yul\":19510:19515   */\n      dup3\n        /* \"#utility.yul\":19503:19524   */\n      mstore\n        /* \"#utility.yul\":19551:19555   */\n      0x20\n        /* \"#utility.yul\":19544:19549   */\n      dup3\n        /* \"#utility.yul\":19540:19556   */\n      add\n        /* \"#utility.yul\":19533:19556   */\n      swap1\n      pop\n        /* \"#utility.yul\":19604:19608   */\n      0x20\n        /* \"#utility.yul\":19596:19602   */\n      dup5\n        /* \"#utility.yul\":19592:19609   */\n      mul\n        /* \"#utility.yul\":19584:19590   */\n      dup4\n        /* \"#utility.yul\":19580:19610   */\n      add\n        /* \"#utility.yul\":19633:19636   */\n      dup6\n        /* \"#utility.yul\":19625:19631   */\n      dup2\n        /* \"#utility.yul\":19622:19637   */\n      gt\n        /* \"#utility.yul\":19619:19741   */\n      iszero\n      tag_666\n      jumpi\n        /* \"#utility.yul\":19652:19731   */\n      tag_667\n      tag_408\n      jump\t// in\n    tag_667:\n        /* \"#utility.yul\":19619:19741   */\n    tag_666:\n        /* \"#utility.yul\":19767:19773   */\n      dup4\n        /* \"#utility.yul\":19750:20185   */\n    tag_668:\n        /* \"#utility.yul\":19784:19790   */\n      dup2\n        /* \"#utility.yul\":19779:19782   */\n      dup2\n        /* \"#utility.yul\":19776:19791   */\n      lt\n        /* \"#utility.yul\":19750:20185   */\n      iszero\n      tag_670\n      jumpi\n        /* \"#utility.yul\":19873:19876   */\n      dup1\n        /* \"#utility.yul\":19860:19877   */\n      calldataload\n        /* \"#utility.yul\":19909:19927   */\n      0xffffffffffffffff\n        /* \"#utility.yul\":19896:19907   */\n      dup2\n        /* \"#utility.yul\":19893:19928   */\n      gt\n        /* \"#utility.yul\":19890:20012   */\n      iszero\n      tag_671\n      jumpi\n        /* \"#utility.yul\":19931:20010   */\n      tag_672\n      tag_370\n      jump\t// in\n    tag_672:\n        /* \"#utility.yul\":19890:20012   */\n    tag_671:\n        /* \"#utility.yul\":20055:20066   */\n      dup1\n        /* \"#utility.yul\":20047:20053   */\n      dup7\n        /* \"#utility.yul\":20043:20067   */\n      add\n        /* \"#utility.yul\":20093:20140   */\n      tag_673\n        /* \"#utility.yul\":20136:20139   */\n      dup10\n        /* \"#utility.yul\":20124:20134   */\n      dup3\n        /* \"#utility.yul\":20093:20140   */\n      tag_379\n      jump\t// in\n    tag_673:\n        /* \"#utility.yul\":20088:20091   */\n      dup6\n        /* \"#utility.yul\":20081:20141   */\n      mstore\n        /* \"#utility.yul\":20170:20174   */\n      0x20\n        /* \"#utility.yul\":20165:20168   */\n      dup6\n        /* \"#utility.yul\":20161:20175   */\n      add\n        /* \"#utility.yul\":20154:20175   */\n      swap5\n      pop\n        /* \"#utility.yul\":19826:20185   */\n      pop\n      pop\n        /* \"#utility.yul\":19810:19814   */\n      0x20\n        /* \"#utility.yul\":19805:19808   */\n      dup2\n        /* \"#utility.yul\":19801:19815   */\n      add\n        /* \"#utility.yul\":19794:19815   */\n      swap1\n      pop\n        /* \"#utility.yul\":19750:20185   */\n      jump(tag_668)\n    tag_670:\n        /* \"#utility.yul\":19754:19775   */\n      pop\n        /* \"#utility.yul\":19358:20191   */\n      pop\n      pop\n        /* \"#utility.yul\":19246:20191   */\n      swap4\n      swap3\n      pop\n      pop\n      pop\n      jump\t// out\n        /* \"#utility.yul\":20213:20603   */\n    tag_413:\n        /* \"#utility.yul\":20294:20299   */\n      0x00\n        /* \"#utility.yul\":20343:20346   */\n      dup3\n        /* \"#utility.yul\":20336:20340   */\n      0x1f\n        /* \"#utility.yul\":20328:20334   */\n      dup4\n        /* \"#utility.yul\":20324:20341   */\n      add\n        /* \"#utility.yul\":20320:20347   */\n      slt\n        /* \"#utility.yul\":20310:20432   */\n      tag_675\n      jumpi\n        /* \"#utility.yul\":20351:20430   */\n      tag_676\n      tag_370\n      jump\t// in\n    tag_676:\n        /* \"#utility.yul\":20310:20432   */\n    tag_675:\n        /* \"#utility.yul\":20468:20474   */\n      dup2\n        /* \"#utility.yul\":20455:20475   */\n      calldataload\n        /* \"#utility.yul\":20493:20597   */\n      tag_677\n        /* \"#utility.yul\":20593:20596   */\n      dup5\n        /* \"#utility.yul\":20585:20591   */\n      dup3\n        /* \"#utility.yul\":20578:20582   */\n      0x20\n        /* \"#utility.yul\":20570:20576   */\n      dup7\n        /* \"#utility.yul\":20566:20583   */\n      add\n        /* \"#utility.yul\":20493:20597   */\n      tag_412\n      jump\t// in\n    tag_677:\n        /* \"#utility.yul\":20484:20597   */\n      swap2\n      pop\n        /* \"#utility.yul\":20300:20603   */\n      pop\n        /* \"#utility.yul\":20213:20603   */\n      swap3\n      swap2\n      pop\n      pop\n      jump\t// out\n        /* \"#utility.yul\":20609:22224   */\n    tag_108:\n        /* \"#utility.yul\":20800:20806   */\n      0x00\n        /* \"#utility.yul\":20808:20814   */\n      dup1\n        /* \"#utility.yul\":20816:20822   */\n      0x00\n        /* \"#utility.yul\":20824:20830   */\n      dup1\n        /* \"#utility.yul\":20873:20876   */\n      0x80\n        /* \"#utility.yul\":20861:20870   */\n      dup6\n        /* \"#utility.yul\":20852:20859   */\n      dup8\n        /* \"#utility.yul\":20848:20871   */\n      sub\n        /* \"#utility.yul\":20844:20877   */\n      slt\n        /* \"#utility.yul\":20841:20961   */\n      iszero\n      tag_679\n      jumpi\n        /* \"#utility.yul\":20880:20959   */\n      tag_680\n      tag_365\n      jump\t// in\n    tag_680:\n        /* \"#utility.yul\":20841:20961   */\n    tag_679:\n        /* \"#utility.yul\":21028:21029   */\n      0x00\n        /* \"#utility.yul\":21017:21026   */\n      dup6\n        /* \"#utility.yul\":21013:21030   */\n      add\n        /* \"#utility.yul\":21000:21031   */\n      calldataload\n        /* \"#utility.yul\":21058:21076   */\n      0xffffffffffffffff\n        /* \"#utility.yul\":21050:21056   */\n      dup2\n        /* \"#utility.yul\":21047:21077   */\n      gt\n        /* \"#utility.yul\":21044:21161   */\n      iszero\n      tag_681\n      jumpi\n        /* \"#utility.yul\":21080:21159   */\n      tag_682\n      tag_366\n      jump\t// in\n    tag_682:\n        /* \"#utility.yul\":21044:21161   */\n    tag_681:\n        /* \"#utility.yul\":21185:21263   */\n      tag_683\n        /* \"#utility.yul\":21255:21262   */\n      dup8\n        /* \"#utility.yul\":21246:21252   */\n      dup3\n        /* \"#utility.yul\":21235:21244   */\n      dup9\n        /* \"#utility.yul\":21231:21253   */\n      add\n        /* \"#utility.yul\":21185:21263   */\n      tag_410\n      jump\t// in\n    tag_683:\n        /* \"#utility.yul\":21175:21263   */\n      swap5\n      pop\n        /* \"#utility.yul\":20971:21273   */\n      pop\n        /* \"#utility.yul\":21340:21342   */\n      0x20\n        /* \"#utility.yul\":21329:21338   */\n      dup6\n        /* \"#utility.yul\":21325:21343   */\n      add\n        /* \"#utility.yul\":21312:21344   */\n      calldataload\n        /* \"#utility.yul\":21371:21389   */\n      0xffffffffffffffff\n        /* \"#utility.yul\":21363:21369   */\n      dup2\n        /* \"#utility.yul\":21360:21390   */\n      gt\n        /* \"#utility.yul\":21357:21474   */\n      iszero\n      tag_684\n      jumpi\n        /* \"#utility.yul\":21393:21472   */\n      tag_685\n      tag_366\n      jump\t// in\n    tag_685:\n        /* \"#utility.yul\":21357:21474   */\n    tag_684:\n        /* \"#utility.yul\":21498:21586   */\n      tag_686\n        /* \"#utility.yul\":21578:21585   */\n      dup8\n        /* \"#utility.yul\":21569:21575   */\n      dup3\n        /* \"#utility.yul\":21558:21567   */\n      dup9\n        /* \"#utility.yul\":21554:21576   */\n      add\n        /* \"#utility.yul\":21498:21586   */\n      tag_413\n      jump\t// in\n    tag_686:\n        /* \"#utility.yul\":21488:21586   */\n      swap4\n      pop\n        /* \"#utility.yul\":21283:21596   */\n      pop\n        /* \"#utility.yul\":21663:21665   */\n      0x40\n        /* \"#utility.yul\":21652:21661   */\n      dup6\n        /* \"#utility.yul\":21648:21666   */\n      add\n        /* \"#utility.yul\":21635:21667   */\n      calldataload\n        /* \"#utility.yul\":21694:21712   */\n      0xffffffffffffffff\n        /* \"#utility.yul\":21686:21692   */\n      dup2\n        /* \"#utility.yul\":21683:21713   */\n      gt\n        /* \"#utility.yul\":21680:21797   */\n      iszero\n      tag_687\n      jumpi\n        /* \"#utility.yul\":21716:21795   */\n      tag_688\n      tag_366\n      jump\t// in\n    tag_688:\n        /* \"#utility.yul\":21680:21797   */\n    tag_687:\n        /* \"#utility.yul\":21821:21909   */\n      tag_689\n        /* \"#utility.yul\":21901:21908   */\n      dup8\n        /* \"#utility.yul\":21892:21898   */\n      dup3\n        /* \"#utility.yul\":21881:21890   */\n      dup9\n        /* \"#utility.yul\":21877:21899   */\n      add\n        /* \"#utility.yul\":21821:21909   */\n      tag_413\n      jump\t// in\n    tag_689:\n        /* \"#utility.yul\":21811:21909   */\n      swap3\n      pop\n        /* \"#utility.yul\":21606:21919   */\n      pop\n        /* \"#utility.yul\":21986:21988   */\n      0x60\n        /* \"#utility.yul\":21975:21984   */\n      dup6\n        /* \"#utility.yul\":21971:21989   */\n      add\n        /* \"#utility.yul\":21958:21990   */\n      calldataload\n        /* \"#utility.yul\":22017:22035   */\n      0xffffffffffffffff\n        /* \"#utility.yul\":22009:22015   */\n      dup2\n        /* \"#utility.yul\":22006:22036   */\n      gt\n        /* \"#utility.yul\":22003:22120   */\n      iszero\n      tag_690\n      jumpi\n        /* \"#utility.yul\":22039:22118   */\n      tag_691\n      tag_366\n      jump\t// in\n    tag_691:\n        /* \"#utility.yul\":22003:22120   */\n    tag_690:\n        /* \"#utility.yul\":22144:22207   */\n      tag_692\n        /* \"#utility.yul\":22199:22206   */\n      dup8\n        /* \"#utility.yul\":22190:22196   */\n      dup3\n        /* \"#utility.yul\":22179:22188   */\n      dup9\n        /* \"#utility.yul\":22175:22197   */\n      add\n        /* \"#utility.yul\":22144:22207   */\n      tag_379\n      jump\t// in\n    tag_692:\n        /* \"#utility.yul\":22134:22207   */\n      swap2\n      pop\n        /* \"#utility.yul\":21929:22217   */\n      pop\n        /* \"#utility.yul\":20609:22224   */\n      swap3\n      swap6\n      swap2\n      swap5\n      pop\n      swap3\n      pop\n      jump\t// out\n        /* \"#utility.yul\":22230:22394   */\n    tag_414:\n        /* \"#utility.yul\":22370:22386   */\n      0x4e6f7420617574686f72697a6564000000000000000000000000000000000000\n        /* \"#utility.yul\":22366:22367   */\n      0x00\n        /* \"#utility.yul\":22358:22364   */\n      dup3\n        /* \"#utility.yul\":22354:22368   */\n      add\n        /* \"#utility.yul\":22347:22387   */\n      mstore\n        /* \"#utility.yul\":22230:22394   */\n      pop\n      jump\t// out\n        /* \"#utility.yul\":22400:22766   */\n    tag_415:\n        /* \"#utility.yul\":22542:22545   */\n      0x00\n        /* \"#utility.yul\":22563:22630   */\n      tag_695\n        /* \"#utility.yul\":22627:22629   */\n      0x0e\n        /* \"#utility.yul\":22622:22625   */\n      dup4\n        /* \"#utility.yul\":22563:22630   */\n      tag_405\n      jump\t// in\n    tag_695:\n        /* \"#utility.yul\":22556:22630   */\n      swap2\n      pop\n        /* \"#utility.yul\":22639:22732   */\n      tag_696\n        /* \"#utility.yul\":22728:22731   */\n      dup3\n        /* \"#utility.yul\":22639:22732   */\n      tag_414\n      jump\t// in\n    tag_696:\n        /* \"#utility.yul\":22757:22759   */\n      0x20\n        /* \"#utility.yul\":22752:22755   */\n      dup3\n        /* \"#utility.yul\":22748:22760   */\n      add\n        /* \"#utility.yul\":22741:22760   */\n      swap1\n      pop\n        /* \"#utility.yul\":22400:22766   */\n      swap2\n      swap1\n      pop\n      jump\t// out\n        /* \"#utility.yul\":22772:23191   */\n    tag_113:\n        /* \"#utility.yul\":22938:22942   */\n      0x00\n        /* \"#utility.yul\":22976:22978   */\n      0x20\n        /* \"#utility.yul\":22965:22974   */\n      dup3\n        /* \"#utility.yul\":22961:22979   */\n      add\n        /* \"#utility.yul\":22953:22979   */\n      swap1\n      pop\n        /* \"#utility.yul\":23025:23034   */\n      dup2\n        /* \"#utility.yul\":23019:23023   */\n      dup2\n        /* \"#utility.yul\":23015:23035   */\n      sub\n        /* \"#utility.yul\":23011:23012   */\n      0x00\n        /* \"#utility.yul\":23000:23009   */\n      dup4\n        /* \"#utility.yul\":22996:23013   */\n      add\n        /* \"#utility.yul\":22989:23036   */\n      mstore\n        /* \"#utility.yul\":23053:23184   */\n      tag_698\n        /* \"#utility.yul\":23179:23183   */\n      dup2\n        /* \"#utility.yul\":23053:23184   */\n      tag_415\n      jump\t// in\n    tag_698:\n        /* \"#utility.yul\":23045:23184   */\n      swap1\n      pop\n        /* \"#utility.yul\":22772:23191   */\n      swap2\n      swap1\n      pop\n      jump\t// out\n        /* \"#utility.yul\":23197:23366   */\n    tag_416:\n        /* \"#utility.yul\":23337:23358   */\n      0x426174636820646f65736e742065786973747300000000000000000000000000\n        /* \"#utility.yul\":23333:23334   */\n      0x00\n        /* \"#utility.yul\":23325:23331   */\n      dup3\n        /* \"#utility.yul\":23321:23335   */\n      add\n        /* \"#utility.yul\":23314:23359   */\n      mstore\n        /* \"#utility.yul\":23197:23366   */\n      pop\n      jump\t// out\n        /* \"#utility.yul\":23372:23738   */\n    tag_417:\n        /* \"#utility.yul\":23514:23517   */\n      0x00\n        /* \"#utility.yul\":23535:23602   */\n      tag_701\n        /* \"#utility.yul\":23599:23601   */\n      0x13\n        /* \"#utility.yul\":23594:23597   */\n      dup4\n        /* \"#utility.yul\":23535:23602   */\n      tag_405\n      jump\t// in\n    tag_701:\n        /* \"#utility.yul\":23528:23602   */\n      swap2\n      pop\n        /* \"#utility.yul\":23611:23704   */\n      tag_702\n        /* \"#utility.yul\":23700:23703   */\n      dup3\n        /* \"#utility.yul\":23611:23704   */\n      tag_416\n      jump\t// in\n    tag_702:\n        /* \"#utility.yul\":23729:23731   */\n      0x20\n        /* \"#utility.yul\":23724:23727   */\n      dup3\n        /* \"#utility.yul\":23720:23732   */\n      add\n        /* \"#utility.yul\":23713:23732   */\n      swap1\n      pop\n        /* \"#utility.yul\":23372:23738   */\n      swap2\n      swap1\n      pop\n      jump\t// out\n        /* \"#utility.yul\":23744:24163   */\n    tag_118:\n        /* \"#utility.yul\":23910:23914   */\n      0x00\n        /* \"#utility.yul\":23948:23950   */\n      0x20\n        /* \"#utility.yul\":23937:23946   */\n      dup3\n        /* \"#utility.yul\":23933:23951   */\n      add\n        /* \"#utility.yul\":23925:23951   */\n      swap1\n      pop\n        /* \"#utility.yul\":23997:24006   */\n      dup2\n        /* \"#utility.yul\":23991:23995   */\n      dup2\n        /* \"#utility.yul\":23987:24007   */\n      sub\n        /* \"#utility.yul\":23983:23984   */\n      0x00\n        /* \"#utility.yul\":23972:23981   */\n      dup4\n        /* \"#utility.yul\":23968:23985   */\n      add\n        /* \"#utility.yul\":23961:24008   */\n      mstore\n        /* \"#utility.yul\":24025:24156   */\n      tag_704\n        /* \"#utility.yul\":24151:24155   */\n      dup2\n        /* \"#utility.yul\":24025:24156   */\n      tag_417\n      jump\t// in\n    tag_704:\n        /* \"#utility.yul\":24017:24156   */\n      swap1\n      pop\n        /* \"#utility.yul\":23744:24163   */\n      swap2\n      swap1\n      pop\n      jump\t// out\n        /* \"#utility.yul\":24169:24341   */\n    tag_418:\n        /* \"#utility.yul\":24309:24333   */\n      0x426174636820616c726561647920726563616c6c656400000000000000000000\n        /* \"#utility.yul\":24305:24306   */\n      0x00\n        /* \"#utility.yul\":24297:24303   */\n      dup3\n        /* \"#utility.yul\":24293:24307   */\n      add\n        /* \"#utility.yul\":24286:24334   */\n      mstore\n        /* \"#utility.yul\":24169:24341   */\n      pop\n      jump\t// out\n        /* \"#utility.yul\":24347:24713   */\n    tag_419:\n        /* \"#utility.yul\":24489:24492   */\n      0x00\n        /* \"#utility.yul\":24510:24577   */\n      tag_707\n        /* \"#utility.yul\":24574:24576   */\n      0x16\n        /* \"#utility.yul\":24569:24572   */\n      dup4\n        /* \"#utility.yul\":24510:24577   */\n      tag_405\n      jump\t// in\n    tag_707:\n        /* \"#utility.yul\":24503:24577   */\n      swap2\n      pop\n        /* \"#utility.yul\":24586:24679   */\n      tag_708\n        /* \"#utility.yul\":24675:24678   */\n      dup3\n        /* \"#utility.yul\":24586:24679   */\n      tag_418\n      jump\t// in\n    tag_708:\n        /* \"#utility.yul\":24704:24706   */\n      0x20\n        /* \"#utility.yul\":24699:24702   */\n      dup3\n        /* \"#utility.yul\":24695:24707   */\n      add\n        /* \"#utility.yul\":24688:24707   */\n      swap1\n      pop\n        /* \"#utility.yul\":24347:24713   */\n      swap2\n      swap1\n      pop\n      jump\t// out\n        /* \"#utility.yul\":24719:25138   */\n    tag_121:\n        /* \"#utility.yul\":24885:24889   */\n      0x00\n        /* \"#utility.yul\":24923:24925   */\n      0x20\n        /* \"#utility.yul\":24912:24921   */\n      dup3\n        /* \"#utility.yul\":24908:24926   */\n      add\n        /* \"#utility.yul\":24900:24926   */\n      swap1\n      pop\n        /* \"#utility.yul\":24972:24981   */\n      dup2\n        /* \"#utility.yul\":24966:24970   */\n      dup2\n        /* \"#utility.yul\":24962:24982   */\n      sub\n        /* \"#utility.yul\":24958:24959   */\n      0x00\n        /* \"#utility.yul\":24947:24956   */\n      dup4\n        /* \"#utility.yul\":24943:24960   */\n      add\n        /* \"#utility.yul\":24936:24983   */\n      mstore\n        /* \"#utility.yul\":25000:25131   */\n      tag_710\n        /* \"#utility.yul\":25126:25130   */\n      dup2\n        /* \"#utility.yul\":25000:25131   */\n      tag_419\n      jump\t// in\n    tag_710:\n        /* \"#utility.yul\":24992:25131   */\n      swap1\n      pop\n        /* \"#utility.yul\":24719:25138   */\n      swap2\n      swap1\n      pop\n      jump\t// out\n        /* \"#utility.yul\":25144:25312   */\n    tag_420:\n        /* \"#utility.yul\":25284:25304   */\n      0x426174636820646f65736e742065786973740000000000000000000000000000\n        /* \"#utility.yul\":25280:25281   */\n      0x00\n        /* \"#utility.yul\":25272:25278   */\n      dup3\n        /* \"#utility.yul\":25268:25282   */\n      add\n        /* \"#utility.yul\":25261:25305   */\n      mstore\n        /* \"#utility.yul\":25144:25312   */\n      pop\n      jump\t// out\n        /* \"#utility.yul\":25318:25684   */\n    tag_421:\n        /* \"#utility.yul\":25460:25463   */\n      0x00\n        /* \"#utility.yul\":25481:25548   */\n      tag_713\n        /* \"#utility.yul\":25545:25547   */\n      0x12\n        /* \"#utility.yul\":25540:25543   */\n      dup4\n        /* \"#utility.yul\":25481:25548   */\n      tag_405\n      jump\t// in\n    tag_713:\n        /* \"#utility.yul\":25474:25548   */\n      swap2\n      pop\n        /* \"#utility.yul\":25557:25650   */\n      tag_714\n        /* \"#utility.yul\":25646:25649   */\n      dup3\n        /* \"#utility.yul\":25557:25650   */\n      tag_420\n      jump\t// in\n    tag_714:\n        /* \"#utility.yul\":25675:25677   */\n      0x20\n        /* \"#utility.yul\":25670:25673   */\n      dup3\n        /* \"#utility.yul\":25666:25678   */\n      add\n        /* \"#utility.yul\":25659:25678   */\n      swap1\n      pop\n        /* \"#utility.yul\":25318:25684   */\n      swap2\n      swap1\n      pop\n      jump\t// out\n        /* \"#utility.yul\":25690:26109   */\n    tag_129:\n        /* \"#utility.yul\":25856:25860   */\n      0x00\n        /* \"#utility.yul\":25894:25896   */\n      0x20\n        /* \"#utility.yul\":25883:25892   */\n      dup3\n        /* \"#utility.yul\":25879:25897   */\n      add\n        /* \"#utility.yul\":25871:25897   */\n      swap1\n      pop\n        /* \"#utility.yul\":25943:25952   */\n      dup2\n        /* \"#utility.yul\":25937:25941   */\n      dup2\n        /* \"#utility.yul\":25933:25953   */\n      sub\n        /* \"#utility.yul\":25929:25930   */\n      0x00\n        /* \"#utility.yul\":25918:25927   */\n      dup4\n        /* \"#utility.yul\":25914:25931   */\n      add\n        /* \"#utility.yul\":25907:25954   */\n      mstore\n        /* \"#utility.yul\":25971:26102   */\n      tag_716\n        /* \"#utility.yul\":26097:26101   */\n      dup2\n        /* \"#utility.yul\":25971:26102   */\n      tag_421\n      jump\t// in\n    tag_716:\n        /* \"#utility.yul\":25963:26102   */\n      swap1\n      pop\n        /* \"#utility.yul\":25690:26109   */\n      swap2\n      swap1\n      pop\n      jump\t// out\n        /* \"#utility.yul\":26115:26340   */\n    tag_422:\n        /* \"#utility.yul\":26255:26289   */\n      0x426174636820526563616c6c65642c206f7065726174696f6e2063616e742062\n        /* \"#utility.yul\":26251:26252   */\n      0x00\n        /* \"#utility.yul\":26243:26249   */\n      dup3\n        /* \"#utility.yul\":26239:26253   */\n      add\n        /* \"#utility.yul\":26232:26290   */\n      mstore\n        /* \"#utility.yul\":26324:26332   */\n      0x6520646f6e650000000000000000000000000000000000000000000000000000\n        /* \"#utility.yul\":26319:26321   */\n      0x20\n        /* \"#utility.yul\":26311:26317   */\n      dup3\n        /* \"#utility.yul\":26307:26322   */\n      add\n        /* \"#utility.yul\":26300:26333   */\n      mstore\n        /* \"#utility.yul\":26115:26340   */\n      pop\n      jump\t// out\n        /* \"#utility.yul\":26346:26712   */\n    tag_423:\n        /* \"#utility.yul\":26488:26491   */\n      0x00\n        /* \"#utility.yul\":26509:26576   */\n      tag_719\n        /* \"#utility.yul\":26573:26575   */\n      0x26\n        /* \"#utility.yul\":26568:26571   */\n      dup4\n        /* \"#utility.yul\":26509:26576   */\n      tag_405\n      jump\t// in\n    tag_719:\n        /* \"#utility.yul\":26502:26576   */\n      swap2\n      pop\n        /* \"#utility.yul\":26585:26678   */\n      tag_720\n        /* \"#utility.yul\":26674:26677   */\n      dup3\n        /* \"#utility.yul\":26585:26678   */\n      tag_422\n      jump\t// in\n    tag_720:\n        /* \"#utility.yul\":26703:26705   */\n      0x40\n        /* \"#utility.yul\":26698:26701   */\n      dup3\n        /* \"#utility.yul\":26694:26706   */\n      add\n        /* \"#utility.yul\":26687:26706   */\n      swap1\n      pop\n        /* \"#utility.yul\":26346:26712   */\n      swap2\n      swap1\n      pop\n      jump\t// out\n        /* \"#utility.yul\":26718:27137   */\n    tag_133:\n        /* \"#utility.yul\":26884:26888   */\n      0x00\n        /* \"#utility.yul\":26922:26924   */\n      0x20\n        /* \"#utility.yul\":26911:26920   */\n      dup3\n        /* \"#utility.yul\":26907:26925   */\n      add\n        /* \"#utility.yul\":26899:26925   */\n      swap1\n      pop\n        /* \"#utility.yul\":26971:26980   */\n      dup2\n        /* \"#utility.yul\":26965:26969   */\n      dup2\n        /* \"#utility.yul\":26961:26981   */\n      sub\n        /* \"#utility.yul\":26957:26958   */\n      0x00\n        /* \"#utility.yul\":26946:26955   */\n      dup4\n        /* \"#utility.yul\":26942:26959   */\n      add\n        /* \"#utility.yul\":26935:26982   */\n      mstore\n        /* \"#utility.yul\":26999:27130   */\n      tag_722\n        /* \"#utility.yul\":27125:27129   */\n      dup2\n        /* \"#utility.yul\":26999:27130   */\n      tag_423\n      jump\t// in\n    tag_722:\n        /* \"#utility.yul\":26991:27130   */\n      swap1\n      pop\n        /* \"#utility.yul\":26718:27137   */\n      swap2\n      swap1\n      pop\n      jump\t// out\n        /* \"#utility.yul\":27143:27323   */\n    tag_140:\n        /* \"#utility.yul\":27191:27268   */\n      0x4e487b7100000000000000000000000000000000000000000000000000000000\n        /* \"#utility.yul\":27188:27189   */\n      0x00\n        /* \"#utility.yul\":27181:27269   */\n      mstore\n        /* \"#utility.yul\":27288:27292   */\n      0x32\n        /* \"#utility.yul\":27285:27286   */\n      0x04\n        /* \"#utility.yul\":27278:27293   */\n      mstore\n        /* \"#utility.yul\":27312:27316   */\n      0x24\n        /* \"#utility.yul\":27309:27310   */\n      0x00\n        /* \"#utility.yul\":27302:27317   */\n      revert\n        /* \"#utility.yul\":27329:27509   */\n    tag_424:\n        /* \"#utility.yul\":27377:27454   */\n      0x4e487b7100000000000000000000000000000000000000000000000000000000\n        /* \"#utility.yul\":27374:27375   */\n      0x00\n        /* \"#utility.yul\":27367:27455   */\n      mstore\n        /* \"#utility.yul\":27474:27478   */\n      0x22\n        /* \"#utility.yul\":27471:27472   */\n      0x04\n        /* \"#utility.yul\":27464:27479   */\n      mstore\n        /* \"#utility.yul\":27498:27502   */\n      0x24\n        /* \"#utility.yul\":27495:27496   */\n      0x00\n        /* \"#utility.yul\":27488:27503   */\n      revert\n        /* \"#utility.yul\":27515:27835   */\n    tag_143:\n        /* \"#utility.yul\":27559:27565   */\n      0x00\n        /* \"#utility.yul\":27596:27597   */\n      0x02\n        /* \"#utility.yul\":27590:27594   */\n      dup3\n        /* \"#utility.yul\":27586:27598   */\n      div\n        /* \"#utility.yul\":27576:27598   */\n      swap1\n      pop\n        /* \"#utility.yul\":27643:27644   */\n      0x01\n        /* \"#utility.yul\":27637:27641   */\n      dup3\n        /* \"#utility.yul\":27633:27645   */\n      and\n        /* \"#utility.yul\":27664:27682   */\n      dup1\n        /* \"#utility.yul\":27654:27735   */\n      tag_726\n      jumpi\n        /* \"#utility.yul\":27720:27724   */\n      0x7f\n        /* \"#utility.yul\":27712:27718   */\n      dup3\n        /* \"#utility.yul\":27708:27725   */\n      and\n        /* \"#utility.yul\":27698:27725   */\n      swap2\n      pop\n        /* \"#utility.yul\":27654:27735   */\n    tag_726:\n        /* \"#utility.yul\":27782:27784   */\n      0x20\n        /* \"#utility.yul\":27774:27780   */\n      dup3\n        /* \"#utility.yul\":27771:27785   */\n      lt\n        /* \"#utility.yul\":27751:27769   */\n      dup2\n        /* \"#utility.yul\":27748:27786   */\n      sub\n        /* \"#utility.yul\":27745:27829   */\n      tag_727\n      jumpi\n        /* \"#utility.yul\":27801:27819   */\n      tag_728\n      tag_424\n      jump\t// in\n    tag_728:\n        /* \"#utility.yul\":27745:27829   */\n    tag_727:\n        /* \"#utility.yul\":27566:27835   */\n      pop\n        /* \"#utility.yul\":27515:27835   */\n      swap2\n      swap1\n      pop\n      jump\t// out\n        /* \"#utility.yul\":27841:28008   */\n    tag_425:\n        /* \"#utility.yul\":27981:28000   */\n      0x496e76616c6964206f7065726174696f6e000000000000000000000000000000\n        /* \"#utility.yul\":27977:27978   */\n      0x00\n        /* \"#utility.yul\":27969:27975   */\n      dup3\n        /* \"#utility.yul\":27965:27979   */\n      add\n        /* \"#utility.yul\":27958:28001   */\n      mstore\n        /* \"#utility.yul\":27841:28008   */\n      pop\n      jump\t// out\n        /* \"#utility.yul\":28014:28380   */\n    tag_426:\n        /* \"#utility.yul\":28156:28159   */\n      0x00\n        /* \"#utility.yul\":28177:28244   */\n      tag_731\n        /* \"#utility.yul\":28241:28243   */\n      0x11\n        /* \"#utility.yul\":28236:28239   */\n      dup4\n        /* \"#utility.yul\":28177:28244   */\n      tag_405\n      jump\t// in\n    tag_731:\n        /* \"#utility.yul\":28170:28244   */\n      swap2\n      pop\n        /* \"#utility.yul\":28253:28346   */\n      tag_732\n        /* \"#utility.yul\":28342:28345   */\n      dup3\n        /* \"#utility.yul\":28253:28346   */\n      tag_425\n      jump\t// in\n    tag_732:\n        /* \"#utility.yul\":28371:28373   */\n      0x20\n        /* \"#utility.yul\":28366:28369   */\n      dup3\n        /* \"#utility.yul\":28362:28374   */\n      add\n        /* \"#utility.yul\":28355:28374   */\n      swap1\n      pop\n        /* \"#utility.yul\":28014:28380   */\n      swap2\n      swap1\n      pop\n      jump\t// out\n        /* \"#utility.yul\":28386:28805   */\n    tag_181:\n        /* \"#utility.yul\":28552:28556   */\n      0x00\n        /* \"#utility.yul\":28590:28592   */\n      0x20\n        /* \"#utility.yul\":28579:28588   */\n      dup3\n        /* \"#utility.yul\":28575:28593   */\n      add\n        /* \"#utility.yul\":28567:28593   */\n      swap1\n      pop\n        /* \"#utility.yul\":28639:28648   */\n      dup2\n        /* \"#utility.yul\":28633:28637   */\n      dup2\n        /* \"#utility.yul\":28629:28649   */\n      sub\n        /* \"#utility.yul\":28625:28626   */\n      0x00\n        /* \"#utility.yul\":28614:28623   */\n      dup4\n        /* \"#utility.yul\":28610:28627   */\n      add\n        /* \"#utility.yul\":28603:28650   */\n      mstore\n        /* \"#utility.yul\":28667:28798   */\n      tag_734\n        /* \"#utility.yul\":28793:28797   */\n      dup2\n        /* \"#utility.yul\":28667:28798   */\n      tag_426\n      jump\t// in\n    tag_734:\n        /* \"#utility.yul\":28659:28798   */\n      swap1\n      pop\n        /* \"#utility.yul\":28386:28805   */\n      swap2\n      swap1\n      pop\n      jump\t// out\n        /* \"#utility.yul\":28811:28952   */\n    tag_427:\n        /* \"#utility.yul\":28860:28864   */\n      0x00\n        /* \"#utility.yul\":28883:28886   */\n      dup2\n        /* \"#utility.yul\":28875:28886   */\n      swap1\n      pop\n        /* \"#utility.yul\":28906:28909   */\n      dup2\n        /* \"#utility.yul\":28903:28904   */\n      0x00\n        /* \"#utility.yul\":28896:28910   */\n      mstore\n        /* \"#utility.yul\":28940:28944   */\n      0x20\n        /* \"#utility.yul\":28937:28938   */\n      0x00\n        /* \"#utility.yul\":28927:28945   */\n      keccak256\n        /* \"#utility.yul\":28919:28945   */\n      swap1\n      pop\n        /* \"#utility.yul\":28811:28952   */\n      swap2\n      swap1\n      pop\n      jump\t// out\n        /* \"#utility.yul\":28982:29813   */\n    tag_428:\n        /* \"#utility.yul\":29067:29070   */\n      0x00\n        /* \"#utility.yul\":29104:29109   */\n      dup2\n        /* \"#utility.yul\":29098:29110   */\n      sload\n        /* \"#utility.yul\":29133:29169   */\n      tag_737\n        /* \"#utility.yul\":29159:29168   */\n      dup2\n        /* \"#utility.yul\":29133:29169   */\n      tag_143\n      jump\t// in\n    tag_737:\n        /* \"#utility.yul\":29185:29256   */\n      tag_738\n        /* \"#utility.yul\":29249:29255   */\n      dup2\n        /* \"#utility.yul\":29244:29247   */\n      dup7\n        /* \"#utility.yul\":29185:29256   */\n      tag_405\n      jump\t// in\n    tag_738:\n        /* \"#utility.yul\":29178:29256   */\n      swap5\n      pop\n        /* \"#utility.yul\":29287:29288   */\n      0x01\n        /* \"#utility.yul\":29276:29285   */\n      dup3\n        /* \"#utility.yul\":29272:29289   */\n      and\n        /* \"#utility.yul\":29303:29304   */\n      0x00\n        /* \"#utility.yul\":29298:29462   */\n      dup2\n      eq\n      tag_740\n      jumpi\n        /* \"#utility.yul\":29476:29477   */\n      0x01\n        /* \"#utility.yul\":29471:29807   */\n      dup2\n      eq\n      tag_741\n      jumpi\n        /* \"#utility.yul\":29265:29807   */\n      jump(tag_739)\n        /* \"#utility.yul\":29298:29462   */\n    tag_740:\n        /* \"#utility.yul\":29382:29386   */\n      0xff\n        /* \"#utility.yul\":29378:29387   */\n      not\n        /* \"#utility.yul\":29367:29376   */\n      dup4\n        /* \"#utility.yul\":29363:29388   */\n      and\n        /* \"#utility.yul\":29358:29361   */\n      dup7\n        /* \"#utility.yul\":29351:29389   */\n      mstore\n        /* \"#utility.yul\":29442:29448   */\n      dup2\n        /* \"#utility.yul\":29435:29449   */\n      iszero\n        /* \"#utility.yul\":29428:29450   */\n      iszero\n        /* \"#utility.yul\":29422:29426   */\n      0x20\n        /* \"#utility.yul\":29418:29451   */\n      mul\n        /* \"#utility.yul\":29413:29416   */\n      dup7\n        /* \"#utility.yul\":29409:29452   */\n      add\n        /* \"#utility.yul\":29402:29452   */\n      swap4\n      pop\n        /* \"#utility.yul\":29298:29462   */\n      jump(tag_739)\n        /* \"#utility.yul\":29471:29807   */\n    tag_741:\n        /* \"#utility.yul\":29538:29576   */\n      tag_742\n        /* \"#utility.yul\":29570:29575   */\n      dup6\n        /* \"#utility.yul\":29538:29576   */\n      tag_427\n      jump\t// in\n    tag_742:\n        /* \"#utility.yul\":29598:29599   */\n      0x00\n        /* \"#utility.yul\":29612:29766   */\n    tag_743:\n        /* \"#utility.yul\":29626:29632   */\n      dup4\n        /* \"#utility.yul\":29623:29624   */\n      dup2\n        /* \"#utility.yul\":29620:29633   */\n      lt\n        /* \"#utility.yul\":29612:29766   */\n      iszero\n      tag_745\n      jumpi\n        /* \"#utility.yul\":29700:29707   */\n      dup2\n        /* \"#utility.yul\":29694:29708   */\n      sload\n        /* \"#utility.yul\":29690:29691   */\n      dup2\n        /* \"#utility.yul\":29685:29688   */\n      dup10\n        /* \"#utility.yul\":29681:29692   */\n      add\n        /* \"#utility.yul\":29674:29709   */\n      mstore\n        /* \"#utility.yul\":29750:29751   */\n      0x01\n        /* \"#utility.yul\":29741:29748   */\n      dup3\n        /* \"#utility.yul\":29737:29752   */\n      add\n        /* \"#utility.yul\":29726:29752   */\n      swap2\n      pop\n        /* \"#utility.yul\":29648:29652   */\n      0x20\n        /* \"#utility.yul\":29645:29646   */\n      dup2\n        /* \"#utility.yul\":29641:29653   */\n      add\n        /* \"#utility.yul\":29636:29653   */\n      swap1\n      pop\n        /* \"#utility.yul\":29612:29766   */\n      jump(tag_743)\n    tag_745:\n        /* \"#utility.yul\":29795:29796   */\n      dup1\n        /* \"#utility.yul\":29790:29793   */\n      dup9\n        /* \"#utility.yul\":29786:29797   */\n      add\n        /* \"#utility.yul\":29779:29797   */\n      swap6\n      pop\n        /* \"#utility.yul\":29478:29807   */\n      pop\n      pop\n        /* \"#utility.yul\":29265:29807   */\n    tag_739:\n      pop\n        /* \"#utility.yul\":29071:29813   */\n      pop\n      pop\n        /* \"#utility.yul\":28982:29813   */\n      swap3\n      swap2\n      pop\n      pop\n      jump\t// out\n        /* \"#utility.yul\":29819:30126   */\n    tag_183:\n        /* \"#utility.yul\":29929:29933   */\n      0x00\n        /* \"#utility.yul\":29967:29969   */\n      0x20\n        /* \"#utility.yul\":29956:29965   */\n      dup3\n        /* \"#utility.yul\":29952:29970   */\n      add\n        /* \"#utility.yul\":29944:29970   */\n      swap1\n      pop\n        /* \"#utility.yul\":30016:30025   */\n      dup2\n        /* \"#utility.yul\":30010:30014   */\n      dup2\n        /* \"#utility.yul\":30006:30026   */\n      sub\n        /* \"#utility.yul\":30002:30003   */\n      0x00\n        /* \"#utility.yul\":29991:30000   */\n      dup4\n        /* \"#utility.yul\":29987:30004   */\n      add\n        /* \"#utility.yul\":29980:30027   */\n      mstore\n        /* \"#utility.yul\":30044:30119   */\n      tag_747\n        /* \"#utility.yul\":30114:30118   */\n      dup2\n        /* \"#utility.yul\":30105:30111   */\n      dup5\n        /* \"#utility.yul\":30044:30119   */\n      tag_428\n      jump\t// in\n    tag_747:\n        /* \"#utility.yul\":30036:30119   */\n      swap1\n      pop\n        /* \"#utility.yul\":29819:30126   */\n      swap3\n      swap2\n      pop\n      pop\n      jump\t// out\n        /* \"#utility.yul\":30132:30298   */\n    tag_429:\n        /* \"#utility.yul\":30272:30290   */\n      0x497420646f65736e742065786973747300000000000000000000000000000000\n        /* \"#utility.yul\":30268:30269   */\n      0x00\n        /* \"#utility.yul\":30260:30266   */\n      dup3\n        /* \"#utility.yul\":30256:30270   */\n      add\n        /* \"#utility.yul\":30249:30291   */\n      mstore\n        /* \"#utility.yul\":30132:30298   */\n      pop\n      jump\t// out\n        /* \"#utility.yul\":30304:30670   */\n    tag_430:\n        /* \"#utility.yul\":30446:30449   */\n      0x00\n        /* \"#utility.yul\":30467:30534   */\n      tag_750\n        /* \"#utility.yul\":30531:30533   */\n      0x10\n        /* \"#utility.yul\":30526:30529   */\n      dup4\n        /* \"#utility.yul\":30467:30534   */\n      tag_405\n      jump\t// in\n    tag_750:\n        /* \"#utility.yul\":30460:30534   */\n      swap2\n      pop\n        /* \"#utility.yul\":30543:30636   */\n      tag_751\n        /* \"#utility.yul\":30632:30635   */\n      dup3\n        /* \"#utility.yul\":30543:30636   */\n      tag_429\n      jump\t// in\n    tag_751:\n        /* \"#utility.yul\":30661:30663   */\n      0x20\n        /* \"#utility.yul\":30656:30659   */\n      dup3\n        /* \"#utility.yul\":30652:30664   */\n      add\n        /* \"#utility.yul\":30645:30664   */\n      swap1\n      pop\n        /* \"#utility.yul\":30304:30670   */\n      swap2\n      swap1\n      pop\n      jump\t// out\n        /* \"#utility.yul\":30676:31095   */\n    tag_188:\n        /* \"#utility.yul\":30842:30846   */\n      0x00\n        /* \"#utility.yul\":30880:30882   */\n      0x20\n        /* \"#utility.yul\":30869:30878   */\n      dup3\n        /* \"#utility.yul\":30865:30883   */\n      add\n        /* \"#utility.yul\":30857:30883   */\n      swap1\n      pop\n        /* \"#utility.yul\":30929:30938   */\n      dup2\n        /* \"#utility.yul\":30923:30927   */\n      dup2\n        /* \"#utility.yul\":30919:30939   */\n      sub\n        /* \"#utility.yul\":30915:30916   */\n      0x00\n        /* \"#utility.yul\":30904:30913   */\n      dup4\n        /* \"#utility.yul\":30900:30917   */\n      add\n        /* \"#utility.yul\":30893:30940   */\n      mstore\n        /* \"#utility.yul\":30957:31088   */\n      tag_753\n        /* \"#utility.yul\":31083:31087   */\n      dup2\n        /* \"#utility.yul\":30957:31088   */\n      tag_430\n      jump\t// in\n    tag_753:\n        /* \"#utility.yul\":30949:31088   */\n      swap1\n      pop\n        /* \"#utility.yul\":30676:31095   */\n      swap2\n      swap1\n      pop\n      jump\t// out\n        /* \"#utility.yul\":31101:31269   */\n    tag_431:\n        /* \"#utility.yul\":31241:31261   */\n      0x496e76616c69642070726f647563742049440000000000000000000000000000\n        /* \"#utility.yul\":31237:31238   */\n      0x00\n        /* \"#utility.yul\":31229:31235   */\n      dup3\n        /* \"#utility.yul\":31225:31239   */\n      add\n        /* \"#utility.yul\":31218:31262   */\n      mstore\n        /* \"#utility.yul\":31101:31269   */\n      pop\n      jump\t// out\n        /* \"#utility.yul\":31275:31641   */\n    tag_432:\n        /* \"#utility.yul\":31417:31420   */\n      0x00\n        /* \"#utility.yul\":31438:31505   */\n      tag_756\n        /* \"#utility.yul\":31502:31504   */\n      0x12\n        /* \"#utility.yul\":31497:31500   */\n      dup4\n        /* \"#utility.yul\":31438:31505   */\n      tag_405\n      jump\t// in\n    tag_756:\n        /* \"#utility.yul\":31431:31505   */\n      swap2\n      pop\n        /* \"#utility.yul\":31514:31607   */\n      tag_757\n        /* \"#utility.yul\":31603:31606   */\n      dup3\n        /* \"#utility.yul\":31514:31607   */\n      tag_431\n      jump\t// in\n    tag_757:\n        /* \"#utility.yul\":31632:31634   */\n      0x20\n        /* \"#utility.yul\":31627:31630   */\n      dup3\n        /* \"#utility.yul\":31623:31635   */\n      add\n        /* \"#utility.yul\":31616:31635   */\n      swap1\n      pop\n        /* \"#utility.yul\":31275:31641   */\n      swap2\n      swap1\n      pop\n      jump\t// out\n        /* \"#utility.yul\":31647:32066   */\n    tag_240:\n        /* \"#utility.yul\":31813:31817   */\n      0x00\n        /* \"#utility.yul\":31851:31853   */\n      0x20\n        /* \"#utility.yul\":31840:31849   */\n      dup3\n        /* \"#utility.yul\":31836:31854   */\n      add\n        /* \"#utility.yul\":31828:31854   */\n      swap1\n      pop\n        /* \"#utility.yul\":31900:31909   */\n      dup2\n        /* \"#utility.yul\":31894:31898   */\n      dup2\n        /* \"#utility.yul\":31890:31910   */\n      sub\n        /* \"#utility.yul\":31886:31887   */\n      0x00\n        /* \"#utility.yul\":31875:31884   */\n      dup4\n        /* \"#utility.yul\":31871:31888   */\n      add\n        /* \"#utility.yul\":31864:31911   */\n      mstore\n        /* \"#utility.yul\":31928:32059   */\n      tag_759\n        /* \"#utility.yul\":32054:32058   */\n      dup2\n        /* \"#utility.yul\":31928:32059   */\n      tag_432\n      jump\t// in\n    tag_759:\n        /* \"#utility.yul\":31920:32059   */\n      swap1\n      pop\n        /* \"#utility.yul\":31647:32066   */\n      swap2\n      swap1\n      pop\n      jump\t// out\n        /* \"#utility.yul\":32072:32298   */\n    tag_433:\n        /* \"#utility.yul\":32212:32246   */\n      0x526563616c6c65642070726f64756374732063616e6e6f74206265207472616e\n        /* \"#utility.yul\":32208:32209   */\n      0x00\n        /* \"#utility.yul\":32200:32206   */\n      dup3\n        /* \"#utility.yul\":32196:32210   */\n      add\n        /* \"#utility.yul\":32189:32247   */\n      mstore\n        /* \"#utility.yul\":32281:32290   */\n      0x7366657272656400000000000000000000000000000000000000000000000000\n        /* \"#utility.yul\":32276:32278   */\n      0x20\n        /* \"#utility.yul\":32268:32274   */\n      dup3\n        /* \"#utility.yul\":32264:32279   */\n      add\n        /* \"#utility.yul\":32257:32291   */\n      mstore\n        /* \"#utility.yul\":32072:32298   */\n      pop\n      jump\t// out\n        /* \"#utility.yul\":32304:32670   */\n    tag_434:\n        /* \"#utility.yul\":32446:32449   */\n      0x00\n        /* \"#utility.yul\":32467:32534   */\n      tag_762\n        /* \"#utility.yul\":32531:32533   */\n      0x27\n        /* \"#utility.yul\":32526:32529   */\n      dup4\n        /* \"#utility.yul\":32467:32534   */\n      tag_405\n      jump\t// in\n    tag_762:\n        /* \"#utility.yul\":32460:32534   */\n      swap2\n      pop\n        /* \"#utility.yul\":32543:32636   */\n      tag_763\n        /* \"#utility.yul\":32632:32635   */\n      dup3\n        /* \"#utility.yul\":32543:32636   */\n      tag_433\n      jump\t// in\n    tag_763:\n        /* \"#utility.yul\":32661:32663   */\n      0x40\n        /* \"#utility.yul\":32656:32659   */\n      dup3\n        /* \"#utility.yul\":32652:32664   */\n      add\n        /* \"#utility.yul\":32645:32664   */\n      swap1\n      pop\n        /* \"#utility.yul\":32304:32670   */\n      swap2\n      swap1\n      pop\n      jump\t// out\n        /* \"#utility.yul\":32676:33095   */\n    tag_243:\n        /* \"#utility.yul\":32842:32846   */\n      0x00\n        /* \"#utility.yul\":32880:32882   */\n      0x20\n        /* \"#utility.yul\":32869:32878   */\n      dup3\n        /* \"#utility.yul\":32865:32883   */\n      add\n        /* \"#utility.yul\":32857:32883   */\n      swap1\n      pop\n        /* \"#utility.yul\":32929:32938   */\n      dup2\n        /* \"#utility.yul\":32923:32927   */\n      dup2\n        /* \"#utility.yul\":32919:32939   */\n      sub\n        /* \"#utility.yul\":32915:32916   */\n      0x00\n        /* \"#utility.yul\":32904:32913   */\n      dup4\n        /* \"#utility.yul\":32900:32917   */\n      add\n        /* \"#utility.yul\":32893:32940   */\n      mstore\n        /* \"#utility.yul\":32957:33088   */\n      tag_765\n        /* \"#utility.yul\":33083:33087   */\n      dup2\n        /* \"#utility.yul\":32957:33088   */\n      tag_434\n      jump\t// in\n    tag_765:\n        /* \"#utility.yul\":32949:33088   */\n      swap1\n      pop\n        /* \"#utility.yul\":32676:33095   */\n      swap2\n      swap1\n      pop\n      jump\t// out\n        /* \"#utility.yul\":33101:33276   */\n    tag_435:\n        /* \"#utility.yul\":33241:33268   */\n      0x496e76616c6964206e6577206f776e6572206164647265737300000000000000\n        /* \"#utility.yul\":33237:33238   */\n      0x00\n        /* \"#utility.yul\":33229:33235   */\n      dup3\n        /* \"#utility.yul\":33225:33239   */\n      add\n        /* \"#utility.yul\":33218:33269   */\n      mstore\n        /* \"#utility.yul\":33101:33276   */\n      pop\n      jump\t// out\n        /* \"#utility.yul\":33282:33648   */\n    tag_436:\n        /* \"#utility.yul\":33424:33427   */\n      0x00\n        /* \"#utility.yul\":33445:33512   */\n      tag_768\n        /* \"#utility.yul\":33509:33511   */\n      0x19\n        /* \"#utility.yul\":33504:33507   */\n      dup4\n        /* \"#utility.yul\":33445:33512   */\n      tag_405\n      jump\t// in\n    tag_768:\n        /* \"#utility.yul\":33438:33512   */\n      swap2\n      pop\n        /* \"#utility.yul\":33521:33614   */\n      tag_769\n        /* \"#utility.yul\":33610:33613   */\n      dup3\n        /* \"#utility.yul\":33521:33614   */\n      tag_435\n      jump\t// in\n    tag_769:\n        /* \"#utility.yul\":33639:33641   */\n      0x20\n        /* \"#utility.yul\":33634:33637   */\n      dup3\n        /* \"#utility.yul\":33630:33642   */\n      add\n        /* \"#utility.yul\":33623:33642   */\n      swap1\n      pop\n        /* \"#utility.yul\":33282:33648   */\n      swap2\n      swap1\n      pop\n      jump\t// out\n        /* \"#utility.yul\":33654:34073   */\n    tag_246:\n        /* \"#utility.yul\":33820:33824   */\n      0x00\n        /* \"#utility.yul\":33858:33860   */\n      0x20\n        /* \"#utility.yul\":33847:33856   */\n      dup3\n        /* \"#utility.yul\":33843:33861   */\n      add\n        /* \"#utility.yul\":33835:33861   */\n      swap1\n      pop\n        /* \"#utility.yul\":33907:33916   */\n      dup2\n        /* \"#utility.yul\":33901:33905   */\n      dup2\n        /* \"#utility.yul\":33897:33917   */\n      sub\n        /* \"#utility.yul\":33893:33894   */\n      0x00\n        /* \"#utility.yul\":33882:33891   */\n      dup4\n        /* \"#utility.yul\":33878:33895   */\n      add\n        /* \"#utility.yul\":33871:33918   */\n      mstore\n        /* \"#utility.yul\":33935:34066   */\n      tag_771\n        /* \"#utility.yul\":34061:34065   */\n      dup2\n        /* \"#utility.yul\":33935:34066   */\n      tag_436\n      jump\t// in\n    tag_771:\n        /* \"#utility.yul\":33927:34066   */\n      swap1\n      pop\n        /* \"#utility.yul\":33654:34073   */\n      swap2\n      swap1\n      pop\n      jump\t// out\n        /* \"#utility.yul\":34079:34256   */\n    tag_437:\n        /* \"#utility.yul\":34219:34248   */\n      0x4e6577206f776e6572206973206e6f7420617574686f72697a65640000000000\n        /* \"#utility.yul\":34215:34216   */\n      0x00\n        /* \"#utility.yul\":34207:34213   */\n      dup3\n        /* \"#utility.yul\":34203:34217   */\n      add\n        /* \"#utility.yul\":34196:34249   */\n      mstore\n        /* \"#utility.yul\":34079:34256   */\n      pop\n      jump\t// out\n        /* \"#utility.yul\":34262:34628   */\n    tag_438:\n        /* \"#utility.yul\":34404:34407   */\n      0x00\n        /* \"#utility.yul\":34425:34492   */\n      tag_774\n        /* \"#utility.yul\":34489:34491   */\n      0x1b\n        /* \"#utility.yul\":34484:34487   */\n      dup4\n        /* \"#utility.yul\":34425:34492   */\n      tag_405\n      jump\t// in\n    tag_774:\n        /* \"#utility.yul\":34418:34492   */\n      swap2\n      pop\n        /* \"#utility.yul\":34501:34594   */\n      tag_775\n        /* \"#utility.yul\":34590:34593   */\n      dup3\n        /* \"#utility.yul\":34501:34594   */\n      tag_437\n      jump\t// in\n    tag_775:\n        /* \"#utility.yul\":34619:34621   */\n      0x20\n        /* \"#utility.yul\":34614:34617   */\n      dup3\n        /* \"#utility.yul\":34610:34622   */\n      add\n        /* \"#utility.yul\":34603:34622   */\n      swap1\n      pop\n        /* \"#utility.yul\":34262:34628   */\n      swap2\n      swap1\n      pop\n      jump\t// out\n        /* \"#utility.yul\":34634:35053   */\n    tag_249:\n        /* \"#utility.yul\":34800:34804   */\n      0x00\n        /* \"#utility.yul\":34838:34840   */\n      0x20\n        /* \"#utility.yul\":34827:34836   */\n      dup3\n        /* \"#utility.yul\":34823:34841   */\n      add\n        /* \"#utility.yul\":34815:34841   */\n      swap1\n      pop\n        /* \"#utility.yul\":34887:34896   */\n      dup2\n        /* \"#utility.yul\":34881:34885   */\n      dup2\n        /* \"#utility.yul\":34877:34897   */\n      sub\n        /* \"#utility.yul\":34873:34874   */\n      0x00\n        /* \"#utility.yul\":34862:34871   */\n      dup4\n        /* \"#utility.yul\":34858:34875   */\n      add\n        /* \"#utility.yul\":34851:34898   */\n      mstore\n        /* \"#utility.yul\":34915:35046   */\n      tag_777\n        /* \"#utility.yul\":35041:35045   */\n      dup2\n        /* \"#utility.yul\":34915:35046   */\n      tag_438\n      jump\t// in\n    tag_777:\n        /* \"#utility.yul\":34907:35046   */\n      swap1\n      pop\n        /* \"#utility.yul\":34634:35053   */\n      swap2\n      swap1\n      pop\n      jump\t// out\n        /* \"#utility.yul\":35059:35240   */\n    tag_439:\n        /* \"#utility.yul\":35199:35232   */\n      0x4f6e6c792063757272656e74206f776e65722063616e207472616e7366657200\n        /* \"#utility.yul\":35195:35196   */\n      0x00\n        /* \"#utility.yul\":35187:35193   */\n      dup3\n        /* \"#utility.yul\":35183:35197   */\n      add\n        /* \"#utility.yul\":35176:35233   */\n      mstore\n        /* \"#utility.yul\":35059:35240   */\n      pop\n      jump\t// out\n        /* \"#utility.yul\":35246:35612   */\n    tag_440:\n        /* \"#utility.yul\":35388:35391   */\n      0x00\n        /* \"#utility.yul\":35409:35476   */\n      tag_780\n        /* \"#utility.yul\":35473:35475   */\n      0x1f\n        /* \"#utility.yul\":35468:35471   */\n      dup4\n        /* \"#utility.yul\":35409:35476   */\n      tag_405\n      jump\t// in\n    tag_780:\n        /* \"#utility.yul\":35402:35476   */\n      swap2\n      pop\n        /* \"#utility.yul\":35485:35578   */\n      tag_781\n        /* \"#utility.yul\":35574:35577   */\n      dup3\n        /* \"#utility.yul\":35485:35578   */\n      tag_439\n      jump\t// in\n    tag_781:\n        /* \"#utility.yul\":35603:35605   */\n      0x20\n        /* \"#utility.yul\":35598:35601   */\n      dup3\n        /* \"#utility.yul\":35594:35606   */\n      add\n        /* \"#utility.yul\":35587:35606   */\n      swap1\n      pop\n        /* \"#utility.yul\":35246:35612   */\n      swap2\n      swap1\n      pop\n      jump\t// out\n        /* \"#utility.yul\":35618:36037   */\n    tag_252:\n        /* \"#utility.yul\":35784:35788   */\n      0x00\n        /* \"#utility.yul\":35822:35824   */\n      0x20\n        /* \"#utility.yul\":35811:35820   */\n      dup3\n        /* \"#utility.yul\":35807:35825   */\n      add\n        /* \"#utility.yul\":35799:35825   */\n      swap1\n      pop\n        /* \"#utility.yul\":35871:35880   */\n      dup2\n        /* \"#utility.yul\":35865:35869   */\n      dup2\n        /* \"#utility.yul\":35861:35881   */\n      sub\n        /* \"#utility.yul\":35857:35858   */\n      0x00\n        /* \"#utility.yul\":35846:35855   */\n      dup4\n        /* \"#utility.yul\":35842:35859   */\n      add\n        /* \"#utility.yul\":35835:35882   */\n      mstore\n        /* \"#utility.yul\":35899:36030   */\n      tag_783\n        /* \"#utility.yul\":36025:36029   */\n      dup2\n        /* \"#utility.yul\":35899:36030   */\n      tag_440\n      jump\t// in\n    tag_783:\n        /* \"#utility.yul\":35891:36030   */\n      swap1\n      pop\n        /* \"#utility.yul\":35618:36037   */\n      swap2\n      swap1\n      pop\n      jump\t// out\n        /* \"#utility.yul\":36043:36213   */\n    tag_441:\n        /* \"#utility.yul\":36183:36205   */\n      0x4e616d652063616e6e6f7420626520656d707479000000000000000000000000\n        /* \"#utility.yul\":36179:36180   */\n      0x00\n        /* \"#utility.yul\":36171:36177   */\n      dup3\n        /* \"#utility.yul\":36167:36181   */\n      add\n        /* \"#utility.yul\":36160:36206   */\n      mstore\n        /* \"#utility.yul\":36043:36213   */\n      pop\n      jump\t// out\n        /* \"#utility.yul\":36219:36585   */\n    tag_442:\n        /* \"#utility.yul\":36361:36364   */\n      0x00\n        /* \"#utility.yul\":36382:36449   */\n      tag_786\n        /* \"#utility.yul\":36446:36448   */\n      0x14\n        /* \"#utility.yul\":36441:36444   */\n      dup4\n        /* \"#utility.yul\":36382:36449   */\n      tag_405\n      jump\t// in\n    tag_786:\n        /* \"#utility.yul\":36375:36449   */\n      swap2\n      pop\n        /* \"#utility.yul\":36458:36551   */\n      tag_787\n        /* \"#utility.yul\":36547:36550   */\n      dup3\n        /* \"#utility.yul\":36458:36551   */\n      tag_441\n      jump\t// in\n    tag_787:\n        /* \"#utility.yul\":36576:36578   */\n      0x20\n        /* \"#utility.yul\":36571:36574   */\n      dup3\n        /* \"#utility.yul\":36567:36579   */\n      add\n        /* \"#utility.yul\":36560:36579   */\n      swap1\n      pop\n        /* \"#utility.yul\":36219:36585   */\n      swap2\n      swap1\n      pop\n      jump\t// out\n        /* \"#utility.yul\":36591:37010   */\n    tag_259:\n        /* \"#utility.yul\":36757:36761   */\n      0x00\n        /* \"#utility.yul\":36795:36797   */\n      0x20\n        /* \"#utility.yul\":36784:36793   */\n      dup3\n        /* \"#utility.yul\":36780:36798   */\n      add\n        /* \"#utility.yul\":36772:36798   */\n      swap1\n      pop\n        /* \"#utility.yul\":36844:36853   */\n      dup2\n        /* \"#utility.yul\":36838:36842   */\n      dup2\n        /* \"#utility.yul\":36834:36854   */\n      sub\n        /* \"#utility.yul\":36830:36831   */\n      0x00\n        /* \"#utility.yul\":36819:36828   */\n      dup4\n        /* \"#utility.yul\":36815:36832   */\n      add\n        /* \"#utility.yul\":36808:36855   */\n      mstore\n        /* \"#utility.yul\":36872:37003   */\n      tag_789\n        /* \"#utility.yul\":36998:37002   */\n      dup2\n        /* \"#utility.yul\":36872:37003   */\n      tag_442\n      jump\t// in\n    tag_789:\n        /* \"#utility.yul\":36864:37003   */\n      swap1\n      pop\n        /* \"#utility.yul\":36591:37010   */\n      swap2\n      swap1\n      pop\n      jump\t// out\n        /* \"#utility.yul\":37016:37193   */\n    tag_443:\n        /* \"#utility.yul\":37156:37185   */\n      0x4465736372697074696f6e2063616e6e6f7420626520656d7074790000000000\n        /* \"#utility.yul\":37152:37153   */\n      0x00\n        /* \"#utility.yul\":37144:37150   */\n      dup3\n        /* \"#utility.yul\":37140:37154   */\n      add\n        /* \"#utility.yul\":37133:37186   */\n      mstore\n        /* \"#utility.yul\":37016:37193   */\n      pop\n      jump\t// out\n        /* \"#utility.yul\":37199:37565   */\n    tag_444:\n        /* \"#utility.yul\":37341:37344   */\n      0x00\n        /* \"#utility.yul\":37362:37429   */\n      tag_792\n        /* \"#utility.yul\":37426:37428   */\n      0x1b\n        /* \"#utility.yul\":37421:37424   */\n      dup4\n        /* \"#utility.yul\":37362:37429   */\n      tag_405\n      jump\t// in\n    tag_792:\n        /* \"#utility.yul\":37355:37429   */\n      swap2\n      pop\n        /* \"#utility.yul\":37438:37531   */\n      tag_793\n        /* \"#utility.yul\":37527:37530   */\n      dup3\n        /* \"#utility.yul\":37438:37531   */\n      tag_443\n      jump\t// in\n    tag_793:\n        /* \"#utility.yul\":37556:37558   */\n      0x20\n        /* \"#utility.yul\":37551:37554   */\n      dup3\n        /* \"#utility.yul\":37547:37559   */\n      add\n        /* \"#utility.yul\":37540:37559   */\n      swap1\n      pop\n        /* \"#utility.yul\":37199:37565   */\n      swap2\n      swap1\n      pop\n      jump\t// out\n        /* \"#utility.yul\":37571:37990   */\n    tag_262:\n        /* \"#utility.yul\":37737:37741   */\n      0x00\n        /* \"#utility.yul\":37775:37777   */\n      0x20\n        /* \"#utility.yul\":37764:37773   */\n      dup3\n        /* \"#utility.yul\":37760:37778   */\n      add\n        /* \"#utility.yul\":37752:37778   */\n      swap1\n      pop\n        /* \"#utility.yul\":37824:37833   */\n      dup2\n        /* \"#utility.yul\":37818:37822   */\n      dup2\n        /* \"#utility.yul\":37814:37834   */\n      sub\n        /* \"#utility.yul\":37810:37811   */\n      0x00\n        /* \"#utility.yul\":37799:37808   */\n      dup4\n        /* \"#utility.yul\":37795:37812   */\n      add\n        /* \"#utility.yul\":37788:37835   */\n      mstore\n        /* \"#utility.yul\":37852:37983   */\n      tag_795\n        /* \"#utility.yul\":37978:37982   */\n      dup2\n        /* \"#utility.yul\":37852:37983   */\n      tag_444\n      jump\t// in\n    tag_795:\n        /* \"#utility.yul\":37844:37983   */\n      swap1\n      pop\n        /* \"#utility.yul\":37571:37990   */\n      swap2\n      swap1\n      pop\n      jump\t// out\n        /* \"#utility.yul\":37996:38176   */\n    tag_445:\n        /* \"#utility.yul\":38044:38121   */\n      0x4e487b7100000000000000000000000000000000000000000000000000000000\n        /* \"#utility.yul\":38041:38042   */\n      0x00\n        /* \"#utility.yul\":38034:38122   */\n      mstore\n        /* \"#utility.yul\":38141:38145   */\n      0x11\n        /* \"#utility.yul\":38138:38139   */\n      0x04\n        /* \"#utility.yul\":38131:38146   */\n      mstore\n        /* \"#utility.yul\":38165:38169   */\n      0x24\n        /* \"#utility.yul\":38162:38163   */\n      0x00\n        /* \"#utility.yul\":38155:38170   */\n      revert\n        /* \"#utility.yul\":38182:38415   */\n    tag_264:\n        /* \"#utility.yul\":38221:38224   */\n      0x00\n        /* \"#utility.yul\":38244:38268   */\n      tag_798\n        /* \"#utility.yul\":38262:38267   */\n      dup3\n        /* \"#utility.yul\":38244:38268   */\n      tag_367\n      jump\t// in\n    tag_798:\n        /* \"#utility.yul\":38235:38268   */\n      swap2\n      pop\n        /* \"#utility.yul\":38290:38356   */\n      0xffffffffffffffffffffffffffffffffffffffffffffffffffffffffffffffff\n        /* \"#utility.yul\":38283:38288   */\n      dup3\n        /* \"#utility.yul\":38280:38357   */\n      sub\n        /* \"#utility.yul\":38277:38380   */\n      tag_799\n      jumpi\n        /* \"#utility.yul\":38360:38378   */\n      tag_800\n      tag_445\n      jump\t// in\n    tag_800:\n        /* \"#utility.yul\":38277:38380   */\n    tag_799:\n        /* \"#utility.yul\":38407:38408   */\n      0x01\n        /* \"#utility.yul\":38400:38405   */\n      dup3\n        /* \"#utility.yul\":38396:38409   */\n      add\n        /* \"#utility.yul\":38389:38409   */\n      swap1\n      pop\n        /* \"#utility.yul\":38182:38415   */\n      swap2\n      swap1\n      pop\n      jump\t// out\n        /* \"#utility.yul\":38421:38514   */\n    tag_446:\n        /* \"#utility.yul\":38458:38464   */\n      0x00\n        /* \"#utility.yul\":38505:38507   */\n      0x20\n        /* \"#utility.yul\":38500:38502   */\n      0x1f\n        /* \"#utility.yul\":38493:38498   */\n      dup4\n        /* \"#utility.yul\":38489:38503   */\n      add\n        /* \"#utility.yul\":38485:38508   */\n      div\n        /* \"#utility.yul\":38475:38508   */\n      swap1\n      pop\n        /* \"#utility.yul\":38421:38514   */\n      swap2\n      swap1\n      pop\n      jump\t// out\n        /* \"#utility.yul\":38520:38627   */\n    tag_447:\n        /* \"#utility.yul\":38564:38572   */\n      0x00\n        /* \"#utility.yul\":38614:38619   */\n      dup3\n        /* \"#utility.yul\":38608:38612   */\n      dup3\n        /* \"#utility.yul\":38604:38620   */\n      shl\n        /* \"#utility.yul\":38583:38620   */\n      swap1\n      pop\n        /* \"#utility.yul\":38520:38627   */\n      swap3\n      swap2\n      pop\n      pop\n      jump\t// out\n        /* \"#utility.yul\":38633:39026   */\n    tag_448:\n        /* \"#utility.yul\":38702:38708   */\n      0x00\n        /* \"#utility.yul\":38752:38753   */\n      0x08\n        /* \"#utility.yul\":38740:38750   */\n      dup4\n        /* \"#utility.yul\":38736:38754   */\n      mul\n        /* \"#utility.yul\":38775:38872   */\n      tag_804\n        /* \"#utility.yul\":38805:38871   */\n      0xffffffffffffffffffffffffffffffffffffffffffffffffffffffffffffffff\n        /* \"#utility.yul\":38794:38803   */\n      dup3\n        /* \"#utility.yul\":38775:38872   */\n      tag_447\n      jump\t// in\n    tag_804:\n        /* \"#utility.yul\":38893:38932   */\n      tag_805\n        /* \"#utility.yul\":38923:38931   */\n      dup7\n        /* \"#utility.yul\":38912:38921   */\n      dup4\n        /* \"#utility.yul\":38893:38932   */\n      tag_447\n      jump\t// in\n    tag_805:\n        /* \"#utility.yul\":38881:38932   */\n      swap6\n      pop\n        /* \"#utility.yul\":38965:38969   */\n      dup1\n        /* \"#utility.yul\":38961:38970   */\n      not\n        /* \"#utility.yul\":38954:38959   */\n      dup5\n        /* \"#utility.yul\":38950:38971   */\n      and\n        /* \"#utility.yul\":38941:38971   */\n      swap4\n      pop\n        /* \"#utility.yul\":39014:39018   */\n      dup1\n        /* \"#utility.yul\":39004:39012   */\n      dup7\n        /* \"#utility.yul\":39000:39019   */\n      and\n        /* \"#utility.yul\":38993:38998   */\n      dup5\n        /* \"#utility.yul\":38990:39020   */\n      or\n        /* \"#utility.yul\":38980:39020   */\n      swap3\n      pop\n        /* \"#utility.yul\":38709:39026   */\n      pop\n      pop\n        /* \"#utility.yul\":38633:39026   */\n      swap4\n      swap3\n      pop\n      pop\n      pop\n      jump\t// out\n        /* \"#utility.yul\":39032:39092   */\n    tag_449:\n        /* \"#utility.yul\":39060:39063   */\n      0x00\n        /* \"#utility.yul\":39081:39086   */\n      dup2\n        /* \"#utility.yul\":39074:39086   */\n      swap1\n      pop\n        /* \"#utility.yul\":39032:39092   */\n      swap2\n      swap1\n      pop\n      jump\t// out\n        /* \"#utility.yul\":39098:39240   */\n    tag_450:\n        /* \"#utility.yul\":39148:39157   */\n      0x00\n        /* \"#utility.yul\":39181:39234   */\n      tag_808\n        /* \"#utility.yul\":39199:39233   */\n      tag_809\n        /* \"#utility.yul\":39208:39232   */\n      tag_810\n        /* \"#utility.yul\":39226:39231   */\n      dup5\n        /* \"#utility.yul\":39208:39232   */\n      tag_367\n      jump\t// in\n    tag_810:\n        /* \"#utility.yul\":39199:39233   */\n      tag_449\n      jump\t// in\n    tag_809:\n        /* \"#utility.yul\":39181:39234   */\n      tag_367\n      jump\t// in\n    tag_808:\n        /* \"#utility.yul\":39168:39234   */\n      swap1\n      pop\n        /* \"#utility.yul\":39098:39240   */\n      swap2\n      swap1\n      pop\n      jump\t// out\n        /* \"#utility.yul\":39246:39321   */\n    tag_451:\n        /* \"#utility.yul\":39289:39292   */\n      0x00\n        /* \"#utility.yul\":39310:39315   */\n      dup2\n        /* \"#utility.yul\":39303:39315   */\n      swap1\n      pop\n        /* \"#utility.yul\":39246:39321   */\n      swap2\n      swap1\n      pop\n      jump\t// out\n        /* \"#utility.yul\":39327:39596   */\n    tag_452:\n        /* \"#utility.yul\":39437:39476   */\n      tag_813\n        /* \"#utility.yul\":39468:39475   */\n      dup4\n        /* \"#utility.yul\":39437:39476   */\n      tag_450\n      jump\t// in\n    tag_813:\n        /* \"#utility.yul\":39498:39589   */\n      tag_814\n        /* \"#utility.yul\":39547:39588   */\n      tag_815\n        /* \"#utility.yul\":39571:39587   */\n      dup3\n        /* \"#utility.yul\":39547:39588   */\n      tag_451\n      jump\t// in\n    tag_815:\n        /* \"#utility.yul\":39539:39545   */\n      dup5\n        /* \"#utility.yul\":39532:39536   */\n      dup5\n        /* \"#utility.yul\":39526:39537   */\n      sload\n        /* \"#utility.yul\":39498:39589   */\n      tag_448\n      jump\t// in\n    tag_814:\n        /* \"#utility.yul\":39492:39496   */\n      dup3\n        /* \"#utility.yul\":39485:39590   */\n      sstore\n        /* \"#utility.yul\":39403:39596   */\n      pop\n        /* \"#utility.yul\":39327:39596   */\n      pop\n      pop\n      pop\n      jump\t// out\n        /* \"#utility.yul\":39602:39675   */\n    tag_453:\n        /* \"#utility.yul\":39647:39650   */\n      0x00\n        /* \"#utility.yul\":39602:39675   */\n      swap1\n      jump\t// out\n        /* \"#utility.yul\":39681:39870   */\n    tag_454:\n        /* \"#utility.yul\":39758:39790   */\n      tag_818\n      tag_453\n      jump\t// in\n    tag_818:\n        /* \"#utility.yul\":39799:39864   */\n      tag_819\n        /* \"#utility.yul\":39857:39863   */\n      dup2\n        /* \"#utility.yul\":39849:39855   */\n      dup5\n        /* \"#utility.yul\":39843:39847   */\n      dup5\n        /* \"#utility.yul\":39799:39864   */\n      tag_452\n      jump\t// in\n    tag_819:\n        /* \"#utility.yul\":39734:39870   */\n      pop\n        /* \"#utility.yul\":39681:39870   */\n      pop\n      pop\n      jump\t// out\n        /* \"#utility.yul\":39876:40062   */\n    tag_455:\n        /* \"#utility.yul\":39936:40056   */\n    tag_821:\n        /* \"#utility.yul\":39953:39956   */\n      dup2\n        /* \"#utility.yul\":39946:39951   */\n      dup2\n        /* \"#utility.yul\":39943:39957   */\n      lt\n        /* \"#utility.yul\":39936:40056   */\n      iszero\n      tag_823\n      jumpi\n        /* \"#utility.yul\":40007:40046   */\n      tag_824\n        /* \"#utility.yul\":40044:40045   */\n      0x00\n        /* \"#utility.yul\":40037:40042   */\n      dup3\n        /* \"#utility.yul\":40007:40046   */\n      tag_454\n      jump\t// in\n    tag_824:\n        /* \"#utility.yul\":39980:39981   */\n      0x01\n        /* \"#utility.yul\":39973:39978   */\n      dup2\n        /* \"#utility.yul\":39969:39982   */\n      add\n        /* \"#utility.yul\":39960:39982   */\n      swap1\n      pop\n        /* \"#utility.yul\":39936:40056   */\n      jump(tag_821)\n    tag_823:\n        /* \"#utility.yul\":39876:40062   */\n      pop\n      pop\n      jump\t// out\n        /* \"#utility.yul\":40068:40611   */\n    tag_456:\n        /* \"#utility.yul\":40169:40171   */\n      0x1f\n        /* \"#utility.yul\":40164:40167   */\n      dup3\n        /* \"#utility.yul\":40161:40172   */\n      gt\n        /* \"#utility.yul\":40158:40604   */\n      iszero\n      tag_826\n      jumpi\n        /* \"#utility.yul\":40203:40241   */\n      tag_827\n        /* \"#utility.yul\":40235:40240   */\n      dup2\n        /* \"#utility.yul\":40203:40241   */\n      tag_427\n      jump\t// in\n    tag_827:\n        /* \"#utility.yul\":40287:40316   */\n      tag_828\n        /* \"#utility.yul\":40305:40315   */\n      dup5\n        /* \"#utility.yul\":40287:40316   */\n      tag_446\n      jump\t// in\n    tag_828:\n        /* \"#utility.yul\":40277:40285   */\n      dup2\n        /* \"#utility.yul\":40273:40317   */\n      add\n        /* \"#utility.yul\":40470:40472   */\n      0x20\n        /* \"#utility.yul\":40458:40468   */\n      dup6\n        /* \"#utility.yul\":40455:40473   */\n      lt\n        /* \"#utility.yul\":40452:40501   */\n      iszero\n      tag_829\n      jumpi\n        /* \"#utility.yul\":40491:40499   */\n      dup2\n        /* \"#utility.yul\":40476:40499   */\n      swap1\n      pop\n        /* \"#utility.yul\":40452:40501   */\n    tag_829:\n        /* \"#utility.yul\":40514:40594   */\n      tag_830\n        /* \"#utility.yul\":40570:40592   */\n      tag_831\n        /* \"#utility.yul\":40588:40591   */\n      dup6\n        /* \"#utility.yul\":40570:40592   */\n      tag_446\n      jump\t// in\n    tag_831:\n        /* \"#utility.yul\":40560:40568   */\n      dup4\n        /* \"#utility.yul\":40556:40593   */\n      add\n        /* \"#utility.yul\":40543:40554   */\n      dup3\n        /* \"#utility.yul\":40514:40594   */\n      tag_455\n      jump\t// in\n    tag_830:\n        /* \"#utility.yul\":40173:40604   */\n      pop\n      pop\n        /* \"#utility.yul\":40158:40604   */\n    tag_826:\n        /* \"#utility.yul\":40068:40611   */\n      pop\n      pop\n      pop\n      jump\t// out\n        /* \"#utility.yul\":40617:40734   */\n    tag_457:\n        /* \"#utility.yul\":40671:40679   */\n      0x00\n        /* \"#utility.yul\":40721:40726   */\n      dup3\n        /* \"#utility.yul\":40715:40719   */\n      dup3\n        /* \"#utility.yul\":40711:40727   */\n      shr\n        /* \"#utility.yul\":40690:40727   */\n      swap1\n      pop\n        /* \"#utility.yul\":40617:40734   */\n      swap3\n      swap2\n      pop\n      pop\n      jump\t// out\n        /* \"#utility.yul\":40740:40909   */\n    tag_458:\n        /* \"#utility.yul\":40784:40790   */\n      0x00\n        /* \"#utility.yul\":40817:40868   */\n      tag_834\n        /* \"#utility.yul\":40865:40866   */\n      0x00\n        /* \"#utility.yul\":40861:40867   */\n      not\n        /* \"#utility.yul\":40853:40858   */\n      dup5\n        /* \"#utility.yul\":40850:40851   */\n      0x08\n        /* \"#utility.yul\":40846:40859   */\n      mul\n        /* \"#utility.yul\":40817:40868   */\n      tag_457\n      jump\t// in\n    tag_834:\n        /* \"#utility.yul\":40813:40869   */\n      not\n        /* \"#utility.yul\":40898:40902   */\n      dup1\n        /* \"#utility.yul\":40892:40896   */\n      dup4\n        /* \"#utility.yul\":40888:40903   */\n      and\n        /* \"#utility.yul\":40878:40903   */\n      swap2\n      pop\n        /* \"#utility.yul\":40791:40909   */\n      pop\n        /* \"#utility.yul\":40740:40909   */\n      swap3\n      swap2\n      pop\n      pop\n      jump\t// out\n        /* \"#utility.yul\":40914:41209   */\n    tag_459:\n        /* \"#utility.yul\":40990:40994   */\n      0x00\n        /* \"#utility.yul\":41136:41165   */\n      tag_836\n        /* \"#utility.yul\":41161:41164   */\n      dup4\n        /* \"#utility.yul\":41155:41159   */\n      dup4\n        /* \"#utility.yul\":41136:41165   */\n      tag_458\n      jump\t// in\n    tag_836:\n        /* \"#utility.yul\":41128:41165   */\n      swap2\n      pop\n        /* \"#utility.yul\":41198:41201   */\n      dup3\n        /* \"#utility.yul\":41195:41196   */\n      0x02\n        /* \"#utility.yul\":41191:41202   */\n      mul\n        /* \"#utility.yul\":41185:41189   */\n      dup3\n        /* \"#utility.yul\":41182:41203   */\n      or\n        /* \"#utility.yul\":41174:41203   */\n      swap1\n      pop\n        /* \"#utility.yul\":40914:41209   */\n      swap3\n      swap2\n      pop\n      pop\n      jump\t// out\n        /* \"#utility.yul\":41214:42609   */\n    tag_266:\n        /* \"#utility.yul\":41331:41368   */\n      tag_838\n        /* \"#utility.yul\":41364:41367   */\n      dup3\n        /* \"#utility.yul\":41331:41368   */\n      tag_397\n      jump\t// in\n    tag_838:\n        /* \"#utility.yul\":41433:41451   */\n      0xffffffffffffffff\n        /* \"#utility.yul\":41425:41431   */\n      dup2\n        /* \"#utility.yul\":41422:41452   */\n      gt\n        /* \"#utility.yul\":41419:41475   */\n      iszero\n      tag_839\n      jumpi\n        /* \"#utility.yul\":41455:41473   */\n      tag_840\n      tag_373\n      jump\t// in\n    tag_840:\n        /* \"#utility.yul\":41419:41475   */\n    tag_839:\n        /* \"#utility.yul\":41499:41537   */\n      tag_841\n        /* \"#utility.yul\":41531:41535   */\n      dup3\n        /* \"#utility.yul\":41525:41536   */\n      sload\n        /* \"#utility.yul\":41499:41537   */\n      tag_143\n      jump\t// in\n    tag_841:\n        /* \"#utility.yul\":41584:41651   */\n      tag_842\n        /* \"#utility.yul\":41644:41650   */\n      dup3\n        /* \"#utility.yul\":41636:41642   */\n      dup3\n        /* \"#utility.yul\":41630:41634   */\n      dup6\n        /* \"#utility.yul\":41584:41651   */\n      tag_456\n      jump\t// in\n    tag_842:\n        /* \"#utility.yul\":41678:41679   */\n      0x00\n        /* \"#utility.yul\":41702:41706   */\n      0x20\n        /* \"#utility.yul\":41689:41706   */\n      swap1\n      pop\n        /* \"#utility.yul\":41734:41736   */\n      0x1f\n        /* \"#utility.yul\":41726:41732   */\n      dup4\n        /* \"#utility.yul\":41723:41737   */\n      gt\n        /* \"#utility.yul\":41751:41752   */\n      0x01\n        /* \"#utility.yul\":41746:42364   */\n      dup2\n      eq\n      tag_844\n      jumpi\n        /* \"#utility.yul\":42408:42409   */\n      0x00\n        /* \"#utility.yul\":42425:42431   */\n      dup5\n        /* \"#utility.yul\":42422:42499   */\n      iszero\n      tag_845\n      jumpi\n        /* \"#utility.yul\":42474:42483   */\n      dup3\n        /* \"#utility.yul\":42469:42472   */\n      dup8\n        /* \"#utility.yul\":42465:42484   */\n      add\n        /* \"#utility.yul\":42459:42485   */\n      mload\n        /* \"#utility.yul\":42450:42485   */\n      swap1\n      pop\n        /* \"#utility.yul\":42422:42499   */\n    tag_845:\n        /* \"#utility.yul\":42525:42592   */\n      tag_846\n        /* \"#utility.yul\":42585:42591   */\n      dup6\n        /* \"#utility.yul\":42578:42583   */\n      dup3\n        /* \"#utility.yul\":42525:42592   */\n      tag_459\n      jump\t// in\n    tag_846:\n        /* \"#utility.yul\":42519:42523   */\n      dup7\n        /* \"#utility.yul\":42512:42593   */\n      sstore\n        /* \"#utility.yul\":42381:42603   */\n      pop\n        /* \"#utility.yul\":41716:42603   */\n      jump(tag_843)\n        /* \"#utility.yul\":41746:42364   */\n    tag_844:\n        /* \"#utility.yul\":41798:41802   */\n      0x1f\n        /* \"#utility.yul\":41794:41803   */\n      not\n        /* \"#utility.yul\":41786:41792   */\n      dup5\n        /* \"#utility.yul\":41782:41804   */\n      and\n        /* \"#utility.yul\":41832:41869   */\n      tag_847\n        /* \"#utility.yul\":41864:41868   */\n      dup7\n        /* \"#utility.yul\":41832:41869   */\n      tag_427\n      jump\t// in\n    tag_847:\n        /* \"#utility.yul\":41891:41892   */\n      0x00\n        /* \"#utility.yul\":41905:42113   */\n    tag_848:\n        /* \"#utility.yul\":41919:41926   */\n      dup3\n        /* \"#utility.yul\":41916:41917   */\n      dup2\n        /* \"#utility.yul\":41913:41927   */\n      lt\n        /* \"#utility.yul\":41905:42113   */\n      iszero\n      tag_850\n      jumpi\n        /* \"#utility.yul\":41998:42007   */\n      dup5\n        /* \"#utility.yul\":41993:41996   */\n      dup10\n        /* \"#utility.yul\":41989:42008   */\n      add\n        /* \"#utility.yul\":41983:42009   */\n      mload\n        /* \"#utility.yul\":41975:41981   */\n      dup3\n        /* \"#utility.yul\":41968:42010   */\n      sstore\n        /* \"#utility.yul\":42049:42050   */\n      0x01\n        /* \"#utility.yul\":42041:42047   */\n      dup3\n        /* \"#utility.yul\":42037:42051   */\n      add\n        /* \"#utility.yul\":42027:42051   */\n      swap2\n      pop\n        /* \"#utility.yul\":42096:42098   */\n      0x20\n        /* \"#utility.yul\":42085:42094   */\n      dup6\n        /* \"#utility.yul\":42081:42099   */\n      add\n        /* \"#utility.yul\":42068:42099   */\n      swap5\n      pop\n        /* \"#utility.yul\":41942:41946   */\n      0x20\n        /* \"#utility.yul\":41939:41940   */\n      dup2\n        /* \"#utility.yul\":41935:41947   */\n      add\n        /* \"#utility.yul\":41930:41947   */\n      swap1\n      pop\n        /* \"#utility.yul\":41905:42113   */\n      jump(tag_848)\n    tag_850:\n        /* \"#utility.yul\":42141:42147   */\n      dup7\n        /* \"#utility.yul\":42132:42139   */\n      dup4\n        /* \"#utility.yul\":42129:42148   */\n      lt\n        /* \"#utility.yul\":42126:42305   */\n      iszero\n      tag_851\n      jumpi\n        /* \"#utility.yul\":42199:42208   */\n      dup5\n        /* \"#utility.yul\":42194:42197   */\n      dup10\n        /* \"#utility.yul\":42190:42209   */\n      add\n        /* \"#utility.yul\":42184:42210   */\n      mload\n        /* \"#utility.yul\":42242:42290   */\n      tag_852\n        /* \"#utility.yul\":42284:42288   */\n      0x1f\n        /* \"#utility.yul\":42276:42282   */\n      dup10\n        /* \"#utility.yul\":42272:42289   */\n      and\n        /* \"#utility.yul\":42261:42270   */\n      dup3\n        /* \"#utility.yul\":42242:42290   */\n      tag_458\n      jump\t// in\n    tag_852:\n        /* \"#utility.yul\":42234:42240   */\n      dup4\n        /* \"#utility.yul\":42227:42291   */\n      sstore\n        /* \"#utility.yul\":42149:42305   */\n      pop\n        /* \"#utility.yul\":42126:42305   */\n    tag_851:\n        /* \"#utility.yul\":42351:42352   */\n      0x01\n        /* \"#utility.yul\":42347:42348   */\n      0x02\n        /* \"#utility.yul\":42339:42345   */\n      dup9\n        /* \"#utility.yul\":42335:42349   */\n      mul\n        /* \"#utility.yul\":42331:42353   */\n      add\n        /* \"#utility.yul\":42325:42329   */\n      dup9\n        /* \"#utility.yul\":42318:42354   */\n      sstore\n        /* \"#utility.yul\":41753:42364   */\n      pop\n      pop\n      pop\n        /* \"#utility.yul\":41716:42603   */\n    tag_843:\n      pop\n        /* \"#utility.yul\":41306:42609   */\n      pop\n      pop\n      pop\n        /* \"#utility.yul\":41214:42609   */\n      pop\n      pop\n      jump\t// out\n        /* \"#utility.yul\":42615:42786   */\n    tag_460:\n        /* \"#utility.yul\":42755:42778   */\n      0x50726f6475637420646f65736e74206578697374730000000000000000000000\n        /* \"#utility.yul\":42751:42752   */\n      0x00\n        /* \"#utility.yul\":42743:42749   */\n      dup3\n        /* \"#utility.yul\":42739:42753   */\n      add\n        /* \"#utility.yul\":42732:42779   */\n      mstore\n        /* \"#utility.yul\":42615:42786   */\n      pop\n      jump\t// out\n        /* \"#utility.yul\":42792:43158   */\n    tag_461:\n        /* \"#utility.yul\":42934:42937   */\n      0x00\n        /* \"#utility.yul\":42955:43022   */\n      tag_855\n        /* \"#utility.yul\":43019:43021   */\n      0x15\n        /* \"#utility.yul\":43014:43017   */\n      dup4\n        /* \"#utility.yul\":42955:43022   */\n      tag_405\n      jump\t// in\n    tag_855:\n        /* \"#utility.yul\":42948:43022   */\n      swap2\n      pop\n        /* \"#utility.yul\":43031:43124   */\n      tag_856\n        /* \"#utility.yul\":43120:43123   */\n      dup3\n        /* \"#utility.yul\":43031:43124   */\n      tag_460\n      jump\t// in\n    tag_856:\n        /* \"#utility.yul\":43149:43151   */\n      0x20\n        /* \"#utility.yul\":43144:43147   */\n      dup3\n        /* \"#utility.yul\":43140:43152   */\n      add\n        /* \"#utility.yul\":43133:43152   */\n      swap1\n      pop\n        /* \"#utility.yul\":42792:43158   */\n      swap2\n      swap1\n      pop\n      jump\t// out\n        /* \"#utility.yul\":43164:43583   */\n    tag_275:\n        /* \"#utility.yul\":43330:43334   */\n      0x00\n        /* \"#utility.yul\":43368:43370   */\n      0x20\n        /* \"#utility.yul\":43357:43366   */\n      dup3\n        /* \"#utility.yul\":43353:43371   */\n      add\n        /* \"#utility.yul\":43345:43371   */\n      swap1\n      pop\n        /* \"#utility.yul\":43417:43426   */\n      dup2\n        /* \"#utility.yul\":43411:43415   */\n      dup2\n        /* \"#utility.yul\":43407:43427   */\n      sub\n        /* \"#utility.yul\":43403:43404   */\n      0x00\n        /* \"#utility.yul\":43392:43401   */\n      dup4\n        /* \"#utility.yul\":43388:43405   */\n      add\n        /* \"#utility.yul\":43381:43428   */\n      mstore\n        /* \"#utility.yul\":43445:43576   */\n      tag_858\n        /* \"#utility.yul\":43571:43575   */\n      dup2\n        /* \"#utility.yul\":43445:43576   */\n      tag_461\n      jump\t// in\n    tag_858:\n        /* \"#utility.yul\":43437:43576   */\n      swap1\n      pop\n        /* \"#utility.yul\":43164:43583   */\n      swap2\n      swap1\n      pop\n      jump\t// out\n        /* \"#utility.yul\":43589:43755   */\n    tag_462:\n        /* \"#utility.yul\":43729:43747   */\n      0x416c726561647920726563616c6c656400000000000000000000000000000000\n        /* \"#utility.yul\":43725:43726   */\n      0x00\n        /* \"#utility.yul\":43717:43723   */\n      dup3\n        /* \"#utility.yul\":43713:43727   */\n      add\n        /* \"#utility.yul\":43706:43748   */\n      mstore\n        /* \"#utility.yul\":43589:43755   */\n      pop\n      jump\t// out\n        /* \"#utility.yul\":43761:44127   */\n    tag_463:\n        /* \"#utility.yul\":43903:43906   */\n      0x00\n        /* \"#utility.yul\":43924:43991   */\n      tag_861\n        /* \"#utility.yul\":43988:43990   */\n      0x10\n        /* \"#utility.yul\":43983:43986   */\n      dup4\n        /* \"#utility.yul\":43924:43991   */\n      tag_405\n      jump\t// in\n    tag_861:\n        /* \"#utility.yul\":43917:43991   */\n      swap2\n      pop\n        /* \"#utility.yul\":44000:44093   */\n      tag_862\n        /* \"#utility.yul\":44089:44092   */\n      dup3\n        /* \"#utility.yul\":44000:44093   */\n      tag_462\n      jump\t// in\n    tag_862:\n        /* \"#utility.yul\":44118:44120   */\n      0x20\n        /* \"#utility.yul\":44113:44116   */\n      dup3\n        /* \"#utility.yul\":44109:44121   */\n      add\n        /* \"#utility.yul\":44102:44121   */\n      swap1\n      pop\n        /* \"#utility.yul\":43761:44127   */\n      swap2\n      swap1\n      pop\n      jump\t// out\n        /* \"#utility.yul\":44133:44552   */\n    tag_278:\n        /* \"#utility.yul\":44299:44303   */\n      0x00\n        /* \"#utility.yul\":44337:44339   */\n      0x20\n        /* \"#utility.yul\":44326:44335   */\n      dup3\n        /* \"#utility.yul\":44322:44340   */\n      add\n        /* \"#utility.yul\":44314:44340   */\n      swap1\n      pop\n        /* \"#utility.yul\":44386:44395   */\n      dup2\n        /* \"#utility.yul\":44380:44384   */\n      dup2\n        /* \"#utility.yul\":44376:44396   */\n      sub\n        /* \"#utility.yul\":44372:44373   */\n      0x00\n        /* \"#utility.yul\":44361:44370   */\n      dup4\n        /* \"#utility.yul\":44357:44374   */\n      add\n        /* \"#utility.yul\":44350:44397   */\n      mstore\n        /* \"#utility.yul\":44414:44545   */\n      tag_864\n        /* \"#utility.yul\":44540:44544   */\n      dup2\n        /* \"#utility.yul\":44414:44545   */\n      tag_463\n      jump\t// in\n    tag_864:\n        /* \"#utility.yul\":44406:44545   */\n      swap1\n      pop\n        /* \"#utility.yul\":44133:44552   */\n      swap2\n      swap1\n      pop\n      jump\t// out\n        /* \"#utility.yul\":44558:44721   */\n    tag_464:\n        /* \"#utility.yul\":44698:44713   */\n      0x4e6f7420746865206f776e657200000000000000000000000000000000000000\n        /* \"#utility.yul\":44694:44695   */\n      0x00\n        /* \"#utility.yul\":44686:44692   */\n      dup3\n        /* \"#utility.yul\":44682:44696   */\n      add\n        /* \"#utility.yul\":44675:44714   */\n      mstore\n        /* \"#utility.yul\":44558:44721   */\n      pop\n      jump\t// out\n        /* \"#utility.yul\":44727:45093   */\n    tag_465:\n        /* \"#utility.yul\":44869:44872   */\n      0x00\n        /* \"#utility.yul\":44890:44957   */\n      tag_867\n        /* \"#utility.yul\":44954:44956   */\n      0x0d\n        /* \"#utility.yul\":44949:44952   */\n      dup4\n        /* \"#utility.yul\":44890:44957   */\n      tag_405\n      jump\t// in\n    tag_867:\n        /* \"#utility.yul\":44883:44957   */\n      swap2\n      pop\n        /* \"#utility.yul\":44966:45059   */\n      tag_868\n        /* \"#utility.yul\":45055:45058   */\n      dup3\n        /* \"#utility.yul\":44966:45059   */\n      tag_464\n      jump\t// in\n    tag_868:\n        /* \"#utility.yul\":45084:45086   */\n      0x20\n        /* \"#utility.yul\":45079:45082   */\n      dup3\n        /* \"#utility.yul\":45075:45087   */\n      add\n        /* \"#utility.yul\":45068:45087   */\n      swap1\n      pop\n        /* \"#utility.yul\":44727:45093   */\n      swap2\n      swap1\n      pop\n      jump\t// out\n        /* \"#utility.yul\":45099:45518   */\n    tag_306:\n        /* \"#utility.yul\":45265:45269   */\n      0x00\n        /* \"#utility.yul\":45303:45305   */\n      0x20\n        /* \"#utility.yul\":45292:45301   */\n      dup3\n        /* \"#utility.yul\":45288:45306   */\n      add\n        /* \"#utility.yul\":45280:45306   */\n      swap1\n      pop\n        /* \"#utility.yul\":45352:45361   */\n      dup2\n        /* \"#utility.yul\":45346:45350   */\n      dup2\n        /* \"#utility.yul\":45342:45362   */\n      sub\n        /* \"#utility.yul\":45338:45339   */\n      0x00\n        /* \"#utility.yul\":45327:45336   */\n      dup4\n        /* \"#utility.yul\":45323:45340   */\n      add\n        /* \"#utility.yul\":45316:45363   */\n      mstore\n        /* \"#utility.yul\":45380:45511   */\n      tag_870\n        /* \"#utility.yul\":45506:45510   */\n      dup2\n        /* \"#utility.yul\":45380:45511   */\n      tag_465\n      jump\t// in\n    tag_870:\n        /* \"#utility.yul\":45372:45511   */\n      swap1\n      pop\n        /* \"#utility.yul\":45099:45518   */\n      swap2\n      swap1\n      pop\n      jump\t// out\n        /* \"#utility.yul\":45524:45689   */\n    tag_466:\n        /* \"#utility.yul\":45664:45681   */\n      0x496e76616c696420616464726573730000000000000000000000000000000000\n        /* \"#utility.yul\":45660:45661   */\n      0x00\n        /* \"#utility.yul\":45652:45658   */\n      dup3\n        /* \"#utility.yul\":45648:45662   */\n      add\n        /* \"#utility.yul\":45641:45682   */\n      mstore\n        /* \"#utility.yul\":45524:45689   */\n      pop\n      jump\t// out\n        /* \"#utility.yul\":45695:46061   */\n    tag_467:\n        /* \"#utility.yul\":45837:45840   */\n      0x00\n        /* \"#utility.yul\":45858:45925   */\n      tag_873\n        /* \"#utility.yul\":45922:45924   */\n      0x0f\n        /* \"#utility.yul\":45917:45920   */\n      dup4\n        /* \"#utility.yul\":45858:45925   */\n      tag_405\n      jump\t// in\n    tag_873:\n        /* \"#utility.yul\":45851:45925   */\n      swap2\n      pop\n        /* \"#utility.yul\":45934:46027   */\n      tag_874\n        /* \"#utility.yul\":46023:46026   */\n      dup3\n        /* \"#utility.yul\":45934:46027   */\n      tag_466\n      jump\t// in\n    tag_874:\n        /* \"#utility.yul\":46052:46054   */\n      0x20\n        /* \"#utility.yul\":46047:46050   */\n      dup3\n        /* \"#utility.yul\":46043:46055   */\n      add\n        /* \"#utility.yul\":46036:46055   */\n      swap1\n      pop\n        /* \"#utility.yul\":45695:46061   */\n      swap2\n      swap1\n      pop\n      jump\t// out\n        /* \"#utility.yul\":46067:46486   */\n    tag_310:\n        /* \"#utility.yul\":46233:46237   */\n      0x00\n        /* \"#utility.yul\":46271:46273   */\n      0x20\n        /* \"#utility.yul\":46260:46269   */\n      dup3\n        /* \"#utility.yul\":46256:46274   */\n      add\n        /* \"#utility.yul\":46248:46274   */\n      swap1\n      pop\n        /* \"#utility.yul\":46320:46329   */\n      dup2\n        /* \"#utility.yul\":46314:46318   */\n      dup2\n        /* \"#utility.yul\":46310:46330   */\n      sub\n        /* \"#utility.yul\":46306:46307   */\n      0x00\n        /* \"#utility.yul\":46295:46304   */\n      dup4\n        /* \"#utility.yul\":46291:46308   */\n      add\n        /* \"#utility.yul\":46284:46331   */\n      mstore\n        /* \"#utility.yul\":46348:46479   */\n      tag_876\n        /* \"#utility.yul\":46474:46478   */\n      dup2\n        /* \"#utility.yul\":46348:46479   */\n      tag_467\n      jump\t// in\n    tag_876:\n        /* \"#utility.yul\":46340:46479   */\n      swap1\n      pop\n        /* \"#utility.yul\":46067:46486   */\n      swap2\n      swap1\n      pop\n      jump\t// out\n        /* \"#utility.yul\":46492:46672   */\n    tag_468:\n        /* \"#utility.yul\":46632:46664   */\n      0x5061727469636970616e7420616c726561647920617574686f72697a65640000\n        /* \"#utility.yul\":46628:46629   */\n      0x00\n        /* \"#utility.yul\":46620:46626   */\n      dup3\n        /* \"#utility.yul\":46616:46630   */\n      add\n        /* \"#utility.yul\":46609:46665   */\n      mstore\n        /* \"#utility.yul\":46492:46672   */\n      pop\n      jump\t// out\n        /* \"#utility.yul\":46678:47044   */\n    tag_469:\n        /* \"#utility.yul\":46820:46823   */\n      0x00\n        /* \"#utility.yul\":46841:46908   */\n      tag_879\n        /* \"#utility.yul\":46905:46907   */\n      0x1e\n        /* \"#utility.yul\":46900:46903   */\n      dup4\n        /* \"#utility.yul\":46841:46908   */\n      tag_405\n      jump\t// in\n    tag_879:\n        /* \"#utility.yul\":46834:46908   */\n      swap2\n      pop\n        /* \"#utility.yul\":46917:47010   */\n      tag_880\n        /* \"#utility.yul\":47006:47009   */\n      dup3\n        /* \"#utility.yul\":46917:47010   */\n      tag_468\n      jump\t// in\n    tag_880:\n        /* \"#utility.yul\":47035:47037   */\n      0x20\n        /* \"#utility.yul\":47030:47033   */\n      dup3\n        /* \"#utility.yul\":47026:47038   */\n      add\n        /* \"#utility.yul\":47019:47038   */\n      swap1\n      pop\n        /* \"#utility.yul\":46678:47044   */\n      swap2\n      swap1\n      pop\n      jump\t// out\n        /* \"#utility.yul\":47050:47469   */\n    tag_313:\n        /* \"#utility.yul\":47216:47220   */\n      0x00\n        /* \"#utility.yul\":47254:47256   */\n      0x20\n        /* \"#utility.yul\":47243:47252   */\n      dup3\n        /* \"#utility.yul\":47239:47257   */\n      add\n        /* \"#utility.yul\":47231:47257   */\n      swap1\n      pop\n        /* \"#utility.yul\":47303:47312   */\n      dup2\n        /* \"#utility.yul\":47297:47301   */\n      dup2\n        /* \"#utility.yul\":47293:47313   */\n      sub\n        /* \"#utility.yul\":47289:47290   */\n      0x00\n        /* \"#utility.yul\":47278:47287   */\n      dup4\n        /* \"#utility.yul\":47274:47291   */\n      add\n        /* \"#utility.yul\":47267:47314   */\n      mstore\n        /* \"#utility.yul\":47331:47462   */\n      tag_882\n        /* \"#utility.yul\":47457:47461   */\n      dup2\n        /* \"#utility.yul\":47331:47462   */\n      tag_469\n      jump\t// in\n    tag_882:\n        /* \"#utility.yul\":47323:47462   */\n      swap1\n      pop\n        /* \"#utility.yul\":47050:47469   */\n      swap2\n      swap1\n      pop\n      jump\t// out\n        /* \"#utility.yul\":47475:47648   */\n    tag_470:\n        /* \"#utility.yul\":47615:47640   */\n      0x4944206c6973742063616e6e6f7420626520656d707479000000000000000000\n        /* \"#utility.yul\":47611:47612   */\n      0x00\n        /* \"#utility.yul\":47603:47609   */\n      dup3\n        /* \"#utility.yul\":47599:47613   */\n      add\n        /* \"#utility.yul\":47592:47641   */\n      mstore\n        /* \"#utility.yul\":47475:47648   */\n      pop\n      jump\t// out\n        /* \"#utility.yul\":47654:48020   */\n    tag_471:\n        /* \"#utility.yul\":47796:47799   */\n      0x00\n        /* \"#utility.yul\":47817:47884   */\n      tag_885\n        /* \"#utility.yul\":47881:47883   */\n      0x17\n        /* \"#utility.yul\":47876:47879   */\n      dup4\n        /* \"#utility.yul\":47817:47884   */\n      tag_405\n      jump\t// in\n    tag_885:\n        /* \"#utility.yul\":47810:47884   */\n      swap2\n      pop\n        /* \"#utility.yul\":47893:47986   */\n      tag_886\n        /* \"#utility.yul\":47982:47985   */\n      dup3\n        /* \"#utility.yul\":47893:47986   */\n      tag_470\n      jump\t// in\n    tag_886:\n        /* \"#utility.yul\":48011:48013   */\n      0x20\n        /* \"#utility.yul\":48006:48009   */\n      dup3\n        /* \"#utility.yul\":48002:48014   */\n      add\n        /* \"#utility.yul\":47995:48014   */\n      swap1\n      pop\n        /* \"#utility.yul\":47654:48020   */\n      swap2\n      swap1\n      pop\n      jump\t// out\n        /* \"#utility.yul\":48026:48445   */\n    tag_330:\n        /* \"#utility.yul\":48192:48196   */\n      0x00\n        /* \"#utility.yul\":48230:48232   */\n      0x20\n        /* \"#utility.yul\":48219:48228   */\n      dup3\n        /* \"#utility.yul\":48215:48233   */\n      add\n        /* \"#utility.yul\":48207:48233   */\n      swap1\n      pop\n        /* \"#utility.yul\":48279:48288   */\n      dup2\n        /* \"#utility.yul\":48273:48277   */\n      dup2\n        /* \"#utility.yul\":48269:48289   */\n      sub\n        /* \"#utility.yul\":48265:48266   */\n      0x00\n        /* \"#utility.yul\":48254:48263   */\n      dup4\n        /* \"#utility.yul\":48250:48267   */\n      add\n        /* \"#utility.yul\":48243:48290   */\n      mstore\n        /* \"#utility.yul\":48307:48438   */\n      tag_888\n        /* \"#utility.yul\":48433:48437   */\n      dup2\n        /* \"#utility.yul\":48307:48438   */\n      tag_471\n      jump\t// in\n    tag_888:\n        /* \"#utility.yul\":48299:48438   */\n      swap1\n      pop\n        /* \"#utility.yul\":48026:48445   */\n      swap2\n      swap1\n      pop\n      jump\t// out\n\n    auxdata: 0xa2646970667358221220df0f9b027edc5cd322955f80e3a9081130247162988db96402422182028c520564736f6c634300081a0033\n}\n",
				"bytecode": {
					"linkReferences": {},
					"object": "608060405234801561000f575f80fd5b50335f806101000a81548173ffffffffffffffffffffffffffffffffffffffff021916908373ffffffffffffffffffffffffffffffffffffffff1602179055505f6001819055505f600281905550600160035f3373ffffffffffffffffffffffffffffffffffffffff1673ffffffffffffffffffffffffffffffffffffffff1681526020019081526020015f205f6101000a81548160ff0219169083151502179055503373ffffffffffffffffffffffffffffffffffffffff167f3cbcbb9ba5a54d0762f39fd455fd2900fbcfcd0e0693e2c87db13043c400b55f60405160405180910390a2613c9e806101025f395ff3fe608060405234801561000f575f80fd5b506004361061012a575f3560e01c80639ce0f973116100ab578063c5f8d5841161006f578063c5f8d5841461038a578063cf9cd669146103a6578063dfafe10f146103d6578063e0f6ef87146103f2578063f5f34413146104105761012a565b80639ce0f973146102a65780639ffaa71e146102c2578063af55ed64146102f2578063b32c4d8d14610322578063b9db15b4146103565761012a565b80637acc0b20116100f25780637acc0b20146101eb57806386b0e812146102205780638d28230b1461023c5780638da5cb5b1461026c5780638fbd0dcf1461028a5761012a565b8063043414221461012e57806306f130561461014a5780632be5b856146101685780633c9af587146101845780635ac44282146101b4575b5f80fd5b610148600480360381019061014391906126cb565b61042c565b005b6101526105c6565b60405161015f9190612734565b60405180910390f35b610182600480360381019061017d91906127a7565b6105cc565b005b61019e60048036038101906101999190612827565b610b06565b6040516101ab919061286c565b60405180910390f35b6101ce60048036038101906101c99190612827565b610d1d565b6040516101e2989796959493929190612aae565b60405180910390f35b61020560048036038101906102009190612827565b61109b565b60405161021796959493929190612b46565b60405180910390f35b61023a60048036038101906102359190612bb3565b61120a565b005b61025660048036038101906102519190612bf1565b6115de565b604051610263919061286c565b60405180910390f35b6102746115fb565b6040516102819190612c1c565b60405180910390f35b6102a4600480360381019061029f9190612c35565b61161e565b005b6102c060048036038101906102bb91906126cb565b61184b565b005b6102dc60048036038101906102d79190612827565b6119e5565b6040516102e9919061286c565b60405180910390f35b61030c60048036038101906103079190612827565b611a13565b604051610319919061286c565b60405180910390f35b61033c60048036038101906103379190612827565b611a5e565b60405161034d959493929190612cab565b60405180910390f35b610370600480360381019061036b9190612827565b611b42565b604051610381959493929190612d03565b60405180910390f35b6103a4600480360381019061039f9190612bf1565b611d35565b005b6103c060048036038101906103bb9190612827565b611f55565b6040516103cd9190612d5b565b60405180910390f35b6103f060048036038101906103eb9190612bf1565b61202c565b005b6103fa612111565b6040516104079190612734565b60405180910390f35b61042a60048036038101906104259190612f1d565b612117565b005b60035f3373ffffffffffffffffffffffffffffffffffffffff1673ffffffffffffffffffffffffffffffffffffffff1681526020019081526020015f205f9054906101000a900460ff166104b5576040517f08c379a00000000000000000000000000000000000000000000000000000000081526004016104ac9061303b565b60405180910390fd5b6104be826119e5565b6104fd576040517f08c379a00000000000000000000000000000000000000000000000000000000081526004016104f4906130a3565b60405180910390fd5b60055f8381526020019081526020015f206005015f9054906101000a900460ff161561055e576040517f08c379a00000000000000000000000000000000000000000000000000000000081526004016105559061310b565b60405180910390fd5b600160055f8481526020019081526020015f206005015f6101000a81548160ff021916908315150217905550817f8f8994662430cbb3a0b089f812f1c51f46ef020e2ccc019cee8988c3312b4a66826040516105ba9190612d5b565b60405180910390a25050565b60025481565b60035f3373ffffffffffffffffffffffffffffffffffffffff1673ffffffffffffffffffffffffffffffffffffffff1681526020019081526020015f205f9054906101000a900460ff16610655576040517f08c379a000000000000000000000000000000000000000000000000000000000815260040161064c9061303b565b60405180910390fd5b5f60055f8681526020019081526020015f2060060154036106ab576040517f08c379a00000000000000000000000000000000000000000000000000000000081526004016106a290613173565b60405180910390fd5b600182036108be575f151560055f8681526020019081526020015f206005015f9054906101000a900460ff16151514610719576040517f08c379a000000000000000000000000000000000000000000000000000000000815260040161071090613201565b60405180910390fd5b5f5b60055f8681526020019081526020015f205f01805490508110156108b8576108ab60055f8781526020019081526020015f2060010182815481106107625761076161321f565b5b905f5260205f2001805461077590613279565b80601f01602080910402602001604051908101604052809291908181526020018280546107a190613279565b80156107ec5780601f106107c3576101008083540402835291602001916107ec565b820191905f5260205f20905b8154815290600101906020018083116107cf57829003601f168201915b505050505060055f8881526020019081526020015f2060020183815481106108175761081661321f565b5b905f5260205f2001805461082a90613279565b80601f016020809104026020016040519081016040528092919081815260200182805461085690613279565b80156108a15780601f10610878576101008083540402835291602001916108a1565b820191905f5260205f20905b81548152906001019060200180831161088457829003601f168201915b505050505061161e565b808060010191505061071b565b50610ab5565b60028203610996575f151560055f8681526020019081526020015f206005015f9054906101000a900460ff1615151461092c576040517f08c379a000000000000000000000000000000000000000000000000000000000815260040161092390613201565b60405180910390fd5b5f5b60055f8681526020019081526020015f205f01805490508110156109905761098360055f8781526020019081526020015f205f0182815481106109745761097361321f565b5b905f5260205f2001548561120a565b808060010191505061092e565b50610ab4565b60038203610a78575f151560055f8681526020019081526020015f206005015f9054906101000a900460ff16151514610a04576040517f08c379a00000000000000000000000000000000000000000000000000000000081526004016109fb9061310b565b60405180910390fd5b5f5b60055f8681526020019081526020015f205f0180549050811015610a6857610a5b60055f8781526020019081526020015f205f018281548110610a4c57610a4b61321f565b5b905f5260205f2001548361184b565b8080600101915050610a06565b50610a73848261042c565b610ab3565b6040517f08c379a0000000000000000000000000000000000000000000000000000000008152600401610aaa906132f3565b60405180910390fd5b5b5b837f603489d1e5e10e7b7393a68b1707e0b98e7976704197482dc200a6b34674b54a60055f8781526020019081526020015f20600701604051610af891906133a4565b60405180910390a250505050565b5f610b1082611a13565b610b4f576040517f08c379a0000000000000000000000000000000000000000000000000000000008152600401610b469061340e565b60405180910390fd5b5f60045f8481526020019081526020015f206040518060c00160405290815f8201548152602001600182018054610b8590613279565b80601f0160208091040260200160405190810160405280929190818152602001828054610bb190613279565b8015610bfc5780601f10610bd357610100808354040283529160200191610bfc565b820191905f5260205f20905b815481529060010190602001808311610bdf57829003601f168201915b50505050508152602001600282018054610c1590613279565b80601f0160208091040260200160405190810160405280929190818152602001828054610c4190613279565b8015610c8c5780601f10610c6357610100808354040283529160200191610c8c565b820191905f5260205f20905b815481529060010190602001808311610c6f57829003601f168201915b50505050508152602001600382015f9054906101000a900473ffffffffffffffffffffffffffffffffffffffff1673ffffffffffffffffffffffffffffffffffffffff1673ffffffffffffffffffffffffffffffffffffffff16815260200160048201548152602001600582015f9054906101000a900460ff16151515158152505090508060a00151915050919050565b60608060605f805f8060605f60055f8b81526020019081526020015f20604051806101000160405290815f8201805480602002602001604051908101604052809291908181526020018280548015610d9257602002820191905f5260205f20905b815481526020019060010190808311610d7e575b5050505050815260200160018201805480602002602001604051908101604052809291908181526020015f905b82821015610e67578382905f5260205f20018054610ddc90613279565b80601f0160208091040260200160405190810160405280929190818152602001828054610e0890613279565b8015610e535780601f10610e2a57610100808354040283529160200191610e53565b820191905f5260205f20905b815481529060010190602001808311610e3657829003601f168201915b505050505081526020019060010190610dbf565b50505050815260200160028201805480602002602001604051908101604052809291908181526020015f905b82821015610f3b578382905f5260205f20018054610eb090613279565b80601f0160208091040260200160405190810160405280929190818152602001828054610edc90613279565b8015610f275780601f10610efe57610100808354040283529160200191610f27565b820191905f5260205f20905b815481529060010190602001808311610f0a57829003601f168201915b505050505081526020019060010190610e93565b505050508152602001600382015f9054906101000a900473ffffffffffffffffffffffffffffffffffffffff1673ffffffffffffffffffffffffffffffffffffffff1673ffffffffffffffffffffffffffffffffffffffff16815260200160048201548152602001600582015f9054906101000a900460ff1615151515815260200160068201548152602001600782018054610fd690613279565b80601f016020809104026020016040519081016040528092919081815260200182805461100290613279565b801561104d5780601f106110245761010080835404028352916020019161104d565b820191905f5260205f20905b81548152906001019060200180831161103057829003601f168201915b5050505050815250509050805f015181602001518260400151836060015184608001518560a001518660c001518760e001519850985098509850985098509850985050919395975091939597565b6004602052805f5260405f205f91509050805f0154908060010180546110c090613279565b80601f01602080910402602001604051908101604052809291908181526020018280546110ec90613279565b80156111375780601f1061110e57610100808354040283529160200191611137565b820191905f5260205f20905b81548152906001019060200180831161111a57829003601f168201915b50505050509080600201805461114c90613279565b80601f016020809104026020016040519081016040528092919081815260200182805461117890613279565b80156111c35780601f1061119a576101008083540402835291602001916111c3565b820191905f5260205f20905b8154815290600101906020018083116111a657829003601f168201915b505050505090806003015f9054906101000a900473ffffffffffffffffffffffffffffffffffffffff1690806004015490806005015f9054906101000a900460ff16905086565b60035f3373ffffffffffffffffffffffffffffffffffffffff1673ffffffffffffffffffffffffffffffffffffffff1681526020019081526020015f205f9054906101000a900460ff16611293576040517f08c379a000000000000000000000000000000000000000000000000000000000815260040161128a9061303b565b60405180910390fd5b5f821180156112a457506001548211155b6112e3576040517f08c379a00000000000000000000000000000000000000000000000000000000081526004016112da90613476565b60405180910390fd5b60045f8381526020019081526020015f206005015f9054906101000a900460ff1615611344576040517f08c379a000000000000000000000000000000000000000000000000000000000815260040161133b90613504565b60405180910390fd5b5f73ffffffffffffffffffffffffffffffffffffffff168173ffffffffffffffffffffffffffffffffffffffff16036113b2576040517f08c379a00000000000000000000000000000000000000000000000000000000081526004016113a99061356c565b60405180910390fd5b60035f8273ffffffffffffffffffffffffffffffffffffffff1673ffffffffffffffffffffffffffffffffffffffff1681526020019081526020015f205f9054906101000a900460ff1661143b576040517f08c379a0000000000000000000000000000000000000000000000000000000008152600401611432906135d4565b60405180910390fd5b3373ffffffffffffffffffffffffffffffffffffffff1660045f8481526020019081526020015f206003015f9054906101000a900473ffffffffffffffffffffffffffffffffffffffff1673ffffffffffffffffffffffffffffffffffffffff16146114dc576040517f08c379a00000000000000000000000000000000000000000000000000000000081526004016114d39061363c565b60405180910390fd5b5f60045f8481526020019081526020015f206003015f9054906101000a900473ffffffffffffffffffffffffffffffffffffffff1690508160045f8581526020019081526020015f206003015f6101000a81548173ffffffffffffffffffffffffffffffffffffffff021916908373ffffffffffffffffffffffffffffffffffffffff1602179055504260045f8581526020019081526020015f20600401819055508173ffffffffffffffffffffffffffffffffffffffff168173ffffffffffffffffffffffffffffffffffffffff16847f16b85f49bf01212961345d3016c9a531894accf62eb7680f2045d79185cc0ec060405160405180910390a4505050565b6003602052805f5260405f205f915054906101000a900460ff1681565b5f8054906101000a900473ffffffffffffffffffffffffffffffffffffffff1681565b60035f3373ffffffffffffffffffffffffffffffffffffffff1673ffffffffffffffffffffffffffffffffffffffff1681526020019081526020015f205f9054906101000a900460ff166116a7576040517f08c379a000000000000000000000000000000000000000000000000000000000815260040161169e9061303b565b60405180910390fd5b5f8251116116ea576040517f08c379a00000000000000000000000000000000000000000000000000000000081526004016116e1906136a4565b60405180910390fd5b5f81511161172d576040517f08c379a00000000000000000000000000000000000000000000000000000000081526004016117249061370c565b60405180910390fd5b60015f81548092919061173f90613757565b91905055505f60015490506040518060c001604052808281526020018481526020018381526020013373ffffffffffffffffffffffffffffffffffffffff1681526020014281526020015f151581525060045f8381526020019081526020015f205f820151815f015560208201518160010190816117bd9190613929565b5060408201518160020190816117d39190613929565b506060820151816003015f6101000a81548173ffffffffffffffffffffffffffffffffffffffff021916908373ffffffffffffffffffffffffffffffffffffffff1602179055506080820151816004015560a0820151816005015f6101000a81548160ff021916908315150217905550905050505050565b60035f3373ffffffffffffffffffffffffffffffffffffffff1673ffffffffffffffffffffffffffffffffffffffff1681526020019081526020015f205f9054906101000a900460ff166118d4576040517f08c379a00000000000000000000000000000000000000000000000000000000081526004016118cb9061303b565b60405180910390fd5b6118dd82611a13565b61191c576040517f08c379a000000000000000000000000000000000000000000000000000000000815260040161191390613a42565b60405180910390fd5b60045f8381526020019081526020015f206005015f9054906101000a900460ff161561197d576040517f08c379a000000000000000000000000000000000000000000000000000000000815260040161197490613aaa565b60405180910390fd5b600160045f8481526020019081526020015f206005015f6101000a81548160ff021916908315150217905550817fcf945375036ee1ff64a8885b9c36844ac503b07ad7b0b3b78d023eb0a4cc623c826040516119d99190612d5b565b60405180910390a25050565b5f8060055f8481526020019081526020015f206006015414611a0a5760019050611a0e565b5f90505b919050565b5f805f90505b600154811015611a545760045f8281526020019081526020015f205f01548303611a47576001915050611a59565b8080600101915050611a19565b505f90505b919050565b6005602052805f5260405f205f91509050806003015f9054906101000a900473ffffffffffffffffffffffffffffffffffffffff1690806004015490806005015f9054906101000a900460ff1690806006015490806007018054611ac190613279565b80601f0160208091040260200160405190810160405280929190818152602001828054611aed90613279565b8015611b385780601f10611b0f57610100808354040283529160200191611b38565b820191905f5260205f20905b815481529060010190602001808311611b1b57829003601f168201915b5050505050905085565b5f60605f805f8060045f8881526020019081526020015f206040518060c00160405290815f8201548152602001600182018054611b7e90613279565b80601f0160208091040260200160405190810160405280929190818152602001828054611baa90613279565b8015611bf55780601f10611bcc57610100808354040283529160200191611bf5565b820191905f5260205f20905b815481529060010190602001808311611bd857829003601f168201915b50505050508152602001600282018054611c0e90613279565b80601f0160208091040260200160405190810160405280929190818152602001828054611c3a90613279565b8015611c855780601f10611c5c57610100808354040283529160200191611c85565b820191905f5260205f20905b815481529060010190602001808311611c6857829003601f168201915b50505050508152602001600382015f9054906101000a900473ffffffffffffffffffffffffffffffffffffffff1673ffffffffffffffffffffffffffffffffffffffff1673ffffffffffffffffffffffffffffffffffffffff16815260200160048201548152602001600582015f9054906101000a900460ff1615151515815250509050805f01518160200151826060015183608001518460a00151955095509550955095505091939590929450565b5f8054906101000a900473ffffffffffffffffffffffffffffffffffffffff1673ffffffffffffffffffffffffffffffffffffffff163373ffffffffffffffffffffffffffffffffffffffff1614611dc2576040517f08c379a0000000000000000000000000000000000000000000000000000000008152600401611db990613b12565b60405180910390fd5b5f73ffffffffffffffffffffffffffffffffffffffff168173ffffffffffffffffffffffffffffffffffffffff1603611e30576040517f08c379a0000000000000000000000000000000000000000000000000000000008152600401611e2790613b7a565b60405180910390fd5b60035f8273ffffffffffffffffffffffffffffffffffffffff1673ffffffffffffffffffffffffffffffffffffffff1681526020019081526020015f205f9054906101000a900460ff1615611eba576040517f08c379a0000000000000000000000000000000000000000000000000000000008152600401611eb190613be2565b60405180910390fd5b600160035f8373ffffffffffffffffffffffffffffffffffffffff1673ffffffffffffffffffffffffffffffffffffffff1681526020019081526020015f205f6101000a81548160ff0219169083151502179055508073ffffffffffffffffffffffffffffffffffffffff167f3cbcbb9ba5a54d0762f39fd455fd2900fbcfcd0e0693e2c87db13043c400b55f60405160405180910390a250565b606060018203611f9c576040518060400160405280600e81526020017f72657367697374657242617463680000000000000000000000000000000000008152509050612027565b60028203611fe1576040518060400160405280600d81526020017f7472616e736665724261746368000000000000000000000000000000000000008152509050612027565b60038203612026576040518060400160405280600b81526020017f726563616c6c42617463680000000000000000000000000000000000000000008152509050612027565b5b919050565b5f8054906101000a900473ffffffffffffffffffffffffffffffffffffffff1673ffffffffffffffffffffffffffffffffffffffff163373ffffffffffffffffffffffffffffffffffffffff16146120b9576040517f08c379a00000000000000000000000000000000000000000000000000000000081526004016120b090613b12565b60405180910390fd5b600160035f8373ffffffffffffffffffffffffffffffffffffffff1673ffffffffffffffffffffffffffffffffffffffff1681526020019081526020015f205f6101000a81548160ff02191690831515021790555050565b60015481565b60035f3373ffffffffffffffffffffffffffffffffffffffff1673ffffffffffffffffffffffffffffffffffffffff1681526020019081526020015f205f9054906101000a900460ff166121a0576040517f08c379a00000000000000000000000000000000000000000000000000000000081526004016121979061303b565b60405180910390fd5b5f8451116121e3576040517f08c379a00000000000000000000000000000000000000000000000000000000081526004016121da90613c4a565b60405180910390fd5b5f835111612226576040517f08c379a000000000000000000000000000000000000000000000000000000000815260040161221d906136a4565b60405180910390fd5b5f825111612269576040517f08c379a00000000000000000000000000000000000000000000000000000000081526004016122609061370c565b60405180910390fd5b60025f81548092919061227b90613757565b91905055505f60025490506040518061010001604052808681526020018581526020018481526020015f8054906101000a900473ffffffffffffffffffffffffffffffffffffffff1673ffffffffffffffffffffffffffffffffffffffff1681526020014281526020015f151581526020018281526020018381525060055f8381526020019081526020015f205f820151815f01908051906020019061232292919061242e565b50602082015181600101908051906020019061233f929190612479565b50604082015181600201908051906020019061235c929190612479565b506060820151816003015f6101000a81548173ffffffffffffffffffffffffffffffffffffffff021916908373ffffffffffffffffffffffffffffffffffffffff1602179055506080820151816004015560a0820151816005015f6101000a81548160ff02191690831515021790555060c0820151816006015560e08201518160070190816123eb9190613929565b50905050807f97ff4eb42b5af6ff38cafbfad77979b7fbe233bb58b2cb81eb38859456a133fd8360405161241f9190612d5b565b60405180910390a25050505050565b828054828255905f5260205f20908101928215612468579160200282015b8281111561246757825182559160200191906001019061244c565b5b50905061247591906124d0565b5090565b828054828255905f5260205f209081019282156124bf579160200282015b828111156124be5782518290816124ae9190613929565b5091602001919060010190612497565b5b5090506124cc91906124eb565b5090565b5b808211156124e7575f815f9055506001016124d1565b5090565b5b8082111561250a575f8181612501919061250e565b506001016124ec565b5090565b50805461251a90613279565b5f825580601f1061252b5750612548565b601f0160209004905f5260205f209081019061254791906124d0565b5b50565b5f604051905090565b5f80fd5b5f80fd5b5f819050919050565b61256e8161255c565b8114612578575f80fd5b50565b5f8135905061258981612565565b92915050565b5f80fd5b5f80fd5b5f601f19601f8301169050919050565b7f4e487b71000000000000000000000000000000000000000000000000000000005f52604160045260245ffd5b6125dd82612597565b810181811067ffffffffffffffff821117156125fc576125fb6125a7565b5b80604052505050565b5f61260e61254b565b905061261a82826125d4565b919050565b5f67ffffffffffffffff821115612639576126386125a7565b5b61264282612597565b9050602081019050919050565b828183375f83830152505050565b5f61266f61266a8461261f565b612605565b90508281526020810184848401111561268b5761268a612593565b5b61269684828561264f565b509392505050565b5f82601f8301126126b2576126b161258f565b5b81356126c284826020860161265d565b91505092915050565b5f80604083850312156126e1576126e0612554565b5b5f6126ee8582860161257b565b925050602083013567ffffffffffffffff81111561270f5761270e612558565b5b61271b8582860161269e565b9150509250929050565b61272e8161255c565b82525050565b5f6020820190506127475f830184612725565b92915050565b5f73ffffffffffffffffffffffffffffffffffffffff82169050919050565b5f6127768261274d565b9050919050565b6127868161276c565b8114612790575f80fd5b50565b5f813590506127a18161277d565b92915050565b5f805f80608085870312156127bf576127be612554565b5b5f6127cc8782880161257b565b94505060206127dd87828801612793565b93505060406127ee8782880161257b565b925050606085013567ffffffffffffffff81111561280f5761280e612558565b5b61281b8782880161269e565b91505092959194509250565b5f6020828403121561283c5761283b612554565b5b5f6128498482850161257b565b91505092915050565b5f8115159050919050565b61286681612852565b82525050565b5f60208201905061287f5f83018461285d565b92915050565b5f81519050919050565b5f82825260208201905092915050565b5f819050602082019050919050565b6128b78161255c565b82525050565b5f6128c883836128ae565b60208301905092915050565b5f602082019050919050565b5f6128ea82612885565b6128f4818561288f565b93506128ff8361289f565b805f5b8381101561292f57815161291688826128bd565b9750612921836128d4565b925050600181019050612902565b5085935050505092915050565b5f81519050919050565b5f82825260208201905092915050565b5f819050602082019050919050565b5f81519050919050565b5f82825260208201905092915050565b8281835e5f83830152505050565b5f61299782612965565b6129a1818561296f565b93506129b181856020860161297f565b6129ba81612597565b840191505092915050565b5f6129d0838361298d565b905092915050565b5f602082019050919050565b5f6129ee8261293c565b6129f88185612946565b935083602082028501612a0a85612956565b805f5b85811015612a455784840389528151612a2685826129c5565b9450612a31836129d8565b925060208a01995050600181019050612a0d565b50829750879550505050505092915050565b612a608161276c565b82525050565b5f82825260208201905092915050565b5f612a8082612965565b612a8a8185612a66565b9350612a9a81856020860161297f565b612aa381612597565b840191505092915050565b5f610100820190508181035f830152612ac7818b6128e0565b90508181036020830152612adb818a6129e4565b90508181036040830152612aef81896129e4565b9050612afe6060830188612a57565b612b0b6080830187612725565b612b1860a083018661285d565b612b2560c0830185612725565b81810360e0830152612b378184612a76565b90509998505050505050505050565b5f60c082019050612b595f830189612725565b8181036020830152612b6b8188612a76565b90508181036040830152612b7f8187612a76565b9050612b8e6060830186612a57565b612b9b6080830185612725565b612ba860a083018461285d565b979650505050505050565b5f8060408385031215612bc957612bc8612554565b5b5f612bd68582860161257b565b9250506020612be785828601612793565b9150509250929050565b5f60208284031215612c0657612c05612554565b5b5f612c1384828501612793565b91505092915050565b5f602082019050612c2f5f830184612a57565b92915050565b5f8060408385031215612c4b57612c4a612554565b5b5f83013567ffffffffffffffff811115612c6857612c67612558565b5b612c748582860161269e565b925050602083013567ffffffffffffffff811115612c9557612c94612558565b5b612ca18582860161269e565b9150509250929050565b5f60a082019050612cbe5f830188612a57565b612ccb6020830187612725565b612cd8604083018661285d565b612ce56060830185612725565b8181036080830152612cf78184612a76565b90509695505050505050565b5f60a082019050612d165f830188612725565b8181036020830152612d288187612a76565b9050612d376040830186612a57565b612d446060830185612725565b612d51608083018461285d565b9695505050505050565b5f6020820190508181035f830152612d738184612a76565b905092915050565b5f67ffffffffffffffff821115612d9557612d946125a7565b5b602082029050602081019050919050565b5f80fd5b5f612dbc612db784612d7b565b612605565b90508083825260208201905060208402830185811115612ddf57612dde612da6565b5b835b81811015612e085780612df4888261257b565b845260208401935050602081019050612de1565b5050509392505050565b5f82601f830112612e2657612e2561258f565b5b8135612e36848260208601612daa565b91505092915050565b5f67ffffffffffffffff821115612e5957612e586125a7565b5b602082029050602081019050919050565b5f612e7c612e7784612e3f565b612605565b90508083825260208201905060208402830185811115612e9f57612e9e612da6565b5b835b81811015612ee657803567ffffffffffffffff811115612ec457612ec361258f565b5b808601612ed1898261269e565b85526020850194505050602081019050612ea1565b5050509392505050565b5f82601f830112612f0457612f0361258f565b5b8135612f14848260208601612e6a565b91505092915050565b5f805f8060808587031215612f3557612f34612554565b5b5f85013567ffffffffffffffff811115612f5257612f51612558565b5b612f5e87828801612e12565b945050602085013567ffffffffffffffff811115612f7f57612f7e612558565b5b612f8b87828801612ef0565b935050604085013567ffffffffffffffff811115612fac57612fab612558565b5b612fb887828801612ef0565b925050606085013567ffffffffffffffff811115612fd957612fd8612558565b5b612fe58782880161269e565b91505092959194509250565b7f4e6f7420617574686f72697a65640000000000000000000000000000000000005f82015250565b5f613025600e83612a66565b915061303082612ff1565b602082019050919050565b5f6020820190508181035f83015261305281613019565b9050919050565b7f426174636820646f65736e7420657869737473000000000000000000000000005f82015250565b5f61308d601383612a66565b915061309882613059565b602082019050919050565b5f6020820190508181035f8301526130ba81613081565b9050919050565b7f426174636820616c726561647920726563616c6c6564000000000000000000005f82015250565b5f6130f5601683612a66565b9150613100826130c1565b602082019050919050565b5f6020820190508181035f830152613122816130e9565b9050919050565b7f426174636820646f65736e7420657869737400000000000000000000000000005f82015250565b5f61315d601283612a66565b915061316882613129565b602082019050919050565b5f6020820190508181035f83015261318a81613151565b9050919050565b7f426174636820526563616c6c65642c206f7065726174696f6e2063616e7420625f8201527f6520646f6e650000000000000000000000000000000000000000000000000000602082015250565b5f6131eb602683612a66565b91506131f682613191565b604082019050919050565b5f6020820190508181035f830152613218816131df565b9050919050565b7f4e487b71000000000000000000000000000000000000000000000000000000005f52603260045260245ffd5b7f4e487b71000000000000000000000000000000000000000000000000000000005f52602260045260245ffd5b5f600282049050600182168061329057607f821691505b6020821081036132a3576132a261324c565b5b50919050565b7f496e76616c6964206f7065726174696f6e0000000000000000000000000000005f82015250565b5f6132dd601183612a66565b91506132e8826132a9565b602082019050919050565b5f6020820190508181035f83015261330a816132d1565b9050919050565b5f819050815f5260205f209050919050565b5f815461332f81613279565b6133398186612a66565b9450600182165f811461335357600181146133695761339b565b60ff19831686528115156020028601935061339b565b61337285613311565b5f5b8381101561339357815481890152600182019150602081019050613374565b808801955050505b50505092915050565b5f6020820190508181035f8301526133bc8184613323565b905092915050565b7f497420646f65736e7420657869737473000000000000000000000000000000005f82015250565b5f6133f8601083612a66565b9150613403826133c4565b602082019050919050565b5f6020820190508181035f830152613425816133ec565b9050919050565b7f496e76616c69642070726f6475637420494400000000000000000000000000005f82015250565b5f613460601283612a66565b915061346b8261342c565b602082019050919050565b5f6020820190508181035f83015261348d81613454565b9050919050565b7f526563616c6c65642070726f64756374732063616e6e6f74206265207472616e5f8201527f7366657272656400000000000000000000000000000000000000000000000000602082015250565b5f6134ee602783612a66565b91506134f982613494565b604082019050919050565b5f6020820190508181035f83015261351b816134e2565b9050919050565b7f496e76616c6964206e6577206f776e65722061646472657373000000000000005f82015250565b5f613556601983612a66565b915061356182613522565b602082019050919050565b5f6020820190508181035f8301526135838161354a565b9050919050565b7f4e6577206f776e6572206973206e6f7420617574686f72697a656400000000005f82015250565b5f6135be601b83612a66565b91506135c98261358a565b602082019050919050565b5f6020820190508181035f8301526135eb816135b2565b9050919050565b7f4f6e6c792063757272656e74206f776e65722063616e207472616e73666572005f82015250565b5f613626601f83612a66565b9150613631826135f2565b602082019050919050565b5f6020820190508181035f8301526136538161361a565b9050919050565b7f4e616d652063616e6e6f7420626520656d7074790000000000000000000000005f82015250565b5f61368e601483612a66565b91506136998261365a565b602082019050919050565b5f6020820190508181035f8301526136bb81613682565b9050919050565b7f4465736372697074696f6e2063616e6e6f7420626520656d70747900000000005f82015250565b5f6136f6601b83612a66565b9150613701826136c2565b602082019050919050565b5f6020820190508181035f830152613723816136ea565b9050919050565b7f4e487b71000000000000000000000000000000000000000000000000000000005f52601160045260245ffd5b5f6137618261255c565b91507fffffffffffffffffffffffffffffffffffffffffffffffffffffffffffffffff82036137935761379261372a565b5b600182019050919050565b5f6020601f8301049050919050565b5f82821b905092915050565b5f600883026137e87fffffffffffffffffffffffffffffffffffffffffffffffffffffffffffffffff826137ad565b6137f286836137ad565b95508019841693508086168417925050509392505050565b5f819050919050565b5f61382d6138286138238461255c565b61380a565b61255c565b9050919050565b5f819050919050565b61384683613813565b61385a61385282613834565b8484546137b9565b825550505050565b5f90565b61386e613862565b61387981848461383d565b505050565b5b8181101561389c576138915f82613866565b60018101905061387f565b5050565b601f8211156138e1576138b281613311565b6138bb8461379e565b810160208510156138ca578190505b6138de6138d68561379e565b83018261387e565b50505b505050565b5f82821c905092915050565b5f6139015f19846008026138e6565b1980831691505092915050565b5f61391983836138f2565b9150826002028217905092915050565b61393282612965565b67ffffffffffffffff81111561394b5761394a6125a7565b5b6139558254613279565b6139608282856138a0565b5f60209050601f831160018114613991575f841561397f578287015190505b613989858261390e565b8655506139f0565b601f19841661399f86613311565b5f5b828110156139c6578489015182556001820191506020850194506020810190506139a1565b868310156139e357848901516139df601f8916826138f2565b8355505b6001600288020188555050505b505050505050565b7f50726f6475637420646f65736e742065786973747300000000000000000000005f82015250565b5f613a2c601583612a66565b9150613a37826139f8565b602082019050919050565b5f6020820190508181035f830152613a5981613a20565b9050919050565b7f416c726561647920726563616c6c6564000000000000000000000000000000005f82015250565b5f613a94601083612a66565b9150613a9f82613a60565b602082019050919050565b5f6020820190508181035f830152613ac181613a88565b9050919050565b7f4e6f7420746865206f776e6572000000000000000000000000000000000000005f82015250565b5f613afc600d83612a66565b9150613b0782613ac8565b602082019050919050565b5f6020820190508181035f830152613b2981613af0565b9050919050565b7f496e76616c6964206164647265737300000000000000000000000000000000005f82015250565b5f613b64600f83612a66565b9150613b6f82613b30565b602082019050919050565b5f6020820190508181035f830152613b9181613b58565b9050919050565b7f5061727469636970616e7420616c726561647920617574686f72697a656400005f82015250565b5f613bcc601e83612a66565b9150613bd782613b98565b602082019050919050565b5f6020820190508181035f830152613bf981613bc0565b9050919050565b7f4944206c6973742063616e6e6f7420626520656d7074790000000000000000005f82015250565b5f613c34601783612a66565b9150613c3f82613c00565b602082019050919050565b5f6020820190508181035f830152613c6181613c28565b905091905056fea2646970667358221220df0f9b027edc5cd322955f80e3a9081130247162988db96402422182028c520564736f6c634300081a0033",
					"opcodes": "PUSH1 0x80 PUSH1 0x40 MSTORE CALLVALUE DUP1 ISZERO PUSH2 0xF JUMPI PUSH0 DUP1 REVERT JUMPDEST POP CALLER PUSH0 DUP1 PUSH2 0x100 EXP DUP2 SLOAD DUP2 PUSH20 0xFFFFFFFFFFFFFFFFFFFFFFFFFFFFFFFFFFFFFFFF MUL NOT AND SWAP1 DUP4 PUSH20 0xFFFFFFFFFFFFFFFFFFFFFFFFFFFFFFFFFFFFFFFF AND MUL OR SWAP1 SSTORE POP PUSH0 PUSH1 0x1 DUP2 SWAP1 SSTORE POP PUSH0 PUSH1 0x2 DUP2 SWAP1 SSTORE POP PUSH1 0x1 PUSH1 0x3 PUSH0 CALLER PUSH20 0xFFFFFFFFFFFFFFFFFFFFFFFFFFFFFFFFFFFFFFFF AND PUSH20 0xFFFFFFFFFFFFFFFFFFFFFFFFFFFFFFFFFFFFFFFF AND DUP2 MSTORE PUSH1 0x20 ADD SWAP1 DUP2 MSTORE PUSH1 0x20 ADD PUSH0 KECCAK256 PUSH0 PUSH2 0x100 EXP DUP2 SLOAD DUP2 PUSH1 0xFF MUL NOT AND SWAP1 DUP4 ISZERO ISZERO MUL OR SWAP1 SSTORE POP CALLER PUSH20 0xFFFFFFFFFFFFFFFFFFFFFFFFFFFFFFFFFFFFFFFF AND PUSH32 0x3CBCBB9BA5A54D0762F39FD455FD2900FBCFCD0E0693E2C87DB13043C400B55F PUSH1 0x40 MLOAD PUSH1 0x40 MLOAD DUP1 SWAP2 SUB SWAP1 LOG2 PUSH2 0x3C9E DUP1 PUSH2 0x102 PUSH0 CODECOPY PUSH0 RETURN INVALID PUSH1 0x80 PUSH1 0x40 MSTORE CALLVALUE DUP1 ISZERO PUSH2 0xF JUMPI PUSH0 DUP1 REVERT JUMPDEST POP PUSH1 0x4 CALLDATASIZE LT PUSH2 0x12A JUMPI PUSH0 CALLDATALOAD PUSH1 0xE0 SHR DUP1 PUSH4 0x9CE0F973 GT PUSH2 0xAB JUMPI DUP1 PUSH4 0xC5F8D584 GT PUSH2 0x6F JUMPI DUP1 PUSH4 0xC5F8D584 EQ PUSH2 0x38A JUMPI DUP1 PUSH4 0xCF9CD669 EQ PUSH2 0x3A6 JUMPI DUP1 PUSH4 0xDFAFE10F EQ PUSH2 0x3D6 JUMPI DUP1 PUSH4 0xE0F6EF87 EQ PUSH2 0x3F2 JUMPI DUP1 PUSH4 0xF5F34413 EQ PUSH2 0x410 JUMPI PUSH2 0x12A JUMP JUMPDEST DUP1 PUSH4 0x9CE0F973 EQ PUSH2 0x2A6 JUMPI DUP1 PUSH4 0x9FFAA71E EQ PUSH2 0x2C2 JUMPI DUP1 PUSH4 0xAF55ED64 EQ PUSH2 0x2F2 JUMPI DUP1 PUSH4 0xB32C4D8D EQ PUSH2 0x322 JUMPI DUP1 PUSH4 0xB9DB15B4 EQ PUSH2 0x356 JUMPI PUSH2 0x12A JUMP JUMPDEST DUP1 PUSH4 0x7ACC0B20 GT PUSH2 0xF2 JUMPI DUP1 PUSH4 0x7ACC0B20 EQ PUSH2 0x1EB JUMPI DUP1 PUSH4 0x86B0E812 EQ PUSH2 0x220 JUMPI DUP1 PUSH4 0x8D28230B EQ PUSH2 0x23C JUMPI DUP1 PUSH4 0x8DA5CB5B EQ PUSH2 0x26C JUMPI DUP1 PUSH4 0x8FBD0DCF EQ PUSH2 0x28A JUMPI PUSH2 0x12A JUMP JUMPDEST DUP1 PUSH4 0x4341422 EQ PUSH2 0x12E JUMPI DUP1 PUSH4 0x6F13056 EQ PUSH2 0x14A JUMPI DUP1 PUSH4 0x2BE5B856 EQ PUSH2 0x168 JUMPI DUP1 PUSH4 0x3C9AF587 EQ PUSH2 0x184 JUMPI DUP1 PUSH4 0x5AC44282 EQ PUSH2 0x1B4 JUMPI JUMPDEST PUSH0 DUP1 REVERT JUMPDEST PUSH2 0x148 PUSH1 0x4 DUP1 CALLDATASIZE SUB DUP2 ADD SWAP1 PUSH2 0x143 SWAP2 SWAP1 PUSH2 0x26CB JUMP JUMPDEST PUSH2 0x42C JUMP JUMPDEST STOP JUMPDEST PUSH2 0x152 PUSH2 0x5C6 JUMP JUMPDEST PUSH1 0x40 MLOAD PUSH2 0x15F SWAP2 SWAP1 PUSH2 0x2734 JUMP JUMPDEST PUSH1 0x40 MLOAD DUP1 SWAP2 SUB SWAP1 RETURN JUMPDEST PUSH2 0x182 PUSH1 0x4 DUP1 CALLDATASIZE SUB DUP2 ADD SWAP1 PUSH2 0x17D SWAP2 SWAP1 PUSH2 0x27A7 JUMP JUMPDEST PUSH2 0x5CC JUMP JUMPDEST STOP JUMPDEST PUSH2 0x19E PUSH1 0x4 DUP1 CALLDATASIZE SUB DUP2 ADD SWAP1 PUSH2 0x199 SWAP2 SWAP1 PUSH2 0x2827 JUMP JUMPDEST PUSH2 0xB06 JUMP JUMPDEST PUSH1 0x40 MLOAD PUSH2 0x1AB SWAP2 SWAP1 PUSH2 0x286C JUMP JUMPDEST PUSH1 0x40 MLOAD DUP1 SWAP2 SUB SWAP1 RETURN JUMPDEST PUSH2 0x1CE PUSH1 0x4 DUP1 CALLDATASIZE SUB DUP2 ADD SWAP1 PUSH2 0x1C9 SWAP2 SWAP1 PUSH2 0x2827 JUMP JUMPDEST PUSH2 0xD1D JUMP JUMPDEST PUSH1 0x40 MLOAD PUSH2 0x1E2 SWAP9 SWAP8 SWAP7 SWAP6 SWAP5 SWAP4 SWAP3 SWAP2 SWAP1 PUSH2 0x2AAE JUMP JUMPDEST PUSH1 0x40 MLOAD DUP1 SWAP2 SUB SWAP1 RETURN JUMPDEST PUSH2 0x205 PUSH1 0x4 DUP1 CALLDATASIZE SUB DUP2 ADD SWAP1 PUSH2 0x200 SWAP2 SWAP1 PUSH2 0x2827 JUMP JUMPDEST PUSH2 0x109B JUMP JUMPDEST PUSH1 0x40 MLOAD PUSH2 0x217 SWAP7 SWAP6 SWAP5 SWAP4 SWAP3 SWAP2 SWAP1 PUSH2 0x2B46 JUMP JUMPDEST PUSH1 0x40 MLOAD DUP1 SWAP2 SUB SWAP1 RETURN JUMPDEST PUSH2 0x23A PUSH1 0x4 DUP1 CALLDATASIZE SUB DUP2 ADD SWAP1 PUSH2 0x235 SWAP2 SWAP1 PUSH2 0x2BB3 JUMP JUMPDEST PUSH2 0x120A JUMP JUMPDEST STOP JUMPDEST PUSH2 0x256 PUSH1 0x4 DUP1 CALLDATASIZE SUB DUP2 ADD SWAP1 PUSH2 0x251 SWAP2 SWAP1 PUSH2 0x2BF1 JUMP JUMPDEST PUSH2 0x15DE JUMP JUMPDEST PUSH1 0x40 MLOAD PUSH2 0x263 SWAP2 SWAP1 PUSH2 0x286C JUMP JUMPDEST PUSH1 0x40 MLOAD DUP1 SWAP2 SUB SWAP1 RETURN JUMPDEST PUSH2 0x274 PUSH2 0x15FB JUMP JUMPDEST PUSH1 0x40 MLOAD PUSH2 0x281 SWAP2 SWAP1 PUSH2 0x2C1C JUMP JUMPDEST PUSH1 0x40 MLOAD DUP1 SWAP2 SUB SWAP1 RETURN JUMPDEST PUSH2 0x2A4 PUSH1 0x4 DUP1 CALLDATASIZE SUB DUP2 ADD SWAP1 PUSH2 0x29F SWAP2 SWAP1 PUSH2 0x2C35 JUMP JUMPDEST PUSH2 0x161E JUMP JUMPDEST STOP JUMPDEST PUSH2 0x2C0 PUSH1 0x4 DUP1 CALLDATASIZE SUB DUP2 ADD SWAP1 PUSH2 0x2BB SWAP2 SWAP1 PUSH2 0x26CB JUMP JUMPDEST PUSH2 0x184B JUMP JUMPDEST STOP JUMPDEST PUSH2 0x2DC PUSH1 0x4 DUP1 CALLDATASIZE SUB DUP2 ADD SWAP1 PUSH2 0x2D7 SWAP2 SWAP1 PUSH2 0x2827 JUMP JUMPDEST PUSH2 0x19E5 JUMP JUMPDEST PUSH1 0x40 MLOAD PUSH2 0x2E9 SWAP2 SWAP1 PUSH2 0x286C JUMP JUMPDEST PUSH1 0x40 MLOAD DUP1 SWAP2 SUB SWAP1 RETURN JUMPDEST PUSH2 0x30C PUSH1 0x4 DUP1 CALLDATASIZE SUB DUP2 ADD SWAP1 PUSH2 0x307 SWAP2 SWAP1 PUSH2 0x2827 JUMP JUMPDEST PUSH2 0x1A13 JUMP JUMPDEST PUSH1 0x40 MLOAD PUSH2 0x319 SWAP2 SWAP1 PUSH2 0x286C JUMP JUMPDEST PUSH1 0x40 MLOAD DUP1 SWAP2 SUB SWAP1 RETURN JUMPDEST PUSH2 0x33C PUSH1 0x4 DUP1 CALLDATASIZE SUB DUP2 ADD SWAP1 PUSH2 0x337 SWAP2 SWAP1 PUSH2 0x2827 JUMP JUMPDEST PUSH2 0x1A5E JUMP JUMPDEST PUSH1 0x40 MLOAD PUSH2 0x34D SWAP6 SWAP5 SWAP4 SWAP3 SWAP2 SWAP1 PUSH2 0x2CAB JUMP JUMPDEST PUSH1 0x40 MLOAD DUP1 SWAP2 SUB SWAP1 RETURN JUMPDEST PUSH2 0x370 PUSH1 0x4 DUP1 CALLDATASIZE SUB DUP2 ADD SWAP1 PUSH2 0x36B SWAP2 SWAP1 PUSH2 0x2827 JUMP JUMPDEST PUSH2 0x1B42 JUMP JUMPDEST PUSH1 0x40 MLOAD PUSH2 0x381 SWAP6 SWAP5 SWAP4 SWAP3 SWAP2 SWAP1 PUSH2 0x2D03 JUMP JUMPDEST PUSH1 0x40 MLOAD DUP1 SWAP2 SUB SWAP1 RETURN JUMPDEST PUSH2 0x3A4 PUSH1 0x4 DUP1 CALLDATASIZE SUB DUP2 ADD SWAP1 PUSH2 0x39F SWAP2 SWAP1 PUSH2 0x2BF1 JUMP JUMPDEST PUSH2 0x1D35 JUMP JUMPDEST STOP JUMPDEST PUSH2 0x3C0 PUSH1 0x4 DUP1 CALLDATASIZE SUB DUP2 ADD SWAP1 PUSH2 0x3BB SWAP2 SWAP1 PUSH2 0x2827 JUMP JUMPDEST PUSH2 0x1F55 JUMP JUMPDEST PUSH1 0x40 MLOAD PUSH2 0x3CD SWAP2 SWAP1 PUSH2 0x2D5B JUMP JUMPDEST PUSH1 0x40 MLOAD DUP1 SWAP2 SUB SWAP1 RETURN JUMPDEST PUSH2 0x3F0 PUSH1 0x4 DUP1 CALLDATASIZE SUB DUP2 ADD SWAP1 PUSH2 0x3EB SWAP2 SWAP1 PUSH2 0x2BF1 JUMP JUMPDEST PUSH2 0x202C JUMP JUMPDEST STOP JUMPDEST PUSH2 0x3FA PUSH2 0x2111 JUMP JUMPDEST PUSH1 0x40 MLOAD PUSH2 0x407 SWAP2 SWAP1 PUSH2 0x2734 JUMP JUMPDEST PUSH1 0x40 MLOAD DUP1 SWAP2 SUB SWAP1 RETURN JUMPDEST PUSH2 0x42A PUSH1 0x4 DUP1 CALLDATASIZE SUB DUP2 ADD SWAP1 PUSH2 0x425 SWAP2 SWAP1 PUSH2 0x2F1D JUMP JUMPDEST PUSH2 0x2117 JUMP JUMPDEST STOP JUMPDEST PUSH1 0x3 PUSH0 CALLER PUSH20 0xFFFFFFFFFFFFFFFFFFFFFFFFFFFFFFFFFFFFFFFF AND PUSH20 0xFFFFFFFFFFFFFFFFFFFFFFFFFFFFFFFFFFFFFFFF AND DUP2 MSTORE PUSH1 0x20 ADD SWAP1 DUP2 MSTORE PUSH1 0x20 ADD PUSH0 KECCAK256 PUSH0 SWAP1 SLOAD SWAP1 PUSH2 0x100 EXP SWAP1 DIV PUSH1 0xFF AND PUSH2 0x4B5 JUMPI PUSH1 0x40 MLOAD PUSH32 0x8C379A000000000000000000000000000000000000000000000000000000000 DUP2 MSTORE PUSH1 0x4 ADD PUSH2 0x4AC SWAP1 PUSH2 0x303B JUMP JUMPDEST PUSH1 0x40 MLOAD DUP1 SWAP2 SUB SWAP1 REVERT JUMPDEST PUSH2 0x4BE DUP3 PUSH2 0x19E5 JUMP JUMPDEST PUSH2 0x4FD JUMPI PUSH1 0x40 MLOAD PUSH32 0x8C379A000000000000000000000000000000000000000000000000000000000 DUP2 MSTORE PUSH1 0x4 ADD PUSH2 0x4F4 SWAP1 PUSH2 0x30A3 JUMP JUMPDEST PUSH1 0x40 MLOAD DUP1 SWAP2 SUB SWAP1 REVERT JUMPDEST PUSH1 0x5 PUSH0 DUP4 DUP2 MSTORE PUSH1 0x20 ADD SWAP1 DUP2 MSTORE PUSH1 0x20 ADD PUSH0 KECCAK256 PUSH1 0x5 ADD PUSH0 SWAP1 SLOAD SWAP1 PUSH2 0x100 EXP SWAP1 DIV PUSH1 0xFF AND ISZERO PUSH2 0x55E JUMPI PUSH1 0x40 MLOAD PUSH32 0x8C379A000000000000000000000000000000000000000000000000000000000 DUP2 MSTORE PUSH1 0x4 ADD PUSH2 0x555 SWAP1 PUSH2 0x310B JUMP JUMPDEST PUSH1 0x40 MLOAD DUP1 SWAP2 SUB SWAP1 REVERT JUMPDEST PUSH1 0x1 PUSH1 0x5 PUSH0 DUP5 DUP2 MSTORE PUSH1 0x20 ADD SWAP1 DUP2 MSTORE PUSH1 0x20 ADD PUSH0 KECCAK256 PUSH1 0x5 ADD PUSH0 PUSH2 0x100 EXP DUP2 SLOAD DUP2 PUSH1 0xFF MUL NOT AND SWAP1 DUP4 ISZERO ISZERO MUL OR SWAP1 SSTORE POP DUP2 PUSH32 0x8F8994662430CBB3A0B089F812F1C51F46EF020E2CCC019CEE8988C3312B4A66 DUP3 PUSH1 0x40 MLOAD PUSH2 0x5BA SWAP2 SWAP1 PUSH2 0x2D5B JUMP JUMPDEST PUSH1 0x40 MLOAD DUP1 SWAP2 SUB SWAP1 LOG2 POP POP JUMP JUMPDEST PUSH1 0x2 SLOAD DUP2 JUMP JUMPDEST PUSH1 0x3 PUSH0 CALLER PUSH20 0xFFFFFFFFFFFFFFFFFFFFFFFFFFFFFFFFFFFFFFFF AND PUSH20 0xFFFFFFFFFFFFFFFFFFFFFFFFFFFFFFFFFFFFFFFF AND DUP2 MSTORE PUSH1 0x20 ADD SWAP1 DUP2 MSTORE PUSH1 0x20 ADD PUSH0 KECCAK256 PUSH0 SWAP1 SLOAD SWAP1 PUSH2 0x100 EXP SWAP1 DIV PUSH1 0xFF AND PUSH2 0x655 JUMPI PUSH1 0x40 MLOAD PUSH32 0x8C379A000000000000000000000000000000000000000000000000000000000 DUP2 MSTORE PUSH1 0x4 ADD PUSH2 0x64C SWAP1 PUSH2 0x303B JUMP JUMPDEST PUSH1 0x40 MLOAD DUP1 SWAP2 SUB SWAP1 REVERT JUMPDEST PUSH0 PUSH1 0x5 PUSH0 DUP7 DUP2 MSTORE PUSH1 0x20 ADD SWAP1 DUP2 MSTORE PUSH1 0x20 ADD PUSH0 KECCAK256 PUSH1 0x6 ADD SLOAD SUB PUSH2 0x6AB JUMPI PUSH1 0x40 MLOAD PUSH32 0x8C379A000000000000000000000000000000000000000000000000000000000 DUP2 MSTORE PUSH1 0x4 ADD PUSH2 0x6A2 SWAP1 PUSH2 0x3173 JUMP JUMPDEST PUSH1 0x40 MLOAD DUP1 SWAP2 SUB SWAP1 REVERT JUMPDEST PUSH1 0x1 DUP3 SUB PUSH2 0x8BE JUMPI PUSH0 ISZERO ISZERO PUSH1 0x5 PUSH0 DUP7 DUP2 MSTORE PUSH1 0x20 ADD SWAP1 DUP2 MSTORE PUSH1 0x20 ADD PUSH0 KECCAK256 PUSH1 0x5 ADD PUSH0 SWAP1 SLOAD SWAP1 PUSH2 0x100 EXP SWAP1 DIV PUSH1 0xFF AND ISZERO ISZERO EQ PUSH2 0x719 JUMPI PUSH1 0x40 MLOAD PUSH32 0x8C379A000000000000000000000000000000000000000000000000000000000 DUP2 MSTORE PUSH1 0x4 ADD PUSH2 0x710 SWAP1 PUSH2 0x3201 JUMP JUMPDEST PUSH1 0x40 MLOAD DUP1 SWAP2 SUB SWAP1 REVERT JUMPDEST PUSH0 JUMPDEST PUSH1 0x5 PUSH0 DUP7 DUP2 MSTORE PUSH1 0x20 ADD SWAP1 DUP2 MSTORE PUSH1 0x20 ADD PUSH0 KECCAK256 PUSH0 ADD DUP1 SLOAD SWAP1 POP DUP2 LT ISZERO PUSH2 0x8B8 JUMPI PUSH2 0x8AB PUSH1 0x5 PUSH0 DUP8 DUP2 MSTORE PUSH1 0x20 ADD SWAP1 DUP2 MSTORE PUSH1 0x20 ADD PUSH0 KECCAK256 PUSH1 0x1 ADD DUP3 DUP2 SLOAD DUP2 LT PUSH2 0x762 JUMPI PUSH2 0x761 PUSH2 0x321F JUMP JUMPDEST JUMPDEST SWAP1 PUSH0 MSTORE PUSH1 0x20 PUSH0 KECCAK256 ADD DUP1 SLOAD PUSH2 0x775 SWAP1 PUSH2 0x3279 JUMP JUMPDEST DUP1 PUSH1 0x1F ADD PUSH1 0x20 DUP1 SWAP2 DIV MUL PUSH1 0x20 ADD PUSH1 0x40 MLOAD SWAP1 DUP2 ADD PUSH1 0x40 MSTORE DUP1 SWAP3 SWAP2 SWAP1 DUP2 DUP2 MSTORE PUSH1 0x20 ADD DUP3 DUP1 SLOAD PUSH2 0x7A1 SWAP1 PUSH2 0x3279 JUMP JUMPDEST DUP1 ISZERO PUSH2 0x7EC JUMPI DUP1 PUSH1 0x1F LT PUSH2 0x7C3 JUMPI PUSH2 0x100 DUP1 DUP4 SLOAD DIV MUL DUP4 MSTORE SWAP2 PUSH1 0x20 ADD SWAP2 PUSH2 0x7EC JUMP JUMPDEST DUP3 ADD SWAP2 SWAP1 PUSH0 MSTORE PUSH1 0x20 PUSH0 KECCAK256 SWAP1 JUMPDEST DUP2 SLOAD DUP2 MSTORE SWAP1 PUSH1 0x1 ADD SWAP1 PUSH1 0x20 ADD DUP1 DUP4 GT PUSH2 0x7CF JUMPI DUP3 SWAP1 SUB PUSH1 0x1F AND DUP3 ADD SWAP2 JUMPDEST POP POP POP POP POP PUSH1 0x5 PUSH0 DUP9 DUP2 MSTORE PUSH1 0x20 ADD SWAP1 DUP2 MSTORE PUSH1 0x20 ADD PUSH0 KECCAK256 PUSH1 0x2 ADD DUP4 DUP2 SLOAD DUP2 LT PUSH2 0x817 JUMPI PUSH2 0x816 PUSH2 0x321F JUMP JUMPDEST JUMPDEST SWAP1 PUSH0 MSTORE PUSH1 0x20 PUSH0 KECCAK256 ADD DUP1 SLOAD PUSH2 0x82A SWAP1 PUSH2 0x3279 JUMP JUMPDEST DUP1 PUSH1 0x1F ADD PUSH1 0x20 DUP1 SWAP2 DIV MUL PUSH1 0x20 ADD PUSH1 0x40 MLOAD SWAP1 DUP2 ADD PUSH1 0x40 MSTORE DUP1 SWAP3 SWAP2 SWAP1 DUP2 DUP2 MSTORE PUSH1 0x20 ADD DUP3 DUP1 SLOAD PUSH2 0x856 SWAP1 PUSH2 0x3279 JUMP JUMPDEST DUP1 ISZERO PUSH2 0x8A1 JUMPI DUP1 PUSH1 0x1F LT PUSH2 0x878 JUMPI PUSH2 0x100 DUP1 DUP4 SLOAD DIV MUL DUP4 MSTORE SWAP2 PUSH1 0x20 ADD SWAP2 PUSH2 0x8A1 JUMP JUMPDEST DUP3 ADD SWAP2 SWAP1 PUSH0 MSTORE PUSH1 0x20 PUSH0 KECCAK256 SWAP1 JUMPDEST DUP2 SLOAD DUP2 MSTORE SWAP1 PUSH1 0x1 ADD SWAP1 PUSH1 0x20 ADD DUP1 DUP4 GT PUSH2 0x884 JUMPI DUP3 SWAP1 SUB PUSH1 0x1F AND DUP3 ADD SWAP2 JUMPDEST POP POP POP POP POP PUSH2 0x161E JUMP JUMPDEST DUP1 DUP1 PUSH1 0x1 ADD SWAP2 POP POP PUSH2 0x71B JUMP JUMPDEST POP PUSH2 0xAB5 JUMP JUMPDEST PUSH1 0x2 DUP3 SUB PUSH2 0x996 JUMPI PUSH0 ISZERO ISZERO PUSH1 0x5 PUSH0 DUP7 DUP2 MSTORE PUSH1 0x20 ADD SWAP1 DUP2 MSTORE PUSH1 0x20 ADD PUSH0 KECCAK256 PUSH1 0x5 ADD PUSH0 SWAP1 SLOAD SWAP1 PUSH2 0x100 EXP SWAP1 DIV PUSH1 0xFF AND ISZERO ISZERO EQ PUSH2 0x92C JUMPI PUSH1 0x40 MLOAD PUSH32 0x8C379A000000000000000000000000000000000000000000000000000000000 DUP2 MSTORE PUSH1 0x4 ADD PUSH2 0x923 SWAP1 PUSH2 0x3201 JUMP JUMPDEST PUSH1 0x40 MLOAD DUP1 SWAP2 SUB SWAP1 REVERT JUMPDEST PUSH0 JUMPDEST PUSH1 0x5 PUSH0 DUP7 DUP2 MSTORE PUSH1 0x20 ADD SWAP1 DUP2 MSTORE PUSH1 0x20 ADD PUSH0 KECCAK256 PUSH0 ADD DUP1 SLOAD SWAP1 POP DUP2 LT ISZERO PUSH2 0x990 JUMPI PUSH2 0x983 PUSH1 0x5 PUSH0 DUP8 DUP2 MSTORE PUSH1 0x20 ADD SWAP1 DUP2 MSTORE PUSH1 0x20 ADD PUSH0 KECCAK256 PUSH0 ADD DUP3 DUP2 SLOAD DUP2 LT PUSH2 0x974 JUMPI PUSH2 0x973 PUSH2 0x321F JUMP JUMPDEST JUMPDEST SWAP1 PUSH0 MSTORE PUSH1 0x20 PUSH0 KECCAK256 ADD SLOAD DUP6 PUSH2 0x120A JUMP JUMPDEST DUP1 DUP1 PUSH1 0x1 ADD SWAP2 POP POP PUSH2 0x92E JUMP JUMPDEST POP PUSH2 0xAB4 JUMP JUMPDEST PUSH1 0x3 DUP3 SUB PUSH2 0xA78 JUMPI PUSH0 ISZERO ISZERO PUSH1 0x5 PUSH0 DUP7 DUP2 MSTORE PUSH1 0x20 ADD SWAP1 DUP2 MSTORE PUSH1 0x20 ADD PUSH0 KECCAK256 PUSH1 0x5 ADD PUSH0 SWAP1 SLOAD SWAP1 PUSH2 0x100 EXP SWAP1 DIV PUSH1 0xFF AND ISZERO ISZERO EQ PUSH2 0xA04 JUMPI PUSH1 0x40 MLOAD PUSH32 0x8C379A000000000000000000000000000000000000000000000000000000000 DUP2 MSTORE PUSH1 0x4 ADD PUSH2 0x9FB SWAP1 PUSH2 0x310B JUMP JUMPDEST PUSH1 0x40 MLOAD DUP1 SWAP2 SUB SWAP1 REVERT JUMPDEST PUSH0 JUMPDEST PUSH1 0x5 PUSH0 DUP7 DUP2 MSTORE PUSH1 0x20 ADD SWAP1 DUP2 MSTORE PUSH1 0x20 ADD PUSH0 KECCAK256 PUSH0 ADD DUP1 SLOAD SWAP1 POP DUP2 LT ISZERO PUSH2 0xA68 JUMPI PUSH2 0xA5B PUSH1 0x5 PUSH0 DUP8 DUP2 MSTORE PUSH1 0x20 ADD SWAP1 DUP2 MSTORE PUSH1 0x20 ADD PUSH0 KECCAK256 PUSH0 ADD DUP3 DUP2 SLOAD DUP2 LT PUSH2 0xA4C JUMPI PUSH2 0xA4B PUSH2 0x321F JUMP JUMPDEST JUMPDEST SWAP1 PUSH0 MSTORE PUSH1 0x20 PUSH0 KECCAK256 ADD SLOAD DUP4 PUSH2 0x184B JUMP JUMPDEST DUP1 DUP1 PUSH1 0x1 ADD SWAP2 POP POP PUSH2 0xA06 JUMP JUMPDEST POP PUSH2 0xA73 DUP5 DUP3 PUSH2 0x42C JUMP JUMPDEST PUSH2 0xAB3 JUMP JUMPDEST PUSH1 0x40 MLOAD PUSH32 0x8C379A000000000000000000000000000000000000000000000000000000000 DUP2 MSTORE PUSH1 0x4 ADD PUSH2 0xAAA SWAP1 PUSH2 0x32F3 JUMP JUMPDEST PUSH1 0x40 MLOAD DUP1 SWAP2 SUB SWAP1 REVERT JUMPDEST JUMPDEST JUMPDEST DUP4 PUSH32 0x603489D1E5E10E7B7393A68B1707E0B98E7976704197482DC200A6B34674B54A PUSH1 0x5 PUSH0 DUP8 DUP2 MSTORE PUSH1 0x20 ADD SWAP1 DUP2 MSTORE PUSH1 0x20 ADD PUSH0 KECCAK256 PUSH1 0x7 ADD PUSH1 0x40 MLOAD PUSH2 0xAF8 SWAP2 SWAP1 PUSH2 0x33A4 JUMP JUMPDEST PUSH1 0x40 MLOAD DUP1 SWAP2 SUB SWAP1 LOG2 POP POP POP POP JUMP JUMPDEST PUSH0 PUSH2 0xB10 DUP3 PUSH2 0x1A13 JUMP JUMPDEST PUSH2 0xB4F JUMPI PUSH1 0x40 MLOAD PUSH32 0x8C379A000000000000000000000000000000000000000000000000000000000 DUP2 MSTORE PUSH1 0x4 ADD PUSH2 0xB46 SWAP1 PUSH2 0x340E JUMP JUMPDEST PUSH1 0x40 MLOAD DUP1 SWAP2 SUB SWAP1 REVERT JUMPDEST PUSH0 PUSH1 0x4 PUSH0 DUP5 DUP2 MSTORE PUSH1 0x20 ADD SWAP1 DUP2 MSTORE PUSH1 0x20 ADD PUSH0 KECCAK256 PUSH1 0x40 MLOAD DUP1 PUSH1 0xC0 ADD PUSH1 0x40 MSTORE SWAP1 DUP2 PUSH0 DUP3 ADD SLOAD DUP2 MSTORE PUSH1 0x20 ADD PUSH1 0x1 DUP3 ADD DUP1 SLOAD PUSH2 0xB85 SWAP1 PUSH2 0x3279 JUMP JUMPDEST DUP1 PUSH1 0x1F ADD PUSH1 0x20 DUP1 SWAP2 DIV MUL PUSH1 0x20 ADD PUSH1 0x40 MLOAD SWAP1 DUP2 ADD PUSH1 0x40 MSTORE DUP1 SWAP3 SWAP2 SWAP1 DUP2 DUP2 MSTORE PUSH1 0x20 ADD DUP3 DUP1 SLOAD PUSH2 0xBB1 SWAP1 PUSH2 0x3279 JUMP JUMPDEST DUP1 ISZERO PUSH2 0xBFC JUMPI DUP1 PUSH1 0x1F LT PUSH2 0xBD3 JUMPI PUSH2 0x100 DUP1 DUP4 SLOAD DIV MUL DUP4 MSTORE SWAP2 PUSH1 0x20 ADD SWAP2 PUSH2 0xBFC JUMP JUMPDEST DUP3 ADD SWAP2 SWAP1 PUSH0 MSTORE PUSH1 0x20 PUSH0 KECCAK256 SWAP1 JUMPDEST DUP2 SLOAD DUP2 MSTORE SWAP1 PUSH1 0x1 ADD SWAP1 PUSH1 0x20 ADD DUP1 DUP4 GT PUSH2 0xBDF JUMPI DUP3 SWAP1 SUB PUSH1 0x1F AND DUP3 ADD SWAP2 JUMPDEST POP POP POP POP POP DUP2 MSTORE PUSH1 0x20 ADD PUSH1 0x2 DUP3 ADD DUP1 SLOAD PUSH2 0xC15 SWAP1 PUSH2 0x3279 JUMP JUMPDEST DUP1 PUSH1 0x1F ADD PUSH1 0x20 DUP1 SWAP2 DIV MUL PUSH1 0x20 ADD PUSH1 0x40 MLOAD SWAP1 DUP2 ADD PUSH1 0x40 MSTORE DUP1 SWAP3 SWAP2 SWAP1 DUP2 DUP2 MSTORE PUSH1 0x20 ADD DUP3 DUP1 SLOAD PUSH2 0xC41 SWAP1 PUSH2 0x3279 JUMP JUMPDEST DUP1 ISZERO PUSH2 0xC8C JUMPI DUP1 PUSH1 0x1F LT PUSH2 0xC63 JUMPI PUSH2 0x100 DUP1 DUP4 SLOAD DIV MUL DUP4 MSTORE SWAP2 PUSH1 0x20 ADD SWAP2 PUSH2 0xC8C JUMP JUMPDEST DUP3 ADD SWAP2 SWAP1 PUSH0 MSTORE PUSH1 0x20 PUSH0 KECCAK256 SWAP1 JUMPDEST DUP2 SLOAD DUP2 MSTORE SWAP1 PUSH1 0x1 ADD SWAP1 PUSH1 0x20 ADD DUP1 DUP4 GT PUSH2 0xC6F JUMPI DUP3 SWAP1 SUB PUSH1 0x1F AND DUP3 ADD SWAP2 JUMPDEST POP POP POP POP POP DUP2 MSTORE PUSH1 0x20 ADD PUSH1 0x3 DUP3 ADD PUSH0 SWAP1 SLOAD SWAP1 PUSH2 0x100 EXP SWAP1 DIV PUSH20 0xFFFFFFFFFFFFFFFFFFFFFFFFFFFFFFFFFFFFFFFF AND PUSH20 0xFFFFFFFFFFFFFFFFFFFFFFFFFFFFFFFFFFFFFFFF AND PUSH20 0xFFFFFFFFFFFFFFFFFFFFFFFFFFFFFFFFFFFFFFFF AND DUP2 MSTORE PUSH1 0x20 ADD PUSH1 0x4 DUP3 ADD SLOAD DUP2 MSTORE PUSH1 0x20 ADD PUSH1 0x5 DUP3 ADD PUSH0 SWAP1 SLOAD SWAP1 PUSH2 0x100 EXP SWAP1 DIV PUSH1 0xFF AND ISZERO ISZERO ISZERO ISZERO DUP2 MSTORE POP POP SWAP1 POP DUP1 PUSH1 0xA0 ADD MLOAD SWAP2 POP POP SWAP2 SWAP1 POP JUMP JUMPDEST PUSH1 0x60 DUP1 PUSH1 0x60 PUSH0 DUP1 PUSH0 DUP1 PUSH1 0x60 PUSH0 PUSH1 0x5 PUSH0 DUP12 DUP2 MSTORE PUSH1 0x20 ADD SWAP1 DUP2 MSTORE PUSH1 0x20 ADD PUSH0 KECCAK256 PUSH1 0x40 MLOAD DUP1 PUSH2 0x100 ADD PUSH1 0x40 MSTORE SWAP1 DUP2 PUSH0 DUP3 ADD DUP1 SLOAD DUP1 PUSH1 0x20 MUL PUSH1 0x20 ADD PUSH1 0x40 MLOAD SWAP1 DUP2 ADD PUSH1 0x40 MSTORE DUP1 SWAP3 SWAP2 SWAP1 DUP2 DUP2 MSTORE PUSH1 0x20 ADD DUP3 DUP1 SLOAD DUP1 ISZERO PUSH2 0xD92 JUMPI PUSH1 0x20 MUL DUP3 ADD SWAP2 SWAP1 PUSH0 MSTORE PUSH1 0x20 PUSH0 KECCAK256 SWAP1 JUMPDEST DUP2 SLOAD DUP2 MSTORE PUSH1 0x20 ADD SWAP1 PUSH1 0x1 ADD SWAP1 DUP1 DUP4 GT PUSH2 0xD7E JUMPI JUMPDEST POP POP POP POP POP DUP2 MSTORE PUSH1 0x20 ADD PUSH1 0x1 DUP3 ADD DUP1 SLOAD DUP1 PUSH1 0x20 MUL PUSH1 0x20 ADD PUSH1 0x40 MLOAD SWAP1 DUP2 ADD PUSH1 0x40 MSTORE DUP1 SWAP3 SWAP2 SWAP1 DUP2 DUP2 MSTORE PUSH1 0x20 ADD PUSH0 SWAP1 JUMPDEST DUP3 DUP3 LT ISZERO PUSH2 0xE67 JUMPI DUP4 DUP3 SWAP1 PUSH0 MSTORE PUSH1 0x20 PUSH0 KECCAK256 ADD DUP1 SLOAD PUSH2 0xDDC SWAP1 PUSH2 0x3279 JUMP JUMPDEST DUP1 PUSH1 0x1F ADD PUSH1 0x20 DUP1 SWAP2 DIV MUL PUSH1 0x20 ADD PUSH1 0x40 MLOAD SWAP1 DUP2 ADD PUSH1 0x40 MSTORE DUP1 SWAP3 SWAP2 SWAP1 DUP2 DUP2 MSTORE PUSH1 0x20 ADD DUP3 DUP1 SLOAD PUSH2 0xE08 SWAP1 PUSH2 0x3279 JUMP JUMPDEST DUP1 ISZERO PUSH2 0xE53 JUMPI DUP1 PUSH1 0x1F LT PUSH2 0xE2A JUMPI PUSH2 0x100 DUP1 DUP4 SLOAD DIV MUL DUP4 MSTORE SWAP2 PUSH1 0x20 ADD SWAP2 PUSH2 0xE53 JUMP JUMPDEST DUP3 ADD SWAP2 SWAP1 PUSH0 MSTORE PUSH1 0x20 PUSH0 KECCAK256 SWAP1 JUMPDEST DUP2 SLOAD DUP2 MSTORE SWAP1 PUSH1 0x1 ADD SWAP1 PUSH1 0x20 ADD DUP1 DUP4 GT PUSH2 0xE36 JUMPI DUP3 SWAP1 SUB PUSH1 0x1F AND DUP3 ADD SWAP2 JUMPDEST POP POP POP POP POP DUP2 MSTORE PUSH1 0x20 ADD SWAP1 PUSH1 0x1 ADD SWAP1 PUSH2 0xDBF JUMP JUMPDEST POP POP POP POP DUP2 MSTORE PUSH1 0x20 ADD PUSH1 0x2 DUP3 ADD DUP1 SLOAD DUP1 PUSH1 0x20 MUL PUSH1 0x20 ADD PUSH1 0x40 MLOAD SWAP1 DUP2 ADD PUSH1 0x40 MSTORE DUP1 SWAP3 SWAP2 SWAP1 DUP2 DUP2 MSTORE PUSH1 0x20 ADD PUSH0 SWAP1 JUMPDEST DUP3 DUP3 LT ISZERO PUSH2 0xF3B JUMPI DUP4 DUP3 SWAP1 PUSH0 MSTORE PUSH1 0x20 PUSH0 KECCAK256 ADD DUP1 SLOAD PUSH2 0xEB0 SWAP1 PUSH2 0x3279 JUMP JUMPDEST DUP1 PUSH1 0x1F ADD PUSH1 0x20 DUP1 SWAP2 DIV MUL PUSH1 0x20 ADD PUSH1 0x40 MLOAD SWAP1 DUP2 ADD PUSH1 0x40 MSTORE DUP1 SWAP3 SWAP2 SWAP1 DUP2 DUP2 MSTORE PUSH1 0x20 ADD DUP3 DUP1 SLOAD PUSH2 0xEDC SWAP1 PUSH2 0x3279 JUMP JUMPDEST DUP1 ISZERO PUSH2 0xF27 JUMPI DUP1 PUSH1 0x1F LT PUSH2 0xEFE JUMPI PUSH2 0x100 DUP1 DUP4 SLOAD DIV MUL DUP4 MSTORE SWAP2 PUSH1 0x20 ADD SWAP2 PUSH2 0xF27 JUMP JUMPDEST DUP3 ADD SWAP2 SWAP1 PUSH0 MSTORE PUSH1 0x20 PUSH0 KECCAK256 SWAP1 JUMPDEST DUP2 SLOAD DUP2 MSTORE SWAP1 PUSH1 0x1 ADD SWAP1 PUSH1 0x20 ADD DUP1 DUP4 GT PUSH2 0xF0A JUMPI DUP3 SWAP1 SUB PUSH1 0x1F AND DUP3 ADD SWAP2 JUMPDEST POP POP POP POP POP DUP2 MSTORE PUSH1 0x20 ADD SWAP1 PUSH1 0x1 ADD SWAP1 PUSH2 0xE93 JUMP JUMPDEST POP POP POP POP DUP2 MSTORE PUSH1 0x20 ADD PUSH1 0x3 DUP3 ADD PUSH0 SWAP1 SLOAD SWAP1 PUSH2 0x100 EXP SWAP1 DIV PUSH20 0xFFFFFFFFFFFFFFFFFFFFFFFFFFFFFFFFFFFFFFFF AND PUSH20 0xFFFFFFFFFFFFFFFFFFFFFFFFFFFFFFFFFFFFFFFF AND PUSH20 0xFFFFFFFFFFFFFFFFFFFFFFFFFFFFFFFFFFFFFFFF AND DUP2 MSTORE PUSH1 0x20 ADD PUSH1 0x4 DUP3 ADD SLOAD DUP2 MSTORE PUSH1 0x20 ADD PUSH1 0x5 DUP3 ADD PUSH0 SWAP1 SLOAD SWAP1 PUSH2 0x100 EXP SWAP1 DIV PUSH1 0xFF AND ISZERO ISZERO ISZERO ISZERO DUP2 MSTORE PUSH1 0x20 ADD PUSH1 0x6 DUP3 ADD SLOAD DUP2 MSTORE PUSH1 0x20 ADD PUSH1 0x7 DUP3 ADD DUP1 SLOAD PUSH2 0xFD6 SWAP1 PUSH2 0x3279 JUMP JUMPDEST DUP1 PUSH1 0x1F ADD PUSH1 0x20 DUP1 SWAP2 DIV MUL PUSH1 0x20 ADD PUSH1 0x40 MLOAD SWAP1 DUP2 ADD PUSH1 0x40 MSTORE DUP1 SWAP3 SWAP2 SWAP1 DUP2 DUP2 MSTORE PUSH1 0x20 ADD DUP3 DUP1 SLOAD PUSH2 0x1002 SWAP1 PUSH2 0x3279 JUMP JUMPDEST DUP1 ISZERO PUSH2 0x104D JUMPI DUP1 PUSH1 0x1F LT PUSH2 0x1024 JUMPI PUSH2 0x100 DUP1 DUP4 SLOAD DIV MUL DUP4 MSTORE SWAP2 PUSH1 0x20 ADD SWAP2 PUSH2 0x104D JUMP JUMPDEST DUP3 ADD SWAP2 SWAP1 PUSH0 MSTORE PUSH1 0x20 PUSH0 KECCAK256 SWAP1 JUMPDEST DUP2 SLOAD DUP2 MSTORE SWAP1 PUSH1 0x1 ADD SWAP1 PUSH1 0x20 ADD DUP1 DUP4 GT PUSH2 0x1030 JUMPI DUP3 SWAP1 SUB PUSH1 0x1F AND DUP3 ADD SWAP2 JUMPDEST POP POP POP POP POP DUP2 MSTORE POP POP SWAP1 POP DUP1 PUSH0 ADD MLOAD DUP2 PUSH1 0x20 ADD MLOAD DUP3 PUSH1 0x40 ADD MLOAD DUP4 PUSH1 0x60 ADD MLOAD DUP5 PUSH1 0x80 ADD MLOAD DUP6 PUSH1 0xA0 ADD MLOAD DUP7 PUSH1 0xC0 ADD MLOAD DUP8 PUSH1 0xE0 ADD MLOAD SWAP9 POP SWAP9 POP SWAP9 POP SWAP9 POP SWAP9 POP SWAP9 POP SWAP9 POP SWAP9 POP POP SWAP2 SWAP4 SWAP6 SWAP8 POP SWAP2 SWAP4 SWAP6 SWAP8 JUMP JUMPDEST PUSH1 0x4 PUSH1 0x20 MSTORE DUP1 PUSH0 MSTORE PUSH1 0x40 PUSH0 KECCAK256 PUSH0 SWAP2 POP SWAP1 POP DUP1 PUSH0 ADD SLOAD SWAP1 DUP1 PUSH1 0x1 ADD DUP1 SLOAD PUSH2 0x10C0 SWAP1 PUSH2 0x3279 JUMP JUMPDEST DUP1 PUSH1 0x1F ADD PUSH1 0x20 DUP1 SWAP2 DIV MUL PUSH1 0x20 ADD PUSH1 0x40 MLOAD SWAP1 DUP2 ADD PUSH1 0x40 MSTORE DUP1 SWAP3 SWAP2 SWAP1 DUP2 DUP2 MSTORE PUSH1 0x20 ADD DUP3 DUP1 SLOAD PUSH2 0x10EC SWAP1 PUSH2 0x3279 JUMP JUMPDEST DUP1 ISZERO PUSH2 0x1137 JUMPI DUP1 PUSH1 0x1F LT PUSH2 0x110E JUMPI PUSH2 0x100 DUP1 DUP4 SLOAD DIV MUL DUP4 MSTORE SWAP2 PUSH1 0x20 ADD SWAP2 PUSH2 0x1137 JUMP JUMPDEST DUP3 ADD SWAP2 SWAP1 PUSH0 MSTORE PUSH1 0x20 PUSH0 KECCAK256 SWAP1 JUMPDEST DUP2 SLOAD DUP2 MSTORE SWAP1 PUSH1 0x1 ADD SWAP1 PUSH1 0x20 ADD DUP1 DUP4 GT PUSH2 0x111A JUMPI DUP3 SWAP1 SUB PUSH1 0x1F AND DUP3 ADD SWAP2 JUMPDEST POP POP POP POP POP SWAP1 DUP1 PUSH1 0x2 ADD DUP1 SLOAD PUSH2 0x114C SWAP1 PUSH2 0x3279 JUMP JUMPDEST DUP1 PUSH1 0x1F ADD PUSH1 0x20 DUP1 SWAP2 DIV MUL PUSH1 0x20 ADD PUSH1 0x40 MLOAD SWAP1 DUP2 ADD PUSH1 0x40 MSTORE DUP1 SWAP3 SWAP2 SWAP1 DUP2 DUP2 MSTORE PUSH1 0x20 ADD DUP3 DUP1 SLOAD PUSH2 0x1178 SWAP1 PUSH2 0x3279 JUMP JUMPDEST DUP1 ISZERO PUSH2 0x11C3 JUMPI DUP1 PUSH1 0x1F LT PUSH2 0x119A JUMPI PUSH2 0x100 DUP1 DUP4 SLOAD DIV MUL DUP4 MSTORE SWAP2 PUSH1 0x20 ADD SWAP2 PUSH2 0x11C3 JUMP JUMPDEST DUP3 ADD SWAP2 SWAP1 PUSH0 MSTORE PUSH1 0x20 PUSH0 KECCAK256 SWAP1 JUMPDEST DUP2 SLOAD DUP2 MSTORE SWAP1 PUSH1 0x1 ADD SWAP1 PUSH1 0x20 ADD DUP1 DUP4 GT PUSH2 0x11A6 JUMPI DUP3 SWAP1 SUB PUSH1 0x1F AND DUP3 ADD SWAP2 JUMPDEST POP POP POP POP POP SWAP1 DUP1 PUSH1 0x3 ADD PUSH0 SWAP1 SLOAD SWAP1 PUSH2 0x100 EXP SWAP1 DIV PUSH20 0xFFFFFFFFFFFFFFFFFFFFFFFFFFFFFFFFFFFFFFFF AND SWAP1 DUP1 PUSH1 0x4 ADD SLOAD SWAP1 DUP1 PUSH1 0x5 ADD PUSH0 SWAP1 SLOAD SWAP1 PUSH2 0x100 EXP SWAP1 DIV PUSH1 0xFF AND SWAP1 POP DUP7 JUMP JUMPDEST PUSH1 0x3 PUSH0 CALLER PUSH20 0xFFFFFFFFFFFFFFFFFFFFFFFFFFFFFFFFFFFFFFFF AND PUSH20 0xFFFFFFFFFFFFFFFFFFFFFFFFFFFFFFFFFFFFFFFF AND DUP2 MSTORE PUSH1 0x20 ADD SWAP1 DUP2 MSTORE PUSH1 0x20 ADD PUSH0 KECCAK256 PUSH0 SWAP1 SLOAD SWAP1 PUSH2 0x100 EXP SWAP1 DIV PUSH1 0xFF AND PUSH2 0x1293 JUMPI PUSH1 0x40 MLOAD PUSH32 0x8C379A000000000000000000000000000000000000000000000000000000000 DUP2 MSTORE PUSH1 0x4 ADD PUSH2 0x128A SWAP1 PUSH2 0x303B JUMP JUMPDEST PUSH1 0x40 MLOAD DUP1 SWAP2 SUB SWAP1 REVERT JUMPDEST PUSH0 DUP3 GT DUP1 ISZERO PUSH2 0x12A4 JUMPI POP PUSH1 0x1 SLOAD DUP3 GT ISZERO JUMPDEST PUSH2 0x12E3 JUMPI PUSH1 0x40 MLOAD PUSH32 0x8C379A000000000000000000000000000000000000000000000000000000000 DUP2 MSTORE PUSH1 0x4 ADD PUSH2 0x12DA SWAP1 PUSH2 0x3476 JUMP JUMPDEST PUSH1 0x40 MLOAD DUP1 SWAP2 SUB SWAP1 REVERT JUMPDEST PUSH1 0x4 PUSH0 DUP4 DUP2 MSTORE PUSH1 0x20 ADD SWAP1 DUP2 MSTORE PUSH1 0x20 ADD PUSH0 KECCAK256 PUSH1 0x5 ADD PUSH0 SWAP1 SLOAD SWAP1 PUSH2 0x100 EXP SWAP1 DIV PUSH1 0xFF AND ISZERO PUSH2 0x1344 JUMPI PUSH1 0x40 MLOAD PUSH32 0x8C379A000000000000000000000000000000000000000000000000000000000 DUP2 MSTORE PUSH1 0x4 ADD PUSH2 0x133B SWAP1 PUSH2 0x3504 JUMP JUMPDEST PUSH1 0x40 MLOAD DUP1 SWAP2 SUB SWAP1 REVERT JUMPDEST PUSH0 PUSH20 0xFFFFFFFFFFFFFFFFFFFFFFFFFFFFFFFFFFFFFFFF AND DUP2 PUSH20 0xFFFFFFFFFFFFFFFFFFFFFFFFFFFFFFFFFFFFFFFF AND SUB PUSH2 0x13B2 JUMPI PUSH1 0x40 MLOAD PUSH32 0x8C379A000000000000000000000000000000000000000000000000000000000 DUP2 MSTORE PUSH1 0x4 ADD PUSH2 0x13A9 SWAP1 PUSH2 0x356C JUMP JUMPDEST PUSH1 0x40 MLOAD DUP1 SWAP2 SUB SWAP1 REVERT JUMPDEST PUSH1 0x3 PUSH0 DUP3 PUSH20 0xFFFFFFFFFFFFFFFFFFFFFFFFFFFFFFFFFFFFFFFF AND PUSH20 0xFFFFFFFFFFFFFFFFFFFFFFFFFFFFFFFFFFFFFFFF AND DUP2 MSTORE PUSH1 0x20 ADD SWAP1 DUP2 MSTORE PUSH1 0x20 ADD PUSH0 KECCAK256 PUSH0 SWAP1 SLOAD SWAP1 PUSH2 0x100 EXP SWAP1 DIV PUSH1 0xFF AND PUSH2 0x143B JUMPI PUSH1 0x40 MLOAD PUSH32 0x8C379A000000000000000000000000000000000000000000000000000000000 DUP2 MSTORE PUSH1 0x4 ADD PUSH2 0x1432 SWAP1 PUSH2 0x35D4 JUMP JUMPDEST PUSH1 0x40 MLOAD DUP1 SWAP2 SUB SWAP1 REVERT JUMPDEST CALLER PUSH20 0xFFFFFFFFFFFFFFFFFFFFFFFFFFFFFFFFFFFFFFFF AND PUSH1 0x4 PUSH0 DUP5 DUP2 MSTORE PUSH1 0x20 ADD SWAP1 DUP2 MSTORE PUSH1 0x20 ADD PUSH0 KECCAK256 PUSH1 0x3 ADD PUSH0 SWAP1 SLOAD SWAP1 PUSH2 0x100 EXP SWAP1 DIV PUSH20 0xFFFFFFFFFFFFFFFFFFFFFFFFFFFFFFFFFFFFFFFF AND PUSH20 0xFFFFFFFFFFFFFFFFFFFFFFFFFFFFFFFFFFFFFFFF AND EQ PUSH2 0x14DC JUMPI PUSH1 0x40 MLOAD PUSH32 0x8C379A000000000000000000000000000000000000000000000000000000000 DUP2 MSTORE PUSH1 0x4 ADD PUSH2 0x14D3 SWAP1 PUSH2 0x363C JUMP JUMPDEST PUSH1 0x40 MLOAD DUP1 SWAP2 SUB SWAP1 REVERT JUMPDEST PUSH0 PUSH1 0x4 PUSH0 DUP5 DUP2 MSTORE PUSH1 0x20 ADD SWAP1 DUP2 MSTORE PUSH1 0x20 ADD PUSH0 KECCAK256 PUSH1 0x3 ADD PUSH0 SWAP1 SLOAD SWAP1 PUSH2 0x100 EXP SWAP1 DIV PUSH20 0xFFFFFFFFFFFFFFFFFFFFFFFFFFFFFFFFFFFFFFFF AND SWAP1 POP DUP2 PUSH1 0x4 PUSH0 DUP6 DUP2 MSTORE PUSH1 0x20 ADD SWAP1 DUP2 MSTORE PUSH1 0x20 ADD PUSH0 KECCAK256 PUSH1 0x3 ADD PUSH0 PUSH2 0x100 EXP DUP2 SLOAD DUP2 PUSH20 0xFFFFFFFFFFFFFFFFFFFFFFFFFFFFFFFFFFFFFFFF MUL NOT AND SWAP1 DUP4 PUSH20 0xFFFFFFFFFFFFFFFFFFFFFFFFFFFFFFFFFFFFFFFF AND MUL OR SWAP1 SSTORE POP TIMESTAMP PUSH1 0x4 PUSH0 DUP6 DUP2 MSTORE PUSH1 0x20 ADD SWAP1 DUP2 MSTORE PUSH1 0x20 ADD PUSH0 KECCAK256 PUSH1 0x4 ADD DUP2 SWAP1 SSTORE POP DUP2 PUSH20 0xFFFFFFFFFFFFFFFFFFFFFFFFFFFFFFFFFFFFFFFF AND DUP2 PUSH20 0xFFFFFFFFFFFFFFFFFFFFFFFFFFFFFFFFFFFFFFFF AND DUP5 PUSH32 0x16B85F49BF01212961345D3016C9A531894ACCF62EB7680F2045D79185CC0EC0 PUSH1 0x40 MLOAD PUSH1 0x40 MLOAD DUP1 SWAP2 SUB SWAP1 LOG4 POP POP POP JUMP JUMPDEST PUSH1 0x3 PUSH1 0x20 MSTORE DUP1 PUSH0 MSTORE PUSH1 0x40 PUSH0 KECCAK256 PUSH0 SWAP2 POP SLOAD SWAP1 PUSH2 0x100 EXP SWAP1 DIV PUSH1 0xFF AND DUP2 JUMP JUMPDEST PUSH0 DUP1 SLOAD SWAP1 PUSH2 0x100 EXP SWAP1 DIV PUSH20 0xFFFFFFFFFFFFFFFFFFFFFFFFFFFFFFFFFFFFFFFF AND DUP2 JUMP JUMPDEST PUSH1 0x3 PUSH0 CALLER PUSH20 0xFFFFFFFFFFFFFFFFFFFFFFFFFFFFFFFFFFFFFFFF AND PUSH20 0xFFFFFFFFFFFFFFFFFFFFFFFFFFFFFFFFFFFFFFFF AND DUP2 MSTORE PUSH1 0x20 ADD SWAP1 DUP2 MSTORE PUSH1 0x20 ADD PUSH0 KECCAK256 PUSH0 SWAP1 SLOAD SWAP1 PUSH2 0x100 EXP SWAP1 DIV PUSH1 0xFF AND PUSH2 0x16A7 JUMPI PUSH1 0x40 MLOAD PUSH32 0x8C379A000000000000000000000000000000000000000000000000000000000 DUP2 MSTORE PUSH1 0x4 ADD PUSH2 0x169E SWAP1 PUSH2 0x303B JUMP JUMPDEST PUSH1 0x40 MLOAD DUP1 SWAP2 SUB SWAP1 REVERT JUMPDEST PUSH0 DUP3 MLOAD GT PUSH2 0x16EA JUMPI PUSH1 0x40 MLOAD PUSH32 0x8C379A000000000000000000000000000000000000000000000000000000000 DUP2 MSTORE PUSH1 0x4 ADD PUSH2 0x16E1 SWAP1 PUSH2 0x36A4 JUMP JUMPDEST PUSH1 0x40 MLOAD DUP1 SWAP2 SUB SWAP1 REVERT JUMPDEST PUSH0 DUP2 MLOAD GT PUSH2 0x172D JUMPI PUSH1 0x40 MLOAD PUSH32 0x8C379A000000000000000000000000000000000000000000000000000000000 DUP2 MSTORE PUSH1 0x4 ADD PUSH2 0x1724 SWAP1 PUSH2 0x370C JUMP JUMPDEST PUSH1 0x40 MLOAD DUP1 SWAP2 SUB SWAP1 REVERT JUMPDEST PUSH1 0x1 PUSH0 DUP2 SLOAD DUP1 SWAP3 SWAP2 SWAP1 PUSH2 0x173F SWAP1 PUSH2 0x3757 JUMP JUMPDEST SWAP2 SWAP1 POP SSTORE POP PUSH0 PUSH1 0x1 SLOAD SWAP1 POP PUSH1 0x40 MLOAD DUP1 PUSH1 0xC0 ADD PUSH1 0x40 MSTORE DUP1 DUP3 DUP2 MSTORE PUSH1 0x20 ADD DUP5 DUP2 MSTORE PUSH1 0x20 ADD DUP4 DUP2 MSTORE PUSH1 0x20 ADD CALLER PUSH20 0xFFFFFFFFFFFFFFFFFFFFFFFFFFFFFFFFFFFFFFFF AND DUP2 MSTORE PUSH1 0x20 ADD TIMESTAMP DUP2 MSTORE PUSH1 0x20 ADD PUSH0 ISZERO ISZERO DUP2 MSTORE POP PUSH1 0x4 PUSH0 DUP4 DUP2 MSTORE PUSH1 0x20 ADD SWAP1 DUP2 MSTORE PUSH1 0x20 ADD PUSH0 KECCAK256 PUSH0 DUP3 ADD MLOAD DUP2 PUSH0 ADD SSTORE PUSH1 0x20 DUP3 ADD MLOAD DUP2 PUSH1 0x1 ADD SWAP1 DUP2 PUSH2 0x17BD SWAP2 SWAP1 PUSH2 0x3929 JUMP JUMPDEST POP PUSH1 0x40 DUP3 ADD MLOAD DUP2 PUSH1 0x2 ADD SWAP1 DUP2 PUSH2 0x17D3 SWAP2 SWAP1 PUSH2 0x3929 JUMP JUMPDEST POP PUSH1 0x60 DUP3 ADD MLOAD DUP2 PUSH1 0x3 ADD PUSH0 PUSH2 0x100 EXP DUP2 SLOAD DUP2 PUSH20 0xFFFFFFFFFFFFFFFFFFFFFFFFFFFFFFFFFFFFFFFF MUL NOT AND SWAP1 DUP4 PUSH20 0xFFFFFFFFFFFFFFFFFFFFFFFFFFFFFFFFFFFFFFFF AND MUL OR SWAP1 SSTORE POP PUSH1 0x80 DUP3 ADD MLOAD DUP2 PUSH1 0x4 ADD SSTORE PUSH1 0xA0 DUP3 ADD MLOAD DUP2 PUSH1 0x5 ADD PUSH0 PUSH2 0x100 EXP DUP2 SLOAD DUP2 PUSH1 0xFF MUL NOT AND SWAP1 DUP4 ISZERO ISZERO MUL OR SWAP1 SSTORE POP SWAP1 POP POP POP POP POP JUMP JUMPDEST PUSH1 0x3 PUSH0 CALLER PUSH20 0xFFFFFFFFFFFFFFFFFFFFFFFFFFFFFFFFFFFFFFFF AND PUSH20 0xFFFFFFFFFFFFFFFFFFFFFFFFFFFFFFFFFFFFFFFF AND DUP2 MSTORE PUSH1 0x20 ADD SWAP1 DUP2 MSTORE PUSH1 0x20 ADD PUSH0 KECCAK256 PUSH0 SWAP1 SLOAD SWAP1 PUSH2 0x100 EXP SWAP1 DIV PUSH1 0xFF AND PUSH2 0x18D4 JUMPI PUSH1 0x40 MLOAD PUSH32 0x8C379A000000000000000000000000000000000000000000000000000000000 DUP2 MSTORE PUSH1 0x4 ADD PUSH2 0x18CB SWAP1 PUSH2 0x303B JUMP JUMPDEST PUSH1 0x40 MLOAD DUP1 SWAP2 SUB SWAP1 REVERT JUMPDEST PUSH2 0x18DD DUP3 PUSH2 0x1A13 JUMP JUMPDEST PUSH2 0x191C JUMPI PUSH1 0x40 MLOAD PUSH32 0x8C379A000000000000000000000000000000000000000000000000000000000 DUP2 MSTORE PUSH1 0x4 ADD PUSH2 0x1913 SWAP1 PUSH2 0x3A42 JUMP JUMPDEST PUSH1 0x40 MLOAD DUP1 SWAP2 SUB SWAP1 REVERT JUMPDEST PUSH1 0x4 PUSH0 DUP4 DUP2 MSTORE PUSH1 0x20 ADD SWAP1 DUP2 MSTORE PUSH1 0x20 ADD PUSH0 KECCAK256 PUSH1 0x5 ADD PUSH0 SWAP1 SLOAD SWAP1 PUSH2 0x100 EXP SWAP1 DIV PUSH1 0xFF AND ISZERO PUSH2 0x197D JUMPI PUSH1 0x40 MLOAD PUSH32 0x8C379A000000000000000000000000000000000000000000000000000000000 DUP2 MSTORE PUSH1 0x4 ADD PUSH2 0x1974 SWAP1 PUSH2 0x3AAA JUMP JUMPDEST PUSH1 0x40 MLOAD DUP1 SWAP2 SUB SWAP1 REVERT JUMPDEST PUSH1 0x1 PUSH1 0x4 PUSH0 DUP5 DUP2 MSTORE PUSH1 0x20 ADD SWAP1 DUP2 MSTORE PUSH1 0x20 ADD PUSH0 KECCAK256 PUSH1 0x5 ADD PUSH0 PUSH2 0x100 EXP DUP2 SLOAD DUP2 PUSH1 0xFF MUL NOT AND SWAP1 DUP4 ISZERO ISZERO MUL OR SWAP1 SSTORE POP DUP2 PUSH32 0xCF945375036EE1FF64A8885B9C36844AC503B07AD7B0B3B78D023EB0A4CC623C DUP3 PUSH1 0x40 MLOAD PUSH2 0x19D9 SWAP2 SWAP1 PUSH2 0x2D5B JUMP JUMPDEST PUSH1 0x40 MLOAD DUP1 SWAP2 SUB SWAP1 LOG2 POP POP JUMP JUMPDEST PUSH0 DUP1 PUSH1 0x5 PUSH0 DUP5 DUP2 MSTORE PUSH1 0x20 ADD SWAP1 DUP2 MSTORE PUSH1 0x20 ADD PUSH0 KECCAK256 PUSH1 0x6 ADD SLOAD EQ PUSH2 0x1A0A JUMPI PUSH1 0x1 SWAP1 POP PUSH2 0x1A0E JUMP JUMPDEST PUSH0 SWAP1 POP JUMPDEST SWAP2 SWAP1 POP JUMP JUMPDEST PUSH0 DUP1 PUSH0 SWAP1 POP JUMPDEST PUSH1 0x1 SLOAD DUP2 LT ISZERO PUSH2 0x1A54 JUMPI PUSH1 0x4 PUSH0 DUP3 DUP2 MSTORE PUSH1 0x20 ADD SWAP1 DUP2 MSTORE PUSH1 0x20 ADD PUSH0 KECCAK256 PUSH0 ADD SLOAD DUP4 SUB PUSH2 0x1A47 JUMPI PUSH1 0x1 SWAP2 POP POP PUSH2 0x1A59 JUMP JUMPDEST DUP1 DUP1 PUSH1 0x1 ADD SWAP2 POP POP PUSH2 0x1A19 JUMP JUMPDEST POP PUSH0 SWAP1 POP JUMPDEST SWAP2 SWAP1 POP JUMP JUMPDEST PUSH1 0x5 PUSH1 0x20 MSTORE DUP1 PUSH0 MSTORE PUSH1 0x40 PUSH0 KECCAK256 PUSH0 SWAP2 POP SWAP1 POP DUP1 PUSH1 0x3 ADD PUSH0 SWAP1 SLOAD SWAP1 PUSH2 0x100 EXP SWAP1 DIV PUSH20 0xFFFFFFFFFFFFFFFFFFFFFFFFFFFFFFFFFFFFFFFF AND SWAP1 DUP1 PUSH1 0x4 ADD SLOAD SWAP1 DUP1 PUSH1 0x5 ADD PUSH0 SWAP1 SLOAD SWAP1 PUSH2 0x100 EXP SWAP1 DIV PUSH1 0xFF AND SWAP1 DUP1 PUSH1 0x6 ADD SLOAD SWAP1 DUP1 PUSH1 0x7 ADD DUP1 SLOAD PUSH2 0x1AC1 SWAP1 PUSH2 0x3279 JUMP JUMPDEST DUP1 PUSH1 0x1F ADD PUSH1 0x20 DUP1 SWAP2 DIV MUL PUSH1 0x20 ADD PUSH1 0x40 MLOAD SWAP1 DUP2 ADD PUSH1 0x40 MSTORE DUP1 SWAP3 SWAP2 SWAP1 DUP2 DUP2 MSTORE PUSH1 0x20 ADD DUP3 DUP1 SLOAD PUSH2 0x1AED SWAP1 PUSH2 0x3279 JUMP JUMPDEST DUP1 ISZERO PUSH2 0x1B38 JUMPI DUP1 PUSH1 0x1F LT PUSH2 0x1B0F JUMPI PUSH2 0x100 DUP1 DUP4 SLOAD DIV MUL DUP4 MSTORE SWAP2 PUSH1 0x20 ADD SWAP2 PUSH2 0x1B38 JUMP JUMPDEST DUP3 ADD SWAP2 SWAP1 PUSH0 MSTORE PUSH1 0x20 PUSH0 KECCAK256 SWAP1 JUMPDEST DUP2 SLOAD DUP2 MSTORE SWAP1 PUSH1 0x1 ADD SWAP1 PUSH1 0x20 ADD DUP1 DUP4 GT PUSH2 0x1B1B JUMPI DUP3 SWAP1 SUB PUSH1 0x1F AND DUP3 ADD SWAP2 JUMPDEST POP POP POP POP POP SWAP1 POP DUP6 JUMP JUMPDEST PUSH0 PUSH1 0x60 PUSH0 DUP1 PUSH0 DUP1 PUSH1 0x4 PUSH0 DUP9 DUP2 MSTORE PUSH1 0x20 ADD SWAP1 DUP2 MSTORE PUSH1 0x20 ADD PUSH0 KECCAK256 PUSH1 0x40 MLOAD DUP1 PUSH1 0xC0 ADD PUSH1 0x40 MSTORE SWAP1 DUP2 PUSH0 DUP3 ADD SLOAD DUP2 MSTORE PUSH1 0x20 ADD PUSH1 0x1 DUP3 ADD DUP1 SLOAD PUSH2 0x1B7E SWAP1 PUSH2 0x3279 JUMP JUMPDEST DUP1 PUSH1 0x1F ADD PUSH1 0x20 DUP1 SWAP2 DIV MUL PUSH1 0x20 ADD PUSH1 0x40 MLOAD SWAP1 DUP2 ADD PUSH1 0x40 MSTORE DUP1 SWAP3 SWAP2 SWAP1 DUP2 DUP2 MSTORE PUSH1 0x20 ADD DUP3 DUP1 SLOAD PUSH2 0x1BAA SWAP1 PUSH2 0x3279 JUMP JUMPDEST DUP1 ISZERO PUSH2 0x1BF5 JUMPI DUP1 PUSH1 0x1F LT PUSH2 0x1BCC JUMPI PUSH2 0x100 DUP1 DUP4 SLOAD DIV MUL DUP4 MSTORE SWAP2 PUSH1 0x20 ADD SWAP2 PUSH2 0x1BF5 JUMP JUMPDEST DUP3 ADD SWAP2 SWAP1 PUSH0 MSTORE PUSH1 0x20 PUSH0 KECCAK256 SWAP1 JUMPDEST DUP2 SLOAD DUP2 MSTORE SWAP1 PUSH1 0x1 ADD SWAP1 PUSH1 0x20 ADD DUP1 DUP4 GT PUSH2 0x1BD8 JUMPI DUP3 SWAP1 SUB PUSH1 0x1F AND DUP3 ADD SWAP2 JUMPDEST POP POP POP POP POP DUP2 MSTORE PUSH1 0x20 ADD PUSH1 0x2 DUP3 ADD DUP1 SLOAD PUSH2 0x1C0E SWAP1 PUSH2 0x3279 JUMP JUMPDEST DUP1 PUSH1 0x1F ADD PUSH1 0x20 DUP1 SWAP2 DIV MUL PUSH1 0x20 ADD PUSH1 0x40 MLOAD SWAP1 DUP2 ADD PUSH1 0x40 MSTORE DUP1 SWAP3 SWAP2 SWAP1 DUP2 DUP2 MSTORE PUSH1 0x20 ADD DUP3 DUP1 SLOAD PUSH2 0x1C3A SWAP1 PUSH2 0x3279 JUMP JUMPDEST DUP1 ISZERO PUSH2 0x1C85 JUMPI DUP1 PUSH1 0x1F LT PUSH2 0x1C5C JUMPI PUSH2 0x100 DUP1 DUP4 SLOAD DIV MUL DUP4 MSTORE SWAP2 PUSH1 0x20 ADD SWAP2 PUSH2 0x1C85 JUMP JUMPDEST DUP3 ADD SWAP2 SWAP1 PUSH0 MSTORE PUSH1 0x20 PUSH0 KECCAK256 SWAP1 JUMPDEST DUP2 SLOAD DUP2 MSTORE SWAP1 PUSH1 0x1 ADD SWAP1 PUSH1 0x20 ADD DUP1 DUP4 GT PUSH2 0x1C68 JUMPI DUP3 SWAP1 SUB PUSH1 0x1F AND DUP3 ADD SWAP2 JUMPDEST POP POP POP POP POP DUP2 MSTORE PUSH1 0x20 ADD PUSH1 0x3 DUP3 ADD PUSH0 SWAP1 SLOAD SWAP1 PUSH2 0x100 EXP SWAP1 DIV PUSH20 0xFFFFFFFFFFFFFFFFFFFFFFFFFFFFFFFFFFFFFFFF AND PUSH20 0xFFFFFFFFFFFFFFFFFFFFFFFFFFFFFFFFFFFFFFFF AND PUSH20 0xFFFFFFFFFFFFFFFFFFFFFFFFFFFFFFFFFFFFFFFF AND DUP2 MSTORE PUSH1 0x20 ADD PUSH1 0x4 DUP3 ADD SLOAD DUP2 MSTORE PUSH1 0x20 ADD PUSH1 0x5 DUP3 ADD PUSH0 SWAP1 SLOAD SWAP1 PUSH2 0x100 EXP SWAP1 DIV PUSH1 0xFF AND ISZERO ISZERO ISZERO ISZERO DUP2 MSTORE POP POP SWAP1 POP DUP1 PUSH0 ADD MLOAD DUP2 PUSH1 0x20 ADD MLOAD DUP3 PUSH1 0x60 ADD MLOAD DUP4 PUSH1 0x80 ADD MLOAD DUP5 PUSH1 0xA0 ADD MLOAD SWAP6 POP SWAP6 POP SWAP6 POP SWAP6 POP SWAP6 POP POP SWAP2 SWAP4 SWAP6 SWAP1 SWAP3 SWAP5 POP JUMP JUMPDEST PUSH0 DUP1 SLOAD SWAP1 PUSH2 0x100 EXP SWAP1 DIV PUSH20 0xFFFFFFFFFFFFFFFFFFFFFFFFFFFFFFFFFFFFFFFF AND PUSH20 0xFFFFFFFFFFFFFFFFFFFFFFFFFFFFFFFFFFFFFFFF AND CALLER PUSH20 0xFFFFFFFFFFFFFFFFFFFFFFFFFFFFFFFFFFFFFFFF AND EQ PUSH2 0x1DC2 JUMPI PUSH1 0x40 MLOAD PUSH32 0x8C379A000000000000000000000000000000000000000000000000000000000 DUP2 MSTORE PUSH1 0x4 ADD PUSH2 0x1DB9 SWAP1 PUSH2 0x3B12 JUMP JUMPDEST PUSH1 0x40 MLOAD DUP1 SWAP2 SUB SWAP1 REVERT JUMPDEST PUSH0 PUSH20 0xFFFFFFFFFFFFFFFFFFFFFFFFFFFFFFFFFFFFFFFF AND DUP2 PUSH20 0xFFFFFFFFFFFFFFFFFFFFFFFFFFFFFFFFFFFFFFFF AND SUB PUSH2 0x1E30 JUMPI PUSH1 0x40 MLOAD PUSH32 0x8C379A000000000000000000000000000000000000000000000000000000000 DUP2 MSTORE PUSH1 0x4 ADD PUSH2 0x1E27 SWAP1 PUSH2 0x3B7A JUMP JUMPDEST PUSH1 0x40 MLOAD DUP1 SWAP2 SUB SWAP1 REVERT JUMPDEST PUSH1 0x3 PUSH0 DUP3 PUSH20 0xFFFFFFFFFFFFFFFFFFFFFFFFFFFFFFFFFFFFFFFF AND PUSH20 0xFFFFFFFFFFFFFFFFFFFFFFFFFFFFFFFFFFFFFFFF AND DUP2 MSTORE PUSH1 0x20 ADD SWAP1 DUP2 MSTORE PUSH1 0x20 ADD PUSH0 KECCAK256 PUSH0 SWAP1 SLOAD SWAP1 PUSH2 0x100 EXP SWAP1 DIV PUSH1 0xFF AND ISZERO PUSH2 0x1EBA JUMPI PUSH1 0x40 MLOAD PUSH32 0x8C379A000000000000000000000000000000000000000000000000000000000 DUP2 MSTORE PUSH1 0x4 ADD PUSH2 0x1EB1 SWAP1 PUSH2 0x3BE2 JUMP JUMPDEST PUSH1 0x40 MLOAD DUP1 SWAP2 SUB SWAP1 REVERT JUMPDEST PUSH1 0x1 PUSH1 0x3 PUSH0 DUP4 PUSH20 0xFFFFFFFFFFFFFFFFFFFFFFFFFFFFFFFFFFFFFFFF AND PUSH20 0xFFFFFFFFFFFFFFFFFFFFFFFFFFFFFFFFFFFFFFFF AND DUP2 MSTORE PUSH1 0x20 ADD SWAP1 DUP2 MSTORE PUSH1 0x20 ADD PUSH0 KECCAK256 PUSH0 PUSH2 0x100 EXP DUP2 SLOAD DUP2 PUSH1 0xFF MUL NOT AND SWAP1 DUP4 ISZERO ISZERO MUL OR SWAP1 SSTORE POP DUP1 PUSH20 0xFFFFFFFFFFFFFFFFFFFFFFFFFFFFFFFFFFFFFFFF AND PUSH32 0x3CBCBB9BA5A54D0762F39FD455FD2900FBCFCD0E0693E2C87DB13043C400B55F PUSH1 0x40 MLOAD PUSH1 0x40 MLOAD DUP1 SWAP2 SUB SWAP1 LOG2 POP JUMP JUMPDEST PUSH1 0x60 PUSH1 0x1 DUP3 SUB PUSH2 0x1F9C JUMPI PUSH1 0x40 MLOAD DUP1 PUSH1 0x40 ADD PUSH1 0x40 MSTORE DUP1 PUSH1 0xE DUP2 MSTORE PUSH1 0x20 ADD PUSH32 0x7265736769737465724261746368000000000000000000000000000000000000 DUP2 MSTORE POP SWAP1 POP PUSH2 0x2027 JUMP JUMPDEST PUSH1 0x2 DUP3 SUB PUSH2 0x1FE1 JUMPI PUSH1 0x40 MLOAD DUP1 PUSH1 0x40 ADD PUSH1 0x40 MSTORE DUP1 PUSH1 0xD DUP2 MSTORE PUSH1 0x20 ADD PUSH32 0x7472616E73666572426174636800000000000000000000000000000000000000 DUP2 MSTORE POP SWAP1 POP PUSH2 0x2027 JUMP JUMPDEST PUSH1 0x3 DUP3 SUB PUSH2 0x2026 JUMPI PUSH1 0x40 MLOAD DUP1 PUSH1 0x40 ADD PUSH1 0x40 MSTORE DUP1 PUSH1 0xB DUP2 MSTORE PUSH1 0x20 ADD PUSH32 0x726563616C6C4261746368000000000000000000000000000000000000000000 DUP2 MSTORE POP SWAP1 POP PUSH2 0x2027 JUMP JUMPDEST JUMPDEST SWAP2 SWAP1 POP JUMP JUMPDEST PUSH0 DUP1 SLOAD SWAP1 PUSH2 0x100 EXP SWAP1 DIV PUSH20 0xFFFFFFFFFFFFFFFFFFFFFFFFFFFFFFFFFFFFFFFF AND PUSH20 0xFFFFFFFFFFFFFFFFFFFFFFFFFFFFFFFFFFFFFFFF AND CALLER PUSH20 0xFFFFFFFFFFFFFFFFFFFFFFFFFFFFFFFFFFFFFFFF AND EQ PUSH2 0x20B9 JUMPI PUSH1 0x40 MLOAD PUSH32 0x8C379A000000000000000000000000000000000000000000000000000000000 DUP2 MSTORE PUSH1 0x4 ADD PUSH2 0x20B0 SWAP1 PUSH2 0x3B12 JUMP JUMPDEST PUSH1 0x40 MLOAD DUP1 SWAP2 SUB SWAP1 REVERT JUMPDEST PUSH1 0x1 PUSH1 0x3 PUSH0 DUP4 PUSH20 0xFFFFFFFFFFFFFFFFFFFFFFFFFFFFFFFFFFFFFFFF AND PUSH20 0xFFFFFFFFFFFFFFFFFFFFFFFFFFFFFFFFFFFFFFFF AND DUP2 MSTORE PUSH1 0x20 ADD SWAP1 DUP2 MSTORE PUSH1 0x20 ADD PUSH0 KECCAK256 PUSH0 PUSH2 0x100 EXP DUP2 SLOAD DUP2 PUSH1 0xFF MUL NOT AND SWAP1 DUP4 ISZERO ISZERO MUL OR SWAP1 SSTORE POP POP JUMP JUMPDEST PUSH1 0x1 SLOAD DUP2 JUMP JUMPDEST PUSH1 0x3 PUSH0 CALLER PUSH20 0xFFFFFFFFFFFFFFFFFFFFFFFFFFFFFFFFFFFFFFFF AND PUSH20 0xFFFFFFFFFFFFFFFFFFFFFFFFFFFFFFFFFFFFFFFF AND DUP2 MSTORE PUSH1 0x20 ADD SWAP1 DUP2 MSTORE PUSH1 0x20 ADD PUSH0 KECCAK256 PUSH0 SWAP1 SLOAD SWAP1 PUSH2 0x100 EXP SWAP1 DIV PUSH1 0xFF AND PUSH2 0x21A0 JUMPI PUSH1 0x40 MLOAD PUSH32 0x8C379A000000000000000000000000000000000000000000000000000000000 DUP2 MSTORE PUSH1 0x4 ADD PUSH2 0x2197 SWAP1 PUSH2 0x303B JUMP JUMPDEST PUSH1 0x40 MLOAD DUP1 SWAP2 SUB SWAP1 REVERT JUMPDEST PUSH0 DUP5 MLOAD GT PUSH2 0x21E3 JUMPI PUSH1 0x40 MLOAD PUSH32 0x8C379A000000000000000000000000000000000000000000000000000000000 DUP2 MSTORE PUSH1 0x4 ADD PUSH2 0x21DA SWAP1 PUSH2 0x3C4A JUMP JUMPDEST PUSH1 0x40 MLOAD DUP1 SWAP2 SUB SWAP1 REVERT JUMPDEST PUSH0 DUP4 MLOAD GT PUSH2 0x2226 JUMPI PUSH1 0x40 MLOAD PUSH32 0x8C379A000000000000000000000000000000000000000000000000000000000 DUP2 MSTORE PUSH1 0x4 ADD PUSH2 0x221D SWAP1 PUSH2 0x36A4 JUMP JUMPDEST PUSH1 0x40 MLOAD DUP1 SWAP2 SUB SWAP1 REVERT JUMPDEST PUSH0 DUP3 MLOAD GT PUSH2 0x2269 JUMPI PUSH1 0x40 MLOAD PUSH32 0x8C379A000000000000000000000000000000000000000000000000000000000 DUP2 MSTORE PUSH1 0x4 ADD PUSH2 0x2260 SWAP1 PUSH2 0x370C JUMP JUMPDEST PUSH1 0x40 MLOAD DUP1 SWAP2 SUB SWAP1 REVERT JUMPDEST PUSH1 0x2 PUSH0 DUP2 SLOAD DUP1 SWAP3 SWAP2 SWAP1 PUSH2 0x227B SWAP1 PUSH2 0x3757 JUMP JUMPDEST SWAP2 SWAP1 POP SSTORE POP PUSH0 PUSH1 0x2 SLOAD SWAP1 POP PUSH1 0x40 MLOAD DUP1 PUSH2 0x100 ADD PUSH1 0x40 MSTORE DUP1 DUP7 DUP2 MSTORE PUSH1 0x20 ADD DUP6 DUP2 MSTORE PUSH1 0x20 ADD DUP5 DUP2 MSTORE PUSH1 0x20 ADD PUSH0 DUP1 SLOAD SWAP1 PUSH2 0x100 EXP SWAP1 DIV PUSH20 0xFFFFFFFFFFFFFFFFFFFFFFFFFFFFFFFFFFFFFFFF AND PUSH20 0xFFFFFFFFFFFFFFFFFFFFFFFFFFFFFFFFFFFFFFFF AND DUP2 MSTORE PUSH1 0x20 ADD TIMESTAMP DUP2 MSTORE PUSH1 0x20 ADD PUSH0 ISZERO ISZERO DUP2 MSTORE PUSH1 0x20 ADD DUP3 DUP2 MSTORE PUSH1 0x20 ADD DUP4 DUP2 MSTORE POP PUSH1 0x5 PUSH0 DUP4 DUP2 MSTORE PUSH1 0x20 ADD SWAP1 DUP2 MSTORE PUSH1 0x20 ADD PUSH0 KECCAK256 PUSH0 DUP3 ADD MLOAD DUP2 PUSH0 ADD SWAP1 DUP1 MLOAD SWAP1 PUSH1 0x20 ADD SWAP1 PUSH2 0x2322 SWAP3 SWAP2 SWAP1 PUSH2 0x242E JUMP JUMPDEST POP PUSH1 0x20 DUP3 ADD MLOAD DUP2 PUSH1 0x1 ADD SWAP1 DUP1 MLOAD SWAP1 PUSH1 0x20 ADD SWAP1 PUSH2 0x233F SWAP3 SWAP2 SWAP1 PUSH2 0x2479 JUMP JUMPDEST POP PUSH1 0x40 DUP3 ADD MLOAD DUP2 PUSH1 0x2 ADD SWAP1 DUP1 MLOAD SWAP1 PUSH1 0x20 ADD SWAP1 PUSH2 0x235C SWAP3 SWAP2 SWAP1 PUSH2 0x2479 JUMP JUMPDEST POP PUSH1 0x60 DUP3 ADD MLOAD DUP2 PUSH1 0x3 ADD PUSH0 PUSH2 0x100 EXP DUP2 SLOAD DUP2 PUSH20 0xFFFFFFFFFFFFFFFFFFFFFFFFFFFFFFFFFFFFFFFF MUL NOT AND SWAP1 DUP4 PUSH20 0xFFFFFFFFFFFFFFFFFFFFFFFFFFFFFFFFFFFFFFFF AND MUL OR SWAP1 SSTORE POP PUSH1 0x80 DUP3 ADD MLOAD DUP2 PUSH1 0x4 ADD SSTORE PUSH1 0xA0 DUP3 ADD MLOAD DUP2 PUSH1 0x5 ADD PUSH0 PUSH2 0x100 EXP DUP2 SLOAD DUP2 PUSH1 0xFF MUL NOT AND SWAP1 DUP4 ISZERO ISZERO MUL OR SWAP1 SSTORE POP PUSH1 0xC0 DUP3 ADD MLOAD DUP2 PUSH1 0x6 ADD SSTORE PUSH1 0xE0 DUP3 ADD MLOAD DUP2 PUSH1 0x7 ADD SWAP1 DUP2 PUSH2 0x23EB SWAP2 SWAP1 PUSH2 0x3929 JUMP JUMPDEST POP SWAP1 POP POP DUP1 PUSH32 0x97FF4EB42B5AF6FF38CAFBFAD77979B7FBE233BB58B2CB81EB38859456A133FD DUP4 PUSH1 0x40 MLOAD PUSH2 0x241F SWAP2 SWAP1 PUSH2 0x2D5B JUMP JUMPDEST PUSH1 0x40 MLOAD DUP1 SWAP2 SUB SWAP1 LOG2 POP POP POP POP POP JUMP JUMPDEST DUP3 DUP1 SLOAD DUP3 DUP3 SSTORE SWAP1 PUSH0 MSTORE PUSH1 0x20 PUSH0 KECCAK256 SWAP1 DUP2 ADD SWAP3 DUP3 ISZERO PUSH2 0x2468 JUMPI SWAP2 PUSH1 0x20 MUL DUP3 ADD JUMPDEST DUP3 DUP2 GT ISZERO PUSH2 0x2467 JUMPI DUP3 MLOAD DUP3 SSTORE SWAP2 PUSH1 0x20 ADD SWAP2 SWAP1 PUSH1 0x1 ADD SWAP1 PUSH2 0x244C JUMP JUMPDEST JUMPDEST POP SWAP1 POP PUSH2 0x2475 SWAP2 SWAP1 PUSH2 0x24D0 JUMP JUMPDEST POP SWAP1 JUMP JUMPDEST DUP3 DUP1 SLOAD DUP3 DUP3 SSTORE SWAP1 PUSH0 MSTORE PUSH1 0x20 PUSH0 KECCAK256 SWAP1 DUP2 ADD SWAP3 DUP3 ISZERO PUSH2 0x24BF JUMPI SWAP2 PUSH1 0x20 MUL DUP3 ADD JUMPDEST DUP3 DUP2 GT ISZERO PUSH2 0x24BE JUMPI DUP3 MLOAD DUP3 SWAP1 DUP2 PUSH2 0x24AE SWAP2 SWAP1 PUSH2 0x3929 JUMP JUMPDEST POP SWAP2 PUSH1 0x20 ADD SWAP2 SWAP1 PUSH1 0x1 ADD SWAP1 PUSH2 0x2497 JUMP JUMPDEST JUMPDEST POP SWAP1 POP PUSH2 0x24CC SWAP2 SWAP1 PUSH2 0x24EB JUMP JUMPDEST POP SWAP1 JUMP JUMPDEST JUMPDEST DUP1 DUP3 GT ISZERO PUSH2 0x24E7 JUMPI PUSH0 DUP2 PUSH0 SWAP1 SSTORE POP PUSH1 0x1 ADD PUSH2 0x24D1 JUMP JUMPDEST POP SWAP1 JUMP JUMPDEST JUMPDEST DUP1 DUP3 GT ISZERO PUSH2 0x250A JUMPI PUSH0 DUP2 DUP2 PUSH2 0x2501 SWAP2 SWAP1 PUSH2 0x250E JUMP JUMPDEST POP PUSH1 0x1 ADD PUSH2 0x24EC JUMP JUMPDEST POP SWAP1 JUMP JUMPDEST POP DUP1 SLOAD PUSH2 0x251A SWAP1 PUSH2 0x3279 JUMP JUMPDEST PUSH0 DUP3 SSTORE DUP1 PUSH1 0x1F LT PUSH2 0x252B JUMPI POP PUSH2 0x2548 JUMP JUMPDEST PUSH1 0x1F ADD PUSH1 0x20 SWAP1 DIV SWAP1 PUSH0 MSTORE PUSH1 0x20 PUSH0 KECCAK256 SWAP1 DUP2 ADD SWAP1 PUSH2 0x2547 SWAP2 SWAP1 PUSH2 0x24D0 JUMP JUMPDEST JUMPDEST POP JUMP JUMPDEST PUSH0 PUSH1 0x40 MLOAD SWAP1 POP SWAP1 JUMP JUMPDEST PUSH0 DUP1 REVERT JUMPDEST PUSH0 DUP1 REVERT JUMPDEST PUSH0 DUP2 SWAP1 POP SWAP2 SWAP1 POP JUMP JUMPDEST PUSH2 0x256E DUP2 PUSH2 0x255C JUMP JUMPDEST DUP2 EQ PUSH2 0x2578 JUMPI PUSH0 DUP1 REVERT JUMPDEST POP JUMP JUMPDEST PUSH0 DUP2 CALLDATALOAD SWAP1 POP PUSH2 0x2589 DUP2 PUSH2 0x2565 JUMP JUMPDEST SWAP3 SWAP2 POP POP JUMP JUMPDEST PUSH0 DUP1 REVERT JUMPDEST PUSH0 DUP1 REVERT JUMPDEST PUSH0 PUSH1 0x1F NOT PUSH1 0x1F DUP4 ADD AND SWAP1 POP SWAP2 SWAP1 POP JUMP JUMPDEST PUSH32 0x4E487B7100000000000000000000000000000000000000000000000000000000 PUSH0 MSTORE PUSH1 0x41 PUSH1 0x4 MSTORE PUSH1 0x24 PUSH0 REVERT JUMPDEST PUSH2 0x25DD DUP3 PUSH2 0x2597 JUMP JUMPDEST DUP2 ADD DUP2 DUP2 LT PUSH8 0xFFFFFFFFFFFFFFFF DUP3 GT OR ISZERO PUSH2 0x25FC JUMPI PUSH2 0x25FB PUSH2 0x25A7 JUMP JUMPDEST JUMPDEST DUP1 PUSH1 0x40 MSTORE POP POP POP JUMP JUMPDEST PUSH0 PUSH2 0x260E PUSH2 0x254B JUMP JUMPDEST SWAP1 POP PUSH2 0x261A DUP3 DUP3 PUSH2 0x25D4 JUMP JUMPDEST SWAP2 SWAP1 POP JUMP JUMPDEST PUSH0 PUSH8 0xFFFFFFFFFFFFFFFF DUP3 GT ISZERO PUSH2 0x2639 JUMPI PUSH2 0x2638 PUSH2 0x25A7 JUMP JUMPDEST JUMPDEST PUSH2 0x2642 DUP3 PUSH2 0x2597 JUMP JUMPDEST SWAP1 POP PUSH1 0x20 DUP2 ADD SWAP1 POP SWAP2 SWAP1 POP JUMP JUMPDEST DUP3 DUP2 DUP4 CALLDATACOPY PUSH0 DUP4 DUP4 ADD MSTORE POP POP POP JUMP JUMPDEST PUSH0 PUSH2 0x266F PUSH2 0x266A DUP5 PUSH2 0x261F JUMP JUMPDEST PUSH2 0x2605 JUMP JUMPDEST SWAP1 POP DUP3 DUP2 MSTORE PUSH1 0x20 DUP2 ADD DUP5 DUP5 DUP5 ADD GT ISZERO PUSH2 0x268B JUMPI PUSH2 0x268A PUSH2 0x2593 JUMP JUMPDEST JUMPDEST PUSH2 0x2696 DUP5 DUP3 DUP6 PUSH2 0x264F JUMP JUMPDEST POP SWAP4 SWAP3 POP POP POP JUMP JUMPDEST PUSH0 DUP3 PUSH1 0x1F DUP4 ADD SLT PUSH2 0x26B2 JUMPI PUSH2 0x26B1 PUSH2 0x258F JUMP JUMPDEST JUMPDEST DUP2 CALLDATALOAD PUSH2 0x26C2 DUP5 DUP3 PUSH1 0x20 DUP7 ADD PUSH2 0x265D JUMP JUMPDEST SWAP2 POP POP SWAP3 SWAP2 POP POP JUMP JUMPDEST PUSH0 DUP1 PUSH1 0x40 DUP4 DUP6 SUB SLT ISZERO PUSH2 0x26E1 JUMPI PUSH2 0x26E0 PUSH2 0x2554 JUMP JUMPDEST JUMPDEST PUSH0 PUSH2 0x26EE DUP6 DUP3 DUP7 ADD PUSH2 0x257B JUMP JUMPDEST SWAP3 POP POP PUSH1 0x20 DUP4 ADD CALLDATALOAD PUSH8 0xFFFFFFFFFFFFFFFF DUP2 GT ISZERO PUSH2 0x270F JUMPI PUSH2 0x270E PUSH2 0x2558 JUMP JUMPDEST JUMPDEST PUSH2 0x271B DUP6 DUP3 DUP7 ADD PUSH2 0x269E JUMP JUMPDEST SWAP2 POP POP SWAP3 POP SWAP3 SWAP1 POP JUMP JUMPDEST PUSH2 0x272E DUP2 PUSH2 0x255C JUMP JUMPDEST DUP3 MSTORE POP POP JUMP JUMPDEST PUSH0 PUSH1 0x20 DUP3 ADD SWAP1 POP PUSH2 0x2747 PUSH0 DUP4 ADD DUP5 PUSH2 0x2725 JUMP JUMPDEST SWAP3 SWAP2 POP POP JUMP JUMPDEST PUSH0 PUSH20 0xFFFFFFFFFFFFFFFFFFFFFFFFFFFFFFFFFFFFFFFF DUP3 AND SWAP1 POP SWAP2 SWAP1 POP JUMP JUMPDEST PUSH0 PUSH2 0x2776 DUP3 PUSH2 0x274D JUMP JUMPDEST SWAP1 POP SWAP2 SWAP1 POP JUMP JUMPDEST PUSH2 0x2786 DUP2 PUSH2 0x276C JUMP JUMPDEST DUP2 EQ PUSH2 0x2790 JUMPI PUSH0 DUP1 REVERT JUMPDEST POP JUMP JUMPDEST PUSH0 DUP2 CALLDATALOAD SWAP1 POP PUSH2 0x27A1 DUP2 PUSH2 0x277D JUMP JUMPDEST SWAP3 SWAP2 POP POP JUMP JUMPDEST PUSH0 DUP1 PUSH0 DUP1 PUSH1 0x80 DUP6 DUP8 SUB SLT ISZERO PUSH2 0x27BF JUMPI PUSH2 0x27BE PUSH2 0x2554 JUMP JUMPDEST JUMPDEST PUSH0 PUSH2 0x27CC DUP8 DUP3 DUP9 ADD PUSH2 0x257B JUMP JUMPDEST SWAP5 POP POP PUSH1 0x20 PUSH2 0x27DD DUP8 DUP3 DUP9 ADD PUSH2 0x2793 JUMP JUMPDEST SWAP4 POP POP PUSH1 0x40 PUSH2 0x27EE DUP8 DUP3 DUP9 ADD PUSH2 0x257B JUMP JUMPDEST SWAP3 POP POP PUSH1 0x60 DUP6 ADD CALLDATALOAD PUSH8 0xFFFFFFFFFFFFFFFF DUP2 GT ISZERO PUSH2 0x280F JUMPI PUSH2 0x280E PUSH2 0x2558 JUMP JUMPDEST JUMPDEST PUSH2 0x281B DUP8 DUP3 DUP9 ADD PUSH2 0x269E JUMP JUMPDEST SWAP2 POP POP SWAP3 SWAP6 SWAP2 SWAP5 POP SWAP3 POP JUMP JUMPDEST PUSH0 PUSH1 0x20 DUP3 DUP5 SUB SLT ISZERO PUSH2 0x283C JUMPI PUSH2 0x283B PUSH2 0x2554 JUMP JUMPDEST JUMPDEST PUSH0 PUSH2 0x2849 DUP5 DUP3 DUP6 ADD PUSH2 0x257B JUMP JUMPDEST SWAP2 POP POP SWAP3 SWAP2 POP POP JUMP JUMPDEST PUSH0 DUP2 ISZERO ISZERO SWAP1 POP SWAP2 SWAP1 POP JUMP JUMPDEST PUSH2 0x2866 DUP2 PUSH2 0x2852 JUMP JUMPDEST DUP3 MSTORE POP POP JUMP JUMPDEST PUSH0 PUSH1 0x20 DUP3 ADD SWAP1 POP PUSH2 0x287F PUSH0 DUP4 ADD DUP5 PUSH2 0x285D JUMP JUMPDEST SWAP3 SWAP2 POP POP JUMP JUMPDEST PUSH0 DUP2 MLOAD SWAP1 POP SWAP2 SWAP1 POP JUMP JUMPDEST PUSH0 DUP3 DUP3 MSTORE PUSH1 0x20 DUP3 ADD SWAP1 POP SWAP3 SWAP2 POP POP JUMP JUMPDEST PUSH0 DUP2 SWAP1 POP PUSH1 0x20 DUP3 ADD SWAP1 POP SWAP2 SWAP1 POP JUMP JUMPDEST PUSH2 0x28B7 DUP2 PUSH2 0x255C JUMP JUMPDEST DUP3 MSTORE POP POP JUMP JUMPDEST PUSH0 PUSH2 0x28C8 DUP4 DUP4 PUSH2 0x28AE JUMP JUMPDEST PUSH1 0x20 DUP4 ADD SWAP1 POP SWAP3 SWAP2 POP POP JUMP JUMPDEST PUSH0 PUSH1 0x20 DUP3 ADD SWAP1 POP SWAP2 SWAP1 POP JUMP JUMPDEST PUSH0 PUSH2 0x28EA DUP3 PUSH2 0x2885 JUMP JUMPDEST PUSH2 0x28F4 DUP2 DUP6 PUSH2 0x288F JUMP JUMPDEST SWAP4 POP PUSH2 0x28FF DUP4 PUSH2 0x289F JUMP JUMPDEST DUP1 PUSH0 JUMPDEST DUP4 DUP2 LT ISZERO PUSH2 0x292F JUMPI DUP2 MLOAD PUSH2 0x2916 DUP9 DUP3 PUSH2 0x28BD JUMP JUMPDEST SWAP8 POP PUSH2 0x2921 DUP4 PUSH2 0x28D4 JUMP JUMPDEST SWAP3 POP POP PUSH1 0x1 DUP2 ADD SWAP1 POP PUSH2 0x2902 JUMP JUMPDEST POP DUP6 SWAP4 POP POP POP POP SWAP3 SWAP2 POP POP JUMP JUMPDEST PUSH0 DUP2 MLOAD SWAP1 POP SWAP2 SWAP1 POP JUMP JUMPDEST PUSH0 DUP3 DUP3 MSTORE PUSH1 0x20 DUP3 ADD SWAP1 POP SWAP3 SWAP2 POP POP JUMP JUMPDEST PUSH0 DUP2 SWAP1 POP PUSH1 0x20 DUP3 ADD SWAP1 POP SWAP2 SWAP1 POP JUMP JUMPDEST PUSH0 DUP2 MLOAD SWAP1 POP SWAP2 SWAP1 POP JUMP JUMPDEST PUSH0 DUP3 DUP3 MSTORE PUSH1 0x20 DUP3 ADD SWAP1 POP SWAP3 SWAP2 POP POP JUMP JUMPDEST DUP3 DUP2 DUP4 MCOPY PUSH0 DUP4 DUP4 ADD MSTORE POP POP POP JUMP JUMPDEST PUSH0 PUSH2 0x2997 DUP3 PUSH2 0x2965 JUMP JUMPDEST PUSH2 0x29A1 DUP2 DUP6 PUSH2 0x296F JUMP JUMPDEST SWAP4 POP PUSH2 0x29B1 DUP2 DUP6 PUSH1 0x20 DUP7 ADD PUSH2 0x297F JUMP JUMPDEST PUSH2 0x29BA DUP2 PUSH2 0x2597 JUMP JUMPDEST DUP5 ADD SWAP2 POP POP SWAP3 SWAP2 POP POP JUMP JUMPDEST PUSH0 PUSH2 0x29D0 DUP4 DUP4 PUSH2 0x298D JUMP JUMPDEST SWAP1 POP SWAP3 SWAP2 POP POP JUMP JUMPDEST PUSH0 PUSH1 0x20 DUP3 ADD SWAP1 POP SWAP2 SWAP1 POP JUMP JUMPDEST PUSH0 PUSH2 0x29EE DUP3 PUSH2 0x293C JUMP JUMPDEST PUSH2 0x29F8 DUP2 DUP6 PUSH2 0x2946 JUMP JUMPDEST SWAP4 POP DUP4 PUSH1 0x20 DUP3 MUL DUP6 ADD PUSH2 0x2A0A DUP6 PUSH2 0x2956 JUMP JUMPDEST DUP1 PUSH0 JUMPDEST DUP6 DUP2 LT ISZERO PUSH2 0x2A45 JUMPI DUP5 DUP5 SUB DUP10 MSTORE DUP2 MLOAD PUSH2 0x2A26 DUP6 DUP3 PUSH2 0x29C5 JUMP JUMPDEST SWAP5 POP PUSH2 0x2A31 DUP4 PUSH2 0x29D8 JUMP JUMPDEST SWAP3 POP PUSH1 0x20 DUP11 ADD SWAP10 POP POP PUSH1 0x1 DUP2 ADD SWAP1 POP PUSH2 0x2A0D JUMP JUMPDEST POP DUP3 SWAP8 POP DUP8 SWAP6 POP POP POP POP POP POP SWAP3 SWAP2 POP POP JUMP JUMPDEST PUSH2 0x2A60 DUP2 PUSH2 0x276C JUMP JUMPDEST DUP3 MSTORE POP POP JUMP JUMPDEST PUSH0 DUP3 DUP3 MSTORE PUSH1 0x20 DUP3 ADD SWAP1 POP SWAP3 SWAP2 POP POP JUMP JUMPDEST PUSH0 PUSH2 0x2A80 DUP3 PUSH2 0x2965 JUMP JUMPDEST PUSH2 0x2A8A DUP2 DUP6 PUSH2 0x2A66 JUMP JUMPDEST SWAP4 POP PUSH2 0x2A9A DUP2 DUP6 PUSH1 0x20 DUP7 ADD PUSH2 0x297F JUMP JUMPDEST PUSH2 0x2AA3 DUP2 PUSH2 0x2597 JUMP JUMPDEST DUP5 ADD SWAP2 POP POP SWAP3 SWAP2 POP POP JUMP JUMPDEST PUSH0 PUSH2 0x100 DUP3 ADD SWAP1 POP DUP2 DUP2 SUB PUSH0 DUP4 ADD MSTORE PUSH2 0x2AC7 DUP2 DUP12 PUSH2 0x28E0 JUMP JUMPDEST SWAP1 POP DUP2 DUP2 SUB PUSH1 0x20 DUP4 ADD MSTORE PUSH2 0x2ADB DUP2 DUP11 PUSH2 0x29E4 JUMP JUMPDEST SWAP1 POP DUP2 DUP2 SUB PUSH1 0x40 DUP4 ADD MSTORE PUSH2 0x2AEF DUP2 DUP10 PUSH2 0x29E4 JUMP JUMPDEST SWAP1 POP PUSH2 0x2AFE PUSH1 0x60 DUP4 ADD DUP9 PUSH2 0x2A57 JUMP JUMPDEST PUSH2 0x2B0B PUSH1 0x80 DUP4 ADD DUP8 PUSH2 0x2725 JUMP JUMPDEST PUSH2 0x2B18 PUSH1 0xA0 DUP4 ADD DUP7 PUSH2 0x285D JUMP JUMPDEST PUSH2 0x2B25 PUSH1 0xC0 DUP4 ADD DUP6 PUSH2 0x2725 JUMP JUMPDEST DUP2 DUP2 SUB PUSH1 0xE0 DUP4 ADD MSTORE PUSH2 0x2B37 DUP2 DUP5 PUSH2 0x2A76 JUMP JUMPDEST SWAP1 POP SWAP10 SWAP9 POP POP POP POP POP POP POP POP POP JUMP JUMPDEST PUSH0 PUSH1 0xC0 DUP3 ADD SWAP1 POP PUSH2 0x2B59 PUSH0 DUP4 ADD DUP10 PUSH2 0x2725 JUMP JUMPDEST DUP2 DUP2 SUB PUSH1 0x20 DUP4 ADD MSTORE PUSH2 0x2B6B DUP2 DUP9 PUSH2 0x2A76 JUMP JUMPDEST SWAP1 POP DUP2 DUP2 SUB PUSH1 0x40 DUP4 ADD MSTORE PUSH2 0x2B7F DUP2 DUP8 PUSH2 0x2A76 JUMP JUMPDEST SWAP1 POP PUSH2 0x2B8E PUSH1 0x60 DUP4 ADD DUP7 PUSH2 0x2A57 JUMP JUMPDEST PUSH2 0x2B9B PUSH1 0x80 DUP4 ADD DUP6 PUSH2 0x2725 JUMP JUMPDEST PUSH2 0x2BA8 PUSH1 0xA0 DUP4 ADD DUP5 PUSH2 0x285D JUMP JUMPDEST SWAP8 SWAP7 POP POP POP POP POP POP POP JUMP JUMPDEST PUSH0 DUP1 PUSH1 0x40 DUP4 DUP6 SUB SLT ISZERO PUSH2 0x2BC9 JUMPI PUSH2 0x2BC8 PUSH2 0x2554 JUMP JUMPDEST JUMPDEST PUSH0 PUSH2 0x2BD6 DUP6 DUP3 DUP7 ADD PUSH2 0x257B JUMP JUMPDEST SWAP3 POP POP PUSH1 0x20 PUSH2 0x2BE7 DUP6 DUP3 DUP7 ADD PUSH2 0x2793 JUMP JUMPDEST SWAP2 POP POP SWAP3 POP SWAP3 SWAP1 POP JUMP JUMPDEST PUSH0 PUSH1 0x20 DUP3 DUP5 SUB SLT ISZERO PUSH2 0x2C06 JUMPI PUSH2 0x2C05 PUSH2 0x2554 JUMP JUMPDEST JUMPDEST PUSH0 PUSH2 0x2C13 DUP5 DUP3 DUP6 ADD PUSH2 0x2793 JUMP JUMPDEST SWAP2 POP POP SWAP3 SWAP2 POP POP JUMP JUMPDEST PUSH0 PUSH1 0x20 DUP3 ADD SWAP1 POP PUSH2 0x2C2F PUSH0 DUP4 ADD DUP5 PUSH2 0x2A57 JUMP JUMPDEST SWAP3 SWAP2 POP POP JUMP JUMPDEST PUSH0 DUP1 PUSH1 0x40 DUP4 DUP6 SUB SLT ISZERO PUSH2 0x2C4B JUMPI PUSH2 0x2C4A PUSH2 0x2554 JUMP JUMPDEST JUMPDEST PUSH0 DUP4 ADD CALLDATALOAD PUSH8 0xFFFFFFFFFFFFFFFF DUP2 GT ISZERO PUSH2 0x2C68 JUMPI PUSH2 0x2C67 PUSH2 0x2558 JUMP JUMPDEST JUMPDEST PUSH2 0x2C74 DUP6 DUP3 DUP7 ADD PUSH2 0x269E JUMP JUMPDEST SWAP3 POP POP PUSH1 0x20 DUP4 ADD CALLDATALOAD PUSH8 0xFFFFFFFFFFFFFFFF DUP2 GT ISZERO PUSH2 0x2C95 JUMPI PUSH2 0x2C94 PUSH2 0x2558 JUMP JUMPDEST JUMPDEST PUSH2 0x2CA1 DUP6 DUP3 DUP7 ADD PUSH2 0x269E JUMP JUMPDEST SWAP2 POP POP SWAP3 POP SWAP3 SWAP1 POP JUMP JUMPDEST PUSH0 PUSH1 0xA0 DUP3 ADD SWAP1 POP PUSH2 0x2CBE PUSH0 DUP4 ADD DUP9 PUSH2 0x2A57 JUMP JUMPDEST PUSH2 0x2CCB PUSH1 0x20 DUP4 ADD DUP8 PUSH2 0x2725 JUMP JUMPDEST PUSH2 0x2CD8 PUSH1 0x40 DUP4 ADD DUP7 PUSH2 0x285D JUMP JUMPDEST PUSH2 0x2CE5 PUSH1 0x60 DUP4 ADD DUP6 PUSH2 0x2725 JUMP JUMPDEST DUP2 DUP2 SUB PUSH1 0x80 DUP4 ADD MSTORE PUSH2 0x2CF7 DUP2 DUP5 PUSH2 0x2A76 JUMP JUMPDEST SWAP1 POP SWAP7 SWAP6 POP POP POP POP POP POP JUMP JUMPDEST PUSH0 PUSH1 0xA0 DUP3 ADD SWAP1 POP PUSH2 0x2D16 PUSH0 DUP4 ADD DUP9 PUSH2 0x2725 JUMP JUMPDEST DUP2 DUP2 SUB PUSH1 0x20 DUP4 ADD MSTORE PUSH2 0x2D28 DUP2 DUP8 PUSH2 0x2A76 JUMP JUMPDEST SWAP1 POP PUSH2 0x2D37 PUSH1 0x40 DUP4 ADD DUP7 PUSH2 0x2A57 JUMP JUMPDEST PUSH2 0x2D44 PUSH1 0x60 DUP4 ADD DUP6 PUSH2 0x2725 JUMP JUMPDEST PUSH2 0x2D51 PUSH1 0x80 DUP4 ADD DUP5 PUSH2 0x285D JUMP JUMPDEST SWAP7 SWAP6 POP POP POP POP POP POP JUMP JUMPDEST PUSH0 PUSH1 0x20 DUP3 ADD SWAP1 POP DUP2 DUP2 SUB PUSH0 DUP4 ADD MSTORE PUSH2 0x2D73 DUP2 DUP5 PUSH2 0x2A76 JUMP JUMPDEST SWAP1 POP SWAP3 SWAP2 POP POP JUMP JUMPDEST PUSH0 PUSH8 0xFFFFFFFFFFFFFFFF DUP3 GT ISZERO PUSH2 0x2D95 JUMPI PUSH2 0x2D94 PUSH2 0x25A7 JUMP JUMPDEST JUMPDEST PUSH1 0x20 DUP3 MUL SWAP1 POP PUSH1 0x20 DUP2 ADD SWAP1 POP SWAP2 SWAP1 POP JUMP JUMPDEST PUSH0 DUP1 REVERT JUMPDEST PUSH0 PUSH2 0x2DBC PUSH2 0x2DB7 DUP5 PUSH2 0x2D7B JUMP JUMPDEST PUSH2 0x2605 JUMP JUMPDEST SWAP1 POP DUP1 DUP4 DUP3 MSTORE PUSH1 0x20 DUP3 ADD SWAP1 POP PUSH1 0x20 DUP5 MUL DUP4 ADD DUP6 DUP2 GT ISZERO PUSH2 0x2DDF JUMPI PUSH2 0x2DDE PUSH2 0x2DA6 JUMP JUMPDEST JUMPDEST DUP4 JUMPDEST DUP2 DUP2 LT ISZERO PUSH2 0x2E08 JUMPI DUP1 PUSH2 0x2DF4 DUP9 DUP3 PUSH2 0x257B JUMP JUMPDEST DUP5 MSTORE PUSH1 0x20 DUP5 ADD SWAP4 POP POP PUSH1 0x20 DUP2 ADD SWAP1 POP PUSH2 0x2DE1 JUMP JUMPDEST POP POP POP SWAP4 SWAP3 POP POP POP JUMP JUMPDEST PUSH0 DUP3 PUSH1 0x1F DUP4 ADD SLT PUSH2 0x2E26 JUMPI PUSH2 0x2E25 PUSH2 0x258F JUMP JUMPDEST JUMPDEST DUP2 CALLDATALOAD PUSH2 0x2E36 DUP5 DUP3 PUSH1 0x20 DUP7 ADD PUSH2 0x2DAA JUMP JUMPDEST SWAP2 POP POP SWAP3 SWAP2 POP POP JUMP JUMPDEST PUSH0 PUSH8 0xFFFFFFFFFFFFFFFF DUP3 GT ISZERO PUSH2 0x2E59 JUMPI PUSH2 0x2E58 PUSH2 0x25A7 JUMP JUMPDEST JUMPDEST PUSH1 0x20 DUP3 MUL SWAP1 POP PUSH1 0x20 DUP2 ADD SWAP1 POP SWAP2 SWAP1 POP JUMP JUMPDEST PUSH0 PUSH2 0x2E7C PUSH2 0x2E77 DUP5 PUSH2 0x2E3F JUMP JUMPDEST PUSH2 0x2605 JUMP JUMPDEST SWAP1 POP DUP1 DUP4 DUP3 MSTORE PUSH1 0x20 DUP3 ADD SWAP1 POP PUSH1 0x20 DUP5 MUL DUP4 ADD DUP6 DUP2 GT ISZERO PUSH2 0x2E9F JUMPI PUSH2 0x2E9E PUSH2 0x2DA6 JUMP JUMPDEST JUMPDEST DUP4 JUMPDEST DUP2 DUP2 LT ISZERO PUSH2 0x2EE6 JUMPI DUP1 CALLDATALOAD PUSH8 0xFFFFFFFFFFFFFFFF DUP2 GT ISZERO PUSH2 0x2EC4 JUMPI PUSH2 0x2EC3 PUSH2 0x258F JUMP JUMPDEST JUMPDEST DUP1 DUP7 ADD PUSH2 0x2ED1 DUP10 DUP3 PUSH2 0x269E JUMP JUMPDEST DUP6 MSTORE PUSH1 0x20 DUP6 ADD SWAP5 POP POP POP PUSH1 0x20 DUP2 ADD SWAP1 POP PUSH2 0x2EA1 JUMP JUMPDEST POP POP POP SWAP4 SWAP3 POP POP POP JUMP JUMPDEST PUSH0 DUP3 PUSH1 0x1F DUP4 ADD SLT PUSH2 0x2F04 JUMPI PUSH2 0x2F03 PUSH2 0x258F JUMP JUMPDEST JUMPDEST DUP2 CALLDATALOAD PUSH2 0x2F14 DUP5 DUP3 PUSH1 0x20 DUP7 ADD PUSH2 0x2E6A JUMP JUMPDEST SWAP2 POP POP SWAP3 SWAP2 POP POP JUMP JUMPDEST PUSH0 DUP1 PUSH0 DUP1 PUSH1 0x80 DUP6 DUP8 SUB SLT ISZERO PUSH2 0x2F35 JUMPI PUSH2 0x2F34 PUSH2 0x2554 JUMP JUMPDEST JUMPDEST PUSH0 DUP6 ADD CALLDATALOAD PUSH8 0xFFFFFFFFFFFFFFFF DUP2 GT ISZERO PUSH2 0x2F52 JUMPI PUSH2 0x2F51 PUSH2 0x2558 JUMP JUMPDEST JUMPDEST PUSH2 0x2F5E DUP8 DUP3 DUP9 ADD PUSH2 0x2E12 JUMP JUMPDEST SWAP5 POP POP PUSH1 0x20 DUP6 ADD CALLDATALOAD PUSH8 0xFFFFFFFFFFFFFFFF DUP2 GT ISZERO PUSH2 0x2F7F JUMPI PUSH2 0x2F7E PUSH2 0x2558 JUMP JUMPDEST JUMPDEST PUSH2 0x2F8B DUP8 DUP3 DUP9 ADD PUSH2 0x2EF0 JUMP JUMPDEST SWAP4 POP POP PUSH1 0x40 DUP6 ADD CALLDATALOAD PUSH8 0xFFFFFFFFFFFFFFFF DUP2 GT ISZERO PUSH2 0x2FAC JUMPI PUSH2 0x2FAB PUSH2 0x2558 JUMP JUMPDEST JUMPDEST PUSH2 0x2FB8 DUP8 DUP3 DUP9 ADD PUSH2 0x2EF0 JUMP JUMPDEST SWAP3 POP POP PUSH1 0x60 DUP6 ADD CALLDATALOAD PUSH8 0xFFFFFFFFFFFFFFFF DUP2 GT ISZERO PUSH2 0x2FD9 JUMPI PUSH2 0x2FD8 PUSH2 0x2558 JUMP JUMPDEST JUMPDEST PUSH2 0x2FE5 DUP8 DUP3 DUP9 ADD PUSH2 0x269E JUMP JUMPDEST SWAP2 POP POP SWAP3 SWAP6 SWAP2 SWAP5 POP SWAP3 POP JUMP JUMPDEST PUSH32 0x4E6F7420617574686F72697A6564000000000000000000000000000000000000 PUSH0 DUP3 ADD MSTORE POP JUMP JUMPDEST PUSH0 PUSH2 0x3025 PUSH1 0xE DUP4 PUSH2 0x2A66 JUMP JUMPDEST SWAP2 POP PUSH2 0x3030 DUP3 PUSH2 0x2FF1 JUMP JUMPDEST PUSH1 0x20 DUP3 ADD SWAP1 POP SWAP2 SWAP1 POP JUMP JUMPDEST PUSH0 PUSH1 0x20 DUP3 ADD SWAP1 POP DUP2 DUP2 SUB PUSH0 DUP4 ADD MSTORE PUSH2 0x3052 DUP2 PUSH2 0x3019 JUMP JUMPDEST SWAP1 POP SWAP2 SWAP1 POP JUMP JUMPDEST PUSH32 0x426174636820646F65736E742065786973747300000000000000000000000000 PUSH0 DUP3 ADD MSTORE POP JUMP JUMPDEST PUSH0 PUSH2 0x308D PUSH1 0x13 DUP4 PUSH2 0x2A66 JUMP JUMPDEST SWAP2 POP PUSH2 0x3098 DUP3 PUSH2 0x3059 JUMP JUMPDEST PUSH1 0x20 DUP3 ADD SWAP1 POP SWAP2 SWAP1 POP JUMP JUMPDEST PUSH0 PUSH1 0x20 DUP3 ADD SWAP1 POP DUP2 DUP2 SUB PUSH0 DUP4 ADD MSTORE PUSH2 0x30BA DUP2 PUSH2 0x3081 JUMP JUMPDEST SWAP1 POP SWAP2 SWAP1 POP JUMP JUMPDEST PUSH32 0x426174636820616C726561647920726563616C6C656400000000000000000000 PUSH0 DUP3 ADD MSTORE POP JUMP JUMPDEST PUSH0 PUSH2 0x30F5 PUSH1 0x16 DUP4 PUSH2 0x2A66 JUMP JUMPDEST SWAP2 POP PUSH2 0x3100 DUP3 PUSH2 0x30C1 JUMP JUMPDEST PUSH1 0x20 DUP3 ADD SWAP1 POP SWAP2 SWAP1 POP JUMP JUMPDEST PUSH0 PUSH1 0x20 DUP3 ADD SWAP1 POP DUP2 DUP2 SUB PUSH0 DUP4 ADD MSTORE PUSH2 0x3122 DUP2 PUSH2 0x30E9 JUMP JUMPDEST SWAP1 POP SWAP2 SWAP1 POP JUMP JUMPDEST PUSH32 0x426174636820646F65736E742065786973740000000000000000000000000000 PUSH0 DUP3 ADD MSTORE POP JUMP JUMPDEST PUSH0 PUSH2 0x315D PUSH1 0x12 DUP4 PUSH2 0x2A66 JUMP JUMPDEST SWAP2 POP PUSH2 0x3168 DUP3 PUSH2 0x3129 JUMP JUMPDEST PUSH1 0x20 DUP3 ADD SWAP1 POP SWAP2 SWAP1 POP JUMP JUMPDEST PUSH0 PUSH1 0x20 DUP3 ADD SWAP1 POP DUP2 DUP2 SUB PUSH0 DUP4 ADD MSTORE PUSH2 0x318A DUP2 PUSH2 0x3151 JUMP JUMPDEST SWAP1 POP SWAP2 SWAP1 POP JUMP JUMPDEST PUSH32 0x426174636820526563616C6C65642C206F7065726174696F6E2063616E742062 PUSH0 DUP3 ADD MSTORE PUSH32 0x6520646F6E650000000000000000000000000000000000000000000000000000 PUSH1 0x20 DUP3 ADD MSTORE POP JUMP JUMPDEST PUSH0 PUSH2 0x31EB PUSH1 0x26 DUP4 PUSH2 0x2A66 JUMP JUMPDEST SWAP2 POP PUSH2 0x31F6 DUP3 PUSH2 0x3191 JUMP JUMPDEST PUSH1 0x40 DUP3 ADD SWAP1 POP SWAP2 SWAP1 POP JUMP JUMPDEST PUSH0 PUSH1 0x20 DUP3 ADD SWAP1 POP DUP2 DUP2 SUB PUSH0 DUP4 ADD MSTORE PUSH2 0x3218 DUP2 PUSH2 0x31DF JUMP JUMPDEST SWAP1 POP SWAP2 SWAP1 POP JUMP JUMPDEST PUSH32 0x4E487B7100000000000000000000000000000000000000000000000000000000 PUSH0 MSTORE PUSH1 0x32 PUSH1 0x4 MSTORE PUSH1 0x24 PUSH0 REVERT JUMPDEST PUSH32 0x4E487B7100000000000000000000000000000000000000000000000000000000 PUSH0 MSTORE PUSH1 0x22 PUSH1 0x4 MSTORE PUSH1 0x24 PUSH0 REVERT JUMPDEST PUSH0 PUSH1 0x2 DUP3 DIV SWAP1 POP PUSH1 0x1 DUP3 AND DUP1 PUSH2 0x3290 JUMPI PUSH1 0x7F DUP3 AND SWAP2 POP JUMPDEST PUSH1 0x20 DUP3 LT DUP2 SUB PUSH2 0x32A3 JUMPI PUSH2 0x32A2 PUSH2 0x324C JUMP JUMPDEST JUMPDEST POP SWAP2 SWAP1 POP JUMP JUMPDEST PUSH32 0x496E76616C6964206F7065726174696F6E000000000000000000000000000000 PUSH0 DUP3 ADD MSTORE POP JUMP JUMPDEST PUSH0 PUSH2 0x32DD PUSH1 0x11 DUP4 PUSH2 0x2A66 JUMP JUMPDEST SWAP2 POP PUSH2 0x32E8 DUP3 PUSH2 0x32A9 JUMP JUMPDEST PUSH1 0x20 DUP3 ADD SWAP1 POP SWAP2 SWAP1 POP JUMP JUMPDEST PUSH0 PUSH1 0x20 DUP3 ADD SWAP1 POP DUP2 DUP2 SUB PUSH0 DUP4 ADD MSTORE PUSH2 0x330A DUP2 PUSH2 0x32D1 JUMP JUMPDEST SWAP1 POP SWAP2 SWAP1 POP JUMP JUMPDEST PUSH0 DUP2 SWAP1 POP DUP2 PUSH0 MSTORE PUSH1 0x20 PUSH0 KECCAK256 SWAP1 POP SWAP2 SWAP1 POP JUMP JUMPDEST PUSH0 DUP2 SLOAD PUSH2 0x332F DUP2 PUSH2 0x3279 JUMP JUMPDEST PUSH2 0x3339 DUP2 DUP7 PUSH2 0x2A66 JUMP JUMPDEST SWAP5 POP PUSH1 0x1 DUP3 AND PUSH0 DUP2 EQ PUSH2 0x3353 JUMPI PUSH1 0x1 DUP2 EQ PUSH2 0x3369 JUMPI PUSH2 0x339B JUMP JUMPDEST PUSH1 0xFF NOT DUP4 AND DUP7 MSTORE DUP2 ISZERO ISZERO PUSH1 0x20 MUL DUP7 ADD SWAP4 POP PUSH2 0x339B JUMP JUMPDEST PUSH2 0x3372 DUP6 PUSH2 0x3311 JUMP JUMPDEST PUSH0 JUMPDEST DUP4 DUP2 LT ISZERO PUSH2 0x3393 JUMPI DUP2 SLOAD DUP2 DUP10 ADD MSTORE PUSH1 0x1 DUP3 ADD SWAP2 POP PUSH1 0x20 DUP2 ADD SWAP1 POP PUSH2 0x3374 JUMP JUMPDEST DUP1 DUP9 ADD SWAP6 POP POP POP JUMPDEST POP POP POP SWAP3 SWAP2 POP POP JUMP JUMPDEST PUSH0 PUSH1 0x20 DUP3 ADD SWAP1 POP DUP2 DUP2 SUB PUSH0 DUP4 ADD MSTORE PUSH2 0x33BC DUP2 DUP5 PUSH2 0x3323 JUMP JUMPDEST SWAP1 POP SWAP3 SWAP2 POP POP JUMP JUMPDEST PUSH32 0x497420646F65736E742065786973747300000000000000000000000000000000 PUSH0 DUP3 ADD MSTORE POP JUMP JUMPDEST PUSH0 PUSH2 0x33F8 PUSH1 0x10 DUP4 PUSH2 0x2A66 JUMP JUMPDEST SWAP2 POP PUSH2 0x3403 DUP3 PUSH2 0x33C4 JUMP JUMPDEST PUSH1 0x20 DUP3 ADD SWAP1 POP SWAP2 SWAP1 POP JUMP JUMPDEST PUSH0 PUSH1 0x20 DUP3 ADD SWAP1 POP DUP2 DUP2 SUB PUSH0 DUP4 ADD MSTORE PUSH2 0x3425 DUP2 PUSH2 0x33EC JUMP JUMPDEST SWAP1 POP SWAP2 SWAP1 POP JUMP JUMPDEST PUSH32 0x496E76616C69642070726F647563742049440000000000000000000000000000 PUSH0 DUP3 ADD MSTORE POP JUMP JUMPDEST PUSH0 PUSH2 0x3460 PUSH1 0x12 DUP4 PUSH2 0x2A66 JUMP JUMPDEST SWAP2 POP PUSH2 0x346B DUP3 PUSH2 0x342C JUMP JUMPDEST PUSH1 0x20 DUP3 ADD SWAP1 POP SWAP2 SWAP1 POP JUMP JUMPDEST PUSH0 PUSH1 0x20 DUP3 ADD SWAP1 POP DUP2 DUP2 SUB PUSH0 DUP4 ADD MSTORE PUSH2 0x348D DUP2 PUSH2 0x3454 JUMP JUMPDEST SWAP1 POP SWAP2 SWAP1 POP JUMP JUMPDEST PUSH32 0x526563616C6C65642070726F64756374732063616E6E6F74206265207472616E PUSH0 DUP3 ADD MSTORE PUSH32 0x7366657272656400000000000000000000000000000000000000000000000000 PUSH1 0x20 DUP3 ADD MSTORE POP JUMP JUMPDEST PUSH0 PUSH2 0x34EE PUSH1 0x27 DUP4 PUSH2 0x2A66 JUMP JUMPDEST SWAP2 POP PUSH2 0x34F9 DUP3 PUSH2 0x3494 JUMP JUMPDEST PUSH1 0x40 DUP3 ADD SWAP1 POP SWAP2 SWAP1 POP JUMP JUMPDEST PUSH0 PUSH1 0x20 DUP3 ADD SWAP1 POP DUP2 DUP2 SUB PUSH0 DUP4 ADD MSTORE PUSH2 0x351B DUP2 PUSH2 0x34E2 JUMP JUMPDEST SWAP1 POP SWAP2 SWAP1 POP JUMP JUMPDEST PUSH32 0x496E76616C6964206E6577206F776E6572206164647265737300000000000000 PUSH0 DUP3 ADD MSTORE POP JUMP JUMPDEST PUSH0 PUSH2 0x3556 PUSH1 0x19 DUP4 PUSH2 0x2A66 JUMP JUMPDEST SWAP2 POP PUSH2 0x3561 DUP3 PUSH2 0x3522 JUMP JUMPDEST PUSH1 0x20 DUP3 ADD SWAP1 POP SWAP2 SWAP1 POP JUMP JUMPDEST PUSH0 PUSH1 0x20 DUP3 ADD SWAP1 POP DUP2 DUP2 SUB PUSH0 DUP4 ADD MSTORE PUSH2 0x3583 DUP2 PUSH2 0x354A JUMP JUMPDEST SWAP1 POP SWAP2 SWAP1 POP JUMP JUMPDEST PUSH32 0x4E6577206F776E6572206973206E6F7420617574686F72697A65640000000000 PUSH0 DUP3 ADD MSTORE POP JUMP JUMPDEST PUSH0 PUSH2 0x35BE PUSH1 0x1B DUP4 PUSH2 0x2A66 JUMP JUMPDEST SWAP2 POP PUSH2 0x35C9 DUP3 PUSH2 0x358A JUMP JUMPDEST PUSH1 0x20 DUP3 ADD SWAP1 POP SWAP2 SWAP1 POP JUMP JUMPDEST PUSH0 PUSH1 0x20 DUP3 ADD SWAP1 POP DUP2 DUP2 SUB PUSH0 DUP4 ADD MSTORE PUSH2 0x35EB DUP2 PUSH2 0x35B2 JUMP JUMPDEST SWAP1 POP SWAP2 SWAP1 POP JUMP JUMPDEST PUSH32 0x4F6E6C792063757272656E74206F776E65722063616E207472616E7366657200 PUSH0 DUP3 ADD MSTORE POP JUMP JUMPDEST PUSH0 PUSH2 0x3626 PUSH1 0x1F DUP4 PUSH2 0x2A66 JUMP JUMPDEST SWAP2 POP PUSH2 0x3631 DUP3 PUSH2 0x35F2 JUMP JUMPDEST PUSH1 0x20 DUP3 ADD SWAP1 POP SWAP2 SWAP1 POP JUMP JUMPDEST PUSH0 PUSH1 0x20 DUP3 ADD SWAP1 POP DUP2 DUP2 SUB PUSH0 DUP4 ADD MSTORE PUSH2 0x3653 DUP2 PUSH2 0x361A JUMP JUMPDEST SWAP1 POP SWAP2 SWAP1 POP JUMP JUMPDEST PUSH32 0x4E616D652063616E6E6F7420626520656D707479000000000000000000000000 PUSH0 DUP3 ADD MSTORE POP JUMP JUMPDEST PUSH0 PUSH2 0x368E PUSH1 0x14 DUP4 PUSH2 0x2A66 JUMP JUMPDEST SWAP2 POP PUSH2 0x3699 DUP3 PUSH2 0x365A JUMP JUMPDEST PUSH1 0x20 DUP3 ADD SWAP1 POP SWAP2 SWAP1 POP JUMP JUMPDEST PUSH0 PUSH1 0x20 DUP3 ADD SWAP1 POP DUP2 DUP2 SUB PUSH0 DUP4 ADD MSTORE PUSH2 0x36BB DUP2 PUSH2 0x3682 JUMP JUMPDEST SWAP1 POP SWAP2 SWAP1 POP JUMP JUMPDEST PUSH32 0x4465736372697074696F6E2063616E6E6F7420626520656D7074790000000000 PUSH0 DUP3 ADD MSTORE POP JUMP JUMPDEST PUSH0 PUSH2 0x36F6 PUSH1 0x1B DUP4 PUSH2 0x2A66 JUMP JUMPDEST SWAP2 POP PUSH2 0x3701 DUP3 PUSH2 0x36C2 JUMP JUMPDEST PUSH1 0x20 DUP3 ADD SWAP1 POP SWAP2 SWAP1 POP JUMP JUMPDEST PUSH0 PUSH1 0x20 DUP3 ADD SWAP1 POP DUP2 DUP2 SUB PUSH0 DUP4 ADD MSTORE PUSH2 0x3723 DUP2 PUSH2 0x36EA JUMP JUMPDEST SWAP1 POP SWAP2 SWAP1 POP JUMP JUMPDEST PUSH32 0x4E487B7100000000000000000000000000000000000000000000000000000000 PUSH0 MSTORE PUSH1 0x11 PUSH1 0x4 MSTORE PUSH1 0x24 PUSH0 REVERT JUMPDEST PUSH0 PUSH2 0x3761 DUP3 PUSH2 0x255C JUMP JUMPDEST SWAP2 POP PUSH32 0xFFFFFFFFFFFFFFFFFFFFFFFFFFFFFFFFFFFFFFFFFFFFFFFFFFFFFFFFFFFFFFFF DUP3 SUB PUSH2 0x3793 JUMPI PUSH2 0x3792 PUSH2 0x372A JUMP JUMPDEST JUMPDEST PUSH1 0x1 DUP3 ADD SWAP1 POP SWAP2 SWAP1 POP JUMP JUMPDEST PUSH0 PUSH1 0x20 PUSH1 0x1F DUP4 ADD DIV SWAP1 POP SWAP2 SWAP1 POP JUMP JUMPDEST PUSH0 DUP3 DUP3 SHL SWAP1 POP SWAP3 SWAP2 POP POP JUMP JUMPDEST PUSH0 PUSH1 0x8 DUP4 MUL PUSH2 0x37E8 PUSH32 0xFFFFFFFFFFFFFFFFFFFFFFFFFFFFFFFFFFFFFFFFFFFFFFFFFFFFFFFFFFFFFFFF DUP3 PUSH2 0x37AD JUMP JUMPDEST PUSH2 0x37F2 DUP7 DUP4 PUSH2 0x37AD JUMP JUMPDEST SWAP6 POP DUP1 NOT DUP5 AND SWAP4 POP DUP1 DUP7 AND DUP5 OR SWAP3 POP POP POP SWAP4 SWAP3 POP POP POP JUMP JUMPDEST PUSH0 DUP2 SWAP1 POP SWAP2 SWAP1 POP JUMP JUMPDEST PUSH0 PUSH2 0x382D PUSH2 0x3828 PUSH2 0x3823 DUP5 PUSH2 0x255C JUMP JUMPDEST PUSH2 0x380A JUMP JUMPDEST PUSH2 0x255C JUMP JUMPDEST SWAP1 POP SWAP2 SWAP1 POP JUMP JUMPDEST PUSH0 DUP2 SWAP1 POP SWAP2 SWAP1 POP JUMP JUMPDEST PUSH2 0x3846 DUP4 PUSH2 0x3813 JUMP JUMPDEST PUSH2 0x385A PUSH2 0x3852 DUP3 PUSH2 0x3834 JUMP JUMPDEST DUP5 DUP5 SLOAD PUSH2 0x37B9 JUMP JUMPDEST DUP3 SSTORE POP POP POP POP JUMP JUMPDEST PUSH0 SWAP1 JUMP JUMPDEST PUSH2 0x386E PUSH2 0x3862 JUMP JUMPDEST PUSH2 0x3879 DUP2 DUP5 DUP5 PUSH2 0x383D JUMP JUMPDEST POP POP POP JUMP JUMPDEST JUMPDEST DUP2 DUP2 LT ISZERO PUSH2 0x389C JUMPI PUSH2 0x3891 PUSH0 DUP3 PUSH2 0x3866 JUMP JUMPDEST PUSH1 0x1 DUP2 ADD SWAP1 POP PUSH2 0x387F JUMP JUMPDEST POP POP JUMP JUMPDEST PUSH1 0x1F DUP3 GT ISZERO PUSH2 0x38E1 JUMPI PUSH2 0x38B2 DUP2 PUSH2 0x3311 JUMP JUMPDEST PUSH2 0x38BB DUP5 PUSH2 0x379E JUMP JUMPDEST DUP2 ADD PUSH1 0x20 DUP6 LT ISZERO PUSH2 0x38CA JUMPI DUP2 SWAP1 POP JUMPDEST PUSH2 0x38DE PUSH2 0x38D6 DUP6 PUSH2 0x379E JUMP JUMPDEST DUP4 ADD DUP3 PUSH2 0x387E JUMP JUMPDEST POP POP JUMPDEST POP POP POP JUMP JUMPDEST PUSH0 DUP3 DUP3 SHR SWAP1 POP SWAP3 SWAP2 POP POP JUMP JUMPDEST PUSH0 PUSH2 0x3901 PUSH0 NOT DUP5 PUSH1 0x8 MUL PUSH2 0x38E6 JUMP JUMPDEST NOT DUP1 DUP4 AND SWAP2 POP POP SWAP3 SWAP2 POP POP JUMP JUMPDEST PUSH0 PUSH2 0x3919 DUP4 DUP4 PUSH2 0x38F2 JUMP JUMPDEST SWAP2 POP DUP3 PUSH1 0x2 MUL DUP3 OR SWAP1 POP SWAP3 SWAP2 POP POP JUMP JUMPDEST PUSH2 0x3932 DUP3 PUSH2 0x2965 JUMP JUMPDEST PUSH8 0xFFFFFFFFFFFFFFFF DUP2 GT ISZERO PUSH2 0x394B JUMPI PUSH2 0x394A PUSH2 0x25A7 JUMP JUMPDEST JUMPDEST PUSH2 0x3955 DUP3 SLOAD PUSH2 0x3279 JUMP JUMPDEST PUSH2 0x3960 DUP3 DUP3 DUP6 PUSH2 0x38A0 JUMP JUMPDEST PUSH0 PUSH1 0x20 SWAP1 POP PUSH1 0x1F DUP4 GT PUSH1 0x1 DUP2 EQ PUSH2 0x3991 JUMPI PUSH0 DUP5 ISZERO PUSH2 0x397F JUMPI DUP3 DUP8 ADD MLOAD SWAP1 POP JUMPDEST PUSH2 0x3989 DUP6 DUP3 PUSH2 0x390E JUMP JUMPDEST DUP7 SSTORE POP PUSH2 0x39F0 JUMP JUMPDEST PUSH1 0x1F NOT DUP5 AND PUSH2 0x399F DUP7 PUSH2 0x3311 JUMP JUMPDEST PUSH0 JUMPDEST DUP3 DUP2 LT ISZERO PUSH2 0x39C6 JUMPI DUP5 DUP10 ADD MLOAD DUP3 SSTORE PUSH1 0x1 DUP3 ADD SWAP2 POP PUSH1 0x20 DUP6 ADD SWAP5 POP PUSH1 0x20 DUP2 ADD SWAP1 POP PUSH2 0x39A1 JUMP JUMPDEST DUP7 DUP4 LT ISZERO PUSH2 0x39E3 JUMPI DUP5 DUP10 ADD MLOAD PUSH2 0x39DF PUSH1 0x1F DUP10 AND DUP3 PUSH2 0x38F2 JUMP JUMPDEST DUP4 SSTORE POP JUMPDEST PUSH1 0x1 PUSH1 0x2 DUP9 MUL ADD DUP9 SSTORE POP POP POP JUMPDEST POP POP POP POP POP POP JUMP JUMPDEST PUSH32 0x50726F6475637420646F65736E74206578697374730000000000000000000000 PUSH0 DUP3 ADD MSTORE POP JUMP JUMPDEST PUSH0 PUSH2 0x3A2C PUSH1 0x15 DUP4 PUSH2 0x2A66 JUMP JUMPDEST SWAP2 POP PUSH2 0x3A37 DUP3 PUSH2 0x39F8 JUMP JUMPDEST PUSH1 0x20 DUP3 ADD SWAP1 POP SWAP2 SWAP1 POP JUMP JUMPDEST PUSH0 PUSH1 0x20 DUP3 ADD SWAP1 POP DUP2 DUP2 SUB PUSH0 DUP4 ADD MSTORE PUSH2 0x3A59 DUP2 PUSH2 0x3A20 JUMP JUMPDEST SWAP1 POP SWAP2 SWAP1 POP JUMP JUMPDEST PUSH32 0x416C726561647920726563616C6C656400000000000000000000000000000000 PUSH0 DUP3 ADD MSTORE POP JUMP JUMPDEST PUSH0 PUSH2 0x3A94 PUSH1 0x10 DUP4 PUSH2 0x2A66 JUMP JUMPDEST SWAP2 POP PUSH2 0x3A9F DUP3 PUSH2 0x3A60 JUMP JUMPDEST PUSH1 0x20 DUP3 ADD SWAP1 POP SWAP2 SWAP1 POP JUMP JUMPDEST PUSH0 PUSH1 0x20 DUP3 ADD SWAP1 POP DUP2 DUP2 SUB PUSH0 DUP4 ADD MSTORE PUSH2 0x3AC1 DUP2 PUSH2 0x3A88 JUMP JUMPDEST SWAP1 POP SWAP2 SWAP1 POP JUMP JUMPDEST PUSH32 0x4E6F7420746865206F776E657200000000000000000000000000000000000000 PUSH0 DUP3 ADD MSTORE POP JUMP JUMPDEST PUSH0 PUSH2 0x3AFC PUSH1 0xD DUP4 PUSH2 0x2A66 JUMP JUMPDEST SWAP2 POP PUSH2 0x3B07 DUP3 PUSH2 0x3AC8 JUMP JUMPDEST PUSH1 0x20 DUP3 ADD SWAP1 POP SWAP2 SWAP1 POP JUMP JUMPDEST PUSH0 PUSH1 0x20 DUP3 ADD SWAP1 POP DUP2 DUP2 SUB PUSH0 DUP4 ADD MSTORE PUSH2 0x3B29 DUP2 PUSH2 0x3AF0 JUMP JUMPDEST SWAP1 POP SWAP2 SWAP1 POP JUMP JUMPDEST PUSH32 0x496E76616C696420616464726573730000000000000000000000000000000000 PUSH0 DUP3 ADD MSTORE POP JUMP JUMPDEST PUSH0 PUSH2 0x3B64 PUSH1 0xF DUP4 PUSH2 0x2A66 JUMP JUMPDEST SWAP2 POP PUSH2 0x3B6F DUP3 PUSH2 0x3B30 JUMP JUMPDEST PUSH1 0x20 DUP3 ADD SWAP1 POP SWAP2 SWAP1 POP JUMP JUMPDEST PUSH0 PUSH1 0x20 DUP3 ADD SWAP1 POP DUP2 DUP2 SUB PUSH0 DUP4 ADD MSTORE PUSH2 0x3B91 DUP2 PUSH2 0x3B58 JUMP JUMPDEST SWAP1 POP SWAP2 SWAP1 POP JUMP JUMPDEST PUSH32 0x5061727469636970616E7420616C726561647920617574686F72697A65640000 PUSH0 DUP3 ADD MSTORE POP JUMP JUMPDEST PUSH0 PUSH2 0x3BCC PUSH1 0x1E DUP4 PUSH2 0x2A66 JUMP JUMPDEST SWAP2 POP PUSH2 0x3BD7 DUP3 PUSH2 0x3B98 JUMP JUMPDEST PUSH1 0x20 DUP3 ADD SWAP1 POP SWAP2 SWAP1 POP JUMP JUMPDEST PUSH0 PUSH1 0x20 DUP3 ADD SWAP1 POP DUP2 DUP2 SUB PUSH0 DUP4 ADD MSTORE PUSH2 0x3BF9 DUP2 PUSH2 0x3BC0 JUMP JUMPDEST SWAP1 POP SWAP2 SWAP1 POP JUMP JUMPDEST PUSH32 0x4944206C6973742063616E6E6F7420626520656D707479000000000000000000 PUSH0 DUP3 ADD MSTORE POP JUMP JUMPDEST PUSH0 PUSH2 0x3C34 PUSH1 0x17 DUP4 PUSH2 0x2A66 JUMP JUMPDEST SWAP2 POP PUSH2 0x3C3F DUP3 PUSH2 0x3C00 JUMP JUMPDEST PUSH1 0x20 DUP3 ADD SWAP1 POP SWAP2 SWAP1 POP JUMP JUMPDEST PUSH0 PUSH1 0x20 DUP3 ADD SWAP1 POP DUP2 DUP2 SUB PUSH0 DUP4 ADD MSTORE PUSH2 0x3C61 DUP2 PUSH2 0x3C28 JUMP JUMPDEST SWAP1 POP SWAP2 SWAP1 POP JUMP INVALID LOG2 PUSH5 0x6970667358 0x22 SLT KECCAK256 0xDF 0xF SWAP12 MUL PUSH31 0xDC5CD322955F80E3A9081130247162988DB96402422182028C520564736F6C PUSH4 0x4300081A STOP CALLER "
				},
				"gasEstimates": {
					"creation": {
						"codeDepositCost": "3103600",
						"executionCost": "63222",
						"totalCost": "3166822"
					},
					"external": {
						"addParticipant(address)": "27035",
						"authorizeParticipant(address)": "30429",
						"authorizedParticipants(address)": "2900",
						"batchCount()": "2471",
						"batchExists(uint256)": "2860",
						"batches(uint256)": "infinite",
						"createBatch(uint256[],string[],string[],string)": "infinite",
						"getBatch(uint256)": "infinite",
						"getProduct(uint256)": "infinite",
						"operationConvert(uint256)": "infinite",
						"owner()": "2594",
						"processBatch(uint256,address,uint256,string)": "infinite",
						"productCount()": "2513",
						"productExists(uint256)": "infinite",
						"products(uint256)": "infinite",
						"recallBatch(uint256,string)": "infinite",
						"recallProduct(uint256,string)": "infinite",
						"registerProduct(string,string)": "infinite",
						"stateRecalled(uint256)": "infinite",
						"transferProductOwnership(uint256,address)": "62517"
					}
				},
				"methodIdentifiers": {
					"addParticipant(address)": "dfafe10f",
					"authorizeParticipant(address)": "c5f8d584",
					"authorizedParticipants(address)": "8d28230b",
					"batchCount()": "06f13056",
					"batchExists(uint256)": "9ffaa71e",
					"batches(uint256)": "b32c4d8d",
					"createBatch(uint256[],string[],string[],string)": "f5f34413",
					"getBatch(uint256)": "5ac44282",
					"getProduct(uint256)": "b9db15b4",
					"operationConvert(uint256)": "cf9cd669",
					"owner()": "8da5cb5b",
					"processBatch(uint256,address,uint256,string)": "2be5b856",
					"productCount()": "e0f6ef87",
					"productExists(uint256)": "af55ed64",
					"products(uint256)": "7acc0b20",
					"recallBatch(uint256,string)": "04341422",
					"recallProduct(uint256,string)": "9ce0f973",
					"registerProduct(string,string)": "8fbd0dcf",
					"stateRecalled(uint256)": "3c9af587",
					"transferProductOwnership(uint256,address)": "86b0e812"
				}
			},
			"storageLayout": {
				"storage": [
					{
						"astId": 3,
						"contract": "contracts/w6_SupplyChainContract.sol:SupplyChainContract",
						"label": "owner",
						"offset": 0,
						"slot": "0",
						"type": "t_address"
					},
					{
						"astId": 5,
						"contract": "contracts/w6_SupplyChainContract.sol:SupplyChainContract",
						"label": "productCount",
						"offset": 0,
						"slot": "1",
						"type": "t_uint256"
					},
					{
						"astId": 7,
						"contract": "contracts/w6_SupplyChainContract.sol:SupplyChainContract",
						"label": "batchCount",
						"offset": 0,
						"slot": "2",
						"type": "t_uint256"
					},
					{
						"astId": 11,
						"contract": "contracts/w6_SupplyChainContract.sol:SupplyChainContract",
						"label": "authorizedParticipants",
						"offset": 0,
						"slot": "3",
						"type": "t_mapping(t_address,t_bool)"
					},
					{
						"astId": 16,
						"contract": "contracts/w6_SupplyChainContract.sol:SupplyChainContract",
						"label": "products",
						"offset": 0,
						"slot": "4",
						"type": "t_mapping(t_uint256,t_struct(Product)34_storage)"
					},
					{
						"astId": 21,
						"contract": "contracts/w6_SupplyChainContract.sol:SupplyChainContract",
						"label": "batches",
						"offset": 0,
						"slot": "5",
						"type": "t_mapping(t_uint256,t_struct(Batch)54_storage)"
					}
				],
				"types": {
					"t_address": {
						"encoding": "inplace",
						"label": "address",
						"numberOfBytes": "20"
					},
					"t_array(t_string_storage)dyn_storage": {
						"base": "t_string_storage",
						"encoding": "dynamic_array",
						"label": "string[]",
						"numberOfBytes": "32"
					},
					"t_array(t_uint256)dyn_storage": {
						"base": "t_uint256",
						"encoding": "dynamic_array",
						"label": "uint256[]",
						"numberOfBytes": "32"
					},
					"t_bool": {
						"encoding": "inplace",
						"label": "bool",
						"numberOfBytes": "1"
					},
					"t_mapping(t_address,t_bool)": {
						"encoding": "mapping",
						"key": "t_address",
						"label": "mapping(address => bool)",
						"numberOfBytes": "32",
						"value": "t_bool"
					},
					"t_mapping(t_uint256,t_struct(Batch)54_storage)": {
						"encoding": "mapping",
						"key": "t_uint256",
						"label": "mapping(uint256 => struct SupplyChainContract.Batch)",
						"numberOfBytes": "32",
						"value": "t_struct(Batch)54_storage"
					},
					"t_mapping(t_uint256,t_struct(Product)34_storage)": {
						"encoding": "mapping",
						"key": "t_uint256",
						"label": "mapping(uint256 => struct SupplyChainContract.Product)",
						"numberOfBytes": "32",
						"value": "t_struct(Product)34_storage"
					},
					"t_string_storage": {
						"encoding": "bytes",
						"label": "string",
						"numberOfBytes": "32"
					},
					"t_struct(Batch)54_storage": {
						"encoding": "inplace",
						"label": "struct SupplyChainContract.Batch",
						"members": [
							{
								"astId": 37,
								"contract": "contracts/w6_SupplyChainContract.sol:SupplyChainContract",
								"label": "id",
								"offset": 0,
								"slot": "0",
								"type": "t_array(t_uint256)dyn_storage"
							},
							{
								"astId": 40,
								"contract": "contracts/w6_SupplyChainContract.sol:SupplyChainContract",
								"label": "name",
								"offset": 0,
								"slot": "1",
								"type": "t_array(t_string_storage)dyn_storage"
							},
							{
								"astId": 43,
								"contract": "contracts/w6_SupplyChainContract.sol:SupplyChainContract",
								"label": "description",
								"offset": 0,
								"slot": "2",
								"type": "t_array(t_string_storage)dyn_storage"
							},
							{
								"astId": 45,
								"contract": "contracts/w6_SupplyChainContract.sol:SupplyChainContract",
								"label": "currentOwner",
								"offset": 0,
								"slot": "3",
								"type": "t_address"
							},
							{
								"astId": 47,
								"contract": "contracts/w6_SupplyChainContract.sol:SupplyChainContract",
								"label": "timestamp",
								"offset": 0,
								"slot": "4",
								"type": "t_uint256"
							},
							{
								"astId": 49,
								"contract": "contracts/w6_SupplyChainContract.sol:SupplyChainContract",
								"label": "isRecalled",
								"offset": 0,
								"slot": "5",
								"type": "t_bool"
							},
							{
								"astId": 51,
								"contract": "contracts/w6_SupplyChainContract.sol:SupplyChainContract",
								"label": "batchId",
								"offset": 0,
								"slot": "6",
								"type": "t_uint256"
							},
							{
								"astId": 53,
								"contract": "contracts/w6_SupplyChainContract.sol:SupplyChainContract",
								"label": "operation",
								"offset": 0,
								"slot": "7",
								"type": "t_string_storage"
							}
						],
						"numberOfBytes": "256"
					},
					"t_struct(Product)34_storage": {
						"encoding": "inplace",
						"label": "struct SupplyChainContract.Product",
						"members": [
							{
								"astId": 23,
								"contract": "contracts/w6_SupplyChainContract.sol:SupplyChainContract",
								"label": "id",
								"offset": 0,
								"slot": "0",
								"type": "t_uint256"
							},
							{
								"astId": 25,
								"contract": "contracts/w6_SupplyChainContract.sol:SupplyChainContract",
								"label": "name",
								"offset": 0,
								"slot": "1",
								"type": "t_string_storage"
							},
							{
								"astId": 27,
								"contract": "contracts/w6_SupplyChainContract.sol:SupplyChainContract",
								"label": "description",
								"offset": 0,
								"slot": "2",
								"type": "t_string_storage"
							},
							{
								"astId": 29,
								"contract": "contracts/w6_SupplyChainContract.sol:SupplyChainContract",
								"label": "currentOwner",
								"offset": 0,
								"slot": "3",
								"type": "t_address"
							},
							{
								"astId": 31,
								"contract": "contracts/w6_SupplyChainContract.sol:SupplyChainContract",
								"label": "timestamp",
								"offset": 0,
								"slot": "4",
								"type": "t_uint256"
							},
							{
								"astId": 33,
								"contract": "contracts/w6_SupplyChainContract.sol:SupplyChainContract",
								"label": "isRecalled",
								"offset": 0,
								"slot": "5",
								"type": "t_bool"
							}
						],
						"numberOfBytes": "192"
					},
					"t_uint256": {
						"encoding": "inplace",
						"label": "uint256",
						"numberOfBytes": "32"
					}
				}
			},
			"userdoc": {
				"kind": "user",
				"methods": {},
				"version": 1
			}
		}
	}
}