{
	"contracts/w6_SupplyChainContractAsm.sol": {
		"SupplyChainContract": {
			"abi": [
				{
					"inputs": [],
					"stateMutability": "nonpayable",
					"type": "constructor"
				},
				{
					"inputs": [],
					"name": "AlreadyRecalled",
					"type": "error"
				},
				{
					"inputs": [
						{
							"internalType": "string",
							"name": "paramName",
							"type": "string"
						}
					],
					"name": "EmptyParameter",
					"type": "error"
				},
				{
					"inputs": [],
					"name": "InvalidAddress",
					"type": "error"
				},
				{
					"inputs": [
						{
							"internalType": "uint256",
							"name": "productId",
							"type": "uint256"
						},
						{
							"internalType": "address",
							"name": "from",
							"type": "address"
						},
						{
							"internalType": "address",
							"name": "to",
							"type": "address"
						}
					],
					"name": "InvalidOwnershipTransfer",
					"type": "error"
				},
				{
					"inputs": [
						{
							"internalType": "uint256",
							"name": "productId",
							"type": "uint256"
						}
					],
					"name": "InvalidProductId",
					"type": "error"
				},
				{
					"inputs": [
						{
							"internalType": "uint256",
							"name": "productId",
							"type": "uint256"
						}
					],
					"name": "ProductAlreadyExists",
					"type": "error"
				},
				{
					"inputs": [],
					"name": "ProductDoesntExists",
					"type": "error"
				},
				{
					"inputs": [
						{
							"internalType": "address",
							"name": "caller",
							"type": "address"
						}
					],
					"name": "UnauthorizedAccess",
					"type": "error"
				},
				{
					"anonymous": false,
					"inputs": [
						{
							"indexed": true,
							"internalType": "uint256",
							"name": "batchId",
							"type": "uint256"
						},
						{
							"indexed": false,
							"internalType": "string",
							"name": "operation",
							"type": "string"
						}
					],
					"name": "BatchCreation",
					"type": "event"
				},
				{
					"anonymous": false,
					"inputs": [
						{
							"indexed": true,
							"internalType": "uint256",
							"name": "batchId",
							"type": "uint256"
						},
						{
							"indexed": false,
							"internalType": "string",
							"name": "operation",
							"type": "string"
						}
					],
					"name": "BatchProcessed",
					"type": "event"
				},
				{
					"anonymous": false,
					"inputs": [
						{
							"indexed": true,
							"internalType": "uint256",
							"name": "batchId",
							"type": "uint256"
						},
						{
							"indexed": false,
							"internalType": "string",
							"name": "reasons",
							"type": "string"
						}
					],
					"name": "BatchRecalled",
					"type": "event"
				},
				{
					"anonymous": false,
					"inputs": [
						{
							"indexed": false,
							"internalType": "address",
							"name": "oldOwner",
							"type": "address"
						},
						{
							"indexed": false,
							"internalType": "address",
							"name": "newOwner",
							"type": "address"
						}
					],
					"name": "BatchTransferred",
					"type": "event"
				},
				{
					"anonymous": false,
					"inputs": [
						{
							"indexed": true,
							"internalType": "uint256",
							"name": "productID",
							"type": "uint256"
						},
						{
							"indexed": true,
							"internalType": "address",
							"name": "previousowner",
							"type": "address"
						},
						{
							"indexed": true,
							"internalType": "address",
							"name": "newOwner",
							"type": "address"
						}
					],
					"name": "OwnershipTransferred",
					"type": "event"
				},
				{
					"anonymous": false,
					"inputs": [
						{
							"indexed": true,
							"internalType": "address",
							"name": "participant",
							"type": "address"
						}
					],
					"name": "ParticipantAuthorized",
					"type": "event"
				},
				{
					"anonymous": false,
					"inputs": [
						{
							"indexed": true,
							"internalType": "uint256",
							"name": "productID",
							"type": "uint256"
						},
						{
							"indexed": false,
							"internalType": "string",
							"name": "reasons",
							"type": "string"
						}
					],
					"name": "ProductRecalled",
					"type": "event"
				},
				{
					"anonymous": false,
					"inputs": [
						{
							"indexed": true,
							"internalType": "uint256",
							"name": "productId",
							"type": "uint256"
						},
						{
							"indexed": false,
							"internalType": "string",
							"name": "name",
							"type": "string"
						},
						{
							"indexed": true,
							"internalType": "address",
							"name": "owner",
							"type": "address"
						}
					],
					"name": "ProdustRegistered",
					"type": "event"
				},
				{
					"inputs": [
						{
							"internalType": "address",
							"name": "participant",
							"type": "address"
						}
					],
					"name": "authorizeParticipant",
					"outputs": [],
					"stateMutability": "nonpayable",
					"type": "function"
				},
				{
					"inputs": [
						{
							"internalType": "address",
							"name": "",
							"type": "address"
						}
					],
					"name": "authorizedParticipants",
					"outputs": [
						{
							"internalType": "bool",
							"name": "",
							"type": "bool"
						}
					],
					"stateMutability": "view",
					"type": "function"
				},
				{
					"inputs": [],
					"name": "batchCount",
					"outputs": [
						{
							"internalType": "uint256",
							"name": "",
							"type": "uint256"
						}
					],
					"stateMutability": "view",
					"type": "function"
				},
				{
					"inputs": [
						{
							"internalType": "uint256",
							"name": "batchId",
							"type": "uint256"
						}
					],
					"name": "batchExists",
					"outputs": [
						{
							"internalType": "bool",
							"name": "",
							"type": "bool"
						}
					],
					"stateMutability": "view",
					"type": "function"
				},
				{
					"inputs": [
						{
							"internalType": "uint256",
							"name": "",
							"type": "uint256"
						}
					],
					"name": "batches",
					"outputs": [
						{
							"internalType": "address",
							"name": "currentOwner",
							"type": "address"
						},
						{
							"internalType": "uint256",
							"name": "timestamp",
							"type": "uint256"
						},
						{
							"internalType": "bool",
							"name": "isRecalled",
							"type": "bool"
						},
						{
							"internalType": "uint256",
							"name": "batchId",
							"type": "uint256"
						},
						{
							"internalType": "string",
							"name": "operation",
							"type": "string"
						}
					],
					"stateMutability": "view",
					"type": "function"
				},
				{
					"inputs": [
						{
							"internalType": "uint256[]",
							"name": "lst_id",
							"type": "uint256[]"
						},
						{
							"internalType": "string[]",
							"name": "lst_name",
							"type": "string[]"
						},
						{
							"internalType": "string[]",
							"name": "lst_description",
							"type": "string[]"
						},
						{
							"internalType": "string",
							"name": "operation",
							"type": "string"
						}
					],
					"name": "createBatch",
					"outputs": [],
					"stateMutability": "nonpayable",
					"type": "function"
				},
				{
					"inputs": [
						{
							"internalType": "uint256",
							"name": "batchIndex",
							"type": "uint256"
						}
					],
					"name": "getBatch",
					"outputs": [
						{
							"internalType": "uint256[]",
							"name": "id",
							"type": "uint256[]"
						},
						{
							"internalType": "string[]",
							"name": "name",
							"type": "string[]"
						},
						{
							"internalType": "string[]",
							"name": "description",
							"type": "string[]"
						},
						{
							"internalType": "address",
							"name": "currentOwner",
							"type": "address"
						},
						{
							"internalType": "uint256",
							"name": "timestamp",
							"type": "uint256"
						},
						{
							"internalType": "bool",
							"name": "isRecalled",
							"type": "bool"
						},
						{
							"internalType": "uint256",
							"name": "batchId",
							"type": "uint256"
						},
						{
							"internalType": "string",
							"name": "operation",
							"type": "string"
						}
					],
					"stateMutability": "view",
					"type": "function"
				},
				{
					"inputs": [
						{
							"internalType": "uint256",
							"name": "productId",
							"type": "uint256"
						}
					],
					"name": "getProduct",
					"outputs": [
						{
							"internalType": "uint256",
							"name": "id",
							"type": "uint256"
						},
						{
							"internalType": "string",
							"name": "name",
							"type": "string"
						},
						{
							"internalType": "address",
							"name": "currentOwner",
							"type": "address"
						},
						{
							"internalType": "uint256",
							"name": "timestamp",
							"type": "uint256"
						},
						{
							"internalType": "bool",
							"name": "isRecalled",
							"type": "bool"
						}
					],
					"stateMutability": "view",
					"type": "function"
				},
				{
					"inputs": [
						{
							"internalType": "uint256",
							"name": "x",
							"type": "uint256"
						}
					],
					"name": "operationConvert",
					"outputs": [
						{
							"internalType": "string",
							"name": "y",
							"type": "string"
						}
					],
					"stateMutability": "pure",
					"type": "function"
				},
				{
					"inputs": [],
					"name": "owner",
					"outputs": [
						{
							"internalType": "address",
							"name": "",
							"type": "address"
						}
					],
					"stateMutability": "view",
					"type": "function"
				},
				{
					"inputs": [
						{
							"internalType": "uint256",
							"name": "batchId",
							"type": "uint256"
						},
						{
							"internalType": "address",
							"name": "newOwner",
							"type": "address"
						},
						{
							"internalType": "string",
							"name": "operation",
							"type": "string"
						},
						{
							"internalType": "string",
							"name": "reasons",
							"type": "string"
						}
					],
					"name": "processBatch",
					"outputs": [],
					"stateMutability": "nonpayable",
					"type": "function"
				},
				{
					"inputs": [],
					"name": "productCount",
					"outputs": [
						{
							"internalType": "uint256",
							"name": "",
							"type": "uint256"
						}
					],
					"stateMutability": "view",
					"type": "function"
				},
				{
					"inputs": [
						{
							"internalType": "uint256",
							"name": "productId",
							"type": "uint256"
						}
					],
					"name": "productExists",
					"outputs": [
						{
							"internalType": "bool",
							"name": "",
							"type": "bool"
						}
					],
					"stateMutability": "view",
					"type": "function"
				},
				{
					"inputs": [
						{
							"internalType": "uint256",
							"name": "",
							"type": "uint256"
						}
					],
					"name": "products",
					"outputs": [
						{
							"internalType": "uint256",
							"name": "id",
							"type": "uint256"
						},
						{
							"internalType": "string",
							"name": "name",
							"type": "string"
						},
						{
							"internalType": "string",
							"name": "description",
							"type": "string"
						},
						{
							"internalType": "address",
							"name": "currentOwner",
							"type": "address"
						},
						{
							"internalType": "uint256",
							"name": "timestamp",
							"type": "uint256"
						},
						{
							"internalType": "bool",
							"name": "isRecalled",
							"type": "bool"
						}
					],
					"stateMutability": "view",
					"type": "function"
				},
				{
					"inputs": [
						{
							"internalType": "uint256",
							"name": "batchId",
							"type": "uint256"
						},
						{
							"internalType": "string",
							"name": "reasons",
							"type": "string"
						}
					],
					"name": "recallBatch",
					"outputs": [],
					"stateMutability": "nonpayable",
					"type": "function"
				},
				{
					"inputs": [
						{
							"internalType": "uint256",
							"name": "productId",
							"type": "uint256"
						},
						{
							"internalType": "string",
							"name": "reasons",
							"type": "string"
						}
					],
					"name": "recallProduct",
					"outputs": [],
					"stateMutability": "nonpayable",
					"type": "function"
				},
				{
					"inputs": [
						{
							"internalType": "string",
							"name": "name",
							"type": "string"
						},
						{
							"internalType": "string",
							"name": "description",
							"type": "string"
						}
					],
					"name": "registerProduct",
					"outputs": [],
					"stateMutability": "nonpayable",
					"type": "function"
				},
				{
					"inputs": [
						{
							"internalType": "uint256",
							"name": "productId",
							"type": "uint256"
						}
					],
					"name": "stateRecalled",
					"outputs": [
						{
							"internalType": "bool",
							"name": "",
							"type": "bool"
						}
					],
					"stateMutability": "view",
					"type": "function"
				},
				{
					"inputs": [
						{
							"internalType": "uint256",
							"name": "productId",
							"type": "uint256"
						},
						{
							"internalType": "address",
							"name": "newOwner",
							"type": "address"
						}
					],
					"name": "transferProductOwnership",
					"outputs": [],
					"stateMutability": "nonpayable",
					"type": "function"
				}
			],
			"devdoc": {
				"kind": "dev",
				"methods": {},
				"version": 1
			},
			"evm": {
				"assembly": "    /* \"contracts/w6_SupplyChainContractAsm.sol\":57:11886  contract SupplyChainContract{... */\n  mstore(0x40, 0x80)\n    /* \"contracts/w6_SupplyChainContractAsm.sol\":1895:2092  constructor(){... */\n  callvalue\n  dup1\n  iszero\n  tag_1\n  jumpi\n  0x00\n  dup1\n  revert\ntag_1:\n  pop\n    /* \"contracts/w6_SupplyChainContractAsm.sol\":1926:1936  msg.sender */\n  caller\n    /* \"contracts/w6_SupplyChainContractAsm.sol\":1918:1923  owner */\n  0x00\n  dup1\n    /* \"contracts/w6_SupplyChainContractAsm.sol\":1918:1936  owner = msg.sender */\n  0x0100\n  exp\n  dup2\n  sload\n  dup2\n  0xffffffffffffffffffffffffffffffffffffffff\n  mul\n  not\n  and\n  swap1\n  dup4\n  0xffffffffffffffffffffffffffffffffffffffff\n  and\n  mul\n  or\n  swap1\n  sstore\n  pop\n    /* \"contracts/w6_SupplyChainContractAsm.sol\":1961:1962  0 */\n  0x00\n    /* \"contracts/w6_SupplyChainContractAsm.sol\":1946:1958  productCount */\n  0x01\n    /* \"contracts/w6_SupplyChainContractAsm.sol\":1946:1962  productCount = 0 */\n  dup2\n  swap1\n  sstore\n  pop\n    /* \"contracts/w6_SupplyChainContractAsm.sol\":1985:1986  0 */\n  0x00\n    /* \"contracts/w6_SupplyChainContractAsm.sol\":1972:1982  batchCount */\n  0x02\n    /* \"contracts/w6_SupplyChainContractAsm.sol\":1972:1986  batchCount = 0 */\n  dup2\n  swap1\n  sstore\n  pop\n    /* \"contracts/w6_SupplyChainContractAsm.sol\":2033:2037  true */\n  0x01\n    /* \"contracts/w6_SupplyChainContractAsm.sol\":1996:2018  authorizedParticipants */\n  0x03\n    /* \"contracts/w6_SupplyChainContractAsm.sol\":1996:2030  authorizedParticipants[msg.sender] */\n  0x00\n    /* \"contracts/w6_SupplyChainContractAsm.sol\":2019:2029  msg.sender */\n  caller\n    /* \"contracts/w6_SupplyChainContractAsm.sol\":1996:2030  authorizedParticipants[msg.sender] */\n  0xffffffffffffffffffffffffffffffffffffffff\n  and\n  0xffffffffffffffffffffffffffffffffffffffff\n  and\n  dup2\n  mstore\n  0x20\n  add\n  swap1\n  dup2\n  mstore\n  0x20\n  add\n  0x00\n  keccak256\n  0x00\n    /* \"contracts/w6_SupplyChainContractAsm.sol\":1996:2037  authorizedParticipants[msg.sender] = true */\n  0x0100\n  exp\n  dup2\n  sload\n  dup2\n  0xff\n  mul\n  not\n  and\n  swap1\n  dup4\n  iszero\n  iszero\n  mul\n  or\n  swap1\n  sstore\n  pop\n    /* \"contracts/w6_SupplyChainContractAsm.sol\":2074:2084  msg.sender */\n  caller\n    /* \"contracts/w6_SupplyChainContractAsm.sol\":2052:2085  ParticipantAuthorized(msg.sender) */\n  0xffffffffffffffffffffffffffffffffffffffff\n  and\n  0x3cbcbb9ba5a54d0762f39fd455fd2900fbcfcd0e0693e2c87db13043c400b55f\n  mload(0x40)\n  mload(0x40)\n  dup1\n  swap2\n  sub\n  swap1\n  log2\n    /* \"contracts/w6_SupplyChainContractAsm.sol\":57:11886  contract SupplyChainContract{... */\n  dataSize(sub_0)\n  dup1\n  dataOffset(sub_0)\n  0x00\n  codecopy\n  0x00\n  return\nstop\n\nsub_0: assembly {\n        /* \"contracts/w6_SupplyChainContractAsm.sol\":57:11886  contract SupplyChainContract{... */\n      mstore(0x40, 0x80)\n      callvalue\n      dup1\n      iszero\n      tag_1\n      jumpi\n      0x00\n      dup1\n      revert\n    tag_1:\n      pop\n      jumpi(tag_2, lt(calldatasize, 0x04))\n      shr(0xe0, calldataload(0x00))\n      dup1\n      0x8fbd0dcf\n      gt\n      tag_22\n      jumpi\n      dup1\n      0xb9db15b4\n      gt\n      tag_23\n      jumpi\n      dup1\n      0xb9db15b4\n      eq\n      tag_17\n      jumpi\n      dup1\n      0xc5f8d584\n      eq\n      tag_18\n      jumpi\n      dup1\n      0xcf9cd669\n      eq\n      tag_19\n      jumpi\n      dup1\n      0xe0f6ef87\n      eq\n      tag_20\n      jumpi\n      dup1\n      0xf5f34413\n      eq\n      tag_21\n      jumpi\n      jump(tag_2)\n    tag_23:\n      dup1\n      0x8fbd0dcf\n      eq\n      tag_12\n      jumpi\n      dup1\n      0x9ce0f973\n      eq\n      tag_13\n      jumpi\n      dup1\n      0x9ffaa71e\n      eq\n      tag_14\n      jumpi\n      dup1\n      0xaf55ed64\n      eq\n      tag_15\n      jumpi\n      dup1\n      0xb32c4d8d\n      eq\n      tag_16\n      jumpi\n      jump(tag_2)\n    tag_22:\n      dup1\n      0x7acc0b20\n      gt\n      tag_24\n      jumpi\n      dup1\n      0x7acc0b20\n      eq\n      tag_7\n      jumpi\n      dup1\n      0x86734e5b\n      eq\n      tag_8\n      jumpi\n      dup1\n      0x86b0e812\n      eq\n      tag_9\n      jumpi\n      dup1\n      0x8d28230b\n      eq\n      tag_10\n      jumpi\n      dup1\n      0x8da5cb5b\n      eq\n      tag_11\n      jumpi\n      jump(tag_2)\n    tag_24:\n      dup1\n      0x04341422\n      eq\n      tag_3\n      jumpi\n      dup1\n      0x06f13056\n      eq\n      tag_4\n      jumpi\n      dup1\n      0x3c9af587\n      eq\n      tag_5\n      jumpi\n      dup1\n      0x5ac44282\n      eq\n      tag_6\n      jumpi\n    tag_2:\n      0x00\n      dup1\n      revert\n        /* \"contracts/w6_SupplyChainContractAsm.sol\":4782:5427  function recallBatch(uint256 batchId, string memory reasons) public onlyAuthorized { ... */\n    tag_3:\n      tag_25\n      0x04\n      dup1\n      calldatasize\n      sub\n      dup2\n      add\n      swap1\n      tag_26\n      swap2\n      swap1\n      tag_27\n      jump\t// in\n    tag_26:\n      tag_28\n      jump\t// in\n    tag_25:\n      stop\n        /* \"contracts/w6_SupplyChainContractAsm.sol\":208:233  uint256 public batchCount */\n    tag_4:\n      tag_29\n      tag_30\n      jump\t// in\n    tag_29:\n      mload(0x40)\n      tag_31\n      swap2\n      swap1\n      tag_32\n      jump\t// in\n    tag_31:\n      mload(0x40)\n      dup1\n      swap2\n      sub\n      swap1\n      return\n        /* \"contracts/w6_SupplyChainContractAsm.sol\":7356:7644  function stateRecalled(uint256 productId) public view returns (bool){... */\n    tag_5:\n      tag_33\n      0x04\n      dup1\n      calldatasize\n      sub\n      dup2\n      add\n      swap1\n      tag_34\n      swap2\n      swap1\n      tag_35\n      jump\t// in\n    tag_34:\n      tag_36\n      jump\t// in\n    tag_33:\n      mload(0x40)\n      tag_37\n      swap2\n      swap1\n      tag_38\n      jump\t// in\n    tag_37:\n      mload(0x40)\n      dup1\n      swap2\n      sub\n      swap1\n      return\n        /* \"contracts/w6_SupplyChainContractAsm.sol\":6659:7350  function getBatch(uint256 batchIndex) public view returns (... */\n    tag_6:\n      tag_39\n      0x04\n      dup1\n      calldatasize\n      sub\n      dup2\n      add\n      swap1\n      tag_40\n      swap2\n      swap1\n      tag_35\n      jump\t// in\n    tag_40:\n      tag_41\n      jump\t// in\n    tag_39:\n      mload(0x40)\n      tag_42\n      swap9\n      swap8\n      swap7\n      swap6\n      swap5\n      swap4\n      swap3\n      swap2\n      swap1\n      tag_43\n      jump\t// in\n    tag_42:\n      mload(0x40)\n      dup1\n      swap2\n      sub\n      swap1\n      return\n        /* \"contracts/w6_SupplyChainContractAsm.sol\":364:407  mapping(uint256 => Product) public products */\n    tag_7:\n      tag_44\n      0x04\n      dup1\n      calldatasize\n      sub\n      dup2\n      add\n      swap1\n      tag_45\n      swap2\n      swap1\n      tag_35\n      jump\t// in\n    tag_45:\n      tag_46\n      jump\t// in\n    tag_44:\n      mload(0x40)\n      tag_47\n      swap7\n      swap6\n      swap5\n      swap4\n      swap3\n      swap2\n      swap1\n      tag_48\n      jump\t// in\n    tag_47:\n      mload(0x40)\n      dup1\n      swap2\n      sub\n      swap1\n      return\n        /* \"contracts/w6_SupplyChainContractAsm.sol\":9542:11884  function processBatch(uint256 batchId, address newOwner, string memory operation, string memory reasons) public onlyAuthorized {... */\n    tag_8:\n      tag_49\n      0x04\n      dup1\n      calldatasize\n      sub\n      dup2\n      add\n      swap1\n      tag_50\n      swap2\n      swap1\n      tag_51\n      jump\t// in\n    tag_50:\n      tag_52\n      jump\t// in\n    tag_49:\n      stop\n        /* \"contracts/w6_SupplyChainContractAsm.sol\":3460:4309  function transferProductOwnership(uint256 productId, address newOwner) public onlyAuthorized{... */\n    tag_9:\n      tag_53\n      0x04\n      dup1\n      calldatasize\n      sub\n      dup2\n      add\n      swap1\n      tag_54\n      swap2\n      swap1\n      tag_55\n      jump\t// in\n    tag_54:\n      tag_56\n      jump\t// in\n    tag_53:\n      stop\n        /* \"contracts/w6_SupplyChainContractAsm.sol\":277:331  mapping(address => bool) public authorizedParticipants */\n    tag_10:\n      tag_57\n      0x04\n      dup1\n      calldatasize\n      sub\n      dup2\n      add\n      swap1\n      tag_58\n      swap2\n      swap1\n      tag_59\n      jump\t// in\n    tag_58:\n      tag_60\n      jump\t// in\n    tag_57:\n      mload(0x40)\n      tag_61\n      swap2\n      swap1\n      tag_38\n      jump\t// in\n    tag_61:\n      mload(0x40)\n      dup1\n      swap2\n      sub\n      swap1\n      return\n        /* \"contracts/w6_SupplyChainContractAsm.sol\":111:131  address public owner */\n    tag_11:\n      tag_62\n      tag_63\n      jump\t// in\n    tag_62:\n      mload(0x40)\n      tag_64\n      swap2\n      swap1\n      tag_65\n      jump\t// in\n    tag_64:\n      mload(0x40)\n      dup1\n      swap2\n      sub\n      swap1\n      return\n        /* \"contracts/w6_SupplyChainContractAsm.sol\":2785:3454  function registerProduct(string memory name, string memory description) public onlyAuthorized{... */\n    tag_12:\n      tag_66\n      0x04\n      dup1\n      calldatasize\n      sub\n      dup2\n      add\n      swap1\n      tag_67\n      swap2\n      swap1\n      tag_68\n      jump\t// in\n    tag_67:\n      tag_69\n      jump\t// in\n    tag_66:\n      stop\n        /* \"contracts/w6_SupplyChainContractAsm.sol\":5433:6134  function recallProduct(uint256 productId, string memory reasons) public onlyAuthorized { //Verify caller authorization done... */\n    tag_13:\n      tag_70\n      0x04\n      dup1\n      calldatasize\n      sub\n      dup2\n      add\n      swap1\n      tag_71\n      swap2\n      swap1\n      tag_27\n      jump\t// in\n    tag_71:\n      tag_72\n      jump\t// in\n    tag_70:\n      stop\n        /* \"contracts/w6_SupplyChainContractAsm.sol\":4569:4741  function batchExists(uint256 batchId) public view returns (bool) {... */\n    tag_14:\n      tag_73\n      0x04\n      dup1\n      calldatasize\n      sub\n      dup2\n      add\n      swap1\n      tag_74\n      swap2\n      swap1\n      tag_35\n      jump\t// in\n    tag_74:\n      tag_75\n      jump\t// in\n    tag_73:\n      mload(0x40)\n      tag_76\n      swap2\n      swap1\n      tag_38\n      jump\t// in\n    tag_76:\n      mload(0x40)\n      dup1\n      swap2\n      sub\n      swap1\n      return\n        /* \"contracts/w6_SupplyChainContractAsm.sol\":4315:4563  function productExists(uint256 productId) public view returns (bool) {... */\n    tag_15:\n      tag_77\n      0x04\n      dup1\n      calldatasize\n      sub\n      dup2\n      add\n      swap1\n      tag_78\n      swap2\n      swap1\n      tag_35\n      jump\t// in\n    tag_78:\n      tag_79\n      jump\t// in\n    tag_77:\n      mload(0x40)\n      tag_80\n      swap2\n      swap1\n      tag_38\n      jump\t// in\n    tag_80:\n      mload(0x40)\n      dup1\n      swap2\n      sub\n      swap1\n      return\n        /* \"contracts/w6_SupplyChainContractAsm.sol\":413:453  mapping(uint256 => Batch) public batches */\n    tag_16:\n      tag_81\n      0x04\n      dup1\n      calldatasize\n      sub\n      dup2\n      add\n      swap1\n      tag_82\n      swap2\n      swap1\n      tag_35\n      jump\t// in\n    tag_82:\n      tag_83\n      jump\t// in\n    tag_81:\n      mload(0x40)\n      tag_84\n      swap6\n      swap5\n      swap4\n      swap3\n      swap2\n      swap1\n      tag_85\n      jump\t// in\n    tag_84:\n      mload(0x40)\n      dup1\n      swap2\n      sub\n      swap1\n      return\n        /* \"contracts/w6_SupplyChainContractAsm.sol\":6140:6653  function getProduct(uint256 productId) public view returns (... */\n    tag_17:\n      tag_86\n      0x04\n      dup1\n      calldatasize\n      sub\n      dup2\n      add\n      swap1\n      tag_87\n      swap2\n      swap1\n      tag_35\n      jump\t// in\n    tag_87:\n      tag_88\n      jump\t// in\n    tag_86:\n      mload(0x40)\n      tag_89\n      swap6\n      swap5\n      swap4\n      swap3\n      swap2\n      swap1\n      tag_90\n      jump\t// in\n    tag_89:\n      mload(0x40)\n      dup1\n      swap2\n      sub\n      swap1\n      return\n        /* \"contracts/w6_SupplyChainContractAsm.sol\":2452:2779  function authorizeParticipant(address participant) public onlyOwner{... */\n    tag_18:\n      tag_91\n      0x04\n      dup1\n      calldatasize\n      sub\n      dup2\n      add\n      swap1\n      tag_92\n      swap2\n      swap1\n      tag_59\n      jump\t// in\n    tag_92:\n      tag_93\n      jump\t// in\n    tag_91:\n      stop\n        /* \"contracts/w6_SupplyChainContractAsm.sol\":7650:7872  function operationConvert(uint256 x) public pure returns (string memory y){... */\n    tag_19:\n      tag_94\n      0x04\n      dup1\n      calldatasize\n      sub\n      dup2\n      add\n      swap1\n      tag_95\n      swap2\n      swap1\n      tag_35\n      jump\t// in\n    tag_95:\n      tag_96\n      jump\t// in\n    tag_94:\n      mload(0x40)\n      tag_97\n      swap2\n      swap1\n      tag_98\n      jump\t// in\n    tag_97:\n      mload(0x40)\n      dup1\n      swap2\n      sub\n      swap1\n      return\n        /* \"contracts/w6_SupplyChainContractAsm.sol\":157:184  uint256 public productCount */\n    tag_20:\n      tag_99\n      tag_100\n      jump\t// in\n    tag_99:\n      mload(0x40)\n      tag_101\n      swap2\n      swap1\n      tag_32\n      jump\t// in\n    tag_101:\n      mload(0x40)\n      dup1\n      swap2\n      sub\n      swap1\n      return\n        /* \"contracts/w6_SupplyChainContractAsm.sol\":7878:9537  function createBatch(... */\n    tag_21:\n      tag_102\n      0x04\n      dup1\n      calldatasize\n      sub\n      dup2\n      add\n      swap1\n      tag_103\n      swap2\n      swap1\n      tag_104\n      jump\t// in\n    tag_103:\n      tag_105\n      jump\t// in\n    tag_102:\n      stop\n        /* \"contracts/w6_SupplyChainContractAsm.sol\":4782:5427  function recallBatch(uint256 batchId, string memory reasons) public onlyAuthorized { ... */\n    tag_28:\n        /* \"contracts/w6_SupplyChainContractAsm.sol\":2240:2262  authorizedParticipants */\n      0x03\n        /* \"contracts/w6_SupplyChainContractAsm.sol\":2240:2274  authorizedParticipants[msg.sender] */\n      0x00\n        /* \"contracts/w6_SupplyChainContractAsm.sol\":2263:2273  msg.sender */\n      caller\n        /* \"contracts/w6_SupplyChainContractAsm.sol\":2240:2274  authorizedParticipants[msg.sender] */\n      0xffffffffffffffffffffffffffffffffffffffff\n      and\n      0xffffffffffffffffffffffffffffffffffffffff\n      and\n      dup2\n      mstore\n      0x20\n      add\n      swap1\n      dup2\n      mstore\n      0x20\n      add\n      0x00\n      keccak256\n      0x00\n      swap1\n      sload\n      swap1\n      0x0100\n      exp\n      swap1\n      div\n      0xff\n      and\n        /* \"contracts/w6_SupplyChainContractAsm.sol\":2232:2293  require(authorizedParticipants[msg.sender], \"Not authorized\") */\n      tag_107\n      jumpi\n      mload(0x40)\n      0x08c379a000000000000000000000000000000000000000000000000000000000\n      dup2\n      mstore\n      0x04\n      add\n      tag_108\n      swap1\n      tag_109\n      jump\t// in\n    tag_108:\n      mload(0x40)\n      dup1\n      swap2\n      sub\n      swap1\n      revert\n    tag_107:\n        /* \"contracts/w6_SupplyChainContractAsm.sol\":4920:4940  batchExists(batchId) */\n      tag_111\n        /* \"contracts/w6_SupplyChainContractAsm.sol\":4932:4939  batchId */\n      dup3\n        /* \"contracts/w6_SupplyChainContractAsm.sol\":4920:4931  batchExists */\n      tag_75\n        /* \"contracts/w6_SupplyChainContractAsm.sol\":4920:4940  batchExists(batchId) */\n      jump\t// in\n    tag_111:\n        /* \"contracts/w6_SupplyChainContractAsm.sol\":4912:4964  require(batchExists(batchId), \"Batch doesn't exist\") */\n      tag_112\n      jumpi\n      mload(0x40)\n      0x08c379a000000000000000000000000000000000000000000000000000000000\n      dup2\n      mstore\n      0x04\n      add\n      tag_113\n      swap1\n      tag_114\n      jump\t// in\n    tag_113:\n      mload(0x40)\n      dup1\n      swap2\n      sub\n      swap1\n      revert\n    tag_112:\n        /* \"contracts/w6_SupplyChainContractAsm.sol\":4974:4993  Batch storage batch */\n      0x00\n        /* \"contracts/w6_SupplyChainContractAsm.sol\":4996:5003  batches */\n      0x05\n        /* \"contracts/w6_SupplyChainContractAsm.sol\":4996:5012  batches[batchId] */\n      0x00\n        /* \"contracts/w6_SupplyChainContractAsm.sol\":5004:5011  batchId */\n      dup5\n        /* \"contracts/w6_SupplyChainContractAsm.sol\":4996:5012  batches[batchId] */\n      dup2\n      mstore\n      0x20\n      add\n      swap1\n      dup2\n      mstore\n      0x20\n      add\n      0x00\n      keccak256\n        /* \"contracts/w6_SupplyChainContractAsm.sol\":4974:5012  Batch storage batch = batches[batchId] */\n      swap1\n      pop\n        /* \"contracts/w6_SupplyChainContractAsm.sol\":5090:5095  batch */\n      dup1\n        /* \"contracts/w6_SupplyChainContractAsm.sol\":5090:5106  batch.isRecalled */\n      0x05\n      add\n      0x00\n      swap1\n      sload\n      swap1\n      0x0100\n      exp\n      swap1\n      div\n      0xff\n      and\n        /* \"contracts/w6_SupplyChainContractAsm.sol\":5089:5106  !batch.isRecalled */\n      iszero\n        /* \"contracts/w6_SupplyChainContractAsm.sol\":5081:5133  require(!batch.isRecalled, \"Batch already recalled\") */\n      tag_115\n      jumpi\n      mload(0x40)\n      0x08c379a000000000000000000000000000000000000000000000000000000000\n      dup2\n      mstore\n      0x04\n      add\n      tag_116\n      swap1\n      tag_117\n      jump\t// in\n    tag_116:\n      mload(0x40)\n      dup1\n      swap2\n      sub\n      swap1\n      revert\n    tag_115:\n        /* \"contracts/w6_SupplyChainContractAsm.sol\":5201:5207  uint i */\n      0x00\n        /* \"contracts/w6_SupplyChainContractAsm.sol\":5196:5353  for (uint i = 0; i < batch.id.length; i++) {... */\n    tag_118:\n        /* \"contracts/w6_SupplyChainContractAsm.sol\":5217:5222  batch */\n      dup2\n        /* \"contracts/w6_SupplyChainContractAsm.sol\":5217:5225  batch.id */\n      0x00\n      add\n        /* \"contracts/w6_SupplyChainContractAsm.sol\":5217:5232  batch.id.length */\n      dup1\n      sload\n      swap1\n      pop\n        /* \"contracts/w6_SupplyChainContractAsm.sol\":5213:5214  i */\n      dup2\n        /* \"contracts/w6_SupplyChainContractAsm.sol\":5213:5232  i < batch.id.length */\n      lt\n        /* \"contracts/w6_SupplyChainContractAsm.sol\":5196:5353  for (uint i = 0; i < batch.id.length; i++) {... */\n      iszero\n      tag_119\n      jumpi\n        /* \"contracts/w6_SupplyChainContractAsm.sol\":5307:5342  recallProduct(batch.id[i], reasons) */\n      tag_121\n        /* \"contracts/w6_SupplyChainContractAsm.sol\":5321:5326  batch */\n      dup3\n        /* \"contracts/w6_SupplyChainContractAsm.sol\":5321:5329  batch.id */\n      0x00\n      add\n        /* \"contracts/w6_SupplyChainContractAsm.sol\":5330:5331  i */\n      dup3\n        /* \"contracts/w6_SupplyChainContractAsm.sol\":5321:5332  batch.id[i] */\n      dup2\n      sload\n      dup2\n      lt\n      tag_122\n      jumpi\n      tag_123\n      tag_124\n      jump\t// in\n    tag_123:\n    tag_122:\n      swap1\n      0x00\n      mstore\n      keccak256(0x00, 0x20)\n      add\n      sload\n        /* \"contracts/w6_SupplyChainContractAsm.sol\":5334:5341  reasons */\n      dup5\n        /* \"contracts/w6_SupplyChainContractAsm.sol\":5307:5320  recallProduct */\n      tag_72\n        /* \"contracts/w6_SupplyChainContractAsm.sol\":5307:5342  recallProduct(batch.id[i], reasons) */\n      jump\t// in\n    tag_121:\n        /* \"contracts/w6_SupplyChainContractAsm.sol\":5234:5237  i++ */\n      dup1\n      dup1\n      0x01\n      add\n      swap2\n      pop\n      pop\n        /* \"contracts/w6_SupplyChainContractAsm.sol\":5196:5353  for (uint i = 0; i < batch.id.length; i++) {... */\n      jump(tag_118)\n    tag_119:\n      pop\n        /* \"contracts/w6_SupplyChainContractAsm.sol\":5416:5420  true */\n      0x01\n        /* \"contracts/w6_SupplyChainContractAsm.sol\":5397:5402  batch */\n      dup2\n        /* \"contracts/w6_SupplyChainContractAsm.sol\":5397:5413  batch.isRecalled */\n      0x05\n      add\n      0x00\n        /* \"contracts/w6_SupplyChainContractAsm.sol\":5397:5420  batch.isRecalled = true */\n      0x0100\n      exp\n      dup2\n      sload\n      dup2\n      0xff\n      mul\n      not\n      and\n      swap1\n      dup4\n      iszero\n      iszero\n      mul\n      or\n      swap1\n      sstore\n      pop\n        /* \"contracts/w6_SupplyChainContractAsm.sol\":4865:5427  { ... */\n      pop\n        /* \"contracts/w6_SupplyChainContractAsm.sol\":4782:5427  function recallBatch(uint256 batchId, string memory reasons) public onlyAuthorized { ... */\n      pop\n      pop\n      jump\t// out\n        /* \"contracts/w6_SupplyChainContractAsm.sol\":208:233  uint256 public batchCount */\n    tag_30:\n      sload(0x02)\n      dup2\n      jump\t// out\n        /* \"contracts/w6_SupplyChainContractAsm.sol\":7356:7644  function stateRecalled(uint256 productId) public view returns (bool){... */\n    tag_36:\n        /* \"contracts/w6_SupplyChainContractAsm.sol\":7419:7423  bool */\n      0x00\n        /* \"contracts/w6_SupplyChainContractAsm.sol\":7442:7466  productExists(productId) */\n      tag_127\n        /* \"contracts/w6_SupplyChainContractAsm.sol\":7456:7465  productId */\n      dup3\n        /* \"contracts/w6_SupplyChainContractAsm.sol\":7442:7455  productExists */\n      tag_79\n        /* \"contracts/w6_SupplyChainContractAsm.sol\":7442:7466  productExists(productId) */\n      jump\t// in\n    tag_127:\n        /* \"contracts/w6_SupplyChainContractAsm.sol\":7434:7487  require(productExists(productId), \"It doesnt exists\") */\n      tag_128\n      jumpi\n      mload(0x40)\n      0x08c379a000000000000000000000000000000000000000000000000000000000\n      dup2\n      mstore\n      0x04\n      add\n      tag_129\n      swap1\n      tag_130\n      jump\t// in\n    tag_129:\n      mload(0x40)\n      dup1\n      swap2\n      sub\n      swap1\n      revert\n    tag_128:\n        /* \"contracts/w6_SupplyChainContractAsm.sol\":7497:7519  Product memory product */\n      0x00\n        /* \"contracts/w6_SupplyChainContractAsm.sol\":7522:7530  products */\n      0x04\n        /* \"contracts/w6_SupplyChainContractAsm.sol\":7522:7541  products[productId] */\n      0x00\n        /* \"contracts/w6_SupplyChainContractAsm.sol\":7531:7540  productId */\n      dup5\n        /* \"contracts/w6_SupplyChainContractAsm.sol\":7522:7541  products[productId] */\n      dup2\n      mstore\n      0x20\n      add\n      swap1\n      dup2\n      mstore\n      0x20\n      add\n      0x00\n      keccak256\n        /* \"contracts/w6_SupplyChainContractAsm.sol\":7497:7541  Product memory product = products[productId] */\n      mload(0x40)\n      dup1\n      0xc0\n      add\n      0x40\n      mstore\n      swap1\n      dup2\n      0x00\n      dup3\n      add\n      sload\n      dup2\n      mstore\n      0x20\n      add\n      0x01\n      dup3\n      add\n      dup1\n      sload\n      tag_131\n      swap1\n      tag_132\n      jump\t// in\n    tag_131:\n      dup1\n      0x1f\n      add\n      0x20\n      dup1\n      swap2\n      div\n      mul\n      0x20\n      add\n      mload(0x40)\n      swap1\n      dup2\n      add\n      0x40\n      mstore\n      dup1\n      swap3\n      swap2\n      swap1\n      dup2\n      dup2\n      mstore\n      0x20\n      add\n      dup3\n      dup1\n      sload\n      tag_133\n      swap1\n      tag_132\n      jump\t// in\n    tag_133:\n      dup1\n      iszero\n      tag_134\n      jumpi\n      dup1\n      0x1f\n      lt\n      tag_135\n      jumpi\n      0x0100\n      dup1\n      dup4\n      sload\n      div\n      mul\n      dup4\n      mstore\n      swap2\n      0x20\n      add\n      swap2\n      jump(tag_134)\n    tag_135:\n      dup3\n      add\n      swap2\n      swap1\n      0x00\n      mstore\n      keccak256(0x00, 0x20)\n      swap1\n    tag_136:\n      dup2\n      sload\n      dup2\n      mstore\n      swap1\n      0x01\n      add\n      swap1\n      0x20\n      add\n      dup1\n      dup4\n      gt\n      tag_136\n      jumpi\n      dup3\n      swap1\n      sub\n      0x1f\n      and\n      dup3\n      add\n      swap2\n    tag_134:\n      pop\n      pop\n      pop\n      pop\n      pop\n      dup2\n      mstore\n      0x20\n      add\n      0x02\n      dup3\n      add\n      dup1\n      sload\n      tag_137\n      swap1\n      tag_132\n      jump\t// in\n    tag_137:\n      dup1\n      0x1f\n      add\n      0x20\n      dup1\n      swap2\n      div\n      mul\n      0x20\n      add\n      mload(0x40)\n      swap1\n      dup2\n      add\n      0x40\n      mstore\n      dup1\n      swap3\n      swap2\n      swap1\n      dup2\n      dup2\n      mstore\n      0x20\n      add\n      dup3\n      dup1\n      sload\n      tag_138\n      swap1\n      tag_132\n      jump\t// in\n    tag_138:\n      dup1\n      iszero\n      tag_139\n      jumpi\n      dup1\n      0x1f\n      lt\n      tag_140\n      jumpi\n      0x0100\n      dup1\n      dup4\n      sload\n      div\n      mul\n      dup4\n      mstore\n      swap2\n      0x20\n      add\n      swap2\n      jump(tag_139)\n    tag_140:\n      dup3\n      add\n      swap2\n      swap1\n      0x00\n      mstore\n      keccak256(0x00, 0x20)\n      swap1\n    tag_141:\n      dup2\n      sload\n      dup2\n      mstore\n      swap1\n      0x01\n      add\n      swap1\n      0x20\n      add\n      dup1\n      dup4\n      gt\n      tag_141\n      jumpi\n      dup3\n      swap1\n      sub\n      0x1f\n      and\n      dup3\n      add\n      swap2\n    tag_139:\n      pop\n      pop\n      pop\n      pop\n      pop\n      dup2\n      mstore\n      0x20\n      add\n      0x03\n      dup3\n      add\n      0x00\n      swap1\n      sload\n      swap1\n      0x0100\n      exp\n      swap1\n      div\n      0xffffffffffffffffffffffffffffffffffffffff\n      and\n      0xffffffffffffffffffffffffffffffffffffffff\n      and\n      0xffffffffffffffffffffffffffffffffffffffff\n      and\n      dup2\n      mstore\n      0x20\n      add\n      0x04\n      dup3\n      add\n      sload\n      dup2\n      mstore\n      0x20\n      add\n      0x05\n      dup3\n      add\n      0x00\n      swap1\n      sload\n      swap1\n      0x0100\n      exp\n      swap1\n      div\n      0xff\n      and\n      iszero\n      iszero\n      iszero\n      iszero\n      dup2\n      mstore\n      pop\n      pop\n      swap1\n      pop\n        /* \"contracts/w6_SupplyChainContractAsm.sol\":7609:7616  product */\n      dup1\n        /* \"contracts/w6_SupplyChainContractAsm.sol\":7609:7627  product.isRecalled */\n      0xa0\n      add\n      mload\n        /* \"contracts/w6_SupplyChainContractAsm.sol\":7588:7637  return (... */\n      swap2\n      pop\n      pop\n        /* \"contracts/w6_SupplyChainContractAsm.sol\":7356:7644  function stateRecalled(uint256 productId) public view returns (bool){... */\n      swap2\n      swap1\n      pop\n      jump\t// out\n        /* \"contracts/w6_SupplyChainContractAsm.sol\":6659:7350  function getBatch(uint256 batchIndex) public view returns (... */\n    tag_41:\n        /* \"contracts/w6_SupplyChainContractAsm.sol\":6727:6746  uint256[] memory id */\n      0x60\n        /* \"contracts/w6_SupplyChainContractAsm.sol\":6756:6776  string[] memory name */\n      dup1\n        /* \"contracts/w6_SupplyChainContractAsm.sol\":6786:6813  string[] memory description */\n      0x60\n        /* \"contracts/w6_SupplyChainContractAsm.sol\":6823:6843  address currentOwner */\n      0x00\n        /* \"contracts/w6_SupplyChainContractAsm.sol\":6853:6870  uint256 timestamp */\n      dup1\n        /* \"contracts/w6_SupplyChainContractAsm.sol\":6880:6895  bool isRecalled */\n      0x00\n        /* \"contracts/w6_SupplyChainContractAsm.sol\":6905:6920  uint256 batchId */\n      dup1\n        /* \"contracts/w6_SupplyChainContractAsm.sol\":6930:6953  string memory operation */\n      0x60\n        /* \"contracts/w6_SupplyChainContractAsm.sol\":7006:7024  Batch memory batch */\n      0x00\n        /* \"contracts/w6_SupplyChainContractAsm.sol\":7027:7034  batches */\n      0x05\n        /* \"contracts/w6_SupplyChainContractAsm.sol\":7027:7046  batches[batchIndex] */\n      0x00\n        /* \"contracts/w6_SupplyChainContractAsm.sol\":7035:7045  batchIndex */\n      dup12\n        /* \"contracts/w6_SupplyChainContractAsm.sol\":7027:7046  batches[batchIndex] */\n      dup2\n      mstore\n      0x20\n      add\n      swap1\n      dup2\n      mstore\n      0x20\n      add\n      0x00\n      keccak256\n        /* \"contracts/w6_SupplyChainContractAsm.sol\":7006:7046  Batch memory batch = batches[batchIndex] */\n      mload(0x40)\n      dup1\n      0x0100\n      add\n      0x40\n      mstore\n      swap1\n      dup2\n      0x00\n      dup3\n      add\n      dup1\n      sload\n      dup1\n      0x20\n      mul\n      0x20\n      add\n      mload(0x40)\n      swap1\n      dup2\n      add\n      0x40\n      mstore\n      dup1\n      swap3\n      swap2\n      swap1\n      dup2\n      dup2\n      mstore\n      0x20\n      add\n      dup3\n      dup1\n      sload\n      dup1\n      iszero\n      tag_143\n      jumpi\n      0x20\n      mul\n      dup3\n      add\n      swap2\n      swap1\n      0x00\n      mstore\n      keccak256(0x00, 0x20)\n      swap1\n    tag_144:\n      dup2\n      sload\n      dup2\n      mstore\n      0x20\n      add\n      swap1\n      0x01\n      add\n      swap1\n      dup1\n      dup4\n      gt\n      tag_144\n      jumpi\n    tag_143:\n      pop\n      pop\n      pop\n      pop\n      pop\n      dup2\n      mstore\n      0x20\n      add\n      0x01\n      dup3\n      add\n      dup1\n      sload\n      dup1\n      0x20\n      mul\n      0x20\n      add\n      mload(0x40)\n      swap1\n      dup2\n      add\n      0x40\n      mstore\n      dup1\n      swap3\n      swap2\n      swap1\n      dup2\n      dup2\n      mstore\n      0x20\n      add\n      0x00\n      swap1\n    tag_145:\n      dup3\n      dup3\n      lt\n      iszero\n      tag_146\n      jumpi\n      dup4\n      dup3\n      swap1\n      0x00\n      mstore\n      keccak256(0x00, 0x20)\n      add\n      dup1\n      sload\n      tag_148\n      swap1\n      tag_132\n      jump\t// in\n    tag_148:\n      dup1\n      0x1f\n      add\n      0x20\n      dup1\n      swap2\n      div\n      mul\n      0x20\n      add\n      mload(0x40)\n      swap1\n      dup2\n      add\n      0x40\n      mstore\n      dup1\n      swap3\n      swap2\n      swap1\n      dup2\n      dup2\n      mstore\n      0x20\n      add\n      dup3\n      dup1\n      sload\n      tag_149\n      swap1\n      tag_132\n      jump\t// in\n    tag_149:\n      dup1\n      iszero\n      tag_150\n      jumpi\n      dup1\n      0x1f\n      lt\n      tag_151\n      jumpi\n      0x0100\n      dup1\n      dup4\n      sload\n      div\n      mul\n      dup4\n      mstore\n      swap2\n      0x20\n      add\n      swap2\n      jump(tag_150)\n    tag_151:\n      dup3\n      add\n      swap2\n      swap1\n      0x00\n      mstore\n      keccak256(0x00, 0x20)\n      swap1\n    tag_152:\n      dup2\n      sload\n      dup2\n      mstore\n      swap1\n      0x01\n      add\n      swap1\n      0x20\n      add\n      dup1\n      dup4\n      gt\n      tag_152\n      jumpi\n      dup3\n      swap1\n      sub\n      0x1f\n      and\n      dup3\n      add\n      swap2\n    tag_150:\n      pop\n      pop\n      pop\n      pop\n      pop\n      dup2\n      mstore\n      0x20\n      add\n      swap1\n      0x01\n      add\n      swap1\n      jump(tag_145)\n    tag_146:\n      pop\n      pop\n      pop\n      pop\n      dup2\n      mstore\n      0x20\n      add\n      0x02\n      dup3\n      add\n      dup1\n      sload\n      dup1\n      0x20\n      mul\n      0x20\n      add\n      mload(0x40)\n      swap1\n      dup2\n      add\n      0x40\n      mstore\n      dup1\n      swap3\n      swap2\n      swap1\n      dup2\n      dup2\n      mstore\n      0x20\n      add\n      0x00\n      swap1\n    tag_153:\n      dup3\n      dup3\n      lt\n      iszero\n      tag_154\n      jumpi\n      dup4\n      dup3\n      swap1\n      0x00\n      mstore\n      keccak256(0x00, 0x20)\n      add\n      dup1\n      sload\n      tag_156\n      swap1\n      tag_132\n      jump\t// in\n    tag_156:\n      dup1\n      0x1f\n      add\n      0x20\n      dup1\n      swap2\n      div\n      mul\n      0x20\n      add\n      mload(0x40)\n      swap1\n      dup2\n      add\n      0x40\n      mstore\n      dup1\n      swap3\n      swap2\n      swap1\n      dup2\n      dup2\n      mstore\n      0x20\n      add\n      dup3\n      dup1\n      sload\n      tag_157\n      swap1\n      tag_132\n      jump\t// in\n    tag_157:\n      dup1\n      iszero\n      tag_158\n      jumpi\n      dup1\n      0x1f\n      lt\n      tag_159\n      jumpi\n      0x0100\n      dup1\n      dup4\n      sload\n      div\n      mul\n      dup4\n      mstore\n      swap2\n      0x20\n      add\n      swap2\n      jump(tag_158)\n    tag_159:\n      dup3\n      add\n      swap2\n      swap1\n      0x00\n      mstore\n      keccak256(0x00, 0x20)\n      swap1\n    tag_160:\n      dup2\n      sload\n      dup2\n      mstore\n      swap1\n      0x01\n      add\n      swap1\n      0x20\n      add\n      dup1\n      dup4\n      gt\n      tag_160\n      jumpi\n      dup3\n      swap1\n      sub\n      0x1f\n      and\n      dup3\n      add\n      swap2\n    tag_158:\n      pop\n      pop\n      pop\n      pop\n      pop\n      dup2\n      mstore\n      0x20\n      add\n      swap1\n      0x01\n      add\n      swap1\n      jump(tag_153)\n    tag_154:\n      pop\n      pop\n      pop\n      pop\n      dup2\n      mstore\n      0x20\n      add\n      0x03\n      dup3\n      add\n      0x00\n      swap1\n      sload\n      swap1\n      0x0100\n      exp\n      swap1\n      div\n      0xffffffffffffffffffffffffffffffffffffffff\n      and\n      0xffffffffffffffffffffffffffffffffffffffff\n      and\n      0xffffffffffffffffffffffffffffffffffffffff\n      and\n      dup2\n      mstore\n      0x20\n      add\n      0x04\n      dup3\n      add\n      sload\n      dup2\n      mstore\n      0x20\n      add\n      0x05\n      dup3\n      add\n      0x00\n      swap1\n      sload\n      swap1\n      0x0100\n      exp\n      swap1\n      div\n      0xff\n      and\n      iszero\n      iszero\n      iszero\n      iszero\n      dup2\n      mstore\n      0x20\n      add\n      0x06\n      dup3\n      add\n      sload\n      dup2\n      mstore\n      0x20\n      add\n      0x07\n      dup3\n      add\n      dup1\n      sload\n      tag_161\n      swap1\n      tag_132\n      jump\t// in\n    tag_161:\n      dup1\n      0x1f\n      add\n      0x20\n      dup1\n      swap2\n      div\n      mul\n      0x20\n      add\n      mload(0x40)\n      swap1\n      dup2\n      add\n      0x40\n      mstore\n      dup1\n      swap3\n      swap2\n      swap1\n      dup2\n      dup2\n      mstore\n      0x20\n      add\n      dup3\n      dup1\n      sload\n      tag_162\n      swap1\n      tag_132\n      jump\t// in\n    tag_162:\n      dup1\n      iszero\n      tag_163\n      jumpi\n      dup1\n      0x1f\n      lt\n      tag_164\n      jumpi\n      0x0100\n      dup1\n      dup4\n      sload\n      div\n      mul\n      dup4\n      mstore\n      swap2\n      0x20\n      add\n      swap2\n      jump(tag_163)\n    tag_164:\n      dup3\n      add\n      swap2\n      swap1\n      0x00\n      mstore\n      keccak256(0x00, 0x20)\n      swap1\n    tag_165:\n      dup2\n      sload\n      dup2\n      mstore\n      swap1\n      0x01\n      add\n      swap1\n      0x20\n      add\n      dup1\n      dup4\n      gt\n      tag_165\n      jumpi\n      dup3\n      swap1\n      sub\n      0x1f\n      and\n      dup3\n      add\n      swap2\n    tag_163:\n      pop\n      pop\n      pop\n      pop\n      pop\n      dup2\n      mstore\n      pop\n      pop\n      swap1\n      pop\n        /* \"contracts/w6_SupplyChainContractAsm.sol\":7123:7128  batch */\n      dup1\n        /* \"contracts/w6_SupplyChainContractAsm.sol\":7123:7131  batch.id */\n      0x00\n      add\n      mload\n        /* \"contracts/w6_SupplyChainContractAsm.sol\":7145:7150  batch */\n      dup2\n        /* \"contracts/w6_SupplyChainContractAsm.sol\":7145:7155  batch.name */\n      0x20\n      add\n      mload\n        /* \"contracts/w6_SupplyChainContractAsm.sol\":7169:7174  batch */\n      dup3\n        /* \"contracts/w6_SupplyChainContractAsm.sol\":7169:7186  batch.description */\n      0x40\n      add\n      mload\n        /* \"contracts/w6_SupplyChainContractAsm.sol\":7200:7205  batch */\n      dup4\n        /* \"contracts/w6_SupplyChainContractAsm.sol\":7200:7218  batch.currentOwner */\n      0x60\n      add\n      mload\n        /* \"contracts/w6_SupplyChainContractAsm.sol\":7232:7237  batch */\n      dup5\n        /* \"contracts/w6_SupplyChainContractAsm.sol\":7232:7247  batch.timestamp */\n      0x80\n      add\n      mload\n        /* \"contracts/w6_SupplyChainContractAsm.sol\":7261:7266  batch */\n      dup6\n        /* \"contracts/w6_SupplyChainContractAsm.sol\":7261:7277  batch.isRecalled */\n      0xa0\n      add\n      mload\n        /* \"contracts/w6_SupplyChainContractAsm.sol\":7291:7296  batch */\n      dup7\n        /* \"contracts/w6_SupplyChainContractAsm.sol\":7291:7304  batch.batchId */\n      0xc0\n      add\n      mload\n        /* \"contracts/w6_SupplyChainContractAsm.sol\":7318:7323  batch */\n      dup8\n        /* \"contracts/w6_SupplyChainContractAsm.sol\":7318:7333  batch.operation */\n      0xe0\n      add\n      mload\n        /* \"contracts/w6_SupplyChainContractAsm.sol\":7102:7343  return (... */\n      swap9\n      pop\n      swap9\n      pop\n      swap9\n      pop\n      swap9\n      pop\n      swap9\n      pop\n      swap9\n      pop\n      swap9\n      pop\n      swap9\n      pop\n      pop\n        /* \"contracts/w6_SupplyChainContractAsm.sol\":6659:7350  function getBatch(uint256 batchIndex) public view returns (... */\n      swap2\n      swap4\n      swap6\n      swap8\n      pop\n      swap2\n      swap4\n      swap6\n      swap8\n      jump\t// out\n        /* \"contracts/w6_SupplyChainContractAsm.sol\":364:407  mapping(uint256 => Product) public products */\n    tag_46:\n      mstore(0x20, 0x04)\n      dup1\n      0x00\n      mstore\n      keccak256(0x00, 0x40)\n      0x00\n      swap2\n      pop\n      swap1\n      pop\n      dup1\n      0x00\n      add\n      sload\n      swap1\n      dup1\n      0x01\n      add\n      dup1\n      sload\n      tag_166\n      swap1\n      tag_132\n      jump\t// in\n    tag_166:\n      dup1\n      0x1f\n      add\n      0x20\n      dup1\n      swap2\n      div\n      mul\n      0x20\n      add\n      mload(0x40)\n      swap1\n      dup2\n      add\n      0x40\n      mstore\n      dup1\n      swap3\n      swap2\n      swap1\n      dup2\n      dup2\n      mstore\n      0x20\n      add\n      dup3\n      dup1\n      sload\n      tag_167\n      swap1\n      tag_132\n      jump\t// in\n    tag_167:\n      dup1\n      iszero\n      tag_168\n      jumpi\n      dup1\n      0x1f\n      lt\n      tag_169\n      jumpi\n      0x0100\n      dup1\n      dup4\n      sload\n      div\n      mul\n      dup4\n      mstore\n      swap2\n      0x20\n      add\n      swap2\n      jump(tag_168)\n    tag_169:\n      dup3\n      add\n      swap2\n      swap1\n      0x00\n      mstore\n      keccak256(0x00, 0x20)\n      swap1\n    tag_170:\n      dup2\n      sload\n      dup2\n      mstore\n      swap1\n      0x01\n      add\n      swap1\n      0x20\n      add\n      dup1\n      dup4\n      gt\n      tag_170\n      jumpi\n      dup3\n      swap1\n      sub\n      0x1f\n      and\n      dup3\n      add\n      swap2\n    tag_168:\n      pop\n      pop\n      pop\n      pop\n      pop\n      swap1\n      dup1\n      0x02\n      add\n      dup1\n      sload\n      tag_171\n      swap1\n      tag_132\n      jump\t// in\n    tag_171:\n      dup1\n      0x1f\n      add\n      0x20\n      dup1\n      swap2\n      div\n      mul\n      0x20\n      add\n      mload(0x40)\n      swap1\n      dup2\n      add\n      0x40\n      mstore\n      dup1\n      swap3\n      swap2\n      swap1\n      dup2\n      dup2\n      mstore\n      0x20\n      add\n      dup3\n      dup1\n      sload\n      tag_172\n      swap1\n      tag_132\n      jump\t// in\n    tag_172:\n      dup1\n      iszero\n      tag_173\n      jumpi\n      dup1\n      0x1f\n      lt\n      tag_174\n      jumpi\n      0x0100\n      dup1\n      dup4\n      sload\n      div\n      mul\n      dup4\n      mstore\n      swap2\n      0x20\n      add\n      swap2\n      jump(tag_173)\n    tag_174:\n      dup3\n      add\n      swap2\n      swap1\n      0x00\n      mstore\n      keccak256(0x00, 0x20)\n      swap1\n    tag_175:\n      dup2\n      sload\n      dup2\n      mstore\n      swap1\n      0x01\n      add\n      swap1\n      0x20\n      add\n      dup1\n      dup4\n      gt\n      tag_175\n      jumpi\n      dup3\n      swap1\n      sub\n      0x1f\n      and\n      dup3\n      add\n      swap2\n    tag_173:\n      pop\n      pop\n      pop\n      pop\n      pop\n      swap1\n      dup1\n      0x03\n      add\n      0x00\n      swap1\n      sload\n      swap1\n      0x0100\n      exp\n      swap1\n      div\n      0xffffffffffffffffffffffffffffffffffffffff\n      and\n      swap1\n      dup1\n      0x04\n      add\n      sload\n      swap1\n      dup1\n      0x05\n      add\n      0x00\n      swap1\n      sload\n      swap1\n      0x0100\n      exp\n      swap1\n      div\n      0xff\n      and\n      swap1\n      pop\n      dup7\n      jump\t// out\n        /* \"contracts/w6_SupplyChainContractAsm.sol\":9542:11884  function processBatch(uint256 batchId, address newOwner, string memory operation, string memory reasons) public onlyAuthorized {... */\n    tag_52:\n        /* \"contracts/w6_SupplyChainContractAsm.sol\":2240:2262  authorizedParticipants */\n      0x03\n        /* \"contracts/w6_SupplyChainContractAsm.sol\":2240:2274  authorizedParticipants[msg.sender] */\n      0x00\n        /* \"contracts/w6_SupplyChainContractAsm.sol\":2263:2273  msg.sender */\n      caller\n        /* \"contracts/w6_SupplyChainContractAsm.sol\":2240:2274  authorizedParticipants[msg.sender] */\n      0xffffffffffffffffffffffffffffffffffffffff\n      and\n      0xffffffffffffffffffffffffffffffffffffffff\n      and\n      dup2\n      mstore\n      0x20\n      add\n      swap1\n      dup2\n      mstore\n      0x20\n      add\n      0x00\n      keccak256\n      0x00\n      swap1\n      sload\n      swap1\n      0x0100\n      exp\n      swap1\n      div\n      0xff\n      and\n        /* \"contracts/w6_SupplyChainContractAsm.sol\":2232:2293  require(authorizedParticipants[msg.sender], \"Not authorized\") */\n      tag_177\n      jumpi\n      mload(0x40)\n      0x08c379a000000000000000000000000000000000000000000000000000000000\n      dup2\n      mstore\n      0x04\n      add\n      tag_178\n      swap1\n      tag_109\n      jump\t// in\n    tag_178:\n      mload(0x40)\n      dup1\n      swap2\n      sub\n      swap1\n      revert\n    tag_177:\n        /* \"contracts/w6_SupplyChainContractAsm.sol\":9715:9716  0 */\n      0x00\n        /* \"contracts/w6_SupplyChainContractAsm.sol\":9687:9694  batches */\n      0x05\n        /* \"contracts/w6_SupplyChainContractAsm.sol\":9687:9703  batches[batchId] */\n      0x00\n        /* \"contracts/w6_SupplyChainContractAsm.sol\":9695:9702  batchId */\n      dup7\n        /* \"contracts/w6_SupplyChainContractAsm.sol\":9687:9703  batches[batchId] */\n      dup2\n      mstore\n      0x20\n      add\n      swap1\n      dup2\n      mstore\n      0x20\n      add\n      0x00\n      keccak256\n        /* \"contracts/w6_SupplyChainContractAsm.sol\":9687:9711  batches[batchId].batchId */\n      0x06\n      add\n      sload\n        /* \"contracts/w6_SupplyChainContractAsm.sol\":9687:9716  batches[batchId].batchId != 0 */\n      sub\n        /* \"contracts/w6_SupplyChainContractAsm.sol\":9679:9740  require(batches[batchId].batchId != 0, \"Batch doesn't exist\") */\n      tag_180\n      jumpi\n      mload(0x40)\n      0x08c379a000000000000000000000000000000000000000000000000000000000\n      dup2\n      mstore\n      0x04\n      add\n      tag_181\n      swap1\n      tag_114\n      jump\t// in\n    tag_181:\n      mload(0x40)\n      dup1\n      swap2\n      sub\n      swap1\n      revert\n    tag_180:\n        /* \"contracts/w6_SupplyChainContractAsm.sol\":9759:9766  batches */\n      0x05\n        /* \"contracts/w6_SupplyChainContractAsm.sol\":9759:9775  batches[batchId] */\n      0x00\n        /* \"contracts/w6_SupplyChainContractAsm.sol\":9767:9774  batchId */\n      dup6\n        /* \"contracts/w6_SupplyChainContractAsm.sol\":9759:9775  batches[batchId] */\n      dup2\n      mstore\n      0x20\n      add\n      swap1\n      dup2\n      mstore\n      0x20\n      add\n      0x00\n      keccak256\n        /* \"contracts/w6_SupplyChainContractAsm.sol\":9759:9786  batches[batchId].isRecalled */\n      0x05\n      add\n      0x00\n      swap1\n      sload\n      swap1\n      0x0100\n      exp\n      swap1\n      div\n      0xff\n      and\n        /* \"contracts/w6_SupplyChainContractAsm.sol\":9758:9786  !batches[batchId].isRecalled */\n      iszero\n        /* \"contracts/w6_SupplyChainContractAsm.sol\":9750:9808  require(!batches[batchId].isRecalled, \"Batch is recalled\") */\n      tag_182\n      jumpi\n      mload(0x40)\n      0x08c379a000000000000000000000000000000000000000000000000000000000\n      dup2\n      mstore\n      0x04\n      add\n      tag_183\n      swap1\n      tag_184\n      jump\t// in\n    tag_183:\n      mload(0x40)\n      dup1\n      swap2\n      sub\n      swap1\n      revert\n    tag_182:\n        /* \"contracts/w6_SupplyChainContractAsm.sol\":9846:9847  0 */\n      0x00\n        /* \"contracts/w6_SupplyChainContractAsm.sol\":9826:9848  newOwner != address(0) */\n      0xffffffffffffffffffffffffffffffffffffffff\n      and\n        /* \"contracts/w6_SupplyChainContractAsm.sol\":9826:9834  newOwner */\n      dup4\n        /* \"contracts/w6_SupplyChainContractAsm.sol\":9826:9848  newOwner != address(0) */\n      0xffffffffffffffffffffffffffffffffffffffff\n      and\n      sub\n        /* \"contracts/w6_SupplyChainContractAsm.sol\":9818:9884  require(newOwner != address(0), \"newOwner cant be a zero address\") */\n      tag_185\n      jumpi\n      mload(0x40)\n      0x08c379a000000000000000000000000000000000000000000000000000000000\n      dup2\n      mstore\n      0x04\n      add\n      tag_186\n      swap1\n      tag_187\n      jump\t// in\n    tag_186:\n      mload(0x40)\n      dup1\n      swap2\n      sub\n      swap1\n      revert\n    tag_185:\n        /* \"contracts/w6_SupplyChainContractAsm.sol\":9951:9984  abi.encodePacked(\"registerBatch\") */\n      add(0x20, mload(0x40))\n      tag_188\n      swap1\n      tag_189\n      jump\t// in\n    tag_188:\n      mload(0x40)\n      0x20\n      dup2\n      dup4\n      sub\n      sub\n      dup2\n      mstore\n      swap1\n      0x40\n      mstore\n        /* \"contracts/w6_SupplyChainContractAsm.sol\":9941:9985  keccak256(abi.encodePacked(\"registerBatch\")) */\n      dup1\n      mload\n      swap1\n      0x20\n      add\n      keccak256\n        /* \"contracts/w6_SupplyChainContractAsm.sol\":9926:9935  operation */\n      dup3\n        /* \"contracts/w6_SupplyChainContractAsm.sol\":9909:9936  abi.encodePacked(operation) */\n      add(0x20, mload(0x40))\n      tag_190\n      swap2\n      swap1\n      tag_191\n      jump\t// in\n    tag_190:\n      mload(0x40)\n      0x20\n      dup2\n      dup4\n      sub\n      sub\n      dup2\n      mstore\n      swap1\n      0x40\n      mstore\n        /* \"contracts/w6_SupplyChainContractAsm.sol\":9899:9937  keccak256(abi.encodePacked(operation)) */\n      dup1\n      mload\n      swap1\n      0x20\n      add\n      keccak256\n        /* \"contracts/w6_SupplyChainContractAsm.sol\":9899:9985  keccak256(abi.encodePacked(operation)) == keccak256(abi.encodePacked(\"registerBatch\")) */\n      sub\n        /* \"contracts/w6_SupplyChainContractAsm.sol\":9895:11811  if (keccak256(abi.encodePacked(operation)) == keccak256(abi.encodePacked(\"registerBatch\"))) { // Register products... */\n      tag_192\n      jumpi\n        /* \"contracts/w6_SupplyChainContractAsm.sol\":10060:10061  0 */\n      0x00\n        /* \"contracts/w6_SupplyChainContractAsm.sol\":10030:10037  batches */\n      0x05\n        /* \"contracts/w6_SupplyChainContractAsm.sol\":10030:10046  batches[batchId] */\n      0x00\n        /* \"contracts/w6_SupplyChainContractAsm.sol\":10038:10045  batchId */\n      dup7\n        /* \"contracts/w6_SupplyChainContractAsm.sol\":10030:10046  batches[batchId] */\n      dup2\n      mstore\n      0x20\n      add\n      swap1\n      dup2\n      mstore\n      0x20\n      add\n      0x00\n      keccak256\n        /* \"contracts/w6_SupplyChainContractAsm.sol\":10030:10049  batches[batchId].id */\n      0x00\n      add\n        /* \"contracts/w6_SupplyChainContractAsm.sol\":10030:10056  batches[batchId].id.length */\n      dup1\n      sload\n      swap1\n      pop\n        /* \"contracts/w6_SupplyChainContractAsm.sol\":10030:10061  batches[batchId].id.length == 0 */\n      eq\n        /* \"contracts/w6_SupplyChainContractAsm.sol\":10022:10106  require(batches[batchId].id.length == 0, \"Batch IDs must be empty for registration\") */\n      tag_193\n      jumpi\n      mload(0x40)\n      0x08c379a000000000000000000000000000000000000000000000000000000000\n      dup2\n      mstore\n      0x04\n      add\n      tag_194\n      swap1\n      tag_195\n      jump\t// in\n    tag_194:\n      mload(0x40)\n      dup1\n      swap2\n      sub\n      swap1\n      revert\n    tag_193:\n        /* \"contracts/w6_SupplyChainContractAsm.sol\":10120:10143  uint256[] memory newIds */\n      0x00\n        /* \"contracts/w6_SupplyChainContractAsm.sol\":10160:10167  batches */\n      0x05\n        /* \"contracts/w6_SupplyChainContractAsm.sol\":10160:10176  batches[batchId] */\n      0x00\n        /* \"contracts/w6_SupplyChainContractAsm.sol\":10168:10175  batchId */\n      dup7\n        /* \"contracts/w6_SupplyChainContractAsm.sol\":10160:10176  batches[batchId] */\n      dup2\n      mstore\n      0x20\n      add\n      swap1\n      dup2\n      mstore\n      0x20\n      add\n      0x00\n      keccak256\n        /* \"contracts/w6_SupplyChainContractAsm.sol\":10160:10181  batches[batchId].name */\n      0x01\n      add\n        /* \"contracts/w6_SupplyChainContractAsm.sol\":10160:10188  batches[batchId].name.length */\n      dup1\n      sload\n      swap1\n      pop\n        /* \"contracts/w6_SupplyChainContractAsm.sol\":10146:10189  new uint256[](batches[batchId].name.length) */\n      0xffffffffffffffff\n      dup2\n      gt\n      iszero\n      tag_196\n      jumpi\n      tag_197\n      tag_198\n      jump\t// in\n    tag_197:\n    tag_196:\n      mload(0x40)\n      swap1\n      dup1\n      dup3\n      mstore\n      dup1\n      0x20\n      mul\n      0x20\n      add\n      dup3\n      add\n      0x40\n      mstore\n      dup1\n      iszero\n      tag_199\n      jumpi\n      dup2\n      0x20\n      add\n      0x20\n      dup3\n      mul\n      dup1\n      calldatasize\n      dup4\n      calldatacopy\n      dup1\n      dup3\n      add\n      swap2\n      pop\n      pop\n      swap1\n      pop\n    tag_199:\n      pop\n        /* \"contracts/w6_SupplyChainContractAsm.sol\":10120:10189  uint256[] memory newIds = new uint256[](batches[batchId].name.length) */\n      swap1\n      pop\n        /* \"contracts/w6_SupplyChainContractAsm.sol\":10253:10259  uint i */\n      0x00\n        /* \"contracts/w6_SupplyChainContractAsm.sol\":10248:10876  for (uint i = 0; i < batches[batchId].name.length; i++) {... */\n    tag_200:\n        /* \"contracts/w6_SupplyChainContractAsm.sol\":10269:10276  batches */\n      0x05\n        /* \"contracts/w6_SupplyChainContractAsm.sol\":10269:10285  batches[batchId] */\n      0x00\n        /* \"contracts/w6_SupplyChainContractAsm.sol\":10277:10284  batchId */\n      dup8\n        /* \"contracts/w6_SupplyChainContractAsm.sol\":10269:10285  batches[batchId] */\n      dup2\n      mstore\n      0x20\n      add\n      swap1\n      dup2\n      mstore\n      0x20\n      add\n      0x00\n      keccak256\n        /* \"contracts/w6_SupplyChainContractAsm.sol\":10269:10290  batches[batchId].name */\n      0x01\n      add\n        /* \"contracts/w6_SupplyChainContractAsm.sol\":10269:10297  batches[batchId].name.length */\n      dup1\n      sload\n      swap1\n      pop\n        /* \"contracts/w6_SupplyChainContractAsm.sol\":10265:10266  i */\n      dup2\n        /* \"contracts/w6_SupplyChainContractAsm.sol\":10265:10297  i < batches[batchId].name.length */\n      lt\n        /* \"contracts/w6_SupplyChainContractAsm.sol\":10248:10876  for (uint i = 0; i < batches[batchId].name.length; i++) {... */\n      iszero\n      tag_201\n      jumpi\n        /* \"contracts/w6_SupplyChainContractAsm.sol\":10322:10334  productCount */\n      0x01\n      0x00\n        /* \"contracts/w6_SupplyChainContractAsm.sol\":10322:10336  productCount++ */\n      dup2\n      sload\n      dup1\n      swap3\n      swap2\n      swap1\n      tag_203\n      swap1\n      tag_204\n      jump\t// in\n    tag_203:\n      swap2\n      swap1\n      pop\n      sstore\n      pop\n        /* \"contracts/w6_SupplyChainContractAsm.sol\":10402:10414  productCount */\n      sload(0x01)\n        /* \"contracts/w6_SupplyChainContractAsm.sol\":10390:10396  newIds */\n      dup3\n        /* \"contracts/w6_SupplyChainContractAsm.sol\":10397:10398  i */\n      dup3\n        /* \"contracts/w6_SupplyChainContractAsm.sol\":10390:10399  newIds[i] */\n      dup2\n      mload\n      dup2\n      lt\n      tag_205\n      jumpi\n      tag_206\n      tag_124\n      jump\t// in\n    tag_206:\n    tag_205:\n      0x20\n      mul\n      0x20\n      add\n      add\n        /* \"contracts/w6_SupplyChainContractAsm.sol\":10390:10414  newIds[i] = productCount */\n      dup2\n      dup2\n      mstore\n      pop\n      pop\n        /* \"contracts/w6_SupplyChainContractAsm.sol\":10457:10771  Product({... */\n      mload(0x40)\n      dup1\n      0xc0\n      add\n      0x40\n      mstore\n      dup1\n        /* \"contracts/w6_SupplyChainContractAsm.sol\":10491:10503  productCount */\n      sload(0x01)\n        /* \"contracts/w6_SupplyChainContractAsm.sol\":10457:10771  Product({... */\n      dup2\n      mstore\n      0x20\n      add\n        /* \"contracts/w6_SupplyChainContractAsm.sol\":10531:10538  batches */\n      0x05\n        /* \"contracts/w6_SupplyChainContractAsm.sol\":10531:10547  batches[batchId] */\n      0x00\n        /* \"contracts/w6_SupplyChainContractAsm.sol\":10539:10546  batchId */\n      dup10\n        /* \"contracts/w6_SupplyChainContractAsm.sol\":10531:10547  batches[batchId] */\n      dup2\n      mstore\n      0x20\n      add\n      swap1\n      dup2\n      mstore\n      0x20\n      add\n      0x00\n      keccak256\n        /* \"contracts/w6_SupplyChainContractAsm.sol\":10531:10552  batches[batchId].name */\n      0x01\n      add\n        /* \"contracts/w6_SupplyChainContractAsm.sol\":10553:10554  i */\n      dup4\n        /* \"contracts/w6_SupplyChainContractAsm.sol\":10531:10555  batches[batchId].name[i] */\n      dup2\n      sload\n      dup2\n      lt\n      tag_207\n      jumpi\n      tag_208\n      tag_124\n      jump\t// in\n    tag_208:\n    tag_207:\n      swap1\n      0x00\n      mstore\n      keccak256(0x00, 0x20)\n      add\n        /* \"contracts/w6_SupplyChainContractAsm.sol\":10457:10771  Product({... */\n      dup1\n      sload\n      tag_210\n      swap1\n      tag_132\n      jump\t// in\n    tag_210:\n      dup1\n      0x1f\n      add\n      0x20\n      dup1\n      swap2\n      div\n      mul\n      0x20\n      add\n      mload(0x40)\n      swap1\n      dup2\n      add\n      0x40\n      mstore\n      dup1\n      swap3\n      swap2\n      swap1\n      dup2\n      dup2\n      mstore\n      0x20\n      add\n      dup3\n      dup1\n      sload\n      tag_211\n      swap1\n      tag_132\n      jump\t// in\n    tag_211:\n      dup1\n      iszero\n      tag_212\n      jumpi\n      dup1\n      0x1f\n      lt\n      tag_213\n      jumpi\n      0x0100\n      dup1\n      dup4\n      sload\n      div\n      mul\n      dup4\n      mstore\n      swap2\n      0x20\n      add\n      swap2\n      jump(tag_212)\n    tag_213:\n      dup3\n      add\n      swap2\n      swap1\n      0x00\n      mstore\n      keccak256(0x00, 0x20)\n      swap1\n    tag_214:\n      dup2\n      sload\n      dup2\n      mstore\n      swap1\n      0x01\n      add\n      swap1\n      0x20\n      add\n      dup1\n      dup4\n      gt\n      tag_214\n      jumpi\n      dup3\n      swap1\n      sub\n      0x1f\n      and\n      dup3\n      add\n      swap2\n    tag_212:\n      pop\n      pop\n      pop\n      pop\n      pop\n      dup2\n      mstore\n      0x20\n      add\n        /* \"contracts/w6_SupplyChainContractAsm.sol\":10590:10597  batches */\n      0x05\n        /* \"contracts/w6_SupplyChainContractAsm.sol\":10590:10606  batches[batchId] */\n      0x00\n        /* \"contracts/w6_SupplyChainContractAsm.sol\":10598:10605  batchId */\n      dup10\n        /* \"contracts/w6_SupplyChainContractAsm.sol\":10590:10606  batches[batchId] */\n      dup2\n      mstore\n      0x20\n      add\n      swap1\n      dup2\n      mstore\n      0x20\n      add\n      0x00\n      keccak256\n        /* \"contracts/w6_SupplyChainContractAsm.sol\":10590:10618  batches[batchId].description */\n      0x02\n      add\n        /* \"contracts/w6_SupplyChainContractAsm.sol\":10619:10620  i */\n      dup4\n        /* \"contracts/w6_SupplyChainContractAsm.sol\":10590:10621  batches[batchId].description[i] */\n      dup2\n      sload\n      dup2\n      lt\n      tag_215\n      jumpi\n      tag_216\n      tag_124\n      jump\t// in\n    tag_216:\n    tag_215:\n      swap1\n      0x00\n      mstore\n      keccak256(0x00, 0x20)\n      add\n        /* \"contracts/w6_SupplyChainContractAsm.sol\":10457:10771  Product({... */\n      dup1\n      sload\n      tag_218\n      swap1\n      tag_132\n      jump\t// in\n    tag_218:\n      dup1\n      0x1f\n      add\n      0x20\n      dup1\n      swap2\n      div\n      mul\n      0x20\n      add\n      mload(0x40)\n      swap1\n      dup2\n      add\n      0x40\n      mstore\n      dup1\n      swap3\n      swap2\n      swap1\n      dup2\n      dup2\n      mstore\n      0x20\n      add\n      dup3\n      dup1\n      sload\n      tag_219\n      swap1\n      tag_132\n      jump\t// in\n    tag_219:\n      dup1\n      iszero\n      tag_220\n      jumpi\n      dup1\n      0x1f\n      lt\n      tag_221\n      jumpi\n      0x0100\n      dup1\n      dup4\n      sload\n      div\n      mul\n      dup4\n      mstore\n      swap2\n      0x20\n      add\n      swap2\n      jump(tag_220)\n    tag_221:\n      dup3\n      add\n      swap2\n      swap1\n      0x00\n      mstore\n      keccak256(0x00, 0x20)\n      swap1\n    tag_222:\n      dup2\n      sload\n      dup2\n      mstore\n      swap1\n      0x01\n      add\n      swap1\n      0x20\n      add\n      dup1\n      dup4\n      gt\n      tag_222\n      jumpi\n      dup3\n      swap1\n      sub\n      0x1f\n      and\n      dup3\n      add\n      swap2\n    tag_220:\n      pop\n      pop\n      pop\n      pop\n      pop\n      dup2\n      mstore\n      0x20\n      add\n        /* \"contracts/w6_SupplyChainContractAsm.sol\":10657:10665  newOwner */\n      dup7\n        /* \"contracts/w6_SupplyChainContractAsm.sol\":10457:10771  Product({... */\n      0xffffffffffffffffffffffffffffffffffffffff\n      and\n      dup2\n      mstore\n      0x20\n      add\n        /* \"contracts/w6_SupplyChainContractAsm.sol\":10698:10713  block.timestamp */\n      timestamp\n        /* \"contracts/w6_SupplyChainContractAsm.sol\":10457:10771  Product({... */\n      dup2\n      mstore\n      0x20\n      add\n        /* \"contracts/w6_SupplyChainContractAsm.sol\":10747:10752  false */\n      0x00\n        /* \"contracts/w6_SupplyChainContractAsm.sol\":10457:10771  Product({... */\n      iszero\n      iszero\n      dup2\n      mstore\n      pop\n        /* \"contracts/w6_SupplyChainContractAsm.sol\":10432:10440  products */\n      0x04\n        /* \"contracts/w6_SupplyChainContractAsm.sol\":10432:10454  products[productCount] */\n      0x00\n        /* \"contracts/w6_SupplyChainContractAsm.sol\":10441:10453  productCount */\n      sload(0x01)\n        /* \"contracts/w6_SupplyChainContractAsm.sol\":10432:10454  products[productCount] */\n      dup2\n      mstore\n      0x20\n      add\n      swap1\n      dup2\n      mstore\n      0x20\n      add\n      0x00\n      keccak256\n        /* \"contracts/w6_SupplyChainContractAsm.sol\":10432:10771  products[productCount] = Product({... */\n      0x00\n      dup3\n      add\n      mload\n      dup2\n      0x00\n      add\n      sstore\n      0x20\n      dup3\n      add\n      mload\n      dup2\n      0x01\n      add\n      swap1\n      dup2\n      tag_223\n      swap2\n      swap1\n      tag_224\n      jump\t// in\n    tag_223:\n      pop\n      0x40\n      dup3\n      add\n      mload\n      dup2\n      0x02\n      add\n      swap1\n      dup2\n      tag_225\n      swap2\n      swap1\n      tag_224\n      jump\t// in\n    tag_225:\n      pop\n      0x60\n      dup3\n      add\n      mload\n      dup2\n      0x03\n      add\n      exp(0x0100, 0x00)\n      dup2\n      sload\n      dup2\n      0xffffffffffffffffffffffffffffffffffffffff\n      mul\n      not\n      and\n      swap1\n      dup4\n      0xffffffffffffffffffffffffffffffffffffffff\n      and\n      mul\n      or\n      swap1\n      sstore\n      pop\n      0x80\n      dup3\n      add\n      mload\n      dup2\n      0x04\n      add\n      sstore\n      0xa0\n      dup3\n      add\n      mload\n      dup2\n      0x05\n      add\n      exp(0x0100, 0x00)\n      dup2\n      sload\n      dup2\n      0xff\n      mul\n      not\n      and\n      swap1\n      dup4\n      iszero\n      iszero\n      mul\n      or\n      swap1\n      sstore\n      pop\n      swap1\n      pop\n      pop\n        /* \"contracts/w6_SupplyChainContractAsm.sol\":10852:10860  newOwner */\n      dup5\n        /* \"contracts/w6_SupplyChainContractAsm.sol\":10794:10861  ProdustRegistered(productCount, batches[batchId].name[i], newOwner) */\n      0xffffffffffffffffffffffffffffffffffffffff\n      and\n        /* \"contracts/w6_SupplyChainContractAsm.sol\":10812:10824  productCount */\n      sload(0x01)\n        /* \"contracts/w6_SupplyChainContractAsm.sol\":10794:10861  ProdustRegistered(productCount, batches[batchId].name[i], newOwner) */\n      0x0cab8542fad5393d8a674ae5bb9094c309e41fdf2bf941b1d4a44fb4a790ff1c\n        /* \"contracts/w6_SupplyChainContractAsm.sol\":10826:10833  batches */\n      0x05\n        /* \"contracts/w6_SupplyChainContractAsm.sol\":10826:10842  batches[batchId] */\n      0x00\n        /* \"contracts/w6_SupplyChainContractAsm.sol\":10834:10841  batchId */\n      dup11\n        /* \"contracts/w6_SupplyChainContractAsm.sol\":10826:10842  batches[batchId] */\n      dup2\n      mstore\n      0x20\n      add\n      swap1\n      dup2\n      mstore\n      0x20\n      add\n      0x00\n      keccak256\n        /* \"contracts/w6_SupplyChainContractAsm.sol\":10826:10847  batches[batchId].name */\n      0x01\n      add\n        /* \"contracts/w6_SupplyChainContractAsm.sol\":10848:10849  i */\n      dup5\n        /* \"contracts/w6_SupplyChainContractAsm.sol\":10826:10850  batches[batchId].name[i] */\n      dup2\n      sload\n      dup2\n      lt\n      tag_226\n      jumpi\n      tag_227\n      tag_124\n      jump\t// in\n    tag_227:\n    tag_226:\n      swap1\n      0x00\n      mstore\n      keccak256(0x00, 0x20)\n      add\n        /* \"contracts/w6_SupplyChainContractAsm.sol\":10794:10861  ProdustRegistered(productCount, batches[batchId].name[i], newOwner) */\n      mload(0x40)\n      tag_229\n      swap2\n      swap1\n      tag_230\n      jump\t// in\n    tag_229:\n      mload(0x40)\n      dup1\n      swap2\n      sub\n      swap1\n      log3\n        /* \"contracts/w6_SupplyChainContractAsm.sol\":10299:10302  i++ */\n      dup1\n      dup1\n      0x01\n      add\n      swap2\n      pop\n      pop\n        /* \"contracts/w6_SupplyChainContractAsm.sol\":10248:10876  for (uint i = 0; i < batches[batchId].name.length; i++) {... */\n      jump(tag_200)\n    tag_201:\n      pop\n        /* \"contracts/w6_SupplyChainContractAsm.sol\":10911:10917  newIds */\n      dup1\n        /* \"contracts/w6_SupplyChainContractAsm.sol\":10889:10896  batches */\n      0x05\n        /* \"contracts/w6_SupplyChainContractAsm.sol\":10889:10905  batches[batchId] */\n      0x00\n        /* \"contracts/w6_SupplyChainContractAsm.sol\":10897:10904  batchId */\n      dup8\n        /* \"contracts/w6_SupplyChainContractAsm.sol\":10889:10905  batches[batchId] */\n      dup2\n      mstore\n      0x20\n      add\n      swap1\n      dup2\n      mstore\n      0x20\n      add\n      0x00\n      keccak256\n        /* \"contracts/w6_SupplyChainContractAsm.sol\":10889:10908  batches[batchId].id */\n      0x00\n      add\n        /* \"contracts/w6_SupplyChainContractAsm.sol\":10889:10917  batches[batchId].id = newIds */\n      swap1\n      dup1\n      mload\n      swap1\n      0x20\n      add\n      swap1\n      tag_231\n      swap3\n      swap2\n      swap1\n      tag_232\n      jump\t// in\n    tag_231:\n      pop\n        /* \"contracts/w6_SupplyChainContractAsm.sol\":9987:11007  { // Register products... */\n      pop\n        /* \"contracts/w6_SupplyChainContractAsm.sol\":9895:11811  if (keccak256(abi.encodePacked(operation)) == keccak256(abi.encodePacked(\"registerBatch\"))) { // Register products... */\n      jump(tag_233)\n    tag_192:\n        /* \"contracts/w6_SupplyChainContractAsm.sol\":11069:11102  abi.encodePacked(\"transferBatch\") */\n      add(0x20, mload(0x40))\n      tag_234\n      swap1\n      tag_235\n      jump\t// in\n    tag_234:\n      mload(0x40)\n      0x20\n      dup2\n      dup4\n      sub\n      sub\n      dup2\n      mstore\n      swap1\n      0x40\n      mstore\n        /* \"contracts/w6_SupplyChainContractAsm.sol\":11059:11103  keccak256(abi.encodePacked(\"transferBatch\")) */\n      dup1\n      mload\n      swap1\n      0x20\n      add\n      keccak256\n        /* \"contracts/w6_SupplyChainContractAsm.sol\":11044:11053  operation */\n      dup3\n        /* \"contracts/w6_SupplyChainContractAsm.sol\":11027:11054  abi.encodePacked(operation) */\n      add(0x20, mload(0x40))\n      tag_236\n      swap2\n      swap1\n      tag_191\n      jump\t// in\n    tag_236:\n      mload(0x40)\n      0x20\n      dup2\n      dup4\n      sub\n      sub\n      dup2\n      mstore\n      swap1\n      0x40\n      mstore\n        /* \"contracts/w6_SupplyChainContractAsm.sol\":11017:11055  keccak256(abi.encodePacked(operation)) */\n      dup1\n      mload\n      swap1\n      0x20\n      add\n      keccak256\n        /* \"contracts/w6_SupplyChainContractAsm.sol\":11017:11103  keccak256(abi.encodePacked(operation)) == keccak256(abi.encodePacked(\"transferBatch\")) */\n      sub\n        /* \"contracts/w6_SupplyChainContractAsm.sol\":11013:11811  if (keccak256(abi.encodePacked(operation)) == keccak256(abi.encodePacked(\"transferBatch\"))) { // Transfer ownership... */\n      tag_237\n      jumpi\n        /* \"contracts/w6_SupplyChainContractAsm.sol\":11146:11152  uint i */\n      0x00\n        /* \"contracts/w6_SupplyChainContractAsm.sol\":11141:11286  for (uint i = 0; i < batches[batchId].id.length; i++) {... */\n    tag_238:\n        /* \"contracts/w6_SupplyChainContractAsm.sol\":11162:11169  batches */\n      0x05\n        /* \"contracts/w6_SupplyChainContractAsm.sol\":11162:11178  batches[batchId] */\n      0x00\n        /* \"contracts/w6_SupplyChainContractAsm.sol\":11170:11177  batchId */\n      dup7\n        /* \"contracts/w6_SupplyChainContractAsm.sol\":11162:11178  batches[batchId] */\n      dup2\n      mstore\n      0x20\n      add\n      swap1\n      dup2\n      mstore\n      0x20\n      add\n      0x00\n      keccak256\n        /* \"contracts/w6_SupplyChainContractAsm.sol\":11162:11181  batches[batchId].id */\n      0x00\n      add\n        /* \"contracts/w6_SupplyChainContractAsm.sol\":11162:11188  batches[batchId].id.length */\n      dup1\n      sload\n      swap1\n      pop\n        /* \"contracts/w6_SupplyChainContractAsm.sol\":11158:11159  i */\n      dup2\n        /* \"contracts/w6_SupplyChainContractAsm.sol\":11158:11188  i < batches[batchId].id.length */\n      lt\n        /* \"contracts/w6_SupplyChainContractAsm.sol\":11141:11286  for (uint i = 0; i < batches[batchId].id.length; i++) {... */\n      iszero\n      tag_239\n      jumpi\n        /* \"contracts/w6_SupplyChainContractAsm.sol\":11213:11271  transferProductOwnership(batches[batchId].id[i], newOwner) */\n      tag_241\n        /* \"contracts/w6_SupplyChainContractAsm.sol\":11238:11245  batches */\n      0x05\n        /* \"contracts/w6_SupplyChainContractAsm.sol\":11238:11254  batches[batchId] */\n      0x00\n        /* \"contracts/w6_SupplyChainContractAsm.sol\":11246:11253  batchId */\n      dup8\n        /* \"contracts/w6_SupplyChainContractAsm.sol\":11238:11254  batches[batchId] */\n      dup2\n      mstore\n      0x20\n      add\n      swap1\n      dup2\n      mstore\n      0x20\n      add\n      0x00\n      keccak256\n        /* \"contracts/w6_SupplyChainContractAsm.sol\":11238:11257  batches[batchId].id */\n      0x00\n      add\n        /* \"contracts/w6_SupplyChainContractAsm.sol\":11258:11259  i */\n      dup3\n        /* \"contracts/w6_SupplyChainContractAsm.sol\":11238:11260  batches[batchId].id[i] */\n      dup2\n      sload\n      dup2\n      lt\n      tag_242\n      jumpi\n      tag_243\n      tag_124\n      jump\t// in\n    tag_243:\n    tag_242:\n      swap1\n      0x00\n      mstore\n      keccak256(0x00, 0x20)\n      add\n      sload\n        /* \"contracts/w6_SupplyChainContractAsm.sol\":11262:11270  newOwner */\n      dup6\n        /* \"contracts/w6_SupplyChainContractAsm.sol\":11213:11237  transferProductOwnership */\n      tag_56\n        /* \"contracts/w6_SupplyChainContractAsm.sol\":11213:11271  transferProductOwnership(batches[batchId].id[i], newOwner) */\n      jump\t// in\n    tag_241:\n        /* \"contracts/w6_SupplyChainContractAsm.sol\":11190:11193  i++ */\n      dup1\n      dup1\n      0x01\n      add\n      swap2\n      pop\n      pop\n        /* \"contracts/w6_SupplyChainContractAsm.sol\":11141:11286  for (uint i = 0; i < batches[batchId].id.length; i++) {... */\n      jump(tag_238)\n    tag_239:\n      pop\n        /* \"contracts/w6_SupplyChainContractAsm.sol\":11299:11315  address oldOwner */\n      0x00\n        /* \"contracts/w6_SupplyChainContractAsm.sol\":11318:11325  batches */\n      0x05\n        /* \"contracts/w6_SupplyChainContractAsm.sol\":11318:11334  batches[batchId] */\n      0x00\n        /* \"contracts/w6_SupplyChainContractAsm.sol\":11326:11333  batchId */\n      dup7\n        /* \"contracts/w6_SupplyChainContractAsm.sol\":11318:11334  batches[batchId] */\n      dup2\n      mstore\n      0x20\n      add\n      swap1\n      dup2\n      mstore\n      0x20\n      add\n      0x00\n      keccak256\n        /* \"contracts/w6_SupplyChainContractAsm.sol\":11318:11347  batches[batchId].currentOwner */\n      0x03\n      add\n      0x00\n      swap1\n      sload\n      swap1\n      0x0100\n      exp\n      swap1\n      div\n      0xffffffffffffffffffffffffffffffffffffffff\n      and\n        /* \"contracts/w6_SupplyChainContractAsm.sol\":11299:11347  address oldOwner = batches[batchId].currentOwner */\n      swap1\n      pop\n        /* \"contracts/w6_SupplyChainContractAsm.sol\":11390:11405  block.timestamp */\n      timestamp\n        /* \"contracts/w6_SupplyChainContractAsm.sol\":11361:11368  batches */\n      0x05\n        /* \"contracts/w6_SupplyChainContractAsm.sol\":11361:11377  batches[batchId] */\n      0x00\n        /* \"contracts/w6_SupplyChainContractAsm.sol\":11369:11376  batchId */\n      dup8\n        /* \"contracts/w6_SupplyChainContractAsm.sol\":11361:11377  batches[batchId] */\n      dup2\n      mstore\n      0x20\n      add\n      swap1\n      dup2\n      mstore\n      0x20\n      add\n      0x00\n      keccak256\n        /* \"contracts/w6_SupplyChainContractAsm.sol\":11361:11387  batches[batchId].timestamp */\n      0x04\n      add\n        /* \"contracts/w6_SupplyChainContractAsm.sol\":11361:11405  batches[batchId].timestamp = block.timestamp */\n      dup2\n      swap1\n      sstore\n      pop\n        /* \"contracts/w6_SupplyChainContractAsm.sol\":11451:11459  newOwner */\n      dup4\n        /* \"contracts/w6_SupplyChainContractAsm.sol\":11419:11426  batches */\n      0x05\n        /* \"contracts/w6_SupplyChainContractAsm.sol\":11419:11435  batches[batchId] */\n      0x00\n        /* \"contracts/w6_SupplyChainContractAsm.sol\":11427:11434  batchId */\n      dup8\n        /* \"contracts/w6_SupplyChainContractAsm.sol\":11419:11435  batches[batchId] */\n      dup2\n      mstore\n      0x20\n      add\n      swap1\n      dup2\n      mstore\n      0x20\n      add\n      0x00\n      keccak256\n        /* \"contracts/w6_SupplyChainContractAsm.sol\":11419:11448  batches[batchId].currentOwner */\n      0x03\n      add\n      0x00\n        /* \"contracts/w6_SupplyChainContractAsm.sol\":11419:11459  batches[batchId].currentOwner = newOwner */\n      0x0100\n      exp\n      dup2\n      sload\n      dup2\n      0xffffffffffffffffffffffffffffffffffffffff\n      mul\n      not\n      and\n      swap1\n      dup4\n      0xffffffffffffffffffffffffffffffffffffffff\n      and\n      mul\n      or\n      swap1\n      sstore\n      pop\n        /* \"contracts/w6_SupplyChainContractAsm.sol\":11478:11514  BatchTransferred(oldOwner, newOwner) */\n      0x68e04257b55466ad5273799ac2b8d9d926b5e87d7f301e15ea0d73c8d7f3ee4c\n        /* \"contracts/w6_SupplyChainContractAsm.sol\":11495:11503  oldOwner */\n      dup2\n        /* \"contracts/w6_SupplyChainContractAsm.sol\":11505:11513  newOwner */\n      dup6\n        /* \"contracts/w6_SupplyChainContractAsm.sol\":11478:11514  BatchTransferred(oldOwner, newOwner) */\n      mload(0x40)\n      tag_245\n      swap3\n      swap2\n      swap1\n      tag_246\n      jump\t// in\n    tag_245:\n      mload(0x40)\n      dup1\n      swap2\n      sub\n      swap1\n      log1\n        /* \"contracts/w6_SupplyChainContractAsm.sol\":11105:11525  { // Transfer ownership... */\n      pop\n        /* \"contracts/w6_SupplyChainContractAsm.sol\":11013:11811  if (keccak256(abi.encodePacked(operation)) == keccak256(abi.encodePacked(\"transferBatch\"))) { // Transfer ownership... */\n      jump(tag_247)\n    tag_237:\n        /* \"contracts/w6_SupplyChainContractAsm.sol\":11587:11618  abi.encodePacked(\"recallBatch\") */\n      add(0x20, mload(0x40))\n      tag_248\n      swap1\n      tag_249\n      jump\t// in\n    tag_248:\n      mload(0x40)\n      0x20\n      dup2\n      dup4\n      sub\n      sub\n      dup2\n      mstore\n      swap1\n      0x40\n      mstore\n        /* \"contracts/w6_SupplyChainContractAsm.sol\":11577:11619  keccak256(abi.encodePacked(\"recallBatch\")) */\n      dup1\n      mload\n      swap1\n      0x20\n      add\n      keccak256\n        /* \"contracts/w6_SupplyChainContractAsm.sol\":11562:11571  operation */\n      dup3\n        /* \"contracts/w6_SupplyChainContractAsm.sol\":11545:11572  abi.encodePacked(operation) */\n      add(0x20, mload(0x40))\n      tag_250\n      swap2\n      swap1\n      tag_191\n      jump\t// in\n    tag_250:\n      mload(0x40)\n      0x20\n      dup2\n      dup4\n      sub\n      sub\n      dup2\n      mstore\n      swap1\n      0x40\n      mstore\n        /* \"contracts/w6_SupplyChainContractAsm.sol\":11535:11573  keccak256(abi.encodePacked(operation)) */\n      dup1\n      mload\n      swap1\n      0x20\n      add\n      keccak256\n        /* \"contracts/w6_SupplyChainContractAsm.sol\":11535:11619  keccak256(abi.encodePacked(operation)) == keccak256(abi.encodePacked(\"recallBatch\")) */\n      sub\n        /* \"contracts/w6_SupplyChainContractAsm.sol\":11531:11811  if (keccak256(abi.encodePacked(operation)) == keccak256(abi.encodePacked(\"recallBatch\"))) { // Recall products and batch... */\n      tag_251\n      jumpi\n        /* \"contracts/w6_SupplyChainContractAsm.sol\":11664:11692  recallBatch(batchId,reasons) */\n      tag_252\n        /* \"contracts/w6_SupplyChainContractAsm.sol\":11676:11683  batchId */\n      dup5\n        /* \"contracts/w6_SupplyChainContractAsm.sol\":11684:11691  reasons */\n      dup3\n        /* \"contracts/w6_SupplyChainContractAsm.sol\":11664:11675  recallBatch */\n      tag_28\n        /* \"contracts/w6_SupplyChainContractAsm.sol\":11664:11692  recallBatch(batchId,reasons) */\n      jump\t// in\n    tag_252:\n        /* \"contracts/w6_SupplyChainContractAsm.sol\":11725:11732  batchId */\n      dup4\n        /* \"contracts/w6_SupplyChainContractAsm.sol\":11711:11742  BatchRecalled(batchId, reasons) */\n      0x8f8994662430cbb3a0b089f812f1c51f46ef020e2ccc019cee8988c3312b4a66\n        /* \"contracts/w6_SupplyChainContractAsm.sol\":11734:11741  reasons */\n      dup3\n        /* \"contracts/w6_SupplyChainContractAsm.sol\":11711:11742  BatchRecalled(batchId, reasons) */\n      mload(0x40)\n      tag_253\n      swap2\n      swap1\n      tag_98\n      jump\t// in\n    tag_253:\n      mload(0x40)\n      dup1\n      swap2\n      sub\n      swap1\n      log2\n        /* \"contracts/w6_SupplyChainContractAsm.sol\":11531:11811  if (keccak256(abi.encodePacked(operation)) == keccak256(abi.encodePacked(\"recallBatch\"))) { // Recall products and batch... */\n      jump(tag_254)\n    tag_251:\n        /* \"contracts/w6_SupplyChainContractAsm.sol\":11773:11800  revert(\"Invalid operation\") */\n      mload(0x40)\n      0x08c379a000000000000000000000000000000000000000000000000000000000\n      dup2\n      mstore\n      0x04\n      add\n      tag_255\n      swap1\n      tag_256\n      jump\t// in\n    tag_255:\n      mload(0x40)\n      dup1\n      swap2\n      sub\n      swap1\n      revert\n        /* \"contracts/w6_SupplyChainContractAsm.sol\":11531:11811  if (keccak256(abi.encodePacked(operation)) == keccak256(abi.encodePacked(\"recallBatch\"))) { // Recall products and batch... */\n    tag_254:\n        /* \"contracts/w6_SupplyChainContractAsm.sol\":11013:11811  if (keccak256(abi.encodePacked(operation)) == keccak256(abi.encodePacked(\"transferBatch\"))) { // Transfer ownership... */\n    tag_247:\n        /* \"contracts/w6_SupplyChainContractAsm.sol\":9895:11811  if (keccak256(abi.encodePacked(operation)) == keccak256(abi.encodePacked(\"registerBatch\"))) { // Register products... */\n    tag_233:\n        /* \"contracts/w6_SupplyChainContractAsm.sol\":11841:11848  batchId */\n      dup4\n        /* \"contracts/w6_SupplyChainContractAsm.sol\":11826:11877  BatchProcessed(batchId, batches[batchId].operation) */\n      0x603489d1e5e10e7b7393a68b1707e0b98e7976704197482dc200a6b34674b54a\n        /* \"contracts/w6_SupplyChainContractAsm.sol\":11850:11857  batches */\n      0x05\n        /* \"contracts/w6_SupplyChainContractAsm.sol\":11850:11866  batches[batchId] */\n      0x00\n        /* \"contracts/w6_SupplyChainContractAsm.sol\":11858:11865  batchId */\n      dup8\n        /* \"contracts/w6_SupplyChainContractAsm.sol\":11850:11866  batches[batchId] */\n      dup2\n      mstore\n      0x20\n      add\n      swap1\n      dup2\n      mstore\n      0x20\n      add\n      0x00\n      keccak256\n        /* \"contracts/w6_SupplyChainContractAsm.sol\":11850:11876  batches[batchId].operation */\n      0x07\n      add\n        /* \"contracts/w6_SupplyChainContractAsm.sol\":11826:11877  BatchProcessed(batchId, batches[batchId].operation) */\n      mload(0x40)\n      tag_257\n      swap2\n      swap1\n      tag_230\n      jump\t// in\n    tag_257:\n      mload(0x40)\n      dup1\n      swap2\n      sub\n      swap1\n      log2\n        /* \"contracts/w6_SupplyChainContractAsm.sol\":9542:11884  function processBatch(uint256 batchId, address newOwner, string memory operation, string memory reasons) public onlyAuthorized {... */\n      pop\n      pop\n      pop\n      pop\n      jump\t// out\n        /* \"contracts/w6_SupplyChainContractAsm.sol\":3460:4309  function transferProductOwnership(uint256 productId, address newOwner) public onlyAuthorized{... */\n    tag_56:\n        /* \"contracts/w6_SupplyChainContractAsm.sol\":2240:2262  authorizedParticipants */\n      0x03\n        /* \"contracts/w6_SupplyChainContractAsm.sol\":2240:2274  authorizedParticipants[msg.sender] */\n      0x00\n        /* \"contracts/w6_SupplyChainContractAsm.sol\":2263:2273  msg.sender */\n      caller\n        /* \"contracts/w6_SupplyChainContractAsm.sol\":2240:2274  authorizedParticipants[msg.sender] */\n      0xffffffffffffffffffffffffffffffffffffffff\n      and\n      0xffffffffffffffffffffffffffffffffffffffff\n      and\n      dup2\n      mstore\n      0x20\n      add\n      swap1\n      dup2\n      mstore\n      0x20\n      add\n      0x00\n      keccak256\n      0x00\n      swap1\n      sload\n      swap1\n      0x0100\n      exp\n      swap1\n      div\n      0xff\n      and\n        /* \"contracts/w6_SupplyChainContractAsm.sol\":2232:2293  require(authorizedParticipants[msg.sender], \"Not authorized\") */\n      tag_259\n      jumpi\n      mload(0x40)\n      0x08c379a000000000000000000000000000000000000000000000000000000000\n      dup2\n      mstore\n      0x04\n      add\n      tag_260\n      swap1\n      tag_109\n      jump\t// in\n    tag_260:\n      mload(0x40)\n      dup1\n      swap2\n      sub\n      swap1\n      revert\n    tag_259:\n        /* \"contracts/w6_SupplyChainContractAsm.sol\":3582:3583  0 */\n      0x00\n        /* \"contracts/w6_SupplyChainContractAsm.sol\":3570:3579  productId */\n      dup3\n        /* \"contracts/w6_SupplyChainContractAsm.sol\":3570:3583  productId > 0 */\n      gt\n        /* \"contracts/w6_SupplyChainContractAsm.sol\":3570:3612  productId > 0 && productId <= productCount */\n      dup1\n      iszero\n      tag_262\n      jumpi\n      pop\n        /* \"contracts/w6_SupplyChainContractAsm.sol\":3600:3612  productCount */\n      sload(0x01)\n        /* \"contracts/w6_SupplyChainContractAsm.sol\":3587:3596  productId */\n      dup3\n        /* \"contracts/w6_SupplyChainContractAsm.sol\":3587:3612  productId <= productCount */\n      gt\n      iszero\n        /* \"contracts/w6_SupplyChainContractAsm.sol\":3570:3612  productId > 0 && productId <= productCount */\n    tag_262:\n        /* \"contracts/w6_SupplyChainContractAsm.sol\":3562:3635  require(productId > 0 && productId <= productCount, \"Invalid product ID\") */\n      tag_263\n      jumpi\n      mload(0x40)\n      0x08c379a000000000000000000000000000000000000000000000000000000000\n      dup2\n      mstore\n      0x04\n      add\n      tag_264\n      swap1\n      tag_265\n      jump\t// in\n    tag_264:\n      mload(0x40)\n      dup1\n      swap2\n      sub\n      swap1\n      revert\n    tag_263:\n        /* \"contracts/w6_SupplyChainContractAsm.sol\":3654:3662  products */\n      0x04\n        /* \"contracts/w6_SupplyChainContractAsm.sol\":3654:3673  products[productId] */\n      0x00\n        /* \"contracts/w6_SupplyChainContractAsm.sol\":3663:3672  productId */\n      dup4\n        /* \"contracts/w6_SupplyChainContractAsm.sol\":3654:3673  products[productId] */\n      dup2\n      mstore\n      0x20\n      add\n      swap1\n      dup2\n      mstore\n      0x20\n      add\n      0x00\n      keccak256\n        /* \"contracts/w6_SupplyChainContractAsm.sol\":3654:3684  products[productId].isRecalled */\n      0x05\n      add\n      0x00\n      swap1\n      sload\n      swap1\n      0x0100\n      exp\n      swap1\n      div\n      0xff\n      and\n        /* \"contracts/w6_SupplyChainContractAsm.sol\":3653:3684  !products[productId].isRecalled */\n      iszero\n        /* \"contracts/w6_SupplyChainContractAsm.sol\":3645:3728  require(!products[productId].isRecalled, \"Recalled products cannot be transferred\") */\n      tag_266\n      jumpi\n      mload(0x40)\n      0x08c379a000000000000000000000000000000000000000000000000000000000\n      dup2\n      mstore\n      0x04\n      add\n      tag_267\n      swap1\n      tag_268\n      jump\t// in\n    tag_267:\n      mload(0x40)\n      dup1\n      swap2\n      sub\n      swap1\n      revert\n    tag_266:\n        /* \"contracts/w6_SupplyChainContractAsm.sol\":3840:3841  0 */\n      0x00\n        /* \"contracts/w6_SupplyChainContractAsm.sol\":3820:3842  newOwner != address(0) */\n      0xffffffffffffffffffffffffffffffffffffffff\n      and\n        /* \"contracts/w6_SupplyChainContractAsm.sol\":3820:3828  newOwner */\n      dup2\n        /* \"contracts/w6_SupplyChainContractAsm.sol\":3820:3842  newOwner != address(0) */\n      0xffffffffffffffffffffffffffffffffffffffff\n      and\n      sub\n        /* \"contracts/w6_SupplyChainContractAsm.sol\":3812:3872  require(newOwner != address(0), \"Invalid new owner address\") */\n      tag_269\n      jumpi\n      mload(0x40)\n      0x08c379a000000000000000000000000000000000000000000000000000000000\n      dup2\n      mstore\n      0x04\n      add\n      tag_270\n      swap1\n      tag_271\n      jump\t// in\n    tag_270:\n      mload(0x40)\n      dup1\n      swap2\n      sub\n      swap1\n      revert\n    tag_269:\n        /* \"contracts/w6_SupplyChainContractAsm.sol\":3890:3912  authorizedParticipants */\n      0x03\n        /* \"contracts/w6_SupplyChainContractAsm.sol\":3890:3922  authorizedParticipants[newOwner] */\n      0x00\n        /* \"contracts/w6_SupplyChainContractAsm.sol\":3913:3921  newOwner */\n      dup3\n        /* \"contracts/w6_SupplyChainContractAsm.sol\":3890:3922  authorizedParticipants[newOwner] */\n      0xffffffffffffffffffffffffffffffffffffffff\n      and\n      0xffffffffffffffffffffffffffffffffffffffff\n      and\n      dup2\n      mstore\n      0x20\n      add\n      swap1\n      dup2\n      mstore\n      0x20\n      add\n      0x00\n      keccak256\n      0x00\n      swap1\n      sload\n      swap1\n      0x0100\n      exp\n      swap1\n      div\n      0xff\n      and\n        /* \"contracts/w6_SupplyChainContractAsm.sol\":3882:3954  require(authorizedParticipants[newOwner], \"New owner is not authorized\") */\n      tag_272\n      jumpi\n      mload(0x40)\n      0x08c379a000000000000000000000000000000000000000000000000000000000\n      dup2\n      mstore\n      0x04\n      add\n      tag_273\n      swap1\n      tag_274\n      jump\t// in\n    tag_273:\n      mload(0x40)\n      dup1\n      swap2\n      sub\n      swap1\n      revert\n    tag_272:\n        /* \"contracts/w6_SupplyChainContractAsm.sol\":4008:4018  msg.sender */\n      caller\n        /* \"contracts/w6_SupplyChainContractAsm.sol\":3972:4018  products[productId].currentOwner == msg.sender */\n      0xffffffffffffffffffffffffffffffffffffffff\n      and\n        /* \"contracts/w6_SupplyChainContractAsm.sol\":3972:3980  products */\n      0x04\n        /* \"contracts/w6_SupplyChainContractAsm.sol\":3972:3991  products[productId] */\n      0x00\n        /* \"contracts/w6_SupplyChainContractAsm.sol\":3981:3990  productId */\n      dup5\n        /* \"contracts/w6_SupplyChainContractAsm.sol\":3972:3991  products[productId] */\n      dup2\n      mstore\n      0x20\n      add\n      swap1\n      dup2\n      mstore\n      0x20\n      add\n      0x00\n      keccak256\n        /* \"contracts/w6_SupplyChainContractAsm.sol\":3972:4004  products[productId].currentOwner */\n      0x03\n      add\n      0x00\n      swap1\n      sload\n      swap1\n      0x0100\n      exp\n      swap1\n      div\n      0xffffffffffffffffffffffffffffffffffffffff\n      and\n        /* \"contracts/w6_SupplyChainContractAsm.sol\":3972:4018  products[productId].currentOwner == msg.sender */\n      0xffffffffffffffffffffffffffffffffffffffff\n      and\n      eq\n        /* \"contracts/w6_SupplyChainContractAsm.sol\":3964:4054  require(products[productId].currentOwner == msg.sender, \"Only current owner can transfer\") */\n      tag_275\n      jumpi\n      mload(0x40)\n      0x08c379a000000000000000000000000000000000000000000000000000000000\n      dup2\n      mstore\n      0x04\n      add\n      tag_276\n      swap1\n      tag_277\n      jump\t// in\n    tag_276:\n      mload(0x40)\n      dup1\n      swap2\n      sub\n      swap1\n      revert\n    tag_275:\n        /* \"contracts/w6_SupplyChainContractAsm.sol\":4064:4085  address previousOwner */\n      0x00\n        /* \"contracts/w6_SupplyChainContractAsm.sol\":4088:4096  products */\n      0x04\n        /* \"contracts/w6_SupplyChainContractAsm.sol\":4088:4107  products[productId] */\n      0x00\n        /* \"contracts/w6_SupplyChainContractAsm.sol\":4097:4106  productId */\n      dup5\n        /* \"contracts/w6_SupplyChainContractAsm.sol\":4088:4107  products[productId] */\n      dup2\n      mstore\n      0x20\n      add\n      swap1\n      dup2\n      mstore\n      0x20\n      add\n      0x00\n      keccak256\n        /* \"contracts/w6_SupplyChainContractAsm.sol\":4088:4120  products[productId].currentOwner */\n      0x03\n      add\n      0x00\n      swap1\n      sload\n      swap1\n      0x0100\n      exp\n      swap1\n      div\n      0xffffffffffffffffffffffffffffffffffffffff\n      and\n        /* \"contracts/w6_SupplyChainContractAsm.sol\":4064:4120  address previousOwner = products[productId].currentOwner */\n      swap1\n      pop\n        /* \"contracts/w6_SupplyChainContractAsm.sol\":4165:4173  newOwner */\n      dup2\n        /* \"contracts/w6_SupplyChainContractAsm.sol\":4130:4138  products */\n      0x04\n        /* \"contracts/w6_SupplyChainContractAsm.sol\":4130:4149  products[productId] */\n      0x00\n        /* \"contracts/w6_SupplyChainContractAsm.sol\":4139:4148  productId */\n      dup6\n        /* \"contracts/w6_SupplyChainContractAsm.sol\":4130:4149  products[productId] */\n      dup2\n      mstore\n      0x20\n      add\n      swap1\n      dup2\n      mstore\n      0x20\n      add\n      0x00\n      keccak256\n        /* \"contracts/w6_SupplyChainContractAsm.sol\":4130:4162  products[productId].currentOwner */\n      0x03\n      add\n      0x00\n        /* \"contracts/w6_SupplyChainContractAsm.sol\":4130:4173  products[productId].currentOwner = newOwner */\n      0x0100\n      exp\n      dup2\n      sload\n      dup2\n      0xffffffffffffffffffffffffffffffffffffffff\n      mul\n      not\n      and\n      swap1\n      dup4\n      0xffffffffffffffffffffffffffffffffffffffff\n      and\n      mul\n      or\n      swap1\n      sstore\n      pop\n        /* \"contracts/w6_SupplyChainContractAsm.sol\":4215:4230  block.timestamp */\n      timestamp\n        /* \"contracts/w6_SupplyChainContractAsm.sol\":4183:4191  products */\n      0x04\n        /* \"contracts/w6_SupplyChainContractAsm.sol\":4183:4202  products[productId] */\n      0x00\n        /* \"contracts/w6_SupplyChainContractAsm.sol\":4192:4201  productId */\n      dup6\n        /* \"contracts/w6_SupplyChainContractAsm.sol\":4183:4202  products[productId] */\n      dup2\n      mstore\n      0x20\n      add\n      swap1\n      dup2\n      mstore\n      0x20\n      add\n      0x00\n      keccak256\n        /* \"contracts/w6_SupplyChainContractAsm.sol\":4183:4212  products[productId].timestamp */\n      0x04\n      add\n        /* \"contracts/w6_SupplyChainContractAsm.sol\":4183:4230  products[productId].timestamp = block.timestamp */\n      dup2\n      swap1\n      sstore\n      pop\n        /* \"contracts/w6_SupplyChainContractAsm.sol\":4293:4301  newOwner */\n      dup2\n        /* \"contracts/w6_SupplyChainContractAsm.sol\":4245:4302  OwnershipTransferred( productId, previousOwner, newOwner) */\n      0xffffffffffffffffffffffffffffffffffffffff\n      and\n        /* \"contracts/w6_SupplyChainContractAsm.sol\":4278:4291  previousOwner */\n      dup2\n        /* \"contracts/w6_SupplyChainContractAsm.sol\":4245:4302  OwnershipTransferred( productId, previousOwner, newOwner) */\n      0xffffffffffffffffffffffffffffffffffffffff\n      and\n        /* \"contracts/w6_SupplyChainContractAsm.sol\":4267:4276  productId */\n      dup5\n        /* \"contracts/w6_SupplyChainContractAsm.sol\":4245:4302  OwnershipTransferred( productId, previousOwner, newOwner) */\n      0x16b85f49bf01212961345d3016c9a531894accf62eb7680f2045d79185cc0ec0\n      mload(0x40)\n      mload(0x40)\n      dup1\n      swap2\n      sub\n      swap1\n      log4\n        /* \"contracts/w6_SupplyChainContractAsm.sol\":3552:4309  {... */\n      pop\n        /* \"contracts/w6_SupplyChainContractAsm.sol\":3460:4309  function transferProductOwnership(uint256 productId, address newOwner) public onlyAuthorized{... */\n      pop\n      pop\n      jump\t// out\n        /* \"contracts/w6_SupplyChainContractAsm.sol\":277:331  mapping(address => bool) public authorizedParticipants */\n    tag_60:\n      mstore(0x20, 0x03)\n      dup1\n      0x00\n      mstore\n      keccak256(0x00, 0x40)\n      0x00\n      swap2\n      pop\n      sload\n      swap1\n      0x0100\n      exp\n      swap1\n      div\n      0xff\n      and\n      dup2\n      jump\t// out\n        /* \"contracts/w6_SupplyChainContractAsm.sol\":111:131  address public owner */\n    tag_63:\n      0x00\n      dup1\n      sload\n      swap1\n      0x0100\n      exp\n      swap1\n      div\n      0xffffffffffffffffffffffffffffffffffffffff\n      and\n      dup2\n      jump\t// out\n        /* \"contracts/w6_SupplyChainContractAsm.sol\":2785:3454  function registerProduct(string memory name, string memory description) public onlyAuthorized{... */\n    tag_69:\n        /* \"contracts/w6_SupplyChainContractAsm.sol\":2240:2262  authorizedParticipants */\n      0x03\n        /* \"contracts/w6_SupplyChainContractAsm.sol\":2240:2274  authorizedParticipants[msg.sender] */\n      0x00\n        /* \"contracts/w6_SupplyChainContractAsm.sol\":2263:2273  msg.sender */\n      caller\n        /* \"contracts/w6_SupplyChainContractAsm.sol\":2240:2274  authorizedParticipants[msg.sender] */\n      0xffffffffffffffffffffffffffffffffffffffff\n      and\n      0xffffffffffffffffffffffffffffffffffffffff\n      and\n      dup2\n      mstore\n      0x20\n      add\n      swap1\n      dup2\n      mstore\n      0x20\n      add\n      0x00\n      keccak256\n      0x00\n      swap1\n      sload\n      swap1\n      0x0100\n      exp\n      swap1\n      div\n      0xff\n      and\n        /* \"contracts/w6_SupplyChainContractAsm.sol\":2232:2293  require(authorizedParticipants[msg.sender], \"Not authorized\") */\n      tag_279\n      jumpi\n      mload(0x40)\n      0x08c379a000000000000000000000000000000000000000000000000000000000\n      dup2\n      mstore\n      0x04\n      add\n      tag_280\n      swap1\n      tag_109\n      jump\t// in\n    tag_280:\n      mload(0x40)\n      dup1\n      swap2\n      sub\n      swap1\n      revert\n    tag_279:\n        /* \"contracts/w6_SupplyChainContractAsm.sol\":2926:2927  0 */\n      0x00\n        /* \"contracts/w6_SupplyChainContractAsm.sol\":2911:2915  name */\n      dup3\n        /* \"contracts/w6_SupplyChainContractAsm.sol\":2905:2923  bytes(name).length */\n      mload\n        /* \"contracts/w6_SupplyChainContractAsm.sol\":2905:2927  bytes(name).length > 0 */\n      gt\n        /* \"contracts/w6_SupplyChainContractAsm.sol\":2897:2952  require(bytes(name).length > 0, \"Name cannot be empty\") */\n      tag_282\n      jumpi\n      mload(0x40)\n      0x08c379a000000000000000000000000000000000000000000000000000000000\n      dup2\n      mstore\n      0x04\n      add\n      tag_283\n      swap1\n      tag_284\n      jump\t// in\n    tag_283:\n      mload(0x40)\n      dup1\n      swap2\n      sub\n      swap1\n      revert\n    tag_282:\n        /* \"contracts/w6_SupplyChainContractAsm.sol\":2998:2999  0 */\n      0x00\n        /* \"contracts/w6_SupplyChainContractAsm.sol\":2976:2987  description */\n      dup2\n        /* \"contracts/w6_SupplyChainContractAsm.sol\":2970:2995  bytes(description).length */\n      mload\n        /* \"contracts/w6_SupplyChainContractAsm.sol\":2970:2999  bytes(description).length > 0 */\n      gt\n        /* \"contracts/w6_SupplyChainContractAsm.sol\":2962:3031  require(bytes(description).length > 0, \"Description cannot be empty\") */\n      tag_285\n      jumpi\n      mload(0x40)\n      0x08c379a000000000000000000000000000000000000000000000000000000000\n      dup2\n      mstore\n      0x04\n      add\n      tag_286\n      swap1\n      tag_287\n      jump\t// in\n    tag_286:\n      mload(0x40)\n      dup1\n      swap2\n      sub\n      swap1\n      revert\n    tag_285:\n        /* \"contracts/w6_SupplyChainContractAsm.sol\":3050:3062  productCount */\n      0x01\n      0x00\n        /* \"contracts/w6_SupplyChainContractAsm.sol\":3050:3064  productCount++ */\n      dup2\n      sload\n      dup1\n      swap3\n      swap2\n      swap1\n      tag_288\n      swap1\n      tag_204\n      jump\t// in\n    tag_288:\n      swap2\n      swap1\n      pop\n      sstore\n      pop\n        /* \"contracts/w6_SupplyChainContractAsm.sol\":3074:3091  uint256 productID */\n      0x00\n        /* \"contracts/w6_SupplyChainContractAsm.sol\":3094:3106  productCount */\n      sload(0x01)\n        /* \"contracts/w6_SupplyChainContractAsm.sol\":3074:3106  uint256 productID = productCount */\n      swap1\n      pop\n        /* \"contracts/w6_SupplyChainContractAsm.sol\":3138:3390  Product({... */\n      mload(0x40)\n      dup1\n      0xc0\n      add\n      0x40\n      mstore\n      dup1\n        /* \"contracts/w6_SupplyChainContractAsm.sol\":3164:3173  productID */\n      dup3\n        /* \"contracts/w6_SupplyChainContractAsm.sol\":3138:3390  Product({... */\n      dup2\n      mstore\n      0x20\n      add\n        /* \"contracts/w6_SupplyChainContractAsm.sol\":3193:3197  name */\n      dup5\n        /* \"contracts/w6_SupplyChainContractAsm.sol\":3138:3390  Product({... */\n      dup2\n      mstore\n      0x20\n      add\n        /* \"contracts/w6_SupplyChainContractAsm.sol\":3224:3235  description */\n      dup4\n        /* \"contracts/w6_SupplyChainContractAsm.sol\":3138:3390  Product({... */\n      dup2\n      mstore\n      0x20\n      add\n        /* \"contracts/w6_SupplyChainContractAsm.sol\":3263:3273  msg.sender */\n      caller\n        /* \"contracts/w6_SupplyChainContractAsm.sol\":3138:3390  Product({... */\n      0xffffffffffffffffffffffffffffffffffffffff\n      and\n      dup2\n      mstore\n      0x20\n      add\n        /* \"contracts/w6_SupplyChainContractAsm.sol\":3298:3313  block.timestamp */\n      timestamp\n        /* \"contracts/w6_SupplyChainContractAsm.sol\":3138:3390  Product({... */\n      dup2\n      mstore\n      0x20\n      add\n        /* \"contracts/w6_SupplyChainContractAsm.sol\":3339:3344  false */\n      0x00\n        /* \"contracts/w6_SupplyChainContractAsm.sol\":3138:3390  Product({... */\n      iszero\n      iszero\n      dup2\n      mstore\n      pop\n        /* \"contracts/w6_SupplyChainContractAsm.sol\":3116:3124  products */\n      0x04\n        /* \"contracts/w6_SupplyChainContractAsm.sol\":3116:3135  products[productID] */\n      0x00\n        /* \"contracts/w6_SupplyChainContractAsm.sol\":3125:3134  productID */\n      dup4\n        /* \"contracts/w6_SupplyChainContractAsm.sol\":3116:3135  products[productID] */\n      dup2\n      mstore\n      0x20\n      add\n      swap1\n      dup2\n      mstore\n      0x20\n      add\n      0x00\n      keccak256\n        /* \"contracts/w6_SupplyChainContractAsm.sol\":3116:3390  products[productID] = Product({... */\n      0x00\n      dup3\n      add\n      mload\n      dup2\n      0x00\n      add\n      sstore\n      0x20\n      dup3\n      add\n      mload\n      dup2\n      0x01\n      add\n      swap1\n      dup2\n      tag_289\n      swap2\n      swap1\n      tag_224\n      jump\t// in\n    tag_289:\n      pop\n      0x40\n      dup3\n      add\n      mload\n      dup2\n      0x02\n      add\n      swap1\n      dup2\n      tag_290\n      swap2\n      swap1\n      tag_224\n      jump\t// in\n    tag_290:\n      pop\n      0x60\n      dup3\n      add\n      mload\n      dup2\n      0x03\n      add\n      exp(0x0100, 0x00)\n      dup2\n      sload\n      dup2\n      0xffffffffffffffffffffffffffffffffffffffff\n      mul\n      not\n      and\n      swap1\n      dup4\n      0xffffffffffffffffffffffffffffffffffffffff\n      and\n      mul\n      or\n      swap1\n      sstore\n      pop\n      0x80\n      dup3\n      add\n      mload\n      dup2\n      0x04\n      add\n      sstore\n      0xa0\n      dup3\n      add\n      mload\n      dup2\n      0x05\n      add\n      exp(0x0100, 0x00)\n      dup2\n      sload\n      dup2\n      0xff\n      mul\n      not\n      and\n      swap1\n      dup4\n      iszero\n      iszero\n      mul\n      or\n      swap1\n      sstore\n      pop\n      swap1\n      pop\n      pop\n        /* \"contracts/w6_SupplyChainContractAsm.sol\":3441:3446  owner */\n      0x00\n      dup1\n      sload\n      swap1\n      0x0100\n      exp\n      swap1\n      div\n      0xffffffffffffffffffffffffffffffffffffffff\n      and\n        /* \"contracts/w6_SupplyChainContractAsm.sol\":3406:3447  ProdustRegistered(productID, name, owner) */\n      0xffffffffffffffffffffffffffffffffffffffff\n      and\n        /* \"contracts/w6_SupplyChainContractAsm.sol\":3424:3433  productID */\n      dup2\n        /* \"contracts/w6_SupplyChainContractAsm.sol\":3406:3447  ProdustRegistered(productID, name, owner) */\n      0x0cab8542fad5393d8a674ae5bb9094c309e41fdf2bf941b1d4a44fb4a790ff1c\n        /* \"contracts/w6_SupplyChainContractAsm.sol\":3435:3439  name */\n      dup6\n        /* \"contracts/w6_SupplyChainContractAsm.sol\":3406:3447  ProdustRegistered(productID, name, owner) */\n      mload(0x40)\n      tag_291\n      swap2\n      swap1\n      tag_98\n      jump\t// in\n    tag_291:\n      mload(0x40)\n      dup1\n      swap2\n      sub\n      swap1\n      log3\n        /* \"contracts/w6_SupplyChainContractAsm.sol\":2878:3454  {... */\n      pop\n        /* \"contracts/w6_SupplyChainContractAsm.sol\":2785:3454  function registerProduct(string memory name, string memory description) public onlyAuthorized{... */\n      pop\n      pop\n      jump\t// out\n        /* \"contracts/w6_SupplyChainContractAsm.sol\":5433:6134  function recallProduct(uint256 productId, string memory reasons) public onlyAuthorized { //Verify caller authorization done... */\n    tag_72:\n        /* \"contracts/w6_SupplyChainContractAsm.sol\":2240:2262  authorizedParticipants */\n      0x03\n        /* \"contracts/w6_SupplyChainContractAsm.sol\":2240:2274  authorizedParticipants[msg.sender] */\n      0x00\n        /* \"contracts/w6_SupplyChainContractAsm.sol\":2263:2273  msg.sender */\n      caller\n        /* \"contracts/w6_SupplyChainContractAsm.sol\":2240:2274  authorizedParticipants[msg.sender] */\n      0xffffffffffffffffffffffffffffffffffffffff\n      and\n      0xffffffffffffffffffffffffffffffffffffffff\n      and\n      dup2\n      mstore\n      0x20\n      add\n      swap1\n      dup2\n      mstore\n      0x20\n      add\n      0x00\n      keccak256\n      0x00\n      swap1\n      sload\n      swap1\n      0x0100\n      exp\n      swap1\n      div\n      0xff\n      and\n        /* \"contracts/w6_SupplyChainContractAsm.sol\":2232:2293  require(authorizedParticipants[msg.sender], \"Not authorized\") */\n      tag_293\n      jumpi\n      mload(0x40)\n      0x08c379a000000000000000000000000000000000000000000000000000000000\n      dup2\n      mstore\n      0x04\n      add\n      tag_294\n      swap1\n      tag_109\n      jump\t// in\n    tag_294:\n      mload(0x40)\n      dup1\n      swap2\n      sub\n      swap1\n      revert\n    tag_293:\n        /* \"contracts/w6_SupplyChainContractAsm.sol\":5607:5631  productExists(productId) */\n      tag_296\n        /* \"contracts/w6_SupplyChainContractAsm.sol\":5621:5630  productId */\n      dup3\n        /* \"contracts/w6_SupplyChainContractAsm.sol\":5607:5620  productExists */\n      tag_79\n        /* \"contracts/w6_SupplyChainContractAsm.sol\":5607:5631  productExists(productId) */\n      jump\t// in\n    tag_296:\n        /* \"contracts/w6_SupplyChainContractAsm.sol\":5599:5657  require(productExists(productId), \"Product doesnt exists\") */\n      tag_297\n      jumpi\n      mload(0x40)\n      0x08c379a000000000000000000000000000000000000000000000000000000000\n      dup2\n      mstore\n      0x04\n      add\n      tag_298\n      swap1\n      tag_299\n      jump\t// in\n    tag_298:\n      mload(0x40)\n      dup1\n      swap2\n      sub\n      swap1\n      revert\n    tag_297:\n        /* \"contracts/w6_SupplyChainContractAsm.sol\":5757:5765  products */\n      0x04\n        /* \"contracts/w6_SupplyChainContractAsm.sol\":5757:5776  products[productId] */\n      0x00\n        /* \"contracts/w6_SupplyChainContractAsm.sol\":5766:5775  productId */\n      dup4\n        /* \"contracts/w6_SupplyChainContractAsm.sol\":5757:5776  products[productId] */\n      dup2\n      mstore\n      0x20\n      add\n      swap1\n      dup2\n      mstore\n      0x20\n      add\n      0x00\n      keccak256\n        /* \"contracts/w6_SupplyChainContractAsm.sol\":5757:5787  products[productId].isRecalled */\n      0x05\n      add\n      0x00\n      swap1\n      sload\n      swap1\n      0x0100\n      exp\n      swap1\n      div\n      0xff\n      and\n        /* \"contracts/w6_SupplyChainContractAsm.sol\":5756:5787  !products[productId].isRecalled */\n      iszero\n        /* \"contracts/w6_SupplyChainContractAsm.sol\":5748:5808  require(!products[productId].isRecalled, \"Already recalled\") */\n      tag_300\n      jumpi\n      mload(0x40)\n      0x08c379a000000000000000000000000000000000000000000000000000000000\n      dup2\n      mstore\n      0x04\n      add\n      tag_301\n      swap1\n      tag_302\n      jump\t// in\n    tag_301:\n      mload(0x40)\n      dup1\n      swap2\n      sub\n      swap1\n      revert\n    tag_300:\n        /* \"contracts/w6_SupplyChainContractAsm.sol\":5938:5942  true */\n      0x01\n        /* \"contracts/w6_SupplyChainContractAsm.sol\":5905:5913  products */\n      0x04\n        /* \"contracts/w6_SupplyChainContractAsm.sol\":5905:5924  products[productId] */\n      0x00\n        /* \"contracts/w6_SupplyChainContractAsm.sol\":5914:5923  productId */\n      dup5\n        /* \"contracts/w6_SupplyChainContractAsm.sol\":5905:5924  products[productId] */\n      dup2\n      mstore\n      0x20\n      add\n      swap1\n      dup2\n      mstore\n      0x20\n      add\n      0x00\n      keccak256\n        /* \"contracts/w6_SupplyChainContractAsm.sol\":5905:5935  products[productId].isRecalled */\n      0x05\n      add\n      0x00\n        /* \"contracts/w6_SupplyChainContractAsm.sol\":5905:5942  products[productId].isRecalled = true */\n      0x0100\n      exp\n      dup2\n      sload\n      dup2\n      0xff\n      mul\n      not\n      and\n      swap1\n      dup4\n      iszero\n      iszero\n      mul\n      or\n      swap1\n      sstore\n      pop\n        /* \"contracts/w6_SupplyChainContractAsm.sol\":6036:6045  productId */\n      dup2\n        /* \"contracts/w6_SupplyChainContractAsm.sol\":6020:6055  ProductRecalled(productId, reasons) */\n      0xcf945375036ee1ff64a8885b9c36844ac503b07ad7b0b3b78d023eb0a4cc623c\n        /* \"contracts/w6_SupplyChainContractAsm.sol\":6047:6054  reasons */\n      dup3\n        /* \"contracts/w6_SupplyChainContractAsm.sol\":6020:6055  ProductRecalled(productId, reasons) */\n      mload(0x40)\n      tag_303\n      swap2\n      swap1\n      tag_98\n      jump\t// in\n    tag_303:\n      mload(0x40)\n      dup1\n      swap2\n      sub\n      swap1\n      log2\n        /* \"contracts/w6_SupplyChainContractAsm.sol\":5433:6134  function recallProduct(uint256 productId, string memory reasons) public onlyAuthorized { //Verify caller authorization done... */\n      pop\n      pop\n      jump\t// out\n        /* \"contracts/w6_SupplyChainContractAsm.sol\":4569:4741  function batchExists(uint256 batchId) public view returns (bool) {... */\n    tag_75:\n        /* \"contracts/w6_SupplyChainContractAsm.sol\":4628:4632  bool */\n      0x00\n        /* \"contracts/w6_SupplyChainContractAsm.sol\":4675:4676  0 */\n      dup1\n        /* \"contracts/w6_SupplyChainContractAsm.sol\":4648:4655  batches */\n      0x05\n        /* \"contracts/w6_SupplyChainContractAsm.sol\":4648:4664  batches[batchId] */\n      0x00\n        /* \"contracts/w6_SupplyChainContractAsm.sol\":4656:4663  batchId */\n      dup5\n        /* \"contracts/w6_SupplyChainContractAsm.sol\":4648:4664  batches[batchId] */\n      dup2\n      mstore\n      0x20\n      add\n      swap1\n      dup2\n      mstore\n      0x20\n      add\n      0x00\n      keccak256\n        /* \"contracts/w6_SupplyChainContractAsm.sol\":4648:4672  batches[batchId].batchId */\n      0x06\n      add\n      sload\n        /* \"contracts/w6_SupplyChainContractAsm.sol\":4648:4676  batches[batchId].batchId !=0 */\n      eq\n        /* \"contracts/w6_SupplyChainContractAsm.sol\":4644:4713  if (batches[batchId].batchId !=0){... */\n      tag_305\n      jumpi\n        /* \"contracts/w6_SupplyChainContractAsm.sol\":4698:4702  true */\n      0x01\n        /* \"contracts/w6_SupplyChainContractAsm.sol\":4691:4702  return true */\n      swap1\n      pop\n      jump(tag_304)\n        /* \"contracts/w6_SupplyChainContractAsm.sol\":4644:4713  if (batches[batchId].batchId !=0){... */\n    tag_305:\n        /* \"contracts/w6_SupplyChainContractAsm.sol\":4729:4734  false */\n      0x00\n        /* \"contracts/w6_SupplyChainContractAsm.sol\":4722:4734  return false */\n      swap1\n      pop\n        /* \"contracts/w6_SupplyChainContractAsm.sol\":4569:4741  function batchExists(uint256 batchId) public view returns (bool) {... */\n    tag_304:\n      swap2\n      swap1\n      pop\n      jump\t// out\n        /* \"contracts/w6_SupplyChainContractAsm.sol\":4315:4563  function productExists(uint256 productId) public view returns (bool) {... */\n    tag_79:\n        /* \"contracts/w6_SupplyChainContractAsm.sol\":4378:4382  bool */\n      0x00\n        /* \"contracts/w6_SupplyChainContractAsm.sol\":4399:4405  uint i */\n      dup1\n        /* \"contracts/w6_SupplyChainContractAsm.sol\":4408:4409  1 */\n      0x01\n        /* \"contracts/w6_SupplyChainContractAsm.sol\":4399:4409  uint i = 1 */\n      swap1\n      pop\n        /* \"contracts/w6_SupplyChainContractAsm.sol\":4394:4535  for (uint i = 1; i <= productCount; i++) {... */\n    tag_307:\n        /* \"contracts/w6_SupplyChainContractAsm.sol\":4416:4428  productCount */\n      sload(0x01)\n        /* \"contracts/w6_SupplyChainContractAsm.sol\":4411:4412  i */\n      dup2\n        /* \"contracts/w6_SupplyChainContractAsm.sol\":4411:4428  i <= productCount */\n      gt\n        /* \"contracts/w6_SupplyChainContractAsm.sol\":4394:4535  for (uint i = 1; i <= productCount; i++) {... */\n      tag_308\n      jumpi\n        /* \"contracts/w6_SupplyChainContractAsm.sol\":4471:4480  productId */\n      dup3\n        /* \"contracts/w6_SupplyChainContractAsm.sol\":4453:4461  products */\n      0x04\n        /* \"contracts/w6_SupplyChainContractAsm.sol\":4453:4464  products[i] */\n      0x00\n        /* \"contracts/w6_SupplyChainContractAsm.sol\":4462:4463  i */\n      dup4\n        /* \"contracts/w6_SupplyChainContractAsm.sol\":4453:4464  products[i] */\n      dup2\n      mstore\n      0x20\n      add\n      swap1\n      dup2\n      mstore\n      0x20\n      add\n      0x00\n      keccak256\n        /* \"contracts/w6_SupplyChainContractAsm.sol\":4453:4467  products[i].id */\n      0x00\n      add\n      sload\n        /* \"contracts/w6_SupplyChainContractAsm.sol\":4453:4480  products[i].id == productId */\n      sub\n        /* \"contracts/w6_SupplyChainContractAsm.sol\":4449:4525  if (products[i].id == productId){... */\n      tag_310\n      jumpi\n        /* \"contracts/w6_SupplyChainContractAsm.sol\":4506:4510  true */\n      0x01\n        /* \"contracts/w6_SupplyChainContractAsm.sol\":4499:4510  return true */\n      swap2\n      pop\n      pop\n      jump(tag_306)\n        /* \"contracts/w6_SupplyChainContractAsm.sol\":4449:4525  if (products[i].id == productId){... */\n    tag_310:\n        /* \"contracts/w6_SupplyChainContractAsm.sol\":4430:4433  i++ */\n      dup1\n      dup1\n      tag_311\n      swap1\n      tag_204\n      jump\t// in\n    tag_311:\n      swap2\n      pop\n      pop\n        /* \"contracts/w6_SupplyChainContractAsm.sol\":4394:4535  for (uint i = 1; i <= productCount; i++) {... */\n      jump(tag_307)\n    tag_308:\n      pop\n        /* \"contracts/w6_SupplyChainContractAsm.sol\":4551:4556  false */\n      0x00\n        /* \"contracts/w6_SupplyChainContractAsm.sol\":4544:4556  return false */\n      swap1\n      pop\n        /* \"contracts/w6_SupplyChainContractAsm.sol\":4315:4563  function productExists(uint256 productId) public view returns (bool) {... */\n    tag_306:\n      swap2\n      swap1\n      pop\n      jump\t// out\n        /* \"contracts/w6_SupplyChainContractAsm.sol\":413:453  mapping(uint256 => Batch) public batches */\n    tag_83:\n      mstore(0x20, 0x05)\n      dup1\n      0x00\n      mstore\n      keccak256(0x00, 0x40)\n      0x00\n      swap2\n      pop\n      swap1\n      pop\n      dup1\n      0x03\n      add\n      0x00\n      swap1\n      sload\n      swap1\n      0x0100\n      exp\n      swap1\n      div\n      0xffffffffffffffffffffffffffffffffffffffff\n      and\n      swap1\n      dup1\n      0x04\n      add\n      sload\n      swap1\n      dup1\n      0x05\n      add\n      0x00\n      swap1\n      sload\n      swap1\n      0x0100\n      exp\n      swap1\n      div\n      0xff\n      and\n      swap1\n      dup1\n      0x06\n      add\n      sload\n      swap1\n      dup1\n      0x07\n      add\n      dup1\n      sload\n      tag_312\n      swap1\n      tag_132\n      jump\t// in\n    tag_312:\n      dup1\n      0x1f\n      add\n      0x20\n      dup1\n      swap2\n      div\n      mul\n      0x20\n      add\n      mload(0x40)\n      swap1\n      dup2\n      add\n      0x40\n      mstore\n      dup1\n      swap3\n      swap2\n      swap1\n      dup2\n      dup2\n      mstore\n      0x20\n      add\n      dup3\n      dup1\n      sload\n      tag_313\n      swap1\n      tag_132\n      jump\t// in\n    tag_313:\n      dup1\n      iszero\n      tag_314\n      jumpi\n      dup1\n      0x1f\n      lt\n      tag_315\n      jumpi\n      0x0100\n      dup1\n      dup4\n      sload\n      div\n      mul\n      dup4\n      mstore\n      swap2\n      0x20\n      add\n      swap2\n      jump(tag_314)\n    tag_315:\n      dup3\n      add\n      swap2\n      swap1\n      0x00\n      mstore\n      keccak256(0x00, 0x20)\n      swap1\n    tag_316:\n      dup2\n      sload\n      dup2\n      mstore\n      swap1\n      0x01\n      add\n      swap1\n      0x20\n      add\n      dup1\n      dup4\n      gt\n      tag_316\n      jumpi\n      dup3\n      swap1\n      sub\n      0x1f\n      and\n      dup3\n      add\n      swap2\n    tag_314:\n      pop\n      pop\n      pop\n      pop\n      pop\n      swap1\n      pop\n      dup6\n      jump\t// out\n        /* \"contracts/w6_SupplyChainContractAsm.sol\":6140:6653  function getProduct(uint256 productId) public view returns (... */\n    tag_88:\n        /* \"contracts/w6_SupplyChainContractAsm.sol\":6209:6219  uint256 id */\n      0x00\n        /* \"contracts/w6_SupplyChainContractAsm.sol\":6229:6247  string memory name */\n      0x60\n        /* \"contracts/w6_SupplyChainContractAsm.sol\":6257:6277  address currentOwner */\n      0x00\n        /* \"contracts/w6_SupplyChainContractAsm.sol\":6287:6304  uint256 timestamp */\n      dup1\n        /* \"contracts/w6_SupplyChainContractAsm.sol\":6314:6329  bool isRecalled */\n      0x00\n        /* \"contracts/w6_SupplyChainContractAsm.sol\":6382:6404  Product memory product */\n      dup1\n        /* \"contracts/w6_SupplyChainContractAsm.sol\":6407:6415  products */\n      0x04\n        /* \"contracts/w6_SupplyChainContractAsm.sol\":6407:6426  products[productId] */\n      0x00\n        /* \"contracts/w6_SupplyChainContractAsm.sol\":6416:6425  productId */\n      dup9\n        /* \"contracts/w6_SupplyChainContractAsm.sol\":6407:6426  products[productId] */\n      dup2\n      mstore\n      0x20\n      add\n      swap1\n      dup2\n      mstore\n      0x20\n      add\n      0x00\n      keccak256\n        /* \"contracts/w6_SupplyChainContractAsm.sol\":6382:6426  Product memory product = products[productId] */\n      mload(0x40)\n      dup1\n      0xc0\n      add\n      0x40\n      mstore\n      swap1\n      dup2\n      0x00\n      dup3\n      add\n      sload\n      dup2\n      mstore\n      0x20\n      add\n      0x01\n      dup3\n      add\n      dup1\n      sload\n      tag_318\n      swap1\n      tag_132\n      jump\t// in\n    tag_318:\n      dup1\n      0x1f\n      add\n      0x20\n      dup1\n      swap2\n      div\n      mul\n      0x20\n      add\n      mload(0x40)\n      swap1\n      dup2\n      add\n      0x40\n      mstore\n      dup1\n      swap3\n      swap2\n      swap1\n      dup2\n      dup2\n      mstore\n      0x20\n      add\n      dup3\n      dup1\n      sload\n      tag_319\n      swap1\n      tag_132\n      jump\t// in\n    tag_319:\n      dup1\n      iszero\n      tag_320\n      jumpi\n      dup1\n      0x1f\n      lt\n      tag_321\n      jumpi\n      0x0100\n      dup1\n      dup4\n      sload\n      div\n      mul\n      dup4\n      mstore\n      swap2\n      0x20\n      add\n      swap2\n      jump(tag_320)\n    tag_321:\n      dup3\n      add\n      swap2\n      swap1\n      0x00\n      mstore\n      keccak256(0x00, 0x20)\n      swap1\n    tag_322:\n      dup2\n      sload\n      dup2\n      mstore\n      swap1\n      0x01\n      add\n      swap1\n      0x20\n      add\n      dup1\n      dup4\n      gt\n      tag_322\n      jumpi\n      dup3\n      swap1\n      sub\n      0x1f\n      and\n      dup3\n      add\n      swap2\n    tag_320:\n      pop\n      pop\n      pop\n      pop\n      pop\n      dup2\n      mstore\n      0x20\n      add\n      0x02\n      dup3\n      add\n      dup1\n      sload\n      tag_323\n      swap1\n      tag_132\n      jump\t// in\n    tag_323:\n      dup1\n      0x1f\n      add\n      0x20\n      dup1\n      swap2\n      div\n      mul\n      0x20\n      add\n      mload(0x40)\n      swap1\n      dup2\n      add\n      0x40\n      mstore\n      dup1\n      swap3\n      swap2\n      swap1\n      dup2\n      dup2\n      mstore\n      0x20\n      add\n      dup3\n      dup1\n      sload\n      tag_324\n      swap1\n      tag_132\n      jump\t// in\n    tag_324:\n      dup1\n      iszero\n      tag_325\n      jumpi\n      dup1\n      0x1f\n      lt\n      tag_326\n      jumpi\n      0x0100\n      dup1\n      dup4\n      sload\n      div\n      mul\n      dup4\n      mstore\n      swap2\n      0x20\n      add\n      swap2\n      jump(tag_325)\n    tag_326:\n      dup3\n      add\n      swap2\n      swap1\n      0x00\n      mstore\n      keccak256(0x00, 0x20)\n      swap1\n    tag_327:\n      dup2\n      sload\n      dup2\n      mstore\n      swap1\n      0x01\n      add\n      swap1\n      0x20\n      add\n      dup1\n      dup4\n      gt\n      tag_327\n      jumpi\n      dup3\n      swap1\n      sub\n      0x1f\n      and\n      dup3\n      add\n      swap2\n    tag_325:\n      pop\n      pop\n      pop\n      pop\n      pop\n      dup2\n      mstore\n      0x20\n      add\n      0x03\n      dup3\n      add\n      0x00\n      swap1\n      sload\n      swap1\n      0x0100\n      exp\n      swap1\n      div\n      0xffffffffffffffffffffffffffffffffffffffff\n      and\n      0xffffffffffffffffffffffffffffffffffffffff\n      and\n      0xffffffffffffffffffffffffffffffffffffffff\n      and\n      dup2\n      mstore\n      0x20\n      add\n      0x04\n      dup3\n      add\n      sload\n      dup2\n      mstore\n      0x20\n      add\n      0x05\n      dup3\n      add\n      0x00\n      swap1\n      sload\n      swap1\n      0x0100\n      exp\n      swap1\n      div\n      0xff\n      and\n      iszero\n      iszero\n      iszero\n      iszero\n      dup2\n      mstore\n      pop\n      pop\n      swap1\n      pop\n        /* \"contracts/w6_SupplyChainContractAsm.sol\":6503:6510  product */\n      dup1\n        /* \"contracts/w6_SupplyChainContractAsm.sol\":6503:6513  product.id */\n      0x00\n      add\n      mload\n        /* \"contracts/w6_SupplyChainContractAsm.sol\":6527:6534  product */\n      dup2\n        /* \"contracts/w6_SupplyChainContractAsm.sol\":6527:6539  product.name */\n      0x20\n      add\n      mload\n        /* \"contracts/w6_SupplyChainContractAsm.sol\":6553:6560  product */\n      dup3\n        /* \"contracts/w6_SupplyChainContractAsm.sol\":6553:6573  product.currentOwner */\n      0x60\n      add\n      mload\n        /* \"contracts/w6_SupplyChainContractAsm.sol\":6587:6594  product */\n      dup4\n        /* \"contracts/w6_SupplyChainContractAsm.sol\":6587:6604  product.timestamp */\n      0x80\n      add\n      mload\n        /* \"contracts/w6_SupplyChainContractAsm.sol\":6618:6625  product */\n      dup5\n        /* \"contracts/w6_SupplyChainContractAsm.sol\":6618:6636  product.isRecalled */\n      0xa0\n      add\n      mload\n        /* \"contracts/w6_SupplyChainContractAsm.sol\":6482:6646  return (... */\n      swap6\n      pop\n      swap6\n      pop\n      swap6\n      pop\n      swap6\n      pop\n      swap6\n      pop\n      pop\n        /* \"contracts/w6_SupplyChainContractAsm.sol\":6140:6653  function getProduct(uint256 productId) public view returns (... */\n      swap2\n      swap4\n      swap6\n      swap1\n      swap3\n      swap5\n      pop\n      jump\t// out\n        /* \"contracts/w6_SupplyChainContractAsm.sol\":2452:2779  function authorizeParticipant(address participant) public onlyOwner{... */\n    tag_93:\n        /* \"contracts/w6_SupplyChainContractAsm.sol\":2150:2155  owner */\n      0x00\n      dup1\n      sload\n      swap1\n      0x0100\n      exp\n      swap1\n      div\n      0xffffffffffffffffffffffffffffffffffffffff\n      and\n        /* \"contracts/w6_SupplyChainContractAsm.sol\":2136:2155  msg.sender == owner */\n      0xffffffffffffffffffffffffffffffffffffffff\n      and\n        /* \"contracts/w6_SupplyChainContractAsm.sol\":2136:2146  msg.sender */\n      caller\n        /* \"contracts/w6_SupplyChainContractAsm.sol\":2136:2155  msg.sender == owner */\n      0xffffffffffffffffffffffffffffffffffffffff\n      and\n      eq\n        /* \"contracts/w6_SupplyChainContractAsm.sol\":2128:2173  require(msg.sender == owner, \"Not the owner\") */\n      tag_329\n      jumpi\n      mload(0x40)\n      0x08c379a000000000000000000000000000000000000000000000000000000000\n      dup2\n      mstore\n      0x04\n      add\n      tag_330\n      swap1\n      tag_331\n      jump\t// in\n    tag_330:\n      mload(0x40)\n      dup1\n      swap2\n      sub\n      swap1\n      revert\n    tag_329:\n        /* \"contracts/w6_SupplyChainContractAsm.sol\":2560:2561  0 */\n      0x00\n        /* \"contracts/w6_SupplyChainContractAsm.sol\":2537:2562  participant != address(0) */\n      0xffffffffffffffffffffffffffffffffffffffff\n      and\n        /* \"contracts/w6_SupplyChainContractAsm.sol\":2537:2548  participant */\n      dup2\n        /* \"contracts/w6_SupplyChainContractAsm.sol\":2537:2562  participant != address(0) */\n      0xffffffffffffffffffffffffffffffffffffffff\n      and\n      sub\n        /* \"contracts/w6_SupplyChainContractAsm.sol\":2529:2582  require(participant != address(0), \"Invalid address\") */\n      tag_333\n      jumpi\n      mload(0x40)\n      0x08c379a000000000000000000000000000000000000000000000000000000000\n      dup2\n      mstore\n      0x04\n      add\n      tag_334\n      swap1\n      tag_335\n      jump\t// in\n    tag_334:\n      mload(0x40)\n      dup1\n      swap2\n      sub\n      swap1\n      revert\n    tag_333:\n        /* \"contracts/w6_SupplyChainContractAsm.sol\":2601:2623  authorizedParticipants */\n      0x03\n        /* \"contracts/w6_SupplyChainContractAsm.sol\":2601:2636  authorizedParticipants[participant] */\n      0x00\n        /* \"contracts/w6_SupplyChainContractAsm.sol\":2624:2635  participant */\n      dup3\n        /* \"contracts/w6_SupplyChainContractAsm.sol\":2601:2636  authorizedParticipants[participant] */\n      0xffffffffffffffffffffffffffffffffffffffff\n      and\n      0xffffffffffffffffffffffffffffffffffffffff\n      and\n      dup2\n      mstore\n      0x20\n      add\n      swap1\n      dup2\n      mstore\n      0x20\n      add\n      0x00\n      keccak256\n      0x00\n      swap1\n      sload\n      swap1\n      0x0100\n      exp\n      swap1\n      div\n      0xff\n      and\n        /* \"contracts/w6_SupplyChainContractAsm.sol\":2600:2636  !authorizedParticipants[participant] */\n      iszero\n        /* \"contracts/w6_SupplyChainContractAsm.sol\":2592:2671  require(!authorizedParticipants[participant], \"Participant already authorized\") */\n      tag_336\n      jumpi\n      mload(0x40)\n      0x08c379a000000000000000000000000000000000000000000000000000000000\n      dup2\n      mstore\n      0x04\n      add\n      tag_337\n      swap1\n      tag_338\n      jump\t// in\n    tag_337:\n      mload(0x40)\n      dup1\n      swap2\n      sub\n      swap1\n      revert\n    tag_336:\n        /* \"contracts/w6_SupplyChainContractAsm.sol\":2719:2723  true */\n      0x01\n        /* \"contracts/w6_SupplyChainContractAsm.sol\":2681:2703  authorizedParticipants */\n      0x03\n        /* \"contracts/w6_SupplyChainContractAsm.sol\":2681:2716  authorizedParticipants[participant] */\n      0x00\n        /* \"contracts/w6_SupplyChainContractAsm.sol\":2704:2715  participant */\n      dup4\n        /* \"contracts/w6_SupplyChainContractAsm.sol\":2681:2716  authorizedParticipants[participant] */\n      0xffffffffffffffffffffffffffffffffffffffff\n      and\n      0xffffffffffffffffffffffffffffffffffffffff\n      and\n      dup2\n      mstore\n      0x20\n      add\n      swap1\n      dup2\n      mstore\n      0x20\n      add\n      0x00\n      keccak256\n      0x00\n        /* \"contracts/w6_SupplyChainContractAsm.sol\":2681:2723  authorizedParticipants[participant] = true */\n      0x0100\n      exp\n      dup2\n      sload\n      dup2\n      0xff\n      mul\n      not\n      and\n      swap1\n      dup4\n      iszero\n      iszero\n      mul\n      or\n      swap1\n      sstore\n      pop\n        /* \"contracts/w6_SupplyChainContractAsm.sol\":2760:2771  participant */\n      dup1\n        /* \"contracts/w6_SupplyChainContractAsm.sol\":2738:2772  ParticipantAuthorized(participant) */\n      0xffffffffffffffffffffffffffffffffffffffff\n      and\n      0x3cbcbb9ba5a54d0762f39fd455fd2900fbcfcd0e0693e2c87db13043c400b55f\n      mload(0x40)\n      mload(0x40)\n      dup1\n      swap2\n      sub\n      swap1\n      log2\n        /* \"contracts/w6_SupplyChainContractAsm.sol\":2452:2779  function authorizeParticipant(address participant) public onlyOwner{... */\n      pop\n      jump\t// out\n        /* \"contracts/w6_SupplyChainContractAsm.sol\":7650:7872  function operationConvert(uint256 x) public pure returns (string memory y){... */\n    tag_96:\n        /* \"contracts/w6_SupplyChainContractAsm.sol\":7708:7723  string memory y */\n      0x60\n        /* \"contracts/w6_SupplyChainContractAsm.sol\":7743:7744  1 */\n      0x01\n        /* \"contracts/w6_SupplyChainContractAsm.sol\":7738:7739  x */\n      dup3\n        /* \"contracts/w6_SupplyChainContractAsm.sol\":7738:7744  x == 1 */\n      sub\n        /* \"contracts/w6_SupplyChainContractAsm.sol\":7734:7865  if (x == 1) return \"resgisterBatch\";... */\n      tag_340\n      jumpi\n        /* \"contracts/w6_SupplyChainContractAsm.sol\":7746:7769  return \"resgisterBatch\" */\n      mload(0x40)\n      dup1\n      0x40\n      add\n      0x40\n      mstore\n      dup1\n      0x0e\n      dup2\n      mstore\n      0x20\n      add\n      0x7265736769737465724261746368000000000000000000000000000000000000\n      dup2\n      mstore\n      pop\n      swap1\n      pop\n      jump(tag_339)\n        /* \"contracts/w6_SupplyChainContractAsm.sol\":7734:7865  if (x == 1) return \"resgisterBatch\";... */\n    tag_340:\n        /* \"contracts/w6_SupplyChainContractAsm.sol\":7793:7794  2 */\n      0x02\n        /* \"contracts/w6_SupplyChainContractAsm.sol\":7788:7789  x */\n      dup3\n        /* \"contracts/w6_SupplyChainContractAsm.sol\":7788:7794  x == 2 */\n      sub\n        /* \"contracts/w6_SupplyChainContractAsm.sol\":7784:7865  if (x == 2) return \"transferBatch\";... */\n      tag_342\n      jumpi\n        /* \"contracts/w6_SupplyChainContractAsm.sol\":7796:7818  return \"transferBatch\" */\n      mload(0x40)\n      dup1\n      0x40\n      add\n      0x40\n      mstore\n      dup1\n      0x0d\n      dup2\n      mstore\n      0x20\n      add\n      0x7472616e73666572426174636800000000000000000000000000000000000000\n      dup2\n      mstore\n      pop\n      swap1\n      pop\n      jump(tag_339)\n        /* \"contracts/w6_SupplyChainContractAsm.sol\":7784:7865  if (x == 2) return \"transferBatch\";... */\n    tag_342:\n        /* \"contracts/w6_SupplyChainContractAsm.sol\":7842:7843  3 */\n      0x03\n        /* \"contracts/w6_SupplyChainContractAsm.sol\":7837:7838  x */\n      dup3\n        /* \"contracts/w6_SupplyChainContractAsm.sol\":7837:7843  x == 3 */\n      sub\n        /* \"contracts/w6_SupplyChainContractAsm.sol\":7833:7865  if (x == 3) return \"recallBatch\" */\n      tag_344\n      jumpi\n        /* \"contracts/w6_SupplyChainContractAsm.sol\":7845:7865  return \"recallBatch\" */\n      mload(0x40)\n      dup1\n      0x40\n      add\n      0x40\n      mstore\n      dup1\n      0x0b\n      dup2\n      mstore\n      0x20\n      add\n      0x726563616c6c4261746368000000000000000000000000000000000000000000\n      dup2\n      mstore\n      pop\n      swap1\n      pop\n      jump(tag_339)\n        /* \"contracts/w6_SupplyChainContractAsm.sol\":7833:7865  if (x == 3) return \"recallBatch\" */\n    tag_344:\n        /* \"contracts/w6_SupplyChainContractAsm.sol\":7650:7872  function operationConvert(uint256 x) public pure returns (string memory y){... */\n    tag_339:\n      swap2\n      swap1\n      pop\n      jump\t// out\n        /* \"contracts/w6_SupplyChainContractAsm.sol\":157:184  uint256 public productCount */\n    tag_100:\n      sload(0x01)\n      dup2\n      jump\t// out\n        /* \"contracts/w6_SupplyChainContractAsm.sol\":7878:9537  function createBatch(... */\n    tag_105:\n        /* \"contracts/w6_SupplyChainContractAsm.sol\":2240:2262  authorizedParticipants */\n      0x03\n        /* \"contracts/w6_SupplyChainContractAsm.sol\":2240:2274  authorizedParticipants[msg.sender] */\n      0x00\n        /* \"contracts/w6_SupplyChainContractAsm.sol\":2263:2273  msg.sender */\n      caller\n        /* \"contracts/w6_SupplyChainContractAsm.sol\":2240:2274  authorizedParticipants[msg.sender] */\n      0xffffffffffffffffffffffffffffffffffffffff\n      and\n      0xffffffffffffffffffffffffffffffffffffffff\n      and\n      dup2\n      mstore\n      0x20\n      add\n      swap1\n      dup2\n      mstore\n      0x20\n      add\n      0x00\n      keccak256\n      0x00\n      swap1\n      sload\n      swap1\n      0x0100\n      exp\n      swap1\n      div\n      0xff\n      and\n        /* \"contracts/w6_SupplyChainContractAsm.sol\":2232:2293  require(authorizedParticipants[msg.sender], \"Not authorized\") */\n      tag_346\n      jumpi\n      mload(0x40)\n      0x08c379a000000000000000000000000000000000000000000000000000000000\n      dup2\n      mstore\n      0x04\n      add\n      tag_347\n      swap1\n      tag_109\n      jump\t// in\n    tag_347:\n      mload(0x40)\n      dup1\n      swap2\n      sub\n      swap1\n      revert\n    tag_346:\n        /* \"contracts/w6_SupplyChainContractAsm.sol\":8184:8217  abi.encodePacked(\"registerBatch\") */\n      add(0x20, mload(0x40))\n      tag_349\n      swap1\n      tag_189\n      jump\t// in\n    tag_349:\n      mload(0x40)\n      0x20\n      dup2\n      dup4\n      sub\n      sub\n      dup2\n      mstore\n      swap1\n      0x40\n      mstore\n        /* \"contracts/w6_SupplyChainContractAsm.sol\":8174:8218  keccak256(abi.encodePacked(\"registerBatch\")) */\n      dup1\n      mload\n      swap1\n      0x20\n      add\n      keccak256\n        /* \"contracts/w6_SupplyChainContractAsm.sol\":8159:8168  operation */\n      dup2\n        /* \"contracts/w6_SupplyChainContractAsm.sol\":8142:8169  abi.encodePacked(operation) */\n      add(0x20, mload(0x40))\n      tag_350\n      swap2\n      swap1\n      tag_191\n      jump\t// in\n    tag_350:\n      mload(0x40)\n      0x20\n      dup2\n      dup4\n      sub\n      sub\n      dup2\n      mstore\n      swap1\n      0x40\n      mstore\n        /* \"contracts/w6_SupplyChainContractAsm.sol\":8132:8170  keccak256(abi.encodePacked(operation)) */\n      dup1\n      mload\n      swap1\n      0x20\n      add\n      keccak256\n        /* \"contracts/w6_SupplyChainContractAsm.sol\":8132:8218  keccak256(abi.encodePacked(operation)) == keccak256(abi.encodePacked(\"registerBatch\")) */\n      sub\n        /* \"contracts/w6_SupplyChainContractAsm.sol\":8128:8751  if (keccak256(abi.encodePacked(operation)) == keccak256(abi.encodePacked(\"registerBatch\"))) {... */\n      tag_351\n      jumpi\n        /* \"contracts/w6_SupplyChainContractAsm.sol\":8259:8260  0 */\n      0x00\n        /* \"contracts/w6_SupplyChainContractAsm.sol\":8242:8248  lst_id */\n      dup5\n        /* \"contracts/w6_SupplyChainContractAsm.sol\":8242:8255  lst_id.length */\n      mload\n        /* \"contracts/w6_SupplyChainContractAsm.sol\":8242:8260  lst_id.length == 0 */\n      eq\n        /* \"contracts/w6_SupplyChainContractAsm.sol\":8234:8305  require(lst_id.length == 0, \"For registerBatch, ID list must be empty\") */\n      tag_352\n      jumpi\n      mload(0x40)\n      0x08c379a000000000000000000000000000000000000000000000000000000000\n      dup2\n      mstore\n      0x04\n      add\n      tag_353\n      swap1\n      tag_354\n      jump\t// in\n    tag_353:\n      mload(0x40)\n      dup1\n      swap2\n      sub\n      swap1\n      revert\n    tag_352:\n        /* \"contracts/w6_SupplyChainContractAsm.sol\":8346:8361  lst_description */\n      dup2\n        /* \"contracts/w6_SupplyChainContractAsm.sol\":8346:8368  lst_description.length */\n      mload\n        /* \"contracts/w6_SupplyChainContractAsm.sol\":8327:8335  lst_name */\n      dup4\n        /* \"contracts/w6_SupplyChainContractAsm.sol\":8327:8342  lst_name.length */\n      mload\n        /* \"contracts/w6_SupplyChainContractAsm.sol\":8327:8368  lst_name.length == lst_description.length */\n      eq\n        /* \"contracts/w6_SupplyChainContractAsm.sol\":8319:8420  require(lst_name.length == lst_description.length, \"Name and description lists must match in length\") */\n      tag_355\n      jumpi\n      mload(0x40)\n      0x08c379a000000000000000000000000000000000000000000000000000000000\n      dup2\n      mstore\n      0x04\n      add\n      tag_356\n      swap1\n      tag_357\n      jump\t// in\n    tag_356:\n      mload(0x40)\n      dup1\n      swap2\n      sub\n      swap1\n      revert\n    tag_355:\n        /* \"contracts/w6_SupplyChainContractAsm.sol\":8128:8751  if (keccak256(abi.encodePacked(operation)) == keccak256(abi.encodePacked(\"registerBatch\"))) {... */\n      jump(tag_358)\n    tag_351:\n        /* \"contracts/w6_SupplyChainContractAsm.sol\":8475:8476  0 */\n      0x00\n        /* \"contracts/w6_SupplyChainContractAsm.sol\":8459:8465  lst_id */\n      dup5\n        /* \"contracts/w6_SupplyChainContractAsm.sol\":8459:8472  lst_id.length */\n      mload\n        /* \"contracts/w6_SupplyChainContractAsm.sol\":8459:8476  lst_id.length > 0 */\n      gt\n        /* \"contracts/w6_SupplyChainContractAsm.sol\":8451:8532  require(lst_id.length > 0, \"ID list cannot be empty for non-register operations\") */\n      tag_359\n      jumpi\n      mload(0x40)\n      0x08c379a000000000000000000000000000000000000000000000000000000000\n      dup2\n      mstore\n      0x04\n      add\n      tag_360\n      swap1\n      tag_361\n      jump\t// in\n    tag_360:\n      mload(0x40)\n      dup1\n      swap2\n      sub\n      swap1\n      revert\n    tag_359:\n        /* \"contracts/w6_SupplyChainContractAsm.sol\":8571:8579  lst_name */\n      dup3\n        /* \"contracts/w6_SupplyChainContractAsm.sol\":8571:8586  lst_name.length */\n      mload\n        /* \"contracts/w6_SupplyChainContractAsm.sol\":8554:8560  lst_id */\n      dup5\n        /* \"contracts/w6_SupplyChainContractAsm.sol\":8554:8567  lst_id.length */\n      mload\n        /* \"contracts/w6_SupplyChainContractAsm.sol\":8554:8586  lst_id.length == lst_name.length */\n      eq\n        /* \"contracts/w6_SupplyChainContractAsm.sol\":8546:8629  require(lst_id.length == lst_name.length, \"ID and name lists must match in length\") */\n      tag_362\n      jumpi\n      mload(0x40)\n      0x08c379a000000000000000000000000000000000000000000000000000000000\n      dup2\n      mstore\n      0x04\n      add\n      tag_363\n      swap1\n      tag_364\n      jump\t// in\n    tag_363:\n      mload(0x40)\n      dup1\n      swap2\n      sub\n      swap1\n      revert\n    tag_362:\n        /* \"contracts/w6_SupplyChainContractAsm.sol\":8668:8683  lst_description */\n      dup2\n        /* \"contracts/w6_SupplyChainContractAsm.sol\":8668:8690  lst_description.length */\n      mload\n        /* \"contracts/w6_SupplyChainContractAsm.sol\":8651:8657  lst_id */\n      dup5\n        /* \"contracts/w6_SupplyChainContractAsm.sol\":8651:8664  lst_id.length */\n      mload\n        /* \"contracts/w6_SupplyChainContractAsm.sol\":8651:8690  lst_id.length == lst_description.length */\n      eq\n        /* \"contracts/w6_SupplyChainContractAsm.sol\":8643:8740  require(lst_id.length == lst_description.length, \"ID and description lists must match in length\") */\n      tag_365\n      jumpi\n      mload(0x40)\n      0x08c379a000000000000000000000000000000000000000000000000000000000\n      dup2\n      mstore\n      0x04\n      add\n      tag_366\n      swap1\n      tag_367\n      jump\t// in\n    tag_366:\n      mload(0x40)\n      dup1\n      swap2\n      sub\n      swap1\n      revert\n    tag_365:\n        /* \"contracts/w6_SupplyChainContractAsm.sol\":8128:8751  if (keccak256(abi.encodePacked(operation)) == keccak256(abi.encodePacked(\"registerBatch\"))) {... */\n    tag_358:\n        /* \"contracts/w6_SupplyChainContractAsm.sol\":8765:8771  uint i */\n      0x00\n        /* \"contracts/w6_SupplyChainContractAsm.sol\":8760:8896  for (uint i = 0; i < lst_name.length; i++) {... */\n    tag_368:\n        /* \"contracts/w6_SupplyChainContractAsm.sol\":8781:8789  lst_name */\n      dup4\n        /* \"contracts/w6_SupplyChainContractAsm.sol\":8781:8796  lst_name.length */\n      mload\n        /* \"contracts/w6_SupplyChainContractAsm.sol\":8777:8778  i */\n      dup2\n        /* \"contracts/w6_SupplyChainContractAsm.sol\":8777:8796  i < lst_name.length */\n      lt\n        /* \"contracts/w6_SupplyChainContractAsm.sol\":8760:8896  for (uint i = 0; i < lst_name.length; i++) {... */\n      iszero\n      tag_369\n      jumpi\n        /* \"contracts/w6_SupplyChainContractAsm.sol\":8854:8855  0 */\n      0x00\n        /* \"contracts/w6_SupplyChainContractAsm.sol\":8832:8840  lst_name */\n      dup5\n        /* \"contracts/w6_SupplyChainContractAsm.sol\":8841:8842  i */\n      dup3\n        /* \"contracts/w6_SupplyChainContractAsm.sol\":8832:8843  lst_name[i] */\n      dup2\n      mload\n      dup2\n      lt\n      tag_371\n      jumpi\n      tag_372\n      tag_124\n      jump\t// in\n    tag_372:\n    tag_371:\n      0x20\n      mul\n      0x20\n      add\n      add\n      mload\n        /* \"contracts/w6_SupplyChainContractAsm.sol\":8825:8851  bytes (lst_name[i]).length */\n      mload\n        /* \"contracts/w6_SupplyChainContractAsm.sol\":8825:8855  bytes (lst_name[i]).length > 0 */\n      gt\n        /* \"contracts/w6_SupplyChainContractAsm.sol\":8817:8885  require(bytes (lst_name[i]).length > 0, \"Name list cannot be empty\") */\n      tag_373\n      jumpi\n      mload(0x40)\n      0x08c379a000000000000000000000000000000000000000000000000000000000\n      dup2\n      mstore\n      0x04\n      add\n      tag_374\n      swap1\n      tag_375\n      jump\t// in\n    tag_374:\n      mload(0x40)\n      dup1\n      swap2\n      sub\n      swap1\n      revert\n    tag_373:\n        /* \"contracts/w6_SupplyChainContractAsm.sol\":8798:8801  i++ */\n      dup1\n      dup1\n      0x01\n      add\n      swap2\n      pop\n      pop\n        /* \"contracts/w6_SupplyChainContractAsm.sol\":8760:8896  for (uint i = 0; i < lst_name.length; i++) {... */\n      jump(tag_368)\n    tag_369:\n      pop\n        /* \"contracts/w6_SupplyChainContractAsm.sol\":8910:8916  uint i */\n      0x00\n        /* \"contracts/w6_SupplyChainContractAsm.sol\":8905:9055  for (uint i = 0; i < lst_description.length; i++) {... */\n    tag_376:\n        /* \"contracts/w6_SupplyChainContractAsm.sol\":8926:8941  lst_description */\n      dup3\n        /* \"contracts/w6_SupplyChainContractAsm.sol\":8926:8948  lst_description.length */\n      mload\n        /* \"contracts/w6_SupplyChainContractAsm.sol\":8922:8923  i */\n      dup2\n        /* \"contracts/w6_SupplyChainContractAsm.sol\":8922:8948  i < lst_description.length */\n      lt\n        /* \"contracts/w6_SupplyChainContractAsm.sol\":8905:9055  for (uint i = 0; i < lst_description.length; i++) {... */\n      iszero\n      tag_377\n      jumpi\n        /* \"contracts/w6_SupplyChainContractAsm.sol\":9013:9014  0 */\n      0x00\n        /* \"contracts/w6_SupplyChainContractAsm.sol\":8984:8999  lst_description */\n      dup4\n        /* \"contracts/w6_SupplyChainContractAsm.sol\":9000:9001  i */\n      dup3\n        /* \"contracts/w6_SupplyChainContractAsm.sol\":8984:9002  lst_description[i] */\n      dup2\n      mload\n      dup2\n      lt\n      tag_379\n      jumpi\n      tag_380\n      tag_124\n      jump\t// in\n    tag_380:\n    tag_379:\n      0x20\n      mul\n      0x20\n      add\n      add\n      mload\n        /* \"contracts/w6_SupplyChainContractAsm.sol\":8977:9010  bytes (lst_description[i]).length */\n      mload\n        /* \"contracts/w6_SupplyChainContractAsm.sol\":8977:9014  bytes (lst_description[i]).length > 0 */\n      gt\n        /* \"contracts/w6_SupplyChainContractAsm.sol\":8969:9044  require(bytes (lst_description[i]).length > 0, \"Desc list cannot be empty\") */\n      tag_381\n      jumpi\n      mload(0x40)\n      0x08c379a000000000000000000000000000000000000000000000000000000000\n      dup2\n      mstore\n      0x04\n      add\n      tag_382\n      swap1\n      tag_383\n      jump\t// in\n    tag_382:\n      mload(0x40)\n      dup1\n      swap2\n      sub\n      swap1\n      revert\n    tag_381:\n        /* \"contracts/w6_SupplyChainContractAsm.sol\":8950:8953  i++ */\n      dup1\n      dup1\n      0x01\n      add\n      swap2\n      pop\n      pop\n        /* \"contracts/w6_SupplyChainContractAsm.sol\":8905:9055  for (uint i = 0; i < lst_description.length; i++) {... */\n      jump(tag_376)\n    tag_377:\n      pop\n        /* \"contracts/w6_SupplyChainContractAsm.sol\":9073:9083  batchCount */\n      0x02\n      0x00\n        /* \"contracts/w6_SupplyChainContractAsm.sol\":9073:9085  batchCount++ */\n      dup2\n      sload\n      dup1\n      swap3\n      swap2\n      swap1\n      tag_384\n      swap1\n      tag_204\n      jump\t// in\n    tag_384:\n      swap2\n      swap1\n      pop\n      sstore\n      pop\n        /* \"contracts/w6_SupplyChainContractAsm.sol\":9095:9110  uint256 batchId */\n      0x00\n        /* \"contracts/w6_SupplyChainContractAsm.sol\":9113:9123  batchCount */\n      sload(0x02)\n        /* \"contracts/w6_SupplyChainContractAsm.sol\":9095:9123  uint256 batchId = batchCount */\n      swap1\n      pop\n        /* \"contracts/w6_SupplyChainContractAsm.sol\":9152:9482  Batch({... */\n      mload(0x40)\n      dup1\n      0x0100\n      add\n      0x40\n      mstore\n      dup1\n        /* \"contracts/w6_SupplyChainContractAsm.sol\":9176:9182  lst_id */\n      dup7\n        /* \"contracts/w6_SupplyChainContractAsm.sol\":9152:9482  Batch({... */\n      dup2\n      mstore\n      0x20\n      add\n        /* \"contracts/w6_SupplyChainContractAsm.sol\":9202:9210  lst_name */\n      dup6\n        /* \"contracts/w6_SupplyChainContractAsm.sol\":9152:9482  Batch({... */\n      dup2\n      mstore\n      0x20\n      add\n        /* \"contracts/w6_SupplyChainContractAsm.sol\":9237:9252  lst_description */\n      dup5\n        /* \"contracts/w6_SupplyChainContractAsm.sol\":9152:9482  Batch({... */\n      dup2\n      mstore\n      0x20\n      add\n        /* \"contracts/w6_SupplyChainContractAsm.sol\":9280:9290  msg.sender */\n      caller\n        /* \"contracts/w6_SupplyChainContractAsm.sol\":9152:9482  Batch({... */\n      0xffffffffffffffffffffffffffffffffffffffff\n      and\n      dup2\n      mstore\n      0x20\n      add\n        /* \"contracts/w6_SupplyChainContractAsm.sol\":9361:9376  block.timestamp */\n      timestamp\n        /* \"contracts/w6_SupplyChainContractAsm.sol\":9152:9482  Batch({... */\n      dup2\n      mstore\n      0x20\n      add\n        /* \"contracts/w6_SupplyChainContractAsm.sol\":9402:9407  false */\n      0x00\n        /* \"contracts/w6_SupplyChainContractAsm.sol\":9152:9482  Batch({... */\n      iszero\n      iszero\n      dup2\n      mstore\n      0x20\n      add\n        /* \"contracts/w6_SupplyChainContractAsm.sol\":9430:9437  batchId */\n      dup3\n        /* \"contracts/w6_SupplyChainContractAsm.sol\":9152:9482  Batch({... */\n      dup2\n      mstore\n      0x20\n      add\n        /* \"contracts/w6_SupplyChainContractAsm.sol\":9462:9471  operation */\n      dup4\n        /* \"contracts/w6_SupplyChainContractAsm.sol\":9152:9482  Batch({... */\n      dup2\n      mstore\n      pop\n        /* \"contracts/w6_SupplyChainContractAsm.sol\":9133:9140  batches */\n      0x05\n        /* \"contracts/w6_SupplyChainContractAsm.sol\":9133:9149  batches[batchId] */\n      0x00\n        /* \"contracts/w6_SupplyChainContractAsm.sol\":9141:9148  batchId */\n      dup4\n        /* \"contracts/w6_SupplyChainContractAsm.sol\":9133:9149  batches[batchId] */\n      dup2\n      mstore\n      0x20\n      add\n      swap1\n      dup2\n      mstore\n      0x20\n      add\n      0x00\n      keccak256\n        /* \"contracts/w6_SupplyChainContractAsm.sol\":9133:9482  batches[batchId] = Batch({... */\n      0x00\n      dup3\n      add\n      mload\n      dup2\n      0x00\n      add\n      swap1\n      dup1\n      mload\n      swap1\n      0x20\n      add\n      swap1\n      tag_385\n      swap3\n      swap2\n      swap1\n      tag_232\n      jump\t// in\n    tag_385:\n      pop\n      0x20\n      dup3\n      add\n      mload\n      dup2\n      0x01\n      add\n      swap1\n      dup1\n      mload\n      swap1\n      0x20\n      add\n      swap1\n      tag_386\n      swap3\n      swap2\n      swap1\n      tag_387\n      jump\t// in\n    tag_386:\n      pop\n      0x40\n      dup3\n      add\n      mload\n      dup2\n      0x02\n      add\n      swap1\n      dup1\n      mload\n      swap1\n      0x20\n      add\n      swap1\n      tag_388\n      swap3\n      swap2\n      swap1\n      tag_387\n      jump\t// in\n    tag_388:\n      pop\n      0x60\n      dup3\n      add\n      mload\n      dup2\n      0x03\n      add\n      exp(0x0100, 0x00)\n      dup2\n      sload\n      dup2\n      0xffffffffffffffffffffffffffffffffffffffff\n      mul\n      not\n      and\n      swap1\n      dup4\n      0xffffffffffffffffffffffffffffffffffffffff\n      and\n      mul\n      or\n      swap1\n      sstore\n      pop\n      0x80\n      dup3\n      add\n      mload\n      dup2\n      0x04\n      add\n      sstore\n      0xa0\n      dup3\n      add\n      mload\n      dup2\n      0x05\n      add\n      exp(0x0100, 0x00)\n      dup2\n      sload\n      dup2\n      0xff\n      mul\n      not\n      and\n      swap1\n      dup4\n      iszero\n      iszero\n      mul\n      or\n      swap1\n      sstore\n      pop\n      0xc0\n      dup3\n      add\n      mload\n      dup2\n      0x06\n      add\n      sstore\n      0xe0\n      dup3\n      add\n      mload\n      dup2\n      0x07\n      add\n      swap1\n      dup2\n      tag_389\n      swap2\n      swap1\n      tag_224\n      jump\t// in\n    tag_389:\n      pop\n      swap1\n      pop\n      pop\n        /* \"contracts/w6_SupplyChainContractAsm.sol\":9511:9518  batchId */\n      dup1\n        /* \"contracts/w6_SupplyChainContractAsm.sol\":9497:9530  BatchCreation(batchId, operation) */\n      0x97ff4eb42b5af6ff38cafbfad77979b7fbe233bb58b2cb81eb38859456a133fd\n        /* \"contracts/w6_SupplyChainContractAsm.sol\":9520:9529  operation */\n      dup4\n        /* \"contracts/w6_SupplyChainContractAsm.sol\":9497:9530  BatchCreation(batchId, operation) */\n      mload(0x40)\n      tag_390\n      swap2\n      swap1\n      tag_98\n      jump\t// in\n    tag_390:\n      mload(0x40)\n      dup1\n      swap2\n      sub\n      swap1\n      log2\n        /* \"contracts/w6_SupplyChainContractAsm.sol\":8068:9537  {... */\n      pop\n        /* \"contracts/w6_SupplyChainContractAsm.sol\":7878:9537  function createBatch(... */\n      pop\n      pop\n      pop\n      pop\n      jump\t// out\n    tag_232:\n      dup3\n      dup1\n      sload\n      dup3\n      dup3\n      sstore\n      swap1\n      0x00\n      mstore\n      keccak256(0x00, 0x20)\n      swap1\n      dup2\n      add\n      swap3\n      dup3\n      iszero\n      tag_391\n      jumpi\n      swap2\n      0x20\n      mul\n      dup3\n      add\n    tag_392:\n      dup3\n      dup2\n      gt\n      iszero\n      tag_393\n      jumpi\n      dup3\n      mload\n      dup3\n      sstore\n      swap2\n      0x20\n      add\n      swap2\n      swap1\n      0x01\n      add\n      swap1\n      jump(tag_392)\n    tag_393:\n    tag_391:\n      pop\n      swap1\n      pop\n      tag_394\n      swap2\n      swap1\n      tag_395\n      jump\t// in\n    tag_394:\n      pop\n      swap1\n      jump\t// out\n    tag_387:\n      dup3\n      dup1\n      sload\n      dup3\n      dup3\n      sstore\n      swap1\n      0x00\n      mstore\n      keccak256(0x00, 0x20)\n      swap1\n      dup2\n      add\n      swap3\n      dup3\n      iszero\n      tag_396\n      jumpi\n      swap2\n      0x20\n      mul\n      dup3\n      add\n    tag_397:\n      dup3\n      dup2\n      gt\n      iszero\n      tag_398\n      jumpi\n      dup3\n      mload\n      dup3\n      swap1\n      dup2\n      tag_399\n      swap2\n      swap1\n      tag_224\n      jump\t// in\n    tag_399:\n      pop\n      swap2\n      0x20\n      add\n      swap2\n      swap1\n      0x01\n      add\n      swap1\n      jump(tag_397)\n    tag_398:\n    tag_396:\n      pop\n      swap1\n      pop\n      tag_400\n      swap2\n      swap1\n      tag_401\n      jump\t// in\n    tag_400:\n      pop\n      swap1\n      jump\t// out\n    tag_395:\n    tag_402:\n      dup1\n      dup3\n      gt\n      iszero\n      tag_403\n      jumpi\n      0x00\n      dup2\n      0x00\n      swap1\n      sstore\n      pop\n      0x01\n      add\n      jump(tag_402)\n    tag_403:\n      pop\n      swap1\n      jump\t// out\n    tag_401:\n    tag_404:\n      dup1\n      dup3\n      gt\n      iszero\n      tag_405\n      jumpi\n      0x00\n      dup2\n      dup2\n      tag_406\n      swap2\n      swap1\n      tag_407\n      jump\t// in\n    tag_406:\n      pop\n      0x01\n      add\n      jump(tag_404)\n    tag_405:\n      pop\n      swap1\n      jump\t// out\n    tag_407:\n      pop\n      dup1\n      sload\n      tag_408\n      swap1\n      tag_132\n      jump\t// in\n    tag_408:\n      0x00\n      dup3\n      sstore\n      dup1\n      0x1f\n      lt\n      tag_410\n      jumpi\n      pop\n      jump(tag_409)\n    tag_410:\n      0x1f\n      add\n      0x20\n      swap1\n      div\n      swap1\n      0x00\n      mstore\n      keccak256(0x00, 0x20)\n      swap1\n      dup2\n      add\n      swap1\n      tag_411\n      swap2\n      swap1\n      tag_395\n      jump\t// in\n    tag_411:\n    tag_409:\n      pop\n      jump\t// out\n        /* \"#utility.yul\":7:82   */\n    tag_412:\n        /* \"#utility.yul\":40:46   */\n      0x00\n        /* \"#utility.yul\":73:75   */\n      0x40\n        /* \"#utility.yul\":67:76   */\n      mload\n        /* \"#utility.yul\":57:76   */\n      swap1\n      pop\n        /* \"#utility.yul\":7:82   */\n      swap1\n      jump\t// out\n        /* \"#utility.yul\":88:205   */\n    tag_413:\n        /* \"#utility.yul\":197:198   */\n      0x00\n        /* \"#utility.yul\":194:195   */\n      dup1\n        /* \"#utility.yul\":187:199   */\n      revert\n        /* \"#utility.yul\":211:328   */\n    tag_414:\n        /* \"#utility.yul\":320:321   */\n      0x00\n        /* \"#utility.yul\":317:318   */\n      dup1\n        /* \"#utility.yul\":310:322   */\n      revert\n        /* \"#utility.yul\":334:411   */\n    tag_415:\n        /* \"#utility.yul\":371:378   */\n      0x00\n        /* \"#utility.yul\":400:405   */\n      dup2\n        /* \"#utility.yul\":389:405   */\n      swap1\n      pop\n        /* \"#utility.yul\":334:411   */\n      swap2\n      swap1\n      pop\n      jump\t// out\n        /* \"#utility.yul\":417:539   */\n    tag_416:\n        /* \"#utility.yul\":490:514   */\n      tag_547\n        /* \"#utility.yul\":508:513   */\n      dup2\n        /* \"#utility.yul\":490:514   */\n      tag_415\n      jump\t// in\n    tag_547:\n        /* \"#utility.yul\":483:488   */\n      dup2\n        /* \"#utility.yul\":480:515   */\n      eq\n        /* \"#utility.yul\":470:533   */\n      tag_548\n      jumpi\n        /* \"#utility.yul\":529:530   */\n      0x00\n        /* \"#utility.yul\":526:527   */\n      dup1\n        /* \"#utility.yul\":519:531   */\n      revert\n        /* \"#utility.yul\":470:533   */\n    tag_548:\n        /* \"#utility.yul\":417:539   */\n      pop\n      jump\t// out\n        /* \"#utility.yul\":545:684   */\n    tag_417:\n        /* \"#utility.yul\":591:596   */\n      0x00\n        /* \"#utility.yul\":629:635   */\n      dup2\n        /* \"#utility.yul\":616:636   */\n      calldataload\n        /* \"#utility.yul\":607:636   */\n      swap1\n      pop\n        /* \"#utility.yul\":645:678   */\n      tag_550\n        /* \"#utility.yul\":672:677   */\n      dup2\n        /* \"#utility.yul\":645:678   */\n      tag_416\n      jump\t// in\n    tag_550:\n        /* \"#utility.yul\":545:684   */\n      swap3\n      swap2\n      pop\n      pop\n      jump\t// out\n        /* \"#utility.yul\":690:807   */\n    tag_418:\n        /* \"#utility.yul\":799:800   */\n      0x00\n        /* \"#utility.yul\":796:797   */\n      dup1\n        /* \"#utility.yul\":789:801   */\n      revert\n        /* \"#utility.yul\":813:930   */\n    tag_419:\n        /* \"#utility.yul\":922:923   */\n      0x00\n        /* \"#utility.yul\":919:920   */\n      dup1\n        /* \"#utility.yul\":912:924   */\n      revert\n        /* \"#utility.yul\":936:1038   */\n    tag_420:\n        /* \"#utility.yul\":977:983   */\n      0x00\n        /* \"#utility.yul\":1028:1030   */\n      0x1f\n        /* \"#utility.yul\":1024:1031   */\n      not\n        /* \"#utility.yul\":1019:1021   */\n      0x1f\n        /* \"#utility.yul\":1012:1017   */\n      dup4\n        /* \"#utility.yul\":1008:1022   */\n      add\n        /* \"#utility.yul\":1004:1032   */\n      and\n        /* \"#utility.yul\":994:1032   */\n      swap1\n      pop\n        /* \"#utility.yul\":936:1038   */\n      swap2\n      swap1\n      pop\n      jump\t// out\n        /* \"#utility.yul\":1044:1224   */\n    tag_198:\n        /* \"#utility.yul\":1092:1169   */\n      0x4e487b7100000000000000000000000000000000000000000000000000000000\n        /* \"#utility.yul\":1089:1090   */\n      0x00\n        /* \"#utility.yul\":1082:1170   */\n      mstore\n        /* \"#utility.yul\":1189:1193   */\n      0x41\n        /* \"#utility.yul\":1186:1187   */\n      0x04\n        /* \"#utility.yul\":1179:1194   */\n      mstore\n        /* \"#utility.yul\":1213:1217   */\n      0x24\n        /* \"#utility.yul\":1210:1211   */\n      0x00\n        /* \"#utility.yul\":1203:1218   */\n      revert\n        /* \"#utility.yul\":1230:1511   */\n    tag_421:\n        /* \"#utility.yul\":1313:1340   */\n      tag_556\n        /* \"#utility.yul\":1335:1339   */\n      dup3\n        /* \"#utility.yul\":1313:1340   */\n      tag_420\n      jump\t// in\n    tag_556:\n        /* \"#utility.yul\":1305:1311   */\n      dup2\n        /* \"#utility.yul\":1301:1341   */\n      add\n        /* \"#utility.yul\":1443:1449   */\n      dup2\n        /* \"#utility.yul\":1431:1441   */\n      dup2\n        /* \"#utility.yul\":1428:1450   */\n      lt\n        /* \"#utility.yul\":1407:1425   */\n      0xffffffffffffffff\n        /* \"#utility.yul\":1395:1405   */\n      dup3\n        /* \"#utility.yul\":1392:1426   */\n      gt\n        /* \"#utility.yul\":1389:1451   */\n      or\n        /* \"#utility.yul\":1386:1474   */\n      iszero\n      tag_557\n      jumpi\n        /* \"#utility.yul\":1454:1472   */\n      tag_558\n      tag_198\n      jump\t// in\n    tag_558:\n        /* \"#utility.yul\":1386:1474   */\n    tag_557:\n        /* \"#utility.yul\":1494:1504   */\n      dup1\n        /* \"#utility.yul\":1490:1492   */\n      0x40\n        /* \"#utility.yul\":1483:1505   */\n      mstore\n        /* \"#utility.yul\":1273:1511   */\n      pop\n        /* \"#utility.yul\":1230:1511   */\n      pop\n      pop\n      jump\t// out\n        /* \"#utility.yul\":1517:1646   */\n    tag_422:\n        /* \"#utility.yul\":1551:1557   */\n      0x00\n        /* \"#utility.yul\":1578:1598   */\n      tag_560\n      tag_412\n      jump\t// in\n    tag_560:\n        /* \"#utility.yul\":1568:1598   */\n      swap1\n      pop\n        /* \"#utility.yul\":1607:1640   */\n      tag_561\n        /* \"#utility.yul\":1635:1639   */\n      dup3\n        /* \"#utility.yul\":1627:1633   */\n      dup3\n        /* \"#utility.yul\":1607:1640   */\n      tag_421\n      jump\t// in\n    tag_561:\n        /* \"#utility.yul\":1517:1646   */\n      swap2\n      swap1\n      pop\n      jump\t// out\n        /* \"#utility.yul\":1652:1960   */\n    tag_423:\n        /* \"#utility.yul\":1714:1718   */\n      0x00\n        /* \"#utility.yul\":1804:1822   */\n      0xffffffffffffffff\n        /* \"#utility.yul\":1796:1802   */\n      dup3\n        /* \"#utility.yul\":1793:1823   */\n      gt\n        /* \"#utility.yul\":1790:1846   */\n      iszero\n      tag_563\n      jumpi\n        /* \"#utility.yul\":1826:1844   */\n      tag_564\n      tag_198\n      jump\t// in\n    tag_564:\n        /* \"#utility.yul\":1790:1846   */\n    tag_563:\n        /* \"#utility.yul\":1864:1893   */\n      tag_565\n        /* \"#utility.yul\":1886:1892   */\n      dup3\n        /* \"#utility.yul\":1864:1893   */\n      tag_420\n      jump\t// in\n    tag_565:\n        /* \"#utility.yul\":1856:1893   */\n      swap1\n      pop\n        /* \"#utility.yul\":1948:1952   */\n      0x20\n        /* \"#utility.yul\":1942:1946   */\n      dup2\n        /* \"#utility.yul\":1938:1953   */\n      add\n        /* \"#utility.yul\":1930:1953   */\n      swap1\n      pop\n        /* \"#utility.yul\":1652:1960   */\n      swap2\n      swap1\n      pop\n      jump\t// out\n        /* \"#utility.yul\":1966:2114   */\n    tag_424:\n        /* \"#utility.yul\":2064:2070   */\n      dup3\n        /* \"#utility.yul\":2059:2062   */\n      dup2\n        /* \"#utility.yul\":2054:2057   */\n      dup4\n        /* \"#utility.yul\":2041:2071   */\n      calldatacopy\n        /* \"#utility.yul\":2105:2106   */\n      0x00\n        /* \"#utility.yul\":2096:2102   */\n      dup4\n        /* \"#utility.yul\":2091:2094   */\n      dup4\n        /* \"#utility.yul\":2087:2103   */\n      add\n        /* \"#utility.yul\":2080:2107   */\n      mstore\n        /* \"#utility.yul\":1966:2114   */\n      pop\n      pop\n      pop\n      jump\t// out\n        /* \"#utility.yul\":2120:2545   */\n    tag_425:\n        /* \"#utility.yul\":2198:2203   */\n      0x00\n        /* \"#utility.yul\":2223:2289   */\n      tag_568\n        /* \"#utility.yul\":2239:2288   */\n      tag_569\n        /* \"#utility.yul\":2281:2287   */\n      dup5\n        /* \"#utility.yul\":2239:2288   */\n      tag_423\n      jump\t// in\n    tag_569:\n        /* \"#utility.yul\":2223:2289   */\n      tag_422\n      jump\t// in\n    tag_568:\n        /* \"#utility.yul\":2214:2289   */\n      swap1\n      pop\n        /* \"#utility.yul\":2312:2318   */\n      dup3\n        /* \"#utility.yul\":2305:2310   */\n      dup2\n        /* \"#utility.yul\":2298:2319   */\n      mstore\n        /* \"#utility.yul\":2350:2354   */\n      0x20\n        /* \"#utility.yul\":2343:2348   */\n      dup2\n        /* \"#utility.yul\":2339:2355   */\n      add\n        /* \"#utility.yul\":2388:2391   */\n      dup5\n        /* \"#utility.yul\":2379:2385   */\n      dup5\n        /* \"#utility.yul\":2374:2377   */\n      dup5\n        /* \"#utility.yul\":2370:2386   */\n      add\n        /* \"#utility.yul\":2367:2392   */\n      gt\n        /* \"#utility.yul\":2364:2476   */\n      iszero\n      tag_570\n      jumpi\n        /* \"#utility.yul\":2395:2474   */\n      tag_571\n      tag_419\n      jump\t// in\n    tag_571:\n        /* \"#utility.yul\":2364:2476   */\n    tag_570:\n        /* \"#utility.yul\":2485:2539   */\n      tag_572\n        /* \"#utility.yul\":2532:2538   */\n      dup5\n        /* \"#utility.yul\":2527:2530   */\n      dup3\n        /* \"#utility.yul\":2522:2525   */\n      dup6\n        /* \"#utility.yul\":2485:2539   */\n      tag_424\n      jump\t// in\n    tag_572:\n        /* \"#utility.yul\":2204:2545   */\n      pop\n        /* \"#utility.yul\":2120:2545   */\n      swap4\n      swap3\n      pop\n      pop\n      pop\n      jump\t// out\n        /* \"#utility.yul\":2565:2905   */\n    tag_426:\n        /* \"#utility.yul\":2621:2626   */\n      0x00\n        /* \"#utility.yul\":2670:2673   */\n      dup3\n        /* \"#utility.yul\":2663:2667   */\n      0x1f\n        /* \"#utility.yul\":2655:2661   */\n      dup4\n        /* \"#utility.yul\":2651:2668   */\n      add\n        /* \"#utility.yul\":2647:2674   */\n      slt\n        /* \"#utility.yul\":2637:2759   */\n      tag_574\n      jumpi\n        /* \"#utility.yul\":2678:2757   */\n      tag_575\n      tag_418\n      jump\t// in\n    tag_575:\n        /* \"#utility.yul\":2637:2759   */\n    tag_574:\n        /* \"#utility.yul\":2795:2801   */\n      dup2\n        /* \"#utility.yul\":2782:2802   */\n      calldataload\n        /* \"#utility.yul\":2820:2899   */\n      tag_576\n        /* \"#utility.yul\":2895:2898   */\n      dup5\n        /* \"#utility.yul\":2887:2893   */\n      dup3\n        /* \"#utility.yul\":2880:2884   */\n      0x20\n        /* \"#utility.yul\":2872:2878   */\n      dup7\n        /* \"#utility.yul\":2868:2885   */\n      add\n        /* \"#utility.yul\":2820:2899   */\n      tag_425\n      jump\t// in\n    tag_576:\n        /* \"#utility.yul\":2811:2899   */\n      swap2\n      pop\n        /* \"#utility.yul\":2627:2905   */\n      pop\n        /* \"#utility.yul\":2565:2905   */\n      swap3\n      swap2\n      pop\n      pop\n      jump\t// out\n        /* \"#utility.yul\":2911:3565   */\n    tag_27:\n        /* \"#utility.yul\":2989:2995   */\n      0x00\n        /* \"#utility.yul\":2997:3003   */\n      dup1\n        /* \"#utility.yul\":3046:3048   */\n      0x40\n        /* \"#utility.yul\":3034:3043   */\n      dup4\n        /* \"#utility.yul\":3025:3032   */\n      dup6\n        /* \"#utility.yul\":3021:3044   */\n      sub\n        /* \"#utility.yul\":3017:3049   */\n      slt\n        /* \"#utility.yul\":3014:3133   */\n      iszero\n      tag_578\n      jumpi\n        /* \"#utility.yul\":3052:3131   */\n      tag_579\n      tag_413\n      jump\t// in\n    tag_579:\n        /* \"#utility.yul\":3014:3133   */\n    tag_578:\n        /* \"#utility.yul\":3172:3173   */\n      0x00\n        /* \"#utility.yul\":3197:3250   */\n      tag_580\n        /* \"#utility.yul\":3242:3249   */\n      dup6\n        /* \"#utility.yul\":3233:3239   */\n      dup3\n        /* \"#utility.yul\":3222:3231   */\n      dup7\n        /* \"#utility.yul\":3218:3240   */\n      add\n        /* \"#utility.yul\":3197:3250   */\n      tag_417\n      jump\t// in\n    tag_580:\n        /* \"#utility.yul\":3187:3250   */\n      swap3\n      pop\n        /* \"#utility.yul\":3143:3260   */\n      pop\n        /* \"#utility.yul\":3327:3329   */\n      0x20\n        /* \"#utility.yul\":3316:3325   */\n      dup4\n        /* \"#utility.yul\":3312:3330   */\n      add\n        /* \"#utility.yul\":3299:3331   */\n      calldataload\n        /* \"#utility.yul\":3358:3376   */\n      0xffffffffffffffff\n        /* \"#utility.yul\":3350:3356   */\n      dup2\n        /* \"#utility.yul\":3347:3377   */\n      gt\n        /* \"#utility.yul\":3344:3461   */\n      iszero\n      tag_581\n      jumpi\n        /* \"#utility.yul\":3380:3459   */\n      tag_582\n      tag_414\n      jump\t// in\n    tag_582:\n        /* \"#utility.yul\":3344:3461   */\n    tag_581:\n        /* \"#utility.yul\":3485:3548   */\n      tag_583\n        /* \"#utility.yul\":3540:3547   */\n      dup6\n        /* \"#utility.yul\":3531:3537   */\n      dup3\n        /* \"#utility.yul\":3520:3529   */\n      dup7\n        /* \"#utility.yul\":3516:3538   */\n      add\n        /* \"#utility.yul\":3485:3548   */\n      tag_426\n      jump\t// in\n    tag_583:\n        /* \"#utility.yul\":3475:3548   */\n      swap2\n      pop\n        /* \"#utility.yul\":3270:3558   */\n      pop\n        /* \"#utility.yul\":2911:3565   */\n      swap3\n      pop\n      swap3\n      swap1\n      pop\n      jump\t// out\n        /* \"#utility.yul\":3571:3689   */\n    tag_427:\n        /* \"#utility.yul\":3658:3682   */\n      tag_585\n        /* \"#utility.yul\":3676:3681   */\n      dup2\n        /* \"#utility.yul\":3658:3682   */\n      tag_415\n      jump\t// in\n    tag_585:\n        /* \"#utility.yul\":3653:3656   */\n      dup3\n        /* \"#utility.yul\":3646:3683   */\n      mstore\n        /* \"#utility.yul\":3571:3689   */\n      pop\n      pop\n      jump\t// out\n        /* \"#utility.yul\":3695:3917   */\n    tag_32:\n        /* \"#utility.yul\":3788:3792   */\n      0x00\n        /* \"#utility.yul\":3826:3828   */\n      0x20\n        /* \"#utility.yul\":3815:3824   */\n      dup3\n        /* \"#utility.yul\":3811:3829   */\n      add\n        /* \"#utility.yul\":3803:3829   */\n      swap1\n      pop\n        /* \"#utility.yul\":3839:3910   */\n      tag_587\n        /* \"#utility.yul\":3907:3908   */\n      0x00\n        /* \"#utility.yul\":3896:3905   */\n      dup4\n        /* \"#utility.yul\":3892:3909   */\n      add\n        /* \"#utility.yul\":3883:3889   */\n      dup5\n        /* \"#utility.yul\":3839:3910   */\n      tag_427\n      jump\t// in\n    tag_587:\n        /* \"#utility.yul\":3695:3917   */\n      swap3\n      swap2\n      pop\n      pop\n      jump\t// out\n        /* \"#utility.yul\":3923:4252   */\n    tag_35:\n        /* \"#utility.yul\":3982:3988   */\n      0x00\n        /* \"#utility.yul\":4031:4033   */\n      0x20\n        /* \"#utility.yul\":4019:4028   */\n      dup3\n        /* \"#utility.yul\":4010:4017   */\n      dup5\n        /* \"#utility.yul\":4006:4029   */\n      sub\n        /* \"#utility.yul\":4002:4034   */\n      slt\n        /* \"#utility.yul\":3999:4118   */\n      iszero\n      tag_589\n      jumpi\n        /* \"#utility.yul\":4037:4116   */\n      tag_590\n      tag_413\n      jump\t// in\n    tag_590:\n        /* \"#utility.yul\":3999:4118   */\n    tag_589:\n        /* \"#utility.yul\":4157:4158   */\n      0x00\n        /* \"#utility.yul\":4182:4235   */\n      tag_591\n        /* \"#utility.yul\":4227:4234   */\n      dup5\n        /* \"#utility.yul\":4218:4224   */\n      dup3\n        /* \"#utility.yul\":4207:4216   */\n      dup6\n        /* \"#utility.yul\":4203:4225   */\n      add\n        /* \"#utility.yul\":4182:4235   */\n      tag_417\n      jump\t// in\n    tag_591:\n        /* \"#utility.yul\":4172:4235   */\n      swap2\n      pop\n        /* \"#utility.yul\":4128:4245   */\n      pop\n        /* \"#utility.yul\":3923:4252   */\n      swap3\n      swap2\n      pop\n      pop\n      jump\t// out\n        /* \"#utility.yul\":4258:4348   */\n    tag_428:\n        /* \"#utility.yul\":4292:4299   */\n      0x00\n        /* \"#utility.yul\":4335:4340   */\n      dup2\n        /* \"#utility.yul\":4328:4341   */\n      iszero\n        /* \"#utility.yul\":4321:4342   */\n      iszero\n        /* \"#utility.yul\":4310:4342   */\n      swap1\n      pop\n        /* \"#utility.yul\":4258:4348   */\n      swap2\n      swap1\n      pop\n      jump\t// out\n        /* \"#utility.yul\":4354:4463   */\n    tag_429:\n        /* \"#utility.yul\":4435:4456   */\n      tag_594\n        /* \"#utility.yul\":4450:4455   */\n      dup2\n        /* \"#utility.yul\":4435:4456   */\n      tag_428\n      jump\t// in\n    tag_594:\n        /* \"#utility.yul\":4430:4433   */\n      dup3\n        /* \"#utility.yul\":4423:4457   */\n      mstore\n        /* \"#utility.yul\":4354:4463   */\n      pop\n      pop\n      jump\t// out\n        /* \"#utility.yul\":4469:4679   */\n    tag_38:\n        /* \"#utility.yul\":4556:4560   */\n      0x00\n        /* \"#utility.yul\":4594:4596   */\n      0x20\n        /* \"#utility.yul\":4583:4592   */\n      dup3\n        /* \"#utility.yul\":4579:4597   */\n      add\n        /* \"#utility.yul\":4571:4597   */\n      swap1\n      pop\n        /* \"#utility.yul\":4607:4672   */\n      tag_596\n        /* \"#utility.yul\":4669:4670   */\n      0x00\n        /* \"#utility.yul\":4658:4667   */\n      dup4\n        /* \"#utility.yul\":4654:4671   */\n      add\n        /* \"#utility.yul\":4645:4651   */\n      dup5\n        /* \"#utility.yul\":4607:4672   */\n      tag_429\n      jump\t// in\n    tag_596:\n        /* \"#utility.yul\":4469:4679   */\n      swap3\n      swap2\n      pop\n      pop\n      jump\t// out\n        /* \"#utility.yul\":4685:4799   */\n    tag_430:\n        /* \"#utility.yul\":4752:4758   */\n      0x00\n        /* \"#utility.yul\":4786:4791   */\n      dup2\n        /* \"#utility.yul\":4780:4792   */\n      mload\n        /* \"#utility.yul\":4770:4792   */\n      swap1\n      pop\n        /* \"#utility.yul\":4685:4799   */\n      swap2\n      swap1\n      pop\n      jump\t// out\n        /* \"#utility.yul\":4805:4989   */\n    tag_431:\n        /* \"#utility.yul\":4904:4915   */\n      0x00\n        /* \"#utility.yul\":4938:4944   */\n      dup3\n        /* \"#utility.yul\":4933:4936   */\n      dup3\n        /* \"#utility.yul\":4926:4945   */\n      mstore\n        /* \"#utility.yul\":4978:4982   */\n      0x20\n        /* \"#utility.yul\":4973:4976   */\n      dup3\n        /* \"#utility.yul\":4969:4983   */\n      add\n        /* \"#utility.yul\":4954:4983   */\n      swap1\n      pop\n        /* \"#utility.yul\":4805:4989   */\n      swap3\n      swap2\n      pop\n      pop\n      jump\t// out\n        /* \"#utility.yul\":4995:5127   */\n    tag_432:\n        /* \"#utility.yul\":5062:5066   */\n      0x00\n        /* \"#utility.yul\":5085:5088   */\n      dup2\n        /* \"#utility.yul\":5077:5088   */\n      swap1\n      pop\n        /* \"#utility.yul\":5115:5119   */\n      0x20\n        /* \"#utility.yul\":5110:5113   */\n      dup3\n        /* \"#utility.yul\":5106:5120   */\n      add\n        /* \"#utility.yul\":5098:5120   */\n      swap1\n      pop\n        /* \"#utility.yul\":4995:5127   */\n      swap2\n      swap1\n      pop\n      jump\t// out\n        /* \"#utility.yul\":5133:5241   */\n    tag_433:\n        /* \"#utility.yul\":5210:5234   */\n      tag_601\n        /* \"#utility.yul\":5228:5233   */\n      dup2\n        /* \"#utility.yul\":5210:5234   */\n      tag_415\n      jump\t// in\n    tag_601:\n        /* \"#utility.yul\":5205:5208   */\n      dup3\n        /* \"#utility.yul\":5198:5235   */\n      mstore\n        /* \"#utility.yul\":5133:5241   */\n      pop\n      pop\n      jump\t// out\n        /* \"#utility.yul\":5247:5426   */\n    tag_434:\n        /* \"#utility.yul\":5316:5326   */\n      0x00\n        /* \"#utility.yul\":5337:5383   */\n      tag_603\n        /* \"#utility.yul\":5379:5382   */\n      dup4\n        /* \"#utility.yul\":5371:5377   */\n      dup4\n        /* \"#utility.yul\":5337:5383   */\n      tag_433\n      jump\t// in\n    tag_603:\n        /* \"#utility.yul\":5415:5419   */\n      0x20\n        /* \"#utility.yul\":5410:5413   */\n      dup4\n        /* \"#utility.yul\":5406:5420   */\n      add\n        /* \"#utility.yul\":5392:5420   */\n      swap1\n      pop\n        /* \"#utility.yul\":5247:5426   */\n      swap3\n      swap2\n      pop\n      pop\n      jump\t// out\n        /* \"#utility.yul\":5432:5545   */\n    tag_435:\n        /* \"#utility.yul\":5502:5506   */\n      0x00\n        /* \"#utility.yul\":5534:5538   */\n      0x20\n        /* \"#utility.yul\":5529:5532   */\n      dup3\n        /* \"#utility.yul\":5525:5539   */\n      add\n        /* \"#utility.yul\":5517:5539   */\n      swap1\n      pop\n        /* \"#utility.yul\":5432:5545   */\n      swap2\n      swap1\n      pop\n      jump\t// out\n        /* \"#utility.yul\":5581:6313   */\n    tag_436:\n        /* \"#utility.yul\":5700:5703   */\n      0x00\n        /* \"#utility.yul\":5729:5783   */\n      tag_606\n        /* \"#utility.yul\":5777:5782   */\n      dup3\n        /* \"#utility.yul\":5729:5783   */\n      tag_430\n      jump\t// in\n    tag_606:\n        /* \"#utility.yul\":5799:5885   */\n      tag_607\n        /* \"#utility.yul\":5878:5884   */\n      dup2\n        /* \"#utility.yul\":5873:5876   */\n      dup6\n        /* \"#utility.yul\":5799:5885   */\n      tag_431\n      jump\t// in\n    tag_607:\n        /* \"#utility.yul\":5792:5885   */\n      swap4\n      pop\n        /* \"#utility.yul\":5909:5965   */\n      tag_608\n        /* \"#utility.yul\":5959:5964   */\n      dup4\n        /* \"#utility.yul\":5909:5965   */\n      tag_432\n      jump\t// in\n    tag_608:\n        /* \"#utility.yul\":5988:5995   */\n      dup1\n        /* \"#utility.yul\":6019:6020   */\n      0x00\n        /* \"#utility.yul\":6004:6288   */\n    tag_609:\n        /* \"#utility.yul\":6029:6035   */\n      dup4\n        /* \"#utility.yul\":6026:6027   */\n      dup2\n        /* \"#utility.yul\":6023:6036   */\n      lt\n        /* \"#utility.yul\":6004:6288   */\n      iszero\n      tag_611\n      jumpi\n        /* \"#utility.yul\":6105:6111   */\n      dup2\n        /* \"#utility.yul\":6099:6112   */\n      mload\n        /* \"#utility.yul\":6132:6195   */\n      tag_612\n        /* \"#utility.yul\":6191:6194   */\n      dup9\n        /* \"#utility.yul\":6176:6189   */\n      dup3\n        /* \"#utility.yul\":6132:6195   */\n      tag_434\n      jump\t// in\n    tag_612:\n        /* \"#utility.yul\":6125:6195   */\n      swap8\n      pop\n        /* \"#utility.yul\":6218:6278   */\n      tag_613\n        /* \"#utility.yul\":6271:6277   */\n      dup4\n        /* \"#utility.yul\":6218:6278   */\n      tag_435\n      jump\t// in\n    tag_613:\n        /* \"#utility.yul\":6208:6278   */\n      swap3\n      pop\n        /* \"#utility.yul\":6064:6288   */\n      pop\n        /* \"#utility.yul\":6051:6052   */\n      0x01\n        /* \"#utility.yul\":6048:6049   */\n      dup2\n        /* \"#utility.yul\":6044:6053   */\n      add\n        /* \"#utility.yul\":6039:6053   */\n      swap1\n      pop\n        /* \"#utility.yul\":6004:6288   */\n      jump(tag_609)\n    tag_611:\n        /* \"#utility.yul\":6008:6022   */\n      pop\n        /* \"#utility.yul\":6304:6307   */\n      dup6\n        /* \"#utility.yul\":6297:6307   */\n      swap4\n      pop\n        /* \"#utility.yul\":5705:6313   */\n      pop\n      pop\n      pop\n        /* \"#utility.yul\":5581:6313   */\n      swap3\n      swap2\n      pop\n      pop\n      jump\t// out\n        /* \"#utility.yul\":6319:6443   */\n    tag_437:\n        /* \"#utility.yul\":6396:6402   */\n      0x00\n        /* \"#utility.yul\":6430:6435   */\n      dup2\n        /* \"#utility.yul\":6424:6436   */\n      mload\n        /* \"#utility.yul\":6414:6436   */\n      swap1\n      pop\n        /* \"#utility.yul\":6319:6443   */\n      swap2\n      swap1\n      pop\n      jump\t// out\n        /* \"#utility.yul\":6449:6643   */\n    tag_438:\n        /* \"#utility.yul\":6558:6569   */\n      0x00\n        /* \"#utility.yul\":6592:6598   */\n      dup3\n        /* \"#utility.yul\":6587:6590   */\n      dup3\n        /* \"#utility.yul\":6580:6599   */\n      mstore\n        /* \"#utility.yul\":6632:6636   */\n      0x20\n        /* \"#utility.yul\":6627:6630   */\n      dup3\n        /* \"#utility.yul\":6623:6637   */\n      add\n        /* \"#utility.yul\":6608:6637   */\n      swap1\n      pop\n        /* \"#utility.yul\":6449:6643   */\n      swap3\n      swap2\n      pop\n      pop\n      jump\t// out\n        /* \"#utility.yul\":6649:6791   */\n    tag_439:\n        /* \"#utility.yul\":6726:6730   */\n      0x00\n        /* \"#utility.yul\":6749:6752   */\n      dup2\n        /* \"#utility.yul\":6741:6752   */\n      swap1\n      pop\n        /* \"#utility.yul\":6779:6783   */\n      0x20\n        /* \"#utility.yul\":6774:6777   */\n      dup3\n        /* \"#utility.yul\":6770:6784   */\n      add\n        /* \"#utility.yul\":6762:6784   */\n      swap1\n      pop\n        /* \"#utility.yul\":6649:6791   */\n      swap2\n      swap1\n      pop\n      jump\t// out\n        /* \"#utility.yul\":6797:6896   */\n    tag_440:\n        /* \"#utility.yul\":6849:6855   */\n      0x00\n        /* \"#utility.yul\":6883:6888   */\n      dup2\n        /* \"#utility.yul\":6877:6889   */\n      mload\n        /* \"#utility.yul\":6867:6889   */\n      swap1\n      pop\n        /* \"#utility.yul\":6797:6896   */\n      swap2\n      swap1\n      pop\n      jump\t// out\n        /* \"#utility.yul\":6902:7061   */\n    tag_441:\n        /* \"#utility.yul\":6976:6987   */\n      0x00\n        /* \"#utility.yul\":7010:7016   */\n      dup3\n        /* \"#utility.yul\":7005:7008   */\n      dup3\n        /* \"#utility.yul\":6998:7017   */\n      mstore\n        /* \"#utility.yul\":7050:7054   */\n      0x20\n        /* \"#utility.yul\":7045:7048   */\n      dup3\n        /* \"#utility.yul\":7041:7055   */\n      add\n        /* \"#utility.yul\":7026:7055   */\n      swap1\n      pop\n        /* \"#utility.yul\":6902:7061   */\n      swap3\n      swap2\n      pop\n      pop\n      jump\t// out\n        /* \"#utility.yul\":7067:7206   */\n    tag_442:\n        /* \"#utility.yul\":7156:7162   */\n      dup3\n        /* \"#utility.yul\":7151:7154   */\n      dup2\n        /* \"#utility.yul\":7146:7149   */\n      dup4\n        /* \"#utility.yul\":7140:7163   */\n      mcopy\n        /* \"#utility.yul\":7197:7198   */\n      0x00\n        /* \"#utility.yul\":7188:7194   */\n      dup4\n        /* \"#utility.yul\":7183:7186   */\n      dup4\n        /* \"#utility.yul\":7179:7195   */\n      add\n        /* \"#utility.yul\":7172:7199   */\n      mstore\n        /* \"#utility.yul\":7067:7206   */\n      pop\n      pop\n      pop\n      jump\t// out\n        /* \"#utility.yul\":7212:7569   */\n    tag_443:\n        /* \"#utility.yul\":7290:7293   */\n      0x00\n        /* \"#utility.yul\":7318:7357   */\n      tag_621\n        /* \"#utility.yul\":7351:7356   */\n      dup3\n        /* \"#utility.yul\":7318:7357   */\n      tag_440\n      jump\t// in\n    tag_621:\n        /* \"#utility.yul\":7373:7434   */\n      tag_622\n        /* \"#utility.yul\":7427:7433   */\n      dup2\n        /* \"#utility.yul\":7422:7425   */\n      dup6\n        /* \"#utility.yul\":7373:7434   */\n      tag_441\n      jump\t// in\n    tag_622:\n        /* \"#utility.yul\":7366:7434   */\n      swap4\n      pop\n        /* \"#utility.yul\":7443:7508   */\n      tag_623\n        /* \"#utility.yul\":7501:7507   */\n      dup2\n        /* \"#utility.yul\":7496:7499   */\n      dup6\n        /* \"#utility.yul\":7489:7493   */\n      0x20\n        /* \"#utility.yul\":7482:7487   */\n      dup7\n        /* \"#utility.yul\":7478:7494   */\n      add\n        /* \"#utility.yul\":7443:7508   */\n      tag_442\n      jump\t// in\n    tag_623:\n        /* \"#utility.yul\":7533:7562   */\n      tag_624\n        /* \"#utility.yul\":7555:7561   */\n      dup2\n        /* \"#utility.yul\":7533:7562   */\n      tag_420\n      jump\t// in\n    tag_624:\n        /* \"#utility.yul\":7528:7531   */\n      dup5\n        /* \"#utility.yul\":7524:7563   */\n      add\n        /* \"#utility.yul\":7517:7563   */\n      swap2\n      pop\n        /* \"#utility.yul\":7294:7569   */\n      pop\n        /* \"#utility.yul\":7212:7569   */\n      swap3\n      swap2\n      pop\n      pop\n      jump\t// out\n        /* \"#utility.yul\":7575:7771   */\n    tag_444:\n        /* \"#utility.yul\":7664:7674   */\n      0x00\n        /* \"#utility.yul\":7699:7765   */\n      tag_626\n        /* \"#utility.yul\":7761:7764   */\n      dup4\n        /* \"#utility.yul\":7753:7759   */\n      dup4\n        /* \"#utility.yul\":7699:7765   */\n      tag_443\n      jump\t// in\n    tag_626:\n        /* \"#utility.yul\":7685:7765   */\n      swap1\n      pop\n        /* \"#utility.yul\":7575:7771   */\n      swap3\n      swap2\n      pop\n      pop\n      jump\t// out\n        /* \"#utility.yul\":7777:7900   */\n    tag_445:\n        /* \"#utility.yul\":7857:7861   */\n      0x00\n        /* \"#utility.yul\":7889:7893   */\n      0x20\n        /* \"#utility.yul\":7884:7887   */\n      dup3\n        /* \"#utility.yul\":7880:7894   */\n      add\n        /* \"#utility.yul\":7872:7894   */\n      swap1\n      pop\n        /* \"#utility.yul\":7777:7900   */\n      swap2\n      swap1\n      pop\n      jump\t// out\n        /* \"#utility.yul\":7934:8925   */\n    tag_446:\n        /* \"#utility.yul\":8073:8076   */\n      0x00\n        /* \"#utility.yul\":8102:8166   */\n      tag_629\n        /* \"#utility.yul\":8160:8165   */\n      dup3\n        /* \"#utility.yul\":8102:8166   */\n      tag_437\n      jump\t// in\n    tag_629:\n        /* \"#utility.yul\":8182:8278   */\n      tag_630\n        /* \"#utility.yul\":8271:8277   */\n      dup2\n        /* \"#utility.yul\":8266:8269   */\n      dup6\n        /* \"#utility.yul\":8182:8278   */\n      tag_438\n      jump\t// in\n    tag_630:\n        /* \"#utility.yul\":8175:8278   */\n      swap4\n      pop\n        /* \"#utility.yul\":8304:8307   */\n      dup4\n        /* \"#utility.yul\":8349:8353   */\n      0x20\n        /* \"#utility.yul\":8341:8347   */\n      dup3\n        /* \"#utility.yul\":8337:8354   */\n      mul\n        /* \"#utility.yul\":8332:8335   */\n      dup6\n        /* \"#utility.yul\":8328:8355   */\n      add\n        /* \"#utility.yul\":8379:8445   */\n      tag_631\n        /* \"#utility.yul\":8439:8444   */\n      dup6\n        /* \"#utility.yul\":8379:8445   */\n      tag_439\n      jump\t// in\n    tag_631:\n        /* \"#utility.yul\":8468:8475   */\n      dup1\n        /* \"#utility.yul\":8499:8500   */\n      0x00\n        /* \"#utility.yul\":8484:8880   */\n    tag_632:\n        /* \"#utility.yul\":8509:8515   */\n      dup6\n        /* \"#utility.yul\":8506:8507   */\n      dup2\n        /* \"#utility.yul\":8503:8516   */\n      lt\n        /* \"#utility.yul\":8484:8880   */\n      iszero\n      tag_634\n      jumpi\n        /* \"#utility.yul\":8580:8589   */\n      dup5\n        /* \"#utility.yul\":8574:8578   */\n      dup5\n        /* \"#utility.yul\":8570:8590   */\n      sub\n        /* \"#utility.yul\":8565:8568   */\n      dup10\n        /* \"#utility.yul\":8558:8591   */\n      mstore\n        /* \"#utility.yul\":8631:8637   */\n      dup2\n        /* \"#utility.yul\":8625:8638   */\n      mload\n        /* \"#utility.yul\":8659:8743   */\n      tag_635\n        /* \"#utility.yul\":8738:8742   */\n      dup6\n        /* \"#utility.yul\":8723:8736   */\n      dup3\n        /* \"#utility.yul\":8659:8743   */\n      tag_444\n      jump\t// in\n    tag_635:\n        /* \"#utility.yul\":8651:8743   */\n      swap5\n      pop\n        /* \"#utility.yul\":8766:8836   */\n      tag_636\n        /* \"#utility.yul\":8829:8835   */\n      dup4\n        /* \"#utility.yul\":8766:8836   */\n      tag_445\n      jump\t// in\n    tag_636:\n        /* \"#utility.yul\":8756:8836   */\n      swap3\n      pop\n        /* \"#utility.yul\":8865:8869   */\n      0x20\n        /* \"#utility.yul\":8860:8863   */\n      dup11\n        /* \"#utility.yul\":8856:8870   */\n      add\n        /* \"#utility.yul\":8849:8870   */\n      swap10\n      pop\n        /* \"#utility.yul\":8544:8880   */\n      pop\n        /* \"#utility.yul\":8531:8532   */\n      0x01\n        /* \"#utility.yul\":8528:8529   */\n      dup2\n        /* \"#utility.yul\":8524:8533   */\n      add\n        /* \"#utility.yul\":8519:8533   */\n      swap1\n      pop\n        /* \"#utility.yul\":8484:8880   */\n      jump(tag_632)\n    tag_634:\n        /* \"#utility.yul\":8488:8502   */\n      pop\n        /* \"#utility.yul\":8896:8900   */\n      dup3\n        /* \"#utility.yul\":8889:8900   */\n      swap8\n      pop\n        /* \"#utility.yul\":8916:8919   */\n      dup8\n        /* \"#utility.yul\":8909:8919   */\n      swap6\n      pop\n        /* \"#utility.yul\":8078:8925   */\n      pop\n      pop\n      pop\n      pop\n      pop\n        /* \"#utility.yul\":7934:8925   */\n      swap3\n      swap2\n      pop\n      pop\n      jump\t// out\n        /* \"#utility.yul\":8931:9057   */\n    tag_447:\n        /* \"#utility.yul\":8968:8975   */\n      0x00\n        /* \"#utility.yul\":9008:9050   */\n      0xffffffffffffffffffffffffffffffffffffffff\n        /* \"#utility.yul\":9001:9006   */\n      dup3\n        /* \"#utility.yul\":8997:9051   */\n      and\n        /* \"#utility.yul\":8986:9051   */\n      swap1\n      pop\n        /* \"#utility.yul\":8931:9057   */\n      swap2\n      swap1\n      pop\n      jump\t// out\n        /* \"#utility.yul\":9063:9159   */\n    tag_448:\n        /* \"#utility.yul\":9100:9107   */\n      0x00\n        /* \"#utility.yul\":9129:9153   */\n      tag_639\n        /* \"#utility.yul\":9147:9152   */\n      dup3\n        /* \"#utility.yul\":9129:9153   */\n      tag_447\n      jump\t// in\n    tag_639:\n        /* \"#utility.yul\":9118:9153   */\n      swap1\n      pop\n        /* \"#utility.yul\":9063:9159   */\n      swap2\n      swap1\n      pop\n      jump\t// out\n        /* \"#utility.yul\":9165:9283   */\n    tag_449:\n        /* \"#utility.yul\":9252:9276   */\n      tag_641\n        /* \"#utility.yul\":9270:9275   */\n      dup2\n        /* \"#utility.yul\":9252:9276   */\n      tag_448\n      jump\t// in\n    tag_641:\n        /* \"#utility.yul\":9247:9250   */\n      dup3\n        /* \"#utility.yul\":9240:9277   */\n      mstore\n        /* \"#utility.yul\":9165:9283   */\n      pop\n      pop\n      jump\t// out\n        /* \"#utility.yul\":9289:9458   */\n    tag_450:\n        /* \"#utility.yul\":9373:9384   */\n      0x00\n        /* \"#utility.yul\":9407:9413   */\n      dup3\n        /* \"#utility.yul\":9402:9405   */\n      dup3\n        /* \"#utility.yul\":9395:9414   */\n      mstore\n        /* \"#utility.yul\":9447:9451   */\n      0x20\n        /* \"#utility.yul\":9442:9445   */\n      dup3\n        /* \"#utility.yul\":9438:9452   */\n      add\n        /* \"#utility.yul\":9423:9452   */\n      swap1\n      pop\n        /* \"#utility.yul\":9289:9458   */\n      swap3\n      swap2\n      pop\n      pop\n      jump\t// out\n        /* \"#utility.yul\":9464:9841   */\n    tag_451:\n        /* \"#utility.yul\":9552:9555   */\n      0x00\n        /* \"#utility.yul\":9580:9619   */\n      tag_644\n        /* \"#utility.yul\":9613:9618   */\n      dup3\n        /* \"#utility.yul\":9580:9619   */\n      tag_440\n      jump\t// in\n    tag_644:\n        /* \"#utility.yul\":9635:9706   */\n      tag_645\n        /* \"#utility.yul\":9699:9705   */\n      dup2\n        /* \"#utility.yul\":9694:9697   */\n      dup6\n        /* \"#utility.yul\":9635:9706   */\n      tag_450\n      jump\t// in\n    tag_645:\n        /* \"#utility.yul\":9628:9706   */\n      swap4\n      pop\n        /* \"#utility.yul\":9715:9780   */\n      tag_646\n        /* \"#utility.yul\":9773:9779   */\n      dup2\n        /* \"#utility.yul\":9768:9771   */\n      dup6\n        /* \"#utility.yul\":9761:9765   */\n      0x20\n        /* \"#utility.yul\":9754:9759   */\n      dup7\n        /* \"#utility.yul\":9750:9766   */\n      add\n        /* \"#utility.yul\":9715:9780   */\n      tag_442\n      jump\t// in\n    tag_646:\n        /* \"#utility.yul\":9805:9834   */\n      tag_647\n        /* \"#utility.yul\":9827:9833   */\n      dup2\n        /* \"#utility.yul\":9805:9834   */\n      tag_420\n      jump\t// in\n    tag_647:\n        /* \"#utility.yul\":9800:9803   */\n      dup5\n        /* \"#utility.yul\":9796:9835   */\n      add\n        /* \"#utility.yul\":9789:9835   */\n      swap2\n      pop\n        /* \"#utility.yul\":9556:9841   */\n      pop\n        /* \"#utility.yul\":9464:9841   */\n      swap3\n      swap2\n      pop\n      pop\n      jump\t// out\n        /* \"#utility.yul\":9847:11456   */\n    tag_43:\n        /* \"#utility.yul\":10340:10344   */\n      0x00\n        /* \"#utility.yul\":10378:10381   */\n      0x0100\n        /* \"#utility.yul\":10367:10376   */\n      dup3\n        /* \"#utility.yul\":10363:10382   */\n      add\n        /* \"#utility.yul\":10355:10382   */\n      swap1\n      pop\n        /* \"#utility.yul\":10428:10437   */\n      dup2\n        /* \"#utility.yul\":10422:10426   */\n      dup2\n        /* \"#utility.yul\":10418:10438   */\n      sub\n        /* \"#utility.yul\":10414:10415   */\n      0x00\n        /* \"#utility.yul\":10403:10412   */\n      dup4\n        /* \"#utility.yul\":10399:10416   */\n      add\n        /* \"#utility.yul\":10392:10439   */\n      mstore\n        /* \"#utility.yul\":10456:10564   */\n      tag_649\n        /* \"#utility.yul\":10559:10563   */\n      dup2\n        /* \"#utility.yul\":10550:10556   */\n      dup12\n        /* \"#utility.yul\":10456:10564   */\n      tag_436\n      jump\t// in\n    tag_649:\n        /* \"#utility.yul\":10448:10564   */\n      swap1\n      pop\n        /* \"#utility.yul\":10611:10620   */\n      dup2\n        /* \"#utility.yul\":10605:10609   */\n      dup2\n        /* \"#utility.yul\":10601:10621   */\n      sub\n        /* \"#utility.yul\":10596:10598   */\n      0x20\n        /* \"#utility.yul\":10585:10594   */\n      dup4\n        /* \"#utility.yul\":10581:10599   */\n      add\n        /* \"#utility.yul\":10574:10622   */\n      mstore\n        /* \"#utility.yul\":10639:10767   */\n      tag_650\n        /* \"#utility.yul\":10762:10766   */\n      dup2\n        /* \"#utility.yul\":10753:10759   */\n      dup11\n        /* \"#utility.yul\":10639:10767   */\n      tag_446\n      jump\t// in\n    tag_650:\n        /* \"#utility.yul\":10631:10767   */\n      swap1\n      pop\n        /* \"#utility.yul\":10814:10823   */\n      dup2\n        /* \"#utility.yul\":10808:10812   */\n      dup2\n        /* \"#utility.yul\":10804:10824   */\n      sub\n        /* \"#utility.yul\":10799:10801   */\n      0x40\n        /* \"#utility.yul\":10788:10797   */\n      dup4\n        /* \"#utility.yul\":10784:10802   */\n      add\n        /* \"#utility.yul\":10777:10825   */\n      mstore\n        /* \"#utility.yul\":10842:10970   */\n      tag_651\n        /* \"#utility.yul\":10965:10969   */\n      dup2\n        /* \"#utility.yul\":10956:10962   */\n      dup10\n        /* \"#utility.yul\":10842:10970   */\n      tag_446\n      jump\t// in\n    tag_651:\n        /* \"#utility.yul\":10834:10970   */\n      swap1\n      pop\n        /* \"#utility.yul\":10980:11052   */\n      tag_652\n        /* \"#utility.yul\":11048:11050   */\n      0x60\n        /* \"#utility.yul\":11037:11046   */\n      dup4\n        /* \"#utility.yul\":11033:11051   */\n      add\n        /* \"#utility.yul\":11024:11030   */\n      dup9\n        /* \"#utility.yul\":10980:11052   */\n      tag_449\n      jump\t// in\n    tag_652:\n        /* \"#utility.yul\":11062:11135   */\n      tag_653\n        /* \"#utility.yul\":11130:11133   */\n      0x80\n        /* \"#utility.yul\":11119:11128   */\n      dup4\n        /* \"#utility.yul\":11115:11134   */\n      add\n        /* \"#utility.yul\":11106:11112   */\n      dup8\n        /* \"#utility.yul\":11062:11135   */\n      tag_427\n      jump\t// in\n    tag_653:\n        /* \"#utility.yul\":11145:11212   */\n      tag_654\n        /* \"#utility.yul\":11207:11210   */\n      0xa0\n        /* \"#utility.yul\":11196:11205   */\n      dup4\n        /* \"#utility.yul\":11192:11211   */\n      add\n        /* \"#utility.yul\":11183:11189   */\n      dup7\n        /* \"#utility.yul\":11145:11212   */\n      tag_429\n      jump\t// in\n    tag_654:\n        /* \"#utility.yul\":11222:11295   */\n      tag_655\n        /* \"#utility.yul\":11290:11293   */\n      0xc0\n        /* \"#utility.yul\":11279:11288   */\n      dup4\n        /* \"#utility.yul\":11275:11294   */\n      add\n        /* \"#utility.yul\":11266:11272   */\n      dup6\n        /* \"#utility.yul\":11222:11295   */\n      tag_427\n      jump\t// in\n    tag_655:\n        /* \"#utility.yul\":11343:11352   */\n      dup2\n        /* \"#utility.yul\":11337:11341   */\n      dup2\n        /* \"#utility.yul\":11333:11353   */\n      sub\n        /* \"#utility.yul\":11327:11330   */\n      0xe0\n        /* \"#utility.yul\":11316:11325   */\n      dup4\n        /* \"#utility.yul\":11312:11331   */\n      add\n        /* \"#utility.yul\":11305:11354   */\n      mstore\n        /* \"#utility.yul\":11371:11449   */\n      tag_656\n        /* \"#utility.yul\":11444:11448   */\n      dup2\n        /* \"#utility.yul\":11435:11441   */\n      dup5\n        /* \"#utility.yul\":11371:11449   */\n      tag_451\n      jump\t// in\n    tag_656:\n        /* \"#utility.yul\":11363:11449   */\n      swap1\n      pop\n        /* \"#utility.yul\":9847:11456   */\n      swap10\n      swap9\n      pop\n      pop\n      pop\n      pop\n      pop\n      pop\n      pop\n      pop\n      pop\n      jump\t// out\n        /* \"#utility.yul\":11462:12407   */\n    tag_48:\n        /* \"#utility.yul\":11729:11733   */\n      0x00\n        /* \"#utility.yul\":11767:11770   */\n      0xc0\n        /* \"#utility.yul\":11756:11765   */\n      dup3\n        /* \"#utility.yul\":11752:11771   */\n      add\n        /* \"#utility.yul\":11744:11771   */\n      swap1\n      pop\n        /* \"#utility.yul\":11781:11852   */\n      tag_658\n        /* \"#utility.yul\":11849:11850   */\n      0x00\n        /* \"#utility.yul\":11838:11847   */\n      dup4\n        /* \"#utility.yul\":11834:11851   */\n      add\n        /* \"#utility.yul\":11825:11831   */\n      dup10\n        /* \"#utility.yul\":11781:11852   */\n      tag_427\n      jump\t// in\n    tag_658:\n        /* \"#utility.yul\":11899:11908   */\n      dup2\n        /* \"#utility.yul\":11893:11897   */\n      dup2\n        /* \"#utility.yul\":11889:11909   */\n      sub\n        /* \"#utility.yul\":11884:11886   */\n      0x20\n        /* \"#utility.yul\":11873:11882   */\n      dup4\n        /* \"#utility.yul\":11869:11887   */\n      add\n        /* \"#utility.yul\":11862:11910   */\n      mstore\n        /* \"#utility.yul\":11927:12005   */\n      tag_659\n        /* \"#utility.yul\":12000:12004   */\n      dup2\n        /* \"#utility.yul\":11991:11997   */\n      dup9\n        /* \"#utility.yul\":11927:12005   */\n      tag_451\n      jump\t// in\n    tag_659:\n        /* \"#utility.yul\":11919:12005   */\n      swap1\n      pop\n        /* \"#utility.yul\":12052:12061   */\n      dup2\n        /* \"#utility.yul\":12046:12050   */\n      dup2\n        /* \"#utility.yul\":12042:12062   */\n      sub\n        /* \"#utility.yul\":12037:12039   */\n      0x40\n        /* \"#utility.yul\":12026:12035   */\n      dup4\n        /* \"#utility.yul\":12022:12040   */\n      add\n        /* \"#utility.yul\":12015:12063   */\n      mstore\n        /* \"#utility.yul\":12080:12158   */\n      tag_660\n        /* \"#utility.yul\":12153:12157   */\n      dup2\n        /* \"#utility.yul\":12144:12150   */\n      dup8\n        /* \"#utility.yul\":12080:12158   */\n      tag_451\n      jump\t// in\n    tag_660:\n        /* \"#utility.yul\":12072:12158   */\n      swap1\n      pop\n        /* \"#utility.yul\":12168:12240   */\n      tag_661\n        /* \"#utility.yul\":12236:12238   */\n      0x60\n        /* \"#utility.yul\":12225:12234   */\n      dup4\n        /* \"#utility.yul\":12221:12239   */\n      add\n        /* \"#utility.yul\":12212:12218   */\n      dup7\n        /* \"#utility.yul\":12168:12240   */\n      tag_449\n      jump\t// in\n    tag_661:\n        /* \"#utility.yul\":12250:12323   */\n      tag_662\n        /* \"#utility.yul\":12318:12321   */\n      0x80\n        /* \"#utility.yul\":12307:12316   */\n      dup4\n        /* \"#utility.yul\":12303:12322   */\n      add\n        /* \"#utility.yul\":12294:12300   */\n      dup6\n        /* \"#utility.yul\":12250:12323   */\n      tag_427\n      jump\t// in\n    tag_662:\n        /* \"#utility.yul\":12333:12400   */\n      tag_663\n        /* \"#utility.yul\":12395:12398   */\n      0xa0\n        /* \"#utility.yul\":12384:12393   */\n      dup4\n        /* \"#utility.yul\":12380:12399   */\n      add\n        /* \"#utility.yul\":12371:12377   */\n      dup5\n        /* \"#utility.yul\":12333:12400   */\n      tag_429\n      jump\t// in\n    tag_663:\n        /* \"#utility.yul\":11462:12407   */\n      swap8\n      swap7\n      pop\n      pop\n      pop\n      pop\n      pop\n      pop\n      pop\n      jump\t// out\n        /* \"#utility.yul\":12413:12535   */\n    tag_452:\n        /* \"#utility.yul\":12486:12510   */\n      tag_665\n        /* \"#utility.yul\":12504:12509   */\n      dup2\n        /* \"#utility.yul\":12486:12510   */\n      tag_448\n      jump\t// in\n    tag_665:\n        /* \"#utility.yul\":12479:12484   */\n      dup2\n        /* \"#utility.yul\":12476:12511   */\n      eq\n        /* \"#utility.yul\":12466:12529   */\n      tag_666\n      jumpi\n        /* \"#utility.yul\":12525:12526   */\n      0x00\n        /* \"#utility.yul\":12522:12523   */\n      dup1\n        /* \"#utility.yul\":12515:12527   */\n      revert\n        /* \"#utility.yul\":12466:12529   */\n    tag_666:\n        /* \"#utility.yul\":12413:12535   */\n      pop\n      jump\t// out\n        /* \"#utility.yul\":12541:12680   */\n    tag_453:\n        /* \"#utility.yul\":12587:12592   */\n      0x00\n        /* \"#utility.yul\":12625:12631   */\n      dup2\n        /* \"#utility.yul\":12612:12632   */\n      calldataload\n        /* \"#utility.yul\":12603:12632   */\n      swap1\n      pop\n        /* \"#utility.yul\":12641:12674   */\n      tag_668\n        /* \"#utility.yul\":12668:12673   */\n      dup2\n        /* \"#utility.yul\":12641:12674   */\n      tag_452\n      jump\t// in\n    tag_668:\n        /* \"#utility.yul\":12541:12680   */\n      swap3\n      swap2\n      pop\n      pop\n      jump\t// out\n        /* \"#utility.yul\":12686:13811   */\n    tag_51:\n        /* \"#utility.yul\":12792:12798   */\n      0x00\n        /* \"#utility.yul\":12800:12806   */\n      dup1\n        /* \"#utility.yul\":12808:12814   */\n      0x00\n        /* \"#utility.yul\":12816:12822   */\n      dup1\n        /* \"#utility.yul\":12865:12868   */\n      0x80\n        /* \"#utility.yul\":12853:12862   */\n      dup6\n        /* \"#utility.yul\":12844:12851   */\n      dup8\n        /* \"#utility.yul\":12840:12863   */\n      sub\n        /* \"#utility.yul\":12836:12869   */\n      slt\n        /* \"#utility.yul\":12833:12953   */\n      iszero\n      tag_670\n      jumpi\n        /* \"#utility.yul\":12872:12951   */\n      tag_671\n      tag_413\n      jump\t// in\n    tag_671:\n        /* \"#utility.yul\":12833:12953   */\n    tag_670:\n        /* \"#utility.yul\":12992:12993   */\n      0x00\n        /* \"#utility.yul\":13017:13070   */\n      tag_672\n        /* \"#utility.yul\":13062:13069   */\n      dup8\n        /* \"#utility.yul\":13053:13059   */\n      dup3\n        /* \"#utility.yul\":13042:13051   */\n      dup9\n        /* \"#utility.yul\":13038:13060   */\n      add\n        /* \"#utility.yul\":13017:13070   */\n      tag_417\n      jump\t// in\n    tag_672:\n        /* \"#utility.yul\":13007:13070   */\n      swap5\n      pop\n        /* \"#utility.yul\":12963:13080   */\n      pop\n        /* \"#utility.yul\":13119:13121   */\n      0x20\n        /* \"#utility.yul\":13145:13198   */\n      tag_673\n        /* \"#utility.yul\":13190:13197   */\n      dup8\n        /* \"#utility.yul\":13181:13187   */\n      dup3\n        /* \"#utility.yul\":13170:13179   */\n      dup9\n        /* \"#utility.yul\":13166:13188   */\n      add\n        /* \"#utility.yul\":13145:13198   */\n      tag_453\n      jump\t// in\n    tag_673:\n        /* \"#utility.yul\":13135:13198   */\n      swap4\n      pop\n        /* \"#utility.yul\":13090:13208   */\n      pop\n        /* \"#utility.yul\":13275:13277   */\n      0x40\n        /* \"#utility.yul\":13264:13273   */\n      dup6\n        /* \"#utility.yul\":13260:13278   */\n      add\n        /* \"#utility.yul\":13247:13279   */\n      calldataload\n        /* \"#utility.yul\":13306:13324   */\n      0xffffffffffffffff\n        /* \"#utility.yul\":13298:13304   */\n      dup2\n        /* \"#utility.yul\":13295:13325   */\n      gt\n        /* \"#utility.yul\":13292:13409   */\n      iszero\n      tag_674\n      jumpi\n        /* \"#utility.yul\":13328:13407   */\n      tag_675\n      tag_414\n      jump\t// in\n    tag_675:\n        /* \"#utility.yul\":13292:13409   */\n    tag_674:\n        /* \"#utility.yul\":13433:13496   */\n      tag_676\n        /* \"#utility.yul\":13488:13495   */\n      dup8\n        /* \"#utility.yul\":13479:13485   */\n      dup3\n        /* \"#utility.yul\":13468:13477   */\n      dup9\n        /* \"#utility.yul\":13464:13486   */\n      add\n        /* \"#utility.yul\":13433:13496   */\n      tag_426\n      jump\t// in\n    tag_676:\n        /* \"#utility.yul\":13423:13496   */\n      swap3\n      pop\n        /* \"#utility.yul\":13218:13506   */\n      pop\n        /* \"#utility.yul\":13573:13575   */\n      0x60\n        /* \"#utility.yul\":13562:13571   */\n      dup6\n        /* \"#utility.yul\":13558:13576   */\n      add\n        /* \"#utility.yul\":13545:13577   */\n      calldataload\n        /* \"#utility.yul\":13604:13622   */\n      0xffffffffffffffff\n        /* \"#utility.yul\":13596:13602   */\n      dup2\n        /* \"#utility.yul\":13593:13623   */\n      gt\n        /* \"#utility.yul\":13590:13707   */\n      iszero\n      tag_677\n      jumpi\n        /* \"#utility.yul\":13626:13705   */\n      tag_678\n      tag_414\n      jump\t// in\n    tag_678:\n        /* \"#utility.yul\":13590:13707   */\n    tag_677:\n        /* \"#utility.yul\":13731:13794   */\n      tag_679\n        /* \"#utility.yul\":13786:13793   */\n      dup8\n        /* \"#utility.yul\":13777:13783   */\n      dup3\n        /* \"#utility.yul\":13766:13775   */\n      dup9\n        /* \"#utility.yul\":13762:13784   */\n      add\n        /* \"#utility.yul\":13731:13794   */\n      tag_426\n      jump\t// in\n    tag_679:\n        /* \"#utility.yul\":13721:13794   */\n      swap2\n      pop\n        /* \"#utility.yul\":13516:13804   */\n      pop\n        /* \"#utility.yul\":12686:13811   */\n      swap3\n      swap6\n      swap2\n      swap5\n      pop\n      swap3\n      pop\n      jump\t// out\n        /* \"#utility.yul\":13817:14291   */\n    tag_55:\n        /* \"#utility.yul\":13885:13891   */\n      0x00\n        /* \"#utility.yul\":13893:13899   */\n      dup1\n        /* \"#utility.yul\":13942:13944   */\n      0x40\n        /* \"#utility.yul\":13930:13939   */\n      dup4\n        /* \"#utility.yul\":13921:13928   */\n      dup6\n        /* \"#utility.yul\":13917:13940   */\n      sub\n        /* \"#utility.yul\":13913:13945   */\n      slt\n        /* \"#utility.yul\":13910:14029   */\n      iszero\n      tag_681\n      jumpi\n        /* \"#utility.yul\":13948:14027   */\n      tag_682\n      tag_413\n      jump\t// in\n    tag_682:\n        /* \"#utility.yul\":13910:14029   */\n    tag_681:\n        /* \"#utility.yul\":14068:14069   */\n      0x00\n        /* \"#utility.yul\":14093:14146   */\n      tag_683\n        /* \"#utility.yul\":14138:14145   */\n      dup6\n        /* \"#utility.yul\":14129:14135   */\n      dup3\n        /* \"#utility.yul\":14118:14127   */\n      dup7\n        /* \"#utility.yul\":14114:14136   */\n      add\n        /* \"#utility.yul\":14093:14146   */\n      tag_417\n      jump\t// in\n    tag_683:\n        /* \"#utility.yul\":14083:14146   */\n      swap3\n      pop\n        /* \"#utility.yul\":14039:14156   */\n      pop\n        /* \"#utility.yul\":14195:14197   */\n      0x20\n        /* \"#utility.yul\":14221:14274   */\n      tag_684\n        /* \"#utility.yul\":14266:14273   */\n      dup6\n        /* \"#utility.yul\":14257:14263   */\n      dup3\n        /* \"#utility.yul\":14246:14255   */\n      dup7\n        /* \"#utility.yul\":14242:14264   */\n      add\n        /* \"#utility.yul\":14221:14274   */\n      tag_453\n      jump\t// in\n    tag_684:\n        /* \"#utility.yul\":14211:14274   */\n      swap2\n      pop\n        /* \"#utility.yul\":14166:14284   */\n      pop\n        /* \"#utility.yul\":13817:14291   */\n      swap3\n      pop\n      swap3\n      swap1\n      pop\n      jump\t// out\n        /* \"#utility.yul\":14297:14626   */\n    tag_59:\n        /* \"#utility.yul\":14356:14362   */\n      0x00\n        /* \"#utility.yul\":14405:14407   */\n      0x20\n        /* \"#utility.yul\":14393:14402   */\n      dup3\n        /* \"#utility.yul\":14384:14391   */\n      dup5\n        /* \"#utility.yul\":14380:14403   */\n      sub\n        /* \"#utility.yul\":14376:14408   */\n      slt\n        /* \"#utility.yul\":14373:14492   */\n      iszero\n      tag_686\n      jumpi\n        /* \"#utility.yul\":14411:14490   */\n      tag_687\n      tag_413\n      jump\t// in\n    tag_687:\n        /* \"#utility.yul\":14373:14492   */\n    tag_686:\n        /* \"#utility.yul\":14531:14532   */\n      0x00\n        /* \"#utility.yul\":14556:14609   */\n      tag_688\n        /* \"#utility.yul\":14601:14608   */\n      dup5\n        /* \"#utility.yul\":14592:14598   */\n      dup3\n        /* \"#utility.yul\":14581:14590   */\n      dup6\n        /* \"#utility.yul\":14577:14599   */\n      add\n        /* \"#utility.yul\":14556:14609   */\n      tag_453\n      jump\t// in\n    tag_688:\n        /* \"#utility.yul\":14546:14609   */\n      swap2\n      pop\n        /* \"#utility.yul\":14502:14619   */\n      pop\n        /* \"#utility.yul\":14297:14626   */\n      swap3\n      swap2\n      pop\n      pop\n      jump\t// out\n        /* \"#utility.yul\":14632:14854   */\n    tag_65:\n        /* \"#utility.yul\":14725:14729   */\n      0x00\n        /* \"#utility.yul\":14763:14765   */\n      0x20\n        /* \"#utility.yul\":14752:14761   */\n      dup3\n        /* \"#utility.yul\":14748:14766   */\n      add\n        /* \"#utility.yul\":14740:14766   */\n      swap1\n      pop\n        /* \"#utility.yul\":14776:14847   */\n      tag_690\n        /* \"#utility.yul\":14844:14845   */\n      0x00\n        /* \"#utility.yul\":14833:14842   */\n      dup4\n        /* \"#utility.yul\":14829:14846   */\n      add\n        /* \"#utility.yul\":14820:14826   */\n      dup5\n        /* \"#utility.yul\":14776:14847   */\n      tag_449\n      jump\t// in\n    tag_690:\n        /* \"#utility.yul\":14632:14854   */\n      swap3\n      swap2\n      pop\n      pop\n      jump\t// out\n        /* \"#utility.yul\":14860:15694   */\n    tag_68:\n        /* \"#utility.yul\":14948:14954   */\n      0x00\n        /* \"#utility.yul\":14956:14962   */\n      dup1\n        /* \"#utility.yul\":15005:15007   */\n      0x40\n        /* \"#utility.yul\":14993:15002   */\n      dup4\n        /* \"#utility.yul\":14984:14991   */\n      dup6\n        /* \"#utility.yul\":14980:15003   */\n      sub\n        /* \"#utility.yul\":14976:15008   */\n      slt\n        /* \"#utility.yul\":14973:15092   */\n      iszero\n      tag_692\n      jumpi\n        /* \"#utility.yul\":15011:15090   */\n      tag_693\n      tag_413\n      jump\t// in\n    tag_693:\n        /* \"#utility.yul\":14973:15092   */\n    tag_692:\n        /* \"#utility.yul\":15159:15160   */\n      0x00\n        /* \"#utility.yul\":15148:15157   */\n      dup4\n        /* \"#utility.yul\":15144:15161   */\n      add\n        /* \"#utility.yul\":15131:15162   */\n      calldataload\n        /* \"#utility.yul\":15189:15207   */\n      0xffffffffffffffff\n        /* \"#utility.yul\":15181:15187   */\n      dup2\n        /* \"#utility.yul\":15178:15208   */\n      gt\n        /* \"#utility.yul\":15175:15292   */\n      iszero\n      tag_694\n      jumpi\n        /* \"#utility.yul\":15211:15290   */\n      tag_695\n      tag_414\n      jump\t// in\n    tag_695:\n        /* \"#utility.yul\":15175:15292   */\n    tag_694:\n        /* \"#utility.yul\":15316:15379   */\n      tag_696\n        /* \"#utility.yul\":15371:15378   */\n      dup6\n        /* \"#utility.yul\":15362:15368   */\n      dup3\n        /* \"#utility.yul\":15351:15360   */\n      dup7\n        /* \"#utility.yul\":15347:15369   */\n      add\n        /* \"#utility.yul\":15316:15379   */\n      tag_426\n      jump\t// in\n    tag_696:\n        /* \"#utility.yul\":15306:15379   */\n      swap3\n      pop\n        /* \"#utility.yul\":15102:15389   */\n      pop\n        /* \"#utility.yul\":15456:15458   */\n      0x20\n        /* \"#utility.yul\":15445:15454   */\n      dup4\n        /* \"#utility.yul\":15441:15459   */\n      add\n        /* \"#utility.yul\":15428:15460   */\n      calldataload\n        /* \"#utility.yul\":15487:15505   */\n      0xffffffffffffffff\n        /* \"#utility.yul\":15479:15485   */\n      dup2\n        /* \"#utility.yul\":15476:15506   */\n      gt\n        /* \"#utility.yul\":15473:15590   */\n      iszero\n      tag_697\n      jumpi\n        /* \"#utility.yul\":15509:15588   */\n      tag_698\n      tag_414\n      jump\t// in\n    tag_698:\n        /* \"#utility.yul\":15473:15590   */\n    tag_697:\n        /* \"#utility.yul\":15614:15677   */\n      tag_699\n        /* \"#utility.yul\":15669:15676   */\n      dup6\n        /* \"#utility.yul\":15660:15666   */\n      dup3\n        /* \"#utility.yul\":15649:15658   */\n      dup7\n        /* \"#utility.yul\":15645:15667   */\n      add\n        /* \"#utility.yul\":15614:15677   */\n      tag_426\n      jump\t// in\n    tag_699:\n        /* \"#utility.yul\":15604:15677   */\n      swap2\n      pop\n        /* \"#utility.yul\":15399:15687   */\n      pop\n        /* \"#utility.yul\":14860:15694   */\n      swap3\n      pop\n      swap3\n      swap1\n      pop\n      jump\t// out\n        /* \"#utility.yul\":15700:16443   */\n    tag_85:\n        /* \"#utility.yul\":15919:15923   */\n      0x00\n        /* \"#utility.yul\":15957:15960   */\n      0xa0\n        /* \"#utility.yul\":15946:15955   */\n      dup3\n        /* \"#utility.yul\":15942:15961   */\n      add\n        /* \"#utility.yul\":15934:15961   */\n      swap1\n      pop\n        /* \"#utility.yul\":15971:16042   */\n      tag_701\n        /* \"#utility.yul\":16039:16040   */\n      0x00\n        /* \"#utility.yul\":16028:16037   */\n      dup4\n        /* \"#utility.yul\":16024:16041   */\n      add\n        /* \"#utility.yul\":16015:16021   */\n      dup9\n        /* \"#utility.yul\":15971:16042   */\n      tag_449\n      jump\t// in\n    tag_701:\n        /* \"#utility.yul\":16052:16124   */\n      tag_702\n        /* \"#utility.yul\":16120:16122   */\n      0x20\n        /* \"#utility.yul\":16109:16118   */\n      dup4\n        /* \"#utility.yul\":16105:16123   */\n      add\n        /* \"#utility.yul\":16096:16102   */\n      dup8\n        /* \"#utility.yul\":16052:16124   */\n      tag_427\n      jump\t// in\n    tag_702:\n        /* \"#utility.yul\":16134:16200   */\n      tag_703\n        /* \"#utility.yul\":16196:16198   */\n      0x40\n        /* \"#utility.yul\":16185:16194   */\n      dup4\n        /* \"#utility.yul\":16181:16199   */\n      add\n        /* \"#utility.yul\":16172:16178   */\n      dup7\n        /* \"#utility.yul\":16134:16200   */\n      tag_429\n      jump\t// in\n    tag_703:\n        /* \"#utility.yul\":16210:16282   */\n      tag_704\n        /* \"#utility.yul\":16278:16280   */\n      0x60\n        /* \"#utility.yul\":16267:16276   */\n      dup4\n        /* \"#utility.yul\":16263:16281   */\n      add\n        /* \"#utility.yul\":16254:16260   */\n      dup6\n        /* \"#utility.yul\":16210:16282   */\n      tag_427\n      jump\t// in\n    tag_704:\n        /* \"#utility.yul\":16330:16339   */\n      dup2\n        /* \"#utility.yul\":16324:16328   */\n      dup2\n        /* \"#utility.yul\":16320:16340   */\n      sub\n        /* \"#utility.yul\":16314:16317   */\n      0x80\n        /* \"#utility.yul\":16303:16312   */\n      dup4\n        /* \"#utility.yul\":16299:16318   */\n      add\n        /* \"#utility.yul\":16292:16341   */\n      mstore\n        /* \"#utility.yul\":16358:16436   */\n      tag_705\n        /* \"#utility.yul\":16431:16435   */\n      dup2\n        /* \"#utility.yul\":16422:16428   */\n      dup5\n        /* \"#utility.yul\":16358:16436   */\n      tag_451\n      jump\t// in\n    tag_705:\n        /* \"#utility.yul\":16350:16436   */\n      swap1\n      pop\n        /* \"#utility.yul\":15700:16443   */\n      swap7\n      swap6\n      pop\n      pop\n      pop\n      pop\n      pop\n      pop\n      jump\t// out\n        /* \"#utility.yul\":16449:17192   */\n    tag_90:\n        /* \"#utility.yul\":16668:16672   */\n      0x00\n        /* \"#utility.yul\":16706:16709   */\n      0xa0\n        /* \"#utility.yul\":16695:16704   */\n      dup3\n        /* \"#utility.yul\":16691:16710   */\n      add\n        /* \"#utility.yul\":16683:16710   */\n      swap1\n      pop\n        /* \"#utility.yul\":16720:16791   */\n      tag_707\n        /* \"#utility.yul\":16788:16789   */\n      0x00\n        /* \"#utility.yul\":16777:16786   */\n      dup4\n        /* \"#utility.yul\":16773:16790   */\n      add\n        /* \"#utility.yul\":16764:16770   */\n      dup9\n        /* \"#utility.yul\":16720:16791   */\n      tag_427\n      jump\t// in\n    tag_707:\n        /* \"#utility.yul\":16838:16847   */\n      dup2\n        /* \"#utility.yul\":16832:16836   */\n      dup2\n        /* \"#utility.yul\":16828:16848   */\n      sub\n        /* \"#utility.yul\":16823:16825   */\n      0x20\n        /* \"#utility.yul\":16812:16821   */\n      dup4\n        /* \"#utility.yul\":16808:16826   */\n      add\n        /* \"#utility.yul\":16801:16849   */\n      mstore\n        /* \"#utility.yul\":16866:16944   */\n      tag_708\n        /* \"#utility.yul\":16939:16943   */\n      dup2\n        /* \"#utility.yul\":16930:16936   */\n      dup8\n        /* \"#utility.yul\":16866:16944   */\n      tag_451\n      jump\t// in\n    tag_708:\n        /* \"#utility.yul\":16858:16944   */\n      swap1\n      pop\n        /* \"#utility.yul\":16954:17026   */\n      tag_709\n        /* \"#utility.yul\":17022:17024   */\n      0x40\n        /* \"#utility.yul\":17011:17020   */\n      dup4\n        /* \"#utility.yul\":17007:17025   */\n      add\n        /* \"#utility.yul\":16998:17004   */\n      dup7\n        /* \"#utility.yul\":16954:17026   */\n      tag_449\n      jump\t// in\n    tag_709:\n        /* \"#utility.yul\":17036:17108   */\n      tag_710\n        /* \"#utility.yul\":17104:17106   */\n      0x60\n        /* \"#utility.yul\":17093:17102   */\n      dup4\n        /* \"#utility.yul\":17089:17107   */\n      add\n        /* \"#utility.yul\":17080:17086   */\n      dup6\n        /* \"#utility.yul\":17036:17108   */\n      tag_427\n      jump\t// in\n    tag_710:\n        /* \"#utility.yul\":17118:17185   */\n      tag_711\n        /* \"#utility.yul\":17180:17183   */\n      0x80\n        /* \"#utility.yul\":17169:17178   */\n      dup4\n        /* \"#utility.yul\":17165:17184   */\n      add\n        /* \"#utility.yul\":17156:17162   */\n      dup5\n        /* \"#utility.yul\":17118:17185   */\n      tag_429\n      jump\t// in\n    tag_711:\n        /* \"#utility.yul\":16449:17192   */\n      swap7\n      swap6\n      pop\n      pop\n      pop\n      pop\n      pop\n      pop\n      jump\t// out\n        /* \"#utility.yul\":17198:17511   */\n    tag_98:\n        /* \"#utility.yul\":17311:17315   */\n      0x00\n        /* \"#utility.yul\":17349:17351   */\n      0x20\n        /* \"#utility.yul\":17338:17347   */\n      dup3\n        /* \"#utility.yul\":17334:17352   */\n      add\n        /* \"#utility.yul\":17326:17352   */\n      swap1\n      pop\n        /* \"#utility.yul\":17398:17407   */\n      dup2\n        /* \"#utility.yul\":17392:17396   */\n      dup2\n        /* \"#utility.yul\":17388:17408   */\n      sub\n        /* \"#utility.yul\":17384:17385   */\n      0x00\n        /* \"#utility.yul\":17373:17382   */\n      dup4\n        /* \"#utility.yul\":17369:17386   */\n      add\n        /* \"#utility.yul\":17362:17409   */\n      mstore\n        /* \"#utility.yul\":17426:17504   */\n      tag_713\n        /* \"#utility.yul\":17499:17503   */\n      dup2\n        /* \"#utility.yul\":17490:17496   */\n      dup5\n        /* \"#utility.yul\":17426:17504   */\n      tag_451\n      jump\t// in\n    tag_713:\n        /* \"#utility.yul\":17418:17504   */\n      swap1\n      pop\n        /* \"#utility.yul\":17198:17511   */\n      swap3\n      swap2\n      pop\n      pop\n      jump\t// out\n        /* \"#utility.yul\":17517:17828   */\n    tag_454:\n        /* \"#utility.yul\":17594:17598   */\n      0x00\n        /* \"#utility.yul\":17684:17702   */\n      0xffffffffffffffff\n        /* \"#utility.yul\":17676:17682   */\n      dup3\n        /* \"#utility.yul\":17673:17703   */\n      gt\n        /* \"#utility.yul\":17670:17726   */\n      iszero\n      tag_715\n      jumpi\n        /* \"#utility.yul\":17706:17724   */\n      tag_716\n      tag_198\n      jump\t// in\n    tag_716:\n        /* \"#utility.yul\":17670:17726   */\n    tag_715:\n        /* \"#utility.yul\":17756:17760   */\n      0x20\n        /* \"#utility.yul\":17748:17754   */\n      dup3\n        /* \"#utility.yul\":17744:17761   */\n      mul\n        /* \"#utility.yul\":17736:17761   */\n      swap1\n      pop\n        /* \"#utility.yul\":17816:17820   */\n      0x20\n        /* \"#utility.yul\":17810:17814   */\n      dup2\n        /* \"#utility.yul\":17806:17821   */\n      add\n        /* \"#utility.yul\":17798:17821   */\n      swap1\n      pop\n        /* \"#utility.yul\":17517:17828   */\n      swap2\n      swap1\n      pop\n      jump\t// out\n        /* \"#utility.yul\":17834:17951   */\n    tag_455:\n        /* \"#utility.yul\":17943:17944   */\n      0x00\n        /* \"#utility.yul\":17940:17941   */\n      dup1\n        /* \"#utility.yul\":17933:17945   */\n      revert\n        /* \"#utility.yul\":17974:18684   */\n    tag_456:\n        /* \"#utility.yul\":18070:18075   */\n      0x00\n        /* \"#utility.yul\":18095:18176   */\n      tag_719\n        /* \"#utility.yul\":18111:18175   */\n      tag_720\n        /* \"#utility.yul\":18168:18174   */\n      dup5\n        /* \"#utility.yul\":18111:18175   */\n      tag_454\n      jump\t// in\n    tag_720:\n        /* \"#utility.yul\":18095:18176   */\n      tag_422\n      jump\t// in\n    tag_719:\n        /* \"#utility.yul\":18086:18176   */\n      swap1\n      pop\n        /* \"#utility.yul\":18196:18201   */\n      dup1\n        /* \"#utility.yul\":18225:18231   */\n      dup4\n        /* \"#utility.yul\":18218:18223   */\n      dup3\n        /* \"#utility.yul\":18211:18232   */\n      mstore\n        /* \"#utility.yul\":18259:18263   */\n      0x20\n        /* \"#utility.yul\":18252:18257   */\n      dup3\n        /* \"#utility.yul\":18248:18264   */\n      add\n        /* \"#utility.yul\":18241:18264   */\n      swap1\n      pop\n        /* \"#utility.yul\":18312:18316   */\n      0x20\n        /* \"#utility.yul\":18304:18310   */\n      dup5\n        /* \"#utility.yul\":18300:18317   */\n      mul\n        /* \"#utility.yul\":18292:18298   */\n      dup4\n        /* \"#utility.yul\":18288:18318   */\n      add\n        /* \"#utility.yul\":18341:18344   */\n      dup6\n        /* \"#utility.yul\":18333:18339   */\n      dup2\n        /* \"#utility.yul\":18330:18345   */\n      gt\n        /* \"#utility.yul\":18327:18449   */\n      iszero\n      tag_721\n      jumpi\n        /* \"#utility.yul\":18360:18439   */\n      tag_722\n      tag_455\n      jump\t// in\n    tag_722:\n        /* \"#utility.yul\":18327:18449   */\n    tag_721:\n        /* \"#utility.yul\":18475:18481   */\n      dup4\n        /* \"#utility.yul\":18458:18678   */\n    tag_723:\n        /* \"#utility.yul\":18492:18498   */\n      dup2\n        /* \"#utility.yul\":18487:18490   */\n      dup2\n        /* \"#utility.yul\":18484:18499   */\n      lt\n        /* \"#utility.yul\":18458:18678   */\n      iszero\n      tag_725\n      jumpi\n        /* \"#utility.yul\":18567:18570   */\n      dup1\n        /* \"#utility.yul\":18596:18633   */\n      tag_726\n        /* \"#utility.yul\":18629:18632   */\n      dup9\n        /* \"#utility.yul\":18617:18627   */\n      dup3\n        /* \"#utility.yul\":18596:18633   */\n      tag_417\n      jump\t// in\n    tag_726:\n        /* \"#utility.yul\":18591:18594   */\n      dup5\n        /* \"#utility.yul\":18584:18634   */\n      mstore\n        /* \"#utility.yul\":18663:18667   */\n      0x20\n        /* \"#utility.yul\":18658:18661   */\n      dup5\n        /* \"#utility.yul\":18654:18668   */\n      add\n        /* \"#utility.yul\":18647:18668   */\n      swap4\n      pop\n        /* \"#utility.yul\":18534:18678   */\n      pop\n        /* \"#utility.yul\":18518:18522   */\n      0x20\n        /* \"#utility.yul\":18513:18516   */\n      dup2\n        /* \"#utility.yul\":18509:18523   */\n      add\n        /* \"#utility.yul\":18502:18523   */\n      swap1\n      pop\n        /* \"#utility.yul\":18458:18678   */\n      jump(tag_723)\n    tag_725:\n        /* \"#utility.yul\":18462:18483   */\n      pop\n        /* \"#utility.yul\":18076:18684   */\n      pop\n      pop\n        /* \"#utility.yul\":17974:18684   */\n      swap4\n      swap3\n      pop\n      pop\n      pop\n      jump\t// out\n        /* \"#utility.yul\":18707:19077   */\n    tag_457:\n        /* \"#utility.yul\":18778:18783   */\n      0x00\n        /* \"#utility.yul\":18827:18830   */\n      dup3\n        /* \"#utility.yul\":18820:18824   */\n      0x1f\n        /* \"#utility.yul\":18812:18818   */\n      dup4\n        /* \"#utility.yul\":18808:18825   */\n      add\n        /* \"#utility.yul\":18804:18831   */\n      slt\n        /* \"#utility.yul\":18794:18916   */\n      tag_728\n      jumpi\n        /* \"#utility.yul\":18835:18914   */\n      tag_729\n      tag_418\n      jump\t// in\n    tag_729:\n        /* \"#utility.yul\":18794:18916   */\n    tag_728:\n        /* \"#utility.yul\":18952:18958   */\n      dup2\n        /* \"#utility.yul\":18939:18959   */\n      calldataload\n        /* \"#utility.yul\":18977:19071   */\n      tag_730\n        /* \"#utility.yul\":19067:19070   */\n      dup5\n        /* \"#utility.yul\":19059:19065   */\n      dup3\n        /* \"#utility.yul\":19052:19056   */\n      0x20\n        /* \"#utility.yul\":19044:19050   */\n      dup7\n        /* \"#utility.yul\":19040:19057   */\n      add\n        /* \"#utility.yul\":18977:19071   */\n      tag_456\n      jump\t// in\n    tag_730:\n        /* \"#utility.yul\":18968:19071   */\n      swap2\n      pop\n        /* \"#utility.yul\":18784:19077   */\n      pop\n        /* \"#utility.yul\":18707:19077   */\n      swap3\n      swap2\n      pop\n      pop\n      jump\t// out\n        /* \"#utility.yul\":19083:19404   */\n    tag_458:\n        /* \"#utility.yul\":19170:19174   */\n      0x00\n        /* \"#utility.yul\":19260:19278   */\n      0xffffffffffffffff\n        /* \"#utility.yul\":19252:19258   */\n      dup3\n        /* \"#utility.yul\":19249:19279   */\n      gt\n        /* \"#utility.yul\":19246:19302   */\n      iszero\n      tag_732\n      jumpi\n        /* \"#utility.yul\":19282:19300   */\n      tag_733\n      tag_198\n      jump\t// in\n    tag_733:\n        /* \"#utility.yul\":19246:19302   */\n    tag_732:\n        /* \"#utility.yul\":19332:19336   */\n      0x20\n        /* \"#utility.yul\":19324:19330   */\n      dup3\n        /* \"#utility.yul\":19320:19337   */\n      mul\n        /* \"#utility.yul\":19312:19337   */\n      swap1\n      pop\n        /* \"#utility.yul\":19392:19396   */\n      0x20\n        /* \"#utility.yul\":19386:19390   */\n      dup2\n        /* \"#utility.yul\":19382:19397   */\n      add\n        /* \"#utility.yul\":19374:19397   */\n      swap1\n      pop\n        /* \"#utility.yul\":19083:19404   */\n      swap2\n      swap1\n      pop\n      jump\t// out\n        /* \"#utility.yul\":19426:20371   */\n    tag_459:\n        /* \"#utility.yul\":19532:19537   */\n      0x00\n        /* \"#utility.yul\":19557:19648   */\n      tag_735\n        /* \"#utility.yul\":19573:19647   */\n      tag_736\n        /* \"#utility.yul\":19640:19646   */\n      dup5\n        /* \"#utility.yul\":19573:19647   */\n      tag_458\n      jump\t// in\n    tag_736:\n        /* \"#utility.yul\":19557:19648   */\n      tag_422\n      jump\t// in\n    tag_735:\n        /* \"#utility.yul\":19548:19648   */\n      swap1\n      pop\n        /* \"#utility.yul\":19668:19673   */\n      dup1\n        /* \"#utility.yul\":19697:19703   */\n      dup4\n        /* \"#utility.yul\":19690:19695   */\n      dup3\n        /* \"#utility.yul\":19683:19704   */\n      mstore\n        /* \"#utility.yul\":19731:19735   */\n      0x20\n        /* \"#utility.yul\":19724:19729   */\n      dup3\n        /* \"#utility.yul\":19720:19736   */\n      add\n        /* \"#utility.yul\":19713:19736   */\n      swap1\n      pop\n        /* \"#utility.yul\":19784:19788   */\n      0x20\n        /* \"#utility.yul\":19776:19782   */\n      dup5\n        /* \"#utility.yul\":19772:19789   */\n      mul\n        /* \"#utility.yul\":19764:19770   */\n      dup4\n        /* \"#utility.yul\":19760:19790   */\n      add\n        /* \"#utility.yul\":19813:19816   */\n      dup6\n        /* \"#utility.yul\":19805:19811   */\n      dup2\n        /* \"#utility.yul\":19802:19817   */\n      gt\n        /* \"#utility.yul\":19799:19921   */\n      iszero\n      tag_737\n      jumpi\n        /* \"#utility.yul\":19832:19911   */\n      tag_738\n      tag_455\n      jump\t// in\n    tag_738:\n        /* \"#utility.yul\":19799:19921   */\n    tag_737:\n        /* \"#utility.yul\":19947:19953   */\n      dup4\n        /* \"#utility.yul\":19930:20365   */\n    tag_739:\n        /* \"#utility.yul\":19964:19970   */\n      dup2\n        /* \"#utility.yul\":19959:19962   */\n      dup2\n        /* \"#utility.yul\":19956:19971   */\n      lt\n        /* \"#utility.yul\":19930:20365   */\n      iszero\n      tag_741\n      jumpi\n        /* \"#utility.yul\":20053:20056   */\n      dup1\n        /* \"#utility.yul\":20040:20057   */\n      calldataload\n        /* \"#utility.yul\":20089:20107   */\n      0xffffffffffffffff\n        /* \"#utility.yul\":20076:20087   */\n      dup2\n        /* \"#utility.yul\":20073:20108   */\n      gt\n        /* \"#utility.yul\":20070:20192   */\n      iszero\n      tag_742\n      jumpi\n        /* \"#utility.yul\":20111:20190   */\n      tag_743\n      tag_418\n      jump\t// in\n    tag_743:\n        /* \"#utility.yul\":20070:20192   */\n    tag_742:\n        /* \"#utility.yul\":20235:20246   */\n      dup1\n        /* \"#utility.yul\":20227:20233   */\n      dup7\n        /* \"#utility.yul\":20223:20247   */\n      add\n        /* \"#utility.yul\":20273:20320   */\n      tag_744\n        /* \"#utility.yul\":20316:20319   */\n      dup10\n        /* \"#utility.yul\":20304:20314   */\n      dup3\n        /* \"#utility.yul\":20273:20320   */\n      tag_426\n      jump\t// in\n    tag_744:\n        /* \"#utility.yul\":20268:20271   */\n      dup6\n        /* \"#utility.yul\":20261:20321   */\n      mstore\n        /* \"#utility.yul\":20350:20354   */\n      0x20\n        /* \"#utility.yul\":20345:20348   */\n      dup6\n        /* \"#utility.yul\":20341:20355   */\n      add\n        /* \"#utility.yul\":20334:20355   */\n      swap5\n      pop\n        /* \"#utility.yul\":20006:20365   */\n      pop\n      pop\n        /* \"#utility.yul\":19990:19994   */\n      0x20\n        /* \"#utility.yul\":19985:19988   */\n      dup2\n        /* \"#utility.yul\":19981:19995   */\n      add\n        /* \"#utility.yul\":19974:19995   */\n      swap1\n      pop\n        /* \"#utility.yul\":19930:20365   */\n      jump(tag_739)\n    tag_741:\n        /* \"#utility.yul\":19934:19955   */\n      pop\n        /* \"#utility.yul\":19538:20371   */\n      pop\n      pop\n        /* \"#utility.yul\":19426:20371   */\n      swap4\n      swap3\n      pop\n      pop\n      pop\n      jump\t// out\n        /* \"#utility.yul\":20393:20783   */\n    tag_460:\n        /* \"#utility.yul\":20474:20479   */\n      0x00\n        /* \"#utility.yul\":20523:20526   */\n      dup3\n        /* \"#utility.yul\":20516:20520   */\n      0x1f\n        /* \"#utility.yul\":20508:20514   */\n      dup4\n        /* \"#utility.yul\":20504:20521   */\n      add\n        /* \"#utility.yul\":20500:20527   */\n      slt\n        /* \"#utility.yul\":20490:20612   */\n      tag_746\n      jumpi\n        /* \"#utility.yul\":20531:20610   */\n      tag_747\n      tag_418\n      jump\t// in\n    tag_747:\n        /* \"#utility.yul\":20490:20612   */\n    tag_746:\n        /* \"#utility.yul\":20648:20654   */\n      dup2\n        /* \"#utility.yul\":20635:20655   */\n      calldataload\n        /* \"#utility.yul\":20673:20777   */\n      tag_748\n        /* \"#utility.yul\":20773:20776   */\n      dup5\n        /* \"#utility.yul\":20765:20771   */\n      dup3\n        /* \"#utility.yul\":20758:20762   */\n      0x20\n        /* \"#utility.yul\":20750:20756   */\n      dup7\n        /* \"#utility.yul\":20746:20763   */\n      add\n        /* \"#utility.yul\":20673:20777   */\n      tag_459\n      jump\t// in\n    tag_748:\n        /* \"#utility.yul\":20664:20777   */\n      swap2\n      pop\n        /* \"#utility.yul\":20480:20783   */\n      pop\n        /* \"#utility.yul\":20393:20783   */\n      swap3\n      swap2\n      pop\n      pop\n      jump\t// out\n        /* \"#utility.yul\":20789:22404   */\n    tag_104:\n        /* \"#utility.yul\":20980:20986   */\n      0x00\n        /* \"#utility.yul\":20988:20994   */\n      dup1\n        /* \"#utility.yul\":20996:21002   */\n      0x00\n        /* \"#utility.yul\":21004:21010   */\n      dup1\n        /* \"#utility.yul\":21053:21056   */\n      0x80\n        /* \"#utility.yul\":21041:21050   */\n      dup6\n        /* \"#utility.yul\":21032:21039   */\n      dup8\n        /* \"#utility.yul\":21028:21051   */\n      sub\n        /* \"#utility.yul\":21024:21057   */\n      slt\n        /* \"#utility.yul\":21021:21141   */\n      iszero\n      tag_750\n      jumpi\n        /* \"#utility.yul\":21060:21139   */\n      tag_751\n      tag_413\n      jump\t// in\n    tag_751:\n        /* \"#utility.yul\":21021:21141   */\n    tag_750:\n        /* \"#utility.yul\":21208:21209   */\n      0x00\n        /* \"#utility.yul\":21197:21206   */\n      dup6\n        /* \"#utility.yul\":21193:21210   */\n      add\n        /* \"#utility.yul\":21180:21211   */\n      calldataload\n        /* \"#utility.yul\":21238:21256   */\n      0xffffffffffffffff\n        /* \"#utility.yul\":21230:21236   */\n      dup2\n        /* \"#utility.yul\":21227:21257   */\n      gt\n        /* \"#utility.yul\":21224:21341   */\n      iszero\n      tag_752\n      jumpi\n        /* \"#utility.yul\":21260:21339   */\n      tag_753\n      tag_414\n      jump\t// in\n    tag_753:\n        /* \"#utility.yul\":21224:21341   */\n    tag_752:\n        /* \"#utility.yul\":21365:21443   */\n      tag_754\n        /* \"#utility.yul\":21435:21442   */\n      dup8\n        /* \"#utility.yul\":21426:21432   */\n      dup3\n        /* \"#utility.yul\":21415:21424   */\n      dup9\n        /* \"#utility.yul\":21411:21433   */\n      add\n        /* \"#utility.yul\":21365:21443   */\n      tag_457\n      jump\t// in\n    tag_754:\n        /* \"#utility.yul\":21355:21443   */\n      swap5\n      pop\n        /* \"#utility.yul\":21151:21453   */\n      pop\n        /* \"#utility.yul\":21520:21522   */\n      0x20\n        /* \"#utility.yul\":21509:21518   */\n      dup6\n        /* \"#utility.yul\":21505:21523   */\n      add\n        /* \"#utility.yul\":21492:21524   */\n      calldataload\n        /* \"#utility.yul\":21551:21569   */\n      0xffffffffffffffff\n        /* \"#utility.yul\":21543:21549   */\n      dup2\n        /* \"#utility.yul\":21540:21570   */\n      gt\n        /* \"#utility.yul\":21537:21654   */\n      iszero\n      tag_755\n      jumpi\n        /* \"#utility.yul\":21573:21652   */\n      tag_756\n      tag_414\n      jump\t// in\n    tag_756:\n        /* \"#utility.yul\":21537:21654   */\n    tag_755:\n        /* \"#utility.yul\":21678:21766   */\n      tag_757\n        /* \"#utility.yul\":21758:21765   */\n      dup8\n        /* \"#utility.yul\":21749:21755   */\n      dup3\n        /* \"#utility.yul\":21738:21747   */\n      dup9\n        /* \"#utility.yul\":21734:21756   */\n      add\n        /* \"#utility.yul\":21678:21766   */\n      tag_460\n      jump\t// in\n    tag_757:\n        /* \"#utility.yul\":21668:21766   */\n      swap4\n      pop\n        /* \"#utility.yul\":21463:21776   */\n      pop\n        /* \"#utility.yul\":21843:21845   */\n      0x40\n        /* \"#utility.yul\":21832:21841   */\n      dup6\n        /* \"#utility.yul\":21828:21846   */\n      add\n        /* \"#utility.yul\":21815:21847   */\n      calldataload\n        /* \"#utility.yul\":21874:21892   */\n      0xffffffffffffffff\n        /* \"#utility.yul\":21866:21872   */\n      dup2\n        /* \"#utility.yul\":21863:21893   */\n      gt\n        /* \"#utility.yul\":21860:21977   */\n      iszero\n      tag_758\n      jumpi\n        /* \"#utility.yul\":21896:21975   */\n      tag_759\n      tag_414\n      jump\t// in\n    tag_759:\n        /* \"#utility.yul\":21860:21977   */\n    tag_758:\n        /* \"#utility.yul\":22001:22089   */\n      tag_760\n        /* \"#utility.yul\":22081:22088   */\n      dup8\n        /* \"#utility.yul\":22072:22078   */\n      dup3\n        /* \"#utility.yul\":22061:22070   */\n      dup9\n        /* \"#utility.yul\":22057:22079   */\n      add\n        /* \"#utility.yul\":22001:22089   */\n      tag_460\n      jump\t// in\n    tag_760:\n        /* \"#utility.yul\":21991:22089   */\n      swap3\n      pop\n        /* \"#utility.yul\":21786:22099   */\n      pop\n        /* \"#utility.yul\":22166:22168   */\n      0x60\n        /* \"#utility.yul\":22155:22164   */\n      dup6\n        /* \"#utility.yul\":22151:22169   */\n      add\n        /* \"#utility.yul\":22138:22170   */\n      calldataload\n        /* \"#utility.yul\":22197:22215   */\n      0xffffffffffffffff\n        /* \"#utility.yul\":22189:22195   */\n      dup2\n        /* \"#utility.yul\":22186:22216   */\n      gt\n        /* \"#utility.yul\":22183:22300   */\n      iszero\n      tag_761\n      jumpi\n        /* \"#utility.yul\":22219:22298   */\n      tag_762\n      tag_414\n      jump\t// in\n    tag_762:\n        /* \"#utility.yul\":22183:22300   */\n    tag_761:\n        /* \"#utility.yul\":22324:22387   */\n      tag_763\n        /* \"#utility.yul\":22379:22386   */\n      dup8\n        /* \"#utility.yul\":22370:22376   */\n      dup3\n        /* \"#utility.yul\":22359:22368   */\n      dup9\n        /* \"#utility.yul\":22355:22377   */\n      add\n        /* \"#utility.yul\":22324:22387   */\n      tag_426\n      jump\t// in\n    tag_763:\n        /* \"#utility.yul\":22314:22387   */\n      swap2\n      pop\n        /* \"#utility.yul\":22109:22397   */\n      pop\n        /* \"#utility.yul\":20789:22404   */\n      swap3\n      swap6\n      swap2\n      swap5\n      pop\n      swap3\n      pop\n      jump\t// out\n        /* \"#utility.yul\":22410:22574   */\n    tag_461:\n        /* \"#utility.yul\":22550:22566   */\n      0x4e6f7420617574686f72697a6564000000000000000000000000000000000000\n        /* \"#utility.yul\":22546:22547   */\n      0x00\n        /* \"#utility.yul\":22538:22544   */\n      dup3\n        /* \"#utility.yul\":22534:22548   */\n      add\n        /* \"#utility.yul\":22527:22567   */\n      mstore\n        /* \"#utility.yul\":22410:22574   */\n      pop\n      jump\t// out\n        /* \"#utility.yul\":22580:22946   */\n    tag_462:\n        /* \"#utility.yul\":22722:22725   */\n      0x00\n        /* \"#utility.yul\":22743:22810   */\n      tag_766\n        /* \"#utility.yul\":22807:22809   */\n      0x0e\n        /* \"#utility.yul\":22802:22805   */\n      dup4\n        /* \"#utility.yul\":22743:22810   */\n      tag_450\n      jump\t// in\n    tag_766:\n        /* \"#utility.yul\":22736:22810   */\n      swap2\n      pop\n        /* \"#utility.yul\":22819:22912   */\n      tag_767\n        /* \"#utility.yul\":22908:22911   */\n      dup3\n        /* \"#utility.yul\":22819:22912   */\n      tag_461\n      jump\t// in\n    tag_767:\n        /* \"#utility.yul\":22937:22939   */\n      0x20\n        /* \"#utility.yul\":22932:22935   */\n      dup3\n        /* \"#utility.yul\":22928:22940   */\n      add\n        /* \"#utility.yul\":22921:22940   */\n      swap1\n      pop\n        /* \"#utility.yul\":22580:22946   */\n      swap2\n      swap1\n      pop\n      jump\t// out\n        /* \"#utility.yul\":22952:23371   */\n    tag_109:\n        /* \"#utility.yul\":23118:23122   */\n      0x00\n        /* \"#utility.yul\":23156:23158   */\n      0x20\n        /* \"#utility.yul\":23145:23154   */\n      dup3\n        /* \"#utility.yul\":23141:23159   */\n      add\n        /* \"#utility.yul\":23133:23159   */\n      swap1\n      pop\n        /* \"#utility.yul\":23205:23214   */\n      dup2\n        /* \"#utility.yul\":23199:23203   */\n      dup2\n        /* \"#utility.yul\":23195:23215   */\n      sub\n        /* \"#utility.yul\":23191:23192   */\n      0x00\n        /* \"#utility.yul\":23180:23189   */\n      dup4\n        /* \"#utility.yul\":23176:23193   */\n      add\n        /* \"#utility.yul\":23169:23216   */\n      mstore\n        /* \"#utility.yul\":23233:23364   */\n      tag_769\n        /* \"#utility.yul\":23359:23363   */\n      dup2\n        /* \"#utility.yul\":23233:23364   */\n      tag_462\n      jump\t// in\n    tag_769:\n        /* \"#utility.yul\":23225:23364   */\n      swap1\n      pop\n        /* \"#utility.yul\":22952:23371   */\n      swap2\n      swap1\n      pop\n      jump\t// out\n        /* \"#utility.yul\":23377:23546   */\n    tag_463:\n        /* \"#utility.yul\":23517:23538   */\n      0x426174636820646f65736e277420657869737400000000000000000000000000\n        /* \"#utility.yul\":23513:23514   */\n      0x00\n        /* \"#utility.yul\":23505:23511   */\n      dup3\n        /* \"#utility.yul\":23501:23515   */\n      add\n        /* \"#utility.yul\":23494:23539   */\n      mstore\n        /* \"#utility.yul\":23377:23546   */\n      pop\n      jump\t// out\n        /* \"#utility.yul\":23552:23918   */\n    tag_464:\n        /* \"#utility.yul\":23694:23697   */\n      0x00\n        /* \"#utility.yul\":23715:23782   */\n      tag_772\n        /* \"#utility.yul\":23779:23781   */\n      0x13\n        /* \"#utility.yul\":23774:23777   */\n      dup4\n        /* \"#utility.yul\":23715:23782   */\n      tag_450\n      jump\t// in\n    tag_772:\n        /* \"#utility.yul\":23708:23782   */\n      swap2\n      pop\n        /* \"#utility.yul\":23791:23884   */\n      tag_773\n        /* \"#utility.yul\":23880:23883   */\n      dup3\n        /* \"#utility.yul\":23791:23884   */\n      tag_463\n      jump\t// in\n    tag_773:\n        /* \"#utility.yul\":23909:23911   */\n      0x20\n        /* \"#utility.yul\":23904:23907   */\n      dup3\n        /* \"#utility.yul\":23900:23912   */\n      add\n        /* \"#utility.yul\":23893:23912   */\n      swap1\n      pop\n        /* \"#utility.yul\":23552:23918   */\n      swap2\n      swap1\n      pop\n      jump\t// out\n        /* \"#utility.yul\":23924:24343   */\n    tag_114:\n        /* \"#utility.yul\":24090:24094   */\n      0x00\n        /* \"#utility.yul\":24128:24130   */\n      0x20\n        /* \"#utility.yul\":24117:24126   */\n      dup3\n        /* \"#utility.yul\":24113:24131   */\n      add\n        /* \"#utility.yul\":24105:24131   */\n      swap1\n      pop\n        /* \"#utility.yul\":24177:24186   */\n      dup2\n        /* \"#utility.yul\":24171:24175   */\n      dup2\n        /* \"#utility.yul\":24167:24187   */\n      sub\n        /* \"#utility.yul\":24163:24164   */\n      0x00\n        /* \"#utility.yul\":24152:24161   */\n      dup4\n        /* \"#utility.yul\":24148:24165   */\n      add\n        /* \"#utility.yul\":24141:24188   */\n      mstore\n        /* \"#utility.yul\":24205:24336   */\n      tag_775\n        /* \"#utility.yul\":24331:24335   */\n      dup2\n        /* \"#utility.yul\":24205:24336   */\n      tag_464\n      jump\t// in\n    tag_775:\n        /* \"#utility.yul\":24197:24336   */\n      swap1\n      pop\n        /* \"#utility.yul\":23924:24343   */\n      swap2\n      swap1\n      pop\n      jump\t// out\n        /* \"#utility.yul\":24349:24521   */\n    tag_465:\n        /* \"#utility.yul\":24489:24513   */\n      0x426174636820616c726561647920726563616c6c656400000000000000000000\n        /* \"#utility.yul\":24485:24486   */\n      0x00\n        /* \"#utility.yul\":24477:24483   */\n      dup3\n        /* \"#utility.yul\":24473:24487   */\n      add\n        /* \"#utility.yul\":24466:24514   */\n      mstore\n        /* \"#utility.yul\":24349:24521   */\n      pop\n      jump\t// out\n        /* \"#utility.yul\":24527:24893   */\n    tag_466:\n        /* \"#utility.yul\":24669:24672   */\n      0x00\n        /* \"#utility.yul\":24690:24757   */\n      tag_778\n        /* \"#utility.yul\":24754:24756   */\n      0x16\n        /* \"#utility.yul\":24749:24752   */\n      dup4\n        /* \"#utility.yul\":24690:24757   */\n      tag_450\n      jump\t// in\n    tag_778:\n        /* \"#utility.yul\":24683:24757   */\n      swap2\n      pop\n        /* \"#utility.yul\":24766:24859   */\n      tag_779\n        /* \"#utility.yul\":24855:24858   */\n      dup3\n        /* \"#utility.yul\":24766:24859   */\n      tag_465\n      jump\t// in\n    tag_779:\n        /* \"#utility.yul\":24884:24886   */\n      0x20\n        /* \"#utility.yul\":24879:24882   */\n      dup3\n        /* \"#utility.yul\":24875:24887   */\n      add\n        /* \"#utility.yul\":24868:24887   */\n      swap1\n      pop\n        /* \"#utility.yul\":24527:24893   */\n      swap2\n      swap1\n      pop\n      jump\t// out\n        /* \"#utility.yul\":24899:25318   */\n    tag_117:\n        /* \"#utility.yul\":25065:25069   */\n      0x00\n        /* \"#utility.yul\":25103:25105   */\n      0x20\n        /* \"#utility.yul\":25092:25101   */\n      dup3\n        /* \"#utility.yul\":25088:25106   */\n      add\n        /* \"#utility.yul\":25080:25106   */\n      swap1\n      pop\n        /* \"#utility.yul\":25152:25161   */\n      dup2\n        /* \"#utility.yul\":25146:25150   */\n      dup2\n        /* \"#utility.yul\":25142:25162   */\n      sub\n        /* \"#utility.yul\":25138:25139   */\n      0x00\n        /* \"#utility.yul\":25127:25136   */\n      dup4\n        /* \"#utility.yul\":25123:25140   */\n      add\n        /* \"#utility.yul\":25116:25163   */\n      mstore\n        /* \"#utility.yul\":25180:25311   */\n      tag_781\n        /* \"#utility.yul\":25306:25310   */\n      dup2\n        /* \"#utility.yul\":25180:25311   */\n      tag_466\n      jump\t// in\n    tag_781:\n        /* \"#utility.yul\":25172:25311   */\n      swap1\n      pop\n        /* \"#utility.yul\":24899:25318   */\n      swap2\n      swap1\n      pop\n      jump\t// out\n        /* \"#utility.yul\":25324:25504   */\n    tag_124:\n        /* \"#utility.yul\":25372:25449   */\n      0x4e487b7100000000000000000000000000000000000000000000000000000000\n        /* \"#utility.yul\":25369:25370   */\n      0x00\n        /* \"#utility.yul\":25362:25450   */\n      mstore\n        /* \"#utility.yul\":25469:25473   */\n      0x32\n        /* \"#utility.yul\":25466:25467   */\n      0x04\n        /* \"#utility.yul\":25459:25474   */\n      mstore\n        /* \"#utility.yul\":25493:25497   */\n      0x24\n        /* \"#utility.yul\":25490:25491   */\n      0x00\n        /* \"#utility.yul\":25483:25498   */\n      revert\n        /* \"#utility.yul\":25510:25676   */\n    tag_467:\n        /* \"#utility.yul\":25650:25668   */\n      0x497420646f65736e742065786973747300000000000000000000000000000000\n        /* \"#utility.yul\":25646:25647   */\n      0x00\n        /* \"#utility.yul\":25638:25644   */\n      dup3\n        /* \"#utility.yul\":25634:25648   */\n      add\n        /* \"#utility.yul\":25627:25669   */\n      mstore\n        /* \"#utility.yul\":25510:25676   */\n      pop\n      jump\t// out\n        /* \"#utility.yul\":25682:26048   */\n    tag_468:\n        /* \"#utility.yul\":25824:25827   */\n      0x00\n        /* \"#utility.yul\":25845:25912   */\n      tag_785\n        /* \"#utility.yul\":25909:25911   */\n      0x10\n        /* \"#utility.yul\":25904:25907   */\n      dup4\n        /* \"#utility.yul\":25845:25912   */\n      tag_450\n      jump\t// in\n    tag_785:\n        /* \"#utility.yul\":25838:25912   */\n      swap2\n      pop\n        /* \"#utility.yul\":25921:26014   */\n      tag_786\n        /* \"#utility.yul\":26010:26013   */\n      dup3\n        /* \"#utility.yul\":25921:26014   */\n      tag_467\n      jump\t// in\n    tag_786:\n        /* \"#utility.yul\":26039:26041   */\n      0x20\n        /* \"#utility.yul\":26034:26037   */\n      dup3\n        /* \"#utility.yul\":26030:26042   */\n      add\n        /* \"#utility.yul\":26023:26042   */\n      swap1\n      pop\n        /* \"#utility.yul\":25682:26048   */\n      swap2\n      swap1\n      pop\n      jump\t// out\n        /* \"#utility.yul\":26054:26473   */\n    tag_130:\n        /* \"#utility.yul\":26220:26224   */\n      0x00\n        /* \"#utility.yul\":26258:26260   */\n      0x20\n        /* \"#utility.yul\":26247:26256   */\n      dup3\n        /* \"#utility.yul\":26243:26261   */\n      add\n        /* \"#utility.yul\":26235:26261   */\n      swap1\n      pop\n        /* \"#utility.yul\":26307:26316   */\n      dup2\n        /* \"#utility.yul\":26301:26305   */\n      dup2\n        /* \"#utility.yul\":26297:26317   */\n      sub\n        /* \"#utility.yul\":26293:26294   */\n      0x00\n        /* \"#utility.yul\":26282:26291   */\n      dup4\n        /* \"#utility.yul\":26278:26295   */\n      add\n        /* \"#utility.yul\":26271:26318   */\n      mstore\n        /* \"#utility.yul\":26335:26466   */\n      tag_788\n        /* \"#utility.yul\":26461:26465   */\n      dup2\n        /* \"#utility.yul\":26335:26466   */\n      tag_468\n      jump\t// in\n    tag_788:\n        /* \"#utility.yul\":26327:26466   */\n      swap1\n      pop\n        /* \"#utility.yul\":26054:26473   */\n      swap2\n      swap1\n      pop\n      jump\t// out\n        /* \"#utility.yul\":26479:26659   */\n    tag_469:\n        /* \"#utility.yul\":26527:26604   */\n      0x4e487b7100000000000000000000000000000000000000000000000000000000\n        /* \"#utility.yul\":26524:26525   */\n      0x00\n        /* \"#utility.yul\":26517:26605   */\n      mstore\n        /* \"#utility.yul\":26624:26628   */\n      0x22\n        /* \"#utility.yul\":26621:26622   */\n      0x04\n        /* \"#utility.yul\":26614:26629   */\n      mstore\n        /* \"#utility.yul\":26648:26652   */\n      0x24\n        /* \"#utility.yul\":26645:26646   */\n      0x00\n        /* \"#utility.yul\":26638:26653   */\n      revert\n        /* \"#utility.yul\":26665:26985   */\n    tag_132:\n        /* \"#utility.yul\":26709:26715   */\n      0x00\n        /* \"#utility.yul\":26746:26747   */\n      0x02\n        /* \"#utility.yul\":26740:26744   */\n      dup3\n        /* \"#utility.yul\":26736:26748   */\n      div\n        /* \"#utility.yul\":26726:26748   */\n      swap1\n      pop\n        /* \"#utility.yul\":26793:26794   */\n      0x01\n        /* \"#utility.yul\":26787:26791   */\n      dup3\n        /* \"#utility.yul\":26783:26795   */\n      and\n        /* \"#utility.yul\":26814:26832   */\n      dup1\n        /* \"#utility.yul\":26804:26885   */\n      tag_791\n      jumpi\n        /* \"#utility.yul\":26870:26874   */\n      0x7f\n        /* \"#utility.yul\":26862:26868   */\n      dup3\n        /* \"#utility.yul\":26858:26875   */\n      and\n        /* \"#utility.yul\":26848:26875   */\n      swap2\n      pop\n        /* \"#utility.yul\":26804:26885   */\n    tag_791:\n        /* \"#utility.yul\":26932:26934   */\n      0x20\n        /* \"#utility.yul\":26924:26930   */\n      dup3\n        /* \"#utility.yul\":26921:26935   */\n      lt\n        /* \"#utility.yul\":26901:26919   */\n      dup2\n        /* \"#utility.yul\":26898:26936   */\n      sub\n        /* \"#utility.yul\":26895:26979   */\n      tag_792\n      jumpi\n        /* \"#utility.yul\":26951:26969   */\n      tag_793\n      tag_469\n      jump\t// in\n    tag_793:\n        /* \"#utility.yul\":26895:26979   */\n    tag_792:\n        /* \"#utility.yul\":26716:26985   */\n      pop\n        /* \"#utility.yul\":26665:26985   */\n      swap2\n      swap1\n      pop\n      jump\t// out\n        /* \"#utility.yul\":26991:27158   */\n    tag_470:\n        /* \"#utility.yul\":27131:27150   */\n      0x426174636820697320726563616c6c6564000000000000000000000000000000\n        /* \"#utility.yul\":27127:27128   */\n      0x00\n        /* \"#utility.yul\":27119:27125   */\n      dup3\n        /* \"#utility.yul\":27115:27129   */\n      add\n        /* \"#utility.yul\":27108:27151   */\n      mstore\n        /* \"#utility.yul\":26991:27158   */\n      pop\n      jump\t// out\n        /* \"#utility.yul\":27164:27530   */\n    tag_471:\n        /* \"#utility.yul\":27306:27309   */\n      0x00\n        /* \"#utility.yul\":27327:27394   */\n      tag_796\n        /* \"#utility.yul\":27391:27393   */\n      0x11\n        /* \"#utility.yul\":27386:27389   */\n      dup4\n        /* \"#utility.yul\":27327:27394   */\n      tag_450\n      jump\t// in\n    tag_796:\n        /* \"#utility.yul\":27320:27394   */\n      swap2\n      pop\n        /* \"#utility.yul\":27403:27496   */\n      tag_797\n        /* \"#utility.yul\":27492:27495   */\n      dup3\n        /* \"#utility.yul\":27403:27496   */\n      tag_470\n      jump\t// in\n    tag_797:\n        /* \"#utility.yul\":27521:27523   */\n      0x20\n        /* \"#utility.yul\":27516:27519   */\n      dup3\n        /* \"#utility.yul\":27512:27524   */\n      add\n        /* \"#utility.yul\":27505:27524   */\n      swap1\n      pop\n        /* \"#utility.yul\":27164:27530   */\n      swap2\n      swap1\n      pop\n      jump\t// out\n        /* \"#utility.yul\":27536:27955   */\n    tag_184:\n        /* \"#utility.yul\":27702:27706   */\n      0x00\n        /* \"#utility.yul\":27740:27742   */\n      0x20\n        /* \"#utility.yul\":27729:27738   */\n      dup3\n        /* \"#utility.yul\":27725:27743   */\n      add\n        /* \"#utility.yul\":27717:27743   */\n      swap1\n      pop\n        /* \"#utility.yul\":27789:27798   */\n      dup2\n        /* \"#utility.yul\":27783:27787   */\n      dup2\n        /* \"#utility.yul\":27779:27799   */\n      sub\n        /* \"#utility.yul\":27775:27776   */\n      0x00\n        /* \"#utility.yul\":27764:27773   */\n      dup4\n        /* \"#utility.yul\":27760:27777   */\n      add\n        /* \"#utility.yul\":27753:27800   */\n      mstore\n        /* \"#utility.yul\":27817:27948   */\n      tag_799\n        /* \"#utility.yul\":27943:27947   */\n      dup2\n        /* \"#utility.yul\":27817:27948   */\n      tag_471\n      jump\t// in\n    tag_799:\n        /* \"#utility.yul\":27809:27948   */\n      swap1\n      pop\n        /* \"#utility.yul\":27536:27955   */\n      swap2\n      swap1\n      pop\n      jump\t// out\n        /* \"#utility.yul\":27961:28142   */\n    tag_472:\n        /* \"#utility.yul\":28101:28134   */\n      0x6e65774f776e65722063616e742062652061207a65726f206164647265737300\n        /* \"#utility.yul\":28097:28098   */\n      0x00\n        /* \"#utility.yul\":28089:28095   */\n      dup3\n        /* \"#utility.yul\":28085:28099   */\n      add\n        /* \"#utility.yul\":28078:28135   */\n      mstore\n        /* \"#utility.yul\":27961:28142   */\n      pop\n      jump\t// out\n        /* \"#utility.yul\":28148:28514   */\n    tag_473:\n        /* \"#utility.yul\":28290:28293   */\n      0x00\n        /* \"#utility.yul\":28311:28378   */\n      tag_802\n        /* \"#utility.yul\":28375:28377   */\n      0x1f\n        /* \"#utility.yul\":28370:28373   */\n      dup4\n        /* \"#utility.yul\":28311:28378   */\n      tag_450\n      jump\t// in\n    tag_802:\n        /* \"#utility.yul\":28304:28378   */\n      swap2\n      pop\n        /* \"#utility.yul\":28387:28480   */\n      tag_803\n        /* \"#utility.yul\":28476:28479   */\n      dup3\n        /* \"#utility.yul\":28387:28480   */\n      tag_472\n      jump\t// in\n    tag_803:\n        /* \"#utility.yul\":28505:28507   */\n      0x20\n        /* \"#utility.yul\":28500:28503   */\n      dup3\n        /* \"#utility.yul\":28496:28508   */\n      add\n        /* \"#utility.yul\":28489:28508   */\n      swap1\n      pop\n        /* \"#utility.yul\":28148:28514   */\n      swap2\n      swap1\n      pop\n      jump\t// out\n        /* \"#utility.yul\":28520:28939   */\n    tag_187:\n        /* \"#utility.yul\":28686:28690   */\n      0x00\n        /* \"#utility.yul\":28724:28726   */\n      0x20\n        /* \"#utility.yul\":28713:28722   */\n      dup3\n        /* \"#utility.yul\":28709:28727   */\n      add\n        /* \"#utility.yul\":28701:28727   */\n      swap1\n      pop\n        /* \"#utility.yul\":28773:28782   */\n      dup2\n        /* \"#utility.yul\":28767:28771   */\n      dup2\n        /* \"#utility.yul\":28763:28783   */\n      sub\n        /* \"#utility.yul\":28759:28760   */\n      0x00\n        /* \"#utility.yul\":28748:28757   */\n      dup4\n        /* \"#utility.yul\":28744:28761   */\n      add\n        /* \"#utility.yul\":28737:28784   */\n      mstore\n        /* \"#utility.yul\":28801:28932   */\n      tag_805\n        /* \"#utility.yul\":28927:28931   */\n      dup2\n        /* \"#utility.yul\":28801:28932   */\n      tag_473\n      jump\t// in\n    tag_805:\n        /* \"#utility.yul\":28793:28932   */\n      swap1\n      pop\n        /* \"#utility.yul\":28520:28939   */\n      swap2\n      swap1\n      pop\n      jump\t// out\n        /* \"#utility.yul\":28945:29093   */\n    tag_474:\n        /* \"#utility.yul\":29047:29058   */\n      0x00\n        /* \"#utility.yul\":29084:29087   */\n      dup2\n        /* \"#utility.yul\":29069:29087   */\n      swap1\n      pop\n        /* \"#utility.yul\":28945:29093   */\n      swap3\n      swap2\n      pop\n      pop\n      jump\t// out\n        /* \"#utility.yul\":29099:29262   */\n    tag_475:\n        /* \"#utility.yul\":29239:29254   */\n      0x7265676973746572426174636800000000000000000000000000000000000000\n        /* \"#utility.yul\":29235:29236   */\n      0x00\n        /* \"#utility.yul\":29227:29233   */\n      dup3\n        /* \"#utility.yul\":29223:29237   */\n      add\n        /* \"#utility.yul\":29216:29255   */\n      mstore\n        /* \"#utility.yul\":29099:29262   */\n      pop\n      jump\t// out\n        /* \"#utility.yul\":29268:29670   */\n    tag_476:\n        /* \"#utility.yul\":29428:29431   */\n      0x00\n        /* \"#utility.yul\":29449:29534   */\n      tag_809\n        /* \"#utility.yul\":29531:29533   */\n      0x0d\n        /* \"#utility.yul\":29526:29529   */\n      dup4\n        /* \"#utility.yul\":29449:29534   */\n      tag_474\n      jump\t// in\n    tag_809:\n        /* \"#utility.yul\":29442:29534   */\n      swap2\n      pop\n        /* \"#utility.yul\":29543:29636   */\n      tag_810\n        /* \"#utility.yul\":29632:29635   */\n      dup3\n        /* \"#utility.yul\":29543:29636   */\n      tag_475\n      jump\t// in\n    tag_810:\n        /* \"#utility.yul\":29661:29663   */\n      0x0d\n        /* \"#utility.yul\":29656:29659   */\n      dup3\n        /* \"#utility.yul\":29652:29664   */\n      add\n        /* \"#utility.yul\":29645:29664   */\n      swap1\n      pop\n        /* \"#utility.yul\":29268:29670   */\n      swap2\n      swap1\n      pop\n      jump\t// out\n        /* \"#utility.yul\":29676:30057   */\n    tag_189:\n        /* \"#utility.yul\":29861:29864   */\n      0x00\n        /* \"#utility.yul\":29883:30031   */\n      tag_812\n        /* \"#utility.yul\":30027:30030   */\n      dup3\n        /* \"#utility.yul\":29883:30031   */\n      tag_476\n      jump\t// in\n    tag_812:\n        /* \"#utility.yul\":29876:30031   */\n      swap2\n      pop\n        /* \"#utility.yul\":30048:30051   */\n      dup2\n        /* \"#utility.yul\":30041:30051   */\n      swap1\n      pop\n        /* \"#utility.yul\":29676:30057   */\n      swap2\n      swap1\n      pop\n      jump\t// out\n        /* \"#utility.yul\":30063:30453   */\n    tag_477:\n        /* \"#utility.yul\":30169:30172   */\n      0x00\n        /* \"#utility.yul\":30197:30236   */\n      tag_814\n        /* \"#utility.yul\":30230:30235   */\n      dup3\n        /* \"#utility.yul\":30197:30236   */\n      tag_440\n      jump\t// in\n    tag_814:\n        /* \"#utility.yul\":30252:30341   */\n      tag_815\n        /* \"#utility.yul\":30334:30340   */\n      dup2\n        /* \"#utility.yul\":30329:30332   */\n      dup6\n        /* \"#utility.yul\":30252:30341   */\n      tag_474\n      jump\t// in\n    tag_815:\n        /* \"#utility.yul\":30245:30341   */\n      swap4\n      pop\n        /* \"#utility.yul\":30350:30415   */\n      tag_816\n        /* \"#utility.yul\":30408:30414   */\n      dup2\n        /* \"#utility.yul\":30403:30406   */\n      dup6\n        /* \"#utility.yul\":30396:30400   */\n      0x20\n        /* \"#utility.yul\":30389:30394   */\n      dup7\n        /* \"#utility.yul\":30385:30401   */\n      add\n        /* \"#utility.yul\":30350:30415   */\n      tag_442\n      jump\t// in\n    tag_816:\n        /* \"#utility.yul\":30440:30446   */\n      dup1\n        /* \"#utility.yul\":30435:30438   */\n      dup5\n        /* \"#utility.yul\":30431:30447   */\n      add\n        /* \"#utility.yul\":30424:30447   */\n      swap2\n      pop\n        /* \"#utility.yul\":30173:30453   */\n      pop\n        /* \"#utility.yul\":30063:30453   */\n      swap3\n      swap2\n      pop\n      pop\n      jump\t// out\n        /* \"#utility.yul\":30459:30734   */\n    tag_191:\n        /* \"#utility.yul\":30591:30594   */\n      0x00\n        /* \"#utility.yul\":30613:30708   */\n      tag_818\n        /* \"#utility.yul\":30704:30707   */\n      dup3\n        /* \"#utility.yul\":30695:30701   */\n      dup5\n        /* \"#utility.yul\":30613:30708   */\n      tag_477\n      jump\t// in\n    tag_818:\n        /* \"#utility.yul\":30606:30708   */\n      swap2\n      pop\n        /* \"#utility.yul\":30725:30728   */\n      dup2\n        /* \"#utility.yul\":30718:30728   */\n      swap1\n      pop\n        /* \"#utility.yul\":30459:30734   */\n      swap3\n      swap2\n      pop\n      pop\n      jump\t// out\n        /* \"#utility.yul\":30740:30967   */\n    tag_478:\n        /* \"#utility.yul\":30880:30914   */\n      0x426174636820494473206d75737420626520656d70747920666f722072656769\n        /* \"#utility.yul\":30876:30877   */\n      0x00\n        /* \"#utility.yul\":30868:30874   */\n      dup3\n        /* \"#utility.yul\":30864:30878   */\n      add\n        /* \"#utility.yul\":30857:30915   */\n      mstore\n        /* \"#utility.yul\":30949:30959   */\n      0x7374726174696f6e000000000000000000000000000000000000000000000000\n        /* \"#utility.yul\":30944:30946   */\n      0x20\n        /* \"#utility.yul\":30936:30942   */\n      dup3\n        /* \"#utility.yul\":30932:30947   */\n      add\n        /* \"#utility.yul\":30925:30960   */\n      mstore\n        /* \"#utility.yul\":30740:30967   */\n      pop\n      jump\t// out\n        /* \"#utility.yul\":30973:31339   */\n    tag_479:\n        /* \"#utility.yul\":31115:31118   */\n      0x00\n        /* \"#utility.yul\":31136:31203   */\n      tag_821\n        /* \"#utility.yul\":31200:31202   */\n      0x28\n        /* \"#utility.yul\":31195:31198   */\n      dup4\n        /* \"#utility.yul\":31136:31203   */\n      tag_450\n      jump\t// in\n    tag_821:\n        /* \"#utility.yul\":31129:31203   */\n      swap2\n      pop\n        /* \"#utility.yul\":31212:31305   */\n      tag_822\n        /* \"#utility.yul\":31301:31304   */\n      dup3\n        /* \"#utility.yul\":31212:31305   */\n      tag_478\n      jump\t// in\n    tag_822:\n        /* \"#utility.yul\":31330:31332   */\n      0x40\n        /* \"#utility.yul\":31325:31328   */\n      dup3\n        /* \"#utility.yul\":31321:31333   */\n      add\n        /* \"#utility.yul\":31314:31333   */\n      swap1\n      pop\n        /* \"#utility.yul\":30973:31339   */\n      swap2\n      swap1\n      pop\n      jump\t// out\n        /* \"#utility.yul\":31345:31764   */\n    tag_195:\n        /* \"#utility.yul\":31511:31515   */\n      0x00\n        /* \"#utility.yul\":31549:31551   */\n      0x20\n        /* \"#utility.yul\":31538:31547   */\n      dup3\n        /* \"#utility.yul\":31534:31552   */\n      add\n        /* \"#utility.yul\":31526:31552   */\n      swap1\n      pop\n        /* \"#utility.yul\":31598:31607   */\n      dup2\n        /* \"#utility.yul\":31592:31596   */\n      dup2\n        /* \"#utility.yul\":31588:31608   */\n      sub\n        /* \"#utility.yul\":31584:31585   */\n      0x00\n        /* \"#utility.yul\":31573:31582   */\n      dup4\n        /* \"#utility.yul\":31569:31586   */\n      add\n        /* \"#utility.yul\":31562:31609   */\n      mstore\n        /* \"#utility.yul\":31626:31757   */\n      tag_824\n        /* \"#utility.yul\":31752:31756   */\n      dup2\n        /* \"#utility.yul\":31626:31757   */\n      tag_479\n      jump\t// in\n    tag_824:\n        /* \"#utility.yul\":31618:31757   */\n      swap1\n      pop\n        /* \"#utility.yul\":31345:31764   */\n      swap2\n      swap1\n      pop\n      jump\t// out\n        /* \"#utility.yul\":31770:31950   */\n    tag_480:\n        /* \"#utility.yul\":31818:31895   */\n      0x4e487b7100000000000000000000000000000000000000000000000000000000\n        /* \"#utility.yul\":31815:31816   */\n      0x00\n        /* \"#utility.yul\":31808:31896   */\n      mstore\n        /* \"#utility.yul\":31915:31919   */\n      0x11\n        /* \"#utility.yul\":31912:31913   */\n      0x04\n        /* \"#utility.yul\":31905:31920   */\n      mstore\n        /* \"#utility.yul\":31939:31943   */\n      0x24\n        /* \"#utility.yul\":31936:31937   */\n      0x00\n        /* \"#utility.yul\":31929:31944   */\n      revert\n        /* \"#utility.yul\":31956:32189   */\n    tag_204:\n        /* \"#utility.yul\":31995:31998   */\n      0x00\n        /* \"#utility.yul\":32018:32042   */\n      tag_827\n        /* \"#utility.yul\":32036:32041   */\n      dup3\n        /* \"#utility.yul\":32018:32042   */\n      tag_415\n      jump\t// in\n    tag_827:\n        /* \"#utility.yul\":32009:32042   */\n      swap2\n      pop\n        /* \"#utility.yul\":32064:32130   */\n      0xffffffffffffffffffffffffffffffffffffffffffffffffffffffffffffffff\n        /* \"#utility.yul\":32057:32062   */\n      dup3\n        /* \"#utility.yul\":32054:32131   */\n      sub\n        /* \"#utility.yul\":32051:32154   */\n      tag_828\n      jumpi\n        /* \"#utility.yul\":32134:32152   */\n      tag_829\n      tag_480\n      jump\t// in\n    tag_829:\n        /* \"#utility.yul\":32051:32154   */\n    tag_828:\n        /* \"#utility.yul\":32181:32182   */\n      0x01\n        /* \"#utility.yul\":32174:32179   */\n      dup3\n        /* \"#utility.yul\":32170:32183   */\n      add\n        /* \"#utility.yul\":32163:32183   */\n      swap1\n      pop\n        /* \"#utility.yul\":31956:32189   */\n      swap2\n      swap1\n      pop\n      jump\t// out\n        /* \"#utility.yul\":32195:32336   */\n    tag_481:\n        /* \"#utility.yul\":32244:32248   */\n      0x00\n        /* \"#utility.yul\":32267:32270   */\n      dup2\n        /* \"#utility.yul\":32259:32270   */\n      swap1\n      pop\n        /* \"#utility.yul\":32290:32293   */\n      dup2\n        /* \"#utility.yul\":32287:32288   */\n      0x00\n        /* \"#utility.yul\":32280:32294   */\n      mstore\n        /* \"#utility.yul\":32324:32328   */\n      0x20\n        /* \"#utility.yul\":32321:32322   */\n      0x00\n        /* \"#utility.yul\":32311:32329   */\n      keccak256\n        /* \"#utility.yul\":32303:32329   */\n      swap1\n      pop\n        /* \"#utility.yul\":32195:32336   */\n      swap2\n      swap1\n      pop\n      jump\t// out\n        /* \"#utility.yul\":32342:32435   */\n    tag_482:\n        /* \"#utility.yul\":32379:32385   */\n      0x00\n        /* \"#utility.yul\":32426:32428   */\n      0x20\n        /* \"#utility.yul\":32421:32423   */\n      0x1f\n        /* \"#utility.yul\":32414:32419   */\n      dup4\n        /* \"#utility.yul\":32410:32424   */\n      add\n        /* \"#utility.yul\":32406:32429   */\n      div\n        /* \"#utility.yul\":32396:32429   */\n      swap1\n      pop\n        /* \"#utility.yul\":32342:32435   */\n      swap2\n      swap1\n      pop\n      jump\t// out\n        /* \"#utility.yul\":32441:32548   */\n    tag_483:\n        /* \"#utility.yul\":32485:32493   */\n      0x00\n        /* \"#utility.yul\":32535:32540   */\n      dup3\n        /* \"#utility.yul\":32529:32533   */\n      dup3\n        /* \"#utility.yul\":32525:32541   */\n      shl\n        /* \"#utility.yul\":32504:32541   */\n      swap1\n      pop\n        /* \"#utility.yul\":32441:32548   */\n      swap3\n      swap2\n      pop\n      pop\n      jump\t// out\n        /* \"#utility.yul\":32554:32947   */\n    tag_484:\n        /* \"#utility.yul\":32623:32629   */\n      0x00\n        /* \"#utility.yul\":32673:32674   */\n      0x08\n        /* \"#utility.yul\":32661:32671   */\n      dup4\n        /* \"#utility.yul\":32657:32675   */\n      mul\n        /* \"#utility.yul\":32696:32793   */\n      tag_834\n        /* \"#utility.yul\":32726:32792   */\n      0xffffffffffffffffffffffffffffffffffffffffffffffffffffffffffffffff\n        /* \"#utility.yul\":32715:32724   */\n      dup3\n        /* \"#utility.yul\":32696:32793   */\n      tag_483\n      jump\t// in\n    tag_834:\n        /* \"#utility.yul\":32814:32853   */\n      tag_835\n        /* \"#utility.yul\":32844:32852   */\n      dup7\n        /* \"#utility.yul\":32833:32842   */\n      dup4\n        /* \"#utility.yul\":32814:32853   */\n      tag_483\n      jump\t// in\n    tag_835:\n        /* \"#utility.yul\":32802:32853   */\n      swap6\n      pop\n        /* \"#utility.yul\":32886:32890   */\n      dup1\n        /* \"#utility.yul\":32882:32891   */\n      not\n        /* \"#utility.yul\":32875:32880   */\n      dup5\n        /* \"#utility.yul\":32871:32892   */\n      and\n        /* \"#utility.yul\":32862:32892   */\n      swap4\n      pop\n        /* \"#utility.yul\":32935:32939   */\n      dup1\n        /* \"#utility.yul\":32925:32933   */\n      dup7\n        /* \"#utility.yul\":32921:32940   */\n      and\n        /* \"#utility.yul\":32914:32919   */\n      dup5\n        /* \"#utility.yul\":32911:32941   */\n      or\n        /* \"#utility.yul\":32901:32941   */\n      swap3\n      pop\n        /* \"#utility.yul\":32630:32947   */\n      pop\n      pop\n        /* \"#utility.yul\":32554:32947   */\n      swap4\n      swap3\n      pop\n      pop\n      pop\n      jump\t// out\n        /* \"#utility.yul\":32953:33013   */\n    tag_485:\n        /* \"#utility.yul\":32981:32984   */\n      0x00\n        /* \"#utility.yul\":33002:33007   */\n      dup2\n        /* \"#utility.yul\":32995:33007   */\n      swap1\n      pop\n        /* \"#utility.yul\":32953:33013   */\n      swap2\n      swap1\n      pop\n      jump\t// out\n        /* \"#utility.yul\":33019:33161   */\n    tag_486:\n        /* \"#utility.yul\":33069:33078   */\n      0x00\n        /* \"#utility.yul\":33102:33155   */\n      tag_838\n        /* \"#utility.yul\":33120:33154   */\n      tag_839\n        /* \"#utility.yul\":33129:33153   */\n      tag_840\n        /* \"#utility.yul\":33147:33152   */\n      dup5\n        /* \"#utility.yul\":33129:33153   */\n      tag_415\n      jump\t// in\n    tag_840:\n        /* \"#utility.yul\":33120:33154   */\n      tag_485\n      jump\t// in\n    tag_839:\n        /* \"#utility.yul\":33102:33155   */\n      tag_415\n      jump\t// in\n    tag_838:\n        /* \"#utility.yul\":33089:33155   */\n      swap1\n      pop\n        /* \"#utility.yul\":33019:33161   */\n      swap2\n      swap1\n      pop\n      jump\t// out\n        /* \"#utility.yul\":33167:33242   */\n    tag_487:\n        /* \"#utility.yul\":33210:33213   */\n      0x00\n        /* \"#utility.yul\":33231:33236   */\n      dup2\n        /* \"#utility.yul\":33224:33236   */\n      swap1\n      pop\n        /* \"#utility.yul\":33167:33242   */\n      swap2\n      swap1\n      pop\n      jump\t// out\n        /* \"#utility.yul\":33248:33517   */\n    tag_488:\n        /* \"#utility.yul\":33358:33397   */\n      tag_843\n        /* \"#utility.yul\":33389:33396   */\n      dup4\n        /* \"#utility.yul\":33358:33397   */\n      tag_486\n      jump\t// in\n    tag_843:\n        /* \"#utility.yul\":33419:33510   */\n      tag_844\n        /* \"#utility.yul\":33468:33509   */\n      tag_845\n        /* \"#utility.yul\":33492:33508   */\n      dup3\n        /* \"#utility.yul\":33468:33509   */\n      tag_487\n      jump\t// in\n    tag_845:\n        /* \"#utility.yul\":33460:33466   */\n      dup5\n        /* \"#utility.yul\":33453:33457   */\n      dup5\n        /* \"#utility.yul\":33447:33458   */\n      sload\n        /* \"#utility.yul\":33419:33510   */\n      tag_484\n      jump\t// in\n    tag_844:\n        /* \"#utility.yul\":33413:33417   */\n      dup3\n        /* \"#utility.yul\":33406:33511   */\n      sstore\n        /* \"#utility.yul\":33324:33517   */\n      pop\n        /* \"#utility.yul\":33248:33517   */\n      pop\n      pop\n      pop\n      jump\t// out\n        /* \"#utility.yul\":33523:33596   */\n    tag_489:\n        /* \"#utility.yul\":33568:33571   */\n      0x00\n        /* \"#utility.yul\":33523:33596   */\n      swap1\n      jump\t// out\n        /* \"#utility.yul\":33602:33791   */\n    tag_490:\n        /* \"#utility.yul\":33679:33711   */\n      tag_848\n      tag_489\n      jump\t// in\n    tag_848:\n        /* \"#utility.yul\":33720:33785   */\n      tag_849\n        /* \"#utility.yul\":33778:33784   */\n      dup2\n        /* \"#utility.yul\":33770:33776   */\n      dup5\n        /* \"#utility.yul\":33764:33768   */\n      dup5\n        /* \"#utility.yul\":33720:33785   */\n      tag_488\n      jump\t// in\n    tag_849:\n        /* \"#utility.yul\":33655:33791   */\n      pop\n        /* \"#utility.yul\":33602:33791   */\n      pop\n      pop\n      jump\t// out\n        /* \"#utility.yul\":33797:33983   */\n    tag_491:\n        /* \"#utility.yul\":33857:33977   */\n    tag_851:\n        /* \"#utility.yul\":33874:33877   */\n      dup2\n        /* \"#utility.yul\":33867:33872   */\n      dup2\n        /* \"#utility.yul\":33864:33878   */\n      lt\n        /* \"#utility.yul\":33857:33977   */\n      iszero\n      tag_853\n      jumpi\n        /* \"#utility.yul\":33928:33967   */\n      tag_854\n        /* \"#utility.yul\":33965:33966   */\n      0x00\n        /* \"#utility.yul\":33958:33963   */\n      dup3\n        /* \"#utility.yul\":33928:33967   */\n      tag_490\n      jump\t// in\n    tag_854:\n        /* \"#utility.yul\":33901:33902   */\n      0x01\n        /* \"#utility.yul\":33894:33899   */\n      dup2\n        /* \"#utility.yul\":33890:33903   */\n      add\n        /* \"#utility.yul\":33881:33903   */\n      swap1\n      pop\n        /* \"#utility.yul\":33857:33977   */\n      jump(tag_851)\n    tag_853:\n        /* \"#utility.yul\":33797:33983   */\n      pop\n      pop\n      jump\t// out\n        /* \"#utility.yul\":33989:34532   */\n    tag_492:\n        /* \"#utility.yul\":34090:34092   */\n      0x1f\n        /* \"#utility.yul\":34085:34088   */\n      dup3\n        /* \"#utility.yul\":34082:34093   */\n      gt\n        /* \"#utility.yul\":34079:34525   */\n      iszero\n      tag_856\n      jumpi\n        /* \"#utility.yul\":34124:34162   */\n      tag_857\n        /* \"#utility.yul\":34156:34161   */\n      dup2\n        /* \"#utility.yul\":34124:34162   */\n      tag_481\n      jump\t// in\n    tag_857:\n        /* \"#utility.yul\":34208:34237   */\n      tag_858\n        /* \"#utility.yul\":34226:34236   */\n      dup5\n        /* \"#utility.yul\":34208:34237   */\n      tag_482\n      jump\t// in\n    tag_858:\n        /* \"#utility.yul\":34198:34206   */\n      dup2\n        /* \"#utility.yul\":34194:34238   */\n      add\n        /* \"#utility.yul\":34391:34393   */\n      0x20\n        /* \"#utility.yul\":34379:34389   */\n      dup6\n        /* \"#utility.yul\":34376:34394   */\n      lt\n        /* \"#utility.yul\":34373:34422   */\n      iszero\n      tag_859\n      jumpi\n        /* \"#utility.yul\":34412:34420   */\n      dup2\n        /* \"#utility.yul\":34397:34420   */\n      swap1\n      pop\n        /* \"#utility.yul\":34373:34422   */\n    tag_859:\n        /* \"#utility.yul\":34435:34515   */\n      tag_860\n        /* \"#utility.yul\":34491:34513   */\n      tag_861\n        /* \"#utility.yul\":34509:34512   */\n      dup6\n        /* \"#utility.yul\":34491:34513   */\n      tag_482\n      jump\t// in\n    tag_861:\n        /* \"#utility.yul\":34481:34489   */\n      dup4\n        /* \"#utility.yul\":34477:34514   */\n      add\n        /* \"#utility.yul\":34464:34475   */\n      dup3\n        /* \"#utility.yul\":34435:34515   */\n      tag_491\n      jump\t// in\n    tag_860:\n        /* \"#utility.yul\":34094:34525   */\n      pop\n      pop\n        /* \"#utility.yul\":34079:34525   */\n    tag_856:\n        /* \"#utility.yul\":33989:34532   */\n      pop\n      pop\n      pop\n      jump\t// out\n        /* \"#utility.yul\":34538:34655   */\n    tag_493:\n        /* \"#utility.yul\":34592:34600   */\n      0x00\n        /* \"#utility.yul\":34642:34647   */\n      dup3\n        /* \"#utility.yul\":34636:34640   */\n      dup3\n        /* \"#utility.yul\":34632:34648   */\n      shr\n        /* \"#utility.yul\":34611:34648   */\n      swap1\n      pop\n        /* \"#utility.yul\":34538:34655   */\n      swap3\n      swap2\n      pop\n      pop\n      jump\t// out\n        /* \"#utility.yul\":34661:34830   */\n    tag_494:\n        /* \"#utility.yul\":34705:34711   */\n      0x00\n        /* \"#utility.yul\":34738:34789   */\n      tag_864\n        /* \"#utility.yul\":34786:34787   */\n      0x00\n        /* \"#utility.yul\":34782:34788   */\n      not\n        /* \"#utility.yul\":34774:34779   */\n      dup5\n        /* \"#utility.yul\":34771:34772   */\n      0x08\n        /* \"#utility.yul\":34767:34780   */\n      mul\n        /* \"#utility.yul\":34738:34789   */\n      tag_493\n      jump\t// in\n    tag_864:\n        /* \"#utility.yul\":34734:34790   */\n      not\n        /* \"#utility.yul\":34819:34823   */\n      dup1\n        /* \"#utility.yul\":34813:34817   */\n      dup4\n        /* \"#utility.yul\":34809:34824   */\n      and\n        /* \"#utility.yul\":34799:34824   */\n      swap2\n      pop\n        /* \"#utility.yul\":34712:34830   */\n      pop\n        /* \"#utility.yul\":34661:34830   */\n      swap3\n      swap2\n      pop\n      pop\n      jump\t// out\n        /* \"#utility.yul\":34835:35130   */\n    tag_495:\n        /* \"#utility.yul\":34911:34915   */\n      0x00\n        /* \"#utility.yul\":35057:35086   */\n      tag_866\n        /* \"#utility.yul\":35082:35085   */\n      dup4\n        /* \"#utility.yul\":35076:35080   */\n      dup4\n        /* \"#utility.yul\":35057:35086   */\n      tag_494\n      jump\t// in\n    tag_866:\n        /* \"#utility.yul\":35049:35086   */\n      swap2\n      pop\n        /* \"#utility.yul\":35119:35122   */\n      dup3\n        /* \"#utility.yul\":35116:35117   */\n      0x02\n        /* \"#utility.yul\":35112:35123   */\n      mul\n        /* \"#utility.yul\":35106:35110   */\n      dup3\n        /* \"#utility.yul\":35103:35124   */\n      or\n        /* \"#utility.yul\":35095:35124   */\n      swap1\n      pop\n        /* \"#utility.yul\":34835:35130   */\n      swap3\n      swap2\n      pop\n      pop\n      jump\t// out\n        /* \"#utility.yul\":35135:36530   */\n    tag_224:\n        /* \"#utility.yul\":35252:35289   */\n      tag_868\n        /* \"#utility.yul\":35285:35288   */\n      dup3\n        /* \"#utility.yul\":35252:35289   */\n      tag_440\n      jump\t// in\n    tag_868:\n        /* \"#utility.yul\":35354:35372   */\n      0xffffffffffffffff\n        /* \"#utility.yul\":35346:35352   */\n      dup2\n        /* \"#utility.yul\":35343:35373   */\n      gt\n        /* \"#utility.yul\":35340:35396   */\n      iszero\n      tag_869\n      jumpi\n        /* \"#utility.yul\":35376:35394   */\n      tag_870\n      tag_198\n      jump\t// in\n    tag_870:\n        /* \"#utility.yul\":35340:35396   */\n    tag_869:\n        /* \"#utility.yul\":35420:35458   */\n      tag_871\n        /* \"#utility.yul\":35452:35456   */\n      dup3\n        /* \"#utility.yul\":35446:35457   */\n      sload\n        /* \"#utility.yul\":35420:35458   */\n      tag_132\n      jump\t// in\n    tag_871:\n        /* \"#utility.yul\":35505:35572   */\n      tag_872\n        /* \"#utility.yul\":35565:35571   */\n      dup3\n        /* \"#utility.yul\":35557:35563   */\n      dup3\n        /* \"#utility.yul\":35551:35555   */\n      dup6\n        /* \"#utility.yul\":35505:35572   */\n      tag_492\n      jump\t// in\n    tag_872:\n        /* \"#utility.yul\":35599:35600   */\n      0x00\n        /* \"#utility.yul\":35623:35627   */\n      0x20\n        /* \"#utility.yul\":35610:35627   */\n      swap1\n      pop\n        /* \"#utility.yul\":35655:35657   */\n      0x1f\n        /* \"#utility.yul\":35647:35653   */\n      dup4\n        /* \"#utility.yul\":35644:35658   */\n      gt\n        /* \"#utility.yul\":35672:35673   */\n      0x01\n        /* \"#utility.yul\":35667:36285   */\n      dup2\n      eq\n      tag_874\n      jumpi\n        /* \"#utility.yul\":36329:36330   */\n      0x00\n        /* \"#utility.yul\":36346:36352   */\n      dup5\n        /* \"#utility.yul\":36343:36420   */\n      iszero\n      tag_875\n      jumpi\n        /* \"#utility.yul\":36395:36404   */\n      dup3\n        /* \"#utility.yul\":36390:36393   */\n      dup8\n        /* \"#utility.yul\":36386:36405   */\n      add\n        /* \"#utility.yul\":36380:36406   */\n      mload\n        /* \"#utility.yul\":36371:36406   */\n      swap1\n      pop\n        /* \"#utility.yul\":36343:36420   */\n    tag_875:\n        /* \"#utility.yul\":36446:36513   */\n      tag_876\n        /* \"#utility.yul\":36506:36512   */\n      dup6\n        /* \"#utility.yul\":36499:36504   */\n      dup3\n        /* \"#utility.yul\":36446:36513   */\n      tag_495\n      jump\t// in\n    tag_876:\n        /* \"#utility.yul\":36440:36444   */\n      dup7\n        /* \"#utility.yul\":36433:36514   */\n      sstore\n        /* \"#utility.yul\":36302:36524   */\n      pop\n        /* \"#utility.yul\":35637:36524   */\n      jump(tag_873)\n        /* \"#utility.yul\":35667:36285   */\n    tag_874:\n        /* \"#utility.yul\":35719:35723   */\n      0x1f\n        /* \"#utility.yul\":35715:35724   */\n      not\n        /* \"#utility.yul\":35707:35713   */\n      dup5\n        /* \"#utility.yul\":35703:35725   */\n      and\n        /* \"#utility.yul\":35753:35790   */\n      tag_877\n        /* \"#utility.yul\":35785:35789   */\n      dup7\n        /* \"#utility.yul\":35753:35790   */\n      tag_481\n      jump\t// in\n    tag_877:\n        /* \"#utility.yul\":35812:35813   */\n      0x00\n        /* \"#utility.yul\":35826:36034   */\n    tag_878:\n        /* \"#utility.yul\":35840:35847   */\n      dup3\n        /* \"#utility.yul\":35837:35838   */\n      dup2\n        /* \"#utility.yul\":35834:35848   */\n      lt\n        /* \"#utility.yul\":35826:36034   */\n      iszero\n      tag_880\n      jumpi\n        /* \"#utility.yul\":35919:35928   */\n      dup5\n        /* \"#utility.yul\":35914:35917   */\n      dup10\n        /* \"#utility.yul\":35910:35929   */\n      add\n        /* \"#utility.yul\":35904:35930   */\n      mload\n        /* \"#utility.yul\":35896:35902   */\n      dup3\n        /* \"#utility.yul\":35889:35931   */\n      sstore\n        /* \"#utility.yul\":35970:35971   */\n      0x01\n        /* \"#utility.yul\":35962:35968   */\n      dup3\n        /* \"#utility.yul\":35958:35972   */\n      add\n        /* \"#utility.yul\":35948:35972   */\n      swap2\n      pop\n        /* \"#utility.yul\":36017:36019   */\n      0x20\n        /* \"#utility.yul\":36006:36015   */\n      dup6\n        /* \"#utility.yul\":36002:36020   */\n      add\n        /* \"#utility.yul\":35989:36020   */\n      swap5\n      pop\n        /* \"#utility.yul\":35863:35867   */\n      0x20\n        /* \"#utility.yul\":35860:35861   */\n      dup2\n        /* \"#utility.yul\":35856:35868   */\n      add\n        /* \"#utility.yul\":35851:35868   */\n      swap1\n      pop\n        /* \"#utility.yul\":35826:36034   */\n      jump(tag_878)\n    tag_880:\n        /* \"#utility.yul\":36062:36068   */\n      dup7\n        /* \"#utility.yul\":36053:36060   */\n      dup4\n        /* \"#utility.yul\":36050:36069   */\n      lt\n        /* \"#utility.yul\":36047:36226   */\n      iszero\n      tag_881\n      jumpi\n        /* \"#utility.yul\":36120:36129   */\n      dup5\n        /* \"#utility.yul\":36115:36118   */\n      dup10\n        /* \"#utility.yul\":36111:36130   */\n      add\n        /* \"#utility.yul\":36105:36131   */\n      mload\n        /* \"#utility.yul\":36163:36211   */\n      tag_882\n        /* \"#utility.yul\":36205:36209   */\n      0x1f\n        /* \"#utility.yul\":36197:36203   */\n      dup10\n        /* \"#utility.yul\":36193:36210   */\n      and\n        /* \"#utility.yul\":36182:36191   */\n      dup3\n        /* \"#utility.yul\":36163:36211   */\n      tag_494\n      jump\t// in\n    tag_882:\n        /* \"#utility.yul\":36155:36161   */\n      dup4\n        /* \"#utility.yul\":36148:36212   */\n      sstore\n        /* \"#utility.yul\":36070:36226   */\n      pop\n        /* \"#utility.yul\":36047:36226   */\n    tag_881:\n        /* \"#utility.yul\":36272:36273   */\n      0x01\n        /* \"#utility.yul\":36268:36269   */\n      0x02\n        /* \"#utility.yul\":36260:36266   */\n      dup9\n        /* \"#utility.yul\":36256:36270   */\n      mul\n        /* \"#utility.yul\":36252:36274   */\n      add\n        /* \"#utility.yul\":36246:36250   */\n      dup9\n        /* \"#utility.yul\":36239:36275   */\n      sstore\n        /* \"#utility.yul\":35674:36285   */\n      pop\n      pop\n      pop\n        /* \"#utility.yul\":35637:36524   */\n    tag_873:\n      pop\n        /* \"#utility.yul\":35227:36530   */\n      pop\n      pop\n      pop\n        /* \"#utility.yul\":35135:36530   */\n      pop\n      pop\n      jump\t// out\n        /* \"#utility.yul\":36560:37391   */\n    tag_496:\n        /* \"#utility.yul\":36645:36648   */\n      0x00\n        /* \"#utility.yul\":36682:36687   */\n      dup2\n        /* \"#utility.yul\":36676:36688   */\n      sload\n        /* \"#utility.yul\":36711:36747   */\n      tag_884\n        /* \"#utility.yul\":36737:36746   */\n      dup2\n        /* \"#utility.yul\":36711:36747   */\n      tag_132\n      jump\t// in\n    tag_884:\n        /* \"#utility.yul\":36763:36834   */\n      tag_885\n        /* \"#utility.yul\":36827:36833   */\n      dup2\n        /* \"#utility.yul\":36822:36825   */\n      dup7\n        /* \"#utility.yul\":36763:36834   */\n      tag_450\n      jump\t// in\n    tag_885:\n        /* \"#utility.yul\":36756:36834   */\n      swap5\n      pop\n        /* \"#utility.yul\":36865:36866   */\n      0x01\n        /* \"#utility.yul\":36854:36863   */\n      dup3\n        /* \"#utility.yul\":36850:36867   */\n      and\n        /* \"#utility.yul\":36881:36882   */\n      0x00\n        /* \"#utility.yul\":36876:37040   */\n      dup2\n      eq\n      tag_887\n      jumpi\n        /* \"#utility.yul\":37054:37055   */\n      0x01\n        /* \"#utility.yul\":37049:37385   */\n      dup2\n      eq\n      tag_888\n      jumpi\n        /* \"#utility.yul\":36843:37385   */\n      jump(tag_886)\n        /* \"#utility.yul\":36876:37040   */\n    tag_887:\n        /* \"#utility.yul\":36960:36964   */\n      0xff\n        /* \"#utility.yul\":36956:36965   */\n      not\n        /* \"#utility.yul\":36945:36954   */\n      dup4\n        /* \"#utility.yul\":36941:36966   */\n      and\n        /* \"#utility.yul\":36936:36939   */\n      dup7\n        /* \"#utility.yul\":36929:36967   */\n      mstore\n        /* \"#utility.yul\":37020:37026   */\n      dup2\n        /* \"#utility.yul\":37013:37027   */\n      iszero\n        /* \"#utility.yul\":37006:37028   */\n      iszero\n        /* \"#utility.yul\":37000:37004   */\n      0x20\n        /* \"#utility.yul\":36996:37029   */\n      mul\n        /* \"#utility.yul\":36991:36994   */\n      dup7\n        /* \"#utility.yul\":36987:37030   */\n      add\n        /* \"#utility.yul\":36980:37030   */\n      swap4\n      pop\n        /* \"#utility.yul\":36876:37040   */\n      jump(tag_886)\n        /* \"#utility.yul\":37049:37385   */\n    tag_888:\n        /* \"#utility.yul\":37116:37154   */\n      tag_889\n        /* \"#utility.yul\":37148:37153   */\n      dup6\n        /* \"#utility.yul\":37116:37154   */\n      tag_481\n      jump\t// in\n    tag_889:\n        /* \"#utility.yul\":37176:37177   */\n      0x00\n        /* \"#utility.yul\":37190:37344   */\n    tag_890:\n        /* \"#utility.yul\":37204:37210   */\n      dup4\n        /* \"#utility.yul\":37201:37202   */\n      dup2\n        /* \"#utility.yul\":37198:37211   */\n      lt\n        /* \"#utility.yul\":37190:37344   */\n      iszero\n      tag_892\n      jumpi\n        /* \"#utility.yul\":37278:37285   */\n      dup2\n        /* \"#utility.yul\":37272:37286   */\n      sload\n        /* \"#utility.yul\":37268:37269   */\n      dup2\n        /* \"#utility.yul\":37263:37266   */\n      dup10\n        /* \"#utility.yul\":37259:37270   */\n      add\n        /* \"#utility.yul\":37252:37287   */\n      mstore\n        /* \"#utility.yul\":37328:37329   */\n      0x01\n        /* \"#utility.yul\":37319:37326   */\n      dup3\n        /* \"#utility.yul\":37315:37330   */\n      add\n        /* \"#utility.yul\":37304:37330   */\n      swap2\n      pop\n        /* \"#utility.yul\":37226:37230   */\n      0x20\n        /* \"#utility.yul\":37223:37224   */\n      dup2\n        /* \"#utility.yul\":37219:37231   */\n      add\n        /* \"#utility.yul\":37214:37231   */\n      swap1\n      pop\n        /* \"#utility.yul\":37190:37344   */\n      jump(tag_890)\n    tag_892:\n        /* \"#utility.yul\":37373:37374   */\n      dup1\n        /* \"#utility.yul\":37368:37371   */\n      dup9\n        /* \"#utility.yul\":37364:37375   */\n      add\n        /* \"#utility.yul\":37357:37375   */\n      swap6\n      pop\n        /* \"#utility.yul\":37056:37385   */\n      pop\n      pop\n        /* \"#utility.yul\":36843:37385   */\n    tag_886:\n      pop\n        /* \"#utility.yul\":36649:37391   */\n      pop\n      pop\n        /* \"#utility.yul\":36560:37391   */\n      swap3\n      swap2\n      pop\n      pop\n      jump\t// out\n        /* \"#utility.yul\":37397:37704   */\n    tag_230:\n        /* \"#utility.yul\":37507:37511   */\n      0x00\n        /* \"#utility.yul\":37545:37547   */\n      0x20\n        /* \"#utility.yul\":37534:37543   */\n      dup3\n        /* \"#utility.yul\":37530:37548   */\n      add\n        /* \"#utility.yul\":37522:37548   */\n      swap1\n      pop\n        /* \"#utility.yul\":37594:37603   */\n      dup2\n        /* \"#utility.yul\":37588:37592   */\n      dup2\n        /* \"#utility.yul\":37584:37604   */\n      sub\n        /* \"#utility.yul\":37580:37581   */\n      0x00\n        /* \"#utility.yul\":37569:37578   */\n      dup4\n        /* \"#utility.yul\":37565:37582   */\n      add\n        /* \"#utility.yul\":37558:37605   */\n      mstore\n        /* \"#utility.yul\":37622:37697   */\n      tag_894\n        /* \"#utility.yul\":37692:37696   */\n      dup2\n        /* \"#utility.yul\":37683:37689   */\n      dup5\n        /* \"#utility.yul\":37622:37697   */\n      tag_496\n      jump\t// in\n    tag_894:\n        /* \"#utility.yul\":37614:37697   */\n      swap1\n      pop\n        /* \"#utility.yul\":37397:37704   */\n      swap3\n      swap2\n      pop\n      pop\n      jump\t// out\n        /* \"#utility.yul\":37710:37873   */\n    tag_497:\n        /* \"#utility.yul\":37850:37865   */\n      0x7472616e73666572426174636800000000000000000000000000000000000000\n        /* \"#utility.yul\":37846:37847   */\n      0x00\n        /* \"#utility.yul\":37838:37844   */\n      dup3\n        /* \"#utility.yul\":37834:37848   */\n      add\n        /* \"#utility.yul\":37827:37866   */\n      mstore\n        /* \"#utility.yul\":37710:37873   */\n      pop\n      jump\t// out\n        /* \"#utility.yul\":37879:38281   */\n    tag_498:\n        /* \"#utility.yul\":38039:38042   */\n      0x00\n        /* \"#utility.yul\":38060:38145   */\n      tag_897\n        /* \"#utility.yul\":38142:38144   */\n      0x0d\n        /* \"#utility.yul\":38137:38140   */\n      dup4\n        /* \"#utility.yul\":38060:38145   */\n      tag_474\n      jump\t// in\n    tag_897:\n        /* \"#utility.yul\":38053:38145   */\n      swap2\n      pop\n        /* \"#utility.yul\":38154:38247   */\n      tag_898\n        /* \"#utility.yul\":38243:38246   */\n      dup3\n        /* \"#utility.yul\":38154:38247   */\n      tag_497\n      jump\t// in\n    tag_898:\n        /* \"#utility.yul\":38272:38274   */\n      0x0d\n        /* \"#utility.yul\":38267:38270   */\n      dup3\n        /* \"#utility.yul\":38263:38275   */\n      add\n        /* \"#utility.yul\":38256:38275   */\n      swap1\n      pop\n        /* \"#utility.yul\":37879:38281   */\n      swap2\n      swap1\n      pop\n      jump\t// out\n        /* \"#utility.yul\":38287:38668   */\n    tag_235:\n        /* \"#utility.yul\":38472:38475   */\n      0x00\n        /* \"#utility.yul\":38494:38642   */\n      tag_900\n        /* \"#utility.yul\":38638:38641   */\n      dup3\n        /* \"#utility.yul\":38494:38642   */\n      tag_498\n      jump\t// in\n    tag_900:\n        /* \"#utility.yul\":38487:38642   */\n      swap2\n      pop\n        /* \"#utility.yul\":38659:38662   */\n      dup2\n        /* \"#utility.yul\":38652:38662   */\n      swap1\n      pop\n        /* \"#utility.yul\":38287:38668   */\n      swap2\n      swap1\n      pop\n      jump\t// out\n        /* \"#utility.yul\":38674:39006   */\n    tag_246:\n        /* \"#utility.yul\":38795:38799   */\n      0x00\n        /* \"#utility.yul\":38833:38835   */\n      0x40\n        /* \"#utility.yul\":38822:38831   */\n      dup3\n        /* \"#utility.yul\":38818:38836   */\n      add\n        /* \"#utility.yul\":38810:38836   */\n      swap1\n      pop\n        /* \"#utility.yul\":38846:38917   */\n      tag_902\n        /* \"#utility.yul\":38914:38915   */\n      0x00\n        /* \"#utility.yul\":38903:38912   */\n      dup4\n        /* \"#utility.yul\":38899:38916   */\n      add\n        /* \"#utility.yul\":38890:38896   */\n      dup6\n        /* \"#utility.yul\":38846:38917   */\n      tag_449\n      jump\t// in\n    tag_902:\n        /* \"#utility.yul\":38927:38999   */\n      tag_903\n        /* \"#utility.yul\":38995:38997   */\n      0x20\n        /* \"#utility.yul\":38984:38993   */\n      dup4\n        /* \"#utility.yul\":38980:38998   */\n      add\n        /* \"#utility.yul\":38971:38977   */\n      dup5\n        /* \"#utility.yul\":38927:38999   */\n      tag_449\n      jump\t// in\n    tag_903:\n        /* \"#utility.yul\":38674:39006   */\n      swap4\n      swap3\n      pop\n      pop\n      pop\n      jump\t// out\n        /* \"#utility.yul\":39012:39173   */\n    tag_499:\n        /* \"#utility.yul\":39152:39165   */\n      0x726563616c6c4261746368000000000000000000000000000000000000000000\n        /* \"#utility.yul\":39148:39149   */\n      0x00\n        /* \"#utility.yul\":39140:39146   */\n      dup3\n        /* \"#utility.yul\":39136:39150   */\n      add\n        /* \"#utility.yul\":39129:39166   */\n      mstore\n        /* \"#utility.yul\":39012:39173   */\n      pop\n      jump\t// out\n        /* \"#utility.yul\":39179:39581   */\n    tag_500:\n        /* \"#utility.yul\":39339:39342   */\n      0x00\n        /* \"#utility.yul\":39360:39445   */\n      tag_906\n        /* \"#utility.yul\":39442:39444   */\n      0x0b\n        /* \"#utility.yul\":39437:39440   */\n      dup4\n        /* \"#utility.yul\":39360:39445   */\n      tag_474\n      jump\t// in\n    tag_906:\n        /* \"#utility.yul\":39353:39445   */\n      swap2\n      pop\n        /* \"#utility.yul\":39454:39547   */\n      tag_907\n        /* \"#utility.yul\":39543:39546   */\n      dup3\n        /* \"#utility.yul\":39454:39547   */\n      tag_499\n      jump\t// in\n    tag_907:\n        /* \"#utility.yul\":39572:39574   */\n      0x0b\n        /* \"#utility.yul\":39567:39570   */\n      dup3\n        /* \"#utility.yul\":39563:39575   */\n      add\n        /* \"#utility.yul\":39556:39575   */\n      swap1\n      pop\n        /* \"#utility.yul\":39179:39581   */\n      swap2\n      swap1\n      pop\n      jump\t// out\n        /* \"#utility.yul\":39587:39968   */\n    tag_249:\n        /* \"#utility.yul\":39772:39775   */\n      0x00\n        /* \"#utility.yul\":39794:39942   */\n      tag_909\n        /* \"#utility.yul\":39938:39941   */\n      dup3\n        /* \"#utility.yul\":39794:39942   */\n      tag_500\n      jump\t// in\n    tag_909:\n        /* \"#utility.yul\":39787:39942   */\n      swap2\n      pop\n        /* \"#utility.yul\":39959:39962   */\n      dup2\n        /* \"#utility.yul\":39952:39962   */\n      swap1\n      pop\n        /* \"#utility.yul\":39587:39968   */\n      swap2\n      swap1\n      pop\n      jump\t// out\n        /* \"#utility.yul\":39974:40141   */\n    tag_501:\n        /* \"#utility.yul\":40114:40133   */\n      0x496e76616c6964206f7065726174696f6e000000000000000000000000000000\n        /* \"#utility.yul\":40110:40111   */\n      0x00\n        /* \"#utility.yul\":40102:40108   */\n      dup3\n        /* \"#utility.yul\":40098:40112   */\n      add\n        /* \"#utility.yul\":40091:40134   */\n      mstore\n        /* \"#utility.yul\":39974:40141   */\n      pop\n      jump\t// out\n        /* \"#utility.yul\":40147:40513   */\n    tag_502:\n        /* \"#utility.yul\":40289:40292   */\n      0x00\n        /* \"#utility.yul\":40310:40377   */\n      tag_912\n        /* \"#utility.yul\":40374:40376   */\n      0x11\n        /* \"#utility.yul\":40369:40372   */\n      dup4\n        /* \"#utility.yul\":40310:40377   */\n      tag_450\n      jump\t// in\n    tag_912:\n        /* \"#utility.yul\":40303:40377   */\n      swap2\n      pop\n        /* \"#utility.yul\":40386:40479   */\n      tag_913\n        /* \"#utility.yul\":40475:40478   */\n      dup3\n        /* \"#utility.yul\":40386:40479   */\n      tag_501\n      jump\t// in\n    tag_913:\n        /* \"#utility.yul\":40504:40506   */\n      0x20\n        /* \"#utility.yul\":40499:40502   */\n      dup3\n        /* \"#utility.yul\":40495:40507   */\n      add\n        /* \"#utility.yul\":40488:40507   */\n      swap1\n      pop\n        /* \"#utility.yul\":40147:40513   */\n      swap2\n      swap1\n      pop\n      jump\t// out\n        /* \"#utility.yul\":40519:40938   */\n    tag_256:\n        /* \"#utility.yul\":40685:40689   */\n      0x00\n        /* \"#utility.yul\":40723:40725   */\n      0x20\n        /* \"#utility.yul\":40712:40721   */\n      dup3\n        /* \"#utility.yul\":40708:40726   */\n      add\n        /* \"#utility.yul\":40700:40726   */\n      swap1\n      pop\n        /* \"#utility.yul\":40772:40781   */\n      dup2\n        /* \"#utility.yul\":40766:40770   */\n      dup2\n        /* \"#utility.yul\":40762:40782   */\n      sub\n        /* \"#utility.yul\":40758:40759   */\n      0x00\n        /* \"#utility.yul\":40747:40756   */\n      dup4\n        /* \"#utility.yul\":40743:40760   */\n      add\n        /* \"#utility.yul\":40736:40783   */\n      mstore\n        /* \"#utility.yul\":40800:40931   */\n      tag_915\n        /* \"#utility.yul\":40926:40930   */\n      dup2\n        /* \"#utility.yul\":40800:40931   */\n      tag_502\n      jump\t// in\n    tag_915:\n        /* \"#utility.yul\":40792:40931   */\n      swap1\n      pop\n        /* \"#utility.yul\":40519:40938   */\n      swap2\n      swap1\n      pop\n      jump\t// out\n        /* \"#utility.yul\":40944:41112   */\n    tag_503:\n        /* \"#utility.yul\":41084:41104   */\n      0x496e76616c69642070726f647563742049440000000000000000000000000000\n        /* \"#utility.yul\":41080:41081   */\n      0x00\n        /* \"#utility.yul\":41072:41078   */\n      dup3\n        /* \"#utility.yul\":41068:41082   */\n      add\n        /* \"#utility.yul\":41061:41105   */\n      mstore\n        /* \"#utility.yul\":40944:41112   */\n      pop\n      jump\t// out\n        /* \"#utility.yul\":41118:41484   */\n    tag_504:\n        /* \"#utility.yul\":41260:41263   */\n      0x00\n        /* \"#utility.yul\":41281:41348   */\n      tag_918\n        /* \"#utility.yul\":41345:41347   */\n      0x12\n        /* \"#utility.yul\":41340:41343   */\n      dup4\n        /* \"#utility.yul\":41281:41348   */\n      tag_450\n      jump\t// in\n    tag_918:\n        /* \"#utility.yul\":41274:41348   */\n      swap2\n      pop\n        /* \"#utility.yul\":41357:41450   */\n      tag_919\n        /* \"#utility.yul\":41446:41449   */\n      dup3\n        /* \"#utility.yul\":41357:41450   */\n      tag_503\n      jump\t// in\n    tag_919:\n        /* \"#utility.yul\":41475:41477   */\n      0x20\n        /* \"#utility.yul\":41470:41473   */\n      dup3\n        /* \"#utility.yul\":41466:41478   */\n      add\n        /* \"#utility.yul\":41459:41478   */\n      swap1\n      pop\n        /* \"#utility.yul\":41118:41484   */\n      swap2\n      swap1\n      pop\n      jump\t// out\n        /* \"#utility.yul\":41490:41909   */\n    tag_265:\n        /* \"#utility.yul\":41656:41660   */\n      0x00\n        /* \"#utility.yul\":41694:41696   */\n      0x20\n        /* \"#utility.yul\":41683:41692   */\n      dup3\n        /* \"#utility.yul\":41679:41697   */\n      add\n        /* \"#utility.yul\":41671:41697   */\n      swap1\n      pop\n        /* \"#utility.yul\":41743:41752   */\n      dup2\n        /* \"#utility.yul\":41737:41741   */\n      dup2\n        /* \"#utility.yul\":41733:41753   */\n      sub\n        /* \"#utility.yul\":41729:41730   */\n      0x00\n        /* \"#utility.yul\":41718:41727   */\n      dup4\n        /* \"#utility.yul\":41714:41731   */\n      add\n        /* \"#utility.yul\":41707:41754   */\n      mstore\n        /* \"#utility.yul\":41771:41902   */\n      tag_921\n        /* \"#utility.yul\":41897:41901   */\n      dup2\n        /* \"#utility.yul\":41771:41902   */\n      tag_504\n      jump\t// in\n    tag_921:\n        /* \"#utility.yul\":41763:41902   */\n      swap1\n      pop\n        /* \"#utility.yul\":41490:41909   */\n      swap2\n      swap1\n      pop\n      jump\t// out\n        /* \"#utility.yul\":41915:42141   */\n    tag_505:\n        /* \"#utility.yul\":42055:42089   */\n      0x526563616c6c65642070726f64756374732063616e6e6f74206265207472616e\n        /* \"#utility.yul\":42051:42052   */\n      0x00\n        /* \"#utility.yul\":42043:42049   */\n      dup3\n        /* \"#utility.yul\":42039:42053   */\n      add\n        /* \"#utility.yul\":42032:42090   */\n      mstore\n        /* \"#utility.yul\":42124:42133   */\n      0x7366657272656400000000000000000000000000000000000000000000000000\n        /* \"#utility.yul\":42119:42121   */\n      0x20\n        /* \"#utility.yul\":42111:42117   */\n      dup3\n        /* \"#utility.yul\":42107:42122   */\n      add\n        /* \"#utility.yul\":42100:42134   */\n      mstore\n        /* \"#utility.yul\":41915:42141   */\n      pop\n      jump\t// out\n        /* \"#utility.yul\":42147:42513   */\n    tag_506:\n        /* \"#utility.yul\":42289:42292   */\n      0x00\n        /* \"#utility.yul\":42310:42377   */\n      tag_924\n        /* \"#utility.yul\":42374:42376   */\n      0x27\n        /* \"#utility.yul\":42369:42372   */\n      dup4\n        /* \"#utility.yul\":42310:42377   */\n      tag_450\n      jump\t// in\n    tag_924:\n        /* \"#utility.yul\":42303:42377   */\n      swap2\n      pop\n        /* \"#utility.yul\":42386:42479   */\n      tag_925\n        /* \"#utility.yul\":42475:42478   */\n      dup3\n        /* \"#utility.yul\":42386:42479   */\n      tag_505\n      jump\t// in\n    tag_925:\n        /* \"#utility.yul\":42504:42506   */\n      0x40\n        /* \"#utility.yul\":42499:42502   */\n      dup3\n        /* \"#utility.yul\":42495:42507   */\n      add\n        /* \"#utility.yul\":42488:42507   */\n      swap1\n      pop\n        /* \"#utility.yul\":42147:42513   */\n      swap2\n      swap1\n      pop\n      jump\t// out\n        /* \"#utility.yul\":42519:42938   */\n    tag_268:\n        /* \"#utility.yul\":42685:42689   */\n      0x00\n        /* \"#utility.yul\":42723:42725   */\n      0x20\n        /* \"#utility.yul\":42712:42721   */\n      dup3\n        /* \"#utility.yul\":42708:42726   */\n      add\n        /* \"#utility.yul\":42700:42726   */\n      swap1\n      pop\n        /* \"#utility.yul\":42772:42781   */\n      dup2\n        /* \"#utility.yul\":42766:42770   */\n      dup2\n        /* \"#utility.yul\":42762:42782   */\n      sub\n        /* \"#utility.yul\":42758:42759   */\n      0x00\n        /* \"#utility.yul\":42747:42756   */\n      dup4\n        /* \"#utility.yul\":42743:42760   */\n      add\n        /* \"#utility.yul\":42736:42783   */\n      mstore\n        /* \"#utility.yul\":42800:42931   */\n      tag_927\n        /* \"#utility.yul\":42926:42930   */\n      dup2\n        /* \"#utility.yul\":42800:42931   */\n      tag_506\n      jump\t// in\n    tag_927:\n        /* \"#utility.yul\":42792:42931   */\n      swap1\n      pop\n        /* \"#utility.yul\":42519:42938   */\n      swap2\n      swap1\n      pop\n      jump\t// out\n        /* \"#utility.yul\":42944:43119   */\n    tag_507:\n        /* \"#utility.yul\":43084:43111   */\n      0x496e76616c6964206e6577206f776e6572206164647265737300000000000000\n        /* \"#utility.yul\":43080:43081   */\n      0x00\n        /* \"#utility.yul\":43072:43078   */\n      dup3\n        /* \"#utility.yul\":43068:43082   */\n      add\n        /* \"#utility.yul\":43061:43112   */\n      mstore\n        /* \"#utility.yul\":42944:43119   */\n      pop\n      jump\t// out\n        /* \"#utility.yul\":43125:43491   */\n    tag_508:\n        /* \"#utility.yul\":43267:43270   */\n      0x00\n        /* \"#utility.yul\":43288:43355   */\n      tag_930\n        /* \"#utility.yul\":43352:43354   */\n      0x19\n        /* \"#utility.yul\":43347:43350   */\n      dup4\n        /* \"#utility.yul\":43288:43355   */\n      tag_450\n      jump\t// in\n    tag_930:\n        /* \"#utility.yul\":43281:43355   */\n      swap2\n      pop\n        /* \"#utility.yul\":43364:43457   */\n      tag_931\n        /* \"#utility.yul\":43453:43456   */\n      dup3\n        /* \"#utility.yul\":43364:43457   */\n      tag_507\n      jump\t// in\n    tag_931:\n        /* \"#utility.yul\":43482:43484   */\n      0x20\n        /* \"#utility.yul\":43477:43480   */\n      dup3\n        /* \"#utility.yul\":43473:43485   */\n      add\n        /* \"#utility.yul\":43466:43485   */\n      swap1\n      pop\n        /* \"#utility.yul\":43125:43491   */\n      swap2\n      swap1\n      pop\n      jump\t// out\n        /* \"#utility.yul\":43497:43916   */\n    tag_271:\n        /* \"#utility.yul\":43663:43667   */\n      0x00\n        /* \"#utility.yul\":43701:43703   */\n      0x20\n        /* \"#utility.yul\":43690:43699   */\n      dup3\n        /* \"#utility.yul\":43686:43704   */\n      add\n        /* \"#utility.yul\":43678:43704   */\n      swap1\n      pop\n        /* \"#utility.yul\":43750:43759   */\n      dup2\n        /* \"#utility.yul\":43744:43748   */\n      dup2\n        /* \"#utility.yul\":43740:43760   */\n      sub\n        /* \"#utility.yul\":43736:43737   */\n      0x00\n        /* \"#utility.yul\":43725:43734   */\n      dup4\n        /* \"#utility.yul\":43721:43738   */\n      add\n        /* \"#utility.yul\":43714:43761   */\n      mstore\n        /* \"#utility.yul\":43778:43909   */\n      tag_933\n        /* \"#utility.yul\":43904:43908   */\n      dup2\n        /* \"#utility.yul\":43778:43909   */\n      tag_508\n      jump\t// in\n    tag_933:\n        /* \"#utility.yul\":43770:43909   */\n      swap1\n      pop\n        /* \"#utility.yul\":43497:43916   */\n      swap2\n      swap1\n      pop\n      jump\t// out\n        /* \"#utility.yul\":43922:44099   */\n    tag_509:\n        /* \"#utility.yul\":44062:44091   */\n      0x4e6577206f776e6572206973206e6f7420617574686f72697a65640000000000\n        /* \"#utility.yul\":44058:44059   */\n      0x00\n        /* \"#utility.yul\":44050:44056   */\n      dup3\n        /* \"#utility.yul\":44046:44060   */\n      add\n        /* \"#utility.yul\":44039:44092   */\n      mstore\n        /* \"#utility.yul\":43922:44099   */\n      pop\n      jump\t// out\n        /* \"#utility.yul\":44105:44471   */\n    tag_510:\n        /* \"#utility.yul\":44247:44250   */\n      0x00\n        /* \"#utility.yul\":44268:44335   */\n      tag_936\n        /* \"#utility.yul\":44332:44334   */\n      0x1b\n        /* \"#utility.yul\":44327:44330   */\n      dup4\n        /* \"#utility.yul\":44268:44335   */\n      tag_450\n      jump\t// in\n    tag_936:\n        /* \"#utility.yul\":44261:44335   */\n      swap2\n      pop\n        /* \"#utility.yul\":44344:44437   */\n      tag_937\n        /* \"#utility.yul\":44433:44436   */\n      dup3\n        /* \"#utility.yul\":44344:44437   */\n      tag_509\n      jump\t// in\n    tag_937:\n        /* \"#utility.yul\":44462:44464   */\n      0x20\n        /* \"#utility.yul\":44457:44460   */\n      dup3\n        /* \"#utility.yul\":44453:44465   */\n      add\n        /* \"#utility.yul\":44446:44465   */\n      swap1\n      pop\n        /* \"#utility.yul\":44105:44471   */\n      swap2\n      swap1\n      pop\n      jump\t// out\n        /* \"#utility.yul\":44477:44896   */\n    tag_274:\n        /* \"#utility.yul\":44643:44647   */\n      0x00\n        /* \"#utility.yul\":44681:44683   */\n      0x20\n        /* \"#utility.yul\":44670:44679   */\n      dup3\n        /* \"#utility.yul\":44666:44684   */\n      add\n        /* \"#utility.yul\":44658:44684   */\n      swap1\n      pop\n        /* \"#utility.yul\":44730:44739   */\n      dup2\n        /* \"#utility.yul\":44724:44728   */\n      dup2\n        /* \"#utility.yul\":44720:44740   */\n      sub\n        /* \"#utility.yul\":44716:44717   */\n      0x00\n        /* \"#utility.yul\":44705:44714   */\n      dup4\n        /* \"#utility.yul\":44701:44718   */\n      add\n        /* \"#utility.yul\":44694:44741   */\n      mstore\n        /* \"#utility.yul\":44758:44889   */\n      tag_939\n        /* \"#utility.yul\":44884:44888   */\n      dup2\n        /* \"#utility.yul\":44758:44889   */\n      tag_510\n      jump\t// in\n    tag_939:\n        /* \"#utility.yul\":44750:44889   */\n      swap1\n      pop\n        /* \"#utility.yul\":44477:44896   */\n      swap2\n      swap1\n      pop\n      jump\t// out\n        /* \"#utility.yul\":44902:45083   */\n    tag_511:\n        /* \"#utility.yul\":45042:45075   */\n      0x4f6e6c792063757272656e74206f776e65722063616e207472616e7366657200\n        /* \"#utility.yul\":45038:45039   */\n      0x00\n        /* \"#utility.yul\":45030:45036   */\n      dup3\n        /* \"#utility.yul\":45026:45040   */\n      add\n        /* \"#utility.yul\":45019:45076   */\n      mstore\n        /* \"#utility.yul\":44902:45083   */\n      pop\n      jump\t// out\n        /* \"#utility.yul\":45089:45455   */\n    tag_512:\n        /* \"#utility.yul\":45231:45234   */\n      0x00\n        /* \"#utility.yul\":45252:45319   */\n      tag_942\n        /* \"#utility.yul\":45316:45318   */\n      0x1f\n        /* \"#utility.yul\":45311:45314   */\n      dup4\n        /* \"#utility.yul\":45252:45319   */\n      tag_450\n      jump\t// in\n    tag_942:\n        /* \"#utility.yul\":45245:45319   */\n      swap2\n      pop\n        /* \"#utility.yul\":45328:45421   */\n      tag_943\n        /* \"#utility.yul\":45417:45420   */\n      dup3\n        /* \"#utility.yul\":45328:45421   */\n      tag_511\n      jump\t// in\n    tag_943:\n        /* \"#utility.yul\":45446:45448   */\n      0x20\n        /* \"#utility.yul\":45441:45444   */\n      dup3\n        /* \"#utility.yul\":45437:45449   */\n      add\n        /* \"#utility.yul\":45430:45449   */\n      swap1\n      pop\n        /* \"#utility.yul\":45089:45455   */\n      swap2\n      swap1\n      pop\n      jump\t// out\n        /* \"#utility.yul\":45461:45880   */\n    tag_277:\n        /* \"#utility.yul\":45627:45631   */\n      0x00\n        /* \"#utility.yul\":45665:45667   */\n      0x20\n        /* \"#utility.yul\":45654:45663   */\n      dup3\n        /* \"#utility.yul\":45650:45668   */\n      add\n        /* \"#utility.yul\":45642:45668   */\n      swap1\n      pop\n        /* \"#utility.yul\":45714:45723   */\n      dup2\n        /* \"#utility.yul\":45708:45712   */\n      dup2\n        /* \"#utility.yul\":45704:45724   */\n      sub\n        /* \"#utility.yul\":45700:45701   */\n      0x00\n        /* \"#utility.yul\":45689:45698   */\n      dup4\n        /* \"#utility.yul\":45685:45702   */\n      add\n        /* \"#utility.yul\":45678:45725   */\n      mstore\n        /* \"#utility.yul\":45742:45873   */\n      tag_945\n        /* \"#utility.yul\":45868:45872   */\n      dup2\n        /* \"#utility.yul\":45742:45873   */\n      tag_512\n      jump\t// in\n    tag_945:\n        /* \"#utility.yul\":45734:45873   */\n      swap1\n      pop\n        /* \"#utility.yul\":45461:45880   */\n      swap2\n      swap1\n      pop\n      jump\t// out\n        /* \"#utility.yul\":45886:46056   */\n    tag_513:\n        /* \"#utility.yul\":46026:46048   */\n      0x4e616d652063616e6e6f7420626520656d707479000000000000000000000000\n        /* \"#utility.yul\":46022:46023   */\n      0x00\n        /* \"#utility.yul\":46014:46020   */\n      dup3\n        /* \"#utility.yul\":46010:46024   */\n      add\n        /* \"#utility.yul\":46003:46049   */\n      mstore\n        /* \"#utility.yul\":45886:46056   */\n      pop\n      jump\t// out\n        /* \"#utility.yul\":46062:46428   */\n    tag_514:\n        /* \"#utility.yul\":46204:46207   */\n      0x00\n        /* \"#utility.yul\":46225:46292   */\n      tag_948\n        /* \"#utility.yul\":46289:46291   */\n      0x14\n        /* \"#utility.yul\":46284:46287   */\n      dup4\n        /* \"#utility.yul\":46225:46292   */\n      tag_450\n      jump\t// in\n    tag_948:\n        /* \"#utility.yul\":46218:46292   */\n      swap2\n      pop\n        /* \"#utility.yul\":46301:46394   */\n      tag_949\n        /* \"#utility.yul\":46390:46393   */\n      dup3\n        /* \"#utility.yul\":46301:46394   */\n      tag_513\n      jump\t// in\n    tag_949:\n        /* \"#utility.yul\":46419:46421   */\n      0x20\n        /* \"#utility.yul\":46414:46417   */\n      dup3\n        /* \"#utility.yul\":46410:46422   */\n      add\n        /* \"#utility.yul\":46403:46422   */\n      swap1\n      pop\n        /* \"#utility.yul\":46062:46428   */\n      swap2\n      swap1\n      pop\n      jump\t// out\n        /* \"#utility.yul\":46434:46853   */\n    tag_284:\n        /* \"#utility.yul\":46600:46604   */\n      0x00\n        /* \"#utility.yul\":46638:46640   */\n      0x20\n        /* \"#utility.yul\":46627:46636   */\n      dup3\n        /* \"#utility.yul\":46623:46641   */\n      add\n        /* \"#utility.yul\":46615:46641   */\n      swap1\n      pop\n        /* \"#utility.yul\":46687:46696   */\n      dup2\n        /* \"#utility.yul\":46681:46685   */\n      dup2\n        /* \"#utility.yul\":46677:46697   */\n      sub\n        /* \"#utility.yul\":46673:46674   */\n      0x00\n        /* \"#utility.yul\":46662:46671   */\n      dup4\n        /* \"#utility.yul\":46658:46675   */\n      add\n        /* \"#utility.yul\":46651:46698   */\n      mstore\n        /* \"#utility.yul\":46715:46846   */\n      tag_951\n        /* \"#utility.yul\":46841:46845   */\n      dup2\n        /* \"#utility.yul\":46715:46846   */\n      tag_514\n      jump\t// in\n    tag_951:\n        /* \"#utility.yul\":46707:46846   */\n      swap1\n      pop\n        /* \"#utility.yul\":46434:46853   */\n      swap2\n      swap1\n      pop\n      jump\t// out\n        /* \"#utility.yul\":46859:47036   */\n    tag_515:\n        /* \"#utility.yul\":46999:47028   */\n      0x4465736372697074696f6e2063616e6e6f7420626520656d7074790000000000\n        /* \"#utility.yul\":46995:46996   */\n      0x00\n        /* \"#utility.yul\":46987:46993   */\n      dup3\n        /* \"#utility.yul\":46983:46997   */\n      add\n        /* \"#utility.yul\":46976:47029   */\n      mstore\n        /* \"#utility.yul\":46859:47036   */\n      pop\n      jump\t// out\n        /* \"#utility.yul\":47042:47408   */\n    tag_516:\n        /* \"#utility.yul\":47184:47187   */\n      0x00\n        /* \"#utility.yul\":47205:47272   */\n      tag_954\n        /* \"#utility.yul\":47269:47271   */\n      0x1b\n        /* \"#utility.yul\":47264:47267   */\n      dup4\n        /* \"#utility.yul\":47205:47272   */\n      tag_450\n      jump\t// in\n    tag_954:\n        /* \"#utility.yul\":47198:47272   */\n      swap2\n      pop\n        /* \"#utility.yul\":47281:47374   */\n      tag_955\n        /* \"#utility.yul\":47370:47373   */\n      dup3\n        /* \"#utility.yul\":47281:47374   */\n      tag_515\n      jump\t// in\n    tag_955:\n        /* \"#utility.yul\":47399:47401   */\n      0x20\n        /* \"#utility.yul\":47394:47397   */\n      dup3\n        /* \"#utility.yul\":47390:47402   */\n      add\n        /* \"#utility.yul\":47383:47402   */\n      swap1\n      pop\n        /* \"#utility.yul\":47042:47408   */\n      swap2\n      swap1\n      pop\n      jump\t// out\n        /* \"#utility.yul\":47414:47833   */\n    tag_287:\n        /* \"#utility.yul\":47580:47584   */\n      0x00\n        /* \"#utility.yul\":47618:47620   */\n      0x20\n        /* \"#utility.yul\":47607:47616   */\n      dup3\n        /* \"#utility.yul\":47603:47621   */\n      add\n        /* \"#utility.yul\":47595:47621   */\n      swap1\n      pop\n        /* \"#utility.yul\":47667:47676   */\n      dup2\n        /* \"#utility.yul\":47661:47665   */\n      dup2\n        /* \"#utility.yul\":47657:47677   */\n      sub\n        /* \"#utility.yul\":47653:47654   */\n      0x00\n        /* \"#utility.yul\":47642:47651   */\n      dup4\n        /* \"#utility.yul\":47638:47655   */\n      add\n        /* \"#utility.yul\":47631:47678   */\n      mstore\n        /* \"#utility.yul\":47695:47826   */\n      tag_957\n        /* \"#utility.yul\":47821:47825   */\n      dup2\n        /* \"#utility.yul\":47695:47826   */\n      tag_516\n      jump\t// in\n    tag_957:\n        /* \"#utility.yul\":47687:47826   */\n      swap1\n      pop\n        /* \"#utility.yul\":47414:47833   */\n      swap2\n      swap1\n      pop\n      jump\t// out\n        /* \"#utility.yul\":47839:48010   */\n    tag_517:\n        /* \"#utility.yul\":47979:48002   */\n      0x50726f6475637420646f65736e74206578697374730000000000000000000000\n        /* \"#utility.yul\":47975:47976   */\n      0x00\n        /* \"#utility.yul\":47967:47973   */\n      dup3\n        /* \"#utility.yul\":47963:47977   */\n      add\n        /* \"#utility.yul\":47956:48003   */\n      mstore\n        /* \"#utility.yul\":47839:48010   */\n      pop\n      jump\t// out\n        /* \"#utility.yul\":48016:48382   */\n    tag_518:\n        /* \"#utility.yul\":48158:48161   */\n      0x00\n        /* \"#utility.yul\":48179:48246   */\n      tag_960\n        /* \"#utility.yul\":48243:48245   */\n      0x15\n        /* \"#utility.yul\":48238:48241   */\n      dup4\n        /* \"#utility.yul\":48179:48246   */\n      tag_450\n      jump\t// in\n    tag_960:\n        /* \"#utility.yul\":48172:48246   */\n      swap2\n      pop\n        /* \"#utility.yul\":48255:48348   */\n      tag_961\n        /* \"#utility.yul\":48344:48347   */\n      dup3\n        /* \"#utility.yul\":48255:48348   */\n      tag_517\n      jump\t// in\n    tag_961:\n        /* \"#utility.yul\":48373:48375   */\n      0x20\n        /* \"#utility.yul\":48368:48371   */\n      dup3\n        /* \"#utility.yul\":48364:48376   */\n      add\n        /* \"#utility.yul\":48357:48376   */\n      swap1\n      pop\n        /* \"#utility.yul\":48016:48382   */\n      swap2\n      swap1\n      pop\n      jump\t// out\n        /* \"#utility.yul\":48388:48807   */\n    tag_299:\n        /* \"#utility.yul\":48554:48558   */\n      0x00\n        /* \"#utility.yul\":48592:48594   */\n      0x20\n        /* \"#utility.yul\":48581:48590   */\n      dup3\n        /* \"#utility.yul\":48577:48595   */\n      add\n        /* \"#utility.yul\":48569:48595   */\n      swap1\n      pop\n        /* \"#utility.yul\":48641:48650   */\n      dup2\n        /* \"#utility.yul\":48635:48639   */\n      dup2\n        /* \"#utility.yul\":48631:48651   */\n      sub\n        /* \"#utility.yul\":48627:48628   */\n      0x00\n        /* \"#utility.yul\":48616:48625   */\n      dup4\n        /* \"#utility.yul\":48612:48629   */\n      add\n        /* \"#utility.yul\":48605:48652   */\n      mstore\n        /* \"#utility.yul\":48669:48800   */\n      tag_963\n        /* \"#utility.yul\":48795:48799   */\n      dup2\n        /* \"#utility.yul\":48669:48800   */\n      tag_518\n      jump\t// in\n    tag_963:\n        /* \"#utility.yul\":48661:48800   */\n      swap1\n      pop\n        /* \"#utility.yul\":48388:48807   */\n      swap2\n      swap1\n      pop\n      jump\t// out\n        /* \"#utility.yul\":48813:48979   */\n    tag_519:\n        /* \"#utility.yul\":48953:48971   */\n      0x416c726561647920726563616c6c656400000000000000000000000000000000\n        /* \"#utility.yul\":48949:48950   */\n      0x00\n        /* \"#utility.yul\":48941:48947   */\n      dup3\n        /* \"#utility.yul\":48937:48951   */\n      add\n        /* \"#utility.yul\":48930:48972   */\n      mstore\n        /* \"#utility.yul\":48813:48979   */\n      pop\n      jump\t// out\n        /* \"#utility.yul\":48985:49351   */\n    tag_520:\n        /* \"#utility.yul\":49127:49130   */\n      0x00\n        /* \"#utility.yul\":49148:49215   */\n      tag_966\n        /* \"#utility.yul\":49212:49214   */\n      0x10\n        /* \"#utility.yul\":49207:49210   */\n      dup4\n        /* \"#utility.yul\":49148:49215   */\n      tag_450\n      jump\t// in\n    tag_966:\n        /* \"#utility.yul\":49141:49215   */\n      swap2\n      pop\n        /* \"#utility.yul\":49224:49317   */\n      tag_967\n        /* \"#utility.yul\":49313:49316   */\n      dup3\n        /* \"#utility.yul\":49224:49317   */\n      tag_519\n      jump\t// in\n    tag_967:\n        /* \"#utility.yul\":49342:49344   */\n      0x20\n        /* \"#utility.yul\":49337:49340   */\n      dup3\n        /* \"#utility.yul\":49333:49345   */\n      add\n        /* \"#utility.yul\":49326:49345   */\n      swap1\n      pop\n        /* \"#utility.yul\":48985:49351   */\n      swap2\n      swap1\n      pop\n      jump\t// out\n        /* \"#utility.yul\":49357:49776   */\n    tag_302:\n        /* \"#utility.yul\":49523:49527   */\n      0x00\n        /* \"#utility.yul\":49561:49563   */\n      0x20\n        /* \"#utility.yul\":49550:49559   */\n      dup3\n        /* \"#utility.yul\":49546:49564   */\n      add\n        /* \"#utility.yul\":49538:49564   */\n      swap1\n      pop\n        /* \"#utility.yul\":49610:49619   */\n      dup2\n        /* \"#utility.yul\":49604:49608   */\n      dup2\n        /* \"#utility.yul\":49600:49620   */\n      sub\n        /* \"#utility.yul\":49596:49597   */\n      0x00\n        /* \"#utility.yul\":49585:49594   */\n      dup4\n        /* \"#utility.yul\":49581:49598   */\n      add\n        /* \"#utility.yul\":49574:49621   */\n      mstore\n        /* \"#utility.yul\":49638:49769   */\n      tag_969\n        /* \"#utility.yul\":49764:49768   */\n      dup2\n        /* \"#utility.yul\":49638:49769   */\n      tag_520\n      jump\t// in\n    tag_969:\n        /* \"#utility.yul\":49630:49769   */\n      swap1\n      pop\n        /* \"#utility.yul\":49357:49776   */\n      swap2\n      swap1\n      pop\n      jump\t// out\n        /* \"#utility.yul\":49782:49945   */\n    tag_521:\n        /* \"#utility.yul\":49922:49937   */\n      0x4e6f7420746865206f776e657200000000000000000000000000000000000000\n        /* \"#utility.yul\":49918:49919   */\n      0x00\n        /* \"#utility.yul\":49910:49916   */\n      dup3\n        /* \"#utility.yul\":49906:49920   */\n      add\n        /* \"#utility.yul\":49899:49938   */\n      mstore\n        /* \"#utility.yul\":49782:49945   */\n      pop\n      jump\t// out\n        /* \"#utility.yul\":49951:50317   */\n    tag_522:\n        /* \"#utility.yul\":50093:50096   */\n      0x00\n        /* \"#utility.yul\":50114:50181   */\n      tag_972\n        /* \"#utility.yul\":50178:50180   */\n      0x0d\n        /* \"#utility.yul\":50173:50176   */\n      dup4\n        /* \"#utility.yul\":50114:50181   */\n      tag_450\n      jump\t// in\n    tag_972:\n        /* \"#utility.yul\":50107:50181   */\n      swap2\n      pop\n        /* \"#utility.yul\":50190:50283   */\n      tag_973\n        /* \"#utility.yul\":50279:50282   */\n      dup3\n        /* \"#utility.yul\":50190:50283   */\n      tag_521\n      jump\t// in\n    tag_973:\n        /* \"#utility.yul\":50308:50310   */\n      0x20\n        /* \"#utility.yul\":50303:50306   */\n      dup3\n        /* \"#utility.yul\":50299:50311   */\n      add\n        /* \"#utility.yul\":50292:50311   */\n      swap1\n      pop\n        /* \"#utility.yul\":49951:50317   */\n      swap2\n      swap1\n      pop\n      jump\t// out\n        /* \"#utility.yul\":50323:50742   */\n    tag_331:\n        /* \"#utility.yul\":50489:50493   */\n      0x00\n        /* \"#utility.yul\":50527:50529   */\n      0x20\n        /* \"#utility.yul\":50516:50525   */\n      dup3\n        /* \"#utility.yul\":50512:50530   */\n      add\n        /* \"#utility.yul\":50504:50530   */\n      swap1\n      pop\n        /* \"#utility.yul\":50576:50585   */\n      dup2\n        /* \"#utility.yul\":50570:50574   */\n      dup2\n        /* \"#utility.yul\":50566:50586   */\n      sub\n        /* \"#utility.yul\":50562:50563   */\n      0x00\n        /* \"#utility.yul\":50551:50560   */\n      dup4\n        /* \"#utility.yul\":50547:50564   */\n      add\n        /* \"#utility.yul\":50540:50587   */\n      mstore\n        /* \"#utility.yul\":50604:50735   */\n      tag_975\n        /* \"#utility.yul\":50730:50734   */\n      dup2\n        /* \"#utility.yul\":50604:50735   */\n      tag_522\n      jump\t// in\n    tag_975:\n        /* \"#utility.yul\":50596:50735   */\n      swap1\n      pop\n        /* \"#utility.yul\":50323:50742   */\n      swap2\n      swap1\n      pop\n      jump\t// out\n        /* \"#utility.yul\":50748:50913   */\n    tag_523:\n        /* \"#utility.yul\":50888:50905   */\n      0x496e76616c696420616464726573730000000000000000000000000000000000\n        /* \"#utility.yul\":50884:50885   */\n      0x00\n        /* \"#utility.yul\":50876:50882   */\n      dup3\n        /* \"#utility.yul\":50872:50886   */\n      add\n        /* \"#utility.yul\":50865:50906   */\n      mstore\n        /* \"#utility.yul\":50748:50913   */\n      pop\n      jump\t// out\n        /* \"#utility.yul\":50919:51285   */\n    tag_524:\n        /* \"#utility.yul\":51061:51064   */\n      0x00\n        /* \"#utility.yul\":51082:51149   */\n      tag_978\n        /* \"#utility.yul\":51146:51148   */\n      0x0f\n        /* \"#utility.yul\":51141:51144   */\n      dup4\n        /* \"#utility.yul\":51082:51149   */\n      tag_450\n      jump\t// in\n    tag_978:\n        /* \"#utility.yul\":51075:51149   */\n      swap2\n      pop\n        /* \"#utility.yul\":51158:51251   */\n      tag_979\n        /* \"#utility.yul\":51247:51250   */\n      dup3\n        /* \"#utility.yul\":51158:51251   */\n      tag_523\n      jump\t// in\n    tag_979:\n        /* \"#utility.yul\":51276:51278   */\n      0x20\n        /* \"#utility.yul\":51271:51274   */\n      dup3\n        /* \"#utility.yul\":51267:51279   */\n      add\n        /* \"#utility.yul\":51260:51279   */\n      swap1\n      pop\n        /* \"#utility.yul\":50919:51285   */\n      swap2\n      swap1\n      pop\n      jump\t// out\n        /* \"#utility.yul\":51291:51710   */\n    tag_335:\n        /* \"#utility.yul\":51457:51461   */\n      0x00\n        /* \"#utility.yul\":51495:51497   */\n      0x20\n        /* \"#utility.yul\":51484:51493   */\n      dup3\n        /* \"#utility.yul\":51480:51498   */\n      add\n        /* \"#utility.yul\":51472:51498   */\n      swap1\n      pop\n        /* \"#utility.yul\":51544:51553   */\n      dup2\n        /* \"#utility.yul\":51538:51542   */\n      dup2\n        /* \"#utility.yul\":51534:51554   */\n      sub\n        /* \"#utility.yul\":51530:51531   */\n      0x00\n        /* \"#utility.yul\":51519:51528   */\n      dup4\n        /* \"#utility.yul\":51515:51532   */\n      add\n        /* \"#utility.yul\":51508:51555   */\n      mstore\n        /* \"#utility.yul\":51572:51703   */\n      tag_981\n        /* \"#utility.yul\":51698:51702   */\n      dup2\n        /* \"#utility.yul\":51572:51703   */\n      tag_524\n      jump\t// in\n    tag_981:\n        /* \"#utility.yul\":51564:51703   */\n      swap1\n      pop\n        /* \"#utility.yul\":51291:51710   */\n      swap2\n      swap1\n      pop\n      jump\t// out\n        /* \"#utility.yul\":51716:51896   */\n    tag_525:\n        /* \"#utility.yul\":51856:51888   */\n      0x5061727469636970616e7420616c726561647920617574686f72697a65640000\n        /* \"#utility.yul\":51852:51853   */\n      0x00\n        /* \"#utility.yul\":51844:51850   */\n      dup3\n        /* \"#utility.yul\":51840:51854   */\n      add\n        /* \"#utility.yul\":51833:51889   */\n      mstore\n        /* \"#utility.yul\":51716:51896   */\n      pop\n      jump\t// out\n        /* \"#utility.yul\":51902:52268   */\n    tag_526:\n        /* \"#utility.yul\":52044:52047   */\n      0x00\n        /* \"#utility.yul\":52065:52132   */\n      tag_984\n        /* \"#utility.yul\":52129:52131   */\n      0x1e\n        /* \"#utility.yul\":52124:52127   */\n      dup4\n        /* \"#utility.yul\":52065:52132   */\n      tag_450\n      jump\t// in\n    tag_984:\n        /* \"#utility.yul\":52058:52132   */\n      swap2\n      pop\n        /* \"#utility.yul\":52141:52234   */\n      tag_985\n        /* \"#utility.yul\":52230:52233   */\n      dup3\n        /* \"#utility.yul\":52141:52234   */\n      tag_525\n      jump\t// in\n    tag_985:\n        /* \"#utility.yul\":52259:52261   */\n      0x20\n        /* \"#utility.yul\":52254:52257   */\n      dup3\n        /* \"#utility.yul\":52250:52262   */\n      add\n        /* \"#utility.yul\":52243:52262   */\n      swap1\n      pop\n        /* \"#utility.yul\":51902:52268   */\n      swap2\n      swap1\n      pop\n      jump\t// out\n        /* \"#utility.yul\":52274:52693   */\n    tag_338:\n        /* \"#utility.yul\":52440:52444   */\n      0x00\n        /* \"#utility.yul\":52478:52480   */\n      0x20\n        /* \"#utility.yul\":52467:52476   */\n      dup3\n        /* \"#utility.yul\":52463:52481   */\n      add\n        /* \"#utility.yul\":52455:52481   */\n      swap1\n      pop\n        /* \"#utility.yul\":52527:52536   */\n      dup2\n        /* \"#utility.yul\":52521:52525   */\n      dup2\n        /* \"#utility.yul\":52517:52537   */\n      sub\n        /* \"#utility.yul\":52513:52514   */\n      0x00\n        /* \"#utility.yul\":52502:52511   */\n      dup4\n        /* \"#utility.yul\":52498:52515   */\n      add\n        /* \"#utility.yul\":52491:52538   */\n      mstore\n        /* \"#utility.yul\":52555:52686   */\n      tag_987\n        /* \"#utility.yul\":52681:52685   */\n      dup2\n        /* \"#utility.yul\":52555:52686   */\n      tag_526\n      jump\t// in\n    tag_987:\n        /* \"#utility.yul\":52547:52686   */\n      swap1\n      pop\n        /* \"#utility.yul\":52274:52693   */\n      swap2\n      swap1\n      pop\n      jump\t// out\n        /* \"#utility.yul\":52699:52926   */\n    tag_527:\n        /* \"#utility.yul\":52839:52873   */\n      0x466f7220726567697374657242617463682c204944206c697374206d75737420\n        /* \"#utility.yul\":52835:52836   */\n      0x00\n        /* \"#utility.yul\":52827:52833   */\n      dup3\n        /* \"#utility.yul\":52823:52837   */\n      add\n        /* \"#utility.yul\":52816:52874   */\n      mstore\n        /* \"#utility.yul\":52908:52918   */\n      0x626520656d707479000000000000000000000000000000000000000000000000\n        /* \"#utility.yul\":52903:52905   */\n      0x20\n        /* \"#utility.yul\":52895:52901   */\n      dup3\n        /* \"#utility.yul\":52891:52906   */\n      add\n        /* \"#utility.yul\":52884:52919   */\n      mstore\n        /* \"#utility.yul\":52699:52926   */\n      pop\n      jump\t// out\n        /* \"#utility.yul\":52932:53298   */\n    tag_528:\n        /* \"#utility.yul\":53074:53077   */\n      0x00\n        /* \"#utility.yul\":53095:53162   */\n      tag_990\n        /* \"#utility.yul\":53159:53161   */\n      0x28\n        /* \"#utility.yul\":53154:53157   */\n      dup4\n        /* \"#utility.yul\":53095:53162   */\n      tag_450\n      jump\t// in\n    tag_990:\n        /* \"#utility.yul\":53088:53162   */\n      swap2\n      pop\n        /* \"#utility.yul\":53171:53264   */\n      tag_991\n        /* \"#utility.yul\":53260:53263   */\n      dup3\n        /* \"#utility.yul\":53171:53264   */\n      tag_527\n      jump\t// in\n    tag_991:\n        /* \"#utility.yul\":53289:53291   */\n      0x40\n        /* \"#utility.yul\":53284:53287   */\n      dup3\n        /* \"#utility.yul\":53280:53292   */\n      add\n        /* \"#utility.yul\":53273:53292   */\n      swap1\n      pop\n        /* \"#utility.yul\":52932:53298   */\n      swap2\n      swap1\n      pop\n      jump\t// out\n        /* \"#utility.yul\":53304:53723   */\n    tag_354:\n        /* \"#utility.yul\":53470:53474   */\n      0x00\n        /* \"#utility.yul\":53508:53510   */\n      0x20\n        /* \"#utility.yul\":53497:53506   */\n      dup3\n        /* \"#utility.yul\":53493:53511   */\n      add\n        /* \"#utility.yul\":53485:53511   */\n      swap1\n      pop\n        /* \"#utility.yul\":53557:53566   */\n      dup2\n        /* \"#utility.yul\":53551:53555   */\n      dup2\n        /* \"#utility.yul\":53547:53567   */\n      sub\n        /* \"#utility.yul\":53543:53544   */\n      0x00\n        /* \"#utility.yul\":53532:53541   */\n      dup4\n        /* \"#utility.yul\":53528:53545   */\n      add\n        /* \"#utility.yul\":53521:53568   */\n      mstore\n        /* \"#utility.yul\":53585:53716   */\n      tag_993\n        /* \"#utility.yul\":53711:53715   */\n      dup2\n        /* \"#utility.yul\":53585:53716   */\n      tag_528\n      jump\t// in\n    tag_993:\n        /* \"#utility.yul\":53577:53716   */\n      swap1\n      pop\n        /* \"#utility.yul\":53304:53723   */\n      swap2\n      swap1\n      pop\n      jump\t// out\n        /* \"#utility.yul\":53729:53963   */\n    tag_529:\n        /* \"#utility.yul\":53869:53903   */\n      0x4e616d6520616e64206465736372697074696f6e206c69737473206d75737420\n        /* \"#utility.yul\":53865:53866   */\n      0x00\n        /* \"#utility.yul\":53857:53863   */\n      dup3\n        /* \"#utility.yul\":53853:53867   */\n      add\n        /* \"#utility.yul\":53846:53904   */\n      mstore\n        /* \"#utility.yul\":53938:53955   */\n      0x6d6174636820696e206c656e6774680000000000000000000000000000000000\n        /* \"#utility.yul\":53933:53935   */\n      0x20\n        /* \"#utility.yul\":53925:53931   */\n      dup3\n        /* \"#utility.yul\":53921:53936   */\n      add\n        /* \"#utility.yul\":53914:53956   */\n      mstore\n        /* \"#utility.yul\":53729:53963   */\n      pop\n      jump\t// out\n        /* \"#utility.yul\":53969:54335   */\n    tag_530:\n        /* \"#utility.yul\":54111:54114   */\n      0x00\n        /* \"#utility.yul\":54132:54199   */\n      tag_996\n        /* \"#utility.yul\":54196:54198   */\n      0x2f\n        /* \"#utility.yul\":54191:54194   */\n      dup4\n        /* \"#utility.yul\":54132:54199   */\n      tag_450\n      jump\t// in\n    tag_996:\n        /* \"#utility.yul\":54125:54199   */\n      swap2\n      pop\n        /* \"#utility.yul\":54208:54301   */\n      tag_997\n        /* \"#utility.yul\":54297:54300   */\n      dup3\n        /* \"#utility.yul\":54208:54301   */\n      tag_529\n      jump\t// in\n    tag_997:\n        /* \"#utility.yul\":54326:54328   */\n      0x40\n        /* \"#utility.yul\":54321:54324   */\n      dup3\n        /* \"#utility.yul\":54317:54329   */\n      add\n        /* \"#utility.yul\":54310:54329   */\n      swap1\n      pop\n        /* \"#utility.yul\":53969:54335   */\n      swap2\n      swap1\n      pop\n      jump\t// out\n        /* \"#utility.yul\":54341:54760   */\n    tag_357:\n        /* \"#utility.yul\":54507:54511   */\n      0x00\n        /* \"#utility.yul\":54545:54547   */\n      0x20\n        /* \"#utility.yul\":54534:54543   */\n      dup3\n        /* \"#utility.yul\":54530:54548   */\n      add\n        /* \"#utility.yul\":54522:54548   */\n      swap1\n      pop\n        /* \"#utility.yul\":54594:54603   */\n      dup2\n        /* \"#utility.yul\":54588:54592   */\n      dup2\n        /* \"#utility.yul\":54584:54604   */\n      sub\n        /* \"#utility.yul\":54580:54581   */\n      0x00\n        /* \"#utility.yul\":54569:54578   */\n      dup4\n        /* \"#utility.yul\":54565:54582   */\n      add\n        /* \"#utility.yul\":54558:54605   */\n      mstore\n        /* \"#utility.yul\":54622:54753   */\n      tag_999\n        /* \"#utility.yul\":54748:54752   */\n      dup2\n        /* \"#utility.yul\":54622:54753   */\n      tag_530\n      jump\t// in\n    tag_999:\n        /* \"#utility.yul\":54614:54753   */\n      swap1\n      pop\n        /* \"#utility.yul\":54341:54760   */\n      swap2\n      swap1\n      pop\n      jump\t// out\n        /* \"#utility.yul\":54766:55004   */\n    tag_531:\n        /* \"#utility.yul\":54906:54940   */\n      0x4944206c6973742063616e6e6f7420626520656d70747920666f72206e6f6e2d\n        /* \"#utility.yul\":54902:54903   */\n      0x00\n        /* \"#utility.yul\":54894:54900   */\n      dup3\n        /* \"#utility.yul\":54890:54904   */\n      add\n        /* \"#utility.yul\":54883:54941   */\n      mstore\n        /* \"#utility.yul\":54975:54996   */\n      0x7265676973746572206f7065726174696f6e7300000000000000000000000000\n        /* \"#utility.yul\":54970:54972   */\n      0x20\n        /* \"#utility.yul\":54962:54968   */\n      dup3\n        /* \"#utility.yul\":54958:54973   */\n      add\n        /* \"#utility.yul\":54951:54997   */\n      mstore\n        /* \"#utility.yul\":54766:55004   */\n      pop\n      jump\t// out\n        /* \"#utility.yul\":55010:55376   */\n    tag_532:\n        /* \"#utility.yul\":55152:55155   */\n      0x00\n        /* \"#utility.yul\":55173:55240   */\n      tag_1002\n        /* \"#utility.yul\":55237:55239   */\n      0x33\n        /* \"#utility.yul\":55232:55235   */\n      dup4\n        /* \"#utility.yul\":55173:55240   */\n      tag_450\n      jump\t// in\n    tag_1002:\n        /* \"#utility.yul\":55166:55240   */\n      swap2\n      pop\n        /* \"#utility.yul\":55249:55342   */\n      tag_1003\n        /* \"#utility.yul\":55338:55341   */\n      dup3\n        /* \"#utility.yul\":55249:55342   */\n      tag_531\n      jump\t// in\n    tag_1003:\n        /* \"#utility.yul\":55367:55369   */\n      0x40\n        /* \"#utility.yul\":55362:55365   */\n      dup3\n        /* \"#utility.yul\":55358:55370   */\n      add\n        /* \"#utility.yul\":55351:55370   */\n      swap1\n      pop\n        /* \"#utility.yul\":55010:55376   */\n      swap2\n      swap1\n      pop\n      jump\t// out\n        /* \"#utility.yul\":55382:55801   */\n    tag_361:\n        /* \"#utility.yul\":55548:55552   */\n      0x00\n        /* \"#utility.yul\":55586:55588   */\n      0x20\n        /* \"#utility.yul\":55575:55584   */\n      dup3\n        /* \"#utility.yul\":55571:55589   */\n      add\n        /* \"#utility.yul\":55563:55589   */\n      swap1\n      pop\n        /* \"#utility.yul\":55635:55644   */\n      dup2\n        /* \"#utility.yul\":55629:55633   */\n      dup2\n        /* \"#utility.yul\":55625:55645   */\n      sub\n        /* \"#utility.yul\":55621:55622   */\n      0x00\n        /* \"#utility.yul\":55610:55619   */\n      dup4\n        /* \"#utility.yul\":55606:55623   */\n      add\n        /* \"#utility.yul\":55599:55646   */\n      mstore\n        /* \"#utility.yul\":55663:55794   */\n      tag_1005\n        /* \"#utility.yul\":55789:55793   */\n      dup2\n        /* \"#utility.yul\":55663:55794   */\n      tag_532\n      jump\t// in\n    tag_1005:\n        /* \"#utility.yul\":55655:55794   */\n      swap1\n      pop\n        /* \"#utility.yul\":55382:55801   */\n      swap2\n      swap1\n      pop\n      jump\t// out\n        /* \"#utility.yul\":55807:56032   */\n    tag_533:\n        /* \"#utility.yul\":55947:55981   */\n      0x494420616e64206e616d65206c69737473206d757374206d6174636820696e20\n        /* \"#utility.yul\":55943:55944   */\n      0x00\n        /* \"#utility.yul\":55935:55941   */\n      dup3\n        /* \"#utility.yul\":55931:55945   */\n      add\n        /* \"#utility.yul\":55924:55982   */\n      mstore\n        /* \"#utility.yul\":56016:56024   */\n      0x6c656e6774680000000000000000000000000000000000000000000000000000\n        /* \"#utility.yul\":56011:56013   */\n      0x20\n        /* \"#utility.yul\":56003:56009   */\n      dup3\n        /* \"#utility.yul\":55999:56014   */\n      add\n        /* \"#utility.yul\":55992:56025   */\n      mstore\n        /* \"#utility.yul\":55807:56032   */\n      pop\n      jump\t// out\n        /* \"#utility.yul\":56038:56404   */\n    tag_534:\n        /* \"#utility.yul\":56180:56183   */\n      0x00\n        /* \"#utility.yul\":56201:56268   */\n      tag_1008\n        /* \"#utility.yul\":56265:56267   */\n      0x26\n        /* \"#utility.yul\":56260:56263   */\n      dup4\n        /* \"#utility.yul\":56201:56268   */\n      tag_450\n      jump\t// in\n    tag_1008:\n        /* \"#utility.yul\":56194:56268   */\n      swap2\n      pop\n        /* \"#utility.yul\":56277:56370   */\n      tag_1009\n        /* \"#utility.yul\":56366:56369   */\n      dup3\n        /* \"#utility.yul\":56277:56370   */\n      tag_533\n      jump\t// in\n    tag_1009:\n        /* \"#utility.yul\":56395:56397   */\n      0x40\n        /* \"#utility.yul\":56390:56393   */\n      dup3\n        /* \"#utility.yul\":56386:56398   */\n      add\n        /* \"#utility.yul\":56379:56398   */\n      swap1\n      pop\n        /* \"#utility.yul\":56038:56404   */\n      swap2\n      swap1\n      pop\n      jump\t// out\n        /* \"#utility.yul\":56410:56829   */\n    tag_364:\n        /* \"#utility.yul\":56576:56580   */\n      0x00\n        /* \"#utility.yul\":56614:56616   */\n      0x20\n        /* \"#utility.yul\":56603:56612   */\n      dup3\n        /* \"#utility.yul\":56599:56617   */\n      add\n        /* \"#utility.yul\":56591:56617   */\n      swap1\n      pop\n        /* \"#utility.yul\":56663:56672   */\n      dup2\n        /* \"#utility.yul\":56657:56661   */\n      dup2\n        /* \"#utility.yul\":56653:56673   */\n      sub\n        /* \"#utility.yul\":56649:56650   */\n      0x00\n        /* \"#utility.yul\":56638:56647   */\n      dup4\n        /* \"#utility.yul\":56634:56651   */\n      add\n        /* \"#utility.yul\":56627:56674   */\n      mstore\n        /* \"#utility.yul\":56691:56822   */\n      tag_1011\n        /* \"#utility.yul\":56817:56821   */\n      dup2\n        /* \"#utility.yul\":56691:56822   */\n      tag_534\n      jump\t// in\n    tag_1011:\n        /* \"#utility.yul\":56683:56822   */\n      swap1\n      pop\n        /* \"#utility.yul\":56410:56829   */\n      swap2\n      swap1\n      pop\n      jump\t// out\n        /* \"#utility.yul\":56835:57067   */\n    tag_535:\n        /* \"#utility.yul\":56975:57009   */\n      0x494420616e64206465736372697074696f6e206c69737473206d757374206d61\n        /* \"#utility.yul\":56971:56972   */\n      0x00\n        /* \"#utility.yul\":56963:56969   */\n      dup3\n        /* \"#utility.yul\":56959:56973   */\n      add\n        /* \"#utility.yul\":56952:57010   */\n      mstore\n        /* \"#utility.yul\":57044:57059   */\n      0x74636820696e206c656e67746800000000000000000000000000000000000000\n        /* \"#utility.yul\":57039:57041   */\n      0x20\n        /* \"#utility.yul\":57031:57037   */\n      dup3\n        /* \"#utility.yul\":57027:57042   */\n      add\n        /* \"#utility.yul\":57020:57060   */\n      mstore\n        /* \"#utility.yul\":56835:57067   */\n      pop\n      jump\t// out\n        /* \"#utility.yul\":57073:57439   */\n    tag_536:\n        /* \"#utility.yul\":57215:57218   */\n      0x00\n        /* \"#utility.yul\":57236:57303   */\n      tag_1014\n        /* \"#utility.yul\":57300:57302   */\n      0x2d\n        /* \"#utility.yul\":57295:57298   */\n      dup4\n        /* \"#utility.yul\":57236:57303   */\n      tag_450\n      jump\t// in\n    tag_1014:\n        /* \"#utility.yul\":57229:57303   */\n      swap2\n      pop\n        /* \"#utility.yul\":57312:57405   */\n      tag_1015\n        /* \"#utility.yul\":57401:57404   */\n      dup3\n        /* \"#utility.yul\":57312:57405   */\n      tag_535\n      jump\t// in\n    tag_1015:\n        /* \"#utility.yul\":57430:57432   */\n      0x40\n        /* \"#utility.yul\":57425:57428   */\n      dup3\n        /* \"#utility.yul\":57421:57433   */\n      add\n        /* \"#utility.yul\":57414:57433   */\n      swap1\n      pop\n        /* \"#utility.yul\":57073:57439   */\n      swap2\n      swap1\n      pop\n      jump\t// out\n        /* \"#utility.yul\":57445:57864   */\n    tag_367:\n        /* \"#utility.yul\":57611:57615   */\n      0x00\n        /* \"#utility.yul\":57649:57651   */\n      0x20\n        /* \"#utility.yul\":57638:57647   */\n      dup3\n        /* \"#utility.yul\":57634:57652   */\n      add\n        /* \"#utility.yul\":57626:57652   */\n      swap1\n      pop\n        /* \"#utility.yul\":57698:57707   */\n      dup2\n        /* \"#utility.yul\":57692:57696   */\n      dup2\n        /* \"#utility.yul\":57688:57708   */\n      sub\n        /* \"#utility.yul\":57684:57685   */\n      0x00\n        /* \"#utility.yul\":57673:57682   */\n      dup4\n        /* \"#utility.yul\":57669:57686   */\n      add\n        /* \"#utility.yul\":57662:57709   */\n      mstore\n        /* \"#utility.yul\":57726:57857   */\n      tag_1017\n        /* \"#utility.yul\":57852:57856   */\n      dup2\n        /* \"#utility.yul\":57726:57857   */\n      tag_536\n      jump\t// in\n    tag_1017:\n        /* \"#utility.yul\":57718:57857   */\n      swap1\n      pop\n        /* \"#utility.yul\":57445:57864   */\n      swap2\n      swap1\n      pop\n      jump\t// out\n        /* \"#utility.yul\":57870:58045   */\n    tag_537:\n        /* \"#utility.yul\":58010:58037   */\n      0x4e616d65206c6973742063616e6e6f7420626520656d70747900000000000000\n        /* \"#utility.yul\":58006:58007   */\n      0x00\n        /* \"#utility.yul\":57998:58004   */\n      dup3\n        /* \"#utility.yul\":57994:58008   */\n      add\n        /* \"#utility.yul\":57987:58038   */\n      mstore\n        /* \"#utility.yul\":57870:58045   */\n      pop\n      jump\t// out\n        /* \"#utility.yul\":58051:58417   */\n    tag_538:\n        /* \"#utility.yul\":58193:58196   */\n      0x00\n        /* \"#utility.yul\":58214:58281   */\n      tag_1020\n        /* \"#utility.yul\":58278:58280   */\n      0x19\n        /* \"#utility.yul\":58273:58276   */\n      dup4\n        /* \"#utility.yul\":58214:58281   */\n      tag_450\n      jump\t// in\n    tag_1020:\n        /* \"#utility.yul\":58207:58281   */\n      swap2\n      pop\n        /* \"#utility.yul\":58290:58383   */\n      tag_1021\n        /* \"#utility.yul\":58379:58382   */\n      dup3\n        /* \"#utility.yul\":58290:58383   */\n      tag_537\n      jump\t// in\n    tag_1021:\n        /* \"#utility.yul\":58408:58410   */\n      0x20\n        /* \"#utility.yul\":58403:58406   */\n      dup3\n        /* \"#utility.yul\":58399:58411   */\n      add\n        /* \"#utility.yul\":58392:58411   */\n      swap1\n      pop\n        /* \"#utility.yul\":58051:58417   */\n      swap2\n      swap1\n      pop\n      jump\t// out\n        /* \"#utility.yul\":58423:58842   */\n    tag_375:\n        /* \"#utility.yul\":58589:58593   */\n      0x00\n        /* \"#utility.yul\":58627:58629   */\n      0x20\n        /* \"#utility.yul\":58616:58625   */\n      dup3\n        /* \"#utility.yul\":58612:58630   */\n      add\n        /* \"#utility.yul\":58604:58630   */\n      swap1\n      pop\n        /* \"#utility.yul\":58676:58685   */\n      dup2\n        /* \"#utility.yul\":58670:58674   */\n      dup2\n        /* \"#utility.yul\":58666:58686   */\n      sub\n        /* \"#utility.yul\":58662:58663   */\n      0x00\n        /* \"#utility.yul\":58651:58660   */\n      dup4\n        /* \"#utility.yul\":58647:58664   */\n      add\n        /* \"#utility.yul\":58640:58687   */\n      mstore\n        /* \"#utility.yul\":58704:58835   */\n      tag_1023\n        /* \"#utility.yul\":58830:58834   */\n      dup2\n        /* \"#utility.yul\":58704:58835   */\n      tag_538\n      jump\t// in\n    tag_1023:\n        /* \"#utility.yul\":58696:58835   */\n      swap1\n      pop\n        /* \"#utility.yul\":58423:58842   */\n      swap2\n      swap1\n      pop\n      jump\t// out\n        /* \"#utility.yul\":58848:59023   */\n    tag_539:\n        /* \"#utility.yul\":58988:59015   */\n      0x44657363206c6973742063616e6e6f7420626520656d70747900000000000000\n        /* \"#utility.yul\":58984:58985   */\n      0x00\n        /* \"#utility.yul\":58976:58982   */\n      dup3\n        /* \"#utility.yul\":58972:58986   */\n      add\n        /* \"#utility.yul\":58965:59016   */\n      mstore\n        /* \"#utility.yul\":58848:59023   */\n      pop\n      jump\t// out\n        /* \"#utility.yul\":59029:59395   */\n    tag_540:\n        /* \"#utility.yul\":59171:59174   */\n      0x00\n        /* \"#utility.yul\":59192:59259   */\n      tag_1026\n        /* \"#utility.yul\":59256:59258   */\n      0x19\n        /* \"#utility.yul\":59251:59254   */\n      dup4\n        /* \"#utility.yul\":59192:59259   */\n      tag_450\n      jump\t// in\n    tag_1026:\n        /* \"#utility.yul\":59185:59259   */\n      swap2\n      pop\n        /* \"#utility.yul\":59268:59361   */\n      tag_1027\n        /* \"#utility.yul\":59357:59360   */\n      dup3\n        /* \"#utility.yul\":59268:59361   */\n      tag_539\n      jump\t// in\n    tag_1027:\n        /* \"#utility.yul\":59386:59388   */\n      0x20\n        /* \"#utility.yul\":59381:59384   */\n      dup3\n        /* \"#utility.yul\":59377:59389   */\n      add\n        /* \"#utility.yul\":59370:59389   */\n      swap1\n      pop\n        /* \"#utility.yul\":59029:59395   */\n      swap2\n      swap1\n      pop\n      jump\t// out\n        /* \"#utility.yul\":59401:59820   */\n    tag_383:\n        /* \"#utility.yul\":59567:59571   */\n      0x00\n        /* \"#utility.yul\":59605:59607   */\n      0x20\n        /* \"#utility.yul\":59594:59603   */\n      dup3\n        /* \"#utility.yul\":59590:59608   */\n      add\n        /* \"#utility.yul\":59582:59608   */\n      swap1\n      pop\n        /* \"#utility.yul\":59654:59663   */\n      dup2\n        /* \"#utility.yul\":59648:59652   */\n      dup2\n        /* \"#utility.yul\":59644:59664   */\n      sub\n        /* \"#utility.yul\":59640:59641   */\n      0x00\n        /* \"#utility.yul\":59629:59638   */\n      dup4\n        /* \"#utility.yul\":59625:59642   */\n      add\n        /* \"#utility.yul\":59618:59665   */\n      mstore\n        /* \"#utility.yul\":59682:59813   */\n      tag_1029\n        /* \"#utility.yul\":59808:59812   */\n      dup2\n        /* \"#utility.yul\":59682:59813   */\n      tag_540\n      jump\t// in\n    tag_1029:\n        /* \"#utility.yul\":59674:59813   */\n      swap1\n      pop\n        /* \"#utility.yul\":59401:59820   */\n      swap2\n      swap1\n      pop\n      jump\t// out\n\n    auxdata: 0xa2646970667358221220dfa35dccde0a23c5782bfe3bec72b1330fda5dea611ce6ba898d93bdd884aaee64736f6c634300081a0033\n}\n",
				"bytecode": {
					"linkReferences": {},
					"object": "608060405234801561000f575f80fd5b50335f806101000a81548173ffffffffffffffffffffffffffffffffffffffff021916908373ffffffffffffffffffffffffffffffffffffffff1602179055505f6001819055505f600281905550600160035f3373ffffffffffffffffffffffffffffffffffffffff1673ffffffffffffffffffffffffffffffffffffffff1681526020019081526020015f205f6101000a81548160ff0219169083151502179055503373ffffffffffffffffffffffffffffffffffffffff167f3cbcbb9ba5a54d0762f39fd455fd2900fbcfcd0e0693e2c87db13043c400b55f60405160405180910390a26146b1806101025f395ff3fe608060405234801561000f575f80fd5b506004361061011f575f3560e01c80638fbd0dcf116100ab578063b9db15b41161006f578063b9db15b41461034b578063c5f8d5841461037f578063cf9cd6691461039b578063e0f6ef87146103cb578063f5f34413146103e95761011f565b80638fbd0dcf1461027f5780639ce0f9731461029b5780639ffaa71e146102b7578063af55ed64146102e7578063b32c4d8d146103175761011f565b80637acc0b20116100f25780637acc0b20146101c457806386734e5b146101f957806386b0e812146102155780638d28230b146102315780638da5cb5b146102615761011f565b8063043414221461012357806306f130561461013f5780633c9af5871461015d5780635ac442821461018d575b5f80fd5b61013d60048036038101906101389190612b9b565b610405565b005b6101476105a1565b6040516101549190612c04565b60405180910390f35b61017760048036038101906101729190612c1d565b6105a7565b6040516101849190612c62565b60405180910390f35b6101a760048036038101906101a29190612c1d565b6107be565b6040516101bb989796959493929190612ed4565b60405180910390f35b6101de60048036038101906101d99190612c1d565b610b3c565b6040516101f096959493929190612f6c565b60405180910390f35b610213600480360381019061020e9190613003565b610cab565b005b61022f600480360381019061022a919061309f565b61159e565b005b61024b600480360381019061024691906130dd565b611972565b6040516102589190612c62565b60405180910390f35b61026961198f565b6040516102769190613108565b60405180910390f35b61029960048036038101906102949190613121565b6119b2565b005b6102b560048036038101906102b09190612b9b565b611c4d565b005b6102d160048036038101906102cc9190612c1d565b611de7565b6040516102de9190612c62565b60405180910390f35b61030160048036038101906102fc9190612c1d565b611e15565b60405161030e9190612c62565b60405180910390f35b610331600480360381019061032c9190612c1d565b611e66565b604051610342959493929190613197565b60405180910390f35b61036560048036038101906103609190612c1d565b611f4a565b6040516103769594939291906131ef565b60405180910390f35b610399600480360381019061039491906130dd565b61213d565b005b6103b560048036038101906103b09190612c1d565b61235d565b6040516103c29190613247565b60405180910390f35b6103d3612434565b6040516103e09190612c04565b60405180910390f35b61040360048036038101906103fe9190613409565b61243a565b005b60035f3373ffffffffffffffffffffffffffffffffffffffff1673ffffffffffffffffffffffffffffffffffffffff1681526020019081526020015f205f9054906101000a900460ff1661048e576040517f08c379a000000000000000000000000000000000000000000000000000000000815260040161048590613527565b60405180910390fd5b61049782611de7565b6104d6576040517f08c379a00000000000000000000000000000000000000000000000000000000081526004016104cd9061358f565b60405180910390fd5b5f60055f8481526020019081526020015f209050806005015f9054906101000a900460ff161561053b576040517f08c379a0000000000000000000000000000000000000000000000000000000008152600401610532906135f7565b60405180910390fd5b5f5b815f018054905081101561057f57610572825f01828154811061056357610562613615565b5b905f5260205f20015484611c4d565b808060010191505061053d565b506001816005015f6101000a81548160ff021916908315150217905550505050565b60025481565b5f6105b182611e15565b6105f0576040517f08c379a00000000000000000000000000000000000000000000000000000000081526004016105e79061368c565b60405180910390fd5b5f60045f8481526020019081526020015f206040518060c00160405290815f8201548152602001600182018054610626906136d7565b80601f0160208091040260200160405190810160405280929190818152602001828054610652906136d7565b801561069d5780601f106106745761010080835404028352916020019161069d565b820191905f5260205f20905b81548152906001019060200180831161068057829003601f168201915b505050505081526020016002820180546106b6906136d7565b80601f01602080910402602001604051908101604052809291908181526020018280546106e2906136d7565b801561072d5780601f106107045761010080835404028352916020019161072d565b820191905f5260205f20905b81548152906001019060200180831161071057829003601f168201915b50505050508152602001600382015f9054906101000a900473ffffffffffffffffffffffffffffffffffffffff1673ffffffffffffffffffffffffffffffffffffffff1673ffffffffffffffffffffffffffffffffffffffff16815260200160048201548152602001600582015f9054906101000a900460ff16151515158152505090508060a00151915050919050565b60608060605f805f8060605f60055f8b81526020019081526020015f20604051806101000160405290815f820180548060200260200160405190810160405280929190818152602001828054801561083357602002820191905f5260205f20905b81548152602001906001019080831161081f575b5050505050815260200160018201805480602002602001604051908101604052809291908181526020015f905b82821015610908578382905f5260205f2001805461087d906136d7565b80601f01602080910402602001604051908101604052809291908181526020018280546108a9906136d7565b80156108f45780601f106108cb576101008083540402835291602001916108f4565b820191905f5260205f20905b8154815290600101906020018083116108d757829003601f168201915b505050505081526020019060010190610860565b50505050815260200160028201805480602002602001604051908101604052809291908181526020015f905b828210156109dc578382905f5260205f20018054610951906136d7565b80601f016020809104026020016040519081016040528092919081815260200182805461097d906136d7565b80156109c85780601f1061099f576101008083540402835291602001916109c8565b820191905f5260205f20905b8154815290600101906020018083116109ab57829003601f168201915b505050505081526020019060010190610934565b505050508152602001600382015f9054906101000a900473ffffffffffffffffffffffffffffffffffffffff1673ffffffffffffffffffffffffffffffffffffffff1673ffffffffffffffffffffffffffffffffffffffff16815260200160048201548152602001600582015f9054906101000a900460ff1615151515815260200160068201548152602001600782018054610a77906136d7565b80601f0160208091040260200160405190810160405280929190818152602001828054610aa3906136d7565b8015610aee5780601f10610ac557610100808354040283529160200191610aee565b820191905f5260205f20905b815481529060010190602001808311610ad157829003601f168201915b5050505050815250509050805f015181602001518260400151836060015184608001518560a001518660c001518760e001519850985098509850985098509850985050919395975091939597565b6004602052805f5260405f205f91509050805f015490806001018054610b61906136d7565b80601f0160208091040260200160405190810160405280929190818152602001828054610b8d906136d7565b8015610bd85780601f10610baf57610100808354040283529160200191610bd8565b820191905f5260205f20905b815481529060010190602001808311610bbb57829003601f168201915b505050505090806002018054610bed906136d7565b80601f0160208091040260200160405190810160405280929190818152602001828054610c19906136d7565b8015610c645780601f10610c3b57610100808354040283529160200191610c64565b820191905f5260205f20905b815481529060010190602001808311610c4757829003601f168201915b505050505090806003015f9054906101000a900473ffffffffffffffffffffffffffffffffffffffff1690806004015490806005015f9054906101000a900460ff16905086565b60035f3373ffffffffffffffffffffffffffffffffffffffff1673ffffffffffffffffffffffffffffffffffffffff1681526020019081526020015f205f9054906101000a900460ff16610d34576040517f08c379a0000000000000000000000000000000000000000000000000000000008152600401610d2b90613527565b60405180910390fd5b5f60055f8681526020019081526020015f206006015403610d8a576040517f08c379a0000000000000000000000000000000000000000000000000000000008152600401610d819061358f565b60405180910390fd5b60055f8581526020019081526020015f206005015f9054906101000a900460ff1615610deb576040517f08c379a0000000000000000000000000000000000000000000000000000000008152600401610de290613751565b60405180910390fd5b5f73ffffffffffffffffffffffffffffffffffffffff168373ffffffffffffffffffffffffffffffffffffffff1603610e59576040517f08c379a0000000000000000000000000000000000000000000000000000000008152600401610e50906137b9565b60405180910390fd5b604051602001610e689061382b565b6040516020818303038152906040528051906020012082604051602001610e8f919061386f565b60405160208183030381529060405280519060200120036112e1575f60055f8681526020019081526020015f205f018054905014610f02576040517f08c379a0000000000000000000000000000000000000000000000000000000008152600401610ef9906138f5565b60405180910390fd5b5f60055f8681526020019081526020015f206001018054905067ffffffffffffffff811115610f3457610f33612a77565b5b604051908082528060200260200182016040528015610f625781602001602082028036833780820191505090505b5090505f5b60055f8781526020019081526020015f20600101805490508110156112b25760015f815480929190610f9890613940565b9190505550600154828281518110610fb357610fb2613615565b5b6020026020010181815250506040518060c00160405280600154815260200160055f8981526020019081526020015f206001018381548110610ff857610ff7613615565b5b905f5260205f2001805461100b906136d7565b80601f0160208091040260200160405190810160405280929190818152602001828054611037906136d7565b80156110825780601f1061105957610100808354040283529160200191611082565b820191905f5260205f20905b81548152906001019060200180831161106557829003601f168201915b5050505050815260200160055f8981526020019081526020015f2060020183815481106110b2576110b1613615565b5b905f5260205f200180546110c5906136d7565b80601f01602080910402602001604051908101604052809291908181526020018280546110f1906136d7565b801561113c5780601f106111135761010080835404028352916020019161113c565b820191905f5260205f20905b81548152906001019060200180831161111f57829003601f168201915b505050505081526020018673ffffffffffffffffffffffffffffffffffffffff1681526020014281526020015f151581525060045f60015481526020019081526020015f205f820151815f0155602082015181600101908161119e9190613b24565b5060408201518160020190816111b49190613b24565b506060820151816003015f6101000a81548173ffffffffffffffffffffffffffffffffffffffff021916908373ffffffffffffffffffffffffffffffffffffffff1602179055506080820151816004015560a0820151816005015f6101000a81548160ff0219169083151502179055509050508473ffffffffffffffffffffffffffffffffffffffff166001547f0cab8542fad5393d8a674ae5bb9094c309e41fdf2bf941b1d4a44fb4a790ff1c60055f8a81526020019081526020015f20600101848154811061128857611287613615565b5b905f5260205f200160405161129d9190613c74565b60405180910390a38080600101915050610f67565b508060055f8781526020019081526020015f205f0190805190602001906112da9291906128fe565b505061154d565b6040516020016112f090613cde565b6040516020818303038152906040528051906020012082604051602001611317919061386f565b6040516020818303038152906040528051906020012003611478575f5b60055f8681526020019081526020015f205f01805490508110156113965761138960055f8781526020019081526020015f205f01828154811061137a57611379613615565b5b905f5260205f2001548561159e565b8080600101915050611334565b505f60055f8681526020019081526020015f206003015f9054906101000a900473ffffffffffffffffffffffffffffffffffffffff1690504260055f8781526020019081526020015f20600401819055508360055f8781526020019081526020015f206003015f6101000a81548173ffffffffffffffffffffffffffffffffffffffff021916908373ffffffffffffffffffffffffffffffffffffffff1602179055507f68e04257b55466ad5273799ac2b8d9d926b5e87d7f301e15ea0d73c8d7f3ee4c818560405161146a929190613cf2565b60405180910390a15061154c565b60405160200161148790613d63565b60405160208183030381529060405280519060200120826040516020016114ae919061386f565b6040516020818303038152906040528051906020012003611510576114d38482610405565b837f8f8994662430cbb3a0b089f812f1c51f46ef020e2ccc019cee8988c3312b4a66826040516115039190613247565b60405180910390a261154b565b6040517f08c379a000000000000000000000000000000000000000000000000000000000815260040161154290613dc1565b60405180910390fd5b5b5b837f603489d1e5e10e7b7393a68b1707e0b98e7976704197482dc200a6b34674b54a60055f8781526020019081526020015f206007016040516115909190613c74565b60405180910390a250505050565b60035f3373ffffffffffffffffffffffffffffffffffffffff1673ffffffffffffffffffffffffffffffffffffffff1681526020019081526020015f205f9054906101000a900460ff16611627576040517f08c379a000000000000000000000000000000000000000000000000000000000815260040161161e90613527565b60405180910390fd5b5f8211801561163857506001548211155b611677576040517f08c379a000000000000000000000000000000000000000000000000000000000815260040161166e90613e29565b60405180910390fd5b60045f8381526020019081526020015f206005015f9054906101000a900460ff16156116d8576040517f08c379a00000000000000000000000000000000000000000000000000000000081526004016116cf90613eb7565b60405180910390fd5b5f73ffffffffffffffffffffffffffffffffffffffff168173ffffffffffffffffffffffffffffffffffffffff1603611746576040517f08c379a000000000000000000000000000000000000000000000000000000000815260040161173d90613f1f565b60405180910390fd5b60035f8273ffffffffffffffffffffffffffffffffffffffff1673ffffffffffffffffffffffffffffffffffffffff1681526020019081526020015f205f9054906101000a900460ff166117cf576040517f08c379a00000000000000000000000000000000000000000000000000000000081526004016117c690613f87565b60405180910390fd5b3373ffffffffffffffffffffffffffffffffffffffff1660045f8481526020019081526020015f206003015f9054906101000a900473ffffffffffffffffffffffffffffffffffffffff1673ffffffffffffffffffffffffffffffffffffffff1614611870576040517f08c379a000000000000000000000000000000000000000000000000000000000815260040161186790613fef565b60405180910390fd5b5f60045f8481526020019081526020015f206003015f9054906101000a900473ffffffffffffffffffffffffffffffffffffffff1690508160045f8581526020019081526020015f206003015f6101000a81548173ffffffffffffffffffffffffffffffffffffffff021916908373ffffffffffffffffffffffffffffffffffffffff1602179055504260045f8581526020019081526020015f20600401819055508173ffffffffffffffffffffffffffffffffffffffff168173ffffffffffffffffffffffffffffffffffffffff16847f16b85f49bf01212961345d3016c9a531894accf62eb7680f2045d79185cc0ec060405160405180910390a4505050565b6003602052805f5260405f205f915054906101000a900460ff1681565b5f8054906101000a900473ffffffffffffffffffffffffffffffffffffffff1681565b60035f3373ffffffffffffffffffffffffffffffffffffffff1673ffffffffffffffffffffffffffffffffffffffff1681526020019081526020015f205f9054906101000a900460ff16611a3b576040517f08c379a0000000000000000000000000000000000000000000000000000000008152600401611a3290613527565b60405180910390fd5b5f825111611a7e576040517f08c379a0000000000000000000000000000000000000000000000000000000008152600401611a7590614057565b60405180910390fd5b5f815111611ac1576040517f08c379a0000000000000000000000000000000000000000000000000000000008152600401611ab8906140bf565b60405180910390fd5b60015f815480929190611ad390613940565b91905055505f60015490506040518060c001604052808281526020018481526020018381526020013373ffffffffffffffffffffffffffffffffffffffff1681526020014281526020015f151581525060045f8381526020019081526020015f205f820151815f01556020820151816001019081611b519190613b24565b506040820151816002019081611b679190613b24565b506060820151816003015f6101000a81548173ffffffffffffffffffffffffffffffffffffffff021916908373ffffffffffffffffffffffffffffffffffffffff1602179055506080820151816004015560a0820151816005015f6101000a81548160ff0219169083151502179055509050505f8054906101000a900473ffffffffffffffffffffffffffffffffffffffff1673ffffffffffffffffffffffffffffffffffffffff16817f0cab8542fad5393d8a674ae5bb9094c309e41fdf2bf941b1d4a44fb4a790ff1c85604051611c409190613247565b60405180910390a3505050565b60035f3373ffffffffffffffffffffffffffffffffffffffff1673ffffffffffffffffffffffffffffffffffffffff1681526020019081526020015f205f9054906101000a900460ff16611cd6576040517f08c379a0000000000000000000000000000000000000000000000000000000008152600401611ccd90613527565b60405180910390fd5b611cdf82611e15565b611d1e576040517f08c379a0000000000000000000000000000000000000000000000000000000008152600401611d1590614127565b60405180910390fd5b60045f8381526020019081526020015f206005015f9054906101000a900460ff1615611d7f576040517f08c379a0000000000000000000000000000000000000000000000000000000008152600401611d769061418f565b60405180910390fd5b600160045f8481526020019081526020015f206005015f6101000a81548160ff021916908315150217905550817fcf945375036ee1ff64a8885b9c36844ac503b07ad7b0b3b78d023eb0a4cc623c82604051611ddb9190613247565b60405180910390a25050565b5f8060055f8481526020019081526020015f206006015414611e0c5760019050611e10565b5f90505b919050565b5f80600190505b6001548111611e5c578260045f8381526020019081526020015f205f015403611e49576001915050611e61565b8080611e5490613940565b915050611e1c565b505f90505b919050565b6005602052805f5260405f205f91509050806003015f9054906101000a900473ffffffffffffffffffffffffffffffffffffffff1690806004015490806005015f9054906101000a900460ff1690806006015490806007018054611ec9906136d7565b80601f0160208091040260200160405190810160405280929190818152602001828054611ef5906136d7565b8015611f405780601f10611f1757610100808354040283529160200191611f40565b820191905f5260205f20905b815481529060010190602001808311611f2357829003601f168201915b5050505050905085565b5f60605f805f8060045f8881526020019081526020015f206040518060c00160405290815f8201548152602001600182018054611f86906136d7565b80601f0160208091040260200160405190810160405280929190818152602001828054611fb2906136d7565b8015611ffd5780601f10611fd457610100808354040283529160200191611ffd565b820191905f5260205f20905b815481529060010190602001808311611fe057829003601f168201915b50505050508152602001600282018054612016906136d7565b80601f0160208091040260200160405190810160405280929190818152602001828054612042906136d7565b801561208d5780601f106120645761010080835404028352916020019161208d565b820191905f5260205f20905b81548152906001019060200180831161207057829003601f168201915b50505050508152602001600382015f9054906101000a900473ffffffffffffffffffffffffffffffffffffffff1673ffffffffffffffffffffffffffffffffffffffff1673ffffffffffffffffffffffffffffffffffffffff16815260200160048201548152602001600582015f9054906101000a900460ff1615151515815250509050805f01518160200151826060015183608001518460a00151955095509550955095505091939590929450565b5f8054906101000a900473ffffffffffffffffffffffffffffffffffffffff1673ffffffffffffffffffffffffffffffffffffffff163373ffffffffffffffffffffffffffffffffffffffff16146121ca576040517f08c379a00000000000000000000000000000000000000000000000000000000081526004016121c1906141f7565b60405180910390fd5b5f73ffffffffffffffffffffffffffffffffffffffff168173ffffffffffffffffffffffffffffffffffffffff1603612238576040517f08c379a000000000000000000000000000000000000000000000000000000000815260040161222f9061425f565b60405180910390fd5b60035f8273ffffffffffffffffffffffffffffffffffffffff1673ffffffffffffffffffffffffffffffffffffffff1681526020019081526020015f205f9054906101000a900460ff16156122c2576040517f08c379a00000000000000000000000000000000000000000000000000000000081526004016122b9906142c7565b60405180910390fd5b600160035f8373ffffffffffffffffffffffffffffffffffffffff1673ffffffffffffffffffffffffffffffffffffffff1681526020019081526020015f205f6101000a81548160ff0219169083151502179055508073ffffffffffffffffffffffffffffffffffffffff167f3cbcbb9ba5a54d0762f39fd455fd2900fbcfcd0e0693e2c87db13043c400b55f60405160405180910390a250565b6060600182036123a4576040518060400160405280600e81526020017f7265736769737465724261746368000000000000000000000000000000000000815250905061242f565b600282036123e9576040518060400160405280600d81526020017f7472616e73666572426174636800000000000000000000000000000000000000815250905061242f565b6003820361242e576040518060400160405280600b81526020017f726563616c6c4261746368000000000000000000000000000000000000000000815250905061242f565b5b919050565b60015481565b60035f3373ffffffffffffffffffffffffffffffffffffffff1673ffffffffffffffffffffffffffffffffffffffff1681526020019081526020015f205f9054906101000a900460ff166124c3576040517f08c379a00000000000000000000000000000000000000000000000000000000081526004016124ba90613527565b60405180910390fd5b6040516020016124d29061382b565b60405160208183030381529060405280519060200120816040516020016124f9919061386f565b60405160208183030381529060405280519060200120036125a0575f845114612557576040517f08c379a000000000000000000000000000000000000000000000000000000000815260040161254e90614355565b60405180910390fd5b815183511461259b576040517f08c379a0000000000000000000000000000000000000000000000000000000008152600401612592906143e3565b60405180910390fd5b61266c565b5f8451116125e3576040517f08c379a00000000000000000000000000000000000000000000000000000000081526004016125da90614471565b60405180910390fd5b8251845114612627576040517f08c379a000000000000000000000000000000000000000000000000000000000815260040161261e906144ff565b60405180910390fd5b815184511461266b576040517f08c379a00000000000000000000000000000000000000000000000000000000081526004016126629061458d565b60405180910390fd5b5b5f5b83518110156126e1575f84828151811061268b5761268a613615565b5b602002602001015151116126d4576040517f08c379a00000000000000000000000000000000000000000000000000000000081526004016126cb906145f5565b60405180910390fd5b808060010191505061266e565b505f5b8251811015612757575f83828151811061270157612700613615565b5b6020026020010151511161274a576040517f08c379a00000000000000000000000000000000000000000000000000000000081526004016127419061465d565b60405180910390fd5b80806001019150506126e4565b5060025f81548092919061276a90613940565b91905055505f60025490506040518061010001604052808681526020018581526020018481526020013373ffffffffffffffffffffffffffffffffffffffff1681526020014281526020015f151581526020018281526020018381525060055f8381526020019081526020015f205f820151815f0190805190602001906127f29291906128fe565b50602082015181600101908051906020019061280f929190612949565b50604082015181600201908051906020019061282c929190612949565b506060820151816003015f6101000a81548173ffffffffffffffffffffffffffffffffffffffff021916908373ffffffffffffffffffffffffffffffffffffffff1602179055506080820151816004015560a0820151816005015f6101000a81548160ff02191690831515021790555060c0820151816006015560e08201518160070190816128bb9190613b24565b50905050807f97ff4eb42b5af6ff38cafbfad77979b7fbe233bb58b2cb81eb38859456a133fd836040516128ef9190613247565b60405180910390a25050505050565b828054828255905f5260205f20908101928215612938579160200282015b8281111561293757825182559160200191906001019061291c565b5b50905061294591906129a0565b5090565b828054828255905f5260205f2090810192821561298f579160200282015b8281111561298e57825182908161297e9190613b24565b5091602001919060010190612967565b5b50905061299c91906129bb565b5090565b5b808211156129b7575f815f9055506001016129a1565b5090565b5b808211156129da575f81816129d191906129de565b506001016129bc565b5090565b5080546129ea906136d7565b5f825580601f106129fb5750612a18565b601f0160209004905f5260205f2090810190612a1791906129a0565b5b50565b5f604051905090565b5f80fd5b5f80fd5b5f819050919050565b612a3e81612a2c565b8114612a48575f80fd5b50565b5f81359050612a5981612a35565b92915050565b5f80fd5b5f80fd5b5f601f19601f8301169050919050565b7f4e487b71000000000000000000000000000000000000000000000000000000005f52604160045260245ffd5b612aad82612a67565b810181811067ffffffffffffffff82111715612acc57612acb612a77565b5b80604052505050565b5f612ade612a1b565b9050612aea8282612aa4565b919050565b5f67ffffffffffffffff821115612b0957612b08612a77565b5b612b1282612a67565b9050602081019050919050565b828183375f83830152505050565b5f612b3f612b3a84612aef565b612ad5565b905082815260208101848484011115612b5b57612b5a612a63565b5b612b66848285612b1f565b509392505050565b5f82601f830112612b8257612b81612a5f565b5b8135612b92848260208601612b2d565b91505092915050565b5f8060408385031215612bb157612bb0612a24565b5b5f612bbe85828601612a4b565b925050602083013567ffffffffffffffff811115612bdf57612bde612a28565b5b612beb85828601612b6e565b9150509250929050565b612bfe81612a2c565b82525050565b5f602082019050612c175f830184612bf5565b92915050565b5f60208284031215612c3257612c31612a24565b5b5f612c3f84828501612a4b565b91505092915050565b5f8115159050919050565b612c5c81612c48565b82525050565b5f602082019050612c755f830184612c53565b92915050565b5f81519050919050565b5f82825260208201905092915050565b5f819050602082019050919050565b612cad81612a2c565b82525050565b5f612cbe8383612ca4565b60208301905092915050565b5f602082019050919050565b5f612ce082612c7b565b612cea8185612c85565b9350612cf583612c95565b805f5b83811015612d25578151612d0c8882612cb3565b9750612d1783612cca565b925050600181019050612cf8565b5085935050505092915050565b5f81519050919050565b5f82825260208201905092915050565b5f819050602082019050919050565b5f81519050919050565b5f82825260208201905092915050565b8281835e5f83830152505050565b5f612d8d82612d5b565b612d978185612d65565b9350612da7818560208601612d75565b612db081612a67565b840191505092915050565b5f612dc68383612d83565b905092915050565b5f602082019050919050565b5f612de482612d32565b612dee8185612d3c565b935083602082028501612e0085612d4c565b805f5b85811015612e3b5784840389528151612e1c8582612dbb565b9450612e2783612dce565b925060208a01995050600181019050612e03565b50829750879550505050505092915050565b5f73ffffffffffffffffffffffffffffffffffffffff82169050919050565b5f612e7682612e4d565b9050919050565b612e8681612e6c565b82525050565b5f82825260208201905092915050565b5f612ea682612d5b565b612eb08185612e8c565b9350612ec0818560208601612d75565b612ec981612a67565b840191505092915050565b5f610100820190508181035f830152612eed818b612cd6565b90508181036020830152612f01818a612dda565b90508181036040830152612f158189612dda565b9050612f246060830188612e7d565b612f316080830187612bf5565b612f3e60a0830186612c53565b612f4b60c0830185612bf5565b81810360e0830152612f5d8184612e9c565b90509998505050505050505050565b5f60c082019050612f7f5f830189612bf5565b8181036020830152612f918188612e9c565b90508181036040830152612fa58187612e9c565b9050612fb46060830186612e7d565b612fc16080830185612bf5565b612fce60a0830184612c53565b979650505050505050565b612fe281612e6c565b8114612fec575f80fd5b50565b5f81359050612ffd81612fd9565b92915050565b5f805f806080858703121561301b5761301a612a24565b5b5f61302887828801612a4b565b945050602061303987828801612fef565b935050604085013567ffffffffffffffff81111561305a57613059612a28565b5b61306687828801612b6e565b925050606085013567ffffffffffffffff81111561308757613086612a28565b5b61309387828801612b6e565b91505092959194509250565b5f80604083850312156130b5576130b4612a24565b5b5f6130c285828601612a4b565b92505060206130d385828601612fef565b9150509250929050565b5f602082840312156130f2576130f1612a24565b5b5f6130ff84828501612fef565b91505092915050565b5f60208201905061311b5f830184612e7d565b92915050565b5f806040838503121561313757613136612a24565b5b5f83013567ffffffffffffffff81111561315457613153612a28565b5b61316085828601612b6e565b925050602083013567ffffffffffffffff81111561318157613180612a28565b5b61318d85828601612b6e565b9150509250929050565b5f60a0820190506131aa5f830188612e7d565b6131b76020830187612bf5565b6131c46040830186612c53565b6131d16060830185612bf5565b81810360808301526131e38184612e9c565b90509695505050505050565b5f60a0820190506132025f830188612bf5565b81810360208301526132148187612e9c565b90506132236040830186612e7d565b6132306060830185612bf5565b61323d6080830184612c53565b9695505050505050565b5f6020820190508181035f83015261325f8184612e9c565b905092915050565b5f67ffffffffffffffff82111561328157613280612a77565b5b602082029050602081019050919050565b5f80fd5b5f6132a86132a384613267565b612ad5565b905080838252602082019050602084028301858111156132cb576132ca613292565b5b835b818110156132f457806132e08882612a4b565b8452602084019350506020810190506132cd565b5050509392505050565b5f82601f83011261331257613311612a5f565b5b8135613322848260208601613296565b91505092915050565b5f67ffffffffffffffff82111561334557613344612a77565b5b602082029050602081019050919050565b5f6133686133638461332b565b612ad5565b9050808382526020820190506020840283018581111561338b5761338a613292565b5b835b818110156133d257803567ffffffffffffffff8111156133b0576133af612a5f565b5b8086016133bd8982612b6e565b8552602085019450505060208101905061338d565b5050509392505050565b5f82601f8301126133f0576133ef612a5f565b5b8135613400848260208601613356565b91505092915050565b5f805f806080858703121561342157613420612a24565b5b5f85013567ffffffffffffffff81111561343e5761343d612a28565b5b61344a878288016132fe565b945050602085013567ffffffffffffffff81111561346b5761346a612a28565b5b613477878288016133dc565b935050604085013567ffffffffffffffff81111561349857613497612a28565b5b6134a4878288016133dc565b925050606085013567ffffffffffffffff8111156134c5576134c4612a28565b5b6134d187828801612b6e565b91505092959194509250565b7f4e6f7420617574686f72697a65640000000000000000000000000000000000005f82015250565b5f613511600e83612e8c565b915061351c826134dd565b602082019050919050565b5f6020820190508181035f83015261353e81613505565b9050919050565b7f426174636820646f65736e2774206578697374000000000000000000000000005f82015250565b5f613579601383612e8c565b915061358482613545565b602082019050919050565b5f6020820190508181035f8301526135a68161356d565b9050919050565b7f426174636820616c726561647920726563616c6c6564000000000000000000005f82015250565b5f6135e1601683612e8c565b91506135ec826135ad565b602082019050919050565b5f6020820190508181035f83015261360e816135d5565b9050919050565b7f4e487b71000000000000000000000000000000000000000000000000000000005f52603260045260245ffd5b7f497420646f65736e7420657869737473000000000000000000000000000000005f82015250565b5f613676601083612e8c565b915061368182613642565b602082019050919050565b5f6020820190508181035f8301526136a38161366a565b9050919050565b7f4e487b71000000000000000000000000000000000000000000000000000000005f52602260045260245ffd5b5f60028204905060018216806136ee57607f821691505b602082108103613701576137006136aa565b5b50919050565b7f426174636820697320726563616c6c65640000000000000000000000000000005f82015250565b5f61373b601183612e8c565b915061374682613707565b602082019050919050565b5f6020820190508181035f8301526137688161372f565b9050919050565b7f6e65774f776e65722063616e742062652061207a65726f2061646472657373005f82015250565b5f6137a3601f83612e8c565b91506137ae8261376f565b602082019050919050565b5f6020820190508181035f8301526137d081613797565b9050919050565b5f81905092915050565b7f72656769737465724261746368000000000000000000000000000000000000005f82015250565b5f613815600d836137d7565b9150613820826137e1565b600d82019050919050565b5f61383582613809565b9150819050919050565b5f61384982612d5b565b61385381856137d7565b9350613863818560208601612d75565b80840191505092915050565b5f61387a828461383f565b915081905092915050565b7f426174636820494473206d75737420626520656d70747920666f7220726567695f8201527f7374726174696f6e000000000000000000000000000000000000000000000000602082015250565b5f6138df602883612e8c565b91506138ea82613885565b604082019050919050565b5f6020820190508181035f83015261390c816138d3565b9050919050565b7f4e487b71000000000000000000000000000000000000000000000000000000005f52601160045260245ffd5b5f61394a82612a2c565b91507fffffffffffffffffffffffffffffffffffffffffffffffffffffffffffffffff820361397c5761397b613913565b5b600182019050919050565b5f819050815f5260205f209050919050565b5f6020601f8301049050919050565b5f82821b905092915050565b5f600883026139e37fffffffffffffffffffffffffffffffffffffffffffffffffffffffffffffffff826139a8565b6139ed86836139a8565b95508019841693508086168417925050509392505050565b5f819050919050565b5f613a28613a23613a1e84612a2c565b613a05565b612a2c565b9050919050565b5f819050919050565b613a4183613a0e565b613a55613a4d82613a2f565b8484546139b4565b825550505050565b5f90565b613a69613a5d565b613a74818484613a38565b505050565b5b81811015613a9757613a8c5f82613a61565b600181019050613a7a565b5050565b601f821115613adc57613aad81613987565b613ab684613999565b81016020851015613ac5578190505b613ad9613ad185613999565b830182613a79565b50505b505050565b5f82821c905092915050565b5f613afc5f1984600802613ae1565b1980831691505092915050565b5f613b148383613aed565b9150826002028217905092915050565b613b2d82612d5b565b67ffffffffffffffff811115613b4657613b45612a77565b5b613b5082546136d7565b613b5b828285613a9b565b5f60209050601f831160018114613b8c575f8415613b7a578287015190505b613b848582613b09565b865550613beb565b601f198416613b9a86613987565b5f5b82811015613bc157848901518255600182019150602085019450602081019050613b9c565b86831015613bde5784890151613bda601f891682613aed565b8355505b6001600288020188555050505b505050505050565b5f8154613bff816136d7565b613c098186612e8c565b9450600182165f8114613c235760018114613c3957613c6b565b60ff198316865281151560200286019350613c6b565b613c4285613987565b5f5b83811015613c6357815481890152600182019150602081019050613c44565b808801955050505b50505092915050565b5f6020820190508181035f830152613c8c8184613bf3565b905092915050565b7f7472616e736665724261746368000000000000000000000000000000000000005f82015250565b5f613cc8600d836137d7565b9150613cd382613c94565b600d82019050919050565b5f613ce882613cbc565b9150819050919050565b5f604082019050613d055f830185612e7d565b613d126020830184612e7d565b9392505050565b7f726563616c6c42617463680000000000000000000000000000000000000000005f82015250565b5f613d4d600b836137d7565b9150613d5882613d19565b600b82019050919050565b5f613d6d82613d41565b9150819050919050565b7f496e76616c6964206f7065726174696f6e0000000000000000000000000000005f82015250565b5f613dab601183612e8c565b9150613db682613d77565b602082019050919050565b5f6020820190508181035f830152613dd881613d9f565b9050919050565b7f496e76616c69642070726f6475637420494400000000000000000000000000005f82015250565b5f613e13601283612e8c565b9150613e1e82613ddf565b602082019050919050565b5f6020820190508181035f830152613e4081613e07565b9050919050565b7f526563616c6c65642070726f64756374732063616e6e6f74206265207472616e5f8201527f7366657272656400000000000000000000000000000000000000000000000000602082015250565b5f613ea1602783612e8c565b9150613eac82613e47565b604082019050919050565b5f6020820190508181035f830152613ece81613e95565b9050919050565b7f496e76616c6964206e6577206f776e65722061646472657373000000000000005f82015250565b5f613f09601983612e8c565b9150613f1482613ed5565b602082019050919050565b5f6020820190508181035f830152613f3681613efd565b9050919050565b7f4e6577206f776e6572206973206e6f7420617574686f72697a656400000000005f82015250565b5f613f71601b83612e8c565b9150613f7c82613f3d565b602082019050919050565b5f6020820190508181035f830152613f9e81613f65565b9050919050565b7f4f6e6c792063757272656e74206f776e65722063616e207472616e73666572005f82015250565b5f613fd9601f83612e8c565b9150613fe482613fa5565b602082019050919050565b5f6020820190508181035f83015261400681613fcd565b9050919050565b7f4e616d652063616e6e6f7420626520656d7074790000000000000000000000005f82015250565b5f614041601483612e8c565b915061404c8261400d565b602082019050919050565b5f6020820190508181035f83015261406e81614035565b9050919050565b7f4465736372697074696f6e2063616e6e6f7420626520656d70747900000000005f82015250565b5f6140a9601b83612e8c565b91506140b482614075565b602082019050919050565b5f6020820190508181035f8301526140d68161409d565b9050919050565b7f50726f6475637420646f65736e742065786973747300000000000000000000005f82015250565b5f614111601583612e8c565b915061411c826140dd565b602082019050919050565b5f6020820190508181035f83015261413e81614105565b9050919050565b7f416c726561647920726563616c6c6564000000000000000000000000000000005f82015250565b5f614179601083612e8c565b915061418482614145565b602082019050919050565b5f6020820190508181035f8301526141a68161416d565b9050919050565b7f4e6f7420746865206f776e6572000000000000000000000000000000000000005f82015250565b5f6141e1600d83612e8c565b91506141ec826141ad565b602082019050919050565b5f6020820190508181035f83015261420e816141d5565b9050919050565b7f496e76616c6964206164647265737300000000000000000000000000000000005f82015250565b5f614249600f83612e8c565b915061425482614215565b602082019050919050565b5f6020820190508181035f8301526142768161423d565b9050919050565b7f5061727469636970616e7420616c726561647920617574686f72697a656400005f82015250565b5f6142b1601e83612e8c565b91506142bc8261427d565b602082019050919050565b5f6020820190508181035f8301526142de816142a5565b9050919050565b7f466f7220726567697374657242617463682c204944206c697374206d757374205f8201527f626520656d707479000000000000000000000000000000000000000000000000602082015250565b5f61433f602883612e8c565b915061434a826142e5565b604082019050919050565b5f6020820190508181035f83015261436c81614333565b9050919050565b7f4e616d6520616e64206465736372697074696f6e206c69737473206d757374205f8201527f6d6174636820696e206c656e6774680000000000000000000000000000000000602082015250565b5f6143cd602f83612e8c565b91506143d882614373565b604082019050919050565b5f6020820190508181035f8301526143fa816143c1565b9050919050565b7f4944206c6973742063616e6e6f7420626520656d70747920666f72206e6f6e2d5f8201527f7265676973746572206f7065726174696f6e7300000000000000000000000000602082015250565b5f61445b603383612e8c565b915061446682614401565b604082019050919050565b5f6020820190508181035f8301526144888161444f565b9050919050565b7f494420616e64206e616d65206c69737473206d757374206d6174636820696e205f8201527f6c656e6774680000000000000000000000000000000000000000000000000000602082015250565b5f6144e9602683612e8c565b91506144f48261448f565b604082019050919050565b5f6020820190508181035f830152614516816144dd565b9050919050565b7f494420616e64206465736372697074696f6e206c69737473206d757374206d615f8201527f74636820696e206c656e67746800000000000000000000000000000000000000602082015250565b5f614577602d83612e8c565b91506145828261451d565b604082019050919050565b5f6020820190508181035f8301526145a48161456b565b9050919050565b7f4e616d65206c6973742063616e6e6f7420626520656d707479000000000000005f82015250565b5f6145df601983612e8c565b91506145ea826145ab565b602082019050919050565b5f6020820190508181035f83015261460c816145d3565b9050919050565b7f44657363206c6973742063616e6e6f7420626520656d707479000000000000005f82015250565b5f614647601983612e8c565b915061465282614613565b602082019050919050565b5f6020820190508181035f8301526146748161463b565b905091905056fea2646970667358221220dfa35dccde0a23c5782bfe3bec72b1330fda5dea611ce6ba898d93bdd884aaee64736f6c634300081a0033",
					"opcodes": "PUSH1 0x80 PUSH1 0x40 MSTORE CALLVALUE DUP1 ISZERO PUSH2 0xF JUMPI PUSH0 DUP1 REVERT JUMPDEST POP CALLER PUSH0 DUP1 PUSH2 0x100 EXP DUP2 SLOAD DUP2 PUSH20 0xFFFFFFFFFFFFFFFFFFFFFFFFFFFFFFFFFFFFFFFF MUL NOT AND SWAP1 DUP4 PUSH20 0xFFFFFFFFFFFFFFFFFFFFFFFFFFFFFFFFFFFFFFFF AND MUL OR SWAP1 SSTORE POP PUSH0 PUSH1 0x1 DUP2 SWAP1 SSTORE POP PUSH0 PUSH1 0x2 DUP2 SWAP1 SSTORE POP PUSH1 0x1 PUSH1 0x3 PUSH0 CALLER PUSH20 0xFFFFFFFFFFFFFFFFFFFFFFFFFFFFFFFFFFFFFFFF AND PUSH20 0xFFFFFFFFFFFFFFFFFFFFFFFFFFFFFFFFFFFFFFFF AND DUP2 MSTORE PUSH1 0x20 ADD SWAP1 DUP2 MSTORE PUSH1 0x20 ADD PUSH0 KECCAK256 PUSH0 PUSH2 0x100 EXP DUP2 SLOAD DUP2 PUSH1 0xFF MUL NOT AND SWAP1 DUP4 ISZERO ISZERO MUL OR SWAP1 SSTORE POP CALLER PUSH20 0xFFFFFFFFFFFFFFFFFFFFFFFFFFFFFFFFFFFFFFFF AND PUSH32 0x3CBCBB9BA5A54D0762F39FD455FD2900FBCFCD0E0693E2C87DB13043C400B55F PUSH1 0x40 MLOAD PUSH1 0x40 MLOAD DUP1 SWAP2 SUB SWAP1 LOG2 PUSH2 0x46B1 DUP1 PUSH2 0x102 PUSH0 CODECOPY PUSH0 RETURN INVALID PUSH1 0x80 PUSH1 0x40 MSTORE CALLVALUE DUP1 ISZERO PUSH2 0xF JUMPI PUSH0 DUP1 REVERT JUMPDEST POP PUSH1 0x4 CALLDATASIZE LT PUSH2 0x11F JUMPI PUSH0 CALLDATALOAD PUSH1 0xE0 SHR DUP1 PUSH4 0x8FBD0DCF GT PUSH2 0xAB JUMPI DUP1 PUSH4 0xB9DB15B4 GT PUSH2 0x6F JUMPI DUP1 PUSH4 0xB9DB15B4 EQ PUSH2 0x34B JUMPI DUP1 PUSH4 0xC5F8D584 EQ PUSH2 0x37F JUMPI DUP1 PUSH4 0xCF9CD669 EQ PUSH2 0x39B JUMPI DUP1 PUSH4 0xE0F6EF87 EQ PUSH2 0x3CB JUMPI DUP1 PUSH4 0xF5F34413 EQ PUSH2 0x3E9 JUMPI PUSH2 0x11F JUMP JUMPDEST DUP1 PUSH4 0x8FBD0DCF EQ PUSH2 0x27F JUMPI DUP1 PUSH4 0x9CE0F973 EQ PUSH2 0x29B JUMPI DUP1 PUSH4 0x9FFAA71E EQ PUSH2 0x2B7 JUMPI DUP1 PUSH4 0xAF55ED64 EQ PUSH2 0x2E7 JUMPI DUP1 PUSH4 0xB32C4D8D EQ PUSH2 0x317 JUMPI PUSH2 0x11F JUMP JUMPDEST DUP1 PUSH4 0x7ACC0B20 GT PUSH2 0xF2 JUMPI DUP1 PUSH4 0x7ACC0B20 EQ PUSH2 0x1C4 JUMPI DUP1 PUSH4 0x86734E5B EQ PUSH2 0x1F9 JUMPI DUP1 PUSH4 0x86B0E812 EQ PUSH2 0x215 JUMPI DUP1 PUSH4 0x8D28230B EQ PUSH2 0x231 JUMPI DUP1 PUSH4 0x8DA5CB5B EQ PUSH2 0x261 JUMPI PUSH2 0x11F JUMP JUMPDEST DUP1 PUSH4 0x4341422 EQ PUSH2 0x123 JUMPI DUP1 PUSH4 0x6F13056 EQ PUSH2 0x13F JUMPI DUP1 PUSH4 0x3C9AF587 EQ PUSH2 0x15D JUMPI DUP1 PUSH4 0x5AC44282 EQ PUSH2 0x18D JUMPI JUMPDEST PUSH0 DUP1 REVERT JUMPDEST PUSH2 0x13D PUSH1 0x4 DUP1 CALLDATASIZE SUB DUP2 ADD SWAP1 PUSH2 0x138 SWAP2 SWAP1 PUSH2 0x2B9B JUMP JUMPDEST PUSH2 0x405 JUMP JUMPDEST STOP JUMPDEST PUSH2 0x147 PUSH2 0x5A1 JUMP JUMPDEST PUSH1 0x40 MLOAD PUSH2 0x154 SWAP2 SWAP1 PUSH2 0x2C04 JUMP JUMPDEST PUSH1 0x40 MLOAD DUP1 SWAP2 SUB SWAP1 RETURN JUMPDEST PUSH2 0x177 PUSH1 0x4 DUP1 CALLDATASIZE SUB DUP2 ADD SWAP1 PUSH2 0x172 SWAP2 SWAP1 PUSH2 0x2C1D JUMP JUMPDEST PUSH2 0x5A7 JUMP JUMPDEST PUSH1 0x40 MLOAD PUSH2 0x184 SWAP2 SWAP1 PUSH2 0x2C62 JUMP JUMPDEST PUSH1 0x40 MLOAD DUP1 SWAP2 SUB SWAP1 RETURN JUMPDEST PUSH2 0x1A7 PUSH1 0x4 DUP1 CALLDATASIZE SUB DUP2 ADD SWAP1 PUSH2 0x1A2 SWAP2 SWAP1 PUSH2 0x2C1D JUMP JUMPDEST PUSH2 0x7BE JUMP JUMPDEST PUSH1 0x40 MLOAD PUSH2 0x1BB SWAP9 SWAP8 SWAP7 SWAP6 SWAP5 SWAP4 SWAP3 SWAP2 SWAP1 PUSH2 0x2ED4 JUMP JUMPDEST PUSH1 0x40 MLOAD DUP1 SWAP2 SUB SWAP1 RETURN JUMPDEST PUSH2 0x1DE PUSH1 0x4 DUP1 CALLDATASIZE SUB DUP2 ADD SWAP1 PUSH2 0x1D9 SWAP2 SWAP1 PUSH2 0x2C1D JUMP JUMPDEST PUSH2 0xB3C JUMP JUMPDEST PUSH1 0x40 MLOAD PUSH2 0x1F0 SWAP7 SWAP6 SWAP5 SWAP4 SWAP3 SWAP2 SWAP1 PUSH2 0x2F6C JUMP JUMPDEST PUSH1 0x40 MLOAD DUP1 SWAP2 SUB SWAP1 RETURN JUMPDEST PUSH2 0x213 PUSH1 0x4 DUP1 CALLDATASIZE SUB DUP2 ADD SWAP1 PUSH2 0x20E SWAP2 SWAP1 PUSH2 0x3003 JUMP JUMPDEST PUSH2 0xCAB JUMP JUMPDEST STOP JUMPDEST PUSH2 0x22F PUSH1 0x4 DUP1 CALLDATASIZE SUB DUP2 ADD SWAP1 PUSH2 0x22A SWAP2 SWAP1 PUSH2 0x309F JUMP JUMPDEST PUSH2 0x159E JUMP JUMPDEST STOP JUMPDEST PUSH2 0x24B PUSH1 0x4 DUP1 CALLDATASIZE SUB DUP2 ADD SWAP1 PUSH2 0x246 SWAP2 SWAP1 PUSH2 0x30DD JUMP JUMPDEST PUSH2 0x1972 JUMP JUMPDEST PUSH1 0x40 MLOAD PUSH2 0x258 SWAP2 SWAP1 PUSH2 0x2C62 JUMP JUMPDEST PUSH1 0x40 MLOAD DUP1 SWAP2 SUB SWAP1 RETURN JUMPDEST PUSH2 0x269 PUSH2 0x198F JUMP JUMPDEST PUSH1 0x40 MLOAD PUSH2 0x276 SWAP2 SWAP1 PUSH2 0x3108 JUMP JUMPDEST PUSH1 0x40 MLOAD DUP1 SWAP2 SUB SWAP1 RETURN JUMPDEST PUSH2 0x299 PUSH1 0x4 DUP1 CALLDATASIZE SUB DUP2 ADD SWAP1 PUSH2 0x294 SWAP2 SWAP1 PUSH2 0x3121 JUMP JUMPDEST PUSH2 0x19B2 JUMP JUMPDEST STOP JUMPDEST PUSH2 0x2B5 PUSH1 0x4 DUP1 CALLDATASIZE SUB DUP2 ADD SWAP1 PUSH2 0x2B0 SWAP2 SWAP1 PUSH2 0x2B9B JUMP JUMPDEST PUSH2 0x1C4D JUMP JUMPDEST STOP JUMPDEST PUSH2 0x2D1 PUSH1 0x4 DUP1 CALLDATASIZE SUB DUP2 ADD SWAP1 PUSH2 0x2CC SWAP2 SWAP1 PUSH2 0x2C1D JUMP JUMPDEST PUSH2 0x1DE7 JUMP JUMPDEST PUSH1 0x40 MLOAD PUSH2 0x2DE SWAP2 SWAP1 PUSH2 0x2C62 JUMP JUMPDEST PUSH1 0x40 MLOAD DUP1 SWAP2 SUB SWAP1 RETURN JUMPDEST PUSH2 0x301 PUSH1 0x4 DUP1 CALLDATASIZE SUB DUP2 ADD SWAP1 PUSH2 0x2FC SWAP2 SWAP1 PUSH2 0x2C1D JUMP JUMPDEST PUSH2 0x1E15 JUMP JUMPDEST PUSH1 0x40 MLOAD PUSH2 0x30E SWAP2 SWAP1 PUSH2 0x2C62 JUMP JUMPDEST PUSH1 0x40 MLOAD DUP1 SWAP2 SUB SWAP1 RETURN JUMPDEST PUSH2 0x331 PUSH1 0x4 DUP1 CALLDATASIZE SUB DUP2 ADD SWAP1 PUSH2 0x32C SWAP2 SWAP1 PUSH2 0x2C1D JUMP JUMPDEST PUSH2 0x1E66 JUMP JUMPDEST PUSH1 0x40 MLOAD PUSH2 0x342 SWAP6 SWAP5 SWAP4 SWAP3 SWAP2 SWAP1 PUSH2 0x3197 JUMP JUMPDEST PUSH1 0x40 MLOAD DUP1 SWAP2 SUB SWAP1 RETURN JUMPDEST PUSH2 0x365 PUSH1 0x4 DUP1 CALLDATASIZE SUB DUP2 ADD SWAP1 PUSH2 0x360 SWAP2 SWAP1 PUSH2 0x2C1D JUMP JUMPDEST PUSH2 0x1F4A JUMP JUMPDEST PUSH1 0x40 MLOAD PUSH2 0x376 SWAP6 SWAP5 SWAP4 SWAP3 SWAP2 SWAP1 PUSH2 0x31EF JUMP JUMPDEST PUSH1 0x40 MLOAD DUP1 SWAP2 SUB SWAP1 RETURN JUMPDEST PUSH2 0x399 PUSH1 0x4 DUP1 CALLDATASIZE SUB DUP2 ADD SWAP1 PUSH2 0x394 SWAP2 SWAP1 PUSH2 0x30DD JUMP JUMPDEST PUSH2 0x213D JUMP JUMPDEST STOP JUMPDEST PUSH2 0x3B5 PUSH1 0x4 DUP1 CALLDATASIZE SUB DUP2 ADD SWAP1 PUSH2 0x3B0 SWAP2 SWAP1 PUSH2 0x2C1D JUMP JUMPDEST PUSH2 0x235D JUMP JUMPDEST PUSH1 0x40 MLOAD PUSH2 0x3C2 SWAP2 SWAP1 PUSH2 0x3247 JUMP JUMPDEST PUSH1 0x40 MLOAD DUP1 SWAP2 SUB SWAP1 RETURN JUMPDEST PUSH2 0x3D3 PUSH2 0x2434 JUMP JUMPDEST PUSH1 0x40 MLOAD PUSH2 0x3E0 SWAP2 SWAP1 PUSH2 0x2C04 JUMP JUMPDEST PUSH1 0x40 MLOAD DUP1 SWAP2 SUB SWAP1 RETURN JUMPDEST PUSH2 0x403 PUSH1 0x4 DUP1 CALLDATASIZE SUB DUP2 ADD SWAP1 PUSH2 0x3FE SWAP2 SWAP1 PUSH2 0x3409 JUMP JUMPDEST PUSH2 0x243A JUMP JUMPDEST STOP JUMPDEST PUSH1 0x3 PUSH0 CALLER PUSH20 0xFFFFFFFFFFFFFFFFFFFFFFFFFFFFFFFFFFFFFFFF AND PUSH20 0xFFFFFFFFFFFFFFFFFFFFFFFFFFFFFFFFFFFFFFFF AND DUP2 MSTORE PUSH1 0x20 ADD SWAP1 DUP2 MSTORE PUSH1 0x20 ADD PUSH0 KECCAK256 PUSH0 SWAP1 SLOAD SWAP1 PUSH2 0x100 EXP SWAP1 DIV PUSH1 0xFF AND PUSH2 0x48E JUMPI PUSH1 0x40 MLOAD PUSH32 0x8C379A000000000000000000000000000000000000000000000000000000000 DUP2 MSTORE PUSH1 0x4 ADD PUSH2 0x485 SWAP1 PUSH2 0x3527 JUMP JUMPDEST PUSH1 0x40 MLOAD DUP1 SWAP2 SUB SWAP1 REVERT JUMPDEST PUSH2 0x497 DUP3 PUSH2 0x1DE7 JUMP JUMPDEST PUSH2 0x4D6 JUMPI PUSH1 0x40 MLOAD PUSH32 0x8C379A000000000000000000000000000000000000000000000000000000000 DUP2 MSTORE PUSH1 0x4 ADD PUSH2 0x4CD SWAP1 PUSH2 0x358F JUMP JUMPDEST PUSH1 0x40 MLOAD DUP1 SWAP2 SUB SWAP1 REVERT JUMPDEST PUSH0 PUSH1 0x5 PUSH0 DUP5 DUP2 MSTORE PUSH1 0x20 ADD SWAP1 DUP2 MSTORE PUSH1 0x20 ADD PUSH0 KECCAK256 SWAP1 POP DUP1 PUSH1 0x5 ADD PUSH0 SWAP1 SLOAD SWAP1 PUSH2 0x100 EXP SWAP1 DIV PUSH1 0xFF AND ISZERO PUSH2 0x53B JUMPI PUSH1 0x40 MLOAD PUSH32 0x8C379A000000000000000000000000000000000000000000000000000000000 DUP2 MSTORE PUSH1 0x4 ADD PUSH2 0x532 SWAP1 PUSH2 0x35F7 JUMP JUMPDEST PUSH1 0x40 MLOAD DUP1 SWAP2 SUB SWAP1 REVERT JUMPDEST PUSH0 JUMPDEST DUP2 PUSH0 ADD DUP1 SLOAD SWAP1 POP DUP2 LT ISZERO PUSH2 0x57F JUMPI PUSH2 0x572 DUP3 PUSH0 ADD DUP3 DUP2 SLOAD DUP2 LT PUSH2 0x563 JUMPI PUSH2 0x562 PUSH2 0x3615 JUMP JUMPDEST JUMPDEST SWAP1 PUSH0 MSTORE PUSH1 0x20 PUSH0 KECCAK256 ADD SLOAD DUP5 PUSH2 0x1C4D JUMP JUMPDEST DUP1 DUP1 PUSH1 0x1 ADD SWAP2 POP POP PUSH2 0x53D JUMP JUMPDEST POP PUSH1 0x1 DUP2 PUSH1 0x5 ADD PUSH0 PUSH2 0x100 EXP DUP2 SLOAD DUP2 PUSH1 0xFF MUL NOT AND SWAP1 DUP4 ISZERO ISZERO MUL OR SWAP1 SSTORE POP POP POP POP JUMP JUMPDEST PUSH1 0x2 SLOAD DUP2 JUMP JUMPDEST PUSH0 PUSH2 0x5B1 DUP3 PUSH2 0x1E15 JUMP JUMPDEST PUSH2 0x5F0 JUMPI PUSH1 0x40 MLOAD PUSH32 0x8C379A000000000000000000000000000000000000000000000000000000000 DUP2 MSTORE PUSH1 0x4 ADD PUSH2 0x5E7 SWAP1 PUSH2 0x368C JUMP JUMPDEST PUSH1 0x40 MLOAD DUP1 SWAP2 SUB SWAP1 REVERT JUMPDEST PUSH0 PUSH1 0x4 PUSH0 DUP5 DUP2 MSTORE PUSH1 0x20 ADD SWAP1 DUP2 MSTORE PUSH1 0x20 ADD PUSH0 KECCAK256 PUSH1 0x40 MLOAD DUP1 PUSH1 0xC0 ADD PUSH1 0x40 MSTORE SWAP1 DUP2 PUSH0 DUP3 ADD SLOAD DUP2 MSTORE PUSH1 0x20 ADD PUSH1 0x1 DUP3 ADD DUP1 SLOAD PUSH2 0x626 SWAP1 PUSH2 0x36D7 JUMP JUMPDEST DUP1 PUSH1 0x1F ADD PUSH1 0x20 DUP1 SWAP2 DIV MUL PUSH1 0x20 ADD PUSH1 0x40 MLOAD SWAP1 DUP2 ADD PUSH1 0x40 MSTORE DUP1 SWAP3 SWAP2 SWAP1 DUP2 DUP2 MSTORE PUSH1 0x20 ADD DUP3 DUP1 SLOAD PUSH2 0x652 SWAP1 PUSH2 0x36D7 JUMP JUMPDEST DUP1 ISZERO PUSH2 0x69D JUMPI DUP1 PUSH1 0x1F LT PUSH2 0x674 JUMPI PUSH2 0x100 DUP1 DUP4 SLOAD DIV MUL DUP4 MSTORE SWAP2 PUSH1 0x20 ADD SWAP2 PUSH2 0x69D JUMP JUMPDEST DUP3 ADD SWAP2 SWAP1 PUSH0 MSTORE PUSH1 0x20 PUSH0 KECCAK256 SWAP1 JUMPDEST DUP2 SLOAD DUP2 MSTORE SWAP1 PUSH1 0x1 ADD SWAP1 PUSH1 0x20 ADD DUP1 DUP4 GT PUSH2 0x680 JUMPI DUP3 SWAP1 SUB PUSH1 0x1F AND DUP3 ADD SWAP2 JUMPDEST POP POP POP POP POP DUP2 MSTORE PUSH1 0x20 ADD PUSH1 0x2 DUP3 ADD DUP1 SLOAD PUSH2 0x6B6 SWAP1 PUSH2 0x36D7 JUMP JUMPDEST DUP1 PUSH1 0x1F ADD PUSH1 0x20 DUP1 SWAP2 DIV MUL PUSH1 0x20 ADD PUSH1 0x40 MLOAD SWAP1 DUP2 ADD PUSH1 0x40 MSTORE DUP1 SWAP3 SWAP2 SWAP1 DUP2 DUP2 MSTORE PUSH1 0x20 ADD DUP3 DUP1 SLOAD PUSH2 0x6E2 SWAP1 PUSH2 0x36D7 JUMP JUMPDEST DUP1 ISZERO PUSH2 0x72D JUMPI DUP1 PUSH1 0x1F LT PUSH2 0x704 JUMPI PUSH2 0x100 DUP1 DUP4 SLOAD DIV MUL DUP4 MSTORE SWAP2 PUSH1 0x20 ADD SWAP2 PUSH2 0x72D JUMP JUMPDEST DUP3 ADD SWAP2 SWAP1 PUSH0 MSTORE PUSH1 0x20 PUSH0 KECCAK256 SWAP1 JUMPDEST DUP2 SLOAD DUP2 MSTORE SWAP1 PUSH1 0x1 ADD SWAP1 PUSH1 0x20 ADD DUP1 DUP4 GT PUSH2 0x710 JUMPI DUP3 SWAP1 SUB PUSH1 0x1F AND DUP3 ADD SWAP2 JUMPDEST POP POP POP POP POP DUP2 MSTORE PUSH1 0x20 ADD PUSH1 0x3 DUP3 ADD PUSH0 SWAP1 SLOAD SWAP1 PUSH2 0x100 EXP SWAP1 DIV PUSH20 0xFFFFFFFFFFFFFFFFFFFFFFFFFFFFFFFFFFFFFFFF AND PUSH20 0xFFFFFFFFFFFFFFFFFFFFFFFFFFFFFFFFFFFFFFFF AND PUSH20 0xFFFFFFFFFFFFFFFFFFFFFFFFFFFFFFFFFFFFFFFF AND DUP2 MSTORE PUSH1 0x20 ADD PUSH1 0x4 DUP3 ADD SLOAD DUP2 MSTORE PUSH1 0x20 ADD PUSH1 0x5 DUP3 ADD PUSH0 SWAP1 SLOAD SWAP1 PUSH2 0x100 EXP SWAP1 DIV PUSH1 0xFF AND ISZERO ISZERO ISZERO ISZERO DUP2 MSTORE POP POP SWAP1 POP DUP1 PUSH1 0xA0 ADD MLOAD SWAP2 POP POP SWAP2 SWAP1 POP JUMP JUMPDEST PUSH1 0x60 DUP1 PUSH1 0x60 PUSH0 DUP1 PUSH0 DUP1 PUSH1 0x60 PUSH0 PUSH1 0x5 PUSH0 DUP12 DUP2 MSTORE PUSH1 0x20 ADD SWAP1 DUP2 MSTORE PUSH1 0x20 ADD PUSH0 KECCAK256 PUSH1 0x40 MLOAD DUP1 PUSH2 0x100 ADD PUSH1 0x40 MSTORE SWAP1 DUP2 PUSH0 DUP3 ADD DUP1 SLOAD DUP1 PUSH1 0x20 MUL PUSH1 0x20 ADD PUSH1 0x40 MLOAD SWAP1 DUP2 ADD PUSH1 0x40 MSTORE DUP1 SWAP3 SWAP2 SWAP1 DUP2 DUP2 MSTORE PUSH1 0x20 ADD DUP3 DUP1 SLOAD DUP1 ISZERO PUSH2 0x833 JUMPI PUSH1 0x20 MUL DUP3 ADD SWAP2 SWAP1 PUSH0 MSTORE PUSH1 0x20 PUSH0 KECCAK256 SWAP1 JUMPDEST DUP2 SLOAD DUP2 MSTORE PUSH1 0x20 ADD SWAP1 PUSH1 0x1 ADD SWAP1 DUP1 DUP4 GT PUSH2 0x81F JUMPI JUMPDEST POP POP POP POP POP DUP2 MSTORE PUSH1 0x20 ADD PUSH1 0x1 DUP3 ADD DUP1 SLOAD DUP1 PUSH1 0x20 MUL PUSH1 0x20 ADD PUSH1 0x40 MLOAD SWAP1 DUP2 ADD PUSH1 0x40 MSTORE DUP1 SWAP3 SWAP2 SWAP1 DUP2 DUP2 MSTORE PUSH1 0x20 ADD PUSH0 SWAP1 JUMPDEST DUP3 DUP3 LT ISZERO PUSH2 0x908 JUMPI DUP4 DUP3 SWAP1 PUSH0 MSTORE PUSH1 0x20 PUSH0 KECCAK256 ADD DUP1 SLOAD PUSH2 0x87D SWAP1 PUSH2 0x36D7 JUMP JUMPDEST DUP1 PUSH1 0x1F ADD PUSH1 0x20 DUP1 SWAP2 DIV MUL PUSH1 0x20 ADD PUSH1 0x40 MLOAD SWAP1 DUP2 ADD PUSH1 0x40 MSTORE DUP1 SWAP3 SWAP2 SWAP1 DUP2 DUP2 MSTORE PUSH1 0x20 ADD DUP3 DUP1 SLOAD PUSH2 0x8A9 SWAP1 PUSH2 0x36D7 JUMP JUMPDEST DUP1 ISZERO PUSH2 0x8F4 JUMPI DUP1 PUSH1 0x1F LT PUSH2 0x8CB JUMPI PUSH2 0x100 DUP1 DUP4 SLOAD DIV MUL DUP4 MSTORE SWAP2 PUSH1 0x20 ADD SWAP2 PUSH2 0x8F4 JUMP JUMPDEST DUP3 ADD SWAP2 SWAP1 PUSH0 MSTORE PUSH1 0x20 PUSH0 KECCAK256 SWAP1 JUMPDEST DUP2 SLOAD DUP2 MSTORE SWAP1 PUSH1 0x1 ADD SWAP1 PUSH1 0x20 ADD DUP1 DUP4 GT PUSH2 0x8D7 JUMPI DUP3 SWAP1 SUB PUSH1 0x1F AND DUP3 ADD SWAP2 JUMPDEST POP POP POP POP POP DUP2 MSTORE PUSH1 0x20 ADD SWAP1 PUSH1 0x1 ADD SWAP1 PUSH2 0x860 JUMP JUMPDEST POP POP POP POP DUP2 MSTORE PUSH1 0x20 ADD PUSH1 0x2 DUP3 ADD DUP1 SLOAD DUP1 PUSH1 0x20 MUL PUSH1 0x20 ADD PUSH1 0x40 MLOAD SWAP1 DUP2 ADD PUSH1 0x40 MSTORE DUP1 SWAP3 SWAP2 SWAP1 DUP2 DUP2 MSTORE PUSH1 0x20 ADD PUSH0 SWAP1 JUMPDEST DUP3 DUP3 LT ISZERO PUSH2 0x9DC JUMPI DUP4 DUP3 SWAP1 PUSH0 MSTORE PUSH1 0x20 PUSH0 KECCAK256 ADD DUP1 SLOAD PUSH2 0x951 SWAP1 PUSH2 0x36D7 JUMP JUMPDEST DUP1 PUSH1 0x1F ADD PUSH1 0x20 DUP1 SWAP2 DIV MUL PUSH1 0x20 ADD PUSH1 0x40 MLOAD SWAP1 DUP2 ADD PUSH1 0x40 MSTORE DUP1 SWAP3 SWAP2 SWAP1 DUP2 DUP2 MSTORE PUSH1 0x20 ADD DUP3 DUP1 SLOAD PUSH2 0x97D SWAP1 PUSH2 0x36D7 JUMP JUMPDEST DUP1 ISZERO PUSH2 0x9C8 JUMPI DUP1 PUSH1 0x1F LT PUSH2 0x99F JUMPI PUSH2 0x100 DUP1 DUP4 SLOAD DIV MUL DUP4 MSTORE SWAP2 PUSH1 0x20 ADD SWAP2 PUSH2 0x9C8 JUMP JUMPDEST DUP3 ADD SWAP2 SWAP1 PUSH0 MSTORE PUSH1 0x20 PUSH0 KECCAK256 SWAP1 JUMPDEST DUP2 SLOAD DUP2 MSTORE SWAP1 PUSH1 0x1 ADD SWAP1 PUSH1 0x20 ADD DUP1 DUP4 GT PUSH2 0x9AB JUMPI DUP3 SWAP1 SUB PUSH1 0x1F AND DUP3 ADD SWAP2 JUMPDEST POP POP POP POP POP DUP2 MSTORE PUSH1 0x20 ADD SWAP1 PUSH1 0x1 ADD SWAP1 PUSH2 0x934 JUMP JUMPDEST POP POP POP POP DUP2 MSTORE PUSH1 0x20 ADD PUSH1 0x3 DUP3 ADD PUSH0 SWAP1 SLOAD SWAP1 PUSH2 0x100 EXP SWAP1 DIV PUSH20 0xFFFFFFFFFFFFFFFFFFFFFFFFFFFFFFFFFFFFFFFF AND PUSH20 0xFFFFFFFFFFFFFFFFFFFFFFFFFFFFFFFFFFFFFFFF AND PUSH20 0xFFFFFFFFFFFFFFFFFFFFFFFFFFFFFFFFFFFFFFFF AND DUP2 MSTORE PUSH1 0x20 ADD PUSH1 0x4 DUP3 ADD SLOAD DUP2 MSTORE PUSH1 0x20 ADD PUSH1 0x5 DUP3 ADD PUSH0 SWAP1 SLOAD SWAP1 PUSH2 0x100 EXP SWAP1 DIV PUSH1 0xFF AND ISZERO ISZERO ISZERO ISZERO DUP2 MSTORE PUSH1 0x20 ADD PUSH1 0x6 DUP3 ADD SLOAD DUP2 MSTORE PUSH1 0x20 ADD PUSH1 0x7 DUP3 ADD DUP1 SLOAD PUSH2 0xA77 SWAP1 PUSH2 0x36D7 JUMP JUMPDEST DUP1 PUSH1 0x1F ADD PUSH1 0x20 DUP1 SWAP2 DIV MUL PUSH1 0x20 ADD PUSH1 0x40 MLOAD SWAP1 DUP2 ADD PUSH1 0x40 MSTORE DUP1 SWAP3 SWAP2 SWAP1 DUP2 DUP2 MSTORE PUSH1 0x20 ADD DUP3 DUP1 SLOAD PUSH2 0xAA3 SWAP1 PUSH2 0x36D7 JUMP JUMPDEST DUP1 ISZERO PUSH2 0xAEE JUMPI DUP1 PUSH1 0x1F LT PUSH2 0xAC5 JUMPI PUSH2 0x100 DUP1 DUP4 SLOAD DIV MUL DUP4 MSTORE SWAP2 PUSH1 0x20 ADD SWAP2 PUSH2 0xAEE JUMP JUMPDEST DUP3 ADD SWAP2 SWAP1 PUSH0 MSTORE PUSH1 0x20 PUSH0 KECCAK256 SWAP1 JUMPDEST DUP2 SLOAD DUP2 MSTORE SWAP1 PUSH1 0x1 ADD SWAP1 PUSH1 0x20 ADD DUP1 DUP4 GT PUSH2 0xAD1 JUMPI DUP3 SWAP1 SUB PUSH1 0x1F AND DUP3 ADD SWAP2 JUMPDEST POP POP POP POP POP DUP2 MSTORE POP POP SWAP1 POP DUP1 PUSH0 ADD MLOAD DUP2 PUSH1 0x20 ADD MLOAD DUP3 PUSH1 0x40 ADD MLOAD DUP4 PUSH1 0x60 ADD MLOAD DUP5 PUSH1 0x80 ADD MLOAD DUP6 PUSH1 0xA0 ADD MLOAD DUP7 PUSH1 0xC0 ADD MLOAD DUP8 PUSH1 0xE0 ADD MLOAD SWAP9 POP SWAP9 POP SWAP9 POP SWAP9 POP SWAP9 POP SWAP9 POP SWAP9 POP SWAP9 POP POP SWAP2 SWAP4 SWAP6 SWAP8 POP SWAP2 SWAP4 SWAP6 SWAP8 JUMP JUMPDEST PUSH1 0x4 PUSH1 0x20 MSTORE DUP1 PUSH0 MSTORE PUSH1 0x40 PUSH0 KECCAK256 PUSH0 SWAP2 POP SWAP1 POP DUP1 PUSH0 ADD SLOAD SWAP1 DUP1 PUSH1 0x1 ADD DUP1 SLOAD PUSH2 0xB61 SWAP1 PUSH2 0x36D7 JUMP JUMPDEST DUP1 PUSH1 0x1F ADD PUSH1 0x20 DUP1 SWAP2 DIV MUL PUSH1 0x20 ADD PUSH1 0x40 MLOAD SWAP1 DUP2 ADD PUSH1 0x40 MSTORE DUP1 SWAP3 SWAP2 SWAP1 DUP2 DUP2 MSTORE PUSH1 0x20 ADD DUP3 DUP1 SLOAD PUSH2 0xB8D SWAP1 PUSH2 0x36D7 JUMP JUMPDEST DUP1 ISZERO PUSH2 0xBD8 JUMPI DUP1 PUSH1 0x1F LT PUSH2 0xBAF JUMPI PUSH2 0x100 DUP1 DUP4 SLOAD DIV MUL DUP4 MSTORE SWAP2 PUSH1 0x20 ADD SWAP2 PUSH2 0xBD8 JUMP JUMPDEST DUP3 ADD SWAP2 SWAP1 PUSH0 MSTORE PUSH1 0x20 PUSH0 KECCAK256 SWAP1 JUMPDEST DUP2 SLOAD DUP2 MSTORE SWAP1 PUSH1 0x1 ADD SWAP1 PUSH1 0x20 ADD DUP1 DUP4 GT PUSH2 0xBBB JUMPI DUP3 SWAP1 SUB PUSH1 0x1F AND DUP3 ADD SWAP2 JUMPDEST POP POP POP POP POP SWAP1 DUP1 PUSH1 0x2 ADD DUP1 SLOAD PUSH2 0xBED SWAP1 PUSH2 0x36D7 JUMP JUMPDEST DUP1 PUSH1 0x1F ADD PUSH1 0x20 DUP1 SWAP2 DIV MUL PUSH1 0x20 ADD PUSH1 0x40 MLOAD SWAP1 DUP2 ADD PUSH1 0x40 MSTORE DUP1 SWAP3 SWAP2 SWAP1 DUP2 DUP2 MSTORE PUSH1 0x20 ADD DUP3 DUP1 SLOAD PUSH2 0xC19 SWAP1 PUSH2 0x36D7 JUMP JUMPDEST DUP1 ISZERO PUSH2 0xC64 JUMPI DUP1 PUSH1 0x1F LT PUSH2 0xC3B JUMPI PUSH2 0x100 DUP1 DUP4 SLOAD DIV MUL DUP4 MSTORE SWAP2 PUSH1 0x20 ADD SWAP2 PUSH2 0xC64 JUMP JUMPDEST DUP3 ADD SWAP2 SWAP1 PUSH0 MSTORE PUSH1 0x20 PUSH0 KECCAK256 SWAP1 JUMPDEST DUP2 SLOAD DUP2 MSTORE SWAP1 PUSH1 0x1 ADD SWAP1 PUSH1 0x20 ADD DUP1 DUP4 GT PUSH2 0xC47 JUMPI DUP3 SWAP1 SUB PUSH1 0x1F AND DUP3 ADD SWAP2 JUMPDEST POP POP POP POP POP SWAP1 DUP1 PUSH1 0x3 ADD PUSH0 SWAP1 SLOAD SWAP1 PUSH2 0x100 EXP SWAP1 DIV PUSH20 0xFFFFFFFFFFFFFFFFFFFFFFFFFFFFFFFFFFFFFFFF AND SWAP1 DUP1 PUSH1 0x4 ADD SLOAD SWAP1 DUP1 PUSH1 0x5 ADD PUSH0 SWAP1 SLOAD SWAP1 PUSH2 0x100 EXP SWAP1 DIV PUSH1 0xFF AND SWAP1 POP DUP7 JUMP JUMPDEST PUSH1 0x3 PUSH0 CALLER PUSH20 0xFFFFFFFFFFFFFFFFFFFFFFFFFFFFFFFFFFFFFFFF AND PUSH20 0xFFFFFFFFFFFFFFFFFFFFFFFFFFFFFFFFFFFFFFFF AND DUP2 MSTORE PUSH1 0x20 ADD SWAP1 DUP2 MSTORE PUSH1 0x20 ADD PUSH0 KECCAK256 PUSH0 SWAP1 SLOAD SWAP1 PUSH2 0x100 EXP SWAP1 DIV PUSH1 0xFF AND PUSH2 0xD34 JUMPI PUSH1 0x40 MLOAD PUSH32 0x8C379A000000000000000000000000000000000000000000000000000000000 DUP2 MSTORE PUSH1 0x4 ADD PUSH2 0xD2B SWAP1 PUSH2 0x3527 JUMP JUMPDEST PUSH1 0x40 MLOAD DUP1 SWAP2 SUB SWAP1 REVERT JUMPDEST PUSH0 PUSH1 0x5 PUSH0 DUP7 DUP2 MSTORE PUSH1 0x20 ADD SWAP1 DUP2 MSTORE PUSH1 0x20 ADD PUSH0 KECCAK256 PUSH1 0x6 ADD SLOAD SUB PUSH2 0xD8A JUMPI PUSH1 0x40 MLOAD PUSH32 0x8C379A000000000000000000000000000000000000000000000000000000000 DUP2 MSTORE PUSH1 0x4 ADD PUSH2 0xD81 SWAP1 PUSH2 0x358F JUMP JUMPDEST PUSH1 0x40 MLOAD DUP1 SWAP2 SUB SWAP1 REVERT JUMPDEST PUSH1 0x5 PUSH0 DUP6 DUP2 MSTORE PUSH1 0x20 ADD SWAP1 DUP2 MSTORE PUSH1 0x20 ADD PUSH0 KECCAK256 PUSH1 0x5 ADD PUSH0 SWAP1 SLOAD SWAP1 PUSH2 0x100 EXP SWAP1 DIV PUSH1 0xFF AND ISZERO PUSH2 0xDEB JUMPI PUSH1 0x40 MLOAD PUSH32 0x8C379A000000000000000000000000000000000000000000000000000000000 DUP2 MSTORE PUSH1 0x4 ADD PUSH2 0xDE2 SWAP1 PUSH2 0x3751 JUMP JUMPDEST PUSH1 0x40 MLOAD DUP1 SWAP2 SUB SWAP1 REVERT JUMPDEST PUSH0 PUSH20 0xFFFFFFFFFFFFFFFFFFFFFFFFFFFFFFFFFFFFFFFF AND DUP4 PUSH20 0xFFFFFFFFFFFFFFFFFFFFFFFFFFFFFFFFFFFFFFFF AND SUB PUSH2 0xE59 JUMPI PUSH1 0x40 MLOAD PUSH32 0x8C379A000000000000000000000000000000000000000000000000000000000 DUP2 MSTORE PUSH1 0x4 ADD PUSH2 0xE50 SWAP1 PUSH2 0x37B9 JUMP JUMPDEST PUSH1 0x40 MLOAD DUP1 SWAP2 SUB SWAP1 REVERT JUMPDEST PUSH1 0x40 MLOAD PUSH1 0x20 ADD PUSH2 0xE68 SWAP1 PUSH2 0x382B JUMP JUMPDEST PUSH1 0x40 MLOAD PUSH1 0x20 DUP2 DUP4 SUB SUB DUP2 MSTORE SWAP1 PUSH1 0x40 MSTORE DUP1 MLOAD SWAP1 PUSH1 0x20 ADD KECCAK256 DUP3 PUSH1 0x40 MLOAD PUSH1 0x20 ADD PUSH2 0xE8F SWAP2 SWAP1 PUSH2 0x386F JUMP JUMPDEST PUSH1 0x40 MLOAD PUSH1 0x20 DUP2 DUP4 SUB SUB DUP2 MSTORE SWAP1 PUSH1 0x40 MSTORE DUP1 MLOAD SWAP1 PUSH1 0x20 ADD KECCAK256 SUB PUSH2 0x12E1 JUMPI PUSH0 PUSH1 0x5 PUSH0 DUP7 DUP2 MSTORE PUSH1 0x20 ADD SWAP1 DUP2 MSTORE PUSH1 0x20 ADD PUSH0 KECCAK256 PUSH0 ADD DUP1 SLOAD SWAP1 POP EQ PUSH2 0xF02 JUMPI PUSH1 0x40 MLOAD PUSH32 0x8C379A000000000000000000000000000000000000000000000000000000000 DUP2 MSTORE PUSH1 0x4 ADD PUSH2 0xEF9 SWAP1 PUSH2 0x38F5 JUMP JUMPDEST PUSH1 0x40 MLOAD DUP1 SWAP2 SUB SWAP1 REVERT JUMPDEST PUSH0 PUSH1 0x5 PUSH0 DUP7 DUP2 MSTORE PUSH1 0x20 ADD SWAP1 DUP2 MSTORE PUSH1 0x20 ADD PUSH0 KECCAK256 PUSH1 0x1 ADD DUP1 SLOAD SWAP1 POP PUSH8 0xFFFFFFFFFFFFFFFF DUP2 GT ISZERO PUSH2 0xF34 JUMPI PUSH2 0xF33 PUSH2 0x2A77 JUMP JUMPDEST JUMPDEST PUSH1 0x40 MLOAD SWAP1 DUP1 DUP3 MSTORE DUP1 PUSH1 0x20 MUL PUSH1 0x20 ADD DUP3 ADD PUSH1 0x40 MSTORE DUP1 ISZERO PUSH2 0xF62 JUMPI DUP2 PUSH1 0x20 ADD PUSH1 0x20 DUP3 MUL DUP1 CALLDATASIZE DUP4 CALLDATACOPY DUP1 DUP3 ADD SWAP2 POP POP SWAP1 POP JUMPDEST POP SWAP1 POP PUSH0 JUMPDEST PUSH1 0x5 PUSH0 DUP8 DUP2 MSTORE PUSH1 0x20 ADD SWAP1 DUP2 MSTORE PUSH1 0x20 ADD PUSH0 KECCAK256 PUSH1 0x1 ADD DUP1 SLOAD SWAP1 POP DUP2 LT ISZERO PUSH2 0x12B2 JUMPI PUSH1 0x1 PUSH0 DUP2 SLOAD DUP1 SWAP3 SWAP2 SWAP1 PUSH2 0xF98 SWAP1 PUSH2 0x3940 JUMP JUMPDEST SWAP2 SWAP1 POP SSTORE POP PUSH1 0x1 SLOAD DUP3 DUP3 DUP2 MLOAD DUP2 LT PUSH2 0xFB3 JUMPI PUSH2 0xFB2 PUSH2 0x3615 JUMP JUMPDEST JUMPDEST PUSH1 0x20 MUL PUSH1 0x20 ADD ADD DUP2 DUP2 MSTORE POP POP PUSH1 0x40 MLOAD DUP1 PUSH1 0xC0 ADD PUSH1 0x40 MSTORE DUP1 PUSH1 0x1 SLOAD DUP2 MSTORE PUSH1 0x20 ADD PUSH1 0x5 PUSH0 DUP10 DUP2 MSTORE PUSH1 0x20 ADD SWAP1 DUP2 MSTORE PUSH1 0x20 ADD PUSH0 KECCAK256 PUSH1 0x1 ADD DUP4 DUP2 SLOAD DUP2 LT PUSH2 0xFF8 JUMPI PUSH2 0xFF7 PUSH2 0x3615 JUMP JUMPDEST JUMPDEST SWAP1 PUSH0 MSTORE PUSH1 0x20 PUSH0 KECCAK256 ADD DUP1 SLOAD PUSH2 0x100B SWAP1 PUSH2 0x36D7 JUMP JUMPDEST DUP1 PUSH1 0x1F ADD PUSH1 0x20 DUP1 SWAP2 DIV MUL PUSH1 0x20 ADD PUSH1 0x40 MLOAD SWAP1 DUP2 ADD PUSH1 0x40 MSTORE DUP1 SWAP3 SWAP2 SWAP1 DUP2 DUP2 MSTORE PUSH1 0x20 ADD DUP3 DUP1 SLOAD PUSH2 0x1037 SWAP1 PUSH2 0x36D7 JUMP JUMPDEST DUP1 ISZERO PUSH2 0x1082 JUMPI DUP1 PUSH1 0x1F LT PUSH2 0x1059 JUMPI PUSH2 0x100 DUP1 DUP4 SLOAD DIV MUL DUP4 MSTORE SWAP2 PUSH1 0x20 ADD SWAP2 PUSH2 0x1082 JUMP JUMPDEST DUP3 ADD SWAP2 SWAP1 PUSH0 MSTORE PUSH1 0x20 PUSH0 KECCAK256 SWAP1 JUMPDEST DUP2 SLOAD DUP2 MSTORE SWAP1 PUSH1 0x1 ADD SWAP1 PUSH1 0x20 ADD DUP1 DUP4 GT PUSH2 0x1065 JUMPI DUP3 SWAP1 SUB PUSH1 0x1F AND DUP3 ADD SWAP2 JUMPDEST POP POP POP POP POP DUP2 MSTORE PUSH1 0x20 ADD PUSH1 0x5 PUSH0 DUP10 DUP2 MSTORE PUSH1 0x20 ADD SWAP1 DUP2 MSTORE PUSH1 0x20 ADD PUSH0 KECCAK256 PUSH1 0x2 ADD DUP4 DUP2 SLOAD DUP2 LT PUSH2 0x10B2 JUMPI PUSH2 0x10B1 PUSH2 0x3615 JUMP JUMPDEST JUMPDEST SWAP1 PUSH0 MSTORE PUSH1 0x20 PUSH0 KECCAK256 ADD DUP1 SLOAD PUSH2 0x10C5 SWAP1 PUSH2 0x36D7 JUMP JUMPDEST DUP1 PUSH1 0x1F ADD PUSH1 0x20 DUP1 SWAP2 DIV MUL PUSH1 0x20 ADD PUSH1 0x40 MLOAD SWAP1 DUP2 ADD PUSH1 0x40 MSTORE DUP1 SWAP3 SWAP2 SWAP1 DUP2 DUP2 MSTORE PUSH1 0x20 ADD DUP3 DUP1 SLOAD PUSH2 0x10F1 SWAP1 PUSH2 0x36D7 JUMP JUMPDEST DUP1 ISZERO PUSH2 0x113C JUMPI DUP1 PUSH1 0x1F LT PUSH2 0x1113 JUMPI PUSH2 0x100 DUP1 DUP4 SLOAD DIV MUL DUP4 MSTORE SWAP2 PUSH1 0x20 ADD SWAP2 PUSH2 0x113C JUMP JUMPDEST DUP3 ADD SWAP2 SWAP1 PUSH0 MSTORE PUSH1 0x20 PUSH0 KECCAK256 SWAP1 JUMPDEST DUP2 SLOAD DUP2 MSTORE SWAP1 PUSH1 0x1 ADD SWAP1 PUSH1 0x20 ADD DUP1 DUP4 GT PUSH2 0x111F JUMPI DUP3 SWAP1 SUB PUSH1 0x1F AND DUP3 ADD SWAP2 JUMPDEST POP POP POP POP POP DUP2 MSTORE PUSH1 0x20 ADD DUP7 PUSH20 0xFFFFFFFFFFFFFFFFFFFFFFFFFFFFFFFFFFFFFFFF AND DUP2 MSTORE PUSH1 0x20 ADD TIMESTAMP DUP2 MSTORE PUSH1 0x20 ADD PUSH0 ISZERO ISZERO DUP2 MSTORE POP PUSH1 0x4 PUSH0 PUSH1 0x1 SLOAD DUP2 MSTORE PUSH1 0x20 ADD SWAP1 DUP2 MSTORE PUSH1 0x20 ADD PUSH0 KECCAK256 PUSH0 DUP3 ADD MLOAD DUP2 PUSH0 ADD SSTORE PUSH1 0x20 DUP3 ADD MLOAD DUP2 PUSH1 0x1 ADD SWAP1 DUP2 PUSH2 0x119E SWAP2 SWAP1 PUSH2 0x3B24 JUMP JUMPDEST POP PUSH1 0x40 DUP3 ADD MLOAD DUP2 PUSH1 0x2 ADD SWAP1 DUP2 PUSH2 0x11B4 SWAP2 SWAP1 PUSH2 0x3B24 JUMP JUMPDEST POP PUSH1 0x60 DUP3 ADD MLOAD DUP2 PUSH1 0x3 ADD PUSH0 PUSH2 0x100 EXP DUP2 SLOAD DUP2 PUSH20 0xFFFFFFFFFFFFFFFFFFFFFFFFFFFFFFFFFFFFFFFF MUL NOT AND SWAP1 DUP4 PUSH20 0xFFFFFFFFFFFFFFFFFFFFFFFFFFFFFFFFFFFFFFFF AND MUL OR SWAP1 SSTORE POP PUSH1 0x80 DUP3 ADD MLOAD DUP2 PUSH1 0x4 ADD SSTORE PUSH1 0xA0 DUP3 ADD MLOAD DUP2 PUSH1 0x5 ADD PUSH0 PUSH2 0x100 EXP DUP2 SLOAD DUP2 PUSH1 0xFF MUL NOT AND SWAP1 DUP4 ISZERO ISZERO MUL OR SWAP1 SSTORE POP SWAP1 POP POP DUP5 PUSH20 0xFFFFFFFFFFFFFFFFFFFFFFFFFFFFFFFFFFFFFFFF AND PUSH1 0x1 SLOAD PUSH32 0xCAB8542FAD5393D8A674AE5BB9094C309E41FDF2BF941B1D4A44FB4A790FF1C PUSH1 0x5 PUSH0 DUP11 DUP2 MSTORE PUSH1 0x20 ADD SWAP1 DUP2 MSTORE PUSH1 0x20 ADD PUSH0 KECCAK256 PUSH1 0x1 ADD DUP5 DUP2 SLOAD DUP2 LT PUSH2 0x1288 JUMPI PUSH2 0x1287 PUSH2 0x3615 JUMP JUMPDEST JUMPDEST SWAP1 PUSH0 MSTORE PUSH1 0x20 PUSH0 KECCAK256 ADD PUSH1 0x40 MLOAD PUSH2 0x129D SWAP2 SWAP1 PUSH2 0x3C74 JUMP JUMPDEST PUSH1 0x40 MLOAD DUP1 SWAP2 SUB SWAP1 LOG3 DUP1 DUP1 PUSH1 0x1 ADD SWAP2 POP POP PUSH2 0xF67 JUMP JUMPDEST POP DUP1 PUSH1 0x5 PUSH0 DUP8 DUP2 MSTORE PUSH1 0x20 ADD SWAP1 DUP2 MSTORE PUSH1 0x20 ADD PUSH0 KECCAK256 PUSH0 ADD SWAP1 DUP1 MLOAD SWAP1 PUSH1 0x20 ADD SWAP1 PUSH2 0x12DA SWAP3 SWAP2 SWAP1 PUSH2 0x28FE JUMP JUMPDEST POP POP PUSH2 0x154D JUMP JUMPDEST PUSH1 0x40 MLOAD PUSH1 0x20 ADD PUSH2 0x12F0 SWAP1 PUSH2 0x3CDE JUMP JUMPDEST PUSH1 0x40 MLOAD PUSH1 0x20 DUP2 DUP4 SUB SUB DUP2 MSTORE SWAP1 PUSH1 0x40 MSTORE DUP1 MLOAD SWAP1 PUSH1 0x20 ADD KECCAK256 DUP3 PUSH1 0x40 MLOAD PUSH1 0x20 ADD PUSH2 0x1317 SWAP2 SWAP1 PUSH2 0x386F JUMP JUMPDEST PUSH1 0x40 MLOAD PUSH1 0x20 DUP2 DUP4 SUB SUB DUP2 MSTORE SWAP1 PUSH1 0x40 MSTORE DUP1 MLOAD SWAP1 PUSH1 0x20 ADD KECCAK256 SUB PUSH2 0x1478 JUMPI PUSH0 JUMPDEST PUSH1 0x5 PUSH0 DUP7 DUP2 MSTORE PUSH1 0x20 ADD SWAP1 DUP2 MSTORE PUSH1 0x20 ADD PUSH0 KECCAK256 PUSH0 ADD DUP1 SLOAD SWAP1 POP DUP2 LT ISZERO PUSH2 0x1396 JUMPI PUSH2 0x1389 PUSH1 0x5 PUSH0 DUP8 DUP2 MSTORE PUSH1 0x20 ADD SWAP1 DUP2 MSTORE PUSH1 0x20 ADD PUSH0 KECCAK256 PUSH0 ADD DUP3 DUP2 SLOAD DUP2 LT PUSH2 0x137A JUMPI PUSH2 0x1379 PUSH2 0x3615 JUMP JUMPDEST JUMPDEST SWAP1 PUSH0 MSTORE PUSH1 0x20 PUSH0 KECCAK256 ADD SLOAD DUP6 PUSH2 0x159E JUMP JUMPDEST DUP1 DUP1 PUSH1 0x1 ADD SWAP2 POP POP PUSH2 0x1334 JUMP JUMPDEST POP PUSH0 PUSH1 0x5 PUSH0 DUP7 DUP2 MSTORE PUSH1 0x20 ADD SWAP1 DUP2 MSTORE PUSH1 0x20 ADD PUSH0 KECCAK256 PUSH1 0x3 ADD PUSH0 SWAP1 SLOAD SWAP1 PUSH2 0x100 EXP SWAP1 DIV PUSH20 0xFFFFFFFFFFFFFFFFFFFFFFFFFFFFFFFFFFFFFFFF AND SWAP1 POP TIMESTAMP PUSH1 0x5 PUSH0 DUP8 DUP2 MSTORE PUSH1 0x20 ADD SWAP1 DUP2 MSTORE PUSH1 0x20 ADD PUSH0 KECCAK256 PUSH1 0x4 ADD DUP2 SWAP1 SSTORE POP DUP4 PUSH1 0x5 PUSH0 DUP8 DUP2 MSTORE PUSH1 0x20 ADD SWAP1 DUP2 MSTORE PUSH1 0x20 ADD PUSH0 KECCAK256 PUSH1 0x3 ADD PUSH0 PUSH2 0x100 EXP DUP2 SLOAD DUP2 PUSH20 0xFFFFFFFFFFFFFFFFFFFFFFFFFFFFFFFFFFFFFFFF MUL NOT AND SWAP1 DUP4 PUSH20 0xFFFFFFFFFFFFFFFFFFFFFFFFFFFFFFFFFFFFFFFF AND MUL OR SWAP1 SSTORE POP PUSH32 0x68E04257B55466AD5273799AC2B8D9D926B5E87D7F301E15EA0D73C8D7F3EE4C DUP2 DUP6 PUSH1 0x40 MLOAD PUSH2 0x146A SWAP3 SWAP2 SWAP1 PUSH2 0x3CF2 JUMP JUMPDEST PUSH1 0x40 MLOAD DUP1 SWAP2 SUB SWAP1 LOG1 POP PUSH2 0x154C JUMP JUMPDEST PUSH1 0x40 MLOAD PUSH1 0x20 ADD PUSH2 0x1487 SWAP1 PUSH2 0x3D63 JUMP JUMPDEST PUSH1 0x40 MLOAD PUSH1 0x20 DUP2 DUP4 SUB SUB DUP2 MSTORE SWAP1 PUSH1 0x40 MSTORE DUP1 MLOAD SWAP1 PUSH1 0x20 ADD KECCAK256 DUP3 PUSH1 0x40 MLOAD PUSH1 0x20 ADD PUSH2 0x14AE SWAP2 SWAP1 PUSH2 0x386F JUMP JUMPDEST PUSH1 0x40 MLOAD PUSH1 0x20 DUP2 DUP4 SUB SUB DUP2 MSTORE SWAP1 PUSH1 0x40 MSTORE DUP1 MLOAD SWAP1 PUSH1 0x20 ADD KECCAK256 SUB PUSH2 0x1510 JUMPI PUSH2 0x14D3 DUP5 DUP3 PUSH2 0x405 JUMP JUMPDEST DUP4 PUSH32 0x8F8994662430CBB3A0B089F812F1C51F46EF020E2CCC019CEE8988C3312B4A66 DUP3 PUSH1 0x40 MLOAD PUSH2 0x1503 SWAP2 SWAP1 PUSH2 0x3247 JUMP JUMPDEST PUSH1 0x40 MLOAD DUP1 SWAP2 SUB SWAP1 LOG2 PUSH2 0x154B JUMP JUMPDEST PUSH1 0x40 MLOAD PUSH32 0x8C379A000000000000000000000000000000000000000000000000000000000 DUP2 MSTORE PUSH1 0x4 ADD PUSH2 0x1542 SWAP1 PUSH2 0x3DC1 JUMP JUMPDEST PUSH1 0x40 MLOAD DUP1 SWAP2 SUB SWAP1 REVERT JUMPDEST JUMPDEST JUMPDEST DUP4 PUSH32 0x603489D1E5E10E7B7393A68B1707E0B98E7976704197482DC200A6B34674B54A PUSH1 0x5 PUSH0 DUP8 DUP2 MSTORE PUSH1 0x20 ADD SWAP1 DUP2 MSTORE PUSH1 0x20 ADD PUSH0 KECCAK256 PUSH1 0x7 ADD PUSH1 0x40 MLOAD PUSH2 0x1590 SWAP2 SWAP1 PUSH2 0x3C74 JUMP JUMPDEST PUSH1 0x40 MLOAD DUP1 SWAP2 SUB SWAP1 LOG2 POP POP POP POP JUMP JUMPDEST PUSH1 0x3 PUSH0 CALLER PUSH20 0xFFFFFFFFFFFFFFFFFFFFFFFFFFFFFFFFFFFFFFFF AND PUSH20 0xFFFFFFFFFFFFFFFFFFFFFFFFFFFFFFFFFFFFFFFF AND DUP2 MSTORE PUSH1 0x20 ADD SWAP1 DUP2 MSTORE PUSH1 0x20 ADD PUSH0 KECCAK256 PUSH0 SWAP1 SLOAD SWAP1 PUSH2 0x100 EXP SWAP1 DIV PUSH1 0xFF AND PUSH2 0x1627 JUMPI PUSH1 0x40 MLOAD PUSH32 0x8C379A000000000000000000000000000000000000000000000000000000000 DUP2 MSTORE PUSH1 0x4 ADD PUSH2 0x161E SWAP1 PUSH2 0x3527 JUMP JUMPDEST PUSH1 0x40 MLOAD DUP1 SWAP2 SUB SWAP1 REVERT JUMPDEST PUSH0 DUP3 GT DUP1 ISZERO PUSH2 0x1638 JUMPI POP PUSH1 0x1 SLOAD DUP3 GT ISZERO JUMPDEST PUSH2 0x1677 JUMPI PUSH1 0x40 MLOAD PUSH32 0x8C379A000000000000000000000000000000000000000000000000000000000 DUP2 MSTORE PUSH1 0x4 ADD PUSH2 0x166E SWAP1 PUSH2 0x3E29 JUMP JUMPDEST PUSH1 0x40 MLOAD DUP1 SWAP2 SUB SWAP1 REVERT JUMPDEST PUSH1 0x4 PUSH0 DUP4 DUP2 MSTORE PUSH1 0x20 ADD SWAP1 DUP2 MSTORE PUSH1 0x20 ADD PUSH0 KECCAK256 PUSH1 0x5 ADD PUSH0 SWAP1 SLOAD SWAP1 PUSH2 0x100 EXP SWAP1 DIV PUSH1 0xFF AND ISZERO PUSH2 0x16D8 JUMPI PUSH1 0x40 MLOAD PUSH32 0x8C379A000000000000000000000000000000000000000000000000000000000 DUP2 MSTORE PUSH1 0x4 ADD PUSH2 0x16CF SWAP1 PUSH2 0x3EB7 JUMP JUMPDEST PUSH1 0x40 MLOAD DUP1 SWAP2 SUB SWAP1 REVERT JUMPDEST PUSH0 PUSH20 0xFFFFFFFFFFFFFFFFFFFFFFFFFFFFFFFFFFFFFFFF AND DUP2 PUSH20 0xFFFFFFFFFFFFFFFFFFFFFFFFFFFFFFFFFFFFFFFF AND SUB PUSH2 0x1746 JUMPI PUSH1 0x40 MLOAD PUSH32 0x8C379A000000000000000000000000000000000000000000000000000000000 DUP2 MSTORE PUSH1 0x4 ADD PUSH2 0x173D SWAP1 PUSH2 0x3F1F JUMP JUMPDEST PUSH1 0x40 MLOAD DUP1 SWAP2 SUB SWAP1 REVERT JUMPDEST PUSH1 0x3 PUSH0 DUP3 PUSH20 0xFFFFFFFFFFFFFFFFFFFFFFFFFFFFFFFFFFFFFFFF AND PUSH20 0xFFFFFFFFFFFFFFFFFFFFFFFFFFFFFFFFFFFFFFFF AND DUP2 MSTORE PUSH1 0x20 ADD SWAP1 DUP2 MSTORE PUSH1 0x20 ADD PUSH0 KECCAK256 PUSH0 SWAP1 SLOAD SWAP1 PUSH2 0x100 EXP SWAP1 DIV PUSH1 0xFF AND PUSH2 0x17CF JUMPI PUSH1 0x40 MLOAD PUSH32 0x8C379A000000000000000000000000000000000000000000000000000000000 DUP2 MSTORE PUSH1 0x4 ADD PUSH2 0x17C6 SWAP1 PUSH2 0x3F87 JUMP JUMPDEST PUSH1 0x40 MLOAD DUP1 SWAP2 SUB SWAP1 REVERT JUMPDEST CALLER PUSH20 0xFFFFFFFFFFFFFFFFFFFFFFFFFFFFFFFFFFFFFFFF AND PUSH1 0x4 PUSH0 DUP5 DUP2 MSTORE PUSH1 0x20 ADD SWAP1 DUP2 MSTORE PUSH1 0x20 ADD PUSH0 KECCAK256 PUSH1 0x3 ADD PUSH0 SWAP1 SLOAD SWAP1 PUSH2 0x100 EXP SWAP1 DIV PUSH20 0xFFFFFFFFFFFFFFFFFFFFFFFFFFFFFFFFFFFFFFFF AND PUSH20 0xFFFFFFFFFFFFFFFFFFFFFFFFFFFFFFFFFFFFFFFF AND EQ PUSH2 0x1870 JUMPI PUSH1 0x40 MLOAD PUSH32 0x8C379A000000000000000000000000000000000000000000000000000000000 DUP2 MSTORE PUSH1 0x4 ADD PUSH2 0x1867 SWAP1 PUSH2 0x3FEF JUMP JUMPDEST PUSH1 0x40 MLOAD DUP1 SWAP2 SUB SWAP1 REVERT JUMPDEST PUSH0 PUSH1 0x4 PUSH0 DUP5 DUP2 MSTORE PUSH1 0x20 ADD SWAP1 DUP2 MSTORE PUSH1 0x20 ADD PUSH0 KECCAK256 PUSH1 0x3 ADD PUSH0 SWAP1 SLOAD SWAP1 PUSH2 0x100 EXP SWAP1 DIV PUSH20 0xFFFFFFFFFFFFFFFFFFFFFFFFFFFFFFFFFFFFFFFF AND SWAP1 POP DUP2 PUSH1 0x4 PUSH0 DUP6 DUP2 MSTORE PUSH1 0x20 ADD SWAP1 DUP2 MSTORE PUSH1 0x20 ADD PUSH0 KECCAK256 PUSH1 0x3 ADD PUSH0 PUSH2 0x100 EXP DUP2 SLOAD DUP2 PUSH20 0xFFFFFFFFFFFFFFFFFFFFFFFFFFFFFFFFFFFFFFFF MUL NOT AND SWAP1 DUP4 PUSH20 0xFFFFFFFFFFFFFFFFFFFFFFFFFFFFFFFFFFFFFFFF AND MUL OR SWAP1 SSTORE POP TIMESTAMP PUSH1 0x4 PUSH0 DUP6 DUP2 MSTORE PUSH1 0x20 ADD SWAP1 DUP2 MSTORE PUSH1 0x20 ADD PUSH0 KECCAK256 PUSH1 0x4 ADD DUP2 SWAP1 SSTORE POP DUP2 PUSH20 0xFFFFFFFFFFFFFFFFFFFFFFFFFFFFFFFFFFFFFFFF AND DUP2 PUSH20 0xFFFFFFFFFFFFFFFFFFFFFFFFFFFFFFFFFFFFFFFF AND DUP5 PUSH32 0x16B85F49BF01212961345D3016C9A531894ACCF62EB7680F2045D79185CC0EC0 PUSH1 0x40 MLOAD PUSH1 0x40 MLOAD DUP1 SWAP2 SUB SWAP1 LOG4 POP POP POP JUMP JUMPDEST PUSH1 0x3 PUSH1 0x20 MSTORE DUP1 PUSH0 MSTORE PUSH1 0x40 PUSH0 KECCAK256 PUSH0 SWAP2 POP SLOAD SWAP1 PUSH2 0x100 EXP SWAP1 DIV PUSH1 0xFF AND DUP2 JUMP JUMPDEST PUSH0 DUP1 SLOAD SWAP1 PUSH2 0x100 EXP SWAP1 DIV PUSH20 0xFFFFFFFFFFFFFFFFFFFFFFFFFFFFFFFFFFFFFFFF AND DUP2 JUMP JUMPDEST PUSH1 0x3 PUSH0 CALLER PUSH20 0xFFFFFFFFFFFFFFFFFFFFFFFFFFFFFFFFFFFFFFFF AND PUSH20 0xFFFFFFFFFFFFFFFFFFFFFFFFFFFFFFFFFFFFFFFF AND DUP2 MSTORE PUSH1 0x20 ADD SWAP1 DUP2 MSTORE PUSH1 0x20 ADD PUSH0 KECCAK256 PUSH0 SWAP1 SLOAD SWAP1 PUSH2 0x100 EXP SWAP1 DIV PUSH1 0xFF AND PUSH2 0x1A3B JUMPI PUSH1 0x40 MLOAD PUSH32 0x8C379A000000000000000000000000000000000000000000000000000000000 DUP2 MSTORE PUSH1 0x4 ADD PUSH2 0x1A32 SWAP1 PUSH2 0x3527 JUMP JUMPDEST PUSH1 0x40 MLOAD DUP1 SWAP2 SUB SWAP1 REVERT JUMPDEST PUSH0 DUP3 MLOAD GT PUSH2 0x1A7E JUMPI PUSH1 0x40 MLOAD PUSH32 0x8C379A000000000000000000000000000000000000000000000000000000000 DUP2 MSTORE PUSH1 0x4 ADD PUSH2 0x1A75 SWAP1 PUSH2 0x4057 JUMP JUMPDEST PUSH1 0x40 MLOAD DUP1 SWAP2 SUB SWAP1 REVERT JUMPDEST PUSH0 DUP2 MLOAD GT PUSH2 0x1AC1 JUMPI PUSH1 0x40 MLOAD PUSH32 0x8C379A000000000000000000000000000000000000000000000000000000000 DUP2 MSTORE PUSH1 0x4 ADD PUSH2 0x1AB8 SWAP1 PUSH2 0x40BF JUMP JUMPDEST PUSH1 0x40 MLOAD DUP1 SWAP2 SUB SWAP1 REVERT JUMPDEST PUSH1 0x1 PUSH0 DUP2 SLOAD DUP1 SWAP3 SWAP2 SWAP1 PUSH2 0x1AD3 SWAP1 PUSH2 0x3940 JUMP JUMPDEST SWAP2 SWAP1 POP SSTORE POP PUSH0 PUSH1 0x1 SLOAD SWAP1 POP PUSH1 0x40 MLOAD DUP1 PUSH1 0xC0 ADD PUSH1 0x40 MSTORE DUP1 DUP3 DUP2 MSTORE PUSH1 0x20 ADD DUP5 DUP2 MSTORE PUSH1 0x20 ADD DUP4 DUP2 MSTORE PUSH1 0x20 ADD CALLER PUSH20 0xFFFFFFFFFFFFFFFFFFFFFFFFFFFFFFFFFFFFFFFF AND DUP2 MSTORE PUSH1 0x20 ADD TIMESTAMP DUP2 MSTORE PUSH1 0x20 ADD PUSH0 ISZERO ISZERO DUP2 MSTORE POP PUSH1 0x4 PUSH0 DUP4 DUP2 MSTORE PUSH1 0x20 ADD SWAP1 DUP2 MSTORE PUSH1 0x20 ADD PUSH0 KECCAK256 PUSH0 DUP3 ADD MLOAD DUP2 PUSH0 ADD SSTORE PUSH1 0x20 DUP3 ADD MLOAD DUP2 PUSH1 0x1 ADD SWAP1 DUP2 PUSH2 0x1B51 SWAP2 SWAP1 PUSH2 0x3B24 JUMP JUMPDEST POP PUSH1 0x40 DUP3 ADD MLOAD DUP2 PUSH1 0x2 ADD SWAP1 DUP2 PUSH2 0x1B67 SWAP2 SWAP1 PUSH2 0x3B24 JUMP JUMPDEST POP PUSH1 0x60 DUP3 ADD MLOAD DUP2 PUSH1 0x3 ADD PUSH0 PUSH2 0x100 EXP DUP2 SLOAD DUP2 PUSH20 0xFFFFFFFFFFFFFFFFFFFFFFFFFFFFFFFFFFFFFFFF MUL NOT AND SWAP1 DUP4 PUSH20 0xFFFFFFFFFFFFFFFFFFFFFFFFFFFFFFFFFFFFFFFF AND MUL OR SWAP1 SSTORE POP PUSH1 0x80 DUP3 ADD MLOAD DUP2 PUSH1 0x4 ADD SSTORE PUSH1 0xA0 DUP3 ADD MLOAD DUP2 PUSH1 0x5 ADD PUSH0 PUSH2 0x100 EXP DUP2 SLOAD DUP2 PUSH1 0xFF MUL NOT AND SWAP1 DUP4 ISZERO ISZERO MUL OR SWAP1 SSTORE POP SWAP1 POP POP PUSH0 DUP1 SLOAD SWAP1 PUSH2 0x100 EXP SWAP1 DIV PUSH20 0xFFFFFFFFFFFFFFFFFFFFFFFFFFFFFFFFFFFFFFFF AND PUSH20 0xFFFFFFFFFFFFFFFFFFFFFFFFFFFFFFFFFFFFFFFF AND DUP2 PUSH32 0xCAB8542FAD5393D8A674AE5BB9094C309E41FDF2BF941B1D4A44FB4A790FF1C DUP6 PUSH1 0x40 MLOAD PUSH2 0x1C40 SWAP2 SWAP1 PUSH2 0x3247 JUMP JUMPDEST PUSH1 0x40 MLOAD DUP1 SWAP2 SUB SWAP1 LOG3 POP POP POP JUMP JUMPDEST PUSH1 0x3 PUSH0 CALLER PUSH20 0xFFFFFFFFFFFFFFFFFFFFFFFFFFFFFFFFFFFFFFFF AND PUSH20 0xFFFFFFFFFFFFFFFFFFFFFFFFFFFFFFFFFFFFFFFF AND DUP2 MSTORE PUSH1 0x20 ADD SWAP1 DUP2 MSTORE PUSH1 0x20 ADD PUSH0 KECCAK256 PUSH0 SWAP1 SLOAD SWAP1 PUSH2 0x100 EXP SWAP1 DIV PUSH1 0xFF AND PUSH2 0x1CD6 JUMPI PUSH1 0x40 MLOAD PUSH32 0x8C379A000000000000000000000000000000000000000000000000000000000 DUP2 MSTORE PUSH1 0x4 ADD PUSH2 0x1CCD SWAP1 PUSH2 0x3527 JUMP JUMPDEST PUSH1 0x40 MLOAD DUP1 SWAP2 SUB SWAP1 REVERT JUMPDEST PUSH2 0x1CDF DUP3 PUSH2 0x1E15 JUMP JUMPDEST PUSH2 0x1D1E JUMPI PUSH1 0x40 MLOAD PUSH32 0x8C379A000000000000000000000000000000000000000000000000000000000 DUP2 MSTORE PUSH1 0x4 ADD PUSH2 0x1D15 SWAP1 PUSH2 0x4127 JUMP JUMPDEST PUSH1 0x40 MLOAD DUP1 SWAP2 SUB SWAP1 REVERT JUMPDEST PUSH1 0x4 PUSH0 DUP4 DUP2 MSTORE PUSH1 0x20 ADD SWAP1 DUP2 MSTORE PUSH1 0x20 ADD PUSH0 KECCAK256 PUSH1 0x5 ADD PUSH0 SWAP1 SLOAD SWAP1 PUSH2 0x100 EXP SWAP1 DIV PUSH1 0xFF AND ISZERO PUSH2 0x1D7F JUMPI PUSH1 0x40 MLOAD PUSH32 0x8C379A000000000000000000000000000000000000000000000000000000000 DUP2 MSTORE PUSH1 0x4 ADD PUSH2 0x1D76 SWAP1 PUSH2 0x418F JUMP JUMPDEST PUSH1 0x40 MLOAD DUP1 SWAP2 SUB SWAP1 REVERT JUMPDEST PUSH1 0x1 PUSH1 0x4 PUSH0 DUP5 DUP2 MSTORE PUSH1 0x20 ADD SWAP1 DUP2 MSTORE PUSH1 0x20 ADD PUSH0 KECCAK256 PUSH1 0x5 ADD PUSH0 PUSH2 0x100 EXP DUP2 SLOAD DUP2 PUSH1 0xFF MUL NOT AND SWAP1 DUP4 ISZERO ISZERO MUL OR SWAP1 SSTORE POP DUP2 PUSH32 0xCF945375036EE1FF64A8885B9C36844AC503B07AD7B0B3B78D023EB0A4CC623C DUP3 PUSH1 0x40 MLOAD PUSH2 0x1DDB SWAP2 SWAP1 PUSH2 0x3247 JUMP JUMPDEST PUSH1 0x40 MLOAD DUP1 SWAP2 SUB SWAP1 LOG2 POP POP JUMP JUMPDEST PUSH0 DUP1 PUSH1 0x5 PUSH0 DUP5 DUP2 MSTORE PUSH1 0x20 ADD SWAP1 DUP2 MSTORE PUSH1 0x20 ADD PUSH0 KECCAK256 PUSH1 0x6 ADD SLOAD EQ PUSH2 0x1E0C JUMPI PUSH1 0x1 SWAP1 POP PUSH2 0x1E10 JUMP JUMPDEST PUSH0 SWAP1 POP JUMPDEST SWAP2 SWAP1 POP JUMP JUMPDEST PUSH0 DUP1 PUSH1 0x1 SWAP1 POP JUMPDEST PUSH1 0x1 SLOAD DUP2 GT PUSH2 0x1E5C JUMPI DUP3 PUSH1 0x4 PUSH0 DUP4 DUP2 MSTORE PUSH1 0x20 ADD SWAP1 DUP2 MSTORE PUSH1 0x20 ADD PUSH0 KECCAK256 PUSH0 ADD SLOAD SUB PUSH2 0x1E49 JUMPI PUSH1 0x1 SWAP2 POP POP PUSH2 0x1E61 JUMP JUMPDEST DUP1 DUP1 PUSH2 0x1E54 SWAP1 PUSH2 0x3940 JUMP JUMPDEST SWAP2 POP POP PUSH2 0x1E1C JUMP JUMPDEST POP PUSH0 SWAP1 POP JUMPDEST SWAP2 SWAP1 POP JUMP JUMPDEST PUSH1 0x5 PUSH1 0x20 MSTORE DUP1 PUSH0 MSTORE PUSH1 0x40 PUSH0 KECCAK256 PUSH0 SWAP2 POP SWAP1 POP DUP1 PUSH1 0x3 ADD PUSH0 SWAP1 SLOAD SWAP1 PUSH2 0x100 EXP SWAP1 DIV PUSH20 0xFFFFFFFFFFFFFFFFFFFFFFFFFFFFFFFFFFFFFFFF AND SWAP1 DUP1 PUSH1 0x4 ADD SLOAD SWAP1 DUP1 PUSH1 0x5 ADD PUSH0 SWAP1 SLOAD SWAP1 PUSH2 0x100 EXP SWAP1 DIV PUSH1 0xFF AND SWAP1 DUP1 PUSH1 0x6 ADD SLOAD SWAP1 DUP1 PUSH1 0x7 ADD DUP1 SLOAD PUSH2 0x1EC9 SWAP1 PUSH2 0x36D7 JUMP JUMPDEST DUP1 PUSH1 0x1F ADD PUSH1 0x20 DUP1 SWAP2 DIV MUL PUSH1 0x20 ADD PUSH1 0x40 MLOAD SWAP1 DUP2 ADD PUSH1 0x40 MSTORE DUP1 SWAP3 SWAP2 SWAP1 DUP2 DUP2 MSTORE PUSH1 0x20 ADD DUP3 DUP1 SLOAD PUSH2 0x1EF5 SWAP1 PUSH2 0x36D7 JUMP JUMPDEST DUP1 ISZERO PUSH2 0x1F40 JUMPI DUP1 PUSH1 0x1F LT PUSH2 0x1F17 JUMPI PUSH2 0x100 DUP1 DUP4 SLOAD DIV MUL DUP4 MSTORE SWAP2 PUSH1 0x20 ADD SWAP2 PUSH2 0x1F40 JUMP JUMPDEST DUP3 ADD SWAP2 SWAP1 PUSH0 MSTORE PUSH1 0x20 PUSH0 KECCAK256 SWAP1 JUMPDEST DUP2 SLOAD DUP2 MSTORE SWAP1 PUSH1 0x1 ADD SWAP1 PUSH1 0x20 ADD DUP1 DUP4 GT PUSH2 0x1F23 JUMPI DUP3 SWAP1 SUB PUSH1 0x1F AND DUP3 ADD SWAP2 JUMPDEST POP POP POP POP POP SWAP1 POP DUP6 JUMP JUMPDEST PUSH0 PUSH1 0x60 PUSH0 DUP1 PUSH0 DUP1 PUSH1 0x4 PUSH0 DUP9 DUP2 MSTORE PUSH1 0x20 ADD SWAP1 DUP2 MSTORE PUSH1 0x20 ADD PUSH0 KECCAK256 PUSH1 0x40 MLOAD DUP1 PUSH1 0xC0 ADD PUSH1 0x40 MSTORE SWAP1 DUP2 PUSH0 DUP3 ADD SLOAD DUP2 MSTORE PUSH1 0x20 ADD PUSH1 0x1 DUP3 ADD DUP1 SLOAD PUSH2 0x1F86 SWAP1 PUSH2 0x36D7 JUMP JUMPDEST DUP1 PUSH1 0x1F ADD PUSH1 0x20 DUP1 SWAP2 DIV MUL PUSH1 0x20 ADD PUSH1 0x40 MLOAD SWAP1 DUP2 ADD PUSH1 0x40 MSTORE DUP1 SWAP3 SWAP2 SWAP1 DUP2 DUP2 MSTORE PUSH1 0x20 ADD DUP3 DUP1 SLOAD PUSH2 0x1FB2 SWAP1 PUSH2 0x36D7 JUMP JUMPDEST DUP1 ISZERO PUSH2 0x1FFD JUMPI DUP1 PUSH1 0x1F LT PUSH2 0x1FD4 JUMPI PUSH2 0x100 DUP1 DUP4 SLOAD DIV MUL DUP4 MSTORE SWAP2 PUSH1 0x20 ADD SWAP2 PUSH2 0x1FFD JUMP JUMPDEST DUP3 ADD SWAP2 SWAP1 PUSH0 MSTORE PUSH1 0x20 PUSH0 KECCAK256 SWAP1 JUMPDEST DUP2 SLOAD DUP2 MSTORE SWAP1 PUSH1 0x1 ADD SWAP1 PUSH1 0x20 ADD DUP1 DUP4 GT PUSH2 0x1FE0 JUMPI DUP3 SWAP1 SUB PUSH1 0x1F AND DUP3 ADD SWAP2 JUMPDEST POP POP POP POP POP DUP2 MSTORE PUSH1 0x20 ADD PUSH1 0x2 DUP3 ADD DUP1 SLOAD PUSH2 0x2016 SWAP1 PUSH2 0x36D7 JUMP JUMPDEST DUP1 PUSH1 0x1F ADD PUSH1 0x20 DUP1 SWAP2 DIV MUL PUSH1 0x20 ADD PUSH1 0x40 MLOAD SWAP1 DUP2 ADD PUSH1 0x40 MSTORE DUP1 SWAP3 SWAP2 SWAP1 DUP2 DUP2 MSTORE PUSH1 0x20 ADD DUP3 DUP1 SLOAD PUSH2 0x2042 SWAP1 PUSH2 0x36D7 JUMP JUMPDEST DUP1 ISZERO PUSH2 0x208D JUMPI DUP1 PUSH1 0x1F LT PUSH2 0x2064 JUMPI PUSH2 0x100 DUP1 DUP4 SLOAD DIV MUL DUP4 MSTORE SWAP2 PUSH1 0x20 ADD SWAP2 PUSH2 0x208D JUMP JUMPDEST DUP3 ADD SWAP2 SWAP1 PUSH0 MSTORE PUSH1 0x20 PUSH0 KECCAK256 SWAP1 JUMPDEST DUP2 SLOAD DUP2 MSTORE SWAP1 PUSH1 0x1 ADD SWAP1 PUSH1 0x20 ADD DUP1 DUP4 GT PUSH2 0x2070 JUMPI DUP3 SWAP1 SUB PUSH1 0x1F AND DUP3 ADD SWAP2 JUMPDEST POP POP POP POP POP DUP2 MSTORE PUSH1 0x20 ADD PUSH1 0x3 DUP3 ADD PUSH0 SWAP1 SLOAD SWAP1 PUSH2 0x100 EXP SWAP1 DIV PUSH20 0xFFFFFFFFFFFFFFFFFFFFFFFFFFFFFFFFFFFFFFFF AND PUSH20 0xFFFFFFFFFFFFFFFFFFFFFFFFFFFFFFFFFFFFFFFF AND PUSH20 0xFFFFFFFFFFFFFFFFFFFFFFFFFFFFFFFFFFFFFFFF AND DUP2 MSTORE PUSH1 0x20 ADD PUSH1 0x4 DUP3 ADD SLOAD DUP2 MSTORE PUSH1 0x20 ADD PUSH1 0x5 DUP3 ADD PUSH0 SWAP1 SLOAD SWAP1 PUSH2 0x100 EXP SWAP1 DIV PUSH1 0xFF AND ISZERO ISZERO ISZERO ISZERO DUP2 MSTORE POP POP SWAP1 POP DUP1 PUSH0 ADD MLOAD DUP2 PUSH1 0x20 ADD MLOAD DUP3 PUSH1 0x60 ADD MLOAD DUP4 PUSH1 0x80 ADD MLOAD DUP5 PUSH1 0xA0 ADD MLOAD SWAP6 POP SWAP6 POP SWAP6 POP SWAP6 POP SWAP6 POP POP SWAP2 SWAP4 SWAP6 SWAP1 SWAP3 SWAP5 POP JUMP JUMPDEST PUSH0 DUP1 SLOAD SWAP1 PUSH2 0x100 EXP SWAP1 DIV PUSH20 0xFFFFFFFFFFFFFFFFFFFFFFFFFFFFFFFFFFFFFFFF AND PUSH20 0xFFFFFFFFFFFFFFFFFFFFFFFFFFFFFFFFFFFFFFFF AND CALLER PUSH20 0xFFFFFFFFFFFFFFFFFFFFFFFFFFFFFFFFFFFFFFFF AND EQ PUSH2 0x21CA JUMPI PUSH1 0x40 MLOAD PUSH32 0x8C379A000000000000000000000000000000000000000000000000000000000 DUP2 MSTORE PUSH1 0x4 ADD PUSH2 0x21C1 SWAP1 PUSH2 0x41F7 JUMP JUMPDEST PUSH1 0x40 MLOAD DUP1 SWAP2 SUB SWAP1 REVERT JUMPDEST PUSH0 PUSH20 0xFFFFFFFFFFFFFFFFFFFFFFFFFFFFFFFFFFFFFFFF AND DUP2 PUSH20 0xFFFFFFFFFFFFFFFFFFFFFFFFFFFFFFFFFFFFFFFF AND SUB PUSH2 0x2238 JUMPI PUSH1 0x40 MLOAD PUSH32 0x8C379A000000000000000000000000000000000000000000000000000000000 DUP2 MSTORE PUSH1 0x4 ADD PUSH2 0x222F SWAP1 PUSH2 0x425F JUMP JUMPDEST PUSH1 0x40 MLOAD DUP1 SWAP2 SUB SWAP1 REVERT JUMPDEST PUSH1 0x3 PUSH0 DUP3 PUSH20 0xFFFFFFFFFFFFFFFFFFFFFFFFFFFFFFFFFFFFFFFF AND PUSH20 0xFFFFFFFFFFFFFFFFFFFFFFFFFFFFFFFFFFFFFFFF AND DUP2 MSTORE PUSH1 0x20 ADD SWAP1 DUP2 MSTORE PUSH1 0x20 ADD PUSH0 KECCAK256 PUSH0 SWAP1 SLOAD SWAP1 PUSH2 0x100 EXP SWAP1 DIV PUSH1 0xFF AND ISZERO PUSH2 0x22C2 JUMPI PUSH1 0x40 MLOAD PUSH32 0x8C379A000000000000000000000000000000000000000000000000000000000 DUP2 MSTORE PUSH1 0x4 ADD PUSH2 0x22B9 SWAP1 PUSH2 0x42C7 JUMP JUMPDEST PUSH1 0x40 MLOAD DUP1 SWAP2 SUB SWAP1 REVERT JUMPDEST PUSH1 0x1 PUSH1 0x3 PUSH0 DUP4 PUSH20 0xFFFFFFFFFFFFFFFFFFFFFFFFFFFFFFFFFFFFFFFF AND PUSH20 0xFFFFFFFFFFFFFFFFFFFFFFFFFFFFFFFFFFFFFFFF AND DUP2 MSTORE PUSH1 0x20 ADD SWAP1 DUP2 MSTORE PUSH1 0x20 ADD PUSH0 KECCAK256 PUSH0 PUSH2 0x100 EXP DUP2 SLOAD DUP2 PUSH1 0xFF MUL NOT AND SWAP1 DUP4 ISZERO ISZERO MUL OR SWAP1 SSTORE POP DUP1 PUSH20 0xFFFFFFFFFFFFFFFFFFFFFFFFFFFFFFFFFFFFFFFF AND PUSH32 0x3CBCBB9BA5A54D0762F39FD455FD2900FBCFCD0E0693E2C87DB13043C400B55F PUSH1 0x40 MLOAD PUSH1 0x40 MLOAD DUP1 SWAP2 SUB SWAP1 LOG2 POP JUMP JUMPDEST PUSH1 0x60 PUSH1 0x1 DUP3 SUB PUSH2 0x23A4 JUMPI PUSH1 0x40 MLOAD DUP1 PUSH1 0x40 ADD PUSH1 0x40 MSTORE DUP1 PUSH1 0xE DUP2 MSTORE PUSH1 0x20 ADD PUSH32 0x7265736769737465724261746368000000000000000000000000000000000000 DUP2 MSTORE POP SWAP1 POP PUSH2 0x242F JUMP JUMPDEST PUSH1 0x2 DUP3 SUB PUSH2 0x23E9 JUMPI PUSH1 0x40 MLOAD DUP1 PUSH1 0x40 ADD PUSH1 0x40 MSTORE DUP1 PUSH1 0xD DUP2 MSTORE PUSH1 0x20 ADD PUSH32 0x7472616E73666572426174636800000000000000000000000000000000000000 DUP2 MSTORE POP SWAP1 POP PUSH2 0x242F JUMP JUMPDEST PUSH1 0x3 DUP3 SUB PUSH2 0x242E JUMPI PUSH1 0x40 MLOAD DUP1 PUSH1 0x40 ADD PUSH1 0x40 MSTORE DUP1 PUSH1 0xB DUP2 MSTORE PUSH1 0x20 ADD PUSH32 0x726563616C6C4261746368000000000000000000000000000000000000000000 DUP2 MSTORE POP SWAP1 POP PUSH2 0x242F JUMP JUMPDEST JUMPDEST SWAP2 SWAP1 POP JUMP JUMPDEST PUSH1 0x1 SLOAD DUP2 JUMP JUMPDEST PUSH1 0x3 PUSH0 CALLER PUSH20 0xFFFFFFFFFFFFFFFFFFFFFFFFFFFFFFFFFFFFFFFF AND PUSH20 0xFFFFFFFFFFFFFFFFFFFFFFFFFFFFFFFFFFFFFFFF AND DUP2 MSTORE PUSH1 0x20 ADD SWAP1 DUP2 MSTORE PUSH1 0x20 ADD PUSH0 KECCAK256 PUSH0 SWAP1 SLOAD SWAP1 PUSH2 0x100 EXP SWAP1 DIV PUSH1 0xFF AND PUSH2 0x24C3 JUMPI PUSH1 0x40 MLOAD PUSH32 0x8C379A000000000000000000000000000000000000000000000000000000000 DUP2 MSTORE PUSH1 0x4 ADD PUSH2 0x24BA SWAP1 PUSH2 0x3527 JUMP JUMPDEST PUSH1 0x40 MLOAD DUP1 SWAP2 SUB SWAP1 REVERT JUMPDEST PUSH1 0x40 MLOAD PUSH1 0x20 ADD PUSH2 0x24D2 SWAP1 PUSH2 0x382B JUMP JUMPDEST PUSH1 0x40 MLOAD PUSH1 0x20 DUP2 DUP4 SUB SUB DUP2 MSTORE SWAP1 PUSH1 0x40 MSTORE DUP1 MLOAD SWAP1 PUSH1 0x20 ADD KECCAK256 DUP2 PUSH1 0x40 MLOAD PUSH1 0x20 ADD PUSH2 0x24F9 SWAP2 SWAP1 PUSH2 0x386F JUMP JUMPDEST PUSH1 0x40 MLOAD PUSH1 0x20 DUP2 DUP4 SUB SUB DUP2 MSTORE SWAP1 PUSH1 0x40 MSTORE DUP1 MLOAD SWAP1 PUSH1 0x20 ADD KECCAK256 SUB PUSH2 0x25A0 JUMPI PUSH0 DUP5 MLOAD EQ PUSH2 0x2557 JUMPI PUSH1 0x40 MLOAD PUSH32 0x8C379A000000000000000000000000000000000000000000000000000000000 DUP2 MSTORE PUSH1 0x4 ADD PUSH2 0x254E SWAP1 PUSH2 0x4355 JUMP JUMPDEST PUSH1 0x40 MLOAD DUP1 SWAP2 SUB SWAP1 REVERT JUMPDEST DUP2 MLOAD DUP4 MLOAD EQ PUSH2 0x259B JUMPI PUSH1 0x40 MLOAD PUSH32 0x8C379A000000000000000000000000000000000000000000000000000000000 DUP2 MSTORE PUSH1 0x4 ADD PUSH2 0x2592 SWAP1 PUSH2 0x43E3 JUMP JUMPDEST PUSH1 0x40 MLOAD DUP1 SWAP2 SUB SWAP1 REVERT JUMPDEST PUSH2 0x266C JUMP JUMPDEST PUSH0 DUP5 MLOAD GT PUSH2 0x25E3 JUMPI PUSH1 0x40 MLOAD PUSH32 0x8C379A000000000000000000000000000000000000000000000000000000000 DUP2 MSTORE PUSH1 0x4 ADD PUSH2 0x25DA SWAP1 PUSH2 0x4471 JUMP JUMPDEST PUSH1 0x40 MLOAD DUP1 SWAP2 SUB SWAP1 REVERT JUMPDEST DUP3 MLOAD DUP5 MLOAD EQ PUSH2 0x2627 JUMPI PUSH1 0x40 MLOAD PUSH32 0x8C379A000000000000000000000000000000000000000000000000000000000 DUP2 MSTORE PUSH1 0x4 ADD PUSH2 0x261E SWAP1 PUSH2 0x44FF JUMP JUMPDEST PUSH1 0x40 MLOAD DUP1 SWAP2 SUB SWAP1 REVERT JUMPDEST DUP2 MLOAD DUP5 MLOAD EQ PUSH2 0x266B JUMPI PUSH1 0x40 MLOAD PUSH32 0x8C379A000000000000000000000000000000000000000000000000000000000 DUP2 MSTORE PUSH1 0x4 ADD PUSH2 0x2662 SWAP1 PUSH2 0x458D JUMP JUMPDEST PUSH1 0x40 MLOAD DUP1 SWAP2 SUB SWAP1 REVERT JUMPDEST JUMPDEST PUSH0 JUMPDEST DUP4 MLOAD DUP2 LT ISZERO PUSH2 0x26E1 JUMPI PUSH0 DUP5 DUP3 DUP2 MLOAD DUP2 LT PUSH2 0x268B JUMPI PUSH2 0x268A PUSH2 0x3615 JUMP JUMPDEST JUMPDEST PUSH1 0x20 MUL PUSH1 0x20 ADD ADD MLOAD MLOAD GT PUSH2 0x26D4 JUMPI PUSH1 0x40 MLOAD PUSH32 0x8C379A000000000000000000000000000000000000000000000000000000000 DUP2 MSTORE PUSH1 0x4 ADD PUSH2 0x26CB SWAP1 PUSH2 0x45F5 JUMP JUMPDEST PUSH1 0x40 MLOAD DUP1 SWAP2 SUB SWAP1 REVERT JUMPDEST DUP1 DUP1 PUSH1 0x1 ADD SWAP2 POP POP PUSH2 0x266E JUMP JUMPDEST POP PUSH0 JUMPDEST DUP3 MLOAD DUP2 LT ISZERO PUSH2 0x2757 JUMPI PUSH0 DUP4 DUP3 DUP2 MLOAD DUP2 LT PUSH2 0x2701 JUMPI PUSH2 0x2700 PUSH2 0x3615 JUMP JUMPDEST JUMPDEST PUSH1 0x20 MUL PUSH1 0x20 ADD ADD MLOAD MLOAD GT PUSH2 0x274A JUMPI PUSH1 0x40 MLOAD PUSH32 0x8C379A000000000000000000000000000000000000000000000000000000000 DUP2 MSTORE PUSH1 0x4 ADD PUSH2 0x2741 SWAP1 PUSH2 0x465D JUMP JUMPDEST PUSH1 0x40 MLOAD DUP1 SWAP2 SUB SWAP1 REVERT JUMPDEST DUP1 DUP1 PUSH1 0x1 ADD SWAP2 POP POP PUSH2 0x26E4 JUMP JUMPDEST POP PUSH1 0x2 PUSH0 DUP2 SLOAD DUP1 SWAP3 SWAP2 SWAP1 PUSH2 0x276A SWAP1 PUSH2 0x3940 JUMP JUMPDEST SWAP2 SWAP1 POP SSTORE POP PUSH0 PUSH1 0x2 SLOAD SWAP1 POP PUSH1 0x40 MLOAD DUP1 PUSH2 0x100 ADD PUSH1 0x40 MSTORE DUP1 DUP7 DUP2 MSTORE PUSH1 0x20 ADD DUP6 DUP2 MSTORE PUSH1 0x20 ADD DUP5 DUP2 MSTORE PUSH1 0x20 ADD CALLER PUSH20 0xFFFFFFFFFFFFFFFFFFFFFFFFFFFFFFFFFFFFFFFF AND DUP2 MSTORE PUSH1 0x20 ADD TIMESTAMP DUP2 MSTORE PUSH1 0x20 ADD PUSH0 ISZERO ISZERO DUP2 MSTORE PUSH1 0x20 ADD DUP3 DUP2 MSTORE PUSH1 0x20 ADD DUP4 DUP2 MSTORE POP PUSH1 0x5 PUSH0 DUP4 DUP2 MSTORE PUSH1 0x20 ADD SWAP1 DUP2 MSTORE PUSH1 0x20 ADD PUSH0 KECCAK256 PUSH0 DUP3 ADD MLOAD DUP2 PUSH0 ADD SWAP1 DUP1 MLOAD SWAP1 PUSH1 0x20 ADD SWAP1 PUSH2 0x27F2 SWAP3 SWAP2 SWAP1 PUSH2 0x28FE JUMP JUMPDEST POP PUSH1 0x20 DUP3 ADD MLOAD DUP2 PUSH1 0x1 ADD SWAP1 DUP1 MLOAD SWAP1 PUSH1 0x20 ADD SWAP1 PUSH2 0x280F SWAP3 SWAP2 SWAP1 PUSH2 0x2949 JUMP JUMPDEST POP PUSH1 0x40 DUP3 ADD MLOAD DUP2 PUSH1 0x2 ADD SWAP1 DUP1 MLOAD SWAP1 PUSH1 0x20 ADD SWAP1 PUSH2 0x282C SWAP3 SWAP2 SWAP1 PUSH2 0x2949 JUMP JUMPDEST POP PUSH1 0x60 DUP3 ADD MLOAD DUP2 PUSH1 0x3 ADD PUSH0 PUSH2 0x100 EXP DUP2 SLOAD DUP2 PUSH20 0xFFFFFFFFFFFFFFFFFFFFFFFFFFFFFFFFFFFFFFFF MUL NOT AND SWAP1 DUP4 PUSH20 0xFFFFFFFFFFFFFFFFFFFFFFFFFFFFFFFFFFFFFFFF AND MUL OR SWAP1 SSTORE POP PUSH1 0x80 DUP3 ADD MLOAD DUP2 PUSH1 0x4 ADD SSTORE PUSH1 0xA0 DUP3 ADD MLOAD DUP2 PUSH1 0x5 ADD PUSH0 PUSH2 0x100 EXP DUP2 SLOAD DUP2 PUSH1 0xFF MUL NOT AND SWAP1 DUP4 ISZERO ISZERO MUL OR SWAP1 SSTORE POP PUSH1 0xC0 DUP3 ADD MLOAD DUP2 PUSH1 0x6 ADD SSTORE PUSH1 0xE0 DUP3 ADD MLOAD DUP2 PUSH1 0x7 ADD SWAP1 DUP2 PUSH2 0x28BB SWAP2 SWAP1 PUSH2 0x3B24 JUMP JUMPDEST POP SWAP1 POP POP DUP1 PUSH32 0x97FF4EB42B5AF6FF38CAFBFAD77979B7FBE233BB58B2CB81EB38859456A133FD DUP4 PUSH1 0x40 MLOAD PUSH2 0x28EF SWAP2 SWAP1 PUSH2 0x3247 JUMP JUMPDEST PUSH1 0x40 MLOAD DUP1 SWAP2 SUB SWAP1 LOG2 POP POP POP POP POP JUMP JUMPDEST DUP3 DUP1 SLOAD DUP3 DUP3 SSTORE SWAP1 PUSH0 MSTORE PUSH1 0x20 PUSH0 KECCAK256 SWAP1 DUP2 ADD SWAP3 DUP3 ISZERO PUSH2 0x2938 JUMPI SWAP2 PUSH1 0x20 MUL DUP3 ADD JUMPDEST DUP3 DUP2 GT ISZERO PUSH2 0x2937 JUMPI DUP3 MLOAD DUP3 SSTORE SWAP2 PUSH1 0x20 ADD SWAP2 SWAP1 PUSH1 0x1 ADD SWAP1 PUSH2 0x291C JUMP JUMPDEST JUMPDEST POP SWAP1 POP PUSH2 0x2945 SWAP2 SWAP1 PUSH2 0x29A0 JUMP JUMPDEST POP SWAP1 JUMP JUMPDEST DUP3 DUP1 SLOAD DUP3 DUP3 SSTORE SWAP1 PUSH0 MSTORE PUSH1 0x20 PUSH0 KECCAK256 SWAP1 DUP2 ADD SWAP3 DUP3 ISZERO PUSH2 0x298F JUMPI SWAP2 PUSH1 0x20 MUL DUP3 ADD JUMPDEST DUP3 DUP2 GT ISZERO PUSH2 0x298E JUMPI DUP3 MLOAD DUP3 SWAP1 DUP2 PUSH2 0x297E SWAP2 SWAP1 PUSH2 0x3B24 JUMP JUMPDEST POP SWAP2 PUSH1 0x20 ADD SWAP2 SWAP1 PUSH1 0x1 ADD SWAP1 PUSH2 0x2967 JUMP JUMPDEST JUMPDEST POP SWAP1 POP PUSH2 0x299C SWAP2 SWAP1 PUSH2 0x29BB JUMP JUMPDEST POP SWAP1 JUMP JUMPDEST JUMPDEST DUP1 DUP3 GT ISZERO PUSH2 0x29B7 JUMPI PUSH0 DUP2 PUSH0 SWAP1 SSTORE POP PUSH1 0x1 ADD PUSH2 0x29A1 JUMP JUMPDEST POP SWAP1 JUMP JUMPDEST JUMPDEST DUP1 DUP3 GT ISZERO PUSH2 0x29DA JUMPI PUSH0 DUP2 DUP2 PUSH2 0x29D1 SWAP2 SWAP1 PUSH2 0x29DE JUMP JUMPDEST POP PUSH1 0x1 ADD PUSH2 0x29BC JUMP JUMPDEST POP SWAP1 JUMP JUMPDEST POP DUP1 SLOAD PUSH2 0x29EA SWAP1 PUSH2 0x36D7 JUMP JUMPDEST PUSH0 DUP3 SSTORE DUP1 PUSH1 0x1F LT PUSH2 0x29FB JUMPI POP PUSH2 0x2A18 JUMP JUMPDEST PUSH1 0x1F ADD PUSH1 0x20 SWAP1 DIV SWAP1 PUSH0 MSTORE PUSH1 0x20 PUSH0 KECCAK256 SWAP1 DUP2 ADD SWAP1 PUSH2 0x2A17 SWAP2 SWAP1 PUSH2 0x29A0 JUMP JUMPDEST JUMPDEST POP JUMP JUMPDEST PUSH0 PUSH1 0x40 MLOAD SWAP1 POP SWAP1 JUMP JUMPDEST PUSH0 DUP1 REVERT JUMPDEST PUSH0 DUP1 REVERT JUMPDEST PUSH0 DUP2 SWAP1 POP SWAP2 SWAP1 POP JUMP JUMPDEST PUSH2 0x2A3E DUP2 PUSH2 0x2A2C JUMP JUMPDEST DUP2 EQ PUSH2 0x2A48 JUMPI PUSH0 DUP1 REVERT JUMPDEST POP JUMP JUMPDEST PUSH0 DUP2 CALLDATALOAD SWAP1 POP PUSH2 0x2A59 DUP2 PUSH2 0x2A35 JUMP JUMPDEST SWAP3 SWAP2 POP POP JUMP JUMPDEST PUSH0 DUP1 REVERT JUMPDEST PUSH0 DUP1 REVERT JUMPDEST PUSH0 PUSH1 0x1F NOT PUSH1 0x1F DUP4 ADD AND SWAP1 POP SWAP2 SWAP1 POP JUMP JUMPDEST PUSH32 0x4E487B7100000000000000000000000000000000000000000000000000000000 PUSH0 MSTORE PUSH1 0x41 PUSH1 0x4 MSTORE PUSH1 0x24 PUSH0 REVERT JUMPDEST PUSH2 0x2AAD DUP3 PUSH2 0x2A67 JUMP JUMPDEST DUP2 ADD DUP2 DUP2 LT PUSH8 0xFFFFFFFFFFFFFFFF DUP3 GT OR ISZERO PUSH2 0x2ACC JUMPI PUSH2 0x2ACB PUSH2 0x2A77 JUMP JUMPDEST JUMPDEST DUP1 PUSH1 0x40 MSTORE POP POP POP JUMP JUMPDEST PUSH0 PUSH2 0x2ADE PUSH2 0x2A1B JUMP JUMPDEST SWAP1 POP PUSH2 0x2AEA DUP3 DUP3 PUSH2 0x2AA4 JUMP JUMPDEST SWAP2 SWAP1 POP JUMP JUMPDEST PUSH0 PUSH8 0xFFFFFFFFFFFFFFFF DUP3 GT ISZERO PUSH2 0x2B09 JUMPI PUSH2 0x2B08 PUSH2 0x2A77 JUMP JUMPDEST JUMPDEST PUSH2 0x2B12 DUP3 PUSH2 0x2A67 JUMP JUMPDEST SWAP1 POP PUSH1 0x20 DUP2 ADD SWAP1 POP SWAP2 SWAP1 POP JUMP JUMPDEST DUP3 DUP2 DUP4 CALLDATACOPY PUSH0 DUP4 DUP4 ADD MSTORE POP POP POP JUMP JUMPDEST PUSH0 PUSH2 0x2B3F PUSH2 0x2B3A DUP5 PUSH2 0x2AEF JUMP JUMPDEST PUSH2 0x2AD5 JUMP JUMPDEST SWAP1 POP DUP3 DUP2 MSTORE PUSH1 0x20 DUP2 ADD DUP5 DUP5 DUP5 ADD GT ISZERO PUSH2 0x2B5B JUMPI PUSH2 0x2B5A PUSH2 0x2A63 JUMP JUMPDEST JUMPDEST PUSH2 0x2B66 DUP5 DUP3 DUP6 PUSH2 0x2B1F JUMP JUMPDEST POP SWAP4 SWAP3 POP POP POP JUMP JUMPDEST PUSH0 DUP3 PUSH1 0x1F DUP4 ADD SLT PUSH2 0x2B82 JUMPI PUSH2 0x2B81 PUSH2 0x2A5F JUMP JUMPDEST JUMPDEST DUP2 CALLDATALOAD PUSH2 0x2B92 DUP5 DUP3 PUSH1 0x20 DUP7 ADD PUSH2 0x2B2D JUMP JUMPDEST SWAP2 POP POP SWAP3 SWAP2 POP POP JUMP JUMPDEST PUSH0 DUP1 PUSH1 0x40 DUP4 DUP6 SUB SLT ISZERO PUSH2 0x2BB1 JUMPI PUSH2 0x2BB0 PUSH2 0x2A24 JUMP JUMPDEST JUMPDEST PUSH0 PUSH2 0x2BBE DUP6 DUP3 DUP7 ADD PUSH2 0x2A4B JUMP JUMPDEST SWAP3 POP POP PUSH1 0x20 DUP4 ADD CALLDATALOAD PUSH8 0xFFFFFFFFFFFFFFFF DUP2 GT ISZERO PUSH2 0x2BDF JUMPI PUSH2 0x2BDE PUSH2 0x2A28 JUMP JUMPDEST JUMPDEST PUSH2 0x2BEB DUP6 DUP3 DUP7 ADD PUSH2 0x2B6E JUMP JUMPDEST SWAP2 POP POP SWAP3 POP SWAP3 SWAP1 POP JUMP JUMPDEST PUSH2 0x2BFE DUP2 PUSH2 0x2A2C JUMP JUMPDEST DUP3 MSTORE POP POP JUMP JUMPDEST PUSH0 PUSH1 0x20 DUP3 ADD SWAP1 POP PUSH2 0x2C17 PUSH0 DUP4 ADD DUP5 PUSH2 0x2BF5 JUMP JUMPDEST SWAP3 SWAP2 POP POP JUMP JUMPDEST PUSH0 PUSH1 0x20 DUP3 DUP5 SUB SLT ISZERO PUSH2 0x2C32 JUMPI PUSH2 0x2C31 PUSH2 0x2A24 JUMP JUMPDEST JUMPDEST PUSH0 PUSH2 0x2C3F DUP5 DUP3 DUP6 ADD PUSH2 0x2A4B JUMP JUMPDEST SWAP2 POP POP SWAP3 SWAP2 POP POP JUMP JUMPDEST PUSH0 DUP2 ISZERO ISZERO SWAP1 POP SWAP2 SWAP1 POP JUMP JUMPDEST PUSH2 0x2C5C DUP2 PUSH2 0x2C48 JUMP JUMPDEST DUP3 MSTORE POP POP JUMP JUMPDEST PUSH0 PUSH1 0x20 DUP3 ADD SWAP1 POP PUSH2 0x2C75 PUSH0 DUP4 ADD DUP5 PUSH2 0x2C53 JUMP JUMPDEST SWAP3 SWAP2 POP POP JUMP JUMPDEST PUSH0 DUP2 MLOAD SWAP1 POP SWAP2 SWAP1 POP JUMP JUMPDEST PUSH0 DUP3 DUP3 MSTORE PUSH1 0x20 DUP3 ADD SWAP1 POP SWAP3 SWAP2 POP POP JUMP JUMPDEST PUSH0 DUP2 SWAP1 POP PUSH1 0x20 DUP3 ADD SWAP1 POP SWAP2 SWAP1 POP JUMP JUMPDEST PUSH2 0x2CAD DUP2 PUSH2 0x2A2C JUMP JUMPDEST DUP3 MSTORE POP POP JUMP JUMPDEST PUSH0 PUSH2 0x2CBE DUP4 DUP4 PUSH2 0x2CA4 JUMP JUMPDEST PUSH1 0x20 DUP4 ADD SWAP1 POP SWAP3 SWAP2 POP POP JUMP JUMPDEST PUSH0 PUSH1 0x20 DUP3 ADD SWAP1 POP SWAP2 SWAP1 POP JUMP JUMPDEST PUSH0 PUSH2 0x2CE0 DUP3 PUSH2 0x2C7B JUMP JUMPDEST PUSH2 0x2CEA DUP2 DUP6 PUSH2 0x2C85 JUMP JUMPDEST SWAP4 POP PUSH2 0x2CF5 DUP4 PUSH2 0x2C95 JUMP JUMPDEST DUP1 PUSH0 JUMPDEST DUP4 DUP2 LT ISZERO PUSH2 0x2D25 JUMPI DUP2 MLOAD PUSH2 0x2D0C DUP9 DUP3 PUSH2 0x2CB3 JUMP JUMPDEST SWAP8 POP PUSH2 0x2D17 DUP4 PUSH2 0x2CCA JUMP JUMPDEST SWAP3 POP POP PUSH1 0x1 DUP2 ADD SWAP1 POP PUSH2 0x2CF8 JUMP JUMPDEST POP DUP6 SWAP4 POP POP POP POP SWAP3 SWAP2 POP POP JUMP JUMPDEST PUSH0 DUP2 MLOAD SWAP1 POP SWAP2 SWAP1 POP JUMP JUMPDEST PUSH0 DUP3 DUP3 MSTORE PUSH1 0x20 DUP3 ADD SWAP1 POP SWAP3 SWAP2 POP POP JUMP JUMPDEST PUSH0 DUP2 SWAP1 POP PUSH1 0x20 DUP3 ADD SWAP1 POP SWAP2 SWAP1 POP JUMP JUMPDEST PUSH0 DUP2 MLOAD SWAP1 POP SWAP2 SWAP1 POP JUMP JUMPDEST PUSH0 DUP3 DUP3 MSTORE PUSH1 0x20 DUP3 ADD SWAP1 POP SWAP3 SWAP2 POP POP JUMP JUMPDEST DUP3 DUP2 DUP4 MCOPY PUSH0 DUP4 DUP4 ADD MSTORE POP POP POP JUMP JUMPDEST PUSH0 PUSH2 0x2D8D DUP3 PUSH2 0x2D5B JUMP JUMPDEST PUSH2 0x2D97 DUP2 DUP6 PUSH2 0x2D65 JUMP JUMPDEST SWAP4 POP PUSH2 0x2DA7 DUP2 DUP6 PUSH1 0x20 DUP7 ADD PUSH2 0x2D75 JUMP JUMPDEST PUSH2 0x2DB0 DUP2 PUSH2 0x2A67 JUMP JUMPDEST DUP5 ADD SWAP2 POP POP SWAP3 SWAP2 POP POP JUMP JUMPDEST PUSH0 PUSH2 0x2DC6 DUP4 DUP4 PUSH2 0x2D83 JUMP JUMPDEST SWAP1 POP SWAP3 SWAP2 POP POP JUMP JUMPDEST PUSH0 PUSH1 0x20 DUP3 ADD SWAP1 POP SWAP2 SWAP1 POP JUMP JUMPDEST PUSH0 PUSH2 0x2DE4 DUP3 PUSH2 0x2D32 JUMP JUMPDEST PUSH2 0x2DEE DUP2 DUP6 PUSH2 0x2D3C JUMP JUMPDEST SWAP4 POP DUP4 PUSH1 0x20 DUP3 MUL DUP6 ADD PUSH2 0x2E00 DUP6 PUSH2 0x2D4C JUMP JUMPDEST DUP1 PUSH0 JUMPDEST DUP6 DUP2 LT ISZERO PUSH2 0x2E3B JUMPI DUP5 DUP5 SUB DUP10 MSTORE DUP2 MLOAD PUSH2 0x2E1C DUP6 DUP3 PUSH2 0x2DBB JUMP JUMPDEST SWAP5 POP PUSH2 0x2E27 DUP4 PUSH2 0x2DCE JUMP JUMPDEST SWAP3 POP PUSH1 0x20 DUP11 ADD SWAP10 POP POP PUSH1 0x1 DUP2 ADD SWAP1 POP PUSH2 0x2E03 JUMP JUMPDEST POP DUP3 SWAP8 POP DUP8 SWAP6 POP POP POP POP POP POP SWAP3 SWAP2 POP POP JUMP JUMPDEST PUSH0 PUSH20 0xFFFFFFFFFFFFFFFFFFFFFFFFFFFFFFFFFFFFFFFF DUP3 AND SWAP1 POP SWAP2 SWAP1 POP JUMP JUMPDEST PUSH0 PUSH2 0x2E76 DUP3 PUSH2 0x2E4D JUMP JUMPDEST SWAP1 POP SWAP2 SWAP1 POP JUMP JUMPDEST PUSH2 0x2E86 DUP2 PUSH2 0x2E6C JUMP JUMPDEST DUP3 MSTORE POP POP JUMP JUMPDEST PUSH0 DUP3 DUP3 MSTORE PUSH1 0x20 DUP3 ADD SWAP1 POP SWAP3 SWAP2 POP POP JUMP JUMPDEST PUSH0 PUSH2 0x2EA6 DUP3 PUSH2 0x2D5B JUMP JUMPDEST PUSH2 0x2EB0 DUP2 DUP6 PUSH2 0x2E8C JUMP JUMPDEST SWAP4 POP PUSH2 0x2EC0 DUP2 DUP6 PUSH1 0x20 DUP7 ADD PUSH2 0x2D75 JUMP JUMPDEST PUSH2 0x2EC9 DUP2 PUSH2 0x2A67 JUMP JUMPDEST DUP5 ADD SWAP2 POP POP SWAP3 SWAP2 POP POP JUMP JUMPDEST PUSH0 PUSH2 0x100 DUP3 ADD SWAP1 POP DUP2 DUP2 SUB PUSH0 DUP4 ADD MSTORE PUSH2 0x2EED DUP2 DUP12 PUSH2 0x2CD6 JUMP JUMPDEST SWAP1 POP DUP2 DUP2 SUB PUSH1 0x20 DUP4 ADD MSTORE PUSH2 0x2F01 DUP2 DUP11 PUSH2 0x2DDA JUMP JUMPDEST SWAP1 POP DUP2 DUP2 SUB PUSH1 0x40 DUP4 ADD MSTORE PUSH2 0x2F15 DUP2 DUP10 PUSH2 0x2DDA JUMP JUMPDEST SWAP1 POP PUSH2 0x2F24 PUSH1 0x60 DUP4 ADD DUP9 PUSH2 0x2E7D JUMP JUMPDEST PUSH2 0x2F31 PUSH1 0x80 DUP4 ADD DUP8 PUSH2 0x2BF5 JUMP JUMPDEST PUSH2 0x2F3E PUSH1 0xA0 DUP4 ADD DUP7 PUSH2 0x2C53 JUMP JUMPDEST PUSH2 0x2F4B PUSH1 0xC0 DUP4 ADD DUP6 PUSH2 0x2BF5 JUMP JUMPDEST DUP2 DUP2 SUB PUSH1 0xE0 DUP4 ADD MSTORE PUSH2 0x2F5D DUP2 DUP5 PUSH2 0x2E9C JUMP JUMPDEST SWAP1 POP SWAP10 SWAP9 POP POP POP POP POP POP POP POP POP JUMP JUMPDEST PUSH0 PUSH1 0xC0 DUP3 ADD SWAP1 POP PUSH2 0x2F7F PUSH0 DUP4 ADD DUP10 PUSH2 0x2BF5 JUMP JUMPDEST DUP2 DUP2 SUB PUSH1 0x20 DUP4 ADD MSTORE PUSH2 0x2F91 DUP2 DUP9 PUSH2 0x2E9C JUMP JUMPDEST SWAP1 POP DUP2 DUP2 SUB PUSH1 0x40 DUP4 ADD MSTORE PUSH2 0x2FA5 DUP2 DUP8 PUSH2 0x2E9C JUMP JUMPDEST SWAP1 POP PUSH2 0x2FB4 PUSH1 0x60 DUP4 ADD DUP7 PUSH2 0x2E7D JUMP JUMPDEST PUSH2 0x2FC1 PUSH1 0x80 DUP4 ADD DUP6 PUSH2 0x2BF5 JUMP JUMPDEST PUSH2 0x2FCE PUSH1 0xA0 DUP4 ADD DUP5 PUSH2 0x2C53 JUMP JUMPDEST SWAP8 SWAP7 POP POP POP POP POP POP POP JUMP JUMPDEST PUSH2 0x2FE2 DUP2 PUSH2 0x2E6C JUMP JUMPDEST DUP2 EQ PUSH2 0x2FEC JUMPI PUSH0 DUP1 REVERT JUMPDEST POP JUMP JUMPDEST PUSH0 DUP2 CALLDATALOAD SWAP1 POP PUSH2 0x2FFD DUP2 PUSH2 0x2FD9 JUMP JUMPDEST SWAP3 SWAP2 POP POP JUMP JUMPDEST PUSH0 DUP1 PUSH0 DUP1 PUSH1 0x80 DUP6 DUP8 SUB SLT ISZERO PUSH2 0x301B JUMPI PUSH2 0x301A PUSH2 0x2A24 JUMP JUMPDEST JUMPDEST PUSH0 PUSH2 0x3028 DUP8 DUP3 DUP9 ADD PUSH2 0x2A4B JUMP JUMPDEST SWAP5 POP POP PUSH1 0x20 PUSH2 0x3039 DUP8 DUP3 DUP9 ADD PUSH2 0x2FEF JUMP JUMPDEST SWAP4 POP POP PUSH1 0x40 DUP6 ADD CALLDATALOAD PUSH8 0xFFFFFFFFFFFFFFFF DUP2 GT ISZERO PUSH2 0x305A JUMPI PUSH2 0x3059 PUSH2 0x2A28 JUMP JUMPDEST JUMPDEST PUSH2 0x3066 DUP8 DUP3 DUP9 ADD PUSH2 0x2B6E JUMP JUMPDEST SWAP3 POP POP PUSH1 0x60 DUP6 ADD CALLDATALOAD PUSH8 0xFFFFFFFFFFFFFFFF DUP2 GT ISZERO PUSH2 0x3087 JUMPI PUSH2 0x3086 PUSH2 0x2A28 JUMP JUMPDEST JUMPDEST PUSH2 0x3093 DUP8 DUP3 DUP9 ADD PUSH2 0x2B6E JUMP JUMPDEST SWAP2 POP POP SWAP3 SWAP6 SWAP2 SWAP5 POP SWAP3 POP JUMP JUMPDEST PUSH0 DUP1 PUSH1 0x40 DUP4 DUP6 SUB SLT ISZERO PUSH2 0x30B5 JUMPI PUSH2 0x30B4 PUSH2 0x2A24 JUMP JUMPDEST JUMPDEST PUSH0 PUSH2 0x30C2 DUP6 DUP3 DUP7 ADD PUSH2 0x2A4B JUMP JUMPDEST SWAP3 POP POP PUSH1 0x20 PUSH2 0x30D3 DUP6 DUP3 DUP7 ADD PUSH2 0x2FEF JUMP JUMPDEST SWAP2 POP POP SWAP3 POP SWAP3 SWAP1 POP JUMP JUMPDEST PUSH0 PUSH1 0x20 DUP3 DUP5 SUB SLT ISZERO PUSH2 0x30F2 JUMPI PUSH2 0x30F1 PUSH2 0x2A24 JUMP JUMPDEST JUMPDEST PUSH0 PUSH2 0x30FF DUP5 DUP3 DUP6 ADD PUSH2 0x2FEF JUMP JUMPDEST SWAP2 POP POP SWAP3 SWAP2 POP POP JUMP JUMPDEST PUSH0 PUSH1 0x20 DUP3 ADD SWAP1 POP PUSH2 0x311B PUSH0 DUP4 ADD DUP5 PUSH2 0x2E7D JUMP JUMPDEST SWAP3 SWAP2 POP POP JUMP JUMPDEST PUSH0 DUP1 PUSH1 0x40 DUP4 DUP6 SUB SLT ISZERO PUSH2 0x3137 JUMPI PUSH2 0x3136 PUSH2 0x2A24 JUMP JUMPDEST JUMPDEST PUSH0 DUP4 ADD CALLDATALOAD PUSH8 0xFFFFFFFFFFFFFFFF DUP2 GT ISZERO PUSH2 0x3154 JUMPI PUSH2 0x3153 PUSH2 0x2A28 JUMP JUMPDEST JUMPDEST PUSH2 0x3160 DUP6 DUP3 DUP7 ADD PUSH2 0x2B6E JUMP JUMPDEST SWAP3 POP POP PUSH1 0x20 DUP4 ADD CALLDATALOAD PUSH8 0xFFFFFFFFFFFFFFFF DUP2 GT ISZERO PUSH2 0x3181 JUMPI PUSH2 0x3180 PUSH2 0x2A28 JUMP JUMPDEST JUMPDEST PUSH2 0x318D DUP6 DUP3 DUP7 ADD PUSH2 0x2B6E JUMP JUMPDEST SWAP2 POP POP SWAP3 POP SWAP3 SWAP1 POP JUMP JUMPDEST PUSH0 PUSH1 0xA0 DUP3 ADD SWAP1 POP PUSH2 0x31AA PUSH0 DUP4 ADD DUP9 PUSH2 0x2E7D JUMP JUMPDEST PUSH2 0x31B7 PUSH1 0x20 DUP4 ADD DUP8 PUSH2 0x2BF5 JUMP JUMPDEST PUSH2 0x31C4 PUSH1 0x40 DUP4 ADD DUP7 PUSH2 0x2C53 JUMP JUMPDEST PUSH2 0x31D1 PUSH1 0x60 DUP4 ADD DUP6 PUSH2 0x2BF5 JUMP JUMPDEST DUP2 DUP2 SUB PUSH1 0x80 DUP4 ADD MSTORE PUSH2 0x31E3 DUP2 DUP5 PUSH2 0x2E9C JUMP JUMPDEST SWAP1 POP SWAP7 SWAP6 POP POP POP POP POP POP JUMP JUMPDEST PUSH0 PUSH1 0xA0 DUP3 ADD SWAP1 POP PUSH2 0x3202 PUSH0 DUP4 ADD DUP9 PUSH2 0x2BF5 JUMP JUMPDEST DUP2 DUP2 SUB PUSH1 0x20 DUP4 ADD MSTORE PUSH2 0x3214 DUP2 DUP8 PUSH2 0x2E9C JUMP JUMPDEST SWAP1 POP PUSH2 0x3223 PUSH1 0x40 DUP4 ADD DUP7 PUSH2 0x2E7D JUMP JUMPDEST PUSH2 0x3230 PUSH1 0x60 DUP4 ADD DUP6 PUSH2 0x2BF5 JUMP JUMPDEST PUSH2 0x323D PUSH1 0x80 DUP4 ADD DUP5 PUSH2 0x2C53 JUMP JUMPDEST SWAP7 SWAP6 POP POP POP POP POP POP JUMP JUMPDEST PUSH0 PUSH1 0x20 DUP3 ADD SWAP1 POP DUP2 DUP2 SUB PUSH0 DUP4 ADD MSTORE PUSH2 0x325F DUP2 DUP5 PUSH2 0x2E9C JUMP JUMPDEST SWAP1 POP SWAP3 SWAP2 POP POP JUMP JUMPDEST PUSH0 PUSH8 0xFFFFFFFFFFFFFFFF DUP3 GT ISZERO PUSH2 0x3281 JUMPI PUSH2 0x3280 PUSH2 0x2A77 JUMP JUMPDEST JUMPDEST PUSH1 0x20 DUP3 MUL SWAP1 POP PUSH1 0x20 DUP2 ADD SWAP1 POP SWAP2 SWAP1 POP JUMP JUMPDEST PUSH0 DUP1 REVERT JUMPDEST PUSH0 PUSH2 0x32A8 PUSH2 0x32A3 DUP5 PUSH2 0x3267 JUMP JUMPDEST PUSH2 0x2AD5 JUMP JUMPDEST SWAP1 POP DUP1 DUP4 DUP3 MSTORE PUSH1 0x20 DUP3 ADD SWAP1 POP PUSH1 0x20 DUP5 MUL DUP4 ADD DUP6 DUP2 GT ISZERO PUSH2 0x32CB JUMPI PUSH2 0x32CA PUSH2 0x3292 JUMP JUMPDEST JUMPDEST DUP4 JUMPDEST DUP2 DUP2 LT ISZERO PUSH2 0x32F4 JUMPI DUP1 PUSH2 0x32E0 DUP9 DUP3 PUSH2 0x2A4B JUMP JUMPDEST DUP5 MSTORE PUSH1 0x20 DUP5 ADD SWAP4 POP POP PUSH1 0x20 DUP2 ADD SWAP1 POP PUSH2 0x32CD JUMP JUMPDEST POP POP POP SWAP4 SWAP3 POP POP POP JUMP JUMPDEST PUSH0 DUP3 PUSH1 0x1F DUP4 ADD SLT PUSH2 0x3312 JUMPI PUSH2 0x3311 PUSH2 0x2A5F JUMP JUMPDEST JUMPDEST DUP2 CALLDATALOAD PUSH2 0x3322 DUP5 DUP3 PUSH1 0x20 DUP7 ADD PUSH2 0x3296 JUMP JUMPDEST SWAP2 POP POP SWAP3 SWAP2 POP POP JUMP JUMPDEST PUSH0 PUSH8 0xFFFFFFFFFFFFFFFF DUP3 GT ISZERO PUSH2 0x3345 JUMPI PUSH2 0x3344 PUSH2 0x2A77 JUMP JUMPDEST JUMPDEST PUSH1 0x20 DUP3 MUL SWAP1 POP PUSH1 0x20 DUP2 ADD SWAP1 POP SWAP2 SWAP1 POP JUMP JUMPDEST PUSH0 PUSH2 0x3368 PUSH2 0x3363 DUP5 PUSH2 0x332B JUMP JUMPDEST PUSH2 0x2AD5 JUMP JUMPDEST SWAP1 POP DUP1 DUP4 DUP3 MSTORE PUSH1 0x20 DUP3 ADD SWAP1 POP PUSH1 0x20 DUP5 MUL DUP4 ADD DUP6 DUP2 GT ISZERO PUSH2 0x338B JUMPI PUSH2 0x338A PUSH2 0x3292 JUMP JUMPDEST JUMPDEST DUP4 JUMPDEST DUP2 DUP2 LT ISZERO PUSH2 0x33D2 JUMPI DUP1 CALLDATALOAD PUSH8 0xFFFFFFFFFFFFFFFF DUP2 GT ISZERO PUSH2 0x33B0 JUMPI PUSH2 0x33AF PUSH2 0x2A5F JUMP JUMPDEST JUMPDEST DUP1 DUP7 ADD PUSH2 0x33BD DUP10 DUP3 PUSH2 0x2B6E JUMP JUMPDEST DUP6 MSTORE PUSH1 0x20 DUP6 ADD SWAP5 POP POP POP PUSH1 0x20 DUP2 ADD SWAP1 POP PUSH2 0x338D JUMP JUMPDEST POP POP POP SWAP4 SWAP3 POP POP POP JUMP JUMPDEST PUSH0 DUP3 PUSH1 0x1F DUP4 ADD SLT PUSH2 0x33F0 JUMPI PUSH2 0x33EF PUSH2 0x2A5F JUMP JUMPDEST JUMPDEST DUP2 CALLDATALOAD PUSH2 0x3400 DUP5 DUP3 PUSH1 0x20 DUP7 ADD PUSH2 0x3356 JUMP JUMPDEST SWAP2 POP POP SWAP3 SWAP2 POP POP JUMP JUMPDEST PUSH0 DUP1 PUSH0 DUP1 PUSH1 0x80 DUP6 DUP8 SUB SLT ISZERO PUSH2 0x3421 JUMPI PUSH2 0x3420 PUSH2 0x2A24 JUMP JUMPDEST JUMPDEST PUSH0 DUP6 ADD CALLDATALOAD PUSH8 0xFFFFFFFFFFFFFFFF DUP2 GT ISZERO PUSH2 0x343E JUMPI PUSH2 0x343D PUSH2 0x2A28 JUMP JUMPDEST JUMPDEST PUSH2 0x344A DUP8 DUP3 DUP9 ADD PUSH2 0x32FE JUMP JUMPDEST SWAP5 POP POP PUSH1 0x20 DUP6 ADD CALLDATALOAD PUSH8 0xFFFFFFFFFFFFFFFF DUP2 GT ISZERO PUSH2 0x346B JUMPI PUSH2 0x346A PUSH2 0x2A28 JUMP JUMPDEST JUMPDEST PUSH2 0x3477 DUP8 DUP3 DUP9 ADD PUSH2 0x33DC JUMP JUMPDEST SWAP4 POP POP PUSH1 0x40 DUP6 ADD CALLDATALOAD PUSH8 0xFFFFFFFFFFFFFFFF DUP2 GT ISZERO PUSH2 0x3498 JUMPI PUSH2 0x3497 PUSH2 0x2A28 JUMP JUMPDEST JUMPDEST PUSH2 0x34A4 DUP8 DUP3 DUP9 ADD PUSH2 0x33DC JUMP JUMPDEST SWAP3 POP POP PUSH1 0x60 DUP6 ADD CALLDATALOAD PUSH8 0xFFFFFFFFFFFFFFFF DUP2 GT ISZERO PUSH2 0x34C5 JUMPI PUSH2 0x34C4 PUSH2 0x2A28 JUMP JUMPDEST JUMPDEST PUSH2 0x34D1 DUP8 DUP3 DUP9 ADD PUSH2 0x2B6E JUMP JUMPDEST SWAP2 POP POP SWAP3 SWAP6 SWAP2 SWAP5 POP SWAP3 POP JUMP JUMPDEST PUSH32 0x4E6F7420617574686F72697A6564000000000000000000000000000000000000 PUSH0 DUP3 ADD MSTORE POP JUMP JUMPDEST PUSH0 PUSH2 0x3511 PUSH1 0xE DUP4 PUSH2 0x2E8C JUMP JUMPDEST SWAP2 POP PUSH2 0x351C DUP3 PUSH2 0x34DD JUMP JUMPDEST PUSH1 0x20 DUP3 ADD SWAP1 POP SWAP2 SWAP1 POP JUMP JUMPDEST PUSH0 PUSH1 0x20 DUP3 ADD SWAP1 POP DUP2 DUP2 SUB PUSH0 DUP4 ADD MSTORE PUSH2 0x353E DUP2 PUSH2 0x3505 JUMP JUMPDEST SWAP1 POP SWAP2 SWAP1 POP JUMP JUMPDEST PUSH32 0x426174636820646F65736E277420657869737400000000000000000000000000 PUSH0 DUP3 ADD MSTORE POP JUMP JUMPDEST PUSH0 PUSH2 0x3579 PUSH1 0x13 DUP4 PUSH2 0x2E8C JUMP JUMPDEST SWAP2 POP PUSH2 0x3584 DUP3 PUSH2 0x3545 JUMP JUMPDEST PUSH1 0x20 DUP3 ADD SWAP1 POP SWAP2 SWAP1 POP JUMP JUMPDEST PUSH0 PUSH1 0x20 DUP3 ADD SWAP1 POP DUP2 DUP2 SUB PUSH0 DUP4 ADD MSTORE PUSH2 0x35A6 DUP2 PUSH2 0x356D JUMP JUMPDEST SWAP1 POP SWAP2 SWAP1 POP JUMP JUMPDEST PUSH32 0x426174636820616C726561647920726563616C6C656400000000000000000000 PUSH0 DUP3 ADD MSTORE POP JUMP JUMPDEST PUSH0 PUSH2 0x35E1 PUSH1 0x16 DUP4 PUSH2 0x2E8C JUMP JUMPDEST SWAP2 POP PUSH2 0x35EC DUP3 PUSH2 0x35AD JUMP JUMPDEST PUSH1 0x20 DUP3 ADD SWAP1 POP SWAP2 SWAP1 POP JUMP JUMPDEST PUSH0 PUSH1 0x20 DUP3 ADD SWAP1 POP DUP2 DUP2 SUB PUSH0 DUP4 ADD MSTORE PUSH2 0x360E DUP2 PUSH2 0x35D5 JUMP JUMPDEST SWAP1 POP SWAP2 SWAP1 POP JUMP JUMPDEST PUSH32 0x4E487B7100000000000000000000000000000000000000000000000000000000 PUSH0 MSTORE PUSH1 0x32 PUSH1 0x4 MSTORE PUSH1 0x24 PUSH0 REVERT JUMPDEST PUSH32 0x497420646F65736E742065786973747300000000000000000000000000000000 PUSH0 DUP3 ADD MSTORE POP JUMP JUMPDEST PUSH0 PUSH2 0x3676 PUSH1 0x10 DUP4 PUSH2 0x2E8C JUMP JUMPDEST SWAP2 POP PUSH2 0x3681 DUP3 PUSH2 0x3642 JUMP JUMPDEST PUSH1 0x20 DUP3 ADD SWAP1 POP SWAP2 SWAP1 POP JUMP JUMPDEST PUSH0 PUSH1 0x20 DUP3 ADD SWAP1 POP DUP2 DUP2 SUB PUSH0 DUP4 ADD MSTORE PUSH2 0x36A3 DUP2 PUSH2 0x366A JUMP JUMPDEST SWAP1 POP SWAP2 SWAP1 POP JUMP JUMPDEST PUSH32 0x4E487B7100000000000000000000000000000000000000000000000000000000 PUSH0 MSTORE PUSH1 0x22 PUSH1 0x4 MSTORE PUSH1 0x24 PUSH0 REVERT JUMPDEST PUSH0 PUSH1 0x2 DUP3 DIV SWAP1 POP PUSH1 0x1 DUP3 AND DUP1 PUSH2 0x36EE JUMPI PUSH1 0x7F DUP3 AND SWAP2 POP JUMPDEST PUSH1 0x20 DUP3 LT DUP2 SUB PUSH2 0x3701 JUMPI PUSH2 0x3700 PUSH2 0x36AA JUMP JUMPDEST JUMPDEST POP SWAP2 SWAP1 POP JUMP JUMPDEST PUSH32 0x426174636820697320726563616C6C6564000000000000000000000000000000 PUSH0 DUP3 ADD MSTORE POP JUMP JUMPDEST PUSH0 PUSH2 0x373B PUSH1 0x11 DUP4 PUSH2 0x2E8C JUMP JUMPDEST SWAP2 POP PUSH2 0x3746 DUP3 PUSH2 0x3707 JUMP JUMPDEST PUSH1 0x20 DUP3 ADD SWAP1 POP SWAP2 SWAP1 POP JUMP JUMPDEST PUSH0 PUSH1 0x20 DUP3 ADD SWAP1 POP DUP2 DUP2 SUB PUSH0 DUP4 ADD MSTORE PUSH2 0x3768 DUP2 PUSH2 0x372F JUMP JUMPDEST SWAP1 POP SWAP2 SWAP1 POP JUMP JUMPDEST PUSH32 0x6E65774F776E65722063616E742062652061207A65726F206164647265737300 PUSH0 DUP3 ADD MSTORE POP JUMP JUMPDEST PUSH0 PUSH2 0x37A3 PUSH1 0x1F DUP4 PUSH2 0x2E8C JUMP JUMPDEST SWAP2 POP PUSH2 0x37AE DUP3 PUSH2 0x376F JUMP JUMPDEST PUSH1 0x20 DUP3 ADD SWAP1 POP SWAP2 SWAP1 POP JUMP JUMPDEST PUSH0 PUSH1 0x20 DUP3 ADD SWAP1 POP DUP2 DUP2 SUB PUSH0 DUP4 ADD MSTORE PUSH2 0x37D0 DUP2 PUSH2 0x3797 JUMP JUMPDEST SWAP1 POP SWAP2 SWAP1 POP JUMP JUMPDEST PUSH0 DUP2 SWAP1 POP SWAP3 SWAP2 POP POP JUMP JUMPDEST PUSH32 0x7265676973746572426174636800000000000000000000000000000000000000 PUSH0 DUP3 ADD MSTORE POP JUMP JUMPDEST PUSH0 PUSH2 0x3815 PUSH1 0xD DUP4 PUSH2 0x37D7 JUMP JUMPDEST SWAP2 POP PUSH2 0x3820 DUP3 PUSH2 0x37E1 JUMP JUMPDEST PUSH1 0xD DUP3 ADD SWAP1 POP SWAP2 SWAP1 POP JUMP JUMPDEST PUSH0 PUSH2 0x3835 DUP3 PUSH2 0x3809 JUMP JUMPDEST SWAP2 POP DUP2 SWAP1 POP SWAP2 SWAP1 POP JUMP JUMPDEST PUSH0 PUSH2 0x3849 DUP3 PUSH2 0x2D5B JUMP JUMPDEST PUSH2 0x3853 DUP2 DUP6 PUSH2 0x37D7 JUMP JUMPDEST SWAP4 POP PUSH2 0x3863 DUP2 DUP6 PUSH1 0x20 DUP7 ADD PUSH2 0x2D75 JUMP JUMPDEST DUP1 DUP5 ADD SWAP2 POP POP SWAP3 SWAP2 POP POP JUMP JUMPDEST PUSH0 PUSH2 0x387A DUP3 DUP5 PUSH2 0x383F JUMP JUMPDEST SWAP2 POP DUP2 SWAP1 POP SWAP3 SWAP2 POP POP JUMP JUMPDEST PUSH32 0x426174636820494473206D75737420626520656D70747920666F722072656769 PUSH0 DUP3 ADD MSTORE PUSH32 0x7374726174696F6E000000000000000000000000000000000000000000000000 PUSH1 0x20 DUP3 ADD MSTORE POP JUMP JUMPDEST PUSH0 PUSH2 0x38DF PUSH1 0x28 DUP4 PUSH2 0x2E8C JUMP JUMPDEST SWAP2 POP PUSH2 0x38EA DUP3 PUSH2 0x3885 JUMP JUMPDEST PUSH1 0x40 DUP3 ADD SWAP1 POP SWAP2 SWAP1 POP JUMP JUMPDEST PUSH0 PUSH1 0x20 DUP3 ADD SWAP1 POP DUP2 DUP2 SUB PUSH0 DUP4 ADD MSTORE PUSH2 0x390C DUP2 PUSH2 0x38D3 JUMP JUMPDEST SWAP1 POP SWAP2 SWAP1 POP JUMP JUMPDEST PUSH32 0x4E487B7100000000000000000000000000000000000000000000000000000000 PUSH0 MSTORE PUSH1 0x11 PUSH1 0x4 MSTORE PUSH1 0x24 PUSH0 REVERT JUMPDEST PUSH0 PUSH2 0x394A DUP3 PUSH2 0x2A2C JUMP JUMPDEST SWAP2 POP PUSH32 0xFFFFFFFFFFFFFFFFFFFFFFFFFFFFFFFFFFFFFFFFFFFFFFFFFFFFFFFFFFFFFFFF DUP3 SUB PUSH2 0x397C JUMPI PUSH2 0x397B PUSH2 0x3913 JUMP JUMPDEST JUMPDEST PUSH1 0x1 DUP3 ADD SWAP1 POP SWAP2 SWAP1 POP JUMP JUMPDEST PUSH0 DUP2 SWAP1 POP DUP2 PUSH0 MSTORE PUSH1 0x20 PUSH0 KECCAK256 SWAP1 POP SWAP2 SWAP1 POP JUMP JUMPDEST PUSH0 PUSH1 0x20 PUSH1 0x1F DUP4 ADD DIV SWAP1 POP SWAP2 SWAP1 POP JUMP JUMPDEST PUSH0 DUP3 DUP3 SHL SWAP1 POP SWAP3 SWAP2 POP POP JUMP JUMPDEST PUSH0 PUSH1 0x8 DUP4 MUL PUSH2 0x39E3 PUSH32 0xFFFFFFFFFFFFFFFFFFFFFFFFFFFFFFFFFFFFFFFFFFFFFFFFFFFFFFFFFFFFFFFF DUP3 PUSH2 0x39A8 JUMP JUMPDEST PUSH2 0x39ED DUP7 DUP4 PUSH2 0x39A8 JUMP JUMPDEST SWAP6 POP DUP1 NOT DUP5 AND SWAP4 POP DUP1 DUP7 AND DUP5 OR SWAP3 POP POP POP SWAP4 SWAP3 POP POP POP JUMP JUMPDEST PUSH0 DUP2 SWAP1 POP SWAP2 SWAP1 POP JUMP JUMPDEST PUSH0 PUSH2 0x3A28 PUSH2 0x3A23 PUSH2 0x3A1E DUP5 PUSH2 0x2A2C JUMP JUMPDEST PUSH2 0x3A05 JUMP JUMPDEST PUSH2 0x2A2C JUMP JUMPDEST SWAP1 POP SWAP2 SWAP1 POP JUMP JUMPDEST PUSH0 DUP2 SWAP1 POP SWAP2 SWAP1 POP JUMP JUMPDEST PUSH2 0x3A41 DUP4 PUSH2 0x3A0E JUMP JUMPDEST PUSH2 0x3A55 PUSH2 0x3A4D DUP3 PUSH2 0x3A2F JUMP JUMPDEST DUP5 DUP5 SLOAD PUSH2 0x39B4 JUMP JUMPDEST DUP3 SSTORE POP POP POP POP JUMP JUMPDEST PUSH0 SWAP1 JUMP JUMPDEST PUSH2 0x3A69 PUSH2 0x3A5D JUMP JUMPDEST PUSH2 0x3A74 DUP2 DUP5 DUP5 PUSH2 0x3A38 JUMP JUMPDEST POP POP POP JUMP JUMPDEST JUMPDEST DUP2 DUP2 LT ISZERO PUSH2 0x3A97 JUMPI PUSH2 0x3A8C PUSH0 DUP3 PUSH2 0x3A61 JUMP JUMPDEST PUSH1 0x1 DUP2 ADD SWAP1 POP PUSH2 0x3A7A JUMP JUMPDEST POP POP JUMP JUMPDEST PUSH1 0x1F DUP3 GT ISZERO PUSH2 0x3ADC JUMPI PUSH2 0x3AAD DUP2 PUSH2 0x3987 JUMP JUMPDEST PUSH2 0x3AB6 DUP5 PUSH2 0x3999 JUMP JUMPDEST DUP2 ADD PUSH1 0x20 DUP6 LT ISZERO PUSH2 0x3AC5 JUMPI DUP2 SWAP1 POP JUMPDEST PUSH2 0x3AD9 PUSH2 0x3AD1 DUP6 PUSH2 0x3999 JUMP JUMPDEST DUP4 ADD DUP3 PUSH2 0x3A79 JUMP JUMPDEST POP POP JUMPDEST POP POP POP JUMP JUMPDEST PUSH0 DUP3 DUP3 SHR SWAP1 POP SWAP3 SWAP2 POP POP JUMP JUMPDEST PUSH0 PUSH2 0x3AFC PUSH0 NOT DUP5 PUSH1 0x8 MUL PUSH2 0x3AE1 JUMP JUMPDEST NOT DUP1 DUP4 AND SWAP2 POP POP SWAP3 SWAP2 POP POP JUMP JUMPDEST PUSH0 PUSH2 0x3B14 DUP4 DUP4 PUSH2 0x3AED JUMP JUMPDEST SWAP2 POP DUP3 PUSH1 0x2 MUL DUP3 OR SWAP1 POP SWAP3 SWAP2 POP POP JUMP JUMPDEST PUSH2 0x3B2D DUP3 PUSH2 0x2D5B JUMP JUMPDEST PUSH8 0xFFFFFFFFFFFFFFFF DUP2 GT ISZERO PUSH2 0x3B46 JUMPI PUSH2 0x3B45 PUSH2 0x2A77 JUMP JUMPDEST JUMPDEST PUSH2 0x3B50 DUP3 SLOAD PUSH2 0x36D7 JUMP JUMPDEST PUSH2 0x3B5B DUP3 DUP3 DUP6 PUSH2 0x3A9B JUMP JUMPDEST PUSH0 PUSH1 0x20 SWAP1 POP PUSH1 0x1F DUP4 GT PUSH1 0x1 DUP2 EQ PUSH2 0x3B8C JUMPI PUSH0 DUP5 ISZERO PUSH2 0x3B7A JUMPI DUP3 DUP8 ADD MLOAD SWAP1 POP JUMPDEST PUSH2 0x3B84 DUP6 DUP3 PUSH2 0x3B09 JUMP JUMPDEST DUP7 SSTORE POP PUSH2 0x3BEB JUMP JUMPDEST PUSH1 0x1F NOT DUP5 AND PUSH2 0x3B9A DUP7 PUSH2 0x3987 JUMP JUMPDEST PUSH0 JUMPDEST DUP3 DUP2 LT ISZERO PUSH2 0x3BC1 JUMPI DUP5 DUP10 ADD MLOAD DUP3 SSTORE PUSH1 0x1 DUP3 ADD SWAP2 POP PUSH1 0x20 DUP6 ADD SWAP5 POP PUSH1 0x20 DUP2 ADD SWAP1 POP PUSH2 0x3B9C JUMP JUMPDEST DUP7 DUP4 LT ISZERO PUSH2 0x3BDE JUMPI DUP5 DUP10 ADD MLOAD PUSH2 0x3BDA PUSH1 0x1F DUP10 AND DUP3 PUSH2 0x3AED JUMP JUMPDEST DUP4 SSTORE POP JUMPDEST PUSH1 0x1 PUSH1 0x2 DUP9 MUL ADD DUP9 SSTORE POP POP POP JUMPDEST POP POP POP POP POP POP JUMP JUMPDEST PUSH0 DUP2 SLOAD PUSH2 0x3BFF DUP2 PUSH2 0x36D7 JUMP JUMPDEST PUSH2 0x3C09 DUP2 DUP7 PUSH2 0x2E8C JUMP JUMPDEST SWAP5 POP PUSH1 0x1 DUP3 AND PUSH0 DUP2 EQ PUSH2 0x3C23 JUMPI PUSH1 0x1 DUP2 EQ PUSH2 0x3C39 JUMPI PUSH2 0x3C6B JUMP JUMPDEST PUSH1 0xFF NOT DUP4 AND DUP7 MSTORE DUP2 ISZERO ISZERO PUSH1 0x20 MUL DUP7 ADD SWAP4 POP PUSH2 0x3C6B JUMP JUMPDEST PUSH2 0x3C42 DUP6 PUSH2 0x3987 JUMP JUMPDEST PUSH0 JUMPDEST DUP4 DUP2 LT ISZERO PUSH2 0x3C63 JUMPI DUP2 SLOAD DUP2 DUP10 ADD MSTORE PUSH1 0x1 DUP3 ADD SWAP2 POP PUSH1 0x20 DUP2 ADD SWAP1 POP PUSH2 0x3C44 JUMP JUMPDEST DUP1 DUP9 ADD SWAP6 POP POP POP JUMPDEST POP POP POP SWAP3 SWAP2 POP POP JUMP JUMPDEST PUSH0 PUSH1 0x20 DUP3 ADD SWAP1 POP DUP2 DUP2 SUB PUSH0 DUP4 ADD MSTORE PUSH2 0x3C8C DUP2 DUP5 PUSH2 0x3BF3 JUMP JUMPDEST SWAP1 POP SWAP3 SWAP2 POP POP JUMP JUMPDEST PUSH32 0x7472616E73666572426174636800000000000000000000000000000000000000 PUSH0 DUP3 ADD MSTORE POP JUMP JUMPDEST PUSH0 PUSH2 0x3CC8 PUSH1 0xD DUP4 PUSH2 0x37D7 JUMP JUMPDEST SWAP2 POP PUSH2 0x3CD3 DUP3 PUSH2 0x3C94 JUMP JUMPDEST PUSH1 0xD DUP3 ADD SWAP1 POP SWAP2 SWAP1 POP JUMP JUMPDEST PUSH0 PUSH2 0x3CE8 DUP3 PUSH2 0x3CBC JUMP JUMPDEST SWAP2 POP DUP2 SWAP1 POP SWAP2 SWAP1 POP JUMP JUMPDEST PUSH0 PUSH1 0x40 DUP3 ADD SWAP1 POP PUSH2 0x3D05 PUSH0 DUP4 ADD DUP6 PUSH2 0x2E7D JUMP JUMPDEST PUSH2 0x3D12 PUSH1 0x20 DUP4 ADD DUP5 PUSH2 0x2E7D JUMP JUMPDEST SWAP4 SWAP3 POP POP POP JUMP JUMPDEST PUSH32 0x726563616C6C4261746368000000000000000000000000000000000000000000 PUSH0 DUP3 ADD MSTORE POP JUMP JUMPDEST PUSH0 PUSH2 0x3D4D PUSH1 0xB DUP4 PUSH2 0x37D7 JUMP JUMPDEST SWAP2 POP PUSH2 0x3D58 DUP3 PUSH2 0x3D19 JUMP JUMPDEST PUSH1 0xB DUP3 ADD SWAP1 POP SWAP2 SWAP1 POP JUMP JUMPDEST PUSH0 PUSH2 0x3D6D DUP3 PUSH2 0x3D41 JUMP JUMPDEST SWAP2 POP DUP2 SWAP1 POP SWAP2 SWAP1 POP JUMP JUMPDEST PUSH32 0x496E76616C6964206F7065726174696F6E000000000000000000000000000000 PUSH0 DUP3 ADD MSTORE POP JUMP JUMPDEST PUSH0 PUSH2 0x3DAB PUSH1 0x11 DUP4 PUSH2 0x2E8C JUMP JUMPDEST SWAP2 POP PUSH2 0x3DB6 DUP3 PUSH2 0x3D77 JUMP JUMPDEST PUSH1 0x20 DUP3 ADD SWAP1 POP SWAP2 SWAP1 POP JUMP JUMPDEST PUSH0 PUSH1 0x20 DUP3 ADD SWAP1 POP DUP2 DUP2 SUB PUSH0 DUP4 ADD MSTORE PUSH2 0x3DD8 DUP2 PUSH2 0x3D9F JUMP JUMPDEST SWAP1 POP SWAP2 SWAP1 POP JUMP JUMPDEST PUSH32 0x496E76616C69642070726F647563742049440000000000000000000000000000 PUSH0 DUP3 ADD MSTORE POP JUMP JUMPDEST PUSH0 PUSH2 0x3E13 PUSH1 0x12 DUP4 PUSH2 0x2E8C JUMP JUMPDEST SWAP2 POP PUSH2 0x3E1E DUP3 PUSH2 0x3DDF JUMP JUMPDEST PUSH1 0x20 DUP3 ADD SWAP1 POP SWAP2 SWAP1 POP JUMP JUMPDEST PUSH0 PUSH1 0x20 DUP3 ADD SWAP1 POP DUP2 DUP2 SUB PUSH0 DUP4 ADD MSTORE PUSH2 0x3E40 DUP2 PUSH2 0x3E07 JUMP JUMPDEST SWAP1 POP SWAP2 SWAP1 POP JUMP JUMPDEST PUSH32 0x526563616C6C65642070726F64756374732063616E6E6F74206265207472616E PUSH0 DUP3 ADD MSTORE PUSH32 0x7366657272656400000000000000000000000000000000000000000000000000 PUSH1 0x20 DUP3 ADD MSTORE POP JUMP JUMPDEST PUSH0 PUSH2 0x3EA1 PUSH1 0x27 DUP4 PUSH2 0x2E8C JUMP JUMPDEST SWAP2 POP PUSH2 0x3EAC DUP3 PUSH2 0x3E47 JUMP JUMPDEST PUSH1 0x40 DUP3 ADD SWAP1 POP SWAP2 SWAP1 POP JUMP JUMPDEST PUSH0 PUSH1 0x20 DUP3 ADD SWAP1 POP DUP2 DUP2 SUB PUSH0 DUP4 ADD MSTORE PUSH2 0x3ECE DUP2 PUSH2 0x3E95 JUMP JUMPDEST SWAP1 POP SWAP2 SWAP1 POP JUMP JUMPDEST PUSH32 0x496E76616C6964206E6577206F776E6572206164647265737300000000000000 PUSH0 DUP3 ADD MSTORE POP JUMP JUMPDEST PUSH0 PUSH2 0x3F09 PUSH1 0x19 DUP4 PUSH2 0x2E8C JUMP JUMPDEST SWAP2 POP PUSH2 0x3F14 DUP3 PUSH2 0x3ED5 JUMP JUMPDEST PUSH1 0x20 DUP3 ADD SWAP1 POP SWAP2 SWAP1 POP JUMP JUMPDEST PUSH0 PUSH1 0x20 DUP3 ADD SWAP1 POP DUP2 DUP2 SUB PUSH0 DUP4 ADD MSTORE PUSH2 0x3F36 DUP2 PUSH2 0x3EFD JUMP JUMPDEST SWAP1 POP SWAP2 SWAP1 POP JUMP JUMPDEST PUSH32 0x4E6577206F776E6572206973206E6F7420617574686F72697A65640000000000 PUSH0 DUP3 ADD MSTORE POP JUMP JUMPDEST PUSH0 PUSH2 0x3F71 PUSH1 0x1B DUP4 PUSH2 0x2E8C JUMP JUMPDEST SWAP2 POP PUSH2 0x3F7C DUP3 PUSH2 0x3F3D JUMP JUMPDEST PUSH1 0x20 DUP3 ADD SWAP1 POP SWAP2 SWAP1 POP JUMP JUMPDEST PUSH0 PUSH1 0x20 DUP3 ADD SWAP1 POP DUP2 DUP2 SUB PUSH0 DUP4 ADD MSTORE PUSH2 0x3F9E DUP2 PUSH2 0x3F65 JUMP JUMPDEST SWAP1 POP SWAP2 SWAP1 POP JUMP JUMPDEST PUSH32 0x4F6E6C792063757272656E74206F776E65722063616E207472616E7366657200 PUSH0 DUP3 ADD MSTORE POP JUMP JUMPDEST PUSH0 PUSH2 0x3FD9 PUSH1 0x1F DUP4 PUSH2 0x2E8C JUMP JUMPDEST SWAP2 POP PUSH2 0x3FE4 DUP3 PUSH2 0x3FA5 JUMP JUMPDEST PUSH1 0x20 DUP3 ADD SWAP1 POP SWAP2 SWAP1 POP JUMP JUMPDEST PUSH0 PUSH1 0x20 DUP3 ADD SWAP1 POP DUP2 DUP2 SUB PUSH0 DUP4 ADD MSTORE PUSH2 0x4006 DUP2 PUSH2 0x3FCD JUMP JUMPDEST SWAP1 POP SWAP2 SWAP1 POP JUMP JUMPDEST PUSH32 0x4E616D652063616E6E6F7420626520656D707479000000000000000000000000 PUSH0 DUP3 ADD MSTORE POP JUMP JUMPDEST PUSH0 PUSH2 0x4041 PUSH1 0x14 DUP4 PUSH2 0x2E8C JUMP JUMPDEST SWAP2 POP PUSH2 0x404C DUP3 PUSH2 0x400D JUMP JUMPDEST PUSH1 0x20 DUP3 ADD SWAP1 POP SWAP2 SWAP1 POP JUMP JUMPDEST PUSH0 PUSH1 0x20 DUP3 ADD SWAP1 POP DUP2 DUP2 SUB PUSH0 DUP4 ADD MSTORE PUSH2 0x406E DUP2 PUSH2 0x4035 JUMP JUMPDEST SWAP1 POP SWAP2 SWAP1 POP JUMP JUMPDEST PUSH32 0x4465736372697074696F6E2063616E6E6F7420626520656D7074790000000000 PUSH0 DUP3 ADD MSTORE POP JUMP JUMPDEST PUSH0 PUSH2 0x40A9 PUSH1 0x1B DUP4 PUSH2 0x2E8C JUMP JUMPDEST SWAP2 POP PUSH2 0x40B4 DUP3 PUSH2 0x4075 JUMP JUMPDEST PUSH1 0x20 DUP3 ADD SWAP1 POP SWAP2 SWAP1 POP JUMP JUMPDEST PUSH0 PUSH1 0x20 DUP3 ADD SWAP1 POP DUP2 DUP2 SUB PUSH0 DUP4 ADD MSTORE PUSH2 0x40D6 DUP2 PUSH2 0x409D JUMP JUMPDEST SWAP1 POP SWAP2 SWAP1 POP JUMP JUMPDEST PUSH32 0x50726F6475637420646F65736E74206578697374730000000000000000000000 PUSH0 DUP3 ADD MSTORE POP JUMP JUMPDEST PUSH0 PUSH2 0x4111 PUSH1 0x15 DUP4 PUSH2 0x2E8C JUMP JUMPDEST SWAP2 POP PUSH2 0x411C DUP3 PUSH2 0x40DD JUMP JUMPDEST PUSH1 0x20 DUP3 ADD SWAP1 POP SWAP2 SWAP1 POP JUMP JUMPDEST PUSH0 PUSH1 0x20 DUP3 ADD SWAP1 POP DUP2 DUP2 SUB PUSH0 DUP4 ADD MSTORE PUSH2 0x413E DUP2 PUSH2 0x4105 JUMP JUMPDEST SWAP1 POP SWAP2 SWAP1 POP JUMP JUMPDEST PUSH32 0x416C726561647920726563616C6C656400000000000000000000000000000000 PUSH0 DUP3 ADD MSTORE POP JUMP JUMPDEST PUSH0 PUSH2 0x4179 PUSH1 0x10 DUP4 PUSH2 0x2E8C JUMP JUMPDEST SWAP2 POP PUSH2 0x4184 DUP3 PUSH2 0x4145 JUMP JUMPDEST PUSH1 0x20 DUP3 ADD SWAP1 POP SWAP2 SWAP1 POP JUMP JUMPDEST PUSH0 PUSH1 0x20 DUP3 ADD SWAP1 POP DUP2 DUP2 SUB PUSH0 DUP4 ADD MSTORE PUSH2 0x41A6 DUP2 PUSH2 0x416D JUMP JUMPDEST SWAP1 POP SWAP2 SWAP1 POP JUMP JUMPDEST PUSH32 0x4E6F7420746865206F776E657200000000000000000000000000000000000000 PUSH0 DUP3 ADD MSTORE POP JUMP JUMPDEST PUSH0 PUSH2 0x41E1 PUSH1 0xD DUP4 PUSH2 0x2E8C JUMP JUMPDEST SWAP2 POP PUSH2 0x41EC DUP3 PUSH2 0x41AD JUMP JUMPDEST PUSH1 0x20 DUP3 ADD SWAP1 POP SWAP2 SWAP1 POP JUMP JUMPDEST PUSH0 PUSH1 0x20 DUP3 ADD SWAP1 POP DUP2 DUP2 SUB PUSH0 DUP4 ADD MSTORE PUSH2 0x420E DUP2 PUSH2 0x41D5 JUMP JUMPDEST SWAP1 POP SWAP2 SWAP1 POP JUMP JUMPDEST PUSH32 0x496E76616C696420616464726573730000000000000000000000000000000000 PUSH0 DUP3 ADD MSTORE POP JUMP JUMPDEST PUSH0 PUSH2 0x4249 PUSH1 0xF DUP4 PUSH2 0x2E8C JUMP JUMPDEST SWAP2 POP PUSH2 0x4254 DUP3 PUSH2 0x4215 JUMP JUMPDEST PUSH1 0x20 DUP3 ADD SWAP1 POP SWAP2 SWAP1 POP JUMP JUMPDEST PUSH0 PUSH1 0x20 DUP3 ADD SWAP1 POP DUP2 DUP2 SUB PUSH0 DUP4 ADD MSTORE PUSH2 0x4276 DUP2 PUSH2 0x423D JUMP JUMPDEST SWAP1 POP SWAP2 SWAP1 POP JUMP JUMPDEST PUSH32 0x5061727469636970616E7420616C726561647920617574686F72697A65640000 PUSH0 DUP3 ADD MSTORE POP JUMP JUMPDEST PUSH0 PUSH2 0x42B1 PUSH1 0x1E DUP4 PUSH2 0x2E8C JUMP JUMPDEST SWAP2 POP PUSH2 0x42BC DUP3 PUSH2 0x427D JUMP JUMPDEST PUSH1 0x20 DUP3 ADD SWAP1 POP SWAP2 SWAP1 POP JUMP JUMPDEST PUSH0 PUSH1 0x20 DUP3 ADD SWAP1 POP DUP2 DUP2 SUB PUSH0 DUP4 ADD MSTORE PUSH2 0x42DE DUP2 PUSH2 0x42A5 JUMP JUMPDEST SWAP1 POP SWAP2 SWAP1 POP JUMP JUMPDEST PUSH32 0x466F7220726567697374657242617463682C204944206C697374206D75737420 PUSH0 DUP3 ADD MSTORE PUSH32 0x626520656D707479000000000000000000000000000000000000000000000000 PUSH1 0x20 DUP3 ADD MSTORE POP JUMP JUMPDEST PUSH0 PUSH2 0x433F PUSH1 0x28 DUP4 PUSH2 0x2E8C JUMP JUMPDEST SWAP2 POP PUSH2 0x434A DUP3 PUSH2 0x42E5 JUMP JUMPDEST PUSH1 0x40 DUP3 ADD SWAP1 POP SWAP2 SWAP1 POP JUMP JUMPDEST PUSH0 PUSH1 0x20 DUP3 ADD SWAP1 POP DUP2 DUP2 SUB PUSH0 DUP4 ADD MSTORE PUSH2 0x436C DUP2 PUSH2 0x4333 JUMP JUMPDEST SWAP1 POP SWAP2 SWAP1 POP JUMP JUMPDEST PUSH32 0x4E616D6520616E64206465736372697074696F6E206C69737473206D75737420 PUSH0 DUP3 ADD MSTORE PUSH32 0x6D6174636820696E206C656E6774680000000000000000000000000000000000 PUSH1 0x20 DUP3 ADD MSTORE POP JUMP JUMPDEST PUSH0 PUSH2 0x43CD PUSH1 0x2F DUP4 PUSH2 0x2E8C JUMP JUMPDEST SWAP2 POP PUSH2 0x43D8 DUP3 PUSH2 0x4373 JUMP JUMPDEST PUSH1 0x40 DUP3 ADD SWAP1 POP SWAP2 SWAP1 POP JUMP JUMPDEST PUSH0 PUSH1 0x20 DUP3 ADD SWAP1 POP DUP2 DUP2 SUB PUSH0 DUP4 ADD MSTORE PUSH2 0x43FA DUP2 PUSH2 0x43C1 JUMP JUMPDEST SWAP1 POP SWAP2 SWAP1 POP JUMP JUMPDEST PUSH32 0x4944206C6973742063616E6E6F7420626520656D70747920666F72206E6F6E2D PUSH0 DUP3 ADD MSTORE PUSH32 0x7265676973746572206F7065726174696F6E7300000000000000000000000000 PUSH1 0x20 DUP3 ADD MSTORE POP JUMP JUMPDEST PUSH0 PUSH2 0x445B PUSH1 0x33 DUP4 PUSH2 0x2E8C JUMP JUMPDEST SWAP2 POP PUSH2 0x4466 DUP3 PUSH2 0x4401 JUMP JUMPDEST PUSH1 0x40 DUP3 ADD SWAP1 POP SWAP2 SWAP1 POP JUMP JUMPDEST PUSH0 PUSH1 0x20 DUP3 ADD SWAP1 POP DUP2 DUP2 SUB PUSH0 DUP4 ADD MSTORE PUSH2 0x4488 DUP2 PUSH2 0x444F JUMP JUMPDEST SWAP1 POP SWAP2 SWAP1 POP JUMP JUMPDEST PUSH32 0x494420616E64206E616D65206C69737473206D757374206D6174636820696E20 PUSH0 DUP3 ADD MSTORE PUSH32 0x6C656E6774680000000000000000000000000000000000000000000000000000 PUSH1 0x20 DUP3 ADD MSTORE POP JUMP JUMPDEST PUSH0 PUSH2 0x44E9 PUSH1 0x26 DUP4 PUSH2 0x2E8C JUMP JUMPDEST SWAP2 POP PUSH2 0x44F4 DUP3 PUSH2 0x448F JUMP JUMPDEST PUSH1 0x40 DUP3 ADD SWAP1 POP SWAP2 SWAP1 POP JUMP JUMPDEST PUSH0 PUSH1 0x20 DUP3 ADD SWAP1 POP DUP2 DUP2 SUB PUSH0 DUP4 ADD MSTORE PUSH2 0x4516 DUP2 PUSH2 0x44DD JUMP JUMPDEST SWAP1 POP SWAP2 SWAP1 POP JUMP JUMPDEST PUSH32 0x494420616E64206465736372697074696F6E206C69737473206D757374206D61 PUSH0 DUP3 ADD MSTORE PUSH32 0x74636820696E206C656E67746800000000000000000000000000000000000000 PUSH1 0x20 DUP3 ADD MSTORE POP JUMP JUMPDEST PUSH0 PUSH2 0x4577 PUSH1 0x2D DUP4 PUSH2 0x2E8C JUMP JUMPDEST SWAP2 POP PUSH2 0x4582 DUP3 PUSH2 0x451D JUMP JUMPDEST PUSH1 0x40 DUP3 ADD SWAP1 POP SWAP2 SWAP1 POP JUMP JUMPDEST PUSH0 PUSH1 0x20 DUP3 ADD SWAP1 POP DUP2 DUP2 SUB PUSH0 DUP4 ADD MSTORE PUSH2 0x45A4 DUP2 PUSH2 0x456B JUMP JUMPDEST SWAP1 POP SWAP2 SWAP1 POP JUMP JUMPDEST PUSH32 0x4E616D65206C6973742063616E6E6F7420626520656D70747900000000000000 PUSH0 DUP3 ADD MSTORE POP JUMP JUMPDEST PUSH0 PUSH2 0x45DF PUSH1 0x19 DUP4 PUSH2 0x2E8C JUMP JUMPDEST SWAP2 POP PUSH2 0x45EA DUP3 PUSH2 0x45AB JUMP JUMPDEST PUSH1 0x20 DUP3 ADD SWAP1 POP SWAP2 SWAP1 POP JUMP JUMPDEST PUSH0 PUSH1 0x20 DUP3 ADD SWAP1 POP DUP2 DUP2 SUB PUSH0 DUP4 ADD MSTORE PUSH2 0x460C DUP2 PUSH2 0x45D3 JUMP JUMPDEST SWAP1 POP SWAP2 SWAP1 POP JUMP JUMPDEST PUSH32 0x44657363206C6973742063616E6E6F7420626520656D70747900000000000000 PUSH0 DUP3 ADD MSTORE POP JUMP JUMPDEST PUSH0 PUSH2 0x4647 PUSH1 0x19 DUP4 PUSH2 0x2E8C JUMP JUMPDEST SWAP2 POP PUSH2 0x4652 DUP3 PUSH2 0x4613 JUMP JUMPDEST PUSH1 0x20 DUP3 ADD SWAP1 POP SWAP2 SWAP1 POP JUMP JUMPDEST PUSH0 PUSH1 0x20 DUP3 ADD SWAP1 POP DUP2 DUP2 SUB PUSH0 DUP4 ADD MSTORE PUSH2 0x4674 DUP2 PUSH2 0x463B JUMP JUMPDEST SWAP1 POP SWAP2 SWAP1 POP JUMP INVALID LOG2 PUSH5 0x6970667358 0x22 SLT KECCAK256 0xDF LOG3 TSTORE 0xCC 0xDE EXP 0x23 0xC5 PUSH25 0x2BFE3BEC72B1330FDA5DEA611CE6BA898D93BDD884AAEE6473 PUSH16 0x6C634300081A00330000000000000000 "
				},
				"gasEstimates": {
					"creation": {
						"codeDepositCost": "3619400",
						"executionCost": "63874",
						"totalCost": "3683274"
					},
					"external": {
						"authorizeParticipant(address)": "30451",
						"authorizedParticipants(address)": "2922",
						"batchCount()": "2471",
						"batchExists(uint256)": "2882",
						"batches(uint256)": "infinite",
						"createBatch(uint256[],string[],string[],string)": "infinite",
						"getBatch(uint256)": "infinite",
						"getProduct(uint256)": "infinite",
						"operationConvert(uint256)": "infinite",
						"owner()": "2616",
						"processBatch(uint256,address,string,string)": "infinite",
						"productCount()": "2513",
						"productExists(uint256)": "infinite",
						"products(uint256)": "infinite",
						"recallBatch(uint256,string)": "infinite",
						"recallProduct(uint256,string)": "infinite",
						"registerProduct(string,string)": "infinite",
						"stateRecalled(uint256)": "infinite",
						"transferProductOwnership(uint256,address)": "62539"
					}
				},
				"methodIdentifiers": {
					"authorizeParticipant(address)": "c5f8d584",
					"authorizedParticipants(address)": "8d28230b",
					"batchCount()": "06f13056",
					"batchExists(uint256)": "9ffaa71e",
					"batches(uint256)": "b32c4d8d",
					"createBatch(uint256[],string[],string[],string)": "f5f34413",
					"getBatch(uint256)": "5ac44282",
					"getProduct(uint256)": "b9db15b4",
					"operationConvert(uint256)": "cf9cd669",
					"owner()": "8da5cb5b",
					"processBatch(uint256,address,string,string)": "86734e5b",
					"productCount()": "e0f6ef87",
					"productExists(uint256)": "af55ed64",
					"products(uint256)": "7acc0b20",
					"recallBatch(uint256,string)": "04341422",
					"recallProduct(uint256,string)": "9ce0f973",
					"registerProduct(string,string)": "8fbd0dcf",
					"stateRecalled(uint256)": "3c9af587",
					"transferProductOwnership(uint256,address)": "86b0e812"
				}
			},
			"storageLayout": {
				"storage": [
					{
						"astId": 3,
						"contract": "contracts/w6_SupplyChainContractAsm.sol:SupplyChainContract",
						"label": "owner",
						"offset": 0,
						"slot": "0",
						"type": "t_address"
					},
					{
						"astId": 5,
						"contract": "contracts/w6_SupplyChainContractAsm.sol:SupplyChainContract",
						"label": "productCount",
						"offset": 0,
						"slot": "1",
						"type": "t_uint256"
					},
					{
						"astId": 7,
						"contract": "contracts/w6_SupplyChainContractAsm.sol:SupplyChainContract",
						"label": "batchCount",
						"offset": 0,
						"slot": "2",
						"type": "t_uint256"
					},
					{
						"astId": 11,
						"contract": "contracts/w6_SupplyChainContractAsm.sol:SupplyChainContract",
						"label": "authorizedParticipants",
						"offset": 0,
						"slot": "3",
						"type": "t_mapping(t_address,t_bool)"
					},
					{
						"astId": 16,
						"contract": "contracts/w6_SupplyChainContractAsm.sol:SupplyChainContract",
						"label": "products",
						"offset": 0,
						"slot": "4",
						"type": "t_mapping(t_uint256,t_struct(Product)34_storage)"
					},
					{
						"astId": 21,
						"contract": "contracts/w6_SupplyChainContractAsm.sol:SupplyChainContract",
						"label": "batches",
						"offset": 0,
						"slot": "5",
						"type": "t_mapping(t_uint256,t_struct(Batch)54_storage)"
					}
				],
				"types": {
					"t_address": {
						"encoding": "inplace",
						"label": "address",
						"numberOfBytes": "20"
					},
					"t_array(t_string_storage)dyn_storage": {
						"base": "t_string_storage",
						"encoding": "dynamic_array",
						"label": "string[]",
						"numberOfBytes": "32"
					},
					"t_array(t_uint256)dyn_storage": {
						"base": "t_uint256",
						"encoding": "dynamic_array",
						"label": "uint256[]",
						"numberOfBytes": "32"
					},
					"t_bool": {
						"encoding": "inplace",
						"label": "bool",
						"numberOfBytes": "1"
					},
					"t_mapping(t_address,t_bool)": {
						"encoding": "mapping",
						"key": "t_address",
						"label": "mapping(address => bool)",
						"numberOfBytes": "32",
						"value": "t_bool"
					},
					"t_mapping(t_uint256,t_struct(Batch)54_storage)": {
						"encoding": "mapping",
						"key": "t_uint256",
						"label": "mapping(uint256 => struct SupplyChainContract.Batch)",
						"numberOfBytes": "32",
						"value": "t_struct(Batch)54_storage"
					},
					"t_mapping(t_uint256,t_struct(Product)34_storage)": {
						"encoding": "mapping",
						"key": "t_uint256",
						"label": "mapping(uint256 => struct SupplyChainContract.Product)",
						"numberOfBytes": "32",
						"value": "t_struct(Product)34_storage"
					},
					"t_string_storage": {
						"encoding": "bytes",
						"label": "string",
						"numberOfBytes": "32"
					},
					"t_struct(Batch)54_storage": {
						"encoding": "inplace",
						"label": "struct SupplyChainContract.Batch",
						"members": [
							{
								"astId": 37,
								"contract": "contracts/w6_SupplyChainContractAsm.sol:SupplyChainContract",
								"label": "id",
								"offset": 0,
								"slot": "0",
								"type": "t_array(t_uint256)dyn_storage"
							},
							{
								"astId": 40,
								"contract": "contracts/w6_SupplyChainContractAsm.sol:SupplyChainContract",
								"label": "name",
								"offset": 0,
								"slot": "1",
								"type": "t_array(t_string_storage)dyn_storage"
							},
							{
								"astId": 43,
								"contract": "contracts/w6_SupplyChainContractAsm.sol:SupplyChainContract",
								"label": "description",
								"offset": 0,
								"slot": "2",
								"type": "t_array(t_string_storage)dyn_storage"
							},
							{
								"astId": 45,
								"contract": "contracts/w6_SupplyChainContractAsm.sol:SupplyChainContract",
								"label": "currentOwner",
								"offset": 0,
								"slot": "3",
								"type": "t_address"
							},
							{
								"astId": 47,
								"contract": "contracts/w6_SupplyChainContractAsm.sol:SupplyChainContract",
								"label": "timestamp",
								"offset": 0,
								"slot": "4",
								"type": "t_uint256"
							},
							{
								"astId": 49,
								"contract": "contracts/w6_SupplyChainContractAsm.sol:SupplyChainContract",
								"label": "isRecalled",
								"offset": 0,
								"slot": "5",
								"type": "t_bool"
							},
							{
								"astId": 51,
								"contract": "contracts/w6_SupplyChainContractAsm.sol:SupplyChainContract",
								"label": "batchId",
								"offset": 0,
								"slot": "6",
								"type": "t_uint256"
							},
							{
								"astId": 53,
								"contract": "contracts/w6_SupplyChainContractAsm.sol:SupplyChainContract",
								"label": "operation",
								"offset": 0,
								"slot": "7",
								"type": "t_string_storage"
							}
						],
						"numberOfBytes": "256"
					},
					"t_struct(Product)34_storage": {
						"encoding": "inplace",
						"label": "struct SupplyChainContract.Product",
						"members": [
							{
								"astId": 23,
								"contract": "contracts/w6_SupplyChainContractAsm.sol:SupplyChainContract",
								"label": "id",
								"offset": 0,
								"slot": "0",
								"type": "t_uint256"
							},
							{
								"astId": 25,
								"contract": "contracts/w6_SupplyChainContractAsm.sol:SupplyChainContract",
								"label": "name",
								"offset": 0,
								"slot": "1",
								"type": "t_string_storage"
							},
							{
								"astId": 27,
								"contract": "contracts/w6_SupplyChainContractAsm.sol:SupplyChainContract",
								"label": "description",
								"offset": 0,
								"slot": "2",
								"type": "t_string_storage"
							},
							{
								"astId": 29,
								"contract": "contracts/w6_SupplyChainContractAsm.sol:SupplyChainContract",
								"label": "currentOwner",
								"offset": 0,
								"slot": "3",
								"type": "t_address"
							},
							{
								"astId": 31,
								"contract": "contracts/w6_SupplyChainContractAsm.sol:SupplyChainContract",
								"label": "timestamp",
								"offset": 0,
								"slot": "4",
								"type": "t_uint256"
							},
							{
								"astId": 33,
								"contract": "contracts/w6_SupplyChainContractAsm.sol:SupplyChainContract",
								"label": "isRecalled",
								"offset": 0,
								"slot": "5",
								"type": "t_bool"
							}
						],
						"numberOfBytes": "192"
					},
					"t_uint256": {
						"encoding": "inplace",
						"label": "uint256",
						"numberOfBytes": "32"
					}
				}
			},
			"userdoc": {
				"kind": "user",
				"methods": {},
				"version": 1
			}
		}
	}
}