{
	"proj/GameSwapDAO.sol": {
		"GameSwapDAO": {
			"abi": [
				{
					"inputs": [
						{
							"internalType": "address",
							"name": "_gameTokenAddress",
							"type": "address"
						},
						{
							"internalType": "uint256",
							"name": "_minimumQuorum",
							"type": "uint256"
						},
						{
							"internalType": "uint256",
							"name": "_proposalThreshold",
							"type": "uint256"
						},
						{
							"internalType": "uint256",
							"name": "_votingPeriod",
							"type": "uint256"
						},
						{
							"internalType": "uint256",
							"name": "_timeLock",
							"type": "uint256"
						}
					],
					"stateMutability": "nonpayable",
					"type": "constructor"
				},
				{
					"inputs": [],
					"name": "AccessControlBadConfirmation",
					"type": "error"
				},
				{
					"inputs": [
						{
							"internalType": "address",
							"name": "account",
							"type": "address"
						},
						{
							"internalType": "bytes32",
							"name": "neededRole",
							"type": "bytes32"
						}
					],
					"name": "AccessControlUnauthorizedAccount",
					"type": "error"
				},
				{
					"anonymous": false,
					"inputs": [
						{
							"indexed": true,
							"internalType": "address",
							"name": "caller",
							"type": "address"
						},
						{
							"indexed": false,
							"internalType": "string",
							"name": "action",
							"type": "string"
						},
						{
							"indexed": false,
							"internalType": "uint256",
							"name": "amount",
							"type": "uint256"
						}
					],
					"name": "EmergencyAction",
					"type": "event"
				},
				{
					"anonymous": false,
					"inputs": [
						{
							"indexed": false,
							"internalType": "uint256",
							"name": "amount",
							"type": "uint256"
						},
						{
							"indexed": false,
							"internalType": "uint256",
							"name": "totalStakers",
							"type": "uint256"
						}
					],
					"name": "FeesDistributed",
					"type": "event"
				},
				{
					"anonymous": false,
					"inputs": [
						{
							"indexed": false,
							"internalType": "uint256",
							"name": "oldQuorum",
							"type": "uint256"
						},
						{
							"indexed": false,
							"internalType": "uint256",
							"name": "newQuorum",
							"type": "uint256"
						}
					],
					"name": "MinimumQuorumUpdated",
					"type": "event"
				},
				{
					"anonymous": false,
					"inputs": [
						{
							"indexed": true,
							"internalType": "uint256",
							"name": "proposalId",
							"type": "uint256"
						}
					],
					"name": "ProposalCanceled",
					"type": "event"
				},
				{
					"anonymous": false,
					"inputs": [
						{
							"indexed": true,
							"internalType": "uint256",
							"name": "proposalId",
							"type": "uint256"
						},
						{
							"indexed": true,
							"internalType": "address",
							"name": "proposer",
							"type": "address"
						},
						{
							"indexed": false,
							"internalType": "string",
							"name": "description",
							"type": "string"
						},
						{
							"indexed": false,
							"internalType": "uint256",
							"name": "startBlock",
							"type": "uint256"
						},
						{
							"indexed": false,
							"internalType": "uint256",
							"name": "endBlock",
							"type": "uint256"
						}
					],
					"name": "ProposalCreated",
					"type": "event"
				},
				{
					"anonymous": false,
					"inputs": [
						{
							"indexed": true,
							"internalType": "uint256",
							"name": "proposalId",
							"type": "uint256"
						},
						{
							"indexed": false,
							"internalType": "address",
							"name": "executer",
							"type": "address"
						}
					],
					"name": "ProposalExecuted",
					"type": "event"
				},
				{
					"anonymous": false,
					"inputs": [
						{
							"indexed": false,
							"internalType": "uint256",
							"name": "oldThreshold",
							"type": "uint256"
						},
						{
							"indexed": false,
							"internalType": "uint256",
							"name": "newThreshold",
							"type": "uint256"
						}
					],
					"name": "ProposalThresholdUpdated",
					"type": "event"
				},
				{
					"anonymous": false,
					"inputs": [
						{
							"indexed": true,
							"internalType": "address",
							"name": "staker",
							"type": "address"
						},
						{
							"indexed": false,
							"internalType": "uint256",
							"name": "amount",
							"type": "uint256"
						}
					],
					"name": "RewardClaimed",
					"type": "event"
				},
				{
					"anonymous": false,
					"inputs": [
						{
							"indexed": true,
							"internalType": "bytes32",
							"name": "role",
							"type": "bytes32"
						},
						{
							"indexed": true,
							"internalType": "bytes32",
							"name": "previousAdminRole",
							"type": "bytes32"
						},
						{
							"indexed": true,
							"internalType": "bytes32",
							"name": "newAdminRole",
							"type": "bytes32"
						}
					],
					"name": "RoleAdminChanged",
					"type": "event"
				},
				{
					"anonymous": false,
					"inputs": [
						{
							"indexed": true,
							"internalType": "bytes32",
							"name": "role",
							"type": "bytes32"
						},
						{
							"indexed": true,
							"internalType": "address",
							"name": "account",
							"type": "address"
						},
						{
							"indexed": true,
							"internalType": "address",
							"name": "sender",
							"type": "address"
						}
					],
					"name": "RoleGranted",
					"type": "event"
				},
				{
					"anonymous": false,
					"inputs": [
						{
							"indexed": true,
							"internalType": "bytes32",
							"name": "role",
							"type": "bytes32"
						},
						{
							"indexed": true,
							"internalType": "address",
							"name": "account",
							"type": "address"
						},
						{
							"indexed": true,
							"internalType": "address",
							"name": "sender",
							"type": "address"
						}
					],
					"name": "RoleRevoked",
					"type": "event"
				},
				{
					"anonymous": false,
					"inputs": [
						{
							"indexed": false,
							"internalType": "uint256",
							"name": "oldTimeLock",
							"type": "uint256"
						},
						{
							"indexed": false,
							"internalType": "uint256",
							"name": "newTimeLock",
							"type": "uint256"
						}
					],
					"name": "TimeLockUpdated",
					"type": "event"
				},
				{
					"anonymous": false,
					"inputs": [
						{
							"indexed": true,
							"internalType": "uint256",
							"name": "proposalId",
							"type": "uint256"
						},
						{
							"indexed": true,
							"internalType": "address",
							"name": "voter",
							"type": "address"
						},
						{
							"indexed": false,
							"internalType": "bool",
							"name": "support",
							"type": "bool"
						},
						{
							"indexed": false,
							"internalType": "uint256",
							"name": "weight",
							"type": "uint256"
						}
					],
					"name": "VoteCast",
					"type": "event"
				},
				{
					"anonymous": false,
					"inputs": [
						{
							"indexed": false,
							"internalType": "uint256",
							"name": "oldPeriod",
							"type": "uint256"
						},
						{
							"indexed": false,
							"internalType": "uint256",
							"name": "newPeriod",
							"type": "uint256"
						}
					],
					"name": "VotingPeriodUpdated",
					"type": "event"
				},
				{
					"stateMutability": "payable",
					"type": "fallback"
				},
				{
					"inputs": [],
					"name": "DEFAULT_ADMIN_ROLE",
					"outputs": [
						{
							"internalType": "bytes32",
							"name": "",
							"type": "bytes32"
						}
					],
					"stateMutability": "view",
					"type": "function"
				},
				{
					"inputs": [],
					"name": "MARKETPLACE_ROLE",
					"outputs": [
						{
							"internalType": "bytes32",
							"name": "",
							"type": "bytes32"
						}
					],
					"stateMutability": "view",
					"type": "function"
				},
				{
					"inputs": [],
					"name": "VOTER_ROLE",
					"outputs": [
						{
							"internalType": "bytes32",
							"name": "",
							"type": "bytes32"
						}
					],
					"stateMutability": "view",
					"type": "function"
				},
				{
					"inputs": [
						{
							"internalType": "uint256",
							"name": "proposalId",
							"type": "uint256"
						}
					],
					"name": "cancelProposal",
					"outputs": [],
					"stateMutability": "nonpayable",
					"type": "function"
				},
				{
					"inputs": [
						{
							"internalType": "uint256",
							"name": "proposalId",
							"type": "uint256"
						},
						{
							"internalType": "bool",
							"name": "support",
							"type": "bool"
						}
					],
					"name": "castVote",
					"outputs": [],
					"stateMutability": "nonpayable",
					"type": "function"
				},
				{
					"inputs": [
						{
							"internalType": "string",
							"name": "description",
							"type": "string"
						},
						{
							"internalType": "bytes",
							"name": "callData",
							"type": "bytes"
						},
						{
							"internalType": "address",
							"name": "target",
							"type": "address"
						}
					],
					"name": "createProposal",
					"outputs": [
						{
							"internalType": "uint256",
							"name": "",
							"type": "uint256"
						}
					],
					"stateMutability": "nonpayable",
					"type": "function"
				},
				{
					"inputs": [],
					"name": "distributeFees",
					"outputs": [],
					"stateMutability": "nonpayable",
					"type": "function"
				},
				{
					"inputs": [
						{
							"internalType": "uint256",
							"name": "amount",
							"type": "uint256"
						}
					],
					"name": "emergencyBurn",
					"outputs": [],
					"stateMutability": "nonpayable",
					"type": "function"
				},
				{
					"inputs": [
						{
							"internalType": "uint256",
							"name": "amount",
							"type": "uint256"
						}
					],
					"name": "emergencyWithdraw",
					"outputs": [],
					"stateMutability": "nonpayable",
					"type": "function"
				},
				{
					"inputs": [
						{
							"internalType": "uint256",
							"name": "proposalId",
							"type": "uint256"
						}
					],
					"name": "executeProposal",
					"outputs": [],
					"stateMutability": "nonpayable",
					"type": "function"
				},
				{
					"inputs": [],
					"name": "gameToken",
					"outputs": [
						{
							"internalType": "contract IGameSwapToken",
							"name": "",
							"type": "address"
						}
					],
					"stateMutability": "view",
					"type": "function"
				},
				{
					"inputs": [
						{
							"internalType": "bytes32",
							"name": "role",
							"type": "bytes32"
						}
					],
					"name": "getRoleAdmin",
					"outputs": [
						{
							"internalType": "bytes32",
							"name": "",
							"type": "bytes32"
						}
					],
					"stateMutability": "view",
					"type": "function"
				},
				{
					"inputs": [
						{
							"internalType": "bytes32",
							"name": "role",
							"type": "bytes32"
						},
						{
							"internalType": "address",
							"name": "account",
							"type": "address"
						}
					],
					"name": "grantRole",
					"outputs": [],
					"stateMutability": "nonpayable",
					"type": "function"
				},
				{
					"inputs": [
						{
							"internalType": "bytes32",
							"name": "role",
							"type": "bytes32"
						},
						{
							"internalType": "address",
							"name": "account",
							"type": "address"
						}
					],
					"name": "hasRole",
					"outputs": [
						{
							"internalType": "bool",
							"name": "",
							"type": "bool"
						}
					],
					"stateMutability": "view",
					"type": "function"
				},
				{
					"inputs": [
						{
							"internalType": "address",
							"name": "",
							"type": "address"
						}
					],
					"name": "lastDistribution",
					"outputs": [
						{
							"internalType": "uint256",
							"name": "",
							"type": "uint256"
						}
					],
					"stateMutability": "view",
					"type": "function"
				},
				{
					"inputs": [],
					"name": "minimumQuorum",
					"outputs": [
						{
							"internalType": "uint256",
							"name": "",
							"type": "uint256"
						}
					],
					"stateMutability": "view",
					"type": "function"
				},
				{
					"inputs": [
						{
							"internalType": "address",
							"name": "",
							"type": "address"
						}
					],
					"name": "pendingRewards",
					"outputs": [
						{
							"internalType": "uint256",
							"name": "",
							"type": "uint256"
						}
					],
					"stateMutability": "view",
					"type": "function"
				},
				{
					"inputs": [],
					"name": "proposalCount",
					"outputs": [
						{
							"internalType": "uint256",
							"name": "",
							"type": "uint256"
						}
					],
					"stateMutability": "view",
					"type": "function"
				},
				{
					"inputs": [],
					"name": "proposalThreshold",
					"outputs": [
						{
							"internalType": "uint256",
							"name": "",
							"type": "uint256"
						}
					],
					"stateMutability": "view",
					"type": "function"
				},
				{
					"inputs": [
						{
							"internalType": "uint256",
							"name": "",
							"type": "uint256"
						}
					],
					"name": "proposals",
					"outputs": [
						{
							"internalType": "uint256",
							"name": "id",
							"type": "uint256"
						},
						{
							"internalType": "address",
							"name": "proposer",
							"type": "address"
						},
						{
							"internalType": "string",
							"name": "description",
							"type": "string"
						},
						{
							"internalType": "uint256",
							"name": "startBlock",
							"type": "uint256"
						},
						{
							"internalType": "uint256",
							"name": "endBlock",
							"type": "uint256"
						},
						{
							"internalType": "uint256",
							"name": "forVotes",
							"type": "uint256"
						},
						{
							"internalType": "uint256",
							"name": "againstVotes",
							"type": "uint256"
						},
						{
							"internalType": "bool",
							"name": "executed",
							"type": "bool"
						},
						{
							"internalType": "uint256",
							"name": "executionTimestamp",
							"type": "uint256"
						},
						{
							"internalType": "bytes",
							"name": "callData",
							"type": "bytes"
						},
						{
							"internalType": "address",
							"name": "target",
							"type": "address"
						},
						{
							"internalType": "bool",
							"name": "canceled",
							"type": "bool"
						}
					],
					"stateMutability": "view",
					"type": "function"
				},
				{
					"inputs": [
						{
							"internalType": "bytes32",
							"name": "role",
							"type": "bytes32"
						},
						{
							"internalType": "address",
							"name": "callerConfirmation",
							"type": "address"
						}
					],
					"name": "renounceRole",
					"outputs": [],
					"stateMutability": "nonpayable",
					"type": "function"
				},
				{
					"inputs": [
						{
							"internalType": "bytes32",
							"name": "role",
							"type": "bytes32"
						},
						{
							"internalType": "address",
							"name": "account",
							"type": "address"
						}
					],
					"name": "revokeRole",
					"outputs": [],
					"stateMutability": "nonpayable",
					"type": "function"
				},
				{
					"inputs": [
						{
							"internalType": "uint256",
							"name": "_minimumQuorum",
							"type": "uint256"
						}
					],
					"name": "setMinimumQuorum",
					"outputs": [],
					"stateMutability": "nonpayable",
					"type": "function"
				},
				{
					"inputs": [
						{
							"internalType": "uint256",
							"name": "_proposalThreshold",
							"type": "uint256"
						}
					],
					"name": "setProposalThreshold",
					"outputs": [],
					"stateMutability": "nonpayable",
					"type": "function"
				},
				{
					"inputs": [
						{
							"internalType": "uint256",
							"name": "_timeLock",
							"type": "uint256"
						}
					],
					"name": "setTimeLock",
					"outputs": [],
					"stateMutability": "nonpayable",
					"type": "function"
				},
				{
					"inputs": [
						{
							"internalType": "uint256",
							"name": "_votingPeriod",
							"type": "uint256"
						}
					],
					"name": "setVotingPeriod",
					"outputs": [],
					"stateMutability": "nonpayable",
					"type": "function"
				},
				{
					"inputs": [
						{
							"internalType": "bytes4",
							"name": "interfaceId",
							"type": "bytes4"
						}
					],
					"name": "supportsInterface",
					"outputs": [
						{
							"internalType": "bool",
							"name": "",
							"type": "bool"
						}
					],
					"stateMutability": "view",
					"type": "function"
				},
				{
					"inputs": [],
					"name": "timeLock",
					"outputs": [
						{
							"internalType": "uint256",
							"name": "",
							"type": "uint256"
						}
					],
					"stateMutability": "view",
					"type": "function"
				},
				{
					"inputs": [],
					"name": "totalDistributed",
					"outputs": [
						{
							"internalType": "uint256",
							"name": "",
							"type": "uint256"
						}
					],
					"stateMutability": "view",
					"type": "function"
				},
				{
					"inputs": [],
					"name": "votingPeriod",
					"outputs": [
						{
							"internalType": "uint256",
							"name": "",
							"type": "uint256"
						}
					],
					"stateMutability": "view",
					"type": "function"
				},
				{
					"stateMutability": "payable",
					"type": "receive"
				}
			],
			"devdoc": {
				"errors": {
					"AccessControlBadConfirmation()": [
						{
							"details": "The caller of a function is not the expected one. NOTE: Don't confuse with {AccessControlUnauthorizedAccount}."
						}
					],
					"AccessControlUnauthorizedAccount(address,bytes32)": [
						{
							"details": "The `account` is missing a role."
						}
					]
				},
				"events": {
					"RoleAdminChanged(bytes32,bytes32,bytes32)": {
						"details": "Emitted when `newAdminRole` is set as ``role``'s admin role, replacing `previousAdminRole` `DEFAULT_ADMIN_ROLE` is the starting admin for all roles, despite {RoleAdminChanged} not being emitted signaling this."
					},
					"RoleGranted(bytes32,address,address)": {
						"details": "Emitted when `account` is granted `role`. `sender` is the account that originated the contract call. This account bears the admin role (for the granted role). Expected in cases where the role was granted using the internal {AccessControl-_grantRole}."
					},
					"RoleRevoked(bytes32,address,address)": {
						"details": "Emitted when `account` is revoked `role`. `sender` is the account that originated the contract call:   - if using `revokeRole`, it is the admin role bearer   - if using `renounceRole`, it is the role bearer (i.e. `account`)"
					}
				},
				"kind": "dev",
				"methods": {
					"getRoleAdmin(bytes32)": {
						"details": "Returns the admin role that controls `role`. See {grantRole} and {revokeRole}. To change a role's admin, use {_setRoleAdmin}."
					},
					"grantRole(bytes32,address)": {
						"details": "Grants `role` to `account`. If `account` had not been already granted `role`, emits a {RoleGranted} event. Requirements: - the caller must have ``role``'s admin role. May emit a {RoleGranted} event."
					},
					"hasRole(bytes32,address)": {
						"details": "Returns `true` if `account` has been granted `role`."
					},
					"renounceRole(bytes32,address)": {
						"details": "Revokes `role` from the calling account. Roles are often managed via {grantRole} and {revokeRole}: this function's purpose is to provide a mechanism for accounts to lose their privileges if they are compromised (such as when a trusted device is misplaced). If the calling account had been revoked `role`, emits a {RoleRevoked} event. Requirements: - the caller must be `callerConfirmation`. May emit a {RoleRevoked} event."
					},
					"revokeRole(bytes32,address)": {
						"details": "Revokes `role` from `account`. If `account` had been granted `role`, emits a {RoleRevoked} event. Requirements: - the caller must have ``role``'s admin role. May emit a {RoleRevoked} event."
					},
					"supportsInterface(bytes4)": {
						"details": "See {IERC165-supportsInterface}."
					}
				},
				"version": 1
			},
			"evm": {
				"assembly": "    /* \"proj/GameSwapDAO.sol\":775:11696  contract GameSwapDAO is AccessControl, ReentrancyGuard {... */\n  mstore(0x40, 0x80)\n    /* \"proj/GameSwapDAO.sol\":2983:3960  constructor(... */\n  callvalue\n  dup1\n  iszero\n  tag_1\n  jumpi\n  0x00\n  dup1\n  revert\ntag_1:\n  pop\n  mload(0x40)\n  sub(codesize, bytecodeSize)\n  dup1\n  bytecodeSize\n  dup4\n  codecopy\n  dup2\n  dup2\n  add\n  0x40\n  mstore\n  dup2\n  add\n  swap1\n  tag_2\n  swap2\n  swap1\n  tag_3\n  jump\t// in\ntag_2:\n    /* \"@openzeppelin/contracts/security/ReentrancyGuard.sol\":1716:1717  1 */\n  0x01\n    /* \"@openzeppelin/contracts/security/ReentrancyGuard.sol\":1821:1828  _status */\n  dup1\n    /* \"@openzeppelin/contracts/security/ReentrancyGuard.sol\":1821:1843  _status = _NOT_ENTERED */\n  dup2\n  swap1\n  sstore\n  pop\n    /* \"proj/GameSwapDAO.sol\":3209:3210  0 */\n  0x00\n    /* \"proj/GameSwapDAO.sol\":3180:3211  _gameTokenAddress != address(0) */\n  0xffffffffffffffffffffffffffffffffffffffff\n  and\n    /* \"proj/GameSwapDAO.sol\":3180:3197  _gameTokenAddress */\n  dup6\n    /* \"proj/GameSwapDAO.sol\":3180:3211  _gameTokenAddress != address(0) */\n  0xffffffffffffffffffffffffffffffffffffffff\n  and\n  sub\n    /* \"proj/GameSwapDAO.sol\":3172:3257  require(_gameTokenAddress != address(0), \"GameSwapDAO: token address cannot be zero\") */\n  tag_8\n  jumpi\n  mload(0x40)\n  0x08c379a000000000000000000000000000000000000000000000000000000000\n  dup2\n  mstore\n  0x04\n  add\n  tag_9\n  swap1\n  tag_10\n  jump\t// in\ntag_9:\n  mload(0x40)\n  dup1\n  swap2\n  sub\n  swap1\n  revert\ntag_8:\n    /* \"proj/GameSwapDAO.sol\":3292:3293  0 */\n  0x00\n    /* \"proj/GameSwapDAO.sol\":3275:3289  _minimumQuorum */\n  dup5\n    /* \"proj/GameSwapDAO.sol\":3275:3293  _minimumQuorum > 0 */\n  gt\n    /* \"proj/GameSwapDAO.sol\":3275:3320  _minimumQuorum > 0 && _minimumQuorum <= 10000 */\n  dup1\n  iszero\n  tag_11\n  jumpi\n  pop\n    /* \"proj/GameSwapDAO.sol\":3315:3320  10000 */\n  0x2710\n    /* \"proj/GameSwapDAO.sol\":3297:3311  _minimumQuorum */\n  dup5\n    /* \"proj/GameSwapDAO.sol\":3297:3320  _minimumQuorum <= 10000 */\n  gt\n  iszero\n    /* \"proj/GameSwapDAO.sol\":3275:3320  _minimumQuorum > 0 && _minimumQuorum <= 10000 */\ntag_11:\n    /* \"proj/GameSwapDAO.sol\":3267:3385  require(_minimumQuorum > 0 && _minimumQuorum <= 10000, \"GameSwapDAO: quorum must be between 1 and 10000 basis points\") */\n  tag_12\n  jumpi\n  mload(0x40)\n  0x08c379a000000000000000000000000000000000000000000000000000000000\n  dup2\n  mstore\n  0x04\n  add\n  tag_13\n  swap1\n  tag_14\n  jump\t// in\ntag_13:\n  mload(0x40)\n  dup1\n  swap2\n  sub\n  swap1\n  revert\ntag_12:\n    /* \"proj/GameSwapDAO.sol\":3424:3425  0 */\n  0x00\n    /* \"proj/GameSwapDAO.sol\":3403:3421  _proposalThreshold */\n  dup4\n    /* \"proj/GameSwapDAO.sol\":3403:3425  _proposalThreshold > 0 */\n  gt\n    /* \"proj/GameSwapDAO.sol\":3403:3456  _proposalThreshold > 0 && _proposalThreshold <= 10000 */\n  dup1\n  iszero\n  tag_15\n  jumpi\n  pop\n    /* \"proj/GameSwapDAO.sol\":3451:3456  10000 */\n  0x2710\n    /* \"proj/GameSwapDAO.sol\":3429:3447  _proposalThreshold */\n  dup4\n    /* \"proj/GameSwapDAO.sol\":3429:3456  _proposalThreshold <= 10000 */\n  gt\n  iszero\n    /* \"proj/GameSwapDAO.sol\":3403:3456  _proposalThreshold > 0 && _proposalThreshold <= 10000 */\ntag_15:\n    /* \"proj/GameSwapDAO.sol\":3395:3524  require(_proposalThreshold > 0 && _proposalThreshold <= 10000, \"GameSwapDAO: threshold must be between 1 and 10000 basis points\") */\n  tag_16\n  jumpi\n  mload(0x40)\n  0x08c379a000000000000000000000000000000000000000000000000000000000\n  dup2\n  mstore\n  0x04\n  add\n  tag_17\n  swap1\n  tag_18\n  jump\t// in\ntag_17:\n  mload(0x40)\n  dup1\n  swap2\n  sub\n  swap1\n  revert\ntag_16:\n    /* \"proj/GameSwapDAO.sol\":3570:3587  _gameTokenAddress */\n  dup5\n    /* \"proj/GameSwapDAO.sol\":3543:3552  gameToken */\n  0x02\n  0x00\n    /* \"proj/GameSwapDAO.sol\":3543:3588  gameToken = IGameSwapToken(_gameTokenAddress) */\n  0x0100\n  exp\n  dup2\n  sload\n  dup2\n  0xffffffffffffffffffffffffffffffffffffffff\n  mul\n  not\n  and\n  swap1\n  dup4\n  0xffffffffffffffffffffffffffffffffffffffff\n  and\n  mul\n  or\n  swap1\n  sstore\n  pop\n    /* \"proj/GameSwapDAO.sol\":3614:3628  _minimumQuorum */\n  dup4\n    /* \"proj/GameSwapDAO.sol\":3598:3611  minimumQuorum */\n  0x04\n    /* \"proj/GameSwapDAO.sol\":3598:3628  minimumQuorum = _minimumQuorum */\n  dup2\n  swap1\n  sstore\n  pop\n    /* \"proj/GameSwapDAO.sol\":3680:3698  _proposalThreshold */\n  dup3\n    /* \"proj/GameSwapDAO.sol\":3660:3677  proposalThreshold */\n  0x05\n    /* \"proj/GameSwapDAO.sol\":3660:3698  proposalThreshold = _proposalThreshold */\n  dup2\n  swap1\n  sstore\n  pop\n    /* \"proj/GameSwapDAO.sol\":3743:3756  _votingPeriod */\n  dup2\n    /* \"proj/GameSwapDAO.sol\":3728:3740  votingPeriod */\n  0x06\n    /* \"proj/GameSwapDAO.sol\":3728:3756  votingPeriod = _votingPeriod */\n  dup2\n  swap1\n  sstore\n  pop\n    /* \"proj/GameSwapDAO.sol\":3839:3848  _timeLock */\n  dup1\n    /* \"proj/GameSwapDAO.sol\":3828:3836  timeLock */\n  0x07\n    /* \"proj/GameSwapDAO.sol\":3828:3848  timeLock = _timeLock */\n  dup2\n  swap1\n  sstore\n  pop\n    /* \"proj/GameSwapDAO.sol\":3911:3953  _grantRole(DEFAULT_ADMIN_ROLE, msg.sender) */\n  tag_19\n    /* \"@openzeppelin/contracts/access/AccessControl.sol\":2232:2236  0x00 */\n  0x00\n    /* \"proj/GameSwapDAO.sol\":3922:3940  DEFAULT_ADMIN_ROLE */\n  dup1\n  shl\n    /* \"proj/GameSwapDAO.sol\":3942:3952  msg.sender */\n  caller\n    /* \"proj/GameSwapDAO.sol\":3911:3921  _grantRole */\n  shl(0x20, tag_20)\n    /* \"proj/GameSwapDAO.sol\":3911:3953  _grantRole(DEFAULT_ADMIN_ROLE, msg.sender) */\n  0x20\n  shr\n  jump\t// in\ntag_19:\n  pop\n    /* \"proj/GameSwapDAO.sol\":2983:3960  constructor(... */\n  pop\n  pop\n  pop\n  pop\n  pop\n    /* \"proj/GameSwapDAO.sol\":775:11696  contract GameSwapDAO is AccessControl, ReentrancyGuard {... */\n  jump(tag_21)\n    /* \"@openzeppelin/contracts/access/AccessControl.sol\":6179:6495  function _grantRole(bytes32 role, address account) internal virtual returns (bool) {... */\ntag_20:\n    /* \"@openzeppelin/contracts/access/AccessControl.sol\":6256:6260  bool */\n  0x00\n    /* \"@openzeppelin/contracts/access/AccessControl.sol\":6277:6299  hasRole(role, account) */\n  tag_23\n    /* \"@openzeppelin/contracts/access/AccessControl.sol\":6285:6289  role */\n  dup4\n    /* \"@openzeppelin/contracts/access/AccessControl.sol\":6291:6298  account */\n  dup4\n    /* \"@openzeppelin/contracts/access/AccessControl.sol\":6277:6284  hasRole */\n  shl(0x20, tag_24)\n    /* \"@openzeppelin/contracts/access/AccessControl.sol\":6277:6299  hasRole(role, account) */\n  0x20\n  shr\n  jump\t// in\ntag_23:\n    /* \"@openzeppelin/contracts/access/AccessControl.sol\":6272:6489  if (!hasRole(role, account)) {... */\n  tag_25\n  jumpi\n    /* \"@openzeppelin/contracts/access/AccessControl.sol\":6347:6351  true */\n  0x01\n    /* \"@openzeppelin/contracts/access/AccessControl.sol\":6315:6321  _roles */\n  0x00\n    /* \"@openzeppelin/contracts/access/AccessControl.sol\":6315:6327  _roles[role] */\n  dup1\n    /* \"@openzeppelin/contracts/access/AccessControl.sol\":6322:6326  role */\n  dup6\n    /* \"@openzeppelin/contracts/access/AccessControl.sol\":6315:6327  _roles[role] */\n  dup2\n  mstore\n  0x20\n  add\n  swap1\n  dup2\n  mstore\n  0x20\n  add\n  0x00\n  keccak256\n    /* \"@openzeppelin/contracts/access/AccessControl.sol\":6315:6335  _roles[role].hasRole */\n  0x00\n  add\n    /* \"@openzeppelin/contracts/access/AccessControl.sol\":6315:6344  _roles[role].hasRole[account] */\n  0x00\n    /* \"@openzeppelin/contracts/access/AccessControl.sol\":6336:6343  account */\n  dup5\n    /* \"@openzeppelin/contracts/access/AccessControl.sol\":6315:6344  _roles[role].hasRole[account] */\n  0xffffffffffffffffffffffffffffffffffffffff\n  and\n  0xffffffffffffffffffffffffffffffffffffffff\n  and\n  dup2\n  mstore\n  0x20\n  add\n  swap1\n  dup2\n  mstore\n  0x20\n  add\n  0x00\n  keccak256\n  0x00\n    /* \"@openzeppelin/contracts/access/AccessControl.sol\":6315:6351  _roles[role].hasRole[account] = true */\n  0x0100\n  exp\n  dup2\n  sload\n  dup2\n  0xff\n  mul\n  not\n  and\n  swap1\n  dup4\n  iszero\n  iszero\n  mul\n  or\n  swap1\n  sstore\n  pop\n    /* \"@openzeppelin/contracts/access/AccessControl.sol\":6397:6409  _msgSender() */\n  tag_26\n    /* \"@openzeppelin/contracts/access/AccessControl.sol\":6397:6407  _msgSender */\n  shl(0x20, tag_27)\n    /* \"@openzeppelin/contracts/access/AccessControl.sol\":6397:6409  _msgSender() */\n  0x20\n  shr\n  jump\t// in\ntag_26:\n    /* \"@openzeppelin/contracts/access/AccessControl.sol\":6370:6410  RoleGranted(role, account, _msgSender()) */\n  0xffffffffffffffffffffffffffffffffffffffff\n  and\n    /* \"@openzeppelin/contracts/access/AccessControl.sol\":6388:6395  account */\n  dup3\n    /* \"@openzeppelin/contracts/access/AccessControl.sol\":6370:6410  RoleGranted(role, account, _msgSender()) */\n  0xffffffffffffffffffffffffffffffffffffffff\n  and\n    /* \"@openzeppelin/contracts/access/AccessControl.sol\":6382:6386  role */\n  dup5\n    /* \"@openzeppelin/contracts/access/AccessControl.sol\":6370:6410  RoleGranted(role, account, _msgSender()) */\n  0x2f8788117e7eff1d82e926ec794901d17c78024a50270940304540a733656f0d\n  mload(0x40)\n  mload(0x40)\n  dup1\n  swap2\n  sub\n  swap1\n  log4\n    /* \"@openzeppelin/contracts/access/AccessControl.sol\":6431:6435  true */\n  0x01\n    /* \"@openzeppelin/contracts/access/AccessControl.sol\":6424:6435  return true */\n  swap1\n  pop\n  jump(tag_22)\n    /* \"@openzeppelin/contracts/access/AccessControl.sol\":6272:6489  if (!hasRole(role, account)) {... */\ntag_25:\n    /* \"@openzeppelin/contracts/access/AccessControl.sol\":6473:6478  false */\n  0x00\n    /* \"@openzeppelin/contracts/access/AccessControl.sol\":6466:6478  return false */\n  swap1\n  pop\n    /* \"@openzeppelin/contracts/access/AccessControl.sol\":6179:6495  function _grantRole(bytes32 role, address account) internal virtual returns (bool) {... */\ntag_22:\n  swap3\n  swap2\n  pop\n  pop\n  jump\t// out\n    /* \"@openzeppelin/contracts/access/AccessControl.sol\":2854:2990  function hasRole(bytes32 role, address account) public view virtual returns (bool) {... */\ntag_24:\n    /* \"@openzeppelin/contracts/access/AccessControl.sol\":2931:2935  bool */\n  0x00\n    /* \"@openzeppelin/contracts/access/AccessControl.sol\":2954:2960  _roles */\n  dup1\n    /* \"@openzeppelin/contracts/access/AccessControl.sol\":2954:2966  _roles[role] */\n  0x00\n    /* \"@openzeppelin/contracts/access/AccessControl.sol\":2961:2965  role */\n  dup5\n    /* \"@openzeppelin/contracts/access/AccessControl.sol\":2954:2966  _roles[role] */\n  dup2\n  mstore\n  0x20\n  add\n  swap1\n  dup2\n  mstore\n  0x20\n  add\n  0x00\n  keccak256\n    /* \"@openzeppelin/contracts/access/AccessControl.sol\":2954:2974  _roles[role].hasRole */\n  0x00\n  add\n    /* \"@openzeppelin/contracts/access/AccessControl.sol\":2954:2983  _roles[role].hasRole[account] */\n  0x00\n    /* \"@openzeppelin/contracts/access/AccessControl.sol\":2975:2982  account */\n  dup4\n    /* \"@openzeppelin/contracts/access/AccessControl.sol\":2954:2983  _roles[role].hasRole[account] */\n  0xffffffffffffffffffffffffffffffffffffffff\n  and\n  0xffffffffffffffffffffffffffffffffffffffff\n  and\n  dup2\n  mstore\n  0x20\n  add\n  swap1\n  dup2\n  mstore\n  0x20\n  add\n  0x00\n  keccak256\n  0x00\n  swap1\n  sload\n  swap1\n  0x0100\n  exp\n  swap1\n  div\n  0xff\n  and\n    /* \"@openzeppelin/contracts/access/AccessControl.sol\":2947:2983  return _roles[role].hasRole[account] */\n  swap1\n  pop\n    /* \"@openzeppelin/contracts/access/AccessControl.sol\":2854:2990  function hasRole(bytes32 role, address account) public view virtual returns (bool) {... */\n  swap3\n  swap2\n  pop\n  pop\n  jump\t// out\n    /* \"@openzeppelin/contracts/utils/Context.sol\":656:752  function _msgSender() internal view virtual returns (address) {... */\ntag_27:\n    /* \"@openzeppelin/contracts/utils/Context.sol\":709:716  address */\n  0x00\n    /* \"@openzeppelin/contracts/utils/Context.sol\":735:745  msg.sender */\n  caller\n    /* \"@openzeppelin/contracts/utils/Context.sol\":728:745  return msg.sender */\n  swap1\n  pop\n    /* \"@openzeppelin/contracts/utils/Context.sol\":656:752  function _msgSender() internal view virtual returns (address) {... */\n  swap1\n  jump\t// out\n    /* \"#utility.yul\":88:205   */\ntag_32:\n    /* \"#utility.yul\":197:198   */\n  0x00\n    /* \"#utility.yul\":194:195   */\n  dup1\n    /* \"#utility.yul\":187:199   */\n  revert\n    /* \"#utility.yul\":334:460   */\ntag_34:\n    /* \"#utility.yul\":371:378   */\n  0x00\n    /* \"#utility.yul\":411:453   */\n  0xffffffffffffffffffffffffffffffffffffffff\n    /* \"#utility.yul\":404:409   */\n  dup3\n    /* \"#utility.yul\":400:454   */\n  and\n    /* \"#utility.yul\":389:454   */\n  swap1\n  pop\n    /* \"#utility.yul\":334:460   */\n  swap2\n  swap1\n  pop\n  jump\t// out\n    /* \"#utility.yul\":466:562   */\ntag_35:\n    /* \"#utility.yul\":503:510   */\n  0x00\n    /* \"#utility.yul\":532:556   */\n  tag_54\n    /* \"#utility.yul\":550:555   */\n  dup3\n    /* \"#utility.yul\":532:556   */\n  tag_34\n  jump\t// in\ntag_54:\n    /* \"#utility.yul\":521:556   */\n  swap1\n  pop\n    /* \"#utility.yul\":466:562   */\n  swap2\n  swap1\n  pop\n  jump\t// out\n    /* \"#utility.yul\":568:690   */\ntag_36:\n    /* \"#utility.yul\":641:665   */\n  tag_56\n    /* \"#utility.yul\":659:664   */\n  dup2\n    /* \"#utility.yul\":641:665   */\n  tag_35\n  jump\t// in\ntag_56:\n    /* \"#utility.yul\":634:639   */\n  dup2\n    /* \"#utility.yul\":631:666   */\n  eq\n    /* \"#utility.yul\":621:684   */\n  tag_57\n  jumpi\n    /* \"#utility.yul\":680:681   */\n  0x00\n    /* \"#utility.yul\":677:678   */\n  dup1\n    /* \"#utility.yul\":670:682   */\n  revert\n    /* \"#utility.yul\":621:684   */\ntag_57:\n    /* \"#utility.yul\":568:690   */\n  pop\n  jump\t// out\n    /* \"#utility.yul\":696:839   */\ntag_37:\n    /* \"#utility.yul\":753:758   */\n  0x00\n    /* \"#utility.yul\":784:790   */\n  dup2\n    /* \"#utility.yul\":778:791   */\n  mload\n    /* \"#utility.yul\":769:791   */\n  swap1\n  pop\n    /* \"#utility.yul\":800:833   */\n  tag_59\n    /* \"#utility.yul\":827:832   */\n  dup2\n    /* \"#utility.yul\":800:833   */\n  tag_36\n  jump\t// in\ntag_59:\n    /* \"#utility.yul\":696:839   */\n  swap3\n  swap2\n  pop\n  pop\n  jump\t// out\n    /* \"#utility.yul\":845:922   */\ntag_38:\n    /* \"#utility.yul\":882:889   */\n  0x00\n    /* \"#utility.yul\":911:916   */\n  dup2\n    /* \"#utility.yul\":900:916   */\n  swap1\n  pop\n    /* \"#utility.yul\":845:922   */\n  swap2\n  swap1\n  pop\n  jump\t// out\n    /* \"#utility.yul\":928:1050   */\ntag_39:\n    /* \"#utility.yul\":1001:1025   */\n  tag_62\n    /* \"#utility.yul\":1019:1024   */\n  dup2\n    /* \"#utility.yul\":1001:1025   */\n  tag_38\n  jump\t// in\ntag_62:\n    /* \"#utility.yul\":994:999   */\n  dup2\n    /* \"#utility.yul\":991:1026   */\n  eq\n    /* \"#utility.yul\":981:1044   */\n  tag_63\n  jumpi\n    /* \"#utility.yul\":1040:1041   */\n  0x00\n    /* \"#utility.yul\":1037:1038   */\n  dup1\n    /* \"#utility.yul\":1030:1042   */\n  revert\n    /* \"#utility.yul\":981:1044   */\ntag_63:\n    /* \"#utility.yul\":928:1050   */\n  pop\n  jump\t// out\n    /* \"#utility.yul\":1056:1199   */\ntag_40:\n    /* \"#utility.yul\":1113:1118   */\n  0x00\n    /* \"#utility.yul\":1144:1150   */\n  dup2\n    /* \"#utility.yul\":1138:1151   */\n  mload\n    /* \"#utility.yul\":1129:1151   */\n  swap1\n  pop\n    /* \"#utility.yul\":1160:1193   */\n  tag_65\n    /* \"#utility.yul\":1187:1192   */\n  dup2\n    /* \"#utility.yul\":1160:1193   */\n  tag_39\n  jump\t// in\ntag_65:\n    /* \"#utility.yul\":1056:1199   */\n  swap3\n  swap2\n  pop\n  pop\n  jump\t// out\n    /* \"#utility.yul\":1205:2182   */\ntag_3:\n    /* \"#utility.yul\":1311:1317   */\n  0x00\n    /* \"#utility.yul\":1319:1325   */\n  dup1\n    /* \"#utility.yul\":1327:1333   */\n  0x00\n    /* \"#utility.yul\":1335:1341   */\n  dup1\n    /* \"#utility.yul\":1343:1349   */\n  0x00\n    /* \"#utility.yul\":1392:1395   */\n  0xa0\n    /* \"#utility.yul\":1380:1389   */\n  dup7\n    /* \"#utility.yul\":1371:1378   */\n  dup9\n    /* \"#utility.yul\":1367:1390   */\n  sub\n    /* \"#utility.yul\":1363:1396   */\n  slt\n    /* \"#utility.yul\":1360:1480   */\n  iszero\n  tag_67\n  jumpi\n    /* \"#utility.yul\":1399:1478   */\n  tag_68\n  tag_32\n  jump\t// in\ntag_68:\n    /* \"#utility.yul\":1360:1480   */\ntag_67:\n    /* \"#utility.yul\":1519:1520   */\n  0x00\n    /* \"#utility.yul\":1544:1608   */\n  tag_69\n    /* \"#utility.yul\":1600:1607   */\n  dup9\n    /* \"#utility.yul\":1591:1597   */\n  dup3\n    /* \"#utility.yul\":1580:1589   */\n  dup10\n    /* \"#utility.yul\":1576:1598   */\n  add\n    /* \"#utility.yul\":1544:1608   */\n  tag_37\n  jump\t// in\ntag_69:\n    /* \"#utility.yul\":1534:1608   */\n  swap6\n  pop\n    /* \"#utility.yul\":1490:1618   */\n  pop\n    /* \"#utility.yul\":1657:1659   */\n  0x20\n    /* \"#utility.yul\":1683:1747   */\n  tag_70\n    /* \"#utility.yul\":1739:1746   */\n  dup9\n    /* \"#utility.yul\":1730:1736   */\n  dup3\n    /* \"#utility.yul\":1719:1728   */\n  dup10\n    /* \"#utility.yul\":1715:1737   */\n  add\n    /* \"#utility.yul\":1683:1747   */\n  tag_40\n  jump\t// in\ntag_70:\n    /* \"#utility.yul\":1673:1747   */\n  swap5\n  pop\n    /* \"#utility.yul\":1628:1757   */\n  pop\n    /* \"#utility.yul\":1796:1798   */\n  0x40\n    /* \"#utility.yul\":1822:1886   */\n  tag_71\n    /* \"#utility.yul\":1878:1885   */\n  dup9\n    /* \"#utility.yul\":1869:1875   */\n  dup3\n    /* \"#utility.yul\":1858:1867   */\n  dup10\n    /* \"#utility.yul\":1854:1876   */\n  add\n    /* \"#utility.yul\":1822:1886   */\n  tag_40\n  jump\t// in\ntag_71:\n    /* \"#utility.yul\":1812:1886   */\n  swap4\n  pop\n    /* \"#utility.yul\":1767:1896   */\n  pop\n    /* \"#utility.yul\":1935:1937   */\n  0x60\n    /* \"#utility.yul\":1961:2025   */\n  tag_72\n    /* \"#utility.yul\":2017:2024   */\n  dup9\n    /* \"#utility.yul\":2008:2014   */\n  dup3\n    /* \"#utility.yul\":1997:2006   */\n  dup10\n    /* \"#utility.yul\":1993:2015   */\n  add\n    /* \"#utility.yul\":1961:2025   */\n  tag_40\n  jump\t// in\ntag_72:\n    /* \"#utility.yul\":1951:2025   */\n  swap3\n  pop\n    /* \"#utility.yul\":1906:2035   */\n  pop\n    /* \"#utility.yul\":2074:2077   */\n  0x80\n    /* \"#utility.yul\":2101:2165   */\n  tag_73\n    /* \"#utility.yul\":2157:2164   */\n  dup9\n    /* \"#utility.yul\":2148:2154   */\n  dup3\n    /* \"#utility.yul\":2137:2146   */\n  dup10\n    /* \"#utility.yul\":2133:2155   */\n  add\n    /* \"#utility.yul\":2101:2165   */\n  tag_40\n  jump\t// in\ntag_73:\n    /* \"#utility.yul\":2091:2165   */\n  swap2\n  pop\n    /* \"#utility.yul\":2045:2175   */\n  pop\n    /* \"#utility.yul\":1205:2182   */\n  swap3\n  swap6\n  pop\n  swap3\n  swap6\n  swap1\n  swap4\n  pop\n  jump\t// out\n    /* \"#utility.yul\":2188:2357   */\ntag_41:\n    /* \"#utility.yul\":2272:2283   */\n  0x00\n    /* \"#utility.yul\":2306:2312   */\n  dup3\n    /* \"#utility.yul\":2301:2304   */\n  dup3\n    /* \"#utility.yul\":2294:2313   */\n  mstore\n    /* \"#utility.yul\":2346:2350   */\n  0x20\n    /* \"#utility.yul\":2341:2344   */\n  dup3\n    /* \"#utility.yul\":2337:2351   */\n  add\n    /* \"#utility.yul\":2322:2351   */\n  swap1\n  pop\n    /* \"#utility.yul\":2188:2357   */\n  swap3\n  swap2\n  pop\n  pop\n  jump\t// out\n    /* \"#utility.yul\":2363:2591   */\ntag_42:\n    /* \"#utility.yul\":2503:2537   */\n  0x47616d655377617044414f3a20746f6b656e20616464726573732063616e6e6f\n    /* \"#utility.yul\":2499:2500   */\n  0x00\n    /* \"#utility.yul\":2491:2497   */\n  dup3\n    /* \"#utility.yul\":2487:2501   */\n  add\n    /* \"#utility.yul\":2480:2538   */\n  mstore\n    /* \"#utility.yul\":2572:2583   */\n  0x74206265207a65726f0000000000000000000000000000000000000000000000\n    /* \"#utility.yul\":2567:2569   */\n  0x20\n    /* \"#utility.yul\":2559:2565   */\n  dup3\n    /* \"#utility.yul\":2555:2570   */\n  add\n    /* \"#utility.yul\":2548:2584   */\n  mstore\n    /* \"#utility.yul\":2363:2591   */\n  pop\n  jump\t// out\n    /* \"#utility.yul\":2597:2963   */\ntag_43:\n    /* \"#utility.yul\":2739:2742   */\n  0x00\n    /* \"#utility.yul\":2760:2827   */\n  tag_77\n    /* \"#utility.yul\":2824:2826   */\n  0x29\n    /* \"#utility.yul\":2819:2822   */\n  dup4\n    /* \"#utility.yul\":2760:2827   */\n  tag_41\n  jump\t// in\ntag_77:\n    /* \"#utility.yul\":2753:2827   */\n  swap2\n  pop\n    /* \"#utility.yul\":2836:2929   */\n  tag_78\n    /* \"#utility.yul\":2925:2928   */\n  dup3\n    /* \"#utility.yul\":2836:2929   */\n  tag_42\n  jump\t// in\ntag_78:\n    /* \"#utility.yul\":2954:2956   */\n  0x40\n    /* \"#utility.yul\":2949:2952   */\n  dup3\n    /* \"#utility.yul\":2945:2957   */\n  add\n    /* \"#utility.yul\":2938:2957   */\n  swap1\n  pop\n    /* \"#utility.yul\":2597:2963   */\n  swap2\n  swap1\n  pop\n  jump\t// out\n    /* \"#utility.yul\":2969:3388   */\ntag_10:\n    /* \"#utility.yul\":3135:3139   */\n  0x00\n    /* \"#utility.yul\":3173:3175   */\n  0x20\n    /* \"#utility.yul\":3162:3171   */\n  dup3\n    /* \"#utility.yul\":3158:3176   */\n  add\n    /* \"#utility.yul\":3150:3176   */\n  swap1\n  pop\n    /* \"#utility.yul\":3222:3231   */\n  dup2\n    /* \"#utility.yul\":3216:3220   */\n  dup2\n    /* \"#utility.yul\":3212:3232   */\n  sub\n    /* \"#utility.yul\":3208:3209   */\n  0x00\n    /* \"#utility.yul\":3197:3206   */\n  dup4\n    /* \"#utility.yul\":3193:3210   */\n  add\n    /* \"#utility.yul\":3186:3233   */\n  mstore\n    /* \"#utility.yul\":3250:3381   */\n  tag_80\n    /* \"#utility.yul\":3376:3380   */\n  dup2\n    /* \"#utility.yul\":3250:3381   */\n  tag_43\n  jump\t// in\ntag_80:\n    /* \"#utility.yul\":3242:3381   */\n  swap1\n  pop\n    /* \"#utility.yul\":2969:3388   */\n  swap2\n  swap1\n  pop\n  jump\t// out\n    /* \"#utility.yul\":3394:3641   */\ntag_44:\n    /* \"#utility.yul\":3534:3568   */\n  0x47616d655377617044414f3a2071756f72756d206d7573742062652062657477\n    /* \"#utility.yul\":3530:3531   */\n  0x00\n    /* \"#utility.yul\":3522:3528   */\n  dup3\n    /* \"#utility.yul\":3518:3532   */\n  add\n    /* \"#utility.yul\":3511:3569   */\n  mstore\n    /* \"#utility.yul\":3603:3633   */\n  0x65656e203120616e6420313030303020626173697320706f696e747300000000\n    /* \"#utility.yul\":3598:3600   */\n  0x20\n    /* \"#utility.yul\":3590:3596   */\n  dup3\n    /* \"#utility.yul\":3586:3601   */\n  add\n    /* \"#utility.yul\":3579:3634   */\n  mstore\n    /* \"#utility.yul\":3394:3641   */\n  pop\n  jump\t// out\n    /* \"#utility.yul\":3647:4013   */\ntag_45:\n    /* \"#utility.yul\":3789:3792   */\n  0x00\n    /* \"#utility.yul\":3810:3877   */\n  tag_83\n    /* \"#utility.yul\":3874:3876   */\n  0x3c\n    /* \"#utility.yul\":3869:3872   */\n  dup4\n    /* \"#utility.yul\":3810:3877   */\n  tag_41\n  jump\t// in\ntag_83:\n    /* \"#utility.yul\":3803:3877   */\n  swap2\n  pop\n    /* \"#utility.yul\":3886:3979   */\n  tag_84\n    /* \"#utility.yul\":3975:3978   */\n  dup3\n    /* \"#utility.yul\":3886:3979   */\n  tag_44\n  jump\t// in\ntag_84:\n    /* \"#utility.yul\":4004:4006   */\n  0x40\n    /* \"#utility.yul\":3999:4002   */\n  dup3\n    /* \"#utility.yul\":3995:4007   */\n  add\n    /* \"#utility.yul\":3988:4007   */\n  swap1\n  pop\n    /* \"#utility.yul\":3647:4013   */\n  swap2\n  swap1\n  pop\n  jump\t// out\n    /* \"#utility.yul\":4019:4438   */\ntag_14:\n    /* \"#utility.yul\":4185:4189   */\n  0x00\n    /* \"#utility.yul\":4223:4225   */\n  0x20\n    /* \"#utility.yul\":4212:4221   */\n  dup3\n    /* \"#utility.yul\":4208:4226   */\n  add\n    /* \"#utility.yul\":4200:4226   */\n  swap1\n  pop\n    /* \"#utility.yul\":4272:4281   */\n  dup2\n    /* \"#utility.yul\":4266:4270   */\n  dup2\n    /* \"#utility.yul\":4262:4282   */\n  sub\n    /* \"#utility.yul\":4258:4259   */\n  0x00\n    /* \"#utility.yul\":4247:4256   */\n  dup4\n    /* \"#utility.yul\":4243:4260   */\n  add\n    /* \"#utility.yul\":4236:4283   */\n  mstore\n    /* \"#utility.yul\":4300:4431   */\n  tag_86\n    /* \"#utility.yul\":4426:4430   */\n  dup2\n    /* \"#utility.yul\":4300:4431   */\n  tag_45\n  jump\t// in\ntag_86:\n    /* \"#utility.yul\":4292:4431   */\n  swap1\n  pop\n    /* \"#utility.yul\":4019:4438   */\n  swap2\n  swap1\n  pop\n  jump\t// out\n    /* \"#utility.yul\":4444:4694   */\ntag_46:\n    /* \"#utility.yul\":4584:4618   */\n  0x47616d655377617044414f3a207468726573686f6c64206d7573742062652062\n    /* \"#utility.yul\":4580:4581   */\n  0x00\n    /* \"#utility.yul\":4572:4578   */\n  dup3\n    /* \"#utility.yul\":4568:4582   */\n  add\n    /* \"#utility.yul\":4561:4619   */\n  mstore\n    /* \"#utility.yul\":4653:4686   */\n  0x65747765656e203120616e6420313030303020626173697320706f696e747300\n    /* \"#utility.yul\":4648:4650   */\n  0x20\n    /* \"#utility.yul\":4640:4646   */\n  dup3\n    /* \"#utility.yul\":4636:4651   */\n  add\n    /* \"#utility.yul\":4629:4687   */\n  mstore\n    /* \"#utility.yul\":4444:4694   */\n  pop\n  jump\t// out\n    /* \"#utility.yul\":4700:5066   */\ntag_47:\n    /* \"#utility.yul\":4842:4845   */\n  0x00\n    /* \"#utility.yul\":4863:4930   */\n  tag_89\n    /* \"#utility.yul\":4927:4929   */\n  0x3f\n    /* \"#utility.yul\":4922:4925   */\n  dup4\n    /* \"#utility.yul\":4863:4930   */\n  tag_41\n  jump\t// in\ntag_89:\n    /* \"#utility.yul\":4856:4930   */\n  swap2\n  pop\n    /* \"#utility.yul\":4939:5032   */\n  tag_90\n    /* \"#utility.yul\":5028:5031   */\n  dup3\n    /* \"#utility.yul\":4939:5032   */\n  tag_46\n  jump\t// in\ntag_90:\n    /* \"#utility.yul\":5057:5059   */\n  0x40\n    /* \"#utility.yul\":5052:5055   */\n  dup3\n    /* \"#utility.yul\":5048:5060   */\n  add\n    /* \"#utility.yul\":5041:5060   */\n  swap1\n  pop\n    /* \"#utility.yul\":4700:5066   */\n  swap2\n  swap1\n  pop\n  jump\t// out\n    /* \"#utility.yul\":5072:5491   */\ntag_18:\n    /* \"#utility.yul\":5238:5242   */\n  0x00\n    /* \"#utility.yul\":5276:5278   */\n  0x20\n    /* \"#utility.yul\":5265:5274   */\n  dup3\n    /* \"#utility.yul\":5261:5279   */\n  add\n    /* \"#utility.yul\":5253:5279   */\n  swap1\n  pop\n    /* \"#utility.yul\":5325:5334   */\n  dup2\n    /* \"#utility.yul\":5319:5323   */\n  dup2\n    /* \"#utility.yul\":5315:5335   */\n  sub\n    /* \"#utility.yul\":5311:5312   */\n  0x00\n    /* \"#utility.yul\":5300:5309   */\n  dup4\n    /* \"#utility.yul\":5296:5313   */\n  add\n    /* \"#utility.yul\":5289:5336   */\n  mstore\n    /* \"#utility.yul\":5353:5484   */\n  tag_92\n    /* \"#utility.yul\":5479:5483   */\n  dup2\n    /* \"#utility.yul\":5353:5484   */\n  tag_47\n  jump\t// in\ntag_92:\n    /* \"#utility.yul\":5345:5484   */\n  swap1\n  pop\n    /* \"#utility.yul\":5072:5491   */\n  swap2\n  swap1\n  pop\n  jump\t// out\n    /* \"proj/GameSwapDAO.sol\":775:11696  contract GameSwapDAO is AccessControl, ReentrancyGuard {... */\ntag_21:\n  dataSize(sub_0)\n  dup1\n  dataOffset(sub_0)\n  0x00\n  codecopy\n  0x00\n  return\nstop\n\nsub_0: assembly {\n        /* \"proj/GameSwapDAO.sol\":775:11696  contract GameSwapDAO is AccessControl, ReentrancyGuard {... */\n      mstore(0x40, 0x80)\n      jumpi(tag_1, lt(calldatasize, 0x04))\n      shr(0xe0, calldataload(0x00))\n      dup1\n      0x91d14854\n      gt\n      tag_33\n      jumpi\n      dup1\n      0xd085835a\n      gt\n      tag_34\n      jumpi\n      dup1\n      0xe0a8f6f5\n      gt\n      tag_35\n      jumpi\n      dup1\n      0xe0a8f6f5\n      eq\n      tag_29\n      jumpi\n      dup1\n      0xea0217cf\n      eq\n      tag_30\n      jumpi\n      dup1\n      0xece40cc1\n      eq\n      tag_31\n      jumpi\n      dup1\n      0xefca2eed\n      eq\n      tag_32\n      jumpi\n      jump(tag_2)\n    tag_35:\n      dup1\n      0xd085835a\n      eq\n      tag_25\n      jumpi\n      dup1\n      0xd547741f\n      eq\n      tag_26\n      jumpi\n      dup1\n      0xda35c664\n      eq\n      tag_27\n      jumpi\n      dup1\n      0xdfff8568\n      eq\n      tag_28\n      jumpi\n      jump(tag_2)\n    tag_34:\n      dup1\n      0xb58131b0\n      gt\n      tag_36\n      jumpi\n      dup1\n      0xb58131b0\n      eq\n      tag_21\n      jumpi\n      dup1\n      0xbb57ad20\n      eq\n      tag_22\n      jumpi\n      dup1\n      0xc3439f3f\n      eq\n      tag_23\n      jumpi\n      dup1\n      0xc3dfdae6\n      eq\n      tag_24\n      jumpi\n      jump(tag_2)\n    tag_36:\n      dup1\n      0x91d14854\n      eq\n      tag_18\n      jumpi\n      dup1\n      0xa217fddf\n      eq\n      tag_19\n      jumpi\n      dup1\n      0xa94015c8\n      eq\n      tag_20\n      jumpi\n      jump(tag_2)\n    tag_33:\n      dup1\n      0x2f2ff15d\n      gt\n      tag_37\n      jumpi\n      dup1\n      0x5312ea8e\n      gt\n      tag_38\n      jumpi\n      dup1\n      0x5312ea8e\n      eq\n      tag_14\n      jumpi\n      dup1\n      0x5bcb318a\n      eq\n      tag_15\n      jumpi\n      dup1\n      0x6f698fb5\n      eq\n      tag_16\n      jumpi\n      dup1\n      0x8160f0b5\n      eq\n      tag_17\n      jumpi\n      jump(tag_2)\n    tag_38:\n      dup1\n      0x2f2ff15d\n      eq\n      tag_10\n      jumpi\n      dup1\n      0x31d7a262\n      eq\n      tag_11\n      jumpi\n      dup1\n      0x36568abe\n      eq\n      tag_12\n      jumpi\n      dup1\n      0x44b50bfc\n      eq\n      tag_13\n      jumpi\n      jump(tag_2)\n    tag_37:\n      dup1\n      0x0d61b519\n      gt\n      tag_39\n      jumpi\n      dup1\n      0x0d61b519\n      eq\n      tag_6\n      jumpi\n      dup1\n      0x10770218\n      eq\n      tag_7\n      jumpi\n      dup1\n      0x15373e3d\n      eq\n      tag_8\n      jumpi\n      dup1\n      0x248a9ca3\n      eq\n      tag_9\n      jumpi\n      jump(tag_2)\n    tag_39:\n      dup1\n      0x013cf08b\n      eq\n      tag_3\n      jumpi\n      dup1\n      0x01ffc9a7\n      eq\n      tag_4\n      jumpi\n      dup1\n      0x02a251a3\n      eq\n      tag_5\n      jumpi\n      jump(tag_2)\n    tag_1:\n      jumpi(tag_2, calldatasize)\n      stop\n    tag_2:\n      stop\n        /* \"proj/GameSwapDAO.sol\":1860:1905  mapping(uint256 => Proposal) public proposals */\n    tag_3:\n      callvalue\n      dup1\n      iszero\n      tag_44\n      jumpi\n      0x00\n      dup1\n      revert\n    tag_44:\n      pop\n      tag_45\n      0x04\n      dup1\n      calldatasize\n      sub\n      dup2\n      add\n      swap1\n      tag_46\n      swap2\n      swap1\n      tag_47\n      jump\t// in\n    tag_46:\n      tag_48\n      jump\t// in\n    tag_45:\n      mload(0x40)\n      tag_49\n      swap13\n      swap12\n      swap11\n      swap10\n      swap9\n      swap8\n      swap7\n      swap6\n      swap5\n      swap4\n      swap3\n      swap2\n      swap1\n      tag_50\n      jump\t// in\n    tag_49:\n      mload(0x40)\n      dup1\n      swap2\n      sub\n      swap1\n      return\n        /* \"@openzeppelin/contracts/access/AccessControl.sol\":2565:2767  function supportsInterface(bytes4 interfaceId) public view virtual override returns (bool) {... */\n    tag_4:\n      callvalue\n      dup1\n      iszero\n      tag_51\n      jumpi\n      0x00\n      dup1\n      revert\n    tag_51:\n      pop\n      tag_52\n      0x04\n      dup1\n      calldatasize\n      sub\n      dup2\n      add\n      swap1\n      tag_53\n      swap2\n      swap1\n      tag_54\n      jump\t// in\n    tag_53:\n      tag_55\n      jump\t// in\n    tag_52:\n      mload(0x40)\n      tag_56\n      swap2\n      swap1\n      tag_57\n      jump\t// in\n    tag_56:\n      mload(0x40)\n      dup1\n      swap2\n      sub\n      swap1\n      return\n        /* \"proj/GameSwapDAO.sol\":1313:1340  uint256 public votingPeriod */\n    tag_5:\n      callvalue\n      dup1\n      iszero\n      tag_58\n      jumpi\n      0x00\n      dup1\n      revert\n    tag_58:\n      pop\n      tag_59\n      tag_60\n      jump\t// in\n    tag_59:\n      mload(0x40)\n      tag_61\n      swap2\n      swap1\n      tag_62\n      jump\t// in\n    tag_61:\n      mload(0x40)\n      dup1\n      swap2\n      sub\n      swap1\n      return\n        /* \"proj/GameSwapDAO.sol\":6503:8080  function executeProposal(uint256 proposalId) external nonReentrant {... */\n    tag_6:\n      callvalue\n      dup1\n      iszero\n      tag_63\n      jumpi\n      0x00\n      dup1\n      revert\n    tag_63:\n      pop\n      tag_64\n      0x04\n      dup1\n      calldatasize\n      sub\n      dup2\n      add\n      swap1\n      tag_65\n      swap2\n      swap1\n      tag_47\n      jump\t// in\n    tag_65:\n      tag_66\n      jump\t// in\n    tag_64:\n      stop\n        /* \"proj/GameSwapDAO.sol\":3970:5117  function createProposal(//proposal for changes... */\n    tag_7:\n      callvalue\n      dup1\n      iszero\n      tag_67\n      jumpi\n      0x00\n      dup1\n      revert\n    tag_67:\n      pop\n      tag_68\n      0x04\n      dup1\n      calldatasize\n      sub\n      dup2\n      add\n      swap1\n      tag_69\n      swap2\n      swap1\n      tag_70\n      jump\t// in\n    tag_69:\n      tag_71\n      jump\t// in\n    tag_68:\n      mload(0x40)\n      tag_72\n      swap2\n      swap1\n      tag_62\n      jump\t// in\n    tag_72:\n      mload(0x40)\n      dup1\n      swap2\n      sub\n      swap1\n      return\n        /* \"proj/GameSwapDAO.sol\":5127:6493  function castVote(uint256 proposalId, bool support) external nonReentrant {//let stakeholders to cast votes onto proposal... */\n    tag_8:\n      callvalue\n      dup1\n      iszero\n      tag_73\n      jumpi\n      0x00\n      dup1\n      revert\n    tag_73:\n      pop\n      tag_74\n      0x04\n      dup1\n      calldatasize\n      sub\n      dup2\n      add\n      swap1\n      tag_75\n      swap2\n      swap1\n      tag_76\n      jump\t// in\n    tag_75:\n      tag_77\n      jump\t// in\n    tag_74:\n      stop\n        /* \"@openzeppelin/contracts/access/AccessControl.sol\":3810:3930  function getRoleAdmin(bytes32 role) public view virtual returns (bytes32) {... */\n    tag_9:\n      callvalue\n      dup1\n      iszero\n      tag_78\n      jumpi\n      0x00\n      dup1\n      revert\n    tag_78:\n      pop\n      tag_79\n      0x04\n      dup1\n      calldatasize\n      sub\n      dup2\n      add\n      swap1\n      tag_80\n      swap2\n      swap1\n      tag_81\n      jump\t// in\n    tag_80:\n      tag_82\n      jump\t// in\n    tag_79:\n      mload(0x40)\n      tag_83\n      swap2\n      swap1\n      tag_84\n      jump\t// in\n    tag_83:\n      mload(0x40)\n      dup1\n      swap2\n      sub\n      swap1\n      return\n        /* \"@openzeppelin/contracts/access/AccessControl.sol\":4226:4362  function grantRole(bytes32 role, address account) public virtual onlyRole(getRoleAdmin(role)) {... */\n    tag_10:\n      callvalue\n      dup1\n      iszero\n      tag_85\n      jumpi\n      0x00\n      dup1\n      revert\n    tag_85:\n      pop\n      tag_86\n      0x04\n      dup1\n      calldatasize\n      sub\n      dup2\n      add\n      swap1\n      tag_87\n      swap2\n      swap1\n      tag_88\n      jump\t// in\n    tag_87:\n      tag_89\n      jump\t// in\n    tag_86:\n      stop\n        /* \"proj/GameSwapDAO.sol\":2034:2083  mapping(address => uint256) public pendingRewards */\n    tag_11:\n      callvalue\n      dup1\n      iszero\n      tag_90\n      jumpi\n      0x00\n      dup1\n      revert\n    tag_90:\n      pop\n      tag_91\n      0x04\n      dup1\n      calldatasize\n      sub\n      dup2\n      add\n      swap1\n      tag_92\n      swap2\n      swap1\n      tag_93\n      jump\t// in\n    tag_92:\n      tag_94\n      jump\t// in\n    tag_91:\n      mload(0x40)\n      tag_95\n      swap2\n      swap1\n      tag_62\n      jump\t// in\n    tag_95:\n      mload(0x40)\n      dup1\n      swap2\n      sub\n      swap1\n      return\n        /* \"@openzeppelin/contracts/access/AccessControl.sol\":5328:5573  function renounceRole(bytes32 role, address callerConfirmation) public virtual {... */\n    tag_12:\n      callvalue\n      dup1\n      iszero\n      tag_96\n      jumpi\n      0x00\n      dup1\n      revert\n    tag_96:\n      pop\n      tag_97\n      0x04\n      dup1\n      calldatasize\n      sub\n      dup2\n      add\n      swap1\n      tag_98\n      swap2\n      swap1\n      tag_88\n      jump\t// in\n    tag_98:\n      tag_99\n      jump\t// in\n    tag_97:\n      stop\n        /* \"proj/GameSwapDAO.sol\":1940:1991  mapping(address => uint256) public lastDistribution */\n    tag_13:\n      callvalue\n      dup1\n      iszero\n      tag_100\n      jumpi\n      0x00\n      dup1\n      revert\n    tag_100:\n      pop\n      tag_101\n      0x04\n      dup1\n      calldatasize\n      sub\n      dup2\n      add\n      swap1\n      tag_102\n      swap2\n      swap1\n      tag_93\n      jump\t// in\n    tag_102:\n      tag_103\n      jump\t// in\n    tag_101:\n      mload(0x40)\n      tag_104\n      swap2\n      swap1\n      tag_62\n      jump\t// in\n    tag_104:\n      mload(0x40)\n      dup1\n      swap2\n      sub\n      swap1\n      return\n        /* \"proj/GameSwapDAO.sol\":9245:9633  function emergencyWithdraw(uint256 amount) external nonReentrant {... */\n    tag_14:\n      callvalue\n      dup1\n      iszero\n      tag_105\n      jumpi\n      0x00\n      dup1\n      revert\n    tag_105:\n      pop\n      tag_106\n      0x04\n      dup1\n      calldatasize\n      sub\n      dup2\n      add\n      swap1\n      tag_107\n      swap2\n      swap1\n      tag_47\n      jump\t// in\n    tag_107:\n      tag_108\n      jump\t// in\n    tag_106:\n      stop\n        /* \"proj/GameSwapDAO.sol\":11233:11525  function setTimeLock(uint256 _timeLock) external {... */\n    tag_15:\n      callvalue\n      dup1\n      iszero\n      tag_109\n      jumpi\n      0x00\n      dup1\n      revert\n    tag_109:\n      pop\n      tag_110\n      0x04\n      dup1\n      calldatasize\n      sub\n      dup2\n      add\n      swap1\n      tag_111\n      swap2\n      swap1\n      tag_47\n      jump\t// in\n    tag_111:\n      tag_112\n      jump\t// in\n    tag_110:\n      stop\n        /* \"proj/GameSwapDAO.sol\":10405:10823  function setMinimumQuorum(uint256 _minimumQuorum) external {... */\n    tag_16:\n      callvalue\n      dup1\n      iszero\n      tag_113\n      jumpi\n      0x00\n      dup1\n      revert\n    tag_113:\n      pop\n      tag_114\n      0x04\n      dup1\n      calldatasize\n      sub\n      dup2\n      add\n      swap1\n      tag_115\n      swap2\n      swap1\n      tag_47\n      jump\t// in\n    tag_115:\n      tag_116\n      jump\t// in\n    tag_114:\n      stop\n        /* \"proj/GameSwapDAO.sol\":1088:1116  uint256 public minimumQuorum */\n    tag_17:\n      callvalue\n      dup1\n      iszero\n      tag_117\n      jumpi\n      0x00\n      dup1\n      revert\n    tag_117:\n      pop\n      tag_118\n      tag_119\n      jump\t// in\n    tag_118:\n      mload(0x40)\n      tag_120\n      swap2\n      swap1\n      tag_62\n      jump\t// in\n    tag_120:\n      mload(0x40)\n      dup1\n      swap2\n      sub\n      swap1\n      return\n        /* \"@openzeppelin/contracts/access/AccessControl.sol\":2854:2990  function hasRole(bytes32 role, address account) public view virtual returns (bool) {... */\n    tag_18:\n      callvalue\n      dup1\n      iszero\n      tag_121\n      jumpi\n      0x00\n      dup1\n      revert\n    tag_121:\n      pop\n      tag_122\n      0x04\n      dup1\n      calldatasize\n      sub\n      dup2\n      add\n      swap1\n      tag_123\n      swap2\n      swap1\n      tag_88\n      jump\t// in\n    tag_123:\n      tag_124\n      jump\t// in\n    tag_122:\n      mload(0x40)\n      tag_125\n      swap2\n      swap1\n      tag_57\n      jump\t// in\n    tag_125:\n      mload(0x40)\n      dup1\n      swap2\n      sub\n      swap1\n      return\n        /* \"@openzeppelin/contracts/access/AccessControl.sol\":2187:2236  bytes32 public constant DEFAULT_ADMIN_ROLE = 0x00 */\n    tag_19:\n      callvalue\n      dup1\n      iszero\n      tag_126\n      jumpi\n      0x00\n      dup1\n      revert\n    tag_126:\n      pop\n      tag_127\n      tag_128\n      jump\t// in\n    tag_127:\n      mload(0x40)\n      tag_129\n      swap2\n      swap1\n      tag_84\n      jump\t// in\n    tag_129:\n      mload(0x40)\n      dup1\n      swap2\n      sub\n      swap1\n      return\n        /* \"proj/GameSwapDAO.sol\":836:896  bytes32 public constant VOTER_ROLE = keccak256(\"VOTER_ROLE\") */\n    tag_20:\n      callvalue\n      dup1\n      iszero\n      tag_130\n      jumpi\n      0x00\n      dup1\n      revert\n    tag_130:\n      pop\n      tag_131\n      tag_132\n      jump\t// in\n    tag_131:\n      mload(0x40)\n      tag_133\n      swap2\n      swap1\n      tag_84\n      jump\t// in\n    tag_133:\n      mload(0x40)\n      dup1\n      swap2\n      sub\n      swap1\n      return\n        /* \"proj/GameSwapDAO.sol\":1195:1227  uint256 public proposalThreshold */\n    tag_21:\n      callvalue\n      dup1\n      iszero\n      tag_134\n      jumpi\n      0x00\n      dup1\n      revert\n    tag_134:\n      pop\n      tag_135\n      tag_136\n      jump\t// in\n    tag_135:\n      mload(0x40)\n      tag_137\n      swap2\n      swap1\n      tag_62\n      jump\t// in\n    tag_137:\n      mload(0x40)\n      dup1\n      swap2\n      sub\n      swap1\n      return\n        /* \"proj/GameSwapDAO.sol\":8623:9235  function distributeFees() external nonReentrant {... */\n    tag_22:\n      callvalue\n      dup1\n      iszero\n      tag_138\n      jumpi\n      0x00\n      dup1\n      revert\n    tag_138:\n      pop\n      tag_139\n      tag_140\n      jump\t// in\n    tag_139:\n      stop\n        /* \"proj/GameSwapDAO.sol\":902:974  bytes32 public constant MARKETPLACE_ROLE = keccak256(\"MARKETPLACE_ROLE\") */\n    tag_23:\n      callvalue\n      dup1\n      iszero\n      tag_141\n      jumpi\n      0x00\n      dup1\n      revert\n    tag_141:\n      pop\n      tag_142\n      tag_143\n      jump\t// in\n    tag_142:\n      mload(0x40)\n      tag_144\n      swap2\n      swap1\n      tag_84\n      jump\t// in\n    tag_144:\n      mload(0x40)\n      dup1\n      swap2\n      sub\n      swap1\n      return\n        /* \"proj/GameSwapDAO.sol\":985:1016  IGameSwapToken public gameToken */\n    tag_24:\n      callvalue\n      dup1\n      iszero\n      tag_145\n      jumpi\n      0x00\n      dup1\n      revert\n    tag_145:\n      pop\n      tag_146\n      tag_147\n      jump\t// in\n    tag_146:\n      mload(0x40)\n      tag_148\n      swap2\n      swap1\n      tag_149\n      jump\t// in\n    tag_148:\n      mload(0x40)\n      dup1\n      swap2\n      sub\n      swap1\n      return\n        /* \"proj/GameSwapDAO.sol\":1368:1391  uint256 public timeLock */\n    tag_25:\n      callvalue\n      dup1\n      iszero\n      tag_150\n      jumpi\n      0x00\n      dup1\n      revert\n    tag_150:\n      pop\n      tag_151\n      tag_152\n      jump\t// in\n    tag_151:\n      mload(0x40)\n      tag_153\n      swap2\n      swap1\n      tag_62\n      jump\t// in\n    tag_153:\n      mload(0x40)\n      dup1\n      swap2\n      sub\n      swap1\n      return\n        /* \"@openzeppelin/contracts/access/AccessControl.sol\":4642:4780  function revokeRole(bytes32 role, address account) public virtual onlyRole(getRoleAdmin(role)) {... */\n    tag_26:\n      callvalue\n      dup1\n      iszero\n      tag_154\n      jumpi\n      0x00\n      dup1\n      revert\n    tag_154:\n      pop\n      tag_155\n      0x04\n      dup1\n      calldatasize\n      sub\n      dup2\n      add\n      swap1\n      tag_156\n      swap2\n      swap1\n      tag_88\n      jump\t// in\n    tag_156:\n      tag_157\n      jump\t// in\n    tag_155:\n      stop\n        /* \"proj/GameSwapDAO.sol\":1054:1082  uint256 public proposalCount */\n    tag_27:\n      callvalue\n      dup1\n      iszero\n      tag_158\n      jumpi\n      0x00\n      dup1\n      revert\n    tag_158:\n      pop\n      tag_159\n      tag_160\n      jump\t// in\n    tag_159:\n      mload(0x40)\n      tag_161\n      swap2\n      swap1\n      tag_62\n      jump\t// in\n    tag_161:\n      mload(0x40)\n      dup1\n      swap2\n      sub\n      swap1\n      return\n        /* \"proj/GameSwapDAO.sol\":9643:9922  function emergencyBurn(uint256 amount) external nonReentrant {... */\n    tag_28:\n      callvalue\n      dup1\n      iszero\n      tag_162\n      jumpi\n      0x00\n      dup1\n      revert\n    tag_162:\n      pop\n      tag_163\n      0x04\n      dup1\n      calldatasize\n      sub\n      dup2\n      add\n      swap1\n      tag_164\n      swap2\n      swap1\n      tag_47\n      jump\t// in\n    tag_164:\n      tag_165\n      jump\t// in\n    tag_163:\n      stop\n        /* \"proj/GameSwapDAO.sol\":8090:8613  function cancelProposal(uint256 proposalId) external {... */\n    tag_29:\n      callvalue\n      dup1\n      iszero\n      tag_166\n      jumpi\n      0x00\n      dup1\n      revert\n    tag_166:\n      pop\n      tag_167\n      0x04\n      dup1\n      calldatasize\n      sub\n      dup2\n      add\n      swap1\n      tag_168\n      swap2\n      swap1\n      tag_47\n      jump\t// in\n    tag_168:\n      tag_169\n      jump\t// in\n    tag_167:\n      stop\n        /* \"proj/GameSwapDAO.sol\":10833:11223  function setVotingPeriod(uint256 _votingPeriod) external {... */\n    tag_30:\n      callvalue\n      dup1\n      iszero\n      tag_170\n      jumpi\n      0x00\n      dup1\n      revert\n    tag_170:\n      pop\n      tag_171\n      0x04\n      dup1\n      calldatasize\n      sub\n      dup2\n      add\n      swap1\n      tag_172\n      swap2\n      swap1\n      tag_47\n      jump\t// in\n    tag_172:\n      tag_173\n      jump\t// in\n    tag_171:\n      stop\n        /* \"proj/GameSwapDAO.sol\":9932:10395  function setProposalThreshold(uint256 _proposalThreshold) external {... */\n    tag_31:\n      callvalue\n      dup1\n      iszero\n      tag_174\n      jumpi\n      0x00\n      dup1\n      revert\n    tag_174:\n      pop\n      tag_175\n      0x04\n      dup1\n      calldatasize\n      sub\n      dup2\n      add\n      swap1\n      tag_176\n      swap2\n      swap1\n      tag_47\n      jump\t// in\n    tag_176:\n      tag_177\n      jump\t// in\n    tag_175:\n      stop\n        /* \"proj/GameSwapDAO.sol\":1997:2028  uint256 public totalDistributed */\n    tag_32:\n      callvalue\n      dup1\n      iszero\n      tag_178\n      jumpi\n      0x00\n      dup1\n      revert\n    tag_178:\n      pop\n      tag_179\n      tag_180\n      jump\t// in\n    tag_179:\n      mload(0x40)\n      tag_181\n      swap2\n      swap1\n      tag_62\n      jump\t// in\n    tag_181:\n      mload(0x40)\n      dup1\n      swap2\n      sub\n      swap1\n      return\n        /* \"proj/GameSwapDAO.sol\":1860:1905  mapping(uint256 => Proposal) public proposals */\n    tag_48:\n      mstore(0x20, 0x08)\n      dup1\n      0x00\n      mstore\n      keccak256(0x00, 0x40)\n      0x00\n      swap2\n      pop\n      swap1\n      pop\n      dup1\n      0x00\n      add\n      sload\n      swap1\n      dup1\n      0x01\n      add\n      0x00\n      swap1\n      sload\n      swap1\n      0x0100\n      exp\n      swap1\n      div\n      0xffffffffffffffffffffffffffffffffffffffff\n      and\n      swap1\n      dup1\n      0x02\n      add\n      dup1\n      sload\n      tag_182\n      swap1\n      tag_183\n      jump\t// in\n    tag_182:\n      dup1\n      0x1f\n      add\n      0x20\n      dup1\n      swap2\n      div\n      mul\n      0x20\n      add\n      mload(0x40)\n      swap1\n      dup2\n      add\n      0x40\n      mstore\n      dup1\n      swap3\n      swap2\n      swap1\n      dup2\n      dup2\n      mstore\n      0x20\n      add\n      dup3\n      dup1\n      sload\n      tag_184\n      swap1\n      tag_183\n      jump\t// in\n    tag_184:\n      dup1\n      iszero\n      tag_185\n      jumpi\n      dup1\n      0x1f\n      lt\n      tag_186\n      jumpi\n      0x0100\n      dup1\n      dup4\n      sload\n      div\n      mul\n      dup4\n      mstore\n      swap2\n      0x20\n      add\n      swap2\n      jump(tag_185)\n    tag_186:\n      dup3\n      add\n      swap2\n      swap1\n      0x00\n      mstore\n      keccak256(0x00, 0x20)\n      swap1\n    tag_187:\n      dup2\n      sload\n      dup2\n      mstore\n      swap1\n      0x01\n      add\n      swap1\n      0x20\n      add\n      dup1\n      dup4\n      gt\n      tag_187\n      jumpi\n      dup3\n      swap1\n      sub\n      0x1f\n      and\n      dup3\n      add\n      swap2\n    tag_185:\n      pop\n      pop\n      pop\n      pop\n      pop\n      swap1\n      dup1\n      0x03\n      add\n      sload\n      swap1\n      dup1\n      0x04\n      add\n      sload\n      swap1\n      dup1\n      0x05\n      add\n      sload\n      swap1\n      dup1\n      0x06\n      add\n      sload\n      swap1\n      dup1\n      0x07\n      add\n      0x00\n      swap1\n      sload\n      swap1\n      0x0100\n      exp\n      swap1\n      div\n      0xff\n      and\n      swap1\n      dup1\n      0x08\n      add\n      sload\n      swap1\n      dup1\n      0x09\n      add\n      dup1\n      sload\n      tag_188\n      swap1\n      tag_183\n      jump\t// in\n    tag_188:\n      dup1\n      0x1f\n      add\n      0x20\n      dup1\n      swap2\n      div\n      mul\n      0x20\n      add\n      mload(0x40)\n      swap1\n      dup2\n      add\n      0x40\n      mstore\n      dup1\n      swap3\n      swap2\n      swap1\n      dup2\n      dup2\n      mstore\n      0x20\n      add\n      dup3\n      dup1\n      sload\n      tag_189\n      swap1\n      tag_183\n      jump\t// in\n    tag_189:\n      dup1\n      iszero\n      tag_190\n      jumpi\n      dup1\n      0x1f\n      lt\n      tag_191\n      jumpi\n      0x0100\n      dup1\n      dup4\n      sload\n      div\n      mul\n      dup4\n      mstore\n      swap2\n      0x20\n      add\n      swap2\n      jump(tag_190)\n    tag_191:\n      dup3\n      add\n      swap2\n      swap1\n      0x00\n      mstore\n      keccak256(0x00, 0x20)\n      swap1\n    tag_192:\n      dup2\n      sload\n      dup2\n      mstore\n      swap1\n      0x01\n      add\n      swap1\n      0x20\n      add\n      dup1\n      dup4\n      gt\n      tag_192\n      jumpi\n      dup3\n      swap1\n      sub\n      0x1f\n      and\n      dup3\n      add\n      swap2\n    tag_190:\n      pop\n      pop\n      pop\n      pop\n      pop\n      swap1\n      dup1\n      0x0a\n      add\n      0x00\n      swap1\n      sload\n      swap1\n      0x0100\n      exp\n      swap1\n      div\n      0xffffffffffffffffffffffffffffffffffffffff\n      and\n      swap1\n      dup1\n      0x0c\n      add\n      0x00\n      swap1\n      sload\n      swap1\n      0x0100\n      exp\n      swap1\n      div\n      0xff\n      and\n      swap1\n      pop\n      dup13\n      jump\t// out\n        /* \"@openzeppelin/contracts/access/AccessControl.sol\":2565:2767  function supportsInterface(bytes4 interfaceId) public view virtual override returns (bool) {... */\n    tag_55:\n        /* \"@openzeppelin/contracts/access/AccessControl.sol\":2650:2654  bool */\n      0x00\n        /* \"@openzeppelin/contracts/access/AccessControl.sol\":2688:2720  type(IAccessControl).interfaceId */\n      0x7965db0b00000000000000000000000000000000000000000000000000000000\n        /* \"@openzeppelin/contracts/access/AccessControl.sol\":2673:2720  interfaceId == type(IAccessControl).interfaceId */\n      not(0xffffffffffffffffffffffffffffffffffffffffffffffffffffffff)\n      and\n        /* \"@openzeppelin/contracts/access/AccessControl.sol\":2673:2684  interfaceId */\n      dup3\n        /* \"@openzeppelin/contracts/access/AccessControl.sol\":2673:2720  interfaceId == type(IAccessControl).interfaceId */\n      not(0xffffffffffffffffffffffffffffffffffffffffffffffffffffffff)\n      and\n      eq\n        /* \"@openzeppelin/contracts/access/AccessControl.sol\":2673:2760  interfaceId == type(IAccessControl).interfaceId || super.supportsInterface(interfaceId) */\n      dup1\n      tag_194\n      jumpi\n      pop\n        /* \"@openzeppelin/contracts/access/AccessControl.sol\":2724:2760  super.supportsInterface(interfaceId) */\n      tag_195\n        /* \"@openzeppelin/contracts/access/AccessControl.sol\":2748:2759  interfaceId */\n      dup3\n        /* \"@openzeppelin/contracts/access/AccessControl.sol\":2724:2747  super.supportsInterface */\n      tag_196\n        /* \"@openzeppelin/contracts/access/AccessControl.sol\":2724:2760  super.supportsInterface(interfaceId) */\n      jump\t// in\n    tag_195:\n        /* \"@openzeppelin/contracts/access/AccessControl.sol\":2673:2760  interfaceId == type(IAccessControl).interfaceId || super.supportsInterface(interfaceId) */\n    tag_194:\n        /* \"@openzeppelin/contracts/access/AccessControl.sol\":2666:2760  return interfaceId == type(IAccessControl).interfaceId || super.supportsInterface(interfaceId) */\n      swap1\n      pop\n        /* \"@openzeppelin/contracts/access/AccessControl.sol\":2565:2767  function supportsInterface(bytes4 interfaceId) public view virtual override returns (bool) {... */\n      swap2\n      swap1\n      pop\n      jump\t// out\n        /* \"proj/GameSwapDAO.sol\":1313:1340  uint256 public votingPeriod */\n    tag_60:\n      sload(0x06)\n      dup2\n      jump\t// out\n        /* \"proj/GameSwapDAO.sol\":6503:8080  function executeProposal(uint256 proposalId) external nonReentrant {... */\n    tag_66:\n        /* \"@openzeppelin/contracts/security/ReentrancyGuard.sol\":2261:2282  _nonReentrantBefore() */\n      tag_198\n        /* \"@openzeppelin/contracts/security/ReentrancyGuard.sol\":2261:2280  _nonReentrantBefore */\n      tag_199\n        /* \"@openzeppelin/contracts/security/ReentrancyGuard.sol\":2261:2282  _nonReentrantBefore() */\n      jump\t// in\n    tag_198:\n        /* \"proj/GameSwapDAO.sol\":6580:6605  Proposal storage proposal */\n      0x00\n        /* \"proj/GameSwapDAO.sol\":6608:6617  proposals */\n      0x08\n        /* \"proj/GameSwapDAO.sol\":6608:6629  proposals[proposalId] */\n      0x00\n        /* \"proj/GameSwapDAO.sol\":6618:6628  proposalId */\n      dup4\n        /* \"proj/GameSwapDAO.sol\":6608:6629  proposals[proposalId] */\n      dup2\n      mstore\n      0x20\n      add\n      swap1\n      dup2\n      mstore\n      0x20\n      add\n      0x00\n      keccak256\n        /* \"proj/GameSwapDAO.sol\":6580:6629  Proposal storage proposal = proposals[proposalId] */\n      swap1\n      pop\n        /* \"proj/GameSwapDAO.sol\":6671:6679  proposal */\n      dup1\n        /* \"proj/GameSwapDAO.sol\":6671:6688  proposal.endBlock */\n      0x04\n      add\n      sload\n        /* \"proj/GameSwapDAO.sol\":6656:6668  block.number */\n      number\n        /* \"proj/GameSwapDAO.sol\":6656:6688  block.number > proposal.endBlock */\n      gt\n        /* \"proj/GameSwapDAO.sol\":6648:6729  require(block.number > proposal.endBlock, \"GameSwapDAO: voting period not ended\") */\n      tag_201\n      jumpi\n      mload(0x40)\n      0x08c379a000000000000000000000000000000000000000000000000000000000\n      dup2\n      mstore\n      0x04\n      add\n      tag_202\n      swap1\n      tag_203\n      jump\t// in\n    tag_202:\n      mload(0x40)\n      dup1\n      swap2\n      sub\n      swap1\n      revert\n    tag_201:\n        /* \"proj/GameSwapDAO.sol\":6748:6756  proposal */\n      dup1\n        /* \"proj/GameSwapDAO.sol\":6748:6765  proposal.executed */\n      0x07\n      add\n      0x00\n      swap1\n      sload\n      swap1\n      0x0100\n      exp\n      swap1\n      div\n      0xff\n      and\n        /* \"proj/GameSwapDAO.sol\":6747:6765  !proposal.executed */\n      iszero\n        /* \"proj/GameSwapDAO.sol\":6739:6799  require(!proposal.executed, \"GameSwapDAO: already executed\") */\n      tag_204\n      jumpi\n      mload(0x40)\n      0x08c379a000000000000000000000000000000000000000000000000000000000\n      dup2\n      mstore\n      0x04\n      add\n      tag_205\n      swap1\n      tag_206\n      jump\t// in\n    tag_205:\n      mload(0x40)\n      dup1\n      swap2\n      sub\n      swap1\n      revert\n    tag_204:\n        /* \"proj/GameSwapDAO.sol\":6818:6826  proposal */\n      dup1\n        /* \"proj/GameSwapDAO.sol\":6818:6835  proposal.canceled */\n      0x0c\n      add\n      0x00\n      swap1\n      sload\n      swap1\n      0x0100\n      exp\n      swap1\n      div\n      0xff\n      and\n        /* \"proj/GameSwapDAO.sol\":6817:6835  !proposal.canceled */\n      iszero\n        /* \"proj/GameSwapDAO.sol\":6809:6870  require(!proposal.canceled, \"GameSwapDAO: proposal canceled\") */\n      tag_207\n      jumpi\n      mload(0x40)\n      0x08c379a000000000000000000000000000000000000000000000000000000000\n      dup2\n      mstore\n      0x04\n      add\n      tag_208\n      swap1\n      tag_209\n      jump\t// in\n    tag_208:\n      mload(0x40)\n      dup1\n      swap2\n      sub\n      swap1\n      revert\n    tag_207:\n        /* \"proj/GameSwapDAO.sol\":6969:6994  uint256 totalStakedSupply */\n      0x00\n        /* \"proj/GameSwapDAO.sol\":6997:7006  gameToken */\n      0x02\n      0x00\n      swap1\n      sload\n      swap1\n      0x0100\n      exp\n      swap1\n      div\n      0xffffffffffffffffffffffffffffffffffffffff\n      and\n        /* \"proj/GameSwapDAO.sol\":6997:7016  gameToken.balanceOf */\n      0xffffffffffffffffffffffffffffffffffffffff\n      and\n      0x70a08231\n        /* \"proj/GameSwapDAO.sol\":7025:7029  this */\n      address\n        /* \"proj/GameSwapDAO.sol\":6997:7031  gameToken.balanceOf(address(this)) */\n      mload(0x40)\n      dup3\n      0xffffffff\n      and\n      0xe0\n      shl\n      dup2\n      mstore\n      0x04\n      add\n      tag_210\n      swap2\n      swap1\n      tag_211\n      jump\t// in\n    tag_210:\n      0x20\n      mload(0x40)\n      dup1\n      dup4\n      sub\n      dup2\n      dup7\n      gas\n      staticcall\n      iszero\n      dup1\n      iszero\n      tag_213\n      jumpi\n      returndatasize\n      0x00\n      dup1\n      returndatacopy\n      revert(0x00, returndatasize)\n    tag_213:\n      pop\n      pop\n      pop\n      pop\n      mload(0x40)\n      returndatasize\n      not(0x1f)\n      0x1f\n      dup3\n      add\n      and\n      dup3\n      add\n      dup1\n      0x40\n      mstore\n      pop\n      dup2\n      add\n      swap1\n      tag_214\n      swap2\n      swap1\n      tag_215\n      jump\t// in\n    tag_214:\n        /* \"proj/GameSwapDAO.sol\":6969:7031  uint256 totalStakedSupply = gameToken.balanceOf(address(this)) */\n      swap1\n      pop\n        /* \"proj/GameSwapDAO.sol\":7069:7070  0 */\n      0x00\n        /* \"proj/GameSwapDAO.sol\":7049:7066  totalStakedSupply */\n      dup2\n        /* \"proj/GameSwapDAO.sol\":7049:7070  totalStakedSupply > 0 */\n      gt\n        /* \"proj/GameSwapDAO.sol\":7041:7104  require(totalStakedSupply > 0, \"GameSwapDAO: no tokens staked\") */\n      tag_216\n      jumpi\n      mload(0x40)\n      0x08c379a000000000000000000000000000000000000000000000000000000000\n      dup2\n      mstore\n      0x04\n      add\n      tag_217\n      swap1\n      tag_218\n      jump\t// in\n    tag_217:\n      mload(0x40)\n      dup1\n      swap2\n      sub\n      swap1\n      revert\n    tag_216:\n        /* \"proj/GameSwapDAO.sol\":7244:7257  minimumQuorum */\n      sload(0x04)\n        /* \"proj/GameSwapDAO.sol\":7223:7240  totalStakedSupply */\n      dup2\n        /* \"proj/GameSwapDAO.sol\":7215:7220  10000 */\n      0x2710\n        /* \"proj/GameSwapDAO.sol\":7190:7198  proposal */\n      dup5\n        /* \"proj/GameSwapDAO.sol\":7190:7211  proposal.againstVotes */\n      0x06\n      add\n      sload\n        /* \"proj/GameSwapDAO.sol\":7170:7178  proposal */\n      dup6\n        /* \"proj/GameSwapDAO.sol\":7170:7187  proposal.forVotes */\n      0x05\n      add\n      sload\n        /* \"proj/GameSwapDAO.sol\":7170:7211  proposal.forVotes + proposal.againstVotes */\n      tag_219\n      swap2\n      swap1\n      tag_220\n      jump\t// in\n    tag_219:\n        /* \"proj/GameSwapDAO.sol\":7169:7220  (proposal.forVotes + proposal.againstVotes) * 10000 */\n      tag_221\n      swap2\n      swap1\n      tag_222\n      jump\t// in\n    tag_221:\n        /* \"proj/GameSwapDAO.sol\":7169:7240  (proposal.forVotes + proposal.againstVotes) * 10000 / totalStakedSupply */\n      tag_223\n      swap2\n      swap1\n      tag_224\n      jump\t// in\n    tag_223:\n        /* \"proj/GameSwapDAO.sol\":7169:7257  (proposal.forVotes + proposal.againstVotes) * 10000 / totalStakedSupply >= minimumQuorum */\n      lt\n      iszero\n        /* \"proj/GameSwapDAO.sol\":7161:7310  require((proposal.forVotes + proposal.againstVotes) * 10000 / totalStakedSupply >= minimumQuorum, ... */\n      tag_225\n      jumpi\n      mload(0x40)\n      0x08c379a000000000000000000000000000000000000000000000000000000000\n      dup2\n      mstore\n      0x04\n      add\n      tag_226\n      swap1\n      tag_227\n      jump\t// in\n    tag_226:\n      mload(0x40)\n      dup1\n      swap2\n      sub\n      swap1\n      revert\n    tag_225:\n        /* \"proj/GameSwapDAO.sol\":7393:7401  proposal */\n      dup2\n        /* \"proj/GameSwapDAO.sol\":7393:7414  proposal.againstVotes */\n      0x06\n      add\n      sload\n        /* \"proj/GameSwapDAO.sol\":7373:7381  proposal */\n      dup3\n        /* \"proj/GameSwapDAO.sol\":7373:7390  proposal.forVotes */\n      0x05\n      add\n      sload\n        /* \"proj/GameSwapDAO.sol\":7373:7414  proposal.forVotes > proposal.againstVotes */\n      gt\n        /* \"proj/GameSwapDAO.sol\":7365:7449  require(proposal.forVotes > proposal.againstVotes, \"GameSwapDAO: proposal rejected\") */\n      tag_228\n      jumpi\n      mload(0x40)\n      0x08c379a000000000000000000000000000000000000000000000000000000000\n      dup2\n      mstore\n      0x04\n      add\n      tag_229\n      swap1\n      tag_230\n      jump\t// in\n    tag_229:\n      mload(0x40)\n      dup1\n      swap2\n      sub\n      swap1\n      revert\n    tag_228:\n        /* \"proj/GameSwapDAO.sol\":7543:7544  0 */\n      0x00\n        /* \"proj/GameSwapDAO.sol\":7512:7520  proposal */\n      dup3\n        /* \"proj/GameSwapDAO.sol\":7512:7539  proposal.executionTimestamp */\n      0x08\n      add\n      sload\n        /* \"proj/GameSwapDAO.sol\":7512:7544  proposal.executionTimestamp == 0 */\n      sub\n        /* \"proj/GameSwapDAO.sol\":7508:7658  if (proposal.executionTimestamp == 0) {... */\n      tag_231\n      jumpi\n        /* \"proj/GameSwapDAO.sol\":7590:7605  block.timestamp */\n      timestamp\n        /* \"proj/GameSwapDAO.sol\":7560:7568  proposal */\n      dup3\n        /* \"proj/GameSwapDAO.sol\":7560:7587  proposal.executionTimestamp */\n      0x08\n      add\n        /* \"proj/GameSwapDAO.sol\":7560:7605  proposal.executionTimestamp = block.timestamp */\n      dup2\n      swap1\n      sstore\n      pop\n        /* \"proj/GameSwapDAO.sol\":7619:7626  return; */\n      pop\n      pop\n      jump(tag_200)\n        /* \"proj/GameSwapDAO.sol\":7508:7658  if (proposal.executionTimestamp == 0) {... */\n    tag_231:\n        /* \"proj/GameSwapDAO.sol\":7733:7741  timeLock */\n      sload(0x07)\n        /* \"proj/GameSwapDAO.sol\":7703:7711  proposal */\n      dup3\n        /* \"proj/GameSwapDAO.sol\":7703:7730  proposal.executionTimestamp */\n      0x08\n      add\n      sload\n        /* \"proj/GameSwapDAO.sol\":7703:7741  proposal.executionTimestamp + timeLock */\n      tag_232\n      swap2\n      swap1\n      tag_220\n      jump\t// in\n    tag_232:\n        /* \"proj/GameSwapDAO.sol\":7684:7699  block.timestamp */\n      timestamp\n        /* \"proj/GameSwapDAO.sol\":7684:7741  block.timestamp >= proposal.executionTimestamp + timeLock */\n      lt\n      iszero\n        /* \"proj/GameSwapDAO.sol\":7676:7798  require(block.timestamp >= proposal.executionTimestamp + timeLock, ... */\n      tag_233\n      jumpi\n      mload(0x40)\n      0x08c379a000000000000000000000000000000000000000000000000000000000\n      dup2\n      mstore\n      0x04\n      add\n      tag_234\n      swap1\n      tag_235\n      jump\t// in\n    tag_234:\n      mload(0x40)\n      dup1\n      swap2\n      sub\n      swap1\n      revert\n    tag_233:\n        /* \"proj/GameSwapDAO.sol\":7869:7873  true */\n      0x01\n        /* \"proj/GameSwapDAO.sol\":7849:7857  proposal */\n      dup3\n        /* \"proj/GameSwapDAO.sol\":7849:7866  proposal.executed */\n      0x07\n      add\n      0x00\n        /* \"proj/GameSwapDAO.sol\":7849:7873  proposal.executed = true */\n      0x0100\n      exp\n      dup2\n      sload\n      dup2\n      0xff\n      mul\n      not\n      and\n      swap1\n      dup4\n      iszero\n      iszero\n      mul\n      or\n      swap1\n      sstore\n      pop\n        /* \"proj/GameSwapDAO.sol\":7893:7905  bool success */\n      0x00\n        /* \"proj/GameSwapDAO.sol\":7911:7919  proposal */\n      dup3\n        /* \"proj/GameSwapDAO.sol\":7911:7926  proposal.target */\n      0x0a\n      add\n      0x00\n      swap1\n      sload\n      swap1\n      0x0100\n      exp\n      swap1\n      div\n      0xffffffffffffffffffffffffffffffffffffffff\n      and\n        /* \"proj/GameSwapDAO.sol\":7911:7931  proposal.target.call */\n      0xffffffffffffffffffffffffffffffffffffffff\n      and\n        /* \"proj/GameSwapDAO.sol\":7932:7940  proposal */\n      dup4\n        /* \"proj/GameSwapDAO.sol\":7932:7949  proposal.callData */\n      0x09\n      add\n        /* \"proj/GameSwapDAO.sol\":7911:7950  proposal.target.call(proposal.callData) */\n      mload(0x40)\n      tag_236\n      swap2\n      swap1\n      tag_237\n      jump\t// in\n    tag_236:\n      0x00\n      mload(0x40)\n      dup1\n      dup4\n      sub\n      dup2\n      0x00\n      dup7\n      gas\n      call\n      swap2\n      pop\n      pop\n      returndatasize\n      dup1\n      0x00\n      dup2\n      eq\n      tag_240\n      jumpi\n      mload(0x40)\n      swap2\n      pop\n      and(add(returndatasize, 0x3f), not(0x1f))\n      dup3\n      add\n      0x40\n      mstore\n      returndatasize\n      dup3\n      mstore\n      returndatasize\n      0x00\n      0x20\n      dup5\n      add\n      returndatacopy\n      jump(tag_239)\n    tag_240:\n      0x60\n      swap2\n      pop\n    tag_239:\n      pop\n        /* \"proj/GameSwapDAO.sol\":7892:7950  (bool success, ) = proposal.target.call(proposal.callData) */\n      pop\n      swap1\n      pop\n        /* \"proj/GameSwapDAO.sol\":7968:7975  success */\n      dup1\n        /* \"proj/GameSwapDAO.sol\":7960:8009  require(success, \"GameSwapDAO: execution failed\") */\n      tag_241\n      jumpi\n      mload(0x40)\n      0x08c379a000000000000000000000000000000000000000000000000000000000\n      dup2\n      mstore\n      0x04\n      add\n      tag_242\n      swap1\n      tag_243\n      jump\t// in\n    tag_242:\n      mload(0x40)\n      dup1\n      swap2\n      sub\n      swap1\n      revert\n    tag_241:\n        /* \"proj/GameSwapDAO.sol\":8050:8060  proposalId */\n      dup4\n        /* \"proj/GameSwapDAO.sol\":8033:8073  ProposalExecuted(proposalId, msg.sender) */\n      0x9c85b616f29fca57a17eafe71cf9ff82ffef41766e2cf01ea7f8f7878dd3ec24\n        /* \"proj/GameSwapDAO.sol\":8062:8072  msg.sender */\n      caller\n        /* \"proj/GameSwapDAO.sol\":8033:8073  ProposalExecuted(proposalId, msg.sender) */\n      mload(0x40)\n      tag_244\n      swap2\n      swap1\n      tag_211\n      jump\t// in\n    tag_244:\n      mload(0x40)\n      dup1\n      swap2\n      sub\n      swap1\n      log2\n        /* \"proj/GameSwapDAO.sol\":6570:8080  {... */\n      pop\n      pop\n      pop\n        /* \"@openzeppelin/contracts/security/ReentrancyGuard.sol\":2292:2293  _ */\n    tag_200:\n        /* \"@openzeppelin/contracts/security/ReentrancyGuard.sol\":2303:2323  _nonReentrantAfter() */\n      tag_245\n        /* \"@openzeppelin/contracts/security/ReentrancyGuard.sol\":2303:2321  _nonReentrantAfter */\n      tag_246\n        /* \"@openzeppelin/contracts/security/ReentrancyGuard.sol\":2303:2323  _nonReentrantAfter() */\n      jump\t// in\n    tag_245:\n        /* \"proj/GameSwapDAO.sol\":6503:8080  function executeProposal(uint256 proposalId) external nonReentrant {... */\n      pop\n      jump\t// out\n        /* \"proj/GameSwapDAO.sol\":3970:5117  function createProposal(//proposal for changes... */\n    tag_71:\n        /* \"proj/GameSwapDAO.sol\":4143:4150  uint256 */\n      0x00\n        /* \"@openzeppelin/contracts/security/ReentrancyGuard.sol\":2261:2282  _nonReentrantBefore() */\n      tag_248\n        /* \"@openzeppelin/contracts/security/ReentrancyGuard.sol\":2261:2280  _nonReentrantBefore */\n      tag_199\n        /* \"@openzeppelin/contracts/security/ReentrancyGuard.sol\":2261:2282  _nonReentrantBefore() */\n      jump\t// in\n    tag_248:\n        /* \"proj/GameSwapDAO.sol\":4162:4183  uint256 senderBalance */\n      0x00\n        /* \"proj/GameSwapDAO.sol\":4186:4195  gameToken */\n      0x02\n      0x00\n      swap1\n      sload\n      swap1\n      0x0100\n      exp\n      swap1\n      div\n      0xffffffffffffffffffffffffffffffffffffffff\n      and\n        /* \"proj/GameSwapDAO.sol\":4186:4205  gameToken.balanceOf */\n      0xffffffffffffffffffffffffffffffffffffffff\n      and\n      0x70a08231\n        /* \"proj/GameSwapDAO.sol\":4206:4216  msg.sender */\n      caller\n        /* \"proj/GameSwapDAO.sol\":4186:4217  gameToken.balanceOf(msg.sender) */\n      mload(0x40)\n      dup3\n      0xffffffff\n      and\n      0xe0\n      shl\n      dup2\n      mstore\n      0x04\n      add\n      tag_250\n      swap2\n      swap1\n      tag_211\n      jump\t// in\n    tag_250:\n      0x20\n      mload(0x40)\n      dup1\n      dup4\n      sub\n      dup2\n      dup7\n      gas\n      staticcall\n      iszero\n      dup1\n      iszero\n      tag_252\n      jumpi\n      returndatasize\n      0x00\n      dup1\n      returndatacopy\n      revert(0x00, returndatasize)\n    tag_252:\n      pop\n      pop\n      pop\n      pop\n      mload(0x40)\n      returndatasize\n      not(0x1f)\n      0x1f\n      dup3\n      add\n      and\n      dup3\n      add\n      dup1\n      0x40\n      mstore\n      pop\n      dup2\n      add\n      swap1\n      tag_253\n      swap2\n      swap1\n      tag_215\n      jump\t// in\n    tag_253:\n        /* \"proj/GameSwapDAO.sol\":4162:4217  uint256 senderBalance = gameToken.balanceOf(msg.sender) */\n      swap1\n      pop\n        /* \"proj/GameSwapDAO.sol\":4227:4246  uint256 totalSupply */\n      0x00\n        /* \"proj/GameSwapDAO.sol\":4249:4258  gameToken */\n      0x02\n      0x00\n      swap1\n      sload\n      swap1\n      0x0100\n      exp\n      swap1\n      div\n      0xffffffffffffffffffffffffffffffffffffffff\n      and\n        /* \"proj/GameSwapDAO.sol\":4249:4270  gameToken.totalSupply */\n      0xffffffffffffffffffffffffffffffffffffffff\n      and\n      0x18160ddd\n        /* \"proj/GameSwapDAO.sol\":4249:4272  gameToken.totalSupply() */\n      mload(0x40)\n      dup2\n      0xffffffff\n      and\n      0xe0\n      shl\n      dup2\n      mstore\n      0x04\n      add\n      0x20\n      mload(0x40)\n      dup1\n      dup4\n      sub\n      dup2\n      dup7\n      gas\n      staticcall\n      iszero\n      dup1\n      iszero\n      tag_255\n      jumpi\n      returndatasize\n      0x00\n      dup1\n      returndatacopy\n      revert(0x00, returndatasize)\n    tag_255:\n      pop\n      pop\n      pop\n      pop\n      mload(0x40)\n      returndatasize\n      not(0x1f)\n      0x1f\n      dup3\n      add\n      and\n      dup3\n      add\n      dup1\n      0x40\n      mstore\n      pop\n      dup2\n      add\n      swap1\n      tag_256\n      swap2\n      swap1\n      tag_215\n      jump\t// in\n    tag_256:\n        /* \"proj/GameSwapDAO.sol\":4227:4272  uint256 totalSupply = gameToken.totalSupply() */\n      swap1\n      pop\n        /* \"proj/GameSwapDAO.sol\":4404:4421  proposalThreshold */\n      sload(0x05)\n        /* \"proj/GameSwapDAO.sol\":4389:4400  totalSupply */\n      dup2\n        /* \"proj/GameSwapDAO.sol\":4381:4386  10000 */\n      0x2710\n        /* \"proj/GameSwapDAO.sol\":4365:4378  senderBalance */\n      dup5\n        /* \"proj/GameSwapDAO.sol\":4365:4386  senderBalance * 10000 */\n      tag_257\n      swap2\n      swap1\n      tag_222\n      jump\t// in\n    tag_257:\n        /* \"proj/GameSwapDAO.sol\":4365:4400  senderBalance * 10000 / totalSupply */\n      tag_258\n      swap2\n      swap1\n      tag_224\n      jump\t// in\n    tag_258:\n        /* \"proj/GameSwapDAO.sol\":4365:4421  senderBalance * 10000 / totalSupply >= proposalThreshold */\n      lt\n      iszero\n        /* \"proj/GameSwapDAO.sol\":4357:4494  require(senderBalance * 10000 / totalSupply >= proposalThreshold, ... */\n      tag_259\n      jumpi\n      mload(0x40)\n      0x08c379a000000000000000000000000000000000000000000000000000000000\n      dup2\n      mstore\n      0x04\n      add\n      tag_260\n      swap1\n      tag_261\n      jump\t// in\n    tag_260:\n      mload(0x40)\n      dup1\n      swap2\n      sub\n      swap1\n      revert\n    tag_259:\n        /* \"proj/GameSwapDAO.sol\":4513:4526  proposalCount */\n      0x03\n      0x00\n        /* \"proj/GameSwapDAO.sol\":4513:4528  proposalCount++ */\n      dup2\n      sload\n      dup1\n      swap3\n      swap2\n      swap1\n      tag_262\n      swap1\n      tag_263\n      jump\t// in\n    tag_262:\n      swap2\n      swap1\n      pop\n      sstore\n      pop\n        /* \"proj/GameSwapDAO.sol\":4538:4556  uint256 proposalId */\n      0x00\n        /* \"proj/GameSwapDAO.sol\":4559:4572  proposalCount */\n      sload(0x03)\n        /* \"proj/GameSwapDAO.sol\":4538:4572  uint256 proposalId = proposalCount */\n      swap1\n      pop\n        /* \"proj/GameSwapDAO.sol\":4591:4619  Proposal storage newProposal */\n      0x00\n        /* \"proj/GameSwapDAO.sol\":4622:4631  proposals */\n      0x08\n        /* \"proj/GameSwapDAO.sol\":4622:4643  proposals[proposalId] */\n      0x00\n        /* \"proj/GameSwapDAO.sol\":4632:4642  proposalId */\n      dup4\n        /* \"proj/GameSwapDAO.sol\":4622:4643  proposals[proposalId] */\n      dup2\n      mstore\n      0x20\n      add\n      swap1\n      dup2\n      mstore\n      0x20\n      add\n      0x00\n      keccak256\n        /* \"proj/GameSwapDAO.sol\":4591:4643  Proposal storage newProposal = proposals[proposalId] */\n      swap1\n      pop\n        /* \"proj/GameSwapDAO.sol\":4670:4680  proposalId */\n      dup2\n        /* \"proj/GameSwapDAO.sol\":4653:4664  newProposal */\n      dup2\n        /* \"proj/GameSwapDAO.sol\":4653:4667  newProposal.id */\n      0x00\n      add\n        /* \"proj/GameSwapDAO.sol\":4653:4680  newProposal.id = proposalId */\n      dup2\n      swap1\n      sstore\n      pop\n        /* \"proj/GameSwapDAO.sol\":4713:4723  msg.sender */\n      caller\n        /* \"proj/GameSwapDAO.sol\":4690:4701  newProposal */\n      dup2\n        /* \"proj/GameSwapDAO.sol\":4690:4710  newProposal.proposer */\n      0x01\n      add\n      0x00\n        /* \"proj/GameSwapDAO.sol\":4690:4723  newProposal.proposer = msg.sender */\n      0x0100\n      exp\n      dup2\n      sload\n      dup2\n      0xffffffffffffffffffffffffffffffffffffffff\n      mul\n      not\n      and\n      swap1\n      dup4\n      0xffffffffffffffffffffffffffffffffffffffff\n      and\n      mul\n      or\n      swap1\n      sstore\n      pop\n        /* \"proj/GameSwapDAO.sol\":4759:4770  description */\n      dup8\n        /* \"proj/GameSwapDAO.sol\":4733:4744  newProposal */\n      dup2\n        /* \"proj/GameSwapDAO.sol\":4733:4756  newProposal.description */\n      0x02\n      add\n        /* \"proj/GameSwapDAO.sol\":4733:4770  newProposal.description = description */\n      swap1\n      dup2\n      tag_264\n      swap2\n      swap1\n      tag_265\n      jump\t// in\n    tag_264:\n      pop\n        /* \"proj/GameSwapDAO.sol\":4805:4817  block.number */\n      number\n        /* \"proj/GameSwapDAO.sol\":4780:4791  newProposal */\n      dup2\n        /* \"proj/GameSwapDAO.sol\":4780:4802  newProposal.startBlock */\n      0x03\n      add\n        /* \"proj/GameSwapDAO.sol\":4780:4817  newProposal.startBlock = block.number */\n      dup2\n      swap1\n      sstore\n      pop\n        /* \"proj/GameSwapDAO.sol\":4865:4877  votingPeriod */\n      sload(0x06)\n        /* \"proj/GameSwapDAO.sol\":4850:4862  block.number */\n      number\n        /* \"proj/GameSwapDAO.sol\":4850:4877  block.number + votingPeriod */\n      tag_266\n      swap2\n      swap1\n      tag_220\n      jump\t// in\n    tag_266:\n        /* \"proj/GameSwapDAO.sol\":4827:4838  newProposal */\n      dup2\n        /* \"proj/GameSwapDAO.sol\":4827:4847  newProposal.endBlock */\n      0x04\n      add\n        /* \"proj/GameSwapDAO.sol\":4827:4877  newProposal.endBlock = block.number + votingPeriod */\n      dup2\n      swap1\n      sstore\n      pop\n        /* \"proj/GameSwapDAO.sol\":4910:4918  callData */\n      dup7\n        /* \"proj/GameSwapDAO.sol\":4887:4898  newProposal */\n      dup2\n        /* \"proj/GameSwapDAO.sol\":4887:4907  newProposal.callData */\n      0x09\n      add\n        /* \"proj/GameSwapDAO.sol\":4887:4918  newProposal.callData = callData */\n      swap1\n      dup2\n      tag_267\n      swap2\n      swap1\n      tag_268\n      jump\t// in\n    tag_267:\n      pop\n        /* \"proj/GameSwapDAO.sol\":4949:4955  target */\n      dup6\n        /* \"proj/GameSwapDAO.sol\":4928:4939  newProposal */\n      dup2\n        /* \"proj/GameSwapDAO.sol\":4928:4946  newProposal.target */\n      0x0a\n      add\n      0x00\n        /* \"proj/GameSwapDAO.sol\":4928:4955  newProposal.target = target */\n      0x0100\n      exp\n      dup2\n      sload\n      dup2\n      0xffffffffffffffffffffffffffffffffffffffff\n      mul\n      not\n      and\n      swap1\n      dup4\n      0xffffffffffffffffffffffffffffffffffffffff\n      and\n      mul\n      or\n      swap1\n      sstore\n      pop\n        /* \"proj/GameSwapDAO.sol\":5007:5017  msg.sender */\n      caller\n        /* \"proj/GameSwapDAO.sol\":4979:5074  ProposalCreated(proposalId, msg.sender, description, block.number, block.number + votingPeriod) */\n      0xffffffffffffffffffffffffffffffffffffffff\n      and\n        /* \"proj/GameSwapDAO.sol\":4995:5005  proposalId */\n      dup3\n        /* \"proj/GameSwapDAO.sol\":4979:5074  ProposalCreated(proposalId, msg.sender, description, block.number, block.number + votingPeriod) */\n      0x6c98a8c940418b35614f0cd02412d5c9606faff474cbb6cdd6640ba5d1a9f06b\n        /* \"proj/GameSwapDAO.sol\":5019:5030  description */\n      dup11\n        /* \"proj/GameSwapDAO.sol\":5032:5044  block.number */\n      number\n        /* \"proj/GameSwapDAO.sol\":5061:5073  votingPeriod */\n      sload(0x06)\n        /* \"proj/GameSwapDAO.sol\":5046:5058  block.number */\n      number\n        /* \"proj/GameSwapDAO.sol\":5046:5073  block.number + votingPeriod */\n      tag_269\n      swap2\n      swap1\n      tag_220\n      jump\t// in\n    tag_269:\n        /* \"proj/GameSwapDAO.sol\":4979:5074  ProposalCreated(proposalId, msg.sender, description, block.number, block.number + votingPeriod) */\n      mload(0x40)\n      tag_270\n      swap4\n      swap3\n      swap2\n      swap1\n      tag_271\n      jump\t// in\n    tag_270:\n      mload(0x40)\n      dup1\n      swap2\n      sub\n      swap1\n      log3\n        /* \"proj/GameSwapDAO.sol\":5100:5110  proposalId */\n      dup2\n        /* \"proj/GameSwapDAO.sol\":5093:5110  return proposalId */\n      swap5\n      pop\n      pop\n      pop\n      pop\n      pop\n        /* \"@openzeppelin/contracts/security/ReentrancyGuard.sol\":2303:2323  _nonReentrantAfter() */\n      tag_272\n        /* \"@openzeppelin/contracts/security/ReentrancyGuard.sol\":2303:2321  _nonReentrantAfter */\n      tag_246\n        /* \"@openzeppelin/contracts/security/ReentrancyGuard.sol\":2303:2323  _nonReentrantAfter() */\n      jump\t// in\n    tag_272:\n        /* \"proj/GameSwapDAO.sol\":3970:5117  function createProposal(//proposal for changes... */\n      swap4\n      swap3\n      pop\n      pop\n      pop\n      jump\t// out\n        /* \"proj/GameSwapDAO.sol\":5127:6493  function castVote(uint256 proposalId, bool support) external nonReentrant {//let stakeholders to cast votes onto proposal... */\n    tag_77:\n        /* \"@openzeppelin/contracts/security/ReentrancyGuard.sol\":2261:2282  _nonReentrantBefore() */\n      tag_274\n        /* \"@openzeppelin/contracts/security/ReentrancyGuard.sol\":2261:2280  _nonReentrantBefore */\n      tag_199\n        /* \"@openzeppelin/contracts/security/ReentrancyGuard.sol\":2261:2282  _nonReentrantBefore() */\n      jump\t// in\n    tag_274:\n        /* \"proj/GameSwapDAO.sol\":5257:5282  Proposal storage proposal */\n      0x00\n        /* \"proj/GameSwapDAO.sol\":5285:5294  proposals */\n      0x08\n        /* \"proj/GameSwapDAO.sol\":5285:5306  proposals[proposalId] */\n      0x00\n        /* \"proj/GameSwapDAO.sol\":5295:5305  proposalId */\n      dup5\n        /* \"proj/GameSwapDAO.sol\":5285:5306  proposals[proposalId] */\n      dup2\n      mstore\n      0x20\n      add\n      swap1\n      dup2\n      mstore\n      0x20\n      add\n      0x00\n      keccak256\n        /* \"proj/GameSwapDAO.sol\":5257:5306  Proposal storage proposal = proposals[proposalId] */\n      swap1\n      pop\n        /* \"proj/GameSwapDAO.sol\":5349:5357  proposal */\n      dup1\n        /* \"proj/GameSwapDAO.sol\":5349:5368  proposal.startBlock */\n      0x03\n      add\n      sload\n        /* \"proj/GameSwapDAO.sol\":5333:5345  block.number */\n      number\n        /* \"proj/GameSwapDAO.sol\":5333:5368  block.number >= proposal.startBlock */\n      lt\n      iszero\n        /* \"proj/GameSwapDAO.sol\":5325:5404  require(block.number >= proposal.startBlock, \"GameSwapDAO: voting not started\") */\n      tag_276\n      jumpi\n      mload(0x40)\n      0x08c379a000000000000000000000000000000000000000000000000000000000\n      dup2\n      mstore\n      0x04\n      add\n      tag_277\n      swap1\n      tag_278\n      jump\t// in\n    tag_277:\n      mload(0x40)\n      dup1\n      swap2\n      sub\n      swap1\n      revert\n    tag_276:\n        /* \"proj/GameSwapDAO.sol\":5438:5446  proposal */\n      dup1\n        /* \"proj/GameSwapDAO.sol\":5438:5455  proposal.endBlock */\n      0x04\n      add\n      sload\n        /* \"proj/GameSwapDAO.sol\":5422:5434  block.number */\n      number\n        /* \"proj/GameSwapDAO.sol\":5422:5455  block.number <= proposal.endBlock */\n      gt\n      iszero\n        /* \"proj/GameSwapDAO.sol\":5414:5485  require(block.number <= proposal.endBlock, \"GameSwapDAO: voting ended\") */\n      tag_279\n      jumpi\n      mload(0x40)\n      0x08c379a000000000000000000000000000000000000000000000000000000000\n      dup2\n      mstore\n      0x04\n      add\n      tag_280\n      swap1\n      tag_281\n      jump\t// in\n    tag_280:\n      mload(0x40)\n      dup1\n      swap2\n      sub\n      swap1\n      revert\n    tag_279:\n        /* \"proj/GameSwapDAO.sol\":5504:5512  proposal */\n      dup1\n        /* \"proj/GameSwapDAO.sol\":5504:5521  proposal.executed */\n      0x07\n      add\n      0x00\n      swap1\n      sload\n      swap1\n      0x0100\n      exp\n      swap1\n      div\n      0xff\n      and\n        /* \"proj/GameSwapDAO.sol\":5503:5521  !proposal.executed */\n      iszero\n        /* \"proj/GameSwapDAO.sol\":5495:5564  require(!proposal.executed, \"GameSwapDAO: proposal already executed\") */\n      tag_282\n      jumpi\n      mload(0x40)\n      0x08c379a000000000000000000000000000000000000000000000000000000000\n      dup2\n      mstore\n      0x04\n      add\n      tag_283\n      swap1\n      tag_284\n      jump\t// in\n    tag_283:\n      mload(0x40)\n      dup1\n      swap2\n      sub\n      swap1\n      revert\n    tag_282:\n        /* \"proj/GameSwapDAO.sol\":5583:5591  proposal */\n      dup1\n        /* \"proj/GameSwapDAO.sol\":5583:5600  proposal.canceled */\n      0x0c\n      add\n      0x00\n      swap1\n      sload\n      swap1\n      0x0100\n      exp\n      swap1\n      div\n      0xff\n      and\n        /* \"proj/GameSwapDAO.sol\":5582:5600  !proposal.canceled */\n      iszero\n        /* \"proj/GameSwapDAO.sol\":5574:5635  require(!proposal.canceled, \"GameSwapDAO: proposal canceled\") */\n      tag_285\n      jumpi\n      mload(0x40)\n      0x08c379a000000000000000000000000000000000000000000000000000000000\n      dup2\n      mstore\n      0x04\n      add\n      tag_286\n      swap1\n      tag_209\n      jump\t// in\n    tag_286:\n      mload(0x40)\n      dup1\n      swap2\n      sub\n      swap1\n      revert\n    tag_285:\n        /* \"proj/GameSwapDAO.sol\":5654:5662  proposal */\n      dup1\n        /* \"proj/GameSwapDAO.sol\":5654:5671  proposal.hasVoted */\n      0x0b\n      add\n        /* \"proj/GameSwapDAO.sol\":5654:5683  proposal.hasVoted[msg.sender] */\n      0x00\n        /* \"proj/GameSwapDAO.sol\":5672:5682  msg.sender */\n      caller\n        /* \"proj/GameSwapDAO.sol\":5654:5683  proposal.hasVoted[msg.sender] */\n      0xffffffffffffffffffffffffffffffffffffffff\n      and\n      0xffffffffffffffffffffffffffffffffffffffff\n      and\n      dup2\n      mstore\n      0x20\n      add\n      swap1\n      dup2\n      mstore\n      0x20\n      add\n      0x00\n      keccak256\n      0x00\n      swap1\n      sload\n      swap1\n      0x0100\n      exp\n      swap1\n      div\n      0xff\n      and\n        /* \"proj/GameSwapDAO.sol\":5653:5683  !proposal.hasVoted[msg.sender] */\n      iszero\n        /* \"proj/GameSwapDAO.sol\":5645:5714  require(!proposal.hasVoted[msg.sender], \"GameSwapDAO: already voted\") */\n      tag_287\n      jumpi\n      mload(0x40)\n      0x08c379a000000000000000000000000000000000000000000000000000000000\n      dup2\n      mstore\n      0x04\n      add\n      tag_288\n      swap1\n      tag_289\n      jump\t// in\n    tag_288:\n      mload(0x40)\n      dup1\n      swap2\n      sub\n      swap1\n      revert\n    tag_287:\n        /* \"proj/GameSwapDAO.sol\":5774:5783  gameToken */\n      0x02\n      0x00\n      swap1\n      sload\n      swap1\n      0x0100\n      exp\n      swap1\n      div\n      0xffffffffffffffffffffffffffffffffffffffff\n      and\n        /* \"proj/GameSwapDAO.sol\":5774:5791  gameToken.hasRole */\n      0xffffffffffffffffffffffffffffffffffffffff\n      and\n      0x91d14854\n        /* \"proj/GameSwapDAO.sol\":5792:5801  gameToken */\n      0x02\n      0x00\n      swap1\n      sload\n      swap1\n      0x0100\n      exp\n      swap1\n      div\n      0xffffffffffffffffffffffffffffffffffffffff\n      and\n        /* \"proj/GameSwapDAO.sol\":5792:5813  gameToken.STAKER_ROLE */\n      0xffffffffffffffffffffffffffffffffffffffff\n      and\n      0x3780b3ed\n        /* \"proj/GameSwapDAO.sol\":5792:5815  gameToken.STAKER_ROLE() */\n      mload(0x40)\n      dup2\n      0xffffffff\n      and\n      0xe0\n      shl\n      dup2\n      mstore\n      0x04\n      add\n      0x20\n      mload(0x40)\n      dup1\n      dup4\n      sub\n      dup2\n      dup7\n      gas\n      staticcall\n      iszero\n      dup1\n      iszero\n      tag_291\n      jumpi\n      returndatasize\n      0x00\n      dup1\n      returndatacopy\n      revert(0x00, returndatasize)\n    tag_291:\n      pop\n      pop\n      pop\n      pop\n      mload(0x40)\n      returndatasize\n      not(0x1f)\n      0x1f\n      dup3\n      add\n      and\n      dup3\n      add\n      dup1\n      0x40\n      mstore\n      pop\n      dup2\n      add\n      swap1\n      tag_292\n      swap2\n      swap1\n      tag_293\n      jump\t// in\n    tag_292:\n        /* \"proj/GameSwapDAO.sol\":5817:5827  msg.sender */\n      caller\n        /* \"proj/GameSwapDAO.sol\":5774:5828  gameToken.hasRole(gameToken.STAKER_ROLE(), msg.sender) */\n      mload(0x40)\n      dup4\n      0xffffffff\n      and\n      0xe0\n      shl\n      dup2\n      mstore\n      0x04\n      add\n      tag_294\n      swap3\n      swap2\n      swap1\n      tag_295\n      jump\t// in\n    tag_294:\n      0x20\n      mload(0x40)\n      dup1\n      dup4\n      sub\n      dup2\n      dup7\n      gas\n      staticcall\n      iszero\n      dup1\n      iszero\n      tag_297\n      jumpi\n      returndatasize\n      0x00\n      dup1\n      returndatacopy\n      revert(0x00, returndatasize)\n    tag_297:\n      pop\n      pop\n      pop\n      pop\n      mload(0x40)\n      returndatasize\n      not(0x1f)\n      0x1f\n      dup3\n      add\n      and\n      dup3\n      add\n      dup1\n      0x40\n      mstore\n      pop\n      dup2\n      add\n      swap1\n      tag_298\n      swap2\n      swap1\n      tag_299\n      jump\t// in\n    tag_298:\n        /* \"proj/GameSwapDAO.sol\":5766:5867  require(gameToken.hasRole(gameToken.STAKER_ROLE(), msg.sender), \"GameSwapDAO: only stakers can vote\") */\n      tag_300\n      jumpi\n      mload(0x40)\n      0x08c379a000000000000000000000000000000000000000000000000000000000\n      dup2\n      mstore\n      0x04\n      add\n      tag_301\n      swap1\n      tag_302\n      jump\t// in\n    tag_301:\n      mload(0x40)\n      dup1\n      swap2\n      sub\n      swap1\n      revert\n    tag_300:\n        /* \"proj/GameSwapDAO.sol\":5932:5945  uint256 votes */\n      0x00\n        /* \"proj/GameSwapDAO.sol\":5948:5957  gameToken */\n      0x02\n      0x00\n      swap1\n      sload\n      swap1\n      0x0100\n      exp\n      swap1\n      div\n      0xffffffffffffffffffffffffffffffffffffffff\n      and\n        /* \"proj/GameSwapDAO.sol\":5948:5972  gameToken.stakedBalances */\n      0xffffffffffffffffffffffffffffffffffffffff\n      and\n      0x1460fa87\n        /* \"proj/GameSwapDAO.sol\":5973:5983  msg.sender */\n      caller\n        /* \"proj/GameSwapDAO.sol\":5948:5984  gameToken.stakedBalances(msg.sender) */\n      mload(0x40)\n      dup3\n      0xffffffff\n      and\n      0xe0\n      shl\n      dup2\n      mstore\n      0x04\n      add\n      tag_303\n      swap2\n      swap1\n      tag_211\n      jump\t// in\n    tag_303:\n      0x20\n      mload(0x40)\n      dup1\n      dup4\n      sub\n      dup2\n      dup7\n      gas\n      staticcall\n      iszero\n      dup1\n      iszero\n      tag_305\n      jumpi\n      returndatasize\n      0x00\n      dup1\n      returndatacopy\n      revert(0x00, returndatasize)\n    tag_305:\n      pop\n      pop\n      pop\n      pop\n      mload(0x40)\n      returndatasize\n      not(0x1f)\n      0x1f\n      dup3\n      add\n      and\n      dup3\n      add\n      dup1\n      0x40\n      mstore\n      pop\n      dup2\n      add\n      swap1\n      tag_306\n      swap2\n      swap1\n      tag_215\n      jump\t// in\n    tag_306:\n        /* \"proj/GameSwapDAO.sol\":5932:5984  uint256 votes = gameToken.stakedBalances(msg.sender) */\n      swap1\n      pop\n        /* \"proj/GameSwapDAO.sol\":6010:6011  0 */\n      0x00\n        /* \"proj/GameSwapDAO.sol\":6002:6007  votes */\n      dup2\n        /* \"proj/GameSwapDAO.sol\":6002:6011  votes > 0 */\n      gt\n        /* \"proj/GameSwapDAO.sol\":5994:6045  require(votes > 0, \"GameSwapDAO: no staked tokens\") */\n      tag_307\n      jumpi\n      mload(0x40)\n      0x08c379a000000000000000000000000000000000000000000000000000000000\n      dup2\n      mstore\n      0x04\n      add\n      tag_308\n      swap1\n      tag_309\n      jump\t// in\n    tag_308:\n      mload(0x40)\n      dup1\n      swap2\n      sub\n      swap1\n      revert\n    tag_307:\n        /* \"proj/GameSwapDAO.sol\":6068:6075  support */\n      dup3\n        /* \"proj/GameSwapDAO.sol\":6064:6212  if (support) {... */\n      iszero\n      tag_310\n      jumpi\n        /* \"proj/GameSwapDAO.sol\":6112:6117  votes */\n      dup1\n        /* \"proj/GameSwapDAO.sol\":6091:6099  proposal */\n      dup3\n        /* \"proj/GameSwapDAO.sol\":6091:6108  proposal.forVotes */\n      0x05\n      add\n      0x00\n        /* \"proj/GameSwapDAO.sol\":6091:6117  proposal.forVotes += votes */\n      dup3\n      dup3\n      sload\n      tag_311\n      swap2\n      swap1\n      tag_220\n      jump\t// in\n    tag_311:\n      swap3\n      pop\n      pop\n      dup2\n      swap1\n      sstore\n      pop\n        /* \"proj/GameSwapDAO.sol\":6064:6212  if (support) {... */\n      jump(tag_312)\n    tag_310:\n        /* \"proj/GameSwapDAO.sol\":6183:6188  votes */\n      dup1\n        /* \"proj/GameSwapDAO.sol\":6158:6166  proposal */\n      dup3\n        /* \"proj/GameSwapDAO.sol\":6158:6179  proposal.againstVotes */\n      0x06\n      add\n      0x00\n        /* \"proj/GameSwapDAO.sol\":6158:6188  proposal.againstVotes += votes */\n      dup3\n      dup3\n      sload\n      tag_313\n      swap2\n      swap1\n      tag_220\n      jump\t// in\n    tag_313:\n      swap3\n      pop\n      pop\n      dup2\n      swap1\n      sstore\n      pop\n        /* \"proj/GameSwapDAO.sol\":6064:6212  if (support) {... */\n    tag_312:\n        /* \"proj/GameSwapDAO.sol\":6262:6266  true */\n      0x01\n        /* \"proj/GameSwapDAO.sol\":6230:6238  proposal */\n      dup3\n        /* \"proj/GameSwapDAO.sol\":6230:6247  proposal.hasVoted */\n      0x0b\n      add\n        /* \"proj/GameSwapDAO.sol\":6230:6259  proposal.hasVoted[msg.sender] */\n      0x00\n        /* \"proj/GameSwapDAO.sol\":6248:6258  msg.sender */\n      caller\n        /* \"proj/GameSwapDAO.sol\":6230:6259  proposal.hasVoted[msg.sender] */\n      0xffffffffffffffffffffffffffffffffffffffff\n      and\n      0xffffffffffffffffffffffffffffffffffffffff\n      and\n      dup2\n      mstore\n      0x20\n      add\n      swap1\n      dup2\n      mstore\n      0x20\n      add\n      0x00\n      keccak256\n      0x00\n        /* \"proj/GameSwapDAO.sol\":6230:6266  proposal.hasVoted[msg.sender] = true */\n      0x0100\n      exp\n      dup2\n      sload\n      dup2\n      0xff\n      mul\n      not\n      and\n      swap1\n      dup4\n      iszero\n      iszero\n      mul\n      or\n      swap1\n      sstore\n      pop\n        /* \"proj/GameSwapDAO.sol\":6312:6346  _grantRole(VOTER_ROLE, msg.sender) */\n      tag_314\n        /* \"proj/GameSwapDAO.sol\":873:896  keccak256(\"VOTER_ROLE\") */\n      0x72c3eec1760bf69946625c2d4fb8e44e2c806345041960b434674fb9ab3976cf\n        /* \"proj/GameSwapDAO.sol\":6335:6345  msg.sender */\n      caller\n        /* \"proj/GameSwapDAO.sol\":6312:6322  _grantRole */\n      tag_315\n        /* \"proj/GameSwapDAO.sol\":6312:6346  _grantRole(VOTER_ROLE, msg.sender) */\n      jump\t// in\n    tag_314:\n      pop\n        /* \"proj/GameSwapDAO.sol\":6459:6469  msg.sender */\n      caller\n        /* \"proj/GameSwapDAO.sol\":6438:6486  VoteCast(proposalId, msg.sender, support, votes) */\n      0xffffffffffffffffffffffffffffffffffffffff\n      and\n        /* \"proj/GameSwapDAO.sol\":6447:6457  proposalId */\n      dup5\n        /* \"proj/GameSwapDAO.sol\":6438:6486  VoteCast(proposalId, msg.sender, support, votes) */\n      0xcbdf6214089cba887ecbf35a0b6a734589959c9763342c756bb2a80ca2bc9f6e\n        /* \"proj/GameSwapDAO.sol\":6471:6478  support */\n      dup6\n        /* \"proj/GameSwapDAO.sol\":6480:6485  votes */\n      dup5\n        /* \"proj/GameSwapDAO.sol\":6438:6486  VoteCast(proposalId, msg.sender, support, votes) */\n      mload(0x40)\n      tag_316\n      swap3\n      swap2\n      swap1\n      tag_317\n      jump\t// in\n    tag_316:\n      mload(0x40)\n      dup1\n      swap2\n      sub\n      swap1\n      log3\n        /* \"proj/GameSwapDAO.sol\":5201:6493  {//let stakeholders to cast votes onto proposal... */\n      pop\n      pop\n        /* \"@openzeppelin/contracts/security/ReentrancyGuard.sol\":2303:2323  _nonReentrantAfter() */\n      tag_318\n        /* \"@openzeppelin/contracts/security/ReentrancyGuard.sol\":2303:2321  _nonReentrantAfter */\n      tag_246\n        /* \"@openzeppelin/contracts/security/ReentrancyGuard.sol\":2303:2323  _nonReentrantAfter() */\n      jump\t// in\n    tag_318:\n        /* \"proj/GameSwapDAO.sol\":5127:6493  function castVote(uint256 proposalId, bool support) external nonReentrant {//let stakeholders to cast votes onto proposal... */\n      pop\n      pop\n      jump\t// out\n        /* \"@openzeppelin/contracts/access/AccessControl.sol\":3810:3930  function getRoleAdmin(bytes32 role) public view virtual returns (bytes32) {... */\n    tag_82:\n        /* \"@openzeppelin/contracts/access/AccessControl.sol\":3875:3882  bytes32 */\n      0x00\n        /* \"@openzeppelin/contracts/access/AccessControl.sol\":3901:3907  _roles */\n      dup1\n        /* \"@openzeppelin/contracts/access/AccessControl.sol\":3901:3913  _roles[role] */\n      0x00\n        /* \"@openzeppelin/contracts/access/AccessControl.sol\":3908:3912  role */\n      dup4\n        /* \"@openzeppelin/contracts/access/AccessControl.sol\":3901:3913  _roles[role] */\n      dup2\n      mstore\n      0x20\n      add\n      swap1\n      dup2\n      mstore\n      0x20\n      add\n      0x00\n      keccak256\n        /* \"@openzeppelin/contracts/access/AccessControl.sol\":3901:3923  _roles[role].adminRole */\n      0x01\n      add\n      sload\n        /* \"@openzeppelin/contracts/access/AccessControl.sol\":3894:3923  return _roles[role].adminRole */\n      swap1\n      pop\n        /* \"@openzeppelin/contracts/access/AccessControl.sol\":3810:3930  function getRoleAdmin(bytes32 role) public view virtual returns (bytes32) {... */\n      swap2\n      swap1\n      pop\n      jump\t// out\n        /* \"@openzeppelin/contracts/access/AccessControl.sol\":4226:4362  function grantRole(bytes32 role, address account) public virtual onlyRole(getRoleAdmin(role)) {... */\n    tag_89:\n        /* \"@openzeppelin/contracts/access/AccessControl.sol\":4300:4318  getRoleAdmin(role) */\n      tag_320\n        /* \"@openzeppelin/contracts/access/AccessControl.sol\":4313:4317  role */\n      dup3\n        /* \"@openzeppelin/contracts/access/AccessControl.sol\":4300:4312  getRoleAdmin */\n      tag_82\n        /* \"@openzeppelin/contracts/access/AccessControl.sol\":4300:4318  getRoleAdmin(role) */\n      jump\t// in\n    tag_320:\n        /* \"@openzeppelin/contracts/access/AccessControl.sol\":2464:2480  _checkRole(role) */\n      tag_322\n        /* \"@openzeppelin/contracts/access/AccessControl.sol\":2475:2479  role */\n      dup2\n        /* \"@openzeppelin/contracts/access/AccessControl.sol\":2464:2474  _checkRole */\n      tag_323\n        /* \"@openzeppelin/contracts/access/AccessControl.sol\":2464:2480  _checkRole(role) */\n      jump\t// in\n    tag_322:\n        /* \"@openzeppelin/contracts/access/AccessControl.sol\":4330:4355  _grantRole(role, account) */\n      tag_325\n        /* \"@openzeppelin/contracts/access/AccessControl.sol\":4341:4345  role */\n      dup4\n        /* \"@openzeppelin/contracts/access/AccessControl.sol\":4347:4354  account */\n      dup4\n        /* \"@openzeppelin/contracts/access/AccessControl.sol\":4330:4340  _grantRole */\n      tag_315\n        /* \"@openzeppelin/contracts/access/AccessControl.sol\":4330:4355  _grantRole(role, account) */\n      jump\t// in\n    tag_325:\n      pop\n        /* \"@openzeppelin/contracts/access/AccessControl.sol\":4226:4362  function grantRole(bytes32 role, address account) public virtual onlyRole(getRoleAdmin(role)) {... */\n      pop\n      pop\n      pop\n      jump\t// out\n        /* \"proj/GameSwapDAO.sol\":2034:2083  mapping(address => uint256) public pendingRewards */\n    tag_94:\n      mstore(0x20, 0x0b)\n      dup1\n      0x00\n      mstore\n      keccak256(0x00, 0x40)\n      0x00\n      swap2\n      pop\n      swap1\n      pop\n      sload\n      dup2\n      jump\t// out\n        /* \"@openzeppelin/contracts/access/AccessControl.sol\":5328:5573  function renounceRole(bytes32 role, address callerConfirmation) public virtual {... */\n    tag_99:\n        /* \"@openzeppelin/contracts/access/AccessControl.sol\":5443:5455  _msgSender() */\n      tag_327\n        /* \"@openzeppelin/contracts/access/AccessControl.sol\":5443:5453  _msgSender */\n      tag_328\n        /* \"@openzeppelin/contracts/access/AccessControl.sol\":5443:5455  _msgSender() */\n      jump\t// in\n    tag_327:\n        /* \"@openzeppelin/contracts/access/AccessControl.sol\":5421:5455  callerConfirmation != _msgSender() */\n      0xffffffffffffffffffffffffffffffffffffffff\n      and\n        /* \"@openzeppelin/contracts/access/AccessControl.sol\":5421:5439  callerConfirmation */\n      dup2\n        /* \"@openzeppelin/contracts/access/AccessControl.sol\":5421:5455  callerConfirmation != _msgSender() */\n      0xffffffffffffffffffffffffffffffffffffffff\n      and\n      eq\n        /* \"@openzeppelin/contracts/access/AccessControl.sol\":5417:5519  if (callerConfirmation != _msgSender()) {... */\n      tag_329\n      jumpi\n        /* \"@openzeppelin/contracts/access/AccessControl.sol\":5478:5508  AccessControlBadConfirmation() */\n      mload(0x40)\n      0x6697b23200000000000000000000000000000000000000000000000000000000\n      dup2\n      mstore\n      0x04\n      add\n      mload(0x40)\n      dup1\n      swap2\n      sub\n      swap1\n      revert\n        /* \"@openzeppelin/contracts/access/AccessControl.sol\":5417:5519  if (callerConfirmation != _msgSender()) {... */\n    tag_329:\n        /* \"@openzeppelin/contracts/access/AccessControl.sol\":5529:5566  _revokeRole(role, callerConfirmation) */\n      tag_330\n        /* \"@openzeppelin/contracts/access/AccessControl.sol\":5541:5545  role */\n      dup3\n        /* \"@openzeppelin/contracts/access/AccessControl.sol\":5547:5565  callerConfirmation */\n      dup3\n        /* \"@openzeppelin/contracts/access/AccessControl.sol\":5529:5540  _revokeRole */\n      tag_331\n        /* \"@openzeppelin/contracts/access/AccessControl.sol\":5529:5566  _revokeRole(role, callerConfirmation) */\n      jump\t// in\n    tag_330:\n      pop\n        /* \"@openzeppelin/contracts/access/AccessControl.sol\":5328:5573  function renounceRole(bytes32 role, address callerConfirmation) public virtual {... */\n      pop\n      pop\n      jump\t// out\n        /* \"proj/GameSwapDAO.sol\":1940:1991  mapping(address => uint256) public lastDistribution */\n    tag_103:\n      mstore(0x20, 0x09)\n      dup1\n      0x00\n      mstore\n      keccak256(0x00, 0x40)\n      0x00\n      swap2\n      pop\n      swap1\n      pop\n      sload\n      dup2\n      jump\t// out\n        /* \"proj/GameSwapDAO.sol\":9245:9633  function emergencyWithdraw(uint256 amount) external nonReentrant {... */\n    tag_108:\n        /* \"@openzeppelin/contracts/security/ReentrancyGuard.sol\":2261:2282  _nonReentrantBefore() */\n      tag_333\n        /* \"@openzeppelin/contracts/security/ReentrancyGuard.sol\":2261:2280  _nonReentrantBefore */\n      tag_199\n        /* \"@openzeppelin/contracts/security/ReentrancyGuard.sol\":2261:2282  _nonReentrantBefore() */\n      jump\t// in\n    tag_333:\n        /* \"proj/GameSwapDAO.sol\":9328:9367  hasRole(DEFAULT_ADMIN_ROLE, msg.sender) */\n      tag_335\n        /* \"@openzeppelin/contracts/access/AccessControl.sol\":2232:2236  0x00 */\n      0x00\n        /* \"proj/GameSwapDAO.sol\":9336:9354  DEFAULT_ADMIN_ROLE */\n      dup1\n      shl\n        /* \"proj/GameSwapDAO.sol\":9356:9366  msg.sender */\n      caller\n        /* \"proj/GameSwapDAO.sol\":9328:9335  hasRole */\n      tag_124\n        /* \"proj/GameSwapDAO.sol\":9328:9367  hasRole(DEFAULT_ADMIN_ROLE, msg.sender) */\n      jump\t// in\n    tag_335:\n        /* \"proj/GameSwapDAO.sol\":9320:9404  require(hasRole(DEFAULT_ADMIN_ROLE, msg.sender), \"GameSwapDAO: caller is not admin\") */\n      tag_336\n      jumpi\n      mload(0x40)\n      0x08c379a000000000000000000000000000000000000000000000000000000000\n      dup2\n      mstore\n      0x04\n      add\n      tag_337\n      swap1\n      tag_338\n      jump\t// in\n    tag_337:\n      mload(0x40)\n      dup1\n      swap2\n      sub\n      swap1\n      revert\n    tag_336:\n        /* \"proj/GameSwapDAO.sol\":9432:9453  address(this).balance */\n      selfbalance\n        /* \"proj/GameSwapDAO.sol\":9422:9428  amount */\n      dup2\n        /* \"proj/GameSwapDAO.sol\":9422:9453  amount <= address(this).balance */\n      gt\n      iszero\n        /* \"proj/GameSwapDAO.sol\":9414:9491  require(amount <= address(this).balance, \"GameSwapDAO: insufficient balance\") */\n      tag_339\n      jumpi\n      mload(0x40)\n      0x08c379a000000000000000000000000000000000000000000000000000000000\n      dup2\n      mstore\n      0x04\n      add\n      tag_340\n      swap1\n      tag_341\n      jump\t// in\n    tag_340:\n      mload(0x40)\n      dup1\n      swap2\n      sub\n      swap1\n      revert\n    tag_339:\n        /* \"proj/GameSwapDAO.sol\":9518:9528  msg.sender */\n      caller\n        /* \"proj/GameSwapDAO.sol\":9510:9538  payable(msg.sender).transfer */\n      0xffffffffffffffffffffffffffffffffffffffff\n      and\n        /* \"proj/GameSwapDAO.sol\":9510:9546  payable(msg.sender).transfer(amount) */\n      0x08fc\n        /* \"proj/GameSwapDAO.sol\":9539:9545  amount */\n      dup3\n        /* \"proj/GameSwapDAO.sol\":9510:9546  payable(msg.sender).transfer(amount) */\n      swap1\n      dup2\n      iszero\n      mul\n      swap1\n      mload(0x40)\n      0x00\n      mload(0x40)\n      dup1\n      dup4\n      sub\n      dup2\n      dup6\n      dup9\n      dup9\n      call\n      swap4\n      pop\n      pop\n      pop\n      pop\n      iszero\n      dup1\n      iszero\n      tag_343\n      jumpi\n      returndatasize\n      0x00\n      dup1\n      returndatacopy\n      revert(0x00, returndatasize)\n    tag_343:\n      pop\n        /* \"proj/GameSwapDAO.sol\":9586:9596  msg.sender */\n      caller\n        /* \"proj/GameSwapDAO.sol\":9570:9626  EmergencyAction(msg.sender, \"emergencyWithdraw\", amount) */\n      0xffffffffffffffffffffffffffffffffffffffff\n      and\n      0x66f1c438ffdc40e9aae073468d107ee857ca3003ad2a78e611338a427a642998\n        /* \"proj/GameSwapDAO.sol\":9619:9625  amount */\n      dup3\n        /* \"proj/GameSwapDAO.sol\":9570:9626  EmergencyAction(msg.sender, \"emergencyWithdraw\", amount) */\n      mload(0x40)\n      tag_344\n      swap2\n      swap1\n      tag_345\n      jump\t// in\n    tag_344:\n      mload(0x40)\n      dup1\n      swap2\n      sub\n      swap1\n      log2\n        /* \"@openzeppelin/contracts/security/ReentrancyGuard.sol\":2303:2323  _nonReentrantAfter() */\n      tag_346\n        /* \"@openzeppelin/contracts/security/ReentrancyGuard.sol\":2303:2321  _nonReentrantAfter */\n      tag_246\n        /* \"@openzeppelin/contracts/security/ReentrancyGuard.sol\":2303:2323  _nonReentrantAfter() */\n      jump\t// in\n    tag_346:\n        /* \"proj/GameSwapDAO.sol\":9245:9633  function emergencyWithdraw(uint256 amount) external nonReentrant {... */\n      pop\n      jump\t// out\n        /* \"proj/GameSwapDAO.sol\":11233:11525  function setTimeLock(uint256 _timeLock) external {... */\n    tag_112:\n        /* \"proj/GameSwapDAO.sol\":11300:11339  hasRole(DEFAULT_ADMIN_ROLE, msg.sender) */\n      tag_348\n        /* \"@openzeppelin/contracts/access/AccessControl.sol\":2232:2236  0x00 */\n      0x00\n        /* \"proj/GameSwapDAO.sol\":11308:11326  DEFAULT_ADMIN_ROLE */\n      dup1\n      shl\n        /* \"proj/GameSwapDAO.sol\":11328:11338  msg.sender */\n      caller\n        /* \"proj/GameSwapDAO.sol\":11300:11307  hasRole */\n      tag_124\n        /* \"proj/GameSwapDAO.sol\":11300:11339  hasRole(DEFAULT_ADMIN_ROLE, msg.sender) */\n      jump\t// in\n    tag_348:\n        /* \"proj/GameSwapDAO.sol\":11292:11376  require(hasRole(DEFAULT_ADMIN_ROLE, msg.sender), \"GameSwapDAO: caller is not admin\") */\n      tag_349\n      jumpi\n      mload(0x40)\n      0x08c379a000000000000000000000000000000000000000000000000000000000\n      dup2\n      mstore\n      0x04\n      add\n      tag_350\n      swap1\n      tag_338\n      jump\t// in\n    tag_350:\n      mload(0x40)\n      dup1\n      swap2\n      sub\n      swap1\n      revert\n    tag_349:\n        /* \"proj/GameSwapDAO.sol\":11395:11414  uint256 oldTimeLock */\n      0x00\n        /* \"proj/GameSwapDAO.sol\":11417:11425  timeLock */\n      sload(0x07)\n        /* \"proj/GameSwapDAO.sol\":11395:11425  uint256 oldTimeLock = timeLock */\n      swap1\n      pop\n        /* \"proj/GameSwapDAO.sol\":11446:11455  _timeLock */\n      dup2\n        /* \"proj/GameSwapDAO.sol\":11435:11443  timeLock */\n      0x07\n        /* \"proj/GameSwapDAO.sol\":11435:11455  timeLock = _timeLock */\n      dup2\n      swap1\n      sstore\n      pop\n        /* \"proj/GameSwapDAO.sol\":11479:11518  TimeLockUpdated(oldTimeLock, _timeLock) */\n      0x2a72574d775756e698a258fc07c826b7185131fff8a96b868feacab45fb23432\n        /* \"proj/GameSwapDAO.sol\":11495:11506  oldTimeLock */\n      dup2\n        /* \"proj/GameSwapDAO.sol\":11508:11517  _timeLock */\n      dup4\n        /* \"proj/GameSwapDAO.sol\":11479:11518  TimeLockUpdated(oldTimeLock, _timeLock) */\n      mload(0x40)\n      tag_351\n      swap3\n      swap2\n      swap1\n      tag_352\n      jump\t// in\n    tag_351:\n      mload(0x40)\n      dup1\n      swap2\n      sub\n      swap1\n      log1\n        /* \"proj/GameSwapDAO.sol\":11282:11525  {... */\n      pop\n        /* \"proj/GameSwapDAO.sol\":11233:11525  function setTimeLock(uint256 _timeLock) external {... */\n      pop\n      jump\t// out\n        /* \"proj/GameSwapDAO.sol\":10405:10823  function setMinimumQuorum(uint256 _minimumQuorum) external {... */\n    tag_116:\n        /* \"proj/GameSwapDAO.sol\":10482:10521  hasRole(DEFAULT_ADMIN_ROLE, msg.sender) */\n      tag_354\n        /* \"@openzeppelin/contracts/access/AccessControl.sol\":2232:2236  0x00 */\n      0x00\n        /* \"proj/GameSwapDAO.sol\":10490:10508  DEFAULT_ADMIN_ROLE */\n      dup1\n      shl\n        /* \"proj/GameSwapDAO.sol\":10510:10520  msg.sender */\n      caller\n        /* \"proj/GameSwapDAO.sol\":10482:10489  hasRole */\n      tag_124\n        /* \"proj/GameSwapDAO.sol\":10482:10521  hasRole(DEFAULT_ADMIN_ROLE, msg.sender) */\n      jump\t// in\n    tag_354:\n        /* \"proj/GameSwapDAO.sol\":10474:10558  require(hasRole(DEFAULT_ADMIN_ROLE, msg.sender), \"GameSwapDAO: caller is not admin\") */\n      tag_355\n      jumpi\n      mload(0x40)\n      0x08c379a000000000000000000000000000000000000000000000000000000000\n      dup2\n      mstore\n      0x04\n      add\n      tag_356\n      swap1\n      tag_338\n      jump\t// in\n    tag_356:\n      mload(0x40)\n      dup1\n      swap2\n      sub\n      swap1\n      revert\n    tag_355:\n        /* \"proj/GameSwapDAO.sol\":10593:10594  0 */\n      0x00\n        /* \"proj/GameSwapDAO.sol\":10576:10590  _minimumQuorum */\n      dup2\n        /* \"proj/GameSwapDAO.sol\":10576:10594  _minimumQuorum > 0 */\n      gt\n        /* \"proj/GameSwapDAO.sol\":10576:10621  _minimumQuorum > 0 && _minimumQuorum <= 10000 */\n      dup1\n      iszero\n      tag_357\n      jumpi\n      pop\n        /* \"proj/GameSwapDAO.sol\":10616:10621  10000 */\n      0x2710\n        /* \"proj/GameSwapDAO.sol\":10598:10612  _minimumQuorum */\n      dup2\n        /* \"proj/GameSwapDAO.sol\":10598:10621  _minimumQuorum <= 10000 */\n      gt\n      iszero\n        /* \"proj/GameSwapDAO.sol\":10576:10621  _minimumQuorum > 0 && _minimumQuorum <= 10000 */\n    tag_357:\n        /* \"proj/GameSwapDAO.sol\":10568:10653  require(_minimumQuorum > 0 && _minimumQuorum <= 10000, \"GameSwapDAO: invalid quorum\") */\n      tag_358\n      jumpi\n      mload(0x40)\n      0x08c379a000000000000000000000000000000000000000000000000000000000\n      dup2\n      mstore\n      0x04\n      add\n      tag_359\n      swap1\n      tag_360\n      jump\t// in\n    tag_359:\n      mload(0x40)\n      dup1\n      swap2\n      sub\n      swap1\n      revert\n    tag_358:\n        /* \"proj/GameSwapDAO.sol\":10672:10689  uint256 oldQuorum */\n      0x00\n        /* \"proj/GameSwapDAO.sol\":10692:10705  minimumQuorum */\n      sload(0x04)\n        /* \"proj/GameSwapDAO.sol\":10672:10705  uint256 oldQuorum = minimumQuorum */\n      swap1\n      pop\n        /* \"proj/GameSwapDAO.sol\":10731:10745  _minimumQuorum */\n      dup2\n        /* \"proj/GameSwapDAO.sol\":10715:10728  minimumQuorum */\n      0x04\n        /* \"proj/GameSwapDAO.sol\":10715:10745  minimumQuorum = _minimumQuorum */\n      dup2\n      swap1\n      sstore\n      pop\n        /* \"proj/GameSwapDAO.sol\":10769:10816  MinimumQuorumUpdated(oldQuorum, _minimumQuorum) */\n      0x8954dccd5d355dcbe1d7e0d72c43aebadeaf41bb1a06ca29a6f61d61b4ac121d\n        /* \"proj/GameSwapDAO.sol\":10790:10799  oldQuorum */\n      dup2\n        /* \"proj/GameSwapDAO.sol\":10801:10815  _minimumQuorum */\n      dup4\n        /* \"proj/GameSwapDAO.sol\":10769:10816  MinimumQuorumUpdated(oldQuorum, _minimumQuorum) */\n      mload(0x40)\n      tag_361\n      swap3\n      swap2\n      swap1\n      tag_352\n      jump\t// in\n    tag_361:\n      mload(0x40)\n      dup1\n      swap2\n      sub\n      swap1\n      log1\n        /* \"proj/GameSwapDAO.sol\":10464:10823  {... */\n      pop\n        /* \"proj/GameSwapDAO.sol\":10405:10823  function setMinimumQuorum(uint256 _minimumQuorum) external {... */\n      pop\n      jump\t// out\n        /* \"proj/GameSwapDAO.sol\":1088:1116  uint256 public minimumQuorum */\n    tag_119:\n      sload(0x04)\n      dup2\n      jump\t// out\n        /* \"@openzeppelin/contracts/access/AccessControl.sol\":2854:2990  function hasRole(bytes32 role, address account) public view virtual returns (bool) {... */\n    tag_124:\n        /* \"@openzeppelin/contracts/access/AccessControl.sol\":2931:2935  bool */\n      0x00\n        /* \"@openzeppelin/contracts/access/AccessControl.sol\":2954:2960  _roles */\n      dup1\n        /* \"@openzeppelin/contracts/access/AccessControl.sol\":2954:2966  _roles[role] */\n      0x00\n        /* \"@openzeppelin/contracts/access/AccessControl.sol\":2961:2965  role */\n      dup5\n        /* \"@openzeppelin/contracts/access/AccessControl.sol\":2954:2966  _roles[role] */\n      dup2\n      mstore\n      0x20\n      add\n      swap1\n      dup2\n      mstore\n      0x20\n      add\n      0x00\n      keccak256\n        /* \"@openzeppelin/contracts/access/AccessControl.sol\":2954:2974  _roles[role].hasRole */\n      0x00\n      add\n        /* \"@openzeppelin/contracts/access/AccessControl.sol\":2954:2983  _roles[role].hasRole[account] */\n      0x00\n        /* \"@openzeppelin/contracts/access/AccessControl.sol\":2975:2982  account */\n      dup4\n        /* \"@openzeppelin/contracts/access/AccessControl.sol\":2954:2983  _roles[role].hasRole[account] */\n      0xffffffffffffffffffffffffffffffffffffffff\n      and\n      0xffffffffffffffffffffffffffffffffffffffff\n      and\n      dup2\n      mstore\n      0x20\n      add\n      swap1\n      dup2\n      mstore\n      0x20\n      add\n      0x00\n      keccak256\n      0x00\n      swap1\n      sload\n      swap1\n      0x0100\n      exp\n      swap1\n      div\n      0xff\n      and\n        /* \"@openzeppelin/contracts/access/AccessControl.sol\":2947:2983  return _roles[role].hasRole[account] */\n      swap1\n      pop\n        /* \"@openzeppelin/contracts/access/AccessControl.sol\":2854:2990  function hasRole(bytes32 role, address account) public view virtual returns (bool) {... */\n      swap3\n      swap2\n      pop\n      pop\n      jump\t// out\n        /* \"@openzeppelin/contracts/access/AccessControl.sol\":2187:2236  bytes32 public constant DEFAULT_ADMIN_ROLE = 0x00 */\n    tag_128:\n        /* \"@openzeppelin/contracts/access/AccessControl.sol\":2232:2236  0x00 */\n      0x00\n        /* \"@openzeppelin/contracts/access/AccessControl.sol\":2187:2236  bytes32 public constant DEFAULT_ADMIN_ROLE = 0x00 */\n      dup1\n      shl\n      dup2\n      jump\t// out\n        /* \"proj/GameSwapDAO.sol\":836:896  bytes32 public constant VOTER_ROLE = keccak256(\"VOTER_ROLE\") */\n    tag_132:\n        /* \"proj/GameSwapDAO.sol\":873:896  keccak256(\"VOTER_ROLE\") */\n      0x72c3eec1760bf69946625c2d4fb8e44e2c806345041960b434674fb9ab3976cf\n        /* \"proj/GameSwapDAO.sol\":836:896  bytes32 public constant VOTER_ROLE = keccak256(\"VOTER_ROLE\") */\n      dup2\n      jump\t// out\n        /* \"proj/GameSwapDAO.sol\":1195:1227  uint256 public proposalThreshold */\n    tag_136:\n      sload(0x05)\n      dup2\n      jump\t// out\n        /* \"proj/GameSwapDAO.sol\":8623:9235  function distributeFees() external nonReentrant {... */\n    tag_140:\n        /* \"@openzeppelin/contracts/security/ReentrancyGuard.sol\":2261:2282  _nonReentrantBefore() */\n      tag_364\n        /* \"@openzeppelin/contracts/security/ReentrancyGuard.sol\":2261:2280  _nonReentrantBefore */\n      tag_199\n        /* \"@openzeppelin/contracts/security/ReentrancyGuard.sol\":2261:2282  _nonReentrantBefore() */\n      jump\t// in\n    tag_364:\n        /* \"proj/GameSwapDAO.sol\":8689:8726  hasRole(MARKETPLACE_ROLE, msg.sender) */\n      tag_366\n        /* \"proj/GameSwapDAO.sol\":945:974  keccak256(\"MARKETPLACE_ROLE\") */\n      0x0ea61da3a8a09ad801432653699f8c1860b1ae9d2ea4a141fadfd63227717bc8\n        /* \"proj/GameSwapDAO.sol\":8715:8725  msg.sender */\n      caller\n        /* \"proj/GameSwapDAO.sol\":8689:8696  hasRole */\n      tag_124\n        /* \"proj/GameSwapDAO.sol\":8689:8726  hasRole(MARKETPLACE_ROLE, msg.sender) */\n      jump\t// in\n    tag_366:\n        /* \"proj/GameSwapDAO.sol\":8681:8769  require(hasRole(MARKETPLACE_ROLE, msg.sender), \"GameSwapDAO: caller is not marketplace\") */\n      tag_367\n      jumpi\n      mload(0x40)\n      0x08c379a000000000000000000000000000000000000000000000000000000000\n      dup2\n      mstore\n      0x04\n      add\n      tag_368\n      swap1\n      tag_369\n      jump\t// in\n    tag_368:\n      mload(0x40)\n      dup1\n      swap2\n      sub\n      swap1\n      revert\n    tag_367:\n        /* \"proj/GameSwapDAO.sol\":8991:9008  uint256 feeAmount */\n      0x00\n        /* \"proj/GameSwapDAO.sol\":9011:9020  gameToken */\n      0x02\n      0x00\n      swap1\n      sload\n      swap1\n      0x0100\n      exp\n      swap1\n      div\n      0xffffffffffffffffffffffffffffffffffffffff\n      and\n        /* \"proj/GameSwapDAO.sol\":9011:9030  gameToken.balanceOf */\n      0xffffffffffffffffffffffffffffffffffffffff\n      and\n      0x70a08231\n        /* \"proj/GameSwapDAO.sol\":9039:9043  this */\n      address\n        /* \"proj/GameSwapDAO.sol\":9011:9045  gameToken.balanceOf(address(this)) */\n      mload(0x40)\n      dup3\n      0xffffffff\n      and\n      0xe0\n      shl\n      dup2\n      mstore\n      0x04\n      add\n      tag_370\n      swap2\n      swap1\n      tag_211\n      jump\t// in\n    tag_370:\n      0x20\n      mload(0x40)\n      dup1\n      dup4\n      sub\n      dup2\n      dup7\n      gas\n      staticcall\n      iszero\n      dup1\n      iszero\n      tag_372\n      jumpi\n      returndatasize\n      0x00\n      dup1\n      returndatacopy\n      revert(0x00, returndatasize)\n    tag_372:\n      pop\n      pop\n      pop\n      pop\n      mload(0x40)\n      returndatasize\n      not(0x1f)\n      0x1f\n      dup3\n      add\n      and\n      dup3\n      add\n      dup1\n      0x40\n      mstore\n      pop\n      dup2\n      add\n      swap1\n      tag_373\n      swap2\n      swap1\n      tag_215\n      jump\t// in\n    tag_373:\n        /* \"proj/GameSwapDAO.sol\":8991:9045  uint256 feeAmount = gameToken.balanceOf(address(this)) */\n      swap1\n      pop\n        /* \"proj/GameSwapDAO.sol\":9124:9133  feeAmount */\n      dup1\n        /* \"proj/GameSwapDAO.sol\":9104:9120  totalDistributed */\n      0x0a\n      0x00\n        /* \"proj/GameSwapDAO.sol\":9104:9133  totalDistributed += feeAmount */\n      dup3\n      dup3\n      sload\n      tag_374\n      swap2\n      swap1\n      tag_220\n      jump\t// in\n    tag_374:\n      swap3\n      pop\n      pop\n      dup2\n      swap1\n      sstore\n      pop\n        /* \"proj/GameSwapDAO.sol\":9157:9186  FeesDistributed(feeAmount, 0) */\n      0x771d362663b46bd788cd13fc183c9432449a2be6bcb81051bfeb484afd9c5dd8\n        /* \"proj/GameSwapDAO.sol\":9173:9182  feeAmount */\n      dup2\n        /* \"proj/GameSwapDAO.sol\":9184:9185  0 */\n      0x00\n        /* \"proj/GameSwapDAO.sol\":9157:9186  FeesDistributed(feeAmount, 0) */\n      mload(0x40)\n      tag_375\n      swap3\n      swap2\n      swap1\n      tag_376\n      jump\t// in\n    tag_375:\n      mload(0x40)\n      dup1\n      swap2\n      sub\n      swap1\n      log1\n        /* \"proj/GameSwapDAO.sol\":8671:9235  {... */\n      pop\n        /* \"@openzeppelin/contracts/security/ReentrancyGuard.sol\":2303:2323  _nonReentrantAfter() */\n      tag_377\n        /* \"@openzeppelin/contracts/security/ReentrancyGuard.sol\":2303:2321  _nonReentrantAfter */\n      tag_246\n        /* \"@openzeppelin/contracts/security/ReentrancyGuard.sol\":2303:2323  _nonReentrantAfter() */\n      jump\t// in\n    tag_377:\n        /* \"proj/GameSwapDAO.sol\":8623:9235  function distributeFees() external nonReentrant {... */\n      jump\t// out\n        /* \"proj/GameSwapDAO.sol\":902:974  bytes32 public constant MARKETPLACE_ROLE = keccak256(\"MARKETPLACE_ROLE\") */\n    tag_143:\n        /* \"proj/GameSwapDAO.sol\":945:974  keccak256(\"MARKETPLACE_ROLE\") */\n      0x0ea61da3a8a09ad801432653699f8c1860b1ae9d2ea4a141fadfd63227717bc8\n        /* \"proj/GameSwapDAO.sol\":902:974  bytes32 public constant MARKETPLACE_ROLE = keccak256(\"MARKETPLACE_ROLE\") */\n      dup2\n      jump\t// out\n        /* \"proj/GameSwapDAO.sol\":985:1016  IGameSwapToken public gameToken */\n    tag_147:\n      0x02\n      0x00\n      swap1\n      sload\n      swap1\n      0x0100\n      exp\n      swap1\n      div\n      0xffffffffffffffffffffffffffffffffffffffff\n      and\n      dup2\n      jump\t// out\n        /* \"proj/GameSwapDAO.sol\":1368:1391  uint256 public timeLock */\n    tag_152:\n      sload(0x07)\n      dup2\n      jump\t// out\n        /* \"@openzeppelin/contracts/access/AccessControl.sol\":4642:4780  function revokeRole(bytes32 role, address account) public virtual onlyRole(getRoleAdmin(role)) {... */\n    tag_157:\n        /* \"@openzeppelin/contracts/access/AccessControl.sol\":4717:4735  getRoleAdmin(role) */\n      tag_378\n        /* \"@openzeppelin/contracts/access/AccessControl.sol\":4730:4734  role */\n      dup3\n        /* \"@openzeppelin/contracts/access/AccessControl.sol\":4717:4729  getRoleAdmin */\n      tag_82\n        /* \"@openzeppelin/contracts/access/AccessControl.sol\":4717:4735  getRoleAdmin(role) */\n      jump\t// in\n    tag_378:\n        /* \"@openzeppelin/contracts/access/AccessControl.sol\":2464:2480  _checkRole(role) */\n      tag_380\n        /* \"@openzeppelin/contracts/access/AccessControl.sol\":2475:2479  role */\n      dup2\n        /* \"@openzeppelin/contracts/access/AccessControl.sol\":2464:2474  _checkRole */\n      tag_323\n        /* \"@openzeppelin/contracts/access/AccessControl.sol\":2464:2480  _checkRole(role) */\n      jump\t// in\n    tag_380:\n        /* \"@openzeppelin/contracts/access/AccessControl.sol\":4747:4773  _revokeRole(role, account) */\n      tag_382\n        /* \"@openzeppelin/contracts/access/AccessControl.sol\":4759:4763  role */\n      dup4\n        /* \"@openzeppelin/contracts/access/AccessControl.sol\":4765:4772  account */\n      dup4\n        /* \"@openzeppelin/contracts/access/AccessControl.sol\":4747:4758  _revokeRole */\n      tag_331\n        /* \"@openzeppelin/contracts/access/AccessControl.sol\":4747:4773  _revokeRole(role, account) */\n      jump\t// in\n    tag_382:\n      pop\n        /* \"@openzeppelin/contracts/access/AccessControl.sol\":4642:4780  function revokeRole(bytes32 role, address account) public virtual onlyRole(getRoleAdmin(role)) {... */\n      pop\n      pop\n      pop\n      jump\t// out\n        /* \"proj/GameSwapDAO.sol\":1054:1082  uint256 public proposalCount */\n    tag_160:\n      sload(0x03)\n      dup2\n      jump\t// out\n        /* \"proj/GameSwapDAO.sol\":9643:9922  function emergencyBurn(uint256 amount) external nonReentrant {... */\n    tag_165:\n        /* \"@openzeppelin/contracts/security/ReentrancyGuard.sol\":2261:2282  _nonReentrantBefore() */\n      tag_384\n        /* \"@openzeppelin/contracts/security/ReentrancyGuard.sol\":2261:2280  _nonReentrantBefore */\n      tag_199\n        /* \"@openzeppelin/contracts/security/ReentrancyGuard.sol\":2261:2282  _nonReentrantBefore() */\n      jump\t// in\n    tag_384:\n        /* \"proj/GameSwapDAO.sol\":9722:9761  hasRole(DEFAULT_ADMIN_ROLE, msg.sender) */\n      tag_386\n        /* \"@openzeppelin/contracts/access/AccessControl.sol\":2232:2236  0x00 */\n      0x00\n        /* \"proj/GameSwapDAO.sol\":9730:9748  DEFAULT_ADMIN_ROLE */\n      dup1\n      shl\n        /* \"proj/GameSwapDAO.sol\":9750:9760  msg.sender */\n      caller\n        /* \"proj/GameSwapDAO.sol\":9722:9729  hasRole */\n      tag_124\n        /* \"proj/GameSwapDAO.sol\":9722:9761  hasRole(DEFAULT_ADMIN_ROLE, msg.sender) */\n      jump\t// in\n    tag_386:\n        /* \"proj/GameSwapDAO.sol\":9714:9798  require(hasRole(DEFAULT_ADMIN_ROLE, msg.sender), \"GameSwapDAO: caller is not admin\") */\n      tag_387\n      jumpi\n      mload(0x40)\n      0x08c379a000000000000000000000000000000000000000000000000000000000\n      dup2\n      mstore\n      0x04\n      add\n      tag_388\n      swap1\n      tag_338\n      jump\t// in\n    tag_388:\n      mload(0x40)\n      dup1\n      swap2\n      sub\n      swap1\n      revert\n    tag_387:\n        /* \"proj/GameSwapDAO.sol\":9817:9826  gameToken */\n      0x02\n      0x00\n      swap1\n      sload\n      swap1\n      0x0100\n      exp\n      swap1\n      div\n      0xffffffffffffffffffffffffffffffffffffffff\n      and\n        /* \"proj/GameSwapDAO.sol\":9817:9831  gameToken.burn */\n      0xffffffffffffffffffffffffffffffffffffffff\n      and\n      0x42966c68\n        /* \"proj/GameSwapDAO.sol\":9832:9838  amount */\n      dup3\n        /* \"proj/GameSwapDAO.sol\":9817:9839  gameToken.burn(amount) */\n      mload(0x40)\n      dup3\n      0xffffffff\n      and\n      0xe0\n      shl\n      dup2\n      mstore\n      0x04\n      add\n      tag_389\n      swap2\n      swap1\n      tag_62\n      jump\t// in\n    tag_389:\n      0x00\n      mload(0x40)\n      dup1\n      dup4\n      sub\n      dup2\n      0x00\n      dup8\n      dup1\n      extcodesize\n      iszero\n      dup1\n      iszero\n      tag_390\n      jumpi\n      0x00\n      dup1\n      revert\n    tag_390:\n      pop\n      gas\n      call\n      iszero\n      dup1\n      iszero\n      tag_392\n      jumpi\n      returndatasize\n      0x00\n      dup1\n      returndatacopy\n      revert(0x00, returndatasize)\n    tag_392:\n      pop\n      pop\n      pop\n      pop\n        /* \"proj/GameSwapDAO.sol\":9879:9889  msg.sender */\n      caller\n        /* \"proj/GameSwapDAO.sol\":9863:9915  EmergencyAction(msg.sender, \"emergencyBurn\", amount) */\n      0xffffffffffffffffffffffffffffffffffffffff\n      and\n      0x66f1c438ffdc40e9aae073468d107ee857ca3003ad2a78e611338a427a642998\n        /* \"proj/GameSwapDAO.sol\":9908:9914  amount */\n      dup3\n        /* \"proj/GameSwapDAO.sol\":9863:9915  EmergencyAction(msg.sender, \"emergencyBurn\", amount) */\n      mload(0x40)\n      tag_393\n      swap2\n      swap1\n      tag_394\n      jump\t// in\n    tag_393:\n      mload(0x40)\n      dup1\n      swap2\n      sub\n      swap1\n      log2\n        /* \"@openzeppelin/contracts/security/ReentrancyGuard.sol\":2303:2323  _nonReentrantAfter() */\n      tag_395\n        /* \"@openzeppelin/contracts/security/ReentrancyGuard.sol\":2303:2321  _nonReentrantAfter */\n      tag_246\n        /* \"@openzeppelin/contracts/security/ReentrancyGuard.sol\":2303:2323  _nonReentrantAfter() */\n      jump\t// in\n    tag_395:\n        /* \"proj/GameSwapDAO.sol\":9643:9922  function emergencyBurn(uint256 amount) external nonReentrant {... */\n      pop\n      jump\t// out\n        /* \"proj/GameSwapDAO.sol\":8090:8613  function cancelProposal(uint256 proposalId) external {... */\n    tag_169:\n        /* \"proj/GameSwapDAO.sol\":8153:8178  Proposal storage proposal */\n      0x00\n        /* \"proj/GameSwapDAO.sol\":8181:8190  proposals */\n      0x08\n        /* \"proj/GameSwapDAO.sol\":8181:8202  proposals[proposalId] */\n      0x00\n        /* \"proj/GameSwapDAO.sol\":8191:8201  proposalId */\n      dup4\n        /* \"proj/GameSwapDAO.sol\":8181:8202  proposals[proposalId] */\n      dup2\n      mstore\n      0x20\n      add\n      swap1\n      dup2\n      mstore\n      0x20\n      add\n      0x00\n      keccak256\n        /* \"proj/GameSwapDAO.sol\":8153:8202  Proposal storage proposal = proposals[proposalId] */\n      swap1\n      pop\n        /* \"proj/GameSwapDAO.sol\":8250:8260  msg.sender */\n      caller\n        /* \"proj/GameSwapDAO.sol\":8229:8260  proposal.proposer == msg.sender */\n      0xffffffffffffffffffffffffffffffffffffffff\n      and\n        /* \"proj/GameSwapDAO.sol\":8229:8237  proposal */\n      dup2\n        /* \"proj/GameSwapDAO.sol\":8229:8246  proposal.proposer */\n      0x01\n      add\n      0x00\n      swap1\n      sload\n      swap1\n      0x0100\n      exp\n      swap1\n      div\n      0xffffffffffffffffffffffffffffffffffffffff\n      and\n        /* \"proj/GameSwapDAO.sol\":8229:8260  proposal.proposer == msg.sender */\n      0xffffffffffffffffffffffffffffffffffffffff\n      and\n      eq\n        /* \"proj/GameSwapDAO.sol\":8229:8303  proposal.proposer == msg.sender || hasRole(DEFAULT_ADMIN_ROLE, msg.sender) */\n      dup1\n      tag_397\n      jumpi\n      pop\n        /* \"proj/GameSwapDAO.sol\":8264:8303  hasRole(DEFAULT_ADMIN_ROLE, msg.sender) */\n      tag_398\n        /* \"@openzeppelin/contracts/access/AccessControl.sol\":2232:2236  0x00 */\n      0x00\n        /* \"proj/GameSwapDAO.sol\":8272:8290  DEFAULT_ADMIN_ROLE */\n      dup1\n      shl\n        /* \"proj/GameSwapDAO.sol\":8292:8302  msg.sender */\n      caller\n        /* \"proj/GameSwapDAO.sol\":8264:8271  hasRole */\n      tag_124\n        /* \"proj/GameSwapDAO.sol\":8264:8303  hasRole(DEFAULT_ADMIN_ROLE, msg.sender) */\n      jump\t// in\n    tag_398:\n        /* \"proj/GameSwapDAO.sol\":8229:8303  proposal.proposer == msg.sender || hasRole(DEFAULT_ADMIN_ROLE, msg.sender) */\n    tag_397:\n        /* \"proj/GameSwapDAO.sol\":8221:8371  require(proposal.proposer == msg.sender || hasRole(DEFAULT_ADMIN_ROLE, msg.sender), ... */\n      tag_399\n      jumpi\n      mload(0x40)\n      0x08c379a000000000000000000000000000000000000000000000000000000000\n      dup2\n      mstore\n      0x04\n      add\n      tag_400\n      swap1\n      tag_401\n      jump\t// in\n    tag_400:\n      mload(0x40)\n      dup1\n      swap2\n      sub\n      swap1\n      revert\n    tag_399:\n        /* \"proj/GameSwapDAO.sol\":8390:8398  proposal */\n      dup1\n        /* \"proj/GameSwapDAO.sol\":8390:8407  proposal.executed */\n      0x07\n      add\n      0x00\n      swap1\n      sload\n      swap1\n      0x0100\n      exp\n      swap1\n      div\n      0xff\n      and\n        /* \"proj/GameSwapDAO.sol\":8389:8407  !proposal.executed */\n      iszero\n        /* \"proj/GameSwapDAO.sol\":8381:8441  require(!proposal.executed, \"GameSwapDAO: already executed\") */\n      tag_402\n      jumpi\n      mload(0x40)\n      0x08c379a000000000000000000000000000000000000000000000000000000000\n      dup2\n      mstore\n      0x04\n      add\n      tag_403\n      swap1\n      tag_206\n      jump\t// in\n    tag_403:\n      mload(0x40)\n      dup1\n      swap2\n      sub\n      swap1\n      revert\n    tag_402:\n        /* \"proj/GameSwapDAO.sol\":8460:8468  proposal */\n      dup1\n        /* \"proj/GameSwapDAO.sol\":8460:8477  proposal.canceled */\n      0x0c\n      add\n      0x00\n      swap1\n      sload\n      swap1\n      0x0100\n      exp\n      swap1\n      div\n      0xff\n      and\n        /* \"proj/GameSwapDAO.sol\":8459:8477  !proposal.canceled */\n      iszero\n        /* \"proj/GameSwapDAO.sol\":8451:8511  require(!proposal.canceled, \"GameSwapDAO: already canceled\") */\n      tag_404\n      jumpi\n      mload(0x40)\n      0x08c379a000000000000000000000000000000000000000000000000000000000\n      dup2\n      mstore\n      0x04\n      add\n      tag_405\n      swap1\n      tag_406\n      jump\t// in\n    tag_405:\n      mload(0x40)\n      dup1\n      swap2\n      sub\n      swap1\n      revert\n    tag_404:\n        /* \"proj/GameSwapDAO.sol\":8550:8554  true */\n      0x01\n        /* \"proj/GameSwapDAO.sol\":8530:8538  proposal */\n      dup2\n        /* \"proj/GameSwapDAO.sol\":8530:8547  proposal.canceled */\n      0x0c\n      add\n      0x00\n        /* \"proj/GameSwapDAO.sol\":8530:8554  proposal.canceled = true */\n      0x0100\n      exp\n      dup2\n      sload\n      dup2\n      0xff\n      mul\n      not\n      and\n      swap1\n      dup4\n      iszero\n      iszero\n      mul\n      or\n      swap1\n      sstore\n      pop\n        /* \"proj/GameSwapDAO.sol\":8595:8605  proposalId */\n      dup2\n        /* \"proj/GameSwapDAO.sol\":8578:8606  ProposalCanceled(proposalId) */\n      0x789cf55be980739dad1d0699b93b58e806b51c9d96619bfa8fe0a28abaa7b30c\n      mload(0x40)\n      mload(0x40)\n      dup1\n      swap2\n      sub\n      swap1\n      log2\n        /* \"proj/GameSwapDAO.sol\":8143:8613  {... */\n      pop\n        /* \"proj/GameSwapDAO.sol\":8090:8613  function cancelProposal(uint256 proposalId) external {... */\n      pop\n      jump\t// out\n        /* \"proj/GameSwapDAO.sol\":10833:11223  function setVotingPeriod(uint256 _votingPeriod) external {... */\n    tag_173:\n        /* \"proj/GameSwapDAO.sol\":10908:10947  hasRole(DEFAULT_ADMIN_ROLE, msg.sender) */\n      tag_408\n        /* \"@openzeppelin/contracts/access/AccessControl.sol\":2232:2236  0x00 */\n      0x00\n        /* \"proj/GameSwapDAO.sol\":10916:10934  DEFAULT_ADMIN_ROLE */\n      dup1\n      shl\n        /* \"proj/GameSwapDAO.sol\":10936:10946  msg.sender */\n      caller\n        /* \"proj/GameSwapDAO.sol\":10908:10915  hasRole */\n      tag_124\n        /* \"proj/GameSwapDAO.sol\":10908:10947  hasRole(DEFAULT_ADMIN_ROLE, msg.sender) */\n      jump\t// in\n    tag_408:\n        /* \"proj/GameSwapDAO.sol\":10900:10984  require(hasRole(DEFAULT_ADMIN_ROLE, msg.sender), \"GameSwapDAO: caller is not admin\") */\n      tag_409\n      jumpi\n      mload(0x40)\n      0x08c379a000000000000000000000000000000000000000000000000000000000\n      dup2\n      mstore\n      0x04\n      add\n      tag_410\n      swap1\n      tag_338\n      jump\t// in\n    tag_410:\n      mload(0x40)\n      dup1\n      swap2\n      sub\n      swap1\n      revert\n    tag_409:\n        /* \"proj/GameSwapDAO.sol\":11018:11019  0 */\n      0x00\n        /* \"proj/GameSwapDAO.sol\":11002:11015  _votingPeriod */\n      dup2\n        /* \"proj/GameSwapDAO.sol\":11002:11019  _votingPeriod > 0 */\n      gt\n        /* \"proj/GameSwapDAO.sol\":10994:11058  require(_votingPeriod > 0, \"GameSwapDAO: invalid voting period\") */\n      tag_411\n      jumpi\n      mload(0x40)\n      0x08c379a000000000000000000000000000000000000000000000000000000000\n      dup2\n      mstore\n      0x04\n      add\n      tag_412\n      swap1\n      tag_413\n      jump\t// in\n    tag_412:\n      mload(0x40)\n      dup1\n      swap2\n      sub\n      swap1\n      revert\n    tag_411:\n        /* \"proj/GameSwapDAO.sol\":11077:11094  uint256 oldPeriod */\n      0x00\n        /* \"proj/GameSwapDAO.sol\":11097:11109  votingPeriod */\n      sload(0x06)\n        /* \"proj/GameSwapDAO.sol\":11077:11109  uint256 oldPeriod = votingPeriod */\n      swap1\n      pop\n        /* \"proj/GameSwapDAO.sol\":11134:11147  _votingPeriod */\n      dup2\n        /* \"proj/GameSwapDAO.sol\":11119:11131  votingPeriod */\n      0x06\n        /* \"proj/GameSwapDAO.sol\":11119:11147  votingPeriod = _votingPeriod */\n      dup2\n      swap1\n      sstore\n      pop\n        /* \"proj/GameSwapDAO.sol\":11171:11216  VotingPeriodUpdated(oldPeriod, _votingPeriod) */\n      0xffc708f072ca56e3d45ef0cb288b96cb9378f5f63e1646868bfbc9c38f4263a1\n        /* \"proj/GameSwapDAO.sol\":11191:11200  oldPeriod */\n      dup2\n        /* \"proj/GameSwapDAO.sol\":11202:11215  _votingPeriod */\n      dup4\n        /* \"proj/GameSwapDAO.sol\":11171:11216  VotingPeriodUpdated(oldPeriod, _votingPeriod) */\n      mload(0x40)\n      tag_414\n      swap3\n      swap2\n      swap1\n      tag_352\n      jump\t// in\n    tag_414:\n      mload(0x40)\n      dup1\n      swap2\n      sub\n      swap1\n      log1\n        /* \"proj/GameSwapDAO.sol\":10890:11223  {... */\n      pop\n        /* \"proj/GameSwapDAO.sol\":10833:11223  function setVotingPeriod(uint256 _votingPeriod) external {... */\n      pop\n      jump\t// out\n        /* \"proj/GameSwapDAO.sol\":9932:10395  function setProposalThreshold(uint256 _proposalThreshold) external {... */\n    tag_177:\n        /* \"proj/GameSwapDAO.sol\":10017:10056  hasRole(DEFAULT_ADMIN_ROLE, msg.sender) */\n      tag_416\n        /* \"@openzeppelin/contracts/access/AccessControl.sol\":2232:2236  0x00 */\n      0x00\n        /* \"proj/GameSwapDAO.sol\":10025:10043  DEFAULT_ADMIN_ROLE */\n      dup1\n      shl\n        /* \"proj/GameSwapDAO.sol\":10045:10055  msg.sender */\n      caller\n        /* \"proj/GameSwapDAO.sol\":10017:10024  hasRole */\n      tag_124\n        /* \"proj/GameSwapDAO.sol\":10017:10056  hasRole(DEFAULT_ADMIN_ROLE, msg.sender) */\n      jump\t// in\n    tag_416:\n        /* \"proj/GameSwapDAO.sol\":10009:10093  require(hasRole(DEFAULT_ADMIN_ROLE, msg.sender), \"GameSwapDAO: caller is not admin\") */\n      tag_417\n      jumpi\n      mload(0x40)\n      0x08c379a000000000000000000000000000000000000000000000000000000000\n      dup2\n      mstore\n      0x04\n      add\n      tag_418\n      swap1\n      tag_338\n      jump\t// in\n    tag_418:\n      mload(0x40)\n      dup1\n      swap2\n      sub\n      swap1\n      revert\n    tag_417:\n        /* \"proj/GameSwapDAO.sol\":10132:10133  0 */\n      0x00\n        /* \"proj/GameSwapDAO.sol\":10111:10129  _proposalThreshold */\n      dup2\n        /* \"proj/GameSwapDAO.sol\":10111:10133  _proposalThreshold > 0 */\n      gt\n        /* \"proj/GameSwapDAO.sol\":10111:10164  _proposalThreshold > 0 && _proposalThreshold <= 10000 */\n      dup1\n      iszero\n      tag_419\n      jumpi\n      pop\n        /* \"proj/GameSwapDAO.sol\":10159:10164  10000 */\n      0x2710\n        /* \"proj/GameSwapDAO.sol\":10137:10155  _proposalThreshold */\n      dup2\n        /* \"proj/GameSwapDAO.sol\":10137:10164  _proposalThreshold <= 10000 */\n      gt\n      iszero\n        /* \"proj/GameSwapDAO.sol\":10111:10164  _proposalThreshold > 0 && _proposalThreshold <= 10000 */\n    tag_419:\n        /* \"proj/GameSwapDAO.sol\":10103:10199  require(_proposalThreshold > 0 && _proposalThreshold <= 10000, \"GameSwapDAO: invalid threshold\") */\n      tag_420\n      jumpi\n      mload(0x40)\n      0x08c379a000000000000000000000000000000000000000000000000000000000\n      dup2\n      mstore\n      0x04\n      add\n      tag_421\n      swap1\n      tag_422\n      jump\t// in\n    tag_421:\n      mload(0x40)\n      dup1\n      swap2\n      sub\n      swap1\n      revert\n    tag_420:\n        /* \"proj/GameSwapDAO.sol\":10218:10238  uint256 oldThreshold */\n      0x00\n        /* \"proj/GameSwapDAO.sol\":10241:10258  proposalThreshold */\n      sload(0x05)\n        /* \"proj/GameSwapDAO.sol\":10218:10258  uint256 oldThreshold = proposalThreshold */\n      swap1\n      pop\n        /* \"proj/GameSwapDAO.sol\":10288:10306  _proposalThreshold */\n      dup2\n        /* \"proj/GameSwapDAO.sol\":10268:10285  proposalThreshold */\n      0x05\n        /* \"proj/GameSwapDAO.sol\":10268:10306  proposalThreshold = _proposalThreshold */\n      dup2\n      swap1\n      sstore\n      pop\n        /* \"proj/GameSwapDAO.sol\":10330:10388  ProposalThresholdUpdated(oldThreshold, _proposalThreshold) */\n      0xe92242fc3efcad407a677132b517977331a6e5b65abab69fd757cc02e99c9c4e\n        /* \"proj/GameSwapDAO.sol\":10355:10367  oldThreshold */\n      dup2\n        /* \"proj/GameSwapDAO.sol\":10369:10387  _proposalThreshold */\n      dup4\n        /* \"proj/GameSwapDAO.sol\":10330:10388  ProposalThresholdUpdated(oldThreshold, _proposalThreshold) */\n      mload(0x40)\n      tag_423\n      swap3\n      swap2\n      swap1\n      tag_352\n      jump\t// in\n    tag_423:\n      mload(0x40)\n      dup1\n      swap2\n      sub\n      swap1\n      log1\n        /* \"proj/GameSwapDAO.sol\":9999:10395  {... */\n      pop\n        /* \"proj/GameSwapDAO.sol\":9932:10395  function setProposalThreshold(uint256 _proposalThreshold) external {... */\n      pop\n      jump\t// out\n        /* \"proj/GameSwapDAO.sol\":1997:2028  uint256 public totalDistributed */\n    tag_180:\n      sload(0x0a)\n      dup2\n      jump\t// out\n        /* \"@openzeppelin/contracts/utils/introspection/ERC165.sol\":763:909  function supportsInterface(bytes4 interfaceId) public view virtual returns (bool) {... */\n    tag_196:\n        /* \"@openzeppelin/contracts/utils/introspection/ERC165.sol\":839:843  bool */\n      0x00\n        /* \"@openzeppelin/contracts/utils/introspection/ERC165.sol\":877:902  type(IERC165).interfaceId */\n      0x01ffc9a700000000000000000000000000000000000000000000000000000000\n        /* \"@openzeppelin/contracts/utils/introspection/ERC165.sol\":862:902  interfaceId == type(IERC165).interfaceId */\n      not(0xffffffffffffffffffffffffffffffffffffffffffffffffffffffff)\n      and\n        /* \"@openzeppelin/contracts/utils/introspection/ERC165.sol\":862:873  interfaceId */\n      dup3\n        /* \"@openzeppelin/contracts/utils/introspection/ERC165.sol\":862:902  interfaceId == type(IERC165).interfaceId */\n      not(0xffffffffffffffffffffffffffffffffffffffffffffffffffffffff)\n      and\n      eq\n        /* \"@openzeppelin/contracts/utils/introspection/ERC165.sol\":855:902  return interfaceId == type(IERC165).interfaceId */\n      swap1\n      pop\n        /* \"@openzeppelin/contracts/utils/introspection/ERC165.sol\":763:909  function supportsInterface(bytes4 interfaceId) public view virtual returns (bool) {... */\n      swap2\n      swap1\n      pop\n      jump\t// out\n        /* \"@openzeppelin/contracts/security/ReentrancyGuard.sol\":2336:2623  function _nonReentrantBefore() private {... */\n    tag_199:\n        /* \"@openzeppelin/contracts/security/ReentrancyGuard.sol\":1759:1760  2 */\n      0x02\n        /* \"@openzeppelin/contracts/security/ReentrancyGuard.sol\":2468:2475  _status */\n      sload(0x01)\n        /* \"@openzeppelin/contracts/security/ReentrancyGuard.sol\":2468:2487  _status != _ENTERED */\n      sub\n        /* \"@openzeppelin/contracts/security/ReentrancyGuard.sol\":2460:2523  require(_status != _ENTERED, \"ReentrancyGuard: reentrant call\") */\n      tag_426\n      jumpi\n      mload(0x40)\n      0x08c379a000000000000000000000000000000000000000000000000000000000\n      dup2\n      mstore\n      0x04\n      add\n      tag_427\n      swap1\n      tag_428\n      jump\t// in\n    tag_427:\n      mload(0x40)\n      dup1\n      swap2\n      sub\n      swap1\n      revert\n    tag_426:\n        /* \"@openzeppelin/contracts/security/ReentrancyGuard.sol\":1759:1760  2 */\n      0x02\n        /* \"@openzeppelin/contracts/security/ReentrancyGuard.sol\":2598:2605  _status */\n      0x01\n        /* \"@openzeppelin/contracts/security/ReentrancyGuard.sol\":2598:2616  _status = _ENTERED */\n      dup2\n      swap1\n      sstore\n      pop\n        /* \"@openzeppelin/contracts/security/ReentrancyGuard.sol\":2336:2623  function _nonReentrantBefore() private {... */\n      jump\t// out\n        /* \"@openzeppelin/contracts/security/ReentrancyGuard.sol\":2629:2838  function _nonReentrantAfter() private {... */\n    tag_246:\n        /* \"@openzeppelin/contracts/security/ReentrancyGuard.sol\":1716:1717  1 */\n      0x01\n        /* \"@openzeppelin/contracts/security/ReentrancyGuard.sol\":2809:2816  _status */\n      dup1\n        /* \"@openzeppelin/contracts/security/ReentrancyGuard.sol\":2809:2831  _status = _NOT_ENTERED */\n      dup2\n      swap1\n      sstore\n      pop\n        /* \"@openzeppelin/contracts/security/ReentrancyGuard.sol\":2629:2838  function _nonReentrantAfter() private {... */\n      jump\t// out\n        /* \"@openzeppelin/contracts/access/AccessControl.sol\":6179:6495  function _grantRole(bytes32 role, address account) internal virtual returns (bool) {... */\n    tag_315:\n        /* \"@openzeppelin/contracts/access/AccessControl.sol\":6256:6260  bool */\n      0x00\n        /* \"@openzeppelin/contracts/access/AccessControl.sol\":6277:6299  hasRole(role, account) */\n      tag_431\n        /* \"@openzeppelin/contracts/access/AccessControl.sol\":6285:6289  role */\n      dup4\n        /* \"@openzeppelin/contracts/access/AccessControl.sol\":6291:6298  account */\n      dup4\n        /* \"@openzeppelin/contracts/access/AccessControl.sol\":6277:6284  hasRole */\n      tag_124\n        /* \"@openzeppelin/contracts/access/AccessControl.sol\":6277:6299  hasRole(role, account) */\n      jump\t// in\n    tag_431:\n        /* \"@openzeppelin/contracts/access/AccessControl.sol\":6272:6489  if (!hasRole(role, account)) {... */\n      tag_432\n      jumpi\n        /* \"@openzeppelin/contracts/access/AccessControl.sol\":6347:6351  true */\n      0x01\n        /* \"@openzeppelin/contracts/access/AccessControl.sol\":6315:6321  _roles */\n      0x00\n        /* \"@openzeppelin/contracts/access/AccessControl.sol\":6315:6327  _roles[role] */\n      dup1\n        /* \"@openzeppelin/contracts/access/AccessControl.sol\":6322:6326  role */\n      dup6\n        /* \"@openzeppelin/contracts/access/AccessControl.sol\":6315:6327  _roles[role] */\n      dup2\n      mstore\n      0x20\n      add\n      swap1\n      dup2\n      mstore\n      0x20\n      add\n      0x00\n      keccak256\n        /* \"@openzeppelin/contracts/access/AccessControl.sol\":6315:6335  _roles[role].hasRole */\n      0x00\n      add\n        /* \"@openzeppelin/contracts/access/AccessControl.sol\":6315:6344  _roles[role].hasRole[account] */\n      0x00\n        /* \"@openzeppelin/contracts/access/AccessControl.sol\":6336:6343  account */\n      dup5\n        /* \"@openzeppelin/contracts/access/AccessControl.sol\":6315:6344  _roles[role].hasRole[account] */\n      0xffffffffffffffffffffffffffffffffffffffff\n      and\n      0xffffffffffffffffffffffffffffffffffffffff\n      and\n      dup2\n      mstore\n      0x20\n      add\n      swap1\n      dup2\n      mstore\n      0x20\n      add\n      0x00\n      keccak256\n      0x00\n        /* \"@openzeppelin/contracts/access/AccessControl.sol\":6315:6351  _roles[role].hasRole[account] = true */\n      0x0100\n      exp\n      dup2\n      sload\n      dup2\n      0xff\n      mul\n      not\n      and\n      swap1\n      dup4\n      iszero\n      iszero\n      mul\n      or\n      swap1\n      sstore\n      pop\n        /* \"@openzeppelin/contracts/access/AccessControl.sol\":6397:6409  _msgSender() */\n      tag_433\n        /* \"@openzeppelin/contracts/access/AccessControl.sol\":6397:6407  _msgSender */\n      tag_328\n        /* \"@openzeppelin/contracts/access/AccessControl.sol\":6397:6409  _msgSender() */\n      jump\t// in\n    tag_433:\n        /* \"@openzeppelin/contracts/access/AccessControl.sol\":6370:6410  RoleGranted(role, account, _msgSender()) */\n      0xffffffffffffffffffffffffffffffffffffffff\n      and\n        /* \"@openzeppelin/contracts/access/AccessControl.sol\":6388:6395  account */\n      dup3\n        /* \"@openzeppelin/contracts/access/AccessControl.sol\":6370:6410  RoleGranted(role, account, _msgSender()) */\n      0xffffffffffffffffffffffffffffffffffffffff\n      and\n        /* \"@openzeppelin/contracts/access/AccessControl.sol\":6382:6386  role */\n      dup5\n        /* \"@openzeppelin/contracts/access/AccessControl.sol\":6370:6410  RoleGranted(role, account, _msgSender()) */\n      0x2f8788117e7eff1d82e926ec794901d17c78024a50270940304540a733656f0d\n      mload(0x40)\n      mload(0x40)\n      dup1\n      swap2\n      sub\n      swap1\n      log4\n        /* \"@openzeppelin/contracts/access/AccessControl.sol\":6431:6435  true */\n      0x01\n        /* \"@openzeppelin/contracts/access/AccessControl.sol\":6424:6435  return true */\n      swap1\n      pop\n      jump(tag_430)\n        /* \"@openzeppelin/contracts/access/AccessControl.sol\":6272:6489  if (!hasRole(role, account)) {... */\n    tag_432:\n        /* \"@openzeppelin/contracts/access/AccessControl.sol\":6473:6478  false */\n      0x00\n        /* \"@openzeppelin/contracts/access/AccessControl.sol\":6466:6478  return false */\n      swap1\n      pop\n        /* \"@openzeppelin/contracts/access/AccessControl.sol\":6179:6495  function _grantRole(bytes32 role, address account) internal virtual returns (bool) {... */\n    tag_430:\n      swap3\n      swap2\n      pop\n      pop\n      jump\t// out\n        /* \"@openzeppelin/contracts/access/AccessControl.sol\":3199:3302  function _checkRole(bytes32 role) internal view virtual {... */\n    tag_323:\n        /* \"@openzeppelin/contracts/access/AccessControl.sol\":3265:3295  _checkRole(role, _msgSender()) */\n      tag_436\n        /* \"@openzeppelin/contracts/access/AccessControl.sol\":3276:3280  role */\n      dup2\n        /* \"@openzeppelin/contracts/access/AccessControl.sol\":3282:3294  _msgSender() */\n      tag_437\n        /* \"@openzeppelin/contracts/access/AccessControl.sol\":3282:3292  _msgSender */\n      tag_328\n        /* \"@openzeppelin/contracts/access/AccessControl.sol\":3282:3294  _msgSender() */\n      jump\t// in\n    tag_437:\n        /* \"@openzeppelin/contracts/access/AccessControl.sol\":3265:3275  _checkRole */\n      tag_438\n        /* \"@openzeppelin/contracts/access/AccessControl.sol\":3265:3295  _checkRole(role, _msgSender()) */\n      jump\t// in\n    tag_436:\n        /* \"@openzeppelin/contracts/access/AccessControl.sol\":3199:3302  function _checkRole(bytes32 role) internal view virtual {... */\n      pop\n      jump\t// out\n        /* \"@openzeppelin/contracts/utils/Context.sol\":656:752  function _msgSender() internal view virtual returns (address) {... */\n    tag_328:\n        /* \"@openzeppelin/contracts/utils/Context.sol\":709:716  address */\n      0x00\n        /* \"@openzeppelin/contracts/utils/Context.sol\":735:745  msg.sender */\n      caller\n        /* \"@openzeppelin/contracts/utils/Context.sol\":728:745  return msg.sender */\n      swap1\n      pop\n        /* \"@openzeppelin/contracts/utils/Context.sol\":656:752  function _msgSender() internal view virtual returns (address) {... */\n      swap1\n      jump\t// out\n        /* \"@openzeppelin/contracts/access/AccessControl.sol\":6730:7047  function _revokeRole(bytes32 role, address account) internal virtual returns (bool) {... */\n    tag_331:\n        /* \"@openzeppelin/contracts/access/AccessControl.sol\":6808:6812  bool */\n      0x00\n        /* \"@openzeppelin/contracts/access/AccessControl.sol\":6828:6850  hasRole(role, account) */\n      tag_441\n        /* \"@openzeppelin/contracts/access/AccessControl.sol\":6836:6840  role */\n      dup4\n        /* \"@openzeppelin/contracts/access/AccessControl.sol\":6842:6849  account */\n      dup4\n        /* \"@openzeppelin/contracts/access/AccessControl.sol\":6828:6835  hasRole */\n      tag_124\n        /* \"@openzeppelin/contracts/access/AccessControl.sol\":6828:6850  hasRole(role, account) */\n      jump\t// in\n    tag_441:\n        /* \"@openzeppelin/contracts/access/AccessControl.sol\":6824:7041  if (hasRole(role, account)) {... */\n      iszero\n      tag_442\n      jumpi\n        /* \"@openzeppelin/contracts/access/AccessControl.sol\":6898:6903  false */\n      0x00\n        /* \"@openzeppelin/contracts/access/AccessControl.sol\":6866:6872  _roles */\n      dup1\n        /* \"@openzeppelin/contracts/access/AccessControl.sol\":6866:6878  _roles[role] */\n      0x00\n        /* \"@openzeppelin/contracts/access/AccessControl.sol\":6873:6877  role */\n      dup6\n        /* \"@openzeppelin/contracts/access/AccessControl.sol\":6866:6878  _roles[role] */\n      dup2\n      mstore\n      0x20\n      add\n      swap1\n      dup2\n      mstore\n      0x20\n      add\n      0x00\n      keccak256\n        /* \"@openzeppelin/contracts/access/AccessControl.sol\":6866:6886  _roles[role].hasRole */\n      0x00\n      add\n        /* \"@openzeppelin/contracts/access/AccessControl.sol\":6866:6895  _roles[role].hasRole[account] */\n      0x00\n        /* \"@openzeppelin/contracts/access/AccessControl.sol\":6887:6894  account */\n      dup5\n        /* \"@openzeppelin/contracts/access/AccessControl.sol\":6866:6895  _roles[role].hasRole[account] */\n      0xffffffffffffffffffffffffffffffffffffffff\n      and\n      0xffffffffffffffffffffffffffffffffffffffff\n      and\n      dup2\n      mstore\n      0x20\n      add\n      swap1\n      dup2\n      mstore\n      0x20\n      add\n      0x00\n      keccak256\n      0x00\n        /* \"@openzeppelin/contracts/access/AccessControl.sol\":6866:6903  _roles[role].hasRole[account] = false */\n      0x0100\n      exp\n      dup2\n      sload\n      dup2\n      0xff\n      mul\n      not\n      and\n      swap1\n      dup4\n      iszero\n      iszero\n      mul\n      or\n      swap1\n      sstore\n      pop\n        /* \"@openzeppelin/contracts/access/AccessControl.sol\":6949:6961  _msgSender() */\n      tag_443\n        /* \"@openzeppelin/contracts/access/AccessControl.sol\":6949:6959  _msgSender */\n      tag_328\n        /* \"@openzeppelin/contracts/access/AccessControl.sol\":6949:6961  _msgSender() */\n      jump\t// in\n    tag_443:\n        /* \"@openzeppelin/contracts/access/AccessControl.sol\":6922:6962  RoleRevoked(role, account, _msgSender()) */\n      0xffffffffffffffffffffffffffffffffffffffff\n      and\n        /* \"@openzeppelin/contracts/access/AccessControl.sol\":6940:6947  account */\n      dup3\n        /* \"@openzeppelin/contracts/access/AccessControl.sol\":6922:6962  RoleRevoked(role, account, _msgSender()) */\n      0xffffffffffffffffffffffffffffffffffffffff\n      and\n        /* \"@openzeppelin/contracts/access/AccessControl.sol\":6934:6938  role */\n      dup5\n        /* \"@openzeppelin/contracts/access/AccessControl.sol\":6922:6962  RoleRevoked(role, account, _msgSender()) */\n      0xf6391f5c32d9c69d2a47ea670b442974b53935d1edc7fd64eb21e047a839171b\n      mload(0x40)\n      mload(0x40)\n      dup1\n      swap2\n      sub\n      swap1\n      log4\n        /* \"@openzeppelin/contracts/access/AccessControl.sol\":6983:6987  true */\n      0x01\n        /* \"@openzeppelin/contracts/access/AccessControl.sol\":6976:6987  return true */\n      swap1\n      pop\n      jump(tag_440)\n        /* \"@openzeppelin/contracts/access/AccessControl.sol\":6824:7041  if (hasRole(role, account)) {... */\n    tag_442:\n        /* \"@openzeppelin/contracts/access/AccessControl.sol\":7025:7030  false */\n      0x00\n        /* \"@openzeppelin/contracts/access/AccessControl.sol\":7018:7030  return false */\n      swap1\n      pop\n        /* \"@openzeppelin/contracts/access/AccessControl.sol\":6730:7047  function _revokeRole(bytes32 role, address account) internal virtual returns (bool) {... */\n    tag_440:\n      swap3\n      swap2\n      pop\n      pop\n      jump\t// out\n        /* \"@openzeppelin/contracts/access/AccessControl.sol\":3432:3629  function _checkRole(bytes32 role, address account) internal view virtual {... */\n    tag_438:\n        /* \"@openzeppelin/contracts/access/AccessControl.sol\":3520:3542  hasRole(role, account) */\n      tag_446\n        /* \"@openzeppelin/contracts/access/AccessControl.sol\":3528:3532  role */\n      dup3\n        /* \"@openzeppelin/contracts/access/AccessControl.sol\":3534:3541  account */\n      dup3\n        /* \"@openzeppelin/contracts/access/AccessControl.sol\":3520:3527  hasRole */\n      tag_124\n        /* \"@openzeppelin/contracts/access/AccessControl.sol\":3520:3542  hasRole(role, account) */\n      jump\t// in\n    tag_446:\n        /* \"@openzeppelin/contracts/access/AccessControl.sol\":3515:3623  if (!hasRole(role, account)) {... */\n      tag_447\n      jumpi\n        /* \"@openzeppelin/contracts/access/AccessControl.sol\":3598:3605  account */\n      dup1\n        /* \"@openzeppelin/contracts/access/AccessControl.sol\":3607:3611  role */\n      dup3\n        /* \"@openzeppelin/contracts/access/AccessControl.sol\":3565:3612  AccessControlUnauthorizedAccount(account, role) */\n      mload(0x40)\n      0xe2517d3f00000000000000000000000000000000000000000000000000000000\n      dup2\n      mstore\n      0x04\n      add\n      tag_448\n      swap3\n      swap2\n      swap1\n      tag_449\n      jump\t// in\n    tag_448:\n      mload(0x40)\n      dup1\n      swap2\n      sub\n      swap1\n      revert\n        /* \"@openzeppelin/contracts/access/AccessControl.sol\":3515:3623  if (!hasRole(role, account)) {... */\n    tag_447:\n        /* \"@openzeppelin/contracts/access/AccessControl.sol\":3432:3629  function _checkRole(bytes32 role, address account) internal view virtual {... */\n      pop\n      pop\n      jump\t// out\n        /* \"#utility.yul\":7:82   */\n    tag_450:\n        /* \"#utility.yul\":40:46   */\n      0x00\n        /* \"#utility.yul\":73:75   */\n      0x40\n        /* \"#utility.yul\":67:76   */\n      mload\n        /* \"#utility.yul\":57:76   */\n      swap1\n      pop\n        /* \"#utility.yul\":7:82   */\n      swap1\n      jump\t// out\n        /* \"#utility.yul\":88:205   */\n    tag_451:\n        /* \"#utility.yul\":197:198   */\n      0x00\n        /* \"#utility.yul\":194:195   */\n      dup1\n        /* \"#utility.yul\":187:199   */\n      revert\n        /* \"#utility.yul\":211:328   */\n    tag_452:\n        /* \"#utility.yul\":320:321   */\n      0x00\n        /* \"#utility.yul\":317:318   */\n      dup1\n        /* \"#utility.yul\":310:322   */\n      revert\n        /* \"#utility.yul\":334:411   */\n    tag_453:\n        /* \"#utility.yul\":371:378   */\n      0x00\n        /* \"#utility.yul\":400:405   */\n      dup2\n        /* \"#utility.yul\":389:405   */\n      swap1\n      pop\n        /* \"#utility.yul\":334:411   */\n      swap2\n      swap1\n      pop\n      jump\t// out\n        /* \"#utility.yul\":417:539   */\n    tag_454:\n        /* \"#utility.yul\":490:514   */\n      tag_583\n        /* \"#utility.yul\":508:513   */\n      dup2\n        /* \"#utility.yul\":490:514   */\n      tag_453\n      jump\t// in\n    tag_583:\n        /* \"#utility.yul\":483:488   */\n      dup2\n        /* \"#utility.yul\":480:515   */\n      eq\n        /* \"#utility.yul\":470:533   */\n      tag_584\n      jumpi\n        /* \"#utility.yul\":529:530   */\n      0x00\n        /* \"#utility.yul\":526:527   */\n      dup1\n        /* \"#utility.yul\":519:531   */\n      revert\n        /* \"#utility.yul\":470:533   */\n    tag_584:\n        /* \"#utility.yul\":417:539   */\n      pop\n      jump\t// out\n        /* \"#utility.yul\":545:684   */\n    tag_455:\n        /* \"#utility.yul\":591:596   */\n      0x00\n        /* \"#utility.yul\":629:635   */\n      dup2\n        /* \"#utility.yul\":616:636   */\n      calldataload\n        /* \"#utility.yul\":607:636   */\n      swap1\n      pop\n        /* \"#utility.yul\":645:678   */\n      tag_586\n        /* \"#utility.yul\":672:677   */\n      dup2\n        /* \"#utility.yul\":645:678   */\n      tag_454\n      jump\t// in\n    tag_586:\n        /* \"#utility.yul\":545:684   */\n      swap3\n      swap2\n      pop\n      pop\n      jump\t// out\n        /* \"#utility.yul\":690:1019   */\n    tag_47:\n        /* \"#utility.yul\":749:755   */\n      0x00\n        /* \"#utility.yul\":798:800   */\n      0x20\n        /* \"#utility.yul\":786:795   */\n      dup3\n        /* \"#utility.yul\":777:784   */\n      dup5\n        /* \"#utility.yul\":773:796   */\n      sub\n        /* \"#utility.yul\":769:801   */\n      slt\n        /* \"#utility.yul\":766:885   */\n      iszero\n      tag_588\n      jumpi\n        /* \"#utility.yul\":804:883   */\n      tag_589\n      tag_451\n      jump\t// in\n    tag_589:\n        /* \"#utility.yul\":766:885   */\n    tag_588:\n        /* \"#utility.yul\":924:925   */\n      0x00\n        /* \"#utility.yul\":949:1002   */\n      tag_590\n        /* \"#utility.yul\":994:1001   */\n      dup5\n        /* \"#utility.yul\":985:991   */\n      dup3\n        /* \"#utility.yul\":974:983   */\n      dup6\n        /* \"#utility.yul\":970:992   */\n      add\n        /* \"#utility.yul\":949:1002   */\n      tag_455\n      jump\t// in\n    tag_590:\n        /* \"#utility.yul\":939:1002   */\n      swap2\n      pop\n        /* \"#utility.yul\":895:1012   */\n      pop\n        /* \"#utility.yul\":690:1019   */\n      swap3\n      swap2\n      pop\n      pop\n      jump\t// out\n        /* \"#utility.yul\":1025:1143   */\n    tag_456:\n        /* \"#utility.yul\":1112:1136   */\n      tag_592\n        /* \"#utility.yul\":1130:1135   */\n      dup2\n        /* \"#utility.yul\":1112:1136   */\n      tag_453\n      jump\t// in\n    tag_592:\n        /* \"#utility.yul\":1107:1110   */\n      dup3\n        /* \"#utility.yul\":1100:1137   */\n      mstore\n        /* \"#utility.yul\":1025:1143   */\n      pop\n      pop\n      jump\t// out\n        /* \"#utility.yul\":1149:1275   */\n    tag_457:\n        /* \"#utility.yul\":1186:1193   */\n      0x00\n        /* \"#utility.yul\":1226:1268   */\n      0xffffffffffffffffffffffffffffffffffffffff\n        /* \"#utility.yul\":1219:1224   */\n      dup3\n        /* \"#utility.yul\":1215:1269   */\n      and\n        /* \"#utility.yul\":1204:1269   */\n      swap1\n      pop\n        /* \"#utility.yul\":1149:1275   */\n      swap2\n      swap1\n      pop\n      jump\t// out\n        /* \"#utility.yul\":1281:1377   */\n    tag_458:\n        /* \"#utility.yul\":1318:1325   */\n      0x00\n        /* \"#utility.yul\":1347:1371   */\n      tag_595\n        /* \"#utility.yul\":1365:1370   */\n      dup3\n        /* \"#utility.yul\":1347:1371   */\n      tag_457\n      jump\t// in\n    tag_595:\n        /* \"#utility.yul\":1336:1371   */\n      swap1\n      pop\n        /* \"#utility.yul\":1281:1377   */\n      swap2\n      swap1\n      pop\n      jump\t// out\n        /* \"#utility.yul\":1383:1501   */\n    tag_459:\n        /* \"#utility.yul\":1470:1494   */\n      tag_597\n        /* \"#utility.yul\":1488:1493   */\n      dup2\n        /* \"#utility.yul\":1470:1494   */\n      tag_458\n      jump\t// in\n    tag_597:\n        /* \"#utility.yul\":1465:1468   */\n      dup3\n        /* \"#utility.yul\":1458:1495   */\n      mstore\n        /* \"#utility.yul\":1383:1501   */\n      pop\n      pop\n      jump\t// out\n        /* \"#utility.yul\":1507:1606   */\n    tag_460:\n        /* \"#utility.yul\":1559:1565   */\n      0x00\n        /* \"#utility.yul\":1593:1598   */\n      dup2\n        /* \"#utility.yul\":1587:1599   */\n      mload\n        /* \"#utility.yul\":1577:1599   */\n      swap1\n      pop\n        /* \"#utility.yul\":1507:1606   */\n      swap2\n      swap1\n      pop\n      jump\t// out\n        /* \"#utility.yul\":1612:1781   */\n    tag_461:\n        /* \"#utility.yul\":1696:1707   */\n      0x00\n        /* \"#utility.yul\":1730:1736   */\n      dup3\n        /* \"#utility.yul\":1725:1728   */\n      dup3\n        /* \"#utility.yul\":1718:1737   */\n      mstore\n        /* \"#utility.yul\":1770:1774   */\n      0x20\n        /* \"#utility.yul\":1765:1768   */\n      dup3\n        /* \"#utility.yul\":1761:1775   */\n      add\n        /* \"#utility.yul\":1746:1775   */\n      swap1\n      pop\n        /* \"#utility.yul\":1612:1781   */\n      swap3\n      swap2\n      pop\n      pop\n      jump\t// out\n        /* \"#utility.yul\":1787:1926   */\n    tag_462:\n        /* \"#utility.yul\":1876:1882   */\n      dup3\n        /* \"#utility.yul\":1871:1874   */\n      dup2\n        /* \"#utility.yul\":1866:1869   */\n      dup4\n        /* \"#utility.yul\":1860:1883   */\n      mcopy\n        /* \"#utility.yul\":1917:1918   */\n      0x00\n        /* \"#utility.yul\":1908:1914   */\n      dup4\n        /* \"#utility.yul\":1903:1906   */\n      dup4\n        /* \"#utility.yul\":1899:1915   */\n      add\n        /* \"#utility.yul\":1892:1919   */\n      mstore\n        /* \"#utility.yul\":1787:1926   */\n      pop\n      pop\n      pop\n      jump\t// out\n        /* \"#utility.yul\":1932:2034   */\n    tag_463:\n        /* \"#utility.yul\":1973:1979   */\n      0x00\n        /* \"#utility.yul\":2024:2026   */\n      0x1f\n        /* \"#utility.yul\":2020:2027   */\n      not\n        /* \"#utility.yul\":2015:2017   */\n      0x1f\n        /* \"#utility.yul\":2008:2013   */\n      dup4\n        /* \"#utility.yul\":2004:2018   */\n      add\n        /* \"#utility.yul\":2000:2028   */\n      and\n        /* \"#utility.yul\":1990:2028   */\n      swap1\n      pop\n        /* \"#utility.yul\":1932:2034   */\n      swap2\n      swap1\n      pop\n      jump\t// out\n        /* \"#utility.yul\":2040:2417   */\n    tag_464:\n        /* \"#utility.yul\":2128:2131   */\n      0x00\n        /* \"#utility.yul\":2156:2195   */\n      tag_603\n        /* \"#utility.yul\":2189:2194   */\n      dup3\n        /* \"#utility.yul\":2156:2195   */\n      tag_460\n      jump\t// in\n    tag_603:\n        /* \"#utility.yul\":2211:2282   */\n      tag_604\n        /* \"#utility.yul\":2275:2281   */\n      dup2\n        /* \"#utility.yul\":2270:2273   */\n      dup6\n        /* \"#utility.yul\":2211:2282   */\n      tag_461\n      jump\t// in\n    tag_604:\n        /* \"#utility.yul\":2204:2282   */\n      swap4\n      pop\n        /* \"#utility.yul\":2291:2356   */\n      tag_605\n        /* \"#utility.yul\":2349:2355   */\n      dup2\n        /* \"#utility.yul\":2344:2347   */\n      dup6\n        /* \"#utility.yul\":2337:2341   */\n      0x20\n        /* \"#utility.yul\":2330:2335   */\n      dup7\n        /* \"#utility.yul\":2326:2342   */\n      add\n        /* \"#utility.yul\":2291:2356   */\n      tag_462\n      jump\t// in\n    tag_605:\n        /* \"#utility.yul\":2381:2410   */\n      tag_606\n        /* \"#utility.yul\":2403:2409   */\n      dup2\n        /* \"#utility.yul\":2381:2410   */\n      tag_463\n      jump\t// in\n    tag_606:\n        /* \"#utility.yul\":2376:2379   */\n      dup5\n        /* \"#utility.yul\":2372:2411   */\n      add\n        /* \"#utility.yul\":2365:2411   */\n      swap2\n      pop\n        /* \"#utility.yul\":2132:2417   */\n      pop\n        /* \"#utility.yul\":2040:2417   */\n      swap3\n      swap2\n      pop\n      pop\n      jump\t// out\n        /* \"#utility.yul\":2423:2513   */\n    tag_465:\n        /* \"#utility.yul\":2457:2464   */\n      0x00\n        /* \"#utility.yul\":2500:2505   */\n      dup2\n        /* \"#utility.yul\":2493:2506   */\n      iszero\n        /* \"#utility.yul\":2486:2507   */\n      iszero\n        /* \"#utility.yul\":2475:2507   */\n      swap1\n      pop\n        /* \"#utility.yul\":2423:2513   */\n      swap2\n      swap1\n      pop\n      jump\t// out\n        /* \"#utility.yul\":2519:2628   */\n    tag_466:\n        /* \"#utility.yul\":2600:2621   */\n      tag_609\n        /* \"#utility.yul\":2615:2620   */\n      dup2\n        /* \"#utility.yul\":2600:2621   */\n      tag_465\n      jump\t// in\n    tag_609:\n        /* \"#utility.yul\":2595:2598   */\n      dup3\n        /* \"#utility.yul\":2588:2622   */\n      mstore\n        /* \"#utility.yul\":2519:2628   */\n      pop\n      pop\n      jump\t// out\n        /* \"#utility.yul\":2634:2732   */\n    tag_467:\n        /* \"#utility.yul\":2685:2691   */\n      0x00\n        /* \"#utility.yul\":2719:2724   */\n      dup2\n        /* \"#utility.yul\":2713:2725   */\n      mload\n        /* \"#utility.yul\":2703:2725   */\n      swap1\n      pop\n        /* \"#utility.yul\":2634:2732   */\n      swap2\n      swap1\n      pop\n      jump\t// out\n        /* \"#utility.yul\":2738:2906   */\n    tag_468:\n        /* \"#utility.yul\":2821:2832   */\n      0x00\n        /* \"#utility.yul\":2855:2861   */\n      dup3\n        /* \"#utility.yul\":2850:2853   */\n      dup3\n        /* \"#utility.yul\":2843:2862   */\n      mstore\n        /* \"#utility.yul\":2895:2899   */\n      0x20\n        /* \"#utility.yul\":2890:2893   */\n      dup3\n        /* \"#utility.yul\":2886:2900   */\n      add\n        /* \"#utility.yul\":2871:2900   */\n      swap1\n      pop\n        /* \"#utility.yul\":2738:2906   */\n      swap3\n      swap2\n      pop\n      pop\n      jump\t// out\n        /* \"#utility.yul\":2912:3285   */\n    tag_469:\n        /* \"#utility.yul\":2998:3001   */\n      0x00\n        /* \"#utility.yul\":3026:3064   */\n      tag_613\n        /* \"#utility.yul\":3058:3063   */\n      dup3\n        /* \"#utility.yul\":3026:3064   */\n      tag_467\n      jump\t// in\n    tag_613:\n        /* \"#utility.yul\":3080:3150   */\n      tag_614\n        /* \"#utility.yul\":3143:3149   */\n      dup2\n        /* \"#utility.yul\":3138:3141   */\n      dup6\n        /* \"#utility.yul\":3080:3150   */\n      tag_468\n      jump\t// in\n    tag_614:\n        /* \"#utility.yul\":3073:3150   */\n      swap4\n      pop\n        /* \"#utility.yul\":3159:3224   */\n      tag_615\n        /* \"#utility.yul\":3217:3223   */\n      dup2\n        /* \"#utility.yul\":3212:3215   */\n      dup6\n        /* \"#utility.yul\":3205:3209   */\n      0x20\n        /* \"#utility.yul\":3198:3203   */\n      dup7\n        /* \"#utility.yul\":3194:3210   */\n      add\n        /* \"#utility.yul\":3159:3224   */\n      tag_462\n      jump\t// in\n    tag_615:\n        /* \"#utility.yul\":3249:3278   */\n      tag_616\n        /* \"#utility.yul\":3271:3277   */\n      dup2\n        /* \"#utility.yul\":3249:3278   */\n      tag_463\n      jump\t// in\n    tag_616:\n        /* \"#utility.yul\":3244:3247   */\n      dup5\n        /* \"#utility.yul\":3240:3279   */\n      add\n        /* \"#utility.yul\":3233:3279   */\n      swap2\n      pop\n        /* \"#utility.yul\":3002:3285   */\n      pop\n        /* \"#utility.yul\":2912:3285   */\n      swap3\n      swap2\n      pop\n      pop\n      jump\t// out\n        /* \"#utility.yul\":3291:4890   */\n    tag_50:\n        /* \"#utility.yul\":3720:3724   */\n      0x00\n        /* \"#utility.yul\":3758:3761   */\n      0x0180\n        /* \"#utility.yul\":3747:3756   */\n      dup3\n        /* \"#utility.yul\":3743:3762   */\n      add\n        /* \"#utility.yul\":3735:3762   */\n      swap1\n      pop\n        /* \"#utility.yul\":3772:3843   */\n      tag_618\n        /* \"#utility.yul\":3840:3841   */\n      0x00\n        /* \"#utility.yul\":3829:3838   */\n      dup4\n        /* \"#utility.yul\":3825:3842   */\n      add\n        /* \"#utility.yul\":3816:3822   */\n      dup16\n        /* \"#utility.yul\":3772:3843   */\n      tag_456\n      jump\t// in\n    tag_618:\n        /* \"#utility.yul\":3853:3925   */\n      tag_619\n        /* \"#utility.yul\":3921:3923   */\n      0x20\n        /* \"#utility.yul\":3910:3919   */\n      dup4\n        /* \"#utility.yul\":3906:3924   */\n      add\n        /* \"#utility.yul\":3897:3903   */\n      dup15\n        /* \"#utility.yul\":3853:3925   */\n      tag_459\n      jump\t// in\n    tag_619:\n        /* \"#utility.yul\":3972:3981   */\n      dup2\n        /* \"#utility.yul\":3966:3970   */\n      dup2\n        /* \"#utility.yul\":3962:3982   */\n      sub\n        /* \"#utility.yul\":3957:3959   */\n      0x40\n        /* \"#utility.yul\":3946:3955   */\n      dup4\n        /* \"#utility.yul\":3942:3960   */\n      add\n        /* \"#utility.yul\":3935:3983   */\n      mstore\n        /* \"#utility.yul\":4000:4078   */\n      tag_620\n        /* \"#utility.yul\":4073:4077   */\n      dup2\n        /* \"#utility.yul\":4064:4070   */\n      dup14\n        /* \"#utility.yul\":4000:4078   */\n      tag_464\n      jump\t// in\n    tag_620:\n        /* \"#utility.yul\":3992:4078   */\n      swap1\n      pop\n        /* \"#utility.yul\":4088:4160   */\n      tag_621\n        /* \"#utility.yul\":4156:4158   */\n      0x60\n        /* \"#utility.yul\":4145:4154   */\n      dup4\n        /* \"#utility.yul\":4141:4159   */\n      add\n        /* \"#utility.yul\":4132:4138   */\n      dup13\n        /* \"#utility.yul\":4088:4160   */\n      tag_456\n      jump\t// in\n    tag_621:\n        /* \"#utility.yul\":4170:4243   */\n      tag_622\n        /* \"#utility.yul\":4238:4241   */\n      0x80\n        /* \"#utility.yul\":4227:4236   */\n      dup4\n        /* \"#utility.yul\":4223:4242   */\n      add\n        /* \"#utility.yul\":4214:4220   */\n      dup12\n        /* \"#utility.yul\":4170:4243   */\n      tag_456\n      jump\t// in\n    tag_622:\n        /* \"#utility.yul\":4253:4326   */\n      tag_623\n        /* \"#utility.yul\":4321:4324   */\n      0xa0\n        /* \"#utility.yul\":4310:4319   */\n      dup4\n        /* \"#utility.yul\":4306:4325   */\n      add\n        /* \"#utility.yul\":4297:4303   */\n      dup11\n        /* \"#utility.yul\":4253:4326   */\n      tag_456\n      jump\t// in\n    tag_623:\n        /* \"#utility.yul\":4336:4409   */\n      tag_624\n        /* \"#utility.yul\":4404:4407   */\n      0xc0\n        /* \"#utility.yul\":4393:4402   */\n      dup4\n        /* \"#utility.yul\":4389:4408   */\n      add\n        /* \"#utility.yul\":4380:4386   */\n      dup10\n        /* \"#utility.yul\":4336:4409   */\n      tag_456\n      jump\t// in\n    tag_624:\n        /* \"#utility.yul\":4419:4486   */\n      tag_625\n        /* \"#utility.yul\":4481:4484   */\n      0xe0\n        /* \"#utility.yul\":4470:4479   */\n      dup4\n        /* \"#utility.yul\":4466:4485   */\n      add\n        /* \"#utility.yul\":4457:4463   */\n      dup9\n        /* \"#utility.yul\":4419:4486   */\n      tag_466\n      jump\t// in\n    tag_625:\n        /* \"#utility.yul\":4496:4569   */\n      tag_626\n        /* \"#utility.yul\":4564:4567   */\n      0x0100\n        /* \"#utility.yul\":4553:4562   */\n      dup4\n        /* \"#utility.yul\":4549:4568   */\n      add\n        /* \"#utility.yul\":4540:4546   */\n      dup8\n        /* \"#utility.yul\":4496:4569   */\n      tag_456\n      jump\t// in\n    tag_626:\n        /* \"#utility.yul\":4617:4626   */\n      dup2\n        /* \"#utility.yul\":4611:4615   */\n      dup2\n        /* \"#utility.yul\":4607:4627   */\n      sub\n        /* \"#utility.yul\":4601:4604   */\n      0x0120\n        /* \"#utility.yul\":4590:4599   */\n      dup4\n        /* \"#utility.yul\":4586:4605   */\n      add\n        /* \"#utility.yul\":4579:4628   */\n      mstore\n        /* \"#utility.yul\":4645:4721   */\n      tag_627\n        /* \"#utility.yul\":4716:4720   */\n      dup2\n        /* \"#utility.yul\":4707:4713   */\n      dup7\n        /* \"#utility.yul\":4645:4721   */\n      tag_469\n      jump\t// in\n    tag_627:\n        /* \"#utility.yul\":4637:4721   */\n      swap1\n      pop\n        /* \"#utility.yul\":4731:4805   */\n      tag_628\n        /* \"#utility.yul\":4800:4803   */\n      0x0140\n        /* \"#utility.yul\":4789:4798   */\n      dup4\n        /* \"#utility.yul\":4785:4804   */\n      add\n        /* \"#utility.yul\":4775:4782   */\n      dup6\n        /* \"#utility.yul\":4731:4805   */\n      tag_459\n      jump\t// in\n    tag_628:\n        /* \"#utility.yul\":4815:4883   */\n      tag_629\n        /* \"#utility.yul\":4878:4881   */\n      0x0160\n        /* \"#utility.yul\":4867:4876   */\n      dup4\n        /* \"#utility.yul\":4863:4882   */\n      add\n        /* \"#utility.yul\":4853:4860   */\n      dup5\n        /* \"#utility.yul\":4815:4883   */\n      tag_466\n      jump\t// in\n    tag_629:\n        /* \"#utility.yul\":3291:4890   */\n      swap14\n      swap13\n      pop\n      pop\n      pop\n      pop\n      pop\n      pop\n      pop\n      pop\n      pop\n      pop\n      pop\n      pop\n      pop\n      jump\t// out\n        /* \"#utility.yul\":4896:5045   */\n    tag_470:\n        /* \"#utility.yul\":4932:4939   */\n      0x00\n        /* \"#utility.yul\":4972:5038   */\n      0xffffffff00000000000000000000000000000000000000000000000000000000\n        /* \"#utility.yul\":4965:4970   */\n      dup3\n        /* \"#utility.yul\":4961:5039   */\n      and\n        /* \"#utility.yul\":4950:5039   */\n      swap1\n      pop\n        /* \"#utility.yul\":4896:5045   */\n      swap2\n      swap1\n      pop\n      jump\t// out\n        /* \"#utility.yul\":5051:5171   */\n    tag_471:\n        /* \"#utility.yul\":5123:5146   */\n      tag_632\n        /* \"#utility.yul\":5140:5145   */\n      dup2\n        /* \"#utility.yul\":5123:5146   */\n      tag_470\n      jump\t// in\n    tag_632:\n        /* \"#utility.yul\":5116:5121   */\n      dup2\n        /* \"#utility.yul\":5113:5147   */\n      eq\n        /* \"#utility.yul\":5103:5165   */\n      tag_633\n      jumpi\n        /* \"#utility.yul\":5161:5162   */\n      0x00\n        /* \"#utility.yul\":5158:5159   */\n      dup1\n        /* \"#utility.yul\":5151:5163   */\n      revert\n        /* \"#utility.yul\":5103:5165   */\n    tag_633:\n        /* \"#utility.yul\":5051:5171   */\n      pop\n      jump\t// out\n        /* \"#utility.yul\":5177:5314   */\n    tag_472:\n        /* \"#utility.yul\":5222:5227   */\n      0x00\n        /* \"#utility.yul\":5260:5266   */\n      dup2\n        /* \"#utility.yul\":5247:5267   */\n      calldataload\n        /* \"#utility.yul\":5238:5267   */\n      swap1\n      pop\n        /* \"#utility.yul\":5276:5308   */\n      tag_635\n        /* \"#utility.yul\":5302:5307   */\n      dup2\n        /* \"#utility.yul\":5276:5308   */\n      tag_471\n      jump\t// in\n    tag_635:\n        /* \"#utility.yul\":5177:5314   */\n      swap3\n      swap2\n      pop\n      pop\n      jump\t// out\n        /* \"#utility.yul\":5320:5647   */\n    tag_54:\n        /* \"#utility.yul\":5378:5384   */\n      0x00\n        /* \"#utility.yul\":5427:5429   */\n      0x20\n        /* \"#utility.yul\":5415:5424   */\n      dup3\n        /* \"#utility.yul\":5406:5413   */\n      dup5\n        /* \"#utility.yul\":5402:5425   */\n      sub\n        /* \"#utility.yul\":5398:5430   */\n      slt\n        /* \"#utility.yul\":5395:5514   */\n      iszero\n      tag_637\n      jumpi\n        /* \"#utility.yul\":5433:5512   */\n      tag_638\n      tag_451\n      jump\t// in\n    tag_638:\n        /* \"#utility.yul\":5395:5514   */\n    tag_637:\n        /* \"#utility.yul\":5553:5554   */\n      0x00\n        /* \"#utility.yul\":5578:5630   */\n      tag_639\n        /* \"#utility.yul\":5622:5629   */\n      dup5\n        /* \"#utility.yul\":5613:5619   */\n      dup3\n        /* \"#utility.yul\":5602:5611   */\n      dup6\n        /* \"#utility.yul\":5598:5620   */\n      add\n        /* \"#utility.yul\":5578:5630   */\n      tag_472\n      jump\t// in\n    tag_639:\n        /* \"#utility.yul\":5568:5630   */\n      swap2\n      pop\n        /* \"#utility.yul\":5524:5640   */\n      pop\n        /* \"#utility.yul\":5320:5647   */\n      swap3\n      swap2\n      pop\n      pop\n      jump\t// out\n        /* \"#utility.yul\":5653:5863   */\n    tag_57:\n        /* \"#utility.yul\":5740:5744   */\n      0x00\n        /* \"#utility.yul\":5778:5780   */\n      0x20\n        /* \"#utility.yul\":5767:5776   */\n      dup3\n        /* \"#utility.yul\":5763:5781   */\n      add\n        /* \"#utility.yul\":5755:5781   */\n      swap1\n      pop\n        /* \"#utility.yul\":5791:5856   */\n      tag_641\n        /* \"#utility.yul\":5853:5854   */\n      0x00\n        /* \"#utility.yul\":5842:5851   */\n      dup4\n        /* \"#utility.yul\":5838:5855   */\n      add\n        /* \"#utility.yul\":5829:5835   */\n      dup5\n        /* \"#utility.yul\":5791:5856   */\n      tag_466\n      jump\t// in\n    tag_641:\n        /* \"#utility.yul\":5653:5863   */\n      swap3\n      swap2\n      pop\n      pop\n      jump\t// out\n        /* \"#utility.yul\":5869:6091   */\n    tag_62:\n        /* \"#utility.yul\":5962:5966   */\n      0x00\n        /* \"#utility.yul\":6000:6002   */\n      0x20\n        /* \"#utility.yul\":5989:5998   */\n      dup3\n        /* \"#utility.yul\":5985:6003   */\n      add\n        /* \"#utility.yul\":5977:6003   */\n      swap1\n      pop\n        /* \"#utility.yul\":6013:6084   */\n      tag_643\n        /* \"#utility.yul\":6081:6082   */\n      0x00\n        /* \"#utility.yul\":6070:6079   */\n      dup4\n        /* \"#utility.yul\":6066:6083   */\n      add\n        /* \"#utility.yul\":6057:6063   */\n      dup5\n        /* \"#utility.yul\":6013:6084   */\n      tag_456\n      jump\t// in\n    tag_643:\n        /* \"#utility.yul\":5869:6091   */\n      swap3\n      swap2\n      pop\n      pop\n      jump\t// out\n        /* \"#utility.yul\":6097:6214   */\n    tag_473:\n        /* \"#utility.yul\":6206:6207   */\n      0x00\n        /* \"#utility.yul\":6203:6204   */\n      dup1\n        /* \"#utility.yul\":6196:6208   */\n      revert\n        /* \"#utility.yul\":6220:6337   */\n    tag_474:\n        /* \"#utility.yul\":6329:6330   */\n      0x00\n        /* \"#utility.yul\":6326:6327   */\n      dup1\n        /* \"#utility.yul\":6319:6331   */\n      revert\n        /* \"#utility.yul\":6343:6523   */\n    tag_475:\n        /* \"#utility.yul\":6391:6468   */\n      0x4e487b7100000000000000000000000000000000000000000000000000000000\n        /* \"#utility.yul\":6388:6389   */\n      0x00\n        /* \"#utility.yul\":6381:6469   */\n      mstore\n        /* \"#utility.yul\":6488:6492   */\n      0x41\n        /* \"#utility.yul\":6485:6486   */\n      0x04\n        /* \"#utility.yul\":6478:6493   */\n      mstore\n        /* \"#utility.yul\":6512:6516   */\n      0x24\n        /* \"#utility.yul\":6509:6510   */\n      0x00\n        /* \"#utility.yul\":6502:6517   */\n      revert\n        /* \"#utility.yul\":6529:6810   */\n    tag_476:\n        /* \"#utility.yul\":6612:6639   */\n      tag_648\n        /* \"#utility.yul\":6634:6638   */\n      dup3\n        /* \"#utility.yul\":6612:6639   */\n      tag_463\n      jump\t// in\n    tag_648:\n        /* \"#utility.yul\":6604:6610   */\n      dup2\n        /* \"#utility.yul\":6600:6640   */\n      add\n        /* \"#utility.yul\":6742:6748   */\n      dup2\n        /* \"#utility.yul\":6730:6740   */\n      dup2\n        /* \"#utility.yul\":6727:6749   */\n      lt\n        /* \"#utility.yul\":6706:6724   */\n      0xffffffffffffffff\n        /* \"#utility.yul\":6694:6704   */\n      dup3\n        /* \"#utility.yul\":6691:6725   */\n      gt\n        /* \"#utility.yul\":6688:6750   */\n      or\n        /* \"#utility.yul\":6685:6773   */\n      iszero\n      tag_649\n      jumpi\n        /* \"#utility.yul\":6753:6771   */\n      tag_650\n      tag_475\n      jump\t// in\n    tag_650:\n        /* \"#utility.yul\":6685:6773   */\n    tag_649:\n        /* \"#utility.yul\":6793:6803   */\n      dup1\n        /* \"#utility.yul\":6789:6791   */\n      0x40\n        /* \"#utility.yul\":6782:6804   */\n      mstore\n        /* \"#utility.yul\":6572:6810   */\n      pop\n        /* \"#utility.yul\":6529:6810   */\n      pop\n      pop\n      jump\t// out\n        /* \"#utility.yul\":6816:6945   */\n    tag_477:\n        /* \"#utility.yul\":6850:6856   */\n      0x00\n        /* \"#utility.yul\":6877:6897   */\n      tag_652\n      tag_450\n      jump\t// in\n    tag_652:\n        /* \"#utility.yul\":6867:6897   */\n      swap1\n      pop\n        /* \"#utility.yul\":6906:6939   */\n      tag_653\n        /* \"#utility.yul\":6934:6938   */\n      dup3\n        /* \"#utility.yul\":6926:6932   */\n      dup3\n        /* \"#utility.yul\":6906:6939   */\n      tag_476\n      jump\t// in\n    tag_653:\n        /* \"#utility.yul\":6816:6945   */\n      swap2\n      swap1\n      pop\n      jump\t// out\n        /* \"#utility.yul\":6951:7259   */\n    tag_478:\n        /* \"#utility.yul\":7013:7017   */\n      0x00\n        /* \"#utility.yul\":7103:7121   */\n      0xffffffffffffffff\n        /* \"#utility.yul\":7095:7101   */\n      dup3\n        /* \"#utility.yul\":7092:7122   */\n      gt\n        /* \"#utility.yul\":7089:7145   */\n      iszero\n      tag_655\n      jumpi\n        /* \"#utility.yul\":7125:7143   */\n      tag_656\n      tag_475\n      jump\t// in\n    tag_656:\n        /* \"#utility.yul\":7089:7145   */\n    tag_655:\n        /* \"#utility.yul\":7163:7192   */\n      tag_657\n        /* \"#utility.yul\":7185:7191   */\n      dup3\n        /* \"#utility.yul\":7163:7192   */\n      tag_463\n      jump\t// in\n    tag_657:\n        /* \"#utility.yul\":7155:7192   */\n      swap1\n      pop\n        /* \"#utility.yul\":7247:7251   */\n      0x20\n        /* \"#utility.yul\":7241:7245   */\n      dup2\n        /* \"#utility.yul\":7237:7252   */\n      add\n        /* \"#utility.yul\":7229:7252   */\n      swap1\n      pop\n        /* \"#utility.yul\":6951:7259   */\n      swap2\n      swap1\n      pop\n      jump\t// out\n        /* \"#utility.yul\":7265:7413   */\n    tag_479:\n        /* \"#utility.yul\":7363:7369   */\n      dup3\n        /* \"#utility.yul\":7358:7361   */\n      dup2\n        /* \"#utility.yul\":7353:7356   */\n      dup4\n        /* \"#utility.yul\":7340:7370   */\n      calldatacopy\n        /* \"#utility.yul\":7404:7405   */\n      0x00\n        /* \"#utility.yul\":7395:7401   */\n      dup4\n        /* \"#utility.yul\":7390:7393   */\n      dup4\n        /* \"#utility.yul\":7386:7402   */\n      add\n        /* \"#utility.yul\":7379:7406   */\n      mstore\n        /* \"#utility.yul\":7265:7413   */\n      pop\n      pop\n      pop\n      jump\t// out\n        /* \"#utility.yul\":7419:7844   */\n    tag_480:\n        /* \"#utility.yul\":7497:7502   */\n      0x00\n        /* \"#utility.yul\":7522:7588   */\n      tag_660\n        /* \"#utility.yul\":7538:7587   */\n      tag_661\n        /* \"#utility.yul\":7580:7586   */\n      dup5\n        /* \"#utility.yul\":7538:7587   */\n      tag_478\n      jump\t// in\n    tag_661:\n        /* \"#utility.yul\":7522:7588   */\n      tag_477\n      jump\t// in\n    tag_660:\n        /* \"#utility.yul\":7513:7588   */\n      swap1\n      pop\n        /* \"#utility.yul\":7611:7617   */\n      dup3\n        /* \"#utility.yul\":7604:7609   */\n      dup2\n        /* \"#utility.yul\":7597:7618   */\n      mstore\n        /* \"#utility.yul\":7649:7653   */\n      0x20\n        /* \"#utility.yul\":7642:7647   */\n      dup2\n        /* \"#utility.yul\":7638:7654   */\n      add\n        /* \"#utility.yul\":7687:7690   */\n      dup5\n        /* \"#utility.yul\":7678:7684   */\n      dup5\n        /* \"#utility.yul\":7673:7676   */\n      dup5\n        /* \"#utility.yul\":7669:7685   */\n      add\n        /* \"#utility.yul\":7666:7691   */\n      gt\n        /* \"#utility.yul\":7663:7775   */\n      iszero\n      tag_662\n      jumpi\n        /* \"#utility.yul\":7694:7773   */\n      tag_663\n      tag_474\n      jump\t// in\n    tag_663:\n        /* \"#utility.yul\":7663:7775   */\n    tag_662:\n        /* \"#utility.yul\":7784:7838   */\n      tag_664\n        /* \"#utility.yul\":7831:7837   */\n      dup5\n        /* \"#utility.yul\":7826:7829   */\n      dup3\n        /* \"#utility.yul\":7821:7824   */\n      dup6\n        /* \"#utility.yul\":7784:7838   */\n      tag_479\n      jump\t// in\n    tag_664:\n        /* \"#utility.yul\":7503:7844   */\n      pop\n        /* \"#utility.yul\":7419:7844   */\n      swap4\n      swap3\n      pop\n      pop\n      pop\n      jump\t// out\n        /* \"#utility.yul\":7864:8204   */\n    tag_481:\n        /* \"#utility.yul\":7920:7925   */\n      0x00\n        /* \"#utility.yul\":7969:7972   */\n      dup3\n        /* \"#utility.yul\":7962:7966   */\n      0x1f\n        /* \"#utility.yul\":7954:7960   */\n      dup4\n        /* \"#utility.yul\":7950:7967   */\n      add\n        /* \"#utility.yul\":7946:7973   */\n      slt\n        /* \"#utility.yul\":7936:8058   */\n      tag_666\n      jumpi\n        /* \"#utility.yul\":7977:8056   */\n      tag_667\n      tag_473\n      jump\t// in\n    tag_667:\n        /* \"#utility.yul\":7936:8058   */\n    tag_666:\n        /* \"#utility.yul\":8094:8100   */\n      dup2\n        /* \"#utility.yul\":8081:8101   */\n      calldataload\n        /* \"#utility.yul\":8119:8198   */\n      tag_668\n        /* \"#utility.yul\":8194:8197   */\n      dup5\n        /* \"#utility.yul\":8186:8192   */\n      dup3\n        /* \"#utility.yul\":8179:8183   */\n      0x20\n        /* \"#utility.yul\":8171:8177   */\n      dup7\n        /* \"#utility.yul\":8167:8184   */\n      add\n        /* \"#utility.yul\":8119:8198   */\n      tag_480\n      jump\t// in\n    tag_668:\n        /* \"#utility.yul\":8110:8198   */\n      swap2\n      pop\n        /* \"#utility.yul\":7926:8204   */\n      pop\n        /* \"#utility.yul\":7864:8204   */\n      swap3\n      swap2\n      pop\n      pop\n      jump\t// out\n        /* \"#utility.yul\":8210:8517   */\n    tag_482:\n        /* \"#utility.yul\":8271:8275   */\n      0x00\n        /* \"#utility.yul\":8361:8379   */\n      0xffffffffffffffff\n        /* \"#utility.yul\":8353:8359   */\n      dup3\n        /* \"#utility.yul\":8350:8380   */\n      gt\n        /* \"#utility.yul\":8347:8403   */\n      iszero\n      tag_670\n      jumpi\n        /* \"#utility.yul\":8383:8401   */\n      tag_671\n      tag_475\n      jump\t// in\n    tag_671:\n        /* \"#utility.yul\":8347:8403   */\n    tag_670:\n        /* \"#utility.yul\":8421:8450   */\n      tag_672\n        /* \"#utility.yul\":8443:8449   */\n      dup3\n        /* \"#utility.yul\":8421:8450   */\n      tag_463\n      jump\t// in\n    tag_672:\n        /* \"#utility.yul\":8413:8450   */\n      swap1\n      pop\n        /* \"#utility.yul\":8505:8509   */\n      0x20\n        /* \"#utility.yul\":8499:8503   */\n      dup2\n        /* \"#utility.yul\":8495:8510   */\n      add\n        /* \"#utility.yul\":8487:8510   */\n      swap1\n      pop\n        /* \"#utility.yul\":8210:8517   */\n      swap2\n      swap1\n      pop\n      jump\t// out\n        /* \"#utility.yul\":8523:8946   */\n    tag_483:\n        /* \"#utility.yul\":8600:8605   */\n      0x00\n        /* \"#utility.yul\":8625:8690   */\n      tag_674\n        /* \"#utility.yul\":8641:8689   */\n      tag_675\n        /* \"#utility.yul\":8682:8688   */\n      dup5\n        /* \"#utility.yul\":8641:8689   */\n      tag_482\n      jump\t// in\n    tag_675:\n        /* \"#utility.yul\":8625:8690   */\n      tag_477\n      jump\t// in\n    tag_674:\n        /* \"#utility.yul\":8616:8690   */\n      swap1\n      pop\n        /* \"#utility.yul\":8713:8719   */\n      dup3\n        /* \"#utility.yul\":8706:8711   */\n      dup2\n        /* \"#utility.yul\":8699:8720   */\n      mstore\n        /* \"#utility.yul\":8751:8755   */\n      0x20\n        /* \"#utility.yul\":8744:8749   */\n      dup2\n        /* \"#utility.yul\":8740:8756   */\n      add\n        /* \"#utility.yul\":8789:8792   */\n      dup5\n        /* \"#utility.yul\":8780:8786   */\n      dup5\n        /* \"#utility.yul\":8775:8778   */\n      dup5\n        /* \"#utility.yul\":8771:8787   */\n      add\n        /* \"#utility.yul\":8768:8793   */\n      gt\n        /* \"#utility.yul\":8765:8877   */\n      iszero\n      tag_676\n      jumpi\n        /* \"#utility.yul\":8796:8875   */\n      tag_677\n      tag_474\n      jump\t// in\n    tag_677:\n        /* \"#utility.yul\":8765:8877   */\n    tag_676:\n        /* \"#utility.yul\":8886:8940   */\n      tag_678\n        /* \"#utility.yul\":8933:8939   */\n      dup5\n        /* \"#utility.yul\":8928:8931   */\n      dup3\n        /* \"#utility.yul\":8923:8926   */\n      dup6\n        /* \"#utility.yul\":8886:8940   */\n      tag_479\n      jump\t// in\n    tag_678:\n        /* \"#utility.yul\":8606:8946   */\n      pop\n        /* \"#utility.yul\":8523:8946   */\n      swap4\n      swap3\n      pop\n      pop\n      pop\n      jump\t// out\n        /* \"#utility.yul\":8965:9303   */\n    tag_484:\n        /* \"#utility.yul\":9020:9025   */\n      0x00\n        /* \"#utility.yul\":9069:9072   */\n      dup3\n        /* \"#utility.yul\":9062:9066   */\n      0x1f\n        /* \"#utility.yul\":9054:9060   */\n      dup4\n        /* \"#utility.yul\":9050:9067   */\n      add\n        /* \"#utility.yul\":9046:9073   */\n      slt\n        /* \"#utility.yul\":9036:9158   */\n      tag_680\n      jumpi\n        /* \"#utility.yul\":9077:9156   */\n      tag_681\n      tag_473\n      jump\t// in\n    tag_681:\n        /* \"#utility.yul\":9036:9158   */\n    tag_680:\n        /* \"#utility.yul\":9194:9200   */\n      dup2\n        /* \"#utility.yul\":9181:9201   */\n      calldataload\n        /* \"#utility.yul\":9219:9297   */\n      tag_682\n        /* \"#utility.yul\":9293:9296   */\n      dup5\n        /* \"#utility.yul\":9285:9291   */\n      dup3\n        /* \"#utility.yul\":9278:9282   */\n      0x20\n        /* \"#utility.yul\":9270:9276   */\n      dup7\n        /* \"#utility.yul\":9266:9283   */\n      add\n        /* \"#utility.yul\":9219:9297   */\n      tag_483\n      jump\t// in\n    tag_682:\n        /* \"#utility.yul\":9210:9297   */\n      swap2\n      pop\n        /* \"#utility.yul\":9026:9303   */\n      pop\n        /* \"#utility.yul\":8965:9303   */\n      swap3\n      swap2\n      pop\n      pop\n      jump\t// out\n        /* \"#utility.yul\":9309:9431   */\n    tag_485:\n        /* \"#utility.yul\":9382:9406   */\n      tag_684\n        /* \"#utility.yul\":9400:9405   */\n      dup2\n        /* \"#utility.yul\":9382:9406   */\n      tag_458\n      jump\t// in\n    tag_684:\n        /* \"#utility.yul\":9375:9380   */\n      dup2\n        /* \"#utility.yul\":9372:9407   */\n      eq\n        /* \"#utility.yul\":9362:9425   */\n      tag_685\n      jumpi\n        /* \"#utility.yul\":9421:9422   */\n      0x00\n        /* \"#utility.yul\":9418:9419   */\n      dup1\n        /* \"#utility.yul\":9411:9423   */\n      revert\n        /* \"#utility.yul\":9362:9425   */\n    tag_685:\n        /* \"#utility.yul\":9309:9431   */\n      pop\n      jump\t// out\n        /* \"#utility.yul\":9437:9576   */\n    tag_486:\n        /* \"#utility.yul\":9483:9488   */\n      0x00\n        /* \"#utility.yul\":9521:9527   */\n      dup2\n        /* \"#utility.yul\":9508:9528   */\n      calldataload\n        /* \"#utility.yul\":9499:9528   */\n      swap1\n      pop\n        /* \"#utility.yul\":9537:9570   */\n      tag_687\n        /* \"#utility.yul\":9564:9569   */\n      dup2\n        /* \"#utility.yul\":9537:9570   */\n      tag_485\n      jump\t// in\n    tag_687:\n        /* \"#utility.yul\":9437:9576   */\n      swap3\n      swap2\n      pop\n      pop\n      jump\t// out\n        /* \"#utility.yul\":9582:10559   */\n    tag_70:\n        /* \"#utility.yul\":9678:9684   */\n      0x00\n        /* \"#utility.yul\":9686:9692   */\n      dup1\n        /* \"#utility.yul\":9694:9700   */\n      0x00\n        /* \"#utility.yul\":9743:9745   */\n      0x60\n        /* \"#utility.yul\":9731:9740   */\n      dup5\n        /* \"#utility.yul\":9722:9729   */\n      dup7\n        /* \"#utility.yul\":9718:9741   */\n      sub\n        /* \"#utility.yul\":9714:9746   */\n      slt\n        /* \"#utility.yul\":9711:9830   */\n      iszero\n      tag_689\n      jumpi\n        /* \"#utility.yul\":9749:9828   */\n      tag_690\n      tag_451\n      jump\t// in\n    tag_690:\n        /* \"#utility.yul\":9711:9830   */\n    tag_689:\n        /* \"#utility.yul\":9897:9898   */\n      0x00\n        /* \"#utility.yul\":9886:9895   */\n      dup5\n        /* \"#utility.yul\":9882:9899   */\n      add\n        /* \"#utility.yul\":9869:9900   */\n      calldataload\n        /* \"#utility.yul\":9927:9945   */\n      0xffffffffffffffff\n        /* \"#utility.yul\":9919:9925   */\n      dup2\n        /* \"#utility.yul\":9916:9946   */\n      gt\n        /* \"#utility.yul\":9913:10030   */\n      iszero\n      tag_691\n      jumpi\n        /* \"#utility.yul\":9949:10028   */\n      tag_692\n      tag_452\n      jump\t// in\n    tag_692:\n        /* \"#utility.yul\":9913:10030   */\n    tag_691:\n        /* \"#utility.yul\":10054:10117   */\n      tag_693\n        /* \"#utility.yul\":10109:10116   */\n      dup7\n        /* \"#utility.yul\":10100:10106   */\n      dup3\n        /* \"#utility.yul\":10089:10098   */\n      dup8\n        /* \"#utility.yul\":10085:10107   */\n      add\n        /* \"#utility.yul\":10054:10117   */\n      tag_481\n      jump\t// in\n    tag_693:\n        /* \"#utility.yul\":10044:10117   */\n      swap4\n      pop\n        /* \"#utility.yul\":9840:10127   */\n      pop\n        /* \"#utility.yul\":10194:10196   */\n      0x20\n        /* \"#utility.yul\":10183:10192   */\n      dup5\n        /* \"#utility.yul\":10179:10197   */\n      add\n        /* \"#utility.yul\":10166:10198   */\n      calldataload\n        /* \"#utility.yul\":10225:10243   */\n      0xffffffffffffffff\n        /* \"#utility.yul\":10217:10223   */\n      dup2\n        /* \"#utility.yul\":10214:10244   */\n      gt\n        /* \"#utility.yul\":10211:10328   */\n      iszero\n      tag_694\n      jumpi\n        /* \"#utility.yul\":10247:10326   */\n      tag_695\n      tag_452\n      jump\t// in\n    tag_695:\n        /* \"#utility.yul\":10211:10328   */\n    tag_694:\n        /* \"#utility.yul\":10352:10414   */\n      tag_696\n        /* \"#utility.yul\":10406:10413   */\n      dup7\n        /* \"#utility.yul\":10397:10403   */\n      dup3\n        /* \"#utility.yul\":10386:10395   */\n      dup8\n        /* \"#utility.yul\":10382:10404   */\n      add\n        /* \"#utility.yul\":10352:10414   */\n      tag_484\n      jump\t// in\n    tag_696:\n        /* \"#utility.yul\":10342:10414   */\n      swap3\n      pop\n        /* \"#utility.yul\":10137:10424   */\n      pop\n        /* \"#utility.yul\":10463:10465   */\n      0x40\n        /* \"#utility.yul\":10489:10542   */\n      tag_697\n        /* \"#utility.yul\":10534:10541   */\n      dup7\n        /* \"#utility.yul\":10525:10531   */\n      dup3\n        /* \"#utility.yul\":10514:10523   */\n      dup8\n        /* \"#utility.yul\":10510:10532   */\n      add\n        /* \"#utility.yul\":10489:10542   */\n      tag_486\n      jump\t// in\n    tag_697:\n        /* \"#utility.yul\":10479:10542   */\n      swap2\n      pop\n        /* \"#utility.yul\":10434:10552   */\n      pop\n        /* \"#utility.yul\":9582:10559   */\n      swap3\n      pop\n      swap3\n      pop\n      swap3\n      jump\t// out\n        /* \"#utility.yul\":10565:10681   */\n    tag_487:\n        /* \"#utility.yul\":10635:10656   */\n      tag_699\n        /* \"#utility.yul\":10650:10655   */\n      dup2\n        /* \"#utility.yul\":10635:10656   */\n      tag_465\n      jump\t// in\n    tag_699:\n        /* \"#utility.yul\":10628:10633   */\n      dup2\n        /* \"#utility.yul\":10625:10657   */\n      eq\n        /* \"#utility.yul\":10615:10675   */\n      tag_700\n      jumpi\n        /* \"#utility.yul\":10671:10672   */\n      0x00\n        /* \"#utility.yul\":10668:10669   */\n      dup1\n        /* \"#utility.yul\":10661:10673   */\n      revert\n        /* \"#utility.yul\":10615:10675   */\n    tag_700:\n        /* \"#utility.yul\":10565:10681   */\n      pop\n      jump\t// out\n        /* \"#utility.yul\":10687:10820   */\n    tag_488:\n        /* \"#utility.yul\":10730:10735   */\n      0x00\n        /* \"#utility.yul\":10768:10774   */\n      dup2\n        /* \"#utility.yul\":10755:10775   */\n      calldataload\n        /* \"#utility.yul\":10746:10775   */\n      swap1\n      pop\n        /* \"#utility.yul\":10784:10814   */\n      tag_702\n        /* \"#utility.yul\":10808:10813   */\n      dup2\n        /* \"#utility.yul\":10784:10814   */\n      tag_487\n      jump\t// in\n    tag_702:\n        /* \"#utility.yul\":10687:10820   */\n      swap3\n      swap2\n      pop\n      pop\n      jump\t// out\n        /* \"#utility.yul\":10826:11294   */\n    tag_76:\n        /* \"#utility.yul\":10891:10897   */\n      0x00\n        /* \"#utility.yul\":10899:10905   */\n      dup1\n        /* \"#utility.yul\":10948:10950   */\n      0x40\n        /* \"#utility.yul\":10936:10945   */\n      dup4\n        /* \"#utility.yul\":10927:10934   */\n      dup6\n        /* \"#utility.yul\":10923:10946   */\n      sub\n        /* \"#utility.yul\":10919:10951   */\n      slt\n        /* \"#utility.yul\":10916:11035   */\n      iszero\n      tag_704\n      jumpi\n        /* \"#utility.yul\":10954:11033   */\n      tag_705\n      tag_451\n      jump\t// in\n    tag_705:\n        /* \"#utility.yul\":10916:11035   */\n    tag_704:\n        /* \"#utility.yul\":11074:11075   */\n      0x00\n        /* \"#utility.yul\":11099:11152   */\n      tag_706\n        /* \"#utility.yul\":11144:11151   */\n      dup6\n        /* \"#utility.yul\":11135:11141   */\n      dup3\n        /* \"#utility.yul\":11124:11133   */\n      dup7\n        /* \"#utility.yul\":11120:11142   */\n      add\n        /* \"#utility.yul\":11099:11152   */\n      tag_455\n      jump\t// in\n    tag_706:\n        /* \"#utility.yul\":11089:11152   */\n      swap3\n      pop\n        /* \"#utility.yul\":11045:11162   */\n      pop\n        /* \"#utility.yul\":11201:11203   */\n      0x20\n        /* \"#utility.yul\":11227:11277   */\n      tag_707\n        /* \"#utility.yul\":11269:11276   */\n      dup6\n        /* \"#utility.yul\":11260:11266   */\n      dup3\n        /* \"#utility.yul\":11249:11258   */\n      dup7\n        /* \"#utility.yul\":11245:11267   */\n      add\n        /* \"#utility.yul\":11227:11277   */\n      tag_488\n      jump\t// in\n    tag_707:\n        /* \"#utility.yul\":11217:11277   */\n      swap2\n      pop\n        /* \"#utility.yul\":11172:11287   */\n      pop\n        /* \"#utility.yul\":10826:11294   */\n      swap3\n      pop\n      swap3\n      swap1\n      pop\n      jump\t// out\n        /* \"#utility.yul\":11300:11377   */\n    tag_489:\n        /* \"#utility.yul\":11337:11344   */\n      0x00\n        /* \"#utility.yul\":11366:11371   */\n      dup2\n        /* \"#utility.yul\":11355:11371   */\n      swap1\n      pop\n        /* \"#utility.yul\":11300:11377   */\n      swap2\n      swap1\n      pop\n      jump\t// out\n        /* \"#utility.yul\":11383:11505   */\n    tag_490:\n        /* \"#utility.yul\":11456:11480   */\n      tag_710\n        /* \"#utility.yul\":11474:11479   */\n      dup2\n        /* \"#utility.yul\":11456:11480   */\n      tag_489\n      jump\t// in\n    tag_710:\n        /* \"#utility.yul\":11449:11454   */\n      dup2\n        /* \"#utility.yul\":11446:11481   */\n      eq\n        /* \"#utility.yul\":11436:11499   */\n      tag_711\n      jumpi\n        /* \"#utility.yul\":11495:11496   */\n      0x00\n        /* \"#utility.yul\":11492:11493   */\n      dup1\n        /* \"#utility.yul\":11485:11497   */\n      revert\n        /* \"#utility.yul\":11436:11499   */\n    tag_711:\n        /* \"#utility.yul\":11383:11505   */\n      pop\n      jump\t// out\n        /* \"#utility.yul\":11511:11650   */\n    tag_491:\n        /* \"#utility.yul\":11557:11562   */\n      0x00\n        /* \"#utility.yul\":11595:11601   */\n      dup2\n        /* \"#utility.yul\":11582:11602   */\n      calldataload\n        /* \"#utility.yul\":11573:11602   */\n      swap1\n      pop\n        /* \"#utility.yul\":11611:11644   */\n      tag_713\n        /* \"#utility.yul\":11638:11643   */\n      dup2\n        /* \"#utility.yul\":11611:11644   */\n      tag_490\n      jump\t// in\n    tag_713:\n        /* \"#utility.yul\":11511:11650   */\n      swap3\n      swap2\n      pop\n      pop\n      jump\t// out\n        /* \"#utility.yul\":11656:11985   */\n    tag_81:\n        /* \"#utility.yul\":11715:11721   */\n      0x00\n        /* \"#utility.yul\":11764:11766   */\n      0x20\n        /* \"#utility.yul\":11752:11761   */\n      dup3\n        /* \"#utility.yul\":11743:11750   */\n      dup5\n        /* \"#utility.yul\":11739:11762   */\n      sub\n        /* \"#utility.yul\":11735:11767   */\n      slt\n        /* \"#utility.yul\":11732:11851   */\n      iszero\n      tag_715\n      jumpi\n        /* \"#utility.yul\":11770:11849   */\n      tag_716\n      tag_451\n      jump\t// in\n    tag_716:\n        /* \"#utility.yul\":11732:11851   */\n    tag_715:\n        /* \"#utility.yul\":11890:11891   */\n      0x00\n        /* \"#utility.yul\":11915:11968   */\n      tag_717\n        /* \"#utility.yul\":11960:11967   */\n      dup5\n        /* \"#utility.yul\":11951:11957   */\n      dup3\n        /* \"#utility.yul\":11940:11949   */\n      dup6\n        /* \"#utility.yul\":11936:11958   */\n      add\n        /* \"#utility.yul\":11915:11968   */\n      tag_491\n      jump\t// in\n    tag_717:\n        /* \"#utility.yul\":11905:11968   */\n      swap2\n      pop\n        /* \"#utility.yul\":11861:11978   */\n      pop\n        /* \"#utility.yul\":11656:11985   */\n      swap3\n      swap2\n      pop\n      pop\n      jump\t// out\n        /* \"#utility.yul\":11991:12109   */\n    tag_492:\n        /* \"#utility.yul\":12078:12102   */\n      tag_719\n        /* \"#utility.yul\":12096:12101   */\n      dup2\n        /* \"#utility.yul\":12078:12102   */\n      tag_489\n      jump\t// in\n    tag_719:\n        /* \"#utility.yul\":12073:12076   */\n      dup3\n        /* \"#utility.yul\":12066:12103   */\n      mstore\n        /* \"#utility.yul\":11991:12109   */\n      pop\n      pop\n      jump\t// out\n        /* \"#utility.yul\":12115:12337   */\n    tag_84:\n        /* \"#utility.yul\":12208:12212   */\n      0x00\n        /* \"#utility.yul\":12246:12248   */\n      0x20\n        /* \"#utility.yul\":12235:12244   */\n      dup3\n        /* \"#utility.yul\":12231:12249   */\n      add\n        /* \"#utility.yul\":12223:12249   */\n      swap1\n      pop\n        /* \"#utility.yul\":12259:12330   */\n      tag_721\n        /* \"#utility.yul\":12327:12328   */\n      0x00\n        /* \"#utility.yul\":12316:12325   */\n      dup4\n        /* \"#utility.yul\":12312:12329   */\n      add\n        /* \"#utility.yul\":12303:12309   */\n      dup5\n        /* \"#utility.yul\":12259:12330   */\n      tag_492\n      jump\t// in\n    tag_721:\n        /* \"#utility.yul\":12115:12337   */\n      swap3\n      swap2\n      pop\n      pop\n      jump\t// out\n        /* \"#utility.yul\":12343:12817   */\n    tag_88:\n        /* \"#utility.yul\":12411:12417   */\n      0x00\n        /* \"#utility.yul\":12419:12425   */\n      dup1\n        /* \"#utility.yul\":12468:12470   */\n      0x40\n        /* \"#utility.yul\":12456:12465   */\n      dup4\n        /* \"#utility.yul\":12447:12454   */\n      dup6\n        /* \"#utility.yul\":12443:12466   */\n      sub\n        /* \"#utility.yul\":12439:12471   */\n      slt\n        /* \"#utility.yul\":12436:12555   */\n      iszero\n      tag_723\n      jumpi\n        /* \"#utility.yul\":12474:12553   */\n      tag_724\n      tag_451\n      jump\t// in\n    tag_724:\n        /* \"#utility.yul\":12436:12555   */\n    tag_723:\n        /* \"#utility.yul\":12594:12595   */\n      0x00\n        /* \"#utility.yul\":12619:12672   */\n      tag_725\n        /* \"#utility.yul\":12664:12671   */\n      dup6\n        /* \"#utility.yul\":12655:12661   */\n      dup3\n        /* \"#utility.yul\":12644:12653   */\n      dup7\n        /* \"#utility.yul\":12640:12662   */\n      add\n        /* \"#utility.yul\":12619:12672   */\n      tag_491\n      jump\t// in\n    tag_725:\n        /* \"#utility.yul\":12609:12672   */\n      swap3\n      pop\n        /* \"#utility.yul\":12565:12682   */\n      pop\n        /* \"#utility.yul\":12721:12723   */\n      0x20\n        /* \"#utility.yul\":12747:12800   */\n      tag_726\n        /* \"#utility.yul\":12792:12799   */\n      dup6\n        /* \"#utility.yul\":12783:12789   */\n      dup3\n        /* \"#utility.yul\":12772:12781   */\n      dup7\n        /* \"#utility.yul\":12768:12790   */\n      add\n        /* \"#utility.yul\":12747:12800   */\n      tag_486\n      jump\t// in\n    tag_726:\n        /* \"#utility.yul\":12737:12800   */\n      swap2\n      pop\n        /* \"#utility.yul\":12692:12810   */\n      pop\n        /* \"#utility.yul\":12343:12817   */\n      swap3\n      pop\n      swap3\n      swap1\n      pop\n      jump\t// out\n        /* \"#utility.yul\":12823:13152   */\n    tag_93:\n        /* \"#utility.yul\":12882:12888   */\n      0x00\n        /* \"#utility.yul\":12931:12933   */\n      0x20\n        /* \"#utility.yul\":12919:12928   */\n      dup3\n        /* \"#utility.yul\":12910:12917   */\n      dup5\n        /* \"#utility.yul\":12906:12929   */\n      sub\n        /* \"#utility.yul\":12902:12934   */\n      slt\n        /* \"#utility.yul\":12899:13018   */\n      iszero\n      tag_728\n      jumpi\n        /* \"#utility.yul\":12937:13016   */\n      tag_729\n      tag_451\n      jump\t// in\n    tag_729:\n        /* \"#utility.yul\":12899:13018   */\n    tag_728:\n        /* \"#utility.yul\":13057:13058   */\n      0x00\n        /* \"#utility.yul\":13082:13135   */\n      tag_730\n        /* \"#utility.yul\":13127:13134   */\n      dup5\n        /* \"#utility.yul\":13118:13124   */\n      dup3\n        /* \"#utility.yul\":13107:13116   */\n      dup6\n        /* \"#utility.yul\":13103:13125   */\n      add\n        /* \"#utility.yul\":13082:13135   */\n      tag_486\n      jump\t// in\n    tag_730:\n        /* \"#utility.yul\":13072:13135   */\n      swap2\n      pop\n        /* \"#utility.yul\":13028:13145   */\n      pop\n        /* \"#utility.yul\":12823:13152   */\n      swap3\n      swap2\n      pop\n      pop\n      jump\t// out\n        /* \"#utility.yul\":13158:13218   */\n    tag_493:\n        /* \"#utility.yul\":13186:13189   */\n      0x00\n        /* \"#utility.yul\":13207:13212   */\n      dup2\n        /* \"#utility.yul\":13200:13212   */\n      swap1\n      pop\n        /* \"#utility.yul\":13158:13218   */\n      swap2\n      swap1\n      pop\n      jump\t// out\n        /* \"#utility.yul\":13224:13366   */\n    tag_494:\n        /* \"#utility.yul\":13274:13283   */\n      0x00\n        /* \"#utility.yul\":13307:13360   */\n      tag_733\n        /* \"#utility.yul\":13325:13359   */\n      tag_734\n        /* \"#utility.yul\":13334:13358   */\n      tag_735\n        /* \"#utility.yul\":13352:13357   */\n      dup5\n        /* \"#utility.yul\":13334:13358   */\n      tag_457\n      jump\t// in\n    tag_735:\n        /* \"#utility.yul\":13325:13359   */\n      tag_493\n      jump\t// in\n    tag_734:\n        /* \"#utility.yul\":13307:13360   */\n      tag_457\n      jump\t// in\n    tag_733:\n        /* \"#utility.yul\":13294:13360   */\n      swap1\n      pop\n        /* \"#utility.yul\":13224:13366   */\n      swap2\n      swap1\n      pop\n      jump\t// out\n        /* \"#utility.yul\":13372:13498   */\n    tag_495:\n        /* \"#utility.yul\":13422:13431   */\n      0x00\n        /* \"#utility.yul\":13455:13492   */\n      tag_737\n        /* \"#utility.yul\":13486:13491   */\n      dup3\n        /* \"#utility.yul\":13455:13492   */\n      tag_494\n      jump\t// in\n    tag_737:\n        /* \"#utility.yul\":13442:13492   */\n      swap1\n      pop\n        /* \"#utility.yul\":13372:13498   */\n      swap2\n      swap1\n      pop\n      jump\t// out\n        /* \"#utility.yul\":13504:13652   */\n    tag_496:\n        /* \"#utility.yul\":13576:13585   */\n      0x00\n        /* \"#utility.yul\":13609:13646   */\n      tag_739\n        /* \"#utility.yul\":13640:13645   */\n      dup3\n        /* \"#utility.yul\":13609:13646   */\n      tag_495\n      jump\t// in\n    tag_739:\n        /* \"#utility.yul\":13596:13646   */\n      swap1\n      pop\n        /* \"#utility.yul\":13504:13652   */\n      swap2\n      swap1\n      pop\n      jump\t// out\n        /* \"#utility.yul\":13658:13833   */\n    tag_497:\n        /* \"#utility.yul\":13767:13826   */\n      tag_741\n        /* \"#utility.yul\":13820:13825   */\n      dup2\n        /* \"#utility.yul\":13767:13826   */\n      tag_496\n      jump\t// in\n    tag_741:\n        /* \"#utility.yul\":13762:13765   */\n      dup3\n        /* \"#utility.yul\":13755:13827   */\n      mstore\n        /* \"#utility.yul\":13658:13833   */\n      pop\n      pop\n      jump\t// out\n        /* \"#utility.yul\":13839:14105   */\n    tag_149:\n        /* \"#utility.yul\":13954:13958   */\n      0x00\n        /* \"#utility.yul\":13992:13994   */\n      0x20\n        /* \"#utility.yul\":13981:13990   */\n      dup3\n        /* \"#utility.yul\":13977:13995   */\n      add\n        /* \"#utility.yul\":13969:13995   */\n      swap1\n      pop\n        /* \"#utility.yul\":14005:14098   */\n      tag_743\n        /* \"#utility.yul\":14095:14096   */\n      0x00\n        /* \"#utility.yul\":14084:14093   */\n      dup4\n        /* \"#utility.yul\":14080:14097   */\n      add\n        /* \"#utility.yul\":14071:14077   */\n      dup5\n        /* \"#utility.yul\":14005:14098   */\n      tag_497\n      jump\t// in\n    tag_743:\n        /* \"#utility.yul\":13839:14105   */\n      swap3\n      swap2\n      pop\n      pop\n      jump\t// out\n        /* \"#utility.yul\":14111:14291   */\n    tag_498:\n        /* \"#utility.yul\":14159:14236   */\n      0x4e487b7100000000000000000000000000000000000000000000000000000000\n        /* \"#utility.yul\":14156:14157   */\n      0x00\n        /* \"#utility.yul\":14149:14237   */\n      mstore\n        /* \"#utility.yul\":14256:14260   */\n      0x22\n        /* \"#utility.yul\":14253:14254   */\n      0x04\n        /* \"#utility.yul\":14246:14261   */\n      mstore\n        /* \"#utility.yul\":14280:14284   */\n      0x24\n        /* \"#utility.yul\":14277:14278   */\n      0x00\n        /* \"#utility.yul\":14270:14285   */\n      revert\n        /* \"#utility.yul\":14297:14617   */\n    tag_183:\n        /* \"#utility.yul\":14341:14347   */\n      0x00\n        /* \"#utility.yul\":14378:14379   */\n      0x02\n        /* \"#utility.yul\":14372:14376   */\n      dup3\n        /* \"#utility.yul\":14368:14380   */\n      div\n        /* \"#utility.yul\":14358:14380   */\n      swap1\n      pop\n        /* \"#utility.yul\":14425:14426   */\n      0x01\n        /* \"#utility.yul\":14419:14423   */\n      dup3\n        /* \"#utility.yul\":14415:14427   */\n      and\n        /* \"#utility.yul\":14446:14464   */\n      dup1\n        /* \"#utility.yul\":14436:14517   */\n      tag_746\n      jumpi\n        /* \"#utility.yul\":14502:14506   */\n      0x7f\n        /* \"#utility.yul\":14494:14500   */\n      dup3\n        /* \"#utility.yul\":14490:14507   */\n      and\n        /* \"#utility.yul\":14480:14507   */\n      swap2\n      pop\n        /* \"#utility.yul\":14436:14517   */\n    tag_746:\n        /* \"#utility.yul\":14564:14566   */\n      0x20\n        /* \"#utility.yul\":14556:14562   */\n      dup3\n        /* \"#utility.yul\":14553:14567   */\n      lt\n        /* \"#utility.yul\":14533:14551   */\n      dup2\n        /* \"#utility.yul\":14530:14568   */\n      sub\n        /* \"#utility.yul\":14527:14611   */\n      tag_747\n      jumpi\n        /* \"#utility.yul\":14583:14601   */\n      tag_748\n      tag_498\n      jump\t// in\n    tag_748:\n        /* \"#utility.yul\":14527:14611   */\n    tag_747:\n        /* \"#utility.yul\":14348:14617   */\n      pop\n        /* \"#utility.yul\":14297:14617   */\n      swap2\n      swap1\n      pop\n      jump\t// out\n        /* \"#utility.yul\":14623:14846   */\n    tag_499:\n        /* \"#utility.yul\":14763:14797   */\n      0x47616d655377617044414f3a20766f74696e6720706572696f64206e6f742065\n        /* \"#utility.yul\":14759:14760   */\n      0x00\n        /* \"#utility.yul\":14751:14757   */\n      dup3\n        /* \"#utility.yul\":14747:14761   */\n      add\n        /* \"#utility.yul\":14740:14798   */\n      mstore\n        /* \"#utility.yul\":14832:14838   */\n      0x6e64656400000000000000000000000000000000000000000000000000000000\n        /* \"#utility.yul\":14827:14829   */\n      0x20\n        /* \"#utility.yul\":14819:14825   */\n      dup3\n        /* \"#utility.yul\":14815:14830   */\n      add\n        /* \"#utility.yul\":14808:14839   */\n      mstore\n        /* \"#utility.yul\":14623:14846   */\n      pop\n      jump\t// out\n        /* \"#utility.yul\":14852:15218   */\n    tag_500:\n        /* \"#utility.yul\":14994:14997   */\n      0x00\n        /* \"#utility.yul\":15015:15082   */\n      tag_751\n        /* \"#utility.yul\":15079:15081   */\n      0x24\n        /* \"#utility.yul\":15074:15077   */\n      dup4\n        /* \"#utility.yul\":15015:15082   */\n      tag_461\n      jump\t// in\n    tag_751:\n        /* \"#utility.yul\":15008:15082   */\n      swap2\n      pop\n        /* \"#utility.yul\":15091:15184   */\n      tag_752\n        /* \"#utility.yul\":15180:15183   */\n      dup3\n        /* \"#utility.yul\":15091:15184   */\n      tag_499\n      jump\t// in\n    tag_752:\n        /* \"#utility.yul\":15209:15211   */\n      0x40\n        /* \"#utility.yul\":15204:15207   */\n      dup3\n        /* \"#utility.yul\":15200:15212   */\n      add\n        /* \"#utility.yul\":15193:15212   */\n      swap1\n      pop\n        /* \"#utility.yul\":14852:15218   */\n      swap2\n      swap1\n      pop\n      jump\t// out\n        /* \"#utility.yul\":15224:15643   */\n    tag_203:\n        /* \"#utility.yul\":15390:15394   */\n      0x00\n        /* \"#utility.yul\":15428:15430   */\n      0x20\n        /* \"#utility.yul\":15417:15426   */\n      dup3\n        /* \"#utility.yul\":15413:15431   */\n      add\n        /* \"#utility.yul\":15405:15431   */\n      swap1\n      pop\n        /* \"#utility.yul\":15477:15486   */\n      dup2\n        /* \"#utility.yul\":15471:15475   */\n      dup2\n        /* \"#utility.yul\":15467:15487   */\n      sub\n        /* \"#utility.yul\":15463:15464   */\n      0x00\n        /* \"#utility.yul\":15452:15461   */\n      dup4\n        /* \"#utility.yul\":15448:15465   */\n      add\n        /* \"#utility.yul\":15441:15488   */\n      mstore\n        /* \"#utility.yul\":15505:15636   */\n      tag_754\n        /* \"#utility.yul\":15631:15635   */\n      dup2\n        /* \"#utility.yul\":15505:15636   */\n      tag_500\n      jump\t// in\n    tag_754:\n        /* \"#utility.yul\":15497:15636   */\n      swap1\n      pop\n        /* \"#utility.yul\":15224:15643   */\n      swap2\n      swap1\n      pop\n      jump\t// out\n        /* \"#utility.yul\":15649:15828   */\n    tag_501:\n        /* \"#utility.yul\":15789:15820   */\n      0x47616d655377617044414f3a20616c7265616479206578656375746564000000\n        /* \"#utility.yul\":15785:15786   */\n      0x00\n        /* \"#utility.yul\":15777:15783   */\n      dup3\n        /* \"#utility.yul\":15773:15787   */\n      add\n        /* \"#utility.yul\":15766:15821   */\n      mstore\n        /* \"#utility.yul\":15649:15828   */\n      pop\n      jump\t// out\n        /* \"#utility.yul\":15834:16200   */\n    tag_502:\n        /* \"#utility.yul\":15976:15979   */\n      0x00\n        /* \"#utility.yul\":15997:16064   */\n      tag_757\n        /* \"#utility.yul\":16061:16063   */\n      0x1d\n        /* \"#utility.yul\":16056:16059   */\n      dup4\n        /* \"#utility.yul\":15997:16064   */\n      tag_461\n      jump\t// in\n    tag_757:\n        /* \"#utility.yul\":15990:16064   */\n      swap2\n      pop\n        /* \"#utility.yul\":16073:16166   */\n      tag_758\n        /* \"#utility.yul\":16162:16165   */\n      dup3\n        /* \"#utility.yul\":16073:16166   */\n      tag_501\n      jump\t// in\n    tag_758:\n        /* \"#utility.yul\":16191:16193   */\n      0x20\n        /* \"#utility.yul\":16186:16189   */\n      dup3\n        /* \"#utility.yul\":16182:16194   */\n      add\n        /* \"#utility.yul\":16175:16194   */\n      swap1\n      pop\n        /* \"#utility.yul\":15834:16200   */\n      swap2\n      swap1\n      pop\n      jump\t// out\n        /* \"#utility.yul\":16206:16625   */\n    tag_206:\n        /* \"#utility.yul\":16372:16376   */\n      0x00\n        /* \"#utility.yul\":16410:16412   */\n      0x20\n        /* \"#utility.yul\":16399:16408   */\n      dup3\n        /* \"#utility.yul\":16395:16413   */\n      add\n        /* \"#utility.yul\":16387:16413   */\n      swap1\n      pop\n        /* \"#utility.yul\":16459:16468   */\n      dup2\n        /* \"#utility.yul\":16453:16457   */\n      dup2\n        /* \"#utility.yul\":16449:16469   */\n      sub\n        /* \"#utility.yul\":16445:16446   */\n      0x00\n        /* \"#utility.yul\":16434:16443   */\n      dup4\n        /* \"#utility.yul\":16430:16447   */\n      add\n        /* \"#utility.yul\":16423:16470   */\n      mstore\n        /* \"#utility.yul\":16487:16618   */\n      tag_760\n        /* \"#utility.yul\":16613:16617   */\n      dup2\n        /* \"#utility.yul\":16487:16618   */\n      tag_502\n      jump\t// in\n    tag_760:\n        /* \"#utility.yul\":16479:16618   */\n      swap1\n      pop\n        /* \"#utility.yul\":16206:16625   */\n      swap2\n      swap1\n      pop\n      jump\t// out\n        /* \"#utility.yul\":16631:16811   */\n    tag_503:\n        /* \"#utility.yul\":16771:16803   */\n      0x47616d655377617044414f3a2070726f706f73616c2063616e63656c65640000\n        /* \"#utility.yul\":16767:16768   */\n      0x00\n        /* \"#utility.yul\":16759:16765   */\n      dup3\n        /* \"#utility.yul\":16755:16769   */\n      add\n        /* \"#utility.yul\":16748:16804   */\n      mstore\n        /* \"#utility.yul\":16631:16811   */\n      pop\n      jump\t// out\n        /* \"#utility.yul\":16817:17183   */\n    tag_504:\n        /* \"#utility.yul\":16959:16962   */\n      0x00\n        /* \"#utility.yul\":16980:17047   */\n      tag_763\n        /* \"#utility.yul\":17044:17046   */\n      0x1e\n        /* \"#utility.yul\":17039:17042   */\n      dup4\n        /* \"#utility.yul\":16980:17047   */\n      tag_461\n      jump\t// in\n    tag_763:\n        /* \"#utility.yul\":16973:17047   */\n      swap2\n      pop\n        /* \"#utility.yul\":17056:17149   */\n      tag_764\n        /* \"#utility.yul\":17145:17148   */\n      dup3\n        /* \"#utility.yul\":17056:17149   */\n      tag_503\n      jump\t// in\n    tag_764:\n        /* \"#utility.yul\":17174:17176   */\n      0x20\n        /* \"#utility.yul\":17169:17172   */\n      dup3\n        /* \"#utility.yul\":17165:17177   */\n      add\n        /* \"#utility.yul\":17158:17177   */\n      swap1\n      pop\n        /* \"#utility.yul\":16817:17183   */\n      swap2\n      swap1\n      pop\n      jump\t// out\n        /* \"#utility.yul\":17189:17608   */\n    tag_209:\n        /* \"#utility.yul\":17355:17359   */\n      0x00\n        /* \"#utility.yul\":17393:17395   */\n      0x20\n        /* \"#utility.yul\":17382:17391   */\n      dup3\n        /* \"#utility.yul\":17378:17396   */\n      add\n        /* \"#utility.yul\":17370:17396   */\n      swap1\n      pop\n        /* \"#utility.yul\":17442:17451   */\n      dup2\n        /* \"#utility.yul\":17436:17440   */\n      dup2\n        /* \"#utility.yul\":17432:17452   */\n      sub\n        /* \"#utility.yul\":17428:17429   */\n      0x00\n        /* \"#utility.yul\":17417:17426   */\n      dup4\n        /* \"#utility.yul\":17413:17430   */\n      add\n        /* \"#utility.yul\":17406:17453   */\n      mstore\n        /* \"#utility.yul\":17470:17601   */\n      tag_766\n        /* \"#utility.yul\":17596:17600   */\n      dup2\n        /* \"#utility.yul\":17470:17601   */\n      tag_504\n      jump\t// in\n    tag_766:\n        /* \"#utility.yul\":17462:17601   */\n      swap1\n      pop\n        /* \"#utility.yul\":17189:17608   */\n      swap2\n      swap1\n      pop\n      jump\t// out\n        /* \"#utility.yul\":17614:17836   */\n    tag_211:\n        /* \"#utility.yul\":17707:17711   */\n      0x00\n        /* \"#utility.yul\":17745:17747   */\n      0x20\n        /* \"#utility.yul\":17734:17743   */\n      dup3\n        /* \"#utility.yul\":17730:17748   */\n      add\n        /* \"#utility.yul\":17722:17748   */\n      swap1\n      pop\n        /* \"#utility.yul\":17758:17829   */\n      tag_768\n        /* \"#utility.yul\":17826:17827   */\n      0x00\n        /* \"#utility.yul\":17815:17824   */\n      dup4\n        /* \"#utility.yul\":17811:17828   */\n      add\n        /* \"#utility.yul\":17802:17808   */\n      dup5\n        /* \"#utility.yul\":17758:17829   */\n      tag_459\n      jump\t// in\n    tag_768:\n        /* \"#utility.yul\":17614:17836   */\n      swap3\n      swap2\n      pop\n      pop\n      jump\t// out\n        /* \"#utility.yul\":17842:17985   */\n    tag_505:\n        /* \"#utility.yul\":17899:17904   */\n      0x00\n        /* \"#utility.yul\":17930:17936   */\n      dup2\n        /* \"#utility.yul\":17924:17937   */\n      mload\n        /* \"#utility.yul\":17915:17937   */\n      swap1\n      pop\n        /* \"#utility.yul\":17946:17979   */\n      tag_770\n        /* \"#utility.yul\":17973:17978   */\n      dup2\n        /* \"#utility.yul\":17946:17979   */\n      tag_454\n      jump\t// in\n    tag_770:\n        /* \"#utility.yul\":17842:17985   */\n      swap3\n      swap2\n      pop\n      pop\n      jump\t// out\n        /* \"#utility.yul\":17991:18342   */\n    tag_215:\n        /* \"#utility.yul\":18061:18067   */\n      0x00\n        /* \"#utility.yul\":18110:18112   */\n      0x20\n        /* \"#utility.yul\":18098:18107   */\n      dup3\n        /* \"#utility.yul\":18089:18096   */\n      dup5\n        /* \"#utility.yul\":18085:18108   */\n      sub\n        /* \"#utility.yul\":18081:18113   */\n      slt\n        /* \"#utility.yul\":18078:18197   */\n      iszero\n      tag_772\n      jumpi\n        /* \"#utility.yul\":18116:18195   */\n      tag_773\n      tag_451\n      jump\t// in\n    tag_773:\n        /* \"#utility.yul\":18078:18197   */\n    tag_772:\n        /* \"#utility.yul\":18236:18237   */\n      0x00\n        /* \"#utility.yul\":18261:18325   */\n      tag_774\n        /* \"#utility.yul\":18317:18324   */\n      dup5\n        /* \"#utility.yul\":18308:18314   */\n      dup3\n        /* \"#utility.yul\":18297:18306   */\n      dup6\n        /* \"#utility.yul\":18293:18315   */\n      add\n        /* \"#utility.yul\":18261:18325   */\n      tag_505\n      jump\t// in\n    tag_774:\n        /* \"#utility.yul\":18251:18325   */\n      swap2\n      pop\n        /* \"#utility.yul\":18207:18335   */\n      pop\n        /* \"#utility.yul\":17991:18342   */\n      swap3\n      swap2\n      pop\n      pop\n      jump\t// out\n        /* \"#utility.yul\":18348:18527   */\n    tag_506:\n        /* \"#utility.yul\":18488:18519   */\n      0x47616d655377617044414f3a206e6f20746f6b656e73207374616b6564000000\n        /* \"#utility.yul\":18484:18485   */\n      0x00\n        /* \"#utility.yul\":18476:18482   */\n      dup3\n        /* \"#utility.yul\":18472:18486   */\n      add\n        /* \"#utility.yul\":18465:18520   */\n      mstore\n        /* \"#utility.yul\":18348:18527   */\n      pop\n      jump\t// out\n        /* \"#utility.yul\":18533:18899   */\n    tag_507:\n        /* \"#utility.yul\":18675:18678   */\n      0x00\n        /* \"#utility.yul\":18696:18763   */\n      tag_777\n        /* \"#utility.yul\":18760:18762   */\n      0x1d\n        /* \"#utility.yul\":18755:18758   */\n      dup4\n        /* \"#utility.yul\":18696:18763   */\n      tag_461\n      jump\t// in\n    tag_777:\n        /* \"#utility.yul\":18689:18763   */\n      swap2\n      pop\n        /* \"#utility.yul\":18772:18865   */\n      tag_778\n        /* \"#utility.yul\":18861:18864   */\n      dup3\n        /* \"#utility.yul\":18772:18865   */\n      tag_506\n      jump\t// in\n    tag_778:\n        /* \"#utility.yul\":18890:18892   */\n      0x20\n        /* \"#utility.yul\":18885:18888   */\n      dup3\n        /* \"#utility.yul\":18881:18893   */\n      add\n        /* \"#utility.yul\":18874:18893   */\n      swap1\n      pop\n        /* \"#utility.yul\":18533:18899   */\n      swap2\n      swap1\n      pop\n      jump\t// out\n        /* \"#utility.yul\":18905:19324   */\n    tag_218:\n        /* \"#utility.yul\":19071:19075   */\n      0x00\n        /* \"#utility.yul\":19109:19111   */\n      0x20\n        /* \"#utility.yul\":19098:19107   */\n      dup3\n        /* \"#utility.yul\":19094:19112   */\n      add\n        /* \"#utility.yul\":19086:19112   */\n      swap1\n      pop\n        /* \"#utility.yul\":19158:19167   */\n      dup2\n        /* \"#utility.yul\":19152:19156   */\n      dup2\n        /* \"#utility.yul\":19148:19168   */\n      sub\n        /* \"#utility.yul\":19144:19145   */\n      0x00\n        /* \"#utility.yul\":19133:19142   */\n      dup4\n        /* \"#utility.yul\":19129:19146   */\n      add\n        /* \"#utility.yul\":19122:19169   */\n      mstore\n        /* \"#utility.yul\":19186:19317   */\n      tag_780\n        /* \"#utility.yul\":19312:19316   */\n      dup2\n        /* \"#utility.yul\":19186:19317   */\n      tag_507\n      jump\t// in\n    tag_780:\n        /* \"#utility.yul\":19178:19317   */\n      swap1\n      pop\n        /* \"#utility.yul\":18905:19324   */\n      swap2\n      swap1\n      pop\n      jump\t// out\n        /* \"#utility.yul\":19330:19510   */\n    tag_508:\n        /* \"#utility.yul\":19378:19455   */\n      0x4e487b7100000000000000000000000000000000000000000000000000000000\n        /* \"#utility.yul\":19375:19376   */\n      0x00\n        /* \"#utility.yul\":19368:19456   */\n      mstore\n        /* \"#utility.yul\":19475:19479   */\n      0x11\n        /* \"#utility.yul\":19472:19473   */\n      0x04\n        /* \"#utility.yul\":19465:19480   */\n      mstore\n        /* \"#utility.yul\":19499:19503   */\n      0x24\n        /* \"#utility.yul\":19496:19497   */\n      0x00\n        /* \"#utility.yul\":19489:19504   */\n      revert\n        /* \"#utility.yul\":19516:19707   */\n    tag_220:\n        /* \"#utility.yul\":19556:19559   */\n      0x00\n        /* \"#utility.yul\":19575:19595   */\n      tag_783\n        /* \"#utility.yul\":19593:19594   */\n      dup3\n        /* \"#utility.yul\":19575:19595   */\n      tag_453\n      jump\t// in\n    tag_783:\n        /* \"#utility.yul\":19570:19595   */\n      swap2\n      pop\n        /* \"#utility.yul\":19609:19629   */\n      tag_784\n        /* \"#utility.yul\":19627:19628   */\n      dup4\n        /* \"#utility.yul\":19609:19629   */\n      tag_453\n      jump\t// in\n    tag_784:\n        /* \"#utility.yul\":19604:19629   */\n      swap3\n      pop\n        /* \"#utility.yul\":19652:19653   */\n      dup3\n        /* \"#utility.yul\":19649:19650   */\n      dup3\n        /* \"#utility.yul\":19645:19654   */\n      add\n        /* \"#utility.yul\":19638:19654   */\n      swap1\n      pop\n        /* \"#utility.yul\":19673:19676   */\n      dup1\n        /* \"#utility.yul\":19670:19671   */\n      dup3\n        /* \"#utility.yul\":19667:19677   */\n      gt\n        /* \"#utility.yul\":19664:19700   */\n      iszero\n      tag_785\n      jumpi\n        /* \"#utility.yul\":19680:19698   */\n      tag_786\n      tag_508\n      jump\t// in\n    tag_786:\n        /* \"#utility.yul\":19664:19700   */\n    tag_785:\n        /* \"#utility.yul\":19516:19707   */\n      swap3\n      swap2\n      pop\n      pop\n      jump\t// out\n        /* \"#utility.yul\":19713:20123   */\n    tag_222:\n        /* \"#utility.yul\":19753:19760   */\n      0x00\n        /* \"#utility.yul\":19776:19796   */\n      tag_788\n        /* \"#utility.yul\":19794:19795   */\n      dup3\n        /* \"#utility.yul\":19776:19796   */\n      tag_453\n      jump\t// in\n    tag_788:\n        /* \"#utility.yul\":19771:19796   */\n      swap2\n      pop\n        /* \"#utility.yul\":19810:19830   */\n      tag_789\n        /* \"#utility.yul\":19828:19829   */\n      dup4\n        /* \"#utility.yul\":19810:19830   */\n      tag_453\n      jump\t// in\n    tag_789:\n        /* \"#utility.yul\":19805:19830   */\n      swap3\n      pop\n        /* \"#utility.yul\":19865:19866   */\n      dup3\n        /* \"#utility.yul\":19862:19863   */\n      dup3\n        /* \"#utility.yul\":19858:19867   */\n      mul\n        /* \"#utility.yul\":19887:19917   */\n      tag_790\n        /* \"#utility.yul\":19905:19916   */\n      dup2\n        /* \"#utility.yul\":19887:19917   */\n      tag_453\n      jump\t// in\n    tag_790:\n        /* \"#utility.yul\":19876:19917   */\n      swap2\n      pop\n        /* \"#utility.yul\":20066:20067   */\n      dup3\n        /* \"#utility.yul\":20057:20064   */\n      dup3\n        /* \"#utility.yul\":20053:20068   */\n      div\n        /* \"#utility.yul\":20050:20051   */\n      dup5\n        /* \"#utility.yul\":20047:20069   */\n      eq\n        /* \"#utility.yul\":20027:20028   */\n      dup4\n        /* \"#utility.yul\":20020:20029   */\n      iszero\n        /* \"#utility.yul\":20000:20083   */\n      or\n        /* \"#utility.yul\":19977:20116   */\n      tag_791\n      jumpi\n        /* \"#utility.yul\":20096:20114   */\n      tag_792\n      tag_508\n      jump\t// in\n    tag_792:\n        /* \"#utility.yul\":19977:20116   */\n    tag_791:\n        /* \"#utility.yul\":19761:20123   */\n      pop\n        /* \"#utility.yul\":19713:20123   */\n      swap3\n      swap2\n      pop\n      pop\n      jump\t// out\n        /* \"#utility.yul\":20129:20309   */\n    tag_509:\n        /* \"#utility.yul\":20177:20254   */\n      0x4e487b7100000000000000000000000000000000000000000000000000000000\n        /* \"#utility.yul\":20174:20175   */\n      0x00\n        /* \"#utility.yul\":20167:20255   */\n      mstore\n        /* \"#utility.yul\":20274:20278   */\n      0x12\n        /* \"#utility.yul\":20271:20272   */\n      0x04\n        /* \"#utility.yul\":20264:20279   */\n      mstore\n        /* \"#utility.yul\":20298:20302   */\n      0x24\n        /* \"#utility.yul\":20295:20296   */\n      0x00\n        /* \"#utility.yul\":20288:20303   */\n      revert\n        /* \"#utility.yul\":20315:20500   */\n    tag_224:\n        /* \"#utility.yul\":20355:20356   */\n      0x00\n        /* \"#utility.yul\":20372:20392   */\n      tag_795\n        /* \"#utility.yul\":20390:20391   */\n      dup3\n        /* \"#utility.yul\":20372:20392   */\n      tag_453\n      jump\t// in\n    tag_795:\n        /* \"#utility.yul\":20367:20392   */\n      swap2\n      pop\n        /* \"#utility.yul\":20406:20426   */\n      tag_796\n        /* \"#utility.yul\":20424:20425   */\n      dup4\n        /* \"#utility.yul\":20406:20426   */\n      tag_453\n      jump\t// in\n    tag_796:\n        /* \"#utility.yul\":20401:20426   */\n      swap3\n      pop\n        /* \"#utility.yul\":20445:20446   */\n      dup3\n        /* \"#utility.yul\":20435:20470   */\n      tag_797\n      jumpi\n        /* \"#utility.yul\":20450:20468   */\n      tag_798\n      tag_509\n      jump\t// in\n    tag_798:\n        /* \"#utility.yul\":20435:20470   */\n    tag_797:\n        /* \"#utility.yul\":20492:20493   */\n      dup3\n        /* \"#utility.yul\":20489:20490   */\n      dup3\n        /* \"#utility.yul\":20485:20494   */\n      div\n        /* \"#utility.yul\":20480:20494   */\n      swap1\n      pop\n        /* \"#utility.yul\":20315:20500   */\n      swap3\n      swap2\n      pop\n      pop\n      jump\t// out\n        /* \"#utility.yul\":20506:20687   */\n    tag_510:\n        /* \"#utility.yul\":20646:20679   */\n      0x47616d655377617044414f3a2071756f72756d206e6f74207265616368656400\n        /* \"#utility.yul\":20642:20643   */\n      0x00\n        /* \"#utility.yul\":20634:20640   */\n      dup3\n        /* \"#utility.yul\":20630:20644   */\n      add\n        /* \"#utility.yul\":20623:20680   */\n      mstore\n        /* \"#utility.yul\":20506:20687   */\n      pop\n      jump\t// out\n        /* \"#utility.yul\":20693:21059   */\n    tag_511:\n        /* \"#utility.yul\":20835:20838   */\n      0x00\n        /* \"#utility.yul\":20856:20923   */\n      tag_801\n        /* \"#utility.yul\":20920:20922   */\n      0x1f\n        /* \"#utility.yul\":20915:20918   */\n      dup4\n        /* \"#utility.yul\":20856:20923   */\n      tag_461\n      jump\t// in\n    tag_801:\n        /* \"#utility.yul\":20849:20923   */\n      swap2\n      pop\n        /* \"#utility.yul\":20932:21025   */\n      tag_802\n        /* \"#utility.yul\":21021:21024   */\n      dup3\n        /* \"#utility.yul\":20932:21025   */\n      tag_510\n      jump\t// in\n    tag_802:\n        /* \"#utility.yul\":21050:21052   */\n      0x20\n        /* \"#utility.yul\":21045:21048   */\n      dup3\n        /* \"#utility.yul\":21041:21053   */\n      add\n        /* \"#utility.yul\":21034:21053   */\n      swap1\n      pop\n        /* \"#utility.yul\":20693:21059   */\n      swap2\n      swap1\n      pop\n      jump\t// out\n        /* \"#utility.yul\":21065:21484   */\n    tag_227:\n        /* \"#utility.yul\":21231:21235   */\n      0x00\n        /* \"#utility.yul\":21269:21271   */\n      0x20\n        /* \"#utility.yul\":21258:21267   */\n      dup3\n        /* \"#utility.yul\":21254:21272   */\n      add\n        /* \"#utility.yul\":21246:21272   */\n      swap1\n      pop\n        /* \"#utility.yul\":21318:21327   */\n      dup2\n        /* \"#utility.yul\":21312:21316   */\n      dup2\n        /* \"#utility.yul\":21308:21328   */\n      sub\n        /* \"#utility.yul\":21304:21305   */\n      0x00\n        /* \"#utility.yul\":21293:21302   */\n      dup4\n        /* \"#utility.yul\":21289:21306   */\n      add\n        /* \"#utility.yul\":21282:21329   */\n      mstore\n        /* \"#utility.yul\":21346:21477   */\n      tag_804\n        /* \"#utility.yul\":21472:21476   */\n      dup2\n        /* \"#utility.yul\":21346:21477   */\n      tag_511\n      jump\t// in\n    tag_804:\n        /* \"#utility.yul\":21338:21477   */\n      swap1\n      pop\n        /* \"#utility.yul\":21065:21484   */\n      swap2\n      swap1\n      pop\n      jump\t// out\n        /* \"#utility.yul\":21490:21670   */\n    tag_512:\n        /* \"#utility.yul\":21630:21662   */\n      0x47616d655377617044414f3a2070726f706f73616c2072656a65637465640000\n        /* \"#utility.yul\":21626:21627   */\n      0x00\n        /* \"#utility.yul\":21618:21624   */\n      dup3\n        /* \"#utility.yul\":21614:21628   */\n      add\n        /* \"#utility.yul\":21607:21663   */\n      mstore\n        /* \"#utility.yul\":21490:21670   */\n      pop\n      jump\t// out\n        /* \"#utility.yul\":21676:22042   */\n    tag_513:\n        /* \"#utility.yul\":21818:21821   */\n      0x00\n        /* \"#utility.yul\":21839:21906   */\n      tag_807\n        /* \"#utility.yul\":21903:21905   */\n      0x1e\n        /* \"#utility.yul\":21898:21901   */\n      dup4\n        /* \"#utility.yul\":21839:21906   */\n      tag_461\n      jump\t// in\n    tag_807:\n        /* \"#utility.yul\":21832:21906   */\n      swap2\n      pop\n        /* \"#utility.yul\":21915:22008   */\n      tag_808\n        /* \"#utility.yul\":22004:22007   */\n      dup3\n        /* \"#utility.yul\":21915:22008   */\n      tag_512\n      jump\t// in\n    tag_808:\n        /* \"#utility.yul\":22033:22035   */\n      0x20\n        /* \"#utility.yul\":22028:22031   */\n      dup3\n        /* \"#utility.yul\":22024:22036   */\n      add\n        /* \"#utility.yul\":22017:22036   */\n      swap1\n      pop\n        /* \"#utility.yul\":21676:22042   */\n      swap2\n      swap1\n      pop\n      jump\t// out\n        /* \"#utility.yul\":22048:22467   */\n    tag_230:\n        /* \"#utility.yul\":22214:22218   */\n      0x00\n        /* \"#utility.yul\":22252:22254   */\n      0x20\n        /* \"#utility.yul\":22241:22250   */\n      dup3\n        /* \"#utility.yul\":22237:22255   */\n      add\n        /* \"#utility.yul\":22229:22255   */\n      swap1\n      pop\n        /* \"#utility.yul\":22301:22310   */\n      dup2\n        /* \"#utility.yul\":22295:22299   */\n      dup2\n        /* \"#utility.yul\":22291:22311   */\n      sub\n        /* \"#utility.yul\":22287:22288   */\n      0x00\n        /* \"#utility.yul\":22276:22285   */\n      dup4\n        /* \"#utility.yul\":22272:22289   */\n      add\n        /* \"#utility.yul\":22265:22312   */\n      mstore\n        /* \"#utility.yul\":22329:22460   */\n      tag_810\n        /* \"#utility.yul\":22455:22459   */\n      dup2\n        /* \"#utility.yul\":22329:22460   */\n      tag_513\n      jump\t// in\n    tag_810:\n        /* \"#utility.yul\":22321:22460   */\n      swap1\n      pop\n        /* \"#utility.yul\":22048:22467   */\n      swap2\n      swap1\n      pop\n      jump\t// out\n        /* \"#utility.yul\":22473:22695   */\n    tag_514:\n        /* \"#utility.yul\":22613:22647   */\n      0x47616d655377617044414f3a2074696d656c6f636b206e6f7420736174697366\n        /* \"#utility.yul\":22609:22610   */\n      0x00\n        /* \"#utility.yul\":22601:22607   */\n      dup3\n        /* \"#utility.yul\":22597:22611   */\n      add\n        /* \"#utility.yul\":22590:22648   */\n      mstore\n        /* \"#utility.yul\":22682:22687   */\n      0x6965640000000000000000000000000000000000000000000000000000000000\n        /* \"#utility.yul\":22677:22679   */\n      0x20\n        /* \"#utility.yul\":22669:22675   */\n      dup3\n        /* \"#utility.yul\":22665:22680   */\n      add\n        /* \"#utility.yul\":22658:22688   */\n      mstore\n        /* \"#utility.yul\":22473:22695   */\n      pop\n      jump\t// out\n        /* \"#utility.yul\":22701:23067   */\n    tag_515:\n        /* \"#utility.yul\":22843:22846   */\n      0x00\n        /* \"#utility.yul\":22864:22931   */\n      tag_813\n        /* \"#utility.yul\":22928:22930   */\n      0x23\n        /* \"#utility.yul\":22923:22926   */\n      dup4\n        /* \"#utility.yul\":22864:22931   */\n      tag_461\n      jump\t// in\n    tag_813:\n        /* \"#utility.yul\":22857:22931   */\n      swap2\n      pop\n        /* \"#utility.yul\":22940:23033   */\n      tag_814\n        /* \"#utility.yul\":23029:23032   */\n      dup3\n        /* \"#utility.yul\":22940:23033   */\n      tag_514\n      jump\t// in\n    tag_814:\n        /* \"#utility.yul\":23058:23060   */\n      0x40\n        /* \"#utility.yul\":23053:23056   */\n      dup3\n        /* \"#utility.yul\":23049:23061   */\n      add\n        /* \"#utility.yul\":23042:23061   */\n      swap1\n      pop\n        /* \"#utility.yul\":22701:23067   */\n      swap2\n      swap1\n      pop\n      jump\t// out\n        /* \"#utility.yul\":23073:23492   */\n    tag_235:\n        /* \"#utility.yul\":23239:23243   */\n      0x00\n        /* \"#utility.yul\":23277:23279   */\n      0x20\n        /* \"#utility.yul\":23266:23275   */\n      dup3\n        /* \"#utility.yul\":23262:23280   */\n      add\n        /* \"#utility.yul\":23254:23280   */\n      swap1\n      pop\n        /* \"#utility.yul\":23326:23335   */\n      dup2\n        /* \"#utility.yul\":23320:23324   */\n      dup2\n        /* \"#utility.yul\":23316:23336   */\n      sub\n        /* \"#utility.yul\":23312:23313   */\n      0x00\n        /* \"#utility.yul\":23301:23310   */\n      dup4\n        /* \"#utility.yul\":23297:23314   */\n      add\n        /* \"#utility.yul\":23290:23337   */\n      mstore\n        /* \"#utility.yul\":23354:23485   */\n      tag_816\n        /* \"#utility.yul\":23480:23484   */\n      dup2\n        /* \"#utility.yul\":23354:23485   */\n      tag_515\n      jump\t// in\n    tag_816:\n        /* \"#utility.yul\":23346:23485   */\n      swap1\n      pop\n        /* \"#utility.yul\":23073:23492   */\n      swap2\n      swap1\n      pop\n      jump\t// out\n        /* \"#utility.yul\":23498:23645   */\n    tag_516:\n        /* \"#utility.yul\":23599:23610   */\n      0x00\n        /* \"#utility.yul\":23636:23639   */\n      dup2\n        /* \"#utility.yul\":23621:23639   */\n      swap1\n      pop\n        /* \"#utility.yul\":23498:23645   */\n      swap3\n      swap2\n      pop\n      pop\n      jump\t// out\n        /* \"#utility.yul\":23651:23791   */\n    tag_517:\n        /* \"#utility.yul\":23699:23703   */\n      0x00\n        /* \"#utility.yul\":23722:23725   */\n      dup2\n        /* \"#utility.yul\":23714:23725   */\n      swap1\n      pop\n        /* \"#utility.yul\":23745:23748   */\n      dup2\n        /* \"#utility.yul\":23742:23743   */\n      0x00\n        /* \"#utility.yul\":23735:23749   */\n      mstore\n        /* \"#utility.yul\":23779:23783   */\n      0x20\n        /* \"#utility.yul\":23776:23777   */\n      0x00\n        /* \"#utility.yul\":23766:23784   */\n      keccak256\n        /* \"#utility.yul\":23758:23784   */\n      swap1\n      pop\n        /* \"#utility.yul\":23651:23791   */\n      swap2\n      swap1\n      pop\n      jump\t// out\n        /* \"#utility.yul\":23819:24689   */\n    tag_518:\n        /* \"#utility.yul\":23920:23923   */\n      0x00\n        /* \"#utility.yul\":23957:23962   */\n      dup2\n        /* \"#utility.yul\":23951:23963   */\n      sload\n        /* \"#utility.yul\":23986:24022   */\n      tag_820\n        /* \"#utility.yul\":24012:24021   */\n      dup2\n        /* \"#utility.yul\":23986:24022   */\n      tag_183\n      jump\t// in\n    tag_820:\n        /* \"#utility.yul\":24038:24126   */\n      tag_821\n        /* \"#utility.yul\":24119:24125   */\n      dup2\n        /* \"#utility.yul\":24114:24117   */\n      dup7\n        /* \"#utility.yul\":24038:24126   */\n      tag_516\n      jump\t// in\n    tag_821:\n        /* \"#utility.yul\":24031:24126   */\n      swap5\n      pop\n        /* \"#utility.yul\":24157:24158   */\n      0x01\n        /* \"#utility.yul\":24146:24155   */\n      dup3\n        /* \"#utility.yul\":24142:24159   */\n      and\n        /* \"#utility.yul\":24173:24174   */\n      0x00\n        /* \"#utility.yul\":24168:24334   */\n      dup2\n      eq\n      tag_823\n      jumpi\n        /* \"#utility.yul\":24348:24349   */\n      0x01\n        /* \"#utility.yul\":24343:24683   */\n      dup2\n      eq\n      tag_824\n      jumpi\n        /* \"#utility.yul\":24135:24683   */\n      jump(tag_822)\n        /* \"#utility.yul\":24168:24334   */\n    tag_823:\n        /* \"#utility.yul\":24252:24256   */\n      0xff\n        /* \"#utility.yul\":24248:24257   */\n      not\n        /* \"#utility.yul\":24237:24246   */\n      dup4\n        /* \"#utility.yul\":24233:24258   */\n      and\n        /* \"#utility.yul\":24228:24231   */\n      dup7\n        /* \"#utility.yul\":24221:24259   */\n      mstore\n        /* \"#utility.yul\":24314:24320   */\n      dup2\n        /* \"#utility.yul\":24307:24321   */\n      iszero\n        /* \"#utility.yul\":24300:24322   */\n      iszero\n        /* \"#utility.yul\":24292:24298   */\n      dup3\n        /* \"#utility.yul\":24288:24323   */\n      mul\n        /* \"#utility.yul\":24283:24286   */\n      dup7\n        /* \"#utility.yul\":24279:24324   */\n      add\n        /* \"#utility.yul\":24272:24324   */\n      swap4\n      pop\n        /* \"#utility.yul\":24168:24334   */\n      jump(tag_822)\n        /* \"#utility.yul\":24343:24683   */\n    tag_824:\n        /* \"#utility.yul\":24410:24447   */\n      tag_825\n        /* \"#utility.yul\":24441:24446   */\n      dup6\n        /* \"#utility.yul\":24410:24447   */\n      tag_517\n      jump\t// in\n    tag_825:\n        /* \"#utility.yul\":24469:24470   */\n      0x00\n        /* \"#utility.yul\":24483:24637   */\n    tag_826:\n        /* \"#utility.yul\":24497:24503   */\n      dup4\n        /* \"#utility.yul\":24494:24495   */\n      dup2\n        /* \"#utility.yul\":24491:24504   */\n      lt\n        /* \"#utility.yul\":24483:24637   */\n      iszero\n      tag_828\n      jumpi\n        /* \"#utility.yul\":24571:24578   */\n      dup2\n        /* \"#utility.yul\":24565:24579   */\n      sload\n        /* \"#utility.yul\":24561:24562   */\n      dup2\n        /* \"#utility.yul\":24556:24559   */\n      dup10\n        /* \"#utility.yul\":24552:24563   */\n      add\n        /* \"#utility.yul\":24545:24580   */\n      mstore\n        /* \"#utility.yul\":24621:24622   */\n      0x01\n        /* \"#utility.yul\":24612:24619   */\n      dup3\n        /* \"#utility.yul\":24608:24623   */\n      add\n        /* \"#utility.yul\":24597:24623   */\n      swap2\n      pop\n        /* \"#utility.yul\":24519:24523   */\n      0x20\n        /* \"#utility.yul\":24516:24517   */\n      dup2\n        /* \"#utility.yul\":24512:24524   */\n      add\n        /* \"#utility.yul\":24507:24524   */\n      swap1\n      pop\n        /* \"#utility.yul\":24483:24637   */\n      jump(tag_826)\n    tag_828:\n        /* \"#utility.yul\":24666:24672   */\n      dup4\n        /* \"#utility.yul\":24661:24664   */\n      dup9\n        /* \"#utility.yul\":24657:24673   */\n      add\n        /* \"#utility.yul\":24650:24673   */\n      swap6\n      pop\n        /* \"#utility.yul\":24350:24683   */\n      pop\n      pop\n        /* \"#utility.yul\":24135:24683   */\n    tag_822:\n      pop\n        /* \"#utility.yul\":23924:24689   */\n      pop\n      pop\n        /* \"#utility.yul\":23819:24689   */\n      swap3\n      swap2\n      pop\n      pop\n      jump\t// out\n        /* \"#utility.yul\":24695:24960   */\n    tag_237:\n        /* \"#utility.yul\":24822:24825   */\n      0x00\n        /* \"#utility.yul\":24844:24934   */\n      tag_830\n        /* \"#utility.yul\":24930:24933   */\n      dup3\n        /* \"#utility.yul\":24921:24927   */\n      dup5\n        /* \"#utility.yul\":24844:24934   */\n      tag_518\n      jump\t// in\n    tag_830:\n        /* \"#utility.yul\":24837:24934   */\n      swap2\n      pop\n        /* \"#utility.yul\":24951:24954   */\n      dup2\n        /* \"#utility.yul\":24944:24954   */\n      swap1\n      pop\n        /* \"#utility.yul\":24695:24960   */\n      swap3\n      swap2\n      pop\n      pop\n      jump\t// out\n        /* \"#utility.yul\":24966:25145   */\n    tag_519:\n        /* \"#utility.yul\":25106:25137   */\n      0x47616d655377617044414f3a20657865637574696f6e206661696c6564000000\n        /* \"#utility.yul\":25102:25103   */\n      0x00\n        /* \"#utility.yul\":25094:25100   */\n      dup3\n        /* \"#utility.yul\":25090:25104   */\n      add\n        /* \"#utility.yul\":25083:25138   */\n      mstore\n        /* \"#utility.yul\":24966:25145   */\n      pop\n      jump\t// out\n        /* \"#utility.yul\":25151:25517   */\n    tag_520:\n        /* \"#utility.yul\":25293:25296   */\n      0x00\n        /* \"#utility.yul\":25314:25381   */\n      tag_833\n        /* \"#utility.yul\":25378:25380   */\n      0x1d\n        /* \"#utility.yul\":25373:25376   */\n      dup4\n        /* \"#utility.yul\":25314:25381   */\n      tag_461\n      jump\t// in\n    tag_833:\n        /* \"#utility.yul\":25307:25381   */\n      swap2\n      pop\n        /* \"#utility.yul\":25390:25483   */\n      tag_834\n        /* \"#utility.yul\":25479:25482   */\n      dup3\n        /* \"#utility.yul\":25390:25483   */\n      tag_519\n      jump\t// in\n    tag_834:\n        /* \"#utility.yul\":25508:25510   */\n      0x20\n        /* \"#utility.yul\":25503:25506   */\n      dup3\n        /* \"#utility.yul\":25499:25511   */\n      add\n        /* \"#utility.yul\":25492:25511   */\n      swap1\n      pop\n        /* \"#utility.yul\":25151:25517   */\n      swap2\n      swap1\n      pop\n      jump\t// out\n        /* \"#utility.yul\":25523:25942   */\n    tag_243:\n        /* \"#utility.yul\":25689:25693   */\n      0x00\n        /* \"#utility.yul\":25727:25729   */\n      0x20\n        /* \"#utility.yul\":25716:25725   */\n      dup3\n        /* \"#utility.yul\":25712:25730   */\n      add\n        /* \"#utility.yul\":25704:25730   */\n      swap1\n      pop\n        /* \"#utility.yul\":25776:25785   */\n      dup2\n        /* \"#utility.yul\":25770:25774   */\n      dup2\n        /* \"#utility.yul\":25766:25786   */\n      sub\n        /* \"#utility.yul\":25762:25763   */\n      0x00\n        /* \"#utility.yul\":25751:25760   */\n      dup4\n        /* \"#utility.yul\":25747:25764   */\n      add\n        /* \"#utility.yul\":25740:25787   */\n      mstore\n        /* \"#utility.yul\":25804:25935   */\n      tag_836\n        /* \"#utility.yul\":25930:25934   */\n      dup2\n        /* \"#utility.yul\":25804:25935   */\n      tag_520\n      jump\t// in\n    tag_836:\n        /* \"#utility.yul\":25796:25935   */\n      swap1\n      pop\n        /* \"#utility.yul\":25523:25942   */\n      swap2\n      swap1\n      pop\n      jump\t// out\n        /* \"#utility.yul\":25948:26186   */\n    tag_521:\n        /* \"#utility.yul\":26088:26122   */\n      0x47616d655377617044414f3a20696e73756666696369656e7420746f6b656e73\n        /* \"#utility.yul\":26084:26085   */\n      0x00\n        /* \"#utility.yul\":26076:26082   */\n      dup3\n        /* \"#utility.yul\":26072:26086   */\n      add\n        /* \"#utility.yul\":26065:26123   */\n      mstore\n        /* \"#utility.yul\":26157:26178   */\n      0x20746f206372656174652070726f706f73616c00000000000000000000000000\n        /* \"#utility.yul\":26152:26154   */\n      0x20\n        /* \"#utility.yul\":26144:26150   */\n      dup3\n        /* \"#utility.yul\":26140:26155   */\n      add\n        /* \"#utility.yul\":26133:26179   */\n      mstore\n        /* \"#utility.yul\":25948:26186   */\n      pop\n      jump\t// out\n        /* \"#utility.yul\":26192:26558   */\n    tag_522:\n        /* \"#utility.yul\":26334:26337   */\n      0x00\n        /* \"#utility.yul\":26355:26422   */\n      tag_839\n        /* \"#utility.yul\":26419:26421   */\n      0x33\n        /* \"#utility.yul\":26414:26417   */\n      dup4\n        /* \"#utility.yul\":26355:26422   */\n      tag_461\n      jump\t// in\n    tag_839:\n        /* \"#utility.yul\":26348:26422   */\n      swap2\n      pop\n        /* \"#utility.yul\":26431:26524   */\n      tag_840\n        /* \"#utility.yul\":26520:26523   */\n      dup3\n        /* \"#utility.yul\":26431:26524   */\n      tag_521\n      jump\t// in\n    tag_840:\n        /* \"#utility.yul\":26549:26551   */\n      0x40\n        /* \"#utility.yul\":26544:26547   */\n      dup3\n        /* \"#utility.yul\":26540:26552   */\n      add\n        /* \"#utility.yul\":26533:26552   */\n      swap1\n      pop\n        /* \"#utility.yul\":26192:26558   */\n      swap2\n      swap1\n      pop\n      jump\t// out\n        /* \"#utility.yul\":26564:26983   */\n    tag_261:\n        /* \"#utility.yul\":26730:26734   */\n      0x00\n        /* \"#utility.yul\":26768:26770   */\n      0x20\n        /* \"#utility.yul\":26757:26766   */\n      dup3\n        /* \"#utility.yul\":26753:26771   */\n      add\n        /* \"#utility.yul\":26745:26771   */\n      swap1\n      pop\n        /* \"#utility.yul\":26817:26826   */\n      dup2\n        /* \"#utility.yul\":26811:26815   */\n      dup2\n        /* \"#utility.yul\":26807:26827   */\n      sub\n        /* \"#utility.yul\":26803:26804   */\n      0x00\n        /* \"#utility.yul\":26792:26801   */\n      dup4\n        /* \"#utility.yul\":26788:26805   */\n      add\n        /* \"#utility.yul\":26781:26828   */\n      mstore\n        /* \"#utility.yul\":26845:26976   */\n      tag_842\n        /* \"#utility.yul\":26971:26975   */\n      dup2\n        /* \"#utility.yul\":26845:26976   */\n      tag_522\n      jump\t// in\n    tag_842:\n        /* \"#utility.yul\":26837:26976   */\n      swap1\n      pop\n        /* \"#utility.yul\":26564:26983   */\n      swap2\n      swap1\n      pop\n      jump\t// out\n        /* \"#utility.yul\":26989:27222   */\n    tag_263:\n        /* \"#utility.yul\":27028:27031   */\n      0x00\n        /* \"#utility.yul\":27051:27075   */\n      tag_844\n        /* \"#utility.yul\":27069:27074   */\n      dup3\n        /* \"#utility.yul\":27051:27075   */\n      tag_453\n      jump\t// in\n    tag_844:\n        /* \"#utility.yul\":27042:27075   */\n      swap2\n      pop\n        /* \"#utility.yul\":27097:27163   */\n      0xffffffffffffffffffffffffffffffffffffffffffffffffffffffffffffffff\n        /* \"#utility.yul\":27090:27095   */\n      dup3\n        /* \"#utility.yul\":27087:27164   */\n      sub\n        /* \"#utility.yul\":27084:27187   */\n      tag_845\n      jumpi\n        /* \"#utility.yul\":27167:27185   */\n      tag_846\n      tag_508\n      jump\t// in\n    tag_846:\n        /* \"#utility.yul\":27084:27187   */\n    tag_845:\n        /* \"#utility.yul\":27214:27215   */\n      0x01\n        /* \"#utility.yul\":27207:27212   */\n      dup3\n        /* \"#utility.yul\":27203:27216   */\n      add\n        /* \"#utility.yul\":27196:27216   */\n      swap1\n      pop\n        /* \"#utility.yul\":26989:27222   */\n      swap2\n      swap1\n      pop\n      jump\t// out\n        /* \"#utility.yul\":27228:27369   */\n    tag_523:\n        /* \"#utility.yul\":27277:27281   */\n      0x00\n        /* \"#utility.yul\":27300:27303   */\n      dup2\n        /* \"#utility.yul\":27292:27303   */\n      swap1\n      pop\n        /* \"#utility.yul\":27323:27326   */\n      dup2\n        /* \"#utility.yul\":27320:27321   */\n      0x00\n        /* \"#utility.yul\":27313:27327   */\n      mstore\n        /* \"#utility.yul\":27357:27361   */\n      0x20\n        /* \"#utility.yul\":27354:27355   */\n      0x00\n        /* \"#utility.yul\":27344:27362   */\n      keccak256\n        /* \"#utility.yul\":27336:27362   */\n      swap1\n      pop\n        /* \"#utility.yul\":27228:27369   */\n      swap2\n      swap1\n      pop\n      jump\t// out\n        /* \"#utility.yul\":27375:27468   */\n    tag_524:\n        /* \"#utility.yul\":27412:27418   */\n      0x00\n        /* \"#utility.yul\":27459:27461   */\n      0x20\n        /* \"#utility.yul\":27454:27456   */\n      0x1f\n        /* \"#utility.yul\":27447:27452   */\n      dup4\n        /* \"#utility.yul\":27443:27457   */\n      add\n        /* \"#utility.yul\":27439:27462   */\n      div\n        /* \"#utility.yul\":27429:27462   */\n      swap1\n      pop\n        /* \"#utility.yul\":27375:27468   */\n      swap2\n      swap1\n      pop\n      jump\t// out\n        /* \"#utility.yul\":27474:27581   */\n    tag_525:\n        /* \"#utility.yul\":27518:27526   */\n      0x00\n        /* \"#utility.yul\":27568:27573   */\n      dup3\n        /* \"#utility.yul\":27562:27566   */\n      dup3\n        /* \"#utility.yul\":27558:27574   */\n      shl\n        /* \"#utility.yul\":27537:27574   */\n      swap1\n      pop\n        /* \"#utility.yul\":27474:27581   */\n      swap3\n      swap2\n      pop\n      pop\n      jump\t// out\n        /* \"#utility.yul\":27587:27980   */\n    tag_526:\n        /* \"#utility.yul\":27656:27662   */\n      0x00\n        /* \"#utility.yul\":27706:27707   */\n      0x08\n        /* \"#utility.yul\":27694:27704   */\n      dup4\n        /* \"#utility.yul\":27690:27708   */\n      mul\n        /* \"#utility.yul\":27729:27826   */\n      tag_851\n        /* \"#utility.yul\":27759:27825   */\n      0xffffffffffffffffffffffffffffffffffffffffffffffffffffffffffffffff\n        /* \"#utility.yul\":27748:27757   */\n      dup3\n        /* \"#utility.yul\":27729:27826   */\n      tag_525\n      jump\t// in\n    tag_851:\n        /* \"#utility.yul\":27847:27886   */\n      tag_852\n        /* \"#utility.yul\":27877:27885   */\n      dup7\n        /* \"#utility.yul\":27866:27875   */\n      dup4\n        /* \"#utility.yul\":27847:27886   */\n      tag_525\n      jump\t// in\n    tag_852:\n        /* \"#utility.yul\":27835:27886   */\n      swap6\n      pop\n        /* \"#utility.yul\":27919:27923   */\n      dup1\n        /* \"#utility.yul\":27915:27924   */\n      not\n        /* \"#utility.yul\":27908:27913   */\n      dup5\n        /* \"#utility.yul\":27904:27925   */\n      and\n        /* \"#utility.yul\":27895:27925   */\n      swap4\n      pop\n        /* \"#utility.yul\":27968:27972   */\n      dup1\n        /* \"#utility.yul\":27958:27966   */\n      dup7\n        /* \"#utility.yul\":27954:27973   */\n      and\n        /* \"#utility.yul\":27947:27952   */\n      dup5\n        /* \"#utility.yul\":27944:27974   */\n      or\n        /* \"#utility.yul\":27934:27974   */\n      swap3\n      pop\n        /* \"#utility.yul\":27663:27980   */\n      pop\n      pop\n        /* \"#utility.yul\":27587:27980   */\n      swap4\n      swap3\n      pop\n      pop\n      pop\n      jump\t// out\n        /* \"#utility.yul\":27986:28128   */\n    tag_527:\n        /* \"#utility.yul\":28036:28045   */\n      0x00\n        /* \"#utility.yul\":28069:28122   */\n      tag_854\n        /* \"#utility.yul\":28087:28121   */\n      tag_855\n        /* \"#utility.yul\":28096:28120   */\n      tag_856\n        /* \"#utility.yul\":28114:28119   */\n      dup5\n        /* \"#utility.yul\":28096:28120   */\n      tag_453\n      jump\t// in\n    tag_856:\n        /* \"#utility.yul\":28087:28121   */\n      tag_493\n      jump\t// in\n    tag_855:\n        /* \"#utility.yul\":28069:28122   */\n      tag_453\n      jump\t// in\n    tag_854:\n        /* \"#utility.yul\":28056:28122   */\n      swap1\n      pop\n        /* \"#utility.yul\":27986:28128   */\n      swap2\n      swap1\n      pop\n      jump\t// out\n        /* \"#utility.yul\":28134:28209   */\n    tag_528:\n        /* \"#utility.yul\":28177:28180   */\n      0x00\n        /* \"#utility.yul\":28198:28203   */\n      dup2\n        /* \"#utility.yul\":28191:28203   */\n      swap1\n      pop\n        /* \"#utility.yul\":28134:28209   */\n      swap2\n      swap1\n      pop\n      jump\t// out\n        /* \"#utility.yul\":28215:28484   */\n    tag_529:\n        /* \"#utility.yul\":28325:28364   */\n      tag_859\n        /* \"#utility.yul\":28356:28363   */\n      dup4\n        /* \"#utility.yul\":28325:28364   */\n      tag_527\n      jump\t// in\n    tag_859:\n        /* \"#utility.yul\":28386:28477   */\n      tag_860\n        /* \"#utility.yul\":28435:28476   */\n      tag_861\n        /* \"#utility.yul\":28459:28475   */\n      dup3\n        /* \"#utility.yul\":28435:28476   */\n      tag_528\n      jump\t// in\n    tag_861:\n        /* \"#utility.yul\":28427:28433   */\n      dup5\n        /* \"#utility.yul\":28420:28424   */\n      dup5\n        /* \"#utility.yul\":28414:28425   */\n      sload\n        /* \"#utility.yul\":28386:28477   */\n      tag_526\n      jump\t// in\n    tag_860:\n        /* \"#utility.yul\":28380:28384   */\n      dup3\n        /* \"#utility.yul\":28373:28478   */\n      sstore\n        /* \"#utility.yul\":28291:28484   */\n      pop\n        /* \"#utility.yul\":28215:28484   */\n      pop\n      pop\n      pop\n      jump\t// out\n        /* \"#utility.yul\":28490:28563   */\n    tag_530:\n        /* \"#utility.yul\":28535:28538   */\n      0x00\n        /* \"#utility.yul\":28490:28563   */\n      swap1\n      jump\t// out\n        /* \"#utility.yul\":28569:28758   */\n    tag_531:\n        /* \"#utility.yul\":28646:28678   */\n      tag_864\n      tag_530\n      jump\t// in\n    tag_864:\n        /* \"#utility.yul\":28687:28752   */\n      tag_865\n        /* \"#utility.yul\":28745:28751   */\n      dup2\n        /* \"#utility.yul\":28737:28743   */\n      dup5\n        /* \"#utility.yul\":28731:28735   */\n      dup5\n        /* \"#utility.yul\":28687:28752   */\n      tag_529\n      jump\t// in\n    tag_865:\n        /* \"#utility.yul\":28622:28758   */\n      pop\n        /* \"#utility.yul\":28569:28758   */\n      pop\n      pop\n      jump\t// out\n        /* \"#utility.yul\":28764:28950   */\n    tag_532:\n        /* \"#utility.yul\":28824:28944   */\n    tag_867:\n        /* \"#utility.yul\":28841:28844   */\n      dup2\n        /* \"#utility.yul\":28834:28839   */\n      dup2\n        /* \"#utility.yul\":28831:28845   */\n      lt\n        /* \"#utility.yul\":28824:28944   */\n      iszero\n      tag_869\n      jumpi\n        /* \"#utility.yul\":28895:28934   */\n      tag_870\n        /* \"#utility.yul\":28932:28933   */\n      0x00\n        /* \"#utility.yul\":28925:28930   */\n      dup3\n        /* \"#utility.yul\":28895:28934   */\n      tag_531\n      jump\t// in\n    tag_870:\n        /* \"#utility.yul\":28868:28869   */\n      0x01\n        /* \"#utility.yul\":28861:28866   */\n      dup2\n        /* \"#utility.yul\":28857:28870   */\n      add\n        /* \"#utility.yul\":28848:28870   */\n      swap1\n      pop\n        /* \"#utility.yul\":28824:28944   */\n      jump(tag_867)\n    tag_869:\n        /* \"#utility.yul\":28764:28950   */\n      pop\n      pop\n      jump\t// out\n        /* \"#utility.yul\":28956:29499   */\n    tag_533:\n        /* \"#utility.yul\":29057:29059   */\n      0x1f\n        /* \"#utility.yul\":29052:29055   */\n      dup3\n        /* \"#utility.yul\":29049:29060   */\n      gt\n        /* \"#utility.yul\":29046:29492   */\n      iszero\n      tag_872\n      jumpi\n        /* \"#utility.yul\":29091:29129   */\n      tag_873\n        /* \"#utility.yul\":29123:29128   */\n      dup2\n        /* \"#utility.yul\":29091:29129   */\n      tag_523\n      jump\t// in\n    tag_873:\n        /* \"#utility.yul\":29175:29204   */\n      tag_874\n        /* \"#utility.yul\":29193:29203   */\n      dup5\n        /* \"#utility.yul\":29175:29204   */\n      tag_524\n      jump\t// in\n    tag_874:\n        /* \"#utility.yul\":29165:29173   */\n      dup2\n        /* \"#utility.yul\":29161:29205   */\n      add\n        /* \"#utility.yul\":29358:29360   */\n      0x20\n        /* \"#utility.yul\":29346:29356   */\n      dup6\n        /* \"#utility.yul\":29343:29361   */\n      lt\n        /* \"#utility.yul\":29340:29389   */\n      iszero\n      tag_875\n      jumpi\n        /* \"#utility.yul\":29379:29387   */\n      dup2\n        /* \"#utility.yul\":29364:29387   */\n      swap1\n      pop\n        /* \"#utility.yul\":29340:29389   */\n    tag_875:\n        /* \"#utility.yul\":29402:29482   */\n      tag_876\n        /* \"#utility.yul\":29458:29480   */\n      tag_877\n        /* \"#utility.yul\":29476:29479   */\n      dup6\n        /* \"#utility.yul\":29458:29480   */\n      tag_524\n      jump\t// in\n    tag_877:\n        /* \"#utility.yul\":29448:29456   */\n      dup4\n        /* \"#utility.yul\":29444:29481   */\n      add\n        /* \"#utility.yul\":29431:29442   */\n      dup3\n        /* \"#utility.yul\":29402:29482   */\n      tag_532\n      jump\t// in\n    tag_876:\n        /* \"#utility.yul\":29061:29492   */\n      pop\n      pop\n        /* \"#utility.yul\":29046:29492   */\n    tag_872:\n        /* \"#utility.yul\":28956:29499   */\n      pop\n      pop\n      pop\n      jump\t// out\n        /* \"#utility.yul\":29505:29622   */\n    tag_534:\n        /* \"#utility.yul\":29559:29567   */\n      0x00\n        /* \"#utility.yul\":29609:29614   */\n      dup3\n        /* \"#utility.yul\":29603:29607   */\n      dup3\n        /* \"#utility.yul\":29599:29615   */\n      shr\n        /* \"#utility.yul\":29578:29615   */\n      swap1\n      pop\n        /* \"#utility.yul\":29505:29622   */\n      swap3\n      swap2\n      pop\n      pop\n      jump\t// out\n        /* \"#utility.yul\":29628:29797   */\n    tag_535:\n        /* \"#utility.yul\":29672:29678   */\n      0x00\n        /* \"#utility.yul\":29705:29756   */\n      tag_880\n        /* \"#utility.yul\":29753:29754   */\n      0x00\n        /* \"#utility.yul\":29749:29755   */\n      not\n        /* \"#utility.yul\":29741:29746   */\n      dup5\n        /* \"#utility.yul\":29738:29739   */\n      0x08\n        /* \"#utility.yul\":29734:29747   */\n      mul\n        /* \"#utility.yul\":29705:29756   */\n      tag_534\n      jump\t// in\n    tag_880:\n        /* \"#utility.yul\":29701:29757   */\n      not\n        /* \"#utility.yul\":29786:29790   */\n      dup1\n        /* \"#utility.yul\":29780:29784   */\n      dup4\n        /* \"#utility.yul\":29776:29791   */\n      and\n        /* \"#utility.yul\":29766:29791   */\n      swap2\n      pop\n        /* \"#utility.yul\":29679:29797   */\n      pop\n        /* \"#utility.yul\":29628:29797   */\n      swap3\n      swap2\n      pop\n      pop\n      jump\t// out\n        /* \"#utility.yul\":29802:30097   */\n    tag_536:\n        /* \"#utility.yul\":29878:29882   */\n      0x00\n        /* \"#utility.yul\":30024:30053   */\n      tag_882\n        /* \"#utility.yul\":30049:30052   */\n      dup4\n        /* \"#utility.yul\":30043:30047   */\n      dup4\n        /* \"#utility.yul\":30024:30053   */\n      tag_535\n      jump\t// in\n    tag_882:\n        /* \"#utility.yul\":30016:30053   */\n      swap2\n      pop\n        /* \"#utility.yul\":30086:30089   */\n      dup3\n        /* \"#utility.yul\":30083:30084   */\n      0x02\n        /* \"#utility.yul\":30079:30090   */\n      mul\n        /* \"#utility.yul\":30073:30077   */\n      dup3\n        /* \"#utility.yul\":30070:30091   */\n      or\n        /* \"#utility.yul\":30062:30091   */\n      swap1\n      pop\n        /* \"#utility.yul\":29802:30097   */\n      swap3\n      swap2\n      pop\n      pop\n      jump\t// out\n        /* \"#utility.yul\":30102:31497   */\n    tag_265:\n        /* \"#utility.yul\":30219:30256   */\n      tag_884\n        /* \"#utility.yul\":30252:30255   */\n      dup3\n        /* \"#utility.yul\":30219:30256   */\n      tag_460\n      jump\t// in\n    tag_884:\n        /* \"#utility.yul\":30321:30339   */\n      0xffffffffffffffff\n        /* \"#utility.yul\":30313:30319   */\n      dup2\n        /* \"#utility.yul\":30310:30340   */\n      gt\n        /* \"#utility.yul\":30307:30363   */\n      iszero\n      tag_885\n      jumpi\n        /* \"#utility.yul\":30343:30361   */\n      tag_886\n      tag_475\n      jump\t// in\n    tag_886:\n        /* \"#utility.yul\":30307:30363   */\n    tag_885:\n        /* \"#utility.yul\":30387:30425   */\n      tag_887\n        /* \"#utility.yul\":30419:30423   */\n      dup3\n        /* \"#utility.yul\":30413:30424   */\n      sload\n        /* \"#utility.yul\":30387:30425   */\n      tag_183\n      jump\t// in\n    tag_887:\n        /* \"#utility.yul\":30472:30539   */\n      tag_888\n        /* \"#utility.yul\":30532:30538   */\n      dup3\n        /* \"#utility.yul\":30524:30530   */\n      dup3\n        /* \"#utility.yul\":30518:30522   */\n      dup6\n        /* \"#utility.yul\":30472:30539   */\n      tag_533\n      jump\t// in\n    tag_888:\n        /* \"#utility.yul\":30566:30567   */\n      0x00\n        /* \"#utility.yul\":30590:30594   */\n      0x20\n        /* \"#utility.yul\":30577:30594   */\n      swap1\n      pop\n        /* \"#utility.yul\":30622:30624   */\n      0x1f\n        /* \"#utility.yul\":30614:30620   */\n      dup4\n        /* \"#utility.yul\":30611:30625   */\n      gt\n        /* \"#utility.yul\":30639:30640   */\n      0x01\n        /* \"#utility.yul\":30634:31252   */\n      dup2\n      eq\n      tag_890\n      jumpi\n        /* \"#utility.yul\":31296:31297   */\n      0x00\n        /* \"#utility.yul\":31313:31319   */\n      dup5\n        /* \"#utility.yul\":31310:31387   */\n      iszero\n      tag_891\n      jumpi\n        /* \"#utility.yul\":31362:31371   */\n      dup3\n        /* \"#utility.yul\":31357:31360   */\n      dup8\n        /* \"#utility.yul\":31353:31372   */\n      add\n        /* \"#utility.yul\":31347:31373   */\n      mload\n        /* \"#utility.yul\":31338:31373   */\n      swap1\n      pop\n        /* \"#utility.yul\":31310:31387   */\n    tag_891:\n        /* \"#utility.yul\":31413:31480   */\n      tag_892\n        /* \"#utility.yul\":31473:31479   */\n      dup6\n        /* \"#utility.yul\":31466:31471   */\n      dup3\n        /* \"#utility.yul\":31413:31480   */\n      tag_536\n      jump\t// in\n    tag_892:\n        /* \"#utility.yul\":31407:31411   */\n      dup7\n        /* \"#utility.yul\":31400:31481   */\n      sstore\n        /* \"#utility.yul\":31269:31491   */\n      pop\n        /* \"#utility.yul\":30604:31491   */\n      jump(tag_889)\n        /* \"#utility.yul\":30634:31252   */\n    tag_890:\n        /* \"#utility.yul\":30686:30690   */\n      0x1f\n        /* \"#utility.yul\":30682:30691   */\n      not\n        /* \"#utility.yul\":30674:30680   */\n      dup5\n        /* \"#utility.yul\":30670:30692   */\n      and\n        /* \"#utility.yul\":30720:30757   */\n      tag_893\n        /* \"#utility.yul\":30752:30756   */\n      dup7\n        /* \"#utility.yul\":30720:30757   */\n      tag_523\n      jump\t// in\n    tag_893:\n        /* \"#utility.yul\":30779:30780   */\n      0x00\n        /* \"#utility.yul\":30793:31001   */\n    tag_894:\n        /* \"#utility.yul\":30807:30814   */\n      dup3\n        /* \"#utility.yul\":30804:30805   */\n      dup2\n        /* \"#utility.yul\":30801:30815   */\n      lt\n        /* \"#utility.yul\":30793:31001   */\n      iszero\n      tag_896\n      jumpi\n        /* \"#utility.yul\":30886:30895   */\n      dup5\n        /* \"#utility.yul\":30881:30884   */\n      dup10\n        /* \"#utility.yul\":30877:30896   */\n      add\n        /* \"#utility.yul\":30871:30897   */\n      mload\n        /* \"#utility.yul\":30863:30869   */\n      dup3\n        /* \"#utility.yul\":30856:30898   */\n      sstore\n        /* \"#utility.yul\":30937:30938   */\n      0x01\n        /* \"#utility.yul\":30929:30935   */\n      dup3\n        /* \"#utility.yul\":30925:30939   */\n      add\n        /* \"#utility.yul\":30915:30939   */\n      swap2\n      pop\n        /* \"#utility.yul\":30984:30986   */\n      0x20\n        /* \"#utility.yul\":30973:30982   */\n      dup6\n        /* \"#utility.yul\":30969:30987   */\n      add\n        /* \"#utility.yul\":30956:30987   */\n      swap5\n      pop\n        /* \"#utility.yul\":30830:30834   */\n      0x20\n        /* \"#utility.yul\":30827:30828   */\n      dup2\n        /* \"#utility.yul\":30823:30835   */\n      add\n        /* \"#utility.yul\":30818:30835   */\n      swap1\n      pop\n        /* \"#utility.yul\":30793:31001   */\n      jump(tag_894)\n    tag_896:\n        /* \"#utility.yul\":31029:31035   */\n      dup7\n        /* \"#utility.yul\":31020:31027   */\n      dup4\n        /* \"#utility.yul\":31017:31036   */\n      lt\n        /* \"#utility.yul\":31014:31193   */\n      iszero\n      tag_897\n      jumpi\n        /* \"#utility.yul\":31087:31096   */\n      dup5\n        /* \"#utility.yul\":31082:31085   */\n      dup10\n        /* \"#utility.yul\":31078:31097   */\n      add\n        /* \"#utility.yul\":31072:31098   */\n      mload\n        /* \"#utility.yul\":31130:31178   */\n      tag_898\n        /* \"#utility.yul\":31172:31176   */\n      0x1f\n        /* \"#utility.yul\":31164:31170   */\n      dup10\n        /* \"#utility.yul\":31160:31177   */\n      and\n        /* \"#utility.yul\":31149:31158   */\n      dup3\n        /* \"#utility.yul\":31130:31178   */\n      tag_535\n      jump\t// in\n    tag_898:\n        /* \"#utility.yul\":31122:31128   */\n      dup4\n        /* \"#utility.yul\":31115:31179   */\n      sstore\n        /* \"#utility.yul\":31037:31193   */\n      pop\n        /* \"#utility.yul\":31014:31193   */\n    tag_897:\n        /* \"#utility.yul\":31239:31240   */\n      0x01\n        /* \"#utility.yul\":31235:31236   */\n      0x02\n        /* \"#utility.yul\":31227:31233   */\n      dup9\n        /* \"#utility.yul\":31223:31237   */\n      mul\n        /* \"#utility.yul\":31219:31241   */\n      add\n        /* \"#utility.yul\":31213:31217   */\n      dup9\n        /* \"#utility.yul\":31206:31242   */\n      sstore\n        /* \"#utility.yul\":30641:31252   */\n      pop\n      pop\n      pop\n        /* \"#utility.yul\":30604:31491   */\n    tag_889:\n      pop\n        /* \"#utility.yul\":30194:31497   */\n      pop\n      pop\n      pop\n        /* \"#utility.yul\":30102:31497   */\n      pop\n      pop\n      jump\t// out\n        /* \"#utility.yul\":31503:32044   */\n    tag_537:\n        /* \"#utility.yul\":31603:31605   */\n      0x1f\n        /* \"#utility.yul\":31598:31601   */\n      dup3\n        /* \"#utility.yul\":31595:31606   */\n      gt\n        /* \"#utility.yul\":31592:32037   */\n      iszero\n      tag_900\n      jumpi\n        /* \"#utility.yul\":31637:31674   */\n      tag_901\n        /* \"#utility.yul\":31668:31673   */\n      dup2\n        /* \"#utility.yul\":31637:31674   */\n      tag_517\n      jump\t// in\n    tag_901:\n        /* \"#utility.yul\":31720:31749   */\n      tag_902\n        /* \"#utility.yul\":31738:31748   */\n      dup5\n        /* \"#utility.yul\":31720:31749   */\n      tag_524\n      jump\t// in\n    tag_902:\n        /* \"#utility.yul\":31710:31718   */\n      dup2\n        /* \"#utility.yul\":31706:31750   */\n      add\n        /* \"#utility.yul\":31903:31905   */\n      0x20\n        /* \"#utility.yul\":31891:31901   */\n      dup6\n        /* \"#utility.yul\":31888:31906   */\n      lt\n        /* \"#utility.yul\":31885:31934   */\n      iszero\n      tag_903\n      jumpi\n        /* \"#utility.yul\":31924:31932   */\n      dup2\n        /* \"#utility.yul\":31909:31932   */\n      swap1\n      pop\n        /* \"#utility.yul\":31885:31934   */\n    tag_903:\n        /* \"#utility.yul\":31947:32027   */\n      tag_904\n        /* \"#utility.yul\":32003:32025   */\n      tag_905\n        /* \"#utility.yul\":32021:32024   */\n      dup6\n        /* \"#utility.yul\":32003:32025   */\n      tag_524\n      jump\t// in\n    tag_905:\n        /* \"#utility.yul\":31993:32001   */\n      dup4\n        /* \"#utility.yul\":31989:32026   */\n      add\n        /* \"#utility.yul\":31976:31987   */\n      dup3\n        /* \"#utility.yul\":31947:32027   */\n      tag_532\n      jump\t// in\n    tag_904:\n        /* \"#utility.yul\":31607:32037   */\n      pop\n      pop\n        /* \"#utility.yul\":31592:32037   */\n    tag_900:\n        /* \"#utility.yul\":31503:32044   */\n      pop\n      pop\n      pop\n      jump\t// out\n        /* \"#utility.yul\":32050:33440   */\n    tag_268:\n        /* \"#utility.yul\":32165:32201   */\n      tag_907\n        /* \"#utility.yul\":32197:32200   */\n      dup3\n        /* \"#utility.yul\":32165:32201   */\n      tag_467\n      jump\t// in\n    tag_907:\n        /* \"#utility.yul\":32266:32284   */\n      0xffffffffffffffff\n        /* \"#utility.yul\":32258:32264   */\n      dup2\n        /* \"#utility.yul\":32255:32285   */\n      gt\n        /* \"#utility.yul\":32252:32308   */\n      iszero\n      tag_908\n      jumpi\n        /* \"#utility.yul\":32288:32306   */\n      tag_909\n      tag_475\n      jump\t// in\n    tag_909:\n        /* \"#utility.yul\":32252:32308   */\n    tag_908:\n        /* \"#utility.yul\":32332:32370   */\n      tag_910\n        /* \"#utility.yul\":32364:32368   */\n      dup3\n        /* \"#utility.yul\":32358:32369   */\n      sload\n        /* \"#utility.yul\":32332:32370   */\n      tag_183\n      jump\t// in\n    tag_910:\n        /* \"#utility.yul\":32417:32483   */\n      tag_911\n        /* \"#utility.yul\":32476:32482   */\n      dup3\n        /* \"#utility.yul\":32468:32474   */\n      dup3\n        /* \"#utility.yul\":32462:32466   */\n      dup6\n        /* \"#utility.yul\":32417:32483   */\n      tag_537\n      jump\t// in\n    tag_911:\n        /* \"#utility.yul\":32510:32511   */\n      0x00\n        /* \"#utility.yul\":32534:32538   */\n      0x20\n        /* \"#utility.yul\":32521:32538   */\n      swap1\n      pop\n        /* \"#utility.yul\":32566:32568   */\n      0x1f\n        /* \"#utility.yul\":32558:32564   */\n      dup4\n        /* \"#utility.yul\":32555:32569   */\n      gt\n        /* \"#utility.yul\":32583:32584   */\n      0x01\n        /* \"#utility.yul\":32578:33195   */\n      dup2\n      eq\n      tag_913\n      jumpi\n        /* \"#utility.yul\":33239:33240   */\n      0x00\n        /* \"#utility.yul\":33256:33262   */\n      dup5\n        /* \"#utility.yul\":33253:33330   */\n      iszero\n      tag_914\n      jumpi\n        /* \"#utility.yul\":33305:33314   */\n      dup3\n        /* \"#utility.yul\":33300:33303   */\n      dup8\n        /* \"#utility.yul\":33296:33315   */\n      add\n        /* \"#utility.yul\":33290:33316   */\n      mload\n        /* \"#utility.yul\":33281:33316   */\n      swap1\n      pop\n        /* \"#utility.yul\":33253:33330   */\n    tag_914:\n        /* \"#utility.yul\":33356:33423   */\n      tag_915\n        /* \"#utility.yul\":33416:33422   */\n      dup6\n        /* \"#utility.yul\":33409:33414   */\n      dup3\n        /* \"#utility.yul\":33356:33423   */\n      tag_536\n      jump\t// in\n    tag_915:\n        /* \"#utility.yul\":33350:33354   */\n      dup7\n        /* \"#utility.yul\":33343:33424   */\n      sstore\n        /* \"#utility.yul\":33212:33434   */\n      pop\n        /* \"#utility.yul\":32548:33434   */\n      jump(tag_912)\n        /* \"#utility.yul\":32578:33195   */\n    tag_913:\n        /* \"#utility.yul\":32630:32634   */\n      0x1f\n        /* \"#utility.yul\":32626:32635   */\n      not\n        /* \"#utility.yul\":32618:32624   */\n      dup5\n        /* \"#utility.yul\":32614:32636   */\n      and\n        /* \"#utility.yul\":32664:32700   */\n      tag_916\n        /* \"#utility.yul\":32695:32699   */\n      dup7\n        /* \"#utility.yul\":32664:32700   */\n      tag_517\n      jump\t// in\n    tag_916:\n        /* \"#utility.yul\":32722:32723   */\n      0x00\n        /* \"#utility.yul\":32736:32944   */\n    tag_917:\n        /* \"#utility.yul\":32750:32757   */\n      dup3\n        /* \"#utility.yul\":32747:32748   */\n      dup2\n        /* \"#utility.yul\":32744:32758   */\n      lt\n        /* \"#utility.yul\":32736:32944   */\n      iszero\n      tag_919\n      jumpi\n        /* \"#utility.yul\":32829:32838   */\n      dup5\n        /* \"#utility.yul\":32824:32827   */\n      dup10\n        /* \"#utility.yul\":32820:32839   */\n      add\n        /* \"#utility.yul\":32814:32840   */\n      mload\n        /* \"#utility.yul\":32806:32812   */\n      dup3\n        /* \"#utility.yul\":32799:32841   */\n      sstore\n        /* \"#utility.yul\":32880:32881   */\n      0x01\n        /* \"#utility.yul\":32872:32878   */\n      dup3\n        /* \"#utility.yul\":32868:32882   */\n      add\n        /* \"#utility.yul\":32858:32882   */\n      swap2\n      pop\n        /* \"#utility.yul\":32927:32929   */\n      0x20\n        /* \"#utility.yul\":32916:32925   */\n      dup6\n        /* \"#utility.yul\":32912:32930   */\n      add\n        /* \"#utility.yul\":32899:32930   */\n      swap5\n      pop\n        /* \"#utility.yul\":32773:32777   */\n      0x20\n        /* \"#utility.yul\":32770:32771   */\n      dup2\n        /* \"#utility.yul\":32766:32778   */\n      add\n        /* \"#utility.yul\":32761:32778   */\n      swap1\n      pop\n        /* \"#utility.yul\":32736:32944   */\n      jump(tag_917)\n    tag_919:\n        /* \"#utility.yul\":32972:32978   */\n      dup7\n        /* \"#utility.yul\":32963:32970   */\n      dup4\n        /* \"#utility.yul\":32960:32979   */\n      lt\n        /* \"#utility.yul\":32957:33136   */\n      iszero\n      tag_920\n      jumpi\n        /* \"#utility.yul\":33030:33039   */\n      dup5\n        /* \"#utility.yul\":33025:33028   */\n      dup10\n        /* \"#utility.yul\":33021:33040   */\n      add\n        /* \"#utility.yul\":33015:33041   */\n      mload\n        /* \"#utility.yul\":33073:33121   */\n      tag_921\n        /* \"#utility.yul\":33115:33119   */\n      0x1f\n        /* \"#utility.yul\":33107:33113   */\n      dup10\n        /* \"#utility.yul\":33103:33120   */\n      and\n        /* \"#utility.yul\":33092:33101   */\n      dup3\n        /* \"#utility.yul\":33073:33121   */\n      tag_535\n      jump\t// in\n    tag_921:\n        /* \"#utility.yul\":33065:33071   */\n      dup4\n        /* \"#utility.yul\":33058:33122   */\n      sstore\n        /* \"#utility.yul\":32980:33136   */\n      pop\n        /* \"#utility.yul\":32957:33136   */\n    tag_920:\n        /* \"#utility.yul\":33182:33183   */\n      0x01\n        /* \"#utility.yul\":33178:33179   */\n      0x02\n        /* \"#utility.yul\":33170:33176   */\n      dup9\n        /* \"#utility.yul\":33166:33180   */\n      mul\n        /* \"#utility.yul\":33162:33184   */\n      add\n        /* \"#utility.yul\":33156:33160   */\n      dup9\n        /* \"#utility.yul\":33149:33185   */\n      sstore\n        /* \"#utility.yul\":32585:33195   */\n      pop\n      pop\n      pop\n        /* \"#utility.yul\":32548:33434   */\n    tag_912:\n      pop\n        /* \"#utility.yul\":32140:33440   */\n      pop\n      pop\n      pop\n        /* \"#utility.yul\":32050:33440   */\n      pop\n      pop\n      jump\t// out\n        /* \"#utility.yul\":33446:33979   */\n    tag_271:\n        /* \"#utility.yul\":33615:33619   */\n      0x00\n        /* \"#utility.yul\":33653:33655   */\n      0x60\n        /* \"#utility.yul\":33642:33651   */\n      dup3\n        /* \"#utility.yul\":33638:33656   */\n      add\n        /* \"#utility.yul\":33630:33656   */\n      swap1\n      pop\n        /* \"#utility.yul\":33702:33711   */\n      dup2\n        /* \"#utility.yul\":33696:33700   */\n      dup2\n        /* \"#utility.yul\":33692:33712   */\n      sub\n        /* \"#utility.yul\":33688:33689   */\n      0x00\n        /* \"#utility.yul\":33677:33686   */\n      dup4\n        /* \"#utility.yul\":33673:33690   */\n      add\n        /* \"#utility.yul\":33666:33713   */\n      mstore\n        /* \"#utility.yul\":33730:33808   */\n      tag_923\n        /* \"#utility.yul\":33803:33807   */\n      dup2\n        /* \"#utility.yul\":33794:33800   */\n      dup7\n        /* \"#utility.yul\":33730:33808   */\n      tag_464\n      jump\t// in\n    tag_923:\n        /* \"#utility.yul\":33722:33808   */\n      swap1\n      pop\n        /* \"#utility.yul\":33818:33890   */\n      tag_924\n        /* \"#utility.yul\":33886:33888   */\n      0x20\n        /* \"#utility.yul\":33875:33884   */\n      dup4\n        /* \"#utility.yul\":33871:33889   */\n      add\n        /* \"#utility.yul\":33862:33868   */\n      dup6\n        /* \"#utility.yul\":33818:33890   */\n      tag_456\n      jump\t// in\n    tag_924:\n        /* \"#utility.yul\":33900:33972   */\n      tag_925\n        /* \"#utility.yul\":33968:33970   */\n      0x40\n        /* \"#utility.yul\":33957:33966   */\n      dup4\n        /* \"#utility.yul\":33953:33971   */\n      add\n        /* \"#utility.yul\":33944:33950   */\n      dup5\n        /* \"#utility.yul\":33900:33972   */\n      tag_456\n      jump\t// in\n    tag_925:\n        /* \"#utility.yul\":33446:33979   */\n      swap5\n      swap4\n      pop\n      pop\n      pop\n      pop\n      jump\t// out\n        /* \"#utility.yul\":33985:34166   */\n    tag_538:\n        /* \"#utility.yul\":34125:34158   */\n      0x47616d655377617044414f3a20766f74696e67206e6f74207374617274656400\n        /* \"#utility.yul\":34121:34122   */\n      0x00\n        /* \"#utility.yul\":34113:34119   */\n      dup3\n        /* \"#utility.yul\":34109:34123   */\n      add\n        /* \"#utility.yul\":34102:34159   */\n      mstore\n        /* \"#utility.yul\":33985:34166   */\n      pop\n      jump\t// out\n        /* \"#utility.yul\":34172:34538   */\n    tag_539:\n        /* \"#utility.yul\":34314:34317   */\n      0x00\n        /* \"#utility.yul\":34335:34402   */\n      tag_928\n        /* \"#utility.yul\":34399:34401   */\n      0x1f\n        /* \"#utility.yul\":34394:34397   */\n      dup4\n        /* \"#utility.yul\":34335:34402   */\n      tag_461\n      jump\t// in\n    tag_928:\n        /* \"#utility.yul\":34328:34402   */\n      swap2\n      pop\n        /* \"#utility.yul\":34411:34504   */\n      tag_929\n        /* \"#utility.yul\":34500:34503   */\n      dup3\n        /* \"#utility.yul\":34411:34504   */\n      tag_538\n      jump\t// in\n    tag_929:\n        /* \"#utility.yul\":34529:34531   */\n      0x20\n        /* \"#utility.yul\":34524:34527   */\n      dup3\n        /* \"#utility.yul\":34520:34532   */\n      add\n        /* \"#utility.yul\":34513:34532   */\n      swap1\n      pop\n        /* \"#utility.yul\":34172:34538   */\n      swap2\n      swap1\n      pop\n      jump\t// out\n        /* \"#utility.yul\":34544:34963   */\n    tag_278:\n        /* \"#utility.yul\":34710:34714   */\n      0x00\n        /* \"#utility.yul\":34748:34750   */\n      0x20\n        /* \"#utility.yul\":34737:34746   */\n      dup3\n        /* \"#utility.yul\":34733:34751   */\n      add\n        /* \"#utility.yul\":34725:34751   */\n      swap1\n      pop\n        /* \"#utility.yul\":34797:34806   */\n      dup2\n        /* \"#utility.yul\":34791:34795   */\n      dup2\n        /* \"#utility.yul\":34787:34807   */\n      sub\n        /* \"#utility.yul\":34783:34784   */\n      0x00\n        /* \"#utility.yul\":34772:34781   */\n      dup4\n        /* \"#utility.yul\":34768:34785   */\n      add\n        /* \"#utility.yul\":34761:34808   */\n      mstore\n        /* \"#utility.yul\":34825:34956   */\n      tag_931\n        /* \"#utility.yul\":34951:34955   */\n      dup2\n        /* \"#utility.yul\":34825:34956   */\n      tag_539\n      jump\t// in\n    tag_931:\n        /* \"#utility.yul\":34817:34956   */\n      swap1\n      pop\n        /* \"#utility.yul\":34544:34963   */\n      swap2\n      swap1\n      pop\n      jump\t// out\n        /* \"#utility.yul\":34969:35144   */\n    tag_540:\n        /* \"#utility.yul\":35109:35136   */\n      0x47616d655377617044414f3a20766f74696e6720656e64656400000000000000\n        /* \"#utility.yul\":35105:35106   */\n      0x00\n        /* \"#utility.yul\":35097:35103   */\n      dup3\n        /* \"#utility.yul\":35093:35107   */\n      add\n        /* \"#utility.yul\":35086:35137   */\n      mstore\n        /* \"#utility.yul\":34969:35144   */\n      pop\n      jump\t// out\n        /* \"#utility.yul\":35150:35516   */\n    tag_541:\n        /* \"#utility.yul\":35292:35295   */\n      0x00\n        /* \"#utility.yul\":35313:35380   */\n      tag_934\n        /* \"#utility.yul\":35377:35379   */\n      0x19\n        /* \"#utility.yul\":35372:35375   */\n      dup4\n        /* \"#utility.yul\":35313:35380   */\n      tag_461\n      jump\t// in\n    tag_934:\n        /* \"#utility.yul\":35306:35380   */\n      swap2\n      pop\n        /* \"#utility.yul\":35389:35482   */\n      tag_935\n        /* \"#utility.yul\":35478:35481   */\n      dup3\n        /* \"#utility.yul\":35389:35482   */\n      tag_540\n      jump\t// in\n    tag_935:\n        /* \"#utility.yul\":35507:35509   */\n      0x20\n        /* \"#utility.yul\":35502:35505   */\n      dup3\n        /* \"#utility.yul\":35498:35510   */\n      add\n        /* \"#utility.yul\":35491:35510   */\n      swap1\n      pop\n        /* \"#utility.yul\":35150:35516   */\n      swap2\n      swap1\n      pop\n      jump\t// out\n        /* \"#utility.yul\":35522:35941   */\n    tag_281:\n        /* \"#utility.yul\":35688:35692   */\n      0x00\n        /* \"#utility.yul\":35726:35728   */\n      0x20\n        /* \"#utility.yul\":35715:35724   */\n      dup3\n        /* \"#utility.yul\":35711:35729   */\n      add\n        /* \"#utility.yul\":35703:35729   */\n      swap1\n      pop\n        /* \"#utility.yul\":35775:35784   */\n      dup2\n        /* \"#utility.yul\":35769:35773   */\n      dup2\n        /* \"#utility.yul\":35765:35785   */\n      sub\n        /* \"#utility.yul\":35761:35762   */\n      0x00\n        /* \"#utility.yul\":35750:35759   */\n      dup4\n        /* \"#utility.yul\":35746:35763   */\n      add\n        /* \"#utility.yul\":35739:35786   */\n      mstore\n        /* \"#utility.yul\":35803:35934   */\n      tag_937\n        /* \"#utility.yul\":35929:35933   */\n      dup2\n        /* \"#utility.yul\":35803:35934   */\n      tag_541\n      jump\t// in\n    tag_937:\n        /* \"#utility.yul\":35795:35934   */\n      swap1\n      pop\n        /* \"#utility.yul\":35522:35941   */\n      swap2\n      swap1\n      pop\n      jump\t// out\n        /* \"#utility.yul\":35947:36172   */\n    tag_542:\n        /* \"#utility.yul\":36087:36121   */\n      0x47616d655377617044414f3a2070726f706f73616c20616c7265616479206578\n        /* \"#utility.yul\":36083:36084   */\n      0x00\n        /* \"#utility.yul\":36075:36081   */\n      dup3\n        /* \"#utility.yul\":36071:36085   */\n      add\n        /* \"#utility.yul\":36064:36122   */\n      mstore\n        /* \"#utility.yul\":36156:36164   */\n      0x6563757465640000000000000000000000000000000000000000000000000000\n        /* \"#utility.yul\":36151:36153   */\n      0x20\n        /* \"#utility.yul\":36143:36149   */\n      dup3\n        /* \"#utility.yul\":36139:36154   */\n      add\n        /* \"#utility.yul\":36132:36165   */\n      mstore\n        /* \"#utility.yul\":35947:36172   */\n      pop\n      jump\t// out\n        /* \"#utility.yul\":36178:36544   */\n    tag_543:\n        /* \"#utility.yul\":36320:36323   */\n      0x00\n        /* \"#utility.yul\":36341:36408   */\n      tag_940\n        /* \"#utility.yul\":36405:36407   */\n      0x26\n        /* \"#utility.yul\":36400:36403   */\n      dup4\n        /* \"#utility.yul\":36341:36408   */\n      tag_461\n      jump\t// in\n    tag_940:\n        /* \"#utility.yul\":36334:36408   */\n      swap2\n      pop\n        /* \"#utility.yul\":36417:36510   */\n      tag_941\n        /* \"#utility.yul\":36506:36509   */\n      dup3\n        /* \"#utility.yul\":36417:36510   */\n      tag_542\n      jump\t// in\n    tag_941:\n        /* \"#utility.yul\":36535:36537   */\n      0x40\n        /* \"#utility.yul\":36530:36533   */\n      dup3\n        /* \"#utility.yul\":36526:36538   */\n      add\n        /* \"#utility.yul\":36519:36538   */\n      swap1\n      pop\n        /* \"#utility.yul\":36178:36544   */\n      swap2\n      swap1\n      pop\n      jump\t// out\n        /* \"#utility.yul\":36550:36969   */\n    tag_284:\n        /* \"#utility.yul\":36716:36720   */\n      0x00\n        /* \"#utility.yul\":36754:36756   */\n      0x20\n        /* \"#utility.yul\":36743:36752   */\n      dup3\n        /* \"#utility.yul\":36739:36757   */\n      add\n        /* \"#utility.yul\":36731:36757   */\n      swap1\n      pop\n        /* \"#utility.yul\":36803:36812   */\n      dup2\n        /* \"#utility.yul\":36797:36801   */\n      dup2\n        /* \"#utility.yul\":36793:36813   */\n      sub\n        /* \"#utility.yul\":36789:36790   */\n      0x00\n        /* \"#utility.yul\":36778:36787   */\n      dup4\n        /* \"#utility.yul\":36774:36791   */\n      add\n        /* \"#utility.yul\":36767:36814   */\n      mstore\n        /* \"#utility.yul\":36831:36962   */\n      tag_943\n        /* \"#utility.yul\":36957:36961   */\n      dup2\n        /* \"#utility.yul\":36831:36962   */\n      tag_543\n      jump\t// in\n    tag_943:\n        /* \"#utility.yul\":36823:36962   */\n      swap1\n      pop\n        /* \"#utility.yul\":36550:36969   */\n      swap2\n      swap1\n      pop\n      jump\t// out\n        /* \"#utility.yul\":36975:37151   */\n    tag_544:\n        /* \"#utility.yul\":37115:37143   */\n      0x47616d655377617044414f3a20616c726561647920766f746564000000000000\n        /* \"#utility.yul\":37111:37112   */\n      0x00\n        /* \"#utility.yul\":37103:37109   */\n      dup3\n        /* \"#utility.yul\":37099:37113   */\n      add\n        /* \"#utility.yul\":37092:37144   */\n      mstore\n        /* \"#utility.yul\":36975:37151   */\n      pop\n      jump\t// out\n        /* \"#utility.yul\":37157:37523   */\n    tag_545:\n        /* \"#utility.yul\":37299:37302   */\n      0x00\n        /* \"#utility.yul\":37320:37387   */\n      tag_946\n        /* \"#utility.yul\":37384:37386   */\n      0x1a\n        /* \"#utility.yul\":37379:37382   */\n      dup4\n        /* \"#utility.yul\":37320:37387   */\n      tag_461\n      jump\t// in\n    tag_946:\n        /* \"#utility.yul\":37313:37387   */\n      swap2\n      pop\n        /* \"#utility.yul\":37396:37489   */\n      tag_947\n        /* \"#utility.yul\":37485:37488   */\n      dup3\n        /* \"#utility.yul\":37396:37489   */\n      tag_544\n      jump\t// in\n    tag_947:\n        /* \"#utility.yul\":37514:37516   */\n      0x20\n        /* \"#utility.yul\":37509:37512   */\n      dup3\n        /* \"#utility.yul\":37505:37517   */\n      add\n        /* \"#utility.yul\":37498:37517   */\n      swap1\n      pop\n        /* \"#utility.yul\":37157:37523   */\n      swap2\n      swap1\n      pop\n      jump\t// out\n        /* \"#utility.yul\":37529:37948   */\n    tag_289:\n        /* \"#utility.yul\":37695:37699   */\n      0x00\n        /* \"#utility.yul\":37733:37735   */\n      0x20\n        /* \"#utility.yul\":37722:37731   */\n      dup3\n        /* \"#utility.yul\":37718:37736   */\n      add\n        /* \"#utility.yul\":37710:37736   */\n      swap1\n      pop\n        /* \"#utility.yul\":37782:37791   */\n      dup2\n        /* \"#utility.yul\":37776:37780   */\n      dup2\n        /* \"#utility.yul\":37772:37792   */\n      sub\n        /* \"#utility.yul\":37768:37769   */\n      0x00\n        /* \"#utility.yul\":37757:37766   */\n      dup4\n        /* \"#utility.yul\":37753:37770   */\n      add\n        /* \"#utility.yul\":37746:37793   */\n      mstore\n        /* \"#utility.yul\":37810:37941   */\n      tag_949\n        /* \"#utility.yul\":37936:37940   */\n      dup2\n        /* \"#utility.yul\":37810:37941   */\n      tag_545\n      jump\t// in\n    tag_949:\n        /* \"#utility.yul\":37802:37941   */\n      swap1\n      pop\n        /* \"#utility.yul\":37529:37948   */\n      swap2\n      swap1\n      pop\n      jump\t// out\n        /* \"#utility.yul\":37954:38097   */\n    tag_546:\n        /* \"#utility.yul\":38011:38016   */\n      0x00\n        /* \"#utility.yul\":38042:38048   */\n      dup2\n        /* \"#utility.yul\":38036:38049   */\n      mload\n        /* \"#utility.yul\":38027:38049   */\n      swap1\n      pop\n        /* \"#utility.yul\":38058:38091   */\n      tag_951\n        /* \"#utility.yul\":38085:38090   */\n      dup2\n        /* \"#utility.yul\":38058:38091   */\n      tag_490\n      jump\t// in\n    tag_951:\n        /* \"#utility.yul\":37954:38097   */\n      swap3\n      swap2\n      pop\n      pop\n      jump\t// out\n        /* \"#utility.yul\":38103:38454   */\n    tag_293:\n        /* \"#utility.yul\":38173:38179   */\n      0x00\n        /* \"#utility.yul\":38222:38224   */\n      0x20\n        /* \"#utility.yul\":38210:38219   */\n      dup3\n        /* \"#utility.yul\":38201:38208   */\n      dup5\n        /* \"#utility.yul\":38197:38220   */\n      sub\n        /* \"#utility.yul\":38193:38225   */\n      slt\n        /* \"#utility.yul\":38190:38309   */\n      iszero\n      tag_953\n      jumpi\n        /* \"#utility.yul\":38228:38307   */\n      tag_954\n      tag_451\n      jump\t// in\n    tag_954:\n        /* \"#utility.yul\":38190:38309   */\n    tag_953:\n        /* \"#utility.yul\":38348:38349   */\n      0x00\n        /* \"#utility.yul\":38373:38437   */\n      tag_955\n        /* \"#utility.yul\":38429:38436   */\n      dup5\n        /* \"#utility.yul\":38420:38426   */\n      dup3\n        /* \"#utility.yul\":38409:38418   */\n      dup6\n        /* \"#utility.yul\":38405:38427   */\n      add\n        /* \"#utility.yul\":38373:38437   */\n      tag_546\n      jump\t// in\n    tag_955:\n        /* \"#utility.yul\":38363:38437   */\n      swap2\n      pop\n        /* \"#utility.yul\":38319:38447   */\n      pop\n        /* \"#utility.yul\":38103:38454   */\n      swap3\n      swap2\n      pop\n      pop\n      jump\t// out\n        /* \"#utility.yul\":38460:38792   */\n    tag_295:\n        /* \"#utility.yul\":38581:38585   */\n      0x00\n        /* \"#utility.yul\":38619:38621   */\n      0x40\n        /* \"#utility.yul\":38608:38617   */\n      dup3\n        /* \"#utility.yul\":38604:38622   */\n      add\n        /* \"#utility.yul\":38596:38622   */\n      swap1\n      pop\n        /* \"#utility.yul\":38632:38703   */\n      tag_957\n        /* \"#utility.yul\":38700:38701   */\n      0x00\n        /* \"#utility.yul\":38689:38698   */\n      dup4\n        /* \"#utility.yul\":38685:38702   */\n      add\n        /* \"#utility.yul\":38676:38682   */\n      dup6\n        /* \"#utility.yul\":38632:38703   */\n      tag_492\n      jump\t// in\n    tag_957:\n        /* \"#utility.yul\":38713:38785   */\n      tag_958\n        /* \"#utility.yul\":38781:38783   */\n      0x20\n        /* \"#utility.yul\":38770:38779   */\n      dup4\n        /* \"#utility.yul\":38766:38784   */\n      add\n        /* \"#utility.yul\":38757:38763   */\n      dup5\n        /* \"#utility.yul\":38713:38785   */\n      tag_459\n      jump\t// in\n    tag_958:\n        /* \"#utility.yul\":38460:38792   */\n      swap4\n      swap3\n      pop\n      pop\n      pop\n      jump\t// out\n        /* \"#utility.yul\":38798:38935   */\n    tag_547:\n        /* \"#utility.yul\":38852:38857   */\n      0x00\n        /* \"#utility.yul\":38883:38889   */\n      dup2\n        /* \"#utility.yul\":38877:38890   */\n      mload\n        /* \"#utility.yul\":38868:38890   */\n      swap1\n      pop\n        /* \"#utility.yul\":38899:38929   */\n      tag_960\n        /* \"#utility.yul\":38923:38928   */\n      dup2\n        /* \"#utility.yul\":38899:38929   */\n      tag_487\n      jump\t// in\n    tag_960:\n        /* \"#utility.yul\":38798:38935   */\n      swap3\n      swap2\n      pop\n      pop\n      jump\t// out\n        /* \"#utility.yul\":38941:39286   */\n    tag_299:\n        /* \"#utility.yul\":39008:39014   */\n      0x00\n        /* \"#utility.yul\":39057:39059   */\n      0x20\n        /* \"#utility.yul\":39045:39054   */\n      dup3\n        /* \"#utility.yul\":39036:39043   */\n      dup5\n        /* \"#utility.yul\":39032:39055   */\n      sub\n        /* \"#utility.yul\":39028:39060   */\n      slt\n        /* \"#utility.yul\":39025:39144   */\n      iszero\n      tag_962\n      jumpi\n        /* \"#utility.yul\":39063:39142   */\n      tag_963\n      tag_451\n      jump\t// in\n    tag_963:\n        /* \"#utility.yul\":39025:39144   */\n    tag_962:\n        /* \"#utility.yul\":39183:39184   */\n      0x00\n        /* \"#utility.yul\":39208:39269   */\n      tag_964\n        /* \"#utility.yul\":39261:39268   */\n      dup5\n        /* \"#utility.yul\":39252:39258   */\n      dup3\n        /* \"#utility.yul\":39241:39250   */\n      dup6\n        /* \"#utility.yul\":39237:39259   */\n      add\n        /* \"#utility.yul\":39208:39269   */\n      tag_547\n      jump\t// in\n    tag_964:\n        /* \"#utility.yul\":39198:39269   */\n      swap2\n      pop\n        /* \"#utility.yul\":39154:39279   */\n      pop\n        /* \"#utility.yul\":38941:39286   */\n      swap3\n      swap2\n      pop\n      pop\n      jump\t// out\n        /* \"#utility.yul\":39292:39513   */\n    tag_548:\n        /* \"#utility.yul\":39432:39466   */\n      0x47616d655377617044414f3a206f6e6c79207374616b6572732063616e20766f\n        /* \"#utility.yul\":39428:39429   */\n      0x00\n        /* \"#utility.yul\":39420:39426   */\n      dup3\n        /* \"#utility.yul\":39416:39430   */\n      add\n        /* \"#utility.yul\":39409:39467   */\n      mstore\n        /* \"#utility.yul\":39501:39505   */\n      0x7465000000000000000000000000000000000000000000000000000000000000\n        /* \"#utility.yul\":39496:39498   */\n      0x20\n        /* \"#utility.yul\":39488:39494   */\n      dup3\n        /* \"#utility.yul\":39484:39499   */\n      add\n        /* \"#utility.yul\":39477:39506   */\n      mstore\n        /* \"#utility.yul\":39292:39513   */\n      pop\n      jump\t// out\n        /* \"#utility.yul\":39519:39885   */\n    tag_549:\n        /* \"#utility.yul\":39661:39664   */\n      0x00\n        /* \"#utility.yul\":39682:39749   */\n      tag_967\n        /* \"#utility.yul\":39746:39748   */\n      0x22\n        /* \"#utility.yul\":39741:39744   */\n      dup4\n        /* \"#utility.yul\":39682:39749   */\n      tag_461\n      jump\t// in\n    tag_967:\n        /* \"#utility.yul\":39675:39749   */\n      swap2\n      pop\n        /* \"#utility.yul\":39758:39851   */\n      tag_968\n        /* \"#utility.yul\":39847:39850   */\n      dup3\n        /* \"#utility.yul\":39758:39851   */\n      tag_548\n      jump\t// in\n    tag_968:\n        /* \"#utility.yul\":39876:39878   */\n      0x40\n        /* \"#utility.yul\":39871:39874   */\n      dup3\n        /* \"#utility.yul\":39867:39879   */\n      add\n        /* \"#utility.yul\":39860:39879   */\n      swap1\n      pop\n        /* \"#utility.yul\":39519:39885   */\n      swap2\n      swap1\n      pop\n      jump\t// out\n        /* \"#utility.yul\":39891:40310   */\n    tag_302:\n        /* \"#utility.yul\":40057:40061   */\n      0x00\n        /* \"#utility.yul\":40095:40097   */\n      0x20\n        /* \"#utility.yul\":40084:40093   */\n      dup3\n        /* \"#utility.yul\":40080:40098   */\n      add\n        /* \"#utility.yul\":40072:40098   */\n      swap1\n      pop\n        /* \"#utility.yul\":40144:40153   */\n      dup2\n        /* \"#utility.yul\":40138:40142   */\n      dup2\n        /* \"#utility.yul\":40134:40154   */\n      sub\n        /* \"#utility.yul\":40130:40131   */\n      0x00\n        /* \"#utility.yul\":40119:40128   */\n      dup4\n        /* \"#utility.yul\":40115:40132   */\n      add\n        /* \"#utility.yul\":40108:40155   */\n      mstore\n        /* \"#utility.yul\":40172:40303   */\n      tag_970\n        /* \"#utility.yul\":40298:40302   */\n      dup2\n        /* \"#utility.yul\":40172:40303   */\n      tag_549\n      jump\t// in\n    tag_970:\n        /* \"#utility.yul\":40164:40303   */\n      swap1\n      pop\n        /* \"#utility.yul\":39891:40310   */\n      swap2\n      swap1\n      pop\n      jump\t// out\n        /* \"#utility.yul\":40316:40495   */\n    tag_550:\n        /* \"#utility.yul\":40456:40487   */\n      0x47616d655377617044414f3a206e6f207374616b656420746f6b656e73000000\n        /* \"#utility.yul\":40452:40453   */\n      0x00\n        /* \"#utility.yul\":40444:40450   */\n      dup3\n        /* \"#utility.yul\":40440:40454   */\n      add\n        /* \"#utility.yul\":40433:40488   */\n      mstore\n        /* \"#utility.yul\":40316:40495   */\n      pop\n      jump\t// out\n        /* \"#utility.yul\":40501:40867   */\n    tag_551:\n        /* \"#utility.yul\":40643:40646   */\n      0x00\n        /* \"#utility.yul\":40664:40731   */\n      tag_973\n        /* \"#utility.yul\":40728:40730   */\n      0x1d\n        /* \"#utility.yul\":40723:40726   */\n      dup4\n        /* \"#utility.yul\":40664:40731   */\n      tag_461\n      jump\t// in\n    tag_973:\n        /* \"#utility.yul\":40657:40731   */\n      swap2\n      pop\n        /* \"#utility.yul\":40740:40833   */\n      tag_974\n        /* \"#utility.yul\":40829:40832   */\n      dup3\n        /* \"#utility.yul\":40740:40833   */\n      tag_550\n      jump\t// in\n    tag_974:\n        /* \"#utility.yul\":40858:40860   */\n      0x20\n        /* \"#utility.yul\":40853:40856   */\n      dup3\n        /* \"#utility.yul\":40849:40861   */\n      add\n        /* \"#utility.yul\":40842:40861   */\n      swap1\n      pop\n        /* \"#utility.yul\":40501:40867   */\n      swap2\n      swap1\n      pop\n      jump\t// out\n        /* \"#utility.yul\":40873:41292   */\n    tag_309:\n        /* \"#utility.yul\":41039:41043   */\n      0x00\n        /* \"#utility.yul\":41077:41079   */\n      0x20\n        /* \"#utility.yul\":41066:41075   */\n      dup3\n        /* \"#utility.yul\":41062:41080   */\n      add\n        /* \"#utility.yul\":41054:41080   */\n      swap1\n      pop\n        /* \"#utility.yul\":41126:41135   */\n      dup2\n        /* \"#utility.yul\":41120:41124   */\n      dup2\n        /* \"#utility.yul\":41116:41136   */\n      sub\n        /* \"#utility.yul\":41112:41113   */\n      0x00\n        /* \"#utility.yul\":41101:41110   */\n      dup4\n        /* \"#utility.yul\":41097:41114   */\n      add\n        /* \"#utility.yul\":41090:41137   */\n      mstore\n        /* \"#utility.yul\":41154:41285   */\n      tag_976\n        /* \"#utility.yul\":41280:41284   */\n      dup2\n        /* \"#utility.yul\":41154:41285   */\n      tag_551\n      jump\t// in\n    tag_976:\n        /* \"#utility.yul\":41146:41285   */\n      swap1\n      pop\n        /* \"#utility.yul\":40873:41292   */\n      swap2\n      swap1\n      pop\n      jump\t// out\n        /* \"#utility.yul\":41298:41618   */\n    tag_317:\n        /* \"#utility.yul\":41413:41417   */\n      0x00\n        /* \"#utility.yul\":41451:41453   */\n      0x40\n        /* \"#utility.yul\":41440:41449   */\n      dup3\n        /* \"#utility.yul\":41436:41454   */\n      add\n        /* \"#utility.yul\":41428:41454   */\n      swap1\n      pop\n        /* \"#utility.yul\":41464:41529   */\n      tag_978\n        /* \"#utility.yul\":41526:41527   */\n      0x00\n        /* \"#utility.yul\":41515:41524   */\n      dup4\n        /* \"#utility.yul\":41511:41528   */\n      add\n        /* \"#utility.yul\":41502:41508   */\n      dup6\n        /* \"#utility.yul\":41464:41529   */\n      tag_466\n      jump\t// in\n    tag_978:\n        /* \"#utility.yul\":41539:41611   */\n      tag_979\n        /* \"#utility.yul\":41607:41609   */\n      0x20\n        /* \"#utility.yul\":41596:41605   */\n      dup4\n        /* \"#utility.yul\":41592:41610   */\n      add\n        /* \"#utility.yul\":41583:41589   */\n      dup5\n        /* \"#utility.yul\":41539:41611   */\n      tag_456\n      jump\t// in\n    tag_979:\n        /* \"#utility.yul\":41298:41618   */\n      swap4\n      swap3\n      pop\n      pop\n      pop\n      jump\t// out\n        /* \"#utility.yul\":41624:41806   */\n    tag_552:\n        /* \"#utility.yul\":41764:41798   */\n      0x47616d655377617044414f3a2063616c6c6572206973206e6f742061646d696e\n        /* \"#utility.yul\":41760:41761   */\n      0x00\n        /* \"#utility.yul\":41752:41758   */\n      dup3\n        /* \"#utility.yul\":41748:41762   */\n      add\n        /* \"#utility.yul\":41741:41799   */\n      mstore\n        /* \"#utility.yul\":41624:41806   */\n      pop\n      jump\t// out\n        /* \"#utility.yul\":41812:42178   */\n    tag_553:\n        /* \"#utility.yul\":41954:41957   */\n      0x00\n        /* \"#utility.yul\":41975:42042   */\n      tag_982\n        /* \"#utility.yul\":42039:42041   */\n      0x20\n        /* \"#utility.yul\":42034:42037   */\n      dup4\n        /* \"#utility.yul\":41975:42042   */\n      tag_461\n      jump\t// in\n    tag_982:\n        /* \"#utility.yul\":41968:42042   */\n      swap2\n      pop\n        /* \"#utility.yul\":42051:42144   */\n      tag_983\n        /* \"#utility.yul\":42140:42143   */\n      dup3\n        /* \"#utility.yul\":42051:42144   */\n      tag_552\n      jump\t// in\n    tag_983:\n        /* \"#utility.yul\":42169:42171   */\n      0x20\n        /* \"#utility.yul\":42164:42167   */\n      dup3\n        /* \"#utility.yul\":42160:42172   */\n      add\n        /* \"#utility.yul\":42153:42172   */\n      swap1\n      pop\n        /* \"#utility.yul\":41812:42178   */\n      swap2\n      swap1\n      pop\n      jump\t// out\n        /* \"#utility.yul\":42184:42603   */\n    tag_338:\n        /* \"#utility.yul\":42350:42354   */\n      0x00\n        /* \"#utility.yul\":42388:42390   */\n      0x20\n        /* \"#utility.yul\":42377:42386   */\n      dup3\n        /* \"#utility.yul\":42373:42391   */\n      add\n        /* \"#utility.yul\":42365:42391   */\n      swap1\n      pop\n        /* \"#utility.yul\":42437:42446   */\n      dup2\n        /* \"#utility.yul\":42431:42435   */\n      dup2\n        /* \"#utility.yul\":42427:42447   */\n      sub\n        /* \"#utility.yul\":42423:42424   */\n      0x00\n        /* \"#utility.yul\":42412:42421   */\n      dup4\n        /* \"#utility.yul\":42408:42425   */\n      add\n        /* \"#utility.yul\":42401:42448   */\n      mstore\n        /* \"#utility.yul\":42465:42596   */\n      tag_985\n        /* \"#utility.yul\":42591:42595   */\n      dup2\n        /* \"#utility.yul\":42465:42596   */\n      tag_553\n      jump\t// in\n    tag_985:\n        /* \"#utility.yul\":42457:42596   */\n      swap1\n      pop\n        /* \"#utility.yul\":42184:42603   */\n      swap2\n      swap1\n      pop\n      jump\t// out\n        /* \"#utility.yul\":42609:42829   */\n    tag_554:\n        /* \"#utility.yul\":42749:42783   */\n      0x47616d655377617044414f3a20696e73756666696369656e742062616c616e63\n        /* \"#utility.yul\":42745:42746   */\n      0x00\n        /* \"#utility.yul\":42737:42743   */\n      dup3\n        /* \"#utility.yul\":42733:42747   */\n      add\n        /* \"#utility.yul\":42726:42784   */\n      mstore\n        /* \"#utility.yul\":42818:42821   */\n      0x6500000000000000000000000000000000000000000000000000000000000000\n        /* \"#utility.yul\":42813:42815   */\n      0x20\n        /* \"#utility.yul\":42805:42811   */\n      dup3\n        /* \"#utility.yul\":42801:42816   */\n      add\n        /* \"#utility.yul\":42794:42822   */\n      mstore\n        /* \"#utility.yul\":42609:42829   */\n      pop\n      jump\t// out\n        /* \"#utility.yul\":42835:43201   */\n    tag_555:\n        /* \"#utility.yul\":42977:42980   */\n      0x00\n        /* \"#utility.yul\":42998:43065   */\n      tag_988\n        /* \"#utility.yul\":43062:43064   */\n      0x21\n        /* \"#utility.yul\":43057:43060   */\n      dup4\n        /* \"#utility.yul\":42998:43065   */\n      tag_461\n      jump\t// in\n    tag_988:\n        /* \"#utility.yul\":42991:43065   */\n      swap2\n      pop\n        /* \"#utility.yul\":43074:43167   */\n      tag_989\n        /* \"#utility.yul\":43163:43166   */\n      dup3\n        /* \"#utility.yul\":43074:43167   */\n      tag_554\n      jump\t// in\n    tag_989:\n        /* \"#utility.yul\":43192:43194   */\n      0x40\n        /* \"#utility.yul\":43187:43190   */\n      dup3\n        /* \"#utility.yul\":43183:43195   */\n      add\n        /* \"#utility.yul\":43176:43195   */\n      swap1\n      pop\n        /* \"#utility.yul\":42835:43201   */\n      swap2\n      swap1\n      pop\n      jump\t// out\n        /* \"#utility.yul\":43207:43626   */\n    tag_341:\n        /* \"#utility.yul\":43373:43377   */\n      0x00\n        /* \"#utility.yul\":43411:43413   */\n      0x20\n        /* \"#utility.yul\":43400:43409   */\n      dup3\n        /* \"#utility.yul\":43396:43414   */\n      add\n        /* \"#utility.yul\":43388:43414   */\n      swap1\n      pop\n        /* \"#utility.yul\":43460:43469   */\n      dup2\n        /* \"#utility.yul\":43454:43458   */\n      dup2\n        /* \"#utility.yul\":43450:43470   */\n      sub\n        /* \"#utility.yul\":43446:43447   */\n      0x00\n        /* \"#utility.yul\":43435:43444   */\n      dup4\n        /* \"#utility.yul\":43431:43448   */\n      add\n        /* \"#utility.yul\":43424:43471   */\n      mstore\n        /* \"#utility.yul\":43488:43619   */\n      tag_991\n        /* \"#utility.yul\":43614:43618   */\n      dup2\n        /* \"#utility.yul\":43488:43619   */\n      tag_555\n      jump\t// in\n    tag_991:\n        /* \"#utility.yul\":43480:43619   */\n      swap1\n      pop\n        /* \"#utility.yul\":43207:43626   */\n      swap2\n      swap1\n      pop\n      jump\t// out\n        /* \"#utility.yul\":43632:43799   */\n    tag_556:\n        /* \"#utility.yul\":43772:43791   */\n      0x656d657267656e63795769746864726177000000000000000000000000000000\n        /* \"#utility.yul\":43768:43769   */\n      0x00\n        /* \"#utility.yul\":43760:43766   */\n      dup3\n        /* \"#utility.yul\":43756:43770   */\n      add\n        /* \"#utility.yul\":43749:43792   */\n      mstore\n        /* \"#utility.yul\":43632:43799   */\n      pop\n      jump\t// out\n        /* \"#utility.yul\":43805:44171   */\n    tag_557:\n        /* \"#utility.yul\":43947:43950   */\n      0x00\n        /* \"#utility.yul\":43968:44035   */\n      tag_994\n        /* \"#utility.yul\":44032:44034   */\n      0x11\n        /* \"#utility.yul\":44027:44030   */\n      dup4\n        /* \"#utility.yul\":43968:44035   */\n      tag_461\n      jump\t// in\n    tag_994:\n        /* \"#utility.yul\":43961:44035   */\n      swap2\n      pop\n        /* \"#utility.yul\":44044:44137   */\n      tag_995\n        /* \"#utility.yul\":44133:44136   */\n      dup3\n        /* \"#utility.yul\":44044:44137   */\n      tag_556\n      jump\t// in\n    tag_995:\n        /* \"#utility.yul\":44162:44164   */\n      0x20\n        /* \"#utility.yul\":44157:44160   */\n      dup3\n        /* \"#utility.yul\":44153:44165   */\n      add\n        /* \"#utility.yul\":44146:44165   */\n      swap1\n      pop\n        /* \"#utility.yul\":43805:44171   */\n      swap2\n      swap1\n      pop\n      jump\t// out\n        /* \"#utility.yul\":44177:44706   */\n    tag_345:\n        /* \"#utility.yul\":44371:44375   */\n      0x00\n        /* \"#utility.yul\":44409:44411   */\n      0x40\n        /* \"#utility.yul\":44398:44407   */\n      dup3\n        /* \"#utility.yul\":44394:44412   */\n      add\n        /* \"#utility.yul\":44386:44412   */\n      swap1\n      pop\n        /* \"#utility.yul\":44458:44467   */\n      dup2\n        /* \"#utility.yul\":44452:44456   */\n      dup2\n        /* \"#utility.yul\":44448:44468   */\n      sub\n        /* \"#utility.yul\":44444:44445   */\n      0x00\n        /* \"#utility.yul\":44433:44442   */\n      dup4\n        /* \"#utility.yul\":44429:44446   */\n      add\n        /* \"#utility.yul\":44422:44469   */\n      mstore\n        /* \"#utility.yul\":44486:44617   */\n      tag_997\n        /* \"#utility.yul\":44612:44616   */\n      dup2\n        /* \"#utility.yul\":44486:44617   */\n      tag_557\n      jump\t// in\n    tag_997:\n        /* \"#utility.yul\":44478:44617   */\n      swap1\n      pop\n        /* \"#utility.yul\":44627:44699   */\n      tag_998\n        /* \"#utility.yul\":44695:44697   */\n      0x20\n        /* \"#utility.yul\":44684:44693   */\n      dup4\n        /* \"#utility.yul\":44680:44698   */\n      add\n        /* \"#utility.yul\":44671:44677   */\n      dup5\n        /* \"#utility.yul\":44627:44699   */\n      tag_456\n      jump\t// in\n    tag_998:\n        /* \"#utility.yul\":44177:44706   */\n      swap3\n      swap2\n      pop\n      pop\n      jump\t// out\n        /* \"#utility.yul\":44712:45044   */\n    tag_352:\n        /* \"#utility.yul\":44833:44837   */\n      0x00\n        /* \"#utility.yul\":44871:44873   */\n      0x40\n        /* \"#utility.yul\":44860:44869   */\n      dup3\n        /* \"#utility.yul\":44856:44874   */\n      add\n        /* \"#utility.yul\":44848:44874   */\n      swap1\n      pop\n        /* \"#utility.yul\":44884:44955   */\n      tag_1000\n        /* \"#utility.yul\":44952:44953   */\n      0x00\n        /* \"#utility.yul\":44941:44950   */\n      dup4\n        /* \"#utility.yul\":44937:44954   */\n      add\n        /* \"#utility.yul\":44928:44934   */\n      dup6\n        /* \"#utility.yul\":44884:44955   */\n      tag_456\n      jump\t// in\n    tag_1000:\n        /* \"#utility.yul\":44965:45037   */\n      tag_1001\n        /* \"#utility.yul\":45033:45035   */\n      0x20\n        /* \"#utility.yul\":45022:45031   */\n      dup4\n        /* \"#utility.yul\":45018:45036   */\n      add\n        /* \"#utility.yul\":45009:45015   */\n      dup5\n        /* \"#utility.yul\":44965:45037   */\n      tag_456\n      jump\t// in\n    tag_1001:\n        /* \"#utility.yul\":44712:45044   */\n      swap4\n      swap3\n      pop\n      pop\n      pop\n      jump\t// out\n        /* \"#utility.yul\":45050:45227   */\n    tag_558:\n        /* \"#utility.yul\":45190:45219   */\n      0x47616d655377617044414f3a20696e76616c69642071756f72756d0000000000\n        /* \"#utility.yul\":45186:45187   */\n      0x00\n        /* \"#utility.yul\":45178:45184   */\n      dup3\n        /* \"#utility.yul\":45174:45188   */\n      add\n        /* \"#utility.yul\":45167:45220   */\n      mstore\n        /* \"#utility.yul\":45050:45227   */\n      pop\n      jump\t// out\n        /* \"#utility.yul\":45233:45599   */\n    tag_559:\n        /* \"#utility.yul\":45375:45378   */\n      0x00\n        /* \"#utility.yul\":45396:45463   */\n      tag_1004\n        /* \"#utility.yul\":45460:45462   */\n      0x1b\n        /* \"#utility.yul\":45455:45458   */\n      dup4\n        /* \"#utility.yul\":45396:45463   */\n      tag_461\n      jump\t// in\n    tag_1004:\n        /* \"#utility.yul\":45389:45463   */\n      swap2\n      pop\n        /* \"#utility.yul\":45472:45565   */\n      tag_1005\n        /* \"#utility.yul\":45561:45564   */\n      dup3\n        /* \"#utility.yul\":45472:45565   */\n      tag_558\n      jump\t// in\n    tag_1005:\n        /* \"#utility.yul\":45590:45592   */\n      0x20\n        /* \"#utility.yul\":45585:45588   */\n      dup3\n        /* \"#utility.yul\":45581:45593   */\n      add\n        /* \"#utility.yul\":45574:45593   */\n      swap1\n      pop\n        /* \"#utility.yul\":45233:45599   */\n      swap2\n      swap1\n      pop\n      jump\t// out\n        /* \"#utility.yul\":45605:46024   */\n    tag_360:\n        /* \"#utility.yul\":45771:45775   */\n      0x00\n        /* \"#utility.yul\":45809:45811   */\n      0x20\n        /* \"#utility.yul\":45798:45807   */\n      dup3\n        /* \"#utility.yul\":45794:45812   */\n      add\n        /* \"#utility.yul\":45786:45812   */\n      swap1\n      pop\n        /* \"#utility.yul\":45858:45867   */\n      dup2\n        /* \"#utility.yul\":45852:45856   */\n      dup2\n        /* \"#utility.yul\":45848:45868   */\n      sub\n        /* \"#utility.yul\":45844:45845   */\n      0x00\n        /* \"#utility.yul\":45833:45842   */\n      dup4\n        /* \"#utility.yul\":45829:45846   */\n      add\n        /* \"#utility.yul\":45822:45869   */\n      mstore\n        /* \"#utility.yul\":45886:46017   */\n      tag_1007\n        /* \"#utility.yul\":46012:46016   */\n      dup2\n        /* \"#utility.yul\":45886:46017   */\n      tag_559\n      jump\t// in\n    tag_1007:\n        /* \"#utility.yul\":45878:46017   */\n      swap1\n      pop\n        /* \"#utility.yul\":45605:46024   */\n      swap2\n      swap1\n      pop\n      jump\t// out\n        /* \"#utility.yul\":46030:46255   */\n    tag_560:\n        /* \"#utility.yul\":46170:46204   */\n      0x47616d655377617044414f3a2063616c6c6572206973206e6f74206d61726b65\n        /* \"#utility.yul\":46166:46167   */\n      0x00\n        /* \"#utility.yul\":46158:46164   */\n      dup3\n        /* \"#utility.yul\":46154:46168   */\n      add\n        /* \"#utility.yul\":46147:46205   */\n      mstore\n        /* \"#utility.yul\":46239:46247   */\n      0x74706c6163650000000000000000000000000000000000000000000000000000\n        /* \"#utility.yul\":46234:46236   */\n      0x20\n        /* \"#utility.yul\":46226:46232   */\n      dup3\n        /* \"#utility.yul\":46222:46237   */\n      add\n        /* \"#utility.yul\":46215:46248   */\n      mstore\n        /* \"#utility.yul\":46030:46255   */\n      pop\n      jump\t// out\n        /* \"#utility.yul\":46261:46627   */\n    tag_561:\n        /* \"#utility.yul\":46403:46406   */\n      0x00\n        /* \"#utility.yul\":46424:46491   */\n      tag_1010\n        /* \"#utility.yul\":46488:46490   */\n      0x26\n        /* \"#utility.yul\":46483:46486   */\n      dup4\n        /* \"#utility.yul\":46424:46491   */\n      tag_461\n      jump\t// in\n    tag_1010:\n        /* \"#utility.yul\":46417:46491   */\n      swap2\n      pop\n        /* \"#utility.yul\":46500:46593   */\n      tag_1011\n        /* \"#utility.yul\":46589:46592   */\n      dup3\n        /* \"#utility.yul\":46500:46593   */\n      tag_560\n      jump\t// in\n    tag_1011:\n        /* \"#utility.yul\":46618:46620   */\n      0x40\n        /* \"#utility.yul\":46613:46616   */\n      dup3\n        /* \"#utility.yul\":46609:46621   */\n      add\n        /* \"#utility.yul\":46602:46621   */\n      swap1\n      pop\n        /* \"#utility.yul\":46261:46627   */\n      swap2\n      swap1\n      pop\n      jump\t// out\n        /* \"#utility.yul\":46633:47052   */\n    tag_369:\n        /* \"#utility.yul\":46799:46803   */\n      0x00\n        /* \"#utility.yul\":46837:46839   */\n      0x20\n        /* \"#utility.yul\":46826:46835   */\n      dup3\n        /* \"#utility.yul\":46822:46840   */\n      add\n        /* \"#utility.yul\":46814:46840   */\n      swap1\n      pop\n        /* \"#utility.yul\":46886:46895   */\n      dup2\n        /* \"#utility.yul\":46880:46884   */\n      dup2\n        /* \"#utility.yul\":46876:46896   */\n      sub\n        /* \"#utility.yul\":46872:46873   */\n      0x00\n        /* \"#utility.yul\":46861:46870   */\n      dup4\n        /* \"#utility.yul\":46857:46874   */\n      add\n        /* \"#utility.yul\":46850:46897   */\n      mstore\n        /* \"#utility.yul\":46914:47045   */\n      tag_1013\n        /* \"#utility.yul\":47040:47044   */\n      dup2\n        /* \"#utility.yul\":46914:47045   */\n      tag_561\n      jump\t// in\n    tag_1013:\n        /* \"#utility.yul\":46906:47045   */\n      swap1\n      pop\n        /* \"#utility.yul\":46633:47052   */\n      swap2\n      swap1\n      pop\n      jump\t// out\n        /* \"#utility.yul\":47058:47143   */\n    tag_562:\n        /* \"#utility.yul\":47103:47110   */\n      0x00\n        /* \"#utility.yul\":47132:47137   */\n      dup2\n        /* \"#utility.yul\":47121:47137   */\n      swap1\n      pop\n        /* \"#utility.yul\":47058:47143   */\n      swap2\n      swap1\n      pop\n      jump\t// out\n        /* \"#utility.yul\":47149:47307   */\n    tag_563:\n        /* \"#utility.yul\":47207:47216   */\n      0x00\n        /* \"#utility.yul\":47240:47301   */\n      tag_1016\n        /* \"#utility.yul\":47258:47300   */\n      tag_1017\n        /* \"#utility.yul\":47267:47299   */\n      tag_1018\n        /* \"#utility.yul\":47293:47298   */\n      dup5\n        /* \"#utility.yul\":47267:47299   */\n      tag_562\n      jump\t// in\n    tag_1018:\n        /* \"#utility.yul\":47258:47300   */\n      tag_493\n      jump\t// in\n    tag_1017:\n        /* \"#utility.yul\":47240:47301   */\n      tag_453\n      jump\t// in\n    tag_1016:\n        /* \"#utility.yul\":47227:47301   */\n      swap1\n      pop\n        /* \"#utility.yul\":47149:47307   */\n      swap2\n      swap1\n      pop\n      jump\t// out\n        /* \"#utility.yul\":47313:47460   */\n    tag_564:\n        /* \"#utility.yul\":47408:47453   */\n      tag_1020\n        /* \"#utility.yul\":47447:47452   */\n      dup2\n        /* \"#utility.yul\":47408:47453   */\n      tag_563\n      jump\t// in\n    tag_1020:\n        /* \"#utility.yul\":47403:47406   */\n      dup3\n        /* \"#utility.yul\":47396:47454   */\n      mstore\n        /* \"#utility.yul\":47313:47460   */\n      pop\n      pop\n      jump\t// out\n        /* \"#utility.yul\":47466:47814   */\n    tag_376:\n        /* \"#utility.yul\":47595:47599   */\n      0x00\n        /* \"#utility.yul\":47633:47635   */\n      0x40\n        /* \"#utility.yul\":47622:47631   */\n      dup3\n        /* \"#utility.yul\":47618:47636   */\n      add\n        /* \"#utility.yul\":47610:47636   */\n      swap1\n      pop\n        /* \"#utility.yul\":47646:47717   */\n      tag_1022\n        /* \"#utility.yul\":47714:47715   */\n      0x00\n        /* \"#utility.yul\":47703:47712   */\n      dup4\n        /* \"#utility.yul\":47699:47716   */\n      add\n        /* \"#utility.yul\":47690:47696   */\n      dup6\n        /* \"#utility.yul\":47646:47717   */\n      tag_456\n      jump\t// in\n    tag_1022:\n        /* \"#utility.yul\":47727:47807   */\n      tag_1023\n        /* \"#utility.yul\":47803:47805   */\n      0x20\n        /* \"#utility.yul\":47792:47801   */\n      dup4\n        /* \"#utility.yul\":47788:47806   */\n      add\n        /* \"#utility.yul\":47779:47785   */\n      dup5\n        /* \"#utility.yul\":47727:47807   */\n      tag_564\n      jump\t// in\n    tag_1023:\n        /* \"#utility.yul\":47466:47814   */\n      swap4\n      swap3\n      pop\n      pop\n      pop\n      jump\t// out\n        /* \"#utility.yul\":47820:47983   */\n    tag_565:\n        /* \"#utility.yul\":47960:47975   */\n      0x656d657267656e63794275726e00000000000000000000000000000000000000\n        /* \"#utility.yul\":47956:47957   */\n      0x00\n        /* \"#utility.yul\":47948:47954   */\n      dup3\n        /* \"#utility.yul\":47944:47958   */\n      add\n        /* \"#utility.yul\":47937:47976   */\n      mstore\n        /* \"#utility.yul\":47820:47983   */\n      pop\n      jump\t// out\n        /* \"#utility.yul\":47989:48355   */\n    tag_566:\n        /* \"#utility.yul\":48131:48134   */\n      0x00\n        /* \"#utility.yul\":48152:48219   */\n      tag_1026\n        /* \"#utility.yul\":48216:48218   */\n      0x0d\n        /* \"#utility.yul\":48211:48214   */\n      dup4\n        /* \"#utility.yul\":48152:48219   */\n      tag_461\n      jump\t// in\n    tag_1026:\n        /* \"#utility.yul\":48145:48219   */\n      swap2\n      pop\n        /* \"#utility.yul\":48228:48321   */\n      tag_1027\n        /* \"#utility.yul\":48317:48320   */\n      dup3\n        /* \"#utility.yul\":48228:48321   */\n      tag_565\n      jump\t// in\n    tag_1027:\n        /* \"#utility.yul\":48346:48348   */\n      0x20\n        /* \"#utility.yul\":48341:48344   */\n      dup3\n        /* \"#utility.yul\":48337:48349   */\n      add\n        /* \"#utility.yul\":48330:48349   */\n      swap1\n      pop\n        /* \"#utility.yul\":47989:48355   */\n      swap2\n      swap1\n      pop\n      jump\t// out\n        /* \"#utility.yul\":48361:48890   */\n    tag_394:\n        /* \"#utility.yul\":48555:48559   */\n      0x00\n        /* \"#utility.yul\":48593:48595   */\n      0x40\n        /* \"#utility.yul\":48582:48591   */\n      dup3\n        /* \"#utility.yul\":48578:48596   */\n      add\n        /* \"#utility.yul\":48570:48596   */\n      swap1\n      pop\n        /* \"#utility.yul\":48642:48651   */\n      dup2\n        /* \"#utility.yul\":48636:48640   */\n      dup2\n        /* \"#utility.yul\":48632:48652   */\n      sub\n        /* \"#utility.yul\":48628:48629   */\n      0x00\n        /* \"#utility.yul\":48617:48626   */\n      dup4\n        /* \"#utility.yul\":48613:48630   */\n      add\n        /* \"#utility.yul\":48606:48653   */\n      mstore\n        /* \"#utility.yul\":48670:48801   */\n      tag_1029\n        /* \"#utility.yul\":48796:48800   */\n      dup2\n        /* \"#utility.yul\":48670:48801   */\n      tag_566\n      jump\t// in\n    tag_1029:\n        /* \"#utility.yul\":48662:48801   */\n      swap1\n      pop\n        /* \"#utility.yul\":48811:48883   */\n      tag_1030\n        /* \"#utility.yul\":48879:48881   */\n      0x20\n        /* \"#utility.yul\":48868:48877   */\n      dup4\n        /* \"#utility.yul\":48864:48882   */\n      add\n        /* \"#utility.yul\":48855:48861   */\n      dup5\n        /* \"#utility.yul\":48811:48883   */\n      tag_456\n      jump\t// in\n    tag_1030:\n        /* \"#utility.yul\":48361:48890   */\n      swap3\n      swap2\n      pop\n      pop\n      jump\t// out\n        /* \"#utility.yul\":48896:49129   */\n    tag_567:\n        /* \"#utility.yul\":49036:49070   */\n      0x47616d655377617044414f3a206f6e6c792070726f706f736572206f72206164\n        /* \"#utility.yul\":49032:49033   */\n      0x00\n        /* \"#utility.yul\":49024:49030   */\n      dup3\n        /* \"#utility.yul\":49020:49034   */\n      add\n        /* \"#utility.yul\":49013:49071   */\n      mstore\n        /* \"#utility.yul\":49105:49121   */\n      0x6d696e2063616e2063616e63656c000000000000000000000000000000000000\n        /* \"#utility.yul\":49100:49102   */\n      0x20\n        /* \"#utility.yul\":49092:49098   */\n      dup3\n        /* \"#utility.yul\":49088:49103   */\n      add\n        /* \"#utility.yul\":49081:49122   */\n      mstore\n        /* \"#utility.yul\":48896:49129   */\n      pop\n      jump\t// out\n        /* \"#utility.yul\":49135:49501   */\n    tag_568:\n        /* \"#utility.yul\":49277:49280   */\n      0x00\n        /* \"#utility.yul\":49298:49365   */\n      tag_1033\n        /* \"#utility.yul\":49362:49364   */\n      0x2e\n        /* \"#utility.yul\":49357:49360   */\n      dup4\n        /* \"#utility.yul\":49298:49365   */\n      tag_461\n      jump\t// in\n    tag_1033:\n        /* \"#utility.yul\":49291:49365   */\n      swap2\n      pop\n        /* \"#utility.yul\":49374:49467   */\n      tag_1034\n        /* \"#utility.yul\":49463:49466   */\n      dup3\n        /* \"#utility.yul\":49374:49467   */\n      tag_567\n      jump\t// in\n    tag_1034:\n        /* \"#utility.yul\":49492:49494   */\n      0x40\n        /* \"#utility.yul\":49487:49490   */\n      dup3\n        /* \"#utility.yul\":49483:49495   */\n      add\n        /* \"#utility.yul\":49476:49495   */\n      swap1\n      pop\n        /* \"#utility.yul\":49135:49501   */\n      swap2\n      swap1\n      pop\n      jump\t// out\n        /* \"#utility.yul\":49507:49926   */\n    tag_401:\n        /* \"#utility.yul\":49673:49677   */\n      0x00\n        /* \"#utility.yul\":49711:49713   */\n      0x20\n        /* \"#utility.yul\":49700:49709   */\n      dup3\n        /* \"#utility.yul\":49696:49714   */\n      add\n        /* \"#utility.yul\":49688:49714   */\n      swap1\n      pop\n        /* \"#utility.yul\":49760:49769   */\n      dup2\n        /* \"#utility.yul\":49754:49758   */\n      dup2\n        /* \"#utility.yul\":49750:49770   */\n      sub\n        /* \"#utility.yul\":49746:49747   */\n      0x00\n        /* \"#utility.yul\":49735:49744   */\n      dup4\n        /* \"#utility.yul\":49731:49748   */\n      add\n        /* \"#utility.yul\":49724:49771   */\n      mstore\n        /* \"#utility.yul\":49788:49919   */\n      tag_1036\n        /* \"#utility.yul\":49914:49918   */\n      dup2\n        /* \"#utility.yul\":49788:49919   */\n      tag_568\n      jump\t// in\n    tag_1036:\n        /* \"#utility.yul\":49780:49919   */\n      swap1\n      pop\n        /* \"#utility.yul\":49507:49926   */\n      swap2\n      swap1\n      pop\n      jump\t// out\n        /* \"#utility.yul\":49932:50111   */\n    tag_569:\n        /* \"#utility.yul\":50072:50103   */\n      0x47616d655377617044414f3a20616c72656164792063616e63656c6564000000\n        /* \"#utility.yul\":50068:50069   */\n      0x00\n        /* \"#utility.yul\":50060:50066   */\n      dup3\n        /* \"#utility.yul\":50056:50070   */\n      add\n        /* \"#utility.yul\":50049:50104   */\n      mstore\n        /* \"#utility.yul\":49932:50111   */\n      pop\n      jump\t// out\n        /* \"#utility.yul\":50117:50483   */\n    tag_570:\n        /* \"#utility.yul\":50259:50262   */\n      0x00\n        /* \"#utility.yul\":50280:50347   */\n      tag_1039\n        /* \"#utility.yul\":50344:50346   */\n      0x1d\n        /* \"#utility.yul\":50339:50342   */\n      dup4\n        /* \"#utility.yul\":50280:50347   */\n      tag_461\n      jump\t// in\n    tag_1039:\n        /* \"#utility.yul\":50273:50347   */\n      swap2\n      pop\n        /* \"#utility.yul\":50356:50449   */\n      tag_1040\n        /* \"#utility.yul\":50445:50448   */\n      dup3\n        /* \"#utility.yul\":50356:50449   */\n      tag_569\n      jump\t// in\n    tag_1040:\n        /* \"#utility.yul\":50474:50476   */\n      0x20\n        /* \"#utility.yul\":50469:50472   */\n      dup3\n        /* \"#utility.yul\":50465:50477   */\n      add\n        /* \"#utility.yul\":50458:50477   */\n      swap1\n      pop\n        /* \"#utility.yul\":50117:50483   */\n      swap2\n      swap1\n      pop\n      jump\t// out\n        /* \"#utility.yul\":50489:50908   */\n    tag_406:\n        /* \"#utility.yul\":50655:50659   */\n      0x00\n        /* \"#utility.yul\":50693:50695   */\n      0x20\n        /* \"#utility.yul\":50682:50691   */\n      dup3\n        /* \"#utility.yul\":50678:50696   */\n      add\n        /* \"#utility.yul\":50670:50696   */\n      swap1\n      pop\n        /* \"#utility.yul\":50742:50751   */\n      dup2\n        /* \"#utility.yul\":50736:50740   */\n      dup2\n        /* \"#utility.yul\":50732:50752   */\n      sub\n        /* \"#utility.yul\":50728:50729   */\n      0x00\n        /* \"#utility.yul\":50717:50726   */\n      dup4\n        /* \"#utility.yul\":50713:50730   */\n      add\n        /* \"#utility.yul\":50706:50753   */\n      mstore\n        /* \"#utility.yul\":50770:50901   */\n      tag_1042\n        /* \"#utility.yul\":50896:50900   */\n      dup2\n        /* \"#utility.yul\":50770:50901   */\n      tag_570\n      jump\t// in\n    tag_1042:\n        /* \"#utility.yul\":50762:50901   */\n      swap1\n      pop\n        /* \"#utility.yul\":50489:50908   */\n      swap2\n      swap1\n      pop\n      jump\t// out\n        /* \"#utility.yul\":50914:51135   */\n    tag_571:\n        /* \"#utility.yul\":51054:51088   */\n      0x47616d655377617044414f3a20696e76616c696420766f74696e672070657269\n        /* \"#utility.yul\":51050:51051   */\n      0x00\n        /* \"#utility.yul\":51042:51048   */\n      dup3\n        /* \"#utility.yul\":51038:51052   */\n      add\n        /* \"#utility.yul\":51031:51089   */\n      mstore\n        /* \"#utility.yul\":51123:51127   */\n      0x6f64000000000000000000000000000000000000000000000000000000000000\n        /* \"#utility.yul\":51118:51120   */\n      0x20\n        /* \"#utility.yul\":51110:51116   */\n      dup3\n        /* \"#utility.yul\":51106:51121   */\n      add\n        /* \"#utility.yul\":51099:51128   */\n      mstore\n        /* \"#utility.yul\":50914:51135   */\n      pop\n      jump\t// out\n        /* \"#utility.yul\":51141:51507   */\n    tag_572:\n        /* \"#utility.yul\":51283:51286   */\n      0x00\n        /* \"#utility.yul\":51304:51371   */\n      tag_1045\n        /* \"#utility.yul\":51368:51370   */\n      0x22\n        /* \"#utility.yul\":51363:51366   */\n      dup4\n        /* \"#utility.yul\":51304:51371   */\n      tag_461\n      jump\t// in\n    tag_1045:\n        /* \"#utility.yul\":51297:51371   */\n      swap2\n      pop\n        /* \"#utility.yul\":51380:51473   */\n      tag_1046\n        /* \"#utility.yul\":51469:51472   */\n      dup3\n        /* \"#utility.yul\":51380:51473   */\n      tag_571\n      jump\t// in\n    tag_1046:\n        /* \"#utility.yul\":51498:51500   */\n      0x40\n        /* \"#utility.yul\":51493:51496   */\n      dup3\n        /* \"#utility.yul\":51489:51501   */\n      add\n        /* \"#utility.yul\":51482:51501   */\n      swap1\n      pop\n        /* \"#utility.yul\":51141:51507   */\n      swap2\n      swap1\n      pop\n      jump\t// out\n        /* \"#utility.yul\":51513:51932   */\n    tag_413:\n        /* \"#utility.yul\":51679:51683   */\n      0x00\n        /* \"#utility.yul\":51717:51719   */\n      0x20\n        /* \"#utility.yul\":51706:51715   */\n      dup3\n        /* \"#utility.yul\":51702:51720   */\n      add\n        /* \"#utility.yul\":51694:51720   */\n      swap1\n      pop\n        /* \"#utility.yul\":51766:51775   */\n      dup2\n        /* \"#utility.yul\":51760:51764   */\n      dup2\n        /* \"#utility.yul\":51756:51776   */\n      sub\n        /* \"#utility.yul\":51752:51753   */\n      0x00\n        /* \"#utility.yul\":51741:51750   */\n      dup4\n        /* \"#utility.yul\":51737:51754   */\n      add\n        /* \"#utility.yul\":51730:51777   */\n      mstore\n        /* \"#utility.yul\":51794:51925   */\n      tag_1048\n        /* \"#utility.yul\":51920:51924   */\n      dup2\n        /* \"#utility.yul\":51794:51925   */\n      tag_572\n      jump\t// in\n    tag_1048:\n        /* \"#utility.yul\":51786:51925   */\n      swap1\n      pop\n        /* \"#utility.yul\":51513:51932   */\n      swap2\n      swap1\n      pop\n      jump\t// out\n        /* \"#utility.yul\":51938:52118   */\n    tag_573:\n        /* \"#utility.yul\":52078:52110   */\n      0x47616d655377617044414f3a20696e76616c6964207468726573686f6c640000\n        /* \"#utility.yul\":52074:52075   */\n      0x00\n        /* \"#utility.yul\":52066:52072   */\n      dup3\n        /* \"#utility.yul\":52062:52076   */\n      add\n        /* \"#utility.yul\":52055:52111   */\n      mstore\n        /* \"#utility.yul\":51938:52118   */\n      pop\n      jump\t// out\n        /* \"#utility.yul\":52124:52490   */\n    tag_574:\n        /* \"#utility.yul\":52266:52269   */\n      0x00\n        /* \"#utility.yul\":52287:52354   */\n      tag_1051\n        /* \"#utility.yul\":52351:52353   */\n      0x1e\n        /* \"#utility.yul\":52346:52349   */\n      dup4\n        /* \"#utility.yul\":52287:52354   */\n      tag_461\n      jump\t// in\n    tag_1051:\n        /* \"#utility.yul\":52280:52354   */\n      swap2\n      pop\n        /* \"#utility.yul\":52363:52456   */\n      tag_1052\n        /* \"#utility.yul\":52452:52455   */\n      dup3\n        /* \"#utility.yul\":52363:52456   */\n      tag_573\n      jump\t// in\n    tag_1052:\n        /* \"#utility.yul\":52481:52483   */\n      0x20\n        /* \"#utility.yul\":52476:52479   */\n      dup3\n        /* \"#utility.yul\":52472:52484   */\n      add\n        /* \"#utility.yul\":52465:52484   */\n      swap1\n      pop\n        /* \"#utility.yul\":52124:52490   */\n      swap2\n      swap1\n      pop\n      jump\t// out\n        /* \"#utility.yul\":52496:52915   */\n    tag_422:\n        /* \"#utility.yul\":52662:52666   */\n      0x00\n        /* \"#utility.yul\":52700:52702   */\n      0x20\n        /* \"#utility.yul\":52689:52698   */\n      dup3\n        /* \"#utility.yul\":52685:52703   */\n      add\n        /* \"#utility.yul\":52677:52703   */\n      swap1\n      pop\n        /* \"#utility.yul\":52749:52758   */\n      dup2\n        /* \"#utility.yul\":52743:52747   */\n      dup2\n        /* \"#utility.yul\":52739:52759   */\n      sub\n        /* \"#utility.yul\":52735:52736   */\n      0x00\n        /* \"#utility.yul\":52724:52733   */\n      dup4\n        /* \"#utility.yul\":52720:52737   */\n      add\n        /* \"#utility.yul\":52713:52760   */\n      mstore\n        /* \"#utility.yul\":52777:52908   */\n      tag_1054\n        /* \"#utility.yul\":52903:52907   */\n      dup2\n        /* \"#utility.yul\":52777:52908   */\n      tag_574\n      jump\t// in\n    tag_1054:\n        /* \"#utility.yul\":52769:52908   */\n      swap1\n      pop\n        /* \"#utility.yul\":52496:52915   */\n      swap2\n      swap1\n      pop\n      jump\t// out\n        /* \"#utility.yul\":52921:53102   */\n    tag_575:\n        /* \"#utility.yul\":53061:53094   */\n      0x5265656e7472616e637947756172643a207265656e7472616e742063616c6c00\n        /* \"#utility.yul\":53057:53058   */\n      0x00\n        /* \"#utility.yul\":53049:53055   */\n      dup3\n        /* \"#utility.yul\":53045:53059   */\n      add\n        /* \"#utility.yul\":53038:53095   */\n      mstore\n        /* \"#utility.yul\":52921:53102   */\n      pop\n      jump\t// out\n        /* \"#utility.yul\":53108:53474   */\n    tag_576:\n        /* \"#utility.yul\":53250:53253   */\n      0x00\n        /* \"#utility.yul\":53271:53338   */\n      tag_1057\n        /* \"#utility.yul\":53335:53337   */\n      0x1f\n        /* \"#utility.yul\":53330:53333   */\n      dup4\n        /* \"#utility.yul\":53271:53338   */\n      tag_461\n      jump\t// in\n    tag_1057:\n        /* \"#utility.yul\":53264:53338   */\n      swap2\n      pop\n        /* \"#utility.yul\":53347:53440   */\n      tag_1058\n        /* \"#utility.yul\":53436:53439   */\n      dup3\n        /* \"#utility.yul\":53347:53440   */\n      tag_575\n      jump\t// in\n    tag_1058:\n        /* \"#utility.yul\":53465:53467   */\n      0x20\n        /* \"#utility.yul\":53460:53463   */\n      dup3\n        /* \"#utility.yul\":53456:53468   */\n      add\n        /* \"#utility.yul\":53449:53468   */\n      swap1\n      pop\n        /* \"#utility.yul\":53108:53474   */\n      swap2\n      swap1\n      pop\n      jump\t// out\n        /* \"#utility.yul\":53480:53899   */\n    tag_428:\n        /* \"#utility.yul\":53646:53650   */\n      0x00\n        /* \"#utility.yul\":53684:53686   */\n      0x20\n        /* \"#utility.yul\":53673:53682   */\n      dup3\n        /* \"#utility.yul\":53669:53687   */\n      add\n        /* \"#utility.yul\":53661:53687   */\n      swap1\n      pop\n        /* \"#utility.yul\":53733:53742   */\n      dup2\n        /* \"#utility.yul\":53727:53731   */\n      dup2\n        /* \"#utility.yul\":53723:53743   */\n      sub\n        /* \"#utility.yul\":53719:53720   */\n      0x00\n        /* \"#utility.yul\":53708:53717   */\n      dup4\n        /* \"#utility.yul\":53704:53721   */\n      add\n        /* \"#utility.yul\":53697:53744   */\n      mstore\n        /* \"#utility.yul\":53761:53892   */\n      tag_1060\n        /* \"#utility.yul\":53887:53891   */\n      dup2\n        /* \"#utility.yul\":53761:53892   */\n      tag_576\n      jump\t// in\n    tag_1060:\n        /* \"#utility.yul\":53753:53892   */\n      swap1\n      pop\n        /* \"#utility.yul\":53480:53899   */\n      swap2\n      swap1\n      pop\n      jump\t// out\n        /* \"#utility.yul\":53905:54237   */\n    tag_449:\n        /* \"#utility.yul\":54026:54030   */\n      0x00\n        /* \"#utility.yul\":54064:54066   */\n      0x40\n        /* \"#utility.yul\":54053:54062   */\n      dup3\n        /* \"#utility.yul\":54049:54067   */\n      add\n        /* \"#utility.yul\":54041:54067   */\n      swap1\n      pop\n        /* \"#utility.yul\":54077:54148   */\n      tag_1062\n        /* \"#utility.yul\":54145:54146   */\n      0x00\n        /* \"#utility.yul\":54134:54143   */\n      dup4\n        /* \"#utility.yul\":54130:54147   */\n      add\n        /* \"#utility.yul\":54121:54127   */\n      dup6\n        /* \"#utility.yul\":54077:54148   */\n      tag_459\n      jump\t// in\n    tag_1062:\n        /* \"#utility.yul\":54158:54230   */\n      tag_1063\n        /* \"#utility.yul\":54226:54228   */\n      0x20\n        /* \"#utility.yul\":54215:54224   */\n      dup4\n        /* \"#utility.yul\":54211:54229   */\n      add\n        /* \"#utility.yul\":54202:54208   */\n      dup5\n        /* \"#utility.yul\":54158:54230   */\n      tag_492\n      jump\t// in\n    tag_1063:\n        /* \"#utility.yul\":53905:54237   */\n      swap4\n      swap3\n      pop\n      pop\n      pop\n      jump\t// out\n\n    auxdata: 0xa26469706673582212206f84a21eb76e838ee4405d5d4352cd6e5a5fd626aa8fbcf3b5d289c06e58c15264736f6c634300081a0033\n}\n",
				"bytecode": {
					"linkReferences": {},
					"object": "608060405234801561000f575f80fd5b506040516144dd3803806144dd833981810160405281019061003191906103af565b600180819055505f73ffffffffffffffffffffffffffffffffffffffff168573ffffffffffffffffffffffffffffffffffffffff16036100a6576040517f08c379a000000000000000000000000000000000000000000000000000000000815260040161009d906104a6565b60405180910390fd5b5f841180156100b757506127108411155b6100f6576040517f08c379a00000000000000000000000000000000000000000000000000000000081526004016100ed90610534565b60405180910390fd5b5f8311801561010757506127108311155b610146576040517f08c379a000000000000000000000000000000000000000000000000000000000815260040161013d906105c2565b60405180910390fd5b8460025f6101000a81548173ffffffffffffffffffffffffffffffffffffffff021916908373ffffffffffffffffffffffffffffffffffffffff160217905550836004819055508260058190555081600681905550806007819055506101b45f801b336101bf60201b60201c565b5050505050506105e0565b5f6101d083836102b460201b60201c565b6102aa5760015f808581526020019081526020015f205f015f8473ffffffffffffffffffffffffffffffffffffffff1673ffffffffffffffffffffffffffffffffffffffff1681526020019081526020015f205f6101000a81548160ff02191690831515021790555061024761031760201b60201c565b73ffffffffffffffffffffffffffffffffffffffff168273ffffffffffffffffffffffffffffffffffffffff16847f2f8788117e7eff1d82e926ec794901d17c78024a50270940304540a733656f0d60405160405180910390a4600190506102ae565b5f90505b92915050565b5f805f8481526020019081526020015f205f015f8373ffffffffffffffffffffffffffffffffffffffff1673ffffffffffffffffffffffffffffffffffffffff1681526020019081526020015f205f9054906101000a900460ff16905092915050565b5f33905090565b5f80fd5b5f73ffffffffffffffffffffffffffffffffffffffff82169050919050565b5f61034b82610322565b9050919050565b61035b81610341565b8114610365575f80fd5b50565b5f8151905061037681610352565b92915050565b5f819050919050565b61038e8161037c565b8114610398575f80fd5b50565b5f815190506103a981610385565b92915050565b5f805f805f60a086880312156103c8576103c761031e565b5b5f6103d588828901610368565b95505060206103e68882890161039b565b94505060406103f78882890161039b565b93505060606104088882890161039b565b92505060806104198882890161039b565b9150509295509295909350565b5f82825260208201905092915050565b7f47616d655377617044414f3a20746f6b656e20616464726573732063616e6e6f5f8201527f74206265207a65726f0000000000000000000000000000000000000000000000602082015250565b5f610490602983610426565b915061049b82610436565b604082019050919050565b5f6020820190508181035f8301526104bd81610484565b9050919050565b7f47616d655377617044414f3a2071756f72756d206d75737420626520626574775f8201527f65656e203120616e6420313030303020626173697320706f696e747300000000602082015250565b5f61051e603c83610426565b9150610529826104c4565b604082019050919050565b5f6020820190508181035f83015261054b81610512565b9050919050565b7f47616d655377617044414f3a207468726573686f6c64206d75737420626520625f8201527f65747765656e203120616e6420313030303020626173697320706f696e747300602082015250565b5f6105ac603f83610426565b91506105b782610552565b604082019050919050565b5f6020820190508181035f8301526105d9816105a0565b9050919050565b613ef0806105ed5f395ff3fe6080604052600436106101d0575f3560e01c806391d14854116100f6578063d085835a11610094578063e0a8f6f511610063578063e0a8f6f514610680578063ea0217cf146106a8578063ece40cc1146106d0578063efca2eed146106f8576101d7565b8063d085835a146105dc578063d547741f14610606578063da35c6641461062e578063dfff856814610658576101d7565b8063b58131b0116100d0578063b58131b014610548578063bb57ad2014610572578063c3439f3f14610588578063c3dfdae6146105b2576101d7565b806391d14854146104b8578063a217fddf146104f4578063a94015c81461051e576101d7565b80632f2ff15d1161016e5780635312ea8e1161013d5780635312ea8e146104165780635bcb318a1461043e5780636f698fb5146104665780638160f0b51461048e576101d7565b80632f2ff15d1461034e57806331d7a2621461037657806336568abe146103b257806344b50bfc146103da576101d7565b80630d61b519116101aa5780630d61b5191461028657806310770218146102ae57806315373e3d146102ea578063248a9ca314610312576101d7565b8063013cf08b146101d957806301ffc9a71461022057806302a251a31461025c576101d7565b366101d757005b005b3480156101e4575f80fd5b506101ff60048036038101906101fa91906123ca565b610722565b6040516102179c9b9a9998979695949392919061251f565b60405180910390f35b34801561022b575f80fd5b506102466004803603810190610241919061263a565b6108e0565b6040516102539190612665565b60405180910390f35b348015610267575f80fd5b50610270610959565b60405161027d919061267e565b60405180910390f35b348015610291575f80fd5b506102ac60048036038101906102a791906123ca565b61095f565b005b3480156102b9575f80fd5b506102d460048036038101906102cf919061288b565b610d9b565b6040516102e1919061267e565b60405180910390f35b3480156102f5575f80fd5b50610310600480360381019061030b919061293d565b6110a4565b005b34801561031d575f80fd5b50610338600480360381019061033391906129ae565b6115e2565b60405161034591906129e8565b60405180910390f35b348015610359575f80fd5b50610374600480360381019061036f9190612a01565b6115fe565b005b348015610381575f80fd5b5061039c60048036038101906103979190612a3f565b611620565b6040516103a9919061267e565b60405180910390f35b3480156103bd575f80fd5b506103d860048036038101906103d39190612a01565b611635565b005b3480156103e5575f80fd5b5061040060048036038101906103fb9190612a3f565b6116b0565b60405161040d919061267e565b60405180910390f35b348015610421575f80fd5b5061043c600480360381019061043791906123ca565b6116c5565b005b348015610449575f80fd5b50610464600480360381019061045f91906123ca565b6117f8565b005b348015610471575f80fd5b5061048c600480360381019061048791906123ca565b61188d565b005b348015610499575f80fd5b506104a2611972565b6040516104af919061267e565b60405180910390f35b3480156104c3575f80fd5b506104de60048036038101906104d99190612a01565b611978565b6040516104eb9190612665565b60405180910390f35b3480156104ff575f80fd5b506105086119db565b60405161051591906129e8565b60405180910390f35b348015610529575f80fd5b506105326119e1565b60405161053f91906129e8565b60405180910390f35b348015610553575f80fd5b5061055c611a05565b604051610569919061267e565b60405180910390f35b34801561057d575f80fd5b50610586611a0b565b005b348015610593575f80fd5b5061059c611b74565b6040516105a991906129e8565b60405180910390f35b3480156105bd575f80fd5b506105c6611b98565b6040516105d39190612ac5565b60405180910390f35b3480156105e7575f80fd5b506105f0611bbd565b6040516105fd919061267e565b60405180910390f35b348015610611575f80fd5b5061062c60048036038101906106279190612a01565b611bc3565b005b348015610639575f80fd5b50610642611be5565b60405161064f919061267e565b60405180910390f35b348015610663575f80fd5b5061067e600480360381019061067991906123ca565b611beb565b005b34801561068b575f80fd5b506106a660048036038101906106a191906123ca565b611d1e565b005b3480156106b3575f80fd5b506106ce60048036038101906106c991906123ca565b611ec5565b005b3480156106db575f80fd5b506106f660048036038101906106f191906123ca565b611f9c565b005b348015610703575f80fd5b5061070c612081565b604051610719919061267e565b60405180910390f35b6008602052805f5260405f205f91509050805f015490806001015f9054906101000a900473ffffffffffffffffffffffffffffffffffffffff169080600201805461076c90612b0b565b80601f016020809104026020016040519081016040528092919081815260200182805461079890612b0b565b80156107e35780601f106107ba576101008083540402835291602001916107e3565b820191905f5260205f20905b8154815290600101906020018083116107c657829003601f168201915b505050505090806003015490806004015490806005015490806006015490806007015f9054906101000a900460ff169080600801549080600901805461082890612b0b565b80601f016020809104026020016040519081016040528092919081815260200182805461085490612b0b565b801561089f5780601f106108765761010080835404028352916020019161089f565b820191905f5260205f20905b81548152906001019060200180831161088257829003601f168201915b50505050509080600a015f9054906101000a900473ffffffffffffffffffffffffffffffffffffffff169080600c015f9054906101000a900460ff1690508c565b5f7f7965db0b000000000000000000000000000000000000000000000000000000007bffffffffffffffffffffffffffffffffffffffffffffffffffffffff1916827bffffffffffffffffffffffffffffffffffffffffffffffffffffffff19161480610952575061095182612087565b5b9050919050565b60065481565b6109676120f0565b5f60085f8381526020019081526020015f209050806004015443116109c1576040517f08c379a00000000000000000000000000000000000000000000000000000000081526004016109b890612bab565b60405180910390fd5b806007015f9054906101000a900460ff1615610a12576040517f08c379a0000000000000000000000000000000000000000000000000000000008152600401610a0990612c13565b60405180910390fd5b80600c015f9054906101000a900460ff1615610a63576040517f08c379a0000000000000000000000000000000000000000000000000000000008152600401610a5a90612c7b565b60405180910390fd5b5f60025f9054906101000a900473ffffffffffffffffffffffffffffffffffffffff1673ffffffffffffffffffffffffffffffffffffffff166370a08231306040518263ffffffff1660e01b8152600401610abe9190612c99565b602060405180830381865afa158015610ad9573d5f803e3d5ffd5b505050506040513d601f19601f82011682018060405250810190610afd9190612cc6565b90505f8111610b41576040517f08c379a0000000000000000000000000000000000000000000000000000000008152600401610b3890612d3b565b60405180910390fd5b6004548161271084600601548560050154610b5c9190612d86565b610b669190612db9565b610b709190612e27565b1015610bb1576040517f08c379a0000000000000000000000000000000000000000000000000000000008152600401610ba890612ea1565b60405180910390fd5b8160060154826005015411610bfb576040517f08c379a0000000000000000000000000000000000000000000000000000000008152600401610bf290612f09565b60405180910390fd5b5f826008015403610c16574282600801819055505050610d90565b6007548260080154610c289190612d86565b421015610c6a576040517f08c379a0000000000000000000000000000000000000000000000000000000008152600401610c6190612f97565b60405180910390fd5b6001826007015f6101000a81548160ff0219169083151502179055505f82600a015f9054906101000a900473ffffffffffffffffffffffffffffffffffffffff1673ffffffffffffffffffffffffffffffffffffffff1683600901604051610cd29190613051565b5f604051808303815f865af19150503d805f8114610d0b576040519150601f19603f3d011682016040523d82523d5f602084013e610d10565b606091505b5050905080610d54576040517f08c379a0000000000000000000000000000000000000000000000000000000008152600401610d4b906130b1565b60405180910390fd5b837f9c85b616f29fca57a17eafe71cf9ff82ffef41766e2cf01ea7f8f7878dd3ec2433604051610d849190612c99565b60405180910390a25050505b610d9861213f565b50565b5f610da46120f0565b5f60025f9054906101000a900473ffffffffffffffffffffffffffffffffffffffff1673ffffffffffffffffffffffffffffffffffffffff166370a08231336040518263ffffffff1660e01b8152600401610dff9190612c99565b602060405180830381865afa158015610e1a573d5f803e3d5ffd5b505050506040513d601f19601f82011682018060405250810190610e3e9190612cc6565b90505f60025f9054906101000a900473ffffffffffffffffffffffffffffffffffffffff1673ffffffffffffffffffffffffffffffffffffffff166318160ddd6040518163ffffffff1660e01b8152600401602060405180830381865afa158015610eab573d5f803e3d5ffd5b505050506040513d601f19601f82011682018060405250810190610ecf9190612cc6565b90506005548161271084610ee39190612db9565b610eed9190612e27565b1015610f2e576040517f08c379a0000000000000000000000000000000000000000000000000000000008152600401610f259061313f565b60405180910390fd5b60035f815480929190610f409061315d565b91905055505f60035490505f60085f8381526020019081526020015f20905081815f018190555033816001015f6101000a81548173ffffffffffffffffffffffffffffffffffffffff021916908373ffffffffffffffffffffffffffffffffffffffff16021790555087816002019081610fba9190613338565b5043816003018190555060065443610fd29190612d86565b816004018190555086816009019081610feb919061344d565b508581600a015f6101000a81548173ffffffffffffffffffffffffffffffffffffffff021916908373ffffffffffffffffffffffffffffffffffffffff1602179055503373ffffffffffffffffffffffffffffffffffffffff16827f6c98a8c940418b35614f0cd02412d5c9606faff474cbb6cdd6640ba5d1a9f06b8a43600654436110779190612d86565b6040516110869392919061351c565b60405180910390a38194505050505061109d61213f565b9392505050565b6110ac6120f0565b5f60085f8481526020019081526020015f2090508060030154431015611107576040517f08c379a00000000000000000000000000000000000000000000000000000000081526004016110fe906135a2565b60405180910390fd5b806004015443111561114e576040517f08c379a00000000000000000000000000000000000000000000000000000000081526004016111459061360a565b60405180910390fd5b806007015f9054906101000a900460ff161561119f576040517f08c379a000000000000000000000000000000000000000000000000000000000815260040161119690613698565b60405180910390fd5b80600c015f9054906101000a900460ff16156111f0576040517f08c379a00000000000000000000000000000000000000000000000000000000081526004016111e790612c7b565b60405180910390fd5b80600b015f3373ffffffffffffffffffffffffffffffffffffffff1673ffffffffffffffffffffffffffffffffffffffff1681526020019081526020015f205f9054906101000a900460ff161561127c576040517f08c379a000000000000000000000000000000000000000000000000000000000815260040161127390613700565b60405180910390fd5b60025f9054906101000a900473ffffffffffffffffffffffffffffffffffffffff1673ffffffffffffffffffffffffffffffffffffffff166391d1485460025f9054906101000a900473ffffffffffffffffffffffffffffffffffffffff1673ffffffffffffffffffffffffffffffffffffffff16633780b3ed6040518163ffffffff1660e01b8152600401602060405180830381865afa158015611323573d5f803e3d5ffd5b505050506040513d601f19601f820116820180604052508101906113479190613732565b336040518363ffffffff1660e01b815260040161136592919061375d565b602060405180830381865afa158015611380573d5f803e3d5ffd5b505050506040513d601f19601f820116820180604052508101906113a49190613798565b6113e3576040517f08c379a00000000000000000000000000000000000000000000000000000000081526004016113da90613833565b60405180910390fd5b5f60025f9054906101000a900473ffffffffffffffffffffffffffffffffffffffff1673ffffffffffffffffffffffffffffffffffffffff16631460fa87336040518263ffffffff1660e01b815260040161143e9190612c99565b602060405180830381865afa158015611459573d5f803e3d5ffd5b505050506040513d601f19601f8201168201806040525081019061147d9190612cc6565b90505f81116114c1576040517f08c379a00000000000000000000000000000000000000000000000000000000081526004016114b89061389b565b60405180910390fd5b82156114e65780826005015f8282546114da9190612d86565b92505081905550611501565b80826006015f8282546114f99190612d86565b925050819055505b600182600b015f3373ffffffffffffffffffffffffffffffffffffffff1673ffffffffffffffffffffffffffffffffffffffff1681526020019081526020015f205f6101000a81548160ff0219169083151502179055506115827f72c3eec1760bf69946625c2d4fb8e44e2c806345041960b434674fb9ab3976cf33612148565b503373ffffffffffffffffffffffffffffffffffffffff16847fcbdf6214089cba887ecbf35a0b6a734589959c9763342c756bb2a80ca2bc9f6e85846040516115cc9291906138b9565b60405180910390a350506115de61213f565b5050565b5f805f8381526020019081526020015f20600101549050919050565b611607826115e2565b61161081612231565b61161a8383612148565b50505050565b600b602052805f5260405f205f915090505481565b61163d612245565b73ffffffffffffffffffffffffffffffffffffffff168173ffffffffffffffffffffffffffffffffffffffff16146116a1576040517f6697b23200000000000000000000000000000000000000000000000000000000815260040160405180910390fd5b6116ab828261224c565b505050565b6009602052805f5260405f205f915090505481565b6116cd6120f0565b6116d95f801b33611978565b611718576040517f08c379a000000000000000000000000000000000000000000000000000000000815260040161170f9061392a565b60405180910390fd5b4781111561175b576040517f08c379a0000000000000000000000000000000000000000000000000000000008152600401611752906139b8565b60405180910390fd5b3373ffffffffffffffffffffffffffffffffffffffff166108fc8290811502906040515f60405180830381858888f1935050505015801561179e573d5f803e3d5ffd5b503373ffffffffffffffffffffffffffffffffffffffff167f66f1c438ffdc40e9aae073468d107ee857ca3003ad2a78e611338a427a642998826040516117e59190613a20565b60405180910390a26117f561213f565b50565b6118045f801b33611978565b611843576040517f08c379a000000000000000000000000000000000000000000000000000000000815260040161183a9061392a565b60405180910390fd5b5f6007549050816007819055507f2a72574d775756e698a258fc07c826b7185131fff8a96b868feacab45fb234328183604051611881929190613a4c565b60405180910390a15050565b6118995f801b33611978565b6118d8576040517f08c379a00000000000000000000000000000000000000000000000000000000081526004016118cf9061392a565b60405180910390fd5b5f811180156118e957506127108111155b611928576040517f08c379a000000000000000000000000000000000000000000000000000000000815260040161191f90613abd565b60405180910390fd5b5f6004549050816004819055507f8954dccd5d355dcbe1d7e0d72c43aebadeaf41bb1a06ca29a6f61d61b4ac121d8183604051611966929190613a4c565b60405180910390a15050565b60045481565b5f805f8481526020019081526020015f205f015f8373ffffffffffffffffffffffffffffffffffffffff1673ffffffffffffffffffffffffffffffffffffffff1681526020019081526020015f205f9054906101000a900460ff16905092915050565b5f801b81565b7f72c3eec1760bf69946625c2d4fb8e44e2c806345041960b434674fb9ab3976cf81565b60055481565b611a136120f0565b611a3d7f0ea61da3a8a09ad801432653699f8c1860b1ae9d2ea4a141fadfd63227717bc833611978565b611a7c576040517f08c379a0000000000000000000000000000000000000000000000000000000008152600401611a7390613b4b565b60405180910390fd5b5f60025f9054906101000a900473ffffffffffffffffffffffffffffffffffffffff1673ffffffffffffffffffffffffffffffffffffffff166370a08231306040518263ffffffff1660e01b8152600401611ad79190612c99565b602060405180830381865afa158015611af2573d5f803e3d5ffd5b505050506040513d601f19601f82011682018060405250810190611b169190612cc6565b905080600a5f828254611b299190612d86565b925050819055507f771d362663b46bd788cd13fc183c9432449a2be6bcb81051bfeb484afd9c5dd8815f604051611b61929190613ba2565b60405180910390a150611b7261213f565b565b7f0ea61da3a8a09ad801432653699f8c1860b1ae9d2ea4a141fadfd63227717bc881565b60025f9054906101000a900473ffffffffffffffffffffffffffffffffffffffff1681565b60075481565b611bcc826115e2565b611bd581612231565b611bdf838361224c565b50505050565b60035481565b611bf36120f0565b611bff5f801b33611978565b611c3e576040517f08c379a0000000000000000000000000000000000000000000000000000000008152600401611c359061392a565b60405180910390fd5b60025f9054906101000a900473ffffffffffffffffffffffffffffffffffffffff1673ffffffffffffffffffffffffffffffffffffffff166342966c68826040518263ffffffff1660e01b8152600401611c98919061267e565b5f604051808303815f87803b158015611caf575f80fd5b505af1158015611cc1573d5f803e3d5ffd5b505050503373ffffffffffffffffffffffffffffffffffffffff167f66f1c438ffdc40e9aae073468d107ee857ca3003ad2a78e611338a427a64299882604051611d0b9190613c13565b60405180910390a2611d1b61213f565b50565b5f60085f8381526020019081526020015f2090503373ffffffffffffffffffffffffffffffffffffffff16816001015f9054906101000a900473ffffffffffffffffffffffffffffffffffffffff1673ffffffffffffffffffffffffffffffffffffffff161480611d975750611d965f801b33611978565b5b611dd6576040517f08c379a0000000000000000000000000000000000000000000000000000000008152600401611dcd90613caf565b60405180910390fd5b806007015f9054906101000a900460ff1615611e27576040517f08c379a0000000000000000000000000000000000000000000000000000000008152600401611e1e90612c13565b60405180910390fd5b80600c015f9054906101000a900460ff1615611e78576040517f08c379a0000000000000000000000000000000000000000000000000000000008152600401611e6f90613d17565b60405180910390fd5b600181600c015f6101000a81548160ff021916908315150217905550817f789cf55be980739dad1d0699b93b58e806b51c9d96619bfa8fe0a28abaa7b30c60405160405180910390a25050565b611ed15f801b33611978565b611f10576040517f08c379a0000000000000000000000000000000000000000000000000000000008152600401611f079061392a565b60405180910390fd5b5f8111611f52576040517f08c379a0000000000000000000000000000000000000000000000000000000008152600401611f4990613da5565b60405180910390fd5b5f6006549050816006819055507fffc708f072ca56e3d45ef0cb288b96cb9378f5f63e1646868bfbc9c38f4263a18183604051611f90929190613a4c565b60405180910390a15050565b611fa85f801b33611978565b611fe7576040517f08c379a0000000000000000000000000000000000000000000000000000000008152600401611fde9061392a565b60405180910390fd5b5f81118015611ff857506127108111155b612037576040517f08c379a000000000000000000000000000000000000000000000000000000000815260040161202e90613e0d565b60405180910390fd5b5f6005549050816005819055507fe92242fc3efcad407a677132b517977331a6e5b65abab69fd757cc02e99c9c4e8183604051612075929190613a4c565b60405180910390a15050565b600a5481565b5f7f01ffc9a7000000000000000000000000000000000000000000000000000000007bffffffffffffffffffffffffffffffffffffffffffffffffffffffff1916827bffffffffffffffffffffffffffffffffffffffffffffffffffffffff1916149050919050565b600260015403612135576040517f08c379a000000000000000000000000000000000000000000000000000000000815260040161212c90613e75565b60405180910390fd5b6002600181905550565b60018081905550565b5f6121538383611978565b6122275760015f808581526020019081526020015f205f015f8473ffffffffffffffffffffffffffffffffffffffff1673ffffffffffffffffffffffffffffffffffffffff1681526020019081526020015f205f6101000a81548160ff0219169083151502179055506121c4612245565b73ffffffffffffffffffffffffffffffffffffffff168273ffffffffffffffffffffffffffffffffffffffff16847f2f8788117e7eff1d82e926ec794901d17c78024a50270940304540a733656f0d60405160405180910390a46001905061222b565b5f90505b92915050565b6122428161223d612245565b612335565b50565b5f33905090565b5f6122578383611978565b1561232b575f805f8581526020019081526020015f205f015f8473ffffffffffffffffffffffffffffffffffffffff1673ffffffffffffffffffffffffffffffffffffffff1681526020019081526020015f205f6101000a81548160ff0219169083151502179055506122c8612245565b73ffffffffffffffffffffffffffffffffffffffff168273ffffffffffffffffffffffffffffffffffffffff16847ff6391f5c32d9c69d2a47ea670b442974b53935d1edc7fd64eb21e047a839171b60405160405180910390a46001905061232f565b5f90505b92915050565b61233f8282611978565b6123825780826040517fe2517d3f000000000000000000000000000000000000000000000000000000008152600401612379929190613e93565b60405180910390fd5b5050565b5f604051905090565b5f80fd5b5f80fd5b5f819050919050565b6123a981612397565b81146123b3575f80fd5b50565b5f813590506123c4816123a0565b92915050565b5f602082840312156123df576123de61238f565b5b5f6123ec848285016123b6565b91505092915050565b6123fe81612397565b82525050565b5f73ffffffffffffffffffffffffffffffffffffffff82169050919050565b5f61242d82612404565b9050919050565b61243d81612423565b82525050565b5f81519050919050565b5f82825260208201905092915050565b8281835e5f83830152505050565b5f601f19601f8301169050919050565b5f61248582612443565b61248f818561244d565b935061249f81856020860161245d565b6124a88161246b565b840191505092915050565b5f8115159050919050565b6124c7816124b3565b82525050565b5f81519050919050565b5f82825260208201905092915050565b5f6124f1826124cd565b6124fb81856124d7565b935061250b81856020860161245d565b6125148161246b565b840191505092915050565b5f610180820190506125335f83018f6123f5565b612540602083018e612434565b8181036040830152612552818d61247b565b9050612561606083018c6123f5565b61256e608083018b6123f5565b61257b60a083018a6123f5565b61258860c08301896123f5565b61259560e08301886124be565b6125a36101008301876123f5565b8181036101208301526125b681866124e7565b90506125c6610140830185612434565b6125d46101608301846124be565b9d9c50505050505050505050505050565b5f7fffffffff0000000000000000000000000000000000000000000000000000000082169050919050565b612619816125e5565b8114612623575f80fd5b50565b5f8135905061263481612610565b92915050565b5f6020828403121561264f5761264e61238f565b5b5f61265c84828501612626565b91505092915050565b5f6020820190506126785f8301846124be565b92915050565b5f6020820190506126915f8301846123f5565b92915050565b5f80fd5b5f80fd5b7f4e487b71000000000000000000000000000000000000000000000000000000005f52604160045260245ffd5b6126d58261246b565b810181811067ffffffffffffffff821117156126f4576126f361269f565b5b80604052505050565b5f612706612386565b905061271282826126cc565b919050565b5f67ffffffffffffffff8211156127315761273061269f565b5b61273a8261246b565b9050602081019050919050565b828183375f83830152505050565b5f61276761276284612717565b6126fd565b9050828152602081018484840111156127835761278261269b565b5b61278e848285612747565b509392505050565b5f82601f8301126127aa576127a9612697565b5b81356127ba848260208601612755565b91505092915050565b5f67ffffffffffffffff8211156127dd576127dc61269f565b5b6127e68261246b565b9050602081019050919050565b5f612805612800846127c3565b6126fd565b9050828152602081018484840111156128215761282061269b565b5b61282c848285612747565b509392505050565b5f82601f83011261284857612847612697565b5b81356128588482602086016127f3565b91505092915050565b61286a81612423565b8114612874575f80fd5b50565b5f8135905061288581612861565b92915050565b5f805f606084860312156128a2576128a161238f565b5b5f84013567ffffffffffffffff8111156128bf576128be612393565b5b6128cb86828701612796565b935050602084013567ffffffffffffffff8111156128ec576128eb612393565b5b6128f886828701612834565b925050604061290986828701612877565b9150509250925092565b61291c816124b3565b8114612926575f80fd5b50565b5f8135905061293781612913565b92915050565b5f80604083850312156129535761295261238f565b5b5f612960858286016123b6565b925050602061297185828601612929565b9150509250929050565b5f819050919050565b61298d8161297b565b8114612997575f80fd5b50565b5f813590506129a881612984565b92915050565b5f602082840312156129c3576129c261238f565b5b5f6129d08482850161299a565b91505092915050565b6129e28161297b565b82525050565b5f6020820190506129fb5f8301846129d9565b92915050565b5f8060408385031215612a1757612a1661238f565b5b5f612a248582860161299a565b9250506020612a3585828601612877565b9150509250929050565b5f60208284031215612a5457612a5361238f565b5b5f612a6184828501612877565b91505092915050565b5f819050919050565b5f612a8d612a88612a8384612404565b612a6a565b612404565b9050919050565b5f612a9e82612a73565b9050919050565b5f612aaf82612a94565b9050919050565b612abf81612aa5565b82525050565b5f602082019050612ad85f830184612ab6565b92915050565b7f4e487b71000000000000000000000000000000000000000000000000000000005f52602260045260245ffd5b5f6002820490506001821680612b2257607f821691505b602082108103612b3557612b34612ade565b5b50919050565b7f47616d655377617044414f3a20766f74696e6720706572696f64206e6f7420655f8201527f6e64656400000000000000000000000000000000000000000000000000000000602082015250565b5f612b9560248361244d565b9150612ba082612b3b565b604082019050919050565b5f6020820190508181035f830152612bc281612b89565b9050919050565b7f47616d655377617044414f3a20616c72656164792065786563757465640000005f82015250565b5f612bfd601d8361244d565b9150612c0882612bc9565b602082019050919050565b5f6020820190508181035f830152612c2a81612bf1565b9050919050565b7f47616d655377617044414f3a2070726f706f73616c2063616e63656c656400005f82015250565b5f612c65601e8361244d565b9150612c7082612c31565b602082019050919050565b5f6020820190508181035f830152612c9281612c59565b9050919050565b5f602082019050612cac5f830184612434565b92915050565b5f81519050612cc0816123a0565b92915050565b5f60208284031215612cdb57612cda61238f565b5b5f612ce884828501612cb2565b91505092915050565b7f47616d655377617044414f3a206e6f20746f6b656e73207374616b65640000005f82015250565b5f612d25601d8361244d565b9150612d3082612cf1565b602082019050919050565b5f6020820190508181035f830152612d5281612d19565b9050919050565b7f4e487b71000000000000000000000000000000000000000000000000000000005f52601160045260245ffd5b5f612d9082612397565b9150612d9b83612397565b9250828201905080821115612db357612db2612d59565b5b92915050565b5f612dc382612397565b9150612dce83612397565b9250828202612ddc81612397565b91508282048414831517612df357612df2612d59565b5b5092915050565b7f4e487b71000000000000000000000000000000000000000000000000000000005f52601260045260245ffd5b5f612e3182612397565b9150612e3c83612397565b925082612e4c57612e4b612dfa565b5b828204905092915050565b7f47616d655377617044414f3a2071756f72756d206e6f742072656163686564005f82015250565b5f612e8b601f8361244d565b9150612e9682612e57565b602082019050919050565b5f6020820190508181035f830152612eb881612e7f565b9050919050565b7f47616d655377617044414f3a2070726f706f73616c2072656a656374656400005f82015250565b5f612ef3601e8361244d565b9150612efe82612ebf565b602082019050919050565b5f6020820190508181035f830152612f2081612ee7565b9050919050565b7f47616d655377617044414f3a2074696d656c6f636b206e6f74207361746973665f8201527f6965640000000000000000000000000000000000000000000000000000000000602082015250565b5f612f8160238361244d565b9150612f8c82612f27565b604082019050919050565b5f6020820190508181035f830152612fae81612f75565b9050919050565b5f81905092915050565b5f819050815f5260205f209050919050565b5f8154612fdd81612b0b565b612fe78186612fb5565b9450600182165f8114613001576001811461301657613048565b60ff1983168652811515820286019350613048565b61301f85612fbf565b5f5b8381101561304057815481890152600182019150602081019050613021565b838801955050505b50505092915050565b5f61305c8284612fd1565b915081905092915050565b7f47616d655377617044414f3a20657865637574696f6e206661696c65640000005f82015250565b5f61309b601d8361244d565b91506130a682613067565b602082019050919050565b5f6020820190508181035f8301526130c88161308f565b9050919050565b7f47616d655377617044414f3a20696e73756666696369656e7420746f6b656e735f8201527f20746f206372656174652070726f706f73616c00000000000000000000000000602082015250565b5f61312960338361244d565b9150613134826130cf565b604082019050919050565b5f6020820190508181035f8301526131568161311d565b9050919050565b5f61316782612397565b91507fffffffffffffffffffffffffffffffffffffffffffffffffffffffffffffffff820361319957613198612d59565b5b600182019050919050565b5f819050815f5260205f209050919050565b5f6020601f8301049050919050565b5f82821b905092915050565b5f600883026132007fffffffffffffffffffffffffffffffffffffffffffffffffffffffffffffffff826131c5565b61320a86836131c5565b95508019841693508086168417925050509392505050565b5f61323c61323761323284612397565b612a6a565b612397565b9050919050565b5f819050919050565b61325583613222565b61326961326182613243565b8484546131d1565b825550505050565b5f90565b61327d613271565b61328881848461324c565b505050565b5b818110156132ab576132a05f82613275565b60018101905061328e565b5050565b601f8211156132f0576132c1816131a4565b6132ca846131b6565b810160208510156132d9578190505b6132ed6132e5856131b6565b83018261328d565b50505b505050565b5f82821c905092915050565b5f6133105f19846008026132f5565b1980831691505092915050565b5f6133288383613301565b9150826002028217905092915050565b61334182612443565b67ffffffffffffffff81111561335a5761335961269f565b5b6133648254612b0b565b61336f8282856132af565b5f60209050601f8311600181146133a0575f841561338e578287015190505b613398858261331d565b8655506133ff565b601f1984166133ae866131a4565b5f5b828110156133d5578489015182556001820191506020850194506020810190506133b0565b868310156133f257848901516133ee601f891682613301565b8355505b6001600288020188555050505b505050505050565b601f8211156134485761341981612fbf565b613422846131b6565b81016020851015613431578190505b61344561343d856131b6565b83018261328d565b50505b505050565b613456826124cd565b67ffffffffffffffff81111561346f5761346e61269f565b5b6134798254612b0b565b613484828285613407565b5f60209050601f8311600181146134b5575f84156134a3578287015190505b6134ad858261331d565b865550613514565b601f1984166134c386612fbf565b5f5b828110156134ea578489015182556001820191506020850194506020810190506134c5565b868310156135075784890151613503601f891682613301565b8355505b6001600288020188555050505b505050505050565b5f6060820190508181035f830152613534818661247b565b905061354360208301856123f5565b61355060408301846123f5565b949350505050565b7f47616d655377617044414f3a20766f74696e67206e6f742073746172746564005f82015250565b5f61358c601f8361244d565b915061359782613558565b602082019050919050565b5f6020820190508181035f8301526135b981613580565b9050919050565b7f47616d655377617044414f3a20766f74696e6720656e646564000000000000005f82015250565b5f6135f460198361244d565b91506135ff826135c0565b602082019050919050565b5f6020820190508181035f830152613621816135e8565b9050919050565b7f47616d655377617044414f3a2070726f706f73616c20616c72656164792065785f8201527f6563757465640000000000000000000000000000000000000000000000000000602082015250565b5f61368260268361244d565b915061368d82613628565b604082019050919050565b5f6020820190508181035f8301526136af81613676565b9050919050565b7f47616d655377617044414f3a20616c726561647920766f7465640000000000005f82015250565b5f6136ea601a8361244d565b91506136f5826136b6565b602082019050919050565b5f6020820190508181035f830152613717816136de565b9050919050565b5f8151905061372c81612984565b92915050565b5f602082840312156137475761374661238f565b5b5f6137548482850161371e565b91505092915050565b5f6040820190506137705f8301856129d9565b61377d6020830184612434565b9392505050565b5f8151905061379281612913565b92915050565b5f602082840312156137ad576137ac61238f565b5b5f6137ba84828501613784565b91505092915050565b7f47616d655377617044414f3a206f6e6c79207374616b6572732063616e20766f5f8201527f7465000000000000000000000000000000000000000000000000000000000000602082015250565b5f61381d60228361244d565b9150613828826137c3565b604082019050919050565b5f6020820190508181035f83015261384a81613811565b9050919050565b7f47616d655377617044414f3a206e6f207374616b656420746f6b656e730000005f82015250565b5f613885601d8361244d565b915061389082613851565b602082019050919050565b5f6020820190508181035f8301526138b281613879565b9050919050565b5f6040820190506138cc5f8301856124be565b6138d960208301846123f5565b9392505050565b7f47616d655377617044414f3a2063616c6c6572206973206e6f742061646d696e5f82015250565b5f61391460208361244d565b915061391f826138e0565b602082019050919050565b5f6020820190508181035f83015261394181613908565b9050919050565b7f47616d655377617044414f3a20696e73756666696369656e742062616c616e635f8201527f6500000000000000000000000000000000000000000000000000000000000000602082015250565b5f6139a260218361244d565b91506139ad82613948565b604082019050919050565b5f6020820190508181035f8301526139cf81613996565b9050919050565b7f656d657267656e637957697468647261770000000000000000000000000000005f82015250565b5f613a0a60118361244d565b9150613a15826139d6565b602082019050919050565b5f6040820190508181035f830152613a37816139fe565b9050613a4660208301846123f5565b92915050565b5f604082019050613a5f5f8301856123f5565b613a6c60208301846123f5565b9392505050565b7f47616d655377617044414f3a20696e76616c69642071756f72756d00000000005f82015250565b5f613aa7601b8361244d565b9150613ab282613a73565b602082019050919050565b5f6020820190508181035f830152613ad481613a9b565b9050919050565b7f47616d655377617044414f3a2063616c6c6572206973206e6f74206d61726b655f8201527f74706c6163650000000000000000000000000000000000000000000000000000602082015250565b5f613b3560268361244d565b9150613b4082613adb565b604082019050919050565b5f6020820190508181035f830152613b6281613b29565b9050919050565b5f819050919050565b5f613b8c613b87613b8284613b69565b612a6a565b612397565b9050919050565b613b9c81613b72565b82525050565b5f604082019050613bb55f8301856123f5565b613bc26020830184613b93565b9392505050565b7f656d657267656e63794275726e000000000000000000000000000000000000005f82015250565b5f613bfd600d8361244d565b9150613c0882613bc9565b602082019050919050565b5f6040820190508181035f830152613c2a81613bf1565b9050613c3960208301846123f5565b92915050565b7f47616d655377617044414f3a206f6e6c792070726f706f736572206f722061645f8201527f6d696e2063616e2063616e63656c000000000000000000000000000000000000602082015250565b5f613c99602e8361244d565b9150613ca482613c3f565b604082019050919050565b5f6020820190508181035f830152613cc681613c8d565b9050919050565b7f47616d655377617044414f3a20616c72656164792063616e63656c65640000005f82015250565b5f613d01601d8361244d565b9150613d0c82613ccd565b602082019050919050565b5f6020820190508181035f830152613d2e81613cf5565b9050919050565b7f47616d655377617044414f3a20696e76616c696420766f74696e6720706572695f8201527f6f64000000000000000000000000000000000000000000000000000000000000602082015250565b5f613d8f60228361244d565b9150613d9a82613d35565b604082019050919050565b5f6020820190508181035f830152613dbc81613d83565b9050919050565b7f47616d655377617044414f3a20696e76616c6964207468726573686f6c6400005f82015250565b5f613df7601e8361244d565b9150613e0282613dc3565b602082019050919050565b5f6020820190508181035f830152613e2481613deb565b9050919050565b7f5265656e7472616e637947756172643a207265656e7472616e742063616c6c005f82015250565b5f613e5f601f8361244d565b9150613e6a82613e2b565b602082019050919050565b5f6020820190508181035f830152613e8c81613e53565b9050919050565b5f604082019050613ea65f830185612434565b613eb360208301846129d9565b939250505056fea26469706673582212206f84a21eb76e838ee4405d5d4352cd6e5a5fd626aa8fbcf3b5d289c06e58c15264736f6c634300081a0033",
					"opcodes": "PUSH1 0x80 PUSH1 0x40 MSTORE CALLVALUE DUP1 ISZERO PUSH2 0xF JUMPI PUSH0 DUP1 REVERT JUMPDEST POP PUSH1 0x40 MLOAD PUSH2 0x44DD CODESIZE SUB DUP1 PUSH2 0x44DD DUP4 CODECOPY DUP2 DUP2 ADD PUSH1 0x40 MSTORE DUP2 ADD SWAP1 PUSH2 0x31 SWAP2 SWAP1 PUSH2 0x3AF JUMP JUMPDEST PUSH1 0x1 DUP1 DUP2 SWAP1 SSTORE POP PUSH0 PUSH20 0xFFFFFFFFFFFFFFFFFFFFFFFFFFFFFFFFFFFFFFFF AND DUP6 PUSH20 0xFFFFFFFFFFFFFFFFFFFFFFFFFFFFFFFFFFFFFFFF AND SUB PUSH2 0xA6 JUMPI PUSH1 0x40 MLOAD PUSH32 0x8C379A000000000000000000000000000000000000000000000000000000000 DUP2 MSTORE PUSH1 0x4 ADD PUSH2 0x9D SWAP1 PUSH2 0x4A6 JUMP JUMPDEST PUSH1 0x40 MLOAD DUP1 SWAP2 SUB SWAP1 REVERT JUMPDEST PUSH0 DUP5 GT DUP1 ISZERO PUSH2 0xB7 JUMPI POP PUSH2 0x2710 DUP5 GT ISZERO JUMPDEST PUSH2 0xF6 JUMPI PUSH1 0x40 MLOAD PUSH32 0x8C379A000000000000000000000000000000000000000000000000000000000 DUP2 MSTORE PUSH1 0x4 ADD PUSH2 0xED SWAP1 PUSH2 0x534 JUMP JUMPDEST PUSH1 0x40 MLOAD DUP1 SWAP2 SUB SWAP1 REVERT JUMPDEST PUSH0 DUP4 GT DUP1 ISZERO PUSH2 0x107 JUMPI POP PUSH2 0x2710 DUP4 GT ISZERO JUMPDEST PUSH2 0x146 JUMPI PUSH1 0x40 MLOAD PUSH32 0x8C379A000000000000000000000000000000000000000000000000000000000 DUP2 MSTORE PUSH1 0x4 ADD PUSH2 0x13D SWAP1 PUSH2 0x5C2 JUMP JUMPDEST PUSH1 0x40 MLOAD DUP1 SWAP2 SUB SWAP1 REVERT JUMPDEST DUP5 PUSH1 0x2 PUSH0 PUSH2 0x100 EXP DUP2 SLOAD DUP2 PUSH20 0xFFFFFFFFFFFFFFFFFFFFFFFFFFFFFFFFFFFFFFFF MUL NOT AND SWAP1 DUP4 PUSH20 0xFFFFFFFFFFFFFFFFFFFFFFFFFFFFFFFFFFFFFFFF AND MUL OR SWAP1 SSTORE POP DUP4 PUSH1 0x4 DUP2 SWAP1 SSTORE POP DUP3 PUSH1 0x5 DUP2 SWAP1 SSTORE POP DUP2 PUSH1 0x6 DUP2 SWAP1 SSTORE POP DUP1 PUSH1 0x7 DUP2 SWAP1 SSTORE POP PUSH2 0x1B4 PUSH0 DUP1 SHL CALLER PUSH2 0x1BF PUSH1 0x20 SHL PUSH1 0x20 SHR JUMP JUMPDEST POP POP POP POP POP POP PUSH2 0x5E0 JUMP JUMPDEST PUSH0 PUSH2 0x1D0 DUP4 DUP4 PUSH2 0x2B4 PUSH1 0x20 SHL PUSH1 0x20 SHR JUMP JUMPDEST PUSH2 0x2AA JUMPI PUSH1 0x1 PUSH0 DUP1 DUP6 DUP2 MSTORE PUSH1 0x20 ADD SWAP1 DUP2 MSTORE PUSH1 0x20 ADD PUSH0 KECCAK256 PUSH0 ADD PUSH0 DUP5 PUSH20 0xFFFFFFFFFFFFFFFFFFFFFFFFFFFFFFFFFFFFFFFF AND PUSH20 0xFFFFFFFFFFFFFFFFFFFFFFFFFFFFFFFFFFFFFFFF AND DUP2 MSTORE PUSH1 0x20 ADD SWAP1 DUP2 MSTORE PUSH1 0x20 ADD PUSH0 KECCAK256 PUSH0 PUSH2 0x100 EXP DUP2 SLOAD DUP2 PUSH1 0xFF MUL NOT AND SWAP1 DUP4 ISZERO ISZERO MUL OR SWAP1 SSTORE POP PUSH2 0x247 PUSH2 0x317 PUSH1 0x20 SHL PUSH1 0x20 SHR JUMP JUMPDEST PUSH20 0xFFFFFFFFFFFFFFFFFFFFFFFFFFFFFFFFFFFFFFFF AND DUP3 PUSH20 0xFFFFFFFFFFFFFFFFFFFFFFFFFFFFFFFFFFFFFFFF AND DUP5 PUSH32 0x2F8788117E7EFF1D82E926EC794901D17C78024A50270940304540A733656F0D PUSH1 0x40 MLOAD PUSH1 0x40 MLOAD DUP1 SWAP2 SUB SWAP1 LOG4 PUSH1 0x1 SWAP1 POP PUSH2 0x2AE JUMP JUMPDEST PUSH0 SWAP1 POP JUMPDEST SWAP3 SWAP2 POP POP JUMP JUMPDEST PUSH0 DUP1 PUSH0 DUP5 DUP2 MSTORE PUSH1 0x20 ADD SWAP1 DUP2 MSTORE PUSH1 0x20 ADD PUSH0 KECCAK256 PUSH0 ADD PUSH0 DUP4 PUSH20 0xFFFFFFFFFFFFFFFFFFFFFFFFFFFFFFFFFFFFFFFF AND PUSH20 0xFFFFFFFFFFFFFFFFFFFFFFFFFFFFFFFFFFFFFFFF AND DUP2 MSTORE PUSH1 0x20 ADD SWAP1 DUP2 MSTORE PUSH1 0x20 ADD PUSH0 KECCAK256 PUSH0 SWAP1 SLOAD SWAP1 PUSH2 0x100 EXP SWAP1 DIV PUSH1 0xFF AND SWAP1 POP SWAP3 SWAP2 POP POP JUMP JUMPDEST PUSH0 CALLER SWAP1 POP SWAP1 JUMP JUMPDEST PUSH0 DUP1 REVERT JUMPDEST PUSH0 PUSH20 0xFFFFFFFFFFFFFFFFFFFFFFFFFFFFFFFFFFFFFFFF DUP3 AND SWAP1 POP SWAP2 SWAP1 POP JUMP JUMPDEST PUSH0 PUSH2 0x34B DUP3 PUSH2 0x322 JUMP JUMPDEST SWAP1 POP SWAP2 SWAP1 POP JUMP JUMPDEST PUSH2 0x35B DUP2 PUSH2 0x341 JUMP JUMPDEST DUP2 EQ PUSH2 0x365 JUMPI PUSH0 DUP1 REVERT JUMPDEST POP JUMP JUMPDEST PUSH0 DUP2 MLOAD SWAP1 POP PUSH2 0x376 DUP2 PUSH2 0x352 JUMP JUMPDEST SWAP3 SWAP2 POP POP JUMP JUMPDEST PUSH0 DUP2 SWAP1 POP SWAP2 SWAP1 POP JUMP JUMPDEST PUSH2 0x38E DUP2 PUSH2 0x37C JUMP JUMPDEST DUP2 EQ PUSH2 0x398 JUMPI PUSH0 DUP1 REVERT JUMPDEST POP JUMP JUMPDEST PUSH0 DUP2 MLOAD SWAP1 POP PUSH2 0x3A9 DUP2 PUSH2 0x385 JUMP JUMPDEST SWAP3 SWAP2 POP POP JUMP JUMPDEST PUSH0 DUP1 PUSH0 DUP1 PUSH0 PUSH1 0xA0 DUP7 DUP9 SUB SLT ISZERO PUSH2 0x3C8 JUMPI PUSH2 0x3C7 PUSH2 0x31E JUMP JUMPDEST JUMPDEST PUSH0 PUSH2 0x3D5 DUP9 DUP3 DUP10 ADD PUSH2 0x368 JUMP JUMPDEST SWAP6 POP POP PUSH1 0x20 PUSH2 0x3E6 DUP9 DUP3 DUP10 ADD PUSH2 0x39B JUMP JUMPDEST SWAP5 POP POP PUSH1 0x40 PUSH2 0x3F7 DUP9 DUP3 DUP10 ADD PUSH2 0x39B JUMP JUMPDEST SWAP4 POP POP PUSH1 0x60 PUSH2 0x408 DUP9 DUP3 DUP10 ADD PUSH2 0x39B JUMP JUMPDEST SWAP3 POP POP PUSH1 0x80 PUSH2 0x419 DUP9 DUP3 DUP10 ADD PUSH2 0x39B JUMP JUMPDEST SWAP2 POP POP SWAP3 SWAP6 POP SWAP3 SWAP6 SWAP1 SWAP4 POP JUMP JUMPDEST PUSH0 DUP3 DUP3 MSTORE PUSH1 0x20 DUP3 ADD SWAP1 POP SWAP3 SWAP2 POP POP JUMP JUMPDEST PUSH32 0x47616D655377617044414F3A20746F6B656E20616464726573732063616E6E6F PUSH0 DUP3 ADD MSTORE PUSH32 0x74206265207A65726F0000000000000000000000000000000000000000000000 PUSH1 0x20 DUP3 ADD MSTORE POP JUMP JUMPDEST PUSH0 PUSH2 0x490 PUSH1 0x29 DUP4 PUSH2 0x426 JUMP JUMPDEST SWAP2 POP PUSH2 0x49B DUP3 PUSH2 0x436 JUMP JUMPDEST PUSH1 0x40 DUP3 ADD SWAP1 POP SWAP2 SWAP1 POP JUMP JUMPDEST PUSH0 PUSH1 0x20 DUP3 ADD SWAP1 POP DUP2 DUP2 SUB PUSH0 DUP4 ADD MSTORE PUSH2 0x4BD DUP2 PUSH2 0x484 JUMP JUMPDEST SWAP1 POP SWAP2 SWAP1 POP JUMP JUMPDEST PUSH32 0x47616D655377617044414F3A2071756F72756D206D7573742062652062657477 PUSH0 DUP3 ADD MSTORE PUSH32 0x65656E203120616E6420313030303020626173697320706F696E747300000000 PUSH1 0x20 DUP3 ADD MSTORE POP JUMP JUMPDEST PUSH0 PUSH2 0x51E PUSH1 0x3C DUP4 PUSH2 0x426 JUMP JUMPDEST SWAP2 POP PUSH2 0x529 DUP3 PUSH2 0x4C4 JUMP JUMPDEST PUSH1 0x40 DUP3 ADD SWAP1 POP SWAP2 SWAP1 POP JUMP JUMPDEST PUSH0 PUSH1 0x20 DUP3 ADD SWAP1 POP DUP2 DUP2 SUB PUSH0 DUP4 ADD MSTORE PUSH2 0x54B DUP2 PUSH2 0x512 JUMP JUMPDEST SWAP1 POP SWAP2 SWAP1 POP JUMP JUMPDEST PUSH32 0x47616D655377617044414F3A207468726573686F6C64206D7573742062652062 PUSH0 DUP3 ADD MSTORE PUSH32 0x65747765656E203120616E6420313030303020626173697320706F696E747300 PUSH1 0x20 DUP3 ADD MSTORE POP JUMP JUMPDEST PUSH0 PUSH2 0x5AC PUSH1 0x3F DUP4 PUSH2 0x426 JUMP JUMPDEST SWAP2 POP PUSH2 0x5B7 DUP3 PUSH2 0x552 JUMP JUMPDEST PUSH1 0x40 DUP3 ADD SWAP1 POP SWAP2 SWAP1 POP JUMP JUMPDEST PUSH0 PUSH1 0x20 DUP3 ADD SWAP1 POP DUP2 DUP2 SUB PUSH0 DUP4 ADD MSTORE PUSH2 0x5D9 DUP2 PUSH2 0x5A0 JUMP JUMPDEST SWAP1 POP SWAP2 SWAP1 POP JUMP JUMPDEST PUSH2 0x3EF0 DUP1 PUSH2 0x5ED PUSH0 CODECOPY PUSH0 RETURN INVALID PUSH1 0x80 PUSH1 0x40 MSTORE PUSH1 0x4 CALLDATASIZE LT PUSH2 0x1D0 JUMPI PUSH0 CALLDATALOAD PUSH1 0xE0 SHR DUP1 PUSH4 0x91D14854 GT PUSH2 0xF6 JUMPI DUP1 PUSH4 0xD085835A GT PUSH2 0x94 JUMPI DUP1 PUSH4 0xE0A8F6F5 GT PUSH2 0x63 JUMPI DUP1 PUSH4 0xE0A8F6F5 EQ PUSH2 0x680 JUMPI DUP1 PUSH4 0xEA0217CF EQ PUSH2 0x6A8 JUMPI DUP1 PUSH4 0xECE40CC1 EQ PUSH2 0x6D0 JUMPI DUP1 PUSH4 0xEFCA2EED EQ PUSH2 0x6F8 JUMPI PUSH2 0x1D7 JUMP JUMPDEST DUP1 PUSH4 0xD085835A EQ PUSH2 0x5DC JUMPI DUP1 PUSH4 0xD547741F EQ PUSH2 0x606 JUMPI DUP1 PUSH4 0xDA35C664 EQ PUSH2 0x62E JUMPI DUP1 PUSH4 0xDFFF8568 EQ PUSH2 0x658 JUMPI PUSH2 0x1D7 JUMP JUMPDEST DUP1 PUSH4 0xB58131B0 GT PUSH2 0xD0 JUMPI DUP1 PUSH4 0xB58131B0 EQ PUSH2 0x548 JUMPI DUP1 PUSH4 0xBB57AD20 EQ PUSH2 0x572 JUMPI DUP1 PUSH4 0xC3439F3F EQ PUSH2 0x588 JUMPI DUP1 PUSH4 0xC3DFDAE6 EQ PUSH2 0x5B2 JUMPI PUSH2 0x1D7 JUMP JUMPDEST DUP1 PUSH4 0x91D14854 EQ PUSH2 0x4B8 JUMPI DUP1 PUSH4 0xA217FDDF EQ PUSH2 0x4F4 JUMPI DUP1 PUSH4 0xA94015C8 EQ PUSH2 0x51E JUMPI PUSH2 0x1D7 JUMP JUMPDEST DUP1 PUSH4 0x2F2FF15D GT PUSH2 0x16E JUMPI DUP1 PUSH4 0x5312EA8E GT PUSH2 0x13D JUMPI DUP1 PUSH4 0x5312EA8E EQ PUSH2 0x416 JUMPI DUP1 PUSH4 0x5BCB318A EQ PUSH2 0x43E JUMPI DUP1 PUSH4 0x6F698FB5 EQ PUSH2 0x466 JUMPI DUP1 PUSH4 0x8160F0B5 EQ PUSH2 0x48E JUMPI PUSH2 0x1D7 JUMP JUMPDEST DUP1 PUSH4 0x2F2FF15D EQ PUSH2 0x34E JUMPI DUP1 PUSH4 0x31D7A262 EQ PUSH2 0x376 JUMPI DUP1 PUSH4 0x36568ABE EQ PUSH2 0x3B2 JUMPI DUP1 PUSH4 0x44B50BFC EQ PUSH2 0x3DA JUMPI PUSH2 0x1D7 JUMP JUMPDEST DUP1 PUSH4 0xD61B519 GT PUSH2 0x1AA JUMPI DUP1 PUSH4 0xD61B519 EQ PUSH2 0x286 JUMPI DUP1 PUSH4 0x10770218 EQ PUSH2 0x2AE JUMPI DUP1 PUSH4 0x15373E3D EQ PUSH2 0x2EA JUMPI DUP1 PUSH4 0x248A9CA3 EQ PUSH2 0x312 JUMPI PUSH2 0x1D7 JUMP JUMPDEST DUP1 PUSH4 0x13CF08B EQ PUSH2 0x1D9 JUMPI DUP1 PUSH4 0x1FFC9A7 EQ PUSH2 0x220 JUMPI DUP1 PUSH4 0x2A251A3 EQ PUSH2 0x25C JUMPI PUSH2 0x1D7 JUMP JUMPDEST CALLDATASIZE PUSH2 0x1D7 JUMPI STOP JUMPDEST STOP JUMPDEST CALLVALUE DUP1 ISZERO PUSH2 0x1E4 JUMPI PUSH0 DUP1 REVERT JUMPDEST POP PUSH2 0x1FF PUSH1 0x4 DUP1 CALLDATASIZE SUB DUP2 ADD SWAP1 PUSH2 0x1FA SWAP2 SWAP1 PUSH2 0x23CA JUMP JUMPDEST PUSH2 0x722 JUMP JUMPDEST PUSH1 0x40 MLOAD PUSH2 0x217 SWAP13 SWAP12 SWAP11 SWAP10 SWAP9 SWAP8 SWAP7 SWAP6 SWAP5 SWAP4 SWAP3 SWAP2 SWAP1 PUSH2 0x251F JUMP JUMPDEST PUSH1 0x40 MLOAD DUP1 SWAP2 SUB SWAP1 RETURN JUMPDEST CALLVALUE DUP1 ISZERO PUSH2 0x22B JUMPI PUSH0 DUP1 REVERT JUMPDEST POP PUSH2 0x246 PUSH1 0x4 DUP1 CALLDATASIZE SUB DUP2 ADD SWAP1 PUSH2 0x241 SWAP2 SWAP1 PUSH2 0x263A JUMP JUMPDEST PUSH2 0x8E0 JUMP JUMPDEST PUSH1 0x40 MLOAD PUSH2 0x253 SWAP2 SWAP1 PUSH2 0x2665 JUMP JUMPDEST PUSH1 0x40 MLOAD DUP1 SWAP2 SUB SWAP1 RETURN JUMPDEST CALLVALUE DUP1 ISZERO PUSH2 0x267 JUMPI PUSH0 DUP1 REVERT JUMPDEST POP PUSH2 0x270 PUSH2 0x959 JUMP JUMPDEST PUSH1 0x40 MLOAD PUSH2 0x27D SWAP2 SWAP1 PUSH2 0x267E JUMP JUMPDEST PUSH1 0x40 MLOAD DUP1 SWAP2 SUB SWAP1 RETURN JUMPDEST CALLVALUE DUP1 ISZERO PUSH2 0x291 JUMPI PUSH0 DUP1 REVERT JUMPDEST POP PUSH2 0x2AC PUSH1 0x4 DUP1 CALLDATASIZE SUB DUP2 ADD SWAP1 PUSH2 0x2A7 SWAP2 SWAP1 PUSH2 0x23CA JUMP JUMPDEST PUSH2 0x95F JUMP JUMPDEST STOP JUMPDEST CALLVALUE DUP1 ISZERO PUSH2 0x2B9 JUMPI PUSH0 DUP1 REVERT JUMPDEST POP PUSH2 0x2D4 PUSH1 0x4 DUP1 CALLDATASIZE SUB DUP2 ADD SWAP1 PUSH2 0x2CF SWAP2 SWAP1 PUSH2 0x288B JUMP JUMPDEST PUSH2 0xD9B JUMP JUMPDEST PUSH1 0x40 MLOAD PUSH2 0x2E1 SWAP2 SWAP1 PUSH2 0x267E JUMP JUMPDEST PUSH1 0x40 MLOAD DUP1 SWAP2 SUB SWAP1 RETURN JUMPDEST CALLVALUE DUP1 ISZERO PUSH2 0x2F5 JUMPI PUSH0 DUP1 REVERT JUMPDEST POP PUSH2 0x310 PUSH1 0x4 DUP1 CALLDATASIZE SUB DUP2 ADD SWAP1 PUSH2 0x30B SWAP2 SWAP1 PUSH2 0x293D JUMP JUMPDEST PUSH2 0x10A4 JUMP JUMPDEST STOP JUMPDEST CALLVALUE DUP1 ISZERO PUSH2 0x31D JUMPI PUSH0 DUP1 REVERT JUMPDEST POP PUSH2 0x338 PUSH1 0x4 DUP1 CALLDATASIZE SUB DUP2 ADD SWAP1 PUSH2 0x333 SWAP2 SWAP1 PUSH2 0x29AE JUMP JUMPDEST PUSH2 0x15E2 JUMP JUMPDEST PUSH1 0x40 MLOAD PUSH2 0x345 SWAP2 SWAP1 PUSH2 0x29E8 JUMP JUMPDEST PUSH1 0x40 MLOAD DUP1 SWAP2 SUB SWAP1 RETURN JUMPDEST CALLVALUE DUP1 ISZERO PUSH2 0x359 JUMPI PUSH0 DUP1 REVERT JUMPDEST POP PUSH2 0x374 PUSH1 0x4 DUP1 CALLDATASIZE SUB DUP2 ADD SWAP1 PUSH2 0x36F SWAP2 SWAP1 PUSH2 0x2A01 JUMP JUMPDEST PUSH2 0x15FE JUMP JUMPDEST STOP JUMPDEST CALLVALUE DUP1 ISZERO PUSH2 0x381 JUMPI PUSH0 DUP1 REVERT JUMPDEST POP PUSH2 0x39C PUSH1 0x4 DUP1 CALLDATASIZE SUB DUP2 ADD SWAP1 PUSH2 0x397 SWAP2 SWAP1 PUSH2 0x2A3F JUMP JUMPDEST PUSH2 0x1620 JUMP JUMPDEST PUSH1 0x40 MLOAD PUSH2 0x3A9 SWAP2 SWAP1 PUSH2 0x267E JUMP JUMPDEST PUSH1 0x40 MLOAD DUP1 SWAP2 SUB SWAP1 RETURN JUMPDEST CALLVALUE DUP1 ISZERO PUSH2 0x3BD JUMPI PUSH0 DUP1 REVERT JUMPDEST POP PUSH2 0x3D8 PUSH1 0x4 DUP1 CALLDATASIZE SUB DUP2 ADD SWAP1 PUSH2 0x3D3 SWAP2 SWAP1 PUSH2 0x2A01 JUMP JUMPDEST PUSH2 0x1635 JUMP JUMPDEST STOP JUMPDEST CALLVALUE DUP1 ISZERO PUSH2 0x3E5 JUMPI PUSH0 DUP1 REVERT JUMPDEST POP PUSH2 0x400 PUSH1 0x4 DUP1 CALLDATASIZE SUB DUP2 ADD SWAP1 PUSH2 0x3FB SWAP2 SWAP1 PUSH2 0x2A3F JUMP JUMPDEST PUSH2 0x16B0 JUMP JUMPDEST PUSH1 0x40 MLOAD PUSH2 0x40D SWAP2 SWAP1 PUSH2 0x267E JUMP JUMPDEST PUSH1 0x40 MLOAD DUP1 SWAP2 SUB SWAP1 RETURN JUMPDEST CALLVALUE DUP1 ISZERO PUSH2 0x421 JUMPI PUSH0 DUP1 REVERT JUMPDEST POP PUSH2 0x43C PUSH1 0x4 DUP1 CALLDATASIZE SUB DUP2 ADD SWAP1 PUSH2 0x437 SWAP2 SWAP1 PUSH2 0x23CA JUMP JUMPDEST PUSH2 0x16C5 JUMP JUMPDEST STOP JUMPDEST CALLVALUE DUP1 ISZERO PUSH2 0x449 JUMPI PUSH0 DUP1 REVERT JUMPDEST POP PUSH2 0x464 PUSH1 0x4 DUP1 CALLDATASIZE SUB DUP2 ADD SWAP1 PUSH2 0x45F SWAP2 SWAP1 PUSH2 0x23CA JUMP JUMPDEST PUSH2 0x17F8 JUMP JUMPDEST STOP JUMPDEST CALLVALUE DUP1 ISZERO PUSH2 0x471 JUMPI PUSH0 DUP1 REVERT JUMPDEST POP PUSH2 0x48C PUSH1 0x4 DUP1 CALLDATASIZE SUB DUP2 ADD SWAP1 PUSH2 0x487 SWAP2 SWAP1 PUSH2 0x23CA JUMP JUMPDEST PUSH2 0x188D JUMP JUMPDEST STOP JUMPDEST CALLVALUE DUP1 ISZERO PUSH2 0x499 JUMPI PUSH0 DUP1 REVERT JUMPDEST POP PUSH2 0x4A2 PUSH2 0x1972 JUMP JUMPDEST PUSH1 0x40 MLOAD PUSH2 0x4AF SWAP2 SWAP1 PUSH2 0x267E JUMP JUMPDEST PUSH1 0x40 MLOAD DUP1 SWAP2 SUB SWAP1 RETURN JUMPDEST CALLVALUE DUP1 ISZERO PUSH2 0x4C3 JUMPI PUSH0 DUP1 REVERT JUMPDEST POP PUSH2 0x4DE PUSH1 0x4 DUP1 CALLDATASIZE SUB DUP2 ADD SWAP1 PUSH2 0x4D9 SWAP2 SWAP1 PUSH2 0x2A01 JUMP JUMPDEST PUSH2 0x1978 JUMP JUMPDEST PUSH1 0x40 MLOAD PUSH2 0x4EB SWAP2 SWAP1 PUSH2 0x2665 JUMP JUMPDEST PUSH1 0x40 MLOAD DUP1 SWAP2 SUB SWAP1 RETURN JUMPDEST CALLVALUE DUP1 ISZERO PUSH2 0x4FF JUMPI PUSH0 DUP1 REVERT JUMPDEST POP PUSH2 0x508 PUSH2 0x19DB JUMP JUMPDEST PUSH1 0x40 MLOAD PUSH2 0x515 SWAP2 SWAP1 PUSH2 0x29E8 JUMP JUMPDEST PUSH1 0x40 MLOAD DUP1 SWAP2 SUB SWAP1 RETURN JUMPDEST CALLVALUE DUP1 ISZERO PUSH2 0x529 JUMPI PUSH0 DUP1 REVERT JUMPDEST POP PUSH2 0x532 PUSH2 0x19E1 JUMP JUMPDEST PUSH1 0x40 MLOAD PUSH2 0x53F SWAP2 SWAP1 PUSH2 0x29E8 JUMP JUMPDEST PUSH1 0x40 MLOAD DUP1 SWAP2 SUB SWAP1 RETURN JUMPDEST CALLVALUE DUP1 ISZERO PUSH2 0x553 JUMPI PUSH0 DUP1 REVERT JUMPDEST POP PUSH2 0x55C PUSH2 0x1A05 JUMP JUMPDEST PUSH1 0x40 MLOAD PUSH2 0x569 SWAP2 SWAP1 PUSH2 0x267E JUMP JUMPDEST PUSH1 0x40 MLOAD DUP1 SWAP2 SUB SWAP1 RETURN JUMPDEST CALLVALUE DUP1 ISZERO PUSH2 0x57D JUMPI PUSH0 DUP1 REVERT JUMPDEST POP PUSH2 0x586 PUSH2 0x1A0B JUMP JUMPDEST STOP JUMPDEST CALLVALUE DUP1 ISZERO PUSH2 0x593 JUMPI PUSH0 DUP1 REVERT JUMPDEST POP PUSH2 0x59C PUSH2 0x1B74 JUMP JUMPDEST PUSH1 0x40 MLOAD PUSH2 0x5A9 SWAP2 SWAP1 PUSH2 0x29E8 JUMP JUMPDEST PUSH1 0x40 MLOAD DUP1 SWAP2 SUB SWAP1 RETURN JUMPDEST CALLVALUE DUP1 ISZERO PUSH2 0x5BD JUMPI PUSH0 DUP1 REVERT JUMPDEST POP PUSH2 0x5C6 PUSH2 0x1B98 JUMP JUMPDEST PUSH1 0x40 MLOAD PUSH2 0x5D3 SWAP2 SWAP1 PUSH2 0x2AC5 JUMP JUMPDEST PUSH1 0x40 MLOAD DUP1 SWAP2 SUB SWAP1 RETURN JUMPDEST CALLVALUE DUP1 ISZERO PUSH2 0x5E7 JUMPI PUSH0 DUP1 REVERT JUMPDEST POP PUSH2 0x5F0 PUSH2 0x1BBD JUMP JUMPDEST PUSH1 0x40 MLOAD PUSH2 0x5FD SWAP2 SWAP1 PUSH2 0x267E JUMP JUMPDEST PUSH1 0x40 MLOAD DUP1 SWAP2 SUB SWAP1 RETURN JUMPDEST CALLVALUE DUP1 ISZERO PUSH2 0x611 JUMPI PUSH0 DUP1 REVERT JUMPDEST POP PUSH2 0x62C PUSH1 0x4 DUP1 CALLDATASIZE SUB DUP2 ADD SWAP1 PUSH2 0x627 SWAP2 SWAP1 PUSH2 0x2A01 JUMP JUMPDEST PUSH2 0x1BC3 JUMP JUMPDEST STOP JUMPDEST CALLVALUE DUP1 ISZERO PUSH2 0x639 JUMPI PUSH0 DUP1 REVERT JUMPDEST POP PUSH2 0x642 PUSH2 0x1BE5 JUMP JUMPDEST PUSH1 0x40 MLOAD PUSH2 0x64F SWAP2 SWAP1 PUSH2 0x267E JUMP JUMPDEST PUSH1 0x40 MLOAD DUP1 SWAP2 SUB SWAP1 RETURN JUMPDEST CALLVALUE DUP1 ISZERO PUSH2 0x663 JUMPI PUSH0 DUP1 REVERT JUMPDEST POP PUSH2 0x67E PUSH1 0x4 DUP1 CALLDATASIZE SUB DUP2 ADD SWAP1 PUSH2 0x679 SWAP2 SWAP1 PUSH2 0x23CA JUMP JUMPDEST PUSH2 0x1BEB JUMP JUMPDEST STOP JUMPDEST CALLVALUE DUP1 ISZERO PUSH2 0x68B JUMPI PUSH0 DUP1 REVERT JUMPDEST POP PUSH2 0x6A6 PUSH1 0x4 DUP1 CALLDATASIZE SUB DUP2 ADD SWAP1 PUSH2 0x6A1 SWAP2 SWAP1 PUSH2 0x23CA JUMP JUMPDEST PUSH2 0x1D1E JUMP JUMPDEST STOP JUMPDEST CALLVALUE DUP1 ISZERO PUSH2 0x6B3 JUMPI PUSH0 DUP1 REVERT JUMPDEST POP PUSH2 0x6CE PUSH1 0x4 DUP1 CALLDATASIZE SUB DUP2 ADD SWAP1 PUSH2 0x6C9 SWAP2 SWAP1 PUSH2 0x23CA JUMP JUMPDEST PUSH2 0x1EC5 JUMP JUMPDEST STOP JUMPDEST CALLVALUE DUP1 ISZERO PUSH2 0x6DB JUMPI PUSH0 DUP1 REVERT JUMPDEST POP PUSH2 0x6F6 PUSH1 0x4 DUP1 CALLDATASIZE SUB DUP2 ADD SWAP1 PUSH2 0x6F1 SWAP2 SWAP1 PUSH2 0x23CA JUMP JUMPDEST PUSH2 0x1F9C JUMP JUMPDEST STOP JUMPDEST CALLVALUE DUP1 ISZERO PUSH2 0x703 JUMPI PUSH0 DUP1 REVERT JUMPDEST POP PUSH2 0x70C PUSH2 0x2081 JUMP JUMPDEST PUSH1 0x40 MLOAD PUSH2 0x719 SWAP2 SWAP1 PUSH2 0x267E JUMP JUMPDEST PUSH1 0x40 MLOAD DUP1 SWAP2 SUB SWAP1 RETURN JUMPDEST PUSH1 0x8 PUSH1 0x20 MSTORE DUP1 PUSH0 MSTORE PUSH1 0x40 PUSH0 KECCAK256 PUSH0 SWAP2 POP SWAP1 POP DUP1 PUSH0 ADD SLOAD SWAP1 DUP1 PUSH1 0x1 ADD PUSH0 SWAP1 SLOAD SWAP1 PUSH2 0x100 EXP SWAP1 DIV PUSH20 0xFFFFFFFFFFFFFFFFFFFFFFFFFFFFFFFFFFFFFFFF AND SWAP1 DUP1 PUSH1 0x2 ADD DUP1 SLOAD PUSH2 0x76C SWAP1 PUSH2 0x2B0B JUMP JUMPDEST DUP1 PUSH1 0x1F ADD PUSH1 0x20 DUP1 SWAP2 DIV MUL PUSH1 0x20 ADD PUSH1 0x40 MLOAD SWAP1 DUP2 ADD PUSH1 0x40 MSTORE DUP1 SWAP3 SWAP2 SWAP1 DUP2 DUP2 MSTORE PUSH1 0x20 ADD DUP3 DUP1 SLOAD PUSH2 0x798 SWAP1 PUSH2 0x2B0B JUMP JUMPDEST DUP1 ISZERO PUSH2 0x7E3 JUMPI DUP1 PUSH1 0x1F LT PUSH2 0x7BA JUMPI PUSH2 0x100 DUP1 DUP4 SLOAD DIV MUL DUP4 MSTORE SWAP2 PUSH1 0x20 ADD SWAP2 PUSH2 0x7E3 JUMP JUMPDEST DUP3 ADD SWAP2 SWAP1 PUSH0 MSTORE PUSH1 0x20 PUSH0 KECCAK256 SWAP1 JUMPDEST DUP2 SLOAD DUP2 MSTORE SWAP1 PUSH1 0x1 ADD SWAP1 PUSH1 0x20 ADD DUP1 DUP4 GT PUSH2 0x7C6 JUMPI DUP3 SWAP1 SUB PUSH1 0x1F AND DUP3 ADD SWAP2 JUMPDEST POP POP POP POP POP SWAP1 DUP1 PUSH1 0x3 ADD SLOAD SWAP1 DUP1 PUSH1 0x4 ADD SLOAD SWAP1 DUP1 PUSH1 0x5 ADD SLOAD SWAP1 DUP1 PUSH1 0x6 ADD SLOAD SWAP1 DUP1 PUSH1 0x7 ADD PUSH0 SWAP1 SLOAD SWAP1 PUSH2 0x100 EXP SWAP1 DIV PUSH1 0xFF AND SWAP1 DUP1 PUSH1 0x8 ADD SLOAD SWAP1 DUP1 PUSH1 0x9 ADD DUP1 SLOAD PUSH2 0x828 SWAP1 PUSH2 0x2B0B JUMP JUMPDEST DUP1 PUSH1 0x1F ADD PUSH1 0x20 DUP1 SWAP2 DIV MUL PUSH1 0x20 ADD PUSH1 0x40 MLOAD SWAP1 DUP2 ADD PUSH1 0x40 MSTORE DUP1 SWAP3 SWAP2 SWAP1 DUP2 DUP2 MSTORE PUSH1 0x20 ADD DUP3 DUP1 SLOAD PUSH2 0x854 SWAP1 PUSH2 0x2B0B JUMP JUMPDEST DUP1 ISZERO PUSH2 0x89F JUMPI DUP1 PUSH1 0x1F LT PUSH2 0x876 JUMPI PUSH2 0x100 DUP1 DUP4 SLOAD DIV MUL DUP4 MSTORE SWAP2 PUSH1 0x20 ADD SWAP2 PUSH2 0x89F JUMP JUMPDEST DUP3 ADD SWAP2 SWAP1 PUSH0 MSTORE PUSH1 0x20 PUSH0 KECCAK256 SWAP1 JUMPDEST DUP2 SLOAD DUP2 MSTORE SWAP1 PUSH1 0x1 ADD SWAP1 PUSH1 0x20 ADD DUP1 DUP4 GT PUSH2 0x882 JUMPI DUP3 SWAP1 SUB PUSH1 0x1F AND DUP3 ADD SWAP2 JUMPDEST POP POP POP POP POP SWAP1 DUP1 PUSH1 0xA ADD PUSH0 SWAP1 SLOAD SWAP1 PUSH2 0x100 EXP SWAP1 DIV PUSH20 0xFFFFFFFFFFFFFFFFFFFFFFFFFFFFFFFFFFFFFFFF AND SWAP1 DUP1 PUSH1 0xC ADD PUSH0 SWAP1 SLOAD SWAP1 PUSH2 0x100 EXP SWAP1 DIV PUSH1 0xFF AND SWAP1 POP DUP13 JUMP JUMPDEST PUSH0 PUSH32 0x7965DB0B00000000000000000000000000000000000000000000000000000000 PUSH28 0xFFFFFFFFFFFFFFFFFFFFFFFFFFFFFFFFFFFFFFFFFFFFFFFFFFFFFFFF NOT AND DUP3 PUSH28 0xFFFFFFFFFFFFFFFFFFFFFFFFFFFFFFFFFFFFFFFFFFFFFFFFFFFFFFFF NOT AND EQ DUP1 PUSH2 0x952 JUMPI POP PUSH2 0x951 DUP3 PUSH2 0x2087 JUMP JUMPDEST JUMPDEST SWAP1 POP SWAP2 SWAP1 POP JUMP JUMPDEST PUSH1 0x6 SLOAD DUP2 JUMP JUMPDEST PUSH2 0x967 PUSH2 0x20F0 JUMP JUMPDEST PUSH0 PUSH1 0x8 PUSH0 DUP4 DUP2 MSTORE PUSH1 0x20 ADD SWAP1 DUP2 MSTORE PUSH1 0x20 ADD PUSH0 KECCAK256 SWAP1 POP DUP1 PUSH1 0x4 ADD SLOAD NUMBER GT PUSH2 0x9C1 JUMPI PUSH1 0x40 MLOAD PUSH32 0x8C379A000000000000000000000000000000000000000000000000000000000 DUP2 MSTORE PUSH1 0x4 ADD PUSH2 0x9B8 SWAP1 PUSH2 0x2BAB JUMP JUMPDEST PUSH1 0x40 MLOAD DUP1 SWAP2 SUB SWAP1 REVERT JUMPDEST DUP1 PUSH1 0x7 ADD PUSH0 SWAP1 SLOAD SWAP1 PUSH2 0x100 EXP SWAP1 DIV PUSH1 0xFF AND ISZERO PUSH2 0xA12 JUMPI PUSH1 0x40 MLOAD PUSH32 0x8C379A000000000000000000000000000000000000000000000000000000000 DUP2 MSTORE PUSH1 0x4 ADD PUSH2 0xA09 SWAP1 PUSH2 0x2C13 JUMP JUMPDEST PUSH1 0x40 MLOAD DUP1 SWAP2 SUB SWAP1 REVERT JUMPDEST DUP1 PUSH1 0xC ADD PUSH0 SWAP1 SLOAD SWAP1 PUSH2 0x100 EXP SWAP1 DIV PUSH1 0xFF AND ISZERO PUSH2 0xA63 JUMPI PUSH1 0x40 MLOAD PUSH32 0x8C379A000000000000000000000000000000000000000000000000000000000 DUP2 MSTORE PUSH1 0x4 ADD PUSH2 0xA5A SWAP1 PUSH2 0x2C7B JUMP JUMPDEST PUSH1 0x40 MLOAD DUP1 SWAP2 SUB SWAP1 REVERT JUMPDEST PUSH0 PUSH1 0x2 PUSH0 SWAP1 SLOAD SWAP1 PUSH2 0x100 EXP SWAP1 DIV PUSH20 0xFFFFFFFFFFFFFFFFFFFFFFFFFFFFFFFFFFFFFFFF AND PUSH20 0xFFFFFFFFFFFFFFFFFFFFFFFFFFFFFFFFFFFFFFFF AND PUSH4 0x70A08231 ADDRESS PUSH1 0x40 MLOAD DUP3 PUSH4 0xFFFFFFFF AND PUSH1 0xE0 SHL DUP2 MSTORE PUSH1 0x4 ADD PUSH2 0xABE SWAP2 SWAP1 PUSH2 0x2C99 JUMP JUMPDEST PUSH1 0x20 PUSH1 0x40 MLOAD DUP1 DUP4 SUB DUP2 DUP7 GAS STATICCALL ISZERO DUP1 ISZERO PUSH2 0xAD9 JUMPI RETURNDATASIZE PUSH0 DUP1 RETURNDATACOPY RETURNDATASIZE PUSH0 REVERT JUMPDEST POP POP POP POP PUSH1 0x40 MLOAD RETURNDATASIZE PUSH1 0x1F NOT PUSH1 0x1F DUP3 ADD AND DUP3 ADD DUP1 PUSH1 0x40 MSTORE POP DUP2 ADD SWAP1 PUSH2 0xAFD SWAP2 SWAP1 PUSH2 0x2CC6 JUMP JUMPDEST SWAP1 POP PUSH0 DUP2 GT PUSH2 0xB41 JUMPI PUSH1 0x40 MLOAD PUSH32 0x8C379A000000000000000000000000000000000000000000000000000000000 DUP2 MSTORE PUSH1 0x4 ADD PUSH2 0xB38 SWAP1 PUSH2 0x2D3B JUMP JUMPDEST PUSH1 0x40 MLOAD DUP1 SWAP2 SUB SWAP1 REVERT JUMPDEST PUSH1 0x4 SLOAD DUP2 PUSH2 0x2710 DUP5 PUSH1 0x6 ADD SLOAD DUP6 PUSH1 0x5 ADD SLOAD PUSH2 0xB5C SWAP2 SWAP1 PUSH2 0x2D86 JUMP JUMPDEST PUSH2 0xB66 SWAP2 SWAP1 PUSH2 0x2DB9 JUMP JUMPDEST PUSH2 0xB70 SWAP2 SWAP1 PUSH2 0x2E27 JUMP JUMPDEST LT ISZERO PUSH2 0xBB1 JUMPI PUSH1 0x40 MLOAD PUSH32 0x8C379A000000000000000000000000000000000000000000000000000000000 DUP2 MSTORE PUSH1 0x4 ADD PUSH2 0xBA8 SWAP1 PUSH2 0x2EA1 JUMP JUMPDEST PUSH1 0x40 MLOAD DUP1 SWAP2 SUB SWAP1 REVERT JUMPDEST DUP2 PUSH1 0x6 ADD SLOAD DUP3 PUSH1 0x5 ADD SLOAD GT PUSH2 0xBFB JUMPI PUSH1 0x40 MLOAD PUSH32 0x8C379A000000000000000000000000000000000000000000000000000000000 DUP2 MSTORE PUSH1 0x4 ADD PUSH2 0xBF2 SWAP1 PUSH2 0x2F09 JUMP JUMPDEST PUSH1 0x40 MLOAD DUP1 SWAP2 SUB SWAP1 REVERT JUMPDEST PUSH0 DUP3 PUSH1 0x8 ADD SLOAD SUB PUSH2 0xC16 JUMPI TIMESTAMP DUP3 PUSH1 0x8 ADD DUP2 SWAP1 SSTORE POP POP POP PUSH2 0xD90 JUMP JUMPDEST PUSH1 0x7 SLOAD DUP3 PUSH1 0x8 ADD SLOAD PUSH2 0xC28 SWAP2 SWAP1 PUSH2 0x2D86 JUMP JUMPDEST TIMESTAMP LT ISZERO PUSH2 0xC6A JUMPI PUSH1 0x40 MLOAD PUSH32 0x8C379A000000000000000000000000000000000000000000000000000000000 DUP2 MSTORE PUSH1 0x4 ADD PUSH2 0xC61 SWAP1 PUSH2 0x2F97 JUMP JUMPDEST PUSH1 0x40 MLOAD DUP1 SWAP2 SUB SWAP1 REVERT JUMPDEST PUSH1 0x1 DUP3 PUSH1 0x7 ADD PUSH0 PUSH2 0x100 EXP DUP2 SLOAD DUP2 PUSH1 0xFF MUL NOT AND SWAP1 DUP4 ISZERO ISZERO MUL OR SWAP1 SSTORE POP PUSH0 DUP3 PUSH1 0xA ADD PUSH0 SWAP1 SLOAD SWAP1 PUSH2 0x100 EXP SWAP1 DIV PUSH20 0xFFFFFFFFFFFFFFFFFFFFFFFFFFFFFFFFFFFFFFFF AND PUSH20 0xFFFFFFFFFFFFFFFFFFFFFFFFFFFFFFFFFFFFFFFF AND DUP4 PUSH1 0x9 ADD PUSH1 0x40 MLOAD PUSH2 0xCD2 SWAP2 SWAP1 PUSH2 0x3051 JUMP JUMPDEST PUSH0 PUSH1 0x40 MLOAD DUP1 DUP4 SUB DUP2 PUSH0 DUP7 GAS CALL SWAP2 POP POP RETURNDATASIZE DUP1 PUSH0 DUP2 EQ PUSH2 0xD0B JUMPI PUSH1 0x40 MLOAD SWAP2 POP PUSH1 0x1F NOT PUSH1 0x3F RETURNDATASIZE ADD AND DUP3 ADD PUSH1 0x40 MSTORE RETURNDATASIZE DUP3 MSTORE RETURNDATASIZE PUSH0 PUSH1 0x20 DUP5 ADD RETURNDATACOPY PUSH2 0xD10 JUMP JUMPDEST PUSH1 0x60 SWAP2 POP JUMPDEST POP POP SWAP1 POP DUP1 PUSH2 0xD54 JUMPI PUSH1 0x40 MLOAD PUSH32 0x8C379A000000000000000000000000000000000000000000000000000000000 DUP2 MSTORE PUSH1 0x4 ADD PUSH2 0xD4B SWAP1 PUSH2 0x30B1 JUMP JUMPDEST PUSH1 0x40 MLOAD DUP1 SWAP2 SUB SWAP1 REVERT JUMPDEST DUP4 PUSH32 0x9C85B616F29FCA57A17EAFE71CF9FF82FFEF41766E2CF01EA7F8F7878DD3EC24 CALLER PUSH1 0x40 MLOAD PUSH2 0xD84 SWAP2 SWAP1 PUSH2 0x2C99 JUMP JUMPDEST PUSH1 0x40 MLOAD DUP1 SWAP2 SUB SWAP1 LOG2 POP POP POP JUMPDEST PUSH2 0xD98 PUSH2 0x213F JUMP JUMPDEST POP JUMP JUMPDEST PUSH0 PUSH2 0xDA4 PUSH2 0x20F0 JUMP JUMPDEST PUSH0 PUSH1 0x2 PUSH0 SWAP1 SLOAD SWAP1 PUSH2 0x100 EXP SWAP1 DIV PUSH20 0xFFFFFFFFFFFFFFFFFFFFFFFFFFFFFFFFFFFFFFFF AND PUSH20 0xFFFFFFFFFFFFFFFFFFFFFFFFFFFFFFFFFFFFFFFF AND PUSH4 0x70A08231 CALLER PUSH1 0x40 MLOAD DUP3 PUSH4 0xFFFFFFFF AND PUSH1 0xE0 SHL DUP2 MSTORE PUSH1 0x4 ADD PUSH2 0xDFF SWAP2 SWAP1 PUSH2 0x2C99 JUMP JUMPDEST PUSH1 0x20 PUSH1 0x40 MLOAD DUP1 DUP4 SUB DUP2 DUP7 GAS STATICCALL ISZERO DUP1 ISZERO PUSH2 0xE1A JUMPI RETURNDATASIZE PUSH0 DUP1 RETURNDATACOPY RETURNDATASIZE PUSH0 REVERT JUMPDEST POP POP POP POP PUSH1 0x40 MLOAD RETURNDATASIZE PUSH1 0x1F NOT PUSH1 0x1F DUP3 ADD AND DUP3 ADD DUP1 PUSH1 0x40 MSTORE POP DUP2 ADD SWAP1 PUSH2 0xE3E SWAP2 SWAP1 PUSH2 0x2CC6 JUMP JUMPDEST SWAP1 POP PUSH0 PUSH1 0x2 PUSH0 SWAP1 SLOAD SWAP1 PUSH2 0x100 EXP SWAP1 DIV PUSH20 0xFFFFFFFFFFFFFFFFFFFFFFFFFFFFFFFFFFFFFFFF AND PUSH20 0xFFFFFFFFFFFFFFFFFFFFFFFFFFFFFFFFFFFFFFFF AND PUSH4 0x18160DDD PUSH1 0x40 MLOAD DUP2 PUSH4 0xFFFFFFFF AND PUSH1 0xE0 SHL DUP2 MSTORE PUSH1 0x4 ADD PUSH1 0x20 PUSH1 0x40 MLOAD DUP1 DUP4 SUB DUP2 DUP7 GAS STATICCALL ISZERO DUP1 ISZERO PUSH2 0xEAB JUMPI RETURNDATASIZE PUSH0 DUP1 RETURNDATACOPY RETURNDATASIZE PUSH0 REVERT JUMPDEST POP POP POP POP PUSH1 0x40 MLOAD RETURNDATASIZE PUSH1 0x1F NOT PUSH1 0x1F DUP3 ADD AND DUP3 ADD DUP1 PUSH1 0x40 MSTORE POP DUP2 ADD SWAP1 PUSH2 0xECF SWAP2 SWAP1 PUSH2 0x2CC6 JUMP JUMPDEST SWAP1 POP PUSH1 0x5 SLOAD DUP2 PUSH2 0x2710 DUP5 PUSH2 0xEE3 SWAP2 SWAP1 PUSH2 0x2DB9 JUMP JUMPDEST PUSH2 0xEED SWAP2 SWAP1 PUSH2 0x2E27 JUMP JUMPDEST LT ISZERO PUSH2 0xF2E JUMPI PUSH1 0x40 MLOAD PUSH32 0x8C379A000000000000000000000000000000000000000000000000000000000 DUP2 MSTORE PUSH1 0x4 ADD PUSH2 0xF25 SWAP1 PUSH2 0x313F JUMP JUMPDEST PUSH1 0x40 MLOAD DUP1 SWAP2 SUB SWAP1 REVERT JUMPDEST PUSH1 0x3 PUSH0 DUP2 SLOAD DUP1 SWAP3 SWAP2 SWAP1 PUSH2 0xF40 SWAP1 PUSH2 0x315D JUMP JUMPDEST SWAP2 SWAP1 POP SSTORE POP PUSH0 PUSH1 0x3 SLOAD SWAP1 POP PUSH0 PUSH1 0x8 PUSH0 DUP4 DUP2 MSTORE PUSH1 0x20 ADD SWAP1 DUP2 MSTORE PUSH1 0x20 ADD PUSH0 KECCAK256 SWAP1 POP DUP2 DUP2 PUSH0 ADD DUP2 SWAP1 SSTORE POP CALLER DUP2 PUSH1 0x1 ADD PUSH0 PUSH2 0x100 EXP DUP2 SLOAD DUP2 PUSH20 0xFFFFFFFFFFFFFFFFFFFFFFFFFFFFFFFFFFFFFFFF MUL NOT AND SWAP1 DUP4 PUSH20 0xFFFFFFFFFFFFFFFFFFFFFFFFFFFFFFFFFFFFFFFF AND MUL OR SWAP1 SSTORE POP DUP8 DUP2 PUSH1 0x2 ADD SWAP1 DUP2 PUSH2 0xFBA SWAP2 SWAP1 PUSH2 0x3338 JUMP JUMPDEST POP NUMBER DUP2 PUSH1 0x3 ADD DUP2 SWAP1 SSTORE POP PUSH1 0x6 SLOAD NUMBER PUSH2 0xFD2 SWAP2 SWAP1 PUSH2 0x2D86 JUMP JUMPDEST DUP2 PUSH1 0x4 ADD DUP2 SWAP1 SSTORE POP DUP7 DUP2 PUSH1 0x9 ADD SWAP1 DUP2 PUSH2 0xFEB SWAP2 SWAP1 PUSH2 0x344D JUMP JUMPDEST POP DUP6 DUP2 PUSH1 0xA ADD PUSH0 PUSH2 0x100 EXP DUP2 SLOAD DUP2 PUSH20 0xFFFFFFFFFFFFFFFFFFFFFFFFFFFFFFFFFFFFFFFF MUL NOT AND SWAP1 DUP4 PUSH20 0xFFFFFFFFFFFFFFFFFFFFFFFFFFFFFFFFFFFFFFFF AND MUL OR SWAP1 SSTORE POP CALLER PUSH20 0xFFFFFFFFFFFFFFFFFFFFFFFFFFFFFFFFFFFFFFFF AND DUP3 PUSH32 0x6C98A8C940418B35614F0CD02412D5C9606FAFF474CBB6CDD6640BA5D1A9F06B DUP11 NUMBER PUSH1 0x6 SLOAD NUMBER PUSH2 0x1077 SWAP2 SWAP1 PUSH2 0x2D86 JUMP JUMPDEST PUSH1 0x40 MLOAD PUSH2 0x1086 SWAP4 SWAP3 SWAP2 SWAP1 PUSH2 0x351C JUMP JUMPDEST PUSH1 0x40 MLOAD DUP1 SWAP2 SUB SWAP1 LOG3 DUP2 SWAP5 POP POP POP POP POP PUSH2 0x109D PUSH2 0x213F JUMP JUMPDEST SWAP4 SWAP3 POP POP POP JUMP JUMPDEST PUSH2 0x10AC PUSH2 0x20F0 JUMP JUMPDEST PUSH0 PUSH1 0x8 PUSH0 DUP5 DUP2 MSTORE PUSH1 0x20 ADD SWAP1 DUP2 MSTORE PUSH1 0x20 ADD PUSH0 KECCAK256 SWAP1 POP DUP1 PUSH1 0x3 ADD SLOAD NUMBER LT ISZERO PUSH2 0x1107 JUMPI PUSH1 0x40 MLOAD PUSH32 0x8C379A000000000000000000000000000000000000000000000000000000000 DUP2 MSTORE PUSH1 0x4 ADD PUSH2 0x10FE SWAP1 PUSH2 0x35A2 JUMP JUMPDEST PUSH1 0x40 MLOAD DUP1 SWAP2 SUB SWAP1 REVERT JUMPDEST DUP1 PUSH1 0x4 ADD SLOAD NUMBER GT ISZERO PUSH2 0x114E JUMPI PUSH1 0x40 MLOAD PUSH32 0x8C379A000000000000000000000000000000000000000000000000000000000 DUP2 MSTORE PUSH1 0x4 ADD PUSH2 0x1145 SWAP1 PUSH2 0x360A JUMP JUMPDEST PUSH1 0x40 MLOAD DUP1 SWAP2 SUB SWAP1 REVERT JUMPDEST DUP1 PUSH1 0x7 ADD PUSH0 SWAP1 SLOAD SWAP1 PUSH2 0x100 EXP SWAP1 DIV PUSH1 0xFF AND ISZERO PUSH2 0x119F JUMPI PUSH1 0x40 MLOAD PUSH32 0x8C379A000000000000000000000000000000000000000000000000000000000 DUP2 MSTORE PUSH1 0x4 ADD PUSH2 0x1196 SWAP1 PUSH2 0x3698 JUMP JUMPDEST PUSH1 0x40 MLOAD DUP1 SWAP2 SUB SWAP1 REVERT JUMPDEST DUP1 PUSH1 0xC ADD PUSH0 SWAP1 SLOAD SWAP1 PUSH2 0x100 EXP SWAP1 DIV PUSH1 0xFF AND ISZERO PUSH2 0x11F0 JUMPI PUSH1 0x40 MLOAD PUSH32 0x8C379A000000000000000000000000000000000000000000000000000000000 DUP2 MSTORE PUSH1 0x4 ADD PUSH2 0x11E7 SWAP1 PUSH2 0x2C7B JUMP JUMPDEST PUSH1 0x40 MLOAD DUP1 SWAP2 SUB SWAP1 REVERT JUMPDEST DUP1 PUSH1 0xB ADD PUSH0 CALLER PUSH20 0xFFFFFFFFFFFFFFFFFFFFFFFFFFFFFFFFFFFFFFFF AND PUSH20 0xFFFFFFFFFFFFFFFFFFFFFFFFFFFFFFFFFFFFFFFF AND DUP2 MSTORE PUSH1 0x20 ADD SWAP1 DUP2 MSTORE PUSH1 0x20 ADD PUSH0 KECCAK256 PUSH0 SWAP1 SLOAD SWAP1 PUSH2 0x100 EXP SWAP1 DIV PUSH1 0xFF AND ISZERO PUSH2 0x127C JUMPI PUSH1 0x40 MLOAD PUSH32 0x8C379A000000000000000000000000000000000000000000000000000000000 DUP2 MSTORE PUSH1 0x4 ADD PUSH2 0x1273 SWAP1 PUSH2 0x3700 JUMP JUMPDEST PUSH1 0x40 MLOAD DUP1 SWAP2 SUB SWAP1 REVERT JUMPDEST PUSH1 0x2 PUSH0 SWAP1 SLOAD SWAP1 PUSH2 0x100 EXP SWAP1 DIV PUSH20 0xFFFFFFFFFFFFFFFFFFFFFFFFFFFFFFFFFFFFFFFF AND PUSH20 0xFFFFFFFFFFFFFFFFFFFFFFFFFFFFFFFFFFFFFFFF AND PUSH4 0x91D14854 PUSH1 0x2 PUSH0 SWAP1 SLOAD SWAP1 PUSH2 0x100 EXP SWAP1 DIV PUSH20 0xFFFFFFFFFFFFFFFFFFFFFFFFFFFFFFFFFFFFFFFF AND PUSH20 0xFFFFFFFFFFFFFFFFFFFFFFFFFFFFFFFFFFFFFFFF AND PUSH4 0x3780B3ED PUSH1 0x40 MLOAD DUP2 PUSH4 0xFFFFFFFF AND PUSH1 0xE0 SHL DUP2 MSTORE PUSH1 0x4 ADD PUSH1 0x20 PUSH1 0x40 MLOAD DUP1 DUP4 SUB DUP2 DUP7 GAS STATICCALL ISZERO DUP1 ISZERO PUSH2 0x1323 JUMPI RETURNDATASIZE PUSH0 DUP1 RETURNDATACOPY RETURNDATASIZE PUSH0 REVERT JUMPDEST POP POP POP POP PUSH1 0x40 MLOAD RETURNDATASIZE PUSH1 0x1F NOT PUSH1 0x1F DUP3 ADD AND DUP3 ADD DUP1 PUSH1 0x40 MSTORE POP DUP2 ADD SWAP1 PUSH2 0x1347 SWAP2 SWAP1 PUSH2 0x3732 JUMP JUMPDEST CALLER PUSH1 0x40 MLOAD DUP4 PUSH4 0xFFFFFFFF AND PUSH1 0xE0 SHL DUP2 MSTORE PUSH1 0x4 ADD PUSH2 0x1365 SWAP3 SWAP2 SWAP1 PUSH2 0x375D JUMP JUMPDEST PUSH1 0x20 PUSH1 0x40 MLOAD DUP1 DUP4 SUB DUP2 DUP7 GAS STATICCALL ISZERO DUP1 ISZERO PUSH2 0x1380 JUMPI RETURNDATASIZE PUSH0 DUP1 RETURNDATACOPY RETURNDATASIZE PUSH0 REVERT JUMPDEST POP POP POP POP PUSH1 0x40 MLOAD RETURNDATASIZE PUSH1 0x1F NOT PUSH1 0x1F DUP3 ADD AND DUP3 ADD DUP1 PUSH1 0x40 MSTORE POP DUP2 ADD SWAP1 PUSH2 0x13A4 SWAP2 SWAP1 PUSH2 0x3798 JUMP JUMPDEST PUSH2 0x13E3 JUMPI PUSH1 0x40 MLOAD PUSH32 0x8C379A000000000000000000000000000000000000000000000000000000000 DUP2 MSTORE PUSH1 0x4 ADD PUSH2 0x13DA SWAP1 PUSH2 0x3833 JUMP JUMPDEST PUSH1 0x40 MLOAD DUP1 SWAP2 SUB SWAP1 REVERT JUMPDEST PUSH0 PUSH1 0x2 PUSH0 SWAP1 SLOAD SWAP1 PUSH2 0x100 EXP SWAP1 DIV PUSH20 0xFFFFFFFFFFFFFFFFFFFFFFFFFFFFFFFFFFFFFFFF AND PUSH20 0xFFFFFFFFFFFFFFFFFFFFFFFFFFFFFFFFFFFFFFFF AND PUSH4 0x1460FA87 CALLER PUSH1 0x40 MLOAD DUP3 PUSH4 0xFFFFFFFF AND PUSH1 0xE0 SHL DUP2 MSTORE PUSH1 0x4 ADD PUSH2 0x143E SWAP2 SWAP1 PUSH2 0x2C99 JUMP JUMPDEST PUSH1 0x20 PUSH1 0x40 MLOAD DUP1 DUP4 SUB DUP2 DUP7 GAS STATICCALL ISZERO DUP1 ISZERO PUSH2 0x1459 JUMPI RETURNDATASIZE PUSH0 DUP1 RETURNDATACOPY RETURNDATASIZE PUSH0 REVERT JUMPDEST POP POP POP POP PUSH1 0x40 MLOAD RETURNDATASIZE PUSH1 0x1F NOT PUSH1 0x1F DUP3 ADD AND DUP3 ADD DUP1 PUSH1 0x40 MSTORE POP DUP2 ADD SWAP1 PUSH2 0x147D SWAP2 SWAP1 PUSH2 0x2CC6 JUMP JUMPDEST SWAP1 POP PUSH0 DUP2 GT PUSH2 0x14C1 JUMPI PUSH1 0x40 MLOAD PUSH32 0x8C379A000000000000000000000000000000000000000000000000000000000 DUP2 MSTORE PUSH1 0x4 ADD PUSH2 0x14B8 SWAP1 PUSH2 0x389B JUMP JUMPDEST PUSH1 0x40 MLOAD DUP1 SWAP2 SUB SWAP1 REVERT JUMPDEST DUP3 ISZERO PUSH2 0x14E6 JUMPI DUP1 DUP3 PUSH1 0x5 ADD PUSH0 DUP3 DUP3 SLOAD PUSH2 0x14DA SWAP2 SWAP1 PUSH2 0x2D86 JUMP JUMPDEST SWAP3 POP POP DUP2 SWAP1 SSTORE POP PUSH2 0x1501 JUMP JUMPDEST DUP1 DUP3 PUSH1 0x6 ADD PUSH0 DUP3 DUP3 SLOAD PUSH2 0x14F9 SWAP2 SWAP1 PUSH2 0x2D86 JUMP JUMPDEST SWAP3 POP POP DUP2 SWAP1 SSTORE POP JUMPDEST PUSH1 0x1 DUP3 PUSH1 0xB ADD PUSH0 CALLER PUSH20 0xFFFFFFFFFFFFFFFFFFFFFFFFFFFFFFFFFFFFFFFF AND PUSH20 0xFFFFFFFFFFFFFFFFFFFFFFFFFFFFFFFFFFFFFFFF AND DUP2 MSTORE PUSH1 0x20 ADD SWAP1 DUP2 MSTORE PUSH1 0x20 ADD PUSH0 KECCAK256 PUSH0 PUSH2 0x100 EXP DUP2 SLOAD DUP2 PUSH1 0xFF MUL NOT AND SWAP1 DUP4 ISZERO ISZERO MUL OR SWAP1 SSTORE POP PUSH2 0x1582 PUSH32 0x72C3EEC1760BF69946625C2D4FB8E44E2C806345041960B434674FB9AB3976CF CALLER PUSH2 0x2148 JUMP JUMPDEST POP CALLER PUSH20 0xFFFFFFFFFFFFFFFFFFFFFFFFFFFFFFFFFFFFFFFF AND DUP5 PUSH32 0xCBDF6214089CBA887ECBF35A0B6A734589959C9763342C756BB2A80CA2BC9F6E DUP6 DUP5 PUSH1 0x40 MLOAD PUSH2 0x15CC SWAP3 SWAP2 SWAP1 PUSH2 0x38B9 JUMP JUMPDEST PUSH1 0x40 MLOAD DUP1 SWAP2 SUB SWAP1 LOG3 POP POP PUSH2 0x15DE PUSH2 0x213F JUMP JUMPDEST POP POP JUMP JUMPDEST PUSH0 DUP1 PUSH0 DUP4 DUP2 MSTORE PUSH1 0x20 ADD SWAP1 DUP2 MSTORE PUSH1 0x20 ADD PUSH0 KECCAK256 PUSH1 0x1 ADD SLOAD SWAP1 POP SWAP2 SWAP1 POP JUMP JUMPDEST PUSH2 0x1607 DUP3 PUSH2 0x15E2 JUMP JUMPDEST PUSH2 0x1610 DUP2 PUSH2 0x2231 JUMP JUMPDEST PUSH2 0x161A DUP4 DUP4 PUSH2 0x2148 JUMP JUMPDEST POP POP POP POP JUMP JUMPDEST PUSH1 0xB PUSH1 0x20 MSTORE DUP1 PUSH0 MSTORE PUSH1 0x40 PUSH0 KECCAK256 PUSH0 SWAP2 POP SWAP1 POP SLOAD DUP2 JUMP JUMPDEST PUSH2 0x163D PUSH2 0x2245 JUMP JUMPDEST PUSH20 0xFFFFFFFFFFFFFFFFFFFFFFFFFFFFFFFFFFFFFFFF AND DUP2 PUSH20 0xFFFFFFFFFFFFFFFFFFFFFFFFFFFFFFFFFFFFFFFF AND EQ PUSH2 0x16A1 JUMPI PUSH1 0x40 MLOAD PUSH32 0x6697B23200000000000000000000000000000000000000000000000000000000 DUP2 MSTORE PUSH1 0x4 ADD PUSH1 0x40 MLOAD DUP1 SWAP2 SUB SWAP1 REVERT JUMPDEST PUSH2 0x16AB DUP3 DUP3 PUSH2 0x224C JUMP JUMPDEST POP POP POP JUMP JUMPDEST PUSH1 0x9 PUSH1 0x20 MSTORE DUP1 PUSH0 MSTORE PUSH1 0x40 PUSH0 KECCAK256 PUSH0 SWAP2 POP SWAP1 POP SLOAD DUP2 JUMP JUMPDEST PUSH2 0x16CD PUSH2 0x20F0 JUMP JUMPDEST PUSH2 0x16D9 PUSH0 DUP1 SHL CALLER PUSH2 0x1978 JUMP JUMPDEST PUSH2 0x1718 JUMPI PUSH1 0x40 MLOAD PUSH32 0x8C379A000000000000000000000000000000000000000000000000000000000 DUP2 MSTORE PUSH1 0x4 ADD PUSH2 0x170F SWAP1 PUSH2 0x392A JUMP JUMPDEST PUSH1 0x40 MLOAD DUP1 SWAP2 SUB SWAP1 REVERT JUMPDEST SELFBALANCE DUP2 GT ISZERO PUSH2 0x175B JUMPI PUSH1 0x40 MLOAD PUSH32 0x8C379A000000000000000000000000000000000000000000000000000000000 DUP2 MSTORE PUSH1 0x4 ADD PUSH2 0x1752 SWAP1 PUSH2 0x39B8 JUMP JUMPDEST PUSH1 0x40 MLOAD DUP1 SWAP2 SUB SWAP1 REVERT JUMPDEST CALLER PUSH20 0xFFFFFFFFFFFFFFFFFFFFFFFFFFFFFFFFFFFFFFFF AND PUSH2 0x8FC DUP3 SWAP1 DUP2 ISZERO MUL SWAP1 PUSH1 0x40 MLOAD PUSH0 PUSH1 0x40 MLOAD DUP1 DUP4 SUB DUP2 DUP6 DUP9 DUP9 CALL SWAP4 POP POP POP POP ISZERO DUP1 ISZERO PUSH2 0x179E JUMPI RETURNDATASIZE PUSH0 DUP1 RETURNDATACOPY RETURNDATASIZE PUSH0 REVERT JUMPDEST POP CALLER PUSH20 0xFFFFFFFFFFFFFFFFFFFFFFFFFFFFFFFFFFFFFFFF AND PUSH32 0x66F1C438FFDC40E9AAE073468D107EE857CA3003AD2A78E611338A427A642998 DUP3 PUSH1 0x40 MLOAD PUSH2 0x17E5 SWAP2 SWAP1 PUSH2 0x3A20 JUMP JUMPDEST PUSH1 0x40 MLOAD DUP1 SWAP2 SUB SWAP1 LOG2 PUSH2 0x17F5 PUSH2 0x213F JUMP JUMPDEST POP JUMP JUMPDEST PUSH2 0x1804 PUSH0 DUP1 SHL CALLER PUSH2 0x1978 JUMP JUMPDEST PUSH2 0x1843 JUMPI PUSH1 0x40 MLOAD PUSH32 0x8C379A000000000000000000000000000000000000000000000000000000000 DUP2 MSTORE PUSH1 0x4 ADD PUSH2 0x183A SWAP1 PUSH2 0x392A JUMP JUMPDEST PUSH1 0x40 MLOAD DUP1 SWAP2 SUB SWAP1 REVERT JUMPDEST PUSH0 PUSH1 0x7 SLOAD SWAP1 POP DUP2 PUSH1 0x7 DUP2 SWAP1 SSTORE POP PUSH32 0x2A72574D775756E698A258FC07C826B7185131FFF8A96B868FEACAB45FB23432 DUP2 DUP4 PUSH1 0x40 MLOAD PUSH2 0x1881 SWAP3 SWAP2 SWAP1 PUSH2 0x3A4C JUMP JUMPDEST PUSH1 0x40 MLOAD DUP1 SWAP2 SUB SWAP1 LOG1 POP POP JUMP JUMPDEST PUSH2 0x1899 PUSH0 DUP1 SHL CALLER PUSH2 0x1978 JUMP JUMPDEST PUSH2 0x18D8 JUMPI PUSH1 0x40 MLOAD PUSH32 0x8C379A000000000000000000000000000000000000000000000000000000000 DUP2 MSTORE PUSH1 0x4 ADD PUSH2 0x18CF SWAP1 PUSH2 0x392A JUMP JUMPDEST PUSH1 0x40 MLOAD DUP1 SWAP2 SUB SWAP1 REVERT JUMPDEST PUSH0 DUP2 GT DUP1 ISZERO PUSH2 0x18E9 JUMPI POP PUSH2 0x2710 DUP2 GT ISZERO JUMPDEST PUSH2 0x1928 JUMPI PUSH1 0x40 MLOAD PUSH32 0x8C379A000000000000000000000000000000000000000000000000000000000 DUP2 MSTORE PUSH1 0x4 ADD PUSH2 0x191F SWAP1 PUSH2 0x3ABD JUMP JUMPDEST PUSH1 0x40 MLOAD DUP1 SWAP2 SUB SWAP1 REVERT JUMPDEST PUSH0 PUSH1 0x4 SLOAD SWAP1 POP DUP2 PUSH1 0x4 DUP2 SWAP1 SSTORE POP PUSH32 0x8954DCCD5D355DCBE1D7E0D72C43AEBADEAF41BB1A06CA29A6F61D61B4AC121D DUP2 DUP4 PUSH1 0x40 MLOAD PUSH2 0x1966 SWAP3 SWAP2 SWAP1 PUSH2 0x3A4C JUMP JUMPDEST PUSH1 0x40 MLOAD DUP1 SWAP2 SUB SWAP1 LOG1 POP POP JUMP JUMPDEST PUSH1 0x4 SLOAD DUP2 JUMP JUMPDEST PUSH0 DUP1 PUSH0 DUP5 DUP2 MSTORE PUSH1 0x20 ADD SWAP1 DUP2 MSTORE PUSH1 0x20 ADD PUSH0 KECCAK256 PUSH0 ADD PUSH0 DUP4 PUSH20 0xFFFFFFFFFFFFFFFFFFFFFFFFFFFFFFFFFFFFFFFF AND PUSH20 0xFFFFFFFFFFFFFFFFFFFFFFFFFFFFFFFFFFFFFFFF AND DUP2 MSTORE PUSH1 0x20 ADD SWAP1 DUP2 MSTORE PUSH1 0x20 ADD PUSH0 KECCAK256 PUSH0 SWAP1 SLOAD SWAP1 PUSH2 0x100 EXP SWAP1 DIV PUSH1 0xFF AND SWAP1 POP SWAP3 SWAP2 POP POP JUMP JUMPDEST PUSH0 DUP1 SHL DUP2 JUMP JUMPDEST PUSH32 0x72C3EEC1760BF69946625C2D4FB8E44E2C806345041960B434674FB9AB3976CF DUP2 JUMP JUMPDEST PUSH1 0x5 SLOAD DUP2 JUMP JUMPDEST PUSH2 0x1A13 PUSH2 0x20F0 JUMP JUMPDEST PUSH2 0x1A3D PUSH32 0xEA61DA3A8A09AD801432653699F8C1860B1AE9D2EA4A141FADFD63227717BC8 CALLER PUSH2 0x1978 JUMP JUMPDEST PUSH2 0x1A7C JUMPI PUSH1 0x40 MLOAD PUSH32 0x8C379A000000000000000000000000000000000000000000000000000000000 DUP2 MSTORE PUSH1 0x4 ADD PUSH2 0x1A73 SWAP1 PUSH2 0x3B4B JUMP JUMPDEST PUSH1 0x40 MLOAD DUP1 SWAP2 SUB SWAP1 REVERT JUMPDEST PUSH0 PUSH1 0x2 PUSH0 SWAP1 SLOAD SWAP1 PUSH2 0x100 EXP SWAP1 DIV PUSH20 0xFFFFFFFFFFFFFFFFFFFFFFFFFFFFFFFFFFFFFFFF AND PUSH20 0xFFFFFFFFFFFFFFFFFFFFFFFFFFFFFFFFFFFFFFFF AND PUSH4 0x70A08231 ADDRESS PUSH1 0x40 MLOAD DUP3 PUSH4 0xFFFFFFFF AND PUSH1 0xE0 SHL DUP2 MSTORE PUSH1 0x4 ADD PUSH2 0x1AD7 SWAP2 SWAP1 PUSH2 0x2C99 JUMP JUMPDEST PUSH1 0x20 PUSH1 0x40 MLOAD DUP1 DUP4 SUB DUP2 DUP7 GAS STATICCALL ISZERO DUP1 ISZERO PUSH2 0x1AF2 JUMPI RETURNDATASIZE PUSH0 DUP1 RETURNDATACOPY RETURNDATASIZE PUSH0 REVERT JUMPDEST POP POP POP POP PUSH1 0x40 MLOAD RETURNDATASIZE PUSH1 0x1F NOT PUSH1 0x1F DUP3 ADD AND DUP3 ADD DUP1 PUSH1 0x40 MSTORE POP DUP2 ADD SWAP1 PUSH2 0x1B16 SWAP2 SWAP1 PUSH2 0x2CC6 JUMP JUMPDEST SWAP1 POP DUP1 PUSH1 0xA PUSH0 DUP3 DUP3 SLOAD PUSH2 0x1B29 SWAP2 SWAP1 PUSH2 0x2D86 JUMP JUMPDEST SWAP3 POP POP DUP2 SWAP1 SSTORE POP PUSH32 0x771D362663B46BD788CD13FC183C9432449A2BE6BCB81051BFEB484AFD9C5DD8 DUP2 PUSH0 PUSH1 0x40 MLOAD PUSH2 0x1B61 SWAP3 SWAP2 SWAP1 PUSH2 0x3BA2 JUMP JUMPDEST PUSH1 0x40 MLOAD DUP1 SWAP2 SUB SWAP1 LOG1 POP PUSH2 0x1B72 PUSH2 0x213F JUMP JUMPDEST JUMP JUMPDEST PUSH32 0xEA61DA3A8A09AD801432653699F8C1860B1AE9D2EA4A141FADFD63227717BC8 DUP2 JUMP JUMPDEST PUSH1 0x2 PUSH0 SWAP1 SLOAD SWAP1 PUSH2 0x100 EXP SWAP1 DIV PUSH20 0xFFFFFFFFFFFFFFFFFFFFFFFFFFFFFFFFFFFFFFFF AND DUP2 JUMP JUMPDEST PUSH1 0x7 SLOAD DUP2 JUMP JUMPDEST PUSH2 0x1BCC DUP3 PUSH2 0x15E2 JUMP JUMPDEST PUSH2 0x1BD5 DUP2 PUSH2 0x2231 JUMP JUMPDEST PUSH2 0x1BDF DUP4 DUP4 PUSH2 0x224C JUMP JUMPDEST POP POP POP POP JUMP JUMPDEST PUSH1 0x3 SLOAD DUP2 JUMP JUMPDEST PUSH2 0x1BF3 PUSH2 0x20F0 JUMP JUMPDEST PUSH2 0x1BFF PUSH0 DUP1 SHL CALLER PUSH2 0x1978 JUMP JUMPDEST PUSH2 0x1C3E JUMPI PUSH1 0x40 MLOAD PUSH32 0x8C379A000000000000000000000000000000000000000000000000000000000 DUP2 MSTORE PUSH1 0x4 ADD PUSH2 0x1C35 SWAP1 PUSH2 0x392A JUMP JUMPDEST PUSH1 0x40 MLOAD DUP1 SWAP2 SUB SWAP1 REVERT JUMPDEST PUSH1 0x2 PUSH0 SWAP1 SLOAD SWAP1 PUSH2 0x100 EXP SWAP1 DIV PUSH20 0xFFFFFFFFFFFFFFFFFFFFFFFFFFFFFFFFFFFFFFFF AND PUSH20 0xFFFFFFFFFFFFFFFFFFFFFFFFFFFFFFFFFFFFFFFF AND PUSH4 0x42966C68 DUP3 PUSH1 0x40 MLOAD DUP3 PUSH4 0xFFFFFFFF AND PUSH1 0xE0 SHL DUP2 MSTORE PUSH1 0x4 ADD PUSH2 0x1C98 SWAP2 SWAP1 PUSH2 0x267E JUMP JUMPDEST PUSH0 PUSH1 0x40 MLOAD DUP1 DUP4 SUB DUP2 PUSH0 DUP8 DUP1 EXTCODESIZE ISZERO DUP1 ISZERO PUSH2 0x1CAF JUMPI PUSH0 DUP1 REVERT JUMPDEST POP GAS CALL ISZERO DUP1 ISZERO PUSH2 0x1CC1 JUMPI RETURNDATASIZE PUSH0 DUP1 RETURNDATACOPY RETURNDATASIZE PUSH0 REVERT JUMPDEST POP POP POP POP CALLER PUSH20 0xFFFFFFFFFFFFFFFFFFFFFFFFFFFFFFFFFFFFFFFF AND PUSH32 0x66F1C438FFDC40E9AAE073468D107EE857CA3003AD2A78E611338A427A642998 DUP3 PUSH1 0x40 MLOAD PUSH2 0x1D0B SWAP2 SWAP1 PUSH2 0x3C13 JUMP JUMPDEST PUSH1 0x40 MLOAD DUP1 SWAP2 SUB SWAP1 LOG2 PUSH2 0x1D1B PUSH2 0x213F JUMP JUMPDEST POP JUMP JUMPDEST PUSH0 PUSH1 0x8 PUSH0 DUP4 DUP2 MSTORE PUSH1 0x20 ADD SWAP1 DUP2 MSTORE PUSH1 0x20 ADD PUSH0 KECCAK256 SWAP1 POP CALLER PUSH20 0xFFFFFFFFFFFFFFFFFFFFFFFFFFFFFFFFFFFFFFFF AND DUP2 PUSH1 0x1 ADD PUSH0 SWAP1 SLOAD SWAP1 PUSH2 0x100 EXP SWAP1 DIV PUSH20 0xFFFFFFFFFFFFFFFFFFFFFFFFFFFFFFFFFFFFFFFF AND PUSH20 0xFFFFFFFFFFFFFFFFFFFFFFFFFFFFFFFFFFFFFFFF AND EQ DUP1 PUSH2 0x1D97 JUMPI POP PUSH2 0x1D96 PUSH0 DUP1 SHL CALLER PUSH2 0x1978 JUMP JUMPDEST JUMPDEST PUSH2 0x1DD6 JUMPI PUSH1 0x40 MLOAD PUSH32 0x8C379A000000000000000000000000000000000000000000000000000000000 DUP2 MSTORE PUSH1 0x4 ADD PUSH2 0x1DCD SWAP1 PUSH2 0x3CAF JUMP JUMPDEST PUSH1 0x40 MLOAD DUP1 SWAP2 SUB SWAP1 REVERT JUMPDEST DUP1 PUSH1 0x7 ADD PUSH0 SWAP1 SLOAD SWAP1 PUSH2 0x100 EXP SWAP1 DIV PUSH1 0xFF AND ISZERO PUSH2 0x1E27 JUMPI PUSH1 0x40 MLOAD PUSH32 0x8C379A000000000000000000000000000000000000000000000000000000000 DUP2 MSTORE PUSH1 0x4 ADD PUSH2 0x1E1E SWAP1 PUSH2 0x2C13 JUMP JUMPDEST PUSH1 0x40 MLOAD DUP1 SWAP2 SUB SWAP1 REVERT JUMPDEST DUP1 PUSH1 0xC ADD PUSH0 SWAP1 SLOAD SWAP1 PUSH2 0x100 EXP SWAP1 DIV PUSH1 0xFF AND ISZERO PUSH2 0x1E78 JUMPI PUSH1 0x40 MLOAD PUSH32 0x8C379A000000000000000000000000000000000000000000000000000000000 DUP2 MSTORE PUSH1 0x4 ADD PUSH2 0x1E6F SWAP1 PUSH2 0x3D17 JUMP JUMPDEST PUSH1 0x40 MLOAD DUP1 SWAP2 SUB SWAP1 REVERT JUMPDEST PUSH1 0x1 DUP2 PUSH1 0xC ADD PUSH0 PUSH2 0x100 EXP DUP2 SLOAD DUP2 PUSH1 0xFF MUL NOT AND SWAP1 DUP4 ISZERO ISZERO MUL OR SWAP1 SSTORE POP DUP2 PUSH32 0x789CF55BE980739DAD1D0699B93B58E806B51C9D96619BFA8FE0A28ABAA7B30C PUSH1 0x40 MLOAD PUSH1 0x40 MLOAD DUP1 SWAP2 SUB SWAP1 LOG2 POP POP JUMP JUMPDEST PUSH2 0x1ED1 PUSH0 DUP1 SHL CALLER PUSH2 0x1978 JUMP JUMPDEST PUSH2 0x1F10 JUMPI PUSH1 0x40 MLOAD PUSH32 0x8C379A000000000000000000000000000000000000000000000000000000000 DUP2 MSTORE PUSH1 0x4 ADD PUSH2 0x1F07 SWAP1 PUSH2 0x392A JUMP JUMPDEST PUSH1 0x40 MLOAD DUP1 SWAP2 SUB SWAP1 REVERT JUMPDEST PUSH0 DUP2 GT PUSH2 0x1F52 JUMPI PUSH1 0x40 MLOAD PUSH32 0x8C379A000000000000000000000000000000000000000000000000000000000 DUP2 MSTORE PUSH1 0x4 ADD PUSH2 0x1F49 SWAP1 PUSH2 0x3DA5 JUMP JUMPDEST PUSH1 0x40 MLOAD DUP1 SWAP2 SUB SWAP1 REVERT JUMPDEST PUSH0 PUSH1 0x6 SLOAD SWAP1 POP DUP2 PUSH1 0x6 DUP2 SWAP1 SSTORE POP PUSH32 0xFFC708F072CA56E3D45EF0CB288B96CB9378F5F63E1646868BFBC9C38F4263A1 DUP2 DUP4 PUSH1 0x40 MLOAD PUSH2 0x1F90 SWAP3 SWAP2 SWAP1 PUSH2 0x3A4C JUMP JUMPDEST PUSH1 0x40 MLOAD DUP1 SWAP2 SUB SWAP1 LOG1 POP POP JUMP JUMPDEST PUSH2 0x1FA8 PUSH0 DUP1 SHL CALLER PUSH2 0x1978 JUMP JUMPDEST PUSH2 0x1FE7 JUMPI PUSH1 0x40 MLOAD PUSH32 0x8C379A000000000000000000000000000000000000000000000000000000000 DUP2 MSTORE PUSH1 0x4 ADD PUSH2 0x1FDE SWAP1 PUSH2 0x392A JUMP JUMPDEST PUSH1 0x40 MLOAD DUP1 SWAP2 SUB SWAP1 REVERT JUMPDEST PUSH0 DUP2 GT DUP1 ISZERO PUSH2 0x1FF8 JUMPI POP PUSH2 0x2710 DUP2 GT ISZERO JUMPDEST PUSH2 0x2037 JUMPI PUSH1 0x40 MLOAD PUSH32 0x8C379A000000000000000000000000000000000000000000000000000000000 DUP2 MSTORE PUSH1 0x4 ADD PUSH2 0x202E SWAP1 PUSH2 0x3E0D JUMP JUMPDEST PUSH1 0x40 MLOAD DUP1 SWAP2 SUB SWAP1 REVERT JUMPDEST PUSH0 PUSH1 0x5 SLOAD SWAP1 POP DUP2 PUSH1 0x5 DUP2 SWAP1 SSTORE POP PUSH32 0xE92242FC3EFCAD407A677132B517977331A6E5B65ABAB69FD757CC02E99C9C4E DUP2 DUP4 PUSH1 0x40 MLOAD PUSH2 0x2075 SWAP3 SWAP2 SWAP1 PUSH2 0x3A4C JUMP JUMPDEST PUSH1 0x40 MLOAD DUP1 SWAP2 SUB SWAP1 LOG1 POP POP JUMP JUMPDEST PUSH1 0xA SLOAD DUP2 JUMP JUMPDEST PUSH0 PUSH32 0x1FFC9A700000000000000000000000000000000000000000000000000000000 PUSH28 0xFFFFFFFFFFFFFFFFFFFFFFFFFFFFFFFFFFFFFFFFFFFFFFFFFFFFFFFF NOT AND DUP3 PUSH28 0xFFFFFFFFFFFFFFFFFFFFFFFFFFFFFFFFFFFFFFFFFFFFFFFFFFFFFFFF NOT AND EQ SWAP1 POP SWAP2 SWAP1 POP JUMP JUMPDEST PUSH1 0x2 PUSH1 0x1 SLOAD SUB PUSH2 0x2135 JUMPI PUSH1 0x40 MLOAD PUSH32 0x8C379A000000000000000000000000000000000000000000000000000000000 DUP2 MSTORE PUSH1 0x4 ADD PUSH2 0x212C SWAP1 PUSH2 0x3E75 JUMP JUMPDEST PUSH1 0x40 MLOAD DUP1 SWAP2 SUB SWAP1 REVERT JUMPDEST PUSH1 0x2 PUSH1 0x1 DUP2 SWAP1 SSTORE POP JUMP JUMPDEST PUSH1 0x1 DUP1 DUP2 SWAP1 SSTORE POP JUMP JUMPDEST PUSH0 PUSH2 0x2153 DUP4 DUP4 PUSH2 0x1978 JUMP JUMPDEST PUSH2 0x2227 JUMPI PUSH1 0x1 PUSH0 DUP1 DUP6 DUP2 MSTORE PUSH1 0x20 ADD SWAP1 DUP2 MSTORE PUSH1 0x20 ADD PUSH0 KECCAK256 PUSH0 ADD PUSH0 DUP5 PUSH20 0xFFFFFFFFFFFFFFFFFFFFFFFFFFFFFFFFFFFFFFFF AND PUSH20 0xFFFFFFFFFFFFFFFFFFFFFFFFFFFFFFFFFFFFFFFF AND DUP2 MSTORE PUSH1 0x20 ADD SWAP1 DUP2 MSTORE PUSH1 0x20 ADD PUSH0 KECCAK256 PUSH0 PUSH2 0x100 EXP DUP2 SLOAD DUP2 PUSH1 0xFF MUL NOT AND SWAP1 DUP4 ISZERO ISZERO MUL OR SWAP1 SSTORE POP PUSH2 0x21C4 PUSH2 0x2245 JUMP JUMPDEST PUSH20 0xFFFFFFFFFFFFFFFFFFFFFFFFFFFFFFFFFFFFFFFF AND DUP3 PUSH20 0xFFFFFFFFFFFFFFFFFFFFFFFFFFFFFFFFFFFFFFFF AND DUP5 PUSH32 0x2F8788117E7EFF1D82E926EC794901D17C78024A50270940304540A733656F0D PUSH1 0x40 MLOAD PUSH1 0x40 MLOAD DUP1 SWAP2 SUB SWAP1 LOG4 PUSH1 0x1 SWAP1 POP PUSH2 0x222B JUMP JUMPDEST PUSH0 SWAP1 POP JUMPDEST SWAP3 SWAP2 POP POP JUMP JUMPDEST PUSH2 0x2242 DUP2 PUSH2 0x223D PUSH2 0x2245 JUMP JUMPDEST PUSH2 0x2335 JUMP JUMPDEST POP JUMP JUMPDEST PUSH0 CALLER SWAP1 POP SWAP1 JUMP JUMPDEST PUSH0 PUSH2 0x2257 DUP4 DUP4 PUSH2 0x1978 JUMP JUMPDEST ISZERO PUSH2 0x232B JUMPI PUSH0 DUP1 PUSH0 DUP6 DUP2 MSTORE PUSH1 0x20 ADD SWAP1 DUP2 MSTORE PUSH1 0x20 ADD PUSH0 KECCAK256 PUSH0 ADD PUSH0 DUP5 PUSH20 0xFFFFFFFFFFFFFFFFFFFFFFFFFFFFFFFFFFFFFFFF AND PUSH20 0xFFFFFFFFFFFFFFFFFFFFFFFFFFFFFFFFFFFFFFFF AND DUP2 MSTORE PUSH1 0x20 ADD SWAP1 DUP2 MSTORE PUSH1 0x20 ADD PUSH0 KECCAK256 PUSH0 PUSH2 0x100 EXP DUP2 SLOAD DUP2 PUSH1 0xFF MUL NOT AND SWAP1 DUP4 ISZERO ISZERO MUL OR SWAP1 SSTORE POP PUSH2 0x22C8 PUSH2 0x2245 JUMP JUMPDEST PUSH20 0xFFFFFFFFFFFFFFFFFFFFFFFFFFFFFFFFFFFFFFFF AND DUP3 PUSH20 0xFFFFFFFFFFFFFFFFFFFFFFFFFFFFFFFFFFFFFFFF AND DUP5 PUSH32 0xF6391F5C32D9C69D2A47EA670B442974B53935D1EDC7FD64EB21E047A839171B PUSH1 0x40 MLOAD PUSH1 0x40 MLOAD DUP1 SWAP2 SUB SWAP1 LOG4 PUSH1 0x1 SWAP1 POP PUSH2 0x232F JUMP JUMPDEST PUSH0 SWAP1 POP JUMPDEST SWAP3 SWAP2 POP POP JUMP JUMPDEST PUSH2 0x233F DUP3 DUP3 PUSH2 0x1978 JUMP JUMPDEST PUSH2 0x2382 JUMPI DUP1 DUP3 PUSH1 0x40 MLOAD PUSH32 0xE2517D3F00000000000000000000000000000000000000000000000000000000 DUP2 MSTORE PUSH1 0x4 ADD PUSH2 0x2379 SWAP3 SWAP2 SWAP1 PUSH2 0x3E93 JUMP JUMPDEST PUSH1 0x40 MLOAD DUP1 SWAP2 SUB SWAP1 REVERT JUMPDEST POP POP JUMP JUMPDEST PUSH0 PUSH1 0x40 MLOAD SWAP1 POP SWAP1 JUMP JUMPDEST PUSH0 DUP1 REVERT JUMPDEST PUSH0 DUP1 REVERT JUMPDEST PUSH0 DUP2 SWAP1 POP SWAP2 SWAP1 POP JUMP JUMPDEST PUSH2 0x23A9 DUP2 PUSH2 0x2397 JUMP JUMPDEST DUP2 EQ PUSH2 0x23B3 JUMPI PUSH0 DUP1 REVERT JUMPDEST POP JUMP JUMPDEST PUSH0 DUP2 CALLDATALOAD SWAP1 POP PUSH2 0x23C4 DUP2 PUSH2 0x23A0 JUMP JUMPDEST SWAP3 SWAP2 POP POP JUMP JUMPDEST PUSH0 PUSH1 0x20 DUP3 DUP5 SUB SLT ISZERO PUSH2 0x23DF JUMPI PUSH2 0x23DE PUSH2 0x238F JUMP JUMPDEST JUMPDEST PUSH0 PUSH2 0x23EC DUP5 DUP3 DUP6 ADD PUSH2 0x23B6 JUMP JUMPDEST SWAP2 POP POP SWAP3 SWAP2 POP POP JUMP JUMPDEST PUSH2 0x23FE DUP2 PUSH2 0x2397 JUMP JUMPDEST DUP3 MSTORE POP POP JUMP JUMPDEST PUSH0 PUSH20 0xFFFFFFFFFFFFFFFFFFFFFFFFFFFFFFFFFFFFFFFF DUP3 AND SWAP1 POP SWAP2 SWAP1 POP JUMP JUMPDEST PUSH0 PUSH2 0x242D DUP3 PUSH2 0x2404 JUMP JUMPDEST SWAP1 POP SWAP2 SWAP1 POP JUMP JUMPDEST PUSH2 0x243D DUP2 PUSH2 0x2423 JUMP JUMPDEST DUP3 MSTORE POP POP JUMP JUMPDEST PUSH0 DUP2 MLOAD SWAP1 POP SWAP2 SWAP1 POP JUMP JUMPDEST PUSH0 DUP3 DUP3 MSTORE PUSH1 0x20 DUP3 ADD SWAP1 POP SWAP3 SWAP2 POP POP JUMP JUMPDEST DUP3 DUP2 DUP4 MCOPY PUSH0 DUP4 DUP4 ADD MSTORE POP POP POP JUMP JUMPDEST PUSH0 PUSH1 0x1F NOT PUSH1 0x1F DUP4 ADD AND SWAP1 POP SWAP2 SWAP1 POP JUMP JUMPDEST PUSH0 PUSH2 0x2485 DUP3 PUSH2 0x2443 JUMP JUMPDEST PUSH2 0x248F DUP2 DUP6 PUSH2 0x244D JUMP JUMPDEST SWAP4 POP PUSH2 0x249F DUP2 DUP6 PUSH1 0x20 DUP7 ADD PUSH2 0x245D JUMP JUMPDEST PUSH2 0x24A8 DUP2 PUSH2 0x246B JUMP JUMPDEST DUP5 ADD SWAP2 POP POP SWAP3 SWAP2 POP POP JUMP JUMPDEST PUSH0 DUP2 ISZERO ISZERO SWAP1 POP SWAP2 SWAP1 POP JUMP JUMPDEST PUSH2 0x24C7 DUP2 PUSH2 0x24B3 JUMP JUMPDEST DUP3 MSTORE POP POP JUMP JUMPDEST PUSH0 DUP2 MLOAD SWAP1 POP SWAP2 SWAP1 POP JUMP JUMPDEST PUSH0 DUP3 DUP3 MSTORE PUSH1 0x20 DUP3 ADD SWAP1 POP SWAP3 SWAP2 POP POP JUMP JUMPDEST PUSH0 PUSH2 0x24F1 DUP3 PUSH2 0x24CD JUMP JUMPDEST PUSH2 0x24FB DUP2 DUP6 PUSH2 0x24D7 JUMP JUMPDEST SWAP4 POP PUSH2 0x250B DUP2 DUP6 PUSH1 0x20 DUP7 ADD PUSH2 0x245D JUMP JUMPDEST PUSH2 0x2514 DUP2 PUSH2 0x246B JUMP JUMPDEST DUP5 ADD SWAP2 POP POP SWAP3 SWAP2 POP POP JUMP JUMPDEST PUSH0 PUSH2 0x180 DUP3 ADD SWAP1 POP PUSH2 0x2533 PUSH0 DUP4 ADD DUP16 PUSH2 0x23F5 JUMP JUMPDEST PUSH2 0x2540 PUSH1 0x20 DUP4 ADD DUP15 PUSH2 0x2434 JUMP JUMPDEST DUP2 DUP2 SUB PUSH1 0x40 DUP4 ADD MSTORE PUSH2 0x2552 DUP2 DUP14 PUSH2 0x247B JUMP JUMPDEST SWAP1 POP PUSH2 0x2561 PUSH1 0x60 DUP4 ADD DUP13 PUSH2 0x23F5 JUMP JUMPDEST PUSH2 0x256E PUSH1 0x80 DUP4 ADD DUP12 PUSH2 0x23F5 JUMP JUMPDEST PUSH2 0x257B PUSH1 0xA0 DUP4 ADD DUP11 PUSH2 0x23F5 JUMP JUMPDEST PUSH2 0x2588 PUSH1 0xC0 DUP4 ADD DUP10 PUSH2 0x23F5 JUMP JUMPDEST PUSH2 0x2595 PUSH1 0xE0 DUP4 ADD DUP9 PUSH2 0x24BE JUMP JUMPDEST PUSH2 0x25A3 PUSH2 0x100 DUP4 ADD DUP8 PUSH2 0x23F5 JUMP JUMPDEST DUP2 DUP2 SUB PUSH2 0x120 DUP4 ADD MSTORE PUSH2 0x25B6 DUP2 DUP7 PUSH2 0x24E7 JUMP JUMPDEST SWAP1 POP PUSH2 0x25C6 PUSH2 0x140 DUP4 ADD DUP6 PUSH2 0x2434 JUMP JUMPDEST PUSH2 0x25D4 PUSH2 0x160 DUP4 ADD DUP5 PUSH2 0x24BE JUMP JUMPDEST SWAP14 SWAP13 POP POP POP POP POP POP POP POP POP POP POP POP POP JUMP JUMPDEST PUSH0 PUSH32 0xFFFFFFFF00000000000000000000000000000000000000000000000000000000 DUP3 AND SWAP1 POP SWAP2 SWAP1 POP JUMP JUMPDEST PUSH2 0x2619 DUP2 PUSH2 0x25E5 JUMP JUMPDEST DUP2 EQ PUSH2 0x2623 JUMPI PUSH0 DUP1 REVERT JUMPDEST POP JUMP JUMPDEST PUSH0 DUP2 CALLDATALOAD SWAP1 POP PUSH2 0x2634 DUP2 PUSH2 0x2610 JUMP JUMPDEST SWAP3 SWAP2 POP POP JUMP JUMPDEST PUSH0 PUSH1 0x20 DUP3 DUP5 SUB SLT ISZERO PUSH2 0x264F JUMPI PUSH2 0x264E PUSH2 0x238F JUMP JUMPDEST JUMPDEST PUSH0 PUSH2 0x265C DUP5 DUP3 DUP6 ADD PUSH2 0x2626 JUMP JUMPDEST SWAP2 POP POP SWAP3 SWAP2 POP POP JUMP JUMPDEST PUSH0 PUSH1 0x20 DUP3 ADD SWAP1 POP PUSH2 0x2678 PUSH0 DUP4 ADD DUP5 PUSH2 0x24BE JUMP JUMPDEST SWAP3 SWAP2 POP POP JUMP JUMPDEST PUSH0 PUSH1 0x20 DUP3 ADD SWAP1 POP PUSH2 0x2691 PUSH0 DUP4 ADD DUP5 PUSH2 0x23F5 JUMP JUMPDEST SWAP3 SWAP2 POP POP JUMP JUMPDEST PUSH0 DUP1 REVERT JUMPDEST PUSH0 DUP1 REVERT JUMPDEST PUSH32 0x4E487B7100000000000000000000000000000000000000000000000000000000 PUSH0 MSTORE PUSH1 0x41 PUSH1 0x4 MSTORE PUSH1 0x24 PUSH0 REVERT JUMPDEST PUSH2 0x26D5 DUP3 PUSH2 0x246B JUMP JUMPDEST DUP2 ADD DUP2 DUP2 LT PUSH8 0xFFFFFFFFFFFFFFFF DUP3 GT OR ISZERO PUSH2 0x26F4 JUMPI PUSH2 0x26F3 PUSH2 0x269F JUMP JUMPDEST JUMPDEST DUP1 PUSH1 0x40 MSTORE POP POP POP JUMP JUMPDEST PUSH0 PUSH2 0x2706 PUSH2 0x2386 JUMP JUMPDEST SWAP1 POP PUSH2 0x2712 DUP3 DUP3 PUSH2 0x26CC JUMP JUMPDEST SWAP2 SWAP1 POP JUMP JUMPDEST PUSH0 PUSH8 0xFFFFFFFFFFFFFFFF DUP3 GT ISZERO PUSH2 0x2731 JUMPI PUSH2 0x2730 PUSH2 0x269F JUMP JUMPDEST JUMPDEST PUSH2 0x273A DUP3 PUSH2 0x246B JUMP JUMPDEST SWAP1 POP PUSH1 0x20 DUP2 ADD SWAP1 POP SWAP2 SWAP1 POP JUMP JUMPDEST DUP3 DUP2 DUP4 CALLDATACOPY PUSH0 DUP4 DUP4 ADD MSTORE POP POP POP JUMP JUMPDEST PUSH0 PUSH2 0x2767 PUSH2 0x2762 DUP5 PUSH2 0x2717 JUMP JUMPDEST PUSH2 0x26FD JUMP JUMPDEST SWAP1 POP DUP3 DUP2 MSTORE PUSH1 0x20 DUP2 ADD DUP5 DUP5 DUP5 ADD GT ISZERO PUSH2 0x2783 JUMPI PUSH2 0x2782 PUSH2 0x269B JUMP JUMPDEST JUMPDEST PUSH2 0x278E DUP5 DUP3 DUP6 PUSH2 0x2747 JUMP JUMPDEST POP SWAP4 SWAP3 POP POP POP JUMP JUMPDEST PUSH0 DUP3 PUSH1 0x1F DUP4 ADD SLT PUSH2 0x27AA JUMPI PUSH2 0x27A9 PUSH2 0x2697 JUMP JUMPDEST JUMPDEST DUP2 CALLDATALOAD PUSH2 0x27BA DUP5 DUP3 PUSH1 0x20 DUP7 ADD PUSH2 0x2755 JUMP JUMPDEST SWAP2 POP POP SWAP3 SWAP2 POP POP JUMP JUMPDEST PUSH0 PUSH8 0xFFFFFFFFFFFFFFFF DUP3 GT ISZERO PUSH2 0x27DD JUMPI PUSH2 0x27DC PUSH2 0x269F JUMP JUMPDEST JUMPDEST PUSH2 0x27E6 DUP3 PUSH2 0x246B JUMP JUMPDEST SWAP1 POP PUSH1 0x20 DUP2 ADD SWAP1 POP SWAP2 SWAP1 POP JUMP JUMPDEST PUSH0 PUSH2 0x2805 PUSH2 0x2800 DUP5 PUSH2 0x27C3 JUMP JUMPDEST PUSH2 0x26FD JUMP JUMPDEST SWAP1 POP DUP3 DUP2 MSTORE PUSH1 0x20 DUP2 ADD DUP5 DUP5 DUP5 ADD GT ISZERO PUSH2 0x2821 JUMPI PUSH2 0x2820 PUSH2 0x269B JUMP JUMPDEST JUMPDEST PUSH2 0x282C DUP5 DUP3 DUP6 PUSH2 0x2747 JUMP JUMPDEST POP SWAP4 SWAP3 POP POP POP JUMP JUMPDEST PUSH0 DUP3 PUSH1 0x1F DUP4 ADD SLT PUSH2 0x2848 JUMPI PUSH2 0x2847 PUSH2 0x2697 JUMP JUMPDEST JUMPDEST DUP2 CALLDATALOAD PUSH2 0x2858 DUP5 DUP3 PUSH1 0x20 DUP7 ADD PUSH2 0x27F3 JUMP JUMPDEST SWAP2 POP POP SWAP3 SWAP2 POP POP JUMP JUMPDEST PUSH2 0x286A DUP2 PUSH2 0x2423 JUMP JUMPDEST DUP2 EQ PUSH2 0x2874 JUMPI PUSH0 DUP1 REVERT JUMPDEST POP JUMP JUMPDEST PUSH0 DUP2 CALLDATALOAD SWAP1 POP PUSH2 0x2885 DUP2 PUSH2 0x2861 JUMP JUMPDEST SWAP3 SWAP2 POP POP JUMP JUMPDEST PUSH0 DUP1 PUSH0 PUSH1 0x60 DUP5 DUP7 SUB SLT ISZERO PUSH2 0x28A2 JUMPI PUSH2 0x28A1 PUSH2 0x238F JUMP JUMPDEST JUMPDEST PUSH0 DUP5 ADD CALLDATALOAD PUSH8 0xFFFFFFFFFFFFFFFF DUP2 GT ISZERO PUSH2 0x28BF JUMPI PUSH2 0x28BE PUSH2 0x2393 JUMP JUMPDEST JUMPDEST PUSH2 0x28CB DUP7 DUP3 DUP8 ADD PUSH2 0x2796 JUMP JUMPDEST SWAP4 POP POP PUSH1 0x20 DUP5 ADD CALLDATALOAD PUSH8 0xFFFFFFFFFFFFFFFF DUP2 GT ISZERO PUSH2 0x28EC JUMPI PUSH2 0x28EB PUSH2 0x2393 JUMP JUMPDEST JUMPDEST PUSH2 0x28F8 DUP7 DUP3 DUP8 ADD PUSH2 0x2834 JUMP JUMPDEST SWAP3 POP POP PUSH1 0x40 PUSH2 0x2909 DUP7 DUP3 DUP8 ADD PUSH2 0x2877 JUMP JUMPDEST SWAP2 POP POP SWAP3 POP SWAP3 POP SWAP3 JUMP JUMPDEST PUSH2 0x291C DUP2 PUSH2 0x24B3 JUMP JUMPDEST DUP2 EQ PUSH2 0x2926 JUMPI PUSH0 DUP1 REVERT JUMPDEST POP JUMP JUMPDEST PUSH0 DUP2 CALLDATALOAD SWAP1 POP PUSH2 0x2937 DUP2 PUSH2 0x2913 JUMP JUMPDEST SWAP3 SWAP2 POP POP JUMP JUMPDEST PUSH0 DUP1 PUSH1 0x40 DUP4 DUP6 SUB SLT ISZERO PUSH2 0x2953 JUMPI PUSH2 0x2952 PUSH2 0x238F JUMP JUMPDEST JUMPDEST PUSH0 PUSH2 0x2960 DUP6 DUP3 DUP7 ADD PUSH2 0x23B6 JUMP JUMPDEST SWAP3 POP POP PUSH1 0x20 PUSH2 0x2971 DUP6 DUP3 DUP7 ADD PUSH2 0x2929 JUMP JUMPDEST SWAP2 POP POP SWAP3 POP SWAP3 SWAP1 POP JUMP JUMPDEST PUSH0 DUP2 SWAP1 POP SWAP2 SWAP1 POP JUMP JUMPDEST PUSH2 0x298D DUP2 PUSH2 0x297B JUMP JUMPDEST DUP2 EQ PUSH2 0x2997 JUMPI PUSH0 DUP1 REVERT JUMPDEST POP JUMP JUMPDEST PUSH0 DUP2 CALLDATALOAD SWAP1 POP PUSH2 0x29A8 DUP2 PUSH2 0x2984 JUMP JUMPDEST SWAP3 SWAP2 POP POP JUMP JUMPDEST PUSH0 PUSH1 0x20 DUP3 DUP5 SUB SLT ISZERO PUSH2 0x29C3 JUMPI PUSH2 0x29C2 PUSH2 0x238F JUMP JUMPDEST JUMPDEST PUSH0 PUSH2 0x29D0 DUP5 DUP3 DUP6 ADD PUSH2 0x299A JUMP JUMPDEST SWAP2 POP POP SWAP3 SWAP2 POP POP JUMP JUMPDEST PUSH2 0x29E2 DUP2 PUSH2 0x297B JUMP JUMPDEST DUP3 MSTORE POP POP JUMP JUMPDEST PUSH0 PUSH1 0x20 DUP3 ADD SWAP1 POP PUSH2 0x29FB PUSH0 DUP4 ADD DUP5 PUSH2 0x29D9 JUMP JUMPDEST SWAP3 SWAP2 POP POP JUMP JUMPDEST PUSH0 DUP1 PUSH1 0x40 DUP4 DUP6 SUB SLT ISZERO PUSH2 0x2A17 JUMPI PUSH2 0x2A16 PUSH2 0x238F JUMP JUMPDEST JUMPDEST PUSH0 PUSH2 0x2A24 DUP6 DUP3 DUP7 ADD PUSH2 0x299A JUMP JUMPDEST SWAP3 POP POP PUSH1 0x20 PUSH2 0x2A35 DUP6 DUP3 DUP7 ADD PUSH2 0x2877 JUMP JUMPDEST SWAP2 POP POP SWAP3 POP SWAP3 SWAP1 POP JUMP JUMPDEST PUSH0 PUSH1 0x20 DUP3 DUP5 SUB SLT ISZERO PUSH2 0x2A54 JUMPI PUSH2 0x2A53 PUSH2 0x238F JUMP JUMPDEST JUMPDEST PUSH0 PUSH2 0x2A61 DUP5 DUP3 DUP6 ADD PUSH2 0x2877 JUMP JUMPDEST SWAP2 POP POP SWAP3 SWAP2 POP POP JUMP JUMPDEST PUSH0 DUP2 SWAP1 POP SWAP2 SWAP1 POP JUMP JUMPDEST PUSH0 PUSH2 0x2A8D PUSH2 0x2A88 PUSH2 0x2A83 DUP5 PUSH2 0x2404 JUMP JUMPDEST PUSH2 0x2A6A JUMP JUMPDEST PUSH2 0x2404 JUMP JUMPDEST SWAP1 POP SWAP2 SWAP1 POP JUMP JUMPDEST PUSH0 PUSH2 0x2A9E DUP3 PUSH2 0x2A73 JUMP JUMPDEST SWAP1 POP SWAP2 SWAP1 POP JUMP JUMPDEST PUSH0 PUSH2 0x2AAF DUP3 PUSH2 0x2A94 JUMP JUMPDEST SWAP1 POP SWAP2 SWAP1 POP JUMP JUMPDEST PUSH2 0x2ABF DUP2 PUSH2 0x2AA5 JUMP JUMPDEST DUP3 MSTORE POP POP JUMP JUMPDEST PUSH0 PUSH1 0x20 DUP3 ADD SWAP1 POP PUSH2 0x2AD8 PUSH0 DUP4 ADD DUP5 PUSH2 0x2AB6 JUMP JUMPDEST SWAP3 SWAP2 POP POP JUMP JUMPDEST PUSH32 0x4E487B7100000000000000000000000000000000000000000000000000000000 PUSH0 MSTORE PUSH1 0x22 PUSH1 0x4 MSTORE PUSH1 0x24 PUSH0 REVERT JUMPDEST PUSH0 PUSH1 0x2 DUP3 DIV SWAP1 POP PUSH1 0x1 DUP3 AND DUP1 PUSH2 0x2B22 JUMPI PUSH1 0x7F DUP3 AND SWAP2 POP JUMPDEST PUSH1 0x20 DUP3 LT DUP2 SUB PUSH2 0x2B35 JUMPI PUSH2 0x2B34 PUSH2 0x2ADE JUMP JUMPDEST JUMPDEST POP SWAP2 SWAP1 POP JUMP JUMPDEST PUSH32 0x47616D655377617044414F3A20766F74696E6720706572696F64206E6F742065 PUSH0 DUP3 ADD MSTORE PUSH32 0x6E64656400000000000000000000000000000000000000000000000000000000 PUSH1 0x20 DUP3 ADD MSTORE POP JUMP JUMPDEST PUSH0 PUSH2 0x2B95 PUSH1 0x24 DUP4 PUSH2 0x244D JUMP JUMPDEST SWAP2 POP PUSH2 0x2BA0 DUP3 PUSH2 0x2B3B JUMP JUMPDEST PUSH1 0x40 DUP3 ADD SWAP1 POP SWAP2 SWAP1 POP JUMP JUMPDEST PUSH0 PUSH1 0x20 DUP3 ADD SWAP1 POP DUP2 DUP2 SUB PUSH0 DUP4 ADD MSTORE PUSH2 0x2BC2 DUP2 PUSH2 0x2B89 JUMP JUMPDEST SWAP1 POP SWAP2 SWAP1 POP JUMP JUMPDEST PUSH32 0x47616D655377617044414F3A20616C7265616479206578656375746564000000 PUSH0 DUP3 ADD MSTORE POP JUMP JUMPDEST PUSH0 PUSH2 0x2BFD PUSH1 0x1D DUP4 PUSH2 0x244D JUMP JUMPDEST SWAP2 POP PUSH2 0x2C08 DUP3 PUSH2 0x2BC9 JUMP JUMPDEST PUSH1 0x20 DUP3 ADD SWAP1 POP SWAP2 SWAP1 POP JUMP JUMPDEST PUSH0 PUSH1 0x20 DUP3 ADD SWAP1 POP DUP2 DUP2 SUB PUSH0 DUP4 ADD MSTORE PUSH2 0x2C2A DUP2 PUSH2 0x2BF1 JUMP JUMPDEST SWAP1 POP SWAP2 SWAP1 POP JUMP JUMPDEST PUSH32 0x47616D655377617044414F3A2070726F706F73616C2063616E63656C65640000 PUSH0 DUP3 ADD MSTORE POP JUMP JUMPDEST PUSH0 PUSH2 0x2C65 PUSH1 0x1E DUP4 PUSH2 0x244D JUMP JUMPDEST SWAP2 POP PUSH2 0x2C70 DUP3 PUSH2 0x2C31 JUMP JUMPDEST PUSH1 0x20 DUP3 ADD SWAP1 POP SWAP2 SWAP1 POP JUMP JUMPDEST PUSH0 PUSH1 0x20 DUP3 ADD SWAP1 POP DUP2 DUP2 SUB PUSH0 DUP4 ADD MSTORE PUSH2 0x2C92 DUP2 PUSH2 0x2C59 JUMP JUMPDEST SWAP1 POP SWAP2 SWAP1 POP JUMP JUMPDEST PUSH0 PUSH1 0x20 DUP3 ADD SWAP1 POP PUSH2 0x2CAC PUSH0 DUP4 ADD DUP5 PUSH2 0x2434 JUMP JUMPDEST SWAP3 SWAP2 POP POP JUMP JUMPDEST PUSH0 DUP2 MLOAD SWAP1 POP PUSH2 0x2CC0 DUP2 PUSH2 0x23A0 JUMP JUMPDEST SWAP3 SWAP2 POP POP JUMP JUMPDEST PUSH0 PUSH1 0x20 DUP3 DUP5 SUB SLT ISZERO PUSH2 0x2CDB JUMPI PUSH2 0x2CDA PUSH2 0x238F JUMP JUMPDEST JUMPDEST PUSH0 PUSH2 0x2CE8 DUP5 DUP3 DUP6 ADD PUSH2 0x2CB2 JUMP JUMPDEST SWAP2 POP POP SWAP3 SWAP2 POP POP JUMP JUMPDEST PUSH32 0x47616D655377617044414F3A206E6F20746F6B656E73207374616B6564000000 PUSH0 DUP3 ADD MSTORE POP JUMP JUMPDEST PUSH0 PUSH2 0x2D25 PUSH1 0x1D DUP4 PUSH2 0x244D JUMP JUMPDEST SWAP2 POP PUSH2 0x2D30 DUP3 PUSH2 0x2CF1 JUMP JUMPDEST PUSH1 0x20 DUP3 ADD SWAP1 POP SWAP2 SWAP1 POP JUMP JUMPDEST PUSH0 PUSH1 0x20 DUP3 ADD SWAP1 POP DUP2 DUP2 SUB PUSH0 DUP4 ADD MSTORE PUSH2 0x2D52 DUP2 PUSH2 0x2D19 JUMP JUMPDEST SWAP1 POP SWAP2 SWAP1 POP JUMP JUMPDEST PUSH32 0x4E487B7100000000000000000000000000000000000000000000000000000000 PUSH0 MSTORE PUSH1 0x11 PUSH1 0x4 MSTORE PUSH1 0x24 PUSH0 REVERT JUMPDEST PUSH0 PUSH2 0x2D90 DUP3 PUSH2 0x2397 JUMP JUMPDEST SWAP2 POP PUSH2 0x2D9B DUP4 PUSH2 0x2397 JUMP JUMPDEST SWAP3 POP DUP3 DUP3 ADD SWAP1 POP DUP1 DUP3 GT ISZERO PUSH2 0x2DB3 JUMPI PUSH2 0x2DB2 PUSH2 0x2D59 JUMP JUMPDEST JUMPDEST SWAP3 SWAP2 POP POP JUMP JUMPDEST PUSH0 PUSH2 0x2DC3 DUP3 PUSH2 0x2397 JUMP JUMPDEST SWAP2 POP PUSH2 0x2DCE DUP4 PUSH2 0x2397 JUMP JUMPDEST SWAP3 POP DUP3 DUP3 MUL PUSH2 0x2DDC DUP2 PUSH2 0x2397 JUMP JUMPDEST SWAP2 POP DUP3 DUP3 DIV DUP5 EQ DUP4 ISZERO OR PUSH2 0x2DF3 JUMPI PUSH2 0x2DF2 PUSH2 0x2D59 JUMP JUMPDEST JUMPDEST POP SWAP3 SWAP2 POP POP JUMP JUMPDEST PUSH32 0x4E487B7100000000000000000000000000000000000000000000000000000000 PUSH0 MSTORE PUSH1 0x12 PUSH1 0x4 MSTORE PUSH1 0x24 PUSH0 REVERT JUMPDEST PUSH0 PUSH2 0x2E31 DUP3 PUSH2 0x2397 JUMP JUMPDEST SWAP2 POP PUSH2 0x2E3C DUP4 PUSH2 0x2397 JUMP JUMPDEST SWAP3 POP DUP3 PUSH2 0x2E4C JUMPI PUSH2 0x2E4B PUSH2 0x2DFA JUMP JUMPDEST JUMPDEST DUP3 DUP3 DIV SWAP1 POP SWAP3 SWAP2 POP POP JUMP JUMPDEST PUSH32 0x47616D655377617044414F3A2071756F72756D206E6F74207265616368656400 PUSH0 DUP3 ADD MSTORE POP JUMP JUMPDEST PUSH0 PUSH2 0x2E8B PUSH1 0x1F DUP4 PUSH2 0x244D JUMP JUMPDEST SWAP2 POP PUSH2 0x2E96 DUP3 PUSH2 0x2E57 JUMP JUMPDEST PUSH1 0x20 DUP3 ADD SWAP1 POP SWAP2 SWAP1 POP JUMP JUMPDEST PUSH0 PUSH1 0x20 DUP3 ADD SWAP1 POP DUP2 DUP2 SUB PUSH0 DUP4 ADD MSTORE PUSH2 0x2EB8 DUP2 PUSH2 0x2E7F JUMP JUMPDEST SWAP1 POP SWAP2 SWAP1 POP JUMP JUMPDEST PUSH32 0x47616D655377617044414F3A2070726F706F73616C2072656A65637465640000 PUSH0 DUP3 ADD MSTORE POP JUMP JUMPDEST PUSH0 PUSH2 0x2EF3 PUSH1 0x1E DUP4 PUSH2 0x244D JUMP JUMPDEST SWAP2 POP PUSH2 0x2EFE DUP3 PUSH2 0x2EBF JUMP JUMPDEST PUSH1 0x20 DUP3 ADD SWAP1 POP SWAP2 SWAP1 POP JUMP JUMPDEST PUSH0 PUSH1 0x20 DUP3 ADD SWAP1 POP DUP2 DUP2 SUB PUSH0 DUP4 ADD MSTORE PUSH2 0x2F20 DUP2 PUSH2 0x2EE7 JUMP JUMPDEST SWAP1 POP SWAP2 SWAP1 POP JUMP JUMPDEST PUSH32 0x47616D655377617044414F3A2074696D656C6F636B206E6F7420736174697366 PUSH0 DUP3 ADD MSTORE PUSH32 0x6965640000000000000000000000000000000000000000000000000000000000 PUSH1 0x20 DUP3 ADD MSTORE POP JUMP JUMPDEST PUSH0 PUSH2 0x2F81 PUSH1 0x23 DUP4 PUSH2 0x244D JUMP JUMPDEST SWAP2 POP PUSH2 0x2F8C DUP3 PUSH2 0x2F27 JUMP JUMPDEST PUSH1 0x40 DUP3 ADD SWAP1 POP SWAP2 SWAP1 POP JUMP JUMPDEST PUSH0 PUSH1 0x20 DUP3 ADD SWAP1 POP DUP2 DUP2 SUB PUSH0 DUP4 ADD MSTORE PUSH2 0x2FAE DUP2 PUSH2 0x2F75 JUMP JUMPDEST SWAP1 POP SWAP2 SWAP1 POP JUMP JUMPDEST PUSH0 DUP2 SWAP1 POP SWAP3 SWAP2 POP POP JUMP JUMPDEST PUSH0 DUP2 SWAP1 POP DUP2 PUSH0 MSTORE PUSH1 0x20 PUSH0 KECCAK256 SWAP1 POP SWAP2 SWAP1 POP JUMP JUMPDEST PUSH0 DUP2 SLOAD PUSH2 0x2FDD DUP2 PUSH2 0x2B0B JUMP JUMPDEST PUSH2 0x2FE7 DUP2 DUP7 PUSH2 0x2FB5 JUMP JUMPDEST SWAP5 POP PUSH1 0x1 DUP3 AND PUSH0 DUP2 EQ PUSH2 0x3001 JUMPI PUSH1 0x1 DUP2 EQ PUSH2 0x3016 JUMPI PUSH2 0x3048 JUMP JUMPDEST PUSH1 0xFF NOT DUP4 AND DUP7 MSTORE DUP2 ISZERO ISZERO DUP3 MUL DUP7 ADD SWAP4 POP PUSH2 0x3048 JUMP JUMPDEST PUSH2 0x301F DUP6 PUSH2 0x2FBF JUMP JUMPDEST PUSH0 JUMPDEST DUP4 DUP2 LT ISZERO PUSH2 0x3040 JUMPI DUP2 SLOAD DUP2 DUP10 ADD MSTORE PUSH1 0x1 DUP3 ADD SWAP2 POP PUSH1 0x20 DUP2 ADD SWAP1 POP PUSH2 0x3021 JUMP JUMPDEST DUP4 DUP9 ADD SWAP6 POP POP POP JUMPDEST POP POP POP SWAP3 SWAP2 POP POP JUMP JUMPDEST PUSH0 PUSH2 0x305C DUP3 DUP5 PUSH2 0x2FD1 JUMP JUMPDEST SWAP2 POP DUP2 SWAP1 POP SWAP3 SWAP2 POP POP JUMP JUMPDEST PUSH32 0x47616D655377617044414F3A20657865637574696F6E206661696C6564000000 PUSH0 DUP3 ADD MSTORE POP JUMP JUMPDEST PUSH0 PUSH2 0x309B PUSH1 0x1D DUP4 PUSH2 0x244D JUMP JUMPDEST SWAP2 POP PUSH2 0x30A6 DUP3 PUSH2 0x3067 JUMP JUMPDEST PUSH1 0x20 DUP3 ADD SWAP1 POP SWAP2 SWAP1 POP JUMP JUMPDEST PUSH0 PUSH1 0x20 DUP3 ADD SWAP1 POP DUP2 DUP2 SUB PUSH0 DUP4 ADD MSTORE PUSH2 0x30C8 DUP2 PUSH2 0x308F JUMP JUMPDEST SWAP1 POP SWAP2 SWAP1 POP JUMP JUMPDEST PUSH32 0x47616D655377617044414F3A20696E73756666696369656E7420746F6B656E73 PUSH0 DUP3 ADD MSTORE PUSH32 0x20746F206372656174652070726F706F73616C00000000000000000000000000 PUSH1 0x20 DUP3 ADD MSTORE POP JUMP JUMPDEST PUSH0 PUSH2 0x3129 PUSH1 0x33 DUP4 PUSH2 0x244D JUMP JUMPDEST SWAP2 POP PUSH2 0x3134 DUP3 PUSH2 0x30CF JUMP JUMPDEST PUSH1 0x40 DUP3 ADD SWAP1 POP SWAP2 SWAP1 POP JUMP JUMPDEST PUSH0 PUSH1 0x20 DUP3 ADD SWAP1 POP DUP2 DUP2 SUB PUSH0 DUP4 ADD MSTORE PUSH2 0x3156 DUP2 PUSH2 0x311D JUMP JUMPDEST SWAP1 POP SWAP2 SWAP1 POP JUMP JUMPDEST PUSH0 PUSH2 0x3167 DUP3 PUSH2 0x2397 JUMP JUMPDEST SWAP2 POP PUSH32 0xFFFFFFFFFFFFFFFFFFFFFFFFFFFFFFFFFFFFFFFFFFFFFFFFFFFFFFFFFFFFFFFF DUP3 SUB PUSH2 0x3199 JUMPI PUSH2 0x3198 PUSH2 0x2D59 JUMP JUMPDEST JUMPDEST PUSH1 0x1 DUP3 ADD SWAP1 POP SWAP2 SWAP1 POP JUMP JUMPDEST PUSH0 DUP2 SWAP1 POP DUP2 PUSH0 MSTORE PUSH1 0x20 PUSH0 KECCAK256 SWAP1 POP SWAP2 SWAP1 POP JUMP JUMPDEST PUSH0 PUSH1 0x20 PUSH1 0x1F DUP4 ADD DIV SWAP1 POP SWAP2 SWAP1 POP JUMP JUMPDEST PUSH0 DUP3 DUP3 SHL SWAP1 POP SWAP3 SWAP2 POP POP JUMP JUMPDEST PUSH0 PUSH1 0x8 DUP4 MUL PUSH2 0x3200 PUSH32 0xFFFFFFFFFFFFFFFFFFFFFFFFFFFFFFFFFFFFFFFFFFFFFFFFFFFFFFFFFFFFFFFF DUP3 PUSH2 0x31C5 JUMP JUMPDEST PUSH2 0x320A DUP7 DUP4 PUSH2 0x31C5 JUMP JUMPDEST SWAP6 POP DUP1 NOT DUP5 AND SWAP4 POP DUP1 DUP7 AND DUP5 OR SWAP3 POP POP POP SWAP4 SWAP3 POP POP POP JUMP JUMPDEST PUSH0 PUSH2 0x323C PUSH2 0x3237 PUSH2 0x3232 DUP5 PUSH2 0x2397 JUMP JUMPDEST PUSH2 0x2A6A JUMP JUMPDEST PUSH2 0x2397 JUMP JUMPDEST SWAP1 POP SWAP2 SWAP1 POP JUMP JUMPDEST PUSH0 DUP2 SWAP1 POP SWAP2 SWAP1 POP JUMP JUMPDEST PUSH2 0x3255 DUP4 PUSH2 0x3222 JUMP JUMPDEST PUSH2 0x3269 PUSH2 0x3261 DUP3 PUSH2 0x3243 JUMP JUMPDEST DUP5 DUP5 SLOAD PUSH2 0x31D1 JUMP JUMPDEST DUP3 SSTORE POP POP POP POP JUMP JUMPDEST PUSH0 SWAP1 JUMP JUMPDEST PUSH2 0x327D PUSH2 0x3271 JUMP JUMPDEST PUSH2 0x3288 DUP2 DUP5 DUP5 PUSH2 0x324C JUMP JUMPDEST POP POP POP JUMP JUMPDEST JUMPDEST DUP2 DUP2 LT ISZERO PUSH2 0x32AB JUMPI PUSH2 0x32A0 PUSH0 DUP3 PUSH2 0x3275 JUMP JUMPDEST PUSH1 0x1 DUP2 ADD SWAP1 POP PUSH2 0x328E JUMP JUMPDEST POP POP JUMP JUMPDEST PUSH1 0x1F DUP3 GT ISZERO PUSH2 0x32F0 JUMPI PUSH2 0x32C1 DUP2 PUSH2 0x31A4 JUMP JUMPDEST PUSH2 0x32CA DUP5 PUSH2 0x31B6 JUMP JUMPDEST DUP2 ADD PUSH1 0x20 DUP6 LT ISZERO PUSH2 0x32D9 JUMPI DUP2 SWAP1 POP JUMPDEST PUSH2 0x32ED PUSH2 0x32E5 DUP6 PUSH2 0x31B6 JUMP JUMPDEST DUP4 ADD DUP3 PUSH2 0x328D JUMP JUMPDEST POP POP JUMPDEST POP POP POP JUMP JUMPDEST PUSH0 DUP3 DUP3 SHR SWAP1 POP SWAP3 SWAP2 POP POP JUMP JUMPDEST PUSH0 PUSH2 0x3310 PUSH0 NOT DUP5 PUSH1 0x8 MUL PUSH2 0x32F5 JUMP JUMPDEST NOT DUP1 DUP4 AND SWAP2 POP POP SWAP3 SWAP2 POP POP JUMP JUMPDEST PUSH0 PUSH2 0x3328 DUP4 DUP4 PUSH2 0x3301 JUMP JUMPDEST SWAP2 POP DUP3 PUSH1 0x2 MUL DUP3 OR SWAP1 POP SWAP3 SWAP2 POP POP JUMP JUMPDEST PUSH2 0x3341 DUP3 PUSH2 0x2443 JUMP JUMPDEST PUSH8 0xFFFFFFFFFFFFFFFF DUP2 GT ISZERO PUSH2 0x335A JUMPI PUSH2 0x3359 PUSH2 0x269F JUMP JUMPDEST JUMPDEST PUSH2 0x3364 DUP3 SLOAD PUSH2 0x2B0B JUMP JUMPDEST PUSH2 0x336F DUP3 DUP3 DUP6 PUSH2 0x32AF JUMP JUMPDEST PUSH0 PUSH1 0x20 SWAP1 POP PUSH1 0x1F DUP4 GT PUSH1 0x1 DUP2 EQ PUSH2 0x33A0 JUMPI PUSH0 DUP5 ISZERO PUSH2 0x338E JUMPI DUP3 DUP8 ADD MLOAD SWAP1 POP JUMPDEST PUSH2 0x3398 DUP6 DUP3 PUSH2 0x331D JUMP JUMPDEST DUP7 SSTORE POP PUSH2 0x33FF JUMP JUMPDEST PUSH1 0x1F NOT DUP5 AND PUSH2 0x33AE DUP7 PUSH2 0x31A4 JUMP JUMPDEST PUSH0 JUMPDEST DUP3 DUP2 LT ISZERO PUSH2 0x33D5 JUMPI DUP5 DUP10 ADD MLOAD DUP3 SSTORE PUSH1 0x1 DUP3 ADD SWAP2 POP PUSH1 0x20 DUP6 ADD SWAP5 POP PUSH1 0x20 DUP2 ADD SWAP1 POP PUSH2 0x33B0 JUMP JUMPDEST DUP7 DUP4 LT ISZERO PUSH2 0x33F2 JUMPI DUP5 DUP10 ADD MLOAD PUSH2 0x33EE PUSH1 0x1F DUP10 AND DUP3 PUSH2 0x3301 JUMP JUMPDEST DUP4 SSTORE POP JUMPDEST PUSH1 0x1 PUSH1 0x2 DUP9 MUL ADD DUP9 SSTORE POP POP POP JUMPDEST POP POP POP POP POP POP JUMP JUMPDEST PUSH1 0x1F DUP3 GT ISZERO PUSH2 0x3448 JUMPI PUSH2 0x3419 DUP2 PUSH2 0x2FBF JUMP JUMPDEST PUSH2 0x3422 DUP5 PUSH2 0x31B6 JUMP JUMPDEST DUP2 ADD PUSH1 0x20 DUP6 LT ISZERO PUSH2 0x3431 JUMPI DUP2 SWAP1 POP JUMPDEST PUSH2 0x3445 PUSH2 0x343D DUP6 PUSH2 0x31B6 JUMP JUMPDEST DUP4 ADD DUP3 PUSH2 0x328D JUMP JUMPDEST POP POP JUMPDEST POP POP POP JUMP JUMPDEST PUSH2 0x3456 DUP3 PUSH2 0x24CD JUMP JUMPDEST PUSH8 0xFFFFFFFFFFFFFFFF DUP2 GT ISZERO PUSH2 0x346F JUMPI PUSH2 0x346E PUSH2 0x269F JUMP JUMPDEST JUMPDEST PUSH2 0x3479 DUP3 SLOAD PUSH2 0x2B0B JUMP JUMPDEST PUSH2 0x3484 DUP3 DUP3 DUP6 PUSH2 0x3407 JUMP JUMPDEST PUSH0 PUSH1 0x20 SWAP1 POP PUSH1 0x1F DUP4 GT PUSH1 0x1 DUP2 EQ PUSH2 0x34B5 JUMPI PUSH0 DUP5 ISZERO PUSH2 0x34A3 JUMPI DUP3 DUP8 ADD MLOAD SWAP1 POP JUMPDEST PUSH2 0x34AD DUP6 DUP3 PUSH2 0x331D JUMP JUMPDEST DUP7 SSTORE POP PUSH2 0x3514 JUMP JUMPDEST PUSH1 0x1F NOT DUP5 AND PUSH2 0x34C3 DUP7 PUSH2 0x2FBF JUMP JUMPDEST PUSH0 JUMPDEST DUP3 DUP2 LT ISZERO PUSH2 0x34EA JUMPI DUP5 DUP10 ADD MLOAD DUP3 SSTORE PUSH1 0x1 DUP3 ADD SWAP2 POP PUSH1 0x20 DUP6 ADD SWAP5 POP PUSH1 0x20 DUP2 ADD SWAP1 POP PUSH2 0x34C5 JUMP JUMPDEST DUP7 DUP4 LT ISZERO PUSH2 0x3507 JUMPI DUP5 DUP10 ADD MLOAD PUSH2 0x3503 PUSH1 0x1F DUP10 AND DUP3 PUSH2 0x3301 JUMP JUMPDEST DUP4 SSTORE POP JUMPDEST PUSH1 0x1 PUSH1 0x2 DUP9 MUL ADD DUP9 SSTORE POP POP POP JUMPDEST POP POP POP POP POP POP JUMP JUMPDEST PUSH0 PUSH1 0x60 DUP3 ADD SWAP1 POP DUP2 DUP2 SUB PUSH0 DUP4 ADD MSTORE PUSH2 0x3534 DUP2 DUP7 PUSH2 0x247B JUMP JUMPDEST SWAP1 POP PUSH2 0x3543 PUSH1 0x20 DUP4 ADD DUP6 PUSH2 0x23F5 JUMP JUMPDEST PUSH2 0x3550 PUSH1 0x40 DUP4 ADD DUP5 PUSH2 0x23F5 JUMP JUMPDEST SWAP5 SWAP4 POP POP POP POP JUMP JUMPDEST PUSH32 0x47616D655377617044414F3A20766F74696E67206E6F74207374617274656400 PUSH0 DUP3 ADD MSTORE POP JUMP JUMPDEST PUSH0 PUSH2 0x358C PUSH1 0x1F DUP4 PUSH2 0x244D JUMP JUMPDEST SWAP2 POP PUSH2 0x3597 DUP3 PUSH2 0x3558 JUMP JUMPDEST PUSH1 0x20 DUP3 ADD SWAP1 POP SWAP2 SWAP1 POP JUMP JUMPDEST PUSH0 PUSH1 0x20 DUP3 ADD SWAP1 POP DUP2 DUP2 SUB PUSH0 DUP4 ADD MSTORE PUSH2 0x35B9 DUP2 PUSH2 0x3580 JUMP JUMPDEST SWAP1 POP SWAP2 SWAP1 POP JUMP JUMPDEST PUSH32 0x47616D655377617044414F3A20766F74696E6720656E64656400000000000000 PUSH0 DUP3 ADD MSTORE POP JUMP JUMPDEST PUSH0 PUSH2 0x35F4 PUSH1 0x19 DUP4 PUSH2 0x244D JUMP JUMPDEST SWAP2 POP PUSH2 0x35FF DUP3 PUSH2 0x35C0 JUMP JUMPDEST PUSH1 0x20 DUP3 ADD SWAP1 POP SWAP2 SWAP1 POP JUMP JUMPDEST PUSH0 PUSH1 0x20 DUP3 ADD SWAP1 POP DUP2 DUP2 SUB PUSH0 DUP4 ADD MSTORE PUSH2 0x3621 DUP2 PUSH2 0x35E8 JUMP JUMPDEST SWAP1 POP SWAP2 SWAP1 POP JUMP JUMPDEST PUSH32 0x47616D655377617044414F3A2070726F706F73616C20616C7265616479206578 PUSH0 DUP3 ADD MSTORE PUSH32 0x6563757465640000000000000000000000000000000000000000000000000000 PUSH1 0x20 DUP3 ADD MSTORE POP JUMP JUMPDEST PUSH0 PUSH2 0x3682 PUSH1 0x26 DUP4 PUSH2 0x244D JUMP JUMPDEST SWAP2 POP PUSH2 0x368D DUP3 PUSH2 0x3628 JUMP JUMPDEST PUSH1 0x40 DUP3 ADD SWAP1 POP SWAP2 SWAP1 POP JUMP JUMPDEST PUSH0 PUSH1 0x20 DUP3 ADD SWAP1 POP DUP2 DUP2 SUB PUSH0 DUP4 ADD MSTORE PUSH2 0x36AF DUP2 PUSH2 0x3676 JUMP JUMPDEST SWAP1 POP SWAP2 SWAP1 POP JUMP JUMPDEST PUSH32 0x47616D655377617044414F3A20616C726561647920766F746564000000000000 PUSH0 DUP3 ADD MSTORE POP JUMP JUMPDEST PUSH0 PUSH2 0x36EA PUSH1 0x1A DUP4 PUSH2 0x244D JUMP JUMPDEST SWAP2 POP PUSH2 0x36F5 DUP3 PUSH2 0x36B6 JUMP JUMPDEST PUSH1 0x20 DUP3 ADD SWAP1 POP SWAP2 SWAP1 POP JUMP JUMPDEST PUSH0 PUSH1 0x20 DUP3 ADD SWAP1 POP DUP2 DUP2 SUB PUSH0 DUP4 ADD MSTORE PUSH2 0x3717 DUP2 PUSH2 0x36DE JUMP JUMPDEST SWAP1 POP SWAP2 SWAP1 POP JUMP JUMPDEST PUSH0 DUP2 MLOAD SWAP1 POP PUSH2 0x372C DUP2 PUSH2 0x2984 JUMP JUMPDEST SWAP3 SWAP2 POP POP JUMP JUMPDEST PUSH0 PUSH1 0x20 DUP3 DUP5 SUB SLT ISZERO PUSH2 0x3747 JUMPI PUSH2 0x3746 PUSH2 0x238F JUMP JUMPDEST JUMPDEST PUSH0 PUSH2 0x3754 DUP5 DUP3 DUP6 ADD PUSH2 0x371E JUMP JUMPDEST SWAP2 POP POP SWAP3 SWAP2 POP POP JUMP JUMPDEST PUSH0 PUSH1 0x40 DUP3 ADD SWAP1 POP PUSH2 0x3770 PUSH0 DUP4 ADD DUP6 PUSH2 0x29D9 JUMP JUMPDEST PUSH2 0x377D PUSH1 0x20 DUP4 ADD DUP5 PUSH2 0x2434 JUMP JUMPDEST SWAP4 SWAP3 POP POP POP JUMP JUMPDEST PUSH0 DUP2 MLOAD SWAP1 POP PUSH2 0x3792 DUP2 PUSH2 0x2913 JUMP JUMPDEST SWAP3 SWAP2 POP POP JUMP JUMPDEST PUSH0 PUSH1 0x20 DUP3 DUP5 SUB SLT ISZERO PUSH2 0x37AD JUMPI PUSH2 0x37AC PUSH2 0x238F JUMP JUMPDEST JUMPDEST PUSH0 PUSH2 0x37BA DUP5 DUP3 DUP6 ADD PUSH2 0x3784 JUMP JUMPDEST SWAP2 POP POP SWAP3 SWAP2 POP POP JUMP JUMPDEST PUSH32 0x47616D655377617044414F3A206F6E6C79207374616B6572732063616E20766F PUSH0 DUP3 ADD MSTORE PUSH32 0x7465000000000000000000000000000000000000000000000000000000000000 PUSH1 0x20 DUP3 ADD MSTORE POP JUMP JUMPDEST PUSH0 PUSH2 0x381D PUSH1 0x22 DUP4 PUSH2 0x244D JUMP JUMPDEST SWAP2 POP PUSH2 0x3828 DUP3 PUSH2 0x37C3 JUMP JUMPDEST PUSH1 0x40 DUP3 ADD SWAP1 POP SWAP2 SWAP1 POP JUMP JUMPDEST PUSH0 PUSH1 0x20 DUP3 ADD SWAP1 POP DUP2 DUP2 SUB PUSH0 DUP4 ADD MSTORE PUSH2 0x384A DUP2 PUSH2 0x3811 JUMP JUMPDEST SWAP1 POP SWAP2 SWAP1 POP JUMP JUMPDEST PUSH32 0x47616D655377617044414F3A206E6F207374616B656420746F6B656E73000000 PUSH0 DUP3 ADD MSTORE POP JUMP JUMPDEST PUSH0 PUSH2 0x3885 PUSH1 0x1D DUP4 PUSH2 0x244D JUMP JUMPDEST SWAP2 POP PUSH2 0x3890 DUP3 PUSH2 0x3851 JUMP JUMPDEST PUSH1 0x20 DUP3 ADD SWAP1 POP SWAP2 SWAP1 POP JUMP JUMPDEST PUSH0 PUSH1 0x20 DUP3 ADD SWAP1 POP DUP2 DUP2 SUB PUSH0 DUP4 ADD MSTORE PUSH2 0x38B2 DUP2 PUSH2 0x3879 JUMP JUMPDEST SWAP1 POP SWAP2 SWAP1 POP JUMP JUMPDEST PUSH0 PUSH1 0x40 DUP3 ADD SWAP1 POP PUSH2 0x38CC PUSH0 DUP4 ADD DUP6 PUSH2 0x24BE JUMP JUMPDEST PUSH2 0x38D9 PUSH1 0x20 DUP4 ADD DUP5 PUSH2 0x23F5 JUMP JUMPDEST SWAP4 SWAP3 POP POP POP JUMP JUMPDEST PUSH32 0x47616D655377617044414F3A2063616C6C6572206973206E6F742061646D696E PUSH0 DUP3 ADD MSTORE POP JUMP JUMPDEST PUSH0 PUSH2 0x3914 PUSH1 0x20 DUP4 PUSH2 0x244D JUMP JUMPDEST SWAP2 POP PUSH2 0x391F DUP3 PUSH2 0x38E0 JUMP JUMPDEST PUSH1 0x20 DUP3 ADD SWAP1 POP SWAP2 SWAP1 POP JUMP JUMPDEST PUSH0 PUSH1 0x20 DUP3 ADD SWAP1 POP DUP2 DUP2 SUB PUSH0 DUP4 ADD MSTORE PUSH2 0x3941 DUP2 PUSH2 0x3908 JUMP JUMPDEST SWAP1 POP SWAP2 SWAP1 POP JUMP JUMPDEST PUSH32 0x47616D655377617044414F3A20696E73756666696369656E742062616C616E63 PUSH0 DUP3 ADD MSTORE PUSH32 0x6500000000000000000000000000000000000000000000000000000000000000 PUSH1 0x20 DUP3 ADD MSTORE POP JUMP JUMPDEST PUSH0 PUSH2 0x39A2 PUSH1 0x21 DUP4 PUSH2 0x244D JUMP JUMPDEST SWAP2 POP PUSH2 0x39AD DUP3 PUSH2 0x3948 JUMP JUMPDEST PUSH1 0x40 DUP3 ADD SWAP1 POP SWAP2 SWAP1 POP JUMP JUMPDEST PUSH0 PUSH1 0x20 DUP3 ADD SWAP1 POP DUP2 DUP2 SUB PUSH0 DUP4 ADD MSTORE PUSH2 0x39CF DUP2 PUSH2 0x3996 JUMP JUMPDEST SWAP1 POP SWAP2 SWAP1 POP JUMP JUMPDEST PUSH32 0x656D657267656E63795769746864726177000000000000000000000000000000 PUSH0 DUP3 ADD MSTORE POP JUMP JUMPDEST PUSH0 PUSH2 0x3A0A PUSH1 0x11 DUP4 PUSH2 0x244D JUMP JUMPDEST SWAP2 POP PUSH2 0x3A15 DUP3 PUSH2 0x39D6 JUMP JUMPDEST PUSH1 0x20 DUP3 ADD SWAP1 POP SWAP2 SWAP1 POP JUMP JUMPDEST PUSH0 PUSH1 0x40 DUP3 ADD SWAP1 POP DUP2 DUP2 SUB PUSH0 DUP4 ADD MSTORE PUSH2 0x3A37 DUP2 PUSH2 0x39FE JUMP JUMPDEST SWAP1 POP PUSH2 0x3A46 PUSH1 0x20 DUP4 ADD DUP5 PUSH2 0x23F5 JUMP JUMPDEST SWAP3 SWAP2 POP POP JUMP JUMPDEST PUSH0 PUSH1 0x40 DUP3 ADD SWAP1 POP PUSH2 0x3A5F PUSH0 DUP4 ADD DUP6 PUSH2 0x23F5 JUMP JUMPDEST PUSH2 0x3A6C PUSH1 0x20 DUP4 ADD DUP5 PUSH2 0x23F5 JUMP JUMPDEST SWAP4 SWAP3 POP POP POP JUMP JUMPDEST PUSH32 0x47616D655377617044414F3A20696E76616C69642071756F72756D0000000000 PUSH0 DUP3 ADD MSTORE POP JUMP JUMPDEST PUSH0 PUSH2 0x3AA7 PUSH1 0x1B DUP4 PUSH2 0x244D JUMP JUMPDEST SWAP2 POP PUSH2 0x3AB2 DUP3 PUSH2 0x3A73 JUMP JUMPDEST PUSH1 0x20 DUP3 ADD SWAP1 POP SWAP2 SWAP1 POP JUMP JUMPDEST PUSH0 PUSH1 0x20 DUP3 ADD SWAP1 POP DUP2 DUP2 SUB PUSH0 DUP4 ADD MSTORE PUSH2 0x3AD4 DUP2 PUSH2 0x3A9B JUMP JUMPDEST SWAP1 POP SWAP2 SWAP1 POP JUMP JUMPDEST PUSH32 0x47616D655377617044414F3A2063616C6C6572206973206E6F74206D61726B65 PUSH0 DUP3 ADD MSTORE PUSH32 0x74706C6163650000000000000000000000000000000000000000000000000000 PUSH1 0x20 DUP3 ADD MSTORE POP JUMP JUMPDEST PUSH0 PUSH2 0x3B35 PUSH1 0x26 DUP4 PUSH2 0x244D JUMP JUMPDEST SWAP2 POP PUSH2 0x3B40 DUP3 PUSH2 0x3ADB JUMP JUMPDEST PUSH1 0x40 DUP3 ADD SWAP1 POP SWAP2 SWAP1 POP JUMP JUMPDEST PUSH0 PUSH1 0x20 DUP3 ADD SWAP1 POP DUP2 DUP2 SUB PUSH0 DUP4 ADD MSTORE PUSH2 0x3B62 DUP2 PUSH2 0x3B29 JUMP JUMPDEST SWAP1 POP SWAP2 SWAP1 POP JUMP JUMPDEST PUSH0 DUP2 SWAP1 POP SWAP2 SWAP1 POP JUMP JUMPDEST PUSH0 PUSH2 0x3B8C PUSH2 0x3B87 PUSH2 0x3B82 DUP5 PUSH2 0x3B69 JUMP JUMPDEST PUSH2 0x2A6A JUMP JUMPDEST PUSH2 0x2397 JUMP JUMPDEST SWAP1 POP SWAP2 SWAP1 POP JUMP JUMPDEST PUSH2 0x3B9C DUP2 PUSH2 0x3B72 JUMP JUMPDEST DUP3 MSTORE POP POP JUMP JUMPDEST PUSH0 PUSH1 0x40 DUP3 ADD SWAP1 POP PUSH2 0x3BB5 PUSH0 DUP4 ADD DUP6 PUSH2 0x23F5 JUMP JUMPDEST PUSH2 0x3BC2 PUSH1 0x20 DUP4 ADD DUP5 PUSH2 0x3B93 JUMP JUMPDEST SWAP4 SWAP3 POP POP POP JUMP JUMPDEST PUSH32 0x656D657267656E63794275726E00000000000000000000000000000000000000 PUSH0 DUP3 ADD MSTORE POP JUMP JUMPDEST PUSH0 PUSH2 0x3BFD PUSH1 0xD DUP4 PUSH2 0x244D JUMP JUMPDEST SWAP2 POP PUSH2 0x3C08 DUP3 PUSH2 0x3BC9 JUMP JUMPDEST PUSH1 0x20 DUP3 ADD SWAP1 POP SWAP2 SWAP1 POP JUMP JUMPDEST PUSH0 PUSH1 0x40 DUP3 ADD SWAP1 POP DUP2 DUP2 SUB PUSH0 DUP4 ADD MSTORE PUSH2 0x3C2A DUP2 PUSH2 0x3BF1 JUMP JUMPDEST SWAP1 POP PUSH2 0x3C39 PUSH1 0x20 DUP4 ADD DUP5 PUSH2 0x23F5 JUMP JUMPDEST SWAP3 SWAP2 POP POP JUMP JUMPDEST PUSH32 0x47616D655377617044414F3A206F6E6C792070726F706F736572206F72206164 PUSH0 DUP3 ADD MSTORE PUSH32 0x6D696E2063616E2063616E63656C000000000000000000000000000000000000 PUSH1 0x20 DUP3 ADD MSTORE POP JUMP JUMPDEST PUSH0 PUSH2 0x3C99 PUSH1 0x2E DUP4 PUSH2 0x244D JUMP JUMPDEST SWAP2 POP PUSH2 0x3CA4 DUP3 PUSH2 0x3C3F JUMP JUMPDEST PUSH1 0x40 DUP3 ADD SWAP1 POP SWAP2 SWAP1 POP JUMP JUMPDEST PUSH0 PUSH1 0x20 DUP3 ADD SWAP1 POP DUP2 DUP2 SUB PUSH0 DUP4 ADD MSTORE PUSH2 0x3CC6 DUP2 PUSH2 0x3C8D JUMP JUMPDEST SWAP1 POP SWAP2 SWAP1 POP JUMP JUMPDEST PUSH32 0x47616D655377617044414F3A20616C72656164792063616E63656C6564000000 PUSH0 DUP3 ADD MSTORE POP JUMP JUMPDEST PUSH0 PUSH2 0x3D01 PUSH1 0x1D DUP4 PUSH2 0x244D JUMP JUMPDEST SWAP2 POP PUSH2 0x3D0C DUP3 PUSH2 0x3CCD JUMP JUMPDEST PUSH1 0x20 DUP3 ADD SWAP1 POP SWAP2 SWAP1 POP JUMP JUMPDEST PUSH0 PUSH1 0x20 DUP3 ADD SWAP1 POP DUP2 DUP2 SUB PUSH0 DUP4 ADD MSTORE PUSH2 0x3D2E DUP2 PUSH2 0x3CF5 JUMP JUMPDEST SWAP1 POP SWAP2 SWAP1 POP JUMP JUMPDEST PUSH32 0x47616D655377617044414F3A20696E76616C696420766F74696E672070657269 PUSH0 DUP3 ADD MSTORE PUSH32 0x6F64000000000000000000000000000000000000000000000000000000000000 PUSH1 0x20 DUP3 ADD MSTORE POP JUMP JUMPDEST PUSH0 PUSH2 0x3D8F PUSH1 0x22 DUP4 PUSH2 0x244D JUMP JUMPDEST SWAP2 POP PUSH2 0x3D9A DUP3 PUSH2 0x3D35 JUMP JUMPDEST PUSH1 0x40 DUP3 ADD SWAP1 POP SWAP2 SWAP1 POP JUMP JUMPDEST PUSH0 PUSH1 0x20 DUP3 ADD SWAP1 POP DUP2 DUP2 SUB PUSH0 DUP4 ADD MSTORE PUSH2 0x3DBC DUP2 PUSH2 0x3D83 JUMP JUMPDEST SWAP1 POP SWAP2 SWAP1 POP JUMP JUMPDEST PUSH32 0x47616D655377617044414F3A20696E76616C6964207468726573686F6C640000 PUSH0 DUP3 ADD MSTORE POP JUMP JUMPDEST PUSH0 PUSH2 0x3DF7 PUSH1 0x1E DUP4 PUSH2 0x244D JUMP JUMPDEST SWAP2 POP PUSH2 0x3E02 DUP3 PUSH2 0x3DC3 JUMP JUMPDEST PUSH1 0x20 DUP3 ADD SWAP1 POP SWAP2 SWAP1 POP JUMP JUMPDEST PUSH0 PUSH1 0x20 DUP3 ADD SWAP1 POP DUP2 DUP2 SUB PUSH0 DUP4 ADD MSTORE PUSH2 0x3E24 DUP2 PUSH2 0x3DEB JUMP JUMPDEST SWAP1 POP SWAP2 SWAP1 POP JUMP JUMPDEST PUSH32 0x5265656E7472616E637947756172643A207265656E7472616E742063616C6C00 PUSH0 DUP3 ADD MSTORE POP JUMP JUMPDEST PUSH0 PUSH2 0x3E5F PUSH1 0x1F DUP4 PUSH2 0x244D JUMP JUMPDEST SWAP2 POP PUSH2 0x3E6A DUP3 PUSH2 0x3E2B JUMP JUMPDEST PUSH1 0x20 DUP3 ADD SWAP1 POP SWAP2 SWAP1 POP JUMP JUMPDEST PUSH0 PUSH1 0x20 DUP3 ADD SWAP1 POP DUP2 DUP2 SUB PUSH0 DUP4 ADD MSTORE PUSH2 0x3E8C DUP2 PUSH2 0x3E53 JUMP JUMPDEST SWAP1 POP SWAP2 SWAP1 POP JUMP JUMPDEST PUSH0 PUSH1 0x40 DUP3 ADD SWAP1 POP PUSH2 0x3EA6 PUSH0 DUP4 ADD DUP6 PUSH2 0x2434 JUMP JUMPDEST PUSH2 0x3EB3 PUSH1 0x20 DUP4 ADD DUP5 PUSH2 0x29D9 JUMP JUMPDEST SWAP4 SWAP3 POP POP POP JUMP INVALID LOG2 PUSH5 0x6970667358 0x22 SLT KECCAK256 PUSH16 0x84A21EB76E838EE4405D5D4352CD6E5A PUSH0 0xD6 0x26 0xAA DUP16 0xBC RETURN 0xB5 0xD2 DUP10 0xC0 PUSH15 0x58C15264736F6C634300081A003300 "
				},
				"gasEstimates": {
					"creation": {
						"codeDepositCost": "3222400",
						"executionCost": "infinite",
						"totalCost": "infinite"
					},
					"external": {
						"": "197",
						"DEFAULT_ADMIN_ROLE()": "398",
						"MARKETPLACE_ROLE()": "414",
						"VOTER_ROLE()": "415",
						"cancelProposal(uint256)": "34834",
						"castVote(uint256,bool)": "infinite",
						"createProposal(string,bytes,address)": "infinite",
						"distributeFees()": "infinite",
						"emergencyBurn(uint256)": "infinite",
						"emergencyWithdraw(uint256)": "infinite",
						"executeProposal(uint256)": "infinite",
						"gameToken()": "infinite",
						"getRoleAdmin(bytes32)": "infinite",
						"grantRole(bytes32,address)": "infinite",
						"hasRole(bytes32,address)": "3168",
						"lastDistribution(address)": "2914",
						"minimumQuorum()": "2536",
						"pendingRewards(address)": "2870",
						"proposalCount()": "2514",
						"proposalThreshold()": "2470",
						"proposals(uint256)": "infinite",
						"renounceRole(bytes32,address)": "infinite",
						"revokeRole(bytes32,address)": "infinite",
						"setMinimumQuorum(uint256)": "infinite",
						"setProposalThreshold(uint256)": "infinite",
						"setTimeLock(uint256)": "infinite",
						"setVotingPeriod(uint256)": "infinite",
						"supportsInterface(bytes4)": "786",
						"timeLock()": "2470",
						"totalDistributed()": "2535",
						"votingPeriod()": "2516"
					}
				},
				"methodIdentifiers": {
					"DEFAULT_ADMIN_ROLE()": "a217fddf",
					"MARKETPLACE_ROLE()": "c3439f3f",
					"VOTER_ROLE()": "a94015c8",
					"cancelProposal(uint256)": "e0a8f6f5",
					"castVote(uint256,bool)": "15373e3d",
					"createProposal(string,bytes,address)": "10770218",
					"distributeFees()": "bb57ad20",
					"emergencyBurn(uint256)": "dfff8568",
					"emergencyWithdraw(uint256)": "5312ea8e",
					"executeProposal(uint256)": "0d61b519",
					"gameToken()": "c3dfdae6",
					"getRoleAdmin(bytes32)": "248a9ca3",
					"grantRole(bytes32,address)": "2f2ff15d",
					"hasRole(bytes32,address)": "91d14854",
					"lastDistribution(address)": "44b50bfc",
					"minimumQuorum()": "8160f0b5",
					"pendingRewards(address)": "31d7a262",
					"proposalCount()": "da35c664",
					"proposalThreshold()": "b58131b0",
					"proposals(uint256)": "013cf08b",
					"renounceRole(bytes32,address)": "36568abe",
					"revokeRole(bytes32,address)": "d547741f",
					"setMinimumQuorum(uint256)": "6f698fb5",
					"setProposalThreshold(uint256)": "ece40cc1",
					"setTimeLock(uint256)": "5bcb318a",
					"setVotingPeriod(uint256)": "ea0217cf",
					"supportsInterface(bytes4)": "01ffc9a7",
					"timeLock()": "d085835a",
					"totalDistributed()": "efca2eed",
					"votingPeriod()": "02a251a3"
				}
			},
			"storageLayout": {
				"storage": [
					{
						"astId": 26,
						"contract": "proj/GameSwapDAO.sol:GameSwapDAO",
						"label": "_roles",
						"offset": 0,
						"slot": "0",
						"type": "t_mapping(t_bytes32,t_struct(RoleData)21_storage)"
					},
					{
						"astId": 389,
						"contract": "proj/GameSwapDAO.sol:GameSwapDAO",
						"label": "_status",
						"offset": 0,
						"slot": "1",
						"type": "t_uint256"
					},
					{
						"astId": 588,
						"contract": "proj/GameSwapDAO.sol:GameSwapDAO",
						"label": "gameToken",
						"offset": 0,
						"slot": "2",
						"type": "t_contract(IGameSwapToken)571"
					},
					{
						"astId": 590,
						"contract": "proj/GameSwapDAO.sol:GameSwapDAO",
						"label": "proposalCount",
						"offset": 0,
						"slot": "3",
						"type": "t_uint256"
					},
					{
						"astId": 592,
						"contract": "proj/GameSwapDAO.sol:GameSwapDAO",
						"label": "minimumQuorum",
						"offset": 0,
						"slot": "4",
						"type": "t_uint256"
					},
					{
						"astId": 594,
						"contract": "proj/GameSwapDAO.sol:GameSwapDAO",
						"label": "proposalThreshold",
						"offset": 0,
						"slot": "5",
						"type": "t_uint256"
					},
					{
						"astId": 596,
						"contract": "proj/GameSwapDAO.sol:GameSwapDAO",
						"label": "votingPeriod",
						"offset": 0,
						"slot": "6",
						"type": "t_uint256"
					},
					{
						"astId": 598,
						"contract": "proj/GameSwapDAO.sol:GameSwapDAO",
						"label": "timeLock",
						"offset": 0,
						"slot": "7",
						"type": "t_uint256"
					},
					{
						"astId": 632,
						"contract": "proj/GameSwapDAO.sol:GameSwapDAO",
						"label": "proposals",
						"offset": 0,
						"slot": "8",
						"type": "t_mapping(t_uint256,t_struct(Proposal)627_storage)"
					},
					{
						"astId": 636,
						"contract": "proj/GameSwapDAO.sol:GameSwapDAO",
						"label": "lastDistribution",
						"offset": 0,
						"slot": "9",
						"type": "t_mapping(t_address,t_uint256)"
					},
					{
						"astId": 638,
						"contract": "proj/GameSwapDAO.sol:GameSwapDAO",
						"label": "totalDistributed",
						"offset": 0,
						"slot": "10",
						"type": "t_uint256"
					},
					{
						"astId": 642,
						"contract": "proj/GameSwapDAO.sol:GameSwapDAO",
						"label": "pendingRewards",
						"offset": 0,
						"slot": "11",
						"type": "t_mapping(t_address,t_uint256)"
					}
				],
				"types": {
					"t_address": {
						"encoding": "inplace",
						"label": "address",
						"numberOfBytes": "20"
					},
					"t_bool": {
						"encoding": "inplace",
						"label": "bool",
						"numberOfBytes": "1"
					},
					"t_bytes32": {
						"encoding": "inplace",
						"label": "bytes32",
						"numberOfBytes": "32"
					},
					"t_bytes_storage": {
						"encoding": "bytes",
						"label": "bytes",
						"numberOfBytes": "32"
					},
					"t_contract(IGameSwapToken)571": {
						"encoding": "inplace",
						"label": "contract IGameSwapToken",
						"numberOfBytes": "20"
					},
					"t_mapping(t_address,t_bool)": {
						"encoding": "mapping",
						"key": "t_address",
						"label": "mapping(address => bool)",
						"numberOfBytes": "32",
						"value": "t_bool"
					},
					"t_mapping(t_address,t_uint256)": {
						"encoding": "mapping",
						"key": "t_address",
						"label": "mapping(address => uint256)",
						"numberOfBytes": "32",
						"value": "t_uint256"
					},
					"t_mapping(t_bytes32,t_struct(RoleData)21_storage)": {
						"encoding": "mapping",
						"key": "t_bytes32",
						"label": "mapping(bytes32 => struct AccessControl.RoleData)",
						"numberOfBytes": "32",
						"value": "t_struct(RoleData)21_storage"
					},
					"t_mapping(t_uint256,t_struct(Proposal)627_storage)": {
						"encoding": "mapping",
						"key": "t_uint256",
						"label": "mapping(uint256 => struct GameSwapDAO.Proposal)",
						"numberOfBytes": "32",
						"value": "t_struct(Proposal)627_storage"
					},
					"t_string_storage": {
						"encoding": "bytes",
						"label": "string",
						"numberOfBytes": "32"
					},
					"t_struct(Proposal)627_storage": {
						"encoding": "inplace",
						"label": "struct GameSwapDAO.Proposal",
						"members": [
							{
								"astId": 600,
								"contract": "proj/GameSwapDAO.sol:GameSwapDAO",
								"label": "id",
								"offset": 0,
								"slot": "0",
								"type": "t_uint256"
							},
							{
								"astId": 602,
								"contract": "proj/GameSwapDAO.sol:GameSwapDAO",
								"label": "proposer",
								"offset": 0,
								"slot": "1",
								"type": "t_address"
							},
							{
								"astId": 604,
								"contract": "proj/GameSwapDAO.sol:GameSwapDAO",
								"label": "description",
								"offset": 0,
								"slot": "2",
								"type": "t_string_storage"
							},
							{
								"astId": 606,
								"contract": "proj/GameSwapDAO.sol:GameSwapDAO",
								"label": "startBlock",
								"offset": 0,
								"slot": "3",
								"type": "t_uint256"
							},
							{
								"astId": 608,
								"contract": "proj/GameSwapDAO.sol:GameSwapDAO",
								"label": "endBlock",
								"offset": 0,
								"slot": "4",
								"type": "t_uint256"
							},
							{
								"astId": 610,
								"contract": "proj/GameSwapDAO.sol:GameSwapDAO",
								"label": "forVotes",
								"offset": 0,
								"slot": "5",
								"type": "t_uint256"
							},
							{
								"astId": 612,
								"contract": "proj/GameSwapDAO.sol:GameSwapDAO",
								"label": "againstVotes",
								"offset": 0,
								"slot": "6",
								"type": "t_uint256"
							},
							{
								"astId": 614,
								"contract": "proj/GameSwapDAO.sol:GameSwapDAO",
								"label": "executed",
								"offset": 0,
								"slot": "7",
								"type": "t_bool"
							},
							{
								"astId": 616,
								"contract": "proj/GameSwapDAO.sol:GameSwapDAO",
								"label": "executionTimestamp",
								"offset": 0,
								"slot": "8",
								"type": "t_uint256"
							},
							{
								"astId": 618,
								"contract": "proj/GameSwapDAO.sol:GameSwapDAO",
								"label": "callData",
								"offset": 0,
								"slot": "9",
								"type": "t_bytes_storage"
							},
							{
								"astId": 620,
								"contract": "proj/GameSwapDAO.sol:GameSwapDAO",
								"label": "target",
								"offset": 0,
								"slot": "10",
								"type": "t_address"
							},
							{
								"astId": 624,
								"contract": "proj/GameSwapDAO.sol:GameSwapDAO",
								"label": "hasVoted",
								"offset": 0,
								"slot": "11",
								"type": "t_mapping(t_address,t_bool)"
							},
							{
								"astId": 626,
								"contract": "proj/GameSwapDAO.sol:GameSwapDAO",
								"label": "canceled",
								"offset": 0,
								"slot": "12",
								"type": "t_bool"
							}
						],
						"numberOfBytes": "416"
					},
					"t_struct(RoleData)21_storage": {
						"encoding": "inplace",
						"label": "struct AccessControl.RoleData",
						"members": [
							{
								"astId": 18,
								"contract": "proj/GameSwapDAO.sol:GameSwapDAO",
								"label": "hasRole",
								"offset": 0,
								"slot": "0",
								"type": "t_mapping(t_address,t_bool)"
							},
							{
								"astId": 20,
								"contract": "proj/GameSwapDAO.sol:GameSwapDAO",
								"label": "adminRole",
								"offset": 0,
								"slot": "1",
								"type": "t_bytes32"
							}
						],
						"numberOfBytes": "64"
					},
					"t_uint256": {
						"encoding": "inplace",
						"label": "uint256",
						"numberOfBytes": "32"
					}
				}
			},
			"userdoc": {
				"kind": "user",
				"methods": {},
				"version": 1
			}
		}
	}
}