{
	"data": {
		"bytecode": {
			"linkReferences": {},
			"object": "60806040526005805560056006553480156017575f80fd5b503360015f6101000a81548173ffffffffffffffffffffffffffffffffffffffff021916908373ffffffffffffffffffffffffffffffffffffffff16021790555042600b819055506133e88061006c5f395ff3fe6080604052600436106101f1575f3560e01c8063a31831251161010c578063c84aae171161009f578063e1ec3c681161006e578063e1ec3c68146106ca578063e4b2fb791461070c578063e59c20d014610748578063eeb97d3b14610784578063fc7e286d146107c0576101f8565b8063c84aae171461061c578063cbb3d8081461065a578063d0e30db014610684578063d8bad5bd1461068e576101f8565b8063b1197239116100db578063b119723914610570578063b3f54444146105ac578063bb57ad20146105e8578063c0789dcb146105f2576101f8565b8063a3183125146104e6578063a6afed9514610502578063ab7b1c8914610518578063abb7bc4a14610534576101f8565b8063560c88ed116101845780638da5cb5b116101535780638da5cb5b1461041a57806395ddbe891461044457806396f159ba1461046e5780639b56d6c9146104aa576101f8565b8063560c88ed146103725780636f9fb98a1461039c5780637c3a00fd146103c65780638393ea5f146103f0576101f8565b806334d9289e116101c057806334d9289e146102a657806334f93778146102d0578063477348921461030c5780634ba5e2ce14610348576101f8565b806315770f92146101fc5780632e1a7d4d146102265780632f70d1ba146102425780632f8655681461027e576101f8565b366101f857005b5f80fd5b348015610207575f80fd5b506102106107fc565b60405161021d91906123e2565b60405180910390f35b610240600480360381019061023b9190612429565b610802565b005b34801561024d575f80fd5b50610268600480360381019061026391906124ae565b610bbb565b60405161027591906124f3565b60405180910390f35b348015610289575f80fd5b506102a4600480360381019061029f91906124ae565b610c5b565b005b3480156102b1575f80fd5b506102ba610fe6565b6040516102c791906123e2565b60405180910390f35b3480156102db575f80fd5b506102f660048036038101906102f191906124ae565b610fec565b60405161030391906123e2565b60405180910390f35b348015610317575f80fd5b50610332600480360381019061032d91906124ae565b61100a565b60405161033f91906123e2565b60405180910390f35b348015610353575f80fd5b5061035c611098565b60405161036991906123e2565b60405180910390f35b34801561037d575f80fd5b5061038661109d565b60405161039391906123e2565b60405180910390f35b3480156103a7575f80fd5b506103b061114d565b6040516103bd91906123e2565b60405180910390f35b3480156103d1575f80fd5b506103da611154565b6040516103e791906123e2565b60405180910390f35b3480156103fb575f80fd5b5061040461115a565b60405161041191906123e2565b60405180910390f35b348015610425575f80fd5b5061042e611160565b60405161043b919061251b565b60405180910390f35b34801561044f575f80fd5b50610458611185565b60405161046591906123e2565b60405180910390f35b348015610479575f80fd5b50610494600480360381019061048f91906124ae565b61118e565b6040516104a191906123e2565b60405180910390f35b3480156104b5575f80fd5b506104d060048036038101906104cb91906124ae565b6111a3565b6040516104dd91906123e2565b60405180910390f35b61050060048036038101906104fb9190612534565b6111e8565b005b34801561050d575f80fd5b506105166115e8565b005b610532600480360381019061052d9190612429565b6116f6565b005b34801561053f575f80fd5b5061055a60048036038101906105559190612429565b611b19565b60405161056791906123e2565b60405180910390f35b34801561057b575f80fd5b5061059660048036038101906105919190612429565b611b7c565b6040516105a391906123e2565b60405180910390f35b3480156105b7575f80fd5b506105d260048036038101906105cd91906124ae565b611ca0565b6040516105df91906123e2565b60405180910390f35b6105f0611d12565b005b3480156105fd575f80fd5b50610606611f79565b60405161061391906123e2565b60405180910390f35b348015610627575f80fd5b50610642600480360381019061063d91906124ae565b611f7f565b60405161065193929190612572565b60405180910390f35b348015610665575f80fd5b5061066e612048565b60405161067b91906123e2565b60405180910390f35b61068c61204e565b005b348015610699575f80fd5b506106b460048036038101906106af91906125a7565b6121ab565b6040516106c191906123e2565b60405180910390f35b3480156106d5575f80fd5b506106f060048036038101906106eb9190612429565b6121d6565b60405161070397969594939291906125e5565b60405180910390f35b348015610717575f80fd5b50610732600480360381019061072d9190612429565b61224c565b60405161073f919061251b565b60405180910390f35b348015610753575f80fd5b5061076e60048036038101906107699190612429565b612287565b60405161077b91906123e2565b60405180910390f35b34801561078f575f80fd5b506107aa60048036038101906107a591906124ae565b6122fb565b6040516107b791906123e2565b60405180910390f35b3480156107cb575f80fd5b506107e660048036038101906107e191906124ae565b61230f565b6040516107f391906123e2565b60405180910390f35b60045481565b61080b33610bbb565b61084a576040517f08c379a0000000000000000000000000000000000000000000000000000000008152600401610841906126ac565b60405180910390fd5b60025f3373ffffffffffffffffffffffffffffffffffffffff1673ffffffffffffffffffffffffffffffffffffffff1681526020019081526020015f20548111156108ca576040517f08c379a00000000000000000000000000000000000000000000000000000000081526004016108c19061273a565b60405180910390fd5b60045481111561090f576040517f08c379a0000000000000000000000000000000000000000000000000000000008152600401610906906127a2565b60405180910390fd5b8060025f3373ffffffffffffffffffffffffffffffffffffffff1673ffffffffffffffffffffffffffffffffffffffff1681526020019081526020015f205f82825461095b91906127ed565b925050819055508060045f82825461097391906127ed565b925050819055505f3373ffffffffffffffffffffffffffffffffffffffff168260405161099f9061284d565b5f6040518083038185875af1925050503d805f81146109d9576040519150601f19603f3d011682016040523d82523d5f602084013e6109de565b606091505b5050905080610a22576040517f08c379a0000000000000000000000000000000000000000000000000000000008152600401610a19906128ab565b60405180910390fd5b5f60025f3373ffffffffffffffffffffffffffffffffffffffff1673ffffffffffffffffffffffffffffffffffffffff1681526020019081526020015f205403610b69575f80610a7133612324565b915091508115610b6657600a6001600a80549050610a8f91906127ed565b81548110610aa057610a9f6128c9565b5b905f5260205f20015f9054906101000a900473ffffffffffffffffffffffffffffffffffffffff16600a8281548110610adc57610adb6128c9565b5b905f5260205f20015f6101000a81548173ffffffffffffffffffffffffffffffffffffffff021916908373ffffffffffffffffffffffffffffffffffffffff160217905550600a805480610b3357610b326128f6565b5b600190038181905f5260205f20015f6101000a81549073ffffffffffffffffffffffffffffffffffffffff021916905590555b50505b3373ffffffffffffffffffffffffffffffffffffffff167f7fcf532c15f0a6db0bd6d0e038bea71d30d808c7d98cb3bf7268a95bf5081b6583604051610baf91906123e2565b60405180910390a25050565b5f805f90505b600a80549050811015610c51578273ffffffffffffffffffffffffffffffffffffffff16600a8281548110610bf957610bf86128c9565b5b905f5260205f20015f9054906101000a900473ffffffffffffffffffffffffffffffffffffffff1673ffffffffffffffffffffffffffffffffffffffff1603610c46576001915050610c56565b806001019050610bc1565b505f90505b919050565b60015f9054906101000a900473ffffffffffffffffffffffffffffffffffffffff1673ffffffffffffffffffffffffffffffffffffffff163373ffffffffffffffffffffffffffffffffffffffff1614610cea576040517f08c379a0000000000000000000000000000000000000000000000000000000008152600401610ce190612993565b60405180910390fd5b5f60035f8373ffffffffffffffffffffffffffffffffffffffff1673ffffffffffffffffffffffffffffffffffffffff1681526020019081526020015f205411610d69576040517f08c379a0000000000000000000000000000000000000000000000000000000008152600401610d6090612a21565b60405180910390fd5b5f60035f8373ffffffffffffffffffffffffffffffffffffffff1673ffffffffffffffffffffffffffffffffffffffff1681526020019081526020015f205490505f805f8473ffffffffffffffffffffffffffffffffffffffff1673ffffffffffffffffffffffffffffffffffffffff1681526020019081526020015f205490505f8111610e2c576040517f08c379a0000000000000000000000000000000000000000000000000000000008152600401610e2390612a89565b60405180910390fd5b5f60035f8573ffffffffffffffffffffffffffffffffffffffff1673ffffffffffffffffffffffffffffffffffffffff1681526020019081526020015f20819055505f805f8573ffffffffffffffffffffffffffffffffffffffff1673ffffffffffffffffffffffffffffffffffffffff1681526020019081526020015f20819055505f60015f9054906101000a900473ffffffffffffffffffffffffffffffffffffffff1673ffffffffffffffffffffffffffffffffffffffff1682604051610ef59061284d565b5f6040518083038185875af1925050503d805f8114610f2f576040519150601f19603f3d011682016040523d82523d5f602084013e610f34565b606091505b5050905080610f78576040517f08c379a0000000000000000000000000000000000000000000000000000000008152600401610f6f90612b17565b60405180910390fd5b8260045f828254610f899190612b35565b925050819055508373ffffffffffffffffffffffffffffffffffffffff167f3c4b1d42b9c7fa283f6fe657533f6a5a8a7ad1d36f9ef1d9d89ad04485e10d2c8385604051610fd8929190612b68565b60405180910390a250505050565b60075481565b5f610ff682611ca0565b600c546110039190612b8f565b9050919050565b5f61101482610bbb565b611053576040517f08c379a000000000000000000000000000000000000000000000000000000000815260040161104a90612c1a565b60405180910390fd5b60025f8373ffffffffffffffffffffffffffffffffffffffff1673ffffffffffffffffffffffffffffffffffffffff1681526020019081526020015f20549050919050565b600181565b5f805f90505f600190505b60075481116111385760085f8281526020019081526020015f2060050160019054906101000a900460ff1680156110fd575060085f8281526020019081526020015f206005015f9054906101000a900460ff16155b156111255760085f8281526020019081526020015f2060010154826111229190612b35565b91505b808061113090612c38565b9150506110a8565b50806004546111479190612b35565b91505090565b5f47905090565b60055481565b600c5481565b60015f9054906101000a900473ffffffffffffffffffffffffffffffffffffffff1681565b5f600454905090565b6003602052805f5260405f205f915090505481565b5f805f8373ffffffffffffffffffffffffffffffffffffffff1673ffffffffffffffffffffffffffffffffffffffff1681526020019081526020015f20549050919050565b5f821161122a576040517f08c379a000000000000000000000000000000000000000000000000000000000815260040161122190612cef565b60405180910390fd5b60045482111561126f576040517f08c379a0000000000000000000000000000000000000000000000000000000008152600401611266906127a2565b60405180910390fd5b606460968361127e9190612b8f565b6112889190612d3a565b3410156112ca576040517f08c379a00000000000000000000000000000000000000000000000000000000081526004016112c190612dda565b60405180910390fd5b5f6112d483612287565b90505f62015180836112e69190612b8f565b426112f19190612b35565b905060075f81548092919061130590612c38565b91905055506040518060e001604052803373ffffffffffffffffffffffffffffffffffffffff16815260200185815260200160065481526020018381526020018281526020015f151581526020016001151581525060085f60075481526020019081526020015f205f820151815f015f6101000a81548173ffffffffffffffffffffffffffffffffffffffff021916908373ffffffffffffffffffffffffffffffffffffffff1602179055506020820151816001015560408201518160020155606082015181600301556080820151816004015560a0820151816005015f6101000a81548160ff02191690831515021790555060c08201518160050160016101000a81548160ff02191690831515021790555090505060095f3373ffffffffffffffffffffffffffffffffffffffff1673ffffffffffffffffffffffffffffffffffffffff1681526020019081526020015f20600754908060018154018082558091505060019003905f5260205f20015f9091909190915055345f803373ffffffffffffffffffffffffffffffffffffffff1673ffffffffffffffffffffffffffffffffffffffff1681526020019081526020015f205f8282546114c99190612b35565b925050819055508360045f8282546114e191906127ed565b925050819055505f3373ffffffffffffffffffffffffffffffffffffffff168560405161150d9061284d565b5f6040518083038185875af1925050503d805f8114611547576040519150601f19603f3d011682016040523d82523d5f602084013e61154c565b606091505b5050905080611590576040517f08c379a000000000000000000000000000000000000000000000000000000000815260040161158790612e42565b60405180910390fd5b3373ffffffffffffffffffffffffffffffffffffffff167e6b9bb4766cf5ab74b890df959e4fad0e54b1c3885e49c9541d36253a6e39e6600754876040516115d9929190612b68565b60405180910390a25050505050565b5f6004541161162c576040517f08c379a000000000000000000000000000000000000000000000000000000000815260040161162390612ed0565b60405180910390fd5b5f600b544261163b91906127ed565b90506301e13380811161164e57506116f4565b5f6301e1338090505f8160646116649190612b8f565b836006546004546116759190612b8f565b61167f9190612b8f565b6116899190612d3a565b90505f8111156116f05780600c5f8282546116a49190612b35565b9250508190555042600b819055507fe9d95e658b0c714da9de2e12fbed253a24a632058a074dc7c90b8b6618675c7c81600454426040516116e793929190612572565b60405180910390a15b5050505b565b5f60085f8381526020019081526020015f2090503373ffffffffffffffffffffffffffffffffffffffff16815f015f9054906101000a900473ffffffffffffffffffffffffffffffffffffffff1673ffffffffffffffffffffffffffffffffffffffff161461179a576040517f08c379a000000000000000000000000000000000000000000000000000000000815260040161179190612f38565b60405180910390fd5b8060050160019054906101000a900460ff166117eb576040517f08c379a00000000000000000000000000000000000000000000000000000000081526004016117e290612fa0565b60405180910390fd5b806005015f9054906101000a900460ff161561183c576040517f08c379a000000000000000000000000000000000000000000000000000000000815260040161183390613008565b60405180910390fd5b8060030154341015611883576040517f08c379a000000000000000000000000000000000000000000000000000000000815260040161187a90613070565b60405180910390fd5b5f6064600183600301546118979190612b8f565b6118a19190612d3a565b90505f8183600301546118b491906127ed565b905081600c5f8282546118c79190612b35565b925050819055506001836005015f6101000a81548160ff0219169083151502179055505f8360050160016101000a81548160ff0219169083151502179055505f805f3373ffffffffffffffffffffffffffffffffffffffff1673ffffffffffffffffffffffffffffffffffffffff1681526020019081526020015f205490505f8111611988576040517f08c379a000000000000000000000000000000000000000000000000000000000815260040161197f906130d8565b60405180910390fd5b5f805f3373ffffffffffffffffffffffffffffffffffffffff1673ffffffffffffffffffffffffffffffffffffffff1681526020019081526020015f20819055508160045f8282546119da9190612b35565b925050819055506001846005015f6101000a81548160ff0219169083151502179055505f8460050160016101000a81548160ff0219169083151502179055505f3373ffffffffffffffffffffffffffffffffffffffff1682604051611a3e9061284d565b5f6040518083038185875af1925050503d805f8114611a78576040519150601f19603f3d011682016040523d82523d5f602084013e611a7d565b606091505b5050905080611ac1576040517f08c379a0000000000000000000000000000000000000000000000000000000008152600401611ab890613140565b60405180910390fd5b3373ffffffffffffffffffffffffffffffffffffffff167fc7ce0a35f17b490de2a317e7fecb2cae86b1abffb03800b2f4928235213826988734604051611b09929190612b68565b60405180910390a2505050505050565b5f808211611b5c576040517f08c379a0000000000000000000000000000000000000000000000000000000008152600401611b53906131a8565b60405180910390fd5b6064609683611b6b9190612b8f565b611b759190612d3a565b9050919050565b5f8060085f8481526020019081526020015f206040518060e00160405290815f82015f9054906101000a900473ffffffffffffffffffffffffffffffffffffffff1673ffffffffffffffffffffffffffffffffffffffff1673ffffffffffffffffffffffffffffffffffffffff16815260200160018201548152602001600282015481526020016003820154815260200160048201548152602001600582015f9054906101000a900460ff161515151581526020016005820160019054906101000a900460ff16151515158152505090505f816020015111611c93576040517f08c379a0000000000000000000000000000000000000000000000000000000008152600401611c8a90613236565b60405180910390fd5b8060600151915050919050565b5f8060045403611cb2575f9050611d0d565b600454600c5460025f8573ffffffffffffffffffffffffffffffffffffffff1673ffffffffffffffffffffffffffffffffffffffff1681526020019081526020015f2054611d009190612b8f565b611d0a9190612d3a565b90505b919050565b60015f9054906101000a900473ffffffffffffffffffffffffffffffffffffffff1673ffffffffffffffffffffffffffffffffffffffff163373ffffffffffffffffffffffffffffffffffffffff1614611da1576040517f08c379a0000000000000000000000000000000000000000000000000000000008152600401611d9890612993565b60405180910390fd5b5f600c5411611de5576040517f08c379a0000000000000000000000000000000000000000000000000000000008152600401611ddc9061329e565b60405180910390fd5b5f805b600a80549050811015611f5d575f600a8281548110611e0a57611e096128c9565b5b905f5260205f20015f9054906101000a900473ffffffffffffffffffffffffffffffffffffffff1690505f611e3e82611ca0565b90505f811115611f4e578084611e549190612b35565b93505f8273ffffffffffffffffffffffffffffffffffffffff1682604051611e7b9061284d565b5f6040518083038185875af1925050503d805f8114611eb5576040519150601f19603f3d011682016040523d82523d5f602084013e611eba565b606091505b5050905080611efe576040517f08c379a0000000000000000000000000000000000000000000000000000000008152600401611ef590613306565b60405180910390fd5b8273ffffffffffffffffffffffffffffffffffffffff167f6c461460f28af1386f23dc4c0c7f4e2e54f0db320a8edc08803e4b787f6db32583604051611f4491906123e2565b60405180910390a2505b50508080600101915050611de8565b5080600c5f828254611f6f91906127ed565b9250508190555050565b600b5481565b5f805f60025f8573ffffffffffffffffffffffffffffffffffffffff1673ffffffffffffffffffffffffffffffffffffffff1681526020019081526020015f205460035f8673ffffffffffffffffffffffffffffffffffffffff1673ffffffffffffffffffffffffffffffffffffffff1681526020019081526020015f20545f808773ffffffffffffffffffffffffffffffffffffffff1673ffffffffffffffffffffffffffffffffffffffff1681526020019081526020015f20549250925092509193909250565b60065481565b5f3411612090576040517f08c379a000000000000000000000000000000000000000000000000000000000815260040161208790613394565b60405180910390fd5b3460025f3373ffffffffffffffffffffffffffffffffffffffff1673ffffffffffffffffffffffffffffffffffffffff1681526020019081526020015f205f8282546120dc9190612b35565b925050819055503460045f8282546120f49190612b35565b925050819055503373ffffffffffffffffffffffffffffffffffffffff167fe1fffcc4923d04b559f4d29a8bfc6cda04eb5b0d3c460751c2402c5c5cc9109c3460405161214191906123e2565b60405180910390a2600a33908060018154018082558091505060019003905f5260205f20015f9091909190916101000a81548173ffffffffffffffffffffffffffffffffffffffff021916908373ffffffffffffffffffffffffffffffffffffffff160217905550565b6009602052815f5260405f2081815481106121c4575f80fd5b905f5260205f20015f91509150505481565b6008602052805f5260405f205f91509050805f015f9054906101000a900473ffffffffffffffffffffffffffffffffffffffff1690806001015490806002015490806003015490806004015490806005015f9054906101000a900460ff16908060050160019054906101000a900460ff16905087565b600a818154811061225b575f80fd5b905f5260205f20015f915054906101000a900473ffffffffffffffffffffffffffffffffffffffff1681565b5f8082116122ca576040517f08c379a00000000000000000000000000000000000000000000000000000000081526004016122c1906131a8565b60405180910390fd5b5f6064600654846122db9190612b8f565b6122e59190612d3a565b905080836122f39190612b35565b915050919050565b5f602052805f5260405f205f915090505481565b6002602052805f5260405f205f915090505481565b5f805f5b600a805490508110156123bd578373ffffffffffffffffffffffffffffffffffffffff16600a82815481106123605761235f6128c9565b5b905f5260205f20015f9054906101000a900473ffffffffffffffffffffffffffffffffffffffff1673ffffffffffffffffffffffffffffffffffffffff16036123b05760018192509250506123c5565b8080600101915050612328565b505f80915091505b915091565b5f819050919050565b6123dc816123ca565b82525050565b5f6020820190506123f55f8301846123d3565b92915050565b5f80fd5b612408816123ca565b8114612412575f80fd5b50565b5f81359050612423816123ff565b92915050565b5f6020828403121561243e5761243d6123fb565b5b5f61244b84828501612415565b91505092915050565b5f73ffffffffffffffffffffffffffffffffffffffff82169050919050565b5f61247d82612454565b9050919050565b61248d81612473565b8114612497575f80fd5b50565b5f813590506124a881612484565b92915050565b5f602082840312156124c3576124c26123fb565b5b5f6124d08482850161249a565b91505092915050565b5f8115159050919050565b6124ed816124d9565b82525050565b5f6020820190506125065f8301846124e4565b92915050565b61251581612473565b82525050565b5f60208201905061252e5f83018461250c565b92915050565b5f806040838503121561254a576125496123fb565b5b5f61255785828601612415565b925050602061256885828601612415565b9150509250929050565b5f6060820190506125855f8301866123d3565b61259260208301856123d3565b61259f60408301846123d3565b949350505050565b5f80604083850312156125bd576125bc6123fb565b5b5f6125ca8582860161249a565b92505060206125db85828601612415565b9150509250929050565b5f60e0820190506125f85f83018a61250c565b61260560208301896123d3565b61261260408301886123d3565b61261f60608301876123d3565b61262c60808301866123d3565b61263960a08301856124e4565b61264660c08301846124e4565b98975050505050505050565b5f82825260208201905092915050565b7f596f7520617265206e6f742061206465706f7369746f722e00000000000000005f82015250565b5f612696601883612652565b91506126a182612662565b602082019050919050565b5f6020820190508181035f8301526126c38161268a565b9050919050565b7f596f7520646f6e277420686176652074686973206d75636820616d6f756e74205f8201527f6f66206465706f73697420746f20776974686472617700000000000000000000602082015250565b5f612724603683612652565b915061272f826126ca565b604082019050919050565b5f6020820190508181035f83015261275181612718565b9050919050565b7f4e6f7420656e6f756768206c697175696469747920696e20706f6f6c000000005f82015250565b5f61278c601c83612652565b915061279782612758565b602082019050919050565b5f6020820190508181035f8301526127b981612780565b9050919050565b7f4e487b71000000000000000000000000000000000000000000000000000000005f52601160045260245ffd5b5f6127f7826123ca565b9150612802836123ca565b925082820390508181111561281a576128196127c0565b5b92915050565b5f81905092915050565b50565b5f6128385f83612820565b91506128438261282a565b5f82019050919050565b5f6128578261282d565b9150819050919050565b7f5769746864726177616c207472616e73666572206661696c65640000000000005f82015250565b5f612895601a83612652565b91506128a082612861565b602082019050919050565b5f6020820190508181035f8301526128c281612889565b9050919050565b7f4e487b71000000000000000000000000000000000000000000000000000000005f52603260045260245ffd5b7f4e487b71000000000000000000000000000000000000000000000000000000005f52603160045260245ffd5b7f4f6e6c7920746865206f776e65722063616e20706572666f726d2074686973205f8201527f616374696f6e0000000000000000000000000000000000000000000000000000602082015250565b5f61297d602683612652565b915061298882612923565b604082019050919050565b5f6020820190508181035f8301526129aa81612971565b9050919050565b7f4e6f20616374697665206c6f616e7320666f72207468697320626f72726f77655f8201527f7200000000000000000000000000000000000000000000000000000000000000602082015250565b5f612a0b602183612652565b9150612a16826129b1565b604082019050919050565b5f6020820190508181035f830152612a38816129ff565b9050919050565b7f4e6f20636f6c6c61746572616c20746f207365697a65000000000000000000005f82015250565b5f612a73601683612652565b9150612a7e82612a3f565b602082019050919050565b5f6020820190508181035f830152612aa081612a67565b9050919050565b7f4661696c656420746f207472616e7366657220636f6c6c61746572616c20746f5f8201527f206f776e65720000000000000000000000000000000000000000000000000000602082015250565b5f612b01602683612652565b9150612b0c82612aa7565b604082019050919050565b5f6020820190508181035f830152612b2e81612af5565b9050919050565b5f612b3f826123ca565b9150612b4a836123ca565b9250828201905080821115612b6257612b616127c0565b5b92915050565b5f604082019050612b7b5f8301856123d3565b612b8860208301846123d3565b9392505050565b5f612b99826123ca565b9150612ba4836123ca565b9250828202612bb2816123ca565b91508282048414831517612bc957612bc86127c0565b5b5092915050565b7f4e6f742061206465706f7369746f722e000000000000000000000000000000005f82015250565b5f612c04601083612652565b9150612c0f82612bd0565b602082019050919050565b5f6020820190508181035f830152612c3181612bf8565b9050919050565b5f612c42826123ca565b91507fffffffffffffffffffffffffffffffffffffffffffffffffffffffffffffffff8203612c7457612c736127c0565b5b600182019050919050565b7f4c6f616e20616d6f756e74206d7573742062652067726561746572207468616e5f8201527f2030000000000000000000000000000000000000000000000000000000000000602082015250565b5f612cd9602283612652565b9150612ce482612c7f565b604082019050919050565b5f6020820190508181035f830152612d0681612ccd565b9050919050565b7f4e487b71000000000000000000000000000000000000000000000000000000005f52601260045260245ffd5b5f612d44826123ca565b9150612d4f836123ca565b925082612d5f57612d5e612d0d565b5b828204905092915050565b7f436f6c6c61746572616c206d7573742062652031353025206f66206c6f616e205f8201527f616d6f756e740000000000000000000000000000000000000000000000000000602082015250565b5f612dc4602683612652565b9150612dcf82612d6a565b604082019050919050565b5f6020820190508181035f830152612df181612db8565b9050919050565b7f4c6f616e207472616e73666572206661696c65640000000000000000000000005f82015250565b5f612e2c601483612652565b9150612e3782612df8565b602082019050919050565b5f6020820190508181035f830152612e5981612e20565b9050919050565b7f4e6f206c697175696469747920746f2061636372756520696e746572657374205f8201527f6f6e000000000000000000000000000000000000000000000000000000000000602082015250565b5f612eba602283612652565b9150612ec582612e60565b604082019050919050565b5f6020820190508181035f830152612ee781612eae565b9050919050565b7f4e6f7420796f7572206c6f616e000000000000000000000000000000000000005f82015250565b5f612f22600d83612652565b9150612f2d82612eee565b602082019050919050565b5f6020820190508181035f830152612f4f81612f16565b9050919050565b7f4c6f616e206973206e6f742061637469766500000000000000000000000000005f82015250565b5f612f8a601283612652565b9150612f9582612f56565b602082019050919050565b5f6020820190508181035f830152612fb781612f7e565b9050919050565b7f4c6f616e20616c726561647920726570616964000000000000000000000000005f82015250565b5f612ff2601383612652565b9150612ffd82612fbe565b602082019050919050565b5f6020820190508181035f83015261301f81612fe6565b9050919050565b7f496e73756666696369656e742072657061796d656e7420616d6f756e740000005f82015250565b5f61305a601d83612652565b915061306582613026565b602082019050919050565b5f6020820190508181035f8301526130878161304e565b9050919050565b7f4e6f20636f6c6c61746572616c20746f2072657475726e0000000000000000005f82015250565b5f6130c2601783612652565b91506130cd8261308e565b602082019050919050565b5f6020820190508181035f8301526130ef816130b6565b9050919050565b7f4661696c656420746f2072657475726e20636f6c6c61746572616c00000000005f82015250565b5f61312a601b83612652565b9150613135826130f6565b602082019050919050565b5f6020820190508181035f8301526131578161311e565b9050919050565b7f4c6f616e20616d6f756e74206d757374206265203e20300000000000000000005f82015250565b5f613192601783612652565b915061319d8261315e565b602082019050919050565b5f6020820190508181035f8301526131bf81613186565b9050919050565b7f4c6f616e20646f6573206e6f74206578697374206f7220686173206e6f20616d5f8201527f6f756e7400000000000000000000000000000000000000000000000000000000602082015250565b5f613220602483612652565b915061322b826131c6565b604082019050919050565b5f6020820190508181035f83015261324d81613214565b9050919050565b7f4e6f206665657320746f206469737472696275746500000000000000000000005f82015250565b5f613288601583612652565b915061329382613254565b602082019050919050565b5f6020820190508181035f8301526132b58161327c565b9050919050565b7f46656520646973747269627574696f6e206661696c65640000000000000000005f82015250565b5f6132f0601783612652565b91506132fb826132bc565b602082019050919050565b5f6020820190508181035f83015261331d816132e4565b9050919050565b7f4465706f73697420616d6f756e74206d757374206265206772656174657220745f8201527f68616e2030000000000000000000000000000000000000000000000000000000602082015250565b5f61337e602583612652565b915061338982613324565b604082019050919050565b5f6020820190508181035f8301526133ab81613372565b905091905056fea2646970667358221220f975f328fe62d5c14ee1c3826d85a537d33e4b08eb357d94c65c8efcc978b1ed64736f6c634300081a0033",
			"opcodes": "PUSH1 0x80 PUSH1 0x40 MSTORE PUSH1 0x5 DUP1 SSTORE PUSH1 0x5 PUSH1 0x6 SSTORE CALLVALUE DUP1 ISZERO PUSH1 0x17 JUMPI PUSH0 DUP1 REVERT JUMPDEST POP CALLER PUSH1 0x1 PUSH0 PUSH2 0x100 EXP DUP2 SLOAD DUP2 PUSH20 0xFFFFFFFFFFFFFFFFFFFFFFFFFFFFFFFFFFFFFFFF MUL NOT AND SWAP1 DUP4 PUSH20 0xFFFFFFFFFFFFFFFFFFFFFFFFFFFFFFFFFFFFFFFF AND MUL OR SWAP1 SSTORE POP TIMESTAMP PUSH1 0xB DUP2 SWAP1 SSTORE POP PUSH2 0x33E8 DUP1 PUSH2 0x6C PUSH0 CODECOPY PUSH0 RETURN INVALID PUSH1 0x80 PUSH1 0x40 MSTORE PUSH1 0x4 CALLDATASIZE LT PUSH2 0x1F1 JUMPI PUSH0 CALLDATALOAD PUSH1 0xE0 SHR DUP1 PUSH4 0xA3183125 GT PUSH2 0x10C JUMPI DUP1 PUSH4 0xC84AAE17 GT PUSH2 0x9F JUMPI DUP1 PUSH4 0xE1EC3C68 GT PUSH2 0x6E JUMPI DUP1 PUSH4 0xE1EC3C68 EQ PUSH2 0x6CA JUMPI DUP1 PUSH4 0xE4B2FB79 EQ PUSH2 0x70C JUMPI DUP1 PUSH4 0xE59C20D0 EQ PUSH2 0x748 JUMPI DUP1 PUSH4 0xEEB97D3B EQ PUSH2 0x784 JUMPI DUP1 PUSH4 0xFC7E286D EQ PUSH2 0x7C0 JUMPI PUSH2 0x1F8 JUMP JUMPDEST DUP1 PUSH4 0xC84AAE17 EQ PUSH2 0x61C JUMPI DUP1 PUSH4 0xCBB3D808 EQ PUSH2 0x65A JUMPI DUP1 PUSH4 0xD0E30DB0 EQ PUSH2 0x684 JUMPI DUP1 PUSH4 0xD8BAD5BD EQ PUSH2 0x68E JUMPI PUSH2 0x1F8 JUMP JUMPDEST DUP1 PUSH4 0xB1197239 GT PUSH2 0xDB JUMPI DUP1 PUSH4 0xB1197239 EQ PUSH2 0x570 JUMPI DUP1 PUSH4 0xB3F54444 EQ PUSH2 0x5AC JUMPI DUP1 PUSH4 0xBB57AD20 EQ PUSH2 0x5E8 JUMPI DUP1 PUSH4 0xC0789DCB EQ PUSH2 0x5F2 JUMPI PUSH2 0x1F8 JUMP JUMPDEST DUP1 PUSH4 0xA3183125 EQ PUSH2 0x4E6 JUMPI DUP1 PUSH4 0xA6AFED95 EQ PUSH2 0x502 JUMPI DUP1 PUSH4 0xAB7B1C89 EQ PUSH2 0x518 JUMPI DUP1 PUSH4 0xABB7BC4A EQ PUSH2 0x534 JUMPI PUSH2 0x1F8 JUMP JUMPDEST DUP1 PUSH4 0x560C88ED GT PUSH2 0x184 JUMPI DUP1 PUSH4 0x8DA5CB5B GT PUSH2 0x153 JUMPI DUP1 PUSH4 0x8DA5CB5B EQ PUSH2 0x41A JUMPI DUP1 PUSH4 0x95DDBE89 EQ PUSH2 0x444 JUMPI DUP1 PUSH4 0x96F159BA EQ PUSH2 0x46E JUMPI DUP1 PUSH4 0x9B56D6C9 EQ PUSH2 0x4AA JUMPI PUSH2 0x1F8 JUMP JUMPDEST DUP1 PUSH4 0x560C88ED EQ PUSH2 0x372 JUMPI DUP1 PUSH4 0x6F9FB98A EQ PUSH2 0x39C JUMPI DUP1 PUSH4 0x7C3A00FD EQ PUSH2 0x3C6 JUMPI DUP1 PUSH4 0x8393EA5F EQ PUSH2 0x3F0 JUMPI PUSH2 0x1F8 JUMP JUMPDEST DUP1 PUSH4 0x34D9289E GT PUSH2 0x1C0 JUMPI DUP1 PUSH4 0x34D9289E EQ PUSH2 0x2A6 JUMPI DUP1 PUSH4 0x34F93778 EQ PUSH2 0x2D0 JUMPI DUP1 PUSH4 0x47734892 EQ PUSH2 0x30C JUMPI DUP1 PUSH4 0x4BA5E2CE EQ PUSH2 0x348 JUMPI PUSH2 0x1F8 JUMP JUMPDEST DUP1 PUSH4 0x15770F92 EQ PUSH2 0x1FC JUMPI DUP1 PUSH4 0x2E1A7D4D EQ PUSH2 0x226 JUMPI DUP1 PUSH4 0x2F70D1BA EQ PUSH2 0x242 JUMPI DUP1 PUSH4 0x2F865568 EQ PUSH2 0x27E JUMPI PUSH2 0x1F8 JUMP JUMPDEST CALLDATASIZE PUSH2 0x1F8 JUMPI STOP JUMPDEST PUSH0 DUP1 REVERT JUMPDEST CALLVALUE DUP1 ISZERO PUSH2 0x207 JUMPI PUSH0 DUP1 REVERT JUMPDEST POP PUSH2 0x210 PUSH2 0x7FC JUMP JUMPDEST PUSH1 0x40 MLOAD PUSH2 0x21D SWAP2 SWAP1 PUSH2 0x23E2 JUMP JUMPDEST PUSH1 0x40 MLOAD DUP1 SWAP2 SUB SWAP1 RETURN JUMPDEST PUSH2 0x240 PUSH1 0x4 DUP1 CALLDATASIZE SUB DUP2 ADD SWAP1 PUSH2 0x23B SWAP2 SWAP1 PUSH2 0x2429 JUMP JUMPDEST PUSH2 0x802 JUMP JUMPDEST STOP JUMPDEST CALLVALUE DUP1 ISZERO PUSH2 0x24D JUMPI PUSH0 DUP1 REVERT JUMPDEST POP PUSH2 0x268 PUSH1 0x4 DUP1 CALLDATASIZE SUB DUP2 ADD SWAP1 PUSH2 0x263 SWAP2 SWAP1 PUSH2 0x24AE JUMP JUMPDEST PUSH2 0xBBB JUMP JUMPDEST PUSH1 0x40 MLOAD PUSH2 0x275 SWAP2 SWAP1 PUSH2 0x24F3 JUMP JUMPDEST PUSH1 0x40 MLOAD DUP1 SWAP2 SUB SWAP1 RETURN JUMPDEST CALLVALUE DUP1 ISZERO PUSH2 0x289 JUMPI PUSH0 DUP1 REVERT JUMPDEST POP PUSH2 0x2A4 PUSH1 0x4 DUP1 CALLDATASIZE SUB DUP2 ADD SWAP1 PUSH2 0x29F SWAP2 SWAP1 PUSH2 0x24AE JUMP JUMPDEST PUSH2 0xC5B JUMP JUMPDEST STOP JUMPDEST CALLVALUE DUP1 ISZERO PUSH2 0x2B1 JUMPI PUSH0 DUP1 REVERT JUMPDEST POP PUSH2 0x2BA PUSH2 0xFE6 JUMP JUMPDEST PUSH1 0x40 MLOAD PUSH2 0x2C7 SWAP2 SWAP1 PUSH2 0x23E2 JUMP JUMPDEST PUSH1 0x40 MLOAD DUP1 SWAP2 SUB SWAP1 RETURN JUMPDEST CALLVALUE DUP1 ISZERO PUSH2 0x2DB JUMPI PUSH0 DUP1 REVERT JUMPDEST POP PUSH2 0x2F6 PUSH1 0x4 DUP1 CALLDATASIZE SUB DUP2 ADD SWAP1 PUSH2 0x2F1 SWAP2 SWAP1 PUSH2 0x24AE JUMP JUMPDEST PUSH2 0xFEC JUMP JUMPDEST PUSH1 0x40 MLOAD PUSH2 0x303 SWAP2 SWAP1 PUSH2 0x23E2 JUMP JUMPDEST PUSH1 0x40 MLOAD DUP1 SWAP2 SUB SWAP1 RETURN JUMPDEST CALLVALUE DUP1 ISZERO PUSH2 0x317 JUMPI PUSH0 DUP1 REVERT JUMPDEST POP PUSH2 0x332 PUSH1 0x4 DUP1 CALLDATASIZE SUB DUP2 ADD SWAP1 PUSH2 0x32D SWAP2 SWAP1 PUSH2 0x24AE JUMP JUMPDEST PUSH2 0x100A JUMP JUMPDEST PUSH1 0x40 MLOAD PUSH2 0x33F SWAP2 SWAP1 PUSH2 0x23E2 JUMP JUMPDEST PUSH1 0x40 MLOAD DUP1 SWAP2 SUB SWAP1 RETURN JUMPDEST CALLVALUE DUP1 ISZERO PUSH2 0x353 JUMPI PUSH0 DUP1 REVERT JUMPDEST POP PUSH2 0x35C PUSH2 0x1098 JUMP JUMPDEST PUSH1 0x40 MLOAD PUSH2 0x369 SWAP2 SWAP1 PUSH2 0x23E2 JUMP JUMPDEST PUSH1 0x40 MLOAD DUP1 SWAP2 SUB SWAP1 RETURN JUMPDEST CALLVALUE DUP1 ISZERO PUSH2 0x37D JUMPI PUSH0 DUP1 REVERT JUMPDEST POP PUSH2 0x386 PUSH2 0x109D JUMP JUMPDEST PUSH1 0x40 MLOAD PUSH2 0x393 SWAP2 SWAP1 PUSH2 0x23E2 JUMP JUMPDEST PUSH1 0x40 MLOAD DUP1 SWAP2 SUB SWAP1 RETURN JUMPDEST CALLVALUE DUP1 ISZERO PUSH2 0x3A7 JUMPI PUSH0 DUP1 REVERT JUMPDEST POP PUSH2 0x3B0 PUSH2 0x114D JUMP JUMPDEST PUSH1 0x40 MLOAD PUSH2 0x3BD SWAP2 SWAP1 PUSH2 0x23E2 JUMP JUMPDEST PUSH1 0x40 MLOAD DUP1 SWAP2 SUB SWAP1 RETURN JUMPDEST CALLVALUE DUP1 ISZERO PUSH2 0x3D1 JUMPI PUSH0 DUP1 REVERT JUMPDEST POP PUSH2 0x3DA PUSH2 0x1154 JUMP JUMPDEST PUSH1 0x40 MLOAD PUSH2 0x3E7 SWAP2 SWAP1 PUSH2 0x23E2 JUMP JUMPDEST PUSH1 0x40 MLOAD DUP1 SWAP2 SUB SWAP1 RETURN JUMPDEST CALLVALUE DUP1 ISZERO PUSH2 0x3FB JUMPI PUSH0 DUP1 REVERT JUMPDEST POP PUSH2 0x404 PUSH2 0x115A JUMP JUMPDEST PUSH1 0x40 MLOAD PUSH2 0x411 SWAP2 SWAP1 PUSH2 0x23E2 JUMP JUMPDEST PUSH1 0x40 MLOAD DUP1 SWAP2 SUB SWAP1 RETURN JUMPDEST CALLVALUE DUP1 ISZERO PUSH2 0x425 JUMPI PUSH0 DUP1 REVERT JUMPDEST POP PUSH2 0x42E PUSH2 0x1160 JUMP JUMPDEST PUSH1 0x40 MLOAD PUSH2 0x43B SWAP2 SWAP1 PUSH2 0x251B JUMP JUMPDEST PUSH1 0x40 MLOAD DUP1 SWAP2 SUB SWAP1 RETURN JUMPDEST CALLVALUE DUP1 ISZERO PUSH2 0x44F JUMPI PUSH0 DUP1 REVERT JUMPDEST POP PUSH2 0x458 PUSH2 0x1185 JUMP JUMPDEST PUSH1 0x40 MLOAD PUSH2 0x465 SWAP2 SWAP1 PUSH2 0x23E2 JUMP JUMPDEST PUSH1 0x40 MLOAD DUP1 SWAP2 SUB SWAP1 RETURN JUMPDEST CALLVALUE DUP1 ISZERO PUSH2 0x479 JUMPI PUSH0 DUP1 REVERT JUMPDEST POP PUSH2 0x494 PUSH1 0x4 DUP1 CALLDATASIZE SUB DUP2 ADD SWAP1 PUSH2 0x48F SWAP2 SWAP1 PUSH2 0x24AE JUMP JUMPDEST PUSH2 0x118E JUMP JUMPDEST PUSH1 0x40 MLOAD PUSH2 0x4A1 SWAP2 SWAP1 PUSH2 0x23E2 JUMP JUMPDEST PUSH1 0x40 MLOAD DUP1 SWAP2 SUB SWAP1 RETURN JUMPDEST CALLVALUE DUP1 ISZERO PUSH2 0x4B5 JUMPI PUSH0 DUP1 REVERT JUMPDEST POP PUSH2 0x4D0 PUSH1 0x4 DUP1 CALLDATASIZE SUB DUP2 ADD SWAP1 PUSH2 0x4CB SWAP2 SWAP1 PUSH2 0x24AE JUMP JUMPDEST PUSH2 0x11A3 JUMP JUMPDEST PUSH1 0x40 MLOAD PUSH2 0x4DD SWAP2 SWAP1 PUSH2 0x23E2 JUMP JUMPDEST PUSH1 0x40 MLOAD DUP1 SWAP2 SUB SWAP1 RETURN JUMPDEST PUSH2 0x500 PUSH1 0x4 DUP1 CALLDATASIZE SUB DUP2 ADD SWAP1 PUSH2 0x4FB SWAP2 SWAP1 PUSH2 0x2534 JUMP JUMPDEST PUSH2 0x11E8 JUMP JUMPDEST STOP JUMPDEST CALLVALUE DUP1 ISZERO PUSH2 0x50D JUMPI PUSH0 DUP1 REVERT JUMPDEST POP PUSH2 0x516 PUSH2 0x15E8 JUMP JUMPDEST STOP JUMPDEST PUSH2 0x532 PUSH1 0x4 DUP1 CALLDATASIZE SUB DUP2 ADD SWAP1 PUSH2 0x52D SWAP2 SWAP1 PUSH2 0x2429 JUMP JUMPDEST PUSH2 0x16F6 JUMP JUMPDEST STOP JUMPDEST CALLVALUE DUP1 ISZERO PUSH2 0x53F JUMPI PUSH0 DUP1 REVERT JUMPDEST POP PUSH2 0x55A PUSH1 0x4 DUP1 CALLDATASIZE SUB DUP2 ADD SWAP1 PUSH2 0x555 SWAP2 SWAP1 PUSH2 0x2429 JUMP JUMPDEST PUSH2 0x1B19 JUMP JUMPDEST PUSH1 0x40 MLOAD PUSH2 0x567 SWAP2 SWAP1 PUSH2 0x23E2 JUMP JUMPDEST PUSH1 0x40 MLOAD DUP1 SWAP2 SUB SWAP1 RETURN JUMPDEST CALLVALUE DUP1 ISZERO PUSH2 0x57B JUMPI PUSH0 DUP1 REVERT JUMPDEST POP PUSH2 0x596 PUSH1 0x4 DUP1 CALLDATASIZE SUB DUP2 ADD SWAP1 PUSH2 0x591 SWAP2 SWAP1 PUSH2 0x2429 JUMP JUMPDEST PUSH2 0x1B7C JUMP JUMPDEST PUSH1 0x40 MLOAD PUSH2 0x5A3 SWAP2 SWAP1 PUSH2 0x23E2 JUMP JUMPDEST PUSH1 0x40 MLOAD DUP1 SWAP2 SUB SWAP1 RETURN JUMPDEST CALLVALUE DUP1 ISZERO PUSH2 0x5B7 JUMPI PUSH0 DUP1 REVERT JUMPDEST POP PUSH2 0x5D2 PUSH1 0x4 DUP1 CALLDATASIZE SUB DUP2 ADD SWAP1 PUSH2 0x5CD SWAP2 SWAP1 PUSH2 0x24AE JUMP JUMPDEST PUSH2 0x1CA0 JUMP JUMPDEST PUSH1 0x40 MLOAD PUSH2 0x5DF SWAP2 SWAP1 PUSH2 0x23E2 JUMP JUMPDEST PUSH1 0x40 MLOAD DUP1 SWAP2 SUB SWAP1 RETURN JUMPDEST PUSH2 0x5F0 PUSH2 0x1D12 JUMP JUMPDEST STOP JUMPDEST CALLVALUE DUP1 ISZERO PUSH2 0x5FD JUMPI PUSH0 DUP1 REVERT JUMPDEST POP PUSH2 0x606 PUSH2 0x1F79 JUMP JUMPDEST PUSH1 0x40 MLOAD PUSH2 0x613 SWAP2 SWAP1 PUSH2 0x23E2 JUMP JUMPDEST PUSH1 0x40 MLOAD DUP1 SWAP2 SUB SWAP1 RETURN JUMPDEST CALLVALUE DUP1 ISZERO PUSH2 0x627 JUMPI PUSH0 DUP1 REVERT JUMPDEST POP PUSH2 0x642 PUSH1 0x4 DUP1 CALLDATASIZE SUB DUP2 ADD SWAP1 PUSH2 0x63D SWAP2 SWAP1 PUSH2 0x24AE JUMP JUMPDEST PUSH2 0x1F7F JUMP JUMPDEST PUSH1 0x40 MLOAD PUSH2 0x651 SWAP4 SWAP3 SWAP2 SWAP1 PUSH2 0x2572 JUMP JUMPDEST PUSH1 0x40 MLOAD DUP1 SWAP2 SUB SWAP1 RETURN JUMPDEST CALLVALUE DUP1 ISZERO PUSH2 0x665 JUMPI PUSH0 DUP1 REVERT JUMPDEST POP PUSH2 0x66E PUSH2 0x2048 JUMP JUMPDEST PUSH1 0x40 MLOAD PUSH2 0x67B SWAP2 SWAP1 PUSH2 0x23E2 JUMP JUMPDEST PUSH1 0x40 MLOAD DUP1 SWAP2 SUB SWAP1 RETURN JUMPDEST PUSH2 0x68C PUSH2 0x204E JUMP JUMPDEST STOP JUMPDEST CALLVALUE DUP1 ISZERO PUSH2 0x699 JUMPI PUSH0 DUP1 REVERT JUMPDEST POP PUSH2 0x6B4 PUSH1 0x4 DUP1 CALLDATASIZE SUB DUP2 ADD SWAP1 PUSH2 0x6AF SWAP2 SWAP1 PUSH2 0x25A7 JUMP JUMPDEST PUSH2 0x21AB JUMP JUMPDEST PUSH1 0x40 MLOAD PUSH2 0x6C1 SWAP2 SWAP1 PUSH2 0x23E2 JUMP JUMPDEST PUSH1 0x40 MLOAD DUP1 SWAP2 SUB SWAP1 RETURN JUMPDEST CALLVALUE DUP1 ISZERO PUSH2 0x6D5 JUMPI PUSH0 DUP1 REVERT JUMPDEST POP PUSH2 0x6F0 PUSH1 0x4 DUP1 CALLDATASIZE SUB DUP2 ADD SWAP1 PUSH2 0x6EB SWAP2 SWAP1 PUSH2 0x2429 JUMP JUMPDEST PUSH2 0x21D6 JUMP JUMPDEST PUSH1 0x40 MLOAD PUSH2 0x703 SWAP8 SWAP7 SWAP6 SWAP5 SWAP4 SWAP3 SWAP2 SWAP1 PUSH2 0x25E5 JUMP JUMPDEST PUSH1 0x40 MLOAD DUP1 SWAP2 SUB SWAP1 RETURN JUMPDEST CALLVALUE DUP1 ISZERO PUSH2 0x717 JUMPI PUSH0 DUP1 REVERT JUMPDEST POP PUSH2 0x732 PUSH1 0x4 DUP1 CALLDATASIZE SUB DUP2 ADD SWAP1 PUSH2 0x72D SWAP2 SWAP1 PUSH2 0x2429 JUMP JUMPDEST PUSH2 0x224C JUMP JUMPDEST PUSH1 0x40 MLOAD PUSH2 0x73F SWAP2 SWAP1 PUSH2 0x251B JUMP JUMPDEST PUSH1 0x40 MLOAD DUP1 SWAP2 SUB SWAP1 RETURN JUMPDEST CALLVALUE DUP1 ISZERO PUSH2 0x753 JUMPI PUSH0 DUP1 REVERT JUMPDEST POP PUSH2 0x76E PUSH1 0x4 DUP1 CALLDATASIZE SUB DUP2 ADD SWAP1 PUSH2 0x769 SWAP2 SWAP1 PUSH2 0x2429 JUMP JUMPDEST PUSH2 0x2287 JUMP JUMPDEST PUSH1 0x40 MLOAD PUSH2 0x77B SWAP2 SWAP1 PUSH2 0x23E2 JUMP JUMPDEST PUSH1 0x40 MLOAD DUP1 SWAP2 SUB SWAP1 RETURN JUMPDEST CALLVALUE DUP1 ISZERO PUSH2 0x78F JUMPI PUSH0 DUP1 REVERT JUMPDEST POP PUSH2 0x7AA PUSH1 0x4 DUP1 CALLDATASIZE SUB DUP2 ADD SWAP1 PUSH2 0x7A5 SWAP2 SWAP1 PUSH2 0x24AE JUMP JUMPDEST PUSH2 0x22FB JUMP JUMPDEST PUSH1 0x40 MLOAD PUSH2 0x7B7 SWAP2 SWAP1 PUSH2 0x23E2 JUMP JUMPDEST PUSH1 0x40 MLOAD DUP1 SWAP2 SUB SWAP1 RETURN JUMPDEST CALLVALUE DUP1 ISZERO PUSH2 0x7CB JUMPI PUSH0 DUP1 REVERT JUMPDEST POP PUSH2 0x7E6 PUSH1 0x4 DUP1 CALLDATASIZE SUB DUP2 ADD SWAP1 PUSH2 0x7E1 SWAP2 SWAP1 PUSH2 0x24AE JUMP JUMPDEST PUSH2 0x230F JUMP JUMPDEST PUSH1 0x40 MLOAD PUSH2 0x7F3 SWAP2 SWAP1 PUSH2 0x23E2 JUMP JUMPDEST PUSH1 0x40 MLOAD DUP1 SWAP2 SUB SWAP1 RETURN JUMPDEST PUSH1 0x4 SLOAD DUP2 JUMP JUMPDEST PUSH2 0x80B CALLER PUSH2 0xBBB JUMP JUMPDEST PUSH2 0x84A JUMPI PUSH1 0x40 MLOAD PUSH32 0x8C379A000000000000000000000000000000000000000000000000000000000 DUP2 MSTORE PUSH1 0x4 ADD PUSH2 0x841 SWAP1 PUSH2 0x26AC JUMP JUMPDEST PUSH1 0x40 MLOAD DUP1 SWAP2 SUB SWAP1 REVERT JUMPDEST PUSH1 0x2 PUSH0 CALLER PUSH20 0xFFFFFFFFFFFFFFFFFFFFFFFFFFFFFFFFFFFFFFFF AND PUSH20 0xFFFFFFFFFFFFFFFFFFFFFFFFFFFFFFFFFFFFFFFF AND DUP2 MSTORE PUSH1 0x20 ADD SWAP1 DUP2 MSTORE PUSH1 0x20 ADD PUSH0 KECCAK256 SLOAD DUP2 GT ISZERO PUSH2 0x8CA JUMPI PUSH1 0x40 MLOAD PUSH32 0x8C379A000000000000000000000000000000000000000000000000000000000 DUP2 MSTORE PUSH1 0x4 ADD PUSH2 0x8C1 SWAP1 PUSH2 0x273A JUMP JUMPDEST PUSH1 0x40 MLOAD DUP1 SWAP2 SUB SWAP1 REVERT JUMPDEST PUSH1 0x4 SLOAD DUP2 GT ISZERO PUSH2 0x90F JUMPI PUSH1 0x40 MLOAD PUSH32 0x8C379A000000000000000000000000000000000000000000000000000000000 DUP2 MSTORE PUSH1 0x4 ADD PUSH2 0x906 SWAP1 PUSH2 0x27A2 JUMP JUMPDEST PUSH1 0x40 MLOAD DUP1 SWAP2 SUB SWAP1 REVERT JUMPDEST DUP1 PUSH1 0x2 PUSH0 CALLER PUSH20 0xFFFFFFFFFFFFFFFFFFFFFFFFFFFFFFFFFFFFFFFF AND PUSH20 0xFFFFFFFFFFFFFFFFFFFFFFFFFFFFFFFFFFFFFFFF AND DUP2 MSTORE PUSH1 0x20 ADD SWAP1 DUP2 MSTORE PUSH1 0x20 ADD PUSH0 KECCAK256 PUSH0 DUP3 DUP3 SLOAD PUSH2 0x95B SWAP2 SWAP1 PUSH2 0x27ED JUMP JUMPDEST SWAP3 POP POP DUP2 SWAP1 SSTORE POP DUP1 PUSH1 0x4 PUSH0 DUP3 DUP3 SLOAD PUSH2 0x973 SWAP2 SWAP1 PUSH2 0x27ED JUMP JUMPDEST SWAP3 POP POP DUP2 SWAP1 SSTORE POP PUSH0 CALLER PUSH20 0xFFFFFFFFFFFFFFFFFFFFFFFFFFFFFFFFFFFFFFFF AND DUP3 PUSH1 0x40 MLOAD PUSH2 0x99F SWAP1 PUSH2 0x284D JUMP JUMPDEST PUSH0 PUSH1 0x40 MLOAD DUP1 DUP4 SUB DUP2 DUP6 DUP8 GAS CALL SWAP3 POP POP POP RETURNDATASIZE DUP1 PUSH0 DUP2 EQ PUSH2 0x9D9 JUMPI PUSH1 0x40 MLOAD SWAP2 POP PUSH1 0x1F NOT PUSH1 0x3F RETURNDATASIZE ADD AND DUP3 ADD PUSH1 0x40 MSTORE RETURNDATASIZE DUP3 MSTORE RETURNDATASIZE PUSH0 PUSH1 0x20 DUP5 ADD RETURNDATACOPY PUSH2 0x9DE JUMP JUMPDEST PUSH1 0x60 SWAP2 POP JUMPDEST POP POP SWAP1 POP DUP1 PUSH2 0xA22 JUMPI PUSH1 0x40 MLOAD PUSH32 0x8C379A000000000000000000000000000000000000000000000000000000000 DUP2 MSTORE PUSH1 0x4 ADD PUSH2 0xA19 SWAP1 PUSH2 0x28AB JUMP JUMPDEST PUSH1 0x40 MLOAD DUP1 SWAP2 SUB SWAP1 REVERT JUMPDEST PUSH0 PUSH1 0x2 PUSH0 CALLER PUSH20 0xFFFFFFFFFFFFFFFFFFFFFFFFFFFFFFFFFFFFFFFF AND PUSH20 0xFFFFFFFFFFFFFFFFFFFFFFFFFFFFFFFFFFFFFFFF AND DUP2 MSTORE PUSH1 0x20 ADD SWAP1 DUP2 MSTORE PUSH1 0x20 ADD PUSH0 KECCAK256 SLOAD SUB PUSH2 0xB69 JUMPI PUSH0 DUP1 PUSH2 0xA71 CALLER PUSH2 0x2324 JUMP JUMPDEST SWAP2 POP SWAP2 POP DUP2 ISZERO PUSH2 0xB66 JUMPI PUSH1 0xA PUSH1 0x1 PUSH1 0xA DUP1 SLOAD SWAP1 POP PUSH2 0xA8F SWAP2 SWAP1 PUSH2 0x27ED JUMP JUMPDEST DUP2 SLOAD DUP2 LT PUSH2 0xAA0 JUMPI PUSH2 0xA9F PUSH2 0x28C9 JUMP JUMPDEST JUMPDEST SWAP1 PUSH0 MSTORE PUSH1 0x20 PUSH0 KECCAK256 ADD PUSH0 SWAP1 SLOAD SWAP1 PUSH2 0x100 EXP SWAP1 DIV PUSH20 0xFFFFFFFFFFFFFFFFFFFFFFFFFFFFFFFFFFFFFFFF AND PUSH1 0xA DUP3 DUP2 SLOAD DUP2 LT PUSH2 0xADC JUMPI PUSH2 0xADB PUSH2 0x28C9 JUMP JUMPDEST JUMPDEST SWAP1 PUSH0 MSTORE PUSH1 0x20 PUSH0 KECCAK256 ADD PUSH0 PUSH2 0x100 EXP DUP2 SLOAD DUP2 PUSH20 0xFFFFFFFFFFFFFFFFFFFFFFFFFFFFFFFFFFFFFFFF MUL NOT AND SWAP1 DUP4 PUSH20 0xFFFFFFFFFFFFFFFFFFFFFFFFFFFFFFFFFFFFFFFF AND MUL OR SWAP1 SSTORE POP PUSH1 0xA DUP1 SLOAD DUP1 PUSH2 0xB33 JUMPI PUSH2 0xB32 PUSH2 0x28F6 JUMP JUMPDEST JUMPDEST PUSH1 0x1 SWAP1 SUB DUP2 DUP2 SWAP1 PUSH0 MSTORE PUSH1 0x20 PUSH0 KECCAK256 ADD PUSH0 PUSH2 0x100 EXP DUP2 SLOAD SWAP1 PUSH20 0xFFFFFFFFFFFFFFFFFFFFFFFFFFFFFFFFFFFFFFFF MUL NOT AND SWAP1 SSTORE SWAP1 SSTORE JUMPDEST POP POP JUMPDEST CALLER PUSH20 0xFFFFFFFFFFFFFFFFFFFFFFFFFFFFFFFFFFFFFFFF AND PUSH32 0x7FCF532C15F0A6DB0BD6D0E038BEA71D30D808C7D98CB3BF7268A95BF5081B65 DUP4 PUSH1 0x40 MLOAD PUSH2 0xBAF SWAP2 SWAP1 PUSH2 0x23E2 JUMP JUMPDEST PUSH1 0x40 MLOAD DUP1 SWAP2 SUB SWAP1 LOG2 POP POP JUMP JUMPDEST PUSH0 DUP1 PUSH0 SWAP1 POP JUMPDEST PUSH1 0xA DUP1 SLOAD SWAP1 POP DUP2 LT ISZERO PUSH2 0xC51 JUMPI DUP3 PUSH20 0xFFFFFFFFFFFFFFFFFFFFFFFFFFFFFFFFFFFFFFFF AND PUSH1 0xA DUP3 DUP2 SLOAD DUP2 LT PUSH2 0xBF9 JUMPI PUSH2 0xBF8 PUSH2 0x28C9 JUMP JUMPDEST JUMPDEST SWAP1 PUSH0 MSTORE PUSH1 0x20 PUSH0 KECCAK256 ADD PUSH0 SWAP1 SLOAD SWAP1 PUSH2 0x100 EXP SWAP1 DIV PUSH20 0xFFFFFFFFFFFFFFFFFFFFFFFFFFFFFFFFFFFFFFFF AND PUSH20 0xFFFFFFFFFFFFFFFFFFFFFFFFFFFFFFFFFFFFFFFF AND SUB PUSH2 0xC46 JUMPI PUSH1 0x1 SWAP2 POP POP PUSH2 0xC56 JUMP JUMPDEST DUP1 PUSH1 0x1 ADD SWAP1 POP PUSH2 0xBC1 JUMP JUMPDEST POP PUSH0 SWAP1 POP JUMPDEST SWAP2 SWAP1 POP JUMP JUMPDEST PUSH1 0x1 PUSH0 SWAP1 SLOAD SWAP1 PUSH2 0x100 EXP SWAP1 DIV PUSH20 0xFFFFFFFFFFFFFFFFFFFFFFFFFFFFFFFFFFFFFFFF AND PUSH20 0xFFFFFFFFFFFFFFFFFFFFFFFFFFFFFFFFFFFFFFFF AND CALLER PUSH20 0xFFFFFFFFFFFFFFFFFFFFFFFFFFFFFFFFFFFFFFFF AND EQ PUSH2 0xCEA JUMPI PUSH1 0x40 MLOAD PUSH32 0x8C379A000000000000000000000000000000000000000000000000000000000 DUP2 MSTORE PUSH1 0x4 ADD PUSH2 0xCE1 SWAP1 PUSH2 0x2993 JUMP JUMPDEST PUSH1 0x40 MLOAD DUP1 SWAP2 SUB SWAP1 REVERT JUMPDEST PUSH0 PUSH1 0x3 PUSH0 DUP4 PUSH20 0xFFFFFFFFFFFFFFFFFFFFFFFFFFFFFFFFFFFFFFFF AND PUSH20 0xFFFFFFFFFFFFFFFFFFFFFFFFFFFFFFFFFFFFFFFF AND DUP2 MSTORE PUSH1 0x20 ADD SWAP1 DUP2 MSTORE PUSH1 0x20 ADD PUSH0 KECCAK256 SLOAD GT PUSH2 0xD69 JUMPI PUSH1 0x40 MLOAD PUSH32 0x8C379A000000000000000000000000000000000000000000000000000000000 DUP2 MSTORE PUSH1 0x4 ADD PUSH2 0xD60 SWAP1 PUSH2 0x2A21 JUMP JUMPDEST PUSH1 0x40 MLOAD DUP1 SWAP2 SUB SWAP1 REVERT JUMPDEST PUSH0 PUSH1 0x3 PUSH0 DUP4 PUSH20 0xFFFFFFFFFFFFFFFFFFFFFFFFFFFFFFFFFFFFFFFF AND PUSH20 0xFFFFFFFFFFFFFFFFFFFFFFFFFFFFFFFFFFFFFFFF AND DUP2 MSTORE PUSH1 0x20 ADD SWAP1 DUP2 MSTORE PUSH1 0x20 ADD PUSH0 KECCAK256 SLOAD SWAP1 POP PUSH0 DUP1 PUSH0 DUP5 PUSH20 0xFFFFFFFFFFFFFFFFFFFFFFFFFFFFFFFFFFFFFFFF AND PUSH20 0xFFFFFFFFFFFFFFFFFFFFFFFFFFFFFFFFFFFFFFFF AND DUP2 MSTORE PUSH1 0x20 ADD SWAP1 DUP2 MSTORE PUSH1 0x20 ADD PUSH0 KECCAK256 SLOAD SWAP1 POP PUSH0 DUP2 GT PUSH2 0xE2C JUMPI PUSH1 0x40 MLOAD PUSH32 0x8C379A000000000000000000000000000000000000000000000000000000000 DUP2 MSTORE PUSH1 0x4 ADD PUSH2 0xE23 SWAP1 PUSH2 0x2A89 JUMP JUMPDEST PUSH1 0x40 MLOAD DUP1 SWAP2 SUB SWAP1 REVERT JUMPDEST PUSH0 PUSH1 0x3 PUSH0 DUP6 PUSH20 0xFFFFFFFFFFFFFFFFFFFFFFFFFFFFFFFFFFFFFFFF AND PUSH20 0xFFFFFFFFFFFFFFFFFFFFFFFFFFFFFFFFFFFFFFFF AND DUP2 MSTORE PUSH1 0x20 ADD SWAP1 DUP2 MSTORE PUSH1 0x20 ADD PUSH0 KECCAK256 DUP2 SWAP1 SSTORE POP PUSH0 DUP1 PUSH0 DUP6 PUSH20 0xFFFFFFFFFFFFFFFFFFFFFFFFFFFFFFFFFFFFFFFF AND PUSH20 0xFFFFFFFFFFFFFFFFFFFFFFFFFFFFFFFFFFFFFFFF AND DUP2 MSTORE PUSH1 0x20 ADD SWAP1 DUP2 MSTORE PUSH1 0x20 ADD PUSH0 KECCAK256 DUP2 SWAP1 SSTORE POP PUSH0 PUSH1 0x1 PUSH0 SWAP1 SLOAD SWAP1 PUSH2 0x100 EXP SWAP1 DIV PUSH20 0xFFFFFFFFFFFFFFFFFFFFFFFFFFFFFFFFFFFFFFFF AND PUSH20 0xFFFFFFFFFFFFFFFFFFFFFFFFFFFFFFFFFFFFFFFF AND DUP3 PUSH1 0x40 MLOAD PUSH2 0xEF5 SWAP1 PUSH2 0x284D JUMP JUMPDEST PUSH0 PUSH1 0x40 MLOAD DUP1 DUP4 SUB DUP2 DUP6 DUP8 GAS CALL SWAP3 POP POP POP RETURNDATASIZE DUP1 PUSH0 DUP2 EQ PUSH2 0xF2F JUMPI PUSH1 0x40 MLOAD SWAP2 POP PUSH1 0x1F NOT PUSH1 0x3F RETURNDATASIZE ADD AND DUP3 ADD PUSH1 0x40 MSTORE RETURNDATASIZE DUP3 MSTORE RETURNDATASIZE PUSH0 PUSH1 0x20 DUP5 ADD RETURNDATACOPY PUSH2 0xF34 JUMP JUMPDEST PUSH1 0x60 SWAP2 POP JUMPDEST POP POP SWAP1 POP DUP1 PUSH2 0xF78 JUMPI PUSH1 0x40 MLOAD PUSH32 0x8C379A000000000000000000000000000000000000000000000000000000000 DUP2 MSTORE PUSH1 0x4 ADD PUSH2 0xF6F SWAP1 PUSH2 0x2B17 JUMP JUMPDEST PUSH1 0x40 MLOAD DUP1 SWAP2 SUB SWAP1 REVERT JUMPDEST DUP3 PUSH1 0x4 PUSH0 DUP3 DUP3 SLOAD PUSH2 0xF89 SWAP2 SWAP1 PUSH2 0x2B35 JUMP JUMPDEST SWAP3 POP POP DUP2 SWAP1 SSTORE POP DUP4 PUSH20 0xFFFFFFFFFFFFFFFFFFFFFFFFFFFFFFFFFFFFFFFF AND PUSH32 0x3C4B1D42B9C7FA283F6FE657533F6A5A8A7AD1D36F9EF1D9D89AD04485E10D2C DUP4 DUP6 PUSH1 0x40 MLOAD PUSH2 0xFD8 SWAP3 SWAP2 SWAP1 PUSH2 0x2B68 JUMP JUMPDEST PUSH1 0x40 MLOAD DUP1 SWAP2 SUB SWAP1 LOG2 POP POP POP POP JUMP JUMPDEST PUSH1 0x7 SLOAD DUP2 JUMP JUMPDEST PUSH0 PUSH2 0xFF6 DUP3 PUSH2 0x1CA0 JUMP JUMPDEST PUSH1 0xC SLOAD PUSH2 0x1003 SWAP2 SWAP1 PUSH2 0x2B8F JUMP JUMPDEST SWAP1 POP SWAP2 SWAP1 POP JUMP JUMPDEST PUSH0 PUSH2 0x1014 DUP3 PUSH2 0xBBB JUMP JUMPDEST PUSH2 0x1053 JUMPI PUSH1 0x40 MLOAD PUSH32 0x8C379A000000000000000000000000000000000000000000000000000000000 DUP2 MSTORE PUSH1 0x4 ADD PUSH2 0x104A SWAP1 PUSH2 0x2C1A JUMP JUMPDEST PUSH1 0x40 MLOAD DUP1 SWAP2 SUB SWAP1 REVERT JUMPDEST PUSH1 0x2 PUSH0 DUP4 PUSH20 0xFFFFFFFFFFFFFFFFFFFFFFFFFFFFFFFFFFFFFFFF AND PUSH20 0xFFFFFFFFFFFFFFFFFFFFFFFFFFFFFFFFFFFFFFFF AND DUP2 MSTORE PUSH1 0x20 ADD SWAP1 DUP2 MSTORE PUSH1 0x20 ADD PUSH0 KECCAK256 SLOAD SWAP1 POP SWAP2 SWAP1 POP JUMP JUMPDEST PUSH1 0x1 DUP2 JUMP JUMPDEST PUSH0 DUP1 PUSH0 SWAP1 POP PUSH0 PUSH1 0x1 SWAP1 POP JUMPDEST PUSH1 0x7 SLOAD DUP2 GT PUSH2 0x1138 JUMPI PUSH1 0x8 PUSH0 DUP3 DUP2 MSTORE PUSH1 0x20 ADD SWAP1 DUP2 MSTORE PUSH1 0x20 ADD PUSH0 KECCAK256 PUSH1 0x5 ADD PUSH1 0x1 SWAP1 SLOAD SWAP1 PUSH2 0x100 EXP SWAP1 DIV PUSH1 0xFF AND DUP1 ISZERO PUSH2 0x10FD JUMPI POP PUSH1 0x8 PUSH0 DUP3 DUP2 MSTORE PUSH1 0x20 ADD SWAP1 DUP2 MSTORE PUSH1 0x20 ADD PUSH0 KECCAK256 PUSH1 0x5 ADD PUSH0 SWAP1 SLOAD SWAP1 PUSH2 0x100 EXP SWAP1 DIV PUSH1 0xFF AND ISZERO JUMPDEST ISZERO PUSH2 0x1125 JUMPI PUSH1 0x8 PUSH0 DUP3 DUP2 MSTORE PUSH1 0x20 ADD SWAP1 DUP2 MSTORE PUSH1 0x20 ADD PUSH0 KECCAK256 PUSH1 0x1 ADD SLOAD DUP3 PUSH2 0x1122 SWAP2 SWAP1 PUSH2 0x2B35 JUMP JUMPDEST SWAP2 POP JUMPDEST DUP1 DUP1 PUSH2 0x1130 SWAP1 PUSH2 0x2C38 JUMP JUMPDEST SWAP2 POP POP PUSH2 0x10A8 JUMP JUMPDEST POP DUP1 PUSH1 0x4 SLOAD PUSH2 0x1147 SWAP2 SWAP1 PUSH2 0x2B35 JUMP JUMPDEST SWAP2 POP POP SWAP1 JUMP JUMPDEST PUSH0 SELFBALANCE SWAP1 POP SWAP1 JUMP JUMPDEST PUSH1 0x5 SLOAD DUP2 JUMP JUMPDEST PUSH1 0xC SLOAD DUP2 JUMP JUMPDEST PUSH1 0x1 PUSH0 SWAP1 SLOAD SWAP1 PUSH2 0x100 EXP SWAP1 DIV PUSH20 0xFFFFFFFFFFFFFFFFFFFFFFFFFFFFFFFFFFFFFFFF AND DUP2 JUMP JUMPDEST PUSH0 PUSH1 0x4 SLOAD SWAP1 POP SWAP1 JUMP JUMPDEST PUSH1 0x3 PUSH1 0x20 MSTORE DUP1 PUSH0 MSTORE PUSH1 0x40 PUSH0 KECCAK256 PUSH0 SWAP2 POP SWAP1 POP SLOAD DUP2 JUMP JUMPDEST PUSH0 DUP1 PUSH0 DUP4 PUSH20 0xFFFFFFFFFFFFFFFFFFFFFFFFFFFFFFFFFFFFFFFF AND PUSH20 0xFFFFFFFFFFFFFFFFFFFFFFFFFFFFFFFFFFFFFFFF AND DUP2 MSTORE PUSH1 0x20 ADD SWAP1 DUP2 MSTORE PUSH1 0x20 ADD PUSH0 KECCAK256 SLOAD SWAP1 POP SWAP2 SWAP1 POP JUMP JUMPDEST PUSH0 DUP3 GT PUSH2 0x122A JUMPI PUSH1 0x40 MLOAD PUSH32 0x8C379A000000000000000000000000000000000000000000000000000000000 DUP2 MSTORE PUSH1 0x4 ADD PUSH2 0x1221 SWAP1 PUSH2 0x2CEF JUMP JUMPDEST PUSH1 0x40 MLOAD DUP1 SWAP2 SUB SWAP1 REVERT JUMPDEST PUSH1 0x4 SLOAD DUP3 GT ISZERO PUSH2 0x126F JUMPI PUSH1 0x40 MLOAD PUSH32 0x8C379A000000000000000000000000000000000000000000000000000000000 DUP2 MSTORE PUSH1 0x4 ADD PUSH2 0x1266 SWAP1 PUSH2 0x27A2 JUMP JUMPDEST PUSH1 0x40 MLOAD DUP1 SWAP2 SUB SWAP1 REVERT JUMPDEST PUSH1 0x64 PUSH1 0x96 DUP4 PUSH2 0x127E SWAP2 SWAP1 PUSH2 0x2B8F JUMP JUMPDEST PUSH2 0x1288 SWAP2 SWAP1 PUSH2 0x2D3A JUMP JUMPDEST CALLVALUE LT ISZERO PUSH2 0x12CA JUMPI PUSH1 0x40 MLOAD PUSH32 0x8C379A000000000000000000000000000000000000000000000000000000000 DUP2 MSTORE PUSH1 0x4 ADD PUSH2 0x12C1 SWAP1 PUSH2 0x2DDA JUMP JUMPDEST PUSH1 0x40 MLOAD DUP1 SWAP2 SUB SWAP1 REVERT JUMPDEST PUSH0 PUSH2 0x12D4 DUP4 PUSH2 0x2287 JUMP JUMPDEST SWAP1 POP PUSH0 PUSH3 0x15180 DUP4 PUSH2 0x12E6 SWAP2 SWAP1 PUSH2 0x2B8F JUMP JUMPDEST TIMESTAMP PUSH2 0x12F1 SWAP2 SWAP1 PUSH2 0x2B35 JUMP JUMPDEST SWAP1 POP PUSH1 0x7 PUSH0 DUP2 SLOAD DUP1 SWAP3 SWAP2 SWAP1 PUSH2 0x1305 SWAP1 PUSH2 0x2C38 JUMP JUMPDEST SWAP2 SWAP1 POP SSTORE POP PUSH1 0x40 MLOAD DUP1 PUSH1 0xE0 ADD PUSH1 0x40 MSTORE DUP1 CALLER PUSH20 0xFFFFFFFFFFFFFFFFFFFFFFFFFFFFFFFFFFFFFFFF AND DUP2 MSTORE PUSH1 0x20 ADD DUP6 DUP2 MSTORE PUSH1 0x20 ADD PUSH1 0x6 SLOAD DUP2 MSTORE PUSH1 0x20 ADD DUP4 DUP2 MSTORE PUSH1 0x20 ADD DUP3 DUP2 MSTORE PUSH1 0x20 ADD PUSH0 ISZERO ISZERO DUP2 MSTORE PUSH1 0x20 ADD PUSH1 0x1 ISZERO ISZERO DUP2 MSTORE POP PUSH1 0x8 PUSH0 PUSH1 0x7 SLOAD DUP2 MSTORE PUSH1 0x20 ADD SWAP1 DUP2 MSTORE PUSH1 0x20 ADD PUSH0 KECCAK256 PUSH0 DUP3 ADD MLOAD DUP2 PUSH0 ADD PUSH0 PUSH2 0x100 EXP DUP2 SLOAD DUP2 PUSH20 0xFFFFFFFFFFFFFFFFFFFFFFFFFFFFFFFFFFFFFFFF MUL NOT AND SWAP1 DUP4 PUSH20 0xFFFFFFFFFFFFFFFFFFFFFFFFFFFFFFFFFFFFFFFF AND MUL OR SWAP1 SSTORE POP PUSH1 0x20 DUP3 ADD MLOAD DUP2 PUSH1 0x1 ADD SSTORE PUSH1 0x40 DUP3 ADD MLOAD DUP2 PUSH1 0x2 ADD SSTORE PUSH1 0x60 DUP3 ADD MLOAD DUP2 PUSH1 0x3 ADD SSTORE PUSH1 0x80 DUP3 ADD MLOAD DUP2 PUSH1 0x4 ADD SSTORE PUSH1 0xA0 DUP3 ADD MLOAD DUP2 PUSH1 0x5 ADD PUSH0 PUSH2 0x100 EXP DUP2 SLOAD DUP2 PUSH1 0xFF MUL NOT AND SWAP1 DUP4 ISZERO ISZERO MUL OR SWAP1 SSTORE POP PUSH1 0xC0 DUP3 ADD MLOAD DUP2 PUSH1 0x5 ADD PUSH1 0x1 PUSH2 0x100 EXP DUP2 SLOAD DUP2 PUSH1 0xFF MUL NOT AND SWAP1 DUP4 ISZERO ISZERO MUL OR SWAP1 SSTORE POP SWAP1 POP POP PUSH1 0x9 PUSH0 CALLER PUSH20 0xFFFFFFFFFFFFFFFFFFFFFFFFFFFFFFFFFFFFFFFF AND PUSH20 0xFFFFFFFFFFFFFFFFFFFFFFFFFFFFFFFFFFFFFFFF AND DUP2 MSTORE PUSH1 0x20 ADD SWAP1 DUP2 MSTORE PUSH1 0x20 ADD PUSH0 KECCAK256 PUSH1 0x7 SLOAD SWAP1 DUP1 PUSH1 0x1 DUP2 SLOAD ADD DUP1 DUP3 SSTORE DUP1 SWAP2 POP POP PUSH1 0x1 SWAP1 SUB SWAP1 PUSH0 MSTORE PUSH1 0x20 PUSH0 KECCAK256 ADD PUSH0 SWAP1 SWAP2 SWAP1 SWAP2 SWAP1 SWAP2 POP SSTORE CALLVALUE PUSH0 DUP1 CALLER PUSH20 0xFFFFFFFFFFFFFFFFFFFFFFFFFFFFFFFFFFFFFFFF AND PUSH20 0xFFFFFFFFFFFFFFFFFFFFFFFFFFFFFFFFFFFFFFFF AND DUP2 MSTORE PUSH1 0x20 ADD SWAP1 DUP2 MSTORE PUSH1 0x20 ADD PUSH0 KECCAK256 PUSH0 DUP3 DUP3 SLOAD PUSH2 0x14C9 SWAP2 SWAP1 PUSH2 0x2B35 JUMP JUMPDEST SWAP3 POP POP DUP2 SWAP1 SSTORE POP DUP4 PUSH1 0x4 PUSH0 DUP3 DUP3 SLOAD PUSH2 0x14E1 SWAP2 SWAP1 PUSH2 0x27ED JUMP JUMPDEST SWAP3 POP POP DUP2 SWAP1 SSTORE POP PUSH0 CALLER PUSH20 0xFFFFFFFFFFFFFFFFFFFFFFFFFFFFFFFFFFFFFFFF AND DUP6 PUSH1 0x40 MLOAD PUSH2 0x150D SWAP1 PUSH2 0x284D JUMP JUMPDEST PUSH0 PUSH1 0x40 MLOAD DUP1 DUP4 SUB DUP2 DUP6 DUP8 GAS CALL SWAP3 POP POP POP RETURNDATASIZE DUP1 PUSH0 DUP2 EQ PUSH2 0x1547 JUMPI PUSH1 0x40 MLOAD SWAP2 POP PUSH1 0x1F NOT PUSH1 0x3F RETURNDATASIZE ADD AND DUP3 ADD PUSH1 0x40 MSTORE RETURNDATASIZE DUP3 MSTORE RETURNDATASIZE PUSH0 PUSH1 0x20 DUP5 ADD RETURNDATACOPY PUSH2 0x154C JUMP JUMPDEST PUSH1 0x60 SWAP2 POP JUMPDEST POP POP SWAP1 POP DUP1 PUSH2 0x1590 JUMPI PUSH1 0x40 MLOAD PUSH32 0x8C379A000000000000000000000000000000000000000000000000000000000 DUP2 MSTORE PUSH1 0x4 ADD PUSH2 0x1587 SWAP1 PUSH2 0x2E42 JUMP JUMPDEST PUSH1 0x40 MLOAD DUP1 SWAP2 SUB SWAP1 REVERT JUMPDEST CALLER PUSH20 0xFFFFFFFFFFFFFFFFFFFFFFFFFFFFFFFFFFFFFFFF AND PUSH31 0x6B9BB4766CF5AB74B890DF959E4FAD0E54B1C3885E49C9541D36253A6E39E6 PUSH1 0x7 SLOAD DUP8 PUSH1 0x40 MLOAD PUSH2 0x15D9 SWAP3 SWAP2 SWAP1 PUSH2 0x2B68 JUMP JUMPDEST PUSH1 0x40 MLOAD DUP1 SWAP2 SUB SWAP1 LOG2 POP POP POP POP POP JUMP JUMPDEST PUSH0 PUSH1 0x4 SLOAD GT PUSH2 0x162C JUMPI PUSH1 0x40 MLOAD PUSH32 0x8C379A000000000000000000000000000000000000000000000000000000000 DUP2 MSTORE PUSH1 0x4 ADD PUSH2 0x1623 SWAP1 PUSH2 0x2ED0 JUMP JUMPDEST PUSH1 0x40 MLOAD DUP1 SWAP2 SUB SWAP1 REVERT JUMPDEST PUSH0 PUSH1 0xB SLOAD TIMESTAMP PUSH2 0x163B SWAP2 SWAP1 PUSH2 0x27ED JUMP JUMPDEST SWAP1 POP PUSH4 0x1E13380 DUP2 GT PUSH2 0x164E JUMPI POP PUSH2 0x16F4 JUMP JUMPDEST PUSH0 PUSH4 0x1E13380 SWAP1 POP PUSH0 DUP2 PUSH1 0x64 PUSH2 0x1664 SWAP2 SWAP1 PUSH2 0x2B8F JUMP JUMPDEST DUP4 PUSH1 0x6 SLOAD PUSH1 0x4 SLOAD PUSH2 0x1675 SWAP2 SWAP1 PUSH2 0x2B8F JUMP JUMPDEST PUSH2 0x167F SWAP2 SWAP1 PUSH2 0x2B8F JUMP JUMPDEST PUSH2 0x1689 SWAP2 SWAP1 PUSH2 0x2D3A JUMP JUMPDEST SWAP1 POP PUSH0 DUP2 GT ISZERO PUSH2 0x16F0 JUMPI DUP1 PUSH1 0xC PUSH0 DUP3 DUP3 SLOAD PUSH2 0x16A4 SWAP2 SWAP1 PUSH2 0x2B35 JUMP JUMPDEST SWAP3 POP POP DUP2 SWAP1 SSTORE POP TIMESTAMP PUSH1 0xB DUP2 SWAP1 SSTORE POP PUSH32 0xE9D95E658B0C714DA9DE2E12FBED253A24A632058A074DC7C90B8B6618675C7C DUP2 PUSH1 0x4 SLOAD TIMESTAMP PUSH1 0x40 MLOAD PUSH2 0x16E7 SWAP4 SWAP3 SWAP2 SWAP1 PUSH2 0x2572 JUMP JUMPDEST PUSH1 0x40 MLOAD DUP1 SWAP2 SUB SWAP1 LOG1 JUMPDEST POP POP POP JUMPDEST JUMP JUMPDEST PUSH0 PUSH1 0x8 PUSH0 DUP4 DUP2 MSTORE PUSH1 0x20 ADD SWAP1 DUP2 MSTORE PUSH1 0x20 ADD PUSH0 KECCAK256 SWAP1 POP CALLER PUSH20 0xFFFFFFFFFFFFFFFFFFFFFFFFFFFFFFFFFFFFFFFF AND DUP2 PUSH0 ADD PUSH0 SWAP1 SLOAD SWAP1 PUSH2 0x100 EXP SWAP1 DIV PUSH20 0xFFFFFFFFFFFFFFFFFFFFFFFFFFFFFFFFFFFFFFFF AND PUSH20 0xFFFFFFFFFFFFFFFFFFFFFFFFFFFFFFFFFFFFFFFF AND EQ PUSH2 0x179A JUMPI PUSH1 0x40 MLOAD PUSH32 0x8C379A000000000000000000000000000000000000000000000000000000000 DUP2 MSTORE PUSH1 0x4 ADD PUSH2 0x1791 SWAP1 PUSH2 0x2F38 JUMP JUMPDEST PUSH1 0x40 MLOAD DUP1 SWAP2 SUB SWAP1 REVERT JUMPDEST DUP1 PUSH1 0x5 ADD PUSH1 0x1 SWAP1 SLOAD SWAP1 PUSH2 0x100 EXP SWAP1 DIV PUSH1 0xFF AND PUSH2 0x17EB JUMPI PUSH1 0x40 MLOAD PUSH32 0x8C379A000000000000000000000000000000000000000000000000000000000 DUP2 MSTORE PUSH1 0x4 ADD PUSH2 0x17E2 SWAP1 PUSH2 0x2FA0 JUMP JUMPDEST PUSH1 0x40 MLOAD DUP1 SWAP2 SUB SWAP1 REVERT JUMPDEST DUP1 PUSH1 0x5 ADD PUSH0 SWAP1 SLOAD SWAP1 PUSH2 0x100 EXP SWAP1 DIV PUSH1 0xFF AND ISZERO PUSH2 0x183C JUMPI PUSH1 0x40 MLOAD PUSH32 0x8C379A000000000000000000000000000000000000000000000000000000000 DUP2 MSTORE PUSH1 0x4 ADD PUSH2 0x1833 SWAP1 PUSH2 0x3008 JUMP JUMPDEST PUSH1 0x40 MLOAD DUP1 SWAP2 SUB SWAP1 REVERT JUMPDEST DUP1 PUSH1 0x3 ADD SLOAD CALLVALUE LT ISZERO PUSH2 0x1883 JUMPI PUSH1 0x40 MLOAD PUSH32 0x8C379A000000000000000000000000000000000000000000000000000000000 DUP2 MSTORE PUSH1 0x4 ADD PUSH2 0x187A SWAP1 PUSH2 0x3070 JUMP JUMPDEST PUSH1 0x40 MLOAD DUP1 SWAP2 SUB SWAP1 REVERT JUMPDEST PUSH0 PUSH1 0x64 PUSH1 0x1 DUP4 PUSH1 0x3 ADD SLOAD PUSH2 0x1897 SWAP2 SWAP1 PUSH2 0x2B8F JUMP JUMPDEST PUSH2 0x18A1 SWAP2 SWAP1 PUSH2 0x2D3A JUMP JUMPDEST SWAP1 POP PUSH0 DUP2 DUP4 PUSH1 0x3 ADD SLOAD PUSH2 0x18B4 SWAP2 SWAP1 PUSH2 0x27ED JUMP JUMPDEST SWAP1 POP DUP2 PUSH1 0xC PUSH0 DUP3 DUP3 SLOAD PUSH2 0x18C7 SWAP2 SWAP1 PUSH2 0x2B35 JUMP JUMPDEST SWAP3 POP POP DUP2 SWAP1 SSTORE POP PUSH1 0x1 DUP4 PUSH1 0x5 ADD PUSH0 PUSH2 0x100 EXP DUP2 SLOAD DUP2 PUSH1 0xFF MUL NOT AND SWAP1 DUP4 ISZERO ISZERO MUL OR SWAP1 SSTORE POP PUSH0 DUP4 PUSH1 0x5 ADD PUSH1 0x1 PUSH2 0x100 EXP DUP2 SLOAD DUP2 PUSH1 0xFF MUL NOT AND SWAP1 DUP4 ISZERO ISZERO MUL OR SWAP1 SSTORE POP PUSH0 DUP1 PUSH0 CALLER PUSH20 0xFFFFFFFFFFFFFFFFFFFFFFFFFFFFFFFFFFFFFFFF AND PUSH20 0xFFFFFFFFFFFFFFFFFFFFFFFFFFFFFFFFFFFFFFFF AND DUP2 MSTORE PUSH1 0x20 ADD SWAP1 DUP2 MSTORE PUSH1 0x20 ADD PUSH0 KECCAK256 SLOAD SWAP1 POP PUSH0 DUP2 GT PUSH2 0x1988 JUMPI PUSH1 0x40 MLOAD PUSH32 0x8C379A000000000000000000000000000000000000000000000000000000000 DUP2 MSTORE PUSH1 0x4 ADD PUSH2 0x197F SWAP1 PUSH2 0x30D8 JUMP JUMPDEST PUSH1 0x40 MLOAD DUP1 SWAP2 SUB SWAP1 REVERT JUMPDEST PUSH0 DUP1 PUSH0 CALLER PUSH20 0xFFFFFFFFFFFFFFFFFFFFFFFFFFFFFFFFFFFFFFFF AND PUSH20 0xFFFFFFFFFFFFFFFFFFFFFFFFFFFFFFFFFFFFFFFF AND DUP2 MSTORE PUSH1 0x20 ADD SWAP1 DUP2 MSTORE PUSH1 0x20 ADD PUSH0 KECCAK256 DUP2 SWAP1 SSTORE POP DUP2 PUSH1 0x4 PUSH0 DUP3 DUP3 SLOAD PUSH2 0x19DA SWAP2 SWAP1 PUSH2 0x2B35 JUMP JUMPDEST SWAP3 POP POP DUP2 SWAP1 SSTORE POP PUSH1 0x1 DUP5 PUSH1 0x5 ADD PUSH0 PUSH2 0x100 EXP DUP2 SLOAD DUP2 PUSH1 0xFF MUL NOT AND SWAP1 DUP4 ISZERO ISZERO MUL OR SWAP1 SSTORE POP PUSH0 DUP5 PUSH1 0x5 ADD PUSH1 0x1 PUSH2 0x100 EXP DUP2 SLOAD DUP2 PUSH1 0xFF MUL NOT AND SWAP1 DUP4 ISZERO ISZERO MUL OR SWAP1 SSTORE POP PUSH0 CALLER PUSH20 0xFFFFFFFFFFFFFFFFFFFFFFFFFFFFFFFFFFFFFFFF AND DUP3 PUSH1 0x40 MLOAD PUSH2 0x1A3E SWAP1 PUSH2 0x284D JUMP JUMPDEST PUSH0 PUSH1 0x40 MLOAD DUP1 DUP4 SUB DUP2 DUP6 DUP8 GAS CALL SWAP3 POP POP POP RETURNDATASIZE DUP1 PUSH0 DUP2 EQ PUSH2 0x1A78 JUMPI PUSH1 0x40 MLOAD SWAP2 POP PUSH1 0x1F NOT PUSH1 0x3F RETURNDATASIZE ADD AND DUP3 ADD PUSH1 0x40 MSTORE RETURNDATASIZE DUP3 MSTORE RETURNDATASIZE PUSH0 PUSH1 0x20 DUP5 ADD RETURNDATACOPY PUSH2 0x1A7D JUMP JUMPDEST PUSH1 0x60 SWAP2 POP JUMPDEST POP POP SWAP1 POP DUP1 PUSH2 0x1AC1 JUMPI PUSH1 0x40 MLOAD PUSH32 0x8C379A000000000000000000000000000000000000000000000000000000000 DUP2 MSTORE PUSH1 0x4 ADD PUSH2 0x1AB8 SWAP1 PUSH2 0x3140 JUMP JUMPDEST PUSH1 0x40 MLOAD DUP1 SWAP2 SUB SWAP1 REVERT JUMPDEST CALLER PUSH20 0xFFFFFFFFFFFFFFFFFFFFFFFFFFFFFFFFFFFFFFFF AND PUSH32 0xC7CE0A35F17B490DE2A317E7FECB2CAE86B1ABFFB03800B2F492823521382698 DUP8 CALLVALUE PUSH1 0x40 MLOAD PUSH2 0x1B09 SWAP3 SWAP2 SWAP1 PUSH2 0x2B68 JUMP JUMPDEST PUSH1 0x40 MLOAD DUP1 SWAP2 SUB SWAP1 LOG2 POP POP POP POP POP POP JUMP JUMPDEST PUSH0 DUP1 DUP3 GT PUSH2 0x1B5C JUMPI PUSH1 0x40 MLOAD PUSH32 0x8C379A000000000000000000000000000000000000000000000000000000000 DUP2 MSTORE PUSH1 0x4 ADD PUSH2 0x1B53 SWAP1 PUSH2 0x31A8 JUMP JUMPDEST PUSH1 0x40 MLOAD DUP1 SWAP2 SUB SWAP1 REVERT JUMPDEST PUSH1 0x64 PUSH1 0x96 DUP4 PUSH2 0x1B6B SWAP2 SWAP1 PUSH2 0x2B8F JUMP JUMPDEST PUSH2 0x1B75 SWAP2 SWAP1 PUSH2 0x2D3A JUMP JUMPDEST SWAP1 POP SWAP2 SWAP1 POP JUMP JUMPDEST PUSH0 DUP1 PUSH1 0x8 PUSH0 DUP5 DUP2 MSTORE PUSH1 0x20 ADD SWAP1 DUP2 MSTORE PUSH1 0x20 ADD PUSH0 KECCAK256 PUSH1 0x40 MLOAD DUP1 PUSH1 0xE0 ADD PUSH1 0x40 MSTORE SWAP1 DUP2 PUSH0 DUP3 ADD PUSH0 SWAP1 SLOAD SWAP1 PUSH2 0x100 EXP SWAP1 DIV PUSH20 0xFFFFFFFFFFFFFFFFFFFFFFFFFFFFFFFFFFFFFFFF AND PUSH20 0xFFFFFFFFFFFFFFFFFFFFFFFFFFFFFFFFFFFFFFFF AND PUSH20 0xFFFFFFFFFFFFFFFFFFFFFFFFFFFFFFFFFFFFFFFF AND DUP2 MSTORE PUSH1 0x20 ADD PUSH1 0x1 DUP3 ADD SLOAD DUP2 MSTORE PUSH1 0x20 ADD PUSH1 0x2 DUP3 ADD SLOAD DUP2 MSTORE PUSH1 0x20 ADD PUSH1 0x3 DUP3 ADD SLOAD DUP2 MSTORE PUSH1 0x20 ADD PUSH1 0x4 DUP3 ADD SLOAD DUP2 MSTORE PUSH1 0x20 ADD PUSH1 0x5 DUP3 ADD PUSH0 SWAP1 SLOAD SWAP1 PUSH2 0x100 EXP SWAP1 DIV PUSH1 0xFF AND ISZERO ISZERO ISZERO ISZERO DUP2 MSTORE PUSH1 0x20 ADD PUSH1 0x5 DUP3 ADD PUSH1 0x1 SWAP1 SLOAD SWAP1 PUSH2 0x100 EXP SWAP1 DIV PUSH1 0xFF AND ISZERO ISZERO ISZERO ISZERO DUP2 MSTORE POP POP SWAP1 POP PUSH0 DUP2 PUSH1 0x20 ADD MLOAD GT PUSH2 0x1C93 JUMPI PUSH1 0x40 MLOAD PUSH32 0x8C379A000000000000000000000000000000000000000000000000000000000 DUP2 MSTORE PUSH1 0x4 ADD PUSH2 0x1C8A SWAP1 PUSH2 0x3236 JUMP JUMPDEST PUSH1 0x40 MLOAD DUP1 SWAP2 SUB SWAP1 REVERT JUMPDEST DUP1 PUSH1 0x60 ADD MLOAD SWAP2 POP POP SWAP2 SWAP1 POP JUMP JUMPDEST PUSH0 DUP1 PUSH1 0x4 SLOAD SUB PUSH2 0x1CB2 JUMPI PUSH0 SWAP1 POP PUSH2 0x1D0D JUMP JUMPDEST PUSH1 0x4 SLOAD PUSH1 0xC SLOAD PUSH1 0x2 PUSH0 DUP6 PUSH20 0xFFFFFFFFFFFFFFFFFFFFFFFFFFFFFFFFFFFFFFFF AND PUSH20 0xFFFFFFFFFFFFFFFFFFFFFFFFFFFFFFFFFFFFFFFF AND DUP2 MSTORE PUSH1 0x20 ADD SWAP1 DUP2 MSTORE PUSH1 0x20 ADD PUSH0 KECCAK256 SLOAD PUSH2 0x1D00 SWAP2 SWAP1 PUSH2 0x2B8F JUMP JUMPDEST PUSH2 0x1D0A SWAP2 SWAP1 PUSH2 0x2D3A JUMP JUMPDEST SWAP1 POP JUMPDEST SWAP2 SWAP1 POP JUMP JUMPDEST PUSH1 0x1 PUSH0 SWAP1 SLOAD SWAP1 PUSH2 0x100 EXP SWAP1 DIV PUSH20 0xFFFFFFFFFFFFFFFFFFFFFFFFFFFFFFFFFFFFFFFF AND PUSH20 0xFFFFFFFFFFFFFFFFFFFFFFFFFFFFFFFFFFFFFFFF AND CALLER PUSH20 0xFFFFFFFFFFFFFFFFFFFFFFFFFFFFFFFFFFFFFFFF AND EQ PUSH2 0x1DA1 JUMPI PUSH1 0x40 MLOAD PUSH32 0x8C379A000000000000000000000000000000000000000000000000000000000 DUP2 MSTORE PUSH1 0x4 ADD PUSH2 0x1D98 SWAP1 PUSH2 0x2993 JUMP JUMPDEST PUSH1 0x40 MLOAD DUP1 SWAP2 SUB SWAP1 REVERT JUMPDEST PUSH0 PUSH1 0xC SLOAD GT PUSH2 0x1DE5 JUMPI PUSH1 0x40 MLOAD PUSH32 0x8C379A000000000000000000000000000000000000000000000000000000000 DUP2 MSTORE PUSH1 0x4 ADD PUSH2 0x1DDC SWAP1 PUSH2 0x329E JUMP JUMPDEST PUSH1 0x40 MLOAD DUP1 SWAP2 SUB SWAP1 REVERT JUMPDEST PUSH0 DUP1 JUMPDEST PUSH1 0xA DUP1 SLOAD SWAP1 POP DUP2 LT ISZERO PUSH2 0x1F5D JUMPI PUSH0 PUSH1 0xA DUP3 DUP2 SLOAD DUP2 LT PUSH2 0x1E0A JUMPI PUSH2 0x1E09 PUSH2 0x28C9 JUMP JUMPDEST JUMPDEST SWAP1 PUSH0 MSTORE PUSH1 0x20 PUSH0 KECCAK256 ADD PUSH0 SWAP1 SLOAD SWAP1 PUSH2 0x100 EXP SWAP1 DIV PUSH20 0xFFFFFFFFFFFFFFFFFFFFFFFFFFFFFFFFFFFFFFFF AND SWAP1 POP PUSH0 PUSH2 0x1E3E DUP3 PUSH2 0x1CA0 JUMP JUMPDEST SWAP1 POP PUSH0 DUP2 GT ISZERO PUSH2 0x1F4E JUMPI DUP1 DUP5 PUSH2 0x1E54 SWAP2 SWAP1 PUSH2 0x2B35 JUMP JUMPDEST SWAP4 POP PUSH0 DUP3 PUSH20 0xFFFFFFFFFFFFFFFFFFFFFFFFFFFFFFFFFFFFFFFF AND DUP3 PUSH1 0x40 MLOAD PUSH2 0x1E7B SWAP1 PUSH2 0x284D JUMP JUMPDEST PUSH0 PUSH1 0x40 MLOAD DUP1 DUP4 SUB DUP2 DUP6 DUP8 GAS CALL SWAP3 POP POP POP RETURNDATASIZE DUP1 PUSH0 DUP2 EQ PUSH2 0x1EB5 JUMPI PUSH1 0x40 MLOAD SWAP2 POP PUSH1 0x1F NOT PUSH1 0x3F RETURNDATASIZE ADD AND DUP3 ADD PUSH1 0x40 MSTORE RETURNDATASIZE DUP3 MSTORE RETURNDATASIZE PUSH0 PUSH1 0x20 DUP5 ADD RETURNDATACOPY PUSH2 0x1EBA JUMP JUMPDEST PUSH1 0x60 SWAP2 POP JUMPDEST POP POP SWAP1 POP DUP1 PUSH2 0x1EFE JUMPI PUSH1 0x40 MLOAD PUSH32 0x8C379A000000000000000000000000000000000000000000000000000000000 DUP2 MSTORE PUSH1 0x4 ADD PUSH2 0x1EF5 SWAP1 PUSH2 0x3306 JUMP JUMPDEST PUSH1 0x40 MLOAD DUP1 SWAP2 SUB SWAP1 REVERT JUMPDEST DUP3 PUSH20 0xFFFFFFFFFFFFFFFFFFFFFFFFFFFFFFFFFFFFFFFF AND PUSH32 0x6C461460F28AF1386F23DC4C0C7F4E2E54F0DB320A8EDC08803E4B787F6DB325 DUP4 PUSH1 0x40 MLOAD PUSH2 0x1F44 SWAP2 SWAP1 PUSH2 0x23E2 JUMP JUMPDEST PUSH1 0x40 MLOAD DUP1 SWAP2 SUB SWAP1 LOG2 POP JUMPDEST POP POP DUP1 DUP1 PUSH1 0x1 ADD SWAP2 POP POP PUSH2 0x1DE8 JUMP JUMPDEST POP DUP1 PUSH1 0xC PUSH0 DUP3 DUP3 SLOAD PUSH2 0x1F6F SWAP2 SWAP1 PUSH2 0x27ED JUMP JUMPDEST SWAP3 POP POP DUP2 SWAP1 SSTORE POP POP JUMP JUMPDEST PUSH1 0xB SLOAD DUP2 JUMP JUMPDEST PUSH0 DUP1 PUSH0 PUSH1 0x2 PUSH0 DUP6 PUSH20 0xFFFFFFFFFFFFFFFFFFFFFFFFFFFFFFFFFFFFFFFF AND PUSH20 0xFFFFFFFFFFFFFFFFFFFFFFFFFFFFFFFFFFFFFFFF AND DUP2 MSTORE PUSH1 0x20 ADD SWAP1 DUP2 MSTORE PUSH1 0x20 ADD PUSH0 KECCAK256 SLOAD PUSH1 0x3 PUSH0 DUP7 PUSH20 0xFFFFFFFFFFFFFFFFFFFFFFFFFFFFFFFFFFFFFFFF AND PUSH20 0xFFFFFFFFFFFFFFFFFFFFFFFFFFFFFFFFFFFFFFFF AND DUP2 MSTORE PUSH1 0x20 ADD SWAP1 DUP2 MSTORE PUSH1 0x20 ADD PUSH0 KECCAK256 SLOAD PUSH0 DUP1 DUP8 PUSH20 0xFFFFFFFFFFFFFFFFFFFFFFFFFFFFFFFFFFFFFFFF AND PUSH20 0xFFFFFFFFFFFFFFFFFFFFFFFFFFFFFFFFFFFFFFFF AND DUP2 MSTORE PUSH1 0x20 ADD SWAP1 DUP2 MSTORE PUSH1 0x20 ADD PUSH0 KECCAK256 SLOAD SWAP3 POP SWAP3 POP SWAP3 POP SWAP2 SWAP4 SWAP1 SWAP3 POP JUMP JUMPDEST PUSH1 0x6 SLOAD DUP2 JUMP JUMPDEST PUSH0 CALLVALUE GT PUSH2 0x2090 JUMPI PUSH1 0x40 MLOAD PUSH32 0x8C379A000000000000000000000000000000000000000000000000000000000 DUP2 MSTORE PUSH1 0x4 ADD PUSH2 0x2087 SWAP1 PUSH2 0x3394 JUMP JUMPDEST PUSH1 0x40 MLOAD DUP1 SWAP2 SUB SWAP1 REVERT JUMPDEST CALLVALUE PUSH1 0x2 PUSH0 CALLER PUSH20 0xFFFFFFFFFFFFFFFFFFFFFFFFFFFFFFFFFFFFFFFF AND PUSH20 0xFFFFFFFFFFFFFFFFFFFFFFFFFFFFFFFFFFFFFFFF AND DUP2 MSTORE PUSH1 0x20 ADD SWAP1 DUP2 MSTORE PUSH1 0x20 ADD PUSH0 KECCAK256 PUSH0 DUP3 DUP3 SLOAD PUSH2 0x20DC SWAP2 SWAP1 PUSH2 0x2B35 JUMP JUMPDEST SWAP3 POP POP DUP2 SWAP1 SSTORE POP CALLVALUE PUSH1 0x4 PUSH0 DUP3 DUP3 SLOAD PUSH2 0x20F4 SWAP2 SWAP1 PUSH2 0x2B35 JUMP JUMPDEST SWAP3 POP POP DUP2 SWAP1 SSTORE POP CALLER PUSH20 0xFFFFFFFFFFFFFFFFFFFFFFFFFFFFFFFFFFFFFFFF AND PUSH32 0xE1FFFCC4923D04B559F4D29A8BFC6CDA04EB5B0D3C460751C2402C5C5CC9109C CALLVALUE PUSH1 0x40 MLOAD PUSH2 0x2141 SWAP2 SWAP1 PUSH2 0x23E2 JUMP JUMPDEST PUSH1 0x40 MLOAD DUP1 SWAP2 SUB SWAP1 LOG2 PUSH1 0xA CALLER SWAP1 DUP1 PUSH1 0x1 DUP2 SLOAD ADD DUP1 DUP3 SSTORE DUP1 SWAP2 POP POP PUSH1 0x1 SWAP1 SUB SWAP1 PUSH0 MSTORE PUSH1 0x20 PUSH0 KECCAK256 ADD PUSH0 SWAP1 SWAP2 SWAP1 SWAP2 SWAP1 SWAP2 PUSH2 0x100 EXP DUP2 SLOAD DUP2 PUSH20 0xFFFFFFFFFFFFFFFFFFFFFFFFFFFFFFFFFFFFFFFF MUL NOT AND SWAP1 DUP4 PUSH20 0xFFFFFFFFFFFFFFFFFFFFFFFFFFFFFFFFFFFFFFFF AND MUL OR SWAP1 SSTORE POP JUMP JUMPDEST PUSH1 0x9 PUSH1 0x20 MSTORE DUP2 PUSH0 MSTORE PUSH1 0x40 PUSH0 KECCAK256 DUP2 DUP2 SLOAD DUP2 LT PUSH2 0x21C4 JUMPI PUSH0 DUP1 REVERT JUMPDEST SWAP1 PUSH0 MSTORE PUSH1 0x20 PUSH0 KECCAK256 ADD PUSH0 SWAP2 POP SWAP2 POP POP SLOAD DUP2 JUMP JUMPDEST PUSH1 0x8 PUSH1 0x20 MSTORE DUP1 PUSH0 MSTORE PUSH1 0x40 PUSH0 KECCAK256 PUSH0 SWAP2 POP SWAP1 POP DUP1 PUSH0 ADD PUSH0 SWAP1 SLOAD SWAP1 PUSH2 0x100 EXP SWAP1 DIV PUSH20 0xFFFFFFFFFFFFFFFFFFFFFFFFFFFFFFFFFFFFFFFF AND SWAP1 DUP1 PUSH1 0x1 ADD SLOAD SWAP1 DUP1 PUSH1 0x2 ADD SLOAD SWAP1 DUP1 PUSH1 0x3 ADD SLOAD SWAP1 DUP1 PUSH1 0x4 ADD SLOAD SWAP1 DUP1 PUSH1 0x5 ADD PUSH0 SWAP1 SLOAD SWAP1 PUSH2 0x100 EXP SWAP1 DIV PUSH1 0xFF AND SWAP1 DUP1 PUSH1 0x5 ADD PUSH1 0x1 SWAP1 SLOAD SWAP1 PUSH2 0x100 EXP SWAP1 DIV PUSH1 0xFF AND SWAP1 POP DUP8 JUMP JUMPDEST PUSH1 0xA DUP2 DUP2 SLOAD DUP2 LT PUSH2 0x225B JUMPI PUSH0 DUP1 REVERT JUMPDEST SWAP1 PUSH0 MSTORE PUSH1 0x20 PUSH0 KECCAK256 ADD PUSH0 SWAP2 POP SLOAD SWAP1 PUSH2 0x100 EXP SWAP1 DIV PUSH20 0xFFFFFFFFFFFFFFFFFFFFFFFFFFFFFFFFFFFFFFFF AND DUP2 JUMP JUMPDEST PUSH0 DUP1 DUP3 GT PUSH2 0x22CA JUMPI PUSH1 0x40 MLOAD PUSH32 0x8C379A000000000000000000000000000000000000000000000000000000000 DUP2 MSTORE PUSH1 0x4 ADD PUSH2 0x22C1 SWAP1 PUSH2 0x31A8 JUMP JUMPDEST PUSH1 0x40 MLOAD DUP1 SWAP2 SUB SWAP1 REVERT JUMPDEST PUSH0 PUSH1 0x64 PUSH1 0x6 SLOAD DUP5 PUSH2 0x22DB SWAP2 SWAP1 PUSH2 0x2B8F JUMP JUMPDEST PUSH2 0x22E5 SWAP2 SWAP1 PUSH2 0x2D3A JUMP JUMPDEST SWAP1 POP DUP1 DUP4 PUSH2 0x22F3 SWAP2 SWAP1 PUSH2 0x2B35 JUMP JUMPDEST SWAP2 POP POP SWAP2 SWAP1 POP JUMP JUMPDEST PUSH0 PUSH1 0x20 MSTORE DUP1 PUSH0 MSTORE PUSH1 0x40 PUSH0 KECCAK256 PUSH0 SWAP2 POP SWAP1 POP SLOAD DUP2 JUMP JUMPDEST PUSH1 0x2 PUSH1 0x20 MSTORE DUP1 PUSH0 MSTORE PUSH1 0x40 PUSH0 KECCAK256 PUSH0 SWAP2 POP SWAP1 POP SLOAD DUP2 JUMP JUMPDEST PUSH0 DUP1 PUSH0 JUMPDEST PUSH1 0xA DUP1 SLOAD SWAP1 POP DUP2 LT ISZERO PUSH2 0x23BD JUMPI DUP4 PUSH20 0xFFFFFFFFFFFFFFFFFFFFFFFFFFFFFFFFFFFFFFFF AND PUSH1 0xA DUP3 DUP2 SLOAD DUP2 LT PUSH2 0x2360 JUMPI PUSH2 0x235F PUSH2 0x28C9 JUMP JUMPDEST JUMPDEST SWAP1 PUSH0 MSTORE PUSH1 0x20 PUSH0 KECCAK256 ADD PUSH0 SWAP1 SLOAD SWAP1 PUSH2 0x100 EXP SWAP1 DIV PUSH20 0xFFFFFFFFFFFFFFFFFFFFFFFFFFFFFFFFFFFFFFFF AND PUSH20 0xFFFFFFFFFFFFFFFFFFFFFFFFFFFFFFFFFFFFFFFF AND SUB PUSH2 0x23B0 JUMPI PUSH1 0x1 DUP2 SWAP3 POP SWAP3 POP POP PUSH2 0x23C5 JUMP JUMPDEST DUP1 DUP1 PUSH1 0x1 ADD SWAP2 POP POP PUSH2 0x2328 JUMP JUMPDEST POP PUSH0 DUP1 SWAP2 POP SWAP2 POP JUMPDEST SWAP2 POP SWAP2 JUMP JUMPDEST PUSH0 DUP2 SWAP1 POP SWAP2 SWAP1 POP JUMP JUMPDEST PUSH2 0x23DC DUP2 PUSH2 0x23CA JUMP JUMPDEST DUP3 MSTORE POP POP JUMP JUMPDEST PUSH0 PUSH1 0x20 DUP3 ADD SWAP1 POP PUSH2 0x23F5 PUSH0 DUP4 ADD DUP5 PUSH2 0x23D3 JUMP JUMPDEST SWAP3 SWAP2 POP POP JUMP JUMPDEST PUSH0 DUP1 REVERT JUMPDEST PUSH2 0x2408 DUP2 PUSH2 0x23CA JUMP JUMPDEST DUP2 EQ PUSH2 0x2412 JUMPI PUSH0 DUP1 REVERT JUMPDEST POP JUMP JUMPDEST PUSH0 DUP2 CALLDATALOAD SWAP1 POP PUSH2 0x2423 DUP2 PUSH2 0x23FF JUMP JUMPDEST SWAP3 SWAP2 POP POP JUMP JUMPDEST PUSH0 PUSH1 0x20 DUP3 DUP5 SUB SLT ISZERO PUSH2 0x243E JUMPI PUSH2 0x243D PUSH2 0x23FB JUMP JUMPDEST JUMPDEST PUSH0 PUSH2 0x244B DUP5 DUP3 DUP6 ADD PUSH2 0x2415 JUMP JUMPDEST SWAP2 POP POP SWAP3 SWAP2 POP POP JUMP JUMPDEST PUSH0 PUSH20 0xFFFFFFFFFFFFFFFFFFFFFFFFFFFFFFFFFFFFFFFF DUP3 AND SWAP1 POP SWAP2 SWAP1 POP JUMP JUMPDEST PUSH0 PUSH2 0x247D DUP3 PUSH2 0x2454 JUMP JUMPDEST SWAP1 POP SWAP2 SWAP1 POP JUMP JUMPDEST PUSH2 0x248D DUP2 PUSH2 0x2473 JUMP JUMPDEST DUP2 EQ PUSH2 0x2497 JUMPI PUSH0 DUP1 REVERT JUMPDEST POP JUMP JUMPDEST PUSH0 DUP2 CALLDATALOAD SWAP1 POP PUSH2 0x24A8 DUP2 PUSH2 0x2484 JUMP JUMPDEST SWAP3 SWAP2 POP POP JUMP JUMPDEST PUSH0 PUSH1 0x20 DUP3 DUP5 SUB SLT ISZERO PUSH2 0x24C3 JUMPI PUSH2 0x24C2 PUSH2 0x23FB JUMP JUMPDEST JUMPDEST PUSH0 PUSH2 0x24D0 DUP5 DUP3 DUP6 ADD PUSH2 0x249A JUMP JUMPDEST SWAP2 POP POP SWAP3 SWAP2 POP POP JUMP JUMPDEST PUSH0 DUP2 ISZERO ISZERO SWAP1 POP SWAP2 SWAP1 POP JUMP JUMPDEST PUSH2 0x24ED DUP2 PUSH2 0x24D9 JUMP JUMPDEST DUP3 MSTORE POP POP JUMP JUMPDEST PUSH0 PUSH1 0x20 DUP3 ADD SWAP1 POP PUSH2 0x2506 PUSH0 DUP4 ADD DUP5 PUSH2 0x24E4 JUMP JUMPDEST SWAP3 SWAP2 POP POP JUMP JUMPDEST PUSH2 0x2515 DUP2 PUSH2 0x2473 JUMP JUMPDEST DUP3 MSTORE POP POP JUMP JUMPDEST PUSH0 PUSH1 0x20 DUP3 ADD SWAP1 POP PUSH2 0x252E PUSH0 DUP4 ADD DUP5 PUSH2 0x250C JUMP JUMPDEST SWAP3 SWAP2 POP POP JUMP JUMPDEST PUSH0 DUP1 PUSH1 0x40 DUP4 DUP6 SUB SLT ISZERO PUSH2 0x254A JUMPI PUSH2 0x2549 PUSH2 0x23FB JUMP JUMPDEST JUMPDEST PUSH0 PUSH2 0x2557 DUP6 DUP3 DUP7 ADD PUSH2 0x2415 JUMP JUMPDEST SWAP3 POP POP PUSH1 0x20 PUSH2 0x2568 DUP6 DUP3 DUP7 ADD PUSH2 0x2415 JUMP JUMPDEST SWAP2 POP POP SWAP3 POP SWAP3 SWAP1 POP JUMP JUMPDEST PUSH0 PUSH1 0x60 DUP3 ADD SWAP1 POP PUSH2 0x2585 PUSH0 DUP4 ADD DUP7 PUSH2 0x23D3 JUMP JUMPDEST PUSH2 0x2592 PUSH1 0x20 DUP4 ADD DUP6 PUSH2 0x23D3 JUMP JUMPDEST PUSH2 0x259F PUSH1 0x40 DUP4 ADD DUP5 PUSH2 0x23D3 JUMP JUMPDEST SWAP5 SWAP4 POP POP POP POP JUMP JUMPDEST PUSH0 DUP1 PUSH1 0x40 DUP4 DUP6 SUB SLT ISZERO PUSH2 0x25BD JUMPI PUSH2 0x25BC PUSH2 0x23FB JUMP JUMPDEST JUMPDEST PUSH0 PUSH2 0x25CA DUP6 DUP3 DUP7 ADD PUSH2 0x249A JUMP JUMPDEST SWAP3 POP POP PUSH1 0x20 PUSH2 0x25DB DUP6 DUP3 DUP7 ADD PUSH2 0x2415 JUMP JUMPDEST SWAP2 POP POP SWAP3 POP SWAP3 SWAP1 POP JUMP JUMPDEST PUSH0 PUSH1 0xE0 DUP3 ADD SWAP1 POP PUSH2 0x25F8 PUSH0 DUP4 ADD DUP11 PUSH2 0x250C JUMP JUMPDEST PUSH2 0x2605 PUSH1 0x20 DUP4 ADD DUP10 PUSH2 0x23D3 JUMP JUMPDEST PUSH2 0x2612 PUSH1 0x40 DUP4 ADD DUP9 PUSH2 0x23D3 JUMP JUMPDEST PUSH2 0x261F PUSH1 0x60 DUP4 ADD DUP8 PUSH2 0x23D3 JUMP JUMPDEST PUSH2 0x262C PUSH1 0x80 DUP4 ADD DUP7 PUSH2 0x23D3 JUMP JUMPDEST PUSH2 0x2639 PUSH1 0xA0 DUP4 ADD DUP6 PUSH2 0x24E4 JUMP JUMPDEST PUSH2 0x2646 PUSH1 0xC0 DUP4 ADD DUP5 PUSH2 0x24E4 JUMP JUMPDEST SWAP9 SWAP8 POP POP POP POP POP POP POP POP JUMP JUMPDEST PUSH0 DUP3 DUP3 MSTORE PUSH1 0x20 DUP3 ADD SWAP1 POP SWAP3 SWAP2 POP POP JUMP JUMPDEST PUSH32 0x596F7520617265206E6F742061206465706F7369746F722E0000000000000000 PUSH0 DUP3 ADD MSTORE POP JUMP JUMPDEST PUSH0 PUSH2 0x2696 PUSH1 0x18 DUP4 PUSH2 0x2652 JUMP JUMPDEST SWAP2 POP PUSH2 0x26A1 DUP3 PUSH2 0x2662 JUMP JUMPDEST PUSH1 0x20 DUP3 ADD SWAP1 POP SWAP2 SWAP1 POP JUMP JUMPDEST PUSH0 PUSH1 0x20 DUP3 ADD SWAP1 POP DUP2 DUP2 SUB PUSH0 DUP4 ADD MSTORE PUSH2 0x26C3 DUP2 PUSH2 0x268A JUMP JUMPDEST SWAP1 POP SWAP2 SWAP1 POP JUMP JUMPDEST PUSH32 0x596F7520646F6E277420686176652074686973206D75636820616D6F756E7420 PUSH0 DUP3 ADD MSTORE PUSH32 0x6F66206465706F73697420746F20776974686472617700000000000000000000 PUSH1 0x20 DUP3 ADD MSTORE POP JUMP JUMPDEST PUSH0 PUSH2 0x2724 PUSH1 0x36 DUP4 PUSH2 0x2652 JUMP JUMPDEST SWAP2 POP PUSH2 0x272F DUP3 PUSH2 0x26CA JUMP JUMPDEST PUSH1 0x40 DUP3 ADD SWAP1 POP SWAP2 SWAP1 POP JUMP JUMPDEST PUSH0 PUSH1 0x20 DUP3 ADD SWAP1 POP DUP2 DUP2 SUB PUSH0 DUP4 ADD MSTORE PUSH2 0x2751 DUP2 PUSH2 0x2718 JUMP JUMPDEST SWAP1 POP SWAP2 SWAP1 POP JUMP JUMPDEST PUSH32 0x4E6F7420656E6F756768206C697175696469747920696E20706F6F6C00000000 PUSH0 DUP3 ADD MSTORE POP JUMP JUMPDEST PUSH0 PUSH2 0x278C PUSH1 0x1C DUP4 PUSH2 0x2652 JUMP JUMPDEST SWAP2 POP PUSH2 0x2797 DUP3 PUSH2 0x2758 JUMP JUMPDEST PUSH1 0x20 DUP3 ADD SWAP1 POP SWAP2 SWAP1 POP JUMP JUMPDEST PUSH0 PUSH1 0x20 DUP3 ADD SWAP1 POP DUP2 DUP2 SUB PUSH0 DUP4 ADD MSTORE PUSH2 0x27B9 DUP2 PUSH2 0x2780 JUMP JUMPDEST SWAP1 POP SWAP2 SWAP1 POP JUMP JUMPDEST PUSH32 0x4E487B7100000000000000000000000000000000000000000000000000000000 PUSH0 MSTORE PUSH1 0x11 PUSH1 0x4 MSTORE PUSH1 0x24 PUSH0 REVERT JUMPDEST PUSH0 PUSH2 0x27F7 DUP3 PUSH2 0x23CA JUMP JUMPDEST SWAP2 POP PUSH2 0x2802 DUP4 PUSH2 0x23CA JUMP JUMPDEST SWAP3 POP DUP3 DUP3 SUB SWAP1 POP DUP2 DUP2 GT ISZERO PUSH2 0x281A JUMPI PUSH2 0x2819 PUSH2 0x27C0 JUMP JUMPDEST JUMPDEST SWAP3 SWAP2 POP POP JUMP JUMPDEST PUSH0 DUP2 SWAP1 POP SWAP3 SWAP2 POP POP JUMP JUMPDEST POP JUMP JUMPDEST PUSH0 PUSH2 0x2838 PUSH0 DUP4 PUSH2 0x2820 JUMP JUMPDEST SWAP2 POP PUSH2 0x2843 DUP3 PUSH2 0x282A JUMP JUMPDEST PUSH0 DUP3 ADD SWAP1 POP SWAP2 SWAP1 POP JUMP JUMPDEST PUSH0 PUSH2 0x2857 DUP3 PUSH2 0x282D JUMP JUMPDEST SWAP2 POP DUP2 SWAP1 POP SWAP2 SWAP1 POP JUMP JUMPDEST PUSH32 0x5769746864726177616C207472616E73666572206661696C6564000000000000 PUSH0 DUP3 ADD MSTORE POP JUMP JUMPDEST PUSH0 PUSH2 0x2895 PUSH1 0x1A DUP4 PUSH2 0x2652 JUMP JUMPDEST SWAP2 POP PUSH2 0x28A0 DUP3 PUSH2 0x2861 JUMP JUMPDEST PUSH1 0x20 DUP3 ADD SWAP1 POP SWAP2 SWAP1 POP JUMP JUMPDEST PUSH0 PUSH1 0x20 DUP3 ADD SWAP1 POP DUP2 DUP2 SUB PUSH0 DUP4 ADD MSTORE PUSH2 0x28C2 DUP2 PUSH2 0x2889 JUMP JUMPDEST SWAP1 POP SWAP2 SWAP1 POP JUMP JUMPDEST PUSH32 0x4E487B7100000000000000000000000000000000000000000000000000000000 PUSH0 MSTORE PUSH1 0x32 PUSH1 0x4 MSTORE PUSH1 0x24 PUSH0 REVERT JUMPDEST PUSH32 0x4E487B7100000000000000000000000000000000000000000000000000000000 PUSH0 MSTORE PUSH1 0x31 PUSH1 0x4 MSTORE PUSH1 0x24 PUSH0 REVERT JUMPDEST PUSH32 0x4F6E6C7920746865206F776E65722063616E20706572666F726D207468697320 PUSH0 DUP3 ADD MSTORE PUSH32 0x616374696F6E0000000000000000000000000000000000000000000000000000 PUSH1 0x20 DUP3 ADD MSTORE POP JUMP JUMPDEST PUSH0 PUSH2 0x297D PUSH1 0x26 DUP4 PUSH2 0x2652 JUMP JUMPDEST SWAP2 POP PUSH2 0x2988 DUP3 PUSH2 0x2923 JUMP JUMPDEST PUSH1 0x40 DUP3 ADD SWAP1 POP SWAP2 SWAP1 POP JUMP JUMPDEST PUSH0 PUSH1 0x20 DUP3 ADD SWAP1 POP DUP2 DUP2 SUB PUSH0 DUP4 ADD MSTORE PUSH2 0x29AA DUP2 PUSH2 0x2971 JUMP JUMPDEST SWAP1 POP SWAP2 SWAP1 POP JUMP JUMPDEST PUSH32 0x4E6F20616374697665206C6F616E7320666F72207468697320626F72726F7765 PUSH0 DUP3 ADD MSTORE PUSH32 0x7200000000000000000000000000000000000000000000000000000000000000 PUSH1 0x20 DUP3 ADD MSTORE POP JUMP JUMPDEST PUSH0 PUSH2 0x2A0B PUSH1 0x21 DUP4 PUSH2 0x2652 JUMP JUMPDEST SWAP2 POP PUSH2 0x2A16 DUP3 PUSH2 0x29B1 JUMP JUMPDEST PUSH1 0x40 DUP3 ADD SWAP1 POP SWAP2 SWAP1 POP JUMP JUMPDEST PUSH0 PUSH1 0x20 DUP3 ADD SWAP1 POP DUP2 DUP2 SUB PUSH0 DUP4 ADD MSTORE PUSH2 0x2A38 DUP2 PUSH2 0x29FF JUMP JUMPDEST SWAP1 POP SWAP2 SWAP1 POP JUMP JUMPDEST PUSH32 0x4E6F20636F6C6C61746572616C20746F207365697A6500000000000000000000 PUSH0 DUP3 ADD MSTORE POP JUMP JUMPDEST PUSH0 PUSH2 0x2A73 PUSH1 0x16 DUP4 PUSH2 0x2652 JUMP JUMPDEST SWAP2 POP PUSH2 0x2A7E DUP3 PUSH2 0x2A3F JUMP JUMPDEST PUSH1 0x20 DUP3 ADD SWAP1 POP SWAP2 SWAP1 POP JUMP JUMPDEST PUSH0 PUSH1 0x20 DUP3 ADD SWAP1 POP DUP2 DUP2 SUB PUSH0 DUP4 ADD MSTORE PUSH2 0x2AA0 DUP2 PUSH2 0x2A67 JUMP JUMPDEST SWAP1 POP SWAP2 SWAP1 POP JUMP JUMPDEST PUSH32 0x4661696C656420746F207472616E7366657220636F6C6C61746572616C20746F PUSH0 DUP3 ADD MSTORE PUSH32 0x206F776E65720000000000000000000000000000000000000000000000000000 PUSH1 0x20 DUP3 ADD MSTORE POP JUMP JUMPDEST PUSH0 PUSH2 0x2B01 PUSH1 0x26 DUP4 PUSH2 0x2652 JUMP JUMPDEST SWAP2 POP PUSH2 0x2B0C DUP3 PUSH2 0x2AA7 JUMP JUMPDEST PUSH1 0x40 DUP3 ADD SWAP1 POP SWAP2 SWAP1 POP JUMP JUMPDEST PUSH0 PUSH1 0x20 DUP3 ADD SWAP1 POP DUP2 DUP2 SUB PUSH0 DUP4 ADD MSTORE PUSH2 0x2B2E DUP2 PUSH2 0x2AF5 JUMP JUMPDEST SWAP1 POP SWAP2 SWAP1 POP JUMP JUMPDEST PUSH0 PUSH2 0x2B3F DUP3 PUSH2 0x23CA JUMP JUMPDEST SWAP2 POP PUSH2 0x2B4A DUP4 PUSH2 0x23CA JUMP JUMPDEST SWAP3 POP DUP3 DUP3 ADD SWAP1 POP DUP1 DUP3 GT ISZERO PUSH2 0x2B62 JUMPI PUSH2 0x2B61 PUSH2 0x27C0 JUMP JUMPDEST JUMPDEST SWAP3 SWAP2 POP POP JUMP JUMPDEST PUSH0 PUSH1 0x40 DUP3 ADD SWAP1 POP PUSH2 0x2B7B PUSH0 DUP4 ADD DUP6 PUSH2 0x23D3 JUMP JUMPDEST PUSH2 0x2B88 PUSH1 0x20 DUP4 ADD DUP5 PUSH2 0x23D3 JUMP JUMPDEST SWAP4 SWAP3 POP POP POP JUMP JUMPDEST PUSH0 PUSH2 0x2B99 DUP3 PUSH2 0x23CA JUMP JUMPDEST SWAP2 POP PUSH2 0x2BA4 DUP4 PUSH2 0x23CA JUMP JUMPDEST SWAP3 POP DUP3 DUP3 MUL PUSH2 0x2BB2 DUP2 PUSH2 0x23CA JUMP JUMPDEST SWAP2 POP DUP3 DUP3 DIV DUP5 EQ DUP4 ISZERO OR PUSH2 0x2BC9 JUMPI PUSH2 0x2BC8 PUSH2 0x27C0 JUMP JUMPDEST JUMPDEST POP SWAP3 SWAP2 POP POP JUMP JUMPDEST PUSH32 0x4E6F742061206465706F7369746F722E00000000000000000000000000000000 PUSH0 DUP3 ADD MSTORE POP JUMP JUMPDEST PUSH0 PUSH2 0x2C04 PUSH1 0x10 DUP4 PUSH2 0x2652 JUMP JUMPDEST SWAP2 POP PUSH2 0x2C0F DUP3 PUSH2 0x2BD0 JUMP JUMPDEST PUSH1 0x20 DUP3 ADD SWAP1 POP SWAP2 SWAP1 POP JUMP JUMPDEST PUSH0 PUSH1 0x20 DUP3 ADD SWAP1 POP DUP2 DUP2 SUB PUSH0 DUP4 ADD MSTORE PUSH2 0x2C31 DUP2 PUSH2 0x2BF8 JUMP JUMPDEST SWAP1 POP SWAP2 SWAP1 POP JUMP JUMPDEST PUSH0 PUSH2 0x2C42 DUP3 PUSH2 0x23CA JUMP JUMPDEST SWAP2 POP PUSH32 0xFFFFFFFFFFFFFFFFFFFFFFFFFFFFFFFFFFFFFFFFFFFFFFFFFFFFFFFFFFFFFFFF DUP3 SUB PUSH2 0x2C74 JUMPI PUSH2 0x2C73 PUSH2 0x27C0 JUMP JUMPDEST JUMPDEST PUSH1 0x1 DUP3 ADD SWAP1 POP SWAP2 SWAP1 POP JUMP JUMPDEST PUSH32 0x4C6F616E20616D6F756E74206D7573742062652067726561746572207468616E PUSH0 DUP3 ADD MSTORE PUSH32 0x2030000000000000000000000000000000000000000000000000000000000000 PUSH1 0x20 DUP3 ADD MSTORE POP JUMP JUMPDEST PUSH0 PUSH2 0x2CD9 PUSH1 0x22 DUP4 PUSH2 0x2652 JUMP JUMPDEST SWAP2 POP PUSH2 0x2CE4 DUP3 PUSH2 0x2C7F JUMP JUMPDEST PUSH1 0x40 DUP3 ADD SWAP1 POP SWAP2 SWAP1 POP JUMP JUMPDEST PUSH0 PUSH1 0x20 DUP3 ADD SWAP1 POP DUP2 DUP2 SUB PUSH0 DUP4 ADD MSTORE PUSH2 0x2D06 DUP2 PUSH2 0x2CCD JUMP JUMPDEST SWAP1 POP SWAP2 SWAP1 POP JUMP JUMPDEST PUSH32 0x4E487B7100000000000000000000000000000000000000000000000000000000 PUSH0 MSTORE PUSH1 0x12 PUSH1 0x4 MSTORE PUSH1 0x24 PUSH0 REVERT JUMPDEST PUSH0 PUSH2 0x2D44 DUP3 PUSH2 0x23CA JUMP JUMPDEST SWAP2 POP PUSH2 0x2D4F DUP4 PUSH2 0x23CA JUMP JUMPDEST SWAP3 POP DUP3 PUSH2 0x2D5F JUMPI PUSH2 0x2D5E PUSH2 0x2D0D JUMP JUMPDEST JUMPDEST DUP3 DUP3 DIV SWAP1 POP SWAP3 SWAP2 POP POP JUMP JUMPDEST PUSH32 0x436F6C6C61746572616C206D7573742062652031353025206F66206C6F616E20 PUSH0 DUP3 ADD MSTORE PUSH32 0x616D6F756E740000000000000000000000000000000000000000000000000000 PUSH1 0x20 DUP3 ADD MSTORE POP JUMP JUMPDEST PUSH0 PUSH2 0x2DC4 PUSH1 0x26 DUP4 PUSH2 0x2652 JUMP JUMPDEST SWAP2 POP PUSH2 0x2DCF DUP3 PUSH2 0x2D6A JUMP JUMPDEST PUSH1 0x40 DUP3 ADD SWAP1 POP SWAP2 SWAP1 POP JUMP JUMPDEST PUSH0 PUSH1 0x20 DUP3 ADD SWAP1 POP DUP2 DUP2 SUB PUSH0 DUP4 ADD MSTORE PUSH2 0x2DF1 DUP2 PUSH2 0x2DB8 JUMP JUMPDEST SWAP1 POP SWAP2 SWAP1 POP JUMP JUMPDEST PUSH32 0x4C6F616E207472616E73666572206661696C6564000000000000000000000000 PUSH0 DUP3 ADD MSTORE POP JUMP JUMPDEST PUSH0 PUSH2 0x2E2C PUSH1 0x14 DUP4 PUSH2 0x2652 JUMP JUMPDEST SWAP2 POP PUSH2 0x2E37 DUP3 PUSH2 0x2DF8 JUMP JUMPDEST PUSH1 0x20 DUP3 ADD SWAP1 POP SWAP2 SWAP1 POP JUMP JUMPDEST PUSH0 PUSH1 0x20 DUP3 ADD SWAP1 POP DUP2 DUP2 SUB PUSH0 DUP4 ADD MSTORE PUSH2 0x2E59 DUP2 PUSH2 0x2E20 JUMP JUMPDEST SWAP1 POP SWAP2 SWAP1 POP JUMP JUMPDEST PUSH32 0x4E6F206C697175696469747920746F2061636372756520696E74657265737420 PUSH0 DUP3 ADD MSTORE PUSH32 0x6F6E000000000000000000000000000000000000000000000000000000000000 PUSH1 0x20 DUP3 ADD MSTORE POP JUMP JUMPDEST PUSH0 PUSH2 0x2EBA PUSH1 0x22 DUP4 PUSH2 0x2652 JUMP JUMPDEST SWAP2 POP PUSH2 0x2EC5 DUP3 PUSH2 0x2E60 JUMP JUMPDEST PUSH1 0x40 DUP3 ADD SWAP1 POP SWAP2 SWAP1 POP JUMP JUMPDEST PUSH0 PUSH1 0x20 DUP3 ADD SWAP1 POP DUP2 DUP2 SUB PUSH0 DUP4 ADD MSTORE PUSH2 0x2EE7 DUP2 PUSH2 0x2EAE JUMP JUMPDEST SWAP1 POP SWAP2 SWAP1 POP JUMP JUMPDEST PUSH32 0x4E6F7420796F7572206C6F616E00000000000000000000000000000000000000 PUSH0 DUP3 ADD MSTORE POP JUMP JUMPDEST PUSH0 PUSH2 0x2F22 PUSH1 0xD DUP4 PUSH2 0x2652 JUMP JUMPDEST SWAP2 POP PUSH2 0x2F2D DUP3 PUSH2 0x2EEE JUMP JUMPDEST PUSH1 0x20 DUP3 ADD SWAP1 POP SWAP2 SWAP1 POP JUMP JUMPDEST PUSH0 PUSH1 0x20 DUP3 ADD SWAP1 POP DUP2 DUP2 SUB PUSH0 DUP4 ADD MSTORE PUSH2 0x2F4F DUP2 PUSH2 0x2F16 JUMP JUMPDEST SWAP1 POP SWAP2 SWAP1 POP JUMP JUMPDEST PUSH32 0x4C6F616E206973206E6F74206163746976650000000000000000000000000000 PUSH0 DUP3 ADD MSTORE POP JUMP JUMPDEST PUSH0 PUSH2 0x2F8A PUSH1 0x12 DUP4 PUSH2 0x2652 JUMP JUMPDEST SWAP2 POP PUSH2 0x2F95 DUP3 PUSH2 0x2F56 JUMP JUMPDEST PUSH1 0x20 DUP3 ADD SWAP1 POP SWAP2 SWAP1 POP JUMP JUMPDEST PUSH0 PUSH1 0x20 DUP3 ADD SWAP1 POP DUP2 DUP2 SUB PUSH0 DUP4 ADD MSTORE PUSH2 0x2FB7 DUP2 PUSH2 0x2F7E JUMP JUMPDEST SWAP1 POP SWAP2 SWAP1 POP JUMP JUMPDEST PUSH32 0x4C6F616E20616C72656164792072657061696400000000000000000000000000 PUSH0 DUP3 ADD MSTORE POP JUMP JUMPDEST PUSH0 PUSH2 0x2FF2 PUSH1 0x13 DUP4 PUSH2 0x2652 JUMP JUMPDEST SWAP2 POP PUSH2 0x2FFD DUP3 PUSH2 0x2FBE JUMP JUMPDEST PUSH1 0x20 DUP3 ADD SWAP1 POP SWAP2 SWAP1 POP JUMP JUMPDEST PUSH0 PUSH1 0x20 DUP3 ADD SWAP1 POP DUP2 DUP2 SUB PUSH0 DUP4 ADD MSTORE PUSH2 0x301F DUP2 PUSH2 0x2FE6 JUMP JUMPDEST SWAP1 POP SWAP2 SWAP1 POP JUMP JUMPDEST PUSH32 0x496E73756666696369656E742072657061796D656E7420616D6F756E74000000 PUSH0 DUP3 ADD MSTORE POP JUMP JUMPDEST PUSH0 PUSH2 0x305A PUSH1 0x1D DUP4 PUSH2 0x2652 JUMP JUMPDEST SWAP2 POP PUSH2 0x3065 DUP3 PUSH2 0x3026 JUMP JUMPDEST PUSH1 0x20 DUP3 ADD SWAP1 POP SWAP2 SWAP1 POP JUMP JUMPDEST PUSH0 PUSH1 0x20 DUP3 ADD SWAP1 POP DUP2 DUP2 SUB PUSH0 DUP4 ADD MSTORE PUSH2 0x3087 DUP2 PUSH2 0x304E JUMP JUMPDEST SWAP1 POP SWAP2 SWAP1 POP JUMP JUMPDEST PUSH32 0x4E6F20636F6C6C61746572616C20746F2072657475726E000000000000000000 PUSH0 DUP3 ADD MSTORE POP JUMP JUMPDEST PUSH0 PUSH2 0x30C2 PUSH1 0x17 DUP4 PUSH2 0x2652 JUMP JUMPDEST SWAP2 POP PUSH2 0x30CD DUP3 PUSH2 0x308E JUMP JUMPDEST PUSH1 0x20 DUP3 ADD SWAP1 POP SWAP2 SWAP1 POP JUMP JUMPDEST PUSH0 PUSH1 0x20 DUP3 ADD SWAP1 POP DUP2 DUP2 SUB PUSH0 DUP4 ADD MSTORE PUSH2 0x30EF DUP2 PUSH2 0x30B6 JUMP JUMPDEST SWAP1 POP SWAP2 SWAP1 POP JUMP JUMPDEST PUSH32 0x4661696C656420746F2072657475726E20636F6C6C61746572616C0000000000 PUSH0 DUP3 ADD MSTORE POP JUMP JUMPDEST PUSH0 PUSH2 0x312A PUSH1 0x1B DUP4 PUSH2 0x2652 JUMP JUMPDEST SWAP2 POP PUSH2 0x3135 DUP3 PUSH2 0x30F6 JUMP JUMPDEST PUSH1 0x20 DUP3 ADD SWAP1 POP SWAP2 SWAP1 POP JUMP JUMPDEST PUSH0 PUSH1 0x20 DUP3 ADD SWAP1 POP DUP2 DUP2 SUB PUSH0 DUP4 ADD MSTORE PUSH2 0x3157 DUP2 PUSH2 0x311E JUMP JUMPDEST SWAP1 POP SWAP2 SWAP1 POP JUMP JUMPDEST PUSH32 0x4C6F616E20616D6F756E74206D757374206265203E2030000000000000000000 PUSH0 DUP3 ADD MSTORE POP JUMP JUMPDEST PUSH0 PUSH2 0x3192 PUSH1 0x17 DUP4 PUSH2 0x2652 JUMP JUMPDEST SWAP2 POP PUSH2 0x319D DUP3 PUSH2 0x315E JUMP JUMPDEST PUSH1 0x20 DUP3 ADD SWAP1 POP SWAP2 SWAP1 POP JUMP JUMPDEST PUSH0 PUSH1 0x20 DUP3 ADD SWAP1 POP DUP2 DUP2 SUB PUSH0 DUP4 ADD MSTORE PUSH2 0x31BF DUP2 PUSH2 0x3186 JUMP JUMPDEST SWAP1 POP SWAP2 SWAP1 POP JUMP JUMPDEST PUSH32 0x4C6F616E20646F6573206E6F74206578697374206F7220686173206E6F20616D PUSH0 DUP3 ADD MSTORE PUSH32 0x6F756E7400000000000000000000000000000000000000000000000000000000 PUSH1 0x20 DUP3 ADD MSTORE POP JUMP JUMPDEST PUSH0 PUSH2 0x3220 PUSH1 0x24 DUP4 PUSH2 0x2652 JUMP JUMPDEST SWAP2 POP PUSH2 0x322B DUP3 PUSH2 0x31C6 JUMP JUMPDEST PUSH1 0x40 DUP3 ADD SWAP1 POP SWAP2 SWAP1 POP JUMP JUMPDEST PUSH0 PUSH1 0x20 DUP3 ADD SWAP1 POP DUP2 DUP2 SUB PUSH0 DUP4 ADD MSTORE PUSH2 0x324D DUP2 PUSH2 0x3214 JUMP JUMPDEST SWAP1 POP SWAP2 SWAP1 POP JUMP JUMPDEST PUSH32 0x4E6F206665657320746F20646973747269627574650000000000000000000000 PUSH0 DUP3 ADD MSTORE POP JUMP JUMPDEST PUSH0 PUSH2 0x3288 PUSH1 0x15 DUP4 PUSH2 0x2652 JUMP JUMPDEST SWAP2 POP PUSH2 0x3293 DUP3 PUSH2 0x3254 JUMP JUMPDEST PUSH1 0x20 DUP3 ADD SWAP1 POP SWAP2 SWAP1 POP JUMP JUMPDEST PUSH0 PUSH1 0x20 DUP3 ADD SWAP1 POP DUP2 DUP2 SUB PUSH0 DUP4 ADD MSTORE PUSH2 0x32B5 DUP2 PUSH2 0x327C JUMP JUMPDEST SWAP1 POP SWAP2 SWAP1 POP JUMP JUMPDEST PUSH32 0x46656520646973747269627574696F6E206661696C6564000000000000000000 PUSH0 DUP3 ADD MSTORE POP JUMP JUMPDEST PUSH0 PUSH2 0x32F0 PUSH1 0x17 DUP4 PUSH2 0x2652 JUMP JUMPDEST SWAP2 POP PUSH2 0x32FB DUP3 PUSH2 0x32BC JUMP JUMPDEST PUSH1 0x20 DUP3 ADD SWAP1 POP SWAP2 SWAP1 POP JUMP JUMPDEST PUSH0 PUSH1 0x20 DUP3 ADD SWAP1 POP DUP2 DUP2 SUB PUSH0 DUP4 ADD MSTORE PUSH2 0x331D DUP2 PUSH2 0x32E4 JUMP JUMPDEST SWAP1 POP SWAP2 SWAP1 POP JUMP JUMPDEST PUSH32 0x4465706F73697420616D6F756E74206D75737420626520677265617465722074 PUSH0 DUP3 ADD MSTORE PUSH32 0x68616E2030000000000000000000000000000000000000000000000000000000 PUSH1 0x20 DUP3 ADD MSTORE POP JUMP JUMPDEST PUSH0 PUSH2 0x337E PUSH1 0x25 DUP4 PUSH2 0x2652 JUMP JUMPDEST SWAP2 POP PUSH2 0x3389 DUP3 PUSH2 0x3324 JUMP JUMPDEST PUSH1 0x40 DUP3 ADD SWAP1 POP SWAP2 SWAP1 POP JUMP JUMPDEST PUSH0 PUSH1 0x20 DUP3 ADD SWAP1 POP DUP2 DUP2 SUB PUSH0 DUP4 ADD MSTORE PUSH2 0x33AB DUP2 PUSH2 0x3372 JUMP JUMPDEST SWAP1 POP SWAP2 SWAP1 POP JUMP INVALID LOG2 PUSH5 0x6970667358 0x22 SLT KECCAK256 0xF9 PUSH22 0xF328FE62D5C14EE1C3826D85A537D33E4B08EB357D94 0xC6 TLOAD DUP15 0xFC 0xC9 PUSH25 0xB1ED64736F6C634300081A0033000000000000000000000000 "
		},
		"gasEstimates": {
			"creation": {
				"codeDepositCost": "2657600",
				"executionCost": "93473",
				"totalCost": "2751073"
			},
			"external": {
				"accrueInterest()": "infinite",
				"accruedReward()": "2537",
				"borrowings(address)": "2891",
				"calculateFeeShare(address)": "infinite",
				"calculateRepaymentAmount(uint256)": "infinite",
				"collaterals(address)": "2911",
				"contractFeeFromRepayment()": "437",
				"deposit()": "infinite",
				"depositors(uint256)": "5010",
				"deposits(address)": "2934",
				"distributeFees()": "infinite",
				"getBalances(address)": "infinite",
				"getCollateral(address)": "2940",
				"getContractBalance()": "402",
				"getLiquidityPool()": "2499",
				"getLiquidityPoolWithLoan()": "infinite",
				"getUserAccruedFees(address)": "infinite",
				"getUserBalance(address)": "infinite",
				"interestRate()": "2515",
				"interest_rate()": "2492",
				"isDepositor(address)": "infinite",
				"lastAccrualTimestamp()": "2536",
				"liquidate(address)": "infinite",
				"loanCounter()": "2471",
				"loans(uint256)": "infinite",
				"owner()": "2553",
				"repayLoan(uint256)": "infinite",
				"requiredCollateral(uint256)": "infinite",
				"requiredRepaymentAmount(uint256)": "infinite",
				"takeLoan(uint256,uint256)": "infinite",
				"totalLiquidity()": "2472",
				"userLoans(address,uint256)": "infinite",
				"withdraw(uint256)": "infinite"
			},
			"internal": {
				"findDepositorIndex(address)": "infinite"
			}
		},
		"methodIdentifiers": {
			"accrueInterest()": "a6afed95",
			"accruedReward()": "8393ea5f",
			"borrowings(address)": "96f159ba",
			"calculateFeeShare(address)": "b3f54444",
			"calculateRepaymentAmount(uint256)": "b1197239",
			"collaterals(address)": "eeb97d3b",
			"contractFeeFromRepayment()": "4ba5e2ce",
			"deposit()": "d0e30db0",
			"depositors(uint256)": "e4b2fb79",
			"deposits(address)": "fc7e286d",
			"distributeFees()": "bb57ad20",
			"getBalances(address)": "c84aae17",
			"getCollateral(address)": "9b56d6c9",
			"getContractBalance()": "6f9fb98a",
			"getLiquidityPool()": "95ddbe89",
			"getLiquidityPoolWithLoan()": "560c88ed",
			"getUserAccruedFees(address)": "34f93778",
			"getUserBalance(address)": "47734892",
			"interestRate()": "7c3a00fd",
			"interest_rate()": "cbb3d808",
			"isDepositor(address)": "2f70d1ba",
			"lastAccrualTimestamp()": "c0789dcb",
			"liquidate(address)": "2f865568",
			"loanCounter()": "34d9289e",
			"loans(uint256)": "e1ec3c68",
			"owner()": "8da5cb5b",
			"repayLoan(uint256)": "ab7b1c89",
			"requiredCollateral(uint256)": "abb7bc4a",
			"requiredRepaymentAmount(uint256)": "e59c20d0",
			"takeLoan(uint256,uint256)": "a3183125",
			"totalLiquidity()": "15770f92",
			"userLoans(address,uint256)": "d8bad5bd",
			"withdraw(uint256)": "2e1a7d4d"
		}
	},
	"abi": [
		{
			"inputs": [],
			"stateMutability": "nonpayable",
			"type": "constructor"
		},
		{
			"anonymous": false,
			"inputs": [
				{
					"indexed": true,
					"internalType": "address",
					"name": "borrower",
					"type": "address"
				},
				{
					"indexed": false,
					"internalType": "uint256",
					"name": "amount",
					"type": "uint256"
				},
				{
					"indexed": false,
					"internalType": "uint256",
					"name": "collateral",
					"type": "uint256"
				}
			],
			"name": "Borrow",
			"type": "event"
		},
		{
			"anonymous": false,
			"inputs": [
				{
					"indexed": true,
					"internalType": "address",
					"name": "lender",
					"type": "address"
				},
				{
					"indexed": false,
					"internalType": "uint256",
					"name": "amount",
					"type": "uint256"
				}
			],
			"name": "Deposit",
			"type": "event"
		},
		{
			"anonymous": false,
			"inputs": [
				{
					"indexed": true,
					"internalType": "address",
					"name": "distributedTo",
					"type": "address"
				},
				{
					"indexed": false,
					"internalType": "uint256",
					"name": "amount",
					"type": "uint256"
				}
			],
			"name": "FeeDistributed",
			"type": "event"
		},
		{
			"anonymous": false,
			"inputs": [
				{
					"indexed": false,
					"internalType": "uint256",
					"name": "interestAmount",
					"type": "uint256"
				},
				{
					"indexed": false,
					"internalType": "uint256",
					"name": "newTotalLiquidity",
					"type": "uint256"
				},
				{
					"indexed": false,
					"internalType": "uint256",
					"name": "timestamp",
					"type": "uint256"
				}
			],
			"name": "InterestAccrued",
			"type": "event"
		},
		{
			"anonymous": false,
			"inputs": [
				{
					"indexed": true,
					"internalType": "address",
					"name": "borrower",
					"type": "address"
				},
				{
					"indexed": false,
					"internalType": "uint256",
					"name": "collateralSeized",
					"type": "uint256"
				},
				{
					"indexed": false,
					"internalType": "uint256",
					"name": "debtCleared",
					"type": "uint256"
				}
			],
			"name": "Liquidate",
			"type": "event"
		},
		{
			"anonymous": false,
			"inputs": [
				{
					"indexed": true,
					"internalType": "address",
					"name": "borrower",
					"type": "address"
				},
				{
					"indexed": false,
					"internalType": "uint256",
					"name": "loanId",
					"type": "uint256"
				},
				{
					"indexed": false,
					"internalType": "uint256",
					"name": "amount",
					"type": "uint256"
				}
			],
			"name": "LoanRepaid",
			"type": "event"
		},
		{
			"anonymous": false,
			"inputs": [
				{
					"indexed": true,
					"internalType": "address",
					"name": "borrower",
					"type": "address"
				},
				{
					"indexed": false,
					"internalType": "uint256",
					"name": "loanCounter",
					"type": "uint256"
				},
				{
					"indexed": false,
					"internalType": "uint256",
					"name": "amount",
					"type": "uint256"
				}
			],
			"name": "LoanTaken",
			"type": "event"
		},
		{
			"anonymous": false,
			"inputs": [
				{
					"indexed": true,
					"internalType": "address",
					"name": "borrower",
					"type": "address"
				},
				{
					"indexed": false,
					"internalType": "uint256",
					"name": "amount",
					"type": "uint256"
				},
				{
					"indexed": false,
					"internalType": "uint256",
					"name": "collateralReturned",
					"type": "uint256"
				}
			],
			"name": "Repay",
			"type": "event"
		},
		{
			"anonymous": false,
			"inputs": [
				{
					"indexed": true,
					"internalType": "address",
					"name": "withdrawer",
					"type": "address"
				},
				{
					"indexed": false,
					"internalType": "uint256",
					"name": "withdrawAmount",
					"type": "uint256"
				}
			],
			"name": "Withdrawal",
			"type": "event"
		},
		{
			"inputs": [],
			"name": "accrueInterest",
			"outputs": [],
			"stateMutability": "nonpayable",
			"type": "function"
		},
		{
			"inputs": [],
			"name": "accruedReward",
			"outputs": [
				{
					"internalType": "uint256",
					"name": "",
					"type": "uint256"
				}
			],
			"stateMutability": "view",
			"type": "function"
		},
		{
			"inputs": [
				{
					"internalType": "address",
					"name": "",
					"type": "address"
				}
			],
			"name": "borrowings",
			"outputs": [
				{
					"internalType": "uint256",
					"name": "",
					"type": "uint256"
				}
			],
			"stateMutability": "view",
			"type": "function"
		},
		{
			"inputs": [
				{
					"internalType": "address",
					"name": "user",
					"type": "address"
				}
			],
			"name": "calculateFeeShare",
			"outputs": [
				{
					"internalType": "uint256",
					"name": "",
					"type": "uint256"
				}
			],
			"stateMutability": "view",
			"type": "function"
		},
		{
			"inputs": [
				{
					"internalType": "uint256",
					"name": "loanId",
					"type": "uint256"
				}
			],
			"name": "calculateRepaymentAmount",
			"outputs": [
				{
					"internalType": "uint256",
					"name": "",
					"type": "uint256"
				}
			],
			"stateMutability": "view",
			"type": "function"
		},
		{
			"inputs": [
				{
					"internalType": "address",
					"name": "",
					"type": "address"
				}
			],
			"name": "collaterals",
			"outputs": [
				{
					"internalType": "uint256",
					"name": "",
					"type": "uint256"
				}
			],
			"stateMutability": "view",
			"type": "function"
		},
		{
			"inputs": [],
			"name": "contractFeeFromRepayment",
			"outputs": [
				{
					"internalType": "uint256",
					"name": "",
					"type": "uint256"
				}
			],
			"stateMutability": "view",
			"type": "function"
		},
		{
			"inputs": [],
			"name": "deposit",
			"outputs": [],
			"stateMutability": "payable",
			"type": "function"
		},
		{
			"inputs": [
				{
					"internalType": "uint256",
					"name": "",
					"type": "uint256"
				}
			],
			"name": "depositors",
			"outputs": [
				{
					"internalType": "address",
					"name": "",
					"type": "address"
				}
			],
			"stateMutability": "view",
			"type": "function"
		},
		{
			"inputs": [
				{
					"internalType": "address",
					"name": "",
					"type": "address"
				}
			],
			"name": "deposits",
			"outputs": [
				{
					"internalType": "uint256",
					"name": "",
					"type": "uint256"
				}
			],
			"stateMutability": "view",
			"type": "function"
		},
		{
			"inputs": [],
			"name": "distributeFees",
			"outputs": [],
			"stateMutability": "payable",
			"type": "function"
		},
		{
			"inputs": [
				{
					"internalType": "address",
					"name": "account",
					"type": "address"
				}
			],
			"name": "getBalances",
			"outputs": [
				{
					"internalType": "uint256",
					"name": "depositBalance",
					"type": "uint256"
				},
				{
					"internalType": "uint256",
					"name": "borrowBalance",
					"type": "uint256"
				},
				{
					"internalType": "uint256",
					"name": "collateralBalance",
					"type": "uint256"
				}
			],
			"stateMutability": "view",
			"type": "function"
		},
		{
			"inputs": [
				{
					"internalType": "address",
					"name": "borrower",
					"type": "address"
				}
			],
			"name": "getCollateral",
			"outputs": [
				{
					"internalType": "uint256",
					"name": "",
					"type": "uint256"
				}
			],
			"stateMutability": "view",
			"type": "function"
		},
		{
			"inputs": [],
			"name": "getContractBalance",
			"outputs": [
				{
					"internalType": "uint256",
					"name": "",
					"type": "uint256"
				}
			],
			"stateMutability": "view",
			"type": "function"
		},
		{
			"inputs": [],
			"name": "getLiquidityPool",
			"outputs": [
				{
					"internalType": "uint256",
					"name": "",
					"type": "uint256"
				}
			],
			"stateMutability": "view",
			"type": "function"
		},
		{
			"inputs": [],
			"name": "getLiquidityPoolWithLoan",
			"outputs": [
				{
					"internalType": "uint256",
					"name": "",
					"type": "uint256"
				}
			],
			"stateMutability": "view",
			"type": "function"
		},
		{
			"inputs": [
				{
					"internalType": "address",
					"name": "user",
					"type": "address"
				}
			],
			"name": "getUserAccruedFees",
			"outputs": [
				{
					"internalType": "uint256",
					"name": "",
					"type": "uint256"
				}
			],
			"stateMutability": "view",
			"type": "function"
		},
		{
			"inputs": [
				{
					"internalType": "address",
					"name": "a",
					"type": "address"
				}
			],
			"name": "getUserBalance",
			"outputs": [
				{
					"internalType": "uint256",
					"name": "",
					"type": "uint256"
				}
			],
			"stateMutability": "view",
			"type": "function"
		},
		{
			"inputs": [],
			"name": "interestRate",
			"outputs": [
				{
					"internalType": "uint256",
					"name": "",
					"type": "uint256"
				}
			],
			"stateMutability": "view",
			"type": "function"
		},
		{
			"inputs": [],
			"name": "interest_rate",
			"outputs": [
				{
					"internalType": "uint256",
					"name": "",
					"type": "uint256"
				}
			],
			"stateMutability": "view",
			"type": "function"
		},
		{
			"inputs": [
				{
					"internalType": "address",
					"name": "a",
					"type": "address"
				}
			],
			"name": "isDepositor",
			"outputs": [
				{
					"internalType": "bool",
					"name": "",
					"type": "bool"
				}
			],
			"stateMutability": "view",
			"type": "function"
		},
		{
			"inputs": [],
			"name": "lastAccrualTimestamp",
			"outputs": [
				{
					"internalType": "uint256",
					"name": "",
					"type": "uint256"
				}
			],
			"stateMutability": "view",
			"type": "function"
		},
		{
			"inputs": [
				{
					"internalType": "address",
					"name": "borrower",
					"type": "address"
				}
			],
			"name": "liquidate",
			"outputs": [],
			"stateMutability": "nonpayable",
			"type": "function"
		},
		{
			"inputs": [],
			"name": "loanCounter",
			"outputs": [
				{
					"internalType": "uint256",
					"name": "",
					"type": "uint256"
				}
			],
			"stateMutability": "view",
			"type": "function"
		},
		{
			"inputs": [
				{
					"internalType": "uint256",
					"name": "",
					"type": "uint256"
				}
			],
			"name": "loans",
			"outputs": [
				{
					"internalType": "address",
					"name": "borrower",
					"type": "address"
				},
				{
					"internalType": "uint256",
					"name": "loanAmount",
					"type": "uint256"
				},
				{
					"internalType": "uint256",
					"name": "interestRate",
					"type": "uint256"
				},
				{
					"internalType": "uint256",
					"name": "repaymentAmount",
					"type": "uint256"
				},
				{
					"internalType": "uint256",
					"name": "repaymentTimestamp",
					"type": "uint256"
				},
				{
					"internalType": "bool",
					"name": "isRepaid",
					"type": "bool"
				},
				{
					"internalType": "bool",
					"name": "isActive",
					"type": "bool"
				}
			],
			"stateMutability": "view",
			"type": "function"
		},
		{
			"inputs": [],
			"name": "owner",
			"outputs": [
				{
					"internalType": "address",
					"name": "",
					"type": "address"
				}
			],
			"stateMutability": "view",
			"type": "function"
		},
		{
			"inputs": [
				{
					"internalType": "uint256",
					"name": "loanId",
					"type": "uint256"
				}
			],
			"name": "repayLoan",
			"outputs": [],
			"stateMutability": "payable",
			"type": "function"
		},
		{
			"inputs": [
				{
					"internalType": "uint256",
					"name": "loan",
					"type": "uint256"
				}
			],
			"name": "requiredCollateral",
			"outputs": [
				{
					"internalType": "uint256",
					"name": "",
					"type": "uint256"
				}
			],
			"stateMutability": "pure",
			"type": "function"
		},
		{
			"inputs": [
				{
					"internalType": "uint256",
					"name": "loan",
					"type": "uint256"
				}
			],
			"name": "requiredRepaymentAmount",
			"outputs": [
				{
					"internalType": "uint256",
					"name": "",
					"type": "uint256"
				}
			],
			"stateMutability": "view",
			"type": "function"
		},
		{
			"inputs": [
				{
					"internalType": "uint256",
					"name": "amount",
					"type": "uint256"
				},
				{
					"internalType": "uint256",
					"name": "loan_duration",
					"type": "uint256"
				}
			],
			"name": "takeLoan",
			"outputs": [],
			"stateMutability": "payable",
			"type": "function"
		},
		{
			"inputs": [],
			"name": "totalLiquidity",
			"outputs": [
				{
					"internalType": "uint256",
					"name": "",
					"type": "uint256"
				}
			],
			"stateMutability": "view",
			"type": "function"
		},
		{
			"inputs": [
				{
					"internalType": "address",
					"name": "",
					"type": "address"
				},
				{
					"internalType": "uint256",
					"name": "",
					"type": "uint256"
				}
			],
			"name": "userLoans",
			"outputs": [
				{
					"internalType": "uint256",
					"name": "",
					"type": "uint256"
				}
			],
			"stateMutability": "view",
			"type": "function"
		},
		{
			"inputs": [
				{
					"internalType": "uint256",
					"name": "withdrawAmount",
					"type": "uint256"
				}
			],
			"name": "withdraw",
			"outputs": [],
			"stateMutability": "payable",
			"type": "function"
		},
		{
			"stateMutability": "payable",
			"type": "receive"
		}
	]
}