{
	"data": {
		"bytecode": {
			"linkReferences": {},
			"object": "60806040526005600855348015610014575f80fd5b50604051611bdb380380611bdb8339818101604052810190610036919061016e565b335f806101000a81548173ffffffffffffffffffffffffffffffffffffffff021916908373ffffffffffffffffffffffffffffffffffffffff1602179055508260015f6101000a81548173ffffffffffffffffffffffffffffffffffffffff021916908373ffffffffffffffffffffffffffffffffffffffff16021790555081426100c191906101eb565b600281905550806003819055505f60068190555050505061021e565b5f80fd5b5f73ffffffffffffffffffffffffffffffffffffffff82169050919050565b5f61010a826100e1565b9050919050565b61011a81610100565b8114610124575f80fd5b50565b5f8151905061013581610111565b92915050565b5f819050919050565b61014d8161013b565b8114610157575f80fd5b50565b5f8151905061016881610144565b92915050565b5f805f60608486031215610185576101846100dd565b5b5f61019286828701610127565b93505060206101a38682870161015a565b92505060406101b48682870161015a565b9150509250925092565b7f4e487b71000000000000000000000000000000000000000000000000000000005f52601160045260245ffd5b5f6101f58261013b565b91506102008361013b565b9250828201905080821115610218576102176101be565b5b92915050565b6119b08061022b5f395ff3fe6080604052600436106100e7575f3560e01c80633ccfd60b11610089578063b639cec611610058578063b639cec61461029a578063c4d1510d146102b6578063d57bde79146102e0578063fe67a54b1461030a576100e7565b80633ccfd60b146102065780638afcb14d1461021c5780638da5cb5b1461024657806391f9015714610270576100e7565b806326b387bb116100c557806326b387bb146101495780632e93be30146101855780633197cbb6146101b257806339f9c82c146101dc576100e7565b806302d05d3f146100eb57806312fa6feb146101155780631998aeef1461013f575b5f80fd5b3480156100f6575f80fd5b506100ff610320565b60405161010c9190611053565b60405180910390f35b348015610120575f80fd5b50610129610345565b6040516101369190611086565b60405180910390f35b610147610357565b005b348015610154575f80fd5b5061016f600480360381019061016a91906110cd565b610822565b60405161017c9190611110565b60405180910390f35b348015610190575f80fd5b50610199610837565b6040516101a99493929190611129565b60405180910390f35b3480156101bd575f80fd5b506101c66108a2565b6040516101d39190611110565b60405180910390f35b3480156101e7575f80fd5b506101f06108a8565b6040516101fd9190611110565b60405180910390f35b348015610211575f80fd5b5061021a6108ae565b005b348015610227575f80fd5b50610230610a1f565b60405161023d9190611110565b60405180910390f35b348015610251575f80fd5b5061025a610a25565b6040516102679190611053565b60405180910390f35b34801561027b575f80fd5b50610284610a48565b6040516102919190611053565b60405180910390f35b6102b460048036038101906102af9190611196565b610a6d565b005b3480156102c1575f80fd5b506102ca610bc2565b6040516102d79190611110565b60405180910390f35b3480156102eb575f80fd5b506102f4610bc8565b6040516103019190611110565b60405180910390f35b348015610315575f80fd5b5061031e610bce565b005b60015f9054906101000a900473ffffffffffffffffffffffffffffffffffffffff1681565b60075f9054906101000a900460ff1681565b60075f9054906101000a900460ff16156103a6576040517f08c379a000000000000000000000000000000000000000000000000000000000815260040161039d9061122e565b60405180910390fd5b60025442106103ea576040517f08c379a00000000000000000000000000000000000000000000000000000000081526004016103e190611296565b60405180910390fd5b6003546004546103fa91906112e1565b34101561043c576040517f08c379a00000000000000000000000000000000000000000000000000000000081526004016104339061135e565b60405180910390fd5b5f8054906101000a900473ffffffffffffffffffffffffffffffffffffffff1673ffffffffffffffffffffffffffffffffffffffff163373ffffffffffffffffffffffffffffffffffffffff16036104c9576040517f08c379a00000000000000000000000000000000000000000000000000000000081526004016104c0906113c6565b60405180910390fd5b5f6004541115610725575f60055f9054906101000a900473ffffffffffffffffffffffffffffffffffffffff1690505f60095f8373ffffffffffffffffffffffffffffffffffffffff1673ffffffffffffffffffffffffffffffffffffffff1681526020019081526020015f205490503360055f6101000a81548173ffffffffffffffffffffffffffffffffffffffff021916908373ffffffffffffffffffffffffffffffffffffffff1602179055503460048190555060045460095f60055f9054906101000a900473ffffffffffffffffffffffffffffffffffffffff1673ffffffffffffffffffffffffffffffffffffffff1673ffffffffffffffffffffffffffffffffffffffff1681526020019081526020015f20819055505f60095f8473ffffffffffffffffffffffffffffffffffffffff1673ffffffffffffffffffffffffffffffffffffffff1681526020019081526020015f20819055505f8273ffffffffffffffffffffffffffffffffffffffff168260405161064c90611411565b5f6040518083038185875af1925050503d805f8114610686576040519150601f19603f3d011682016040523d82523d5f602084013e61068b565b606091505b50509050806106cf576040517f08c379a00000000000000000000000000000000000000000000000000000000081526004016106c69061146f565b60405180910390fd5b8273ffffffffffffffffffffffffffffffffffffffff167f0f5b30ee287c8f9bfe4fd66e73c5f52da10ed0a40290bb4fc647c998e6529d65836040516107159190611110565b60405180910390a2505050610820565b3360055f6101000a81548173ffffffffffffffffffffffffffffffffffffffff021916908373ffffffffffffffffffffffffffffffffffffffff1602179055503460048190555060045460095f60055f9054906101000a900473ffffffffffffffffffffffffffffffffffffffff1673ffffffffffffffffffffffffffffffffffffffff1673ffffffffffffffffffffffffffffffffffffffff1681526020019081526020015f20819055503373ffffffffffffffffffffffffffffffffffffffff167fdd0b6c6a77960e2066c96171b4d7ac9e8b4c184011f38544afa36a5bb63ec59f346040516108179190611110565b60405180910390a25b565b6009602052805f5260405f205f915090505481565b5f805f805f600254421061084d575f905061085e565b4260025461085b919061148d565b90505b60055f9054906101000a900473ffffffffffffffffffffffffffffffffffffffff166004548260075f9054906101000a900460ff1694509450945094505090919293565b60025481565b60065481565b5f60095f3373ffffffffffffffffffffffffffffffffffffffff1673ffffffffffffffffffffffffffffffffffffffff1681526020019081526020015f205490505f8111610931576040517f08c379a00000000000000000000000000000000000000000000000000000000081526004016109289061150a565b60405180910390fd5b5f60095f3373ffffffffffffffffffffffffffffffffffffffff1673ffffffffffffffffffffffffffffffffffffffff1681526020019081526020015f20819055505f3373ffffffffffffffffffffffffffffffffffffffff168260405161099890611411565b5f6040518083038185875af1925050503d805f81146109d2576040519150601f19603f3d011682016040523d82523d5f602084013e6109d7565b606091505b5050905080610a1b576040517f08c379a0000000000000000000000000000000000000000000000000000000008152600401610a1290611572565b60405180910390fd5b5050565b60035481565b5f8054906101000a900473ffffffffffffffffffffffffffffffffffffffff1681565b60055f9054906101000a900473ffffffffffffffffffffffffffffffffffffffff1681565b60075f9054906101000a900460ff16610abb576040517f08c379a0000000000000000000000000000000000000000000000000000000008152600401610ab290611600565b60405180910390fd5b5f8054906101000a900473ffffffffffffffffffffffffffffffffffffffff1673ffffffffffffffffffffffffffffffffffffffff163373ffffffffffffffffffffffffffffffffffffffff1614610b48576040517f08c379a0000000000000000000000000000000000000000000000000000000008152600401610b3f90611668565b60405180910390fd5b5f60065411610b8c576040517f08c379a0000000000000000000000000000000000000000000000000000000008152600401610b83906116f6565b60405180910390fd5b806003819055508142610b9f91906112e1565b6002819055505f60075f6101000a81548160ff0219169083151502179055505050565b60085481565b60045481565b600254421015610c13576040517f08c379a0000000000000000000000000000000000000000000000000000000008152600401610c0a9061175e565b60405180910390fd5b5f8054906101000a900473ffffffffffffffffffffffffffffffffffffffff1673ffffffffffffffffffffffffffffffffffffffff163373ffffffffffffffffffffffffffffffffffffffff1614610ca0576040517f08c379a0000000000000000000000000000000000000000000000000000000008152600401610c9790611668565b60405180910390fd5b600160075f6101000a81548160ff0219169083151502179055505f60045403610d01577fdaec4582d5d9595688c8c98545fdd1c696d41c6aeaeb636737e84ed2f5c00eda5f80604051610cf49291906117be565b60405180910390a1611012565b5f6064600854600454610d1491906117e5565b610d1e9190611853565b90505f81600454610d2f919061148d565b90505f60015f9054906101000a900473ffffffffffffffffffffffffffffffffffffffff1673ffffffffffffffffffffffffffffffffffffffff1683604051610d7790611411565b5f6040518083038185875af1925050503d805f8114610db1576040519150601f19603f3d011682016040523d82523d5f602084013e610db6565b606091505b5050905080610dfa576040517f08c379a0000000000000000000000000000000000000000000000000000000008152600401610df1906118cd565b60405180910390fd5b60015f9054906101000a900473ffffffffffffffffffffffffffffffffffffffff1673ffffffffffffffffffffffffffffffffffffffff167fbc86de696edc3350c664d50abf25f24e7e1251f1469ad925b25fe36927270d4384604051610e619190611110565b60405180910390a25f805f9054906101000a900473ffffffffffffffffffffffffffffffffffffffff1673ffffffffffffffffffffffffffffffffffffffff1683604051610eae90611411565b5f6040518083038185875af1925050503d805f8114610ee8576040519150601f19603f3d011682016040523d82523d5f602084013e610eed565b606091505b5050905080610f31576040517f08c379a0000000000000000000000000000000000000000000000000000000008152600401610f2890611935565b60405180910390fd5b600160065f828254610f4391906112e1565b9250508190555060055f9054906101000a900473ffffffffffffffffffffffffffffffffffffffff165f806101000a81548173ffffffffffffffffffffffffffffffffffffffff021916908373ffffffffffffffffffffffffffffffffffffffff1602179055505f6004819055507fdaec4582d5d9595688c8c98545fdd1c696d41c6aeaeb636737e84ed2f5c00eda60055f9054906101000a900473ffffffffffffffffffffffffffffffffffffffff16600454604051611005929190611953565b60405180910390a1505050505b565b5f73ffffffffffffffffffffffffffffffffffffffff82169050919050565b5f61103d82611014565b9050919050565b61104d81611033565b82525050565b5f6020820190506110665f830184611044565b92915050565b5f8115159050919050565b6110808161106c565b82525050565b5f6020820190506110995f830184611077565b92915050565b5f80fd5b6110ac81611033565b81146110b6575f80fd5b50565b5f813590506110c7816110a3565b92915050565b5f602082840312156110e2576110e161109f565b5b5f6110ef848285016110b9565b91505092915050565b5f819050919050565b61110a816110f8565b82525050565b5f6020820190506111235f830184611101565b92915050565b5f60808201905061113c5f830187611044565b6111496020830186611101565b6111566040830185611101565b6111636060830184611077565b95945050505050565b611175816110f8565b811461117f575f80fd5b50565b5f813590506111908161116c565b92915050565b5f80604083850312156111ac576111ab61109f565b5b5f6111b985828601611182565b92505060206111ca85828601611182565b9150509250929050565b5f82825260208201905092915050565b7f41756374696f6e20616c726561647920656e64656400000000000000000000005f82015250565b5f6112186015836111d4565b9150611223826111e4565b602082019050919050565b5f6020820190508181035f8301526112458161120c565b9050919050565b7f41756374696f6e20656e646564000000000000000000000000000000000000005f82015250565b5f611280600d836111d4565b915061128b8261124c565b602082019050919050565b5f6020820190508181035f8301526112ad81611274565b9050919050565b7f4e487b71000000000000000000000000000000000000000000000000000000005f52601160045260245ffd5b5f6112eb826110f8565b91506112f6836110f8565b925082820190508082111561130e5761130d6112b4565b5b92915050565b7f546f6f206c6f77000000000000000000000000000000000000000000000000005f82015250565b5f6113486007836111d4565b915061135382611314565b602082019050919050565b5f6020820190508181035f8301526113758161133c565b9050919050565b7f4f776e65722063616e74206265207468652062696464657200000000000000005f82015250565b5f6113b06018836111d4565b91506113bb8261137c565b602082019050919050565b5f6020820190508181035f8301526113dd816113a4565b9050919050565b5f81905092915050565b50565b5f6113fc5f836113e4565b9150611407826113ee565b5f82019050919050565b5f61141b826113f1565b9150819050919050565b7f726566756e6473206661696c65640000000000000000000000000000000000005f82015250565b5f611459600e836111d4565b915061146482611425565b602082019050919050565b5f6020820190508181035f8301526114868161144d565b9050919050565b5f611497826110f8565b91506114a2836110f8565b92508282039050818111156114ba576114b96112b4565b5b92915050565b7f4e6f2066756e647320746f2077697468647261770000000000000000000000005f82015250565b5f6114f46014836111d4565b91506114ff826114c0565b602082019050919050565b5f6020820190508181035f830152611521816114e8565b9050919050565b7f5769746864726177616c206661696c65640000000000000000000000000000005f82015250565b5f61155c6011836111d4565b915061156782611528565b602082019050919050565b5f6020820190508181035f83015261158981611550565b9050919050565b7f43616e74206f7665726c61702077697468206f6e676f696e672061756374696f5f8201527f6e00000000000000000000000000000000000000000000000000000000000000602082015250565b5f6115ea6021836111d4565b91506115f582611590565b604082019050919050565b5f6020820190508181035f830152611617816115de565b9050919050565b7f4e6f74206f776e657200000000000000000000000000000000000000000000005f82015250565b5f6116526009836111d4565b915061165d8261161e565b602082019050919050565b5f6020820190508181035f83015261167f81611646565b9050919050565b7f596f752063616e7420726573656c6c206265666f7265207468652066697273745f8201527f2061756374696f6e000000000000000000000000000000000000000000000000602082015250565b5f6116e06028836111d4565b91506116eb82611686565b604082019050919050565b5f6020820190508181035f83015261170d816116d4565b9050919050565b7f41756374696f6e206e6f742079657420656e64656400000000000000000000005f82015250565b5f6117486015836111d4565b915061175382611714565b602082019050919050565b5f6020820190508181035f8301526117758161173c565b9050919050565b5f819050919050565b5f819050919050565b5f6117a86117a361179e8461177c565b611785565b6110f8565b9050919050565b6117b88161178e565b82525050565b5f6040820190506117d15f830185611044565b6117de60208301846117af565b9392505050565b5f6117ef826110f8565b91506117fa836110f8565b9250828202611808816110f8565b9150828204841483151761181f5761181e6112b4565b5b5092915050565b7f4e487b71000000000000000000000000000000000000000000000000000000005f52601260045260245ffd5b5f61185d826110f8565b9150611868836110f8565b92508261187857611877611826565b5b828204905092915050565b7f526f79616c7479207472616e73666572206661696c65640000000000000000005f82015250565b5f6118b76017836111d4565b91506118c282611883565b602082019050919050565b5f6020820190508181035f8301526118e4816118ab565b9050919050565b7f53656c6c6572207472616e73666572206661696c6564000000000000000000005f82015250565b5f61191f6016836111d4565b915061192a826118eb565b602082019050919050565b5f6020820190508181035f83015261194c81611913565b9050919050565b5f6040820190506119665f830185611044565b6119736020830184611101565b939250505056fea2646970667358221220fec6692b6a1d2d534b12b5a02178a9390d106788a5d0aedc508e4f7d41a8a17364736f6c634300081a0033",
			"opcodes": "PUSH1 0x80 PUSH1 0x40 MSTORE PUSH1 0x5 PUSH1 0x8 SSTORE CALLVALUE DUP1 ISZERO PUSH2 0x14 JUMPI PUSH0 DUP1 REVERT JUMPDEST POP PUSH1 0x40 MLOAD PUSH2 0x1BDB CODESIZE SUB DUP1 PUSH2 0x1BDB DUP4 CODECOPY DUP2 DUP2 ADD PUSH1 0x40 MSTORE DUP2 ADD SWAP1 PUSH2 0x36 SWAP2 SWAP1 PUSH2 0x16E JUMP JUMPDEST CALLER PUSH0 DUP1 PUSH2 0x100 EXP DUP2 SLOAD DUP2 PUSH20 0xFFFFFFFFFFFFFFFFFFFFFFFFFFFFFFFFFFFFFFFF MUL NOT AND SWAP1 DUP4 PUSH20 0xFFFFFFFFFFFFFFFFFFFFFFFFFFFFFFFFFFFFFFFF AND MUL OR SWAP1 SSTORE POP DUP3 PUSH1 0x1 PUSH0 PUSH2 0x100 EXP DUP2 SLOAD DUP2 PUSH20 0xFFFFFFFFFFFFFFFFFFFFFFFFFFFFFFFFFFFFFFFF MUL NOT AND SWAP1 DUP4 PUSH20 0xFFFFFFFFFFFFFFFFFFFFFFFFFFFFFFFFFFFFFFFF AND MUL OR SWAP1 SSTORE POP DUP2 TIMESTAMP PUSH2 0xC1 SWAP2 SWAP1 PUSH2 0x1EB JUMP JUMPDEST PUSH1 0x2 DUP2 SWAP1 SSTORE POP DUP1 PUSH1 0x3 DUP2 SWAP1 SSTORE POP PUSH0 PUSH1 0x6 DUP2 SWAP1 SSTORE POP POP POP POP PUSH2 0x21E JUMP JUMPDEST PUSH0 DUP1 REVERT JUMPDEST PUSH0 PUSH20 0xFFFFFFFFFFFFFFFFFFFFFFFFFFFFFFFFFFFFFFFF DUP3 AND SWAP1 POP SWAP2 SWAP1 POP JUMP JUMPDEST PUSH0 PUSH2 0x10A DUP3 PUSH2 0xE1 JUMP JUMPDEST SWAP1 POP SWAP2 SWAP1 POP JUMP JUMPDEST PUSH2 0x11A DUP2 PUSH2 0x100 JUMP JUMPDEST DUP2 EQ PUSH2 0x124 JUMPI PUSH0 DUP1 REVERT JUMPDEST POP JUMP JUMPDEST PUSH0 DUP2 MLOAD SWAP1 POP PUSH2 0x135 DUP2 PUSH2 0x111 JUMP JUMPDEST SWAP3 SWAP2 POP POP JUMP JUMPDEST PUSH0 DUP2 SWAP1 POP SWAP2 SWAP1 POP JUMP JUMPDEST PUSH2 0x14D DUP2 PUSH2 0x13B JUMP JUMPDEST DUP2 EQ PUSH2 0x157 JUMPI PUSH0 DUP1 REVERT JUMPDEST POP JUMP JUMPDEST PUSH0 DUP2 MLOAD SWAP1 POP PUSH2 0x168 DUP2 PUSH2 0x144 JUMP JUMPDEST SWAP3 SWAP2 POP POP JUMP JUMPDEST PUSH0 DUP1 PUSH0 PUSH1 0x60 DUP5 DUP7 SUB SLT ISZERO PUSH2 0x185 JUMPI PUSH2 0x184 PUSH2 0xDD JUMP JUMPDEST JUMPDEST PUSH0 PUSH2 0x192 DUP7 DUP3 DUP8 ADD PUSH2 0x127 JUMP JUMPDEST SWAP4 POP POP PUSH1 0x20 PUSH2 0x1A3 DUP7 DUP3 DUP8 ADD PUSH2 0x15A JUMP JUMPDEST SWAP3 POP POP PUSH1 0x40 PUSH2 0x1B4 DUP7 DUP3 DUP8 ADD PUSH2 0x15A JUMP JUMPDEST SWAP2 POP POP SWAP3 POP SWAP3 POP SWAP3 JUMP JUMPDEST PUSH32 0x4E487B7100000000000000000000000000000000000000000000000000000000 PUSH0 MSTORE PUSH1 0x11 PUSH1 0x4 MSTORE PUSH1 0x24 PUSH0 REVERT JUMPDEST PUSH0 PUSH2 0x1F5 DUP3 PUSH2 0x13B JUMP JUMPDEST SWAP2 POP PUSH2 0x200 DUP4 PUSH2 0x13B JUMP JUMPDEST SWAP3 POP DUP3 DUP3 ADD SWAP1 POP DUP1 DUP3 GT ISZERO PUSH2 0x218 JUMPI PUSH2 0x217 PUSH2 0x1BE JUMP JUMPDEST JUMPDEST SWAP3 SWAP2 POP POP JUMP JUMPDEST PUSH2 0x19B0 DUP1 PUSH2 0x22B PUSH0 CODECOPY PUSH0 RETURN INVALID PUSH1 0x80 PUSH1 0x40 MSTORE PUSH1 0x4 CALLDATASIZE LT PUSH2 0xE7 JUMPI PUSH0 CALLDATALOAD PUSH1 0xE0 SHR DUP1 PUSH4 0x3CCFD60B GT PUSH2 0x89 JUMPI DUP1 PUSH4 0xB639CEC6 GT PUSH2 0x58 JUMPI DUP1 PUSH4 0xB639CEC6 EQ PUSH2 0x29A JUMPI DUP1 PUSH4 0xC4D1510D EQ PUSH2 0x2B6 JUMPI DUP1 PUSH4 0xD57BDE79 EQ PUSH2 0x2E0 JUMPI DUP1 PUSH4 0xFE67A54B EQ PUSH2 0x30A JUMPI PUSH2 0xE7 JUMP JUMPDEST DUP1 PUSH4 0x3CCFD60B EQ PUSH2 0x206 JUMPI DUP1 PUSH4 0x8AFCB14D EQ PUSH2 0x21C JUMPI DUP1 PUSH4 0x8DA5CB5B EQ PUSH2 0x246 JUMPI DUP1 PUSH4 0x91F90157 EQ PUSH2 0x270 JUMPI PUSH2 0xE7 JUMP JUMPDEST DUP1 PUSH4 0x26B387BB GT PUSH2 0xC5 JUMPI DUP1 PUSH4 0x26B387BB EQ PUSH2 0x149 JUMPI DUP1 PUSH4 0x2E93BE30 EQ PUSH2 0x185 JUMPI DUP1 PUSH4 0x3197CBB6 EQ PUSH2 0x1B2 JUMPI DUP1 PUSH4 0x39F9C82C EQ PUSH2 0x1DC JUMPI PUSH2 0xE7 JUMP JUMPDEST DUP1 PUSH4 0x2D05D3F EQ PUSH2 0xEB JUMPI DUP1 PUSH4 0x12FA6FEB EQ PUSH2 0x115 JUMPI DUP1 PUSH4 0x1998AEEF EQ PUSH2 0x13F JUMPI JUMPDEST PUSH0 DUP1 REVERT JUMPDEST CALLVALUE DUP1 ISZERO PUSH2 0xF6 JUMPI PUSH0 DUP1 REVERT JUMPDEST POP PUSH2 0xFF PUSH2 0x320 JUMP JUMPDEST PUSH1 0x40 MLOAD PUSH2 0x10C SWAP2 SWAP1 PUSH2 0x1053 JUMP JUMPDEST PUSH1 0x40 MLOAD DUP1 SWAP2 SUB SWAP1 RETURN JUMPDEST CALLVALUE DUP1 ISZERO PUSH2 0x120 JUMPI PUSH0 DUP1 REVERT JUMPDEST POP PUSH2 0x129 PUSH2 0x345 JUMP JUMPDEST PUSH1 0x40 MLOAD PUSH2 0x136 SWAP2 SWAP1 PUSH2 0x1086 JUMP JUMPDEST PUSH1 0x40 MLOAD DUP1 SWAP2 SUB SWAP1 RETURN JUMPDEST PUSH2 0x147 PUSH2 0x357 JUMP JUMPDEST STOP JUMPDEST CALLVALUE DUP1 ISZERO PUSH2 0x154 JUMPI PUSH0 DUP1 REVERT JUMPDEST POP PUSH2 0x16F PUSH1 0x4 DUP1 CALLDATASIZE SUB DUP2 ADD SWAP1 PUSH2 0x16A SWAP2 SWAP1 PUSH2 0x10CD JUMP JUMPDEST PUSH2 0x822 JUMP JUMPDEST PUSH1 0x40 MLOAD PUSH2 0x17C SWAP2 SWAP1 PUSH2 0x1110 JUMP JUMPDEST PUSH1 0x40 MLOAD DUP1 SWAP2 SUB SWAP1 RETURN JUMPDEST CALLVALUE DUP1 ISZERO PUSH2 0x190 JUMPI PUSH0 DUP1 REVERT JUMPDEST POP PUSH2 0x199 PUSH2 0x837 JUMP JUMPDEST PUSH1 0x40 MLOAD PUSH2 0x1A9 SWAP5 SWAP4 SWAP3 SWAP2 SWAP1 PUSH2 0x1129 JUMP JUMPDEST PUSH1 0x40 MLOAD DUP1 SWAP2 SUB SWAP1 RETURN JUMPDEST CALLVALUE DUP1 ISZERO PUSH2 0x1BD JUMPI PUSH0 DUP1 REVERT JUMPDEST POP PUSH2 0x1C6 PUSH2 0x8A2 JUMP JUMPDEST PUSH1 0x40 MLOAD PUSH2 0x1D3 SWAP2 SWAP1 PUSH2 0x1110 JUMP JUMPDEST PUSH1 0x40 MLOAD DUP1 SWAP2 SUB SWAP1 RETURN JUMPDEST CALLVALUE DUP1 ISZERO PUSH2 0x1E7 JUMPI PUSH0 DUP1 REVERT JUMPDEST POP PUSH2 0x1F0 PUSH2 0x8A8 JUMP JUMPDEST PUSH1 0x40 MLOAD PUSH2 0x1FD SWAP2 SWAP1 PUSH2 0x1110 JUMP JUMPDEST PUSH1 0x40 MLOAD DUP1 SWAP2 SUB SWAP1 RETURN JUMPDEST CALLVALUE DUP1 ISZERO PUSH2 0x211 JUMPI PUSH0 DUP1 REVERT JUMPDEST POP PUSH2 0x21A PUSH2 0x8AE JUMP JUMPDEST STOP JUMPDEST CALLVALUE DUP1 ISZERO PUSH2 0x227 JUMPI PUSH0 DUP1 REVERT JUMPDEST POP PUSH2 0x230 PUSH2 0xA1F JUMP JUMPDEST PUSH1 0x40 MLOAD PUSH2 0x23D SWAP2 SWAP1 PUSH2 0x1110 JUMP JUMPDEST PUSH1 0x40 MLOAD DUP1 SWAP2 SUB SWAP1 RETURN JUMPDEST CALLVALUE DUP1 ISZERO PUSH2 0x251 JUMPI PUSH0 DUP1 REVERT JUMPDEST POP PUSH2 0x25A PUSH2 0xA25 JUMP JUMPDEST PUSH1 0x40 MLOAD PUSH2 0x267 SWAP2 SWAP1 PUSH2 0x1053 JUMP JUMPDEST PUSH1 0x40 MLOAD DUP1 SWAP2 SUB SWAP1 RETURN JUMPDEST CALLVALUE DUP1 ISZERO PUSH2 0x27B JUMPI PUSH0 DUP1 REVERT JUMPDEST POP PUSH2 0x284 PUSH2 0xA48 JUMP JUMPDEST PUSH1 0x40 MLOAD PUSH2 0x291 SWAP2 SWAP1 PUSH2 0x1053 JUMP JUMPDEST PUSH1 0x40 MLOAD DUP1 SWAP2 SUB SWAP1 RETURN JUMPDEST PUSH2 0x2B4 PUSH1 0x4 DUP1 CALLDATASIZE SUB DUP2 ADD SWAP1 PUSH2 0x2AF SWAP2 SWAP1 PUSH2 0x1196 JUMP JUMPDEST PUSH2 0xA6D JUMP JUMPDEST STOP JUMPDEST CALLVALUE DUP1 ISZERO PUSH2 0x2C1 JUMPI PUSH0 DUP1 REVERT JUMPDEST POP PUSH2 0x2CA PUSH2 0xBC2 JUMP JUMPDEST PUSH1 0x40 MLOAD PUSH2 0x2D7 SWAP2 SWAP1 PUSH2 0x1110 JUMP JUMPDEST PUSH1 0x40 MLOAD DUP1 SWAP2 SUB SWAP1 RETURN JUMPDEST CALLVALUE DUP1 ISZERO PUSH2 0x2EB JUMPI PUSH0 DUP1 REVERT JUMPDEST POP PUSH2 0x2F4 PUSH2 0xBC8 JUMP JUMPDEST PUSH1 0x40 MLOAD PUSH2 0x301 SWAP2 SWAP1 PUSH2 0x1110 JUMP JUMPDEST PUSH1 0x40 MLOAD DUP1 SWAP2 SUB SWAP1 RETURN JUMPDEST CALLVALUE DUP1 ISZERO PUSH2 0x315 JUMPI PUSH0 DUP1 REVERT JUMPDEST POP PUSH2 0x31E PUSH2 0xBCE JUMP JUMPDEST STOP JUMPDEST PUSH1 0x1 PUSH0 SWAP1 SLOAD SWAP1 PUSH2 0x100 EXP SWAP1 DIV PUSH20 0xFFFFFFFFFFFFFFFFFFFFFFFFFFFFFFFFFFFFFFFF AND DUP2 JUMP JUMPDEST PUSH1 0x7 PUSH0 SWAP1 SLOAD SWAP1 PUSH2 0x100 EXP SWAP1 DIV PUSH1 0xFF AND DUP2 JUMP JUMPDEST PUSH1 0x7 PUSH0 SWAP1 SLOAD SWAP1 PUSH2 0x100 EXP SWAP1 DIV PUSH1 0xFF AND ISZERO PUSH2 0x3A6 JUMPI PUSH1 0x40 MLOAD PUSH32 0x8C379A000000000000000000000000000000000000000000000000000000000 DUP2 MSTORE PUSH1 0x4 ADD PUSH2 0x39D SWAP1 PUSH2 0x122E JUMP JUMPDEST PUSH1 0x40 MLOAD DUP1 SWAP2 SUB SWAP1 REVERT JUMPDEST PUSH1 0x2 SLOAD TIMESTAMP LT PUSH2 0x3EA JUMPI PUSH1 0x40 MLOAD PUSH32 0x8C379A000000000000000000000000000000000000000000000000000000000 DUP2 MSTORE PUSH1 0x4 ADD PUSH2 0x3E1 SWAP1 PUSH2 0x1296 JUMP JUMPDEST PUSH1 0x40 MLOAD DUP1 SWAP2 SUB SWAP1 REVERT JUMPDEST PUSH1 0x3 SLOAD PUSH1 0x4 SLOAD PUSH2 0x3FA SWAP2 SWAP1 PUSH2 0x12E1 JUMP JUMPDEST CALLVALUE LT ISZERO PUSH2 0x43C JUMPI PUSH1 0x40 MLOAD PUSH32 0x8C379A000000000000000000000000000000000000000000000000000000000 DUP2 MSTORE PUSH1 0x4 ADD PUSH2 0x433 SWAP1 PUSH2 0x135E JUMP JUMPDEST PUSH1 0x40 MLOAD DUP1 SWAP2 SUB SWAP1 REVERT JUMPDEST PUSH0 DUP1 SLOAD SWAP1 PUSH2 0x100 EXP SWAP1 DIV PUSH20 0xFFFFFFFFFFFFFFFFFFFFFFFFFFFFFFFFFFFFFFFF AND PUSH20 0xFFFFFFFFFFFFFFFFFFFFFFFFFFFFFFFFFFFFFFFF AND CALLER PUSH20 0xFFFFFFFFFFFFFFFFFFFFFFFFFFFFFFFFFFFFFFFF AND SUB PUSH2 0x4C9 JUMPI PUSH1 0x40 MLOAD PUSH32 0x8C379A000000000000000000000000000000000000000000000000000000000 DUP2 MSTORE PUSH1 0x4 ADD PUSH2 0x4C0 SWAP1 PUSH2 0x13C6 JUMP JUMPDEST PUSH1 0x40 MLOAD DUP1 SWAP2 SUB SWAP1 REVERT JUMPDEST PUSH0 PUSH1 0x4 SLOAD GT ISZERO PUSH2 0x725 JUMPI PUSH0 PUSH1 0x5 PUSH0 SWAP1 SLOAD SWAP1 PUSH2 0x100 EXP SWAP1 DIV PUSH20 0xFFFFFFFFFFFFFFFFFFFFFFFFFFFFFFFFFFFFFFFF AND SWAP1 POP PUSH0 PUSH1 0x9 PUSH0 DUP4 PUSH20 0xFFFFFFFFFFFFFFFFFFFFFFFFFFFFFFFFFFFFFFFF AND PUSH20 0xFFFFFFFFFFFFFFFFFFFFFFFFFFFFFFFFFFFFFFFF AND DUP2 MSTORE PUSH1 0x20 ADD SWAP1 DUP2 MSTORE PUSH1 0x20 ADD PUSH0 KECCAK256 SLOAD SWAP1 POP CALLER PUSH1 0x5 PUSH0 PUSH2 0x100 EXP DUP2 SLOAD DUP2 PUSH20 0xFFFFFFFFFFFFFFFFFFFFFFFFFFFFFFFFFFFFFFFF MUL NOT AND SWAP1 DUP4 PUSH20 0xFFFFFFFFFFFFFFFFFFFFFFFFFFFFFFFFFFFFFFFF AND MUL OR SWAP1 SSTORE POP CALLVALUE PUSH1 0x4 DUP2 SWAP1 SSTORE POP PUSH1 0x4 SLOAD PUSH1 0x9 PUSH0 PUSH1 0x5 PUSH0 SWAP1 SLOAD SWAP1 PUSH2 0x100 EXP SWAP1 DIV PUSH20 0xFFFFFFFFFFFFFFFFFFFFFFFFFFFFFFFFFFFFFFFF AND PUSH20 0xFFFFFFFFFFFFFFFFFFFFFFFFFFFFFFFFFFFFFFFF AND PUSH20 0xFFFFFFFFFFFFFFFFFFFFFFFFFFFFFFFFFFFFFFFF AND DUP2 MSTORE PUSH1 0x20 ADD SWAP1 DUP2 MSTORE PUSH1 0x20 ADD PUSH0 KECCAK256 DUP2 SWAP1 SSTORE POP PUSH0 PUSH1 0x9 PUSH0 DUP5 PUSH20 0xFFFFFFFFFFFFFFFFFFFFFFFFFFFFFFFFFFFFFFFF AND PUSH20 0xFFFFFFFFFFFFFFFFFFFFFFFFFFFFFFFFFFFFFFFF AND DUP2 MSTORE PUSH1 0x20 ADD SWAP1 DUP2 MSTORE PUSH1 0x20 ADD PUSH0 KECCAK256 DUP2 SWAP1 SSTORE POP PUSH0 DUP3 PUSH20 0xFFFFFFFFFFFFFFFFFFFFFFFFFFFFFFFFFFFFFFFF AND DUP3 PUSH1 0x40 MLOAD PUSH2 0x64C SWAP1 PUSH2 0x1411 JUMP JUMPDEST PUSH0 PUSH1 0x40 MLOAD DUP1 DUP4 SUB DUP2 DUP6 DUP8 GAS CALL SWAP3 POP POP POP RETURNDATASIZE DUP1 PUSH0 DUP2 EQ PUSH2 0x686 JUMPI PUSH1 0x40 MLOAD SWAP2 POP PUSH1 0x1F NOT PUSH1 0x3F RETURNDATASIZE ADD AND DUP3 ADD PUSH1 0x40 MSTORE RETURNDATASIZE DUP3 MSTORE RETURNDATASIZE PUSH0 PUSH1 0x20 DUP5 ADD RETURNDATACOPY PUSH2 0x68B JUMP JUMPDEST PUSH1 0x60 SWAP2 POP JUMPDEST POP POP SWAP1 POP DUP1 PUSH2 0x6CF JUMPI PUSH1 0x40 MLOAD PUSH32 0x8C379A000000000000000000000000000000000000000000000000000000000 DUP2 MSTORE PUSH1 0x4 ADD PUSH2 0x6C6 SWAP1 PUSH2 0x146F JUMP JUMPDEST PUSH1 0x40 MLOAD DUP1 SWAP2 SUB SWAP1 REVERT JUMPDEST DUP3 PUSH20 0xFFFFFFFFFFFFFFFFFFFFFFFFFFFFFFFFFFFFFFFF AND PUSH32 0xF5B30EE287C8F9BFE4FD66E73C5F52DA10ED0A40290BB4FC647C998E6529D65 DUP4 PUSH1 0x40 MLOAD PUSH2 0x715 SWAP2 SWAP1 PUSH2 0x1110 JUMP JUMPDEST PUSH1 0x40 MLOAD DUP1 SWAP2 SUB SWAP1 LOG2 POP POP POP PUSH2 0x820 JUMP JUMPDEST CALLER PUSH1 0x5 PUSH0 PUSH2 0x100 EXP DUP2 SLOAD DUP2 PUSH20 0xFFFFFFFFFFFFFFFFFFFFFFFFFFFFFFFFFFFFFFFF MUL NOT AND SWAP1 DUP4 PUSH20 0xFFFFFFFFFFFFFFFFFFFFFFFFFFFFFFFFFFFFFFFF AND MUL OR SWAP1 SSTORE POP CALLVALUE PUSH1 0x4 DUP2 SWAP1 SSTORE POP PUSH1 0x4 SLOAD PUSH1 0x9 PUSH0 PUSH1 0x5 PUSH0 SWAP1 SLOAD SWAP1 PUSH2 0x100 EXP SWAP1 DIV PUSH20 0xFFFFFFFFFFFFFFFFFFFFFFFFFFFFFFFFFFFFFFFF AND PUSH20 0xFFFFFFFFFFFFFFFFFFFFFFFFFFFFFFFFFFFFFFFF AND PUSH20 0xFFFFFFFFFFFFFFFFFFFFFFFFFFFFFFFFFFFFFFFF AND DUP2 MSTORE PUSH1 0x20 ADD SWAP1 DUP2 MSTORE PUSH1 0x20 ADD PUSH0 KECCAK256 DUP2 SWAP1 SSTORE POP CALLER PUSH20 0xFFFFFFFFFFFFFFFFFFFFFFFFFFFFFFFFFFFFFFFF AND PUSH32 0xDD0B6C6A77960E2066C96171B4D7AC9E8B4C184011F38544AFA36A5BB63EC59F CALLVALUE PUSH1 0x40 MLOAD PUSH2 0x817 SWAP2 SWAP1 PUSH2 0x1110 JUMP JUMPDEST PUSH1 0x40 MLOAD DUP1 SWAP2 SUB SWAP1 LOG2 JUMPDEST JUMP JUMPDEST PUSH1 0x9 PUSH1 0x20 MSTORE DUP1 PUSH0 MSTORE PUSH1 0x40 PUSH0 KECCAK256 PUSH0 SWAP2 POP SWAP1 POP SLOAD DUP2 JUMP JUMPDEST PUSH0 DUP1 PUSH0 DUP1 PUSH0 PUSH1 0x2 SLOAD TIMESTAMP LT PUSH2 0x84D JUMPI PUSH0 SWAP1 POP PUSH2 0x85E JUMP JUMPDEST TIMESTAMP PUSH1 0x2 SLOAD PUSH2 0x85B SWAP2 SWAP1 PUSH2 0x148D JUMP JUMPDEST SWAP1 POP JUMPDEST PUSH1 0x5 PUSH0 SWAP1 SLOAD SWAP1 PUSH2 0x100 EXP SWAP1 DIV PUSH20 0xFFFFFFFFFFFFFFFFFFFFFFFFFFFFFFFFFFFFFFFF AND PUSH1 0x4 SLOAD DUP3 PUSH1 0x7 PUSH0 SWAP1 SLOAD SWAP1 PUSH2 0x100 EXP SWAP1 DIV PUSH1 0xFF AND SWAP5 POP SWAP5 POP SWAP5 POP SWAP5 POP POP SWAP1 SWAP2 SWAP3 SWAP4 JUMP JUMPDEST PUSH1 0x2 SLOAD DUP2 JUMP JUMPDEST PUSH1 0x6 SLOAD DUP2 JUMP JUMPDEST PUSH0 PUSH1 0x9 PUSH0 CALLER PUSH20 0xFFFFFFFFFFFFFFFFFFFFFFFFFFFFFFFFFFFFFFFF AND PUSH20 0xFFFFFFFFFFFFFFFFFFFFFFFFFFFFFFFFFFFFFFFF AND DUP2 MSTORE PUSH1 0x20 ADD SWAP1 DUP2 MSTORE PUSH1 0x20 ADD PUSH0 KECCAK256 SLOAD SWAP1 POP PUSH0 DUP2 GT PUSH2 0x931 JUMPI PUSH1 0x40 MLOAD PUSH32 0x8C379A000000000000000000000000000000000000000000000000000000000 DUP2 MSTORE PUSH1 0x4 ADD PUSH2 0x928 SWAP1 PUSH2 0x150A JUMP JUMPDEST PUSH1 0x40 MLOAD DUP1 SWAP2 SUB SWAP1 REVERT JUMPDEST PUSH0 PUSH1 0x9 PUSH0 CALLER PUSH20 0xFFFFFFFFFFFFFFFFFFFFFFFFFFFFFFFFFFFFFFFF AND PUSH20 0xFFFFFFFFFFFFFFFFFFFFFFFFFFFFFFFFFFFFFFFF AND DUP2 MSTORE PUSH1 0x20 ADD SWAP1 DUP2 MSTORE PUSH1 0x20 ADD PUSH0 KECCAK256 DUP2 SWAP1 SSTORE POP PUSH0 CALLER PUSH20 0xFFFFFFFFFFFFFFFFFFFFFFFFFFFFFFFFFFFFFFFF AND DUP3 PUSH1 0x40 MLOAD PUSH2 0x998 SWAP1 PUSH2 0x1411 JUMP JUMPDEST PUSH0 PUSH1 0x40 MLOAD DUP1 DUP4 SUB DUP2 DUP6 DUP8 GAS CALL SWAP3 POP POP POP RETURNDATASIZE DUP1 PUSH0 DUP2 EQ PUSH2 0x9D2 JUMPI PUSH1 0x40 MLOAD SWAP2 POP PUSH1 0x1F NOT PUSH1 0x3F RETURNDATASIZE ADD AND DUP3 ADD PUSH1 0x40 MSTORE RETURNDATASIZE DUP3 MSTORE RETURNDATASIZE PUSH0 PUSH1 0x20 DUP5 ADD RETURNDATACOPY PUSH2 0x9D7 JUMP JUMPDEST PUSH1 0x60 SWAP2 POP JUMPDEST POP POP SWAP1 POP DUP1 PUSH2 0xA1B JUMPI PUSH1 0x40 MLOAD PUSH32 0x8C379A000000000000000000000000000000000000000000000000000000000 DUP2 MSTORE PUSH1 0x4 ADD PUSH2 0xA12 SWAP1 PUSH2 0x1572 JUMP JUMPDEST PUSH1 0x40 MLOAD DUP1 SWAP2 SUB SWAP1 REVERT JUMPDEST POP POP JUMP JUMPDEST PUSH1 0x3 SLOAD DUP2 JUMP JUMPDEST PUSH0 DUP1 SLOAD SWAP1 PUSH2 0x100 EXP SWAP1 DIV PUSH20 0xFFFFFFFFFFFFFFFFFFFFFFFFFFFFFFFFFFFFFFFF AND DUP2 JUMP JUMPDEST PUSH1 0x5 PUSH0 SWAP1 SLOAD SWAP1 PUSH2 0x100 EXP SWAP1 DIV PUSH20 0xFFFFFFFFFFFFFFFFFFFFFFFFFFFFFFFFFFFFFFFF AND DUP2 JUMP JUMPDEST PUSH1 0x7 PUSH0 SWAP1 SLOAD SWAP1 PUSH2 0x100 EXP SWAP1 DIV PUSH1 0xFF AND PUSH2 0xABB JUMPI PUSH1 0x40 MLOAD PUSH32 0x8C379A000000000000000000000000000000000000000000000000000000000 DUP2 MSTORE PUSH1 0x4 ADD PUSH2 0xAB2 SWAP1 PUSH2 0x1600 JUMP JUMPDEST PUSH1 0x40 MLOAD DUP1 SWAP2 SUB SWAP1 REVERT JUMPDEST PUSH0 DUP1 SLOAD SWAP1 PUSH2 0x100 EXP SWAP1 DIV PUSH20 0xFFFFFFFFFFFFFFFFFFFFFFFFFFFFFFFFFFFFFFFF AND PUSH20 0xFFFFFFFFFFFFFFFFFFFFFFFFFFFFFFFFFFFFFFFF AND CALLER PUSH20 0xFFFFFFFFFFFFFFFFFFFFFFFFFFFFFFFFFFFFFFFF AND EQ PUSH2 0xB48 JUMPI PUSH1 0x40 MLOAD PUSH32 0x8C379A000000000000000000000000000000000000000000000000000000000 DUP2 MSTORE PUSH1 0x4 ADD PUSH2 0xB3F SWAP1 PUSH2 0x1668 JUMP JUMPDEST PUSH1 0x40 MLOAD DUP1 SWAP2 SUB SWAP1 REVERT JUMPDEST PUSH0 PUSH1 0x6 SLOAD GT PUSH2 0xB8C JUMPI PUSH1 0x40 MLOAD PUSH32 0x8C379A000000000000000000000000000000000000000000000000000000000 DUP2 MSTORE PUSH1 0x4 ADD PUSH2 0xB83 SWAP1 PUSH2 0x16F6 JUMP JUMPDEST PUSH1 0x40 MLOAD DUP1 SWAP2 SUB SWAP1 REVERT JUMPDEST DUP1 PUSH1 0x3 DUP2 SWAP1 SSTORE POP DUP2 TIMESTAMP PUSH2 0xB9F SWAP2 SWAP1 PUSH2 0x12E1 JUMP JUMPDEST PUSH1 0x2 DUP2 SWAP1 SSTORE POP PUSH0 PUSH1 0x7 PUSH0 PUSH2 0x100 EXP DUP2 SLOAD DUP2 PUSH1 0xFF MUL NOT AND SWAP1 DUP4 ISZERO ISZERO MUL OR SWAP1 SSTORE POP POP POP JUMP JUMPDEST PUSH1 0x8 SLOAD DUP2 JUMP JUMPDEST PUSH1 0x4 SLOAD DUP2 JUMP JUMPDEST PUSH1 0x2 SLOAD TIMESTAMP LT ISZERO PUSH2 0xC13 JUMPI PUSH1 0x40 MLOAD PUSH32 0x8C379A000000000000000000000000000000000000000000000000000000000 DUP2 MSTORE PUSH1 0x4 ADD PUSH2 0xC0A SWAP1 PUSH2 0x175E JUMP JUMPDEST PUSH1 0x40 MLOAD DUP1 SWAP2 SUB SWAP1 REVERT JUMPDEST PUSH0 DUP1 SLOAD SWAP1 PUSH2 0x100 EXP SWAP1 DIV PUSH20 0xFFFFFFFFFFFFFFFFFFFFFFFFFFFFFFFFFFFFFFFF AND PUSH20 0xFFFFFFFFFFFFFFFFFFFFFFFFFFFFFFFFFFFFFFFF AND CALLER PUSH20 0xFFFFFFFFFFFFFFFFFFFFFFFFFFFFFFFFFFFFFFFF AND EQ PUSH2 0xCA0 JUMPI PUSH1 0x40 MLOAD PUSH32 0x8C379A000000000000000000000000000000000000000000000000000000000 DUP2 MSTORE PUSH1 0x4 ADD PUSH2 0xC97 SWAP1 PUSH2 0x1668 JUMP JUMPDEST PUSH1 0x40 MLOAD DUP1 SWAP2 SUB SWAP1 REVERT JUMPDEST PUSH1 0x1 PUSH1 0x7 PUSH0 PUSH2 0x100 EXP DUP2 SLOAD DUP2 PUSH1 0xFF MUL NOT AND SWAP1 DUP4 ISZERO ISZERO MUL OR SWAP1 SSTORE POP PUSH0 PUSH1 0x4 SLOAD SUB PUSH2 0xD01 JUMPI PUSH32 0xDAEC4582D5D9595688C8C98545FDD1C696D41C6AEAEB636737E84ED2F5C00EDA PUSH0 DUP1 PUSH1 0x40 MLOAD PUSH2 0xCF4 SWAP3 SWAP2 SWAP1 PUSH2 0x17BE JUMP JUMPDEST PUSH1 0x40 MLOAD DUP1 SWAP2 SUB SWAP1 LOG1 PUSH2 0x1012 JUMP JUMPDEST PUSH0 PUSH1 0x64 PUSH1 0x8 SLOAD PUSH1 0x4 SLOAD PUSH2 0xD14 SWAP2 SWAP1 PUSH2 0x17E5 JUMP JUMPDEST PUSH2 0xD1E SWAP2 SWAP1 PUSH2 0x1853 JUMP JUMPDEST SWAP1 POP PUSH0 DUP2 PUSH1 0x4 SLOAD PUSH2 0xD2F SWAP2 SWAP1 PUSH2 0x148D JUMP JUMPDEST SWAP1 POP PUSH0 PUSH1 0x1 PUSH0 SWAP1 SLOAD SWAP1 PUSH2 0x100 EXP SWAP1 DIV PUSH20 0xFFFFFFFFFFFFFFFFFFFFFFFFFFFFFFFFFFFFFFFF AND PUSH20 0xFFFFFFFFFFFFFFFFFFFFFFFFFFFFFFFFFFFFFFFF AND DUP4 PUSH1 0x40 MLOAD PUSH2 0xD77 SWAP1 PUSH2 0x1411 JUMP JUMPDEST PUSH0 PUSH1 0x40 MLOAD DUP1 DUP4 SUB DUP2 DUP6 DUP8 GAS CALL SWAP3 POP POP POP RETURNDATASIZE DUP1 PUSH0 DUP2 EQ PUSH2 0xDB1 JUMPI PUSH1 0x40 MLOAD SWAP2 POP PUSH1 0x1F NOT PUSH1 0x3F RETURNDATASIZE ADD AND DUP3 ADD PUSH1 0x40 MSTORE RETURNDATASIZE DUP3 MSTORE RETURNDATASIZE PUSH0 PUSH1 0x20 DUP5 ADD RETURNDATACOPY PUSH2 0xDB6 JUMP JUMPDEST PUSH1 0x60 SWAP2 POP JUMPDEST POP POP SWAP1 POP DUP1 PUSH2 0xDFA JUMPI PUSH1 0x40 MLOAD PUSH32 0x8C379A000000000000000000000000000000000000000000000000000000000 DUP2 MSTORE PUSH1 0x4 ADD PUSH2 0xDF1 SWAP1 PUSH2 0x18CD JUMP JUMPDEST PUSH1 0x40 MLOAD DUP1 SWAP2 SUB SWAP1 REVERT JUMPDEST PUSH1 0x1 PUSH0 SWAP1 SLOAD SWAP1 PUSH2 0x100 EXP SWAP1 DIV PUSH20 0xFFFFFFFFFFFFFFFFFFFFFFFFFFFFFFFFFFFFFFFF AND PUSH20 0xFFFFFFFFFFFFFFFFFFFFFFFFFFFFFFFFFFFFFFFF AND PUSH32 0xBC86DE696EDC3350C664D50ABF25F24E7E1251F1469AD925B25FE36927270D43 DUP5 PUSH1 0x40 MLOAD PUSH2 0xE61 SWAP2 SWAP1 PUSH2 0x1110 JUMP JUMPDEST PUSH1 0x40 MLOAD DUP1 SWAP2 SUB SWAP1 LOG2 PUSH0 DUP1 PUSH0 SWAP1 SLOAD SWAP1 PUSH2 0x100 EXP SWAP1 DIV PUSH20 0xFFFFFFFFFFFFFFFFFFFFFFFFFFFFFFFFFFFFFFFF AND PUSH20 0xFFFFFFFFFFFFFFFFFFFFFFFFFFFFFFFFFFFFFFFF AND DUP4 PUSH1 0x40 MLOAD PUSH2 0xEAE SWAP1 PUSH2 0x1411 JUMP JUMPDEST PUSH0 PUSH1 0x40 MLOAD DUP1 DUP4 SUB DUP2 DUP6 DUP8 GAS CALL SWAP3 POP POP POP RETURNDATASIZE DUP1 PUSH0 DUP2 EQ PUSH2 0xEE8 JUMPI PUSH1 0x40 MLOAD SWAP2 POP PUSH1 0x1F NOT PUSH1 0x3F RETURNDATASIZE ADD AND DUP3 ADD PUSH1 0x40 MSTORE RETURNDATASIZE DUP3 MSTORE RETURNDATASIZE PUSH0 PUSH1 0x20 DUP5 ADD RETURNDATACOPY PUSH2 0xEED JUMP JUMPDEST PUSH1 0x60 SWAP2 POP JUMPDEST POP POP SWAP1 POP DUP1 PUSH2 0xF31 JUMPI PUSH1 0x40 MLOAD PUSH32 0x8C379A000000000000000000000000000000000000000000000000000000000 DUP2 MSTORE PUSH1 0x4 ADD PUSH2 0xF28 SWAP1 PUSH2 0x1935 JUMP JUMPDEST PUSH1 0x40 MLOAD DUP1 SWAP2 SUB SWAP1 REVERT JUMPDEST PUSH1 0x1 PUSH1 0x6 PUSH0 DUP3 DUP3 SLOAD PUSH2 0xF43 SWAP2 SWAP1 PUSH2 0x12E1 JUMP JUMPDEST SWAP3 POP POP DUP2 SWAP1 SSTORE POP PUSH1 0x5 PUSH0 SWAP1 SLOAD SWAP1 PUSH2 0x100 EXP SWAP1 DIV PUSH20 0xFFFFFFFFFFFFFFFFFFFFFFFFFFFFFFFFFFFFFFFF AND PUSH0 DUP1 PUSH2 0x100 EXP DUP2 SLOAD DUP2 PUSH20 0xFFFFFFFFFFFFFFFFFFFFFFFFFFFFFFFFFFFFFFFF MUL NOT AND SWAP1 DUP4 PUSH20 0xFFFFFFFFFFFFFFFFFFFFFFFFFFFFFFFFFFFFFFFF AND MUL OR SWAP1 SSTORE POP PUSH0 PUSH1 0x4 DUP2 SWAP1 SSTORE POP PUSH32 0xDAEC4582D5D9595688C8C98545FDD1C696D41C6AEAEB636737E84ED2F5C00EDA PUSH1 0x5 PUSH0 SWAP1 SLOAD SWAP1 PUSH2 0x100 EXP SWAP1 DIV PUSH20 0xFFFFFFFFFFFFFFFFFFFFFFFFFFFFFFFFFFFFFFFF AND PUSH1 0x4 SLOAD PUSH1 0x40 MLOAD PUSH2 0x1005 SWAP3 SWAP2 SWAP1 PUSH2 0x1953 JUMP JUMPDEST PUSH1 0x40 MLOAD DUP1 SWAP2 SUB SWAP1 LOG1 POP POP POP POP JUMPDEST JUMP JUMPDEST PUSH0 PUSH20 0xFFFFFFFFFFFFFFFFFFFFFFFFFFFFFFFFFFFFFFFF DUP3 AND SWAP1 POP SWAP2 SWAP1 POP JUMP JUMPDEST PUSH0 PUSH2 0x103D DUP3 PUSH2 0x1014 JUMP JUMPDEST SWAP1 POP SWAP2 SWAP1 POP JUMP JUMPDEST PUSH2 0x104D DUP2 PUSH2 0x1033 JUMP JUMPDEST DUP3 MSTORE POP POP JUMP JUMPDEST PUSH0 PUSH1 0x20 DUP3 ADD SWAP1 POP PUSH2 0x1066 PUSH0 DUP4 ADD DUP5 PUSH2 0x1044 JUMP JUMPDEST SWAP3 SWAP2 POP POP JUMP JUMPDEST PUSH0 DUP2 ISZERO ISZERO SWAP1 POP SWAP2 SWAP1 POP JUMP JUMPDEST PUSH2 0x1080 DUP2 PUSH2 0x106C JUMP JUMPDEST DUP3 MSTORE POP POP JUMP JUMPDEST PUSH0 PUSH1 0x20 DUP3 ADD SWAP1 POP PUSH2 0x1099 PUSH0 DUP4 ADD DUP5 PUSH2 0x1077 JUMP JUMPDEST SWAP3 SWAP2 POP POP JUMP JUMPDEST PUSH0 DUP1 REVERT JUMPDEST PUSH2 0x10AC DUP2 PUSH2 0x1033 JUMP JUMPDEST DUP2 EQ PUSH2 0x10B6 JUMPI PUSH0 DUP1 REVERT JUMPDEST POP JUMP JUMPDEST PUSH0 DUP2 CALLDATALOAD SWAP1 POP PUSH2 0x10C7 DUP2 PUSH2 0x10A3 JUMP JUMPDEST SWAP3 SWAP2 POP POP JUMP JUMPDEST PUSH0 PUSH1 0x20 DUP3 DUP5 SUB SLT ISZERO PUSH2 0x10E2 JUMPI PUSH2 0x10E1 PUSH2 0x109F JUMP JUMPDEST JUMPDEST PUSH0 PUSH2 0x10EF DUP5 DUP3 DUP6 ADD PUSH2 0x10B9 JUMP JUMPDEST SWAP2 POP POP SWAP3 SWAP2 POP POP JUMP JUMPDEST PUSH0 DUP2 SWAP1 POP SWAP2 SWAP1 POP JUMP JUMPDEST PUSH2 0x110A DUP2 PUSH2 0x10F8 JUMP JUMPDEST DUP3 MSTORE POP POP JUMP JUMPDEST PUSH0 PUSH1 0x20 DUP3 ADD SWAP1 POP PUSH2 0x1123 PUSH0 DUP4 ADD DUP5 PUSH2 0x1101 JUMP JUMPDEST SWAP3 SWAP2 POP POP JUMP JUMPDEST PUSH0 PUSH1 0x80 DUP3 ADD SWAP1 POP PUSH2 0x113C PUSH0 DUP4 ADD DUP8 PUSH2 0x1044 JUMP JUMPDEST PUSH2 0x1149 PUSH1 0x20 DUP4 ADD DUP7 PUSH2 0x1101 JUMP JUMPDEST PUSH2 0x1156 PUSH1 0x40 DUP4 ADD DUP6 PUSH2 0x1101 JUMP JUMPDEST PUSH2 0x1163 PUSH1 0x60 DUP4 ADD DUP5 PUSH2 0x1077 JUMP JUMPDEST SWAP6 SWAP5 POP POP POP POP POP JUMP JUMPDEST PUSH2 0x1175 DUP2 PUSH2 0x10F8 JUMP JUMPDEST DUP2 EQ PUSH2 0x117F JUMPI PUSH0 DUP1 REVERT JUMPDEST POP JUMP JUMPDEST PUSH0 DUP2 CALLDATALOAD SWAP1 POP PUSH2 0x1190 DUP2 PUSH2 0x116C JUMP JUMPDEST SWAP3 SWAP2 POP POP JUMP JUMPDEST PUSH0 DUP1 PUSH1 0x40 DUP4 DUP6 SUB SLT ISZERO PUSH2 0x11AC JUMPI PUSH2 0x11AB PUSH2 0x109F JUMP JUMPDEST JUMPDEST PUSH0 PUSH2 0x11B9 DUP6 DUP3 DUP7 ADD PUSH2 0x1182 JUMP JUMPDEST SWAP3 POP POP PUSH1 0x20 PUSH2 0x11CA DUP6 DUP3 DUP7 ADD PUSH2 0x1182 JUMP JUMPDEST SWAP2 POP POP SWAP3 POP SWAP3 SWAP1 POP JUMP JUMPDEST PUSH0 DUP3 DUP3 MSTORE PUSH1 0x20 DUP3 ADD SWAP1 POP SWAP3 SWAP2 POP POP JUMP JUMPDEST PUSH32 0x41756374696F6E20616C726561647920656E6465640000000000000000000000 PUSH0 DUP3 ADD MSTORE POP JUMP JUMPDEST PUSH0 PUSH2 0x1218 PUSH1 0x15 DUP4 PUSH2 0x11D4 JUMP JUMPDEST SWAP2 POP PUSH2 0x1223 DUP3 PUSH2 0x11E4 JUMP JUMPDEST PUSH1 0x20 DUP3 ADD SWAP1 POP SWAP2 SWAP1 POP JUMP JUMPDEST PUSH0 PUSH1 0x20 DUP3 ADD SWAP1 POP DUP2 DUP2 SUB PUSH0 DUP4 ADD MSTORE PUSH2 0x1245 DUP2 PUSH2 0x120C JUMP JUMPDEST SWAP1 POP SWAP2 SWAP1 POP JUMP JUMPDEST PUSH32 0x41756374696F6E20656E64656400000000000000000000000000000000000000 PUSH0 DUP3 ADD MSTORE POP JUMP JUMPDEST PUSH0 PUSH2 0x1280 PUSH1 0xD DUP4 PUSH2 0x11D4 JUMP JUMPDEST SWAP2 POP PUSH2 0x128B DUP3 PUSH2 0x124C JUMP JUMPDEST PUSH1 0x20 DUP3 ADD SWAP1 POP SWAP2 SWAP1 POP JUMP JUMPDEST PUSH0 PUSH1 0x20 DUP3 ADD SWAP1 POP DUP2 DUP2 SUB PUSH0 DUP4 ADD MSTORE PUSH2 0x12AD DUP2 PUSH2 0x1274 JUMP JUMPDEST SWAP1 POP SWAP2 SWAP1 POP JUMP JUMPDEST PUSH32 0x4E487B7100000000000000000000000000000000000000000000000000000000 PUSH0 MSTORE PUSH1 0x11 PUSH1 0x4 MSTORE PUSH1 0x24 PUSH0 REVERT JUMPDEST PUSH0 PUSH2 0x12EB DUP3 PUSH2 0x10F8 JUMP JUMPDEST SWAP2 POP PUSH2 0x12F6 DUP4 PUSH2 0x10F8 JUMP JUMPDEST SWAP3 POP DUP3 DUP3 ADD SWAP1 POP DUP1 DUP3 GT ISZERO PUSH2 0x130E JUMPI PUSH2 0x130D PUSH2 0x12B4 JUMP JUMPDEST JUMPDEST SWAP3 SWAP2 POP POP JUMP JUMPDEST PUSH32 0x546F6F206C6F7700000000000000000000000000000000000000000000000000 PUSH0 DUP3 ADD MSTORE POP JUMP JUMPDEST PUSH0 PUSH2 0x1348 PUSH1 0x7 DUP4 PUSH2 0x11D4 JUMP JUMPDEST SWAP2 POP PUSH2 0x1353 DUP3 PUSH2 0x1314 JUMP JUMPDEST PUSH1 0x20 DUP3 ADD SWAP1 POP SWAP2 SWAP1 POP JUMP JUMPDEST PUSH0 PUSH1 0x20 DUP3 ADD SWAP1 POP DUP2 DUP2 SUB PUSH0 DUP4 ADD MSTORE PUSH2 0x1375 DUP2 PUSH2 0x133C JUMP JUMPDEST SWAP1 POP SWAP2 SWAP1 POP JUMP JUMPDEST PUSH32 0x4F776E65722063616E7420626520746865206269646465720000000000000000 PUSH0 DUP3 ADD MSTORE POP JUMP JUMPDEST PUSH0 PUSH2 0x13B0 PUSH1 0x18 DUP4 PUSH2 0x11D4 JUMP JUMPDEST SWAP2 POP PUSH2 0x13BB DUP3 PUSH2 0x137C JUMP JUMPDEST PUSH1 0x20 DUP3 ADD SWAP1 POP SWAP2 SWAP1 POP JUMP JUMPDEST PUSH0 PUSH1 0x20 DUP3 ADD SWAP1 POP DUP2 DUP2 SUB PUSH0 DUP4 ADD MSTORE PUSH2 0x13DD DUP2 PUSH2 0x13A4 JUMP JUMPDEST SWAP1 POP SWAP2 SWAP1 POP JUMP JUMPDEST PUSH0 DUP2 SWAP1 POP SWAP3 SWAP2 POP POP JUMP JUMPDEST POP JUMP JUMPDEST PUSH0 PUSH2 0x13FC PUSH0 DUP4 PUSH2 0x13E4 JUMP JUMPDEST SWAP2 POP PUSH2 0x1407 DUP3 PUSH2 0x13EE JUMP JUMPDEST PUSH0 DUP3 ADD SWAP1 POP SWAP2 SWAP1 POP JUMP JUMPDEST PUSH0 PUSH2 0x141B DUP3 PUSH2 0x13F1 JUMP JUMPDEST SWAP2 POP DUP2 SWAP1 POP SWAP2 SWAP1 POP JUMP JUMPDEST PUSH32 0x726566756E6473206661696C6564000000000000000000000000000000000000 PUSH0 DUP3 ADD MSTORE POP JUMP JUMPDEST PUSH0 PUSH2 0x1459 PUSH1 0xE DUP4 PUSH2 0x11D4 JUMP JUMPDEST SWAP2 POP PUSH2 0x1464 DUP3 PUSH2 0x1425 JUMP JUMPDEST PUSH1 0x20 DUP3 ADD SWAP1 POP SWAP2 SWAP1 POP JUMP JUMPDEST PUSH0 PUSH1 0x20 DUP3 ADD SWAP1 POP DUP2 DUP2 SUB PUSH0 DUP4 ADD MSTORE PUSH2 0x1486 DUP2 PUSH2 0x144D JUMP JUMPDEST SWAP1 POP SWAP2 SWAP1 POP JUMP JUMPDEST PUSH0 PUSH2 0x1497 DUP3 PUSH2 0x10F8 JUMP JUMPDEST SWAP2 POP PUSH2 0x14A2 DUP4 PUSH2 0x10F8 JUMP JUMPDEST SWAP3 POP DUP3 DUP3 SUB SWAP1 POP DUP2 DUP2 GT ISZERO PUSH2 0x14BA JUMPI PUSH2 0x14B9 PUSH2 0x12B4 JUMP JUMPDEST JUMPDEST SWAP3 SWAP2 POP POP JUMP JUMPDEST PUSH32 0x4E6F2066756E647320746F207769746864726177000000000000000000000000 PUSH0 DUP3 ADD MSTORE POP JUMP JUMPDEST PUSH0 PUSH2 0x14F4 PUSH1 0x14 DUP4 PUSH2 0x11D4 JUMP JUMPDEST SWAP2 POP PUSH2 0x14FF DUP3 PUSH2 0x14C0 JUMP JUMPDEST PUSH1 0x20 DUP3 ADD SWAP1 POP SWAP2 SWAP1 POP JUMP JUMPDEST PUSH0 PUSH1 0x20 DUP3 ADD SWAP1 POP DUP2 DUP2 SUB PUSH0 DUP4 ADD MSTORE PUSH2 0x1521 DUP2 PUSH2 0x14E8 JUMP JUMPDEST SWAP1 POP SWAP2 SWAP1 POP JUMP JUMPDEST PUSH32 0x5769746864726177616C206661696C6564000000000000000000000000000000 PUSH0 DUP3 ADD MSTORE POP JUMP JUMPDEST PUSH0 PUSH2 0x155C PUSH1 0x11 DUP4 PUSH2 0x11D4 JUMP JUMPDEST SWAP2 POP PUSH2 0x1567 DUP3 PUSH2 0x1528 JUMP JUMPDEST PUSH1 0x20 DUP3 ADD SWAP1 POP SWAP2 SWAP1 POP JUMP JUMPDEST PUSH0 PUSH1 0x20 DUP3 ADD SWAP1 POP DUP2 DUP2 SUB PUSH0 DUP4 ADD MSTORE PUSH2 0x1589 DUP2 PUSH2 0x1550 JUMP JUMPDEST SWAP1 POP SWAP2 SWAP1 POP JUMP JUMPDEST PUSH32 0x43616E74206F7665726C61702077697468206F6E676F696E672061756374696F PUSH0 DUP3 ADD MSTORE PUSH32 0x6E00000000000000000000000000000000000000000000000000000000000000 PUSH1 0x20 DUP3 ADD MSTORE POP JUMP JUMPDEST PUSH0 PUSH2 0x15EA PUSH1 0x21 DUP4 PUSH2 0x11D4 JUMP JUMPDEST SWAP2 POP PUSH2 0x15F5 DUP3 PUSH2 0x1590 JUMP JUMPDEST PUSH1 0x40 DUP3 ADD SWAP1 POP SWAP2 SWAP1 POP JUMP JUMPDEST PUSH0 PUSH1 0x20 DUP3 ADD SWAP1 POP DUP2 DUP2 SUB PUSH0 DUP4 ADD MSTORE PUSH2 0x1617 DUP2 PUSH2 0x15DE JUMP JUMPDEST SWAP1 POP SWAP2 SWAP1 POP JUMP JUMPDEST PUSH32 0x4E6F74206F776E65720000000000000000000000000000000000000000000000 PUSH0 DUP3 ADD MSTORE POP JUMP JUMPDEST PUSH0 PUSH2 0x1652 PUSH1 0x9 DUP4 PUSH2 0x11D4 JUMP JUMPDEST SWAP2 POP PUSH2 0x165D DUP3 PUSH2 0x161E JUMP JUMPDEST PUSH1 0x20 DUP3 ADD SWAP1 POP SWAP2 SWAP1 POP JUMP JUMPDEST PUSH0 PUSH1 0x20 DUP3 ADD SWAP1 POP DUP2 DUP2 SUB PUSH0 DUP4 ADD MSTORE PUSH2 0x167F DUP2 PUSH2 0x1646 JUMP JUMPDEST SWAP1 POP SWAP2 SWAP1 POP JUMP JUMPDEST PUSH32 0x596F752063616E7420726573656C6C206265666F726520746865206669727374 PUSH0 DUP3 ADD MSTORE PUSH32 0x2061756374696F6E000000000000000000000000000000000000000000000000 PUSH1 0x20 DUP3 ADD MSTORE POP JUMP JUMPDEST PUSH0 PUSH2 0x16E0 PUSH1 0x28 DUP4 PUSH2 0x11D4 JUMP JUMPDEST SWAP2 POP PUSH2 0x16EB DUP3 PUSH2 0x1686 JUMP JUMPDEST PUSH1 0x40 DUP3 ADD SWAP1 POP SWAP2 SWAP1 POP JUMP JUMPDEST PUSH0 PUSH1 0x20 DUP3 ADD SWAP1 POP DUP2 DUP2 SUB PUSH0 DUP4 ADD MSTORE PUSH2 0x170D DUP2 PUSH2 0x16D4 JUMP JUMPDEST SWAP1 POP SWAP2 SWAP1 POP JUMP JUMPDEST PUSH32 0x41756374696F6E206E6F742079657420656E6465640000000000000000000000 PUSH0 DUP3 ADD MSTORE POP JUMP JUMPDEST PUSH0 PUSH2 0x1748 PUSH1 0x15 DUP4 PUSH2 0x11D4 JUMP JUMPDEST SWAP2 POP PUSH2 0x1753 DUP3 PUSH2 0x1714 JUMP JUMPDEST PUSH1 0x20 DUP3 ADD SWAP1 POP SWAP2 SWAP1 POP JUMP JUMPDEST PUSH0 PUSH1 0x20 DUP3 ADD SWAP1 POP DUP2 DUP2 SUB PUSH0 DUP4 ADD MSTORE PUSH2 0x1775 DUP2 PUSH2 0x173C JUMP JUMPDEST SWAP1 POP SWAP2 SWAP1 POP JUMP JUMPDEST PUSH0 DUP2 SWAP1 POP SWAP2 SWAP1 POP JUMP JUMPDEST PUSH0 DUP2 SWAP1 POP SWAP2 SWAP1 POP JUMP JUMPDEST PUSH0 PUSH2 0x17A8 PUSH2 0x17A3 PUSH2 0x179E DUP5 PUSH2 0x177C JUMP JUMPDEST PUSH2 0x1785 JUMP JUMPDEST PUSH2 0x10F8 JUMP JUMPDEST SWAP1 POP SWAP2 SWAP1 POP JUMP JUMPDEST PUSH2 0x17B8 DUP2 PUSH2 0x178E JUMP JUMPDEST DUP3 MSTORE POP POP JUMP JUMPDEST PUSH0 PUSH1 0x40 DUP3 ADD SWAP1 POP PUSH2 0x17D1 PUSH0 DUP4 ADD DUP6 PUSH2 0x1044 JUMP JUMPDEST PUSH2 0x17DE PUSH1 0x20 DUP4 ADD DUP5 PUSH2 0x17AF JUMP JUMPDEST SWAP4 SWAP3 POP POP POP JUMP JUMPDEST PUSH0 PUSH2 0x17EF DUP3 PUSH2 0x10F8 JUMP JUMPDEST SWAP2 POP PUSH2 0x17FA DUP4 PUSH2 0x10F8 JUMP JUMPDEST SWAP3 POP DUP3 DUP3 MUL PUSH2 0x1808 DUP2 PUSH2 0x10F8 JUMP JUMPDEST SWAP2 POP DUP3 DUP3 DIV DUP5 EQ DUP4 ISZERO OR PUSH2 0x181F JUMPI PUSH2 0x181E PUSH2 0x12B4 JUMP JUMPDEST JUMPDEST POP SWAP3 SWAP2 POP POP JUMP JUMPDEST PUSH32 0x4E487B7100000000000000000000000000000000000000000000000000000000 PUSH0 MSTORE PUSH1 0x12 PUSH1 0x4 MSTORE PUSH1 0x24 PUSH0 REVERT JUMPDEST PUSH0 PUSH2 0x185D DUP3 PUSH2 0x10F8 JUMP JUMPDEST SWAP2 POP PUSH2 0x1868 DUP4 PUSH2 0x10F8 JUMP JUMPDEST SWAP3 POP DUP3 PUSH2 0x1878 JUMPI PUSH2 0x1877 PUSH2 0x1826 JUMP JUMPDEST JUMPDEST DUP3 DUP3 DIV SWAP1 POP SWAP3 SWAP2 POP POP JUMP JUMPDEST PUSH32 0x526F79616C7479207472616E73666572206661696C6564000000000000000000 PUSH0 DUP3 ADD MSTORE POP JUMP JUMPDEST PUSH0 PUSH2 0x18B7 PUSH1 0x17 DUP4 PUSH2 0x11D4 JUMP JUMPDEST SWAP2 POP PUSH2 0x18C2 DUP3 PUSH2 0x1883 JUMP JUMPDEST PUSH1 0x20 DUP3 ADD SWAP1 POP SWAP2 SWAP1 POP JUMP JUMPDEST PUSH0 PUSH1 0x20 DUP3 ADD SWAP1 POP DUP2 DUP2 SUB PUSH0 DUP4 ADD MSTORE PUSH2 0x18E4 DUP2 PUSH2 0x18AB JUMP JUMPDEST SWAP1 POP SWAP2 SWAP1 POP JUMP JUMPDEST PUSH32 0x53656C6C6572207472616E73666572206661696C656400000000000000000000 PUSH0 DUP3 ADD MSTORE POP JUMP JUMPDEST PUSH0 PUSH2 0x191F PUSH1 0x16 DUP4 PUSH2 0x11D4 JUMP JUMPDEST SWAP2 POP PUSH2 0x192A DUP3 PUSH2 0x18EB JUMP JUMPDEST PUSH1 0x20 DUP3 ADD SWAP1 POP SWAP2 SWAP1 POP JUMP JUMPDEST PUSH0 PUSH1 0x20 DUP3 ADD SWAP1 POP DUP2 DUP2 SUB PUSH0 DUP4 ADD MSTORE PUSH2 0x194C DUP2 PUSH2 0x1913 JUMP JUMPDEST SWAP1 POP SWAP2 SWAP1 POP JUMP JUMPDEST PUSH0 PUSH1 0x40 DUP3 ADD SWAP1 POP PUSH2 0x1966 PUSH0 DUP4 ADD DUP6 PUSH2 0x1044 JUMP JUMPDEST PUSH2 0x1973 PUSH1 0x20 DUP4 ADD DUP5 PUSH2 0x1101 JUMP JUMPDEST SWAP4 SWAP3 POP POP POP JUMP INVALID LOG2 PUSH5 0x6970667358 0x22 SLT KECCAK256 INVALID 0xC6 PUSH10 0x2B6A1D2D534B12B5A021 PUSH25 0xA9390D106788A5D0AEDC508E4F7D41A8A17364736F6C634300 ADDMOD BYTE STOP CALLER "
		},
		"gasEstimates": {
			"creation": {
				"codeDepositCost": "1315200",
				"executionCost": "infinite",
				"totalCost": "infinite"
			},
			"external": {
				"bid()": "infinite",
				"creator()": "2532",
				"endAuction()": "infinite",
				"endTime()": "2492",
				"ended()": "2512",
				"getAuctionStatus()": "infinite",
				"highestBid()": "2491",
				"highestBidder()": "2597",
				"minIncrement()": "2470",
				"owner()": "2572",
				"pendingReturns(address)": "2825",
				"resaleWithRoyalty(uint256,uint256)": "infinite",
				"royaltyRate()": "2469",
				"soldCount()": "2514",
				"withdraw()": "infinite"
			}
		},
		"methodIdentifiers": {
			"bid()": "1998aeef",
			"creator()": "02d05d3f",
			"endAuction()": "fe67a54b",
			"endTime()": "3197cbb6",
			"ended()": "12fa6feb",
			"getAuctionStatus()": "2e93be30",
			"highestBid()": "d57bde79",
			"highestBidder()": "91f90157",
			"minIncrement()": "8afcb14d",
			"owner()": "8da5cb5b",
			"pendingReturns(address)": "26b387bb",
			"resaleWithRoyalty(uint256,uint256)": "b639cec6",
			"royaltyRate()": "c4d1510d",
			"soldCount()": "39f9c82c",
			"withdraw()": "3ccfd60b"
		}
	},
	"abi": [
		{
			"inputs": [
				{
					"internalType": "address",
					"name": "_creator",
					"type": "address"
				},
				{
					"internalType": "uint256",
					"name": "_duration",
					"type": "uint256"
				},
				{
					"internalType": "uint256",
					"name": "_minIncrement",
					"type": "uint256"
				}
			],
			"stateMutability": "nonpayable",
			"type": "constructor"
		},
		{
			"anonymous": false,
			"inputs": [
				{
					"indexed": false,
					"internalType": "address",
					"name": "winner",
					"type": "address"
				},
				{
					"indexed": false,
					"internalType": "uint256",
					"name": "amount",
					"type": "uint256"
				}
			],
			"name": "AuctionEnded",
			"type": "event"
		},
		{
			"anonymous": false,
			"inputs": [
				{
					"indexed": true,
					"internalType": "address",
					"name": "bidder",
					"type": "address"
				},
				{
					"indexed": false,
					"internalType": "uint256",
					"name": "amount",
					"type": "uint256"
				}
			],
			"name": "NewBid",
			"type": "event"
		},
		{
			"anonymous": false,
			"inputs": [
				{
					"indexed": true,
					"internalType": "address",
					"name": "bidder",
					"type": "address"
				},
				{
					"indexed": false,
					"internalType": "uint256",
					"name": "amount",
					"type": "uint256"
				}
			],
			"name": "Resale",
			"type": "event"
		},
		{
			"anonymous": false,
			"inputs": [
				{
					"indexed": true,
					"internalType": "address",
					"name": "creator",
					"type": "address"
				},
				{
					"indexed": false,
					"internalType": "uint256",
					"name": "amount",
					"type": "uint256"
				}
			],
			"name": "RoyaltyPaid",
			"type": "event"
		},
		{
			"anonymous": false,
			"inputs": [
				{
					"indexed": true,
					"internalType": "address",
					"name": "lastBidder",
					"type": "address"
				},
				{
					"indexed": false,
					"internalType": "uint256",
					"name": "amount",
					"type": "uint256"
				}
			],
			"name": "bidRefund",
			"type": "event"
		},
		{
			"inputs": [],
			"name": "bid",
			"outputs": [],
			"stateMutability": "payable",
			"type": "function"
		},
		{
			"inputs": [],
			"name": "creator",
			"outputs": [
				{
					"internalType": "address",
					"name": "",
					"type": "address"
				}
			],
			"stateMutability": "view",
			"type": "function"
		},
		{
			"inputs": [],
			"name": "endAuction",
			"outputs": [],
			"stateMutability": "nonpayable",
			"type": "function"
		},
		{
			"inputs": [],
			"name": "endTime",
			"outputs": [
				{
					"internalType": "uint256",
					"name": "",
					"type": "uint256"
				}
			],
			"stateMutability": "view",
			"type": "function"
		},
		{
			"inputs": [],
			"name": "ended",
			"outputs": [
				{
					"internalType": "bool",
					"name": "",
					"type": "bool"
				}
			],
			"stateMutability": "view",
			"type": "function"
		},
		{
			"inputs": [],
			"name": "getAuctionStatus",
			"outputs": [
				{
					"internalType": "address",
					"name": "currentHighestBidder",
					"type": "address"
				},
				{
					"internalType": "uint256",
					"name": "currentHighestBid",
					"type": "uint256"
				},
				{
					"internalType": "uint256",
					"name": "timeRemaining",
					"type": "uint256"
				},
				{
					"internalType": "bool",
					"name": "isEnded",
					"type": "bool"
				}
			],
			"stateMutability": "view",
			"type": "function"
		},
		{
			"inputs": [],
			"name": "highestBid",
			"outputs": [
				{
					"internalType": "uint256",
					"name": "",
					"type": "uint256"
				}
			],
			"stateMutability": "view",
			"type": "function"
		},
		{
			"inputs": [],
			"name": "highestBidder",
			"outputs": [
				{
					"internalType": "address",
					"name": "",
					"type": "address"
				}
			],
			"stateMutability": "view",
			"type": "function"
		},
		{
			"inputs": [],
			"name": "minIncrement",
			"outputs": [
				{
					"internalType": "uint256",
					"name": "",
					"type": "uint256"
				}
			],
			"stateMutability": "view",
			"type": "function"
		},
		{
			"inputs": [],
			"name": "owner",
			"outputs": [
				{
					"internalType": "address",
					"name": "",
					"type": "address"
				}
			],
			"stateMutability": "view",
			"type": "function"
		},
		{
			"inputs": [
				{
					"internalType": "address",
					"name": "",
					"type": "address"
				}
			],
			"name": "pendingReturns",
			"outputs": [
				{
					"internalType": "uint256",
					"name": "",
					"type": "uint256"
				}
			],
			"stateMutability": "view",
			"type": "function"
		},
		{
			"inputs": [
				{
					"internalType": "uint256",
					"name": "newDuration",
					"type": "uint256"
				},
				{
					"internalType": "uint256",
					"name": "newMinIncrement",
					"type": "uint256"
				}
			],
			"name": "resaleWithRoyalty",
			"outputs": [],
			"stateMutability": "payable",
			"type": "function"
		},
		{
			"inputs": [],
			"name": "royaltyRate",
			"outputs": [
				{
					"internalType": "uint256",
					"name": "",
					"type": "uint256"
				}
			],
			"stateMutability": "view",
			"type": "function"
		},
		{
			"inputs": [],
			"name": "soldCount",
			"outputs": [
				{
					"internalType": "uint256",
					"name": "",
					"type": "uint256"
				}
			],
			"stateMutability": "view",
			"type": "function"
		},
		{
			"inputs": [],
			"name": "withdraw",
			"outputs": [],
			"stateMutability": "nonpayable",
			"type": "function"
		}
	]
}